{
  "_format": "hh-sol-artifact-1",
  "contractName": "SuLiquidationDiscount",
  "sourceName": "contracts/liquidator/SuLiquidationDiscount.sol",
  "abi": [
    {
      "inputs": [
        {
          "internalType": "address",
          "name": "authControl_",
          "type": "address"
        }
      ],
      "stateMutability": "nonpayable",
      "type": "constructor"
    },
    {
      "inputs": [],
      "name": "IncorrectDiscount",
      "type": "error"
    },
    {
      "inputs": [],
      "name": "ACCESS_CONTROL_SINGLETON",
      "outputs": [
        {
          "internalType": "contract ISuAccessControl",
          "name": "",
          "type": "address"
        }
      ],
      "stateMutability": "view",
      "type": "function"
    },
    {
      "inputs": [],
      "name": "LIQUIDATION_ACCESS_ROLE",
      "outputs": [
        {
          "internalType": "bytes32",
          "name": "",
          "type": "bytes32"
        }
      ],
      "stateMutability": "view",
      "type": "function"
    },
    {
      "inputs": [],
      "name": "MINTER_ROLE",
      "outputs": [
        {
          "internalType": "bytes32",
          "name": "",
          "type": "bytes32"
        }
      ],
      "stateMutability": "view",
      "type": "function"
    },
    {
      "inputs": [],
      "name": "VAULT_ACCESS_ROLE",
      "outputs": [
        {
          "internalType": "bytes32",
          "name": "",
          "type": "bytes32"
        }
      ],
      "stateMutability": "view",
      "type": "function"
    },
    {
      "inputs": [
        {
          "internalType": "address",
          "name": "asset",
          "type": "address"
        },
        {
          "internalType": "enum DiscountType",
          "name": "discountType",
          "type": "uint8"
        },
        {
          "components": [
            {
              "internalType": "uint256",
              "name": "firstBlockE18",
              "type": "uint256"
            },
            {
              "internalType": "uint256",
              "name": "stepPerMinuteE18",
              "type": "uint256"
            }
          ],
          "internalType": "struct DiscountInfo",
          "name": "discountInfo",
          "type": "tuple"
        }
      ],
      "name": "setDiscountInfo",
      "outputs": [],
      "stateMutability": "nonpayable",
      "type": "function"
    }
  ],
  "bytecode": "0x60a060405234801561001057600080fd5b506040516104d23803806104d283398101604081905261002f91610044565b60601b6001600160601b031916608052610072565b600060208284031215610055578081fd5b81516001600160a01b038116811461006b578182fd5b9392505050565b60805160601c61043c610096600039600081816071015261018a015261043c6000f3fe608060405234801561001057600080fd5b50600436106100675760003560e01c8063d539139311610050578063d5391393146100f2578063dc97e84e14610119578063f4e2ebeb1461014057600080fd5b806303ee9f221461006c57806314c376dc146100bd575b600080fd5b6100937f000000000000000000000000000000000000000000000000000000000000000081565b60405173ffffffffffffffffffffffffffffffffffffffff90911681526020015b60405180910390f35b6100e47fe965846df3dd5b1dfa65f58e31477079e90140e0908b6dd31b5aead5a57cf36581565b6040519081526020016100b4565b6100e47f9f2df0fed2c77648de5860a4cc508cd0818c85b8b8a1ab4ceeef8d981c8956a681565b6100e47f9a9aef7c1247d5fc769b0185c052913e39673da29a880317dfd20ebf86f26a4981565b61015361014e366004610373565b610155565b005b6040517f91d14854000000000000000000000000000000000000000000000000000000008152600060048201523360248201527f000000000000000000000000000000000000000000000000000000000000000073ffffffffffffffffffffffffffffffffffffffff16906391d148549060440160206040518083038186803b1580156101e157600080fd5b505afa1580156101f5573d6000803e3d6000fd5b505050506040513d601f19601f8201168201806040525081019061021991906103df565b610283576040517f08c379a000000000000000000000000000000000000000000000000000000000815260206004820152601d60248201527f5375417574683a206f6e6c794f776e657220415554485f4641494c4544000000604482015260640160405180910390fd5b61028c81610315565b73ffffffffffffffffffffffffffffffffffffffff8316600090815260208190526040812082918460028111156102d357634e487b7160e01b600052602160045260246000fd5b60028111156102f257634e487b7160e01b600052602160045260246000fd5b815260208082019290925260400160002082358155910135600190910155505050565b670de0b6b3a764000081351015806103395750670de0b6b3a7640000816020013510155b15610370576040517f8478aedc00000000000000000000000000000000000000000000000000000000815260040160405180910390fd5b50565b60008060008385036080811215610388578384fd5b843573ffffffffffffffffffffffffffffffffffffffff811681146103ab578485fd5b93506020850135600381106103be578384fd5b92506040603f19820112156103d1578182fd5b506040840190509250925092565b6000602082840312156103f0578081fd5b815180151581146103ff578182fd5b939250505056fea26469706673582212208ff959447002f3262e45f96e63c4e787a5c5c3b1115ba76de607f854cb4251c264736f6c63430008040033",
  "linkReferences": {},
  "deployedLinkReferences": {}
}