{
  "address": "0x9976E3623171E21507BED40485b306248cbb8FCD",
  "abi": [
    {
      "inputs": [],
      "stateMutability": "nonpayable",
      "type": "constructor"
    },
    {
      "inputs": [],
      "name": "BadAccessControlSingleton",
      "type": "error"
    },
    {
      "inputs": [],
      "name": "BadModifyParameters",
      "type": "error"
    },
    {
      "inputs": [],
      "name": "BadRewardToken",
      "type": "error"
    },
    {
      "inputs": [
        {
          "internalType": "address",
          "name": "asset",
          "type": "address"
        }
      ],
      "name": "BadStablecoin",
      "type": "error"
    },
    {
      "inputs": [],
      "name": "ContractDisabled",
      "type": "error"
    },
    {
      "inputs": [],
      "name": "DebtNotZero",
      "type": "error"
    },
    {
      "inputs": [],
      "name": "InsufficientDebt",
      "type": "error"
    },
    {
      "inputs": [],
      "name": "InsufficientSurplus",
      "type": "error"
    },
    {
      "inputs": [],
      "name": "NotEnoughAsh",
      "type": "error"
    },
    {
      "inputs": [],
      "name": "OnlyAdminError",
      "type": "error"
    },
    {
      "inputs": [],
      "name": "OnlyAlerterError",
      "type": "error"
    },
    {
      "inputs": [],
      "name": "OnlyCDPAccessError",
      "type": "error"
    },
    {
      "inputs": [],
      "name": "OnlyDAOError",
      "type": "error"
    },
    {
      "inputs": [],
      "name": "OnlyDisablerAccessError",
      "type": "error"
    },
    {
      "inputs": [],
      "name": "OnlyLiquidationAccessError",
      "type": "error"
    },
    {
      "inputs": [],
      "name": "OnlyMintAccessError",
      "type": "error"
    },
    {
      "inputs": [],
      "name": "OnlyProxyActionsError",
      "type": "error"
    },
    {
      "inputs": [],
      "name": "OnlyRewardAccessError",
      "type": "error"
    },
    {
      "inputs": [],
      "name": "OnlyRoleError",
      "type": "error"
    },
    {
      "inputs": [],
      "name": "OnlyVaultAccessError",
      "type": "error"
    },
    {
      "inputs": [],
      "name": "OnlyVotingEscrowError",
      "type": "error"
    },
    {
      "inputs": [],
      "name": "PopDebtDelayNotFinished",
      "type": "error"
    },
    {
      "inputs": [
        {
          "internalType": "address",
          "name": "asset",
          "type": "address"
        }
      ],
      "name": "StablecoinExists",
      "type": "error"
    },
    {
      "inputs": [
        {
          "internalType": "address",
          "name": "asset",
          "type": "address"
        }
      ],
      "name": "StablecoinNotExist",
      "type": "error"
    },
    {
      "inputs": [],
      "name": "SurplusNotZero",
      "type": "error"
    },
    {
      "anonymous": false,
      "inputs": [],
      "name": "DisableContract",
      "type": "event"
    },
    {
      "anonymous": false,
      "inputs": [
        {
          "indexed": false,
          "internalType": "uint8",
          "name": "version",
          "type": "uint8"
        }
      ],
      "name": "Initialized",
      "type": "event"
    },
    {
      "anonymous": false,
      "inputs": [
        {
          "indexed": false,
          "internalType": "uint256",
          "name": "amount",
          "type": "uint256"
        }
      ],
      "name": "StableProSwapped",
      "type": "event"
    },
    {
      "anonymous": false,
      "inputs": [
        {
          "indexed": false,
          "internalType": "address",
          "name": "stablecoin",
          "type": "address"
        },
        {
          "indexed": false,
          "internalType": "uint256",
          "name": "amount",
          "type": "uint256"
        }
      ],
      "name": "StablecoinRefilled",
      "type": "event"
    },
    {
      "inputs": [],
      "name": "ACCESS_CONTROL_SINGLETON",
      "outputs": [
        {
          "internalType": "contract ISuAccessControl",
          "name": "",
          "type": "address"
        }
      ],
      "stateMutability": "view",
      "type": "function"
    },
    {
      "inputs": [],
      "name": "ADMIN_ROLE",
      "outputs": [
        {
          "internalType": "bytes32",
          "name": "",
          "type": "bytes32"
        }
      ],
      "stateMutability": "view",
      "type": "function"
    },
    {
      "inputs": [],
      "name": "ALERTER_ROLE",
      "outputs": [
        {
          "internalType": "bytes32",
          "name": "",
          "type": "bytes32"
        }
      ],
      "stateMutability": "view",
      "type": "function"
    },
    {
      "inputs": [],
      "name": "CDP_ACCESS_ROLE",
      "outputs": [
        {
          "internalType": "bytes32",
          "name": "",
          "type": "bytes32"
        }
      ],
      "stateMutability": "view",
      "type": "function"
    },
    {
      "inputs": [],
      "name": "DAO_ROLE",
      "outputs": [
        {
          "internalType": "bytes32",
          "name": "",
          "type": "bytes32"
        }
      ],
      "stateMutability": "view",
      "type": "function"
    },
    {
      "inputs": [],
      "name": "DISABLER_ROLE",
      "outputs": [
        {
          "internalType": "bytes32",
          "name": "",
          "type": "bytes32"
        }
      ],
      "stateMutability": "view",
      "type": "function"
    },
    {
      "inputs": [],
      "name": "LIQUIDATION_ACCESS_ROLE",
      "outputs": [
        {
          "internalType": "bytes32",
          "name": "",
          "type": "bytes32"
        }
      ],
      "stateMutability": "view",
      "type": "function"
    },
    {
      "inputs": [],
      "name": "MINT_ACCESS_ROLE",
      "outputs": [
        {
          "internalType": "bytes32",
          "name": "",
          "type": "bytes32"
        }
      ],
      "stateMutability": "view",
      "type": "function"
    },
    {
      "inputs": [],
      "name": "PROXY_ACTIONS_ROLE",
      "outputs": [
        {
          "internalType": "bytes32",
          "name": "",
          "type": "bytes32"
        }
      ],
      "stateMutability": "view",
      "type": "function"
    },
    {
      "inputs": [],
      "name": "REWARD_ACCESS_ROLE",
      "outputs": [
        {
          "internalType": "bytes32",
          "name": "",
          "type": "bytes32"
        }
      ],
      "stateMutability": "view",
      "type": "function"
    },
    {
      "inputs": [],
      "name": "VOTING_ESCROW_ROLE",
      "outputs": [
        {
          "internalType": "bytes32",
          "name": "",
          "type": "bytes32"
        }
      ],
      "stateMutability": "view",
      "type": "function"
    },
    {
      "inputs": [
        {
          "internalType": "address",
          "name": "stablecoin",
          "type": "address"
        }
      ],
      "name": "addWhitelistStablecoin",
      "outputs": [],
      "stateMutability": "nonpayable",
      "type": "function"
    },
    {
      "inputs": [
        {
          "internalType": "address",
          "name": "token2sell",
          "type": "address"
        },
        {
          "internalType": "uint256",
          "name": "amountToSell",
          "type": "uint256"
        },
        {
          "internalType": "uint8",
          "name": "discountType",
          "type": "uint8"
        },
        {
          "internalType": "uint256",
          "name": "auctionDebt",
          "type": "uint256"
        }
      ],
      "name": "auctionDebt",
      "outputs": [
        {
          "internalType": "uint256",
          "name": "orderId",
          "type": "uint256"
        }
      ],
      "stateMutability": "nonpayable",
      "type": "function"
    },
    {
      "inputs": [
        {
          "internalType": "uint256",
          "name": "surplusAmount",
          "type": "uint256"
        },
        {
          "internalType": "uint8",
          "name": "discountType",
          "type": "uint8"
        }
      ],
      "name": "auctionSurplus",
      "outputs": [
        {
          "internalType": "uint256",
          "name": "orderId",
          "type": "uint256"
        }
      ],
      "stateMutability": "nonpayable",
      "type": "function"
    },
    {
      "inputs": [
        {
          "internalType": "uint256",
          "name": "rad",
          "type": "uint256"
        }
      ],
      "name": "cancelAuctionedDebtWithSurplus",
      "outputs": [],
      "stateMutability": "nonpayable",
      "type": "function"
    },
    {
      "inputs": [],
      "name": "coinJoin",
      "outputs": [
        {
          "internalType": "contract ICoinJoin",
          "name": "",
          "type": "address"
        }
      ],
      "stateMutability": "view",
      "type": "function"
    },
    {
      "inputs": [],
      "name": "contractEnabled",
      "outputs": [
        {
          "internalType": "uint256",
          "name": "",
          "type": "uint256"
        }
      ],
      "stateMutability": "view",
      "type": "function"
    },
    {
      "inputs": [
        {
          "internalType": "uint256",
          "name": "",
          "type": "uint256"
        }
      ],
      "name": "debtQueue",
      "outputs": [
        {
          "internalType": "uint256",
          "name": "",
          "type": "uint256"
        }
      ],
      "stateMutability": "view",
      "type": "function"
    },
    {
      "inputs": [],
      "name": "defaultRewardEndBlock",
      "outputs": [
        {
          "internalType": "uint256",
          "name": "",
          "type": "uint256"
        }
      ],
      "stateMutability": "view",
      "type": "function"
    },
    {
      "inputs": [],
      "name": "disableContract",
      "outputs": [],
      "stateMutability": "nonpayable",
      "type": "function"
    },
    {
      "inputs": [],
      "name": "exchange",
      "outputs": [
        {
          "internalType": "contract IExchange",
          "name": "",
          "type": "address"
        }
      ],
      "stateMutability": "view",
      "type": "function"
    },
    {
      "inputs": [
        {
          "internalType": "uint256",
          "name": "amount",
          "type": "uint256"
        }
      ],
      "name": "getRealStablePro",
      "outputs": [],
      "stateMutability": "nonpayable",
      "type": "function"
    },
    {
      "inputs": [
        {
          "internalType": "address",
          "name": "stablecoin",
          "type": "address"
        }
      ],
      "name": "hasWhitelistStablecoin",
      "outputs": [
        {
          "internalType": "bool",
          "name": "",
          "type": "bool"
        }
      ],
      "stateMutability": "view",
      "type": "function"
    },
    {
      "inputs": [
        {
          "internalType": "address",
          "name": "accessControl_",
          "type": "address"
        },
        {
          "internalType": "address",
          "name": "safeEngine_",
          "type": "address"
        },
        {
          "internalType": "address",
          "name": "exchange_",
          "type": "address"
        },
        {
          "internalType": "address",
          "name": "oracle_",
          "type": "address"
        },
        {
          "internalType": "address",
          "name": "suDAO_",
          "type": "address"
        },
        {
          "internalType": "address",
          "name": "stablePro_",
          "type": "address"
        },
        {
          "internalType": "address",
          "name": "coinJoin_",
          "type": "address"
        }
      ],
      "name": "initialize",
      "outputs": [],
      "stateMutability": "nonpayable",
      "type": "function"
    },
    {
      "inputs": [
        {
          "internalType": "uint256",
          "name": "amount",
          "type": "uint256"
        }
      ],
      "name": "joinStablePro",
      "outputs": [],
      "stateMutability": "nonpayable",
      "type": "function"
    },
    {
      "inputs": [
        {
          "internalType": "bytes32",
          "name": "what",
          "type": "bytes32"
        },
        {
          "internalType": "address",
          "name": "data",
          "type": "address"
        }
      ],
      "name": "modifyParameters",
      "outputs": [],
      "stateMutability": "nonpayable",
      "type": "function"
    },
    {
      "inputs": [
        {
          "internalType": "bytes32",
          "name": "what",
          "type": "bytes32"
        },
        {
          "internalType": "uint256",
          "name": "data",
          "type": "uint256"
        }
      ],
      "name": "modifyParameters",
      "outputs": [],
      "stateMutability": "nonpayable",
      "type": "function"
    },
    {
      "inputs": [],
      "name": "oracle",
      "outputs": [
        {
          "internalType": "contract ISuOracleAggregator",
          "name": "",
          "type": "address"
        }
      ],
      "stateMutability": "view",
      "type": "function"
    },
    {
      "inputs": [],
      "name": "popDebtDelay",
      "outputs": [
        {
          "internalType": "uint256",
          "name": "",
          "type": "uint256"
        }
      ],
      "stateMutability": "view",
      "type": "function"
    },
    {
      "inputs": [
        {
          "internalType": "uint256",
          "name": "era",
          "type": "uint256"
        }
      ],
      "name": "popDebtFromQueue",
      "outputs": [],
      "stateMutability": "nonpayable",
      "type": "function"
    },
    {
      "inputs": [
        {
          "internalType": "uint256",
          "name": "amountToRaise",
          "type": "uint256"
        }
      ],
      "name": "pushDebtToQueue",
      "outputs": [],
      "stateMutability": "nonpayable",
      "type": "function"
    },
    {
      "inputs": [
        {
          "internalType": "address",
          "name": "stablecoin",
          "type": "address"
        },
        {
          "internalType": "uint256",
          "name": "amount",
          "type": "uint256"
        }
      ],
      "name": "refillStablecoin",
      "outputs": [],
      "stateMutability": "nonpayable",
      "type": "function"
    },
    {
      "inputs": [
        {
          "internalType": "address",
          "name": "stablecoin",
          "type": "address"
        }
      ],
      "name": "removeWhitelistStablecoin",
      "outputs": [],
      "stateMutability": "nonpayable",
      "type": "function"
    },
    {
      "inputs": [],
      "name": "safeEngine",
      "outputs": [
        {
          "internalType": "contract ISafeEngine",
          "name": "",
          "type": "address"
        }
      ],
      "stateMutability": "view",
      "type": "function"
    },
    {
      "inputs": [
        {
          "internalType": "address",
          "name": "stablecoin",
          "type": "address"
        }
      ],
      "name": "setStablecoinToSwap",
      "outputs": [],
      "stateMutability": "nonpayable",
      "type": "function"
    },
    {
      "inputs": [
        {
          "internalType": "uint256",
          "name": "rad",
          "type": "uint256"
        }
      ],
      "name": "settleDebt",
      "outputs": [],
      "stateMutability": "nonpayable",
      "type": "function"
    },
    {
      "inputs": [],
      "name": "stablePro",
      "outputs": [
        {
          "internalType": "contract IERC20",
          "name": "",
          "type": "address"
        }
      ],
      "stateMutability": "view",
      "type": "function"
    },
    {
      "inputs": [],
      "name": "stablecoinToSwap",
      "outputs": [
        {
          "internalType": "address",
          "name": "",
          "type": "address"
        }
      ],
      "stateMutability": "view",
      "type": "function"
    },
    {
      "inputs": [],
      "name": "suDAO",
      "outputs": [
        {
          "internalType": "contract IERC20",
          "name": "",
          "type": "address"
        }
      ],
      "stateMutability": "view",
      "type": "function"
    },
    {
      "inputs": [
        {
          "internalType": "bytes4",
          "name": "interfaceId",
          "type": "bytes4"
        }
      ],
      "name": "supportsInterface",
      "outputs": [
        {
          "internalType": "bool",
          "name": "",
          "type": "bool"
        }
      ],
      "stateMutability": "view",
      "type": "function"
    },
    {
      "inputs": [],
      "name": "surplusBuffer",
      "outputs": [
        {
          "internalType": "uint256",
          "name": "",
          "type": "uint256"
        }
      ],
      "stateMutability": "view",
      "type": "function"
    },
    {
      "inputs": [
        {
          "internalType": "address",
          "name": "stablecoinToken",
          "type": "address"
        },
        {
          "internalType": "uint256",
          "name": "stableProAmountE18",
          "type": "uint256"
        }
      ],
      "name": "swapStableProToStablecoin",
      "outputs": [],
      "stateMutability": "nonpayable",
      "type": "function"
    },
    {
      "inputs": [],
      "name": "totalOnAuctionDebt",
      "outputs": [
        {
          "internalType": "uint256",
          "name": "",
          "type": "uint256"
        }
      ],
      "stateMutability": "view",
      "type": "function"
    },
    {
      "inputs": [],
      "name": "totalQueuedDebt",
      "outputs": [
        {
          "internalType": "uint256",
          "name": "",
          "type": "uint256"
        }
      ],
      "stateMutability": "view",
      "type": "function"
    }
  ],
  "numDeployments": 1,
  "solcInputHash": "8c060bc8c39a7272c2849a174b3b4791",
  "bytecode": "0x608080604052346100c1576000549060ff8260081c1661006f575060ff80821603610034575b60405161214190816100c78239f35b60ff90811916176000557f7f26b83ff96e1f2b6a682f133852f6798a09c465da95921460cefb3847402498602060405160ff8152a138610025565b62461bcd60e51b815260206004820152602760248201527f496e697469616c697a61626c653a20636f6e747261637420697320696e697469604482015266616c697a696e6760c81b6064820152608490fd5b600080fdfe6080604081815260048036101561001557600080fd5b600092833560e01c90816301ffc9a714611dd557508063038a3e2f14611cf657806303ee9f2214611cca5780630f44d6bd14611cab57806327a0bb3314611b555780632a608d5b14611b365780632d09f11d14611b1757806330413a2a14611aee57806335876476146117cc5780633977a319146117a55780633dc4ab1d146116b75780633fec7e461461168e57806341b3a0d914611670578063438280dd146116355780635221e88214611616578063550a1e001461142c5780635d49502b146113505780636614f010146111fa57806367aea313146111d157806371d0fb411461119657806375b238fc1461117b5780637ae8b2e11461107c5780637dc0d1d014611053578063887e2a4a1461102a578063894ba83314610e4f5780638b24dc3e14610dec5780638e5313e014610db15780639d32526814610bee578063a8b30a9f14610b1b578063b38234f314610ae0578063bd5f5be614610aa5578063d09a79dd14610913578063d0e8fa82146108d8578063d2351cee146108af578063d2f7265a14610886578063d46e50d01461085d578063d507007614610763578063d65e861d14610744578063dc97e84e1461071b578063de51eefd146106dd578063e9c26518146106b4578063e9de2c3f14610655578063ed9ac3681461032b5763fe4f58901461020757600080fd5b34610327578160031936011261032757803591602435926044602060018060a01b03875460101c16845192838092632474521560e21b82526000805160206120ac833981519152898301523360248301525afa90811561031d5786916102ef575b50156102e1576b706f704465627444656c617960a01b810361028e57505050603e555b80f35b6c39bab938363ab9a13ab33332b960991b81036102ae57505050603f5580f35b7464656661756c74526577617264456e64426c6f636b60581b036102d457505060415580f35b51634f7c191f60e01b8152fd5b505163599a6c3360e11b8152fd5b610310915060203d8111610316575b6103088183611ed7565b810190611efa565b38610268565b503d6102fe565b83513d88823e3d90fd5b8280fd5b509190346106515780600319360112610651576024928335813560ff821682036104c05760018060a01b039081865460101c169685518098632474521560e21b82528887830152338383015281604460209b8c935afa90811561064757889161062a575b501561061a576033548651633eaf7a0360e21b8152308782015290841689828481845afa9182156105de578392918b918b936105e8575b5089516311005b0760e01b8152308a82015293849182905afa9182156105de5789926105af575b508460375416928851916370a0823160e01b835230898401528b838381885afa9283156105a5578b93610576575b50603f54908181109384156104f7575b505050506104e75761044361044c91603c549061209e565b603d549061209e565b6104d757908683926104808a969560345416946036541695895198899788968795633bcce46f60e21b875230938701611f12565b03925af19283156104cc5792610498575b5051908152f35b9091508281813d83116104c5575b6104b08183611ed7565b810103126104c057519038610491565b600080fd5b503d6104a6565b8251903d90823e3d90fd5b85516312bf4cab60e01b81528590fd5b86516394290ab960e01b81528690fd5b9293509091676765c793fa10079d601b1b9182820291801590830484141715610564579061052491612074565b928187029187830414871517156105535750906105446105499285612074565b612074565b113880808061042b565b634e487b7160e01b8c5260118a528bfd5b634e487b7160e01b8d5260118b52848dfd5b9092508b81813d831161059e575b61058e8183611ed7565b810103126104c05751913861041b565b503d610584565b8a513d8d823e3d90fd5b9091508981813d83116105d7575b6105c78183611ed7565b810103126104c0575190386103ed565b503d6105bd565b88513d8b823e3d90fd5b9350915082813d8311610613575b6106008183611ed7565b810103126104c0578983925191386103c6565b503d6105f6565b8551631886ea7d60e11b81528590fd5b6106419150893d8b11610316576103088183611ed7565b3861038f565b87513d8a823e3d90fd5b5080fd5b5050346106515780600319360112610651577f2cb31b7cd23f5e7810b379525524ddf0fdf14cab7855eff4507f490a268ce01690610691611e67565b6106ae602435926106a484303386611fa7565b5192839283611f4d565b0390a180f35b505034610651578160031936011261065157602090516000805160206120ac8339815191528152f35b5050346106515760203660031901126106515760209160ff9082906001600160a01b03610708611e67565b1681526039855220541690519015158152f35b505034610651578160031936011261065157602090516000805160206120cc8339815191528152f35b5050346106515781600319360112610651576020906041549051908152f35b508290346106515760203660031901126106515781548351632474521560e21b81528281018490523360248201526001600160a01b0394916020908290604490829060101c89165afa908115610853578491610835575b501561082857829360385416803b15610823578151633bccb9b760e21b815292849184918290849082906107f49080359030908401611f4d565b03925af190811561081a57506108075750f35b61081090611e93565b6108175780f35b80fd5b513d84823e3d90fd5b505050fd5b51631886ea7d60e11b8152fd5b61084d915060203d8111610316576103088183611ed7565b856107ba565b82513d86823e3d90fd5b50503461065157816003193601126106515760375490516001600160a01b039091168152602090f35b50503461065157816003193601126106515760345490516001600160a01b039091168152602090f35b505034610651578160031936011261065157602090516000805160206120ec8339815191528152f35b505034610651578160031936011261065157602090517f76d0567582f23e1e9d7a13eeba60f9aea9d69b8da87ca27a8bf3698b35c653db8152f35b5090346103275760209081600319360112610aa157610930611e67565b84548251632474521560e21b81526000805160206120ac833981519152868201523360248201526001600160a01b039185908290604490829060101c86165afa908115610a97578791610a7a575b5015610a6a578082168087526039855260ff8488205416610a545791600092918392885260398652848820600160ff19825416179055603454168285518781019263095ea7b360e01b8452602482015281196044820152604481526109e281611ebc565b51925af16109ee611f68565b81610a24575b50156109fe578380f35b5162461bcd60e51b8152918201526002602482015261534160f01b604482015260649150fd5b80518015925084908315610a3c575b505050386109f4565b610a4c9350820181019101611efa565b388381610a33565b8560249185519163c05cbd9360e01b8352820152fd5b825163599a6c3360e11b81528590fd5b610a919150853d8711610316576103088183611ed7565b3861097e565b84513d89823e3d90fd5b8380fd5b505034610651578160031936011261065157602090517f4f14c8366fa999817edc9f29824eb88a00cc31225e2156f399da4bc91049eb108152f35b505034610651578160031936011261065157602090517fd83f5343da19b478b15a140c301a868be9e02603958f38fbd822b9d5c0a289168152f35b50919034610651576020806003193601126103275782548251632474521560e21b81526000805160206120cc833981519152818701523360248201528535939183908290604490829060101c6001600160a01b03165afa908115610be4578591610bc7575b5015610bb857610bb2939450428552603b8252603b610ba28483882054612074565b9242875252842055603c54612074565b603c5580f35b5163200ab6d960e01b81528490fd5b610bde9150833d8511610316576103088183611ed7565b38610b80565b82513d87823e3d90fd5b5091903461065157608036600319011261065157610c0a611e67565b9260443560243560ff821682036104c05760018060a01b039081865460101c169685518098632474521560e21b8252888783015233602483015281604460209b8c935afa908115610647578891610d94575b501561061a57868884603554166024895180948193632a5001c960e01b83528988168c8401525af1908115610647578891610d67575b508083810204831490151715610d52576024888460335416885192838092633eaf7a0360e21b8252308b8301525afa908115610647578891610d25575b50610d1557908688949392610ce8606435603d54612074565b603d556104808460345416946037541695895198899788968795633bcce46f60e21b875230938701611f12565b855163e9f0635560e01b81528590fd5b90508881813d8311610d4b575b610d3c8183611ed7565b810103126104c0575138610ccf565b503d610d32565b601185634e487b7160e01b6000525260246000fd5b90508881813d8311610d8d575b610d7e8183611ed7565b810103126104c0575138610c92565b503d610d74565b610dab9150893d8b11610316576103088183611ed7565b38610c5c565b505034610651578160031936011261065157602090517fe453bacb314e78dcd5192e6b1a2b1f0e7c76e92f6b7e429a6a90f04e39db3b768152f35b50919034610651576020366003190112610651578235610e0e603e5482612074565b4210610e3f57829350610e2f603c54828552603b602052838520549061209e565b603c558252603b60205281205580f35b81516306932a5360e11b81528490fd5b5091903461065157816003193601126106515781548151632474521560e21b81526000805160206120ec83398151915285820152336024820152602092916001600160a01b03919084908290604490829060101c86165afa908115611020578591611003575b5015610ff357815415610fe35793839484835584603c5584603d556033541692825190633eaf7a0360e21b825230838301528082602481885afa918215610fd9578692610fa7575b5083516311005b0760e01b815230848201528181602481895afa918215610f9d578792610f6c575b5050808211610f6557505b833b15610f61576024859283855196879485936327a0bb3360e01b85528401525af190811561081a57506108075750f35b8480fd5b9050610f30565b8197508092503d8311610f96575b610f848183611ed7565b810103126104c0578594513880610f25565b503d610f7a565b85513d89823e3d90fd5b809650818093503d8311610fd2575b610fc08183611ed7565b810103126104c0578594519038610efd565b503d610fb6565b84513d88823e3d90fd5b81516303b14e6560e51b81528590fd5b815163bb0684b760e01b81528590fd5b61101a9150843d8611610316576103088183611ed7565b38610eb5565b83513d87823e3d90fd5b50503461065157816003193601126106515760365490516001600160a01b039091168152602090f35b50503461065157816003193601126106515760355490516001600160a01b039091168152602090f35b5090346103275760209081600319360112610aa157611099611e67565b84548251632474521560e21b81526000805160206120ac833981519152868201523360248201526001600160a01b039185908290604490829060101c86165afa908115610a9757879161115e575b5015610a6a578082168087526039855260ff848820541615611148579160009291839288526039865284882060ff198154169055603454168285518781019263095ea7b360e01b84526024820152816044820152604481526109e281611ebc565b8560249185519163052bb4dd60e01b8352820152fd5b6111759150853d8711610316576103088183611ed7565b386110e7565b50503461065157816003193601126106515751908152602090f35b505034610651578160031936011261065157602090517f880a91047114272656e533301261260c75e4d11543ac7303d6fe4204579ec7278152f35b50503461065157816003193601126106515760335490516001600160a01b039091168152602090f35b50346103275781600319360112610327578035611215611e7d565b84548451632474521560e21b81526000805160206120ac833981519152818601523360248201526001600160a01b0395929492916020908290604490829060101c8a165afa908115611346578791611328575b501561131b5750506765786368616e676560c01b8114611302575b656f7261636c6560d01b81146112e9575b64737544414f60d81b81146112d0575b6731b7b4b72537b4b760c11b146112b9578280f35b1660018060a01b0319603854161760385538808280f35b603680546001600160a01b0319168385161790556112a4565b603580546001600160a01b031916838516179055611294565b603480546001600160a01b031916838516179055611283565b5163599a6c3360e11b8152fd5b611340915060203d8111610316576103088183611ed7565b38611268565b82513d89823e3d90fd5b509190346106515760203660031901126106515782359060018060a01b036044602082865460101c16845192838092632474521560e21b8252898b8301523360248301525afa90811561102057859161140e575b50156113fe57938394603d54848082106000146113f0575050845b603d556038541692833b15610f61576107f49385928385518097819582946312db6f5f60e01b845230908401611f4d565b6113f99161209e565b6113bf565b8151631886ea7d60e11b81528590fd5b611426915060203d8111610316576103088183611ed7565b386113a4565b50829034610651578260031936011261065157611447611e67565b9060249081359160018060a01b0393848116948587526020956039875260ff89892054161561160157670de0b6b3a7640000918287029287840414871517156115ef5787816035541692868c5180958193631735856760e31b83528b8301525afa9182156115e55789926115b6575b5081156115a25791886114f86115068296946114db8b85986037541630903390611fa7565b8d519283918d83019663a9059cbb60e01b885204338b8401611f4d565b03601f198101835282611ed7565b51925af1611512611f68565b81611572575b501561154b5750507f062234b32cab33fa5bcd957e318141fefab38cc79f25ec5b972be8392e98cb6c929351908152a180f35b855162461bcd60e51b81529182018490526002908201526114d560f21b6044820152606490fd5b8051801592508690831561158a575b50505087611518565b61159a9350820181019101611efa565b878581611581565b84601287634e487b7160e01b600052526000fd5b9091508781813d83116115de575b6115ce8183611ed7565b810103126104c05751908a6114b6565b503d6115c4565b8a513d8b823e3d90fd5b634e487b7160e01b8952601186528489fd5b8484918a5191633935d9fb60e21b8352820152fd5b505034610651578160031936011261065157602090603e549051908152f35b505034610651578160031936011261065157602090517f39f61ca2a1a28fee144218173ec637b649a353e4026b2738c673800e5bf1437b8152f35b50503461065157816003193601126106515780602091549051908152f35b505034610651578160031936011261065157603a5490516001600160a01b039091168152602090f35b5091903461065157602036600319011261065157823590603d5493848311611797576033548251633eaf7a0360e21b815230838201526001600160a01b039091169390602081602481885afa908115610fd9578691611766575b5081116117575761172381869761209e565b603d55833b15610f61576024859283855196879485936327a0bb3360e01b85528401525af190811561081a57506108075750f35b5090516394290ab960e01b8152fd5b90506020813d821161178f575b8161178060209383611ed7565b810103126104c0575138611711565b3d9150611773565b9051633f94439960e21b8152fd5b5034610327576020366003190112610327576020928291358152603b845220549051908152f35b50346103275760e0366003190112610327576117e6611e67565b906117ef611e7d565b906001600160a01b03604435818116908190036104c057606435908282168092036104c057608435928084168094036104c05760a435908082168092036104c05760c435968188168098036104c0578a549860ff8a60081c1615998a809b611ae1575b8015611aca575b15611a705760ff1981166001178d558a611a5f575b508b5460ff8160081c1615611a085762010000600160b01b031916601082901b62010000600160b01b0316178c55821680159081156119a4575b50611994579287969594928b9892899516956033549460018060a01b03199388858816176033558460345416176034558360355416176035558260365416176036558160375416176037556038541617603855161791823b15610aa157602484928388519586948593631b29a84160e31b85528401525af1801561198a57611976575b5050600182556202a300604155611940575080f35b60207f7f26b83ff96e1f2b6a682f133852f6798a09c465da95921460cefb38474024989161ff001984541684555160018152a180f35b61197f90611e93565b61032757823861192b565b84513d84823e3d90fd5b89516384d942fd60e01b81528790fd5b8b516301ffc9a760e01b8152637965db0b60e01b8a8201529150602090829060249082905afa9081156119fe578c916119e0575b5015386118a8565b6119f8915060203d8111610316576103088183611ed7565b386119d8565b8b513d8e823e3d90fd5b8b5162461bcd60e51b81526020818b0152602b60248201527f496e697469616c697a61626c653a20636f6e7472616374206973206e6f74206960448201526a6e697469616c697a696e6760a81b6064820152608490fd5b61ffff1916610101178c553861186e565b8b5162461bcd60e51b81526020818b0152602e60248201527f496e697469616c697a61626c653a20636f6e747261637420697320616c72656160448201526d191e481a5b9a5d1a585b1a5e995960921b6064820152608490fd5b50303b1580156118595750600160ff821614611859565b50600160ff821610611852565b50503461065157816003193601126106515760385490516001600160a01b039091168152602090f35b505034610651578160031936011261065157602090603c549051908152f35b505034610651578160031936011261065157602090603f549051908152f35b5090346103275760209182600319360112610aa1576033548251633eaf7a0360e21b815230838201526001600160a01b0390911693823592918181602481895afa908115610f9d578791611c7a575b508311611c6b5783516311005b0760e01b815230838201528181602481895afa918215610f9d578792611c35575b5050610443611be491603c549061209e565b8211611c2757908491843b156103275760249083855196879485936327a0bb3360e01b85528401525af190811561081a5750611c1e575080f35b61028b90611e93565b825163ac4314a960e01b8152fd5b90809250813d8311611c64575b611c4c8183611ed7565b81010312611c605751610443611be4611bd2565b8580fd5b503d611c42565b5082516394290ab960e01b8152fd5b90508181813d8311611ca4575b611c918183611ed7565b81010312611ca0575138611ba4565b8680fd5b503d611c87565b505034610651578160031936011261065157602090603d549051908152f35b5050346106515781600319360112610651579054905160109190911c6001600160a01b03168152602090f35b503461032757602036600319011261032757611d10611e67565b83548351632474521560e21b81528381018690523360248201526001600160a01b0392916020908290604490829060101c87165afa908115611dcb578691611dad575b5015611d9d571691828452603960205260ff818520541615611d88575050603a80546001600160a01b03191691909117905580f35b916024925191633935d9fb60e21b8352820152fd5b8351631886ea7d60e11b81528390fd5b611dc5915060203d8111610316576103088183611ed7565b38611d53565b85513d88823e3d90fd5b9291905034610aa1576020366003190112610aa157803563ffffffff60e01b8116809103610f615784546301ffc9a760e01b8552918401526020908390602490829060101c6001600160a01b03165afa918215611e5d5760209392611e3e575b50519015158152f35b611e56919250833d8111610316576103088183611ed7565b9038611e35565b81513d85823e3d90fd5b600435906001600160a01b03821682036104c057565b602435906001600160a01b03821682036104c057565b6001600160401b038111611ea657604052565b634e487b7160e01b600052604160045260246000fd5b608081019081106001600160401b03821117611ea657604052565b601f909101601f19168101906001600160401b03821190821017611ea657604052565b908160209103126104c0575180151581036104c05790565b6001600160a01b039182168152602081019290925291821660408201529116606082015260ff9091166080820152600060a082015260c00190565b6001600160a01b039091168152602081019190915260400190565b3d15611fa2573d906001600160401b038211611ea65760405191611f96601f8201601f191660200184611ed7565b82523d6000602084013e565b606090565b6040516323b872dd60e01b602082019081526001600160a01b03938416602483015292909316604484015260648084019490945292825260a0820192906001600160401b03841183851017611ea6576000809493819460405251925af161200c611f68565b81612045575b501561201a57565b60405162461bcd60e51b815260206004820152600360248201526229aa2360e91b6044820152606490fd5b805180159250821561205a575b505038612012565b61206d9250602080918301019101611efa565b3880612052565b91908201918281116120885782106104c057565b634e487b7160e01b600052601160045260246000fd5b908103908111612088579056fe3b5d4cc60d3ec3516ee8ae083bd60934f6eb2a6c54b1229985c41bfb092b26039a9aef7c1247d5fc769b0185c052913e39673da29a880317dfd20ebf86f26a49b0fdd1623e42dbffda4acd8bd643e1cb69f00f0e83abeaa8150ee42cf0fd105ea2646970667358221220632e11dad6dc3f70a2bb273d462eed1da13645e4006f16972453458aef8726c264736f6c63430008110033",
  "devdoc": {
    "custom:changes": "Replaced MakerDAOs auction houses with Exchange module. Removed LibNote for event logging, requiring                 custom events (TODO). Added stablecoin whitelist and swap functions. Commented out RewardChef integration.",
    "custom:events": "Emits `StablecoinRefilled`, `StableProSwapped` for manual operations; custom events need definition (TODO).",
    "custom:security": "Only authorized accounts (DAO, Admin, DisablerAccess, LiquidationAccess) can call state-changing functions.                 Relies on SafeEngine for debt tracking and Exchange for auctions. Stablecoin whitelist ensures trusted tokens.",
    "custom:usage": "- **Initialization**: Deploy with required contract addresses.   ```solidity   AccountingEngine accountingEngine = new AccountingEngine(accessControl, safeEngine, exchange, oracle, suDAO, stablePro, coinJoin);   ``` - **Debt Queuing**: Push bad debt to the queue for auctioning.   ```solidity   accountingEngine.pushDebtToQueue(amountToRaise);   ``` - **Debt Auction**: Auction governance tokens to cover debt.   ```solidity   uint orderId = accountingEngine.auctionDebt(tokenToSell, amountToSell, discountType, auctionDebt);   ``` - **Surplus Auction**: Auction StablePro for governance tokens to burn.   ```solidity   uint orderId = accountingEngine.auctionSurplus(surplusAmount, discountType);   ``` - **Stablecoin Swap**: Swap StablePro for a whitelisted stablecoin.   ```solidity   accountingEngine.swapStableProToStablecoin(stablecoin, stableProAmount);   ``` - **Disabling**: Disable the contract and settle remaining debt.   ```solidity   accountingEngine.disableContract();   ```",
    "details": "Handles debt queuing, surplus auctions, debt auctions, and stablecoin swaps. Integrates with SafeEngine for debt      settlement, Exchange for auctions, and CoinJoin for StablePro operations. Supports a whitelist of stablecoins for      swaps and a surplus buffer to ensure protocol solvency. This contract is a fork of MakerDAOs AccountingEngine.sol,      adapted for StableUnit with an Exchange module, stablecoin whitelist, and commented-out RewardChef integration.",
    "kind": "dev",
    "methods": {
      "addWhitelistStablecoin(address)": {
        "details": "Approves the Exchange module to spend the stablecoin. Only callable by DAO.",
        "params": {
          "stablecoin": "Address of the stablecoin to whitelist."
        }
      },
      "auctionDebt(address,uint256,uint8,uint256)": {
        "details": "Creates an Exchange order to sell governance tokens for StablePro, increasing auctioned debt.",
        "params": {
          "amountToSell": "Amount of tokens to sell [token decimals].",
          "auctionDebt": "Debt amount to cover [rad].",
          "discountType": "Discount type for the Exchange order.",
          "token2sell": "Address of the token to sell (suDAO)."
        },
        "returns": {
          "orderId": "Unique identifier of the Exchange order."
        }
      },
      "auctionSurplus(uint256,uint8)": {
        "details": "Creates an Exchange order to sell StablePro, ensuring sufficient surplus and no outstanding debt.Fail: i think its deprecated function, because we dont have rewardChef.",
        "params": {
          "discountType": "Discount type for the Exchange order.",
          "surplusAmount": "Amount of StablePro to auction [wad]."
        },
        "returns": {
          "orderId": "Unique identifier of the Exchange order."
        }
      },
      "cancelAuctionedDebtWithSurplus(uint256)": {
        "details": "Reduces auctioned debt and settles it with surplus, ensuring sufficient surplus and auctioned debt.",
        "params": {
          "rad": "Debt amount to cancel [rad]."
        }
      },
      "constructor": {
        "custom:oz-upgrades-unsafe-allow": "constructor"
      },
      "disableContract()": {
        "details": "Clears queued and auctioned debt, settles available debt with surplus, and disables the contract."
      },
      "getRealStablePro(uint256)": {
        "details": "Exits StablePro without rewards. Only callable by Admin.",
        "params": {
          "amount": "Amount of StablePro to withdraw [wad]."
        }
      },
      "hasWhitelistStablecoin(address)": {
        "params": {
          "stablecoin": "Address of the stablecoin to check."
        },
        "returns": {
          "_0": "True if the stablecoin is whitelisted, false otherwise."
        }
      },
      "initialize(address,address,address,address,address,address,address)": {
        "details": "Sets immutable references, approves CoinJoin for SafeEngine modifications, and configures initial state.      RewardChef integration is commented out.",
        "params": {
          "accessControl_": "Address of the access control singleton.",
          "coinJoin_": "Address of the CoinJoin contract.",
          "exchange_": "Address of the Exchange module.",
          "oracle_": "Address of the oracle aggregator.",
          "safeEngine_": "Address of the SafeEngine contract.",
          "stablePro_": "Address of the StablePro token.",
          "suDAO_": "Address of the governance token."
        }
      },
      "joinStablePro(uint256)": {
        "details": "Reduces auctioned debt and joins StablePro without rewards. Only callable by Admin.",
        "params": {
          "amount": "Amount of StablePro to deposit [wad]."
        }
      },
      "modifyParameters(bytes32,address)": {
        "details": "Updates references to Exchange, oracle, suDAO, or CoinJoin. RewardChef update is commented out. Only callable by DAO.",
        "params": {
          "data": "New contract address.",
          "what": "Parameter to modify (\"exchange\", \"oracle\", \"suDAO\", or \"coinJoin\")."
        }
      },
      "modifyParameters(bytes32,uint256)": {
        "details": "Updates timing or buffer parameters. Only callable by DAO.",
        "params": {
          "data": "New parameter value.",
          "what": "Parameter to modify (\"popDebtDelay\", \"surplusBuffer\", or \"defaultRewardEndBlock\")."
        }
      },
      "popDebtFromQueue(uint256)": {
        "details": "Clears debt from the specified era if the delay has passed.",
        "params": {
          "era": "Timestamp of the debt queue entry."
        }
      },
      "pushDebtToQueue(uint256)": {
        "details": "Adds debt to the queue at the current timestamp. Only callable by LiquidationAccess.",
        "params": {
          "amountToRaise": "Debt amount to queue [rad]."
        }
      },
      "refillStablecoin(address,uint256)": {
        "details": "Transfers stablecoin from the caller and emits an event.",
        "params": {
          "amount": "Amount of stablecoin to deposit [token decimals].",
          "stablecoin": "Address of the stablecoin."
        }
      },
      "removeWhitelistStablecoin(address)": {
        "details": "Revokes Exchange module approval. Only callable by DAO.",
        "params": {
          "stablecoin": "Address of the stablecoin to remove."
        }
      },
      "setStablecoinToSwap(address)": {
        "details": "Ensures the stablecoin is whitelisted. Only callable by Admin.",
        "params": {
          "stablecoin": "Address of the whitelisted stablecoin."
        }
      },
      "settleDebt(uint256)": {
        "details": "Reduces debt and surplus in SafeEngine, ensuring sufficient surplus and debt availability.",
        "params": {
          "rad": "Debt amount to settle [rad]."
        }
      },
      "supportsInterface(bytes4)": {
        "details": "Returns true if this contract implements the interface defined by `interfaceId`. See the corresponding https://eips.ethereum.org/EIPS/eip-165#how-interfaces-are-identified[EIP section] to learn more about how these ids are created. This function call must use less than 30 000 gas."
      },
      "swapStableProToStablecoin(address,uint256)": {
        "details": "Transfers StablePro from the caller, sends equivalent stablecoin, and emits an event.",
        "params": {
          "stableProAmountE18": "Amount of StablePro to swap [wad].",
          "stablecoinToken": "Address of the whitelisted stablecoin."
        }
      }
    },
    "title": "AccountingEngine",
    "version": 1
  },
  "userdoc": {
    "kind": "user",
    "methods": {
      "addWhitelistStablecoin(address)": {
        "notice": "Adds a stablecoin to the whitelist."
      },
      "auctionDebt(address,uint256,uint8,uint256)": {
        "notice": "Auctions governance tokens to cover debt."
      },
      "auctionSurplus(uint256,uint8)": {
        "notice": "Auctions surplus StablePro for governance tokens to distribute via rewardChef"
      },
      "cancelAuctionedDebtWithSurplus(uint256)": {
        "notice": "Cancels auctioned debt using surplus StablePro."
      },
      "coinJoin()": {
        "notice": "Reference to the CoinJoin contract for StablePro operations."
      },
      "contractEnabled()": {
        "notice": "Flag indicating if the contract is enabled (1) or disabled (0)."
      },
      "debtQueue(uint256)": {
        "notice": "Maps timestamps to queued debt amounts [rad]."
      },
      "defaultRewardEndBlock()": {
        "notice": "Default reward end block for RewardChef (if enabled) [block number]."
      },
      "disableContract()": {
        "notice": "Disables the contract and settles remaining debt."
      },
      "exchange()": {
        "notice": "Reference to the Exchange module for auctions."
      },
      "getRealStablePro(uint256)": {
        "notice": "Withdraws StablePro from the SafeEngine via CoinJoin."
      },
      "hasWhitelistStablecoin(address)": {
        "notice": "Checks if a stablecoin is whitelisted."
      },
      "initialize(address,address,address,address,address,address,address)": {
        "notice": "Initializes the AccountingEngine with required contract addresses."
      },
      "joinStablePro(uint256)": {
        "notice": "Deposits StablePro into the SafeEngine via CoinJoin."
      },
      "modifyParameters(bytes32,address)": {
        "notice": "Modifies contract addresses."
      },
      "modifyParameters(bytes32,uint256)": {
        "notice": "Modifies protocol parameters."
      },
      "oracle()": {
        "notice": "Reference to the oracle for price feeds."
      },
      "popDebtDelay()": {
        "notice": "Delay before debt can be popped from the queue [seconds]."
      },
      "popDebtFromQueue(uint256)": {
        "notice": "Removes debt from the queue after the delay period."
      },
      "pushDebtToQueue(uint256)": {
        "notice": "Queues debt for auctioning."
      },
      "refillStablecoin(address,uint256)": {
        "notice": "Deposits a stablecoin into the contract."
      },
      "removeWhitelistStablecoin(address)": {
        "notice": "Removes a stablecoin from the whitelist."
      },
      "safeEngine()": {
        "notice": "Reference to the SafeEngine contract for debt and surplus tracking."
      },
      "setStablecoinToSwap(address)": {
        "notice": "Sets the stablecoin for collateral liquidation swaps."
      },
      "settleDebt(uint256)": {
        "notice": "Settles debt using surplus StablePro."
      },
      "stablePro()": {
        "notice": "Reference to the system coin (StablePro)."
      },
      "stablecoinToSwap()": {
        "notice": "Stablecoin address for collateral liquidation swaps."
      },
      "suDAO()": {
        "notice": "Reference to the governance token (suDAO)."
      },
      "surplusBuffer()": {
        "notice": "Minimum surplus to maintain before auctioning [rad]."
      },
      "swapStableProToStablecoin(address,uint256)": {
        "notice": "Swaps StablePro for a whitelisted stablecoin."
      },
      "totalOnAuctionDebt()": {
        "notice": "Total debt currently being auctioned [rad]."
      },
      "totalQueuedDebt()": {
        "notice": "Total debt queued for auctioning [rad]."
      }
    },
    "notice": "Manages surplus and debt settlement in the StableUnit protocol.",
    "version": 1
  },
  "storageLayout": {
    "storage": [
      {
        "astId": 1226,
        "contract": "contracts/makerdao/externalContracts/AccountingEngine.sol:AccountingEngine",
        "label": "_initialized",
        "offset": 0,
        "slot": "0",
        "type": "t_uint8"
      },
      {
        "astId": 1229,
        "contract": "contracts/makerdao/externalContracts/AccountingEngine.sol:AccountingEngine",
        "label": "_initializing",
        "offset": 1,
        "slot": "0",
        "type": "t_bool"
      },
      {
        "astId": 24747,
        "contract": "contracts/makerdao/externalContracts/AccountingEngine.sol:AccountingEngine",
        "label": "ACCESS_CONTROL_SINGLETON",
        "offset": 2,
        "slot": "0",
        "type": "t_contract(ISuAccessControl)31989"
      },
      {
        "astId": 25018,
        "contract": "contracts/makerdao/externalContracts/AccountingEngine.sol:AccountingEngine",
        "label": "__gap",
        "offset": 0,
        "slot": "1",
        "type": "t_array(t_uint256)50_storage"
      },
      {
        "astId": 49576,
        "contract": "contracts/makerdao/externalContracts/AccountingEngine.sol:AccountingEngine",
        "label": "safeEngine",
        "offset": 0,
        "slot": "51",
        "type": "t_contract(ISafeEngine)53684"
      },
      {
        "astId": 49580,
        "contract": "contracts/makerdao/externalContracts/AccountingEngine.sol:AccountingEngine",
        "label": "exchange",
        "offset": 0,
        "slot": "52",
        "type": "t_contract(IExchange)23549"
      },
      {
        "astId": 49584,
        "contract": "contracts/makerdao/externalContracts/AccountingEngine.sol:AccountingEngine",
        "label": "oracle",
        "offset": 0,
        "slot": "53",
        "type": "t_contract(ISuOracleAggregator)33132"
      },
      {
        "astId": 49588,
        "contract": "contracts/makerdao/externalContracts/AccountingEngine.sol:AccountingEngine",
        "label": "suDAO",
        "offset": 0,
        "slot": "54",
        "type": "t_contract(IERC20)6874"
      },
      {
        "astId": 49592,
        "contract": "contracts/makerdao/externalContracts/AccountingEngine.sol:AccountingEngine",
        "label": "stablePro",
        "offset": 0,
        "slot": "55",
        "type": "t_contract(IERC20)6874"
      },
      {
        "astId": 49596,
        "contract": "contracts/makerdao/externalContracts/AccountingEngine.sol:AccountingEngine",
        "label": "coinJoin",
        "offset": 0,
        "slot": "56",
        "type": "t_contract(ICoinJoin)53066"
      },
      {
        "astId": 49601,
        "contract": "contracts/makerdao/externalContracts/AccountingEngine.sol:AccountingEngine",
        "label": "stablecoinWhitelist",
        "offset": 0,
        "slot": "57",
        "type": "t_mapping(t_address,t_bool)"
      },
      {
        "astId": 49604,
        "contract": "contracts/makerdao/externalContracts/AccountingEngine.sol:AccountingEngine",
        "label": "stablecoinToSwap",
        "offset": 0,
        "slot": "58",
        "type": "t_address"
      },
      {
        "astId": 49609,
        "contract": "contracts/makerdao/externalContracts/AccountingEngine.sol:AccountingEngine",
        "label": "debtQueue",
        "offset": 0,
        "slot": "59",
        "type": "t_mapping(t_uint256,t_uint256)"
      },
      {
        "astId": 49612,
        "contract": "contracts/makerdao/externalContracts/AccountingEngine.sol:AccountingEngine",
        "label": "totalQueuedDebt",
        "offset": 0,
        "slot": "60",
        "type": "t_uint256"
      },
      {
        "astId": 49615,
        "contract": "contracts/makerdao/externalContracts/AccountingEngine.sol:AccountingEngine",
        "label": "totalOnAuctionDebt",
        "offset": 0,
        "slot": "61",
        "type": "t_uint256"
      },
      {
        "astId": 49618,
        "contract": "contracts/makerdao/externalContracts/AccountingEngine.sol:AccountingEngine",
        "label": "popDebtDelay",
        "offset": 0,
        "slot": "62",
        "type": "t_uint256"
      },
      {
        "astId": 49621,
        "contract": "contracts/makerdao/externalContracts/AccountingEngine.sol:AccountingEngine",
        "label": "surplusBuffer",
        "offset": 0,
        "slot": "63",
        "type": "t_uint256"
      },
      {
        "astId": 49624,
        "contract": "contracts/makerdao/externalContracts/AccountingEngine.sol:AccountingEngine",
        "label": "contractEnabled",
        "offset": 0,
        "slot": "64",
        "type": "t_uint256"
      },
      {
        "astId": 49627,
        "contract": "contracts/makerdao/externalContracts/AccountingEngine.sol:AccountingEngine",
        "label": "defaultRewardEndBlock",
        "offset": 0,
        "slot": "65",
        "type": "t_uint256"
      }
    ],
    "types": {
      "t_address": {
        "encoding": "inplace",
        "label": "address",
        "numberOfBytes": "20"
      },
      "t_array(t_uint256)50_storage": {
        "base": "t_uint256",
        "encoding": "inplace",
        "label": "uint256[50]",
        "numberOfBytes": "1600"
      },
      "t_bool": {
        "encoding": "inplace",
        "label": "bool",
        "numberOfBytes": "1"
      },
      "t_contract(ICoinJoin)53066": {
        "encoding": "inplace",
        "label": "contract ICoinJoin",
        "numberOfBytes": "20"
      },
      "t_contract(IERC20)6874": {
        "encoding": "inplace",
        "label": "contract IERC20",
        "numberOfBytes": "20"
      },
      "t_contract(IExchange)23549": {
        "encoding": "inplace",
        "label": "contract IExchange",
        "numberOfBytes": "20"
      },
      "t_contract(ISafeEngine)53684": {
        "encoding": "inplace",
        "label": "contract ISafeEngine",
        "numberOfBytes": "20"
      },
      "t_contract(ISuAccessControl)31989": {
        "encoding": "inplace",
        "label": "contract ISuAccessControl",
        "numberOfBytes": "20"
      },
      "t_contract(ISuOracleAggregator)33132": {
        "encoding": "inplace",
        "label": "contract ISuOracleAggregator",
        "numberOfBytes": "20"
      },
      "t_mapping(t_address,t_bool)": {
        "encoding": "mapping",
        "key": "t_address",
        "label": "mapping(address => bool)",
        "numberOfBytes": "32",
        "value": "t_bool"
      },
      "t_mapping(t_uint256,t_uint256)": {
        "encoding": "mapping",
        "key": "t_uint256",
        "label": "mapping(uint256 => uint256)",
        "numberOfBytes": "32",
        "value": "t_uint256"
      },
      "t_uint256": {
        "encoding": "inplace",
        "label": "uint256",
        "numberOfBytes": "32"
      },
      "t_uint8": {
        "encoding": "inplace",
        "label": "uint8",
        "numberOfBytes": "1"
      }
    }
  }
}