{
  "address": "0xe7eA6fE1bae6a518bAf6487bf309a3C0126814D4",
  "abi": [
    {
      "inputs": [],
      "stateMutability": "nonpayable",
      "type": "constructor"
    },
    {
      "inputs": [],
      "name": "BadAccessControlSingleton",
      "type": "error"
    },
    {
      "inputs": [],
      "name": "BadModifyParameters",
      "type": "error"
    },
    {
      "inputs": [],
      "name": "BadRewardToken",
      "type": "error"
    },
    {
      "inputs": [
        {
          "internalType": "address",
          "name": "asset",
          "type": "address"
        }
      ],
      "name": "BadStablecoin",
      "type": "error"
    },
    {
      "inputs": [],
      "name": "ContractDisabled",
      "type": "error"
    },
    {
      "inputs": [],
      "name": "DebtNotZero",
      "type": "error"
    },
    {
      "inputs": [],
      "name": "InsufficientDebt",
      "type": "error"
    },
    {
      "inputs": [],
      "name": "InsufficientSurplus",
      "type": "error"
    },
    {
      "inputs": [],
      "name": "NotEnoughAsh",
      "type": "error"
    },
    {
      "inputs": [],
      "name": "OnlyAdminError",
      "type": "error"
    },
    {
      "inputs": [],
      "name": "OnlyAlerterError",
      "type": "error"
    },
    {
      "inputs": [],
      "name": "OnlyCDPAccessError",
      "type": "error"
    },
    {
      "inputs": [],
      "name": "OnlyDAOError",
      "type": "error"
    },
    {
      "inputs": [],
      "name": "OnlyDisablerAccessError",
      "type": "error"
    },
    {
      "inputs": [],
      "name": "OnlyLiquidationAccessError",
      "type": "error"
    },
    {
      "inputs": [],
      "name": "OnlyMintAccessError",
      "type": "error"
    },
    {
      "inputs": [],
      "name": "OnlyProxyActionsError",
      "type": "error"
    },
    {
      "inputs": [],
      "name": "OnlyRewardAccessError",
      "type": "error"
    },
    {
      "inputs": [],
      "name": "OnlyRoleError",
      "type": "error"
    },
    {
      "inputs": [],
      "name": "OnlyVaultAccessError",
      "type": "error"
    },
    {
      "inputs": [],
      "name": "OnlyVotingEscrowError",
      "type": "error"
    },
    {
      "inputs": [],
      "name": "PopDebtDelayNotFinished",
      "type": "error"
    },
    {
      "inputs": [
        {
          "internalType": "address",
          "name": "asset",
          "type": "address"
        }
      ],
      "name": "StablecoinExists",
      "type": "error"
    },
    {
      "inputs": [
        {
          "internalType": "address",
          "name": "asset",
          "type": "address"
        }
      ],
      "name": "StablecoinNotExist",
      "type": "error"
    },
    {
      "inputs": [],
      "name": "SurplusNotZero",
      "type": "error"
    },
    {
      "inputs": [],
      "name": "onlyAuctionAccessRole",
      "type": "error"
    },
    {
      "anonymous": false,
      "inputs": [
        {
          "indexed": false,
          "internalType": "address",
          "name": "stablecoin",
          "type": "address"
        }
      ],
      "name": "AddWhitelistStablecoin",
      "type": "event"
    },
    {
      "anonymous": false,
      "inputs": [
        {
          "indexed": true,
          "internalType": "uint256",
          "name": "id",
          "type": "uint256"
        },
        {
          "indexed": false,
          "internalType": "uint256",
          "name": "totalOnAuctionDebt",
          "type": "uint256"
        },
        {
          "indexed": false,
          "internalType": "uint256",
          "name": "debtBalance",
          "type": "uint256"
        }
      ],
      "name": "AuctionDebt",
      "type": "event"
    },
    {
      "anonymous": false,
      "inputs": [
        {
          "indexed": true,
          "internalType": "uint256",
          "name": "id",
          "type": "uint256"
        },
        {
          "indexed": false,
          "internalType": "uint256",
          "name": "coinBalance",
          "type": "uint256"
        }
      ],
      "name": "AuctionSurplus",
      "type": "event"
    },
    {
      "anonymous": false,
      "inputs": [
        {
          "indexed": false,
          "internalType": "uint256",
          "name": "rad",
          "type": "uint256"
        },
        {
          "indexed": false,
          "internalType": "uint256",
          "name": "totalOnAuctionDebt",
          "type": "uint256"
        }
      ],
      "name": "CancelAuctionedDebtWithSurplus",
      "type": "event"
    },
    {
      "anonymous": false,
      "inputs": [],
      "name": "DisableContract",
      "type": "event"
    },
    {
      "anonymous": false,
      "inputs": [
        {
          "indexed": false,
          "internalType": "uint256",
          "name": "amount",
          "type": "uint256"
        }
      ],
      "name": "GetRealStablePro",
      "type": "event"
    },
    {
      "anonymous": false,
      "inputs": [
        {
          "indexed": true,
          "internalType": "address",
          "name": "accountingEngine",
          "type": "address"
        }
      ],
      "name": "Initialize",
      "type": "event"
    },
    {
      "anonymous": false,
      "inputs": [
        {
          "indexed": false,
          "internalType": "uint8",
          "name": "version",
          "type": "uint8"
        }
      ],
      "name": "Initialized",
      "type": "event"
    },
    {
      "anonymous": false,
      "inputs": [
        {
          "indexed": false,
          "internalType": "uint256",
          "name": "amount",
          "type": "uint256"
        },
        {
          "indexed": false,
          "internalType": "uint256",
          "name": "totalOnAuctionDebt",
          "type": "uint256"
        }
      ],
      "name": "JoinStablePro",
      "type": "event"
    },
    {
      "anonymous": false,
      "inputs": [
        {
          "indexed": false,
          "internalType": "bytes32",
          "name": "what",
          "type": "bytes32"
        },
        {
          "indexed": false,
          "internalType": "uint256",
          "name": "data",
          "type": "uint256"
        }
      ],
      "name": "ModifyParameters",
      "type": "event"
    },
    {
      "anonymous": false,
      "inputs": [
        {
          "indexed": false,
          "internalType": "bytes32",
          "name": "what",
          "type": "bytes32"
        },
        {
          "indexed": false,
          "internalType": "address",
          "name": "data",
          "type": "address"
        }
      ],
      "name": "ModifyParameters",
      "type": "event"
    },
    {
      "anonymous": false,
      "inputs": [
        {
          "indexed": false,
          "internalType": "uint256",
          "name": "era",
          "type": "uint256"
        },
        {
          "indexed": false,
          "internalType": "uint256",
          "name": "totalQueuedDebt",
          "type": "uint256"
        }
      ],
      "name": "PopDebtFromQueue",
      "type": "event"
    },
    {
      "anonymous": false,
      "inputs": [
        {
          "indexed": false,
          "internalType": "uint256",
          "name": "era",
          "type": "uint256"
        },
        {
          "indexed": false,
          "internalType": "uint256",
          "name": "amountToRaise",
          "type": "uint256"
        },
        {
          "indexed": false,
          "internalType": "uint256",
          "name": "totalQueuedDebt",
          "type": "uint256"
        }
      ],
      "name": "PushDebtToQueue",
      "type": "event"
    },
    {
      "anonymous": false,
      "inputs": [
        {
          "indexed": false,
          "internalType": "address",
          "name": "stablecoin",
          "type": "address"
        },
        {
          "indexed": false,
          "internalType": "uint256",
          "name": "amount",
          "type": "uint256"
        }
      ],
      "name": "RefillStablecoin",
      "type": "event"
    },
    {
      "anonymous": false,
      "inputs": [
        {
          "indexed": false,
          "internalType": "address",
          "name": "stablecoin",
          "type": "address"
        }
      ],
      "name": "RemoveWhitelistStablecoin",
      "type": "event"
    },
    {
      "anonymous": false,
      "inputs": [
        {
          "indexed": false,
          "internalType": "address",
          "name": "stablecoin",
          "type": "address"
        }
      ],
      "name": "SetStablecoinToSwap",
      "type": "event"
    },
    {
      "anonymous": false,
      "inputs": [
        {
          "indexed": false,
          "internalType": "uint256",
          "name": "rad",
          "type": "uint256"
        },
        {
          "indexed": false,
          "internalType": "uint256",
          "name": "coinBalance",
          "type": "uint256"
        },
        {
          "indexed": false,
          "internalType": "uint256",
          "name": "debtBalance",
          "type": "uint256"
        }
      ],
      "name": "SettleDebt",
      "type": "event"
    },
    {
      "anonymous": false,
      "inputs": [
        {
          "indexed": false,
          "internalType": "uint256",
          "name": "amount",
          "type": "uint256"
        }
      ],
      "name": "StableProSwapped",
      "type": "event"
    },
    {
      "anonymous": false,
      "inputs": [
        {
          "indexed": false,
          "internalType": "address",
          "name": "stablecoinToken",
          "type": "address"
        },
        {
          "indexed": false,
          "internalType": "uint256",
          "name": "stableProAmountE18",
          "type": "uint256"
        },
        {
          "indexed": false,
          "internalType": "uint256",
          "name": "stablecoinAmountEDecimal",
          "type": "uint256"
        }
      ],
      "name": "SwapStableProToStablecoin",
      "type": "event"
    },
    {
      "inputs": [],
      "name": "ACCESS_CONTROL_SINGLETON",
      "outputs": [
        {
          "internalType": "contract ISuAccessControl",
          "name": "",
          "type": "address"
        }
      ],
      "stateMutability": "view",
      "type": "function"
    },
    {
      "inputs": [],
      "name": "ADMIN_ROLE",
      "outputs": [
        {
          "internalType": "bytes32",
          "name": "",
          "type": "bytes32"
        }
      ],
      "stateMutability": "view",
      "type": "function"
    },
    {
      "inputs": [],
      "name": "ALERTER_ROLE",
      "outputs": [
        {
          "internalType": "bytes32",
          "name": "",
          "type": "bytes32"
        }
      ],
      "stateMutability": "view",
      "type": "function"
    },
    {
      "inputs": [],
      "name": "AUCTION_ACCESS_ROLE",
      "outputs": [
        {
          "internalType": "bytes32",
          "name": "",
          "type": "bytes32"
        }
      ],
      "stateMutability": "view",
      "type": "function"
    },
    {
      "inputs": [],
      "name": "CDP_ACCESS_ROLE",
      "outputs": [
        {
          "internalType": "bytes32",
          "name": "",
          "type": "bytes32"
        }
      ],
      "stateMutability": "view",
      "type": "function"
    },
    {
      "inputs": [],
      "name": "DAO_ROLE",
      "outputs": [
        {
          "internalType": "bytes32",
          "name": "",
          "type": "bytes32"
        }
      ],
      "stateMutability": "view",
      "type": "function"
    },
    {
      "inputs": [],
      "name": "DISABLER_ROLE",
      "outputs": [
        {
          "internalType": "bytes32",
          "name": "",
          "type": "bytes32"
        }
      ],
      "stateMutability": "view",
      "type": "function"
    },
    {
      "inputs": [],
      "name": "LIQUIDATION_ACCESS_ROLE",
      "outputs": [
        {
          "internalType": "bytes32",
          "name": "",
          "type": "bytes32"
        }
      ],
      "stateMutability": "view",
      "type": "function"
    },
    {
      "inputs": [],
      "name": "MINT_ACCESS_ROLE",
      "outputs": [
        {
          "internalType": "bytes32",
          "name": "",
          "type": "bytes32"
        }
      ],
      "stateMutability": "view",
      "type": "function"
    },
    {
      "inputs": [],
      "name": "PROXY_ACTIONS_ROLE",
      "outputs": [
        {
          "internalType": "bytes32",
          "name": "",
          "type": "bytes32"
        }
      ],
      "stateMutability": "view",
      "type": "function"
    },
    {
      "inputs": [],
      "name": "REWARD_ACCESS_ROLE",
      "outputs": [
        {
          "internalType": "bytes32",
          "name": "",
          "type": "bytes32"
        }
      ],
      "stateMutability": "view",
      "type": "function"
    },
    {
      "inputs": [],
      "name": "VOTING_ESCROW_ROLE",
      "outputs": [
        {
          "internalType": "bytes32",
          "name": "",
          "type": "bytes32"
        }
      ],
      "stateMutability": "view",
      "type": "function"
    },
    {
      "inputs": [
        {
          "internalType": "address",
          "name": "stablecoin",
          "type": "address"
        }
      ],
      "name": "addWhitelistStablecoin",
      "outputs": [],
      "stateMutability": "nonpayable",
      "type": "function"
    },
    {
      "inputs": [
        {
          "internalType": "address",
          "name": "token2sell",
          "type": "address"
        },
        {
          "internalType": "uint256",
          "name": "amountToSell",
          "type": "uint256"
        },
        {
          "internalType": "uint256",
          "name": "auctionDebt",
          "type": "uint256"
        }
      ],
      "name": "auctionDebt",
      "outputs": [
        {
          "internalType": "uint256",
          "name": "id",
          "type": "uint256"
        }
      ],
      "stateMutability": "nonpayable",
      "type": "function"
    },
    {
      "inputs": [
        {
          "internalType": "uint256",
          "name": "surplusAmount",
          "type": "uint256"
        }
      ],
      "name": "auctionSurplus",
      "outputs": [
        {
          "internalType": "uint256",
          "name": "id",
          "type": "uint256"
        }
      ],
      "stateMutability": "nonpayable",
      "type": "function"
    },
    {
      "inputs": [
        {
          "internalType": "uint256",
          "name": "rad",
          "type": "uint256"
        }
      ],
      "name": "cancelAuctionedDebtWithSurplus",
      "outputs": [],
      "stateMutability": "nonpayable",
      "type": "function"
    },
    {
      "inputs": [],
      "name": "coinJoin",
      "outputs": [
        {
          "internalType": "contract ICoinJoin",
          "name": "",
          "type": "address"
        }
      ],
      "stateMutability": "view",
      "type": "function"
    },
    {
      "inputs": [],
      "name": "contractEnabled",
      "outputs": [
        {
          "internalType": "uint256",
          "name": "",
          "type": "uint256"
        }
      ],
      "stateMutability": "view",
      "type": "function"
    },
    {
      "inputs": [],
      "name": "debtAuctionHouse",
      "outputs": [
        {
          "internalType": "contract DebtAuctionHouseLike",
          "name": "",
          "type": "address"
        }
      ],
      "stateMutability": "view",
      "type": "function"
    },
    {
      "inputs": [
        {
          "internalType": "uint256",
          "name": "",
          "type": "uint256"
        }
      ],
      "name": "debtQueue",
      "outputs": [
        {
          "internalType": "uint256",
          "name": "",
          "type": "uint256"
        }
      ],
      "stateMutability": "view",
      "type": "function"
    },
    {
      "inputs": [],
      "name": "defaultRewardEndBlock",
      "outputs": [
        {
          "internalType": "uint256",
          "name": "",
          "type": "uint256"
        }
      ],
      "stateMutability": "view",
      "type": "function"
    },
    {
      "inputs": [],
      "name": "disableContract",
      "outputs": [],
      "stateMutability": "nonpayable",
      "type": "function"
    },
    {
      "inputs": [],
      "name": "exchange",
      "outputs": [
        {
          "internalType": "contract IExchange",
          "name": "",
          "type": "address"
        }
      ],
      "stateMutability": "view",
      "type": "function"
    },
    {
      "inputs": [
        {
          "internalType": "uint256",
          "name": "amount",
          "type": "uint256"
        }
      ],
      "name": "getRealStablePro",
      "outputs": [],
      "stateMutability": "nonpayable",
      "type": "function"
    },
    {
      "inputs": [
        {
          "internalType": "address",
          "name": "stablecoin",
          "type": "address"
        }
      ],
      "name": "hasWhitelistStablecoin",
      "outputs": [
        {
          "internalType": "bool",
          "name": "",
          "type": "bool"
        }
      ],
      "stateMutability": "view",
      "type": "function"
    },
    {
      "inputs": [
        {
          "internalType": "address",
          "name": "accessControl_",
          "type": "address"
        },
        {
          "internalType": "address",
          "name": "safeEngine_",
          "type": "address"
        },
        {
          "internalType": "address",
          "name": "exchange_",
          "type": "address"
        },
        {
          "internalType": "address",
          "name": "oracle_",
          "type": "address"
        },
        {
          "internalType": "address",
          "name": "suDAO_",
          "type": "address"
        },
        {
          "internalType": "address",
          "name": "stablePro_",
          "type": "address"
        },
        {
          "internalType": "address",
          "name": "coinJoin_",
          "type": "address"
        }
      ],
      "name": "initialize",
      "outputs": [],
      "stateMutability": "nonpayable",
      "type": "function"
    },
    {
      "inputs": [
        {
          "internalType": "uint256",
          "name": "amount",
          "type": "uint256"
        }
      ],
      "name": "joinStablePro",
      "outputs": [],
      "stateMutability": "nonpayable",
      "type": "function"
    },
    {
      "inputs": [
        {
          "internalType": "bytes32",
          "name": "what",
          "type": "bytes32"
        },
        {
          "internalType": "address",
          "name": "data",
          "type": "address"
        }
      ],
      "name": "modifyParameters",
      "outputs": [],
      "stateMutability": "nonpayable",
      "type": "function"
    },
    {
      "inputs": [
        {
          "internalType": "bytes32",
          "name": "what",
          "type": "bytes32"
        },
        {
          "internalType": "uint256",
          "name": "data",
          "type": "uint256"
        }
      ],
      "name": "modifyParameters",
      "outputs": [],
      "stateMutability": "nonpayable",
      "type": "function"
    },
    {
      "inputs": [],
      "name": "oracle",
      "outputs": [
        {
          "internalType": "contract ISuOracleAggregator",
          "name": "",
          "type": "address"
        }
      ],
      "stateMutability": "view",
      "type": "function"
    },
    {
      "inputs": [],
      "name": "popDebtDelay",
      "outputs": [
        {
          "internalType": "uint256",
          "name": "",
          "type": "uint256"
        }
      ],
      "stateMutability": "view",
      "type": "function"
    },
    {
      "inputs": [
        {
          "internalType": "uint256",
          "name": "era",
          "type": "uint256"
        }
      ],
      "name": "popDebtFromQueue",
      "outputs": [],
      "stateMutability": "nonpayable",
      "type": "function"
    },
    {
      "inputs": [
        {
          "internalType": "uint256",
          "name": "amountToRaise",
          "type": "uint256"
        }
      ],
      "name": "pushDebtToQueue",
      "outputs": [],
      "stateMutability": "nonpayable",
      "type": "function"
    },
    {
      "inputs": [
        {
          "internalType": "address",
          "name": "stablecoin",
          "type": "address"
        },
        {
          "internalType": "uint256",
          "name": "amount",
          "type": "uint256"
        }
      ],
      "name": "refillStablecoin",
      "outputs": [],
      "stateMutability": "nonpayable",
      "type": "function"
    },
    {
      "inputs": [
        {
          "internalType": "address",
          "name": "stablecoin",
          "type": "address"
        }
      ],
      "name": "removeWhitelistStablecoin",
      "outputs": [],
      "stateMutability": "nonpayable",
      "type": "function"
    },
    {
      "inputs": [],
      "name": "safeEngine",
      "outputs": [
        {
          "internalType": "contract ISafeEngine",
          "name": "",
          "type": "address"
        }
      ],
      "stateMutability": "view",
      "type": "function"
    },
    {
      "inputs": [
        {
          "internalType": "address",
          "name": "stablecoin",
          "type": "address"
        }
      ],
      "name": "setStablecoinToSwap",
      "outputs": [],
      "stateMutability": "nonpayable",
      "type": "function"
    },
    {
      "inputs": [
        {
          "internalType": "uint256",
          "name": "rad",
          "type": "uint256"
        }
      ],
      "name": "settleDebt",
      "outputs": [],
      "stateMutability": "nonpayable",
      "type": "function"
    },
    {
      "inputs": [],
      "name": "stablePro",
      "outputs": [
        {
          "internalType": "contract IERC20",
          "name": "",
          "type": "address"
        }
      ],
      "stateMutability": "view",
      "type": "function"
    },
    {
      "inputs": [],
      "name": "stablecoinToSwap",
      "outputs": [
        {
          "internalType": "address",
          "name": "",
          "type": "address"
        }
      ],
      "stateMutability": "view",
      "type": "function"
    },
    {
      "inputs": [],
      "name": "suDAO",
      "outputs": [
        {
          "internalType": "contract IERC20",
          "name": "",
          "type": "address"
        }
      ],
      "stateMutability": "view",
      "type": "function"
    },
    {
      "inputs": [
        {
          "internalType": "bytes4",
          "name": "interfaceId",
          "type": "bytes4"
        }
      ],
      "name": "supportsInterface",
      "outputs": [
        {
          "internalType": "bool",
          "name": "",
          "type": "bool"
        }
      ],
      "stateMutability": "view",
      "type": "function"
    },
    {
      "inputs": [],
      "name": "surplusAuctionHouse",
      "outputs": [
        {
          "internalType": "contract SurplusAuctionHouseLike",
          "name": "",
          "type": "address"
        }
      ],
      "stateMutability": "view",
      "type": "function"
    },
    {
      "inputs": [],
      "name": "surplusBuffer",
      "outputs": [
        {
          "internalType": "uint256",
          "name": "",
          "type": "uint256"
        }
      ],
      "stateMutability": "view",
      "type": "function"
    },
    {
      "inputs": [
        {
          "internalType": "address",
          "name": "stablecoinToken",
          "type": "address"
        },
        {
          "internalType": "uint256",
          "name": "stableProAmountE18",
          "type": "uint256"
        }
      ],
      "name": "swapStableProToStablecoin",
      "outputs": [],
      "stateMutability": "nonpayable",
      "type": "function"
    },
    {
      "inputs": [],
      "name": "totalOnAuctionDebt",
      "outputs": [
        {
          "internalType": "uint256",
          "name": "",
          "type": "uint256"
        }
      ],
      "stateMutability": "view",
      "type": "function"
    },
    {
      "inputs": [],
      "name": "totalQueuedDebt",
      "outputs": [
        {
          "internalType": "uint256",
          "name": "",
          "type": "uint256"
        }
      ],
      "stateMutability": "view",
      "type": "function"
    }
  ],
  "numDeployments": 1,
  "solcInputHash": "8f84b6f1e4072e92a972e80f9a9e23c6",
  "bytecode": "0x60806040523480156200001157600080fd5b506200001c62000022565b620000e3565b600054610100900460ff16156200008f5760405162461bcd60e51b815260206004820152602760248201527f496e697469616c697a61626c653a20636f6e747261637420697320696e697469604482015266616c697a696e6760c81b606482015260840160405180910390fd5b60005460ff90811614620000e1576000805460ff191660ff9081179091556040519081527f7f26b83ff96e1f2b6a682f133852f6798a09c465da95921460cefb38474024989060200160405180910390a15b565b612d3480620000f36000396000f3fe608060405234801561001057600080fd5b50600436106102255760003560e01c806301ffc9a71461022a578063038a3e2f1461025257806303ee9f22146102675780630d99706c1461028d5780630f44d6bd146102ae57806327a0bb33146102b75780632a608d5b146102ca5780632d09f11d146102d357806330413a2a146102dc578063340517c9146102ef57806335876476146103165780633977a319146103295780633dc4ab1d146103495780633fec7e461461035c57806341b3a0d91461036f578063438280dd146103785780635221e8821461039f578063550a1e00146103a85780635d49502b146103bb5780635e755752146103ce5780636614f010146103e157806367aea313146103f457806371d0fb411461040757806375b238fc1461042e5780637ae8b2e1146104365780637dc0d1d014610449578063887e2a4a1461045c578063894ba8331461046f5780638b24dc3e146104775780638e5313e01461048a578063a8b30a9f146104b1578063b38234f3146104c4578063b39f841c146104eb578063bd5f5be6146104fe578063cdacaaca14610525578063d09a79dd14610538578063d0e8fa821461054b578063d2351cee14610572578063d2f7265a14610587578063d46e50d01461059a578063d5070076146105ad578063d65e861d146105c0578063dc97e84e146105c9578063de51eefd146105de578063e9c265181461060a578063e9de2c3f1461061f578063fe4f589014610632575b600080fd5b61023d61023836600461296d565b610645565b60405190151581526020015b60405180910390f35b6102656102603660046129ac565b6106c2565b005b600054610280906201000090046001600160a01b031681565b60405161024991906129c9565b6102a061029b3660046129dd565b6107f1565b604051908152602001610249565b6102a0603d5481565b6102656102c5366004612a12565b610cdb565b6102a0603f5481565b6102a0603c5481565b603854610280906001600160a01b031681565b6102a07f014f8da3222812608c449a44f4705585c5ce052eeb6f9af0af9209c64b0ba2de81565b610265610324366004612a2b565b610f88565b6102a0610337366004612a12565b603b6020526000908152604090205481565b610265610357366004612a12565b611161565b603a54610280906001600160a01b031681565b6102a060405481565b6102a07f39f61ca2a1a28fee144218173ec637b649a353e4026b2738c673800e5bf1437b81565b6102a0603e5481565b6102656103b6366004612ac1565b6112b5565b6102656103c9366004612a12565b6113f3565b6102a06103dc366004612a12565b6114aa565b6102656103ef366004612aed565b6118d3565b603354610280906001600160a01b031681565b6102a07f880a91047114272656e533301261260c75e4d11543ac7303d6fe4204579ec72781565b6102a0600081565b6102656104443660046129ac565b611bca565b603554610280906001600160a01b031681565b603654610280906001600160a01b031681565b610265611d09565b610265610485366004612a12565b611f4e565b6102a07fe453bacb314e78dcd5192e6b1a2b1f0e7c76e92f6b7e429a6a90f04e39db3b7681565b6102656104bf366004612a12565b611fe0565b6102a07fd83f5343da19b478b15a140c301a868be9e02603958f38fbd822b9d5c0a2891681565b604354610280906001600160a01b031681565b6102a07f4f14c8366fa999817edc9f29824eb88a00cc31225e2156f399da4bc91049eb1081565b604254610280906001600160a01b031681565b6102656105463660046129ac565b6120f1565b6102a07f76d0567582f23e1e9d7a13eeba60f9aea9d69b8da87ca27a8bf3698b35c653db81565b6102a0600080516020612d0883398151915281565b603454610280906001600160a01b031681565b603754610280906001600160a01b031681565b6102656105bb366004612a12565b612235565b6102a060415481565b6102a0600080516020612ce883398151915281565b61023d6105ec3660046129ac565b6001600160a01b031660009081526039602052604090205460ff1690565b6102a0600080516020612cc883398151915281565b61026561062d366004612ac1565b61235f565b610265610640366004612b1d565b61239c565b600080546040516301ffc9a760e01b8152620100009091046001600160a01b0316906301ffc9a79061067b908590600401612b3f565b602060405180830381865afa158015610698573d6000803e3d6000fd5b505050506040513d601f19601f820116820180604052508101906106bc9190612b54565b92915050565b60008054604051632474521560e21b8152620100009091046001600160a01b0316916391d14854916106f991903390600401612b76565b602060405180830381865afa158015610716573d6000803e3d6000fd5b505050506040513d601f19601f8201168201806040525081019061073a9190612b54565b61075757604051631886ea7d60e11b815260040160405180910390fd5b6001600160a01b03811660009081526039602052604090205460ff1661079b5780604051633935d9fb60e21b815260040161079291906129c9565b60405180910390fd5b603a80546001600160a01b0319166001600160a01b0383161790556040517f6641e17cee58e62c6488e929c0cb270746a26415bf1af2865e3ff7d01a36e223906107e69083906129c9565b60405180910390a150565b60008054604051632474521560e21b8152620100009091046001600160a01b0316906391d14854906108299084903390600401612b76565b602060405180830381865afa158015610846573d6000803e3d6000fd5b505050506040513d601f19601f8201168201806040525081019061086a9190612b54565b61088757604051631886ea7d60e11b815260040160405180910390fd5b6001600160a01b03841660009081526039602052604090205460ff166108fb5760405162461bcd60e51b815260206004820152602360248201527f4163636f756e74696e67456e67696e652f69732d6e6f742d77686974656c69736044820152621d195960ea1b6064820152608401610792565b603354604051633eaf7a0360e21b815261096e916001600160a01b03169063fabde80c9061092d9030906004016129c9565b602060405180830381865afa15801561094a573d6000803e3d6000fd5b505050506040513d601f19601f820116820180604052508101906102c59190612b8d565b603354604051633eaf7a0360e21b81526001600160a01b039091169063fabde80c9061099e9030906004016129c9565b602060405180830381865afa1580156109bb573d6000803e3d6000fd5b505050506040513d601f19601f820116820180604052508101906109df9190612b8d565b15610a365760405162461bcd60e51b815260206004820152602160248201527f4163636f756e74696e67456e67696e652f737572706c75732d6e6f742d7a65726044820152606f60f81b6064820152608401610792565b60435460408051631a465fe160e01b815290516000926001600160a01b031691631a465fe19160048083019260209291908290030181865afa158015610a80573d6000803e3d6000fd5b505050506040513d601f19601f82011682018060405250810190610aa49190612ba6565b6001600160a01b031603610b105760405162461bcd60e51b815260206004820152602d60248201527f4163636f756e74696e67456e67696e652f646562742d61756374696f6e2d686f60448201526c1d5cd94b5b9d5b1b0b5c1c9bdd609a1b6064820152608401610792565b610b1c603d54836124d6565b603d819055506000846001600160a01b031663313ce5676040518163ffffffff1660e01b8152600401602060405180830381865afa158015610b62573d6000803e3d6000fd5b505050506040513d601f19601f82011682018060405250810190610b869190612bc3565b60435460ff919091169150610ba69086906001600160a01b0316866124f1565b60435460405163bf43f95160e01b8152306004820152602481018690526001600160a01b0387811660448301529091169063bf43f951906064016020604051808303816000875af1158015610bff573d6000803e3d6000fd5b505050506040513d601f19601f82011682018060405250810190610c239190612b8d565b603d546033546040516311005b0760e01b815292945084927fa92a5e554d2e8bfa74170e5591680f0c7eb5e56c545c5f53e253500e50d6d52d92916001600160a01b0316906311005b0790610c7c9030906004016129c9565b602060405180830381865afa158015610c99573d6000803e3d6000fd5b505050506040513d601f19601f82011682018060405250810190610cbd9190612b8d565b604051610ccb929190612be6565b60405180910390a2509392505050565b603354604051633eaf7a0360e21b81526001600160a01b039091169063fabde80c90610d0b9030906004016129c9565b602060405180830381865afa158015610d28573d6000803e3d6000fd5b505050506040513d601f19601f82011682018060405250810190610d4c9190612b8d565b811115610d6c576040516394290ab960e01b815260040160405180910390fd5b6033546040516311005b0760e01b8152610df591610ded916001600160a01b03909116906311005b0790610da49030906004016129c9565b602060405180830381865afa158015610dc1573d6000803e3d6000fd5b505050506040513d601f19601f82011682018060405250810190610de59190612b8d565b603c546125fb565b603d546125fb565b811115610e155760405163ac4314a960e01b815260040160405180910390fd5b6033546040516327a0bb3360e01b8152600481018390526001600160a01b03909116906327a0bb3390602401600060405180830381600087803b158015610e5b57600080fd5b505af1158015610e6f573d6000803e3d6000fd5b5050603354604051633eaf7a0360e21b81527faa3cda6ae2bb6ad9e5234a74ba9fede531dec740965eafd0b7ac9d3b90443f8693508492506001600160a01b039091169063fabde80c90610ec79030906004016129c9565b602060405180830381865afa158015610ee4573d6000803e3d6000fd5b505050506040513d601f19601f82011682018060405250810190610f089190612b8d565b6033546040516311005b0760e01b81526001600160a01b03909116906311005b0790610f389030906004016129c9565b602060405180830381865afa158015610f55573d6000803e3d6000fd5b505050506040513d601f19601f82011682018060405250810190610f799190612b8d565b6040516107e693929190612bf4565b600054610100900460ff1615808015610fa85750600054600160ff909116105b80610fc25750303b158015610fc2575060005460ff166001145b6110255760405162461bcd60e51b815260206004820152602e60248201527f496e697469616c697a61626c653a20636f6e747261637420697320616c72656160448201526d191e481a5b9a5d1a585b1a5e995960921b6064820152608401610792565b6000805460ff191660011790558015611048576000805461ff0019166101001790555b61105188612616565b603380546001600160a01b03199081166001600160a01b038a81169182179093556034805483168a851617905560358054831689851617905560368054831688851617905560378054831687851617905560388054909216928516929092179055604051631b29a84160e31b815263d94d4208906110d39085906004016129c9565b600060405180830381600087803b1580156110ed57600080fd5b505af1158015611101573d6000803e3d6000fd5b5050600160405550506202a3006041558015611157576000805461ff0019169055604051600181527f7f26b83ff96e1f2b6a682f133852f6798a09c465da95921460cefb38474024989060200160405180910390a15b5050505050505050565b603d5481111561118457604051633f94439960e21b815260040160405180910390fd5b603354604051633eaf7a0360e21b81526001600160a01b039091169063fabde80c906111b49030906004016129c9565b602060405180830381865afa1580156111d1573d6000803e3d6000fd5b505050506040513d601f19601f820116820180604052508101906111f59190612b8d565b811115611215576040516394290ab960e01b815260040160405180910390fd5b611221603d54826125fb565b603d556033546040516327a0bb3360e01b8152600481018390526001600160a01b03909116906327a0bb3390602401600060405180830381600087803b15801561126a57600080fd5b505af115801561127e573d6000803e3d6000fd5b505050507f301251a3073499256403ac53358faaf07c3e37bb461b12f1d3080f69640d4a3d81603d546040516107e6929190612be6565b6001600160a01b03821660009081526039602052604090205460ff166112f05781604051633935d9fb60e21b815260040161079291906129c9565b603554604051631735856760e31b81526000916001600160a01b03169063b9ac2b38906113219086906004016129c9565b602060405180830381865afa15801561133e573d6000803e3d6000fd5b505050506040513d601f19601f820116820180604052508101906113629190612b8d565b61137483670de0b6b3a7640000612c20565b61137e9190612c37565b603754909150611399906001600160a01b0316333085612747565b6113a48333836124f1565b604080516001600160a01b0385168152602081018490529081018290527f8aa2c76638d9d74ca83572d6a9756df4bf0b220ab3d354e477bb258cf1566acd9060600160405180910390a1505050565b80603d541061140d57611408603d54826125fb565b611410565b60005b603d556038546040516312db6f5f60e01b81526001600160a01b03909116906312db6f5f906114459030908590600401612c59565b600060405180830381600087803b15801561145f57600080fd5b505af1158015611473573d6000803e3d6000fd5b505050507f2be644290ce1d950e5f4d9b7db99732505e71620836e8516e4bf6069dfec3f3581603d546040516107e6929190612be6565b60008054604051632474521560e21b8152620100009091046001600160a01b0316906391d14854906114e29084903390600401612b76565b602060405180830381865afa1580156114ff573d6000803e3d6000fd5b505050506040513d601f19601f820116820180604052508101906115239190612b54565b61154057604051631886ea7d60e11b815260040160405180910390fd5b603354604051633eaf7a0360e21b81526000916001600160a01b03169063fabde80c906115719030906004016129c9565b602060405180830381865afa15801561158e573d6000803e3d6000fd5b505050506040513d601f19601f820116820180604052508101906115b29190612b8d565b6033546040516311005b0760e01b81529192506000916001600160a01b03909116906311005b07906115e89030906004016129c9565b602060405180830381865afa158015611605573d6000803e3d6000fd5b505050506040513d601f19601f820116820180604052508101906116299190612b8d565b6037546040516370a0823160e01b81529192506000916001600160a01b03909116906370a082319061165f9030906004016129c9565b602060405180830381865afa15801561167c573d6000803e3d6000fd5b505050506040513d601f19601f820116820180604052508101906116a09190612b8d565b9050603f548310806116f157506116d66116ce836116c988676765c793fa10079d601b1b612c20565b6124d6565b603f546124d6565b6116ef846116c984676765c793fa10079d601b1b612c20565b105b1561170f576040516394290ab960e01b815260040160405180910390fd5b61171e610ded83603c546125fb565b1561173c576040516312bf4cab60e01b815260040160405180910390fd5b60425460408051631a465fe160e01b815290516000926001600160a01b031691631a465fe19160048083019260209291908290030181865afa158015611786573d6000803e3d6000fd5b505050506040513d601f19601f820116820180604052508101906117aa9190612ba6565b6001600160a01b0316036118195760405162461bcd60e51b815260206004820152603060248201527f4163636f756e74696e67456e67696e652f737572706c75732d61756374696f6e60448201526f0b5a1bdd5cd94b5b9d5b1b0b5c1c9bdd60821b6064820152608401610792565b6042546040516313fb84ff60e21b81526001600160a01b0390911690634fee13fc9061184c908890600090600401612be6565b6020604051808303816000875af115801561186b573d6000803e3d6000fd5b505050506040513d601f19601f8201168201806040525081019061188f9190612b8d565b9350837f05f8ac196a5288fa5cf38a852bf460045ada1aab88654e7443011d5b27f47c0f846040516118c391815260200190565b60405180910390a2505050919050565b600054604051632474521560e21b8152620100009091046001600160a01b0316906391d148549061191890600080516020612cc8833981519152903390600401612b76565b602060405180830381865afa158015611935573d6000803e3d6000fd5b505050506040513d601f19601f820116820180604052508101906119599190612b54565b6119765760405163599a6c3360e11b815260040160405180910390fd5b816765786368616e676560c01b036119a857603480546001600160a01b0319166001600160a01b038316179055611b8d565b81656f7261636c6560d01b036119d857603580546001600160a01b0319166001600160a01b038316179055611b8d565b8164737544414f60d81b03611a0757603680546001600160a01b0319166001600160a01b038316179055611b8d565b816731b7b4b72537b4b760c11b03611a3957603880546001600160a01b0319166001600160a01b038316179055611b8d565b8172737572706c757341756374696f6e486f75736560681b03611b3a5760335460425460405163d49d786760e01b81526001600160a01b039283169263d49d786792611a8a929116906004016129c9565b600060405180830381600087803b158015611aa457600080fd5b505af1158015611ab8573d6000803e3d6000fd5b5050604280546001600160a01b0319166001600160a01b0385811691909117909155603354604051631b29a84160e31b81529116925063d94d42089150611b039084906004016129c9565b600060405180830381600087803b158015611b1d57600080fd5b505af1158015611b31573d6000803e3d6000fd5b50505050611b8d565b816f6465627441756374696f6e486f75736560801b03611b7457604380546001600160a01b0319166001600160a01b038316179055611b8d565b604051634f7c191f60e01b815260040160405180910390fd5b7fd91f38cf03346b5dc15fb60f9076f866295231ad3c3841a1051f8443f25170d18282604051611bbe929190612b76565b60405180910390a15050565b600054604051632474521560e21b8152620100009091046001600160a01b0316906391d1485490611c0f90600080516020612cc8833981519152903390600401612b76565b602060405180830381865afa158015611c2c573d6000803e3d6000fd5b505050506040513d601f19601f82011682018060405250810190611c509190612b54565b611c6d5760405163599a6c3360e11b815260040160405180910390fd5b6001600160a01b03811660009081526039602052604090205460ff16611ca8578060405163052bb4dd60e01b815260040161079291906129c9565b6001600160a01b038082166000908152603960205260408120805460ff19169055604354611cda928492911690612851565b7f2a3deb252d93e598e6356a9333a41e48f6155a72adca11b9e316a228a86fa5ee816040516107e691906129c9565b600054604051632474521560e21b8152620100009091046001600160a01b0316906391d1485490611d4e90600080516020612d08833981519152903390600401612b76565b602060405180830381865afa158015611d6b573d6000803e3d6000fd5b505050506040513d601f19601f82011682018060405250810190611d8f9190612b54565b611dac5760405163bb0684b760e01b815260040160405180910390fd5b604054600003611dcf576040516303b14e6560e51b815260040160405180910390fd5b60006040818155603c829055603d919091556033549051633eaf7a0360e21b81526001600160a01b03909116906327a0bb3390611ed390839063fabde80c90611e1c9030906004016129c9565b602060405180830381865afa158015611e39573d6000803e3d6000fd5b505050506040513d601f19601f82011682018060405250810190611e5d9190612b8d565b6033546040516311005b0760e01b81526001600160a01b03909116906311005b0790611e8d9030906004016129c9565b602060405180830381865afa158015611eaa573d6000803e3d6000fd5b505050506040513d601f19601f82011682018060405250810190611ece9190612b8d565b612954565b6040518263ffffffff1660e01b8152600401611ef191815260200190565b600060405180830381600087803b158015611f0b57600080fd5b505af1158015611f1f573d6000803e3d6000fd5b50506040517f2d4b4ecff7bd7503135271925520a2f6c0d98c9473ffc1a1e72c92502f51b25e925060009150a1565b42611f5b82603e546124d6565b1115611f7a576040516306932a5360e11b815260040160405180910390fd5b603c546000828152603b6020526040902054611f9691906125fb565b603c9081556000828152603b602052604080822091909155905490517ff982c8f78f5eb8f5f0416a30912a37e7b791d2857f7193598b9d88ffd1baf160916107e691849190612be6565b600054604051632474521560e21b8152620100009091046001600160a01b0316906391d148549061202590600080516020612ce8833981519152903390600401612b76565b602060405180830381865afa158015612042573d6000803e3d6000fd5b505050506040513d601f19601f820116820180604052508101906120669190612b54565b6120835760405163200ab6d960e01b815260040160405180910390fd5b426000908152603b602052604090205461209d90826124d6565b426000908152603b6020526040902055603c546120ba90826124d6565b603c8190556040517f1833b2803878de6a92dfb6a19b452e31ec63baad0fd2e1e341e0dce55e4ed207916107e69142918591612bf4565b600054604051632474521560e21b8152620100009091046001600160a01b0316906391d148549061213690600080516020612cc8833981519152903390600401612b76565b602060405180830381865afa158015612153573d6000803e3d6000fd5b505050506040513d601f19601f820116820180604052508101906121779190612b54565b6121945760405163599a6c3360e11b815260040160405180910390fd5b6001600160a01b03811660009081526039602052604090205460ff16156121d0578060405163c05cbd9360e01b815260040161079291906129c9565b6001600160a01b038082166000908152603960205260409020805460ff1916600117905560435461220691839116600019612851565b7f703bab07d82e3a598743fce67353b035b0c24eba7311cf15b1dbee83dfed83e0816040516107e691906129c9565b60008054604051632474521560e21b8152620100009091046001600160a01b0316916391d148549161226c91903390600401612b76565b602060405180830381865afa158015612289573d6000803e3d6000fd5b505050506040513d601f19601f820116820180604052508101906122ad9190612b54565b6122ca57604051631886ea7d60e11b815260040160405180910390fd5b603854604051633bccb9b760e21b81526001600160a01b039091169063ef32e6dc906122fc9030908590600401612c59565b600060405180830381600087803b15801561231657600080fd5b505af115801561232a573d6000803e3d6000fd5b505050507f76d1caaadaf7c432d985e38c499863faacaf18dc19f4e9c5be1ddea9880351c3816040516107e691815260200190565b61236b82333084612747565b7fd31b2d0db2d1b4fb15e5d39805db4f9f2a769d65b6fb426f3b2eb33177e53ba58282604051611bbe929190612c59565b600054604051632474521560e21b8152620100009091046001600160a01b0316906391d14854906123e190600080516020612cc8833981519152903390600401612b76565b602060405180830381865afa1580156123fe573d6000803e3d6000fd5b505050506040513d601f19601f820116820180604052508101906124229190612b54565b61243f5760405163599a6c3360e11b815260040160405180910390fd5b816b706f704465627444656c617960a01b0361245f57603e8190556124a5565b816c39bab938363ab9a13ab33332b960991b0361248057603f8190556124a5565b817464656661756c74526577617264456e64426c6f636b60581b03611b745760418190555b7fac7c5c1afaef770ec56ac6268cd3f2fbb1035858ead2601d6553157c33036c3a8282604051611bbe929190612be6565b6000826124e38382612c72565b91508110156106bc57600080fd5b600080846001600160a01b031663a9059cbb60e01b8585604051602401612519929190612c59565b60408051601f198184030181529181526020820180516001600160e01b03166001600160e01b03199094169390931790925290516125579190612c85565b6000604051808303816000865af19150503d8060008114612594576040519150601f19603f3d011682016040523d82523d6000602084013e612599565b606091505b50915091508180156125c35750805115806125c35750808060200190518101906125c39190612b54565b6125f45760405162461bcd60e51b815260206004820152600260248201526114d560f21b6044820152606401610792565b5050505050565b6000826126088382612cb4565b91508111156106bc57600080fd5b600054610100900460ff166126815760405162461bcd60e51b815260206004820152602b60248201527f496e697469616c697a61626c653a20636f6e7472616374206973206e6f74206960448201526a6e697469616c697a696e6760a81b6064820152608401610792565b6000805462010000600160b01b031916620100006001600160a01b03841690810291909117909155158061272657506040516301ffc9a760e01b81526001600160a01b038216906301ffc9a7906126e390637965db0b60e01b90600401612b3f565b602060405180830381865afa158015612700573d6000803e3d6000fd5b505050506040513d601f19601f820116820180604052508101906127249190612b54565b155b15612744576040516384d942fd60e01b815260040160405180910390fd5b50565b604080516001600160a01b0385811660248301528481166044830152606480830185905283518084039091018152608490920183526020820180516001600160e01b03166323b872dd60e01b17905291516000928392908816916127ab9190612c85565b6000604051808303816000865af19150503d80600081146127e8576040519150601f19603f3d011682016040523d82523d6000602084013e6127ed565b606091505b50915091508180156128175750805115806128175750808060200190518101906128179190612b54565b6128495760405162461bcd60e51b815260206004820152600360248201526229aa2360e91b6044820152606401610792565b505050505050565b600080846001600160a01b031663095ea7b360e01b8585604051602401612879929190612c59565b60408051601f198184030181529181526020820180516001600160e01b03166001600160e01b03199094169390931790925290516128b79190612c85565b6000604051808303816000865af19150503d80600081146128f4576040519150601f19603f3d011682016040523d82523d6000602084013e6128f9565b606091505b50915091508180156129235750805115806129235750808060200190518101906129239190612b54565b6125f45760405162461bcd60e51b8152602060048201526002602482015261534160f01b6044820152606401610792565b6000818311156129645781612966565b825b9392505050565b60006020828403121561297f57600080fd5b81356001600160e01b03198116811461296657600080fd5b6001600160a01b038116811461274457600080fd5b6000602082840312156129be57600080fd5b813561296681612997565b6001600160a01b0391909116815260200190565b6000806000606084860312156129f257600080fd5b83356129fd81612997565b95602085013595506040909401359392505050565b600060208284031215612a2457600080fd5b5035919050565b600080600080600080600060e0888a031215612a4657600080fd5b8735612a5181612997565b96506020880135612a6181612997565b95506040880135612a7181612997565b94506060880135612a8181612997565b93506080880135612a9181612997565b925060a0880135612aa181612997565b915060c0880135612ab181612997565b8091505092959891949750929550565b60008060408385031215612ad457600080fd5b8235612adf81612997565b946020939093013593505050565b60008060408385031215612b0057600080fd5b823591506020830135612b1281612997565b809150509250929050565b60008060408385031215612b3057600080fd5b50508035926020909101359150565b6001600160e01b031991909116815260200190565b600060208284031215612b6657600080fd5b8151801515811461296657600080fd5b9182526001600160a01b0316602082015260400190565b600060208284031215612b9f57600080fd5b5051919050565b600060208284031215612bb857600080fd5b815161296681612997565b600060208284031215612bd557600080fd5b815160ff8116811461296657600080fd5b918252602082015260400190565b9283526020830191909152604082015260600190565b634e487b7160e01b600052601160045260246000fd5b80820281158282048414176106bc576106bc612c0a565b600082612c5457634e487b7160e01b600052601260045260246000fd5b500490565b6001600160a01b03929092168252602082015260400190565b808201808211156106bc576106bc612c0a565b6000825160005b81811015612ca65760208186018101518583015201612c8c565b506000920191825250919050565b818103818111156106bc576106bc612c0a56fe3b5d4cc60d3ec3516ee8ae083bd60934f6eb2a6c54b1229985c41bfb092b26039a9aef7c1247d5fc769b0185c052913e39673da29a880317dfd20ebf86f26a49b0fdd1623e42dbffda4acd8bd643e1cb69f00f0e83abeaa8150ee42cf0fd105ea164736f6c6343000811000a",
  "devdoc": {
    "kind": "dev",
    "methods": {
      "addWhitelistStablecoin(address)": {
        "details": "Approves the Exchange module to spend the stablecoin. Only callable by DAO.",
        "params": {
          "stablecoin": "Address of the stablecoin to whitelist."
        }
      },
      "auctionDebt(address,uint256,uint256)": {
        "details": "Creates an Exchange order to sell governance tokens for StablePro, increasing auctioned debt.",
        "params": {
          "amountToSell": "Amount of tokens to sell [token decimals].",
          "auctionDebt": "Debt amount to cover [rad].",
          "token2sell": "Address of the token to sell (suDAO)."
        },
        "returns": {
          "id": "Unique identifier of the Exchange order."
        }
      },
      "auctionSurplus(uint256)": {
        "details": "Creates an Exchange order to sell StablePro, ensuring sufficient surplus and no outstanding debt.Fail: i think its deprecated function, because we dont have rewardChef.",
        "params": {
          "surplusAmount": "Amount of StablePro to auction [wad]."
        },
        "returns": {
          "id": "Unique identifier of the Exchange order."
        }
      },
      "cancelAuctionedDebtWithSurplus(uint256)": {
        "details": "Reduces auctioned debt and settles it with surplus, ensuring sufficient surplus and auctioned debt.",
        "params": {
          "rad": "Debt amount to cancel [rad]."
        }
      },
      "constructor": {
        "custom:oz-upgrades-unsafe-allow": "constructor"
      },
      "disableContract()": {
        "details": "Clears queued and auctioned debt, settles available debt with surplus, and disables the contract."
      },
      "getRealStablePro(uint256)": {
        "details": "Exits StablePro without rewards. Only callable by Admin.",
        "params": {
          "amount": "Amount of StablePro to withdraw [wad]."
        }
      },
      "hasWhitelistStablecoin(address)": {
        "params": {
          "stablecoin": "Address of the stablecoin to check."
        },
        "returns": {
          "_0": "True if the stablecoin is whitelisted, false otherwise."
        }
      },
      "initialize(address,address,address,address,address,address,address)": {
        "details": "Sets immutable references, approves CoinJoin for SafeEngine modifications, and configures initial state.      RewardChef integration is commented out.",
        "params": {
          "accessControl_": "Address of the access control singleton.",
          "coinJoin_": "Address of the CoinJoin contract.",
          "exchange_": "Address of the Exchange module.",
          "oracle_": "Address of the oracle aggregator.",
          "safeEngine_": "Address of the SafeEngine contract.",
          "stablePro_": "Address of the StablePro token.",
          "suDAO_": "Address of the governance token."
        }
      },
      "joinStablePro(uint256)": {
        "details": "Reduces auctioned debt and joins StablePro without rewards. Only callable by Admin.",
        "params": {
          "amount": "Amount of StablePro to deposit [wad]."
        }
      },
      "modifyParameters(bytes32,address)": {
        "details": "Updates references to Exchange, oracle, suDAO, or CoinJoin. RewardChef update is commented out. Only callable by DAO.",
        "params": {
          "data": "New contract address.",
          "what": "Parameter to modify (\"exchange\", \"oracle\", \"suDAO\", or \"coinJoin\")."
        }
      },
      "modifyParameters(bytes32,uint256)": {
        "details": "Updates timing or buffer parameters. Only callable by DAO.",
        "params": {
          "data": "New parameter value.",
          "what": "Parameter to modify (\"popDebtDelay\", \"surplusBuffer\", or \"defaultRewardEndBlock\")."
        }
      },
      "popDebtFromQueue(uint256)": {
        "details": "Clears debt from the specified era if the delay has passed.",
        "params": {
          "era": "Timestamp of the debt queue entry."
        }
      },
      "pushDebtToQueue(uint256)": {
        "details": "Adds debt to the queue at the current timestamp. Only callable by LiquidationAccess.",
        "params": {
          "amountToRaise": "Debt amount to queue [rad]."
        }
      },
      "refillStablecoin(address,uint256)": {
        "details": "Transfers stablecoin from the caller and emits an event.",
        "params": {
          "amount": "Amount of stablecoin to deposit [token decimals].",
          "stablecoin": "Address of the stablecoin."
        }
      },
      "removeWhitelistStablecoin(address)": {
        "details": "Revokes Exchange module approval. Only callable by DAO.",
        "params": {
          "stablecoin": "Address of the stablecoin to remove."
        }
      },
      "setStablecoinToSwap(address)": {
        "details": "Ensures the stablecoin is whitelisted. Only callable by Admin.",
        "params": {
          "stablecoin": "Address of the whitelisted stablecoin."
        }
      },
      "settleDebt(uint256)": {
        "details": "Reduces debt and surplus in SafeEngine, ensuring sufficient surplus and debt availability.",
        "params": {
          "rad": "Debt amount to settle [rad]."
        }
      },
      "supportsInterface(bytes4)": {
        "details": "Returns true if this contract implements the interface defined by `interfaceId`. See the corresponding https://eips.ethereum.org/EIPS/eip-165#how-interfaces-are-identified[EIP section] to learn more about how these ids are created. This function call must use less than 30 000 gas."
      },
      "swapStableProToStablecoin(address,uint256)": {
        "details": "Transfers StablePro from the caller, sends equivalent stablecoin, and emits an event.",
        "params": {
          "stableProAmountE18": "Amount of StablePro to swap [wad].",
          "stablecoinToken": "Address of the whitelisted stablecoin."
        }
      }
    },
    "version": 1
  },
  "userdoc": {
    "kind": "user",
    "methods": {
      "addWhitelistStablecoin(address)": {
        "notice": "Adds a stablecoin to the whitelist."
      },
      "auctionDebt(address,uint256,uint256)": {
        "notice": "Auctions governance tokens to cover debt."
      },
      "auctionSurplus(uint256)": {
        "notice": "Auctions surplus StablePro for governance tokens to distribute via rewardChef"
      },
      "cancelAuctionedDebtWithSurplus(uint256)": {
        "notice": "Cancels auctioned debt using surplus StablePro."
      },
      "coinJoin()": {
        "notice": "Reference to the CoinJoin contract for StablePro operations."
      },
      "contractEnabled()": {
        "notice": "Flag indicating if the contract is enabled (1) or disabled (0)."
      },
      "debtAuctionHouse()": {
        "notice": "Contract that handles auctions for debt that couldn't be covered by collateral auctions (it prints protocol tokens in exchange for coins that will settle the debt)*"
      },
      "debtQueue(uint256)": {
        "notice": "Maps timestamps to queued debt amounts [rad]."
      },
      "defaultRewardEndBlock()": {
        "notice": "Default reward end block for RewardChef (if enabled) [block number]."
      },
      "disableContract()": {
        "notice": "Disables the contract and settles remaining debt."
      },
      "exchange()": {
        "notice": "Reference to the Exchange module for auctions."
      },
      "getRealStablePro(uint256)": {
        "notice": "Withdraws StablePro from the SafeEngine via CoinJoin."
      },
      "hasWhitelistStablecoin(address)": {
        "notice": "Checks if a stablecoin is whitelisted."
      },
      "initialize(address,address,address,address,address,address,address)": {
        "notice": "Initializes the AccountingEngine with required contract addresses."
      },
      "joinStablePro(uint256)": {
        "notice": "Deposits StablePro into the SafeEngine via CoinJoin."
      },
      "modifyParameters(bytes32,address)": {
        "notice": "Modifies contract addresses."
      },
      "modifyParameters(bytes32,uint256)": {
        "notice": "Modifies protocol parameters."
      },
      "oracle()": {
        "notice": "Reference to the oracle for price feeds."
      },
      "popDebtDelay()": {
        "notice": "Delay before debt can be popped from the queue [seconds]."
      },
      "popDebtFromQueue(uint256)": {
        "notice": "Removes debt from the queue after the delay period."
      },
      "pushDebtToQueue(uint256)": {
        "notice": "Queues debt for auctioning."
      },
      "refillStablecoin(address,uint256)": {
        "notice": "Deposits a stablecoin into the contract."
      },
      "removeWhitelistStablecoin(address)": {
        "notice": "Removes a stablecoin from the whitelist."
      },
      "safeEngine()": {
        "notice": "Reference to the SafeEngine contract for debt and surplus tracking."
      },
      "setStablecoinToSwap(address)": {
        "notice": "Sets the stablecoin for collateral liquidation swaps."
      },
      "settleDebt(uint256)": {
        "notice": "Settles debt using surplus StablePro."
      },
      "stablePro()": {
        "notice": "Reference to the system coin (StablePro)."
      },
      "stablecoinToSwap()": {
        "notice": "Stablecoin address for collateral liquidation swaps."
      },
      "suDAO()": {
        "notice": "Reference to the governance token (suDAO)."
      },
      "surplusBuffer()": {
        "notice": "Minimum surplus to maintain before auctioning [rad]."
      },
      "swapStableProToStablecoin(address,uint256)": {
        "notice": "Swaps StablePro for a whitelisted stablecoin."
      },
      "totalOnAuctionDebt()": {
        "notice": "Total debt currently being auctioned [rad]."
      },
      "totalQueuedDebt()": {
        "notice": "Total debt queued for auctioning [rad]."
      }
    },
    "version": 1
  },
  "storageLayout": {
    "storage": [
      {
        "astId": 1226,
        "contract": "contracts/makerdao/externalContracts/AccountingEngine.sol:AccountingEngine",
        "label": "_initialized",
        "offset": 0,
        "slot": "0",
        "type": "t_uint8"
      },
      {
        "astId": 1229,
        "contract": "contracts/makerdao/externalContracts/AccountingEngine.sol:AccountingEngine",
        "label": "_initializing",
        "offset": 1,
        "slot": "0",
        "type": "t_bool"
      },
      {
        "astId": 25605,
        "contract": "contracts/makerdao/externalContracts/AccountingEngine.sol:AccountingEngine",
        "label": "ACCESS_CONTROL_SINGLETON",
        "offset": 2,
        "slot": "0",
        "type": "t_contract(ISuAccessControl)32864"
      },
      {
        "astId": 25893,
        "contract": "contracts/makerdao/externalContracts/AccountingEngine.sol:AccountingEngine",
        "label": "__gap",
        "offset": 0,
        "slot": "1",
        "type": "t_array(t_uint256)50_storage"
      },
      {
        "astId": 91393,
        "contract": "contracts/makerdao/externalContracts/AccountingEngine.sol:AccountingEngine",
        "label": "safeEngine",
        "offset": 0,
        "slot": "51",
        "type": "t_contract(ISafeEngine)97348"
      },
      {
        "astId": 91397,
        "contract": "contracts/makerdao/externalContracts/AccountingEngine.sol:AccountingEngine",
        "label": "exchange",
        "offset": 0,
        "slot": "52",
        "type": "t_contract(IExchange)24402"
      },
      {
        "astId": 91401,
        "contract": "contracts/makerdao/externalContracts/AccountingEngine.sol:AccountingEngine",
        "label": "oracle",
        "offset": 0,
        "slot": "53",
        "type": "t_contract(ISuOracleAggregator)34007"
      },
      {
        "astId": 91405,
        "contract": "contracts/makerdao/externalContracts/AccountingEngine.sol:AccountingEngine",
        "label": "suDAO",
        "offset": 0,
        "slot": "54",
        "type": "t_contract(IERC20)7631"
      },
      {
        "astId": 91409,
        "contract": "contracts/makerdao/externalContracts/AccountingEngine.sol:AccountingEngine",
        "label": "stablePro",
        "offset": 0,
        "slot": "55",
        "type": "t_contract(IERC20)7631"
      },
      {
        "astId": 91413,
        "contract": "contracts/makerdao/externalContracts/AccountingEngine.sol:AccountingEngine",
        "label": "coinJoin",
        "offset": 0,
        "slot": "56",
        "type": "t_contract(ICoinJoin)96490"
      },
      {
        "astId": 91418,
        "contract": "contracts/makerdao/externalContracts/AccountingEngine.sol:AccountingEngine",
        "label": "stablecoinWhitelist",
        "offset": 0,
        "slot": "57",
        "type": "t_mapping(t_address,t_bool)"
      },
      {
        "astId": 91421,
        "contract": "contracts/makerdao/externalContracts/AccountingEngine.sol:AccountingEngine",
        "label": "stablecoinToSwap",
        "offset": 0,
        "slot": "58",
        "type": "t_address"
      },
      {
        "astId": 91426,
        "contract": "contracts/makerdao/externalContracts/AccountingEngine.sol:AccountingEngine",
        "label": "debtQueue",
        "offset": 0,
        "slot": "59",
        "type": "t_mapping(t_uint256,t_uint256)"
      },
      {
        "astId": 91429,
        "contract": "contracts/makerdao/externalContracts/AccountingEngine.sol:AccountingEngine",
        "label": "totalQueuedDebt",
        "offset": 0,
        "slot": "60",
        "type": "t_uint256"
      },
      {
        "astId": 91432,
        "contract": "contracts/makerdao/externalContracts/AccountingEngine.sol:AccountingEngine",
        "label": "totalOnAuctionDebt",
        "offset": 0,
        "slot": "61",
        "type": "t_uint256"
      },
      {
        "astId": 91435,
        "contract": "contracts/makerdao/externalContracts/AccountingEngine.sol:AccountingEngine",
        "label": "popDebtDelay",
        "offset": 0,
        "slot": "62",
        "type": "t_uint256"
      },
      {
        "astId": 91438,
        "contract": "contracts/makerdao/externalContracts/AccountingEngine.sol:AccountingEngine",
        "label": "surplusBuffer",
        "offset": 0,
        "slot": "63",
        "type": "t_uint256"
      },
      {
        "astId": 91441,
        "contract": "contracts/makerdao/externalContracts/AccountingEngine.sol:AccountingEngine",
        "label": "contractEnabled",
        "offset": 0,
        "slot": "64",
        "type": "t_uint256"
      },
      {
        "astId": 91444,
        "contract": "contracts/makerdao/externalContracts/AccountingEngine.sol:AccountingEngine",
        "label": "defaultRewardEndBlock",
        "offset": 0,
        "slot": "65",
        "type": "t_uint256"
      },
      {
        "astId": 91447,
        "contract": "contracts/makerdao/externalContracts/AccountingEngine.sol:AccountingEngine",
        "label": "surplusAuctionHouse",
        "offset": 0,
        "slot": "66",
        "type": "t_contract(SurplusAuctionHouseLike)91383"
      },
      {
        "astId": 91451,
        "contract": "contracts/makerdao/externalContracts/AccountingEngine.sol:AccountingEngine",
        "label": "debtAuctionHouse",
        "offset": 0,
        "slot": "67",
        "type": "t_contract(DebtAuctionHouseLike)91368"
      }
    ],
    "types": {
      "t_address": {
        "encoding": "inplace",
        "label": "address",
        "numberOfBytes": "20"
      },
      "t_array(t_uint256)50_storage": {
        "base": "t_uint256",
        "encoding": "inplace",
        "label": "uint256[50]",
        "numberOfBytes": "1600"
      },
      "t_bool": {
        "encoding": "inplace",
        "label": "bool",
        "numberOfBytes": "1"
      },
      "t_contract(DebtAuctionHouseLike)91368": {
        "encoding": "inplace",
        "label": "contract DebtAuctionHouseLike",
        "numberOfBytes": "20"
      },
      "t_contract(ICoinJoin)96490": {
        "encoding": "inplace",
        "label": "contract ICoinJoin",
        "numberOfBytes": "20"
      },
      "t_contract(IERC20)7631": {
        "encoding": "inplace",
        "label": "contract IERC20",
        "numberOfBytes": "20"
      },
      "t_contract(IExchange)24402": {
        "encoding": "inplace",
        "label": "contract IExchange",
        "numberOfBytes": "20"
      },
      "t_contract(ISafeEngine)97348": {
        "encoding": "inplace",
        "label": "contract ISafeEngine",
        "numberOfBytes": "20"
      },
      "t_contract(ISuAccessControl)32864": {
        "encoding": "inplace",
        "label": "contract ISuAccessControl",
        "numberOfBytes": "20"
      },
      "t_contract(ISuOracleAggregator)34007": {
        "encoding": "inplace",
        "label": "contract ISuOracleAggregator",
        "numberOfBytes": "20"
      },
      "t_contract(SurplusAuctionHouseLike)91383": {
        "encoding": "inplace",
        "label": "contract SurplusAuctionHouseLike",
        "numberOfBytes": "20"
      },
      "t_mapping(t_address,t_bool)": {
        "encoding": "mapping",
        "key": "t_address",
        "label": "mapping(address => bool)",
        "numberOfBytes": "32",
        "value": "t_bool"
      },
      "t_mapping(t_uint256,t_uint256)": {
        "encoding": "mapping",
        "key": "t_uint256",
        "label": "mapping(uint256 => uint256)",
        "numberOfBytes": "32",
        "value": "t_uint256"
      },
      "t_uint256": {
        "encoding": "inplace",
        "label": "uint256",
        "numberOfBytes": "32"
      },
      "t_uint8": {
        "encoding": "inplace",
        "label": "uint8",
        "numberOfBytes": "1"
      }
    }
  }
}