{
  "address": "0x4b818ba925484408d388Eb3aC5652B45435b3A83",
  "abi": [
    {
      "inputs": [],
      "stateMutability": "nonpayable",
      "type": "constructor"
    },
    {
      "inputs": [
        {
          "internalType": "address",
          "name": "sender",
          "type": "address"
        }
      ],
      "name": "BadSender",
      "type": "error"
    },
    {
      "inputs": [],
      "name": "InvalidProfitPercent",
      "type": "error"
    },
    {
      "inputs": [
        {
          "internalType": "address",
          "name": "lpToken",
          "type": "address"
        }
      ],
      "name": "LPTokenNotRegistered",
      "type": "error"
    },
    {
      "inputs": [
        {
          "internalType": "address",
          "name": "lpToken",
          "type": "address"
        }
      ],
      "name": "LPTokenNotSupported",
      "type": "error"
    },
    {
      "inputs": [
        {
          "internalType": "address",
          "name": "sender",
          "type": "address"
        }
      ],
      "name": "NotAPool",
      "type": "error"
    },
    {
      "inputs": [],
      "name": "SwapBy1InchError",
      "type": "error"
    },
    {
      "inputs": [],
      "name": "SwapByParaSwapError",
      "type": "error"
    },
    {
      "inputs": [
        {
          "internalType": "uint256",
          "name": "expectedAmount",
          "type": "uint256"
        },
        {
          "internalType": "uint256",
          "name": "realAmount",
          "type": "uint256"
        }
      ],
      "name": "SwapNotProfitable",
      "type": "error"
    },
    {
      "inputs": [],
      "name": "ZeroRecipient",
      "type": "error"
    },
    {
      "anonymous": false,
      "inputs": [
        {
          "indexed": true,
          "internalType": "address",
          "name": "lp",
          "type": "address"
        },
        {
          "indexed": true,
          "internalType": "address",
          "name": "adapter",
          "type": "address"
        }
      ],
      "name": "ApprovalRevoked",
      "type": "event"
    },
    {
      "anonymous": false,
      "inputs": [
        {
          "indexed": true,
          "internalType": "address",
          "name": "token",
          "type": "address"
        },
        {
          "indexed": true,
          "internalType": "address",
          "name": "recipient",
          "type": "address"
        },
        {
          "indexed": false,
          "internalType": "uint256",
          "name": "amount",
          "type": "uint256"
        }
      ],
      "name": "EmergencyWithdraw",
      "type": "event"
    },
    {
      "anonymous": false,
      "inputs": [
        {
          "indexed": false,
          "internalType": "uint8",
          "name": "version",
          "type": "uint8"
        }
      ],
      "name": "Initialized",
      "type": "event"
    },
    {
      "anonymous": false,
      "inputs": [
        {
          "indexed": true,
          "internalType": "address",
          "name": "lp",
          "type": "address"
        },
        {
          "indexed": true,
          "internalType": "address",
          "name": "adapter",
          "type": "address"
        }
      ],
      "name": "LPRegistered",
      "type": "event"
    },
    {
      "anonymous": false,
      "inputs": [
        {
          "indexed": true,
          "internalType": "address",
          "name": "previousOwner",
          "type": "address"
        },
        {
          "indexed": true,
          "internalType": "address",
          "name": "newOwner",
          "type": "address"
        }
      ],
      "name": "OwnershipTransferred",
      "type": "event"
    },
    {
      "inputs": [
        {
          "internalType": "uint256",
          "name": "amount",
          "type": "uint256"
        }
      ],
      "name": "approveToVeToken",
      "outputs": [],
      "stateMutability": "nonpayable",
      "type": "function"
    },
    {
      "inputs": [
        {
          "internalType": "bytes",
          "name": "data",
          "type": "bytes"
        },
        {
          "internalType": "uint256",
          "name": "newAmount",
          "type": "uint256"
        }
      ],
      "name": "changeCalldataAmount",
      "outputs": [
        {
          "internalType": "bytes",
          "name": "",
          "type": "bytes"
        }
      ],
      "stateMutability": "pure",
      "type": "function"
    },
    {
      "inputs": [
        {
          "internalType": "address",
          "name": "clipperExchange",
          "type": "address"
        },
        {
          "internalType": "address",
          "name": "srcToken",
          "type": "address"
        },
        {
          "internalType": "address",
          "name": "dstToken",
          "type": "address"
        },
        {
          "internalType": "uint256",
          "name": "inputAmount",
          "type": "uint256"
        },
        {
          "internalType": "uint256",
          "name": "outputAmount",
          "type": "uint256"
        },
        {
          "internalType": "uint256",
          "name": "goodUntil",
          "type": "uint256"
        },
        {
          "internalType": "bytes32",
          "name": "r",
          "type": "bytes32"
        },
        {
          "internalType": "bytes32",
          "name": "vs",
          "type": "bytes32"
        }
      ],
      "name": "clipperSwap",
      "outputs": [],
      "stateMutability": "pure",
      "type": "function"
    },
    {
      "inputs": [
        {
          "internalType": "address",
          "name": "to",
          "type": "address"
        }
      ],
      "name": "delegateVotingPower",
      "outputs": [],
      "stateMutability": "nonpayable",
      "type": "function"
    },
    {
      "inputs": [
        {
          "internalType": "address",
          "name": "token",
          "type": "address"
        },
        {
          "internalType": "address",
          "name": "recipient",
          "type": "address"
        },
        {
          "internalType": "uint256",
          "name": "amount",
          "type": "uint256"
        }
      ],
      "name": "emergencyWithdraw",
      "outputs": [],
      "stateMutability": "nonpayable",
      "type": "function"
    },
    {
      "inputs": [
        {
          "internalType": "address",
          "name": "_exchange",
          "type": "address"
        },
        {
          "internalType": "address",
          "name": "_gov",
          "type": "address"
        },
        {
          "internalType": "address",
          "name": "_veGov",
          "type": "address"
        },
        {
          "internalType": "address",
          "name": "_topStakers",
          "type": "address"
        }
      ],
      "name": "initialize",
      "outputs": [],
      "stateMutability": "nonpayable",
      "type": "function"
    },
    {
      "inputs": [
        {
          "internalType": "address",
          "name": "",
          "type": "address"
        }
      ],
      "name": "lpToAdapter",
      "outputs": [
        {
          "internalType": "contract ILPAdapter",
          "name": "",
          "type": "address"
        }
      ],
      "stateMutability": "view",
      "type": "function"
    },
    {
      "inputs": [],
      "name": "owner",
      "outputs": [
        {
          "internalType": "address",
          "name": "",
          "type": "address"
        }
      ],
      "stateMutability": "view",
      "type": "function"
    },
    {
      "inputs": [
        {
          "internalType": "address",
          "name": "_lp",
          "type": "address"
        },
        {
          "internalType": "address",
          "name": "_lpAdapter",
          "type": "address"
        }
      ],
      "name": "registerLP",
      "outputs": [],
      "stateMutability": "nonpayable",
      "type": "function"
    },
    {
      "inputs": [],
      "name": "renounceOwnership",
      "outputs": [],
      "stateMutability": "nonpayable",
      "type": "function"
    },
    {
      "inputs": [
        {
          "internalType": "address",
          "name": "_lp",
          "type": "address"
        },
        {
          "internalType": "address",
          "name": "_lpAdapter",
          "type": "address"
        }
      ],
      "name": "revokeApprove",
      "outputs": [],
      "stateMutability": "nonpayable",
      "type": "function"
    },
    {
      "inputs": [
        {
          "internalType": "address",
          "name": "returnAsset",
          "type": "address"
        },
        {
          "internalType": "uint256",
          "name": "amount",
          "type": "uint256"
        },
        {
          "internalType": "address",
          "name": "sender",
          "type": "address"
        },
        {
          "internalType": "bytes",
          "name": "data",
          "type": "bytes"
        }
      ],
      "name": "stableunitFillOrderCallback",
      "outputs": [
        {
          "internalType": "bool",
          "name": "",
          "type": "bool"
        }
      ],
      "stateMutability": "nonpayable",
      "type": "function"
    },
    {
      "inputs": [
        {
          "internalType": "uint256",
          "name": "amount",
          "type": "uint256"
        },
        {
          "internalType": "uint256",
          "name": "unlockTime",
          "type": "uint256"
        }
      ],
      "name": "stakeTokens",
      "outputs": [],
      "stateMutability": "nonpayable",
      "type": "function"
    },
    {
      "inputs": [],
      "name": "subscribeInTopStaker",
      "outputs": [],
      "stateMutability": "nonpayable",
      "type": "function"
    },
    {
      "inputs": [
        {
          "internalType": "address",
          "name": "",
          "type": "address"
        },
        {
          "components": [
            {
              "internalType": "address",
              "name": "srcToken",
              "type": "address"
            },
            {
              "internalType": "address",
              "name": "dstToken",
              "type": "address"
            },
            {
              "internalType": "address",
              "name": "srcReceiver",
              "type": "address"
            },
            {
              "internalType": "address",
              "name": "dstReceiver",
              "type": "address"
            },
            {
              "internalType": "uint256",
              "name": "amount",
              "type": "uint256"
            },
            {
              "internalType": "uint256",
              "name": "minReturnAmount",
              "type": "uint256"
            },
            {
              "internalType": "uint256",
              "name": "flags",
              "type": "uint256"
            }
          ],
          "internalType": "struct SwapDescription",
          "name": "",
          "type": "tuple"
        },
        {
          "internalType": "bytes",
          "name": "",
          "type": "bytes"
        },
        {
          "internalType": "bytes",
          "name": "",
          "type": "bytes"
        }
      ],
      "name": "swap",
      "outputs": [],
      "stateMutability": "pure",
      "type": "function"
    },
    {
      "inputs": [
        {
          "internalType": "uint256",
          "name": "orderId",
          "type": "uint256"
        },
        {
          "internalType": "uint256",
          "name": "token2sellAmount",
          "type": "uint256"
        },
        {
          "internalType": "uint256",
          "name": "minProfitPercent",
          "type": "uint256"
        },
        {
          "internalType": "uint256",
          "name": "minUnwrapSlippage",
          "type": "uint256"
        },
        {
          "components": [
            {
              "internalType": "address",
              "name": "contractAddress",
              "type": "address"
            },
            {
              "internalType": "bytes",
              "name": "data",
              "type": "bytes"
            },
            {
              "internalType": "address",
              "name": "token",
              "type": "address"
            }
          ],
          "internalType": "struct InchData[]",
          "name": "inchData",
          "type": "tuple[]"
        }
      ],
      "name": "swapLPWithFlashLoan",
      "outputs": [],
      "stateMutability": "nonpayable",
      "type": "function"
    },
    {
      "inputs": [
        {
          "internalType": "uint256",
          "name": "orderId",
          "type": "uint256"
        },
        {
          "internalType": "uint256",
          "name": "token2sellAmount",
          "type": "uint256"
        },
        {
          "internalType": "uint256",
          "name": "minProfitPercent",
          "type": "uint256"
        },
        {
          "components": [
            {
              "internalType": "address",
              "name": "contractAddress",
              "type": "address"
            },
            {
              "internalType": "bytes",
              "name": "data",
              "type": "bytes"
            },
            {
              "internalType": "address",
              "name": "token",
              "type": "address"
            }
          ],
          "internalType": "struct InchData",
          "name": "inchData",
          "type": "tuple"
        }
      ],
      "name": "swapWithFlashLoan",
      "outputs": [],
      "stateMutability": "nonpayable",
      "type": "function"
    },
    {
      "inputs": [
        {
          "internalType": "address",
          "name": "newOwner",
          "type": "address"
        }
      ],
      "name": "transferOwnership",
      "outputs": [],
      "stateMutability": "nonpayable",
      "type": "function"
    },
    {
      "inputs": [
        {
          "internalType": "uint256",
          "name": "",
          "type": "uint256"
        },
        {
          "internalType": "uint256",
          "name": "",
          "type": "uint256"
        },
        {
          "internalType": "uint256[]",
          "name": "",
          "type": "uint256[]"
        }
      ],
      "name": "uniswapV3Swap",
      "outputs": [],
      "stateMutability": "pure",
      "type": "function"
    },
    {
      "inputs": [
        {
          "internalType": "address",
          "name": "",
          "type": "address"
        },
        {
          "internalType": "uint256",
          "name": "",
          "type": "uint256"
        },
        {
          "internalType": "uint256",
          "name": "",
          "type": "uint256"
        },
        {
          "internalType": "uint256[]",
          "name": "",
          "type": "uint256[]"
        }
      ],
      "name": "unoswap",
      "outputs": [],
      "stateMutability": "pure",
      "type": "function"
    },
    {
      "inputs": [],
      "name": "unsubscribeFromTopStaker",
      "outputs": [],
      "stateMutability": "nonpayable",
      "type": "function"
    }
  ],
  "numDeployments": 1,
  "solcInputHash": "76dc9cb9d0b24a43369715039d46d76f",
  "bytecode": "0x60806040523480156200001157600080fd5b506200001c62000022565b620000e3565b600054610100900460ff16156200008f5760405162461bcd60e51b815260206004820152602760248201527f496e697469616c697a61626c653a20636f6e747261637420697320696e697469604482015266616c697a696e6760c81b606482015260840160405180910390fd5b60005460ff90811614620000e1576000805460ff191660ff9081179091556040519081527f7f26b83ff96e1f2b6a682f133852f6798a09c465da95921460cefb38474024989060200160405180910390a15b565b612f7780620000f36000396000f3fe608060405234801561001057600080fd5b50600436106101075760003560e01c80630502b1c51461010c5780630da291f91461012357806312aa3caf1461012b5780631e611306146101415780633b7b61881461016a5780634d77406e1461017d5780634dec53e0146101905780636a2f53c2146101c6578063715018a6146101e957806384bd6d29146101f15780638da5cb5b14610209578063943a0f131461021157806396238d2d14610224578063cda502e114610237578063d65a3a2e1461023f578063e449022e14610252578063e63ea40814610266578063e75c0f2d14610279578063f2fde38b1461028c578063f3ff955a1461029f578063f8c8765e146102b2575b600080fd5b61012161011a366004611ee0565b5050505050565b005b6101216102c5565b610121610139366004611f8a565b505050505050565b61015461014f36600461202b565b610331565b60405161016191906120c6565b60405180910390f35b6101216101783660046120d9565b61071c565b61012161018b3660046122b8565b610785565b6101b961019e366004612311565b6099602052600090815260409020546001600160a01b031681565b604051610161919061232e565b6101d96101d4366004612342565b6109b0565b6040519015158152602001610161565b61012161103e565b6101216101ff3660046123a3565b5050505050505050565b6101b9611052565b61012161021f36600461241a565b611061565b610121610232366004612500565b611162565b610121611271565b61012161024d36600461241a565b6112c9565b610121610260366004612563565b50505050565b6101216102743660046125b5565b6113a5565b6101216102873660046125f6565b61143a565b61012161029a366004612311565b6114bf565b6101216102ad366004612311565b611538565b6101216102c036600461260f565b61159e565b6102cd61170b565b609b60009054906101000a90046001600160a01b03166001600160a01b0316638f449a056040518163ffffffff1660e01b8152600401600060405180830381600087803b15801561031d57600080fd5b505af1158015610260573d6000803e3d6000fd5b60606000610342600482868861266b565b61034b91612695565b9050630ddb7ee960e11b6001600160e01b03198216016103fc5760008080610376876004818b61266b565b8101906103839190612720565b92509250925060008084116103995760016103ae565b836103a48885612785565b6103ae919061279c565b90508681836040516024016103c5939291906127f9565b60408051601f198184030181529190526020810180516001600160e01b0316637224811760e11b1790529550610715945050505050565b63fafd4e3b60e01b6001600160e01b03198216016104b1576000808080610426886004818c61266b565b8101906104339190612818565b9350935093509350600080841161044b576001610460565b836104568985612785565b610460919061279c565b905084888284604051602401610479949392919061286e565b60408051601f198184030181529190526020810180516001600160e01b0316630502b1c560e01b179052965061071595505050505050565b63ed55c35160e01b6001600160e01b03198216016105de5760008080806104db886004818c61266b565b8101906104e891906128a5565b9350935093509350600080846080015111610504576001610523565b8360800151888560a001516105199190612785565b610523919061279c565b9050846040518060e0016040528086600001516001600160a01b0316815260200186602001516001600160a01b0316815260200186604001516001600160a01b0316815260200186606001516001600160a01b031681526020018a81526020018381526020018660c0015181525084846040516024016105a6949392919061299c565b60408051601f198184030181529190526020810180516001600160e01b03166312aa3caf60e01b179052965061071595505050505050565b637b4292d760e01b6001600160e01b03198216016106da576000806000806000806000808c8c60049080926106159392919061266b565b81019061062291906123a3565b975097509750975097509750975097506000808611610642576001610657565b8561064d8d87612785565b610657919061279c565b604080516001600160a01b039b8c166024820152998b1660448b015297909916606489015250608487018b905260a487019790975260c486019190915260e48501525050610104808301939093528051808303909301835261012490910190526020810180516001600160e01b03166384bd6d2960e01b17905291506107159050565b84848080601f016020809104026020016040519081016040528093929190818152602001838380828437600092019190915250929450505050505b9392505050565b61072461170b565b609a54604051635a9602ff60e11b815260048101849052602481018390526001600160a01b039091169063b52c05fe90604401600060405180830381600087803b15801561077157600080fd5b505af1158015610139573d6000803e3d6000fd5b61078d61170b565b81158061079b575061271082115b156107b9576040516363358a5760e01b815260040160405180910390fd5b60975460405163d09ef24160e01b8152600481018690526000916001600160a01b03169063d09ef2419060240161010060405180830381865afa158015610804573d6000803e3d6000fd5b505050506040513d601f19601f820116820180604052508101906108289190612a54565b60408051600180825281830190925291925060009190816020015b610879604051806060016040528060006001600160a01b031681526020016060815260200160006001600160a01b031681525090565b81526020019060019003908161084357905050905082816000815181106108a2576108a2612b0f565b6020026020010181905250609760009054906101000a90046001600160a01b03166001600160a01b031663e2ed06de87876040518061010001604052806000151581526020018b815260200187600001516001600160a01b031681526020018a815260200189815260200160008152602001336001600160a01b03168152602001868152506040516020016109379190612ba6565b6040516020818303038152906040526040518463ffffffff1660e01b815260040161096493929190612c24565b6020604051808303816000875af1158015610983573d6000803e3d6000fd5b505050506040513d601f19601f820116820180604052508101906109a79190612c43565b50505050505050565b60006109ba61176a565b60006109c883850185612c75565b6040810151606082015160975492935090916001600160a01b03163314610a0d573360405163e372835960e01b8152600401610a04919061232e565b60405180910390fd5b6001600160a01b0387163014610a385786604051637d85130d60e11b8152600401610a04919061232e565b6040516370a0823160e01b81526000906001600160a01b038b16906370a0823190610a6790309060040161232e565b602060405180830381865afa158015610a84573d6000803e3d6000fd5b505050506040513d601f19601f82011682018060405250810190610aa89190612c43565b845190915015610e9b576001600160a01b0383811660009081526099602052604090205416610aec5782604051637d250b0b60e11b8152600401610a04919061232e565b6001600160a01b0380841660009081526099602052604090819020549051635136211760e01b8152911690635136211790610b2b90869060040161232e565b6020604051808303816000875af1158015610b4a573d6000803e3d6000fd5b505050506040513d601f19601f82011682018060405250810190610b6e9190612d3d565b610b8d57826040516325eadd2560e01b8152600401610a04919061232e565b6001600160a01b038381166000818152609960205260408082205460a08901519151635ae2fb3960e11b815260048101949094526024840187905260448401919091529092169063b5c5f672906064016000604051808303816000875af1158015610bfc573d6000803e3d6000fd5b505050506040513d6000823e601f3d908101601f19168201604052610c249190810190612d5a565b805160e0870151519192501460005b82518161ffff161015610e93576000838261ffff1681518110610c5857610c58612b0f565b60200260200101516000015190506000848361ffff1681518110610c7e57610c7e612b0f565b60200260200101516020015190508e6001600160a01b0316826001600160a01b031614610e80578315610d7857610d7382828b60e001518661ffff1681518110610cca57610cca612b0f565b602002602001015160000151306001600160a01b0316631e6113068e60e001518961ffff1681518110610cff57610cff612b0f565b602002602001015160200151876040518363ffffffff1660e01b8152600401610d29929190612e0d565b600060405180830381865afa158015610d46573d6000803e3d6000fd5b505050506040513d6000823e601f3d908101601f19168201604052610d6e9190810190612e2f565b6117c3565b610e80565b60005b8960e00151518161ffff161015610e7e578960e001518161ffff1681518110610da657610da6612b0f565b6020026020010151604001516001600160a01b0316868561ffff1681518110610dd157610dd1612b0f565b6020026020010151600001516001600160a01b031603610e6e57610e6983838c60e001518461ffff1681518110610e0a57610e0a612b0f565b602002602001015160000151306001600160a01b0316631e6113068f60e001518761ffff1681518110610e3f57610e3f612b0f565b602002602001015160200151886040518363ffffffff1660e01b8152600401610d29929190612e0d565b610e7e565b610e7781612e9c565b9050610d7b565b505b505080610e8c90612e9c565b9050610c33565b505050610eeb565b610eeb83838660e00151600081518110610eb757610eb7612b0f565b6020026020010151600001518760e00151600081518110610eda57610eda612b0f565b6020026020010151602001516117c3565b6000818b6001600160a01b03166370a08231306040518263ffffffff1660e01b8152600401610f1a919061232e565b602060405180830381865afa158015610f37573d6000803e3d6000fd5b505050506040513d601f19601f82011682018060405250810190610f5b9190612c43565b610f659190612ebd565b905089811015610f925760405163bc7857df60e01b8152600481018b905260248101829052604401610a04565b6000610f9e8b83612ebd565b9050600061271087608001518d610fb59190612785565b610fbf919061279c565b905080821015610fec5760405163bc7857df60e01b81526004810182905260248101839052604401610a04565b609754611006906001600160a01b038f811691168e611855565b60c0870151611020906001600160a01b038f169084611855565b60019750505050505050506110356001606555565b95945050505050565b61104661170b565b61105060006118b7565b565b6033546001600160a01b031690565b61106961170b565b6001600160a01b0382811660008181526099602052604080822080546001600160a01b031916948616949094179093559151636eb1769f60e11b815263dd62ed3e906110bb9030908690600401612ed0565b602060405180830381865afa1580156110d8573d6000803e3d6000fd5b505050506040513d601f19601f820116820180604052508101906110fc9190612c43565b905060001980821461111c5761111c6001600160a01b0385168483611909565b826001600160a01b0316846001600160a01b03167fd10f56385a196925f272a951681f1d659519962e5e8a1ba95c6d0c0916ac893360405160405180910390a350505050565b61116a61170b565b821580611178575061271083115b15611196576040516363358a5760e01b815260040160405180910390fd5b60975460405163d09ef24160e01b8152600481018790526000916001600160a01b03169063d09ef2419060240161010060405180830381865afa1580156111e1573d6000803e3d6000fd5b505050506040513d601f19601f820116820180604052508101906112059190612a54565b60975460408051610100810182526001815260208082018b905284516001600160a01b0390811683850152606083018b9052608083018a905260a083018990523360c084015260e083018890529251949550919092169263e2ed06de928a928a92610937929101612ba6565b61127961170b565b609b60009054906101000a90046001600160a01b03166001600160a01b031663fcae44846040518163ffffffff1660e01b8152600401600060405180830381600087803b15801561031d57600080fd5b6112d161170b565b604051636eb1769f60e11b81526000906001600160a01b0384169063dd62ed3e906113029030908690600401612ed0565b602060405180830381865afa15801561131f573d6000803e3d6000fd5b505050506040513d601f19601f820116820180604052508101906113439190612c43565b90508015611360576113606001600160a01b0384168360006119a2565b816001600160a01b0316836001600160a01b03167f97a94ee714dc2c5c1889f6fe8e8909a95e0307c4b272c7df374bf76582099f8760405160405180910390a3505050565b6113ad61170b565b6001600160a01b0382166113d45760405163d27b444360e01b815260040160405180910390fd5b6113e86001600160a01b0384168383611855565b816001600160a01b0316836001600160a01b03167ff24ef89f38eadc1bde50701ad6e4d6d11a2dc24f7cf834a486991f38833285048360405161142d91815260200190565b60405180910390a3505050565b61144261170b565b609854609a5460405163095ea7b360e01b81526001600160a01b039283169263095ea7b392611478929116908590600401612eea565b6020604051808303816000875af1158015611497573d6000803e3d6000fd5b505050506040513d601f19601f820116820180604052508101906114bb9190612d3d565b5050565b6114c761170b565b6001600160a01b03811661152c5760405162461bcd60e51b815260206004820152602660248201527f4f776e61626c653a206e6577206f776e657220697320746865207a65726f206160448201526564647265737360d01b6064820152608401610a04565b611535816118b7565b50565b61154061170b565b609a546040516317066a5760e21b81526001600160a01b0390911690635c19a95c9061157090849060040161232e565b600060405180830381600087803b15801561158a57600080fd5b505af115801561011a573d6000803e3d6000fd5b600054610100900460ff16158080156115be5750600054600160ff909116105b806115df57506115cd30611aa5565b1580156115df575060005460ff166001145b6116425760405162461bcd60e51b815260206004820152602e60248201527f496e697469616c697a61626c653a20636f6e747261637420697320616c72656160448201526d191e481a5b9a5d1a585b1a5e995960921b6064820152608401610a04565b6000805460ff191660011790558015611665576000805461ff0019166101001790555b61166d611ab4565b611675611ae3565b609780546001600160a01b038088166001600160a01b03199283161790925560988054878416908316179055609a8054868416908316179055609b805492851692909116919091179055801561011a576000805461ff0019169055604051600181527f7f26b83ff96e1f2b6a682f133852f6798a09c465da95921460cefb38474024989060200160405180910390a15050505050565b33611714611052565b6001600160a01b0316146110505760405162461bcd60e51b815260206004820181905260248201527f4f776e61626c653a2063616c6c6572206973206e6f7420746865206f776e65726044820152606401610a04565b6002606554036117bc5760405162461bcd60e51b815260206004820152601f60248201527f5265656e7472616e637947756172643a207265656e7472616e742063616c6c006044820152606401610a04565b6002606555565b6117d76001600160a01b0385168385611909565b6000826001600160a01b0316826040516117f19190612f03565b6000604051808303816000865af19150503d806000811461182e576040519150601f19603f3d011682016040523d82523d6000602084013e611833565b606091505b505090508061011a57604051635aa0560760e11b815260040160405180910390fd5b6118ab8363a9059cbb60e01b8484604051602401611874929190612eea565b60408051601f198184030181529190526020810180516001600160e01b03166001600160e01b031990931692909217909152611b12565b505050565b6001606555565b603380546001600160a01b038381166001600160a01b0319831681179093556040519116919082907f8be0079c531659141344cd1fd0a4f28419497f9722a3daafe3b4186f6b6457e090600090a35050565b600063095ea7b360e01b8383604051602401611926929190612eea565b60408051601f198184030181529190526020810180516001600160e01b03166001600160e01b03199093169290921790915290506119648482611be7565b610260576040516001600160a01b03841660248201526000604482015261199890859063095ea7b360e01b90606401611874565b6102608482611b12565b801580611a1b5750604051636eb1769f60e11b81526001600160a01b0384169063dd62ed3e906119d89030908690600401612ed0565b602060405180830381865afa1580156119f5573d6000803e3d6000fd5b505050506040513d601f19601f82011682018060405250810190611a199190612c43565b155b611a865760405162461bcd60e51b815260206004820152603660248201527f5361666545524332303a20617070726f76652066726f6d206e6f6e2d7a65726f60448201527520746f206e6f6e2d7a65726f20616c6c6f77616e636560501b6064820152608401610a04565b6118ab8363095ea7b360e01b8484604051602401611874929190612eea565b6001600160a01b03163b151590565b600054610100900460ff16611adb5760405162461bcd60e51b8152600401610a0490612f1f565b611050611c8b565b600054610100900460ff16611b0a5760405162461bcd60e51b8152600401610a0490612f1f565b611050611cbb565b6000611b67826040518060400160405280602081526020017f5361666545524332303a206c6f772d6c6576656c2063616c6c206661696c6564815250856001600160a01b0316611ce29092919063ffffffff16565b9050805160001480611b88575080806020019051810190611b889190612d3d565b6118ab5760405162461bcd60e51b815260206004820152602a60248201527f5361666545524332303a204552433230206f7065726174696f6e20646964206e6044820152691bdd081cdd58d8d9595960b21b6064820152608401610a04565b6000806000846001600160a01b031684604051611c049190612f03565b6000604051808303816000865af19150503d8060008114611c41576040519150601f19603f3d011682016040523d82523d6000602084013e611c46565b606091505b5091509150818015611c70575080511580611c70575080806020019051810190611c709190612d3d565b8015611c805750611c8085611aa5565b925050505b92915050565b600054610100900460ff16611cb25760405162461bcd60e51b8152600401610a0490612f1f565b611050336118b7565b600054610100900460ff166118b05760405162461bcd60e51b8152600401610a0490612f1f565b6060611cf18484600085611cf9565b949350505050565b606082471015611d5a5760405162461bcd60e51b815260206004820152602660248201527f416464726573733a20696e73756666696369656e742062616c616e636520666f6044820152651c8818d85b1b60d21b6064820152608401610a04565b600080866001600160a01b03168587604051611d769190612f03565b60006040518083038185875af1925050503d8060008114611db3576040519150601f19603f3d011682016040523d82523d6000602084013e611db8565b606091505b5091509150611dc987838387611dd4565b979650505050505050565b60608315611e41578251600003611e3a57611dee85611aa5565b611e3a5760405162461bcd60e51b815260206004820152601d60248201527f416464726573733a2063616c6c20746f206e6f6e2d636f6e74726163740000006044820152606401610a04565b5081611cf1565b611cf18383815115611e565781518083602001fd5b8060405162461bcd60e51b8152600401610a0491906120c6565b6001600160a01b038116811461153557600080fd5b8035611e9081611e70565b919050565b60008083601f840112611ea757600080fd5b5081356001600160401b03811115611ebe57600080fd5b6020830191508360208260051b8501011115611ed957600080fd5b9250929050565b600080600080600060808688031215611ef857600080fd5b8535611f0381611e70565b9450602086013593506040860135925060608601356001600160401b03811115611f2c57600080fd5b611f3888828901611e95565b969995985093965092949392505050565b60008083601f840112611f5b57600080fd5b5081356001600160401b03811115611f7257600080fd5b602083019150836020828501011115611ed957600080fd5b600080600080600080868803610140811215611fa557600080fd5b8735611fb081611e70565b965060e0601f1982011215611fc457600080fd5b506020870194506101008701356001600160401b0380821115611fe657600080fd5b611ff28a838b01611f49565b909650945061012089013591508082111561200c57600080fd5b5061201989828a01611f49565b979a9699509497509295939492505050565b60008060006040848603121561204057600080fd5b83356001600160401b0381111561205657600080fd5b61206286828701611f49565b909790965060209590950135949350505050565b60005b83811015612091578181015183820152602001612079565b50506000910152565b600081518084526120b2816020860160208601612076565b601f01601f19169290920160200192915050565b602081526000610715602083018461209a565b600080604083850312156120ec57600080fd5b50508035926020909101359150565b634e487b7160e01b600052604160045260246000fd5b60405160e081016001600160401b0381118282101715612133576121336120fb565b60405290565b60405161010081016001600160401b0381118282101715612133576121336120fb565b604080519081016001600160401b0381118282101715612133576121336120fb565b604051601f8201601f191681016001600160401b03811182821017156121a6576121a66120fb565b604052919050565b60006001600160401b038211156121c7576121c76120fb565b50601f01601f191660200190565b600082601f8301126121e657600080fd5b81356121f96121f4826121ae565b61217e565b81815284602083860101111561220e57600080fd5b816020850160208301376000918101602001919091529392505050565b60006060828403121561223d57600080fd5b604051606081016001600160401b038082118383101715612260576122606120fb565b816040528293508435915061227482611e70565b9082526020840135908082111561228a57600080fd5b50612297858286016121d5565b60208301525060408301356122ab81611e70565b6040919091015292915050565b600080600080608085870312156122ce57600080fd5b84359350602085013592506040850135915060608501356001600160401b038111156122f957600080fd5b6123058782880161222b565b91505092959194509250565b60006020828403121561232357600080fd5b813561071581611e70565b6001600160a01b0391909116815260200190565b60008060008060006080868803121561235a57600080fd5b853561236581611e70565b945060208601359350604086013561237c81611e70565b925060608601356001600160401b0381111561239757600080fd5b611f3888828901611f49565b600080600080600080600080610100898b0312156123c057600080fd5b88356123cb81611e70565b975060208901356123db81611e70565b965060408901356123eb81611e70565b979a96995096976060810135975060808101359660a0820135965060c0820135955060e0909101359350915050565b6000806040838503121561242d57600080fd5b823561243881611e70565b9150602083013561244881611e70565b809150509250929050565b60006001600160401b0382111561246c5761246c6120fb565b5060051b60200190565b600082601f83011261248757600080fd5b813560206124976121f483612453565b82815260059290921b840181019181810190868411156124b657600080fd5b8286015b848110156124f55780356001600160401b038111156124d95760008081fd5b6124e78986838b010161222b565b8452509183019183016124ba565b509695505050505050565b600080600080600060a0868803121561251857600080fd5b8535945060208601359350604086013592506060860135915060808601356001600160401b0381111561254a57600080fd5b61255688828901612476565b9150509295509295909350565b6000806000806060858703121561257957600080fd5b843593506020850135925060408501356001600160401b0381111561259d57600080fd5b6125a987828801611e95565b95989497509550505050565b6000806000606084860312156125ca57600080fd5b83356125d581611e70565b925060208401356125e581611e70565b929592945050506040919091013590565b60006020828403121561260857600080fd5b5035919050565b6000806000806080858703121561262557600080fd5b843561263081611e70565b9350602085013561264081611e70565b9250604085013561265081611e70565b9150606085013561266081611e70565b939692955090935050565b6000808585111561267b57600080fd5b8386111561268857600080fd5b5050820193919092039150565b6001600160e01b031981358181169160048510156126bd5780818660040360031b1b83161692505b505092915050565b600082601f8301126126d657600080fd5b813560206126e66121f483612453565b82815260059290921b8401810191818101908684111561270557600080fd5b8286015b848110156124f55780358352918301918301612709565b60008060006060848603121561273557600080fd5b833592506020840135915060408401356001600160401b0381111561275957600080fd5b612765868287016126c5565b9150509250925092565b634e487b7160e01b600052601160045260246000fd5b8082028115828204841417611c8557611c8561276f565b6000826127b957634e487b7160e01b600052601260045260246000fd5b500490565b600081518084526020808501945080840160005b838110156127ee578151875295820195908201906001016127d2565b509495945050505050565b83815282602082015260606040820152600061103560608301846127be565b6000806000806080858703121561282e57600080fd5b843561283981611e70565b9350602085013592506040850135915060608501356001600160401b0381111561286257600080fd5b612305878288016126c5565b60018060a01b038516815283602082015282604082015260806060820152600061289b60808301846127be565b9695505050505050565b6000806000808486036101408112156128bd57600080fd5b85356128c881611e70565b945060e0601f19820112156128dc57600080fd5b506128e5612111565b60208601356128f381611e70565b8152604086013561290381611e70565b6020820152606086013561291681611e70565b6040820152608086013561292981611e70565b606082015260a086810135608083015260c0808801359183019190915260e08701359082015292506101008501356001600160401b038082111561296c57600080fd5b612978888389016121d5565b935061012087013591508082111561298f57600080fd5b50612305878288016121d5565b600061014060018060a01b03808816845280875116602085015280602088015116604085015280604088015116606085015280606088015116608085015250608086015160a084015260a086015160c084015260c086015160e084015280610100840152612a0c8184018661209a565b9050828103610120840152611dc9818561209a565b8051611e9081611e70565b80516001600160401b0381168114611e9057600080fd5b805160ff81168114611e9057600080fd5b6000610100808385031215612a6857600080fd5b604051908101906001600160401b0382118183101715612a8a57612a8a6120fb565b8160405283519150612a9b82611e70565b818152612aaa60208501612a21565b6020820152612abb60408501612a21565b6040820152612acc60608501612a21565b60608201526080840151608082015260a084015160a0820152612af160c08501612a2c565b60c0820152612b0260e08501612a43565b60e0820152949350505050565b634e487b7160e01b600052603260045260246000fd5b600081518084526020808501808196508360051b8101915082860160005b85811015612b995782840389528151606060018060a01b03808351168752878301518289890152612b768389018261209a565b604094850151909216979093019690965250509784019790840190600101612b43565b5091979650505050505050565b602081528151151560208201526020820151604082015260018060a01b03604083015116606082015260608201516080820152608082015160a082015260a082015160c0820152600060c0830151612c0960e08401826001600160a01b03169052565b5060e083015161010083810152611cf1610120840182612b25565b838152826020820152606060408201526000611035606083018461209a565b600060208284031215612c5557600080fd5b5051919050565b801515811461153557600080fd5b8035611e9081612c5c565b600060208284031215612c8757600080fd5b81356001600160401b0380821115612c9e57600080fd5b908301906101008286031215612cb357600080fd5b612cbb612139565b612cc483612c6a565b815260208301356020820152612cdc60408401611e85565b6040820152606083013560608201526080830135608082015260a083013560a0820152612d0b60c08401611e85565b60c082015260e083013582811115612d2257600080fd5b612d2e87828601612476565b60e08301525095945050505050565b600060208284031215612d4f57600080fd5b815161071581612c5c565b60006020808385031215612d6d57600080fd5b82516001600160401b03811115612d8357600080fd5b8301601f81018513612d9457600080fd5b8051612da26121f482612453565b81815260069190911b82018301908381019087831115612dc157600080fd5b928401925b82841015611dc95760408489031215612ddf5760008081fd5b612de761215c565b8451612df281611e70565b81528486015186820152825260409093019290840190612dc6565b604081526000612e20604083018561209a565b90508260208301529392505050565b600060208284031215612e4157600080fd5b81516001600160401b03811115612e5757600080fd5b8201601f81018413612e6857600080fd5b8051612e766121f4826121ae565b818152856020838501011115612e8b57600080fd5b611035826020830160208601612076565b600061ffff808316818103612eb357612eb361276f565b6001019392505050565b81810381811115611c8557611c8561276f565b6001600160a01b0392831681529116602082015260400190565b6001600160a01b03929092168252602082015260400190565b60008251612f15818460208701612076565b9190910192915050565b6020808252602b908201527f496e697469616c697a61626c653a20636f6e7472616374206973206e6f74206960408201526a6e697469616c697a696e6760a81b60608201526080019056fea164736f6c6343000811000a",
  "devdoc": {
    "details": "See IArbitrageHelper interface for full details.",
    "kind": "dev",
    "methods": {
      "changeCalldataAmount(bytes,uint256)": {
        "params": {
          "data": "- calldata to edit",
          "newAmount": "- new amount that should replace amount in {data}"
        },
        "returns": {
          "_0": "edited calldata with new amount inside*"
        }
      },
      "constructor": {
        "custom:oz-upgrades-unsafe-allow": "constructor"
      },
      "owner()": {
        "details": "Returns the address of the current owner."
      },
      "renounceOwnership()": {
        "details": "Leaves the contract without owner. It will not be possible to call `onlyOwner` functions. Can only be called by the current owner. NOTE: Renouncing ownership will leave the contract without an owner, thereby disabling any functionality that is only available to the owner."
      },
      "stableunitFillOrderCallback(address,uint256,address,bytes)": {
        "details": "behaviour like in uniswapV3FlashCallback: https://docs.uniswap.org/contracts/v3/guides/flash-integrations/flash-callback and AAVE flash-loan callback: https://github.com/aave/aave-v3-core/blob/master/contracts/flashloan/interfaces/IFlashLoanSimpleReceiver.sol*"
      },
      "swapLPWithFlashLoan(uint256,uint256,uint256,uint256,(address,bytes,address)[])": {
        "details": "Contract receive LP-token from exchange module, unwrap it and swap with 1inch all underline tokens to token that exchange module need.- minProfitPercent must be > 0 and <= 10000 (100%)      - Transaction reverts if actual profit is less than minProfitPercent of the flash loan amount      - Higher minProfitPercent provides better protection against sandwich attacks        but may result in fewer successful arbitrages*",
        "params": {
          "inchData": "- 1inch callData and contract array to swap every underline token of LP",
          "minProfitPercent": "Minimum required profit in basis points (1 bp = 0.01%)",
          "minUnwrapSlippage": "Minimum slippage to unwrap LP, in basis points (1 bp = 0.01%)",
          "orderId": "- Id of order in Exchange module to fill",
          "token2sellAmount": "- Amount of token in order to get as flash-loan"
        }
      },
      "swapWithFlashLoan(uint256,uint256,uint256,(address,bytes,address))": {
        "details": "Contract receive loan from exchange module, sell it on 1inch and get profit = received amount - fee- minProfitPercent must be > 0 and <= 10000 (100%)      - Transaction reverts if actual profit is less than minProfitPercent of the flash loan amount      - Higher minProfitPercent provides better protection against sandwich attacks        but may result in fewer successful arbitrages*",
        "params": {
          "inchData": "- 1inch callData and contract to swap loan",
          "minProfitPercent": "Minimum required profit in basis points (1 bp = 0.01%)",
          "orderId": "- Id of order in Exchange module to fill",
          "token2sellAmount": "- Amount of token in order to get as flash-loan"
        }
      },
      "transferOwnership(address)": {
        "details": "Transfers ownership of the contract to a new account (`newOwner`). Can only be called by the current owner."
      }
    },
    "title": "ArbitrageHelper",
    "version": 1
  },
  "userdoc": {
    "kind": "user",
    "methods": {
      "approveToVeToken(uint256)": {
        "notice": "Before stake we need to approve veToken contract to use our Governance tokens*"
      },
      "changeCalldataAmount(bytes,uint256)": {
        "notice": "Helper function to change amount parameter on callback that depends on return by 1inch API calldata for swap. We also change minAmount proportionally to newAmount. Route path don't depend on that - this path was calculated previously in backend part and is stored in {data}."
      },
      "delegateVotingPower(address)": {
        "notice": "Delegate voting power to another contract or user*"
      },
      "emergencyWithdraw(address,address,uint256)": {
        "notice": "Emergency withdraw in case contract have some tokens, that can be transferred by default functions*"
      },
      "stableunitFillOrderCallback(address,uint256,address,bytes)": {
        "notice": "This is callback function from Exchange contract. fillOrderAsFlashLoan call (msg.sender).executeOperation(...) after transferring loan to sender"
      },
      "stakeTokens(uint256,uint256)": {
        "notice": "We stake Governance token from contract to receive voting power to make a contract be able to be a top-staker.*"
      },
      "subscribeInTopStaker()": {
        "notice": "Subscribe contract to be a staker in TopStaker contract*"
      },
      "swapLPWithFlashLoan(uint256,uint256,uint256,uint256,(address,bytes,address)[])": {
        "notice": "The same as swapWithFlashLoan, but loan is LP-token that we need to unwrap"
      },
      "swapWithFlashLoan(uint256,uint256,uint256,(address,bytes,address))": {
        "notice": "Reference implementation of Arbitrage bot contract, that use Exchange module to get profit"
      },
      "uniswapV3Swap(uint256,uint256,uint256[])": {
        "notice": "We need this functions to check their selector and functionSelector in calldata for changeCalldataAmount() function*"
      },
      "unsubscribeFromTopStaker()": {
        "notice": "Unsubscribe contract from stakers list in TopStaker contract*"
      }
    },
    "notice": "Helper contract to arbitrage using Exchange module. This is reference implementation that is enough to start arbitrage in Exchange Module. Anyone can update the code and deploy own ArbitrageHelper.",
    "version": 1
  },
  "storageLayout": {
    "storage": [
      {
        "astId": 1226,
        "contract": "contracts/stableunit-exchange/contracts/exchange/ArbitrageHelper.sol:ArbitrageHelper",
        "label": "_initialized",
        "offset": 0,
        "slot": "0",
        "type": "t_uint8"
      },
      {
        "astId": 1229,
        "contract": "contracts/stableunit-exchange/contracts/exchange/ArbitrageHelper.sol:ArbitrageHelper",
        "label": "_initializing",
        "offset": 1,
        "slot": "0",
        "type": "t_bool"
      },
      {
        "astId": 1931,
        "contract": "contracts/stableunit-exchange/contracts/exchange/ArbitrageHelper.sol:ArbitrageHelper",
        "label": "__gap",
        "offset": 0,
        "slot": "1",
        "type": "t_array(t_uint256)50_storage"
      },
      {
        "astId": 1098,
        "contract": "contracts/stableunit-exchange/contracts/exchange/ArbitrageHelper.sol:ArbitrageHelper",
        "label": "_owner",
        "offset": 0,
        "slot": "51",
        "type": "t_address"
      },
      {
        "astId": 1218,
        "contract": "contracts/stableunit-exchange/contracts/exchange/ArbitrageHelper.sol:ArbitrageHelper",
        "label": "__gap",
        "offset": 0,
        "slot": "52",
        "type": "t_array(t_uint256)49_storage"
      },
      {
        "astId": 1403,
        "contract": "contracts/stableunit-exchange/contracts/exchange/ArbitrageHelper.sol:ArbitrageHelper",
        "label": "_status",
        "offset": 0,
        "slot": "101",
        "type": "t_uint256"
      },
      {
        "astId": 1472,
        "contract": "contracts/stableunit-exchange/contracts/exchange/ArbitrageHelper.sol:ArbitrageHelper",
        "label": "__gap",
        "offset": 0,
        "slot": "102",
        "type": "t_array(t_uint256)49_storage"
      },
      {
        "astId": 15563,
        "contract": "contracts/stableunit-exchange/contracts/exchange/ArbitrageHelper.sol:ArbitrageHelper",
        "label": "EXCHANGE",
        "offset": 0,
        "slot": "151",
        "type": "t_contract(IExchange)20286"
      },
      {
        "astId": 15566,
        "contract": "contracts/stableunit-exchange/contracts/exchange/ArbitrageHelper.sol:ArbitrageHelper",
        "label": "GOV",
        "offset": 0,
        "slot": "152",
        "type": "t_contract(IERC20)4283"
      },
      {
        "astId": 15571,
        "contract": "contracts/stableunit-exchange/contracts/exchange/ArbitrageHelper.sol:ArbitrageHelper",
        "label": "lpToAdapter",
        "offset": 0,
        "slot": "153",
        "type": "t_mapping(t_address,t_contract(ILPAdapter)29307)"
      },
      {
        "astId": 15574,
        "contract": "contracts/stableunit-exchange/contracts/exchange/ArbitrageHelper.sol:ArbitrageHelper",
        "label": "VE_GOV",
        "offset": 0,
        "slot": "154",
        "type": "t_contract(IVotingEscrow)20504"
      },
      {
        "astId": 15577,
        "contract": "contracts/stableunit-exchange/contracts/exchange/ArbitrageHelper.sol:ArbitrageHelper",
        "label": "TOP_STAKERS",
        "offset": 0,
        "slot": "155",
        "type": "t_contract(ITopStakers)20440"
      },
      {
        "astId": 16322,
        "contract": "contracts/stableunit-exchange/contracts/exchange/ArbitrageHelper.sol:ArbitrageHelper",
        "label": "__gap",
        "offset": 0,
        "slot": "156",
        "type": "t_array(t_uint256)50_storage"
      }
    ],
    "types": {
      "t_address": {
        "encoding": "inplace",
        "label": "address",
        "numberOfBytes": "20"
      },
      "t_array(t_uint256)49_storage": {
        "base": "t_uint256",
        "encoding": "inplace",
        "label": "uint256[49]",
        "numberOfBytes": "1568"
      },
      "t_array(t_uint256)50_storage": {
        "base": "t_uint256",
        "encoding": "inplace",
        "label": "uint256[50]",
        "numberOfBytes": "1600"
      },
      "t_bool": {
        "encoding": "inplace",
        "label": "bool",
        "numberOfBytes": "1"
      },
      "t_contract(IERC20)4283": {
        "encoding": "inplace",
        "label": "contract IERC20",
        "numberOfBytes": "20"
      },
      "t_contract(IExchange)20286": {
        "encoding": "inplace",
        "label": "contract IExchange",
        "numberOfBytes": "20"
      },
      "t_contract(ILPAdapter)29307": {
        "encoding": "inplace",
        "label": "contract ILPAdapter",
        "numberOfBytes": "20"
      },
      "t_contract(ITopStakers)20440": {
        "encoding": "inplace",
        "label": "contract ITopStakers",
        "numberOfBytes": "20"
      },
      "t_contract(IVotingEscrow)20504": {
        "encoding": "inplace",
        "label": "contract IVotingEscrow",
        "numberOfBytes": "20"
      },
      "t_mapping(t_address,t_contract(ILPAdapter)29307)": {
        "encoding": "mapping",
        "key": "t_address",
        "label": "mapping(address => contract ILPAdapter)",
        "numberOfBytes": "32",
        "value": "t_contract(ILPAdapter)29307"
      },
      "t_uint256": {
        "encoding": "inplace",
        "label": "uint256",
        "numberOfBytes": "32"
      },
      "t_uint8": {
        "encoding": "inplace",
        "label": "uint8",
        "numberOfBytes": "1"
      }
    }
  }
}