{
  "address": "0x78F63E5deA3e28CF1622B7F222846B447ab51B3f",
  "abi": [
    {
      "inputs": [],
      "stateMutability": "nonpayable",
      "type": "constructor"
    },
    {
      "inputs": [],
      "name": "BadAccessControlSingleton",
      "type": "error"
    },
    {
      "inputs": [],
      "name": "BadLockupPeriod",
      "type": "error"
    },
    {
      "inputs": [],
      "name": "InvalidProxy",
      "type": "error"
    },
    {
      "inputs": [],
      "name": "InvalidProxyOwner",
      "type": "error"
    },
    {
      "inputs": [],
      "name": "OnlyAdminError",
      "type": "error"
    },
    {
      "inputs": [],
      "name": "OnlyAlerterError",
      "type": "error"
    },
    {
      "inputs": [],
      "name": "OnlyCDPAccessError",
      "type": "error"
    },
    {
      "inputs": [],
      "name": "OnlyDAOError",
      "type": "error"
    },
    {
      "inputs": [],
      "name": "OnlyDisablerAccessError",
      "type": "error"
    },
    {
      "inputs": [],
      "name": "OnlyLiquidationAccessError",
      "type": "error"
    },
    {
      "inputs": [],
      "name": "OnlyMintAccessError",
      "type": "error"
    },
    {
      "inputs": [],
      "name": "OnlyProxyActionsError",
      "type": "error"
    },
    {
      "inputs": [],
      "name": "OnlyRewardAccessError",
      "type": "error"
    },
    {
      "inputs": [],
      "name": "OnlyRoleError",
      "type": "error"
    },
    {
      "inputs": [],
      "name": "OnlyVaultAccessError",
      "type": "error"
    },
    {
      "inputs": [],
      "name": "OnlyVotingEscrowError",
      "type": "error"
    },
    {
      "anonymous": false,
      "inputs": [
        {
          "indexed": true,
          "internalType": "address",
          "name": "collateralType",
          "type": "address"
        },
        {
          "indexed": true,
          "internalType": "address",
          "name": "user",
          "type": "address"
        },
        {
          "indexed": false,
          "internalType": "uint256",
          "name": "amount",
          "type": "uint256"
        }
      ],
      "name": "DecreaseAmountFailed",
      "type": "event"
    },
    {
      "anonymous": false,
      "inputs": [],
      "name": "DisableContract",
      "type": "event"
    },
    {
      "anonymous": false,
      "inputs": [
        {
          "indexed": true,
          "internalType": "address",
          "name": "usr",
          "type": "address"
        },
        {
          "indexed": false,
          "internalType": "uint256",
          "name": "wad",
          "type": "uint256"
        }
      ],
      "name": "Exit",
      "type": "event"
    },
    {
      "anonymous": false,
      "inputs": [
        {
          "indexed": true,
          "internalType": "address",
          "name": "usr",
          "type": "address"
        },
        {
          "indexed": false,
          "internalType": "uint256",
          "name": "wad",
          "type": "uint256"
        }
      ],
      "name": "ExitNoReward",
      "type": "event"
    },
    {
      "anonymous": false,
      "inputs": [
        {
          "indexed": true,
          "internalType": "address",
          "name": "collateralType",
          "type": "address"
        },
        {
          "indexed": true,
          "internalType": "address",
          "name": "user",
          "type": "address"
        },
        {
          "indexed": false,
          "internalType": "uint256",
          "name": "amount",
          "type": "uint256"
        },
        {
          "indexed": false,
          "internalType": "uint256",
          "name": "lockupPeriodSeconds",
          "type": "uint256"
        }
      ],
      "name": "IncreaseAmountFailed",
      "type": "event"
    },
    {
      "anonymous": false,
      "inputs": [
        {
          "indexed": false,
          "internalType": "uint8",
          "name": "version",
          "type": "uint8"
        }
      ],
      "name": "Initialized",
      "type": "event"
    },
    {
      "anonymous": false,
      "inputs": [
        {
          "indexed": true,
          "internalType": "address",
          "name": "usr",
          "type": "address"
        },
        {
          "indexed": false,
          "internalType": "uint256",
          "name": "wad",
          "type": "uint256"
        }
      ],
      "name": "Join",
      "type": "event"
    },
    {
      "anonymous": false,
      "inputs": [
        {
          "indexed": true,
          "internalType": "address",
          "name": "usr",
          "type": "address"
        },
        {
          "indexed": false,
          "internalType": "uint256",
          "name": "wad",
          "type": "uint256"
        }
      ],
      "name": "JoinNoReward",
      "type": "event"
    },
    {
      "anonymous": false,
      "inputs": [],
      "name": "UpdateRewardChef",
      "type": "event"
    },
    {
      "inputs": [],
      "name": "ACCESS_CONTROL_SINGLETON",
      "outputs": [
        {
          "internalType": "contract ISuAccessControl",
          "name": "",
          "type": "address"
        }
      ],
      "stateMutability": "view",
      "type": "function"
    },
    {
      "inputs": [],
      "name": "ADMIN_ROLE",
      "outputs": [
        {
          "internalType": "bytes32",
          "name": "",
          "type": "bytes32"
        }
      ],
      "stateMutability": "view",
      "type": "function"
    },
    {
      "inputs": [],
      "name": "ALERTER_ROLE",
      "outputs": [
        {
          "internalType": "bytes32",
          "name": "",
          "type": "bytes32"
        }
      ],
      "stateMutability": "view",
      "type": "function"
    },
    {
      "inputs": [],
      "name": "CDP_ACCESS_ROLE",
      "outputs": [
        {
          "internalType": "bytes32",
          "name": "",
          "type": "bytes32"
        }
      ],
      "stateMutability": "view",
      "type": "function"
    },
    {
      "inputs": [],
      "name": "DAO_ROLE",
      "outputs": [
        {
          "internalType": "bytes32",
          "name": "",
          "type": "bytes32"
        }
      ],
      "stateMutability": "view",
      "type": "function"
    },
    {
      "inputs": [],
      "name": "DISABLER_ROLE",
      "outputs": [
        {
          "internalType": "bytes32",
          "name": "",
          "type": "bytes32"
        }
      ],
      "stateMutability": "view",
      "type": "function"
    },
    {
      "inputs": [],
      "name": "LIQUIDATION_ACCESS_ROLE",
      "outputs": [
        {
          "internalType": "bytes32",
          "name": "",
          "type": "bytes32"
        }
      ],
      "stateMutability": "view",
      "type": "function"
    },
    {
      "inputs": [],
      "name": "MINT_ACCESS_ROLE",
      "outputs": [
        {
          "internalType": "bytes32",
          "name": "",
          "type": "bytes32"
        }
      ],
      "stateMutability": "view",
      "type": "function"
    },
    {
      "inputs": [],
      "name": "PROXY_ACTIONS_ROLE",
      "outputs": [
        {
          "internalType": "bytes32",
          "name": "",
          "type": "bytes32"
        }
      ],
      "stateMutability": "view",
      "type": "function"
    },
    {
      "inputs": [],
      "name": "REWARD_ACCESS_ROLE",
      "outputs": [
        {
          "internalType": "bytes32",
          "name": "",
          "type": "bytes32"
        }
      ],
      "stateMutability": "view",
      "type": "function"
    },
    {
      "inputs": [],
      "name": "VOTING_ESCROW_ROLE",
      "outputs": [
        {
          "internalType": "bytes32",
          "name": "",
          "type": "bytes32"
        }
      ],
      "stateMutability": "view",
      "type": "function"
    },
    {
      "inputs": [
        {
          "internalType": "bytes32",
          "name": "",
          "type": "bytes32"
        }
      ],
      "name": "collateralAddress",
      "outputs": [
        {
          "internalType": "address",
          "name": "",
          "type": "address"
        }
      ],
      "stateMutability": "view",
      "type": "function"
    },
    {
      "inputs": [],
      "name": "contractEnabled",
      "outputs": [
        {
          "internalType": "uint256",
          "name": "",
          "type": "uint256"
        }
      ],
      "stateMutability": "view",
      "type": "function"
    },
    {
      "inputs": [],
      "name": "disableContract",
      "outputs": [],
      "stateMutability": "nonpayable",
      "type": "function"
    },
    {
      "inputs": [
        {
          "internalType": "bytes32",
          "name": "collateralType",
          "type": "bytes32"
        },
        {
          "internalType": "address",
          "name": "user",
          "type": "address"
        },
        {
          "internalType": "uint256",
          "name": "lockupPeriodSeconds",
          "type": "uint256"
        },
        {
          "internalType": "address",
          "name": "cdp",
          "type": "address"
        },
        {
          "internalType": "uint256",
          "name": "wad",
          "type": "uint256"
        }
      ],
      "name": "exit",
      "outputs": [],
      "stateMutability": "nonpayable",
      "type": "function"
    },
    {
      "inputs": [
        {
          "internalType": "address",
          "name": "cdp",
          "type": "address"
        },
        {
          "internalType": "uint256",
          "name": "wad",
          "type": "uint256"
        }
      ],
      "name": "exitNoReward",
      "outputs": [],
      "stateMutability": "nonpayable",
      "type": "function"
    },
    {
      "inputs": [
        {
          "internalType": "address",
          "name": "accessControlSingleton",
          "type": "address"
        },
        {
          "internalType": "address",
          "name": "safeEngine_",
          "type": "address"
        },
        {
          "internalType": "address",
          "name": "systemCoin_",
          "type": "address"
        }
      ],
      "name": "initialize",
      "outputs": [],
      "stateMutability": "nonpayable",
      "type": "function"
    },
    {
      "inputs": [
        {
          "internalType": "bytes32",
          "name": "_collateralType",
          "type": "bytes32"
        },
        {
          "internalType": "address",
          "name": "_collateralAddress",
          "type": "address"
        }
      ],
      "name": "initializeCollateralType",
      "outputs": [],
      "stateMutability": "nonpayable",
      "type": "function"
    },
    {
      "inputs": [
        {
          "internalType": "bytes32",
          "name": "collateralType",
          "type": "bytes32"
        },
        {
          "internalType": "address",
          "name": "user",
          "type": "address"
        },
        {
          "internalType": "address",
          "name": "cdp",
          "type": "address"
        },
        {
          "internalType": "uint256",
          "name": "wad",
          "type": "uint256"
        }
      ],
      "name": "join",
      "outputs": [],
      "stateMutability": "nonpayable",
      "type": "function"
    },
    {
      "inputs": [
        {
          "internalType": "address",
          "name": "cdp",
          "type": "address"
        },
        {
          "internalType": "uint256",
          "name": "wad",
          "type": "uint256"
        }
      ],
      "name": "joinNoReward",
      "outputs": [],
      "stateMutability": "nonpayable",
      "type": "function"
    },
    {
      "inputs": [],
      "name": "safeEngine",
      "outputs": [
        {
          "internalType": "contract ISafeEngine",
          "name": "",
          "type": "address"
        }
      ],
      "stateMutability": "view",
      "type": "function"
    },
    {
      "inputs": [
        {
          "internalType": "bytes4",
          "name": "interfaceId",
          "type": "bytes4"
        }
      ],
      "name": "supportsInterface",
      "outputs": [
        {
          "internalType": "bool",
          "name": "",
          "type": "bool"
        }
      ],
      "stateMutability": "view",
      "type": "function"
    },
    {
      "inputs": [],
      "name": "systemCoin",
      "outputs": [
        {
          "internalType": "contract ICoin",
          "name": "",
          "type": "address"
        }
      ],
      "stateMutability": "view",
      "type": "function"
    }
  ],
  "numDeployments": 1,
  "solcInputHash": "8c060bc8c39a7272c2849a174b3b4791",
  "bytecode": "0x608080604052346100c1576000549060ff8260081c1661006f575060ff80821603610034575b60405161110e90816100c78239f35b60ff90811916176000557f7f26b83ff96e1f2b6a682f133852f6798a09c465da95921460cefb3847402498602060405160ff8152a138610025565b62461bcd60e51b815260206004820152602760248201527f496e697469616c697a61626c653a20636f6e747261637420697320696e697469604482015266616c697a696e6760c81b6064820152608490fd5b600080fdfe6080604081815260048036101561001557600080fd5b600092833560e01c90816301ffc9a714610dd45750806303ee9f2214610da85780630a09b59114610d7657806312db6f5f14610c5e57806319b6fb0114610ab757806320d8a59f14610a0357806341b3a0d9146109e4578063438280dd146109a95780634ba95718146107e057806367aea313146107b757806371d0fb411461077c57806375b238fc14610761578063894ba8331461069a5780638e5313e01461065f578063a7e9445514610636578063b38234f3146105fb578063bd5f5be6146105c0578063c0c53b8b1461033e578063d0e8fa8214610303578063d2351cee146102da578063dc97e84e1461029f578063e9c26518146102645763ef32e6dc1461012057600080fd5b3461023a578160031936011261023a57610138610ea2565b906024359261014b60016036541461106d565b6033546001600160a01b03928691841661016487610ffe565b90803b15610260578451633beaf2b760e21b815291849183918290849082906101919030338b8501610fc1565b03925af180156102565790839161023e575b50508360345416803b1561023a5786839187836101d4958851968795869485936340c10f1960e01b85528401610fe3565b03925af1801561023057610214575b50505192835216907fb8c03d8cff6c18be1283cd376bee133c5f9370f38ef86d25777c1b8e5d6542ba90602090a280f35b61022090939293610ee4565b61022c579084386101e3565b8480fd5b83513d84823e3d90fd5b8280fd5b61024790610ee4565b6102525781386101a3565b5080fd5b84513d85823e3d90fd5b8380fd5b505034610252578160031936011261025257602090517f3b5d4cc60d3ec3516ee8ae083bd60934f6eb2a6c54b1229985c41bfb092b26038152f35b505034610252578160031936011261025257602090517f9a9aef7c1247d5fc769b0185c052913e39673da29a880317dfd20ebf86f26a498152f35b505034610252578160031936011261025257602090516000805160206110b98339815191528152f35b505034610252578160031936011261025257602090517f76d0567582f23e1e9d7a13eeba60f9aea9d69b8da87ca27a8bf3698b35c653db8152f35b503461023a57606036600319011261023a57610358610ea2565b91610361610eb8565b9161036a610ece565b9285549160ff8360081c1615928380946105b3575b801561059c575b156105425760ff198116600117885583610531575b5086549460ff8660081c16156104da5762010000600160b01b03601088901b1662010000600160b01b0319871681178955966001600160a01b03929083168015908115610466575b50610458575060016036558160018060a01b0319931683603354161760335516906034541617603455610414578380f35b610100600160b01b0319909116909117825551600181527f7f26b83ff96e1f2b6a682f133852f6798a09c465da95921460cefb384740249890602090a13880808380f35b85516384d942fd60e01b8152fd5b87516301ffc9a760e01b8152637965db0b60e01b848201529150602090829060249082905afa9081156104d0578a916104a2575b5015386103e3565b6104c3915060203d81116104c9575b6104bb8183610f28565b810190610f4b565b3861049a565b503d6104b1565b87513d8c823e3d90fd5b845162461bcd60e51b8152602081840152602b60248201527f496e697469616c697a61626c653a20636f6e7472616374206973206e6f74206960448201526a6e697469616c697a696e6760a81b6064820152608490fd5b61ffff19166101011787553861039b565b845162461bcd60e51b8152602081840152602e60248201527f496e697469616c697a61626c653a20636f6e747261637420697320616c72656160448201526d191e481a5b9a5d1a585b1a5e995960921b6064820152608490fd5b50303b1580156103865750600160ff821614610386565b50600160ff82161061037f565b505034610252578160031936011261025257602090517f4f14c8366fa999817edc9f29824eb88a00cc31225e2156f399da4bc91049eb108152f35b505034610252578160031936011261025257602090517fd83f5343da19b478b15a140c301a868be9e02603958f38fbd822b9d5c0a289168152f35b50503461025257816003193601126102525760345490516001600160a01b039091168152602090f35b505034610252578160031936011261025257602090517fe453bacb314e78dcd5192e6b1a2b1f0e7c76e92f6b7e429a6a90f04e39db3b768152f35b50903461023a578260031936011261023a5782548151632474521560e21b81526000805160206110b983398151915284820152336024820152906020908290604490829060101c6001600160a01b03165afa908115610757578491610739575b501561072c5782806036557f2d4b4ecff7bd7503135271925520a2f6c0d98c9473ffc1a1e72c92502f51b25e8180a180f35b5163bb0684b760e01b8152fd5b610751915060203d81116104c9576104bb8183610f28565b386106fa565b82513d86823e3d90fd5b50503461025257816003193601126102525751908152602090f35b505034610252578160031936011261025257602090517f880a91047114272656e533301261260c75e4d11543ac7303d6fe4204579ec7278152f35b50503461025257816003193601126102525760335490516001600160a01b039091168152602090f35b50903461023a5760a036600319011261023a576107fb610eb8565b6001600160a01b0360643581811694929392918582036109a45760843594333b1561099457878086516020810190638da5cb5b60e01b825287815261083f81610f0d565b519082335af161084d610f63565b90156109845782610868826020808495518301019101610fa2565b16911603610974579086929161088260016036541461106d565b806033541661089087610ffe565b90803b15610970578651633beaf2b760e21b815291869183918290849082906108bd9030338d8501610fc1565b03925af1801561096657908591610952575b50506034541691823b15610260576109009284928388938851968795869485936340c10f1960e01b85528401610fe3565b03925af180156102305761093e575b50507f22d324652c93739755cf4581508b60875ebdd78c20c0cff5cf8e23452b2996319160209151908152a280f35b61094790610ee4565b61026057833861090f565b61095b90610ee4565b6102605783386108cf565b86513d87823e3d90fd5b8580fd5b835163074b52c960e01b81528390fd5b8551632e7973df60e21b81528590fd5b8451632e7973df60e21b81528490fd5b600080fd5b505034610252578160031936011261025257602090517f39f61ca2a1a28fee144218173ec637b649a353e4026b2738c673800e5bf1437b8152f35b5050346102525781600319360112610252576020906036549051908152f35b503461023a578160031936011261023a57610a1c610eb8565b9160018060a01b03916044602084875460101c16845192838092632474521560e21b82528a878301523360248301525afa908115610aad578691610a8f575b5015610a81573584526035602052832080546001600160a01b0319169190921617905580f35b9051631886ea7d60e11b8152fd5b610aa7915060203d81116104c9576104bb8183610f28565b38610a5b565b83513d88823e3d90fd5b503461023a57608036600319011261023a57610ad1610eb8565b91610ada610ece565b9160643593333b15610c4f57858084516020810190638da5cb5b60e01b8252858152610b0581610f0d565b519082335af1610b13610f63565b9015610c3f5780516001600160a01b039493929185918291610b3d91810160209081019101610fa2565b16911603610c315785908360335416610b5587610ffe565b90803b15610260578451633beaf2b760e21b81529184918391829084908290610b82908d308b8501610fc1565b03925af1801561025657908391610c1d575b50508360345416803b1561023a57868391610bc593838751809681958294632770a7eb60e21b845233908401610fe3565b03925af1801561023057610c05575b50505192835216907fb4e09949657f21548b58afe74e7b86cd2295da5ff1598ae1e5faecb1cf19ca9590602090a280f35b610c1190939293610ee4565b61022c57908438610bd4565b610c2690610ee4565b610252578138610b94565b905163074b52c960e01b8152fd5b8351632e7973df60e21b81528390fd5b509051632e7973df60e21b8152fd5b503461023a578160031936011261023a57610c77610ea2565b6033546024359391926001600160a01b03929186908416610c9787610ffe565b813b1561023a578291610cc0918651948580948193633beaf2b760e21b83528c308b8501610fc1565b03925af18015610d6c57610d59575b5085908360345416803b1561023a57868391610d0193838751809681958294632770a7eb60e21b845233908401610fe3565b03925af1801561023057610d41575b50505192835216907f0df2be71fcb03c1f59e496559e59727ef26ff117e1f022aa699bb79afdb4c55090602090a280f35b610d4d90939293610ee4565b61022c57908438610d10565b610d6590969196610ee4565b9438610ccf565b83513d89823e3d90fd5b503461023a57602036600319011261023a5735825260356020908152918190205490516001600160a01b039091168152f35b5050346102525781600319360112610252579054905160109190911c6001600160a01b03168152602090f35b84939150346102605760203660031901126102605782359263ffffffff60e01b841680940361022c5763028c7c4560e41b8414938415610e91575b8415610e22575b60208585519015158152f35b85546301ffc9a760e01b845291830152919250906020908290602490829060101c6001600160a01b03165afa908115610e855760209391610e68575b5090838080610e16565b610e7f9150833d81116104c9576104bb8183610f28565b83610e5e565b505051903d90823e3d90fd5b6301ffc9a760e01b81149450610e0f565b600435906001600160a01b03821682036109a457565b602435906001600160a01b03821682036109a457565b604435906001600160a01b03821682036109a457565b6001600160401b038111610ef757604052565b634e487b7160e01b600052604160045260246000fd5b604081019081106001600160401b03821117610ef757604052565b601f909101601f19168101906001600160401b03821190821017610ef757604052565b908160209103126109a4575180151581036109a45790565b3d15610f9d573d906001600160401b038211610ef75760405191610f91601f8201601f191660200184610f28565b82523d6000602084013e565b606090565b908160209103126109a457516001600160a01b03811681036109a45790565b6001600160a01b03918216815291166020820152604081019190915260600190565b6001600160a01b039091168152602081019190915260400190565b90600091600090801590811561101b575b50156110185750565b80fd5b909350676765c793fa10079d601b1b9081810282810482036110595780956110455704143861100f565b634e487b7160e01b84526012600452602484fd5b634e487b7160e01b84526011600452602484fd5b1561107457565b60405162461bcd60e51b815260206004820152601c60248201527b10dbda5b929bda5b8bdb9bdd0b58dbdb9d1c9858dd115b98589b195960221b6044820152606490fdfeb0fdd1623e42dbffda4acd8bd643e1cb69f00f0e83abeaa8150ee42cf0fd105ea264697066735822122070d5a69305b1a1cf623126e85b2f618dc121b982319f389c647c3caca155ec3764736f6c63430008110033",
  "devdoc": {
    "custom:changes": "Split from MakerDAOs join.sol and renamed to CoinJoin.sol. Replaced authorizedAccounts with                 SuAuthenticated. Commented out RewardChef integration. Added collateral type mapping.",
    "custom:events": "Emits `Join`, `JoinNoReward`, `Exit`, `ExitNoReward`, `DisableContract`, and commented-out                 `DecreaseAmountFailed`, `IncreaseAmountFailed`, `UpdateRewardChef` for operations and errors.",
    "custom:security": "Only authorized accounts (Admin, DisablerAccess, ProxyOwner) can call state-changing functions.                 Token transfers require user approval, and SafeEngine enforces balance updates. Reward system integration                 is commented out, reducing external dependencies.",
    "custom:usage": "- **Initialization**: Deploy with access control, SafeEngine, and StablePro token addresses.   ```solidity   CoinJoin coinJoin = new CoinJoin(accessControl, safeEngine, stablePro);   ``` - **Deposit StablePro**: Join external StablePro tokens into a Safe.   ```solidity   coinJoin.join(collateralType, user, cdp, amount);   ``` - **Withdraw StablePro**: Exit internal StablePro coins to external tokens.   ```solidity   coinJoin.exit(collateralType, user, lockupPeriod, cdp, amount);   ``` - **No-Reward Operations**: Join or exit without reward system interaction.   ```solidity   coinJoin.joinNoReward(cdp, amount);   coinJoin.exitNoReward(cdp, amount);   ``` - **Disabling**: Disable the contract to halt operations.   ```solidity   coinJoin.disableContract();   ```",
    "details": "Bridges SafeEngines internal RAD-precision coins with external WAD-precision StablePro tokens, handling minting,      burning, and reward system integration (commented out). Supports collateral type mapping for reward tracking.      This contract is a fork of MakerDAOs join.sol, split and renamed for clarity, with SuAuthenticated access control.",
    "kind": "dev",
    "methods": {
      "constructor": {
        "custom:oz-upgrades-unsafe-allow": "constructor"
      },
      "disableContract()": {
        "details": "Sets `contractEnabled` to 0 and emits an event. Only callable by DisablerAccess."
      },
      "exit(bytes32,address,uint256,address,uint256)": {
        "details": "Transfers internal coins to this contract, mints external tokens, and updates rewards (commented out).      Requires ProxyOwner authorization and contract to be enabled.",
        "params": {
          "cdp": "Address to receive the external StablePro tokens.",
          "collateralType": "Type of collateral associated with the operation.",
          "lockupPeriodSeconds": "Lockup period for reward system integration (if enabled).",
          "user": "Address of the user performing the exit operation.",
          "wad": "Amount of internal coins to convert [wad, 18 decimals]."
        }
      },
      "exitNoReward(address,uint256)": {
        "details": "Transfers internal coins to this contract and mints external tokens. Requires contract to be enabled.",
        "params": {
          "cdp": "Address to receive the external StablePro tokens.",
          "wad": "Amount of internal coins to convert [wad, 18 decimals]."
        }
      },
      "initialize(address,address,address)": {
        "details": "Sets up references, enables the contract, and initializes commented-out RewardChef (if applicable).",
        "params": {
          "accessControlSingleton": "Address of the access control singleton.",
          "safeEngine_": "Address of the SafeEngine contract.",
          "systemCoin_": "Address of the external StablePro token contract."
        }
      },
      "initializeCollateralType(bytes32,address)": {
        "details": "Maps the collateral type to its address for reward tracking (if enabled). Only callable by Admin.",
        "params": {
          "_collateralAddress": "Contract address of the collateral token.",
          "_collateralType": "Unique identifier for the collateral type."
        }
      },
      "join(bytes32,address,address,uint256)": {
        "details": "Burns external tokens, transfers internal coins to the Safe, and updates rewards (commented out).      Requires ProxyOwner authorization for the user.",
        "params": {
          "cdp": "Address to receive the internal coins (Safe handler).",
          "collateralType": "Type of collateral associated with the operation.",
          "user": "Address of the user performing the join operation.",
          "wad": "Amount of external StablePro to convert [wad, 18 decimals]."
        }
      },
      "joinNoReward(address,uint256)": {
        "details": "Burns external tokens and transfers internal coins to the Safe.",
        "params": {
          "cdp": "Address to receive the internal coins (Safe handler).",
          "wad": "Amount of external StablePro to convert [wad, 18 decimals]."
        }
      },
      "supportsInterface(bytes4)": {
        "details": "Verifies support for ICoinJoin, IERC165Upgradeable, or access control interfaces.",
        "params": {
          "interfaceId": "Interface identifier to check."
        },
        "returns": {
          "_0": "True if the interface is supported, false otherwise."
        }
      }
    },
    "title": "CoinJoin",
    "version": 1
  },
  "userdoc": {
    "kind": "user",
    "methods": {
      "collateralAddress(bytes32)": {
        "notice": "Maps collateral type identifiers to their corresponding token contract addresses."
      },
      "contractEnabled()": {
        "notice": "Contract operational status flag (1 = enabled, 0 = disabled)."
      },
      "disableContract()": {
        "notice": "Disables the contract, halting further operations."
      },
      "exit(bytes32,address,uint256,address,uint256)": {
        "notice": "Converts internal SafeEngine coins to external StablePro tokens with reward adjustments."
      },
      "exitNoReward(address,uint256)": {
        "notice": "Converts internal SafeEngine coins to external StablePro tokens without reward interaction."
      },
      "initialize(address,address,address)": {
        "notice": "Initializes the CoinJoin contract with required parameters."
      },
      "initializeCollateralType(bytes32,address)": {
        "notice": "Associates a collateral type with its token contract address."
      },
      "join(bytes32,address,address,uint256)": {
        "notice": "Converts external StablePro tokens to internal SafeEngine coins with reward adjustments."
      },
      "joinNoReward(address,uint256)": {
        "notice": "Converts external StablePro tokens to internal SafeEngine coins without reward interaction."
      },
      "safeEngine()": {
        "notice": "Reference to the SafeEngine contract for internal coin operations."
      },
      "supportsInterface(bytes4)": {
        "notice": "Checks if the contract supports a specific interface."
      },
      "systemCoin()": {
        "notice": "External ERC20 representation of the system coin (StablePro)."
      }
    },
    "notice": "Adapter contract for converting between internal StablePro coins (SafeEngine) and external ERC20 tokens in the StableUnit protocol.",
    "version": 1
  },
  "storageLayout": {
    "storage": [
      {
        "astId": 1226,
        "contract": "contracts/makerdao/core/adapters/CoinJoin.sol:CoinJoin",
        "label": "_initialized",
        "offset": 0,
        "slot": "0",
        "type": "t_uint8"
      },
      {
        "astId": 1229,
        "contract": "contracts/makerdao/core/adapters/CoinJoin.sol:CoinJoin",
        "label": "_initializing",
        "offset": 1,
        "slot": "0",
        "type": "t_bool"
      },
      {
        "astId": 24747,
        "contract": "contracts/makerdao/core/adapters/CoinJoin.sol:CoinJoin",
        "label": "ACCESS_CONTROL_SINGLETON",
        "offset": 2,
        "slot": "0",
        "type": "t_contract(ISuAccessControl)31989"
      },
      {
        "astId": 25018,
        "contract": "contracts/makerdao/core/adapters/CoinJoin.sol:CoinJoin",
        "label": "__gap",
        "offset": 0,
        "slot": "1",
        "type": "t_array(t_uint256)50_storage"
      },
      {
        "astId": 48806,
        "contract": "contracts/makerdao/core/adapters/CoinJoin.sol:CoinJoin",
        "label": "safeEngine",
        "offset": 0,
        "slot": "51",
        "type": "t_contract(ISafeEngine)53684"
      },
      {
        "astId": 48810,
        "contract": "contracts/makerdao/core/adapters/CoinJoin.sol:CoinJoin",
        "label": "systemCoin",
        "offset": 0,
        "slot": "52",
        "type": "t_contract(ICoin)52954"
      },
      {
        "astId": 48815,
        "contract": "contracts/makerdao/core/adapters/CoinJoin.sol:CoinJoin",
        "label": "collateralAddress",
        "offset": 0,
        "slot": "53",
        "type": "t_mapping(t_bytes32,t_address)"
      },
      {
        "astId": 48859,
        "contract": "contracts/makerdao/core/adapters/CoinJoin.sol:CoinJoin",
        "label": "contractEnabled",
        "offset": 0,
        "slot": "54",
        "type": "t_uint256"
      }
    ],
    "types": {
      "t_address": {
        "encoding": "inplace",
        "label": "address",
        "numberOfBytes": "20"
      },
      "t_array(t_uint256)50_storage": {
        "base": "t_uint256",
        "encoding": "inplace",
        "label": "uint256[50]",
        "numberOfBytes": "1600"
      },
      "t_bool": {
        "encoding": "inplace",
        "label": "bool",
        "numberOfBytes": "1"
      },
      "t_bytes32": {
        "encoding": "inplace",
        "label": "bytes32",
        "numberOfBytes": "32"
      },
      "t_contract(ICoin)52954": {
        "encoding": "inplace",
        "label": "contract ICoin",
        "numberOfBytes": "20"
      },
      "t_contract(ISafeEngine)53684": {
        "encoding": "inplace",
        "label": "contract ISafeEngine",
        "numberOfBytes": "20"
      },
      "t_contract(ISuAccessControl)31989": {
        "encoding": "inplace",
        "label": "contract ISuAccessControl",
        "numberOfBytes": "20"
      },
      "t_mapping(t_bytes32,t_address)": {
        "encoding": "mapping",
        "key": "t_bytes32",
        "label": "mapping(bytes32 => address)",
        "numberOfBytes": "32",
        "value": "t_address"
      },
      "t_uint256": {
        "encoding": "inplace",
        "label": "uint256",
        "numberOfBytes": "32"
      },
      "t_uint8": {
        "encoding": "inplace",
        "label": "uint8",
        "numberOfBytes": "1"
      }
    }
  }
}