{
  "address": "0x5eBD9B869Ee3bEa3A9DEAB847804e29074C4F0F0",
  "abi": [
    {
      "inputs": [],
      "stateMutability": "nonpayable",
      "type": "constructor"
    },
    {
      "inputs": [],
      "name": "BadAccessControlSingleton",
      "type": "error"
    },
    {
      "inputs": [],
      "name": "OnlyAdminError",
      "type": "error"
    },
    {
      "inputs": [],
      "name": "OnlyAlerterError",
      "type": "error"
    },
    {
      "inputs": [],
      "name": "OnlyCDPAccessError",
      "type": "error"
    },
    {
      "inputs": [],
      "name": "OnlyDAOError",
      "type": "error"
    },
    {
      "inputs": [],
      "name": "OnlyDisablerAccessError",
      "type": "error"
    },
    {
      "inputs": [],
      "name": "OnlyLiquidationAccessError",
      "type": "error"
    },
    {
      "inputs": [],
      "name": "OnlyMintAccessError",
      "type": "error"
    },
    {
      "inputs": [],
      "name": "OnlyProxyActionsError",
      "type": "error"
    },
    {
      "inputs": [],
      "name": "OnlyRewardAccessError",
      "type": "error"
    },
    {
      "inputs": [],
      "name": "OnlyRoleError",
      "type": "error"
    },
    {
      "inputs": [],
      "name": "OnlyVaultAccessError",
      "type": "error"
    },
    {
      "inputs": [],
      "name": "OnlyVotingEscrowError",
      "type": "error"
    },
    {
      "inputs": [],
      "name": "onlyAuctionAccessRole",
      "type": "error"
    },
    {
      "anonymous": false,
      "inputs": [],
      "name": "DisableContract",
      "type": "event"
    },
    {
      "anonymous": false,
      "inputs": [
        {
          "indexed": true,
          "internalType": "address",
          "name": "usr",
          "type": "address"
        },
        {
          "indexed": false,
          "internalType": "uint256",
          "name": "wad",
          "type": "uint256"
        }
      ],
      "name": "Exit",
      "type": "event"
    },
    {
      "anonymous": false,
      "inputs": [
        {
          "indexed": false,
          "internalType": "uint8",
          "name": "version",
          "type": "uint8"
        }
      ],
      "name": "Initialized",
      "type": "event"
    },
    {
      "anonymous": false,
      "inputs": [
        {
          "indexed": true,
          "internalType": "address",
          "name": "usr",
          "type": "address"
        },
        {
          "indexed": false,
          "internalType": "uint256",
          "name": "wad",
          "type": "uint256"
        }
      ],
      "name": "Join",
      "type": "event"
    },
    {
      "inputs": [],
      "name": "ACCESS_CONTROL_SINGLETON",
      "outputs": [
        {
          "internalType": "contract ISuAccessControl",
          "name": "",
          "type": "address"
        }
      ],
      "stateMutability": "view",
      "type": "function"
    },
    {
      "inputs": [],
      "name": "ADMIN_ROLE",
      "outputs": [
        {
          "internalType": "bytes32",
          "name": "",
          "type": "bytes32"
        }
      ],
      "stateMutability": "view",
      "type": "function"
    },
    {
      "inputs": [],
      "name": "ALERTER_ROLE",
      "outputs": [
        {
          "internalType": "bytes32",
          "name": "",
          "type": "bytes32"
        }
      ],
      "stateMutability": "view",
      "type": "function"
    },
    {
      "inputs": [],
      "name": "AUCTION_ACCESS_ROLE",
      "outputs": [
        {
          "internalType": "bytes32",
          "name": "",
          "type": "bytes32"
        }
      ],
      "stateMutability": "view",
      "type": "function"
    },
    {
      "inputs": [],
      "name": "CDP_ACCESS_ROLE",
      "outputs": [
        {
          "internalType": "bytes32",
          "name": "",
          "type": "bytes32"
        }
      ],
      "stateMutability": "view",
      "type": "function"
    },
    {
      "inputs": [],
      "name": "DAO_ROLE",
      "outputs": [
        {
          "internalType": "bytes32",
          "name": "",
          "type": "bytes32"
        }
      ],
      "stateMutability": "view",
      "type": "function"
    },
    {
      "inputs": [],
      "name": "DISABLER_ROLE",
      "outputs": [
        {
          "internalType": "bytes32",
          "name": "",
          "type": "bytes32"
        }
      ],
      "stateMutability": "view",
      "type": "function"
    },
    {
      "inputs": [],
      "name": "LIQUIDATION_ACCESS_ROLE",
      "outputs": [
        {
          "internalType": "bytes32",
          "name": "",
          "type": "bytes32"
        }
      ],
      "stateMutability": "view",
      "type": "function"
    },
    {
      "inputs": [],
      "name": "MINT_ACCESS_ROLE",
      "outputs": [
        {
          "internalType": "bytes32",
          "name": "",
          "type": "bytes32"
        }
      ],
      "stateMutability": "view",
      "type": "function"
    },
    {
      "inputs": [],
      "name": "PROXY_ACTIONS_ROLE",
      "outputs": [
        {
          "internalType": "bytes32",
          "name": "",
          "type": "bytes32"
        }
      ],
      "stateMutability": "view",
      "type": "function"
    },
    {
      "inputs": [],
      "name": "REWARD_ACCESS_ROLE",
      "outputs": [
        {
          "internalType": "bytes32",
          "name": "",
          "type": "bytes32"
        }
      ],
      "stateMutability": "view",
      "type": "function"
    },
    {
      "inputs": [],
      "name": "VOTING_ESCROW_ROLE",
      "outputs": [
        {
          "internalType": "bytes32",
          "name": "",
          "type": "bytes32"
        }
      ],
      "stateMutability": "view",
      "type": "function"
    },
    {
      "inputs": [],
      "name": "collateral",
      "outputs": [
        {
          "internalType": "contract IERC20Metadata",
          "name": "",
          "type": "address"
        }
      ],
      "stateMutability": "view",
      "type": "function"
    },
    {
      "inputs": [],
      "name": "collateralType",
      "outputs": [
        {
          "internalType": "bytes32",
          "name": "",
          "type": "bytes32"
        }
      ],
      "stateMutability": "view",
      "type": "function"
    },
    {
      "inputs": [],
      "name": "contractEnabled",
      "outputs": [
        {
          "internalType": "uint256",
          "name": "",
          "type": "uint256"
        }
      ],
      "stateMutability": "view",
      "type": "function"
    },
    {
      "inputs": [],
      "name": "decimals",
      "outputs": [
        {
          "internalType": "uint256",
          "name": "",
          "type": "uint256"
        }
      ],
      "stateMutability": "view",
      "type": "function"
    },
    {
      "inputs": [],
      "name": "disableContract",
      "outputs": [],
      "stateMutability": "nonpayable",
      "type": "function"
    },
    {
      "inputs": [
        {
          "internalType": "address",
          "name": "usr",
          "type": "address"
        },
        {
          "internalType": "uint256",
          "name": "amt",
          "type": "uint256"
        }
      ],
      "name": "exit",
      "outputs": [],
      "stateMutability": "nonpayable",
      "type": "function"
    },
    {
      "inputs": [
        {
          "internalType": "address",
          "name": "accessControlSingleton",
          "type": "address"
        },
        {
          "internalType": "address",
          "name": "safeEngine_",
          "type": "address"
        },
        {
          "internalType": "bytes32",
          "name": "collateralType_",
          "type": "bytes32"
        },
        {
          "internalType": "address",
          "name": "collateral_",
          "type": "address"
        }
      ],
      "name": "initialize",
      "outputs": [],
      "stateMutability": "nonpayable",
      "type": "function"
    },
    {
      "inputs": [
        {
          "internalType": "address",
          "name": "usr",
          "type": "address"
        },
        {
          "internalType": "uint256",
          "name": "amt",
          "type": "uint256"
        }
      ],
      "name": "join",
      "outputs": [],
      "stateMutability": "nonpayable",
      "type": "function"
    },
    {
      "inputs": [],
      "name": "safeEngine",
      "outputs": [
        {
          "internalType": "contract ISafeEngine",
          "name": "",
          "type": "address"
        }
      ],
      "stateMutability": "view",
      "type": "function"
    },
    {
      "inputs": [
        {
          "internalType": "bytes4",
          "name": "interfaceId",
          "type": "bytes4"
        }
      ],
      "name": "supportsInterface",
      "outputs": [
        {
          "internalType": "bool",
          "name": "",
          "type": "bool"
        }
      ],
      "stateMutability": "view",
      "type": "function"
    }
  ],
  "numDeployments": 1,
  "solcInputHash": "8f84b6f1e4072e92a972e80f9a9e23c6",
  "bytecode": "0x608060405234801561001057600080fd5b5061001961001e565b6100dd565b600054610100900460ff161561008a5760405162461bcd60e51b815260206004820152602760248201527f496e697469616c697a61626c653a20636f6e747261637420697320696e697469604482015266616c697a696e6760c81b606482015260840160405180910390fd5b60005460ff908116146100db576000805460ff191660ff9081179091556040519081527f7f26b83ff96e1f2b6a682f133852f6798a09c465da95921460cefb38474024989060200160405180910390a15b565b610e4c806100ec6000396000f3fe608060405234801561001057600080fd5b50600436106101125760003560e01c806301ffc9a71461011757806303ee9f221461013f578063313ce56714610170578063340517c9146101875780633b4da69f146101ae57806341b3a0d9146101c3578063438280dd146101cc57806367aea313146101f357806371d0fb411461020657806375b238fc1461022d578063894ba833146102355780638e5313e01461023d578063a31ee5b014610264578063b38234f314610277578063bd5f5be61461029e578063d0e8fa82146102c5578063d2351cee146102ec578063d8dfeb4514610301578063dc97e84e14610314578063e824600f1461033b578063e9c2651814610344578063ef693bed1461036b575b600080fd5b61012a610125366004610b2e565b61037e565b60405190151581526020015b60405180910390f35b600054610158906201000090046001600160a01b031681565b6040516001600160a01b039091168152602001610136565b61017960365481565b604051908152602001610136565b6101797f014f8da3222812608c449a44f4705585c5ce052eeb6f9af0af9209c64b0ba2de81565b6101c16101bc366004610b7b565b6103fb565b005b61017960375481565b6101797f39f61ca2a1a28fee144218173ec637b649a353e4026b2738c673800e5bf1437b81565b603354610158906001600160a01b031681565b6101797f880a91047114272656e533301261260c75e4d11543ac7303d6fe4204579ec72781565b610179600081565b6101c16105ec565b6101797fe453bacb314e78dcd5192e6b1a2b1f0e7c76e92f6b7e429a6a90f04e39db3b7681565b6101c1610272366004610ba5565b6106be565b6101797fd83f5343da19b478b15a140c301a868be9e02603958f38fbd822b9d5c0a2891681565b6101797f4f14c8366fa999817edc9f29824eb88a00cc31225e2156f399da4bc91049eb1081565b6101797f76d0567582f23e1e9d7a13eeba60f9aea9d69b8da87ca27a8bf3698b35c653db81565b610179600080516020610e2083398151915281565b603554610158906001600160a01b031681565b6101797f9a9aef7c1247d5fc769b0185c052913e39673da29a880317dfd20ebf86f26a4981565b61017960345481565b6101797f3b5d4cc60d3ec3516ee8ae083bd60934f6eb2a6c54b1229985c41bfb092b260381565b6101c1610379366004610b7b565b610871565b600080546040516301ffc9a760e01b8152620100009091046001600160a01b0316906301ffc9a7906103b4908590600401610bf2565b602060405180830381865afa1580156103d1573d6000803e3d6000fd5b505050506040513d601f19601f820116820180604052508101906103f59190610c07565b92915050565b60375460011461045d5760405162461bcd60e51b815260206004820152602260248201527f436f6c6c61746572616c4a6f696e2f6e6f742d636f6e7472616374456e61626c604482015261195960f21b60648201526084015b60405180910390fd5b6000603654601261046e9190610c3f565b61047990600a610d36565b6104839083610d42565b905060008112156104a65760405162461bcd60e51b815260040161045490610d59565b603354603454604051632508c12f60e11b81526001600160a01b0390921691634a11825e916104db9187908690600401610d8a565b600060405180830381600087803b1580156104f557600080fd5b505af1158015610509573d6000803e3d6000fd5b50506035546040516323b872dd60e01b8152336004820152306024820152604481018690526001600160a01b0390911692506323b872dd91506064016020604051808303816000875af1158015610564573d6000803e3d6000fd5b505050506040513d601f19601f820116820180604052508101906105889190610c07565b6105a45760405162461bcd60e51b815260040161045490610da9565b826001600160a01b03167fb4e09949657f21548b58afe74e7b86cd2295da5ff1598ae1e5faecb1cf19ca95836040516105df91815260200190565b60405180910390a2505050565b600054604051632474521560e21b8152600080516020610e208339815191526004820152336024820152620100009091046001600160a01b0316906391d1485490604401602060405180830381865afa15801561064d573d6000803e3d6000fd5b505050506040513d601f19601f820116820180604052508101906106719190610c07565b61068e5760405163bb0684b760e01b815260040160405180910390fd5b600060378190556040517f2d4b4ecff7bd7503135271925520a2f6c0d98c9473ffc1a1e72c92502f51b25e9190a1565b600054610100900460ff16158080156106de5750600054600160ff909116105b806106f85750303b1580156106f8575060005460ff166001145b61075b5760405162461bcd60e51b815260206004820152602e60248201527f496e697469616c697a61626c653a20636f6e747261637420697320616c72656160448201526d191e481a5b9a5d1a585b1a5e995960921b6064820152608401610454565b6000805460ff19166001179055801561077e576000805461ff0019166101001790555b610787856109fd565b6001603755603380546001600160a01b038087166001600160a01b03199283161790925560348590556035805492851692909116821790556040805163313ce56760e01b8152905163313ce567916004818101926020929091908290030181865afa1580156107fa573d6000803e3d6000fd5b505050506040513d601f19601f8201168201806040525081019061081e9190610de0565b60ff16603655801561086a576000805461ff0019169055604051600181527f7f26b83ff96e1f2b6a682f133852f6798a09c465da95921460cefb38474024989060200160405180910390a15b5050505050565b600060365460126108829190610c3f565b61088d90600a610d36565b6108979083610d42565b9050600160ff1b8111156108bd5760405162461bcd60e51b815260040161045490610d59565b6033546034546001600160a01b0390911690634a11825e90336108df85610e03565b6040518463ffffffff1660e01b81526004016108fd93929190610d8a565b600060405180830381600087803b15801561091757600080fd5b505af115801561092b573d6000803e3d6000fd5b505060355460405163a9059cbb60e01b81526001600160a01b03878116600483015260248201879052909116925063a9059cbb91506044016020604051808303816000875af1158015610982573d6000803e3d6000fd5b505050506040513d601f19601f820116820180604052508101906109a69190610c07565b6109c25760405162461bcd60e51b815260040161045490610da9565b826001600160a01b03167f22d324652c93739755cf4581508b60875ebdd78c20c0cff5cf8e23452b299631836040516105df91815260200190565b600054610100900460ff16610a685760405162461bcd60e51b815260206004820152602b60248201527f496e697469616c697a61626c653a20636f6e7472616374206973206e6f74206960448201526a6e697469616c697a696e6760a81b6064820152608401610454565b6000805462010000600160b01b031916620100006001600160a01b038416908102919091179091551580610b0d57506040516301ffc9a760e01b81526001600160a01b038216906301ffc9a790610aca90637965db0b60e01b90600401610bf2565b602060405180830381865afa158015610ae7573d6000803e3d6000fd5b505050506040513d601f19601f82011682018060405250810190610b0b9190610c07565b155b15610b2b576040516384d942fd60e01b815260040160405180910390fd5b50565b600060208284031215610b4057600080fd5b81356001600160e01b031981168114610b5857600080fd5b9392505050565b80356001600160a01b0381168114610b7657600080fd5b919050565b60008060408385031215610b8e57600080fd5b610b9783610b5f565b946020939093013593505050565b60008060008060808587031215610bbb57600080fd5b610bc485610b5f565b9350610bd260208601610b5f565b925060408501359150610be760608601610b5f565b905092959194509250565b6001600160e01b031991909116815260200190565b600060208284031215610c1957600080fd5b81518015158114610b5857600080fd5b634e487b7160e01b600052601160045260246000fd5b818103818111156103f5576103f5610c29565b600181815b80851115610c8d578160001904821115610c7357610c73610c29565b80851615610c8057918102915b93841c9390800290610c57565b509250929050565b600082610ca4575060016103f5565b81610cb1575060006103f5565b8160018114610cc75760028114610cd157610ced565b60019150506103f5565b60ff841115610ce257610ce2610c29565b50506001821b6103f5565b5060208310610133831016604e8410600b8410161715610d10575081810a6103f5565b610d1a8383610c52565b8060001904821115610d2e57610d2e610c29565b029392505050565b6000610b588383610c95565b80820281158282048414176103f5576103f5610c29565b602080825260179082015276436f6c6c61746572616c4a6f696e2f6f766572666c6f7760481b604082015260600190565b9283526001600160a01b03919091166020830152604082015260600190565b6020808252601e908201527f436f6c6c61746572616c4a6f696e2f6661696c65642d7472616e736665720000604082015260600190565b600060208284031215610df257600080fd5b815160ff81168114610b5857600080fd5b6000600160ff1b8201610e1857610e18610c29565b506000039056feb0fdd1623e42dbffda4acd8bd643e1cb69f00f0e83abeaa8150ee42cf0fd105ea164736f6c6343000811000a",
  "devdoc": {
    "custom:changes": "Renamed from GemJoin5.sol to CollateralJoinDecimals.sol. Added `Join` and `Exit` events. Replaced                 MakerDAOs authorizedAccounts with SuAuthenticated for access control.",
    "custom:events": "Emits `Join`, `Exit`, and `DisableContract` for state changes and operations.",
    "custom:security": "Only authorized accounts (DisablerAccess) can disable the contract. Token transfers require user                 approval, and SafeEngine enforces balance updates. The contract adjusts amounts for tokens with                 decimals less than 18.",
    "custom:usage": "- **Initialization**: Deploy with access control, SafeEngine, collateral type, and collateral token addresses.   ```solidity   CollateralJoinDecimals collateralJoin = new CollateralJoinDecimals(accessControl, safeEngine, \"USDC-A\", collateralToken);   ``` - **Deposit Collateral**: Join collateral tokens into a Safe.   ```solidity   collateralJoin.join(user, amount);   ``` - **Withdraw Collateral**: Exit collateral tokens from a Safe.   ```solidity   collateralJoin.exit(user, amount);   ``` - **Disabling**: Disable the contract to halt operations.   ```solidity   collateralJoin.disableContract();   ```",
    "details": "Bridges external ERC20 collateral tokens with the SafeEngines internal collateral balances, converting token amounts      to 18-decimal WAD precision for SafeEngine compatibility. Handles token transfers and SafeEngine balance updates      for Safe operations. This contract is a fork of MakerDAOs GemJoin5.sol, adapted for StableUnit with added events      and SuAuthenticated access control.",
    "kind": "dev",
    "methods": {
      "constructor": {
        "custom:oz-upgrades-unsafe-allow": "constructor"
      },
      "disableContract()": {
        "details": "Sets `contractEnabled` to 0 and emits an event. Only callable by DisablerAccess."
      },
      "exit(address,uint256)": {
        "details": "Converts token amount to 18-decimal WAD precision, decreases the SafeEngines collateral balance, and      transfers tokens to the user. Ensures the amount does not cause overflow in SafeEngine.",
        "params": {
          "amt": "Amount of collateral to withdraw [in tokens decimal precision].",
          "usr": "Address to receive the collateral tokens."
        }
      },
      "initialize(address,address,bytes32,address)": {
        "details": "Sets up references, enables the contract, and retrieves collateral token decimals.",
        "params": {
          "accessControlSingleton": "Address of the access control singleton.",
          "collateralType_": "Unique identifier for the collateral type.",
          "collateral_": "Address of the collateral token contract.",
          "safeEngine_": "Address of the SafeEngine contract."
        }
      },
      "join(address,uint256)": {
        "details": "Converts token amount to 18-decimal WAD precision, transfers tokens from the caller, and increases the      SafeEngines collateral balance. Requires the contract to be enabled.",
        "params": {
          "amt": "Amount of collateral to deposit [in tokens decimal precision].",
          "usr": "Address to credit the collateral balance (Safe handler)."
        }
      },
      "supportsInterface(bytes4)": {
        "details": "Returns true if this contract implements the interface defined by `interfaceId`. See the corresponding https://eips.ethereum.org/EIPS/eip-165#how-interfaces-are-identified[EIP section] to learn more about how these ids are created. This function call must use less than 30 000 gas."
      }
    },
    "title": "CollateralJoinDecimals",
    "version": 1
  },
  "userdoc": {
    "kind": "user",
    "methods": {
      "collateral()": {
        "notice": "Reference to the external ERC20 collateral token contract."
      },
      "collateralType()": {
        "notice": "Unique identifier for the collateral type (e.g., \"USDC-A\")."
      },
      "contractEnabled()": {
        "notice": "Flag indicating if the contract is enabled (1) or disabled (0)."
      },
      "decimals()": {
        "notice": "Number of decimals for the collateral token (less than 18)."
      },
      "disableContract()": {
        "notice": "Disables the contract, halting further operations."
      },
      "exit(address,uint256)": {
        "notice": "Withdraws collateral tokens from the SafeEngine to a user."
      },
      "initialize(address,address,bytes32,address)": {
        "notice": "Initializes the CollateralJoinDecimals contract with required parameters."
      },
      "join(address,uint256)": {
        "notice": "Deposits collateral tokens into the SafeEngine for a users Safe."
      },
      "safeEngine()": {
        "notice": "Reference to the SafeEngine contract for internal collateral operations."
      }
    },
    "notice": "Adapter contract for depositing and withdrawing collateral tokens with fewer than 18 decimals into/from the StableUnit protocol.",
    "version": 1
  },
  "storageLayout": {
    "storage": [
      {
        "astId": 1226,
        "contract": "contracts/makerdao/core/adapters/CollateralJoinDecimals.sol:CollateralJoinDecimals",
        "label": "_initialized",
        "offset": 0,
        "slot": "0",
        "type": "t_uint8"
      },
      {
        "astId": 1229,
        "contract": "contracts/makerdao/core/adapters/CollateralJoinDecimals.sol:CollateralJoinDecimals",
        "label": "_initializing",
        "offset": 1,
        "slot": "0",
        "type": "t_bool"
      },
      {
        "astId": 25605,
        "contract": "contracts/makerdao/core/adapters/CollateralJoinDecimals.sol:CollateralJoinDecimals",
        "label": "ACCESS_CONTROL_SINGLETON",
        "offset": 2,
        "slot": "0",
        "type": "t_contract(ISuAccessControl)32864"
      },
      {
        "astId": 25893,
        "contract": "contracts/makerdao/core/adapters/CollateralJoinDecimals.sol:CollateralJoinDecimals",
        "label": "__gap",
        "offset": 0,
        "slot": "1",
        "type": "t_array(t_uint256)50_storage"
      },
      {
        "astId": 91130,
        "contract": "contracts/makerdao/core/adapters/CollateralJoinDecimals.sol:CollateralJoinDecimals",
        "label": "safeEngine",
        "offset": 0,
        "slot": "51",
        "type": "t_contract(ISafeEngine)97348"
      },
      {
        "astId": 91133,
        "contract": "contracts/makerdao/core/adapters/CollateralJoinDecimals.sol:CollateralJoinDecimals",
        "label": "collateralType",
        "offset": 0,
        "slot": "52",
        "type": "t_bytes32"
      },
      {
        "astId": 91137,
        "contract": "contracts/makerdao/core/adapters/CollateralJoinDecimals.sol:CollateralJoinDecimals",
        "label": "collateral",
        "offset": 0,
        "slot": "53",
        "type": "t_contract(IERC20Metadata)7700"
      },
      {
        "astId": 91140,
        "contract": "contracts/makerdao/core/adapters/CollateralJoinDecimals.sol:CollateralJoinDecimals",
        "label": "decimals",
        "offset": 0,
        "slot": "54",
        "type": "t_uint256"
      },
      {
        "astId": 91196,
        "contract": "contracts/makerdao/core/adapters/CollateralJoinDecimals.sol:CollateralJoinDecimals",
        "label": "contractEnabled",
        "offset": 0,
        "slot": "55",
        "type": "t_uint256"
      }
    ],
    "types": {
      "t_array(t_uint256)50_storage": {
        "base": "t_uint256",
        "encoding": "inplace",
        "label": "uint256[50]",
        "numberOfBytes": "1600"
      },
      "t_bool": {
        "encoding": "inplace",
        "label": "bool",
        "numberOfBytes": "1"
      },
      "t_bytes32": {
        "encoding": "inplace",
        "label": "bytes32",
        "numberOfBytes": "32"
      },
      "t_contract(IERC20Metadata)7700": {
        "encoding": "inplace",
        "label": "contract IERC20Metadata",
        "numberOfBytes": "20"
      },
      "t_contract(ISafeEngine)97348": {
        "encoding": "inplace",
        "label": "contract ISafeEngine",
        "numberOfBytes": "20"
      },
      "t_contract(ISuAccessControl)32864": {
        "encoding": "inplace",
        "label": "contract ISuAccessControl",
        "numberOfBytes": "20"
      },
      "t_uint256": {
        "encoding": "inplace",
        "label": "uint256",
        "numberOfBytes": "32"
      },
      "t_uint8": {
        "encoding": "inplace",
        "label": "uint8",
        "numberOfBytes": "1"
      }
    }
  }
}