{
  "address": "0x3f9Ec01f543aF849d85Bb48E8cf9631Dc51799D2",
  "abi": [
    {
      "inputs": [],
      "stateMutability": "nonpayable",
      "type": "constructor"
    },
    {
      "inputs": [],
      "name": "BadAccessControlSingleton",
      "type": "error"
    },
    {
      "inputs": [],
      "name": "OnlyAdminError",
      "type": "error"
    },
    {
      "inputs": [],
      "name": "OnlyAlerterError",
      "type": "error"
    },
    {
      "inputs": [],
      "name": "OnlyCDPAccessError",
      "type": "error"
    },
    {
      "inputs": [],
      "name": "OnlyDAOError",
      "type": "error"
    },
    {
      "inputs": [],
      "name": "OnlyDisablerAccessError",
      "type": "error"
    },
    {
      "inputs": [],
      "name": "OnlyLiquidationAccessError",
      "type": "error"
    },
    {
      "inputs": [],
      "name": "OnlyMintAccessError",
      "type": "error"
    },
    {
      "inputs": [],
      "name": "OnlyProxyActionsError",
      "type": "error"
    },
    {
      "inputs": [],
      "name": "OnlyRewardAccessError",
      "type": "error"
    },
    {
      "inputs": [],
      "name": "OnlyRoleError",
      "type": "error"
    },
    {
      "inputs": [],
      "name": "OnlyVaultAccessError",
      "type": "error"
    },
    {
      "inputs": [],
      "name": "OnlyVotingEscrowError",
      "type": "error"
    },
    {
      "inputs": [],
      "name": "onlyAuctionAccessRole",
      "type": "error"
    },
    {
      "anonymous": false,
      "inputs": [
        {
          "indexed": false,
          "internalType": "uint256",
          "name": "id",
          "type": "uint256"
        }
      ],
      "name": "CancelAuction",
      "type": "event"
    },
    {
      "anonymous": false,
      "inputs": [],
      "name": "DisableContract",
      "type": "event"
    },
    {
      "anonymous": false,
      "inputs": [
        {
          "indexed": false,
          "internalType": "uint8",
          "name": "version",
          "type": "uint8"
        }
      ],
      "name": "Initialized",
      "type": "event"
    },
    {
      "anonymous": false,
      "inputs": [
        {
          "indexed": true,
          "internalType": "bytes32",
          "name": "parameter",
          "type": "bytes32"
        },
        {
          "indexed": false,
          "internalType": "bytes32",
          "name": "data",
          "type": "bytes32"
        }
      ],
      "name": "ModifyParameters",
      "type": "event"
    },
    {
      "anonymous": false,
      "inputs": [
        {
          "indexed": true,
          "internalType": "bytes32",
          "name": "parameter",
          "type": "bytes32"
        },
        {
          "indexed": false,
          "internalType": "uint256",
          "name": "data",
          "type": "uint256"
        }
      ],
      "name": "ModifyParameters",
      "type": "event"
    },
    {
      "anonymous": false,
      "inputs": [
        {
          "indexed": true,
          "internalType": "bytes32",
          "name": "parameter",
          "type": "bytes32"
        },
        {
          "indexed": false,
          "internalType": "address",
          "name": "data",
          "type": "address"
        }
      ],
      "name": "ModifyParameters",
      "type": "event"
    },
    {
      "anonymous": false,
      "inputs": [
        {
          "indexed": false,
          "internalType": "uint256",
          "name": "id",
          "type": "uint256"
        }
      ],
      "name": "SettleAuction",
      "type": "event"
    },
    {
      "anonymous": false,
      "inputs": [
        {
          "indexed": false,
          "internalType": "uint256",
          "name": "id",
          "type": "uint256"
        },
        {
          "indexed": false,
          "internalType": "uint256",
          "name": "collateralAmount",
          "type": "uint256"
        },
        {
          "indexed": false,
          "internalType": "uint256",
          "name": "amountToSell",
          "type": "uint256"
        },
        {
          "indexed": false,
          "internalType": "address",
          "name": "incentivesReceiver",
          "type": "address"
        },
        {
          "indexed": false,
          "internalType": "uint256",
          "name": "liquidatorReward",
          "type": "uint256"
        }
      ],
      "name": "StartAuction",
      "type": "event"
    },
    {
      "inputs": [],
      "name": "ACCESS_CONTROL_SINGLETON",
      "outputs": [
        {
          "internalType": "contract ISuAccessControl",
          "name": "",
          "type": "address"
        }
      ],
      "stateMutability": "view",
      "type": "function"
    },
    {
      "inputs": [],
      "name": "ADMIN_ROLE",
      "outputs": [
        {
          "internalType": "bytes32",
          "name": "",
          "type": "bytes32"
        }
      ],
      "stateMutability": "view",
      "type": "function"
    },
    {
      "inputs": [],
      "name": "ALERTER_ROLE",
      "outputs": [
        {
          "internalType": "bytes32",
          "name": "",
          "type": "bytes32"
        }
      ],
      "stateMutability": "view",
      "type": "function"
    },
    {
      "inputs": [],
      "name": "AUCTION_ACCESS_ROLE",
      "outputs": [
        {
          "internalType": "bytes32",
          "name": "",
          "type": "bytes32"
        }
      ],
      "stateMutability": "view",
      "type": "function"
    },
    {
      "inputs": [],
      "name": "CDP_ACCESS_ROLE",
      "outputs": [
        {
          "internalType": "bytes32",
          "name": "",
          "type": "bytes32"
        }
      ],
      "stateMutability": "view",
      "type": "function"
    },
    {
      "inputs": [],
      "name": "DAO_ROLE",
      "outputs": [
        {
          "internalType": "bytes32",
          "name": "",
          "type": "bytes32"
        }
      ],
      "stateMutability": "view",
      "type": "function"
    },
    {
      "inputs": [],
      "name": "DISABLER_ROLE",
      "outputs": [
        {
          "internalType": "bytes32",
          "name": "",
          "type": "bytes32"
        }
      ],
      "stateMutability": "view",
      "type": "function"
    },
    {
      "inputs": [],
      "name": "LIQUIDATION_ACCESS_ROLE",
      "outputs": [
        {
          "internalType": "bytes32",
          "name": "",
          "type": "bytes32"
        }
      ],
      "stateMutability": "view",
      "type": "function"
    },
    {
      "inputs": [],
      "name": "MINT_ACCESS_ROLE",
      "outputs": [
        {
          "internalType": "bytes32",
          "name": "",
          "type": "bytes32"
        }
      ],
      "stateMutability": "view",
      "type": "function"
    },
    {
      "inputs": [],
      "name": "PROXY_ACTIONS_ROLE",
      "outputs": [
        {
          "internalType": "bytes32",
          "name": "",
          "type": "bytes32"
        }
      ],
      "stateMutability": "view",
      "type": "function"
    },
    {
      "inputs": [],
      "name": "REWARD_ACCESS_ROLE",
      "outputs": [
        {
          "internalType": "bytes32",
          "name": "",
          "type": "bytes32"
        }
      ],
      "stateMutability": "view",
      "type": "function"
    },
    {
      "inputs": [],
      "name": "VOTING_ESCROW_ROLE",
      "outputs": [
        {
          "internalType": "bytes32",
          "name": "",
          "type": "bytes32"
        }
      ],
      "stateMutability": "view",
      "type": "function"
    },
    {
      "inputs": [],
      "name": "accountingEngine",
      "outputs": [
        {
          "internalType": "contract IAccountingEngine",
          "name": "",
          "type": "address"
        }
      ],
      "stateMutability": "view",
      "type": "function"
    },
    {
      "inputs": [
        {
          "internalType": "uint256",
          "name": "",
          "type": "uint256"
        }
      ],
      "name": "bids",
      "outputs": [
        {
          "internalType": "uint256",
          "name": "collateralAmount",
          "type": "uint256"
        },
        {
          "internalType": "uint256",
          "name": "amountToSell",
          "type": "uint256"
        },
        {
          "internalType": "address",
          "name": "incentivesReceiver",
          "type": "address"
        },
        {
          "internalType": "uint256",
          "name": "liquidatorReward",
          "type": "uint256"
        },
        {
          "internalType": "bytes32",
          "name": "collateralType",
          "type": "bytes32"
        }
      ],
      "stateMutability": "view",
      "type": "function"
    },
    {
      "inputs": [
        {
          "internalType": "uint256",
          "name": "id",
          "type": "uint256"
        },
        {
          "internalType": "contract ICollateralJoin",
          "name": "collateralJoin",
          "type": "address"
        }
      ],
      "name": "cancelAuction",
      "outputs": [],
      "stateMutability": "nonpayable",
      "type": "function"
    },
    {
      "inputs": [],
      "name": "contractEnabled",
      "outputs": [
        {
          "internalType": "uint256",
          "name": "",
          "type": "uint256"
        }
      ],
      "stateMutability": "view",
      "type": "function"
    },
    {
      "inputs": [
        {
          "internalType": "uint256",
          "name": "id",
          "type": "uint256"
        },
        {
          "internalType": "uint256",
          "name": "collateralAmount",
          "type": "uint256"
        },
        {
          "internalType": "uint256",
          "name": "bid",
          "type": "uint256"
        }
      ],
      "name": "decreaseSoldAmount",
      "outputs": [],
      "stateMutability": "nonpayable",
      "type": "function"
    },
    {
      "inputs": [],
      "name": "disableContract",
      "outputs": [],
      "stateMutability": "nonpayable",
      "type": "function"
    },
    {
      "inputs": [],
      "name": "exchange",
      "outputs": [
        {
          "internalType": "contract IExchange",
          "name": "",
          "type": "address"
        }
      ],
      "stateMutability": "view",
      "type": "function"
    },
    {
      "inputs": [
        {
          "internalType": "uint256",
          "name": "id",
          "type": "uint256"
        },
        {
          "internalType": "uint256",
          "name": "collateralAmount",
          "type": "uint256"
        },
        {
          "internalType": "uint256",
          "name": "bid",
          "type": "uint256"
        }
      ],
      "name": "increaseBidSize",
      "outputs": [],
      "stateMutability": "nonpayable",
      "type": "function"
    },
    {
      "inputs": [
        {
          "internalType": "address",
          "name": "accessControl",
          "type": "address"
        },
        {
          "internalType": "address",
          "name": "safeEngine_",
          "type": "address"
        },
        {
          "internalType": "address",
          "name": "accountingEngine_",
          "type": "address"
        },
        {
          "internalType": "address",
          "name": "liquidationEngine_",
          "type": "address"
        },
        {
          "internalType": "address",
          "name": "exchange_",
          "type": "address"
        }
      ],
      "name": "initialize",
      "outputs": [],
      "stateMutability": "nonpayable",
      "type": "function"
    },
    {
      "inputs": [],
      "name": "liquidationDiscountType",
      "outputs": [
        {
          "internalType": "uint256",
          "name": "",
          "type": "uint256"
        }
      ],
      "stateMutability": "view",
      "type": "function"
    },
    {
      "inputs": [],
      "name": "liquidationEngine",
      "outputs": [
        {
          "internalType": "contract ILiquidationEngine",
          "name": "",
          "type": "address"
        }
      ],
      "stateMutability": "view",
      "type": "function"
    },
    {
      "inputs": [],
      "name": "liquidatorReward",
      "outputs": [
        {
          "internalType": "uint256",
          "name": "",
          "type": "uint256"
        }
      ],
      "stateMutability": "view",
      "type": "function"
    },
    {
      "inputs": [
        {
          "internalType": "bytes32",
          "name": "what",
          "type": "bytes32"
        },
        {
          "internalType": "address",
          "name": "data",
          "type": "address"
        }
      ],
      "name": "modifyParameters",
      "outputs": [],
      "stateMutability": "nonpayable",
      "type": "function"
    },
    {
      "inputs": [
        {
          "internalType": "bytes32",
          "name": "what",
          "type": "bytes32"
        },
        {
          "internalType": "uint256",
          "name": "data",
          "type": "uint256"
        }
      ],
      "name": "modifyParameters",
      "outputs": [],
      "stateMutability": "nonpayable",
      "type": "function"
    },
    {
      "inputs": [
        {
          "internalType": "uint256",
          "name": "id",
          "type": "uint256"
        }
      ],
      "name": "restartAuction",
      "outputs": [],
      "stateMutability": "nonpayable",
      "type": "function"
    },
    {
      "inputs": [],
      "name": "safeEngine",
      "outputs": [
        {
          "internalType": "contract ISafeEngine",
          "name": "",
          "type": "address"
        }
      ],
      "stateMutability": "view",
      "type": "function"
    },
    {
      "inputs": [
        {
          "internalType": "uint256",
          "name": "id",
          "type": "uint256"
        }
      ],
      "name": "settleAuction",
      "outputs": [],
      "stateMutability": "nonpayable",
      "type": "function"
    },
    {
      "inputs": [
        {
          "internalType": "bytes32",
          "name": "collateralType",
          "type": "bytes32"
        },
        {
          "internalType": "contract ICollateralJoin",
          "name": "collateralJoin",
          "type": "address"
        },
        {
          "internalType": "address",
          "name": "debtReceiver",
          "type": "address"
        },
        {
          "internalType": "uint256",
          "name": "collateralAmount",
          "type": "uint256"
        },
        {
          "internalType": "address",
          "name": "incentivesReceiver",
          "type": "address"
        }
      ],
      "name": "startAuction",
      "outputs": [
        {
          "internalType": "uint256",
          "name": "id",
          "type": "uint256"
        }
      ],
      "stateMutability": "nonpayable",
      "type": "function"
    },
    {
      "inputs": [
        {
          "internalType": "bytes4",
          "name": "interfaceId",
          "type": "bytes4"
        }
      ],
      "name": "supportsInterface",
      "outputs": [
        {
          "internalType": "bool",
          "name": "",
          "type": "bool"
        }
      ],
      "stateMutability": "view",
      "type": "function"
    }
  ],
  "numDeployments": 1,
  "solcInputHash": "8f84b6f1e4072e92a972e80f9a9e23c6",
  "bytecode": "0x608060405234801561001057600080fd5b5061001961001e565b6100dd565b600054610100900460ff161561008a5760405162461bcd60e51b815260206004820152602760248201527f496e697469616c697a61626c653a20636f6e747261637420697320696e697469604482015266616c697a696e6760c81b606482015260840160405180910390fd5b60005460ff908116146100db576000805460ff191660ff9081179091556040519081527f7f26b83ff96e1f2b6a682f133852f6798a09c465da95921460cefb38474024989060200160405180910390a15b565b611bd7806100ec6000396000f3fe608060405234801561001057600080fd5b50600436106101755760003560e01c806301ffc9a71461017a57806303ee9f22146101a25780631459457a146101c85780632e993611146101dd578063340517c9146101f057806341b3a0d914610225578063438280dd1461022e5780634423c5f11461025557806344bf3c72146102d25780634e8eaa13146102e55780635a93f031146102f85780636614f0101461030b57806367aea3131461031e57806371d0fb411461033157806375b238fc14610358578063894ba833146103605780638e5313e014610368578063961d45c41461038f578063a9b45942146103a2578063b10a821e146103b5578063b38234f3146103be578063bd5f5be6146103e5578063d0e8fa821461040c578063d2351cee14610433578063d25ccf5314610448578063d2f7265a14610459578063dbec7dd41461046c578063dc97e84e14610475578063e9c265181461048a578063fe4f58901461049f578063ff6b7b1c146102f8575b600080fd5b61018d610188366004611764565b6104b2565b60405190151581526020015b60405180910390f35b6000546101bb906201000090046001600160a01b031681565b6040516101999190611795565b6101db6101d63660046117be565b61052f565b005b6101db6101eb36600461182f565b61069f565b6102177f014f8da3222812608c449a44f4705585c5ce052eeb6f9af0af9209c64b0ba2de81565b604051908152602001610199565b61021760395481565b6102177f39f61ca2a1a28fee144218173ec637b649a353e4026b2738c673800e5bf1437b81565b61029c61026336600461182f565b60336020526000908152604090208054600182015460028301546003840154600490940154929391926001600160a01b03909116919085565b6040805195865260208601949094526001600160a01b03909216928401929092526060830191909152608082015260a001610199565b6036546101bb906001600160a01b031681565b6101db6102f3366004611848565b61095f565b6101db610306366004611878565b505050565b6101db610319366004611848565b610c96565b6034546101bb906001600160a01b031681565b6102177f880a91047114272656e533301261260c75e4d11543ac7303d6fe4204579ec72781565b610217600081565b6101db610e42565b6102177fe453bacb314e78dcd5192e6b1a2b1f0e7c76e92f6b7e429a6a90f04e39db3b7681565b6035546101bb906001600160a01b031681565b6102176103b03660046118a4565b610f15565b610217603a5481565b6102177fd83f5343da19b478b15a140c301a868be9e02603958f38fbd822b9d5c0a2891681565b6102177f4f14c8366fa999817edc9f29824eb88a00cc31225e2156f399da4bc91049eb1081565b6102177f76d0567582f23e1e9d7a13eeba60f9aea9d69b8da87ca27a8bf3698b35c653db81565b610217600080516020611bab83398151915281565b6101db61045636600461182f565b50565b6037546101bb906001600160a01b031681565b61021760385481565b610217600080516020611b8b83398151915281565b610217600080516020611b6b83398151915281565b6101db6104ad3660046118f5565b6114ce565b600080546040516301ffc9a760e01b8152620100009091046001600160a01b0316906301ffc9a7906104e8908590600401611917565b602060405180830381865afa158015610505573d6000803e3d6000fd5b505050506040513d601f19601f82011682018060405250810190610529919061192c565b92915050565b600054610100900460ff161580801561054f5750600054600160ff909116105b806105695750303b158015610569575060005460ff166001145b6105d15760405162461bcd60e51b815260206004820152602e60248201527f496e697469616c697a61626c653a20636f6e747261637420697320616c72656160448201526d191e481a5b9a5d1a585b1a5e995960921b60648201526084015b60405180910390fd5b6000805460ff1916600117905580156105f4576000805461ff0019166101001790555b6105fd866115ee565b603480546001600160a01b038088166001600160a01b03199283161790925560358054878416908316179055603780548584169083161790556036805492861692909116919091179055600060385560016039558015610697576000805461ff0019169055604051600181527f7f26b83ff96e1f2b6a682f133852f6798a09c465da95921460cefb38474024989060200160405180910390a15b505050505050565b600081815260336020526040812060010154900361070b5760405162461bcd60e51b815260206004820152602360248201527f436f6c6c61746572616c41756374696f6e486f7573652f6e6f742d66696e69736044820152621a195960ea1b60648201526084016105c8565b60375460405163d09ef24160e01b8152600481018390526000916001600160a01b03169063d09ef2419060240161010060405180830381865afa158015610756573d6000803e3d6000fd5b505050506040513d601f19601f8201168201806040525081019061077a9190611986565b905080608001516000146107dc5760405162461bcd60e51b815260206004820152602360248201527f436f6c6c61746572616c41756374696f6e486f7573652f6e6f742d65786563756044820152621d195960ea1b60648201526084016105c8565b603454600083815260336020526040908190206004808201546002830154600390930154935163272888d360e11b81526001600160a01b0395861695634e5111a695610832959394309490921692909101611a4a565b600060405180830381600087803b15801561084c57600080fd5b505af1158015610860573d6000803e3d6000fd5b50506036546000858152603360205260409081902060048082015460019290920154925163377db96760e11b81526001600160a01b039094169550636efb72ce94506108b89391929101918252602082015260400190565b600060405180830381600087803b1580156108d257600080fd5b505af11580156108e6573d6000803e3d6000fd5b505050600083815260336020526040808220828155600181018390556002810180546001600160a01b03191690556003810183905560040191909155517f03af424b0e12d91ea31fe7f2c199fc02c9ede38f9aa1bdc019a8087b41445f7a91506109539084815260200190565b60405180910390a15050565b600054604051632474521560e21b8152620100009091046001600160a01b0316906391d14854906109a490600080516020611b8b833981519152903390600401611a6f565b602060405180830381865afa1580156109c1573d6000803e3d6000fd5b505050506040513d601f19601f820116820180604052508101906109e5919061192c565b610a025760405163200ab6d960e01b815260040160405180910390fd5b60375460405163d09ef24160e01b8152600481018490526000916001600160a01b03169063d09ef2419060240161010060405180830381865afa158015610a4d573d6000803e3d6000fd5b505050506040513d601f19601f82011682018060405250810190610a719190611986565b9050603954600014610ac55760405162461bcd60e51b815260206004820152601e60248201527f4465627441756374696f6e486f7573652f7374696c6c2d656e61626c6564000060448201526064016105c8565b8060800151600003610ae95760405162461bcd60e51b81526004016105c890611a86565b6000838152603360205260408120600101549003610b195760405162461bcd60e51b81526004016105c890611a86565b60375460405163514fcac760e01b8152600481018590526001600160a01b039091169063514fcac790602401600060405180830381600087803b158015610b5f57600080fd5b505af1158015610b73573d6000803e3d6000fd5b505050506080810151604051633b4da69f60e01b81526001600160a01b03841691633b4da69f91610ba8913391600401611ab9565b600060405180830381600087803b158015610bc257600080fd5b505af1158015610bd6573d6000803e3d6000fd5b5050603454600086815260336020526040908190206004908101546080870151925163272888d360e11b81526001600160a01b039094169550634e5111a69450610c269390923092339201611a4a565b600060405180830381600087803b158015610c4057600080fd5b505af1158015610c54573d6000803e3d6000fd5b505050507fbea0e66c2d42b9131695ceea7d1aaa21b37e93070cde19c9b5fbd686a325929283604051610c8991815260200190565b60405180910390a1505050565b600054604051632474521560e21b8152620100009091046001600160a01b0316906391d1485490610cdb90600080516020611b6b833981519152903390600401611a6f565b602060405180830381865afa158015610cf8573d6000803e3d6000fd5b505050506040513d601f19601f82011682018060405250810190610d1c919061192c565b610d395760405163599a6c3360e11b815260040160405180910390fd5b816f6163636f756e74696e67456e67696e6560801b03610d7357603580546001600160a01b0319166001600160a01b038316179055610e06565b816765786368616e676560c01b03610da557603780546001600160a01b0319166001600160a01b038316179055610e06565b60405162461bcd60e51b815260206004820152603060248201527f436f6c6c61746572616c41756374696f6e486f7573652f6d6f646966792d756e60448201526f7265636f676e697a65642d706172616d60801b60648201526084016105c8565b817fd91f38cf03346b5dc15fb60f9076f866295231ad3c3841a1051f8443f25170d182604051610e369190611795565b60405180910390a25050565b600054604051632474521560e21b8152620100009091046001600160a01b0316906391d1485490610e8790600080516020611bab833981519152903390600401611a6f565b602060405180830381865afa158015610ea4573d6000803e3d6000fd5b505050506040513d601f19601f82011682018060405250810190610ec8919061192c565b610ee55760405163bb0684b760e01b815260040160405180910390fd5b600060398190556040517f2d4b4ecff7bd7503135271925520a2f6c0d98c9473ffc1a1e72c92502f51b25e9190a1565b60008054604051632474521560e21b8152620100009091046001600160a01b0316906391d1485490610f5b90600080516020611b8b833981519152903390600401611a6f565b602060405180830381865afa158015610f78573d6000803e3d6000fd5b505050506040513d601f19601f82011682018060405250810190610f9c919061192c565b610fb95760405163200ab6d960e01b815260040160405180910390fd5b6039546001146110165760405162461bcd60e51b815260206004820152602260248201527f436f6c6c61746572616c41756374696f6e486f7573652f6e6f742d656e61626c604482015261195960f21b60648201526084016105c8565b600083116110755760405162461bcd60e51b815260206004820152602660248201527f436f6c6c61746572616c41756374696f6e486f7573652f7a65726f2d636f6c6c604482015265185d195c985b60d21b60648201526084016105c8565b60345460405163272888d360e11b81526001600160a01b0390911690634e5111a6906110ab908990339030908990600401611a4a565b600060405180830381600087803b1580156110c557600080fd5b505af11580156110d9573d6000803e3d6000fd5b5050505060006110eb84603a5461171c565b905060006110f98583611749565b60405163ef693bed60e01b81529091506001600160a01b0388169063ef693bed9061112a9030908590600401611ab9565b600060405180830381600087803b15801561114457600080fd5b505af1158015611158573d6000803e3d6000fd5b50505050866001600160a01b031663d8dfeb456040518163ffffffff1660e01b8152600401602060405180830381865afa15801561119a573d6000803e3d6000fd5b505050506040513d601f19601f820116820180604052508101906111be9190611ad2565b60375460405163095ea7b360e01b81526001600160a01b039283169263095ea7b3926111f1929116908590600401611ab9565b6020604051808303816000875af1158015611210573d6000803e3d6000fd5b505050506040513d601f19601f82011682018060405250810190611234919061192c565b50603760009054906101000a90046001600160a01b03166001600160a01b031663ef3391bc886001600160a01b031663d8dfeb456040518163ffffffff1660e01b8152600401602060405180830381865afa158015611297573d6000803e3d6000fd5b505050506040513d601f19601f820116820180604052508101906112bb9190611ad2565b60355460408051631ff63f2360e11b8152905186926001600160a01b031691633fec7e469160048083019260209291908290030181865afa158015611304573d6000803e3d6000fd5b505050506040513d601f19601f820116820180604052508101906113289190611ad2565b6038546040516001600160e01b031960e087901b1681526001600160a01b03948516600482015260248101939093529083166044830152918a16606482015260ff9091166084820152600060a482015260c4016020604051808303816000875af115801561139a573d6000803e3d6000fd5b505050506040513d601f19601f820116820180604052508101906113be9190611aef565b92506040518060a00160405280868152602001828152602001856001600160a01b031681526020018381526020018981525060336000858152602001908152602001600020600082015181600001556020820151816001015560408201518160020160006101000a8154816001600160a01b0302191690836001600160a01b0316021790555060608201518160030155608082015181600401559050507f6657fd8b290d9125ea3be0d805425fc405edba23e09d27c03503f4d37fe0191983868387603a546040516114bb959493929190948552602085019390935260408401919091526001600160a01b03166060830152608082015260a00190565b60405180910390a1505095945050505050565b600054604051632474521560e21b8152620100009091046001600160a01b0316906391d148549061151390600080516020611b6b833981519152903390600401611a6f565b602060405180830381865afa158015611530573d6000803e3d6000fd5b505050506040513d601f19601f82011682018060405250810190611554919061192c565b6115715760405163599a6c3360e11b815260040160405180910390fd5b816f131a5c5d5a59185d1bdc94995dd85c9960821b0361159557603a8190556115bc565b81766c69717569646174696f6e446973636f756e745479706560481b03610da55760388190555b817fac7c5c1afaef770ec56ac6268cd3f2fbb1035858ead2601d6553157c33036c3a82604051610e3691815260200190565b600054610100900460ff166116595760405162461bcd60e51b815260206004820152602b60248201527f496e697469616c697a61626c653a20636f6e7472616374206973206e6f74206960448201526a6e697469616c697a696e6760a81b60648201526084016105c8565b6000805462010000600160b01b031916620100006001600160a01b0384169081029190911790915515806116fe57506040516301ffc9a760e01b81526001600160a01b038216906301ffc9a7906116bb90637965db0b60e01b90600401611917565b602060405180830381865afa1580156116d8573d6000803e3d6000fd5b505050506040513d601f19601f820116820180604052508101906116fc919061192c565b155b15610456576040516384d942fd60e01b815260040160405180910390fd5b6000811580611740575082826117328183611b1e565b925061173e9083611b35565b145b61052957600080fd5b6000826117568382611b57565b915081111561052957600080fd5b60006020828403121561177657600080fd5b81356001600160e01b03198116811461178e57600080fd5b9392505050565b6001600160a01b0391909116815260200190565b6001600160a01b038116811461045657600080fd5b600080600080600060a086880312156117d657600080fd5b85356117e1816117a9565b945060208601356117f1816117a9565b93506040860135611801816117a9565b92506060860135611811816117a9565b91506080860135611821816117a9565b809150509295509295909350565b60006020828403121561184157600080fd5b5035919050565b6000806040838503121561185b57600080fd5b82359150602083013561186d816117a9565b809150509250929050565b60008060006060848603121561188d57600080fd5b505081359360208301359350604090920135919050565b600080600080600060a086880312156118bc57600080fd5b8535945060208601356118ce816117a9565b935060408601356118de816117a9565b9250606086013591506080860135611821816117a9565b6000806040838503121561190857600080fd5b50508035926020909101359150565b6001600160e01b031991909116815260200190565b60006020828403121561193e57600080fd5b8151801515811461178e57600080fd5b8051611959816117a9565b919050565b80516001600160401b038116811461195957600080fd5b805160ff8116811461195957600080fd5b600061010080838503121561199a57600080fd5b604051908101906001600160401b03821181831017156119ca57634e487b7160e01b600052604160045260246000fd5b816040526119d78461194e565b81526119e56020850161194e565b60208201526119f66040850161194e565b6040820152611a076060850161194e565b60608201526080840151608082015260a084015160a0820152611a2c60c0850161195e565b60c0820152611a3d60e08501611975565b60e0820152949350505050565b9384526001600160a01b03928316602085015291166040830152606082015260800190565b9182526001600160a01b0316602082015260400190565b6020808252601990820152781119589d105d58dd1a5bdb921bdd5cd94bd95e1958dd5d1959603a1b604082015260600190565b6001600160a01b03929092168252602082015260400190565b600060208284031215611ae457600080fd5b815161178e816117a9565b600060208284031215611b0157600080fd5b5051919050565b634e487b7160e01b600052601160045260246000fd5b808202811582820484141761052957610529611b08565b600082611b5257634e487b7160e01b600052601260045260246000fd5b500490565b8181038181111561052957610529611b0856fe3b5d4cc60d3ec3516ee8ae083bd60934f6eb2a6c54b1229985c41bfb092b26039a9aef7c1247d5fc769b0185c052913e39673da29a880317dfd20ebf86f26a49b0fdd1623e42dbffda4acd8bd643e1cb69f00f0e83abeaa8150ee42cf0fd105ea164736f6c6343000811000a",
  "devdoc": {
    "kind": "dev",
    "methods": {
      "constructor": {
        "custom:oz-upgrades-unsafe-allow": "constructor"
      },
      "settleAuction(uint256)": {
        "params": {
          "id": "ID of the auction to settle"
        }
      },
      "supportsInterface(bytes4)": {
        "details": "Returns true if this contract implements the interface defined by `interfaceId`. See the corresponding https://eips.ethereum.org/EIPS/eip-165#how-interfaces-are-identified[EIP section] to learn more about how these ids are created. This function call must use less than 30 000 gas."
      }
    },
    "version": 1
  },
  "userdoc": {
    "kind": "user",
    "methods": {
      "settleAuction(uint256)": {
        "notice": "Settle/finish an auction"
      }
    },
    "version": 1
  },
  "storageLayout": {
    "storage": [
      {
        "astId": 1226,
        "contract": "contracts/makerdao/externalContracts/CollateralAuctionHouse.sol:CollateralAuctionHouse",
        "label": "_initialized",
        "offset": 0,
        "slot": "0",
        "type": "t_uint8"
      },
      {
        "astId": 1229,
        "contract": "contracts/makerdao/externalContracts/CollateralAuctionHouse.sol:CollateralAuctionHouse",
        "label": "_initializing",
        "offset": 1,
        "slot": "0",
        "type": "t_bool"
      },
      {
        "astId": 25605,
        "contract": "contracts/makerdao/externalContracts/CollateralAuctionHouse.sol:CollateralAuctionHouse",
        "label": "ACCESS_CONTROL_SINGLETON",
        "offset": 2,
        "slot": "0",
        "type": "t_contract(ISuAccessControl)32864"
      },
      {
        "astId": 25893,
        "contract": "contracts/makerdao/externalContracts/CollateralAuctionHouse.sol:CollateralAuctionHouse",
        "label": "__gap",
        "offset": 0,
        "slot": "1",
        "type": "t_array(t_uint256)50_storage"
      },
      {
        "astId": 92414,
        "contract": "contracts/makerdao/externalContracts/CollateralAuctionHouse.sol:CollateralAuctionHouse",
        "label": "bids",
        "offset": 0,
        "slot": "51",
        "type": "t_mapping(t_uint256,t_struct(Bid)92409_storage)"
      },
      {
        "astId": 92417,
        "contract": "contracts/makerdao/externalContracts/CollateralAuctionHouse.sol:CollateralAuctionHouse",
        "label": "safeEngine",
        "offset": 0,
        "slot": "52",
        "type": "t_contract(ISafeEngine)97348"
      },
      {
        "astId": 92420,
        "contract": "contracts/makerdao/externalContracts/CollateralAuctionHouse.sol:CollateralAuctionHouse",
        "label": "accountingEngine",
        "offset": 0,
        "slot": "53",
        "type": "t_contract(IAccountingEngine)96345"
      },
      {
        "astId": 92423,
        "contract": "contracts/makerdao/externalContracts/CollateralAuctionHouse.sol:CollateralAuctionHouse",
        "label": "liquidationEngine",
        "offset": 0,
        "slot": "54",
        "type": "t_contract(ILiquidationEngine)96932"
      },
      {
        "astId": 92426,
        "contract": "contracts/makerdao/externalContracts/CollateralAuctionHouse.sol:CollateralAuctionHouse",
        "label": "exchange",
        "offset": 0,
        "slot": "55",
        "type": "t_contract(IExchange)24402"
      },
      {
        "astId": 92428,
        "contract": "contracts/makerdao/externalContracts/CollateralAuctionHouse.sol:CollateralAuctionHouse",
        "label": "liquidationDiscountType",
        "offset": 0,
        "slot": "56",
        "type": "t_uint256"
      },
      {
        "astId": 92430,
        "contract": "contracts/makerdao/externalContracts/CollateralAuctionHouse.sol:CollateralAuctionHouse",
        "label": "contractEnabled",
        "offset": 0,
        "slot": "57",
        "type": "t_uint256"
      },
      {
        "astId": 92432,
        "contract": "contracts/makerdao/externalContracts/CollateralAuctionHouse.sol:CollateralAuctionHouse",
        "label": "liquidatorReward",
        "offset": 0,
        "slot": "58",
        "type": "t_uint256"
      }
    ],
    "types": {
      "t_address": {
        "encoding": "inplace",
        "label": "address",
        "numberOfBytes": "20"
      },
      "t_array(t_uint256)50_storage": {
        "base": "t_uint256",
        "encoding": "inplace",
        "label": "uint256[50]",
        "numberOfBytes": "1600"
      },
      "t_bool": {
        "encoding": "inplace",
        "label": "bool",
        "numberOfBytes": "1"
      },
      "t_bytes32": {
        "encoding": "inplace",
        "label": "bytes32",
        "numberOfBytes": "32"
      },
      "t_contract(IAccountingEngine)96345": {
        "encoding": "inplace",
        "label": "contract IAccountingEngine",
        "numberOfBytes": "20"
      },
      "t_contract(IExchange)24402": {
        "encoding": "inplace",
        "label": "contract IExchange",
        "numberOfBytes": "20"
      },
      "t_contract(ILiquidationEngine)96932": {
        "encoding": "inplace",
        "label": "contract ILiquidationEngine",
        "numberOfBytes": "20"
      },
      "t_contract(ISafeEngine)97348": {
        "encoding": "inplace",
        "label": "contract ISafeEngine",
        "numberOfBytes": "20"
      },
      "t_contract(ISuAccessControl)32864": {
        "encoding": "inplace",
        "label": "contract ISuAccessControl",
        "numberOfBytes": "20"
      },
      "t_mapping(t_uint256,t_struct(Bid)92409_storage)": {
        "encoding": "mapping",
        "key": "t_uint256",
        "label": "mapping(uint256 => struct CollateralAuctionHouse.Bid)",
        "numberOfBytes": "32",
        "value": "t_struct(Bid)92409_storage"
      },
      "t_struct(Bid)92409_storage": {
        "encoding": "inplace",
        "label": "struct CollateralAuctionHouse.Bid",
        "members": [
          {
            "astId": 92400,
            "contract": "contracts/makerdao/externalContracts/CollateralAuctionHouse.sol:CollateralAuctionHouse",
            "label": "collateralAmount",
            "offset": 0,
            "slot": "0",
            "type": "t_uint256"
          },
          {
            "astId": 92402,
            "contract": "contracts/makerdao/externalContracts/CollateralAuctionHouse.sol:CollateralAuctionHouse",
            "label": "amountToSell",
            "offset": 0,
            "slot": "1",
            "type": "t_uint256"
          },
          {
            "astId": 92404,
            "contract": "contracts/makerdao/externalContracts/CollateralAuctionHouse.sol:CollateralAuctionHouse",
            "label": "incentivesReceiver",
            "offset": 0,
            "slot": "2",
            "type": "t_address"
          },
          {
            "astId": 92406,
            "contract": "contracts/makerdao/externalContracts/CollateralAuctionHouse.sol:CollateralAuctionHouse",
            "label": "liquidatorReward",
            "offset": 0,
            "slot": "3",
            "type": "t_uint256"
          },
          {
            "astId": 92408,
            "contract": "contracts/makerdao/externalContracts/CollateralAuctionHouse.sol:CollateralAuctionHouse",
            "label": "collateralType",
            "offset": 0,
            "slot": "4",
            "type": "t_bytes32"
          }
        ],
        "numberOfBytes": "160"
      },
      "t_uint256": {
        "encoding": "inplace",
        "label": "uint256",
        "numberOfBytes": "32"
      },
      "t_uint8": {
        "encoding": "inplace",
        "label": "uint8",
        "numberOfBytes": "1"
      }
    }
  }
}