{
  "address": "0x55e53133C65c8Cb53f189a49Ae246219FAB1eE14",
  "abi": [
    {
      "inputs": [],
      "stateMutability": "nonpayable",
      "type": "constructor"
    },
    {
      "inputs": [],
      "name": "BadAccessControlSingleton",
      "type": "error"
    },
    {
      "inputs": [],
      "name": "OnlyAdminError",
      "type": "error"
    },
    {
      "inputs": [],
      "name": "OnlyAlerterError",
      "type": "error"
    },
    {
      "inputs": [],
      "name": "OnlyCDPAccessError",
      "type": "error"
    },
    {
      "inputs": [],
      "name": "OnlyDAOError",
      "type": "error"
    },
    {
      "inputs": [],
      "name": "OnlyDisablerAccessError",
      "type": "error"
    },
    {
      "inputs": [],
      "name": "OnlyLiquidationAccessError",
      "type": "error"
    },
    {
      "inputs": [],
      "name": "OnlyMintAccessError",
      "type": "error"
    },
    {
      "inputs": [],
      "name": "OnlyProxyActionsError",
      "type": "error"
    },
    {
      "inputs": [],
      "name": "OnlyRewardAccessError",
      "type": "error"
    },
    {
      "inputs": [],
      "name": "OnlyRoleError",
      "type": "error"
    },
    {
      "inputs": [],
      "name": "OnlyVaultAccessError",
      "type": "error"
    },
    {
      "inputs": [],
      "name": "OnlyVotingEscrowError",
      "type": "error"
    },
    {
      "anonymous": false,
      "inputs": [],
      "name": "DisableContract",
      "type": "event"
    },
    {
      "anonymous": false,
      "inputs": [
        {
          "indexed": true,
          "internalType": "address",
          "name": "usr",
          "type": "address"
        },
        {
          "indexed": false,
          "internalType": "uint256",
          "name": "wad",
          "type": "uint256"
        }
      ],
      "name": "Exit",
      "type": "event"
    },
    {
      "anonymous": false,
      "inputs": [
        {
          "indexed": false,
          "internalType": "uint8",
          "name": "version",
          "type": "uint8"
        }
      ],
      "name": "Initialized",
      "type": "event"
    },
    {
      "anonymous": false,
      "inputs": [
        {
          "indexed": true,
          "internalType": "address",
          "name": "usr",
          "type": "address"
        },
        {
          "indexed": false,
          "internalType": "uint256",
          "name": "wad",
          "type": "uint256"
        }
      ],
      "name": "Join",
      "type": "event"
    },
    {
      "inputs": [],
      "name": "ACCESS_CONTROL_SINGLETON",
      "outputs": [
        {
          "internalType": "contract ISuAccessControl",
          "name": "",
          "type": "address"
        }
      ],
      "stateMutability": "view",
      "type": "function"
    },
    {
      "inputs": [],
      "name": "ADMIN_ROLE",
      "outputs": [
        {
          "internalType": "bytes32",
          "name": "",
          "type": "bytes32"
        }
      ],
      "stateMutability": "view",
      "type": "function"
    },
    {
      "inputs": [],
      "name": "ALERTER_ROLE",
      "outputs": [
        {
          "internalType": "bytes32",
          "name": "",
          "type": "bytes32"
        }
      ],
      "stateMutability": "view",
      "type": "function"
    },
    {
      "inputs": [],
      "name": "CDP_ACCESS_ROLE",
      "outputs": [
        {
          "internalType": "bytes32",
          "name": "",
          "type": "bytes32"
        }
      ],
      "stateMutability": "view",
      "type": "function"
    },
    {
      "inputs": [],
      "name": "DAO_ROLE",
      "outputs": [
        {
          "internalType": "bytes32",
          "name": "",
          "type": "bytes32"
        }
      ],
      "stateMutability": "view",
      "type": "function"
    },
    {
      "inputs": [],
      "name": "DISABLER_ROLE",
      "outputs": [
        {
          "internalType": "bytes32",
          "name": "",
          "type": "bytes32"
        }
      ],
      "stateMutability": "view",
      "type": "function"
    },
    {
      "inputs": [],
      "name": "LIQUIDATION_ACCESS_ROLE",
      "outputs": [
        {
          "internalType": "bytes32",
          "name": "",
          "type": "bytes32"
        }
      ],
      "stateMutability": "view",
      "type": "function"
    },
    {
      "inputs": [],
      "name": "MINT_ACCESS_ROLE",
      "outputs": [
        {
          "internalType": "bytes32",
          "name": "",
          "type": "bytes32"
        }
      ],
      "stateMutability": "view",
      "type": "function"
    },
    {
      "inputs": [],
      "name": "PROXY_ACTIONS_ROLE",
      "outputs": [
        {
          "internalType": "bytes32",
          "name": "",
          "type": "bytes32"
        }
      ],
      "stateMutability": "view",
      "type": "function"
    },
    {
      "inputs": [],
      "name": "REWARD_ACCESS_ROLE",
      "outputs": [
        {
          "internalType": "bytes32",
          "name": "",
          "type": "bytes32"
        }
      ],
      "stateMutability": "view",
      "type": "function"
    },
    {
      "inputs": [],
      "name": "VOTING_ESCROW_ROLE",
      "outputs": [
        {
          "internalType": "bytes32",
          "name": "",
          "type": "bytes32"
        }
      ],
      "stateMutability": "view",
      "type": "function"
    },
    {
      "inputs": [],
      "name": "collateral",
      "outputs": [
        {
          "internalType": "contract IERC20Metadata",
          "name": "",
          "type": "address"
        }
      ],
      "stateMutability": "view",
      "type": "function"
    },
    {
      "inputs": [],
      "name": "collateralType",
      "outputs": [
        {
          "internalType": "bytes32",
          "name": "",
          "type": "bytes32"
        }
      ],
      "stateMutability": "view",
      "type": "function"
    },
    {
      "inputs": [],
      "name": "contractEnabled",
      "outputs": [
        {
          "internalType": "uint256",
          "name": "",
          "type": "uint256"
        }
      ],
      "stateMutability": "view",
      "type": "function"
    },
    {
      "inputs": [],
      "name": "decimals",
      "outputs": [
        {
          "internalType": "uint256",
          "name": "",
          "type": "uint256"
        }
      ],
      "stateMutability": "view",
      "type": "function"
    },
    {
      "inputs": [],
      "name": "disableContract",
      "outputs": [],
      "stateMutability": "nonpayable",
      "type": "function"
    },
    {
      "inputs": [
        {
          "internalType": "address",
          "name": "usr",
          "type": "address"
        },
        {
          "internalType": "uint256",
          "name": "amt",
          "type": "uint256"
        }
      ],
      "name": "exit",
      "outputs": [],
      "stateMutability": "nonpayable",
      "type": "function"
    },
    {
      "inputs": [
        {
          "internalType": "address",
          "name": "accessControlSingleton",
          "type": "address"
        },
        {
          "internalType": "address",
          "name": "safeEngine_",
          "type": "address"
        },
        {
          "internalType": "bytes32",
          "name": "collateralType_",
          "type": "bytes32"
        },
        {
          "internalType": "address",
          "name": "collateral_",
          "type": "address"
        }
      ],
      "name": "initialize",
      "outputs": [],
      "stateMutability": "nonpayable",
      "type": "function"
    },
    {
      "inputs": [
        {
          "internalType": "address",
          "name": "usr",
          "type": "address"
        },
        {
          "internalType": "uint256",
          "name": "amt",
          "type": "uint256"
        }
      ],
      "name": "join",
      "outputs": [],
      "stateMutability": "nonpayable",
      "type": "function"
    },
    {
      "inputs": [],
      "name": "safeEngine",
      "outputs": [
        {
          "internalType": "contract ISafeEngine",
          "name": "",
          "type": "address"
        }
      ],
      "stateMutability": "view",
      "type": "function"
    },
    {
      "inputs": [
        {
          "internalType": "bytes4",
          "name": "interfaceId",
          "type": "bytes4"
        }
      ],
      "name": "supportsInterface",
      "outputs": [
        {
          "internalType": "bool",
          "name": "",
          "type": "bool"
        }
      ],
      "stateMutability": "view",
      "type": "function"
    }
  ],
  "numDeployments": 1,
  "solcInputHash": "8c060bc8c39a7272c2849a174b3b4791",
  "bytecode": "0x608080604052346100c1576000549060ff8260081c1661006f575060ff80821603610034575b604051610d7190816100c78239f35b60ff90811916176000557f7f26b83ff96e1f2b6a682f133852f6798a09c465da95921460cefb3847402498602060405160ff8152a138610025565b62461bcd60e51b815260206004820152602760248201527f496e697469616c697a61626c653a20636f6e747261637420697320696e697469604482015266616c697a696e6760c81b6064820152608490fd5b600080fdfe608060408181526004908136101561001657600080fd5b600092833560e01c90816301ffc9a714610b225750806303ee9f2214610af6578063313ce56714610ad75780633b4da69f1461091f57806341b3a0d914610900578063438280dd146108c557806367aea3131461089c57806371d0fb411461086157806375b238fc14610846578063894ba833146107805780638e5313e014610745578063a31ee5b014610449578063b38234f31461040e578063bd5f5be6146103d3578063d0e8fa8214610398578063d2351cee1461036f578063d8dfeb4514610346578063dc97e84e1461030b578063e824600f146102ec578063e9c26518146102ad5763ef693bed1461010b57600080fd5b346102a957806003193601126102a957610123610bb7565b9060243591603654601203601281116102965761014261014891610c31565b84610c55565b600160ff1b61015981831115610c68565b6033546034546001600160a01b03939184169282146102835790829189933b1561027f576101a492898580948a5196879586948593632508c12f60e11b855285039133918501610cae565b03925af180156102755761025d575b50508060446020926035541693888651958694859363a9059cbb60e01b855216809a8401528860248401525af1908115610253579161021e7f22d324652c93739755cf4581508b60875ebdd78c20c0cff5cf8e23452b29963194926020948891610226575b50610ccf565b51908152a280f35b6102469150853d811161024c575b61023e8183610bf6565b810190610c19565b38610218565b503d610234565b82513d87823e3d90fd5b61026690610bcd565b6102715785386101b3565b8580fd5b85513d84823e3d90fd5b8380fd5b634e487b7160e01b895260118852602489fd5b634e487b7160e01b865260118552602486fd5b8280fd5b8382346102e857816003193601126102e857602090517f3b5d4cc60d3ec3516ee8ae083bd60934f6eb2a6c54b1229985c41bfb092b26038152f35b5080fd5b8382346102e857816003193601126102e8576020906034549051908152f35b8382346102e857816003193601126102e857602090517f9a9aef7c1247d5fc769b0185c052913e39673da29a880317dfd20ebf86f26a498152f35b8382346102e857816003193601126102e85760355490516001600160a01b039091168152602090f35b8382346102e857816003193601126102e85760209051600080516020610d1c8339815191528152f35b8382346102e857816003193601126102e857602090517f76d0567582f23e1e9d7a13eeba60f9aea9d69b8da87ca27a8bf3698b35c653db8152f35b8382346102e857816003193601126102e857602090517f4f14c8366fa999817edc9f29824eb88a00cc31225e2156f399da4bc91049eb108152f35b8382346102e857816003193601126102e857602090517fd83f5343da19b478b15a140c301a868be9e02603958f38fbd822b9d5c0a289168152f35b5090346102a95760803660031901126102a957610464610bb7565b916001600160a01b039160243583811690819003610740576064358481168091036107405786549260ff92838560081c161594858096610734575b801561071e575b156106c45760ff1981166001178a55856106b3575b50885496848860081c161561065c5762010000600160b01b0360108a901b1662010000600160b01b0319891681178b55981680159081156105f8575b506105e9576001603755603380546001600160a01b031990811690921790556044356034556035805491821684179055855163313ce56760e01b8152926020928492909183918c16175afa9081156105df5787916105a1575b501660365561055d578380f35b610100600160b01b0319909116909117825551600181527f7f26b83ff96e1f2b6a682f133852f6798a09c465da95921460cefb384740249890602090a13880808380f35b90506020813d82116105d7575b816105bb60209383610bf6565b810103126105d3575181811681036105d35738610550565b8680fd5b3d91506105ae565b84513d89823e3d90fd5b5084516384d942fd60e01b8152fd5b87516301ffc9a760e01b8152637965db0b60e01b858201529150602090829060249082905afa908115610652578a91610634575b5015386104f7565b61064c915060203d811161024c5761023e8183610bf6565b3861062c565b87513d8c823e3d90fd5b865162461bcd60e51b8152602081850152602b60248201527f496e697469616c697a61626c653a20636f6e7472616374206973206e6f74206960448201526a6e697469616c697a696e6760a81b6064820152608490fd5b61ffff1916610101178955386104bb565b865162461bcd60e51b8152602081850152602e60248201527f496e697469616c697a61626c653a20636f6e747261637420697320616c72656160448201526d191e481a5b9a5d1a585b1a5e995960921b6064820152608490fd5b50303b1580156104a657506001858216146104a6565b5060018582161061049f565b600080fd5b8382346102e857816003193601126102e857602090517fe453bacb314e78dcd5192e6b1a2b1f0e7c76e92f6b7e429a6a90f04e39db3b768152f35b50346102a957826003193601126102a95782548151632474521560e21b8152600080516020610d1c83398151915284820152336024820152906020908290604490829060101c6001600160a01b03165afa90811561083c57849161081e575b50156108115782806037557f2d4b4ecff7bd7503135271925520a2f6c0d98c9473ffc1a1e72c92502f51b25e8180a180f35b5163bb0684b760e01b8152fd5b610836915060203d811161024c5761023e8183610bf6565b386107df565b82513d86823e3d90fd5b8382346102e857816003193601126102e85751908152602090f35b8382346102e857816003193601126102e857602090517f880a91047114272656e533301261260c75e4d11543ac7303d6fe4204579ec7278152f35b8382346102e857816003193601126102e85760335490516001600160a01b039091168152602090f35b8382346102e857816003193601126102e857602090517f39f61ca2a1a28fee144218173ec637b649a353e4026b2738c673800e5bf1437b8152f35b8382346102e857816003193601126102e8576020906037549051908152f35b5090346102a957816003193601126102a957610939610bb7565b60243592600160375403610a8a5760365460120360128111610a775761096161096791610c31565b85610c55565b9261097486851215610c68565b6033546034546001600160a01b039590918891908716803b156102a95786836109b295885196879586948593632508c12f60e11b85528b8501610cae565b03925af18015610a6d57610a5b575b50602086916064866035541691855194859384926323b872dd60e01b845233908401523060248401528a60448401525af1908115610a515791610a30602094927fb4e09949657f21548b58afe74e7b86cd2295da5ff1598ae1e5faecb1cf19ca9596948991610a3a5750610ccf565b519485521692a280f35b6102469150863d811161024c5761023e8183610bf6565b82513d88823e3d90fd5b95610a67602097610bcd565b956109c1565b83513d89823e3d90fd5b634e487b7160e01b865260118452602486fd5b5162461bcd60e51b8152602081840152602260248201527f436f6c6c61746572616c4a6f696e2f6e6f742d636f6e7472616374456e61626c604482015261195960f21b6064820152608490fd5b8382346102e857816003193601126102e8576020906036549051908152f35b8382346102e857816003193601126102e8579054905160109190911c6001600160a01b03168152602090f35b9290503461027f57602036600319011261027f57803563ffffffff60e01b8116809103610bb35784546301ffc9a760e01b8552918401526020908390602490829060101c6001600160a01b03165afa918215610ba95760209392610b8a575b50519015158152f35b610ba2919250833d811161024c5761023e8183610bf6565b9038610b81565b81513d85823e3d90fd5b8480fd5b600435906001600160a01b038216820361074057565b6001600160401b038111610be057604052565b634e487b7160e01b600052604160045260246000fd5b601f909101601f19168101906001600160401b03821190821017610be057604052565b90816020910312610740575180151581036107405790565b604d8111610c3f57600a0a90565b634e487b7160e01b600052601160045260246000fd5b81810292918115918404141715610c3f57565b15610c6f57565b60405162461bcd60e51b8152602060048201526017602482015276436f6c6c61746572616c4a6f696e2f6f766572666c6f7760481b6044820152606490fd5b9081526001600160a01b039091166020820152604081019190915260600190565b15610cd657565b60405162461bcd60e51b815260206004820152601e60248201527f436f6c6c61746572616c4a6f696e2f6661696c65642d7472616e7366657200006044820152606490fdfeb0fdd1623e42dbffda4acd8bd643e1cb69f00f0e83abeaa8150ee42cf0fd105ea2646970667358221220c6a70a0a308de64fb818339a506f272fdd67e4d3bc26848459fcb905db2cb69064736f6c63430008110033",
  "devdoc": {
    "custom:changes": "Renamed from GemJoin5.sol to CollateralJoinDecimals.sol. Added `Join` and `Exit` events. Replaced                 MakerDAOs authorizedAccounts with SuAuthenticated for access control.",
    "custom:events": "Emits `Join`, `Exit`, and `DisableContract` for state changes and operations.",
    "custom:security": "Only authorized accounts (DisablerAccess) can disable the contract. Token transfers require user                 approval, and SafeEngine enforces balance updates. The contract adjusts amounts for tokens with                 decimals less than 18.",
    "custom:usage": "- **Initialization**: Deploy with access control, SafeEngine, collateral type, and collateral token addresses.   ```solidity   CollateralJoinDecimals collateralJoin = new CollateralJoinDecimals(accessControl, safeEngine, \"USDC-A\", collateralToken);   ``` - **Deposit Collateral**: Join collateral tokens into a Safe.   ```solidity   collateralJoin.join(user, amount);   ``` - **Withdraw Collateral**: Exit collateral tokens from a Safe.   ```solidity   collateralJoin.exit(user, amount);   ``` - **Disabling**: Disable the contract to halt operations.   ```solidity   collateralJoin.disableContract();   ```",
    "details": "Bridges external ERC20 collateral tokens with the SafeEngines internal collateral balances, converting token amounts      to 18-decimal WAD precision for SafeEngine compatibility. Handles token transfers and SafeEngine balance updates      for Safe operations. This contract is a fork of MakerDAOs GemJoin5.sol, adapted for StableUnit with added events      and SuAuthenticated access control.",
    "kind": "dev",
    "methods": {
      "constructor": {
        "custom:oz-upgrades-unsafe-allow": "constructor"
      },
      "disableContract()": {
        "details": "Sets `contractEnabled` to 0 and emits an event. Only callable by DisablerAccess."
      },
      "exit(address,uint256)": {
        "details": "Converts token amount to 18-decimal WAD precision, decreases the SafeEngines collateral balance, and      transfers tokens to the user. Ensures the amount does not cause overflow in SafeEngine.",
        "params": {
          "amt": "Amount of collateral to withdraw [in tokens decimal precision].",
          "usr": "Address to receive the collateral tokens."
        }
      },
      "initialize(address,address,bytes32,address)": {
        "details": "Sets up references, enables the contract, and retrieves collateral token decimals.",
        "params": {
          "accessControlSingleton": "Address of the access control singleton.",
          "collateralType_": "Unique identifier for the collateral type.",
          "collateral_": "Address of the collateral token contract.",
          "safeEngine_": "Address of the SafeEngine contract."
        }
      },
      "join(address,uint256)": {
        "details": "Converts token amount to 18-decimal WAD precision, transfers tokens from the caller, and increases the      SafeEngines collateral balance. Requires the contract to be enabled.",
        "params": {
          "amt": "Amount of collateral to deposit [in tokens decimal precision].",
          "usr": "Address to credit the collateral balance (Safe handler)."
        }
      },
      "supportsInterface(bytes4)": {
        "details": "Returns true if this contract implements the interface defined by `interfaceId`. See the corresponding https://eips.ethereum.org/EIPS/eip-165#how-interfaces-are-identified[EIP section] to learn more about how these ids are created. This function call must use less than 30 000 gas."
      }
    },
    "title": "CollateralJoinDecimals",
    "version": 1
  },
  "userdoc": {
    "kind": "user",
    "methods": {
      "collateral()": {
        "notice": "Reference to the external ERC20 collateral token contract."
      },
      "collateralType()": {
        "notice": "Unique identifier for the collateral type (e.g., \"USDC-A\")."
      },
      "contractEnabled()": {
        "notice": "Flag indicating if the contract is enabled (1) or disabled (0)."
      },
      "decimals()": {
        "notice": "Number of decimals for the collateral token (less than 18)."
      },
      "disableContract()": {
        "notice": "Disables the contract, halting further operations."
      },
      "exit(address,uint256)": {
        "notice": "Withdraws collateral tokens from the SafeEngine to a user."
      },
      "initialize(address,address,bytes32,address)": {
        "notice": "Initializes the CollateralJoinDecimals contract with required parameters."
      },
      "join(address,uint256)": {
        "notice": "Deposits collateral tokens into the SafeEngine for a users Safe."
      },
      "safeEngine()": {
        "notice": "Reference to the SafeEngine contract for internal collateral operations."
      }
    },
    "notice": "Adapter contract for depositing and withdrawing collateral tokens with fewer than 18 decimals into/from the StableUnit protocol.",
    "version": 1
  },
  "storageLayout": {
    "storage": [
      {
        "astId": 1226,
        "contract": "contracts/makerdao/core/adapters/CollateralJoinDecimals.sol:CollateralJoinDecimals",
        "label": "_initialized",
        "offset": 0,
        "slot": "0",
        "type": "t_uint8"
      },
      {
        "astId": 1229,
        "contract": "contracts/makerdao/core/adapters/CollateralJoinDecimals.sol:CollateralJoinDecimals",
        "label": "_initializing",
        "offset": 1,
        "slot": "0",
        "type": "t_bool"
      },
      {
        "astId": 24747,
        "contract": "contracts/makerdao/core/adapters/CollateralJoinDecimals.sol:CollateralJoinDecimals",
        "label": "ACCESS_CONTROL_SINGLETON",
        "offset": 2,
        "slot": "0",
        "type": "t_contract(ISuAccessControl)31989"
      },
      {
        "astId": 25018,
        "contract": "contracts/makerdao/core/adapters/CollateralJoinDecimals.sol:CollateralJoinDecimals",
        "label": "__gap",
        "offset": 0,
        "slot": "1",
        "type": "t_array(t_uint256)50_storage"
      },
      {
        "astId": 49345,
        "contract": "contracts/makerdao/core/adapters/CollateralJoinDecimals.sol:CollateralJoinDecimals",
        "label": "safeEngine",
        "offset": 0,
        "slot": "51",
        "type": "t_contract(ISafeEngine)53684"
      },
      {
        "astId": 49348,
        "contract": "contracts/makerdao/core/adapters/CollateralJoinDecimals.sol:CollateralJoinDecimals",
        "label": "collateralType",
        "offset": 0,
        "slot": "52",
        "type": "t_bytes32"
      },
      {
        "astId": 49352,
        "contract": "contracts/makerdao/core/adapters/CollateralJoinDecimals.sol:CollateralJoinDecimals",
        "label": "collateral",
        "offset": 0,
        "slot": "53",
        "type": "t_contract(IERC20Metadata)6943"
      },
      {
        "astId": 49355,
        "contract": "contracts/makerdao/core/adapters/CollateralJoinDecimals.sol:CollateralJoinDecimals",
        "label": "decimals",
        "offset": 0,
        "slot": "54",
        "type": "t_uint256"
      },
      {
        "astId": 49411,
        "contract": "contracts/makerdao/core/adapters/CollateralJoinDecimals.sol:CollateralJoinDecimals",
        "label": "contractEnabled",
        "offset": 0,
        "slot": "55",
        "type": "t_uint256"
      }
    ],
    "types": {
      "t_array(t_uint256)50_storage": {
        "base": "t_uint256",
        "encoding": "inplace",
        "label": "uint256[50]",
        "numberOfBytes": "1600"
      },
      "t_bool": {
        "encoding": "inplace",
        "label": "bool",
        "numberOfBytes": "1"
      },
      "t_bytes32": {
        "encoding": "inplace",
        "label": "bytes32",
        "numberOfBytes": "32"
      },
      "t_contract(IERC20Metadata)6943": {
        "encoding": "inplace",
        "label": "contract IERC20Metadata",
        "numberOfBytes": "20"
      },
      "t_contract(ISafeEngine)53684": {
        "encoding": "inplace",
        "label": "contract ISafeEngine",
        "numberOfBytes": "20"
      },
      "t_contract(ISuAccessControl)31989": {
        "encoding": "inplace",
        "label": "contract ISuAccessControl",
        "numberOfBytes": "20"
      },
      "t_uint256": {
        "encoding": "inplace",
        "label": "uint256",
        "numberOfBytes": "32"
      },
      "t_uint8": {
        "encoding": "inplace",
        "label": "uint8",
        "numberOfBytes": "1"
      }
    }
  }
}