{
  "address": "0x3FF07d3740C03639b6659dcAce39ab998EF90C26",
  "abi": [
    {
      "inputs": [],
      "stateMutability": "nonpayable",
      "type": "constructor"
    },
    {
      "inputs": [],
      "name": "BadAccessControlSingleton",
      "type": "error"
    },
    {
      "inputs": [],
      "name": "OnlyAdminError",
      "type": "error"
    },
    {
      "inputs": [],
      "name": "OnlyAlerterError",
      "type": "error"
    },
    {
      "inputs": [],
      "name": "OnlyCDPAccessError",
      "type": "error"
    },
    {
      "inputs": [],
      "name": "OnlyDAOError",
      "type": "error"
    },
    {
      "inputs": [],
      "name": "OnlyDisablerAccessError",
      "type": "error"
    },
    {
      "inputs": [],
      "name": "OnlyLiquidationAccessError",
      "type": "error"
    },
    {
      "inputs": [],
      "name": "OnlyMintAccessError",
      "type": "error"
    },
    {
      "inputs": [],
      "name": "OnlyProxyActionsError",
      "type": "error"
    },
    {
      "inputs": [],
      "name": "OnlyRewardAccessError",
      "type": "error"
    },
    {
      "inputs": [],
      "name": "OnlyRoleError",
      "type": "error"
    },
    {
      "inputs": [],
      "name": "OnlyVaultAccessError",
      "type": "error"
    },
    {
      "inputs": [],
      "name": "OnlyVotingEscrowError",
      "type": "error"
    },
    {
      "inputs": [],
      "name": "onlyAuctionAccessRole",
      "type": "error"
    },
    {
      "anonymous": false,
      "inputs": [
        {
          "indexed": false,
          "internalType": "uint256",
          "name": "id",
          "type": "uint256"
        }
      ],
      "name": "CancelAuction",
      "type": "event"
    },
    {
      "anonymous": false,
      "inputs": [],
      "name": "DisableContract",
      "type": "event"
    },
    {
      "anonymous": false,
      "inputs": [
        {
          "indexed": false,
          "internalType": "uint8",
          "name": "version",
          "type": "uint8"
        }
      ],
      "name": "Initialized",
      "type": "event"
    },
    {
      "anonymous": false,
      "inputs": [
        {
          "indexed": true,
          "internalType": "bytes32",
          "name": "parameter",
          "type": "bytes32"
        },
        {
          "indexed": false,
          "internalType": "uint256",
          "name": "data",
          "type": "uint256"
        }
      ],
      "name": "ModifyParameters",
      "type": "event"
    },
    {
      "anonymous": false,
      "inputs": [
        {
          "indexed": true,
          "internalType": "bytes32",
          "name": "parameter",
          "type": "bytes32"
        },
        {
          "indexed": false,
          "internalType": "address",
          "name": "data",
          "type": "address"
        }
      ],
      "name": "ModifyParameters",
      "type": "event"
    },
    {
      "anonymous": false,
      "inputs": [
        {
          "indexed": false,
          "internalType": "uint256",
          "name": "id",
          "type": "uint256"
        }
      ],
      "name": "SettleAuction",
      "type": "event"
    },
    {
      "anonymous": false,
      "inputs": [
        {
          "indexed": false,
          "internalType": "uint256",
          "name": "id",
          "type": "uint256"
        },
        {
          "indexed": false,
          "internalType": "address",
          "name": "tokenToSell",
          "type": "address"
        },
        {
          "indexed": false,
          "internalType": "uint256",
          "name": "amountToSell",
          "type": "uint256"
        },
        {
          "indexed": false,
          "internalType": "address",
          "name": "sender",
          "type": "address"
        }
      ],
      "name": "StartAuction",
      "type": "event"
    },
    {
      "inputs": [],
      "name": "ACCESS_CONTROL_SINGLETON",
      "outputs": [
        {
          "internalType": "contract ISuAccessControl",
          "name": "",
          "type": "address"
        }
      ],
      "stateMutability": "view",
      "type": "function"
    },
    {
      "inputs": [],
      "name": "ADMIN_ROLE",
      "outputs": [
        {
          "internalType": "bytes32",
          "name": "",
          "type": "bytes32"
        }
      ],
      "stateMutability": "view",
      "type": "function"
    },
    {
      "inputs": [],
      "name": "ALERTER_ROLE",
      "outputs": [
        {
          "internalType": "bytes32",
          "name": "",
          "type": "bytes32"
        }
      ],
      "stateMutability": "view",
      "type": "function"
    },
    {
      "inputs": [],
      "name": "AUCTION_ACCESS_ROLE",
      "outputs": [
        {
          "internalType": "bytes32",
          "name": "",
          "type": "bytes32"
        }
      ],
      "stateMutability": "view",
      "type": "function"
    },
    {
      "inputs": [],
      "name": "CDP_ACCESS_ROLE",
      "outputs": [
        {
          "internalType": "bytes32",
          "name": "",
          "type": "bytes32"
        }
      ],
      "stateMutability": "view",
      "type": "function"
    },
    {
      "inputs": [],
      "name": "DAO_ROLE",
      "outputs": [
        {
          "internalType": "bytes32",
          "name": "",
          "type": "bytes32"
        }
      ],
      "stateMutability": "view",
      "type": "function"
    },
    {
      "inputs": [],
      "name": "DISABLER_ROLE",
      "outputs": [
        {
          "internalType": "bytes32",
          "name": "",
          "type": "bytes32"
        }
      ],
      "stateMutability": "view",
      "type": "function"
    },
    {
      "inputs": [],
      "name": "LIQUIDATION_ACCESS_ROLE",
      "outputs": [
        {
          "internalType": "bytes32",
          "name": "",
          "type": "bytes32"
        }
      ],
      "stateMutability": "view",
      "type": "function"
    },
    {
      "inputs": [],
      "name": "MINT_ACCESS_ROLE",
      "outputs": [
        {
          "internalType": "bytes32",
          "name": "",
          "type": "bytes32"
        }
      ],
      "stateMutability": "view",
      "type": "function"
    },
    {
      "inputs": [],
      "name": "PROXY_ACTIONS_ROLE",
      "outputs": [
        {
          "internalType": "bytes32",
          "name": "",
          "type": "bytes32"
        }
      ],
      "stateMutability": "view",
      "type": "function"
    },
    {
      "inputs": [],
      "name": "REWARD_ACCESS_ROLE",
      "outputs": [
        {
          "internalType": "bytes32",
          "name": "",
          "type": "bytes32"
        }
      ],
      "stateMutability": "view",
      "type": "function"
    },
    {
      "inputs": [],
      "name": "VOTING_ESCROW_ROLE",
      "outputs": [
        {
          "internalType": "bytes32",
          "name": "",
          "type": "bytes32"
        }
      ],
      "stateMutability": "view",
      "type": "function"
    },
    {
      "inputs": [],
      "name": "accountingEngine",
      "outputs": [
        {
          "internalType": "contract IAccountingEngine",
          "name": "",
          "type": "address"
        }
      ],
      "stateMutability": "view",
      "type": "function"
    },
    {
      "inputs": [
        {
          "internalType": "uint256",
          "name": "",
          "type": "uint256"
        }
      ],
      "name": "bids",
      "outputs": [
        {
          "internalType": "address",
          "name": "tokenToSell",
          "type": "address"
        },
        {
          "internalType": "uint256",
          "name": "amountToSell",
          "type": "uint256"
        },
        {
          "internalType": "address",
          "name": "sender",
          "type": "address"
        }
      ],
      "stateMutability": "view",
      "type": "function"
    },
    {
      "inputs": [
        {
          "internalType": "uint256",
          "name": "id",
          "type": "uint256"
        }
      ],
      "name": "cancelAuction",
      "outputs": [],
      "stateMutability": "nonpayable",
      "type": "function"
    },
    {
      "inputs": [],
      "name": "contractEnabled",
      "outputs": [
        {
          "internalType": "uint256",
          "name": "",
          "type": "uint256"
        }
      ],
      "stateMutability": "view",
      "type": "function"
    },
    {
      "inputs": [
        {
          "internalType": "uint256",
          "name": "id",
          "type": "uint256"
        },
        {
          "internalType": "uint256",
          "name": "collateralAmount",
          "type": "uint256"
        },
        {
          "internalType": "uint256",
          "name": "bid",
          "type": "uint256"
        }
      ],
      "name": "decreaseSoldAmount",
      "outputs": [],
      "stateMutability": "nonpayable",
      "type": "function"
    },
    {
      "inputs": [],
      "name": "disableContract",
      "outputs": [],
      "stateMutability": "nonpayable",
      "type": "function"
    },
    {
      "inputs": [],
      "name": "discountType",
      "outputs": [
        {
          "internalType": "uint256",
          "name": "",
          "type": "uint256"
        }
      ],
      "stateMutability": "view",
      "type": "function"
    },
    {
      "inputs": [],
      "name": "exchange",
      "outputs": [
        {
          "internalType": "contract IExchange",
          "name": "",
          "type": "address"
        }
      ],
      "stateMutability": "view",
      "type": "function"
    },
    {
      "inputs": [
        {
          "internalType": "uint256",
          "name": "id",
          "type": "uint256"
        },
        {
          "internalType": "uint256",
          "name": "collateralAmount",
          "type": "uint256"
        },
        {
          "internalType": "uint256",
          "name": "bid",
          "type": "uint256"
        }
      ],
      "name": "increaseBidSize",
      "outputs": [],
      "stateMutability": "nonpayable",
      "type": "function"
    },
    {
      "inputs": [
        {
          "internalType": "address",
          "name": "accessControl",
          "type": "address"
        },
        {
          "internalType": "address",
          "name": "accountingEngine_",
          "type": "address"
        },
        {
          "internalType": "address",
          "name": "exchange_",
          "type": "address"
        },
        {
          "internalType": "address",
          "name": "protocolToken_",
          "type": "address"
        }
      ],
      "name": "initialize",
      "outputs": [],
      "stateMutability": "nonpayable",
      "type": "function"
    },
    {
      "inputs": [
        {
          "internalType": "bytes32",
          "name": "what",
          "type": "bytes32"
        },
        {
          "internalType": "address",
          "name": "data",
          "type": "address"
        }
      ],
      "name": "modifyParameters",
      "outputs": [],
      "stateMutability": "nonpayable",
      "type": "function"
    },
    {
      "inputs": [
        {
          "internalType": "bytes32",
          "name": "what",
          "type": "bytes32"
        },
        {
          "internalType": "uint256",
          "name": "data",
          "type": "uint256"
        }
      ],
      "name": "modifyParameters",
      "outputs": [],
      "stateMutability": "nonpayable",
      "type": "function"
    },
    {
      "inputs": [],
      "name": "protocolToken",
      "outputs": [
        {
          "internalType": "address",
          "name": "",
          "type": "address"
        }
      ],
      "stateMutability": "view",
      "type": "function"
    },
    {
      "inputs": [
        {
          "internalType": "uint256",
          "name": "id",
          "type": "uint256"
        }
      ],
      "name": "restartAuction",
      "outputs": [],
      "stateMutability": "nonpayable",
      "type": "function"
    },
    {
      "inputs": [
        {
          "internalType": "uint256",
          "name": "id",
          "type": "uint256"
        }
      ],
      "name": "settleAuction",
      "outputs": [],
      "stateMutability": "nonpayable",
      "type": "function"
    },
    {
      "inputs": [
        {
          "internalType": "address",
          "name": "",
          "type": "address"
        },
        {
          "internalType": "uint256",
          "name": "amountToSell",
          "type": "uint256"
        },
        {
          "internalType": "address",
          "name": "tokenToSell",
          "type": "address"
        }
      ],
      "name": "startAuction",
      "outputs": [
        {
          "internalType": "uint256",
          "name": "id",
          "type": "uint256"
        }
      ],
      "stateMutability": "nonpayable",
      "type": "function"
    },
    {
      "inputs": [
        {
          "internalType": "bytes4",
          "name": "interfaceId",
          "type": "bytes4"
        }
      ],
      "name": "supportsInterface",
      "outputs": [
        {
          "internalType": "bool",
          "name": "",
          "type": "bool"
        }
      ],
      "stateMutability": "view",
      "type": "function"
    }
  ],
  "numDeployments": 1,
  "solcInputHash": "8f84b6f1e4072e92a972e80f9a9e23c6",
  "bytecode": "0x608060405234801561001057600080fd5b5061001961001e565b6100dd565b600054610100900460ff161561008a5760405162461bcd60e51b815260206004820152602760248201527f496e697469616c697a61626c653a20636f6e747261637420697320696e697469604482015266616c697a696e6760c81b606482015260840160405180910390fd5b60005460ff908116146100db576000805460ff191660ff9081179091556040519081527f7f26b83ff96e1f2b6a682f133852f6798a09c465da95921460cefb38474024989060200160405180910390a15b565b611ad4806100ec6000396000f3fe608060405234801561001057600080fd5b506004361061015f5760003560e01c806301ffc9a71461016457806303ee9f221461018c5780631a465fe1146101b25780632e993611146101c5578063340517c9146101da5780633f400be4146101fd57806341b3a0d914610206578063438280dd1461020f5780634423c5f1146102365780635a93f0311461029a5780636614f010146102ad57806371d0fb41146102c057806375b238fc146102e7578063894ba833146102ef5780638e5313e0146102f7578063961d45c41461031e57806396b5a75514610331578063b38234f314610344578063bd5f5be61461036b578063bf43f95114610392578063d0e8fa82146103a5578063d2351cee146103cc578063d25ccf53146103e1578063d2f7265a146103f2578063dc97e84e14610405578063e9c265181461041a578063f8c8765e1461042f578063fe4f589014610442578063ff6b7b1c1461029a575b600080fd5b610177610172366004611696565b610455565b60405190151581526020015b60405180910390f35b6000546101a5906201000090046001600160a01b031681565b60405161018391906116c7565b6037546101a5906001600160a01b031681565b6101d86101d33660046116db565b6104d2565b005b6101ef600080516020611a8883398151915281565b604051908152602001610183565b6101ef60385481565b6101ef60365481565b6101ef7f39f61ca2a1a28fee144218173ec637b649a353e4026b2738c673800e5bf1437b81565b6102706102443660046116db565b6033602052600090815260409020805460018201546002909201546001600160a01b0391821692911683565b604080516001600160a01b0394851681526020810193909352921691810191909152606001610183565b6101d86102a83660046116f4565b505050565b6101d86102bb366004611735565b61079a565b6101ef7f880a91047114272656e533301261260c75e4d11543ac7303d6fe4204579ec72781565b6101ef600081565b6101d86108e2565b6101ef7fe453bacb314e78dcd5192e6b1a2b1f0e7c76e92f6b7e429a6a90f04e39db3b7681565b6034546101a5906001600160a01b031681565b6101d861033f3660046116db565b6109b5565b6101ef7fd83f5343da19b478b15a140c301a868be9e02603958f38fbd822b9d5c0a2891681565b6101ef7f4f14c8366fa999817edc9f29824eb88a00cc31225e2156f399da4bc91049eb1081565b6101ef6103a0366004611765565b610c34565b6101ef7f76d0567582f23e1e9d7a13eeba60f9aea9d69b8da87ca27a8bf3698b35c653db81565b6101ef600080516020611aa883398151915281565b6101d86103ef3660046116db565b50565b6035546101a5906001600160a01b031681565b6101ef600080516020611a6883398151915281565b6101ef600080516020611a4883398151915281565b6101d861043d3660046117a7565b610ee2565b6101d8610450366004611803565b611046565b600080546040516301ffc9a760e01b8152620100009091046001600160a01b0316906301ffc9a79061048b908590600401611825565b602060405180830381865afa1580156104a8573d6000803e3d6000fd5b505050506040513d601f19601f820116820180604052508101906104cc919061183a565b92915050565b60008181526033602052604081206001015490036105375760405162461bcd60e51b815260206004820152601d60248201527f4465627441756374696f6e486f7573652f6e6f742d66696e697368656400000060448201526064015b60405180910390fd5b60355460405163d09ef24160e01b8152600481018390526000916001600160a01b03169063d09ef2419060240161010060405180830381865afa158015610582573d6000803e3d6000fd5b505050506040513d601f19601f820116820180604052508101906105a69190611894565b905080608001516000146105fc5760405162461bcd60e51b815260206004820152601d60248201527f4465627441756374696f6e486f7573652f6e6f742d6578656375746564000000604482015260640161052e565b6037546040516370a0823160e01b81526000916001600160a01b0316906370a082319061062d9030906004016116c7565b602060405180830381865afa15801561064a573d6000803e3d6000fd5b505050506040513d601f19601f8201168201806040525081019061066e9190611958565b603454604051635d49502b60e01b8152600481018390529192506001600160a01b031690635d49502b90602401600060405180830381600087803b1580156106b557600080fd5b505af11580156106c9573d6000803e3d6000fd5b5050603454604051633dc4ab1d60e01b8152600481018590526001600160a01b039091169250633dc4ab1d9150602401600060405180830381600087803b15801561071357600080fd5b505af1158015610727573d6000803e3d6000fd5b50505060008481526033602052604080822080546001600160a01b0319908116825560018201939093556002018054909216909155517f03af424b0e12d91ea31fe7f2c199fc02c9ede38f9aa1bdc019a8087b41445f7a915061078d9085815260200190565b60405180910390a1505050565b600054604051632474521560e21b8152620100009091046001600160a01b0316906391d14854906107df90600080516020611a48833981519152903390600401611971565b602060405180830381865afa1580156107fc573d6000803e3d6000fd5b505050506040513d601f19601f82011682018060405250810190610820919061183a565b61083d5760405163599a6c3360e11b815260040160405180910390fd5b816f6163636f756e74696e67456e67696e6560801b0361087357603480546001600160a01b0319166001600160a01b0383161790555b816c383937ba37b1b7b62a37b5b2b760991b036108a657603780546001600160a01b0319166001600160a01b0383161790555b817fd91f38cf03346b5dc15fb60f9076f866295231ad3c3841a1051f8443f25170d1826040516108d691906116c7565b60405180910390a25050565b600054604051632474521560e21b8152620100009091046001600160a01b0316906391d148549061092790600080516020611aa8833981519152903390600401611971565b602060405180830381865afa158015610944573d6000803e3d6000fd5b505050506040513d601f19601f82011682018060405250810190610968919061183a565b6109855760405163bb0684b760e01b815260040160405180910390fd5b600060368190556040517f2d4b4ecff7bd7503135271925520a2f6c0d98c9473ffc1a1e72c92502f51b25e9190a1565b600054604051632474521560e21b8152620100009091046001600160a01b0316906391d14854906109fa90600080516020611a68833981519152903390600401611971565b602060405180830381865afa158015610a17573d6000803e3d6000fd5b505050506040513d601f19601f82011682018060405250810190610a3b919061183a565b610a585760405163200ab6d960e01b815260040160405180910390fd5b60365415610aa85760405162461bcd60e51b815260206004820152601e60248201527f4465627441756374696f6e486f7573652f7374696c6c2d656e61626c65640000604482015260640161052e565b60355460405163d09ef24160e01b8152600481018390526000916001600160a01b03169063d09ef2419060240161010060405180830381865afa158015610af3573d6000803e3d6000fd5b505050506040513d601f19601f82011682018060405250810190610b179190611894565b90508060800151600003610b3d5760405162461bcd60e51b815260040161052e90611988565b6000828152603360205260408120600101549003610b6d5760405162461bcd60e51b815260040161052e90611988565b60355460405163514fcac760e01b8152600481018490526001600160a01b039091169063514fcac790602401600060405180830381600087803b158015610bb357600080fd5b505af1158015610bc7573d6000803e3d6000fd5b5050506000838152603360205260409020600281015460808401519154610bfd93506001600160a01b039081169291169061119c565b6040518281527fbea0e66c2d42b9131695ceea7d1aaa21b37e93070cde19c9b5fbd686a32592929060200160405180910390a15050565b60008054604051632474521560e21b8152620100009091046001600160a01b0316906391d1485490610c7a90600080516020611a88833981519152903390600401611971565b602060405180830381865afa158015610c97573d6000803e3d6000fd5b505050506040513d601f19601f82011682018060405250810190610cbb919061183a565b610cd85760405163200ab6d960e01b815260040160405180910390fd5b603654600114610d295760405162461bcd60e51b815260206004820152601c60248201527b1119589d105d58dd1a5bdb921bdd5cd94bdb9bdd0b595b98589b195960221b604482015260640161052e565b60008311610d795760405162461bcd60e51b815260206004820181905260248201527f4465627441756374696f6e486f7573652f7a65726f2d636f6c6c61746572616c604482015260640161052e565b603554610d93906001600160a01b038481169116856111f2565b603554603754603454603854604051633bcce46f60e21b81526001600160a01b038781166004830152602482018990529384166044820152918316606483015260ff166084820152600060a482015291169063ef3391bc9060c4016020604051808303816000875af1158015610e0d573d6000803e3d6000fd5b505050506040513d601f19601f82011682018060405250810190610e319190611958565b60408051606080820183526001600160a01b0386811680845260208085018a81523386880181815260008a815260338552899020975188549087166001600160a01b03199182161789559251600189015551600290970180549790951696909116959095179092558451868152918201529283018790528201529091507fcd7b0cb8704cefa8029a989d148d1233f2ee95cba1e14ae72be8d74c3cb1e26c9060800160405180910390a19392505050565b600054610100900460ff1615808015610f025750600054600160ff909116105b80610f235750610f11306112f6565b158015610f23575060005460ff166001145b610f865760405162461bcd60e51b815260206004820152602e60248201527f496e697469616c697a61626c653a20636f6e747261637420697320616c72656160448201526d191e481a5b9a5d1a585b1a5e995960921b606482015260840161052e565b6000805460ff191660011790558015610fa9576000805461ff0019166101001790555b610fb285611305565b603480546001600160a01b038087166001600160a01b03199283161790925560358054868416908316179055600160365560006038556037805492851692909116919091179055801561103f576000805461ff0019169055604051600181527f7f26b83ff96e1f2b6a682f133852f6798a09c465da95921460cefb38474024989060200160405180910390a15b5050505050565b600054604051632474521560e21b8152620100009091046001600160a01b0316906391d148549061108b90600080516020611a48833981519152903390600401611971565b602060405180830381865afa1580156110a8573d6000803e3d6000fd5b505050506040513d601f19601f820116820180604052508101906110cc919061183a565b6110e95760405163599a6c3360e11b815260040160405180910390fd5b816b646973636f756e745479706560a01b0361110957603881905561116a565b60405162461bcd60e51b815260206004820152603060248201527f436f6c6c61746572616c41756374696f6e486f7573652f6d6f646966792d756e60448201526f7265636f676e697a65642d706172616d60801b606482015260840161052e565b817fac7c5c1afaef770ec56ac6268cd3f2fbb1035858ead2601d6553157c33036c3a826040516108d691815260200190565b6102a88363a9059cbb60e01b84846040516024016111bb9291906119bb565b60408051601f198184030181529190526020810180516001600160e01b03166001600160e01b031990931692909217909152611433565b80158061126c5750604051636eb1769f60e11b81523060048201526001600160a01b03838116602483015284169063dd62ed3e90604401602060405180830381865afa158015611246573d6000803e3d6000fd5b505050506040513d601f19601f8201168201806040525081019061126a9190611958565b155b6112d75760405162461bcd60e51b815260206004820152603660248201527f5361666545524332303a20617070726f76652066726f6d206e6f6e2d7a65726f60448201527520746f206e6f6e2d7a65726f20616c6c6f77616e636560501b606482015260840161052e565b6102a88363095ea7b360e01b84846040516024016111bb9291906119bb565b6001600160a01b03163b151590565b600054610100900460ff166113705760405162461bcd60e51b815260206004820152602b60248201527f496e697469616c697a61626c653a20636f6e7472616374206973206e6f74206960448201526a6e697469616c697a696e6760a81b606482015260840161052e565b6000805462010000600160b01b031916620100006001600160a01b03841690810291909117909155158061141557506040516301ffc9a760e01b81526001600160a01b038216906301ffc9a7906113d290637965db0b60e01b90600401611825565b602060405180830381865afa1580156113ef573d6000803e3d6000fd5b505050506040513d601f19601f82011682018060405250810190611413919061183a565b155b156103ef576040516384d942fd60e01b815260040160405180910390fd5b6000611488826040518060400160405280602081526020017f5361666545524332303a206c6f772d6c6576656c2063616c6c206661696c6564815250856001600160a01b03166115089092919063ffffffff16565b90508051600014806114a95750808060200190518101906114a9919061183a565b6102a85760405162461bcd60e51b815260206004820152602a60248201527f5361666545524332303a204552433230206f7065726174696f6e20646964206e6044820152691bdd081cdd58d8d9595960b21b606482015260840161052e565b6060611517848460008561151f565b949350505050565b6060824710156115805760405162461bcd60e51b815260206004820152602660248201527f416464726573733a20696e73756666696369656e742062616c616e636520666f6044820152651c8818d85b1b60d21b606482015260840161052e565b600080866001600160a01b0316858760405161159c91906119f8565b60006040518083038185875af1925050503d80600081146115d9576040519150601f19603f3d011682016040523d82523d6000602084013e6115de565b606091505b50915091506115ef878383876115fa565b979650505050505050565b6060831561166757825160000361166057611614856112f6565b6116605760405162461bcd60e51b815260206004820152601d60248201527f416464726573733a2063616c6c20746f206e6f6e2d636f6e7472616374000000604482015260640161052e565b5081611517565b611517838381511561167c5781518083602001fd5b8060405162461bcd60e51b815260040161052e9190611a14565b6000602082840312156116a857600080fd5b81356001600160e01b0319811681146116c057600080fd5b9392505050565b6001600160a01b0391909116815260200190565b6000602082840312156116ed57600080fd5b5035919050565b60008060006060848603121561170957600080fd5b505081359360208301359350604090920135919050565b6001600160a01b03811681146103ef57600080fd5b6000806040838503121561174857600080fd5b82359150602083013561175a81611720565b809150509250929050565b60008060006060848603121561177a57600080fd5b833561178581611720565b925060208401359150604084013561179c81611720565b809150509250925092565b600080600080608085870312156117bd57600080fd5b84356117c881611720565b935060208501356117d881611720565b925060408501356117e881611720565b915060608501356117f881611720565b939692955090935050565b6000806040838503121561181657600080fd5b50508035926020909101359150565b6001600160e01b031991909116815260200190565b60006020828403121561184c57600080fd5b815180151581146116c057600080fd5b805161186781611720565b919050565b80516001600160401b038116811461186757600080fd5b805160ff8116811461186757600080fd5b60006101008083850312156118a857600080fd5b604051908101906001600160401b03821181831017156118d857634e487b7160e01b600052604160045260246000fd5b816040526118e58461185c565b81526118f36020850161185c565b60208201526119046040850161185c565b60408201526119156060850161185c565b60608201526080840151608082015260a084015160a082015261193a60c0850161186c565b60c082015261194b60e08501611883565b60e0820152949350505050565b60006020828403121561196a57600080fd5b5051919050565b9182526001600160a01b0316602082015260400190565b6020808252601990820152781119589d105d58dd1a5bdb921bdd5cd94bd95e1958dd5d1959603a1b604082015260600190565b6001600160a01b03929092168252602082015260400190565b60005b838110156119ef5781810151838201526020016119d7565b50506000910152565b60008251611a0a8184602087016119d4565b9190910192915050565b6020815260008251806020840152611a338160408501602087016119d4565b601f01601f1916919091016040019291505056fe3b5d4cc60d3ec3516ee8ae083bd60934f6eb2a6c54b1229985c41bfb092b26039a9aef7c1247d5fc769b0185c052913e39673da29a880317dfd20ebf86f26a49014f8da3222812608c449a44f4705585c5ce052eeb6f9af0af9209c64b0ba2deb0fdd1623e42dbffda4acd8bd643e1cb69f00f0e83abeaa8150ee42cf0fd105ea164736f6c6343000811000a",
  "devdoc": {
    "kind": "dev",
    "methods": {
      "constructor": {
        "custom:oz-upgrades-unsafe-allow": "constructor"
      },
      "supportsInterface(bytes4)": {
        "details": "Returns true if this contract implements the interface defined by `interfaceId`. See the corresponding https://eips.ethereum.org/EIPS/eip-165#how-interfaces-are-identified[EIP section] to learn more about how these ids are created. This function call must use less than 30 000 gas."
      }
    },
    "version": 1
  },
  "userdoc": {
    "kind": "user",
    "methods": {},
    "version": 1
  },
  "storageLayout": {
    "storage": [
      {
        "astId": 1226,
        "contract": "contracts/makerdao/externalContracts/DebtAuctionHouse.sol:DebtAuctionHouse",
        "label": "_initialized",
        "offset": 0,
        "slot": "0",
        "type": "t_uint8"
      },
      {
        "astId": 1229,
        "contract": "contracts/makerdao/externalContracts/DebtAuctionHouse.sol:DebtAuctionHouse",
        "label": "_initializing",
        "offset": 1,
        "slot": "0",
        "type": "t_bool"
      },
      {
        "astId": 25605,
        "contract": "contracts/makerdao/externalContracts/DebtAuctionHouse.sol:DebtAuctionHouse",
        "label": "ACCESS_CONTROL_SINGLETON",
        "offset": 2,
        "slot": "0",
        "type": "t_contract(ISuAccessControl)32864"
      },
      {
        "astId": 25893,
        "contract": "contracts/makerdao/externalContracts/DebtAuctionHouse.sol:DebtAuctionHouse",
        "label": "__gap",
        "offset": 0,
        "slot": "1",
        "type": "t_array(t_uint256)50_storage"
      },
      {
        "astId": 92967,
        "contract": "contracts/makerdao/externalContracts/DebtAuctionHouse.sol:DebtAuctionHouse",
        "label": "bids",
        "offset": 0,
        "slot": "51",
        "type": "t_mapping(t_uint256,t_struct(Bid)92962_storage)"
      },
      {
        "astId": 92970,
        "contract": "contracts/makerdao/externalContracts/DebtAuctionHouse.sol:DebtAuctionHouse",
        "label": "accountingEngine",
        "offset": 0,
        "slot": "52",
        "type": "t_contract(IAccountingEngine)96345"
      },
      {
        "astId": 92973,
        "contract": "contracts/makerdao/externalContracts/DebtAuctionHouse.sol:DebtAuctionHouse",
        "label": "exchange",
        "offset": 0,
        "slot": "53",
        "type": "t_contract(IExchange)24402"
      },
      {
        "astId": 92975,
        "contract": "contracts/makerdao/externalContracts/DebtAuctionHouse.sol:DebtAuctionHouse",
        "label": "contractEnabled",
        "offset": 0,
        "slot": "54",
        "type": "t_uint256"
      },
      {
        "astId": 92977,
        "contract": "contracts/makerdao/externalContracts/DebtAuctionHouse.sol:DebtAuctionHouse",
        "label": "protocolToken",
        "offset": 0,
        "slot": "55",
        "type": "t_address"
      },
      {
        "astId": 92979,
        "contract": "contracts/makerdao/externalContracts/DebtAuctionHouse.sol:DebtAuctionHouse",
        "label": "discountType",
        "offset": 0,
        "slot": "56",
        "type": "t_uint256"
      }
    ],
    "types": {
      "t_address": {
        "encoding": "inplace",
        "label": "address",
        "numberOfBytes": "20"
      },
      "t_array(t_uint256)50_storage": {
        "base": "t_uint256",
        "encoding": "inplace",
        "label": "uint256[50]",
        "numberOfBytes": "1600"
      },
      "t_bool": {
        "encoding": "inplace",
        "label": "bool",
        "numberOfBytes": "1"
      },
      "t_contract(IAccountingEngine)96345": {
        "encoding": "inplace",
        "label": "contract IAccountingEngine",
        "numberOfBytes": "20"
      },
      "t_contract(IExchange)24402": {
        "encoding": "inplace",
        "label": "contract IExchange",
        "numberOfBytes": "20"
      },
      "t_contract(ISuAccessControl)32864": {
        "encoding": "inplace",
        "label": "contract ISuAccessControl",
        "numberOfBytes": "20"
      },
      "t_mapping(t_uint256,t_struct(Bid)92962_storage)": {
        "encoding": "mapping",
        "key": "t_uint256",
        "label": "mapping(uint256 => struct DebtAuctionHouse.Bid)",
        "numberOfBytes": "32",
        "value": "t_struct(Bid)92962_storage"
      },
      "t_struct(Bid)92962_storage": {
        "encoding": "inplace",
        "label": "struct DebtAuctionHouse.Bid",
        "members": [
          {
            "astId": 92957,
            "contract": "contracts/makerdao/externalContracts/DebtAuctionHouse.sol:DebtAuctionHouse",
            "label": "tokenToSell",
            "offset": 0,
            "slot": "0",
            "type": "t_address"
          },
          {
            "astId": 92959,
            "contract": "contracts/makerdao/externalContracts/DebtAuctionHouse.sol:DebtAuctionHouse",
            "label": "amountToSell",
            "offset": 0,
            "slot": "1",
            "type": "t_uint256"
          },
          {
            "astId": 92961,
            "contract": "contracts/makerdao/externalContracts/DebtAuctionHouse.sol:DebtAuctionHouse",
            "label": "sender",
            "offset": 0,
            "slot": "2",
            "type": "t_address"
          }
        ],
        "numberOfBytes": "96"
      },
      "t_uint256": {
        "encoding": "inplace",
        "label": "uint256",
        "numberOfBytes": "32"
      },
      "t_uint8": {
        "encoding": "inplace",
        "label": "uint8",
        "numberOfBytes": "1"
      }
    }
  }
}