{
  "address": "0x6459a2Ba935428DAC0f912f9AD376D964fDc42a6",
  "abi": [
    {
      "inputs": [],
      "stateMutability": "nonpayable",
      "type": "constructor"
    },
    {
      "anonymous": false,
      "inputs": [
        {
          "indexed": true,
          "internalType": "address",
          "name": "sender",
          "type": "address"
        },
        {
          "indexed": true,
          "internalType": "address",
          "name": "owner",
          "type": "address"
        },
        {
          "indexed": false,
          "internalType": "address",
          "name": "proxy",
          "type": "address"
        },
        {
          "indexed": false,
          "internalType": "address",
          "name": "cache",
          "type": "address"
        }
      ],
      "name": "Created",
      "type": "event"
    },
    {
      "inputs": [],
      "name": "build",
      "outputs": [
        {
          "internalType": "address payable",
          "name": "proxy",
          "type": "address"
        }
      ],
      "stateMutability": "nonpayable",
      "type": "function"
    },
    {
      "inputs": [
        {
          "internalType": "address",
          "name": "owner",
          "type": "address"
        }
      ],
      "name": "build",
      "outputs": [
        {
          "internalType": "address payable",
          "name": "proxy",
          "type": "address"
        }
      ],
      "stateMutability": "nonpayable",
      "type": "function"
    },
    {
      "inputs": [],
      "name": "cache",
      "outputs": [
        {
          "internalType": "contract DSProxyCache",
          "name": "",
          "type": "address"
        }
      ],
      "stateMutability": "view",
      "type": "function"
    },
    {
      "inputs": [
        {
          "internalType": "address",
          "name": "",
          "type": "address"
        }
      ],
      "name": "isProxy",
      "outputs": [
        {
          "internalType": "bool",
          "name": "",
          "type": "bool"
        }
      ],
      "stateMutability": "view",
      "type": "function"
    }
  ],
  "numDeployments": 1,
  "solcInputHash": "788a66c2895cf16a5dd420eb865f0079",
  "bytecode": "0x608060405234801561001057600080fd5b5060405161001d9061007f565b604051809103906000f080158015610039573d6000803e3d6000fd5b50600160006101000a81548173ffffffffffffffffffffffffffffffffffffffff021916908373ffffffffffffffffffffffffffffffffffffffff16021790555061008c565b61032980611c0883390190565b611b6d8061009b6000396000f3fe608060405234801561001057600080fd5b506004361061004c5760003560e01c8063297103881461005157806360c7d295146100ab5780638e1a55fc146100df578063f3701da214610113575b600080fd5b6100936004803603602081101561006757600080fd5b81019080803573ffffffffffffffffffffffffffffffffffffffff169060200190929190505050610181565b60405180821515815260200191505060405180910390f35b6100b36101a1565b604051808273ffffffffffffffffffffffffffffffffffffffff16815260200191505060405180910390f35b6100e76101c7565b604051808273ffffffffffffffffffffffffffffffffffffffff16815260200191505060405180910390f35b6101556004803603602081101561012957600080fd5b81019080803573ffffffffffffffffffffffffffffffffffffffff1690602001909291905050506101d7565b604051808273ffffffffffffffffffffffffffffffffffffffff16815260200191505060405180910390f35b60006020528060005260406000206000915054906101000a900460ff1681565b600160009054906101000a900473ffffffffffffffffffffffffffffffffffffffff1681565b60006101d2336101d7565b905090565b6000600160009054906101000a900473ffffffffffffffffffffffffffffffffffffffff16604051610208906103df565b808273ffffffffffffffffffffffffffffffffffffffff168152602001915050604051809103906000f080158015610244573d6000803e3d6000fd5b5090508173ffffffffffffffffffffffffffffffffffffffff163373ffffffffffffffffffffffffffffffffffffffff167f259b30ca39885c6d801a0b5dbc988640f3c25e2f37531fe138c5c5af8955d41b83600160009054906101000a900473ffffffffffffffffffffffffffffffffffffffff16604051808373ffffffffffffffffffffffffffffffffffffffff1681526020018273ffffffffffffffffffffffffffffffffffffffff1681526020019250505060405180910390a38073ffffffffffffffffffffffffffffffffffffffff166313af4035836040518263ffffffff1660e01b8152600401808273ffffffffffffffffffffffffffffffffffffffff168152602001915050600060405180830381600087803b15801561036b57600080fd5b505af115801561037f573d6000803e3d6000fd5b5050505060016000808373ffffffffffffffffffffffffffffffffffffffff1673ffffffffffffffffffffffffffffffffffffffff16815260200190815260200160002060006101000a81548160ff021916908315150217905550919050565b61174b806103ed8339019056fe60806040523480156200001157600080fd5b506040516200174b3803806200174b833981810160405260208110156200003757600080fd5b810190808051906020019092919050505033600160006101000a81548173ffffffffffffffffffffffffffffffffffffffff021916908373ffffffffffffffffffffffffffffffffffffffff1602179055503373ffffffffffffffffffffffffffffffffffffffff167fce241d7ca1f669fee44b6fc00b8eba2df3bb514eed0f6f668f8f89096e81ed9460405160405180910390a2620000dd81620000e560201b60201c565b505062000550565b60006200011d336000357fffffffff00000000000000000000000000000000000000000000000000000000166200033b60201b60201c565b62000190576040517f08c379a00000000000000000000000000000000000000000000000000000000081526004018080602001828103825260148152602001807f64732d617574682d756e617574686f72697a656400000000000000000000000081525060200191505060405180910390fd5b600080600060043592506024359150349050600073ffffffffffffffffffffffffffffffffffffffff168573ffffffffffffffffffffffffffffffffffffffff16141562000246576040517f08c379a000000000000000000000000000000000000000000000000000000000815260040180806020018281038252601f8152602001807f64732d70726f78792d63616368652d616464726573732d72657175697265640081525060200191505060405180910390fd5b84600260006101000a81548173ffffffffffffffffffffffffffffffffffffffff021916908373ffffffffffffffffffffffffffffffffffffffff1602179055506001935081833373ffffffffffffffffffffffffffffffffffffffff166000357fffffffff00000000000000000000000000000000000000000000000000000000167bffffffffffffffffffffffffffffffffffffffffffffffffffffffff19168460003660405180848152602001806020018281038252848482818152602001925080828437600081840152601f19601f82011690508083019250505094505050505060405180910390a4505050919050565b60003073ffffffffffffffffffffffffffffffffffffffff168373ffffffffffffffffffffffffffffffffffffffff1614156200037c57600190506200054a565b600160009054906101000a900473ffffffffffffffffffffffffffffffffffffffff1673ffffffffffffffffffffffffffffffffffffffff168373ffffffffffffffffffffffffffffffffffffffff161415620003dd57600190506200054a565b600073ffffffffffffffffffffffffffffffffffffffff1660008054906101000a900473ffffffffffffffffffffffffffffffffffffffff1673ffffffffffffffffffffffffffffffffffffffff1614156200043d57600090506200054a565b60008054906101000a900473ffffffffffffffffffffffffffffffffffffffff1673ffffffffffffffffffffffffffffffffffffffff1663b70096138430856040518463ffffffff1660e01b8152600401808473ffffffffffffffffffffffffffffffffffffffff1681526020018373ffffffffffffffffffffffffffffffffffffffff168152602001827bffffffffffffffffffffffffffffffffffffffffffffffffffffffff19168152602001935050505060206040518083038186803b1580156200050a57600080fd5b505afa1580156200051f573d6000803e3d6000fd5b505050506040513d60208110156200053657600080fd5b810190808051906020019092919050505090505b92915050565b6111eb80620005606000396000f3fe60806040526004361061007f5760003560e01c80637a9e5e4b1161004e5780637a9e5e4b146104595780638da5cb5b146104aa578063948f5076146104eb578063bf7e214f1461055257610086565b806313af40351461008b5780631cff79cd146100dc5780631f6a1eb91461023057806360c7d2951461041857610086565b3661008657005b600080fd5b34801561009757600080fd5b506100da600480360360208110156100ae57600080fd5b81019080803573ffffffffffffffffffffffffffffffffffffffff169060200190929190505050610593565b005b6101b5600480360360408110156100f257600080fd5b81019080803573ffffffffffffffffffffffffffffffffffffffff1690602001909291908035906020019064010000000081111561012f57600080fd5b82018360208201111561014157600080fd5b8035906020019184600183028401116401000000008311171561016357600080fd5b91908080601f016020809104026020016040519081016040528093929190818152602001838380828437600081840152601f19601f8201169050808301925050505050505091929192905050506106dc565b6040518080602001828103825283818151815260200191508051906020019080838360005b838110156101f55780820151818401526020810190506101da565b50505050905090810190601f1680156102225780820380516001836020036101000a031916815260200191505b509250505060405180910390f35b6103806004803603604081101561024657600080fd5b810190808035906020019064010000000081111561026357600080fd5b82018360208201111561027557600080fd5b8035906020019184600183028401116401000000008311171561029757600080fd5b91908080601f016020809104026020016040519081016040528093929190818152602001838380828437600081840152601f19601f820116905080830192505050505050509192919290803590602001906401000000008111156102fa57600080fd5b82018360208201111561030c57600080fd5b8035906020019184600183028401116401000000008311171561032e57600080fd5b91908080601f016020809104026020016040519081016040528093929190818152602001838380828437600081840152601f19601f82011690508083019250505050505050919291929050505061092e565b604051808373ffffffffffffffffffffffffffffffffffffffff16815260200180602001828103825283818151815260200191508051906020019080838360005b838110156103dc5780820151818401526020810190506103c1565b50505050905090810190601f1680156104095780820380516001836020036101000a031916815260200191505b50935050505060405180910390f35b34801561042457600080fd5b5061042d610ba7565b604051808273ffffffffffffffffffffffffffffffffffffffff16815260200191505060405180910390f35b34801561046557600080fd5b506104a86004803603602081101561047c57600080fd5b81019080803573ffffffffffffffffffffffffffffffffffffffff169060200190929190505050610bcd565b005b3480156104b657600080fd5b506104bf610d13565b604051808273ffffffffffffffffffffffffffffffffffffffff16815260200191505060405180910390f35b3480156104f757600080fd5b5061053a6004803603602081101561050e57600080fd5b81019080803573ffffffffffffffffffffffffffffffffffffffff169060200190929190505050610d39565b60405180821515815260200191505060405180910390f35b34801561055e57600080fd5b50610567610f85565b604051808273ffffffffffffffffffffffffffffffffffffffff16815260200191505060405180910390f35b6105c1336000357fffffffff0000000000000000000000000000000000000000000000000000000016610fa9565b610633576040517f08c379a00000000000000000000000000000000000000000000000000000000081526004018080602001828103825260148152602001807f64732d617574682d756e617574686f72697a656400000000000000000000000081525060200191505060405180910390fd5b80600160006101000a81548173ffffffffffffffffffffffffffffffffffffffff021916908373ffffffffffffffffffffffffffffffffffffffff160217905550600160009054906101000a900473ffffffffffffffffffffffffffffffffffffffff1673ffffffffffffffffffffffffffffffffffffffff167fce241d7ca1f669fee44b6fc00b8eba2df3bb514eed0f6f668f8f89096e81ed9460405160405180910390a250565b606061070c336000357fffffffff0000000000000000000000000000000000000000000000000000000016610fa9565b61077e576040517f08c379a00000000000000000000000000000000000000000000000000000000081526004018080602001828103825260148152602001807f64732d617574682d756e617574686f72697a656400000000000000000000000081525060200191505060405180910390fd5b600080600060043592506024359150349050600073ffffffffffffffffffffffffffffffffffffffff168673ffffffffffffffffffffffffffffffffffffffff161415610833576040517f08c379a00000000000000000000000000000000000000000000000000000000081526004018080602001828103825260208152602001807f64732d70726f78792d7461726765742d616464726573732d726571756972656481525060200191505060405180910390fd5b600080865160208801896113885a03f43d6040519550601f19601f6020830101168601604052808652806000602088013e8115600181146108735761087a565b8160208801fd5b50505081833373ffffffffffffffffffffffffffffffffffffffff166000357fffffffff00000000000000000000000000000000000000000000000000000000167bffffffffffffffffffffffffffffffffffffffffffffffffffffffff19168460003660405180848152602001806020018281038252848482818152602001925080828437600081840152601f19601f82011690508083019250505094505050505060405180910390a450505092915050565b60006060600260009054906101000a900473ffffffffffffffffffffffffffffffffffffffff1673ffffffffffffffffffffffffffffffffffffffff16638bf4515c856040518263ffffffff1660e01b81526004018080602001828103825283818151815260200191508051906020019080838360005b838110156109c05780820151818401526020810190506109a5565b50505050905090810190601f1680156109ed5780820380516001836020036101000a031916815260200191505b509250505060206040518083038186803b158015610a0a57600080fd5b505afa158015610a1e573d6000803e3d6000fd5b505050506040513d6020811015610a3457600080fd5b81019080805190602001909291905050509150600073ffffffffffffffffffffffffffffffffffffffff168273ffffffffffffffffffffffffffffffffffffffff161415610b9457600260009054906101000a900473ffffffffffffffffffffffffffffffffffffffff1673ffffffffffffffffffffffffffffffffffffffff16637ed0c3b2856040518263ffffffff1660e01b81526004018080602001828103825283818151815260200191508051906020019080838360005b83811015610b0a578082015181840152602081019050610aef565b50505050905090810190601f168015610b375780820380516001836020036101000a031916815260200191505b5092505050602060405180830381600087803b158015610b5657600080fd5b505af1158015610b6a573d6000803e3d6000fd5b505050506040513d6020811015610b8057600080fd5b810190808051906020019092919050505091505b610b9e82846106dc565b90509250929050565b600260009054906101000a900473ffffffffffffffffffffffffffffffffffffffff1681565b610bfb336000357fffffffff0000000000000000000000000000000000000000000000000000000016610fa9565b610c6d576040517f08c379a00000000000000000000000000000000000000000000000000000000081526004018080602001828103825260148152602001807f64732d617574682d756e617574686f72697a656400000000000000000000000081525060200191505060405180910390fd5b806000806101000a81548173ffffffffffffffffffffffffffffffffffffffff021916908373ffffffffffffffffffffffffffffffffffffffff16021790555060008054906101000a900473ffffffffffffffffffffffffffffffffffffffff1673ffffffffffffffffffffffffffffffffffffffff167f1abebea81bfa2637f28358c371278fb15ede7ea8dd28d2e03b112ff6d936ada460405160405180910390a250565b600160009054906101000a900473ffffffffffffffffffffffffffffffffffffffff1681565b6000610d69336000357fffffffff0000000000000000000000000000000000000000000000000000000016610fa9565b610ddb576040517f08c379a00000000000000000000000000000000000000000000000000000000081526004018080602001828103825260148152602001807f64732d617574682d756e617574686f72697a656400000000000000000000000081525060200191505060405180910390fd5b600080600060043592506024359150349050600073ffffffffffffffffffffffffffffffffffffffff168573ffffffffffffffffffffffffffffffffffffffff161415610e90576040517f08c379a000000000000000000000000000000000000000000000000000000000815260040180806020018281038252601f8152602001807f64732d70726f78792d63616368652d616464726573732d72657175697265640081525060200191505060405180910390fd5b84600260006101000a81548173ffffffffffffffffffffffffffffffffffffffff021916908373ffffffffffffffffffffffffffffffffffffffff1602179055506001935081833373ffffffffffffffffffffffffffffffffffffffff166000357fffffffff00000000000000000000000000000000000000000000000000000000167bffffffffffffffffffffffffffffffffffffffffffffffffffffffff19168460003660405180848152602001806020018281038252848482818152602001925080828437600081840152601f19601f82011690508083019250505094505050505060405180910390a4505050919050565b60008054906101000a900473ffffffffffffffffffffffffffffffffffffffff1681565b60003073ffffffffffffffffffffffffffffffffffffffff168373ffffffffffffffffffffffffffffffffffffffff161415610fe857600190506111af565b600160009054906101000a900473ffffffffffffffffffffffffffffffffffffffff1673ffffffffffffffffffffffffffffffffffffffff168373ffffffffffffffffffffffffffffffffffffffff16141561104757600190506111af565b600073ffffffffffffffffffffffffffffffffffffffff1660008054906101000a900473ffffffffffffffffffffffffffffffffffffffff1673ffffffffffffffffffffffffffffffffffffffff1614156110a557600090506111af565b60008054906101000a900473ffffffffffffffffffffffffffffffffffffffff1673ffffffffffffffffffffffffffffffffffffffff1663b70096138430856040518463ffffffff1660e01b8152600401808473ffffffffffffffffffffffffffffffffffffffff1681526020018373ffffffffffffffffffffffffffffffffffffffff168152602001827bffffffffffffffffffffffffffffffffffffffffffffffffffffffff19168152602001935050505060206040518083038186803b15801561117157600080fd5b505afa158015611185573d6000803e3d6000fd5b505050506040513d602081101561119b57600080fd5b810190808051906020019092919050505090505b9291505056fea264697066735822122004c21bc863b01afc99ec4b2da715e7ab053e3003397d28f05212ddf095f9b75664736f6c634300060c0033a2646970667358221220f029ec6091d3acad0eb181790f762d257fdef1cc86c653422c8e237ded2defe264736f6c634300060c0033608060405234801561001057600080fd5b50610309806100206000396000f3fe608060405234801561001057600080fd5b50600436106100365760003560e01c80637ed0c3b21461003b5780638bf4515c14610120575b600080fd5b6100f46004803603602081101561005157600080fd5b810190808035906020019064010000000081111561006e57600080fd5b82018360208201111561008057600080fd5b803590602001918460018302840111640100000000831117156100a257600080fd5b91908080601f016020809104026020016040519081016040528093929190818152602001838380828437600081840152601f19601f820116905080830192505050505050509192919290505050610205565b604051808273ffffffffffffffffffffffffffffffffffffffff16815260200191505060405180910390f35b6101d96004803603602081101561013657600080fd5b810190808035906020019064010000000081111561015357600080fd5b82018360208201111561016557600080fd5b8035906020019184600183028401116401000000008311171561018757600080fd5b91908080601f016020809104026020016040519081016040528093929190818152602001838380828437600081840152601f19601f82011690508083019250505050505050919291929050505061028b565b604051808273ffffffffffffffffffffffffffffffffffffffff16815260200191505060405180910390f35b60008151602083016000f09050803b156001811461022257610227565b600080fd5b506000828051906020012090508160008083815260200190815260200160002060006101000a81548173ffffffffffffffffffffffffffffffffffffffff021916908373ffffffffffffffffffffffffffffffffffffffff16021790555050919050565b6000808280519060200120905060008082815260200190815260200160002060009054906101000a900473ffffffffffffffffffffffffffffffffffffffff1691505091905056fea2646970667358221220346b282544f7d8cdc2d9be6529b191a93e579b031d16853f185341aad53b918264736f6c634300060c0033",
  "devdoc": {
    "kind": "dev",
    "methods": {},
    "version": 1
  },
  "userdoc": {
    "kind": "user",
    "methods": {},
    "version": 1
  },
  "storageLayout": {
    "storage": [
      {
        "astId": 396,
        "contract": "contracts/makerdao/utils/proxy.sol:DSProxyFactory",
        "label": "isProxy",
        "offset": 0,
        "slot": "0",
        "type": "t_mapping(t_address,t_bool)"
      },
      {
        "astId": 398,
        "contract": "contracts/makerdao/utils/proxy.sol:DSProxyFactory",
        "label": "cache",
        "offset": 0,
        "slot": "1",
        "type": "t_contract(DSProxyCache)514"
      }
    ],
    "types": {
      "t_address": {
        "encoding": "inplace",
        "label": "address",
        "numberOfBytes": "20"
      },
      "t_bool": {
        "encoding": "inplace",
        "label": "bool",
        "numberOfBytes": "1"
      },
      "t_contract(DSProxyCache)514": {
        "encoding": "inplace",
        "label": "contract DSProxyCache",
        "numberOfBytes": "20"
      },
      "t_mapping(t_address,t_bool)": {
        "encoding": "mapping",
        "key": "t_address",
        "label": "mapping(address => bool)",
        "numberOfBytes": "32",
        "value": "t_bool"
      }
    }
  }
}