{
  "address": "0x57b53f9c3BBA329E0964b213dC7AD2126f100660",
  "abi": [
    {
      "inputs": [],
      "stateMutability": "nonpayable",
      "type": "constructor"
    },
    {
      "anonymous": false,
      "inputs": [
        {
          "indexed": true,
          "internalType": "address",
          "name": "urn",
          "type": "address"
        },
        {
          "indexed": false,
          "internalType": "address",
          "name": "usr",
          "type": "address"
        },
        {
          "indexed": false,
          "internalType": "uint256",
          "name": "ok",
          "type": "uint256"
        }
      ],
      "name": "AllowHandler",
      "type": "event"
    },
    {
      "anonymous": false,
      "inputs": [
        {
          "indexed": false,
          "internalType": "uint256",
          "name": "cdpId",
          "type": "uint256"
        },
        {
          "indexed": false,
          "internalType": "address",
          "name": "usr",
          "type": "address"
        },
        {
          "indexed": false,
          "internalType": "uint256",
          "name": "ok",
          "type": "uint256"
        }
      ],
      "name": "CdpAllow",
      "type": "event"
    },
    {
      "anonymous": false,
      "inputs": [
        {
          "indexed": false,
          "internalType": "address",
          "name": "src",
          "type": "address"
        },
        {
          "indexed": false,
          "internalType": "uint256",
          "name": "cdpId",
          "type": "uint256"
        }
      ],
      "name": "Enter",
      "type": "event"
    },
    {
      "anonymous": false,
      "inputs": [
        {
          "indexed": true,
          "internalType": "address",
          "name": "cdpManager",
          "type": "address"
        }
      ],
      "name": "Initialize",
      "type": "event"
    },
    {
      "anonymous": false,
      "inputs": [
        {
          "indexed": false,
          "internalType": "uint8",
          "name": "version",
          "type": "uint8"
        }
      ],
      "name": "Initialized",
      "type": "event"
    },
    {
      "anonymous": false,
      "inputs": [
        {
          "indexed": false,
          "internalType": "uint256",
          "name": "cdpId",
          "type": "uint256"
        },
        {
          "indexed": false,
          "internalType": "int256",
          "name": "deltaCollateral",
          "type": "int256"
        },
        {
          "indexed": false,
          "internalType": "int256",
          "name": "deltaDebt",
          "type": "int256"
        }
      ],
      "name": "ModifySAFECollateralization",
      "type": "event"
    },
    {
      "anonymous": false,
      "inputs": [
        {
          "indexed": false,
          "internalType": "uint256",
          "name": "cdpSrc",
          "type": "uint256"
        },
        {
          "indexed": false,
          "internalType": "uint256",
          "name": "cdpDst",
          "type": "uint256"
        }
      ],
      "name": "MoveSAFE",
      "type": "event"
    },
    {
      "anonymous": false,
      "inputs": [
        {
          "indexed": true,
          "internalType": "address",
          "name": "usr",
          "type": "address"
        },
        {
          "indexed": true,
          "internalType": "address",
          "name": "own",
          "type": "address"
        },
        {
          "indexed": true,
          "internalType": "uint256",
          "name": "cdp",
          "type": "uint256"
        }
      ],
      "name": "NewCdp",
      "type": "event"
    },
    {
      "anonymous": false,
      "inputs": [
        {
          "indexed": false,
          "internalType": "uint256",
          "name": "cdpId",
          "type": "uint256"
        },
        {
          "indexed": false,
          "internalType": "address",
          "name": "dst",
          "type": "address"
        }
      ],
      "name": "Quit",
      "type": "event"
    },
    {
      "anonymous": false,
      "inputs": [
        {
          "indexed": false,
          "internalType": "uint256",
          "name": "cdpId",
          "type": "uint256"
        },
        {
          "indexed": false,
          "internalType": "bytes32",
          "name": "collateralType",
          "type": "bytes32"
        },
        {
          "indexed": false,
          "internalType": "address",
          "name": "dst",
          "type": "address"
        },
        {
          "indexed": false,
          "internalType": "uint256",
          "name": "wad",
          "type": "uint256"
        }
      ],
      "name": "TransferCollateral",
      "type": "event"
    },
    {
      "anonymous": false,
      "inputs": [
        {
          "indexed": false,
          "internalType": "uint256",
          "name": "cdpId",
          "type": "uint256"
        },
        {
          "indexed": false,
          "internalType": "address",
          "name": "dst",
          "type": "address"
        },
        {
          "indexed": false,
          "internalType": "uint256",
          "name": "rad",
          "type": "uint256"
        }
      ],
      "name": "TransferInternalCoins",
      "type": "event"
    },
    {
      "anonymous": false,
      "inputs": [
        {
          "indexed": false,
          "internalType": "uint256",
          "name": "cdpId",
          "type": "uint256"
        },
        {
          "indexed": false,
          "internalType": "address",
          "name": "src",
          "type": "address"
        },
        {
          "indexed": false,
          "internalType": "address",
          "name": "dst",
          "type": "address"
        }
      ],
      "name": "TransferSafeOwnership",
      "type": "event"
    },
    {
      "inputs": [
        {
          "internalType": "address",
          "name": "usr",
          "type": "address"
        },
        {
          "internalType": "uint256",
          "name": "ok",
          "type": "uint256"
        }
      ],
      "name": "allowHandler",
      "outputs": [],
      "stateMutability": "nonpayable",
      "type": "function"
    },
    {
      "inputs": [
        {
          "internalType": "uint256",
          "name": "cdp",
          "type": "uint256"
        },
        {
          "internalType": "address",
          "name": "usr",
          "type": "address"
        },
        {
          "internalType": "uint256",
          "name": "ok",
          "type": "uint256"
        }
      ],
      "name": "cdpAllow",
      "outputs": [],
      "stateMutability": "nonpayable",
      "type": "function"
    },
    {
      "inputs": [
        {
          "internalType": "address",
          "name": "",
          "type": "address"
        },
        {
          "internalType": "uint256",
          "name": "",
          "type": "uint256"
        },
        {
          "internalType": "address",
          "name": "",
          "type": "address"
        }
      ],
      "name": "cdpCan",
      "outputs": [
        {
          "internalType": "uint256",
          "name": "",
          "type": "uint256"
        }
      ],
      "stateMutability": "view",
      "type": "function"
    },
    {
      "inputs": [
        {
          "internalType": "address",
          "name": "",
          "type": "address"
        }
      ],
      "name": "cdpCount",
      "outputs": [
        {
          "internalType": "uint256",
          "name": "",
          "type": "uint256"
        }
      ],
      "stateMutability": "view",
      "type": "function"
    },
    {
      "inputs": [],
      "name": "cdpi",
      "outputs": [
        {
          "internalType": "uint256",
          "name": "",
          "type": "uint256"
        }
      ],
      "stateMutability": "view",
      "type": "function"
    },
    {
      "inputs": [
        {
          "internalType": "uint256",
          "name": "",
          "type": "uint256"
        }
      ],
      "name": "collateralTypes",
      "outputs": [
        {
          "internalType": "bytes32",
          "name": "",
          "type": "bytes32"
        }
      ],
      "stateMutability": "view",
      "type": "function"
    },
    {
      "inputs": [
        {
          "internalType": "address",
          "name": "src",
          "type": "address"
        },
        {
          "internalType": "uint256",
          "name": "cdp",
          "type": "uint256"
        }
      ],
      "name": "enter",
      "outputs": [],
      "stateMutability": "nonpayable",
      "type": "function"
    },
    {
      "inputs": [
        {
          "internalType": "address",
          "name": "",
          "type": "address"
        }
      ],
      "name": "firstCdpId",
      "outputs": [
        {
          "internalType": "uint256",
          "name": "",
          "type": "uint256"
        }
      ],
      "stateMutability": "view",
      "type": "function"
    },
    {
      "inputs": [
        {
          "internalType": "address",
          "name": "",
          "type": "address"
        },
        {
          "internalType": "address",
          "name": "",
          "type": "address"
        }
      ],
      "name": "handlerCan",
      "outputs": [
        {
          "internalType": "uint256",
          "name": "",
          "type": "uint256"
        }
      ],
      "stateMutability": "view",
      "type": "function"
    },
    {
      "inputs": [
        {
          "internalType": "address",
          "name": "safeEngine_",
          "type": "address"
        }
      ],
      "name": "initialize",
      "outputs": [],
      "stateMutability": "nonpayable",
      "type": "function"
    },
    {
      "inputs": [
        {
          "internalType": "address",
          "name": "",
          "type": "address"
        }
      ],
      "name": "lastCdpId",
      "outputs": [
        {
          "internalType": "uint256",
          "name": "",
          "type": "uint256"
        }
      ],
      "stateMutability": "view",
      "type": "function"
    },
    {
      "inputs": [
        {
          "internalType": "uint256",
          "name": "",
          "type": "uint256"
        }
      ],
      "name": "list",
      "outputs": [
        {
          "internalType": "uint256",
          "name": "prev",
          "type": "uint256"
        },
        {
          "internalType": "uint256",
          "name": "next",
          "type": "uint256"
        }
      ],
      "stateMutability": "view",
      "type": "function"
    },
    {
      "inputs": [
        {
          "internalType": "uint256",
          "name": "cdp",
          "type": "uint256"
        },
        {
          "internalType": "int256",
          "name": "deltaCollateral",
          "type": "int256"
        },
        {
          "internalType": "int256",
          "name": "deltaDebt",
          "type": "int256"
        }
      ],
      "name": "modifySAFECollateralization",
      "outputs": [],
      "stateMutability": "nonpayable",
      "type": "function"
    },
    {
      "inputs": [
        {
          "internalType": "uint256",
          "name": "cdpSrc",
          "type": "uint256"
        },
        {
          "internalType": "uint256",
          "name": "cdpDst",
          "type": "uint256"
        }
      ],
      "name": "moveSAFE",
      "outputs": [],
      "stateMutability": "nonpayable",
      "type": "function"
    },
    {
      "inputs": [
        {
          "internalType": "bytes32",
          "name": "collateralType",
          "type": "bytes32"
        },
        {
          "internalType": "address",
          "name": "usr",
          "type": "address"
        }
      ],
      "name": "openSafe",
      "outputs": [
        {
          "internalType": "uint256",
          "name": "",
          "type": "uint256"
        }
      ],
      "stateMutability": "nonpayable",
      "type": "function"
    },
    {
      "inputs": [
        {
          "internalType": "uint256",
          "name": "",
          "type": "uint256"
        }
      ],
      "name": "owns",
      "outputs": [
        {
          "internalType": "address",
          "name": "",
          "type": "address"
        }
      ],
      "stateMutability": "view",
      "type": "function"
    },
    {
      "inputs": [
        {
          "internalType": "uint256",
          "name": "cdp",
          "type": "uint256"
        },
        {
          "internalType": "address",
          "name": "dst",
          "type": "address"
        }
      ],
      "name": "quit",
      "outputs": [],
      "stateMutability": "nonpayable",
      "type": "function"
    },
    {
      "inputs": [],
      "name": "safeEngine",
      "outputs": [
        {
          "internalType": "contract ISafeEngine",
          "name": "",
          "type": "address"
        }
      ],
      "stateMutability": "view",
      "type": "function"
    },
    {
      "inputs": [
        {
          "internalType": "uint256",
          "name": "",
          "type": "uint256"
        }
      ],
      "name": "safes",
      "outputs": [
        {
          "internalType": "address",
          "name": "",
          "type": "address"
        }
      ],
      "stateMutability": "view",
      "type": "function"
    },
    {
      "inputs": [
        {
          "internalType": "uint256",
          "name": "cdp",
          "type": "uint256"
        },
        {
          "internalType": "address",
          "name": "dst",
          "type": "address"
        },
        {
          "internalType": "uint256",
          "name": "wad",
          "type": "uint256"
        }
      ],
      "name": "transferCollateral",
      "outputs": [],
      "stateMutability": "nonpayable",
      "type": "function"
    },
    {
      "inputs": [
        {
          "internalType": "bytes32",
          "name": "ilk",
          "type": "bytes32"
        },
        {
          "internalType": "uint256",
          "name": "cdp",
          "type": "uint256"
        },
        {
          "internalType": "address",
          "name": "dst",
          "type": "address"
        },
        {
          "internalType": "uint256",
          "name": "wad",
          "type": "uint256"
        }
      ],
      "name": "transferCollateral",
      "outputs": [],
      "stateMutability": "nonpayable",
      "type": "function"
    },
    {
      "inputs": [
        {
          "internalType": "uint256",
          "name": "cdp",
          "type": "uint256"
        },
        {
          "internalType": "address",
          "name": "dst",
          "type": "address"
        },
        {
          "internalType": "uint256",
          "name": "rad",
          "type": "uint256"
        }
      ],
      "name": "transferInternalCoins",
      "outputs": [],
      "stateMutability": "nonpayable",
      "type": "function"
    },
    {
      "inputs": [
        {
          "internalType": "uint256",
          "name": "cdp",
          "type": "uint256"
        },
        {
          "internalType": "address",
          "name": "dst",
          "type": "address"
        }
      ],
      "name": "transferSafeOwnership",
      "outputs": [],
      "stateMutability": "nonpayable",
      "type": "function"
    }
  ],
  "numDeployments": 1,
  "solcInputHash": "8f84b6f1e4072e92a972e80f9a9e23c6",
  "bytecode": "0x608060405234801561001057600080fd5b5061001961001e565b6100dd565b600054610100900460ff161561008a5760405162461bcd60e51b815260206004820152602760248201527f496e697469616c697a61626c653a20636f6e747261637420697320696e697469604482015266616c697a696e6760c81b606482015260840160405180910390fd5b60005460ff908116146100db576000805460ff191660ff9081179091556040519081527f7f26b83ff96e1f2b6a682f133852f6798a09c465da95921460cefb38474024989060200160405180910390a15b565b611cad806100ec6000396000f3fe608060405234801561001057600080fd5b506004361061011d5760003560e01c8063018477a5146101225780630b63fb62146101375780631b0dbf721461014a5780632516c46f1461015d578063391735c114610190578063434efcbd146101a35780635aebb460146101d9578063660e16071461020a57806367aea3131461021d578063730abfa214610236578063782c549c146102495780637e348b7d1461026957806380c9419e1461027c5780638161b120146102b8578063871581a2146102e1578063918b7cfe146102f4578063aa1d8d8114610314578063b3d178f214610327578063b77b80e314610330578063c4d66de814610350578063c78101f814610363578063ce05264d14610376578063ce34aae9146103a1575b600080fd5b61013561013036600461184e565b6103b4565b005b610135610145366004611887565b610682565b6101356101583660046118bc565b610776565b61017d61016b3660046118e8565b60076020526000908152604090205481565b6040519081526020015b60405180910390f35b61013561019e36600461190a565b6109a9565b6101cc6101b1366004611934565b6002602052600090815260409020546001600160a01b031681565b604051610187919061194d565b61017d6101e7366004611961565b600960209081526000938452604080852082529284528284209052825290205481565b610135610218366004611887565b610a0d565b6000546101cc906201000090046001600160a01b031681565b61017d6102443660046118bc565b610b3b565b61017d6102573660046118e8565b60066020526000908152604090205481565b61013561027736600461190a565b610d39565b6102a361028a366004611934565b6003602052600090815260409020805460019091015482565b60408051928352602083019190915201610187565b6101cc6102c6366004611934565b6004602052600090815260409020546001600160a01b031681565b6101356102ef366004611887565b610f5f565b61017d610302366004611934565b60056020526000908152604090205481565b61013561032236600461199d565b611090565b61017d60015481565b61017d61033e3660046118e8565b60086020526000908152604090205481565b61013561035e3660046118e8565b6111b7565b6101356103713660046119da565b6112e3565b61017d610384366004611a06565b600a60209081526000928352604080842090915290825290205481565b6101356103af3660046118bc565b611440565b60008281526004602052604090205482906001600160a01b031633148061040f57506000818152600460209081526040808320546001600160a01b031683526009825280832084845282528083203384529091529020546001145b6104345760405162461bcd60e51b815260040161042b90611a30565b60405180910390fd5b60008281526004602052604090205482906001600160a01b031633148061048f57506000818152600460209081526040808320546001600160a01b031683526009825280832084845282528083203384529091529020546001145b6104ab5760405162461bcd60e51b815260040161042b90611a30565b60008381526005602052604080822054868352912054146105025760405162461bcd60e51b81526020600482015260116024820152706e6f6e2d6d61746368696e672d6364707360781b604482015260640161042b565b60008054858252600560209081526040808420546002909252808420549051630f50894160e21b815284936001600160a01b0362010000909104811693633d422504936105559391921690600401611a59565b6040805180830381865afa158015610571573d6000803e3d6000fd5b505050506040513d601f19601f820116820180604052508101906105959190611a70565b60008054898252600560209081526040808420546002909252808420548b85529320549496509294506001600160a01b036201000090910481169363476bb6ef9392821691166105e4876117f8565b6105ed876117f8565b6040518663ffffffff1660e01b815260040161060d959493929190611a94565b600060405180830381600087803b15801561062757600080fd5b505af115801561063b573d6000803e3d6000fd5b505060408051898152602081018990527f489561b063b32dad7ae1c30c9ae394082b065405b3b851703ab48e0a7b1020d093500190505b60405180910390a1505050505050565b60008381526004602052604090205483906001600160a01b03163314806106dd57506000818152600460209081526040808320546001600160a01b031683526009825280832084845282528083203384529091529020546001145b6106f95760405162461bcd60e51b815260040161042b90611a30565b6000848152600460209081526040808320546001600160a01b039081168452600983528184208885528352818420908716845290915290819020839055517f6b775a84cb9a78c358326c9a825962c2c7f5b0a7f016a539900fcccc6426c6769061076890869086908690611ac3565b60405180910390a150505050565b60008281526004602052604090205482906001600160a01b03163314806107d157506000818152600460209081526040808320546001600160a01b031683526009825280832084845282528083203384529091529020546001145b6107ed5760405162461bcd60e51b815260040161042b90611a30565b81336001600160a01b038216148061082857506001600160a01b0381166000908152600a602090815260408083203384529091529020546001145b6108445760405162461bcd60e51b815260040161042b90611ae2565b60008054858252600560209081526040808420546002909252808420549051630f50894160e21b815284936001600160a01b0362010000909104811693633d422504936108979391921690600401611a59565b6040805180830381865afa1580156108b3573d6000803e3d6000fd5b505050506040513d601f19601f820116820180604052508101906108d79190611a70565b60008054898252600560209081526040808420546002909252909220549395509193506001600160a01b036201000090920482169263476bb6ef92168861091d876117f8565b610926876117f8565b6040518663ffffffff1660e01b8152600401610946959493929190611a94565b600060405180830381600087803b15801561096057600080fd5b505af1158015610974573d6000803e3d6000fd5b505050507f326e88c8df88541b5b94bff9050e224810ac42eba10dc95f02b1246d640fe6718686604051610672929190611a59565b336000818152600a602090815260408083206001600160a01b038716845290915290819020839055517faa78deb20213efe10f6ff8128a962635826ed67c51a5f7bf318dd1c37ceabbd090610a019085908590611b0b565b60405180910390a25050565b60008381526004602052604090205483906001600160a01b0316331480610a6857506000818152600460209081526040808320546001600160a01b031683526009825280832084845282528083203384529091529020546001145b610a845760405162461bcd60e51b815260040161042b90611a30565b600080548582526002602052604091829020549151633beaf2b760e21b81526001600160a01b039283166004820152858316602482015260448101859052620100009091049091169063efabcadc90606401600060405180830381600087803b158015610af057600080fd5b505af1158015610b04573d6000803e3d6000fd5b505050507fdb073419777fd497ad7df69558b92b65b70d598a1db50c2f0703a95ae4d304cf84848460405161076893929190611ac3565b60006001600160a01b038216610b835760405162461bcd60e51b815260206004820152600d60248201526c07573722d616464726573732d3609c1b604482015260640161042b565b610b90600154600161180c565b600155600054604051620100009091046001600160a01b031690610bb390611842565b610bbd919061194d565b604051809103906000f080158015610bd9573d6000803e3d6000fd5b5060018054600090815260026020908152604080832080546001600160a01b039687166001600160a01b031991821617909155845484526004835281842080549689169690911686179055925482526005815282822087905592815260069092528120549003610c60576001546001600160a01b0383166000908152600660205260409020555b6001600160a01b03821660009081526007602052604090205415610cb5576001600160a01b03821660009081526007602090815260408083205460018054855260039093528184208190558254908452922001555b600180546001600160a01b038416600090815260076020908152604080832093909355600890522054610ce79161180c565b6001600160a01b03831660008181526008602052604080822093909355600154925133917fd6be0bc178658a382ff4f91c8c68b542aa6b71685b8fe427966b87745c3ea7a291a4506001545b92915050565b81336001600160a01b0382161480610d7457506001600160a01b0381166000908152600a602090815260408083203384529091529020546001145b610d905760405162461bcd60e51b815260040161042b90611ae2565b60008281526004602052604090205482906001600160a01b0316331480610deb57506000818152600460209081526040808320546001600160a01b031683526009825280832084845282528083203384529091529020546001145b610e075760405162461bcd60e51b815260040161042b90611a30565b6000805484825260056020526040808320549051630f50894160e21b815283926201000090046001600160a01b031691633d42250491610e4c91908a90600401611a59565b6040805180830381865afa158015610e68573d6000803e3d6000fd5b505050506040513d601f19601f82011682018060405250810190610e8c9190611a70565b60008054888252600560209081526040808420546002909252909220549395509193506001600160a01b036201000090920482169263476bb6ef928a9116610ed3876117f8565b610edc876117f8565b6040518663ffffffff1660e01b8152600401610efc959493929190611a94565b600060405180830381600087803b158015610f1657600080fd5b505af1158015610f2a573d6000803e3d6000fd5b505050507f1fb48929215fc354244acea33112720ce5b7ba6912db70bb0149e77aa7c91ce18686604051610672929190611b0b565b60008381526004602052604090205483906001600160a01b0316331480610fba57506000818152600460209081526040808320546001600160a01b031683526009825280832084845282528083203384529091529020546001145b610fd65760405162461bcd60e51b815260040161042b90611a30565b600080548582526005602090815260408084205460029092529283902054925163272888d360e11b81526001600160a01b0362010000909304831693634e5111a69361102c939291169088908890600401611b24565b600060405180830381600087803b15801561104657600080fd5b505af115801561105a573d6000803e3d6000fd5b50505060008581526005602052604090819020549051600080516020611c81833981519152925061076891879187908790611b49565b60008381526004602052604090205483906001600160a01b03163314806110eb57506000818152600460209081526040808320546001600160a01b031683526009825280832084845282528083203384529091529020546001145b6111075760405162461bcd60e51b815260040161042b90611a30565b60008054858252600260205260409182902054915163272888d360e11b8152620100009091046001600160a01b0390811692634e5111a692611153928a92169088908890600401611b24565b600060405180830381600087803b15801561116d57600080fd5b505af1158015611181573d6000803e3d6000fd5b50505050600080516020611c81833981519152848685856040516111a89493929190611b49565b60405180910390a15050505050565b600054610100900460ff16158080156111d75750600054600160ff909116105b806111f15750303b1580156111f1575060005460ff166001145b6112545760405162461bcd60e51b815260206004820152602e60248201527f496e697469616c697a61626c653a20636f6e747261637420697320616c72656160448201526d191e481a5b9a5d1a585b1a5e995960921b606482015260840161042b565b6000805460ff191660011790558015611277576000805461ff0019166101001790555b6000805462010000600160b01b031916620100006001600160a01b0385160217905580156112df576000805461ff0019169055604051600181527f7f26b83ff96e1f2b6a682f133852f6798a09c465da95921460cefb38474024989060200160405180910390a15b5050565b60008381526004602052604090205483906001600160a01b031633148061133e57506000818152600460209081526040808320546001600160a01b031683526009825280832084845282528083203384529091529020546001145b61135a5760405162461bcd60e51b815260040161042b90611a30565b60008481526002602090815260408083205483546005909352928190205490516399bec31560e01b815260048101919091526001600160a01b039283166024820181905260448201819052606482018190526084820187905260a482018690529262010000909204909116906399bec3159060c401600060405180830381600087803b1580156113e957600080fd5b505af11580156113fd573d6000803e3d6000fd5b505060408051888152602081018890529081018690527f6b4143ae85b8eef1e1a2c748bc218b9860450b259cd4cd92977a452a9f45efa8925060600190506111a8565b60008281526004602052604090205482906001600160a01b031633148061149b57506000818152600460209081526040808320546001600160a01b031683526009825280832084845282528083203384529091529020546001145b6114b75760405162461bcd60e51b815260040161042b90611a30565b6001600160a01b0382166114fd5760405162461bcd60e51b815260206004820152600d60248201526c06473742d616464726573732d3609c1b604482015260640161042b565b6000838152600460205260409020546001600160a01b039081169083160361155b5760405162461bcd60e51b81526020600482015260116024820152703239ba16b0b63932b0b23c96b7bbb732b960791b604482015260640161042b565b6000838152600360205260409020541561158f57600083815260036020526040808220600180820154915484529190922001555b600083815260036020526040902060010154156115c757600083815260036020526040808220805460019091015483529120556115f6565b60008381526003602090815260408083205460048352818420546001600160a01b031684526007909252909120555b6000838152600460209081526040808320546001600160a01b0316835260069091529020548390036116545760008381526003602090815260408083206001015460048352818420546001600160a01b031684526006909252909120555b6000838152600460209081526040808320546001600160a01b031683526008909152902054611684906001611827565b600084815260046020908152604080832080546001600160a01b039081168552600884528285209590955580546001600160a01b0319169487169485179055838352600780835281842080548986526003855292852092835560019290920184905593909252919091525415611720576001600160a01b0382166000908152600760209081526040808320548352600390915290206001018390555b6001600160a01b038216600090815260066020526040812054900361175b576001600160a01b03821660009081526006602052604090208390555b6001600160a01b0382166000908152600760209081526040808320869055600890915290205461178c90600161180c565b6001600160a01b0383811660008181526008602090815260408083209590955587825260048152908490205484518881529316908301528183015290517f32190aa277edc29ca80a174fcf656228e98aae0307314fe20b8db02e0ae65c589181900360600190a1505050565b80600081121561180757600080fd5b919050565b6000826118198382611b83565b9150811015610d3357600080fd5b6000826118348382611b96565b9150811115610d3357600080fd5b60d780611baa83390190565b6000806040838503121561186157600080fd5b50508035926020909101359150565b80356001600160a01b038116811461180757600080fd5b60008060006060848603121561189c57600080fd5b833592506118ac60208501611870565b9150604084013590509250925092565b600080604083850312156118cf57600080fd5b823591506118df60208401611870565b90509250929050565b6000602082840312156118fa57600080fd5b61190382611870565b9392505050565b6000806040838503121561191d57600080fd5b61192683611870565b946020939093013593505050565b60006020828403121561194657600080fd5b5035919050565b6001600160a01b0391909116815260200190565b60008060006060848603121561197657600080fd5b61197f84611870565b92506020840135915061199460408501611870565b90509250925092565b600080600080608085870312156119b357600080fd5b84359350602085013592506119ca60408601611870565b9396929550929360600135925050565b6000806000606084860312156119ef57600080fd5b505081359360208301359350604090920135919050565b60008060408385031215611a1957600080fd5b611a2283611870565b91506118df60208401611870565b6020808252600f908201526e18d91c0b5b9bdd0b585b1b1bddd959608a1b604082015260600190565b9182526001600160a01b0316602082015260400190565b60008060408385031215611a8357600080fd5b505080516020909101519092909150565b9485526001600160a01b0393841660208601529190921660408401526060830191909152608082015260a00190565b9283526001600160a01b03919091166020830152604082015260600190565b6020808252600f908201526e1d5c9b8b5b9bdd0b585b1b1bddd959608a1b604082015260600190565b6001600160a01b03929092168252602082015260400190565b9384526001600160a01b03928316602085015291166040830152606082015260800190565b93845260208401929092526001600160a01b03166040830152606082015260800190565b634e487b7160e01b600052601160045260246000fd5b80820180821115610d3357610d33611b6d565b81810381811115610d3357610d33611b6d56fe6080604052348015600f57600080fd5b5060405160d738038060d7833981016040819052602a916086565b604051631b29a84160e31b81523360048201526001600160a01b0382169063d94d420890602401600060405180830381600087803b158015606a57600080fd5b505af1158015607d573d6000803e3d6000fd5b505050505060b4565b600060208284031215609757600080fd5b81516001600160a01b038116811460ad57600080fd5b9392505050565b60168060c16000396000f3fe6080604052600080fdfea164736f6c6343000811000aeac72e2b8c0fdcec84a4ce00088b7f335bcaad8858c1dd8ec40bd1983ea9a4a4a164736f6c6343000811000a",
  "devdoc": {
    "custom:changes": "Added `IDssCdpManager` interface, moving structs and events there.                 Simplified permission model with `cdpCan` and `handlerCan` mappings.",
    "custom:events": "Emits `NewCdp` when creating a Safe; other events are defined in `IDssCdpManager`.",
    "custom:security": "Only authorized users (owners or permitted addresses) can operate on Safes or handlers.                 Relies on SafeEngine for core logic and state management.                 CdpHandler proxies ensure isolation of Safe operations.",
    "custom:usage": "- **Initialization**: Deploy with SafeEngine address.   ```solidity   DssCdpManager cdpManager = new DssCdpManager(safeEngineAddress);   ``` - **Safe Creation**: Open a new Safe for a user with a collateral type.   ```solidity   uint cdpId = cdpManager.openSafe(\"ETH-A\", userAddress);   ``` - **Safe Modification**: Adjust collateral or debt for a Safe.   ```solidity   cdpManager.modifySAFECollateralization(cdpId, deltaCollateral, deltaDebt);   ``` - **Ownership Transfer**: Transfer a Safe to another user.   ```solidity   cdpManager.transferSafeOwnership(cdpId, newOwner);   ``` - **Safe Merging**: Move collateral and debt between Safes or to/from external addresses.   ```solidity   cdpManager.moveSAFE(cdpIdSrc, cdpIdDst); // Merge two Safes   cdpManager.quit(cdpId, dstAddress); // Exit Safe to external address   ```",
    "details": "Tracks Safe ownership, permissions, and state via a double-linked list per user. Interacts with SafeEngine      to perform collateral and debt operations through CdpHandler proxies. Supports Safe creation, ownership transfer,      collateral/debt modification, and Safe merging. This contract is a fork of MakerDAOs DssCdpManager.sol, adapted      for StableUnit with a custom interface and simplified permission model.",
    "kind": "dev",
    "methods": {
      "allowHandler(address,uint256)": {
        "details": "Updates `handlerCan` mapping for the callers handler.",
        "params": {
          "ok": "Permission status (1 for allowed, 0 for denied).",
          "usr": "Address to grant/revoke permission."
        }
      },
      "cdpAllow(uint256,address,uint256)": {
        "details": "Updates `cdpCan` mapping for the Safes owner. Requires caller to be authorized.",
        "params": {
          "cdp": "Safe ID to modify permissions for.",
          "ok": "Permission status (1 for allowed, 0 for denied).",
          "usr": "Address to grant/revoke permission."
        }
      },
      "constructor": {
        "custom:oz-upgrades-unsafe-allow": "constructor"
      },
      "enter(address,uint256)": {
        "details": "Transfers all collateral and debt from the source address to the Safes handler. Requires caller to be authorized for both source handler and Safe.",
        "params": {
          "cdp": "Safe ID to receive collateral and debt.",
          "src": "Source address to transfer collateral and debt from."
        }
      },
      "initialize(address)": {
        "details": "Sets the SafeEngine reference for Safe operations.",
        "params": {
          "safeEngine_": "Address of the SafeEngine contract."
        }
      },
      "modifySAFECollateralization(uint256,int256,int256)": {
        "details": "Calls SafeEngines `modifySAFECollateralization` using the Safes handler. Requires caller to be authorized.",
        "params": {
          "cdp": "Safe ID to modify.",
          "deltaCollateral": "Amount to add (positive) or remove (negative) collateral [wad].",
          "deltaDebt": "Amount to add (positive) or remove (negative) debt [wad]."
        }
      },
      "moveSAFE(uint256,uint256)": {
        "details": "Transfers all collateral and debt from the source Safe to the destination Safe. Requires both Safes to have the same collateral type and caller to be authorized for both.",
        "params": {
          "cdpDst": "Destination Safe ID.",
          "cdpSrc": "Source Safe ID."
        }
      },
      "openSafe(bytes32,address)": {
        "details": "Deploys a CdpHandler, assigns ownership, and updates the double-linked list.      Emits a `NewCdp` event.",
        "params": {
          "collateralType": "Unique identifier for the collateral type (e.g., \"ETH-A\").",
          "usr": "Address to own the new Safe."
        },
        "returns": {
          "_0": "Safe ID (CDP ID) of the created Safe."
        }
      },
      "quit(uint256,address)": {
        "details": "Transfers all collateral and debt to the destination address via SafeEngine. Requires caller to be authorized for both Safe and destination handler.",
        "params": {
          "cdp": "Safe ID to exit.",
          "dst": "Destination address to receive collateral and debt."
        }
      },
      "transferCollateral(bytes32,uint256,address,uint256)": {
        "details": "Calls SafeEngines `transferCollateral`. Requires caller to be authorized.",
        "params": {
          "cdp": "Safe ID to transfer collateral from.",
          "dst": "Destination address to receive collateral.",
          "ilk": "Collateral type to use for transfer.",
          "wad": "Amount of collateral to transfer [wad]."
        }
      },
      "transferCollateral(uint256,address,uint256)": {
        "details": "Calls SafeEngines `transferCollateral`. Requires caller to be authorized.",
        "params": {
          "cdp": "Safe ID to transfer collateral from.",
          "dst": "Destination address to receive collateral.",
          "wad": "Amount of collateral to transfer [wad]."
        }
      },
      "transferInternalCoins(uint256,address,uint256)": {
        "details": "Calls SafeEngines `transferInternalCoins`. Requires caller to be authorized.",
        "params": {
          "cdp": "Safe ID to transfer coins from.",
          "dst": "Destination address to receive coins.",
          "rad": "Amount of StablePro coins to transfer [rad]."
        }
      },
      "transferSafeOwnership(uint256,address)": {
        "details": "Updates the double-linked list for both the old and new owners. Requires caller to be authorized.",
        "params": {
          "cdp": "Safe ID to transfer.",
          "dst": "New owner address."
        }
      }
    },
    "title": "DssCdpManager",
    "version": 1
  },
  "userdoc": {
    "kind": "user",
    "methods": {
      "allowHandler(address,uint256)": {
        "notice": "Grants or revokes permission for an address to modify the callers CdpHandler."
      },
      "cdpAllow(uint256,address,uint256)": {
        "notice": "Grants or revokes permission for an address to modify a Safe."
      },
      "cdpCan(address,uint256,address)": {
        "notice": "Maps owners to Safe IDs to allowed addresses with modification permissions."
      },
      "cdpCount(address)": {
        "notice": "Maps owner addresses to their total number of Safes."
      },
      "cdpi()": {
        "notice": "Auto-incrementing counter for Safe IDs (CDP IDs)."
      },
      "collateralTypes(uint256)": {
        "notice": "Maps Safe IDs to their collateral types (e.g., \"ETH-A\")."
      },
      "enter(address,uint256)": {
        "notice": "Imports collateral and debt from an external address into a Safe."
      },
      "firstCdpId(address)": {
        "notice": "Maps owner addresses to their first Safe ID."
      },
      "handlerCan(address,address)": {
        "notice": "Maps CdpHandler addresses to allowed addresses with modification permissions."
      },
      "initialize(address)": {
        "notice": "Initializes the DssCdpManager with a SafeEngine address."
      },
      "lastCdpId(address)": {
        "notice": "Maps owner addresses to their last Safe ID."
      },
      "list(uint256)": {
        "notice": "Maps Safe IDs to their previous and next IDs in the owners double-linked list."
      },
      "modifySAFECollateralization(uint256,int256,int256)": {
        "notice": "Modifies a Safes collateral and debt through SafeEngine."
      },
      "moveSAFE(uint256,uint256)": {
        "notice": "Merges collateral and debt from one Safe to another."
      },
      "openSafe(bytes32,address)": {
        "notice": "Creates a new Safe for a user with a specified collateral type."
      },
      "owns(uint256)": {
        "notice": "Maps Safe IDs to their owner addresses."
      },
      "quit(uint256,address)": {
        "notice": "Exits a Safes collateral and debt to an external address."
      },
      "safeEngine()": {
        "notice": "Reference to the SafeEngine contract for Safe operations."
      },
      "safes(uint256)": {
        "notice": "Maps Safe IDs to their CdpHandler proxy addresses."
      },
      "transferCollateral(bytes32,uint256,address,uint256)": {
        "notice": "Transfers collateral from a Safe to an address using a specified collateral type."
      },
      "transferCollateral(uint256,address,uint256)": {
        "notice": "Transfers collateral from a Safe to an address using the Safes collateral type."
      },
      "transferInternalCoins(uint256,address,uint256)": {
        "notice": "Transfers internal StablePro coins from a Safe to an address."
      },
      "transferSafeOwnership(uint256,address)": {
        "notice": "Transfers ownership of a Safe to another address."
      }
    },
    "notice": "Manages Safes (CDPs) for users in the StableUnit protocol, facilitating Safe creation and operations.",
    "version": 1
  },
  "storageLayout": {
    "storage": [
      {
        "astId": 1226,
        "contract": "contracts/makerdao/core/DssCdpManager.sol:DssCdpManager",
        "label": "_initialized",
        "offset": 0,
        "slot": "0",
        "type": "t_uint8"
      },
      {
        "astId": 1229,
        "contract": "contracts/makerdao/core/DssCdpManager.sol:DssCdpManager",
        "label": "_initializing",
        "offset": 1,
        "slot": "0",
        "type": "t_bool"
      },
      {
        "astId": 86928,
        "contract": "contracts/makerdao/core/DssCdpManager.sol:DssCdpManager",
        "label": "safeEngine",
        "offset": 2,
        "slot": "0",
        "type": "t_contract(ISafeEngine)97348"
      },
      {
        "astId": 86931,
        "contract": "contracts/makerdao/core/DssCdpManager.sol:DssCdpManager",
        "label": "cdpi",
        "offset": 0,
        "slot": "1",
        "type": "t_uint256"
      },
      {
        "astId": 86936,
        "contract": "contracts/makerdao/core/DssCdpManager.sol:DssCdpManager",
        "label": "safes",
        "offset": 0,
        "slot": "2",
        "type": "t_mapping(t_uint256,t_address)"
      },
      {
        "astId": 86942,
        "contract": "contracts/makerdao/core/DssCdpManager.sol:DssCdpManager",
        "label": "list",
        "offset": 0,
        "slot": "3",
        "type": "t_mapping(t_uint256,t_struct(List)96555_storage)"
      },
      {
        "astId": 86947,
        "contract": "contracts/makerdao/core/DssCdpManager.sol:DssCdpManager",
        "label": "owns",
        "offset": 0,
        "slot": "4",
        "type": "t_mapping(t_uint256,t_address)"
      },
      {
        "astId": 86952,
        "contract": "contracts/makerdao/core/DssCdpManager.sol:DssCdpManager",
        "label": "collateralTypes",
        "offset": 0,
        "slot": "5",
        "type": "t_mapping(t_uint256,t_bytes32)"
      },
      {
        "astId": 86957,
        "contract": "contracts/makerdao/core/DssCdpManager.sol:DssCdpManager",
        "label": "firstCdpId",
        "offset": 0,
        "slot": "6",
        "type": "t_mapping(t_address,t_uint256)"
      },
      {
        "astId": 86962,
        "contract": "contracts/makerdao/core/DssCdpManager.sol:DssCdpManager",
        "label": "lastCdpId",
        "offset": 0,
        "slot": "7",
        "type": "t_mapping(t_address,t_uint256)"
      },
      {
        "astId": 86967,
        "contract": "contracts/makerdao/core/DssCdpManager.sol:DssCdpManager",
        "label": "cdpCount",
        "offset": 0,
        "slot": "8",
        "type": "t_mapping(t_address,t_uint256)"
      },
      {
        "astId": 86976,
        "contract": "contracts/makerdao/core/DssCdpManager.sol:DssCdpManager",
        "label": "cdpCan",
        "offset": 0,
        "slot": "9",
        "type": "t_mapping(t_address,t_mapping(t_uint256,t_mapping(t_address,t_uint256)))"
      },
      {
        "astId": 86983,
        "contract": "contracts/makerdao/core/DssCdpManager.sol:DssCdpManager",
        "label": "handlerCan",
        "offset": 0,
        "slot": "10",
        "type": "t_mapping(t_address,t_mapping(t_address,t_uint256))"
      }
    ],
    "types": {
      "t_address": {
        "encoding": "inplace",
        "label": "address",
        "numberOfBytes": "20"
      },
      "t_bool": {
        "encoding": "inplace",
        "label": "bool",
        "numberOfBytes": "1"
      },
      "t_bytes32": {
        "encoding": "inplace",
        "label": "bytes32",
        "numberOfBytes": "32"
      },
      "t_contract(ISafeEngine)97348": {
        "encoding": "inplace",
        "label": "contract ISafeEngine",
        "numberOfBytes": "20"
      },
      "t_mapping(t_address,t_mapping(t_address,t_uint256))": {
        "encoding": "mapping",
        "key": "t_address",
        "label": "mapping(address => mapping(address => uint256))",
        "numberOfBytes": "32",
        "value": "t_mapping(t_address,t_uint256)"
      },
      "t_mapping(t_address,t_mapping(t_uint256,t_mapping(t_address,t_uint256)))": {
        "encoding": "mapping",
        "key": "t_address",
        "label": "mapping(address => mapping(uint256 => mapping(address => uint256)))",
        "numberOfBytes": "32",
        "value": "t_mapping(t_uint256,t_mapping(t_address,t_uint256))"
      },
      "t_mapping(t_address,t_uint256)": {
        "encoding": "mapping",
        "key": "t_address",
        "label": "mapping(address => uint256)",
        "numberOfBytes": "32",
        "value": "t_uint256"
      },
      "t_mapping(t_uint256,t_address)": {
        "encoding": "mapping",
        "key": "t_uint256",
        "label": "mapping(uint256 => address)",
        "numberOfBytes": "32",
        "value": "t_address"
      },
      "t_mapping(t_uint256,t_bytes32)": {
        "encoding": "mapping",
        "key": "t_uint256",
        "label": "mapping(uint256 => bytes32)",
        "numberOfBytes": "32",
        "value": "t_bytes32"
      },
      "t_mapping(t_uint256,t_mapping(t_address,t_uint256))": {
        "encoding": "mapping",
        "key": "t_uint256",
        "label": "mapping(uint256 => mapping(address => uint256))",
        "numberOfBytes": "32",
        "value": "t_mapping(t_address,t_uint256)"
      },
      "t_mapping(t_uint256,t_struct(List)96555_storage)": {
        "encoding": "mapping",
        "key": "t_uint256",
        "label": "mapping(uint256 => struct IDssCdpManager.List)",
        "numberOfBytes": "32",
        "value": "t_struct(List)96555_storage"
      },
      "t_struct(List)96555_storage": {
        "encoding": "inplace",
        "label": "struct IDssCdpManager.List",
        "members": [
          {
            "astId": 96552,
            "contract": "contracts/makerdao/core/DssCdpManager.sol:DssCdpManager",
            "label": "prev",
            "offset": 0,
            "slot": "0",
            "type": "t_uint256"
          },
          {
            "astId": 96554,
            "contract": "contracts/makerdao/core/DssCdpManager.sol:DssCdpManager",
            "label": "next",
            "offset": 0,
            "slot": "1",
            "type": "t_uint256"
          }
        ],
        "numberOfBytes": "64"
      },
      "t_uint256": {
        "encoding": "inplace",
        "label": "uint256",
        "numberOfBytes": "32"
      },
      "t_uint8": {
        "encoding": "inplace",
        "label": "uint8",
        "numberOfBytes": "1"
      }
    }
  }
}