{
  "address": "0xc7D0B572f7CeCAa0847EBC1C48fB036Be912D31C",
  "abi": [
    {
      "inputs": [],
      "stateMutability": "nonpayable",
      "type": "constructor"
    },
    {
      "anonymous": false,
      "inputs": [
        {
          "indexed": false,
          "internalType": "uint8",
          "name": "version",
          "type": "uint8"
        }
      ],
      "name": "Initialized",
      "type": "event"
    },
    {
      "anonymous": false,
      "inputs": [
        {
          "indexed": true,
          "internalType": "address",
          "name": "usr",
          "type": "address"
        },
        {
          "indexed": true,
          "internalType": "address",
          "name": "own",
          "type": "address"
        },
        {
          "indexed": true,
          "internalType": "uint256",
          "name": "cdp",
          "type": "uint256"
        }
      ],
      "name": "NewCdp",
      "type": "event"
    },
    {
      "inputs": [
        {
          "internalType": "address",
          "name": "usr",
          "type": "address"
        },
        {
          "internalType": "uint256",
          "name": "ok",
          "type": "uint256"
        }
      ],
      "name": "allowHandler",
      "outputs": [],
      "stateMutability": "nonpayable",
      "type": "function"
    },
    {
      "inputs": [
        {
          "internalType": "uint256",
          "name": "cdp",
          "type": "uint256"
        },
        {
          "internalType": "address",
          "name": "usr",
          "type": "address"
        },
        {
          "internalType": "uint256",
          "name": "ok",
          "type": "uint256"
        }
      ],
      "name": "cdpAllow",
      "outputs": [],
      "stateMutability": "nonpayable",
      "type": "function"
    },
    {
      "inputs": [
        {
          "internalType": "address",
          "name": "",
          "type": "address"
        },
        {
          "internalType": "uint256",
          "name": "",
          "type": "uint256"
        },
        {
          "internalType": "address",
          "name": "",
          "type": "address"
        }
      ],
      "name": "cdpCan",
      "outputs": [
        {
          "internalType": "uint256",
          "name": "",
          "type": "uint256"
        }
      ],
      "stateMutability": "view",
      "type": "function"
    },
    {
      "inputs": [
        {
          "internalType": "address",
          "name": "",
          "type": "address"
        }
      ],
      "name": "cdpCount",
      "outputs": [
        {
          "internalType": "uint256",
          "name": "",
          "type": "uint256"
        }
      ],
      "stateMutability": "view",
      "type": "function"
    },
    {
      "inputs": [],
      "name": "cdpi",
      "outputs": [
        {
          "internalType": "uint256",
          "name": "",
          "type": "uint256"
        }
      ],
      "stateMutability": "view",
      "type": "function"
    },
    {
      "inputs": [
        {
          "internalType": "uint256",
          "name": "",
          "type": "uint256"
        }
      ],
      "name": "collateralTypes",
      "outputs": [
        {
          "internalType": "bytes32",
          "name": "",
          "type": "bytes32"
        }
      ],
      "stateMutability": "view",
      "type": "function"
    },
    {
      "inputs": [
        {
          "internalType": "address",
          "name": "src",
          "type": "address"
        },
        {
          "internalType": "uint256",
          "name": "cdp",
          "type": "uint256"
        }
      ],
      "name": "enter",
      "outputs": [],
      "stateMutability": "nonpayable",
      "type": "function"
    },
    {
      "inputs": [
        {
          "internalType": "address",
          "name": "",
          "type": "address"
        }
      ],
      "name": "firstCdpId",
      "outputs": [
        {
          "internalType": "uint256",
          "name": "",
          "type": "uint256"
        }
      ],
      "stateMutability": "view",
      "type": "function"
    },
    {
      "inputs": [
        {
          "internalType": "address",
          "name": "",
          "type": "address"
        },
        {
          "internalType": "address",
          "name": "",
          "type": "address"
        }
      ],
      "name": "handlerCan",
      "outputs": [
        {
          "internalType": "uint256",
          "name": "",
          "type": "uint256"
        }
      ],
      "stateMutability": "view",
      "type": "function"
    },
    {
      "inputs": [
        {
          "internalType": "address",
          "name": "safeEngine_",
          "type": "address"
        }
      ],
      "name": "initialize",
      "outputs": [],
      "stateMutability": "nonpayable",
      "type": "function"
    },
    {
      "inputs": [
        {
          "internalType": "address",
          "name": "",
          "type": "address"
        }
      ],
      "name": "lastCdpId",
      "outputs": [
        {
          "internalType": "uint256",
          "name": "",
          "type": "uint256"
        }
      ],
      "stateMutability": "view",
      "type": "function"
    },
    {
      "inputs": [
        {
          "internalType": "uint256",
          "name": "",
          "type": "uint256"
        }
      ],
      "name": "list",
      "outputs": [
        {
          "internalType": "uint256",
          "name": "prev",
          "type": "uint256"
        },
        {
          "internalType": "uint256",
          "name": "next",
          "type": "uint256"
        }
      ],
      "stateMutability": "view",
      "type": "function"
    },
    {
      "inputs": [
        {
          "internalType": "uint256",
          "name": "cdp",
          "type": "uint256"
        },
        {
          "internalType": "int256",
          "name": "deltaCollateral",
          "type": "int256"
        },
        {
          "internalType": "int256",
          "name": "deltaDebt",
          "type": "int256"
        }
      ],
      "name": "modifySAFECollateralization",
      "outputs": [],
      "stateMutability": "nonpayable",
      "type": "function"
    },
    {
      "inputs": [
        {
          "internalType": "uint256",
          "name": "cdpSrc",
          "type": "uint256"
        },
        {
          "internalType": "uint256",
          "name": "cdpDst",
          "type": "uint256"
        }
      ],
      "name": "moveSAFE",
      "outputs": [],
      "stateMutability": "nonpayable",
      "type": "function"
    },
    {
      "inputs": [
        {
          "internalType": "bytes32",
          "name": "collateralType",
          "type": "bytes32"
        },
        {
          "internalType": "address",
          "name": "usr",
          "type": "address"
        }
      ],
      "name": "openSafe",
      "outputs": [
        {
          "internalType": "uint256",
          "name": "",
          "type": "uint256"
        }
      ],
      "stateMutability": "nonpayable",
      "type": "function"
    },
    {
      "inputs": [
        {
          "internalType": "uint256",
          "name": "",
          "type": "uint256"
        }
      ],
      "name": "owns",
      "outputs": [
        {
          "internalType": "address",
          "name": "",
          "type": "address"
        }
      ],
      "stateMutability": "view",
      "type": "function"
    },
    {
      "inputs": [
        {
          "internalType": "uint256",
          "name": "cdp",
          "type": "uint256"
        },
        {
          "internalType": "address",
          "name": "dst",
          "type": "address"
        }
      ],
      "name": "quit",
      "outputs": [],
      "stateMutability": "nonpayable",
      "type": "function"
    },
    {
      "inputs": [],
      "name": "safeEngine",
      "outputs": [
        {
          "internalType": "contract ISafeEngine",
          "name": "",
          "type": "address"
        }
      ],
      "stateMutability": "view",
      "type": "function"
    },
    {
      "inputs": [
        {
          "internalType": "uint256",
          "name": "",
          "type": "uint256"
        }
      ],
      "name": "safes",
      "outputs": [
        {
          "internalType": "address",
          "name": "",
          "type": "address"
        }
      ],
      "stateMutability": "view",
      "type": "function"
    },
    {
      "inputs": [
        {
          "internalType": "uint256",
          "name": "cdp",
          "type": "uint256"
        },
        {
          "internalType": "address",
          "name": "dst",
          "type": "address"
        },
        {
          "internalType": "uint256",
          "name": "wad",
          "type": "uint256"
        }
      ],
      "name": "transferCollateral",
      "outputs": [],
      "stateMutability": "nonpayable",
      "type": "function"
    },
    {
      "inputs": [
        {
          "internalType": "bytes32",
          "name": "ilk",
          "type": "bytes32"
        },
        {
          "internalType": "uint256",
          "name": "cdp",
          "type": "uint256"
        },
        {
          "internalType": "address",
          "name": "dst",
          "type": "address"
        },
        {
          "internalType": "uint256",
          "name": "wad",
          "type": "uint256"
        }
      ],
      "name": "transferCollateral",
      "outputs": [],
      "stateMutability": "nonpayable",
      "type": "function"
    },
    {
      "inputs": [
        {
          "internalType": "uint256",
          "name": "cdp",
          "type": "uint256"
        },
        {
          "internalType": "address",
          "name": "dst",
          "type": "address"
        },
        {
          "internalType": "uint256",
          "name": "rad",
          "type": "uint256"
        }
      ],
      "name": "transferInternalCoins",
      "outputs": [],
      "stateMutability": "nonpayable",
      "type": "function"
    },
    {
      "inputs": [
        {
          "internalType": "uint256",
          "name": "cdp",
          "type": "uint256"
        },
        {
          "internalType": "address",
          "name": "dst",
          "type": "address"
        }
      ],
      "name": "transferSafeOwnership",
      "outputs": [],
      "stateMutability": "nonpayable",
      "type": "function"
    }
  ],
  "numDeployments": 1,
  "solcInputHash": "8c060bc8c39a7272c2849a174b3b4791",
  "bytecode": "0x608080604052346100c1576000549060ff8260081c1661006f575060ff80821603610034575b60405161156b90816100c78239f35b60ff90811916176000557f7f26b83ff96e1f2b6a682f133852f6798a09c465da95921460cefb3847402498602060405160ff8152a138610025565b62461bcd60e51b815260206004820152602760248201527f496e697469616c697a61626c653a20636f6e747261637420697320696e697469604482015266616c697a696e6760c81b6064820152608490fd5b600080fdfe60406080815260048036101561001457600080fd5b600091823560e01c8063018477a5146110565780630b63fb6214610fbf578381631b0dbf7214610e4e575080632516c46f14610e16578063391735c114610dd7578063434efcbd14610da45780635aebb46014610d4b57838163660e160714610c885750806367aea31314610c5c578063730abfa214610aa7578063782c549c14610a6f578381637e348b7d146108ea5750806380c9419e146108b85780638161b1201461088657838163871581a2146107d357508063918b7cfe146107ab57838163aa1d8d81146106db57508063b3d178f2146106bc578063b77b80e314610684578063c4d66de81461053657838163c78101f81461043257508063ce05264d146103e05763ce34aae91461012957600080fd5b346103dc57806003193601126103dc578135610143611253565b81855260209084825260018060a01b038091818689205416331480156103ac575b61016d906112bf565b1692831561037957808752858352818588205416841461034257808752600383528487205461032b575b808752600191828689200154151560001461030f57818852600384528588208054908401548952868920555b8188528684528086892054168852600684528186892054146102ea575b818852868452858820548116885260088452858820546000198101919082116102d75782895287855286892054168852600884528588205580875285835284872080546001600160a01b03191685179055838752600780845285882054828952600385528689205585882083018890558488528352848720546102c1575b8387526006835284872054156102b7575b60078352848720556008825283862054908101948582116102a25750841061029d5760089185525282205580f35b600080fd5b601190634e487b7160e01b6000525260246000fd5b808588205561026f565b848720548752600383528082868920015561025e565b634e487b7160e01b895260118852602489fd5b8188526003845282868920015487855281878a205416895260068552868920556101e0565b8588205487855281878a205416895260078552868920556101c3565b848720600181810154915489528689200155610197565b845162461bcd60e51b815280870184905260116024820152703239ba16b0b63932b0b23c96b7bbb732b960791b6044820152606490fd5b845162461bcd60e51b8152808701849052600d60248201526c06473742d616464726573732d3609c1b6044820152606490fd5b50818689205416885260098452858820858952845285882033600052845261016d60018760002054149050610164565b8280fd5b83823461042e578060031936011261042e576020916103fd611269565b82610406611253565b6001600160a01b039283168452600a8652922091166000908152908352819020549051908152f35b5080fd5b808484346105325760603660031901126105325781358084526020838152828520546001600160a01b03949290851633148015610502575b610473906112bf565b855260028152600584848720541694865460101c1691528285205490803b156104fe5785928360c492865197889586946399bec31560e01b86528501528060248501528060448501526064840152602435608484015260443560a48401525af19081156104f557506104e25750f35b6104eb90611328565b6104f25780f35b80fd5b513d84823e3d90fd5b8580fd5b5084848720541686526009825283862081875282528386203360005282526104736001856000205414905061046a565b5050fd5b50346103dc5760203660031901126103dc57610550611269565b90835460ff8160081c161593848095610677575b8015610660575b15610606575060ff1981166001178555836105f5575b50835462010000600160b01b0319811660109390931b62010000600160b01b0316928317855591926105b1578380f35b610100600160b01b0319909116909117825551600181527f7f26b83ff96e1f2b6a682f133852f6798a09c465da95921460cefb384740249890602090a13880808380f35b61ffff191661010117845538610581565b608490602084519162461bcd60e51b8352820152602e60248201527f496e697469616c697a61626c653a20636f6e747261637420697320616c72656160448201526d191e481a5b9a5d1a585b1a5e995960921b6064820152fd5b50303b15801561056b5750600160ff83161461056b565b50600160ff831610610564565b83823461042e57602036600319011261042e5760209181906001600160a01b036106ac611269565b1681526008845220549051908152f35b83823461042e578160031936011261042e576020906001549051908152f35b80848434610532576080366003190112610532576024356106fa61127f565b928185528060205260018060a01b0380848720541633148015610778575b610721906112bf565b80865460101c169286526002602052838620541691803b156104fe576107659486809486519788958694859363272888d360e11b8552606435928035908601611374565b03925af19081156104f557506104e25750f35b50808487205416865260096020528386208387526020528386203360005260205261072160018560002054149050610718565b5090346103dc5760203660031901126103dc5760209282913581526005845220549051908152f35b80848434610532576107e436611295565b909391808652602083815260018060a01b0380868920541633148015610856575b61080e906112bf565b80885460101c16928852600582526002868920549252858820541692823b1561085257879461076586928851998a978896879563272888d360e11b87528601611374565b8780fd5b50808689205416885260098252858820838952825285882033600052825261080e60018760002054149050610805565b5090346103dc5760203660031901126103dc57803583526020908152918190205490516001600160a01b039091168152f35b5090346103dc5760203660031901126103dc579181923581526003602052206001815491015482519182526020820152f35b80848434610532578060031936011261053257610979610908611269565b6001600160a01b036024358282163381148015610a4d575b61092a915061139c565b80875260209086825282868920541633148015610a1d575b61094b906112bf565b82885460101c1692818952600583528685818b205482519889928392630f50894160e21b84528d84016113f0565b0381875afa918215610a135789968a936109de575b508952600583526002878a205493528689205416968886126109da578882126109da57833b156109da57610765899692879389519a8b988997889663476bb6ef60e01b88528701611409565b8880fd5b909250610a02919650873d8911610a0c575b6109fa8183611351565b8101906113da565b959095918b61098e565b503d6109f0565b87513d8b823e3d90fd5b50828689205416885260098252858820818952825285882033600052825261094b60018760002054149050610942565b508752600a6020528487203360005260205261092a6001866000205414610920565b83823461042e57602036600319011261042e5760209181906001600160a01b03610a97611269565b1681526006845220549051908152f35b5091903461042e578260031936011261042e576001600160a01b039283610acc611253565b16918215610c2a57600190610ae182546112fd565b825584548351969060fc8089019160101c8316906001600160401b0383118a841017610c17579089929161143a84398152602098899103019087f0908115610c0d5783548752600288528487209060018060a01b031992168282541617905582548652818752848487209182541617905581548552600586523582852055828452600685528184205415610c02575b6007855281842054610bd4575b8054838552600786528285205560088552610b9a828520546112fd565b83855260088652828520555491829151937fd6be0bc178658a382ff4f91c8c68b542aa6b71685b8fe427966b87745c3ea7a2339180a48152f35b8184205481548552600386528285205580548385526007865282852054855260038652818386200155610b7d565b805482852055610b70565b84513d88823e3d90fd5b634e487b7160e01b895260418552602489fd5b6020606492519162461bcd60e51b8352820152600d60248201526c07573722d616464726573732d3609c1b6044820152fd5b83823461042e578160031936011261042e579054905160109190911c6001600160a01b03168152602090f35b8084843461053257610c9936611295565b82865260208590528386205491946001600160a01b0392831633148015610d18575b610cc4906112bf565b82875460101c16938752600260205282858820541692843b1561085257879460649386928851998a978896633beaf2b760e21b885287015216602485015260448401525af19081156104f557506104e25750f35b508285882054168752600960205284872084885260205284872033600052602052610cc460018660002054149050610cbb565b83823461042e57606036600319011261042e57602091610d69611269565b82610d7261127f565b6001600160a01b0392831684526009865281842060243585528652922091166000908152908352819020549051908152f35b5090346103dc5760203660031901126103dc5735825260026020908152918190205490516001600160a01b039091168152f35b83823461042e578060031936011261042e57610df1611269565b338352600a6020528183209060018060a01b0316600052602052602435906000205580f35b83823461042e57602036600319011261042e5760209181906001600160a01b03610e3e611269565b1681526007845220549051908152f35b80848434610532578060031936011261053257610ee9823592610e6f611253565b84865260208281528487205491956001600160a01b0392831633148015610f8f575b610e9a906112bf565b8287168033148015610f6f575b610eb1915061139c565b82885460101c16928189526005835286808a20546002855282828c2054169082519889928392630f50894160e21b84528a84016113f0565b0381875afa918215610a135789968a93610f4a575b508952600583526002878a205493528689205416938886126109da578882126109da57833b156109da57610765899692879389519a8b988997889663476bb6ef60e01b88528701611409565b909250610f65919650873d8911610a0c576109fa8183611351565b959095918b610efe565b508852600a8252858820336000528252610eb16001876000205414610ea7565b508286892054168852600982528588208189528252858820336000528252610e9a60018760002054149050610e91565b50346103dc57610fce36611295565b8286526020858152848720549195929390926001600160a01b0392831633148015611026575b610ffd906112bf565b818852835281858820541687526009835284872090875282528386209216600052526000205580f35b508286892054168852600984528588208289528452858820336000528452610ffd60018760002054149050610ff4565b5090346103dc57816003193601126103dc578035808452602082815283852054602435936001600160a01b03939184163314801561122a575b611098906112bf565b84875280835283868820541633148015611201575b6110b6906112bf565b818752600583528587205485885286882054036111ca5791839161110f9695938895865460101c16938287526005845287808820546002865282828a2054169082519b8c928392630f50894160e21b84528784016113f0565b0381885afa9283156111c0578799889461119b575b5087526005845260028888205494528088882054169587528787205416978681126111975786831261119757843b156111975786926111779189519a8b988997889663476bb6ef60e01b88528701611409565b03925af19081156104f5575061118b575080f35b61119490611328565b80f35b8680fd5b9093506111b6919950883d8a11610a0c576109fa8183611351565b9890989238611124565b88513d89823e3d90fd5b855162461bcd60e51b815290810183905260116024820152706e6f6e2d6d61746368696e672d6364707360781b6044820152606490fd5b5085872054841687526009835285872085885283528587203388528352858720546001146110ad565b50858720548416875260098352858720828852835285872033885283528587205460011461108f565b602435906001600160a01b038216820361029d57565b600435906001600160a01b038216820361029d57565b604435906001600160a01b038216820361029d57565b606090600319011261029d57600435906024356001600160a01b038116810361029d579060443590565b156112c657565b60405162461bcd60e51b815260206004820152600f60248201526e18d91c0b5b9bdd0b585b1b1bddd959608a1b6044820152606490fd5b90600182019182811161131257821061029d57565b634e487b7160e01b600052601160045260246000fd5b6001600160401b03811161133b57604052565b634e487b7160e01b600052604160045260246000fd5b601f909101601f19168101906001600160401b0382119082101761133b57604052565b9081526001600160a01b03918216602082015291166040820152606081019190915260800190565b156113a357565b60405162461bcd60e51b815260206004820152600f60248201526e1d5c9b8b5b9bdd0b585b1b1bddd959608a1b6044820152606490fd5b919082604091031261029d576020825192015190565b9081526001600160a01b03909116602082015260400190565b9081526001600160a01b039182166020820152911660408201526060810191909152608081019190915260a0019056fe60803460bc576001600160401b0390601f6100fc38819003918201601f191683019184831184841017609a5780849260209460405283398101031260bc57516001600160a01b038116919082900360bc57813b1560bc5760008092602460405180958193631b29a84160e31b83523360048401525af1801560b057608c575b604051603a90816100c28239f35b8111609a576040523880607e565b634e487b7160e01b600052604160045260246000fd5b6040513d6000823e3d90fd5b600080fdfe600080fdfea26469706673582212208e7fb299b7a9a326f7e1dc75c492e89277df71e8eadb52f8e3f70f67016e783f64736f6c63430008110033a264697066735822122019a4012c667256c9b82876369e89782c0a39a62287f742afd4f40f6535e2e36264736f6c63430008110033",
  "devdoc": {
    "custom:changes": "Added `IDssCdpManager` interface, moving structs and events there.                 Simplified permission model with `cdpCan` and `handlerCan` mappings.",
    "custom:events": "Emits `NewCdp` when creating a Safe; other events are defined in `IDssCdpManager`.",
    "custom:security": "Only authorized users (owners or permitted addresses) can operate on Safes or handlers.                 Relies on SafeEngine for core logic and state management.                 CdpHandler proxies ensure isolation of Safe operations.",
    "custom:usage": "- **Initialization**: Deploy with SafeEngine address.   ```solidity   DssCdpManager cdpManager = new DssCdpManager(safeEngineAddress);   ``` - **Safe Creation**: Open a new Safe for a user with a collateral type.   ```solidity   uint cdpId = cdpManager.openSafe(\"ETH-A\", userAddress);   ``` - **Safe Modification**: Adjust collateral or debt for a Safe.   ```solidity   cdpManager.modifySAFECollateralization(cdpId, deltaCollateral, deltaDebt);   ``` - **Ownership Transfer**: Transfer a Safe to another user.   ```solidity   cdpManager.transferSafeOwnership(cdpId, newOwner);   ``` - **Safe Merging**: Move collateral and debt between Safes or to/from external addresses.   ```solidity   cdpManager.moveSAFE(cdpIdSrc, cdpIdDst); // Merge two Safes   cdpManager.quit(cdpId, dstAddress); // Exit Safe to external address   ```",
    "details": "Tracks Safe ownership, permissions, and state via a double-linked list per user. Interacts with SafeEngine      to perform collateral and debt operations through CdpHandler proxies. Supports Safe creation, ownership transfer,      collateral/debt modification, and Safe merging. This contract is a fork of MakerDAOs DssCdpManager.sol, adapted      for StableUnit with a custom interface and simplified permission model.",
    "kind": "dev",
    "methods": {
      "allowHandler(address,uint256)": {
        "details": "Updates `handlerCan` mapping for the callers handler.",
        "params": {
          "ok": "Permission status (1 for allowed, 0 for denied).",
          "usr": "Address to grant/revoke permission."
        }
      },
      "cdpAllow(uint256,address,uint256)": {
        "details": "Updates `cdpCan` mapping for the Safes owner. Requires caller to be authorized.",
        "params": {
          "cdp": "Safe ID to modify permissions for.",
          "ok": "Permission status (1 for allowed, 0 for denied).",
          "usr": "Address to grant/revoke permission."
        }
      },
      "constructor": {
        "custom:oz-upgrades-unsafe-allow": "constructor"
      },
      "enter(address,uint256)": {
        "details": "Transfers all collateral and debt from the source address to the Safes handler. Requires caller to be authorized for both source handler and Safe.",
        "params": {
          "cdp": "Safe ID to receive collateral and debt.",
          "src": "Source address to transfer collateral and debt from."
        }
      },
      "initialize(address)": {
        "details": "Sets the SafeEngine reference for Safe operations.",
        "params": {
          "safeEngine_": "Address of the SafeEngine contract."
        }
      },
      "modifySAFECollateralization(uint256,int256,int256)": {
        "details": "Calls SafeEngines `modifySAFECollateralization` using the Safes handler. Requires caller to be authorized.",
        "params": {
          "cdp": "Safe ID to modify.",
          "deltaCollateral": "Amount to add (positive) or remove (negative) collateral [wad].",
          "deltaDebt": "Amount to add (positive) or remove (negative) debt [wad]."
        }
      },
      "moveSAFE(uint256,uint256)": {
        "details": "Transfers all collateral and debt from the source Safe to the destination Safe. Requires both Safes to have the same collateral type and caller to be authorized for both.",
        "params": {
          "cdpDst": "Destination Safe ID.",
          "cdpSrc": "Source Safe ID."
        }
      },
      "openSafe(bytes32,address)": {
        "details": "Deploys a CdpHandler, assigns ownership, and updates the double-linked list.      Emits a `NewCdp` event.",
        "params": {
          "collateralType": "Unique identifier for the collateral type (e.g., \"ETH-A\").",
          "usr": "Address to own the new Safe."
        },
        "returns": {
          "_0": "Safe ID (CDP ID) of the created Safe."
        }
      },
      "quit(uint256,address)": {
        "details": "Transfers all collateral and debt to the destination address via SafeEngine. Requires caller to be authorized for both Safe and destination handler.",
        "params": {
          "cdp": "Safe ID to exit.",
          "dst": "Destination address to receive collateral and debt."
        }
      },
      "transferCollateral(bytes32,uint256,address,uint256)": {
        "details": "Calls SafeEngines `transferCollateral`. Requires caller to be authorized.",
        "params": {
          "cdp": "Safe ID to transfer collateral from.",
          "dst": "Destination address to receive collateral.",
          "ilk": "Collateral type to use for transfer.",
          "wad": "Amount of collateral to transfer [wad]."
        }
      },
      "transferCollateral(uint256,address,uint256)": {
        "details": "Calls SafeEngines `transferCollateral`. Requires caller to be authorized.",
        "params": {
          "cdp": "Safe ID to transfer collateral from.",
          "dst": "Destination address to receive collateral.",
          "wad": "Amount of collateral to transfer [wad]."
        }
      },
      "transferInternalCoins(uint256,address,uint256)": {
        "details": "Calls SafeEngines `transferInternalCoins`. Requires caller to be authorized.",
        "params": {
          "cdp": "Safe ID to transfer coins from.",
          "dst": "Destination address to receive coins.",
          "rad": "Amount of StablePro coins to transfer [rad]."
        }
      },
      "transferSafeOwnership(uint256,address)": {
        "details": "Updates the double-linked list for both the old and new owners. Requires caller to be authorized.",
        "params": {
          "cdp": "Safe ID to transfer.",
          "dst": "New owner address."
        }
      }
    },
    "title": "DssCdpManager",
    "version": 1
  },
  "userdoc": {
    "kind": "user",
    "methods": {
      "allowHandler(address,uint256)": {
        "notice": "Grants or revokes permission for an address to modify the callers CdpHandler."
      },
      "cdpAllow(uint256,address,uint256)": {
        "notice": "Grants or revokes permission for an address to modify a Safe."
      },
      "cdpCan(address,uint256,address)": {
        "notice": "Maps owners to Safe IDs to allowed addresses with modification permissions."
      },
      "cdpCount(address)": {
        "notice": "Maps owner addresses to their total number of Safes."
      },
      "cdpi()": {
        "notice": "Auto-incrementing counter for Safe IDs (CDP IDs)."
      },
      "collateralTypes(uint256)": {
        "notice": "Maps Safe IDs to their collateral types (e.g., \"ETH-A\")."
      },
      "enter(address,uint256)": {
        "notice": "Imports collateral and debt from an external address into a Safe."
      },
      "firstCdpId(address)": {
        "notice": "Maps owner addresses to their first Safe ID."
      },
      "handlerCan(address,address)": {
        "notice": "Maps CdpHandler addresses to allowed addresses with modification permissions."
      },
      "initialize(address)": {
        "notice": "Initializes the DssCdpManager with a SafeEngine address."
      },
      "lastCdpId(address)": {
        "notice": "Maps owner addresses to their last Safe ID."
      },
      "list(uint256)": {
        "notice": "Maps Safe IDs to their previous and next IDs in the owners double-linked list."
      },
      "modifySAFECollateralization(uint256,int256,int256)": {
        "notice": "Modifies a Safes collateral and debt through SafeEngine."
      },
      "moveSAFE(uint256,uint256)": {
        "notice": "Merges collateral and debt from one Safe to another."
      },
      "openSafe(bytes32,address)": {
        "notice": "Creates a new Safe for a user with a specified collateral type."
      },
      "owns(uint256)": {
        "notice": "Maps Safe IDs to their owner addresses."
      },
      "quit(uint256,address)": {
        "notice": "Exits a Safes collateral and debt to an external address."
      },
      "safeEngine()": {
        "notice": "Reference to the SafeEngine contract for Safe operations."
      },
      "safes(uint256)": {
        "notice": "Maps Safe IDs to their CdpHandler proxy addresses."
      },
      "transferCollateral(bytes32,uint256,address,uint256)": {
        "notice": "Transfers collateral from a Safe to an address using a specified collateral type."
      },
      "transferCollateral(uint256,address,uint256)": {
        "notice": "Transfers collateral from a Safe to an address using the Safes collateral type."
      },
      "transferInternalCoins(uint256,address,uint256)": {
        "notice": "Transfers internal StablePro coins from a Safe to an address."
      },
      "transferSafeOwnership(uint256,address)": {
        "notice": "Transfers ownership of a Safe to another address."
      }
    },
    "notice": "Manages Safes (CDPs) for users in the StableUnit protocol, facilitating Safe creation and operations.",
    "version": 1
  },
  "storageLayout": {
    "storage": [
      {
        "astId": 1226,
        "contract": "contracts/makerdao/core/DssCdpManager.sol:DssCdpManager",
        "label": "_initialized",
        "offset": 0,
        "slot": "0",
        "type": "t_uint8"
      },
      {
        "astId": 1229,
        "contract": "contracts/makerdao/core/DssCdpManager.sol:DssCdpManager",
        "label": "_initializing",
        "offset": 1,
        "slot": "0",
        "type": "t_bool"
      },
      {
        "astId": 46333,
        "contract": "contracts/makerdao/core/DssCdpManager.sol:DssCdpManager",
        "label": "safeEngine",
        "offset": 2,
        "slot": "0",
        "type": "t_contract(ISafeEngine)53684"
      },
      {
        "astId": 46336,
        "contract": "contracts/makerdao/core/DssCdpManager.sol:DssCdpManager",
        "label": "cdpi",
        "offset": 0,
        "slot": "1",
        "type": "t_uint256"
      },
      {
        "astId": 46341,
        "contract": "contracts/makerdao/core/DssCdpManager.sol:DssCdpManager",
        "label": "safes",
        "offset": 0,
        "slot": "2",
        "type": "t_mapping(t_uint256,t_address)"
      },
      {
        "astId": 46347,
        "contract": "contracts/makerdao/core/DssCdpManager.sol:DssCdpManager",
        "label": "list",
        "offset": 0,
        "slot": "3",
        "type": "t_mapping(t_uint256,t_struct(List)53131_storage)"
      },
      {
        "astId": 46352,
        "contract": "contracts/makerdao/core/DssCdpManager.sol:DssCdpManager",
        "label": "owns",
        "offset": 0,
        "slot": "4",
        "type": "t_mapping(t_uint256,t_address)"
      },
      {
        "astId": 46357,
        "contract": "contracts/makerdao/core/DssCdpManager.sol:DssCdpManager",
        "label": "collateralTypes",
        "offset": 0,
        "slot": "5",
        "type": "t_mapping(t_uint256,t_bytes32)"
      },
      {
        "astId": 46362,
        "contract": "contracts/makerdao/core/DssCdpManager.sol:DssCdpManager",
        "label": "firstCdpId",
        "offset": 0,
        "slot": "6",
        "type": "t_mapping(t_address,t_uint256)"
      },
      {
        "astId": 46367,
        "contract": "contracts/makerdao/core/DssCdpManager.sol:DssCdpManager",
        "label": "lastCdpId",
        "offset": 0,
        "slot": "7",
        "type": "t_mapping(t_address,t_uint256)"
      },
      {
        "astId": 46372,
        "contract": "contracts/makerdao/core/DssCdpManager.sol:DssCdpManager",
        "label": "cdpCount",
        "offset": 0,
        "slot": "8",
        "type": "t_mapping(t_address,t_uint256)"
      },
      {
        "astId": 46381,
        "contract": "contracts/makerdao/core/DssCdpManager.sol:DssCdpManager",
        "label": "cdpCan",
        "offset": 0,
        "slot": "9",
        "type": "t_mapping(t_address,t_mapping(t_uint256,t_mapping(t_address,t_uint256)))"
      },
      {
        "astId": 46388,
        "contract": "contracts/makerdao/core/DssCdpManager.sol:DssCdpManager",
        "label": "handlerCan",
        "offset": 0,
        "slot": "10",
        "type": "t_mapping(t_address,t_mapping(t_address,t_uint256))"
      }
    ],
    "types": {
      "t_address": {
        "encoding": "inplace",
        "label": "address",
        "numberOfBytes": "20"
      },
      "t_bool": {
        "encoding": "inplace",
        "label": "bool",
        "numberOfBytes": "1"
      },
      "t_bytes32": {
        "encoding": "inplace",
        "label": "bytes32",
        "numberOfBytes": "32"
      },
      "t_contract(ISafeEngine)53684": {
        "encoding": "inplace",
        "label": "contract ISafeEngine",
        "numberOfBytes": "20"
      },
      "t_mapping(t_address,t_mapping(t_address,t_uint256))": {
        "encoding": "mapping",
        "key": "t_address",
        "label": "mapping(address => mapping(address => uint256))",
        "numberOfBytes": "32",
        "value": "t_mapping(t_address,t_uint256)"
      },
      "t_mapping(t_address,t_mapping(t_uint256,t_mapping(t_address,t_uint256)))": {
        "encoding": "mapping",
        "key": "t_address",
        "label": "mapping(address => mapping(uint256 => mapping(address => uint256)))",
        "numberOfBytes": "32",
        "value": "t_mapping(t_uint256,t_mapping(t_address,t_uint256))"
      },
      "t_mapping(t_address,t_uint256)": {
        "encoding": "mapping",
        "key": "t_address",
        "label": "mapping(address => uint256)",
        "numberOfBytes": "32",
        "value": "t_uint256"
      },
      "t_mapping(t_uint256,t_address)": {
        "encoding": "mapping",
        "key": "t_uint256",
        "label": "mapping(uint256 => address)",
        "numberOfBytes": "32",
        "value": "t_address"
      },
      "t_mapping(t_uint256,t_bytes32)": {
        "encoding": "mapping",
        "key": "t_uint256",
        "label": "mapping(uint256 => bytes32)",
        "numberOfBytes": "32",
        "value": "t_bytes32"
      },
      "t_mapping(t_uint256,t_mapping(t_address,t_uint256))": {
        "encoding": "mapping",
        "key": "t_uint256",
        "label": "mapping(uint256 => mapping(address => uint256))",
        "numberOfBytes": "32",
        "value": "t_mapping(t_address,t_uint256)"
      },
      "t_mapping(t_uint256,t_struct(List)53131_storage)": {
        "encoding": "mapping",
        "key": "t_uint256",
        "label": "mapping(uint256 => struct IDssCdpManager.List)",
        "numberOfBytes": "32",
        "value": "t_struct(List)53131_storage"
      },
      "t_struct(List)53131_storage": {
        "encoding": "inplace",
        "label": "struct IDssCdpManager.List",
        "members": [
          {
            "astId": 53128,
            "contract": "contracts/makerdao/core/DssCdpManager.sol:DssCdpManager",
            "label": "prev",
            "offset": 0,
            "slot": "0",
            "type": "t_uint256"
          },
          {
            "astId": 53130,
            "contract": "contracts/makerdao/core/DssCdpManager.sol:DssCdpManager",
            "label": "next",
            "offset": 0,
            "slot": "1",
            "type": "t_uint256"
          }
        ],
        "numberOfBytes": "64"
      },
      "t_uint256": {
        "encoding": "inplace",
        "label": "uint256",
        "numberOfBytes": "32"
      },
      "t_uint8": {
        "encoding": "inplace",
        "label": "uint8",
        "numberOfBytes": "1"
      }
    }
  }
}