{
  "address": "0x5dbcB900FCEc76680c75A53b120B348098873d17",
  "abi": [
    {
      "inputs": [
        {
          "internalType": "address",
          "name": "_oracleAddress",
          "type": "address"
        },
        {
          "internalType": "address",
          "name": "_topStakersAddress",
          "type": "address"
        }
      ],
      "stateMutability": "nonpayable",
      "type": "constructor"
    },
    {
      "inputs": [],
      "name": "BadOutAmount",
      "type": "error"
    },
    {
      "inputs": [],
      "name": "CallbackError",
      "type": "error"
    },
    {
      "inputs": [
        {
          "internalType": "address",
          "name": "orderToken2buy",
          "type": "address"
        },
        {
          "internalType": "address",
          "name": "inToken",
          "type": "address"
        }
      ],
      "name": "IncorrectToken",
      "type": "error"
    },
    {
      "inputs": [],
      "name": "InvalidAddress",
      "type": "error"
    },
    {
      "inputs": [],
      "name": "InvalidAmount",
      "type": "error"
    },
    {
      "inputs": [],
      "name": "InvalidDiscountType",
      "type": "error"
    },
    {
      "inputs": [],
      "name": "InvalidTokens",
      "type": "error"
    },
    {
      "inputs": [
        {
          "internalType": "address",
          "name": "staker",
          "type": "address"
        }
      ],
      "name": "IsNotStaker",
      "type": "error"
    },
    {
      "inputs": [
        {
          "internalType": "address",
          "name": "staker",
          "type": "address"
        }
      ],
      "name": "IsNotTopStaker",
      "type": "error"
    },
    {
      "inputs": [],
      "name": "IsNotWhitelisted",
      "type": "error"
    },
    {
      "inputs": [],
      "name": "MaxDiscountTooHigh",
      "type": "error"
    },
    {
      "inputs": [],
      "name": "NoStakersAvailable",
      "type": "error"
    },
    {
      "inputs": [],
      "name": "NotEnoughReturnValue",
      "type": "error"
    },
    {
      "inputs": [],
      "name": "OnlyAdminError",
      "type": "error"
    },
    {
      "inputs": [
        {
          "internalType": "uint256",
          "name": "orderId",
          "type": "uint256"
        }
      ],
      "name": "OrderExist",
      "type": "error"
    },
    {
      "inputs": [
        {
          "internalType": "uint256",
          "name": "orderId",
          "type": "uint256"
        }
      ],
      "name": "OrderNotExist",
      "type": "error"
    },
    {
      "inputs": [
        {
          "internalType": "uint256",
          "name": "orderId",
          "type": "uint256"
        },
        {
          "internalType": "address",
          "name": "staker",
          "type": "address"
        }
      ],
      "name": "OrderNotForThisStaker",
      "type": "error"
    },
    {
      "inputs": [],
      "name": "SmallAmountLeft",
      "type": "error"
    },
    {
      "inputs": [],
      "name": "UserIsNotBeneficiary",
      "type": "error"
    },
    {
      "inputs": [],
      "name": "ZeroPriceError",
      "type": "error"
    },
    {
      "inputs": [],
      "name": "ZeroRecipient",
      "type": "error"
    },
    {
      "anonymous": false,
      "inputs": [
        {
          "indexed": false,
          "internalType": "uint256",
          "name": "oldValue",
          "type": "uint256"
        },
        {
          "indexed": false,
          "internalType": "uint256",
          "name": "newValue",
          "type": "uint256"
        }
      ],
      "name": "DustThresholdChanged",
      "type": "event"
    },
    {
      "anonymous": false,
      "inputs": [
        {
          "indexed": true,
          "internalType": "address",
          "name": "token",
          "type": "address"
        },
        {
          "indexed": true,
          "internalType": "address",
          "name": "recipient",
          "type": "address"
        },
        {
          "indexed": false,
          "internalType": "uint256",
          "name": "amount",
          "type": "uint256"
        }
      ],
      "name": "EmergencyWithdraw",
      "type": "event"
    },
    {
      "anonymous": false,
      "inputs": [
        {
          "indexed": false,
          "internalType": "address",
          "name": "LPToken",
          "type": "address"
        },
        {
          "indexed": false,
          "internalType": "uint256[]",
          "name": "orderIds",
          "type": "uint256[]"
        }
      ],
      "name": "LpOrdersAdded",
      "type": "event"
    },
    {
      "anonymous": false,
      "inputs": [
        {
          "indexed": false,
          "internalType": "uint256",
          "name": "oldMaxDiscountPercent",
          "type": "uint256"
        },
        {
          "indexed": false,
          "internalType": "uint256",
          "name": "newMaxDiscountPercent",
          "type": "uint256"
        }
      ],
      "name": "MaxDiscountPercentChanged",
      "type": "event"
    },
    {
      "anonymous": false,
      "inputs": [
        {
          "indexed": false,
          "internalType": "uint256",
          "name": "orderId",
          "type": "uint256"
        }
      ],
      "name": "OrderAdded",
      "type": "event"
    },
    {
      "anonymous": false,
      "inputs": [
        {
          "indexed": false,
          "internalType": "uint256",
          "name": "orderId",
          "type": "uint256"
        }
      ],
      "name": "OrderCanceled",
      "type": "event"
    },
    {
      "anonymous": false,
      "inputs": [
        {
          "indexed": false,
          "internalType": "uint256",
          "name": "orderId",
          "type": "uint256"
        }
      ],
      "name": "OrderFilled",
      "type": "event"
    },
    {
      "anonymous": false,
      "inputs": [
        {
          "indexed": false,
          "internalType": "uint256",
          "name": "orderId",
          "type": "uint256"
        }
      ],
      "name": "OrderFilledPartially",
      "type": "event"
    },
    {
      "anonymous": false,
      "inputs": [
        {
          "indexed": true,
          "internalType": "address",
          "name": "previousOwner",
          "type": "address"
        },
        {
          "indexed": true,
          "internalType": "address",
          "name": "newOwner",
          "type": "address"
        }
      ],
      "name": "OwnershipTransferStarted",
      "type": "event"
    },
    {
      "anonymous": false,
      "inputs": [
        {
          "indexed": true,
          "internalType": "address",
          "name": "previousOwner",
          "type": "address"
        },
        {
          "indexed": true,
          "internalType": "address",
          "name": "newOwner",
          "type": "address"
        }
      ],
      "name": "OwnershipTransferred",
      "type": "event"
    },
    {
      "anonymous": false,
      "inputs": [],
      "name": "PriceCurveChanged",
      "type": "event"
    },
    {
      "anonymous": false,
      "inputs": [
        {
          "indexed": false,
          "internalType": "address",
          "name": "user",
          "type": "address"
        },
        {
          "indexed": false,
          "internalType": "bool",
          "name": "isWhitelisted",
          "type": "bool"
        }
      ],
      "name": "WhitelistUpdated",
      "type": "event"
    },
    {
      "inputs": [],
      "name": "DISCOUNT_TYPE_AGGRESSIVE",
      "outputs": [
        {
          "internalType": "uint8",
          "name": "",
          "type": "uint8"
        }
      ],
      "stateMutability": "view",
      "type": "function"
    },
    {
      "inputs": [],
      "name": "DISCOUNT_TYPE_CONSERVATIVE",
      "outputs": [
        {
          "internalType": "uint8",
          "name": "",
          "type": "uint8"
        }
      ],
      "stateMutability": "view",
      "type": "function"
    },
    {
      "inputs": [],
      "name": "DISCOUNT_TYPE_MIDDLE",
      "outputs": [
        {
          "internalType": "uint8",
          "name": "",
          "type": "uint8"
        }
      ],
      "stateMutability": "view",
      "type": "function"
    },
    {
      "inputs": [],
      "name": "ORACLE",
      "outputs": [
        {
          "internalType": "contract ISuOracleAggregator",
          "name": "",
          "type": "address"
        }
      ],
      "stateMutability": "view",
      "type": "function"
    },
    {
      "inputs": [],
      "name": "TOP_STAKERS",
      "outputs": [
        {
          "internalType": "contract ITopStakers",
          "name": "",
          "type": "address"
        }
      ],
      "stateMutability": "view",
      "type": "function"
    },
    {
      "inputs": [],
      "name": "acceptOwnership",
      "outputs": [],
      "stateMutability": "nonpayable",
      "type": "function"
    },
    {
      "inputs": [
        {
          "internalType": "address",
          "name": "token2sell",
          "type": "address"
        },
        {
          "internalType": "uint256",
          "name": "amount2sell",
          "type": "uint256"
        },
        {
          "internalType": "address",
          "name": "token2buy",
          "type": "address"
        },
        {
          "internalType": "address",
          "name": "beneficiary",
          "type": "address"
        },
        {
          "internalType": "uint8",
          "name": "discountType",
          "type": "uint8"
        },
        {
          "internalType": "address",
          "name": "collateralJoin",
          "type": "address"
        }
      ],
      "name": "addOrder",
      "outputs": [
        {
          "internalType": "uint256",
          "name": "orderId",
          "type": "uint256"
        }
      ],
      "stateMutability": "nonpayable",
      "type": "function"
    },
    {
      "inputs": [],
      "name": "admin",
      "outputs": [
        {
          "internalType": "address",
          "name": "",
          "type": "address"
        }
      ],
      "stateMutability": "view",
      "type": "function"
    },
    {
      "inputs": [
        {
          "internalType": "uint256",
          "name": "orderId",
          "type": "uint256"
        }
      ],
      "name": "cancelOrder",
      "outputs": [],
      "stateMutability": "nonpayable",
      "type": "function"
    },
    {
      "inputs": [],
      "name": "dustThreshold",
      "outputs": [
        {
          "internalType": "uint256",
          "name": "",
          "type": "uint256"
        }
      ],
      "stateMutability": "view",
      "type": "function"
    },
    {
      "inputs": [
        {
          "internalType": "address",
          "name": "token",
          "type": "address"
        },
        {
          "internalType": "address",
          "name": "recipient",
          "type": "address"
        },
        {
          "internalType": "uint256",
          "name": "amount",
          "type": "uint256"
        }
      ],
      "name": "emergencyWithdraw",
      "outputs": [],
      "stateMutability": "nonpayable",
      "type": "function"
    },
    {
      "inputs": [
        {
          "internalType": "uint256",
          "name": "orderId",
          "type": "uint256"
        },
        {
          "internalType": "uint256",
          "name": "inAmount",
          "type": "uint256"
        },
        {
          "internalType": "bytes",
          "name": "data",
          "type": "bytes"
        }
      ],
      "name": "fillOrderAsFlashLoan",
      "outputs": [
        {
          "internalType": "uint256",
          "name": "outAmount",
          "type": "uint256"
        }
      ],
      "stateMutability": "nonpayable",
      "type": "function"
    },
    {
      "inputs": [
        {
          "internalType": "uint256",
          "name": "orderId",
          "type": "uint256"
        },
        {
          "internalType": "uint256",
          "name": "inAmount",
          "type": "uint256"
        }
      ],
      "name": "fillOrderSimple",
      "outputs": [
        {
          "internalType": "uint256",
          "name": "outAmount",
          "type": "uint256"
        }
      ],
      "stateMutability": "nonpayable",
      "type": "function"
    },
    {
      "inputs": [
        {
          "internalType": "uint256",
          "name": "offset",
          "type": "uint256"
        },
        {
          "internalType": "uint256",
          "name": "limit",
          "type": "uint256"
        }
      ],
      "name": "getAllOrders",
      "outputs": [
        {
          "components": [
            {
              "components": [
                {
                  "internalType": "address",
                  "name": "token2sell",
                  "type": "address"
                },
                {
                  "internalType": "address",
                  "name": "token2buy",
                  "type": "address"
                },
                {
                  "internalType": "address",
                  "name": "beneficiary",
                  "type": "address"
                },
                {
                  "internalType": "address",
                  "name": "caller",
                  "type": "address"
                },
                {
                  "internalType": "uint256",
                  "name": "amountLeft",
                  "type": "uint256"
                },
                {
                  "internalType": "uint256",
                  "name": "token2buyAmount",
                  "type": "uint256"
                },
                {
                  "internalType": "uint64",
                  "name": "creationTimestamp",
                  "type": "uint64"
                },
                {
                  "internalType": "uint8",
                  "name": "discountType",
                  "type": "uint8"
                }
              ],
              "internalType": "struct Order",
              "name": "order",
              "type": "tuple"
            },
            {
              "internalType": "uint256",
              "name": "orderId",
              "type": "uint256"
            }
          ],
          "internalType": "struct OrderWithId[]",
          "name": "",
          "type": "tuple[]"
        }
      ],
      "stateMutability": "view",
      "type": "function"
    },
    {
      "inputs": [
        {
          "internalType": "uint256",
          "name": "orderId",
          "type": "uint256"
        }
      ],
      "name": "getAssignedStaker",
      "outputs": [
        {
          "internalType": "address",
          "name": "",
          "type": "address"
        }
      ],
      "stateMutability": "view",
      "type": "function"
    },
    {
      "inputs": [
        {
          "internalType": "uint256",
          "name": "orderId",
          "type": "uint256"
        },
        {
          "internalType": "uint256",
          "name": "inAmount",
          "type": "uint256"
        }
      ],
      "name": "getExpectedOrderOutcome",
      "outputs": [
        {
          "internalType": "uint256",
          "name": "outAmount",
          "type": "uint256"
        }
      ],
      "stateMutability": "view",
      "type": "function"
    },
    {
      "inputs": [
        {
          "internalType": "uint256",
          "name": "orderId",
          "type": "uint256"
        }
      ],
      "name": "getOrder",
      "outputs": [
        {
          "components": [
            {
              "internalType": "address",
              "name": "token2sell",
              "type": "address"
            },
            {
              "internalType": "address",
              "name": "token2buy",
              "type": "address"
            },
            {
              "internalType": "address",
              "name": "beneficiary",
              "type": "address"
            },
            {
              "internalType": "address",
              "name": "caller",
              "type": "address"
            },
            {
              "internalType": "uint256",
              "name": "amountLeft",
              "type": "uint256"
            },
            {
              "internalType": "uint256",
              "name": "token2buyAmount",
              "type": "uint256"
            },
            {
              "internalType": "uint64",
              "name": "creationTimestamp",
              "type": "uint64"
            },
            {
              "internalType": "uint8",
              "name": "discountType",
              "type": "uint8"
            }
          ],
          "internalType": "struct Order",
          "name": "",
          "type": "tuple"
        }
      ],
      "stateMutability": "view",
      "type": "function"
    },
    {
      "inputs": [],
      "name": "getOrdersCount",
      "outputs": [
        {
          "internalType": "uint256",
          "name": "",
          "type": "uint256"
        }
      ],
      "stateMutability": "view",
      "type": "function"
    },
    {
      "inputs": [],
      "name": "maxDiscountPercent",
      "outputs": [
        {
          "internalType": "uint256",
          "name": "",
          "type": "uint256"
        }
      ],
      "stateMutability": "view",
      "type": "function"
    },
    {
      "inputs": [
        {
          "internalType": "uint256",
          "name": "",
          "type": "uint256"
        }
      ],
      "name": "orders",
      "outputs": [
        {
          "internalType": "address",
          "name": "token2sell",
          "type": "address"
        },
        {
          "internalType": "address",
          "name": "token2buy",
          "type": "address"
        },
        {
          "internalType": "address",
          "name": "beneficiary",
          "type": "address"
        },
        {
          "internalType": "address",
          "name": "caller",
          "type": "address"
        },
        {
          "internalType": "uint256",
          "name": "amountLeft",
          "type": "uint256"
        },
        {
          "internalType": "uint256",
          "name": "token2buyAmount",
          "type": "uint256"
        },
        {
          "internalType": "uint64",
          "name": "creationTimestamp",
          "type": "uint64"
        },
        {
          "internalType": "uint8",
          "name": "discountType",
          "type": "uint8"
        }
      ],
      "stateMutability": "view",
      "type": "function"
    },
    {
      "inputs": [],
      "name": "owner",
      "outputs": [
        {
          "internalType": "address",
          "name": "",
          "type": "address"
        }
      ],
      "stateMutability": "view",
      "type": "function"
    },
    {
      "inputs": [],
      "name": "pendingOwner",
      "outputs": [
        {
          "internalType": "address",
          "name": "",
          "type": "address"
        }
      ],
      "stateMutability": "view",
      "type": "function"
    },
    {
      "inputs": [
        {
          "internalType": "uint8",
          "name": "",
          "type": "uint8"
        },
        {
          "internalType": "uint256",
          "name": "",
          "type": "uint256"
        }
      ],
      "name": "priceCurve",
      "outputs": [
        {
          "internalType": "uint256",
          "name": "",
          "type": "uint256"
        }
      ],
      "stateMutability": "view",
      "type": "function"
    },
    {
      "inputs": [],
      "name": "renounceOwnership",
      "outputs": [],
      "stateMutability": "nonpayable",
      "type": "function"
    },
    {
      "inputs": [
        {
          "internalType": "uint256",
          "name": "newThreshold",
          "type": "uint256"
        }
      ],
      "name": "setDustThreshold",
      "outputs": [],
      "stateMutability": "nonpayable",
      "type": "function"
    },
    {
      "inputs": [
        {
          "internalType": "uint256",
          "name": "newMaxDiscountPercent",
          "type": "uint256"
        }
      ],
      "name": "setMaxDiscountPercent",
      "outputs": [],
      "stateMutability": "nonpayable",
      "type": "function"
    },
    {
      "inputs": [
        {
          "internalType": "uint8",
          "name": "discountType",
          "type": "uint8"
        },
        {
          "internalType": "uint256[2]",
          "name": "newPriceCurve",
          "type": "uint256[2]"
        }
      ],
      "name": "setPriceCurve",
      "outputs": [],
      "stateMutability": "nonpayable",
      "type": "function"
    },
    {
      "inputs": [
        {
          "internalType": "address",
          "name": "newOwner",
          "type": "address"
        }
      ],
      "name": "transferOwnership",
      "outputs": [],
      "stateMutability": "nonpayable",
      "type": "function"
    },
    {
      "inputs": [
        {
          "internalType": "address",
          "name": "user",
          "type": "address"
        },
        {
          "internalType": "bool",
          "name": "isWhitelisted",
          "type": "bool"
        }
      ],
      "name": "updateWhitelistUser",
      "outputs": [],
      "stateMutability": "nonpayable",
      "type": "function"
    },
    {
      "inputs": [
        {
          "internalType": "address",
          "name": "",
          "type": "address"
        }
      ],
      "name": "userWhitelist",
      "outputs": [
        {
          "internalType": "bool",
          "name": "",
          "type": "bool"
        }
      ],
      "stateMutability": "view",
      "type": "function"
    }
  ],
  "transactionHash": "0x73ff157b283c6224d08f83bf68a3409aba417e62ed48d26d1e03b05742326c34",
  "args": [
    "0x5bF3B6951e11E071EA83770f0584e2f88908C128",
    "0xC105FD5b152018355246fa1f2457c39663f1d39b"
  ],
  "numDeployments": 1,
  "solcInputHash": "8c060bc8c39a7272c2849a174b3b4791",
  "bytecode": "0x608034620001c0576200231a90601f38839003908101601f19168201906001600160401b03821183831017620001c55780839160409586948552833981010312620001c0576200004f81620001fb565b906200005f6020809201620001fb565b60019260009084825560018060a01b03199460028681541681558154933388861617835560018060a01b03968795863391167f8be0079c531659141344cd1fd0a4f28419497f9722a3daafe3b4186f6b6457e08480a3620000bf620001db565b61038481528282820152828052600c82528a832090835b858110620001a757505050620000eb620001db565b6202bf2081528282820152848352600c82528a832090835b8581106200018d5750505062000118620001db565b906206978082528281830152838352600c81528a832091925b848110620001735750505050505068056bc75e2d631000006008556014600d551683600354161760035516906004541617600455516121099081620002118239f35b835162ffffff168184015589975092810192850162000131565b815162ffffff16818401558a985090830190860162000103565b815161ffff16818401558a9850908301908601620000d6565b600080fd5b634e487b7160e01b600052604160045260246000fd5b60408051919082016001600160401b03811183821017620001c557604052565b51906001600160a01b0382168203620001c05756fe6040608081526004908136101561001557600080fd5b600091823560e01c90816303eaa21a146110a757816316b313e5146110765781633346126814610ff557816338013f0214610fcc578163418f284514610f5e578163511df44214610ef9578163514fcac714610de257816366990b7f14610dc6578163715018a614610d7157816371567bd714610d5657816379ba509714610ca45781638da5cb5b14610c7b5781639461a96314610c0d578163a85c38ef14610b80578163ad7e55ba14610b2b578163b5b3b05114610b0c578163ba07fc5914610ae4578163d09ef24114610aa3578163d0b13a6214610a84578163d741b9c314610a46578163d7c8ae8914610a01578163e2ed06de146107c0578163e30c397814610797578163e63ea40814610708578163e8462e8f146106e9578163ef3391bc14610385578163f2fde38b14610317578163f582099e146102fb578163f6243a0414610198575063f851a4401461016d57600080fd5b3461019457816003193601126101945760055490516001600160a01b039091168152602090f35b5080fd5b8284346102f8576101a836611167565b93908252602093600985526101be848420611675565b60c081015160035482518751631735856760e31b8082526001600160a01b0392831682890152949694928216936001600160401b031642038a82602481885afa9182156102ee57908b949392918a926102ba575b5061022a60249392869260ff60e08d01511691611838565b9801511691895194859384928352878301525afa9485156102af579461027b575b50831561026d57506102669291610261916112c4565b611818565b9051908152f35b845163e1281b5d60e01b8152fd5b9093508581813d83116102a8575b610293818361122e565b810103126102a35751928661024b565b600080fd5b503d610289565b8651903d90823e3d90fd5b809392508591953d83116102e7575b6102d3818361122e565b810103126102a35790518a9361022a610212565b503d6102c9565b8a513d8b823e3d90fd5b80fd5b5050346101945781600319360112610194576020905160028152f35b83346102f85760203660031901126102f857610331611151565b61033961126c565b600280546001600160a01b0319166001600160a01b039283169081179091556001549091167f38d16b8cac22d99fc7c124b9cd0de2d3fa1faef420bfe791d8c362d765e227008380a380f35b919050346106e55760c03660031901126106e5576103a1611151565b604435936001600160a01b0393909160243591858716908188036106e157606435938785168095036106dd576084359460ff86168096036106d95760a435938985168095036106d5576103f2611317565b33885260209a60068c5260ff8a8a205416156106c557600288116106b5578a871695861580156106ad575b80156106a5575b6106955782871461068557841561067557806105fd57506104478430338961136d565b33895260078c5289892080549061045d82611308565b90558a51978d8901924384523360601b8d8b015260018060601b0319809260601b1660548b01528660688b015260601b166088890152609c880152609c875260c087019660018060401b0397818110898211176105e8578b52519020998a895260098c528660068b8b200154166105d157918b93918b98979695938b51966104e4886111e1565b87528587019182528b870192835260608701923384526080880194855260a08801968c885260c089019b8a42168d5260e08a019b8c528d5260099052818d8d2098511692600160a01b600190031993848a54161789558260018a01915116848254161790558160028901915116838254161790556003870192511690825416179055519083015551600582015560060192511682549160ff60401b9051861b1691600160481b6001900319161717905561059d836115f6565b508151848482527f12a866cc569301d2ff9fcbbae3decc9e0cf3fa94ddef08dd0de3e9a693fb8d1991a16001905551908152f35b8951634b92340560e01b81528086018c9052602490fd5b604187634e487b7160e01b6000525260246000fd5b803b15610671578a5163ef693bed60e01b8152908a9082908183816106258b308e84016112ed565b03925af180156106675761063a575b50610447565b9098906001600160401b038111610654578a529738610634565b634e487b7160e01b825260418652602482fd5b8b513d8c823e3d90fd5b8980fd5b8a5163162908e360e11b81528690fd5b8a516333910aef60e11b81528690fd5b8a5163e6c4247b60e01b81528690fd5b508315610424565b50821561041d565b895163559b66cb60e01b81528590fd5b8951631033349760e31b81528590fd5b8780fd5b8680fd5b8580fd5b8480fd5b8280fd5b5050346101945781600319360112610194576020906008549051908152f35b919050346106e55760603660031901126106e557610724611151565b916024359160018060a01b03808416948585036106d9576044359361074761126c565b8615610789575091610781847ff24ef89f38eadc1bde50701ad6e4d6d11a2dc24f7cf834a486991f388332850495936020951696876116e7565b51908152a380f35b835163d27b444360e01b8152fd5b50503461019457816003193601126101945760025490516001600160a01b039091168152602090f35b838334610194576060366003190112610194576044359183356001600160401b038411610194573660238501121561019457838501359461080086611251565b9461080d8551968761122e565b868652602496368882840101116106e157879181869260209a8b9301838b013788010152610839611317565b8284526009875284842061084f818335866118e5565b93909760018060a01b03936108718585541696866001870154169733906116e7565b88516370a0823160e01b808252308583015290928c8484818b5afa93841561066757908d918b956109ce575b50906108d5918d8d519384928392633517a9e160e11b84528d8b85015288840152336044840152608060648401526084830190611585565b03818d335af1908115610667578a916109a1575b5015610991578b908a519283918252308683015281895afa908115610987578a908992610955575b5061091c91926118af565b11610947575086610940936001969593600261093b94015416906116e7565b611cd7565b5551908152f35b865163395c945760e11b8152fd5b8092508c8092503d8311610980575b61096e818361122e565b810103126106d557518961091c610911565b503d610964565b89513d8a823e3d90fd5b895163c286d75960e01b81528490fd5b6109c191508d803d106109c7575b6109b9818361122e565b8101906113c7565b8d6108e9565b503d6109af565b8281939296503d83116109fa575b6109e6818361122e565b810103126106715751928c906108d561089d565b503d6109dc565b505034610194578060031936011261019457610a1b611141565b60ff60243591168352600c6020528183206002821015610a42576020935001549051908152f35b8380fd5b5050346101945760203660031901126101945760209160ff9082906001600160a01b03610a71611151565b1681526006855220541690519015158152f35b505034610194578160031936011261019457602090600d549051908152f35b9050346106e55760203660031901126106e557610ad98261010094610ae293610aca611d83565b50358152600960205220611675565b9151809261117d565bf35b9050346106e557826003193601126106e5575490516001600160a01b03909116815260209150f35b505034610194578160031936011261019457602090600a549051908152f35b919050346106e55760203660031901126106e5577fbc1831d2100f8fce25142262c5034292d68880bbae15b8f096994291dd58c2259135610b6a61126c565b600854908060085582519182526020820152a180f35b9050346106e55760203660031901126106e55780826101009460ff933581526009602052209260018060a01b03938481541694806001830154169381600284015416916003840154169083015491600660058501549401549585519889526020890152848801526060870152608086015260a085015260018060401b03821660c08501521c1660e0820152f35b9050346106e55760203660031901126106e557803590610c2b61126c565b605a8211610c6d5750907f5d36795820f2de51fbfd2492d5411afd83136f6c2b63e8d75addd83a4f0fde1591600d549080600d5582519182526020820152a180f35b8251636bb48cb160e01b8152fd5b50503461019457816003193601126101945760015490516001600160a01b039091168152602090f35b919050346106e557826003193601126106e557600254916001600160a01b03913383851603610d015750506001600160a01b031991821660025560018054339381168417909155166000805160206120b48339815191528380a380f35b906020608492519162461bcd60e51b8352820152602960248201527f4f776e61626c6532537465703a2063616c6c6572206973206e6f7420746865206044820152683732bb9037bbb732b960b91b6064820152fd5b50503461019457816003193601126101945751908152602090f35b83346102f857806003193601126102f857610d8a61126c565b600280546001600160a01b031990811690915560018054918216905581906001600160a01b03166000805160206120b48339815191528280a380f35b5050346101945781600319360112610194576020905160018152f35b919050346106e55760203660031901126106e557813591610e01611317565b8284526009602052610e14828520611675565b60c08101516001600160401b031615610ee357828101516001600160a01b0390811633141580610ed3575b610ec35760067fc41f4ceb2938876c35e61b705e9d2f18a02c4a26ce5e049a6308a943d46851b39593610e818460808a956020999751169101519033906116e7565b8483526009865282848120918183558160018401558160028401558160038401558201558260058201550155610eb68261172e565b5051908152a16001815580f35b835163da383fb560e01b81528390fd5b5080606083015116331415610e3f565b508260249251916373a98b6360e11b8352820152fd5b50503461019457610940906001602093610f1236611167565b9490610f1c611317565b8083526009875261093b610f348685208098846118e5565b9097868060a01b03610f558a828a850154168360028601541690339061136d565b339154166116e7565b8284346102f85790610f78610f7236611167565b90611dec565b81519160208080850192818652845180945285019301945b828110610f9d5784840385f35b90919282610120600192828951610fb583825161117d565b015161010082015201960191019492919094610f90565b50503461019457816003193601126101945760035490516001600160a01b039091168152602090f35b50503461019457806003193601126101945761100f611151565b90602435801515809103610a42577ff93f9a76c1bf3444d22400a00cb9fe990e6abe9dbb333fda48859cfee864543d9261104761126c565b60018060a01b031690818552600660205282852060ff1981541660ff831617905582519182526020820152a180f35b8284346102f85760203660031901126102f8575061109660209235611fa6565b90516001600160a01b039091168152f35b919050346106e55760603660031901126106e5576110c3611141565b36606411610a425760ff906110d661126c565b1660029283821161113357508352602090600c82528320602491845b84811061112157857f2420725846887d067c9d919f20d8ac9132a4adfccb24bc414e9263830caaa8ed8180a180f35b833583820155928101926001016110f2565b825163559b66cb60e01b8152fd5b6004359060ff821682036102a357565b600435906001600160a01b03821682036102a357565b60409060031901126102a3576004359060243590565b60ff60e0809260018060a01b0380825116865280602083015116602087015280604083015116604087015260608201511660608601526080810151608086015260a081015160a086015260018060401b0360c08201511660c0860152015116910152565b61010081019081106001600160401b038211176111fd57604052565b634e487b7160e01b600052604160045260246000fd5b604081019081106001600160401b038211176111fd57604052565b601f909101601f19168101906001600160401b038211908210176111fd57604052565b6001600160401b0381116111fd57601f01601f191660200190565b6001546001600160a01b0316330361128057565b606460405162461bcd60e51b815260206004820152602060248201527f4f776e61626c653a2063616c6c6572206973206e6f7420746865206f776e65726044820152fd5b818102929181159184041417156112d757565b634e487b7160e01b600052601160045260246000fd5b6001600160a01b039091168152602081019190915260400190565b60001981146112d75760010190565b600260005414611328576002600055565b60405162461bcd60e51b815260206004820152601f60248201527f5265656e7472616e637947756172643a207265656e7472616e742063616c6c006044820152606490fd5b6040516323b872dd60e01b60208201526001600160a01b03928316602482015292909116604483015260648083019390935291815260a08101918183106001600160401b038411176111fd576113c5926040526113df565b565b908160209103126102a3575180151581036102a35790565b60405161145c916001600160a01b03166113f882611213565b6000806020958685527f5361666545524332303a206c6f772d6c6576656c2063616c6c206661696c656487860152868151910182855af13d156114e4573d9161144083611251565b9261144e604051948561122e565b83523d60008785013e6114e8565b8051908282159283156114cc575b505050156114755750565b6084906040519062461bcd60e51b82526004820152602a60248201527f5361666545524332303a204552433230206f7065726174696f6e20646964206e6044820152691bdd081cdd58d8d9595960b21b6064820152fd5b6114dc93508201810191016113c7565b38828161146a565b6060915b9192901561154a57508151156114fc575090565b3b156115055790565b60405162461bcd60e51b815260206004820152601d60248201527f416464726573733a2063616c6c20746f206e6f6e2d636f6e74726163740000006044820152606490fd5b82519091501561155d5750805190602001fd5b60405162461bcd60e51b815260206004820152908190611581906024830190611585565b0390fd5b919082519283825260005b8481106115b1575050826000602080949584010152601f8019910116010190565b602081830181015184830182015201611590565b600a548110156115e057600a60005260206000200190600090565b634e487b7160e01b600052603260045260246000fd5b6000818152600b602052604081205461167057600a54600160401b81101561165c57908261164861162f84600160409601600a556115c5565b819391549060031b600019811b9283911b169119161790565b9055600a54928152600b6020522055600190565b634e487b7160e01b82526041600452602482fd5b905090565b90604051611682816111e1565b60e060ff6006839560018060a01b03808254168652806001830154166020870152806002830154166040870152600382015416606086015260048101546080860152600581015460a0860152015460018060401b03811660c085015260401c16910152565b61171c6113c5939261170e60405194859263a9059cbb60e01b6020850152602484016112ed565b03601f19810184528361122e565b6113df565b919082039182116112d757565b6000818152600b6020526040812054909190801561181357600019908082018181116117ff57600a54908382019182116117eb578082036117b7575b505050600a5480156117a357810190611782826115c5565b909182549160031b1b19169055600a558152600b6020526040812055600190565b634e487b7160e01b84526031600452602484fd5b6117d56117c661162f936115c5565b90549060031b1c9283926115c5565b90558452600b602052604084205538808061176a565b634e487b7160e01b86526011600452602486fd5b634e487b7160e01b85526011600452602485fd5b505090565b8115611822570490565b634e487b7160e01b600052601260045260246000fd5b60ff600093168352600c602052604083205490600160408520015491600d54606403606481116117eb5761186e606491846112c4565b04938181116118a6579161188d611893926102616118989695846112c4565b90611721565b611721565b915080821115611670575090565b50505050905090565b919082018092116112d757565b8115611822570690565b908160209103126102a357516001600160a01b03811681036102a35790565b6006830180549294939290919085906001600160401b03168015611cbe57420391603c8311611c3f57600480546040805163c4e4a93b60e01b815292939290916001600160a01b039160209183169082818881855afa908115611c3457600091611c07575b508015611bf757845162650fcd60e31b815233888201528381602481865afa908115611bec57600091611bcf575b5015611bb9576119898391876118bc565b6024865180948193635787631160e11b83528b8301525afa918215611bae57600092611b81575b5050163303611b66575050505b60048401908154809111611b5e575b5060018060a01b0380600354169281865416936040958651632a5001c960e01b9687825260048201526020938482602481600080985af1918215611b5457908592918592611b23575b5060ff611a279394548b1c1691611838565b95602485600354169560018b01541691848a519788948593845260048401525af1918215611b17578192611ae4575b5050611a67915061026184896112c4565b938415611ad357600501611a7c8582546118af565b9055611a89868254611721565b8091558015159182611ab1575b5050611aa157509190565b5163117be23960e31b8152600490fd5b670de0b6b3a7640000925090611ac6916112c4565b0460085410153880611a96565b835163ebda174360e01b8152600490fd5b90915082813d8311611b10575b611afb818361122e565b810103126102f85750611a6790513880611a56565b503d611af1565b508551903d90823e3d90fd5b8092508391933d8311611b4d575b611b3b818361122e565b81010312610a425751849160ff611a15565b503d611b31565b89513d86823e3d90fd5b9550386119cc565b51636d5e923560e01b81529182015233602482015260449150fd5b611ba09250803d10611ba7575b611b98818361122e565b8101906118c6565b38806119b0565b503d611b8e565b84513d6000823e3d90fd5b845163a849de1760e01b81523381890152602490fd5b611be69150843d86116109c7576109b9818361122e565b38611978565b86513d6000823e3d90fd5b84516340763d8d60e11b81528790fd5b908382813d8311611c2d575b611c1d818361122e565b810103126102f85750513861194a565b503d611c13565b85513d6000823e3d90fd5b506024602060018060a01b036004541660405192838092636f1e853360e01b82523360048301525afa908115611cb257600091611c94575b506119bd57604051631953278360e21b8152336004820152602490fd5b611cac915060203d81116109c7576109b9818361122e565b38611c77565b6040513d6000823e3d90fd5b6040516373a98b6360e11b815260048101849052602490fd5b600081815260096020526040812060040154611d555781817fcdf98e0235c72ad7ae8de32249da25cc98298c8f11710c55a3d58e9e7ac69f949360209352600983526006604082208281558260018201558260028201558260038201558260048201558260058201550155611d4b8161172e565b50604051908152a1565b5060207fc238a2d1c485b17bfd980b5e6d0483704cd4720118eb06215758d49f85ea896391604051908152a1565b60405190611d90826111e1565b8160e06000918281528260208201528260408201528260608201528260808201528260a08201528260c08201520152565b6001600160401b0381116111fd5760051b60200190565b80518210156115e05760209160051b010190565b60408051600a805480835260009182529194602094927fc65a7bb8d6351c1cf70c95a316cc6a92839c986682d98bc35f958f4883f9d2a890879087820190855b89828210611f9057505050611e439250038761122e565b8551908115611f585781611e5782866118af565b1115611f475750935b82851115611f4057611e728386611721565b955b611e7d87611dc1565b96611e8a8651988961122e565b808852611e99601f1991611dc1565b0182845b828110611f1857505050835b868110611eba575050505050505090565b80611f0d611ecb611f139385611dd8565b518087526009865288872090611eeb8a5192611ee684611213565b611675565b825286820152611efb8884611721565b90611f06828d611dd8565b528a611dd8565b50611308565b611ea9565b8751611f2381611213565b611f2b611d83565b8152868382015282828c010152018390611e9d565b8195611e74565b611f529150836118af565b93611e60565b5050825194509284019190506001600160401b03821184831017611f7c5752815290565b634e487b7160e01b83526041600452602483fd5b855484526001958601958c955093019201611e2c565b60009080825260206009815260018060401b0360c0611fc760408620611675565b01511680156120ad57603c904203116118135760018060a01b0360045416916040519063c4e4a93b60e01b82528282600481875afa9182156120a2578592612073575b50811561206c57829161201c916118bc565b602460405180958193635787631160e11b835260048301525afa928315612060579261204757505090565b61205d9250803d10611ba757611b98818361122e565b90565b604051903d90823e3d90fd5b5050505090565b9091508281813d831161209b575b61208b818361122e565b810103126106e15751903861200a565b503d612081565b6040513d87823e3d90fd5b5050509056fe8be0079c531659141344cd1fd0a4f28419497f9722a3daafe3b4186f6b6457e0a2646970667358221220cbb8396a187515f7603e2005a755cef255e6a149eb0261e6025c609195211d2864736f6c63430008110033",
  "devdoc": {
    "details": "See IExchange interface for full details.",
    "kind": "dev",
    "methods": {
      "acceptOwnership()": {
        "details": "The new owner accepts the ownership transfer."
      },
      "addOrder(address,uint256,address,address,uint8,address)": {
        "details": "This swap is async, because depends on how arbitrage bots will fill this order. Emits OrderAdded() event. Before addOrder user needs to approve token2sell for exchange contract",
        "params": {
          "amount2sell": "- Amount of {token2sell} to sell",
          "beneficiary": "- Address that will receive {token2buy} after filling order.",
          "collateralJoin": "- address of collateral adapter*",
          "discountType": "- Speed of decreasing swap price. { 0 - aggressive, 1 - middle, 2 - conservative }",
          "token2buy": "- Address of token to buy",
          "token2sell": "- Address of token to sell"
        }
      },
      "cancelOrder(uint256)": {
        "params": {
          "orderId": "- Id of order to cancel.*"
        }
      },
      "fillOrderAsFlashLoan(uint256,uint256,bytes)": {
        "details": "Caller contract receive orders {token2sell} and after that his stableunitFillOrderCallback() is called. At the end of thi callback contract should send some amount of another token back to Exchange contract.We don't need slippage protection because: 1. Prices are determined by Oracle, not DEX market conditions 2. Output amount is calculated deterministically at execution time",
        "params": {
          "data": "- encoded data to pass to callback function*",
          "inAmount": "- Amount of {token2sell} to receive",
          "orderId": "- Id of order to fill."
        }
      },
      "fillOrderSimple(uint256,uint256)": {
        "details": "Caller contract send tokens and receive another tokens depends on the order",
        "params": {
          "inAmount": "- Amount of {token2sell} to receive*",
          "orderId": "- Id of order to fill."
        }
      },
      "getAssignedStaker(uint256)": {
        "params": {
          "orderId": "The ID of the order to check"
        },
        "returns": {
          "_0": "assignedStaker The address of the assigned staker, or zero address if:         - Order doesn't exist         - Order is past grace period         - No top stakers available"
        }
      },
      "getExpectedOrderOutcome(uint256,uint256)": {
        "returns": {
          "outAmount": "The amount of outcome that caller will receive if he will fill {orderId} with {inAmount} of {token2sell}*"
        }
      },
      "getOrder(uint256)": {
        "returns": {
          "_0": "Order with id = {orderId}*"
        }
      },
      "getOrdersCount()": {
        "returns": {
          "_0": "The amount of not full-filled orders*"
        }
      },
      "owner()": {
        "details": "Returns the address of the current owner."
      },
      "pendingOwner()": {
        "details": "Returns the address of the pending owner."
      },
      "renounceOwnership()": {
        "details": "Leaves the contract without owner. It will not be possible to call `onlyOwner` functions. Can only be called by the current owner. NOTE: Renouncing ownership will leave the contract without an owner, thereby disabling any functionality that is only available to the owner."
      },
      "setDustThreshold(uint256)": {
        "params": {
          "newThreshold": "- new dust threshold*"
        }
      },
      "setMaxDiscountPercent(uint256)": {
        "details": "This function can only be called by the contract owner",
        "params": {
          "newMaxDiscountPercent": "New maximum discount value (in percentage points).        Value is bounded to 90% to prevent configuration mistakes"
        }
      },
      "setPriceCurve(uint8,uint256[2])": {
        "params": {
          "discountType": "- discount type to change",
          "newPriceCurve": "- parameters of formula*"
        }
      },
      "transferOwnership(address)": {
        "details": "Starts the ownership transfer of the contract to a new account. Replaces the pending transfer if there is one. Can only be called by the current owner."
      },
      "updateWhitelistUser(address,bool)": {
        "params": {
          "isWhitelisted": "- bool, false if we want to remove, true if we want to add user to whitelist.*",
          "user": "- address of user"
        }
      }
    },
    "title": "Exchange",
    "version": 1
  },
  "userdoc": {
    "kind": "user",
    "methods": {
      "addOrder(address,uint256,address,address,uint8,address)": {
        "notice": "Add order to swap {token2sell} to {token2buy}."
      },
      "cancelOrder(uint256)": {
        "notice": "Only user who place order or who is beneficiary can cancelOrder();"
      },
      "dustThreshold()": {
        "notice": "Amount of minimum amountLeft in order. It's measured in fiat. For example dustThreshold = 100 * 1e18 => it's 100 USD*"
      },
      "emergencyWithdraw(address,address,uint256)": {
        "notice": "Emergency withdraw in case contract have some tokens, that can be transferred by default functions*"
      },
      "fillOrderAsFlashLoan(uint256,uint256,bytes)": {
        "notice": "Fill order with flash-loan like logic"
      },
      "fillOrderSimple(uint256,uint256)": {
        "notice": "Fill order without a flash-loan"
      },
      "getAllOrders(uint256,uint256)": {
        "notice": "This method can be deleted after we'll add GraphQL to watch orders*"
      },
      "getAssignedStaker(uint256)": {
        "notice": "Returns the address of the staker assigned to an order during grace period"
      },
      "priceCurve(uint8,uint256)": {
        "notice": "priceCurve is like price_t = price_0 * (1 - t/priceCurve[0]) - priceCurve[1] from timePassed = 0 to t priceCurve decrease linear, but after t (when discount is 20%), it's constant*"
      },
      "setDustThreshold(uint256)": {
        "notice": "Function to update dust threshold"
      },
      "setMaxDiscountPercent(uint256)": {
        "notice": "Updates the maximum allowed discount percentage for all order types"
      },
      "setPriceCurve(uint8,uint256[2])": {
        "notice": "Function to update price curve - how fast {token2sell} price will decrease/increase"
      },
      "updateWhitelistUser(address,bool)": {
        "notice": "Add or remove user from whitelist"
      }
    },
    "notice": "Main contract of Exchange module. Here we can add order or fill it to get profit.",
    "version": 1
  },
  "storageLayout": {
    "storage": [
      {
        "astId": 6155,
        "contract": "contracts/exchange/contracts/exchange/Exchange.sol:Exchange",
        "label": "_status",
        "offset": 0,
        "slot": "0",
        "type": "t_uint256"
      },
      {
        "astId": 5788,
        "contract": "contracts/exchange/contracts/exchange/Exchange.sol:Exchange",
        "label": "_owner",
        "offset": 0,
        "slot": "1",
        "type": "t_address"
      },
      {
        "astId": 5901,
        "contract": "contracts/exchange/contracts/exchange/Exchange.sol:Exchange",
        "label": "_pendingOwner",
        "offset": 0,
        "slot": "2",
        "type": "t_address"
      },
      {
        "astId": 19975,
        "contract": "contracts/exchange/contracts/exchange/Exchange.sol:Exchange",
        "label": "ORACLE",
        "offset": 0,
        "slot": "3",
        "type": "t_contract(ISuOracleAggregator)33132"
      },
      {
        "astId": 19978,
        "contract": "contracts/exchange/contracts/exchange/Exchange.sol:Exchange",
        "label": "TOP_STAKERS",
        "offset": 0,
        "slot": "4",
        "type": "t_contract(ITopStakers)23703"
      },
      {
        "astId": 19980,
        "contract": "contracts/exchange/contracts/exchange/Exchange.sol:Exchange",
        "label": "admin",
        "offset": 0,
        "slot": "5",
        "type": "t_address"
      },
      {
        "astId": 19984,
        "contract": "contracts/exchange/contracts/exchange/Exchange.sol:Exchange",
        "label": "userWhitelist",
        "offset": 0,
        "slot": "6",
        "type": "t_mapping(t_address,t_bool)"
      },
      {
        "astId": 19988,
        "contract": "contracts/exchange/contracts/exchange/Exchange.sol:Exchange",
        "label": "userNonces",
        "offset": 0,
        "slot": "7",
        "type": "t_mapping(t_address,t_uint256)"
      },
      {
        "astId": 19991,
        "contract": "contracts/exchange/contracts/exchange/Exchange.sol:Exchange",
        "label": "dustThreshold",
        "offset": 0,
        "slot": "8",
        "type": "t_uint256"
      },
      {
        "astId": 20000,
        "contract": "contracts/exchange/contracts/exchange/Exchange.sol:Exchange",
        "label": "orders",
        "offset": 0,
        "slot": "9",
        "type": "t_mapping(t_uint256,t_struct(Order)23302_storage)"
      },
      {
        "astId": 20003,
        "contract": "contracts/exchange/contracts/exchange/Exchange.sol:Exchange",
        "label": "orderIdSet",
        "offset": 0,
        "slot": "10",
        "type": "t_struct(UintSet)8371_storage"
      },
      {
        "astId": 20010,
        "contract": "contracts/exchange/contracts/exchange/Exchange.sol:Exchange",
        "label": "priceCurve",
        "offset": 0,
        "slot": "12",
        "type": "t_mapping(t_uint8,t_array(t_uint256)2_storage)"
      },
      {
        "astId": 20012,
        "contract": "contracts/exchange/contracts/exchange/Exchange.sol:Exchange",
        "label": "maxDiscountPercent",
        "offset": 0,
        "slot": "13",
        "type": "t_uint256"
      }
    ],
    "types": {
      "t_address": {
        "encoding": "inplace",
        "label": "address",
        "numberOfBytes": "20"
      },
      "t_array(t_bytes32)dyn_storage": {
        "base": "t_bytes32",
        "encoding": "dynamic_array",
        "label": "bytes32[]",
        "numberOfBytes": "32"
      },
      "t_array(t_uint256)2_storage": {
        "base": "t_uint256",
        "encoding": "inplace",
        "label": "uint256[2]",
        "numberOfBytes": "64"
      },
      "t_bool": {
        "encoding": "inplace",
        "label": "bool",
        "numberOfBytes": "1"
      },
      "t_bytes32": {
        "encoding": "inplace",
        "label": "bytes32",
        "numberOfBytes": "32"
      },
      "t_contract(ISuOracleAggregator)33132": {
        "encoding": "inplace",
        "label": "contract ISuOracleAggregator",
        "numberOfBytes": "20"
      },
      "t_contract(ITopStakers)23703": {
        "encoding": "inplace",
        "label": "contract ITopStakers",
        "numberOfBytes": "20"
      },
      "t_mapping(t_address,t_bool)": {
        "encoding": "mapping",
        "key": "t_address",
        "label": "mapping(address => bool)",
        "numberOfBytes": "32",
        "value": "t_bool"
      },
      "t_mapping(t_address,t_uint256)": {
        "encoding": "mapping",
        "key": "t_address",
        "label": "mapping(address => uint256)",
        "numberOfBytes": "32",
        "value": "t_uint256"
      },
      "t_mapping(t_bytes32,t_uint256)": {
        "encoding": "mapping",
        "key": "t_bytes32",
        "label": "mapping(bytes32 => uint256)",
        "numberOfBytes": "32",
        "value": "t_uint256"
      },
      "t_mapping(t_uint256,t_struct(Order)23302_storage)": {
        "encoding": "mapping",
        "key": "t_uint256",
        "label": "mapping(uint256 => struct Order)",
        "numberOfBytes": "32",
        "value": "t_struct(Order)23302_storage"
      },
      "t_mapping(t_uint8,t_array(t_uint256)2_storage)": {
        "encoding": "mapping",
        "key": "t_uint8",
        "label": "mapping(uint8 => uint256[2])",
        "numberOfBytes": "32",
        "value": "t_array(t_uint256)2_storage"
      },
      "t_struct(Order)23302_storage": {
        "encoding": "inplace",
        "label": "struct Order",
        "members": [
          {
            "astId": 23287,
            "contract": "contracts/exchange/contracts/exchange/Exchange.sol:Exchange",
            "label": "token2sell",
            "offset": 0,
            "slot": "0",
            "type": "t_address"
          },
          {
            "astId": 23289,
            "contract": "contracts/exchange/contracts/exchange/Exchange.sol:Exchange",
            "label": "token2buy",
            "offset": 0,
            "slot": "1",
            "type": "t_address"
          },
          {
            "astId": 23291,
            "contract": "contracts/exchange/contracts/exchange/Exchange.sol:Exchange",
            "label": "beneficiary",
            "offset": 0,
            "slot": "2",
            "type": "t_address"
          },
          {
            "astId": 23293,
            "contract": "contracts/exchange/contracts/exchange/Exchange.sol:Exchange",
            "label": "caller",
            "offset": 0,
            "slot": "3",
            "type": "t_address"
          },
          {
            "astId": 23295,
            "contract": "contracts/exchange/contracts/exchange/Exchange.sol:Exchange",
            "label": "amountLeft",
            "offset": 0,
            "slot": "4",
            "type": "t_uint256"
          },
          {
            "astId": 23297,
            "contract": "contracts/exchange/contracts/exchange/Exchange.sol:Exchange",
            "label": "token2buyAmount",
            "offset": 0,
            "slot": "5",
            "type": "t_uint256"
          },
          {
            "astId": 23299,
            "contract": "contracts/exchange/contracts/exchange/Exchange.sol:Exchange",
            "label": "creationTimestamp",
            "offset": 0,
            "slot": "6",
            "type": "t_uint64"
          },
          {
            "astId": 23301,
            "contract": "contracts/exchange/contracts/exchange/Exchange.sol:Exchange",
            "label": "discountType",
            "offset": 8,
            "slot": "6",
            "type": "t_uint8"
          }
        ],
        "numberOfBytes": "224"
      },
      "t_struct(Set)7899_storage": {
        "encoding": "inplace",
        "label": "struct EnumerableSet.Set",
        "members": [
          {
            "astId": 7894,
            "contract": "contracts/exchange/contracts/exchange/Exchange.sol:Exchange",
            "label": "_values",
            "offset": 0,
            "slot": "0",
            "type": "t_array(t_bytes32)dyn_storage"
          },
          {
            "astId": 7898,
            "contract": "contracts/exchange/contracts/exchange/Exchange.sol:Exchange",
            "label": "_indexes",
            "offset": 0,
            "slot": "1",
            "type": "t_mapping(t_bytes32,t_uint256)"
          }
        ],
        "numberOfBytes": "64"
      },
      "t_struct(UintSet)8371_storage": {
        "encoding": "inplace",
        "label": "struct EnumerableSet.UintSet",
        "members": [
          {
            "astId": 8370,
            "contract": "contracts/exchange/contracts/exchange/Exchange.sol:Exchange",
            "label": "_inner",
            "offset": 0,
            "slot": "0",
            "type": "t_struct(Set)7899_storage"
          }
        ],
        "numberOfBytes": "64"
      },
      "t_uint256": {
        "encoding": "inplace",
        "label": "uint256",
        "numberOfBytes": "32"
      },
      "t_uint64": {
        "encoding": "inplace",
        "label": "uint64",
        "numberOfBytes": "8"
      },
      "t_uint8": {
        "encoding": "inplace",
        "label": "uint8",
        "numberOfBytes": "1"
      }
    }
  }
}