{
  "address": "0xF93985F158aDfF2De975Cf68b91eE1678cFB5281",
  "abi": [
    {
      "inputs": [
        {
          "internalType": "address",
          "name": "_oracleAddress",
          "type": "address"
        },
        {
          "internalType": "address",
          "name": "_topStakersAddress",
          "type": "address"
        }
      ],
      "stateMutability": "nonpayable",
      "type": "constructor"
    },
    {
      "inputs": [],
      "name": "BadOutAmount",
      "type": "error"
    },
    {
      "inputs": [],
      "name": "CallbackError",
      "type": "error"
    },
    {
      "inputs": [
        {
          "internalType": "address",
          "name": "orderToken2buy",
          "type": "address"
        },
        {
          "internalType": "address",
          "name": "inToken",
          "type": "address"
        }
      ],
      "name": "IncorrectToken",
      "type": "error"
    },
    {
      "inputs": [],
      "name": "InvalidAddress",
      "type": "error"
    },
    {
      "inputs": [],
      "name": "InvalidAmount",
      "type": "error"
    },
    {
      "inputs": [],
      "name": "InvalidDiscountType",
      "type": "error"
    },
    {
      "inputs": [],
      "name": "InvalidTokens",
      "type": "error"
    },
    {
      "inputs": [
        {
          "internalType": "address",
          "name": "staker",
          "type": "address"
        }
      ],
      "name": "IsNotStaker",
      "type": "error"
    },
    {
      "inputs": [
        {
          "internalType": "address",
          "name": "staker",
          "type": "address"
        }
      ],
      "name": "IsNotTopStaker",
      "type": "error"
    },
    {
      "inputs": [],
      "name": "IsNotWhitelisted",
      "type": "error"
    },
    {
      "inputs": [],
      "name": "MaxDiscountTooHigh",
      "type": "error"
    },
    {
      "inputs": [],
      "name": "NoStakersAvailable",
      "type": "error"
    },
    {
      "inputs": [],
      "name": "NotEnoughReturnValue",
      "type": "error"
    },
    {
      "inputs": [],
      "name": "OnlyAdminError",
      "type": "error"
    },
    {
      "inputs": [
        {
          "internalType": "uint256",
          "name": "orderId",
          "type": "uint256"
        }
      ],
      "name": "OrderExist",
      "type": "error"
    },
    {
      "inputs": [
        {
          "internalType": "uint256",
          "name": "orderId",
          "type": "uint256"
        }
      ],
      "name": "OrderNotExist",
      "type": "error"
    },
    {
      "inputs": [
        {
          "internalType": "uint256",
          "name": "orderId",
          "type": "uint256"
        },
        {
          "internalType": "address",
          "name": "staker",
          "type": "address"
        }
      ],
      "name": "OrderNotForThisStaker",
      "type": "error"
    },
    {
      "inputs": [],
      "name": "SmallAmountLeft",
      "type": "error"
    },
    {
      "inputs": [],
      "name": "UserIsNotBeneficiary",
      "type": "error"
    },
    {
      "inputs": [],
      "name": "ZeroPriceError",
      "type": "error"
    },
    {
      "inputs": [],
      "name": "ZeroRecipient",
      "type": "error"
    },
    {
      "anonymous": false,
      "inputs": [
        {
          "indexed": false,
          "internalType": "uint256",
          "name": "oldValue",
          "type": "uint256"
        },
        {
          "indexed": false,
          "internalType": "uint256",
          "name": "newValue",
          "type": "uint256"
        }
      ],
      "name": "DustThresholdChanged",
      "type": "event"
    },
    {
      "anonymous": false,
      "inputs": [
        {
          "indexed": true,
          "internalType": "address",
          "name": "token",
          "type": "address"
        },
        {
          "indexed": true,
          "internalType": "address",
          "name": "recipient",
          "type": "address"
        },
        {
          "indexed": false,
          "internalType": "uint256",
          "name": "amount",
          "type": "uint256"
        }
      ],
      "name": "EmergencyWithdraw",
      "type": "event"
    },
    {
      "anonymous": false,
      "inputs": [
        {
          "indexed": false,
          "internalType": "address",
          "name": "LPToken",
          "type": "address"
        },
        {
          "indexed": false,
          "internalType": "uint256[]",
          "name": "orderIds",
          "type": "uint256[]"
        }
      ],
      "name": "LpOrdersAdded",
      "type": "event"
    },
    {
      "anonymous": false,
      "inputs": [
        {
          "indexed": false,
          "internalType": "uint256",
          "name": "oldMaxDiscountPercent",
          "type": "uint256"
        },
        {
          "indexed": false,
          "internalType": "uint256",
          "name": "newMaxDiscountPercent",
          "type": "uint256"
        }
      ],
      "name": "MaxDiscountPercentChanged",
      "type": "event"
    },
    {
      "anonymous": false,
      "inputs": [
        {
          "indexed": false,
          "internalType": "uint256",
          "name": "orderId",
          "type": "uint256"
        }
      ],
      "name": "OrderAdded",
      "type": "event"
    },
    {
      "anonymous": false,
      "inputs": [
        {
          "indexed": false,
          "internalType": "uint256",
          "name": "orderId",
          "type": "uint256"
        }
      ],
      "name": "OrderCanceled",
      "type": "event"
    },
    {
      "anonymous": false,
      "inputs": [
        {
          "indexed": false,
          "internalType": "uint256",
          "name": "orderId",
          "type": "uint256"
        }
      ],
      "name": "OrderFilled",
      "type": "event"
    },
    {
      "anonymous": false,
      "inputs": [
        {
          "indexed": false,
          "internalType": "uint256",
          "name": "orderId",
          "type": "uint256"
        }
      ],
      "name": "OrderFilledPartially",
      "type": "event"
    },
    {
      "anonymous": false,
      "inputs": [
        {
          "indexed": true,
          "internalType": "address",
          "name": "previousOwner",
          "type": "address"
        },
        {
          "indexed": true,
          "internalType": "address",
          "name": "newOwner",
          "type": "address"
        }
      ],
      "name": "OwnershipTransferStarted",
      "type": "event"
    },
    {
      "anonymous": false,
      "inputs": [
        {
          "indexed": true,
          "internalType": "address",
          "name": "previousOwner",
          "type": "address"
        },
        {
          "indexed": true,
          "internalType": "address",
          "name": "newOwner",
          "type": "address"
        }
      ],
      "name": "OwnershipTransferred",
      "type": "event"
    },
    {
      "anonymous": false,
      "inputs": [],
      "name": "PriceCurveChanged",
      "type": "event"
    },
    {
      "anonymous": false,
      "inputs": [
        {
          "indexed": false,
          "internalType": "address",
          "name": "user",
          "type": "address"
        },
        {
          "indexed": false,
          "internalType": "bool",
          "name": "isWhitelisted",
          "type": "bool"
        }
      ],
      "name": "WhitelistUpdated",
      "type": "event"
    },
    {
      "inputs": [],
      "name": "DISCOUNT_TYPE_AGGRESSIVE",
      "outputs": [
        {
          "internalType": "uint8",
          "name": "",
          "type": "uint8"
        }
      ],
      "stateMutability": "view",
      "type": "function"
    },
    {
      "inputs": [],
      "name": "DISCOUNT_TYPE_CONSERVATIVE",
      "outputs": [
        {
          "internalType": "uint8",
          "name": "",
          "type": "uint8"
        }
      ],
      "stateMutability": "view",
      "type": "function"
    },
    {
      "inputs": [],
      "name": "DISCOUNT_TYPE_MIDDLE",
      "outputs": [
        {
          "internalType": "uint8",
          "name": "",
          "type": "uint8"
        }
      ],
      "stateMutability": "view",
      "type": "function"
    },
    {
      "inputs": [],
      "name": "ORACLE",
      "outputs": [
        {
          "internalType": "contract ISuOracleAggregator",
          "name": "",
          "type": "address"
        }
      ],
      "stateMutability": "view",
      "type": "function"
    },
    {
      "inputs": [],
      "name": "TOP_STAKERS",
      "outputs": [
        {
          "internalType": "contract ITopStakers",
          "name": "",
          "type": "address"
        }
      ],
      "stateMutability": "view",
      "type": "function"
    },
    {
      "inputs": [],
      "name": "acceptOwnership",
      "outputs": [],
      "stateMutability": "nonpayable",
      "type": "function"
    },
    {
      "inputs": [
        {
          "internalType": "address",
          "name": "token2sell",
          "type": "address"
        },
        {
          "internalType": "uint256",
          "name": "amount2sell",
          "type": "uint256"
        },
        {
          "internalType": "address",
          "name": "token2buy",
          "type": "address"
        },
        {
          "internalType": "address",
          "name": "beneficiary",
          "type": "address"
        },
        {
          "internalType": "uint8",
          "name": "discountType",
          "type": "uint8"
        },
        {
          "internalType": "address",
          "name": "collateralJoin",
          "type": "address"
        }
      ],
      "name": "addOrder",
      "outputs": [
        {
          "internalType": "uint256",
          "name": "orderId",
          "type": "uint256"
        }
      ],
      "stateMutability": "nonpayable",
      "type": "function"
    },
    {
      "inputs": [],
      "name": "admin",
      "outputs": [
        {
          "internalType": "address",
          "name": "",
          "type": "address"
        }
      ],
      "stateMutability": "view",
      "type": "function"
    },
    {
      "inputs": [
        {
          "internalType": "uint256",
          "name": "orderId",
          "type": "uint256"
        }
      ],
      "name": "cancelOrder",
      "outputs": [],
      "stateMutability": "nonpayable",
      "type": "function"
    },
    {
      "inputs": [],
      "name": "dustThreshold",
      "outputs": [
        {
          "internalType": "uint256",
          "name": "",
          "type": "uint256"
        }
      ],
      "stateMutability": "view",
      "type": "function"
    },
    {
      "inputs": [
        {
          "internalType": "address",
          "name": "token",
          "type": "address"
        },
        {
          "internalType": "address",
          "name": "recipient",
          "type": "address"
        },
        {
          "internalType": "uint256",
          "name": "amount",
          "type": "uint256"
        }
      ],
      "name": "emergencyWithdraw",
      "outputs": [],
      "stateMutability": "nonpayable",
      "type": "function"
    },
    {
      "inputs": [
        {
          "internalType": "uint256",
          "name": "orderId",
          "type": "uint256"
        },
        {
          "internalType": "uint256",
          "name": "inAmount",
          "type": "uint256"
        },
        {
          "internalType": "bytes",
          "name": "data",
          "type": "bytes"
        }
      ],
      "name": "fillOrderAsFlashLoan",
      "outputs": [
        {
          "internalType": "uint256",
          "name": "outAmount",
          "type": "uint256"
        }
      ],
      "stateMutability": "nonpayable",
      "type": "function"
    },
    {
      "inputs": [
        {
          "internalType": "uint256",
          "name": "orderId",
          "type": "uint256"
        },
        {
          "internalType": "uint256",
          "name": "inAmount",
          "type": "uint256"
        }
      ],
      "name": "fillOrderSimple",
      "outputs": [
        {
          "internalType": "uint256",
          "name": "outAmount",
          "type": "uint256"
        }
      ],
      "stateMutability": "nonpayable",
      "type": "function"
    },
    {
      "inputs": [
        {
          "internalType": "uint256",
          "name": "offset",
          "type": "uint256"
        },
        {
          "internalType": "uint256",
          "name": "limit",
          "type": "uint256"
        }
      ],
      "name": "getAllOrders",
      "outputs": [
        {
          "components": [
            {
              "components": [
                {
                  "internalType": "address",
                  "name": "token2sell",
                  "type": "address"
                },
                {
                  "internalType": "address",
                  "name": "token2buy",
                  "type": "address"
                },
                {
                  "internalType": "address",
                  "name": "beneficiary",
                  "type": "address"
                },
                {
                  "internalType": "address",
                  "name": "caller",
                  "type": "address"
                },
                {
                  "internalType": "uint256",
                  "name": "amountLeft",
                  "type": "uint256"
                },
                {
                  "internalType": "uint256",
                  "name": "token2buyAmount",
                  "type": "uint256"
                },
                {
                  "internalType": "uint64",
                  "name": "creationTimestamp",
                  "type": "uint64"
                },
                {
                  "internalType": "uint8",
                  "name": "discountType",
                  "type": "uint8"
                }
              ],
              "internalType": "struct Order",
              "name": "order",
              "type": "tuple"
            },
            {
              "internalType": "uint256",
              "name": "orderId",
              "type": "uint256"
            }
          ],
          "internalType": "struct OrderWithId[]",
          "name": "",
          "type": "tuple[]"
        }
      ],
      "stateMutability": "view",
      "type": "function"
    },
    {
      "inputs": [
        {
          "internalType": "uint256",
          "name": "orderId",
          "type": "uint256"
        }
      ],
      "name": "getAssignedStaker",
      "outputs": [
        {
          "internalType": "address",
          "name": "",
          "type": "address"
        }
      ],
      "stateMutability": "view",
      "type": "function"
    },
    {
      "inputs": [
        {
          "internalType": "uint256",
          "name": "orderId",
          "type": "uint256"
        },
        {
          "internalType": "uint256",
          "name": "inAmount",
          "type": "uint256"
        }
      ],
      "name": "getExpectedOrderOutcome",
      "outputs": [
        {
          "internalType": "uint256",
          "name": "outAmount",
          "type": "uint256"
        }
      ],
      "stateMutability": "view",
      "type": "function"
    },
    {
      "inputs": [
        {
          "internalType": "uint256",
          "name": "orderId",
          "type": "uint256"
        }
      ],
      "name": "getOrder",
      "outputs": [
        {
          "components": [
            {
              "internalType": "address",
              "name": "token2sell",
              "type": "address"
            },
            {
              "internalType": "address",
              "name": "token2buy",
              "type": "address"
            },
            {
              "internalType": "address",
              "name": "beneficiary",
              "type": "address"
            },
            {
              "internalType": "address",
              "name": "caller",
              "type": "address"
            },
            {
              "internalType": "uint256",
              "name": "amountLeft",
              "type": "uint256"
            },
            {
              "internalType": "uint256",
              "name": "token2buyAmount",
              "type": "uint256"
            },
            {
              "internalType": "uint64",
              "name": "creationTimestamp",
              "type": "uint64"
            },
            {
              "internalType": "uint8",
              "name": "discountType",
              "type": "uint8"
            }
          ],
          "internalType": "struct Order",
          "name": "",
          "type": "tuple"
        }
      ],
      "stateMutability": "view",
      "type": "function"
    },
    {
      "inputs": [],
      "name": "getOrdersCount",
      "outputs": [
        {
          "internalType": "uint256",
          "name": "",
          "type": "uint256"
        }
      ],
      "stateMutability": "view",
      "type": "function"
    },
    {
      "inputs": [],
      "name": "maxDiscountPercent",
      "outputs": [
        {
          "internalType": "uint256",
          "name": "",
          "type": "uint256"
        }
      ],
      "stateMutability": "view",
      "type": "function"
    },
    {
      "inputs": [
        {
          "internalType": "uint256",
          "name": "",
          "type": "uint256"
        }
      ],
      "name": "orders",
      "outputs": [
        {
          "internalType": "address",
          "name": "token2sell",
          "type": "address"
        },
        {
          "internalType": "address",
          "name": "token2buy",
          "type": "address"
        },
        {
          "internalType": "address",
          "name": "beneficiary",
          "type": "address"
        },
        {
          "internalType": "address",
          "name": "caller",
          "type": "address"
        },
        {
          "internalType": "uint256",
          "name": "amountLeft",
          "type": "uint256"
        },
        {
          "internalType": "uint256",
          "name": "token2buyAmount",
          "type": "uint256"
        },
        {
          "internalType": "uint64",
          "name": "creationTimestamp",
          "type": "uint64"
        },
        {
          "internalType": "uint8",
          "name": "discountType",
          "type": "uint8"
        }
      ],
      "stateMutability": "view",
      "type": "function"
    },
    {
      "inputs": [],
      "name": "owner",
      "outputs": [
        {
          "internalType": "address",
          "name": "",
          "type": "address"
        }
      ],
      "stateMutability": "view",
      "type": "function"
    },
    {
      "inputs": [],
      "name": "pendingOwner",
      "outputs": [
        {
          "internalType": "address",
          "name": "",
          "type": "address"
        }
      ],
      "stateMutability": "view",
      "type": "function"
    },
    {
      "inputs": [
        {
          "internalType": "uint8",
          "name": "",
          "type": "uint8"
        },
        {
          "internalType": "uint256",
          "name": "",
          "type": "uint256"
        }
      ],
      "name": "priceCurve",
      "outputs": [
        {
          "internalType": "uint256",
          "name": "",
          "type": "uint256"
        }
      ],
      "stateMutability": "view",
      "type": "function"
    },
    {
      "inputs": [],
      "name": "renounceOwnership",
      "outputs": [],
      "stateMutability": "nonpayable",
      "type": "function"
    },
    {
      "inputs": [
        {
          "internalType": "uint256",
          "name": "newThreshold",
          "type": "uint256"
        }
      ],
      "name": "setDustThreshold",
      "outputs": [],
      "stateMutability": "nonpayable",
      "type": "function"
    },
    {
      "inputs": [
        {
          "internalType": "uint256",
          "name": "newMaxDiscountPercent",
          "type": "uint256"
        }
      ],
      "name": "setMaxDiscountPercent",
      "outputs": [],
      "stateMutability": "nonpayable",
      "type": "function"
    },
    {
      "inputs": [
        {
          "internalType": "uint8",
          "name": "discountType",
          "type": "uint8"
        },
        {
          "internalType": "uint256[2]",
          "name": "newPriceCurve",
          "type": "uint256[2]"
        }
      ],
      "name": "setPriceCurve",
      "outputs": [],
      "stateMutability": "nonpayable",
      "type": "function"
    },
    {
      "inputs": [
        {
          "internalType": "address",
          "name": "newOwner",
          "type": "address"
        }
      ],
      "name": "transferOwnership",
      "outputs": [],
      "stateMutability": "nonpayable",
      "type": "function"
    },
    {
      "inputs": [
        {
          "internalType": "address",
          "name": "user",
          "type": "address"
        },
        {
          "internalType": "bool",
          "name": "isWhitelisted",
          "type": "bool"
        }
      ],
      "name": "updateWhitelistUser",
      "outputs": [],
      "stateMutability": "nonpayable",
      "type": "function"
    },
    {
      "inputs": [
        {
          "internalType": "address",
          "name": "",
          "type": "address"
        }
      ],
      "name": "userWhitelist",
      "outputs": [
        {
          "internalType": "bool",
          "name": "",
          "type": "bool"
        }
      ],
      "stateMutability": "view",
      "type": "function"
    }
  ],
  "transactionHash": "0xad296c463b2cb660081e1e171a1544ca402e557e954ddc8819e16b79e2da0943",
  "args": [
    "0xe401de5a85973139Fb260a194Da8226d6776DB22",
    "0xAD3B57b8520125dB9E50388e882DBD5C101a2885"
  ],
  "numDeployments": 1,
  "solcInputHash": "8f84b6f1e4072e92a972e80f9a9e23c6",
  "bytecode": "0x60806040523480156200001157600080fd5b5060405162002c0538038062002c058339810160408190526200003491620002ae565b600160005562000044336200017d565b60408051808201909152610384815260006020808301829052908052600c905262000093907f13649b2456f1b42fef0f0040b3aaeabcd21a76a0f3f5defd4f583839455116e8906002620001f9565b50604080518082019091526202bf208152600060208083018290526001909152600c9052620000e6907fd421a5181c571bba3f01190c922c3b2a896fc1d84e86c9f17ac10e67ebef8b5c90600262000242565b506040805180820190915262069780815260006020808301829052600291829052600c905262000138917f5d6016397a73f5e079297ac5a36fef17b4d9c3831618e63ab105738020ddd7209162000242565b5068056bc75e2d631000006008556014600d55600380546001600160a01b039384166001600160a01b03199182161790915560048054929093169116179055620002e6565b600280546001600160a01b0319169055620001a481620001a7602090811b6200169f17901c565b50565b600180546001600160a01b038381166001600160a01b0319831681179093556040519116919082907f8be0079c531659141344cd1fd0a4f28419497f9722a3daafe3b4186f6b6457e090600090a35050565b826002810192821562000230579160200282015b8281111562000230578251829061ffff169055916020019190600101906200020d565b506200023e9291506200027a565b5090565b826002810192821562000230579160200282015b8281111562000230578251829062ffffff1690559160200191906001019062000256565b5b808211156200023e57600081556001016200027b565b80516001600160a01b0381168114620002a957600080fd5b919050565b60008060408385031215620002c257600080fd5b620002cd8362000291565b9150620002dd6020840162000291565b90509250929050565b61290f80620002f66000396000f3fe608060405234801561001057600080fd5b506004361061016a5760003560e01c806303eaa21a1461016f57806316b313e51461018457806333461268146101ad57806338013f02146101c0578063418f2845146101d3578063511df442146101f3578063514fcac71461021457806366990b7f14610227578063715018a61461024157806371567bd71461024957806379ba5097146102515780638da5cb5b146102595780639461a96314610261578063a85c38ef14610274578063ad7e55ba1461033d578063b5b3b05114610350578063ba07fc5914610358578063d09ef2411461036b578063d0b13a621461038b578063d741b9c314610394578063d7c8ae89146103c7578063e2ed06de146103da578063e30c3978146103ed578063e63ea408146103f5578063e8462e8f14610408578063ef3391bc14610411578063f2fde38b14610424578063f582099e14610437578063f6243a041461043f578063f851a44014610452575b600080fd5b61018261017d366004612380565b610465565b005b6101976101923660046123ba565b6104de565b6040516101a491906123d3565b60405180910390f35b6101826101bb36600461240a565b6106ae565b600354610197906001600160a01b031681565b6101e66101e1366004612443565b61071a565b6040516101a491906124ce565b610206610201366004612443565b61090a565b6040519081526020016101a4565b6101826102223660046123ba565b610982565b61022f600181565b60405160ff90911681526020016101a4565b610182610b61565b61022f600081565b610182610b75565b610197610bf0565b61018261026f3660046123ba565b610bff565b6102e46102823660046123ba565b60096020526000908152604090208054600182015460028301546003840154600485015460058601546006909601546001600160a01b03958616969486169593841694939092169290916001600160401b03811690600160401b900460ff1688565b604080516001600160a01b03998a168152978916602089015295881695870195909552959092166060850152608084015260a08301526001600160401b0390921660c082015260ff90911660e0820152610100016101a4565b61018261034b3660046123ba565b610c67565b610206610cad565b600454610197906001600160a01b031681565b61037e6103793660046123ba565b610cbe565b6040516101a49190612527565b610206600d5481565b6103b76103a2366004612536565b60066020526000908152604090205460ff1681565b60405190151581526020016101a4565b6102066103d5366004612553565b610d53565b6102066103e8366004612593565b610d78565b610197610f95565b610182610403366004612656565b610fa4565b61020660085481565b61020661041f366004612697565b611039565b610182610432366004612536565b611471565b61022f600281565b61020661044d366004612443565b6114d7565b600554610197906001600160a01b031681565b61046d6116f1565b600260ff831611156104925760405163559b66cb60e01b815260040160405180910390fd5b60ff82166000908152600c602052604090206104b0908260026122b3565b506040517f2420725846887d067c9d919f20d8ac9132a4adfccb24bc414e9263830caaa8ed90600090a15050565b600081815260096020908152604080832081516101008101835281546001600160a01b039081168252600183015481169482019490945260028201548416928101929092526003810154909216606082015260048201546080820152600582015460a08201526006909101546001600160401b03811660c08301819052600160401b90910460ff1660e0830152820361057a5750600092915050565b60c08101516001600160401b03164203603c81111561059d575060009392505050565b6000600460009054906101000a90046001600160a01b03166001600160a01b031663c4e4a93b6040518163ffffffff1660e01b8152600401602060405180830381865afa1580156105f2573d6000803e3d6000fd5b505050506040513d601f19601f82011682018060405250810190610616919061270e565b90508060000361062b57506000949350505050565b6004546001600160a01b031663af0ec622610646838861273d565b6040518263ffffffff1660e01b815260040161066491815260200190565b602060405180830381865afa158015610681573d6000803e3d6000fd5b505050506040513d601f19601f820116820180604052508101906106a59190612751565b95945050505050565b6106b66116f1565b6001600160a01b038216600081815260066020908152604091829020805460ff19168515159081179091558251938452908301527ff93f9a76c1bf3444d22400a00cb9fe990e6abe9dbb333fda48859cfee864543d91015b60405180910390a15050565b60606000610728600a611750565b80519091506000819003610771576040805160008082526020820190925290610767565b6107546122f1565b81526020019060019003908161074c5790505b5092505050610904565b60008161077e8688612784565b116107925761078d8587612784565b610794565b815b905060008682116107a65760006107b0565b6107b08783612797565b90506000816001600160401b038111156107cc576107cc61257d565b60405190808252806020026020018201604052801561080557816020015b6107f26122f1565b8152602001906001900390816107ea5790505b509050875b838110156108fc576000868281518110610826576108266127aa565b602090810291909101810151604080516000838152600985528290206101408201835280546001600160a01b0390811693830193845260018201548116606084015260028201548116608084015260038201541660a0830152600481015460c0830152600581015460e0830152600601546001600160401b038116610100830152600160401b900460ff166101208201529081529182018190529150836108cd8c85612797565b815181106108dd576108dd6127aa565b60200260200101819052505080806108f4906127c0565b91505061080a565b509450505050505b92915050565b600061091461175d565b60008381526009602052604081209061092e8585846117b6565b60028401546001850154929550909250610957916001600160a01b039081169133911686611c6b565b815461096d906001600160a01b03163383611cdc565b61097685611d00565b50506109046001600055565b61098a61175d565b600081815260096020908152604080832081516101008101835281546001600160a01b039081168252600183015481169482019490945260028201548416928101929092526003810154909216606082015260048201546080820152600582015460a08201526006909101546001600160401b03811660c08301819052600160401b90910460ff1660e0830152909103610a3f576040516373a98b6360e11b8152600481018390526024015b60405180910390fd5b80604001516001600160a01b0316336001600160a01b031614158015610a7b575080606001516001600160a01b0316336001600160a01b031614155b15610a995760405163da383fb560e01b815260040160405180910390fd5b60808101518151610ab7916001600160a01b03909116903390611cdc565b600082815260096020526040812080546001600160a01b031990811682556001820180548216905560028201805482169055600382018054909116905560048101829055600581019190915560060180546001600160481b0319169055610b1f600a83611de8565b506040518281527fc41f4ceb2938876c35e61b705e9d2f18a02c4a26ce5e049a6308a943d46851b39060200160405180910390a150610b5e6001600055565b50565b610b696116f1565b610b736000611df4565b565b3380610b7f610f95565b6001600160a01b031614610be75760405162461bcd60e51b815260206004820152602960248201527f4f776e61626c6532537465703a2063616c6c6572206973206e6f7420746865206044820152683732bb9037bbb732b960b91b6064820152608401610a36565b610b5e81611df4565b6001546001600160a01b031690565b610c076116f1565b605a811115610c2957604051636bb48cb160e01b815260040160405180910390fd5b600d80549082905560408051828152602081018490527f5d36795820f2de51fbfd2492d5411afd83136f6c2b63e8d75addd83a4f0fde15910161070e565b610c6f6116f1565b600880549082905560408051828152602081018490527fbc1831d2100f8fce25142262c5034292d68880bbae15b8f096994291dd58c225910161070e565b6000610cb9600a611e0d565b905090565b610cc6612311565b5060009081526009602090815260409182902082516101008101845281546001600160a01b039081168252600183015481169382019390935260028201548316938101939093526003810154909116606083015260048101546080830152600581015460a0830152600601546001600160401b03811660c0830152600160401b900460ff1660e082015290565b600c6020528160005260406000208160028110610d6f57600080fd5b01549150829050565b6000610d8261175d565b600084815260096020526040812090610d9c8686846117b6565b835460018501549295509092506001600160a01b039081169116610dc1823385611cdc565b6040516370a0823160e01b81526000906001600160a01b038316906370a0823190610df09030906004016123d3565b602060405180830381865afa158015610e0d573d6000803e3d6000fd5b505050506040513d601f19601f82011682018060405250810190610e31919061270e565b604051633517a9e160e11b81529091503390636a2f53c290610e5d9085908a9085908d90600401612829565b6020604051808303816000875af1158015610e7c573d6000803e3d6000fd5b505050506040513d601f19601f82011682018060405250810190610ea0919061285c565b610ebd5760405163c286d75960e01b815260040160405180910390fd5b6040516370a0823160e01b81526000906001600160a01b038416906370a0823190610eec9030906004016123d3565b602060405180830381865afa158015610f09573d6000803e3d6000fd5b505050506040513d601f19601f82011682018060405250810190610f2d919061270e565b9050610f398783612784565b811015610f595760405163395c945760e11b815260040160405180910390fd5b6002860154610f75906001600160a01b03858116911689611cdc565b610f7e8a611d00565b505050505050610f8e6001600055565b9392505050565b6002546001600160a01b031690565b610fac6116f1565b6001600160a01b038216610fd35760405163d27b444360e01b815260040160405180910390fd5b610fe76001600160a01b0384168383611cdc565b816001600160a01b0316836001600160a01b03167ff24ef89f38eadc1bde50701ad6e4d6d11a2dc24f7cf834a486991f38833285048360405161102c91815260200190565b60405180910390a3505050565b600061104361175d565b3360009081526006602052604081205460ff161515900361107757604051631033349760e31b815260040160405180910390fd5b600260ff8416111561109c5760405163559b66cb60e01b815260040160405180910390fd5b6001600160a01b03871615806110b957506001600160a01b038516155b806110cb57506001600160a01b038416155b156110e95760405163e6c4247b60e01b815260040160405180910390fd5b846001600160a01b0316876001600160a01b03160361111b576040516333910aef60e11b815260040160405180910390fd5b8560000361113c5760405163162908e360e11b815260040160405180910390fd5b6001600160a01b0382166111645761115f6001600160a01b038816333089611c6b565b6111c5565b60405163ef693bed60e01b81526001600160a01b0383169063ef693bed906111929030908a90600401612879565b600060405180830381600087803b1580156111ac57600080fd5b505af11580156111c0573d6000803e3d6000fd5b505050505b336000908152600760205260408120805490826111e1836127c0565b90915550604080514360208201526001600160601b031933606090811b8216938301939093528b831b81166054830152606882018b90529189901b9091166088820152609c810182905290915060bc0160408051601f198184030181529181528151602092830120600081815260099093529120600601549092506001600160401b03161561128657604051634b92340560e01b815260048101839052602401610a36565b604051806101000160405280896001600160a01b03168152602001876001600160a01b03168152602001866001600160a01b03168152602001336001600160a01b0316815260200188815260200160008152602001426001600160401b031681526020018560ff168152506009600084815260200190815260200160002060008201518160000160006101000a8154816001600160a01b0302191690836001600160a01b0316021790555060208201518160010160006101000a8154816001600160a01b0302191690836001600160a01b0316021790555060408201518160020160006101000a8154816001600160a01b0302191690836001600160a01b0316021790555060608201518160030160006101000a8154816001600160a01b0302191690836001600160a01b031602179055506080820151816004015560a0820151816005015560c08201518160060160006101000a8154816001600160401b0302191690836001600160401b0316021790555060e08201518160060160086101000a81548160ff021916908360ff160217905550905050611428600a83611e17565b506040518281527f12a866cc569301d2ff9fcbbae3decc9e0cf3fa94ddef08dd0de3e9a693fb8d199060200160405180910390a1506114676001600055565b9695505050505050565b6114796116f1565b600280546001600160a01b0319166001600160a01b03831690811790915561149f610bf0565b6001600160a01b03167f38d16b8cac22d99fc7c124b9cd0de2d3fa1faef420bfe791d8c362d765e2270060405160405180910390a350565b600082815260096020908152604080832081516101008101835281546001600160a01b0390811680835260018401548216958301959095526002830154811682850152600380840154821660608401526004808501546080850152600585015460a08501526006909401546001600160401b03811660c08501819052600160401b90910460ff1660e085015290549451631735856760e31b8152929542919091039487946115e294919093169263b9ac2b3892611596929091016123d3565b602060405180830381865afa1580156115b3573d6000803e3d6000fd5b505050506040513d601f19601f820116820180604052508101906115d7919061270e565b838560e00151611e23565b6003546020850151604051631735856760e31b81529293506000926001600160a01b039092169163b9ac2b389161161b916004016123d3565b602060405180830381865afa158015611638573d6000803e3d6000fd5b505050506040513d601f19601f8201168201806040525081019061165c919061270e565b90508060000361167f5760405163e1281b5d60e01b815260040160405180910390fd5b8061168a8388612892565b61169491906128a9565b979650505050505050565b600180546001600160a01b038381166001600160a01b0319831681179093556040519116919082907f8be0079c531659141344cd1fd0a4f28419497f9722a3daafe3b4186f6b6457e090600090a35050565b336116fa610bf0565b6001600160a01b031614610b735760405162461bcd60e51b815260206004820181905260248201527f4f776e61626c653a2063616c6c6572206973206e6f7420746865206f776e65726044820152606401610a36565b60606000610f8e83611ec0565b6002600054036117af5760405162461bcd60e51b815260206004820152601f60248201527f5265656e7472616e637947756172643a207265656e7472616e742063616c6c006044820152606401610a36565b6002600055565b600681015460009083906001600160401b031682036117eb576040516373a98b6360e11b815260048101869052602401610a36565b60068301546001600160401b03164203603c81116119e5576000600460009054906101000a90046001600160a01b03166001600160a01b031663c4e4a93b6040518163ffffffff1660e01b8152600401602060405180830381865afa158015611858573d6000803e3d6000fd5b505050506040513d601f19601f8201168201806040525081019061187c919061270e565b90508060000361189f576040516340763d8d60e11b815260040160405180910390fd5b6004805460405162650fcd60e31b81526001600160a01b03909116916303287e68916118cd913391016123d3565b602060405180830381865afa1580156118ea573d6000803e3d6000fd5b505050506040513d601f19601f8201168201806040525081019061190e919061285c565b61192d573360405163a849de1760e01b8152600401610a3691906123d3565b6004546000906001600160a01b031663af0ec62261194b848b61273d565b6040518263ffffffff1660e01b815260040161196991815260200190565b602060405180830381865afa158015611986573d6000803e3d6000fd5b505050506040513d601f19601f820116820180604052508101906119aa9190612751565b9050336001600160a01b038216146119de57604051636d5e923560e01b815260048101899052336024820152604401610a36565b5050611a78565b60048054604051636f1e853360e01b815233926001600160a01b0390921691636f1e853391611a16918591016123d3565b602060405180830381865afa158015611a33573d6000803e3d6000fd5b505050506040513d601f19601f82011682018060405250810190611a57919061285c565b611a765780604051631953278360e21b8152600401610a3691906123d3565b505b8360040154821115611a8c57836004015491505b6003548454604051632a5001c960e01b8152600092611b1e926001600160a01b0391821692632a5001c992611ac59216906004016123d3565b6020604051808303816000875af1158015611ae4573d6000803e3d6000fd5b505050506040513d601f19601f82011682018060405250810190611b08919061270e565b60068701548490600160401b900460ff16611e23565b6003546001870154604051632a5001c960e01b81529293506000926001600160a01b0392831692632a5001c992611b5a929116906004016123d3565b6020604051808303816000875af1158015611b79573d6000803e3d6000fd5b505050506040513d601f19601f82011682018060405250810190611b9d919061270e565b905080611baa8386612892565b611bb491906128a9565b945084600003611bd75760405163ebda174360e01b815260040160405180910390fd5b84866005016000828254611beb9190612784565b9250508190555083866004016000828254611c069190612797565b9091555050600486015415801590611c425750600854670de0b6b3a7640000876004015484611c359190612892565b611c3f91906128a9565b11155b15611c605760405163117be23960e31b815260040160405180910390fd5b505050935093915050565b6040516001600160a01b0380851660248301528316604482015260648101829052611cd69085906323b872dd60e01b906084015b60408051601f198184030181529190526020810180516001600160e01b03166001600160e01b031990931692909217909152611f1c565b50505050565b611cfb8363a9059cbb60e01b8484604051602401611c9f929190612879565b505050565b6000818152600960205260408120600401549003611db857600081815260096020526040812080546001600160a01b031990811682556001820180548216905560028201805482169055600382018054909116905560048101829055600581019190915560060180546001600160481b0319169055611d80600a82611de8565b506040518181527fcdf98e0235c72ad7ae8de32249da25cc98298c8f11710c55a3d58e9e7ac69f94906020015b60405180910390a150565b6040518181527fc238a2d1c485b17bfd980b5e6d0483704cd4720118eb06215758d49f85ea896390602001611dad565b6000610f8e8383611ff1565b600280546001600160a01b0319169055610b5e8161169f565b6000610904825490565b6000610f8e83836120e4565b60ff81166000908152600c602052604081208054600190910154600d548390606490611e4f9082612797565b611e599089612892565b611e6391906128a9565b905082861115611e77579250610f8e915050565b60008284611e85898b612892565b611e8f91906128a9565b611e99908a612797565b611ea39190612797565b9050818111611eb25781611eb4565b805b98975050505050505050565b606081600001805480602002602001604051908101604052809291908181526020018280548015611f1057602002820191906000526020600020905b815481526020019060010190808311611efc575b50505050509050919050565b6000611f71826040518060400160405280602081526020017f5361666545524332303a206c6f772d6c6576656c2063616c6c206661696c6564815250856001600160a01b03166121339092919063ffffffff16565b9050805160001480611f92575080806020019051810190611f92919061285c565b611cfb5760405162461bcd60e51b815260206004820152602a60248201527f5361666545524332303a204552433230206f7065726174696f6e20646964206e6044820152691bdd081cdd58d8d9595960b21b6064820152608401610a36565b600081815260018301602052604081205480156120da576000612015600183612797565b855490915060009061202990600190612797565b905081811461208e576000866000018281548110612049576120496127aa565b906000526020600020015490508087600001848154811061206c5761206c6127aa565b6000918252602080832090910192909255918252600188019052604090208390555b855486908061209f5761209f6128bd565b600190038181906000526020600020016000905590558560010160008681526020019081526020016000206000905560019350505050610904565b6000915050610904565b600081815260018301602052604081205461212b57508154600181810184556000848152602080822090930184905584548482528286019093526040902091909155610904565b506000610904565b6060612142848460008561214a565b949350505050565b6060824710156121ab5760405162461bcd60e51b815260206004820152602660248201527f416464726573733a20696e73756666696369656e742062616c616e636520666f6044820152651c8818d85b1b60d21b6064820152608401610a36565b600080866001600160a01b031685876040516121c791906128d3565b60006040518083038185875af1925050503d8060008114612204576040519150601f19603f3d011682016040523d82523d6000602084013e612209565b606091505b5091509150611694878383876060831561228457825160000361227d576001600160a01b0385163b61227d5760405162461bcd60e51b815260206004820152601d60248201527f416464726573733a2063616c6c20746f206e6f6e2d636f6e74726163740000006044820152606401610a36565b5081612142565b61214283838151156122995781518083602001fd5b8060405162461bcd60e51b8152600401610a3691906128ef565b82600281019282156122e1579160200282015b828111156122e15782358255916020019190600101906122c6565b506122ed929150612355565b5090565b6040518060400160405280612304612311565b8152602001600081525090565b6040805161010081018252600080825260208201819052918101829052606081018290526080810182905260a0810182905260c0810182905260e081019190915290565b5b808211156122ed5760008155600101612356565b803560ff8116811461237b57600080fd5b919050565b6000806060838503121561239357600080fd5b61239c8361236a565b9150836060840111156123ae57600080fd5b50926020919091019150565b6000602082840312156123cc57600080fd5b5035919050565b6001600160a01b0391909116815260200190565b6001600160a01b0381168114610b5e57600080fd5b8015158114610b5e57600080fd5b6000806040838503121561241d57600080fd5b8235612428816123e7565b91506020830135612438816123fc565b809150509250929050565b6000806040838503121561245657600080fd5b50508035926020909101359150565b80516001600160a01b039081168352602080830151821690840152604080830151821690840152606080830151909116908301526080808201519083015260a0818101519083015260c0808201516001600160401b03169083015260e09081015160ff16910152565b6020808252825182820181905260009190848201906040850190845b8181101561251b5783516124ff848251612465565b85015161010084015292840192610120909201916001016124ea565b50909695505050505050565b61010081016109048284612465565b60006020828403121561254857600080fd5b8135610f8e816123e7565b6000806040838503121561256657600080fd5b61256f8361236a565b946020939093013593505050565b634e487b7160e01b600052604160045260246000fd5b6000806000606084860312156125a857600080fd5b833592506020840135915060408401356001600160401b03808211156125cd57600080fd5b818601915086601f8301126125e157600080fd5b8135818111156125f3576125f361257d565b604051601f8201601f19908116603f0116810190838211818310171561261b5761261b61257d565b8160405282815289602084870101111561263457600080fd5b8260208601602083013760006020848301015280955050505050509250925092565b60008060006060848603121561266b57600080fd5b8335612676816123e7565b92506020840135612686816123e7565b929592945050506040919091013590565b60008060008060008060c087890312156126b057600080fd5b86356126bb816123e7565b95506020870135945060408701356126d2816123e7565b935060608701356126e2816123e7565b92506126f06080880161236a565b915060a0870135612700816123e7565b809150509295509295509295565b60006020828403121561272057600080fd5b5051919050565b634e487b7160e01b600052601260045260246000fd5b60008261274c5761274c612727565b500690565b60006020828403121561276357600080fd5b8151610f8e816123e7565b634e487b7160e01b600052601160045260246000fd5b808201808211156109045761090461276e565b818103818111156109045761090461276e565b634e487b7160e01b600052603260045260246000fd5b6000600182016127d2576127d261276e565b5060010190565b60005b838110156127f45781810151838201526020016127dc565b50506000910152565b600081518084526128158160208601602086016127d9565b601f01601f19169290920160200192915050565b6001600160a01b0385811682526020820185905283166040820152608060608201819052600090611467908301846127fd565b60006020828403121561286e57600080fd5b8151610f8e816123fc565b6001600160a01b03929092168252602082015260400190565b80820281158282048414176109045761090461276e565b6000826128b8576128b8612727565b500490565b634e487b7160e01b600052603160045260246000fd5b600082516128e58184602087016127d9565b9190910192915050565b602081526000610f8e60208301846127fd56fea164736f6c6343000811000a",
  "devdoc": {
    "details": "See IExchange interface for full details.",
    "kind": "dev",
    "methods": {
      "acceptOwnership()": {
        "details": "The new owner accepts the ownership transfer."
      },
      "addOrder(address,uint256,address,address,uint8,address)": {
        "details": "This swap is async, because depends on how arbitrage bots will fill this order. Emits OrderAdded() event. Before addOrder user needs to approve token2sell for exchange contract",
        "params": {
          "amount2sell": "- Amount of {token2sell} to sell",
          "beneficiary": "- Address that will receive {token2buy} after filling order.",
          "collateralJoin": "- address of collateral adapter*",
          "discountType": "- Speed of decreasing swap price. { 0 - aggressive, 1 - middle, 2 - conservative }",
          "token2buy": "- Address of token to buy",
          "token2sell": "- Address of token to sell"
        }
      },
      "cancelOrder(uint256)": {
        "params": {
          "orderId": "- Id of order to cancel.*"
        }
      },
      "fillOrderAsFlashLoan(uint256,uint256,bytes)": {
        "details": "Caller contract receive orders {token2sell} and after that his stableunitFillOrderCallback() is called. At the end of thi callback contract should send some amount of another token back to Exchange contract.We don't need slippage protection because: 1. Prices are determined by Oracle, not DEX market conditions 2. Output amount is calculated deterministically at execution time",
        "params": {
          "data": "- encoded data to pass to callback function*",
          "inAmount": "- Amount of {token2sell} to receive",
          "orderId": "- Id of order to fill."
        }
      },
      "fillOrderSimple(uint256,uint256)": {
        "details": "Caller contract send tokens and receive another tokens depends on the order",
        "params": {
          "inAmount": "- Amount of {token2sell} to receive*",
          "orderId": "- Id of order to fill."
        }
      },
      "getAssignedStaker(uint256)": {
        "params": {
          "orderId": "The ID of the order to check"
        },
        "returns": {
          "_0": "assignedStaker The address of the assigned staker, or zero address if:         - Order doesn't exist         - Order is past grace period         - No top stakers available"
        }
      },
      "getExpectedOrderOutcome(uint256,uint256)": {
        "returns": {
          "outAmount": "The amount of outcome that caller will receive if he will fill {orderId} with {inAmount} of {token2sell}*"
        }
      },
      "getOrder(uint256)": {
        "returns": {
          "_0": "Order with id = {orderId}*"
        }
      },
      "getOrdersCount()": {
        "returns": {
          "_0": "The amount of not full-filled orders*"
        }
      },
      "owner()": {
        "details": "Returns the address of the current owner."
      },
      "pendingOwner()": {
        "details": "Returns the address of the pending owner."
      },
      "renounceOwnership()": {
        "details": "Leaves the contract without owner. It will not be possible to call `onlyOwner` functions. Can only be called by the current owner. NOTE: Renouncing ownership will leave the contract without an owner, thereby disabling any functionality that is only available to the owner."
      },
      "setDustThreshold(uint256)": {
        "params": {
          "newThreshold": "- new dust threshold*"
        }
      },
      "setMaxDiscountPercent(uint256)": {
        "details": "This function can only be called by the contract owner",
        "params": {
          "newMaxDiscountPercent": "New maximum discount value (in percentage points).        Value is bounded to 90% to prevent configuration mistakes"
        }
      },
      "setPriceCurve(uint8,uint256[2])": {
        "params": {
          "discountType": "- discount type to change",
          "newPriceCurve": "- parameters of formula*"
        }
      },
      "transferOwnership(address)": {
        "details": "Starts the ownership transfer of the contract to a new account. Replaces the pending transfer if there is one. Can only be called by the current owner."
      },
      "updateWhitelistUser(address,bool)": {
        "params": {
          "isWhitelisted": "- bool, false if we want to remove, true if we want to add user to whitelist.*",
          "user": "- address of user"
        }
      }
    },
    "title": "Exchange",
    "version": 1
  },
  "userdoc": {
    "kind": "user",
    "methods": {
      "addOrder(address,uint256,address,address,uint8,address)": {
        "notice": "Add order to swap {token2sell} to {token2buy}."
      },
      "cancelOrder(uint256)": {
        "notice": "Only user who place order or who is beneficiary can cancelOrder();"
      },
      "dustThreshold()": {
        "notice": "Amount of minimum amountLeft in order. It's measured in fiat. For example dustThreshold = 100 * 1e18 => it's 100 USD*"
      },
      "emergencyWithdraw(address,address,uint256)": {
        "notice": "Emergency withdraw in case contract have some tokens, that can be transferred by default functions*"
      },
      "fillOrderAsFlashLoan(uint256,uint256,bytes)": {
        "notice": "Fill order with flash-loan like logic"
      },
      "fillOrderSimple(uint256,uint256)": {
        "notice": "Fill order without a flash-loan"
      },
      "getAllOrders(uint256,uint256)": {
        "notice": "This method can be deleted after we'll add GraphQL to watch orders*"
      },
      "getAssignedStaker(uint256)": {
        "notice": "Returns the address of the staker assigned to an order during grace period"
      },
      "priceCurve(uint8,uint256)": {
        "notice": "priceCurve is like price_t = price_0 * (1 - t/priceCurve[0]) - priceCurve[1] from timePassed = 0 to t priceCurve decrease linear, but after t (when discount is 20%), it's constant*"
      },
      "setDustThreshold(uint256)": {
        "notice": "Function to update dust threshold"
      },
      "setMaxDiscountPercent(uint256)": {
        "notice": "Updates the maximum allowed discount percentage for all order types"
      },
      "setPriceCurve(uint8,uint256[2])": {
        "notice": "Function to update price curve - how fast {token2sell} price will decrease/increase"
      },
      "updateWhitelistUser(address,bool)": {
        "notice": "Add or remove user from whitelist"
      }
    },
    "notice": "Main contract of Exchange module. Here we can add order or fill it to get profit.",
    "version": 1
  },
  "storageLayout": {
    "storage": [
      {
        "astId": 6912,
        "contract": "contracts/exchange/contracts/exchange/Exchange.sol:Exchange",
        "label": "_status",
        "offset": 0,
        "slot": "0",
        "type": "t_uint256"
      },
      {
        "astId": 5788,
        "contract": "contracts/exchange/contracts/exchange/Exchange.sol:Exchange",
        "label": "_owner",
        "offset": 0,
        "slot": "1",
        "type": "t_address"
      },
      {
        "astId": 5901,
        "contract": "contracts/exchange/contracts/exchange/Exchange.sol:Exchange",
        "label": "_pendingOwner",
        "offset": 0,
        "slot": "2",
        "type": "t_address"
      },
      {
        "astId": 20837,
        "contract": "contracts/exchange/contracts/exchange/Exchange.sol:Exchange",
        "label": "ORACLE",
        "offset": 0,
        "slot": "3",
        "type": "t_contract(ISuOracleAggregator)34007"
      },
      {
        "astId": 20840,
        "contract": "contracts/exchange/contracts/exchange/Exchange.sol:Exchange",
        "label": "TOP_STAKERS",
        "offset": 0,
        "slot": "4",
        "type": "t_contract(ITopStakers)24556"
      },
      {
        "astId": 20842,
        "contract": "contracts/exchange/contracts/exchange/Exchange.sol:Exchange",
        "label": "admin",
        "offset": 0,
        "slot": "5",
        "type": "t_address"
      },
      {
        "astId": 20846,
        "contract": "contracts/exchange/contracts/exchange/Exchange.sol:Exchange",
        "label": "userWhitelist",
        "offset": 0,
        "slot": "6",
        "type": "t_mapping(t_address,t_bool)"
      },
      {
        "astId": 20850,
        "contract": "contracts/exchange/contracts/exchange/Exchange.sol:Exchange",
        "label": "userNonces",
        "offset": 0,
        "slot": "7",
        "type": "t_mapping(t_address,t_uint256)"
      },
      {
        "astId": 20853,
        "contract": "contracts/exchange/contracts/exchange/Exchange.sol:Exchange",
        "label": "dustThreshold",
        "offset": 0,
        "slot": "8",
        "type": "t_uint256"
      },
      {
        "astId": 20862,
        "contract": "contracts/exchange/contracts/exchange/Exchange.sol:Exchange",
        "label": "orders",
        "offset": 0,
        "slot": "9",
        "type": "t_mapping(t_uint256,t_struct(Order)24155_storage)"
      },
      {
        "astId": 20865,
        "contract": "contracts/exchange/contracts/exchange/Exchange.sol:Exchange",
        "label": "orderIdSet",
        "offset": 0,
        "slot": "10",
        "type": "t_struct(UintSet)9238_storage"
      },
      {
        "astId": 20872,
        "contract": "contracts/exchange/contracts/exchange/Exchange.sol:Exchange",
        "label": "priceCurve",
        "offset": 0,
        "slot": "12",
        "type": "t_mapping(t_uint8,t_array(t_uint256)2_storage)"
      },
      {
        "astId": 20874,
        "contract": "contracts/exchange/contracts/exchange/Exchange.sol:Exchange",
        "label": "maxDiscountPercent",
        "offset": 0,
        "slot": "13",
        "type": "t_uint256"
      }
    ],
    "types": {
      "t_address": {
        "encoding": "inplace",
        "label": "address",
        "numberOfBytes": "20"
      },
      "t_array(t_bytes32)dyn_storage": {
        "base": "t_bytes32",
        "encoding": "dynamic_array",
        "label": "bytes32[]",
        "numberOfBytes": "32"
      },
      "t_array(t_uint256)2_storage": {
        "base": "t_uint256",
        "encoding": "inplace",
        "label": "uint256[2]",
        "numberOfBytes": "64"
      },
      "t_bool": {
        "encoding": "inplace",
        "label": "bool",
        "numberOfBytes": "1"
      },
      "t_bytes32": {
        "encoding": "inplace",
        "label": "bytes32",
        "numberOfBytes": "32"
      },
      "t_contract(ISuOracleAggregator)34007": {
        "encoding": "inplace",
        "label": "contract ISuOracleAggregator",
        "numberOfBytes": "20"
      },
      "t_contract(ITopStakers)24556": {
        "encoding": "inplace",
        "label": "contract ITopStakers",
        "numberOfBytes": "20"
      },
      "t_mapping(t_address,t_bool)": {
        "encoding": "mapping",
        "key": "t_address",
        "label": "mapping(address => bool)",
        "numberOfBytes": "32",
        "value": "t_bool"
      },
      "t_mapping(t_address,t_uint256)": {
        "encoding": "mapping",
        "key": "t_address",
        "label": "mapping(address => uint256)",
        "numberOfBytes": "32",
        "value": "t_uint256"
      },
      "t_mapping(t_bytes32,t_uint256)": {
        "encoding": "mapping",
        "key": "t_bytes32",
        "label": "mapping(bytes32 => uint256)",
        "numberOfBytes": "32",
        "value": "t_uint256"
      },
      "t_mapping(t_uint256,t_struct(Order)24155_storage)": {
        "encoding": "mapping",
        "key": "t_uint256",
        "label": "mapping(uint256 => struct Order)",
        "numberOfBytes": "32",
        "value": "t_struct(Order)24155_storage"
      },
      "t_mapping(t_uint8,t_array(t_uint256)2_storage)": {
        "encoding": "mapping",
        "key": "t_uint8",
        "label": "mapping(uint8 => uint256[2])",
        "numberOfBytes": "32",
        "value": "t_array(t_uint256)2_storage"
      },
      "t_struct(Order)24155_storage": {
        "encoding": "inplace",
        "label": "struct Order",
        "members": [
          {
            "astId": 24140,
            "contract": "contracts/exchange/contracts/exchange/Exchange.sol:Exchange",
            "label": "token2sell",
            "offset": 0,
            "slot": "0",
            "type": "t_address"
          },
          {
            "astId": 24142,
            "contract": "contracts/exchange/contracts/exchange/Exchange.sol:Exchange",
            "label": "token2buy",
            "offset": 0,
            "slot": "1",
            "type": "t_address"
          },
          {
            "astId": 24144,
            "contract": "contracts/exchange/contracts/exchange/Exchange.sol:Exchange",
            "label": "beneficiary",
            "offset": 0,
            "slot": "2",
            "type": "t_address"
          },
          {
            "astId": 24146,
            "contract": "contracts/exchange/contracts/exchange/Exchange.sol:Exchange",
            "label": "caller",
            "offset": 0,
            "slot": "3",
            "type": "t_address"
          },
          {
            "astId": 24148,
            "contract": "contracts/exchange/contracts/exchange/Exchange.sol:Exchange",
            "label": "amountLeft",
            "offset": 0,
            "slot": "4",
            "type": "t_uint256"
          },
          {
            "astId": 24150,
            "contract": "contracts/exchange/contracts/exchange/Exchange.sol:Exchange",
            "label": "token2buyAmount",
            "offset": 0,
            "slot": "5",
            "type": "t_uint256"
          },
          {
            "astId": 24152,
            "contract": "contracts/exchange/contracts/exchange/Exchange.sol:Exchange",
            "label": "creationTimestamp",
            "offset": 0,
            "slot": "6",
            "type": "t_uint64"
          },
          {
            "astId": 24154,
            "contract": "contracts/exchange/contracts/exchange/Exchange.sol:Exchange",
            "label": "discountType",
            "offset": 8,
            "slot": "6",
            "type": "t_uint8"
          }
        ],
        "numberOfBytes": "224"
      },
      "t_struct(Set)8766_storage": {
        "encoding": "inplace",
        "label": "struct EnumerableSet.Set",
        "members": [
          {
            "astId": 8761,
            "contract": "contracts/exchange/contracts/exchange/Exchange.sol:Exchange",
            "label": "_values",
            "offset": 0,
            "slot": "0",
            "type": "t_array(t_bytes32)dyn_storage"
          },
          {
            "astId": 8765,
            "contract": "contracts/exchange/contracts/exchange/Exchange.sol:Exchange",
            "label": "_indexes",
            "offset": 0,
            "slot": "1",
            "type": "t_mapping(t_bytes32,t_uint256)"
          }
        ],
        "numberOfBytes": "64"
      },
      "t_struct(UintSet)9238_storage": {
        "encoding": "inplace",
        "label": "struct EnumerableSet.UintSet",
        "members": [
          {
            "astId": 9237,
            "contract": "contracts/exchange/contracts/exchange/Exchange.sol:Exchange",
            "label": "_inner",
            "offset": 0,
            "slot": "0",
            "type": "t_struct(Set)8766_storage"
          }
        ],
        "numberOfBytes": "64"
      },
      "t_uint256": {
        "encoding": "inplace",
        "label": "uint256",
        "numberOfBytes": "32"
      },
      "t_uint64": {
        "encoding": "inplace",
        "label": "uint64",
        "numberOfBytes": "8"
      },
      "t_uint8": {
        "encoding": "inplace",
        "label": "uint8",
        "numberOfBytes": "1"
      }
    }
  }
}