{
  "address": "0x2876D68A718981a6c8EE5D99A9A007a2b08681e5",
  "abi": [
    {
      "inputs": [],
      "stateMutability": "nonpayable",
      "type": "constructor"
    },
    {
      "inputs": [],
      "name": "BadAccessControlSingleton",
      "type": "error"
    },
    {
      "inputs": [],
      "name": "OnlyAdminError",
      "type": "error"
    },
    {
      "inputs": [],
      "name": "OnlyAlerterError",
      "type": "error"
    },
    {
      "inputs": [],
      "name": "OnlyCDPAccessError",
      "type": "error"
    },
    {
      "inputs": [],
      "name": "OnlyDAOError",
      "type": "error"
    },
    {
      "inputs": [],
      "name": "OnlyDisablerAccessError",
      "type": "error"
    },
    {
      "inputs": [],
      "name": "OnlyLiquidationAccessError",
      "type": "error"
    },
    {
      "inputs": [],
      "name": "OnlyMintAccessError",
      "type": "error"
    },
    {
      "inputs": [],
      "name": "OnlyProxyActionsError",
      "type": "error"
    },
    {
      "inputs": [],
      "name": "OnlyRewardAccessError",
      "type": "error"
    },
    {
      "inputs": [],
      "name": "OnlyRoleError",
      "type": "error"
    },
    {
      "inputs": [],
      "name": "OnlyVaultAccessError",
      "type": "error"
    },
    {
      "inputs": [],
      "name": "OnlyVotingEscrowError",
      "type": "error"
    },
    {
      "inputs": [],
      "name": "onlyAuctionAccessRole",
      "type": "error"
    },
    {
      "anonymous": false,
      "inputs": [
        {
          "indexed": true,
          "internalType": "address",
          "name": "usr",
          "type": "address"
        }
      ],
      "name": "AddAuthorization",
      "type": "event"
    },
    {
      "anonymous": false,
      "inputs": [],
      "name": "DisableContract",
      "type": "event"
    },
    {
      "anonymous": false,
      "inputs": [
        {
          "indexed": false,
          "internalType": "uint8",
          "name": "version",
          "type": "uint8"
        }
      ],
      "name": "Initialized",
      "type": "event"
    },
    {
      "anonymous": false,
      "inputs": [
        {
          "indexed": true,
          "internalType": "bytes32",
          "name": "collateralType",
          "type": "bytes32"
        },
        {
          "indexed": true,
          "internalType": "address",
          "name": "cdp",
          "type": "address"
        },
        {
          "indexed": false,
          "internalType": "uint256",
          "name": "lockedCollateral",
          "type": "uint256"
        },
        {
          "indexed": false,
          "internalType": "uint256",
          "name": "generatedDebt",
          "type": "uint256"
        },
        {
          "indexed": false,
          "internalType": "uint256",
          "name": "due",
          "type": "uint256"
        },
        {
          "indexed": false,
          "internalType": "address",
          "name": "liquidator",
          "type": "address"
        },
        {
          "indexed": true,
          "internalType": "uint256",
          "name": "id",
          "type": "uint256"
        }
      ],
      "name": "LiquidateCDP",
      "type": "event"
    },
    {
      "anonymous": false,
      "inputs": [
        {
          "indexed": true,
          "internalType": "bytes32",
          "name": "what",
          "type": "bytes32"
        },
        {
          "indexed": false,
          "internalType": "uint256",
          "name": "data",
          "type": "uint256"
        }
      ],
      "name": "ModifyParameters",
      "type": "event"
    },
    {
      "anonymous": false,
      "inputs": [
        {
          "indexed": true,
          "internalType": "bytes32",
          "name": "what",
          "type": "bytes32"
        },
        {
          "indexed": false,
          "internalType": "address",
          "name": "data",
          "type": "address"
        }
      ],
      "name": "ModifyParameters",
      "type": "event"
    },
    {
      "anonymous": false,
      "inputs": [
        {
          "indexed": true,
          "internalType": "bytes32",
          "name": "collateralType",
          "type": "bytes32"
        },
        {
          "indexed": true,
          "internalType": "bytes32",
          "name": "what",
          "type": "bytes32"
        },
        {
          "indexed": false,
          "internalType": "uint256",
          "name": "data",
          "type": "uint256"
        }
      ],
      "name": "ModifyParameters",
      "type": "event"
    },
    {
      "anonymous": false,
      "inputs": [
        {
          "indexed": true,
          "internalType": "bytes32",
          "name": "collateralType",
          "type": "bytes32"
        },
        {
          "indexed": true,
          "internalType": "bytes32",
          "name": "what",
          "type": "bytes32"
        },
        {
          "indexed": false,
          "internalType": "address",
          "name": "liquidator",
          "type": "address"
        }
      ],
      "name": "ModifyParameters",
      "type": "event"
    },
    {
      "anonymous": false,
      "inputs": [
        {
          "indexed": true,
          "internalType": "bytes32",
          "name": "collateralType",
          "type": "bytes32"
        },
        {
          "indexed": false,
          "internalType": "uint256",
          "name": "rad",
          "type": "uint256"
        }
      ],
      "name": "ReduceActiveLiquidationAmount",
      "type": "event"
    },
    {
      "anonymous": false,
      "inputs": [
        {
          "indexed": true,
          "internalType": "address",
          "name": "usr",
          "type": "address"
        }
      ],
      "name": "RemoveAuthorization",
      "type": "event"
    },
    {
      "anonymous": false,
      "inputs": [
        {
          "indexed": false,
          "internalType": "uint8",
          "name": "newDiscountType",
          "type": "uint8"
        }
      ],
      "name": "SetLiquidationDiscountType",
      "type": "event"
    },
    {
      "inputs": [],
      "name": "ACCESS_CONTROL_SINGLETON",
      "outputs": [
        {
          "internalType": "contract ISuAccessControl",
          "name": "",
          "type": "address"
        }
      ],
      "stateMutability": "view",
      "type": "function"
    },
    {
      "inputs": [],
      "name": "ADMIN_ROLE",
      "outputs": [
        {
          "internalType": "bytes32",
          "name": "",
          "type": "bytes32"
        }
      ],
      "stateMutability": "view",
      "type": "function"
    },
    {
      "inputs": [],
      "name": "ALERTER_ROLE",
      "outputs": [
        {
          "internalType": "bytes32",
          "name": "",
          "type": "bytes32"
        }
      ],
      "stateMutability": "view",
      "type": "function"
    },
    {
      "inputs": [],
      "name": "AUCTION_ACCESS_ROLE",
      "outputs": [
        {
          "internalType": "bytes32",
          "name": "",
          "type": "bytes32"
        }
      ],
      "stateMutability": "view",
      "type": "function"
    },
    {
      "inputs": [],
      "name": "ActiveLiquidationAmount",
      "outputs": [
        {
          "internalType": "uint256",
          "name": "",
          "type": "uint256"
        }
      ],
      "stateMutability": "view",
      "type": "function"
    },
    {
      "inputs": [],
      "name": "CDP_ACCESS_ROLE",
      "outputs": [
        {
          "internalType": "bytes32",
          "name": "",
          "type": "bytes32"
        }
      ],
      "stateMutability": "view",
      "type": "function"
    },
    {
      "inputs": [],
      "name": "DAO_ROLE",
      "outputs": [
        {
          "internalType": "bytes32",
          "name": "",
          "type": "bytes32"
        }
      ],
      "stateMutability": "view",
      "type": "function"
    },
    {
      "inputs": [],
      "name": "DISABLER_ROLE",
      "outputs": [
        {
          "internalType": "bytes32",
          "name": "",
          "type": "bytes32"
        }
      ],
      "stateMutability": "view",
      "type": "function"
    },
    {
      "inputs": [],
      "name": "GlobalLiquidationLimit",
      "outputs": [
        {
          "internalType": "uint256",
          "name": "",
          "type": "uint256"
        }
      ],
      "stateMutability": "view",
      "type": "function"
    },
    {
      "inputs": [],
      "name": "LIQUIDATION_ACCESS_ROLE",
      "outputs": [
        {
          "internalType": "bytes32",
          "name": "",
          "type": "bytes32"
        }
      ],
      "stateMutability": "view",
      "type": "function"
    },
    {
      "inputs": [],
      "name": "LiquidatorReward",
      "outputs": [
        {
          "internalType": "uint256",
          "name": "",
          "type": "uint256"
        }
      ],
      "stateMutability": "view",
      "type": "function"
    },
    {
      "inputs": [],
      "name": "MINT_ACCESS_ROLE",
      "outputs": [
        {
          "internalType": "bytes32",
          "name": "",
          "type": "bytes32"
        }
      ],
      "stateMutability": "view",
      "type": "function"
    },
    {
      "inputs": [],
      "name": "PROXY_ACTIONS_ROLE",
      "outputs": [
        {
          "internalType": "bytes32",
          "name": "",
          "type": "bytes32"
        }
      ],
      "stateMutability": "view",
      "type": "function"
    },
    {
      "inputs": [],
      "name": "REWARD_ACCESS_ROLE",
      "outputs": [
        {
          "internalType": "bytes32",
          "name": "",
          "type": "bytes32"
        }
      ],
      "stateMutability": "view",
      "type": "function"
    },
    {
      "inputs": [],
      "name": "VOTING_ESCROW_ROLE",
      "outputs": [
        {
          "internalType": "bytes32",
          "name": "",
          "type": "bytes32"
        }
      ],
      "stateMutability": "view",
      "type": "function"
    },
    {
      "inputs": [],
      "name": "accountingEngine",
      "outputs": [
        {
          "internalType": "contract IAccountingEngine",
          "name": "",
          "type": "address"
        }
      ],
      "stateMutability": "view",
      "type": "function"
    },
    {
      "inputs": [],
      "name": "collateralAuctionHouse",
      "outputs": [
        {
          "internalType": "contract CollateralAuctionHouseLike",
          "name": "",
          "type": "address"
        }
      ],
      "stateMutability": "view",
      "type": "function"
    },
    {
      "inputs": [
        {
          "internalType": "bytes32",
          "name": "",
          "type": "bytes32"
        }
      ],
      "name": "collateralTypes",
      "outputs": [
        {
          "internalType": "uint256",
          "name": "liquidationPenalty",
          "type": "uint256"
        },
        {
          "internalType": "uint256",
          "name": "liquidationLimit",
          "type": "uint256"
        },
        {
          "internalType": "uint256",
          "name": "activeLiquidationAmount",
          "type": "uint256"
        },
        {
          "internalType": "address",
          "name": "collateralAuctionHouse",
          "type": "address"
        }
      ],
      "stateMutability": "view",
      "type": "function"
    },
    {
      "inputs": [],
      "name": "contractEnabled",
      "outputs": [
        {
          "internalType": "uint256",
          "name": "",
          "type": "uint256"
        }
      ],
      "stateMutability": "view",
      "type": "function"
    },
    {
      "inputs": [],
      "name": "disableContract",
      "outputs": [],
      "stateMutability": "nonpayable",
      "type": "function"
    },
    {
      "inputs": [
        {
          "internalType": "address",
          "name": "accessControl",
          "type": "address"
        },
        {
          "internalType": "address",
          "name": "safeEngine_",
          "type": "address"
        }
      ],
      "name": "initialize",
      "outputs": [],
      "stateMutability": "nonpayable",
      "type": "function"
    },
    {
      "inputs": [
        {
          "internalType": "bytes32",
          "name": "collateralType",
          "type": "bytes32"
        },
        {
          "internalType": "address",
          "name": "cdp",
          "type": "address"
        },
        {
          "internalType": "address",
          "name": "incentivesReceiver",
          "type": "address"
        },
        {
          "internalType": "address",
          "name": "collateralJoin",
          "type": "address"
        }
      ],
      "name": "liquidateCDP",
      "outputs": [
        {
          "internalType": "uint256",
          "name": "id",
          "type": "uint256"
        }
      ],
      "stateMutability": "nonpayable",
      "type": "function"
    },
    {
      "inputs": [],
      "name": "liquidationDiscountType",
      "outputs": [
        {
          "internalType": "uint8",
          "name": "",
          "type": "uint8"
        }
      ],
      "stateMutability": "view",
      "type": "function"
    },
    {
      "inputs": [
        {
          "internalType": "bytes32",
          "name": "collateralType",
          "type": "bytes32"
        }
      ],
      "name": "liquidationPenalty",
      "outputs": [
        {
          "internalType": "uint256",
          "name": "",
          "type": "uint256"
        }
      ],
      "stateMutability": "view",
      "type": "function"
    },
    {
      "inputs": [],
      "name": "liquidator",
      "outputs": [
        {
          "internalType": "address",
          "name": "",
          "type": "address"
        }
      ],
      "stateMutability": "view",
      "type": "function"
    },
    {
      "inputs": [
        {
          "internalType": "bytes32",
          "name": "what",
          "type": "bytes32"
        },
        {
          "internalType": "address",
          "name": "data",
          "type": "address"
        }
      ],
      "name": "modifyParameters",
      "outputs": [],
      "stateMutability": "nonpayable",
      "type": "function"
    },
    {
      "inputs": [
        {
          "internalType": "bytes32",
          "name": "collateralType",
          "type": "bytes32"
        },
        {
          "internalType": "bytes32",
          "name": "what",
          "type": "bytes32"
        },
        {
          "internalType": "uint256",
          "name": "data",
          "type": "uint256"
        }
      ],
      "name": "modifyParameters",
      "outputs": [],
      "stateMutability": "nonpayable",
      "type": "function"
    },
    {
      "inputs": [
        {
          "internalType": "bytes32",
          "name": "what",
          "type": "bytes32"
        },
        {
          "internalType": "uint256",
          "name": "data",
          "type": "uint256"
        }
      ],
      "name": "modifyParameters",
      "outputs": [],
      "stateMutability": "nonpayable",
      "type": "function"
    },
    {
      "inputs": [
        {
          "internalType": "bytes32",
          "name": "collateralType",
          "type": "bytes32"
        },
        {
          "internalType": "uint256",
          "name": "rad",
          "type": "uint256"
        }
      ],
      "name": "reduceActiveLiquidationAmount",
      "outputs": [],
      "stateMutability": "nonpayable",
      "type": "function"
    },
    {
      "inputs": [],
      "name": "safeEngine",
      "outputs": [
        {
          "internalType": "contract ISafeEngine",
          "name": "",
          "type": "address"
        }
      ],
      "stateMutability": "view",
      "type": "function"
    },
    {
      "inputs": [
        {
          "internalType": "uint8",
          "name": "newDiscountType",
          "type": "uint8"
        }
      ],
      "name": "setLiquidationDiscountType",
      "outputs": [],
      "stateMutability": "nonpayable",
      "type": "function"
    },
    {
      "inputs": [
        {
          "internalType": "bytes4",
          "name": "interfaceId",
          "type": "bytes4"
        }
      ],
      "name": "supportsInterface",
      "outputs": [
        {
          "internalType": "bool",
          "name": "",
          "type": "bool"
        }
      ],
      "stateMutability": "view",
      "type": "function"
    }
  ],
  "numDeployments": 1,
  "solcInputHash": "8f84b6f1e4072e92a972e80f9a9e23c6",
  "bytecode": "0x608060405234801561001057600080fd5b5061001961001e565b6100dd565b600054610100900460ff161561008a5760405162461bcd60e51b815260206004820152602760248201527f496e697469616c697a61626c653a20636f6e747261637420697320696e697469604482015266616c697a696e6760c81b606482015260840160405180910390fd5b60005460ff908116146100db576000805460ff191660ff9081179091556040519081527f7f26b83ff96e1f2b6a682f133852f6798a09c465da95921460cefb38474024989060200160405180910390a15b565b611c02806100ec6000396000f3fe608060405234801561001057600080fd5b50600436106101805760003560e01c806301ffc9a71461018557806303ee9f22146101ad57806318e81571146101d3578063340517c9146102015780634046ebae1461022857806341b3a0d91461023b578063438280dd14610244578063485cc9551461026b57806351a8cd8714610280578063556617c7146102895780636614f0101461029257806367aea313146102a55780636efb72ce146102b857806371d0fb41146102cb57806375b238fc146102f2578063894ba833146102fa5780638e5313e014610302578063961d45c414610329578063b38234f31461033c578063b64864b314610363578063bd5f5be614610376578063c4e906981461039d578063d07900bb146103b0578063d0e8fa82146103fe578063d2351cee14610425578063d4b9311d1461043a578063dbec7dd41461044d578063dc97e84e14610473578063e8d769a714610488578063e9c2651814610491578063eb9ff0b4146104a6578063fe4f5890146104b9575b600080fd5b61019861019336600461185d565b6104cc565b60405190151581526020015b60405180910390f35b6000546101c6906201000090046001600160a01b031681565b6040516101a49190611887565b6101f36101e136600461189b565b60009081526034602052604090205490565b6040519081526020016101a4565b6101f37f014f8da3222812608c449a44f4705585c5ce052eeb6f9af0af9209c64b0ba2de81565b6039546101c6906001600160a01b031681565b6101f3603b5481565b6101f37f39f61ca2a1a28fee144218173ec637b649a353e4026b2738c673800e5bf1437b81565b61027e6102793660046118c9565b610549565b005b6101f360365481565b6101f360375481565b61027e6102a0366004611902565b6106ba565b6033546101c6906001600160a01b031681565b61027e6102c6366004611927565b610965565b6101f37f880a91047114272656e533301261260c75e4d11543ac7303d6fe4204579ec72781565b6101f3600081565b61027e610a7a565b6101f37fe453bacb314e78dcd5192e6b1a2b1f0e7c76e92f6b7e429a6a90f04e39db3b7681565b6035546101c6906001600160a01b031681565b6101f37fd83f5343da19b478b15a140c301a868be9e02603958f38fbd822b9d5c0a2891681565b603a546101c6906001600160a01b031681565b6101f37f4f14c8366fa999817edc9f29824eb88a00cc31225e2156f399da4bc91049eb1081565b61027e6103ab366004611949565b610b4d565b6103ee6103be36600461189b565b6034602052600090815260409020805460018201546002830154600390930154919290916001600160a01b031684565b6040516101a4949392919061196c565b6101f37f76d0567582f23e1e9d7a13eeba60f9aea9d69b8da87ca27a8bf3698b35c653db81565b6101f3600080516020611bd683398151915281565b61027e610448366004611990565b610c36565b60395461046190600160a01b900460ff1681565b60405160ff90911681526020016101a4565b6101f3600080516020611bb683398151915281565b6101f360385481565b6101f3600080516020611b9683398151915281565b6101f36104b43660046119bc565b610deb565b61027e6104c7366004611927565b611455565b600080546040516301ffc9a760e01b8152620100009091046001600160a01b0316906301ffc9a790610502908590600401611a0f565b602060405180830381865afa15801561051f573d6000803e3d6000fd5b505050506040513d601f19601f820116820180604052508101906105439190611a24565b92915050565b600054610100900460ff16158080156105695750600054600160ff909116105b806105835750303b158015610583575060005460ff166001145b6105eb5760405162461bcd60e51b815260206004820152602e60248201527f496e697469616c697a61626c653a20636f6e747261637420697320616c72656160448201526d191e481a5b9a5d1a585b1a5e995960921b60648201526084015b60405180910390fd5b6000805460ff19166001179055801561060e576000805461ff0019166101001790555b61061783611574565b603380546001600160a01b0319166001600160a01b0384161790556001603b556039805460ff60a01b1916905560405133907f599a298163e1678bb1c676052a8930bf0b8a1261ed6e01b8a2391e55f700010290600090a280156106b5576000805461ff0019169055604051600181527f7f26b83ff96e1f2b6a682f133852f6798a09c465da95921460cefb38474024989060200160405180910390a15b505050565b600054604051632474521560e21b8152620100009091046001600160a01b0316906391d14854906106ff90600080516020611b96833981519152903390600401611a46565b602060405180830381865afa15801561071c573d6000803e3d6000fd5b505050506040513d601f19601f820116820180604052508101906107409190611a24565b61075d5760405163599a6c3360e11b815260040160405180910390fd5b816f6163636f756e74696e67456e67696e6560801b0361079757603580546001600160a01b0319166001600160a01b038316179055610929565b8175636f6c6c61746572616c41756374696f6e486f75736560501b0361089b57603354603a5460405163d49d786760e01b81526001600160a01b039283169263d49d7867926107eb92911690600401611887565b600060405180830381600087803b15801561080557600080fd5b505af1158015610819573d6000803e3d6000fd5b5050603a80546001600160a01b0319166001600160a01b0385811691909117909155603354604051631b29a84160e31b81529116925063d94d42089150610864908490600401611887565b600060405180830381600087803b15801561087e57600080fd5b505af1158015610892573d6000803e3d6000fd5b50505050610929565b81693634b8bab4b230ba37b960b11b036108cf57603980546001600160a01b0319166001600160a01b038316179055610929565b60405162461bcd60e51b815260206004820152602960248201527f4c69717569646174696f6e456e67696e652f66696c652d756e7265636f676e696044820152687a65642d706172616d60b81b60648201526084016105e2565b817fd91f38cf03346b5dc15fb60f9076f866295231ad3c3841a1051f8443f25170d1826040516109599190611887565b60405180910390a25050565b600054604051632474521560e21b8152620100009091046001600160a01b0316906391d14854906109aa90600080516020611bb6833981519152903390600401611a46565b602060405180830381865afa1580156109c7573d6000803e3d6000fd5b505050506040513d601f19601f820116820180604052508101906109eb9190611a24565b610a085760405163200ab6d960e01b815260040160405180910390fd5b610a14603754826116a5565b603755600082815260346020526040902060020154610a3390826116a5565b600083815260346020908152604091829020600201929092555182815283917f78430dc03266569e2b73ec40d7107a5bc7047f2244bbca5d04294edb4a6f6ae39101610959565b600054604051632474521560e21b8152620100009091046001600160a01b0316906391d1485490610abf90600080516020611bd6833981519152903390600401611a46565b602060405180830381865afa158015610adc573d6000803e3d6000fd5b505050506040513d601f19601f82011682018060405250810190610b009190611a24565b610b1d5760405163bb0684b760e01b815260040160405180910390fd5b6000603b8190556040517f2d4b4ecff7bd7503135271925520a2f6c0d98c9473ffc1a1e72c92502f51b25e9190a1565b60008054604051632474521560e21b8152620100009091046001600160a01b0316916391d1485491610b8491903390600401611a46565b602060405180830381865afa158015610ba1573d6000803e3d6000fd5b505050506040513d601f19601f82011682018060405250810190610bc59190611a24565b610be257604051631886ea7d60e11b815260040160405180910390fd5b6039805460ff60a01b1916600160a01b60ff8416908102919091179091556040519081527f1a66ae503bf4d11021cd53bd51d904ee5fa7d34fc88d51ee1425fe54bc0950ba9060200160405180910390a150565b600054604051632474521560e21b8152620100009091046001600160a01b0316906391d1485490610c7b90600080516020611b96833981519152903390600401611a46565b602060405180830381865afa158015610c98573d6000803e3d6000fd5b505050506040513d601f19601f82011682018060405250810190610cbc9190611a24565b610cd95760405163599a6c3360e11b815260040160405180910390fd5b81716c69717569646174696f6e50656e616c747960701b03610d7c57670de0b6b3a7640000811015610d665760405162461bcd60e51b815260206004820152603060248201527f4c69717569646174696f6e456e67696e652f66696c652d6c697175696461746960448201526f1bdb94195b985b1d1e4b5b1d0b55d05160821b60648201526084016105e2565b6000838152603460205260409020819055610dab565b816f1b1a5c5d5a59185d1a5bdb931a5b5a5d60821b036108cf5760008381526034602052604090206001018190555b81837fc59b1109b54f213212d2f5af5c1dae5e887f9daa63b595578fae847cb048e8f483604051610dde91815260200190565b60405180910390a3505050565b6000603b54600114610e4d5760405162461bcd60e51b815260206004820152602560248201527f4c69717569646174696f6e456e67696e652f6e6f742d636f6e7472616374456e60448201526418589b195960da1b60648201526084016105e2565b60335460405163e401f2e760e01b8152600481018790526001600160a01b039091169063e401f2e790602401600060405180830381600087803b158015610e9357600080fd5b505af1158015610ea7573d6000803e3d6000fd5b5050603354604051630f50894160e21b8152600093508392506001600160a01b0390911690633d42250490610ee2908a908a90600401611a46565b6040805180830381865afa158015610efe573d6000803e3d6000fd5b505050506040513d601f19601f82011682018060405250810190610f229190611a5d565b6000898152603460209081526040808320815160808101835281548152600182015493810193909352600281015483830152600301546001600160a01b039081166060840152603354915163d07900bb60e01b8152600481018e905295975093955090939192839283928392169063d07900bb9060240161010060405180830381865afa158015610fb7573d6000803e3d6000fd5b505050506040513d601f19601f82011682018060405250810190610fdb9190611a81565b509498509196509450505082158015925090506110095750610ffd86846116c0565b61100788836116c0565b105b6110545760405162461bcd60e51b815260206004820152601c60248201527b4c69717569646174696f6e456e67696e652f6e6f742d756e7361666560201b60448201526064016105e2565b60375460365411801561106e575084604001518560200151115b6110ca5760405162461bcd60e51b815260206004820152602760248201527f4c69717569646174696f6e456e67696e652f6c69717569646174696f6e2d6c696044820152661b5a5d0b5a1a5d60ca1b60648201526084016105e2565b60006110f86037546036546110df9190611b01565b876040015188602001516110f39190611b01565b6116ed565b905061112a8787600001518661111685670de0b6b3a76400006116c0565b6111209190611b14565b6110f39190611b14565b9450848711156111d05782611148611142878a611b01565b866116c0565b1015611156578694506111d0565b8261116186866116c0565b10156111d05760405162461bcd60e51b815260206004820152603860248201527f4c69717569646174696f6e456e67696e652f64757374792d61756374696f6e2d604482015277333937b696b830b93a34b0b616b634b8bab4b230ba34b7b760411b60648201526084016105e2565b50506000856111df88866116c0565b6111e99190611b14565b90506000811161123b5760405162461bcd60e51b815260206004820152601e60248201527f4c69717569646174696f6e456e67696e652f6e756c6c2d61756374696f6e000060448201526064016105e2565b600160ff1b84111580156112535750600160ff1b8111155b61129c5760405162461bcd60e51b815260206004820152601a6024820152794c69717569646174696f6e456e67696e652f6f766572666c6f7760301b60448201526064016105e2565b6000819050603360009054906101000a90046001600160a01b03166001600160a01b0316634e14a9678e8e30603560009054906101000a90046001600160a01b0316866112e890611b36565b6112f18c611b36565b6040516001600160e01b031960e089901b16815260048101969096526001600160a01b039485166024870152928416604486015292166064840152608483019190915260a482015260c401600060405180830381600087803b15801561135657600080fd5b505af115801561136a573d6000803e3d6000fd5b50506035546001600160a01b0316915063a8b30a9f905061138b87876116c0565b6040518263ffffffff1660e01b81526004016113a991815260200190565b600060405180830381600087803b1580156113c357600080fd5b505af11580156113d7573d6000803e3d6000fd5b505050506113f16113e886866116c0565b8e8c848f611706565b9850888c6001600160a01b03168e7f3e68ae8e518de004a5c7f6407b51d7b729e26ddb6bcd135fe2f9e58df1b75b45858961142c8b8b6116c0565b3060405161143d949392919061196c565b60405180910390a45050505050505050949350505050565b600054604051632474521560e21b8152620100009091046001600160a01b0316906391d148549061149a90600080516020611b96833981519152903390600401611a46565b602060405180830381865afa1580156114b7573d6000803e3d6000fd5b505050506040513d601f19601f820116820180604052508101906114db9190611a24565b6114f85760405163599a6c3360e11b815260040160405180910390fd5b817511db1bd8985b131a5c5d5a59185d1a5bdb931a5b5a5d60521b03611522576036819055611542565b816f131a5c5d5a59185d1bdc94995dd85c9960821b036108cf5760388190555b817fac7c5c1afaef770ec56ac6268cd3f2fbb1035858ead2601d6553157c33036c3a8260405161095991815260200190565b600054610100900460ff166115df5760405162461bcd60e51b815260206004820152602b60248201527f496e697469616c697a61626c653a20636f6e7472616374206973206e6f74206960448201526a6e697469616c697a696e6760a81b60648201526084016105e2565b6000805462010000600160b01b031916620100006001600160a01b03841690810291909117909155158061168457506040516301ffc9a760e01b81526001600160a01b038216906301ffc9a79061164190637965db0b60e01b90600401611a0f565b602060405180830381865afa15801561165e573d6000803e3d6000fd5b505050506040513d601f19601f820116820180604052508101906116829190611a24565b155b156116a2576040516384d942fd60e01b815260040160405180910390fd5b50565b6000826116b28382611b01565b915081111561054357600080fd5b60008115806116e4575082826116d68183611b52565b92506116e29083611b14565b145b61054357600080fd5b6000818311156116fd57816116ff565b825b9392505050565b600084815260346020908152604080832081516080810183528154808252600183015494820194909452600282015492810192909252600301546001600160a01b03166060820152908290670de0b6b3a764000090611766908a906116c0565b6117709190611b14565b905061177e60375482611842565b60375560408201516117909082611842565b6000888152603460205260409081902060020191909155603a5460355491516354da2ca160e11b8152600481018a90526001600160a01b038981166024830152928316604482015260648101889052868316608482015291169063a9b459429060a4016020604051808303816000875af1158015611812573d6000803e3d6000fd5b505050506040513d601f19601f820116820180604052508101906118369190611b69565b98975050505050505050565b60008261184f8382611b82565b915081101561054357600080fd5b60006020828403121561186f57600080fd5b81356001600160e01b0319811681146116ff57600080fd5b6001600160a01b0391909116815260200190565b6000602082840312156118ad57600080fd5b5035919050565b6001600160a01b03811681146116a257600080fd5b600080604083850312156118dc57600080fd5b82356118e7816118b4565b915060208301356118f7816118b4565b809150509250929050565b6000806040838503121561191557600080fd5b8235915060208301356118f7816118b4565b6000806040838503121561193a57600080fd5b50508035926020909101359150565b60006020828403121561195b57600080fd5b813560ff811681146116ff57600080fd5b938452602084019290925260408301526001600160a01b0316606082015260800190565b6000806000606084860312156119a557600080fd5b505081359360208301359350604090920135919050565b600080600080608085870312156119d257600080fd5b8435935060208501356119e4816118b4565b925060408501356119f4816118b4565b91506060850135611a04816118b4565b939692955090935050565b6001600160e01b031991909116815260200190565b600060208284031215611a3657600080fd5b815180151581146116ff57600080fd5b9182526001600160a01b0316602082015260400190565b60008060408385031215611a7057600080fd5b505080516020909101519092909150565b600080600080600080600080610100898b031215611a9e57600080fd5b885197506020890151965060408901519550606089015194506080890151935060a0890151925060c0890151611ad3816118b4565b8092505060e089015190509295985092959890939650565b634e487b7160e01b600052601160045260246000fd5b8181038181111561054357610543611aeb565b600082611b3157634e487b7160e01b600052601260045260246000fd5b500490565b6000600160ff1b8201611b4b57611b4b611aeb565b5060000390565b808202811582820484141761054357610543611aeb565b600060208284031215611b7b57600080fd5b5051919050565b8082018082111561054357610543611aeb56fe3b5d4cc60d3ec3516ee8ae083bd60934f6eb2a6c54b1229985c41bfb092b26039a9aef7c1247d5fc769b0185c052913e39673da29a880317dfd20ebf86f26a49b0fdd1623e42dbffda4acd8bd643e1cb69f00f0e83abeaa8150ee42cf0fd105ea164736f6c6343000811000a",
  "devdoc": {
    "kind": "dev",
    "methods": {
      "constructor": {
        "custom:oz-upgrades-unsafe-allow": "constructor"
      },
      "disableContract()": {
        "details": "Sets `contractEnabled` to 0 and emits a placeholder event. Only callable by DisablerAccess."
      },
      "initialize(address,address)": {
        "details": "Sets the SafeEngine reference, enables the contract, and sets default discount type.      Emits a placeholder authorization event (can be removed).",
        "params": {
          "accessControl": "Address of the access control singleton.",
          "safeEngine_": "Address of the SafeEngine contract."
        }
      },
      "liquidateCDP(bytes32,address,address,address)": {
        "details": "Confiscates collateral and debt, rewards the liquidator, and auctions remaining collateral via Exchange.      Pushes debt to AccountingEngine. Ensures limits and safety conditions are met.",
        "params": {
          "cdp": "Address of the Safe to liquidate.",
          "collateralJoin": "Address of the CollateralJoin contract.",
          "collateralType": "Unique identifier for the collateral type.",
          "incentivesReceiver": "Address to receive liquidator reward."
        },
        "returns": {
          "id": "Unique identifier of the Exchange order."
        }
      },
      "liquidationPenalty(bytes32)": {
        "params": {
          "collateralType": "Unique identifier for the collateral type."
        },
        "returns": {
          "_0": "Liquidation penalty [wad]."
        }
      },
      "modifyParameters(bytes32,address)": {
        "details": "Updates AccountingEngine or Exchange module address. Only callable by DAO.",
        "params": {
          "data": "New contract address.",
          "what": "Parameter to modify (\"accountingEngine\" or \"liquidator\")."
        }
      },
      "modifyParameters(bytes32,bytes32,uint256)": {
        "details": "Updates liquidation penalty or limit for a collateral type. Only callable by DAO.",
        "params": {
          "collateralType": "Unique identifier for the collateral type.",
          "data": "New parameter value.",
          "what": "Parameter to modify (\"liquidationPenalty\" or \"liquidationLimit\")."
        }
      },
      "modifyParameters(bytes32,uint256)": {
        "details": "Updates global liquidation limit or liquidator reward. Only callable by DAO.",
        "params": {
          "data": "New parameter value.",
          "what": "Parameter to modify (\"GlobalLiquidationLimit\" or \"LiquidatorReward\")."
        }
      },
      "reduceActiveLiquidationAmount(bytes32,uint256)": {
        "details": "Updates global and collateral-specific liquidation amounts. Only callable by LiquidationAccess.",
        "params": {
          "collateralType": "Unique identifier for the collateral type.",
          "rad": "Amount to reduce [rad]."
        }
      },
      "setLiquidationDiscountType(uint8)": {
        "details": "Updates the auction discount type. Only callable by Admin.",
        "params": {
          "newDiscountType": "New discount type (e.g., 0 for aggressive)."
        }
      },
      "supportsInterface(bytes4)": {
        "details": "Returns true if this contract implements the interface defined by `interfaceId`. See the corresponding https://eips.ethereum.org/EIPS/eip-165#how-interfaces-are-identified[EIP section] to learn more about how these ids are created. This function call must use less than 30 000 gas."
      }
    },
    "version": 1
  },
  "userdoc": {
    "kind": "user",
    "methods": {
      "ActiveLiquidationAmount()": {
        "notice": "Current StablePro debt for active auctions [rad]."
      },
      "GlobalLiquidationLimit()": {
        "notice": "Maximum StablePro debt for active auctions [rad]."
      },
      "LiquidatorReward()": {
        "notice": "Reward percentage for liquidators [wad]."
      },
      "accountingEngine()": {
        "notice": "Reference to the AccountingEngine for debt queuing."
      },
      "collateralTypes(bytes32)": {
        "notice": "Maps collateral types to their liquidation configurations."
      },
      "contractEnabled()": {
        "notice": "Flag indicating if the contract is enabled (1) or disabled (0)."
      },
      "disableContract()": {
        "notice": "Disables the contract, halting liquidations."
      },
      "initialize(address,address)": {
        "notice": "Initializes the LiquidationEngine with access control and SafeEngine addresses."
      },
      "liquidateCDP(bytes32,address,address,address)": {
        "notice": "Liquidates an undercollateralized Safe."
      },
      "liquidationDiscountType()": {
        "notice": "Discount type for liquidation auctions (e.g., 0 for aggressive)."
      },
      "liquidationPenalty(bytes32)": {
        "notice": "Retrieves the liquidation penalty for a collateral type."
      },
      "liquidator()": {
        "notice": "Address of the Exchange module for auctions."
      },
      "modifyParameters(bytes32,address)": {
        "notice": "Modifies contract addresses."
      },
      "modifyParameters(bytes32,bytes32,uint256)": {
        "notice": "Modifies collateral type parameters."
      },
      "modifyParameters(bytes32,uint256)": {
        "notice": "Modifies global parameters."
      },
      "reduceActiveLiquidationAmount(bytes32,uint256)": {
        "notice": "Reduces active liquidation amounts after an auction completes."
      },
      "safeEngine()": {
        "notice": "Reference to the SafeEngine contract for Safe operations."
      },
      "setLiquidationDiscountType(uint8)": {
        "notice": "Sets the discount type for liquidation auctions."
      }
    },
    "version": 1
  },
  "storageLayout": {
    "storage": [
      {
        "astId": 1226,
        "contract": "contracts/makerdao/externalContracts/LiquidationEngine.sol:LiquidationEngine",
        "label": "_initialized",
        "offset": 0,
        "slot": "0",
        "type": "t_uint8"
      },
      {
        "astId": 1229,
        "contract": "contracts/makerdao/externalContracts/LiquidationEngine.sol:LiquidationEngine",
        "label": "_initializing",
        "offset": 1,
        "slot": "0",
        "type": "t_bool"
      },
      {
        "astId": 25605,
        "contract": "contracts/makerdao/externalContracts/LiquidationEngine.sol:LiquidationEngine",
        "label": "ACCESS_CONTROL_SINGLETON",
        "offset": 2,
        "slot": "0",
        "type": "t_contract(ISuAccessControl)32864"
      },
      {
        "astId": 25893,
        "contract": "contracts/makerdao/externalContracts/LiquidationEngine.sol:LiquidationEngine",
        "label": "__gap",
        "offset": 0,
        "slot": "1",
        "type": "t_array(t_uint256)50_storage"
      },
      {
        "astId": 95150,
        "contract": "contracts/makerdao/externalContracts/LiquidationEngine.sol:LiquidationEngine",
        "label": "safeEngine",
        "offset": 0,
        "slot": "51",
        "type": "t_contract(ISafeEngine)97348"
      },
      {
        "astId": 95156,
        "contract": "contracts/makerdao/externalContracts/LiquidationEngine.sol:LiquidationEngine",
        "label": "collateralTypes",
        "offset": 0,
        "slot": "52",
        "type": "t_mapping(t_bytes32,t_struct(CollateralType)96807_storage)"
      },
      {
        "astId": 95160,
        "contract": "contracts/makerdao/externalContracts/LiquidationEngine.sol:LiquidationEngine",
        "label": "accountingEngine",
        "offset": 0,
        "slot": "53",
        "type": "t_contract(IAccountingEngine)96345"
      },
      {
        "astId": 95163,
        "contract": "contracts/makerdao/externalContracts/LiquidationEngine.sol:LiquidationEngine",
        "label": "GlobalLiquidationLimit",
        "offset": 0,
        "slot": "54",
        "type": "t_uint256"
      },
      {
        "astId": 95166,
        "contract": "contracts/makerdao/externalContracts/LiquidationEngine.sol:LiquidationEngine",
        "label": "ActiveLiquidationAmount",
        "offset": 0,
        "slot": "55",
        "type": "t_uint256"
      },
      {
        "astId": 95169,
        "contract": "contracts/makerdao/externalContracts/LiquidationEngine.sol:LiquidationEngine",
        "label": "LiquidatorReward",
        "offset": 0,
        "slot": "56",
        "type": "t_uint256"
      },
      {
        "astId": 95172,
        "contract": "contracts/makerdao/externalContracts/LiquidationEngine.sol:LiquidationEngine",
        "label": "liquidator",
        "offset": 0,
        "slot": "57",
        "type": "t_address"
      },
      {
        "astId": 95175,
        "contract": "contracts/makerdao/externalContracts/LiquidationEngine.sol:LiquidationEngine",
        "label": "liquidationDiscountType",
        "offset": 20,
        "slot": "57",
        "type": "t_uint8"
      },
      {
        "astId": 95178,
        "contract": "contracts/makerdao/externalContracts/LiquidationEngine.sol:LiquidationEngine",
        "label": "collateralAuctionHouse",
        "offset": 0,
        "slot": "58",
        "type": "t_contract(CollateralAuctionHouseLike)95140"
      },
      {
        "astId": 95223,
        "contract": "contracts/makerdao/externalContracts/LiquidationEngine.sol:LiquidationEngine",
        "label": "contractEnabled",
        "offset": 0,
        "slot": "59",
        "type": "t_uint256"
      }
    ],
    "types": {
      "t_address": {
        "encoding": "inplace",
        "label": "address",
        "numberOfBytes": "20"
      },
      "t_array(t_uint256)50_storage": {
        "base": "t_uint256",
        "encoding": "inplace",
        "label": "uint256[50]",
        "numberOfBytes": "1600"
      },
      "t_bool": {
        "encoding": "inplace",
        "label": "bool",
        "numberOfBytes": "1"
      },
      "t_bytes32": {
        "encoding": "inplace",
        "label": "bytes32",
        "numberOfBytes": "32"
      },
      "t_contract(CollateralAuctionHouseLike)95140": {
        "encoding": "inplace",
        "label": "contract CollateralAuctionHouseLike",
        "numberOfBytes": "20"
      },
      "t_contract(IAccountingEngine)96345": {
        "encoding": "inplace",
        "label": "contract IAccountingEngine",
        "numberOfBytes": "20"
      },
      "t_contract(ISafeEngine)97348": {
        "encoding": "inplace",
        "label": "contract ISafeEngine",
        "numberOfBytes": "20"
      },
      "t_contract(ISuAccessControl)32864": {
        "encoding": "inplace",
        "label": "contract ISuAccessControl",
        "numberOfBytes": "20"
      },
      "t_mapping(t_bytes32,t_struct(CollateralType)96807_storage)": {
        "encoding": "mapping",
        "key": "t_bytes32",
        "label": "mapping(bytes32 => struct ILiquidationEngine.CollateralType)",
        "numberOfBytes": "32",
        "value": "t_struct(CollateralType)96807_storage"
      },
      "t_struct(CollateralType)96807_storage": {
        "encoding": "inplace",
        "label": "struct ILiquidationEngine.CollateralType",
        "members": [
          {
            "astId": 96800,
            "contract": "contracts/makerdao/externalContracts/LiquidationEngine.sol:LiquidationEngine",
            "label": "liquidationPenalty",
            "offset": 0,
            "slot": "0",
            "type": "t_uint256"
          },
          {
            "astId": 96802,
            "contract": "contracts/makerdao/externalContracts/LiquidationEngine.sol:LiquidationEngine",
            "label": "liquidationLimit",
            "offset": 0,
            "slot": "1",
            "type": "t_uint256"
          },
          {
            "astId": 96804,
            "contract": "contracts/makerdao/externalContracts/LiquidationEngine.sol:LiquidationEngine",
            "label": "activeLiquidationAmount",
            "offset": 0,
            "slot": "2",
            "type": "t_uint256"
          },
          {
            "astId": 96806,
            "contract": "contracts/makerdao/externalContracts/LiquidationEngine.sol:LiquidationEngine",
            "label": "collateralAuctionHouse",
            "offset": 0,
            "slot": "3",
            "type": "t_address"
          }
        ],
        "numberOfBytes": "128"
      },
      "t_uint256": {
        "encoding": "inplace",
        "label": "uint256",
        "numberOfBytes": "32"
      },
      "t_uint8": {
        "encoding": "inplace",
        "label": "uint8",
        "numberOfBytes": "1"
      }
    }
  }
}