{
  "address": "0x8A1D7a3eA82116f74D41214ed72d80687F15948b",
  "abi": [
    {
      "inputs": [],
      "stateMutability": "nonpayable",
      "type": "constructor"
    },
    {
      "inputs": [],
      "name": "BadAccessControlSingleton",
      "type": "error"
    },
    {
      "inputs": [],
      "name": "OnlyAdminError",
      "type": "error"
    },
    {
      "inputs": [],
      "name": "OnlyAlerterError",
      "type": "error"
    },
    {
      "inputs": [],
      "name": "OnlyCDPAccessError",
      "type": "error"
    },
    {
      "inputs": [],
      "name": "OnlyDAOError",
      "type": "error"
    },
    {
      "inputs": [],
      "name": "OnlyDisablerAccessError",
      "type": "error"
    },
    {
      "inputs": [],
      "name": "OnlyLiquidationAccessError",
      "type": "error"
    },
    {
      "inputs": [],
      "name": "OnlyMintAccessError",
      "type": "error"
    },
    {
      "inputs": [],
      "name": "OnlyProxyActionsError",
      "type": "error"
    },
    {
      "inputs": [],
      "name": "OnlyRewardAccessError",
      "type": "error"
    },
    {
      "inputs": [],
      "name": "OnlyRoleError",
      "type": "error"
    },
    {
      "inputs": [],
      "name": "OnlyVaultAccessError",
      "type": "error"
    },
    {
      "inputs": [],
      "name": "OnlyVotingEscrowError",
      "type": "error"
    },
    {
      "anonymous": false,
      "inputs": [
        {
          "indexed": true,
          "internalType": "address",
          "name": "usr",
          "type": "address"
        }
      ],
      "name": "AddAuthorization",
      "type": "event"
    },
    {
      "anonymous": false,
      "inputs": [],
      "name": "DisableContract",
      "type": "event"
    },
    {
      "anonymous": false,
      "inputs": [
        {
          "indexed": false,
          "internalType": "uint8",
          "name": "version",
          "type": "uint8"
        }
      ],
      "name": "Initialized",
      "type": "event"
    },
    {
      "anonymous": false,
      "inputs": [
        {
          "indexed": true,
          "internalType": "bytes32",
          "name": "collateralType",
          "type": "bytes32"
        },
        {
          "indexed": true,
          "internalType": "address",
          "name": "cdp",
          "type": "address"
        },
        {
          "indexed": false,
          "internalType": "uint256",
          "name": "lockedCollateral",
          "type": "uint256"
        },
        {
          "indexed": false,
          "internalType": "uint256",
          "name": "generatedDebt",
          "type": "uint256"
        },
        {
          "indexed": false,
          "internalType": "uint256",
          "name": "due",
          "type": "uint256"
        },
        {
          "indexed": false,
          "internalType": "address",
          "name": "liquidator",
          "type": "address"
        },
        {
          "indexed": true,
          "internalType": "uint256",
          "name": "id",
          "type": "uint256"
        }
      ],
      "name": "LiquidateCDP",
      "type": "event"
    },
    {
      "anonymous": false,
      "inputs": [
        {
          "indexed": true,
          "internalType": "bytes32",
          "name": "what",
          "type": "bytes32"
        },
        {
          "indexed": false,
          "internalType": "uint256",
          "name": "data",
          "type": "uint256"
        }
      ],
      "name": "ModifyParameters",
      "type": "event"
    },
    {
      "anonymous": false,
      "inputs": [
        {
          "indexed": true,
          "internalType": "bytes32",
          "name": "what",
          "type": "bytes32"
        },
        {
          "indexed": false,
          "internalType": "address",
          "name": "data",
          "type": "address"
        }
      ],
      "name": "ModifyParameters",
      "type": "event"
    },
    {
      "anonymous": false,
      "inputs": [
        {
          "indexed": true,
          "internalType": "bytes32",
          "name": "collateralType",
          "type": "bytes32"
        },
        {
          "indexed": true,
          "internalType": "bytes32",
          "name": "what",
          "type": "bytes32"
        },
        {
          "indexed": false,
          "internalType": "uint256",
          "name": "data",
          "type": "uint256"
        }
      ],
      "name": "ModifyParameters",
      "type": "event"
    },
    {
      "anonymous": false,
      "inputs": [
        {
          "indexed": true,
          "internalType": "bytes32",
          "name": "collateralType",
          "type": "bytes32"
        },
        {
          "indexed": true,
          "internalType": "bytes32",
          "name": "what",
          "type": "bytes32"
        },
        {
          "indexed": false,
          "internalType": "address",
          "name": "liquidator",
          "type": "address"
        }
      ],
      "name": "ModifyParameters",
      "type": "event"
    },
    {
      "anonymous": false,
      "inputs": [
        {
          "indexed": true,
          "internalType": "bytes32",
          "name": "collateralType",
          "type": "bytes32"
        },
        {
          "indexed": false,
          "internalType": "uint256",
          "name": "rad",
          "type": "uint256"
        }
      ],
      "name": "ReduceActiveLiquidationAmount",
      "type": "event"
    },
    {
      "anonymous": false,
      "inputs": [
        {
          "indexed": true,
          "internalType": "address",
          "name": "usr",
          "type": "address"
        }
      ],
      "name": "RemoveAuthorization",
      "type": "event"
    },
    {
      "inputs": [],
      "name": "ACCESS_CONTROL_SINGLETON",
      "outputs": [
        {
          "internalType": "contract ISuAccessControl",
          "name": "",
          "type": "address"
        }
      ],
      "stateMutability": "view",
      "type": "function"
    },
    {
      "inputs": [],
      "name": "ADMIN_ROLE",
      "outputs": [
        {
          "internalType": "bytes32",
          "name": "",
          "type": "bytes32"
        }
      ],
      "stateMutability": "view",
      "type": "function"
    },
    {
      "inputs": [],
      "name": "ALERTER_ROLE",
      "outputs": [
        {
          "internalType": "bytes32",
          "name": "",
          "type": "bytes32"
        }
      ],
      "stateMutability": "view",
      "type": "function"
    },
    {
      "inputs": [],
      "name": "ActiveLiquidationAmount",
      "outputs": [
        {
          "internalType": "uint256",
          "name": "",
          "type": "uint256"
        }
      ],
      "stateMutability": "view",
      "type": "function"
    },
    {
      "inputs": [],
      "name": "CDP_ACCESS_ROLE",
      "outputs": [
        {
          "internalType": "bytes32",
          "name": "",
          "type": "bytes32"
        }
      ],
      "stateMutability": "view",
      "type": "function"
    },
    {
      "inputs": [],
      "name": "DAO_ROLE",
      "outputs": [
        {
          "internalType": "bytes32",
          "name": "",
          "type": "bytes32"
        }
      ],
      "stateMutability": "view",
      "type": "function"
    },
    {
      "inputs": [],
      "name": "DISABLER_ROLE",
      "outputs": [
        {
          "internalType": "bytes32",
          "name": "",
          "type": "bytes32"
        }
      ],
      "stateMutability": "view",
      "type": "function"
    },
    {
      "inputs": [],
      "name": "GlobalLiquidationLimit",
      "outputs": [
        {
          "internalType": "uint256",
          "name": "",
          "type": "uint256"
        }
      ],
      "stateMutability": "view",
      "type": "function"
    },
    {
      "inputs": [],
      "name": "LIQUIDATION_ACCESS_ROLE",
      "outputs": [
        {
          "internalType": "bytes32",
          "name": "",
          "type": "bytes32"
        }
      ],
      "stateMutability": "view",
      "type": "function"
    },
    {
      "inputs": [],
      "name": "LiquidatorReward",
      "outputs": [
        {
          "internalType": "uint256",
          "name": "",
          "type": "uint256"
        }
      ],
      "stateMutability": "view",
      "type": "function"
    },
    {
      "inputs": [],
      "name": "MINT_ACCESS_ROLE",
      "outputs": [
        {
          "internalType": "bytes32",
          "name": "",
          "type": "bytes32"
        }
      ],
      "stateMutability": "view",
      "type": "function"
    },
    {
      "inputs": [],
      "name": "PROXY_ACTIONS_ROLE",
      "outputs": [
        {
          "internalType": "bytes32",
          "name": "",
          "type": "bytes32"
        }
      ],
      "stateMutability": "view",
      "type": "function"
    },
    {
      "inputs": [],
      "name": "REWARD_ACCESS_ROLE",
      "outputs": [
        {
          "internalType": "bytes32",
          "name": "",
          "type": "bytes32"
        }
      ],
      "stateMutability": "view",
      "type": "function"
    },
    {
      "inputs": [],
      "name": "VOTING_ESCROW_ROLE",
      "outputs": [
        {
          "internalType": "bytes32",
          "name": "",
          "type": "bytes32"
        }
      ],
      "stateMutability": "view",
      "type": "function"
    },
    {
      "inputs": [],
      "name": "accountingEngine",
      "outputs": [
        {
          "internalType": "contract IAccountingEngine",
          "name": "",
          "type": "address"
        }
      ],
      "stateMutability": "view",
      "type": "function"
    },
    {
      "inputs": [
        {
          "internalType": "bytes32",
          "name": "",
          "type": "bytes32"
        }
      ],
      "name": "collateralTypes",
      "outputs": [
        {
          "internalType": "uint256",
          "name": "liquidationPenalty",
          "type": "uint256"
        },
        {
          "internalType": "uint256",
          "name": "liquidationLimit",
          "type": "uint256"
        },
        {
          "internalType": "uint256",
          "name": "activeLiquidationAmount",
          "type": "uint256"
        }
      ],
      "stateMutability": "view",
      "type": "function"
    },
    {
      "inputs": [],
      "name": "contractEnabled",
      "outputs": [
        {
          "internalType": "uint256",
          "name": "",
          "type": "uint256"
        }
      ],
      "stateMutability": "view",
      "type": "function"
    },
    {
      "inputs": [],
      "name": "disableContract",
      "outputs": [],
      "stateMutability": "nonpayable",
      "type": "function"
    },
    {
      "inputs": [
        {
          "internalType": "address",
          "name": "accessControl",
          "type": "address"
        },
        {
          "internalType": "address",
          "name": "safeEngine_",
          "type": "address"
        }
      ],
      "name": "initialize",
      "outputs": [],
      "stateMutability": "nonpayable",
      "type": "function"
    },
    {
      "inputs": [
        {
          "internalType": "bytes32",
          "name": "collateralType",
          "type": "bytes32"
        },
        {
          "internalType": "address",
          "name": "cdp",
          "type": "address"
        },
        {
          "internalType": "address",
          "name": "incentivesReceiver",
          "type": "address"
        },
        {
          "internalType": "address",
          "name": "collateralJoin",
          "type": "address"
        }
      ],
      "name": "liquidateCDP",
      "outputs": [
        {
          "internalType": "uint256",
          "name": "id",
          "type": "uint256"
        }
      ],
      "stateMutability": "nonpayable",
      "type": "function"
    },
    {
      "inputs": [],
      "name": "liquidationDiscountType",
      "outputs": [
        {
          "internalType": "uint8",
          "name": "",
          "type": "uint8"
        }
      ],
      "stateMutability": "view",
      "type": "function"
    },
    {
      "inputs": [
        {
          "internalType": "bytes32",
          "name": "collateralType",
          "type": "bytes32"
        }
      ],
      "name": "liquidationPenalty",
      "outputs": [
        {
          "internalType": "uint256",
          "name": "",
          "type": "uint256"
        }
      ],
      "stateMutability": "view",
      "type": "function"
    },
    {
      "inputs": [],
      "name": "liquidator",
      "outputs": [
        {
          "internalType": "address",
          "name": "",
          "type": "address"
        }
      ],
      "stateMutability": "view",
      "type": "function"
    },
    {
      "inputs": [
        {
          "internalType": "bytes32",
          "name": "what",
          "type": "bytes32"
        },
        {
          "internalType": "address",
          "name": "data",
          "type": "address"
        }
      ],
      "name": "modifyParameters",
      "outputs": [],
      "stateMutability": "nonpayable",
      "type": "function"
    },
    {
      "inputs": [
        {
          "internalType": "bytes32",
          "name": "collateralType",
          "type": "bytes32"
        },
        {
          "internalType": "bytes32",
          "name": "what",
          "type": "bytes32"
        },
        {
          "internalType": "uint256",
          "name": "data",
          "type": "uint256"
        }
      ],
      "name": "modifyParameters",
      "outputs": [],
      "stateMutability": "nonpayable",
      "type": "function"
    },
    {
      "inputs": [
        {
          "internalType": "bytes32",
          "name": "what",
          "type": "bytes32"
        },
        {
          "internalType": "uint256",
          "name": "data",
          "type": "uint256"
        }
      ],
      "name": "modifyParameters",
      "outputs": [],
      "stateMutability": "nonpayable",
      "type": "function"
    },
    {
      "inputs": [
        {
          "internalType": "bytes32",
          "name": "collateralType",
          "type": "bytes32"
        },
        {
          "internalType": "uint256",
          "name": "rad",
          "type": "uint256"
        }
      ],
      "name": "reduceActiveLiquidationAmount",
      "outputs": [],
      "stateMutability": "nonpayable",
      "type": "function"
    },
    {
      "inputs": [],
      "name": "safeEngine",
      "outputs": [
        {
          "internalType": "contract ISafeEngine",
          "name": "",
          "type": "address"
        }
      ],
      "stateMutability": "view",
      "type": "function"
    },
    {
      "inputs": [
        {
          "internalType": "uint8",
          "name": "newDiscountType",
          "type": "uint8"
        }
      ],
      "name": "setLiquidationDiscountType",
      "outputs": [],
      "stateMutability": "nonpayable",
      "type": "function"
    },
    {
      "inputs": [
        {
          "internalType": "bytes4",
          "name": "interfaceId",
          "type": "bytes4"
        }
      ],
      "name": "supportsInterface",
      "outputs": [
        {
          "internalType": "bool",
          "name": "",
          "type": "bool"
        }
      ],
      "stateMutability": "view",
      "type": "function"
    }
  ],
  "numDeployments": 1,
  "solcInputHash": "8c060bc8c39a7272c2849a174b3b4791",
  "bytecode": "0x608080604052346100c1576000549060ff8260081c1661006f575060ff80821603610034575b604051611aaa90816100c78239f35b60ff90811916176000557f7f26b83ff96e1f2b6a682f133852f6798a09c465da95921460cefb3847402498602060405160ff8152a138610025565b62461bcd60e51b815260206004820152602760248201527f496e697469616c697a61626c653a20636f6e747261637420697320696e697469604482015266616c697a696e6760c81b6064820152608490fd5b600080fdfe608080604052600436101561001357600080fd5b600090813560e01c90816301ffc9a71461180c5750806303ee9f22146117e157806318e81571146117b75780634046ebae1461178e57806341b3a0d914611770578063438280dd14611735578063485cc9551461149857806351a8cd871461147a578063556617c71461145c5780636614f0101461133d57806367aea313146113145780636efb72ce146111fd57806371d0fb41146111c257806375b238fc146111a6578063894ba833146110e45780638e5313e0146110a9578063961d45c414611080578063b38234f314611045578063bd5f5be61461100a578063c4e9069814610f47578063d07900bb14610f05578063d0e8fa8214610eca578063d2351cee14610ea1578063d4b9311d14610d21578063dbec7dd414610cfd578063dc97e84e14610cd4578063e8d769a714610cb6578063e9c2651814610c8d578063eb9ff0b4146102ea5763fe4f58901461016b57600080fd5b346102e757610179366118ad565b8254604051632474521560e21b81526000805160206119b58339815191526004820152336024820152906020908290604490829060101c6001600160a01b03165afa9081156102dc5784916102ae575b501561029c577511db1bd8985b131a5c5d5a59185d1a5bdb931a5b5a5d60521b8203610210576020816000805160206119d5833981519152926036555b604051908152a280f35b6f131a5c5d5a59185d1bdc94995dd85c9960821b8203610245576020816000805160206119d583398151915292603855610206565b60405162461bcd60e51b815260206004820152602960248201527f4c69717569646174696f6e456e67696e652f66696c652d756e7265636f676e696044820152687a65642d706172616d60b81b6064820152608490fd5b60405163599a6c3360e11b8152600490fd5b6102cf915060203d81116102d5575b6102c781836118d6565b8101906118f9565b386101c9565b503d6102bd565b6040513d86823e3d90fd5b80fd5b50346102e75760803660031901126102e757610304611897565b906044356001600160a01b0381168103610c3657606435916001600160a01b03831683036102e7576001603a5403610c3a576033546001600160a01b0316803b15610c365781809160246040518094819363e401f2e760e01b835260043560048401525af18015610c2b57610c1c575b5060335460408051630f50894160e21b815260048035908201526001600160a01b038781166024830152909216929082604481865afa9283156108485781928294610be1575b50600435825260346020526040808320905193906001600160401b036060860190811190861117610bcb57600290606086016040528054865260018101546020870152015460408501526040519463d07900bb60e01b8652600435600487015261010086602481865afa9182156102dc57849285978691610b74575b508015159081610b58575b5015610b145760365460375480821180610b03575b15610aae5761046491611925565b6104776020880151604089015190611925565b808211610aa757505b80670de0b6b3a7640000810204670de0b6b3a76400001481151715610a915780670de0b6b3a76400008082020403610a8c576104c984670de0b6b3a76400006104d19302611932565b875190611932565b808311610a86575081965b878084116109cd575b5050906104f5876104fa93611977565b611932565b95861561098857600160ff1b80871115908161097d575b501561093b57670de0b6b3a764000061052c60385489611977565b04906105388289611925565b9388851161083c576035546001600160a01b03169261055690611952565b813b15610937578b8780949360c4936040519788968795634e14a96760e01b8752600435600488015260018060a01b0316602487015260018060a01b03166044860152606485015260848401528160a48401525af180156102dc57908491610923575b50506033546039546035546001600160a01b039081169291811691166105de85611952565b6105e789611952565b90823b1561091f578780949360c4938f936040519889978896634e14a96760e01b8852600435600489015260018060a01b0316602488015260448701526064860152608485015260a48401525af180156102dc5790849161090b575b505061064f9085611977565b6035549093906001600160a01b0316803b156108e75783809160246040518094819363a8b30a9f60e01b83528a60048401525af180156102dc579084916108f3575b5050806040670de0b6b3a76400006106ad6106c5945188611977565b04916106bb83603754611963565b6037550151611963565b6004358352603460205260026040842001556039546040519063d8dfeb4560e01b825260208260048160018060a01b038c165afa9182156102dc5784926108ab575b50603554604051631ff63f2360e11b815298906001600160a01b031660208a600481845afa998a156108a057869a610855575b50604051633bcce46f60e21b81526001600160a01b03948516600482015260248101959095529883166044850152606484019890985260a081901c60ff16608484015296811660a48301529095602091879160c49183918691165af1948515610848578195610805575b60208680878a888860018060a01b036039541691604051948552878501526040840152606083015260018060a01b0316907f3e68ae8e518de004a5c7f6407b51d7b729e26ddb6bcd135fe2f9e58df1b75b45608060043592a4604051908152f35b909591939294506020813d602011610840575b81610825602093836118d6565b8101031261083c57519094509290916020386107a4565b8580fd5b3d9150610818565b50604051903d90823e3d90fd5b9099506020813d602011610898575b81610871602093836118d6565b8101031261083c5760c492602095949261088b8893611911565b9b9250929495509261073a565b3d9150610864565b6040513d88823e3d90fd5b9091506020813d6020116108eb575b816108c7602093836118d6565b810103126108e757516001600160a01b03811681036108e7579038610707565b8380fd5b3d91506108ba565b6108fc906118c3565b610907578238610691565b8280fd5b610914906118c3565b610907578238610643565b8780fd5b61092c906118c3565b6109075782386105b9565b8680fd5b60405162461bcd60e51b815260206004820152601a6024820152794c69717569646174696f6e456e67696e652f6f766572666c6f7760301b6044820152606490fd5b905087111538610511565b60405162461bcd60e51b815260206004820152601e60248201527f4c69717569646174696f6e456e67696e652f6e756c6c2d61756374696f6e00006044820152606490fd5b816109e4866109df84889d979d611925565b611977565b1015610a0057505050806104f56104fa9280985b9293506104e5565b84610a0e9199949399611977565b10610a20576104f5876104fa936109f8565b60405162461bcd60e51b815260206004820152603860248201527f4c69717569646174696f6e456e67696e652f64757374792d61756374696f6e2d604482015277333937b696b830b93a34b0b616b634b8bab4b230ba34b7b760411b6064820152608490fd5b966104dc565b600080fd5b634e487b7160e01b600052601160045260246000fd5b9050610480565b60405162461bcd60e51b815260206004820152602760248201527f4c69717569646174696f6e456e67696e652f6c69717569646174696f6e2d6c696044820152661b5a5d0b5a1a5d60ca1b6064820152608490fd5b506020880151604089015110610456565b60405162461bcd60e51b815260206004820152601c60248201527b4c69717569646174696f6e456e67696e652f6e6f742d756e7361666560201b6044820152606490fd5b610b63915082611977565b610b6d8484611977565b1138610441565b9750509150610100863d61010011610bc3575b81610b9561010093836118d6565b810103126108e757602086015191606087015192610bba60c060808a01519901611911565b50929638610436565b3d9150610b87565b634e487b7160e01b600052604160045260246000fd5b925092506040823d604011610c14575b81610bfe604093836118d6565b810103126102e7576020825192015192386103ba565b3d9150610bf1565b610c25906118c3565b38610374565b6040513d84823e3d90fd5b5080fd5b60405162461bcd60e51b815260206004820152602560248201527f4c69717569646174696f6e456e67696e652f6e6f742d636f6e7472616374456e60448201526418589b195960da1b6064820152608490fd5b50346102e757806003193601126102e75760206040516000805160206119b58339815191528152f35b50346102e757806003193601126102e7576020603854604051908152f35b50346102e757806003193601126102e7576020604051600080516020611a358339815191528152f35b50346102e757806003193601126102e757602060ff60395460a01c16604051908152f35b50346102e75760603660031901126102e7576004356024359060443560018060a01b03845460101c16906040518092632474521560e21b82526000805160206119b5833981519152600483015233602483015281604460209586935afa9081156108a0578691610e84575b501561029c57716c69717569646174696f6e50656e616c747960701b8403610e4457670de0b6b3a76400008110610de657906000805160206119f583398151915291838652603482528060408720555b604051908152a380f35b60405162461bcd60e51b815260048101839052603060248201527f4c69717569646174696f6e456e67696e652f66696c652d6c697175696461746960448201526f1bdb94195b985b1d1e4b5b1d0b55d05160821b6064820152608490fd5b906f1b1a5c5d5a59185d1a5bdb931a5b5a5d60821b8403610245576000805160206119f58339815191529183865260348252806001604088200155610ddc565b610e9b9150833d85116102d5576102c781836118d6565b38610d8c565b50346102e757806003193601126102e7576020604051600080516020611a558339815191528152f35b50346102e757806003193601126102e75760206040517f76d0567582f23e1e9d7a13eeba60f9aea9d69b8da87ca27a8bf3698b35c653db8152f35b50346102e75760203660031901126102e75760406060916004358152603460205220805490600260018201549101549060405192835260208301526040820152f35b50346102e75760203660031901126102e75760043560ff81168103610c36578154604051632474521560e21b815260048101849052336024820152906020908290604490829060101c6001600160a01b03165afa908115610fff578391610fe1575b5015610fcf576039805460ff60a01b191660a09290921b60ff60a01b1691909117905580f35b604051631886ea7d60e11b8152600490fd5b610ff9915060203d81116102d5576102c781836118d6565b38610fa9565b6040513d85823e3d90fd5b50346102e757806003193601126102e75760206040517f4f14c8366fa999817edc9f29824eb88a00cc31225e2156f399da4bc91049eb108152f35b50346102e757806003193601126102e75760206040517fd83f5343da19b478b15a140c301a868be9e02603958f38fbd822b9d5c0a289168152f35b50346102e757806003193601126102e7576035546040516001600160a01b039091168152602090f35b50346102e757806003193601126102e75760206040517fe453bacb314e78dcd5192e6b1a2b1f0e7c76e92f6b7e429a6a90f04e39db3b768152f35b50346102e757806003193601126102e7578054604051632474521560e21b8152600080516020611a558339815191526004820152336024820152906020908290604490829060101c6001600160a01b03165afa908115610c2b578291611188575b50156111765780603a557f2d4b4ecff7bd7503135271925520a2f6c0d98c9473ffc1a1e72c92502f51b25e8180a180f35b60405163bb0684b760e01b8152600490fd5b6111a0915060203d81116102d5576102c781836118d6565b38611145565b50346102e757806003193601126102e757602090604051908152f35b50346102e757806003193601126102e75760206040517f880a91047114272656e533301261260c75e4d11543ac7303d6fe4204579ec7278152f35b50346102e75761120c366118ad565b8254604051632474521560e21b8152600080516020611a35833981519152600482015233602482015260209182908290604490829060101c6001600160a01b03165afa9081156113095785916112ec575b50156112da576037546112708382611925565b9081116112d657603755828452603481526002604085200154916112948184611925565b9283116112d6577f78430dc03266569e2b73ec40d7107a5bc7047f2244bbca5d04294edb4a6f6ae392848652603483526002604087200155604051908152a280f35b8480fd5b60405163200ab6d960e01b8152600490fd5b6113039150823d84116102d5576102c781836118d6565b3861125d565b6040513d87823e3d90fd5b50346102e757806003193601126102e7576033546040516001600160a01b039091168152602090f35b50346102e75760403660031901126102e75760043561135a611897565b8254604051632474521560e21b81526000805160206119b583398151915260048201523360248201526001600160a01b03916020908290604490829060101c86165afa90811561130957859161143e575b501561029c576f6163636f756e74696e67456e67696e6560801b83036113fe57603580546001600160a01b031916828416179055600080516020611a15833981519152916020915b60405191168152a280f35b693634b8bab4b230ba37b960b11b830361024557603980546001600160a01b031916828416179055600080516020611a15833981519152916020916113f3565b611456915060203d81116102d5576102c781836118d6565b386113ab565b50346102e757806003193601126102e7576020603754604051908152f35b50346102e757806003193601126102e7576020603654604051908152f35b50346102e75760403660031901126102e7576001600160a01b03600435818116918282036108e7576114c8611897565b9084549160ff8360081c161592838094611728575b8015611711575b156116b55760ff1981166001178755836116a4575b5085549360ff8560081c161561164b5762010000600160b01b0360109190911b1662010000600160b01b03198516811787559480159081156115e4575b506115d2571660018060a01b031960335416176033556001603a5560ff60a01b196039541660395560405190337f599a298163e1678bb1c676052a8930bf0b8a1261ed6e01b8a2391e55f70001028680a261158f578380f35b610100600160b01b03199091169091178255600181527f7f26b83ff96e1f2b6a682f133852f6798a09c465da95921460cefb384740249890602090a13880808380f35b6040516384d942fd60e01b8152600490fd5b6040516301ffc9a760e01b8152637965db0b60e01b60048201529150602090829060249082905afa908115611640578791611622575b501538611536565b61163a915060203d81116102d5576102c781836118d6565b3861161a565b6040513d89823e3d90fd5b60405162461bcd60e51b815260206004820152602b60248201527f496e697469616c697a61626c653a20636f6e7472616374206973206e6f74206960448201526a6e697469616c697a696e6760a81b6064820152608490fd5b61ffff1916610101178655386114f9565b60405162461bcd60e51b815260206004820152602e60248201527f496e697469616c697a61626c653a20636f6e747261637420697320616c72656160448201526d191e481a5b9a5d1a585b1a5e995960921b6064820152608490fd5b50303b1580156114e45750600160ff8216146114e4565b50600160ff8216106114dd565b50346102e757806003193601126102e75760206040517f39f61ca2a1a28fee144218173ec637b649a353e4026b2738c673800e5bf1437b8152f35b50346102e757806003193601126102e7576020603a54604051908152f35b50346102e757806003193601126102e7576039546040516001600160a01b039091168152602090f35b50346102e75760203660031901126102e75760406020916004358152603483522054604051908152f35b50346102e757806003193601126102e7575460405160109190911c6001600160a01b03168152602090f35b905034610c36576020366003190112610c365760043563ffffffff60e01b81168091036109075782546301ffc9a760e01b835260048301919091526020908290602490829060101c6001600160a01b03165afa908115610c2b576020929161187a575b506040519015158152f35b6118919150823d81116102d5576102c781836118d6565b3861186f565b602435906001600160a01b0382168203610a8c57565b6040906003190112610a8c576004359060243590565b6001600160401b038111610bcb57604052565b601f909101601f19168101906001600160401b03821190821017610bcb57604052565b90816020910312610a8c57518015158103610a8c5790565b51906001600160a01b0382168203610a8c57565b91908203918211610a9157565b811561193c570490565b634e487b7160e01b600052601260045260246000fd5b600160ff1b8114610a915760000390565b9190820191828111610a91578210610a8c57565b60009291801591821561198e575b505015610a8c57565b80820294509150811582850482141715610a91576119ac9084611932565b14388061198556fe3b5d4cc60d3ec3516ee8ae083bd60934f6eb2a6c54b1229985c41bfb092b2603ac7c5c1afaef770ec56ac6268cd3f2fbb1035858ead2601d6553157c33036c3ac59b1109b54f213212d2f5af5c1dae5e887f9daa63b595578fae847cb048e8f4d91f38cf03346b5dc15fb60f9076f866295231ad3c3841a1051f8443f25170d19a9aef7c1247d5fc769b0185c052913e39673da29a880317dfd20ebf86f26a49b0fdd1623e42dbffda4acd8bd643e1cb69f00f0e83abeaa8150ee42cf0fd105ea2646970667358221220deaefc66324131556ce00a4c67fc4b056c7abdd748d82f3b405f81d1f3356c7c64736f6c63430008110033",
  "devdoc": {
    "custom:changes": "Renamed from Dog.sol to LiquidationEngine.sol. Replaced auction houses with Exchange module. Added global                 liquidator and reward. Used SuAuthenticated for access control. Moved struct to ILiquidationEngine.",
    "custom:events": "Emits `AddAuthorization`, `DisableContract`, `ModifyParameters`, `LiquidateCDP`, `ReduceActiveLiquidationAmount`.",
    "custom:security": "Only authorized accounts (DAO, Admin, DisablerAccess, LiquidationAccess) can call state-changing functions.                 Liquidations require sufficient limits and valid safety prices. Rewards are calculated to incentivize liquidators.",
    "custom:usage": "- **Initialization**: Deploy with access control and SafeEngine addresses.   ```solidity   LiquidationEngine liquidationEngine = new LiquidationEngine(accessControl, safeEngine);   ``` - **Collateral Type Setup**: Configure liquidation parameters for a collateral type.   ```solidity   liquidationEngine.modifyParameters(\"ETH-A\", \"liquidationPenalty\", penalty);   liquidationEngine.modifyParameters(\"ETH-A\", \"liquidationLimit\", limit);   ``` - **Liquidation**: Liquidate an undercollateralized Safe.   ```solidity   uint orderId = liquidationEngine.liquidateCDP(\"ETH-A\", safeAddress, incentivesReceiver, collateralJoin);   ``` - **Parameter Modification**: Update global or contract-level parameters.   ```solidity   liquidationEngine.modifyParameters(\"GlobalLiquidationLimit\", newLimit);   liquidationEngine.modifyParameters(\"liquidator\", newExchangeAddress);   ``` - **Disabling**: Disable the contract to halt liquidations.   ```solidity   liquidationEngine.disableContract();   ```",
    "details": "Identifies undercollateralized Safes, confiscates collateral and debt, and auctions collateral via the Exchange      module. Supports global and per-collateral-type liquidation limits, a liquidator reward, and a discount type for      auctions. Integrates with SafeEngine for Safe operations and AccountingEngine for debt queuing. This contract is a      fork of MakerDAOs Dog.sol, adapted for StableUnit with Exchange-based auctions and a global liquidator.",
    "kind": "dev",
    "methods": {
      "constructor": {
        "custom:oz-upgrades-unsafe-allow": "constructor"
      },
      "disableContract()": {
        "details": "Sets `contractEnabled` to 0 and emits a placeholder event. Only callable by DisablerAccess."
      },
      "initialize(address,address)": {
        "details": "Sets the SafeEngine reference, enables the contract, and sets default discount type.      Emits a placeholder authorization event (can be removed).",
        "params": {
          "accessControl": "Address of the access control singleton.",
          "safeEngine_": "Address of the SafeEngine contract."
        }
      },
      "liquidateCDP(bytes32,address,address,address)": {
        "details": "Confiscates collateral and debt, rewards the liquidator, and auctions remaining collateral via Exchange.      Pushes debt to AccountingEngine. Ensures limits and safety conditions are met.",
        "params": {
          "cdp": "Address of the Safe to liquidate.",
          "collateralJoin": "Address of the CollateralJoin contract.",
          "collateralType": "Unique identifier for the collateral type.",
          "incentivesReceiver": "Address to receive liquidator reward."
        },
        "returns": {
          "id": "Unique identifier of the Exchange order."
        }
      },
      "liquidationPenalty(bytes32)": {
        "params": {
          "collateralType": "Unique identifier for the collateral type."
        },
        "returns": {
          "_0": "Liquidation penalty [wad]."
        }
      },
      "modifyParameters(bytes32,address)": {
        "details": "Updates AccountingEngine or Exchange module address. Only callable by DAO.",
        "params": {
          "data": "New contract address.",
          "what": "Parameter to modify (\"accountingEngine\" or \"liquidator\")."
        }
      },
      "modifyParameters(bytes32,bytes32,uint256)": {
        "details": "Updates liquidation penalty or limit for a collateral type. Only callable by DAO.",
        "params": {
          "collateralType": "Unique identifier for the collateral type.",
          "data": "New parameter value.",
          "what": "Parameter to modify (\"liquidationPenalty\" or \"liquidationLimit\")."
        }
      },
      "modifyParameters(bytes32,uint256)": {
        "details": "Updates global liquidation limit or liquidator reward. Only callable by DAO.",
        "params": {
          "data": "New parameter value.",
          "what": "Parameter to modify (\"GlobalLiquidationLimit\" or \"LiquidatorReward\")."
        }
      },
      "reduceActiveLiquidationAmount(bytes32,uint256)": {
        "details": "Updates global and collateral-specific liquidation amounts. Only callable by LiquidationAccess.",
        "params": {
          "collateralType": "Unique identifier for the collateral type.",
          "rad": "Amount to reduce [rad]."
        }
      },
      "setLiquidationDiscountType(uint8)": {
        "details": "Updates the auction discount type. Only callable by Admin.",
        "params": {
          "newDiscountType": "New discount type (e.g., 0 for aggressive)."
        }
      },
      "supportsInterface(bytes4)": {
        "details": "Returns true if this contract implements the interface defined by `interfaceId`. See the corresponding https://eips.ethereum.org/EIPS/eip-165#how-interfaces-are-identified[EIP section] to learn more about how these ids are created. This function call must use less than 30 000 gas."
      }
    },
    "title": "LiquidationEngine",
    "version": 1
  },
  "userdoc": {
    "kind": "user",
    "methods": {
      "ActiveLiquidationAmount()": {
        "notice": "Current StablePro debt for active auctions [rad]."
      },
      "GlobalLiquidationLimit()": {
        "notice": "Maximum StablePro debt for active auctions [rad]."
      },
      "LiquidatorReward()": {
        "notice": "Reward percentage for liquidators [wad]."
      },
      "accountingEngine()": {
        "notice": "Reference to the AccountingEngine for debt queuing."
      },
      "collateralTypes(bytes32)": {
        "notice": "Maps collateral types to their liquidation configurations."
      },
      "contractEnabled()": {
        "notice": "Flag indicating if the contract is enabled (1) or disabled (0)."
      },
      "disableContract()": {
        "notice": "Disables the contract, halting liquidations."
      },
      "initialize(address,address)": {
        "notice": "Initializes the LiquidationEngine with access control and SafeEngine addresses."
      },
      "liquidateCDP(bytes32,address,address,address)": {
        "notice": "Liquidates an undercollateralized Safe."
      },
      "liquidationDiscountType()": {
        "notice": "Discount type for liquidation auctions (e.g., 0 for aggressive)."
      },
      "liquidationPenalty(bytes32)": {
        "notice": "Retrieves the liquidation penalty for a collateral type."
      },
      "liquidator()": {
        "notice": "Address of the Exchange module for auctions."
      },
      "modifyParameters(bytes32,address)": {
        "notice": "Modifies contract addresses."
      },
      "modifyParameters(bytes32,bytes32,uint256)": {
        "notice": "Modifies collateral type parameters."
      },
      "modifyParameters(bytes32,uint256)": {
        "notice": "Modifies global parameters."
      },
      "reduceActiveLiquidationAmount(bytes32,uint256)": {
        "notice": "Reduces active liquidation amounts after an auction completes."
      },
      "safeEngine()": {
        "notice": "Reference to the SafeEngine contract for Safe operations."
      },
      "setLiquidationDiscountType(uint8)": {
        "notice": "Sets the discount type for liquidation auctions."
      }
    },
    "notice": "Manages Safe liquidations in the StableUnit protocol.",
    "version": 1
  },
  "storageLayout": {
    "storage": [
      {
        "astId": 1226,
        "contract": "contracts/makerdao/externalContracts/LiquidationEngine.sol:LiquidationEngine",
        "label": "_initialized",
        "offset": 0,
        "slot": "0",
        "type": "t_uint8"
      },
      {
        "astId": 1229,
        "contract": "contracts/makerdao/externalContracts/LiquidationEngine.sol:LiquidationEngine",
        "label": "_initializing",
        "offset": 1,
        "slot": "0",
        "type": "t_bool"
      },
      {
        "astId": 24747,
        "contract": "contracts/makerdao/externalContracts/LiquidationEngine.sol:LiquidationEngine",
        "label": "ACCESS_CONTROL_SINGLETON",
        "offset": 2,
        "slot": "0",
        "type": "t_contract(ISuAccessControl)31989"
      },
      {
        "astId": 25018,
        "contract": "contracts/makerdao/externalContracts/LiquidationEngine.sol:LiquidationEngine",
        "label": "__gap",
        "offset": 0,
        "slot": "1",
        "type": "t_array(t_uint256)50_storage"
      },
      {
        "astId": 52168,
        "contract": "contracts/makerdao/externalContracts/LiquidationEngine.sol:LiquidationEngine",
        "label": "safeEngine",
        "offset": 0,
        "slot": "51",
        "type": "t_contract(ISafeEngine)53684"
      },
      {
        "astId": 52174,
        "contract": "contracts/makerdao/externalContracts/LiquidationEngine.sol:LiquidationEngine",
        "label": "collateralTypes",
        "offset": 0,
        "slot": "52",
        "type": "t_mapping(t_bytes32,t_struct(CollateralType)53309_storage)"
      },
      {
        "astId": 52178,
        "contract": "contracts/makerdao/externalContracts/LiquidationEngine.sol:LiquidationEngine",
        "label": "accountingEngine",
        "offset": 0,
        "slot": "53",
        "type": "t_contract(IAccountingEngine)52921"
      },
      {
        "astId": 52181,
        "contract": "contracts/makerdao/externalContracts/LiquidationEngine.sol:LiquidationEngine",
        "label": "GlobalLiquidationLimit",
        "offset": 0,
        "slot": "54",
        "type": "t_uint256"
      },
      {
        "astId": 52184,
        "contract": "contracts/makerdao/externalContracts/LiquidationEngine.sol:LiquidationEngine",
        "label": "ActiveLiquidationAmount",
        "offset": 0,
        "slot": "55",
        "type": "t_uint256"
      },
      {
        "astId": 52187,
        "contract": "contracts/makerdao/externalContracts/LiquidationEngine.sol:LiquidationEngine",
        "label": "LiquidatorReward",
        "offset": 0,
        "slot": "56",
        "type": "t_uint256"
      },
      {
        "astId": 52190,
        "contract": "contracts/makerdao/externalContracts/LiquidationEngine.sol:LiquidationEngine",
        "label": "liquidator",
        "offset": 0,
        "slot": "57",
        "type": "t_address"
      },
      {
        "astId": 52193,
        "contract": "contracts/makerdao/externalContracts/LiquidationEngine.sol:LiquidationEngine",
        "label": "liquidationDiscountType",
        "offset": 20,
        "slot": "57",
        "type": "t_uint8"
      },
      {
        "astId": 52238,
        "contract": "contracts/makerdao/externalContracts/LiquidationEngine.sol:LiquidationEngine",
        "label": "contractEnabled",
        "offset": 0,
        "slot": "58",
        "type": "t_uint256"
      }
    ],
    "types": {
      "t_address": {
        "encoding": "inplace",
        "label": "address",
        "numberOfBytes": "20"
      },
      "t_array(t_uint256)50_storage": {
        "base": "t_uint256",
        "encoding": "inplace",
        "label": "uint256[50]",
        "numberOfBytes": "1600"
      },
      "t_bool": {
        "encoding": "inplace",
        "label": "bool",
        "numberOfBytes": "1"
      },
      "t_bytes32": {
        "encoding": "inplace",
        "label": "bytes32",
        "numberOfBytes": "32"
      },
      "t_contract(IAccountingEngine)52921": {
        "encoding": "inplace",
        "label": "contract IAccountingEngine",
        "numberOfBytes": "20"
      },
      "t_contract(ISafeEngine)53684": {
        "encoding": "inplace",
        "label": "contract ISafeEngine",
        "numberOfBytes": "20"
      },
      "t_contract(ISuAccessControl)31989": {
        "encoding": "inplace",
        "label": "contract ISuAccessControl",
        "numberOfBytes": "20"
      },
      "t_mapping(t_bytes32,t_struct(CollateralType)53309_storage)": {
        "encoding": "mapping",
        "key": "t_bytes32",
        "label": "mapping(bytes32 => struct ILiquidationEngine.CollateralType)",
        "numberOfBytes": "32",
        "value": "t_struct(CollateralType)53309_storage"
      },
      "t_struct(CollateralType)53309_storage": {
        "encoding": "inplace",
        "label": "struct ILiquidationEngine.CollateralType",
        "members": [
          {
            "astId": 53304,
            "contract": "contracts/makerdao/externalContracts/LiquidationEngine.sol:LiquidationEngine",
            "label": "liquidationPenalty",
            "offset": 0,
            "slot": "0",
            "type": "t_uint256"
          },
          {
            "astId": 53306,
            "contract": "contracts/makerdao/externalContracts/LiquidationEngine.sol:LiquidationEngine",
            "label": "liquidationLimit",
            "offset": 0,
            "slot": "1",
            "type": "t_uint256"
          },
          {
            "astId": 53308,
            "contract": "contracts/makerdao/externalContracts/LiquidationEngine.sol:LiquidationEngine",
            "label": "activeLiquidationAmount",
            "offset": 0,
            "slot": "2",
            "type": "t_uint256"
          }
        ],
        "numberOfBytes": "96"
      },
      "t_uint256": {
        "encoding": "inplace",
        "label": "uint256",
        "numberOfBytes": "32"
      },
      "t_uint8": {
        "encoding": "inplace",
        "label": "uint8",
        "numberOfBytes": "1"
      }
    }
  }
}