{
  "address": "0xda7339B18E036eC0977e61eE8fB471b215e17cf1",
  "abi": [
    {
      "inputs": [],
      "stateMutability": "nonpayable",
      "type": "constructor"
    },
    {
      "inputs": [],
      "name": "BadAccessControlSingleton",
      "type": "error"
    },
    {
      "inputs": [
        {
          "internalType": "address",
          "name": "asset",
          "type": "address"
        }
      ],
      "name": "BadDecimals",
      "type": "error"
    },
    {
      "inputs": [],
      "name": "BadMainUnderlyingToken",
      "type": "error"
    },
    {
      "inputs": [
        {
          "internalType": "address",
          "name": "asset",
          "type": "address"
        }
      ],
      "name": "IsNotLP",
      "type": "error"
    },
    {
      "inputs": [],
      "name": "LPOracleNotReady",
      "type": "error"
    },
    {
      "inputs": [
        {
          "internalType": "int256",
          "name": "exchangeRate",
          "type": "int256"
        }
      ],
      "name": "MarketExchangeRateBelowOne",
      "type": "error"
    },
    {
      "inputs": [],
      "name": "MarketExpired",
      "type": "error"
    },
    {
      "inputs": [],
      "name": "MarketProportionMustNotEqualOne",
      "type": "error"
    },
    {
      "inputs": [
        {
          "internalType": "int256",
          "name": "rateScalar",
          "type": "int256"
        }
      ],
      "name": "MarketRateScalarBelowZero",
      "type": "error"
    },
    {
      "inputs": [
        {
          "internalType": "int256",
          "name": "totalPt",
          "type": "int256"
        },
        {
          "internalType": "int256",
          "name": "totalAsset",
          "type": "int256"
        }
      ],
      "name": "MarketZeroTotalPtOrTotalAsset",
      "type": "error"
    },
    {
      "inputs": [],
      "name": "OnlyAdminError",
      "type": "error"
    },
    {
      "inputs": [],
      "name": "OnlyAlerterError",
      "type": "error"
    },
    {
      "inputs": [],
      "name": "OnlyCDPAccessError",
      "type": "error"
    },
    {
      "inputs": [],
      "name": "OnlyDAOError",
      "type": "error"
    },
    {
      "inputs": [],
      "name": "OnlyDisablerAccessError",
      "type": "error"
    },
    {
      "inputs": [],
      "name": "OnlyLiquidationAccessError",
      "type": "error"
    },
    {
      "inputs": [],
      "name": "OnlyMintAccessError",
      "type": "error"
    },
    {
      "inputs": [],
      "name": "OnlyProxyActionsError",
      "type": "error"
    },
    {
      "inputs": [],
      "name": "OnlyRewardAccessError",
      "type": "error"
    },
    {
      "inputs": [],
      "name": "OnlyRoleError",
      "type": "error"
    },
    {
      "inputs": [],
      "name": "OnlyVaultAccessError",
      "type": "error"
    },
    {
      "inputs": [],
      "name": "OnlyVotingEscrowError",
      "type": "error"
    },
    {
      "inputs": [],
      "name": "OracleNotReady",
      "type": "error"
    },
    {
      "inputs": [
        {
          "internalType": "uint256",
          "name": "expected",
          "type": "uint256"
        },
        {
          "internalType": "uint256",
          "name": "received",
          "type": "uint256"
        }
      ],
      "name": "SlippageExceeded",
      "type": "error"
    },
    {
      "inputs": [],
      "name": "TokenOutNotFound",
      "type": "error"
    },
    {
      "inputs": [],
      "name": "ZeroRecipient",
      "type": "error"
    },
    {
      "anonymous": false,
      "inputs": [
        {
          "indexed": true,
          "internalType": "address",
          "name": "token",
          "type": "address"
        },
        {
          "indexed": false,
          "internalType": "uint256",
          "name": "amount",
          "type": "uint256"
        },
        {
          "indexed": false,
          "internalType": "address",
          "name": "receiver",
          "type": "address"
        }
      ],
      "name": "EmergencyWithdraw",
      "type": "event"
    },
    {
      "anonymous": false,
      "inputs": [
        {
          "indexed": false,
          "internalType": "uint8",
          "name": "version",
          "type": "uint8"
        }
      ],
      "name": "Initialized",
      "type": "event"
    },
    {
      "anonymous": false,
      "inputs": [
        {
          "indexed": false,
          "internalType": "address",
          "name": "lp",
          "type": "address"
        },
        {
          "indexed": false,
          "internalType": "address",
          "name": "market",
          "type": "address"
        },
        {
          "indexed": false,
          "internalType": "address",
          "name": "mainUnderlyingToken",
          "type": "address"
        }
      ],
      "name": "TokenRegistered",
      "type": "event"
    },
    {
      "anonymous": false,
      "inputs": [
        {
          "indexed": false,
          "internalType": "address",
          "name": "lp",
          "type": "address"
        },
        {
          "indexed": false,
          "internalType": "address",
          "name": "market",
          "type": "address"
        },
        {
          "indexed": false,
          "internalType": "address",
          "name": "mainUnderlyingToken",
          "type": "address"
        }
      ],
      "name": "TokenRegisteredRepeat",
      "type": "event"
    },
    {
      "anonymous": false,
      "inputs": [
        {
          "indexed": false,
          "internalType": "address",
          "name": "asset",
          "type": "address"
        },
        {
          "indexed": false,
          "internalType": "uint256",
          "name": "amount",
          "type": "uint256"
        }
      ],
      "name": "Withdraw",
      "type": "event"
    },
    {
      "inputs": [],
      "name": "ACCESS_CONTROL_SINGLETON",
      "outputs": [
        {
          "internalType": "contract ISuAccessControl",
          "name": "",
          "type": "address"
        }
      ],
      "stateMutability": "view",
      "type": "function"
    },
    {
      "inputs": [],
      "name": "ADMIN_ROLE",
      "outputs": [
        {
          "internalType": "bytes32",
          "name": "",
          "type": "bytes32"
        }
      ],
      "stateMutability": "view",
      "type": "function"
    },
    {
      "inputs": [],
      "name": "ALERTER_ROLE",
      "outputs": [
        {
          "internalType": "bytes32",
          "name": "",
          "type": "bytes32"
        }
      ],
      "stateMutability": "view",
      "type": "function"
    },
    {
      "inputs": [],
      "name": "CDP_ACCESS_ROLE",
      "outputs": [
        {
          "internalType": "bytes32",
          "name": "",
          "type": "bytes32"
        }
      ],
      "stateMutability": "view",
      "type": "function"
    },
    {
      "inputs": [],
      "name": "DAO_ROLE",
      "outputs": [
        {
          "internalType": "bytes32",
          "name": "",
          "type": "bytes32"
        }
      ],
      "stateMutability": "view",
      "type": "function"
    },
    {
      "inputs": [],
      "name": "DISABLER_ROLE",
      "outputs": [
        {
          "internalType": "bytes32",
          "name": "",
          "type": "bytes32"
        }
      ],
      "stateMutability": "view",
      "type": "function"
    },
    {
      "inputs": [],
      "name": "LIQUIDATION_ACCESS_ROLE",
      "outputs": [
        {
          "internalType": "bytes32",
          "name": "",
          "type": "bytes32"
        }
      ],
      "stateMutability": "view",
      "type": "function"
    },
    {
      "inputs": [],
      "name": "MINT_ACCESS_ROLE",
      "outputs": [
        {
          "internalType": "bytes32",
          "name": "",
          "type": "bytes32"
        }
      ],
      "stateMutability": "view",
      "type": "function"
    },
    {
      "inputs": [],
      "name": "ORACLE",
      "outputs": [
        {
          "internalType": "contract ISuOracleAggregator",
          "name": "",
          "type": "address"
        }
      ],
      "stateMutability": "view",
      "type": "function"
    },
    {
      "inputs": [],
      "name": "PENDLE_ORACLE",
      "outputs": [
        {
          "internalType": "contract IPPYLpOracle",
          "name": "",
          "type": "address"
        }
      ],
      "stateMutability": "view",
      "type": "function"
    },
    {
      "inputs": [],
      "name": "PROXY_ACTIONS_ROLE",
      "outputs": [
        {
          "internalType": "bytes32",
          "name": "",
          "type": "bytes32"
        }
      ],
      "stateMutability": "view",
      "type": "function"
    },
    {
      "inputs": [],
      "name": "REWARD_ACCESS_ROLE",
      "outputs": [
        {
          "internalType": "bytes32",
          "name": "",
          "type": "bytes32"
        }
      ],
      "stateMutability": "view",
      "type": "function"
    },
    {
      "inputs": [],
      "name": "TWAP_WINDOW",
      "outputs": [
        {
          "internalType": "uint32",
          "name": "",
          "type": "uint32"
        }
      ],
      "stateMutability": "view",
      "type": "function"
    },
    {
      "inputs": [],
      "name": "VOTING_ESCROW_ROLE",
      "outputs": [
        {
          "internalType": "bytes32",
          "name": "",
          "type": "bytes32"
        }
      ],
      "stateMutability": "view",
      "type": "function"
    },
    {
      "inputs": [
        {
          "internalType": "address[]",
          "name": "tokens",
          "type": "address[]"
        },
        {
          "internalType": "address",
          "name": "receiver",
          "type": "address"
        }
      ],
      "name": "emergencyWithdraw",
      "outputs": [],
      "stateMutability": "nonpayable",
      "type": "function"
    },
    {
      "inputs": [
        {
          "internalType": "address",
          "name": "asset",
          "type": "address"
        }
      ],
      "name": "getFiatPrice1e18",
      "outputs": [
        {
          "internalType": "uint256",
          "name": "",
          "type": "uint256"
        }
      ],
      "stateMutability": "view",
      "type": "function"
    },
    {
      "inputs": [
        {
          "internalType": "address",
          "name": "market",
          "type": "address"
        },
        {
          "internalType": "uint16",
          "name": "cardinality",
          "type": "uint16"
        }
      ],
      "name": "increaseObservationCardinality",
      "outputs": [],
      "stateMutability": "nonpayable",
      "type": "function"
    },
    {
      "inputs": [
        {
          "internalType": "address",
          "name": "_authControl",
          "type": "address"
        },
        {
          "internalType": "address",
          "name": "_oracle",
          "type": "address"
        },
        {
          "internalType": "address",
          "name": "_pendleOracle",
          "type": "address"
        }
      ],
      "name": "initialize",
      "outputs": [],
      "stateMutability": "nonpayable",
      "type": "function"
    },
    {
      "inputs": [
        {
          "internalType": "address",
          "name": "asset",
          "type": "address"
        }
      ],
      "name": "isAdapterLP",
      "outputs": [
        {
          "internalType": "bool",
          "name": "",
          "type": "bool"
        }
      ],
      "stateMutability": "view",
      "type": "function"
    },
    {
      "inputs": [
        {
          "internalType": "address",
          "name": "",
          "type": "address"
        }
      ],
      "name": "lps",
      "outputs": [
        {
          "internalType": "contract IPMarket",
          "name": "market",
          "type": "address"
        },
        {
          "internalType": "contract IStandardizedYield",
          "name": "SY",
          "type": "address"
        },
        {
          "internalType": "address",
          "name": "mainUnderlyingToken",
          "type": "address"
        }
      ],
      "stateMutability": "view",
      "type": "function"
    },
    {
      "inputs": [
        {
          "internalType": "address",
          "name": "lp",
          "type": "address"
        },
        {
          "internalType": "contract IPMarket",
          "name": "market",
          "type": "address"
        },
        {
          "internalType": "address",
          "name": "mainUnderlyingToken",
          "type": "address"
        }
      ],
      "name": "registerLP",
      "outputs": [],
      "stateMutability": "nonpayable",
      "type": "function"
    },
    {
      "inputs": [
        {
          "internalType": "uint32",
          "name": "_twapWindow",
          "type": "uint32"
        }
      ],
      "name": "setTwapWindow",
      "outputs": [],
      "stateMutability": "nonpayable",
      "type": "function"
    },
    {
      "inputs": [
        {
          "internalType": "bytes4",
          "name": "interfaceId",
          "type": "bytes4"
        }
      ],
      "name": "supportsInterface",
      "outputs": [
        {
          "internalType": "bool",
          "name": "",
          "type": "bool"
        }
      ],
      "stateMutability": "view",
      "type": "function"
    },
    {
      "inputs": [
        {
          "internalType": "address",
          "name": "asset",
          "type": "address"
        },
        {
          "internalType": "uint256",
          "name": "amount",
          "type": "uint256"
        },
        {
          "internalType": "uint256",
          "name": "maxSlippageBps",
          "type": "uint256"
        }
      ],
      "name": "withdraw",
      "outputs": [
        {
          "components": [
            {
              "internalType": "address",
              "name": "token",
              "type": "address"
            },
            {
              "internalType": "uint256",
              "name": "amount",
              "type": "uint256"
            }
          ],
          "internalType": "struct WithdrawResult[]",
          "name": "results",
          "type": "tuple[]"
        }
      ],
      "stateMutability": "nonpayable",
      "type": "function"
    }
  ],
  "numDeployments": 1,
  "solcInputHash": "8c060bc8c39a7272c2849a174b3b4791",
  "bytecode": "0x608080604052346100c2576000549060ff8260081c16610070575060ff80821603610035575b6040516131799081620000c88239f35b60ff90811916176000557f7f26b83ff96e1f2b6a682f133852f6798a09c465da95921460cefb3847402498602060405160ff8152a138610025565b62461bcd60e51b815260206004820152602760248201527f496e697469616c697a61626c653a20636f6e747261637420697320696e697469604482015266616c697a696e6760c81b6064820152608490fd5b600080fdfe608080604052600436101561001357600080fd5b600090813560e01c90816301ffc9a714611ada5750806303ee9f2214611aaf57806338013f0214611a86578063438280dd14611a4b5780635136211714611a1d5780635f5535451461194457806371d0fb411461190957806375b238fc146118ed57806383839a501461185b5780638e5313e0146118205780639c977cf0146117f7578063b38234f3146117bc578063b5c5f67214610ef4578063b9ac2b3814610d69578063bd5f5be614610d2e578063c0c53b8b14610a8b578063c7c7ab6d14610491578063d0e8fa8214610456578063d12e7332146103fe578063d1dff44f14610203578063d2351cee146101c8578063dc97e84e1461018d578063e2c1d1d1146101665763e9c265181461012957600080fd5b3461016357806003193601126101635760206040517f3b5d4cc60d3ec3516ee8ae083bd60934f6eb2a6c54b1229985c41bfb092b26038152f35b80fd5b5034610163578060031936011261016357602063ffffffff60355460a01c16604051908152f35b503461016357806003193601126101635760206040517f9a9aef7c1247d5fc769b0185c052913e39673da29a880317dfd20ebf86f26a498152f35b503461016357806003193601126101635760206040517fb0fdd1623e42dbffda4acd8bd643e1cb69f00f0e83abeaa8150ee42cf0fd105e8152f35b5034610163576040366003190112610163576004356001600160401b038082116103fa57366023830112156103fa5781600401359081116103fa57602491600590368484841b830101116103f657610259611ba1565b60018060a01b039283875460101c16926040518094632474521560e21b8252896004830152338983015281604460209788935afa9081156103eb5789916103b2575b50156103a05784831691821561038e57885b8781106102b8578980f35b8881831b840101359087821680920361038a576040516370a0823160e01b81523060048201529187838c81845afa801561037f578c9061034b575b61030593508061030a575b5050612e8d565b6102ad565b6040816103397faaeda929aa102e867049528ec7cd2499e3a2f8846e736ae7935f234dfbf500d9938b86612eb7565b8151908152888b820152a238806102fe565b508783813d8311610378575b6103618183611c03565b810103126103735761030592516102f3565b600080fd5b503d610357565b6040513d8e823e3d90fd5b8a80fd5b60405163d27b444360e01b8152600490fd5b604051631886ea7d60e11b8152600490fd5b90508481813d83116103e4575b6103c98183611c03565b810103126103e0576103da90611c26565b3861029b565b8880fd5b503d6103bf565b6040513d8b823e3d90fd5b8480fd5b8280fd5b5034610163576020366003190112610163576060906001600160a01b039060409082610428611b8b565b1681526033602052208181541691600381600184015416920154169060405192835260208301526040820152f35b503461016357806003193601126101635760206040517f76d0567582f23e1e9d7a13eeba60f9aea9d69b8da87ca27a8bf3698b35c653db8152f35b5034610163576060366003190112610163576104ab611b8b565b602435906001600160a01b03821682036103fa576104c7611bb7565b916044602060018060a01b03865460101c1660405192838092632474521560e21b82528960048301523360248301525afa908115610a46578591610a51575b50156103a05760405163313ce56760e01b81526020816004816001600160a01b0387165afa908115610a46578591610a07575b5060ff60129116036109e6576001600160a01b0382811685526033602052604080862060030154603554915162439f4b60e91b8152848416600482015260a083901c63ffffffff166024820152908316151592909160609183916044918391165afa8015610825578691879161098f575b508115610986575b50610974576001600160a01b0383811686526033602052604080872080546001600160a01b031916928516928317905551630b2339af60e21b815290606090829060049082905afa908115610825578691610943575b506001600160a01b0384811687526033602052604080882060010180546001600160a01b031916939092169283179091555163071bc3c960e01b8152908690829060049082905afa908115610825578691610888575b506001600160a01b03841686526033602052604086208151916002909101906001600160401b03831161087457600160401b831161087457815483835580841061084d575b5060200190875260208720875b83811061083057505050506001600160a01b03838116865260336020526040808720600101549051630a40bee560e41b81529160609183916004918391165afa9081156108255786916107cd575b506001600160a01b0385811691168190036107bb576001600160a01b038416865260336020526040862060030180546001600160a01b0319169091179055156107815761077b7f63158a2ba74dcc8fbe165d0f7bdd9908d7627a717c167d58c0c8f809696572529360405193849360018060a01b03169084611cd6565b0390a180f35b61077b7f8c768b5da89e637b23caac626ccd760ef89b9e8eaa2f45bbf8c9d68e231dabef9360405193849360018060a01b03169084611cd6565b60405163ad2da8fd60e01b8152600490fd5b90506060813d60601161081d575b816107e860609383611c03565b810103126108195760028151101561081957610812604061080b60208401611c99565b9201611c33565b50386106fe565b8580fd5b3d91506107db565b6040513d88823e3d90fd5b82516001600160a01b0316818301556020909201916001016106b0565b82895260208920908482015b81830181106108695750506106a3565b8a8155600101610859565b634e487b7160e01b88526041600452602488fd5b90503d8087833e6108998183611c03565b810160208282031261093f578151906001600160401b03821161093b5780601f83850101121561093b5781830151916108d183611c82565b936108df6040519586611c03565b838552602085019260208560051b8484010101116109375780820160200192915b60208560051b8284010101841061091c5750505050503861065e565b602080809461092a87611c99565b8152019401939250610900565b8980fd5b8780fd5b8680fd5b610965915060603d60601161096d575b61095d8183611c03565b810190611c41565b505038610608565b503d610953565b60405163370aafe360e11b8152600490fd5b905015386105b2565b9150506060813d6060116109de575b816109ab60609383611c03565b81010312610819576109bc81611c26565b90602081015161ffff81160361093f5760406109d89101611c26565b386105aa565b3d915061099e565b60405163144a426560e31b81526001600160a01b0383166004820152602490fd5b90506020813d602011610a3e575b81610a2260209383611c03565b810103126103f65760ff610a37601292611c33565b9150610539565b3d9150610a15565b6040513d87823e3d90fd5b90506020813d602011610a83575b81610a6c60209383611c03565b810103126103f657610a7d90611c26565b38610506565b3d9150610a5f565b503461016357606036600319011261016357610aa5611b8b565b610aad611ba1565b610ab5611bb7565b83549060ff8260081c161591828093610d21575b8015610d0a575b15610cae5760ff198116600117865582610c9d575b5084549260ff8460081c1615610c445762010000600160b01b03601086901b1662010000600160b01b0319851681178755946001600160a01b03919082168015908115610bc2575b50610bb057603480546001600160a01b031916918316919091179055603580546001600160c01b0319169290911691909117604b60a41b179055610b6f578280f35b610100600160b01b031916178155604051600181527f7f26b83ff96e1f2b6a682f133852f6798a09c465da95921460cefb384740249890602090a138808280f35b6040516384d942fd60e01b8152600490fd5b6040516301ffc9a760e01b8152637965db0b60e01b60048201529150602090829060249082905afa908115610c39578891610c00575b501538610b2d565b90506020813d8211610c31575b81610c1a60209383611c03565b8101031261093b57610c2b90611c26565b38610bf8565b3d9150610c0d565b6040513d8a823e3d90fd5b60405162461bcd60e51b815260206004820152602b60248201527f496e697469616c697a61626c653a20636f6e7472616374206973206e6f74206960448201526a6e697469616c697a696e6760a81b6064820152608490fd5b61ffff191661010117855538610ae5565b60405162461bcd60e51b815260206004820152602e60248201527f496e697469616c697a61626c653a20636f6e747261637420697320616c72656160448201526d191e481a5b9a5d1a585b1a5e995960921b6064820152608490fd5b50303b158015610ad05750600160ff821614610ad0565b50600160ff821610610ac9565b503461016357806003193601126101635760206040517f4f14c8366fa999817edc9f29824eb88a00cc31225e2156f399da4bc91049eb108152f35b5034610163576020908160031936011261016357610d85611b8b565b90610d8f82611cf9565b15610ed35760018060a01b0380921660005260338352604060002060405190610db782611bcd565b8381541682528484600181818501541683860152600284016040518092858354928381520192600052856000209160005b818110610eba5750505050610e2c939482610e0885946003940382611c03565b60408801520154169360608101948552511663ffffffff60355460a01c1690611d19565b938060345416925116602460405180948193631735856760e31b835260048301525afa918215610eae5791610e79575b50670de0b6b3a764000091610e7091611cad565b04604051908152f35b90508281813d8311610ea7575b610e908183611c03565b810103126103735751670de0b6b3a7640000610e5c565b503d610e86565b6040513d6000823e3d90fd5b835490961684528b968b96940193928201928201610de8565b604051631e489be560e01b81526001600160a01b0383166004820152602490fd5b503461016357606036600319011261016357610f0e611b8b565b610f1781611cf9565b1561179a576040516323b872dd60e01b60208201526001600160a01b03821690610f6690610f6081610f526024803590309033908501612ef3565b03601f198101835282611c03565b82612f15565b82526033602052604082209060405191610f7f83611bcd565b80546001600160a01b039081168452600182015416602080850191909152604051600283018054808352908752828720919392849190820190885b818110611778575050610fcf92500383611c03565b816040850152600360018060a01b03910154166060840152519160405192610ff684611be8565b60018452845b6020811061175557508490819081805b828110611575575050506001600160a01b03821615611563579151604051630b2339af60e21b81528693916001600160a01b0316606082600481845afa8015610a465785928690879261153c575b5060405163a9059cbb60e01b81526020818061107c6024358860048401612e9c565b03818b885af18015610c39576114fd575b50604051630bc4ed8360e21b815290602090829060049082906001600160a01b03165afa90811561136d5787916114c3575b50156113785760408051633dae446f60e21b8152926001600160a01b03858116931691908490818a816110f9602435888a60048501612ef3565b03925af190811561136d5787938492611337575b50602460209293604051958693849263bcb7ea5d60e01b845260048401525af19182156108255786926112fd575b5061114b6020939260a492613136565b60405163769f8e5d60e01b815230600482015260248101919091526001600160a01b0386811660448301526064820188905260016084830152909687938492165af19283156108255786936112c9575b5061271060443581038181116112b5576111b59083611cad565b0483106112975750849261122b7f884edad9ce6fa2440d8a54cc123490eb96d2768479d49ff9c7366125a94243649361123b936040516111f481611be8565b6001600160a01b03821681526020810183905261121089612e80565b5261121a88612e80565b5033906001600160a01b0316612eb7565b6040519182916024359083612e9c565b0390a1604051918291602083016020845282518091526020604085019301915b818110611269575050500390f35b825180516001600160a01b03168552602090810151818601528695506040909401939092019160010161125b565b60449083604051916371c4efed60e01b835260048301526024820152fd5b634e487b7160e01b88526011600452602488fd5b9092506020813d6020116112f5575b816112e560209383611c03565b810103126103735751913861119b565b3d91506112d8565b92915094506020823d60201161132f575b8161131b60209383611c03565b81010312610373579051879461114b61113b565b3d915061130e565b6020925061135e60249160403d604011611366575b6113568183611c03565b810190613120565b50925061110d565b503d61134c565b6040513d89823e3d90fd5b5060408051633dae446f60e21b815291955090919082806113a9602435896001600160a01b03871660048501612ef3565b03818b895af1918215610c39578890899361149f575b50604051898152926001600160401b036020850190811190851117611489576020840160408181526329910b1160e01b82526001600160a01b03851660248701526044860192909252606060648601528a97601f198661142260848201826130e0565b0301908960208801915af19283156108255760209360a49261144b928992611450575b50613136565b61114b565b61147a91925060403d604011611482575b87816114708293838601611c03565b8301019101613120565b509038611445565b503d611461565b634e487b7160e01b600052604160045260246000fd5b90506114bb91925060403d604011611366576113568183611c03565b9190386113bf565b90506020813d6020116114f5575b816114de60209383611c03565b8101031261093f576114ef90611c26565b386110bf565b3d91506114d1565b6020813d602011611534575b8161151660209383611c03565b8101031261093b5760049161152c602092611c26565b50915061108d565b3d9150611509565b91505061155991925060603d60601161096d5761095d8183611c03565b909291923861105a565b604051631b250a0960e21b8152600490fd5b6040860151805182101561173f57600582901b0160209081015160345460405163a780f13360e01b81526001600160a01b0392831660048201819052929091169281602481865afa90811561037f578c91611701575b506115e1575b50506115dc90612e8d565b61100c565b60208881015160405163cbe52ae360e01b8152938d92909185906001600160a01b031681806116166024358960048401612e9c565b03915afa9384156116f65782946116be575b50602090602460405180948193632a5001c960e01b83528760048401525af190811561037f578c9161168a575b50611669670de0b6b3a76400009184611cad565b04848111611678575b506115d1565b90965090945091506115dc3880611672565b90506020813d6020116116b6575b816116a560209383611c03565b810103126103735751611669611655565b3d9150611698565b915092506020813d6020116116ee575b816116db60209383611c03565b810103126103735751918b906020611628565b3d91506116ce565b6040513d84823e3d90fd5b90506020813d602011611737575b8161171c60209383611c03565b810103126117335761172d90611c26565b386115cb565b8b80fd5b3d915061170f565b634e487b7160e01b600052603260045260246000fd5b60209060405161176481611be8565b878152878382015282828801015201610ffc565b84546001600160a01b0316835260019485019487945060209093019201610fba565b604051631e489be560e01b81526001600160a01b039091166004820152602490fd5b503461016357806003193601126101635760206040517fd83f5343da19b478b15a140c301a868be9e02603958f38fbd822b9d5c0a289168152f35b50346101635780600319360112610163576035546040516001600160a01b039091168152602090f35b503461016357806003193601126101635760206040517fe453bacb314e78dcd5192e6b1a2b1f0e7c76e92f6b7e429a6a90f04e39db3b768152f35b50346101635760403660031901126101635780611876611b8b565b6024359061ffff82168092036118e9576001600160a01b0316803b156118e957602483926040519485938492631bea2f1d60e11b845260048401525af180156116f6576118c1575080f35b6001600160401b0381116118d55760405280f35b634e487b7160e01b82526041600452602482fd5b5050fd5b5034610163578060031936011261016357602090604051908152f35b503461016357806003193601126101635760206040517f880a91047114272656e533301261260c75e4d11543ac7303d6fe4204579ec7278152f35b50346101635760203660031901126101635760043563ffffffff81168103611a19578154604051632474521560e21b815260048101849052336024820152906020908290604490829060101c6001600160a01b03165afa908115611a0e5783916119d5575b50156103a0576035805463ffffffff60a01b191660a09290921b63ffffffff60a01b1691909117905580f35b90506020813d8211611a06575b816119ef60209383611c03565b810103126103fa57611a0090611c26565b386119a9565b3d91506119e2565b6040513d85823e3d90fd5b5080fd5b5034610163576020366003190112610163576020611a41611a3c611b8b565b611cf9565b6040519015158152f35b503461016357806003193601126101635760206040517f39f61ca2a1a28fee144218173ec637b649a353e4026b2738c673800e5bf1437b8152f35b50346101635780600319360112610163576034546040516001600160a01b039091168152602090f35b50346101635780600319360112610163575460405160109190911c6001600160a01b03168152602090f35b82346101635760209182600319360112611a195760043563ffffffff60e01b81168091036103fa5782546301ffc9a760e01b8352600483019190915283908290602490829060101c6001600160a01b03165afa918215611b7f578092611b47575b50506040519015158152f35b9091508282813d8311611b78575b611b5f8183611c03565b810103126101635750611b7190611c26565b8280611b3b565b503d611b55565b604051903d90823e3d90fd5b600435906001600160a01b038216820361037357565b602435906001600160a01b038216820361037357565b604435906001600160a01b038216820361037357565b608081019081106001600160401b0382111761148957604052565b604081019081106001600160401b0382111761148957604052565b601f909101601f19168101906001600160401b0382119082101761148957604052565b5190811515820361037357565b519060ff8216820361037357565b908160609103126103735780516001600160a01b03929083811681036103735792602083015181811681036103735760409093015190811681036103735790565b6001600160401b0381116114895760051b60200190565b51906001600160a01b038216820361037357565b81810292918115918404141715611cc057565b634e487b7160e01b600052601160045260246000fd5b6001600160a01b0391821681529181166020830152909116604082015260600190565b6001600160a01b0316600090815260336020526040902060020154151590565b604051630b2339af60e21b815292916001600160a01b039160006060866004818786165afa80156125d457849596829083926125af575b50602090600460405180998193633ba0b9a960e01b8352165afa9586156116f657829661257b575b50604051636951ac2760e11b815291908516602083600481845afa9283156116f6578293612547575b5060405163516399df60e01b815290602082600481845afa918215611a0e57839261250b575b508161248e575b50156124775750925b60405163794052f360e01b8152600060048201529261012080856024818787165afa948515610eae576000956123bb575b505060a0840151600092904210611e8d575050505080611e496040611e3f611e4e9451611e3960208601518861268d565b906125fa565b925b01519161264d565b612751565b916000831261037357818110611e6357505090565b611e6d9192611cad565b8115611e77570490565b634e487b7160e01b600052601260045260246000fd5b60405193611e9a85611bcd565b8385528360208601528360408601528360608601524260a087015111156123a957611ec94260a0880151612616565b60808701516301e133808102908082056301e133801490151715612381576001600160ff1b03821161081957811561239557600160ff1b811460001983141661238157858282051315612367578190058652611f2960208801518961268d565b8060208801528751908115801561235f575b6123415750508651610100880151602088015191611f5b848a5193612623565b92670de0b6b3a764000084126123285790611e49611f7c611f8293836125fa565b9161264d565b670de0b6b3a7640000811461231657878112670de0b6b3a764000082810312811690670de0b6b3a764000083810313901516176112b55761200792611ff26301e133809593611e49611fed611fe886611e49611ff898670de0b6b3a7640000039161264d565b612a46565b61264d565b906125e1565b604089015260c0890151611cad565b046001600160ff1b0381116103f65761201f9061275b565b60608601526040519182606081011060018060401b036060850111176123025791849160608201604052600282526020820193604036863761206083612e80565b9463ffffffff80971680965260405196879463883bdbfd60e01b86526024860190602060048801525180915260448601929187905b8282106122e15750505050908380920392165afa918215611a0e57839261223a575b508151600110156122265760408201516001600160d81b03929083169083906120df90612e80565b51169003908282116122125780156121fe578261211a600293612128969561212d9461210f4260a08d0151612616565b948593160416612623565b948591610100890151612623565b6125fa565b059061215a670de0b6b3a7640000612154865161214e6040890151886125e1565b9061266a565b0561275b565b61218a83611e49612184670de0b6b3a764000061217b60208b01518761266a565b058a51906125e1565b9361264d565b9182670de0b6b3a7640000019283126001166121ea575093611e39611e4994611e49611fed6121dc604097611ff260206121cf6121e49a611e4e9f9e611e499061264d565b98015191611e498961264d565b9489516125fa565b92611e41565b634e487b7160e01b81526011600452602490fd5b634e487b7160e01b84526012600452602484fd5b634e487b7160e01b84526011600452602484fd5b634e487b7160e01b83526032600452602483fd5b9091503d8084833e61224c8183611c03565b8101906020818303126122dd578051906001600160401b0382116103f657019080601f830112156122dd5781519061228382611c82565b926122916040519485611c03565b82845260208085019360051b82010191821161081957602001915b8183106122bd5750505090386120b7565b82516001600160d81b038116810361093f578152602092830192016122ac565b8380fd5b8351811685528b98508a975060209485019490930192600190910190612095565b634e487b7160e01b85526041600452602485fd5b60405163a9c8b14d60e01b8152600490fd5b60405163329e322960e21b815260048101859052602490fd5b604492506040519163b1c4aefb60e01b835260048301526024820152fd5b508015611f3b565b604051630e520c3b60e11b81529190056004820152602490fd5b634e487b7160e01b86526011600452602486fd5b634e487b7160e01b86526012600452602486fd5b60405163b2094b5960e01b8152600490fd5b9091948282813d8311612470575b6123d38183611c03565b8101031261016357604051928301906001600160401b0382118483101761245c575060405280518252602081015160208301526040810151604083015261241c60608201611c99565b60608301526080810151608083015260a081015160a083015260c081015160c083015260e081015160e08301526101008091015190820152923880611e08565b634e487b7160e01b81526041600452602490fd5b503d6123c9565b50808511156124895750835b92611dd7565b612483565b6040516360e0a9e160e01b81529150602090829060049082905afa9081156116f65782916124c9575b506001600160801b0316431438611dce565b90506020813d602011612503575b816124e460209383611c03565b81010312611a1957516001600160801b0381168103611a1957386124b7565b3d91506124d7565b9091506020813d60201161253f575b8161252760209383611c03565b810103126103fa5761253890611c26565b9038611dc7565b3d915061251a565b9092506020813d602011612573575b8161256360209383611c03565b81010312611a1957519138611da1565b3d9150612556565b9095506020813d6020116125a7575b8161259760209383611c03565b81010312611a1957519484611d78565b3d915061258a565b602092506125cc915060603d60601161096d5761095d8183611c03565b929050611d50565b50604051903d90823e3d90fd5b81810392916000138015828513169184121617611cc057565b91909160008382019384129112908015821691151617611cc057565b91908203918211611cc057565b6301e133809161263291611cad565b046001600160ff1b0381116103735761264a9061275b565b90565b90670de0b6b3a764000091828102928184051490151715611cc057565b818102929160008212600160ff1b821416611cc0578184051490151715611cc057565b60008212156126f157600019915b6000808213156126d15750670de0b6b3a7640000916126b991611cad565b046001600160ff1b0381116103735761264a9161266a565b600160ff1b82146121ea57916126b991670de0b6b3a76400009303611cad565b60019161269b565b1561270057565b60405162461bcd60e51b815260206004820152601060248201526f125b9d985b1a5908195e1c1bdb995b9d60821b6044820152606490fd5b8015611e77576a0c097ce7bc90715b34b9f160241b0590565b8115611e77570590565b680238fd42c5cf03ffff1981121580612a33575b612778906126f9565b60008112612a1e576064906806f05b59d3b200000081126129d15772195e54c5dd42177f53a27172fa9ec63026282760241b9068056bc75e2d631000009083906806f05b59d3b1ffffff19015b02819068ad78ebc5ac620000008112156129ae575b806856bc75e2d6310000008492121561298a575b682b5e3af16b18800000811215612968575b6815af1d78b58c400000811215612946575b680ad78ebc5ac6200000811215612925575b81811215612904575b6802b5e3af16b18800008112156128e3575b68015af1d78b58c400008112156128c2575b60028282800205056003838383020505600484848302050560058585830205056006868683020505600787878302050590600888888402050592600989898602050594600a8a8a8802050596600b8b8b8a02050598600c8c8c8c0205059a0101010101010101010101010205020590565b6806f5f1775788937937829168015af1d78b58c3ffff190193020591612851565b6808f00f760a4b2db55d82916802b5e3af16b187ffff19019302059161283f565b680ebc5fb41746121110829168056bc75e2d630fffff19019302059161282d565b68280e60114edb805d038291680ad78ebc5ac61fffff190193020591612824565b690127fa27722cc06cc5e282916815af1d78b58c3fffff190193020591612812565b693f1fce3da636ea5cf8508291682b5e3af16b187fffff190193020591612800565b6b02df0ab5a80a22c61ab5a70082916856bc75e2d630ffffff1901930205916127ee565b6e01855144814a7ff805980ff0084000915068ad78ebc5ac61ffffff19016127da565b6803782dace9d90000008112612a0b576803782dace9d8ffffff190168056bc75e2d63100000826b1425982cf597cd205cef7380926127c5565b68056bc75e2d63100000826001926127c5565b612a2a9060000361275b565b61264a90612738565b5068070c1cc73b00c8000081131561276f565b6000811315612b185780670c7d713b49da00001280612b07575b15612afe57670de0b6b3a7640000906a0c097ce7bc90715b34b9f160241b90612aa2908302828101906ec097ce7bc90715b34b9f0fffffffff19018302612751565b9080828002059181838202058284820205838582020591848684020593858786020595808888020597880205600f900596600d900595600b900594600990059360079005926005900591600390050101010101010160011b0590565b61264a90612b4d565b50670f43fc2c04ee00008112612a60565b60405162461bcd60e51b815260206004820152600d60248201526c6f7574206f6620626f756e647360981b6044820152606490fd5b670de0b6b3a76400008112612e69576064906000775803bcc5cb9634ba4cfb2213f784019318ed4dcb6017880f60361b821215612e40575b6f8bcc0026baae9e45e470190267a230cf60191b821215612e1f575b8202908202816e01855144814a7ff805980ff00840008281811215612df8575b5050506b02df0ab5a80a22c61ab5a70080821215612dd8575b50693f1fce3da636ea5cf85080821215612db8575b50690127fa27722cc06cc5e280821215612d98575b5068280e60114edb805d0380821215612d78575b50680ebc5fb4174612111080821215612d61575b506808f00f760a4b2db55d80821215612d41575b506806f5f177578893793780821215612d21575b506806248f33704b28660380821215612d02575b506805c548670b9510e7ac80821215612ce3575b50612ca268056bc75e2d6310000091828082019168056bc75e2d630fffff190102612751565b9080828002059181838202058284820205916003600560076009600b888a89020598808b8b02059a8b0205059805960594059205010101010160011b010590565b68056bc75e2d631000006756bc75e2d631000092020591019038612c7c565b68056bc75e2d6310000067ad78ebc5ac62000092020591019038612c68565b68056bc75e2d6310000068015af1d78b58c4000092020591019038612c54565b68056bc75e2d631000006802b5e3af16b188000092020591019038612c40565b68056bc75e2d631000008092020591019038612c2c565b68056bc75e2d63100000680ad78ebc5ac620000092020591019038612c18565b68056bc75e2d631000006815af1d78b58c40000092020591019038612c04565b68056bc75e2d63100000682b5e3af16b1880000092020591019038612bef565b68056bc75e2d631000006856bc75e2d63100000092020591019038612bda565b68056bc75e2d631000009192945068ad78ebc5ac6200000093500205910190388080612bc1565b6b1425982cf597cd205cef7380909105906803782dace9d900000001612ba1565b5072195e54c5dd42177f53a27172fa9ec63026282760241b90056806f05b59d3b2000000612b85565b612e75612e7a91612738565b612b4d565b60000390565b80511561173f5760200190565b6000198114611cc05760010190565b6001600160a01b039091168152602081019190915260400190565b612eec612ef19392612ede60405194859263a9059cbb60e01b602085015260248401612e9c565b03601f198101845283611c03565b612f15565b565b6001600160a01b03918216815291166020820152604081019190915260600190565b60018060a01b031690604051612f2a81611be8565b6020928382527f5361666545524332303a206c6f772d6c6576656c2063616c6c206661696c6564848301526000808486829651910182855af13d15613039573d916001600160401b0383116123025790612fa493929160405192612f9788601f19601f8401160185611c03565b83523d868885013e613043565b90815190838215928315613017575b505050905015612fc05750565b6084906040519062461bcd60e51b82526004820152602a60248201527f5361666545524332303a204552433230206f7065726174696f6e20646964206e6044820152691bdd081cdd58d8d9595960b21b6064820152fd5b8480929394500103126101635750816130309101611c26565b80388381612fb3565b90612fa492916060915b919290156130a55750815115613057575090565b3b156130605790565b60405162461bcd60e51b815260206004820152601d60248201527f416464726573733a2063616c6c20746f206e6f6e2d636f6e74726163740000006044820152606490fd5b8251909150156130b85750805190602001fd5b60405162461bcd60e51b8152602060048201529081906130dc9060248301906130e0565b0390fd5b919082519283825260005b84811061310c575050826000602080949584010152601f8019910116010190565b6020818301810151848301820152016130eb565b9190826040910312610373576020825192015190565b91908201809211611cc05756fea2646970667358221220c0376299e17c0be542613e7993a6def35efa22d2f5baf851a8ad59c8373ad42a64736f6c63430008110033",
  "devdoc": {
    "details": "See ILPAdapter interface for full details.",
    "kind": "dev",
    "methods": {
      "constructor": {
        "custom:oz-upgrades-unsafe-allow": "constructor"
      },
      "emergencyWithdraw(address[],address)": {
        "details": "This function is restricted to the admin and allows for emergency withdrawal of tokens.",
        "params": {
          "receiver": "Address of the receiver to receive the tokens.",
          "tokens": "List of tokens to withdraw."
        }
      },
      "increaseObservationCardinality(address,uint16)": {
        "details": "This sets the target cardinality that the oracle will grow to as new observations are written. The actual cardinality will increase gradually with each new observation until it reaches this target. This must be called before registering an LP token to ensure enough price observations for TWAP calculations. After increaseObservationCardinality call you must wai at least 20 min to allow the oracle to accumulate enough price observations For 1200 seconds (20 min) cardinality = 1200 / blockTime. Also we can * 1.2 to have buffer for safety. For mainnet (12 seconds for block) cardinality = 120, for Arbitrum (0.3 sec for block) = 4800.",
        "params": {
          "cardinality": "The target number of observations the oracle should maintain",
          "market": "The address of the Pendle market whose oracle cardinality should be increased"
        }
      },
      "isAdapterLP(address)": {
        "params": {
          "asset": "- address of LP token to check*"
        }
      },
      "registerLP(address,address,address)": {
        "details": "In case when oracle is not ready, you should call market.increaseObservationsCardinalityNext(t)      and wait 20 minutes to register LP      [IMPORTANT] - Before register admin should check that SY contract don't have callbacks.      It should be very rare to have a SY with a callback function, but need to pay attention on it.",
        "params": {
          "lp": "address of LP token",
          "market": "market for LP token*"
        }
      },
      "setTwapWindow(uint32)": {
        "params": {
          "_twapWindow": "New TWAP window in seconds"
        }
      },
      "supportsInterface(bytes4)": {
        "details": "Returns true if this contract implements the interface defined by `interfaceId`. See the corresponding https://eips.ethereum.org/EIPS/eip-165#how-interfaces-are-identified[EIP section] to learn more about how these ids are created. This function call must use less than 30 000 gas."
      }
    },
    "title": "PendleLPAdapter",
    "version": 1
  },
  "userdoc": {
    "kind": "user",
    "methods": {
      "emergencyWithdraw(address[],address)": {
        "notice": "Withdraw tokens from the adapter in case of emergency."
      },
      "getFiatPrice1e18(address)": {
        "notice": "Idea of this implementation was in Pendle example*"
      },
      "increaseObservationCardinality(address,uint16)": {
        "notice": "Helper function to increases the oracle observation cardinality for a Pendle market"
      },
      "isAdapterLP(address)": {
        "notice": "Returns if asset ig Balancer LP token, registered in our adapter"
      },
      "registerLP(address,address,address)": {
        "notice": "Register the given LP token address and set the LP info"
      },
      "setTwapWindow(uint32)": {
        "notice": "Set the TWAP window for price calculation"
      },
      "withdraw(address,uint256,uint256)": {
        "notice": "Pendle unwrap LP only to 1 token, but our ILPAdapter is more general, so we need to return here the array of WithdrawResult.*"
      }
    },
    "notice": "Adapter for Pendle LP token.",
    "version": 1
  },
  "storageLayout": {
    "storage": [
      {
        "astId": 1226,
        "contract": "contracts/exchange/contracts/periphery/contracts/adapters/Pendle/PendleLPAdapter.sol:PendleLPAdapter",
        "label": "_initialized",
        "offset": 0,
        "slot": "0",
        "type": "t_uint8"
      },
      {
        "astId": 1229,
        "contract": "contracts/exchange/contracts/periphery/contracts/adapters/Pendle/PendleLPAdapter.sol:PendleLPAdapter",
        "label": "_initializing",
        "offset": 1,
        "slot": "0",
        "type": "t_bool"
      },
      {
        "astId": 24747,
        "contract": "contracts/exchange/contracts/periphery/contracts/adapters/Pendle/PendleLPAdapter.sol:PendleLPAdapter",
        "label": "ACCESS_CONTROL_SINGLETON",
        "offset": 2,
        "slot": "0",
        "type": "t_contract(ISuAccessControl)31989"
      },
      {
        "astId": 25018,
        "contract": "contracts/exchange/contracts/periphery/contracts/adapters/Pendle/PendleLPAdapter.sol:PendleLPAdapter",
        "label": "__gap",
        "offset": 0,
        "slot": "1",
        "type": "t_array(t_uint256)50_storage"
      },
      {
        "astId": 29466,
        "contract": "contracts/exchange/contracts/periphery/contracts/adapters/Pendle/PendleLPAdapter.sol:PendleLPAdapter",
        "label": "lps",
        "offset": 0,
        "slot": "51",
        "type": "t_mapping(t_address,t_struct(PendleLPInfo)32567_storage)"
      },
      {
        "astId": 29469,
        "contract": "contracts/exchange/contracts/periphery/contracts/adapters/Pendle/PendleLPAdapter.sol:PendleLPAdapter",
        "label": "ORACLE",
        "offset": 0,
        "slot": "52",
        "type": "t_contract(ISuOracleAggregator)33132"
      },
      {
        "astId": 29472,
        "contract": "contracts/exchange/contracts/periphery/contracts/adapters/Pendle/PendleLPAdapter.sol:PendleLPAdapter",
        "label": "PENDLE_ORACLE",
        "offset": 0,
        "slot": "53",
        "type": "t_contract(IPPYLpOracle)13090"
      },
      {
        "astId": 29477,
        "contract": "contracts/exchange/contracts/periphery/contracts/adapters/Pendle/PendleLPAdapter.sol:PendleLPAdapter",
        "label": "TWAP_WINDOW",
        "offset": 20,
        "slot": "53",
        "type": "t_uint32"
      },
      {
        "astId": 30016,
        "contract": "contracts/exchange/contracts/periphery/contracts/adapters/Pendle/PendleLPAdapter.sol:PendleLPAdapter",
        "label": "__gap",
        "offset": 0,
        "slot": "54",
        "type": "t_array(t_uint256)50_storage"
      }
    ],
    "types": {
      "t_address": {
        "encoding": "inplace",
        "label": "address",
        "numberOfBytes": "20"
      },
      "t_array(t_address)dyn_storage": {
        "base": "t_address",
        "encoding": "dynamic_array",
        "label": "address[]",
        "numberOfBytes": "32"
      },
      "t_array(t_uint256)50_storage": {
        "base": "t_uint256",
        "encoding": "inplace",
        "label": "uint256[50]",
        "numberOfBytes": "1600"
      },
      "t_bool": {
        "encoding": "inplace",
        "label": "bool",
        "numberOfBytes": "1"
      },
      "t_contract(IPMarket)13011": {
        "encoding": "inplace",
        "label": "contract IPMarket",
        "numberOfBytes": "20"
      },
      "t_contract(IPPYLpOracle)13090": {
        "encoding": "inplace",
        "label": "contract IPPYLpOracle",
        "numberOfBytes": "20"
      },
      "t_contract(IStandardizedYield)13492": {
        "encoding": "inplace",
        "label": "contract IStandardizedYield",
        "numberOfBytes": "20"
      },
      "t_contract(ISuAccessControl)31989": {
        "encoding": "inplace",
        "label": "contract ISuAccessControl",
        "numberOfBytes": "20"
      },
      "t_contract(ISuOracleAggregator)33132": {
        "encoding": "inplace",
        "label": "contract ISuOracleAggregator",
        "numberOfBytes": "20"
      },
      "t_mapping(t_address,t_struct(PendleLPInfo)32567_storage)": {
        "encoding": "mapping",
        "key": "t_address",
        "label": "mapping(address => struct IPendleLPAdapter.PendleLPInfo)",
        "numberOfBytes": "32",
        "value": "t_struct(PendleLPInfo)32567_storage"
      },
      "t_struct(PendleLPInfo)32567_storage": {
        "encoding": "inplace",
        "label": "struct IPendleLPAdapter.PendleLPInfo",
        "members": [
          {
            "astId": 32558,
            "contract": "contracts/exchange/contracts/periphery/contracts/adapters/Pendle/PendleLPAdapter.sol:PendleLPAdapter",
            "label": "market",
            "offset": 0,
            "slot": "0",
            "type": "t_contract(IPMarket)13011"
          },
          {
            "astId": 32561,
            "contract": "contracts/exchange/contracts/periphery/contracts/adapters/Pendle/PendleLPAdapter.sol:PendleLPAdapter",
            "label": "SY",
            "offset": 0,
            "slot": "1",
            "type": "t_contract(IStandardizedYield)13492"
          },
          {
            "astId": 32564,
            "contract": "contracts/exchange/contracts/periphery/contracts/adapters/Pendle/PendleLPAdapter.sol:PendleLPAdapter",
            "label": "underlyingTokens",
            "offset": 0,
            "slot": "2",
            "type": "t_array(t_address)dyn_storage"
          },
          {
            "astId": 32566,
            "contract": "contracts/exchange/contracts/periphery/contracts/adapters/Pendle/PendleLPAdapter.sol:PendleLPAdapter",
            "label": "mainUnderlyingToken",
            "offset": 0,
            "slot": "3",
            "type": "t_address"
          }
        ],
        "numberOfBytes": "128"
      },
      "t_uint256": {
        "encoding": "inplace",
        "label": "uint256",
        "numberOfBytes": "32"
      },
      "t_uint32": {
        "encoding": "inplace",
        "label": "uint32",
        "numberOfBytes": "4"
      },
      "t_uint8": {
        "encoding": "inplace",
        "label": "uint8",
        "numberOfBytes": "1"
      }
    }
  }
}