{
  "address": "0xa7261Fc93Fc92C2Ab9CeB77CeBAba516915CdC53",
  "abi": [
    {
      "inputs": [],
      "stateMutability": "nonpayable",
      "type": "constructor"
    },
    {
      "inputs": [],
      "name": "BadAccessControlSingleton",
      "type": "error"
    },
    {
      "inputs": [
        {
          "internalType": "address",
          "name": "asset",
          "type": "address"
        }
      ],
      "name": "BadDecimals",
      "type": "error"
    },
    {
      "inputs": [],
      "name": "BadMainUnderlyingToken",
      "type": "error"
    },
    {
      "inputs": [
        {
          "internalType": "address",
          "name": "asset",
          "type": "address"
        }
      ],
      "name": "IsNotLP",
      "type": "error"
    },
    {
      "inputs": [],
      "name": "LPOracleNotReady",
      "type": "error"
    },
    {
      "inputs": [
        {
          "internalType": "int256",
          "name": "exchangeRate",
          "type": "int256"
        }
      ],
      "name": "MarketExchangeRateBelowOne",
      "type": "error"
    },
    {
      "inputs": [],
      "name": "MarketExpired",
      "type": "error"
    },
    {
      "inputs": [],
      "name": "MarketProportionMustNotEqualOne",
      "type": "error"
    },
    {
      "inputs": [
        {
          "internalType": "int256",
          "name": "rateScalar",
          "type": "int256"
        }
      ],
      "name": "MarketRateScalarBelowZero",
      "type": "error"
    },
    {
      "inputs": [
        {
          "internalType": "int256",
          "name": "totalPt",
          "type": "int256"
        },
        {
          "internalType": "int256",
          "name": "totalAsset",
          "type": "int256"
        }
      ],
      "name": "MarketZeroTotalPtOrTotalAsset",
      "type": "error"
    },
    {
      "inputs": [],
      "name": "OnlyAdminError",
      "type": "error"
    },
    {
      "inputs": [],
      "name": "OnlyAlerterError",
      "type": "error"
    },
    {
      "inputs": [],
      "name": "OnlyCDPAccessError",
      "type": "error"
    },
    {
      "inputs": [],
      "name": "OnlyDAOError",
      "type": "error"
    },
    {
      "inputs": [],
      "name": "OnlyDisablerAccessError",
      "type": "error"
    },
    {
      "inputs": [],
      "name": "OnlyLiquidationAccessError",
      "type": "error"
    },
    {
      "inputs": [],
      "name": "OnlyMintAccessError",
      "type": "error"
    },
    {
      "inputs": [],
      "name": "OnlyProxyActionsError",
      "type": "error"
    },
    {
      "inputs": [],
      "name": "OnlyRewardAccessError",
      "type": "error"
    },
    {
      "inputs": [],
      "name": "OnlyRoleError",
      "type": "error"
    },
    {
      "inputs": [],
      "name": "OnlyVaultAccessError",
      "type": "error"
    },
    {
      "inputs": [],
      "name": "OnlyVotingEscrowError",
      "type": "error"
    },
    {
      "inputs": [],
      "name": "OracleNotReady",
      "type": "error"
    },
    {
      "inputs": [
        {
          "internalType": "uint256",
          "name": "expected",
          "type": "uint256"
        },
        {
          "internalType": "uint256",
          "name": "received",
          "type": "uint256"
        }
      ],
      "name": "SlippageExceeded",
      "type": "error"
    },
    {
      "inputs": [],
      "name": "TokenOutNotFound",
      "type": "error"
    },
    {
      "inputs": [],
      "name": "ZeroRecipient",
      "type": "error"
    },
    {
      "inputs": [],
      "name": "onlyAuctionAccessRole",
      "type": "error"
    },
    {
      "anonymous": false,
      "inputs": [
        {
          "indexed": true,
          "internalType": "address",
          "name": "token",
          "type": "address"
        },
        {
          "indexed": false,
          "internalType": "uint256",
          "name": "amount",
          "type": "uint256"
        },
        {
          "indexed": false,
          "internalType": "address",
          "name": "receiver",
          "type": "address"
        }
      ],
      "name": "EmergencyWithdraw",
      "type": "event"
    },
    {
      "anonymous": false,
      "inputs": [
        {
          "indexed": false,
          "internalType": "uint8",
          "name": "version",
          "type": "uint8"
        }
      ],
      "name": "Initialized",
      "type": "event"
    },
    {
      "anonymous": false,
      "inputs": [
        {
          "indexed": false,
          "internalType": "address",
          "name": "lp",
          "type": "address"
        },
        {
          "indexed": false,
          "internalType": "address",
          "name": "market",
          "type": "address"
        },
        {
          "indexed": false,
          "internalType": "address",
          "name": "mainUnderlyingToken",
          "type": "address"
        }
      ],
      "name": "TokenRegistered",
      "type": "event"
    },
    {
      "anonymous": false,
      "inputs": [
        {
          "indexed": false,
          "internalType": "address",
          "name": "lp",
          "type": "address"
        },
        {
          "indexed": false,
          "internalType": "address",
          "name": "market",
          "type": "address"
        },
        {
          "indexed": false,
          "internalType": "address",
          "name": "mainUnderlyingToken",
          "type": "address"
        }
      ],
      "name": "TokenRegisteredRepeat",
      "type": "event"
    },
    {
      "anonymous": false,
      "inputs": [
        {
          "indexed": false,
          "internalType": "address",
          "name": "asset",
          "type": "address"
        },
        {
          "indexed": false,
          "internalType": "uint256",
          "name": "amount",
          "type": "uint256"
        }
      ],
      "name": "Withdraw",
      "type": "event"
    },
    {
      "inputs": [],
      "name": "ACCESS_CONTROL_SINGLETON",
      "outputs": [
        {
          "internalType": "contract ISuAccessControl",
          "name": "",
          "type": "address"
        }
      ],
      "stateMutability": "view",
      "type": "function"
    },
    {
      "inputs": [],
      "name": "ADMIN_ROLE",
      "outputs": [
        {
          "internalType": "bytes32",
          "name": "",
          "type": "bytes32"
        }
      ],
      "stateMutability": "view",
      "type": "function"
    },
    {
      "inputs": [],
      "name": "ALERTER_ROLE",
      "outputs": [
        {
          "internalType": "bytes32",
          "name": "",
          "type": "bytes32"
        }
      ],
      "stateMutability": "view",
      "type": "function"
    },
    {
      "inputs": [],
      "name": "AUCTION_ACCESS_ROLE",
      "outputs": [
        {
          "internalType": "bytes32",
          "name": "",
          "type": "bytes32"
        }
      ],
      "stateMutability": "view",
      "type": "function"
    },
    {
      "inputs": [],
      "name": "CDP_ACCESS_ROLE",
      "outputs": [
        {
          "internalType": "bytes32",
          "name": "",
          "type": "bytes32"
        }
      ],
      "stateMutability": "view",
      "type": "function"
    },
    {
      "inputs": [],
      "name": "DAO_ROLE",
      "outputs": [
        {
          "internalType": "bytes32",
          "name": "",
          "type": "bytes32"
        }
      ],
      "stateMutability": "view",
      "type": "function"
    },
    {
      "inputs": [],
      "name": "DISABLER_ROLE",
      "outputs": [
        {
          "internalType": "bytes32",
          "name": "",
          "type": "bytes32"
        }
      ],
      "stateMutability": "view",
      "type": "function"
    },
    {
      "inputs": [],
      "name": "LIQUIDATION_ACCESS_ROLE",
      "outputs": [
        {
          "internalType": "bytes32",
          "name": "",
          "type": "bytes32"
        }
      ],
      "stateMutability": "view",
      "type": "function"
    },
    {
      "inputs": [],
      "name": "MINT_ACCESS_ROLE",
      "outputs": [
        {
          "internalType": "bytes32",
          "name": "",
          "type": "bytes32"
        }
      ],
      "stateMutability": "view",
      "type": "function"
    },
    {
      "inputs": [],
      "name": "ORACLE",
      "outputs": [
        {
          "internalType": "contract ISuOracleAggregator",
          "name": "",
          "type": "address"
        }
      ],
      "stateMutability": "view",
      "type": "function"
    },
    {
      "inputs": [],
      "name": "PENDLE_ORACLE",
      "outputs": [
        {
          "internalType": "contract IPPYLpOracle",
          "name": "",
          "type": "address"
        }
      ],
      "stateMutability": "view",
      "type": "function"
    },
    {
      "inputs": [],
      "name": "PROXY_ACTIONS_ROLE",
      "outputs": [
        {
          "internalType": "bytes32",
          "name": "",
          "type": "bytes32"
        }
      ],
      "stateMutability": "view",
      "type": "function"
    },
    {
      "inputs": [],
      "name": "REWARD_ACCESS_ROLE",
      "outputs": [
        {
          "internalType": "bytes32",
          "name": "",
          "type": "bytes32"
        }
      ],
      "stateMutability": "view",
      "type": "function"
    },
    {
      "inputs": [],
      "name": "TWAP_WINDOW",
      "outputs": [
        {
          "internalType": "uint32",
          "name": "",
          "type": "uint32"
        }
      ],
      "stateMutability": "view",
      "type": "function"
    },
    {
      "inputs": [],
      "name": "VOTING_ESCROW_ROLE",
      "outputs": [
        {
          "internalType": "bytes32",
          "name": "",
          "type": "bytes32"
        }
      ],
      "stateMutability": "view",
      "type": "function"
    },
    {
      "inputs": [
        {
          "internalType": "address[]",
          "name": "tokens",
          "type": "address[]"
        },
        {
          "internalType": "address",
          "name": "receiver",
          "type": "address"
        }
      ],
      "name": "emergencyWithdraw",
      "outputs": [],
      "stateMutability": "nonpayable",
      "type": "function"
    },
    {
      "inputs": [
        {
          "internalType": "address",
          "name": "asset",
          "type": "address"
        }
      ],
      "name": "getFiatPrice1e18",
      "outputs": [
        {
          "internalType": "uint256",
          "name": "",
          "type": "uint256"
        }
      ],
      "stateMutability": "view",
      "type": "function"
    },
    {
      "inputs": [
        {
          "internalType": "address",
          "name": "market",
          "type": "address"
        },
        {
          "internalType": "uint16",
          "name": "cardinality",
          "type": "uint16"
        }
      ],
      "name": "increaseObservationCardinality",
      "outputs": [],
      "stateMutability": "nonpayable",
      "type": "function"
    },
    {
      "inputs": [
        {
          "internalType": "address",
          "name": "_authControl",
          "type": "address"
        },
        {
          "internalType": "address",
          "name": "_oracle",
          "type": "address"
        },
        {
          "internalType": "address",
          "name": "_pendleOracle",
          "type": "address"
        }
      ],
      "name": "initialize",
      "outputs": [],
      "stateMutability": "nonpayable",
      "type": "function"
    },
    {
      "inputs": [
        {
          "internalType": "address",
          "name": "asset",
          "type": "address"
        }
      ],
      "name": "isAdapterLP",
      "outputs": [
        {
          "internalType": "bool",
          "name": "",
          "type": "bool"
        }
      ],
      "stateMutability": "view",
      "type": "function"
    },
    {
      "inputs": [
        {
          "internalType": "address",
          "name": "",
          "type": "address"
        }
      ],
      "name": "lps",
      "outputs": [
        {
          "internalType": "contract IPMarket",
          "name": "market",
          "type": "address"
        },
        {
          "internalType": "contract IStandardizedYield",
          "name": "SY",
          "type": "address"
        },
        {
          "internalType": "address",
          "name": "mainUnderlyingToken",
          "type": "address"
        }
      ],
      "stateMutability": "view",
      "type": "function"
    },
    {
      "inputs": [
        {
          "internalType": "address",
          "name": "lp",
          "type": "address"
        },
        {
          "internalType": "contract IPMarket",
          "name": "market",
          "type": "address"
        },
        {
          "internalType": "address",
          "name": "mainUnderlyingToken",
          "type": "address"
        }
      ],
      "name": "registerLP",
      "outputs": [],
      "stateMutability": "nonpayable",
      "type": "function"
    },
    {
      "inputs": [
        {
          "internalType": "uint32",
          "name": "_twapWindow",
          "type": "uint32"
        }
      ],
      "name": "setTwapWindow",
      "outputs": [],
      "stateMutability": "nonpayable",
      "type": "function"
    },
    {
      "inputs": [
        {
          "internalType": "bytes4",
          "name": "interfaceId",
          "type": "bytes4"
        }
      ],
      "name": "supportsInterface",
      "outputs": [
        {
          "internalType": "bool",
          "name": "",
          "type": "bool"
        }
      ],
      "stateMutability": "view",
      "type": "function"
    },
    {
      "inputs": [
        {
          "internalType": "address",
          "name": "asset",
          "type": "address"
        },
        {
          "internalType": "uint256",
          "name": "amount",
          "type": "uint256"
        },
        {
          "internalType": "uint256",
          "name": "maxSlippageBps",
          "type": "uint256"
        }
      ],
      "name": "withdraw",
      "outputs": [
        {
          "components": [
            {
              "internalType": "address",
              "name": "token",
              "type": "address"
            },
            {
              "internalType": "uint256",
              "name": "amount",
              "type": "uint256"
            }
          ],
          "internalType": "struct WithdrawResult[]",
          "name": "results",
          "type": "tuple[]"
        }
      ],
      "stateMutability": "nonpayable",
      "type": "function"
    }
  ],
  "numDeployments": 1,
  "solcInputHash": "8f84b6f1e4072e92a972e80f9a9e23c6",
  "bytecode": "0x60806040523480156200001157600080fd5b506200001c62000022565b620000e3565b600054610100900460ff16156200008f5760405162461bcd60e51b815260206004820152602760248201527f496e697469616c697a61626c653a20636f6e747261637420697320696e697469604482015266616c697a696e6760c81b606482015260840160405180910390fd5b60005460ff90811614620000e1576000805460ff191660ff9081179091556040519081527f7f26b83ff96e1f2b6a682f133852f6798a09c465da95921460cefb38474024989060200160405180910390a15b565b61380d80620000f36000396000f3fe608060405234801561001057600080fd5b50600436106101335760003560e01c806301ffc9a71461013857806303ee9f2214610160578063340517c91461018657806338013f02146101bb578063438280dd146101ce57806351362117146101f55780635f5535451461020857806371d0fb411461021d57806375b238fc1461024457806383839a501461024c5780638e5313e01461025f5780639c977cf014610286578063b38234f314610299578063b5c5f672146102c0578063b9ac2b38146102e0578063bd5f5be6146102f3578063c0c53b8b1461031a578063c7c7ab6d1461032d578063d0e8fa8214610340578063d12e733214610367578063d1dff44f146103b2578063d2351cee146103c5578063dc97e84e146103ec578063e2c1d1d114610413578063e9c265181461043f575b600080fd5b61014b610146366004612ec4565b610466565b60405190151581526020015b60405180910390f35b600054610179906201000090046001600160a01b031681565b6040516101579190612eee565b6101ad7f014f8da3222812608c449a44f4705585c5ce052eeb6f9af0af9209c64b0ba2de81565b604051908152602001610157565b603454610179906001600160a01b031681565b6101ad7f39f61ca2a1a28fee144218173ec637b649a353e4026b2738c673800e5bf1437b81565b61014b610203366004612f17565b6104e3565b61021b610216366004612f34565b610503565b005b6101ad7f880a91047114272656e533301261260c75e4d11543ac7303d6fe4204579ec72781565b6101ad600081565b61021b61025a366004612f6a565b6105be565b6101ad7fe453bacb314e78dcd5192e6b1a2b1f0e7c76e92f6b7e429a6a90f04e39db3b7681565b603554610179906001600160a01b031681565b6101ad7fd83f5343da19b478b15a140c301a868be9e02603958f38fbd822b9d5c0a2891681565b6102d36102ce366004612fa3565b61061f565b6040516101579190612fd8565b6101ad6102ee366004612f17565b610a59565b6101ad7f4f14c8366fa999817edc9f29824eb88a00cc31225e2156f399da4bc91049eb1081565b61021b610328366004613030565b610bfb565b61021b61033b366004613030565b610d56565b6101ad7f76d0567582f23e1e9d7a13eeba60f9aea9d69b8da87ca27a8bf3698b35c653db81565b6103a3610375366004612f17565b6033602052600090815260409020805460018201546003909201546001600160a01b03918216928216911683565b6040516101579392919061307b565b61021b6103c036600461309e565b6111fa565b6101ad7fb0fdd1623e42dbffda4acd8bd643e1cb69f00f0e83abeaa8150ee42cf0fd105e81565b6101ad7f9a9aef7c1247d5fc769b0185c052913e39673da29a880317dfd20ebf86f26a4981565b60355461042a90600160a01b900463ffffffff1681565b60405163ffffffff9091168152602001610157565b6101ad7f3b5d4cc60d3ec3516ee8ae083bd60934f6eb2a6c54b1229985c41bfb092b260381565b600080546040516301ffc9a760e01b8152620100009091046001600160a01b0316906301ffc9a79061049c908590600401613118565b602060405180830381865afa1580156104b9573d6000803e3d6000fd5b505050506040513d601f19601f820116820180604052508101906104dd919061313d565b92915050565b6001600160a01b0316600090815260336020526040902060020154151590565b60008054604051632474521560e21b8152620100009091046001600160a01b0316916391d148549161053a91903390600401613158565b602060405180830381865afa158015610557573d6000803e3d6000fd5b505050506040513d601f19601f8201168201806040525081019061057b919061313d565b61059857604051631886ea7d60e11b815260040160405180910390fd5b6035805463ffffffff909216600160a01b0263ffffffff60a01b19909216919091179055565b604051631bea2f1d60e11b815261ffff821660048201526001600160a01b038316906337d45e3a90602401600060405180830381600087803b15801561060357600080fd5b505af1158015610617573d6000803e3d6000fd5b505050505050565b606061062a846104e3565b6106525783604051631e489be560e01b81526004016106499190612eee565b60405180910390fd5b6106676001600160a01b0385163330866113d0565b6001600160a01b038085166000908152603360209081526040808320815160808101835281548616815260018201549095168584015260028101805483518186028101860185528181529596959294938601938301828280156106f357602002820191906000526020600020905b81546001600160a01b031681526001909101906020018083116106d5575b5050509183525050600391909101546001600160a01b03166020918201526040828101515181516001808252818401909352939450929182015b604080518082019091526000808252602082015281526020019060019003908161072d57905050925060008080805b848110156109375760008660400151828151811061077c5761077c613185565b602090810291909101015160345460405163a780f13360e01b81529192506001600160a01b03169063a780f133906107b8908490600401612eee565b602060405180830381865afa1580156107d5573d6000803e3d6000fd5b505050506040513d601f19601f820116820180604052508101906107f9919061313d565b1561092657602087015160405163cbe52ae360e01b81526000916001600160a01b03169063cbe52ae3906108339085908f9060040161319b565b602060405180830381865afa158015610850573d6000803e3d6000fd5b505050506040513d601f19601f8201168201806040525081019061087491906131b4565b603454604051632a5001c960e01b81529192506000916001600160a01b0390911690632a5001c9906108aa908690600401612eee565b6020604051808303816000875af11580156108c9573d6000803e3d6000fd5b505050506040513d601f19601f820116820180604052508101906108ed91906131b4565b90506000670de0b6b3a764000061090483856131e3565b61090e9190613210565b905086811115610922578096508397508295505b5050505b5061093081613224565b905061075c565b506001600160a01b03831661095f57604051631b250a0960e21b815260040160405180910390fd5b600061097086600001518a86611428565b905060006127106109818a8261323d565b61098b90856131e3565b6109959190613210565b9050808210156109c2576040516371c4efed60e01b81526004810184905260248101839052604401610649565b6040518060400160405280866001600160a01b0316815260200183815250886000815181106109f3576109f3613185565b6020908102919091010152610a126001600160a01b0386163384611811565b7f884edad9ce6fa2440d8a54cc123490eb96d2768479d49ff9c7366125a94243648b8b604051610a4392919061319b565b60405180910390a1505050505050509392505050565b6000610a64826104e3565b610a835781604051631e489be560e01b81526004016106499190612eee565b6001600160a01b03808316600090815260336020908152604080832081516080810183528154861681526001820154909516858401526002810180548351818602810186018552818152959695929493860193830182828015610b0f57602002820191906000526020600020905b81546001600160a01b03168152600190910190602001808311610af1575b5050509183525050600391909101546001600160a01b039081166020909201919091526035548251929350600092610b5992169063ffffffff600160a01b90910481169061183516565b6034546060840151604051631735856760e31b81529293506000926001600160a01b039092169163b9ac2b3891610b9291600401612eee565b602060405180830381865afa158015610baf573d6000803e3d6000fd5b505050506040513d601f19601f82011682018060405250810190610bd391906131b4565b9050670de0b6b3a7640000610be883836131e3565b610bf29190613210565b95945050505050565b600054610100900460ff1615808015610c1b5750600054600160ff909116105b80610c3c5750610c2a3061188f565b158015610c3c575060005460ff166001145b610c9f5760405162461bcd60e51b815260206004820152602e60248201527f496e697469616c697a61626c653a20636f6e747261637420697320616c72656160448201526d191e481a5b9a5d1a585b1a5e995960921b6064820152608401610649565b6000805460ff191660011790558015610cc2576000805461ff0019166101001790555b610ccb8461189e565b603480546001600160a01b0319166001600160a01b0385811691909117909155603580549184166001600160c01b031990921691909117604b60a41b1790558015610d50576000805461ff0019169055604051600181527f7f26b83ff96e1f2b6a682f133852f6798a09c465da95921460cefb38474024989060200160405180910390a15b50505050565b60008054604051632474521560e21b8152620100009091046001600160a01b0316916391d1485491610d8d91903390600401613158565b602060405180830381865afa158015610daa573d6000803e3d6000fd5b505050506040513d601f19601f82011682018060405250810190610dce919061313d565b610deb57604051631886ea7d60e11b815260040160405180910390fd5b826001600160a01b031663313ce5676040518163ffffffff1660e01b8152600401602060405180830381865afa158015610e29573d6000803e3d6000fd5b505050506040513d601f19601f82011682018060405250810190610e4d9190613261565b60ff16601214610e72578260405163144a426560e31b81526004016106499190612eee565b6001600160a01b0383811660009081526033602052604080822060030154603554915162439f4b60e91b81528685166004820152600160a01b830463ffffffff1660248201529084161515938392169063873e960090604401606060405180830381865afa158015610ee8573d6000803e3d6000fd5b505050506040513d601f19601f82011682018060405250810190610f0c919061327c565b92505091508180610f1b575080155b15610f395760405163370aafe360e11b815260040160405180910390fd5b6001600160a01b038681166000908152603360205260409081902080546001600160a01b03191692881692831790558051630b2339af60e21b81529051632c8ce6bc916004808201926060929091908290030181865afa158015610fa1573d6000803e3d6000fd5b505050506040513d601f19601f82011682018060405250810190610fc591906132c1565b50506001600160a01b0387811660009081526033602052604080822060010180546001600160a01b03191694909316938417909255815163071bc3c960e01b8152915163071bc3c99260048082019392918290030181865afa15801561102f573d6000803e3d6000fd5b505050506040513d6000823e601f3d908101601f19168201604052611057919081019061338a565b6001600160a01b03871660009081526033602090815260409091208251611088936002909201929190910190612e53565b506001600160a01b03808716600090815260336020526040808220600101548151630a40bee560e41b815291519293169163a40bee50916004808201926060929091908290030181865afa1580156110e4573d6000803e3d6000fd5b505050506040513d601f19601f82011682018060405250810190611108919061341d565b50915050846001600160a01b0316816001600160a01b03161461113e5760405163ad2da8fd60e01b815260040160405180910390fd5b6001600160a01b03878116600090815260336020526040902060030180546001600160a01b03191691871691909117905583156111b5577f63158a2ba74dcc8fbe165d0f7bdd9908d7627a717c167d58c0c8f809696572528787876040516111a89392919061307b565b60405180910390a16111f1565b7f8c768b5da89e637b23caac626ccd760ef89b9e8eaa2f45bbf8c9d68e231dabef8787876040516111e89392919061307b565b60405180910390a15b50505050505050565b60008054604051632474521560e21b8152620100009091046001600160a01b0316916391d148549161123191903390600401613158565b602060405180830381865afa15801561124e573d6000803e3d6000fd5b505050506040513d601f19601f82011682018060405250810190611272919061313d565b61128f57604051631886ea7d60e11b815260040160405180910390fd5b6001600160a01b0381166112b65760405163d27b444360e01b815260040160405180910390fd5b60005b82811015610d505760008484838181106112d5576112d5613185565b90506020020160208101906112ea9190612f17565b90506000816001600160a01b03166370a08231306040518263ffffffff1660e01b815260040161131a9190612eee565b602060405180830381865afa158015611337573d6000803e3d6000fd5b505050506040513d601f19601f8201168201806040525081019061135b91906131b4565b905080156113bb576113776001600160a01b0383168583611811565b816001600160a01b03167faaeda929aa102e867049528ec7cd2499e3a2f8846e736ae7935f234dfbf500d982866040516113b2929190613158565b60405180910390a25b505080806113c890613224565b9150506112b9565b610d50846323b872dd60e01b8585856040516024016113f193929190613460565b60408051601f198184030181529190526020810180516001600160e01b03166001600160e01b0319909316929092179091526119cf565b600080600080866001600160a01b0316632c8ce6bc6040518163ffffffff1660e01b8152600401606060405180830381865afa15801561146c573d6000803e3d6000fd5b505050506040513d601f19601f8201168201806040525081019061149091906132c1565b925092509250866001600160a01b031663a9059cbb88886040518363ffffffff1660e01b81526004016114c492919061319b565b6020604051808303816000875af11580156114e3573d6000803e3d6000fd5b505050506040513d601f19601f82011682018060405250810190611507919061313d565b506000826001600160a01b0316632f13b60c6040518163ffffffff1660e01b8152600401602060405180830381865afa158015611548573d6000803e3d6000fd5b505050506040513d601f19601f8201168201806040525081019061156c919061313d565b1561166f57604051633dae446f60e21b81526000906001600160a01b038a169063f6b911bc906115a490889087908d90600401613460565b60408051808303816000875af11580156115c2573d6000803e3d6000fd5b505050506040513d601f19601f820116820180604052508101906115e69190613484565b5090506000836001600160a01b031663bcb7ea5d876040518263ffffffff1660e01b81526004016116179190612eee565b6020604051808303816000875af1158015611636573d6000803e3d6000fd5b505050506040513d601f19601f8201168201806040525081019061165a91906131b4565b905061166681836134a8565b9250505061177e565b600080896001600160a01b031663f6b911bc878c8c6040518463ffffffff1660e01b81526004016116a293929190613460565b60408051808303816000875af11580156116c0573d6000803e3d6000fd5b505050506040513d601f19601f820116820180604052508101906116e49190613484565b60408051600080825260208201928390526329910b1160e01b909252929450909250906001600160a01b038c16906329910b1190611729908a9086906024810161350b565b60408051808303816000875af1158015611747573d6000803e3d6000fd5b505050506040513d601f19601f8201168201806040525081019061176b9190613484565b50905061177881846134a8565b93505050505b60405163769f8e5d60e01b8152306004820152602481018290526001600160a01b038781166044830152600060648301526001608483015285169063769f8e5d9060a4016020604051808303816000875af11580156117e1573d6000803e3d6000fd5b505050506040513d601f19601f8201168201806040525081019061180591906131b4565b98975050505050505050565b6118308363a9059cbb60e01b84846040516024016113f192919061319b565b505050565b600080600061184c856001600160a01b0316611aa4565b91509150600061185d868684611cd4565b90508183106118705792506104dd915050565b8161187b84836131e3565b6118859190613210565b9695505050505050565b6001600160a01b03163b151590565b600054610100900460ff166119095760405162461bcd60e51b815260206004820152602b60248201527f496e697469616c697a61626c653a20636f6e7472616374206973206e6f74206960448201526a6e697469616c697a696e6760a81b6064820152608401610649565b6000805462010000600160b01b031916620100006001600160a01b0384169081029190911790915515806119ae57506040516301ffc9a760e01b81526001600160a01b038216906301ffc9a79061196b90637965db0b60e01b90600401613118565b602060405180830381865afa158015611988573d6000803e3d6000fd5b505050506040513d601f19601f820116820180604052508101906119ac919061313d565b155b156119cc576040516384d942fd60e01b815260040160405180910390fd5b50565b6000611a24826040518060400160405280602081526020017f5361666545524332303a206c6f772d6c6576656c2063616c6c206661696c6564815250856001600160a01b0316611e619092919063ffffffff16565b9050805160001480611a45575080806020019051810190611a45919061313d565b6118305760405162461bcd60e51b815260206004820152602a60248201527f5361666545524332303a204552433230206f7065726174696f6e20646964206e6044820152691bdd081cdd58d8d9595960b21b6064820152608401610649565b600080600080846001600160a01b0316632c8ce6bc6040518163ffffffff1660e01b8152600401606060405180830381865afa158015611ae8573d6000803e3d6000fd5b505050506040513d601f19601f82011682018060405250810190611b0c91906132c1565b9250509150816001600160a01b0316633ba0b9a96040518163ffffffff1660e01b8152600401602060405180830381865afa158015611b4f573d6000803e3d6000fd5b505050506040513d601f19601f82011682018060405250810190611b7391906131b4565b93506000816001600160a01b031663d2a3584e6040518163ffffffff1660e01b8152600401602060405180830381865afa158015611bb5573d6000803e3d6000fd5b505050506040513d601f19601f82011682018060405250810190611bd991906131b4565b9050816001600160a01b031663516399df6040518163ffffffff1660e01b8152600401602060405180830381865afa158015611c19573d6000803e3d6000fd5b505050506040513d601f19601f82011682018060405250810190611c3d919061313d565b8015611cb2575043826001600160a01b03166360e0a9e16040518163ffffffff1660e01b8152600401602060405180830381865afa158015611c83573d6000803e3d6000fd5b505050506040513d601f19601f82011682018060405250810190611ca79190613532565b6001600160801b0316145b15611cbf57809350611ccc565b611cc98582611e78565b93505b505050915091565b600080846001600160a01b031663794052f360006040518263ffffffff1660e01b8152600401611d049190612eee565b61012060405180830381865afa158015611d22573d6000803e3d6000fd5b505050506040513d601f19601f82011682018060405250810190611d46919061355b565b90506000428260a0015111611d7657611d63848360200151611e90565b8251611d6f91906135dd565b9050611e42565b6000611d83838642611ecc565b9050600080611d9389868a611fcd565b915091506000611dbc611db7856040015185611daf9190613605565b86519061203c565b61205f565b90506000611e01611dcd8385612474565b611ddf90670de0b6b3a76400006135dd565b88516020880151611df190869061203c565b611dfb9190613605565b90612474565b9050611e1784828960000151611dfb91906135dd565b611e218285612474565b8660200151611e309190613605565b611e3a91906135dd565b955050505050505b611885611e5c83604001518361247490919063ffffffff16565b61249a565b6060611e7084846000856124ad565b949350505050565b6000818311611e875781611e89565b825b9392505050565b60008060008312611ea2576001611ea6565b6000195b9050611ec2611ebd85611eb886612588565b61259f565b6125be565b611e70908261362c565b611ef76040518060800160405280600081526020016000815260200160008152602001600081525090565b60a08401518210611f1b5760405163b2094b5960e01b815260040160405180910390fd5b6000828560a00151611f2d919061323d565b9050611f3985826125d4565b82526020850151611f4b908590611e90565b602083015284511580611f6057506020820151155b15611f8e578451602083015160405163b1c4aefb60e01b815260048101929092526024820152604401610649565b611fac85600001518661010001518460200151856000015185612630565b604083015260c0850151611fc090826126b1565b6060830152509392505050565b60008080611fe46001600160a01b038716856126e5565b90506000428660a00151611ff8919061323d565b905061200482826126b1565b93506000612017876101000151836126b1565b9050600261202586836135dd565b61202f919061365c565b9350505050935093915050565b600080612049838561362c565b9050670de0b6b3a7640000815b05949350505050565b6000680238fd42c5cf03ffff198212158015612084575068070c1cc73b00c800008213155b6120c35760405162461bcd60e51b815260206004820152601060248201526f125b9d985b1a5908195e1c1bdb995b9d60821b6044820152606401610649565b60008212156120fb576120d88260000361205f565b6a0c097ce7bc90715b34b9f160241b816120f4576120f46131fa565b0592915050565b60006806f05b59d3b2000000831261213957506806f05b59d3b1ffffff199091019072195e54c5dd42177f53a27172fa9ec63026282760241b61216f565b6803782dace9d9000000831261216b57506803782dace9d8ffffff19909101906b1425982cf597cd205cef738061216f565b5060015b6064929092029168056bc75e2d6310000068ad78ebc5ac6200000084126121bf5768ad78ebc5ac61ffffff199093019268056bc75e2d631000006e01855144814a7ff805980ff008400082020590505b6856bc75e2d63100000084126121fb576856bc75e2d630ffffff199093019268056bc75e2d631000006b02df0ab5a80a22c61ab5a70082020590505b682b5e3af16b18800000841261223557682b5e3af16b187fffff199093019268056bc75e2d63100000693f1fce3da636ea5cf85082020590505b6815af1d78b58c400000841261226f576815af1d78b58c3fffff199093019268056bc75e2d63100000690127fa27722cc06cc5e282020590505b680ad78ebc5ac620000084126122a857680ad78ebc5ac61fffff199093019268056bc75e2d6310000068280e60114edb805d0382020590505b68056bc75e2d6310000084126122e15768056bc75e2d630fffff199093019268056bc75e2d63100000680ebc5fb4174612111082020590505b6802b5e3af16b1880000841261231a576802b5e3af16b187ffff199093019268056bc75e2d631000006808f00f760a4b2db55d82020590505b68015af1d78b58c4000084126123535768015af1d78b58c3ffff199093019268056bc75e2d631000006806f5f177578893793782020590505b68056bc75e2d631000008481019085906002908280020505918201919050600368056bc75e2d631000008783020505918201919050600468056bc75e2d631000008783020505918201919050600568056bc75e2d631000008783020505918201919050600668056bc75e2d631000008783020505918201919050600768056bc75e2d631000008783020505918201919050600868056bc75e2d631000008783020505918201919050600968056bc75e2d631000008783020505918201919050600a68056bc75e2d631000008783020505918201919050600b68056bc75e2d631000008783020505918201919050600c68056bc75e2d631000008783020505918201919050606468056bc75e2d63100000848402058502059695505050505050565b600080612489670de0b6b3a76400008561362c565b9050828181612056576120566131fa565b6000808212156124a957600080fd5b5090565b60608247101561250e5760405162461bcd60e51b815260206004820152602660248201527f416464726573733a20696e73756666696369656e742062616c616e636520666f6044820152651c8818d85b1b60d21b6064820152608401610649565b600080866001600160a01b0316858760405161252a919061368a565b60006040518083038185875af1925050503d8060008114612567576040519150601f19603f3d011682016040523d82523d6000602084013e61256c565b606091505b509150915061257d8783838761280c565b979650505050505050565b60008082136124a95761259a826136a6565b6104dd565b6000670de0b6b3a76400006125b484846131e3565b611e899190613210565b60006001600160ff1b038211156124a957600080fd5b60006125df826125be565b6125f1611ebd6201518061016d6131e3565b8460800151612600919061362c565b61260a919061365c565b9050600081136104dd57604051630e520c3b60e11b815260048101829052602401610649565b60008061263d86846126b1565b9050670de0b6b3a764000081121561266b5760405163329e322960e21b815260048101829052602401610649565b600061268161267a878a6135dd565b8990612474565b9050600061268e82612883565b905061269a8187612474565b6126a49084613605565b9998505050505050505050565b6000806126c36201518061016d6131e3565b6126cd84866131e3565b6126d79190613210565b9050611e70611db7826125be565b60408051600280825260608201835260009283929190602083019080368337019050509050828160008151811061271e5761271e613185565b63ffffffff9092166020928302919091019091015260405163883bdbfd60e01b81526000906001600160a01b0386169063883bdbfd906127629085906004016136c2565b600060405180830381865afa15801561277f573d6000803e3d6000fd5b505050506040513d6000823e601f3d908101601f191682016040526127a7919081019061370c565b90508363ffffffff16816000815181106127c3576127c3613185565b6020026020010151826001815181106127de576127de613185565b60200260200101516127f091906137a7565b6127fa91906137c7565b6001600160d81b031695945050505050565b60608315612879578251600003612872576128268561188f565b6128725760405162461bcd60e51b815260206004820152601d60248201527f416464726573733a2063616c6c20746f206e6f6e2d636f6e74726163740000006044820152606401610649565b5081611e70565b611e7083836128d6565b6000670de0b6b3a764000082036128ad5760405163a9c8b14d60e01b815260040160405180910390fd5b60006128cb6128c484670de0b6b3a7640000613605565b8490612474565b9050611e8981612900565b8151156128e65781518083602001fd5b8060405162461bcd60e51b815260040161064991906137ed565b60008082136129415760405162461bcd60e51b815260206004820152600d60248201526c6f7574206f6620626f756e647360981b6044820152606401610649565b670c7d713b49da00008213801561295f5750670f43fc2c04ee000082125b1561298357670de0b6b3a764000061297683612991565b816120f4576120f46131fa565b6104dd82612ab0565b919050565b670de0b6b3a7640000026000806a0c097ce7bc90715b34b9f160241b808401906ec097ce7bc90715b34b9f0fffffffff19850102816129d2576129d26131fa565b05905060006a0c097ce7bc90715b34b9f160241b82800205905081806a0c097ce7bc90715b34b9f160241b81840205915060038205016a0c097ce7bc90715b34b9f160241b82840205915060058205016a0c097ce7bc90715b34b9f160241b82840205915060078205016a0c097ce7bc90715b34b9f160241b82840205915060098205016a0c097ce7bc90715b34b9f160241b828402059150600b8205016a0c097ce7bc90715b34b9f160241b828402059150600d8205016a0c097ce7bc90715b34b9f160241b828402059150600f82050160020295945050505050565b6000670de0b6b3a7640000821215612af157612ae8826a0c097ce7bc90715b34b9f160241b81612ae257612ae26131fa565b05612ab0565b60000392915050565b6000775803bcc5cb9634ba4cfb2213f784019318ed4dcb6017880f60361b8312612b3c5772195e54c5dd42177f53a27172fa9ec63026282760241b830592506806f05b59d3b2000000015b6f8bcc0026baae9e45e470190267a230cf60191b8312612b73576b1425982cf597cd205cef7380830592506803782dace9d9000000015b606492830292026e01855144814a7ff805980ff00840008312612bbb576e01855144814a7ff805980ff008400068056bc75e2d63100000840205925068ad78ebc5ac62000000015b6b02df0ab5a80a22c61ab5a7008312612bf6576b02df0ab5a80a22c61ab5a70068056bc75e2d6310000084020592506856bc75e2d631000000015b693f1fce3da636ea5cf8508312612c2d57693f1fce3da636ea5cf85068056bc75e2d631000008402059250682b5e3af16b18800000015b690127fa27722cc06cc5e28312612c6457690127fa27722cc06cc5e268056bc75e2d6310000084020592506815af1d78b58c400000015b68280e60114edb805d038312612c995768280e60114edb805d0368056bc75e2d631000008402059250680ad78ebc5ac6200000015b680ebc5fb417461211108312612cc457680ebc5fb4174612111068056bc75e2d631000009384020592015b6808f00f760a4b2db55d8312612cf9576808f00f760a4b2db55d68056bc75e2d6310000084020592506802b5e3af16b1880000015b6806f5f17757889379378312612d2e576806f5f177578893793768056bc75e2d63100000840205925068015af1d78b58c40000015b6806248f33704b2866038312612d62576806248f33704b28660368056bc75e2d63100000840205925067ad78ebc5ac620000015b6805c548670b9510e7ac8312612d96576805c548670b9510e7ac68056bc75e2d6310000084020592506756bc75e2d6310000015b600068056bc75e2d63100000840168056bc75e2d631000008086030281612dbf57612dbf6131fa565b059050600068056bc75e2d63100000828002059050818068056bc75e2d63100000818402059150600382050168056bc75e2d63100000828402059150600582050168056bc75e2d63100000828402059150600782050168056bc75e2d63100000828402059150600982050168056bc75e2d63100000828402059150600b820501600202606485820105979650505050505050565b828054828255906000526020600020908101928215612ea8579160200282015b82811115612ea857825182546001600160a01b0319166001600160a01b03909116178255602090920191600190910190612e73565b506124a99291505b808211156124a95760008155600101612eb0565b600060208284031215612ed657600080fd5b81356001600160e01b031981168114611e8957600080fd5b6001600160a01b0391909116815260200190565b6001600160a01b03811681146119cc57600080fd5b600060208284031215612f2957600080fd5b8135611e8981612f02565b600060208284031215612f4657600080fd5b813563ffffffff81168114611e8957600080fd5b61ffff811681146119cc57600080fd5b60008060408385031215612f7d57600080fd5b8235612f8881612f02565b91506020830135612f9881612f5a565b809150509250929050565b600080600060608486031215612fb857600080fd5b8335612fc381612f02565b95602085013595506040909401359392505050565b602080825282518282018190526000919060409081850190868401855b8281101561302357815180516001600160a01b03168552860151868501529284019290850190600101612ff5565b5091979650505050505050565b60008060006060848603121561304557600080fd5b833561305081612f02565b9250602084013561306081612f02565b9150604084013561307081612f02565b809150509250925092565b6001600160a01b0393841681529183166020830152909116604082015260600190565b6000806000604084860312156130b357600080fd5b83356001600160401b03808211156130ca57600080fd5b818601915086601f8301126130de57600080fd5b8135818111156130ed57600080fd5b8760208260051b850101111561310257600080fd5b6020928301955093505084013561307081612f02565b6001600160e01b031991909116815260200190565b8051801515811461298c57600080fd5b60006020828403121561314f57600080fd5b611e898261312d565b9182526001600160a01b0316602082015260400190565b634e487b7160e01b600052604160045260246000fd5b634e487b7160e01b600052603260045260246000fd5b6001600160a01b03929092168252602082015260400190565b6000602082840312156131c657600080fd5b5051919050565b634e487b7160e01b600052601160045260246000fd5b80820281158282048414176104dd576104dd6131cd565b634e487b7160e01b600052601260045260246000fd5b60008261321f5761321f6131fa565b500490565b600060018201613236576132366131cd565b5060010190565b818103818111156104dd576104dd6131cd565b805160ff8116811461298c57600080fd5b60006020828403121561327357600080fd5b611e8982613250565b60008060006060848603121561329157600080fd5b61329a8461312d565b925060208401516132aa81612f5a565b91506132b86040850161312d565b90509250925092565b6000806000606084860312156132d657600080fd5b83516132e181612f02565b60208501519093506132f281612f02565b604085015190925061307081612f02565b60405161012081016001600160401b03811182821017156133265761332661316f565b60405290565b604051601f8201601f191681016001600160401b03811182821017156133545761335461316f565b604052919050565b60006001600160401b038211156133755761337561316f565b5060051b60200190565b805161298c81612f02565b6000602080838503121561339d57600080fd5b82516001600160401b038111156133b357600080fd5b8301601f810185136133c457600080fd5b80516133d76133d28261335c565b61332c565b81815260059190911b820183019083810190878311156133f657600080fd5b928401925b8284101561257d57835161340e81612f02565b825292840192908401906133fb565b60008060006060848603121561343257600080fd5b83516002811061344157600080fd5b602085015190935061345281612f02565b91506132b860408501613250565b6001600160a01b039384168152919092166020820152604081019190915260600190565b6000806040838503121561349757600080fd5b505080516020909101519092909150565b808201808211156104dd576104dd6131cd565b60005b838110156134d65781810151838201526020016134be565b50506000910152565b600081518084526134f78160208601602086016134bb565b601f01601f19169290920160200192915050565b60018060a01b0384168152826020820152606060408201526000610bf260608301846134df565b60006020828403121561354457600080fd5b81516001600160801b0381168114611e8957600080fd5b6000610120828403121561356e57600080fd5b613576613303565b82518152602083015160208201526040830151604082015261359a6060840161337f565b60608201526080830151608082015260a083015160a082015260c083015160c082015260e083015160e08201526101008084015181830152508091505092915050565b80820182811260008312801582168215821617156135fd576135fd6131cd565b505092915050565b8181036000831280158383131683831282161715613625576136256131cd565b5092915050565b80820260008212600160ff1b84141615613648576136486131cd565b81810583148215176104dd576104dd6131cd565b60008261366b5761366b6131fa565b600160ff1b821460001984141615613685576136856131cd565b500590565b6000825161369c8184602087016134bb565b9190910192915050565b6000600160ff1b82016136bb576136bb6131cd565b5060000390565b6020808252825182820181905260009190848201906040850190845b8181101561370057835163ffffffff16835292840192918401916001016136de565b50909695505050505050565b6000602080838503121561371f57600080fd5b82516001600160401b0381111561373557600080fd5b8301601f8101851361374657600080fd5b80516137546133d28261335c565b81815260059190911b8201830190838101908783111561377357600080fd5b928401925b8284101561257d5783516001600160d81b03811681146137985760008081fd5b82529284019290840190613778565b6001600160d81b03828116828216039080821115613625576136256131cd565b60006001600160d81b03838116806137e1576137e16131fa565b92169190910492915050565b602081526000611e8960208301846134df56fea164736f6c6343000811000a",
  "devdoc": {
    "details": "See ILPAdapter interface for full details.",
    "kind": "dev",
    "methods": {
      "constructor": {
        "custom:oz-upgrades-unsafe-allow": "constructor"
      },
      "emergencyWithdraw(address[],address)": {
        "details": "This function is restricted to the admin and allows for emergency withdrawal of tokens.",
        "params": {
          "receiver": "Address of the receiver to receive the tokens.",
          "tokens": "List of tokens to withdraw."
        }
      },
      "increaseObservationCardinality(address,uint16)": {
        "details": "This sets the target cardinality that the oracle will grow to as new observations are written. The actual cardinality will increase gradually with each new observation until it reaches this target. This must be called before registering an LP token to ensure enough price observations for TWAP calculations. After increaseObservationCardinality call you must wai at least 20 min to allow the oracle to accumulate enough price observations For 1200 seconds (20 min) cardinality = 1200 / blockTime. Also we can * 1.2 to have buffer for safety. For mainnet (12 seconds for block) cardinality = 120, for Arbitrum (0.3 sec for block) = 4800.",
        "params": {
          "cardinality": "The target number of observations the oracle should maintain",
          "market": "The address of the Pendle market whose oracle cardinality should be increased"
        }
      },
      "isAdapterLP(address)": {
        "params": {
          "asset": "- address of LP token to check*"
        }
      },
      "registerLP(address,address,address)": {
        "details": "In case when oracle is not ready, you should call market.increaseObservationsCardinalityNext(t)      and wait 20 minutes to register LP      [IMPORTANT] - Before register admin should check that SY contract don't have callbacks.      It should be very rare to have a SY with a callback function, but need to pay attention on it.",
        "params": {
          "lp": "address of LP token",
          "market": "market for LP token*"
        }
      },
      "setTwapWindow(uint32)": {
        "params": {
          "_twapWindow": "New TWAP window in seconds"
        }
      },
      "supportsInterface(bytes4)": {
        "details": "Returns true if this contract implements the interface defined by `interfaceId`. See the corresponding https://eips.ethereum.org/EIPS/eip-165#how-interfaces-are-identified[EIP section] to learn more about how these ids are created. This function call must use less than 30 000 gas."
      }
    },
    "title": "PendleLPAdapter",
    "version": 1
  },
  "userdoc": {
    "kind": "user",
    "methods": {
      "emergencyWithdraw(address[],address)": {
        "notice": "Withdraw tokens from the adapter in case of emergency."
      },
      "getFiatPrice1e18(address)": {
        "notice": "Idea of this implementation was in Pendle example*"
      },
      "increaseObservationCardinality(address,uint16)": {
        "notice": "Helper function to increases the oracle observation cardinality for a Pendle market"
      },
      "isAdapterLP(address)": {
        "notice": "Returns if asset ig Balancer LP token, registered in our adapter"
      },
      "registerLP(address,address,address)": {
        "notice": "Register the given LP token address and set the LP info"
      },
      "setTwapWindow(uint32)": {
        "notice": "Set the TWAP window for price calculation"
      },
      "withdraw(address,uint256,uint256)": {
        "notice": "Pendle unwrap LP only to 1 token, but our ILPAdapter is more general, so we need to return here the array of WithdrawResult.*"
      }
    },
    "notice": "Adapter for Pendle LP token.",
    "version": 1
  },
  "storageLayout": {
    "storage": [
      {
        "astId": 1226,
        "contract": "contracts/exchange/contracts/periphery/contracts/adapters/Pendle/PendleLPAdapter.sol:PendleLPAdapter",
        "label": "_initialized",
        "offset": 0,
        "slot": "0",
        "type": "t_uint8"
      },
      {
        "astId": 1229,
        "contract": "contracts/exchange/contracts/periphery/contracts/adapters/Pendle/PendleLPAdapter.sol:PendleLPAdapter",
        "label": "_initializing",
        "offset": 1,
        "slot": "0",
        "type": "t_bool"
      },
      {
        "astId": 25605,
        "contract": "contracts/exchange/contracts/periphery/contracts/adapters/Pendle/PendleLPAdapter.sol:PendleLPAdapter",
        "label": "ACCESS_CONTROL_SINGLETON",
        "offset": 2,
        "slot": "0",
        "type": "t_contract(ISuAccessControl)32864"
      },
      {
        "astId": 25893,
        "contract": "contracts/exchange/contracts/periphery/contracts/adapters/Pendle/PendleLPAdapter.sol:PendleLPAdapter",
        "label": "__gap",
        "offset": 0,
        "slot": "1",
        "type": "t_array(t_uint256)50_storage"
      },
      {
        "astId": 30341,
        "contract": "contracts/exchange/contracts/periphery/contracts/adapters/Pendle/PendleLPAdapter.sol:PendleLPAdapter",
        "label": "lps",
        "offset": 0,
        "slot": "51",
        "type": "t_mapping(t_address,t_struct(PendleLPInfo)33442_storage)"
      },
      {
        "astId": 30344,
        "contract": "contracts/exchange/contracts/periphery/contracts/adapters/Pendle/PendleLPAdapter.sol:PendleLPAdapter",
        "label": "ORACLE",
        "offset": 0,
        "slot": "52",
        "type": "t_contract(ISuOracleAggregator)34007"
      },
      {
        "astId": 30347,
        "contract": "contracts/exchange/contracts/periphery/contracts/adapters/Pendle/PendleLPAdapter.sol:PendleLPAdapter",
        "label": "PENDLE_ORACLE",
        "offset": 0,
        "slot": "53",
        "type": "t_contract(IPPYLpOracle)13957"
      },
      {
        "astId": 30352,
        "contract": "contracts/exchange/contracts/periphery/contracts/adapters/Pendle/PendleLPAdapter.sol:PendleLPAdapter",
        "label": "TWAP_WINDOW",
        "offset": 20,
        "slot": "53",
        "type": "t_uint32"
      },
      {
        "astId": 30891,
        "contract": "contracts/exchange/contracts/periphery/contracts/adapters/Pendle/PendleLPAdapter.sol:PendleLPAdapter",
        "label": "__gap",
        "offset": 0,
        "slot": "54",
        "type": "t_array(t_uint256)50_storage"
      }
    ],
    "types": {
      "t_address": {
        "encoding": "inplace",
        "label": "address",
        "numberOfBytes": "20"
      },
      "t_array(t_address)dyn_storage": {
        "base": "t_address",
        "encoding": "dynamic_array",
        "label": "address[]",
        "numberOfBytes": "32"
      },
      "t_array(t_uint256)50_storage": {
        "base": "t_uint256",
        "encoding": "inplace",
        "label": "uint256[50]",
        "numberOfBytes": "1600"
      },
      "t_bool": {
        "encoding": "inplace",
        "label": "bool",
        "numberOfBytes": "1"
      },
      "t_contract(IPMarket)13878": {
        "encoding": "inplace",
        "label": "contract IPMarket",
        "numberOfBytes": "20"
      },
      "t_contract(IPPYLpOracle)13957": {
        "encoding": "inplace",
        "label": "contract IPPYLpOracle",
        "numberOfBytes": "20"
      },
      "t_contract(IStandardizedYield)14359": {
        "encoding": "inplace",
        "label": "contract IStandardizedYield",
        "numberOfBytes": "20"
      },
      "t_contract(ISuAccessControl)32864": {
        "encoding": "inplace",
        "label": "contract ISuAccessControl",
        "numberOfBytes": "20"
      },
      "t_contract(ISuOracleAggregator)34007": {
        "encoding": "inplace",
        "label": "contract ISuOracleAggregator",
        "numberOfBytes": "20"
      },
      "t_mapping(t_address,t_struct(PendleLPInfo)33442_storage)": {
        "encoding": "mapping",
        "key": "t_address",
        "label": "mapping(address => struct IPendleLPAdapter.PendleLPInfo)",
        "numberOfBytes": "32",
        "value": "t_struct(PendleLPInfo)33442_storage"
      },
      "t_struct(PendleLPInfo)33442_storage": {
        "encoding": "inplace",
        "label": "struct IPendleLPAdapter.PendleLPInfo",
        "members": [
          {
            "astId": 33433,
            "contract": "contracts/exchange/contracts/periphery/contracts/adapters/Pendle/PendleLPAdapter.sol:PendleLPAdapter",
            "label": "market",
            "offset": 0,
            "slot": "0",
            "type": "t_contract(IPMarket)13878"
          },
          {
            "astId": 33436,
            "contract": "contracts/exchange/contracts/periphery/contracts/adapters/Pendle/PendleLPAdapter.sol:PendleLPAdapter",
            "label": "SY",
            "offset": 0,
            "slot": "1",
            "type": "t_contract(IStandardizedYield)14359"
          },
          {
            "astId": 33439,
            "contract": "contracts/exchange/contracts/periphery/contracts/adapters/Pendle/PendleLPAdapter.sol:PendleLPAdapter",
            "label": "underlyingTokens",
            "offset": 0,
            "slot": "2",
            "type": "t_array(t_address)dyn_storage"
          },
          {
            "astId": 33441,
            "contract": "contracts/exchange/contracts/periphery/contracts/adapters/Pendle/PendleLPAdapter.sol:PendleLPAdapter",
            "label": "mainUnderlyingToken",
            "offset": 0,
            "slot": "3",
            "type": "t_address"
          }
        ],
        "numberOfBytes": "128"
      },
      "t_uint256": {
        "encoding": "inplace",
        "label": "uint256",
        "numberOfBytes": "32"
      },
      "t_uint32": {
        "encoding": "inplace",
        "label": "uint32",
        "numberOfBytes": "4"
      },
      "t_uint8": {
        "encoding": "inplace",
        "label": "uint8",
        "numberOfBytes": "1"
      }
    }
  }
}