{
  "address": "0x207DC3BD981192c8868ea6FfDc9B35132c8140A4",
  "abi": [
    {
      "inputs": [
        {
          "internalType": "address",
          "name": "factory_",
          "type": "address"
        }
      ],
      "stateMutability": "nonpayable",
      "type": "constructor"
    },
    {
      "inputs": [],
      "name": "build",
      "outputs": [
        {
          "internalType": "address payable",
          "name": "proxy",
          "type": "address"
        }
      ],
      "stateMutability": "nonpayable",
      "type": "function"
    },
    {
      "inputs": [
        {
          "internalType": "address",
          "name": "owner",
          "type": "address"
        }
      ],
      "name": "build",
      "outputs": [
        {
          "internalType": "address payable",
          "name": "proxy",
          "type": "address"
        }
      ],
      "stateMutability": "nonpayable",
      "type": "function"
    },
    {
      "inputs": [
        {
          "internalType": "address",
          "name": "",
          "type": "address"
        }
      ],
      "name": "proxies",
      "outputs": [
        {
          "internalType": "contract DSProxy",
          "name": "",
          "type": "address"
        }
      ],
      "stateMutability": "view",
      "type": "function"
    }
  ],
  "numDeployments": 1,
  "solcInputHash": "bc5dc47a4c79e74ac8d5e825ff0e349c",
  "bytecode": "0x608060405234801561001057600080fd5b506040516102dd3803806102dd8339818101604052602081101561003357600080fd5b5051600180546001600160a01b0319166001600160a01b0390921691909117905561027a806100636000396000f3fe608060405234801561001057600080fd5b50600436106100415760003560e01c80638e1a55fc14610046578063c45527911461006a578063f3701da214610090575b600080fd5b61004e6100b6565b604080516001600160a01b039092168252519081900360200190f35b61004e6004803603602081101561008057600080fd5b50356001600160a01b03166100c6565b61004e600480360360208110156100a657600080fd5b50356001600160a01b03166100e1565b60006100c1336100e1565b905090565b6000602081905290815260409020546001600160a01b031681565b6001600160a01b03818116600090815260208190526040812054909116158061018d57506001600160a01b0380831660008181526020818152604091829020548251638da5cb5b60e01b8152925193941692638da5cb5b926004808201939291829003018186803b15801561015557600080fd5b505afa158015610169573d6000803e3d6000fd5b505050506040513d602081101561017f57600080fd5b50516001600160a01b031614155b61019657600080fd5b600154604080516379b80ed160e11b81526001600160a01b0385811660048301529151919092169163f3701da29160248083019260209291908290030181600087803b1580156101e557600080fd5b505af11580156101f9573d6000803e3d6000fd5b505050506040513d602081101561020f57600080fd5b50516001600160a01b03928316600090815260208190526040902080546001600160a01b03191693821693909317909255509056fea26469706673582212200344b508cc22a10ee56c6b1ba6d710215707a2bd85fed30d869294295abc010a64736f6c634300060c0033",
  "devdoc": {
    "kind": "dev",
    "methods": {},
    "version": 1
  },
  "userdoc": {
    "kind": "user",
    "methods": {},
    "version": 1
  },
  "storageLayout": {
    "storage": [
      {
        "astId": 192,
        "contract": "contracts/makerdao/core/ProxyRegistry.sol:ProxyRegistry",
        "label": "proxies",
        "offset": 0,
        "slot": "0",
        "type": "t_mapping(t_address,t_contract(DSProxy)382)"
      },
      {
        "astId": 194,
        "contract": "contracts/makerdao/core/ProxyRegistry.sol:ProxyRegistry",
        "label": "factory",
        "offset": 0,
        "slot": "1",
        "type": "t_contract(DSProxyFactory)470"
      }
    ],
    "types": {
      "t_address": {
        "encoding": "inplace",
        "label": "address",
        "numberOfBytes": "20"
      },
      "t_contract(DSProxy)382": {
        "encoding": "inplace",
        "label": "contract DSProxy",
        "numberOfBytes": "20"
      },
      "t_contract(DSProxyFactory)470": {
        "encoding": "inplace",
        "label": "contract DSProxyFactory",
        "numberOfBytes": "20"
      },
      "t_mapping(t_address,t_contract(DSProxy)382)": {
        "encoding": "mapping",
        "key": "t_address",
        "label": "mapping(address => contract DSProxy)",
        "numberOfBytes": "32",
        "value": "t_contract(DSProxy)382"
      }
    }
  }
}