{
  "address": "0xE82724158851cEcB3b894ac01a6c5752309711a6",
  "abi": [
    {
      "inputs": [],
      "stateMutability": "nonpayable",
      "type": "constructor"
    },
    {
      "inputs": [],
      "name": "BadAccessControlSingleton",
      "type": "error"
    },
    {
      "inputs": [],
      "name": "OnlyAdminError",
      "type": "error"
    },
    {
      "inputs": [],
      "name": "OnlyAlerterError",
      "type": "error"
    },
    {
      "inputs": [],
      "name": "OnlyCDPAccessError",
      "type": "error"
    },
    {
      "inputs": [],
      "name": "OnlyDAOError",
      "type": "error"
    },
    {
      "inputs": [],
      "name": "OnlyDisablerAccessError",
      "type": "error"
    },
    {
      "inputs": [],
      "name": "OnlyLiquidationAccessError",
      "type": "error"
    },
    {
      "inputs": [],
      "name": "OnlyMintAccessError",
      "type": "error"
    },
    {
      "inputs": [],
      "name": "OnlyProxyActionsError",
      "type": "error"
    },
    {
      "inputs": [],
      "name": "OnlyRewardAccessError",
      "type": "error"
    },
    {
      "inputs": [],
      "name": "OnlyRoleError",
      "type": "error"
    },
    {
      "inputs": [],
      "name": "OnlyVaultAccessError",
      "type": "error"
    },
    {
      "inputs": [],
      "name": "OnlyVotingEscrowError",
      "type": "error"
    },
    {
      "anonymous": false,
      "inputs": [],
      "name": "DisableContract",
      "type": "event"
    },
    {
      "anonymous": false,
      "inputs": [
        {
          "indexed": false,
          "internalType": "uint8",
          "name": "version",
          "type": "uint8"
        }
      ],
      "name": "Initialized",
      "type": "event"
    },
    {
      "inputs": [],
      "name": "ACCESS_CONTROL_SINGLETON",
      "outputs": [
        {
          "internalType": "contract ISuAccessControl",
          "name": "",
          "type": "address"
        }
      ],
      "stateMutability": "view",
      "type": "function"
    },
    {
      "inputs": [],
      "name": "ADMIN_ROLE",
      "outputs": [
        {
          "internalType": "bytes32",
          "name": "",
          "type": "bytes32"
        }
      ],
      "stateMutability": "view",
      "type": "function"
    },
    {
      "inputs": [],
      "name": "ALERTER_ROLE",
      "outputs": [
        {
          "internalType": "bytes32",
          "name": "",
          "type": "bytes32"
        }
      ],
      "stateMutability": "view",
      "type": "function"
    },
    {
      "inputs": [],
      "name": "CDP_ACCESS_ROLE",
      "outputs": [
        {
          "internalType": "bytes32",
          "name": "",
          "type": "bytes32"
        }
      ],
      "stateMutability": "view",
      "type": "function"
    },
    {
      "inputs": [],
      "name": "DAO_ROLE",
      "outputs": [
        {
          "internalType": "bytes32",
          "name": "",
          "type": "bytes32"
        }
      ],
      "stateMutability": "view",
      "type": "function"
    },
    {
      "inputs": [],
      "name": "DISABLER_ROLE",
      "outputs": [
        {
          "internalType": "bytes32",
          "name": "",
          "type": "bytes32"
        }
      ],
      "stateMutability": "view",
      "type": "function"
    },
    {
      "inputs": [],
      "name": "LIQUIDATION_ACCESS_ROLE",
      "outputs": [
        {
          "internalType": "bytes32",
          "name": "",
          "type": "bytes32"
        }
      ],
      "stateMutability": "view",
      "type": "function"
    },
    {
      "inputs": [],
      "name": "MINT_ACCESS_ROLE",
      "outputs": [
        {
          "internalType": "bytes32",
          "name": "",
          "type": "bytes32"
        }
      ],
      "stateMutability": "view",
      "type": "function"
    },
    {
      "inputs": [],
      "name": "ORACLE",
      "outputs": [
        {
          "internalType": "contract ISuOracleAggregator",
          "name": "",
          "type": "address"
        }
      ],
      "stateMutability": "view",
      "type": "function"
    },
    {
      "inputs": [],
      "name": "PROXY_ACTIONS_ROLE",
      "outputs": [
        {
          "internalType": "bytes32",
          "name": "",
          "type": "bytes32"
        }
      ],
      "stateMutability": "view",
      "type": "function"
    },
    {
      "inputs": [],
      "name": "REWARD_ACCESS_ROLE",
      "outputs": [
        {
          "internalType": "bytes32",
          "name": "",
          "type": "bytes32"
        }
      ],
      "stateMutability": "view",
      "type": "function"
    },
    {
      "inputs": [],
      "name": "VOTING_ESCROW_ROLE",
      "outputs": [
        {
          "internalType": "bytes32",
          "name": "",
          "type": "bytes32"
        }
      ],
      "stateMutability": "view",
      "type": "function"
    },
    {
      "inputs": [
        {
          "internalType": "address",
          "name": "usr",
          "type": "address"
        }
      ],
      "name": "approveSAFEModification",
      "outputs": [],
      "stateMutability": "nonpayable",
      "type": "function"
    },
    {
      "inputs": [
        {
          "internalType": "address",
          "name": "",
          "type": "address"
        },
        {
          "internalType": "address",
          "name": "",
          "type": "address"
        }
      ],
      "name": "cdpRights",
      "outputs": [
        {
          "internalType": "uint256",
          "name": "",
          "type": "uint256"
        }
      ],
      "stateMutability": "view",
      "type": "function"
    },
    {
      "inputs": [
        {
          "internalType": "address",
          "name": "",
          "type": "address"
        }
      ],
      "name": "coinBalance",
      "outputs": [
        {
          "internalType": "uint256",
          "name": "",
          "type": "uint256"
        }
      ],
      "stateMutability": "view",
      "type": "function"
    },
    {
      "inputs": [
        {
          "internalType": "bytes32",
          "name": "",
          "type": "bytes32"
        }
      ],
      "name": "collateralTypes",
      "outputs": [
        {
          "internalType": "uint256",
          "name": "debtAmount",
          "type": "uint256"
        },
        {
          "internalType": "uint256",
          "name": "accumulatedRate",
          "type": "uint256"
        },
        {
          "internalType": "uint256",
          "name": "debtCeiling",
          "type": "uint256"
        },
        {
          "internalType": "uint256",
          "name": "debtFloor",
          "type": "uint256"
        },
        {
          "internalType": "uint256",
          "name": "safetyPrice",
          "type": "uint256"
        },
        {
          "internalType": "uint256",
          "name": "liquidationRatio",
          "type": "uint256"
        },
        {
          "internalType": "address",
          "name": "collateralAddress",
          "type": "address"
        },
        {
          "internalType": "uint256",
          "name": "safetyPriceBlockNumber",
          "type": "uint256"
        }
      ],
      "stateMutability": "view",
      "type": "function"
    },
    {
      "inputs": [
        {
          "internalType": "bytes32",
          "name": "collateralType",
          "type": "bytes32"
        },
        {
          "internalType": "address",
          "name": "cdp",
          "type": "address"
        },
        {
          "internalType": "address",
          "name": "collateralCounterparty",
          "type": "address"
        },
        {
          "internalType": "address",
          "name": "debtCounterparty",
          "type": "address"
        },
        {
          "internalType": "int256",
          "name": "deltaCollateral",
          "type": "int256"
        },
        {
          "internalType": "int256",
          "name": "deltaDebt",
          "type": "int256"
        }
      ],
      "name": "confiscateSAFECollateralAndDebt",
      "outputs": [],
      "stateMutability": "nonpayable",
      "type": "function"
    },
    {
      "inputs": [],
      "name": "contractEnabled",
      "outputs": [
        {
          "internalType": "uint256",
          "name": "",
          "type": "uint256"
        }
      ],
      "stateMutability": "view",
      "type": "function"
    },
    {
      "inputs": [
        {
          "internalType": "address",
          "name": "debtDestination",
          "type": "address"
        },
        {
          "internalType": "address",
          "name": "coinDestination",
          "type": "address"
        },
        {
          "internalType": "uint256",
          "name": "rad",
          "type": "uint256"
        }
      ],
      "name": "createUnbackedDebt",
      "outputs": [],
      "stateMutability": "nonpayable",
      "type": "function"
    },
    {
      "inputs": [
        {
          "internalType": "address",
          "name": "",
          "type": "address"
        }
      ],
      "name": "debtBalance",
      "outputs": [
        {
          "internalType": "uint256",
          "name": "",
          "type": "uint256"
        }
      ],
      "stateMutability": "view",
      "type": "function"
    },
    {
      "inputs": [],
      "name": "defaultLiquidationRatio",
      "outputs": [
        {
          "internalType": "uint256",
          "name": "",
          "type": "uint256"
        }
      ],
      "stateMutability": "view",
      "type": "function"
    },
    {
      "inputs": [
        {
          "internalType": "address",
          "name": "usr",
          "type": "address"
        }
      ],
      "name": "denySAFEModification",
      "outputs": [],
      "stateMutability": "nonpayable",
      "type": "function"
    },
    {
      "inputs": [],
      "name": "disableContract",
      "outputs": [],
      "stateMutability": "nonpayable",
      "type": "function"
    },
    {
      "inputs": [],
      "name": "globalDebt",
      "outputs": [
        {
          "internalType": "uint256",
          "name": "",
          "type": "uint256"
        }
      ],
      "stateMutability": "view",
      "type": "function"
    },
    {
      "inputs": [],
      "name": "globalDebtCeiling",
      "outputs": [
        {
          "internalType": "uint256",
          "name": "",
          "type": "uint256"
        }
      ],
      "stateMutability": "view",
      "type": "function"
    },
    {
      "inputs": [],
      "name": "globalUnbackedDebt",
      "outputs": [
        {
          "internalType": "uint256",
          "name": "",
          "type": "uint256"
        }
      ],
      "stateMutability": "view",
      "type": "function"
    },
    {
      "inputs": [
        {
          "internalType": "address",
          "name": "accessControl",
          "type": "address"
        },
        {
          "internalType": "address",
          "name": "oracle",
          "type": "address"
        }
      ],
      "name": "initialize",
      "outputs": [],
      "stateMutability": "nonpayable",
      "type": "function"
    },
    {
      "inputs": [
        {
          "internalType": "bytes32",
          "name": "collateralType",
          "type": "bytes32"
        },
        {
          "internalType": "address",
          "name": "collateralAddress",
          "type": "address"
        }
      ],
      "name": "initializeCollateralType",
      "outputs": [],
      "stateMutability": "nonpayable",
      "type": "function"
    },
    {
      "inputs": [
        {
          "internalType": "bytes32",
          "name": "collateralType",
          "type": "bytes32"
        },
        {
          "internalType": "address",
          "name": "usr",
          "type": "address"
        },
        {
          "internalType": "int256",
          "name": "wad",
          "type": "int256"
        }
      ],
      "name": "modifyCollateralBalance",
      "outputs": [],
      "stateMutability": "nonpayable",
      "type": "function"
    },
    {
      "inputs": [
        {
          "internalType": "bytes32",
          "name": "collateralType",
          "type": "bytes32"
        },
        {
          "internalType": "bytes32",
          "name": "what",
          "type": "bytes32"
        },
        {
          "internalType": "uint256",
          "name": "data",
          "type": "uint256"
        }
      ],
      "name": "modifyParameters",
      "outputs": [],
      "stateMutability": "nonpayable",
      "type": "function"
    },
    {
      "inputs": [
        {
          "internalType": "bytes32",
          "name": "what",
          "type": "bytes32"
        },
        {
          "internalType": "uint256",
          "name": "data",
          "type": "uint256"
        }
      ],
      "name": "modifyParameters",
      "outputs": [],
      "stateMutability": "nonpayable",
      "type": "function"
    },
    {
      "inputs": [
        {
          "internalType": "bytes32",
          "name": "collateralType",
          "type": "bytes32"
        },
        {
          "internalType": "address",
          "name": "cdp",
          "type": "address"
        },
        {
          "internalType": "address",
          "name": "collateralSource",
          "type": "address"
        },
        {
          "internalType": "address",
          "name": "debtDestination",
          "type": "address"
        },
        {
          "internalType": "int256",
          "name": "deltaCollateral",
          "type": "int256"
        },
        {
          "internalType": "int256",
          "name": "deltaDebt",
          "type": "int256"
        }
      ],
      "name": "modifySAFECollateralization",
      "outputs": [],
      "stateMutability": "nonpayable",
      "type": "function"
    },
    {
      "inputs": [],
      "name": "redemptionPrice",
      "outputs": [
        {
          "internalType": "uint256",
          "name": "",
          "type": "uint256"
        }
      ],
      "stateMutability": "view",
      "type": "function"
    },
    {
      "inputs": [
        {
          "internalType": "bytes32",
          "name": "",
          "type": "bytes32"
        },
        {
          "internalType": "address",
          "name": "",
          "type": "address"
        }
      ],
      "name": "safes",
      "outputs": [
        {
          "internalType": "uint256",
          "name": "lockedCollateral",
          "type": "uint256"
        },
        {
          "internalType": "uint256",
          "name": "generatedDebt",
          "type": "uint256"
        }
      ],
      "stateMutability": "view",
      "type": "function"
    },
    {
      "inputs": [],
      "name": "safetyPriceValidBlockAmount",
      "outputs": [
        {
          "internalType": "uint256",
          "name": "",
          "type": "uint256"
        }
      ],
      "stateMutability": "view",
      "type": "function"
    },
    {
      "inputs": [
        {
          "internalType": "uint256",
          "name": "rad",
          "type": "uint256"
        }
      ],
      "name": "settleDebt",
      "outputs": [],
      "stateMutability": "nonpayable",
      "type": "function"
    },
    {
      "inputs": [
        {
          "internalType": "bytes4",
          "name": "interfaceId",
          "type": "bytes4"
        }
      ],
      "name": "supportsInterface",
      "outputs": [
        {
          "internalType": "bool",
          "name": "",
          "type": "bool"
        }
      ],
      "stateMutability": "view",
      "type": "function"
    },
    {
      "inputs": [
        {
          "internalType": "bytes32",
          "name": "",
          "type": "bytes32"
        },
        {
          "internalType": "address",
          "name": "",
          "type": "address"
        }
      ],
      "name": "tokenCollateral",
      "outputs": [
        {
          "internalType": "uint256",
          "name": "",
          "type": "uint256"
        }
      ],
      "stateMutability": "view",
      "type": "function"
    },
    {
      "inputs": [
        {
          "internalType": "bytes32",
          "name": "collateralType",
          "type": "bytes32"
        },
        {
          "internalType": "address",
          "name": "src",
          "type": "address"
        },
        {
          "internalType": "address",
          "name": "dst",
          "type": "address"
        },
        {
          "internalType": "uint256",
          "name": "wad",
          "type": "uint256"
        }
      ],
      "name": "transferCollateral",
      "outputs": [],
      "stateMutability": "nonpayable",
      "type": "function"
    },
    {
      "inputs": [
        {
          "internalType": "address",
          "name": "src",
          "type": "address"
        },
        {
          "internalType": "address",
          "name": "dst",
          "type": "address"
        },
        {
          "internalType": "uint256",
          "name": "rad",
          "type": "uint256"
        }
      ],
      "name": "transferInternalCoins",
      "outputs": [],
      "stateMutability": "nonpayable",
      "type": "function"
    },
    {
      "inputs": [
        {
          "internalType": "bytes32",
          "name": "collateralType",
          "type": "bytes32"
        },
        {
          "internalType": "address",
          "name": "src",
          "type": "address"
        },
        {
          "internalType": "address",
          "name": "dst",
          "type": "address"
        },
        {
          "internalType": "int256",
          "name": "deltaCollateral",
          "type": "int256"
        },
        {
          "internalType": "int256",
          "name": "deltaDebt",
          "type": "int256"
        }
      ],
      "name": "transferSAFECollateralAndDebt",
      "outputs": [],
      "stateMutability": "nonpayable",
      "type": "function"
    },
    {
      "inputs": [
        {
          "internalType": "bytes32",
          "name": "collateralType",
          "type": "bytes32"
        },
        {
          "internalType": "address",
          "name": "surplusDst",
          "type": "address"
        },
        {
          "internalType": "int256",
          "name": "accumulatedRate",
          "type": "int256"
        }
      ],
      "name": "updateAccumulatedRate",
      "outputs": [],
      "stateMutability": "nonpayable",
      "type": "function"
    },
    {
      "inputs": [
        {
          "internalType": "bytes32",
          "name": "collateralType",
          "type": "bytes32"
        }
      ],
      "name": "updateSafetyPrice",
      "outputs": [],
      "stateMutability": "nonpayable",
      "type": "function"
    }
  ],
  "numDeployments": 1,
  "solcInputHash": "8c060bc8c39a7272c2849a174b3b4791",
  "bytecode": "0x608080604052346100c1576000549060ff8260081c1661006f575060ff80821603610034575b6040516123f890816100c78239f35b60ff90811916176000557f7f26b83ff96e1f2b6a682f133852f6798a09c465da95921460cefb3847402498602060405160ff8152a138610025565b62461bcd60e51b815260206004820152602760248201527f496e697469616c697a61626c653a20636f6e747261637420697320696e697469604482015266616c697a696e6760c81b6064820152608490fd5b600080fdfe608080604052600436101561001357600080fd5b60003560e01c90816301ffc9a714611c495750806303ee9f2214611c1c5780630e9e11d314611b2857806311005b0714611aee5780631b142820146119d75780631d2a783d146119b957806320d8a59f1461187157806327a0bb33146117d35780632efcc866146117b557806338013f021461178c5780633d4225041461173b57806341b3a0d91461171d578063438280dd146116e2578063476bb6ef146114b5578063485cc9551461123c5780634a11825e146111715780634e14a967146110045780634e5111a614610f3357806362a1e17b14610f1557806371d0fb4114610eda57806375b238fc14610ebe57806376e0b4ca14610e765780638543d5e014610e58578063894ba83314610d935780638e5313e014610d5857806399bec3151461086a578063a39b55801461084c578063b38234f314610811578063bd5f5be6146107e8578063c5b748c0146107ca578063d07900bb14610749578063d0e8fa821461070e578063d2351cee146106e5578063d49d7867146106a3578063d4b9311d14610589578063d94d420814610546578063da49bada146104f5578063dc97e84e146104ba578063e401f2e71461049e578063e9c2651814610475578063efabcadc146103ea578063fabde80c146103b05763fe4f5890146101f857600080fd5b346103ab5760403660031901126103ab57600435602435906044602060018060a01b0360005460101c1660405192838092632474521560e21b825260008051602061236383398151915260048301523360248301525afa90811561039f57600091610371575b501561035f57610272600160335414611e19565b70676c6f62616c446562744365696c696e6760781b81036102945750603d555b005b6e726564656d7074696f6e507269636560881b81036102b35750603e55005b7664656661756c744c69717569646174696f6e526174696f60481b81036102da5750604055005b7a1cd859995d1e541c9a58d955985b1a59109b1bd8dad05b5bdd5b9d602a1b0361030357603f55005b60405162461bcd60e51b815260206004820152602e60248201527f53616665456e67696e652f6d6f64696679506172616d65746572732d756e726560448201526d636f676e697a65642d706172616d60901b6064820152608490fd5b60405163599a6c3360e11b8152600490fd5b610392915060203d8111610398575b61038a8183611dbe565b810190611de1565b3861025e565b503d610380565b6040513d6000823e3d90fd5b600080fd5b346103ab5760203660031901126103ab576001600160a01b036103d1611cd4565b1660005260386020526020604060002054604051908152f35b346103ab576103f836611d40565b919061040c610407338461213f565b6120fa565b6001600160a01b03918216600081815260386020526040902054906104318583611e88565b9182116103ab576000526038602052604060002055168060005261045b6040600020549283611e65565b9182106103ab576000526038602052604060002055600080f35b346103ab5760003660031901126103ab5760206040516000805160206123638339815191528152f35b346103ab5760203660031901126103ab57610292600435611e95565b346103ab5760003660031901126103ab5760206040517f9a9aef7c1247d5fc769b0185c052913e39673da29a880317dfd20ebf86f26a498152f35b346103ab5760403660031901126103ab5761050e611cd4565b610516611cea565b9060018060a01b038091166000526034602052604060002091166000526020526020604060002054604051908152f35b346103ab5760203660031901126103ab5761055f611cd4565b33600052603460205260406000209060018060a01b03166000526020526001604060002055600080f35b346103ab5760603660031901126103ab57600435602435906044359160018060a01b0360005460101c16906040518092632474521560e21b8252600080516020612363833981519152600483015233602483015281604460209586935afa90811561039f57600091610686575b501561035f5761060a600160335414611e19565b6a646562744365696c696e6760a81b8103610632575060359160005252600260406000200155005b683232b13a233637b7b960b91b810361065b575060359160005252600360406000200155600080f35b6f6c69717569646174696f6e526174696f60801b036103035760359160005252600560406000200155005b61069d9150833d85116103985761038a8183611dbe565b856105f6565b346103ab5760203660031901126103ab576106bc611cd4565b33600052603460205260406000209060018060a01b031660005260205260006040812055600080f35b346103ab5760003660031901126103ab5760206040516000805160206123a38339815191528152f35b346103ab5760003660031901126103ab5760206040517f76d0567582f23e1e9d7a13eeba60f9aea9d69b8da87ca27a8bf3698b35c653db8152f35b346103ab5760203660031901126103ab576004356000526035602052610100604060002080549060018101549060028101546003820154600483015490600584015492600760018060a01b0360068701541695015495604051978852602088015260408701526060860152608085015260a084015260c083015260e0820152f35b346103ab5760003660031901126103ab576020603e54604051908152f35b346103ab5760003660031901126103ab5760206040516000805160206123838339815191528152f35b346103ab5760003660031901126103ab5760206040517fd83f5343da19b478b15a140c301a868be9e02603958f38fbd822b9d5c0a289168152f35b346103ab5760003660031901126103ab576020603f54604051908152f35b346103ab5761087836611d75565b9061088b60016033979694975414611e19565b846000526036602052604060002060018060a01b038416600052602052604060002095604051946040860160018060401b03988782108a831117610d425760019160405280548852015460208701526108e387611e95565b8660005260356020526040600020604051986101008a01908a821090821117610d42576040528054895260076001820154918260208c0152600281015460408c0152600381015460608c0152600481015460808c0152600581015460a08c015260018060a01b0360068201541660c08c0152015460e08a015215610cf15761096c838751612182565b865261097c846020880151612182565b602087015261098c848951612182565b885261099c8460208a0151612254565b936109b060208a0151602089015190612325565b906109bd86603b54612182565b80603b556109d18b5160208d015190612325565b60408c0151101590603d5410151660008213151715610cae576000851215600082131516610a05895160808d015190612325565b831115811715610c7357610a19338961213f565b1715610c3357610a29338461213f565b60008613151715610bf3576000610a40338661213f565b9112151715610bb3576020870151159060608a015111151715610b7757610a8e610ac79388600052603760205260406000209260018060a01b031692836000526020526040600020546121f3565b9087600052603760205260406000209060005260205260406000205560018060a01b031691826000526038602052604060002054612182565b90600052603860205260406000205582600052603660205260406000209060018060a01b0316600052602052600160206040600020928051845501519101556000526035602052600760e0604060002092805184556020810151600185015560408101516002850155606081015160038501556080810151600485015560a081015160058501556006840160018060a01b0360c08301511660018060a01b03198254161790550151910155600080f35b60405162461bcd60e51b815260206004820152601460248201527329b0b332a2b733b4b73297b232b13a233637b7b960611b6044820152606490fd5b60405162461bcd60e51b815260206004820152601860248201527753616665456e67696e652f6e6f742d616c6c6f7765642d7760401b6044820152606490fd5b60405162461bcd60e51b815260206004820152601860248201527729b0b332a2b733b4b73297b737ba16b0b63637bbb2b216bb60411b6044820152606490fd5b60405162461bcd60e51b815260206004820152601860248201527753616665456e67696e652f6e6f742d616c6c6f7765642d7560401b6044820152606490fd5b60405162461bcd60e51b815260206004820152601360248201527253616665456e67696e652f6e6f742d7361666560681b6044820152606490fd5b60405162461bcd60e51b815260206004820152601b60248201527a14d85999515b99da5b994bd8d95a5b1a5b99cb595e18d959591959602a1b6044820152606490fd5b60405162461bcd60e51b815260206004820152602360248201527f53616665456e67696e652f636f6c6c61746572616c2d747970652d6e6f742d696044820152621b9a5d60ea1b6064820152608490fd5b634e487b7160e01b600052604160045260246000fd5b346103ab5760003660031901126103ab5760206040517fe453bacb314e78dcd5192e6b1a2b1f0e7c76e92f6b7e429a6a90f04e39db3b768152f35b346103ab5760003660031901126103ab57600054604051632474521560e21b81526000805160206123a38339815191526004820152336024820152906020908290604490829060101c6001600160a01b03165afa90811561039f57600091610e3a575b5015610e285760006033557f2d4b4ecff7bd7503135271925520a2f6c0d98c9473ffc1a1e72c92502f51b25e600080a1005b60405163bb0684b760e01b8152600490fd5b610e52915060203d81116103985761038a8183611dbe565b81610df6565b346103ab5760003660031901126103ab576020603b54604051908152f35b346103ab5760403660031901126103ab57610e8f611cea565b600435600052603760205260406000209060018060a01b03166000526020526020604060002054604051908152f35b346103ab5760003660031901126103ab57602060405160008152f35b346103ab5760003660031901126103ab5760206040517f880a91047114272656e533301261260c75e4d11543ac7303d6fe4204579ec7278152f35b346103ab5760003660031901126103ab576020604054604051908152f35b346103ab5760803660031901126103ab57600435610f4f611cea565b610f57611d00565b9060643592610f69610407338461213f565b60008181526037602090815260408083206001600160a01b03958616808552908352922054909391610f9b8783611e88565b9182116103ab578360005260378552604060002090600052845260406000205581600052603783526040600020931692836000528252610fe16040600020549485611e65565b9384106103ab576000526037815260406000209160005252604060002055600080f35b346103ab5761101236611d75565b9490939160018060a01b03918260005460101c16946040518096632474521560e21b825260008051602061238383398151915260048301523360248301528160446020998a935afa90811561039f57600091611154575b5015611142576110f96110d661113d996039978560005260368a528760406000209116600052895260018a8160406000208860005260358d526110b26040600020938254612182565b8155016110c0848254612182565b90556110cd838254612182565b81550154612254565b9783600052603788528560406000209316928360005288526040600020546121f3565b9160005260378652604060002090600052855260406000205516918260005281815261112a846040600020546121f3565b9260005252604060002055603c546121f3565b603c55005b604051635e9e090760e01b8152600490fd5b61116b9150873d89116103985761038a8183611dbe565b89611069565b346103ab5761117f36611d16565b600054604051632474521560e21b815260008051602061238383398151915260048201523360248201526020926001600160a01b039290919084908290604490829060101c87165afa90811561039f5760009161121f575b5015611142576112029185600052603784526040600020941693846000528352604060002054612182565b926000526037815260406000209160005252604060002055600080f35b6112369150843d86116103985761038a8183611dbe565b866111d7565b346103ab5760403660031901126103ab57611255611cd4565b61125d611cea565b60005460ff8160081c1615908180926114a8575b8015611491575b156114355760ff19811660011760005581611423575b506000549160ff8360081c16156113ca5762010000600160b01b03601085901b1662010000600160b01b031984168117600055936001600160a01b0391908216801590811561136d575b5061135b576001603355676765c793fa10079d601b1b603e556001603f556b04d8c55aefb8c05b5c0000006040551660018060a01b0319603a541617603a5561131d57005b610100600160b01b03191617600055604051600181527f7f26b83ff96e1f2b6a682f133852f6798a09c465da95921460cefb384740249890602090a1005b6040516384d942fd60e01b8152600490fd5b6040516301ffc9a760e01b8152637965db0b60e01b60048201529150602090829060249082905afa90811561039f576000916113ac575b5015866112d8565b6113c4915060203d81116103985761038a8183611dbe565b866113a4565b60405162461bcd60e51b815260206004820152602b60248201527f496e697469616c697a61626c653a20636f6e7472616374206973206e6f74206960448201526a6e697469616c697a696e6760a81b6064820152608490fd5b61ffff1916610101176000558361128e565b60405162461bcd60e51b815260206004820152602e60248201527f496e697469616c697a61626c653a20636f6e747261637420697320616c72656160448201526d191e481a5b9a5d1a585b1a5e995960921b6064820152608490fd5b50303b1580156112785750600160ff821614611278565b50600160ff821610611271565b346103ab5760a03660031901126103ab576004356114d1611cea565b6114d9611d00565b9160643592608435906114eb83611e95565b60008381526036602090815260408083206001600160a01b0388811685529083528184209085168452818420968452603583529220825491979295909290916115359082906121f3565b865561156460016115578189019361154e8986546121f3565b85558554612182565b9384815501958654612182565b80955554946115a260018401549461159c61159461158c611585898c612325565b988a612325565b9a339061213f565b91339061213f565b166120fa565b54906115b360048401548093612325565b84116116a357906115c391612325565b851161166457600301548093159110151715611624571591101517156115e557005b6064906040519062461bcd60e51b82526004820152601860248201527714d85999515b99da5b994bd919589d119b1bdbdc8b591cdd60421b6044820152fd5b60405162461bcd60e51b815260048101859052601860248201527753616665456e67696e652f64656274466c6f6f722d73726360401b6044820152606490fd5b60405162461bcd60e51b815260048101879052601760248201527614d85999515b99da5b994bdb9bdd0b5cd859994b591cdd604a1b6044820152606490fd5b60405162461bcd60e51b815260048101899052601760248201527653616665456e67696e652f6e6f742d736166652d73726360481b6044820152606490fd5b346103ab5760003660031901126103ab5760206040517f39f61ca2a1a28fee144218173ec637b649a353e4026b2738c673800e5bf1437b8152f35b346103ab5760003660031901126103ab576020603354604051908152f35b346103ab5760403660031901126103ab57611754611cea565b600435600052603660205260406000209060018060a01b03166000526020526040806000206001815491015482519182526020820152f35b346103ab5760003660031901126103ab57603a546040516001600160a01b039091168152602090f35b346103ab5760003660031901126103ab576020603d54604051908152f35b346103ab5760203660031901126103ab576004353360005260396020526040600020546118008282611e88565b9081116103ab57336000526039602052604060002055603860205260406000205461182b8282611e88565b9081116103ab57336000526038602052604060002055603c5461184e8282611e88565b9081116103ab57603c55611865603b549182611e88565b9081116103ab57603b55005b346103ab5760403660031901126103ab5760043561188d611cea565b9060018060a01b03908160005460101c16906040518092632474521560e21b82526000600483015233602483015281604460209586935afa90811561039f5760009161199c575b501561198a5780600052603582526001604060002001546119355760009081526035909152604090819020676765c793fa10079d601b1b60018201556006810180546001600160a01b03191693909416929092179092559054600590910155005b60405162461bcd60e51b815260048101839052602760248201527f53616665456e67696e652f636f6c6c61746572616c2d747970652d616c726561604482015266191e4b5a5b9a5d60ca1b6064820152608490fd5b604051631886ea7d60e11b8152600490fd5b6119b39150833d85116103985761038a8183611dbe565b856118d4565b346103ab5760003660031901126103ab576020603c54604051908152f35b346103ab576119e536611d40565b600054604051632474521560e21b8152600080516020612383833981519152600482015233602482015291936020936001600160a01b0393909285908290604490829060101c88165afa90811561039f57600091611ad1575b5015611142578216806000526039845260406000205490611a5f8683611e65565b9182106103ab576000526039845260406000205516806000526038825260406000205491611a8d8484611e65565b9283106103ab5760389160005252604060002055603c54611aae8282611e65565b9081106103ab57603c55611ac5603b549182611e65565b9081106103ab57603b55005b611ae89150853d87116103985761038a8183611dbe565b86611a3e565b346103ab5760203660031901126103ab576001600160a01b03611b0f611cd4565b1660005260396020526020604060002054604051908152f35b346103ab57611b3636611d16565b600054604051632474521560e21b81526000805160206123838339815191526004820152336024820152602092916001600160a01b03919084908290604490829060101c86165afa90811561039f57600091611bff575b501561114257611bce603892611bfa96611bab600160335414611e19565b60005260358552604060002060018101611bc6838254612182565b905554612254565b93169182600052818152611be784604060002054612182565b9260005252604060002055603b54612182565b603b55005b611c169150843d86116103985761038a8183611dbe565b86611b8d565b346103ab5760003660031901126103ab5760005460405160109190911c6001600160a01b03168152602090f35b346103ab5760203660031901126103ab5760043563ffffffff60e01b81168091036103ab576000546301ffc9a760e01b835260048301919091526020908290602490829060101c6001600160a01b03165afa801561039f57602091600091611cb7575b506040519015158152f35b611cce9150823d81116103985761038a8183611dbe565b82611cac565b600435906001600160a01b03821682036103ab57565b602435906001600160a01b03821682036103ab57565b604435906001600160a01b03821682036103ab57565b60609060031901126103ab57600435906024356001600160a01b03811681036103ab579060443590565b60609060031901126103ab576001600160a01b039060043582811681036103ab579160243590811681036103ab579060443590565b60c09060031901126103ab57600435906001600160a01b0360243581811681036103ab579160443582811681036103ab579160643590811681036103ab57906084359060a43590565b601f909101601f19168101906001600160401b03821190821017610d4257604052565b908160209103126103ab575180151581036103ab5790565b8115611e03570490565b634e487b7160e01b600052601260045260246000fd5b15611e2057565b60405162461bcd60e51b815260206004820152601e60248201527f53616665456e67696e652f6e6f742d636f6e7472616374456e61626c656400006044820152606490fd5b91908201809211611e7257565b634e487b7160e01b600052601160045260246000fd5b91908203918211611e7257565b9060008281526020926035845260409060078284200154156000146120da578083526035855243600783852001555b8083526035855281832060060154825163313ce56760e01b8152600496916001600160a01b039081169183818a81865afa9081156120d057918793918593859161208c575b5060ff1660128103611fe45750602490603a54169187519485938492632a5001c960e01b84528d8401525af1908115611fda578591611fa9575b505b633b9aca0090818102918183041490151715611f9657600794959691611f86611f73603593603e54906122f3565b8589528383526005878a200154906122f3565b9387525282852001554392200155565b634e487b7160e01b855260118752602485fd5b90508181813d8311611fd3575b611fc08183611dbe565b81010312611fcf575138611f43565b8480fd5b503d611fb6565b84513d87823e3d90fd5b92919350603a54169260248a8989519687948593632a5001c960e01b85528401525af191821561208257869261204f575b506012036012811161203c57604d811161203c579061203791600a0a90611df9565b611f45565b634e487b7160e01b865260118852602486fd5b9091508281813d831161207b575b6120678183611dbe565b8101031261207757519038612015565b8580fd5b503d61205d565b85513d88823e3d90fd5b929450509181813d83116120c9575b6120a58183611dbe565b810103126120c5575160ff811681036120c55791839160ff889490611f09565b8680fd5b503d61209b565b86513d89823e3d90fd5b6120ed60078385200154603f5490611e65565b4311611ec4575050509050565b1561210157565b60405162461bcd60e51b815260206004820152601660248201527514d85999515b99da5b994bdb9bdd0b585b1b1bddd95960521b6044820152606490fd5b9060018060a01b0380911691169081600052603460205260406000208160005260205260016040600020541491141790565b600160ff1b8114611e725760000390565b60008083128015949391929190806121db5761219e8284611e65565b955b906121d1575b156121cd578212908115916121c2575b50156121bf5750565b80fd5b9050831015386121b6565b8280fd5b50818511156121a6565b6121ed6121e783612171565b84611e88565b956121a0565b9091906000908184129081158261223b578361220f8784611e88565b965b13801590612231575b1561222d57916121c25750156121bf5750565b8380fd5b508186111561221a565b8361224e61224888612171565b84611e65565b96612211565b600080821293929091600160ff1b9180820283821487166122df578281058214831517156122df578096611fcf578115938415612298575b50505050156121bf5750565b909192936122cb5781146000198314166122b75705143880808061228c565b634e487b7160e01b84526011600452602484fd5b634e487b7160e01b85526012600452602485fd5b634e487b7160e01b85526011600452602485fd5b676765c793fa10079d601b1b808202929190811582850482141715611e72578304036103ab5761232291611df9565b90565b60009291801591821561233c575b5050156103ab57565b80820294509150811582850482141715611e725761235a9084611df9565b14388061233356fe3b5d4cc60d3ec3516ee8ae083bd60934f6eb2a6c54b1229985c41bfb092b26034f14c8366fa999817edc9f29824eb88a00cc31225e2156f399da4bc91049eb10b0fdd1623e42dbffda4acd8bd643e1cb69f00f0e83abeaa8150ee42cf0fd105ea26469706673582212200f652882ff815ebfdcbd130d823205dc2eb20733ee49c4d60853502d91de579a64736f6c63430008110033",
  "devdoc": {
    "custom:changes": "Replaced MakerDAOs `authorizedAccounts` with `SuAuthenticatedNonUpgradeable` for access control.                 Removed `LibNote` for event logging, requiring custom events (TODO).                 Added `ISuOracleAggregator` integration for dynamic safety price updates.                 Introduced `redemptionPrice`, `safetyPriceValidBlockAmount`, and `defaultLiquidationRatio`.                 Moved structs to `ISafeEngine` interface.",
    "custom:events": "No events are defined; custom events need to be added (as noted in FIXME).                Example placeholder events are included in comments but not emitted due to lack of definition.",
    "custom:security": "Only enabled contracts (`contractEnabled == 1`) allow state-changing operations.                 Administrative functions are restricted by SuAuthenticatedNonUpgradeable roles (DAO, Admin, DisablerAccess).                 Only authorized users/contracts (via `cdpRights`) can modify specific Safes or balances.                 Safety price updates rely on ISuOracleAggregator, which must provide reliable price feeds.",
    "custom:usage": "- **Initialization**: Deploy with access control and oracle addresses.   ```solidity   SafeEngine safeEngine = new SafeEngine(accessControlAddress, oracleAddress);   ``` - **Collateral Type Setup**: Initialize a collateral type with its token address.   ```solidity   safeEngine.initializeCollateralType(\"ETH-A\", ethTokenAddress);   ``` - **Parameter Modification**: DAO updates debt ceilings, redemption price, or liquidation ratios.   ```solidity   safeEngine.modifyParameters(\"globalDebtCeiling\", newCeiling); // Update global debt ceiling   safeEngine.modifyParameters(\"ETH-A\", \"debtCeiling\", newCeiling); // Update collateral debt ceiling   ``` - **Safe Operations**: Users or adapters modify Safe collateral/debt via DssProxyActions or direct calls.   ```solidity   safeEngine.modifySAFECollateralization(\"ETH-A\", safe, collateralSrc, debtDst, deltaCollateral, deltaDebt);   ``` - **Price Updates**: Trigger safety price updates for a collateral type.   ```solidity   safeEngine.updateSafetyPrice(\"ETH-A\"); // Refresh safety price from oracle   ``` - **Disabling**: DisablerAccess accounts can disable the contract.   ```solidity   safeEngine.disableContract(); // Halt operations   ```",
    "details": "Manages collateral, debt, and StablePro coin balances for Safes, tracks global and per-collateral-type debt limits,      and enforces collateralization ratios using safety prices from an oracle. Supports operations like collateral      deposit/withdrawal, debt generation/repayment, liquidation, and settlement. Uses SuAuthenticatedNonUpgradeable for      access control and integrates with ISuOracleAggregator for price feeds. Can be disabled by authorized accounts to      halt operations. This contract is a fork of MakerDAOs Vat.sol, adapted for StableUnit with features like dynamic      safety price updates and redemption price.",
    "kind": "dev",
    "methods": {
      "approveSAFEModification(address)": {
        "details": "Sets `cdpRights[msg.sender][usr] = 1`.",
        "params": {
          "usr": "Address to grant modification rights."
        }
      },
      "confiscateSAFECollateralAndDebt(bytes32,address,address,address,int256,int256)": {
        "custom:access": "OnlyCDPAccess",
        "details": "Transfers collateral and debt to counterparties, typically for auctions. Requires CDP access permissions.",
        "params": {
          "cdp": "Address of the Safe to confiscate.",
          "collateralCounterparty": "Address to debit collateral from.",
          "collateralType": "Unique identifier for the collateral type.",
          "debtCounterparty": "Address to debit debt from.",
          "deltaCollateral": "Amount to confiscate collateral [wad].",
          "deltaDebt": "Amount to confiscate debt [wad]."
        }
      },
      "constructor": {
        "custom:oz-upgrades-unsafe-allow": "constructor"
      },
      "createUnbackedDebt(address,address,uint256)": {
        "custom:access": "OnlyCDPAccess",
        "details": "Increases debt and coin balances for destination addresses. Requires CDP access permissions.",
        "params": {
          "coinDestination": "Address to assign the StablePro coins.",
          "debtDestination": "Address to assign the unbacked debt.",
          "rad": "Amount of unbacked debt to create [rad]."
        }
      },
      "denySAFEModification(address)": {
        "details": "Sets `cdpRights[msg.sender][usr] = 0`.",
        "params": {
          "usr": "Address to revoke modification rights."
        }
      },
      "disableContract()": {
        "custom:access": "OnlyDisablerAccess",
        "details": "Sets `contractEnabled` to 0 and emits a placeholder event. Only callable by DisablerAccess accounts."
      },
      "initialize(address,address)": {
        "details": "Sets initial state: contract enabled, redemption price to 1e27, safety price validity to 1 block,      and default liquidation ratio to 150%. Inherits access control from SuAuthenticatedNonUpgradeable.",
        "params": {
          "accessControl": "Address of the access control singleton contract.",
          "oracle": "Address of the ISuOracleAggregator contract."
        }
      },
      "initializeCollateralType(bytes32,address)": {
        "custom:access": "OnlyAdmin",
        "details": "Sets accumulated rate to 1e27 and assigns the collateral token address and default liquidation ratio.      Reverts if already initialized. Only callable by Admin.",
        "params": {
          "collateralAddress": "Address of the collateral token contract.",
          "collateralType": "Unique identifier for the collateral type (e.g., \"ETH-A\")."
        }
      },
      "modifyCollateralBalance(bytes32,address,int256)": {
        "custom:access": "OnlyCDPAccess",
        "details": "Adds or subtracts collateral tokens, typically called by CollateralJoin adapters.      Requires caller to have CDP access permissions.",
        "params": {
          "collateralType": "Unique identifier for the collateral type.",
          "usr": "Address to modify the collateral balance for.",
          "wad": "Amount to add (positive) or subtract (negative) [wad]."
        }
      },
      "modifyParameters(bytes32,bytes32,uint256)": {
        "custom:access": "OnlyDAO",
        "details": "Updates parameters like debt ceiling, debt floor, or liquidation ratio.      Requires contract to be enabled. Only callable by DAO.",
        "params": {
          "collateralType": "Unique identifier for the collateral type.",
          "data": "New value for the parameter.",
          "what": "Parameter to modify (e.g., \"debtCeiling\", \"liquidationRatio\")."
        }
      },
      "modifyParameters(bytes32,uint256)": {
        "custom:access": "OnlyDAO",
        "details": "Updates parameters like global debt ceiling, redemption price, default liquidation ratio, or safety price validity.      Requires contract to be enabled. Only callable by DAO.",
        "params": {
          "data": "New value for the parameter.",
          "what": "Parameter to modify (e.g., \"globalDebtCeiling\", \"redemptionPrice\")."
        }
      },
      "modifySAFECollateralization(bytes32,address,address,address,int256,int256)": {
        "details": "Updates Safe state, checks debt ceilings, collateralization ratio, and permissions.      Requires contract to be enabled and collateral type to be initialized.",
        "params": {
          "cdp": "Address of the Safe to modify.",
          "collateralSource": "Address to debit/credit collateral.",
          "collateralType": "Unique identifier for the collateral type.",
          "debtDestination": "Address to debit/credit debt.",
          "deltaCollateral": "Amount to add (positive) or remove (negative) collateral [wad].",
          "deltaDebt": "Amount to add (positive) or remove (negative) debt [wad]."
        }
      },
      "settleDebt(uint256)": {
        "details": "Reduces debt and coin balances for the caller, typically used by AccountingEngine.",
        "params": {
          "rad": "Amount of debt to settle [rad]."
        }
      },
      "supportsInterface(bytes4)": {
        "details": "Returns true if this contract implements the interface defined by `interfaceId`. See the corresponding https://eips.ethereum.org/EIPS/eip-165#how-interfaces-are-identified[EIP section] to learn more about how these ids are created. This function call must use less than 30 000 gas."
      },
      "transferCollateral(bytes32,address,address,uint256)": {
        "details": "Requires the caller to have permission to modify the source addresss Safe.",
        "params": {
          "collateralType": "Unique identifier for the collateral type.",
          "dst": "Destination address to credit collateral to.",
          "src": "Source address to debit collateral from.",
          "wad": "Amount of collateral to transfer [wad]."
        }
      },
      "transferInternalCoins(address,address,uint256)": {
        "details": "Requires the caller to have permission to modify the source addresss Safe.",
        "params": {
          "dst": "Destination address to credit coins to.",
          "rad": "Amount of StablePro coins to transfer [rad].",
          "src": "Source address to debit coins from."
        }
      },
      "transferSAFECollateralAndDebt(bytes32,address,address,int256,int256)": {
        "details": "Updates source and destination Safe states, ensuring collateralization and debt floor requirements.      Requires caller to have permission for both Safes.",
        "params": {
          "collateralType": "Unique identifier for the collateral type.",
          "deltaCollateral": "Amount to transfer collateral [wad].",
          "deltaDebt": "Amount to transfer debt [wad].",
          "dst": "Address of the destination Safe.",
          "src": "Address of the source Safe."
        }
      },
      "updateAccumulatedRate(bytes32,address,int256)": {
        "custom:access": "OnlyCDPAccess",
        "details": "Adjusts the collateral types rate and credits surplus to the destination address.      Requires contract to be enabled and CDP access permissions.",
        "params": {
          "accumulatedRate": "Change in accumulated rate [ray].",
          "collateralType": "Unique identifier for the collateral type.",
          "surplusDst": "Address to credit surplus StablePro coins."
        }
      },
      "updateSafetyPrice(bytes32)": {
        "details": "Fetches the collaterals fiat price from ISuOracleAggregator, adjusts for token decimals,      and calculates the safety price as (realPrice / redemptionPrice / liquidationRatio).      Only updates if the current safety price is unset or expired based on `safetyPriceValidBlockAmount`.",
        "params": {
          "collateralType": "Unique identifier for the collateral type."
        }
      }
    },
    "title": "SafeEngine",
    "version": 1
  },
  "userdoc": {
    "kind": "user",
    "methods": {
      "ORACLE()": {
        "notice": "Oracle aggregator providing collateral price feeds."
      },
      "approveSAFEModification(address)": {
        "notice": "Grants a user permission to modify the callers Safe."
      },
      "cdpRights(address,address)": {
        "notice": "Maps Safe owners to operators with permission to modify their Safes."
      },
      "coinBalance(address)": {
        "notice": "Tracks internal StablePro coin balances per user [rad]."
      },
      "collateralTypes(bytes32)": {
        "notice": "Maps collateral types to their configuration (e.g., debt ceiling, safety price)."
      },
      "confiscateSAFECollateralAndDebt(bytes32,address,address,address,int256,int256)": {
        "notice": "Confiscates collateral and debt from a Safe during liquidation."
      },
      "contractEnabled()": {
        "notice": "Tracks whether the contract is enabled (1) or disabled (0)."
      },
      "createUnbackedDebt(address,address,uint256)": {
        "notice": "Creates unbacked debt, typically for bad debt handling."
      },
      "debtBalance(address)": {
        "notice": "Tracks debt balances per user, offsetting coin balances [rad]."
      },
      "defaultLiquidationRatio()": {
        "notice": "Default liquidation ratio set for new collateral types (e.g., 150%) [ray]."
      },
      "denySAFEModification(address)": {
        "notice": "Revokes a users permission to modify the callers Safe."
      },
      "disableContract()": {
        "notice": "Disables the contract, preventing further state-changing operations."
      },
      "globalDebt()": {
        "notice": "Total debt issued across all Safes [rad]."
      },
      "globalDebtCeiling()": {
        "notice": "Maximum debt allowed across all Safes [rad]."
      },
      "globalUnbackedDebt()": {
        "notice": "Total unbacked debt not covered by collateral [rad]."
      },
      "initialize(address,address)": {
        "notice": "Initializes the SafeEngine with access control and oracle addresses."
      },
      "initializeCollateralType(bytes32,address)": {
        "notice": "Initializes a new collateral type with its token address."
      },
      "modifyCollateralBalance(bytes32,address,int256)": {
        "notice": "Modifies a users collateral balance for a collateral type."
      },
      "modifyParameters(bytes32,bytes32,uint256)": {
        "notice": "Modifies parameters for a specific collateral type."
      },
      "modifyParameters(bytes32,uint256)": {
        "notice": "Modifies global protocol parameters."
      },
      "modifySAFECollateralization(bytes32,address,address,address,int256,int256)": {
        "notice": "Modifies a Safes collateral and debt, ensuring collateralization requirements."
      },
      "redemptionPrice()": {
        "notice": "Reference price per StablePro, defaulting to 1e27 (1:1 USD) [ray]."
      },
      "safes(bytes32,address)": {
        "notice": "Maps collateral types and Safe addresses to their state (collateral and debt)."
      },
      "safetyPriceValidBlockAmount()": {
        "notice": "Number of blocks a safety price remains valid."
      },
      "settleDebt(uint256)": {
        "notice": "Settles debt using available StablePro coin balance."
      },
      "tokenCollateral(bytes32,address)": {
        "notice": "Tracks collateral balances per collateral type and user [wad]."
      },
      "transferCollateral(bytes32,address,address,uint256)": {
        "notice": "Transfers collateral between two addresses for a collateral type."
      },
      "transferInternalCoins(address,address,uint256)": {
        "notice": "Transfers internal StablePro coins between two addresses."
      },
      "transferSAFECollateralAndDebt(bytes32,address,address,int256,int256)": {
        "notice": "Transfers collateral and debt between two Safes."
      },
      "updateAccumulatedRate(bytes32,address,int256)": {
        "notice": "Updates the accumulated stability fee rate for a collateral type."
      },
      "updateSafetyPrice(bytes32)": {
        "notice": "Updates the safety price for a collateral type using oracle data."
      }
    },
    "notice": "Core accounting and state management contract for collateralized debt positions (Safes) in the StableUnit protocol.",
    "version": 1
  },
  "storageLayout": {
    "storage": [
      {
        "astId": 1226,
        "contract": "contracts/makerdao/core/SafeEngine.sol:SafeEngine",
        "label": "_initialized",
        "offset": 0,
        "slot": "0",
        "type": "t_uint8"
      },
      {
        "astId": 1229,
        "contract": "contracts/makerdao/core/SafeEngine.sol:SafeEngine",
        "label": "_initializing",
        "offset": 1,
        "slot": "0",
        "type": "t_bool"
      },
      {
        "astId": 24747,
        "contract": "contracts/makerdao/core/SafeEngine.sol:SafeEngine",
        "label": "ACCESS_CONTROL_SINGLETON",
        "offset": 2,
        "slot": "0",
        "type": "t_contract(ISuAccessControl)31989"
      },
      {
        "astId": 25018,
        "contract": "contracts/makerdao/core/SafeEngine.sol:SafeEngine",
        "label": "__gap",
        "offset": 0,
        "slot": "1",
        "type": "t_array(t_uint256)50_storage"
      },
      {
        "astId": 47163,
        "contract": "contracts/makerdao/core/SafeEngine.sol:SafeEngine",
        "label": "contractEnabled",
        "offset": 0,
        "slot": "51",
        "type": "t_uint256"
      },
      {
        "astId": 47184,
        "contract": "contracts/makerdao/core/SafeEngine.sol:SafeEngine",
        "label": "cdpRights",
        "offset": 0,
        "slot": "52",
        "type": "t_mapping(t_address,t_mapping(t_address,t_uint256))"
      },
      {
        "astId": 47246,
        "contract": "contracts/makerdao/core/SafeEngine.sol:SafeEngine",
        "label": "collateralTypes",
        "offset": 0,
        "slot": "53",
        "type": "t_mapping(t_bytes32,t_struct(CollateralType)53460_storage)"
      },
      {
        "astId": 47254,
        "contract": "contracts/makerdao/core/SafeEngine.sol:SafeEngine",
        "label": "safes",
        "offset": 0,
        "slot": "54",
        "type": "t_mapping(t_bytes32,t_mapping(t_address,t_struct(SAFE)53465_storage))"
      },
      {
        "astId": 47261,
        "contract": "contracts/makerdao/core/SafeEngine.sol:SafeEngine",
        "label": "tokenCollateral",
        "offset": 0,
        "slot": "55",
        "type": "t_mapping(t_bytes32,t_mapping(t_address,t_uint256))"
      },
      {
        "astId": 47266,
        "contract": "contracts/makerdao/core/SafeEngine.sol:SafeEngine",
        "label": "coinBalance",
        "offset": 0,
        "slot": "56",
        "type": "t_mapping(t_address,t_uint256)"
      },
      {
        "astId": 47271,
        "contract": "contracts/makerdao/core/SafeEngine.sol:SafeEngine",
        "label": "debtBalance",
        "offset": 0,
        "slot": "57",
        "type": "t_mapping(t_address,t_uint256)"
      },
      {
        "astId": 47275,
        "contract": "contracts/makerdao/core/SafeEngine.sol:SafeEngine",
        "label": "ORACLE",
        "offset": 0,
        "slot": "58",
        "type": "t_contract(ISuOracleAggregator)33132"
      },
      {
        "astId": 47278,
        "contract": "contracts/makerdao/core/SafeEngine.sol:SafeEngine",
        "label": "globalDebt",
        "offset": 0,
        "slot": "59",
        "type": "t_uint256"
      },
      {
        "astId": 47281,
        "contract": "contracts/makerdao/core/SafeEngine.sol:SafeEngine",
        "label": "globalUnbackedDebt",
        "offset": 0,
        "slot": "60",
        "type": "t_uint256"
      },
      {
        "astId": 47284,
        "contract": "contracts/makerdao/core/SafeEngine.sol:SafeEngine",
        "label": "globalDebtCeiling",
        "offset": 0,
        "slot": "61",
        "type": "t_uint256"
      },
      {
        "astId": 47287,
        "contract": "contracts/makerdao/core/SafeEngine.sol:SafeEngine",
        "label": "redemptionPrice",
        "offset": 0,
        "slot": "62",
        "type": "t_uint256"
      },
      {
        "astId": 47290,
        "contract": "contracts/makerdao/core/SafeEngine.sol:SafeEngine",
        "label": "safetyPriceValidBlockAmount",
        "offset": 0,
        "slot": "63",
        "type": "t_uint256"
      },
      {
        "astId": 47293,
        "contract": "contracts/makerdao/core/SafeEngine.sol:SafeEngine",
        "label": "defaultLiquidationRatio",
        "offset": 0,
        "slot": "64",
        "type": "t_uint256"
      }
    ],
    "types": {
      "t_address": {
        "encoding": "inplace",
        "label": "address",
        "numberOfBytes": "20"
      },
      "t_array(t_uint256)50_storage": {
        "base": "t_uint256",
        "encoding": "inplace",
        "label": "uint256[50]",
        "numberOfBytes": "1600"
      },
      "t_bool": {
        "encoding": "inplace",
        "label": "bool",
        "numberOfBytes": "1"
      },
      "t_bytes32": {
        "encoding": "inplace",
        "label": "bytes32",
        "numberOfBytes": "32"
      },
      "t_contract(ISuAccessControl)31989": {
        "encoding": "inplace",
        "label": "contract ISuAccessControl",
        "numberOfBytes": "20"
      },
      "t_contract(ISuOracleAggregator)33132": {
        "encoding": "inplace",
        "label": "contract ISuOracleAggregator",
        "numberOfBytes": "20"
      },
      "t_mapping(t_address,t_mapping(t_address,t_uint256))": {
        "encoding": "mapping",
        "key": "t_address",
        "label": "mapping(address => mapping(address => uint256))",
        "numberOfBytes": "32",
        "value": "t_mapping(t_address,t_uint256)"
      },
      "t_mapping(t_address,t_struct(SAFE)53465_storage)": {
        "encoding": "mapping",
        "key": "t_address",
        "label": "mapping(address => struct ISafeEngine.SAFE)",
        "numberOfBytes": "32",
        "value": "t_struct(SAFE)53465_storage"
      },
      "t_mapping(t_address,t_uint256)": {
        "encoding": "mapping",
        "key": "t_address",
        "label": "mapping(address => uint256)",
        "numberOfBytes": "32",
        "value": "t_uint256"
      },
      "t_mapping(t_bytes32,t_mapping(t_address,t_struct(SAFE)53465_storage))": {
        "encoding": "mapping",
        "key": "t_bytes32",
        "label": "mapping(bytes32 => mapping(address => struct ISafeEngine.SAFE))",
        "numberOfBytes": "32",
        "value": "t_mapping(t_address,t_struct(SAFE)53465_storage)"
      },
      "t_mapping(t_bytes32,t_mapping(t_address,t_uint256))": {
        "encoding": "mapping",
        "key": "t_bytes32",
        "label": "mapping(bytes32 => mapping(address => uint256))",
        "numberOfBytes": "32",
        "value": "t_mapping(t_address,t_uint256)"
      },
      "t_mapping(t_bytes32,t_struct(CollateralType)53460_storage)": {
        "encoding": "mapping",
        "key": "t_bytes32",
        "label": "mapping(bytes32 => struct ISafeEngine.CollateralType)",
        "numberOfBytes": "32",
        "value": "t_struct(CollateralType)53460_storage"
      },
      "t_struct(CollateralType)53460_storage": {
        "encoding": "inplace",
        "label": "struct ISafeEngine.CollateralType",
        "members": [
          {
            "astId": 53445,
            "contract": "contracts/makerdao/core/SafeEngine.sol:SafeEngine",
            "label": "debtAmount",
            "offset": 0,
            "slot": "0",
            "type": "t_uint256"
          },
          {
            "astId": 53447,
            "contract": "contracts/makerdao/core/SafeEngine.sol:SafeEngine",
            "label": "accumulatedRate",
            "offset": 0,
            "slot": "1",
            "type": "t_uint256"
          },
          {
            "astId": 53449,
            "contract": "contracts/makerdao/core/SafeEngine.sol:SafeEngine",
            "label": "debtCeiling",
            "offset": 0,
            "slot": "2",
            "type": "t_uint256"
          },
          {
            "astId": 53451,
            "contract": "contracts/makerdao/core/SafeEngine.sol:SafeEngine",
            "label": "debtFloor",
            "offset": 0,
            "slot": "3",
            "type": "t_uint256"
          },
          {
            "astId": 53453,
            "contract": "contracts/makerdao/core/SafeEngine.sol:SafeEngine",
            "label": "safetyPrice",
            "offset": 0,
            "slot": "4",
            "type": "t_uint256"
          },
          {
            "astId": 53455,
            "contract": "contracts/makerdao/core/SafeEngine.sol:SafeEngine",
            "label": "liquidationRatio",
            "offset": 0,
            "slot": "5",
            "type": "t_uint256"
          },
          {
            "astId": 53457,
            "contract": "contracts/makerdao/core/SafeEngine.sol:SafeEngine",
            "label": "collateralAddress",
            "offset": 0,
            "slot": "6",
            "type": "t_address"
          },
          {
            "astId": 53459,
            "contract": "contracts/makerdao/core/SafeEngine.sol:SafeEngine",
            "label": "safetyPriceBlockNumber",
            "offset": 0,
            "slot": "7",
            "type": "t_uint256"
          }
        ],
        "numberOfBytes": "256"
      },
      "t_struct(SAFE)53465_storage": {
        "encoding": "inplace",
        "label": "struct ISafeEngine.SAFE",
        "members": [
          {
            "astId": 53462,
            "contract": "contracts/makerdao/core/SafeEngine.sol:SafeEngine",
            "label": "lockedCollateral",
            "offset": 0,
            "slot": "0",
            "type": "t_uint256"
          },
          {
            "astId": 53464,
            "contract": "contracts/makerdao/core/SafeEngine.sol:SafeEngine",
            "label": "generatedDebt",
            "offset": 0,
            "slot": "1",
            "type": "t_uint256"
          }
        ],
        "numberOfBytes": "64"
      },
      "t_uint256": {
        "encoding": "inplace",
        "label": "uint256",
        "numberOfBytes": "32"
      },
      "t_uint8": {
        "encoding": "inplace",
        "label": "uint8",
        "numberOfBytes": "1"
      }
    }
  }
}