{
  "address": "0x55FCE353C25565D7b6E849B5A866386cD2bFd494",
  "abi": [
    {
      "inputs": [],
      "stateMutability": "nonpayable",
      "type": "constructor"
    },
    {
      "inputs": [],
      "name": "BadAccessControlSingleton",
      "type": "error"
    },
    {
      "inputs": [],
      "name": "OnlyAdminError",
      "type": "error"
    },
    {
      "inputs": [],
      "name": "OnlyAlerterError",
      "type": "error"
    },
    {
      "inputs": [],
      "name": "OnlyCDPAccessError",
      "type": "error"
    },
    {
      "inputs": [],
      "name": "OnlyDAOError",
      "type": "error"
    },
    {
      "inputs": [],
      "name": "OnlyDisablerAccessError",
      "type": "error"
    },
    {
      "inputs": [],
      "name": "OnlyLiquidationAccessError",
      "type": "error"
    },
    {
      "inputs": [],
      "name": "OnlyMintAccessError",
      "type": "error"
    },
    {
      "inputs": [],
      "name": "OnlyProxyActionsError",
      "type": "error"
    },
    {
      "inputs": [],
      "name": "OnlyRewardAccessError",
      "type": "error"
    },
    {
      "inputs": [],
      "name": "OnlyRoleError",
      "type": "error"
    },
    {
      "inputs": [],
      "name": "OnlyVaultAccessError",
      "type": "error"
    },
    {
      "inputs": [],
      "name": "OnlyVotingEscrowError",
      "type": "error"
    },
    {
      "inputs": [],
      "name": "onlyAuctionAccessRole",
      "type": "error"
    },
    {
      "anonymous": false,
      "inputs": [
        {
          "indexed": false,
          "internalType": "address",
          "name": "sender",
          "type": "address"
        },
        {
          "indexed": false,
          "internalType": "address",
          "name": "usr",
          "type": "address"
        }
      ],
      "name": "ApproveSAFEModification",
      "type": "event"
    },
    {
      "anonymous": false,
      "inputs": [
        {
          "indexed": false,
          "internalType": "bytes32",
          "name": "collateralType",
          "type": "bytes32"
        },
        {
          "indexed": false,
          "internalType": "address",
          "name": "cdp",
          "type": "address"
        },
        {
          "indexed": false,
          "internalType": "address",
          "name": "collateralCounterparty",
          "type": "address"
        },
        {
          "indexed": false,
          "internalType": "address",
          "name": "debtCounterparty",
          "type": "address"
        },
        {
          "indexed": false,
          "internalType": "int256",
          "name": "deltaCollateral",
          "type": "int256"
        },
        {
          "indexed": false,
          "internalType": "int256",
          "name": "deltaDebt",
          "type": "int256"
        },
        {
          "indexed": false,
          "internalType": "uint256",
          "name": "globalUnbackedDebt",
          "type": "uint256"
        }
      ],
      "name": "ConfiscateSAFECollateralAndDebt",
      "type": "event"
    },
    {
      "anonymous": false,
      "inputs": [
        {
          "indexed": false,
          "internalType": "address",
          "name": "debtDestination",
          "type": "address"
        },
        {
          "indexed": false,
          "internalType": "address",
          "name": "coinDestination",
          "type": "address"
        },
        {
          "indexed": false,
          "internalType": "uint256",
          "name": "rad",
          "type": "uint256"
        },
        {
          "indexed": false,
          "internalType": "uint256",
          "name": "debtBalance",
          "type": "uint256"
        },
        {
          "indexed": false,
          "internalType": "uint256",
          "name": "coinBalance",
          "type": "uint256"
        },
        {
          "indexed": false,
          "internalType": "uint256",
          "name": "globalUnbackedDebt",
          "type": "uint256"
        },
        {
          "indexed": false,
          "internalType": "uint256",
          "name": "globalDebt",
          "type": "uint256"
        }
      ],
      "name": "CreateUnbackedDebt",
      "type": "event"
    },
    {
      "anonymous": false,
      "inputs": [
        {
          "indexed": false,
          "internalType": "address",
          "name": "sender",
          "type": "address"
        },
        {
          "indexed": false,
          "internalType": "address",
          "name": "usr",
          "type": "address"
        }
      ],
      "name": "DenySAFEModification",
      "type": "event"
    },
    {
      "anonymous": false,
      "inputs": [],
      "name": "DisableContract",
      "type": "event"
    },
    {
      "anonymous": false,
      "inputs": [
        {
          "indexed": false,
          "internalType": "bytes32",
          "name": "collateralType",
          "type": "bytes32"
        }
      ],
      "name": "InitializeCollateralType",
      "type": "event"
    },
    {
      "anonymous": false,
      "inputs": [
        {
          "indexed": false,
          "internalType": "uint8",
          "name": "version",
          "type": "uint8"
        }
      ],
      "name": "Initialized",
      "type": "event"
    },
    {
      "anonymous": false,
      "inputs": [
        {
          "indexed": false,
          "internalType": "bytes32",
          "name": "collateralType",
          "type": "bytes32"
        },
        {
          "indexed": false,
          "internalType": "address",
          "name": "usr",
          "type": "address"
        },
        {
          "indexed": false,
          "internalType": "int256",
          "name": "wad",
          "type": "int256"
        }
      ],
      "name": "ModifyCollateralBalance",
      "type": "event"
    },
    {
      "anonymous": false,
      "inputs": [
        {
          "indexed": false,
          "internalType": "bytes32",
          "name": "what",
          "type": "bytes32"
        },
        {
          "indexed": false,
          "internalType": "uint256",
          "name": "data",
          "type": "uint256"
        }
      ],
      "name": "ModifyParameters",
      "type": "event"
    },
    {
      "anonymous": false,
      "inputs": [
        {
          "indexed": false,
          "internalType": "bytes32",
          "name": "collateralType",
          "type": "bytes32"
        },
        {
          "indexed": false,
          "internalType": "bytes32",
          "name": "what",
          "type": "bytes32"
        },
        {
          "indexed": false,
          "internalType": "uint256",
          "name": "data",
          "type": "uint256"
        }
      ],
      "name": "ModifyParameters",
      "type": "event"
    },
    {
      "anonymous": false,
      "inputs": [
        {
          "indexed": false,
          "internalType": "bytes32",
          "name": "collateralType",
          "type": "bytes32"
        },
        {
          "indexed": false,
          "internalType": "address",
          "name": "cdp",
          "type": "address"
        },
        {
          "indexed": false,
          "internalType": "address",
          "name": "collateralSource",
          "type": "address"
        },
        {
          "indexed": false,
          "internalType": "address",
          "name": "debtDestination",
          "type": "address"
        },
        {
          "indexed": false,
          "internalType": "int256",
          "name": "deltaCollateral",
          "type": "int256"
        },
        {
          "indexed": false,
          "internalType": "int256",
          "name": "deltaDebt",
          "type": "int256"
        },
        {
          "indexed": false,
          "internalType": "uint256",
          "name": "lockedCollateral",
          "type": "uint256"
        },
        {
          "indexed": false,
          "internalType": "uint256",
          "name": "generatedDebt",
          "type": "uint256"
        },
        {
          "indexed": false,
          "internalType": "uint256",
          "name": "globalDebt",
          "type": "uint256"
        }
      ],
      "name": "ModifySAFECollateralization",
      "type": "event"
    },
    {
      "anonymous": false,
      "inputs": [
        {
          "indexed": false,
          "internalType": "address",
          "name": "account",
          "type": "address"
        },
        {
          "indexed": false,
          "internalType": "uint256",
          "name": "rad",
          "type": "uint256"
        },
        {
          "indexed": false,
          "internalType": "uint256",
          "name": "debtBalance",
          "type": "uint256"
        },
        {
          "indexed": false,
          "internalType": "uint256",
          "name": "coinBalance",
          "type": "uint256"
        },
        {
          "indexed": false,
          "internalType": "uint256",
          "name": "globalUnbackedDebt",
          "type": "uint256"
        },
        {
          "indexed": false,
          "internalType": "uint256",
          "name": "globalDebt",
          "type": "uint256"
        }
      ],
      "name": "SettleDebt",
      "type": "event"
    },
    {
      "anonymous": false,
      "inputs": [
        {
          "indexed": false,
          "internalType": "bytes32",
          "name": "collateralType",
          "type": "bytes32"
        },
        {
          "indexed": false,
          "internalType": "address",
          "name": "src",
          "type": "address"
        },
        {
          "indexed": false,
          "internalType": "address",
          "name": "dst",
          "type": "address"
        },
        {
          "indexed": false,
          "internalType": "uint256",
          "name": "wad",
          "type": "uint256"
        }
      ],
      "name": "TransferCollateral",
      "type": "event"
    },
    {
      "anonymous": false,
      "inputs": [
        {
          "indexed": false,
          "internalType": "address",
          "name": "src",
          "type": "address"
        },
        {
          "indexed": false,
          "internalType": "address",
          "name": "dst",
          "type": "address"
        },
        {
          "indexed": false,
          "internalType": "uint256",
          "name": "rad",
          "type": "uint256"
        }
      ],
      "name": "TransferInternalCoins",
      "type": "event"
    },
    {
      "anonymous": false,
      "inputs": [
        {
          "indexed": false,
          "internalType": "bytes32",
          "name": "collateralType",
          "type": "bytes32"
        },
        {
          "indexed": false,
          "internalType": "address",
          "name": "src",
          "type": "address"
        },
        {
          "indexed": false,
          "internalType": "address",
          "name": "dst",
          "type": "address"
        },
        {
          "indexed": false,
          "internalType": "int256",
          "name": "deltaCollateral",
          "type": "int256"
        },
        {
          "indexed": false,
          "internalType": "int256",
          "name": "deltaDebt",
          "type": "int256"
        },
        {
          "indexed": false,
          "internalType": "uint256",
          "name": "srcLockedCollateral",
          "type": "uint256"
        },
        {
          "indexed": false,
          "internalType": "uint256",
          "name": "srcGeneratedDebt",
          "type": "uint256"
        },
        {
          "indexed": false,
          "internalType": "uint256",
          "name": "dstLockedCollateral",
          "type": "uint256"
        },
        {
          "indexed": false,
          "internalType": "uint256",
          "name": "dstGeneratedDebt",
          "type": "uint256"
        }
      ],
      "name": "TransferSAFECollateralAndDebt",
      "type": "event"
    },
    {
      "anonymous": false,
      "inputs": [
        {
          "indexed": false,
          "internalType": "bytes32",
          "name": "collateralType",
          "type": "bytes32"
        },
        {
          "indexed": false,
          "internalType": "address",
          "name": "surplusDst",
          "type": "address"
        },
        {
          "indexed": false,
          "internalType": "int256",
          "name": "accumulatedRate",
          "type": "int256"
        },
        {
          "indexed": false,
          "internalType": "uint256",
          "name": "globalDebt",
          "type": "uint256"
        }
      ],
      "name": "UpdateAccumulatedRate",
      "type": "event"
    },
    {
      "anonymous": false,
      "inputs": [
        {
          "indexed": false,
          "internalType": "bytes32",
          "name": "collateralType",
          "type": "bytes32"
        },
        {
          "indexed": false,
          "internalType": "uint256",
          "name": "safetyPrice",
          "type": "uint256"
        }
      ],
      "name": "UpdateSafetyPrice",
      "type": "event"
    },
    {
      "inputs": [],
      "name": "ACCESS_CONTROL_SINGLETON",
      "outputs": [
        {
          "internalType": "contract ISuAccessControl",
          "name": "",
          "type": "address"
        }
      ],
      "stateMutability": "view",
      "type": "function"
    },
    {
      "inputs": [],
      "name": "ADMIN_ROLE",
      "outputs": [
        {
          "internalType": "bytes32",
          "name": "",
          "type": "bytes32"
        }
      ],
      "stateMutability": "view",
      "type": "function"
    },
    {
      "inputs": [],
      "name": "ALERTER_ROLE",
      "outputs": [
        {
          "internalType": "bytes32",
          "name": "",
          "type": "bytes32"
        }
      ],
      "stateMutability": "view",
      "type": "function"
    },
    {
      "inputs": [],
      "name": "AUCTION_ACCESS_ROLE",
      "outputs": [
        {
          "internalType": "bytes32",
          "name": "",
          "type": "bytes32"
        }
      ],
      "stateMutability": "view",
      "type": "function"
    },
    {
      "inputs": [],
      "name": "CDP_ACCESS_ROLE",
      "outputs": [
        {
          "internalType": "bytes32",
          "name": "",
          "type": "bytes32"
        }
      ],
      "stateMutability": "view",
      "type": "function"
    },
    {
      "inputs": [],
      "name": "DAO_ROLE",
      "outputs": [
        {
          "internalType": "bytes32",
          "name": "",
          "type": "bytes32"
        }
      ],
      "stateMutability": "view",
      "type": "function"
    },
    {
      "inputs": [],
      "name": "DISABLER_ROLE",
      "outputs": [
        {
          "internalType": "bytes32",
          "name": "",
          "type": "bytes32"
        }
      ],
      "stateMutability": "view",
      "type": "function"
    },
    {
      "inputs": [],
      "name": "LIQUIDATION_ACCESS_ROLE",
      "outputs": [
        {
          "internalType": "bytes32",
          "name": "",
          "type": "bytes32"
        }
      ],
      "stateMutability": "view",
      "type": "function"
    },
    {
      "inputs": [],
      "name": "MINT_ACCESS_ROLE",
      "outputs": [
        {
          "internalType": "bytes32",
          "name": "",
          "type": "bytes32"
        }
      ],
      "stateMutability": "view",
      "type": "function"
    },
    {
      "inputs": [],
      "name": "ORACLE",
      "outputs": [
        {
          "internalType": "contract ISuOracleAggregator",
          "name": "",
          "type": "address"
        }
      ],
      "stateMutability": "view",
      "type": "function"
    },
    {
      "inputs": [],
      "name": "PROXY_ACTIONS_ROLE",
      "outputs": [
        {
          "internalType": "bytes32",
          "name": "",
          "type": "bytes32"
        }
      ],
      "stateMutability": "view",
      "type": "function"
    },
    {
      "inputs": [],
      "name": "REWARD_ACCESS_ROLE",
      "outputs": [
        {
          "internalType": "bytes32",
          "name": "",
          "type": "bytes32"
        }
      ],
      "stateMutability": "view",
      "type": "function"
    },
    {
      "inputs": [],
      "name": "VOTING_ESCROW_ROLE",
      "outputs": [
        {
          "internalType": "bytes32",
          "name": "",
          "type": "bytes32"
        }
      ],
      "stateMutability": "view",
      "type": "function"
    },
    {
      "inputs": [
        {
          "internalType": "address",
          "name": "usr",
          "type": "address"
        }
      ],
      "name": "approveSAFEModification",
      "outputs": [],
      "stateMutability": "nonpayable",
      "type": "function"
    },
    {
      "inputs": [
        {
          "internalType": "address",
          "name": "",
          "type": "address"
        },
        {
          "internalType": "address",
          "name": "",
          "type": "address"
        }
      ],
      "name": "cdpRights",
      "outputs": [
        {
          "internalType": "uint256",
          "name": "",
          "type": "uint256"
        }
      ],
      "stateMutability": "view",
      "type": "function"
    },
    {
      "inputs": [
        {
          "internalType": "address",
          "name": "",
          "type": "address"
        }
      ],
      "name": "coinBalance",
      "outputs": [
        {
          "internalType": "uint256",
          "name": "",
          "type": "uint256"
        }
      ],
      "stateMutability": "view",
      "type": "function"
    },
    {
      "inputs": [
        {
          "internalType": "bytes32",
          "name": "",
          "type": "bytes32"
        }
      ],
      "name": "collateralTypes",
      "outputs": [
        {
          "internalType": "uint256",
          "name": "debtAmount",
          "type": "uint256"
        },
        {
          "internalType": "uint256",
          "name": "accumulatedRate",
          "type": "uint256"
        },
        {
          "internalType": "uint256",
          "name": "debtCeiling",
          "type": "uint256"
        },
        {
          "internalType": "uint256",
          "name": "debtFloor",
          "type": "uint256"
        },
        {
          "internalType": "uint256",
          "name": "safetyPrice",
          "type": "uint256"
        },
        {
          "internalType": "uint256",
          "name": "liquidationRatio",
          "type": "uint256"
        },
        {
          "internalType": "address",
          "name": "collateralAddress",
          "type": "address"
        },
        {
          "internalType": "uint256",
          "name": "safetyPriceBlockNumber",
          "type": "uint256"
        }
      ],
      "stateMutability": "view",
      "type": "function"
    },
    {
      "inputs": [
        {
          "internalType": "bytes32",
          "name": "collateralType",
          "type": "bytes32"
        },
        {
          "internalType": "address",
          "name": "cdp",
          "type": "address"
        },
        {
          "internalType": "address",
          "name": "collateralCounterparty",
          "type": "address"
        },
        {
          "internalType": "address",
          "name": "debtCounterparty",
          "type": "address"
        },
        {
          "internalType": "int256",
          "name": "deltaCollateral",
          "type": "int256"
        },
        {
          "internalType": "int256",
          "name": "deltaDebt",
          "type": "int256"
        }
      ],
      "name": "confiscateSAFECollateralAndDebt",
      "outputs": [],
      "stateMutability": "nonpayable",
      "type": "function"
    },
    {
      "inputs": [],
      "name": "contractEnabled",
      "outputs": [
        {
          "internalType": "uint256",
          "name": "",
          "type": "uint256"
        }
      ],
      "stateMutability": "view",
      "type": "function"
    },
    {
      "inputs": [
        {
          "internalType": "address",
          "name": "debtDestination",
          "type": "address"
        },
        {
          "internalType": "address",
          "name": "coinDestination",
          "type": "address"
        },
        {
          "internalType": "uint256",
          "name": "rad",
          "type": "uint256"
        }
      ],
      "name": "createUnbackedDebt",
      "outputs": [],
      "stateMutability": "nonpayable",
      "type": "function"
    },
    {
      "inputs": [
        {
          "internalType": "address",
          "name": "",
          "type": "address"
        }
      ],
      "name": "debtBalance",
      "outputs": [
        {
          "internalType": "uint256",
          "name": "",
          "type": "uint256"
        }
      ],
      "stateMutability": "view",
      "type": "function"
    },
    {
      "inputs": [],
      "name": "defaultLiquidationRatio",
      "outputs": [
        {
          "internalType": "uint256",
          "name": "",
          "type": "uint256"
        }
      ],
      "stateMutability": "view",
      "type": "function"
    },
    {
      "inputs": [
        {
          "internalType": "address",
          "name": "usr",
          "type": "address"
        }
      ],
      "name": "denySAFEModification",
      "outputs": [],
      "stateMutability": "nonpayable",
      "type": "function"
    },
    {
      "inputs": [],
      "name": "disableContract",
      "outputs": [],
      "stateMutability": "nonpayable",
      "type": "function"
    },
    {
      "inputs": [],
      "name": "globalDebt",
      "outputs": [
        {
          "internalType": "uint256",
          "name": "",
          "type": "uint256"
        }
      ],
      "stateMutability": "view",
      "type": "function"
    },
    {
      "inputs": [],
      "name": "globalDebtCeiling",
      "outputs": [
        {
          "internalType": "uint256",
          "name": "",
          "type": "uint256"
        }
      ],
      "stateMutability": "view",
      "type": "function"
    },
    {
      "inputs": [],
      "name": "globalUnbackedDebt",
      "outputs": [
        {
          "internalType": "uint256",
          "name": "",
          "type": "uint256"
        }
      ],
      "stateMutability": "view",
      "type": "function"
    },
    {
      "inputs": [
        {
          "internalType": "address",
          "name": "accessControl",
          "type": "address"
        },
        {
          "internalType": "address",
          "name": "oracle",
          "type": "address"
        }
      ],
      "name": "initialize",
      "outputs": [],
      "stateMutability": "nonpayable",
      "type": "function"
    },
    {
      "inputs": [
        {
          "internalType": "bytes32",
          "name": "collateralType",
          "type": "bytes32"
        },
        {
          "internalType": "address",
          "name": "collateralAddress",
          "type": "address"
        }
      ],
      "name": "initializeCollateralType",
      "outputs": [],
      "stateMutability": "nonpayable",
      "type": "function"
    },
    {
      "inputs": [
        {
          "internalType": "bytes32",
          "name": "collateralType",
          "type": "bytes32"
        },
        {
          "internalType": "address",
          "name": "usr",
          "type": "address"
        },
        {
          "internalType": "int256",
          "name": "wad",
          "type": "int256"
        }
      ],
      "name": "modifyCollateralBalance",
      "outputs": [],
      "stateMutability": "nonpayable",
      "type": "function"
    },
    {
      "inputs": [
        {
          "internalType": "bytes32",
          "name": "collateralType",
          "type": "bytes32"
        },
        {
          "internalType": "bytes32",
          "name": "what",
          "type": "bytes32"
        },
        {
          "internalType": "uint256",
          "name": "data",
          "type": "uint256"
        }
      ],
      "name": "modifyParameters",
      "outputs": [],
      "stateMutability": "nonpayable",
      "type": "function"
    },
    {
      "inputs": [
        {
          "internalType": "bytes32",
          "name": "what",
          "type": "bytes32"
        },
        {
          "internalType": "uint256",
          "name": "data",
          "type": "uint256"
        }
      ],
      "name": "modifyParameters",
      "outputs": [],
      "stateMutability": "nonpayable",
      "type": "function"
    },
    {
      "inputs": [
        {
          "internalType": "bytes32",
          "name": "collateralType",
          "type": "bytes32"
        },
        {
          "internalType": "address",
          "name": "cdp",
          "type": "address"
        },
        {
          "internalType": "address",
          "name": "collateralSource",
          "type": "address"
        },
        {
          "internalType": "address",
          "name": "debtDestination",
          "type": "address"
        },
        {
          "internalType": "int256",
          "name": "deltaCollateral",
          "type": "int256"
        },
        {
          "internalType": "int256",
          "name": "deltaDebt",
          "type": "int256"
        }
      ],
      "name": "modifySAFECollateralization",
      "outputs": [],
      "stateMutability": "nonpayable",
      "type": "function"
    },
    {
      "inputs": [],
      "name": "redemptionPrice",
      "outputs": [
        {
          "internalType": "uint256",
          "name": "",
          "type": "uint256"
        }
      ],
      "stateMutability": "view",
      "type": "function"
    },
    {
      "inputs": [
        {
          "internalType": "bytes32",
          "name": "",
          "type": "bytes32"
        },
        {
          "internalType": "address",
          "name": "",
          "type": "address"
        }
      ],
      "name": "safes",
      "outputs": [
        {
          "internalType": "uint256",
          "name": "lockedCollateral",
          "type": "uint256"
        },
        {
          "internalType": "uint256",
          "name": "generatedDebt",
          "type": "uint256"
        }
      ],
      "stateMutability": "view",
      "type": "function"
    },
    {
      "inputs": [],
      "name": "safetyPriceValidBlockAmount",
      "outputs": [
        {
          "internalType": "uint256",
          "name": "",
          "type": "uint256"
        }
      ],
      "stateMutability": "view",
      "type": "function"
    },
    {
      "inputs": [
        {
          "internalType": "uint256",
          "name": "rad",
          "type": "uint256"
        }
      ],
      "name": "settleDebt",
      "outputs": [],
      "stateMutability": "nonpayable",
      "type": "function"
    },
    {
      "inputs": [
        {
          "internalType": "bytes4",
          "name": "interfaceId",
          "type": "bytes4"
        }
      ],
      "name": "supportsInterface",
      "outputs": [
        {
          "internalType": "bool",
          "name": "",
          "type": "bool"
        }
      ],
      "stateMutability": "view",
      "type": "function"
    },
    {
      "inputs": [
        {
          "internalType": "bytes32",
          "name": "",
          "type": "bytes32"
        },
        {
          "internalType": "address",
          "name": "",
          "type": "address"
        }
      ],
      "name": "tokenCollateral",
      "outputs": [
        {
          "internalType": "uint256",
          "name": "",
          "type": "uint256"
        }
      ],
      "stateMutability": "view",
      "type": "function"
    },
    {
      "inputs": [
        {
          "internalType": "bytes32",
          "name": "collateralType",
          "type": "bytes32"
        },
        {
          "internalType": "address",
          "name": "src",
          "type": "address"
        },
        {
          "internalType": "address",
          "name": "dst",
          "type": "address"
        },
        {
          "internalType": "uint256",
          "name": "wad",
          "type": "uint256"
        }
      ],
      "name": "transferCollateral",
      "outputs": [],
      "stateMutability": "nonpayable",
      "type": "function"
    },
    {
      "inputs": [
        {
          "internalType": "address",
          "name": "src",
          "type": "address"
        },
        {
          "internalType": "address",
          "name": "dst",
          "type": "address"
        },
        {
          "internalType": "uint256",
          "name": "rad",
          "type": "uint256"
        }
      ],
      "name": "transferInternalCoins",
      "outputs": [],
      "stateMutability": "nonpayable",
      "type": "function"
    },
    {
      "inputs": [
        {
          "internalType": "bytes32",
          "name": "collateralType",
          "type": "bytes32"
        },
        {
          "internalType": "address",
          "name": "src",
          "type": "address"
        },
        {
          "internalType": "address",
          "name": "dst",
          "type": "address"
        },
        {
          "internalType": "int256",
          "name": "deltaCollateral",
          "type": "int256"
        },
        {
          "internalType": "int256",
          "name": "deltaDebt",
          "type": "int256"
        }
      ],
      "name": "transferSAFECollateralAndDebt",
      "outputs": [],
      "stateMutability": "nonpayable",
      "type": "function"
    },
    {
      "inputs": [
        {
          "internalType": "bytes32",
          "name": "collateralType",
          "type": "bytes32"
        },
        {
          "internalType": "address",
          "name": "surplusDst",
          "type": "address"
        },
        {
          "internalType": "int256",
          "name": "accumulatedRate",
          "type": "int256"
        }
      ],
      "name": "updateAccumulatedRate",
      "outputs": [],
      "stateMutability": "nonpayable",
      "type": "function"
    },
    {
      "inputs": [
        {
          "internalType": "bytes32",
          "name": "collateralType",
          "type": "bytes32"
        }
      ],
      "name": "updateSafetyPrice",
      "outputs": [],
      "stateMutability": "nonpayable",
      "type": "function"
    }
  ],
  "numDeployments": 1,
  "solcInputHash": "8f84b6f1e4072e92a972e80f9a9e23c6",
  "bytecode": "0x60806040523480156200001157600080fd5b506200001c62000022565b620000e3565b600054610100900460ff16156200008f5760405162461bcd60e51b815260206004820152602760248201527f496e697469616c697a61626c653a20636f6e747261637420697320696e697469604482015266616c697a696e6760c81b606482015260840160405180910390fd5b60005460ff90811614620000e1576000805460ff191660ff9081179091556040519081527f7f26b83ff96e1f2b6a682f133852f6798a09c465da95921460cefb38474024989060200160405180910390a15b565b612c1280620000f36000396000f3fe608060405234801561001057600080fd5b50600436106102045760003560e01c806301ffc9a71461020957806303ee9f22146102315780630e9e11d31461025757806311005b071461026c5780631b1428201461029a5780631d2a783d146102ad57806320d8a59f146102b657806327a0bb33146102c95780632efcc866146102dc578063340517c9146102e557806338013f021461030c5780633d4225041461031f57806341b3a0d914610366578063438280dd1461036f578063476bb6ef14610396578063485cc955146103a95780634a11825e146103bc5780634e14a967146103cf5780634e5111a6146103e257806362a1e17b146103f557806371d0fb41146103fe57806375b238fc1461042557806376e0b4ca1461042d5780638543d5e014610458578063894ba833146104615780638e5313e01461046957806399bec31514610490578063a39b5580146104a3578063b38234f3146104ac578063bd5f5be6146104d3578063c5b748c0146104e8578063d07900bb146104f1578063d0e8fa8214610592578063d2351cee146105b9578063d49d7867146105ce578063d4b9311d14610605578063d94d420814610618578063da49bada14610650578063dc97e84e1461067b578063e401f2e7146106a2578063e9c26518146106b5578063efabcadc146106ca578063fabde80c146106dd578063fe4f5890146106fd575b600080fd5b61021c610217366004612649565b610710565b60405190151581526020015b60405180910390f35b60005461024a906201000090046001600160a01b031681565b6040516102289190612673565b61026a6102653660046126a3565b61078d565b005b61028c61027a3660046126d8565b60396020526000908152604090205481565b604051908152602001610228565b61026a6102a83660046126f3565b610933565b61028c603c5481565b61026a6102c436600461271f565b610afa565b61026a6102d736600461274b565b610c7b565b61028c603d5481565b61028c7f014f8da3222812608c449a44f4705585c5ce052eeb6f9af0af9209c64b0ba2de81565b603a5461024a906001600160a01b031681565b61035161032d36600461271f565b60366020908152600092835260408084209091529082529020805460019091015482565b60408051928352602083019190915201610228565b61028c60335481565b61028c7f39f61ca2a1a28fee144218173ec637b649a353e4026b2738c673800e5bf1437b81565b61026a6103a4366004612764565b610d78565b61026a6103b73660046127b2565b61106e565b61026a6103ca3660046126a3565b6111d2565b61026a6103dd3660046127dc565b611307565b61026a6103f036600461283b565b611522565b61028c60405481565b61028c7f880a91047114272656e533301261260c75e4d11543ac7303d6fe4204579ec72781565b61028c600081565b61028c61043b36600461271f565b603760209081526000928352604080842090915290825290205481565b61028c603b5481565b61026a611626565b61028c7fe453bacb314e78dcd5192e6b1a2b1f0e7c76e92f6b7e429a6a90f04e39db3b7681565b61026a61049e3660046127dc565b6116f9565b61028c603f5481565b61028c7fd83f5343da19b478b15a140c301a868be9e02603958f38fbd822b9d5c0a2891681565b61028c600080516020612bc683398151915281565b61028c603e5481565b61054e6104ff36600461274b565b603560205260009081526040902080546001820154600283015460038401546004850154600586015460068701546007909701549596949593949293919290916001600160a01b039091169088565b604080519889526020890197909752958701949094526060860192909252608085015260a08401526001600160a01b031660c083015260e082015261010001610228565b61028c7f76d0567582f23e1e9d7a13eeba60f9aea9d69b8da87ca27a8bf3698b35c653db81565b61028c600080516020612be683398151915281565b61026a6105dc3660046126d8565b3360009081526034602090815260408083206001600160a01b0394909416835292905290812055565b61026a61061336600461287f565b611c8c565b61026a6106263660046126d8565b3360009081526034602090815260408083206001600160a01b039490941683529290522060019055565b61028c61065e3660046127b2565b603460209081526000928352604080842090915290825290205481565b61028c7f9a9aef7c1247d5fc769b0185c052913e39673da29a880317dfd20ebf86f26a4981565b61026a6106b036600461274b565b611e7b565b61028c600080516020612ba683398151915281565b61026a6106d83660046126f3565b6120f6565b61028c6106eb3660046126d8565b60386020526000908152604090205481565b61026a61070b3660046128ab565b6121ca565b600080546040516301ffc9a760e01b8152620100009091046001600160a01b0316906301ffc9a7906107469085906004016128cd565b602060405180830381865afa158015610763573d6000803e3d6000fd5b505050506040513d601f19601f8201168201806040525081019061078791906128e2565b92915050565b600054604051632474521560e21b8152620100009091046001600160a01b0316906391d14854906107d290600080516020612bc6833981519152903390600401612904565b602060405180830381865afa1580156107ef573d6000803e3d6000fd5b505050506040513d601f19601f8201168201806040525081019061081391906128e2565b61083057604051635e9e090760e01b815260040160405180910390fd5b60335460011461085b5760405162461bcd60e51b81526004016108529061291b565b60405180910390fd5b600083815260356020526040902060018101546108789083612363565b6001820155805460009061088c90846123c5565b6001600160a01b0385166000908152603860205260409020549091506108b29082612363565b6001600160a01b038516600090815260386020526040902055603b546108d89082612363565b603b819055604080518781526001600160a01b03871660208201528082018690526060810192909252517fa77efa51558e27733220e3837e76992ab5f66f58c470d442e01b460a37df79ef9181900360800190a15050505050565b600054604051632474521560e21b8152620100009091046001600160a01b0316906391d148549061097890600080516020612bc6833981519152903390600401612904565b602060405180830381865afa158015610995573d6000803e3d6000fd5b505050506040513d601f19601f820116820180604052508101906109b991906128e2565b6109d657604051635e9e090760e01b815260040160405180910390fd5b6001600160a01b0383166000908152603960205260409020546109f990826123fe565b6001600160a01b03808516600090815260396020908152604080832094909455918516815260389091522054610a2f90826123fe565b6001600160a01b038316600090815260386020526040902055603c54610a5590826123fe565b603c55603b54610a6590826123fe565b603b8190556001600160a01b03848116600081815260396020908152604080832054948816808452603883529281902054603c5482519586529285019390935283018690526060830193909352608082015260a081019190915260c08101919091527fede723541c3aae745504c3732f6a7161031353ddf05caba15d48b1edd35646b99060e0015b60405180910390a1505050565b60008054604051632474521560e21b8152620100009091046001600160a01b0316916391d1485491610b3191903390600401612904565b602060405180830381865afa158015610b4e573d6000803e3d6000fd5b505050506040513d601f19601f82011682018060405250810190610b7291906128e2565b610b8f57604051631886ea7d60e11b815260040160405180910390fd5b60008281526035602052604090206001015415610bfe5760405162461bcd60e51b815260206004820152602760248201527f53616665456e67696e652f636f6c6c61746572616c2d747970652d616c726561604482015266191e4b5a5b9a5d60ca1b6064820152608401610852565b600082815260356020908152604091829020676765c793fa10079d601b1b60018201556006810180546001600160a01b0319166001600160a01b038616179055825460059091015590518381527f715b265758bcd4ecd311bede8dcca05c4b5819e0a2a5c4103abd702862ae2c3591015b60405180910390a15050565b33600081815260396020526040902054610c959083612419565b6001600160a01b038216600090815260396020908152604080832093909355603890522054610cc49083612419565b6001600160a01b038216600090815260386020526040902055603c54610cea9083612419565b603c55603b54610cfa9083612419565b603b8190556001600160a01b038216600081815260396020908152604080832054603883529281902054603c548251958652928501889052908401929092526060830191909152608082015260a08101919091527f11000f3497809a546a9de313df16f9ce615e1c65098ba758180e1cac823ed4159060c001610c6f565b610d8185611e7b565b60008581526036602090815260408083206001600160a01b0388811685529083528184209087168452818420898552603590935292208254610dc39086612434565b83556001830154610dd49085612434565b60018401558154610de59086612363565b82556001820154610df69085612363565b82600101819055506000610e1284600101548360010154612495565b90506000610e2884600101548460010154612495565b9050610e45610e378a336124b7565b610e418a336124b7565b1690565b610e615760405162461bcd60e51b815260040161085290612952565b610e7385600001548460040154612495565b821115610ebc5760405162461bcd60e51b815260206004820152601760248201527653616665456e67696e652f6e6f742d736166652d73726360481b6044820152606401610852565b610ece84600001548460040154612495565b811115610f175760405162461bcd60e51b815260206004820152601760248201527614d85999515b99da5b994bdb9bdd0b5cd859994b591cdd604a1b6044820152606401610852565b60038301546001860154159083101517610f6e5760405162461bcd60e51b815260206004820152601860248201527753616665456e67696e652f64656274466c6f6f722d73726360401b6044820152606401610852565b60038301546001850154159082101517610fc55760405162461bcd60e51b815260206004820152601860248201527714d85999515b99da5b994bd919589d119b1bdbdc8b591cdd60421b6044820152606401610852565b7f4b49cc19514005253f36d0517c21b92404f50cc0d9e0c070af00b96e296b08358a8a8a8a8a8a600001548b600101548b600001548c6001015460405161105a999897969594939291909889526001600160a01b0397881660208a01529590961660408801526060870193909352608086019190915260a085015260c084015260e08301919091526101008201526101200190565b60405180910390a150505050505050505050565b600054610100900460ff161580801561108e5750600054600160ff909116105b806110a85750303b1580156110a8575060005460ff166001145b61110b5760405162461bcd60e51b815260206004820152602e60248201527f496e697469616c697a61626c653a20636f6e747261637420697320616c72656160448201526d191e481a5b9a5d1a585b1a5e995960921b6064820152608401610852565b6000805460ff19166001179055801561112e576000805461ff0019166101001790555b611137836124f6565b60016033819055676765c793fa10079d601b1b603e819055603f91909155600a9061116390600f612998565b61116d91906129c5565b604055603a80546001600160a01b0319166001600160a01b03841617905580156111cd576000805461ff0019169055604051600181527f7f26b83ff96e1f2b6a682f133852f6798a09c465da95921460cefb384740249890602001610aed565b505050565b600054604051632474521560e21b8152620100009091046001600160a01b0316906391d148549061121790600080516020612bc6833981519152903390600401612904565b602060405180830381865afa158015611234573d6000803e3d6000fd5b505050506040513d601f19601f8201168201806040525081019061125891906128e2565b61127557604051635e9e090760e01b815260040160405180910390fd5b60008381526037602090815260408083206001600160a01b03861684529091529020546112a29082612363565b60008481526037602090815260408083206001600160a01b03871680855290835292819020939093558251868152908101919091529081018290527f488ac1e40bb6e5ee1f88b998568d1de4cb595e9ce0e0d4e4d4cc4c202053f10790606001610aed565b600054604051632474521560e21b8152620100009091046001600160a01b0316906391d148549061134c90600080516020612bc6833981519152903390600401612904565b602060405180830381865afa158015611369573d6000803e3d6000fd5b505050506040513d601f19601f8201168201806040525081019061138d91906128e2565b6113aa57604051635e9e090760e01b815260040160405180910390fd5b60008681526036602090815260408083206001600160a01b03891684528252808320898452603590925290912081546113e39085612363565b825560018201546113f49084612363565b600183015580546114059084612363565b8155600181015460009061141990856123c5565b60008a81526037602090815260408083206001600160a01b038c1684529091529020549091506114499086612434565b60008a81526037602090815260408083206001600160a01b03808d1685529083528184209490945592891682526039905220546114869082612434565b6001600160a01b038716600090815260396020526040902055603c546114ac9082612434565b603c819055604080518b81526001600160a01b038b811660208301528a811682840152891660608201526080810188905260a0810187905260c0810192909252517f9bef7b734be54aaed05e906c2ccf923767f44a93d136b674e212ce858a6d031c9181900360e00190a1505050505050505050565b61152c83336124b7565b6115485760405162461bcd60e51b815260040161085290612952565b60008481526037602090815260408083206001600160a01b03871684529091529020546115759082612419565b60008581526037602090815260408083206001600160a01b0388811685529252808320939093558416815220546115ac90826123fe565b60008581526037602090815260408083206001600160a01b038781168086529184529382902094909455805188815292871691830191909152810191909152606081018290527fb08760a077e71005cf3651212fdbd4028d6ebc8e1844c0475f36000f2756c0d7906080015b60405180910390a150505050565b600054604051632474521560e21b8152620100009091046001600160a01b0316906391d148549061166b90600080516020612be6833981519152903390600401612904565b602060405180830381865afa158015611688573d6000803e3d6000fd5b505050506040513d601f19601f820116820180604052508101906116ac91906128e2565b6116c95760405163bb0684b760e01b815260040160405180910390fd5b600060338190556040517f2d4b4ecff7bd7503135271925520a2f6c0d98c9473ffc1a1e72c92502f51b25e9190a1565b60335460011461171b5760405162461bcd60e51b81526004016108529061291b565b60008681526036602090815260408083206001600160a01b0389168452825291829020825180840190935280548352600101549082015261175b87611e7b565b60008781526035602090815260408083208151610100810183528154815260018201549381018490526002820154928101929092526003810154606083015260048101546080830152600581015460a083015260068101546001600160a01b031660c08301526007015460e082015291036118245760405162461bcd60e51b815260206004820152602360248201527f53616665456e67696e652f636f6c6c61746572616c2d747970652d6e6f742d696044820152621b9a5d60ea1b6064820152608401610852565b81516118309085612363565b825260208201516118419084612363565b602083015280516118529084612363565b8152602081015160009061186690856123c5565b9050600061187c83602001518560200151612495565b905061188a603b5483612363565b603b819055506118c460008613156118c085604001516118b287600001518860200151612495565b1115603d54603b5411151690565b1790565b61190e5760405162461bcd60e51b815260206004820152601b60248201527a14d85999515b99da5b994bd8d95a5b1a5b99cb595e18d959591959602a1b6044820152606401610852565b61193b611922600087131560008912151690565b61193486600001518660800151612495565b8311151790565b61197d5760405162461bcd60e51b815260206004820152601360248201527253616665456e67696e652f6e6f742d7361666560681b6044820152606401610852565b61199b611991600087131560008912151690565b6118c08b336124b7565b6119e25760405162461bcd60e51b815260206004820152601860248201527753616665456e67696e652f6e6f742d616c6c6f7765642d7560401b6044820152606401610852565b6119f460008713156118c08a336124b7565b611a3b5760405162461bcd60e51b815260206004820152601860248201527729b0b332a2b733b4b73297b737ba16b0b63637bbb2b216bb60411b6044820152606401610852565b611a4d60008612156118c089336124b7565b611a945760405162461bcd60e51b815260206004820152601860248201527753616665456e67696e652f6e6f742d616c6c6f7765642d7760401b6044820152606401610852565b60208401516060840151821015901517611ae75760405162461bcd60e51b815260206004820152601460248201527329b0b332a2b733b4b73297b232b13a233637b7b960611b6044820152606401610852565b60008a81526037602090815260408083206001600160a01b038c168452909152902054611b149087612434565b60008b81526037602090815260408083206001600160a01b03808e16855290835281842094909455928a168252603890522054611b519083612363565b6001600160a01b038089166000908152603860209081526040808320949094558d8252603681528382208d8416835281528382208851815588820180516001928301558f84526035835292859020885181559188015190820155868401516002820155606087015160038201556080870151600482015560a0870151600582015560c0870151600682018054919094166001600160a01b03199091161790925560e086015160079092019190915585519051603b5492517f182725621f9c0d485fb256f86699c82616bd6e4670325087fd08f643cab7d9179361105a938f938f938f938f938f938f93919290919889526001600160a01b0397881660208a01529587166040890152939095166060870152608086019190915260a085015260c084019290925260e08301919091526101008201526101200190565b600054604051632474521560e21b8152620100009091046001600160a01b0316906391d1485490611cd190600080516020612ba6833981519152903390600401612904565b602060405180830381865afa158015611cee573d6000803e3d6000fd5b505050506040513d601f19601f82011682018060405250810190611d1291906128e2565b611d2f5760405163599a6c3360e11b815260040160405180910390fd5b603354600114611d515760405162461bcd60e51b81526004016108529061291b565b816a646562744365696c696e6760a81b03611d7f576000838152603560205260409020600201819055611e3d565b81683232b13a233637b7b960b91b03611dab576000838152603560205260409020600301819055611e3d565b816f6c69717569646174696f6e526174696f60801b03611dde576000838152603560205260409020600501819055611e3d565b60405162461bcd60e51b815260206004820152602e60248201527f53616665456e67696e652f6d6f64696679506172616d65746572732d756e726560448201526d636f676e697a65642d706172616d60901b6064820152608401610852565b60408051848152602081018490529081018290527fc59b1109b54f213212d2f5af5c1dae5e887f9daa63b595578fae847cb048e8f490606001610aed565b6000818152603560205260408120600701549003611ead57600081815260356020526040902043600790910155611ed5565b603f546000828152603560205260409020600701544391611ecd916129d9565b10611ed55750565b600081815260356020908152604080832060060154815163313ce56760e01b815291516001600160a01b039091169392849263313ce56792600480830193928290030181865afa158015611f2d573d6000803e3d6000fd5b505050506040513d601f19601f82011682018060405250810190611f5191906129ec565b60ff169050600081601214611ff857611f6b826012612a0f565b611f7690600a612b06565b603a54604051632a5001c960e01b81526001600160a01b0390911690632a5001c990611fa6908790600401612673565b6020604051808303816000875af1158015611fc5573d6000803e3d6000fd5b505050506040513d601f19601f82011682018060405250810190611fe99190612b12565b611ff391906129c5565b61206b565b603a54604051632a5001c960e01b81526001600160a01b0390911690632a5001c990612028908690600401612673565b6020604051808303816000875af1158015612047573d6000803e3d6000fd5b505050506040513d601f19601f8201168201806040525081019061206b9190612b12565b90506120a061208961208183633b9aca00612998565b603e54612627565b600086815260356020526040902060050154612627565b600085815260356020526040908190206004810183905543600790910155517fc01d52afff4ef74ce150388c74343e4ab251d73f3d74ad8ab6365320a229c7279161161891879190918252602082015260400190565b61210083336124b7565b61211c5760405162461bcd60e51b815260040161085290612952565b6001600160a01b03831660009081526038602052604090205461213f9082612419565b6001600160a01b03808516600090815260386020526040808220939093559084168152205461216e90826123fe565b6001600160a01b038381166000818152603860209081526040918290209490945580519287168352928201529081018290527f4cd53b0b754082a31f5a6f3dc965c36d1d901c309830e0b4c17949aff97f0b1490606001610aed565b600054604051632474521560e21b8152620100009091046001600160a01b0316906391d148549061220f90600080516020612ba6833981519152903390600401612904565b602060405180830381865afa15801561222c573d6000803e3d6000fd5b505050506040513d601f19601f8201168201806040525081019061225091906128e2565b61226d5760405163599a6c3360e11b815260040160405180910390fd5b60335460011461228f5760405162461bcd60e51b81526004016108529061291b565b8170676c6f62616c446562744365696c696e6760781b036122b457603d81905561232d565b816e726564656d7074696f6e507269636560881b036122d757603e81905561232d565b817664656661756c744c69717569646174696f6e526174696f60481b0361230257604081905561232d565b817a1cd859995d1e541c9a58d955985b1a59109b1bd8dad05b5bdd5b9d602a1b03611dde57603f8190555b60408051838152602081018390527fac7c5c1afaef770ec56ac6268cd3f2fbb1035858ead2601d6553157c33036c3a9101610c6f565b600080821261237d5761237682846129d9565b9050612393565b61238682612b2b565b6123909084612a0f565b90505b6000821215806123a35750828111155b6123ac57600080fd5b6000821315806123bc5750828110155b61078757600080fd5b60006123d18284612b47565b905060008312156123e157600080fd5b8115806123bc5750826123f48383612b77565b1461078757600080fd5b60008261240b83826129d9565b915081101561078757600080fd5b6000826124268382612a0f565b915081111561078757600080fd5b600080821261244e576124478284612a0f565b9050612464565b61245782612b2b565b61246190846129d9565b90505b6000821315806124745750828111155b61247d57600080fd5b6000821215806123bc57508281101561078757600080fd5b60008115806123bc575082826124ab8183612998565b92506123f490836129c5565b6001600160a01b0382811660008181526034602090815260408083209486168084529490915281205490926124ef9214906001141790565b9392505050565b600054610100900460ff166125615760405162461bcd60e51b815260206004820152602b60248201527f496e697469616c697a61626c653a20636f6e7472616374206973206e6f74206960448201526a6e697469616c697a696e6760a81b6064820152608401610852565b6000805462010000600160b01b031916620100006001600160a01b03841690810291909117909155158061260657506040516301ffc9a760e01b81526001600160a01b038216906301ffc9a7906125c390637965db0b60e01b906004016128cd565b602060405180830381865afa1580156125e0573d6000803e3d6000fd5b505050506040513d601f19601f8201168201806040525081019061260491906128e2565b155b15612624576040516384d942fd60e01b815260040160405180910390fd5b50565b60008161263f84676765c793fa10079d601b1b612495565b6124ef91906129c5565b60006020828403121561265b57600080fd5b81356001600160e01b0319811681146124ef57600080fd5b6001600160a01b0391909116815260200190565b80356001600160a01b038116811461269e57600080fd5b919050565b6000806000606084860312156126b857600080fd5b833592506126c860208501612687565b9150604084013590509250925092565b6000602082840312156126ea57600080fd5b6124ef82612687565b60008060006060848603121561270857600080fd5b61271184612687565b92506126c860208501612687565b6000806040838503121561273257600080fd5b8235915061274260208401612687565b90509250929050565b60006020828403121561275d57600080fd5b5035919050565b600080600080600060a0868803121561277c57600080fd5b8535945061278c60208701612687565b935061279a60408701612687565b94979396509394606081013594506080013592915050565b600080604083850312156127c557600080fd5b6127ce83612687565b915061274260208401612687565b60008060008060008060c087890312156127f557600080fd5b8635955061280560208801612687565b945061281360408801612687565b935061282160608801612687565b92506080870135915060a087013590509295509295509295565b6000806000806080858703121561285157600080fd5b8435935061286160208601612687565b925061286f60408601612687565b9396929550929360600135925050565b60008060006060848603121561289457600080fd5b505081359360208301359350604090920135919050565b600080604083850312156128be57600080fd5b50508035926020909101359150565b6001600160e01b031991909116815260200190565b6000602082840312156128f457600080fd5b815180151581146124ef57600080fd5b9182526001600160a01b0316602082015260400190565b6020808252601e908201527f53616665456e67696e652f6e6f742d636f6e7472616374456e61626c65640000604082015260600190565b60208082526016908201527514d85999515b99da5b994bdb9bdd0b585b1b1bddd95960521b604082015260600190565b634e487b7160e01b600052601160045260246000fd5b808202811582820484141761078757610787612982565b634e487b7160e01b600052601260045260246000fd5b6000826129d4576129d46129af565b500490565b8082018082111561078757610787612982565b6000602082840312156129fe57600080fd5b815160ff811681146124ef57600080fd5b8181038181111561078757610787612982565b600181815b80851115612a5d578160001904821115612a4357612a43612982565b80851615612a5057918102915b93841c9390800290612a27565b509250929050565b600082612a7457506001610787565b81612a8157506000610787565b8160018114612a975760028114612aa157612abd565b6001915050610787565b60ff841115612ab257612ab2612982565b50506001821b610787565b5060208310610133831016604e8410600b8410161715612ae0575081810a610787565b612aea8383612a22565b8060001904821115612afe57612afe612982565b029392505050565b60006124ef8383612a65565b600060208284031215612b2457600080fd5b5051919050565b6000600160ff1b8201612b4057612b40612982565b5060000390565b80820260008212600160ff1b84141615612b6357612b63612982565b818105831482151761078757610787612982565b600082612b8657612b866129af565b600160ff1b821460001984141615612ba057612ba0612982565b50059056fe3b5d4cc60d3ec3516ee8ae083bd60934f6eb2a6c54b1229985c41bfb092b26034f14c8366fa999817edc9f29824eb88a00cc31225e2156f399da4bc91049eb10b0fdd1623e42dbffda4acd8bd643e1cb69f00f0e83abeaa8150ee42cf0fd105ea164736f6c6343000811000a",
  "devdoc": {
    "custom:changes": "Replaced MakerDAOs `authorizedAccounts` with `SuAuthenticatedNonUpgradeable` for access control.                 Removed `LibNote` for event logging, requiring custom events (TODO).                 Added `ISuOracleAggregator` integration for dynamic safety price updates.                 Introduced `redemptionPrice`, `safetyPriceValidBlockAmount`, and `defaultLiquidationRatio`.                 Moved structs to `ISafeEngine` interface.",
    "custom:events": "No events are defined; custom events need to be added (as noted in FIXME).                Example placeholder events are included in comments but not emitted due to lack of definition.",
    "custom:security": "Only enabled contracts (`contractEnabled == 1`) allow state-changing operations.                 Administrative functions are restricted by SuAuthenticatedNonUpgradeable roles (DAO, Admin, DisablerAccess).                 Only authorized users/contracts (via `cdpRights`) can modify specific Safes or balances.                 Safety price updates rely on ISuOracleAggregator, which must provide reliable price feeds.",
    "custom:usage": "- **Initialization**: Deploy with access control and oracle addresses.   ```solidity   SafeEngine safeEngine = new SafeEngine(accessControlAddress, oracleAddress);   ``` - **Collateral Type Setup**: Initialize a collateral type with its token address.   ```solidity   safeEngine.initializeCollateralType(\"ETH-A\", ethTokenAddress);   ``` - **Parameter Modification**: DAO updates debt ceilings, redemption price, or liquidation ratios.   ```solidity   safeEngine.modifyParameters(\"globalDebtCeiling\", newCeiling); // Update global debt ceiling   safeEngine.modifyParameters(\"ETH-A\", \"debtCeiling\", newCeiling); // Update collateral debt ceiling   ``` - **Safe Operations**: Users or adapters modify Safe collateral/debt via DssProxyActions or direct calls.   ```solidity   safeEngine.modifySAFECollateralization(\"ETH-A\", safe, collateralSrc, debtDst, deltaCollateral, deltaDebt);   ``` - **Price Updates**: Trigger safety price updates for a collateral type.   ```solidity   safeEngine.updateSafetyPrice(\"ETH-A\"); // Refresh safety price from oracle   ``` - **Disabling**: DisablerAccess accounts can disable the contract.   ```solidity   safeEngine.disableContract(); // Halt operations   ```",
    "details": "Manages collateral, debt, and StablePro coin balances for Safes, tracks global and per-collateral-type debt limits,      and enforces collateralization ratios using safety prices from an oracle. Supports operations like collateral      deposit/withdrawal, debt generation/repayment, liquidation, and settlement. Uses SuAuthenticatedNonUpgradeable for      access control and integrates with ISuOracleAggregator for price feeds. Can be disabled by authorized accounts to      halt operations. This contract is a fork of MakerDAOs Vat.sol, adapted for StableUnit with features like dynamic      safety price updates and redemption price.",
    "kind": "dev",
    "methods": {
      "approveSAFEModification(address)": {
        "details": "Sets `cdpRights[msg.sender][usr] = 1`.",
        "params": {
          "usr": "Address to grant modification rights."
        }
      },
      "confiscateSAFECollateralAndDebt(bytes32,address,address,address,int256,int256)": {
        "custom:access": "OnlyCDPAccess",
        "details": "Transfers collateral and debt to counterparties, typically for auctions. Requires CDP access permissions.",
        "params": {
          "cdp": "Address of the Safe to confiscate.",
          "collateralCounterparty": "Address to debit collateral from.",
          "collateralType": "Unique identifier for the collateral type.",
          "debtCounterparty": "Address to debit debt from.",
          "deltaCollateral": "Amount to confiscate collateral [wad].",
          "deltaDebt": "Amount to confiscate debt [wad]."
        }
      },
      "constructor": {
        "custom:oz-upgrades-unsafe-allow": "constructor"
      },
      "createUnbackedDebt(address,address,uint256)": {
        "custom:access": "OnlyCDPAccess",
        "details": "Increases debt and coin balances for destination addresses. Requires CDP access permissions.",
        "params": {
          "coinDestination": "Address to assign the StablePro coins.",
          "debtDestination": "Address to assign the unbacked debt.",
          "rad": "Amount of unbacked debt to create [rad]."
        }
      },
      "denySAFEModification(address)": {
        "details": "Sets `cdpRights[msg.sender][usr] = 0`.",
        "params": {
          "usr": "Address to revoke modification rights."
        }
      },
      "disableContract()": {
        "custom:access": "OnlyDisablerAccess",
        "details": "Sets `contractEnabled` to 0 and emits a placeholder event. Only callable by DisablerAccess accounts."
      },
      "initialize(address,address)": {
        "details": "Sets initial state: contract enabled, redemption price to 1e27, safety price validity to 1 block,      and default liquidation ratio to 150%. Inherits access control from SuAuthenticatedNonUpgradeable.",
        "params": {
          "accessControl": "Address of the access control singleton contract.",
          "oracle": "Address of the ISuOracleAggregator contract."
        }
      },
      "initializeCollateralType(bytes32,address)": {
        "custom:access": "OnlyAdmin",
        "details": "Sets accumulated rate to 1e27 and assigns the collateral token address and default liquidation ratio.      Reverts if already initialized. Only callable by Admin.",
        "params": {
          "collateralAddress": "Address of the collateral token contract.",
          "collateralType": "Unique identifier for the collateral type (e.g., \"ETH-A\")."
        }
      },
      "modifyCollateralBalance(bytes32,address,int256)": {
        "custom:access": "OnlyCDPAccess",
        "details": "Adds or subtracts collateral tokens, typically called by CollateralJoin adapters.      Requires caller to have CDP access permissions.",
        "params": {
          "collateralType": "Unique identifier for the collateral type.",
          "usr": "Address to modify the collateral balance for.",
          "wad": "Amount to add (positive) or subtract (negative) [wad]."
        }
      },
      "modifyParameters(bytes32,bytes32,uint256)": {
        "custom:access": "OnlyDAO",
        "details": "Updates parameters like debt ceiling, debt floor, or liquidation ratio.      Requires contract to be enabled. Only callable by DAO.",
        "params": {
          "collateralType": "Unique identifier for the collateral type.",
          "data": "New value for the parameter.",
          "what": "Parameter to modify (e.g., \"debtCeiling\", \"liquidationRatio\")."
        }
      },
      "modifyParameters(bytes32,uint256)": {
        "custom:access": "OnlyDAO",
        "details": "Updates parameters like global debt ceiling, redemption price, default liquidation ratio, or safety price validity.      Requires contract to be enabled. Only callable by DAO.",
        "params": {
          "data": "New value for the parameter.",
          "what": "Parameter to modify (e.g., \"globalDebtCeiling\", \"redemptionPrice\")."
        }
      },
      "modifySAFECollateralization(bytes32,address,address,address,int256,int256)": {
        "details": "Updates Safe state, checks debt ceilings, collateralization ratio, and permissions.      Requires contract to be enabled and collateral type to be initialized.",
        "params": {
          "cdp": "Address of the Safe to modify.",
          "collateralSource": "Address to debit/credit collateral.",
          "collateralType": "Unique identifier for the collateral type.",
          "debtDestination": "Address to debit/credit debt.",
          "deltaCollateral": "Amount to add (positive) or remove (negative) collateral [wad].",
          "deltaDebt": "Amount to add (positive) or remove (negative) debt [wad]."
        }
      },
      "settleDebt(uint256)": {
        "details": "Reduces debt and coin balances for the caller, typically used by AccountingEngine.",
        "params": {
          "rad": "Amount of debt to settle [rad]."
        }
      },
      "supportsInterface(bytes4)": {
        "details": "Returns true if this contract implements the interface defined by `interfaceId`. See the corresponding https://eips.ethereum.org/EIPS/eip-165#how-interfaces-are-identified[EIP section] to learn more about how these ids are created. This function call must use less than 30 000 gas."
      },
      "transferCollateral(bytes32,address,address,uint256)": {
        "details": "Requires the caller to have permission to modify the source addresss Safe.",
        "params": {
          "collateralType": "Unique identifier for the collateral type.",
          "dst": "Destination address to credit collateral to.",
          "src": "Source address to debit collateral from.",
          "wad": "Amount of collateral to transfer [wad]."
        }
      },
      "transferInternalCoins(address,address,uint256)": {
        "details": "Requires the caller to have permission to modify the source addresss Safe.",
        "params": {
          "dst": "Destination address to credit coins to.",
          "rad": "Amount of StablePro coins to transfer [rad].",
          "src": "Source address to debit coins from."
        }
      },
      "transferSAFECollateralAndDebt(bytes32,address,address,int256,int256)": {
        "details": "Updates source and destination Safe states, ensuring collateralization and debt floor requirements.      Requires caller to have permission for both Safes.",
        "params": {
          "collateralType": "Unique identifier for the collateral type.",
          "deltaCollateral": "Amount to transfer collateral [wad].",
          "deltaDebt": "Amount to transfer debt [wad].",
          "dst": "Address of the destination Safe.",
          "src": "Address of the source Safe."
        }
      },
      "updateAccumulatedRate(bytes32,address,int256)": {
        "custom:access": "OnlyCDPAccess",
        "details": "Adjusts the collateral types rate and credits surplus to the destination address.      Requires contract to be enabled and CDP access permissions.",
        "params": {
          "accumulatedRate": "Change in accumulated rate [ray].",
          "collateralType": "Unique identifier for the collateral type.",
          "surplusDst": "Address to credit surplus StablePro coins."
        }
      },
      "updateSafetyPrice(bytes32)": {
        "details": "Fetches the collaterals fiat price from ISuOracleAggregator, adjusts for token decimals,      and calculates the safety price as (realPrice / redemptionPrice / liquidationRatio).      Only updates if the current safety price is unset or expired based on `safetyPriceValidBlockAmount`.",
        "params": {
          "collateralType": "Unique identifier for the collateral type."
        }
      }
    },
    "title": "SafeEngine",
    "version": 1
  },
  "userdoc": {
    "kind": "user",
    "methods": {
      "ORACLE()": {
        "notice": "Oracle aggregator providing collateral price feeds."
      },
      "approveSAFEModification(address)": {
        "notice": "Grants a user permission to modify the callers Safe."
      },
      "cdpRights(address,address)": {
        "notice": "Maps Safe owners to operators with permission to modify their Safes."
      },
      "coinBalance(address)": {
        "notice": "Tracks internal StablePro coin balances per user [rad]."
      },
      "collateralTypes(bytes32)": {
        "notice": "Maps collateral types to their configuration (e.g., debt ceiling, safety price)."
      },
      "confiscateSAFECollateralAndDebt(bytes32,address,address,address,int256,int256)": {
        "notice": "Confiscates collateral and debt from a Safe during liquidation."
      },
      "contractEnabled()": {
        "notice": "Tracks whether the contract is enabled (1) or disabled (0)."
      },
      "createUnbackedDebt(address,address,uint256)": {
        "notice": "Creates unbacked debt, typically for bad debt handling."
      },
      "debtBalance(address)": {
        "notice": "Tracks debt balances per user, offsetting coin balances [rad]."
      },
      "defaultLiquidationRatio()": {
        "notice": "Default liquidation ratio set for new collateral types (e.g., 150%) [ray]."
      },
      "denySAFEModification(address)": {
        "notice": "Revokes a users permission to modify the callers Safe."
      },
      "disableContract()": {
        "notice": "Disables the contract, preventing further state-changing operations."
      },
      "globalDebt()": {
        "notice": "Total debt issued across all Safes [rad]."
      },
      "globalDebtCeiling()": {
        "notice": "Maximum debt allowed across all Safes [rad]."
      },
      "globalUnbackedDebt()": {
        "notice": "Total unbacked debt not covered by collateral [rad]."
      },
      "initialize(address,address)": {
        "notice": "Initializes the SafeEngine with access control and oracle addresses."
      },
      "initializeCollateralType(bytes32,address)": {
        "notice": "Initializes a new collateral type with its token address."
      },
      "modifyCollateralBalance(bytes32,address,int256)": {
        "notice": "Modifies a users collateral balance for a collateral type."
      },
      "modifyParameters(bytes32,bytes32,uint256)": {
        "notice": "Modifies parameters for a specific collateral type."
      },
      "modifyParameters(bytes32,uint256)": {
        "notice": "Modifies global protocol parameters."
      },
      "modifySAFECollateralization(bytes32,address,address,address,int256,int256)": {
        "notice": "Modifies a Safes collateral and debt, ensuring collateralization requirements."
      },
      "redemptionPrice()": {
        "notice": "Reference price per StablePro, defaulting to 1e27 (1:1 USD) [ray]."
      },
      "safes(bytes32,address)": {
        "notice": "Maps collateral types and Safe addresses to their state (collateral and debt)."
      },
      "safetyPriceValidBlockAmount()": {
        "notice": "Number of blocks a safety price remains valid."
      },
      "settleDebt(uint256)": {
        "notice": "Settles debt using available StablePro coin balance."
      },
      "tokenCollateral(bytes32,address)": {
        "notice": "Tracks collateral balances per collateral type and user [wad]."
      },
      "transferCollateral(bytes32,address,address,uint256)": {
        "notice": "Transfers collateral between two addresses for a collateral type."
      },
      "transferInternalCoins(address,address,uint256)": {
        "notice": "Transfers internal StablePro coins between two addresses."
      },
      "transferSAFECollateralAndDebt(bytes32,address,address,int256,int256)": {
        "notice": "Transfers collateral and debt between two Safes."
      },
      "updateAccumulatedRate(bytes32,address,int256)": {
        "notice": "Updates the accumulated stability fee rate for a collateral type."
      },
      "updateSafetyPrice(bytes32)": {
        "notice": "Updates the safety price for a collateral type using oracle data."
      }
    },
    "notice": "Core accounting and state management contract for collateralized debt positions (Safes) in the StableUnit protocol.",
    "version": 1
  },
  "storageLayout": {
    "storage": [
      {
        "astId": 1226,
        "contract": "contracts/makerdao/core/SafeEngine.sol:SafeEngine",
        "label": "_initialized",
        "offset": 0,
        "slot": "0",
        "type": "t_uint8"
      },
      {
        "astId": 1229,
        "contract": "contracts/makerdao/core/SafeEngine.sol:SafeEngine",
        "label": "_initializing",
        "offset": 1,
        "slot": "0",
        "type": "t_bool"
      },
      {
        "astId": 25605,
        "contract": "contracts/makerdao/core/SafeEngine.sol:SafeEngine",
        "label": "ACCESS_CONTROL_SINGLETON",
        "offset": 2,
        "slot": "0",
        "type": "t_contract(ISuAccessControl)32864"
      },
      {
        "astId": 25893,
        "contract": "contracts/makerdao/core/SafeEngine.sol:SafeEngine",
        "label": "__gap",
        "offset": 0,
        "slot": "1",
        "type": "t_array(t_uint256)50_storage"
      },
      {
        "astId": 88812,
        "contract": "contracts/makerdao/core/SafeEngine.sol:SafeEngine",
        "label": "contractEnabled",
        "offset": 0,
        "slot": "51",
        "type": "t_uint256"
      },
      {
        "astId": 88833,
        "contract": "contracts/makerdao/core/SafeEngine.sol:SafeEngine",
        "label": "cdpRights",
        "offset": 0,
        "slot": "52",
        "type": "t_mapping(t_address,t_mapping(t_address,t_uint256))"
      },
      {
        "astId": 88895,
        "contract": "contracts/makerdao/core/SafeEngine.sol:SafeEngine",
        "label": "collateralTypes",
        "offset": 0,
        "slot": "53",
        "type": "t_mapping(t_bytes32,t_struct(CollateralType)97124_storage)"
      },
      {
        "astId": 88903,
        "contract": "contracts/makerdao/core/SafeEngine.sol:SafeEngine",
        "label": "safes",
        "offset": 0,
        "slot": "54",
        "type": "t_mapping(t_bytes32,t_mapping(t_address,t_struct(SAFE)97129_storage))"
      },
      {
        "astId": 88910,
        "contract": "contracts/makerdao/core/SafeEngine.sol:SafeEngine",
        "label": "tokenCollateral",
        "offset": 0,
        "slot": "55",
        "type": "t_mapping(t_bytes32,t_mapping(t_address,t_uint256))"
      },
      {
        "astId": 88915,
        "contract": "contracts/makerdao/core/SafeEngine.sol:SafeEngine",
        "label": "coinBalance",
        "offset": 0,
        "slot": "56",
        "type": "t_mapping(t_address,t_uint256)"
      },
      {
        "astId": 88920,
        "contract": "contracts/makerdao/core/SafeEngine.sol:SafeEngine",
        "label": "debtBalance",
        "offset": 0,
        "slot": "57",
        "type": "t_mapping(t_address,t_uint256)"
      },
      {
        "astId": 88924,
        "contract": "contracts/makerdao/core/SafeEngine.sol:SafeEngine",
        "label": "ORACLE",
        "offset": 0,
        "slot": "58",
        "type": "t_contract(ISuOracleAggregator)34007"
      },
      {
        "astId": 88927,
        "contract": "contracts/makerdao/core/SafeEngine.sol:SafeEngine",
        "label": "globalDebt",
        "offset": 0,
        "slot": "59",
        "type": "t_uint256"
      },
      {
        "astId": 88930,
        "contract": "contracts/makerdao/core/SafeEngine.sol:SafeEngine",
        "label": "globalUnbackedDebt",
        "offset": 0,
        "slot": "60",
        "type": "t_uint256"
      },
      {
        "astId": 88933,
        "contract": "contracts/makerdao/core/SafeEngine.sol:SafeEngine",
        "label": "globalDebtCeiling",
        "offset": 0,
        "slot": "61",
        "type": "t_uint256"
      },
      {
        "astId": 88936,
        "contract": "contracts/makerdao/core/SafeEngine.sol:SafeEngine",
        "label": "redemptionPrice",
        "offset": 0,
        "slot": "62",
        "type": "t_uint256"
      },
      {
        "astId": 88939,
        "contract": "contracts/makerdao/core/SafeEngine.sol:SafeEngine",
        "label": "safetyPriceValidBlockAmount",
        "offset": 0,
        "slot": "63",
        "type": "t_uint256"
      },
      {
        "astId": 88942,
        "contract": "contracts/makerdao/core/SafeEngine.sol:SafeEngine",
        "label": "defaultLiquidationRatio",
        "offset": 0,
        "slot": "64",
        "type": "t_uint256"
      }
    ],
    "types": {
      "t_address": {
        "encoding": "inplace",
        "label": "address",
        "numberOfBytes": "20"
      },
      "t_array(t_uint256)50_storage": {
        "base": "t_uint256",
        "encoding": "inplace",
        "label": "uint256[50]",
        "numberOfBytes": "1600"
      },
      "t_bool": {
        "encoding": "inplace",
        "label": "bool",
        "numberOfBytes": "1"
      },
      "t_bytes32": {
        "encoding": "inplace",
        "label": "bytes32",
        "numberOfBytes": "32"
      },
      "t_contract(ISuAccessControl)32864": {
        "encoding": "inplace",
        "label": "contract ISuAccessControl",
        "numberOfBytes": "20"
      },
      "t_contract(ISuOracleAggregator)34007": {
        "encoding": "inplace",
        "label": "contract ISuOracleAggregator",
        "numberOfBytes": "20"
      },
      "t_mapping(t_address,t_mapping(t_address,t_uint256))": {
        "encoding": "mapping",
        "key": "t_address",
        "label": "mapping(address => mapping(address => uint256))",
        "numberOfBytes": "32",
        "value": "t_mapping(t_address,t_uint256)"
      },
      "t_mapping(t_address,t_struct(SAFE)97129_storage)": {
        "encoding": "mapping",
        "key": "t_address",
        "label": "mapping(address => struct ISafeEngine.SAFE)",
        "numberOfBytes": "32",
        "value": "t_struct(SAFE)97129_storage"
      },
      "t_mapping(t_address,t_uint256)": {
        "encoding": "mapping",
        "key": "t_address",
        "label": "mapping(address => uint256)",
        "numberOfBytes": "32",
        "value": "t_uint256"
      },
      "t_mapping(t_bytes32,t_mapping(t_address,t_struct(SAFE)97129_storage))": {
        "encoding": "mapping",
        "key": "t_bytes32",
        "label": "mapping(bytes32 => mapping(address => struct ISafeEngine.SAFE))",
        "numberOfBytes": "32",
        "value": "t_mapping(t_address,t_struct(SAFE)97129_storage)"
      },
      "t_mapping(t_bytes32,t_mapping(t_address,t_uint256))": {
        "encoding": "mapping",
        "key": "t_bytes32",
        "label": "mapping(bytes32 => mapping(address => uint256))",
        "numberOfBytes": "32",
        "value": "t_mapping(t_address,t_uint256)"
      },
      "t_mapping(t_bytes32,t_struct(CollateralType)97124_storage)": {
        "encoding": "mapping",
        "key": "t_bytes32",
        "label": "mapping(bytes32 => struct ISafeEngine.CollateralType)",
        "numberOfBytes": "32",
        "value": "t_struct(CollateralType)97124_storage"
      },
      "t_struct(CollateralType)97124_storage": {
        "encoding": "inplace",
        "label": "struct ISafeEngine.CollateralType",
        "members": [
          {
            "astId": 97109,
            "contract": "contracts/makerdao/core/SafeEngine.sol:SafeEngine",
            "label": "debtAmount",
            "offset": 0,
            "slot": "0",
            "type": "t_uint256"
          },
          {
            "astId": 97111,
            "contract": "contracts/makerdao/core/SafeEngine.sol:SafeEngine",
            "label": "accumulatedRate",
            "offset": 0,
            "slot": "1",
            "type": "t_uint256"
          },
          {
            "astId": 97113,
            "contract": "contracts/makerdao/core/SafeEngine.sol:SafeEngine",
            "label": "debtCeiling",
            "offset": 0,
            "slot": "2",
            "type": "t_uint256"
          },
          {
            "astId": 97115,
            "contract": "contracts/makerdao/core/SafeEngine.sol:SafeEngine",
            "label": "debtFloor",
            "offset": 0,
            "slot": "3",
            "type": "t_uint256"
          },
          {
            "astId": 97117,
            "contract": "contracts/makerdao/core/SafeEngine.sol:SafeEngine",
            "label": "safetyPrice",
            "offset": 0,
            "slot": "4",
            "type": "t_uint256"
          },
          {
            "astId": 97119,
            "contract": "contracts/makerdao/core/SafeEngine.sol:SafeEngine",
            "label": "liquidationRatio",
            "offset": 0,
            "slot": "5",
            "type": "t_uint256"
          },
          {
            "astId": 97121,
            "contract": "contracts/makerdao/core/SafeEngine.sol:SafeEngine",
            "label": "collateralAddress",
            "offset": 0,
            "slot": "6",
            "type": "t_address"
          },
          {
            "astId": 97123,
            "contract": "contracts/makerdao/core/SafeEngine.sol:SafeEngine",
            "label": "safetyPriceBlockNumber",
            "offset": 0,
            "slot": "7",
            "type": "t_uint256"
          }
        ],
        "numberOfBytes": "256"
      },
      "t_struct(SAFE)97129_storage": {
        "encoding": "inplace",
        "label": "struct ISafeEngine.SAFE",
        "members": [
          {
            "astId": 97126,
            "contract": "contracts/makerdao/core/SafeEngine.sol:SafeEngine",
            "label": "lockedCollateral",
            "offset": 0,
            "slot": "0",
            "type": "t_uint256"
          },
          {
            "astId": 97128,
            "contract": "contracts/makerdao/core/SafeEngine.sol:SafeEngine",
            "label": "generatedDebt",
            "offset": 0,
            "slot": "1",
            "type": "t_uint256"
          }
        ],
        "numberOfBytes": "64"
      },
      "t_uint256": {
        "encoding": "inplace",
        "label": "uint256",
        "numberOfBytes": "32"
      },
      "t_uint8": {
        "encoding": "inplace",
        "label": "uint8",
        "numberOfBytes": "1"
      }
    }
  }
}