{
  "address": "0x1591D78bDf17E623AE0a5bF1D536Ea29E04446D6",
  "abi": [
    {
      "inputs": [],
      "stateMutability": "nonpayable",
      "type": "constructor"
    },
    {
      "inputs": [],
      "name": "BadAccessControlSingleton",
      "type": "error"
    },
    {
      "inputs": [],
      "name": "BadEndBlock",
      "type": "error"
    },
    {
      "inputs": [],
      "name": "InsufficientRewardAmount",
      "type": "error"
    },
    {
      "inputs": [],
      "name": "OnlyAdminError",
      "type": "error"
    },
    {
      "inputs": [],
      "name": "OnlyAlerterError",
      "type": "error"
    },
    {
      "inputs": [],
      "name": "OnlyCDPAccessError",
      "type": "error"
    },
    {
      "inputs": [],
      "name": "OnlyDAOError",
      "type": "error"
    },
    {
      "inputs": [],
      "name": "OnlyDisablerAccessError",
      "type": "error"
    },
    {
      "inputs": [],
      "name": "OnlyLiquidationAccessError",
      "type": "error"
    },
    {
      "inputs": [],
      "name": "OnlyMintAccessError",
      "type": "error"
    },
    {
      "inputs": [],
      "name": "OnlyProxyActionsError",
      "type": "error"
    },
    {
      "inputs": [],
      "name": "OnlyRewardAccessError",
      "type": "error"
    },
    {
      "inputs": [],
      "name": "OnlyRoleError",
      "type": "error"
    },
    {
      "inputs": [],
      "name": "OnlyVaultAccessError",
      "type": "error"
    },
    {
      "inputs": [],
      "name": "OnlyVotingEscrowError",
      "type": "error"
    },
    {
      "inputs": [],
      "name": "ZeroFromBalance",
      "type": "error"
    },
    {
      "anonymous": false,
      "inputs": [
        {
          "indexed": true,
          "internalType": "address",
          "name": "owner",
          "type": "address"
        },
        {
          "indexed": true,
          "internalType": "address",
          "name": "spender",
          "type": "address"
        },
        {
          "indexed": false,
          "internalType": "uint256",
          "name": "value",
          "type": "uint256"
        }
      ],
      "name": "Approval",
      "type": "event"
    },
    {
      "anonymous": false,
      "inputs": [
        {
          "indexed": false,
          "internalType": "uint8",
          "name": "version",
          "type": "uint8"
        }
      ],
      "name": "Initialized",
      "type": "event"
    },
    {
      "anonymous": false,
      "inputs": [
        {
          "indexed": true,
          "internalType": "address",
          "name": "from",
          "type": "address"
        },
        {
          "indexed": true,
          "internalType": "address",
          "name": "to",
          "type": "address"
        },
        {
          "indexed": false,
          "internalType": "uint256",
          "name": "value",
          "type": "uint256"
        }
      ],
      "name": "Transfer",
      "type": "event"
    },
    {
      "inputs": [],
      "name": "ACCESS_CONTROL_SINGLETON",
      "outputs": [
        {
          "internalType": "contract ISuAccessControl",
          "name": "",
          "type": "address"
        }
      ],
      "stateMutability": "view",
      "type": "function"
    },
    {
      "inputs": [],
      "name": "ADMIN_ROLE",
      "outputs": [
        {
          "internalType": "bytes32",
          "name": "",
          "type": "bytes32"
        }
      ],
      "stateMutability": "view",
      "type": "function"
    },
    {
      "inputs": [],
      "name": "ALERTER_ROLE",
      "outputs": [
        {
          "internalType": "bytes32",
          "name": "",
          "type": "bytes32"
        }
      ],
      "stateMutability": "view",
      "type": "function"
    },
    {
      "inputs": [],
      "name": "CDP_ACCESS_ROLE",
      "outputs": [
        {
          "internalType": "bytes32",
          "name": "",
          "type": "bytes32"
        }
      ],
      "stateMutability": "view",
      "type": "function"
    },
    {
      "inputs": [],
      "name": "DAO_ROLE",
      "outputs": [
        {
          "internalType": "bytes32",
          "name": "",
          "type": "bytes32"
        }
      ],
      "stateMutability": "view",
      "type": "function"
    },
    {
      "inputs": [],
      "name": "DISABLER_ROLE",
      "outputs": [
        {
          "internalType": "bytes32",
          "name": "",
          "type": "bytes32"
        }
      ],
      "stateMutability": "view",
      "type": "function"
    },
    {
      "inputs": [],
      "name": "LIQUIDATION_ACCESS_ROLE",
      "outputs": [
        {
          "internalType": "bytes32",
          "name": "",
          "type": "bytes32"
        }
      ],
      "stateMutability": "view",
      "type": "function"
    },
    {
      "inputs": [],
      "name": "MINT_ACCESS_ROLE",
      "outputs": [
        {
          "internalType": "bytes32",
          "name": "",
          "type": "bytes32"
        }
      ],
      "stateMutability": "view",
      "type": "function"
    },
    {
      "inputs": [],
      "name": "PROXY_ACTIONS_ROLE",
      "outputs": [
        {
          "internalType": "bytes32",
          "name": "",
          "type": "bytes32"
        }
      ],
      "stateMutability": "view",
      "type": "function"
    },
    {
      "inputs": [],
      "name": "REWARD_ACCESS_ROLE",
      "outputs": [
        {
          "internalType": "bytes32",
          "name": "",
          "type": "bytes32"
        }
      ],
      "stateMutability": "view",
      "type": "function"
    },
    {
      "inputs": [],
      "name": "REWARD_PRECISION",
      "outputs": [
        {
          "internalType": "uint256",
          "name": "",
          "type": "uint256"
        }
      ],
      "stateMutability": "view",
      "type": "function"
    },
    {
      "inputs": [],
      "name": "VOTING_ESCROW_ROLE",
      "outputs": [
        {
          "internalType": "bytes32",
          "name": "",
          "type": "bytes32"
        }
      ],
      "stateMutability": "view",
      "type": "function"
    },
    {
      "inputs": [],
      "name": "accRewardPerShare",
      "outputs": [
        {
          "internalType": "uint128",
          "name": "",
          "type": "uint128"
        }
      ],
      "stateMutability": "view",
      "type": "function"
    },
    {
      "inputs": [
        {
          "internalType": "address",
          "name": "owner",
          "type": "address"
        },
        {
          "internalType": "address",
          "name": "spender",
          "type": "address"
        }
      ],
      "name": "allowance",
      "outputs": [
        {
          "internalType": "uint256",
          "name": "",
          "type": "uint256"
        }
      ],
      "stateMutability": "view",
      "type": "function"
    },
    {
      "inputs": [
        {
          "internalType": "address",
          "name": "spender",
          "type": "address"
        },
        {
          "internalType": "uint256",
          "name": "amount",
          "type": "uint256"
        }
      ],
      "name": "approve",
      "outputs": [
        {
          "internalType": "bool",
          "name": "",
          "type": "bool"
        }
      ],
      "stateMutability": "nonpayable",
      "type": "function"
    },
    {
      "inputs": [
        {
          "internalType": "address",
          "name": "account",
          "type": "address"
        }
      ],
      "name": "balanceOf",
      "outputs": [
        {
          "internalType": "uint256",
          "name": "",
          "type": "uint256"
        }
      ],
      "stateMutability": "view",
      "type": "function"
    },
    {
      "inputs": [
        {
          "internalType": "uint256",
          "name": "amount",
          "type": "uint256"
        }
      ],
      "name": "burn",
      "outputs": [],
      "stateMutability": "nonpayable",
      "type": "function"
    },
    {
      "inputs": [
        {
          "internalType": "address",
          "name": "from",
          "type": "address"
        },
        {
          "internalType": "uint256",
          "name": "amount",
          "type": "uint256"
        }
      ],
      "name": "burn",
      "outputs": [],
      "stateMutability": "nonpayable",
      "type": "function"
    },
    {
      "inputs": [],
      "name": "cancelRedirectYieldAndHarvest",
      "outputs": [],
      "stateMutability": "nonpayable",
      "type": "function"
    },
    {
      "inputs": [],
      "name": "decimals",
      "outputs": [
        {
          "internalType": "uint8",
          "name": "",
          "type": "uint8"
        }
      ],
      "stateMutability": "view",
      "type": "function"
    },
    {
      "inputs": [
        {
          "internalType": "address",
          "name": "spender",
          "type": "address"
        },
        {
          "internalType": "uint256",
          "name": "subtractedValue",
          "type": "uint256"
        }
      ],
      "name": "decreaseAllowance",
      "outputs": [
        {
          "internalType": "bool",
          "name": "",
          "type": "bool"
        }
      ],
      "stateMutability": "nonpayable",
      "type": "function"
    },
    {
      "inputs": [
        {
          "internalType": "address",
          "name": "account",
          "type": "address"
        }
      ],
      "name": "getAccount",
      "outputs": [
        {
          "components": [
            {
              "internalType": "uint256",
              "name": "balance",
              "type": "uint256"
            },
            {
              "internalType": "int256",
              "name": "rewardDebt",
              "type": "int256"
            },
            {
              "internalType": "address",
              "name": "redirectYieldTo",
              "type": "address"
            }
          ],
          "internalType": "struct IGainableERC20v3.IAccount",
          "name": "",
          "type": "tuple"
        }
      ],
      "stateMutability": "view",
      "type": "function"
    },
    {
      "inputs": [],
      "name": "getYieldAPR",
      "outputs": [
        {
          "internalType": "uint256",
          "name": "",
          "type": "uint256"
        }
      ],
      "stateMutability": "view",
      "type": "function"
    },
    {
      "inputs": [
        {
          "internalType": "address",
          "name": "account",
          "type": "address"
        }
      ],
      "name": "harvest",
      "outputs": [],
      "stateMutability": "nonpayable",
      "type": "function"
    },
    {
      "inputs": [
        {
          "internalType": "address",
          "name": "spender",
          "type": "address"
        },
        {
          "internalType": "uint256",
          "name": "addedValue",
          "type": "uint256"
        }
      ],
      "name": "increaseAllowance",
      "outputs": [
        {
          "internalType": "bool",
          "name": "",
          "type": "bool"
        }
      ],
      "stateMutability": "nonpayable",
      "type": "function"
    },
    {
      "inputs": [
        {
          "internalType": "address",
          "name": "_authControl",
          "type": "address"
        }
      ],
      "name": "initialize",
      "outputs": [],
      "stateMutability": "nonpayable",
      "type": "function"
    },
    {
      "inputs": [],
      "name": "lastRewardBlock",
      "outputs": [
        {
          "internalType": "uint64",
          "name": "",
          "type": "uint64"
        }
      ],
      "stateMutability": "view",
      "type": "function"
    },
    {
      "inputs": [
        {
          "internalType": "address",
          "name": "to",
          "type": "address"
        },
        {
          "internalType": "uint256",
          "name": "amount",
          "type": "uint256"
        }
      ],
      "name": "mint",
      "outputs": [],
      "stateMutability": "nonpayable",
      "type": "function"
    },
    {
      "inputs": [],
      "name": "name",
      "outputs": [
        {
          "internalType": "string",
          "name": "",
          "type": "string"
        }
      ],
      "stateMutability": "view",
      "type": "function"
    },
    {
      "inputs": [
        {
          "internalType": "address",
          "name": "account",
          "type": "address"
        }
      ],
      "name": "pendingRewards",
      "outputs": [
        {
          "internalType": "uint256",
          "name": "",
          "type": "uint256"
        }
      ],
      "stateMutability": "view",
      "type": "function"
    },
    {
      "inputs": [
        {
          "internalType": "address",
          "name": "to",
          "type": "address"
        }
      ],
      "name": "redirectYieldAndHarvest",
      "outputs": [],
      "stateMutability": "nonpayable",
      "type": "function"
    },
    {
      "inputs": [
        {
          "internalType": "address",
          "name": "from",
          "type": "address"
        },
        {
          "internalType": "address",
          "name": "to",
          "type": "address"
        }
      ],
      "name": "redirectYieldAndHarvestByDAO",
      "outputs": [],
      "stateMutability": "nonpayable",
      "type": "function"
    },
    {
      "inputs": [
        {
          "internalType": "uint256",
          "name": "amount",
          "type": "uint256"
        },
        {
          "internalType": "uint64",
          "name": "endBlock",
          "type": "uint64"
        }
      ],
      "name": "refillReward",
      "outputs": [],
      "stateMutability": "nonpayable",
      "type": "function"
    },
    {
      "inputs": [],
      "name": "rewardEndBlock",
      "outputs": [
        {
          "internalType": "uint256",
          "name": "",
          "type": "uint256"
        }
      ],
      "stateMutability": "view",
      "type": "function"
    },
    {
      "inputs": [],
      "name": "rewardPerBlock",
      "outputs": [
        {
          "internalType": "uint256",
          "name": "",
          "type": "uint256"
        }
      ],
      "stateMutability": "view",
      "type": "function"
    },
    {
      "inputs": [
        {
          "internalType": "bytes4",
          "name": "interfaceId",
          "type": "bytes4"
        }
      ],
      "name": "supportsInterface",
      "outputs": [
        {
          "internalType": "bool",
          "name": "",
          "type": "bool"
        }
      ],
      "stateMutability": "view",
      "type": "function"
    },
    {
      "inputs": [],
      "name": "symbol",
      "outputs": [
        {
          "internalType": "string",
          "name": "",
          "type": "string"
        }
      ],
      "stateMutability": "view",
      "type": "function"
    },
    {
      "inputs": [],
      "name": "totalSupply",
      "outputs": [
        {
          "internalType": "uint256",
          "name": "",
          "type": "uint256"
        }
      ],
      "stateMutability": "view",
      "type": "function"
    },
    {
      "inputs": [
        {
          "internalType": "address",
          "name": "to",
          "type": "address"
        },
        {
          "internalType": "uint256",
          "name": "amount",
          "type": "uint256"
        }
      ],
      "name": "transfer",
      "outputs": [
        {
          "internalType": "bool",
          "name": "",
          "type": "bool"
        }
      ],
      "stateMutability": "nonpayable",
      "type": "function"
    },
    {
      "inputs": [
        {
          "internalType": "address",
          "name": "from",
          "type": "address"
        },
        {
          "internalType": "address",
          "name": "to",
          "type": "address"
        },
        {
          "internalType": "uint256",
          "name": "amount",
          "type": "uint256"
        }
      ],
      "name": "transferFrom",
      "outputs": [
        {
          "internalType": "bool",
          "name": "",
          "type": "bool"
        }
      ],
      "stateMutability": "nonpayable",
      "type": "function"
    },
    {
      "inputs": [],
      "name": "updateRewardPool",
      "outputs": [],
      "stateMutability": "nonpayable",
      "type": "function"
    }
  ],
  "numDeployments": 1,
  "solcInputHash": "8c060bc8c39a7272c2849a174b3b4791",
  "bytecode": "0x608080604052346100c1576000549060ff8260081c1661006f575060ff80821603610034575b6040516121d790816100c78239f35b60ff90811916176000557f7f26b83ff96e1f2b6a682f133852f6798a09c465da95921460cefb3847402498602060405160ff8152a138610025565b62461bcd60e51b815260206004820152602760248201527f496e697469616c697a61626c653a20636f6e747261637420697320696e697469604482015266616c697a696e6760c81b6064820152608490fd5b600080fdfe608060408181526004918236101561001657600080fd5b600092833560e01c91826301ffc9a7146114e35750816303ee9f22146114ba57816306fdde0314611414578163095ea7b3146113ea5781630e5c011e146113c857816318160ddd146113a957816323b872dd146112d8578163313ce567146112bc57816331d7a2621461129657816339509351146112465781633d6aa5e11461122557816340c10f19146110bb57816342966c681461102f578163438280dd14611006578163604ef2e514610fe75781636c9f018f14610ece5781636cfd385114610e6757816370a0823114610de157816371d0fb4114610da657816375b238fc14610d8b57816381028dde14610d6757816387ee8c4c14610ba75781638ae39cac14610b885781638e5313e014610b5f578163939d623714610b3657816395d89b4114610a595781639dc29fac146109b6578163a457c2d714610911578163a9059cbb146108de578163a9f8d181146108b1578163ab6a8b0214610892578163af163abf14610858578163b38234f31461081d578163bd5f5be6146107e2578163c4d66de81461039157508063d0e8fa8214610357578063d2351cee1461031d578063dc97e84e146102e3578063dd62ed3e1461029b578063e9c26518146102735763fbcbc0f1146101e857600080fd5b3461026f57602036600319011261026f5790816060926102066115bb565b9280828051610214816115ec565b828152826020820152015260018060a01b03809416815260676020522091815161023d816115ec565b835493848252838360026001840154936020860194855201541692019182528351948552516020850152511690820152f35b5080fd5b503461026f578160031936011261026f57602090516000805160206121228339815191528152f35b503461026f578060031936011261026f57806020926102b86115bb565b6102c06115d6565b6001600160a01b0391821683526068865283832091168252845220549051908152f35b503461026f578160031936011261026f57602090517f9a9aef7c1247d5fc769b0185c052913e39673da29a880317dfd20ebf86f26a498152f35b503461026f578160031936011261026f57602090517fb0fdd1623e42dbffda4acd8bd643e1cb69f00f0e83abeaa8150ee42cf0fd105e8152f35b503461026f578160031936011261026f57602090517f76d0567582f23e1e9d7a13eeba60f9aea9d69b8da87ca27a8bf3698b35c653db8152f35b9050346107de57602090816003193601126107da576103ae6115bb565b9284549160ff8360081c1615908180926107cd575b80156107b6575b1561075c57600193828560ff19831617895561074b575b506103ea611640565b6103f2611640565b9061040c60ff8a5460081c1661040781611bfd565b611bfd565b80516001600160401b039290838111610738578061042b606a54611c5d565b93601f948581116106e6575b508a908d8684116001146106835792610678575b5050600019600383901b1c191690881b17606a555b805192831161066557908291610477606b54611c5d565b828111610614575b50889183116001146105b3578a926105a8575b5050600019600383901b1c191690851b17606b555b8654956104b960ff8860081c16611bfd565b603380546001600160a01b0319166001600160a01b0392909216918217905580159086908215610537575b505061052957506104f3578480f35b7f7f26b83ff96e1f2b6a682f133852f6798a09c465da95921460cefb38474024989361ff001916855551908152a1388080808480f35b82516384d942fd60e01b8152fd5b85516301ffc9a760e01b8152637965db0b60e01b858201529250829060249082905afa90811561059e578891610571575b501585386104e4565b6105919150863d8811610597575b610589818361161d565b810190611675565b38610568565b503d61057f565b84513d8a823e3d90fd5b015190503880610492565b606b8b52888b208894509190601f1984168c5b8b8282106105fe57505084116105e5575b505050811b01606b556104a7565b015160001960f88460031b161c191690553880806105d7565b8385015186558b979095019493840193016105c6565b90919250606b8b52888b208380860160051c8201928b871061065c575b9186958b929594930160051c01915b82811061064e57505061047f565b8d81558695508a9101610640565b92508192610631565b634e487b7160e01b8a526041845260248afd5b01519050388061044b565b606a81528c81208c9550929190601f198516908e5b8282106106cf57505084116106b6575b505050811b01606a55610460565b015160001960f88460031b161c191690553880806106a8565b8385015186558e979095019493840193018e610698565b909150606a8d528a8d208580850160051c8201928d861061072f575b859493910160051c909101908b908f5b83821061072157505050610437565b81558594508c91018f610712565b92508192610702565b634e487b7160e01b8b526041855260248bfd5b61ffff1916610101178755386103e1565b825162461bcd60e51b8152908101859052602e60248201527f496e697469616c697a61626c653a20636f6e747261637420697320616c72656160448201526d191e481a5b9a5d1a585b1a5e995960921b6064820152608490fd5b50303b1580156103ca5750600160ff8516146103ca565b50600160ff8516106103c3565b8380fd5b8280fd5b50503461026f578160031936011261026f57602090517f4f14c8366fa999817edc9f29824eb88a00cc31225e2156f399da4bc91049eb108152f35b50503461026f578160031936011261026f57602090517fd83f5343da19b478b15a140c301a868be9e02603958f38fbd822b9d5c0a289168152f35b50503461026f578160031936011261026f576002903383526067602052822061088033611ae4565b0180546001600160a01b031916905580f35b83346108ae57806003193601126108ae576108ab611732565b80f35b80fd5b50503461026f578160031936011261026f57606654905160809190911c6001600160401b03168152602090f35b50503461026f578060031936011261026f5760209061090a60016109006115bb565b6024359033611da4565b5160018152f35b905082346108ae57826003193601126108ae5761092c6115bb565b918360243592338152606860205281812060018060a01b03861682526020522054908282106109655760208561090a8585038733611fec565b608490602086519162461bcd60e51b8352820152602560248201527f45524332303a2064656372656173656420616c6c6f77616e63652062656c6f77604482015264207a65726f60d81b6064820152fd5b9050346107de57816003193601126107de576109d06115bb565b6033548351632474521560e21b81529193919060209082906001600160a01b031681806109ff3389830161168d565b03915afa908115610a4f578591610a31575b5015610a2457836108ab60243585611eb8565b516308ff603760e01b8152fd5b610a49915060203d811161059757610589818361161d565b38610a11565b82513d87823e3d90fd5b50503461026f578160031936011261026f5780519082606b54610a7b81611c5d565b80855290600190818116908115610b0e5750600114610ab5575b505050610aa782610ab194038361161d565b5191829182611572565b0390f35b606b8352602095507fbd43cb8ece8cd1863bcd6082d65c5b0d25665b1ce17980f0da43c0ed545f98b45b828410610afb5750505082610ab194610aa79282010194610a95565b8054868501880152928601928101610adf565b610ab19750610aa79450602092508693915060ff191682840152151560051b82010194610a95565b50503461026f578160031936011261026f5760665490516001600160801b039091168152602090f35b50503461026f578160031936011261026f57602090516000805160206121428339815191528152f35b50503461026f578160031936011261026f57602090606c549051908152f35b9050346107de57816003193601126107de576024356001600160401b0381169290823590849003610d63576033548251632474521560e21b8082526000805160206121628339815191528683015233602483015260209290916001600160a01b03909116908381604481855afa908115610d59578991610d3c575b50159182610ce1575b50509050610cd35783431015610cc557610c6f610c7f91610c4a611732565b610c576001823033611da4565b86606d5480151580610cbc575b610c9d575b50611705565b610c7943866116b4565b90611712565b80606c5515610c90575050606d5580f35b516301b0b4cf60e41b8152fd5b610cb69150610cb0606c549143906116b4565b906116f2565b38610c69565b50804310610c64565b505163e1133c0960e01b8152fd5b5051631a3d931f60e31b8152fd5b83919250604486518094819382528b8a8301523360248301525afa918215610d32578792610d15575b505015803880610c2b565b610d2b9250803d1061059757610589818361161d565b3880610d0a565b84513d89823e3d90fd5b610d539150843d861161059757610589818361161d565b38610c22565b86513d8b823e3d90fd5b8480fd5b50503461026f578160031936011261026f57602090610d84611ba9565b9051908152f35b50503461026f578160031936011261026f5751908152602090f35b50503461026f578160031936011261026f57602090517f880a91047114272656e533301261260c75e4d11543ac7303d6fe4204579ec7278152f35b50503461026f57602036600319011261026f57602091610dff6115bb565b6001600160a01b03818116835260678552838320845190938592909190610e25826115ec565b600286549687845260018101548a85015201541692839101525015600014610e605790610e54610d8492611933565b90611705565b51908152f35b5090610e5a565b50503461026f57602036600319011261026f576002610e846115bb565b9133845260676020528320610e9833611ae4565b6001600160a01b0383169283610ebf575b500180546001600160a01b031916909117905580f35b610ec890611ae4565b38610ea9565b8391503461026f578260031936011261026f57610ee96115bb565b92610ef26115d6565b6033548251632474521560e21b8152600080516020612122833981519152818601523360248201529193916001600160a01b03916020908290604490829086165afa908115610fdd578691610fbf575b5015610fb0578086169182865260676020528386205415610fa25750610f6b6002949596611ae4565b84169384610f93575b508452606760205283200180546001600160a01b031916909117905580f35b610f9c90611ae4565b85610f74565b8351630127833760e21b8152fd5b50905163599a6c3360e11b8152fd5b610fd7915060203d811161059757610589818361161d565b87610f42565b84513d88823e3d90fd5b50503461026f578160031936011261026f57602090606d549051908152f35b50503461026f578160031936011261026f57602090516000805160206121628339815191528152f35b919050346107de5760203660031901126107de576033548151632474521560e21b81529060209082906001600160a01b0316818061106f3389830161168d565b03915afa9081156110b1578491611093575b5015610a2457506108ab903533611eb8565b6110ab915060203d811161059757610589818361161d565b38611081565b82513d86823e3d90fd5b919050346107de57806003193601126107de576110d66115bb565b6033548251632474521560e21b815260209360243593909290916001600160a01b0391869082908416818061110d338d830161168d565b03915afa90811561059e578891611208575b50156111f85781169485156111b557509185939161114b60008051602061218283398151915294611ae4565b61115782606954611705565b6069558585526067835280852061116f838254611705565b90558585526067835261119f64e8d4a510006111998388205460018060801b0360665416906116f2565b04611a7d565b868652606784526001828720015551908152a380f35b825162461bcd60e51b8152908101859052601f60248201527f45524332303a206d696e7420746f20746865207a65726f2061646472657373006044820152606490fd5b82516308ff603760e01b81528690fd5b61121f9150863d881161059757610589818361161d565b3861111f565b50503461026f578160031936011261026f5760209051655af3107a40008152f35b50503461026f578060031936011261026f5761090a60209261128f6112696115bb565b338352606886528483206001600160a01b03821684528652918490205460243590611705565b9033611fec565b50503461026f57602036600319011261026f57602090610d846112b76115bb565b611933565b50503461026f578160031936011261026f576020905160128152f35b8391503461026f57606036600319011261026f576112f46115bb565b6112fc6115d6565b6001600160a01b0382168452606860209081528585203386529052928490205460443593926001820161133a575b60208661090a6001888888611da4565b84821061136657509261090a9260019261135a8360209897033383611fec565b9250928194955061132a565b606490602087519162461bcd60e51b8352820152601d60248201527f45524332303a20696e73756666696369656e7420616c6c6f77616e63650000006044820152fd5b50503461026f578160031936011261026f576020906069549051908152f35b83346108ae5760203660031901126108ae576108ab6113e56115bb565b611ae4565b50503461026f578060031936011261026f5760209061090a61140a6115bb565b6024359033611fec565b50503461026f578160031936011261026f5780519082606a5461143681611c5d565b80855290600190818116908115610b0e575060011461146157505050610aa782610ab194038361161d565b606a8352602095507f116fea137db6e131133e7f2bab296045d8f41cc5607279db17b218cab0929a515b8284106114a75750505082610ab194610aa79282010194610a95565b805486850188015292860192810161148b565b50503461026f578160031936011261026f5760335490516001600160a01b039091168152602090f35b929150346107da5760203660031901126107da57803563ffffffff60e01b8116809103610d63576033546301ffc9a760e01b855291840152602090839060249082906001600160a01b03165afa9182156115685760209392611549575b50519015158152f35b611561919250833d811161059757610589818361161d565b9038611540565b81513d85823e3d90fd5b6020808252825181830181905290939260005b8281106115a757505060409293506000838284010152601f8019910116010190565b818101860151848201604001528501611585565b600435906001600160a01b03821682036115d157565b600080fd5b602435906001600160a01b03821682036115d157565b606081019081106001600160401b0382111761160757604052565b634e487b7160e01b600052604160045260246000fd5b601f909101601f19168101906001600160401b0382119082101761160757604052565b60408051919082016001600160401b03811183821017611607576040526009825268537461626c6550726f60b81b6020830152565b908160209103126115d1575180151581036115d15790565b60008051602061214283398151915281526001600160a01b03909116602082015260400190565b919082039182116116c157565b634e487b7160e01b600052601160045260246000fd5b90655af3107a4000918281029281840414901517156116c157565b818102929181159184041417156116c157565b919082018092116116c157565b811561171c570490565b634e487b7160e01b600052601260045260246000fd5b6001600160401b0343811061183b5760665490808260801c16904316116117565750565b60695480611787575b505060668054600160801b600160c01b0319164360801b600160801b600160c01b0316179055565b61178f61188f565b9064e8d4a51000918281029281840414901517156116c1576117b091611712565b6001600160801b03908181116117e6578116818316018181116116c1576001600160801b0319909216911617606655388061175f565b60405162461bcd60e51b815260206004820152602760248201527f53616665436173743a2076616c756520646f65736e27742066697420696e20316044820152663238206269747360c81b6064820152608490fd5b60405162461bcd60e51b815260206004820152602660248201527f53616665436173743a2076616c756520646f65736e27742066697420696e203660448201526534206269747360d01b6064820152608490fd5b60665460801c6001600160401b03164381108015906118f6575b6118f057606d54818111156118e9578043106000146118dc57506118d06118d991436116b4565b606c54906116f2565b90565b6118d9916118d0916116b4565b5050600090565b50600090565b50606d54156118a9565b6001600160a01b0316600090815260676020526040902090565b818103929160001380158285131691841216176116c157565b6066546001600160801b0381169060801c6001600160401b0316431180611a23575b6119de575b64e8d4a510006111996119ad9260018060a01b03809516600052606760205260406000209460405161198b816115ec565b6040875492838352600260018a015499602085019a8b520154169101526116f2565b906119ca6119c5655af3107a4000938493519061191a565b611a2e565b048181029181830414901517156116c15790565b6119e661188f565b64e8d4a51000908181029181830414901517156116c157611199611a1a6119ad93610e5464e8d4a510009460695490611712565b9250505061195a565b506069541515611955565b60008112611a395790565b606460405162461bcd60e51b815260206004820152602060248201527f53616665436173743a2076616c7565206d75737420626520706f7369746976656044820152fd5b6001600160ff1b038111611a8e5790565b60405162461bcd60e51b815260206004820152602860248201527f53616665436173743a2076616c756520646f65736e27742066697420696e2061604482015267371034b73a191a9b60c11b6064820152608490fd5b611aed81611900565b90611af6611732565b8154606654611b2691611b2191611b1691906001600160801b0316610cb0565b64e8d4a51000900490565b611a7d565b916001810192611b51611b4c611b406119c587548561191a565b655af3107a4000900490565b6116d7565b935582151580611b96575b611b6557505050565b600201546001600160a01b031680611b875750611b859160009130611da4565b565b6001915091611b859230611da4565b506001600160a01b038216301415611b5c565b606d544311611bf857606c5462201480908181029181830414811517156116c15766de99aa8b27b3c160191b0290808204670de0b6b3a764000014901517156116c1576069546118d991611712565b600090565b15611c0457565b60405162461bcd60e51b815260206004820152602b60248201527f496e697469616c697a61626c653a20636f6e7472616374206973206e6f74206960448201526a6e697469616c697a696e6760a81b6064820152608490fd5b90600182811c92168015611c8d575b6020831014611c7757565b634e487b7160e01b600052602260045260246000fd5b91607f1691611c6c565b15611c9e57565b60405162461bcd60e51b815260206004820152602560248201527f45524332303a207472616e736665722066726f6d20746865207a65726f206164604482015264647265737360d81b6064820152608490fd5b15611cf857565b60405162461bcd60e51b815260206004820152602360248201527f45524332303a207472616e7366657220746f20746865207a65726f206164647260448201526265737360e81b6064820152608490fd5b15611d5057565b60405162461bcd60e51b815260206004820152602660248201527f45524332303a207472616e7366657220616d6f756e7420657863656564732062604482015265616c616e636560d01b6064820152608490fd5b6001600160a01b03808216939190611dbd851515611c97565b831694611dcb861515611cf1565b611ea7575b90600080516020612182833981519152928282611def611ea295611900565b54611dfc82821015611d49565b03611e0682611900565b556001611e4b611e45611b21611e1b85611900565b54606654611e39906001600160801b03165b6001600160801b031690565b0264e8d4a51000900490565b92611900565b0155611e5681611900565b611e61838254611705565b90556001611e90611e45611b21611b16611e7a86611900565b54606654610cb0906001600160801b0316611e2d565b01556040519081529081906020820190565b0390a3565b90611eb283836120ee565b90611dd0565b6001600160a01b038116908115611f9d57611ed290611ae4565b6000918183526067602052604080842054828110611f4e57916020918160008051602061218283398151915294868852606785520381872055611f2a64e8d4a510008288205460018060801b03606654160204611a7d565b8587526067845260018288200155611f44826069546116b4565b60695551908152a3565b815162461bcd60e51b815260206004820152602260248201527f45524332303a206275726e20616d6f756e7420657863656564732062616c616e604482015261636560f01b6064820152608490fd5b60405162461bcd60e51b815260206004820152602160248201527f45524332303a206275726e2066726f6d20746865207a65726f206164647265736044820152607360f81b6064820152608490fd5b6001600160a01b0390811691821561209d571691821561204d5760207f8c5be1e5ebec7d5bd14f71427d1e84f3dd0314c0f7b2291e5b200ac8c7c3b925918360005260688252604060002085600052825280604060002055604051908152a3565b60405162461bcd60e51b815260206004820152602260248201527f45524332303a20617070726f766520746f20746865207a65726f206164647265604482015261737360f01b6064820152608490fd5b60405162461bcd60e51b8152602060048201526024808201527f45524332303a20617070726f76652066726f6d20746865207a65726f206164646044820152637265737360e01b6064820152608490fd5b6001600160a01b0390808216612112575b5081166121095750565b611b8590611ae4565b61211b90611ae4565b386120ff56fe3b5d4cc60d3ec3516ee8ae083bd60934f6eb2a6c54b1229985c41bfb092b2603e453bacb314e78dcd5192e6b1a2b1f0e7c76e92f6b7e429a6a90f04e39db3b7639f61ca2a1a28fee144218173ec637b649a353e4026b2738c673800e5bf1437bddf252ad1be2c89b69c2b068fc378daa952ba7f163c4a11628f55a4df523b3efa26469706673582212209b136c6a29c12a5ce843f173e330e8796a18aa391133161312609566578ea6d064736f6c63430008110033",
  "devdoc": {
    "details": "See GainERC20v3Upgradeable contract for more details.*",
    "kind": "dev",
    "methods": {
      "allowance(address,address)": {
        "details": "Returns the remaining number of tokens that `spender` will be allowed to spend on behalf of `owner` through {transferFrom}. This is zero by default. This value changes when {approve} or {transferFrom} are called."
      },
      "approve(address,uint256)": {
        "details": "Sets `amount` as the allowance of `spender` over the caller's tokens. Returns a boolean value indicating whether the operation succeeded. IMPORTANT: Beware that changing an allowance with this method brings the risk that someone may use both the old and the new allowance by unfortunate transaction ordering. One possible solution to mitigate this race condition is to first reduce the spender's allowance to 0 and set the desired value afterwards: https://github.com/ethereum/EIPs/issues/20#issuecomment-263524729 Emits an {Approval} event."
      },
      "balanceOf(address)": {
        "details": "Returns the amount of tokens owned by `account`."
      },
      "cancelRedirectYieldAndHarvest()": {
        "details": "This function stops redirecting yield and harvests the current rewards for the caller"
      },
      "constructor": {
        "custom:oz-upgrades-unsafe-allow": "constructor"
      },
      "decimals()": {
        "details": "Returns the decimals places of the token."
      },
      "decreaseAllowance(address,uint256)": {
        "details": "Atomically decreases the allowance granted to `spender` by the caller. This is an alternative to {approve} that can be used as a mitigation for problems described in {IERC20-approve}. Emits an {Approval} event indicating the updated allowance. Requirements: - `spender` cannot be the zero address. - `spender` must have allowance for the caller of at least `subtractedValue`."
      },
      "getAccount(address)": {
        "returns": {
          "_0": "Info of account stored in stablecoin (user balances, rewardDebt, redirectYield)"
        }
      },
      "getYieldAPR()": {
        "details": "This function provides an estimate of the annual yield rate based on current rewards, especially for UI",
        "returns": {
          "_0": "The current yield APR expressed as a percentage with 18 decimal places"
        }
      },
      "harvest(address)": {
        "details": "This function calculates and transfers pending rewards to the account or its designated yield recipient. We won't make it private, because if user will send 1wei to any account, then harvest(to) will be called",
        "params": {
          "account": "The address of the account to harvest rewards for"
        }
      },
      "increaseAllowance(address,uint256)": {
        "details": "Atomically increases the allowance granted to `spender` by the caller. This is an alternative to {approve} that can be used as a mitigation for problems described in {IERC20-approve}. Emits an {Approval} event indicating the updated allowance. Requirements: - `spender` cannot be the zero address."
      },
      "mint(address,uint256)": {
        "details": "Mints 'amount' of tokens to address 'to', and MUST fire the Transfer event",
        "params": {
          "amount": "The amount of token to be minted*",
          "to": "The address of the recipient"
        }
      },
      "name()": {
        "details": "Returns the name of the token."
      },
      "pendingRewards(address)": {
        "details": "This function calculates rewards without updating the state",
        "params": {
          "account": "The address of the account to check pending rewards for"
        },
        "returns": {
          "_0": "The amount of pending rewards for the account"
        }
      },
      "redirectYieldAndHarvest(address)": {
        "details": "This function allows users to redirect their yield to another address and immediately harvest current rewards. To remove redirect just pass address(0) in argument",
        "params": {
          "to": "The address to redirect yield to (from msg.sender)"
        }
      },
      "redirectYieldAndHarvestByDAO(address,address)": {
        "details": "This function can only be called by the DAO and allows for administrative yield redirection",
        "params": {
          "from": "The address of the user whose yield is being redirected",
          "to": "The address to redirect the yield to"
        }
      },
      "refillReward(uint256,uint64)": {
        "details": "This function updates the reward per block and end block for the reward distribution",
        "params": {
          "amount": "The amount of tokens to add to the reward pool",
          "endBlock": "The block number at which the rewards will end"
        }
      },
      "supportsInterface(bytes4)": {
        "details": "Returns true if this contract implements the interface defined by `interfaceId`. See the corresponding https://eips.ethereum.org/EIPS/eip-165#how-interfaces-are-identified[EIP section] to learn more about how these ids are created. This function call must use less than 30 000 gas."
      },
      "symbol()": {
        "details": "Returns the symbol of the token."
      },
      "totalSupply()": {
        "details": "Returns the amount of tokens in existence."
      },
      "transfer(address,uint256)": {
        "details": "Moves `amount` tokens from the caller's account to `to`. Returns a boolean value indicating whether the operation succeeded. Emits a {Transfer} event."
      },
      "transferFrom(address,address,uint256)": {
        "details": "Moves `amount` tokens from `from` to `to` using the allowance mechanism. `amount` is then deducted from the caller's allowance. Returns a boolean value indicating whether the operation succeeded. Emits a {Transfer} event."
      },
      "updateRewardPool()": {
        "details": "This function should be called to update the accumulated rewards per share and the last reward block"
      }
    },
    "title": "StablePro",
    "version": 1
  },
  "userdoc": {
    "kind": "user",
    "methods": {
      "burn(address,uint256)": {
        "notice": "also vault is allowed to burn dollars of any account when user repays his loan and takes back his collateral*"
      },
      "burn(uint256)": {
        "notice": "dollars can be burned by manager but only his own dollars which managers will be using this feature? burning protocol fees?*"
      },
      "cancelRedirectYieldAndHarvest()": {
        "notice": "Cancels yield redirection and harvests current rewards"
      },
      "getAccount(address)": {
        "notice": "View function for UI"
      },
      "getYieldAPR()": {
        "notice": "Calculates the current yield Annual Percentage Rate (APR)"
      },
      "harvest(address)": {
        "notice": "Harvests rewards for a specified account"
      },
      "mint(address,uint256)": {
        "notice": "Only Vault can mint StablePro. Dollars can be minted by vault (once user deposited collateral)"
      },
      "pendingRewards(address)": {
        "notice": "Calculates the pending rewards for a given account"
      },
      "redirectYieldAndHarvest(address)": {
        "notice": "Redirects yield to a specified address and harvests current rewards"
      },
      "redirectYieldAndHarvestByDAO(address,address)": {
        "notice": "Allows the DAO to redirect yield for a user and harvest their rewards"
      },
      "refillReward(uint256,uint64)": {
        "notice": "Refills the \"moneybox\" with a specified amount of tokens"
      },
      "updateRewardPool()": {
        "notice": "Updates the reward pool state"
      }
    },
    "notice": "ERC-20 token with GainableERC20 feature",
    "version": 1
  },
  "storageLayout": {
    "storage": [
      {
        "astId": 1226,
        "contract": "contracts/StablePro.sol:StablePro",
        "label": "_initialized",
        "offset": 0,
        "slot": "0",
        "type": "t_uint8"
      },
      {
        "astId": 1229,
        "contract": "contracts/StablePro.sol:StablePro",
        "label": "_initializing",
        "offset": 1,
        "slot": "0",
        "type": "t_bool"
      },
      {
        "astId": 2368,
        "contract": "contracts/StablePro.sol:StablePro",
        "label": "__gap",
        "offset": 0,
        "slot": "1",
        "type": "t_array(t_uint256)50_storage"
      },
      {
        "astId": 24747,
        "contract": "contracts/StablePro.sol:StablePro",
        "label": "ACCESS_CONTROL_SINGLETON",
        "offset": 0,
        "slot": "51",
        "type": "t_contract(ISuAccessControl)31989"
      },
      {
        "astId": 25018,
        "contract": "contracts/StablePro.sol:StablePro",
        "label": "__gap",
        "offset": 0,
        "slot": "52",
        "type": "t_array(t_uint256)50_storage"
      },
      {
        "astId": 44394,
        "contract": "contracts/StablePro.sol:StablePro",
        "label": "accRewardPerShare",
        "offset": 0,
        "slot": "102",
        "type": "t_uint128"
      },
      {
        "astId": 44396,
        "contract": "contracts/StablePro.sol:StablePro",
        "label": "lastRewardBlock",
        "offset": 16,
        "slot": "102",
        "type": "t_uint64"
      },
      {
        "astId": 44401,
        "contract": "contracts/StablePro.sol:StablePro",
        "label": "_accounts",
        "offset": 0,
        "slot": "103",
        "type": "t_mapping(t_address,t_struct(IAccount)45651_storage)"
      },
      {
        "astId": 44407,
        "contract": "contracts/StablePro.sol:StablePro",
        "label": "_allowances",
        "offset": 0,
        "slot": "104",
        "type": "t_mapping(t_address,t_mapping(t_address,t_uint256))"
      },
      {
        "astId": 44409,
        "contract": "contracts/StablePro.sol:StablePro",
        "label": "_totalSupply",
        "offset": 0,
        "slot": "105",
        "type": "t_uint256"
      },
      {
        "astId": 44411,
        "contract": "contracts/StablePro.sol:StablePro",
        "label": "_name",
        "offset": 0,
        "slot": "106",
        "type": "t_string_storage"
      },
      {
        "astId": 44413,
        "contract": "contracts/StablePro.sol:StablePro",
        "label": "_symbol",
        "offset": 0,
        "slot": "107",
        "type": "t_string_storage"
      },
      {
        "astId": 44415,
        "contract": "contracts/StablePro.sol:StablePro",
        "label": "rewardPerBlock",
        "offset": 0,
        "slot": "108",
        "type": "t_uint256"
      },
      {
        "astId": 44417,
        "contract": "contracts/StablePro.sol:StablePro",
        "label": "rewardEndBlock",
        "offset": 0,
        "slot": "109",
        "type": "t_uint256"
      },
      {
        "astId": 45576,
        "contract": "contracts/StablePro.sol:StablePro",
        "label": "__gap",
        "offset": 0,
        "slot": "110",
        "type": "t_array(t_uint256)45_storage"
      }
    ],
    "types": {
      "t_address": {
        "encoding": "inplace",
        "label": "address",
        "numberOfBytes": "20"
      },
      "t_array(t_uint256)45_storage": {
        "base": "t_uint256",
        "encoding": "inplace",
        "label": "uint256[45]",
        "numberOfBytes": "1440"
      },
      "t_array(t_uint256)50_storage": {
        "base": "t_uint256",
        "encoding": "inplace",
        "label": "uint256[50]",
        "numberOfBytes": "1600"
      },
      "t_bool": {
        "encoding": "inplace",
        "label": "bool",
        "numberOfBytes": "1"
      },
      "t_contract(ISuAccessControl)31989": {
        "encoding": "inplace",
        "label": "contract ISuAccessControl",
        "numberOfBytes": "20"
      },
      "t_int256": {
        "encoding": "inplace",
        "label": "int256",
        "numberOfBytes": "32"
      },
      "t_mapping(t_address,t_mapping(t_address,t_uint256))": {
        "encoding": "mapping",
        "key": "t_address",
        "label": "mapping(address => mapping(address => uint256))",
        "numberOfBytes": "32",
        "value": "t_mapping(t_address,t_uint256)"
      },
      "t_mapping(t_address,t_struct(IAccount)45651_storage)": {
        "encoding": "mapping",
        "key": "t_address",
        "label": "mapping(address => struct IGainableERC20v3.IAccount)",
        "numberOfBytes": "32",
        "value": "t_struct(IAccount)45651_storage"
      },
      "t_mapping(t_address,t_uint256)": {
        "encoding": "mapping",
        "key": "t_address",
        "label": "mapping(address => uint256)",
        "numberOfBytes": "32",
        "value": "t_uint256"
      },
      "t_string_storage": {
        "encoding": "bytes",
        "label": "string",
        "numberOfBytes": "32"
      },
      "t_struct(IAccount)45651_storage": {
        "encoding": "inplace",
        "label": "struct IGainableERC20v3.IAccount",
        "members": [
          {
            "astId": 45646,
            "contract": "contracts/StablePro.sol:StablePro",
            "label": "balance",
            "offset": 0,
            "slot": "0",
            "type": "t_uint256"
          },
          {
            "astId": 45648,
            "contract": "contracts/StablePro.sol:StablePro",
            "label": "rewardDebt",
            "offset": 0,
            "slot": "1",
            "type": "t_int256"
          },
          {
            "astId": 45650,
            "contract": "contracts/StablePro.sol:StablePro",
            "label": "redirectYieldTo",
            "offset": 0,
            "slot": "2",
            "type": "t_address"
          }
        ],
        "numberOfBytes": "96"
      },
      "t_uint128": {
        "encoding": "inplace",
        "label": "uint128",
        "numberOfBytes": "16"
      },
      "t_uint256": {
        "encoding": "inplace",
        "label": "uint256",
        "numberOfBytes": "32"
      },
      "t_uint64": {
        "encoding": "inplace",
        "label": "uint64",
        "numberOfBytes": "8"
      },
      "t_uint8": {
        "encoding": "inplace",
        "label": "uint8",
        "numberOfBytes": "1"
      }
    }
  }
}