{
  "address": "0xf710dfbf1A7f21fac69381248453bA1E20A2ddD7",
  "abi": [
    {
      "inputs": [],
      "stateMutability": "nonpayable",
      "type": "constructor"
    },
    {
      "inputs": [],
      "name": "AssetNotRegistered",
      "type": "error"
    },
    {
      "inputs": [],
      "name": "BadAccessControlSingleton",
      "type": "error"
    },
    {
      "inputs": [],
      "name": "BadDecimals",
      "type": "error"
    },
    {
      "inputs": [],
      "name": "BadETHPrice",
      "type": "error"
    },
    {
      "inputs": [],
      "name": "BadFeed",
      "type": "error"
    },
    {
      "inputs": [],
      "name": "BadPriceAnswer",
      "type": "error"
    },
    {
      "inputs": [],
      "name": "L2SequencerUnavailable",
      "type": "error"
    },
    {
      "inputs": [],
      "name": "OnlyAdminError",
      "type": "error"
    },
    {
      "inputs": [],
      "name": "OnlyAlerterError",
      "type": "error"
    },
    {
      "inputs": [],
      "name": "OnlyCDPAccessError",
      "type": "error"
    },
    {
      "inputs": [],
      "name": "OnlyDAOError",
      "type": "error"
    },
    {
      "inputs": [],
      "name": "OnlyDisablerAccessError",
      "type": "error"
    },
    {
      "inputs": [],
      "name": "OnlyLiquidationAccessError",
      "type": "error"
    },
    {
      "inputs": [],
      "name": "OnlyMintAccessError",
      "type": "error"
    },
    {
      "inputs": [],
      "name": "OnlyProxyActionsError",
      "type": "error"
    },
    {
      "inputs": [],
      "name": "OnlyRewardAccessError",
      "type": "error"
    },
    {
      "inputs": [],
      "name": "OnlyRoleError",
      "type": "error"
    },
    {
      "inputs": [],
      "name": "OnlyVaultAccessError",
      "type": "error"
    },
    {
      "inputs": [],
      "name": "OnlyVotingEscrowError",
      "type": "error"
    },
    {
      "inputs": [],
      "name": "StalePrice",
      "type": "error"
    },
    {
      "inputs": [],
      "name": "SystemNotPaused",
      "type": "error"
    },
    {
      "inputs": [],
      "name": "SystemPaused",
      "type": "error"
    },
    {
      "inputs": [],
      "name": "onlyAuctionAccessRole",
      "type": "error"
    },
    {
      "anonymous": false,
      "inputs": [
        {
          "indexed": true,
          "internalType": "address",
          "name": "asset",
          "type": "address"
        },
        {
          "indexed": true,
          "internalType": "address",
          "name": "feed",
          "type": "address"
        },
        {
          "indexed": false,
          "internalType": "uint8",
          "name": "decimals",
          "type": "uint8"
        },
        {
          "indexed": false,
          "internalType": "bool",
          "name": "isPriceInETH",
          "type": "bool"
        },
        {
          "indexed": false,
          "internalType": "uint256",
          "name": "threshold",
          "type": "uint256"
        }
      ],
      "name": "AssetRegistered",
      "type": "event"
    },
    {
      "anonymous": false,
      "inputs": [
        {
          "indexed": false,
          "internalType": "uint8",
          "name": "version",
          "type": "uint8"
        }
      ],
      "name": "Initialized",
      "type": "event"
    },
    {
      "anonymous": false,
      "inputs": [
        {
          "indexed": false,
          "internalType": "address",
          "name": "account",
          "type": "address"
        }
      ],
      "name": "Paused",
      "type": "event"
    },
    {
      "anonymous": false,
      "inputs": [
        {
          "indexed": true,
          "internalType": "address",
          "name": "asset",
          "type": "address"
        },
        {
          "indexed": false,
          "internalType": "uint256",
          "name": "threshold",
          "type": "uint256"
        }
      ],
      "name": "StalenessThresholdUpdated",
      "type": "event"
    },
    {
      "anonymous": false,
      "inputs": [
        {
          "indexed": false,
          "internalType": "address",
          "name": "account",
          "type": "address"
        }
      ],
      "name": "Unpaused",
      "type": "event"
    },
    {
      "inputs": [],
      "name": "ACCESS_CONTROL_SINGLETON",
      "outputs": [
        {
          "internalType": "contract ISuAccessControl",
          "name": "",
          "type": "address"
        }
      ],
      "stateMutability": "view",
      "type": "function"
    },
    {
      "inputs": [],
      "name": "ADMIN_ROLE",
      "outputs": [
        {
          "internalType": "bytes32",
          "name": "",
          "type": "bytes32"
        }
      ],
      "stateMutability": "view",
      "type": "function"
    },
    {
      "inputs": [],
      "name": "ALERTER_ROLE",
      "outputs": [
        {
          "internalType": "bytes32",
          "name": "",
          "type": "bytes32"
        }
      ],
      "stateMutability": "view",
      "type": "function"
    },
    {
      "inputs": [],
      "name": "AUCTION_ACCESS_ROLE",
      "outputs": [
        {
          "internalType": "bytes32",
          "name": "",
          "type": "bytes32"
        }
      ],
      "stateMutability": "view",
      "type": "function"
    },
    {
      "inputs": [],
      "name": "CDP_ACCESS_ROLE",
      "outputs": [
        {
          "internalType": "bytes32",
          "name": "",
          "type": "bytes32"
        }
      ],
      "stateMutability": "view",
      "type": "function"
    },
    {
      "inputs": [],
      "name": "DAO_ROLE",
      "outputs": [
        {
          "internalType": "bytes32",
          "name": "",
          "type": "bytes32"
        }
      ],
      "stateMutability": "view",
      "type": "function"
    },
    {
      "inputs": [],
      "name": "DISABLER_ROLE",
      "outputs": [
        {
          "internalType": "bytes32",
          "name": "",
          "type": "bytes32"
        }
      ],
      "stateMutability": "view",
      "type": "function"
    },
    {
      "inputs": [],
      "name": "LIQUIDATION_ACCESS_ROLE",
      "outputs": [
        {
          "internalType": "bytes32",
          "name": "",
          "type": "bytes32"
        }
      ],
      "stateMutability": "view",
      "type": "function"
    },
    {
      "inputs": [],
      "name": "MINT_ACCESS_ROLE",
      "outputs": [
        {
          "internalType": "bytes32",
          "name": "",
          "type": "bytes32"
        }
      ],
      "stateMutability": "view",
      "type": "function"
    },
    {
      "inputs": [],
      "name": "PROXY_ACTIONS_ROLE",
      "outputs": [
        {
          "internalType": "bytes32",
          "name": "",
          "type": "bytes32"
        }
      ],
      "stateMutability": "view",
      "type": "function"
    },
    {
      "inputs": [],
      "name": "REWARD_ACCESS_ROLE",
      "outputs": [
        {
          "internalType": "bytes32",
          "name": "",
          "type": "bytes32"
        }
      ],
      "stateMutability": "view",
      "type": "function"
    },
    {
      "inputs": [],
      "name": "VOTING_ESCROW_ROLE",
      "outputs": [
        {
          "internalType": "bytes32",
          "name": "",
          "type": "bytes32"
        }
      ],
      "stateMutability": "view",
      "type": "function"
    },
    {
      "inputs": [
        {
          "internalType": "address",
          "name": "",
          "type": "address"
        }
      ],
      "name": "assetStalenessThreshold",
      "outputs": [
        {
          "internalType": "uint256",
          "name": "",
          "type": "uint256"
        }
      ],
      "stateMutability": "view",
      "type": "function"
    },
    {
      "inputs": [
        {
          "internalType": "address",
          "name": "",
          "type": "address"
        }
      ],
      "name": "assetToFeed",
      "outputs": [
        {
          "internalType": "address",
          "name": "",
          "type": "address"
        }
      ],
      "stateMutability": "view",
      "type": "function"
    },
    {
      "inputs": [
        {
          "internalType": "address",
          "name": "",
          "type": "address"
        }
      ],
      "name": "assetToFeedDecimals",
      "outputs": [
        {
          "internalType": "uint8",
          "name": "",
          "type": "uint8"
        }
      ],
      "stateMutability": "view",
      "type": "function"
    },
    {
      "inputs": [
        {
          "internalType": "address",
          "name": "asset",
          "type": "address"
        }
      ],
      "name": "getFiatPrice1e18",
      "outputs": [
        {
          "internalType": "uint256",
          "name": "",
          "type": "uint256"
        }
      ],
      "stateMutability": "view",
      "type": "function"
    },
    {
      "inputs": [
        {
          "internalType": "address",
          "name": "_authControl",
          "type": "address"
        },
        {
          "internalType": "address",
          "name": "_sequencerUptimeFeed",
          "type": "address"
        }
      ],
      "name": "initialize",
      "outputs": [],
      "stateMutability": "nonpayable",
      "type": "function"
    },
    {
      "inputs": [
        {
          "internalType": "address",
          "name": "",
          "type": "address"
        }
      ],
      "name": "isPriceInETH",
      "outputs": [
        {
          "internalType": "bool",
          "name": "",
          "type": "bool"
        }
      ],
      "stateMutability": "view",
      "type": "function"
    },
    {
      "inputs": [],
      "name": "pause",
      "outputs": [],
      "stateMutability": "nonpayable",
      "type": "function"
    },
    {
      "inputs": [],
      "name": "paused",
      "outputs": [
        {
          "internalType": "bool",
          "name": "",
          "type": "bool"
        }
      ],
      "stateMutability": "view",
      "type": "function"
    },
    {
      "inputs": [
        {
          "internalType": "address",
          "name": "asset",
          "type": "address"
        },
        {
          "internalType": "address",
          "name": "chainlinkDataFeed",
          "type": "address"
        },
        {
          "internalType": "uint8",
          "name": "chainlinkDataFeedDecimals",
          "type": "uint8"
        },
        {
          "internalType": "bool",
          "name": "_isPriceInETH",
          "type": "bool"
        },
        {
          "internalType": "uint256",
          "name": "_stalenessThreshold",
          "type": "uint256"
        }
      ],
      "name": "registerAsset",
      "outputs": [],
      "stateMutability": "nonpayable",
      "type": "function"
    },
    {
      "inputs": [
        {
          "internalType": "bytes4",
          "name": "interfaceId",
          "type": "bytes4"
        }
      ],
      "name": "supportsInterface",
      "outputs": [
        {
          "internalType": "bool",
          "name": "",
          "type": "bool"
        }
      ],
      "stateMutability": "view",
      "type": "function"
    },
    {
      "inputs": [],
      "name": "unpause",
      "outputs": [],
      "stateMutability": "nonpayable",
      "type": "function"
    },
    {
      "inputs": [
        {
          "internalType": "address",
          "name": "asset",
          "type": "address"
        },
        {
          "internalType": "uint256",
          "name": "_stalenessThreshold",
          "type": "uint256"
        }
      ],
      "name": "updateStalenessThreshold",
      "outputs": [],
      "stateMutability": "nonpayable",
      "type": "function"
    }
  ],
  "numDeployments": 1,
  "solcInputHash": "8f84b6f1e4072e92a972e80f9a9e23c6",
  "bytecode": "0x608060405234801561001057600080fd5b5061001961001e565b6100dd565b600054610100900460ff161561008a5760405162461bcd60e51b815260206004820152602760248201527f496e697469616c697a61626c653a20636f6e747261637420697320696e697469604482015266616c697a696e6760c81b606482015260840160405180910390fd5b60005460ff908116146100db576000805460ff191660ff9081179091556040519081527f7f26b83ff96e1f2b6a682f133852f6798a09c465da95921460cefb38474024989060200160405180910390a15b565b611372806100ec6000396000f3fe608060405234801561001057600080fd5b50600436106101285760003560e01c806301ffc9a71461012d57806303ee9f221461015557806317d9c94e1461017b5780631eead007146101b05780633272f67e146101c5578063340517c9146101f35780633f4ba83a1461021a578063438280dd14610222578063485cc955146102495780635c975abb1461025c57806371d0fb411461026957806375b238fc146102905780638456cb59146102985780638e5313e0146102a05780638eb92127146102c7578063b38234f3146102da578063b9ac2b3814610301578063bd5f5be614610314578063cf4809821461033b578063d0e8fa821461035e578063d2351cee14610385578063dc97e84e146103ac578063e6741de2146103d3578063e9c26518146103fc575b600080fd5b61014061013b366004610fd9565b610423565b60405190151581526020015b60405180910390f35b60005461016e906201000090046001600160a01b031681565b60405161014c919061100a565b61019e610189366004611035565b60356020526000908152604090205460ff1681565b60405160ff909116815260200161014c565b6101c36101be36600461106d565b6104a0565b005b6101e56101d3366004611035565b60376020526000908152604090205481565b60405190815260200161014c565b6101e57f014f8da3222812608c449a44f4705585c5ce052eeb6f9af0af9209c64b0ba2de81565b6101c3610605565b6101e57f39f61ca2a1a28fee144218173ec637b649a353e4026b2738c673800e5bf1437b81565b6101c36102573660046110cd565b610701565b6033546101409060ff1681565b6101e57f880a91047114272656e533301261260c75e4d11543ac7303d6fe4204579ec72781565b6101e5600081565b6101c3610835565b6101e57fe453bacb314e78dcd5192e6b1a2b1f0e7c76e92f6b7e429a6a90f04e39db3b7681565b6101c36102d5366004611100565b61092b565b6101e57fd83f5343da19b478b15a140c301a868be9e02603958f38fbd822b9d5c0a2891681565b6101e561030f366004611035565b610a75565b6101e57f4f14c8366fa999817edc9f29824eb88a00cc31225e2156f399da4bc91049eb1081565b610140610349366004611035565b60366020526000908152604090205460ff1681565b6101e57f76d0567582f23e1e9d7a13eeba60f9aea9d69b8da87ca27a8bf3698b35c653db81565b6101e57fb0fdd1623e42dbffda4acd8bd643e1cb69f00f0e83abeaa8150ee42cf0fd105e81565b6101e57f9a9aef7c1247d5fc769b0185c052913e39673da29a880317dfd20ebf86f26a4981565b61016e6103e1366004611035565b6034602052600090815260409020546001600160a01b031681565b6101e57f3b5d4cc60d3ec3516ee8ae083bd60934f6eb2a6c54b1229985c41bfb092b260381565b600080546040516301ffc9a760e01b8152620100009091046001600160a01b0316906301ffc9a79061045990859060040161112a565b602060405180830381865afa158015610476573d6000803e3d6000fd5b505050506040513d601f19601f8201168201806040525081019061049a919061113f565b92915050565b60335460ff16156104c4576040516301ca793160e61b815260040160405180910390fd5b60008054604051632474521560e21b8152620100009091046001600160a01b0316916391d14854916104fb9190339060040161115c565b602060405180830381865afa158015610518573d6000803e3d6000fd5b505050506040513d601f19601f8201168201806040525081019061053c919061113f565b61055957604051631886ea7d60e11b815260040160405180910390fd5b6001600160a01b0385811660008181526034602090815260408083208054958a166001600160a01b03199096168617905560358252808320805460ff8a1660ff1991821681179092556036845282852080548a151592168217905560378452938290208790558151908152918201929092529081018490527f1905d696815085213d4ca0df34ce35858f1ef8a2940f38a20741de4c423081439060600160405180910390a35050505050565b60008054604051632474521560e21b8152620100009091046001600160a01b0316916391d148549161063c9190339060040161115c565b602060405180830381865afa158015610659573d6000803e3d6000fd5b505050506040513d601f19601f8201168201806040525081019061067d919061113f565b61069a57604051631886ea7d60e11b815260040160405180910390fd5b60335460ff166106bd57604051636879228960e11b815260040160405180910390fd5b6033805460ff191690556040517f5db9ee0a495bf2e6ff9c91a7834c1ba4fdd244a5e8aa4e537bd38aeae4b073aa906106f790339061100a565b60405180910390a1565b600054610100900460ff16158080156107215750600054600160ff909116105b8061073b5750303b15801561073b575060005460ff166001145b6107a35760405162461bcd60e51b815260206004820152602e60248201527f496e697469616c697a61626c653a20636f6e747261637420697320616c72656160448201526d191e481a5b9a5d1a585b1a5e995960921b60648201526084015b60405180910390fd5b6000805460ff1916600117905580156107c6576000805461ff0019166101001790555b6107cf83610d3f565b603880546001600160a01b0319166001600160a01b0384161790558015610830576000805461ff0019169055604051600181527f7f26b83ff96e1f2b6a682f133852f6798a09c465da95921460cefb38474024989060200160405180910390a15b505050565b60008054604051632474521560e21b8152620100009091046001600160a01b0316916391d148549161086c9190339060040161115c565b602060405180830381865afa158015610889573d6000803e3d6000fd5b505050506040513d601f19601f820116820180604052508101906108ad919061113f565b6108ca57604051631886ea7d60e11b815260040160405180910390fd5b60335460ff16156108ee576040516301ca793160e61b815260040160405180910390fd5b6033805460ff191660011790556040517f62e78cea01bee320cd4e420270b5ea74000d11b0c9f74754ebdbfc544b05a258906106f790339061100a565b60335460ff161561094f576040516301ca793160e61b815260040160405180910390fd5b60008054604051632474521560e21b8152620100009091046001600160a01b0316916391d14854916109869190339060040161115c565b602060405180830381865afa1580156109a3573d6000803e3d6000fd5b505050506040513d601f19601f820116820180604052508101906109c7919061113f565b6109e457604051631886ea7d60e11b815260040160405180910390fd5b6001600160a01b0382811660009081526034602052604090205416610a1c57604051630719d53360e21b815260040160405180910390fd5b6001600160a01b03821660008181526037602052604090819020839055517f3fdda51a3d79e38997658ae2afa817c2121d46666e5ea5bb68dbe939a9d11ca790610a699084815260200190565b60405180910390a25050565b60335460009060ff1615610a9c576040516301ca793160e61b815260040160405180910390fd5b6001600160a01b038083166000908152603460205260409020541680610ad55760405163b0171a5d60e01b815260040160405180910390fd5b610add610e70565b610afa5760405163bbc1ae1f60e01b815260040160405180910390fd5b6001600160a01b03808416600090815260356020526040808220548151633fabe5a360e21b8152915160ff9091169383929086169163feaf968c9160048082019260a0929091908290030181865afa158015610b5a573d6000803e3d6000fd5b505050506040513d601f19601f82011682018060405250810190610b7e919061118a565b506001600160a01b038a166000908152603760205260409020549295509350909150610bac905082426111f0565b10610bca57604051630cd5fa0760e11b815260040160405180910390fd5b60008213610beb576040516321d0ed8560e11b815260040160405180910390fd5b6000610bf78385610f3d565b90506001600160a01b0387161580610c2b575073eeeeeeeeeeeeeeeeeeeeeeeeeeeeeeeeeeeeeeee6001600160a01b038816145b15610c3c579450610d3a9350505050565b6000876001600160a01b031663313ce5676040518163ffffffff1660e01b8152600401602060405180830381865afa158015610c7c573d6000803e3d6000fd5b505050506040513d601f19601f82011682018060405250810190610ca09190611203565b90506000610cae8383610f3d565b6001600160a01b038a1660009081526036602052604090205490915060ff1615610d2c576000610cde6000610a75565b905080600003610d015760405163f174653d60e01b815260040160405180910390fd5b670de0b6b3a7640000610d148284611220565b610d1e9190611237565b9a9950505050505050505050565b9650610d3a95505050505050565b919050565b600054610100900460ff16610daa5760405162461bcd60e51b815260206004820152602b60248201527f496e697469616c697a61626c653a20636f6e7472616374206973206e6f74206960448201526a6e697469616c697a696e6760a81b606482015260840161079a565b6000805462010000600160b01b031916620100006001600160a01b038416908102919091179091551580610e4f57506040516301ffc9a760e01b81526001600160a01b038216906301ffc9a790610e0c90637965db0b60e01b9060040161112a565b602060405180830381865afa158015610e29573d6000803e3d6000fd5b505050506040513d601f19601f82011682018060405250810190610e4d919061113f565b155b15610e6d576040516384d942fd60e01b815260040160405180910390fd5b50565b6038546000906001600160a01b0316610e895750600190565b600080603860009054906101000a90046001600160a01b03166001600160a01b031663feaf968c6040518163ffffffff1660e01b815260040160a060405180830381865afa158015610edf573d6000803e3d6000fd5b505050506040513d601f19601f82011682018060405250810190610f03919061118a565b50509250925050610e108142610f1991906111f0565b111580610f265750816001145b15610f345760009250505090565b60019250505090565b600082600003610f4f5750600061049a565b604d8260ff1610610f7357604051630456c65960e51b815260040160405180910390fd5b60128260ff161015610fa657610f8a826012611259565b610f9590600a611356565b610f9f9084611220565b905061049a565b60128260ff161115610fd257610fbd601283611259565b610fc890600a611356565b610f9f9084611237565b5090919050565b600060208284031215610feb57600080fd5b81356001600160e01b03198116811461100357600080fd5b9392505050565b6001600160a01b0391909116815260200190565b80356001600160a01b0381168114610d3a57600080fd5b60006020828403121561104757600080fd5b6110038261101e565b60ff81168114610e6d57600080fd5b8015158114610e6d57600080fd5b600080600080600060a0868803121561108557600080fd5b61108e8661101e565b945061109c6020870161101e565b935060408601356110ac81611050565b925060608601356110bc8161105f565b949793965091946080013592915050565b600080604083850312156110e057600080fd5b6110e98361101e565b91506110f76020840161101e565b90509250929050565b6000806040838503121561111357600080fd5b61111c8361101e565b946020939093013593505050565b6001600160e01b031991909116815260200190565b60006020828403121561115157600080fd5b81516110038161105f565b9182526001600160a01b0316602082015260400190565b80516001600160501b0381168114610d3a57600080fd5b600080600080600060a086880312156111a257600080fd5b6111ab86611173565b94506020860151935060408601519250606086015191506111ce60808701611173565b90509295509295909350565b634e487b7160e01b600052601160045260246000fd5b8181038181111561049a5761049a6111da565b60006020828403121561121557600080fd5b815161100381611050565b808202811582820484141761049a5761049a6111da565b60008261125457634e487b7160e01b600052601260045260246000fd5b500490565b60ff828116828216039081111561049a5761049a6111da565b600181815b808511156112ad578160001904821115611293576112936111da565b808516156112a057918102915b93841c9390800290611277565b509250929050565b6000826112c45750600161049a565b816112d15750600061049a565b81600181146112e757600281146112f15761130d565b600191505061049a565b60ff841115611302576113026111da565b50506001821b61049a565b5060208310610133831016604e8410600b8410161715611330575081810a61049a565b61133a8383611272565b806000190482111561134e5761134e6111da565b029392505050565b600061100360ff8416836112b556fea164736f6c6343000811000a",
  "devdoc": {
    "details": "See ISuChainlinkOracle interface for full details.",
    "kind": "dev",
    "methods": {
      "constructor": {
        "custom:oz-upgrades-unsafe-allow": "constructor"
      },
      "getFiatPrice1e18(address)": {
        "params": {
          "asset": "- address of erc20 token contract"
        },
        "returns": {
          "_0": "usdPrice1e18 such that asset.balanceOf() * getFiatPrice1e18(asset) / 1e18 == $$ * 1e18*"
        }
      },
      "supportsInterface(bytes4)": {
        "details": "Returns true if this contract implements the interface defined by `interfaceId`. See the corresponding https://eips.ethereum.org/EIPS/eip-165#how-interfaces-are-identified[EIP section] to learn more about how these ids are created. This function call must use less than 30 000 gas."
      },
      "updateStalenessThreshold(address,uint256)": {
        "details": "This threshold should be set based on the Chainlink feed's heartbeat For example: - ETH/USD: 3600s (1 hour) heartbeat -> set threshold to 3600 - STETH/USD: 3600s heartbeat -> set threshold to 3600 - wstETH/USD: 86400s (24 hour) heartbeat -> set threshold to 86400",
        "params": {
          "_stalenessThreshold": "New staleness threshold in seconds",
          "asset": "The address of the asset to update"
        }
      }
    },
    "title": "SuChainlinkOracle",
    "version": 1
  },
  "userdoc": {
    "kind": "user",
    "methods": {
      "assetToFeed(address)": {
        "notice": "Data feeds addresses from https://docs.chain.link/docs/ethereum-addresses/#Goerli%20Testnet each chainlink data feed has own decimals, see the link above*"
      },
      "getFiatPrice1e18(address)": {
        "notice": "WARNING! Read this description very carefully!     function getFiatPrice1e18(address asset) returns (uint256) that:         basicAmountOfAsset * getFiatPrice1e18(asset) / 1e18 === $$ * 1e18     in other words, it doesn't matter what's the erc20.decimals is,     you just multiply token balance in basic units on value from oracle and get dollar amount multiplied on 1e18. different assets have different deviation threshold (errors)     for wBTC it's <= 0.5%, read more https://data.chain.link/ethereum/mainnet/crypto-usd/btc-usd     for other asset is can be larger based on particular oracle implementation. examples:     market price of btc = $30k,     for 0.1 wBTC the unit256 amount is 0.1 * 1e18     0.1 * 1e18 * (price1e18 / 1e18) == $3000 == uint256(3000*1e18)     => price1e18 = 30000 * 1e18;     market price of usdt = $0.97,     for 1 usdt uint256 = 1 * 1e6     so 1*1e6 * price1e18 / 1e18 == $0.97 == uint256(0.97*1e18)     => 1*1e6 * (price1e18 / 1e18) / (0.97*1e18)   = 1     =>  price1e18 = 0.97 * (1e18/1e6) * 1e18    assume market price of wBTC = $31,503.77, oracle error = $158     case #1: small amount of wBTC         we have 0.0,000,001 wBTC that is worth v = $0.00315  $0.00001 = 0.00315*1e18 = 315*1e13  1*1e13         actual balance on the asset b = wBTC.balanceOf() =  0.0000001*1e18 = 1e11         oracle should return or = oracle.getFiatPrice1e18(wBTC) <=>         <=> b*or = v => v/b = 315*1e13 / 1e11 = 315*1e2  1e2         error = or.error * b = 1e2 * 1e11 = 1e13 => 1e13/1e18 usd = 1e-5 = 0.00001 usd     case #2: large amount of wBTC         v = 2,000,000 wBTC = $31,503.77 * 2m  158*2m = $63,007,540,000  $316,000,000 = 63,007*1e24  316*1e24         for calc convenience we increase error on 0.05 and have v = 63,000*24  300*1e24 = (630  3)*1e26         b = 2*1e6 * 1e18 = 2*1e24         or = v/b = (630  3)*1e26 / 2*1e24 = 315*1e2  1.5*1e2         error = or.error * b = 1.5*100 * 2*1e24 = 3*1e26 = 3*1e8*1e18 = $300,000,000 ~ $316,000,000     assume the market price of USDT = $0.97  $0.00485,     case #3: little amount of USDT         v = USDT amount 0.005 = 0.005*(0.97  0.00485) = 0.00485*1e18  0.00002425*1e18 = 485*1e13  3*1e13         we rounded error up on (3000-2425)/2425 ~= +24% for calculation convenience.         b = USDT.balanceOf() = 0.005*1e6 = 5*1e3         b*or = v => or = v/b = (485*1e13  3*1e13) / 5*1e3 = 970*1e9  6*1e9         error = 6*1e9 * 5*1e3 / 1e18 = 30*1e12/1e18 = 3*1e-5 = $0,00005     case #4: lot of USDT         v = we have 100,000,000,000 USDT = $97B = 97*1e9*1e18  0.5*1e9*1e18         b = USDT.balanceOf() = 1e11*1e6 = 1e17         or = v/b = (97*1e9*1e18  0.5*1e9*1e18) / 1e17 = 970*1e9  5*1e9         error = 5*1e9 * 1e17 = 5*1e26 = 0.5 * 1e8*1e18"
      },
      "initialize(address,address)": {
        "notice": "For a list of available Sequencer Uptime Feed proxy addresses, see: https://docs.chain.link/docs/data-feeds/l2-sequencer-feeds"
      },
      "updateStalenessThreshold(address,uint256)": {
        "notice": "Updates the staleness threshold for a specific asset"
      }
    },
    "notice": "Oracle that use Chainlink prices",
    "version": 1
  },
  "storageLayout": {
    "storage": [
      {
        "astId": 1226,
        "contract": "contracts/exchange/contracts/periphery/contracts/oracle/SuChainlinkOracle.sol:SuChainlinkOracle",
        "label": "_initialized",
        "offset": 0,
        "slot": "0",
        "type": "t_uint8"
      },
      {
        "astId": 1229,
        "contract": "contracts/exchange/contracts/periphery/contracts/oracle/SuChainlinkOracle.sol:SuChainlinkOracle",
        "label": "_initializing",
        "offset": 1,
        "slot": "0",
        "type": "t_bool"
      },
      {
        "astId": 25605,
        "contract": "contracts/exchange/contracts/periphery/contracts/oracle/SuChainlinkOracle.sol:SuChainlinkOracle",
        "label": "ACCESS_CONTROL_SINGLETON",
        "offset": 2,
        "slot": "0",
        "type": "t_contract(ISuAccessControl)32864"
      },
      {
        "astId": 25893,
        "contract": "contracts/exchange/contracts/periphery/contracts/oracle/SuChainlinkOracle.sol:SuChainlinkOracle",
        "label": "__gap",
        "offset": 0,
        "slot": "1",
        "type": "t_array(t_uint256)50_storage"
      },
      {
        "astId": 25352,
        "contract": "contracts/exchange/contracts/periphery/contracts/oracle/SuChainlinkOracle.sol:SuChainlinkOracle",
        "label": "paused",
        "offset": 0,
        "slot": "51",
        "type": "t_bool"
      },
      {
        "astId": 35912,
        "contract": "contracts/exchange/contracts/periphery/contracts/oracle/SuChainlinkOracle.sol:SuChainlinkOracle",
        "label": "assetToFeed",
        "offset": 0,
        "slot": "52",
        "type": "t_mapping(t_address,t_address)"
      },
      {
        "astId": 35916,
        "contract": "contracts/exchange/contracts/periphery/contracts/oracle/SuChainlinkOracle.sol:SuChainlinkOracle",
        "label": "assetToFeedDecimals",
        "offset": 0,
        "slot": "53",
        "type": "t_mapping(t_address,t_uint8)"
      },
      {
        "astId": 35920,
        "contract": "contracts/exchange/contracts/periphery/contracts/oracle/SuChainlinkOracle.sol:SuChainlinkOracle",
        "label": "isPriceInETH",
        "offset": 0,
        "slot": "54",
        "type": "t_mapping(t_address,t_bool)"
      },
      {
        "astId": 35927,
        "contract": "contracts/exchange/contracts/periphery/contracts/oracle/SuChainlinkOracle.sol:SuChainlinkOracle",
        "label": "assetStalenessThreshold",
        "offset": 0,
        "slot": "55",
        "type": "t_mapping(t_address,t_uint256)"
      },
      {
        "astId": 35929,
        "contract": "contracts/exchange/contracts/periphery/contracts/oracle/SuChainlinkOracle.sol:SuChainlinkOracle",
        "label": "sequencerUptimeFeed",
        "offset": 0,
        "slot": "56",
        "type": "t_address"
      },
      {
        "astId": 36280,
        "contract": "contracts/exchange/contracts/periphery/contracts/oracle/SuChainlinkOracle.sol:SuChainlinkOracle",
        "label": "__gap",
        "offset": 0,
        "slot": "57",
        "type": "t_array(t_uint256)50_storage"
      }
    ],
    "types": {
      "t_address": {
        "encoding": "inplace",
        "label": "address",
        "numberOfBytes": "20"
      },
      "t_array(t_uint256)50_storage": {
        "base": "t_uint256",
        "encoding": "inplace",
        "label": "uint256[50]",
        "numberOfBytes": "1600"
      },
      "t_bool": {
        "encoding": "inplace",
        "label": "bool",
        "numberOfBytes": "1"
      },
      "t_contract(ISuAccessControl)32864": {
        "encoding": "inplace",
        "label": "contract ISuAccessControl",
        "numberOfBytes": "20"
      },
      "t_mapping(t_address,t_address)": {
        "encoding": "mapping",
        "key": "t_address",
        "label": "mapping(address => address)",
        "numberOfBytes": "32",
        "value": "t_address"
      },
      "t_mapping(t_address,t_bool)": {
        "encoding": "mapping",
        "key": "t_address",
        "label": "mapping(address => bool)",
        "numberOfBytes": "32",
        "value": "t_bool"
      },
      "t_mapping(t_address,t_uint256)": {
        "encoding": "mapping",
        "key": "t_address",
        "label": "mapping(address => uint256)",
        "numberOfBytes": "32",
        "value": "t_uint256"
      },
      "t_mapping(t_address,t_uint8)": {
        "encoding": "mapping",
        "key": "t_address",
        "label": "mapping(address => uint8)",
        "numberOfBytes": "32",
        "value": "t_uint8"
      },
      "t_uint256": {
        "encoding": "inplace",
        "label": "uint256",
        "numberOfBytes": "32"
      },
      "t_uint8": {
        "encoding": "inplace",
        "label": "uint8",
        "numberOfBytes": "1"
      }
    }
  }
}