{
  "address": "0x5bF3B6951e11E071EA83770f0584e2f88908C128",
  "abi": [
    {
      "inputs": [],
      "stateMutability": "nonpayable",
      "type": "constructor"
    },
    {
      "inputs": [],
      "name": "BadAccessControlSingleton",
      "type": "error"
    },
    {
      "inputs": [],
      "name": "BadOracleId",
      "type": "error"
    },
    {
      "inputs": [
        {
          "internalType": "address",
          "name": "asset",
          "type": "address"
        }
      ],
      "name": "NoOracleFound",
      "type": "error"
    },
    {
      "inputs": [],
      "name": "NoOracleImplementation",
      "type": "error"
    },
    {
      "inputs": [],
      "name": "OnlyAdminError",
      "type": "error"
    },
    {
      "inputs": [],
      "name": "OnlyAlerterError",
      "type": "error"
    },
    {
      "inputs": [],
      "name": "OnlyCDPAccessError",
      "type": "error"
    },
    {
      "inputs": [],
      "name": "OnlyDAOError",
      "type": "error"
    },
    {
      "inputs": [],
      "name": "OnlyDisablerAccessError",
      "type": "error"
    },
    {
      "inputs": [],
      "name": "OnlyLiquidationAccessError",
      "type": "error"
    },
    {
      "inputs": [],
      "name": "OnlyMintAccessError",
      "type": "error"
    },
    {
      "inputs": [],
      "name": "OnlyProxyActionsError",
      "type": "error"
    },
    {
      "inputs": [],
      "name": "OnlyRewardAccessError",
      "type": "error"
    },
    {
      "inputs": [],
      "name": "OnlyRoleError",
      "type": "error"
    },
    {
      "inputs": [],
      "name": "OnlyVaultAccessError",
      "type": "error"
    },
    {
      "inputs": [],
      "name": "OnlyVotingEscrowError",
      "type": "error"
    },
    {
      "inputs": [
        {
          "internalType": "address",
          "name": "asset",
          "type": "address"
        },
        {
          "internalType": "uint256",
          "name": "price",
          "type": "uint256"
        },
        {
          "internalType": "uint256",
          "name": "bound",
          "type": "uint256"
        }
      ],
      "name": "PriceAboveUpperBound",
      "type": "error"
    },
    {
      "inputs": [
        {
          "internalType": "address",
          "name": "asset",
          "type": "address"
        },
        {
          "internalType": "uint256",
          "name": "price",
          "type": "uint256"
        },
        {
          "internalType": "uint256",
          "name": "bound",
          "type": "uint256"
        }
      ],
      "name": "PriceBelowLowerBound",
      "type": "error"
    },
    {
      "inputs": [],
      "name": "SystemNotPaused",
      "type": "error"
    },
    {
      "inputs": [],
      "name": "SystemPaused",
      "type": "error"
    },
    {
      "anonymous": false,
      "inputs": [
        {
          "indexed": false,
          "internalType": "uint8",
          "name": "version",
          "type": "uint8"
        }
      ],
      "name": "Initialized",
      "type": "event"
    },
    {
      "anonymous": false,
      "inputs": [
        {
          "indexed": false,
          "internalType": "address",
          "name": "asset",
          "type": "address"
        },
        {
          "indexed": false,
          "internalType": "uint256",
          "name": "newBound",
          "type": "uint256"
        }
      ],
      "name": "OracleLowerBoundUpdated",
      "type": "event"
    },
    {
      "anonymous": false,
      "inputs": [
        {
          "indexed": true,
          "internalType": "address",
          "name": "asset",
          "type": "address"
        },
        {
          "indexed": false,
          "internalType": "uint256",
          "name": "price",
          "type": "uint256"
        },
        {
          "indexed": false,
          "internalType": "uint256",
          "name": "lowerBound",
          "type": "uint256"
        }
      ],
      "name": "OracleLowerBoundWarning",
      "type": "event"
    },
    {
      "anonymous": false,
      "inputs": [
        {
          "indexed": false,
          "internalType": "address",
          "name": "asset",
          "type": "address"
        },
        {
          "indexed": false,
          "internalType": "uint256",
          "name": "newBound",
          "type": "uint256"
        }
      ],
      "name": "OracleUpperBoundUpdated",
      "type": "event"
    },
    {
      "anonymous": false,
      "inputs": [
        {
          "indexed": true,
          "internalType": "address",
          "name": "asset",
          "type": "address"
        },
        {
          "indexed": false,
          "internalType": "uint256",
          "name": "price",
          "type": "uint256"
        },
        {
          "indexed": false,
          "internalType": "uint256",
          "name": "upperBound",
          "type": "uint256"
        }
      ],
      "name": "OracleUpperBoundWarning",
      "type": "event"
    },
    {
      "anonymous": false,
      "inputs": [
        {
          "indexed": false,
          "internalType": "address",
          "name": "account",
          "type": "address"
        }
      ],
      "name": "Paused",
      "type": "event"
    },
    {
      "anonymous": false,
      "inputs": [
        {
          "indexed": false,
          "internalType": "address",
          "name": "account",
          "type": "address"
        }
      ],
      "name": "Unpaused",
      "type": "event"
    },
    {
      "inputs": [],
      "name": "ACCESS_CONTROL_SINGLETON",
      "outputs": [
        {
          "internalType": "contract ISuAccessControl",
          "name": "",
          "type": "address"
        }
      ],
      "stateMutability": "view",
      "type": "function"
    },
    {
      "inputs": [],
      "name": "ADMIN_ROLE",
      "outputs": [
        {
          "internalType": "bytes32",
          "name": "",
          "type": "bytes32"
        }
      ],
      "stateMutability": "view",
      "type": "function"
    },
    {
      "inputs": [],
      "name": "ALERTER_ROLE",
      "outputs": [
        {
          "internalType": "bytes32",
          "name": "",
          "type": "bytes32"
        }
      ],
      "stateMutability": "view",
      "type": "function"
    },
    {
      "inputs": [],
      "name": "CDP_ACCESS_ROLE",
      "outputs": [
        {
          "internalType": "bytes32",
          "name": "",
          "type": "bytes32"
        }
      ],
      "stateMutability": "view",
      "type": "function"
    },
    {
      "inputs": [],
      "name": "DAO_ROLE",
      "outputs": [
        {
          "internalType": "bytes32",
          "name": "",
          "type": "bytes32"
        }
      ],
      "stateMutability": "view",
      "type": "function"
    },
    {
      "inputs": [],
      "name": "DISABLER_ROLE",
      "outputs": [
        {
          "internalType": "bytes32",
          "name": "",
          "type": "bytes32"
        }
      ],
      "stateMutability": "view",
      "type": "function"
    },
    {
      "inputs": [],
      "name": "LIQUIDATION_ACCESS_ROLE",
      "outputs": [
        {
          "internalType": "bytes32",
          "name": "",
          "type": "bytes32"
        }
      ],
      "stateMutability": "view",
      "type": "function"
    },
    {
      "inputs": [],
      "name": "MINT_ACCESS_ROLE",
      "outputs": [
        {
          "internalType": "bytes32",
          "name": "",
          "type": "bytes32"
        }
      ],
      "stateMutability": "view",
      "type": "function"
    },
    {
      "inputs": [],
      "name": "PROXY_ACTIONS_ROLE",
      "outputs": [
        {
          "internalType": "bytes32",
          "name": "",
          "type": "bytes32"
        }
      ],
      "stateMutability": "view",
      "type": "function"
    },
    {
      "inputs": [],
      "name": "REWARD_ACCESS_ROLE",
      "outputs": [
        {
          "internalType": "bytes32",
          "name": "",
          "type": "bytes32"
        }
      ],
      "stateMutability": "view",
      "type": "function"
    },
    {
      "inputs": [],
      "name": "VOTING_ESCROW_ROLE",
      "outputs": [
        {
          "internalType": "bytes32",
          "name": "",
          "type": "bytes32"
        }
      ],
      "stateMutability": "view",
      "type": "function"
    },
    {
      "inputs": [
        {
          "internalType": "address",
          "name": "",
          "type": "address"
        }
      ],
      "name": "assetToOracle",
      "outputs": [
        {
          "internalType": "uint256",
          "name": "",
          "type": "uint256"
        }
      ],
      "stateMutability": "view",
      "type": "function"
    },
    {
      "inputs": [
        {
          "internalType": "address",
          "name": "asset",
          "type": "address"
        }
      ],
      "name": "getFiatPrice1e18",
      "outputs": [
        {
          "internalType": "uint256",
          "name": "",
          "type": "uint256"
        }
      ],
      "stateMutability": "view",
      "type": "function"
    },
    {
      "inputs": [
        {
          "internalType": "address",
          "name": "asset",
          "type": "address"
        }
      ],
      "name": "getSafeFiatPrice1e18",
      "outputs": [
        {
          "internalType": "uint256",
          "name": "",
          "type": "uint256"
        }
      ],
      "stateMutability": "nonpayable",
      "type": "function"
    },
    {
      "inputs": [
        {
          "internalType": "address",
          "name": "asset",
          "type": "address"
        }
      ],
      "name": "hasPriceForAsset",
      "outputs": [
        {
          "internalType": "bool",
          "name": "",
          "type": "bool"
        }
      ],
      "stateMutability": "view",
      "type": "function"
    },
    {
      "inputs": [
        {
          "internalType": "address",
          "name": "_authControl",
          "type": "address"
        }
      ],
      "name": "initialize",
      "outputs": [],
      "stateMutability": "nonpayable",
      "type": "function"
    },
    {
      "inputs": [
        {
          "internalType": "address",
          "name": "",
          "type": "address"
        }
      ],
      "name": "limitations",
      "outputs": [
        {
          "internalType": "uint256",
          "name": "lowerBound",
          "type": "uint256"
        },
        {
          "internalType": "uint256",
          "name": "upperBound",
          "type": "uint256"
        }
      ],
      "stateMutability": "view",
      "type": "function"
    },
    {
      "inputs": [
        {
          "internalType": "uint256",
          "name": "",
          "type": "uint256"
        }
      ],
      "name": "oracleImplementations",
      "outputs": [
        {
          "internalType": "contract ISuOracle",
          "name": "",
          "type": "address"
        }
      ],
      "stateMutability": "view",
      "type": "function"
    },
    {
      "inputs": [],
      "name": "pause",
      "outputs": [],
      "stateMutability": "nonpayable",
      "type": "function"
    },
    {
      "inputs": [],
      "name": "paused",
      "outputs": [
        {
          "internalType": "bool",
          "name": "",
          "type": "bool"
        }
      ],
      "stateMutability": "view",
      "type": "function"
    },
    {
      "inputs": [
        {
          "internalType": "address",
          "name": "asset",
          "type": "address"
        },
        {
          "internalType": "uint256",
          "name": "newLowerBound",
          "type": "uint256"
        }
      ],
      "name": "setLowerBound",
      "outputs": [],
      "stateMutability": "nonpayable",
      "type": "function"
    },
    {
      "inputs": [
        {
          "internalType": "address[]",
          "name": "assets",
          "type": "address[]"
        },
        {
          "internalType": "uint256",
          "name": "oracleId",
          "type": "uint256"
        }
      ],
      "name": "setOracleIdForAssets",
      "outputs": [],
      "stateMutability": "nonpayable",
      "type": "function"
    },
    {
      "inputs": [
        {
          "internalType": "uint256",
          "name": "oracleId",
          "type": "uint256"
        },
        {
          "internalType": "contract ISuOracle",
          "name": "oracleImplementation",
          "type": "address"
        }
      ],
      "name": "setOracleImplementation",
      "outputs": [],
      "stateMutability": "nonpayable",
      "type": "function"
    },
    {
      "inputs": [
        {
          "internalType": "address",
          "name": "asset",
          "type": "address"
        },
        {
          "internalType": "uint256",
          "name": "newUpperBound",
          "type": "uint256"
        }
      ],
      "name": "setUpperBound",
      "outputs": [],
      "stateMutability": "nonpayable",
      "type": "function"
    },
    {
      "inputs": [
        {
          "internalType": "bytes4",
          "name": "interfaceId",
          "type": "bytes4"
        }
      ],
      "name": "supportsInterface",
      "outputs": [
        {
          "internalType": "bool",
          "name": "",
          "type": "bool"
        }
      ],
      "stateMutability": "view",
      "type": "function"
    },
    {
      "inputs": [],
      "name": "unpause",
      "outputs": [],
      "stateMutability": "nonpayable",
      "type": "function"
    }
  ],
  "numDeployments": 1,
  "solcInputHash": "8c060bc8c39a7272c2849a174b3b4791",
  "bytecode": "0x608080604052346100c1576000549060ff8260081c1661006f575060ff80821603610034575b60405161110090816100c78239f35b60ff90811916176000557f7f26b83ff96e1f2b6a682f133852f6798a09c465da95921460cefb3847402498602060405160ff8152a138610025565b62461bcd60e51b815260206004820152602760248201527f496e697469616c697a61626c653a20636f6e747261637420697320696e697469604482015266616c697a696e6760c81b6064820152608490fd5b600080fdfe608060408181526004908136101561001657600080fd5b600092833560e01c90816301ffc9a714610e885750806303ee9f2214610e5c5780630827ba5b14610e295780632a5001c914610d025780632e00d24514610cca5780633e052a9214610bfa5780633f4ba83a14610b33578063438280dd14610af85780635c975abb14610ad45780636806ff2b1461090d5780636bf264bc146108cb57806371d0fb411461089057806375b238fc146108755780638456cb59146107915780638e5313e014610756578063a780f1331461071c578063b38234f3146106e1578063b5daa610146105e2578063b9ac2b38146105b5578063bd5f5be61461057a578063c4d66de814610342578063d0e8fa8214610307578063d2351cee146102cc578063dc97e84e14610291578063e9c26518146102645763ef54c3781461014257600080fd5b346102605780600319360112610260576001600160a01b0360243581811693803592909185900361025c5760ff6033541661024d576020604491875460101c16855192838092632474521560e21b82526000805160206110ab833981519152878301523360248301525afa908115610243578691610215575b50156102075781156101f95783156101eb575083526035602052822080546001600160a01b031916909117905580f35b825163722dd29d60e11b8152fd5b825163f837507f60e01b8152fd5b825163599a6c3360e11b8152fd5b610236915060203d811161023c575b61022e8183610f34565b810190610f6d565b386101bb565b503d610224565b84513d88823e3d90fd5b5082516301ca793160e61b8152fd5b8580fd5b8280fd5b83823461028d578160031936011261028d57602090516000805160206110ab8339815191528152f35b5080fd5b83823461028d578160031936011261028d57602090517f9a9aef7c1247d5fc769b0185c052913e39673da29a880317dfd20ebf86f26a498152f35b83823461028d578160031936011261028d57602090517fb0fdd1623e42dbffda4acd8bd643e1cb69f00f0e83abeaa8150ee42cf0fd105e8152f35b83823461028d578160031936011261028d57602090517f76d0567582f23e1e9d7a13eeba60f9aea9d69b8da87ca27a8bf3698b35c653db8152f35b503461026057602090816003193601126105765761035e610f19565b845460ff8160081c161590818092610569575b8015610552575b156104f85760ff1981166001178755816104e7575b5085549460ff8660081c16156104905762010000600160b01b03601084901b1662010000600160b01b0319871681178855926001600160a01b03168015908690821561042f575b505061042157506103e3578480f35b7f7f26b83ff96e1f2b6a682f133852f6798a09c465da95921460cefb384740249893610100600160b01b0319161784555160018152a1388080808480f35b83516384d942fd60e01b8152fd5b86516301ffc9a760e01b8152637965db0b60e01b858201529250829060249082905afa908115610486578891610469575b501585386103d4565b6104809150863d881161023c5761022e8183610f34565b38610460565b85513d8a823e3d90fd5b835162461bcd60e51b8152908101859052602b60248201527f496e697469616c697a61626c653a20636f6e7472616374206973206e6f74206960448201526a6e697469616c697a696e6760a81b6064820152608490fd5b61ffff19166101011786553861038d565b835162461bcd60e51b8152808701869052602e60248201527f496e697469616c697a61626c653a20636f6e747261637420697320616c72656160448201526d191e481a5b9a5d1a585b1a5e995960921b6064820152608490fd5b50303b1580156103785750600160ff821614610378565b50600160ff821610610371565b8380fd5b83823461028d578160031936011261028d57602090517f4f14c8366fa999817edc9f29824eb88a00cc31225e2156f399da4bc91049eb108152f35b83823461028d57602036600319011261028d576020906105db6105d6610f19565b610fa0565b9051908152f35b5091903461028d578260031936011261028d576105fd610f19565b6024359160ff603354166106d35783548551632474521560e21b81528083018690523360248201526001600160a01b0392916020908290604490829060101c87165afa9081156106c95786916106ab575b501561069d57507f0199272408193eaaf53b92e68b2a00f72e90368f8f51fc81a964cb7c00cd06da93946106979183168652603660205283600182882001555192839283610f85565b0390a180f35b8551631886ea7d60e11b8152fd5b6106c3915060203d811161023c5761022e8183610f34565b3861064e565b87513d88823e3d90fd5b84516301ca793160e61b8152fd5b83823461028d578160031936011261028d57602090517fd83f5343da19b478b15a140c301a868be9e02603958f38fbd822b9d5c0a289168152f35b83823461028d57602036600319011261028d5760209181906001600160a01b03610744610f19565b16815260348452205415159051908152f35b83823461028d578160031936011261028d57602090517fe453bacb314e78dcd5192e6b1a2b1f0e7c76e92f6b7e429a6a90f04e39db3b768152f35b50903461026057826003193601126102605782548251632474521560e21b8152828101859052336024820152906020908290604490829060101c6001600160a01b03165afa90811561086857849161084a575b501561083c576033549060ff821661082e575060ff1916600117603355513381527f62e78cea01bee320cd4e420270b5ea74000d11b0c9f74754ebdbfc544b05a25890602090a180f35b82516301ca793160e61b8152fd5b9051631886ea7d60e11b8152fd5b610862915060203d811161023c5761022e8183610f34565b386107e4565b50505051903d90823e3d90fd5b83823461028d578160031936011261028d5751908152602090f35b83823461028d578160031936011261028d57602090517f880a91047114272656e533301261260c75e4d11543ac7303d6fe4204579ec7278152f35b83823461028d57602036600319011261028d579081906001600160a01b036108f1610f19565b1681526036602052206001815491015482519182526020820152f35b5090346102605781600319360112610260576001600160401b0391813590838211610ad05736602383011215610ad05781830135938411610abd5760059184831b9082519060209661096188850184610f34565b82528682016024809483010191368311610ab9578401905b828210610a965750505081359360ff60335416610a865787548451632474521560e21b81526000805160206110ab8339815191528882015233818601526001600160a01b03949189908290604490829060101c89165afa908115610a7c578a91610a5f575b5015610a4f578589526035885283858a20541615610a3f57825196895b888110610a06578a80f35b8451811015610a2d5780868b600193871b88010151168c5260348b5288888d2055016109fb565b50634e487b7160e01b8a526032905288fd5b845163722dd29d60e11b81528790fd5b845163599a6c3360e11b81528790fd5b610a769150893d8b1161023c5761022e8183610f34565b386109de565b86513d8c823e3d90fd5b83516301ca793160e61b81528690fd5b81356001600160a01b0381168103610ab5578152908801908801610979565b8a80fd5b8980fd5b634e487b7160e01b855260418352602485fd5b8480fd5b83823461028d578160031936011261028d5760209060ff6033541690519015158152f35b83823461028d578160031936011261028d57602090517f39f61ca2a1a28fee144218173ec637b649a353e4026b2738c673800e5bf1437b8152f35b50903461026057826003193601126102605782548251632474521560e21b8152828101859052336024820152906020908290604490829060101c6001600160a01b03165afa908115610868578491610bdc575b501561083c576033549060ff821615610bce575060ff1916603355513381527f5db9ee0a495bf2e6ff9c91a7834c1ba4fdd244a5e8aa4e537bd38aeae4b073aa90602090a180f35b8251636879228960e11b8152fd5b610bf4915060203d811161023c5761022e8183610f34565b38610b86565b5091903461028d578260031936011261028d57610c15610f19565b6024359160ff603354166106d35783548551632474521560e21b81528083018690523360248201526001600160a01b0392916020908290604490829060101c87165afa9081156106c9578691610cac575b501561069d57507f971bd3dd8679e2fea46724b3cfcad534571a5187bf2fec5397406ac28fa034ca93946106979183168652603660205283818720555192839283610f85565b610cc4915060203d811161023c5761022e8183610f34565b38610c66565b83823461028d57602036600319011261028d5760209181906001600160a01b03610cf2610f19565b1681526034845220549051908152f35b5082903461028d576020928360031936011261026057610d20610f19565b9060ff6033541661082e57610d3482610fa0565b6001600160a01b03831680865260368752848620549195918610610dd15780825260368752600185832001548611610d70575050505051908152f35b856001868460368b8684977f4c03bc86a754f9beaf1d5ca51f8f3bc42ccc797955bd693537e404fa73aef45a868881610dcd9d2001548151908b825286820152a2835252200154915163e8dfaf4b60e01b8152948594850161108c565b0390fd5b85858360368a8584967f151943aac40e4f3053a6ec0d39abf9bc9c35fd0fa9d051e3ea8731494b8bf26c8680610dcd9b20548151908a825286820152a283525220549151630337f54960e21b8152948594850161108c565b5090346102605760203660031901126102605735825260356020908152918190205490516001600160a01b039091168152f35b83823461028d578160031936011261028d579054905160109190911c6001600160a01b03168152602090f35b9290503461057657602036600319011261057657803563ffffffff60e01b8116809103610ad05784546301ffc9a760e01b8552918401526020908390602490829060101c6001600160a01b03165afa918215610f0f5760209392610ef0575b50519015158152f35b610f08919250833d811161023c5761022e8183610f34565b9038610ee7565b81513d85823e3d90fd5b600435906001600160a01b0382168203610f2f57565b600080fd5b601f909101601f19168101906001600160401b03821190821017610f5757604052565b634e487b7160e01b600052604160045260246000fd5b90816020910312610f2f57518015158103610f2f5790565b6001600160a01b039091168152602081019190915260400190565b60ff6033541661107a576001600160a01b0390811660008181526034602090815260408083205490949080156110625783526035825284832054169283156110515781906024865180968193631735856760e31b835260048301525afa93841561104657508193611012575b50505090565b9091809350813d831161103f575b61102a8183610f34565b8101031261103c57505138808061100c565b80fd5b503d611020565b51913d9150823e3d90fd5b845163722dd29d60e11b8152600490fd5b85516305d03ee160e41b815260048101869052602490fd5b6040516301ca793160e61b8152600490fd5b604091949392606082019560018060a01b031682526020820152015256fe3b5d4cc60d3ec3516ee8ae083bd60934f6eb2a6c54b1229985c41bfb092b2603a26469706673582212209629457dd3f95a6d8f2f667d28ab171a1ca3426275e4b64228d46d8a2d6110ec64736f6c63430008110033",
  "devdoc": {
    "details": "See ISuOracleAggregator interface for full details.",
    "kind": "dev",
    "methods": {
      "constructor": {
        "custom:oz-upgrades-unsafe-allow": "constructor"
      },
      "getFiatPrice1e18(address)": {
        "params": {
          "asset": "- address of erc20 token contract"
        },
        "returns": {
          "_0": "usdPrice1e18 such that asset.balanceOf() * getFiatPrice1e18(asset) / 1e18 == $$ * 1e18*"
        }
      },
      "getSafeFiatPrice1e18(address)": {
        "params": {
          "asset": "- address of asset*"
        }
      },
      "hasPriceForAsset(address)": {
        "returns": {
          "_0": "true if oracle is set to this asset, false otherwise*"
        }
      },
      "setLowerBound(address,uint256)": {
        "params": {
          "asset": "- address of asset",
          "newLowerBound": "- new value of lower bound*"
        }
      },
      "setOracleImplementation(uint256,address)": {
        "params": {
          "oracleId": "- number 0,1, etc to assign the oracle",
          "oracleImplementation": "- an address with ISuOracle implementation contract*"
        }
      },
      "setUpperBound(address,uint256)": {
        "params": {
          "asset": "- address of asset",
          "newUpperBound": "- new value of upper bound*"
        }
      },
      "supportsInterface(bytes4)": {
        "details": "Returns true if this contract implements the interface defined by `interfaceId`. See the corresponding https://eips.ethereum.org/EIPS/eip-165#how-interfaces-are-identified[EIP section] to learn more about how these ids are created. This function call must use less than 30 000 gas."
      }
    },
    "title": "SuChainlinkOracle",
    "version": 1
  },
  "userdoc": {
    "kind": "user",
    "methods": {
      "getFiatPrice1e18(address)": {
        "notice": "WARNING! Read this description very carefully!     function getFiatPrice1e18(address asset) returns (uint256) that:         basicAmountOfAsset * getFiatPrice1e18(asset) / 1e18 === $$ * 1e18     in other words, it doesn't matter what's the erc20.decimals is,     you just multiply token balance in basic units on value from oracle and get dollar amount multiplied on 1e18. different assets have different deviation threshold (errors)     for wBTC it's <= 0.5%, read more https://data.chain.link/ethereum/mainnet/crypto-usd/btc-usd     for other asset is can be larger based on particular oracle implementation. examples:     market price of btc = $30k,     for 0.1 wBTC the unit256 amount is 0.1 * 1e18     0.1 * 1e18 * (price1e18 / 1e18) == $3000 == uint256(3000*1e18)     => price1e18 = 30000 * 1e18;     market price of usdt = $0.97,     for 1 usdt uint256 = 1 * 1e6     so 1*1e6 * price1e18 / 1e18 == $0.97 == uint256(0.97*1e18)     => 1*1e6 * (price1e18 / 1e18) / (0.97*1e18)   = 1     =>  price1e18 = 0.97 * (1e18/1e6) * 1e18    assume market price of wBTC = $31,503.77, oracle error = $158     case #1: small amount of wBTC         we have 0.0,000,001 wBTC that is worth v = $0.00315  $0.00001 = 0.00315*1e18 = 315*1e13  1*1e13         actual balance on the asset b = wBTC.balanceOf() =  0.0000001*1e18 = 1e11         oracle should return or = oracle.getFiatPrice1e18(wBTC) <=>         <=> b*or = v => v/b = 315*1e13 / 1e11 = 315*1e2  1e2         error = or.error * b = 1e2 * 1e11 = 1e13 => 1e13/1e18 usd = 1e-5 = 0.00001 usd     case #2: large amount of wBTC         v = 2,000,000 wBTC = $31,503.77 * 2m  158*2m = $63,007,540,000  $316,000,000 = 63,007*1e24  316*1e24         for calc convenience we increase error on 0.05 and have v = 63,000*24  300*1e24 = (630  3)*1e26         b = 2*1e6 * 1e18 = 2*1e24         or = v/b = (630  3)*1e26 / 2*1e24 = 315*1e2  1.5*1e2         error = or.error * b = 1.5*100 * 2*1e24 = 3*1e26 = 3*1e8*1e18 = $300,000,000 ~ $316,000,000     assume the market price of USDT = $0.97  $0.00485,     case #3: little amount of USDT         v = USDT amount 0.005 = 0.005*(0.97  0.00485) = 0.00485*1e18  0.00002425*1e18 = 485*1e13  3*1e13         we rounded error up on (3000-2425)/2425 ~= +24% for calculation convenience.         b = USDT.balanceOf() = 0.005*1e6 = 5*1e3         b*or = v => or = v/b = (485*1e13  3*1e13) / 5*1e3 = 970*1e9  6*1e9         error = 6*1e9 * 5*1e3 / 1e18 = 30*1e12/1e18 = 3*1e-5 = $0,00005     case #4: lot of USDT         v = we have 100,000,000,000 USDT = $97B = 97*1e9*1e18  0.5*1e9*1e18         b = USDT.balanceOf() = 1e11*1e6 = 1e17         or = v/b = (97*1e9*1e18  0.5*1e9*1e18) / 1e17 = 970*1e9  5*1e9         error = 5*1e9 * 1e17 = 5*1e26 = 0.5 * 1e8*1e18"
      },
      "getSafeFiatPrice1e18(address)": {
        "notice": "Like getFiatPrice1e18 from ISuOracle, but also checks bounds and emit event if there is an error. We should call it in non-view method where we need safePrice from Oracle."
      },
      "setLowerBound(address,uint256)": {
        "notice": "Change lower bound of asset"
      },
      "setOracleIdForAssets(address[],uint256)": {
        "notice": "specify what oracleId should be used for each assets. Checks that oracleId has an implementation*"
      },
      "setOracleImplementation(uint256,address)": {
        "notice": "assign address of oracle implementation to the oracleId"
      },
      "setUpperBound(address,uint256)": {
        "notice": "Change upper bound of asset"
      }
    },
    "notice": "Oracle that aggregate all oracles, like router",
    "version": 1
  },
  "storageLayout": {
    "storage": [
      {
        "astId": 1226,
        "contract": "contracts/exchange/contracts/periphery/contracts/oracle/SuOracleAggregator.sol:SuOracleAggregator",
        "label": "_initialized",
        "offset": 0,
        "slot": "0",
        "type": "t_uint8"
      },
      {
        "astId": 1229,
        "contract": "contracts/exchange/contracts/periphery/contracts/oracle/SuOracleAggregator.sol:SuOracleAggregator",
        "label": "_initializing",
        "offset": 1,
        "slot": "0",
        "type": "t_bool"
      },
      {
        "astId": 24747,
        "contract": "contracts/exchange/contracts/periphery/contracts/oracle/SuOracleAggregator.sol:SuOracleAggregator",
        "label": "ACCESS_CONTROL_SINGLETON",
        "offset": 2,
        "slot": "0",
        "type": "t_contract(ISuAccessControl)31989"
      },
      {
        "astId": 25018,
        "contract": "contracts/exchange/contracts/periphery/contracts/oracle/SuOracleAggregator.sol:SuOracleAggregator",
        "label": "__gap",
        "offset": 0,
        "slot": "1",
        "type": "t_array(t_uint256)50_storage"
      },
      {
        "astId": 24499,
        "contract": "contracts/exchange/contracts/periphery/contracts/oracle/SuOracleAggregator.sol:SuOracleAggregator",
        "label": "paused",
        "offset": 0,
        "slot": "51",
        "type": "t_bool"
      },
      {
        "astId": 35422,
        "contract": "contracts/exchange/contracts/periphery/contracts/oracle/SuOracleAggregator.sol:SuOracleAggregator",
        "label": "assetToOracle",
        "offset": 0,
        "slot": "52",
        "type": "t_mapping(t_address,t_uint256)"
      },
      {
        "astId": 35427,
        "contract": "contracts/exchange/contracts/periphery/contracts/oracle/SuOracleAggregator.sol:SuOracleAggregator",
        "label": "oracleImplementations",
        "offset": 0,
        "slot": "53",
        "type": "t_mapping(t_uint256,t_contract(ISuOracle)33004)"
      },
      {
        "astId": 35432,
        "contract": "contracts/exchange/contracts/periphery/contracts/oracle/SuOracleAggregator.sol:SuOracleAggregator",
        "label": "limitations",
        "offset": 0,
        "slot": "54",
        "type": "t_mapping(t_address,t_struct(AssetLimitation)33014_storage)"
      },
      {
        "astId": 35729,
        "contract": "contracts/exchange/contracts/periphery/contracts/oracle/SuOracleAggregator.sol:SuOracleAggregator",
        "label": "__gap",
        "offset": 0,
        "slot": "55",
        "type": "t_array(t_uint256)50_storage"
      }
    ],
    "types": {
      "t_address": {
        "encoding": "inplace",
        "label": "address",
        "numberOfBytes": "20"
      },
      "t_array(t_uint256)50_storage": {
        "base": "t_uint256",
        "encoding": "inplace",
        "label": "uint256[50]",
        "numberOfBytes": "1600"
      },
      "t_bool": {
        "encoding": "inplace",
        "label": "bool",
        "numberOfBytes": "1"
      },
      "t_contract(ISuAccessControl)31989": {
        "encoding": "inplace",
        "label": "contract ISuAccessControl",
        "numberOfBytes": "20"
      },
      "t_contract(ISuOracle)33004": {
        "encoding": "inplace",
        "label": "contract ISuOracle",
        "numberOfBytes": "20"
      },
      "t_mapping(t_address,t_struct(AssetLimitation)33014_storage)": {
        "encoding": "mapping",
        "key": "t_address",
        "label": "mapping(address => struct ISuOracleAggregator.AssetLimitation)",
        "numberOfBytes": "32",
        "value": "t_struct(AssetLimitation)33014_storage"
      },
      "t_mapping(t_address,t_uint256)": {
        "encoding": "mapping",
        "key": "t_address",
        "label": "mapping(address => uint256)",
        "numberOfBytes": "32",
        "value": "t_uint256"
      },
      "t_mapping(t_uint256,t_contract(ISuOracle)33004)": {
        "encoding": "mapping",
        "key": "t_uint256",
        "label": "mapping(uint256 => contract ISuOracle)",
        "numberOfBytes": "32",
        "value": "t_contract(ISuOracle)33004"
      },
      "t_struct(AssetLimitation)33014_storage": {
        "encoding": "inplace",
        "label": "struct ISuOracleAggregator.AssetLimitation",
        "members": [
          {
            "astId": 33011,
            "contract": "contracts/exchange/contracts/periphery/contracts/oracle/SuOracleAggregator.sol:SuOracleAggregator",
            "label": "lowerBound",
            "offset": 0,
            "slot": "0",
            "type": "t_uint256"
          },
          {
            "astId": 33013,
            "contract": "contracts/exchange/contracts/periphery/contracts/oracle/SuOracleAggregator.sol:SuOracleAggregator",
            "label": "upperBound",
            "offset": 0,
            "slot": "1",
            "type": "t_uint256"
          }
        ],
        "numberOfBytes": "64"
      },
      "t_uint256": {
        "encoding": "inplace",
        "label": "uint256",
        "numberOfBytes": "32"
      },
      "t_uint8": {
        "encoding": "inplace",
        "label": "uint8",
        "numberOfBytes": "1"
      }
    }
  }
}