{
  "address": "0xe401de5a85973139Fb260a194Da8226d6776DB22",
  "abi": [
    {
      "inputs": [],
      "stateMutability": "nonpayable",
      "type": "constructor"
    },
    {
      "inputs": [],
      "name": "BadAccessControlSingleton",
      "type": "error"
    },
    {
      "inputs": [],
      "name": "BadOracleId",
      "type": "error"
    },
    {
      "inputs": [
        {
          "internalType": "address",
          "name": "asset",
          "type": "address"
        }
      ],
      "name": "NoOracleFound",
      "type": "error"
    },
    {
      "inputs": [],
      "name": "NoOracleImplementation",
      "type": "error"
    },
    {
      "inputs": [],
      "name": "OnlyAdminError",
      "type": "error"
    },
    {
      "inputs": [],
      "name": "OnlyAlerterError",
      "type": "error"
    },
    {
      "inputs": [],
      "name": "OnlyCDPAccessError",
      "type": "error"
    },
    {
      "inputs": [],
      "name": "OnlyDAOError",
      "type": "error"
    },
    {
      "inputs": [],
      "name": "OnlyDisablerAccessError",
      "type": "error"
    },
    {
      "inputs": [],
      "name": "OnlyLiquidationAccessError",
      "type": "error"
    },
    {
      "inputs": [],
      "name": "OnlyMintAccessError",
      "type": "error"
    },
    {
      "inputs": [],
      "name": "OnlyProxyActionsError",
      "type": "error"
    },
    {
      "inputs": [],
      "name": "OnlyRewardAccessError",
      "type": "error"
    },
    {
      "inputs": [],
      "name": "OnlyRoleError",
      "type": "error"
    },
    {
      "inputs": [],
      "name": "OnlyVaultAccessError",
      "type": "error"
    },
    {
      "inputs": [],
      "name": "OnlyVotingEscrowError",
      "type": "error"
    },
    {
      "inputs": [
        {
          "internalType": "address",
          "name": "asset",
          "type": "address"
        },
        {
          "internalType": "uint256",
          "name": "price",
          "type": "uint256"
        },
        {
          "internalType": "uint256",
          "name": "bound",
          "type": "uint256"
        }
      ],
      "name": "PriceAboveUpperBound",
      "type": "error"
    },
    {
      "inputs": [
        {
          "internalType": "address",
          "name": "asset",
          "type": "address"
        },
        {
          "internalType": "uint256",
          "name": "price",
          "type": "uint256"
        },
        {
          "internalType": "uint256",
          "name": "bound",
          "type": "uint256"
        }
      ],
      "name": "PriceBelowLowerBound",
      "type": "error"
    },
    {
      "inputs": [],
      "name": "SystemNotPaused",
      "type": "error"
    },
    {
      "inputs": [],
      "name": "SystemPaused",
      "type": "error"
    },
    {
      "inputs": [],
      "name": "onlyAuctionAccessRole",
      "type": "error"
    },
    {
      "anonymous": false,
      "inputs": [
        {
          "indexed": false,
          "internalType": "uint8",
          "name": "version",
          "type": "uint8"
        }
      ],
      "name": "Initialized",
      "type": "event"
    },
    {
      "anonymous": false,
      "inputs": [
        {
          "indexed": false,
          "internalType": "address",
          "name": "asset",
          "type": "address"
        },
        {
          "indexed": false,
          "internalType": "uint256",
          "name": "newBound",
          "type": "uint256"
        }
      ],
      "name": "OracleLowerBoundUpdated",
      "type": "event"
    },
    {
      "anonymous": false,
      "inputs": [
        {
          "indexed": true,
          "internalType": "address",
          "name": "asset",
          "type": "address"
        },
        {
          "indexed": false,
          "internalType": "uint256",
          "name": "price",
          "type": "uint256"
        },
        {
          "indexed": false,
          "internalType": "uint256",
          "name": "lowerBound",
          "type": "uint256"
        }
      ],
      "name": "OracleLowerBoundWarning",
      "type": "event"
    },
    {
      "anonymous": false,
      "inputs": [
        {
          "indexed": false,
          "internalType": "address",
          "name": "asset",
          "type": "address"
        },
        {
          "indexed": false,
          "internalType": "uint256",
          "name": "newBound",
          "type": "uint256"
        }
      ],
      "name": "OracleUpperBoundUpdated",
      "type": "event"
    },
    {
      "anonymous": false,
      "inputs": [
        {
          "indexed": true,
          "internalType": "address",
          "name": "asset",
          "type": "address"
        },
        {
          "indexed": false,
          "internalType": "uint256",
          "name": "price",
          "type": "uint256"
        },
        {
          "indexed": false,
          "internalType": "uint256",
          "name": "upperBound",
          "type": "uint256"
        }
      ],
      "name": "OracleUpperBoundWarning",
      "type": "event"
    },
    {
      "anonymous": false,
      "inputs": [
        {
          "indexed": false,
          "internalType": "address",
          "name": "account",
          "type": "address"
        }
      ],
      "name": "Paused",
      "type": "event"
    },
    {
      "anonymous": false,
      "inputs": [
        {
          "indexed": false,
          "internalType": "address",
          "name": "account",
          "type": "address"
        }
      ],
      "name": "Unpaused",
      "type": "event"
    },
    {
      "inputs": [],
      "name": "ACCESS_CONTROL_SINGLETON",
      "outputs": [
        {
          "internalType": "contract ISuAccessControl",
          "name": "",
          "type": "address"
        }
      ],
      "stateMutability": "view",
      "type": "function"
    },
    {
      "inputs": [],
      "name": "ADMIN_ROLE",
      "outputs": [
        {
          "internalType": "bytes32",
          "name": "",
          "type": "bytes32"
        }
      ],
      "stateMutability": "view",
      "type": "function"
    },
    {
      "inputs": [],
      "name": "ALERTER_ROLE",
      "outputs": [
        {
          "internalType": "bytes32",
          "name": "",
          "type": "bytes32"
        }
      ],
      "stateMutability": "view",
      "type": "function"
    },
    {
      "inputs": [],
      "name": "AUCTION_ACCESS_ROLE",
      "outputs": [
        {
          "internalType": "bytes32",
          "name": "",
          "type": "bytes32"
        }
      ],
      "stateMutability": "view",
      "type": "function"
    },
    {
      "inputs": [],
      "name": "CDP_ACCESS_ROLE",
      "outputs": [
        {
          "internalType": "bytes32",
          "name": "",
          "type": "bytes32"
        }
      ],
      "stateMutability": "view",
      "type": "function"
    },
    {
      "inputs": [],
      "name": "DAO_ROLE",
      "outputs": [
        {
          "internalType": "bytes32",
          "name": "",
          "type": "bytes32"
        }
      ],
      "stateMutability": "view",
      "type": "function"
    },
    {
      "inputs": [],
      "name": "DISABLER_ROLE",
      "outputs": [
        {
          "internalType": "bytes32",
          "name": "",
          "type": "bytes32"
        }
      ],
      "stateMutability": "view",
      "type": "function"
    },
    {
      "inputs": [],
      "name": "LIQUIDATION_ACCESS_ROLE",
      "outputs": [
        {
          "internalType": "bytes32",
          "name": "",
          "type": "bytes32"
        }
      ],
      "stateMutability": "view",
      "type": "function"
    },
    {
      "inputs": [],
      "name": "MINT_ACCESS_ROLE",
      "outputs": [
        {
          "internalType": "bytes32",
          "name": "",
          "type": "bytes32"
        }
      ],
      "stateMutability": "view",
      "type": "function"
    },
    {
      "inputs": [],
      "name": "PROXY_ACTIONS_ROLE",
      "outputs": [
        {
          "internalType": "bytes32",
          "name": "",
          "type": "bytes32"
        }
      ],
      "stateMutability": "view",
      "type": "function"
    },
    {
      "inputs": [],
      "name": "REWARD_ACCESS_ROLE",
      "outputs": [
        {
          "internalType": "bytes32",
          "name": "",
          "type": "bytes32"
        }
      ],
      "stateMutability": "view",
      "type": "function"
    },
    {
      "inputs": [],
      "name": "VOTING_ESCROW_ROLE",
      "outputs": [
        {
          "internalType": "bytes32",
          "name": "",
          "type": "bytes32"
        }
      ],
      "stateMutability": "view",
      "type": "function"
    },
    {
      "inputs": [
        {
          "internalType": "address",
          "name": "",
          "type": "address"
        }
      ],
      "name": "assetToOracle",
      "outputs": [
        {
          "internalType": "uint256",
          "name": "",
          "type": "uint256"
        }
      ],
      "stateMutability": "view",
      "type": "function"
    },
    {
      "inputs": [
        {
          "internalType": "address",
          "name": "asset",
          "type": "address"
        }
      ],
      "name": "getFiatPrice1e18",
      "outputs": [
        {
          "internalType": "uint256",
          "name": "",
          "type": "uint256"
        }
      ],
      "stateMutability": "view",
      "type": "function"
    },
    {
      "inputs": [
        {
          "internalType": "address",
          "name": "asset",
          "type": "address"
        }
      ],
      "name": "getSafeFiatPrice1e18",
      "outputs": [
        {
          "internalType": "uint256",
          "name": "",
          "type": "uint256"
        }
      ],
      "stateMutability": "nonpayable",
      "type": "function"
    },
    {
      "inputs": [
        {
          "internalType": "address",
          "name": "asset",
          "type": "address"
        }
      ],
      "name": "hasPriceForAsset",
      "outputs": [
        {
          "internalType": "bool",
          "name": "",
          "type": "bool"
        }
      ],
      "stateMutability": "view",
      "type": "function"
    },
    {
      "inputs": [
        {
          "internalType": "address",
          "name": "_authControl",
          "type": "address"
        }
      ],
      "name": "initialize",
      "outputs": [],
      "stateMutability": "nonpayable",
      "type": "function"
    },
    {
      "inputs": [
        {
          "internalType": "address",
          "name": "",
          "type": "address"
        }
      ],
      "name": "limitations",
      "outputs": [
        {
          "internalType": "uint256",
          "name": "lowerBound",
          "type": "uint256"
        },
        {
          "internalType": "uint256",
          "name": "upperBound",
          "type": "uint256"
        }
      ],
      "stateMutability": "view",
      "type": "function"
    },
    {
      "inputs": [
        {
          "internalType": "uint256",
          "name": "",
          "type": "uint256"
        }
      ],
      "name": "oracleImplementations",
      "outputs": [
        {
          "internalType": "contract ISuOracle",
          "name": "",
          "type": "address"
        }
      ],
      "stateMutability": "view",
      "type": "function"
    },
    {
      "inputs": [],
      "name": "pause",
      "outputs": [],
      "stateMutability": "nonpayable",
      "type": "function"
    },
    {
      "inputs": [],
      "name": "paused",
      "outputs": [
        {
          "internalType": "bool",
          "name": "",
          "type": "bool"
        }
      ],
      "stateMutability": "view",
      "type": "function"
    },
    {
      "inputs": [
        {
          "internalType": "address",
          "name": "asset",
          "type": "address"
        },
        {
          "internalType": "uint256",
          "name": "newLowerBound",
          "type": "uint256"
        }
      ],
      "name": "setLowerBound",
      "outputs": [],
      "stateMutability": "nonpayable",
      "type": "function"
    },
    {
      "inputs": [
        {
          "internalType": "address[]",
          "name": "assets",
          "type": "address[]"
        },
        {
          "internalType": "uint256",
          "name": "oracleId",
          "type": "uint256"
        }
      ],
      "name": "setOracleIdForAssets",
      "outputs": [],
      "stateMutability": "nonpayable",
      "type": "function"
    },
    {
      "inputs": [
        {
          "internalType": "uint256",
          "name": "oracleId",
          "type": "uint256"
        },
        {
          "internalType": "contract ISuOracle",
          "name": "oracleImplementation",
          "type": "address"
        }
      ],
      "name": "setOracleImplementation",
      "outputs": [],
      "stateMutability": "nonpayable",
      "type": "function"
    },
    {
      "inputs": [
        {
          "internalType": "address",
          "name": "asset",
          "type": "address"
        },
        {
          "internalType": "uint256",
          "name": "newUpperBound",
          "type": "uint256"
        }
      ],
      "name": "setUpperBound",
      "outputs": [],
      "stateMutability": "nonpayable",
      "type": "function"
    },
    {
      "inputs": [
        {
          "internalType": "bytes4",
          "name": "interfaceId",
          "type": "bytes4"
        }
      ],
      "name": "supportsInterface",
      "outputs": [
        {
          "internalType": "bool",
          "name": "",
          "type": "bool"
        }
      ],
      "stateMutability": "view",
      "type": "function"
    },
    {
      "inputs": [],
      "name": "unpause",
      "outputs": [],
      "stateMutability": "nonpayable",
      "type": "function"
    }
  ],
  "numDeployments": 2,
  "solcInputHash": "7d805ff5044364995e2fa5a9efc578ce",
  "bytecode": "0x608060405234801561001057600080fd5b5061001961001e565b6100dd565b600054610100900460ff161561008a5760405162461bcd60e51b815260206004820152602760248201527f496e697469616c697a61626c653a20636f6e747261637420697320696e697469604482015266616c697a696e6760c81b606482015260840160405180910390fd5b60005460ff908116146100db576000805460ff191660ff9081179091556040519081527f7f26b83ff96e1f2b6a682f133852f6798a09c465da95921460cefb38474024989060200160405180910390a15b565b61133d806100ec6000396000f3fe608060405234801561001057600080fd5b50600436106101495760003560e01c806301ffc9a71461014e57806303ee9f22146101765780630827ba5b1461019c5780632a5001c9146101c55780632e00d245146101e6578063340517c9146102065780633e052a921461022d5780633f4ba83a14610242578063438280dd1461024a5780635c975abb146102715780636806ff2b1461027e5780636bf264bc1461029157806371d0fb41146102cd57806375b238fc146102f45780638456cb59146102fc5780638e5313e014610304578063a780f1331461032b578063b38234f314610356578063b5daa6101461037d578063b9ac2b3814610390578063bd5f5be6146103a3578063c4d66de8146103ca578063d0e8fa82146103dd578063d2351cee14610404578063dc97e84e1461042b578063e9c2651814610452578063ef54c37814610467575b600080fd5b61016161015c366004611082565b61047a565b60405190151581526020015b60405180910390f35b60005461018f906201000090046001600160a01b031681565b60405161016d91906110b3565b61018f6101aa3660046110c7565b6035602052600090815260409020546001600160a01b031681565b6101d86101d3366004611100565b6104f7565b60405190815260200161016d565b6101d86101f4366004611100565b60346020526000908152604090205481565b6101d87f014f8da3222812608c449a44f4705585c5ce052eeb6f9af0af9209c64b0ba2de81565b61024061023b36600461111d565b610698565b005b6102406107aa565b6101d87f39f61ca2a1a28fee144218173ec637b649a353e4026b2738c673800e5bf1437b81565b6033546101619060ff1681565b61024061028c36600461115f565b6108a6565b6102b861029f366004611100565b6036602052600090815260409020805460019091015482565b6040805192835260208301919091520161016d565b6101d87f880a91047114272656e533301261260c75e4d11543ac7303d6fe4204579ec72781565b6101d8600081565b6102406109f8565b6101d87fe453bacb314e78dcd5192e6b1a2b1f0e7c76e92f6b7e429a6a90f04e39db3b7681565b610161610339366004611100565b6001600160a01b0316600090815260346020526040902054151590565b6101d87fd83f5343da19b478b15a140c301a868be9e02603958f38fbd822b9d5c0a2891681565b61024061038b36600461111d565b610aee565b6101d861039e366004611100565b610bf7565b6101d87f4f14c8366fa999817edc9f29824eb88a00cc31225e2156f399da4bc91049eb1081565b6102406103d8366004611100565b610d05565b6101d87f76d0567582f23e1e9d7a13eeba60f9aea9d69b8da87ca27a8bf3698b35c653db81565b6101d87fb0fdd1623e42dbffda4acd8bd643e1cb69f00f0e83abeaa8150ee42cf0fd105e81565b6101d87f9a9aef7c1247d5fc769b0185c052913e39673da29a880317dfd20ebf86f26a4981565b6101d860008051602061131183398151915281565b610240610475366004611229565b610e14565b600080546040516301ffc9a760e01b8152620100009091046001600160a01b0316906301ffc9a7906104b0908590600401611259565b602060405180830381865afa1580156104cd573d6000803e3d6000fd5b505050506040513d601f19601f820116820180604052508101906104f1919061126e565b92915050565b60335460009060ff161561051e576040516301ca793160e61b815260040160405180910390fd5b600061052983610bf7565b6001600160a01b0384166000908152603660205260409020549091508110156105de576001600160a01b038316600081815260366020908152604091829020548251858152918201527f151943aac40e4f3053a6ec0d39abf9bc9c35fd0fa9d051e3ea8731494b8bf26c910160405180910390a26001600160a01b03831660009081526036602052604090819020549051630337f54960e21b81526105d5918591849190600401611290565b60405180910390fd5b6001600160a01b038316600090815260366020526040902060010154811115610690576001600160a01b038316600081815260366020908152604091829020600101548251858152918201527f4c03bc86a754f9beaf1d5ca51f8f3bc42ccc797955bd693537e404fa73aef45a910160405180910390a26001600160a01b0383166000908152603660205260409081902060010154905163e8dfaf4b60e01b81526105d5918591849190600401611290565b90505b919050565b60335460ff16156106bc576040516301ca793160e61b815260040160405180910390fd5b60008054604051632474521560e21b8152620100009091046001600160a01b0316916391d14854916106f3919033906004016112b1565b602060405180830381865afa158015610710573d6000803e3d6000fd5b505050506040513d601f19601f82011682018060405250810190610734919061126e565b61075157604051631886ea7d60e11b815260040160405180910390fd5b6001600160a01b03821660009081526036602052604090819020829055517f971bd3dd8679e2fea46724b3cfcad534571a5187bf2fec5397406ac28fa034ca9061079e90849084906112c8565b60405180910390a15050565b60008054604051632474521560e21b8152620100009091046001600160a01b0316916391d14854916107e1919033906004016112b1565b602060405180830381865afa1580156107fe573d6000803e3d6000fd5b505050506040513d601f19601f82011682018060405250810190610822919061126e565b61083f57604051631886ea7d60e11b815260040160405180910390fd5b60335460ff1661086257604051636879228960e11b815260040160405180910390fd5b6033805460ff191690556040517f5db9ee0a495bf2e6ff9c91a7834c1ba4fdd244a5e8aa4e537bd38aeae4b073aa9061089c9033906110b3565b60405180910390a1565b60335460ff16156108ca576040516301ca793160e61b815260040160405180910390fd5b600054604051632474521560e21b8152620100009091046001600160a01b0316906391d148549061090f906000805160206113118339815191529033906004016112b1565b602060405180830381865afa15801561092c573d6000803e3d6000fd5b505050506040513d601f19601f82011682018060405250810190610950919061126e565b61096d5760405163599a6c3360e11b815260040160405180910390fd5b6000818152603560205260409020546001600160a01b03166109a25760405163722dd29d60e11b815260040160405180910390fd5b815160005b818110156109f25782603460008684815181106109c6576109c66112e1565b6020908102919091018101516001600160a01b03168252810191909152604001600020556001016109a7565b50505050565b60008054604051632474521560e21b8152620100009091046001600160a01b0316916391d1485491610a2f919033906004016112b1565b602060405180830381865afa158015610a4c573d6000803e3d6000fd5b505050506040513d601f19601f82011682018060405250810190610a70919061126e565b610a8d57604051631886ea7d60e11b815260040160405180910390fd5b60335460ff1615610ab1576040516301ca793160e61b815260040160405180910390fd5b6033805460ff191660011790556040517f62e78cea01bee320cd4e420270b5ea74000d11b0c9f74754ebdbfc544b05a2589061089c9033906110b3565b60335460ff1615610b12576040516301ca793160e61b815260040160405180910390fd5b60008054604051632474521560e21b8152620100009091046001600160a01b0316916391d1485491610b49919033906004016112b1565b602060405180830381865afa158015610b66573d6000803e3d6000fd5b505050506040513d601f19601f82011682018060405250810190610b8a919061126e565b610ba757604051631886ea7d60e11b815260040160405180910390fd5b6001600160a01b03821660009081526036602052604090819020600101829055517f0199272408193eaaf53b92e68b2a00f72e90368f8f51fc81a964cb7c00cd06da9061079e90849084906112c8565b60335460009060ff1615610c1e576040516301ca793160e61b815260040160405180910390fd5b6001600160a01b03821660009081526034602052604081205490819003610c5a57826040516305d03ee160e41b81526004016105d591906110b3565b6000818152603560205260409020546001600160a01b031680610c905760405163722dd29d60e11b815260040160405180910390fd5b604051631735856760e31b81526001600160a01b0382169063b9ac2b3890610cbc9087906004016110b3565b602060405180830381865afa158015610cd9573d6000803e3d6000fd5b505050506040513d601f19601f82011682018060405250810190610cfd91906112f7565b949350505050565b600054610100900460ff1615808015610d255750600054600160ff909116105b80610d3f5750303b158015610d3f575060005460ff166001145b610da25760405162461bcd60e51b815260206004820152602e60248201527f496e697469616c697a61626c653a20636f6e747261637420697320616c72656160448201526d191e481a5b9a5d1a585b1a5e995960921b60648201526084016105d5565b6000805460ff191660011790558015610dc5576000805461ff0019166101001790555b610dce82610f51565b8015610e10576000805461ff0019169055604051600181527f7f26b83ff96e1f2b6a682f133852f6798a09c465da95921460cefb38474024989060200161079e565b5050565b60335460ff1615610e38576040516301ca793160e61b815260040160405180910390fd5b600054604051632474521560e21b8152620100009091046001600160a01b0316906391d1485490610e7d906000805160206113118339815191529033906004016112b1565b602060405180830381865afa158015610e9a573d6000803e3d6000fd5b505050506040513d601f19601f82011682018060405250810190610ebe919061126e565b610edb5760405163599a6c3360e11b815260040160405180910390fd5b81600003610efc5760405163f837507f60e01b815260040160405180910390fd5b6001600160a01b038116610f235760405163722dd29d60e11b815260040160405180910390fd5b60009182526035602052604090912080546001600160a01b0319166001600160a01b03909216919091179055565b600054610100900460ff16610fbc5760405162461bcd60e51b815260206004820152602b60248201527f496e697469616c697a61626c653a20636f6e7472616374206973206e6f74206960448201526a6e697469616c697a696e6760a81b60648201526084016105d5565b6000805462010000600160b01b031916620100006001600160a01b03841690810291909117909155158061106157506040516301ffc9a760e01b81526001600160a01b038216906301ffc9a79061101e90637965db0b60e01b90600401611259565b602060405180830381865afa15801561103b573d6000803e3d6000fd5b505050506040513d601f19601f8201168201806040525081019061105f919061126e565b155b1561107f576040516384d942fd60e01b815260040160405180910390fd5b50565b60006020828403121561109457600080fd5b81356001600160e01b0319811681146110ac57600080fd5b9392505050565b6001600160a01b0391909116815260200190565b6000602082840312156110d957600080fd5b5035919050565b6001600160a01b038116811461107f57600080fd5b8035610693816110e0565b60006020828403121561111257600080fd5b81356110ac816110e0565b6000806040838503121561113057600080fd5b823561113b816110e0565b946020939093013593505050565b634e487b7160e01b600052604160045260246000fd5b6000806040838503121561117257600080fd5b82356001600160401b038082111561118957600080fd5b818501915085601f83011261119d57600080fd5b81356020828211156111b1576111b1611149565b8160051b604051601f19603f830116810181811086821117156111d6576111d6611149565b6040529283528183019350848101820192898411156111f457600080fd5b948201945b838610156112195761120a866110f5565b855294820194938201936111f9565b9997909101359750505050505050565b6000806040838503121561123c57600080fd5b82359150602083013561124e816110e0565b809150509250929050565b6001600160e01b031991909116815260200190565b60006020828403121561128057600080fd5b815180151581146110ac57600080fd5b6001600160a01b039390931683526020830191909152604082015260600190565b9182526001600160a01b0316602082015260400190565b6001600160a01b03929092168252602082015260400190565b634e487b7160e01b600052603260045260246000fd5b60006020828403121561130957600080fd5b505191905056fe3b5d4cc60d3ec3516ee8ae083bd60934f6eb2a6c54b1229985c41bfb092b2603a164736f6c6343000811000a",
  "devdoc": {
    "details": "See ISuOracleAggregator interface for full details.",
    "kind": "dev",
    "methods": {
      "constructor": {
        "custom:oz-upgrades-unsafe-allow": "constructor"
      },
      "getFiatPrice1e18(address)": {
        "params": {
          "asset": "- address of erc20 token contract"
        },
        "returns": {
          "_0": "usdPrice1e18 such that asset.balanceOf() * getFiatPrice1e18(asset) / 1e18 == $$ * 1e18*"
        }
      },
      "getSafeFiatPrice1e18(address)": {
        "params": {
          "asset": "- address of asset*"
        }
      },
      "hasPriceForAsset(address)": {
        "returns": {
          "_0": "true if oracle is set to this asset, false otherwise*"
        }
      },
      "setLowerBound(address,uint256)": {
        "params": {
          "asset": "- address of asset",
          "newLowerBound": "- new value of lower bound*"
        }
      },
      "setOracleImplementation(uint256,address)": {
        "params": {
          "oracleId": "- number 0,1, etc to assign the oracle",
          "oracleImplementation": "- an address with ISuOracle implementation contract*"
        }
      },
      "setUpperBound(address,uint256)": {
        "params": {
          "asset": "- address of asset",
          "newUpperBound": "- new value of upper bound*"
        }
      },
      "supportsInterface(bytes4)": {
        "details": "Returns true if this contract implements the interface defined by `interfaceId`. See the corresponding https://eips.ethereum.org/EIPS/eip-165#how-interfaces-are-identified[EIP section] to learn more about how these ids are created. This function call must use less than 30 000 gas."
      }
    },
    "title": "SuChainlinkOracle",
    "version": 1
  },
  "userdoc": {
    "kind": "user",
    "methods": {
      "getFiatPrice1e18(address)": {
        "notice": "WARNING! Read this description very carefully!     function getFiatPrice1e18(address asset) returns (uint256) that:         basicAmountOfAsset * getFiatPrice1e18(asset) / 1e18 === $$ * 1e18     in other words, it doesn't matter what's the erc20.decimals is,     you just multiply token balance in basic units on value from oracle and get dollar amount multiplied on 1e18. different assets have different deviation threshold (errors)     for wBTC it's <= 0.5%, read more https://data.chain.link/ethereum/mainnet/crypto-usd/btc-usd     for other asset is can be larger based on particular oracle implementation. examples:     market price of btc = $30k,     for 0.1 wBTC the unit256 amount is 0.1 * 1e18     0.1 * 1e18 * (price1e18 / 1e18) == $3000 == uint256(3000*1e18)     => price1e18 = 30000 * 1e18;     market price of usdt = $0.97,     for 1 usdt uint256 = 1 * 1e6     so 1*1e6 * price1e18 / 1e18 == $0.97 == uint256(0.97*1e18)     => 1*1e6 * (price1e18 / 1e18) / (0.97*1e18)   = 1     =>  price1e18 = 0.97 * (1e18/1e6) * 1e18    assume market price of wBTC = $31,503.77, oracle error = $158     case #1: small amount of wBTC         we have 0.0,000,001 wBTC that is worth v = $0.00315  $0.00001 = 0.00315*1e18 = 315*1e13  1*1e13         actual balance on the asset b = wBTC.balanceOf() =  0.0000001*1e18 = 1e11         oracle should return or = oracle.getFiatPrice1e18(wBTC) <=>         <=> b*or = v => v/b = 315*1e13 / 1e11 = 315*1e2  1e2         error = or.error * b = 1e2 * 1e11 = 1e13 => 1e13/1e18 usd = 1e-5 = 0.00001 usd     case #2: large amount of wBTC         v = 2,000,000 wBTC = $31,503.77 * 2m  158*2m = $63,007,540,000  $316,000,000 = 63,007*1e24  316*1e24         for calc convenience we increase error on 0.05 and have v = 63,000*24  300*1e24 = (630  3)*1e26         b = 2*1e6 * 1e18 = 2*1e24         or = v/b = (630  3)*1e26 / 2*1e24 = 315*1e2  1.5*1e2         error = or.error * b = 1.5*100 * 2*1e24 = 3*1e26 = 3*1e8*1e18 = $300,000,000 ~ $316,000,000     assume the market price of USDT = $0.97  $0.00485,     case #3: little amount of USDT         v = USDT amount 0.005 = 0.005*(0.97  0.00485) = 0.00485*1e18  0.00002425*1e18 = 485*1e13  3*1e13         we rounded error up on (3000-2425)/2425 ~= +24% for calculation convenience.         b = USDT.balanceOf() = 0.005*1e6 = 5*1e3         b*or = v => or = v/b = (485*1e13  3*1e13) / 5*1e3 = 970*1e9  6*1e9         error = 6*1e9 * 5*1e3 / 1e18 = 30*1e12/1e18 = 3*1e-5 = $0,00005     case #4: lot of USDT         v = we have 100,000,000,000 USDT = $97B = 97*1e9*1e18  0.5*1e9*1e18         b = USDT.balanceOf() = 1e11*1e6 = 1e17         or = v/b = (97*1e9*1e18  0.5*1e9*1e18) / 1e17 = 970*1e9  5*1e9         error = 5*1e9 * 1e17 = 5*1e26 = 0.5 * 1e8*1e18"
      },
      "getSafeFiatPrice1e18(address)": {
        "notice": "Like getFiatPrice1e18 from ISuOracle, but also checks bounds and emit event if there is an error. We should call it in non-view method where we need safePrice from Oracle."
      },
      "setLowerBound(address,uint256)": {
        "notice": "Change lower bound of asset"
      },
      "setOracleIdForAssets(address[],uint256)": {
        "notice": "specify what oracleId should be used for each assets. Checks that oracleId has an implementation*"
      },
      "setOracleImplementation(uint256,address)": {
        "notice": "assign address of oracle implementation to the oracleId"
      },
      "setUpperBound(address,uint256)": {
        "notice": "Change upper bound of asset"
      }
    },
    "notice": "Oracle that aggregate all oracles, like router",
    "version": 1
  },
  "storageLayout": {
    "storage": [
      {
        "astId": 1226,
        "contract": "contracts/exchange/contracts/periphery/contracts/oracle/SuOracleAggregator.sol:SuOracleAggregator",
        "label": "_initialized",
        "offset": 0,
        "slot": "0",
        "type": "t_uint8"
      },
      {
        "astId": 1229,
        "contract": "contracts/exchange/contracts/periphery/contracts/oracle/SuOracleAggregator.sol:SuOracleAggregator",
        "label": "_initializing",
        "offset": 1,
        "slot": "0",
        "type": "t_bool"
      },
      {
        "astId": 25605,
        "contract": "contracts/exchange/contracts/periphery/contracts/oracle/SuOracleAggregator.sol:SuOracleAggregator",
        "label": "ACCESS_CONTROL_SINGLETON",
        "offset": 2,
        "slot": "0",
        "type": "t_contract(ISuAccessControl)32864"
      },
      {
        "astId": 25893,
        "contract": "contracts/exchange/contracts/periphery/contracts/oracle/SuOracleAggregator.sol:SuOracleAggregator",
        "label": "__gap",
        "offset": 0,
        "slot": "1",
        "type": "t_array(t_uint256)50_storage"
      },
      {
        "astId": 25352,
        "contract": "contracts/exchange/contracts/periphery/contracts/oracle/SuOracleAggregator.sol:SuOracleAggregator",
        "label": "paused",
        "offset": 0,
        "slot": "51",
        "type": "t_bool"
      },
      {
        "astId": 36297,
        "contract": "contracts/exchange/contracts/periphery/contracts/oracle/SuOracleAggregator.sol:SuOracleAggregator",
        "label": "assetToOracle",
        "offset": 0,
        "slot": "52",
        "type": "t_mapping(t_address,t_uint256)"
      },
      {
        "astId": 36302,
        "contract": "contracts/exchange/contracts/periphery/contracts/oracle/SuOracleAggregator.sol:SuOracleAggregator",
        "label": "oracleImplementations",
        "offset": 0,
        "slot": "53",
        "type": "t_mapping(t_uint256,t_contract(ISuOracle)33879)"
      },
      {
        "astId": 36307,
        "contract": "contracts/exchange/contracts/periphery/contracts/oracle/SuOracleAggregator.sol:SuOracleAggregator",
        "label": "limitations",
        "offset": 0,
        "slot": "54",
        "type": "t_mapping(t_address,t_struct(AssetLimitation)33889_storage)"
      },
      {
        "astId": 36604,
        "contract": "contracts/exchange/contracts/periphery/contracts/oracle/SuOracleAggregator.sol:SuOracleAggregator",
        "label": "__gap",
        "offset": 0,
        "slot": "55",
        "type": "t_array(t_uint256)50_storage"
      }
    ],
    "types": {
      "t_address": {
        "encoding": "inplace",
        "label": "address",
        "numberOfBytes": "20"
      },
      "t_array(t_uint256)50_storage": {
        "base": "t_uint256",
        "encoding": "inplace",
        "label": "uint256[50]",
        "numberOfBytes": "1600"
      },
      "t_bool": {
        "encoding": "inplace",
        "label": "bool",
        "numberOfBytes": "1"
      },
      "t_contract(ISuAccessControl)32864": {
        "encoding": "inplace",
        "label": "contract ISuAccessControl",
        "numberOfBytes": "20"
      },
      "t_contract(ISuOracle)33879": {
        "encoding": "inplace",
        "label": "contract ISuOracle",
        "numberOfBytes": "20"
      },
      "t_mapping(t_address,t_struct(AssetLimitation)33889_storage)": {
        "encoding": "mapping",
        "key": "t_address",
        "label": "mapping(address => struct ISuOracleAggregator.AssetLimitation)",
        "numberOfBytes": "32",
        "value": "t_struct(AssetLimitation)33889_storage"
      },
      "t_mapping(t_address,t_uint256)": {
        "encoding": "mapping",
        "key": "t_address",
        "label": "mapping(address => uint256)",
        "numberOfBytes": "32",
        "value": "t_uint256"
      },
      "t_mapping(t_uint256,t_contract(ISuOracle)33879)": {
        "encoding": "mapping",
        "key": "t_uint256",
        "label": "mapping(uint256 => contract ISuOracle)",
        "numberOfBytes": "32",
        "value": "t_contract(ISuOracle)33879"
      },
      "t_struct(AssetLimitation)33889_storage": {
        "encoding": "inplace",
        "label": "struct ISuOracleAggregator.AssetLimitation",
        "members": [
          {
            "astId": 33886,
            "contract": "contracts/exchange/contracts/periphery/contracts/oracle/SuOracleAggregator.sol:SuOracleAggregator",
            "label": "lowerBound",
            "offset": 0,
            "slot": "0",
            "type": "t_uint256"
          },
          {
            "astId": 33888,
            "contract": "contracts/exchange/contracts/periphery/contracts/oracle/SuOracleAggregator.sol:SuOracleAggregator",
            "label": "upperBound",
            "offset": 0,
            "slot": "1",
            "type": "t_uint256"
          }
        ],
        "numberOfBytes": "64"
      },
      "t_uint256": {
        "encoding": "inplace",
        "label": "uint256",
        "numberOfBytes": "32"
      },
      "t_uint8": {
        "encoding": "inplace",
        "label": "uint8",
        "numberOfBytes": "1"
      }
    }
  }
}