{
  "address": "0x9968e7F8f760E0EeE3869CA78DeE56219a3735C7",
  "abi": [
    {
      "inputs": [],
      "stateMutability": "nonpayable",
      "type": "constructor"
    },
    {
      "inputs": [],
      "name": "BadAccessControlSingleton",
      "type": "error"
    },
    {
      "inputs": [],
      "name": "OnlyAdminError",
      "type": "error"
    },
    {
      "inputs": [],
      "name": "OnlyAlerterError",
      "type": "error"
    },
    {
      "inputs": [],
      "name": "OnlyCDPAccessError",
      "type": "error"
    },
    {
      "inputs": [],
      "name": "OnlyDAOError",
      "type": "error"
    },
    {
      "inputs": [],
      "name": "OnlyDisablerAccessError",
      "type": "error"
    },
    {
      "inputs": [],
      "name": "OnlyLiquidationAccessError",
      "type": "error"
    },
    {
      "inputs": [],
      "name": "OnlyMintAccessError",
      "type": "error"
    },
    {
      "inputs": [],
      "name": "OnlyProxyActionsError",
      "type": "error"
    },
    {
      "inputs": [],
      "name": "OnlyRewardAccessError",
      "type": "error"
    },
    {
      "inputs": [],
      "name": "OnlyRoleError",
      "type": "error"
    },
    {
      "inputs": [],
      "name": "OnlyVaultAccessError",
      "type": "error"
    },
    {
      "inputs": [],
      "name": "OnlyVotingEscrowError",
      "type": "error"
    },
    {
      "inputs": [],
      "name": "onlyAuctionAccessRole",
      "type": "error"
    },
    {
      "anonymous": false,
      "inputs": [
        {
          "indexed": false,
          "internalType": "uint256",
          "name": "id",
          "type": "uint256"
        }
      ],
      "name": "CancelAuction",
      "type": "event"
    },
    {
      "anonymous": false,
      "inputs": [],
      "name": "DisableContract",
      "type": "event"
    },
    {
      "anonymous": false,
      "inputs": [
        {
          "indexed": false,
          "internalType": "uint8",
          "name": "version",
          "type": "uint8"
        }
      ],
      "name": "Initialized",
      "type": "event"
    },
    {
      "anonymous": false,
      "inputs": [
        {
          "indexed": true,
          "internalType": "bytes32",
          "name": "parameter",
          "type": "bytes32"
        },
        {
          "indexed": false,
          "internalType": "bytes32",
          "name": "data",
          "type": "bytes32"
        }
      ],
      "name": "ModifyParameters",
      "type": "event"
    },
    {
      "anonymous": false,
      "inputs": [
        {
          "indexed": true,
          "internalType": "bytes32",
          "name": "parameter",
          "type": "bytes32"
        },
        {
          "indexed": false,
          "internalType": "uint256",
          "name": "data",
          "type": "uint256"
        }
      ],
      "name": "ModifyParameters",
      "type": "event"
    },
    {
      "anonymous": false,
      "inputs": [
        {
          "indexed": true,
          "internalType": "bytes32",
          "name": "parameter",
          "type": "bytes32"
        },
        {
          "indexed": false,
          "internalType": "address",
          "name": "data",
          "type": "address"
        }
      ],
      "name": "ModifyParameters",
      "type": "event"
    },
    {
      "anonymous": false,
      "inputs": [
        {
          "indexed": false,
          "internalType": "uint256",
          "name": "id",
          "type": "uint256"
        }
      ],
      "name": "SettleAuction",
      "type": "event"
    },
    {
      "anonymous": false,
      "inputs": [
        {
          "indexed": false,
          "internalType": "address",
          "name": "treasury",
          "type": "address"
        },
        {
          "indexed": false,
          "internalType": "uint256",
          "name": "amountToSell",
          "type": "uint256"
        },
        {
          "indexed": false,
          "internalType": "address",
          "name": "sender",
          "type": "address"
        }
      ],
      "name": "StartAuction",
      "type": "event"
    },
    {
      "inputs": [],
      "name": "ACCESS_CONTROL_SINGLETON",
      "outputs": [
        {
          "internalType": "contract ISuAccessControl",
          "name": "",
          "type": "address"
        }
      ],
      "stateMutability": "view",
      "type": "function"
    },
    {
      "inputs": [],
      "name": "ADMIN_ROLE",
      "outputs": [
        {
          "internalType": "bytes32",
          "name": "",
          "type": "bytes32"
        }
      ],
      "stateMutability": "view",
      "type": "function"
    },
    {
      "inputs": [],
      "name": "ALERTER_ROLE",
      "outputs": [
        {
          "internalType": "bytes32",
          "name": "",
          "type": "bytes32"
        }
      ],
      "stateMutability": "view",
      "type": "function"
    },
    {
      "inputs": [],
      "name": "AUCTION_ACCESS_ROLE",
      "outputs": [
        {
          "internalType": "bytes32",
          "name": "",
          "type": "bytes32"
        }
      ],
      "stateMutability": "view",
      "type": "function"
    },
    {
      "inputs": [],
      "name": "CDP_ACCESS_ROLE",
      "outputs": [
        {
          "internalType": "bytes32",
          "name": "",
          "type": "bytes32"
        }
      ],
      "stateMutability": "view",
      "type": "function"
    },
    {
      "inputs": [],
      "name": "DAO_ROLE",
      "outputs": [
        {
          "internalType": "bytes32",
          "name": "",
          "type": "bytes32"
        }
      ],
      "stateMutability": "view",
      "type": "function"
    },
    {
      "inputs": [],
      "name": "DISABLER_ROLE",
      "outputs": [
        {
          "internalType": "bytes32",
          "name": "",
          "type": "bytes32"
        }
      ],
      "stateMutability": "view",
      "type": "function"
    },
    {
      "inputs": [],
      "name": "LIQUIDATION_ACCESS_ROLE",
      "outputs": [
        {
          "internalType": "bytes32",
          "name": "",
          "type": "bytes32"
        }
      ],
      "stateMutability": "view",
      "type": "function"
    },
    {
      "inputs": [],
      "name": "MINT_ACCESS_ROLE",
      "outputs": [
        {
          "internalType": "bytes32",
          "name": "",
          "type": "bytes32"
        }
      ],
      "stateMutability": "view",
      "type": "function"
    },
    {
      "inputs": [],
      "name": "PROXY_ACTIONS_ROLE",
      "outputs": [
        {
          "internalType": "bytes32",
          "name": "",
          "type": "bytes32"
        }
      ],
      "stateMutability": "view",
      "type": "function"
    },
    {
      "inputs": [],
      "name": "REWARD_ACCESS_ROLE",
      "outputs": [
        {
          "internalType": "bytes32",
          "name": "",
          "type": "bytes32"
        }
      ],
      "stateMutability": "view",
      "type": "function"
    },
    {
      "inputs": [],
      "name": "VOTING_ESCROW_ROLE",
      "outputs": [
        {
          "internalType": "bytes32",
          "name": "",
          "type": "bytes32"
        }
      ],
      "stateMutability": "view",
      "type": "function"
    },
    {
      "inputs": [
        {
          "internalType": "uint256",
          "name": "",
          "type": "uint256"
        }
      ],
      "name": "bids",
      "outputs": [
        {
          "internalType": "uint256",
          "name": "amountToSell",
          "type": "uint256"
        },
        {
          "internalType": "address",
          "name": "sender",
          "type": "address"
        }
      ],
      "stateMutability": "view",
      "type": "function"
    },
    {
      "inputs": [
        {
          "internalType": "uint256",
          "name": "id",
          "type": "uint256"
        }
      ],
      "name": "cancelAuction",
      "outputs": [],
      "stateMutability": "nonpayable",
      "type": "function"
    },
    {
      "inputs": [],
      "name": "coinJoin",
      "outputs": [
        {
          "internalType": "contract ICoinJoin",
          "name": "",
          "type": "address"
        }
      ],
      "stateMutability": "view",
      "type": "function"
    },
    {
      "inputs": [],
      "name": "contractEnabled",
      "outputs": [
        {
          "internalType": "uint256",
          "name": "",
          "type": "uint256"
        }
      ],
      "stateMutability": "view",
      "type": "function"
    },
    {
      "inputs": [
        {
          "internalType": "uint256",
          "name": "id",
          "type": "uint256"
        },
        {
          "internalType": "uint256",
          "name": "collateralAmount",
          "type": "uint256"
        },
        {
          "internalType": "uint256",
          "name": "bid",
          "type": "uint256"
        }
      ],
      "name": "decreaseSoldAmount",
      "outputs": [],
      "stateMutability": "nonpayable",
      "type": "function"
    },
    {
      "inputs": [],
      "name": "disableContract",
      "outputs": [],
      "stateMutability": "nonpayable",
      "type": "function"
    },
    {
      "inputs": [
        {
          "internalType": "uint256",
          "name": "id",
          "type": "uint256"
        },
        {
          "internalType": "uint256",
          "name": "collateralAmount",
          "type": "uint256"
        },
        {
          "internalType": "uint256",
          "name": "bid",
          "type": "uint256"
        }
      ],
      "name": "increaseBidSize",
      "outputs": [],
      "stateMutability": "nonpayable",
      "type": "function"
    },
    {
      "inputs": [
        {
          "internalType": "address",
          "name": "accessControl",
          "type": "address"
        },
        {
          "internalType": "address",
          "name": "protocolToken_",
          "type": "address"
        },
        {
          "internalType": "address",
          "name": "safeEngine_",
          "type": "address"
        },
        {
          "internalType": "address",
          "name": "coinJoin_",
          "type": "address"
        },
        {
          "internalType": "address",
          "name": "treasury_",
          "type": "address"
        }
      ],
      "name": "initialize",
      "outputs": [],
      "stateMutability": "nonpayable",
      "type": "function"
    },
    {
      "inputs": [
        {
          "internalType": "bytes32",
          "name": "what",
          "type": "bytes32"
        },
        {
          "internalType": "address",
          "name": "data",
          "type": "address"
        }
      ],
      "name": "modifyParameters",
      "outputs": [],
      "stateMutability": "nonpayable",
      "type": "function"
    },
    {
      "inputs": [],
      "name": "protocolToken",
      "outputs": [
        {
          "internalType": "address",
          "name": "",
          "type": "address"
        }
      ],
      "stateMutability": "view",
      "type": "function"
    },
    {
      "inputs": [
        {
          "internalType": "uint256",
          "name": "id",
          "type": "uint256"
        }
      ],
      "name": "restartAuction",
      "outputs": [],
      "stateMutability": "nonpayable",
      "type": "function"
    },
    {
      "inputs": [],
      "name": "safeEngine",
      "outputs": [
        {
          "internalType": "contract ISafeEngine",
          "name": "",
          "type": "address"
        }
      ],
      "stateMutability": "view",
      "type": "function"
    },
    {
      "inputs": [
        {
          "internalType": "uint256",
          "name": "id",
          "type": "uint256"
        }
      ],
      "name": "settleAuction",
      "outputs": [],
      "stateMutability": "nonpayable",
      "type": "function"
    },
    {
      "inputs": [
        {
          "internalType": "uint256",
          "name": "amountToSell",
          "type": "uint256"
        },
        {
          "internalType": "uint256",
          "name": "",
          "type": "uint256"
        }
      ],
      "name": "startAuction",
      "outputs": [
        {
          "internalType": "uint256",
          "name": "id",
          "type": "uint256"
        }
      ],
      "stateMutability": "nonpayable",
      "type": "function"
    },
    {
      "inputs": [
        {
          "internalType": "bytes4",
          "name": "interfaceId",
          "type": "bytes4"
        }
      ],
      "name": "supportsInterface",
      "outputs": [
        {
          "internalType": "bool",
          "name": "",
          "type": "bool"
        }
      ],
      "stateMutability": "view",
      "type": "function"
    },
    {
      "inputs": [],
      "name": "treasury",
      "outputs": [
        {
          "internalType": "address",
          "name": "",
          "type": "address"
        }
      ],
      "stateMutability": "view",
      "type": "function"
    }
  ],
  "numDeployments": 1,
  "solcInputHash": "8f84b6f1e4072e92a972e80f9a9e23c6",
  "bytecode": "0x608060405234801561001057600080fd5b5061001961001e565b6100dd565b600054610100900460ff161561008a5760405162461bcd60e51b815260206004820152602760248201527f496e697469616c697a61626c653a20636f6e747261637420697320696e697469604482015266616c697a696e6760c81b606482015260840160405180910390fd5b60005460ff908116146100db576000805460ff191660ff9081179091556040519081527f7f26b83ff96e1f2b6a682f133852f6798a09c465da95921460cefb38474024989060200160405180910390a15b565b6112e9806100ec6000396000f3fe608060405234801561001057600080fd5b50600436106101545760003560e01c806301ffc9a71461015957806303ee9f22146101815780631459457a146101a75780631a465fe1146101bc5780632e993611146101cf57806330413a2a146101e0578063340517c9146101f357806341b3a0d914610216578063438280dd1461021f5780634423c5f1146102465780634fee13fc146102845780635a93f0311461029757806361d027b3146102aa5780636614f010146102bd57806367aea313146102d057806371d0fb41146102e357806375b238fc1461030a578063894ba833146103125780638e5313e01461031a57806396b5a75514610341578063b38234f314610354578063bd5f5be61461037b578063d0e8fa82146103a2578063d2351cee146103c9578063d25ccf53146101cf578063dc97e84e146103de578063e9c26518146103f3578063ff6b7b1c14610297575b600080fd5b61016c610167366004611004565b610408565b60405190151581526020015b60405180910390f35b60005461019a906201000090046001600160a01b031681565b6040516101789190611035565b6101ba6101b5366004611065565b610485565b005b60355461019a906001600160a01b031681565b6101ba6101dd3660046110ca565b50565b60385461019a906001600160a01b031681565b61020860008051602061129d83398151915281565b604051908152602001610178565b61020860345481565b6102087f39f61ca2a1a28fee144218173ec637b649a353e4026b2738c673800e5bf1437b81565b6102766102543660046110ca565b603360205260009081526040902080546001909101546001600160a01b031682565b6040516101789291906110e3565b6102086102923660046110fa565b61064c565b6101ba6102a536600461111c565b505050565b60365461019a906001600160a01b031681565b6101ba6102cb366004611148565b6108ff565b60375461019a906001600160a01b031681565b6102087f880a91047114272656e533301261260c75e4d11543ac7303d6fe4204579ec72781565b610208600081565b6101ba610a9d565b6102087fe453bacb314e78dcd5192e6b1a2b1f0e7c76e92f6b7e429a6a90f04e39db3b7681565b6101ba61034f3660046110ca565b610b70565b6102087fd83f5343da19b478b15a140c301a868be9e02603958f38fbd822b9d5c0a2891681565b6102087f4f14c8366fa999817edc9f29824eb88a00cc31225e2156f399da4bc91049eb1081565b6102087f76d0567582f23e1e9d7a13eeba60f9aea9d69b8da87ca27a8bf3698b35c653db81565b6102086000805160206112bd83398151915281565b61020860008051602061127d83398151915281565b61020860008051602061125d83398151915281565b600080546040516301ffc9a760e01b8152620100009091046001600160a01b0316906301ffc9a79061043e908590600401611174565b602060405180830381865afa15801561045b573d6000803e3d6000fd5b505050506040513d601f19601f8201168201806040525081019061047f9190611189565b92915050565b600054610100900460ff16158080156104a55750600054600160ff909116105b806104c657506104b430610c13565b1580156104c6575060005460ff166001145b61052e5760405162461bcd60e51b815260206004820152602e60248201527f496e697469616c697a61626c653a20636f6e747261637420697320616c72656160448201526d191e481a5b9a5d1a585b1a5e995960921b60648201526084015b60405180910390fd5b6000805460ff191660011790558015610551576000805461ff0019166101001790555b61055a86610c22565b6001603455603580546001600160a01b038088166001600160a01b031992831617909255603680548584169083161790556037805487841690831681179091556038805493871693909216929092179055604051631b29a84160e31b815263d94d4208906105cc908690600401611035565b600060405180830381600087803b1580156105e657600080fd5b505af11580156105fa573d6000803e3d6000fd5b505050508015610644576000805461ff0019169055604051600181527f7f26b83ff96e1f2b6a682f133852f6798a09c465da95921460cefb38474024989060200160405180910390a15b505050505050565b60008054604051632474521560e21b8152620100009091046001600160a01b0316906391d14854906106929060008051602061129d8339815191529033906004016110e3565b602060405180830381865afa1580156106af573d6000803e3d6000fd5b505050506040513d601f19601f820116820180604052508101906106d39190611189565b6106f05760405163200ab6d960e01b815260040160405180910390fd5b6034546001146107425760405162461bcd60e51b815260206004820152601f60248201527f537572706c757341756374696f6e486f7573652f6e6f742d656e61626c6564006044820152606401610525565b6000831161079e5760405162461bcd60e51b815260206004820152602360248201527f537572706c757341756374696f6e486f7573652f7a65726f2d636f6c6c6174656044820152621c985b60ea1b6064820152608401610525565b6037546001600160a01b031663efabcadc33306107c687676765c793fa10079d601b1b6111ab565b6040516001600160e01b031960e086901b1681526001600160a01b0393841660048201529290911660248301526044820152606401600060405180830381600087803b15801561081557600080fd5b505af1158015610829573d6000803e3d6000fd5b5050603854604051633bccb9b760e21b81526001600160a01b03909116925063ef32e6dc915061085f90309087906004016111d0565b600060405180830381600087803b15801561087957600080fd5b505af115801561088d573d6000803e3d6000fd5b50506036546035546108ae93506001600160a01b0390811692501685610d50565b603654604080516001600160a01b039092168252602082018590523382820152517f4ffd7d1d8addcc767c90bcb6e8e968286b978bea0f745c4e7ea698a5fbb4f4739181900360600190a192915050565b600054604051632474521560e21b8152620100009091046001600160a01b0316906391d14854906109449060008051602061125d8339815191529033906004016110e3565b602060405180830381865afa158015610961573d6000803e3d6000fd5b505050506040513d601f19601f820116820180604052508101906109859190611189565b6109a25760405163599a6c3360e11b815260040160405180910390fd5b816c383937ba37b1b7b62a37b5b2b760991b036109d557603580546001600160a01b0319166001600160a01b0383161790555b8167747265617375727960c01b03610a0357603680546001600160a01b0319166001600160a01b0383161790555b816973616665456e67696e6560b01b03610a3357603780546001600160a01b0319166001600160a01b0383161790555b816731b7b4b72537b4b760c11b03610a6157603880546001600160a01b0319166001600160a01b0383161790555b817fd91f38cf03346b5dc15fb60f9076f866295231ad3c3841a1051f8443f25170d182604051610a919190611035565b60405180910390a25050565b600054604051632474521560e21b8152620100009091046001600160a01b0316906391d1485490610ae2906000805160206112bd8339815191529033906004016110e3565b602060405180830381865afa158015610aff573d6000803e3d6000fd5b505050506040513d601f19601f82011682018060405250810190610b239190611189565b610b405760405163bb0684b760e01b815260040160405180910390fd5b600060348190556040517f2d4b4ecff7bd7503135271925520a2f6c0d98c9473ffc1a1e72c92502f51b25e9190a1565b600054604051632474521560e21b8152620100009091046001600160a01b0316906391d1485490610bb59060008051602061127d8339815191529033906004016110e3565b602060405180830381865afa158015610bd2573d6000803e3d6000fd5b505050506040513d601f19601f82011682018060405250810190610bf69190611189565b6101dd5760405163200ab6d960e01b815260040160405180910390fd5b6001600160a01b03163b151590565b600054610100900460ff16610c8d5760405162461bcd60e51b815260206004820152602b60248201527f496e697469616c697a61626c653a20636f6e7472616374206973206e6f74206960448201526a6e697469616c697a696e6760a81b6064820152608401610525565b6000805462010000600160b01b031916620100006001600160a01b038416908102919091179091551580610d3257506040516301ffc9a760e01b81526001600160a01b038216906301ffc9a790610cef90637965db0b60e01b90600401611174565b602060405180830381865afa158015610d0c573d6000803e3d6000fd5b505050506040513d601f19601f82011682018060405250810190610d309190611189565b155b156101dd576040516384d942fd60e01b815260040160405180910390fd5b6102a58363a9059cbb60e01b8484604051602401610d6f9291906111d0565b60408051601f198184030181529190526020810180516001600160e01b03166001600160e01b0319909316929092179091526000610df6826040518060400160405280602081526020017f5361666545524332303a206c6f772d6c6576656c2063616c6c206661696c6564815250856001600160a01b0316610e769092919063ffffffff16565b9050805160001480610e17575080806020019051810190610e179190611189565b6102a55760405162461bcd60e51b815260206004820152602a60248201527f5361666545524332303a204552433230206f7065726174696f6e20646964206e6044820152691bdd081cdd58d8d9595960b21b6064820152608401610525565b6060610e858484600085610e8d565b949350505050565b606082471015610eee5760405162461bcd60e51b815260206004820152602660248201527f416464726573733a20696e73756666696369656e742062616c616e636520666f6044820152651c8818d85b1b60d21b6064820152608401610525565b600080866001600160a01b03168587604051610f0a919061120d565b60006040518083038185875af1925050503d8060008114610f47576040519150601f19603f3d011682016040523d82523d6000602084013e610f4c565b606091505b5091509150610f5d87838387610f68565b979650505050505050565b60608315610fd5578251600003610fce57610f8285610c13565b610fce5760405162461bcd60e51b815260206004820152601d60248201527f416464726573733a2063616c6c20746f206e6f6e2d636f6e74726163740000006044820152606401610525565b5081610e85565b610e858383815115610fea5781518083602001fd5b8060405162461bcd60e51b81526004016105259190611229565b60006020828403121561101657600080fd5b81356001600160e01b03198116811461102e57600080fd5b9392505050565b6001600160a01b0391909116815260200190565b80356001600160a01b038116811461106057600080fd5b919050565b600080600080600060a0868803121561107d57600080fd5b61108686611049565b945061109460208701611049565b93506110a260408701611049565b92506110b060608701611049565b91506110be60808701611049565b90509295509295909350565b6000602082840312156110dc57600080fd5b5035919050565b9182526001600160a01b0316602082015260400190565b6000806040838503121561110d57600080fd5b50508035926020909101359150565b60008060006060848603121561113157600080fd5b505081359360208301359350604090920135919050565b6000806040838503121561115b57600080fd5b8235915061116b60208401611049565b90509250929050565b6001600160e01b031991909116815260200190565b60006020828403121561119b57600080fd5b8151801515811461102e57600080fd5b808202811582820484141761047f57634e487b7160e01b600052601160045260246000fd5b6001600160a01b03929092168252602082015260400190565b60005b838110156112045781810151838201526020016111ec565b50506000910152565b6000825161121f8184602087016111e9565b9190910192915050565b60208152600082518060208401526112488160408501602087016111e9565b601f01601f1916919091016040019291505056fe3b5d4cc60d3ec3516ee8ae083bd60934f6eb2a6c54b1229985c41bfb092b26039a9aef7c1247d5fc769b0185c052913e39673da29a880317dfd20ebf86f26a49014f8da3222812608c449a44f4705585c5ce052eeb6f9af0af9209c64b0ba2deb0fdd1623e42dbffda4acd8bd643e1cb69f00f0e83abeaa8150ee42cf0fd105ea164736f6c6343000811000a",
  "devdoc": {
    "kind": "dev",
    "methods": {
      "constructor": {
        "custom:oz-upgrades-unsafe-allow": "constructor"
      },
      "supportsInterface(bytes4)": {
        "details": "Returns true if this contract implements the interface defined by `interfaceId`. See the corresponding https://eips.ethereum.org/EIPS/eip-165#how-interfaces-are-identified[EIP section] to learn more about how these ids are created. This function call must use less than 30 000 gas."
      }
    },
    "version": 1
  },
  "userdoc": {
    "kind": "user",
    "methods": {},
    "version": 1
  },
  "storageLayout": {
    "storage": [
      {
        "astId": 1226,
        "contract": "contracts/makerdao/externalContracts/SurplusAuctionHouse.sol:SurplusAuctionHouse",
        "label": "_initialized",
        "offset": 0,
        "slot": "0",
        "type": "t_uint8"
      },
      {
        "astId": 1229,
        "contract": "contracts/makerdao/externalContracts/SurplusAuctionHouse.sol:SurplusAuctionHouse",
        "label": "_initializing",
        "offset": 1,
        "slot": "0",
        "type": "t_bool"
      },
      {
        "astId": 25605,
        "contract": "contracts/makerdao/externalContracts/SurplusAuctionHouse.sol:SurplusAuctionHouse",
        "label": "ACCESS_CONTROL_SINGLETON",
        "offset": 2,
        "slot": "0",
        "type": "t_contract(ISuAccessControl)32864"
      },
      {
        "astId": 25893,
        "contract": "contracts/makerdao/externalContracts/SurplusAuctionHouse.sol:SurplusAuctionHouse",
        "label": "__gap",
        "offset": 0,
        "slot": "1",
        "type": "t_array(t_uint256)50_storage"
      },
      {
        "astId": 95811,
        "contract": "contracts/makerdao/externalContracts/SurplusAuctionHouse.sol:SurplusAuctionHouse",
        "label": "bids",
        "offset": 0,
        "slot": "51",
        "type": "t_mapping(t_uint256,t_struct(Bid)95806_storage)"
      },
      {
        "astId": 95813,
        "contract": "contracts/makerdao/externalContracts/SurplusAuctionHouse.sol:SurplusAuctionHouse",
        "label": "contractEnabled",
        "offset": 0,
        "slot": "52",
        "type": "t_uint256"
      },
      {
        "astId": 95815,
        "contract": "contracts/makerdao/externalContracts/SurplusAuctionHouse.sol:SurplusAuctionHouse",
        "label": "protocolToken",
        "offset": 0,
        "slot": "53",
        "type": "t_address"
      },
      {
        "astId": 95817,
        "contract": "contracts/makerdao/externalContracts/SurplusAuctionHouse.sol:SurplusAuctionHouse",
        "label": "treasury",
        "offset": 0,
        "slot": "54",
        "type": "t_address"
      },
      {
        "astId": 95820,
        "contract": "contracts/makerdao/externalContracts/SurplusAuctionHouse.sol:SurplusAuctionHouse",
        "label": "safeEngine",
        "offset": 0,
        "slot": "55",
        "type": "t_contract(ISafeEngine)97348"
      },
      {
        "astId": 95823,
        "contract": "contracts/makerdao/externalContracts/SurplusAuctionHouse.sol:SurplusAuctionHouse",
        "label": "coinJoin",
        "offset": 0,
        "slot": "56",
        "type": "t_contract(ICoinJoin)96490"
      }
    ],
    "types": {
      "t_address": {
        "encoding": "inplace",
        "label": "address",
        "numberOfBytes": "20"
      },
      "t_array(t_uint256)50_storage": {
        "base": "t_uint256",
        "encoding": "inplace",
        "label": "uint256[50]",
        "numberOfBytes": "1600"
      },
      "t_bool": {
        "encoding": "inplace",
        "label": "bool",
        "numberOfBytes": "1"
      },
      "t_contract(ICoinJoin)96490": {
        "encoding": "inplace",
        "label": "contract ICoinJoin",
        "numberOfBytes": "20"
      },
      "t_contract(ISafeEngine)97348": {
        "encoding": "inplace",
        "label": "contract ISafeEngine",
        "numberOfBytes": "20"
      },
      "t_contract(ISuAccessControl)32864": {
        "encoding": "inplace",
        "label": "contract ISuAccessControl",
        "numberOfBytes": "20"
      },
      "t_mapping(t_uint256,t_struct(Bid)95806_storage)": {
        "encoding": "mapping",
        "key": "t_uint256",
        "label": "mapping(uint256 => struct SurplusAuctionHouse.Bid)",
        "numberOfBytes": "32",
        "value": "t_struct(Bid)95806_storage"
      },
      "t_struct(Bid)95806_storage": {
        "encoding": "inplace",
        "label": "struct SurplusAuctionHouse.Bid",
        "members": [
          {
            "astId": 95803,
            "contract": "contracts/makerdao/externalContracts/SurplusAuctionHouse.sol:SurplusAuctionHouse",
            "label": "amountToSell",
            "offset": 0,
            "slot": "0",
            "type": "t_uint256"
          },
          {
            "astId": 95805,
            "contract": "contracts/makerdao/externalContracts/SurplusAuctionHouse.sol:SurplusAuctionHouse",
            "label": "sender",
            "offset": 0,
            "slot": "1",
            "type": "t_address"
          }
        ],
        "numberOfBytes": "64"
      },
      "t_uint256": {
        "encoding": "inplace",
        "label": "uint256",
        "numberOfBytes": "32"
      },
      "t_uint8": {
        "encoding": "inplace",
        "label": "uint8",
        "numberOfBytes": "1"
      }
    }
  }
}