{
  "address": "0x108D4a15D4b2410aE44F4e436830b7058666DF0e",
  "abi": [
    {
      "inputs": [],
      "stateMutability": "nonpayable",
      "type": "constructor"
    },
    {
      "inputs": [],
      "name": "BadAccessControlSingleton",
      "type": "error"
    },
    {
      "inputs": [],
      "name": "OnlyAdminError",
      "type": "error"
    },
    {
      "inputs": [],
      "name": "OnlyAlerterError",
      "type": "error"
    },
    {
      "inputs": [],
      "name": "OnlyCDPAccessError",
      "type": "error"
    },
    {
      "inputs": [],
      "name": "OnlyDAOError",
      "type": "error"
    },
    {
      "inputs": [],
      "name": "OnlyDisablerAccessError",
      "type": "error"
    },
    {
      "inputs": [],
      "name": "OnlyLiquidationAccessError",
      "type": "error"
    },
    {
      "inputs": [],
      "name": "OnlyMintAccessError",
      "type": "error"
    },
    {
      "inputs": [],
      "name": "OnlyProxyActionsError",
      "type": "error"
    },
    {
      "inputs": [],
      "name": "OnlyRewardAccessError",
      "type": "error"
    },
    {
      "inputs": [],
      "name": "OnlyRoleError",
      "type": "error"
    },
    {
      "inputs": [],
      "name": "OnlyVaultAccessError",
      "type": "error"
    },
    {
      "inputs": [],
      "name": "OnlyVotingEscrowError",
      "type": "error"
    },
    {
      "anonymous": false,
      "inputs": [],
      "name": "DisableContract",
      "type": "event"
    },
    {
      "anonymous": false,
      "inputs": [
        {
          "indexed": false,
          "internalType": "uint8",
          "name": "version",
          "type": "uint8"
        }
      ],
      "name": "Initialized",
      "type": "event"
    },
    {
      "inputs": [],
      "name": "ACCESS_CONTROL_SINGLETON",
      "outputs": [
        {
          "internalType": "contract ISuAccessControl",
          "name": "",
          "type": "address"
        }
      ],
      "stateMutability": "view",
      "type": "function"
    },
    {
      "inputs": [],
      "name": "ADMIN_ROLE",
      "outputs": [
        {
          "internalType": "bytes32",
          "name": "",
          "type": "bytes32"
        }
      ],
      "stateMutability": "view",
      "type": "function"
    },
    {
      "inputs": [],
      "name": "ALERTER_ROLE",
      "outputs": [
        {
          "internalType": "bytes32",
          "name": "",
          "type": "bytes32"
        }
      ],
      "stateMutability": "view",
      "type": "function"
    },
    {
      "inputs": [],
      "name": "CDP_ACCESS_ROLE",
      "outputs": [
        {
          "internalType": "bytes32",
          "name": "",
          "type": "bytes32"
        }
      ],
      "stateMutability": "view",
      "type": "function"
    },
    {
      "inputs": [],
      "name": "DAO_ROLE",
      "outputs": [
        {
          "internalType": "bytes32",
          "name": "",
          "type": "bytes32"
        }
      ],
      "stateMutability": "view",
      "type": "function"
    },
    {
      "inputs": [],
      "name": "DISABLER_ROLE",
      "outputs": [
        {
          "internalType": "bytes32",
          "name": "",
          "type": "bytes32"
        }
      ],
      "stateMutability": "view",
      "type": "function"
    },
    {
      "inputs": [],
      "name": "LIQUIDATION_ACCESS_ROLE",
      "outputs": [
        {
          "internalType": "bytes32",
          "name": "",
          "type": "bytes32"
        }
      ],
      "stateMutability": "view",
      "type": "function"
    },
    {
      "inputs": [],
      "name": "MINT_ACCESS_ROLE",
      "outputs": [
        {
          "internalType": "bytes32",
          "name": "",
          "type": "bytes32"
        }
      ],
      "stateMutability": "view",
      "type": "function"
    },
    {
      "inputs": [],
      "name": "PROXY_ACTIONS_ROLE",
      "outputs": [
        {
          "internalType": "bytes32",
          "name": "",
          "type": "bytes32"
        }
      ],
      "stateMutability": "view",
      "type": "function"
    },
    {
      "inputs": [],
      "name": "REWARD_ACCESS_ROLE",
      "outputs": [
        {
          "internalType": "bytes32",
          "name": "",
          "type": "bytes32"
        }
      ],
      "stateMutability": "view",
      "type": "function"
    },
    {
      "inputs": [],
      "name": "VOTING_ESCROW_ROLE",
      "outputs": [
        {
          "internalType": "bytes32",
          "name": "",
          "type": "bytes32"
        }
      ],
      "stateMutability": "view",
      "type": "function"
    },
    {
      "inputs": [],
      "name": "base",
      "outputs": [
        {
          "internalType": "uint256",
          "name": "",
          "type": "uint256"
        }
      ],
      "stateMutability": "view",
      "type": "function"
    },
    {
      "inputs": [
        {
          "internalType": "bytes32",
          "name": "",
          "type": "bytes32"
        }
      ],
      "name": "collateralTypes",
      "outputs": [
        {
          "internalType": "uint256",
          "name": "stabilityFee",
          "type": "uint256"
        },
        {
          "internalType": "uint256",
          "name": "latestUpdateTime",
          "type": "uint256"
        }
      ],
      "stateMutability": "view",
      "type": "function"
    },
    {
      "inputs": [],
      "name": "contractEnabled",
      "outputs": [
        {
          "internalType": "uint256",
          "name": "",
          "type": "uint256"
        }
      ],
      "stateMutability": "view",
      "type": "function"
    },
    {
      "inputs": [],
      "name": "disableContract",
      "outputs": [],
      "stateMutability": "nonpayable",
      "type": "function"
    },
    {
      "inputs": [
        {
          "internalType": "address",
          "name": "accessControl",
          "type": "address"
        },
        {
          "internalType": "address",
          "name": "safeEngine_",
          "type": "address"
        }
      ],
      "name": "initialize",
      "outputs": [],
      "stateMutability": "nonpayable",
      "type": "function"
    },
    {
      "inputs": [
        {
          "internalType": "bytes32",
          "name": "collateralType",
          "type": "bytes32"
        }
      ],
      "name": "initializeCollateralType",
      "outputs": [],
      "stateMutability": "nonpayable",
      "type": "function"
    },
    {
      "inputs": [
        {
          "internalType": "bytes32",
          "name": "what",
          "type": "bytes32"
        },
        {
          "internalType": "address",
          "name": "data",
          "type": "address"
        }
      ],
      "name": "modifyParameters",
      "outputs": [],
      "stateMutability": "nonpayable",
      "type": "function"
    },
    {
      "inputs": [
        {
          "internalType": "bytes32",
          "name": "collateralType",
          "type": "bytes32"
        },
        {
          "internalType": "bytes32",
          "name": "what",
          "type": "bytes32"
        },
        {
          "internalType": "uint256",
          "name": "data",
          "type": "uint256"
        }
      ],
      "name": "modifyParameters",
      "outputs": [],
      "stateMutability": "nonpayable",
      "type": "function"
    },
    {
      "inputs": [
        {
          "internalType": "bytes32",
          "name": "what",
          "type": "bytes32"
        },
        {
          "internalType": "uint256",
          "name": "data",
          "type": "uint256"
        }
      ],
      "name": "modifyParameters",
      "outputs": [],
      "stateMutability": "nonpayable",
      "type": "function"
    },
    {
      "inputs": [],
      "name": "primaryTaxReceiver",
      "outputs": [
        {
          "internalType": "address",
          "name": "",
          "type": "address"
        }
      ],
      "stateMutability": "view",
      "type": "function"
    },
    {
      "inputs": [],
      "name": "safeEngine",
      "outputs": [
        {
          "internalType": "contract ISafeEngine",
          "name": "",
          "type": "address"
        }
      ],
      "stateMutability": "view",
      "type": "function"
    },
    {
      "inputs": [
        {
          "internalType": "bytes4",
          "name": "interfaceId",
          "type": "bytes4"
        }
      ],
      "name": "supportsInterface",
      "outputs": [
        {
          "internalType": "bool",
          "name": "",
          "type": "bool"
        }
      ],
      "stateMutability": "view",
      "type": "function"
    },
    {
      "inputs": [
        {
          "internalType": "bytes32",
          "name": "collateralType",
          "type": "bytes32"
        }
      ],
      "name": "taxSingle",
      "outputs": [
        {
          "internalType": "uint256",
          "name": "rate",
          "type": "uint256"
        }
      ],
      "stateMutability": "nonpayable",
      "type": "function"
    }
  ],
  "numDeployments": 1,
  "solcInputHash": "8c060bc8c39a7272c2849a174b3b4791",
  "bytecode": "0x608080604052346100c1576000549060ff8260081c1661006f575060ff80821603610034575b6040516112e590816100c78239f35b60ff90811916176000557f7f26b83ff96e1f2b6a682f133852f6798a09c465da95921460cefb3847402498602060405160ff8152a138610025565b62461bcd60e51b815260206004820152602760248201527f496e697469616c697a61626c653a20636f6e747261637420697320696e697469604482015266616c697a696e6760c81b6064820152608490fd5b600080fdfe60806040526004361015610013575b600080fd5b60003560e01c806301ffc9a7146101f357806303ee9f22146101ea57806341b3a0d9146101e1578063438280dd146101d8578063485cc955146101cf5780635001f3b5146101c6578063542f76a6146101bd5780635e412858146101b45780636614f010146101ab57806367aea313146101a25780636c50dbba1461019957806371d0fb411461019057806375b238fc14610187578063894ba8331461017e5780638e5313e014610175578063b38234f31461016c578063bd5f5be614610163578063d07900bb1461015a578063d0e8fa8214610151578063d2351cee14610148578063d4b9311d1461013f578063dc97e84e14610136578063e9c265181461012d5763fe4f58901461012557600080fd5b61000e610b59565b5061000e610b2f565b5061000e610af3565b5061000e610a53565b5061000e610a29565b5061000e6109ed565b5061000e6109b7565b5061000e61096b565b5061000e61092f565b5061000e6108f3565b5061000e610835565b5061000e610818565b5061000e6107dc565b5061000e610638565b5061000e61060e565b5061000e610555565b5061000e6104a4565b5061000e61047a565b5061000e61045b565b5061000e610361565b5061000e610314565b5061000e6102f5565b5061000e6102c7565b503461000e57602036600319011261000e5760043563ffffffff60e01b811680910361000e576000546040516301ffc9a760e01b8152600481019290925261027191906020908290602490829060101c6001600160a01b03165afa9081156102a3575b600091610275575b5060405190151581529081906020820190565b0390f35b610296915060203d811161029c575b61028e8183610c1f565b810190610c42565b3861025e565b503d610284565b6102ab610c5a565b610256565b600091031261000e57565b6001600160a01b031690565b503461000e57600036600319011261000e5760005460405160109190911c6001600160a01b03168152602090f35b503461000e57600036600319011261000e576020603754604051908152f35b503461000e57600036600319011261000e5760206040517f39f61ca2a1a28fee144218173ec637b649a353e4026b2738c673800e5bf1437b8152f35b6001600160a01b0381160361000e57565b503461000e57604036600319011261000e5760043561037f81610350565b6103cf60243561038e81610350565b600054926103b360ff8560081c16158095819661044d575b811561042d575b50610c67565b836103c6600160ff196000541617600055565b61041457610cca565b6103d557005b6103e561ff001960005416600055565b604051600181527f7f26b83ff96e1f2b6a682f133852f6798a09c465da95921460cefb384740249890602090a1005b61042861010061ff00196000541617600055565b610cca565b303b1591508161043f575b50386103ad565b6001915060ff161438610438565b600160ff82161091506103a6565b503461000e57600036600319011261000e576020603654604051908152f35b503461000e57600036600319011261000e576035546040516001600160a01b039091168152602090f35b503461000e57602036600319011261000e576000546104ce9060101c6001600160a01b03166102bb565b604051632474521560e21b81526000600482015233602482015290602090829060449082905afa908115610548575b60009161052a575b501561051857610516600435610e5f565b005b604051631886ea7d60e11b8152600490fd5b610542915060203d811161029c5761028e8183610c1f565b38610505565b610550610c5a565b6104fd565b503461000e57604036600319011261000e5760243561057381610350565b60005461058b9060101c6001600160a01b03166102bb565b60206040518092632474521560e21b825281806105ab3360048301610e0c565b03915afa908115610601575b6000916105e3575b50156105d15761051690600435610fe0565b60405163599a6c3360e11b8152600490fd5b6105fb915060203d811161029c5761028e8183610c1f565b386105bf565b610609610c5a565b6105b7565b503461000e57600036600319011261000e576034546040516001600160a01b039091168152602090f35b503461000e57602036600319011261000e57600435610665600161065b836109a7565b015442101561101d565b6106786106736034546102bb565b6102bb565b60405163d07900bb60e01b81526004810183905261010092908381602481865afa9384156107cf575b600094610798575b50506106e9836106e46106c86036546106c1866109a7565b54906111a1565b6106de60016106d6876109a7565b0154426110d0565b906110e5565b611207565b916106ff6106f86035546102bb565b94846111c3565b93813b1561000e57604051630e9e11d360e01b8152600481018490526001600160a01b03919091166024820152604481019490945261027193906000908290606490829084905af1801561078b575b610772575b50600161076042926109a7565b01556040519081529081906020820190565b8061077f61078592610bf6565b806102b0565b38610753565b610793610c5a565b61074e565b6107b8929450803d106107c8575b6107b08183610c1f565b810190611075565b50505050505090509138806106a9565b503d6107a6565b6107d7610c5a565b6106a1565b503461000e57600036600319011261000e5760206040517f880a91047114272656e533301261260c75e4d11543ac7303d6fe4204579ec7278152f35b503461000e57600036600319011261000e57602060405160008152f35b503461000e576000806003193601126108f057805461085f9060101c6001600160a01b03166102bb565b604051632474521560e21b8152600080516020611290833981519152600482015233602482015290602090829060449082905afa9081156108e3575b82916108c5575b50156108b3576108b0610e33565b80f35b60405163bb0684b760e01b8152600490fd5b6108dd915060203d811161029c5761028e8183610c1f565b386108a2565b6108eb610c5a565b61089b565b80fd5b503461000e57600036600319011261000e5760206040517fe453bacb314e78dcd5192e6b1a2b1f0e7c76e92f6b7e429a6a90f04e39db3b768152f35b503461000e57600036600319011261000e5760206040517fd83f5343da19b478b15a140c301a868be9e02603958f38fbd822b9d5c0a289168152f35b503461000e57600036600319011261000e5760206040517f4f14c8366fa999817edc9f29824eb88a00cc31225e2156f399da4bc91049eb108152f35b6000526033602052604060002090565b503461000e57602036600319011261000e5760043560005260336020526040806000206001815491015482519182526020820152f35b503461000e57600036600319011261000e5760206040517f76d0567582f23e1e9d7a13eeba60f9aea9d69b8da87ca27a8bf3698b35c653db8152f35b503461000e57600036600319011261000e5760206040516000805160206112908339815191528152f35b503461000e57606036600319011261000e57600054610a7d9060101c6001600160a01b03166102bb565b60206040518092632474521560e21b82528180610a9d3360048301610e0c565b03915afa908115610ae6575b600091610ac8575b50156105d157610516604435602435600435610edf565b610ae0915060203d811161029c5761028e8183610c1f565b38610ab1565b610aee610c5a565b610aa9565b503461000e57600036600319011261000e5760206040517f9a9aef7c1247d5fc769b0185c052913e39673da29a880317dfd20ebf86f26a498152f35b503461000e57600036600319011261000e5760206040516000805160206112708339815191528152f35b503461000e57604036600319011261000e57600054610b839060101c6001600160a01b03166102bb565b60206040518092632474521560e21b82528180610ba33360048301610e0c565b03915afa908115610be9575b600091610bcb575b50156105d157610516602435600435610fce565b610be3915060203d811161029c5761028e8183610c1f565b38610bb7565b610bf1610c5a565b610baf565b6001600160401b038111610c0957604052565b634e487b7160e01b600052604160045260246000fd5b601f909101601f19168101906001600160401b03821190821017610c0957604052565b9081602091031261000e5751801515810361000e5790565b506040513d6000823e3d90fd5b15610c6e57565b60405162461bcd60e51b815260206004820152602e60248201527f496e697469616c697a61626c653a20636f6e747261637420697320616c72656160448201526d191e481a5b9a5d1a585b1a5e995960921b6064820152608490fd5b60ff60005460081c1615610db3576000805462010000600160b01b031916601083901b62010000600160b01b03161790556001600160a01b039081168015908115610d48575b50610d3657610d34911660018060a01b031660018060a01b03196034541617603455565b565b6040516384d942fd60e01b8152600490fd5b6040516301ffc9a760e01b8152637965db0b60e01b60048201529150602090829060249082905afa908115610da6575b600091610d88575b501538610d10565b610da0915060203d811161029c5761028e8183610c1f565b38610d80565b610dae610c5a565b610d78565b60405162461bcd60e51b815260206004820152602b60248201527f496e697469616c697a61626c653a20636f6e7472616374206973206e6f74206960448201526a6e697469616c697a696e6760a81b6064820152608490fd5b60008051602061127083398151915281526001600160a01b03909116602082015260400190565b60006037557f2d4b4ecff7bd7503135271925520a2f6c0d98c9473ffc1a1e72c92502f51b25e600080a1565b600052603360205260406000208054610e8957676765c793fa10079d601b1b815542600190910155565b60405162461bcd60e51b815260206004820152602860248201527f546178436f6c6c6563746f722f636f6c6c61746572616c547970652d616c726560448201526718591e4b5a5b9a5d60c21b6064820152608490fd5b908160005260336020526001604060002001544203610f77576b73746162696c69747946656560a01b03610f1957610f16906109a7565b55565b60405162461bcd60e51b815260206004820152603060248201527f546178436f6c6c6563746f722f6d6f64696679506172616d65746572732d756e60448201526f7265636f676e697a65642d706172616d60801b6064820152608490fd5b60405162461bcd60e51b815260206004820152602960248201527f546178436f6c6c6563746f722f6c617465737455706461746554696d652d6e6f6044820152681d0b5d5c19185d195960ba1b6064820152608490fd5b636261736560e01b03610f1957603655565b71383934b6b0b93caa30bc2932b1b2b4bb32b960711b03610f1957603580546001600160a01b0319166001600160a01b0392909216919091179055565b1561102457565b60405162461bcd60e51b8152602060048201526024808201527f546178436f6c6c6563746f722f696e76616c69642d626c6f636b2d74696d6573604482015263074616d760e41b6064820152608490fd5b91908261010091031261000e5781519160208101519160408201519160608101519160808201519160a08101519160e060c08301516110b381610350565b92015190565b50634e487b7160e01b600052601160045260246000fd5b919082039182116110dd57565b610d346110b9565b9091908015611186576001838116156111745781935b811c805b61110857505050565b828002928084040361000e57676765c793fa10079d601a1b9280840190811061000e57676765c793fa10079d601b1b908190049382841661114e575b5050811c806110ff565b8487929397029185830414158515151661000e57810190811061000e5704933880611144565b676765c793fa10079d601b1b936110fb565b50901561119257600090565b676765c793fa10079d601b1b90565b91908201918281116111b6575b821061000e57565b6111be6110b9565b6111ae565b9190600080828503921291821592858212168582138416176111fa575b93121590816111f2575b501561000e57565b9050386111ea565b6112026110b9565b6111e0565b9080820291808304821481151715611262575b811591821561123c575b50501561000e57676765c793fa10079d601b1b900490565b909161124c578204143880611224565b634e487b7160e01b600052601260045260246000fd5b61126a6110b9565b61121a56fe3b5d4cc60d3ec3516ee8ae083bd60934f6eb2a6c54b1229985c41bfb092b2603b0fdd1623e42dbffda4acd8bd643e1cb69f00f0e83abeaa8150ee42cf0fd105ea26469706673582212200aa075c6a46da1a74a43c9e8d366957097ae5b45facccc2e34eeccdeb57b485564736f6c63430008110033",
  "devdoc": {
    "custom:changes": "Replaced MakerDAOs `authorizedAccounts` with `SuAuthenticated`.                 Removed `LibNote` for event logging, requiring custom events (TODO).                 Added `ITaxCollector` interface and moved `CollateralType` struct there.                 Simplified math functions (`_rpow`, `_rmul`, `_add`, `_diff`) for gas efficiency.",
    "custom:events": "No events are defined; custom events need to be added (as noted in FIXME).                Placeholder events (e.g., `DisableContract`) are included in comments but not defined.",
    "custom:security": "Only authorized accounts (DAO, Admin, DisablerAccess) can modify parameters or disable the contract.                 Fee calculations rely on SafeEngines rate updates, and `taxSingle` requires up-to-date timestamps.                 The contract assumes `primaryTaxReceiver` is a valid address (e.g., AccountingEngine).",
    "custom:usage": "- **Initialization**: Deploy with access control and SafeEngine addresses.   ```solidity   TaxCollector taxCollector = new TaxCollector(accessControlAddress, safeEngineAddress);   ``` - **Collateral Type Setup**: Initialize a collateral types fee parameters.   ```solidity   taxCollector.initializeCollateralType(\"ETH-A\");   ``` - **Fee Collection**: Trigger fee calculation for a collateral type.   ```solidity   uint256 newRate = taxCollector.taxSingle(\"ETH-A\"); // Update fees for ETH-A   ``` - **Parameter Modification**: DAO updates stability fees, base fee, or tax receiver.   ```solidity   taxCollector.modifyParameters(\"ETH-A\", \"stabilityFee\", newFee); // Update collateral fee   taxCollector.modifyParameters(\"base\", newBaseFee); // Update global base fee   taxCollector.modifyParameters(\"primaryTaxReceiver\", newReceiver); // Update tax receiver   ``` - **Disabling**: DisablerAccess accounts can disable the contract.   ```solidity   taxCollector.disableContract(); // Halt operations   ```",
    "details": "Calculates and applies per-second stability fees to Safes, updating accumulated rates in SafeEngine.      Supports a global base fee and per-collateral-type fees, with surplus directed to a primary tax receiver      (e.g., AccountingEngine). Uses SuAuthenticated for access control. Integrates with SafeEngine      to adjust debt balances based on accrued fees. This contract is a fork of MakerDAOs TaxCollector.sol, adapted      for StableUnit with simplified math and custom access control.",
    "kind": "dev",
    "methods": {
      "constructor": {
        "custom:oz-upgrades-unsafe-allow": "constructor"
      },
      "disableContract()": {
        "custom:access": "OnlyDisablerAccess",
        "details": "Sets `contractEnabled` to 0 and emits a placeholder event. Only callable by DisablerAccess accounts."
      },
      "initialize(address,address)": {
        "details": "Sets the SafeEngine reference and inherits access control from SuAuthenticated.",
        "params": {
          "accessControl": "Address of the access control singleton contract.",
          "safeEngine_": "Address of the SafeEngine contract."
        }
      },
      "initializeCollateralType(bytes32)": {
        "custom:access": "OnlyAdmin",
        "details": "Sets initial stability fee to ONE (no fee) and records the current timestamp.      Reverts if already initialized. Only callable by Admin.",
        "params": {
          "collateralType": "Unique identifier for the collateral type (e.g., \"ETH-A\")."
        }
      },
      "modifyParameters(bytes32,address)": {
        "custom:access": "OnlyDAO",
        "details": "Updates the address receiving collected fees (e.g., AccountingEngine). Only callable by DAO.",
        "params": {
          "data": "New receiver address.",
          "what": "Parameter to modify (must be \"primaryTaxReceiver\")."
        }
      },
      "modifyParameters(bytes32,bytes32,uint256)": {
        "custom:access": "OnlyDAO",
        "details": "Updates the stability fee, requiring the collateral types timestamp to be up-to-date.      Only callable by DAO.",
        "params": {
          "collateralType": "Unique identifier for the collateral type.",
          "data": "New stability fee value [ray].",
          "what": "Parameter to modify (must be \"stabilityFee\")."
        }
      },
      "modifyParameters(bytes32,uint256)": {
        "custom:access": "OnlyDAO",
        "details": "Updates the global base stability fee. Only callable by DAO.",
        "params": {
          "data": "New base fee value [ray].",
          "what": "Parameter to modify (must be \"base\")."
        }
      },
      "supportsInterface(bytes4)": {
        "details": "Returns true if this contract implements the interface defined by `interfaceId`. See the corresponding https://eips.ethereum.org/EIPS/eip-165#how-interfaces-are-identified[EIP section] to learn more about how these ids are created. This function call must use less than 30 000 gas."
      },
      "taxSingle(bytes32)": {
        "details": "Calculates the new accumulated rate based on elapsed time and combined stability fees      (base + collateral-specific). Updates SafeEngine and records the current timestamp.",
        "params": {
          "collateralType": "Unique identifier for the collateral type."
        },
        "returns": {
          "rate": "New accumulated rate for the collateral type [ray]."
        }
      }
    },
    "title": "TaxCollector",
    "version": 1
  },
  "userdoc": {
    "kind": "user",
    "methods": {
      "base()": {
        "notice": "Global per-second stability fee contribution applied to all collateral types [ray]."
      },
      "collateralTypes(bytes32)": {
        "notice": "Maps collateral types to their stability fee configurations."
      },
      "contractEnabled()": {
        "notice": "Tracks whether the contract is enabled (0) or disabled (non-zero)."
      },
      "disableContract()": {
        "notice": "Disables the contract, preventing further state-changing operations."
      },
      "initialize(address,address)": {
        "notice": "Initializes the TaxCollector with access control and SafeEngine addresses."
      },
      "initializeCollateralType(bytes32)": {
        "notice": "Initializes a new collateral type for stability fee collection."
      },
      "modifyParameters(bytes32,address)": {
        "notice": "Modifies the primary tax receiver address."
      },
      "modifyParameters(bytes32,bytes32,uint256)": {
        "notice": "Modifies stability fee for a specific collateral type."
      },
      "modifyParameters(bytes32,uint256)": {
        "notice": "Modifies global protocol parameters."
      },
      "primaryTaxReceiver()": {
        "notice": "Address receiving collected stability fees (e.g., AccountingEngine)."
      },
      "safeEngine()": {
        "notice": "Reference to the SafeEngine contract for rate updates."
      },
      "taxSingle(bytes32)": {
        "notice": "Collects stability fees for a collateral type and updates SafeEngine rates."
      }
    },
    "notice": "Manages stability fees for collateral types in the StableUnit protocol.",
    "version": 1
  },
  "storageLayout": {
    "storage": [
      {
        "astId": 1226,
        "contract": "contracts/makerdao/core/TaxCollector.sol:TaxCollector",
        "label": "_initialized",
        "offset": 0,
        "slot": "0",
        "type": "t_uint8"
      },
      {
        "astId": 1229,
        "contract": "contracts/makerdao/core/TaxCollector.sol:TaxCollector",
        "label": "_initializing",
        "offset": 1,
        "slot": "0",
        "type": "t_bool"
      },
      {
        "astId": 24747,
        "contract": "contracts/makerdao/core/TaxCollector.sol:TaxCollector",
        "label": "ACCESS_CONTROL_SINGLETON",
        "offset": 2,
        "slot": "0",
        "type": "t_contract(ISuAccessControl)31989"
      },
      {
        "astId": 25018,
        "contract": "contracts/makerdao/core/TaxCollector.sol:TaxCollector",
        "label": "__gap",
        "offset": 0,
        "slot": "1",
        "type": "t_array(t_uint256)50_storage"
      },
      {
        "astId": 48421,
        "contract": "contracts/makerdao/core/TaxCollector.sol:TaxCollector",
        "label": "collateralTypes",
        "offset": 0,
        "slot": "51",
        "type": "t_mapping(t_bytes32,t_struct(CollateralType)53694_storage)"
      },
      {
        "astId": 48425,
        "contract": "contracts/makerdao/core/TaxCollector.sol:TaxCollector",
        "label": "safeEngine",
        "offset": 0,
        "slot": "52",
        "type": "t_contract(ISafeEngine)53684"
      },
      {
        "astId": 48428,
        "contract": "contracts/makerdao/core/TaxCollector.sol:TaxCollector",
        "label": "primaryTaxReceiver",
        "offset": 0,
        "slot": "53",
        "type": "t_address"
      },
      {
        "astId": 48431,
        "contract": "contracts/makerdao/core/TaxCollector.sol:TaxCollector",
        "label": "base",
        "offset": 0,
        "slot": "54",
        "type": "t_uint256"
      },
      {
        "astId": 48463,
        "contract": "contracts/makerdao/core/TaxCollector.sol:TaxCollector",
        "label": "contractEnabled",
        "offset": 0,
        "slot": "55",
        "type": "t_uint256"
      }
    ],
    "types": {
      "t_address": {
        "encoding": "inplace",
        "label": "address",
        "numberOfBytes": "20"
      },
      "t_array(t_uint256)50_storage": {
        "base": "t_uint256",
        "encoding": "inplace",
        "label": "uint256[50]",
        "numberOfBytes": "1600"
      },
      "t_bool": {
        "encoding": "inplace",
        "label": "bool",
        "numberOfBytes": "1"
      },
      "t_bytes32": {
        "encoding": "inplace",
        "label": "bytes32",
        "numberOfBytes": "32"
      },
      "t_contract(ISafeEngine)53684": {
        "encoding": "inplace",
        "label": "contract ISafeEngine",
        "numberOfBytes": "20"
      },
      "t_contract(ISuAccessControl)31989": {
        "encoding": "inplace",
        "label": "contract ISuAccessControl",
        "numberOfBytes": "20"
      },
      "t_mapping(t_bytes32,t_struct(CollateralType)53694_storage)": {
        "encoding": "mapping",
        "key": "t_bytes32",
        "label": "mapping(bytes32 => struct ITaxCollector.CollateralType)",
        "numberOfBytes": "32",
        "value": "t_struct(CollateralType)53694_storage"
      },
      "t_struct(CollateralType)53694_storage": {
        "encoding": "inplace",
        "label": "struct ITaxCollector.CollateralType",
        "members": [
          {
            "astId": 53691,
            "contract": "contracts/makerdao/core/TaxCollector.sol:TaxCollector",
            "label": "stabilityFee",
            "offset": 0,
            "slot": "0",
            "type": "t_uint256"
          },
          {
            "astId": 53693,
            "contract": "contracts/makerdao/core/TaxCollector.sol:TaxCollector",
            "label": "latestUpdateTime",
            "offset": 0,
            "slot": "1",
            "type": "t_uint256"
          }
        ],
        "numberOfBytes": "64"
      },
      "t_uint256": {
        "encoding": "inplace",
        "label": "uint256",
        "numberOfBytes": "32"
      },
      "t_uint8": {
        "encoding": "inplace",
        "label": "uint8",
        "numberOfBytes": "1"
      }
    }
  }
}