{
  "address": "0x4D220328C12639A0136949AaaFf491BC088eAF85",
  "abi": [
    {
      "inputs": [],
      "stateMutability": "nonpayable",
      "type": "constructor"
    },
    {
      "inputs": [],
      "name": "BadAccessControlSingleton",
      "type": "error"
    },
    {
      "inputs": [],
      "name": "OnlyAdminError",
      "type": "error"
    },
    {
      "inputs": [],
      "name": "OnlyAlerterError",
      "type": "error"
    },
    {
      "inputs": [],
      "name": "OnlyCDPAccessError",
      "type": "error"
    },
    {
      "inputs": [],
      "name": "OnlyDAOError",
      "type": "error"
    },
    {
      "inputs": [],
      "name": "OnlyDisablerAccessError",
      "type": "error"
    },
    {
      "inputs": [],
      "name": "OnlyLiquidationAccessError",
      "type": "error"
    },
    {
      "inputs": [],
      "name": "OnlyMintAccessError",
      "type": "error"
    },
    {
      "inputs": [],
      "name": "OnlyProxyActionsError",
      "type": "error"
    },
    {
      "inputs": [],
      "name": "OnlyRewardAccessError",
      "type": "error"
    },
    {
      "inputs": [],
      "name": "OnlyRoleError",
      "type": "error"
    },
    {
      "inputs": [],
      "name": "OnlyVaultAccessError",
      "type": "error"
    },
    {
      "inputs": [],
      "name": "OnlyVotingEscrowError",
      "type": "error"
    },
    {
      "inputs": [],
      "name": "onlyAuctionAccessRole",
      "type": "error"
    },
    {
      "anonymous": false,
      "inputs": [],
      "name": "DisableContract",
      "type": "event"
    },
    {
      "anonymous": false,
      "inputs": [
        {
          "indexed": false,
          "internalType": "bytes32",
          "name": "collateralType",
          "type": "bytes32"
        }
      ],
      "name": "InitializeCollateralType",
      "type": "event"
    },
    {
      "anonymous": false,
      "inputs": [
        {
          "indexed": false,
          "internalType": "uint8",
          "name": "version",
          "type": "uint8"
        }
      ],
      "name": "Initialized",
      "type": "event"
    },
    {
      "anonymous": false,
      "inputs": [
        {
          "indexed": false,
          "internalType": "bytes32",
          "name": "collateralType",
          "type": "bytes32"
        },
        {
          "indexed": false,
          "internalType": "bytes32",
          "name": "what",
          "type": "bytes32"
        },
        {
          "indexed": false,
          "internalType": "uint256",
          "name": "data",
          "type": "uint256"
        }
      ],
      "name": "ModifyParameters",
      "type": "event"
    },
    {
      "anonymous": false,
      "inputs": [
        {
          "indexed": false,
          "internalType": "bytes32",
          "name": "what",
          "type": "bytes32"
        },
        {
          "indexed": false,
          "internalType": "uint256",
          "name": "data",
          "type": "uint256"
        }
      ],
      "name": "ModifyParameters",
      "type": "event"
    },
    {
      "anonymous": false,
      "inputs": [
        {
          "indexed": false,
          "internalType": "bytes32",
          "name": "what",
          "type": "bytes32"
        },
        {
          "indexed": false,
          "internalType": "address",
          "name": "data",
          "type": "address"
        }
      ],
      "name": "ModifyParameters",
      "type": "event"
    },
    {
      "anonymous": false,
      "inputs": [
        {
          "indexed": false,
          "internalType": "bytes32",
          "name": "collateralType",
          "type": "bytes32"
        },
        {
          "indexed": false,
          "internalType": "uint256",
          "name": "rate",
          "type": "uint256"
        }
      ],
      "name": "TaxSingle",
      "type": "event"
    },
    {
      "inputs": [],
      "name": "ACCESS_CONTROL_SINGLETON",
      "outputs": [
        {
          "internalType": "contract ISuAccessControl",
          "name": "",
          "type": "address"
        }
      ],
      "stateMutability": "view",
      "type": "function"
    },
    {
      "inputs": [],
      "name": "ADMIN_ROLE",
      "outputs": [
        {
          "internalType": "bytes32",
          "name": "",
          "type": "bytes32"
        }
      ],
      "stateMutability": "view",
      "type": "function"
    },
    {
      "inputs": [],
      "name": "ALERTER_ROLE",
      "outputs": [
        {
          "internalType": "bytes32",
          "name": "",
          "type": "bytes32"
        }
      ],
      "stateMutability": "view",
      "type": "function"
    },
    {
      "inputs": [],
      "name": "AUCTION_ACCESS_ROLE",
      "outputs": [
        {
          "internalType": "bytes32",
          "name": "",
          "type": "bytes32"
        }
      ],
      "stateMutability": "view",
      "type": "function"
    },
    {
      "inputs": [],
      "name": "CDP_ACCESS_ROLE",
      "outputs": [
        {
          "internalType": "bytes32",
          "name": "",
          "type": "bytes32"
        }
      ],
      "stateMutability": "view",
      "type": "function"
    },
    {
      "inputs": [],
      "name": "DAO_ROLE",
      "outputs": [
        {
          "internalType": "bytes32",
          "name": "",
          "type": "bytes32"
        }
      ],
      "stateMutability": "view",
      "type": "function"
    },
    {
      "inputs": [],
      "name": "DISABLER_ROLE",
      "outputs": [
        {
          "internalType": "bytes32",
          "name": "",
          "type": "bytes32"
        }
      ],
      "stateMutability": "view",
      "type": "function"
    },
    {
      "inputs": [],
      "name": "LIQUIDATION_ACCESS_ROLE",
      "outputs": [
        {
          "internalType": "bytes32",
          "name": "",
          "type": "bytes32"
        }
      ],
      "stateMutability": "view",
      "type": "function"
    },
    {
      "inputs": [],
      "name": "MINT_ACCESS_ROLE",
      "outputs": [
        {
          "internalType": "bytes32",
          "name": "",
          "type": "bytes32"
        }
      ],
      "stateMutability": "view",
      "type": "function"
    },
    {
      "inputs": [],
      "name": "PROXY_ACTIONS_ROLE",
      "outputs": [
        {
          "internalType": "bytes32",
          "name": "",
          "type": "bytes32"
        }
      ],
      "stateMutability": "view",
      "type": "function"
    },
    {
      "inputs": [],
      "name": "REWARD_ACCESS_ROLE",
      "outputs": [
        {
          "internalType": "bytes32",
          "name": "",
          "type": "bytes32"
        }
      ],
      "stateMutability": "view",
      "type": "function"
    },
    {
      "inputs": [],
      "name": "VOTING_ESCROW_ROLE",
      "outputs": [
        {
          "internalType": "bytes32",
          "name": "",
          "type": "bytes32"
        }
      ],
      "stateMutability": "view",
      "type": "function"
    },
    {
      "inputs": [],
      "name": "base",
      "outputs": [
        {
          "internalType": "uint256",
          "name": "",
          "type": "uint256"
        }
      ],
      "stateMutability": "view",
      "type": "function"
    },
    {
      "inputs": [
        {
          "internalType": "bytes32",
          "name": "",
          "type": "bytes32"
        }
      ],
      "name": "collateralTypes",
      "outputs": [
        {
          "internalType": "uint256",
          "name": "stabilityFee",
          "type": "uint256"
        },
        {
          "internalType": "uint256",
          "name": "latestUpdateTime",
          "type": "uint256"
        }
      ],
      "stateMutability": "view",
      "type": "function"
    },
    {
      "inputs": [],
      "name": "contractEnabled",
      "outputs": [
        {
          "internalType": "uint256",
          "name": "",
          "type": "uint256"
        }
      ],
      "stateMutability": "view",
      "type": "function"
    },
    {
      "inputs": [],
      "name": "disableContract",
      "outputs": [],
      "stateMutability": "nonpayable",
      "type": "function"
    },
    {
      "inputs": [
        {
          "internalType": "address",
          "name": "accessControl",
          "type": "address"
        },
        {
          "internalType": "address",
          "name": "safeEngine_",
          "type": "address"
        }
      ],
      "name": "initialize",
      "outputs": [],
      "stateMutability": "nonpayable",
      "type": "function"
    },
    {
      "inputs": [
        {
          "internalType": "bytes32",
          "name": "collateralType",
          "type": "bytes32"
        }
      ],
      "name": "initializeCollateralType",
      "outputs": [],
      "stateMutability": "nonpayable",
      "type": "function"
    },
    {
      "inputs": [
        {
          "internalType": "bytes32",
          "name": "what",
          "type": "bytes32"
        },
        {
          "internalType": "address",
          "name": "data",
          "type": "address"
        }
      ],
      "name": "modifyParameters",
      "outputs": [],
      "stateMutability": "nonpayable",
      "type": "function"
    },
    {
      "inputs": [
        {
          "internalType": "bytes32",
          "name": "collateralType",
          "type": "bytes32"
        },
        {
          "internalType": "bytes32",
          "name": "what",
          "type": "bytes32"
        },
        {
          "internalType": "uint256",
          "name": "data",
          "type": "uint256"
        }
      ],
      "name": "modifyParameters",
      "outputs": [],
      "stateMutability": "nonpayable",
      "type": "function"
    },
    {
      "inputs": [
        {
          "internalType": "bytes32",
          "name": "what",
          "type": "bytes32"
        },
        {
          "internalType": "uint256",
          "name": "data",
          "type": "uint256"
        }
      ],
      "name": "modifyParameters",
      "outputs": [],
      "stateMutability": "nonpayable",
      "type": "function"
    },
    {
      "inputs": [],
      "name": "primaryTaxReceiver",
      "outputs": [
        {
          "internalType": "address",
          "name": "",
          "type": "address"
        }
      ],
      "stateMutability": "view",
      "type": "function"
    },
    {
      "inputs": [],
      "name": "safeEngine",
      "outputs": [
        {
          "internalType": "contract ISafeEngine",
          "name": "",
          "type": "address"
        }
      ],
      "stateMutability": "view",
      "type": "function"
    },
    {
      "inputs": [
        {
          "internalType": "bytes4",
          "name": "interfaceId",
          "type": "bytes4"
        }
      ],
      "name": "supportsInterface",
      "outputs": [
        {
          "internalType": "bool",
          "name": "",
          "type": "bool"
        }
      ],
      "stateMutability": "view",
      "type": "function"
    },
    {
      "inputs": [
        {
          "internalType": "bytes32",
          "name": "collateralType",
          "type": "bytes32"
        }
      ],
      "name": "taxSingle",
      "outputs": [
        {
          "internalType": "uint256",
          "name": "rate",
          "type": "uint256"
        }
      ],
      "stateMutability": "nonpayable",
      "type": "function"
    }
  ],
  "numDeployments": 1,
  "solcInputHash": "8f84b6f1e4072e92a972e80f9a9e23c6",
  "bytecode": "0x608060405234801561001057600080fd5b5061001961001e565b6100dd565b600054610100900460ff161561008a5760405162461bcd60e51b815260206004820152602760248201527f496e697469616c697a61626c653a20636f6e747261637420697320696e697469604482015266616c697a696e6760c81b606482015260840160405180910390fd5b60005460ff908116146100db576000805460ff191660ff9081179091556040519081527f7f26b83ff96e1f2b6a682f133852f6798a09c465da95921460cefb38474024989060200160405180910390a15b565b6112b7806100ec6000396000f3fe608060405234801561001057600080fd5b50600436106101335760003560e01c806301ffc9a71461013857806303ee9f2214610160578063340517c91461019157806341b3a0d9146101c6578063438280dd146101cf578063485cc955146101f65780635001f3b51461020b578063542f76a6146102145780635e412858146102275780636614f0101461023a57806367aea3131461024d5780636c50dbba1461026057806371d0fb411461027357806375b238fc1461029a578063894ba833146102a25780638e5313e0146102aa578063b38234f3146102d1578063bd5f5be6146102f8578063d07900bb1461031f578063d0e8fa821461035b578063d2351cee14610382578063d4b9311d14610397578063dc97e84e146103aa578063e9c26518146103d1578063fe4f5890146103e6575b600080fd5b61014b610146366004611012565b6103f9565b60405190151581526020015b60405180910390f35b600054610179906201000090046001600160a01b031681565b6040516001600160a01b039091168152602001610157565b6101b87f014f8da3222812608c449a44f4705585c5ce052eeb6f9af0af9209c64b0ba2de81565b604051908152602001610157565b6101b860375481565b6101b87f39f61ca2a1a28fee144218173ec637b649a353e4026b2738c673800e5bf1437b81565b610209610204366004611051565b610476565b005b6101b860365481565b603554610179906001600160a01b031681565b61020961023536600461108a565b6105ab565b6102096102483660046110a3565b6106fa565b603454610179906001600160a01b031681565b6101b861026e36600461108a565b61083b565b6101b87f880a91047114272656e533301261260c75e4d11543ac7303d6fe4204579ec72781565b6101b8600081565b610209610a5e565b6101b87fe453bacb314e78dcd5192e6b1a2b1f0e7c76e92f6b7e429a6a90f04e39db3b7681565b6101b87fd83f5343da19b478b15a140c301a868be9e02603958f38fbd822b9d5c0a2891681565b6101b87f4f14c8366fa999817edc9f29824eb88a00cc31225e2156f399da4bc91049eb1081565b61034661032d36600461108a565b6033602052600090815260409020805460019091015482565b60408051928352602083019190915201610157565b6101b87f76d0567582f23e1e9d7a13eeba60f9aea9d69b8da87ca27a8bf3698b35c653db81565b6101b860008051602061128b83398151915281565b6102096103a53660046110c8565b610b31565b6101b87f9a9aef7c1247d5fc769b0185c052913e39673da29a880317dfd20ebf86f26a4981565b6101b860008051602061126b83398151915281565b6102096103f43660046110f4565b610cab565b600080546040516301ffc9a760e01b8152620100009091046001600160a01b0316906301ffc9a79061042f908590600401611116565b602060405180830381865afa15801561044c573d6000803e3d6000fd5b505050506040513d601f19601f82011682018060405250810190610470919061112b565b92915050565b600054610100900460ff16158080156104965750600054600160ff909116105b806104b05750303b1580156104b0575060005460ff166001145b6105185760405162461bcd60e51b815260206004820152602e60248201527f496e697469616c697a61626c653a20636f6e747261637420697320616c72656160448201526d191e481a5b9a5d1a585b1a5e995960921b60648201526084015b60405180910390fd5b6000805460ff19166001179055801561053b576000805461ff0019166101001790555b61054483610d97565b603480546001600160a01b0319166001600160a01b03841617905580156105a6576000805461ff0019169055604051600181527f7f26b83ff96e1f2b6a682f133852f6798a09c465da95921460cefb3847402498906020015b60405180910390a15b505050565b60008054604051632474521560e21b8152620100009091046001600160a01b0316916391d14854916105e29190339060040161114d565b602060405180830381865afa1580156105ff573d6000803e3d6000fd5b505050506040513d601f19601f82011682018060405250810190610623919061112b565b61064057604051631886ea7d60e11b815260040160405180910390fd5b60008181526033602052604090208054156106ae5760405162461bcd60e51b815260206004820152602860248201527f546178436f6c6c6563746f722f636f6c6c61746572616c547970652d616c726560448201526718591e4b5a5b9a5d60c21b606482015260840161050f565b676765c793fa10079d601b1b81554260018201556040518281527f715b265758bcd4ecd311bede8dcca05c4b5819e0a2a5c4103abd702862ae2c35906020015b60405180910390a15050565b600054604051632474521560e21b8152620100009091046001600160a01b0316906391d148549061073f9060008051602061126b83398151915290339060040161114d565b602060405180830381865afa15801561075c573d6000803e3d6000fd5b505050506040513d601f19601f82011682018060405250810190610780919061112b565b61079d5760405163599a6c3360e11b815260040160405180910390fd5b8171383934b6b0b93caa30bc2932b1b2b4bb32b960711b036107da57603580546001600160a01b0383166001600160a01b03199091161790555050565b60405162461bcd60e51b815260206004820152603060248201527f546178436f6c6c6563746f722f6d6f64696679506172616d65746572732d756e60448201526f7265636f676e697a65642d706172616d60801b606482015260840161050f565b6000818152603360205260408120600101544210156108a85760405162461bcd60e51b8152602060048201526024808201527f546178436f6c6c6563746f722f696e76616c69642d626c6f636b2d74696d6573604482015263074616d760e41b606482015260840161050f565b60345460405163d07900bb60e01b8152600481018490526000916001600160a01b03169063d07900bb9060240161010060405180830381865afa1580156108f3573d6000803e3d6000fd5b505050506040513d601f19601f820116820180604052508101906109179190611164565b50505050505091505061097b6109756109486036546033600088815260200190815260200160002060000154610ec8565b60008681526033602052604090206001015461096490426111e4565b676765c793fa10079d601b1b610ee3565b82610fa1565b6034546035549193506001600160a01b0390811691630e9e11d3918691166109a38686610fe9565b6040516001600160e01b031960e086901b16815260048101939093526001600160a01b0390911660248301526044820152606401600060405180830381600087803b1580156109f157600080fd5b505af1158015610a05573d6000803e3d6000fd5b5050506000848152603360209081526040918290204260019091015581518681529081018590527f7cecab2e5d11d79e453e5bf34af73584988a24df46ff18477de8ef91f7bf87b392500160405180910390a150919050565b600054604051632474521560e21b8152620100009091046001600160a01b0316906391d1485490610aa39060008051602061128b83398151915290339060040161114d565b602060405180830381865afa158015610ac0573d6000803e3d6000fd5b505050506040513d601f19601f82011682018060405250810190610ae4919061112b565b610b015760405163bb0684b760e01b815260040160405180910390fd5b600060378190556040517f2d4b4ecff7bd7503135271925520a2f6c0d98c9473ffc1a1e72c92502f51b25e9190a1565b600054604051632474521560e21b8152620100009091046001600160a01b0316906391d1485490610b769060008051602061126b83398151915290339060040161114d565b602060405180830381865afa158015610b93573d6000803e3d6000fd5b505050506040513d601f19601f82011682018060405250810190610bb7919061112b565b610bd45760405163599a6c3360e11b815260040160405180910390fd5b6000838152603360205260409020600101544214610c465760405162461bcd60e51b815260206004820152602960248201527f546178436f6c6c6563746f722f6c617465737455706461746554696d652d6e6f6044820152681d0b5d5c19185d195960ba1b606482015260840161050f565b816b73746162696c69747946656560a01b036107da57600083815260336020526040902081905560408051848152602081018490529081018290527fc59b1109b54f213212d2f5af5c1dae5e887f9daa63b595578fae847cb048e8f49060600161059d565b600054604051632474521560e21b8152620100009091046001600160a01b0316906391d1485490610cf09060008051602061126b83398151915290339060040161114d565b602060405180830381865afa158015610d0d573d6000803e3d6000fd5b505050506040513d601f19601f82011682018060405250810190610d31919061112b565b610d4e5760405163599a6c3360e11b815260040160405180910390fd5b81636261736560e01b036107da57603681905560408051838152602081018390527fac7c5c1afaef770ec56ac6268cd3f2fbb1035858ead2601d6553157c33036c3a91016106ee565b600054610100900460ff16610e025760405162461bcd60e51b815260206004820152602b60248201527f496e697469616c697a61626c653a20636f6e7472616374206973206e6f74206960448201526a6e697469616c697a696e6760a81b606482015260840161050f565b6000805462010000600160b01b031916620100006001600160a01b038416908102919091179091551580610ea757506040516301ffc9a760e01b81526001600160a01b038216906301ffc9a790610e6490637965db0b60e01b90600401611116565b602060405180830381865afa158015610e81573d6000803e3d6000fd5b505050506040513d601f19601f82011682018060405250810190610ea5919061112b565b155b15610ec5576040516384d942fd60e01b815260040160405180910390fd5b50565b6000610ed482846111f7565b90508281101561047057600080fd5b6000838015610f8357600184168015610efe57859250610f02565b8392505b50600283046002850494505b8415610f7d578586028687820414610f2557600080fd5b81810181811015610f3557600080fd5b8590049650506001851615610f72578583028387820414158715151615610f5b57600080fd5b81810181811015610f6b57600080fd5b8590049350505b600285049450610f0e565b50610f99565b838015610f935760009250610f97565b8392505b505b509392505050565b6000610fad828461120a565b9050811580610fc4575082610fc28383611221565b145b610fcd57600080fd5b610fe2676765c793fa10079d601b1b82611221565b9392505050565b6000610ff58284611243565b905060008312158015611009575060008212155b61047057600080fd5b60006020828403121561102457600080fd5b81356001600160e01b031981168114610fe257600080fd5b6001600160a01b0381168114610ec557600080fd5b6000806040838503121561106457600080fd5b823561106f8161103c565b9150602083013561107f8161103c565b809150509250929050565b60006020828403121561109c57600080fd5b5035919050565b600080604083850312156110b657600080fd5b82359150602083013561107f8161103c565b6000806000606084860312156110dd57600080fd5b505081359360208301359350604090920135919050565b6000806040838503121561110757600080fd5b50508035926020909101359150565b6001600160e01b031991909116815260200190565b60006020828403121561113d57600080fd5b81518015158114610fe257600080fd5b9182526001600160a01b0316602082015260400190565b600080600080600080600080610100898b03121561118157600080fd5b885197506020890151965060408901519550606089015194506080890151935060a0890151925060c08901516111b68161103c565b8092505060e089015190509295985092959890939650565b634e487b7160e01b600052601160045260246000fd5b81810381811115610470576104706111ce565b80820180821115610470576104706111ce565b8082028115828204841417610470576104706111ce565b60008261123e57634e487b7160e01b600052601260045260246000fd5b500490565b8181036000831280158383131683831282161715611263576112636111ce565b509291505056fe3b5d4cc60d3ec3516ee8ae083bd60934f6eb2a6c54b1229985c41bfb092b2603b0fdd1623e42dbffda4acd8bd643e1cb69f00f0e83abeaa8150ee42cf0fd105ea164736f6c6343000811000a",
  "devdoc": {
    "custom:changes": "Replaced MakerDAOs `authorizedAccounts` with `SuAuthenticated`.                 Removed `LibNote` for event logging, requiring custom events (TODO).                 Added `ITaxCollector` interface and moved `CollateralType` struct there.                 Simplified math functions (`_rpow`, `_rmul`, `_add`, `_diff`) for gas efficiency.",
    "custom:events": "No events are defined; custom events need to be added (as noted in FIXME).                Placeholder events (e.g., `DisableContract`) are included in comments but not defined.",
    "custom:security": "Only authorized accounts (DAO, Admin, DisablerAccess) can modify parameters or disable the contract.                 Fee calculations rely on SafeEngines rate updates, and `taxSingle` requires up-to-date timestamps.                 The contract assumes `primaryTaxReceiver` is a valid address (e.g., AccountingEngine).",
    "custom:usage": "- **Initialization**: Deploy with access control and SafeEngine addresses.   ```solidity   TaxCollector taxCollector = new TaxCollector(accessControlAddress, safeEngineAddress);   ``` - **Collateral Type Setup**: Initialize a collateral types fee parameters.   ```solidity   taxCollector.initializeCollateralType(\"ETH-A\");   ``` - **Fee Collection**: Trigger fee calculation for a collateral type.   ```solidity   uint256 newRate = taxCollector.taxSingle(\"ETH-A\"); // Update fees for ETH-A   ``` - **Parameter Modification**: DAO updates stability fees, base fee, or tax receiver.   ```solidity   taxCollector.modifyParameters(\"ETH-A\", \"stabilityFee\", newFee); // Update collateral fee   taxCollector.modifyParameters(\"base\", newBaseFee); // Update global base fee   taxCollector.modifyParameters(\"primaryTaxReceiver\", newReceiver); // Update tax receiver   ``` - **Disabling**: DisablerAccess accounts can disable the contract.   ```solidity   taxCollector.disableContract(); // Halt operations   ```",
    "details": "Calculates and applies per-second stability fees to Safes, updating accumulated rates in SafeEngine.      Supports a global base fee and per-collateral-type fees, with surplus directed to a primary tax receiver      (e.g., AccountingEngine). Uses SuAuthenticated for access control. Integrates with SafeEngine      to adjust debt balances based on accrued fees. This contract is a fork of MakerDAOs TaxCollector.sol, adapted      for StableUnit with simplified math and custom access control.",
    "kind": "dev",
    "methods": {
      "constructor": {
        "custom:oz-upgrades-unsafe-allow": "constructor"
      },
      "disableContract()": {
        "custom:access": "OnlyDisablerAccess",
        "details": "Sets `contractEnabled` to 0 and emits a placeholder event. Only callable by DisablerAccess accounts."
      },
      "initialize(address,address)": {
        "details": "Sets the SafeEngine reference and inherits access control from SuAuthenticated.",
        "params": {
          "accessControl": "Address of the access control singleton contract.",
          "safeEngine_": "Address of the SafeEngine contract."
        }
      },
      "initializeCollateralType(bytes32)": {
        "custom:access": "OnlyAdmin",
        "details": "Sets initial stability fee to ONE (no fee) and records the current timestamp.      Reverts if already initialized. Only callable by Admin.",
        "params": {
          "collateralType": "Unique identifier for the collateral type (e.g., \"ETH-A\")."
        }
      },
      "modifyParameters(bytes32,address)": {
        "custom:access": "OnlyDAO",
        "details": "Updates the address receiving collected fees (e.g., AccountingEngine). Only callable by DAO.",
        "params": {
          "data": "New receiver address.",
          "what": "Parameter to modify (must be \"primaryTaxReceiver\")."
        }
      },
      "modifyParameters(bytes32,bytes32,uint256)": {
        "custom:access": "OnlyDAO",
        "details": "Updates the stability fee, requiring the collateral types timestamp to be up-to-date.      Only callable by DAO.",
        "params": {
          "collateralType": "Unique identifier for the collateral type.",
          "data": "New stability fee value [ray].",
          "what": "Parameter to modify (must be \"stabilityFee\")."
        }
      },
      "modifyParameters(bytes32,uint256)": {
        "custom:access": "OnlyDAO",
        "details": "Updates the global base stability fee. Only callable by DAO.",
        "params": {
          "data": "New base fee value [ray].",
          "what": "Parameter to modify (must be \"base\")."
        }
      },
      "supportsInterface(bytes4)": {
        "details": "Returns true if this contract implements the interface defined by `interfaceId`. See the corresponding https://eips.ethereum.org/EIPS/eip-165#how-interfaces-are-identified[EIP section] to learn more about how these ids are created. This function call must use less than 30 000 gas."
      },
      "taxSingle(bytes32)": {
        "details": "Calculates the new accumulated rate based on elapsed time and combined stability fees      (base + collateral-specific). Updates SafeEngine and records the current timestamp.",
        "params": {
          "collateralType": "Unique identifier for the collateral type."
        },
        "returns": {
          "rate": "New accumulated rate for the collateral type [ray]."
        }
      }
    },
    "title": "TaxCollector",
    "version": 1
  },
  "userdoc": {
    "kind": "user",
    "methods": {
      "base()": {
        "notice": "Global per-second stability fee contribution applied to all collateral types [ray]."
      },
      "collateralTypes(bytes32)": {
        "notice": "Maps collateral types to their stability fee configurations."
      },
      "contractEnabled()": {
        "notice": "Tracks whether the contract is enabled (0) or disabled (non-zero)."
      },
      "disableContract()": {
        "notice": "Disables the contract, preventing further state-changing operations."
      },
      "initialize(address,address)": {
        "notice": "Initializes the TaxCollector with access control and SafeEngine addresses."
      },
      "initializeCollateralType(bytes32)": {
        "notice": "Initializes a new collateral type for stability fee collection."
      },
      "modifyParameters(bytes32,address)": {
        "notice": "Modifies the primary tax receiver address."
      },
      "modifyParameters(bytes32,bytes32,uint256)": {
        "notice": "Modifies stability fee for a specific collateral type."
      },
      "modifyParameters(bytes32,uint256)": {
        "notice": "Modifies global protocol parameters."
      },
      "primaryTaxReceiver()": {
        "notice": "Address receiving collected stability fees (e.g., AccountingEngine)."
      },
      "safeEngine()": {
        "notice": "Reference to the SafeEngine contract for rate updates."
      },
      "taxSingle(bytes32)": {
        "notice": "Collects stability fees for a collateral type and updates SafeEngine rates."
      }
    },
    "notice": "Manages stability fees for collateral types in the StableUnit protocol.",
    "version": 1
  },
  "storageLayout": {
    "storage": [
      {
        "astId": 1226,
        "contract": "contracts/makerdao/core/TaxCollector.sol:TaxCollector",
        "label": "_initialized",
        "offset": 0,
        "slot": "0",
        "type": "t_uint8"
      },
      {
        "astId": 1229,
        "contract": "contracts/makerdao/core/TaxCollector.sol:TaxCollector",
        "label": "_initializing",
        "offset": 1,
        "slot": "0",
        "type": "t_bool"
      },
      {
        "astId": 25605,
        "contract": "contracts/makerdao/core/TaxCollector.sol:TaxCollector",
        "label": "ACCESS_CONTROL_SINGLETON",
        "offset": 2,
        "slot": "0",
        "type": "t_contract(ISuAccessControl)32864"
      },
      {
        "astId": 25893,
        "contract": "contracts/makerdao/core/TaxCollector.sol:TaxCollector",
        "label": "__gap",
        "offset": 0,
        "slot": "1",
        "type": "t_array(t_uint256)50_storage"
      },
      {
        "astId": 90186,
        "contract": "contracts/makerdao/core/TaxCollector.sol:TaxCollector",
        "label": "collateralTypes",
        "offset": 0,
        "slot": "51",
        "type": "t_mapping(t_bytes32,t_struct(CollateralType)97388_storage)"
      },
      {
        "astId": 90190,
        "contract": "contracts/makerdao/core/TaxCollector.sol:TaxCollector",
        "label": "safeEngine",
        "offset": 0,
        "slot": "52",
        "type": "t_contract(ISafeEngine)97348"
      },
      {
        "astId": 90193,
        "contract": "contracts/makerdao/core/TaxCollector.sol:TaxCollector",
        "label": "primaryTaxReceiver",
        "offset": 0,
        "slot": "53",
        "type": "t_address"
      },
      {
        "astId": 90196,
        "contract": "contracts/makerdao/core/TaxCollector.sol:TaxCollector",
        "label": "base",
        "offset": 0,
        "slot": "54",
        "type": "t_uint256"
      },
      {
        "astId": 90228,
        "contract": "contracts/makerdao/core/TaxCollector.sol:TaxCollector",
        "label": "contractEnabled",
        "offset": 0,
        "slot": "55",
        "type": "t_uint256"
      }
    ],
    "types": {
      "t_address": {
        "encoding": "inplace",
        "label": "address",
        "numberOfBytes": "20"
      },
      "t_array(t_uint256)50_storage": {
        "base": "t_uint256",
        "encoding": "inplace",
        "label": "uint256[50]",
        "numberOfBytes": "1600"
      },
      "t_bool": {
        "encoding": "inplace",
        "label": "bool",
        "numberOfBytes": "1"
      },
      "t_bytes32": {
        "encoding": "inplace",
        "label": "bytes32",
        "numberOfBytes": "32"
      },
      "t_contract(ISafeEngine)97348": {
        "encoding": "inplace",
        "label": "contract ISafeEngine",
        "numberOfBytes": "20"
      },
      "t_contract(ISuAccessControl)32864": {
        "encoding": "inplace",
        "label": "contract ISuAccessControl",
        "numberOfBytes": "20"
      },
      "t_mapping(t_bytes32,t_struct(CollateralType)97388_storage)": {
        "encoding": "mapping",
        "key": "t_bytes32",
        "label": "mapping(bytes32 => struct ITaxCollector.CollateralType)",
        "numberOfBytes": "32",
        "value": "t_struct(CollateralType)97388_storage"
      },
      "t_struct(CollateralType)97388_storage": {
        "encoding": "inplace",
        "label": "struct ITaxCollector.CollateralType",
        "members": [
          {
            "astId": 97385,
            "contract": "contracts/makerdao/core/TaxCollector.sol:TaxCollector",
            "label": "stabilityFee",
            "offset": 0,
            "slot": "0",
            "type": "t_uint256"
          },
          {
            "astId": 97387,
            "contract": "contracts/makerdao/core/TaxCollector.sol:TaxCollector",
            "label": "latestUpdateTime",
            "offset": 0,
            "slot": "1",
            "type": "t_uint256"
          }
        ],
        "numberOfBytes": "64"
      },
      "t_uint256": {
        "encoding": "inplace",
        "label": "uint256",
        "numberOfBytes": "32"
      },
      "t_uint8": {
        "encoding": "inplace",
        "label": "uint8",
        "numberOfBytes": "1"
      }
    }
  }
}