{
  "address": "0xC105FD5b152018355246fa1f2457c39663f1d39b",
  "abi": [
    {
      "inputs": [
        {
          "internalType": "address",
          "name": "_veToken",
          "type": "address"
        }
      ],
      "stateMutability": "nonpayable",
      "type": "constructor"
    },
    {
      "inputs": [],
      "name": "AlreadyInTop",
      "type": "error"
    },
    {
      "inputs": [],
      "name": "AmountMustBeMoreThatMinimum",
      "type": "error"
    },
    {
      "inputs": [
        {
          "internalType": "uint256",
          "name": "available",
          "type": "uint256"
        },
        {
          "internalType": "uint256",
          "name": "requested",
          "type": "uint256"
        }
      ],
      "name": "InsufficientStake",
      "type": "error"
    },
    {
      "inputs": [],
      "name": "InvalidAddress",
      "type": "error"
    },
    {
      "inputs": [],
      "name": "LockExpired",
      "type": "error"
    },
    {
      "inputs": [],
      "name": "NotStakerFound",
      "type": "error"
    },
    {
      "inputs": [],
      "name": "OnlyAdminError",
      "type": "error"
    },
    {
      "inputs": [],
      "name": "OutOfBounds",
      "type": "error"
    },
    {
      "inputs": [],
      "name": "SubscriptionDelayError",
      "type": "error"
    },
    {
      "inputs": [],
      "name": "TokensDelegated",
      "type": "error"
    },
    {
      "anonymous": false,
      "inputs": [
        {
          "indexed": false,
          "internalType": "uint256",
          "name": "newAmount",
          "type": "uint256"
        }
      ],
      "name": "MinStakingAmountUpdated",
      "type": "event"
    },
    {
      "anonymous": false,
      "inputs": [
        {
          "indexed": true,
          "internalType": "address",
          "name": "previousOwner",
          "type": "address"
        },
        {
          "indexed": true,
          "internalType": "address",
          "name": "newOwner",
          "type": "address"
        }
      ],
      "name": "OwnershipTransferStarted",
      "type": "event"
    },
    {
      "anonymous": false,
      "inputs": [
        {
          "indexed": true,
          "internalType": "address",
          "name": "previousOwner",
          "type": "address"
        },
        {
          "indexed": true,
          "internalType": "address",
          "name": "newOwner",
          "type": "address"
        }
      ],
      "name": "OwnershipTransferred",
      "type": "event"
    },
    {
      "anonymous": false,
      "inputs": [
        {
          "indexed": false,
          "internalType": "uint256",
          "name": "newDelay",
          "type": "uint256"
        }
      ],
      "name": "SubscriptionDelayUpdated",
      "type": "event"
    },
    {
      "anonymous": false,
      "inputs": [
        {
          "indexed": false,
          "internalType": "address",
          "name": "user",
          "type": "address"
        }
      ],
      "name": "SubscriptionRemoved",
      "type": "event"
    },
    {
      "anonymous": false,
      "inputs": [
        {
          "indexed": true,
          "internalType": "address",
          "name": "user",
          "type": "address"
        },
        {
          "indexed": false,
          "internalType": "uint256",
          "name": "amount",
          "type": "uint256"
        },
        {
          "indexed": false,
          "internalType": "uint256",
          "name": "activationTime",
          "type": "uint256"
        }
      ],
      "name": "SubscriptionRequested",
      "type": "event"
    },
    {
      "anonymous": false,
      "inputs": [
        {
          "indexed": false,
          "internalType": "uint256",
          "name": "newTopStakersCount",
          "type": "uint256"
        }
      ],
      "name": "TopStakersMaxCountUpdated",
      "type": "event"
    },
    {
      "anonymous": false,
      "inputs": [
        {
          "indexed": false,
          "internalType": "address",
          "name": "_veToken",
          "type": "address"
        }
      ],
      "name": "VeTokenUpdated",
      "type": "event"
    },
    {
      "inputs": [],
      "name": "acceptOwnership",
      "outputs": [],
      "stateMutability": "nonpayable",
      "type": "function"
    },
    {
      "inputs": [],
      "name": "admin",
      "outputs": [
        {
          "internalType": "address",
          "name": "",
          "type": "address"
        }
      ],
      "stateMutability": "view",
      "type": "function"
    },
    {
      "inputs": [
        {
          "internalType": "uint256",
          "name": "newMaxTopStakersCount",
          "type": "uint256"
        }
      ],
      "name": "changeMaxTopStakersCount",
      "outputs": [],
      "stateMutability": "nonpayable",
      "type": "function"
    },
    {
      "inputs": [
        {
          "internalType": "uint256",
          "name": "_minStakingAmount",
          "type": "uint256"
        }
      ],
      "name": "changeMinStakingAmount",
      "outputs": [],
      "stateMutability": "nonpayable",
      "type": "function"
    },
    {
      "inputs": [
        {
          "internalType": "uint256",
          "name": "newDelay",
          "type": "uint256"
        }
      ],
      "name": "changeSubscriptionDelay",
      "outputs": [],
      "stateMutability": "nonpayable",
      "type": "function"
    },
    {
      "inputs": [
        {
          "internalType": "address",
          "name": "_veToken",
          "type": "address"
        }
      ],
      "name": "changeVeToken",
      "outputs": [],
      "stateMutability": "nonpayable",
      "type": "function"
    },
    {
      "inputs": [
        {
          "internalType": "uint256",
          "name": "index",
          "type": "uint256"
        }
      ],
      "name": "getStakerAt",
      "outputs": [
        {
          "internalType": "address",
          "name": "",
          "type": "address"
        }
      ],
      "stateMutability": "view",
      "type": "function"
    },
    {
      "inputs": [
        {
          "internalType": "address",
          "name": "user",
          "type": "address"
        }
      ],
      "name": "getTimeUntilNextSubscribe",
      "outputs": [
        {
          "internalType": "uint256",
          "name": "",
          "type": "uint256"
        }
      ],
      "stateMutability": "view",
      "type": "function"
    },
    {
      "inputs": [],
      "name": "getTopStakers",
      "outputs": [
        {
          "internalType": "address[]",
          "name": "",
          "type": "address[]"
        }
      ],
      "stateMutability": "view",
      "type": "function"
    },
    {
      "inputs": [],
      "name": "getTopStakersLength",
      "outputs": [
        {
          "internalType": "uint256",
          "name": "",
          "type": "uint256"
        }
      ],
      "stateMutability": "view",
      "type": "function"
    },
    {
      "inputs": [
        {
          "internalType": "address",
          "name": "",
          "type": "address"
        }
      ],
      "name": "isStaker",
      "outputs": [
        {
          "internalType": "bool",
          "name": "",
          "type": "bool"
        }
      ],
      "stateMutability": "view",
      "type": "function"
    },
    {
      "inputs": [
        {
          "internalType": "address",
          "name": "staker",
          "type": "address"
        }
      ],
      "name": "isTopStaker",
      "outputs": [
        {
          "internalType": "bool",
          "name": "",
          "type": "bool"
        }
      ],
      "stateMutability": "view",
      "type": "function"
    },
    {
      "inputs": [
        {
          "internalType": "address",
          "name": "",
          "type": "address"
        }
      ],
      "name": "lastOperationTime",
      "outputs": [
        {
          "internalType": "uint256",
          "name": "",
          "type": "uint256"
        }
      ],
      "stateMutability": "view",
      "type": "function"
    },
    {
      "inputs": [],
      "name": "maxTopStakersCount",
      "outputs": [
        {
          "internalType": "uint256",
          "name": "",
          "type": "uint256"
        }
      ],
      "stateMutability": "view",
      "type": "function"
    },
    {
      "inputs": [],
      "name": "minStakingAmount",
      "outputs": [
        {
          "internalType": "uint256",
          "name": "",
          "type": "uint256"
        }
      ],
      "stateMutability": "view",
      "type": "function"
    },
    {
      "inputs": [],
      "name": "owner",
      "outputs": [
        {
          "internalType": "address",
          "name": "",
          "type": "address"
        }
      ],
      "stateMutability": "view",
      "type": "function"
    },
    {
      "inputs": [],
      "name": "pendingOwner",
      "outputs": [
        {
          "internalType": "address",
          "name": "",
          "type": "address"
        }
      ],
      "stateMutability": "view",
      "type": "function"
    },
    {
      "inputs": [],
      "name": "renounceOwnership",
      "outputs": [],
      "stateMutability": "nonpayable",
      "type": "function"
    },
    {
      "inputs": [],
      "name": "subscribe",
      "outputs": [],
      "stateMutability": "nonpayable",
      "type": "function"
    },
    {
      "inputs": [],
      "name": "subscriptionDelay",
      "outputs": [
        {
          "internalType": "uint256",
          "name": "",
          "type": "uint256"
        }
      ],
      "stateMutability": "view",
      "type": "function"
    },
    {
      "inputs": [
        {
          "internalType": "uint256",
          "name": "",
          "type": "uint256"
        }
      ],
      "name": "topStakers",
      "outputs": [
        {
          "internalType": "address",
          "name": "",
          "type": "address"
        }
      ],
      "stateMutability": "view",
      "type": "function"
    },
    {
      "inputs": [
        {
          "internalType": "address",
          "name": "newOwner",
          "type": "address"
        }
      ],
      "name": "transferOwnership",
      "outputs": [],
      "stateMutability": "nonpayable",
      "type": "function"
    },
    {
      "inputs": [],
      "name": "unsubscribe",
      "outputs": [],
      "stateMutability": "nonpayable",
      "type": "function"
    },
    {
      "inputs": [],
      "name": "veToken",
      "outputs": [
        {
          "internalType": "contract IVeToken",
          "name": "",
          "type": "address"
        }
      ],
      "stateMutability": "view",
      "type": "function"
    }
  ],
  "transactionHash": "0xe20e6075ba6daeecd4ca4c3d2337b41c9bd3401548b510a0057e0ce53bfc7472",
  "args": [
    "0xC70A852B717E9977f56812A5F585C3ddba051C83"
  ],
  "numDeployments": 1,
  "solcInputHash": "8c060bc8c39a7272c2849a174b3b4791",
  "bytecode": "0x6080346100bd57601f61108238819003918201601f19168301916001600160401b038311848410176100c2578084926020946040528339810103126100bd57516001600160a01b0390818116908190036100bd5760018060a01b031980600154166001556000543382821617600055604051933391167f8be0079c531659141344cd1fd0a4f28419497f9722a3daafe3b4186f6b6457e0600080a3600754161760075560056004556000600555601e600655610fa990816100d98239f35b600080fd5b634e487b7160e01b600052604160045260246000fdfe6040608081526004908136101561001557600080fd5b600091823560e01c806303287e681461079c57806325c065b11461077d5780632f81e7dc146107345780633841c5bf146106c75780633b92eb231461069e5780634375995d1461065157806347e344531461060457806349343e58146105e55780636f1e8533146105a757806370bb9a25146104f4578063715018a6146104a157806379ba5097146103f357806386d90a3b146103bc578063881444e41461039f5780638da5cb5b146103775780638f449a051461033e578063aeda8a0e146102f1578063af0ec6221461029d578063c4e4a93b1461027e578063df408f6314610245578063e30c39781461021c578063f2fde38b146101b1578063f851a440146101845763fcae44841461012957600080fd5b3461018057826003193601126101805733835260086020526101518284205460065490610885565b421115610172575061016233610d3e565b3382526008602052429082205580f35b9051636531741760e11b8152fd5b8280fd5b5050346101ad57816003193601126101ad5760025490516001600160a01b039091168152602090f35b5080fd5b8382346101ad5760203660031901126101ad57356001600160a01b0381811691829003610180576101e0610806565b600180546001600160a01b031916831790558254167f38d16b8cac22d99fc7c124b9cd0de2d3fa1faef420bfe791d8c362d765e227008380a380f35b5050346101ad57816003193601126101ad5760015490516001600160a01b039091168152602090f35b503461018057602036600319011261018057356001600160a01b0381169081900361018057828291602094526008845220549051908152f35b5050346101ad57816003193601126101ad576020906003549051908152f35b5091346102ee5760203660031901126102ee57508135916003548310156102e057506102ca6020926107d5565b60018060a01b0391549060031b1c169051908152f35b9051632d0483c560e21b8152fd5b80fd5b50903461018057602036600319011261018057816020917f3d40087ff6d355881a2a7a86182db160de1ad371030bb8dee729bdc6bda2fabd93358092610335610806565b5551908152a180f35b503461018057826003193601126101805733835260086020526103678284205460065490610885565b4211156101725750610162610960565b5050346101ad57816003193601126101ad57905490516001600160a01b039091168152602090f35b503461018057826003193601126101805760209250549051908152f35b50346101805760203660031901126101805735916001600160a01b03831683036102ee57506103ec602092610eb4565b9051908152f35b509034610180578260031936011261018057600154916001600160a01b0391338385160361044c5750506001600160a01b03199182166001558254339281168317845516600080516020610f348339815191528380a380f35b906020608492519162461bcd60e51b8352820152602960248201527f4f776e61626c6532537465703a2063616c6c6572206973206e6f7420746865206044820152683732bb9037bbb732b960b91b6064820152fd5b83346102ee57806003193601126102ee576104ba610806565b600180546001600160a01b03199081169091558154908116825581906001600160a01b0316600080516020610f348339815191528280a380f35b8284346102ee57806003193601126102ee57815160038054808352908352602093928483019290918390600080516020610ef483398151915290845b81811061058a57505050816105469103826108a8565b83519485948186019282875251809352850193925b82811061056a57505050500390f35b83516001600160a01b03168552869550938101939281019260010161055b565b82546001600160a01b031684529288019260019283019201610530565b503461018057602036600319011261018057356001600160a01b0381169081900361018057818360ff92602095526009855220541690519015158152f35b5050346101ad57816003193601126101ad576020906006549051908152f35b5034610180576020366003190112610180577f780cc0ee7c9e6c05fffa560430aabec2e8ef7ba9f9a0e11d1376e64ef2bea7e8916020913590610645610806565b8160065551908152a180f35b5034610180576020366003190112610180577f2748911faa6f8a67432c2dd95d1d0d301a81b8508c37d54cd2617508fb5f8bba916020913590610692610806565b8160055551908152a180f35b5050346101ad57816003193601126101ad5760075490516001600160a01b039091168152602090f35b503461018057602036600319011261018057356001600160a01b0381169190829003610180577fa1c3cf7bf4208f773afa5e259d7bdaad59909b4c5bf62a0c5e4be44ef47c33139160209161071a610806565b600780546001600160a01b0319168317905551908152a180f35b50346101805760203660031901126101805735600354811015610180576003909252600080516020610ef48339815191529091015490516001600160a01b039091168152602090f35b5050346101ad57816003193601126101ad576020906005549051908152f35b50346101805760203660031901126101805735916001600160a01b03831683036102ee57506107cc602092610e62565b90519015158152f35b6003548110156107f057600360005260206000200190600090565b634e487b7160e01b600052603260045260246000fd5b6000546001600160a01b0316330361081a57565b606460405162461bcd60e51b815260206004820152602060248201527f4f776e61626c653a2063616c6c6572206973206e6f7420746865206f776e65726044820152fd5b80546001600160a01b0360039390931b83811b80199092169390941690931b909216179055565b9190820180921161089257565b634e487b7160e01b600052601160045260246000fd5b601f909101601f19168101906001600160401b038211908210176108cb57604052565b634e487b7160e01b600052604160045260246000fd5b519081600f0b82036108ef57565b600080fd5b908160809103126108ef576040519060808201906001600160401b038211838310176108cb57606091604052610929816108e1565b8352610937602082016108e1565b60208401526040818101519084015201516001600160a01b03811681036108ef57606082015290565b6007546040805163cbf9fe5f60e01b81523360048083019190915290926001600160a01b0390811691608085602481865afa948515610ba557600095610b75575b5083519485936370a0823160e01b8552338386015284602460209687935afa958615610b6a57600096610b3b575b50600554861115610b2c57848101514211610b1d576060015182168015159081610b12575b50610b04576003549080548210610a9557505090600080516020610f14833981519152929181610a2333610bbf565b8711610a53575b505050336000526009815281600020600160ff19825416179055815193845242908401523392a2565b600080516020610f54833981519152610a8692610a8d94610a73846107d5565b90549060031b1c168751908152a16107d5565b339161085e565b388181610a2a565b909150600160401b821015610aef575090610ac9610a86836001600080516020610f148339815191529695016003556107d5565b336000526009815281600020600160ff19825416179055815193845242908401523392a2565b604190634e487b7160e01b6000525260246000fd5b835163928d0a1d60e01b8152fd5b9050331415386109f4565b5083516307b7d7dd60e51b8152fd5b508351632891f68760e21b8152fd5b90958482813d8311610b63575b610b5281836108a8565b810103126102ee57505194386109cf565b503d610b48565b85513d6000823e3d90fd5b610b9791955060803d8111610b9e575b610b8f81836108a8565b8101906108f4565b93386109a1565b503d610b85565b84513d6000823e3d90fd5b60001981146108925760010190565b6003805491929082610d365760005b6007546000959194916001600160a01b0391821690875b848110610bf457505050505050565b83610bfe826107d5565b905490881b1c1684831614610d245783610c17826107d5565b905490881b1c16604080519163cbf9fe5f60e01b8352600490818401526080602493818186818b5afa918215610ba557600092610d07575b5050824291015110610cf65786610c65856107d5565b9054908b1b1c169282519384926370a0823160e01b8452830152602091829181895afa918215610cec5750600091610cc0575b509050888110610cb2575b50610cad90610bb0565b610be5565b909850965087610cad610ca3565b82813d8311610ce5575b610cd481836108a8565b810103126102ee5750518038610c98565b503d610cca565b513d6000823e3d90fd5b509199506000985050505050505050565b610d1d9250803d10610b9e57610b8f81836108a8565b3880610c4f565b604051631093bb8960e11b8152600490fd5b600019610bce565b600390815480158015610e51575b610e3f5760005b818110610d6c576040516306fceae360e01b8152600490fd5b610d75816107d5565b90546001600160a01b0385811692909190871b1c81168214610da1575050610d9c90610bb0565b610d53565b6000199591945092909185820191821161089257610dd284610dc5610dd8946107d5565b905490861b1c16916107d5565b9061085e565b8054938415610e2957600080516020610f54833981519152940191610dfc836107d5565b9091825491841b1b1916905555806000526020906009825260408060002060ff19815416905551908152a1565b634e487b7160e01b600052603160045260246000fd5b6040516306fceae360e01b8152600490fd5b506001600160a01b03821615610d4c565b60039081549160005b838110610e7b5750505050600090565b610e84816107d5565b905490831b1c6001600160a01b0390811690841614610eab57610ea690610bb0565b610e6b565b50505050600190565b6001600160a01b0316600090815260086020526040902054600654610ed891610885565b80421015610eed574281039081116108925790565b5060009056fec2575a0e9e593c00f959f8c92f12db2869c3395a3b0502d05e2516446f71f85bcb80c3f2ab1208baea42515754c3b9bc9ac990e095121643bafd7c1dfd1afac98be0079c531659141344cd1fd0a4f28419497f9722a3daafe3b4186f6b6457e05aaa4a885fe8afe482f8bb71a9c6e47dfcd1598f5f7eeee4a57f0ccb9e2b76b5a2646970667358221220dc99d2de31313234378576287956c20fe4f93e4b9b21e6d2ed72e3ded3f651f664736f6c63430008110033",
  "devdoc": {
    "kind": "dev",
    "methods": {
      "acceptOwnership()": {
        "details": "The new owner accepts the ownership transfer."
      },
      "owner()": {
        "details": "Returns the address of the current owner."
      },
      "pendingOwner()": {
        "details": "Returns the address of the pending owner."
      },
      "renounceOwnership()": {
        "details": "Leaves the contract without owner. It will not be possible to call `onlyOwner` functions. Can only be called by the current owner. NOTE: Renouncing ownership will leave the contract without an owner, thereby disabling any functionality that is only available to the owner."
      },
      "transferOwnership(address)": {
        "details": "Starts the ownership transfer of the contract to a new account. Replaces the pending transfer if there is one. Can only be called by the current owner."
      }
    },
    "title": "TopStakers",
    "version": 1
  },
  "userdoc": {
    "kind": "user",
    "methods": {
      "getStakerAt(uint256)": {
        "notice": "Returns the address of staker in {index} place*"
      },
      "getTimeUntilNextSubscribe(address)": {
        "notice": "Returns the time left in seconds, before user can call subscribe/unsubscribe*"
      },
      "getTopStakers()": {
        "notice": "Returns the list of users that are topStakers*"
      },
      "getTopStakersLength()": {
        "notice": "Returns the amount of subscribed users (stakers list length)*"
      },
      "isStaker(address)": {
        "notice": "Returns if user is staker with not expired stake*"
      },
      "isTopStaker(address)": {
        "notice": "Returns if user is top staker or not*"
      },
      "subscribe()": {
        "notice": "User function to add yourself in stakers list to be able to be topStaker for liquidation*"
      },
      "unsubscribe()": {
        "notice": "User function to remove yourself from stakers list*"
      }
    },
    "notice": "Contract that have functionality to work with Top Stakers. They need to have veToken and call subscribe to participate in this list.*",
    "version": 1
  },
  "storageLayout": {
    "storage": [
      {
        "astId": 5788,
        "contract": "contracts/exchange/contracts/staking/TopStakers.sol:TopStakers",
        "label": "_owner",
        "offset": 0,
        "slot": "0",
        "type": "t_address"
      },
      {
        "astId": 5901,
        "contract": "contracts/exchange/contracts/staking/TopStakers.sol:TopStakers",
        "label": "_pendingOwner",
        "offset": 0,
        "slot": "1",
        "type": "t_address"
      },
      {
        "astId": 40837,
        "contract": "contracts/exchange/contracts/staking/TopStakers.sol:TopStakers",
        "label": "admin",
        "offset": 0,
        "slot": "2",
        "type": "t_address"
      },
      {
        "astId": 40840,
        "contract": "contracts/exchange/contracts/staking/TopStakers.sol:TopStakers",
        "label": "topStakers",
        "offset": 0,
        "slot": "3",
        "type": "t_array(t_address)dyn_storage"
      },
      {
        "astId": 40842,
        "contract": "contracts/exchange/contracts/staking/TopStakers.sol:TopStakers",
        "label": "maxTopStakersCount",
        "offset": 0,
        "slot": "4",
        "type": "t_uint256"
      },
      {
        "astId": 40844,
        "contract": "contracts/exchange/contracts/staking/TopStakers.sol:TopStakers",
        "label": "minStakingAmount",
        "offset": 0,
        "slot": "5",
        "type": "t_uint256"
      },
      {
        "astId": 40846,
        "contract": "contracts/exchange/contracts/staking/TopStakers.sol:TopStakers",
        "label": "subscriptionDelay",
        "offset": 0,
        "slot": "6",
        "type": "t_uint256"
      },
      {
        "astId": 40849,
        "contract": "contracts/exchange/contracts/staking/TopStakers.sol:TopStakers",
        "label": "veToken",
        "offset": 0,
        "slot": "7",
        "type": "t_contract(IVeToken)40830"
      },
      {
        "astId": 40853,
        "contract": "contracts/exchange/contracts/staking/TopStakers.sol:TopStakers",
        "label": "lastOperationTime",
        "offset": 0,
        "slot": "8",
        "type": "t_mapping(t_address,t_uint256)"
      },
      {
        "astId": 40857,
        "contract": "contracts/exchange/contracts/staking/TopStakers.sol:TopStakers",
        "label": "isStaker",
        "offset": 0,
        "slot": "9",
        "type": "t_mapping(t_address,t_bool)"
      }
    ],
    "types": {
      "t_address": {
        "encoding": "inplace",
        "label": "address",
        "numberOfBytes": "20"
      },
      "t_array(t_address)dyn_storage": {
        "base": "t_address",
        "encoding": "dynamic_array",
        "label": "address[]",
        "numberOfBytes": "32"
      },
      "t_bool": {
        "encoding": "inplace",
        "label": "bool",
        "numberOfBytes": "1"
      },
      "t_contract(IVeToken)40830": {
        "encoding": "inplace",
        "label": "contract IVeToken",
        "numberOfBytes": "20"
      },
      "t_mapping(t_address,t_bool)": {
        "encoding": "mapping",
        "key": "t_address",
        "label": "mapping(address => bool)",
        "numberOfBytes": "32",
        "value": "t_bool"
      },
      "t_mapping(t_address,t_uint256)": {
        "encoding": "mapping",
        "key": "t_address",
        "label": "mapping(address => uint256)",
        "numberOfBytes": "32",
        "value": "t_uint256"
      },
      "t_uint256": {
        "encoding": "inplace",
        "label": "uint256",
        "numberOfBytes": "32"
      }
    }
  }
}