{
  "address": "0xAD3B57b8520125dB9E50388e882DBD5C101a2885",
  "abi": [
    {
      "inputs": [
        {
          "internalType": "address",
          "name": "_veToken",
          "type": "address"
        }
      ],
      "stateMutability": "nonpayable",
      "type": "constructor"
    },
    {
      "inputs": [],
      "name": "AlreadyInTop",
      "type": "error"
    },
    {
      "inputs": [],
      "name": "AmountMustBeMoreThatMinimum",
      "type": "error"
    },
    {
      "inputs": [
        {
          "internalType": "uint256",
          "name": "available",
          "type": "uint256"
        },
        {
          "internalType": "uint256",
          "name": "requested",
          "type": "uint256"
        }
      ],
      "name": "InsufficientStake",
      "type": "error"
    },
    {
      "inputs": [],
      "name": "InvalidAddress",
      "type": "error"
    },
    {
      "inputs": [],
      "name": "LockExpired",
      "type": "error"
    },
    {
      "inputs": [],
      "name": "NotStakerFound",
      "type": "error"
    },
    {
      "inputs": [],
      "name": "OnlyAdminError",
      "type": "error"
    },
    {
      "inputs": [],
      "name": "OutOfBounds",
      "type": "error"
    },
    {
      "inputs": [],
      "name": "SubscriptionDelayError",
      "type": "error"
    },
    {
      "inputs": [],
      "name": "TokensDelegated",
      "type": "error"
    },
    {
      "anonymous": false,
      "inputs": [
        {
          "indexed": false,
          "internalType": "uint256",
          "name": "newAmount",
          "type": "uint256"
        }
      ],
      "name": "MinStakingAmountUpdated",
      "type": "event"
    },
    {
      "anonymous": false,
      "inputs": [
        {
          "indexed": true,
          "internalType": "address",
          "name": "previousOwner",
          "type": "address"
        },
        {
          "indexed": true,
          "internalType": "address",
          "name": "newOwner",
          "type": "address"
        }
      ],
      "name": "OwnershipTransferStarted",
      "type": "event"
    },
    {
      "anonymous": false,
      "inputs": [
        {
          "indexed": true,
          "internalType": "address",
          "name": "previousOwner",
          "type": "address"
        },
        {
          "indexed": true,
          "internalType": "address",
          "name": "newOwner",
          "type": "address"
        }
      ],
      "name": "OwnershipTransferred",
      "type": "event"
    },
    {
      "anonymous": false,
      "inputs": [
        {
          "indexed": false,
          "internalType": "uint256",
          "name": "newDelay",
          "type": "uint256"
        }
      ],
      "name": "SubscriptionDelayUpdated",
      "type": "event"
    },
    {
      "anonymous": false,
      "inputs": [
        {
          "indexed": false,
          "internalType": "address",
          "name": "user",
          "type": "address"
        }
      ],
      "name": "SubscriptionRemoved",
      "type": "event"
    },
    {
      "anonymous": false,
      "inputs": [
        {
          "indexed": true,
          "internalType": "address",
          "name": "user",
          "type": "address"
        },
        {
          "indexed": false,
          "internalType": "uint256",
          "name": "amount",
          "type": "uint256"
        },
        {
          "indexed": false,
          "internalType": "uint256",
          "name": "activationTime",
          "type": "uint256"
        }
      ],
      "name": "SubscriptionRequested",
      "type": "event"
    },
    {
      "anonymous": false,
      "inputs": [
        {
          "indexed": false,
          "internalType": "uint256",
          "name": "newTopStakersCount",
          "type": "uint256"
        }
      ],
      "name": "TopStakersMaxCountUpdated",
      "type": "event"
    },
    {
      "anonymous": false,
      "inputs": [
        {
          "indexed": false,
          "internalType": "address",
          "name": "_veToken",
          "type": "address"
        }
      ],
      "name": "VeTokenUpdated",
      "type": "event"
    },
    {
      "inputs": [],
      "name": "acceptOwnership",
      "outputs": [],
      "stateMutability": "nonpayable",
      "type": "function"
    },
    {
      "inputs": [],
      "name": "admin",
      "outputs": [
        {
          "internalType": "address",
          "name": "",
          "type": "address"
        }
      ],
      "stateMutability": "view",
      "type": "function"
    },
    {
      "inputs": [
        {
          "internalType": "uint256",
          "name": "newMaxTopStakersCount",
          "type": "uint256"
        }
      ],
      "name": "changeMaxTopStakersCount",
      "outputs": [],
      "stateMutability": "nonpayable",
      "type": "function"
    },
    {
      "inputs": [
        {
          "internalType": "uint256",
          "name": "_minStakingAmount",
          "type": "uint256"
        }
      ],
      "name": "changeMinStakingAmount",
      "outputs": [],
      "stateMutability": "nonpayable",
      "type": "function"
    },
    {
      "inputs": [
        {
          "internalType": "uint256",
          "name": "newDelay",
          "type": "uint256"
        }
      ],
      "name": "changeSubscriptionDelay",
      "outputs": [],
      "stateMutability": "nonpayable",
      "type": "function"
    },
    {
      "inputs": [
        {
          "internalType": "address",
          "name": "_veToken",
          "type": "address"
        }
      ],
      "name": "changeVeToken",
      "outputs": [],
      "stateMutability": "nonpayable",
      "type": "function"
    },
    {
      "inputs": [
        {
          "internalType": "uint256",
          "name": "index",
          "type": "uint256"
        }
      ],
      "name": "getStakerAt",
      "outputs": [
        {
          "internalType": "address",
          "name": "",
          "type": "address"
        }
      ],
      "stateMutability": "view",
      "type": "function"
    },
    {
      "inputs": [
        {
          "internalType": "address",
          "name": "user",
          "type": "address"
        }
      ],
      "name": "getTimeUntilNextSubscribe",
      "outputs": [
        {
          "internalType": "uint256",
          "name": "",
          "type": "uint256"
        }
      ],
      "stateMutability": "view",
      "type": "function"
    },
    {
      "inputs": [],
      "name": "getTopStakers",
      "outputs": [
        {
          "internalType": "address[]",
          "name": "",
          "type": "address[]"
        }
      ],
      "stateMutability": "view",
      "type": "function"
    },
    {
      "inputs": [],
      "name": "getTopStakersLength",
      "outputs": [
        {
          "internalType": "uint256",
          "name": "",
          "type": "uint256"
        }
      ],
      "stateMutability": "view",
      "type": "function"
    },
    {
      "inputs": [
        {
          "internalType": "address",
          "name": "",
          "type": "address"
        }
      ],
      "name": "isStaker",
      "outputs": [
        {
          "internalType": "bool",
          "name": "",
          "type": "bool"
        }
      ],
      "stateMutability": "view",
      "type": "function"
    },
    {
      "inputs": [
        {
          "internalType": "address",
          "name": "staker",
          "type": "address"
        }
      ],
      "name": "isTopStaker",
      "outputs": [
        {
          "internalType": "bool",
          "name": "",
          "type": "bool"
        }
      ],
      "stateMutability": "view",
      "type": "function"
    },
    {
      "inputs": [
        {
          "internalType": "address",
          "name": "",
          "type": "address"
        }
      ],
      "name": "lastOperationTime",
      "outputs": [
        {
          "internalType": "uint256",
          "name": "",
          "type": "uint256"
        }
      ],
      "stateMutability": "view",
      "type": "function"
    },
    {
      "inputs": [],
      "name": "maxTopStakersCount",
      "outputs": [
        {
          "internalType": "uint256",
          "name": "",
          "type": "uint256"
        }
      ],
      "stateMutability": "view",
      "type": "function"
    },
    {
      "inputs": [],
      "name": "minStakingAmount",
      "outputs": [
        {
          "internalType": "uint256",
          "name": "",
          "type": "uint256"
        }
      ],
      "stateMutability": "view",
      "type": "function"
    },
    {
      "inputs": [],
      "name": "owner",
      "outputs": [
        {
          "internalType": "address",
          "name": "",
          "type": "address"
        }
      ],
      "stateMutability": "view",
      "type": "function"
    },
    {
      "inputs": [],
      "name": "pendingOwner",
      "outputs": [
        {
          "internalType": "address",
          "name": "",
          "type": "address"
        }
      ],
      "stateMutability": "view",
      "type": "function"
    },
    {
      "inputs": [],
      "name": "renounceOwnership",
      "outputs": [],
      "stateMutability": "nonpayable",
      "type": "function"
    },
    {
      "inputs": [],
      "name": "subscribe",
      "outputs": [],
      "stateMutability": "nonpayable",
      "type": "function"
    },
    {
      "inputs": [],
      "name": "subscriptionDelay",
      "outputs": [
        {
          "internalType": "uint256",
          "name": "",
          "type": "uint256"
        }
      ],
      "stateMutability": "view",
      "type": "function"
    },
    {
      "inputs": [
        {
          "internalType": "uint256",
          "name": "",
          "type": "uint256"
        }
      ],
      "name": "topStakers",
      "outputs": [
        {
          "internalType": "address",
          "name": "",
          "type": "address"
        }
      ],
      "stateMutability": "view",
      "type": "function"
    },
    {
      "inputs": [
        {
          "internalType": "address",
          "name": "newOwner",
          "type": "address"
        }
      ],
      "name": "transferOwnership",
      "outputs": [],
      "stateMutability": "nonpayable",
      "type": "function"
    },
    {
      "inputs": [],
      "name": "unsubscribe",
      "outputs": [],
      "stateMutability": "nonpayable",
      "type": "function"
    },
    {
      "inputs": [],
      "name": "veToken",
      "outputs": [
        {
          "internalType": "contract IVeToken",
          "name": "",
          "type": "address"
        }
      ],
      "stateMutability": "view",
      "type": "function"
    }
  ],
  "transactionHash": "0x52ee2398d900d9065a88b8d41054fd7c0c9fbe66da80b910f5012784f03a8903",
  "args": [
    "0xe337e46e0384ae3FB04B77eaAa508F20524799b5"
  ],
  "numDeployments": 1,
  "solcInputHash": "09f86479fe0cbf936a7cae2178c51eb0",
  "bytecode": "0x608060405234801561001057600080fd5b5060405161120438038061120483398101604081905261002f916100e4565b6100383361006d565b600780546001600160a01b0319166001600160a01b03929092169190911790556005600481905560009055601e600655610114565b600180546001600160a01b031916905561009181610094602090811b610a4c17901c565b50565b600080546001600160a01b038381166001600160a01b0319831681178455604051919092169283917f8be0079c531659141344cd1fd0a4f28419497f9722a3daafe3b4186f6b6457e09190a35050565b6000602082840312156100f657600080fd5b81516001600160a01b038116811461010d57600080fd5b9392505050565b6110e1806101236000396000f3fe608060405234801561001057600080fd5b50600436106101285760003560e01c806303287e681461012d57806325c065b1146101555780632f81e7dc1461016c5780633841c5bf1461018c5780633b92eb23146101a15780634375995d146101b457806347e34453146101c757806349343e58146101da5780636f1e8533146101e357806370bb9a2514610206578063715018a61461021b57806379ba50971461022357806386d90a3b1461022b578063881444e41461023e5780638da5cb5b146102475780638f449a051461024f578063aeda8a0e14610257578063af0ec6221461026a578063c4e4a93b1461027d578063df408f6314610285578063e30c3978146102a5578063f2fde38b146102ad578063f851a440146102c0578063fcae4484146102d3575b600080fd5b61014061013b366004610ec1565b6102db565b60405190151581526020015b60405180910390f35b61015e60055481565b60405190815260200161014c565b61017f61017a366004610ede565b610348565b60405161014c9190610ef7565b61019f61019a366004610ec1565b610372565b005b60075461017f906001600160a01b031681565b61019f6101c2366004610ede565b6103d0565b61019f6101d5366004610ede565b61040d565b61015e60065481565b6101406101f1366004610ec1565b60096020526000908152604090205460ff1681565b61020e61044a565b60405161014c9190610f0b565b61019f6104ac565b61019f6104c0565b61015e610239366004610ec1565b610543565b61015e60045481565b61017f610590565b61019f61059f565b61019f610265366004610ede565b610902565b61017f610278366004610ede565b61093f565b60035461015e565b61015e610293366004610ec1565b60086020526000908152604090205481565b61017f610992565b61019f6102bb366004610ec1565b6109a1565b60025461017f906001600160a01b031681565b61019f610a07565b600354600090815b8181101561033e57836001600160a01b03166003828154811061030857610308610f58565b6000918252602090912001546001600160a01b03160361032c575060019392505050565b8061033681610f84565b9150506102e3565b5060009392505050565b6003818154811061035857600080fd5b6000918252602090912001546001600160a01b0316905081565b61037a610a9c565b600780546001600160a01b0319166001600160a01b0383161790556040517fa1c3cf7bf4208f773afa5e259d7bdaad59909b4c5bf62a0c5e4be44ef47c3313906103c5908390610ef7565b60405180910390a150565b6103d8610a9c565b60058190556040518181527f2748911faa6f8a67432c2dd95d1d0d301a81b8508c37d54cd2617508fb5f8bba906020016103c5565b610415610a9c565b60068190556040518181527f780cc0ee7c9e6c05fffa560430aabec2e8ef7ba9f9a0e11d1376e64ef2bea7e8906020016103c5565b606060038054806020026020016040519081016040528092919081815260200182805480156104a257602002820191906000526020600020905b81546001600160a01b03168152600190910190602001808311610484575b5050505050905090565b6104b4610a9c565b6104be6000610afb565b565b33806104ca610992565b6001600160a01b0316146105375760405162461bcd60e51b815260206004820152602960248201527f4f776e61626c6532537465703a2063616c6c6572206973206e6f7420746865206044820152683732bb9037bbb732b960b91b60648201526084015b60405180910390fd5b61054081610afb565b50565b6006546001600160a01b0382166000908152600860205260408120549091829161056d9190610f9d565b905080421061057f5750600092915050565b6105894282610fb6565b9392505050565b6000546001600160a01b031690565b600654336000908152600860205260409020546105bc9190610f9d565b42116105db57604051636531741760e11b815260040160405180910390fd5b60075460405163cbf9fe5f60e01b81526000916001600160a01b03169063cbf9fe5f9061060c903390600401610ef7565b608060405180830381865afa158015610629573d6000803e3d6000fd5b505050506040513d601f19601f8201168201806040525081019061064d9190610fe0565b6007546040516370a0823160e01b81529192506000916001600160a01b03909116906370a0823190610683903390600401610ef7565b602060405180830381865afa1580156106a0573d6000803e3d6000fd5b505050506040513d601f19601f820116820180604052508101906106c49190611065565b905060055481116106e857604051632891f68760e21b815260040160405180910390fd5b428260400151101561070d576040516307b7d7dd60e51b815260040160405180910390fd5b60608201516001600160a01b031615801590610736575060608201516001600160a01b03163314155b156107545760405163928d0a1d60e01b815260040160405180910390fd5b6003546004548110156107f6576003805460018181019092557fc2575a0e9e593c00f959f8c92f12db2869c3395a3b0502d05e2516446f71f85b0180546001600160a01b0319163390811790915560008181526009602052604090819020805460ff19169093179092559051600080516020611095833981519152906107e69085904290918252602082015260400190565b60405180910390a25050506108ee565b60008061080233610b14565b915091508084111561089d576000805160206110b58339815191526003838154811061083057610830610f58565b600091825260209091200154604051610852916001600160a01b031690610ef7565b60405180910390a1336003838154811061086e5761086e610f58565b9060005260206000200160006101000a8154816001600160a01b0302191690836001600160a01b031602179055505b3360008181526009602052604090819020805460ff1916600117905551600080516020611095833981519152906108e09087904290918252602082015260400190565b60405180910390a250505050505b336000908152600860205260409020429055565b61090a610a9c565b60048190556040518181527f3d40087ff6d355881a2a7a86182db160de1ad371030bb8dee729bdc6bda2fabd906020016103c5565b600354600090821061096457604051632d0483c560e21b815260040160405180910390fd5b6003828154811061097757610977610f58565b6000918252602090912001546001600160a01b031692915050565b6001546001600160a01b031690565b6109a9610a9c565b600180546001600160a01b0319166001600160a01b0383169081179091556109cf610590565b6001600160a01b03167f38d16b8cac22d99fc7c124b9cd0de2d3fa1faef420bfe791d8c362d765e2270060405160405180910390a350565b60065433600090815260086020526040902054610a249190610f9d565b4211610a4357604051636531741760e11b815260040160405180910390fd5b6108ee33610d12565b600080546001600160a01b038381166001600160a01b0319831681178455604051919092169283917f8be0079c531659141344cd1fd0a4f28419497f9722a3daafe3b4186f6b6457e09190a35050565b33610aa5610590565b6001600160a01b0316146104be5760405162461bcd60e51b815260206004820181905260248201527f4f776e61626c653a2063616c6c6572206973206e6f7420746865206f776e6572604482015260640161052e565b600180546001600160a01b031916905561054081610a4c565b60035460009081908015610b2a57600019610b2d565b60005b91506000925060005b81811015610d0b5760038181548110610b5157610b51610f58565b6000918252602090912001546001600160a01b0390811690861603610b8957604051631093bb8960e11b815260040160405180910390fd5b600754600380546000926001600160a01b03169163cbf9fe5f9185908110610bb357610bb3610f58565b6000918252602090912001546040516001600160e01b031960e084901b168152610be9916001600160a01b031690600401610ef7565b608060405180830381865afa158015610c06573d6000803e3d6000fd5b505050506040513d601f19601f82011682018060405250810190610c2a9190610fe0565b90504281604001511015610c445750946000945092505050565b600754600380546000926001600160a01b0316916370a082319186908110610c6e57610c6e610f58565b6000918252602090912001546040516001600160e01b031960e084901b168152610ca4916001600160a01b031690600401610ef7565b602060405180830381865afa158015610cc1573d6000803e3d6000fd5b505050506040513d601f19601f82011682018060405250810190610ce59190611065565b905084811015610cf6578094508295505b50508080610d0390610f84565b915050610b36565b5050915091565b6003541580610d2857506001600160a01b038116155b15610d46576040516306fceae360e01b815260040160405180910390fd5b60035460005b81811015610e9257826001600160a01b031660038281548110610d7157610d71610f58565b6000918252602090912001546001600160a01b031603610e80576003610d98600184610fb6565b81548110610da857610da8610f58565b600091825260209091200154600380546001600160a01b039092169183908110610dd457610dd4610f58565b9060005260206000200160006101000a8154816001600160a01b0302191690836001600160a01b031602179055506003805480610e1357610e1361107e565b60008281526020808220830160001990810180546001600160a01b03191690559092019092556001600160a01b038516825260099052604090819020805460ff19169055516000805160206110b583398151915290610e73908590610ef7565b60405180910390a1505050565b80610e8a81610f84565b915050610d4c565b506040516306fceae360e01b815260040160405180910390fd5b6001600160a01b038116811461054057600080fd5b600060208284031215610ed357600080fd5b813561058981610eac565b600060208284031215610ef057600080fd5b5035919050565b6001600160a01b0391909116815260200190565b6020808252825182820181905260009190848201906040850190845b81811015610f4c5783516001600160a01b031683529284019291840191600101610f27565b50909695505050505050565b634e487b7160e01b600052603260045260246000fd5b634e487b7160e01b600052601160045260246000fd5b600060018201610f9657610f96610f6e565b5060010190565b80820180821115610fb057610fb0610f6e565b92915050565b81810381811115610fb057610fb0610f6e565b8051600f81900b8114610fdb57600080fd5b919050565b600060808284031215610ff257600080fd5b604051608081016001600160401b038111828210171561102257634e487b7160e01b600052604160045260246000fd5b60405261102e83610fc9565b815261103c60208401610fc9565b602082015260408301516040820152606083015161105981610eac565b60608201529392505050565b60006020828403121561107757600080fd5b5051919050565b634e487b7160e01b600052603160045260246000fdfecb80c3f2ab1208baea42515754c3b9bc9ac990e095121643bafd7c1dfd1afac95aaa4a885fe8afe482f8bb71a9c6e47dfcd1598f5f7eeee4a57f0ccb9e2b76b5a164736f6c6343000811000a",
  "devdoc": {
    "kind": "dev",
    "methods": {
      "acceptOwnership()": {
        "details": "The new owner accepts the ownership transfer."
      },
      "owner()": {
        "details": "Returns the address of the current owner."
      },
      "pendingOwner()": {
        "details": "Returns the address of the pending owner."
      },
      "renounceOwnership()": {
        "details": "Leaves the contract without owner. It will not be possible to call `onlyOwner` functions. Can only be called by the current owner. NOTE: Renouncing ownership will leave the contract without an owner, thereby disabling any functionality that is only available to the owner."
      },
      "transferOwnership(address)": {
        "details": "Starts the ownership transfer of the contract to a new account. Replaces the pending transfer if there is one. Can only be called by the current owner."
      }
    },
    "title": "TopStakers",
    "version": 1
  },
  "userdoc": {
    "kind": "user",
    "methods": {
      "getStakerAt(uint256)": {
        "notice": "Returns the address of staker in {index} place*"
      },
      "getTimeUntilNextSubscribe(address)": {
        "notice": "Returns the time left in seconds, before user can call subscribe/unsubscribe*"
      },
      "getTopStakers()": {
        "notice": "Returns the list of users that are topStakers*"
      },
      "getTopStakersLength()": {
        "notice": "Returns the amount of subscribed users (stakers list length)*"
      },
      "isStaker(address)": {
        "notice": "Returns if user is staker with not expired stake*"
      },
      "isTopStaker(address)": {
        "notice": "Returns if user is top staker or not*"
      },
      "subscribe()": {
        "notice": "User function to add yourself in stakers list to be able to be topStaker for liquidation*"
      },
      "unsubscribe()": {
        "notice": "User function to remove yourself from stakers list*"
      }
    },
    "notice": "Contract that have functionality to work with Top Stakers. They need to have veToken and call subscribe to participate in this list.*",
    "version": 1
  },
  "storageLayout": {
    "storage": [
      {
        "astId": 7,
        "contract": "contracts/exchange/contracts/staking/TopStakers.sol:TopStakers",
        "label": "_owner",
        "offset": 0,
        "slot": "0",
        "type": "t_address"
      },
      {
        "astId": 120,
        "contract": "contracts/exchange/contracts/staking/TopStakers.sol:TopStakers",
        "label": "_pendingOwner",
        "offset": 0,
        "slot": "1",
        "type": "t_address"
      },
      {
        "astId": 398,
        "contract": "contracts/exchange/contracts/staking/TopStakers.sol:TopStakers",
        "label": "admin",
        "offset": 0,
        "slot": "2",
        "type": "t_address"
      },
      {
        "astId": 401,
        "contract": "contracts/exchange/contracts/staking/TopStakers.sol:TopStakers",
        "label": "topStakers",
        "offset": 0,
        "slot": "3",
        "type": "t_array(t_address)dyn_storage"
      },
      {
        "astId": 403,
        "contract": "contracts/exchange/contracts/staking/TopStakers.sol:TopStakers",
        "label": "maxTopStakersCount",
        "offset": 0,
        "slot": "4",
        "type": "t_uint256"
      },
      {
        "astId": 405,
        "contract": "contracts/exchange/contracts/staking/TopStakers.sol:TopStakers",
        "label": "minStakingAmount",
        "offset": 0,
        "slot": "5",
        "type": "t_uint256"
      },
      {
        "astId": 407,
        "contract": "contracts/exchange/contracts/staking/TopStakers.sol:TopStakers",
        "label": "subscriptionDelay",
        "offset": 0,
        "slot": "6",
        "type": "t_uint256"
      },
      {
        "astId": 410,
        "contract": "contracts/exchange/contracts/staking/TopStakers.sol:TopStakers",
        "label": "veToken",
        "offset": 0,
        "slot": "7",
        "type": "t_contract(IVeToken)391"
      },
      {
        "astId": 414,
        "contract": "contracts/exchange/contracts/staking/TopStakers.sol:TopStakers",
        "label": "lastOperationTime",
        "offset": 0,
        "slot": "8",
        "type": "t_mapping(t_address,t_uint256)"
      },
      {
        "astId": 418,
        "contract": "contracts/exchange/contracts/staking/TopStakers.sol:TopStakers",
        "label": "isStaker",
        "offset": 0,
        "slot": "9",
        "type": "t_mapping(t_address,t_bool)"
      }
    ],
    "types": {
      "t_address": {
        "encoding": "inplace",
        "label": "address",
        "numberOfBytes": "20"
      },
      "t_array(t_address)dyn_storage": {
        "base": "t_address",
        "encoding": "dynamic_array",
        "label": "address[]",
        "numberOfBytes": "32"
      },
      "t_bool": {
        "encoding": "inplace",
        "label": "bool",
        "numberOfBytes": "1"
      },
      "t_contract(IVeToken)391": {
        "encoding": "inplace",
        "label": "contract IVeToken",
        "numberOfBytes": "20"
      },
      "t_mapping(t_address,t_bool)": {
        "encoding": "mapping",
        "key": "t_address",
        "label": "mapping(address => bool)",
        "numberOfBytes": "32",
        "value": "t_bool"
      },
      "t_mapping(t_address,t_uint256)": {
        "encoding": "mapping",
        "key": "t_address",
        "label": "mapping(address => uint256)",
        "numberOfBytes": "32",
        "value": "t_uint256"
      },
      "t_uint256": {
        "encoding": "inplace",
        "label": "uint256",
        "numberOfBytes": "32"
      }
    }
  }
}