{
  "address": "0x77777773DFC018aa45aBe8ab9aaeA1aFc6777777",
  "abi": [
    {
      "inputs": [],
      "stateMutability": "nonpayable",
      "type": "constructor"
    },
    {
      "inputs": [],
      "name": "BadAccessControlSingleton",
      "type": "error"
    },
    {
      "inputs": [],
      "name": "BadEndBlock",
      "type": "error"
    },
    {
      "inputs": [],
      "name": "InsufficientRewardAmount",
      "type": "error"
    },
    {
      "inputs": [],
      "name": "OnlyAdminError",
      "type": "error"
    },
    {
      "inputs": [],
      "name": "OnlyAlerterError",
      "type": "error"
    },
    {
      "inputs": [],
      "name": "OnlyCDPAccessError",
      "type": "error"
    },
    {
      "inputs": [],
      "name": "OnlyDAOError",
      "type": "error"
    },
    {
      "inputs": [],
      "name": "OnlyDisablerAccessError",
      "type": "error"
    },
    {
      "inputs": [],
      "name": "OnlyLiquidationAccessError",
      "type": "error"
    },
    {
      "inputs": [],
      "name": "OnlyMintAccessError",
      "type": "error"
    },
    {
      "inputs": [],
      "name": "OnlyProxyActionsError",
      "type": "error"
    },
    {
      "inputs": [],
      "name": "OnlyRewardAccessError",
      "type": "error"
    },
    {
      "inputs": [],
      "name": "OnlyRoleError",
      "type": "error"
    },
    {
      "inputs": [],
      "name": "OnlyVaultAccessError",
      "type": "error"
    },
    {
      "inputs": [],
      "name": "OnlyVotingEscrowError",
      "type": "error"
    },
    {
      "inputs": [],
      "name": "ZeroFromBalance",
      "type": "error"
    },
    {
      "anonymous": false,
      "inputs": [
        {
          "indexed": true,
          "internalType": "address",
          "name": "owner",
          "type": "address"
        },
        {
          "indexed": true,
          "internalType": "address",
          "name": "spender",
          "type": "address"
        },
        {
          "indexed": false,
          "internalType": "uint256",
          "name": "value",
          "type": "uint256"
        }
      ],
      "name": "Approval",
      "type": "event"
    },
    {
      "anonymous": false,
      "inputs": [
        {
          "indexed": false,
          "internalType": "uint8",
          "name": "version",
          "type": "uint8"
        }
      ],
      "name": "Initialized",
      "type": "event"
    },
    {
      "anonymous": false,
      "inputs": [
        {
          "indexed": true,
          "internalType": "address",
          "name": "from",
          "type": "address"
        },
        {
          "indexed": true,
          "internalType": "address",
          "name": "to",
          "type": "address"
        },
        {
          "indexed": false,
          "internalType": "uint256",
          "name": "value",
          "type": "uint256"
        }
      ],
      "name": "Transfer",
      "type": "event"
    },
    {
      "inputs": [],
      "name": "ACCESS_CONTROL_SINGLETON",
      "outputs": [
        {
          "internalType": "contract ISuAccessControl",
          "name": "",
          "type": "address"
        }
      ],
      "stateMutability": "view",
      "type": "function"
    },
    {
      "inputs": [],
      "name": "ADMIN_ROLE",
      "outputs": [
        {
          "internalType": "bytes32",
          "name": "",
          "type": "bytes32"
        }
      ],
      "stateMutability": "view",
      "type": "function"
    },
    {
      "inputs": [],
      "name": "ALERTER_ROLE",
      "outputs": [
        {
          "internalType": "bytes32",
          "name": "",
          "type": "bytes32"
        }
      ],
      "stateMutability": "view",
      "type": "function"
    },
    {
      "inputs": [],
      "name": "CDP_ACCESS_ROLE",
      "outputs": [
        {
          "internalType": "bytes32",
          "name": "",
          "type": "bytes32"
        }
      ],
      "stateMutability": "view",
      "type": "function"
    },
    {
      "inputs": [],
      "name": "DAO_ROLE",
      "outputs": [
        {
          "internalType": "bytes32",
          "name": "",
          "type": "bytes32"
        }
      ],
      "stateMutability": "view",
      "type": "function"
    },
    {
      "inputs": [],
      "name": "DISABLER_ROLE",
      "outputs": [
        {
          "internalType": "bytes32",
          "name": "",
          "type": "bytes32"
        }
      ],
      "stateMutability": "view",
      "type": "function"
    },
    {
      "inputs": [],
      "name": "LIQUIDATION_ACCESS_ROLE",
      "outputs": [
        {
          "internalType": "bytes32",
          "name": "",
          "type": "bytes32"
        }
      ],
      "stateMutability": "view",
      "type": "function"
    },
    {
      "inputs": [],
      "name": "MINT_ACCESS_ROLE",
      "outputs": [
        {
          "internalType": "bytes32",
          "name": "",
          "type": "bytes32"
        }
      ],
      "stateMutability": "view",
      "type": "function"
    },
    {
      "inputs": [],
      "name": "PROXY_ACTIONS_ROLE",
      "outputs": [
        {
          "internalType": "bytes32",
          "name": "",
          "type": "bytes32"
        }
      ],
      "stateMutability": "view",
      "type": "function"
    },
    {
      "inputs": [],
      "name": "REWARD_ACCESS_ROLE",
      "outputs": [
        {
          "internalType": "bytes32",
          "name": "",
          "type": "bytes32"
        }
      ],
      "stateMutability": "view",
      "type": "function"
    },
    {
      "inputs": [],
      "name": "REWARD_PRECISION",
      "outputs": [
        {
          "internalType": "uint256",
          "name": "",
          "type": "uint256"
        }
      ],
      "stateMutability": "view",
      "type": "function"
    },
    {
      "inputs": [],
      "name": "VOTING_ESCROW_ROLE",
      "outputs": [
        {
          "internalType": "bytes32",
          "name": "",
          "type": "bytes32"
        }
      ],
      "stateMutability": "view",
      "type": "function"
    },
    {
      "inputs": [],
      "name": "accRewardPerShare",
      "outputs": [
        {
          "internalType": "uint128",
          "name": "",
          "type": "uint128"
        }
      ],
      "stateMutability": "view",
      "type": "function"
    },
    {
      "inputs": [
        {
          "internalType": "address",
          "name": "owner",
          "type": "address"
        },
        {
          "internalType": "address",
          "name": "spender",
          "type": "address"
        }
      ],
      "name": "allowance",
      "outputs": [
        {
          "internalType": "uint256",
          "name": "",
          "type": "uint256"
        }
      ],
      "stateMutability": "view",
      "type": "function"
    },
    {
      "inputs": [
        {
          "internalType": "address",
          "name": "spender",
          "type": "address"
        },
        {
          "internalType": "uint256",
          "name": "amount",
          "type": "uint256"
        }
      ],
      "name": "approve",
      "outputs": [
        {
          "internalType": "bool",
          "name": "",
          "type": "bool"
        }
      ],
      "stateMutability": "nonpayable",
      "type": "function"
    },
    {
      "inputs": [
        {
          "internalType": "address",
          "name": "account",
          "type": "address"
        }
      ],
      "name": "balanceOf",
      "outputs": [
        {
          "internalType": "uint256",
          "name": "",
          "type": "uint256"
        }
      ],
      "stateMutability": "view",
      "type": "function"
    },
    {
      "inputs": [
        {
          "internalType": "uint256",
          "name": "amount",
          "type": "uint256"
        }
      ],
      "name": "burn",
      "outputs": [],
      "stateMutability": "nonpayable",
      "type": "function"
    },
    {
      "inputs": [
        {
          "internalType": "address",
          "name": "from",
          "type": "address"
        },
        {
          "internalType": "uint256",
          "name": "amount",
          "type": "uint256"
        }
      ],
      "name": "burn",
      "outputs": [],
      "stateMutability": "nonpayable",
      "type": "function"
    },
    {
      "inputs": [],
      "name": "cancelRedirectYieldAndHarvest",
      "outputs": [],
      "stateMutability": "nonpayable",
      "type": "function"
    },
    {
      "inputs": [],
      "name": "decimals",
      "outputs": [
        {
          "internalType": "uint8",
          "name": "",
          "type": "uint8"
        }
      ],
      "stateMutability": "view",
      "type": "function"
    },
    {
      "inputs": [
        {
          "internalType": "address",
          "name": "spender",
          "type": "address"
        },
        {
          "internalType": "uint256",
          "name": "subtractedValue",
          "type": "uint256"
        }
      ],
      "name": "decreaseAllowance",
      "outputs": [
        {
          "internalType": "bool",
          "name": "",
          "type": "bool"
        }
      ],
      "stateMutability": "nonpayable",
      "type": "function"
    },
    {
      "inputs": [
        {
          "internalType": "address",
          "name": "account",
          "type": "address"
        }
      ],
      "name": "getAccount",
      "outputs": [
        {
          "components": [
            {
              "internalType": "uint256",
              "name": "balance",
              "type": "uint256"
            },
            {
              "internalType": "int256",
              "name": "rewardDebt",
              "type": "int256"
            },
            {
              "internalType": "address",
              "name": "redirectYieldTo",
              "type": "address"
            }
          ],
          "internalType": "struct IGainableERC20v3.IAccount",
          "name": "",
          "type": "tuple"
        }
      ],
      "stateMutability": "view",
      "type": "function"
    },
    {
      "inputs": [],
      "name": "getYieldAPR",
      "outputs": [
        {
          "internalType": "uint256",
          "name": "",
          "type": "uint256"
        }
      ],
      "stateMutability": "view",
      "type": "function"
    },
    {
      "inputs": [
        {
          "internalType": "address",
          "name": "account",
          "type": "address"
        }
      ],
      "name": "harvest",
      "outputs": [],
      "stateMutability": "nonpayable",
      "type": "function"
    },
    {
      "inputs": [
        {
          "internalType": "address",
          "name": "spender",
          "type": "address"
        },
        {
          "internalType": "uint256",
          "name": "addedValue",
          "type": "uint256"
        }
      ],
      "name": "increaseAllowance",
      "outputs": [
        {
          "internalType": "bool",
          "name": "",
          "type": "bool"
        }
      ],
      "stateMutability": "nonpayable",
      "type": "function"
    },
    {
      "inputs": [
        {
          "internalType": "address",
          "name": "_authControl",
          "type": "address"
        }
      ],
      "name": "initialize",
      "outputs": [],
      "stateMutability": "nonpayable",
      "type": "function"
    },
    {
      "inputs": [],
      "name": "lastRewardBlock",
      "outputs": [
        {
          "internalType": "uint64",
          "name": "",
          "type": "uint64"
        }
      ],
      "stateMutability": "view",
      "type": "function"
    },
    {
      "inputs": [
        {
          "internalType": "address",
          "name": "to",
          "type": "address"
        },
        {
          "internalType": "uint256",
          "name": "amount",
          "type": "uint256"
        }
      ],
      "name": "mint",
      "outputs": [],
      "stateMutability": "nonpayable",
      "type": "function"
    },
    {
      "inputs": [],
      "name": "name",
      "outputs": [
        {
          "internalType": "string",
          "name": "",
          "type": "string"
        }
      ],
      "stateMutability": "view",
      "type": "function"
    },
    {
      "inputs": [
        {
          "internalType": "address",
          "name": "account",
          "type": "address"
        }
      ],
      "name": "pendingRewards",
      "outputs": [
        {
          "internalType": "uint256",
          "name": "",
          "type": "uint256"
        }
      ],
      "stateMutability": "view",
      "type": "function"
    },
    {
      "inputs": [
        {
          "internalType": "address",
          "name": "to",
          "type": "address"
        }
      ],
      "name": "redirectYieldAndHarvest",
      "outputs": [],
      "stateMutability": "nonpayable",
      "type": "function"
    },
    {
      "inputs": [
        {
          "internalType": "address",
          "name": "from",
          "type": "address"
        },
        {
          "internalType": "address",
          "name": "to",
          "type": "address"
        }
      ],
      "name": "redirectYieldAndHarvestByDAO",
      "outputs": [],
      "stateMutability": "nonpayable",
      "type": "function"
    },
    {
      "inputs": [
        {
          "internalType": "uint256",
          "name": "amount",
          "type": "uint256"
        },
        {
          "internalType": "uint64",
          "name": "endBlock",
          "type": "uint64"
        }
      ],
      "name": "refillReward",
      "outputs": [],
      "stateMutability": "nonpayable",
      "type": "function"
    },
    {
      "inputs": [],
      "name": "rewardEndBlock",
      "outputs": [
        {
          "internalType": "uint256",
          "name": "",
          "type": "uint256"
        }
      ],
      "stateMutability": "view",
      "type": "function"
    },
    {
      "inputs": [],
      "name": "rewardPerBlock",
      "outputs": [
        {
          "internalType": "uint256",
          "name": "",
          "type": "uint256"
        }
      ],
      "stateMutability": "view",
      "type": "function"
    },
    {
      "inputs": [
        {
          "internalType": "bytes4",
          "name": "interfaceId",
          "type": "bytes4"
        }
      ],
      "name": "supportsInterface",
      "outputs": [
        {
          "internalType": "bool",
          "name": "",
          "type": "bool"
        }
      ],
      "stateMutability": "view",
      "type": "function"
    },
    {
      "inputs": [],
      "name": "symbol",
      "outputs": [
        {
          "internalType": "string",
          "name": "",
          "type": "string"
        }
      ],
      "stateMutability": "view",
      "type": "function"
    },
    {
      "inputs": [],
      "name": "totalSupply",
      "outputs": [
        {
          "internalType": "uint256",
          "name": "",
          "type": "uint256"
        }
      ],
      "stateMutability": "view",
      "type": "function"
    },
    {
      "inputs": [
        {
          "internalType": "address",
          "name": "to",
          "type": "address"
        },
        {
          "internalType": "uint256",
          "name": "amount",
          "type": "uint256"
        }
      ],
      "name": "transfer",
      "outputs": [
        {
          "internalType": "bool",
          "name": "",
          "type": "bool"
        }
      ],
      "stateMutability": "nonpayable",
      "type": "function"
    },
    {
      "inputs": [
        {
          "internalType": "address",
          "name": "from",
          "type": "address"
        },
        {
          "internalType": "address",
          "name": "to",
          "type": "address"
        },
        {
          "internalType": "uint256",
          "name": "amount",
          "type": "uint256"
        }
      ],
      "name": "transferFrom",
      "outputs": [
        {
          "internalType": "bool",
          "name": "",
          "type": "bool"
        }
      ],
      "stateMutability": "nonpayable",
      "type": "function"
    },
    {
      "inputs": [],
      "name": "updateRewardPool",
      "outputs": [],
      "stateMutability": "nonpayable",
      "type": "function"
    }
  ],
  "numDeployments": 1,
  "solcInputHash": "3ef37250dcad944701b04efacc86c982",
  "bytecode": "0x608060405234801561001057600080fd5b5061001961001e565b6100dd565b600054610100900460ff161561008a5760405162461bcd60e51b815260206004820152602760248201527f496e697469616c697a61626c653a20636f6e747261637420697320696e697469604482015266616c697a696e6760c81b606482015260840160405180910390fd5b60005460ff908116146100db576000805460ff191660ff9081179091556040519081527f7f26b83ff96e1f2b6a682f133852f6798a09c465da95921460cefb38474024989060200160405180910390a15b565b6121a980620000ed6000396000f3fe608060405234801561001057600080fd5b50600436106101e35760003560e01c806301ffc9a7146101e857806303ee9f221461021057806306fdde031461023b578063095ea7b31461026a5780630e5c011e1461027d57806318160ddd1461029257806323b872dd146102a4578063313ce567146102b757806331d7a262146102c657806339509351146102d95780633d6aa5e1146102ec57806340c10f19146102f957806342966c681461030c578063438280dd1461031f578063604ef2e5146103345780636c9f018f1461033d5780636cfd38511461035057806370a082311461036357806371d0fb411461037657806375b238fc1461039d57806381028dde146103a557806387ee8c4c146103ad5780638ae39cac146103c05780638e5313e0146103c9578063939d6237146103de57806395d89b41146104095780639dc29fac1461042c578063a457c2d71461043f578063a9059cbb14610452578063a9f8d18114610465578063ab6a8b0214610497578063af163abf1461049f578063b38234f3146104a7578063bd5f5be6146104ce578063c4d66de8146104f5578063d0e8fa8214610508578063d2351cee1461052f578063dc97e84e14610556578063dd62ed3e1461057d578063e9c2651814610590578063fbcbc0f1146105a5575b600080fd5b6101fb6101f6366004611ccd565b6105e3565b60405190151581526020015b60405180910390f35b603354610223906001600160a01b031681565b6040516001600160a01b039091168152602001610207565b60408051808201909152600a81526914dd18589b19555b9a5d60b21b60208201525b6040516102079190611cf7565b6101fb610278366004611d61565b61065b565b61029061028b366004611d8b565b610673565b005b6069545b604051908152602001610207565b6101fb6102b2366004611da6565b61076f565b60405160128152602001610207565b6102966102d4366004611d8b565b610795565b6101fb6102e7366004611d61565b610893565b610296655af3107a400081565b610290610307366004611d61565b6108d2565b61029061031a366004611de2565b61097e565b61029660008051602061215d83398151915281565b610296606d5481565b61029061034b366004611dfb565b610a29565b61029061035e366004611d8b565b610b51565b610296610371366004611d8b565b610ba5565b6102967f880a91047114272656e533301261260c75e4d11543ac7303d6fe4204579ec72781565b610296600081565b610296610c10565b6102906103bb366004611e2e565b610c5b565b610296606c5481565b61029660008051602061213d83398151915281565b6066546103f1906001600160801b031681565b6040516001600160801b039091168152602001610207565b6040805180820190915260078152665553442050726f60c81b602082015261025d565b61029061043a366004611d61565b610e49565b6101fb61044d366004611d61565b610ef1565b6101fb610460366004611d61565b610f88565b60665461047f90600160801b90046001600160401b031681565b6040516001600160401b039091168152602001610207565b610290610f98565b610290611059565b6102967fd83f5343da19b478b15a140c301a868be9e02603958f38fbd822b9d5c0a2891681565b6102967f4f14c8366fa999817edc9f29824eb88a00cc31225e2156f399da4bc91049eb1081565b610290610503366004611d8b565b611065565b6102967f76d0567582f23e1e9d7a13eeba60f9aea9d69b8da87ca27a8bf3698b35c653db81565b6102967fb0fdd1623e42dbffda4acd8bd643e1cb69f00f0e83abeaa8150ee42cf0fd105e81565b6102967f9a9aef7c1247d5fc769b0185c052913e39673da29a880317dfd20ebf86f26a4981565b61029661058b366004611dfb565b6111ba565b61029660008051602061211d83398151915281565b6105b86105b3366004611d8b565b6111e5565b604080518251815260208084015190820152918101516001600160a01b031690820152606001610207565b6033546040516301ffc9a760e01b81526000916001600160a01b0316906301ffc9a790610614908590600401611e6a565b602060405180830381865afa158015610631573d6000803e3d6000fd5b505050506040513d601f19601f820116820180604052508101906106559190611e7f565b92915050565b600033610669818585611256565b5060019392505050565b6001600160a01b0381166000908152606760205260409020610693610f98565b60665481546000916106ca9164e8d4a51000916106bb916001600160801b0390911690611eb7565b6106c59190611ece565b61137b565b905060006106e68360010154836106e19190611ef0565b6113e9565b9050655af3107a40006106f98183611ece565b6107039190611eb7565b600184018390559050801580159061072457506001600160a01b0384163014155b156107695760028301546001600160a01b031661074d57610748308583600061143b565b610769565b60028301546107699030906001600160a01b031683600161143b565b50505050565b60003361077d858285611694565b61078a858585600161143b565b506001949350505050565b6066546000906001600160801b03811690600160801b90046001600160401b0316431180156107c657506000606954115b156107fd5760695464e8d4a510006107dc611708565b6107e69190611eb7565b6107f09190611ece565b6107fa9082611f17565b90505b6001600160a01b03808416600090815260676020908152604080832081516060810183528154808252600183015494820194909452600290910154909416908401526108559064e8d4a51000906106bb908690611eb7565b9050600061086c8360200151836106e19190611ef0565b9050655af3107a400061087f8183611ece565b6108899190611eb7565b9695505050505050565b3360008181526068602090815260408083206001600160a01b038716845290915281205490919061066990829086906108cd908790611f17565b611256565b603354604051632474521560e21b81526001600160a01b03909116906391d14854906109129060008051602061213d833981519152903390600401611f2a565b602060405180830381865afa15801561092f573d6000803e3d6000fd5b505050506040513d601f19601f820116820180604052508101906109539190611e7f565b610970576040516308ff603760e01b815260040160405180910390fd5b61097a82826117c4565b5050565b603354604051632474521560e21b81526001600160a01b03909116906391d14854906109be9060008051602061213d833981519152903390600401611f2a565b602060405180830381865afa1580156109db573d6000803e3d6000fd5b505050506040513d601f19601f820116820180604052508101906109ff9190611e7f565b610a1c576040516308ff603760e01b815260040160405180910390fd5b610a2633826118f2565b50565b603354604051632474521560e21b81526001600160a01b03909116906391d1485490610a699060008051602061211d833981519152903390600401611f2a565b602060405180830381865afa158015610a86573d6000803e3d6000fd5b505050506040513d601f19601f82011682018060405250810190610aaa9190611e7f565b610ac75760405163599a6c3360e11b815260040160405180910390fd5b6001600160a01b0382166000908152606760205260408120549003610aff57604051630127833760e21b815260040160405180910390fd5b610b0882610673565b6001600160a01b03811615610b2057610b2081610673565b6001600160a01b03918216600090815260676020526040902060020180546001600160a01b03191691909216179055565b33600081815260676020526040902090610b6a90610673565b6001600160a01b03821615610b8257610b8282610673565b60020180546001600160a01b0319166001600160a01b0392909216919091179055565b6001600160a01b03808216600090815260676020908152604080832081516060810183528154815260018201549381019390935260020154909316928101839052909115610bf4578051610c09565b610bfd83610795565b8151610c099190611f17565b9392505050565b6000606d54431115610c225750600090565b606954606c54622014809190610c39908390611eb7565b610c4b90670de0b6b3a7640000611eb7565b610c559190611ece565b91505090565b603354604051632474521560e21b81526001600160a01b03909116906391d1485490610c9b9060008051602061215d833981519152903390600401611f2a565b602060405180830381865afa158015610cb8573d6000803e3d6000fd5b505050506040513d601f19601f82011682018060405250810190610cdc9190611e7f565b158015610d5a5750603354604051632474521560e21b81526001600160a01b03909116906391d1485490610d17906000903390600401611f2a565b602060405180830381865afa158015610d34573d6000803e3d6000fd5b505050506040513d601f19601f82011682018060405250810190610d589190611e7f565b155b15610d7857604051631a3d931f60e31b815260040160405180910390fd5b806001600160401b03164310610da15760405163e1133c0960e01b815260040160405180910390fd5b610da9610f98565b610db6333084600161143b565b600080606d54118015610dca5750606d5443105b15610ded5743606d54610ddd9190611f41565b606c54610dea9190611eb7565b90505b610e00436001600160401b038416611f41565b610e0a8483611f17565b610e149190611ece565b606c819055600003610e39576040516301b0b4cf60e41b815260040160405180910390fd5b506001600160401b0316606d5550565b603354604051632474521560e21b81526001600160a01b03909116906391d1485490610e899060008051602061213d833981519152903390600401611f2a565b602060405180830381865afa158015610ea6573d6000803e3d6000fd5b505050506040513d601f19601f82011682018060405250810190610eca9190611e7f565b610ee7576040516308ff603760e01b815260040160405180910390fd5b61097a82826118f2565b3360008181526068602090815260408083206001600160a01b038716845290915281205490919083811015610f7b5760405162461bcd60e51b815260206004820152602560248201527f45524332303a2064656372656173656420616c6c6f77616e63652062656c6f77604482015264207a65726f60d81b60648201526084015b60405180910390fd5b61078a8286868403611256565b600033610669818585600161143b565b6000610fa343611a75565b6066549091506001600160401b03600160801b90910481169082161115610a26576069541561103057610ff960695464e8d4a51000610fe0611708565b610fea9190611eb7565b610ff49190611ece565b611add565b60665461100f91906001600160801b0316611f54565b606680546001600160801b0319166001600160801b03929092169190911790555b606680546001600160401b038316600160801b02600160801b600160c01b031990911617905550565b6110636000610b51565b565b600054610100900460ff16158080156110855750600054600160ff909116105b8061109f5750303b15801561109f575060005460ff166001145b6111025760405162461bcd60e51b815260206004820152602e60248201527f496e697469616c697a61626c653a20636f6e747261637420697320616c72656160448201526d191e481a5b9a5d1a585b1a5e995960921b6064820152608401610f72565b6000805460ff191660011790558015611125576000805461ff0019166101001790555b611171826040518060400160405280600a81526020016914dd18589b19555b9a5d60b21b815250604051806040016040528060078152602001665553442050726f60c81b815250611b46565b801561097a576000805461ff0019169055604051600181527f7f26b83ff96e1f2b6a682f133852f6798a09c465da95921460cefb38474024989060200160405180910390a15050565b6001600160a01b03918216600090815260686020908152604080832093909416825291909152205490565b6112126040518060600160405280600081526020016000815260200160006001600160a01b031681525090565b506001600160a01b03908116600090815260676020908152604091829020825160608101845281548152600182015492810192909252600201549092169082015290565b6001600160a01b0383166112b85760405162461bcd60e51b8152602060048201526024808201527f45524332303a20617070726f76652066726f6d20746865207a65726f206164646044820152637265737360e01b6064820152608401610f72565b6001600160a01b0382166113195760405162461bcd60e51b815260206004820152602260248201527f45524332303a20617070726f766520746f20746865207a65726f206164647265604482015261737360f01b6064820152608401610f72565b6001600160a01b0383811660008181526068602090815260408083209487168084529482529182902085905590518481527f8c5be1e5ebec7d5bd14f71427d1e84f3dd0314c0f7b2291e5b200ac8c7c3b92591015b60405180910390a3505050565b60006001600160ff1b038211156113e55760405162461bcd60e51b815260206004820152602860248201527f53616665436173743a2076616c756520646f65736e27742066697420696e2061604482015267371034b73a191a9b60c11b6064820152608401610f72565b5090565b6000808212156113e55760405162461bcd60e51b815260206004820181905260248201527f53616665436173743a2076616c7565206d75737420626520706f7369746976656044820152606401610f72565b6001600160a01b03841661149f5760405162461bcd60e51b815260206004820152602560248201527f45524332303a207472616e736665722066726f6d20746865207a65726f206164604482015264647265737360d81b6064820152608401610f72565b6001600160a01b0383166115015760405162461bcd60e51b815260206004820152602360248201527f45524332303a207472616e7366657220746f20746865207a65726f206164647260448201526265737360e81b6064820152608401610f72565b801561151257611512848484611b78565b6001600160a01b0384166000908152606760205260409020548281101561158a5760405162461bcd60e51b815260206004820152602660248201527f45524332303a207472616e7366657220616d6f756e7420657863656564732062604482015265616c616e636560d01b6064820152608401610f72565b6001600160a01b0385166000908152606760205260409020838203908190556066546115c89164e8d4a51000916001600160801b0316025b0461137b565b6001600160a01b038087166000908152606760205260408082206001019390935590861681529081208054859290611601908490611f17565b90915550506066546001600160a01b0385166000908152606760205260409020546116409164e8d4a51000916106bb916001600160801b031690611eb7565b6001600160a01b03808616600081815260676020526040908190206001019390935591519087169060008051602061217d833981519152906116859087815260200190565b60405180910390a35050505050565b60006116a084846111ba565b9050600019811461076957818110156116fb5760405162461bcd60e51b815260206004820152601d60248201527f45524332303a20696e73756666696369656e7420616c6c6f77616e63650000006044820152606401610f72565b6107698484848403611256565b6066546000904390600160801b90046001600160401b03168111158061172e5750606d54155b1561173b57600091505090565b606654606d54600160801b9091046001600160401b03161061175f57600091505090565b606d54811061179a57606c54606654606d5461178b91600160801b90046001600160401b031690611f41565b6117959190611eb7565b610c55565b606c546066546117ba90600160801b90046001600160401b031683611f41565b610c559190611eb7565b6001600160a01b03821661181a5760405162461bcd60e51b815260206004820152601f60248201527f45524332303a206d696e7420746f20746865207a65726f2061646472657373006044820152606401610f72565b61182660008383611b78565b80606960008282546118389190611f17565b90915550506001600160a01b03821660009081526067602052604081208054839290611865908490611f17565b90915550506066546001600160a01b0383166000908152606760205260409020546118a49164e8d4a51000916106bb916001600160801b031690611eb7565b6001600160a01b03831660008181526067602052604080822060010193909355915190919060008051602061217d833981519152906118e69085815260200190565b60405180910390a35050565b6001600160a01b0382166119525760405162461bcd60e51b815260206004820152602160248201527f45524332303a206275726e2066726f6d20746865207a65726f206164647265736044820152607360f81b6064820152608401610f72565b61195e82600083611b78565b6001600160a01b038216600090815260676020526040902054818110156119d25760405162461bcd60e51b815260206004820152602260248201527f45524332303a206275726e20616d6f756e7420657863656564732062616c616e604482015261636560f01b6064820152608401610f72565b6001600160a01b038316600090815260676020526040902082820390819055606654611a0e9164e8d4a51000916001600160801b0316026115c2565b6001600160a01b03841660009081526067602052604081206001019190915560698054849290611a3f908490611f41565b90915550506040518281526000906001600160a01b0385169060008051602061217d8339815191529060200161136e565b505050565b60006001600160401b038211156113e55760405162461bcd60e51b815260206004820152602660248201527f53616665436173743a2076616c756520646f65736e27742066697420696e203660448201526534206269747360d01b6064820152608401610f72565b60006001600160801b038211156113e55760405162461bcd60e51b815260206004820152602760248201527f53616665436173743a2076616c756520646f65736e27742066697420696e20316044820152663238206269747360c81b6064820152608401610f72565b600054610100900460ff16611b6d5760405162461bcd60e51b8152600401610f7290611f74565b611a70838383611ba8565b6001600160a01b03831615611b9057611b9083610673565b6001600160a01b03821615611a7057611a7082610673565b600054610100900460ff16611bcf5760405162461bcd60e51b8152600401610f7290611f74565b606a611bdb838261205d565b50606b611be8828261205d565b50611a7083600054610100900460ff16611c145760405162461bcd60e51b8152600401610f7290611f74565b603380546001600160a01b0319166001600160a01b0383169081179091551580611caf57506040516301ffc9a760e01b81526001600160a01b038216906301ffc9a790611c6c90637965db0b60e01b90600401611e6a565b602060405180830381865afa158015611c89573d6000803e3d6000fd5b505050506040513d601f19601f82011682018060405250810190611cad9190611e7f565b155b15610a26576040516384d942fd60e01b815260040160405180910390fd5b600060208284031215611cdf57600080fd5b81356001600160e01b031981168114610c0957600080fd5b600060208083528351808285015260005b81811015611d2457858101830151858201604001528201611d08565b506000604082860101526040601f19601f8301168501019250505092915050565b80356001600160a01b0381168114611d5c57600080fd5b919050565b60008060408385031215611d7457600080fd5b611d7d83611d45565b946020939093013593505050565b600060208284031215611d9d57600080fd5b610c0982611d45565b600080600060608486031215611dbb57600080fd5b611dc484611d45565b9250611dd260208501611d45565b9150604084013590509250925092565b600060208284031215611df457600080fd5b5035919050565b60008060408385031215611e0e57600080fd5b611e1783611d45565b9150611e2560208401611d45565b90509250929050565b60008060408385031215611e4157600080fd5b8235915060208301356001600160401b0381168114611e5f57600080fd5b809150509250929050565b6001600160e01b031991909116815260200190565b600060208284031215611e9157600080fd5b81518015158114610c0957600080fd5b634e487b7160e01b600052601160045260246000fd5b808202811582820484141761065557610655611ea1565b600082611eeb57634e487b7160e01b600052601260045260246000fd5b500490565b8181036000831280158383131683831282161715611f1057611f10611ea1565b5092915050565b8082018082111561065557610655611ea1565b9182526001600160a01b0316602082015260400190565b8181038181111561065557610655611ea1565b6001600160801b03818116838216019080821115611f1057611f10611ea1565b6020808252602b908201527f496e697469616c697a61626c653a20636f6e7472616374206973206e6f74206960408201526a6e697469616c697a696e6760a81b606082015260800190565b634e487b7160e01b600052604160045260246000fd5b600181811c90821680611fe957607f821691505b60208210810361200957634e487b7160e01b600052602260045260246000fd5b50919050565b601f821115611a7057600081815260208120601f850160051c810160208610156120365750805b601f850160051c820191505b8181101561205557828155600101612042565b505050505050565b81516001600160401b0381111561207657612076611fbf565b61208a816120848454611fd5565b8461200f565b602080601f8311600181146120bf57600084156120a75750858301515b600019600386901b1c1916600185901b178555612055565b600085815260208120601f198616915b828110156120ee578886015182559484019460019091019084016120cf565b508582101561210c5787850151600019600388901b60f8161c191681555b5050505050600190811b0190555056fe3b5d4cc60d3ec3516ee8ae083bd60934f6eb2a6c54b1229985c41bfb092b2603e453bacb314e78dcd5192e6b1a2b1f0e7c76e92f6b7e429a6a90f04e39db3b7639f61ca2a1a28fee144218173ec637b649a353e4026b2738c673800e5bf1437bddf252ad1be2c89b69c2b068fc378daa952ba7f163c4a11628f55a4df523b3efa164736f6c6343000811000a",
  "devdoc": {
    "details": "See GainERC20v3Upgradeable contract for more details.*",
    "kind": "dev",
    "methods": {
      "allowance(address,address)": {
        "details": "Returns the remaining number of tokens that `spender` will be allowed to spend on behalf of `owner` through {transferFrom}. This is zero by default. This value changes when {approve} or {transferFrom} are called."
      },
      "approve(address,uint256)": {
        "details": "Sets `amount` as the allowance of `spender` over the caller's tokens. Returns a boolean value indicating whether the operation succeeded. IMPORTANT: Beware that changing an allowance with this method brings the risk that someone may use both the old and the new allowance by unfortunate transaction ordering. One possible solution to mitigate this race condition is to first reduce the spender's allowance to 0 and set the desired value afterwards: https://github.com/ethereum/EIPs/issues/20#issuecomment-263524729 Emits an {Approval} event."
      },
      "balanceOf(address)": {
        "details": "Returns the amount of tokens owned by `account`."
      },
      "cancelRedirectYieldAndHarvest()": {
        "details": "This function stops redirecting yield and harvests the current rewards for the caller"
      },
      "constructor": {
        "custom:oz-upgrades-unsafe-allow": "constructor"
      },
      "decimals()": {
        "details": "Returns the decimals places of the token."
      },
      "decreaseAllowance(address,uint256)": {
        "details": "Atomically decreases the allowance granted to `spender` by the caller. This is an alternative to {approve} that can be used as a mitigation for problems described in {IERC20-approve}. Emits an {Approval} event indicating the updated allowance. Requirements: - `spender` cannot be the zero address. - `spender` must have allowance for the caller of at least `subtractedValue`."
      },
      "getAccount(address)": {
        "returns": {
          "_0": "Info of account stored in stablecoin (user balances, rewardDebt, redirectYield)"
        }
      },
      "getYieldAPR()": {
        "details": "This function provides an estimate of the annual yield rate based on current rewards, especially for UI",
        "returns": {
          "_0": "The current yield APR expressed as a percentage with 18 decimal places"
        }
      },
      "harvest(address)": {
        "details": "This function calculates and transfers pending rewards to the account or its designated yield recipient. We won't make it private, because if user will send 1wei to any account, then harvest(to) will be called",
        "params": {
          "account": "The address of the account to harvest rewards for"
        }
      },
      "increaseAllowance(address,uint256)": {
        "details": "Atomically increases the allowance granted to `spender` by the caller. This is an alternative to {approve} that can be used as a mitigation for problems described in {IERC20-approve}. Emits an {Approval} event indicating the updated allowance. Requirements: - `spender` cannot be the zero address."
      },
      "mint(address,uint256)": {
        "details": "Mints 'amount' of tokens to address 'to', and MUST fire the Transfer event",
        "params": {
          "amount": "The amount of token to be minted*",
          "to": "The address of the recipient"
        }
      },
      "name()": {
        "details": "Returns the name of the token."
      },
      "pendingRewards(address)": {
        "details": "This function calculates rewards without updating the state",
        "params": {
          "account": "The address of the account to check pending rewards for"
        },
        "returns": {
          "_0": "The amount of pending rewards for the account"
        }
      },
      "redirectYieldAndHarvest(address)": {
        "details": "This function allows users to redirect their yield to another address and immediately harvest current rewards. To remove redirect just pass address(0) in argument",
        "params": {
          "to": "The address to redirect yield to (from msg.sender)"
        }
      },
      "redirectYieldAndHarvestByDAO(address,address)": {
        "details": "This function can only be called by the DAO and allows for administrative yield redirection",
        "params": {
          "from": "The address of the user whose yield is being redirected",
          "to": "The address to redirect the yield to"
        }
      },
      "refillReward(uint256,uint64)": {
        "details": "This function updates the reward per block and end block for the reward distribution",
        "params": {
          "amount": "The amount of tokens to add to the reward pool",
          "endBlock": "The block number at which the rewards will end"
        }
      },
      "supportsInterface(bytes4)": {
        "details": "Returns true if this contract implements the interface defined by `interfaceId`. See the corresponding https://eips.ethereum.org/EIPS/eip-165#how-interfaces-are-identified[EIP section] to learn more about how these ids are created. This function call must use less than 30 000 gas."
      },
      "symbol()": {
        "details": "Returns the symbol of the token."
      },
      "totalSupply()": {
        "details": "Returns the amount of tokens in existence."
      },
      "transfer(address,uint256)": {
        "details": "Moves `amount` tokens from the caller's account to `to`. Returns a boolean value indicating whether the operation succeeded. Emits a {Transfer} event."
      },
      "transferFrom(address,address,uint256)": {
        "details": "Moves `amount` tokens from `from` to `to` using the allowance mechanism. `amount` is then deducted from the caller's allowance. Returns a boolean value indicating whether the operation succeeded. Emits a {Transfer} event."
      },
      "updateRewardPool()": {
        "details": "This function should be called to update the accumulated rewards per share and the last reward block"
      }
    },
    "title": "StablePro",
    "version": 1
  },
  "userdoc": {
    "kind": "user",
    "methods": {
      "burn(address,uint256)": {
        "notice": "also vault is allowed to burn dollars of any account when user repays his loan and takes back his collateral*"
      },
      "burn(uint256)": {
        "notice": "dollars can be burned by manager but only his own dollars which managers will be using this feature? burning protocol fees?*"
      },
      "cancelRedirectYieldAndHarvest()": {
        "notice": "Cancels yield redirection and harvests current rewards"
      },
      "getAccount(address)": {
        "notice": "View function for UI"
      },
      "getYieldAPR()": {
        "notice": "Calculates the current yield Annual Percentage Rate (APR)"
      },
      "harvest(address)": {
        "notice": "Harvests rewards for a specified account"
      },
      "mint(address,uint256)": {
        "notice": "Only Vault can mint StablePro. Dollars can be minted by vault (once user deposited collateral)"
      },
      "pendingRewards(address)": {
        "notice": "Calculates the pending rewards for a given account"
      },
      "redirectYieldAndHarvest(address)": {
        "notice": "Redirects yield to a specified address and harvests current rewards"
      },
      "redirectYieldAndHarvestByDAO(address,address)": {
        "notice": "Allows the DAO to redirect yield for a user and harvest their rewards"
      },
      "refillReward(uint256,uint64)": {
        "notice": "Refills the \"moneybox\" with a specified amount of tokens"
      },
      "updateRewardPool()": {
        "notice": "Updates the reward pool state"
      }
    },
    "notice": "ERC-20 token with GainableERC20 feature",
    "version": 1
  },
  "storageLayout": {
    "storage": [
      {
        "astId": 1226,
        "contract": "contracts/USDPro.sol:USDPro",
        "label": "_initialized",
        "offset": 0,
        "slot": "0",
        "type": "t_uint8"
      },
      {
        "astId": 1229,
        "contract": "contracts/USDPro.sol:USDPro",
        "label": "_initializing",
        "offset": 1,
        "slot": "0",
        "type": "t_bool"
      },
      {
        "astId": 2368,
        "contract": "contracts/USDPro.sol:USDPro",
        "label": "__gap",
        "offset": 0,
        "slot": "1",
        "type": "t_array(t_uint256)50_storage"
      },
      {
        "astId": 25618,
        "contract": "contracts/USDPro.sol:USDPro",
        "label": "ACCESS_CONTROL_SINGLETON",
        "offset": 0,
        "slot": "51",
        "type": "t_contract(ISuAccessControl)32860"
      },
      {
        "astId": 25889,
        "contract": "contracts/USDPro.sol:USDPro",
        "label": "__gap",
        "offset": 0,
        "slot": "52",
        "type": "t_array(t_uint256)50_storage"
      },
      {
        "astId": 84938,
        "contract": "contracts/USDPro.sol:USDPro",
        "label": "accRewardPerShare",
        "offset": 0,
        "slot": "102",
        "type": "t_uint128"
      },
      {
        "astId": 84940,
        "contract": "contracts/USDPro.sol:USDPro",
        "label": "lastRewardBlock",
        "offset": 16,
        "slot": "102",
        "type": "t_uint64"
      },
      {
        "astId": 84945,
        "contract": "contracts/USDPro.sol:USDPro",
        "label": "_accounts",
        "offset": 0,
        "slot": "103",
        "type": "t_mapping(t_address,t_struct(IAccount)86195_storage)"
      },
      {
        "astId": 84951,
        "contract": "contracts/USDPro.sol:USDPro",
        "label": "_allowances",
        "offset": 0,
        "slot": "104",
        "type": "t_mapping(t_address,t_mapping(t_address,t_uint256))"
      },
      {
        "astId": 84953,
        "contract": "contracts/USDPro.sol:USDPro",
        "label": "_totalSupply",
        "offset": 0,
        "slot": "105",
        "type": "t_uint256"
      },
      {
        "astId": 84955,
        "contract": "contracts/USDPro.sol:USDPro",
        "label": "_name",
        "offset": 0,
        "slot": "106",
        "type": "t_string_storage"
      },
      {
        "astId": 84957,
        "contract": "contracts/USDPro.sol:USDPro",
        "label": "_symbol",
        "offset": 0,
        "slot": "107",
        "type": "t_string_storage"
      },
      {
        "astId": 84959,
        "contract": "contracts/USDPro.sol:USDPro",
        "label": "rewardPerBlock",
        "offset": 0,
        "slot": "108",
        "type": "t_uint256"
      },
      {
        "astId": 84961,
        "contract": "contracts/USDPro.sol:USDPro",
        "label": "rewardEndBlock",
        "offset": 0,
        "slot": "109",
        "type": "t_uint256"
      },
      {
        "astId": 86120,
        "contract": "contracts/USDPro.sol:USDPro",
        "label": "__gap",
        "offset": 0,
        "slot": "110",
        "type": "t_array(t_uint256)45_storage"
      }
    ],
    "types": {
      "t_address": {
        "encoding": "inplace",
        "label": "address",
        "numberOfBytes": "20"
      },
      "t_array(t_uint256)45_storage": {
        "base": "t_uint256",
        "encoding": "inplace",
        "label": "uint256[45]",
        "numberOfBytes": "1440"
      },
      "t_array(t_uint256)50_storage": {
        "base": "t_uint256",
        "encoding": "inplace",
        "label": "uint256[50]",
        "numberOfBytes": "1600"
      },
      "t_bool": {
        "encoding": "inplace",
        "label": "bool",
        "numberOfBytes": "1"
      },
      "t_contract(ISuAccessControl)32860": {
        "encoding": "inplace",
        "label": "contract ISuAccessControl",
        "numberOfBytes": "20"
      },
      "t_int256": {
        "encoding": "inplace",
        "label": "int256",
        "numberOfBytes": "32"
      },
      "t_mapping(t_address,t_mapping(t_address,t_uint256))": {
        "encoding": "mapping",
        "key": "t_address",
        "label": "mapping(address => mapping(address => uint256))",
        "numberOfBytes": "32",
        "value": "t_mapping(t_address,t_uint256)"
      },
      "t_mapping(t_address,t_struct(IAccount)86195_storage)": {
        "encoding": "mapping",
        "key": "t_address",
        "label": "mapping(address => struct IGainableERC20v3.IAccount)",
        "numberOfBytes": "32",
        "value": "t_struct(IAccount)86195_storage"
      },
      "t_mapping(t_address,t_uint256)": {
        "encoding": "mapping",
        "key": "t_address",
        "label": "mapping(address => uint256)",
        "numberOfBytes": "32",
        "value": "t_uint256"
      },
      "t_string_storage": {
        "encoding": "bytes",
        "label": "string",
        "numberOfBytes": "32"
      },
      "t_struct(IAccount)86195_storage": {
        "encoding": "inplace",
        "label": "struct IGainableERC20v3.IAccount",
        "members": [
          {
            "astId": 86190,
            "contract": "contracts/USDPro.sol:USDPro",
            "label": "balance",
            "offset": 0,
            "slot": "0",
            "type": "t_uint256"
          },
          {
            "astId": 86192,
            "contract": "contracts/USDPro.sol:USDPro",
            "label": "rewardDebt",
            "offset": 0,
            "slot": "1",
            "type": "t_int256"
          },
          {
            "astId": 86194,
            "contract": "contracts/USDPro.sol:USDPro",
            "label": "redirectYieldTo",
            "offset": 0,
            "slot": "2",
            "type": "t_address"
          }
        ],
        "numberOfBytes": "96"
      },
      "t_uint128": {
        "encoding": "inplace",
        "label": "uint128",
        "numberOfBytes": "16"
      },
      "t_uint256": {
        "encoding": "inplace",
        "label": "uint256",
        "numberOfBytes": "32"
      },
      "t_uint64": {
        "encoding": "inplace",
        "label": "uint64",
        "numberOfBytes": "8"
      },
      "t_uint8": {
        "encoding": "inplace",
        "label": "uint8",
        "numberOfBytes": "1"
      }
    }
  }
}