{
  "address": "0xe337e46e0384ae3FB04B77eaAa508F20524799b5",
  "abi": [
    {
      "inputs": [
        {
          "internalType": "address",
          "name": "_owner",
          "type": "address"
        },
        {
          "internalType": "address",
          "name": "_penaltyRecipient",
          "type": "address"
        },
        {
          "internalType": "address",
          "name": "_token",
          "type": "address"
        },
        {
          "internalType": "string",
          "name": "_name",
          "type": "string"
        },
        {
          "internalType": "string",
          "name": "_symbol",
          "type": "string"
        }
      ],
      "stateMutability": "nonpayable",
      "type": "constructor"
    },
    {
      "anonymous": false,
      "inputs": [
        {
          "indexed": false,
          "internalType": "uint256",
          "name": "amount",
          "type": "uint256"
        },
        {
          "indexed": true,
          "internalType": "address",
          "name": "recipient",
          "type": "address"
        }
      ],
      "name": "CollectPenalty",
      "type": "event"
    },
    {
      "anonymous": false,
      "inputs": [
        {
          "indexed": true,
          "internalType": "address",
          "name": "provider",
          "type": "address"
        },
        {
          "indexed": false,
          "internalType": "uint256",
          "name": "value",
          "type": "uint256"
        },
        {
          "indexed": false,
          "internalType": "uint256",
          "name": "locktime",
          "type": "uint256"
        },
        {
          "indexed": true,
          "internalType": "enum VotingEscrow.LockAction",
          "name": "action",
          "type": "uint8"
        },
        {
          "indexed": false,
          "internalType": "uint256",
          "name": "ts",
          "type": "uint256"
        }
      ],
      "name": "Deposit",
      "type": "event"
    },
    {
      "anonymous": false,
      "inputs": [
        {
          "indexed": true,
          "internalType": "address",
          "name": "owner",
          "type": "address"
        }
      ],
      "name": "TransferOwnership",
      "type": "event"
    },
    {
      "anonymous": false,
      "inputs": [],
      "name": "Unlock",
      "type": "event"
    },
    {
      "anonymous": false,
      "inputs": [
        {
          "indexed": true,
          "internalType": "address",
          "name": "blocklist",
          "type": "address"
        }
      ],
      "name": "UpdateBlocklist",
      "type": "event"
    },
    {
      "anonymous": false,
      "inputs": [
        {
          "indexed": true,
          "internalType": "address",
          "name": "recipient",
          "type": "address"
        }
      ],
      "name": "UpdatePenaltyRecipient",
      "type": "event"
    },
    {
      "anonymous": false,
      "inputs": [
        {
          "indexed": true,
          "internalType": "address",
          "name": "provider",
          "type": "address"
        },
        {
          "indexed": false,
          "internalType": "uint256",
          "name": "value",
          "type": "uint256"
        },
        {
          "indexed": true,
          "internalType": "enum VotingEscrow.LockAction",
          "name": "action",
          "type": "uint8"
        },
        {
          "indexed": false,
          "internalType": "uint256",
          "name": "ts",
          "type": "uint256"
        }
      ],
      "name": "Withdraw",
      "type": "event"
    },
    {
      "inputs": [],
      "name": "MAXTIME",
      "outputs": [
        {
          "internalType": "uint256",
          "name": "",
          "type": "uint256"
        }
      ],
      "stateMutability": "view",
      "type": "function"
    },
    {
      "inputs": [],
      "name": "MULTIPLIER",
      "outputs": [
        {
          "internalType": "uint256",
          "name": "",
          "type": "uint256"
        }
      ],
      "stateMutability": "view",
      "type": "function"
    },
    {
      "inputs": [],
      "name": "WEEK",
      "outputs": [
        {
          "internalType": "uint256",
          "name": "",
          "type": "uint256"
        }
      ],
      "stateMutability": "view",
      "type": "function"
    },
    {
      "inputs": [
        {
          "internalType": "address",
          "name": "_owner",
          "type": "address"
        }
      ],
      "name": "balanceOf",
      "outputs": [
        {
          "internalType": "uint256",
          "name": "",
          "type": "uint256"
        }
      ],
      "stateMutability": "view",
      "type": "function"
    },
    {
      "inputs": [
        {
          "internalType": "address",
          "name": "_owner",
          "type": "address"
        },
        {
          "internalType": "uint256",
          "name": "_blockNumber",
          "type": "uint256"
        }
      ],
      "name": "balanceOfAt",
      "outputs": [
        {
          "internalType": "uint256",
          "name": "",
          "type": "uint256"
        }
      ],
      "stateMutability": "view",
      "type": "function"
    },
    {
      "inputs": [],
      "name": "blocklist",
      "outputs": [
        {
          "internalType": "address",
          "name": "",
          "type": "address"
        }
      ],
      "stateMutability": "view",
      "type": "function"
    },
    {
      "inputs": [],
      "name": "checkpoint",
      "outputs": [],
      "stateMutability": "nonpayable",
      "type": "function"
    },
    {
      "inputs": [],
      "name": "collectPenalty",
      "outputs": [],
      "stateMutability": "nonpayable",
      "type": "function"
    },
    {
      "inputs": [
        {
          "internalType": "uint256",
          "name": "_value",
          "type": "uint256"
        },
        {
          "internalType": "uint256",
          "name": "_unlockTime",
          "type": "uint256"
        }
      ],
      "name": "createLock",
      "outputs": [],
      "stateMutability": "nonpayable",
      "type": "function"
    },
    {
      "inputs": [],
      "name": "decimals",
      "outputs": [
        {
          "internalType": "uint256",
          "name": "",
          "type": "uint256"
        }
      ],
      "stateMutability": "view",
      "type": "function"
    },
    {
      "inputs": [
        {
          "internalType": "address",
          "name": "_addr",
          "type": "address"
        }
      ],
      "name": "delegate",
      "outputs": [],
      "stateMutability": "nonpayable",
      "type": "function"
    },
    {
      "inputs": [
        {
          "internalType": "address",
          "name": "_addr",
          "type": "address"
        }
      ],
      "name": "forceUndelegate",
      "outputs": [],
      "stateMutability": "nonpayable",
      "type": "function"
    },
    {
      "inputs": [
        {
          "internalType": "address",
          "name": "_addr",
          "type": "address"
        }
      ],
      "name": "getLastUserPoint",
      "outputs": [
        {
          "internalType": "int128",
          "name": "bias",
          "type": "int128"
        },
        {
          "internalType": "int128",
          "name": "slope",
          "type": "int128"
        },
        {
          "internalType": "uint256",
          "name": "ts",
          "type": "uint256"
        }
      ],
      "stateMutability": "view",
      "type": "function"
    },
    {
      "inputs": [
        {
          "internalType": "uint256",
          "name": "end",
          "type": "uint256"
        }
      ],
      "name": "getPenaltyRate",
      "outputs": [
        {
          "internalType": "uint256",
          "name": "",
          "type": "uint256"
        }
      ],
      "stateMutability": "view",
      "type": "function"
    },
    {
      "inputs": [],
      "name": "globalEpoch",
      "outputs": [
        {
          "internalType": "uint256",
          "name": "",
          "type": "uint256"
        }
      ],
      "stateMutability": "view",
      "type": "function"
    },
    {
      "inputs": [
        {
          "internalType": "uint256",
          "name": "_value",
          "type": "uint256"
        }
      ],
      "name": "increaseAmount",
      "outputs": [],
      "stateMutability": "nonpayable",
      "type": "function"
    },
    {
      "inputs": [
        {
          "internalType": "uint256",
          "name": "_unlockTime",
          "type": "uint256"
        }
      ],
      "name": "increaseUnlockTime",
      "outputs": [],
      "stateMutability": "nonpayable",
      "type": "function"
    },
    {
      "inputs": [
        {
          "internalType": "address",
          "name": "_addr",
          "type": "address"
        }
      ],
      "name": "lockEnd",
      "outputs": [
        {
          "internalType": "uint256",
          "name": "",
          "type": "uint256"
        }
      ],
      "stateMutability": "view",
      "type": "function"
    },
    {
      "inputs": [
        {
          "internalType": "address",
          "name": "",
          "type": "address"
        }
      ],
      "name": "locked",
      "outputs": [
        {
          "internalType": "int128",
          "name": "amount",
          "type": "int128"
        },
        {
          "internalType": "int128",
          "name": "delegated",
          "type": "int128"
        },
        {
          "internalType": "uint96",
          "name": "end",
          "type": "uint96"
        },
        {
          "internalType": "address",
          "name": "delegatee",
          "type": "address"
        }
      ],
      "stateMutability": "view",
      "type": "function"
    },
    {
      "inputs": [],
      "name": "maxPenalty",
      "outputs": [
        {
          "internalType": "uint256",
          "name": "",
          "type": "uint256"
        }
      ],
      "stateMutability": "view",
      "type": "function"
    },
    {
      "inputs": [],
      "name": "name",
      "outputs": [
        {
          "internalType": "string",
          "name": "",
          "type": "string"
        }
      ],
      "stateMutability": "view",
      "type": "function"
    },
    {
      "inputs": [],
      "name": "owner",
      "outputs": [
        {
          "internalType": "address",
          "name": "",
          "type": "address"
        }
      ],
      "stateMutability": "view",
      "type": "function"
    },
    {
      "inputs": [],
      "name": "penaltyAccumulated",
      "outputs": [
        {
          "internalType": "uint256",
          "name": "",
          "type": "uint256"
        }
      ],
      "stateMutability": "view",
      "type": "function"
    },
    {
      "inputs": [],
      "name": "penaltyRecipient",
      "outputs": [
        {
          "internalType": "address",
          "name": "",
          "type": "address"
        }
      ],
      "stateMutability": "view",
      "type": "function"
    },
    {
      "inputs": [
        {
          "internalType": "uint256",
          "name": "",
          "type": "uint256"
        }
      ],
      "name": "pointHistory",
      "outputs": [
        {
          "internalType": "int128",
          "name": "bias",
          "type": "int128"
        },
        {
          "internalType": "int128",
          "name": "slope",
          "type": "int128"
        },
        {
          "internalType": "uint256",
          "name": "ts",
          "type": "uint256"
        },
        {
          "internalType": "uint256",
          "name": "blk",
          "type": "uint256"
        }
      ],
      "stateMutability": "view",
      "type": "function"
    },
    {
      "inputs": [],
      "name": "quitLock",
      "outputs": [],
      "stateMutability": "nonpayable",
      "type": "function"
    },
    {
      "inputs": [
        {
          "internalType": "uint256",
          "name": "",
          "type": "uint256"
        }
      ],
      "name": "slopeChanges",
      "outputs": [
        {
          "internalType": "int128",
          "name": "",
          "type": "int128"
        }
      ],
      "stateMutability": "view",
      "type": "function"
    },
    {
      "inputs": [],
      "name": "supply",
      "outputs": [
        {
          "internalType": "uint256",
          "name": "",
          "type": "uint256"
        }
      ],
      "stateMutability": "view",
      "type": "function"
    },
    {
      "inputs": [],
      "name": "symbol",
      "outputs": [
        {
          "internalType": "string",
          "name": "",
          "type": "string"
        }
      ],
      "stateMutability": "view",
      "type": "function"
    },
    {
      "inputs": [],
      "name": "token",
      "outputs": [
        {
          "internalType": "contract IERC20",
          "name": "",
          "type": "address"
        }
      ],
      "stateMutability": "view",
      "type": "function"
    },
    {
      "inputs": [],
      "name": "totalSupply",
      "outputs": [
        {
          "internalType": "uint256",
          "name": "",
          "type": "uint256"
        }
      ],
      "stateMutability": "view",
      "type": "function"
    },
    {
      "inputs": [
        {
          "internalType": "uint256",
          "name": "_blockNumber",
          "type": "uint256"
        }
      ],
      "name": "totalSupplyAt",
      "outputs": [
        {
          "internalType": "uint256",
          "name": "",
          "type": "uint256"
        }
      ],
      "stateMutability": "view",
      "type": "function"
    },
    {
      "inputs": [
        {
          "internalType": "address",
          "name": "_addr",
          "type": "address"
        }
      ],
      "name": "transferOwnership",
      "outputs": [],
      "stateMutability": "nonpayable",
      "type": "function"
    },
    {
      "inputs": [],
      "name": "unlock",
      "outputs": [],
      "stateMutability": "nonpayable",
      "type": "function"
    },
    {
      "inputs": [
        {
          "internalType": "address",
          "name": "_addr",
          "type": "address"
        }
      ],
      "name": "updateBlocklist",
      "outputs": [],
      "stateMutability": "nonpayable",
      "type": "function"
    },
    {
      "inputs": [
        {
          "internalType": "address",
          "name": "_addr",
          "type": "address"
        }
      ],
      "name": "updatePenaltyRecipient",
      "outputs": [],
      "stateMutability": "nonpayable",
      "type": "function"
    },
    {
      "inputs": [
        {
          "internalType": "address",
          "name": "",
          "type": "address"
        }
      ],
      "name": "userPointEpoch",
      "outputs": [
        {
          "internalType": "uint256",
          "name": "",
          "type": "uint256"
        }
      ],
      "stateMutability": "view",
      "type": "function"
    },
    {
      "inputs": [
        {
          "internalType": "address",
          "name": "",
          "type": "address"
        },
        {
          "internalType": "uint256",
          "name": "",
          "type": "uint256"
        }
      ],
      "name": "userPointHistory",
      "outputs": [
        {
          "internalType": "int128",
          "name": "bias",
          "type": "int128"
        },
        {
          "internalType": "int128",
          "name": "slope",
          "type": "int128"
        },
        {
          "internalType": "uint256",
          "name": "ts",
          "type": "uint256"
        },
        {
          "internalType": "uint256",
          "name": "blk",
          "type": "uint256"
        }
      ],
      "stateMutability": "view",
      "type": "function"
    },
    {
      "inputs": [],
      "name": "withdraw",
      "outputs": [],
      "stateMutability": "nonpayable",
      "type": "function"
    }
  ],
  "transactionHash": "0xdff1529c00811818a1f6eb31787943abf398228c135069d0bc2a7957bb301753",
  "args": [
    "0xbd39bed6F15Ea5D1eF198Fcbb53285c7CCccbBe4",
    "0xbd39bed6F15Ea5D1eF198Fcbb53285c7CCccbBe4",
    "0x004588061bcAb733d74286EB18D4d0D87881d9B5",
    "Voting Escrow SuDAO",
    "VeSuDAO"
  ],
  "numDeployments": 1,
  "solcInputHash": "82e45e96aa5184ebf4623be56fe14269",
  "bytecode": "0x60a0604052670de0b6b3a76400006003553480156200001d57600080fd5b506040516200400138038062004001833981016040819052620000409162000294565b600160009081556001600160a01b0384166080818152604080519182018152838252602080830185905242838301819052436060909401849052600895909555600994909455600a91909155805163313ce56760e01b81529051919263313ce567926004808401938290030181865afa158015620000c2573d6000803e3d6000fd5b505050506040513d601f19601f82011682018060405250810190620000e8919062000337565b60ff166729a2241af62c000e819055601210156200014c5760405162461bcd60e51b815260206004820152601460248201527f45786365656473206d617820646563696d616c73000000000000000000000000604482015260640160405180910390fd5b6729a2241af62c000c620001618382620003f2565b506729a2241af62c000d620001778282620003f2565b5050600180546001600160a01b039586166001600160a01b031991821617909155600280549490951693169290921790925550620004be9050565b80516001600160a01b0381168114620001ca57600080fd5b919050565b634e487b7160e01b600052604160045260246000fd5b600082601f830112620001f757600080fd5b81516001600160401b0380821115620002145762000214620001cf565b604051601f8301601f19908116603f011681019082821181831017156200023f576200023f620001cf565b816040528381526020925086838588010111156200025c57600080fd5b600091505b8382101562000280578582018301518183018401529082019062000261565b600093810190920192909252949350505050565b600080600080600060a08688031215620002ad57600080fd5b620002b886620001b2565b9450620002c860208701620001b2565b9350620002d860408701620001b2565b60608701519093506001600160401b0380821115620002f657600080fd5b6200030489838a01620001e5565b935060808801519150808211156200031b57600080fd5b506200032a88828901620001e5565b9150509295509295909350565b6000602082840312156200034a57600080fd5b815160ff811681146200035c57600080fd5b9392505050565b600181811c908216806200037857607f821691505b6020821081036200039957634e487b7160e01b600052602260045260246000fd5b50919050565b601f821115620003ed57600081815260208120601f850160051c81016020861015620003c85750805b601f850160051c820191505b81811015620003e957828155600101620003d4565b5050505b505050565b81516001600160401b038111156200040e576200040e620001cf565b62000426816200041f845462000363565b846200039f565b602080601f8311600181146200045e5760008415620004455750858301515b600019600386901b1c1916600185901b178555620003e9565b600085815260208120601f198616915b828110156200048f578886015182559484019460019091019084016200046e565b5085821015620004ae5787850151600019600388901b60f8161c191681555b5050505050600190811b01905550565b608051613b04620004fd6000396000818161057a01528181610a6801528181610d4901528181610f9101528181611a5901526122ea0152613b046000f3fe608060405234801561001057600080fd5b50600436106101cd5760003560e01c8063012caae1146101d2578063047fc9aa146101fb578063059f8b161461021257806306fdde031461022157806315456eba1461023657806318160ddd1461024b5780632379227914610253578063313ce5671461028f57806334d901a41461029f578063391cc9f6146102da57806339f22f6b146102ed5780633ccfd60b146102f55780634684532e146102fd5780634ee2cd7e146103105780635200e79e146103235780635719098b1461032c5780635c19a95c1461033557806370a082311461034857806375c54eda1461035b5780637c616fe61461036357806381fc83bb146103765780638ad4c4471461039d5780638da5cb5b146103b057806392e93526146103c357806395d89b41146103d6578063981b24d0146103de578063a69df4b5146103f1578063b52c05fe146103f9578063c2c4c5c11461040c578063c4698ee514610414578063cbf9fe5f1461044a578063d64e5396146104e1578063e4890711146104f4578063ee00ef3a14610507578063f2fde38b14610512578063f4359ce514610525578063f52a36f71461052f578063f6ab9d811461056c578063fc0c546a14610575575b600080fd5b6002546101e5906001600160a01b031681565b6040516101f291906135c1565b60405180910390f35b61020460065481565b6040519081526020016101f2565b610204670de0b6b3a764000081565b61022961059c565b6040516101f291906135f9565b61024961024436600461362c565b610631565b005b610204610ae7565b610204610261366004613661565b6001600160a01b031660009081526729a2241af62c000b60205260409020600101546001600160601b031690565b6102046729a2241af62c000e5481565b6102b26102ad366004613683565b610b5e565b60408051600f95860b81529390940b60208401529282015260608101919091526080016101f2565b6102496102e8366004613661565b610bac565b610249610d2b565b610249610db7565b61024961030b366004613661565b610ff1565b61020461031e366004613683565b611065565b61020460035481565b61020460075481565b610249610343366004613661565b6112fc565b610204610356366004613661565b61175d565b61024961184b565b61024961037136600461362c565b611aba565b610204610384366004613661565b6729a2241af62c00096020526000908152604090205481565b6102b26103ab36600461362c565b611d51565b6001546101e5906001600160a01b031681565b6102046103d136600461362c565b611d90565b610229611d9b565b6102046103ec36600461362c565b611daf565b610249611f9f565b6102496104073660046136ad565b611ff9565b610249612357565b610427610422366004613661565b61236b565b60408051600f94850b81529290930b6020830152918101919091526060016101f2565b6104a3610458366004613661565b6729a2241af62c000b6020526000908152604090208054600190910154600f82810b92600160801b9004900b906001600160601b03811690600160601b90046001600160a01b031684565b60408051600f95860b81529390940b60208401526001600160601b03909116928201929092526001600160a01b0390911660608201526080016101f2565b6005546101e5906001600160a01b031681565b610249610502366004613661565b612434565b6102046303c2670081565b610249610520366004613661565b6124a8565b61020462093a8081565b61055961053d36600461362c565b6729a2241af62c000a60205260009081526040902054600f0b81565b604051600f9190910b81526020016101f2565b61020460045481565b6101e57f000000000000000000000000000000000000000000000000000000000000000081565b6729a2241af62c000c80546105b0906136cf565b80601f01602080910402602001604051908101604052809291908181526020018280546105dc906136cf565b80156106295780601f106105fe57610100808354040283529160200191610629565b820191906000526020600020905b81548152906001019060200180831161060c57829003601f168201915b505050505081565b61063961251c565b60055460405163fbac395160e01b81526001600160a01b039091169063fbac3951906106699033906004016135c1565b602060405180830381865afa158015610686573d6000803e3d6000fd5b505050506040513d601f19601f820116820180604052508101906106aa9190613709565b156106d05760405162461bcd60e51b81526004016106c79061372b565b60405180910390fd5b3360009081526729a2241af62c000b6020908152604080832081516080810183528154600f81810b8352600160801b909104900b93810193909352600101546001600160601b03811691830191909152600160601b90046001600160a01b03166060820152908290036107555760405162461bcd60e51b81526004016106c790613755565b60008160000151600f0b1361077c5760405162461bcd60e51b81526004016106c790613783565b4281604001516001600160601b0316116107a85760405162461bcd60e51b81526004016106c7906137a4565b816006546107b691906137e0565b600655606081015160408201516001600160601b031660016107d661356c565b336001600160a01b0385160361088657600291506107f385612575565b80519091506108039087906137f3565b600f0b815260208101516108189087906137f3565b600f0b60208083019182523360009081526729a2241af62c000b909152604090819020835192516001600160801b03908116600160801b02931692909217825582015160608301516001600160a01b0316600160601b026001600160601b0390911617600190910155610a50565b84516108939087906137f3565b600f90810b86523360009081526729a2241af62c000b602090815260408083208951838b01516001600160801b03908116600160801b90810291909216178255828b015160609b8c01516001600160a01b03908116600160601b9081026001600160601b03938416176001958601558c8216885285882086516080810188528154808c0b808352969004909a0b978a01979097529590930154908116938701939093529290910416978301979097529095136109615760405162461bcd60e51b81526004016106c790613820565b4285604001516001600160601b03161161098d5760405162461bcd60e51b81526004016106c79061384f565b61099685612575565b90508581602001516109a891906137f3565b600f0b60208083019182526001600160a01b0380871660009081526729a2241af62c000b909252604091829020845193516001600160801b03908116600160801b029416939093178355908301516060840151909116600160601b026001600160601b03909116176001909101556006846001600160a01b0316600080516020613ab883398151915288846040015142604051610a4793929190613895565b60405180910390a35b610a5b8486836125cd565b610a906001600160a01b037f000000000000000000000000000000000000000000000000000000000000000016333089612ce3565b816007811115610aa257610aa261387f565b336001600160a01b0316600080516020613ab8833981519152888642604051610acd939291906138b4565b60405180910390a35050505050610ae46001600055565b50565b60075460009081600882670de0b6b3a76400008110610b0857610b086138ca565b60408051608081018252600392909202929092018054600f81810b8452600160801b909104900b602083015260018101549282019290925260029091015460608201529050610b578142612d4e565b9250505090565b6729a2241af62c000860205281600052604060002081633b9aca008110610b8457600080fd5b6003020180546001820154600290920154600f82810b9550600160801b90920490910b925084565b6005546001600160a01b03163314610bf75760405162461bcd60e51b815260206004820152600e60248201526d13db9b1e48109b1bd8dadb1a5cdd60921b60448201526064016106c7565b6001600160a01b0380821660008181526729a2241af62c000b602090815260409182902082516080810184528154600f81810b808452600160801b909204900b938201939093526001909101546001600160601b03811693820193909352600160601b90920490931660608201819052909290918214801590610c7d5750600081600f0b135b15610d2557610c8a61356c565b506001600160a01b0380851660608086019190915283821660009081526729a2241af62c000b602090815260409182902082516080810184528154600f81810b8352600160801b909104900b92810192909252600101546001600160601b038116828401819052600160601b90910490941692810192909252850191909152610d168382846007612e39565b610d238585846006612e39565b505b50505050565b6004805460009091556002546001600160a01b0390811690610d70907f0000000000000000000000000000000000000000000000000000000000000000168284612fa9565b806001600160a01b03167fabef55bd3931568707a1758ae67679779c66d9deaa23e8bbad8974e421035d6083604051610dab91815260200190565b60405180910390a25050565b610dbf61251c565b3360009081526729a2241af62c000b6020908152604080832081516080810183528154600f81810b808452600160801b909204900b948201949094526001909101546001600160601b03811692820192909252600160601b9091046001600160a01b031660608201529112610e465760405162461bcd60e51b81526004016106c790613783565b4281604001516001600160601b03161115610e965760405162461bcd60e51b815260206004820152601060248201526f131bd8dac81b9bdd08195e1c1a5c995960821b60448201526064016106c7565b60608101516001600160a01b03163314610ec25760405162461bcd60e51b81526004016106c7906138e0565b80516006546001600160801b0390911690610ede908290613908565b6006556000610eec83612575565b6000808252604082015283516020820151919250610f099161391b565b600f0b6020808301918252600060608401818152338083526729a2241af62c000b9093526040808320865186516001600160801b03908116600160801b0291161781559086015191516001600160a01b0316600160601b026001600160601b0390921691909117600190910155909152610f849084836125cd565b610fb86001600160a01b037f0000000000000000000000000000000000000000000000000000000000000000163384612fa9565b6004604080518481524260208201523391600080516020613ad8833981519152910160405180910390a3505050610fef6001600055565b565b6001546001600160a01b0316331461101b5760405162461bcd60e51b81526004016106c790613948565b600580546001600160a01b0319166001600160a01b0383169081179091556040517fb089f68ad820a83477076ed7bca5d94c6a56c0c85e82b7ed8df87507a1d6198b90600090a250565b6000438211156110875760405162461bcd60e51b81526004016106c79061396c565b60006110938484612fde565b9050806000036110a75760009150506112f6565b6001600160a01b03841660009081526729a2241af62c00086020526040812082633b9aca0081106110da576110da6138ca565b60408051608081018252600392909202929092018054600f81810b8452600160801b909104900b60208301526001810154928201929092526002909101546060820152600754909150600061112f86836130a4565b90506000600882670de0b6b3a7640000811061114d5761114d6138ca565b60408051608081018252600392909202929092018054600f81810b8452600160801b909104900b6020830152600181015492820192909252600290910154606082015290506000808484101561123757600060086111ac8660016137e0565b670de0b6b3a764000081106111c3576111c36138ca565b60408051608081018252600392909202929092018054600f81810b8452600160801b909104900b602083015260018101549282019290925260029091015460608083018290528601519192506112199190613908565b92508360400151816040015161122f9190613908565b91505061125b565b60608301516112469043613908565b91508260400151426112589190613908565b90505b60408301518215611298578284606001518b6112779190613908565b611281908461399c565b61128b91906139c9565b61129590826137e0565b90505b60408701516112a79082613908565b87602001516112b691906139dd565b87516112c2919061391b565b600f0b8088526000136112e957505093516001600160801b031695506112f6945050505050565b6000985050505050505050505b92915050565b61130461251c565b60055460405163fbac395160e01b81526001600160a01b039091169063fbac3951906113349033906004016135c1565b602060405180830381865afa158015611351573d6000803e3d6000fd5b505050506040513d601f19601f820116820180604052508101906113759190613709565b156113925760405162461bcd60e51b81526004016106c79061372b565b3360008181526729a2241af62c000b602090815260409182902082516080810184528154600f81810b8352600160801b909104900b92810192909252600101546001600160601b038116928201929092526001600160a01b03600160601b9092048216606082015291908316036114115761140b613127565b50611753565b60055460405163fbac395160e01b81526001600160a01b039091169063fbac3951906114419085906004016135c1565b602060405180830381865afa15801561145e573d6000803e3d6000fd5b505050506040513d601f19601f820116820180604052508101906114829190613709565b1561149f5760405162461bcd60e51b81526004016106c79061372b565b60008160000151600f0b136114c65760405162461bcd60e51b81526004016106c790613783565b4281604001516001600160601b0316116114f25760405162461bcd60e51b81526004016106c7906137a4565b816001600160a01b031681606001516001600160a01b03160361154b5760405162461bcd60e51b8152602060048201526011602482015270105b1c9958591e4819195b1959d85d1959607a1b60448201526064016106c7565b8051606080830180516001600160a01b0380871660008181526729a2241af62c000b602090815260409182902082516080810184528154600f81810b8352600160801b909104900b92810192909252600101546001600160601b03811692820192909252600160601b909104831695810195909552909252919082163314611678573360009081526729a2241af62c000b602090815260408083208751838901516001600160801b03908116600160801b90810291909216178255828901516060998a01516001600160a01b03908116600160601b9081026001600160601b039384161760019586015589821688529685902085516080810187528154600f81810b835295900490940b968401969096529490920154918216928101929092529290920416948101949094525b60008160000151600f0b1361169f5760405162461bcd60e51b81526004016106c790613820565b4281604001516001600160601b0316116116cb5760405162461bcd60e51b81526004016106c79061384f565b83604001516001600160601b031681604001516001600160601b031610156117345760405162461bcd60e51b815260206004820152601c60248201527b4f6e6c792064656c656761746520746f206c6f6e676572206c6f636b60201b60448201526064016106c7565b6117418285856007612e39565b61174e8582856006612e39565b505050505b610ae46001600055565b6001600160a01b03811660009081526729a2241af62c0009602052604081205480820361178d5750600092915050565b6001600160a01b03831660009081526729a2241af62c00086020526040812082633b9aca0081106117c0576117c06138ca565b60408051608081018252600392909202929092018054600f81810b8452600160801b909104900b60208301526001810154928201839052600201546060820152915061180c9042613908565b816020015161181b91906139dd565b8151611827919061391b565b600f0b8082526000131561183a57600081525b516001600160801b03169392505050565b61185361251c565b3360009081526729a2241af62c000b6020908152604080832081516080810183528154600f81810b808452600160801b909204900b948201949094526001909101546001600160601b03811692820192909252600160601b9091046001600160a01b0316606082015291126118da5760405162461bcd60e51b81526004016106c790613783565b4281604001516001600160601b0316116119065760405162461bcd60e51b81526004016106c7906137a4565b60608101516001600160a01b031633146119325760405162461bcd60e51b81526004016106c7906138e0565b80516006546001600160801b039091169061194e908290613908565b600655600061195c83612575565b60008152835160208201519192506119739161391b565b600f0b6020808301918252600060608401818152338083526729a2241af62c000b9093526040808320865186516001600160801b03908116600160801b029116178155908601805192516001600160a01b0316600160601b026001600160601b03909316929092176001909101558190529091526119f29084836125cd565b6000611a0a84604001516001600160601b03166132c3565b90506000670de0b6b3a7640000611a21838661399c565b611a2b91906139c9565b905080600454611a3b91906137e0565b6004556000611a4a8286613908565b9050611a806001600160a01b037f0000000000000000000000000000000000000000000000000000000000000000163383612fa9565b6005604080518781524260208201523391600080516020613ad8833981519152910160405180910390a3505050505050610fef6001600055565b611ac261251c565b60055460405163fbac395160e01b81526001600160a01b039091169063fbac395190611af29033906004016135c1565b602060405180830381865afa158015611b0f573d6000803e3d6000fd5b505050506040513d601f19601f82011682018060405250810190611b339190613709565b15611b505760405162461bcd60e51b81526004016106c79061372b565b3360009081526729a2241af62c000b6020908152604080832081516080810183528154600f81810b8352600160801b909104900b93810193909352600101546001600160601b03811691830191909152600160601b90046001600160a01b0316606082015290611bbf836132ed565b905060008260000151600f0b13611be85760405162461bcd60e51b81526004016106c790613783565b4282604001516001600160601b031611611c145760405162461bcd60e51b81526004016106c7906137a4565b81604001516001600160601b03168111611c405760405162461bcd60e51b81526004016106c790613a04565b611c4e6303c26700426137e0565b811115611c6d5760405162461bcd60e51b81526004016106c790613a34565b604080830180516001600160601b0384811683523360009081526729a2241af62c000b60209081529481208751958801516001600160801b03818116600160801b029716969096178155935160608801516001600160a01b0316600160601b02908316176001909401939093551691600f0b1315611d0e576000611cf084612575565b6001600160601b03831660408201529050611d0c3382866125cd565b505b6003336001600160a01b0316600080516020613ab883398151915260008542604051611d3c939291906138b4565b60405180910390a3505050610ae46001600055565b600881670de0b6b3a76400008110611d6857600080fd5b6003020180546001820154600290920154600f82810b9450600160801b90920490910b919084565b60006112f6826132c3565b6729a2241af62c000d80546105b0906136cf565b600043821115611dd15760405162461bcd60e51b81526004016106c79061396c565b6007546000611de084836130a4565b90506000600882670de0b6b3a76400008110611dfe57611dfe6138ca565b60408051608081018252600392909202929092018054600f81810b8452600160801b909104900b602083015260018101549282019290925260029091015460608201819052909150851015611e5857506000949350505050565b600083831015611f2d5760006008611e718560016137e0565b670de0b6b3a76400008110611e8857611e886138ca565b60408051608081018252600392909202929092018054600f81810b8452600160801b909104900b6020830152600181015492820192909252600290910154606080830182905285015191925014611f275782606001518160600151611eed9190613908565b83604001518260400151611f019190613908565b6060850151611f10908a613908565b611f1a919061399c565b611f2491906139c9565b91505b50611f7c565b43826060015114611f7c576060820151611f479043613908565b6040830151611f569042613908565b6060840151611f659089613908565b611f6f919061399c565b611f7991906139c9565b90505b611f9582828460400151611f9091906137e0565b612d4e565b9695505050505050565b6001546001600160a01b03163314611fc95760405162461bcd60e51b81526004016106c790613948565b600060038190556040517f70e3fffea7bbb557facdee48ed7f7af5179030adef9ad0c876df039a718f359e9190a1565b61200161251c565b60055460405163fbac395160e01b81526001600160a01b039091169063fbac3951906120319033906004016135c1565b602060405180830381865afa15801561204e573d6000803e3d6000fd5b505050506040513d601f19601f820116820180604052508101906120729190613709565b1561208f5760405162461bcd60e51b81526004016106c79061372b565b600061209a826132ed565b3360009081526729a2241af62c000b6020908152604080832081516080810183528154600f81810b8352600160801b909104900b93810193909352600101546001600160601b03811691830191909152600160601b90046001600160a01b031660608201529192508490036121215760405162461bcd60e51b81526004016106c790613755565b8051600f0b156121615760405162461bcd60e51b815260206004820152600b60248201526a4c6f636b2065786973747360a81b60448201526064016106c7565b80604001516001600160601b031682101561218e5760405162461bcd60e51b81526004016106c790613a04565b4282116121d45760405162461bcd60e51b815260206004820152601460248201527313db9b1e48199d5d1d5c99481b1bd8dac8195b9960621b60448201526064016106c7565b6121e26303c26700426137e0565b8211156122015760405162461bcd60e51b81526004016106c790613a34565b8360065461220f91906137e0565b600655805161221f9085906137f3565b600f0b81526001600160601b038216604082015260208101516122439085906137f3565b600f0b602080830191825233606080850182815260008381526729a2241af62c000b85526040808220885197516001600160801b03908116600160801b0298169790971787558088015192516001600160a01b0316600160601b026001600160601b0390931692909217600190960195909555805160808101825285815293840185905283018490528201929092526122dd9190836125cd565b6123126001600160a01b037f000000000000000000000000000000000000000000000000000000000000000016333087612ce3565b6000336001600160a01b0316600080516020613ab883398151915286854260405161233f939291906138b4565b60405180910390a350506123536001600055565b5050565b61235f61356c565b610ae4600082836125cd565b6001600160a01b03811660009081526729a2241af62c00096020526040812054819081908082036123a75760008060009350935093505061242d565b6001600160a01b03851660009081526729a2241af62c00086020526040812082633b9aca0081106123da576123da6138ca565b60408051608081018252600392909202929092018054600f81810b808552600160801b909204900b6020840181905260018301549484018590526002909201546060909301929092529096509450925050505b9193909250565b6001546001600160a01b0316331461245e5760405162461bcd60e51b81526004016106c790613948565b600280546001600160a01b0319166001600160a01b0383169081179091556040517ff5fad27d0b1a5f45f08a652a1e4502d75974a852e28d3502d4a978b7cfd900ba90600090a250565b6001546001600160a01b031633146124d25760405162461bcd60e51b81526004016106c790613948565b600180546001600160a01b0319166001600160a01b0383169081179091556040517fcfaaa26691e16e66e73290fc725eee1a6b4e0e693a1640484937aac25ffb55a490600090a250565b60026000540361256e5760405162461bcd60e51b815260206004820152601f60248201527f5265656e7472616e637947756172643a207265656e7472616e742063616c6c0060448201526064016106c7565b6002600055565b61257d61356c565b60405180608001604052808360000151600f0b81526020018360200151600f0b815260200183604001516001600160601b0316815260200183606001516001600160a01b03168152509050919050565b6125d5613593565b6125dd613593565b60075460009081906001600160a01b03881615612831574287604001516001600160601b0316118015612617575060008760200151600f0b135b15612666576303c2670087602001516126309190613a5d565b600f0b602086015260408701516126519042906001600160601b0316613908565b856020015161266091906139dd565b600f0b85525b4286604001516001600160601b0316118015612689575060008660200151600f0b135b156126d8576303c2670086602001516126a29190613a5d565b600f0b602085015260408601516126c39042906001600160601b0316613908565b84602001516126d291906139dd565b600f0b84525b6001600160a01b03881660009081526729a2241af62c000960205260409020546127038160016137e0565b6001600160a01b038a1660008181526729a2241af62c0009602090815260408083209490945542898501524360608a01529181526729a2241af62c00089091522085906127518360016137e0565b633b9aca008110612764576127646138ca565b82516020808501516001600160801b03908116600160801b02921691909117600392909202929092019081556040808401516001830155606090930151600290910155898201516001600160601b0390811660009081526729a2241af62c000a909252908290205491890151600f9290920b9550161561282f5787604001516001600160601b031687604001516001600160601b0316036128075783925061282f565b6040808801516001600160601b031660009081526729a2241af62c000a6020522054600f0b92505b505b6040805160808101825260008082526020820152429181019190915243606082015281156128b957600882670de0b6b3a76400008110612873576128736138ca565b60408051608081018252600392909202929092018054600f81810b8452600160801b909104900b6020830152600181015492820192909252600290910154606082015290505b6040808201805182516080810184526000808252602082018190528351948201949094526060808601519082015291519092904211156129305760408401516129029042613908565b60608501516129119043613908565b61292390670de0b6b3a764000061399c565b61292d91906139c9565b90505b600061293b846132ed565b905060005b60ff811015612ac85761295662093a80836137e0565b915060004283111561296a57429250612985565b5060008281526729a2241af62c000a6020526040902054600f0b5b60006129918785613908565b88602001516129a091906139dd565b88519091506129b090829061391b565b600f0b885260208801516129c59083906137f3565b600f90810b60208a015288516000910b12156129e057600088525b60008860200151600f0b12156129f857600060208901525b60408089018590528601519396508693670de0b6b3a764000090612a1c9086613908565b612a26908761399c565b612a3091906139c9565b8660600151612a3f91906137e0565b6060890152612a4f8960016137e0565b9850428403612a65575050436060870152612ac8565b8760088a670de0b6b3a76400008110612a8057612a806138ca565b825160208401516001600160801b03908116600160801b0291161760039190910291909101908155604082015160018201556060909101516002909101555050600101612940565b5060078690556001600160a01b038d1615612b5557896020015189602001518660200151612af691906137f3565b612b00919061391b565b600f0b6020860152895189518651612b1891906137f3565b612b22919061391b565b600f90810b865260208601516000910b1215612b4057600060208601525b60008560000151600f0b1215612b5557600085525b84600887670de0b6b3a76400008110612b7057612b706138ca565b825160208401516001600160801b03908116600160801b0291161760039190910291909101908155604082015160018201556060909101516002909101556001600160a01b038d1615612cd457428c604001516001600160601b03161115612c515760208a0151612be190896137f3565b97508b604001516001600160601b03168b604001516001600160601b031603612c16576020890151612c13908961391b565b97505b60408c8101516001600160601b031660009081526729a2241af62c000a6020522080546001600160801b0319166001600160801b038a161790555b428b604001516001600160601b03161115612cd4578b604001516001600160601b03168b604001516001600160601b03161115612cd4576020890151612c97908861391b565b60408c8101516001600160601b031660009081526729a2241af62c000a6020522080546001600160801b0319166001600160801b03831617905596505b50505050505050505050505050565b6040516001600160a01b0380851660248301528316604482015260648101829052610d259085906323b872dd60e01b906084015b60408051601f198184030181529190526020810180516001600160e01b03166001600160e01b031990931692909217909152613307565b6000808390506000612d6382604001516132ed565b905060005b60ff811015612e1157612d7e62093a80836137e0565b9150600085831115612d9257859250612dad565b5060008281526729a2241af62c000a6020526040902054600f0b5b6040840151612dbc9084613908565b8460200151612dcb91906139dd565b8451612dd7919061391b565b600f0b8452858303612de95750612e11565b808460200151612df991906137f3565b600f0b60208501525060408301829052600101612d68565b5060008260000151600f0b1215612e2757600082525b50516001600160801b03169392505050565b6000612e4484612575565b90506006826007811115612e5a57612e5a61387f565b03612ec857828160200151612e6f91906137f3565b600f0b6020820152816007811115612e8957612e8961387f565b856001600160a01b0316600080516020613ab883398151915285600f0b846040015142604051612ebb93929190613895565b60405180910390a3612f28565b828160200151612ed8919061391b565b600f0b6020820152816007811115612ef257612ef261387f565b60408051600f86900b81524260208201526001600160a01b03881691600080516020613ad8833981519152910160405180910390a35b6001600160a01b0380861660009081526729a2241af62c000b602090815260408083208551928601516001600160801b03908116600160801b02908416178155908501516060860151909416600160601b026001600160601b0390941693909317600190930192909255600f9190910b1315610d2357610d238585836125cd565b6040516001600160a01b038316602482015260448101829052612fd990849063a9059cbb60e01b90606401612d17565b505050565b6001600160a01b03821660009081526729a2241af62c000960205260408120548190815b608081101561309a578183101561309a576000600261302184866137e0565b61302c9060016137e0565b61303691906139c9565b6001600160a01b03881660009081526729a2241af62c000860205260409020909150869082633b9aca00811061306e5761306e6138ca565b60030201600201541161308357809350613091565b61308e600182613908565b92505b50600101613002565b5090949350505050565b60008082815b608081101561309a578183101561309a57600060026130c984866137e0565b6130d49060016137e0565b6130de91906139c9565b905086600882670de0b6b3a764000081106130fb576130fb6138ca565b6003020160020154116131105780935061311e565b61311b600182613908565b92505b506001016130aa565b3360009081526729a2241af62c000b6020908152604080832081516080810183528154600f81810b808452600160801b909204900b948201949094526001909101546001600160601b03811692820192909252600160601b9091046001600160a01b0316606082015291126131ae5760405162461bcd60e51b81526004016106c790613783565b336001600160a01b031681606001516001600160a01b0316036132095760405162461bcd60e51b8152602060048201526013602482015272105b1c9958591e481d5b99195b1959d85d1959606a1b60448201526064016106c7565b8051606080830180516001600160a01b0380821660009081526729a2241af62c000b602090815260409182902082516080810184528154600f81810b8352600160801b909104900b92810192909252600101546001600160601b03808216838501908152600160601b909204909416968201969096523390945293519386015191938116911610156132a9576040808201516001600160601b0316908501525b6132b68282856007612e39565b610d253385856006612e39565b60006303c2670060035442846132d99190613908565b6132e3919061399c565b6112f691906139c9565b600062093a806132fd81846139c9565b6112f6919061399c565b600061335c826040518060400160405280602081526020017f5361666545524332303a206c6f772d6c6576656c2063616c6c206661696c6564815250856001600160a01b03166133dc9092919063ffffffff16565b905080516000148061337d57508080602001905181019061337d9190613709565b612fd95760405162461bcd60e51b815260206004820152602a60248201527f5361666545524332303a204552433230206f7065726174696f6e20646964206e6044820152691bdd081cdd58d8d9595960b21b60648201526084016106c7565b60606133eb84846000856133f3565b949350505050565b6060824710156134545760405162461bcd60e51b815260206004820152602660248201527f416464726573733a20696e73756666696369656e742062616c616e636520666f6044820152651c8818d85b1b60d21b60648201526084016106c7565b600080866001600160a01b031685876040516134709190613a9b565b60006040518083038185875af1925050503d80600081146134ad576040519150601f19603f3d011682016040523d82523d6000602084013e6134b2565b606091505b50915091506134c3878383876134ce565b979650505050505050565b6060831561353d578251600003613536576001600160a01b0385163b6135365760405162461bcd60e51b815260206004820152601d60248201527f416464726573733a2063616c6c20746f206e6f6e2d636f6e747261637400000060448201526064016106c7565b50816133eb565b6133eb83838151156135525781518083602001fd5b8060405162461bcd60e51b81526004016106c791906135f9565b60408051608081018252600080825260208201819052918101829052606081019190915290565b60405180608001604052806000600f0b81526020016000600f0b815260200160008152602001600081525090565b6001600160a01b0391909116815260200190565b60005b838110156135f05781810151838201526020016135d8565b50506000910152565b60208152600082518060208401526136188160408501602087016135d5565b601f01601f19169190910160400192915050565b60006020828403121561363e57600080fd5b5035919050565b80356001600160a01b038116811461365c57600080fd5b919050565b60006020828403121561367357600080fd5b61367c82613645565b9392505050565b6000806040838503121561369657600080fd5b61369f83613645565b946020939093013593505050565b600080604083850312156136c057600080fd5b50508035926020909101359150565b600181811c908216806136e357607f821691505b60208210810361370357634e487b7160e01b600052602260045260246000fd5b50919050565b60006020828403121561371b57600080fd5b8151801515811461367c57600080fd5b60208082526010908201526f109b1bd8dad9590818dbdb9d1c9858dd60821b604082015260600190565b60208082526014908201527313db9b1e481b9bdb881e995c9bc8185b5bdd5b9d60621b604082015260600190565b6020808252600790820152664e6f206c6f636b60c81b604082015260600190565b6020808252600c908201526b131bd8dac8195e1c1a5c995960a21b604082015260600190565b634e487b7160e01b600052601160045260246000fd5b808201808211156112f6576112f66137ca565b600f81810b9083900b0160016001607f1b03811360016001607f1b0319821217156112f6576112f66137ca565b60208082526015908201527444656c65676174656520686173206e6f206c6f636b60581b604082015260600190565b60208082526016908201527511195b1959d85d1959481b1bd8dac8195e1c1a5c995960521b604082015260600190565b634e487b7160e01b600052602160045260246000fd5b9283526001600160601b03919091166020830152604082015260600190565b9283526020830191909152604082015260600190565b634e487b7160e01b600052603260045260246000fd5b6020808252600e908201526d131bd8dac819195b1959d85d195960921b604082015260600190565b818103818111156112f6576112f66137ca565b600f82810b9082900b0360016001607f1b0319811260016001607f1b03821317156112f6576112f66137ca565b6020808252600a908201526927b7363c9037bbb732b960b11b604082015260600190565b60208082526016908201527527b7363c903830b9ba10313637b1b590373ab6b132b960511b604082015260600190565b80820281158282048414176112f6576112f66137ca565b634e487b7160e01b600052601260045260246000fd5b6000826139d8576139d86139b3565b500490565b600082600f0b82600f0b0280600f0b91508082146139fd576139fd6137ca565b5092915050565b60208082526016908201527513db9b1e481a5b98dc99585cd9481b1bd8dac8195b9960521b604082015260600190565b6020808252600f908201526e45786365656473206d617874696d6560881b604082015260600190565b600081600f0b83600f0b80613a7457613a746139b3565b60016001607f1b0319821460001982141615613a9257613a926137ca565b90059392505050565b60008251613aad8184602087016135d5565b919091019291505056febe9cf0e939c614fad640a623a53ba0a807c8cb503c4c4c8dacabe27b86ff2dd5c6c74a68f89b63353b582f75a2009daefef14ef389fbf7e30edb6141f414f028a164736f6c6343000811000a",
  "devdoc": {
    "details": "Builds on Curve Finance's original VotingEscrow implementation (see https://github.com/curvefi/curve-dao-contracts/blob/master/contracts/VotingEscrow.vy) and mStable's Solidity translation thereof (see https://github.com/mstable/mStable-contracts/blob/master/contracts/governance/IncentivisedVotingLockup.sol) Usage of this contract is not safe with all tokens, specifically: - Contract does not support tokens with maxSupply>2^128-10^[decimals] - Contract does not support fee-on-transfer tokens - Contract may be unsafe for tokens with decimals<6",
    "kind": "dev",
    "methods": {
      "balanceOf(address)": {
        "params": {
          "_owner": "The address of the lock owner for which to return voting power"
        },
        "returns": {
          "_0": "Voting power of the lock"
        }
      },
      "balanceOfAt(address,uint256)": {
        "params": {
          "_blockNumber": "The block at which to calculate the lock's voting power",
          "_owner": "The address of the lock owner for which to return voting power"
        },
        "returns": {
          "_0": "uint256 Voting power of the lock"
        }
      },
      "constructor": {
        "params": {
          "_name": "The name of the voting token",
          "_owner": "Is assumed to be a timelock contract",
          "_penaltyRecipient": "The recipient of penalty paid by lock quitters",
          "_symbol": "The symbol of the voting token",
          "_token": "The token locked in order to obtain voting power"
        }
      },
      "createLock(uint256,uint256)": {
        "details": "`_value` is (unsafely) downcasted from `uint256` to `int128` and `_unlockTime` is (unsafely) downcasted from `uint256` to `uint96` assuming that the values never reach the respective max values",
        "params": {
          "_unlockTime": "Expiration time of the lock",
          "_value": "Amount of token to lock"
        }
      },
      "delegate(address)": {
        "params": {
          "_addr": "The address of the lock owner to which to delegate"
        }
      },
      "forceUndelegate(address)": {
        "details": "Only callable by the blocklist contract",
        "params": {
          "_addr": "user to which voting power is delegated"
        }
      },
      "getLastUserPoint(address)": {
        "params": {
          "_addr": "The address of the lock owner"
        },
        "returns": {
          "bias": "The last recorded virtual balance",
          "slope": "The last recorded linear decay",
          "ts": "The last recorded timestamp"
        }
      },
      "getPenaltyRate(uint256)": {
        "details": "The penalty rate decreases linearly at the same rate as a lock's voting power in order to compensate for votes unlocked without committing to the lock expiration",
        "params": {
          "end": "The lock's expiration"
        },
        "returns": {
          "_0": "The penalty rate applicable to the lock"
        }
      },
      "increaseAmount(uint256)": {
        "details": "Does not update the lock's expiration Does record a new checkpoint for the lock `_value` is (unsafely) downcasted from `uint256` to `int128` assuming that the max value is never reached in practice",
        "params": {
          "_value": "Amount of tokens to add to the lock"
        }
      },
      "increaseUnlockTime(uint256)": {
        "details": "Does not update the amount of tokens locked Does record a new checkpoint for the lock `_unlockTime` is (unsafely) downcasted from `uint256` to `uint96` assuming that the max value is never reached in practice",
        "params": {
          "_unlockTime": "New lock expiration time"
        }
      },
      "lockEnd(address)": {
        "params": {
          "_addr": "The address of the lock owner"
        },
        "returns": {
          "_0": "Expiration of the lock"
        }
      },
      "quitLock()": {
        "details": "Quitters lock expiration remains in place because it might be delegated to"
      },
      "totalSupply()": {
        "returns": {
          "_0": "Current totalSupply"
        }
      },
      "totalSupplyAt(uint256)": {
        "params": {
          "_blockNumber": "The block number at which to calculate total supply"
        },
        "returns": {
          "_0": "totalSupply of voting power at the given block number"
        }
      },
      "transferOwnership(address)": {
        "details": "Owner is assumed to be a timelock contract",
        "params": {
          "_addr": "The new owner"
        }
      },
      "unlock()": {
        "details": "This is an irreversible action and is assumed to be used in a migration to a new VotingEscrow contract only"
      }
    },
    "title": "Delegated Voting Escrow",
    "version": 1
  },
  "userdoc": {
    "kind": "user",
    "methods": {
      "balanceOf(address)": {
        "notice": "Get a lock's current voting power"
      },
      "balanceOfAt(address,uint256)": {
        "notice": "Get a lock's voting power at a given block number"
      },
      "checkpoint()": {
        "notice": "Records a new global checkpoint"
      },
      "collectPenalty()": {
        "notice": "Collect accumulated penalty from lock quitters Everyone can collect but penalty is sent to `penaltyRecipient`"
      },
      "constructor": {
        "notice": "Initializes state"
      },
      "createLock(uint256,uint256)": {
        "notice": "Creates a new lock"
      },
      "delegate(address)": {
        "notice": "Delegate lock and voting power to another lock The receiving lock needs to have a longer lock duration The delegated lock will inherit the receiving lock's expiration"
      },
      "forceUndelegate(address)": {
        "notice": "Remove delegation for blocked contract"
      },
      "getLastUserPoint(address)": {
        "notice": "Returns a lock's last available user point"
      },
      "getPenaltyRate(uint256)": {
        "notice": "Returns the penalty rate for a given lock expiration"
      },
      "increaseAmount(uint256)": {
        "notice": "Locks more tokens in an existing lock"
      },
      "increaseUnlockTime(uint256)": {
        "notice": "Extends the expiration of an existing lock"
      },
      "lockEnd(address)": {
        "notice": "Returns a lock's expiration"
      },
      "quitLock()": {
        "notice": "Quit an existing lock by withdrawing all tokens less a penalty Use `withdraw` for expired locks"
      },
      "totalSupply()": {
        "notice": "Calculate current total supply of voting power"
      },
      "totalSupplyAt(uint256)": {
        "notice": "Calculate total supply of voting power at a given block number"
      },
      "transferOwnership(address)": {
        "notice": "Transfers ownership to a new owner"
      },
      "unlock()": {
        "notice": "Removes quitlock penalty by setting it to zero"
      },
      "updateBlocklist(address)": {
        "notice": "Updates the blocklist contract"
      },
      "updatePenaltyRecipient(address)": {
        "notice": "Updates the recipient of the accumulated penalty paid by quitters"
      },
      "withdraw()": {
        "notice": "Withdraws the tokens of an expired lock Delegated locks need to be undelegated first"
      }
    },
    "notice": "An ERC20 token that allocates users a virtual balance depending on the amount of tokens locked and their remaining lock duration. The virtual balance decreases linearly with the remaining lock duration. This is the locking mechanism known from veCRV with additional features: - Delegation of lock and voting power - Quit an existing lock and pay a penalty - Optimistic approval of SmartWallets through Blocklist - Reduced pointHistory array size and, as a result, lifetime of the contract - Removed public deposit_for and Aragon compatibility (no use case)",
    "version": 1
  },
  "storageLayout": {
    "storage": [
      {
        "astId": 6912,
        "contract": "contracts/exchange/contracts/staking/VotingEscrow.sol:VotingEscrow",
        "label": "_status",
        "offset": 0,
        "slot": "0",
        "type": "t_uint256"
      },
      {
        "astId": 82017,
        "contract": "contracts/exchange/contracts/staking/VotingEscrow.sol:VotingEscrow",
        "label": "owner",
        "offset": 0,
        "slot": "1",
        "type": "t_address"
      },
      {
        "astId": 82019,
        "contract": "contracts/exchange/contracts/staking/VotingEscrow.sol:VotingEscrow",
        "label": "penaltyRecipient",
        "offset": 0,
        "slot": "2",
        "type": "t_address"
      },
      {
        "astId": 82022,
        "contract": "contracts/exchange/contracts/staking/VotingEscrow.sol:VotingEscrow",
        "label": "maxPenalty",
        "offset": 0,
        "slot": "3",
        "type": "t_uint256"
      },
      {
        "astId": 82024,
        "contract": "contracts/exchange/contracts/staking/VotingEscrow.sol:VotingEscrow",
        "label": "penaltyAccumulated",
        "offset": 0,
        "slot": "4",
        "type": "t_uint256"
      },
      {
        "astId": 82026,
        "contract": "contracts/exchange/contracts/staking/VotingEscrow.sol:VotingEscrow",
        "label": "blocklist",
        "offset": 0,
        "slot": "5",
        "type": "t_address"
      },
      {
        "astId": 82028,
        "contract": "contracts/exchange/contracts/staking/VotingEscrow.sol:VotingEscrow",
        "label": "supply",
        "offset": 0,
        "slot": "6",
        "type": "t_uint256"
      },
      {
        "astId": 82030,
        "contract": "contracts/exchange/contracts/staking/VotingEscrow.sol:VotingEscrow",
        "label": "globalEpoch",
        "offset": 0,
        "slot": "7",
        "type": "t_uint256"
      },
      {
        "astId": 82035,
        "contract": "contracts/exchange/contracts/staking/VotingEscrow.sol:VotingEscrow",
        "label": "pointHistory",
        "offset": 0,
        "slot": "8",
        "type": "t_array(t_struct(Point)82070_storage)1000000000000000000_storage"
      },
      {
        "astId": 82042,
        "contract": "contracts/exchange/contracts/staking/VotingEscrow.sol:VotingEscrow",
        "label": "userPointHistory",
        "offset": 0,
        "slot": "3000000000000000008",
        "type": "t_mapping(t_address,t_array(t_struct(Point)82070_storage)1000000000_storage)"
      },
      {
        "astId": 82046,
        "contract": "contracts/exchange/contracts/staking/VotingEscrow.sol:VotingEscrow",
        "label": "userPointEpoch",
        "offset": 0,
        "slot": "3000000000000000009",
        "type": "t_mapping(t_address,t_uint256)"
      },
      {
        "astId": 82050,
        "contract": "contracts/exchange/contracts/staking/VotingEscrow.sol:VotingEscrow",
        "label": "slopeChanges",
        "offset": 0,
        "slot": "3000000000000000010",
        "type": "t_mapping(t_uint256,t_int128)"
      },
      {
        "astId": 82055,
        "contract": "contracts/exchange/contracts/staking/VotingEscrow.sol:VotingEscrow",
        "label": "locked",
        "offset": 0,
        "slot": "3000000000000000011",
        "type": "t_mapping(t_address,t_struct(LockedBalance)82079_storage)"
      },
      {
        "astId": 82057,
        "contract": "contracts/exchange/contracts/staking/VotingEscrow.sol:VotingEscrow",
        "label": "name",
        "offset": 0,
        "slot": "3000000000000000012",
        "type": "t_string_storage"
      },
      {
        "astId": 82059,
        "contract": "contracts/exchange/contracts/staking/VotingEscrow.sol:VotingEscrow",
        "label": "symbol",
        "offset": 0,
        "slot": "3000000000000000013",
        "type": "t_string_storage"
      },
      {
        "astId": 82061,
        "contract": "contracts/exchange/contracts/staking/VotingEscrow.sol:VotingEscrow",
        "label": "decimals",
        "offset": 0,
        "slot": "3000000000000000014",
        "type": "t_uint256"
      }
    ],
    "types": {
      "t_address": {
        "encoding": "inplace",
        "label": "address",
        "numberOfBytes": "20"
      },
      "t_array(t_struct(Point)82070_storage)1000000000000000000_storage": {
        "base": "t_struct(Point)82070_storage",
        "encoding": "inplace",
        "label": "struct VotingEscrow.Point[1000000000000000000]",
        "numberOfBytes": "96000000000000000000"
      },
      "t_array(t_struct(Point)82070_storage)1000000000_storage": {
        "base": "t_struct(Point)82070_storage",
        "encoding": "inplace",
        "label": "struct VotingEscrow.Point[1000000000]",
        "numberOfBytes": "96000000000"
      },
      "t_int128": {
        "encoding": "inplace",
        "label": "int128",
        "numberOfBytes": "16"
      },
      "t_mapping(t_address,t_array(t_struct(Point)82070_storage)1000000000_storage)": {
        "encoding": "mapping",
        "key": "t_address",
        "label": "mapping(address => struct VotingEscrow.Point[1000000000])",
        "numberOfBytes": "32",
        "value": "t_array(t_struct(Point)82070_storage)1000000000_storage"
      },
      "t_mapping(t_address,t_struct(LockedBalance)82079_storage)": {
        "encoding": "mapping",
        "key": "t_address",
        "label": "mapping(address => struct VotingEscrow.LockedBalance)",
        "numberOfBytes": "32",
        "value": "t_struct(LockedBalance)82079_storage"
      },
      "t_mapping(t_address,t_uint256)": {
        "encoding": "mapping",
        "key": "t_address",
        "label": "mapping(address => uint256)",
        "numberOfBytes": "32",
        "value": "t_uint256"
      },
      "t_mapping(t_uint256,t_int128)": {
        "encoding": "mapping",
        "key": "t_uint256",
        "label": "mapping(uint256 => int128)",
        "numberOfBytes": "32",
        "value": "t_int128"
      },
      "t_string_storage": {
        "encoding": "bytes",
        "label": "string",
        "numberOfBytes": "32"
      },
      "t_struct(LockedBalance)82079_storage": {
        "encoding": "inplace",
        "label": "struct VotingEscrow.LockedBalance",
        "members": [
          {
            "astId": 82072,
            "contract": "contracts/exchange/contracts/staking/VotingEscrow.sol:VotingEscrow",
            "label": "amount",
            "offset": 0,
            "slot": "0",
            "type": "t_int128"
          },
          {
            "astId": 82074,
            "contract": "contracts/exchange/contracts/staking/VotingEscrow.sol:VotingEscrow",
            "label": "delegated",
            "offset": 16,
            "slot": "0",
            "type": "t_int128"
          },
          {
            "astId": 82076,
            "contract": "contracts/exchange/contracts/staking/VotingEscrow.sol:VotingEscrow",
            "label": "end",
            "offset": 0,
            "slot": "1",
            "type": "t_uint96"
          },
          {
            "astId": 82078,
            "contract": "contracts/exchange/contracts/staking/VotingEscrow.sol:VotingEscrow",
            "label": "delegatee",
            "offset": 12,
            "slot": "1",
            "type": "t_address"
          }
        ],
        "numberOfBytes": "64"
      },
      "t_struct(Point)82070_storage": {
        "encoding": "inplace",
        "label": "struct VotingEscrow.Point",
        "members": [
          {
            "astId": 82063,
            "contract": "contracts/exchange/contracts/staking/VotingEscrow.sol:VotingEscrow",
            "label": "bias",
            "offset": 0,
            "slot": "0",
            "type": "t_int128"
          },
          {
            "astId": 82065,
            "contract": "contracts/exchange/contracts/staking/VotingEscrow.sol:VotingEscrow",
            "label": "slope",
            "offset": 16,
            "slot": "0",
            "type": "t_int128"
          },
          {
            "astId": 82067,
            "contract": "contracts/exchange/contracts/staking/VotingEscrow.sol:VotingEscrow",
            "label": "ts",
            "offset": 0,
            "slot": "1",
            "type": "t_uint256"
          },
          {
            "astId": 82069,
            "contract": "contracts/exchange/contracts/staking/VotingEscrow.sol:VotingEscrow",
            "label": "blk",
            "offset": 0,
            "slot": "2",
            "type": "t_uint256"
          }
        ],
        "numberOfBytes": "96"
      },
      "t_uint256": {
        "encoding": "inplace",
        "label": "uint256",
        "numberOfBytes": "32"
      },
      "t_uint96": {
        "encoding": "inplace",
        "label": "uint96",
        "numberOfBytes": "12"
      }
    }
  }
}