{
  "address": "0xaC47e91215fb80462139756f43438402998E4A3a",
  "abi": [
    {
      "inputs": [
        {
          "internalType": "address",
          "name": "_authControl",
          "type": "address"
        },
        {
          "internalType": "address",
          "name": "_stablecoin",
          "type": "address"
        },
        {
          "internalType": "address",
          "name": "_foundation",
          "type": "address"
        }
      ],
      "stateMutability": "nonpayable",
      "type": "constructor"
    },
    {
      "inputs": [],
      "name": "ACCESS_CONTROL_SINGLETON",
      "outputs": [
        {
          "internalType": "contract ISuAccessControl",
          "name": "",
          "type": "address"
        }
      ],
      "stateMutability": "view",
      "type": "function"
    },
    {
      "inputs": [],
      "name": "DENOMINATOR_1E5",
      "outputs": [
        {
          "internalType": "uint256",
          "name": "",
          "type": "uint256"
        }
      ],
      "stateMutability": "view",
      "type": "function"
    },
    {
      "inputs": [],
      "name": "MINTER_ROLE",
      "outputs": [
        {
          "internalType": "bytes32",
          "name": "",
          "type": "bytes32"
        }
      ],
      "stateMutability": "view",
      "type": "function"
    },
    {
      "inputs": [],
      "name": "VAULT_ACCESS_ROLE",
      "outputs": [
        {
          "internalType": "bytes32",
          "name": "",
          "type": "bytes32"
        }
      ],
      "stateMutability": "view",
      "type": "function"
    },
    {
      "inputs": [
        {
          "internalType": "address",
          "name": "asset",
          "type": "address"
        },
        {
          "internalType": "address",
          "name": "user",
          "type": "address"
        },
        {
          "internalType": "uint256",
          "name": "amount",
          "type": "uint256"
        }
      ],
      "name": "borrow",
      "outputs": [
        {
          "internalType": "uint256",
          "name": "",
          "type": "uint256"
        }
      ],
      "stateMutability": "nonpayable",
      "type": "function"
    },
    {
      "inputs": [
        {
          "internalType": "address",
          "name": "asset",
          "type": "address"
        },
        {
          "internalType": "address",
          "name": "user",
          "type": "address"
        },
        {
          "internalType": "uint256",
          "name": "amount",
          "type": "uint256"
        }
      ],
      "name": "calculateFee",
      "outputs": [
        {
          "internalType": "uint256",
          "name": "",
          "type": "uint256"
        }
      ],
      "stateMutability": "view",
      "type": "function"
    },
    {
      "inputs": [
        {
          "internalType": "address",
          "name": "asset",
          "type": "address"
        },
        {
          "internalType": "address",
          "name": "user",
          "type": "address"
        },
        {
          "internalType": "uint256",
          "name": "newOracleType",
          "type": "uint256"
        }
      ],
      "name": "changeOracleType",
      "outputs": [],
      "stateMutability": "nonpayable",
      "type": "function"
    },
    {
      "inputs": [
        {
          "internalType": "address",
          "name": "asset",
          "type": "address"
        },
        {
          "internalType": "address",
          "name": "user",
          "type": "address"
        },
        {
          "internalType": "uint256",
          "name": "amount",
          "type": "uint256"
        }
      ],
      "name": "chargeFee",
      "outputs": [],
      "stateMutability": "nonpayable",
      "type": "function"
    },
    {
      "inputs": [
        {
          "internalType": "address",
          "name": "",
          "type": "address"
        },
        {
          "internalType": "address",
          "name": "",
          "type": "address"
        }
      ],
      "name": "collaterals",
      "outputs": [
        {
          "internalType": "uint256",
          "name": "",
          "type": "uint256"
        }
      ],
      "stateMutability": "view",
      "type": "function"
    },
    {
      "inputs": [
        {
          "internalType": "address",
          "name": "",
          "type": "address"
        },
        {
          "internalType": "address",
          "name": "",
          "type": "address"
        }
      ],
      "name": "debts",
      "outputs": [
        {
          "internalType": "uint256",
          "name": "",
          "type": "uint256"
        }
      ],
      "stateMutability": "view",
      "type": "function"
    },
    {
      "inputs": [
        {
          "internalType": "address",
          "name": "asset",
          "type": "address"
        },
        {
          "internalType": "address",
          "name": "user",
          "type": "address"
        },
        {
          "internalType": "uint256",
          "name": "amount",
          "type": "uint256"
        }
      ],
      "name": "deposit",
      "outputs": [],
      "stateMutability": "nonpayable",
      "type": "function"
    },
    {
      "inputs": [
        {
          "internalType": "address",
          "name": "asset",
          "type": "address"
        },
        {
          "internalType": "address",
          "name": "user",
          "type": "address"
        }
      ],
      "name": "destroy",
      "outputs": [],
      "stateMutability": "nonpayable",
      "type": "function"
    },
    {
      "inputs": [],
      "name": "foundation",
      "outputs": [
        {
          "internalType": "address",
          "name": "",
          "type": "address"
        }
      ],
      "stateMutability": "view",
      "type": "function"
    },
    {
      "inputs": [
        {
          "internalType": "address",
          "name": "asset",
          "type": "address"
        },
        {
          "internalType": "address",
          "name": "user",
          "type": "address"
        }
      ],
      "name": "getTotalDebt",
      "outputs": [
        {
          "internalType": "uint256",
          "name": "",
          "type": "uint256"
        }
      ],
      "stateMutability": "view",
      "type": "function"
    },
    {
      "inputs": [
        {
          "internalType": "uint256",
          "name": "",
          "type": "uint256"
        },
        {
          "internalType": "address",
          "name": "",
          "type": "address"
        }
      ],
      "name": "isOracleTypeEnabled",
      "outputs": [
        {
          "internalType": "bool",
          "name": "",
          "type": "bool"
        }
      ],
      "stateMutability": "view",
      "type": "function"
    },
    {
      "inputs": [
        {
          "internalType": "address",
          "name": "",
          "type": "address"
        },
        {
          "internalType": "address",
          "name": "",
          "type": "address"
        }
      ],
      "name": "lastUpdate",
      "outputs": [
        {
          "internalType": "uint256",
          "name": "",
          "type": "uint256"
        }
      ],
      "stateMutability": "view",
      "type": "function"
    },
    {
      "inputs": [
        {
          "internalType": "address",
          "name": "asset",
          "type": "address"
        },
        {
          "internalType": "address",
          "name": "positionOwner",
          "type": "address"
        },
        {
          "internalType": "uint256",
          "name": "mainAssetToLiquidator",
          "type": "uint256"
        },
        {
          "internalType": "uint256",
          "name": "mainAssetToPositionOwner",
          "type": "uint256"
        },
        {
          "internalType": "uint256",
          "name": "repayment",
          "type": "uint256"
        },
        {
          "internalType": "uint256",
          "name": "penalty",
          "type": "uint256"
        },
        {
          "internalType": "address",
          "name": "liquidator",
          "type": "address"
        }
      ],
      "name": "liquidate",
      "outputs": [],
      "stateMutability": "nonpayable",
      "type": "function"
    },
    {
      "inputs": [
        {
          "internalType": "address",
          "name": "",
          "type": "address"
        },
        {
          "internalType": "address",
          "name": "",
          "type": "address"
        }
      ],
      "name": "liquidationBlock",
      "outputs": [
        {
          "internalType": "uint256",
          "name": "",
          "type": "uint256"
        }
      ],
      "stateMutability": "view",
      "type": "function"
    },
    {
      "inputs": [
        {
          "internalType": "address",
          "name": "",
          "type": "address"
        },
        {
          "internalType": "address",
          "name": "",
          "type": "address"
        }
      ],
      "name": "liquidationFee",
      "outputs": [
        {
          "internalType": "uint256",
          "name": "",
          "type": "uint256"
        }
      ],
      "stateMutability": "view",
      "type": "function"
    },
    {
      "inputs": [
        {
          "internalType": "address",
          "name": "",
          "type": "address"
        },
        {
          "internalType": "address",
          "name": "",
          "type": "address"
        }
      ],
      "name": "liquidationPrice",
      "outputs": [
        {
          "internalType": "uint256",
          "name": "",
          "type": "uint256"
        }
      ],
      "stateMutability": "view",
      "type": "function"
    },
    {
      "inputs": [
        {
          "internalType": "address",
          "name": "",
          "type": "address"
        },
        {
          "internalType": "address",
          "name": "",
          "type": "address"
        }
      ],
      "name": "oracleType",
      "outputs": [
        {
          "internalType": "uint256",
          "name": "",
          "type": "uint256"
        }
      ],
      "stateMutability": "view",
      "type": "function"
    },
    {
      "inputs": [
        {
          "internalType": "address",
          "name": "",
          "type": "address"
        }
      ],
      "name": "protocolLiquidationFee",
      "outputs": [
        {
          "internalType": "uint256",
          "name": "",
          "type": "uint256"
        }
      ],
      "stateMutability": "view",
      "type": "function"
    },
    {
      "inputs": [
        {
          "internalType": "address",
          "name": "",
          "type": "address"
        }
      ],
      "name": "protocolStabilityFee",
      "outputs": [
        {
          "internalType": "uint256",
          "name": "",
          "type": "uint256"
        }
      ],
      "stateMutability": "view",
      "type": "function"
    },
    {
      "inputs": [
        {
          "internalType": "address",
          "name": "asset",
          "type": "address"
        },
        {
          "internalType": "address",
          "name": "user",
          "type": "address"
        },
        {
          "internalType": "uint256",
          "name": "amount",
          "type": "uint256"
        }
      ],
      "name": "repay",
      "outputs": [
        {
          "internalType": "uint256",
          "name": "",
          "type": "uint256"
        }
      ],
      "stateMutability": "nonpayable",
      "type": "function"
    },
    {
      "inputs": [
        {
          "internalType": "address",
          "name": "asset",
          "type": "address"
        },
        {
          "internalType": "uint256",
          "name": "stabilityFeeValue",
          "type": "uint256"
        },
        {
          "internalType": "uint256",
          "name": "liquidationFeeValue",
          "type": "uint256"
        },
        {
          "internalType": "uint256",
          "name": "stablecoinLimit",
          "type": "uint256"
        }
      ],
      "name": "setCollateral",
      "outputs": [],
      "stateMutability": "nonpayable",
      "type": "function"
    },
    {
      "inputs": [
        {
          "internalType": "address",
          "name": "newFoundation",
          "type": "address"
        }
      ],
      "name": "setFoundation",
      "outputs": [],
      "stateMutability": "nonpayable",
      "type": "function"
    },
    {
      "inputs": [
        {
          "internalType": "address",
          "name": "asset",
          "type": "address"
        },
        {
          "internalType": "uint256",
          "name": "newValue",
          "type": "uint256"
        }
      ],
      "name": "setLiquidationFee",
      "outputs": [],
      "stateMutability": "nonpayable",
      "type": "function"
    },
    {
      "inputs": [
        {
          "internalType": "uint256",
          "name": "_type",
          "type": "uint256"
        },
        {
          "internalType": "address",
          "name": "asset",
          "type": "address"
        },
        {
          "internalType": "bool",
          "name": "enabled",
          "type": "bool"
        }
      ],
      "name": "setOracleType",
      "outputs": [],
      "stateMutability": "nonpayable",
      "type": "function"
    },
    {
      "inputs": [
        {
          "internalType": "address",
          "name": "asset",
          "type": "address"
        },
        {
          "internalType": "uint256",
          "name": "newValue",
          "type": "uint256"
        }
      ],
      "name": "setStabilityFee",
      "outputs": [],
      "stateMutability": "nonpayable",
      "type": "function"
    },
    {
      "inputs": [
        {
          "internalType": "address",
          "name": "asset",
          "type": "address"
        },
        {
          "internalType": "uint256",
          "name": "limit",
          "type": "uint256"
        }
      ],
      "name": "setTokenDebtLimit",
      "outputs": [],
      "stateMutability": "nonpayable",
      "type": "function"
    },
    {
      "inputs": [
        {
          "internalType": "address",
          "name": "asset",
          "type": "address"
        },
        {
          "internalType": "address",
          "name": "user",
          "type": "address"
        }
      ],
      "name": "spawn",
      "outputs": [],
      "stateMutability": "nonpayable",
      "type": "function"
    },
    {
      "inputs": [
        {
          "internalType": "address",
          "name": "",
          "type": "address"
        },
        {
          "internalType": "address",
          "name": "",
          "type": "address"
        }
      ],
      "name": "stabilityFee",
      "outputs": [
        {
          "internalType": "uint256",
          "name": "",
          "type": "uint256"
        }
      ],
      "stateMutability": "view",
      "type": "function"
    },
    {
      "inputs": [],
      "name": "stablecoin",
      "outputs": [
        {
          "internalType": "address",
          "name": "",
          "type": "address"
        }
      ],
      "stateMutability": "view",
      "type": "function"
    },
    {
      "inputs": [
        {
          "internalType": "address",
          "name": "",
          "type": "address"
        }
      ],
      "name": "tokenDebtLimit",
      "outputs": [
        {
          "internalType": "uint256",
          "name": "",
          "type": "uint256"
        }
      ],
      "stateMutability": "view",
      "type": "function"
    },
    {
      "inputs": [
        {
          "internalType": "address",
          "name": "",
          "type": "address"
        }
      ],
      "name": "tokenDebts",
      "outputs": [
        {
          "internalType": "uint256",
          "name": "",
          "type": "uint256"
        }
      ],
      "stateMutability": "view",
      "type": "function"
    },
    {
      "inputs": [
        {
          "internalType": "address",
          "name": "asset",
          "type": "address"
        },
        {
          "internalType": "address",
          "name": "positionOwner",
          "type": "address"
        },
        {
          "internalType": "uint256",
          "name": "initialPrice",
          "type": "uint256"
        }
      ],
      "name": "triggerLiquidation",
      "outputs": [],
      "stateMutability": "nonpayable",
      "type": "function"
    },
    {
      "inputs": [
        {
          "internalType": "address",
          "name": "asset",
          "type": "address"
        },
        {
          "internalType": "address",
          "name": "user",
          "type": "address"
        }
      ],
      "name": "update",
      "outputs": [],
      "stateMutability": "nonpayable",
      "type": "function"
    },
    {
      "inputs": [],
      "name": "vault",
      "outputs": [
        {
          "internalType": "address",
          "name": "",
          "type": "address"
        }
      ],
      "stateMutability": "view",
      "type": "function"
    },
    {
      "inputs": [],
      "name": "vaultParameters",
      "outputs": [
        {
          "internalType": "contract SuVaultParameters",
          "name": "",
          "type": "address"
        }
      ],
      "stateMutability": "view",
      "type": "function"
    },
    {
      "inputs": [
        {
          "internalType": "address",
          "name": "asset",
          "type": "address"
        },
        {
          "internalType": "address",
          "name": "user",
          "type": "address"
        },
        {
          "internalType": "uint256",
          "name": "amount",
          "type": "uint256"
        }
      ],
      "name": "withdraw",
      "outputs": [],
      "stateMutability": "nonpayable",
      "type": "function"
    },
    {
      "stateMutability": "payable",
      "type": "receive"
    }
  ],
  "transactionHash": "0x88adae739f36d3203548284b789077cc7035a7c8a89ebd04688d032a08a6d2f3",
  "args": [
    "0xeF31027350Be2c7439C1b0BE022d49421488b72C",
    "0x12Bcb546bC60fF39F1Adfc7cE4605d5Bd6a6A876",
    "0xd2D7715BAe07e5B9d7c0Ec0b671B9bAD6b9dBEBb"
  ],
  "numDeployments": 1,
  "solcInputHash": "d1c3e992972545e414ac7f62b849d9a1",
  "bytecode": "0x6101006040523480156200001257600080fd5b50604051620038563803806200385683398101604081905262000035916200015f565b6001600160601b0319606084901b16608052823082816200009d5760405162461bcd60e51b815260206004820152601b60248201527f556e69742050726f746f636f6c3a205a45524f5f41444452455353000000000060448201526064015b60405180910390fd5b6001600160a01b038116620000f55760405162461bcd60e51b815260206004820152601b60248201527f556e69742050726f746f636f6c3a205a45524f5f414444524553530000000000604482015260640162000094565b606091821b6001600160601b031990811660a052600480546001600160a01b0319166001600160a01b03939093169290921790915593811b90931660c052505030901b60e05250620001a8565b80516001600160a01b03811681146200015a57600080fd5b919050565b60008060006060848603121562000174578283fd5b6200017f8462000142565b92506200018f6020850162000142565b91506200019f6040850162000142565b90509250925092565b60805160601c60a05160601c60c05160601c60e05160601c61359d620002b96000396000818161070c01528181610f3f0152818161144a01528181611ed70152818161204e0152818161211101528181612676015261274b0152600081816108c401528181610c0e0152818161156a01528181611eb501528181611f76015261202c01526000610952015260008181610328015281816109eb01528181610cba01528181610dd501528181610ff70152818161110d01528181611223015281816116200152818161181401528181611a8701528181611c7d015281816121cd015281816122d30152818161245d01528181612827015281816129c001528181612b750152612cfc015261359d6000f3fe6080604052600436106102bf5760003560e01c8063971182c61161016e578063d6446d43116100cb578063e9cbd8221161007f578063f2e323ba11610064578063f2e323ba14610913578063fbfa77cf14610940578063fec0feb31461097457600080fd5b8063e9cbd822146108b2578063f190439e146108e657600080fd5b8063db3543f5116100b0578063db3543f51461083a578063e0ede1cd1461085a578063e51e119e1461087a57600080fd5b8063d6446d43146107fa578063d9caed121461081a57600080fd5b8063bf33bd4c11610122578063cc9a10a611610107578063cc9a10a61461076e578063d4b93dbe1461078e578063d5391393146107c657600080fd5b8063bf33bd4c1461072e578063c640752d1461074e57600080fd5b8063a526ae2c11610153578063a526ae2c146106a2578063aa9c2c16146106c2578063aca345ee146106fa57600080fd5b8063971182c61461066b5780639ffb62eb1461068257600080fd5b806347ba94f91161021c578063742a326e116101d05780638340f549116101b55780638340f549146105e657806388ad7a61146106065780638b668a9d1461063e57600080fd5b8063742a326e146105a65780637ca87cb6146105c657600080fd5b80634df14341116102015780634df14341146105465780635224372c1461056657806362b40f9f1461058657600080fd5b806347ba94f9146104ee5780634ac1c33d1461050e57600080fd5b80631da649cf1161027357806338507ff51161025857806338507ff51461048c5780633d1aa963146104ae57806341fbb050146104ce57600080fd5b80631da649cf1461043457806330c77c7e1461045457600080fd5b806310be7f36116102a457806310be7f36146103ad57806314c376dc146103da5780631ce4b4a7146103fc57600080fd5b806303ee9f22146103165780630fbac4e61461036757600080fd5b366103115760405162461bcd60e51b815260206004820152601960248201527f556e69742050726f746f636f6c3a20524553545249435445440000000000000060448201526064015b60405180910390fd5b600080fd5b34801561032257600080fd5b5061034a7f000000000000000000000000000000000000000000000000000000000000000081565b6040516001600160a01b0390911681526020015b60405180910390f35b34801561037357600080fd5b5061039f61038236600461323b565b600860209081526000928352604080842090915290825290205481565b60405190815260200161035e565b3480156103b957600080fd5b5061039f6103c8366004613203565b60006020819052908152604090205481565b3480156103e657600080fd5b5061039f60008051602061354883398151915281565b34801561040857600080fd5b5061039f61041736600461323b565b600760209081526000928352604080842090915290825290205481565b34801561044057600080fd5b5061039f61044f366004613273565b6109bf565b34801561046057600080fd5b5061039f61046f36600461323b565b600c60209081526000928352604080842090915290825290205481565b34801561049857600080fd5b506104ac6104a736600461334f565b610c9e565b005b3480156104ba57600080fd5b506104ac6104c9366004613273565b610dac565b3480156104da57600080fd5b5060045461034a906001600160a01b031681565b3480156104fa57600080fd5b506104ac610509366004613273565b610fdb565b34801561051a57600080fd5b5061039f61052936600461323b565b600660209081526000928352604080842090915290825290205481565b34801561055257600080fd5b506104ac610561366004613324565b6110f1565b34801561057257600080fd5b5061039f610581366004613273565b6111f7565b34801561059257600080fd5b506104ac6105a136600461323b565b6115f7565b3480156105b257600080fd5b506104ac6105c1366004613273565b6117eb565b3480156105d257600080fd5b5061039f6105e1366004613273565b6119d5565b3480156105f257600080fd5b506104ac610601366004613273565b611a5e565b34801561061257600080fd5b5061039f61062136600461323b565b600d60209081526000928352604080842090915290825290205481565b34801561064a57600080fd5b5061039f610659366004613203565b60016020526000908152604090205481565b34801561067757600080fd5b5061039f620186a081565b34801561068e57600080fd5b506104ac61069d3660046132b3565b611c54565b3480156106ae57600080fd5b506104ac6106bd366004613324565b6121b1565b3480156106ce57600080fd5b5061039f6106dd36600461323b565b600b60209081526000928352604080842090915290825290205481565b34801561070657600080fd5b5061034a7f000000000000000000000000000000000000000000000000000000000000000081565b34801561073a57600080fd5b506104ac610749366004613324565b6122b7565b34801561075a57600080fd5b506104ac61076936600461323b565b612434565b34801561077a57600080fd5b506104ac6107893660046133e1565b61280b565b34801561079a57600080fd5b5061039f6107a936600461323b565b600a60209081526000928352604080842090915290825290205481565b3480156107d257600080fd5b5061039f7f9f2df0fed2c77648de5860a4cc508cd0818c85b8b8a1ab4ceeef8d981c8956a681565b34801561080657600080fd5b5061039f61081536600461323b565b61292a565b34801561082657600080fd5b506104ac610835366004613273565b612997565b34801561084657600080fd5b506104ac610855366004613203565b612b59565b34801561086657600080fd5b506104ac61087536600461323b565b612cd3565b34801561088657600080fd5b5061039f61089536600461323b565b600560209081526000928352604080842090915290825290205481565b3480156108be57600080fd5b5061034a7f000000000000000000000000000000000000000000000000000000000000000081565b3480156108f257600080fd5b5061039f610901366004613203565b60096020526000908152604090205481565b34801561091f57600080fd5b5061039f61092e366004613203565b60026020526000908152604090205481565b34801561094c57600080fd5b5061034a7f000000000000000000000000000000000000000000000000000000000000000081565b34801561098057600080fd5b506109af61098f3660046133bd565b600360209081526000928352604080842090915290825290205460ff1681565b604051901515815260200161035e565b604051632474521560e21b815260008051602061354883398151915260048201523360248201526000907f00000000000000000000000000000000000000000000000000000000000000006001600160a01b0316906391d148549060440160206040518083038186803b158015610a3557600080fd5b505afa158015610a49573d6000803e3d6000fd5b505050506040513d601f19601f82011682018060405250810190610a6d9190613389565b610ac55760405162461bcd60e51b815260206004820152602360248201527f5375417574683a206f6e6c795661756c7441636365737320415554485f46414960448201526213115160ea1b6064820152608401610308565b6001600160a01b038085166000908152600760209081526040808320938716835292905220548490849015610b485760405162461bcd60e51b815260206004820152602360248201527f556e69742050726f746f636f6c3a204c49515549444154494e475f504f53495460448201526224a7a760e91b6064820152608401610308565b6001600160a01b03808716600090815260066020908152604080832093891683529290522054610b7885826134c8565b6001600160a01b038089166000818152600660209081526040808320948c168352938152838220949094559081526009909252902054610bb99086906134c8565b6001600160a01b03888116600090815260096020526040908190209290925590517f9dc29fac0000000000000000000000000000000000000000000000000000000081528782166004820152602481018790527f000000000000000000000000000000000000000000000000000000000000000090911690639dc29fac90604401600060405180830381600087803b158015610c5457600080fd5b505af1158015610c68573d6000803e3d6000fd5b5050506001600160a01b038089166000908152600660209081526040808320938b16835292905220549450505050509392505050565b604051632474521560e21b8152600060048201523360248201527f00000000000000000000000000000000000000000000000000000000000000006001600160a01b0316906391d148549060440160206040518083038186803b158015610d0457600080fd5b505afa158015610d18573d6000803e3d6000fd5b505050506040513d601f19601f82011682018060405250810190610d3c9190613389565b610d885760405162461bcd60e51b815260206004820152601d60248201527f5375417574683a206f6e6c794f776e657220415554485f4641494c45440000006044820152606401610308565b610d9284846121b1565b610d9c84836122b7565b610da684826110f1565b50505050565b604051632474521560e21b815260008051602061354883398151915260048201523360248201527f00000000000000000000000000000000000000000000000000000000000000006001600160a01b0316906391d148549060440160206040518083038186803b158015610e1f57600080fd5b505afa158015610e33573d6000803e3d6000fd5b505050506040513d601f19601f82011682018060405250810190610e579190613389565b610eaf5760405162461bcd60e51b815260206004820152602360248201527f5375417574683a206f6e6c795661756c7441636365737320415554485f46414960448201526213115160ea1b6064820152608401610308565b6001600160a01b038084166000908152600760209081526040808320938616835292905220548390839015610f325760405162461bcd60e51b815260206004820152602360248201527f556e69742050726f746f636f6c3a204c49515549444154494e475f504f53495460448201526224a7a760e91b6064820152608401610308565b8215610fd457610fd485857f00000000000000000000000000000000000000000000000000000000000000006001600160a01b03166341fbb0506040518163ffffffff1660e01b815260040160206040518083038186803b158015610f9657600080fd5b505afa158015610faa573d6000803e3d6000fd5b505050506040513d601f19601f82011682018060405250810190610fce919061321f565b86612e87565b5050505050565b604051632474521560e21b8152600060048201523360248201527f00000000000000000000000000000000000000000000000000000000000000006001600160a01b0316906391d148549060440160206040518083038186803b15801561104157600080fd5b505afa158015611055573d6000803e3d6000fd5b505050506040513d601f19601f820116820180604052508101906110799190613389565b6110c55760405162461bcd60e51b815260206004820152601d60248201527f5375417574683a206f6e6c794f776e657220415554485f4641494c45440000006044820152606401610308565b6001600160a01b039283166000908152600c602090815260408083209490951682529290925291902055565b604051632474521560e21b8152600060048201523360248201527f00000000000000000000000000000000000000000000000000000000000000006001600160a01b0316906391d148549060440160206040518083038186803b15801561115757600080fd5b505afa15801561116b573d6000803e3d6000fd5b505050506040513d601f19601f8201168201806040525081019061118f9190613389565b6111db5760405162461bcd60e51b815260206004820152601d60248201527f5375417574683a206f6e6c794f776e657220415554485f4641494c45440000006044820152606401610308565b6001600160a01b03909116600090815260026020526040902055565b604051632474521560e21b815260008051602061354883398151915260048201523360248201526000907f00000000000000000000000000000000000000000000000000000000000000006001600160a01b0316906391d148549060440160206040518083038186803b15801561126d57600080fd5b505afa158015611281573d6000803e3d6000fd5b505050506040513d601f19601f820116820180604052508101906112a59190613389565b6112fd5760405162461bcd60e51b815260206004820152602360248201527f5375417574683a206f6e6c795661756c7441636365737320415554485f46414960448201526213115160ea1b6064820152608401610308565b6001600160a01b0380851660009081526007602090815260408083209387168352929052205484908490156113805760405162461bcd60e51b815260206004820152602360248201527f556e69742050726f746f636f6c3a204c49515549444154494e475f504f53495460448201526224a7a760e91b6064820152608401610308565b61138a8686612434565b6001600160a01b038087166000908152600660209081526040808320938916835292905220546113bb908590613471565b6001600160a01b038088166000818152600660209081526040808320948b1683529381528382209490945590815260099092529020546113fc908590613471565b6001600160a01b03878116600081815260096020526040908190209390935591517ff2e323ba00000000000000000000000000000000000000000000000000000000815260048101929092527f0000000000000000000000000000000000000000000000000000000000000000169063f2e323ba9060240160206040518083038186803b15801561148c57600080fd5b505afa1580156114a0573d6000803e3d6000fd5b505050506040513d601f19601f820116820180604052508101906114c491906133a5565b6001600160a01b038716600090815260096020526040902054111561152b5760405162461bcd60e51b815260206004820152601f60248201527f556e69742050726f746f636f6c3a2041535345545f444542545f4c494d4954006044820152606401610308565b6040517f40c10f190000000000000000000000000000000000000000000000000000000081526001600160a01b038681166004830152602482018690527f000000000000000000000000000000000000000000000000000000000000000016906340c10f1990604401600060405180830381600087803b1580156115ae57600080fd5b505af11580156115c2573d6000803e3d6000fd5b5050506001600160a01b038088166000908152600660209081526040808320938a168352929052205493505050509392505050565b604051632474521560e21b815260008051602061354883398151915260048201523360248201527f00000000000000000000000000000000000000000000000000000000000000006001600160a01b0316906391d148549060440160206040518083038186803b15801561166a57600080fd5b505afa15801561167e573d6000803e3d6000fd5b505050506040513d601f19601f820116820180604052508101906116a29190613389565b6116fa5760405162461bcd60e51b815260206004820152602360248201527f5375417574683a206f6e6c795661756c7441636365737320415554485f46414960448201526213115160ea1b6064820152608401610308565b6001600160a01b03808316600090815260076020908152604080832093851683529290522054829082901561177d5760405162461bcd60e51b815260206004820152602360248201527f556e69742050726f746f636f6c3a204c49515549444154494e475f504f53495460448201526224a7a760e91b6064820152608401610308565b50506001600160a01b039182166000818152600a6020908152604080832094909516808352938152848220829055828252600c81528482208483528152848220829055828252600d81528482208483528152848220829055918152600b825283812092815291905290812055565b604051632474521560e21b815260008051602061354883398151915260048201523360248201527f00000000000000000000000000000000000000000000000000000000000000006001600160a01b0316906391d148549060440160206040518083038186803b15801561185e57600080fd5b505afa158015611872573d6000803e3d6000fd5b505050506040513d601f19601f820116820180604052508101906118969190613389565b6118ee5760405162461bcd60e51b815260206004820152602360248201527f5375417574683a206f6e6c795661756c7441636365737320415554485f46414960448201526213115160ea1b6064820152608401610308565b6001600160a01b0380841660009081526007602090815260408083209386168352929052205483908390156119715760405162461bcd60e51b815260206004820152602360248201527f556e69742050726f746f636f6c3a204c49515549444154494e475f504f53495460448201526224a7a760e91b6064820152608401610308565b61197b858561292a565b6001600160a01b039586166000818152600660209081526040808320989099168083529781528882209390935581815260078352878120878252835287812043905590815260088252868120958152949052505091902055565b6001600160a01b038084166000818152600a6020908152604080832094871680845294825280832054938352600d8252808320948352939052918220548290611a1e90426134c8565b9050620186a06301e1338082611a3485886134a9565b611a3e91906134a9565b611a489190613489565b611a529190613489565b925050505b9392505050565b604051632474521560e21b815260008051602061354883398151915260048201523360248201527f00000000000000000000000000000000000000000000000000000000000000006001600160a01b0316906391d148549060440160206040518083038186803b158015611ad157600080fd5b505afa158015611ae5573d6000803e3d6000fd5b505050506040513d601f19601f82011682018060405250810190611b099190613389565b611b615760405162461bcd60e51b815260206004820152602360248201527f5375417574683a206f6e6c795661756c7441636365737320415554485f46414960448201526213115160ea1b6064820152608401610308565b6001600160a01b038084166000908152600760209081526040808320938616835292905220548390839015611be45760405162461bcd60e51b815260206004820152602360248201527f556e69742050726f746f636f6c3a204c49515549444154494e475f504f53495460448201526224a7a760e91b6064820152608401610308565b611bf085853086612e87565b6001600160a01b03808616600090815260056020908152604080832093881683529290522054611c21908490613471565b6001600160a01b039586166000908152600560209081526040808320979098168252959095529490932093909355505050565b604051632474521560e21b815260008051602061354883398151915260048201523360248201527f00000000000000000000000000000000000000000000000000000000000000006001600160a01b0316906391d148549060440160206040518083038186803b158015611cc757600080fd5b505afa158015611cdb573d6000803e3d6000fd5b505050506040513d601f19601f82011682018060405250810190611cff9190613389565b611d575760405162461bcd60e51b815260206004820152602360248201527f5375417574683a206f6e6c795661756c7441636365737320415554485f46414960448201526213115160ea1b6064820152608401610308565b6001600160a01b038088166000908152600760209081526040808320938a1683529290522054611def5760405162461bcd60e51b815260206004820152602860248201527f556e69742050726f746f636f6c3a204e4f545f5452494747455245445f4c495160448201527f5549444154494f4e0000000000000000000000000000000000000000000000006064820152608401610308565b6001600160a01b038088166000908152600560209081526040808320938a168352929052908120549085611e2388846134c8565b611e2d91906134c8565b6001600160a01b03808b166000818152600860209081526040808320948e1680845294825280832083905583835260078252808320858452825280832083905583835260068252808320858452825280832083905592825260058152828220938252929092528120559050611ea289896115f7565b83851115612021578315611f6c57611f6c7f0000000000000000000000000000000000000000000000000000000000000000847f00000000000000000000000000000000000000000000000000000000000000006001600160a01b03166341fbb0506040518163ffffffff1660e01b815260040160206040518083038186803b158015611f2e57600080fd5b505afa158015611f42573d6000803e3d6000fd5b505050506040513d601f19601f82011682018060405250810190611f66919061321f565b87612e87565b6001600160a01b037f000000000000000000000000000000000000000000000000000000000000000016639dc29fac84611fa687896134c8565b6040517fffffffff0000000000000000000000000000000000000000000000000000000060e085901b1681526001600160a01b0390921660048301526024820152604401600060405180830381600087803b15801561200457600080fd5b505af1158015612018573d6000803e3d6000fd5b505050506120e3565b84156120e3576120e37f0000000000000000000000000000000000000000000000000000000000000000847f00000000000000000000000000000000000000000000000000000000000000006001600160a01b03166341fbb0506040518163ffffffff1660e01b815260040160206040518083038186803b1580156120a557600080fd5b505afa1580156120b9573d6000803e3d6000fd5b505050506040513d601f19601f820116820180604052508101906120dd919061321f565b88612e87565b86156120f4576120f4898489612f38565b851561210557612105898988612f38565b80156121a6576121a6897f00000000000000000000000000000000000000000000000000000000000000006001600160a01b03166341fbb0506040518163ffffffff1660e01b815260040160206040518083038186803b15801561216857600080fd5b505afa15801561217c573d6000803e3d6000fd5b505050506040513d601f19601f820116820180604052508101906121a0919061321f565b83612f38565b505050505050505050565b604051632474521560e21b8152600060048201523360248201527f00000000000000000000000000000000000000000000000000000000000000006001600160a01b0316906391d148549060440160206040518083038186803b15801561221757600080fd5b505afa15801561222b573d6000803e3d6000fd5b505050506040513d601f19601f8201168201806040525081019061224f9190613389565b61229b5760405162461bcd60e51b815260206004820152601d60248201527f5375417574683a206f6e6c794f776e657220415554485f4641494c45440000006044820152606401610308565b6001600160a01b03909116600090815260208190526040902055565b604051632474521560e21b8152600060048201523360248201527f00000000000000000000000000000000000000000000000000000000000000006001600160a01b0316906391d148549060440160206040518083038186803b15801561231d57600080fd5b505afa158015612331573d6000803e3d6000fd5b505050506040513d601f19601f820116820180604052508101906123559190613389565b6123a15760405162461bcd60e51b815260206004820152601d60248201527f5375417574683a206f6e6c794f776e657220415554485f4641494c45440000006044820152606401610308565b60648111156124185760405162461bcd60e51b815260206004820152602160248201527f556e69742050726f746f636f6c3a2056414c55455f4f55545f4f465f52414e4760448201527f45000000000000000000000000000000000000000000000000000000000000006064820152608401610308565b6001600160a01b03909116600090815260016020526040902055565b604051632474521560e21b815260008051602061354883398151915260048201523360248201527f00000000000000000000000000000000000000000000000000000000000000006001600160a01b0316906391d148549060440160206040518083038186803b1580156124a757600080fd5b505afa1580156124bb573d6000803e3d6000fd5b505050506040513d601f19601f820116820180604052508101906124df9190613389565b6125375760405162461bcd60e51b815260206004820152602360248201527f5375417574683a206f6e6c795661756c7441636365737320415554485f46414960448201526213115160ea1b6064820152608401610308565b6001600160a01b0380831660009081526007602090815260408083209385168352929052205482908290156125ba5760405162461bcd60e51b815260206004820152602360248201527f556e69742050726f746f636f6c3a204c49515549444154494e475f504f53495460448201526224a7a760e91b6064820152608401610308565b60006125c6858561292a565b6001600160a01b038087166000818152600660209081526040808320948a16835293815283822054928252600990529190912054919250829161260991906134c8565b6126139190613471565b6001600160a01b03868116600081815260096020908152604080832095909555600681528482208985168352905283902084905591517f10be7f3600000000000000000000000000000000000000000000000000000000815260048101929092527f000000000000000000000000000000000000000000000000000000000000000016906310be7f369060240160206040518083038186803b1580156126b857600080fd5b505afa1580156126cc573d6000803e3d6000fd5b505050506040513d601f19601f820116820180604052508101906126f091906133a5565b6001600160a01b038681166000818152600a602090815260408083208a86168452909152908190209390935591517f8b668a9d00000000000000000000000000000000000000000000000000000000815260048101929092527f00000000000000000000000000000000000000000000000000000000000000001690638b668a9d9060240160206040518083038186803b15801561278d57600080fd5b505afa1580156127a1573d6000803e3d6000fd5b505050506040513d601f19601f820116820180604052508101906127c591906133a5565b6001600160a01b039586166000818152600b602090815260408083209890991680835297815288822093909355908152600d825286812095815294905250505020429055565b604051632474521560e21b8152600060048201523360248201527f00000000000000000000000000000000000000000000000000000000000000006001600160a01b0316906391d148549060440160206040518083038186803b15801561287157600080fd5b505afa158015612885573d6000803e3d6000fd5b505050506040513d601f19601f820116820180604052508101906128a99190613389565b6128f55760405162461bcd60e51b815260206004820152601d60248201527f5375417574683a206f6e6c794f776e657220415554485f4641494c45440000006044820152606401610308565b60009283526003602090815260408085206001600160a01b039490941685529290529120805460ff1916911515919091179055565b6001600160a01b03808316600081815260066020908152604080832094861680845294825280832054938352600782528083209483529390529182205415612973579050612991565b60006129808585846119d5565b905061298c8183613471565b925050505b92915050565b604051632474521560e21b815260008051602061354883398151915260048201523360248201527f00000000000000000000000000000000000000000000000000000000000000006001600160a01b0316906391d148549060440160206040518083038186803b158015612a0a57600080fd5b505afa158015612a1e573d6000803e3d6000fd5b505050506040513d601f19601f82011682018060405250810190612a429190613389565b612a9a5760405162461bcd60e51b815260206004820152602360248201527f5375417574683a206f6e6c795661756c7441636365737320415554485f46414960448201526213115160ea1b6064820152608401610308565b6001600160a01b038084166000908152600760209081526040808320938616835292905220548390839015612b1d5760405162461bcd60e51b815260206004820152602360248201527f556e69742050726f746f636f6c3a204c49515549444154494e475f504f53495460448201526224a7a760e91b6064820152608401610308565b612b28858585612f38565b6001600160a01b03808616600090815260056020908152604080832093881683529290522054611c219084906134c8565b604051632474521560e21b8152600060048201523360248201527f00000000000000000000000000000000000000000000000000000000000000006001600160a01b0316906391d148549060440160206040518083038186803b158015612bbf57600080fd5b505afa158015612bd3573d6000803e3d6000fd5b505050506040513d601f19601f82011682018060405250810190612bf79190613389565b612c435760405162461bcd60e51b815260206004820152601d60248201527f5375417574683a206f6e6c794f776e657220415554485f4641494c45440000006044820152606401610308565b6001600160a01b038116612c995760405162461bcd60e51b815260206004820152601b60248201527f556e69742050726f746f636f6c3a205a45524f5f4144445245535300000000006044820152606401610308565b600480547fffffffffffffffffffffffff0000000000000000000000000000000000000000166001600160a01b0392909216919091179055565b604051632474521560e21b815260008051602061354883398151915260048201523360248201527f00000000000000000000000000000000000000000000000000000000000000006001600160a01b0316906391d148549060440160206040518083038186803b158015612d4657600080fd5b505afa158015612d5a573d6000803e3d6000fd5b505050506040513d601f19601f82011682018060405250810190612d7e9190613389565b612dd65760405162461bcd60e51b815260206004820152602360248201527f5375417574683a206f6e6c795661756c7441636365737320415554485f46414960448201526213115160ea1b6064820152608401610308565b6001600160a01b038083166000908152600760209081526040808320938516835292905220548290829015612e595760405162461bcd60e51b815260206004820152602360248201527f556e69742050726f746f636f6c3a204c49515549444154494e475f504f53495460448201526224a7a760e91b6064820152608401610308565b50506001600160a01b0391821660009081526007602090815260408083209390941682529190915290812055565b6040516001600160a01b0380851660248301528316604482015260648101829052610da69085907f23b872dd00000000000000000000000000000000000000000000000000000000906084015b60408051601f198184030181529190526020810180517bffffffffffffffffffffffffffffffffffffffffffffffffffffffff167fffffffff0000000000000000000000000000000000000000000000000000000090931692909217909152612f86565b6040516001600160a01b038316602482015260448101829052612f819084907fa9059cbb0000000000000000000000000000000000000000000000000000000090606401612ed4565b505050565b6000612fdb826040518060400160405280602081526020017f5361666545524332303a206c6f772d6c6576656c2063616c6c206661696c6564815250856001600160a01b031661306b9092919063ffffffff16565b805190915015612f815780806020019051810190612ff99190613389565b612f815760405162461bcd60e51b815260206004820152602a60248201527f5361666545524332303a204552433230206f7065726174696f6e20646964206e60448201527f6f742073756363656564000000000000000000000000000000000000000000006064820152608401610308565b606061307a8484600085613082565b949350505050565b6060824710156130fa5760405162461bcd60e51b815260206004820152602660248201527f416464726573733a20696e73756666696369656e742062616c616e636520666f60448201527f722063616c6c00000000000000000000000000000000000000000000000000006064820152608401610308565b6001600160a01b0385163b6131515760405162461bcd60e51b815260206004820152601d60248201527f416464726573733a2063616c6c20746f206e6f6e2d636f6e74726163740000006044820152606401610308565b600080866001600160a01b0316858760405161316d9190613422565b60006040518083038185875af1925050503d80600081146131aa576040519150601f19603f3d011682016040523d82523d6000602084013e6131af565b606091505b50915091506131bf8282866131ca565b979650505050505050565b606083156131d9575081611a57565b8251156131e95782518084602001fd5b8160405162461bcd60e51b8152600401610308919061343e565b600060208284031215613214578081fd5b8135611a5781613521565b600060208284031215613230578081fd5b8151611a5781613521565b6000806040838503121561324d578081fd5b823561325881613521565b9150602083013561326881613521565b809150509250929050565b600080600060608486031215613287578081fd5b833561329281613521565b925060208401356132a281613521565b929592945050506040919091013590565b600080600080600080600060e0888a0312156132cd578283fd5b87356132d881613521565b965060208801356132e881613521565b955060408801359450606088013593506080880135925060a0880135915060c088013561331481613521565b8091505092959891949750929550565b60008060408385031215613336578182fd5b823561334181613521565b946020939093013593505050565b60008060008060808587031215613364578384fd5b843561336f81613521565b966020860135965060408601359560600135945092505050565b60006020828403121561339a578081fd5b8151611a5781613539565b6000602082840312156133b6578081fd5b5051919050565b600080604083850312156133cf578182fd5b82359150602083013561326881613521565b6000806000606084860312156133f5578283fd5b83359250602084013561340781613521565b9150604084013561341781613539565b809150509250925092565b600082516134348184602087016134df565b9190910192915050565b602081526000825180602084015261345d8160408501602087016134df565b601f01601f19169190910160400192915050565b600082198211156134845761348461350b565b500190565b6000826134a457634e487b7160e01b81526012600452602481fd5b500490565b60008160001904831182151516156134c3576134c361350b565b500290565b6000828210156134da576134da61350b565b500390565b60005b838110156134fa5781810151838201526020016134e2565b83811115610da65750506000910152565b634e487b7160e01b600052601160045260246000fd5b6001600160a01b038116811461353657600080fd5b50565b801515811461353657600080fdfee965846df3dd5b1dfa65f58e31477079e90140e0908b6dd31b5aead5a57cf365a26469706673582212208f1ada3b74aaa252c857614f2e11d47e7baba99469d2d435b666d7e451f2535864736f6c63430008040033",
  "devdoc": {
    "kind": "dev",
    "methods": {},
    "version": 1
  },
  "userdoc": {
    "kind": "user",
    "methods": {
      "borrow(address,address,uint256)": {
        "notice": "no, one debt for [asset][user]"
      },
      "calculateFee(address,address,uint256)": {
        "notice": "No, any call of vault.update would calc fee in debt and restart fee timer"
      },
      "changeOracleType(address,address,uint256)": {
        "notice": "any time"
      },
      "chargeFee(address,address,uint256)": {
        "notice": "this is just transfer function, manager calc fees"
      },
      "collaterals(address,address)": {
        "notice": "No, it's how much user had stacked collaterael asset == collaterals[asset][user], i.e deposits"
      },
      "constructor": {
        "notice": "YES"
      },
      "debts(address,address)": {
        "notice": "Yes, in stablecoin amount, == debts[asset][user]"
      },
      "destroy(address,address)": {
        "notice": "only destroy debt info, exit -> _repay -> destroy if debt == 0"
      },
      "foundation()": {
        "notice": "Beneficiaty as VotingEscrow.vy"
      },
      "getTotalDebt(address,address)": {
        "notice": "they don't use it in practice"
      },
      "isOracleTypeEnabled(uint256,address)": {
        "notice": "TODO:"
      },
      "lastUpdate(address,address)": {
        "notice": "everything before lastUpdates is already calced in the debt. all data such as fees are from lastUpdate only"
      },
      "liquidate(address,address,uint256,uint256,uint256,uint256,address)": {
        "notice": "please see https://ratiofinance.medium.com/ratio-risk-lesson-2-cascading-liquidations-e91e04050f47"
      },
      "liquidationBlock(address,address)": {
        "notice": "Yes ,  liquidationBlock[asset][user]"
      },
      "liquidationFee(address,address)": {
        "notice": "Penalty during liquidation"
      },
      "liquidationPrice(address,address)": {
        "notice": "see line 287 triggerLiquidation: liquidationPrice[asset][positionOwner] = initialPrice;"
      },
      "oracleType(address,address)": {
        "notice": "ID of oracle contact for oracleType[asset][user]"
      },
      "protocolLiquidationFee(address)": {
        "notice": "yes"
      },
      "protocolStabilityFee(address)": {
        "notice": "yes"
      },
      "repay(address,address,uint256)": {
        "notice": "return for the debt"
      },
      "setCollateral(address,uint256,uint256,uint256)": {
        "notice": "Not sure it makes sense to split into create/edit functions"
      },
      "setLiquidationFee(address,uint256)": {
        "notice": "% 0 decimals, needede to get better variable names"
      },
      "setOracleType(uint256,address,bool)": {
        "notice": "All oracles implementation are numbered, so some of them support this particular asset"
      },
      "setStabilityFee(address,uint256)": {
        "notice": "No, it's APR ( per year, see calculateFee) percentrage, fee percentage; 3 decimals. YES, self-documented code-style is the best practice."
      },
      "setTokenDebtLimit(address,uint256)": {
        "notice": "Yes, application of  principle of least priviledge needed"
      },
      "spawn(address,address)": {
        "notice": "all implementation are numbered"
      },
      "stabilityFee(address,address)": {
        "notice": "current interest that user pay for stabilityFee[asset][user]"
      },
      "tokenDebtLimit(address)": {
        "notice": "yes, limit for each collateral-assert"
      },
      "tokenDebts(address)": {
        "notice": "How much stablecoin was borrowed against particular asset == tokenDebts[asset]"
      },
      "triggerLiquidation(address,address,uint256)": {
        "notice": "it's Vault so Manager does tells it what to do."
      },
      "update(address,address)": {
        "notice": "when user borrows more"
      }
    },
    "version": 1
  },
  "storageLayout": {
    "storage": [
      {
        "astId": 6984,
        "contract": "contracts/lending/SuVault.sol:SuVault",
        "label": "protocolStabilityFee",
        "offset": 0,
        "slot": "0",
        "type": "t_mapping(t_address,t_uint256)"
      },
      {
        "astId": 6989,
        "contract": "contracts/lending/SuVault.sol:SuVault",
        "label": "protocolLiquidationFee",
        "offset": 0,
        "slot": "1",
        "type": "t_mapping(t_address,t_uint256)"
      },
      {
        "astId": 6994,
        "contract": "contracts/lending/SuVault.sol:SuVault",
        "label": "tokenDebtLimit",
        "offset": 0,
        "slot": "2",
        "type": "t_mapping(t_address,t_uint256)"
      },
      {
        "astId": 7001,
        "contract": "contracts/lending/SuVault.sol:SuVault",
        "label": "isOracleTypeEnabled",
        "offset": 0,
        "slot": "3",
        "type": "t_mapping(t_uint256,t_mapping(t_address,t_bool))"
      },
      {
        "astId": 7004,
        "contract": "contracts/lending/SuVault.sol:SuVault",
        "label": "foundation",
        "offset": 0,
        "slot": "4",
        "type": "t_address"
      },
      {
        "astId": 6127,
        "contract": "contracts/lending/SuVault.sol:SuVault",
        "label": "collaterals",
        "offset": 0,
        "slot": "5",
        "type": "t_mapping(t_address,t_mapping(t_address,t_uint256))"
      },
      {
        "astId": 6134,
        "contract": "contracts/lending/SuVault.sol:SuVault",
        "label": "debts",
        "offset": 0,
        "slot": "6",
        "type": "t_mapping(t_address,t_mapping(t_address,t_uint256))"
      },
      {
        "astId": 6141,
        "contract": "contracts/lending/SuVault.sol:SuVault",
        "label": "liquidationBlock",
        "offset": 0,
        "slot": "7",
        "type": "t_mapping(t_address,t_mapping(t_address,t_uint256))"
      },
      {
        "astId": 6148,
        "contract": "contracts/lending/SuVault.sol:SuVault",
        "label": "liquidationPrice",
        "offset": 0,
        "slot": "8",
        "type": "t_mapping(t_address,t_mapping(t_address,t_uint256))"
      },
      {
        "astId": 6153,
        "contract": "contracts/lending/SuVault.sol:SuVault",
        "label": "tokenDebts",
        "offset": 0,
        "slot": "9",
        "type": "t_mapping(t_address,t_uint256)"
      },
      {
        "astId": 6160,
        "contract": "contracts/lending/SuVault.sol:SuVault",
        "label": "stabilityFee",
        "offset": 0,
        "slot": "10",
        "type": "t_mapping(t_address,t_mapping(t_address,t_uint256))"
      },
      {
        "astId": 6167,
        "contract": "contracts/lending/SuVault.sol:SuVault",
        "label": "liquidationFee",
        "offset": 0,
        "slot": "11",
        "type": "t_mapping(t_address,t_mapping(t_address,t_uint256))"
      },
      {
        "astId": 6174,
        "contract": "contracts/lending/SuVault.sol:SuVault",
        "label": "oracleType",
        "offset": 0,
        "slot": "12",
        "type": "t_mapping(t_address,t_mapping(t_address,t_uint256))"
      },
      {
        "astId": 6181,
        "contract": "contracts/lending/SuVault.sol:SuVault",
        "label": "lastUpdate",
        "offset": 0,
        "slot": "13",
        "type": "t_mapping(t_address,t_mapping(t_address,t_uint256))"
      }
    ],
    "types": {
      "t_address": {
        "encoding": "inplace",
        "label": "address",
        "numberOfBytes": "20"
      },
      "t_bool": {
        "encoding": "inplace",
        "label": "bool",
        "numberOfBytes": "1"
      },
      "t_mapping(t_address,t_bool)": {
        "encoding": "mapping",
        "key": "t_address",
        "label": "mapping(address => bool)",
        "numberOfBytes": "32",
        "value": "t_bool"
      },
      "t_mapping(t_address,t_mapping(t_address,t_uint256))": {
        "encoding": "mapping",
        "key": "t_address",
        "label": "mapping(address => mapping(address => uint256))",
        "numberOfBytes": "32",
        "value": "t_mapping(t_address,t_uint256)"
      },
      "t_mapping(t_address,t_uint256)": {
        "encoding": "mapping",
        "key": "t_address",
        "label": "mapping(address => uint256)",
        "numberOfBytes": "32",
        "value": "t_uint256"
      },
      "t_mapping(t_uint256,t_mapping(t_address,t_bool))": {
        "encoding": "mapping",
        "key": "t_uint256",
        "label": "mapping(uint256 => mapping(address => bool))",
        "numberOfBytes": "32",
        "value": "t_mapping(t_address,t_bool)"
      },
      "t_uint256": {
        "encoding": "inplace",
        "label": "uint256",
        "numberOfBytes": "32"
      }
    }
  }
}