{
  "_format": "hh-sol-artifact-1",
  "contractName": "GainErc20v1",
  "sourceName": "contracts/gain-erc20/GainErc20v1.sol",
  "abi": [
    {
      "inputs": [
        {
          "internalType": "string",
          "name": "name_",
          "type": "string"
        },
        {
          "internalType": "string",
          "name": "symbol_",
          "type": "string"
        }
      ],
      "stateMutability": "nonpayable",
      "type": "constructor"
    },
    {
      "anonymous": false,
      "inputs": [
        {
          "indexed": true,
          "internalType": "address",
          "name": "owner",
          "type": "address"
        },
        {
          "indexed": true,
          "internalType": "address",
          "name": "spender",
          "type": "address"
        },
        {
          "indexed": false,
          "internalType": "uint256",
          "name": "value",
          "type": "uint256"
        }
      ],
      "name": "Approval",
      "type": "event"
    },
    {
      "anonymous": false,
      "inputs": [
        {
          "indexed": false,
          "internalType": "uint256",
          "name": "amount",
          "type": "uint256"
        },
        {
          "indexed": false,
          "internalType": "uint256",
          "name": "newMultiplicator1e18",
          "type": "uint256"
        }
      ],
      "name": "Distributed",
      "type": "event"
    },
    {
      "anonymous": false,
      "inputs": [
        {
          "indexed": true,
          "internalType": "address",
          "name": "from",
          "type": "address"
        },
        {
          "indexed": true,
          "internalType": "address",
          "name": "to",
          "type": "address"
        },
        {
          "indexed": false,
          "internalType": "uint256",
          "name": "value",
          "type": "uint256"
        }
      ],
      "name": "Transfer",
      "type": "event"
    },
    {
      "inputs": [],
      "name": "_multiplicator1e18",
      "outputs": [
        {
          "internalType": "uint256",
          "name": "",
          "type": "uint256"
        }
      ],
      "stateMutability": "view",
      "type": "function"
    },
    {
      "inputs": [
        {
          "internalType": "address",
          "name": "owner",
          "type": "address"
        },
        {
          "internalType": "address",
          "name": "spender",
          "type": "address"
        }
      ],
      "name": "allowance",
      "outputs": [
        {
          "internalType": "uint256",
          "name": "",
          "type": "uint256"
        }
      ],
      "stateMutability": "view",
      "type": "function"
    },
    {
      "inputs": [
        {
          "internalType": "address",
          "name": "spender",
          "type": "address"
        },
        {
          "internalType": "uint256",
          "name": "amount",
          "type": "uint256"
        }
      ],
      "name": "approve",
      "outputs": [
        {
          "internalType": "bool",
          "name": "",
          "type": "bool"
        }
      ],
      "stateMutability": "nonpayable",
      "type": "function"
    },
    {
      "inputs": [
        {
          "internalType": "address",
          "name": "account",
          "type": "address"
        }
      ],
      "name": "balanceOf",
      "outputs": [
        {
          "internalType": "uint256",
          "name": "",
          "type": "uint256"
        }
      ],
      "stateMutability": "view",
      "type": "function"
    },
    {
      "inputs": [],
      "name": "decimals",
      "outputs": [
        {
          "internalType": "uint8",
          "name": "",
          "type": "uint8"
        }
      ],
      "stateMutability": "view",
      "type": "function"
    },
    {
      "inputs": [
        {
          "internalType": "address",
          "name": "spender",
          "type": "address"
        },
        {
          "internalType": "uint256",
          "name": "subtractedValue",
          "type": "uint256"
        }
      ],
      "name": "decreaseAllowance",
      "outputs": [
        {
          "internalType": "bool",
          "name": "",
          "type": "bool"
        }
      ],
      "stateMutability": "nonpayable",
      "type": "function"
    },
    {
      "inputs": [
        {
          "internalType": "uint256",
          "name": "amount",
          "type": "uint256"
        }
      ],
      "name": "distribute",
      "outputs": [],
      "stateMutability": "nonpayable",
      "type": "function"
    },
    {
      "inputs": [
        {
          "internalType": "address",
          "name": "spender",
          "type": "address"
        },
        {
          "internalType": "uint256",
          "name": "addedValue",
          "type": "uint256"
        }
      ],
      "name": "increaseAllowance",
      "outputs": [
        {
          "internalType": "bool",
          "name": "",
          "type": "bool"
        }
      ],
      "stateMutability": "nonpayable",
      "type": "function"
    },
    {
      "inputs": [],
      "name": "name",
      "outputs": [
        {
          "internalType": "string",
          "name": "",
          "type": "string"
        }
      ],
      "stateMutability": "view",
      "type": "function"
    },
    {
      "inputs": [],
      "name": "symbol",
      "outputs": [
        {
          "internalType": "string",
          "name": "",
          "type": "string"
        }
      ],
      "stateMutability": "view",
      "type": "function"
    },
    {
      "inputs": [],
      "name": "totalSupply",
      "outputs": [
        {
          "internalType": "uint256",
          "name": "",
          "type": "uint256"
        }
      ],
      "stateMutability": "view",
      "type": "function"
    },
    {
      "inputs": [
        {
          "internalType": "address",
          "name": "recipient",
          "type": "address"
        },
        {
          "internalType": "uint256",
          "name": "amount",
          "type": "uint256"
        }
      ],
      "name": "transfer",
      "outputs": [
        {
          "internalType": "bool",
          "name": "",
          "type": "bool"
        }
      ],
      "stateMutability": "nonpayable",
      "type": "function"
    },
    {
      "inputs": [
        {
          "internalType": "address",
          "name": "sender",
          "type": "address"
        },
        {
          "internalType": "address",
          "name": "recipient",
          "type": "address"
        },
        {
          "internalType": "uint256",
          "name": "amount",
          "type": "uint256"
        }
      ],
      "name": "transferFrom",
      "outputs": [
        {
          "internalType": "bool",
          "name": "",
          "type": "bool"
        }
      ],
      "stateMutability": "nonpayable",
      "type": "function"
    }
  ],
  "bytecode": "0x60806040523480156200001157600080fd5b5060405162000fcd38038062000fcd8339810160408190526200003491620001cd565b81516200004990600490602085019062000074565b5080516200005f90600590602084019062000074565b5050670de0b6b3a76400006001555062000287565b828054620000829062000234565b90600052602060002090601f016020900481019282620000a65760008555620000f1565b82601f10620000c157805160ff1916838001178555620000f1565b82800160010185558215620000f1579182015b82811115620000f1578251825591602001919060010190620000d4565b50620000ff92915062000103565b5090565b5b80821115620000ff576000815560010162000104565b600082601f8301126200012b578081fd5b81516001600160401b038082111562000148576200014862000271565b604051601f8301601f19908116603f0116810190828211818310171562000173576200017362000271565b816040528381526020925086838588010111156200018f578485fd5b8491505b83821015620001b2578582018301518183018401529082019062000193565b83821115620001c357848385830101525b9695505050505050565b60008060408385031215620001e0578182fd5b82516001600160401b0380821115620001f7578384fd5b62000205868387016200011a565b935060208501519150808211156200021b578283fd5b506200022a858286016200011a565b9150509250929050565b600181811c908216806200024957607f821691505b602082108114156200026b57634e487b7160e01b600052602260045260246000fd5b50919050565b634e487b7160e01b600052604160045260246000fd5b610d3680620002976000396000f3fe608060405234801561001057600080fd5b50600436106100df5760003560e01c806370a082311161008c578063a457c2d711610066578063a457c2d71461019c578063a9059cbb146101af578063bd6fc718146101c2578063dd62ed3e146101cb57600080fd5b806370a082311461016c57806391c05b0b1461017f57806395d89b411461019457600080fd5b806323b872dd116100bd57806323b872dd14610137578063313ce5671461014a578063395093511461015957600080fd5b806306fdde03146100e4578063095ea7b31461010257806318160ddd14610125575b600080fd5b6100ec610204565b6040516100f99190610bee565b60405180910390f35b610115610110366004610b8d565b610296565b60405190151581526020016100f9565b6003545b6040519081526020016100f9565b610115610145366004610b52565b6102ac565b604051601281526020016100f9565b610115610167366004610b8d565b6102d0565b61012961017a366004610aff565b61030c565b61019261018d366004610bd6565b61034e565b005b6100ec6104d4565b6101156101aa366004610b8d565b6104e3565b6101156101bd366004610b8d565b61059b565b61012960015481565b6101296101d9366004610b20565b6001600160a01b03918216600090815260026020908152604080832093909416825291909152205490565b60606004805461021390610caf565b80601f016020809104026020016040519081016040528092919081815260200182805461023f90610caf565b801561028c5780601f106102615761010080835404028352916020019161028c565b820191906000526020600020905b81548152906001019060200180831161026f57829003601f168201915b5050505050905090565b60006102a33384846105a8565b50600192915050565b6000336102ba858285610700565b6102c5858585610792565b506001949350505050565b3360008181526002602090815260408083206001600160a01b038716845290915281205490916102a3918590610307908690610c41565b6105a8565b6001546001600160a01b0382166000908152602081905260408120549091670de0b6b3a76400009161033e9190610c79565b6103489190610c59565b92915050565b306323b872dd336040517fffffffff0000000000000000000000000000000000000000000000000000000060e084901b1681526001600160a01b03909116600482015230602482015260448101849052606401602060405180830381600087803b1580156103bb57600080fd5b505af11580156103cf573d6000803e3d6000fd5b505050506040513d601f19601f820116820180604052508101906103f39190610bb6565b50600154306000908152602081905260408120549091670de0b6b3a76400009161041d9190610c79565b6104279190610c59565b6001549091506104378383610c98565b61044990670de0b6b3a7640000610c79565b6104539190610c59565b30600090815260208190526040812091909155600354610474908490610c98565b6003546001546104849190610c79565b61048e9190610c59565b600181905560408051858152602081018390529192507f97791d3ac1343e05805a2f905fa80b249c2ca58cf9fef455d4fa7ec13ce58321910160405180910390a1505050565b60606005805461021390610caf565b3360009081526002602090815260408083206001600160a01b0386168452909152812054828110156105825760405162461bcd60e51b815260206004820152602560248201527f45524332303a2064656372656173656420616c6c6f77616e63652062656c6f7760448201527f207a65726f00000000000000000000000000000000000000000000000000000060648201526084015b60405180910390fd5b61059133856103078685610c98565b5060019392505050565b60006102a3338484610792565b6001600160a01b0383166106235760405162461bcd60e51b8152602060048201526024808201527f45524332303a20617070726f76652066726f6d20746865207a65726f2061646460448201527f72657373000000000000000000000000000000000000000000000000000000006064820152608401610579565b6001600160a01b03821661069f5760405162461bcd60e51b815260206004820152602260248201527f45524332303a20617070726f766520746f20746865207a65726f20616464726560448201527f73730000000000000000000000000000000000000000000000000000000000006064820152608401610579565b6001600160a01b0383811660008181526002602090815260408083209487168084529482529182902085905590518481527f8c5be1e5ebec7d5bd14f71427d1e84f3dd0314c0f7b2291e5b200ac8c7c3b925910160405180910390a3505050565b6001600160a01b03838116600090815260026020908152604080832093861683529290522054600019811461078c578181101561077f5760405162461bcd60e51b815260206004820152601d60248201527f45524332303a20696e73756666696369656e7420616c6c6f77616e63650000006044820152606401610579565b61078c84848484036105a8565b50505050565b6001600160a01b03831661080e5760405162461bcd60e51b815260206004820152602560248201527f45524332303a207472616e736665722066726f6d20746865207a65726f20616460448201527f64726573730000000000000000000000000000000000000000000000000000006064820152608401610579565b6001600160a01b03821661088a5760405162461bcd60e51b815260206004820152602360248201527f45524332303a207472616e7366657220746f20746865207a65726f206164647260448201527f65737300000000000000000000000000000000000000000000000000000000006064820152608401610579565b6001546001600160a01b0384166000908152602081905260408120549091670de0b6b3a7640000916108bc9190610c79565b6108c69190610c59565b90508181101561093e5760405162461bcd60e51b815260206004820152602660248201527f45524332303a207472616e7366657220616d6f756e742065786365656473206260448201527f616c616e636500000000000000000000000000000000000000000000000000006064820152608401610579565b600154600090670de0b6b3a764000090806109598686610c98565b61096b90670de0b6b3a7640000610c79565b6109759190610c59565b61097f9190610c79565b6109899190610c59565b6109938484610c98565b61099d9190610c98565b90508060015484846109af9190610c98565b6109c190670de0b6b3a7640000610c79565b6109cb9190610c59565b6109d59190610c41565b6001600160a01b038616600090815260208190526040812091909155600154670de0b6b3a76400009080610a098784610c79565b610a139190610c59565b610a1d9190610c79565b610a279190610c59565b610a319085610c98565b90508060015485670de0b6b3a7640000610a4b9190610c79565b610a559190610c59565b610a5f9190610c41565b6001600160a01b03861660009081526020819052604081208054909190610a87908490610c41565b92505081905550846001600160a01b0316866001600160a01b03167fddf252ad1be2c89b69c2b068fc378daa952ba7f163c4a11628f55a4df523b3ef86604051610ad391815260200190565b60405180910390a3505050505050565b80356001600160a01b0381168114610afa57600080fd5b919050565b600060208284031215610b10578081fd5b610b1982610ae3565b9392505050565b60008060408385031215610b32578081fd5b610b3b83610ae3565b9150610b4960208401610ae3565b90509250929050565b600080600060608486031215610b66578081fd5b610b6f84610ae3565b9250610b7d60208501610ae3565b9150604084013590509250925092565b60008060408385031215610b9f578182fd5b610ba883610ae3565b946020939093013593505050565b600060208284031215610bc7578081fd5b81518015158114610b19578182fd5b600060208284031215610be7578081fd5b5035919050565b6000602080835283518082850152825b81811015610c1a57858101830151858201604001528201610bfe565b81811115610c2b5783604083870101525b50601f01601f1916929092016040019392505050565b60008219821115610c5457610c54610cea565b500190565b600082610c7457634e487b7160e01b81526012600452602481fd5b500490565b6000816000190483118215151615610c9357610c93610cea565b500290565b600082821015610caa57610caa610cea565b500390565b600181811c90821680610cc357607f821691505b60208210811415610ce457634e487b7160e01b600052602260045260246000fd5b50919050565b634e487b7160e01b600052601160045260246000fdfea264697066735822122090b64521a07823fcabf5b4966ba3ca04809aec12d19ebb3f368240914863af2f64736f6c63430008040033",
  "linkReferences": {},
  "deployedLinkReferences": {}
}