{
  "address": "0x6F56EEC8c0B08cD7111271F65179cbF7cB06FEDe",
  "abi": [
    {
      "inputs": [
        {
          "internalType": "address",
          "name": "sender",
          "type": "address"
        }
      ],
      "name": "NotAPool",
      "type": "error"
    },
    {
      "inputs": [],
      "name": "SwapNotProfitable",
      "type": "error"
    },
    {
      "inputs": [
        {
          "internalType": "address",
          "name": "tokenA",
          "type": "address"
        },
        {
          "internalType": "address",
          "name": "tokenB",
          "type": "address"
        }
      ],
      "name": "UniswapPoolNotExist",
      "type": "error"
    },
    {
      "anonymous": false,
      "inputs": [
        {
          "indexed": false,
          "internalType": "uint8",
          "name": "version",
          "type": "uint8"
        }
      ],
      "name": "Initialized",
      "type": "event"
    },
    {
      "inputs": [
        {
          "internalType": "address",
          "name": "tokenA",
          "type": "address"
        },
        {
          "internalType": "address",
          "name": "tokenB",
          "type": "address"
        }
      ],
      "name": "getPoolFee",
      "outputs": [
        {
          "internalType": "uint24",
          "name": "",
          "type": "uint24"
        }
      ],
      "stateMutability": "view",
      "type": "function"
    },
    {
      "inputs": [
        {
          "internalType": "address",
          "name": "_exchange",
          "type": "address"
        },
        {
          "internalType": "address",
          "name": "_swapRouter",
          "type": "address"
        },
        {
          "internalType": "address",
          "name": "_uniswapFactory",
          "type": "address"
        }
      ],
      "name": "initialize",
      "outputs": [],
      "stateMutability": "nonpayable",
      "type": "function"
    },
    {
      "inputs": [
        {
          "internalType": "uint256",
          "name": "",
          "type": "uint256"
        }
      ],
      "name": "poolFees",
      "outputs": [
        {
          "internalType": "uint24",
          "name": "",
          "type": "uint24"
        }
      ],
      "stateMutability": "view",
      "type": "function"
    },
    {
      "inputs": [
        {
          "internalType": "address",
          "name": "tokenA",
          "type": "address"
        },
        {
          "internalType": "address",
          "name": "tokenB",
          "type": "address"
        },
        {
          "internalType": "uint24",
          "name": "poolFee",
          "type": "uint24"
        }
      ],
      "name": "setPoolFee",
      "outputs": [],
      "stateMutability": "nonpayable",
      "type": "function"
    },
    {
      "inputs": [
        {
          "internalType": "uint256",
          "name": "orderId",
          "type": "uint256"
        },
        {
          "internalType": "address",
          "name": "tokenA",
          "type": "address"
        },
        {
          "internalType": "address",
          "name": "tokenB",
          "type": "address"
        },
        {
          "internalType": "uint256",
          "name": "tokenBAmount",
          "type": "uint256"
        },
        {
          "internalType": "bytes",
          "name": "path",
          "type": "bytes"
        }
      ],
      "name": "swapByUniswapWithFlashLoan",
      "outputs": [],
      "stateMutability": "nonpayable",
      "type": "function"
    },
    {
      "inputs": [
        {
          "internalType": "uint256",
          "name": "fee0",
          "type": "uint256"
        },
        {
          "internalType": "uint256",
          "name": "_fee1",
          "type": "uint256"
        },
        {
          "internalType": "bytes",
          "name": "data",
          "type": "bytes"
        }
      ],
      "name": "uniswapV3FlashCallback",
      "outputs": [],
      "stateMutability": "nonpayable",
      "type": "function"
    }
  ],
  "numDeployments": 6,
  "solcInputHash": "2e17e28f4e888650cafa0f5a54e92707",
  "bytecode": "0x608060405234801561001057600080fd5b5061122b806100206000396000f3fe608060405234801561001057600080fd5b50600436106100625760003560e01c806311236758146100675780634ee540b4146100a4578063b1c807b3146100b7578063b45faa76146100cc578063c0c53b8b146100df578063e9cbafb0146100f2575b600080fd5b61008c610075366004610c58565b60016020526000908152604090205462ffffff1681565b60405162ffffff909116815260200160405180910390f35b61008c6100b2366004610c89565b610105565b6100ca6100c5366004610d8c565b61014b565b005b6100ca6100da366004610e01565b61023f565b6100ca6100ed366004610e54565b61027d565b6100ca610100366004610e94565b61044c565b6000806001600061011686866106b2565b8152602081019190915260400160009081205462ffffff16915081900361013f57610bb8610141565b805b9150505b92915050565b6004546000906101659085906001600160a01b03166106f9565b905060006040518060c00160405280888152602001876001600160a01b03168152602001866001600160a01b03168152602001858152602001336001600160a01b03168152602001848152506040516020016101c19190610f63565b60408051601f19818403018152908290526312439b2f60e21b825291506001600160a01b0383169063490e6cbc9061020490309088906000908790600401610fc0565b600060405180830381600087803b15801561021e57600080fd5b505af1158015610232573d6000803e3d6000fd5b5050505050505050505050565b806001600061024e86866106b2565b815260200190815260200160002060006101000a81548162ffffff021916908362ffffff160217905550505050565b600054610100900460ff161580801561029d5750600054600160ff909116105b806102b75750303b1580156102b7575060005460ff166001145b61031f5760405162461bcd60e51b815260206004820152602e60248201527f496e697469616c697a61626c653a20636f6e747261637420697320616c72656160448201526d191e481a5b9a5d1a585b1a5e995960921b60648201526084015b60405180910390fd5b6000805460ff191660011790558015610342576000805461ff0019166101001790555b600580546001600160a01b038087166001600160a01b0319928316179092556002805486841690831681179091556003805493861693909216929092179055604080516312a9293f60e21b81529051634aa4a4fc916004808201926020929091908290030181865afa1580156103bc573d6000803e3d6000fd5b505050506040513d601f19601f820116820180604052508101906103e09190610ff7565b600480546001600160a01b0319166001600160a01b03929092169190911790558015610446576000805461ff0019169055604051600181527f7f26b83ff96e1f2b6a682f133852f6798a09c465da95921460cefb38474024989060200160405180910390a15b50505050565b600061045a82840184611014565b604081015160045491925060009161047b91906001600160a01b03166106f9565b9050336001600160a01b038216146104a85760405163e372835960e01b8152336004820152602401610316565b6005548251604051636830b7c960e11b815260048101919091526000916001600160a01b03169063d0616f9290602401602060405180830381865afa1580156104f5573d6000803e3d6000fd5b505050506040513d601f19601f8201168201806040525081019061051991906110cd565b905060008360600151821161052e5781610534565b83606001515b9050610549846040015185608001518361072c565b60055484516080860151604051639081bf3960e01b81526004810192909252602482018490526001600160a01b039081166044830152600060648301819052928392911690639081bf399060840160408051808303816000875af11580156105b5573d6000803e3d6000fd5b505050506040513d601f19601f820116820180604052508101906105d991906110e6565b909250905060006105ea8285611120565b9050610600876020015188608001513086610836565b60006106228860200151858e866106179190611133565b308c60a00151610940565b905060006106308683611120565b90508c81116106525760405163510a529560e01b815260040160405180910390fd5b60008d8a606001516106649190611133565b905060008e6106738685611120565b61067d9190611120565b905061068e8b604001518b8461072c565b6106a18b604001518c608001518361072c565b505050505050505050505050505050565b6040516001600160601b0319606084811b8216602084015283901b1660348201526000906048015b60408051601f1981840301815291905280516020909101209392505050565b600354600090610725906001600160a01b0316610720858561071b8282610105565b610a20565b610a8b565b9392505050565b600080846001600160a01b031663a9059cbb60e01b8585604051602401610754929190611146565b60408051601f198184030181529181526020820180516001600160e01b03166001600160e01b0319909416939093179092529051610792919061115f565b6000604051808303816000865af19150503d80600081146107cf576040519150601f19603f3d011682016040523d82523d6000602084013e6107d4565b606091505b50915091508180156107fe5750805115806107fe5750808060200190518101906107fe919061117b565b61082f5760405162461bcd60e51b815260206004820152600260248201526114d560f21b6044820152606401610316565b5050505050565b604080516001600160a01b0385811660248301528481166044830152606480830185905283518084039091018152608490920183526020820180516001600160e01b03166323b872dd60e01b179052915160009283929088169161089a919061115f565b6000604051808303816000865af19150503d80600081146108d7576040519150601f19603f3d011682016040523d82523d6000602084013e6108dc565b606091505b5091509150818015610906575080511580610906575080806020019051810190610906919061117b565b6109385760405162461bcd60e51b815260206004820152600360248201526229aa2360e91b6044820152606401610316565b505050505050565b6040805160a0810182528281526001600160a01b038085166020830152429282019290925260608101869052608081018590526002546000926109869189911688610b55565b6001600160a01b03841630146109a2576109a287853089610836565b60025460405163c04b8d5960e01b81526001600160a01b039091169063c04b8d59906109d290849060040161119d565b6020604051808303816000875af11580156109f1573d6000803e3d6000fd5b505050506040513d601f19601f82011682018060405250810190610a1591906110cd565b979650505050505050565b6040805160608101825260008082526020820181905291810191909152826001600160a01b0316846001600160a01b03161115610a5b579192915b50604080516060810182526001600160a01b03948516815292909316602083015262ffffff169181019190915290565b600081602001516001600160a01b031682600001516001600160a01b031610610ab357600080fd5b815160208084015160408086015181516001600160a01b0395861681860152949092168482015262ffffff90911660608085019190915281518085038201815260808501909252815191909201206001600160f81b031960a08401529085901b6001600160601b03191660a183015260b58201527fe34f199b19b2b4f47f68442619d555527d244f78a3297ea89325f843f87b8b5460d582015260f5016106da565b600080846001600160a01b031663095ea7b360e01b8585604051602401610b7d929190611146565b60408051601f198184030181529181526020820180516001600160e01b03166001600160e01b0319909416939093179092529051610bbb919061115f565b6000604051808303816000865af19150503d8060008114610bf8576040519150601f19603f3d011682016040523d82523d6000602084013e610bfd565b606091505b5091509150818015610c27575080511580610c27575080806020019051810190610c27919061117b565b61082f5760405162461bcd60e51b8152602060048201526002602482015261534160f01b6044820152606401610316565b600060208284031215610c6a57600080fd5b5035919050565b6001600160a01b0381168114610c8657600080fd5b50565b60008060408385031215610c9c57600080fd5b8235610ca781610c71565b91506020830135610cb781610c71565b809150509250929050565b634e487b7160e01b600052604160045260246000fd5b60405160c081016001600160401b0381118282101715610cfa57610cfa610cc2565b60405290565b600082601f830112610d1157600080fd5b81356001600160401b0380821115610d2b57610d2b610cc2565b604051601f8301601f19908116603f01168101908282118183101715610d5357610d53610cc2565b81604052838152866020858801011115610d6c57600080fd5b836020870160208301376000602085830101528094505050505092915050565b600080600080600060a08688031215610da457600080fd5b853594506020860135610db681610c71565b93506040860135610dc681610c71565b92506060860135915060808601356001600160401b03811115610de857600080fd5b610df488828901610d00565b9150509295509295909350565b600080600060608486031215610e1657600080fd5b8335610e2181610c71565b92506020840135610e3181610c71565b9150604084013562ffffff81168114610e4957600080fd5b809150509250925092565b600080600060608486031215610e6957600080fd5b8335610e7481610c71565b92506020840135610e8481610c71565b91506040840135610e4981610c71565b60008060008060608587031215610eaa57600080fd5b843593506020850135925060408501356001600160401b0380821115610ecf57600080fd5b818701915087601f830112610ee357600080fd5b813581811115610ef257600080fd5b886020828501011115610f0457600080fd5b95989497505060200194505050565b60005b83811015610f2e578181015183820152602001610f16565b50506000910152565b60008151808452610f4f816020860160208601610f13565b601f01601f19169290920160200192915050565b60208152815160208201526000602083015160018060a01b038082166040850152806040860151166060850152606085015160808501528060808601511660a0850152505060a083015160c08084015261014160e0840182610f37565b60018060a01b0385168152836020820152826040820152608060608201526000610fed6080830184610f37565b9695505050505050565b60006020828403121561100957600080fd5b815161013f81610c71565b60006020828403121561102657600080fd5b81356001600160401b038082111561103d57600080fd5b9083019060c0828603121561105157600080fd5b611059610cd8565b82358152602083013561106b81610c71565b6020820152604083013561107e81610c71565b604082015260608381013590820152608083013561109b81610c71565b608082015260a0830135828111156110b257600080fd5b6110be87828601610d00565b60a08301525095945050505050565b6000602082840312156110df57600080fd5b5051919050565b600080604083850312156110f957600080fd5b505080516020909101519092909150565b634e487b7160e01b600052601160045260246000fd5b818103818111156101455761014561110a565b808201808211156101455761014561110a565b6001600160a01b03929092168252602082015260400190565b60008251611171818460208701610f13565b9190910192915050565b60006020828403121561118d57600080fd5b8151801515811461013f57600080fd5b602081526000825160a060208401526111b960c0840182610f37565b905060018060a01b0360208501511660408401526040840151606084015260608401516080840152608084015160a0840152809150509291505056fea2646970667358221220d93d21f9aa31384c9ab01b01706c3a2ee2449e6ca61fb9c75d02e2fbec71789464736f6c63430008110033",
  "devdoc": {
    "kind": "dev",
    "methods": {},
    "version": 1
  },
  "userdoc": {
    "kind": "user",
    "methods": {},
    "version": 1
  },
  "storageLayout": {
    "storage": [
      {
        "astId": 6,
        "contract": "contracts/liquidator/v2/contracts/ArbitrageHelper.sol:ArbitrageHelper",
        "label": "_initialized",
        "offset": 0,
        "slot": "0",
        "type": "t_uint8"
      },
      {
        "astId": 9,
        "contract": "contracts/liquidator/v2/contracts/ArbitrageHelper.sol:ArbitrageHelper",
        "label": "_initializing",
        "offset": 1,
        "slot": "0",
        "type": "t_bool"
      },
      {
        "astId": 1338,
        "contract": "contracts/liquidator/v2/contracts/ArbitrageHelper.sol:ArbitrageHelper",
        "label": "poolFees",
        "offset": 0,
        "slot": "1",
        "type": "t_mapping(t_uint256,t_uint24)"
      },
      {
        "astId": 1341,
        "contract": "contracts/liquidator/v2/contracts/ArbitrageHelper.sol:ArbitrageHelper",
        "label": "SWAP_ROUTER",
        "offset": 0,
        "slot": "2",
        "type": "t_contract(ISwapRouter)1148"
      },
      {
        "astId": 1343,
        "contract": "contracts/liquidator/v2/contracts/ArbitrageHelper.sol:ArbitrageHelper",
        "label": "UNISWAP_FACTORY",
        "offset": 0,
        "slot": "3",
        "type": "t_address"
      },
      {
        "astId": 1345,
        "contract": "contracts/liquidator/v2/contracts/ArbitrageHelper.sol:ArbitrageHelper",
        "label": "WETH",
        "offset": 0,
        "slot": "4",
        "type": "t_address"
      },
      {
        "astId": 1348,
        "contract": "contracts/liquidator/v2/contracts/ArbitrageHelper.sol:ArbitrageHelper",
        "label": "EXCHANGE",
        "offset": 0,
        "slot": "5",
        "type": "t_contract(IExchange)2004"
      },
      {
        "astId": 1788,
        "contract": "contracts/liquidator/v2/contracts/ArbitrageHelper.sol:ArbitrageHelper",
        "label": "__gap",
        "offset": 0,
        "slot": "6",
        "type": "t_array(t_uint256)45_storage"
      }
    ],
    "types": {
      "t_address": {
        "encoding": "inplace",
        "label": "address",
        "numberOfBytes": "20"
      },
      "t_array(t_uint256)45_storage": {
        "base": "t_uint256",
        "encoding": "inplace",
        "label": "uint256[45]",
        "numberOfBytes": "1440"
      },
      "t_bool": {
        "encoding": "inplace",
        "label": "bool",
        "numberOfBytes": "1"
      },
      "t_contract(IExchange)2004": {
        "encoding": "inplace",
        "label": "contract IExchange",
        "numberOfBytes": "20"
      },
      "t_contract(ISwapRouter)1148": {
        "encoding": "inplace",
        "label": "contract ISwapRouter",
        "numberOfBytes": "20"
      },
      "t_mapping(t_uint256,t_uint24)": {
        "encoding": "mapping",
        "key": "t_uint256",
        "label": "mapping(uint256 => uint24)",
        "numberOfBytes": "32",
        "value": "t_uint24"
      },
      "t_uint24": {
        "encoding": "inplace",
        "label": "uint24",
        "numberOfBytes": "3"
      },
      "t_uint256": {
        "encoding": "inplace",
        "label": "uint256",
        "numberOfBytes": "32"
      },
      "t_uint8": {
        "encoding": "inplace",
        "label": "uint8",
        "numberOfBytes": "1"
      }
    }
  }
}