{
  "address": "0x8224e44E7ee2f2A574F1A30EB57a9fB50E65CC10",
  "abi": [
    {
      "inputs": [],
      "name": "BadAccessControlSingleton",
      "type": "error"
    },
    {
      "inputs": [],
      "name": "BadDecodedData",
      "type": "error"
    },
    {
      "inputs": [
        {
          "internalType": "address",
          "name": "sender",
          "type": "address"
        }
      ],
      "name": "BadSender",
      "type": "error"
    },
    {
      "inputs": [
        {
          "internalType": "address",
          "name": "lpToken",
          "type": "address"
        }
      ],
      "name": "LPTokenNotSupported",
      "type": "error"
    },
    {
      "inputs": [
        {
          "internalType": "address",
          "name": "sender",
          "type": "address"
        }
      ],
      "name": "NotAPool",
      "type": "error"
    },
    {
      "inputs": [],
      "name": "OnlyAdminError",
      "type": "error"
    },
    {
      "inputs": [],
      "name": "OnlyDAOError",
      "type": "error"
    },
    {
      "inputs": [],
      "name": "OnlyLiquidationAccessError",
      "type": "error"
    },
    {
      "inputs": [],
      "name": "OnlyMintAccessError",
      "type": "error"
    },
    {
      "inputs": [],
      "name": "OnlyPauserError",
      "type": "error"
    },
    {
      "inputs": [],
      "name": "OnlyRewardAccessError",
      "type": "error"
    },
    {
      "inputs": [],
      "name": "OnlyVaultAccessError",
      "type": "error"
    },
    {
      "inputs": [],
      "name": "SwapByParaSwapError",
      "type": "error"
    },
    {
      "inputs": [],
      "name": "SwapNotProfitable",
      "type": "error"
    },
    {
      "anonymous": false,
      "inputs": [
        {
          "indexed": false,
          "internalType": "uint8",
          "name": "version",
          "type": "uint8"
        }
      ],
      "name": "Initialized",
      "type": "event"
    },
    {
      "inputs": [],
      "name": "ACCESS_CONTROL_SINGLETON",
      "outputs": [
        {
          "internalType": "contract ISuAccessControl",
          "name": "",
          "type": "address"
        }
      ],
      "stateMutability": "view",
      "type": "function"
    },
    {
      "inputs": [],
      "name": "ADMIN_ROLE",
      "outputs": [
        {
          "internalType": "bytes32",
          "name": "",
          "type": "bytes32"
        }
      ],
      "stateMutability": "view",
      "type": "function"
    },
    {
      "inputs": [],
      "name": "DAO_ROLE",
      "outputs": [
        {
          "internalType": "bytes32",
          "name": "",
          "type": "bytes32"
        }
      ],
      "stateMutability": "view",
      "type": "function"
    },
    {
      "inputs": [],
      "name": "LIQUIDATION_ACCESS_ROLE",
      "outputs": [
        {
          "internalType": "bytes32",
          "name": "",
          "type": "bytes32"
        }
      ],
      "stateMutability": "view",
      "type": "function"
    },
    {
      "inputs": [],
      "name": "MINT_ACCESS_ROLE",
      "outputs": [
        {
          "internalType": "bytes32",
          "name": "",
          "type": "bytes32"
        }
      ],
      "stateMutability": "view",
      "type": "function"
    },
    {
      "inputs": [],
      "name": "PAUSER_ROLE",
      "outputs": [
        {
          "internalType": "bytes32",
          "name": "",
          "type": "bytes32"
        }
      ],
      "stateMutability": "view",
      "type": "function"
    },
    {
      "inputs": [],
      "name": "REWARD_ACCESS_ROLE",
      "outputs": [
        {
          "internalType": "bytes32",
          "name": "",
          "type": "bytes32"
        }
      ],
      "stateMutability": "view",
      "type": "function"
    },
    {
      "inputs": [],
      "name": "VAULT_ACCESS_ROLE",
      "outputs": [
        {
          "internalType": "bytes32",
          "name": "",
          "type": "bytes32"
        }
      ],
      "stateMutability": "view",
      "type": "function"
    },
    {
      "inputs": [
        {
          "internalType": "address",
          "name": "asset",
          "type": "address"
        },
        {
          "internalType": "uint256",
          "name": "amount",
          "type": "uint256"
        },
        {
          "internalType": "uint256",
          "name": "fee",
          "type": "uint256"
        },
        {
          "internalType": "address",
          "name": "sender",
          "type": "address"
        },
        {
          "internalType": "bytes",
          "name": "data",
          "type": "bytes"
        }
      ],
      "name": "executeOperation",
      "outputs": [
        {
          "internalType": "bool",
          "name": "",
          "type": "bool"
        }
      ],
      "stateMutability": "nonpayable",
      "type": "function"
    },
    {
      "inputs": [
        {
          "internalType": "address",
          "name": "_authControl",
          "type": "address"
        },
        {
          "internalType": "address",
          "name": "_exchange",
          "type": "address"
        },
        {
          "internalType": "address",
          "name": "_aavePool",
          "type": "address"
        }
      ],
      "name": "initialize",
      "outputs": [],
      "stateMutability": "nonpayable",
      "type": "function"
    },
    {
      "inputs": [
        {
          "internalType": "bytes4",
          "name": "interfaceId",
          "type": "bytes4"
        }
      ],
      "name": "supportsInterface",
      "outputs": [
        {
          "internalType": "bool",
          "name": "",
          "type": "bool"
        }
      ],
      "stateMutability": "view",
      "type": "function"
    },
    {
      "inputs": [
        {
          "internalType": "address",
          "name": "token2sell",
          "type": "address"
        },
        {
          "internalType": "uint256",
          "name": "amount2sell",
          "type": "uint256"
        },
        {
          "internalType": "address",
          "name": "contractAddress",
          "type": "address"
        },
        {
          "internalType": "bytes",
          "name": "data",
          "type": "bytes"
        }
      ],
      "name": "swapBy1Inch",
      "outputs": [],
      "stateMutability": "nonpayable",
      "type": "function"
    },
    {
      "inputs": [
        {
          "internalType": "address",
          "name": "token2sell",
          "type": "address"
        },
        {
          "internalType": "uint256",
          "name": "amount2sell",
          "type": "uint256"
        },
        {
          "components": [
            {
              "internalType": "address",
              "name": "contractAddress",
              "type": "address"
            },
            {
              "internalType": "address",
              "name": "tokenTransferProxy",
              "type": "address"
            },
            {
              "internalType": "bytes",
              "name": "data",
              "type": "bytes"
            }
          ],
          "internalType": "struct ParaswapData",
          "name": "paraswapData",
          "type": "tuple"
        }
      ],
      "name": "swapByParaswap",
      "outputs": [],
      "stateMutability": "nonpayable",
      "type": "function"
    },
    {
      "inputs": [
        {
          "internalType": "uint256",
          "name": "orderId",
          "type": "uint256"
        },
        {
          "internalType": "address",
          "name": "tokenA",
          "type": "address"
        },
        {
          "internalType": "address",
          "name": "tokenB",
          "type": "address"
        },
        {
          "internalType": "uint256",
          "name": "tokenBAmount",
          "type": "uint256"
        },
        {
          "components": [
            {
              "internalType": "address",
              "name": "contractAddress",
              "type": "address"
            },
            {
              "internalType": "bytes",
              "name": "data",
              "type": "bytes"
            }
          ],
          "internalType": "struct InchData",
          "name": "inchData",
          "type": "tuple"
        }
      ],
      "name": "swapWithFlashLoan",
      "outputs": [],
      "stateMutability": "nonpayable",
      "type": "function"
    }
  ],
  "numDeployments": 7,
  "solcInputHash": "dd557791782b2a744fb91d3e74be9d42",
  "bytecode": "0x60808060405234610016576111b7908161001c8239f35b600080fdfe608080604052600436101561001357600080fd5b600090813560e01c90816301ffc9a714610d7b5750806303ee9f2214610d5057806314c376dc14610d155780631b11d0ff1461077857806326e391e8146105d3578063438280dd1461059857806375b238fc1461057c5780638ada99ee146105295780638e5313e0146104ee5780639a239d76146103e1578063c0c53b8b1461016e578063dc97e84e14610133578063e63ab1e9146100f85763e9c26518146100bb57600080fd5b346100f557806003193601126100f55760206040517f3b5d4cc60d3ec3516ee8ae083bd60934f6eb2a6c54b1229985c41bfb092b26038152f35b80fd5b50346100f557806003193601126100f55760206040517f65d7a28e3265b37a6474929f336521b332c1681b933f6cb9f3376673440d862a8152f35b50346100f557806003193601126100f55760206040517f9a9aef7c1247d5fc769b0185c052913e39673da29a880317dfd20ebf86f26a498152f35b50346100f55760603660031901126100f557610188610e11565b610190610e2c565b90610199610e42565b9183549060ff8260081c1615918280936103d4575b80156103bd575b156103615760ff198116600117865582610350575b5084549260ff8460081c16156102f75762010000600160b01b03601082901b1662010000600160b01b03198516811787556040516301ffc9a760e01b8152637965db0b60e01b600482015290956001600160a01b03929091906020908290602490829087165afa9081156102ec5788916102be575b50156102ac578160018060a01b031993168360025416176002551690600154161760015561026b578280f35b610100600160b01b031916178155604051600181527f7f26b83ff96e1f2b6a682f133852f6798a09c465da95921460cefb384740249890602090a138808280f35b6040516384d942fd60e01b8152600490fd5b6102df915060203d81116102e5575b6102d78183610e6c565b810190610f47565b3861023f565b503d6102cd565b6040513d8a823e3d90fd5b60405162461bcd60e51b815260206004820152602b60248201527f496e697469616c697a61626c653a20636f6e7472616374206973206e6f74206960448201526a6e697469616c697a696e6760a81b6064820152608490fd5b61ffff1916610101178555386101ca565b60405162461bcd60e51b815260206004820152602e60248201527f496e697469616c697a61626c653a20636f6e747261637420697320616c72656160448201526d191e481a5b9a5d1a585b1a5e995960921b6064820152608490fd5b50303b1580156101b55750600160ff8216146101b5565b50600160ff8216106101ae565b50346100f5576003196060368201126104ea576103fc610e11565b906001600160401b0390604435908282116104e65760609082360301126104e257604051926060840193808510848611176104cc57859460405261044283600401610e58565b815261045060248401610e58565b926020820193845260448101359485116104c857610478610496916004889736920101610eaa565b6040830190815293516001600160a01b039360243591851690610faa565b511690519082602083519301915af16104ad610f5f565b50156104b65780f35b604051637448f3e960e11b8152600490fd5b8580fd5b634e487b7160e01b600052604160045260246000fd5b8380fd5b8480fd5b5080fd5b50346100f557806003193601126100f55760206040517fe453bacb314e78dcd5192e6b1a2b1f0e7c76e92f6b7e429a6a90f04e39db3b768152f35b50346100f55760803660031901126100f557610543610e11565b61054b610e42565b60643591906001600160401b0383116104e25761056f610579933690600401610eaa565b9160243590611056565b80f35b50346100f557806003193601126100f557602090604051908152f35b50346100f557806003193601126100f55760206040517f39f61ca2a1a28fee144218173ec637b649a353e4026b2738c673800e5bf1437b8152f35b50346100f55760a03660031901126100f5576105ed610e2c565b6105f5610e42565b906001600160401b03906064356084358381116104c85761061a903690600401610ef1565b9160405160c08101818110868211176107645787949392916106d89160405260043581526106ca60208083019660018060a01b0380961688528580604086019c169b8c81526060860189815282608088019233845260a08901958652816040519d8e9a89808d01525160408c0152511660608a0152511660808801525160a0870152511660c08501525160c060e08501528581511661010085015201516040610120840152610140830190611080565b03601f198101855284610e6c565b6001541690813b156104e2578361071e96604051978895869485936310ac2ddf60e21b85523060048601526024850152604484015260a0606484015260a4830190611080565b82608483015203925af1801561075957610736578280f35b81116107455760405238808280f35b634e487b7160e01b82526041600452602482fd5b6040513d85823e3d90fd5b634e487b7160e01b88526041600452602488fd5b50346100f55760a03660031901126100f557610792610e11565b6064356001600160a01b0381168103610d1157608435906001600160401b0382116104e257366023830112156104e25760048201356001600160401b0381116104e6578201913660248401116104e6576020818403126104e65760248101356001600160401b0381116104c85760c08183018503126104c8576040519360c085016001600160401b03811186821017610764576040528282016024810135865261083e90604401610e58565b6020860152610851606483850101610e58565b60408601528282016084810135606087015261086f9060a401610e58565b60808601526001600160401b0383830160c4013511610b855761089f926024918201920160c48101350101610ef1565b60a08301526001546001600160a01b03163303610cf957306001600160a01b03821603610cd7575060408101516001600160a01b03838116911614801590610cc7575b610cb55760018060a01b03600254166020825160246040518094819363f8de678160e01b835260048301525afa908115610caa578491610c78575b50602435811115610c7357506024355b60808201516109479082906001600160a01b0316856110e3565b6002548251608084015160408051639081bf3960e01b81526004810193909352602483018590526001600160a01b039182166044840152606483018890529192839160849183918a91165af18015610c685785918691610c2c575b506109ad90836110c0565b60208481015160808601516040516323b872dd60e01b938101939093526001600160a01b03908116602484015230604484015260648084018690528352929492166001600160401b0360a0830190811190831117610764578188929160a084930160405282602083519301915af1610a23610f5f565b81610bfd575b5015610bd2576040516370a0823160e01b8152306004820152916020836024816001600160a01b038a165afa928315610b91578793610b9c575b5060208581015160a08701518051920151610a8c9390926001600160a01b039081169216611056565b6040516370a0823160e01b81523060048201526020816024816001600160a01b038a165afa908115610b91578791610b59575b50610ad292610acd916110c0565b6110c0565b6044359283821115610b475783610acd610b0494610afd93608060018060a01b0391015116946110c0565b90846110e3565b60018060a01b03600154169060243501918260243511610b3357610b289350610faa565b602060405160018152f35b634e487b7160e01b84526011600452602484fd5b60405163510a529560e01b8152600490fd5b90506020813d602011610b89575b81610b7460209383610e6c565b81010312610b855751610ad2610abf565b8680fd5b3d9150610b67565b6040513d89823e3d90fd5b9092506020813d602011610bca575b81610bb860209383610e6c565b81010312610b85575191610a8c610a63565b3d9150610bab565b60405162461bcd60e51b815260206004820152600360248201526229aa2360e91b6044820152606490fd5b8051801592508215610c12575b505038610a29565b610c259250602080918301019101610f47565b3880610c0a565b9150506040813d604011610c60575b81610c4860409383610e6c565b810103126104e6576109ad60208251920151906109a2565b3d9150610c3b565b6040513d87823e3d90fd5b61092d565b90506020813d602011610ca2575b81610c9360209383610e6c565b810103126104e257513861091d565b3d9150610c86565b6040513d86823e3d90fd5b604051632d6c570f60e01b8152600490fd5b50606081015160243514156108e2565b604051637d85130d60e11b81526001600160a01b039091166004820152602490fd5b60405163e372835960e01b8152336004820152602490fd5b8280fd5b50346100f557806003193601126100f55760206040517fe965846df3dd5b1dfa65f58e31477079e90140e0908b6dd31b5aead5a57cf3658152f35b50346100f557806003193601126100f5575460405160109190911c6001600160a01b03168152602090f35b9050346104ea5760203660031901126104ea5760043563ffffffff60e01b8116809103610d115782546301ffc9a760e01b835260048301919091526020908290602490829060101c6001600160a01b03165afa908115610e065760209291610de9575b506040519015158152f35b610e009150823d81116102e5576102d78183610e6c565b38610dde565b6040513d84823e3d90fd5b600435906001600160a01b0382168203610e2757565b600080fd5b602435906001600160a01b0382168203610e2757565b604435906001600160a01b0382168203610e2757565b35906001600160a01b0382168203610e2757565b601f909101601f19168101906001600160401b038211908210176104cc57604052565b6001600160401b0381116104cc57601f01601f191660200190565b81601f82011215610e2757803590610ec182610e8f565b92610ecf6040519485610e6c565b82845260208383010111610e2757816000926020809301838601378301015290565b919091604081840312610e275760408051916001600160401b03918301828111848210176104cc576040528294610f2782610e58565b84526020820135928311610e2757602092610f429201610eaa565b910152565b90816020910312610e2757518015158103610e275790565b3d15610f8a573d90610f7082610e8f565b91610f7e6040519384610e6c565b82523d6000602084013e565b606090565b6001600160a01b039091168152602081019190915260400190565b6000929183610fd5610fe38295604051928391602083019663095ea7b360e01b885260248401610f8f565b03601f198101835282610e6c565b51925af1610fef610f5f565b81611027575b5015610ffd57565b60405162461bcd60e51b8152602060048201526002602482015261534160f01b6044820152606490fd5b805180159250821561103c575b505038610ff5565b61104f9250602080918301019101610f47565b3880611034565b9161106660009492828695610faa565b82602083519301915af1611078610f5f565b50156104b657565b919082519283825260005b8481106110ac575050826000602080949584010152601f8019910116010190565b60208183018101518483018201520161108b565b919082039182116110cd57565b634e487b7160e01b600052601160045260246000fd5b6000929183610fd561110e8295604051928391602083019663a9059cbb60e01b885260248401610f8f565b51925af161111a610f5f565b81611152575b501561112857565b60405162461bcd60e51b815260206004820152600260248201526114d560f21b6044820152606490fd5b8051801592508215611167575b505038611120565b61117a9250602080918301019101610f47565b388061115f56fea26469706673582212201fa174f3e898dde36931af77422b42cf8e8f0ed8d82cd5b9ea75352f387519b164736f6c63430008110033",
  "devdoc": {
    "kind": "dev",
    "methods": {
      "supportsInterface(bytes4)": {
        "details": "Returns true if this contract implements the interface defined by `interfaceId`. See the corresponding https://eips.ethereum.org/EIPS/eip-165#how-interfaces-are-identified[EIP section] to learn more about how these ids are created. This function call must use less than 30 000 gas."
      }
    },
    "version": 1
  },
  "userdoc": {
    "kind": "user",
    "methods": {},
    "version": 1
  },
  "storageLayout": {
    "storage": [
      {
        "astId": 461,
        "contract": "contracts/exchange/contracts/ArbitrageHelper.sol:ArbitrageHelper",
        "label": "_initialized",
        "offset": 0,
        "slot": "0",
        "type": "t_uint8"
      },
      {
        "astId": 464,
        "contract": "contracts/exchange/contracts/ArbitrageHelper.sol:ArbitrageHelper",
        "label": "_initializing",
        "offset": 1,
        "slot": "0",
        "type": "t_bool"
      },
      {
        "astId": 9094,
        "contract": "contracts/exchange/contracts/ArbitrageHelper.sol:ArbitrageHelper",
        "label": "ACCESS_CONTROL_SINGLETON",
        "offset": 2,
        "slot": "0",
        "type": "t_contract(ISuAccessControl)16250"
      },
      {
        "astId": 9847,
        "contract": "contracts/exchange/contracts/ArbitrageHelper.sol:ArbitrageHelper",
        "label": "AAVE_POOL",
        "offset": 0,
        "slot": "1",
        "type": "t_contract(IAavePool)12395"
      },
      {
        "astId": 9850,
        "contract": "contracts/exchange/contracts/ArbitrageHelper.sol:ArbitrageHelper",
        "label": "EXCHANGE",
        "offset": 0,
        "slot": "2",
        "type": "t_contract(IExchange)13081"
      },
      {
        "astId": 10205,
        "contract": "contracts/exchange/contracts/ArbitrageHelper.sol:ArbitrageHelper",
        "label": "__gap",
        "offset": 0,
        "slot": "3",
        "type": "t_array(t_uint256)45_storage"
      }
    ],
    "types": {
      "t_array(t_uint256)45_storage": {
        "base": "t_uint256",
        "encoding": "inplace",
        "label": "uint256[45]",
        "numberOfBytes": "1440"
      },
      "t_bool": {
        "encoding": "inplace",
        "label": "bool",
        "numberOfBytes": "1"
      },
      "t_contract(IAavePool)12395": {
        "encoding": "inplace",
        "label": "contract IAavePool",
        "numberOfBytes": "20"
      },
      "t_contract(IExchange)13081": {
        "encoding": "inplace",
        "label": "contract IExchange",
        "numberOfBytes": "20"
      },
      "t_contract(ISuAccessControl)16250": {
        "encoding": "inplace",
        "label": "contract ISuAccessControl",
        "numberOfBytes": "20"
      },
      "t_uint256": {
        "encoding": "inplace",
        "label": "uint256",
        "numberOfBytes": "32"
      },
      "t_uint8": {
        "encoding": "inplace",
        "label": "uint8",
        "numberOfBytes": "1"
      }
    }
  }
}