{
  "address": "0xf4E59b110B7323C7a2Ad0c17fB6bC7F32Bf546cF",
  "abi": [
    {
      "inputs": [],
      "name": "BadAccessControlSingleton",
      "type": "error"
    },
    {
      "inputs": [],
      "name": "BadDecodedData",
      "type": "error"
    },
    {
      "inputs": [
        {
          "internalType": "address",
          "name": "sender",
          "type": "address"
        }
      ],
      "name": "BadSender",
      "type": "error"
    },
    {
      "inputs": [
        {
          "internalType": "address",
          "name": "sender",
          "type": "address"
        }
      ],
      "name": "NotAPool",
      "type": "error"
    },
    {
      "inputs": [],
      "name": "OnlyAdminError",
      "type": "error"
    },
    {
      "inputs": [],
      "name": "OnlyDAOError",
      "type": "error"
    },
    {
      "inputs": [],
      "name": "OnlyLiquidationAccessError",
      "type": "error"
    },
    {
      "inputs": [],
      "name": "OnlyMintAccessError",
      "type": "error"
    },
    {
      "inputs": [],
      "name": "OnlyPauserError",
      "type": "error"
    },
    {
      "inputs": [],
      "name": "OnlyRewardAccessError",
      "type": "error"
    },
    {
      "inputs": [],
      "name": "OnlyVaultAccessError",
      "type": "error"
    },
    {
      "inputs": [],
      "name": "SwapNotProfitable",
      "type": "error"
    },
    {
      "anonymous": false,
      "inputs": [
        {
          "indexed": false,
          "internalType": "uint8",
          "name": "version",
          "type": "uint8"
        }
      ],
      "name": "Initialized",
      "type": "event"
    },
    {
      "inputs": [],
      "name": "ACCESS_CONTROL_SINGLETON",
      "outputs": [
        {
          "internalType": "contract ISuAccessControl",
          "name": "",
          "type": "address"
        }
      ],
      "stateMutability": "view",
      "type": "function"
    },
    {
      "inputs": [],
      "name": "ADMIN_ROLE",
      "outputs": [
        {
          "internalType": "bytes32",
          "name": "",
          "type": "bytes32"
        }
      ],
      "stateMutability": "view",
      "type": "function"
    },
    {
      "inputs": [],
      "name": "DAO_ROLE",
      "outputs": [
        {
          "internalType": "bytes32",
          "name": "",
          "type": "bytes32"
        }
      ],
      "stateMutability": "view",
      "type": "function"
    },
    {
      "inputs": [],
      "name": "LIQUIDATION_ACCESS_ROLE",
      "outputs": [
        {
          "internalType": "bytes32",
          "name": "",
          "type": "bytes32"
        }
      ],
      "stateMutability": "view",
      "type": "function"
    },
    {
      "inputs": [],
      "name": "MINT_ACCESS_ROLE",
      "outputs": [
        {
          "internalType": "bytes32",
          "name": "",
          "type": "bytes32"
        }
      ],
      "stateMutability": "view",
      "type": "function"
    },
    {
      "inputs": [],
      "name": "PAUSER_ROLE",
      "outputs": [
        {
          "internalType": "bytes32",
          "name": "",
          "type": "bytes32"
        }
      ],
      "stateMutability": "view",
      "type": "function"
    },
    {
      "inputs": [],
      "name": "REWARD_ACCESS_ROLE",
      "outputs": [
        {
          "internalType": "bytes32",
          "name": "",
          "type": "bytes32"
        }
      ],
      "stateMutability": "view",
      "type": "function"
    },
    {
      "inputs": [],
      "name": "VAULT_ACCESS_ROLE",
      "outputs": [
        {
          "internalType": "bytes32",
          "name": "",
          "type": "bytes32"
        }
      ],
      "stateMutability": "view",
      "type": "function"
    },
    {
      "inputs": [
        {
          "internalType": "address",
          "name": "asset",
          "type": "address"
        },
        {
          "internalType": "uint256",
          "name": "amount",
          "type": "uint256"
        },
        {
          "internalType": "uint256",
          "name": "fee",
          "type": "uint256"
        },
        {
          "internalType": "address",
          "name": "sender",
          "type": "address"
        },
        {
          "internalType": "bytes",
          "name": "data",
          "type": "bytes"
        }
      ],
      "name": "executeOperation",
      "outputs": [
        {
          "internalType": "bool",
          "name": "",
          "type": "bool"
        }
      ],
      "stateMutability": "nonpayable",
      "type": "function"
    },
    {
      "inputs": [
        {
          "internalType": "address",
          "name": "_authControl",
          "type": "address"
        },
        {
          "internalType": "address",
          "name": "_exchange",
          "type": "address"
        },
        {
          "internalType": "address",
          "name": "_aavePool",
          "type": "address"
        },
        {
          "internalType": "address",
          "name": "_swapRouter",
          "type": "address"
        }
      ],
      "name": "initialize",
      "outputs": [],
      "stateMutability": "nonpayable",
      "type": "function"
    },
    {
      "inputs": [
        {
          "internalType": "bytes4",
          "name": "interfaceId",
          "type": "bytes4"
        }
      ],
      "name": "supportsInterface",
      "outputs": [
        {
          "internalType": "bool",
          "name": "",
          "type": "bool"
        }
      ],
      "stateMutability": "view",
      "type": "function"
    },
    {
      "inputs": [
        {
          "internalType": "uint256",
          "name": "orderId",
          "type": "uint256"
        },
        {
          "internalType": "address",
          "name": "tokenA",
          "type": "address"
        },
        {
          "internalType": "address",
          "name": "tokenB",
          "type": "address"
        },
        {
          "internalType": "uint256",
          "name": "tokenBAmount",
          "type": "uint256"
        },
        {
          "internalType": "bytes",
          "name": "path",
          "type": "bytes"
        }
      ],
      "name": "swapWithFlashLoan",
      "outputs": [],
      "stateMutability": "nonpayable",
      "type": "function"
    }
  ],
  "numDeployments": 1,
  "solcInputHash": "dd557791782b2a744fb91d3e74be9d42",
  "bytecode": "0x608080604052346100165761100b908161001c8239f35b600080fdfe608080604052600436101561001357600080fd5b600090813560e01c90816301ffc9a714610c215750806303ee9f2214610bf657806314c376dc14610bbb5780631b11d0ff1461060a5780631fb9fec314610471578063438280dd1461043657806375b238fc1461041a5780638e5313e0146103df578063dc97e84e146103a4578063e63ab1e914610369578063e9c265181461032e5763f8c8765e146100a557600080fd5b3461032b57608036600319011261032b576100be610cac565b6100c6610cdd565b6100ce610cf3565b916100d7610cc7565b9184549160ff8360081c16159283809461031e575b8015610307575b156102ab5760ff19811660011787558361029a575b5085549360ff8560081c16156102415762010000600160b01b03601083901b1662010000600160b01b03198616811788556040516301ffc9a760e01b8152637965db0b60e01b600482015290966001600160a01b03939091906020908290602490829088165afa908115610236578991610208575b50156101f65782908160018060a01b0319951685600354161760035516836002541617600255169060015416176001556101b5578280f35b610100600160b01b031916178155604051600181527f7f26b83ff96e1f2b6a682f133852f6798a09c465da95921460cefb384740249890602090a138808280f35b6040516384d942fd60e01b8152600490fd5b610229915060203d811161022f575b6102218183610d1d565b810190610db8565b3861017d565b503d610217565b6040513d8b823e3d90fd5b60405162461bcd60e51b815260206004820152602b60248201527f496e697469616c697a61626c653a20636f6e7472616374206973206e6f74206960448201526a6e697469616c697a696e6760a81b6064820152608490fd5b61ffff191661010117865538610108565b60405162461bcd60e51b815260206004820152602e60248201527f496e697469616c697a61626c653a20636f6e747261637420697320616c72656160448201526d191e481a5b9a5d1a585b1a5e995960921b6064820152608490fd5b50303b1580156100f35750600160ff8216146100f3565b50600160ff8216106100ec565b80fd5b503461032b578060031936011261032b5760206040517f3b5d4cc60d3ec3516ee8ae083bd60934f6eb2a6c54b1229985c41bfb092b26038152f35b503461032b578060031936011261032b5760206040517f65d7a28e3265b37a6474929f336521b332c1681b933f6cb9f3376673440d862a8152f35b503461032b578060031936011261032b5760206040517f9a9aef7c1247d5fc769b0185c052913e39673da29a880317dfd20ebf86f26a498152f35b503461032b578060031936011261032b5760206040517fe453bacb314e78dcd5192e6b1a2b1f0e7c76e92f6b7e429a6a90f04e39db3b768152f35b503461032b578060031936011261032b57602090604051908152f35b503461032b578060031936011261032b5760206040517f39f61ca2a1a28fee144218173ec637b649a353e4026b2738c673800e5bf1437b8152f35b503461032b5760a036600319011261032b5761048b610cdd565b610493610cf3565b906001600160401b0390606435608435838111610606576104b8903690600401610d71565b9160405160c08101818110868211176105f2578794939291610562916040526004358152610554602082019560018060a01b0380951687528480604085019b169a8b81526060850188815282608087019233845260a08801958652816040519c8d996020808c01525160408b015251166060890152511660808701525160a0860152511660c08401525160c060e0840152610100830190610dd0565b03601f198101855284610d1d565b6002541690813b156105ee57836105a896604051978895869485936310ac2ddf60e21b85523060048601526024850152604484015260a0606484015260a4830190610dd0565b82608483015203925af180156105e3576105c0578280f35b81116105cf5760405238808280f35b634e487b7160e01b82526041600452602482fd5b6040513d85823e3d90fd5b8380fd5b634e487b7160e01b88526041600452602488fd5b8580fd5b503461032b5760a036600319011261032b57610624610cac565b61062c610cc7565b916084356001600160401b038111610b485736602382011215610b485760048101356001600160401b038111610bb35781019060248201903682116105ee576020818403126105ee576024810135906001600160401b038211610bb7579060c0910180930312610bb3576040519460c086016001600160401b03811187821017610a6457604052602483013586526106c660448401610d09565b60208701526106d760648401610d09565b91604087019283526060870193608481013585526106f760a48201610d09565b608089015260c4810135906001600160401b038211610baf5761071e929101602401610d71565b60a08701526002546001600160a01b03163303610b97576001600160a01b0316308103610b7f5750516001600160a01b0384811691161480159190610b71575b50610b5f5760018060a01b03600354166020845160246040518094819363f8de678160e01b835260048301525afa908115610b54578291610b1e575b50602435811115610b1957506024355b60808401516107c49082906001600160a01b031685610e8b565b6003548451608086015160408051639081bf3960e01b81526004810193909352602483018590526001600160a01b03918216604484015260648301869052919492859160849183918691165af1928315610b0c5781908294610ad2575b5061082c8484610e10565b60208781015160808901516040516323b872dd60e01b938101939093526001600160a01b03908116602484015230604484015260648084018690528352929692166001600160401b0360a0830190811190831117610a64578185929160a084930160405282602083519301915af16108a2610e40565b81610aa3575b5015610a785760208701516001600160a01b0316906108ca9060443590610e33565b5060a087810151604051929183018084116001600160401b0390911117610a645790829160a0602094016040528252610968858484019330855260408101944286526109306060830198808a52608084019685885260018060a01b036001541690610f37565b60018060a01b0360015416946040519889978896879563c04b8d5960e01b87528b60048801525160a0602488015260c4870190610dd0565b93516001600160a01b031660448601525160648501525160848401525160a483015203925af1918215610a58578092610a21575b5050906109a891610e10565b90604435821115610a0f576109dd6109e4926109d8610a0496608060018060a01b03910151169360443592610e10565b610e10565b9083610e8b565b6002546001600160a01b03166109fe604435602435610e33565b91610f37565b602060405160018152f35b60405163510a529560e01b8152600490fd5b9091506020823d602011610a50575b81610a3d60209383610d1d565b8101031261032b5750516109a83861099c565b3d9150610a30565b604051903d90823e3d90fd5b634e487b7160e01b85526041600452602485fd5b60405162461bcd60e51b815260206004820152600360248201526229aa2360e91b6044820152606490fd5b8051801592508215610ab8575b5050386108a8565b610acb9250602080918301019101610db8565b3880610ab0565b9350506040833d604011610b04575b81610aee60409383610d1d565b8101031261032b57602083519301519238610821565b3d9150610ae1565b50604051903d90823e3d90fd5b6107aa565b90506020813d602011610b4c575b81610b3960209383610d1d565b81010312610b4857513861079a565b5080fd5b3d9150610b2c565b6040513d84823e3d90fd5b604051632d6c570f60e01b8152600490fd5b90505160243514153861075e565b60249060405190637d85130d60e11b82526004820152fd5b60405163e372835960e01b8152336004820152602490fd5b8680fd5b8280fd5b8480fd5b503461032b578060031936011261032b5760206040517fe965846df3dd5b1dfa65f58e31477079e90140e0908b6dd31b5aead5a57cf3658152f35b503461032b578060031936011261032b575460405160109190911c6001600160a01b03168152602090f35b905034610b48576020366003190112610b485760043563ffffffff60e01b8116809103610bb35782546301ffc9a760e01b835260048301919091526020908290602490829060101c6001600160a01b03165afa908115610b545760209291610c8f575b506040519015158152f35b610ca69150823d811161022f576102218183610d1d565b38610c84565b600435906001600160a01b0382168203610cc257565b600080fd5b606435906001600160a01b0382168203610cc257565b602435906001600160a01b0382168203610cc257565b604435906001600160a01b0382168203610cc257565b35906001600160a01b0382168203610cc257565b601f909101601f19168101906001600160401b03821190821017610d4057604052565b634e487b7160e01b600052604160045260246000fd5b6001600160401b038111610d4057601f01601f191660200190565b81601f82011215610cc257803590610d8882610d56565b92610d966040519485610d1d565b82845260208383010111610cc257816000926020809301838601378301015290565b90816020910312610cc257518015158103610cc25790565b919082519283825260005b848110610dfc575050826000602080949584010152601f8019910116010190565b602081830181015184830182015201610ddb565b91908203918211610e1d57565b634e487b7160e01b600052601160045260246000fd5b91908201809211610e1d57565b3d15610e6b573d90610e5182610d56565b91610e5f6040519384610d1d565b82523d6000602084013e565b606090565b6001600160a01b039091168152602081019190915260400190565b6000929183610eb6610ec48295604051928391602083019663a9059cbb60e01b885260248401610e70565b03601f198101835282610d1d565b51925af1610ed0610e40565b81610f08575b5015610ede57565b60405162461bcd60e51b815260206004820152600260248201526114d560f21b6044820152606490fd5b8051801592508215610f1d575b505038610ed6565b610f309250602080918301019101610db8565b3880610f15565b6000929183610eb6610f628295604051928391602083019663095ea7b360e01b885260248401610e70565b51925af1610f6e610e40565b81610fa6575b5015610f7c57565b60405162461bcd60e51b8152602060048201526002602482015261534160f01b6044820152606490fd5b8051801592508215610fbb575b505038610f74565b610fce9250602080918301019101610db8565b3880610fb356fea264697066735822122091a382122ccf6c1e30829e8bf632483576e3e795a13db19e9cccd42ce330296964736f6c63430008110033",
  "devdoc": {
    "kind": "dev",
    "methods": {
      "supportsInterface(bytes4)": {
        "details": "Returns true if this contract implements the interface defined by `interfaceId`. See the corresponding https://eips.ethereum.org/EIPS/eip-165#how-interfaces-are-identified[EIP section] to learn more about how these ids are created. This function call must use less than 30 000 gas."
      }
    },
    "version": 1
  },
  "userdoc": {
    "kind": "user",
    "methods": {},
    "version": 1
  },
  "storageLayout": {
    "storage": [
      {
        "astId": 461,
        "contract": "contracts/exchange/contracts/ArbitrageHelperUniswap.sol:ArbitrageHelperUniswap",
        "label": "_initialized",
        "offset": 0,
        "slot": "0",
        "type": "t_uint8"
      },
      {
        "astId": 464,
        "contract": "contracts/exchange/contracts/ArbitrageHelperUniswap.sol:ArbitrageHelperUniswap",
        "label": "_initializing",
        "offset": 1,
        "slot": "0",
        "type": "t_bool"
      },
      {
        "astId": 9094,
        "contract": "contracts/exchange/contracts/ArbitrageHelperUniswap.sol:ArbitrageHelperUniswap",
        "label": "ACCESS_CONTROL_SINGLETON",
        "offset": 2,
        "slot": "0",
        "type": "t_contract(ISuAccessControl)16250"
      },
      {
        "astId": 10225,
        "contract": "contracts/exchange/contracts/ArbitrageHelperUniswap.sol:ArbitrageHelperUniswap",
        "label": "SWAP_ROUTER",
        "offset": 0,
        "slot": "1",
        "type": "t_contract(ISwapRouter)8728"
      },
      {
        "astId": 10228,
        "contract": "contracts/exchange/contracts/ArbitrageHelperUniswap.sol:ArbitrageHelperUniswap",
        "label": "AAVE_POOL",
        "offset": 0,
        "slot": "2",
        "type": "t_contract(IAavePool)12395"
      },
      {
        "astId": 10231,
        "contract": "contracts/exchange/contracts/ArbitrageHelperUniswap.sol:ArbitrageHelperUniswap",
        "label": "EXCHANGE",
        "offset": 0,
        "slot": "3",
        "type": "t_contract(IExchange)13081"
      },
      {
        "astId": 10563,
        "contract": "contracts/exchange/contracts/ArbitrageHelperUniswap.sol:ArbitrageHelperUniswap",
        "label": "__gap",
        "offset": 0,
        "slot": "4",
        "type": "t_array(t_uint256)45_storage"
      }
    ],
    "types": {
      "t_array(t_uint256)45_storage": {
        "base": "t_uint256",
        "encoding": "inplace",
        "label": "uint256[45]",
        "numberOfBytes": "1440"
      },
      "t_bool": {
        "encoding": "inplace",
        "label": "bool",
        "numberOfBytes": "1"
      },
      "t_contract(IAavePool)12395": {
        "encoding": "inplace",
        "label": "contract IAavePool",
        "numberOfBytes": "20"
      },
      "t_contract(IExchange)13081": {
        "encoding": "inplace",
        "label": "contract IExchange",
        "numberOfBytes": "20"
      },
      "t_contract(ISuAccessControl)16250": {
        "encoding": "inplace",
        "label": "contract ISuAccessControl",
        "numberOfBytes": "20"
      },
      "t_contract(ISwapRouter)8728": {
        "encoding": "inplace",
        "label": "contract ISwapRouter",
        "numberOfBytes": "20"
      },
      "t_uint256": {
        "encoding": "inplace",
        "label": "uint256",
        "numberOfBytes": "32"
      },
      "t_uint8": {
        "encoding": "inplace",
        "label": "uint8",
        "numberOfBytes": "1"
      }
    }
  }
}