{
  "address": "0xF013CcC26a89C97F646B8047AD2A87ba8e6E62d7",
  "abi": [
    {
      "inputs": [],
      "name": "BadAccessControlSingleton",
      "type": "error"
    },
    {
      "inputs": [
        {
          "internalType": "address",
          "name": "orderToken2buy",
          "type": "address"
        },
        {
          "internalType": "address",
          "name": "inToken",
          "type": "address"
        }
      ],
      "name": "IncorrectToken",
      "type": "error"
    },
    {
      "inputs": [
        {
          "internalType": "address",
          "name": "staker",
          "type": "address"
        }
      ],
      "name": "IsNotTopStaker",
      "type": "error"
    },
    {
      "inputs": [],
      "name": "OnlyAdminError",
      "type": "error"
    },
    {
      "inputs": [],
      "name": "OnlyDAOError",
      "type": "error"
    },
    {
      "inputs": [],
      "name": "OnlyLiquidationAccessError",
      "type": "error"
    },
    {
      "inputs": [],
      "name": "OnlyMintAccessError",
      "type": "error"
    },
    {
      "inputs": [],
      "name": "OnlyPauserError",
      "type": "error"
    },
    {
      "inputs": [],
      "name": "OnlyRewardAccessError",
      "type": "error"
    },
    {
      "inputs": [],
      "name": "OnlyVaultAccessError",
      "type": "error"
    },
    {
      "inputs": [
        {
          "internalType": "uint256",
          "name": "orderId",
          "type": "uint256"
        }
      ],
      "name": "OrderExist",
      "type": "error"
    },
    {
      "inputs": [
        {
          "internalType": "uint256",
          "name": "orderId",
          "type": "uint256"
        }
      ],
      "name": "OrderNotExist",
      "type": "error"
    },
    {
      "inputs": [
        {
          "internalType": "uint256",
          "name": "orderId",
          "type": "uint256"
        },
        {
          "internalType": "address",
          "name": "staker",
          "type": "address"
        }
      ],
      "name": "OrderNotForThisStaker",
      "type": "error"
    },
    {
      "inputs": [],
      "name": "SmallAmountLeft",
      "type": "error"
    },
    {
      "inputs": [],
      "name": "UserIsNotBeneficiary",
      "type": "error"
    },
    {
      "anonymous": false,
      "inputs": [
        {
          "indexed": false,
          "internalType": "uint8",
          "name": "version",
          "type": "uint8"
        }
      ],
      "name": "Initialized",
      "type": "event"
    },
    {
      "anonymous": false,
      "inputs": [
        {
          "indexed": false,
          "internalType": "address",
          "name": "LPToken",
          "type": "address"
        },
        {
          "indexed": false,
          "internalType": "uint256[]",
          "name": "orderIds",
          "type": "uint256[]"
        }
      ],
      "name": "LpOrdersAdded",
      "type": "event"
    },
    {
      "anonymous": false,
      "inputs": [
        {
          "indexed": false,
          "internalType": "uint256",
          "name": "orderId",
          "type": "uint256"
        }
      ],
      "name": "OrderAdded",
      "type": "event"
    },
    {
      "anonymous": false,
      "inputs": [
        {
          "indexed": false,
          "internalType": "uint256",
          "name": "orderId",
          "type": "uint256"
        }
      ],
      "name": "OrderCanceled",
      "type": "event"
    },
    {
      "anonymous": false,
      "inputs": [
        {
          "indexed": false,
          "internalType": "uint256",
          "name": "orderId",
          "type": "uint256"
        }
      ],
      "name": "OrderFilled",
      "type": "event"
    },
    {
      "anonymous": false,
      "inputs": [
        {
          "indexed": false,
          "internalType": "uint256",
          "name": "orderId",
          "type": "uint256"
        }
      ],
      "name": "OrderFilledPartially",
      "type": "event"
    },
    {
      "inputs": [],
      "name": "ACCESS_CONTROL_SINGLETON",
      "outputs": [
        {
          "internalType": "contract ISuAccessControl",
          "name": "",
          "type": "address"
        }
      ],
      "stateMutability": "view",
      "type": "function"
    },
    {
      "inputs": [],
      "name": "ADMIN_ROLE",
      "outputs": [
        {
          "internalType": "bytes32",
          "name": "",
          "type": "bytes32"
        }
      ],
      "stateMutability": "view",
      "type": "function"
    },
    {
      "inputs": [],
      "name": "DAO_ROLE",
      "outputs": [
        {
          "internalType": "bytes32",
          "name": "",
          "type": "bytes32"
        }
      ],
      "stateMutability": "view",
      "type": "function"
    },
    {
      "inputs": [],
      "name": "DUST_THRESHHOLD",
      "outputs": [
        {
          "internalType": "uint256",
          "name": "",
          "type": "uint256"
        }
      ],
      "stateMutability": "view",
      "type": "function"
    },
    {
      "inputs": [],
      "name": "LIQUIDATION_ACCESS_ROLE",
      "outputs": [
        {
          "internalType": "bytes32",
          "name": "",
          "type": "bytes32"
        }
      ],
      "stateMutability": "view",
      "type": "function"
    },
    {
      "inputs": [],
      "name": "MINT_ACCESS_ROLE",
      "outputs": [
        {
          "internalType": "bytes32",
          "name": "",
          "type": "bytes32"
        }
      ],
      "stateMutability": "view",
      "type": "function"
    },
    {
      "inputs": [],
      "name": "ORACLE",
      "outputs": [
        {
          "internalType": "contract ISuOracle",
          "name": "",
          "type": "address"
        }
      ],
      "stateMutability": "view",
      "type": "function"
    },
    {
      "inputs": [],
      "name": "PAUSER_ROLE",
      "outputs": [
        {
          "internalType": "bytes32",
          "name": "",
          "type": "bytes32"
        }
      ],
      "stateMutability": "view",
      "type": "function"
    },
    {
      "inputs": [],
      "name": "REWARD_ACCESS_ROLE",
      "outputs": [
        {
          "internalType": "bytes32",
          "name": "",
          "type": "bytes32"
        }
      ],
      "stateMutability": "view",
      "type": "function"
    },
    {
      "inputs": [],
      "name": "TOP_STAKERS",
      "outputs": [
        {
          "internalType": "contract ITopStakers",
          "name": "",
          "type": "address"
        }
      ],
      "stateMutability": "view",
      "type": "function"
    },
    {
      "inputs": [],
      "name": "VAULT_ACCESS_ROLE",
      "outputs": [
        {
          "internalType": "bytes32",
          "name": "",
          "type": "bytes32"
        }
      ],
      "stateMutability": "view",
      "type": "function"
    },
    {
      "inputs": [
        {
          "internalType": "address",
          "name": "token2sell",
          "type": "address"
        },
        {
          "internalType": "uint256",
          "name": "amount2sell",
          "type": "uint256"
        },
        {
          "internalType": "address",
          "name": "token2buy",
          "type": "address"
        },
        {
          "internalType": "address",
          "name": "beneficiary",
          "type": "address"
        },
        {
          "internalType": "enum DiscountType",
          "name": "discountType",
          "type": "uint8"
        },
        {
          "internalType": "uint16",
          "name": "nCoinsLp",
          "type": "uint16"
        }
      ],
      "name": "addOrder",
      "outputs": [
        {
          "internalType": "uint256[]",
          "name": "orderIds",
          "type": "uint256[]"
        }
      ],
      "stateMutability": "nonpayable",
      "type": "function"
    },
    {
      "inputs": [
        {
          "internalType": "uint256",
          "name": "orderId",
          "type": "uint256"
        }
      ],
      "name": "cancelOrder",
      "outputs": [],
      "stateMutability": "nonpayable",
      "type": "function"
    },
    {
      "inputs": [
        {
          "internalType": "uint256",
          "name": "orderId",
          "type": "uint256"
        },
        {
          "internalType": "uint256",
          "name": "tokenBAmount",
          "type": "uint256"
        },
        {
          "internalType": "address",
          "name": "user",
          "type": "address"
        },
        {
          "internalType": "bool",
          "name": "needCallback",
          "type": "bool"
        }
      ],
      "name": "fillOrder",
      "outputs": [
        {
          "internalType": "uint256",
          "name": "",
          "type": "uint256"
        },
        {
          "internalType": "uint256",
          "name": "",
          "type": "uint256"
        }
      ],
      "stateMutability": "nonpayable",
      "type": "function"
    },
    {
      "inputs": [],
      "name": "getAllOrders",
      "outputs": [
        {
          "components": [
            {
              "components": [
                {
                  "internalType": "address",
                  "name": "token2sell",
                  "type": "address"
                },
                {
                  "internalType": "uint256",
                  "name": "amountLeft",
                  "type": "uint256"
                },
                {
                  "internalType": "address",
                  "name": "token2buy",
                  "type": "address"
                },
                {
                  "internalType": "uint256",
                  "name": "token2buyAmount",
                  "type": "uint256"
                },
                {
                  "internalType": "address",
                  "name": "beneficiary",
                  "type": "address"
                },
                {
                  "internalType": "uint256",
                  "name": "creationTimestamp",
                  "type": "uint256"
                },
                {
                  "internalType": "enum DiscountType",
                  "name": "discountType",
                  "type": "uint8"
                },
                {
                  "internalType": "address",
                  "name": "caller",
                  "type": "address"
                }
              ],
              "internalType": "struct Order",
              "name": "order",
              "type": "tuple"
            },
            {
              "internalType": "uint256",
              "name": "orderId",
              "type": "uint256"
            }
          ],
          "internalType": "struct OrderWithId[]",
          "name": "",
          "type": "tuple[]"
        }
      ],
      "stateMutability": "view",
      "type": "function"
    },
    {
      "inputs": [
        {
          "internalType": "uint256",
          "name": "orderId",
          "type": "uint256"
        }
      ],
      "name": "getExpectedOrderOutcome",
      "outputs": [
        {
          "internalType": "uint256",
          "name": "",
          "type": "uint256"
        }
      ],
      "stateMutability": "view",
      "type": "function"
    },
    {
      "inputs": [
        {
          "internalType": "uint256",
          "name": "orderId",
          "type": "uint256"
        }
      ],
      "name": "getOrder",
      "outputs": [
        {
          "components": [
            {
              "internalType": "address",
              "name": "token2sell",
              "type": "address"
            },
            {
              "internalType": "uint256",
              "name": "amountLeft",
              "type": "uint256"
            },
            {
              "internalType": "address",
              "name": "token2buy",
              "type": "address"
            },
            {
              "internalType": "uint256",
              "name": "token2buyAmount",
              "type": "uint256"
            },
            {
              "internalType": "address",
              "name": "beneficiary",
              "type": "address"
            },
            {
              "internalType": "uint256",
              "name": "creationTimestamp",
              "type": "uint256"
            },
            {
              "internalType": "enum DiscountType",
              "name": "discountType",
              "type": "uint8"
            },
            {
              "internalType": "address",
              "name": "caller",
              "type": "address"
            }
          ],
          "internalType": "struct Order",
          "name": "",
          "type": "tuple"
        }
      ],
      "stateMutability": "view",
      "type": "function"
    },
    {
      "inputs": [
        {
          "internalType": "uint256",
          "name": "index",
          "type": "uint256"
        }
      ],
      "name": "getOrderAt",
      "outputs": [
        {
          "components": [
            {
              "internalType": "address",
              "name": "token2sell",
              "type": "address"
            },
            {
              "internalType": "uint256",
              "name": "amountLeft",
              "type": "uint256"
            },
            {
              "internalType": "address",
              "name": "token2buy",
              "type": "address"
            },
            {
              "internalType": "uint256",
              "name": "token2buyAmount",
              "type": "uint256"
            },
            {
              "internalType": "address",
              "name": "beneficiary",
              "type": "address"
            },
            {
              "internalType": "uint256",
              "name": "creationTimestamp",
              "type": "uint256"
            },
            {
              "internalType": "enum DiscountType",
              "name": "discountType",
              "type": "uint8"
            },
            {
              "internalType": "address",
              "name": "caller",
              "type": "address"
            }
          ],
          "internalType": "struct Order",
          "name": "",
          "type": "tuple"
        }
      ],
      "stateMutability": "view",
      "type": "function"
    },
    {
      "inputs": [
        {
          "internalType": "address",
          "name": "token2sell",
          "type": "address"
        },
        {
          "internalType": "uint256",
          "name": "timePassed",
          "type": "uint256"
        },
        {
          "internalType": "enum DiscountType",
          "name": "discountType",
          "type": "uint8"
        }
      ],
      "name": "getOrderPrice",
      "outputs": [
        {
          "internalType": "uint256",
          "name": "",
          "type": "uint256"
        }
      ],
      "stateMutability": "view",
      "type": "function"
    },
    {
      "inputs": [],
      "name": "getOrdersCount",
      "outputs": [
        {
          "internalType": "uint256",
          "name": "",
          "type": "uint256"
        }
      ],
      "stateMutability": "view",
      "type": "function"
    },
    {
      "inputs": [
        {
          "internalType": "address",
          "name": "tokenA",
          "type": "address"
        },
        {
          "internalType": "address",
          "name": "tokenB",
          "type": "address"
        },
        {
          "internalType": "uint256",
          "name": "amountA",
          "type": "uint256"
        },
        {
          "internalType": "uint256",
          "name": "timePassed",
          "type": "uint256"
        },
        {
          "internalType": "enum DiscountType",
          "name": "discountType",
          "type": "uint8"
        }
      ],
      "name": "getOutcome",
      "outputs": [
        {
          "internalType": "uint256",
          "name": "",
          "type": "uint256"
        }
      ],
      "stateMutability": "view",
      "type": "function"
    },
    {
      "inputs": [
        {
          "internalType": "address",
          "name": "_authControl",
          "type": "address"
        },
        {
          "internalType": "address",
          "name": "_oracleAddress",
          "type": "address"
        },
        {
          "internalType": "address",
          "name": "_topStakersAddress",
          "type": "address"
        }
      ],
      "name": "initialize",
      "outputs": [],
      "stateMutability": "nonpayable",
      "type": "function"
    },
    {
      "inputs": [
        {
          "internalType": "address",
          "name": "",
          "type": "address"
        }
      ],
      "name": "lpTokenToPool",
      "outputs": [
        {
          "internalType": "address",
          "name": "",
          "type": "address"
        }
      ],
      "stateMutability": "view",
      "type": "function"
    },
    {
      "inputs": [
        {
          "internalType": "uint256",
          "name": "",
          "type": "uint256"
        }
      ],
      "name": "orders",
      "outputs": [
        {
          "internalType": "address",
          "name": "token2sell",
          "type": "address"
        },
        {
          "internalType": "uint256",
          "name": "amountLeft",
          "type": "uint256"
        },
        {
          "internalType": "address",
          "name": "token2buy",
          "type": "address"
        },
        {
          "internalType": "uint256",
          "name": "token2buyAmount",
          "type": "uint256"
        },
        {
          "internalType": "address",
          "name": "beneficiary",
          "type": "address"
        },
        {
          "internalType": "uint256",
          "name": "creationTimestamp",
          "type": "uint256"
        },
        {
          "internalType": "enum DiscountType",
          "name": "discountType",
          "type": "uint8"
        },
        {
          "internalType": "address",
          "name": "caller",
          "type": "address"
        }
      ],
      "stateMutability": "view",
      "type": "function"
    },
    {
      "inputs": [
        {
          "internalType": "enum DiscountType",
          "name": "",
          "type": "uint8"
        },
        {
          "internalType": "uint256",
          "name": "",
          "type": "uint256"
        }
      ],
      "name": "priceCurve",
      "outputs": [
        {
          "internalType": "uint256",
          "name": "",
          "type": "uint256"
        }
      ],
      "stateMutability": "view",
      "type": "function"
    },
    {
      "inputs": [
        {
          "internalType": "address",
          "name": "lpToken",
          "type": "address"
        },
        {
          "internalType": "address",
          "name": "pool",
          "type": "address"
        }
      ],
      "name": "setLPTokenPool",
      "outputs": [],
      "stateMutability": "nonpayable",
      "type": "function"
    },
    {
      "inputs": [
        {
          "internalType": "enum DiscountType",
          "name": "discountType",
          "type": "uint8"
        },
        {
          "internalType": "uint256[2]",
          "name": "newPriceCurve",
          "type": "uint256[2]"
        }
      ],
      "name": "setPriceCurve",
      "outputs": [],
      "stateMutability": "nonpayable",
      "type": "function"
    },
    {
      "inputs": [
        {
          "internalType": "bytes4",
          "name": "interfaceId",
          "type": "bytes4"
        }
      ],
      "name": "supportsInterface",
      "outputs": [
        {
          "internalType": "bool",
          "name": "",
          "type": "bool"
        }
      ],
      "stateMutability": "view",
      "type": "function"
    },
    {
      "inputs": [
        {
          "internalType": "contract ICurveLP",
          "name": "lpTokenPool",
          "type": "address"
        },
        {
          "internalType": "address",
          "name": "lpToken",
          "type": "address"
        },
        {
          "internalType": "uint256",
          "name": "amount",
          "type": "uint256"
        },
        {
          "internalType": "address",
          "name": "requiredToken",
          "type": "address"
        },
        {
          "internalType": "uint16",
          "name": "nCoinsLp",
          "type": "uint16"
        }
      ],
      "name": "unwrapLP",
      "outputs": [
        {
          "components": [
            {
              "internalType": "address",
              "name": "token",
              "type": "address"
            },
            {
              "internalType": "uint256",
              "name": "amount",
              "type": "uint256"
            }
          ],
          "internalType": "struct UnwrapData[]",
          "name": "unwrapData",
          "type": "tuple[]"
        }
      ],
      "stateMutability": "nonpayable",
      "type": "function"
    }
  ],
  "numDeployments": 9,
  "solcInputHash": "dd557791782b2a744fb91d3e74be9d42",
  "bytecode": "0x60808060405234610016576125b0908161001c8239f35b600080fdfe608060408181526004918236101561001657600080fd5b600090813560e01c90816301ffc9a7146114165750806303eaa21a1461133757806303ee9f221461130b57806314c376dc146112d057806338013f02146112a75780633ee03a3d14611260578063438280dd14611225578063514fcac71461113c57806372a733ab1461107157806373a423d01461100657806375b238fc14610feb5780637a9826a714610df05780637bea0d1c14610c54578063818e664a14610c1b5780638e5313e014610be05780639081bf39146107c8578063a04c88ed1461078d578063a85c38ef14610702578063b5b3b051146106e3578063ba07fc59146106ba578063c0c53b8b1461037a578063d09ef24114610339578063d7c8ae89146102f7578063db21d8b81461024d578063dc97e84e14610212578063e63ab1e9146101d7578063e9c26518146101ae578063f711bff81461018b5763f8de67811461016357600080fd5b3461018857602036600319011261018857506101816020923561247e565b9051908152f35b80fd5b5090346101aa57816003193601126101aa576020906006549051908152f35b5080fd5b5090346101aa57816003193601126101aa576020905160008051602061251b8339815191528152f35b5090346101aa57816003193601126101aa57602090517f65d7a28e3265b37a6474929f336521b332c1681b933f6cb9f3376673440d862a8152f35b5090346101aa57816003193601126101aa57602090517f9a9aef7c1247d5fc769b0185c052913e39673da29a880317dfd20ebf86f26a498152f35b5082346101aa5760a03660031901126101aa576001600160a01b0392903583811681036102f35761027c611466565b90610285611492565b6084359161ffff831683036102ee576102a4936044969596359161172d565b90825192602080850191818652845180935281818701950193905b8382106102cc5786860387f35b84518051891687528301518684015294850194938201936001909101906102bf565b600080fd5b8280fd5b5091346102f357816003193601126102f3573560038110156102f35761031f60243591611561565b6002821015610335576020935001549051908152f35b8380fd5b5091346102f35760203660031901126102f35761036f8261010094610378936103606124dc565b50358152600160205220612146565b915180926114cb565bf35b5091346102f35760603660031901126102f357610395611450565b61039d611466565b6103a561147c565b9085549260ff8460081c1615928380946106ad575b8015610696575b1561063c57600194848660ff198316178a5561062b575b50875460ff8160081c16156105d45762010000600160b01b031916601083901b62010000600160b01b031617885586516301ffc9a760e01b8152637965db0b60e01b878201526020966001600160a01b039390919088908290602490829088165afa9081156105ca578a9161059d575b501561058f5787516104598161157a565b61038481528988820152600080528188528860002090878b5b60028110610579575050505087516104898161157a565b6202bf2081528988820152866000528188528860002090878b5b60028110610562575050505087516104ba8161157a565b620697808152898882015260029182600052885288600020878b5b84811061054b57505050505068056bc75e2d631000006006558160018060a01b0319931683600754161760075516906008541617600855610514578380f35b7f7f26b83ff96e1f2b6a682f133852f6798a09c465da95921460cefb38474024989261ff0019855416855551908152a13880808380f35b8a62ffffff855116940193818401550188906104d5565b8a62ffffff845116930192818501550188906104a3565b8a61ffff84511693019281850155018890610472565b87516384d942fd60e01b8152fd5b6105bd9150883d8a116105c3575b6105b58183611610565b81019061165c565b38610448565b503d6105ab565b89513d8c823e3d90fd5b875162461bcd60e51b8152602081890152602b60248201527f496e697469616c697a61626c653a20636f6e7472616374206973206e6f74206960448201526a6e697469616c697a696e6760a81b6064820152608490fd5b61ffff1916610101178855386103d8565b865162461bcd60e51b8152602081880152602e60248201527f496e697469616c697a61626c653a20636f6e747261637420697320616c72656160448201526d191e481a5b9a5d1a585b1a5e995960921b6064820152608490fd5b50303b1580156103c15750600160ff8616146103c1565b50600160ff8616106103ba565b5090346101aa57816003193601126101aa5760085490516001600160a01b039091168152602090f35b5090346101aa57816003193601126101aa576020906002549051908152f35b5091346102f35760203660031901126102f3578161010093823581526001602052209060018060a01b03918281541693600182015492846002840154168560038501549285015416926006600586015495015495815198895260208901528701526060860152608085015260a084015261078260c0840160ff83166114a8565b60081c1660e0820152f35b5090346101aa5760203660031901126101aa576020916001600160a01b03908290826107b7611450565b168152600585522054169051908152f35b5034610188576080366003190112610188576107e261147c565b9060643590811515820361018857843590818152602092600184528582209660058801548015610bc9576108169042611720565b97603c891115610abc575b879861082f8699989961247e565b9360018060a01b039261084f84825416600683019460ff865416916122ec565b9a8460075416968a60028401986024888b54169e519e8f928391631735856760e31b83528c8301525afa9b8c15610ab257908d918a9d610a79575b50906108a86108ad92602435818111600014610a7057509d8e611633565b6122cc565b91600381019788548d8101809111610a5d578955600182018054909490808210610a4a57505083549d8a85555b84548015159182610a28575b5050610a18578d8f99979593868f948f9d9b999795610914908b85858061091b9a5416928601541691611d5c565b5416611e13565b546109e557610966575b5050505083918160008051602061255b8339815191529561094b935260018552206121b8565b610954816121e2565b508651908152a15b8351928352820152f35b919395509193505460081c16915491803b1561033557604484928387938c5196879586946305077f2360e51b865285015260248401525af180156109db5787859360008051602061255b833981519152959361094b936109cc575b829496829450610925565b6109d5906115ab565b386109c1565b87513d84823e3d90fd5b505050505050917fc238a2d1c485b17bfd980b5e6d0483704cd4720118eb06215758d49f85ea89639251908152a161095c565b8e5163117be23960e31b81528890fd5b670de0b6b3a7640000925090610a3d91611633565b04600654101538806108e6565b819f91610a5691611720565b85556108da565b634e487b7160e01b8b526011895260248bfd5b90509d8e611633565b8c80929e508193503d8311610aab575b610a938183611610565b81010312610aa757519a8c906108a861088a565b8880fd5b503d610a89565b8e513d8b823e3d90fd5b600854885163c4e4a93b60e01b81526001600160a01b039182169188828681865afa918215610b8c578792610b96575b50888a60248d518094819362650fcd60e31b83521696878a8301525afa908115610b8c578791610b6f575b5015610b5857610b31610b2a82846124d2565b91886124d2565b03610b3c5750610821565b82604491878b5192636d5e923560e01b84528301526024820152fd5b895163a849de1760e01b8152808501839052602490fd5b610b869150893d8b116105c3576105b58183611610565b38610b17565b8b513d89823e3d90fd5b9091508881813d8311610bc2575b610bae8183611610565b81010312610bbe57519038610aec565b8680fd5b503d610ba4565b87516373a98b6360e11b8152808301869052602490fd5b5090346101aa57816003193601126101aa57602090517fe453bacb314e78dcd5192e6b1a2b1f0e7c76e92f6b7e429a6a90f04e39db3b768152f35b5090346101aa5760603660031901126101aa57610c36611450565b604435926003841015610188575060209261018191602435906122ec565b5090346101aa57816003193601126101aa578051600280548083529084526020929085908484019060008051602061253b83398151915290875b818110610ddc5750505083610ca4910384611610565b825190610cb0826116cd565b93610cbd84519586611610565b828552601f19610ccc846116cd565b01875b818110610dab575050865b838110610d3757505050508051928080850192818652845180945285019301945b828110610d085784840385f35b90919282610120600192828951610d208382516114cb565b015161010082015201960191019492919094610cfb565b610d46818399989697996116f1565b518088526001865286882090610d66885192610d618461157a565b612146565b825286820152610d76828a6116f1565b52610d8181896116f1565b506000198114610d98576001019694939596610cda565b634e487b7160e01b875260118352602487fd5b9685969897819651610dbc8161157a565b610dc46124dc565b8152898382015282828c010152019795949697610ccf565b825484529287019260019283019201610c8e565b50346101885760c036600319011261018857610e0a611450565b9160243591610e1761147c565b90610e20611492565b9060843560038110156101aa5760a43561ffff9182821691828103610fe757606098610e4e8130338e611d5c565b8315610fa757610e7f899695949392898d9360018060a01b038095169e8f8a528560209b60058d528b20541661172d565b9481610e8a876116e4565b515116828a1614600014610ed0575050505050610ecc965090610eb1610eba9493926116e4565b51015191611e13565b5191829160208352602083019061152d565b0390f35b9197959399509197610ee1896116cd565b9a610eee82519c8d611610565b898c52601f19610efd8b6116cd565b0136868e01378b925b8b81168b811015610f5557908d610f4a83610f448e8e8e8e8e610f3b8f9b610f509c610f3282866116f1565b515116936116f1565b51015190611ecb565b926116f1565b52611674565b610f06565b5050955097509750509250507ff311df037b068e9a1ed1ea8db32370743d539f79b7bb5bb54e847de2e6afc7319250610f9f610ecc9685805194859485528401528583019061152d565b0390a1610eba565b9691935050610ecc989750610fdb9350610fe1949150865195610fc98761157a565b60018752602036818901378698611ecb565b916116e4565b52610eba565b8480fd5b5090346101aa57816003193601126101aa5751908152602090f35b5082346101aa5760203660031901126101aa578035906110246124dc565b5060025482101561105e5760008051602061253b833981519152820154835260016020528383206101009085906103789061036f90612146565b634e487b7160e01b835260329052602482fd5b5091346102f357816003193601126102f35761108b611450565b91611094611466565b9260018060a01b03926044602085885460101c16855192838092632474521560e21b825260008051602061251b833981519152878301523360248301525afa908115611132578791611114575b501561110657508216845260056020528320911660018060a01b031982541617905580f35b825163599a6c3360e11b8152fd5b61112c915060203d81116105c3576105b58183611610565b386110e1565b84513d89823e3d90fd5b509190346102f35760203660031901126102f3578135918284526001602052611166828520612146565b60a08101511561120f5760808101805190926001600160a01b03918216331415806111ff575b6111f157507fc41f4ceb2938876c35e61b705e9d2f18a02c4a26ce5e049a6308a943d46851b39492826020836111cd94829896511693511691015191611e13565b818552600183526111df8186206121b8565b6111e8826121e2565b5051908152a180f35b845163da383fb560e01b8152fd5b508160e08401511633141561118c565b508260249251916373a98b6360e11b8352820152fd5b5090346101aa57816003193601126101aa57602090517f39f61ca2a1a28fee144218173ec637b649a353e4026b2738c673800e5bf1437b8152f35b5090346101aa5760a03660031901126101aa5761127b611450565b611283611466565b906084359360038510156101885750926101819160209460643591604435916123cb565b5090346101aa57816003193601126101aa5760075490516001600160a01b039091168152602090f35b5090346101aa57816003193601126101aa57602090517fe965846df3dd5b1dfa65f58e31477079e90140e0908b6dd31b5aead5a57cf3658152f35b5090346101aa57816003193601126101aa579054905160109190911c6001600160a01b03168152602090f35b5091346102f35760603660031901126102f357803590600382101561033557366064116103355783548351632474521560e21b815260008051602061251b833981519152838201523360248201526020949185908290604490829060101c6001600160a01b03165afa90811561140c5786916113ef575b50156113e25750506113bf90611561565b602490835b600281106113d0578480f35b823582820155918301916001016113c4565b5163599a6c3360e11b8152fd5b6114069150853d87116105c3576105b58183611610565b386113ae565b82513d88823e3d90fd5b905083346102f35760203660031901126102f3573563ffffffff60e01b81168091036102f35760016202b7d560e31b031914815260209150f35b600435906001600160a01b03821682036102ee57565b602435906001600160a01b03821682036102ee57565b604435906001600160a01b03821682036102ee57565b606435906001600160a01b03821682036102ee57565b9060038210156114b55752565b634e487b7160e01b600052602160045260246000fd5b60e0908160018060a01b0391828151168552602081015160208601528260408201511660408601526060810151606086015282608082015116608086015260a081015160a086015261152560c082015160c08701906114a8565b015116910152565b90815180825260208080930193019160005b82811061154d575050505090565b83518552938101939281019260010161153f565b60038110156114b5576000526004602052604060002090565b604081019081106001600160401b0382111761159557604052565b634e487b7160e01b600052604160045260246000fd5b6001600160401b03811161159557604052565b61010081019081106001600160401b0382111761159557604052565b606081019081106001600160401b0382111761159557604052565b60a081019081106001600160401b0382111761159557604052565b601f909101601f19168101906001600160401b0382119082101761159557604052565b8181029291811591840414171561164657565b634e487b7160e01b600052601160045260246000fd5b908160209103126102ee575180151581036102ee5790565b61ffff8091169081146116465760010190565b908160209103126102ee57516001600160a01b03811681036102ee5790565b9060038110156116b75760051b0190565b634e487b7160e01b600052603260045260246000fd5b6001600160401b0381116115955760051b60200190565b8051156116b75760200190565b80518210156116b75760209160051b010190565b6001600160a01b039091168152602081019190915260400190565b9190820391821161164657565b91929093604091825190611740826115da565b606036833760005b61ffff808216908516811015611a0457855163c661065760e01b80825260048083018490526001600160a01b03936020938b8616936024929186818581895afa9081156119f9576000916119dc575b50876117a3848d6116a6565b911690528b51908152818482015285818481885afa9081156119d1576000916119a4575b50888716961686146117e7575050505050506117e290611674565b611748565b949b9c509450955095509580975088935051986118038a61157a565b600191828b528760005b81811061197457506000908a516118238161157a565b8281520152885196888886816370a0823160e01b998a8252308c8301525afa9788156119695760009861193a575b50803b156102ee57600092836064928c519687958694630d2680e960e11b86528c860152600f0b8985015260448401525af1801561192f579086939291611920575b5086519384928352309083015281885afa908115611915576000916118e6575b50906118be91611720565b9151926118ca8461157a565b83528201526118d8826116e4565b526118e2816116e4565b5090565b908382813d831161190e575b6118fc8183611610565b810103126101885750516118be6118b3565b503d6118f2565b84513d6000823e3d90fd5b611929906115ab565b38611893565b87513d6000823e3d90fd5b90978982813d8311611962575b6119518183611610565b810103126101885750519638611851565b503d611947565b8a513d6000823e3d90fd5b909192939495508b82828c519261198a8461157a565b600084526000838501520101520190878a9594939261180d565b6119c49150863d88116119ca575b6119bc8183611610565b810190611687565b386117c7565b503d6119b2565b8c513d6000823e3d90fd5b6119f39150873d89116119ca576119bc8183611610565b38611797565b8d513d6000823e3d90fd5b505050928495969193949294855194611a1c866115da565b60603687376000865260209384938488016000905288880160009052600160a01b600190039485809216809c8b51809481809463095ea7b360e01b825260049d8e830191611a6992611705565b0392165a90600091f18015611d1257611cf5575b50875196611a8a886115da565b606036893760005b61ffff808216908516811015611b21578a90888a60248a611ab3858c6116a6565b51169451809581936370a0823160e01b835230908301525afa9182156119d157600092611af0575b5090610f4a611aeb93928c6116a6565b611a92565b90918982813d8311611b1a575b611b078183611610565b8101031261018857505190610f4a611adb565b503d611afd565b50509399989097959198969296803b156102ee5786519163ecb586a560e01b83528383015281602495868201886000915b60038310611cdc5750505050608481600080945af18015611cd157611cc2575b5061ffff80981698611b838a6116cd565b97611b908751998a611610565b8a8952601f19611b9f8c6116cd565b018660005b828110611c9f57505050889060005b8b81168d811015611c8f578a888a87611bd98582611bd182886116a6565b5116956116a6565b51168d51928380926370a0823160e01b8252308d8301525afa9081156119d1578b8f928b8f93600092611c56575b5093611c4b9593611c4493611c2e899794611c2789611c519d9c976116a6565b5190611720565b915195611c3a8761157a565b86528501526116f1565b528d6116f1565b50611674565b611bb3565b945050915082813d8311611c88575b611c6f8183611610565b810103126101885750518d908c908c908b611c4b611c07565b503d611c65565b5050995099505050505050505050565b895182828e611cad8461157a565b60008452600083850152010152018790611ba4565b611ccb906115ab565b38611b72565b86513d6000823e3d90fd5b8394508190600193945181520193019101888593611b52565b611d0b90863d88116105c3576105b58183611610565b5038611a7d565b89513d6000823e3d90fd5b3d15611d57573d906001600160401b0382116115955760405191611d4b601f8201601f191660200184611610565b82523d6000602084013e565b606090565b9091600080949381946040519160208301946323b872dd60e01b865260018060a01b038092166024850152166044830152606482015260648152611d9f816115f5565b51925af1611dab611d1d565b81611de4575b5015611db957565b60405162461bcd60e51b815260206004820152600360248201526229aa2360e91b6044820152606490fd5b8051801592508215611df9575b505038611db1565b611e0c925060208091830101910161165c565b3880611df1565b6000929183611e3e611e4c8295604051928391602083019663a9059cbb60e01b885260248401611705565b03601f198101835282611610565b51925af1611e58611d1d565b81611e90575b5015611e6657565b60405162461bcd60e51b815260206004820152600260248201526114d560f21b6044820152606490fd5b8051801592508215611ea5575b505038611e5e565b611eb8925060208091830101910161165c565b3880611e9d565b60038210156114b55752565b9492919093604091825193602094858101904382523360601b8682015260018060601b0319808b60601b1660548301528960688301528460601b166088820152607c8152611f18816115f5565b51902096600098888a52600187526005868b200154612086575b888a52600187526005868b20015461206e57918991899493875194611f56866115be565b600160a01b60019003809216865289860192835281898701911681526060860190858252826080880195168552828a60a089019742895260c08a019b611f9c908d611ebf565b8d60e08b019b338d528252600190522097511693600160a01b600190031994858954161788555160018801558260028801915116848254161790555160038601556004850192511690825416179055516005820155600601915190600382101561205a577f12a866cc569301d2ff9fcbbae3decc9e0cf3fa94ddef08dd0de3e9a693fb8d199596975060ff835491610100600160a81b03905160081b1692169060018060a81b03191617179055612052856120c7565b5051848152a1565b634e487b7160e01b88526021600452602488fd5b8551634b92340560e01b8152600481018a9052602490fd5b97600181018091116120985797611f32565b634e487b7160e01b8a52601160045260248afd5b6002548110156116b757600260005260206000200190600090565b60008181526003602052604081205461214157600254600160401b81101561212d579082612119612100846001604096016002556120ac565b819391549060031b600019811b9283911b169119161790565b905560025492815260036020522055600190565b634e487b7160e01b82526041600452602482fd5b905090565b90604051612153816115be565b60e08193600660018060a01b03918281541685526001810154602086015282600282015416604086015260038101546060860152826004820154166080860152600581015460a086015201546121af60ff821660c08601611ebf565b60081c16910152565b60066000918281558260018201558260028201558260038201558260048201558260058201550155565b60008181526003602052604081205490919080156122c757600019908082018181116122b3576002549083820191821161229f5780820361226b575b505050600254801561225757810190612236826120ac565b909182549160031b1b19169055600255815260036020526040812055600190565b634e487b7160e01b84526031600452602484fd5b61228961227a612100936120ac565b90549060031b1c9283926120ac565b905584526003602052604084205538808061221e565b634e487b7160e01b86526011600452602486fd5b634e487b7160e01b85526011600452602485fd5b505090565b81156122d6570490565b634e487b7160e01b600052601260045260246000fd5b9160016123026122fb83611561565b5492611561565b0154600754604051631735856760e31b81526001600160a01b0395861660048201529491939160209186916024918391165afa9384156123bf5760009461238c575b5081811161236f5792612361612367926108a861236c9684611633565b90611720565b611720565b90565b5050508060031b908082046008149015171561164657600a900490565b90936020823d82116123b7575b816123a660209383611610565b810103126101885750519238612344565b3d9150612399565b6040513d6000823e3d90fd5b926123d992939491946122ec565b600754604051631735856760e31b81526001600160a01b0394851660048201529360209185916024918391165afa9283156123bf57600093612449575b50806108a861242c856108a86124339587611633565b9485611633565b0361243b5790565b600181018091116116465790565b90926020823d8211612476575b8161246360209383611610565b8101031261018857505191612433612416565b3d9150612456565b60005260016020526124936040600020612146565b60018060a01b0390818151169160408201511690602081015160c06124bc60a084015142611720565b9201519260038410156114b55761236c946123cb565b81156122d6570690565b604051906124e9826115be565b8160e06000918281528260208201528260408201528260608201528260808201528260a08201528260c0820152015256fe3b5d4cc60d3ec3516ee8ae083bd60934f6eb2a6c54b1229985c41bfb092b2603405787fa12a823e0f2b7631cc41b3ba8828b3321ca811111fa75cd3aa3bb5acecdf98e0235c72ad7ae8de32249da25cc98298c8f11710c55a3d58e9e7ac69f94a26469706673582212202c2328038b7f784922f1f41d5fa9f829e4884a844c9dd057138c25fb4c103aea64736f6c63430008110033",
  "devdoc": {
    "kind": "dev",
    "methods": {
      "supportsInterface(bytes4)": {
        "details": "Returns true if this contract implements the interface defined by `interfaceId`. See the corresponding https://eips.ethereum.org/EIPS/eip-165#how-interfaces-are-identified[EIP section] to learn more about how these ids are created. This function call must use less than 30 000 gas."
      }
    },
    "version": 1
  },
  "userdoc": {
    "kind": "user",
    "methods": {},
    "version": 1
  },
  "storageLayout": {
    "storage": [
      {
        "astId": 461,
        "contract": "contracts/exchange/contracts/Exchange.sol:Exchange",
        "label": "_initialized",
        "offset": 0,
        "slot": "0",
        "type": "t_uint8"
      },
      {
        "astId": 464,
        "contract": "contracts/exchange/contracts/Exchange.sol:Exchange",
        "label": "_initializing",
        "offset": 1,
        "slot": "0",
        "type": "t_bool"
      },
      {
        "astId": 9094,
        "contract": "contracts/exchange/contracts/Exchange.sol:Exchange",
        "label": "ACCESS_CONTROL_SINGLETON",
        "offset": 2,
        "slot": "0",
        "type": "t_contract(ISuAccessControl)16250"
      },
      {
        "astId": 10590,
        "contract": "contracts/exchange/contracts/Exchange.sol:Exchange",
        "label": "orders",
        "offset": 0,
        "slot": "1",
        "type": "t_mapping(t_uint256,t_struct(Order)12920_storage)"
      },
      {
        "astId": 10593,
        "contract": "contracts/exchange/contracts/Exchange.sol:Exchange",
        "label": "orderIdSet",
        "offset": 0,
        "slot": "2",
        "type": "t_struct(UintSet)4874_storage"
      },
      {
        "astId": 10600,
        "contract": "contracts/exchange/contracts/Exchange.sol:Exchange",
        "label": "priceCurve",
        "offset": 0,
        "slot": "4",
        "type": "t_mapping(t_enum(DiscountType)12902,t_array(t_uint256)2_storage)"
      },
      {
        "astId": 10604,
        "contract": "contracts/exchange/contracts/Exchange.sol:Exchange",
        "label": "lpTokenToPool",
        "offset": 0,
        "slot": "5",
        "type": "t_mapping(t_address,t_address)"
      },
      {
        "astId": 10606,
        "contract": "contracts/exchange/contracts/Exchange.sol:Exchange",
        "label": "DUST_THRESHHOLD",
        "offset": 0,
        "slot": "6",
        "type": "t_uint256"
      },
      {
        "astId": 10609,
        "contract": "contracts/exchange/contracts/Exchange.sol:Exchange",
        "label": "ORACLE",
        "offset": 0,
        "slot": "7",
        "type": "t_contract(ISuOracle)16726"
      },
      {
        "astId": 10612,
        "contract": "contracts/exchange/contracts/Exchange.sol:Exchange",
        "label": "TOP_STAKERS",
        "offset": 0,
        "slot": "8",
        "type": "t_contract(ITopStakers)13114"
      },
      {
        "astId": 11765,
        "contract": "contracts/exchange/contracts/Exchange.sol:Exchange",
        "label": "__gap",
        "offset": 0,
        "slot": "9",
        "type": "t_array(t_uint256)45_storage"
      }
    ],
    "types": {
      "t_address": {
        "encoding": "inplace",
        "label": "address",
        "numberOfBytes": "20"
      },
      "t_array(t_bytes32)dyn_storage": {
        "base": "t_bytes32",
        "encoding": "dynamic_array",
        "label": "bytes32[]",
        "numberOfBytes": "32"
      },
      "t_array(t_uint256)2_storage": {
        "base": "t_uint256",
        "encoding": "inplace",
        "label": "uint256[2]",
        "numberOfBytes": "64"
      },
      "t_array(t_uint256)45_storage": {
        "base": "t_uint256",
        "encoding": "inplace",
        "label": "uint256[45]",
        "numberOfBytes": "1440"
      },
      "t_bool": {
        "encoding": "inplace",
        "label": "bool",
        "numberOfBytes": "1"
      },
      "t_bytes32": {
        "encoding": "inplace",
        "label": "bytes32",
        "numberOfBytes": "32"
      },
      "t_contract(ISuAccessControl)16250": {
        "encoding": "inplace",
        "label": "contract ISuAccessControl",
        "numberOfBytes": "20"
      },
      "t_contract(ISuOracle)16726": {
        "encoding": "inplace",
        "label": "contract ISuOracle",
        "numberOfBytes": "20"
      },
      "t_contract(ITopStakers)13114": {
        "encoding": "inplace",
        "label": "contract ITopStakers",
        "numberOfBytes": "20"
      },
      "t_enum(DiscountType)12902": {
        "encoding": "inplace",
        "label": "enum DiscountType",
        "numberOfBytes": "1"
      },
      "t_mapping(t_address,t_address)": {
        "encoding": "mapping",
        "key": "t_address",
        "label": "mapping(address => address)",
        "numberOfBytes": "32",
        "value": "t_address"
      },
      "t_mapping(t_bytes32,t_uint256)": {
        "encoding": "mapping",
        "key": "t_bytes32",
        "label": "mapping(bytes32 => uint256)",
        "numberOfBytes": "32",
        "value": "t_uint256"
      },
      "t_mapping(t_enum(DiscountType)12902,t_array(t_uint256)2_storage)": {
        "encoding": "mapping",
        "key": "t_enum(DiscountType)12902",
        "label": "mapping(enum DiscountType => uint256[2])",
        "numberOfBytes": "32",
        "value": "t_array(t_uint256)2_storage"
      },
      "t_mapping(t_uint256,t_struct(Order)12920_storage)": {
        "encoding": "mapping",
        "key": "t_uint256",
        "label": "mapping(uint256 => struct Order)",
        "numberOfBytes": "32",
        "value": "t_struct(Order)12920_storage"
      },
      "t_struct(Order)12920_storage": {
        "encoding": "inplace",
        "label": "struct Order",
        "members": [
          {
            "astId": 12904,
            "contract": "contracts/exchange/contracts/Exchange.sol:Exchange",
            "label": "token2sell",
            "offset": 0,
            "slot": "0",
            "type": "t_address"
          },
          {
            "astId": 12906,
            "contract": "contracts/exchange/contracts/Exchange.sol:Exchange",
            "label": "amountLeft",
            "offset": 0,
            "slot": "1",
            "type": "t_uint256"
          },
          {
            "astId": 12908,
            "contract": "contracts/exchange/contracts/Exchange.sol:Exchange",
            "label": "token2buy",
            "offset": 0,
            "slot": "2",
            "type": "t_address"
          },
          {
            "astId": 12910,
            "contract": "contracts/exchange/contracts/Exchange.sol:Exchange",
            "label": "token2buyAmount",
            "offset": 0,
            "slot": "3",
            "type": "t_uint256"
          },
          {
            "astId": 12912,
            "contract": "contracts/exchange/contracts/Exchange.sol:Exchange",
            "label": "beneficiary",
            "offset": 0,
            "slot": "4",
            "type": "t_address"
          },
          {
            "astId": 12914,
            "contract": "contracts/exchange/contracts/Exchange.sol:Exchange",
            "label": "creationTimestamp",
            "offset": 0,
            "slot": "5",
            "type": "t_uint256"
          },
          {
            "astId": 12917,
            "contract": "contracts/exchange/contracts/Exchange.sol:Exchange",
            "label": "discountType",
            "offset": 0,
            "slot": "6",
            "type": "t_enum(DiscountType)12902"
          },
          {
            "astId": 12919,
            "contract": "contracts/exchange/contracts/Exchange.sol:Exchange",
            "label": "caller",
            "offset": 1,
            "slot": "6",
            "type": "t_address"
          }
        ],
        "numberOfBytes": "224"
      },
      "t_struct(Set)4402_storage": {
        "encoding": "inplace",
        "label": "struct EnumerableSetUpgradeable.Set",
        "members": [
          {
            "astId": 4397,
            "contract": "contracts/exchange/contracts/Exchange.sol:Exchange",
            "label": "_values",
            "offset": 0,
            "slot": "0",
            "type": "t_array(t_bytes32)dyn_storage"
          },
          {
            "astId": 4401,
            "contract": "contracts/exchange/contracts/Exchange.sol:Exchange",
            "label": "_indexes",
            "offset": 0,
            "slot": "1",
            "type": "t_mapping(t_bytes32,t_uint256)"
          }
        ],
        "numberOfBytes": "64"
      },
      "t_struct(UintSet)4874_storage": {
        "encoding": "inplace",
        "label": "struct EnumerableSetUpgradeable.UintSet",
        "members": [
          {
            "astId": 4873,
            "contract": "contracts/exchange/contracts/Exchange.sol:Exchange",
            "label": "_inner",
            "offset": 0,
            "slot": "0",
            "type": "t_struct(Set)4402_storage"
          }
        ],
        "numberOfBytes": "64"
      },
      "t_uint256": {
        "encoding": "inplace",
        "label": "uint256",
        "numberOfBytes": "32"
      },
      "t_uint8": {
        "encoding": "inplace",
        "label": "uint8",
        "numberOfBytes": "1"
      }
    }
  }
}