{
  "address": "0xc3f50a05074D11dDb4209CFa54B3F91AEfdB7923",
  "abi": [
    {
      "inputs": [
        {
          "internalType": "address",
          "name": "orderToken2buy",
          "type": "address"
        },
        {
          "internalType": "address",
          "name": "inToken",
          "type": "address"
        }
      ],
      "name": "IncorrectToken",
      "type": "error"
    },
    {
      "inputs": [
        {
          "internalType": "address",
          "name": "staker",
          "type": "address"
        }
      ],
      "name": "IsNotTopStaker",
      "type": "error"
    },
    {
      "inputs": [
        {
          "internalType": "uint256",
          "name": "orderId",
          "type": "uint256"
        }
      ],
      "name": "OrderExist",
      "type": "error"
    },
    {
      "inputs": [
        {
          "internalType": "uint256",
          "name": "orderId",
          "type": "uint256"
        }
      ],
      "name": "OrderNotExist",
      "type": "error"
    },
    {
      "inputs": [
        {
          "internalType": "uint256",
          "name": "orderId",
          "type": "uint256"
        },
        {
          "internalType": "address",
          "name": "staker",
          "type": "address"
        }
      ],
      "name": "OrderNotForThisStaker",
      "type": "error"
    },
    {
      "inputs": [],
      "name": "SmallAmountLeft",
      "type": "error"
    },
    {
      "inputs": [],
      "name": "UserIsNotBeneficiary",
      "type": "error"
    },
    {
      "anonymous": false,
      "inputs": [
        {
          "indexed": false,
          "internalType": "uint8",
          "name": "version",
          "type": "uint8"
        }
      ],
      "name": "Initialized",
      "type": "event"
    },
    {
      "anonymous": false,
      "inputs": [
        {
          "indexed": false,
          "internalType": "uint256",
          "name": "orderId",
          "type": "uint256"
        }
      ],
      "name": "OrderAdded",
      "type": "event"
    },
    {
      "anonymous": false,
      "inputs": [
        {
          "indexed": false,
          "internalType": "uint256",
          "name": "orderId",
          "type": "uint256"
        }
      ],
      "name": "OrderCanceled",
      "type": "event"
    },
    {
      "anonymous": false,
      "inputs": [
        {
          "indexed": false,
          "internalType": "uint256",
          "name": "orderId",
          "type": "uint256"
        }
      ],
      "name": "OrderFilled",
      "type": "event"
    },
    {
      "anonymous": false,
      "inputs": [
        {
          "indexed": false,
          "internalType": "uint256",
          "name": "orderId",
          "type": "uint256"
        }
      ],
      "name": "OrderFilledPartially",
      "type": "event"
    },
    {
      "inputs": [],
      "name": "ACCESS_CONTROL_SINGLETON",
      "outputs": [
        {
          "internalType": "contract ISuAccessControl",
          "name": "",
          "type": "address"
        }
      ],
      "stateMutability": "view",
      "type": "function"
    },
    {
      "inputs": [],
      "name": "DUST_THRESHHOLD",
      "outputs": [
        {
          "internalType": "uint256",
          "name": "",
          "type": "uint256"
        }
      ],
      "stateMutability": "view",
      "type": "function"
    },
    {
      "inputs": [],
      "name": "LIQUIDATION_ACCESS_ROLE",
      "outputs": [
        {
          "internalType": "bytes32",
          "name": "",
          "type": "bytes32"
        }
      ],
      "stateMutability": "view",
      "type": "function"
    },
    {
      "inputs": [],
      "name": "MINTER_ROLE",
      "outputs": [
        {
          "internalType": "bytes32",
          "name": "",
          "type": "bytes32"
        }
      ],
      "stateMutability": "view",
      "type": "function"
    },
    {
      "inputs": [],
      "name": "ORACLE",
      "outputs": [
        {
          "internalType": "contract ISuOracle",
          "name": "",
          "type": "address"
        }
      ],
      "stateMutability": "view",
      "type": "function"
    },
    {
      "inputs": [],
      "name": "TOP_STAKERS",
      "outputs": [
        {
          "internalType": "contract ITopStakers",
          "name": "",
          "type": "address"
        }
      ],
      "stateMutability": "view",
      "type": "function"
    },
    {
      "inputs": [],
      "name": "VAULT_ACCESS_ROLE",
      "outputs": [
        {
          "internalType": "bytes32",
          "name": "",
          "type": "bytes32"
        }
      ],
      "stateMutability": "view",
      "type": "function"
    },
    {
      "inputs": [
        {
          "internalType": "address",
          "name": "token2sell",
          "type": "address"
        },
        {
          "internalType": "uint256",
          "name": "amount2sell",
          "type": "uint256"
        },
        {
          "internalType": "address",
          "name": "token2buy",
          "type": "address"
        },
        {
          "internalType": "address",
          "name": "beneficiary",
          "type": "address"
        },
        {
          "internalType": "enum DiscountType",
          "name": "discountType",
          "type": "uint8"
        }
      ],
      "name": "addOrder",
      "outputs": [
        {
          "internalType": "uint256",
          "name": "orderId",
          "type": "uint256"
        }
      ],
      "stateMutability": "nonpayable",
      "type": "function"
    },
    {
      "inputs": [
        {
          "internalType": "uint256",
          "name": "orderId",
          "type": "uint256"
        }
      ],
      "name": "cancelOrder",
      "outputs": [],
      "stateMutability": "nonpayable",
      "type": "function"
    },
    {
      "inputs": [
        {
          "internalType": "uint256",
          "name": "orderId",
          "type": "uint256"
        },
        {
          "internalType": "uint256",
          "name": "tokenBAmount",
          "type": "uint256"
        },
        {
          "internalType": "address",
          "name": "user",
          "type": "address"
        },
        {
          "internalType": "bool",
          "name": "needCallback",
          "type": "bool"
        }
      ],
      "name": "fillOrder",
      "outputs": [
        {
          "internalType": "uint256",
          "name": "",
          "type": "uint256"
        },
        {
          "internalType": "uint256",
          "name": "",
          "type": "uint256"
        }
      ],
      "stateMutability": "nonpayable",
      "type": "function"
    },
    {
      "inputs": [],
      "name": "getAllOrders",
      "outputs": [
        {
          "components": [
            {
              "components": [
                {
                  "internalType": "address",
                  "name": "token2sell",
                  "type": "address"
                },
                {
                  "internalType": "uint256",
                  "name": "amountLeft",
                  "type": "uint256"
                },
                {
                  "internalType": "address",
                  "name": "token2buy",
                  "type": "address"
                },
                {
                  "internalType": "uint256",
                  "name": "token2buyAmount",
                  "type": "uint256"
                },
                {
                  "internalType": "address",
                  "name": "beneficiary",
                  "type": "address"
                },
                {
                  "internalType": "uint256",
                  "name": "creationTimestamp",
                  "type": "uint256"
                },
                {
                  "internalType": "enum DiscountType",
                  "name": "discountType",
                  "type": "uint8"
                },
                {
                  "internalType": "address",
                  "name": "caller",
                  "type": "address"
                }
              ],
              "internalType": "struct Order",
              "name": "order",
              "type": "tuple"
            },
            {
              "internalType": "uint256",
              "name": "orderId",
              "type": "uint256"
            }
          ],
          "internalType": "struct OrderWithId[]",
          "name": "",
          "type": "tuple[]"
        }
      ],
      "stateMutability": "view",
      "type": "function"
    },
    {
      "inputs": [
        {
          "internalType": "uint256",
          "name": "orderId",
          "type": "uint256"
        }
      ],
      "name": "getOrder",
      "outputs": [
        {
          "components": [
            {
              "internalType": "address",
              "name": "token2sell",
              "type": "address"
            },
            {
              "internalType": "uint256",
              "name": "amountLeft",
              "type": "uint256"
            },
            {
              "internalType": "address",
              "name": "token2buy",
              "type": "address"
            },
            {
              "internalType": "uint256",
              "name": "token2buyAmount",
              "type": "uint256"
            },
            {
              "internalType": "address",
              "name": "beneficiary",
              "type": "address"
            },
            {
              "internalType": "uint256",
              "name": "creationTimestamp",
              "type": "uint256"
            },
            {
              "internalType": "enum DiscountType",
              "name": "discountType",
              "type": "uint8"
            },
            {
              "internalType": "address",
              "name": "caller",
              "type": "address"
            }
          ],
          "internalType": "struct Order",
          "name": "",
          "type": "tuple"
        }
      ],
      "stateMutability": "view",
      "type": "function"
    },
    {
      "inputs": [
        {
          "internalType": "uint256",
          "name": "index",
          "type": "uint256"
        }
      ],
      "name": "getOrderAt",
      "outputs": [
        {
          "components": [
            {
              "internalType": "address",
              "name": "token2sell",
              "type": "address"
            },
            {
              "internalType": "uint256",
              "name": "amountLeft",
              "type": "uint256"
            },
            {
              "internalType": "address",
              "name": "token2buy",
              "type": "address"
            },
            {
              "internalType": "uint256",
              "name": "token2buyAmount",
              "type": "uint256"
            },
            {
              "internalType": "address",
              "name": "beneficiary",
              "type": "address"
            },
            {
              "internalType": "uint256",
              "name": "creationTimestamp",
              "type": "uint256"
            },
            {
              "internalType": "enum DiscountType",
              "name": "discountType",
              "type": "uint8"
            },
            {
              "internalType": "address",
              "name": "caller",
              "type": "address"
            }
          ],
          "internalType": "struct Order",
          "name": "",
          "type": "tuple"
        }
      ],
      "stateMutability": "view",
      "type": "function"
    },
    {
      "inputs": [
        {
          "internalType": "uint256",
          "name": "orderId",
          "type": "uint256"
        }
      ],
      "name": "getOrderOutAmountEDecimals",
      "outputs": [
        {
          "internalType": "uint256",
          "name": "",
          "type": "uint256"
        }
      ],
      "stateMutability": "view",
      "type": "function"
    },
    {
      "inputs": [
        {
          "internalType": "address",
          "name": "token2sell",
          "type": "address"
        },
        {
          "internalType": "uint256",
          "name": "timePassed",
          "type": "uint256"
        },
        {
          "internalType": "enum DiscountType",
          "name": "discountType",
          "type": "uint8"
        }
      ],
      "name": "getOrderPrice",
      "outputs": [
        {
          "internalType": "uint256",
          "name": "",
          "type": "uint256"
        }
      ],
      "stateMutability": "view",
      "type": "function"
    },
    {
      "inputs": [],
      "name": "getOrdersCount",
      "outputs": [
        {
          "internalType": "uint256",
          "name": "",
          "type": "uint256"
        }
      ],
      "stateMutability": "view",
      "type": "function"
    },
    {
      "inputs": [
        {
          "internalType": "address",
          "name": "tokenA",
          "type": "address"
        },
        {
          "internalType": "address",
          "name": "tokenB",
          "type": "address"
        },
        {
          "internalType": "uint256",
          "name": "amountA",
          "type": "uint256"
        },
        {
          "internalType": "uint256",
          "name": "timePassed",
          "type": "uint256"
        },
        {
          "internalType": "enum DiscountType",
          "name": "discountType",
          "type": "uint8"
        }
      ],
      "name": "getOutAmountEDecimals",
      "outputs": [
        {
          "internalType": "uint256",
          "name": "",
          "type": "uint256"
        }
      ],
      "stateMutability": "view",
      "type": "function"
    },
    {
      "inputs": [
        {
          "internalType": "address",
          "name": "_authControl",
          "type": "address"
        },
        {
          "internalType": "address",
          "name": "_oracleAddress",
          "type": "address"
        },
        {
          "internalType": "address",
          "name": "_topStakersAddress",
          "type": "address"
        },
        {
          "internalType": "address",
          "name": "_swapRouter",
          "type": "address"
        },
        {
          "internalType": "address",
          "name": "_uniswapFactory",
          "type": "address"
        }
      ],
      "name": "initialize",
      "outputs": [],
      "stateMutability": "nonpayable",
      "type": "function"
    },
    {
      "inputs": [
        {
          "internalType": "uint256",
          "name": "",
          "type": "uint256"
        }
      ],
      "name": "orders",
      "outputs": [
        {
          "internalType": "address",
          "name": "token2sell",
          "type": "address"
        },
        {
          "internalType": "uint256",
          "name": "amountLeft",
          "type": "uint256"
        },
        {
          "internalType": "address",
          "name": "token2buy",
          "type": "address"
        },
        {
          "internalType": "uint256",
          "name": "token2buyAmount",
          "type": "uint256"
        },
        {
          "internalType": "address",
          "name": "beneficiary",
          "type": "address"
        },
        {
          "internalType": "uint256",
          "name": "creationTimestamp",
          "type": "uint256"
        },
        {
          "internalType": "enum DiscountType",
          "name": "discountType",
          "type": "uint8"
        },
        {
          "internalType": "address",
          "name": "caller",
          "type": "address"
        }
      ],
      "stateMutability": "view",
      "type": "function"
    },
    {
      "inputs": [
        {
          "internalType": "enum DiscountType",
          "name": "",
          "type": "uint8"
        },
        {
          "internalType": "uint256",
          "name": "",
          "type": "uint256"
        }
      ],
      "name": "priceCurve",
      "outputs": [
        {
          "internalType": "uint256",
          "name": "",
          "type": "uint256"
        }
      ],
      "stateMutability": "view",
      "type": "function"
    },
    {
      "inputs": [
        {
          "internalType": "enum DiscountType",
          "name": "discountType",
          "type": "uint8"
        },
        {
          "internalType": "uint256[2]",
          "name": "newPriceCurve",
          "type": "uint256[2]"
        }
      ],
      "name": "setPriceCurve",
      "outputs": [],
      "stateMutability": "nonpayable",
      "type": "function"
    },
    {
      "inputs": [
        {
          "internalType": "bytes4",
          "name": "interfaceId",
          "type": "bytes4"
        }
      ],
      "name": "supportsInterface",
      "outputs": [
        {
          "internalType": "bool",
          "name": "",
          "type": "bool"
        }
      ],
      "stateMutability": "view",
      "type": "function"
    }
  ],
  "numDeployments": 8,
  "solcInputHash": "14b7ebc061cf8df4a6a9af809d3bdcfe",
  "bytecode": "0x608060405234801561001057600080fd5b506121ce806100206000396000f3fe608060405234801561001057600080fd5b50600436106101125760003560e01c806301ffc9a71461011757806303eaa21a1461015057806303ee9f22146101655780631459457a1461018b57806314c376dc1461019e57806338013f02146101d3578063514fcac7146101e657806373a423d0146101f957806377bcd9a3146102195780637bea0d1c1461022c578063818e664a146102415780639081bf3914610254578063a85c38ef1461027c578063b5b3b051146102f5578063ba07fc59146102fd578063c3f2b67d14610310578063d0616f9214610323578063d09ef24114610336578063d539139314610349578063d7c8ae8914610370578063dc97e84e14610383578063f711bff8146103aa575b600080fd5b61013b610125366004611c56565b6001600160e01b03191663bcd462d760e01b1490565b60405190151581526020015b60405180910390f35b61016361015e366004611c94565b6103b3565b005b60005461017e906201000090046001600160a01b031681565b6040516101479190611cce565b610163610199366004611cf9565b6104c4565b6101c57fe965846df3dd5b1dfa65f58e31477079e90140e0908b6dd31b5aead5a57cf36581565b604051908152602001610147565b60085461017e906001600160a01b031681565b6101636101f4366004611d5e565b610721565b61020c610207366004611d5e565b610912565b6040516101479190611e11565b6101c5610227366004611e20565b6109e4565b610234610ac2565b6040516101479190611e6b565b6101c561024f366004611ec4565b610c50565b610267610262366004611f11565b610db4565b60408051928352602083019190915201610147565b6102e161028a366004611d5e565b600160208190526000918252604090912080549181015460028201546003830154600484015460058501546006909501546001600160a01b039687169694959385169492939183169260ff82169161010090041688565b604051610147989796959493929190611f59565b6101c561127e565b60095461017e906001600160a01b031681565b6101c561031e366004611fb4565b61128f565b6101c5610331366004611d5e565b6114cd565b61020c610344366004611d5e565b6115ad565b6101c57f9f2df0fed2c77648de5860a4cc508cd0818c85b8b8a1ab4ceeef8d981c8956a681565b6101c561037e366004612006565b61166d565b6101c57f9a9aef7c1247d5fc769b0185c052913e39673da29a880317dfd20ebf86f26a4981565b6101c560055481565b60008054604051632474521560e21b8152620100009091046001600160a01b0316916391d14854916103ea91903390600401612030565b602060405180830381865afa158015610407573d6000803e3d6000fd5b505050506040513d601f19601f8201168201806040525081019061042b9190612047565b61047c5760405162461bcd60e51b815260206004820152601d60248201527f5375417574683a206f6e6c794f776e657220415554485f4641494c454400000060448201526064015b60405180910390fd5b806004600084600281111561049357610493611d77565b60028111156104a4576104a4611d77565b815260208101919091526040016000206104bf916002611b35565b505050565b600054610100900460ff16158080156104e45750600054600160ff909116105b806104fe5750303b1580156104fe575060005460ff166001145b6105615760405162461bcd60e51b815260206004820152602e60248201527f496e697469616c697a61626c653a20636f6e747261637420697320616c72656160448201526d191e481a5b9a5d1a585b1a5e995960921b6064820152608401610473565b6000805460ff191660011790558015610584576000805461ff0019166101001790555b61058d86611692565b60408051808201909152610384815260006020808301829052908052600490526105da907f17ef568e3e12ab5b9c7254a8d58478811de00f9e6eb34345acd53bf8fd09d3ec906002611b73565b50604080518082019091526202bf2081526000602080830182905260019091526004905261062b907fabd6e7cb50984ff9c2f3e18a2660c3353dadf4e3291deeb275dae2cd1e44fe05906002611ba7565b5060408051808201909152620697808152600060208083018290526002918290526004905261067b917f91da3fd0782e51c6b3986e9e672fd566868e71f3dbc2d6c2cd6fbb3e361af2a791611ba7565b5068056bc75e2d63100000600555600680546001600160a01b038086166001600160a01b031992831617909255600780548584169083161790556008805488841690831617905560098054928716929091169190911790558015610719576000805461ff0019169055604051600181527f7f26b83ff96e1f2b6a682f133852f6798a09c465da95921460cefb38474024989060200160405180910390a15b505050505050565b600081815260016020818152604080842081516101008101835281546001600160a01b03908116825294820154938101939093526002808201548516928401929092526003810154606084015260048101549093166080830152600583015460a0830152600683015491929160c084019160ff909116908111156107a7576107a7611d77565b60028111156107b8576107b8611d77565b81526006919091015461010090046001600160a01b031660209091015260a0810151909150600003610800576040516373a98b6360e11b815260048101839052602401610473565b80608001516001600160a01b0316336001600160a01b03161415801561083c57508060e001516001600160a01b0316336001600160a01b031614155b1561085a5760405163da383fb560e01b815260040160405180910390fd5b610871816000015182608001518360200151611727565b6000828152600160208190526040822080546001600160a01b031990811682559181018390556002808201805484169055600382018490556004820180549093169092556005810192909255600690910180546001600160a81b03191690556108da9083611827565b506040518281527fc41f4ceb2938876c35e61b705e9d2f18a02c4a26ce5e049a6308a943d46851b39060200160405180910390a15050565b61091a611bdc565b600061092760028461183c565b60008181526001602081815260409283902083516101008101855281546001600160a01b03908116825293820154928101929092526002808201548416948301949094526003810154606083015260048101549092166080820152600582015460a0820152600682015493945092909160c084019160ff16908111156109af576109af611d77565b60028111156109c0576109c0611d77565b81526006919091015461010090046001600160a01b03166020909101529392505050565b6000806109f2878585610c50565b600854604051631735856760e31b81529192506000916001600160a01b039091169063b9ac2b3890610a28908a90600401611cce565b602060405180830381865afa158015610a45573d6000803e3d6000fd5b505050506040513d601f19601f82011682018060405250810190610a699190612064565b9050600081610a788489612093565b610a8291906120c0565b905082610a8f8383612093565b610a9991906120c0565b8714610ab457610aaa8160016120d4565b9350505050610ab9565b925050505b95945050505050565b60606000610ad06002611848565b80519091506000816001600160401b03811115610aef57610aef6120e7565b604051908082528060200260200182016040528015610b2857816020015b610b15611c21565b815260200190600190039081610b0d5790505b50905060005b82811015610c48576000848281518110610b4a57610b4a6120fd565b6020908102919091018101516040805160008381526001948590528290206101408201835280546001600160a01b0390811693830193845294810154606083015260028082015486166080840152600382015460a0840152600482015490951660c0830152600581015460e083015260068101549395509093849361010085019160ff90911690811115610be057610be0611d77565b6002811115610bf157610bf1611d77565b81526006919091015461010090046001600160a01b0316602091820152908252018290528351849084908110610c2957610c296120fd565b6020026020010181905250508080610c4090612113565b915050610b2e565b509392505050565b60008060046000846002811115610c6957610c69611d77565b6002811115610c7a57610c7a611d77565b8152602001908152602001600020600060028110610c9a57610c9a6120fd565b01549050600060046000856002811115610cb657610cb6611d77565b6002811115610cc757610cc7611d77565b8152602081019190915260400160002060010154600854604051631735856760e31b81529192506000916001600160a01b039091169063b9ac2b3890610d11908a90600401611cce565b602060405180830381865afa158015610d2e573d6000803e3d6000fd5b505050506040513d601f19601f82011682018060405250810190610d529190612064565b905082861115610d7d57600a610d69826008612093565b610d7391906120c0565b9350505050610dad565b8183610d898884612093565b610d9391906120c0565b610d9d908361212c565b610da7919061212c565b93505050505b9392505050565b600084815260016020526040812060058101548291908203610dec576040516373a98b6360e11b815260048101889052602401610473565b6000816005015442610dfe919061212c565b9050603c8111610f47576009546040805163c4e4a93b60e01b815290516000926001600160a01b03169163c4e4a93b9160048083019260209291908290030181865afa158015610e52573d6000803e3d6000fd5b505050506040513d601f19601f82011682018060405250810190610e769190612064565b60095460405162650fcd60e31b81529192506001600160a01b0316906303287e6890610ea6908a90600401611cce565b602060405180830381865afa158015610ec3573d6000803e3d6000fd5b505050506040513d601f19601f82011682018060405250810190610ee79190612047565b610f06578660405163a849de1760e01b81526004016104739190611cce565b610f10818a61213f565b610f23826001600160a01b038a1661213f565b14610f45578887604051636d5e923560e01b8152600401610473929190612030565b505b6000610f52896114cd565b83546006850154919250600091610f77916001600160a01b031690859060ff16610c50565b6008546002860154604051631735856760e31b81529293506000926001600160a01b039283169263b9ac2b3892610fb392911690600401611cce565b602060405180830381865afa158015610fd0573d6000803e3d6000fd5b505050506040513d601f19601f82011682018060405250810190610ff49190612064565b90506000838b11611005578a611007565b835b90506000836110168484612093565b61102091906120c0565b90508187600301600082825461103691906120d4565b90915550506001870154811061105757506001860180546000909155611071565b8087600101600082825461106b919061212c565b90915550505b600087600101541180156110a95750600554670de0b6b3a764000088600101548661109c9190612093565b6110a691906120c0565b11155b156110c75760405163117be23960e31b815260040160405180910390fd5b600287015460048801546110ea916001600160a01b03908116918e911685611855565b8654611100906001600160a01b03168c83611727565b8660010154600003611239578915611197578660060160019054906101000a90046001600160a01b03166001600160a01b031663a0efe4608e89600301546040518363ffffffff1660e01b8152600401611164929190918252602082015260400190565b600060405180830381600087803b15801561117e57600080fd5b505af1158015611192573d6000803e3d6000fd5b505050505b60008d8152600160208190526040822080546001600160a01b031990811682559181018390556002808201805484169055600382018490556004820180549093169092556005810192909255600690910180546001600160a81b0319169055611200908e611827565b506040518d81527fcdf98e0235c72ad7ae8de32249da25cc98298c8f11710c55a3d58e9e7ac69f949060200160405180910390a161126d565b6040518d81527fc238a2d1c485b17bfd980b5e6d0483704cd4720118eb06215758d49f85ea89639060200160405180910390a15b9c909b509950505050505050505050565b600061128a6002611957565b905090565b60408051436020808301919091526001600160601b031933606090811b82168486015289811b821660548501526068840189905287901b1660888301528251808303607c018152609c909201835281519181019190912060008181526001909252919020600501541561130a576113076001826120d4565b90505b6000818152600160205260409020600501541561133d57604051634b92340560e01b815260048101829052602401610473565b61134986333088611855565b604051806101000160405280876001600160a01b03168152602001868152602001856001600160a01b0316815260200160008152602001846001600160a01b031681526020014281526020018360028111156113a7576113a7611d77565b81523360209182015260008381526001808352604091829020845181546001600160a01b03199081166001600160a01b039283161783559486015182840155928501516002808301805487169286169290921790915560608601516003830155608086015160048301805490961694169390931790935560a0840151600584015560c08401516006840180549193909260ff199092169190849081111561145057611450611d77565b021790555060e09190910151600690910180546001600160a01b0390921661010002610100600160a81b0319909216919091179055611490600282611961565b506040518181527f12a866cc569301d2ff9fcbbae3decc9e0cf3fa94ddef08dd0de3e9a693fb8d199060200160405180910390a195945050505050565b600081815260016020818152604080842081516101008101835281546001600160a01b03908116825294820154938101939093526002808201548516928401929092526003810154606084015260048101549093166080830152600583015460a0830152600683015484939160c084019160ff169081111561155157611551611d77565b600281111561156257611562611d77565b81526006919091015461010090046001600160a01b0316602091820152815160408301519183015160a0840151939450610dad939192916115a3904261212c565b8560c001516109e4565b6115b5611bdc565b60008281526001602081815260409283902083516101008101855281546001600160a01b03908116825293820154928101929092526002808201548416948301949094526003810154606083015260048101549092166080820152600582015460a08201526006820154909260c084019160ff169081111561163957611639611d77565b600281111561164a5761164a611d77565b81526006919091015461010090046001600160a01b031660209091015292915050565b6004602052816000526040600020816002811061168957600080fd5b01549150829050565b600054610100900460ff166116fd5760405162461bcd60e51b815260206004820152602b60248201527f496e697469616c697a61626c653a20636f6e7472616374206973206e6f74206960448201526a6e697469616c697a696e6760a81b6064820152608401610473565b600080546001600160a01b03909216620100000262010000600160b01b0319909216919091179055565b604080516001600160a01b038481166024830152604480830185905283518084039091018152606490920183526020820180516001600160e01b031663a9059cbb60e01b17905291516000928392908716916117839190612153565b6000604051808303816000865af19150503d80600081146117c0576040519150601f19603f3d011682016040523d82523d6000602084013e6117c5565b606091505b50915091508180156117ef5750805115806117ef5750808060200190518101906117ef9190612047565b6118205760405162461bcd60e51b815260206004820152600260248201526114d560f21b6044820152606401610473565b5050505050565b6000611833838361196d565b90505b92915050565b60006118338383611a60565b60606000610dad83611a8a565b604080516001600160a01b0385811660248301528481166044830152606480830185905283518084039091018152608490920183526020820180516001600160e01b03166323b872dd60e01b17905291516000928392908816916118b99190612153565b6000604051808303816000865af19150503d80600081146118f6576040519150601f19603f3d011682016040523d82523d6000602084013e6118fb565b606091505b50915091508180156119255750805115806119255750808060200190518101906119259190612047565b6107195760405162461bcd60e51b815260206004820152600360248201526229aa2360e91b6044820152606401610473565b6000611836825490565b60006118338383611ae6565b60008181526001830160205260408120548015611a5657600061199160018361212c565b85549091506000906119a59060019061212c565b9050818114611a0a5760008660000182815481106119c5576119c56120fd565b90600052602060002001549050808760000184815481106119e8576119e86120fd565b6000918252602080832090910192909255918252600188019052604090208390555b8554869080611a1b57611a1b612182565b600190038181906000526020600020016000905590558560010160008681526020019081526020016000206000905560019350505050611836565b6000915050611836565b6000826000018281548110611a7757611a776120fd565b9060005260206000200154905092915050565b606081600001805480602002602001604051908101604052809291908181526020018280548015611ada57602002820191906000526020600020905b815481526020019060010190808311611ac6575b50505050509050919050565b6000818152600183016020526040812054611b2d57508154600181810184556000848152602080822090930184905584548482528286019093526040902091909155611836565b506000611836565b8260028101928215611b63579160200282015b82811115611b63578235825591602001919060010190611b48565b50611b6f929150611c41565b5090565b8260028101928215611b63579160200282015b82811115611b63578251829061ffff16905591602001919060010190611b86565b8260028101928215611b63579160200282015b82811115611b63578251829062ffffff16905591602001919060010190611bba565b6040805161010081018252600080825260208201819052918101829052606081018290526080810182905260a081018290529060c08201908152600060209091015290565b6040518060400160405280611c34611bdc565b8152602001600081525090565b5b80821115611b6f5760008155600101611c42565b600060208284031215611c6857600080fd5b81356001600160e01b031981168114610dad57600080fd5b803560038110611c8f57600080fd5b919050565b60008060608385031215611ca757600080fd5b611cb083611c80565b915083606084011115611cc257600080fd5b50926020919091019150565b6001600160a01b0391909116815260200190565b80356001600160a01b0381168114611c8f57600080fd5b600080600080600060a08688031215611d1157600080fd5b611d1a86611ce2565b9450611d2860208701611ce2565b9350611d3660408701611ce2565b9250611d4460608701611ce2565b9150611d5260808701611ce2565b90509295509295909350565b600060208284031215611d7057600080fd5b5035919050565b634e487b7160e01b600052602160045260246000fd5b60038110611dab57634e487b7160e01b600052602160045260246000fd5b9052565b60018060a01b03808251168352602082015160208401528060408301511660408401526060820151606084015280608083015116608084015260a082015160a084015260c0820151611e0460c0850182611d8d565b5060e09182015116910152565b61010081016118368284611daf565b600080600080600060a08688031215611e3857600080fd5b611e4186611ce2565b9450611e4f60208701611ce2565b93506040860135925060608601359150611d5260808701611c80565b6020808252825182820181905260009190848201906040850190845b81811015611eb8578351611e9c848251611daf565b8501516101008401529284019261012090920191600101611e87565b50909695505050505050565b600080600060608486031215611ed957600080fd5b611ee284611ce2565b925060208401359150611ef760408501611c80565b90509250925092565b8015158114611f0e57600080fd5b50565b60008060008060808587031215611f2757600080fd5b8435935060208501359250611f3e60408601611ce2565b91506060850135611f4e81611f00565b939692955090935050565b6001600160a01b03898116825260208201899052878116604083015260608201879052858116608083015260a08201859052610100820190611f9e60c0840186611d8d565b80841660e0840152509998505050505050505050565b600080600080600060a08688031215611fcc57600080fd5b611fd586611ce2565b945060208601359350611fea60408701611ce2565b9250611ff860608701611ce2565b9150611d5260808701611c80565b6000806040838503121561201957600080fd5b61202283611c80565b946020939093013593505050565b9182526001600160a01b0316602082015260400190565b60006020828403121561205957600080fd5b8151610dad81611f00565b60006020828403121561207657600080fd5b5051919050565b634e487b7160e01b600052601160045260246000fd5b80820281158282048414176118365761183661207d565b634e487b7160e01b600052601260045260246000fd5b6000826120cf576120cf6120aa565b500490565b808201808211156118365761183661207d565b634e487b7160e01b600052604160045260246000fd5b634e487b7160e01b600052603260045260246000fd5b6000600182016121255761212561207d565b5060010190565b818103818111156118365761183661207d565b60008261214e5761214e6120aa565b500690565b6000825160005b81811015612174576020818601810151858301520161215a565b506000920191825250919050565b634e487b7160e01b600052603160045260246000fdfea2646970667358221220945988f2c7828cb6a89e808619a3f48b94521cb6834b088a1b41c3ef15ff1c8d64736f6c63430008110033",
  "devdoc": {
    "kind": "dev",
    "methods": {},
    "version": 1
  },
  "userdoc": {
    "kind": "user",
    "methods": {},
    "version": 1
  },
  "storageLayout": {
    "storage": [
      {
        "astId": 79,
        "contract": "contracts/liquidator/v2/contracts/Exchange.sol:Exchange",
        "label": "_initialized",
        "offset": 0,
        "slot": "0",
        "type": "t_uint8"
      },
      {
        "astId": 82,
        "contract": "contracts/liquidator/v2/contracts/Exchange.sol:Exchange",
        "label": "_initializing",
        "offset": 1,
        "slot": "0",
        "type": "t_bool"
      },
      {
        "astId": 2042,
        "contract": "contracts/liquidator/v2/contracts/Exchange.sol:Exchange",
        "label": "ACCESS_CONTROL_SINGLETON",
        "offset": 2,
        "slot": "0",
        "type": "t_contract(ISuAccessControl)2126"
      },
      {
        "astId": 2162,
        "contract": "contracts/liquidator/v2/contracts/Exchange.sol:Exchange",
        "label": "orders",
        "offset": 0,
        "slot": "1",
        "type": "t_mapping(t_uint256,t_struct(Order)2975_storage)"
      },
      {
        "astId": 2165,
        "contract": "contracts/liquidator/v2/contracts/Exchange.sol:Exchange",
        "label": "orderIdSet",
        "offset": 0,
        "slot": "2",
        "type": "t_struct(UintSet)1054_storage"
      },
      {
        "astId": 2172,
        "contract": "contracts/liquidator/v2/contracts/Exchange.sol:Exchange",
        "label": "priceCurve",
        "offset": 0,
        "slot": "4",
        "type": "t_mapping(t_enum(DiscountType)2957,t_array(t_uint256)2_storage)"
      },
      {
        "astId": 2174,
        "contract": "contracts/liquidator/v2/contracts/Exchange.sol:Exchange",
        "label": "DUST_THRESHHOLD",
        "offset": 0,
        "slot": "5",
        "type": "t_uint256"
      },
      {
        "astId": 2177,
        "contract": "contracts/liquidator/v2/contracts/Exchange.sol:Exchange",
        "label": "SWAP_ROUTER",
        "offset": 0,
        "slot": "6",
        "type": "t_contract(ISwapRouter)1843"
      },
      {
        "astId": 2179,
        "contract": "contracts/liquidator/v2/contracts/Exchange.sol:Exchange",
        "label": "UNISWAP_FACTORY",
        "offset": 0,
        "slot": "7",
        "type": "t_address"
      },
      {
        "astId": 2182,
        "contract": "contracts/liquidator/v2/contracts/Exchange.sol:Exchange",
        "label": "ORACLE",
        "offset": 0,
        "slot": "8",
        "type": "t_contract(ISuOracle)2137"
      },
      {
        "astId": 2185,
        "contract": "contracts/liquidator/v2/contracts/Exchange.sol:Exchange",
        "label": "TOP_STAKERS",
        "offset": 0,
        "slot": "9",
        "type": "t_contract(ITopStakers)3150"
      },
      {
        "astId": 2950,
        "contract": "contracts/liquidator/v2/contracts/Exchange.sol:Exchange",
        "label": "__gap",
        "offset": 0,
        "slot": "10",
        "type": "t_array(t_uint256)45_storage"
      }
    ],
    "types": {
      "t_address": {
        "encoding": "inplace",
        "label": "address",
        "numberOfBytes": "20"
      },
      "t_array(t_bytes32)dyn_storage": {
        "base": "t_bytes32",
        "encoding": "dynamic_array",
        "label": "bytes32[]",
        "numberOfBytes": "32"
      },
      "t_array(t_uint256)2_storage": {
        "base": "t_uint256",
        "encoding": "inplace",
        "label": "uint256[2]",
        "numberOfBytes": "64"
      },
      "t_array(t_uint256)45_storage": {
        "base": "t_uint256",
        "encoding": "inplace",
        "label": "uint256[45]",
        "numberOfBytes": "1440"
      },
      "t_bool": {
        "encoding": "inplace",
        "label": "bool",
        "numberOfBytes": "1"
      },
      "t_bytes32": {
        "encoding": "inplace",
        "label": "bytes32",
        "numberOfBytes": "32"
      },
      "t_contract(ISuAccessControl)2126": {
        "encoding": "inplace",
        "label": "contract ISuAccessControl",
        "numberOfBytes": "20"
      },
      "t_contract(ISuOracle)2137": {
        "encoding": "inplace",
        "label": "contract ISuOracle",
        "numberOfBytes": "20"
      },
      "t_contract(ISwapRouter)1843": {
        "encoding": "inplace",
        "label": "contract ISwapRouter",
        "numberOfBytes": "20"
      },
      "t_contract(ITopStakers)3150": {
        "encoding": "inplace",
        "label": "contract ITopStakers",
        "numberOfBytes": "20"
      },
      "t_enum(DiscountType)2957": {
        "encoding": "inplace",
        "label": "enum DiscountType",
        "numberOfBytes": "1"
      },
      "t_mapping(t_bytes32,t_uint256)": {
        "encoding": "mapping",
        "key": "t_bytes32",
        "label": "mapping(bytes32 => uint256)",
        "numberOfBytes": "32",
        "value": "t_uint256"
      },
      "t_mapping(t_enum(DiscountType)2957,t_array(t_uint256)2_storage)": {
        "encoding": "mapping",
        "key": "t_enum(DiscountType)2957",
        "label": "mapping(enum DiscountType => uint256[2])",
        "numberOfBytes": "32",
        "value": "t_array(t_uint256)2_storage"
      },
      "t_mapping(t_uint256,t_struct(Order)2975_storage)": {
        "encoding": "mapping",
        "key": "t_uint256",
        "label": "mapping(uint256 => struct Order)",
        "numberOfBytes": "32",
        "value": "t_struct(Order)2975_storage"
      },
      "t_struct(Order)2975_storage": {
        "encoding": "inplace",
        "label": "struct Order",
        "members": [
          {
            "astId": 2959,
            "contract": "contracts/liquidator/v2/contracts/Exchange.sol:Exchange",
            "label": "token2sell",
            "offset": 0,
            "slot": "0",
            "type": "t_address"
          },
          {
            "astId": 2961,
            "contract": "contracts/liquidator/v2/contracts/Exchange.sol:Exchange",
            "label": "amountLeft",
            "offset": 0,
            "slot": "1",
            "type": "t_uint256"
          },
          {
            "astId": 2963,
            "contract": "contracts/liquidator/v2/contracts/Exchange.sol:Exchange",
            "label": "token2buy",
            "offset": 0,
            "slot": "2",
            "type": "t_address"
          },
          {
            "astId": 2965,
            "contract": "contracts/liquidator/v2/contracts/Exchange.sol:Exchange",
            "label": "token2buyAmount",
            "offset": 0,
            "slot": "3",
            "type": "t_uint256"
          },
          {
            "astId": 2967,
            "contract": "contracts/liquidator/v2/contracts/Exchange.sol:Exchange",
            "label": "beneficiary",
            "offset": 0,
            "slot": "4",
            "type": "t_address"
          },
          {
            "astId": 2969,
            "contract": "contracts/liquidator/v2/contracts/Exchange.sol:Exchange",
            "label": "creationTimestamp",
            "offset": 0,
            "slot": "5",
            "type": "t_uint256"
          },
          {
            "astId": 2972,
            "contract": "contracts/liquidator/v2/contracts/Exchange.sol:Exchange",
            "label": "discountType",
            "offset": 0,
            "slot": "6",
            "type": "t_enum(DiscountType)2957"
          },
          {
            "astId": 2974,
            "contract": "contracts/liquidator/v2/contracts/Exchange.sol:Exchange",
            "label": "caller",
            "offset": 1,
            "slot": "6",
            "type": "t_address"
          }
        ],
        "numberOfBytes": "224"
      },
      "t_struct(Set)582_storage": {
        "encoding": "inplace",
        "label": "struct EnumerableSetUpgradeable.Set",
        "members": [
          {
            "astId": 577,
            "contract": "contracts/liquidator/v2/contracts/Exchange.sol:Exchange",
            "label": "_values",
            "offset": 0,
            "slot": "0",
            "type": "t_array(t_bytes32)dyn_storage"
          },
          {
            "astId": 581,
            "contract": "contracts/liquidator/v2/contracts/Exchange.sol:Exchange",
            "label": "_indexes",
            "offset": 0,
            "slot": "1",
            "type": "t_mapping(t_bytes32,t_uint256)"
          }
        ],
        "numberOfBytes": "64"
      },
      "t_struct(UintSet)1054_storage": {
        "encoding": "inplace",
        "label": "struct EnumerableSetUpgradeable.UintSet",
        "members": [
          {
            "astId": 1053,
            "contract": "contracts/liquidator/v2/contracts/Exchange.sol:Exchange",
            "label": "_inner",
            "offset": 0,
            "slot": "0",
            "type": "t_struct(Set)582_storage"
          }
        ],
        "numberOfBytes": "64"
      },
      "t_uint256": {
        "encoding": "inplace",
        "label": "uint256",
        "numberOfBytes": "32"
      },
      "t_uint8": {
        "encoding": "inplace",
        "label": "uint8",
        "numberOfBytes": "1"
      }
    }
  }
}