{
  "address": "0x3d8E7bddcF54b193cD329c604CfDd2767c70eB34",
  "abi": [
    {
      "inputs": [
        {
          "internalType": "address",
          "name": "orderToken2buy",
          "type": "address"
        },
        {
          "internalType": "address",
          "name": "inToken",
          "type": "address"
        }
      ],
      "name": "IncorrectToken",
      "type": "error"
    },
    {
      "inputs": [
        {
          "internalType": "address",
          "name": "staker",
          "type": "address"
        }
      ],
      "name": "IsNotTopStaker",
      "type": "error"
    },
    {
      "inputs": [
        {
          "internalType": "uint256",
          "name": "orderId",
          "type": "uint256"
        }
      ],
      "name": "OrderExist",
      "type": "error"
    },
    {
      "inputs": [
        {
          "internalType": "uint256",
          "name": "orderId",
          "type": "uint256"
        }
      ],
      "name": "OrderNotExist",
      "type": "error"
    },
    {
      "inputs": [
        {
          "internalType": "uint256",
          "name": "orderId",
          "type": "uint256"
        },
        {
          "internalType": "address",
          "name": "staker",
          "type": "address"
        }
      ],
      "name": "OrderNotForThisStaker",
      "type": "error"
    },
    {
      "inputs": [],
      "name": "SmallAmountLeft",
      "type": "error"
    },
    {
      "inputs": [],
      "name": "UserIsNotBeneficiary",
      "type": "error"
    },
    {
      "anonymous": false,
      "inputs": [
        {
          "indexed": false,
          "internalType": "uint8",
          "name": "version",
          "type": "uint8"
        }
      ],
      "name": "Initialized",
      "type": "event"
    },
    {
      "anonymous": false,
      "inputs": [
        {
          "indexed": false,
          "internalType": "uint256",
          "name": "orderId",
          "type": "uint256"
        }
      ],
      "name": "OrderAdded",
      "type": "event"
    },
    {
      "anonymous": false,
      "inputs": [
        {
          "indexed": false,
          "internalType": "uint256",
          "name": "orderId",
          "type": "uint256"
        }
      ],
      "name": "OrderCanceled",
      "type": "event"
    },
    {
      "anonymous": false,
      "inputs": [
        {
          "indexed": false,
          "internalType": "uint256",
          "name": "orderId",
          "type": "uint256"
        }
      ],
      "name": "OrderFilled",
      "type": "event"
    },
    {
      "anonymous": false,
      "inputs": [
        {
          "indexed": false,
          "internalType": "uint256",
          "name": "orderId",
          "type": "uint256"
        }
      ],
      "name": "OrderFilledPartially",
      "type": "event"
    },
    {
      "inputs": [],
      "name": "ACCESS_CONTROL_SINGLETON",
      "outputs": [
        {
          "internalType": "contract ISuAccessControl",
          "name": "",
          "type": "address"
        }
      ],
      "stateMutability": "view",
      "type": "function"
    },
    {
      "inputs": [],
      "name": "DUST_THRESHHOLD",
      "outputs": [
        {
          "internalType": "uint256",
          "name": "",
          "type": "uint256"
        }
      ],
      "stateMutability": "view",
      "type": "function"
    },
    {
      "inputs": [],
      "name": "LIQUIDATION_ACCESS_ROLE",
      "outputs": [
        {
          "internalType": "bytes32",
          "name": "",
          "type": "bytes32"
        }
      ],
      "stateMutability": "view",
      "type": "function"
    },
    {
      "inputs": [],
      "name": "MINTER_ROLE",
      "outputs": [
        {
          "internalType": "bytes32",
          "name": "",
          "type": "bytes32"
        }
      ],
      "stateMutability": "view",
      "type": "function"
    },
    {
      "inputs": [],
      "name": "ORACLE",
      "outputs": [
        {
          "internalType": "contract ISuOracle",
          "name": "",
          "type": "address"
        }
      ],
      "stateMutability": "view",
      "type": "function"
    },
    {
      "inputs": [],
      "name": "TOP_STAKERS",
      "outputs": [
        {
          "internalType": "contract ITopStakers",
          "name": "",
          "type": "address"
        }
      ],
      "stateMutability": "view",
      "type": "function"
    },
    {
      "inputs": [],
      "name": "VAULT_ACCESS_ROLE",
      "outputs": [
        {
          "internalType": "bytes32",
          "name": "",
          "type": "bytes32"
        }
      ],
      "stateMutability": "view",
      "type": "function"
    },
    {
      "inputs": [
        {
          "internalType": "address",
          "name": "token2sell",
          "type": "address"
        },
        {
          "internalType": "uint256",
          "name": "amount2sell",
          "type": "uint256"
        },
        {
          "internalType": "address",
          "name": "token2buy",
          "type": "address"
        },
        {
          "internalType": "address",
          "name": "beneficiary",
          "type": "address"
        },
        {
          "internalType": "enum DiscountType",
          "name": "discountType",
          "type": "uint8"
        }
      ],
      "name": "addOrder",
      "outputs": [
        {
          "internalType": "uint256",
          "name": "orderId",
          "type": "uint256"
        }
      ],
      "stateMutability": "nonpayable",
      "type": "function"
    },
    {
      "inputs": [
        {
          "internalType": "uint256",
          "name": "orderId",
          "type": "uint256"
        }
      ],
      "name": "cancelOrder",
      "outputs": [],
      "stateMutability": "nonpayable",
      "type": "function"
    },
    {
      "inputs": [
        {
          "internalType": "uint256",
          "name": "orderId",
          "type": "uint256"
        },
        {
          "internalType": "uint256",
          "name": "tokenBAmount",
          "type": "uint256"
        }
      ],
      "name": "fillOrder",
      "outputs": [
        {
          "internalType": "uint256",
          "name": "",
          "type": "uint256"
        },
        {
          "internalType": "uint256",
          "name": "",
          "type": "uint256"
        }
      ],
      "stateMutability": "nonpayable",
      "type": "function"
    },
    {
      "inputs": [],
      "name": "getAllOrders",
      "outputs": [
        {
          "components": [
            {
              "components": [
                {
                  "internalType": "address",
                  "name": "token2sell",
                  "type": "address"
                },
                {
                  "internalType": "uint256",
                  "name": "amountLeft",
                  "type": "uint256"
                },
                {
                  "internalType": "address",
                  "name": "token2buy",
                  "type": "address"
                },
                {
                  "internalType": "uint256",
                  "name": "token2buyAmount",
                  "type": "uint256"
                },
                {
                  "internalType": "address",
                  "name": "beneficiary",
                  "type": "address"
                },
                {
                  "internalType": "uint256",
                  "name": "creationTimestamp",
                  "type": "uint256"
                },
                {
                  "internalType": "enum DiscountType",
                  "name": "discountType",
                  "type": "uint8"
                },
                {
                  "internalType": "address",
                  "name": "caller",
                  "type": "address"
                }
              ],
              "internalType": "struct Order",
              "name": "order",
              "type": "tuple"
            },
            {
              "internalType": "uint256",
              "name": "orderId",
              "type": "uint256"
            }
          ],
          "internalType": "struct OrderWithId[]",
          "name": "",
          "type": "tuple[]"
        }
      ],
      "stateMutability": "view",
      "type": "function"
    },
    {
      "inputs": [
        {
          "internalType": "uint256",
          "name": "orderId",
          "type": "uint256"
        }
      ],
      "name": "getOrder",
      "outputs": [
        {
          "components": [
            {
              "internalType": "address",
              "name": "token2sell",
              "type": "address"
            },
            {
              "internalType": "uint256",
              "name": "amountLeft",
              "type": "uint256"
            },
            {
              "internalType": "address",
              "name": "token2buy",
              "type": "address"
            },
            {
              "internalType": "uint256",
              "name": "token2buyAmount",
              "type": "uint256"
            },
            {
              "internalType": "address",
              "name": "beneficiary",
              "type": "address"
            },
            {
              "internalType": "uint256",
              "name": "creationTimestamp",
              "type": "uint256"
            },
            {
              "internalType": "enum DiscountType",
              "name": "discountType",
              "type": "uint8"
            },
            {
              "internalType": "address",
              "name": "caller",
              "type": "address"
            }
          ],
          "internalType": "struct Order",
          "name": "",
          "type": "tuple"
        }
      ],
      "stateMutability": "view",
      "type": "function"
    },
    {
      "inputs": [
        {
          "internalType": "uint256",
          "name": "index",
          "type": "uint256"
        }
      ],
      "name": "getOrderAt",
      "outputs": [
        {
          "components": [
            {
              "internalType": "address",
              "name": "token2sell",
              "type": "address"
            },
            {
              "internalType": "uint256",
              "name": "amountLeft",
              "type": "uint256"
            },
            {
              "internalType": "address",
              "name": "token2buy",
              "type": "address"
            },
            {
              "internalType": "uint256",
              "name": "token2buyAmount",
              "type": "uint256"
            },
            {
              "internalType": "address",
              "name": "beneficiary",
              "type": "address"
            },
            {
              "internalType": "uint256",
              "name": "creationTimestamp",
              "type": "uint256"
            },
            {
              "internalType": "enum DiscountType",
              "name": "discountType",
              "type": "uint8"
            },
            {
              "internalType": "address",
              "name": "caller",
              "type": "address"
            }
          ],
          "internalType": "struct Order",
          "name": "",
          "type": "tuple"
        }
      ],
      "stateMutability": "view",
      "type": "function"
    },
    {
      "inputs": [
        {
          "internalType": "uint256",
          "name": "orderId",
          "type": "uint256"
        }
      ],
      "name": "getOrderOutAmountEDecimals",
      "outputs": [
        {
          "internalType": "uint256",
          "name": "",
          "type": "uint256"
        }
      ],
      "stateMutability": "view",
      "type": "function"
    },
    {
      "inputs": [
        {
          "internalType": "address",
          "name": "token2sell",
          "type": "address"
        },
        {
          "internalType": "uint256",
          "name": "timePassed",
          "type": "uint256"
        },
        {
          "internalType": "enum DiscountType",
          "name": "discountType",
          "type": "uint8"
        }
      ],
      "name": "getOrderPrice",
      "outputs": [
        {
          "internalType": "uint256",
          "name": "",
          "type": "uint256"
        }
      ],
      "stateMutability": "view",
      "type": "function"
    },
    {
      "inputs": [],
      "name": "getOrdersCount",
      "outputs": [
        {
          "internalType": "uint256",
          "name": "",
          "type": "uint256"
        }
      ],
      "stateMutability": "view",
      "type": "function"
    },
    {
      "inputs": [
        {
          "internalType": "address",
          "name": "tokenA",
          "type": "address"
        },
        {
          "internalType": "address",
          "name": "tokenB",
          "type": "address"
        },
        {
          "internalType": "uint256",
          "name": "amountA",
          "type": "uint256"
        },
        {
          "internalType": "uint256",
          "name": "timePassed",
          "type": "uint256"
        },
        {
          "internalType": "enum DiscountType",
          "name": "discountType",
          "type": "uint8"
        }
      ],
      "name": "getOutAmountEDecimals",
      "outputs": [
        {
          "internalType": "uint256",
          "name": "",
          "type": "uint256"
        }
      ],
      "stateMutability": "view",
      "type": "function"
    },
    {
      "inputs": [
        {
          "internalType": "address",
          "name": "_authControl",
          "type": "address"
        },
        {
          "internalType": "address",
          "name": "_oracleAddress",
          "type": "address"
        },
        {
          "internalType": "address",
          "name": "_topStakersAddress",
          "type": "address"
        },
        {
          "internalType": "address",
          "name": "_swapRouter",
          "type": "address"
        },
        {
          "internalType": "address",
          "name": "_uniswapFactory",
          "type": "address"
        }
      ],
      "name": "initialize",
      "outputs": [],
      "stateMutability": "nonpayable",
      "type": "function"
    },
    {
      "inputs": [
        {
          "internalType": "uint256",
          "name": "",
          "type": "uint256"
        }
      ],
      "name": "orders",
      "outputs": [
        {
          "internalType": "address",
          "name": "token2sell",
          "type": "address"
        },
        {
          "internalType": "uint256",
          "name": "amountLeft",
          "type": "uint256"
        },
        {
          "internalType": "address",
          "name": "token2buy",
          "type": "address"
        },
        {
          "internalType": "uint256",
          "name": "token2buyAmount",
          "type": "uint256"
        },
        {
          "internalType": "address",
          "name": "beneficiary",
          "type": "address"
        },
        {
          "internalType": "uint256",
          "name": "creationTimestamp",
          "type": "uint256"
        },
        {
          "internalType": "enum DiscountType",
          "name": "discountType",
          "type": "uint8"
        },
        {
          "internalType": "address",
          "name": "caller",
          "type": "address"
        }
      ],
      "stateMutability": "view",
      "type": "function"
    },
    {
      "inputs": [
        {
          "internalType": "enum DiscountType",
          "name": "",
          "type": "uint8"
        },
        {
          "internalType": "uint256",
          "name": "",
          "type": "uint256"
        }
      ],
      "name": "priceCurve",
      "outputs": [
        {
          "internalType": "uint256",
          "name": "",
          "type": "uint256"
        }
      ],
      "stateMutability": "view",
      "type": "function"
    },
    {
      "inputs": [
        {
          "internalType": "enum DiscountType",
          "name": "discountType",
          "type": "uint8"
        },
        {
          "internalType": "uint256[2]",
          "name": "newPriceCurve",
          "type": "uint256[2]"
        }
      ],
      "name": "setPriceCurve",
      "outputs": [],
      "stateMutability": "nonpayable",
      "type": "function"
    }
  ],
  "numDeployments": 7,
  "solcInputHash": "32b212ec65e3c522adc4439a443a009a",
  "bytecode": "0x608060405234801561001057600080fd5b50612646806100206000396000f3fe608060405234801561001057600080fd5b50600436106101075760003560e01c806303eaa21a1461010c57806303ee9f22146101215780631459457a1461015057806314c376dc1461016357806338013f0214610198578063514fcac7146101ab57806373a423d0146101be57806377bcd9a3146101de5780637bea0d1c146101f1578063818e664a14610206578063a85c38ef14610219578063b5b3b05114610292578063ba07fc591461029a578063c37dfc5b146102ad578063c3f2b67d146102d5578063d0616f92146102e8578063d09ef241146102fb578063d53913931461030e578063d7c8ae8914610335578063dc97e84e14610348578063f711bff81461036f575b600080fd5b61011f61011a366004611fdf565b610378565b005b60005461013a906201000090046001600160a01b031681565b6040516101479190612019565b60405180910390f35b61011f61015e366004612044565b610489565b61018a7fe965846df3dd5b1dfa65f58e31477079e90140e0908b6dd31b5aead5a57cf36581565b604051908152602001610147565b60085461013a906001600160a01b031681565b61011f6101b93660046120a9565b6106e6565b6101d16101cc3660046120a9565b6108b4565b604051610147919061215c565b61018a6101ec36600461216b565b610986565b6101f9610b46565b60405161014791906121b6565b61018a61021436600461220f565b610cd4565b61027e6102273660046120a9565b600160208190526000918252604090912080549181015460028201546003830154600484015460058501546006909501546001600160a01b039687169694959385169492939183169260ff82169161010090041688565b60405161014798979695949392919061224b565b61018a61102c565b60095461013a906001600160a01b031681565b6102c06102bb3660046122a6565b61103d565b60408051928352602083019190915201610147565b61018a6102e33660046122c8565b61158d565b61018a6102f63660046120a9565b6117d8565b6101d16103093660046120a9565b6118b8565b61018a7f9f2df0fed2c77648de5860a4cc508cd0818c85b8b8a1ab4ceeef8d981c8956a681565b61018a61034336600461231a565b611978565b61018a7f9a9aef7c1247d5fc769b0185c052913e39673da29a880317dfd20ebf86f26a4981565b61018a60055481565b60008054604051632474521560e21b8152620100009091046001600160a01b0316916391d14854916103af91903390600401612344565b602060405180830381865afa1580156103cc573d6000803e3d6000fd5b505050506040513d601f19601f820116820180604052508101906103f0919061235b565b6104415760405162461bcd60e51b815260206004820152601d60248201527f5375417574683a206f6e6c794f776e657220415554485f4641494c454400000060448201526064015b60405180910390fd5b8060046000846002811115610458576104586120c2565b6002811115610469576104696120c2565b81526020810191909152604001600020610484916002611eaa565b505050565b600054610100900460ff16158080156104a95750600054600160ff909116105b806104c35750303b1580156104c3575060005460ff166001145b6105265760405162461bcd60e51b815260206004820152602e60248201527f496e697469616c697a61626c653a20636f6e747261637420697320616c72656160448201526d191e481a5b9a5d1a585b1a5e995960921b6064820152608401610438565b6000805460ff191660011790558015610549576000805461ff0019166101001790555b6105528661199d565b60408051808201909152610bb88152600060208083018290529080526004905261059f907f17ef568e3e12ab5b9c7254a8d58478811de00f9e6eb34345acd53bf8fd09d3ec906002611ee8565b50604080518082019091526202bf208152600060208083018290526001909152600490526105f0907fabd6e7cb50984ff9c2f3e18a2660c3353dadf4e3291deeb275dae2cd1e44fe05906002611f1c565b50604080518082019091526206978081526000602080830182905260029182905260049052610640917f91da3fd0782e51c6b3986e9e672fd566868e71f3dbc2d6c2cd6fbb3e361af2a791611f1c565b5068056bc75e2d63100000600555600680546001600160a01b038086166001600160a01b0319928316179092556007805485841690831617905560088054888416908316179055600980549287169290911691909117905580156106de576000805461ff0019169055604051600181527f7f26b83ff96e1f2b6a682f133852f6798a09c465da95921460cefb38474024989060200160405180910390a15b505050505050565b600081815260016020818152604080842081516101008101835281546001600160a01b03908116825294820154938101939093526002808201548516928401929092526003810154606084015260048101549093166080830152600583015460a0830152600683015491929160c084019160ff9091169081111561076c5761076c6120c2565b600281111561077d5761077d6120c2565b81526006919091015461010090046001600160a01b031660209091015260a08101519091506000036107c5576040516373a98b6360e11b815260048101839052602401610438565b80608001516001600160a01b0316336001600160a01b0316146107fb5760405163da383fb560e01b815260040160405180910390fd5b61081381600001513083608001518460200151611a32565b6000828152600160208190526040822080546001600160a01b031990811682559181018390556002808201805484169055600382018490556004820180549093169092556005810192909255600690910180546001600160a81b031916905561087c9083611b34565b506040518281527fc41f4ceb2938876c35e61b705e9d2f18a02c4a26ce5e049a6308a943d46851b39060200160405180910390a15050565b6108bc611f51565b60006108c9600284611b49565b60008181526001602081815260409283902083516101008101855281546001600160a01b03908116825293820154928101929092526002808201548416948301949094526003810154606083015260048101549092166080820152600582015460a0820152600682015493945092909160c084019160ff1690811115610951576109516120c2565b6002811115610962576109626120c2565b81526006919091015461010090046001600160a01b03166020909101529392505050565b600080610994878585610cd4565b600854604051631735856760e31b81529192506000916001600160a01b039091169063b9ac2b38906109ca908a90600401612019565b602060405180830381865afa1580156109e7573d6000803e3d6000fd5b505050506040513d601f19601f82011682018060405250810190610a0b919061237d565b90506000886001600160a01b031663313ce5676040518163ffffffff1660e01b8152600401602060405180830381865afa158015610a4d573d6000803e3d6000fd5b505050506040513d601f19601f82011682018060405250810190610a719190612396565b60ff1690506000886001600160a01b031663313ce5676040518163ffffffff1660e01b8152600401602060405180830381865afa158015610ab6573d6000803e3d6000fd5b505050506040513d601f19601f82011682018060405250810190610ada9190612396565b60ff1690506000610aec8360126123cf565b610af790600a6124c6565b610b01868b6124d2565b610b0b91906124d2565b9050610b188260126123cf565b610b2390600a6124c6565b610b2d90856124d2565b610b3790826124ff565b9b9a5050505050505050505050565b60606000610b546002611b55565b80519091506000816001600160401b03811115610b7357610b73612513565b604051908082528060200260200182016040528015610bac57816020015b610b99611f96565b815260200190600190039081610b915790505b50905060005b82811015610ccc576000848281518110610bce57610bce612529565b6020908102919091018101516040805160008381526001948590528290206101408201835280546001600160a01b0390811693830193845294810154606083015260028082015486166080840152600382015460a0840152600482015490951660c0830152600581015460e083015260068101549395509093849361010085019160ff90911690811115610c6457610c646120c2565b6002811115610c7557610c756120c2565b81526006919091015461010090046001600160a01b0316602091820152908252018290528351849084908110610cad57610cad612529565b6020026020010181905250508080610cc49061253f565b915050610bb2565b509392505050565b60008060046000846002811115610ced57610ced6120c2565b6002811115610cfe57610cfe6120c2565b8152602001908152602001600020600060028110610d1e57610d1e612529565b01549050600060046000856002811115610d3a57610d3a6120c2565b6002811115610d4b57610d4b6120c2565b81526020810191909152604001600020600101549050610d8d6040518060400160405280600a8152602001691d1a5b5954185cdcd95960b21b81525086611b62565b610db76040518060400160405280600881526020016731bab93b32a234bb60c11b81525083611b62565b610de16040518060400160405280600881526020016731bab93b32a9bab160c11b81525082611b62565b81851115610f1257604080518082018252600c81526b6f7261636c6520707269636560a01b60208201526008549151631735856760e31b8152610e82926001600160a01b03169063b9ac2b3890610e3c908b90600401612019565b602060405180830381865afa158015610e59573d6000803e3d6000fd5b505050506040513d601f19601f82011682018060405250810190610e7d919061237d565b611b62565b600854604051631735856760e31b8152600a916001600160a01b03169063b9ac2b3890610eb3908a90600401612019565b602060405180830381865afa158015610ed0573d6000803e3d6000fd5b505050506040513d601f19601f82011682018060405250810190610ef4919061237d565b610eff9060086124d2565b610f0991906124ff565b92505050611025565b600854604051631735856760e31b81528291849188916001600160a01b03169063b9ac2b3890610f46908c90600401612019565b602060405180830381865afa158015610f63573d6000803e3d6000fd5b505050506040513d601f19601f82011682018060405250810190610f87919061237d565b610f9191906124d2565b610f9b91906124ff565b600854604051631735856760e31b81526001600160a01b039091169063b9ac2b3890610fcb908b90600401612019565b602060405180830381865afa158015610fe8573d6000803e3d6000fd5b505050506040513d601f19601f8201168201806040525081019061100c919061237d565b61101691906123cf565b61102091906123cf565b925050505b9392505050565b60006110386002611bab565b905090565b600082815260016020526040812060058101548291908203611075576040516373a98b6360e11b815260048101869052602401610438565b600081600501544261108791906123cf565b9050603c81116111c8576009546040805163c4e4a93b60e01b815290516000926001600160a01b03169163c4e4a93b9160048083019260209291908290030181865afa1580156110db573d6000803e3d6000fd5b505050506040513d601f19601f820116820180604052508101906110ff919061237d565b60095460405162650fcd60e31b81529192506001600160a01b0316906303287e689061112f903390600401612019565b602060405180830381865afa15801561114c573d6000803e3d6000fd5b505050506040513d601f19601f82011682018060405250810190611170919061235b565b15611190573360405163a849de1760e01b81526004016104389190612019565b61119a8188612558565b6111a48233612558565b146111c6578633604051636d5e923560e01b8152600401610438929190612344565b505b60006111d3876117d8565b905060008187116111e457866111e6565b815b8454600686015491925060009161120b916001600160a01b031690869060ff16610cd4565b905060008560000160009054906101000a90046001600160a01b03166001600160a01b031663313ce5676040518163ffffffff1660e01b8152600401602060405180830381865afa158015611264573d6000803e3d6000fd5b505050506040513d601f19601f820116820180604052508101906112889190612396565b60ff16905060008660020160009054906101000a90046001600160a01b03166001600160a01b031663313ce5676040518163ffffffff1660e01b8152600401602060405180830381865afa1580156112e4573d6000803e3d6000fd5b505050506040513d601f19601f820116820180604052508101906113089190612396565b60ff1690506000838361131c8460126123cf565b611326919061256c565b61133190600a6124c6565b61133b90876124d2565b61134591906124ff565b90508488600301600082825461135b919061256c565b925050819055508088600101600082825461137691906123cf565b90915550506001880154158015906113d15750600554670de0b6b3a76400006113a08560126123cf565b6113ab90600a6124c6565b60018b01546113ba90886124d2565b6113c491906124d2565b6113ce91906124ff565b11155b156113ef5760405163117be23960e31b815260040160405180910390fd5b60028801546004890154611412916001600160a01b039081169133911688611a32565b8754611429906001600160a01b0316303384611a32565b876001015460000361154857600688015460038901546040516305077f2360e51b8152600481018f905260248101919091526101009091046001600160a01b03169063a0efe46090604401600060405180830381600087803b15801561148e57600080fd5b505af11580156114a2573d6000803e3d6000fd5b50505060008d8152600160208190526040822080546001600160a01b031990811682559181018390556002808201805484169055600382018490556004820180549093169092556005810192909255600690910180546001600160a81b031916905561150f91508d611b34565b506040518c81527fcdf98e0235c72ad7ae8de32249da25cc98298c8f11710c55a3d58e9e7ac69f949060200160405180910390a161157c565b6040518c81527fc238a2d1c485b17bfd980b5e6d0483704cd4720118eb06215758d49f85ea89639060200160405180910390a15b9b939a509298505050505050505050565b60408051436020808301919091526001600160601b031933606090811b82168486015289811b821660548501526068840189905287901b1660888301528251808303607c018152609c90920183528151918101919091206000818152600190925291902060050154156116085761160560018261256c565b90505b6000818152600160205260409020600501541561163b57604051634b92340560e01b815260048101829052602401610438565b61164786333088611a32565b6116548630600019611bb5565b604051806101000160405280876001600160a01b03168152602001868152602001856001600160a01b0316815260200160008152602001846001600160a01b031681526020014281526020018360028111156116b2576116b26120c2565b81523360209182015260008381526001808352604091829020845181546001600160a01b03199081166001600160a01b039283161783559486015182840155928501516002808301805487169286169290921790915560608601516003830155608086015160048301805490961694169390931790935560a0840151600584015560c08401516006840180549193909260ff199092169190849081111561175b5761175b6120c2565b021790555060e09190910151600690910180546001600160a01b0390921661010002610100600160a81b031990921691909117905561179b600282611cb5565b506040518181527f12a866cc569301d2ff9fcbbae3decc9e0cf3fa94ddef08dd0de3e9a693fb8d199060200160405180910390a195945050505050565b600081815260016020818152604080842081516101008101835281546001600160a01b03908116825294820154938101939093526002808201548516928401929092526003810154606084015260048101549093166080830152600583015460a0830152600683015484939160c084019160ff169081111561185c5761185c6120c2565b600281111561186d5761186d6120c2565b81526006919091015461010090046001600160a01b0316602091820152815160408301519183015160a0840151939450611025939192916118ae90426123cf565b8560c00151610986565b6118c0611f51565b60008281526001602081815260409283902083516101008101855281546001600160a01b03908116825293820154928101929092526002808201548416948301949094526003810154606083015260048101549092166080820152600582015460a08201526006820154909260c084019160ff1690811115611944576119446120c2565b6002811115611955576119556120c2565b81526006919091015461010090046001600160a01b031660209091015292915050565b6004602052816000526040600020816002811061199457600080fd5b01549150829050565b600054610100900460ff16611a085760405162461bcd60e51b815260206004820152602b60248201527f496e697469616c697a61626c653a20636f6e7472616374206973206e6f74206960448201526a6e697469616c697a696e6760a81b6064820152608401610438565b600080546001600160a01b03909216620100000262010000600160b01b0319909216919091179055565b604080516001600160a01b0385811660248301528481166044830152606480830185905283518084039091018152608490920183526020820180516001600160e01b03166323b872dd60e01b1790529151600092839290881691611a9691906125a3565b6000604051808303816000865af19150503d8060008114611ad3576040519150601f19603f3d011682016040523d82523d6000602084013e611ad8565b606091505b5091509150818015611b02575080511580611b02575080806020019051810190611b02919061235b565b6106de5760405162461bcd60e51b815260206004820152600360248201526229aa2360e91b6044820152606401610438565b6000611b408383611cc1565b90505b92915050565b6000611b408383611db4565b6060600061102583611dde565b611ba78282604051602401611b789291906125bf565b60408051601f198184030181529190526020810180516001600160e01b0316632d839cb360e21b179052611e3a565b5050565b6000611b43825490565b604080516001600160a01b038481166024830152604480830185905283518084039091018152606490920183526020820180516001600160e01b031663095ea7b360e01b1790529151600092839290871691611c1191906125a3565b6000604051808303816000865af19150503d8060008114611c4e576040519150601f19603f3d011682016040523d82523d6000602084013e611c53565b606091505b5091509150818015611c7d575080511580611c7d575080806020019051810190611c7d919061235b565b611cae5760405162461bcd60e51b8152602060048201526002602482015261534160f01b6044820152606401610438565b5050505050565b6000611b408383611e5b565b60008181526001830160205260408120548015611daa576000611ce56001836123cf565b8554909150600090611cf9906001906123cf565b9050818114611d5e576000866000018281548110611d1957611d19612529565b9060005260206000200154905080876000018481548110611d3c57611d3c612529565b6000918252602080832090910192909255918252600188019052604090208390555b8554869080611d6f57611d6f6125fa565b600190038181906000526020600020016000905590558560010160008681526020019081526020016000206000905560019350505050611b43565b6000915050611b43565b6000826000018281548110611dcb57611dcb612529565b9060005260206000200154905092915050565b606081600001805480602002602001604051908101604052809291908181526020018280548015611e2e57602002820191906000526020600020905b815481526020019060010190808311611e1a575b50505050509050919050565b80516a636f6e736f6c652e6c6f67602083016000808483855afa5050505050565b6000818152600183016020526040812054611ea257508154600181810184556000848152602080822090930184905584548482528286019093526040902091909155611b43565b506000611b43565b8260028101928215611ed8579160200282015b82811115611ed8578235825591602001919060010190611ebd565b50611ee4929150611fb6565b5090565b8260028101928215611ed8579160200282015b82811115611ed8578251829061ffff16905591602001919060010190611efb565b8260028101928215611ed8579160200282015b82811115611ed8578251829062ffffff16905591602001919060010190611f2f565b6040805161010081018252600080825260208201819052918101829052606081018290526080810182905260a081018290529060c08201908152600060209091015290565b6040518060400160405280611fa9611f51565b8152602001600081525090565b5b80821115611ee45760008155600101611fb7565b803560038110611fda57600080fd5b919050565b60008060608385031215611ff257600080fd5b611ffb83611fcb565b91508360608401111561200d57600080fd5b50926020919091019150565b6001600160a01b0391909116815260200190565b80356001600160a01b0381168114611fda57600080fd5b600080600080600060a0868803121561205c57600080fd5b6120658661202d565b94506120736020870161202d565b93506120816040870161202d565b925061208f6060870161202d565b915061209d6080870161202d565b90509295509295909350565b6000602082840312156120bb57600080fd5b5035919050565b634e487b7160e01b600052602160045260246000fd5b600381106120f657634e487b7160e01b600052602160045260246000fd5b9052565b60018060a01b03808251168352602082015160208401528060408301511660408401526060820151606084015280608083015116608084015260a082015160a084015260c082015161214f60c08501826120d8565b5060e09182015116910152565b6101008101611b4382846120fa565b600080600080600060a0868803121561218357600080fd5b61218c8661202d565b945061219a6020870161202d565b9350604086013592506060860135915061209d60808701611fcb565b6020808252825182820181905260009190848201906040850190845b818110156122035783516121e78482516120fa565b85015161010084015292840192610120909201916001016121d2565b50909695505050505050565b60008060006060848603121561222457600080fd5b61222d8461202d565b92506020840135915061224260408501611fcb565b90509250925092565b6001600160a01b03898116825260208201899052878116604083015260608201879052858116608083015260a0820185905261010082019061229060c08401866120d8565b80841660e0840152509998505050505050505050565b600080604083850312156122b957600080fd5b50508035926020909101359150565b600080600080600060a086880312156122e057600080fd5b6122e98661202d565b9450602086013593506122fe6040870161202d565b925061230c6060870161202d565b915061209d60808701611fcb565b6000806040838503121561232d57600080fd5b61233683611fcb565b946020939093013593505050565b9182526001600160a01b0316602082015260400190565b60006020828403121561236d57600080fd5b8151801515811461102557600080fd5b60006020828403121561238f57600080fd5b5051919050565b6000602082840312156123a857600080fd5b815160ff8116811461102557600080fd5b634e487b7160e01b600052601160045260246000fd5b81810381811115611b4357611b436123b9565b600181815b8085111561241d578160001904821115612403576124036123b9565b8085161561241057918102915b93841c93908002906123e7565b509250929050565b60008261243457506001611b43565b8161244157506000611b43565b816001811461245757600281146124615761247d565b6001915050611b43565b60ff841115612472576124726123b9565b50506001821b611b43565b5060208310610133831016604e8410600b84101617156124a0575081810a611b43565b6124aa83836123e2565b80600019048211156124be576124be6123b9565b029392505050565b6000611b408383612425565b8082028115828204841417611b4357611b436123b9565b634e487b7160e01b600052601260045260246000fd5b60008261250e5761250e6124e9565b500490565b634e487b7160e01b600052604160045260246000fd5b634e487b7160e01b600052603260045260246000fd5b600060018201612551576125516123b9565b5060010190565b600082612567576125676124e9565b500690565b80820180821115611b4357611b436123b9565b60005b8381101561259a578181015183820152602001612582565b50506000910152565b600082516125b581846020870161257f565b9190910192915050565b60408152600083518060408401526125de81606085016020880161257f565b602083019390935250601f91909101601f191601606001919050565b634e487b7160e01b600052603160045260246000fdfea2646970667358221220b4d38e74f61237452159a113bf7505933be3b516b000b2f11cbe20f7532b352964736f6c63430008110033",
  "devdoc": {
    "kind": "dev",
    "methods": {},
    "version": 1
  },
  "userdoc": {
    "kind": "user",
    "methods": {},
    "version": 1
  },
  "storageLayout": {
    "storage": [
      {
        "astId": 79,
        "contract": "contracts/liquidator/v2/contracts/Exchange.sol:Exchange",
        "label": "_initialized",
        "offset": 0,
        "slot": "0",
        "type": "t_uint8"
      },
      {
        "astId": 82,
        "contract": "contracts/liquidator/v2/contracts/Exchange.sol:Exchange",
        "label": "_initializing",
        "offset": 1,
        "slot": "0",
        "type": "t_bool"
      },
      {
        "astId": 1996,
        "contract": "contracts/liquidator/v2/contracts/Exchange.sol:Exchange",
        "label": "ACCESS_CONTROL_SINGLETON",
        "offset": 2,
        "slot": "0",
        "type": "t_contract(ISuAccessControl)2080"
      },
      {
        "astId": 2117,
        "contract": "contracts/liquidator/v2/contracts/Exchange.sol:Exchange",
        "label": "orders",
        "offset": 0,
        "slot": "1",
        "type": "t_mapping(t_uint256,t_struct(Order)2991_storage)"
      },
      {
        "astId": 2120,
        "contract": "contracts/liquidator/v2/contracts/Exchange.sol:Exchange",
        "label": "orderIdSet",
        "offset": 0,
        "slot": "2",
        "type": "t_struct(UintSet)1008_storage"
      },
      {
        "astId": 2127,
        "contract": "contracts/liquidator/v2/contracts/Exchange.sol:Exchange",
        "label": "priceCurve",
        "offset": 0,
        "slot": "4",
        "type": "t_mapping(t_enum(DiscountType)2973,t_array(t_uint256)2_storage)"
      },
      {
        "astId": 2129,
        "contract": "contracts/liquidator/v2/contracts/Exchange.sol:Exchange",
        "label": "DUST_THRESHHOLD",
        "offset": 0,
        "slot": "5",
        "type": "t_uint256"
      },
      {
        "astId": 2132,
        "contract": "contracts/liquidator/v2/contracts/Exchange.sol:Exchange",
        "label": "SWAP_ROUTER",
        "offset": 0,
        "slot": "6",
        "type": "t_contract(ISwapRouter)1797"
      },
      {
        "astId": 2134,
        "contract": "contracts/liquidator/v2/contracts/Exchange.sol:Exchange",
        "label": "UNISWAP_FACTORY",
        "offset": 0,
        "slot": "7",
        "type": "t_address"
      },
      {
        "astId": 2137,
        "contract": "contracts/liquidator/v2/contracts/Exchange.sol:Exchange",
        "label": "ORACLE",
        "offset": 0,
        "slot": "8",
        "type": "t_contract(ISuOracle)2091"
      },
      {
        "astId": 2140,
        "contract": "contracts/liquidator/v2/contracts/Exchange.sol:Exchange",
        "label": "TOP_STAKERS",
        "offset": 0,
        "slot": "9",
        "type": "t_contract(ITopStakers)3162"
      },
      {
        "astId": 2966,
        "contract": "contracts/liquidator/v2/contracts/Exchange.sol:Exchange",
        "label": "__gap",
        "offset": 0,
        "slot": "10",
        "type": "t_array(t_uint256)45_storage"
      }
    ],
    "types": {
      "t_address": {
        "encoding": "inplace",
        "label": "address",
        "numberOfBytes": "20"
      },
      "t_array(t_bytes32)dyn_storage": {
        "base": "t_bytes32",
        "encoding": "dynamic_array",
        "label": "bytes32[]",
        "numberOfBytes": "32"
      },
      "t_array(t_uint256)2_storage": {
        "base": "t_uint256",
        "encoding": "inplace",
        "label": "uint256[2]",
        "numberOfBytes": "64"
      },
      "t_array(t_uint256)45_storage": {
        "base": "t_uint256",
        "encoding": "inplace",
        "label": "uint256[45]",
        "numberOfBytes": "1440"
      },
      "t_bool": {
        "encoding": "inplace",
        "label": "bool",
        "numberOfBytes": "1"
      },
      "t_bytes32": {
        "encoding": "inplace",
        "label": "bytes32",
        "numberOfBytes": "32"
      },
      "t_contract(ISuAccessControl)2080": {
        "encoding": "inplace",
        "label": "contract ISuAccessControl",
        "numberOfBytes": "20"
      },
      "t_contract(ISuOracle)2091": {
        "encoding": "inplace",
        "label": "contract ISuOracle",
        "numberOfBytes": "20"
      },
      "t_contract(ISwapRouter)1797": {
        "encoding": "inplace",
        "label": "contract ISwapRouter",
        "numberOfBytes": "20"
      },
      "t_contract(ITopStakers)3162": {
        "encoding": "inplace",
        "label": "contract ITopStakers",
        "numberOfBytes": "20"
      },
      "t_enum(DiscountType)2973": {
        "encoding": "inplace",
        "label": "enum DiscountType",
        "numberOfBytes": "1"
      },
      "t_mapping(t_bytes32,t_uint256)": {
        "encoding": "mapping",
        "key": "t_bytes32",
        "label": "mapping(bytes32 => uint256)",
        "numberOfBytes": "32",
        "value": "t_uint256"
      },
      "t_mapping(t_enum(DiscountType)2973,t_array(t_uint256)2_storage)": {
        "encoding": "mapping",
        "key": "t_enum(DiscountType)2973",
        "label": "mapping(enum DiscountType => uint256[2])",
        "numberOfBytes": "32",
        "value": "t_array(t_uint256)2_storage"
      },
      "t_mapping(t_uint256,t_struct(Order)2991_storage)": {
        "encoding": "mapping",
        "key": "t_uint256",
        "label": "mapping(uint256 => struct Order)",
        "numberOfBytes": "32",
        "value": "t_struct(Order)2991_storage"
      },
      "t_struct(Order)2991_storage": {
        "encoding": "inplace",
        "label": "struct Order",
        "members": [
          {
            "astId": 2975,
            "contract": "contracts/liquidator/v2/contracts/Exchange.sol:Exchange",
            "label": "token2sell",
            "offset": 0,
            "slot": "0",
            "type": "t_address"
          },
          {
            "astId": 2977,
            "contract": "contracts/liquidator/v2/contracts/Exchange.sol:Exchange",
            "label": "amountLeft",
            "offset": 0,
            "slot": "1",
            "type": "t_uint256"
          },
          {
            "astId": 2979,
            "contract": "contracts/liquidator/v2/contracts/Exchange.sol:Exchange",
            "label": "token2buy",
            "offset": 0,
            "slot": "2",
            "type": "t_address"
          },
          {
            "astId": 2981,
            "contract": "contracts/liquidator/v2/contracts/Exchange.sol:Exchange",
            "label": "token2buyAmount",
            "offset": 0,
            "slot": "3",
            "type": "t_uint256"
          },
          {
            "astId": 2983,
            "contract": "contracts/liquidator/v2/contracts/Exchange.sol:Exchange",
            "label": "beneficiary",
            "offset": 0,
            "slot": "4",
            "type": "t_address"
          },
          {
            "astId": 2985,
            "contract": "contracts/liquidator/v2/contracts/Exchange.sol:Exchange",
            "label": "creationTimestamp",
            "offset": 0,
            "slot": "5",
            "type": "t_uint256"
          },
          {
            "astId": 2988,
            "contract": "contracts/liquidator/v2/contracts/Exchange.sol:Exchange",
            "label": "discountType",
            "offset": 0,
            "slot": "6",
            "type": "t_enum(DiscountType)2973"
          },
          {
            "astId": 2990,
            "contract": "contracts/liquidator/v2/contracts/Exchange.sol:Exchange",
            "label": "caller",
            "offset": 1,
            "slot": "6",
            "type": "t_address"
          }
        ],
        "numberOfBytes": "224"
      },
      "t_struct(Set)536_storage": {
        "encoding": "inplace",
        "label": "struct EnumerableSetUpgradeable.Set",
        "members": [
          {
            "astId": 531,
            "contract": "contracts/liquidator/v2/contracts/Exchange.sol:Exchange",
            "label": "_values",
            "offset": 0,
            "slot": "0",
            "type": "t_array(t_bytes32)dyn_storage"
          },
          {
            "astId": 535,
            "contract": "contracts/liquidator/v2/contracts/Exchange.sol:Exchange",
            "label": "_indexes",
            "offset": 0,
            "slot": "1",
            "type": "t_mapping(t_bytes32,t_uint256)"
          }
        ],
        "numberOfBytes": "64"
      },
      "t_struct(UintSet)1008_storage": {
        "encoding": "inplace",
        "label": "struct EnumerableSetUpgradeable.UintSet",
        "members": [
          {
            "astId": 1007,
            "contract": "contracts/liquidator/v2/contracts/Exchange.sol:Exchange",
            "label": "_inner",
            "offset": 0,
            "slot": "0",
            "type": "t_struct(Set)536_storage"
          }
        ],
        "numberOfBytes": "64"
      },
      "t_uint256": {
        "encoding": "inplace",
        "label": "uint256",
        "numberOfBytes": "32"
      },
      "t_uint8": {
        "encoding": "inplace",
        "label": "uint8",
        "numberOfBytes": "1"
      }
    }
  }
}