{
  "address": "0x10dA8229A68e12A224feB4f565aD22D4f0bF3FD8",
  "abi": [
    {
      "inputs": [
        {
          "internalType": "address",
          "name": "orderToken2buy",
          "type": "address"
        },
        {
          "internalType": "address",
          "name": "inToken",
          "type": "address"
        }
      ],
      "name": "IncorrectToken",
      "type": "error"
    },
    {
      "inputs": [
        {
          "internalType": "address",
          "name": "staker",
          "type": "address"
        }
      ],
      "name": "IsNotTopStaker",
      "type": "error"
    },
    {
      "inputs": [
        {
          "internalType": "uint256",
          "name": "orderId",
          "type": "uint256"
        }
      ],
      "name": "OrderExist",
      "type": "error"
    },
    {
      "inputs": [
        {
          "internalType": "uint256",
          "name": "orderId",
          "type": "uint256"
        }
      ],
      "name": "OrderNotExist",
      "type": "error"
    },
    {
      "inputs": [
        {
          "internalType": "uint256",
          "name": "orderId",
          "type": "uint256"
        },
        {
          "internalType": "address",
          "name": "staker",
          "type": "address"
        }
      ],
      "name": "OrderNotForThisStaker",
      "type": "error"
    },
    {
      "inputs": [],
      "name": "SmallAmountLeft",
      "type": "error"
    },
    {
      "inputs": [],
      "name": "UserIsNotBeneficiary",
      "type": "error"
    },
    {
      "anonymous": false,
      "inputs": [
        {
          "indexed": false,
          "internalType": "uint8",
          "name": "version",
          "type": "uint8"
        }
      ],
      "name": "Initialized",
      "type": "event"
    },
    {
      "anonymous": false,
      "inputs": [
        {
          "indexed": false,
          "internalType": "uint256",
          "name": "orderId",
          "type": "uint256"
        }
      ],
      "name": "OrderAdded",
      "type": "event"
    },
    {
      "anonymous": false,
      "inputs": [
        {
          "indexed": false,
          "internalType": "uint256",
          "name": "orderId",
          "type": "uint256"
        }
      ],
      "name": "OrderCanceled",
      "type": "event"
    },
    {
      "anonymous": false,
      "inputs": [
        {
          "indexed": false,
          "internalType": "uint256",
          "name": "orderId",
          "type": "uint256"
        }
      ],
      "name": "OrderFilled",
      "type": "event"
    },
    {
      "anonymous": false,
      "inputs": [
        {
          "indexed": false,
          "internalType": "uint256",
          "name": "orderId",
          "type": "uint256"
        }
      ],
      "name": "OrderFilledPartially",
      "type": "event"
    },
    {
      "inputs": [],
      "name": "ACCESS_CONTROL_SINGLETON",
      "outputs": [
        {
          "internalType": "contract ISuAccessControl",
          "name": "",
          "type": "address"
        }
      ],
      "stateMutability": "view",
      "type": "function"
    },
    {
      "inputs": [],
      "name": "DUST_THRESHHOLD",
      "outputs": [
        {
          "internalType": "uint256",
          "name": "",
          "type": "uint256"
        }
      ],
      "stateMutability": "view",
      "type": "function"
    },
    {
      "inputs": [],
      "name": "LIQUIDATION_ACCESS_ROLE",
      "outputs": [
        {
          "internalType": "bytes32",
          "name": "",
          "type": "bytes32"
        }
      ],
      "stateMutability": "view",
      "type": "function"
    },
    {
      "inputs": [],
      "name": "MINTER_ROLE",
      "outputs": [
        {
          "internalType": "bytes32",
          "name": "",
          "type": "bytes32"
        }
      ],
      "stateMutability": "view",
      "type": "function"
    },
    {
      "inputs": [],
      "name": "ORACLE",
      "outputs": [
        {
          "internalType": "contract ISuOracle",
          "name": "",
          "type": "address"
        }
      ],
      "stateMutability": "view",
      "type": "function"
    },
    {
      "inputs": [],
      "name": "TOP_STAKERS",
      "outputs": [
        {
          "internalType": "contract ITopStakers",
          "name": "",
          "type": "address"
        }
      ],
      "stateMutability": "view",
      "type": "function"
    },
    {
      "inputs": [],
      "name": "VAULT_ACCESS_ROLE",
      "outputs": [
        {
          "internalType": "bytes32",
          "name": "",
          "type": "bytes32"
        }
      ],
      "stateMutability": "view",
      "type": "function"
    },
    {
      "inputs": [
        {
          "internalType": "address",
          "name": "token2sell",
          "type": "address"
        },
        {
          "internalType": "uint256",
          "name": "amount2sell",
          "type": "uint256"
        },
        {
          "internalType": "address",
          "name": "token2buy",
          "type": "address"
        },
        {
          "internalType": "address",
          "name": "beneficiary",
          "type": "address"
        },
        {
          "internalType": "enum DiscountType",
          "name": "discountType",
          "type": "uint8"
        }
      ],
      "name": "addOrder",
      "outputs": [
        {
          "internalType": "uint256",
          "name": "orderId",
          "type": "uint256"
        }
      ],
      "stateMutability": "nonpayable",
      "type": "function"
    },
    {
      "inputs": [
        {
          "internalType": "uint256",
          "name": "orderId",
          "type": "uint256"
        }
      ],
      "name": "cancelOrder",
      "outputs": [],
      "stateMutability": "nonpayable",
      "type": "function"
    },
    {
      "inputs": [
        {
          "internalType": "uint256",
          "name": "orderId",
          "type": "uint256"
        },
        {
          "internalType": "uint256",
          "name": "tokenBAmount",
          "type": "uint256"
        }
      ],
      "name": "fillOrder",
      "outputs": [
        {
          "internalType": "uint256",
          "name": "",
          "type": "uint256"
        },
        {
          "internalType": "uint256",
          "name": "",
          "type": "uint256"
        }
      ],
      "stateMutability": "nonpayable",
      "type": "function"
    },
    {
      "inputs": [],
      "name": "getAllOrders",
      "outputs": [
        {
          "components": [
            {
              "components": [
                {
                  "internalType": "address",
                  "name": "token2sell",
                  "type": "address"
                },
                {
                  "internalType": "uint256",
                  "name": "amountLeft",
                  "type": "uint256"
                },
                {
                  "internalType": "address",
                  "name": "token2buy",
                  "type": "address"
                },
                {
                  "internalType": "uint256",
                  "name": "token2buyAmount",
                  "type": "uint256"
                },
                {
                  "internalType": "address",
                  "name": "beneficiary",
                  "type": "address"
                },
                {
                  "internalType": "uint256",
                  "name": "creationTimestamp",
                  "type": "uint256"
                },
                {
                  "internalType": "enum DiscountType",
                  "name": "discountType",
                  "type": "uint8"
                },
                {
                  "internalType": "address",
                  "name": "caller",
                  "type": "address"
                }
              ],
              "internalType": "struct Order",
              "name": "order",
              "type": "tuple"
            },
            {
              "internalType": "uint256",
              "name": "orderId",
              "type": "uint256"
            }
          ],
          "internalType": "struct OrderWithId[]",
          "name": "",
          "type": "tuple[]"
        }
      ],
      "stateMutability": "view",
      "type": "function"
    },
    {
      "inputs": [
        {
          "internalType": "uint256",
          "name": "orderId",
          "type": "uint256"
        }
      ],
      "name": "getOrder",
      "outputs": [
        {
          "components": [
            {
              "internalType": "address",
              "name": "token2sell",
              "type": "address"
            },
            {
              "internalType": "uint256",
              "name": "amountLeft",
              "type": "uint256"
            },
            {
              "internalType": "address",
              "name": "token2buy",
              "type": "address"
            },
            {
              "internalType": "uint256",
              "name": "token2buyAmount",
              "type": "uint256"
            },
            {
              "internalType": "address",
              "name": "beneficiary",
              "type": "address"
            },
            {
              "internalType": "uint256",
              "name": "creationTimestamp",
              "type": "uint256"
            },
            {
              "internalType": "enum DiscountType",
              "name": "discountType",
              "type": "uint8"
            },
            {
              "internalType": "address",
              "name": "caller",
              "type": "address"
            }
          ],
          "internalType": "struct Order",
          "name": "",
          "type": "tuple"
        }
      ],
      "stateMutability": "view",
      "type": "function"
    },
    {
      "inputs": [
        {
          "internalType": "uint256",
          "name": "index",
          "type": "uint256"
        }
      ],
      "name": "getOrderAt",
      "outputs": [
        {
          "components": [
            {
              "internalType": "address",
              "name": "token2sell",
              "type": "address"
            },
            {
              "internalType": "uint256",
              "name": "amountLeft",
              "type": "uint256"
            },
            {
              "internalType": "address",
              "name": "token2buy",
              "type": "address"
            },
            {
              "internalType": "uint256",
              "name": "token2buyAmount",
              "type": "uint256"
            },
            {
              "internalType": "address",
              "name": "beneficiary",
              "type": "address"
            },
            {
              "internalType": "uint256",
              "name": "creationTimestamp",
              "type": "uint256"
            },
            {
              "internalType": "enum DiscountType",
              "name": "discountType",
              "type": "uint8"
            },
            {
              "internalType": "address",
              "name": "caller",
              "type": "address"
            }
          ],
          "internalType": "struct Order",
          "name": "",
          "type": "tuple"
        }
      ],
      "stateMutability": "view",
      "type": "function"
    },
    {
      "inputs": [
        {
          "internalType": "uint256",
          "name": "orderId",
          "type": "uint256"
        }
      ],
      "name": "getOrderOutAmountEDecimals",
      "outputs": [
        {
          "internalType": "uint256",
          "name": "",
          "type": "uint256"
        }
      ],
      "stateMutability": "view",
      "type": "function"
    },
    {
      "inputs": [],
      "name": "getOrdersCount",
      "outputs": [
        {
          "internalType": "uint256",
          "name": "",
          "type": "uint256"
        }
      ],
      "stateMutability": "view",
      "type": "function"
    },
    {
      "inputs": [
        {
          "internalType": "address",
          "name": "_authControl",
          "type": "address"
        },
        {
          "internalType": "address",
          "name": "_oracleAddress",
          "type": "address"
        },
        {
          "internalType": "address",
          "name": "_topStakersAddress",
          "type": "address"
        },
        {
          "internalType": "address",
          "name": "_swapRouter",
          "type": "address"
        },
        {
          "internalType": "address",
          "name": "_uniswapFactory",
          "type": "address"
        }
      ],
      "name": "initialize",
      "outputs": [],
      "stateMutability": "nonpayable",
      "type": "function"
    },
    {
      "inputs": [
        {
          "internalType": "uint256",
          "name": "",
          "type": "uint256"
        }
      ],
      "name": "orders",
      "outputs": [
        {
          "internalType": "address",
          "name": "token2sell",
          "type": "address"
        },
        {
          "internalType": "uint256",
          "name": "amountLeft",
          "type": "uint256"
        },
        {
          "internalType": "address",
          "name": "token2buy",
          "type": "address"
        },
        {
          "internalType": "uint256",
          "name": "token2buyAmount",
          "type": "uint256"
        },
        {
          "internalType": "address",
          "name": "beneficiary",
          "type": "address"
        },
        {
          "internalType": "uint256",
          "name": "creationTimestamp",
          "type": "uint256"
        },
        {
          "internalType": "enum DiscountType",
          "name": "discountType",
          "type": "uint8"
        },
        {
          "internalType": "address",
          "name": "caller",
          "type": "address"
        }
      ],
      "stateMutability": "view",
      "type": "function"
    },
    {
      "inputs": [
        {
          "internalType": "enum DiscountType",
          "name": "",
          "type": "uint8"
        },
        {
          "internalType": "uint256",
          "name": "",
          "type": "uint256"
        }
      ],
      "name": "priceCurve",
      "outputs": [
        {
          "internalType": "uint256",
          "name": "",
          "type": "uint256"
        }
      ],
      "stateMutability": "view",
      "type": "function"
    },
    {
      "inputs": [
        {
          "internalType": "enum DiscountType",
          "name": "discountType",
          "type": "uint8"
        },
        {
          "internalType": "uint256[2]",
          "name": "newPriceCurve",
          "type": "uint256[2]"
        }
      ],
      "name": "setPriceCurve",
      "outputs": [],
      "stateMutability": "nonpayable",
      "type": "function"
    }
  ],
  "numDeployments": 6,
  "solcInputHash": "99b8c320975fb4b5ae87d369ffe8a832",
  "bytecode": "0x608060405234801561001057600080fd5b50612190806100206000396000f3fe608060405234801561001057600080fd5b50600436106100f15760003560e01c806303eaa21a146100f657806303ee9f221461010b5780631459457a1461013a57806314c376dc1461014d57806338013f0214610182578063514fcac71461019557806373a423d0146101a85780637bea0d1c146101c8578063a85c38ef146101dd578063b5b3b05114610256578063ba07fc591461025e578063c37dfc5b14610271578063c3f2b67d14610299578063d0616f92146102ac578063d09ef241146102bf578063d5391393146102d2578063d7c8ae89146102f9578063dc97e84e1461030c578063f711bff814610333575b600080fd5b610109610104366004611bfc565b61033c565b005b600054610124906201000090046001600160a01b031681565b6040516101319190611c36565b60405180910390f35b610109610148366004611c61565b61044d565b6101747fe965846df3dd5b1dfa65f58e31477079e90140e0908b6dd31b5aead5a57cf36581565b604051908152602001610131565b600854610124906001600160a01b031681565b6101096101a3366004611cc6565b6106aa565b6101bb6101b6366004611cc6565b610878565b6040516101319190611d79565b6101d061094a565b6040516101319190611d88565b6102426101eb366004611cc6565b600160208190526000918252604090912080549181015460028201546003830154600484015460058501546006909501546001600160a01b039687169694959385169492939183169260ff82169161010090041688565b604051610131989796959493929190611de1565b610174610ad8565b600954610124906001600160a01b031681565b61028461027f366004611e3c565b610ae9565b60408051928352602083019190915201610131565b6101746102a7366004611e5e565b611039565b6101746102ba366004611cc6565b611275565b6101bb6102cd366004611cc6565b61135c565b6101747f9f2df0fed2c77648de5860a4cc508cd0818c85b8b8a1ab4ceeef8d981c8956a681565b610174610307366004611eb0565b61141c565b6101747f9a9aef7c1247d5fc769b0185c052913e39673da29a880317dfd20ebf86f26a4981565b61017460055481565b60008054604051632474521560e21b8152620100009091046001600160a01b0316916391d148549161037391903390600401611eda565b602060405180830381865afa158015610390573d6000803e3d6000fd5b505050506040513d601f19601f820116820180604052508101906103b49190611ef1565b6104055760405162461bcd60e51b815260206004820152601d60248201527f5375417574683a206f6e6c794f776e657220415554485f4641494c454400000060448201526064015b60405180910390fd5b806004600084600281111561041c5761041c611cdf565b600281111561042d5761042d611cdf565b81526020810191909152604001600020610448916002611ac7565b505050565b600054610100900460ff161580801561046d5750600054600160ff909116105b806104875750303b158015610487575060005460ff166001145b6104ea5760405162461bcd60e51b815260206004820152602e60248201527f496e697469616c697a61626c653a20636f6e747261637420697320616c72656160448201526d191e481a5b9a5d1a585b1a5e995960921b60648201526084016103fc565b6000805460ff19166001179055801561050d576000805461ff0019166101001790555b61051686611441565b60408051808201909152610bb881526000602080830182905290805260049052610563907f17ef568e3e12ab5b9c7254a8d58478811de00f9e6eb34345acd53bf8fd09d3ec906002611b05565b50604080518082019091526202bf208152600060208083018290526001909152600490526105b4907fabd6e7cb50984ff9c2f3e18a2660c3353dadf4e3291deeb275dae2cd1e44fe05906002611b39565b50604080518082019091526206978081526000602080830182905260029182905260049052610604917f91da3fd0782e51c6b3986e9e672fd566868e71f3dbc2d6c2cd6fbb3e361af2a791611b39565b5068056bc75e2d63100000600555600680546001600160a01b038086166001600160a01b0319928316179092556007805485841690831617905560088054888416908316179055600980549287169290911691909117905580156106a2576000805461ff0019169055604051600181527f7f26b83ff96e1f2b6a682f133852f6798a09c465da95921460cefb38474024989060200160405180910390a15b505050505050565b600081815260016020818152604080842081516101008101835281546001600160a01b03908116825294820154938101939093526002808201548516928401929092526003810154606084015260048101549093166080830152600583015460a0830152600683015491929160c084019160ff9091169081111561073057610730611cdf565b600281111561074157610741611cdf565b81526006919091015461010090046001600160a01b031660209091015260a0810151909150600003610789576040516373a98b6360e11b8152600481018390526024016103fc565b80608001516001600160a01b0316336001600160a01b0316146107bf5760405163da383fb560e01b815260040160405180910390fd5b6107d7816000015130836080015184602001516114d6565b6000828152600160208190526040822080546001600160a01b031990811682559181018390556002808201805484169055600382018490556004820180549093169092556005810192909255600690910180546001600160a81b031916905561084090836115d8565b506040518281527fc41f4ceb2938876c35e61b705e9d2f18a02c4a26ce5e049a6308a943d46851b39060200160405180910390a15050565b610880611b6e565b600061088d6002846115ed565b60008181526001602081815260409283902083516101008101855281546001600160a01b03908116825293820154928101929092526002808201548416948301949094526003810154606083015260048101549092166080820152600582015460a0820152600682015493945092909160c084019160ff169081111561091557610915611cdf565b600281111561092657610926611cdf565b81526006919091015461010090046001600160a01b03166020909101529392505050565b6060600061095860026115f9565b80519091506000816001600160401b0381111561097757610977611f13565b6040519080825280602002602001820160405280156109b057816020015b61099d611bb3565b8152602001906001900390816109955790505b50905060005b82811015610ad05760008482815181106109d2576109d2611f29565b6020908102919091018101516040805160008381526001948590528290206101408201835280546001600160a01b0390811693830193845294810154606083015260028082015486166080840152600382015460a0840152600482015490951660c0830152600581015460e083015260068101549395509093849361010085019160ff90911690811115610a6857610a68611cdf565b6002811115610a7957610a79611cdf565b81526006919091015461010090046001600160a01b0316602091820152908252018290528351849084908110610ab157610ab1611f29565b6020026020010181905250508080610ac890611f55565b9150506109b6565b509392505050565b6000610ae46002611606565b905090565b600082815260016020526040812060058101548291908203610b21576040516373a98b6360e11b8152600481018690526024016103fc565b6000816005015442610b339190611f6e565b9050603c8111610c74576009546040805163c4e4a93b60e01b815290516000926001600160a01b03169163c4e4a93b9160048083019260209291908290030181865afa158015610b87573d6000803e3d6000fd5b505050506040513d601f19601f82011682018060405250810190610bab9190611f81565b60095460405162650fcd60e31b81529192506001600160a01b0316906303287e6890610bdb903390600401611c36565b602060405180830381865afa158015610bf8573d6000803e3d6000fd5b505050506040513d601f19601f82011682018060405250810190610c1c9190611ef1565b15610c3c573360405163a849de1760e01b81526004016103fc9190611c36565b610c468188611fb0565b610c508233611fb0565b14610c72578633604051636d5e923560e01b81526004016103fc929190611eda565b505b6000610c7f87611275565b90506000818711610c905786610c92565b815b84546006860154919250600091610cb7916001600160a01b031690869060ff16611610565b905060008560000160009054906101000a90046001600160a01b03166001600160a01b031663313ce5676040518163ffffffff1660e01b8152600401602060405180830381865afa158015610d10573d6000803e3d6000fd5b505050506040513d601f19601f82011682018060405250810190610d349190611fc4565b60ff16905060008660020160009054906101000a90046001600160a01b03166001600160a01b031663313ce5676040518163ffffffff1660e01b8152600401602060405180830381865afa158015610d90573d6000803e3d6000fd5b505050506040513d601f19601f82011682018060405250810190610db49190611fc4565b60ff16905060008383610dc8846012611f6e565b610dd29190611fe7565b610ddd90600a6120de565b610de790876120ea565b610df19190612101565b905084886003016000828254610e079190611fe7565b9250508190555080886001016000828254610e229190611f6e565b9091555050600188015415801590610e7d5750600554670de0b6b3a7640000610e4c856012611f6e565b610e5790600a6120de565b60018b0154610e6690886120ea565b610e7091906120ea565b610e7a9190612101565b11155b15610e9b5760405163117be23960e31b815260040160405180910390fd5b60028801546004890154610ebe916001600160a01b0390811691339116886114d6565b8754610ed5906001600160a01b03163033846114d6565b8760010154600003610ff457600688015460038901546040516305077f2360e51b8152600481018f905260248101919091526101009091046001600160a01b03169063a0efe46090604401600060405180830381600087803b158015610f3a57600080fd5b505af1158015610f4e573d6000803e3d6000fd5b50505060008d8152600160208190526040822080546001600160a01b031990811682559181018390556002808201805484169055600382018490556004820180549093169092556005810192909255600690910180546001600160a81b0319169055610fbb91508d6115d8565b506040518c81527fcdf98e0235c72ad7ae8de32249da25cc98298c8f11710c55a3d58e9e7ac69f949060200160405180910390a1611028565b6040518c81527fc238a2d1c485b17bfd980b5e6d0483704cd4720118eb06215758d49f85ea89639060200160405180910390a15b9b939a509298505050505050505050565b604080514360208201526001600160601b031933606090811b8216938301939093529187901b90911660548201526068810185905260009060880160408051601f19818403018152918152815160209283012060008181526001909352912060050154909150156110b2576110af600182611fe7565b90505b600081815260016020526040902060050154156110e557604051634b92340560e01b8152600481018290526024016103fc565b6110f1863330886114d6565b604051806101000160405280876001600160a01b03168152602001868152602001856001600160a01b0316815260200160008152602001846001600160a01b0316815260200143815260200183600281111561114f5761114f611cdf565b81523360209182015260008381526001808352604091829020845181546001600160a01b03199081166001600160a01b039283161783559486015182840155928501516002808301805487169286169290921790915560608601516003830155608086015160048301805490961694169390931790935560a0840151600584015560c08401516006840180549193909260ff19909216919084908111156111f8576111f8611cdf565b021790555060e09190910151600690910180546001600160a01b0390921661010002610100600160a81b0319909216919091179055611238600282611733565b506040518181527f12a866cc569301d2ff9fcbbae3decc9e0cf3fa94ddef08dd0de3e9a693fb8d199060200160405180910390a195945050505050565b600081815260016020818152604080842081516101008101835281546001600160a01b03908116825294820154938101939093526002808201548516928401929092526003810154606084015260048101549093166080830152600583015460a0830152600683015484939160c084019160ff16908111156112f9576112f9611cdf565b600281111561130a5761130a611cdf565b81526006919091015461010090046001600160a01b0316602091820152815160408301519183015160a08401519394506113559391929161134b9042611f6e565b8560c0015161173f565b9392505050565b611364611b6e565b60008281526001602081815260409283902083516101008101855281546001600160a01b03908116825293820154928101929092526002808201548416948301949094526003810154606083015260048101549092166080820152600582015460a08201526006820154909260c084019160ff16908111156113e8576113e8611cdf565b60028111156113f9576113f9611cdf565b81526006919091015461010090046001600160a01b031660209091015292915050565b6004602052816000526040600020816002811061143857600080fd5b01549150829050565b600054610100900460ff166114ac5760405162461bcd60e51b815260206004820152602b60248201527f496e697469616c697a61626c653a20636f6e7472616374206973206e6f74206960448201526a6e697469616c697a696e6760a81b60648201526084016103fc565b600080546001600160a01b03909216620100000262010000600160b01b0319909216919091179055565b604080516001600160a01b0385811660248301528481166044830152606480830185905283518084039091018152608490920183526020820180516001600160e01b03166323b872dd60e01b179052915160009283929088169161153a9190612115565b6000604051808303816000865af19150503d8060008114611577576040519150601f19603f3d011682016040523d82523d6000602084013e61157c565b606091505b50915091508180156115a65750805115806115a65750808060200190518101906115a69190611ef1565b6106a25760405162461bcd60e51b815260206004820152600360248201526229aa2360e91b60448201526064016103fc565b60006115e483836118ff565b90505b92915050565b60006115e483836119f2565b6060600061135583611a1c565b60006115e7825490565b6000806004600084600281111561162957611629611cdf565b600281111561163a5761163a611cdf565b8152602081019190915260409081016000208151808301928390529160029082845b81548152602001906001019080831161165c57505050505090508060016002811061168957611689611f29565b6020020151815161169a9086612101565b6116a5906001611f6e565b600854604051631735856760e31b81526001600160a01b039091169063b9ac2b38906116d5908a90600401611c36565b602060405180830381865afa1580156116f2573d6000803e3d6000fd5b505050506040513d601f19601f820116820180604052508101906117169190611f81565b61172091906120ea565b61172a9190611f6e565b95945050505050565b60006115e48383611a78565b60008061174d878585611610565b600854604051631735856760e31b81529192506000916001600160a01b039091169063b9ac2b3890611783908a90600401611c36565b602060405180830381865afa1580156117a0573d6000803e3d6000fd5b505050506040513d601f19601f820116820180604052508101906117c49190611f81565b90506000886001600160a01b031663313ce5676040518163ffffffff1660e01b8152600401602060405180830381865afa158015611806573d6000803e3d6000fd5b505050506040513d601f19601f8201168201806040525081019061182a9190611fc4565b60ff1690506000886001600160a01b031663313ce5676040518163ffffffff1660e01b8152600401602060405180830381865afa15801561186f573d6000803e3d6000fd5b505050506040513d601f19601f820116820180604052508101906118939190611fc4565b60ff16905060006118a5836012611f6e565b6118b090600a6120de565b6118ba868b6120ea565b6118c491906120ea565b90506118d1826012611f6e565b6118dc90600a6120de565b6118e690856120ea565b6118f09082612101565b9b9a5050505050505050505050565b600081815260018301602052604081205480156119e8576000611923600183611f6e565b855490915060009061193790600190611f6e565b905081811461199c57600086600001828154811061195757611957611f29565b906000526020600020015490508087600001848154811061197a5761197a611f29565b6000918252602080832090910192909255918252600188019052604090208390555b85548690806119ad576119ad612144565b6001900381819060005260206000200160009055905585600101600086815260200190815260200160002060009055600193505050506115e7565b60009150506115e7565b6000826000018281548110611a0957611a09611f29565b9060005260206000200154905092915050565b606081600001805480602002602001604051908101604052809291908181526020018280548015611a6c57602002820191906000526020600020905b815481526020019060010190808311611a58575b50505050509050919050565b6000818152600183016020526040812054611abf575081546001818101845560008481526020808220909301849055845484825282860190935260409020919091556115e7565b5060006115e7565b8260028101928215611af5579160200282015b82811115611af5578235825591602001919060010190611ada565b50611b01929150611bd3565b5090565b8260028101928215611af5579160200282015b82811115611af5578251829061ffff16905591602001919060010190611b18565b8260028101928215611af5579160200282015b82811115611af5578251829062ffffff16905591602001919060010190611b4c565b6040805161010081018252600080825260208201819052918101829052606081018290526080810182905260a081018290529060c08201908152600060209091015290565b6040518060400160405280611bc6611b6e565b8152602001600081525090565b5b80821115611b015760008155600101611bd4565b803560038110611bf757600080fd5b919050565b60008060608385031215611c0f57600080fd5b611c1883611be8565b915083606084011115611c2a57600080fd5b50926020919091019150565b6001600160a01b0391909116815260200190565b80356001600160a01b0381168114611bf757600080fd5b600080600080600060a08688031215611c7957600080fd5b611c8286611c4a565b9450611c9060208701611c4a565b9350611c9e60408701611c4a565b9250611cac60608701611c4a565b9150611cba60808701611c4a565b90509295509295909350565b600060208284031215611cd857600080fd5b5035919050565b634e487b7160e01b600052602160045260246000fd5b60038110611d1357634e487b7160e01b600052602160045260246000fd5b9052565b60018060a01b03808251168352602082015160208401528060408301511660408401526060820151606084015280608083015116608084015260a082015160a084015260c0820151611d6c60c0850182611cf5565b5060e09182015116910152565b61010081016115e78284611d17565b6020808252825182820181905260009190848201906040850190845b81811015611dd5578351611db9848251611d17565b8501516101008401529284019261012090920191600101611da4565b50909695505050505050565b6001600160a01b03898116825260208201899052878116604083015260608201879052858116608083015260a08201859052610100820190611e2660c0840186611cf5565b80841660e0840152509998505050505050505050565b60008060408385031215611e4f57600080fd5b50508035926020909101359150565b600080600080600060a08688031215611e7657600080fd5b611e7f86611c4a565b945060208601359350611e9460408701611c4a565b9250611ea260608701611c4a565b9150611cba60808701611be8565b60008060408385031215611ec357600080fd5b611ecc83611be8565b946020939093013593505050565b9182526001600160a01b0316602082015260400190565b600060208284031215611f0357600080fd5b8151801515811461135557600080fd5b634e487b7160e01b600052604160045260246000fd5b634e487b7160e01b600052603260045260246000fd5b634e487b7160e01b600052601160045260246000fd5b600060018201611f6757611f67611f3f565b5060010190565b818103818111156115e7576115e7611f3f565b600060208284031215611f9357600080fd5b5051919050565b634e487b7160e01b600052601260045260246000fd5b600082611fbf57611fbf611f9a565b500690565b600060208284031215611fd657600080fd5b815160ff8116811461135557600080fd5b808201808211156115e7576115e7611f3f565b600181815b8085111561203557816000190482111561201b5761201b611f3f565b8085161561202857918102915b93841c9390800290611fff565b509250929050565b60008261204c575060016115e7565b81612059575060006115e7565b816001811461206f576002811461207957612095565b60019150506115e7565b60ff84111561208a5761208a611f3f565b50506001821b6115e7565b5060208310610133831016604e8410600b84101617156120b8575081810a6115e7565b6120c28383611ffa565b80600019048211156120d6576120d6611f3f565b029392505050565b60006115e4838361203d565b80820281158282048414176115e7576115e7611f3f565b60008261211057612110611f9a565b500490565b6000825160005b81811015612136576020818601810151858301520161211c565b506000920191825250919050565b634e487b7160e01b600052603160045260246000fdfea264697066735822122079856326550911b4687c1da0bd9d4276354c58c83c1dc7a1a93f0f1c8031d42264736f6c63430008110033",
  "devdoc": {
    "kind": "dev",
    "methods": {},
    "version": 1
  },
  "userdoc": {
    "kind": "user",
    "methods": {},
    "version": 1
  },
  "storageLayout": {
    "storage": [
      {
        "astId": 79,
        "contract": "contracts/liquidator/v2/contracts/Exchange.sol:Exchange",
        "label": "_initialized",
        "offset": 0,
        "slot": "0",
        "type": "t_uint8"
      },
      {
        "astId": 82,
        "contract": "contracts/liquidator/v2/contracts/Exchange.sol:Exchange",
        "label": "_initializing",
        "offset": 1,
        "slot": "0",
        "type": "t_bool"
      },
      {
        "astId": 2407,
        "contract": "contracts/liquidator/v2/contracts/Exchange.sol:Exchange",
        "label": "ACCESS_CONTROL_SINGLETON",
        "offset": 2,
        "slot": "0",
        "type": "t_contract(ISuAccessControl)2491"
      },
      {
        "astId": 3268,
        "contract": "contracts/liquidator/v2/contracts/Exchange.sol:Exchange",
        "label": "orders",
        "offset": 0,
        "slot": "1",
        "type": "t_mapping(t_uint256,t_struct(Order)4360_storage)"
      },
      {
        "astId": 3271,
        "contract": "contracts/liquidator/v2/contracts/Exchange.sol:Exchange",
        "label": "orderIdSet",
        "offset": 0,
        "slot": "2",
        "type": "t_struct(UintSet)1403_storage"
      },
      {
        "astId": 3278,
        "contract": "contracts/liquidator/v2/contracts/Exchange.sol:Exchange",
        "label": "priceCurve",
        "offset": 0,
        "slot": "4",
        "type": "t_mapping(t_enum(DiscountType)4342,t_array(t_uint256)2_storage)"
      },
      {
        "astId": 3280,
        "contract": "contracts/liquidator/v2/contracts/Exchange.sol:Exchange",
        "label": "DUST_THRESHHOLD",
        "offset": 0,
        "slot": "5",
        "type": "t_uint256"
      },
      {
        "astId": 3283,
        "contract": "contracts/liquidator/v2/contracts/Exchange.sol:Exchange",
        "label": "SWAP_ROUTER",
        "offset": 0,
        "slot": "6",
        "type": "t_contract(ISwapRouter)2208"
      },
      {
        "astId": 3285,
        "contract": "contracts/liquidator/v2/contracts/Exchange.sol:Exchange",
        "label": "UNISWAP_FACTORY",
        "offset": 0,
        "slot": "7",
        "type": "t_address"
      },
      {
        "astId": 3288,
        "contract": "contracts/liquidator/v2/contracts/Exchange.sol:Exchange",
        "label": "ORACLE",
        "offset": 0,
        "slot": "8",
        "type": "t_contract(ISuOracle)2758"
      },
      {
        "astId": 3291,
        "contract": "contracts/liquidator/v2/contracts/Exchange.sol:Exchange",
        "label": "TOP_STAKERS",
        "offset": 0,
        "slot": "9",
        "type": "t_contract(ITopStakers)4582"
      },
      {
        "astId": 4052,
        "contract": "contracts/liquidator/v2/contracts/Exchange.sol:Exchange",
        "label": "__gap",
        "offset": 0,
        "slot": "10",
        "type": "t_array(t_uint256)45_storage"
      }
    ],
    "types": {
      "t_address": {
        "encoding": "inplace",
        "label": "address",
        "numberOfBytes": "20"
      },
      "t_array(t_bytes32)dyn_storage": {
        "base": "t_bytes32",
        "encoding": "dynamic_array",
        "label": "bytes32[]",
        "numberOfBytes": "32"
      },
      "t_array(t_uint256)2_storage": {
        "base": "t_uint256",
        "encoding": "inplace",
        "label": "uint256[2]",
        "numberOfBytes": "64"
      },
      "t_array(t_uint256)45_storage": {
        "base": "t_uint256",
        "encoding": "inplace",
        "label": "uint256[45]",
        "numberOfBytes": "1440"
      },
      "t_bool": {
        "encoding": "inplace",
        "label": "bool",
        "numberOfBytes": "1"
      },
      "t_bytes32": {
        "encoding": "inplace",
        "label": "bytes32",
        "numberOfBytes": "32"
      },
      "t_contract(ISuAccessControl)2491": {
        "encoding": "inplace",
        "label": "contract ISuAccessControl",
        "numberOfBytes": "20"
      },
      "t_contract(ISuOracle)2758": {
        "encoding": "inplace",
        "label": "contract ISuOracle",
        "numberOfBytes": "20"
      },
      "t_contract(ISwapRouter)2208": {
        "encoding": "inplace",
        "label": "contract ISwapRouter",
        "numberOfBytes": "20"
      },
      "t_contract(ITopStakers)4582": {
        "encoding": "inplace",
        "label": "contract ITopStakers",
        "numberOfBytes": "20"
      },
      "t_enum(DiscountType)4342": {
        "encoding": "inplace",
        "label": "enum DiscountType",
        "numberOfBytes": "1"
      },
      "t_mapping(t_bytes32,t_uint256)": {
        "encoding": "mapping",
        "key": "t_bytes32",
        "label": "mapping(bytes32 => uint256)",
        "numberOfBytes": "32",
        "value": "t_uint256"
      },
      "t_mapping(t_enum(DiscountType)4342,t_array(t_uint256)2_storage)": {
        "encoding": "mapping",
        "key": "t_enum(DiscountType)4342",
        "label": "mapping(enum DiscountType => uint256[2])",
        "numberOfBytes": "32",
        "value": "t_array(t_uint256)2_storage"
      },
      "t_mapping(t_uint256,t_struct(Order)4360_storage)": {
        "encoding": "mapping",
        "key": "t_uint256",
        "label": "mapping(uint256 => struct Order)",
        "numberOfBytes": "32",
        "value": "t_struct(Order)4360_storage"
      },
      "t_struct(Order)4360_storage": {
        "encoding": "inplace",
        "label": "struct Order",
        "members": [
          {
            "astId": 4344,
            "contract": "contracts/liquidator/v2/contracts/Exchange.sol:Exchange",
            "label": "token2sell",
            "offset": 0,
            "slot": "0",
            "type": "t_address"
          },
          {
            "astId": 4346,
            "contract": "contracts/liquidator/v2/contracts/Exchange.sol:Exchange",
            "label": "amountLeft",
            "offset": 0,
            "slot": "1",
            "type": "t_uint256"
          },
          {
            "astId": 4348,
            "contract": "contracts/liquidator/v2/contracts/Exchange.sol:Exchange",
            "label": "token2buy",
            "offset": 0,
            "slot": "2",
            "type": "t_address"
          },
          {
            "astId": 4350,
            "contract": "contracts/liquidator/v2/contracts/Exchange.sol:Exchange",
            "label": "token2buyAmount",
            "offset": 0,
            "slot": "3",
            "type": "t_uint256"
          },
          {
            "astId": 4352,
            "contract": "contracts/liquidator/v2/contracts/Exchange.sol:Exchange",
            "label": "beneficiary",
            "offset": 0,
            "slot": "4",
            "type": "t_address"
          },
          {
            "astId": 4354,
            "contract": "contracts/liquidator/v2/contracts/Exchange.sol:Exchange",
            "label": "creationTimestamp",
            "offset": 0,
            "slot": "5",
            "type": "t_uint256"
          },
          {
            "astId": 4357,
            "contract": "contracts/liquidator/v2/contracts/Exchange.sol:Exchange",
            "label": "discountType",
            "offset": 0,
            "slot": "6",
            "type": "t_enum(DiscountType)4342"
          },
          {
            "astId": 4359,
            "contract": "contracts/liquidator/v2/contracts/Exchange.sol:Exchange",
            "label": "caller",
            "offset": 1,
            "slot": "6",
            "type": "t_address"
          }
        ],
        "numberOfBytes": "224"
      },
      "t_struct(Set)931_storage": {
        "encoding": "inplace",
        "label": "struct EnumerableSetUpgradeable.Set",
        "members": [
          {
            "astId": 926,
            "contract": "contracts/liquidator/v2/contracts/Exchange.sol:Exchange",
            "label": "_values",
            "offset": 0,
            "slot": "0",
            "type": "t_array(t_bytes32)dyn_storage"
          },
          {
            "astId": 930,
            "contract": "contracts/liquidator/v2/contracts/Exchange.sol:Exchange",
            "label": "_indexes",
            "offset": 0,
            "slot": "1",
            "type": "t_mapping(t_bytes32,t_uint256)"
          }
        ],
        "numberOfBytes": "64"
      },
      "t_struct(UintSet)1403_storage": {
        "encoding": "inplace",
        "label": "struct EnumerableSetUpgradeable.UintSet",
        "members": [
          {
            "astId": 1402,
            "contract": "contracts/liquidator/v2/contracts/Exchange.sol:Exchange",
            "label": "_inner",
            "offset": 0,
            "slot": "0",
            "type": "t_struct(Set)931_storage"
          }
        ],
        "numberOfBytes": "64"
      },
      "t_uint256": {
        "encoding": "inplace",
        "label": "uint256",
        "numberOfBytes": "32"
      },
      "t_uint8": {
        "encoding": "inplace",
        "label": "uint8",
        "numberOfBytes": "1"
      }
    }
  }
}