{
  "address": "0x8cb6D4086b26c5FceAF0B0D57c227bB95718ddA1",
  "abi": [
    {
      "anonymous": false,
      "inputs": [
        {
          "indexed": true,
          "internalType": "address",
          "name": "previousOwner",
          "type": "address"
        },
        {
          "indexed": true,
          "internalType": "address",
          "name": "newOwner",
          "type": "address"
        }
      ],
      "name": "OwnershipTransferred",
      "type": "event"
    },
    {
      "inputs": [
        {
          "internalType": "address",
          "name": "asset",
          "type": "address"
        }
      ],
      "name": "getUsdPrice1e18",
      "outputs": [
        {
          "internalType": "uint256",
          "name": "",
          "type": "uint256"
        }
      ],
      "stateMutability": "view",
      "type": "function"
    },
    {
      "inputs": [],
      "name": "owner",
      "outputs": [
        {
          "internalType": "address",
          "name": "",
          "type": "address"
        }
      ],
      "stateMutability": "view",
      "type": "function"
    },
    {
      "inputs": [],
      "name": "renounceOwnership",
      "outputs": [],
      "stateMutability": "nonpayable",
      "type": "function"
    },
    {
      "inputs": [
        {
          "internalType": "address",
          "name": "asset",
          "type": "address"
        },
        {
          "internalType": "uint256",
          "name": "price",
          "type": "uint256"
        }
      ],
      "name": "setUsdPrice1e18",
      "outputs": [],
      "stateMutability": "nonpayable",
      "type": "function"
    },
    {
      "inputs": [
        {
          "internalType": "address",
          "name": "asset",
          "type": "address"
        },
        {
          "internalType": "uint256[]",
          "name": "prices",
          "type": "uint256[]"
        }
      ],
      "name": "setUsdPrice1e18Array",
      "outputs": [],
      "stateMutability": "nonpayable",
      "type": "function"
    },
    {
      "inputs": [
        {
          "internalType": "address",
          "name": "newOwner",
          "type": "address"
        }
      ],
      "name": "transferOwnership",
      "outputs": [],
      "stateMutability": "nonpayable",
      "type": "function"
    }
  ],
  "transactionHash": "0x986b6312cc777551f08355dc3cea6e5da91e32a9fe9cb64e67a23369919afb42",
  "args": [],
  "numDeployments": 1,
  "solcInputHash": "1ee30c392eeeb5c03c3751ea96247c34",
  "bytecode": "0x608060405234801561001057600080fd5b5061001a3361001f565b61006f565b600080546001600160a01b038381166001600160a01b0319831681178455604051919092169283917f8be0079c531659141344cd1fd0a4f28419497f9722a3daafe3b4186f6b6457e09190a35050565b6105f58061007e6000396000f3fe608060405234801561001057600080fd5b50600436106100725760003560e01c80638da5cb5b116100505780638da5cb5b146100ba578063e32400d6146100d5578063f2fde38b146100e857600080fd5b80630ad6e18514610077578063356efd981461008c578063715018a6146100b2575b600080fd5b61008a610085366004610560565b6100fb565b005b61009f61009a36600461046c565b610133565b6040519081526020015b60405180910390f35b61008a610217565b6000546040516001600160a01b0390911681526020016100a9565b61008a6100e336600461048d565b61027d565b61008a6100f636600461046c565b6102a6565b60408051602080820183528382526001600160a01b03851660009081526001918290529290922061012e929091906103f0565b505050565b6001600160a01b038116600090815260016020526040812054806101c45760405162461bcd60e51b815260206004820152602160248201527f4d6f636b4f7261636c653a2061737365742069736e277420737570706f72746560448201527f640000000000000000000000000000000000000000000000000000000000000060648201526084015b60405180910390fd5b6001600160a01b03831660009081526001602052604090206101e68243610589565b8154811061020457634e487b7160e01b600052603260045260246000fd5b9060005260206000200154915050919050565b6000546001600160a01b031633146102715760405162461bcd60e51b815260206004820181905260248201527f4f776e61626c653a2063616c6c6572206973206e6f7420746865206f776e657260448201526064016101bb565b61027b6000610388565b565b6001600160a01b0382166000908152600160209081526040909120825161012e928401906103f0565b6000546001600160a01b031633146103005760405162461bcd60e51b815260206004820181905260248201527f4f776e61626c653a2063616c6c6572206973206e6f7420746865206f776e657260448201526064016101bb565b6001600160a01b03811661037c5760405162461bcd60e51b815260206004820152602660248201527f4f776e61626c653a206e6577206f776e657220697320746865207a65726f206160448201527f646472657373000000000000000000000000000000000000000000000000000060648201526084016101bb565b61038581610388565b50565b600080546001600160a01b038381167fffffffffffffffffffffffff0000000000000000000000000000000000000000831681178455604051919092169283917f8be0079c531659141344cd1fd0a4f28419497f9722a3daafe3b4186f6b6457e09190a35050565b82805482825590600052602060002090810192821561042b579160200282015b8281111561042b578251825591602001919060010190610410565b5061043792915061043b565b5090565b5b80821115610437576000815560010161043c565b80356001600160a01b038116811461046757600080fd5b919050565b60006020828403121561047d578081fd5b61048682610450565b9392505050565b6000806040838503121561049f578081fd5b6104a883610450565b915060208084013567ffffffffffffffff808211156104c5578384fd5b818601915086601f8301126104d8578384fd5b8135818111156104ea576104ea6105a9565b8060051b604051601f19603f8301168101818110858211171561050f5761050f6105a9565b604052828152858101935084860182860187018b101561052d578788fd5b8795505b8386101561054f578035855260019590950194938601938601610531565b508096505050505050509250929050565b60008060408385031215610572578182fd5b61057b83610450565b946020939093013593505050565b6000826105a457634e487b7160e01b81526012600452602481fd5b500690565b634e487b7160e01b600052604160045260246000fdfea26469706673582212202f085ac7693deb97993ee07b8fa828087b4a9668ad170b1613e3a427e25e6c2764736f6c63430008040033",
  "devdoc": {
    "kind": "dev",
    "methods": {
      "getUsdPrice1e18(address)": {
        "params": {
          "asset": "- address of erc20 token contract"
        },
        "returns": {
          "_0": "usdPrice1e18 such that asset.balanceOf() * getUsdPrice1e18(asset) / 1e18 == $$ * 1e18*"
        }
      },
      "owner()": {
        "details": "Returns the address of the current owner."
      },
      "renounceOwnership()": {
        "details": "Leaves the contract without owner. It will not be possible to call `onlyOwner` functions anymore. Can only be called by the current owner. NOTE: Renouncing ownership will leave the contract without an owner, thereby removing any functionality that is only available to the owner."
      },
      "transferOwnership(address)": {
        "details": "Transfers ownership of the contract to a new account (`newOwner`). Can only be called by the current owner."
      }
    },
    "version": 1
  },
  "userdoc": {
    "kind": "user",
    "methods": {
      "getUsdPrice1e18(address)": {
        "notice": "WARNING! Read this description very carefully!      function getUsdPrice1e18(address asset) returns (uint256) that:          basicAmountOfAsset * getUsdPrice1e18(asset) / 1e18 === $$ * 1e18      in other words, it doesn't matter what's the erc20.decimals is,      you just multiply token balance in basic units on value from oracle and get dollar amount multiplied on 1e18. different assets have different deviation threshold (errors)      for wBTC it's <= 0.5%, read more https://data.chain.link/ethereum/mainnet/crypto-usd/btc-usd      for other asset is can be larger based on particular oracle implementation. examples:      assume market price of wBTC = $31,503.77, oracle error = $158       case #1: small amount of wBTC           we have 0.0,000,001 wBTC that is worth v = $0.00315 ± $0.00001 = 0.00315*1e18 = 315*1e13 ± 1*1e13           actual balance on the asset b = wBTC.balanceOf() =  0.0000001*1e18 = 1e11           oracle should return or = oracle.getUsdPrice1e18(wBTC) <=>           <=> b*or = v => v/b = 315*1e13 / 1e11 = 315*1e2 ± 1e2           error = or.error * b = 1e2 * 1e11 = 1e13 => 1e13/1e18 usd = 1e-5 = 0.00001 usd       case #2: large amount of wBTC           v = 2,000,000 wBTC = $31,503.77 * 2m ± 158*2m = $63,007,540,000 ± $316,000,000 = 63,007*1e24 ± 316*1e24           for calc convenience we increase error on 0.05 and have v = 63,000*24 ± 300*1e24 = (630 ± 3)*1e26           b = 2*1e6 * 1e18 = 2*1e24           or = v/b = (630 ± 3)*1e26 / 2*1e24 = 315*1e2 ± 1.5*1e2           error = or.error * b = 1.5*100 * 2*1e24 = 3*1e26 = 3*1e8*1e18 = $300,000,000 ~ $316,000,000      assume the market price of USDT = $0.97 ± $0.00485,       case #3: little amount of USDT           v = USDT amount 0.005 = 0.005*(0.97 ± 0.00485) = 0.00485*1e18 ± 0.00002425*1e18 = 485*1e13 ± 3*1e13           we rounded error up on (3000-2425)/2425 ~= +24% for calculation convenience.           b = USDT.balanceOf() = 0.005*1e6 = 5*1e3           b*or = v => or = v/b = (485*1e13 ± 3*1e13) / 5*1e3 = 970*1e9 ± 6*1e9           error = 6*1e9 * 5*1e3 / 1e18 = 30*1e12/1e18 = 3*1e-5 = $0,00005       case #4: lot of USDT           v = we have 100,000,000,000 USDT = $97B = 97*1e9*1e18 ± 0.5*1e9*1e18           b = USDT.balanceOf() = 1e11*1e6 = 1e17           or = v/b = (97*1e9*1e18 ± 0.5*1e9*1e18) / 1e17 = 970*1e9 ± 5*1e9           error = 5*1e9 * 1e17 = 5*1e26 = 0.5 * 1e8*1e18"
      }
    },
    "version": 1
  },
  "storageLayout": {
    "storage": [
      {
        "astId": 2451,
        "contract": "contracts/mocks/MockOracle.sol:MockOracle",
        "label": "_owner",
        "offset": 0,
        "slot": "0",
        "type": "t_address"
      },
      {
        "astId": 12456,
        "contract": "contracts/mocks/MockOracle.sol:MockOracle",
        "label": "assetsToPrices1e18",
        "offset": 0,
        "slot": "1",
        "type": "t_mapping(t_address,t_array(t_uint256)dyn_storage)"
      }
    ],
    "types": {
      "t_address": {
        "encoding": "inplace",
        "label": "address",
        "numberOfBytes": "20"
      },
      "t_array(t_uint256)dyn_storage": {
        "base": "t_uint256",
        "encoding": "dynamic_array",
        "label": "uint256[]",
        "numberOfBytes": "32"
      },
      "t_mapping(t_address,t_array(t_uint256)dyn_storage)": {
        "encoding": "mapping",
        "key": "t_address",
        "label": "mapping(address => uint256[])",
        "numberOfBytes": "32",
        "value": "t_array(t_uint256)dyn_storage"
      },
      "t_uint256": {
        "encoding": "inplace",
        "label": "uint256",
        "numberOfBytes": "32"
      }
    }
  }
}