{
  "address": "0x49974E4c9D05792BBc2Ed324853eda6cD8893Bf0",
  "abi": [
    {
      "anonymous": false,
      "inputs": [
        {
          "indexed": true,
          "internalType": "address",
          "name": "user",
          "type": "address"
        },
        {
          "indexed": true,
          "internalType": "address",
          "name": "asset",
          "type": "address"
        },
        {
          "indexed": false,
          "internalType": "uint256",
          "name": "amount",
          "type": "uint256"
        }
      ],
      "name": "Harvest",
      "type": "event"
    },
    {
      "anonymous": false,
      "inputs": [
        {
          "indexed": true,
          "internalType": "address",
          "name": "asset",
          "type": "address"
        },
        {
          "indexed": false,
          "internalType": "uint256",
          "name": "allocPoint",
          "type": "uint256"
        }
      ],
      "name": "LogPoolAddition",
      "type": "event"
    },
    {
      "anonymous": false,
      "inputs": [
        {
          "indexed": true,
          "internalType": "address",
          "name": "asset",
          "type": "address"
        },
        {
          "indexed": false,
          "internalType": "uint256",
          "name": "allocPoint",
          "type": "uint256"
        }
      ],
      "name": "LogSetPool",
      "type": "event"
    },
    {
      "anonymous": false,
      "inputs": [
        {
          "indexed": true,
          "internalType": "address",
          "name": "asset",
          "type": "address"
        },
        {
          "indexed": false,
          "internalType": "uint64",
          "name": "lastRewardBlock",
          "type": "uint64"
        },
        {
          "indexed": false,
          "internalType": "uint256",
          "name": "lpSupply",
          "type": "uint256"
        },
        {
          "indexed": false,
          "internalType": "uint256",
          "name": "accSushiPerShare",
          "type": "uint256"
        }
      ],
      "name": "LogUpdatePool",
      "type": "event"
    },
    {
      "anonymous": false,
      "inputs": [
        {
          "indexed": true,
          "internalType": "address",
          "name": "user",
          "type": "address"
        },
        {
          "indexed": true,
          "internalType": "address",
          "name": "asset",
          "type": "address"
        },
        {
          "indexed": true,
          "internalType": "address",
          "name": "to",
          "type": "address"
        },
        {
          "indexed": false,
          "internalType": "uint256",
          "name": "amount",
          "type": "uint256"
        },
        {
          "indexed": false,
          "internalType": "uint256",
          "name": "lockupPeriodSeconds",
          "type": "uint256"
        }
      ],
      "name": "ResetAmount",
      "type": "event"
    },
    {
      "anonymous": false,
      "inputs": [
        {
          "indexed": true,
          "internalType": "address",
          "name": "user",
          "type": "address"
        },
        {
          "indexed": true,
          "internalType": "address",
          "name": "asset",
          "type": "address"
        },
        {
          "indexed": false,
          "internalType": "uint256",
          "name": "amount",
          "type": "uint256"
        }
      ],
      "name": "VirtualDeposit",
      "type": "event"
    },
    {
      "anonymous": false,
      "inputs": [
        {
          "indexed": true,
          "internalType": "address",
          "name": "user",
          "type": "address"
        },
        {
          "indexed": true,
          "internalType": "address",
          "name": "asset",
          "type": "address"
        },
        {
          "indexed": false,
          "internalType": "uint256",
          "name": "amount",
          "type": "uint256"
        }
      ],
      "name": "VirtualWithdraw",
      "type": "event"
    },
    {
      "inputs": [],
      "name": "ACCESS_CONTROL_SINGLETON",
      "outputs": [
        {
          "internalType": "contract ISuAccessControl",
          "name": "",
          "type": "address"
        }
      ],
      "stateMutability": "view",
      "type": "function"
    },
    {
      "inputs": [],
      "name": "LIQUIDATION_ACCESS_ROLE",
      "outputs": [
        {
          "internalType": "bytes32",
          "name": "",
          "type": "bytes32"
        }
      ],
      "stateMutability": "view",
      "type": "function"
    },
    {
      "inputs": [],
      "name": "MINTER_ROLE",
      "outputs": [
        {
          "internalType": "bytes32",
          "name": "",
          "type": "bytes32"
        }
      ],
      "stateMutability": "view",
      "type": "function"
    },
    {
      "inputs": [],
      "name": "ORACLE",
      "outputs": [
        {
          "internalType": "contract ISuOracle",
          "name": "",
          "type": "address"
        }
      ],
      "stateMutability": "view",
      "type": "function"
    },
    {
      "inputs": [],
      "name": "REWARD_TOKEN",
      "outputs": [
        {
          "internalType": "contract IERC20Upgradeable",
          "name": "",
          "type": "address"
        }
      ],
      "stateMutability": "view",
      "type": "function"
    },
    {
      "inputs": [],
      "name": "VAULT_ACCESS_ROLE",
      "outputs": [
        {
          "internalType": "bytes32",
          "name": "",
          "type": "bytes32"
        }
      ],
      "stateMutability": "view",
      "type": "function"
    },
    {
      "inputs": [
        {
          "internalType": "uint256",
          "name": "allocPoint",
          "type": "uint256"
        },
        {
          "internalType": "address",
          "name": "_asset",
          "type": "address"
        }
      ],
      "name": "add",
      "outputs": [],
      "stateMutability": "nonpayable",
      "type": "function"
    },
    {
      "inputs": [
        {
          "internalType": "address",
          "name": "asset",
          "type": "address"
        },
        {
          "internalType": "address",
          "name": "to",
          "type": "address"
        },
        {
          "internalType": "uint256",
          "name": "amountEDecimal",
          "type": "uint256"
        }
      ],
      "name": "decreaseAmount",
      "outputs": [],
      "stateMutability": "nonpayable",
      "type": "function"
    },
    {
      "inputs": [
        {
          "internalType": "address",
          "name": "asset",
          "type": "address"
        },
        {
          "internalType": "address",
          "name": "to",
          "type": "address"
        },
        {
          "internalType": "uint256",
          "name": "amountEDecimal",
          "type": "uint256"
        }
      ],
      "name": "decreaseAmountRewardPenalty",
      "outputs": [
        {
          "internalType": "uint256",
          "name": "",
          "type": "uint256"
        }
      ],
      "stateMutability": "view",
      "type": "function"
    },
    {
      "inputs": [
        {
          "internalType": "address",
          "name": "asset",
          "type": "address"
        }
      ],
      "name": "getPoolApr",
      "outputs": [
        {
          "internalType": "uint256",
          "name": "",
          "type": "uint256"
        }
      ],
      "stateMutability": "view",
      "type": "function"
    },
    {
      "inputs": [],
      "name": "getPossibleLockupPeriodsSeconds",
      "outputs": [
        {
          "components": [
            {
              "internalType": "uint256",
              "name": "lockupPeriodSeconds",
              "type": "uint256"
            },
            {
              "internalType": "uint256",
              "name": "multiplicator1e18",
              "type": "uint256"
            }
          ],
          "internalType": "struct IRewardChefV2.ILockupPeriod[]",
          "name": "",
          "type": "tuple[]"
        }
      ],
      "stateMutability": "view",
      "type": "function"
    },
    {
      "inputs": [
        {
          "internalType": "address",
          "name": "asset",
          "type": "address"
        },
        {
          "internalType": "address",
          "name": "to",
          "type": "address"
        },
        {
          "internalType": "uint256",
          "name": "newLockupPeriodSeconds",
          "type": "uint256"
        }
      ],
      "name": "harvest",
      "outputs": [],
      "stateMutability": "nonpayable",
      "type": "function"
    },
    {
      "inputs": [
        {
          "internalType": "address",
          "name": "asset",
          "type": "address"
        },
        {
          "internalType": "address",
          "name": "to",
          "type": "address"
        },
        {
          "internalType": "uint256",
          "name": "amountEDecimal",
          "type": "uint256"
        },
        {
          "internalType": "uint256",
          "name": "lockupPeriodSeconds",
          "type": "uint256"
        }
      ],
      "name": "increaseAmount",
      "outputs": [],
      "stateMutability": "nonpayable",
      "type": "function"
    },
    {
      "inputs": [
        {
          "internalType": "address",
          "name": "_authControl",
          "type": "address"
        },
        {
          "internalType": "contract IERC20Upgradeable",
          "name": "_rewardToken",
          "type": "address"
        },
        {
          "internalType": "contract ISuOracle",
          "name": "_oracle",
          "type": "address"
        }
      ],
      "name": "initialize",
      "outputs": [],
      "stateMutability": "nonpayable",
      "type": "function"
    },
    {
      "inputs": [
        {
          "internalType": "uint256",
          "name": "",
          "type": "uint256"
        }
      ],
      "name": "multiplicator1e18ForLockupPeriod",
      "outputs": [
        {
          "internalType": "uint256",
          "name": "",
          "type": "uint256"
        }
      ],
      "stateMutability": "view",
      "type": "function"
    },
    {
      "inputs": [
        {
          "internalType": "address",
          "name": "_asset",
          "type": "address"
        },
        {
          "internalType": "address",
          "name": "_user",
          "type": "address"
        }
      ],
      "name": "pendingSushi",
      "outputs": [
        {
          "internalType": "uint256",
          "name": "pending",
          "type": "uint256"
        }
      ],
      "stateMutability": "view",
      "type": "function"
    },
    {
      "inputs": [
        {
          "internalType": "address",
          "name": "",
          "type": "address"
        }
      ],
      "name": "poolInfo",
      "outputs": [
        {
          "internalType": "uint128",
          "name": "accSushiPerShare",
          "type": "uint128"
        },
        {
          "internalType": "uint64",
          "name": "lastRewardBlock",
          "type": "uint64"
        },
        {
          "internalType": "uint64",
          "name": "allocPoint",
          "type": "uint64"
        },
        {
          "internalType": "uint256",
          "name": "lpSupply",
          "type": "uint256"
        }
      ],
      "stateMutability": "view",
      "type": "function"
    },
    {
      "inputs": [
        {
          "internalType": "uint256",
          "name": "amount",
          "type": "uint256"
        },
        {
          "internalType": "uint64",
          "name": "endBlock",
          "type": "uint64"
        }
      ],
      "name": "refillReward",
      "outputs": [],
      "stateMutability": "nonpayable",
      "type": "function"
    },
    {
      "inputs": [
        {
          "internalType": "address",
          "name": "asset",
          "type": "address"
        },
        {
          "internalType": "address",
          "name": "to",
          "type": "address"
        }
      ],
      "name": "resetAmount",
      "outputs": [],
      "stateMutability": "nonpayable",
      "type": "function"
    },
    {
      "inputs": [],
      "name": "rewardEndBlock",
      "outputs": [
        {
          "internalType": "uint256",
          "name": "",
          "type": "uint256"
        }
      ],
      "stateMutability": "view",
      "type": "function"
    },
    {
      "inputs": [],
      "name": "rewardPerBlock",
      "outputs": [
        {
          "internalType": "uint256",
          "name": "",
          "type": "uint256"
        }
      ],
      "stateMutability": "view",
      "type": "function"
    },
    {
      "inputs": [
        {
          "internalType": "uint256",
          "name": "startBlock",
          "type": "uint256"
        },
        {
          "internalType": "uint256",
          "name": "endBlock",
          "type": "uint256"
        }
      ],
      "name": "rewardsBetweenBlocks",
      "outputs": [
        {
          "internalType": "uint256",
          "name": "",
          "type": "uint256"
        }
      ],
      "stateMutability": "view",
      "type": "function"
    },
    {
      "inputs": [
        {
          "internalType": "address",
          "name": "_asset",
          "type": "address"
        },
        {
          "internalType": "uint256",
          "name": "_allocPoint",
          "type": "uint256"
        }
      ],
      "name": "set",
      "outputs": [],
      "stateMutability": "nonpayable",
      "type": "function"
    },
    {
      "inputs": [
        {
          "internalType": "uint256",
          "name": "lockupPeriodSeconds",
          "type": "uint256"
        },
        {
          "internalType": "uint256",
          "name": "multiplicator1e18",
          "type": "uint256"
        }
      ],
      "name": "setPossibleLockupPeriodsSeconds",
      "outputs": [],
      "stateMutability": "nonpayable",
      "type": "function"
    },
    {
      "inputs": [],
      "name": "totalAllocPoint",
      "outputs": [
        {
          "internalType": "uint256",
          "name": "",
          "type": "uint256"
        }
      ],
      "stateMutability": "view",
      "type": "function"
    },
    {
      "inputs": [],
      "name": "updateAllPools",
      "outputs": [],
      "stateMutability": "nonpayable",
      "type": "function"
    },
    {
      "inputs": [
        {
          "internalType": "address",
          "name": "asset",
          "type": "address"
        }
      ],
      "name": "updatePool",
      "outputs": [
        {
          "components": [
            {
              "internalType": "uint128",
              "name": "accSushiPerShare",
              "type": "uint128"
            },
            {
              "internalType": "uint64",
              "name": "lastRewardBlock",
              "type": "uint64"
            },
            {
              "internalType": "uint64",
              "name": "allocPoint",
              "type": "uint64"
            },
            {
              "internalType": "uint256",
              "name": "lpSupply",
              "type": "uint256"
            }
          ],
          "internalType": "struct IRewardChefV2.PoolInfo",
          "name": "pool",
          "type": "tuple"
        }
      ],
      "stateMutability": "nonpayable",
      "type": "function"
    },
    {
      "inputs": [
        {
          "internalType": "address",
          "name": "",
          "type": "address"
        },
        {
          "internalType": "address",
          "name": "",
          "type": "address"
        }
      ],
      "name": "userInfo",
      "outputs": [
        {
          "internalType": "uint256",
          "name": "amount",
          "type": "uint256"
        },
        {
          "internalType": "int256",
          "name": "rewardDebt",
          "type": "int256"
        },
        {
          "internalType": "uint256",
          "name": "multiplicator1e18",
          "type": "uint256"
        },
        {
          "internalType": "uint256",
          "name": "lockupPeriodSeconds",
          "type": "uint256"
        },
        {
          "internalType": "uint256",
          "name": "lockupStartTimestamp",
          "type": "uint256"
        }
      ],
      "stateMutability": "view",
      "type": "function"
    }
  ],
  "numDeployments": 3,
  "solcInputHash": "fd18374cb687fc4f637dfe8e6dc74213",
  "bytecode": "0x608060405234801561001057600080fd5b50612ca5806100206000396000f3fe608060405234801561001057600080fd5b50600436106101545760003560e01c806303ee9f22146101595780630f208beb1461018857806314c376dc146101f557806317caf6f11461022a5780631d40e439146102335780632b8bbbe8146102465780632fcd4bc01461025b57806338013f021461026e5780633825d82814610281578063604ef2e514610294578063698274021461029d5780636aed34f7146102b25780637b46c54f146102c557806387d483161461032257806387ee8c4c146103355780638ae39cac1461034857806399248ea7146103515780639a7b5f1114610364578063a7533e09146103e9578063b9ec7d74146103fc578063c0c53b8b14610404578063c2ceb95f14610417578063cf4f68d51461042a578063d53913931461043d578063dc97e84e14610464578063e68f85021461048b578063eeba3c3f146104ab578063f7bfea2c146104be575b600080fd5b600054610172906201000090046001600160a01b031681565b60405161017f919061268e565b60405180910390f35b6101cd6101963660046126ba565b6002602081815260009384526040808520909152918352912080546001820154928201546003830154600490930154919392909185565b604080519586526020860194909452928401919091526060830152608082015260a00161017f565b61021c7fe965846df3dd5b1dfa65f58e31477079e90140e0908b6dd31b5aead5a57cf36581565b60405190815260200161017f565b61021c60035481565b61021c6102413660046126ba565b6104d1565b6102596102543660046126f3565b610671565b005b610259610269366004612718565b61088e565b600754610172906001600160a01b031681565b61025961028f36600461273a565b6109af565b61021c60095481565b6102a5610bb9565b60405161017f9190612766565b6102596102c03660046127b5565b610ccb565b6102d86102d33660046127f6565b610f56565b6040805182516001600160801b031681526020808401516001600160401b03908116918301919091528383015116918101919091526060918201519181019190915260800161017f565b61021c6103303660046127b5565b611159565b610259610343366004612813565b611222565b61021c60085481565b600654610172906001600160a01b031681565b6103b26103723660046127f6565b600160208190526000918252604090912080549101546001600160801b038216916001600160401b03600160801b8204811692600160c01b909204169084565b604080516001600160801b039590951685526001600160401b0393841660208601529190921690830152606082015260800161017f565b61021c6103f73660046127f6565b6113b9565b610259611718565b610259610412366004612844565b611769565b6102596104253660046127b5565b611862565b6102596104383660046126ba565b611b46565b61021c7f9f2df0fed2c77648de5860a4cc508cd0818c85b8b8a1ab4ceeef8d981c8956a681565b61021c7f9a9aef7c1247d5fc769b0185c052913e39673da29a880317dfd20ebf86f26a4981565b61021c61049936600461288f565b600a6020526000908152604090205481565b61021c6104b9366004612718565b611c7c565b6102596104cc3660046128a8565b611cce565b6001600160a01b03808316600081815260016020818152604080842081516080808201845282546001600160801b0380821684526001600160401b03600160801b83048116858901908152600160c01b9093048116858801529488015460608086018290528b8b526002808a52888c209d8f168c529c8952878b20885160a081018a5281548152818c0154818c01529d810154988e01989098526003880154908d0152600490960154928b019290925282519888529590945293519496939593949390921692909116431180156105a757508015155b80156105b4575060035415155b156106275760006105d285602001516001600160401b031643611c7c565b9050600060035486604001516001600160401b0316836105f29190612904565b6105fc919061291b565b90508261060e64e8d4a5100083612904565b610618919061291b565b610622908561293d565b935050505b610666836020015161065764e8d4a510008587600001516106489190612904565b610652919061291b565b611f78565b6106619190612950565b611fe6565b979650505050505050565b60008054604051632474521560e21b8152620100009091046001600160a01b0316916391d14854916106a891903390600401612970565b602060405180830381865afa1580156106c5573d6000803e3d6000fd5b505050506040513d601f19601f820116820180604052508101906106e99190612987565b61070e5760405162461bcd60e51b8152600401610705906129a9565b60405180910390fd5b6001600160a01b038116600090815260016020526040902054600160801b90046001600160401b0316156107795760405162461bcd60e51b8152602060048201526012602482015271141bdbdb08185b1c9958591e48195e1a5cdd60721b6044820152606401610705565b600354439061078990849061293d565b600355610797600483612038565b50604051806080016040528060006001600160801b031681526020016107bc8361204d565b6001600160401b031681526020016107d38561204d565b6001600160401b039081168252600060209283018190526001600160a01b03861680825260018085526040928390208651815488880151898701518816600160c01b026001600160c01b0391909816600160801b026001600160c01b03199092166001600160801b039093169290921717169490941784556060909501519290940191909155518581527f595f39ef10c3b539b41f83620205bd2e76334edf0cfda5ed207f10616e867dad91015b60405180910390a2505050565b60008054604051632474521560e21b8152620100009091046001600160a01b0316916391d14854916108c591903390600401612970565b602060405180830381865afa1580156108e2573d6000803e3d6000fd5b505050506040513d601f19601f820116820180604052508101906109069190612987565b6109225760405162461bcd60e51b8152600401610705906129a9565b8160000361097c5760405162461bcd60e51b815260206004820152602160248201527f4c6f636b757020706572696f6420657175696c73207a65726f207365636f6e646044820152607360f81b6064820152608401610705565b6000828152600a602052604081208290558190036109a45761099f600b836120b5565b505050565b61099f600b836120c1565b60008054604051632474521560e21b8152620100009091046001600160a01b0316916391d14854916109e691903390600401612970565b602060405180830381865afa158015610a03573d6000803e3d6000fd5b505050506040513d601f19601f82011682018060405250810190610a279190612987565b610a435760405162461bcd60e51b8152600401610705906129a9565b6001600160a01b038216600090815260016020526040812054600160801b90046001600160401b03169003610aaf5760405162461bcd60e51b8152602060048201526012602482015271141bdbdb08191bd95cdb89dd08195e1a5cdd60721b6044820152606401610705565b610ab882610f56565b506001600160a01b038216600090815260016020526040902054600354600160c01b9091046001600160401b0316908290610af49083906129e0565b610afe919061293d565b600355610b0a8261204d565b6001600160a01b038416600090815260016020526040812080546001600160401b0393909316600160c01b026001600160c01b0390931692909217909155829003610b6057610b5a6004846120cd565b50610b7e565b806001600160401b0316600003610b7e57610b7c600484612038565b505b826001600160a01b03167f57096e403eca2ab85e7ad27527b2efe1598aaf6760715227633947f3652a0f6b8360405161088191815260200190565b60606000610bc7600b6120e2565b80519091506000816001600160401b03811115610be657610be66129f3565b604051908082528060200260200182016040528015610c2b57816020015b6040805180820190915260008082526020820152815260200190600190039081610c045790505b50905060005b82811015610cc3576040518060400160405280858381518110610c5657610c56612a09565b60200260200101518152602001600a6000878581518110610c7957610c79612a09565b6020026020010151815260200190815260200160002054815250828281518110610ca557610ca5612a09565b60200260200101819052508080610cbb90612a1f565b915050610c31565b509392505050565b60008054604051632474521560e21b8152620100009091046001600160a01b0316916391d1485491610d0291903390600401612970565b602060405180830381865afa158015610d1f573d6000803e3d6000fd5b505050506040513d601f19601f82011682018060405250810190610d439190612987565b610d5f5760405162461bcd60e51b8152600401610705906129a9565b6000610d6a84610f56565b6001600160a01b03808616600090815260026020818152604080842094891684529390529181209182015492935090919003610db85760405162461bcd60e51b815260040161070590612a38565b600081600301548260040154610dce919061293d565b421015610de357610de0868686611159565b90505b6000670de0b6b3a7640000836002015486610dfe9190612904565b610e08919061291b565b9050610e1382611f78565b8451610e339064e8d4a5100090610648906001600160801b031685612904565b8460010154610e429190612950565b610e4c9190612a6f565b60018401558254610e5e9082906129e0565b808455158015610e7057506001830154155b15610e8a5742600484015560006003840181905560028401555b808460600151610e9a91906129e0565b606085019081526001600160a01b038881166000818152600160208181526040928390208a518154838d0151868e01516001600160801b039093166001600160c01b031990921691909117600160801b6001600160401b0392831602176001600160c01b0316600160c01b919092160217815595519590910194909455518481529092918916917f5c89d0cd1567084571f8083b115429597fe4af296968d67b6b7ebc9d12777e8791015b60405180910390a350505050505050565b604080516080810182526000808252602082018190529181018290526060810191909152506001600160a01b038116600090815260016020818152604092839020835160808101855281546001600160801b03811682526001600160401b03600160801b82048116948301859052600160c01b909104169481019490945290910154606083015243111561115457606081015180158015906110055750600082604001516001600160401b0316115b1561108b57600061102383602001516001600160401b031643611c7c565b9050600060035484604001516001600160401b0316836110439190612904565b61104d919061291b565b90506110718361106264e8d4a5100084612904565b61106c919061291b565b6120ef565b845161107d9190612a97565b6001600160801b0316845250505b6110944361204d565b6001600160401b0390811660208481019182526001600160a01b03861660008181526001808452604091829020885181549651848b01518916600160c01b026001600160c01b0391909916600160801b81026001600160c01b03199099166001600160801b0390931692831798909817169790971781556060808a0151919092015581519485529284018690528301939093527f46cf4926e42ba22492fd67b3ea0fba545c48ca18651eb6cd271e653d3308c567910160405180910390a2505b919050565b6001600160a01b0380841660009081526002602081815260408084209487168452938152838320845160a0810186528154815260018201549281019290925291820154938101849052600382015460608201526004909101546080820152909182036111c957600091505061121b565b6000670de0b6b3a76400008260400151856111e49190612904565b6111ee919061291b565b905060006111fc87876104d1565b835190915061120b8383612904565b611215919061291b565b93505050505b9392505050565b60008054604051632474521560e21b8152620100009091046001600160a01b0316916391d148549161125991903390600401612970565b602060405180830381865afa158015611276573d6000803e3d6000fd5b505050506040513d601f19601f8201168201806040525081019061129a9190612987565b6112b65760405162461bcd60e51b8152600401610705906129a9565b43816001600160401b0316116113245760405162461bcd60e51b815260206004820152602d60248201527f456e64426c6f636b2073686f756c642062652067726561746572207468616e2060448201526c63757272656e7420626c6f636b60981b6064820152608401610705565b61132c611718565b600654611344906001600160a01b0316333085612158565b6009546000901561137f5760095443101561137b574360095461136791906129e0565b6008546113749190612904565b905061137f565b5060005b611392436001600160401b0384166129e0565b61139c848361293d565b6113a6919061291b565b600855506001600160401b031660095550565b6001600160a01b03811660009081526001602081905260408220015481036114335760405162461bcd60e51b815260206004820152602760248201527f526577617264436865663a20506f6f6c20646f65736e27742068617665206c696044820152667175696469747960c81b6064820152608401610705565b6003546000036114955760405162461bcd60e51b815260206004820152602760248201527f526577617264436865663a20546f74616c20616c6c6f636174696f6e20706f6960448201526606e7420697320360cc1b6064820152608401610705565b43600954116114f65760405162461bcd60e51b815260206004820152602760248201527f526577617264436865663a2056657374696e6720697320616c726561647920666044820152661a5b9a5cda195960ca1b6064820152608401610705565b6003546001600160a01b03831660009081526001602052604081205460085491929161153291600160c01b90046001600160401b031690612904565b61153c919061291b565b6007546006546040516306addfb360e31b81529293506000926001600160a01b039283169263356efd98926115769291169060040161268e565b602060405180830381865afa158015611593573d6000803e3d6000fd5b505050506040513d601f19601f820116820180604052508101906115b79190612ab7565b90506000816115c7846004612904565b6115d290603c612904565b6115dd906018612904565b6115e99061016e612904565b6115f39190612904565b90506000856001600160a01b031663313ce5676040518163ffffffff1660e01b8152600401602060405180830381865afa158015611635573d6000803e3d6000fd5b505050506040513d601f19601f820116820180604052508101906116599190612ad0565b61166490600a612bd7565b6001600160a01b03808816600090815260016020819052604091829020015460075491516306addfb360e31b81529092919091169063356efd98906116ad908b9060040161268e565b602060405180830381865afa1580156116ca573d6000803e3d6000fd5b505050506040513d601f19601f820116820180604052508101906116ee9190612ab7565b6116f89190612904565b611702919061291b565b905061170e818361291b565b9695505050505050565b600061172460046120e2565b805190915060005b8181101561099f5761175683828151811061174957611749612a09565b6020026020010151610f56565b508061176181612a1f565b91505061172c565b600054610100900460ff166117845760005460ff161561178c565b61178c6121c3565b6117ef5760405162461bcd60e51b815260206004820152602e60248201527f496e697469616c697a61626c653a20636f6e747261637420697320616c72656160448201526d191e481a5b9a5d1a585b1a5e995960921b6064820152608401610705565b600054610100900460ff16158015611811576000805461ffff19166101011790555b61181a846121d4565b600680546001600160a01b038086166001600160a01b0319928316179092556007805492851692909116919091179055801561185c576000805461ff00191690555b50505050565b600061186d84610f56565b6001600160a01b0385166000908152600260209081526040808320338452909152902060038101546004820154929350909142916118aa9161293d565b11156119045760405162461bcd60e51b815260206004820152602360248201527f43616e27742068617276657374206265666f7265206c6f636b7570206973206f6044820152623b32b960e91b6064820152608401610705565b80600201546000036119285760405162461bcd60e51b815260040161070590612a38565b600061195064e8d4a5100084600001516001600160801b031684600001546106489190612904565b905060006119678360010154836106619190612950565b600184018390559050801561198d5760065461198d906001600160a01b03168783612269565b4260048401556000858152600a6020526040812054908190036119f25760405162461bcd60e51b815260206004820152601d60248201527f4e6577206d756c7469706c696361746f7220657175696c73207a65726f0000006044820152606401610705565b8084600201541015611a73578354600285015460009190611a138483612904565b611a1d919061291b565b611a2791906129e0565b8554909150611a3790829061293d565b85558551611a599064e8d4a5100090610648906001600160801b031684612904565b8560010154611a689190612a6f565b600186015550611af5565b8084600201541115611af55760008460020154828660000154611a969190612904565b611aa0919061291b565b8554611aac91906129e0565b9050611ad064e8d4a5100087600001516001600160801b0316836106489190612904565b8560010154611adf9190612950565b60018601558454611af19082906129e0565b8555505b600284018190556040518281526001600160a01b0389169033907fa0306f61d3fafe13787b78e276cb6b644382854a66cb46daae14227d3ec267979060200160405180910390a35050505050505050565b6001600160a01b038216600090815260016020818152604080842060028352818520338652909252909220805460038201549284015491929091611b8b9083906129e0565b60018581019182556001600160a01b038881166000818152602084815260408083208b5481546001600160801b039091166001600160801b03198216811783558d546001600160c01b031990921617600160801b918290046001600160401b03908116909202178083558d546001600160c01b03909116600160c01b9182900490921602178155965496860196909655818955938801819055426004890155600388018190556002880155835186815292830185905290881692909133917f0b29f3a03cca6d26633adab7fad4d1d3383ee338e01e04ebcf40d0beff8838fe910160405180910390a4505050505050565b60008260095411611c8f57506000611cc8565b600954821015611cb757600854611ca684846129e0565b611cb09190612904565b9050611cc8565b60085483600954611ca691906129e0565b92915050565b60008054604051632474521560e21b8152620100009091046001600160a01b0316916391d1485491611d0591903390600401612970565b602060405180830381865afa158015611d22573d6000803e3d6000fd5b505050506040513d601f19601f82011682018060405250810190611d469190612987565b611d625760405162461bcd60e51b8152600401610705906129a9565b6000611d6d85610f56565b6001600160a01b03808716600090815260026020908152604080832093891683529290529081206003810154929350919003611dc9576000838152600a6020526040902054600282015560038101839055426004820155611e2a565b82816003015414611e2a5760405162461bcd60e51b815260206004820152602560248201527f4578697374696e67206465706f7369742068617320646966666572656e74206c60448201526406f636b75760dc1b6064820152608401610705565b8060020154600003611e4e5760405162461bcd60e51b815260040161070590612a38565b6000670de0b6b3a7640000826002015486611e699190612904565b611e73919061291b565b8254909150611e8390829061293d565b82558251611ea59064e8d4a5100090610648906001600160801b031684612904565b8260010154611eb49190612a6f565b60018301556060830151611ec990829061293d565b606084019081526001600160a01b0388811660008181526001602081815260409283902089518154838c0151868d01516001600160801b039093166001600160c01b031990921691909117600160801b6001600160401b0392831602176001600160c01b0316600160c01b919092160217815595519590910194909455518481529092918916917fbe0e56c891bb7033dc9f0c815fb5e1fd09ee48ffbc1c32b504a52911a54246709101610f45565b60006001600160ff1b03821115611fe25760405162461bcd60e51b815260206004820152602860248201527f53616665436173743a2076616c756520646f65736e27742066697420696e2061604482015267371034b73a191a9b60c11b6064820152608401610705565b5090565b600080821215611fe25760405162461bcd60e51b815260206004820181905260248201527f53616665436173743a2076616c7565206d75737420626520706f7369746976656044820152606401610705565b600061121b836001600160a01b038416612299565b60006001600160401b03821115611fe25760405162461bcd60e51b815260206004820152602660248201527f53616665436173743a2076616c756520646f65736e27742066697420696e203660448201526534206269747360d01b6064820152608401610705565b600061121b83836122e8565b600061121b8383612299565b600061121b836001600160a01b0384166122e8565b6060600061121b836123e2565b60006001600160801b03821115611fe25760405162461bcd60e51b815260206004820152602760248201527f53616665436173743a2076616c756520646f65736e27742066697420696e20316044820152663238206269747360c81b6064820152608401610705565b6040516001600160a01b038085166024830152831660448201526064810182905261185c9085906323b872dd60e01b906084015b60408051601f198184030181529190526020810180516001600160e01b03166001600160e01b03199093169290921790915261243e565b60006121ce30612510565b15905090565b600054610100900460ff1661223f5760405162461bcd60e51b815260206004820152602b60248201527f496e697469616c697a61626c653a20636f6e7472616374206973206e6f74206960448201526a6e697469616c697a696e6760a81b6064820152608401610705565b600080546001600160a01b03909216620100000262010000600160b01b0319909216919091179055565b6040516001600160a01b03831660248201526044810182905261099f90849063a9059cbb60e01b9060640161218c565b60008181526001830160205260408120546122e057508154600181810184556000848152602080822090930184905584548482528286019093526040902091909155611cc8565b506000611cc8565b600081815260018301602052604081205480156123d157600061230c6001836129e0565b8554909150600090612320906001906129e0565b905081811461238557600086600001828154811061234057612340612a09565b906000526020600020015490508087600001848154811061236357612363612a09565b6000918252602080832090910192909255918252600188019052604090208390555b855486908061239657612396612be6565b600190038181906000526020600020016000905590558560010160008681526020019081526020016000206000905560019350505050611cc8565b6000915050611cc8565b5092915050565b60608160000180548060200260200160405190810160405280929190818152602001828054801561243257602002820191906000526020600020905b81548152602001906001019080831161241e575b50505050509050919050565b6000612493826040518060400160405280602081526020017f5361666545524332303a206c6f772d6c6576656c2063616c6c206661696c6564815250856001600160a01b031661251f9092919063ffffffff16565b80519091501561099f57808060200190518101906124b19190612987565b61099f5760405162461bcd60e51b815260206004820152602a60248201527f5361666545524332303a204552433230206f7065726174696f6e20646964206e6044820152691bdd081cdd58d8d9595960b21b6064820152608401610705565b6001600160a01b03163b151590565b606061252e8484600085612536565b949350505050565b6060824710156125975760405162461bcd60e51b815260206004820152602660248201527f416464726573733a20696e73756666696369656e742062616c616e636520666f6044820152651c8818d85b1b60d21b6064820152608401610705565b6125a085612510565b6125ec5760405162461bcd60e51b815260206004820152601d60248201527f416464726573733a2063616c6c20746f206e6f6e2d636f6e74726163740000006044820152606401610705565b600080866001600160a01b031685876040516126089190612c20565b60006040518083038185875af1925050503d8060008114612645576040519150601f19603f3d011682016040523d82523d6000602084013e61264a565b606091505b50915091506106668282866060831561266457508161121b565b8251156126745782518084602001fd5b8160405162461bcd60e51b81526004016107059190612c3c565b6001600160a01b0391909116815260200190565b6001600160a01b03811681146126b757600080fd5b50565b600080604083850312156126cd57600080fd5b82356126d8816126a2565b915060208301356126e8816126a2565b809150509250929050565b6000806040838503121561270657600080fd5b8235915060208301356126e8816126a2565b6000806040838503121561272b57600080fd5b50508035926020909101359150565b6000806040838503121561274d57600080fd5b8235612758816126a2565b946020939093013593505050565b602080825282518282018190526000919060409081850190868401855b828110156127a857815180518552860151868501529284019290850190600101612783565b5091979650505050505050565b6000806000606084860312156127ca57600080fd5b83356127d5816126a2565b925060208401356127e5816126a2565b929592945050506040919091013590565b60006020828403121561280857600080fd5b813561121b816126a2565b6000806040838503121561282657600080fd5b8235915060208301356001600160401b03811681146126e857600080fd5b60008060006060848603121561285957600080fd5b8335612864816126a2565b92506020840135612874816126a2565b91506040840135612884816126a2565b809150509250925092565b6000602082840312156128a157600080fd5b5035919050565b600080600080608085870312156128be57600080fd5b84356128c9816126a2565b935060208501356128d9816126a2565b93969395505050506040820135916060013590565b634e487b7160e01b600052601160045260246000fd5b8082028115828204841417611cc857611cc86128ee565b60008261293857634e487b7160e01b600052601260045260246000fd5b500490565b80820180821115611cc857611cc86128ee565b81810360008312801583831316838312821617156123db576123db6128ee565b9182526001600160a01b0316602082015260400190565b60006020828403121561299957600080fd5b8151801515811461121b57600080fd5b6020808252601d908201527f5375417574683a206f6e6c794f776e657220415554485f4641494c4544000000604082015260600190565b81810381811115611cc857611cc86128ee565b634e487b7160e01b600052604160045260246000fd5b634e487b7160e01b600052603260045260246000fd5b600060018201612a3157612a316128ee565b5060010190565b6020808252601e908201527f55736572206d756c7469706c696361746f7220657175696c73207a65726f0000604082015260600190565b8082018281126000831280158216821582161715612a8f57612a8f6128ee565b505092915050565b6001600160801b038181168382160190808211156123db576123db6128ee565b600060208284031215612ac957600080fd5b5051919050565b600060208284031215612ae257600080fd5b815160ff8116811461121b57600080fd5b600181815b80851115612b2e578160001904821115612b1457612b146128ee565b80851615612b2157918102915b93841c9390800290612af8565b509250929050565b600082612b4557506001611cc8565b81612b5257506000611cc8565b8160018114612b685760028114612b7257612b8e565b6001915050611cc8565b60ff841115612b8357612b836128ee565b50506001821b611cc8565b5060208310610133831016604e8410600b8410161715612bb1575081810a611cc8565b612bbb8383612af3565b8060001904821115612bcf57612bcf6128ee565b029392505050565b600061121b60ff841683612b36565b634e487b7160e01b600052603160045260246000fd5b60005b83811015612c17578181015183820152602001612bff565b50506000910152565b60008251612c32818460208701612bfc565b9190910192915050565b6020815260008251806020840152612c5b816040850160208701612bfc565b601f01601f1916919091016040019291505056fea2646970667358221220930d4755cd4c9120cc367d6134e264ac3b3b0f54daac03e234fab799bd800f4364736f6c63430008110033",
  "devdoc": {
    "kind": "dev",
    "methods": {
      "rewardsBetweenBlocks(uint256,uint256)": {
        "details": "returns total amount of rewards allocated to the all pools on the rage (startBlock, endBlock]      i.e. excluding startBlock but including endBlock"
      }
    },
    "version": 1
  },
  "userdoc": {
    "kind": "user",
    "methods": {},
    "version": 1
  },
  "storageLayout": {
    "storage": [
      {
        "astId": 454,
        "contract": "contracts/reward/RewardChefV2.sol:RewardChefV2",
        "label": "_initialized",
        "offset": 0,
        "slot": "0",
        "type": "t_bool"
      },
      {
        "astId": 457,
        "contract": "contracts/reward/RewardChefV2.sol:RewardChefV2",
        "label": "_initializing",
        "offset": 1,
        "slot": "0",
        "type": "t_bool"
      },
      {
        "astId": 4347,
        "contract": "contracts/reward/RewardChefV2.sol:RewardChefV2",
        "label": "ACCESS_CONTROL_SINGLETON",
        "offset": 2,
        "slot": "0",
        "type": "t_contract(ISuAccessControl)7485"
      },
      {
        "astId": 13398,
        "contract": "contracts/reward/RewardChefV2.sol:RewardChefV2",
        "label": "poolInfo",
        "offset": 0,
        "slot": "1",
        "type": "t_mapping(t_address,t_struct(PoolInfo)7251_storage)"
      },
      {
        "astId": 13405,
        "contract": "contracts/reward/RewardChefV2.sol:RewardChefV2",
        "label": "userInfo",
        "offset": 0,
        "slot": "2",
        "type": "t_mapping(t_address,t_mapping(t_address,t_struct(UserInfo)7262_storage))"
      },
      {
        "astId": 13407,
        "contract": "contracts/reward/RewardChefV2.sol:RewardChefV2",
        "label": "totalAllocPoint",
        "offset": 0,
        "slot": "3",
        "type": "t_uint256"
      },
      {
        "astId": 13410,
        "contract": "contracts/reward/RewardChefV2.sol:RewardChefV2",
        "label": "assetSet",
        "offset": 0,
        "slot": "4",
        "type": "t_struct(AddressSet)2156_storage"
      },
      {
        "astId": 13416,
        "contract": "contracts/reward/RewardChefV2.sol:RewardChefV2",
        "label": "REWARD_TOKEN",
        "offset": 0,
        "slot": "6",
        "type": "t_contract(IERC20Upgradeable)658"
      },
      {
        "astId": 13419,
        "contract": "contracts/reward/RewardChefV2.sol:RewardChefV2",
        "label": "ORACLE",
        "offset": 0,
        "slot": "7",
        "type": "t_contract(ISuOracle)7959"
      },
      {
        "astId": 13421,
        "contract": "contracts/reward/RewardChefV2.sol:RewardChefV2",
        "label": "rewardPerBlock",
        "offset": 0,
        "slot": "8",
        "type": "t_uint256"
      },
      {
        "astId": 13423,
        "contract": "contracts/reward/RewardChefV2.sol:RewardChefV2",
        "label": "rewardEndBlock",
        "offset": 0,
        "slot": "9",
        "type": "t_uint256"
      },
      {
        "astId": 13544,
        "contract": "contracts/reward/RewardChefV2.sol:RewardChefV2",
        "label": "multiplicator1e18ForLockupPeriod",
        "offset": 0,
        "slot": "10",
        "type": "t_mapping(t_uint256,t_uint256)"
      },
      {
        "astId": 13547,
        "contract": "contracts/reward/RewardChefV2.sol:RewardChefV2",
        "label": "possibleLockupPeriodsSeconds",
        "offset": 0,
        "slot": "11",
        "type": "t_struct(UintSet)2313_storage"
      }
    ],
    "types": {
      "t_address": {
        "encoding": "inplace",
        "label": "address",
        "numberOfBytes": "20"
      },
      "t_array(t_bytes32)dyn_storage": {
        "base": "t_bytes32",
        "encoding": "dynamic_array",
        "label": "bytes32[]",
        "numberOfBytes": "32"
      },
      "t_bool": {
        "encoding": "inplace",
        "label": "bool",
        "numberOfBytes": "1"
      },
      "t_bytes32": {
        "encoding": "inplace",
        "label": "bytes32",
        "numberOfBytes": "32"
      },
      "t_contract(IERC20Upgradeable)658": {
        "encoding": "inplace",
        "label": "contract IERC20Upgradeable",
        "numberOfBytes": "20"
      },
      "t_contract(ISuAccessControl)7485": {
        "encoding": "inplace",
        "label": "contract ISuAccessControl",
        "numberOfBytes": "20"
      },
      "t_contract(ISuOracle)7959": {
        "encoding": "inplace",
        "label": "contract ISuOracle",
        "numberOfBytes": "20"
      },
      "t_int256": {
        "encoding": "inplace",
        "label": "int256",
        "numberOfBytes": "32"
      },
      "t_mapping(t_address,t_mapping(t_address,t_struct(UserInfo)7262_storage))": {
        "encoding": "mapping",
        "key": "t_address",
        "label": "mapping(address => mapping(address => struct IRewardChefV2.UserInfo))",
        "numberOfBytes": "32",
        "value": "t_mapping(t_address,t_struct(UserInfo)7262_storage)"
      },
      "t_mapping(t_address,t_struct(PoolInfo)7251_storage)": {
        "encoding": "mapping",
        "key": "t_address",
        "label": "mapping(address => struct IRewardChefV2.PoolInfo)",
        "numberOfBytes": "32",
        "value": "t_struct(PoolInfo)7251_storage"
      },
      "t_mapping(t_address,t_struct(UserInfo)7262_storage)": {
        "encoding": "mapping",
        "key": "t_address",
        "label": "mapping(address => struct IRewardChefV2.UserInfo)",
        "numberOfBytes": "32",
        "value": "t_struct(UserInfo)7262_storage"
      },
      "t_mapping(t_bytes32,t_uint256)": {
        "encoding": "mapping",
        "key": "t_bytes32",
        "label": "mapping(bytes32 => uint256)",
        "numberOfBytes": "32",
        "value": "t_uint256"
      },
      "t_mapping(t_uint256,t_uint256)": {
        "encoding": "mapping",
        "key": "t_uint256",
        "label": "mapping(uint256 => uint256)",
        "numberOfBytes": "32",
        "value": "t_uint256"
      },
      "t_struct(AddressSet)2156_storage": {
        "encoding": "inplace",
        "label": "struct EnumerableSetUpgradeable.AddressSet",
        "members": [
          {
            "astId": 2155,
            "contract": "contracts/reward/RewardChefV2.sol:RewardChefV2",
            "label": "_inner",
            "offset": 0,
            "slot": "0",
            "type": "t_struct(Set)1855_storage"
          }
        ],
        "numberOfBytes": "64"
      },
      "t_struct(PoolInfo)7251_storage": {
        "encoding": "inplace",
        "label": "struct IRewardChefV2.PoolInfo",
        "members": [
          {
            "astId": 7244,
            "contract": "contracts/reward/RewardChefV2.sol:RewardChefV2",
            "label": "accSushiPerShare",
            "offset": 0,
            "slot": "0",
            "type": "t_uint128"
          },
          {
            "astId": 7246,
            "contract": "contracts/reward/RewardChefV2.sol:RewardChefV2",
            "label": "lastRewardBlock",
            "offset": 16,
            "slot": "0",
            "type": "t_uint64"
          },
          {
            "astId": 7248,
            "contract": "contracts/reward/RewardChefV2.sol:RewardChefV2",
            "label": "allocPoint",
            "offset": 24,
            "slot": "0",
            "type": "t_uint64"
          },
          {
            "astId": 7250,
            "contract": "contracts/reward/RewardChefV2.sol:RewardChefV2",
            "label": "lpSupply",
            "offset": 0,
            "slot": "1",
            "type": "t_uint256"
          }
        ],
        "numberOfBytes": "64"
      },
      "t_struct(Set)1855_storage": {
        "encoding": "inplace",
        "label": "struct EnumerableSetUpgradeable.Set",
        "members": [
          {
            "astId": 1850,
            "contract": "contracts/reward/RewardChefV2.sol:RewardChefV2",
            "label": "_values",
            "offset": 0,
            "slot": "0",
            "type": "t_array(t_bytes32)dyn_storage"
          },
          {
            "astId": 1854,
            "contract": "contracts/reward/RewardChefV2.sol:RewardChefV2",
            "label": "_indexes",
            "offset": 0,
            "slot": "1",
            "type": "t_mapping(t_bytes32,t_uint256)"
          }
        ],
        "numberOfBytes": "64"
      },
      "t_struct(UintSet)2313_storage": {
        "encoding": "inplace",
        "label": "struct EnumerableSetUpgradeable.UintSet",
        "members": [
          {
            "astId": 2312,
            "contract": "contracts/reward/RewardChefV2.sol:RewardChefV2",
            "label": "_inner",
            "offset": 0,
            "slot": "0",
            "type": "t_struct(Set)1855_storage"
          }
        ],
        "numberOfBytes": "64"
      },
      "t_struct(UserInfo)7262_storage": {
        "encoding": "inplace",
        "label": "struct IRewardChefV2.UserInfo",
        "members": [
          {
            "astId": 7253,
            "contract": "contracts/reward/RewardChefV2.sol:RewardChefV2",
            "label": "amount",
            "offset": 0,
            "slot": "0",
            "type": "t_uint256"
          },
          {
            "astId": 7255,
            "contract": "contracts/reward/RewardChefV2.sol:RewardChefV2",
            "label": "rewardDebt",
            "offset": 0,
            "slot": "1",
            "type": "t_int256"
          },
          {
            "astId": 7257,
            "contract": "contracts/reward/RewardChefV2.sol:RewardChefV2",
            "label": "multiplicator1e18",
            "offset": 0,
            "slot": "2",
            "type": "t_uint256"
          },
          {
            "astId": 7259,
            "contract": "contracts/reward/RewardChefV2.sol:RewardChefV2",
            "label": "lockupPeriodSeconds",
            "offset": 0,
            "slot": "3",
            "type": "t_uint256"
          },
          {
            "astId": 7261,
            "contract": "contracts/reward/RewardChefV2.sol:RewardChefV2",
            "label": "lockupStartTimestamp",
            "offset": 0,
            "slot": "4",
            "type": "t_uint256"
          }
        ],
        "numberOfBytes": "160"
      },
      "t_uint128": {
        "encoding": "inplace",
        "label": "uint128",
        "numberOfBytes": "16"
      },
      "t_uint256": {
        "encoding": "inplace",
        "label": "uint256",
        "numberOfBytes": "32"
      },
      "t_uint64": {
        "encoding": "inplace",
        "label": "uint64",
        "numberOfBytes": "8"
      }
    }
  }
}