{
  "address": "0x9Fa1Ad70BAEbf7b446c67024fd7DFdD929468028",
  "abi": [
    {
      "inputs": [],
      "name": "BadAccessControlSingleton",
      "type": "error"
    },
    {
      "inputs": [],
      "name": "OnlyAdminError",
      "type": "error"
    },
    {
      "inputs": [],
      "name": "OnlyAlerterError",
      "type": "error"
    },
    {
      "inputs": [],
      "name": "OnlyDAOError",
      "type": "error"
    },
    {
      "inputs": [],
      "name": "OnlyLiquidationAccessError",
      "type": "error"
    },
    {
      "inputs": [],
      "name": "OnlyMintAccessError",
      "type": "error"
    },
    {
      "inputs": [],
      "name": "OnlyRewardAccessError",
      "type": "error"
    },
    {
      "inputs": [],
      "name": "OnlyVaultAccessError",
      "type": "error"
    },
    {
      "anonymous": false,
      "inputs": [
        {
          "indexed": true,
          "internalType": "address",
          "name": "user",
          "type": "address"
        },
        {
          "indexed": true,
          "internalType": "address",
          "name": "asset",
          "type": "address"
        },
        {
          "indexed": false,
          "internalType": "uint256",
          "name": "amount",
          "type": "uint256"
        }
      ],
      "name": "Harvest",
      "type": "event"
    },
    {
      "anonymous": false,
      "inputs": [
        {
          "indexed": false,
          "internalType": "uint8",
          "name": "version",
          "type": "uint8"
        }
      ],
      "name": "Initialized",
      "type": "event"
    },
    {
      "anonymous": false,
      "inputs": [
        {
          "indexed": true,
          "internalType": "address",
          "name": "asset",
          "type": "address"
        },
        {
          "indexed": false,
          "internalType": "uint256",
          "name": "allocPoint",
          "type": "uint256"
        }
      ],
      "name": "LogPoolAddition",
      "type": "event"
    },
    {
      "anonymous": false,
      "inputs": [
        {
          "indexed": true,
          "internalType": "address",
          "name": "asset",
          "type": "address"
        },
        {
          "indexed": false,
          "internalType": "uint256",
          "name": "allocPoint",
          "type": "uint256"
        }
      ],
      "name": "LogSetPool",
      "type": "event"
    },
    {
      "anonymous": false,
      "inputs": [
        {
          "indexed": true,
          "internalType": "address",
          "name": "asset",
          "type": "address"
        },
        {
          "indexed": false,
          "internalType": "uint64",
          "name": "lastRewardBlock",
          "type": "uint64"
        },
        {
          "indexed": false,
          "internalType": "uint256",
          "name": "lpSupply",
          "type": "uint256"
        },
        {
          "indexed": false,
          "internalType": "uint256",
          "name": "accSushiPerShare",
          "type": "uint256"
        }
      ],
      "name": "LogUpdatePool",
      "type": "event"
    },
    {
      "anonymous": false,
      "inputs": [
        {
          "indexed": true,
          "internalType": "address",
          "name": "user",
          "type": "address"
        },
        {
          "indexed": true,
          "internalType": "address",
          "name": "asset",
          "type": "address"
        },
        {
          "indexed": true,
          "internalType": "address",
          "name": "to",
          "type": "address"
        },
        {
          "indexed": false,
          "internalType": "uint256",
          "name": "amount",
          "type": "uint256"
        },
        {
          "indexed": false,
          "internalType": "uint256",
          "name": "lockupPeriodSeconds",
          "type": "uint256"
        }
      ],
      "name": "ResetAmount",
      "type": "event"
    },
    {
      "anonymous": false,
      "inputs": [
        {
          "indexed": true,
          "internalType": "address",
          "name": "user",
          "type": "address"
        },
        {
          "indexed": true,
          "internalType": "address",
          "name": "asset",
          "type": "address"
        },
        {
          "indexed": false,
          "internalType": "uint256",
          "name": "amount",
          "type": "uint256"
        }
      ],
      "name": "VirtualDeposit",
      "type": "event"
    },
    {
      "anonymous": false,
      "inputs": [
        {
          "indexed": true,
          "internalType": "address",
          "name": "user",
          "type": "address"
        },
        {
          "indexed": true,
          "internalType": "address",
          "name": "asset",
          "type": "address"
        },
        {
          "indexed": false,
          "internalType": "uint256",
          "name": "amount",
          "type": "uint256"
        }
      ],
      "name": "VirtualWithdraw",
      "type": "event"
    },
    {
      "inputs": [],
      "name": "ACCESS_CONTROL_SINGLETON",
      "outputs": [
        {
          "internalType": "contract ISuAccessControl",
          "name": "",
          "type": "address"
        }
      ],
      "stateMutability": "view",
      "type": "function"
    },
    {
      "inputs": [],
      "name": "ADMIN_ROLE",
      "outputs": [
        {
          "internalType": "bytes32",
          "name": "",
          "type": "bytes32"
        }
      ],
      "stateMutability": "view",
      "type": "function"
    },
    {
      "inputs": [],
      "name": "ALERTER_ROLE",
      "outputs": [
        {
          "internalType": "bytes32",
          "name": "",
          "type": "bytes32"
        }
      ],
      "stateMutability": "view",
      "type": "function"
    },
    {
      "inputs": [],
      "name": "DAO_ROLE",
      "outputs": [
        {
          "internalType": "bytes32",
          "name": "",
          "type": "bytes32"
        }
      ],
      "stateMutability": "view",
      "type": "function"
    },
    {
      "inputs": [],
      "name": "LIQUIDATION_ACCESS_ROLE",
      "outputs": [
        {
          "internalType": "bytes32",
          "name": "",
          "type": "bytes32"
        }
      ],
      "stateMutability": "view",
      "type": "function"
    },
    {
      "inputs": [],
      "name": "MINT_ACCESS_ROLE",
      "outputs": [
        {
          "internalType": "bytes32",
          "name": "",
          "type": "bytes32"
        }
      ],
      "stateMutability": "view",
      "type": "function"
    },
    {
      "inputs": [],
      "name": "ORACLE",
      "outputs": [
        {
          "internalType": "contract ISuOracle",
          "name": "",
          "type": "address"
        }
      ],
      "stateMutability": "view",
      "type": "function"
    },
    {
      "inputs": [],
      "name": "REWARD_ACCESS_ROLE",
      "outputs": [
        {
          "internalType": "bytes32",
          "name": "",
          "type": "bytes32"
        }
      ],
      "stateMutability": "view",
      "type": "function"
    },
    {
      "inputs": [],
      "name": "REWARD_TOKEN",
      "outputs": [
        {
          "internalType": "contract IERC20Upgradeable",
          "name": "",
          "type": "address"
        }
      ],
      "stateMutability": "view",
      "type": "function"
    },
    {
      "inputs": [],
      "name": "VAULT_ACCESS_ROLE",
      "outputs": [
        {
          "internalType": "bytes32",
          "name": "",
          "type": "bytes32"
        }
      ],
      "stateMutability": "view",
      "type": "function"
    },
    {
      "inputs": [
        {
          "internalType": "uint256",
          "name": "allocPoint",
          "type": "uint256"
        },
        {
          "internalType": "address",
          "name": "_asset",
          "type": "address"
        }
      ],
      "name": "add",
      "outputs": [],
      "stateMutability": "nonpayable",
      "type": "function"
    },
    {
      "inputs": [
        {
          "internalType": "address",
          "name": "asset",
          "type": "address"
        },
        {
          "internalType": "address",
          "name": "to",
          "type": "address"
        },
        {
          "internalType": "uint256",
          "name": "amountEDecimal",
          "type": "uint256"
        }
      ],
      "name": "decreaseAmount",
      "outputs": [],
      "stateMutability": "nonpayable",
      "type": "function"
    },
    {
      "inputs": [
        {
          "internalType": "address",
          "name": "asset",
          "type": "address"
        },
        {
          "internalType": "address",
          "name": "to",
          "type": "address"
        },
        {
          "internalType": "uint256",
          "name": "amountEDecimal",
          "type": "uint256"
        }
      ],
      "name": "decreaseAmountRewardPenalty",
      "outputs": [
        {
          "internalType": "uint256",
          "name": "",
          "type": "uint256"
        }
      ],
      "stateMutability": "view",
      "type": "function"
    },
    {
      "inputs": [
        {
          "internalType": "address",
          "name": "_asset",
          "type": "address"
        },
        {
          "internalType": "address",
          "name": "_user",
          "type": "address"
        }
      ],
      "name": "getHarvestLockupEndTimestamp",
      "outputs": [
        {
          "internalType": "uint256",
          "name": "",
          "type": "uint256"
        }
      ],
      "stateMutability": "view",
      "type": "function"
    },
    {
      "inputs": [
        {
          "internalType": "address",
          "name": "asset",
          "type": "address"
        }
      ],
      "name": "getPoolApr",
      "outputs": [
        {
          "internalType": "uint256",
          "name": "",
          "type": "uint256"
        }
      ],
      "stateMutability": "view",
      "type": "function"
    },
    {
      "inputs": [],
      "name": "getPossibleLockupPeriodsSeconds",
      "outputs": [
        {
          "components": [
            {
              "internalType": "uint256",
              "name": "lockupPeriodSeconds",
              "type": "uint256"
            },
            {
              "internalType": "uint256",
              "name": "multiplicator1e18",
              "type": "uint256"
            }
          ],
          "internalType": "struct IRewardChefV2.ILockupPeriod[]",
          "name": "",
          "type": "tuple[]"
        }
      ],
      "stateMutability": "view",
      "type": "function"
    },
    {
      "inputs": [
        {
          "internalType": "address",
          "name": "asset",
          "type": "address"
        },
        {
          "internalType": "address",
          "name": "to",
          "type": "address"
        },
        {
          "internalType": "uint256",
          "name": "newLockupPeriodSeconds",
          "type": "uint256"
        }
      ],
      "name": "harvest",
      "outputs": [],
      "stateMutability": "nonpayable",
      "type": "function"
    },
    {
      "inputs": [
        {
          "internalType": "address",
          "name": "asset",
          "type": "address"
        },
        {
          "internalType": "address",
          "name": "to",
          "type": "address"
        },
        {
          "internalType": "uint256",
          "name": "amountEDecimal",
          "type": "uint256"
        },
        {
          "internalType": "uint256",
          "name": "lockupPeriodSeconds",
          "type": "uint256"
        }
      ],
      "name": "increaseAmount",
      "outputs": [],
      "stateMutability": "nonpayable",
      "type": "function"
    },
    {
      "inputs": [
        {
          "internalType": "address",
          "name": "_authControl",
          "type": "address"
        },
        {
          "internalType": "contract IERC20Upgradeable",
          "name": "_rewardToken",
          "type": "address"
        },
        {
          "internalType": "contract ISuOracle",
          "name": "_oracle",
          "type": "address"
        }
      ],
      "name": "initialize",
      "outputs": [],
      "stateMutability": "nonpayable",
      "type": "function"
    },
    {
      "inputs": [
        {
          "internalType": "uint256",
          "name": "",
          "type": "uint256"
        }
      ],
      "name": "multiplicator1e18ForLockupPeriod",
      "outputs": [
        {
          "internalType": "uint256",
          "name": "",
          "type": "uint256"
        }
      ],
      "stateMutability": "view",
      "type": "function"
    },
    {
      "inputs": [
        {
          "internalType": "address",
          "name": "_asset",
          "type": "address"
        },
        {
          "internalType": "address",
          "name": "_user",
          "type": "address"
        }
      ],
      "name": "pendingSushi",
      "outputs": [
        {
          "internalType": "uint256",
          "name": "pending",
          "type": "uint256"
        }
      ],
      "stateMutability": "view",
      "type": "function"
    },
    {
      "inputs": [
        {
          "internalType": "address",
          "name": "",
          "type": "address"
        }
      ],
      "name": "poolInfo",
      "outputs": [
        {
          "internalType": "uint128",
          "name": "accSushiPerShare",
          "type": "uint128"
        },
        {
          "internalType": "uint64",
          "name": "lastRewardBlock",
          "type": "uint64"
        },
        {
          "internalType": "uint64",
          "name": "allocPoint",
          "type": "uint64"
        },
        {
          "internalType": "uint256",
          "name": "lpSupply",
          "type": "uint256"
        }
      ],
      "stateMutability": "view",
      "type": "function"
    },
    {
      "inputs": [
        {
          "internalType": "uint256",
          "name": "amount",
          "type": "uint256"
        },
        {
          "internalType": "uint64",
          "name": "endBlock",
          "type": "uint64"
        }
      ],
      "name": "refillReward",
      "outputs": [],
      "stateMutability": "nonpayable",
      "type": "function"
    },
    {
      "inputs": [
        {
          "internalType": "address",
          "name": "asset",
          "type": "address"
        },
        {
          "internalType": "address",
          "name": "to",
          "type": "address"
        }
      ],
      "name": "resetAmount",
      "outputs": [],
      "stateMutability": "nonpayable",
      "type": "function"
    },
    {
      "inputs": [],
      "name": "rewardEndBlock",
      "outputs": [
        {
          "internalType": "uint256",
          "name": "",
          "type": "uint256"
        }
      ],
      "stateMutability": "view",
      "type": "function"
    },
    {
      "inputs": [],
      "name": "rewardPerBlock",
      "outputs": [
        {
          "internalType": "uint256",
          "name": "",
          "type": "uint256"
        }
      ],
      "stateMutability": "view",
      "type": "function"
    },
    {
      "inputs": [
        {
          "internalType": "uint256",
          "name": "startBlock",
          "type": "uint256"
        },
        {
          "internalType": "uint256",
          "name": "endBlock",
          "type": "uint256"
        }
      ],
      "name": "rewardsBetweenBlocks",
      "outputs": [
        {
          "internalType": "uint256",
          "name": "",
          "type": "uint256"
        }
      ],
      "stateMutability": "view",
      "type": "function"
    },
    {
      "inputs": [
        {
          "internalType": "address",
          "name": "_asset",
          "type": "address"
        },
        {
          "internalType": "uint256",
          "name": "_allocPoint",
          "type": "uint256"
        }
      ],
      "name": "set",
      "outputs": [],
      "stateMutability": "nonpayable",
      "type": "function"
    },
    {
      "inputs": [
        {
          "internalType": "uint256",
          "name": "lockupPeriodSeconds",
          "type": "uint256"
        },
        {
          "internalType": "uint256",
          "name": "multiplicator1e18",
          "type": "uint256"
        }
      ],
      "name": "setPossibleLockupPeriodsSeconds",
      "outputs": [],
      "stateMutability": "nonpayable",
      "type": "function"
    },
    {
      "inputs": [
        {
          "internalType": "bytes4",
          "name": "interfaceId",
          "type": "bytes4"
        }
      ],
      "name": "supportsInterface",
      "outputs": [
        {
          "internalType": "bool",
          "name": "",
          "type": "bool"
        }
      ],
      "stateMutability": "view",
      "type": "function"
    },
    {
      "inputs": [],
      "name": "totalAllocPoint",
      "outputs": [
        {
          "internalType": "uint256",
          "name": "",
          "type": "uint256"
        }
      ],
      "stateMutability": "view",
      "type": "function"
    },
    {
      "inputs": [],
      "name": "updateAllPools",
      "outputs": [],
      "stateMutability": "nonpayable",
      "type": "function"
    },
    {
      "inputs": [
        {
          "internalType": "address",
          "name": "asset",
          "type": "address"
        }
      ],
      "name": "updatePool",
      "outputs": [
        {
          "components": [
            {
              "internalType": "uint128",
              "name": "accSushiPerShare",
              "type": "uint128"
            },
            {
              "internalType": "uint64",
              "name": "lastRewardBlock",
              "type": "uint64"
            },
            {
              "internalType": "uint64",
              "name": "allocPoint",
              "type": "uint64"
            },
            {
              "internalType": "uint256",
              "name": "lpSupply",
              "type": "uint256"
            }
          ],
          "internalType": "struct IRewardChefV2.PoolInfo",
          "name": "pool",
          "type": "tuple"
        }
      ],
      "stateMutability": "nonpayable",
      "type": "function"
    },
    {
      "inputs": [
        {
          "internalType": "address",
          "name": "",
          "type": "address"
        },
        {
          "internalType": "address",
          "name": "",
          "type": "address"
        }
      ],
      "name": "userInfo",
      "outputs": [
        {
          "internalType": "uint256",
          "name": "amount",
          "type": "uint256"
        },
        {
          "internalType": "int256",
          "name": "rewardDebt",
          "type": "int256"
        },
        {
          "internalType": "uint256",
          "name": "multiplicator1e18",
          "type": "uint256"
        },
        {
          "internalType": "uint256",
          "name": "lockupPeriodSeconds",
          "type": "uint256"
        },
        {
          "internalType": "uint256",
          "name": "lockupStartTimestamp",
          "type": "uint256"
        }
      ],
      "stateMutability": "view",
      "type": "function"
    }
  ],
  "numDeployments": 6,
  "solcInputHash": "dd557791782b2a744fb91d3e74be9d42",
  "bytecode": "0x60808060405234610016576129b1908161001c8239f35b600080fdfe6080604081815260048036101561001557600080fd5b600092833560e01c90816301ffc9a714611ada5750806303ee9f2214611aae5780630f208beb14611a3b57806314c376dc14611a0057806317caf6f1146119e15780631d40e439146119b35780632b8bbbe81461181c5780632fcd4bc01461170357806338013f02146116da5780633825d82814611548578063438280dd1461151f578063604ef2e51461150057806369827402146113775780636aed34f71461119257806375b238fc146111775780637b46c54f1461111c57806387d483161461110057806387ee8c4c14610f555780638ae39cac14610f365780638e5313e014610efb57806399248ea714610ed25780639a7b5f1114610e6d578063a7533e0914610b0e578063b9ec7d7414610aef578063c0c53b8b14610886578063c2ceb95f146105ef578063cf4f68d5146104d6578063dc97e84e1461049b578063e63ab1e914610460578063e68f850214610439578063e9c2651814610410578063eeba3c3f146103e95763f7bfea2c1461018e57600080fd5b346103e55760803660031901126103e5576101a7611b6c565b906101b0611b87565b916064359160018060a01b039485875460101c169281518094632474521560e21b825260008051602061295c8339815191528583015233602483015281604460209788935afa9081156103db5789916103ae575b50156103a057866102148261254d565b911696878952600285528289209616958689528452818820926003840195865496871560001461032a5760008051602061293c8339815191529750818b52600a8752848b205460028701555542908401555b600180670de0b6b3a764000061028d600287015461028581151561280f565b604435611cad565b049461029a868254611cc0565b815501918254926102cd838060801b03946102c764e8d4a510006102c1888751168b611cad565b046124e6565b9061285b565b905561031e60608201916102e2878451611cc0565b83528a8c52838852858c2094815116848060801b031986541617855585848060401b0391610315838b8301511688612228565b01511684612251565b5191015551908152a380f35b509091929394950361034f57509060008051602061293c833981519152939291610266565b825162461bcd60e51b8152908101859052602560248201527f4578697374696e67206465706f7369742068617320646966666572656e74206c60448201526406f636b75760dc1b6064820152608490fd5b5051631a3d931f60e31b8152fd5b6103ce9150853d87116103d4575b6103c68183611c4f565b810190611c72565b38610204565b503d6103bc565b83513d8b823e3d90fd5b8280fd5b50503461040c576020906104056103ff36611b9d565b90611efd565b9051908152f35b5080fd5b50503461040c578160031936011261040c576020905160008051602061291c8339815191528152f35b50346103e55760203660031901126103e5576020928291358152600a845220549051908152f35b50503461040c578160031936011261040c57602090517f65d7a28e3265b37a6474929f336521b332c1681b933f6cb9f3376673440d862a8152f35b50503461040c578160031936011261040c57602090517f9a9aef7c1247d5fc769b0185c052913e39673da29a880317dfd20ebf86f26a498152f35b50346103e557816003193601126103e5576104ef611b6c565b907f0b29f3a03cca6d26633adab7fad4d1d3383ee338e01e04ebcf40d0beff8838fe610519611b87565b9260018060a01b03809116938487526001602052848760028882209681602052898320338452602052828a808220928354809b600386019384549961056360018401948554611c8a565b84558652600160205285209181830361059d575b50505082845582600185015542908401555501558651948552602085015216933392a480f35b815483546001600160801b0319166001600160801b039190911617835581546001926105e3916105d99060801c6001600160401b031686612228565b5460c01c84612251565b54910155388080610577565b5082903461040c5761060036611bb3565b9461060a8361254d565b9360018060a01b038094169485875260209360028552838820338952855283882090838201926106408454600385015490611cc0565b4210610837576002830193845415156106589061280f565b83549b64e8d4a510009182600160801b600190039e8f86511661067a91611cad565b04610684906124e6565b9a8a60018801968d8854610697916122dc565b6106a090612497565b9d88558d6107f8575b5050504290558b52600a8852868b20549586156107b557507fa0306f61d3fafe13787b78e276cb6b644382854a66cb46daae14227d3ec2679798999a9b85548780821060001461074a576102c191506102c793928761072f61072861071b946107238d61073c9c9d5497889384611cad565b905490611ccd565b611c8a565b8094611cc0565b9055875495511690611cad565b90555b55519283523392a380f35b9290949193838611610763575b5050505050505061073f565b61079a6107a0926102c161078e6107886107a79a6107838d549a8b611cad565b611ccd565b88611c8a565b97865494511688611cad565b906122dc565b9055611c8a565b905588808084818080610757565b875162461bcd60e51b8152908101899052601d60248201527f4e6577206d756c7469706c696361746f7220657175696c73207a65726f0000006044820152606490fd5b8261082f9360065416918d519363a9059cbb60e01b908501521660248301528d60448301526044825261082a82611be8565b611ced565b8e8a816106a9565b855162461bcd60e51b8152808601889052602360248201527f43616e27742068617276657374206265666f7265206c6f636b7570206973206f6044820152623b32b960e91b6064820152608490fd5b50346103e55760603660031901126103e5576108a0611b6c565b916001600160a01b039160243583811690819003610aeb5760443590848216809203610ae75786549260ff8460081c161593848095610ada575b8015610ac3575b15610a695760ff198116600117895584610a58575b5087549560ff8760081c1615610a015762010000600160b01b03601089901b1662010000600160b01b0319881681178a5586516301ffc9a760e01b8152637965db0b60e01b848201529098909160209183916024918391165afa9081156109f75789916109d9575b50156109cb575060018060a01b0319908160065416176006556007541617600755610987578380f35b610100600160b01b0319909116909117825551600181527f7f26b83ff96e1f2b6a682f133852f6798a09c465da95921460cefb384740249890602090a13880808380f35b84516384d942fd60e01b8152fd5b6109f1915060203d81116103d4576103c68183611c4f565b3861095e565b86513d8b823e3d90fd5b855162461bcd60e51b8152602081840152602b60248201527f496e697469616c697a61626c653a20636f6e7472616374206973206e6f74206960448201526a6e697469616c697a696e6760a81b6064820152608490fd5b61ffff1916610101178855386108f6565b855162461bcd60e51b8152602081840152602e60248201527f496e697469616c697a61626c653a20636f6e747261637420697320616c72656160448201526d191e481a5b9a5d1a585b1a5e995960921b6064820152608490fd5b50303b1580156108e15750600160ff8216146108e1565b50600160ff8216106108da565b8680fd5b8580fd5b8334610b0b5780600319360112610b0b57610b0861276d565b80f35b80fd5b50346103e55760209283600319360112610b0b576001600160a01b039182610b34611b6c565b1691828152600186526001858220015415610e1a576003548015610dc757600954431015610d7457610b7a9061078360085486855260018a528885205460c01c90611cad565b9084600754169460065416948651631735856760e31b968782528582015260249389828681865afa918215610d6a578492610d37575b508060021b90808204871490151715610d1257603c810290808204603c1481151715610d25576105a081029180830460181490151715610d255762080ac0029080820461016e1490151715610d12578991610c0a91611cad565b9684895180948193825289898301525afa908115610cd557849189918491610cdf575b5086845260018083528985200154610c4491611cad565b9588519283809263313ce56760e01b82525afa8015610cd5578290610c9d575b60ff91501692604d8411610c8d575050506104059291610c8791600a0a90611ccd565b90611ccd565b634e487b7160e01b825260119052fd5b508781813d8311610cce575b610cb38183611c4f565b8101031261040c575160ff8116810361040c5760ff90610c64565b503d610ca9565b87513d84823e3d90fd5b92505081813d8311610d0b575b610cf68183611c4f565b8101031261040c5787610c4485925190610c2d565b503d610cec565b5050634e487b7160e01b82525060118352fd5b634e487b7160e01b8552601187528585fd5b9091508981813d8311610d63575b610d4f8183611c4f565b81010312610d5f57519038610bb0565b8380fd5b503d610d45565b89513d86823e3d90fd5b855162461bcd60e51b8152808401889052602760248201527f526577617264436865663a2056657374696e6720697320616c726561647920666044820152661a5b9a5cda195960ca1b6064820152608490fd5b855162461bcd60e51b8152808401889052602760248201527f526577617264436865663a20546f74616c20616c6c6f636174696f6e20706f6960448201526606e7420697320360cc1b6064820152608490fd5b845162461bcd60e51b8152808301879052602760248201527f526577617264436865663a20506f6f6c20646f65736e27742068617665206c696044820152667175696469747960c81b6064820152608490fd5b50503461040c57602036600319011261040c5760809181906001600160a01b03610e95611b6c565b168152600160205220906001825492015490805192600180861b038116845260018060401b0381861c16602085015260c01c908301526060820152f35b50503461040c578160031936011261040c5760065490516001600160a01b039091168152602090f35b50503461040c578160031936011261040c57602090517fe453bacb314e78dcd5192e6b1a2b1f0e7c76e92f6b7e429a6a90f04e39db3b768152f35b50503461040c578160031936011261040c576020906008549051908152f35b5090346103e557806003193601126103e5576024356001600160401b03811692803592918490036110fc5784548251632474521560e21b81528083018790523360248201526001600160a01b0392916020908290604490829060101c87165afa9081156110f25787916110d4575b50156110c6574385111561106d5750916110196110299261103394610fe661276d565b60065491516323b872dd60e01b602082015233602482015230604482015260648082018690528152911661082a82611c34565b846009548061103c575b50611cc0565b610c874384611c8a565b60085560095580f35b8091504310600014611066576110609061105a600854914390611c8a565b90611cad565b38611023565b5084611060565b608490602084519162461bcd60e51b8352820152602d60248201527f456e64426c6f636b2073686f756c642062652067726561746572207468616e2060448201526c63757272656e7420626c6f636b60981b6064820152fd5b8251631886ea7d60e11b8152fd5b6110ec915060203d81116103d4576103c68183611c4f565b38610fc3565b84513d89823e3d90fd5b8480fd5b50503461040c5760209061040561111636611bb3565b91612877565b50503461040c57602036600319011261040c57608090606061114461113f611b6c565b61254d565b825192600180861b03825116845260018060401b0380602084015116602086015281830151169084015201516060820152f35b50503461040c578160031936011261040c5751908152602090f35b5090346103e5576111a236611bb3565b85548451632474521560e21b815260008051602061295c8339815191528188015233602482015291956001600160a01b039560209493909285908290604490829060101c8b165afa9081156103db57899161135a575b501561134c576112078561254d565b9686861697888a5260028652838a2097851697888b5286528984812092600284019081549061123782151561280f565b839686019889549b61124f600389019d8e5490611cc0565b4210611331575b50509061126291611cad565b670de0b6b3a76400009004966001850194855496600160801b60019003978887511661128e908c611cad565b64e8d4a51000900461129f906124e6565b6112a8916122dc565b906112b2906124e6565b6112bb9161285b565b809655888154906112cb91611c8a565b80915515998a6001967f5c89d0cd1567084571f8083b115429597fe4af296968d67b6b7ebc9d12777e879c611328575b50611318575b5050505061031e60608201916102e2878451611c8a565b8391429055555589388080611301565b905015386112fb565b82985091611343916112629493612877565b96909138611256565b9051631a3d931f60e31b8152fd5b6113719150853d87116103d4576103c68183611c4f565b386111f8565b50503461040c578160031936011261040c578051600b80548083529084529192602092838301907f0175b7a638427703f0dbe7bb9bbf987a2551717b34e79f33b5b1008d1fa01db990835b8181106114ec57505050826113d8910383611c4f565b81516113e381611f43565b926113f086519485611c4f565b818452601f196113ff83611f43565b01835b8181106114c2575050825b82811061146257505050835193838594850191818652845180935281818701950193905b83821061143e5786860387f35b84518051875283015186840152879650948501949382019360019190910190611431565b806114756114b892849997989699611f69565b516114808285611f69565b518952600a86528689205487519161149783611c19565b8252868201526114a78289611f69565b526114b28188611f69565b50611f5a565b959294939561140d565b95879596819598516114d381611c19565b898152898382015282828a010152019693959496611402565b8254845292860192600192830192016113c2565b50503461040c578160031936011261040c576020906009549051908152f35b50503461040c578160031936011261040c576020905160008051602061295c8339815191528152f35b5090346103e557806003193601126103e557611562611b6c565b906024359060018060a01b039283865460101c169382518095632474521560e21b8252888883015233602483015281604460209889935afa9081156116d05788916116b3575b50156116a3578116808752600185528287205490959060801c6001600160401b03161561166b5750906115fd7f57096e403eca2ab85e7ad27527b2efe1598aaf6760715227633947f3652a0f6b94939261254d565b50848652600183528086205460c01c6116218361161c83600354611c8a565b611cc0565b60035561163f61163084612274565b87895260018652838920612251565b82611658575061164e8561217f565b505b51908152a280f35b6116505761166585611fc9565b50611650565b825162461bcd60e51b81529081018590526012602482015271141bdbdb08191bd95cdb89dd08195e1a5cdd60721b6044820152606490fd5b8251631886ea7d60e11b81528690fd5b6116ca9150863d88116103d4576103c68183611c4f565b386115a8565b84513d8a823e3d90fd5b50503461040c578160031936011261040c5760075490516001600160a01b039091168152602090f35b5090346103e55761171336611b9d565b84548351632474521560e21b815260008051602061291c833981519152818701523360248201529294919392906020908290604490829060101c6001600160a01b03165afa9081156118125786916117f4575b50156117e657831561179a5750828452600a60205283208190556117915761178d90612095565b5080f35b61178d90612048565b6020608492519162461bcd60e51b8352820152602160248201527f4c6f636b757020706572696f6420657175696c73207a65726f207365636f6e646044820152607360f81b6064820152fd5b905163599a6c3360e11b8152fd5b61180c915060203d81116103d4576103c68183611c4f565b38611766565b83513d88823e3d90fd5b5090346103e557806003193601126103e5578135611838611b87565b9160018060a01b0380865460101c169382518095632474521560e21b8252888883015233602483015281604460209889935afa9081156116d0578891611996575b50156116a35716808652600184528186205490946001600160401b039160801c821661195e5750908060018661195286956118d87f595f39ef10c3b539b41f83620205bd2e76334edf0cfda5ed207f10616e867dad9998600354611cc0565b6003556118e483611fc9565b508a61194a828a886118f58c612274565b948961190043612274565b938584519d8e61190f81611be8565b8581528284820198168852019816885260608d019a838c528352522098888060801b03905116888060801b03198a5416178955511687612228565b511684612251565b5191015551908152a280f35b825162461bcd60e51b81529081018590526012602482015271141bdbdb08185b1c9958591e48195e1a5cdd60721b6044820152606490fd5b6119ad9150863d88116103d4576103c68183611c4f565b38611879565b50503461040c578060031936011261040c576020906104056119d3611b6c565b6119db611b87565b906122f5565b50503461040c578160031936011261040c576020906003549051908152f35b50503461040c578160031936011261040c57602090517fe965846df3dd5b1dfa65f58e31477079e90140e0908b6dd31b5aead5a57cf3658152f35b5090346103e557806003193601126103e5578060a093611a59611b6c565b611a61611b87565b90600180881b038091168352600260205283832091168252602052208054926001820154926002830154916003840154930154938151958652602086015284015260608301526080820152f35b50503461040c578160031936011261040c579054905160109190911c6001600160a01b03168152602090f35b9291905034610d5f576020366003190112610d5f57803563ffffffff60e01b81168091036110fc5784546301ffc9a760e01b8552918401526020908390602490829060101c6001600160a01b03165afa918215611b625760209392611b43575b50519015158152f35b611b5b919250833d81116103d4576103c68183611c4f565b9038611b3a565b81513d85823e3d90fd5b600435906001600160a01b0382168203611b8257565b600080fd5b602435906001600160a01b0382168203611b8257565b6040906003190112611b82576004359060243590565b6060906003190112611b82576001600160a01b03906004358281168103611b8257916024359081168103611b82579060443590565b608081019081106001600160401b03821117611c0357604052565b634e487b7160e01b600052604160045260246000fd5b604081019081106001600160401b03821117611c0357604052565b60a081019081106001600160401b03821117611c0357604052565b601f909101601f19168101906001600160401b03821190821017611c0357604052565b90816020910312611b8257518015158103611b825790565b91908203918211611c9757565b634e487b7160e01b600052601160045260246000fd5b81810292918115918404141715611c9757565b91908201809211611c9757565b8115611cd7570490565b634e487b7160e01b600052601260045260246000fd5b6040516001600160a01b03909116929190611d0781611c19565b6020918282527f5361666545524332303a206c6f772d6c6576656c2063616c6c206661696c6564838301526000808285829451910182895af13d15611e1d573d956001600160401b038711611e0957611d8194959660405190611d7388601f19601f8401160183611c4f565b81528093873d92013e611e29565b805190828215928315611df1575b50505015611d9a5750565b6084906040519062461bcd60e51b82526004820152602a60248201527f5361666545524332303a204552433230206f7065726174696f6e20646964206e6044820152691bdd081cdd58d8d9595960b21b6064820152fd5b611e019350820181019101611c72565b388281611d8f565b634e487b7160e01b83526041600452602483fd5b611d8193949591506060915b91929015611e8b5750815115611e3d575090565b3b15611e465790565b60405162461bcd60e51b815260206004820152601d60248201527f416464726573733a2063616c6c20746f206e6f6e2d636f6e74726163740000006044820152606490fd5b825190915015611e9e5750805190602001fd5b6040519062461bcd60e51b82528160208060048301528251908160248401526000935b828510611ee4575050604492506000838284010152601f80199101168101030190fd5b8481018201518686016044015293810193859350611ec1565b600954909190828111611f1257505050600090565b80821015611f345750611f3191611f2891611c8a565b60085490611cad565b90565b611f28915091611f3192611c8a565b6001600160401b038111611c035760051b60200190565b6000198114611c975760010190565b8051821015611f7d5760209160051b010190565b634e487b7160e01b600052603260045260246000fd5b600454811015611f7d57600460005260206000200190600090565b600b54811015611f7d57600b60005260206000200190600090565b60008181526005602052604081205461204357600454600160401b81101561202f57908261201b61200284600160409601600455611f93565b819391549060031b600019811b9283911b169119161790565b905560045492815260056020522055600190565b634e487b7160e01b82526041600452602482fd5b905090565b6000818152600c602052604081205461204357600b54600160401b81101561202f57908261208161200284600160409601600b55611fae565b9055600b54928152600c6020522055600190565b6000818152600c6020526040812054909190801561217a576000199080820181811161216657600b54908382019182116121525780820361211e575b505050600b54801561210a578101906120e982611fae565b909182549160031b1b19169055600b558152600c6020526040812055600190565b634e487b7160e01b84526031600452602484fd5b61213c61212d61200293611fae565b90549060031b1c928392611fae565b90558452600c60205260408420553880806120d1565b634e487b7160e01b86526011600452602486fd5b634e487b7160e01b85526011600452602485fd5b505090565b600081815260056020526040812054909190801561217a57600019908082018181116121665760045490838201918211612152578082036121f4575b505050600454801561210a578101906121d382611f93565b909182549160031b1b19169055600455815260056020526040812055600190565b61221261220361200293611f93565b90549060031b1c928392611f93565b90558452600560205260408420553880806121bb565b8054600160801b600160c01b03191660809290921b600160801b600160c01b0316919091179055565b80546001600160c01b031660c09290921b6001600160c01b031916919091179055565b6001600160401b0390818111612288571690565b60405162461bcd60e51b815260206004820152602660248201527f53616665436173743a2076616c756520646f65736e27742066697420696e203660448201526534206269747360d01b6064820152608490fd5b81810392916000138015828513169184121617611c9757565b600160a01b60019003809116906000928284526020936001855260408082209381519461232186611be8565b805492600160801b6001900398898516885280880196600160401b60019003948594858860801c168a52848b019760c01c88526001015460608b01528a8852600283528388209116875281528186209982519861237d8a611c34565b8b548a5260018c01549b838b019c8d526002810154858c0152600381015460608c01526004015460808b01525116988652600190528420600101549451168043118061248e575b80612483575b6123fc575b5050505050916123ef64e8d4a510006102c16123f794611f319651611cad565b9051906122dc565b612497565b9161241b91612412612424949897984390611efd565b91511690611cad565b60035490611ccd565b9064e8d4a510009182810292818404149015171561246f57506102c16123f794612465611f31979561245f6123ef9664e8d4a5100096611ccd565b90611cc0565b95819597506123cf565b634e487b7160e01b81526011600452602490fd5b5060035415156123ca565b508415156123c4565b600081126124a25790565b606460405162461bcd60e51b815260206004820152602060248201527f53616665436173743a2076616c7565206d75737420626520706f7369746976656044820152fd5b6001600160ff1b0381116124f75790565b60405162461bcd60e51b815260206004820152602860248201527f53616665436173743a2076616c756520646f65736e27742066697420696e2061604482015267371034b73a191a9b60c11b6064820152608490fd5b90604080519061255c82611be8565b60009384835284606060209482868201528285820152015260018060a01b031691828552600181528185209180519561259487611be8565b83549260018060801b0397888516815260018060401b0398898660801c1699838301968b885260c01c91600187850199848b520154956060850193878552859d8043116125eb575b50505050505050505050505050565b8c918915159081612763575b50612688575b5083806001948b7f46cf4926e42ba22492fd67b3ea0fba545c48ca18651eb6cd271e653d3308c5679e9c9a98956126669560609f809e9c9a61263e43612274565b1690528152878a5220965116998a868060801b031988541617875551169961194a8b87612228565b519101558251948552840152820152a2388080808080808080808080806125dc565b6126a5915061269b61241b914390611efd565b858d511690611cad565b828651169064e8d4a510009081810291818304149015171561274f57886126cb91611ccd565b8381116126fb578316018281116126e757821685528a836125fd565b634e487b7160e01b82526011600452602482fd5b895162461bcd60e51b815260048101899052602760248201527f53616665436173743a2076616c756520646f65736e27742066697420696e20316044820152663238206269747360c81b6064820152608490fd5b634e487b7160e01b83526011600452602483fd5b90501515386125f7565b6040516004805480835260009182527f8a35acfbc15ff81a39ae7d344fd709f28e8600b4aa8c65c6b64bfe7fe36bd19b918391602080840192905b8282106127f5575050506127be92500382611c4f565b80519060005b8281106127d057505050565b6127f0906114b26001600160a01b036127e98386611f69565b511661254d565b6127c4565b8554845260019586019587955093810193909101906127a8565b1561281657565b60405162461bcd60e51b815260206004820152601e60248201527f55736572206d756c7469706c696361746f7220657175696c73207a65726f00006044820152606490fd5b91909160008382019384129112908015821691151617611c9757565b91909160018060a01b0380821660005260026020526040600020908416600052602052604060002090604051926128ad84611c34565b825484526001830154602085015260046002840154938460408701526003810154606087015201546080850152821561291157611f3194670de0b6b3a76400006128fd6129099561290494611cad565b04926122f5565b611cad565b905190611ccd565b505050505060009056fe3b5d4cc60d3ec3516ee8ae083bd60934f6eb2a6c54b1229985c41bfb092b2603be0e56c891bb7033dc9f0c815fb5e1fd09ee48ffbc1c32b504a52911a542467039f61ca2a1a28fee144218173ec637b649a353e4026b2738c673800e5bf1437ba26469706673582212209b6b93a515c423614d9be0ae866c07a3b68802b8e2bf7066b7dc4e8099b35f4664736f6c63430008110033",
  "devdoc": {
    "kind": "dev",
    "methods": {
      "rewardsBetweenBlocks(uint256,uint256)": {
        "details": "returns total amount of rewards allocated to the all pools on the rage (startBlock, endBlock]      i.e. excluding startBlock but including endBlock"
      },
      "supportsInterface(bytes4)": {
        "details": "Returns true if this contract implements the interface defined by `interfaceId`. See the corresponding https://eips.ethereum.org/EIPS/eip-165#how-interfaces-are-identified[EIP section] to learn more about how these ids are created. This function call must use less than 30 000 gas."
      }
    },
    "version": 1
  },
  "userdoc": {
    "kind": "user",
    "methods": {},
    "version": 1
  },
  "storageLayout": {
    "storage": [
      {
        "astId": 461,
        "contract": "contracts/reward/RewardChefV2.sol:RewardChefV2",
        "label": "_initialized",
        "offset": 0,
        "slot": "0",
        "type": "t_uint8"
      },
      {
        "astId": 464,
        "contract": "contracts/reward/RewardChefV2.sol:RewardChefV2",
        "label": "_initializing",
        "offset": 1,
        "slot": "0",
        "type": "t_bool"
      },
      {
        "astId": 9094,
        "contract": "contracts/reward/RewardChefV2.sol:RewardChefV2",
        "label": "ACCESS_CONTROL_SINGLETON",
        "offset": 2,
        "slot": "0",
        "type": "t_contract(ISuAccessControl)16250"
      },
      {
        "astId": 22409,
        "contract": "contracts/reward/RewardChefV2.sol:RewardChefV2",
        "label": "poolInfo",
        "offset": 0,
        "slot": "1",
        "type": "t_mapping(t_address,t_struct(PoolInfo)16018_storage)"
      },
      {
        "astId": 22416,
        "contract": "contracts/reward/RewardChefV2.sol:RewardChefV2",
        "label": "userInfo",
        "offset": 0,
        "slot": "2",
        "type": "t_mapping(t_address,t_mapping(t_address,t_struct(UserInfo)16029_storage))"
      },
      {
        "astId": 22418,
        "contract": "contracts/reward/RewardChefV2.sol:RewardChefV2",
        "label": "totalAllocPoint",
        "offset": 0,
        "slot": "3",
        "type": "t_uint256"
      },
      {
        "astId": 22421,
        "contract": "contracts/reward/RewardChefV2.sol:RewardChefV2",
        "label": "assetSet",
        "offset": 0,
        "slot": "4",
        "type": "t_struct(AddressSet)4717_storage"
      },
      {
        "astId": 22427,
        "contract": "contracts/reward/RewardChefV2.sol:RewardChefV2",
        "label": "REWARD_TOKEN",
        "offset": 0,
        "slot": "6",
        "type": "t_contract(IERC20Upgradeable)785"
      },
      {
        "astId": 22430,
        "contract": "contracts/reward/RewardChefV2.sol:RewardChefV2",
        "label": "ORACLE",
        "offset": 0,
        "slot": "7",
        "type": "t_contract(ISuOracle)16726"
      },
      {
        "astId": 22432,
        "contract": "contracts/reward/RewardChefV2.sol:RewardChefV2",
        "label": "rewardPerBlock",
        "offset": 0,
        "slot": "8",
        "type": "t_uint256"
      },
      {
        "astId": 22434,
        "contract": "contracts/reward/RewardChefV2.sol:RewardChefV2",
        "label": "rewardEndBlock",
        "offset": 0,
        "slot": "9",
        "type": "t_uint256"
      },
      {
        "astId": 22555,
        "contract": "contracts/reward/RewardChefV2.sol:RewardChefV2",
        "label": "multiplicator1e18ForLockupPeriod",
        "offset": 0,
        "slot": "10",
        "type": "t_mapping(t_uint256,t_uint256)"
      },
      {
        "astId": 22558,
        "contract": "contracts/reward/RewardChefV2.sol:RewardChefV2",
        "label": "possibleLockupPeriodsSeconds",
        "offset": 0,
        "slot": "11",
        "type": "t_struct(UintSet)4874_storage"
      }
    ],
    "types": {
      "t_address": {
        "encoding": "inplace",
        "label": "address",
        "numberOfBytes": "20"
      },
      "t_array(t_bytes32)dyn_storage": {
        "base": "t_bytes32",
        "encoding": "dynamic_array",
        "label": "bytes32[]",
        "numberOfBytes": "32"
      },
      "t_bool": {
        "encoding": "inplace",
        "label": "bool",
        "numberOfBytes": "1"
      },
      "t_bytes32": {
        "encoding": "inplace",
        "label": "bytes32",
        "numberOfBytes": "32"
      },
      "t_contract(IERC20Upgradeable)785": {
        "encoding": "inplace",
        "label": "contract IERC20Upgradeable",
        "numberOfBytes": "20"
      },
      "t_contract(ISuAccessControl)16250": {
        "encoding": "inplace",
        "label": "contract ISuAccessControl",
        "numberOfBytes": "20"
      },
      "t_contract(ISuOracle)16726": {
        "encoding": "inplace",
        "label": "contract ISuOracle",
        "numberOfBytes": "20"
      },
      "t_int256": {
        "encoding": "inplace",
        "label": "int256",
        "numberOfBytes": "32"
      },
      "t_mapping(t_address,t_mapping(t_address,t_struct(UserInfo)16029_storage))": {
        "encoding": "mapping",
        "key": "t_address",
        "label": "mapping(address => mapping(address => struct IRewardChefV2.UserInfo))",
        "numberOfBytes": "32",
        "value": "t_mapping(t_address,t_struct(UserInfo)16029_storage)"
      },
      "t_mapping(t_address,t_struct(PoolInfo)16018_storage)": {
        "encoding": "mapping",
        "key": "t_address",
        "label": "mapping(address => struct IRewardChefV2.PoolInfo)",
        "numberOfBytes": "32",
        "value": "t_struct(PoolInfo)16018_storage"
      },
      "t_mapping(t_address,t_struct(UserInfo)16029_storage)": {
        "encoding": "mapping",
        "key": "t_address",
        "label": "mapping(address => struct IRewardChefV2.UserInfo)",
        "numberOfBytes": "32",
        "value": "t_struct(UserInfo)16029_storage"
      },
      "t_mapping(t_bytes32,t_uint256)": {
        "encoding": "mapping",
        "key": "t_bytes32",
        "label": "mapping(bytes32 => uint256)",
        "numberOfBytes": "32",
        "value": "t_uint256"
      },
      "t_mapping(t_uint256,t_uint256)": {
        "encoding": "mapping",
        "key": "t_uint256",
        "label": "mapping(uint256 => uint256)",
        "numberOfBytes": "32",
        "value": "t_uint256"
      },
      "t_struct(AddressSet)4717_storage": {
        "encoding": "inplace",
        "label": "struct EnumerableSetUpgradeable.AddressSet",
        "members": [
          {
            "astId": 4716,
            "contract": "contracts/reward/RewardChefV2.sol:RewardChefV2",
            "label": "_inner",
            "offset": 0,
            "slot": "0",
            "type": "t_struct(Set)4402_storage"
          }
        ],
        "numberOfBytes": "64"
      },
      "t_struct(PoolInfo)16018_storage": {
        "encoding": "inplace",
        "label": "struct IRewardChefV2.PoolInfo",
        "members": [
          {
            "astId": 16011,
            "contract": "contracts/reward/RewardChefV2.sol:RewardChefV2",
            "label": "accSushiPerShare",
            "offset": 0,
            "slot": "0",
            "type": "t_uint128"
          },
          {
            "astId": 16013,
            "contract": "contracts/reward/RewardChefV2.sol:RewardChefV2",
            "label": "lastRewardBlock",
            "offset": 16,
            "slot": "0",
            "type": "t_uint64"
          },
          {
            "astId": 16015,
            "contract": "contracts/reward/RewardChefV2.sol:RewardChefV2",
            "label": "allocPoint",
            "offset": 24,
            "slot": "0",
            "type": "t_uint64"
          },
          {
            "astId": 16017,
            "contract": "contracts/reward/RewardChefV2.sol:RewardChefV2",
            "label": "lpSupply",
            "offset": 0,
            "slot": "1",
            "type": "t_uint256"
          }
        ],
        "numberOfBytes": "64"
      },
      "t_struct(Set)4402_storage": {
        "encoding": "inplace",
        "label": "struct EnumerableSetUpgradeable.Set",
        "members": [
          {
            "astId": 4397,
            "contract": "contracts/reward/RewardChefV2.sol:RewardChefV2",
            "label": "_values",
            "offset": 0,
            "slot": "0",
            "type": "t_array(t_bytes32)dyn_storage"
          },
          {
            "astId": 4401,
            "contract": "contracts/reward/RewardChefV2.sol:RewardChefV2",
            "label": "_indexes",
            "offset": 0,
            "slot": "1",
            "type": "t_mapping(t_bytes32,t_uint256)"
          }
        ],
        "numberOfBytes": "64"
      },
      "t_struct(UintSet)4874_storage": {
        "encoding": "inplace",
        "label": "struct EnumerableSetUpgradeable.UintSet",
        "members": [
          {
            "astId": 4873,
            "contract": "contracts/reward/RewardChefV2.sol:RewardChefV2",
            "label": "_inner",
            "offset": 0,
            "slot": "0",
            "type": "t_struct(Set)4402_storage"
          }
        ],
        "numberOfBytes": "64"
      },
      "t_struct(UserInfo)16029_storage": {
        "encoding": "inplace",
        "label": "struct IRewardChefV2.UserInfo",
        "members": [
          {
            "astId": 16020,
            "contract": "contracts/reward/RewardChefV2.sol:RewardChefV2",
            "label": "amount",
            "offset": 0,
            "slot": "0",
            "type": "t_uint256"
          },
          {
            "astId": 16022,
            "contract": "contracts/reward/RewardChefV2.sol:RewardChefV2",
            "label": "rewardDebt",
            "offset": 0,
            "slot": "1",
            "type": "t_int256"
          },
          {
            "astId": 16024,
            "contract": "contracts/reward/RewardChefV2.sol:RewardChefV2",
            "label": "multiplicator1e18",
            "offset": 0,
            "slot": "2",
            "type": "t_uint256"
          },
          {
            "astId": 16026,
            "contract": "contracts/reward/RewardChefV2.sol:RewardChefV2",
            "label": "lockupPeriodSeconds",
            "offset": 0,
            "slot": "3",
            "type": "t_uint256"
          },
          {
            "astId": 16028,
            "contract": "contracts/reward/RewardChefV2.sol:RewardChefV2",
            "label": "lockupStartTimestamp",
            "offset": 0,
            "slot": "4",
            "type": "t_uint256"
          }
        ],
        "numberOfBytes": "160"
      },
      "t_uint128": {
        "encoding": "inplace",
        "label": "uint128",
        "numberOfBytes": "16"
      },
      "t_uint256": {
        "encoding": "inplace",
        "label": "uint256",
        "numberOfBytes": "32"
      },
      "t_uint64": {
        "encoding": "inplace",
        "label": "uint64",
        "numberOfBytes": "8"
      },
      "t_uint8": {
        "encoding": "inplace",
        "label": "uint8",
        "numberOfBytes": "1"
      }
    }
  }
}