{
  "address": "0xdCB986B0d98868C816BEdc7e4a77495b3841B1A1",
  "abi": [
    {
      "anonymous": false,
      "inputs": [
        {
          "indexed": true,
          "internalType": "address",
          "name": "user",
          "type": "address"
        },
        {
          "indexed": true,
          "internalType": "address",
          "name": "asset",
          "type": "address"
        },
        {
          "indexed": false,
          "internalType": "uint256",
          "name": "amount",
          "type": "uint256"
        }
      ],
      "name": "Harvest",
      "type": "event"
    },
    {
      "anonymous": false,
      "inputs": [
        {
          "indexed": false,
          "internalType": "uint8",
          "name": "version",
          "type": "uint8"
        }
      ],
      "name": "Initialized",
      "type": "event"
    },
    {
      "anonymous": false,
      "inputs": [
        {
          "indexed": true,
          "internalType": "address",
          "name": "asset",
          "type": "address"
        },
        {
          "indexed": false,
          "internalType": "uint256",
          "name": "allocPoint",
          "type": "uint256"
        }
      ],
      "name": "LogPoolAddition",
      "type": "event"
    },
    {
      "anonymous": false,
      "inputs": [
        {
          "indexed": true,
          "internalType": "address",
          "name": "asset",
          "type": "address"
        },
        {
          "indexed": false,
          "internalType": "uint256",
          "name": "allocPoint",
          "type": "uint256"
        }
      ],
      "name": "LogSetPool",
      "type": "event"
    },
    {
      "anonymous": false,
      "inputs": [
        {
          "indexed": true,
          "internalType": "address",
          "name": "asset",
          "type": "address"
        },
        {
          "indexed": false,
          "internalType": "uint64",
          "name": "lastRewardBlock",
          "type": "uint64"
        },
        {
          "indexed": false,
          "internalType": "uint256",
          "name": "lpSupply",
          "type": "uint256"
        },
        {
          "indexed": false,
          "internalType": "uint256",
          "name": "accSushiPerShare",
          "type": "uint256"
        }
      ],
      "name": "LogUpdatePool",
      "type": "event"
    },
    {
      "anonymous": false,
      "inputs": [
        {
          "indexed": true,
          "internalType": "address",
          "name": "user",
          "type": "address"
        },
        {
          "indexed": true,
          "internalType": "address",
          "name": "asset",
          "type": "address"
        },
        {
          "indexed": true,
          "internalType": "address",
          "name": "to",
          "type": "address"
        },
        {
          "indexed": false,
          "internalType": "uint256",
          "name": "amount",
          "type": "uint256"
        },
        {
          "indexed": false,
          "internalType": "uint256",
          "name": "lockupPeriodSeconds",
          "type": "uint256"
        }
      ],
      "name": "ResetAmount",
      "type": "event"
    },
    {
      "anonymous": false,
      "inputs": [
        {
          "indexed": true,
          "internalType": "address",
          "name": "user",
          "type": "address"
        },
        {
          "indexed": true,
          "internalType": "address",
          "name": "asset",
          "type": "address"
        },
        {
          "indexed": false,
          "internalType": "uint256",
          "name": "amount",
          "type": "uint256"
        }
      ],
      "name": "VirtualDeposit",
      "type": "event"
    },
    {
      "anonymous": false,
      "inputs": [
        {
          "indexed": true,
          "internalType": "address",
          "name": "user",
          "type": "address"
        },
        {
          "indexed": true,
          "internalType": "address",
          "name": "asset",
          "type": "address"
        },
        {
          "indexed": false,
          "internalType": "uint256",
          "name": "amount",
          "type": "uint256"
        }
      ],
      "name": "VirtualWithdraw",
      "type": "event"
    },
    {
      "inputs": [],
      "name": "ACCESS_CONTROL_SINGLETON",
      "outputs": [
        {
          "internalType": "contract ISuAccessControl",
          "name": "",
          "type": "address"
        }
      ],
      "stateMutability": "view",
      "type": "function"
    },
    {
      "inputs": [],
      "name": "LIQUIDATION_ACCESS_ROLE",
      "outputs": [
        {
          "internalType": "bytes32",
          "name": "",
          "type": "bytes32"
        }
      ],
      "stateMutability": "view",
      "type": "function"
    },
    {
      "inputs": [],
      "name": "MINTER_ROLE",
      "outputs": [
        {
          "internalType": "bytes32",
          "name": "",
          "type": "bytes32"
        }
      ],
      "stateMutability": "view",
      "type": "function"
    },
    {
      "inputs": [],
      "name": "ORACLE",
      "outputs": [
        {
          "internalType": "contract ISuOracle",
          "name": "",
          "type": "address"
        }
      ],
      "stateMutability": "view",
      "type": "function"
    },
    {
      "inputs": [],
      "name": "REWARD_TOKEN",
      "outputs": [
        {
          "internalType": "contract IERC20Upgradeable",
          "name": "",
          "type": "address"
        }
      ],
      "stateMutability": "view",
      "type": "function"
    },
    {
      "inputs": [],
      "name": "VAULT_ACCESS_ROLE",
      "outputs": [
        {
          "internalType": "bytes32",
          "name": "",
          "type": "bytes32"
        }
      ],
      "stateMutability": "view",
      "type": "function"
    },
    {
      "inputs": [
        {
          "internalType": "uint256",
          "name": "allocPoint",
          "type": "uint256"
        },
        {
          "internalType": "address",
          "name": "_asset",
          "type": "address"
        }
      ],
      "name": "add",
      "outputs": [],
      "stateMutability": "nonpayable",
      "type": "function"
    },
    {
      "inputs": [
        {
          "internalType": "address",
          "name": "asset",
          "type": "address"
        },
        {
          "internalType": "address",
          "name": "to",
          "type": "address"
        },
        {
          "internalType": "uint256",
          "name": "amountEDecimal",
          "type": "uint256"
        }
      ],
      "name": "decreaseAmount",
      "outputs": [],
      "stateMutability": "nonpayable",
      "type": "function"
    },
    {
      "inputs": [
        {
          "internalType": "address",
          "name": "asset",
          "type": "address"
        },
        {
          "internalType": "address",
          "name": "to",
          "type": "address"
        },
        {
          "internalType": "uint256",
          "name": "amountEDecimal",
          "type": "uint256"
        }
      ],
      "name": "decreaseAmountRewardPenalty",
      "outputs": [
        {
          "internalType": "uint256",
          "name": "",
          "type": "uint256"
        }
      ],
      "stateMutability": "view",
      "type": "function"
    },
    {
      "inputs": [
        {
          "internalType": "address",
          "name": "asset",
          "type": "address"
        }
      ],
      "name": "getPoolApr",
      "outputs": [
        {
          "internalType": "uint256",
          "name": "",
          "type": "uint256"
        }
      ],
      "stateMutability": "view",
      "type": "function"
    },
    {
      "inputs": [],
      "name": "getPossibleLockupPeriodsSeconds",
      "outputs": [
        {
          "components": [
            {
              "internalType": "uint256",
              "name": "lockupPeriodSeconds",
              "type": "uint256"
            },
            {
              "internalType": "uint256",
              "name": "multiplicator1e18",
              "type": "uint256"
            }
          ],
          "internalType": "struct IRewardChefV2.ILockupPeriod[]",
          "name": "",
          "type": "tuple[]"
        }
      ],
      "stateMutability": "view",
      "type": "function"
    },
    {
      "inputs": [
        {
          "internalType": "address",
          "name": "asset",
          "type": "address"
        },
        {
          "internalType": "address",
          "name": "to",
          "type": "address"
        },
        {
          "internalType": "uint256",
          "name": "newLockupPeriodSeconds",
          "type": "uint256"
        }
      ],
      "name": "harvest",
      "outputs": [],
      "stateMutability": "nonpayable",
      "type": "function"
    },
    {
      "inputs": [
        {
          "internalType": "address",
          "name": "asset",
          "type": "address"
        },
        {
          "internalType": "address",
          "name": "to",
          "type": "address"
        },
        {
          "internalType": "uint256",
          "name": "amountEDecimal",
          "type": "uint256"
        },
        {
          "internalType": "uint256",
          "name": "lockupPeriodSeconds",
          "type": "uint256"
        }
      ],
      "name": "increaseAmount",
      "outputs": [],
      "stateMutability": "nonpayable",
      "type": "function"
    },
    {
      "inputs": [
        {
          "internalType": "address",
          "name": "_authControl",
          "type": "address"
        },
        {
          "internalType": "contract IERC20Upgradeable",
          "name": "_rewardToken",
          "type": "address"
        },
        {
          "internalType": "contract ISuOracle",
          "name": "_oracle",
          "type": "address"
        }
      ],
      "name": "initialize",
      "outputs": [],
      "stateMutability": "nonpayable",
      "type": "function"
    },
    {
      "inputs": [
        {
          "internalType": "uint256",
          "name": "",
          "type": "uint256"
        }
      ],
      "name": "multiplicator1e18ForLockupPeriod",
      "outputs": [
        {
          "internalType": "uint256",
          "name": "",
          "type": "uint256"
        }
      ],
      "stateMutability": "view",
      "type": "function"
    },
    {
      "inputs": [
        {
          "internalType": "address",
          "name": "_asset",
          "type": "address"
        },
        {
          "internalType": "address",
          "name": "_user",
          "type": "address"
        }
      ],
      "name": "pendingSushi",
      "outputs": [
        {
          "internalType": "uint256",
          "name": "pending",
          "type": "uint256"
        }
      ],
      "stateMutability": "view",
      "type": "function"
    },
    {
      "inputs": [
        {
          "internalType": "address",
          "name": "",
          "type": "address"
        }
      ],
      "name": "poolInfo",
      "outputs": [
        {
          "internalType": "uint128",
          "name": "accSushiPerShare",
          "type": "uint128"
        },
        {
          "internalType": "uint64",
          "name": "lastRewardBlock",
          "type": "uint64"
        },
        {
          "internalType": "uint64",
          "name": "allocPoint",
          "type": "uint64"
        },
        {
          "internalType": "uint256",
          "name": "lpSupply",
          "type": "uint256"
        }
      ],
      "stateMutability": "view",
      "type": "function"
    },
    {
      "inputs": [
        {
          "internalType": "uint256",
          "name": "amount",
          "type": "uint256"
        },
        {
          "internalType": "uint64",
          "name": "endBlock",
          "type": "uint64"
        }
      ],
      "name": "refillReward",
      "outputs": [],
      "stateMutability": "nonpayable",
      "type": "function"
    },
    {
      "inputs": [
        {
          "internalType": "address",
          "name": "asset",
          "type": "address"
        },
        {
          "internalType": "address",
          "name": "to",
          "type": "address"
        }
      ],
      "name": "resetAmount",
      "outputs": [],
      "stateMutability": "nonpayable",
      "type": "function"
    },
    {
      "inputs": [],
      "name": "rewardEndBlock",
      "outputs": [
        {
          "internalType": "uint256",
          "name": "",
          "type": "uint256"
        }
      ],
      "stateMutability": "view",
      "type": "function"
    },
    {
      "inputs": [],
      "name": "rewardPerBlock",
      "outputs": [
        {
          "internalType": "uint256",
          "name": "",
          "type": "uint256"
        }
      ],
      "stateMutability": "view",
      "type": "function"
    },
    {
      "inputs": [
        {
          "internalType": "uint256",
          "name": "startBlock",
          "type": "uint256"
        },
        {
          "internalType": "uint256",
          "name": "endBlock",
          "type": "uint256"
        }
      ],
      "name": "rewardsBetweenBlocks",
      "outputs": [
        {
          "internalType": "uint256",
          "name": "",
          "type": "uint256"
        }
      ],
      "stateMutability": "view",
      "type": "function"
    },
    {
      "inputs": [
        {
          "internalType": "address",
          "name": "_asset",
          "type": "address"
        },
        {
          "internalType": "uint256",
          "name": "_allocPoint",
          "type": "uint256"
        }
      ],
      "name": "set",
      "outputs": [],
      "stateMutability": "nonpayable",
      "type": "function"
    },
    {
      "inputs": [
        {
          "internalType": "uint256",
          "name": "lockupPeriodSeconds",
          "type": "uint256"
        },
        {
          "internalType": "uint256",
          "name": "multiplicator1e18",
          "type": "uint256"
        }
      ],
      "name": "setPossibleLockupPeriodsSeconds",
      "outputs": [],
      "stateMutability": "nonpayable",
      "type": "function"
    },
    {
      "inputs": [],
      "name": "totalAllocPoint",
      "outputs": [
        {
          "internalType": "uint256",
          "name": "",
          "type": "uint256"
        }
      ],
      "stateMutability": "view",
      "type": "function"
    },
    {
      "inputs": [],
      "name": "updateAllPools",
      "outputs": [],
      "stateMutability": "nonpayable",
      "type": "function"
    },
    {
      "inputs": [
        {
          "internalType": "address",
          "name": "asset",
          "type": "address"
        }
      ],
      "name": "updatePool",
      "outputs": [
        {
          "components": [
            {
              "internalType": "uint128",
              "name": "accSushiPerShare",
              "type": "uint128"
            },
            {
              "internalType": "uint64",
              "name": "lastRewardBlock",
              "type": "uint64"
            },
            {
              "internalType": "uint64",
              "name": "allocPoint",
              "type": "uint64"
            },
            {
              "internalType": "uint256",
              "name": "lpSupply",
              "type": "uint256"
            }
          ],
          "internalType": "struct IRewardChefV2.PoolInfo",
          "name": "pool",
          "type": "tuple"
        }
      ],
      "stateMutability": "nonpayable",
      "type": "function"
    },
    {
      "inputs": [
        {
          "internalType": "address",
          "name": "",
          "type": "address"
        },
        {
          "internalType": "address",
          "name": "",
          "type": "address"
        }
      ],
      "name": "userInfo",
      "outputs": [
        {
          "internalType": "uint256",
          "name": "amount",
          "type": "uint256"
        },
        {
          "internalType": "int256",
          "name": "rewardDebt",
          "type": "int256"
        },
        {
          "internalType": "uint256",
          "name": "multiplicator1e18",
          "type": "uint256"
        },
        {
          "internalType": "uint256",
          "name": "lockupPeriodSeconds",
          "type": "uint256"
        },
        {
          "internalType": "uint256",
          "name": "lockupStartTimestamp",
          "type": "uint256"
        }
      ],
      "stateMutability": "view",
      "type": "function"
    }
  ],
  "numDeployments": 5,
  "solcInputHash": "bee5958df9bd2aa66431a5d7e5e2d5ec",
  "bytecode": "0x608060405234801561001057600080fd5b50612cf6806100206000396000f3fe608060405234801561001057600080fd5b50600436106101545760003560e01c806303ee9f22146101595780630f208beb1461018857806314c376dc146101f557806317caf6f11461022a5780631d40e439146102335780632b8bbbe8146102465780632fcd4bc01461025b57806338013f021461026e5780633825d82814610281578063604ef2e514610294578063698274021461029d5780636aed34f7146102b25780637b46c54f146102c557806387d483161461032257806387ee8c4c146103355780638ae39cac1461034857806399248ea7146103515780639a7b5f1114610364578063a7533e09146103e9578063b9ec7d74146103fc578063c0c53b8b14610404578063c2ceb95f14610417578063cf4f68d51461042a578063d53913931461043d578063dc97e84e14610464578063e68f85021461048b578063eeba3c3f146104ab578063f7bfea2c146104be575b600080fd5b600054610172906201000090046001600160a01b031681565b60405161017f91906126df565b60405180910390f35b6101cd61019636600461270b565b6002602081815260009384526040808520909152918352912080546001820154928201546003830154600490930154919392909185565b604080519586526020860194909452928401919091526060830152608082015260a00161017f565b61021c7fe965846df3dd5b1dfa65f58e31477079e90140e0908b6dd31b5aead5a57cf36581565b60405190815260200161017f565b61021c60035481565b61021c61024136600461270b565b6104d1565b610259610254366004612744565b610671565b005b610259610269366004612769565b61088e565b600754610172906001600160a01b031681565b61025961028f36600461278b565b6109af565b61021c60095481565b6102a5610bb9565b60405161017f91906127b7565b6102596102c0366004612806565b610ccb565b6102d86102d3366004612847565b610f56565b6040805182516001600160801b031681526020808401516001600160401b03908116918301919091528383015116918101919091526060918201519181019190915260800161017f565b61021c610330366004612806565b611159565b610259610343366004612864565b611222565b61021c60085481565b600654610172906001600160a01b031681565b6103b2610372366004612847565b600160208190526000918252604090912080549101546001600160801b038216916001600160401b03600160801b8204811692600160c01b909204169084565b604080516001600160801b039590951685526001600160401b0393841660208601529190921690830152606082015260800161017f565b61021c6103f7366004612847565b6113b9565b610259611718565b610259610412366004612895565b611769565b610259610425366004612806565b6118b5565b61025961043836600461270b565b611b99565b61021c7f9f2df0fed2c77648de5860a4cc508cd0818c85b8b8a1ab4ceeef8d981c8956a681565b61021c7f9a9aef7c1247d5fc769b0185c052913e39673da29a880317dfd20ebf86f26a4981565b61021c6104993660046128e0565b600a6020526000908152604090205481565b61021c6104b9366004612769565b611ccf565b6102596104cc3660046128f9565b611d21565b6001600160a01b03808316600081815260016020818152604080842081516080808201845282546001600160801b0380821684526001600160401b03600160801b83048116858901908152600160c01b9093048116858801529488015460608086018290528b8b526002808a52888c209d8f168c529c8952878b20885160a081018a5281548152818c0154818c01529d810154988e01989098526003880154908d0152600490960154928b019290925282519888529590945293519496939593949390921692909116431180156105a757508015155b80156105b4575060035415155b156106275760006105d285602001516001600160401b031643611ccf565b9050600060035486604001516001600160401b0316836105f29190612955565b6105fc919061296c565b90508261060e64e8d4a5100083612955565b610618919061296c565b610622908561298e565b935050505b610666836020015161065764e8d4a510008587600001516106489190612955565b610652919061296c565b611fcb565b61066191906129a1565b612039565b979650505050505050565b60008054604051632474521560e21b8152620100009091046001600160a01b0316916391d14854916106a8919033906004016129c1565b602060405180830381865afa1580156106c5573d6000803e3d6000fd5b505050506040513d601f19601f820116820180604052508101906106e991906129d8565b61070e5760405162461bcd60e51b8152600401610705906129fa565b60405180910390fd5b6001600160a01b038116600090815260016020526040902054600160801b90046001600160401b0316156107795760405162461bcd60e51b8152602060048201526012602482015271141bdbdb08185b1c9958591e48195e1a5cdd60721b6044820152606401610705565b600354439061078990849061298e565b60035561079760048361208b565b50604051806080016040528060006001600160801b031681526020016107bc836120a0565b6001600160401b031681526020016107d3856120a0565b6001600160401b039081168252600060209283018190526001600160a01b03861680825260018085526040928390208651815488880151898701518816600160c01b026001600160c01b0391909816600160801b026001600160c01b03199092166001600160801b039093169290921717169490941784556060909501519290940191909155518581527f595f39ef10c3b539b41f83620205bd2e76334edf0cfda5ed207f10616e867dad91015b60405180910390a2505050565b60008054604051632474521560e21b8152620100009091046001600160a01b0316916391d14854916108c5919033906004016129c1565b602060405180830381865afa1580156108e2573d6000803e3d6000fd5b505050506040513d601f19601f8201168201806040525081019061090691906129d8565b6109225760405162461bcd60e51b8152600401610705906129fa565b8160000361097c5760405162461bcd60e51b815260206004820152602160248201527f4c6f636b757020706572696f6420657175696c73207a65726f207365636f6e646044820152607360f81b6064820152608401610705565b6000828152600a602052604081208290558190036109a45761099f600b83612108565b505050565b61099f600b83612114565b60008054604051632474521560e21b8152620100009091046001600160a01b0316916391d14854916109e6919033906004016129c1565b602060405180830381865afa158015610a03573d6000803e3d6000fd5b505050506040513d601f19601f82011682018060405250810190610a2791906129d8565b610a435760405162461bcd60e51b8152600401610705906129fa565b6001600160a01b038216600090815260016020526040812054600160801b90046001600160401b03169003610aaf5760405162461bcd60e51b8152602060048201526012602482015271141bdbdb08191bd95cdb89dd08195e1a5cdd60721b6044820152606401610705565b610ab882610f56565b506001600160a01b038216600090815260016020526040902054600354600160c01b9091046001600160401b0316908290610af4908390612a31565b610afe919061298e565b600355610b0a826120a0565b6001600160a01b038416600090815260016020526040812080546001600160401b0393909316600160c01b026001600160c01b0390931692909217909155829003610b6057610b5a600484612120565b50610b7e565b806001600160401b0316600003610b7e57610b7c60048461208b565b505b826001600160a01b03167f57096e403eca2ab85e7ad27527b2efe1598aaf6760715227633947f3652a0f6b8360405161088191815260200190565b60606000610bc7600b612135565b80519091506000816001600160401b03811115610be657610be6612a44565b604051908082528060200260200182016040528015610c2b57816020015b6040805180820190915260008082526020820152815260200190600190039081610c045790505b50905060005b82811015610cc3576040518060400160405280858381518110610c5657610c56612a5a565b60200260200101518152602001600a6000878581518110610c7957610c79612a5a565b6020026020010151815260200190815260200160002054815250828281518110610ca557610ca5612a5a565b60200260200101819052508080610cbb90612a70565b915050610c31565b509392505050565b60008054604051632474521560e21b8152620100009091046001600160a01b0316916391d1485491610d02919033906004016129c1565b602060405180830381865afa158015610d1f573d6000803e3d6000fd5b505050506040513d601f19601f82011682018060405250810190610d4391906129d8565b610d5f5760405162461bcd60e51b8152600401610705906129fa565b6000610d6a84610f56565b6001600160a01b03808616600090815260026020818152604080842094891684529390529181209182015492935090919003610db85760405162461bcd60e51b815260040161070590612a89565b600081600301548260040154610dce919061298e565b421015610de357610de0868686611159565b90505b6000670de0b6b3a7640000836002015486610dfe9190612955565b610e08919061296c565b9050610e1382611fcb565b8451610e339064e8d4a5100090610648906001600160801b031685612955565b8460010154610e4291906129a1565b610e4c9190612ac0565b60018401558254610e5e908290612a31565b808455158015610e7057506001830154155b15610e8a5742600484015560006003840181905560028401555b808460600151610e9a9190612a31565b606085019081526001600160a01b038881166000818152600160208181526040928390208a518154838d0151868e01516001600160801b039093166001600160c01b031990921691909117600160801b6001600160401b0392831602176001600160c01b0316600160c01b919092160217815595519590910194909455518481529092918916917f5c89d0cd1567084571f8083b115429597fe4af296968d67b6b7ebc9d12777e8791015b60405180910390a350505050505050565b604080516080810182526000808252602082018190529181018290526060810191909152506001600160a01b038116600090815260016020818152604092839020835160808101855281546001600160801b03811682526001600160401b03600160801b82048116948301859052600160c01b909104169481019490945290910154606083015243111561115457606081015180158015906110055750600082604001516001600160401b0316115b1561108b57600061102383602001516001600160401b031643611ccf565b9050600060035484604001516001600160401b0316836110439190612955565b61104d919061296c565b90506110718361106264e8d4a5100084612955565b61106c919061296c565b612142565b845161107d9190612ae8565b6001600160801b0316845250505b611094436120a0565b6001600160401b0390811660208481019182526001600160a01b03861660008181526001808452604091829020885181549651848b01518916600160c01b026001600160c01b0391909916600160801b81026001600160c01b03199099166001600160801b0390931692831798909817169790971781556060808a0151919092015581519485529284018690528301939093527f46cf4926e42ba22492fd67b3ea0fba545c48ca18651eb6cd271e653d3308c567910160405180910390a2505b919050565b6001600160a01b0380841660009081526002602081815260408084209487168452938152838320845160a0810186528154815260018201549281019290925291820154938101849052600382015460608201526004909101546080820152909182036111c957600091505061121b565b6000670de0b6b3a76400008260400151856111e49190612955565b6111ee919061296c565b905060006111fc87876104d1565b835190915061120b8383612955565b611215919061296c565b93505050505b9392505050565b60008054604051632474521560e21b8152620100009091046001600160a01b0316916391d1485491611259919033906004016129c1565b602060405180830381865afa158015611276573d6000803e3d6000fd5b505050506040513d601f19601f8201168201806040525081019061129a91906129d8565b6112b65760405162461bcd60e51b8152600401610705906129fa565b43816001600160401b0316116113245760405162461bcd60e51b815260206004820152602d60248201527f456e64426c6f636b2073686f756c642062652067726561746572207468616e2060448201526c63757272656e7420626c6f636b60981b6064820152608401610705565b61132c611718565b600654611344906001600160a01b03163330856121ab565b6009546000901561137f5760095443101561137b57436009546113679190612a31565b6008546113749190612955565b905061137f565b5060005b611392436001600160401b038416612a31565b61139c848361298e565b6113a6919061296c565b600855506001600160401b031660095550565b6001600160a01b03811660009081526001602081905260408220015481036114335760405162461bcd60e51b815260206004820152602760248201527f526577617264436865663a20506f6f6c20646f65736e27742068617665206c696044820152667175696469747960c81b6064820152608401610705565b6003546000036114955760405162461bcd60e51b815260206004820152602760248201527f526577617264436865663a20546f74616c20616c6c6f636174696f6e20706f6960448201526606e7420697320360cc1b6064820152608401610705565b43600954116114f65760405162461bcd60e51b815260206004820152602760248201527f526577617264436865663a2056657374696e6720697320616c726561647920666044820152661a5b9a5cda195960ca1b6064820152608401610705565b6003546001600160a01b03831660009081526001602052604081205460085491929161153291600160c01b90046001600160401b031690612955565b61153c919061296c565b600754600654604051631735856760e31b81529293506000926001600160a01b039283169263b9ac2b3892611576929116906004016126df565b602060405180830381865afa158015611593573d6000803e3d6000fd5b505050506040513d601f19601f820116820180604052508101906115b79190612b08565b90506000816115c7846004612955565b6115d290603c612955565b6115dd906018612955565b6115e99061016e612955565b6115f39190612955565b90506000856001600160a01b031663313ce5676040518163ffffffff1660e01b8152600401602060405180830381865afa158015611635573d6000803e3d6000fd5b505050506040513d601f19601f820116820180604052508101906116599190612b21565b61166490600a612c28565b6001600160a01b0380881660009081526001602081905260409182902001546007549151631735856760e31b81529092919091169063b9ac2b38906116ad908b906004016126df565b602060405180830381865afa1580156116ca573d6000803e3d6000fd5b505050506040513d601f19601f820116820180604052508101906116ee9190612b08565b6116f89190612955565b611702919061296c565b905061170e818361296c565b9695505050505050565b60006117246004612135565b805190915060005b8181101561099f5761175683828151811061174957611749612a5a565b6020026020010151610f56565b508061176181612a70565b91505061172c565b600054610100900460ff16158080156117895750600054600160ff909116105b806117aa575061179830612216565b1580156117aa575060005460ff166001145b61180d5760405162461bcd60e51b815260206004820152602e60248201527f496e697469616c697a61626c653a20636f6e747261637420697320616c72656160448201526d191e481a5b9a5d1a585b1a5e995960921b6064820152608401610705565b6000805460ff191660011790558015611830576000805461ff0019166101001790555b61183984612225565b600680546001600160a01b038086166001600160a01b031992831617909255600780549285169290911691909117905580156118af576000805461ff0019169055604051600181527f7f26b83ff96e1f2b6a682f133852f6798a09c465da95921460cefb38474024989060200160405180910390a15b50505050565b60006118c084610f56565b6001600160a01b0385166000908152600260209081526040808320338452909152902060038101546004820154929350909142916118fd9161298e565b11156119575760405162461bcd60e51b815260206004820152602360248201527f43616e27742068617276657374206265666f7265206c6f636b7570206973206f6044820152623b32b960e91b6064820152608401610705565b806002015460000361197b5760405162461bcd60e51b815260040161070590612a89565b60006119a364e8d4a5100084600001516001600160801b031684600001546106489190612955565b905060006119ba83600101548361066191906129a1565b60018401839055905080156119e0576006546119e0906001600160a01b031687836122ba565b4260048401556000858152600a602052604081205490819003611a455760405162461bcd60e51b815260206004820152601d60248201527f4e6577206d756c7469706c696361746f7220657175696c73207a65726f0000006044820152606401610705565b8084600201541015611ac6578354600285015460009190611a668483612955565b611a70919061296c565b611a7a9190612a31565b8554909150611a8a90829061298e565b85558551611aac9064e8d4a5100090610648906001600160801b031684612955565b8560010154611abb9190612ac0565b600186015550611b48565b8084600201541115611b485760008460020154828660000154611ae99190612955565b611af3919061296c565b8554611aff9190612a31565b9050611b2364e8d4a5100087600001516001600160801b0316836106489190612955565b8560010154611b3291906129a1565b60018601558454611b44908290612a31565b8555505b600284018190556040518281526001600160a01b0389169033907fa0306f61d3fafe13787b78e276cb6b644382854a66cb46daae14227d3ec267979060200160405180910390a35050505050505050565b6001600160a01b038216600090815260016020818152604080842060028352818520338652909252909220805460038201549284015491929091611bde908390612a31565b60018581019182556001600160a01b038881166000818152602084815260408083208b5481546001600160801b039091166001600160801b03198216811783558d546001600160c01b031990921617600160801b918290046001600160401b03908116909202178083558d546001600160c01b03909116600160c01b9182900490921602178155965496860196909655818955938801819055426004890155600388018190556002880155835186815292830185905290881692909133917f0b29f3a03cca6d26633adab7fad4d1d3383ee338e01e04ebcf40d0beff8838fe910160405180910390a4505050505050565b60008260095411611ce257506000611d1b565b600954821015611d0a57600854611cf98484612a31565b611d039190612955565b9050611d1b565b60085483600954611cf99190612a31565b92915050565b60008054604051632474521560e21b8152620100009091046001600160a01b0316916391d1485491611d58919033906004016129c1565b602060405180830381865afa158015611d75573d6000803e3d6000fd5b505050506040513d601f19601f82011682018060405250810190611d9991906129d8565b611db55760405162461bcd60e51b8152600401610705906129fa565b6000611dc085610f56565b6001600160a01b03808716600090815260026020908152604080832093891683529290529081206003810154929350919003611e1c576000838152600a6020526040902054600282015560038101839055426004820155611e7d565b82816003015414611e7d5760405162461bcd60e51b815260206004820152602560248201527f4578697374696e67206465706f7369742068617320646966666572656e74206c60448201526406f636b75760dc1b6064820152608401610705565b8060020154600003611ea15760405162461bcd60e51b815260040161070590612a89565b6000670de0b6b3a7640000826002015486611ebc9190612955565b611ec6919061296c565b8254909150611ed690829061298e565b82558251611ef89064e8d4a5100090610648906001600160801b031684612955565b8260010154611f079190612ac0565b60018301556060830151611f1c90829061298e565b606084019081526001600160a01b0388811660008181526001602081815260409283902089518154838c0151868d01516001600160801b039093166001600160c01b031990921691909117600160801b6001600160401b0392831602176001600160c01b0316600160c01b919092160217815595519590910194909455518481529092918916917fbe0e56c891bb7033dc9f0c815fb5e1fd09ee48ffbc1c32b504a52911a54246709101610f45565b60006001600160ff1b038211156120355760405162461bcd60e51b815260206004820152602860248201527f53616665436173743a2076616c756520646f65736e27742066697420696e2061604482015267371034b73a191a9b60c11b6064820152608401610705565b5090565b6000808212156120355760405162461bcd60e51b815260206004820181905260248201527f53616665436173743a2076616c7565206d75737420626520706f7369746976656044820152606401610705565b600061121b836001600160a01b0384166122ea565b60006001600160401b038211156120355760405162461bcd60e51b815260206004820152602660248201527f53616665436173743a2076616c756520646f65736e27742066697420696e203660448201526534206269747360d01b6064820152608401610705565b600061121b8383612339565b600061121b83836122ea565b600061121b836001600160a01b038416612339565b6060600061121b83612433565b60006001600160801b038211156120355760405162461bcd60e51b815260206004820152602760248201527f53616665436173743a2076616c756520646f65736e27742066697420696e20316044820152663238206269747360c81b6064820152608401610705565b6040516001600160a01b03808516602483015283166044820152606481018290526118af9085906323b872dd60e01b906084015b60408051601f198184030181529190526020810180516001600160e01b03166001600160e01b03199093169290921790915261248f565b6001600160a01b03163b151590565b600054610100900460ff166122905760405162461bcd60e51b815260206004820152602b60248201527f496e697469616c697a61626c653a20636f6e7472616374206973206e6f74206960448201526a6e697469616c697a696e6760a81b6064820152608401610705565b600080546001600160a01b03909216620100000262010000600160b01b0319909216919091179055565b6040516001600160a01b03831660248201526044810182905261099f90849063a9059cbb60e01b906064016121df565b600081815260018301602052604081205461233157508154600181810184556000848152602080822090930184905584548482528286019093526040902091909155611d1b565b506000611d1b565b6000818152600183016020526040812054801561242257600061235d600183612a31565b855490915060009061237190600190612a31565b90508181146123d657600086600001828154811061239157612391612a5a565b90600052602060002001549050808760000184815481106123b4576123b4612a5a565b6000918252602080832090910192909255918252600188019052604090208390555b85548690806123e7576123e7612c37565b600190038181906000526020600020016000905590558560010160008681526020019081526020016000206000905560019350505050611d1b565b6000915050611d1b565b5092915050565b60608160000180548060200260200160405190810160405280929190818152602001828054801561248357602002820191906000526020600020905b81548152602001906001019080831161246f575b50505050509050919050565b60006124e4826040518060400160405280602081526020017f5361666545524332303a206c6f772d6c6576656c2063616c6c206661696c6564815250856001600160a01b03166125619092919063ffffffff16565b80519091501561099f578080602001905181019061250291906129d8565b61099f5760405162461bcd60e51b815260206004820152602a60248201527f5361666545524332303a204552433230206f7065726174696f6e20646964206e6044820152691bdd081cdd58d8d9595960b21b6064820152608401610705565b60606125708484600085612578565b949350505050565b6060824710156125d95760405162461bcd60e51b815260206004820152602660248201527f416464726573733a20696e73756666696369656e742062616c616e636520666f6044820152651c8818d85b1b60d21b6064820152608401610705565b600080866001600160a01b031685876040516125f59190612c71565b60006040518083038185875af1925050503d8060008114612632576040519150601f19603f3d011682016040523d82523d6000602084013e612637565b606091505b509150915061066687838387606083156126b05782516000036126a95761265d85612216565b6126a95760405162461bcd60e51b815260206004820152601d60248201527f416464726573733a2063616c6c20746f206e6f6e2d636f6e74726163740000006044820152606401610705565b5081612570565b61257083838151156126c55781518083602001fd5b8060405162461bcd60e51b81526004016107059190612c8d565b6001600160a01b0391909116815260200190565b6001600160a01b038116811461270857600080fd5b50565b6000806040838503121561271e57600080fd5b8235612729816126f3565b91506020830135612739816126f3565b809150509250929050565b6000806040838503121561275757600080fd5b823591506020830135612739816126f3565b6000806040838503121561277c57600080fd5b50508035926020909101359150565b6000806040838503121561279e57600080fd5b82356127a9816126f3565b946020939093013593505050565b602080825282518282018190526000919060409081850190868401855b828110156127f9578151805185528601518685015292840192908501906001016127d4565b5091979650505050505050565b60008060006060848603121561281b57600080fd5b8335612826816126f3565b92506020840135612836816126f3565b929592945050506040919091013590565b60006020828403121561285957600080fd5b813561121b816126f3565b6000806040838503121561287757600080fd5b8235915060208301356001600160401b038116811461273957600080fd5b6000806000606084860312156128aa57600080fd5b83356128b5816126f3565b925060208401356128c5816126f3565b915060408401356128d5816126f3565b809150509250925092565b6000602082840312156128f257600080fd5b5035919050565b6000806000806080858703121561290f57600080fd5b843561291a816126f3565b9350602085013561292a816126f3565b93969395505050506040820135916060013590565b634e487b7160e01b600052601160045260246000fd5b8082028115828204841417611d1b57611d1b61293f565b60008261298957634e487b7160e01b600052601260045260246000fd5b500490565b80820180821115611d1b57611d1b61293f565b818103600083128015838313168383128216171561242c5761242c61293f565b9182526001600160a01b0316602082015260400190565b6000602082840312156129ea57600080fd5b8151801515811461121b57600080fd5b6020808252601d908201527f5375417574683a206f6e6c794f776e657220415554485f4641494c4544000000604082015260600190565b81810381811115611d1b57611d1b61293f565b634e487b7160e01b600052604160045260246000fd5b634e487b7160e01b600052603260045260246000fd5b600060018201612a8257612a8261293f565b5060010190565b6020808252601e908201527f55736572206d756c7469706c696361746f7220657175696c73207a65726f0000604082015260600190565b8082018281126000831280158216821582161715612ae057612ae061293f565b505092915050565b6001600160801b0381811683821601908082111561242c5761242c61293f565b600060208284031215612b1a57600080fd5b5051919050565b600060208284031215612b3357600080fd5b815160ff8116811461121b57600080fd5b600181815b80851115612b7f578160001904821115612b6557612b6561293f565b80851615612b7257918102915b93841c9390800290612b49565b509250929050565b600082612b9657506001611d1b565b81612ba357506000611d1b565b8160018114612bb95760028114612bc357612bdf565b6001915050611d1b565b60ff841115612bd457612bd461293f565b50506001821b611d1b565b5060208310610133831016604e8410600b8410161715612c02575081810a611d1b565b612c0c8383612b44565b8060001904821115612c2057612c2061293f565b029392505050565b600061121b60ff841683612b87565b634e487b7160e01b600052603160045260246000fd5b60005b83811015612c68578181015183820152602001612c50565b50506000910152565b60008251612c83818460208701612c4d565b9190910192915050565b6020815260008251806020840152612cac816040850160208701612c4d565b601f01601f1916919091016040019291505056fea264697066735822122090829a09993e3edf3596a0c2d622eaf71ee53e6ec431461e1d4b49c774b2341f64736f6c63430008110033",
  "devdoc": {
    "kind": "dev",
    "methods": {
      "rewardsBetweenBlocks(uint256,uint256)": {
        "details": "returns total amount of rewards allocated to the all pools on the rage (startBlock, endBlock]      i.e. excluding startBlock but including endBlock"
      }
    },
    "version": 1
  },
  "userdoc": {
    "kind": "user",
    "methods": {},
    "version": 1
  },
  "storageLayout": {
    "storage": [
      {
        "astId": 461,
        "contract": "contracts/reward/RewardChefV2.sol:RewardChefV2",
        "label": "_initialized",
        "offset": 0,
        "slot": "0",
        "type": "t_uint8"
      },
      {
        "astId": 464,
        "contract": "contracts/reward/RewardChefV2.sol:RewardChefV2",
        "label": "_initializing",
        "offset": 1,
        "slot": "0",
        "type": "t_bool"
      },
      {
        "astId": 6897,
        "contract": "contracts/reward/RewardChefV2.sol:RewardChefV2",
        "label": "ACCESS_CONTROL_SINGLETON",
        "offset": 2,
        "slot": "0",
        "type": "t_contract(ISuAccessControl)10043"
      },
      {
        "astId": 17136,
        "contract": "contracts/reward/RewardChefV2.sol:RewardChefV2",
        "label": "poolInfo",
        "offset": 0,
        "slot": "1",
        "type": "t_mapping(t_address,t_struct(PoolInfo)9809_storage)"
      },
      {
        "astId": 17143,
        "contract": "contracts/reward/RewardChefV2.sol:RewardChefV2",
        "label": "userInfo",
        "offset": 0,
        "slot": "2",
        "type": "t_mapping(t_address,t_mapping(t_address,t_struct(UserInfo)9820_storage))"
      },
      {
        "astId": 17145,
        "contract": "contracts/reward/RewardChefV2.sol:RewardChefV2",
        "label": "totalAllocPoint",
        "offset": 0,
        "slot": "3",
        "type": "t_uint256"
      },
      {
        "astId": 17148,
        "contract": "contracts/reward/RewardChefV2.sol:RewardChefV2",
        "label": "assetSet",
        "offset": 0,
        "slot": "4",
        "type": "t_struct(AddressSet)4405_storage"
      },
      {
        "astId": 17154,
        "contract": "contracts/reward/RewardChefV2.sol:RewardChefV2",
        "label": "REWARD_TOKEN",
        "offset": 0,
        "slot": "6",
        "type": "t_contract(IERC20Upgradeable)774"
      },
      {
        "astId": 17157,
        "contract": "contracts/reward/RewardChefV2.sol:RewardChefV2",
        "label": "ORACLE",
        "offset": 0,
        "slot": "7",
        "type": "t_contract(ISuOracle)10629"
      },
      {
        "astId": 17159,
        "contract": "contracts/reward/RewardChefV2.sol:RewardChefV2",
        "label": "rewardPerBlock",
        "offset": 0,
        "slot": "8",
        "type": "t_uint256"
      },
      {
        "astId": 17161,
        "contract": "contracts/reward/RewardChefV2.sol:RewardChefV2",
        "label": "rewardEndBlock",
        "offset": 0,
        "slot": "9",
        "type": "t_uint256"
      },
      {
        "astId": 17282,
        "contract": "contracts/reward/RewardChefV2.sol:RewardChefV2",
        "label": "multiplicator1e18ForLockupPeriod",
        "offset": 0,
        "slot": "10",
        "type": "t_mapping(t_uint256,t_uint256)"
      },
      {
        "astId": 17285,
        "contract": "contracts/reward/RewardChefV2.sol:RewardChefV2",
        "label": "possibleLockupPeriodsSeconds",
        "offset": 0,
        "slot": "11",
        "type": "t_struct(UintSet)4562_storage"
      }
    ],
    "types": {
      "t_address": {
        "encoding": "inplace",
        "label": "address",
        "numberOfBytes": "20"
      },
      "t_array(t_bytes32)dyn_storage": {
        "base": "t_bytes32",
        "encoding": "dynamic_array",
        "label": "bytes32[]",
        "numberOfBytes": "32"
      },
      "t_bool": {
        "encoding": "inplace",
        "label": "bool",
        "numberOfBytes": "1"
      },
      "t_bytes32": {
        "encoding": "inplace",
        "label": "bytes32",
        "numberOfBytes": "32"
      },
      "t_contract(IERC20Upgradeable)774": {
        "encoding": "inplace",
        "label": "contract IERC20Upgradeable",
        "numberOfBytes": "20"
      },
      "t_contract(ISuAccessControl)10043": {
        "encoding": "inplace",
        "label": "contract ISuAccessControl",
        "numberOfBytes": "20"
      },
      "t_contract(ISuOracle)10629": {
        "encoding": "inplace",
        "label": "contract ISuOracle",
        "numberOfBytes": "20"
      },
      "t_int256": {
        "encoding": "inplace",
        "label": "int256",
        "numberOfBytes": "32"
      },
      "t_mapping(t_address,t_mapping(t_address,t_struct(UserInfo)9820_storage))": {
        "encoding": "mapping",
        "key": "t_address",
        "label": "mapping(address => mapping(address => struct IRewardChefV2.UserInfo))",
        "numberOfBytes": "32",
        "value": "t_mapping(t_address,t_struct(UserInfo)9820_storage)"
      },
      "t_mapping(t_address,t_struct(PoolInfo)9809_storage)": {
        "encoding": "mapping",
        "key": "t_address",
        "label": "mapping(address => struct IRewardChefV2.PoolInfo)",
        "numberOfBytes": "32",
        "value": "t_struct(PoolInfo)9809_storage"
      },
      "t_mapping(t_address,t_struct(UserInfo)9820_storage)": {
        "encoding": "mapping",
        "key": "t_address",
        "label": "mapping(address => struct IRewardChefV2.UserInfo)",
        "numberOfBytes": "32",
        "value": "t_struct(UserInfo)9820_storage"
      },
      "t_mapping(t_bytes32,t_uint256)": {
        "encoding": "mapping",
        "key": "t_bytes32",
        "label": "mapping(bytes32 => uint256)",
        "numberOfBytes": "32",
        "value": "t_uint256"
      },
      "t_mapping(t_uint256,t_uint256)": {
        "encoding": "mapping",
        "key": "t_uint256",
        "label": "mapping(uint256 => uint256)",
        "numberOfBytes": "32",
        "value": "t_uint256"
      },
      "t_struct(AddressSet)4405_storage": {
        "encoding": "inplace",
        "label": "struct EnumerableSetUpgradeable.AddressSet",
        "members": [
          {
            "astId": 4404,
            "contract": "contracts/reward/RewardChefV2.sol:RewardChefV2",
            "label": "_inner",
            "offset": 0,
            "slot": "0",
            "type": "t_struct(Set)4090_storage"
          }
        ],
        "numberOfBytes": "64"
      },
      "t_struct(PoolInfo)9809_storage": {
        "encoding": "inplace",
        "label": "struct IRewardChefV2.PoolInfo",
        "members": [
          {
            "astId": 9802,
            "contract": "contracts/reward/RewardChefV2.sol:RewardChefV2",
            "label": "accSushiPerShare",
            "offset": 0,
            "slot": "0",
            "type": "t_uint128"
          },
          {
            "astId": 9804,
            "contract": "contracts/reward/RewardChefV2.sol:RewardChefV2",
            "label": "lastRewardBlock",
            "offset": 16,
            "slot": "0",
            "type": "t_uint64"
          },
          {
            "astId": 9806,
            "contract": "contracts/reward/RewardChefV2.sol:RewardChefV2",
            "label": "allocPoint",
            "offset": 24,
            "slot": "0",
            "type": "t_uint64"
          },
          {
            "astId": 9808,
            "contract": "contracts/reward/RewardChefV2.sol:RewardChefV2",
            "label": "lpSupply",
            "offset": 0,
            "slot": "1",
            "type": "t_uint256"
          }
        ],
        "numberOfBytes": "64"
      },
      "t_struct(Set)4090_storage": {
        "encoding": "inplace",
        "label": "struct EnumerableSetUpgradeable.Set",
        "members": [
          {
            "astId": 4085,
            "contract": "contracts/reward/RewardChefV2.sol:RewardChefV2",
            "label": "_values",
            "offset": 0,
            "slot": "0",
            "type": "t_array(t_bytes32)dyn_storage"
          },
          {
            "astId": 4089,
            "contract": "contracts/reward/RewardChefV2.sol:RewardChefV2",
            "label": "_indexes",
            "offset": 0,
            "slot": "1",
            "type": "t_mapping(t_bytes32,t_uint256)"
          }
        ],
        "numberOfBytes": "64"
      },
      "t_struct(UintSet)4562_storage": {
        "encoding": "inplace",
        "label": "struct EnumerableSetUpgradeable.UintSet",
        "members": [
          {
            "astId": 4561,
            "contract": "contracts/reward/RewardChefV2.sol:RewardChefV2",
            "label": "_inner",
            "offset": 0,
            "slot": "0",
            "type": "t_struct(Set)4090_storage"
          }
        ],
        "numberOfBytes": "64"
      },
      "t_struct(UserInfo)9820_storage": {
        "encoding": "inplace",
        "label": "struct IRewardChefV2.UserInfo",
        "members": [
          {
            "astId": 9811,
            "contract": "contracts/reward/RewardChefV2.sol:RewardChefV2",
            "label": "amount",
            "offset": 0,
            "slot": "0",
            "type": "t_uint256"
          },
          {
            "astId": 9813,
            "contract": "contracts/reward/RewardChefV2.sol:RewardChefV2",
            "label": "rewardDebt",
            "offset": 0,
            "slot": "1",
            "type": "t_int256"
          },
          {
            "astId": 9815,
            "contract": "contracts/reward/RewardChefV2.sol:RewardChefV2",
            "label": "multiplicator1e18",
            "offset": 0,
            "slot": "2",
            "type": "t_uint256"
          },
          {
            "astId": 9817,
            "contract": "contracts/reward/RewardChefV2.sol:RewardChefV2",
            "label": "lockupPeriodSeconds",
            "offset": 0,
            "slot": "3",
            "type": "t_uint256"
          },
          {
            "astId": 9819,
            "contract": "contracts/reward/RewardChefV2.sol:RewardChefV2",
            "label": "lockupStartTimestamp",
            "offset": 0,
            "slot": "4",
            "type": "t_uint256"
          }
        ],
        "numberOfBytes": "160"
      },
      "t_uint128": {
        "encoding": "inplace",
        "label": "uint128",
        "numberOfBytes": "16"
      },
      "t_uint256": {
        "encoding": "inplace",
        "label": "uint256",
        "numberOfBytes": "32"
      },
      "t_uint64": {
        "encoding": "inplace",
        "label": "uint64",
        "numberOfBytes": "8"
      },
      "t_uint8": {
        "encoding": "inplace",
        "label": "uint8",
        "numberOfBytes": "1"
      }
    }
  }
}