{
  "address": "0x18Ca46e2d65C4f9050F0aB17a9bc6b0fEaC5d337",
  "abi": [
    {
      "inputs": [],
      "name": "BadAccessControlSingleton",
      "type": "error"
    },
    {
      "inputs": [],
      "name": "OnlyAdminError",
      "type": "error"
    },
    {
      "inputs": [],
      "name": "OnlyDAOError",
      "type": "error"
    },
    {
      "inputs": [],
      "name": "OnlyLiquidationAccessError",
      "type": "error"
    },
    {
      "inputs": [],
      "name": "OnlyMintAccessError",
      "type": "error"
    },
    {
      "inputs": [],
      "name": "OnlyPauserError",
      "type": "error"
    },
    {
      "inputs": [],
      "name": "OnlyRewardAccessError",
      "type": "error"
    },
    {
      "inputs": [],
      "name": "OnlyVaultAccessError",
      "type": "error"
    },
    {
      "anonymous": false,
      "inputs": [
        {
          "indexed": true,
          "internalType": "address",
          "name": "owner",
          "type": "address"
        },
        {
          "indexed": true,
          "internalType": "address",
          "name": "spender",
          "type": "address"
        },
        {
          "indexed": false,
          "internalType": "uint256",
          "name": "value",
          "type": "uint256"
        }
      ],
      "name": "Approval",
      "type": "event"
    },
    {
      "anonymous": false,
      "inputs": [
        {
          "indexed": false,
          "internalType": "uint8",
          "name": "version",
          "type": "uint8"
        }
      ],
      "name": "Initialized",
      "type": "event"
    },
    {
      "anonymous": false,
      "inputs": [
        {
          "indexed": true,
          "internalType": "address",
          "name": "from",
          "type": "address"
        },
        {
          "indexed": true,
          "internalType": "address",
          "name": "to",
          "type": "address"
        },
        {
          "indexed": false,
          "internalType": "uint256",
          "name": "value",
          "type": "uint256"
        }
      ],
      "name": "Transfer",
      "type": "event"
    },
    {
      "inputs": [],
      "name": "ACCESS_CONTROL_SINGLETON",
      "outputs": [
        {
          "internalType": "contract ISuAccessControl",
          "name": "",
          "type": "address"
        }
      ],
      "stateMutability": "view",
      "type": "function"
    },
    {
      "inputs": [],
      "name": "ADMIN_ROLE",
      "outputs": [
        {
          "internalType": "bytes32",
          "name": "",
          "type": "bytes32"
        }
      ],
      "stateMutability": "view",
      "type": "function"
    },
    {
      "inputs": [],
      "name": "DAO_ROLE",
      "outputs": [
        {
          "internalType": "bytes32",
          "name": "",
          "type": "bytes32"
        }
      ],
      "stateMutability": "view",
      "type": "function"
    },
    {
      "inputs": [],
      "name": "LIQUIDATION_ACCESS_ROLE",
      "outputs": [
        {
          "internalType": "bytes32",
          "name": "",
          "type": "bytes32"
        }
      ],
      "stateMutability": "view",
      "type": "function"
    },
    {
      "inputs": [],
      "name": "MINT_ACCESS_ROLE",
      "outputs": [
        {
          "internalType": "bytes32",
          "name": "",
          "type": "bytes32"
        }
      ],
      "stateMutability": "view",
      "type": "function"
    },
    {
      "inputs": [],
      "name": "PAUSER_ROLE",
      "outputs": [
        {
          "internalType": "bytes32",
          "name": "",
          "type": "bytes32"
        }
      ],
      "stateMutability": "view",
      "type": "function"
    },
    {
      "inputs": [],
      "name": "REWARD_ACCESS_ROLE",
      "outputs": [
        {
          "internalType": "bytes32",
          "name": "",
          "type": "bytes32"
        }
      ],
      "stateMutability": "view",
      "type": "function"
    },
    {
      "inputs": [],
      "name": "REWARD_PRECISION",
      "outputs": [
        {
          "internalType": "uint256",
          "name": "",
          "type": "uint256"
        }
      ],
      "stateMutability": "view",
      "type": "function"
    },
    {
      "inputs": [],
      "name": "VAULT_ACCESS_ROLE",
      "outputs": [
        {
          "internalType": "bytes32",
          "name": "",
          "type": "bytes32"
        }
      ],
      "stateMutability": "view",
      "type": "function"
    },
    {
      "inputs": [
        {
          "internalType": "address",
          "name": "",
          "type": "address"
        }
      ],
      "name": "_accounts",
      "outputs": [
        {
          "internalType": "uint256",
          "name": "balance",
          "type": "uint256"
        },
        {
          "internalType": "int256",
          "name": "rewardDebt",
          "type": "int256"
        },
        {
          "internalType": "bool",
          "name": "isGainDisabled",
          "type": "bool"
        }
      ],
      "stateMutability": "view",
      "type": "function"
    },
    {
      "inputs": [
        {
          "internalType": "address",
          "name": "owner",
          "type": "address"
        },
        {
          "internalType": "address",
          "name": "spender",
          "type": "address"
        }
      ],
      "name": "allowance",
      "outputs": [
        {
          "internalType": "uint256",
          "name": "",
          "type": "uint256"
        }
      ],
      "stateMutability": "view",
      "type": "function"
    },
    {
      "inputs": [
        {
          "internalType": "address",
          "name": "spender",
          "type": "address"
        },
        {
          "internalType": "uint256",
          "name": "amount",
          "type": "uint256"
        }
      ],
      "name": "approve",
      "outputs": [
        {
          "internalType": "bool",
          "name": "",
          "type": "bool"
        }
      ],
      "stateMutability": "nonpayable",
      "type": "function"
    },
    {
      "inputs": [
        {
          "internalType": "address",
          "name": "account",
          "type": "address"
        }
      ],
      "name": "balanceOf",
      "outputs": [
        {
          "internalType": "uint256",
          "name": "",
          "type": "uint256"
        }
      ],
      "stateMutability": "view",
      "type": "function"
    },
    {
      "inputs": [
        {
          "internalType": "uint256",
          "name": "amount",
          "type": "uint256"
        }
      ],
      "name": "burn",
      "outputs": [],
      "stateMutability": "nonpayable",
      "type": "function"
    },
    {
      "inputs": [
        {
          "internalType": "address",
          "name": "from",
          "type": "address"
        },
        {
          "internalType": "uint256",
          "name": "amount",
          "type": "uint256"
        }
      ],
      "name": "burn",
      "outputs": [],
      "stateMutability": "nonpayable",
      "type": "function"
    },
    {
      "inputs": [],
      "name": "decimals",
      "outputs": [
        {
          "internalType": "uint8",
          "name": "",
          "type": "uint8"
        }
      ],
      "stateMutability": "view",
      "type": "function"
    },
    {
      "inputs": [
        {
          "internalType": "address",
          "name": "spender",
          "type": "address"
        },
        {
          "internalType": "uint256",
          "name": "subtractedValue",
          "type": "uint256"
        }
      ],
      "name": "decreaseAllowance",
      "outputs": [
        {
          "internalType": "bool",
          "name": "",
          "type": "bool"
        }
      ],
      "stateMutability": "nonpayable",
      "type": "function"
    },
    {
      "inputs": [],
      "name": "getYieldAPR",
      "outputs": [
        {
          "internalType": "uint256",
          "name": "",
          "type": "uint256"
        }
      ],
      "stateMutability": "view",
      "type": "function"
    },
    {
      "inputs": [
        {
          "internalType": "address",
          "name": "spender",
          "type": "address"
        },
        {
          "internalType": "uint256",
          "name": "addedValue",
          "type": "uint256"
        }
      ],
      "name": "increaseAllowance",
      "outputs": [
        {
          "internalType": "bool",
          "name": "",
          "type": "bool"
        }
      ],
      "stateMutability": "nonpayable",
      "type": "function"
    },
    {
      "inputs": [
        {
          "internalType": "address",
          "name": "_authControl",
          "type": "address"
        }
      ],
      "name": "initialize",
      "outputs": [],
      "stateMutability": "nonpayable",
      "type": "function"
    },
    {
      "inputs": [
        {
          "internalType": "address",
          "name": "to",
          "type": "address"
        },
        {
          "internalType": "uint256",
          "name": "amount",
          "type": "uint256"
        }
      ],
      "name": "mint",
      "outputs": [],
      "stateMutability": "nonpayable",
      "type": "function"
    },
    {
      "inputs": [],
      "name": "name",
      "outputs": [
        {
          "internalType": "string",
          "name": "",
          "type": "string"
        }
      ],
      "stateMutability": "view",
      "type": "function"
    },
    {
      "inputs": [
        {
          "internalType": "address",
          "name": "account",
          "type": "address"
        }
      ],
      "name": "pendingRewards",
      "outputs": [
        {
          "internalType": "uint256",
          "name": "",
          "type": "uint256"
        }
      ],
      "stateMutability": "view",
      "type": "function"
    },
    {
      "inputs": [
        {
          "internalType": "uint256",
          "name": "amount",
          "type": "uint256"
        },
        {
          "internalType": "uint64",
          "name": "endBlock",
          "type": "uint64"
        }
      ],
      "name": "refillReward",
      "outputs": [],
      "stateMutability": "nonpayable",
      "type": "function"
    },
    {
      "inputs": [],
      "name": "rewardEndBlock",
      "outputs": [
        {
          "internalType": "uint256",
          "name": "",
          "type": "uint256"
        }
      ],
      "stateMutability": "view",
      "type": "function"
    },
    {
      "inputs": [],
      "name": "rewardPerBlock",
      "outputs": [
        {
          "internalType": "uint256",
          "name": "",
          "type": "uint256"
        }
      ],
      "stateMutability": "view",
      "type": "function"
    },
    {
      "inputs": [],
      "name": "rewardPool",
      "outputs": [
        {
          "internalType": "uint128",
          "name": "accRewardPerShare",
          "type": "uint128"
        },
        {
          "internalType": "uint64",
          "name": "lastRewardBlock",
          "type": "uint64"
        }
      ],
      "stateMutability": "view",
      "type": "function"
    },
    {
      "inputs": [
        {
          "internalType": "uint256",
          "name": "startBlock",
          "type": "uint256"
        },
        {
          "internalType": "uint256",
          "name": "endBlock",
          "type": "uint256"
        }
      ],
      "name": "rewardsBetweenBlocks",
      "outputs": [
        {
          "internalType": "uint256",
          "name": "",
          "type": "uint256"
        }
      ],
      "stateMutability": "view",
      "type": "function"
    },
    {
      "inputs": [
        {
          "internalType": "bytes4",
          "name": "interfaceId",
          "type": "bytes4"
        }
      ],
      "name": "supportsInterface",
      "outputs": [
        {
          "internalType": "bool",
          "name": "",
          "type": "bool"
        }
      ],
      "stateMutability": "view",
      "type": "function"
    },
    {
      "inputs": [],
      "name": "symbol",
      "outputs": [
        {
          "internalType": "string",
          "name": "",
          "type": "string"
        }
      ],
      "stateMutability": "view",
      "type": "function"
    },
    {
      "inputs": [],
      "name": "totalSupply",
      "outputs": [
        {
          "internalType": "uint256",
          "name": "",
          "type": "uint256"
        }
      ],
      "stateMutability": "view",
      "type": "function"
    },
    {
      "inputs": [
        {
          "internalType": "address",
          "name": "to",
          "type": "address"
        },
        {
          "internalType": "uint256",
          "name": "amount",
          "type": "uint256"
        }
      ],
      "name": "transfer",
      "outputs": [
        {
          "internalType": "bool",
          "name": "",
          "type": "bool"
        }
      ],
      "stateMutability": "nonpayable",
      "type": "function"
    },
    {
      "inputs": [
        {
          "internalType": "address",
          "name": "from",
          "type": "address"
        },
        {
          "internalType": "address",
          "name": "to",
          "type": "address"
        },
        {
          "internalType": "uint256",
          "name": "amount",
          "type": "uint256"
        }
      ],
      "name": "transferFrom",
      "outputs": [
        {
          "internalType": "bool",
          "name": "",
          "type": "bool"
        }
      ],
      "stateMutability": "nonpayable",
      "type": "function"
    },
    {
      "inputs": [],
      "name": "updateRewardPool",
      "outputs": [],
      "stateMutability": "nonpayable",
      "type": "function"
    }
  ],
  "numDeployments": 2,
  "solcInputHash": "dd557791782b2a744fb91d3e74be9d42",
  "bytecode": "0x6080806040523461001657611cfd908161001c8239f35b600080fdfe608060408181526004918236101561001657600080fd5b600090813560e01c90816301ffc9a7146110b65750806303ee9f221461108d57806306fdde0314610fe7578063095ea7b314610fbd57806314c376dc14610f8257806318160ddd14610f6357806323b872dd14610f28578063313ce56714610f0c57806331d7a26214610ee65780633950935114610e965780633d6aa5e114610e7557806340c10f1914610d0257806342966c6814610c68578063438280dd14610c2d578063604ef2e514610c0e57806366666aa914610bd557806370a0823114610b9157806375b238fc14610b7657806381028dde14610b5957806387ee8c4c14610a525780638ae39cac14610a335780638e5313e014610a0a57806395d89b411461092d5780639dc29fac1461087c578063a457c2d7146107d7578063a59bed5814610782578063a9059cbb14610751578063ab6a8b0214610735578063c4d66de8146102c3578063dc97e84e14610288578063dd62ed3e1461023f578063e63ab1e914610204578063e9c26518146101c55763eeba3c3f1461019a57600080fd5b346101c257816003193601126101c257506101bb60209260243590356112ef565b9051908152f35b80fd5b509034610200578160031936011261020057602090517f3b5d4cc60d3ec3516ee8ae083bd60934f6eb2a6c54b1229985c41bfb092b26038152f35b5080fd5b509034610200578160031936011261020057602090517f65d7a28e3265b37a6474929f336521b332c1681b933f6cb9f3376673440d862a8152f35b5090346102005780600319360112610200578060209261025d61118f565b6102656111aa565b6001600160a01b0391821683526035865283832091168252845220549051908152f35b509034610200578160031936011261020057602090517f9a9aef7c1247d5fc769b0185c052913e39673da29a880317dfd20ebf86f26a498152f35b509134610731576020908160031936011261072d576102e061118f565b9284549160ff8360081c161590818092610720575b8015610709575b156106af57600193828560ff19831617895561069e575b50825161031f816111c0565b6013815272537461626c65556e6974204555524f2050726f60681b8682015283519061034a826111c0565b600682526545555250726f60d01b8783015261037560ff8a5460081c166103708161122c565b61122c565b80516001600160401b03929083811161068b5780610394603754611732565b93601f94858111610639575b508a908d8684116001146105d657926105cb575b5050600019600383901b1c191690881b176037555b80519283116105b8579082916103e0603854611732565b828111610567575b5088918311600114610506578a926104fb575b5050600019600383901b1c191690851b176038555b60248588549761042560ff8a60081c1661122c565b606880546001600160a01b0319166001600160a01b0392909216918217905585516301ffc9a760e01b8152637965db0b60e01b8582015292839182905afa9081156104f15788916104c4575b50156104b65750610480578480f35b7f7f26b83ff96e1f2b6a682f133852f6798a09c465da95921460cefb38474024989361ff001916855551908152a1388080808480f35b82516384d942fd60e01b8152fd5b6104e49150863d88116104ea575b6104dc81836111f1565b810190611214565b38610471565b503d6104d2565b84513d8a823e3d90fd5b0151905038806103fb565b60388b52888b208894509190601f1984168c5b8b8282106105515750508411610538575b505050811b01603855610410565b015160001960f88460031b161c1916905538808061052a565b8385015186558b97909501949384019301610519565b9091925060388b52888b208380860160051c8201928b87106105af575b9186958b929594930160051c01915b8281106105a15750506103e8565b8d81558695508a9101610593565b92508192610584565b634e487b7160e01b8a526041845260248afd5b0151905038806103b4565b603781528c81208c9550929190601f198516908e5b8282106106225750508411610609575b505050811b016037556103c9565b015160001960f88460031b161c191690553880806105fb565b8385015186558e979095019493840193018e6105eb565b90915060378d528a8d208580850160051c8201928d8610610682575b859493910160051c909101908b908f5b838210610674575050506103a0565b81558594508c91018f610665565b92508192610655565b634e487b7160e01b8b526041855260248bfd5b61ffff191661010117875538610313565b825162461bcd60e51b8152908101859052602e60248201527f496e697469616c697a61626c653a20636f6e747261637420697320616c72656160448201526d191e481a5b9a5d1a585b1a5e995960921b6064820152608490fd5b50303b1580156102fc5750600160ff8516146102fc565b50600160ff8516106102f5565b8380fd5b8280fd5b50346101c257806003193601126101c25761074e611335565b80f35b50903461020057806003193601126102005760209061077b61077161118f565b602435903361180c565b5160018152f35b5090346102005760203660031901126102005760609181906001600160a01b036107aa61118f565b1681526034602052209081549160ff60026001830154920154169082519384526020840152151590820152f35b508290346101c257826003193601126101c2576107f261118f565b918360243592338152603560205281812060018060a01b038616825260205220549082821061082b5760208561077b8585038733611b15565b608490602086519162461bcd60e51b8352820152602560248201527f45524332303a2064656372656173656420616c6c6f77616e63652062656c6f77604482015264207a65726f60d81b6064820152fd5b50913461073157816003193601126107315761089661118f565b6068548351632474521560e21b8152600080516020611c888339815191528482015233602482015291939190602090829060449082906001600160a01b03165afa908115610923578591610905575b50156108f8578361074e602435856119e1565b516308ff603760e01b8152fd5b61091d915060203d81116104ea576104dc81836111f1565b386108e5565b82513d87823e3d90fd5b5090346102005781600319360112610200578051908260385461094f81611732565b808552906001908181169081156109e25750600114610989575b50505061097b826109859403836111f1565b5191829182611146565b0390f35b60388352602095507f38395c5dceade9603479b177b68959049485df8aa97b39f3533039af5f4561995b8284106109cf57505050826109859461097b9282010194610969565b80548685018801529286019281016109b3565b610985975061097b9450602092508693915060ff191682840152151560051b82010194610969565b50903461020057816003193601126102005760209051600080516020611c888339815191528152f35b5090346102005781600319360112610200576020906039549051908152f35b5091346107315781600319360112610731576024356001600160401b0381169282359291849003610b555783431015610afc575050610ab2610ac291610a96611335565b610aa181303361176c565b5084603a5480610acb575b506112c2565b610abc438461128c565b906112cf565b603955603a5580f35b8091504310600014610af557610aef90610ae960395491439061128c565b906112af565b38610aac565b5084610aef565b906020608492519162461bcd60e51b8352820152602d60248201527f456e64426c6f636b2073686f756c642062652067726561746572207468616e2060448201526c63757272656e7420626c6f636b60981b6064820152fd5b8480fd5b5090346102005781600319360112610200576020906101bb6116d2565b50903461020057816003193601126102005751908152602090f35b509034610200576020366003190112610200576101bb602092610bcf83610bb661118f565b6001600160a01b038116845260348752922054916114e5565b906112c2565b50346101c257806003193601126101c2575060335481516001600160801b038216815260809190911c6001600160401b03166020820152f35b509034610200578160031936011261020057602090603a549051908152f35b509034610200578160031936011261020057602090517f39f61ca2a1a28fee144218173ec637b649a353e4026b2738c673800e5bf1437b8152f35b50919034610731576020366003190112610731576068548151632474521560e21b8152600080516020611c888339815191528482015233602482015290602090829060449082906001600160a01b03165afa908115610cf8578491610cda575b50156108f8575061074e9035336119e1565b610cf2915060203d81116104ea576104dc81836111f1565b38610cc8565b82513d86823e3d90fd5b50919034610731578060031936011261073157610d1d61118f565b906024359060018060a01b039283606854169382518095632474521560e21b8252600080516020611c888339815191528883015233602483015281604460209889935afa9081156104f1578891610e58575b5015610e48578116948515610e05575091859391610d9b600080516020611ca883398151915294611c17565b610da7826036546112c2565b60365585855260348352808520610dbf8382546112c2565b905585855260348352610def64e8d4a51000610de98388205460018060801b0360335416906112af565b0461166b565b868652603484526001828720015551908152a380f35b825162461bcd60e51b8152908101859052601f60248201527f45524332303a206d696e7420746f20746865207a65726f2061646472657373006044820152606490fd5b82516308ff603760e01b81528690fd5b610e6f9150863d88116104ea576104dc81836111f1565b38610d6f565b50903461020057816003193601126102005760209051655af3107a40008152f35b50903461020057806003193601126102005761077b602092610edf610eb961118f565b338352603586528483206001600160a01b038216845286529184902054602435906112c2565b9033611b15565b509034610200576020366003190112610200576020906101bb610f0761118f565b6114e5565b5090346102005781600319360112610200576020905160128152f35b50903461020057606036600319011261020057602090610f5a610f4961118f565b610f516111aa565b6044359161176c565b90519015158152f35b5090346102005781600319360112610200576020906036549051908152f35b509034610200578160031936011261020057602090517fe965846df3dd5b1dfa65f58e31477079e90140e0908b6dd31b5aead5a57cf3658152f35b50903461020057806003193601126102005760209061077b610fdd61118f565b6024359033611b15565b5090346102005781600319360112610200578051908260375461100981611732565b808552906001908181169081156109e257506001146110345750505061097b826109859403836111f1565b60378352602095507f42a7b7dd785cd69714a189dffb3fd7d7174edc9ece837694ce50f7078f7c31ae5b82841061107a57505050826109859461097b9282010194610969565b805486850188015292860192810161105e565b50903461020057816003193601126102005760685490516001600160a01b039091168152602090f35b905082843461072d57602036600319011261072d57803563ffffffff60e01b8116809103610b55576068546301ffc9a760e01b855291840152602090839060249082906001600160a01b03165afa91821561113c576020939261111d575b50519015158152f35b611135919250833d81116104ea576104dc81836111f1565b9083611114565b81513d85823e3d90fd5b6020808252825181830181905290939260005b82811061117b57505060409293506000838284010152601f8019910116010190565b818101860151848201604001528501611159565b600435906001600160a01b03821682036111a557565b600080fd5b602435906001600160a01b03821682036111a557565b604081019081106001600160401b038211176111db57604052565b634e487b7160e01b600052604160045260246000fd5b601f909101601f19168101906001600160401b038211908210176111db57604052565b908160209103126111a5575180151581036111a55790565b1561123357565b60405162461bcd60e51b815260206004820152602b60248201527f496e697469616c697a61626c653a20636f6e7472616374206973206e6f74206960448201526a6e697469616c697a696e6760a81b6064820152608490fd5b9190820391821161129957565b634e487b7160e01b600052601160045260246000fd5b8181029291811591840414171561129957565b9190820180921161129957565b81156112d9570490565b634e487b7160e01b600052601260045260246000fd5b603a5490919082811161130457505050600090565b8082101561132657506113239161131a9161128c565b603954906112af565b90565b61131a9150916113239261128c565b6033546001600160401b0390608081901c821643811061135457505050565b6113686036546113626114aa565b9061128c565b90816113f2575b505050431161139e5760338054600160801b600160c01b0319164360801b600160801b600160c01b0316179055565b60405162461bcd60e51b815260206004820152602660248201527f53616665436173743a2076616c756520646f65736e27742066697420696e203660448201526534206269747360d01b6064820152608490fd5b6113fd9043906112ef565b9064e8d4a51000918281029281840414901517156112995761141e916112cf565b6001600160801b039081811161145557811681831601818111611299576001600160801b031990921691161760335538808061136f565b60405162461bcd60e51b815260206004820152602760248201527f53616665436173743a2076616c756520646f65736e27742066697420696e20316044820152663238206269747360c81b6064820152608490fd5b603a548043116114c65761132390610ae960395491439061128c565b50600090565b8181039291600013801582851316918412161761129957565b6114f36036546113626114aa565b908115611615576033546001600160401b0392906001600160801b0381169060801c84164381106115df575b50905060009160018060a01b0316825260346020526040822092604051906060820190828210908211176115cb576115859264e8d4a5100092610de992604052865490818152604060ff600260018b01549a602085019b8c5201541615159101526112af565b916115a261159d655af3107a400094859351906114cc565b61161c565b048281029281840414901517156115b7575090565b634e487b7160e01b81526011600452602490fd5b634e487b7160e01b84526041600452602484fd5b6115ea9043906112ef565b64e8d4a51000908181029181830414901517156112995761160e92610bcf916112cf565b803861151f565b5050600090565b600081126116275790565b606460405162461bcd60e51b815260206004820152602060248201527f53616665436173743a2076616c7565206d75737420626520706f7369746976656044820152fd5b6001600160ff1b03811161167c5790565b60405162461bcd60e51b815260206004820152602860248201527f53616665436173743a2076616c756520646f65736e27742066697420696e2061604482015267371034b73a191a9b60c11b6064820152608490fd5b603a54431161172d576116e96036546113626114aa565b6039549062201480918281029281840414811517156112995766de99aa8b27b3c160191b0291808304670de0b6b3a7640000149015171561129957611323916112cf565b600090565b90600182811c92168015611762575b602083101461174c57565b634e487b7160e01b600052602260045260246000fd5b91607f1691611741565b919060018060a01b03831660005260356020526040600020336000526020526040600020549260001984036117ab575b6117a6935061180c565b600190565b8284106117c7576117c2836117a695033383611b15565b61179c565b60405162461bcd60e51b815260206004820152601d60248201527f45524332303a20696e73756666696369656e7420616c6c6f77616e63650000006044820152606490fd5b9192916001600160a01b038082169190821561198e57831692831561193d5761183761183c92611c17565b611c17565b60009381855260209060348252604080872054968288106118ea578285969798600080516020611ca88339815191529683526034865203828220556001826118d881842054610de964e8d4a51000916118a283878060801b03928360335416020461166b565b8c885260348b528686892001558c87528487206118c08a82546112c2565b90558c875260348a52848720549060335416906112af565b928981526034875220015551908152a3565b815162461bcd60e51b815260048101859052602660248201527f45524332303a207472616e7366657220616d6f756e7420657863656564732062604482015265616c616e636560d01b6064820152608490fd5b60405162461bcd60e51b815260206004820152602360248201527f45524332303a207472616e7366657220746f20746865207a65726f206164647260448201526265737360e81b6064820152608490fd5b60405162461bcd60e51b815260206004820152602560248201527f45524332303a207472616e736665722066726f6d20746865207a65726f206164604482015264647265737360d81b6064820152608490fd5b6001600160a01b038116908115611ac6576119fb90611c17565b6000918183526034602052604080842054828110611a77579160209181600080516020611ca883398151915294868852603485520381872055611a5364e8d4a510008288205460018060801b0360335416020461166b565b8587526034845260018288200155611a6d8260365461128c565b60365551908152a3565b815162461bcd60e51b815260206004820152602260248201527f45524332303a206275726e20616d6f756e7420657863656564732062616c616e604482015261636560f01b6064820152608490fd5b60405162461bcd60e51b815260206004820152602160248201527f45524332303a206275726e2066726f6d20746865207a65726f206164647265736044820152607360f81b6064820152608490fd5b6001600160a01b03908116918215611bc65716918215611b765760207f8c5be1e5ebec7d5bd14f71427d1e84f3dd0314c0f7b2291e5b200ac8c7c3b925918360005260358252604060002085600052825280604060002055604051908152a3565b60405162461bcd60e51b815260206004820152602260248201527f45524332303a20617070726f766520746f20746865207a65726f206164647265604482015261737360f01b6064820152608490fd5b60405162461bcd60e51b8152602060048201526024808201527f45524332303a20617070726f76652066726f6d20746865207a65726f206164646044820152637265737360e01b6064820152608490fd5b6001600160a01b03166000908152603460205260409020611c36611335565b611c83815491610de964e8d4a510009160018060801b03611c76611c6285610de984603354168a6112af565b96610bcf61159d60018601998a54906114cc565b80925560335416906112af565b905556fee453bacb314e78dcd5192e6b1a2b1f0e7c76e92f6b7e429a6a90f04e39db3b76ddf252ad1be2c89b69c2b068fc378daa952ba7f163c4a11628f55a4df523b3efa2646970667358221220b876bf16d1a2aece5fe7e5561ca7a77f52bda6464a0bc84de6fac2f6626fe2f564736f6c63430008110033",
  "devdoc": {
    "kind": "dev",
    "methods": {
      "allowance(address,address)": {
        "details": "See {IERC20-allowance}."
      },
      "approve(address,uint256)": {
        "details": "See {IERC20-approve}. NOTE: If `amount` is the maximum `uint256`, the allowance is not updated on `transferFrom`. This is semantically equivalent to an infinite approval. Requirements: - `spender` cannot be the zero address."
      },
      "balanceOf(address)": {
        "details": "See {IERC20-balanceOf}."
      },
      "decimals()": {
        "details": "Returns the number of decimals used to get its user representation. For example, if `decimals` equals `2`, a balance of `505` tokens should be displayed to a user as `5.05` (`505 / 10 ** 2`). Tokens usually opt for a value of 18, imitating the relationship between Ether and Wei. This is the value {ERC20} uses, unless this function is overridden; NOTE: This information is only used for _display_ purposes: it in no way affects any of the arithmetic of the contract, including {IERC20-balanceOf} and {IERC20-transfer}."
      },
      "decreaseAllowance(address,uint256)": {
        "details": "Atomically decreases the allowance granted to `spender` by the caller. This is an alternative to {approve} that can be used as a mitigation for problems described in {IERC20-approve}. Emits an {Approval} event indicating the updated allowance. Requirements: - `spender` cannot be the zero address. - `spender` must have allowance for the caller of at least `subtractedValue`."
      },
      "increaseAllowance(address,uint256)": {
        "details": "Atomically increases the allowance granted to `spender` by the caller. This is an alternative to {approve} that can be used as a mitigation for problems described in {IERC20-approve}. Emits an {Approval} event indicating the updated allowance. Requirements: - `spender` cannot be the zero address."
      },
      "mint(address,uint256)": {
        "details": "Mints 'amount' of tokens to address 'to', and MUST fire the Transfer event",
        "params": {
          "amount": "The amount of token to be minted*",
          "to": "The address of the recipient"
        }
      },
      "name()": {
        "details": "Returns the name of the token."
      },
      "rewardsBetweenBlocks(uint256,uint256)": {
        "details": "returns total amount of rewards allocated to the all pools on the rage (startBlock, endBlock]      i.e. excluding startBlock but including endBlock"
      },
      "supportsInterface(bytes4)": {
        "details": "Returns true if this contract implements the interface defined by `interfaceId`. See the corresponding https://eips.ethereum.org/EIPS/eip-165#how-interfaces-are-identified[EIP section] to learn more about how these ids are created. This function call must use less than 30 000 gas."
      },
      "symbol()": {
        "details": "Returns the symbol of the token, usually a shorter version of the name."
      },
      "totalSupply()": {
        "details": "See {IERC20-totalSupply}."
      },
      "transfer(address,uint256)": {
        "details": "See {IERC20-transfer}. Requirements: - `to` cannot be the zero address. - the caller must have a balance of at least `amount`."
      },
      "transferFrom(address,address,uint256)": {
        "details": "See {IERC20-transferFrom}. Emits an {Approval} event indicating the updated allowance. This is not required by the EIP. See the note at the beginning of {ERC20}. NOTE: Does not update the allowance if the current allowance is the maximum `uint256`. Requirements: - `from` and `to` cannot be the zero address. - `from` must have a balance of at least `amount`. - the caller must have allowance for ``from``'s tokens of at least `amount`."
      }
    },
    "version": 1
  },
  "userdoc": {
    "kind": "user",
    "methods": {
      "mint(address,uint256)": {
        "notice": "Only Vault can mint StablePro"
      }
    },
    "version": 1
  },
  "storageLayout": {
    "storage": [
      {
        "astId": 461,
        "contract": "contracts/StablePro.sol:StablePro",
        "label": "_initialized",
        "offset": 0,
        "slot": "0",
        "type": "t_uint8"
      },
      {
        "astId": 464,
        "contract": "contracts/StablePro.sol:StablePro",
        "label": "_initializing",
        "offset": 1,
        "slot": "0",
        "type": "t_bool"
      },
      {
        "astId": 1593,
        "contract": "contracts/StablePro.sol:StablePro",
        "label": "__gap",
        "offset": 0,
        "slot": "1",
        "type": "t_array(t_uint256)50_storage"
      },
      {
        "astId": 14855,
        "contract": "contracts/StablePro.sol:StablePro",
        "label": "rewardPool",
        "offset": 0,
        "slot": "51",
        "type": "t_struct(IRewardPool)14846_storage"
      },
      {
        "astId": 14860,
        "contract": "contracts/StablePro.sol:StablePro",
        "label": "_accounts",
        "offset": 0,
        "slot": "52",
        "type": "t_mapping(t_address,t_struct(IAccount)14841_storage)"
      },
      {
        "astId": 14866,
        "contract": "contracts/StablePro.sol:StablePro",
        "label": "_allowances",
        "offset": 0,
        "slot": "53",
        "type": "t_mapping(t_address,t_mapping(t_address,t_uint256))"
      },
      {
        "astId": 14868,
        "contract": "contracts/StablePro.sol:StablePro",
        "label": "_totalSupply",
        "offset": 0,
        "slot": "54",
        "type": "t_uint256"
      },
      {
        "astId": 14870,
        "contract": "contracts/StablePro.sol:StablePro",
        "label": "_name",
        "offset": 0,
        "slot": "55",
        "type": "t_string_storage"
      },
      {
        "astId": 14872,
        "contract": "contracts/StablePro.sol:StablePro",
        "label": "_symbol",
        "offset": 0,
        "slot": "56",
        "type": "t_string_storage"
      },
      {
        "astId": 14874,
        "contract": "contracts/StablePro.sol:StablePro",
        "label": "rewardPerBlock",
        "offset": 0,
        "slot": "57",
        "type": "t_uint256"
      },
      {
        "astId": 14876,
        "contract": "contracts/StablePro.sol:StablePro",
        "label": "rewardEndBlock",
        "offset": 0,
        "slot": "58",
        "type": "t_uint256"
      },
      {
        "astId": 15940,
        "contract": "contracts/StablePro.sol:StablePro",
        "label": "__gap",
        "offset": 0,
        "slot": "59",
        "type": "t_array(t_uint256)45_storage"
      },
      {
        "astId": 9094,
        "contract": "contracts/StablePro.sol:StablePro",
        "label": "ACCESS_CONTROL_SINGLETON",
        "offset": 0,
        "slot": "104",
        "type": "t_contract(ISuAccessControl)16250"
      }
    ],
    "types": {
      "t_address": {
        "encoding": "inplace",
        "label": "address",
        "numberOfBytes": "20"
      },
      "t_array(t_uint256)45_storage": {
        "base": "t_uint256",
        "encoding": "inplace",
        "label": "uint256[45]",
        "numberOfBytes": "1440"
      },
      "t_array(t_uint256)50_storage": {
        "base": "t_uint256",
        "encoding": "inplace",
        "label": "uint256[50]",
        "numberOfBytes": "1600"
      },
      "t_bool": {
        "encoding": "inplace",
        "label": "bool",
        "numberOfBytes": "1"
      },
      "t_contract(ISuAccessControl)16250": {
        "encoding": "inplace",
        "label": "contract ISuAccessControl",
        "numberOfBytes": "20"
      },
      "t_int256": {
        "encoding": "inplace",
        "label": "int256",
        "numberOfBytes": "32"
      },
      "t_mapping(t_address,t_mapping(t_address,t_uint256))": {
        "encoding": "mapping",
        "key": "t_address",
        "label": "mapping(address => mapping(address => uint256))",
        "numberOfBytes": "32",
        "value": "t_mapping(t_address,t_uint256)"
      },
      "t_mapping(t_address,t_struct(IAccount)14841_storage)": {
        "encoding": "mapping",
        "key": "t_address",
        "label": "mapping(address => struct GainableERC20v3Upgradeable.IAccount)",
        "numberOfBytes": "32",
        "value": "t_struct(IAccount)14841_storage"
      },
      "t_mapping(t_address,t_uint256)": {
        "encoding": "mapping",
        "key": "t_address",
        "label": "mapping(address => uint256)",
        "numberOfBytes": "32",
        "value": "t_uint256"
      },
      "t_string_storage": {
        "encoding": "bytes",
        "label": "string",
        "numberOfBytes": "32"
      },
      "t_struct(IAccount)14841_storage": {
        "encoding": "inplace",
        "label": "struct GainableERC20v3Upgradeable.IAccount",
        "members": [
          {
            "astId": 14836,
            "contract": "contracts/StablePro.sol:StablePro",
            "label": "balance",
            "offset": 0,
            "slot": "0",
            "type": "t_uint256"
          },
          {
            "astId": 14838,
            "contract": "contracts/StablePro.sol:StablePro",
            "label": "rewardDebt",
            "offset": 0,
            "slot": "1",
            "type": "t_int256"
          },
          {
            "astId": 14840,
            "contract": "contracts/StablePro.sol:StablePro",
            "label": "isGainDisabled",
            "offset": 0,
            "slot": "2",
            "type": "t_bool"
          }
        ],
        "numberOfBytes": "96"
      },
      "t_struct(IRewardPool)14846_storage": {
        "encoding": "inplace",
        "label": "struct GainableERC20v3Upgradeable.IRewardPool",
        "members": [
          {
            "astId": 14843,
            "contract": "contracts/StablePro.sol:StablePro",
            "label": "accRewardPerShare",
            "offset": 0,
            "slot": "0",
            "type": "t_uint128"
          },
          {
            "astId": 14845,
            "contract": "contracts/StablePro.sol:StablePro",
            "label": "lastRewardBlock",
            "offset": 16,
            "slot": "0",
            "type": "t_uint64"
          }
        ],
        "numberOfBytes": "32"
      },
      "t_uint128": {
        "encoding": "inplace",
        "label": "uint128",
        "numberOfBytes": "16"
      },
      "t_uint256": {
        "encoding": "inplace",
        "label": "uint256",
        "numberOfBytes": "32"
      },
      "t_uint64": {
        "encoding": "inplace",
        "label": "uint64",
        "numberOfBytes": "8"
      },
      "t_uint8": {
        "encoding": "inplace",
        "label": "uint8",
        "numberOfBytes": "1"
      }
    }
  }
}