{
  "address": "0x1d54F6110e865264b8fF1C88E8221A47bb320f30",
  "abi": [
    {
      "anonymous": false,
      "inputs": [
        {
          "indexed": true,
          "internalType": "address",
          "name": "owner",
          "type": "address"
        },
        {
          "indexed": true,
          "internalType": "address",
          "name": "spender",
          "type": "address"
        },
        {
          "indexed": false,
          "internalType": "uint256",
          "name": "value",
          "type": "uint256"
        }
      ],
      "name": "Approval",
      "type": "event"
    },
    {
      "anonymous": false,
      "inputs": [
        {
          "indexed": false,
          "internalType": "uint8",
          "name": "version",
          "type": "uint8"
        }
      ],
      "name": "Initialized",
      "type": "event"
    },
    {
      "anonymous": false,
      "inputs": [
        {
          "indexed": true,
          "internalType": "address",
          "name": "from",
          "type": "address"
        },
        {
          "indexed": true,
          "internalType": "address",
          "name": "to",
          "type": "address"
        },
        {
          "indexed": false,
          "internalType": "uint256",
          "name": "value",
          "type": "uint256"
        }
      ],
      "name": "Transfer",
      "type": "event"
    },
    {
      "inputs": [],
      "name": "ACCESS_CONTROL_SINGLETON",
      "outputs": [
        {
          "internalType": "contract ISuAccessControl",
          "name": "",
          "type": "address"
        }
      ],
      "stateMutability": "view",
      "type": "function"
    },
    {
      "inputs": [],
      "name": "LIQUIDATION_ACCESS_ROLE",
      "outputs": [
        {
          "internalType": "bytes32",
          "name": "",
          "type": "bytes32"
        }
      ],
      "stateMutability": "view",
      "type": "function"
    },
    {
      "inputs": [],
      "name": "MINTER_ROLE",
      "outputs": [
        {
          "internalType": "bytes32",
          "name": "",
          "type": "bytes32"
        }
      ],
      "stateMutability": "view",
      "type": "function"
    },
    {
      "inputs": [],
      "name": "REWARD_PRECISION",
      "outputs": [
        {
          "internalType": "uint256",
          "name": "",
          "type": "uint256"
        }
      ],
      "stateMutability": "view",
      "type": "function"
    },
    {
      "inputs": [],
      "name": "VAULT_ACCESS_ROLE",
      "outputs": [
        {
          "internalType": "bytes32",
          "name": "",
          "type": "bytes32"
        }
      ],
      "stateMutability": "view",
      "type": "function"
    },
    {
      "inputs": [
        {
          "internalType": "address",
          "name": "",
          "type": "address"
        }
      ],
      "name": "_accounts",
      "outputs": [
        {
          "internalType": "uint256",
          "name": "balance",
          "type": "uint256"
        },
        {
          "internalType": "int256",
          "name": "rewardDebt",
          "type": "int256"
        },
        {
          "internalType": "bool",
          "name": "isGainDisabled",
          "type": "bool"
        }
      ],
      "stateMutability": "view",
      "type": "function"
    },
    {
      "inputs": [
        {
          "internalType": "address",
          "name": "owner",
          "type": "address"
        },
        {
          "internalType": "address",
          "name": "spender",
          "type": "address"
        }
      ],
      "name": "allowance",
      "outputs": [
        {
          "internalType": "uint256",
          "name": "",
          "type": "uint256"
        }
      ],
      "stateMutability": "view",
      "type": "function"
    },
    {
      "inputs": [
        {
          "internalType": "address",
          "name": "spender",
          "type": "address"
        },
        {
          "internalType": "uint256",
          "name": "amount",
          "type": "uint256"
        }
      ],
      "name": "approve",
      "outputs": [
        {
          "internalType": "bool",
          "name": "",
          "type": "bool"
        }
      ],
      "stateMutability": "nonpayable",
      "type": "function"
    },
    {
      "inputs": [
        {
          "internalType": "address",
          "name": "account",
          "type": "address"
        }
      ],
      "name": "balanceOf",
      "outputs": [
        {
          "internalType": "uint256",
          "name": "",
          "type": "uint256"
        }
      ],
      "stateMutability": "view",
      "type": "function"
    },
    {
      "inputs": [
        {
          "internalType": "uint256",
          "name": "amount",
          "type": "uint256"
        }
      ],
      "name": "burn",
      "outputs": [],
      "stateMutability": "nonpayable",
      "type": "function"
    },
    {
      "inputs": [
        {
          "internalType": "address",
          "name": "from",
          "type": "address"
        },
        {
          "internalType": "uint256",
          "name": "amount",
          "type": "uint256"
        }
      ],
      "name": "burn",
      "outputs": [],
      "stateMutability": "nonpayable",
      "type": "function"
    },
    {
      "inputs": [],
      "name": "decimals",
      "outputs": [
        {
          "internalType": "uint8",
          "name": "",
          "type": "uint8"
        }
      ],
      "stateMutability": "view",
      "type": "function"
    },
    {
      "inputs": [
        {
          "internalType": "address",
          "name": "spender",
          "type": "address"
        },
        {
          "internalType": "uint256",
          "name": "subtractedValue",
          "type": "uint256"
        }
      ],
      "name": "decreaseAllowance",
      "outputs": [
        {
          "internalType": "bool",
          "name": "",
          "type": "bool"
        }
      ],
      "stateMutability": "nonpayable",
      "type": "function"
    },
    {
      "inputs": [],
      "name": "getYieldAPR",
      "outputs": [
        {
          "internalType": "uint256",
          "name": "",
          "type": "uint256"
        }
      ],
      "stateMutability": "view",
      "type": "function"
    },
    {
      "inputs": [
        {
          "internalType": "address",
          "name": "spender",
          "type": "address"
        },
        {
          "internalType": "uint256",
          "name": "addedValue",
          "type": "uint256"
        }
      ],
      "name": "increaseAllowance",
      "outputs": [
        {
          "internalType": "bool",
          "name": "",
          "type": "bool"
        }
      ],
      "stateMutability": "nonpayable",
      "type": "function"
    },
    {
      "inputs": [
        {
          "internalType": "address",
          "name": "_authControl",
          "type": "address"
        }
      ],
      "name": "initialize",
      "outputs": [],
      "stateMutability": "nonpayable",
      "type": "function"
    },
    {
      "inputs": [
        {
          "internalType": "address",
          "name": "to",
          "type": "address"
        },
        {
          "internalType": "uint256",
          "name": "amount",
          "type": "uint256"
        }
      ],
      "name": "mint",
      "outputs": [],
      "stateMutability": "nonpayable",
      "type": "function"
    },
    {
      "inputs": [],
      "name": "name",
      "outputs": [
        {
          "internalType": "string",
          "name": "",
          "type": "string"
        }
      ],
      "stateMutability": "view",
      "type": "function"
    },
    {
      "inputs": [
        {
          "internalType": "address",
          "name": "account",
          "type": "address"
        }
      ],
      "name": "pendingRewards",
      "outputs": [
        {
          "internalType": "uint256",
          "name": "",
          "type": "uint256"
        }
      ],
      "stateMutability": "view",
      "type": "function"
    },
    {
      "inputs": [
        {
          "internalType": "uint256",
          "name": "amount",
          "type": "uint256"
        },
        {
          "internalType": "uint64",
          "name": "endBlock",
          "type": "uint64"
        }
      ],
      "name": "refillReward",
      "outputs": [],
      "stateMutability": "nonpayable",
      "type": "function"
    },
    {
      "inputs": [],
      "name": "rewardEndBlock",
      "outputs": [
        {
          "internalType": "uint256",
          "name": "",
          "type": "uint256"
        }
      ],
      "stateMutability": "view",
      "type": "function"
    },
    {
      "inputs": [],
      "name": "rewardPerBlock",
      "outputs": [
        {
          "internalType": "uint256",
          "name": "",
          "type": "uint256"
        }
      ],
      "stateMutability": "view",
      "type": "function"
    },
    {
      "inputs": [],
      "name": "rewardPool",
      "outputs": [
        {
          "internalType": "uint128",
          "name": "accRewardPerShare",
          "type": "uint128"
        },
        {
          "internalType": "uint64",
          "name": "lastRewardBlock",
          "type": "uint64"
        }
      ],
      "stateMutability": "view",
      "type": "function"
    },
    {
      "inputs": [
        {
          "internalType": "uint256",
          "name": "startBlock",
          "type": "uint256"
        },
        {
          "internalType": "uint256",
          "name": "endBlock",
          "type": "uint256"
        }
      ],
      "name": "rewardsBetweenBlocks",
      "outputs": [
        {
          "internalType": "uint256",
          "name": "",
          "type": "uint256"
        }
      ],
      "stateMutability": "view",
      "type": "function"
    },
    {
      "inputs": [],
      "name": "symbol",
      "outputs": [
        {
          "internalType": "string",
          "name": "",
          "type": "string"
        }
      ],
      "stateMutability": "view",
      "type": "function"
    },
    {
      "inputs": [],
      "name": "totalSupply",
      "outputs": [
        {
          "internalType": "uint256",
          "name": "",
          "type": "uint256"
        }
      ],
      "stateMutability": "view",
      "type": "function"
    },
    {
      "inputs": [
        {
          "internalType": "address",
          "name": "to",
          "type": "address"
        },
        {
          "internalType": "uint256",
          "name": "amount",
          "type": "uint256"
        }
      ],
      "name": "transfer",
      "outputs": [
        {
          "internalType": "bool",
          "name": "",
          "type": "bool"
        }
      ],
      "stateMutability": "nonpayable",
      "type": "function"
    },
    {
      "inputs": [
        {
          "internalType": "address",
          "name": "from",
          "type": "address"
        },
        {
          "internalType": "address",
          "name": "to",
          "type": "address"
        },
        {
          "internalType": "uint256",
          "name": "amount",
          "type": "uint256"
        }
      ],
      "name": "transferFrom",
      "outputs": [
        {
          "internalType": "bool",
          "name": "",
          "type": "bool"
        }
      ],
      "stateMutability": "nonpayable",
      "type": "function"
    },
    {
      "inputs": [],
      "name": "updateRewardPool",
      "outputs": [],
      "stateMutability": "nonpayable",
      "type": "function"
    }
  ],
  "numDeployments": 1,
  "solcInputHash": "bee5958df9bd2aa66431a5d7e5e2d5ec",
  "bytecode": "0x608060405234801561001057600080fd5b50611c7a806100206000396000f3fe608060405234801561001057600080fd5b506004361061015f5760003560e01c806303ee9f221461016457806306fdde0314610194578063095ea7b3146101a957806314c376dc146101cc57806318160ddd1461020157806323b872dd14610209578063313ce5671461021c57806331d7a2621461022b578063395093511461023e5780633d6aa5e11461025157806340c10f191461025e57806342966c6814610273578063604ef2e51461028657806366666aa91461028f57806370a08231146102db57806381028dde146102ee57806387ee8c4c146102f65780638ae39cac1461030957806395d89b41146103125780639dc29fac1461031a578063a457c2d71461032d578063a59bed5814610340578063a9059cbb1461038f578063ab6a8b02146103a2578063c4d66de8146103aa578063d5391393146103bd578063dc97e84e146103d2578063dd62ed3e146103f9578063eeba3c3f1461040c575b600080fd5b606854610177906001600160a01b031681565b6040516001600160a01b0390911681526020015b60405180910390f35b61019c61041f565b60405161018b9190611794565b6101bc6101b73660046117fe565b6104b1565b604051901515815260200161018b565b6101f37fe965846df3dd5b1dfa65f58e31477079e90140e0908b6dd31b5aead5a57cf36581565b60405190815260200161018b565b6036546101f3565b6101bc610217366004611828565b6104cb565b6040516012815260200161018b565b6101f3610239366004611864565b6104ef565b6101bc61024c3660046117fe565b61063a565b6101f3655af3107a400081565b61027161026c3660046117fe565b610679565b005b610271610281366004611886565b61072d565b6101f3603a5481565b6033546102b4906001600160801b03811690600160801b90046001600160401b031682565b604080516001600160801b0390931683526001600160401b0390911660208301520161018b565b6101f36102e9366004611864565b6107fa565b6101f3610828565b61027161030436600461189f565b61088d565b6101f360395481565b61019c610984565b6102716103283660046117fe565b610993565b6101bc61033b3660046117fe565b610a3a565b61037261034e366004611864565b60346020526000908152604090208054600182015460029092015490919060ff1683565b60408051938452602084019290925215159082015260600161018b565b6101bc61039d3660046117fe565b610acc565b610271610ada565b6102716103b8366004611864565b610bc7565b6101f3600080516020611c0583398151915281565b6101f37f9a9aef7c1247d5fc769b0185c052913e39673da29a880317dfd20ebf86f26a4981565b6101f36104073660046118db565b610d2c565b6101f361041a36600461190e565b610d57565b60606037805461042e90611930565b80601f016020809104026020016040519081016040528092919081815260200182805461045a90611930565b80156104a75780601f1061047c576101008083540402835291602001916104a7565b820191906000526020600020905b81548152906001019060200180831161048a57829003601f168201915b5050505050905090565b6000336104bf818585610da3565b60019150505b92915050565b6000336104d9858285610ec8565b6104e4858585610f42565b506001949350505050565b6000806104fa611193565b6036546105079190611980565b90508060000361051a5750600092915050565b6033546001600160801b03811690600160801b90046001600160401b03164311156105895760335460009061055f90600160801b90046001600160401b031643610d57565b90508261057164e8d4a5100083611993565b61057b91906119aa565b61058590836119cc565b9150505b6001600160a01b03841660009081526034602090815260408083208151606081018352815480825260018301549482019490945260029091015460ff1615159181019190915291906105f69064e8d4a51000906105e7908690611993565b6105f191906119aa565b6111c5565b9050600061061283602001518361060d91906119df565b611233565b9050655af3107a400061062581836119aa565b61062f9190611993565b979650505050505050565b3360008181526035602090815260408083206001600160a01b03871684529091528120549091906104bf90829086906106749087906119cc565b610da3565b606854604051632474521560e21b81526001600160a01b03909116906391d14854906106b990600080516020611c05833981519152903390600401611a06565b602060405180830381865afa1580156106d6573d6000803e3d6000fd5b505050506040513d601f19601f820116820180604052508101906106fa9190611a1d565b61071f5760405162461bcd60e51b815260040161071690611a3f565b60405180910390fd5b6107298282611285565b5050565b606854604051632474521560e21b81526001600160a01b03909116906391d1485490610760906000903390600401611a06565b602060405180830381865afa15801561077d573d6000803e3d6000fd5b505050506040513d601f19601f820116820180604052508101906107a19190611a1d565b6107ed5760405162461bcd60e51b815260206004820152601d60248201527f5375417574683a206f6e6c794f776e657220415554485f4641494c45440000006044820152606401610716565b6107f733826113b3565b50565b6000610805826104ef565b6001600160a01b0383166000908152603460205260409020546104c591906119cc565b6000603a5443111561083a5750600090565b6000610844611193565b6036546108519190611980565b90506000622014809050818160395461086a9190611993565b61087c90670de0b6b3a7640000611993565b61088691906119aa565b9250505090565b806001600160401b031643106108fb5760405162461bcd60e51b815260206004820152602d60248201527f456e64426c6f636b2073686f756c642062652067726561746572207468616e2060448201526c63757272656e7420626c6f636b60981b6064820152608401610716565b610903610ada565b61090e3330846104cb565b50603a546000901561094a57603a544310156109465743603a546109329190611980565b60395461093f9190611993565b905061094a565b5060005b61095d436001600160401b038416611980565b61096784836119cc565b61097191906119aa565b603955506001600160401b0316603a5550565b60606038805461042e90611930565b606854604051632474521560e21b81526001600160a01b03909116906391d14854906109d390600080516020611c05833981519152903390600401611a06565b602060405180830381865afa1580156109f0573d6000803e3d6000fd5b505050506040513d601f19601f82011682018060405250810190610a149190611a1d565b610a305760405162461bcd60e51b815260040161071690611a3f565b61072982826113b3565b3360008181526035602090815260408083206001600160a01b038716845290915281205490919083811015610abf5760405162461bcd60e51b815260206004820152602560248201527f45524332303a2064656372656173656420616c6c6f77616e63652062656c6f77604482015264207a65726f60d81b6064820152608401610716565b6104e48286868403610da3565b6000336104bf818585610f42565b603354600160801b90046001600160401b0316431115610bc5576000610afe611193565b603654610b0b9190611980565b90508015610b8f57603354600090610b3390600160801b90046001600160401b031643610d57565b9050610b5782610b4864e8d4a5100084611993565b610b5291906119aa565b611536565b603354610b6d91906001600160801b0316611a76565b603380546001600160801b0319166001600160801b0392909216919091179055505b610b984361159f565b603380546001600160401b0392909216600160801b02600160801b600160c01b0319909216919091179055505b565b600054610100900460ff1615808015610be75750600054600160ff909116105b80610c015750303b158015610c01575060005460ff166001145b610c645760405162461bcd60e51b815260206004820152602e60248201527f496e697469616c697a61626c653a20636f6e747261637420697320616c72656160448201526d191e481a5b9a5d1a585b1a5e995960921b6064820152608401610716565b6000805460ff191660011790558015610c87576000805461ff0019166101001790555b610cda60405180604001604052806013815260200172537461626c65556e6974204555524f2050726f60681b8152506040518060400160405280600681526020016545555250726f60d01b815250611607565b610ce382611638565b8015610729576000805461ff0019169055604051600181527f7f26b83ff96e1f2b6a682f133852f6798a09c465da95921460cefb38474024989060200160405180910390a15050565b6001600160a01b03918216600090815260356020908152604080832093909416825291909152205490565b600082603a5411610d6a575060006104c5565b603a54821015610d9257603954610d818484611980565b610d8b9190611993565b90506104c5565b60395483603a54610d819190611980565b6001600160a01b038316610e055760405162461bcd60e51b8152602060048201526024808201527f45524332303a20617070726f76652066726f6d20746865207a65726f206164646044820152637265737360e01b6064820152608401610716565b6001600160a01b038216610e665760405162461bcd60e51b815260206004820152602260248201527f45524332303a20617070726f766520746f20746865207a65726f206164647265604482015261737360f01b6064820152608401610716565b6001600160a01b0383811660008181526035602090815260408083209487168084529482529182902085905590518481527f8c5be1e5ebec7d5bd14f71427d1e84f3dd0314c0f7b2291e5b200ac8c7c3b92591015b60405180910390a3505050565b6000610ed48484610d2c565b90506000198114610f3c5781811015610f2f5760405162461bcd60e51b815260206004820152601d60248201527f45524332303a20696e73756666696369656e7420616c6c6f77616e63650000006044820152606401610716565b610f3c8484848403610da3565b50505050565b6001600160a01b038316610fa65760405162461bcd60e51b815260206004820152602560248201527f45524332303a207472616e736665722066726f6d20746865207a65726f206164604482015264647265737360d81b6064820152608401610716565b6001600160a01b0382166110085760405162461bcd60e51b815260206004820152602360248201527f45524332303a207472616e7366657220746f20746865207a65726f206164647260448201526265737360e81b6064820152608401610716565b611013838383611681565b6001600160a01b0383166000908152603460205260409020548181101561108b5760405162461bcd60e51b815260206004820152602660248201527f45524332303a207472616e7366657220616d6f756e7420657863656564732062604482015265616c616e636560d01b6064820152608401610716565b6001600160a01b0384166000908152603460205260409020828203908190556033546110c99164e8d4a51000916001600160801b0316025b046111c5565b6001600160a01b0380861660009081526034602052604080822060010193909355908516815290812080548492906111029084906119cc565b90915550506033546001600160a01b0384166000908152603460205260409020546111419164e8d4a51000916105e7916001600160801b031690611993565b6001600160a01b038085166000818152603460205260409081902060010193909355915190861690600080516020611c25833981519152906111869086815260200190565b60405180910390a3610f3c565b6000603a544311156111a55750600090565b43603a546111b39190611980565b6039546111c09190611993565b905090565b60006001600160ff1b0382111561122f5760405162461bcd60e51b815260206004820152602860248201527f53616665436173743a2076616c756520646f65736e27742066697420696e2061604482015267371034b73a191a9b60c11b6064820152608401610716565b5090565b60008082121561122f5760405162461bcd60e51b815260206004820181905260248201527f53616665436173743a2076616c7565206d75737420626520706f7369746976656044820152606401610716565b6001600160a01b0382166112db5760405162461bcd60e51b815260206004820152601f60248201527f45524332303a206d696e7420746f20746865207a65726f2061646472657373006044820152606401610716565b6112e760008383611681565b80603660008282546112f991906119cc565b90915550506001600160a01b038216600090815260346020526040812080548392906113269084906119cc565b90915550506033546001600160a01b0383166000908152603460205260409020546113659164e8d4a51000916105e7916001600160801b031690611993565b6001600160a01b038316600081815260346020526040808220600101939093559151909190600080516020611c25833981519152906113a79085815260200190565b60405180910390a35050565b6001600160a01b0382166114135760405162461bcd60e51b815260206004820152602160248201527f45524332303a206275726e2066726f6d20746865207a65726f206164647265736044820152607360f81b6064820152608401610716565b61141f82600083611681565b6001600160a01b038216600090815260346020526040902054818110156114935760405162461bcd60e51b815260206004820152602260248201527f45524332303a206275726e20616d6f756e7420657863656564732062616c616e604482015261636560f01b6064820152608401610716565b6001600160a01b0383166000908152603460205260409020828203908190556033546114cf9164e8d4a51000916001600160801b0316026110c3565b6001600160a01b03841660009081526034602052604081206001019190915560368054849290611500908490611980565b90915550506040518281526000906001600160a01b03851690600080516020611c2583398151915290602001610ebb565b505050565b60006001600160801b0382111561122f5760405162461bcd60e51b815260206004820152602760248201527f53616665436173743a2076616c756520646f65736e27742066697420696e20316044820152663238206269747360c81b6064820152608401610716565b60006001600160401b0382111561122f5760405162461bcd60e51b815260206004820152602660248201527f53616665436173743a2076616c756520646f65736e27742066697420696e203660448201526534206269747360d01b6064820152608401610716565b600054610100900460ff1661162e5760405162461bcd60e51b815260040161071690611a96565b61072982826116b1565b600054610100900460ff1661165f5760405162461bcd60e51b815260040161071690611a96565b606880546001600160a01b0319166001600160a01b0392909216919091179055565b6001600160a01b0383161561169957611699836116f1565b6001600160a01b0382161561153157611531826116f1565b600054610100900460ff166116d85760405162461bcd60e51b815260040161071690611a96565b60376116e48382611b45565b5060386115318282611b45565b6001600160a01b0381166000908152603460205260409020611711610ada565b60335481546000916117399164e8d4a51000916105e7916001600160801b0390911690611993565b9050600061175083600101548361060d91906119df565b83549091506117609082906119cc565b8084556033546117869164e8d4a51000916105e7916001600160801b0390911690611993565b836001018190555050505050565b600060208083528351808285015260005b818110156117c1578581018301518582016040015282016117a5565b506000604082860101526040601f19601f8301168501019250505092915050565b80356001600160a01b03811681146117f957600080fd5b919050565b6000806040838503121561181157600080fd5b61181a836117e2565b946020939093013593505050565b60008060006060848603121561183d57600080fd5b611846846117e2565b9250611854602085016117e2565b9150604084013590509250925092565b60006020828403121561187657600080fd5b61187f826117e2565b9392505050565b60006020828403121561189857600080fd5b5035919050565b600080604083850312156118b257600080fd5b8235915060208301356001600160401b03811681146118d057600080fd5b809150509250929050565b600080604083850312156118ee57600080fd5b6118f7836117e2565b9150611905602084016117e2565b90509250929050565b6000806040838503121561192157600080fd5b50508035926020909101359150565b600181811c9082168061194457607f821691505b60208210810361196457634e487b7160e01b600052602260045260246000fd5b50919050565b634e487b7160e01b600052601160045260246000fd5b818103818111156104c5576104c561196a565b80820281158282048414176104c5576104c561196a565b6000826119c757634e487b7160e01b600052601260045260246000fd5b500490565b808201808211156104c5576104c561196a565b81810360008312801583831316838312821617156119ff576119ff61196a565b5092915050565b9182526001600160a01b0316602082015260400190565b600060208284031215611a2f57600080fd5b8151801515811461187f57600080fd5b6020808252601e908201527f5375417574683a206f6e6c794d696e74657220415554485f4641494c45440000604082015260600190565b6001600160801b038181168382160190808211156119ff576119ff61196a565b6020808252602b908201527f496e697469616c697a61626c653a20636f6e7472616374206973206e6f74206960408201526a6e697469616c697a696e6760a81b606082015260800190565b634e487b7160e01b600052604160045260246000fd5b601f82111561153157600081815260208120601f850160051c81016020861015611b1e5750805b601f850160051c820191505b81811015611b3d57828155600101611b2a565b505050505050565b81516001600160401b03811115611b5e57611b5e611ae1565b611b7281611b6c8454611930565b84611af7565b602080601f831160018114611ba75760008415611b8f5750858301515b600019600386901b1c1916600185901b178555611b3d565b600085815260208120601f198616915b82811015611bd657888601518255948401946001909101908401611bb7565b5085821015611bf45787850151600019600388901b60f8161c191681555b5050505050600190811b0190555056fe9f2df0fed2c77648de5860a4cc508cd0818c85b8b8a1ab4ceeef8d981c8956a6ddf252ad1be2c89b69c2b068fc378daa952ba7f163c4a11628f55a4df523b3efa264697066735822122053f835fecf88a6d8071ee7d43d34a42fee96d4f4c33e652029a0fd3217e0783e64736f6c63430008110033",
  "devdoc": {
    "kind": "dev",
    "methods": {
      "allowance(address,address)": {
        "details": "See {IERC20-allowance}."
      },
      "approve(address,uint256)": {
        "details": "See {IERC20-approve}. NOTE: If `amount` is the maximum `uint256`, the allowance is not updated on `transferFrom`. This is semantically equivalent to an infinite approval. Requirements: - `spender` cannot be the zero address."
      },
      "balanceOf(address)": {
        "details": "See {IERC20-balanceOf}."
      },
      "decimals()": {
        "details": "Returns the number of decimals used to get its user representation. For example, if `decimals` equals `2`, a balance of `505` tokens should be displayed to a user as `5.05` (`505 / 10 ** 2`). Tokens usually opt for a value of 18, imitating the relationship between Ether and Wei. This is the value {ERC20} uses, unless this function is overridden; NOTE: This information is only used for _display_ purposes: it in no way affects any of the arithmetic of the contract, including {IERC20-balanceOf} and {IERC20-transfer}."
      },
      "decreaseAllowance(address,uint256)": {
        "details": "Atomically decreases the allowance granted to `spender` by the caller. This is an alternative to {approve} that can be used as a mitigation for problems described in {IERC20-approve}. Emits an {Approval} event indicating the updated allowance. Requirements: - `spender` cannot be the zero address. - `spender` must have allowance for the caller of at least `subtractedValue`."
      },
      "increaseAllowance(address,uint256)": {
        "details": "Atomically increases the allowance granted to `spender` by the caller. This is an alternative to {approve} that can be used as a mitigation for problems described in {IERC20-approve}. Emits an {Approval} event indicating the updated allowance. Requirements: - `spender` cannot be the zero address."
      },
      "mint(address,uint256)": {
        "details": "Mints 'amount' of tokens to address 'to', and MUST fire the Transfer event",
        "params": {
          "amount": "The amount of token to be minted*",
          "to": "The address of the recipient"
        }
      },
      "name()": {
        "details": "Returns the name of the token."
      },
      "rewardsBetweenBlocks(uint256,uint256)": {
        "details": "returns total amount of rewards allocated to the all pools on the rage (startBlock, endBlock]      i.e. excluding startBlock but including endBlock"
      },
      "symbol()": {
        "details": "Returns the symbol of the token, usually a shorter version of the name."
      },
      "totalSupply()": {
        "details": "See {IERC20-totalSupply}."
      },
      "transfer(address,uint256)": {
        "details": "See {IERC20-transfer}. Requirements: - `to` cannot be the zero address. - the caller must have a balance of at least `amount`."
      },
      "transferFrom(address,address,uint256)": {
        "details": "See {IERC20-transferFrom}. Emits an {Approval} event indicating the updated allowance. This is not required by the EIP. See the note at the beginning of {ERC20}. NOTE: Does not update the allowance if the current allowance is the maximum `uint256`. Requirements: - `from` and `to` cannot be the zero address. - `from` must have a balance of at least `amount`. - the caller must have allowance for ``from``'s tokens of at least `amount`."
      }
    },
    "version": 1
  },
  "userdoc": {
    "kind": "user",
    "methods": {
      "mint(address,uint256)": {
        "notice": "Only Vault can mint StablePro"
      }
    },
    "version": 1
  },
  "storageLayout": {
    "storage": [
      {
        "astId": 461,
        "contract": "contracts/StablePro.sol:StablePro",
        "label": "_initialized",
        "offset": 0,
        "slot": "0",
        "type": "t_uint8"
      },
      {
        "astId": 464,
        "contract": "contracts/StablePro.sol:StablePro",
        "label": "_initializing",
        "offset": 1,
        "slot": "0",
        "type": "t_bool"
      },
      {
        "astId": 1441,
        "contract": "contracts/StablePro.sol:StablePro",
        "label": "__gap",
        "offset": 0,
        "slot": "1",
        "type": "t_array(t_uint256)50_storage"
      },
      {
        "astId": 8709,
        "contract": "contracts/StablePro.sol:StablePro",
        "label": "rewardPool",
        "offset": 0,
        "slot": "51",
        "type": "t_struct(IRewardPool)8700_storage"
      },
      {
        "astId": 8714,
        "contract": "contracts/StablePro.sol:StablePro",
        "label": "_accounts",
        "offset": 0,
        "slot": "52",
        "type": "t_mapping(t_address,t_struct(IAccount)8695_storage)"
      },
      {
        "astId": 8720,
        "contract": "contracts/StablePro.sol:StablePro",
        "label": "_allowances",
        "offset": 0,
        "slot": "53",
        "type": "t_mapping(t_address,t_mapping(t_address,t_uint256))"
      },
      {
        "astId": 8722,
        "contract": "contracts/StablePro.sol:StablePro",
        "label": "_totalSupply",
        "offset": 0,
        "slot": "54",
        "type": "t_uint256"
      },
      {
        "astId": 8724,
        "contract": "contracts/StablePro.sol:StablePro",
        "label": "_name",
        "offset": 0,
        "slot": "55",
        "type": "t_string_storage"
      },
      {
        "astId": 8726,
        "contract": "contracts/StablePro.sol:StablePro",
        "label": "_symbol",
        "offset": 0,
        "slot": "56",
        "type": "t_string_storage"
      },
      {
        "astId": 8728,
        "contract": "contracts/StablePro.sol:StablePro",
        "label": "rewardPerBlock",
        "offset": 0,
        "slot": "57",
        "type": "t_uint256"
      },
      {
        "astId": 8730,
        "contract": "contracts/StablePro.sol:StablePro",
        "label": "rewardEndBlock",
        "offset": 0,
        "slot": "58",
        "type": "t_uint256"
      },
      {
        "astId": 9794,
        "contract": "contracts/StablePro.sol:StablePro",
        "label": "__gap",
        "offset": 0,
        "slot": "59",
        "type": "t_array(t_uint256)45_storage"
      },
      {
        "astId": 6897,
        "contract": "contracts/StablePro.sol:StablePro",
        "label": "ACCESS_CONTROL_SINGLETON",
        "offset": 0,
        "slot": "104",
        "type": "t_contract(ISuAccessControl)10043"
      }
    ],
    "types": {
      "t_address": {
        "encoding": "inplace",
        "label": "address",
        "numberOfBytes": "20"
      },
      "t_array(t_uint256)45_storage": {
        "base": "t_uint256",
        "encoding": "inplace",
        "label": "uint256[45]",
        "numberOfBytes": "1440"
      },
      "t_array(t_uint256)50_storage": {
        "base": "t_uint256",
        "encoding": "inplace",
        "label": "uint256[50]",
        "numberOfBytes": "1600"
      },
      "t_bool": {
        "encoding": "inplace",
        "label": "bool",
        "numberOfBytes": "1"
      },
      "t_contract(ISuAccessControl)10043": {
        "encoding": "inplace",
        "label": "contract ISuAccessControl",
        "numberOfBytes": "20"
      },
      "t_int256": {
        "encoding": "inplace",
        "label": "int256",
        "numberOfBytes": "32"
      },
      "t_mapping(t_address,t_mapping(t_address,t_uint256))": {
        "encoding": "mapping",
        "key": "t_address",
        "label": "mapping(address => mapping(address => uint256))",
        "numberOfBytes": "32",
        "value": "t_mapping(t_address,t_uint256)"
      },
      "t_mapping(t_address,t_struct(IAccount)8695_storage)": {
        "encoding": "mapping",
        "key": "t_address",
        "label": "mapping(address => struct GainableERC20v3Upgradeable.IAccount)",
        "numberOfBytes": "32",
        "value": "t_struct(IAccount)8695_storage"
      },
      "t_mapping(t_address,t_uint256)": {
        "encoding": "mapping",
        "key": "t_address",
        "label": "mapping(address => uint256)",
        "numberOfBytes": "32",
        "value": "t_uint256"
      },
      "t_string_storage": {
        "encoding": "bytes",
        "label": "string",
        "numberOfBytes": "32"
      },
      "t_struct(IAccount)8695_storage": {
        "encoding": "inplace",
        "label": "struct GainableERC20v3Upgradeable.IAccount",
        "members": [
          {
            "astId": 8690,
            "contract": "contracts/StablePro.sol:StablePro",
            "label": "balance",
            "offset": 0,
            "slot": "0",
            "type": "t_uint256"
          },
          {
            "astId": 8692,
            "contract": "contracts/StablePro.sol:StablePro",
            "label": "rewardDebt",
            "offset": 0,
            "slot": "1",
            "type": "t_int256"
          },
          {
            "astId": 8694,
            "contract": "contracts/StablePro.sol:StablePro",
            "label": "isGainDisabled",
            "offset": 0,
            "slot": "2",
            "type": "t_bool"
          }
        ],
        "numberOfBytes": "96"
      },
      "t_struct(IRewardPool)8700_storage": {
        "encoding": "inplace",
        "label": "struct GainableERC20v3Upgradeable.IRewardPool",
        "members": [
          {
            "astId": 8697,
            "contract": "contracts/StablePro.sol:StablePro",
            "label": "accRewardPerShare",
            "offset": 0,
            "slot": "0",
            "type": "t_uint128"
          },
          {
            "astId": 8699,
            "contract": "contracts/StablePro.sol:StablePro",
            "label": "lastRewardBlock",
            "offset": 16,
            "slot": "0",
            "type": "t_uint64"
          }
        ],
        "numberOfBytes": "32"
      },
      "t_uint128": {
        "encoding": "inplace",
        "label": "uint128",
        "numberOfBytes": "16"
      },
      "t_uint256": {
        "encoding": "inplace",
        "label": "uint256",
        "numberOfBytes": "32"
      },
      "t_uint64": {
        "encoding": "inplace",
        "label": "uint64",
        "numberOfBytes": "8"
      },
      "t_uint8": {
        "encoding": "inplace",
        "label": "uint8",
        "numberOfBytes": "1"
      }
    }
  }
}