{
  "address": "0x419D76E1C17233945D3E21e1311f330F7B4C8eBB",
  "abi": [
    {
      "anonymous": false,
      "inputs": [
        {
          "indexed": false,
          "internalType": "uint8",
          "name": "version",
          "type": "uint8"
        }
      ],
      "name": "Initialized",
      "type": "event"
    },
    {
      "anonymous": false,
      "inputs": [
        {
          "indexed": true,
          "internalType": "bytes32",
          "name": "role",
          "type": "bytes32"
        },
        {
          "indexed": true,
          "internalType": "bytes32",
          "name": "previousAdminRole",
          "type": "bytes32"
        },
        {
          "indexed": true,
          "internalType": "bytes32",
          "name": "newAdminRole",
          "type": "bytes32"
        }
      ],
      "name": "RoleAdminChanged",
      "type": "event"
    },
    {
      "anonymous": false,
      "inputs": [
        {
          "indexed": true,
          "internalType": "bytes32",
          "name": "role",
          "type": "bytes32"
        },
        {
          "indexed": true,
          "internalType": "address",
          "name": "account",
          "type": "address"
        },
        {
          "indexed": true,
          "internalType": "address",
          "name": "sender",
          "type": "address"
        }
      ],
      "name": "RoleGranted",
      "type": "event"
    },
    {
      "anonymous": false,
      "inputs": [
        {
          "indexed": true,
          "internalType": "bytes32",
          "name": "role",
          "type": "bytes32"
        },
        {
          "indexed": true,
          "internalType": "address",
          "name": "account",
          "type": "address"
        },
        {
          "indexed": true,
          "internalType": "address",
          "name": "sender",
          "type": "address"
        }
      ],
      "name": "RoleRevoked",
      "type": "event"
    },
    {
      "inputs": [],
      "name": "ACCESS_CONTROL_SINGLETON",
      "outputs": [
        {
          "internalType": "contract ISuAccessControl",
          "name": "",
          "type": "address"
        }
      ],
      "stateMutability": "view",
      "type": "function"
    },
    {
      "inputs": [],
      "name": "DEFAULT_ADMIN_ROLE",
      "outputs": [
        {
          "internalType": "bytes32",
          "name": "",
          "type": "bytes32"
        }
      ],
      "stateMutability": "view",
      "type": "function"
    },
    {
      "inputs": [],
      "name": "LIQUIDATION_ACCESS_ROLE",
      "outputs": [
        {
          "internalType": "bytes32",
          "name": "",
          "type": "bytes32"
        }
      ],
      "stateMutability": "view",
      "type": "function"
    },
    {
      "inputs": [],
      "name": "MINTER_ROLE",
      "outputs": [
        {
          "internalType": "bytes32",
          "name": "",
          "type": "bytes32"
        }
      ],
      "stateMutability": "view",
      "type": "function"
    },
    {
      "inputs": [],
      "name": "VAULT_ACCESS_ROLE",
      "outputs": [
        {
          "internalType": "bytes32",
          "name": "",
          "type": "bytes32"
        }
      ],
      "stateMutability": "view",
      "type": "function"
    },
    {
      "inputs": [
        {
          "internalType": "bytes32",
          "name": "role",
          "type": "bytes32"
        }
      ],
      "name": "getRoleAdmin",
      "outputs": [
        {
          "internalType": "bytes32",
          "name": "",
          "type": "bytes32"
        }
      ],
      "stateMutability": "view",
      "type": "function"
    },
    {
      "inputs": [
        {
          "internalType": "bytes32",
          "name": "role",
          "type": "bytes32"
        },
        {
          "internalType": "address",
          "name": "account",
          "type": "address"
        }
      ],
      "name": "grantRole",
      "outputs": [],
      "stateMutability": "nonpayable",
      "type": "function"
    },
    {
      "inputs": [
        {
          "internalType": "bytes32",
          "name": "role",
          "type": "bytes32"
        },
        {
          "internalType": "address",
          "name": "account",
          "type": "address"
        }
      ],
      "name": "hasRole",
      "outputs": [
        {
          "internalType": "bool",
          "name": "",
          "type": "bool"
        }
      ],
      "stateMutability": "view",
      "type": "function"
    },
    {
      "inputs": [],
      "name": "initialize",
      "outputs": [],
      "stateMutability": "nonpayable",
      "type": "function"
    },
    {
      "inputs": [
        {
          "internalType": "bytes32",
          "name": "role",
          "type": "bytes32"
        },
        {
          "internalType": "address",
          "name": "account",
          "type": "address"
        }
      ],
      "name": "renounceRole",
      "outputs": [],
      "stateMutability": "nonpayable",
      "type": "function"
    },
    {
      "inputs": [
        {
          "internalType": "bytes32",
          "name": "role",
          "type": "bytes32"
        },
        {
          "internalType": "address",
          "name": "account",
          "type": "address"
        }
      ],
      "name": "revokeRole",
      "outputs": [],
      "stateMutability": "nonpayable",
      "type": "function"
    },
    {
      "inputs": [
        {
          "internalType": "bytes4",
          "name": "interfaceId",
          "type": "bytes4"
        }
      ],
      "name": "supportsInterface",
      "outputs": [
        {
          "internalType": "bool",
          "name": "",
          "type": "bool"
        }
      ],
      "stateMutability": "view",
      "type": "function"
    },
    {
      "inputs": [
        {
          "internalType": "address",
          "name": "newOwner",
          "type": "address"
        }
      ],
      "name": "transferOwnership",
      "outputs": [],
      "stateMutability": "nonpayable",
      "type": "function"
    }
  ],
  "numDeployments": 6,
  "solcInputHash": "bee5958df9bd2aa66431a5d7e5e2d5ec",
  "bytecode": "0x608060405234801561001057600080fd5b50610be2806100206000396000f3fe608060405234801561001057600080fd5b50600436106100af5760003560e01c806301ffc9a7146100b457806303ee9f22146100dc57806314c376dc14610107578063248a9ca31461012a5780632f2ff15d1461013d57806336568abe146101525780638129fc1c1461016557806391d148541461016d578063a217fddf14610180578063d539139314610188578063d547741f1461019d578063dc97e84e146101b0578063f2fde38b146101d7575b600080fd5b6100c76100c2366004610932565b6101ea565b60405190151581526020015b60405180910390f35b6097546100ef906001600160a01b031681565b6040516001600160a01b0390911681526020016100d3565b61011c600080516020610b8d83398151915281565b6040519081526020016100d3565b61011c61013836600461095c565b610221565b61015061014b366004610991565b610236565b005b610150610160366004610991565b610257565b6101506102da565b6100c761017b366004610991565b6103ff565b61011c600081565b61011c600080516020610b6d83398151915281565b6101506101ab366004610991565b61042a565b61011c7f9a9aef7c1247d5fc769b0185c052913e39673da29a880317dfd20ebf86f26a4981565b6101506101e53660046109bd565b610446565b60006001600160e01b03198216637965db0b60e01b148061021b57506301ffc9a760e01b6001600160e01b03198316145b92915050565b60009081526065602052604090206001015490565b61023f82610221565b610248816105b2565b61025283836105bc565b505050565b6001600160a01b03811633146102cc5760405162461bcd60e51b815260206004820152602f60248201527f416363657373436f6e74726f6c3a2063616e206f6e6c792072656e6f756e636560448201526e103937b632b9903337b91039b2b63360891b60648201526084015b60405180910390fd5b6102d68282610642565b5050565b600054610100900460ff16158080156102fa5750600054600160ff909116105b806103145750303b158015610314575060005460ff166001145b6103775760405162461bcd60e51b815260206004820152602e60248201527f496e697469616c697a61626c653a20636f6e747261637420697320616c72656160448201526d191e481a5b9a5d1a585b1a5e995960921b60648201526084016102c3565b6000805460ff19166001179055801561039a576000805461ff0019166101001790555b6103a26106a9565b6103ab306106d2565b6103b660003361071b565b80156103fc576000805461ff0019169055604051600181527f7f26b83ff96e1f2b6a682f133852f6798a09c465da95921460cefb38474024989060200160405180910390a15b50565b60009182526065602090815260408084206001600160a01b0393909316845291905290205460ff1690565b61043382610221565b61043c816105b2565b6102528383610642565b6001600160a01b0381166104ab5760405162461bcd60e51b815260206004820152602660248201527f4f776e61626c653a206e6577206f776e657220697320746865207a65726f206160448201526564647265737360d01b60648201526084016102c3565b6104b66000336103ff565b6105025760405162461bcd60e51b815260206004820181905260248201527f4f776e61626c653a2063616c6c6572206973206e6f7420746865206f776e657260448201526064016102c3565b61051a600080516020610b6d833981519152336103ff565b1561054f57610537600080516020610b6d83398151915282610236565b61054f600080516020610b6d8339815191523361042a565b610567600080516020610b8d833981519152336103ff565b1561059c57610584600080516020610b8d83398151915282610236565b61059c600080516020610b8d8339815191523361042a565b6105a7600082610236565b6103fc60003361042a565b6103fc8133610725565b6105c682826103ff565b6102d65760008281526065602090815260408083206001600160a01b03851684529091529020805460ff191660011790556105fe3390565b6001600160a01b0316816001600160a01b0316837f2f8788117e7eff1d82e926ec794901d17c78024a50270940304540a733656f0d60405160405180910390a45050565b61064c82826103ff565b156102d65760008281526065602090815260408083206001600160a01b0385168085529252808320805460ff1916905551339285917ff6391f5c32d9c69d2a47ea670b442974b53935d1edc7fd64eb21e047a839171b9190a45050565b600054610100900460ff166106d05760405162461bcd60e51b81526004016102c3906109d8565b565b600054610100900460ff166106f95760405162461bcd60e51b81526004016102c3906109d8565b609780546001600160a01b0319166001600160a01b0392909216919091179055565b6102d682826105bc565b61072f82826103ff565b6102d65761073c8161077e565b610747836020610790565b604051602001610758929190610a47565b60408051601f198184030181529082905262461bcd60e51b82526102c391600401610ab6565b606061021b6001600160a01b03831660145b6060600061079f836002610aff565b6107aa906002610b16565b6001600160401b038111156107c1576107c1610b29565b6040519080825280601f01601f1916602001820160405280156107eb576020820181803683370190505b509050600360fc1b8160008151811061080657610806610b3f565b60200101906001600160f81b031916908160001a905350600f60fb1b8160018151811061083557610835610b3f565b60200101906001600160f81b031916908160001a9053506000610859846002610aff565b610864906001610b16565b90505b60018111156108dc576f181899199a1a9b1b9c1cb0b131b232b360811b85600f166010811061089857610898610b3f565b1a60f81b8282815181106108ae576108ae610b3f565b60200101906001600160f81b031916908160001a90535060049490941c936108d581610b55565b9050610867565b50831561092b5760405162461bcd60e51b815260206004820181905260248201527f537472696e67733a20686578206c656e67746820696e73756666696369656e7460448201526064016102c3565b9392505050565b60006020828403121561094457600080fd5b81356001600160e01b03198116811461092b57600080fd5b60006020828403121561096e57600080fd5b5035919050565b80356001600160a01b038116811461098c57600080fd5b919050565b600080604083850312156109a457600080fd5b823591506109b460208401610975565b90509250929050565b6000602082840312156109cf57600080fd5b61092b82610975565b6020808252602b908201527f496e697469616c697a61626c653a20636f6e7472616374206973206e6f74206960408201526a6e697469616c697a696e6760a81b606082015260800190565b60005b83811015610a3e578181015183820152602001610a26565b50506000910152565b76020b1b1b2b9b9a1b7b73a3937b61d1030b1b1b7bab73a1604d1b815260008351610a79816017850160208801610a23565b7001034b99036b4b9b9b4b733903937b6329607d1b6017918401918201528351610aaa816028840160208801610a23565b01602801949350505050565b6020815260008251806020840152610ad5816040850160208701610a23565b601f01601f19169190910160400192915050565b634e487b7160e01b600052601160045260246000fd5b808202811582820484141761021b5761021b610ae9565b8082018082111561021b5761021b610ae9565b634e487b7160e01b600052604160045260246000fd5b634e487b7160e01b600052603260045260246000fd5b600081610b6457610b64610ae9565b50600019019056fe9f2df0fed2c77648de5860a4cc508cd0818c85b8b8a1ab4ceeef8d981c8956a6e965846df3dd5b1dfa65f58e31477079e90140e0908b6dd31b5aead5a57cf365a2646970667358221220382fe413592dae27e588482ae913182a2e57fd1c5eaf06cce16e773cf81e172c64736f6c63430008110033",
  "devdoc": {
    "details": "Access control for contracts. SuVaultParameters can be inherited from it.",
    "kind": "dev",
    "methods": {
      "getRoleAdmin(bytes32)": {
        "details": "Returns the admin role that controls `role`. See {grantRole} and {revokeRole}. To change a role's admin, use {_setRoleAdmin}."
      },
      "grantRole(bytes32,address)": {
        "details": "Grants `role` to `account`. If `account` had not been already granted `role`, emits a {RoleGranted} event. Requirements: - the caller must have ``role``'s admin role. May emit a {RoleGranted} event."
      },
      "hasRole(bytes32,address)": {
        "details": "Returns `true` if `account` has been granted `role`."
      },
      "initialize()": {
        "details": "Initialize the contract with initial owner to be deployer"
      },
      "renounceRole(bytes32,address)": {
        "details": "Revokes `role` from the calling account. Roles are often managed via {grantRole} and {revokeRole}: this function's purpose is to provide a mechanism for accounts to lose their privileges if they are compromised (such as when a trusted device is misplaced). If the calling account had been revoked `role`, emits a {RoleRevoked} event. Requirements: - the caller must be `account`. May emit a {RoleRevoked} event."
      },
      "revokeRole(bytes32,address)": {
        "details": "Revokes `role` from `account`. If `account` had been granted `role`, emits a {RoleRevoked} event. Requirements: - the caller must have ``role``'s admin role. May emit a {RoleRevoked} event."
      },
      "supportsInterface(bytes4)": {
        "details": "See {IERC165-supportsInterface}."
      },
      "transferOwnership(address)": {
        "details": "Transfers all roles from caller to owner, and revoke all roles from the caller.*"
      }
    },
    "title": "SuAccessControl",
    "version": 1
  },
  "userdoc": {
    "kind": "user",
    "methods": {},
    "version": 1
  },
  "storageLayout": {
    "storage": [
      {
        "astId": 461,
        "contract": "contracts/access-control/SuAccessControlSingleton.sol:SuAccessControlSingleton",
        "label": "_initialized",
        "offset": 0,
        "slot": "0",
        "type": "t_uint8"
      },
      {
        "astId": 464,
        "contract": "contracts/access-control/SuAccessControlSingleton.sol:SuAccessControlSingleton",
        "label": "_initializing",
        "offset": 1,
        "slot": "0",
        "type": "t_bool"
      },
      {
        "astId": 1441,
        "contract": "contracts/access-control/SuAccessControlSingleton.sol:SuAccessControlSingleton",
        "label": "__gap",
        "offset": 0,
        "slot": "1",
        "type": "t_array(t_uint256)50_storage"
      },
      {
        "astId": 1660,
        "contract": "contracts/access-control/SuAccessControlSingleton.sol:SuAccessControlSingleton",
        "label": "__gap",
        "offset": 0,
        "slot": "51",
        "type": "t_array(t_uint256)50_storage"
      },
      {
        "astId": 85,
        "contract": "contracts/access-control/SuAccessControlSingleton.sol:SuAccessControlSingleton",
        "label": "_roles",
        "offset": 0,
        "slot": "101",
        "type": "t_mapping(t_bytes32,t_struct(RoleData)80_storage)"
      },
      {
        "astId": 380,
        "contract": "contracts/access-control/SuAccessControlSingleton.sol:SuAccessControlSingleton",
        "label": "__gap",
        "offset": 0,
        "slot": "102",
        "type": "t_array(t_uint256)49_storage"
      },
      {
        "astId": 6897,
        "contract": "contracts/access-control/SuAccessControlSingleton.sol:SuAccessControlSingleton",
        "label": "ACCESS_CONTROL_SINGLETON",
        "offset": 0,
        "slot": "151",
        "type": "t_contract(ISuAccessControl)10043"
      }
    ],
    "types": {
      "t_address": {
        "encoding": "inplace",
        "label": "address",
        "numberOfBytes": "20"
      },
      "t_array(t_uint256)49_storage": {
        "base": "t_uint256",
        "encoding": "inplace",
        "label": "uint256[49]",
        "numberOfBytes": "1568"
      },
      "t_array(t_uint256)50_storage": {
        "base": "t_uint256",
        "encoding": "inplace",
        "label": "uint256[50]",
        "numberOfBytes": "1600"
      },
      "t_bool": {
        "encoding": "inplace",
        "label": "bool",
        "numberOfBytes": "1"
      },
      "t_bytes32": {
        "encoding": "inplace",
        "label": "bytes32",
        "numberOfBytes": "32"
      },
      "t_contract(ISuAccessControl)10043": {
        "encoding": "inplace",
        "label": "contract ISuAccessControl",
        "numberOfBytes": "20"
      },
      "t_mapping(t_address,t_bool)": {
        "encoding": "mapping",
        "key": "t_address",
        "label": "mapping(address => bool)",
        "numberOfBytes": "32",
        "value": "t_bool"
      },
      "t_mapping(t_bytes32,t_struct(RoleData)80_storage)": {
        "encoding": "mapping",
        "key": "t_bytes32",
        "label": "mapping(bytes32 => struct AccessControlUpgradeable.RoleData)",
        "numberOfBytes": "32",
        "value": "t_struct(RoleData)80_storage"
      },
      "t_struct(RoleData)80_storage": {
        "encoding": "inplace",
        "label": "struct AccessControlUpgradeable.RoleData",
        "members": [
          {
            "astId": 77,
            "contract": "contracts/access-control/SuAccessControlSingleton.sol:SuAccessControlSingleton",
            "label": "members",
            "offset": 0,
            "slot": "0",
            "type": "t_mapping(t_address,t_bool)"
          },
          {
            "astId": 79,
            "contract": "contracts/access-control/SuAccessControlSingleton.sol:SuAccessControlSingleton",
            "label": "adminRole",
            "offset": 0,
            "slot": "1",
            "type": "t_bytes32"
          }
        ],
        "numberOfBytes": "64"
      },
      "t_uint256": {
        "encoding": "inplace",
        "label": "uint256",
        "numberOfBytes": "32"
      },
      "t_uint8": {
        "encoding": "inplace",
        "label": "uint8",
        "numberOfBytes": "1"
      }
    }
  }
}