{
  "address": "0x3831985788EB627A18fca686D3cAb581f811A8Ec",
  "abi": [
    {
      "anonymous": false,
      "inputs": [
        {
          "indexed": true,
          "internalType": "bytes32",
          "name": "role",
          "type": "bytes32"
        },
        {
          "indexed": true,
          "internalType": "bytes32",
          "name": "previousAdminRole",
          "type": "bytes32"
        },
        {
          "indexed": true,
          "internalType": "bytes32",
          "name": "newAdminRole",
          "type": "bytes32"
        }
      ],
      "name": "RoleAdminChanged",
      "type": "event"
    },
    {
      "anonymous": false,
      "inputs": [
        {
          "indexed": true,
          "internalType": "bytes32",
          "name": "role",
          "type": "bytes32"
        },
        {
          "indexed": true,
          "internalType": "address",
          "name": "account",
          "type": "address"
        },
        {
          "indexed": true,
          "internalType": "address",
          "name": "sender",
          "type": "address"
        }
      ],
      "name": "RoleGranted",
      "type": "event"
    },
    {
      "anonymous": false,
      "inputs": [
        {
          "indexed": true,
          "internalType": "bytes32",
          "name": "role",
          "type": "bytes32"
        },
        {
          "indexed": true,
          "internalType": "address",
          "name": "account",
          "type": "address"
        },
        {
          "indexed": true,
          "internalType": "address",
          "name": "sender",
          "type": "address"
        }
      ],
      "name": "RoleRevoked",
      "type": "event"
    },
    {
      "inputs": [],
      "name": "ACCESS_CONTROL_SINGLETON",
      "outputs": [
        {
          "internalType": "contract ISuAccessControl",
          "name": "",
          "type": "address"
        }
      ],
      "stateMutability": "view",
      "type": "function"
    },
    {
      "inputs": [],
      "name": "DEFAULT_ADMIN_ROLE",
      "outputs": [
        {
          "internalType": "bytes32",
          "name": "",
          "type": "bytes32"
        }
      ],
      "stateMutability": "view",
      "type": "function"
    },
    {
      "inputs": [],
      "name": "LIQUIDATION_ACCESS_ROLE",
      "outputs": [
        {
          "internalType": "bytes32",
          "name": "",
          "type": "bytes32"
        }
      ],
      "stateMutability": "view",
      "type": "function"
    },
    {
      "inputs": [],
      "name": "MINTER_ROLE",
      "outputs": [
        {
          "internalType": "bytes32",
          "name": "",
          "type": "bytes32"
        }
      ],
      "stateMutability": "view",
      "type": "function"
    },
    {
      "inputs": [],
      "name": "VAULT_ACCESS_ROLE",
      "outputs": [
        {
          "internalType": "bytes32",
          "name": "",
          "type": "bytes32"
        }
      ],
      "stateMutability": "view",
      "type": "function"
    },
    {
      "inputs": [
        {
          "internalType": "bytes32",
          "name": "role",
          "type": "bytes32"
        }
      ],
      "name": "getRoleAdmin",
      "outputs": [
        {
          "internalType": "bytes32",
          "name": "",
          "type": "bytes32"
        }
      ],
      "stateMutability": "view",
      "type": "function"
    },
    {
      "inputs": [
        {
          "internalType": "bytes32",
          "name": "role",
          "type": "bytes32"
        },
        {
          "internalType": "address",
          "name": "account",
          "type": "address"
        }
      ],
      "name": "grantRole",
      "outputs": [],
      "stateMutability": "nonpayable",
      "type": "function"
    },
    {
      "inputs": [
        {
          "internalType": "bytes32",
          "name": "role",
          "type": "bytes32"
        },
        {
          "internalType": "address",
          "name": "account",
          "type": "address"
        }
      ],
      "name": "hasRole",
      "outputs": [
        {
          "internalType": "bool",
          "name": "",
          "type": "bool"
        }
      ],
      "stateMutability": "view",
      "type": "function"
    },
    {
      "inputs": [],
      "name": "initialize",
      "outputs": [],
      "stateMutability": "nonpayable",
      "type": "function"
    },
    {
      "inputs": [
        {
          "internalType": "bytes32",
          "name": "role",
          "type": "bytes32"
        },
        {
          "internalType": "address",
          "name": "account",
          "type": "address"
        }
      ],
      "name": "renounceRole",
      "outputs": [],
      "stateMutability": "nonpayable",
      "type": "function"
    },
    {
      "inputs": [
        {
          "internalType": "bytes32",
          "name": "role",
          "type": "bytes32"
        },
        {
          "internalType": "address",
          "name": "account",
          "type": "address"
        }
      ],
      "name": "revokeRole",
      "outputs": [],
      "stateMutability": "nonpayable",
      "type": "function"
    },
    {
      "inputs": [
        {
          "internalType": "bytes4",
          "name": "interfaceId",
          "type": "bytes4"
        }
      ],
      "name": "supportsInterface",
      "outputs": [
        {
          "internalType": "bool",
          "name": "",
          "type": "bool"
        }
      ],
      "stateMutability": "view",
      "type": "function"
    },
    {
      "inputs": [
        {
          "internalType": "address",
          "name": "newOwner",
          "type": "address"
        }
      ],
      "name": "transferOwnership",
      "outputs": [],
      "stateMutability": "nonpayable",
      "type": "function"
    }
  ],
  "numDeployments": 1,
  "solcInputHash": "1ee30c392eeeb5c03c3751ea96247c34",
  "bytecode": "0x608060405234801561001057600080fd5b50610e1f806100206000396000f3fe608060405234801561001057600080fd5b50600436106100df5760003560e01c80638129fc1c1161008c578063d539139311610066578063d539139314610200578063d547741f14610227578063dc97e84e1461023a578063f2fde38b1461026157600080fd5b80638129fc1c146101b757806391d14854146101bf578063a217fddf146101f857600080fd5b8063248a9ca3116100bd578063248a9ca31461016c5780632f2ff15d1461018f57806336568abe146101a457600080fd5b806301ffc9a7146100e457806303ee9f221461010c57806314c376dc14610137575b600080fd5b6100f76100f2366004610c61565b610274565b60405190151581526020015b60405180910390f35b60975461011f906001600160a01b031681565b6040516001600160a01b039091168152602001610103565b61015e7fe965846df3dd5b1dfa65f58e31477079e90140e0908b6dd31b5aead5a57cf36581565b604051908152602001610103565b61015e61017a366004610c1e565b60009081526065602052604090206001015490565b6101a261019d366004610c36565b61030d565b005b6101a26101b2366004610c36565b610338565b6101a26103c9565b6100f76101cd366004610c36565b60009182526065602090815260408084206001600160a01b0393909316845291905290205460ff1690565b61015e600081565b61015e7f9f2df0fed2c77648de5860a4cc508cd0818c85b8b8a1ab4ceeef8d981c8956a681565b6101a2610235366004610c36565b6104ad565b61015e7f9a9aef7c1247d5fc769b0185c052913e39673da29a880317dfd20ebf86f26a4981565b6101a261026f366004610c04565b6104d3565b60007fffffffff0000000000000000000000000000000000000000000000000000000082167f7965db0b00000000000000000000000000000000000000000000000000000000148061030757507f01ffc9a7000000000000000000000000000000000000000000000000000000007fffffffff000000000000000000000000000000000000000000000000000000008316145b92915050565b60008281526065602052604090206001015461032981336106f9565b6103338383610779565b505050565b6001600160a01b03811633146103bb5760405162461bcd60e51b815260206004820152602f60248201527f416363657373436f6e74726f6c3a2063616e206f6e6c792072656e6f756e636560448201527f20726f6c657320666f722073656c66000000000000000000000000000000000060648201526084015b60405180910390fd5b6103c5828261081b565b5050565b600054610100900460ff166103e45760005460ff16156103e8565b303b155b61045a5760405162461bcd60e51b815260206004820152602e60248201527f496e697469616c697a61626c653a20636f6e747261637420697320616c72656160448201527f647920696e697469616c697a656400000000000000000000000000000000000060648201526084016103b2565b600054610100900460ff1615801561047c576000805461ffff19166101011790555b61048461089e565b61048d3061090b565b6104986000336109b0565b80156104aa576000805461ff00191690555b50565b6000828152606560205260409020600101546104c981336106f9565b610333838361081b565b6001600160a01b03811661054f5760405162461bcd60e51b815260206004820152602660248201527f4f776e61626c653a206e6577206f776e657220697320746865207a65726f206160448201527f646472657373000000000000000000000000000000000000000000000000000060648201526084016103b2565b3360009081527fffdfc1249c027f9191656349feb0761381bb32c9f557e01f419fd08754bf5a1b602052604090205460ff166105cd5760405162461bcd60e51b815260206004820181905260248201527f4f776e61626c653a2063616c6c6572206973206e6f7420746865206f776e657260448201526064016103b2565b3360009081527fa0f6cebec7fb889cc5ac88647269c4c0108fb926abd2111b551f234b348876df602052604090205460ff16156106585761062e7f9f2df0fed2c77648de5860a4cc508cd0818c85b8b8a1ab4ceeef8d981c8956a68261030d565b6106587f9f2df0fed2c77648de5860a4cc508cd0818c85b8b8a1ab4ceeef8d981c8956a6336104ad565b3360009081527fe51414964e65fb743fddd7a5723c581da32f090088fd6fcc520e377613f33b37602052604090205460ff16156106e3576106b97fe965846df3dd5b1dfa65f58e31477079e90140e0908b6dd31b5aead5a57cf3658261030d565b6106e37fe965846df3dd5b1dfa65f58e31477079e90140e0908b6dd31b5aead5a57cf365336104ad565b6106ee60008261030d565b6104aa6000336104ad565b60008281526065602090815260408083206001600160a01b038516845290915290205460ff166103c557610737816001600160a01b031660146109ba565b6107428360206109ba565b604051602001610753929190610ca1565b60408051601f198184030181529082905262461bcd60e51b82526103b291600401610d22565b60008281526065602090815260408083206001600160a01b038516845290915290205460ff166103c55760008281526065602090815260408083206001600160a01b03851684529091529020805460ff191660011790556107d73390565b6001600160a01b0316816001600160a01b0316837f2f8788117e7eff1d82e926ec794901d17c78024a50270940304540a733656f0d60405160405180910390a45050565b60008281526065602090815260408083206001600160a01b038516845290915290205460ff16156103c55760008281526065602090815260408083206001600160a01b0385168085529252808320805460ff1916905551339285917ff6391f5c32d9c69d2a47ea670b442974b53935d1edc7fd64eb21e047a839171b9190a45050565b600054610100900460ff166109095760405162461bcd60e51b815260206004820152602b60248201527f496e697469616c697a61626c653a20636f6e7472616374206973206e6f74206960448201526a6e697469616c697a696e6760a81b60648201526084016103b2565b565b600054610100900460ff166109765760405162461bcd60e51b815260206004820152602b60248201527f496e697469616c697a61626c653a20636f6e7472616374206973206e6f74206960448201526a6e697469616c697a696e6760a81b60648201526084016103b2565b609780547fffffffffffffffffffffffff0000000000000000000000000000000000000000166001600160a01b0392909216919091179055565b6103c58282610779565b606060006109c9836002610d6d565b6109d4906002610d55565b67ffffffffffffffff8111156109fa57634e487b7160e01b600052604160045260246000fd5b6040519080825280601f01601f191660200182016040528015610a24576020820181803683370190505b5090507f300000000000000000000000000000000000000000000000000000000000000081600081518110610a6957634e487b7160e01b600052603260045260246000fd5b60200101906001600160f81b031916908160001a9053507f780000000000000000000000000000000000000000000000000000000000000081600181518110610ac257634e487b7160e01b600052603260045260246000fd5b60200101906001600160f81b031916908160001a9053506000610ae6846002610d6d565b610af1906001610d55565b90505b6001811115610b92577f303132333435363738396162636465660000000000000000000000000000000085600f1660108110610b4057634e487b7160e01b600052603260045260246000fd5b1a60f81b828281518110610b6457634e487b7160e01b600052603260045260246000fd5b60200101906001600160f81b031916908160001a90535060049490941c93610b8b81610dbc565b9050610af4565b508315610be15760405162461bcd60e51b815260206004820181905260248201527f537472696e67733a20686578206c656e67746820696e73756666696369656e7460448201526064016103b2565b9392505050565b80356001600160a01b0381168114610bff57600080fd5b919050565b600060208284031215610c15578081fd5b610be182610be8565b600060208284031215610c2f578081fd5b5035919050565b60008060408385031215610c48578081fd5b82359150610c5860208401610be8565b90509250929050565b600060208284031215610c72578081fd5b81357fffffffff0000000000000000000000000000000000000000000000000000000081168114610be1578182fd5b7f416363657373436f6e74726f6c3a206163636f756e7420000000000000000000815260008351610cd9816017850160208801610d8c565b7f206973206d697373696e6720726f6c65200000000000000000000000000000006017918401918201528351610d16816028840160208801610d8c565b01602801949350505050565b6020815260008251806020840152610d41816040850160208701610d8c565b601f01601f19169190910160400192915050565b60008219821115610d6857610d68610dd3565b500190565b6000816000190483118215151615610d8757610d87610dd3565b500290565b60005b83811015610da7578181015183820152602001610d8f565b83811115610db6576000848401525b50505050565b600081610dcb57610dcb610dd3565b506000190190565b634e487b7160e01b600052601160045260246000fdfea264697066735822122033add4465a9478feaf9d6866a6204701753176dcf5efa53c94d2f6bea9a090b564736f6c63430008040033",
  "devdoc": {
    "details": "Access control for contracts. SuVaultParameters can be inherited from it.",
    "kind": "dev",
    "methods": {
      "getRoleAdmin(bytes32)": {
        "details": "Returns the admin role that controls `role`. See {grantRole} and {revokeRole}. To change a role's admin, use {_setRoleAdmin}."
      },
      "grantRole(bytes32,address)": {
        "details": "Grants `role` to `account`. If `account` had not been already granted `role`, emits a {RoleGranted} event. Requirements: - the caller must have ``role``'s admin role."
      },
      "hasRole(bytes32,address)": {
        "details": "Returns `true` if `account` has been granted `role`."
      },
      "initialize()": {
        "details": "Initialize the contract with initial owner to be deployer"
      },
      "renounceRole(bytes32,address)": {
        "details": "Revokes `role` from the calling account. Roles are often managed via {grantRole} and {revokeRole}: this function's purpose is to provide a mechanism for accounts to lose their privileges if they are compromised (such as when a trusted device is misplaced). If the calling account had been revoked `role`, emits a {RoleRevoked} event. Requirements: - the caller must be `account`."
      },
      "revokeRole(bytes32,address)": {
        "details": "Revokes `role` from `account`. If `account` had been granted `role`, emits a {RoleRevoked} event. Requirements: - the caller must have ``role``'s admin role."
      },
      "supportsInterface(bytes4)": {
        "details": "See {IERC165-supportsInterface}."
      },
      "transferOwnership(address)": {
        "details": "Transfers ownership of the contract to a new account (`newOwner`). Can only be called by the current owner."
      }
    },
    "title": "SuAccessControl",
    "version": 1
  },
  "userdoc": {
    "kind": "user",
    "methods": {},
    "version": 1
  },
  "storageLayout": {
    "storage": [
      {
        "astId": 454,
        "contract": "contracts/access-control/SuAccessControlSingleton.sol:SuAccessControlSingleton",
        "label": "_initialized",
        "offset": 0,
        "slot": "0",
        "type": "t_bool"
      },
      {
        "astId": 457,
        "contract": "contracts/access-control/SuAccessControlSingleton.sol:SuAccessControlSingleton",
        "label": "_initializing",
        "offset": 1,
        "slot": "0",
        "type": "t_bool"
      },
      {
        "astId": 1191,
        "contract": "contracts/access-control/SuAccessControlSingleton.sol:SuAccessControlSingleton",
        "label": "__gap",
        "offset": 0,
        "slot": "1",
        "type": "t_array(t_uint256)50_storage"
      },
      {
        "astId": 1438,
        "contract": "contracts/access-control/SuAccessControlSingleton.sol:SuAccessControlSingleton",
        "label": "__gap",
        "offset": 0,
        "slot": "51",
        "type": "t_array(t_uint256)50_storage"
      },
      {
        "astId": 85,
        "contract": "contracts/access-control/SuAccessControlSingleton.sol:SuAccessControlSingleton",
        "label": "_roles",
        "offset": 0,
        "slot": "101",
        "type": "t_mapping(t_bytes32,t_struct(RoleData)80_storage)"
      },
      {
        "astId": 373,
        "contract": "contracts/access-control/SuAccessControlSingleton.sol:SuAccessControlSingleton",
        "label": "__gap",
        "offset": 0,
        "slot": "102",
        "type": "t_array(t_uint256)49_storage"
      },
      {
        "astId": 4355,
        "contract": "contracts/access-control/SuAccessControlSingleton.sol:SuAccessControlSingleton",
        "label": "ACCESS_CONTROL_SINGLETON",
        "offset": 0,
        "slot": "151",
        "type": "t_contract(ISuAccessControl)7493"
      }
    ],
    "types": {
      "t_address": {
        "encoding": "inplace",
        "label": "address",
        "numberOfBytes": "20"
      },
      "t_array(t_uint256)49_storage": {
        "base": "t_uint256",
        "encoding": "inplace",
        "label": "uint256[49]",
        "numberOfBytes": "1568"
      },
      "t_array(t_uint256)50_storage": {
        "base": "t_uint256",
        "encoding": "inplace",
        "label": "uint256[50]",
        "numberOfBytes": "1600"
      },
      "t_bool": {
        "encoding": "inplace",
        "label": "bool",
        "numberOfBytes": "1"
      },
      "t_bytes32": {
        "encoding": "inplace",
        "label": "bytes32",
        "numberOfBytes": "32"
      },
      "t_contract(ISuAccessControl)7493": {
        "encoding": "inplace",
        "label": "contract ISuAccessControl",
        "numberOfBytes": "20"
      },
      "t_mapping(t_address,t_bool)": {
        "encoding": "mapping",
        "key": "t_address",
        "label": "mapping(address => bool)",
        "numberOfBytes": "32",
        "value": "t_bool"
      },
      "t_mapping(t_bytes32,t_struct(RoleData)80_storage)": {
        "encoding": "mapping",
        "key": "t_bytes32",
        "label": "mapping(bytes32 => struct AccessControlUpgradeable.RoleData)",
        "numberOfBytes": "32",
        "value": "t_struct(RoleData)80_storage"
      },
      "t_struct(RoleData)80_storage": {
        "encoding": "inplace",
        "label": "struct AccessControlUpgradeable.RoleData",
        "members": [
          {
            "astId": 77,
            "contract": "contracts/access-control/SuAccessControlSingleton.sol:SuAccessControlSingleton",
            "label": "members",
            "offset": 0,
            "slot": "0",
            "type": "t_mapping(t_address,t_bool)"
          },
          {
            "astId": 79,
            "contract": "contracts/access-control/SuAccessControlSingleton.sol:SuAccessControlSingleton",
            "label": "adminRole",
            "offset": 0,
            "slot": "1",
            "type": "t_bytes32"
          }
        ],
        "numberOfBytes": "64"
      },
      "t_uint256": {
        "encoding": "inplace",
        "label": "uint256",
        "numberOfBytes": "32"
      }
    }
  }
}