{
  "address": "0x44d9a3e4c71b61F3881b30332E91b346ce3f7E50",
  "abi": [
    {
      "anonymous": false,
      "inputs": [
        {
          "indexed": true,
          "internalType": "address",
          "name": "asset",
          "type": "address"
        },
        {
          "indexed": true,
          "internalType": "address",
          "name": "owner",
          "type": "address"
        }
      ],
      "name": "Added",
      "type": "event"
    },
    {
      "anonymous": false,
      "inputs": [
        {
          "indexed": true,
          "internalType": "address",
          "name": "asset",
          "type": "address"
        },
        {
          "indexed": true,
          "internalType": "address",
          "name": "owner",
          "type": "address"
        }
      ],
      "name": "Removed",
      "type": "event"
    },
    {
      "inputs": [
        {
          "internalType": "address[]",
          "name": "assets",
          "type": "address[]"
        },
        {
          "internalType": "address[]",
          "name": "owners",
          "type": "address[]"
        }
      ],
      "name": "batchCheckpoint",
      "outputs": [],
      "stateMutability": "nonpayable",
      "type": "function"
    },
    {
      "inputs": [
        {
          "internalType": "address",
          "name": "asset",
          "type": "address"
        },
        {
          "internalType": "address[]",
          "name": "owners",
          "type": "address[]"
        }
      ],
      "name": "batchCheckpointForAsset",
      "outputs": [],
      "stateMutability": "nonpayable",
      "type": "function"
    },
    {
      "inputs": [
        {
          "internalType": "address",
          "name": "asset",
          "type": "address"
        },
        {
          "internalType": "address",
          "name": "owner",
          "type": "address"
        }
      ],
      "name": "checkpoint",
      "outputs": [],
      "stateMutability": "nonpayable",
      "type": "function"
    },
    {
      "inputs": [],
      "name": "cr",
      "outputs": [
        {
          "internalType": "contract ISuCollateralRegistry",
          "name": "",
          "type": "address"
        }
      ],
      "stateMutability": "view",
      "type": "function"
    },
    {
      "inputs": [],
      "name": "getAllCdps",
      "outputs": [
        {
          "components": [
            {
              "internalType": "address",
              "name": "asset",
              "type": "address"
            },
            {
              "internalType": "address",
              "name": "owner",
              "type": "address"
            }
          ],
          "internalType": "struct SuCdpRegistry.CDP[]",
          "name": "r",
          "type": "tuple[]"
        }
      ],
      "stateMutability": "view",
      "type": "function"
    },
    {
      "inputs": [
        {
          "internalType": "address",
          "name": "asset",
          "type": "address"
        }
      ],
      "name": "getCdpsByCollateral",
      "outputs": [
        {
          "components": [
            {
              "internalType": "address",
              "name": "asset",
              "type": "address"
            },
            {
              "internalType": "address",
              "name": "owner",
              "type": "address"
            }
          ],
          "internalType": "struct SuCdpRegistry.CDP[]",
          "name": "cdps",
          "type": "tuple[]"
        }
      ],
      "stateMutability": "view",
      "type": "function"
    },
    {
      "inputs": [
        {
          "internalType": "address",
          "name": "owner",
          "type": "address"
        }
      ],
      "name": "getCdpsByOwner",
      "outputs": [
        {
          "components": [
            {
              "internalType": "address",
              "name": "asset",
              "type": "address"
            },
            {
              "internalType": "address",
              "name": "owner",
              "type": "address"
            }
          ],
          "internalType": "struct SuCdpRegistry.CDP[]",
          "name": "r",
          "type": "tuple[]"
        }
      ],
      "stateMutability": "view",
      "type": "function"
    },
    {
      "inputs": [],
      "name": "getCdpsCount",
      "outputs": [
        {
          "internalType": "uint256",
          "name": "totalCdpCount",
          "type": "uint256"
        }
      ],
      "stateMutability": "view",
      "type": "function"
    },
    {
      "inputs": [
        {
          "internalType": "address",
          "name": "asset",
          "type": "address"
        }
      ],
      "name": "getCdpsCountForCollateral",
      "outputs": [
        {
          "internalType": "uint256",
          "name": "",
          "type": "uint256"
        }
      ],
      "stateMutability": "view",
      "type": "function"
    },
    {
      "inputs": [
        {
          "internalType": "address",
          "name": "_vault",
          "type": "address"
        },
        {
          "internalType": "address",
          "name": "_collateralRegistry",
          "type": "address"
        }
      ],
      "name": "initialize",
      "outputs": [],
      "stateMutability": "nonpayable",
      "type": "function"
    },
    {
      "inputs": [
        {
          "internalType": "address",
          "name": "asset",
          "type": "address"
        },
        {
          "internalType": "address",
          "name": "owner",
          "type": "address"
        }
      ],
      "name": "isAlive",
      "outputs": [
        {
          "internalType": "bool",
          "name": "",
          "type": "bool"
        }
      ],
      "stateMutability": "view",
      "type": "function"
    },
    {
      "inputs": [
        {
          "internalType": "address",
          "name": "asset",
          "type": "address"
        },
        {
          "internalType": "address",
          "name": "owner",
          "type": "address"
        }
      ],
      "name": "isListed",
      "outputs": [
        {
          "internalType": "bool",
          "name": "",
          "type": "bool"
        }
      ],
      "stateMutability": "view",
      "type": "function"
    },
    {
      "inputs": [],
      "name": "vault",
      "outputs": [
        {
          "internalType": "contract ISuVault",
          "name": "",
          "type": "address"
        }
      ],
      "stateMutability": "view",
      "type": "function"
    }
  ],
  "numDeployments": 1,
  "solcInputHash": "1ee30c392eeeb5c03c3751ea96247c34",
  "bytecode": "0x608060405234801561001057600080fd5b506114b0806100206000396000f3fe608060405234801561001057600080fd5b50600436106100df5760003560e01c8063b0113e6b1161008c578063e5011ac611610066578063e5011ac6146101cd578063f45a4320146101e0578063f8aa43f714610203578063fbfa77cf1461021657600080fd5b8063b0113e6b1461017b578063bb55b7fc146101b2578063bce092c4146101c557600080fd5b80635a5fdfe5116100bd5780635a5fdfe51461013557806362eb33e31461013d578063a04a7c691461016857600080fd5b80633e18638f146100e4578063485cc9551461010d57806348e3da3c14610122575b600080fd5b6100f76100f236600461119a565b610229565b6040516101049190611390565b60405180910390f35b61012061011b3660046111bd565b6103a8565b005b610120610130366004611248565b610520565b6100f7610626565b600454610150906001600160a01b031681565b6040516001600160a01b039091168152602001610104565b6101206101763660046111f5565b6108cf565b6101a461018936600461119a565b6001600160a01b031660009081526001602052604090205490565b604051908152602001610104565b6101206101c03660046111bd565b610916565b6101a46109d7565b6100f76101db36600461119a565b610ad8565b6101f36101ee3660046111bd565b610d91565b6040519015158152602001610104565b6101f36102113660046111bd565b610e40565b600354610150906001600160a01b031681565b6001600160a01b038116600090815260016020908152604080832080548251818502810185019093528083526060949383018282801561029257602002820191906000526020600020905b81546001600160a01b03168152600190910190602001808311610274575b50505050509050805167ffffffffffffffff8111156102c157634e487b7160e01b600052604160045260246000fd5b60405190808252806020026020018201604052801561030657816020015b60408051808201909152600080825260208201528152602001906001900390816102df5790505b50915060005b81518110156103a1576040518060400160405280856001600160a01b0316815260200183838151811061034f57634e487b7160e01b600052603260045260246000fd5b60200260200101516001600160a01b031681525083828151811061038357634e487b7160e01b600052603260045260246000fd5b602002602001018190525080806103999061141b565b91505061030c565b5050919050565b600054610100900460ff166103c35760005460ff16156103c7565b303b155b61043e5760405162461bcd60e51b815260206004820152602e60248201527f496e697469616c697a61626c653a20636f6e747261637420697320616c72656160448201527f647920696e697469616c697a656400000000000000000000000000000000000060648201526084015b60405180910390fd5b600054610100900460ff16158015610460576000805461ffff19166101011790555b6001600160a01b0383161580159061048057506001600160a01b03821615155b6104cc5760405162461bcd60e51b815260206004820152601960248201527f53552050726f746f636f6c3a205a45524f5f41444452455353000000000000006044820152606401610435565b600380546001600160a01b0380861673ffffffffffffffffffffffffffffffffffffffff19928316179092556004805492851692909116919091179055801561051b576000805461ff00191690555b505050565b8281146105955760405162461bcd60e51b815260206004820152602660248201527f53552050726f746f636f6c3a20415247554d454e54535f4c454e4754485f4d4960448201527f534d4154434800000000000000000000000000000000000000000000000000006064820152608401610435565b60005b8181101561061f5761060d8585838181106105c357634e487b7160e01b600052603260045260246000fd5b90506020020160208101906105d8919061119a565b8484848181106105f857634e487b7160e01b600052603260045260246000fd5b90506020020160208101906101c0919061119a565b806106178161141b565b915050610598565b5050505050565b606060006106326109d7565b905060008167ffffffffffffffff81111561065d57634e487b7160e01b600052604160045260246000fd5b6040519080825280602002602001820160405280156106a257816020015b604080518082019091526000808252602082015281526020019060019003908161067b5790505b5092506000600460009054906101000a90046001600160a01b03166001600160a01b0316634113e5ca6040518163ffffffff1660e01b815260040160006040518083038186803b1580156106f557600080fd5b505afa158015610709573d6000803e3d6000fd5b505050506040513d6000823e601f3d908101601f1916820160405261073191908101906112b1565b905060005b81518110156108c85760006001600084848151811061076557634e487b7160e01b600052603260045260246000fd5b60200260200101516001600160a01b03166001600160a01b031681526020019081526020016000208054806020026020016040519081016040528092919081815260200182805480156107e157602002820191906000526020600020905b81546001600160a01b031681526001909101906020018083116107c3575b5050505050905060005b81518110156108b357604051806040016040528085858151811061081f57634e487b7160e01b600052603260045260246000fd5b60200260200101516001600160a01b0316815260200183838151811061085557634e487b7160e01b600052603260045260246000fd5b60200260200101516001600160a01b03168152508786806108759061141b565b97508151811061089557634e487b7160e01b600052603260045260246000fd5b602002602001018190525080806108ab9061141b565b9150506107eb565b505080806108c09061141b565b915050610736565b5050505090565b60005b81811015610910576108fe848484848181106105f857634e487b7160e01b600052603260045260246000fd5b806109088161141b565b9150506108d2565b50505050565b6001600160a01b0382161580159061093657506001600160a01b03811615155b6109825760405162461bcd60e51b815260206004820152601960248201527f53552050726f746f636f6c3a205a45524f5f41444452455353000000000000006044820152606401610435565b600061098e8383610d91565b9050600061099c8484610e40565b90508080156109a9575081155b156109bd576109b88484610ee8565b610910565b8180156109c8575080155b15610910576109108484610f72565b6004805460408051632089f2e560e11b8152905160009384936001600160a01b031692634113e5ca92818301928692829003018186803b158015610a1a57600080fd5b505afa158015610a2e573d6000803e3d6000fd5b505050506040513d6000823e601f3d908101601f19168201604052610a5691908101906112b1565b905060005b8151811015610ad35760016000838381518110610a8857634e487b7160e01b600052603260045260246000fd5b60200260200101516001600160a01b03166001600160a01b031681526020019081526020016000208054905083610abf91906113ec565b925080610acb8161141b565b915050610a5b565b505090565b6004805460408051632089f2e560e11b815290516060936000936001600160a01b031692634113e5ca92818301928692829003018186803b158015610b1c57600080fd5b505afa158015610b30573d6000803e3d6000fd5b505050506040513d6000823e601f3d908101601f19168201604052610b5891908101906112b1565b90506000815167ffffffffffffffff811115610b8457634e487b7160e01b600052604160045260246000fd5b604051908082528060200260200182016040528015610bc957816020015b6040805180820190915260008082526020820152815260200190600190039081610ba25790505b5090506000805b8351811015610ca757610c0a848281518110610bfc57634e487b7160e01b600052603260045260246000fd5b602002602001015187610d91565b15610c95576040518060400160405280858381518110610c3a57634e487b7160e01b600052603260045260246000fd5b60200260200101516001600160a01b03168152602001876001600160a01b0316815250838380610c699061141b565b945081518110610c8957634e487b7160e01b600052603260045260246000fd5b60200260200101819052505b80610c9f8161141b565b915050610bd0565b508067ffffffffffffffff811115610ccf57634e487b7160e01b600052604160045260246000fd5b604051908082528060200260200182016040528015610d1457816020015b6040805180820190915260008082526020820152815260200190600190039081610ced5790505b50935060005b81811015610d8857828181518110610d4257634e487b7160e01b600052603260045260246000fd5b6020026020010151858281518110610d6a57634e487b7160e01b600052603260045260246000fd5b60200260200101819052508080610d809061141b565b915050610d1a565b50505050919050565b6001600160a01b038216600090815260016020526040812054610db657506000610e3a565b6001600160a01b03808416600090815260026020908152604080832093861683529290522054151580610e3757506001600160a01b038381166000908152600160205260408120805492851692909190610e2057634e487b7160e01b600052603260045260246000fd5b6000918252602090912001546001600160a01b0316145b90505b92915050565b6003546040517fd5dc24ba0000000000000000000000000000000000000000000000000000000081526001600160a01b0384811660048301528381166024830152600092169063d5dc24ba9060440160206040518083038186803b158015610ea757600080fd5b505afa158015610ebb573d6000803e3d6000fd5b505050506040513d601f19601f82011682018060405250810190610edf9190611378565b15159392505050565b6001600160a01b03808316600081815260016020818152604080842080546002845282862097891680875297845282862081905584845293840181558452908320909101805473ffffffffffffffffffffffffffffffffffffffff191685179055517f938c63ac3d228b23f6bee7618fefc6790522e338ac202c958a2ea9eb9706c5d19190a35050565b6001600160a01b03808316600081815260026020908152604080832094861683529381528382208054908390559282526001908190529281205491929091610fba9190611404565b905080821461109c576001600160a01b0384166000908152600160205260408120805483908110610ffb57634e487b7160e01b600052603260045260246000fd5b60009182526020808320909101546001600160a01b0388811684526001909252604090922080549190921692508291908590811061104957634e487b7160e01b600052603260045260246000fd5b6000918252602080832091909101805473ffffffffffffffffffffffffffffffffffffffff19166001600160a01b0394851617905587831682526002815260408083209490931682529290925290208290555b6001600160a01b03841660009081526001602052604090208054806110d157634e487b7160e01b600052603160045260246000fd5b6000828152602081208201600019908101805473ffffffffffffffffffffffffffffffffffffffff191690559091019091556040516001600160a01b0385811692908716917f40e634d0e26d9ec2e860e4dd9b7b2cfbb569b6058362a1a54d3a94718bc495879190a350505050565b805161114b81611462565b919050565b60008083601f840112611161578081fd5b50813567ffffffffffffffff811115611178578182fd5b6020830191508360208260051b850101111561119357600080fd5b9250929050565b6000602082840312156111ab578081fd5b81356111b681611462565b9392505050565b600080604083850312156111cf578081fd5b82356111da81611462565b915060208301356111ea81611462565b809150509250929050565b600080600060408486031215611209578081fd5b833561121481611462565b9250602084013567ffffffffffffffff81111561122f578182fd5b61123b86828701611150565b9497909650939450505050565b6000806000806040858703121561125d578081fd5b843567ffffffffffffffff80821115611274578283fd5b61128088838901611150565b90965094506020870135915080821115611298578283fd5b506112a587828801611150565b95989497509550505050565b600060208083850312156112c3578182fd5b825167ffffffffffffffff808211156112da578384fd5b818501915085601f8301126112ed578384fd5b8151818111156112ff576112ff61144c565b8060051b604051601f19603f830116810181811085821117156113245761132461144c565b604052828152858101935084860182860187018a1015611342578788fd5b8795505b8386101561136b5761135781611140565b855260019590950194938601938601611346565b5098975050505050505050565b600060208284031215611389578081fd5b5051919050565b602080825282518282018190526000919060409081850190868401855b828110156113df57815180516001600160a01b03908116865290870151168685015292840192908501906001016113ad565b5091979650505050505050565b600082198211156113ff576113ff611436565b500190565b60008282101561141657611416611436565b500390565b600060001982141561142f5761142f611436565b5060010190565b634e487b7160e01b600052601160045260246000fd5b634e487b7160e01b600052604160045260246000fd5b6001600160a01b038116811461147757600080fd5b5056fea26469706673582212207f80f36dd18718db25f5af137c93c8debf431d9736c0e01c3ddf9a92ed2d92a764736f6c63430008040033",
  "devdoc": {
    "kind": "dev",
    "methods": {},
    "version": 1
  },
  "userdoc": {
    "kind": "user",
    "methods": {},
    "version": 1
  },
  "storageLayout": {
    "storage": [
      {
        "astId": 454,
        "contract": "contracts/lending/SuCdpRegistry.sol:SuCdpRegistry",
        "label": "_initialized",
        "offset": 0,
        "slot": "0",
        "type": "t_bool"
      },
      {
        "astId": 457,
        "contract": "contracts/lending/SuCdpRegistry.sol:SuCdpRegistry",
        "label": "_initializing",
        "offset": 1,
        "slot": "0",
        "type": "t_bool"
      },
      {
        "astId": 8128,
        "contract": "contracts/lending/SuCdpRegistry.sol:SuCdpRegistry",
        "label": "cdpList",
        "offset": 0,
        "slot": "1",
        "type": "t_mapping(t_address,t_array(t_address)dyn_storage)"
      },
      {
        "astId": 8134,
        "contract": "contracts/lending/SuCdpRegistry.sol:SuCdpRegistry",
        "label": "cdpIndex",
        "offset": 0,
        "slot": "2",
        "type": "t_mapping(t_address,t_mapping(t_address,t_uint256))"
      },
      {
        "astId": 8137,
        "contract": "contracts/lending/SuCdpRegistry.sol:SuCdpRegistry",
        "label": "vault",
        "offset": 0,
        "slot": "3",
        "type": "t_contract(ISuVault)8052"
      },
      {
        "astId": 8140,
        "contract": "contracts/lending/SuCdpRegistry.sol:SuCdpRegistry",
        "label": "cr",
        "offset": 0,
        "slot": "4",
        "type": "t_contract(ISuCollateralRegistry)7640"
      }
    ],
    "types": {
      "t_address": {
        "encoding": "inplace",
        "label": "address",
        "numberOfBytes": "20"
      },
      "t_array(t_address)dyn_storage": {
        "base": "t_address",
        "encoding": "dynamic_array",
        "label": "address[]",
        "numberOfBytes": "32"
      },
      "t_bool": {
        "encoding": "inplace",
        "label": "bool",
        "numberOfBytes": "1"
      },
      "t_contract(ISuCollateralRegistry)7640": {
        "encoding": "inplace",
        "label": "contract ISuCollateralRegistry",
        "numberOfBytes": "20"
      },
      "t_contract(ISuVault)8052": {
        "encoding": "inplace",
        "label": "contract ISuVault",
        "numberOfBytes": "20"
      },
      "t_mapping(t_address,t_array(t_address)dyn_storage)": {
        "encoding": "mapping",
        "key": "t_address",
        "label": "mapping(address => address[])",
        "numberOfBytes": "32",
        "value": "t_array(t_address)dyn_storage"
      },
      "t_mapping(t_address,t_mapping(t_address,t_uint256))": {
        "encoding": "mapping",
        "key": "t_address",
        "label": "mapping(address => mapping(address => uint256))",
        "numberOfBytes": "32",
        "value": "t_mapping(t_address,t_uint256)"
      },
      "t_mapping(t_address,t_uint256)": {
        "encoding": "mapping",
        "key": "t_address",
        "label": "mapping(address => uint256)",
        "numberOfBytes": "32",
        "value": "t_uint256"
      },
      "t_uint256": {
        "encoding": "inplace",
        "label": "uint256",
        "numberOfBytes": "32"
      }
    }
  }
}