{
  "address": "0x83Fae141599663d9ed24B2805d29dd9cB2107877",
  "abi": [
    {
      "inputs": [],
      "name": "ArgumentsLengthMismatch",
      "type": "error"
    },
    {
      "inputs": [],
      "name": "ZeroAddress",
      "type": "error"
    },
    {
      "anonymous": false,
      "inputs": [
        {
          "indexed": true,
          "internalType": "address",
          "name": "asset",
          "type": "address"
        },
        {
          "indexed": true,
          "internalType": "address",
          "name": "owner",
          "type": "address"
        }
      ],
      "name": "Added",
      "type": "event"
    },
    {
      "anonymous": false,
      "inputs": [
        {
          "indexed": false,
          "internalType": "uint8",
          "name": "version",
          "type": "uint8"
        }
      ],
      "name": "Initialized",
      "type": "event"
    },
    {
      "anonymous": false,
      "inputs": [
        {
          "indexed": true,
          "internalType": "address",
          "name": "asset",
          "type": "address"
        },
        {
          "indexed": true,
          "internalType": "address",
          "name": "owner",
          "type": "address"
        }
      ],
      "name": "Removed",
      "type": "event"
    },
    {
      "inputs": [
        {
          "internalType": "address[]",
          "name": "assets",
          "type": "address[]"
        },
        {
          "internalType": "address[]",
          "name": "owners",
          "type": "address[]"
        }
      ],
      "name": "batchCheckpoint",
      "outputs": [],
      "stateMutability": "nonpayable",
      "type": "function"
    },
    {
      "inputs": [
        {
          "internalType": "address",
          "name": "asset",
          "type": "address"
        },
        {
          "internalType": "address[]",
          "name": "owners",
          "type": "address[]"
        }
      ],
      "name": "batchCheckpointForAsset",
      "outputs": [],
      "stateMutability": "nonpayable",
      "type": "function"
    },
    {
      "inputs": [
        {
          "internalType": "address",
          "name": "asset",
          "type": "address"
        },
        {
          "internalType": "address",
          "name": "owner",
          "type": "address"
        }
      ],
      "name": "checkpoint",
      "outputs": [],
      "stateMutability": "nonpayable",
      "type": "function"
    },
    {
      "inputs": [],
      "name": "cr",
      "outputs": [
        {
          "internalType": "contract ISuCollateralRegistry",
          "name": "",
          "type": "address"
        }
      ],
      "stateMutability": "view",
      "type": "function"
    },
    {
      "inputs": [],
      "name": "getAllCdps",
      "outputs": [
        {
          "components": [
            {
              "internalType": "address",
              "name": "asset",
              "type": "address"
            },
            {
              "internalType": "address",
              "name": "owner",
              "type": "address"
            }
          ],
          "internalType": "struct ISuCdpRegistry.CDP[]",
          "name": "r",
          "type": "tuple[]"
        }
      ],
      "stateMutability": "view",
      "type": "function"
    },
    {
      "inputs": [
        {
          "internalType": "address",
          "name": "asset",
          "type": "address"
        }
      ],
      "name": "getCdpsByCollateral",
      "outputs": [
        {
          "components": [
            {
              "internalType": "address",
              "name": "asset",
              "type": "address"
            },
            {
              "internalType": "address",
              "name": "owner",
              "type": "address"
            }
          ],
          "internalType": "struct ISuCdpRegistry.CDP[]",
          "name": "cdps",
          "type": "tuple[]"
        }
      ],
      "stateMutability": "view",
      "type": "function"
    },
    {
      "inputs": [
        {
          "internalType": "address",
          "name": "owner",
          "type": "address"
        }
      ],
      "name": "getCdpsByOwner",
      "outputs": [
        {
          "components": [
            {
              "internalType": "address",
              "name": "asset",
              "type": "address"
            },
            {
              "internalType": "address",
              "name": "owner",
              "type": "address"
            }
          ],
          "internalType": "struct ISuCdpRegistry.CDP[]",
          "name": "r",
          "type": "tuple[]"
        }
      ],
      "stateMutability": "view",
      "type": "function"
    },
    {
      "inputs": [],
      "name": "getCdpsCount",
      "outputs": [
        {
          "internalType": "uint256",
          "name": "totalCdpCount",
          "type": "uint256"
        }
      ],
      "stateMutability": "view",
      "type": "function"
    },
    {
      "inputs": [
        {
          "internalType": "address",
          "name": "asset",
          "type": "address"
        }
      ],
      "name": "getCdpsCountForCollateral",
      "outputs": [
        {
          "internalType": "uint256",
          "name": "",
          "type": "uint256"
        }
      ],
      "stateMutability": "view",
      "type": "function"
    },
    {
      "inputs": [
        {
          "internalType": "address",
          "name": "_vault",
          "type": "address"
        },
        {
          "internalType": "address",
          "name": "_collateralRegistry",
          "type": "address"
        }
      ],
      "name": "initialize",
      "outputs": [],
      "stateMutability": "nonpayable",
      "type": "function"
    },
    {
      "inputs": [
        {
          "internalType": "address",
          "name": "asset",
          "type": "address"
        },
        {
          "internalType": "address",
          "name": "owner",
          "type": "address"
        }
      ],
      "name": "isAlive",
      "outputs": [
        {
          "internalType": "bool",
          "name": "",
          "type": "bool"
        }
      ],
      "stateMutability": "view",
      "type": "function"
    },
    {
      "inputs": [
        {
          "internalType": "address",
          "name": "asset",
          "type": "address"
        },
        {
          "internalType": "address",
          "name": "owner",
          "type": "address"
        }
      ],
      "name": "isListed",
      "outputs": [
        {
          "internalType": "bool",
          "name": "",
          "type": "bool"
        }
      ],
      "stateMutability": "view",
      "type": "function"
    },
    {
      "inputs": [],
      "name": "vault",
      "outputs": [
        {
          "internalType": "contract ISuVault",
          "name": "",
          "type": "address"
        }
      ],
      "stateMutability": "view",
      "type": "function"
    }
  ],
  "numDeployments": 4,
  "solcInputHash": "bee5958df9bd2aa66431a5d7e5e2d5ec",
  "bytecode": "0x608060405234801561001057600080fd5b5061124c806100206000396000f3fe608060405234801561001057600080fd5b50600436106100af5760003560e01c80633e18638f146100b4578063485cc955146100dd57806348e3da3c146100f25780635a5fdfe51461010557806362eb33e31461010d578063a04a7c6914610138578063b0113e6b1461014b578063bb55b7fc14610182578063bce092c414610195578063e5011ac61461019d578063f45a4320146101b0578063f8aa43f7146101d3578063fbfa77cf146101e6575b600080fd5b6100c76100c2366004610ecf565b6101f9565b6040516100d49190610ef3565b60405180910390f35b6100f06100eb366004610f4f565b610341565b005b6100f0610100366004610fd3565b6104bb565b6100c7610550565b600454610120906001600160a01b031681565b6040516001600160a01b0390911681526020016100d4565b6100f061014636600461103e565b610797565b610174610159366004610ecf565b6001600160a01b031660009081526001602052604090205490565b6040519081526020016100d4565b6100f0610190366004610f4f565b6107d0565b610174610860565b6100c76101ab366004610ecf565b610948565b6101c36101be366004610f4f565b610b76565b60405190151581526020016100d4565b6101c36101e1366004610f4f565b610c19565b600354610120906001600160a01b031681565b6001600160a01b038116600090815260016020908152604080832080548251818502810185019093528083526060949383018282801561026257602002820191906000526020600020905b81546001600160a01b03168152600190910190602001808311610244575b5050505050905080516001600160401b0381111561028257610282611092565b6040519080825280602002602001820160405280156102bb57816020015b6102a8610ea0565b8152602001906001900390816102a05790505b50915060005b815181101561033a576040518060400160405280856001600160a01b031681526020018383815181106102f6576102f66110a8565b60200260200101516001600160a01b031681525083828151811061031c5761031c6110a8565b60200260200101819052508080610332906110d4565b9150506102c1565b5050919050565b600054610100900460ff16158080156103615750600054600160ff909116105b8061037b5750303b15801561037b575060005460ff166001145b6103e25760405162461bcd60e51b815260206004820152602e60248201527f496e697469616c697a61626c653a20636f6e747261637420697320616c72656160448201526d191e481a5b9a5d1a585b1a5e995960921b606482015260840160405180910390fd5b6000805460ff191660011790558015610405576000805461ff0019166101001790555b6001600160a01b038316158061042257506001600160a01b038216155b156104405760405163d92e233d60e01b815260040160405180910390fd5b600380546001600160a01b038086166001600160a01b031992831617909255600480549285169290911691909117905580156104b6576000805461ff0019169055604051600181527f7f26b83ff96e1f2b6a682f133852f6798a09c465da95921460cefb38474024989060200160405180910390a15b505050565b8281146104db576040516351ca890760e01b815260040160405180910390fd5b60005b81811015610549576105378585838181106104fb576104fb6110a8565b90506020020160208101906105109190610ecf565b848484818110610522576105226110a8565b90506020020160208101906101909190610ecf565b80610541816110d4565b9150506104de565b5050505050565b6060600061055c610860565b90506000816001600160401b0381111561057857610578611092565b6040519080825280602002602001820160405280156105b157816020015b61059e610ea0565b8152602001906001900390816105965790505b5092506000600460009054906101000a90046001600160a01b03166001600160a01b0316634113e5ca6040518163ffffffff1660e01b8152600401600060405180830381865afa158015610609573d6000803e3d6000fd5b505050506040513d6000823e601f3d908101601f1916820160405261063191908101906110fd565b905060005b815181101561079057600060016000848481518110610657576106576110a8565b60200260200101516001600160a01b03166001600160a01b031681526020019081526020016000208054806020026020016040519081016040528092919081815260200182805480156106d357602002820191906000526020600020905b81546001600160a01b031681526001909101906020018083116106b5575b5050505050905060005b815181101561077b576040518060400160405280858581518110610703576107036110a8565b60200260200101516001600160a01b0316815260200183838151811061072b5761072b6110a8565b60200260200101516001600160a01b031681525087868061074b906110d4565b97508151811061075d5761075d6110a8565b60200260200101819052508080610773906110d4565b9150506106dd565b50508080610788906110d4565b915050610636565b5050505090565b60005b818110156107ca576107b884848484818110610522576105226110a8565b806107c2816110d4565b91505061079a565b50505050565b6001600160a01b03821615806107ed57506001600160a01b038116155b1561080b5760405163d92e233d60e01b815260040160405180910390fd5b60006108178383610b76565b905060006108258484610c19565b9050808015610832575081155b15610846576108418484610c99565b6107ca565b818015610851575080155b156107ca576107ca8484610d16565b6004805460408051632089f2e560e11b8152905160009384936001600160a01b031692634113e5ca928183019286928290030181865afa1580156108a8573d6000803e3d6000fd5b505050506040513d6000823e601f3d908101601f191682016040526108d091908101906110fd565b90506000915060005b815181101561094357600160008383815181106108f8576108f86110a8565b60200260200101516001600160a01b03166001600160a01b03168152602001908152602001600020805490508361092f91906111c1565b92508061093b816110d4565b9150506108d9565b505090565b6004805460408051632089f2e560e11b815290516060936000936001600160a01b031692634113e5ca928183019286928290030181865afa158015610991573d6000803e3d6000fd5b505050506040513d6000823e601f3d908101601f191682016040526109b991908101906110fd565b9050600081516001600160401b038111156109d6576109d6611092565b604051908082528060200260200182016040528015610a0f57816020015b6109fc610ea0565b8152602001906001900390816109f45790505b5090506000805b8351811015610ac357610a42848281518110610a3457610a346110a8565b602002602001015187610b76565b15610ab1576040518060400160405280858381518110610a6457610a646110a8565b60200260200101516001600160a01b03168152602001876001600160a01b0316815250838380610a93906110d4565b945081518110610aa557610aa56110a8565b60200260200101819052505b80610abb816110d4565b915050610a16565b50806001600160401b03811115610adc57610adc611092565b604051908082528060200260200182016040528015610b1557816020015b610b02610ea0565b815260200190600190039081610afa5790505b50935060005b81811015610b6d57828181518110610b3557610b356110a8565b6020026020010151858281518110610b4f57610b4f6110a8565b60200260200101819052508080610b65906110d4565b915050610b1b565b50505050919050565b6001600160a01b0382166000908152600160205260408120548103610b9d57506000610c13565b6001600160a01b03808416600090815260026020908152604080832093861683529290522054151580610c1057506001600160a01b038381166000908152600160205260408120805492851692909190610bf957610bf96110a8565b6000918252602090912001546001600160a01b0316145b90505b92915050565b60035460405163f084843d60e01b81526001600160a01b0384811660048301528381166024830152600092169063f084843d90604401602060405180830381865afa158015610c6c573d6000803e3d6000fd5b505050506040513d601f19601f82011682018060405250810190610c9091906111d4565b15159392505050565b6001600160a01b0380831660008181526001602081815260408084208054600284528286209789168087529784528286208190558484529384018155845290832090910180546001600160a01b03191685179055517f938c63ac3d228b23f6bee7618fefc6790522e338ac202c958a2ea9eb9706c5d19190a35050565b6001600160a01b03808316600081815260026020908152604080832094861683529381528382208054908390559282526001908190529281205491929091610d5e91906111ed565b9050808214610e17576001600160a01b0384166000908152600160205260408120805483908110610d9157610d916110a8565b60009182526020808320909101546001600160a01b03888116845260019092526040909220805491909216925082919085908110610dd157610dd16110a8565b600091825260208083209190910180546001600160a01b0319166001600160a01b0394851617905587831682526002815260408083209490931682529290925290208290555b6001600160a01b0384166000908152600160205260409020805480610e3e57610e3e611200565b600082815260208120820160001990810180546001600160a01b03191690559091019091556040516001600160a01b0385811692908716917f40e634d0e26d9ec2e860e4dd9b7b2cfbb569b6058362a1a54d3a94718bc495879190a350505050565b604080518082019091526000808252602082015290565b6001600160a01b0381168114610ecc57600080fd5b50565b600060208284031215610ee157600080fd5b8135610eec81610eb7565b9392505050565b602080825282518282018190526000919060409081850190868401855b82811015610f4257815180516001600160a01b0390811686529087015116868501529284019290850190600101610f10565b5091979650505050505050565b60008060408385031215610f6257600080fd5b8235610f6d81610eb7565b91506020830135610f7d81610eb7565b809150509250929050565b60008083601f840112610f9a57600080fd5b5081356001600160401b03811115610fb157600080fd5b6020830191508360208260051b8501011115610fcc57600080fd5b9250929050565b60008060008060408587031215610fe957600080fd5b84356001600160401b038082111561100057600080fd5b61100c88838901610f88565b9096509450602087013591508082111561102557600080fd5b5061103287828801610f88565b95989497509550505050565b60008060006040848603121561105357600080fd5b833561105e81610eb7565b925060208401356001600160401b0381111561107957600080fd5b61108586828701610f88565b9497909650939450505050565b634e487b7160e01b600052604160045260246000fd5b634e487b7160e01b600052603260045260246000fd5b634e487b7160e01b600052601160045260246000fd5b6000600182016110e6576110e66110be565b5060010190565b80516110f881610eb7565b919050565b6000602080838503121561111057600080fd5b82516001600160401b038082111561112757600080fd5b818501915085601f83011261113b57600080fd5b81518181111561114d5761114d611092565b8060051b604051601f19603f8301168101818110858211171561117257611172611092565b60405291825284820192508381018501918883111561119057600080fd5b938501935b828510156111b5576111a6856110ed565b84529385019392850192611195565b98975050505050505050565b80820180821115610c1357610c136110be565b6000602082840312156111e657600080fd5b5051919050565b81810381811115610c1357610c136110be565b634e487b7160e01b600052603160045260246000fdfea2646970667358221220d8fc0274f464225a818bc6a58957e49117b1f7a88ed6cb00a900786e4e4a276e64736f6c63430008110033",
  "devdoc": {
    "kind": "dev",
    "methods": {},
    "version": 1
  },
  "userdoc": {
    "kind": "user",
    "methods": {},
    "version": 1
  },
  "storageLayout": {
    "storage": [
      {
        "astId": 461,
        "contract": "contracts/lending/SuCdpRegistry.sol:SuCdpRegistry",
        "label": "_initialized",
        "offset": 0,
        "slot": "0",
        "type": "t_uint8"
      },
      {
        "astId": 464,
        "contract": "contracts/lending/SuCdpRegistry.sol:SuCdpRegistry",
        "label": "_initializing",
        "offset": 1,
        "slot": "0",
        "type": "t_bool"
      },
      {
        "astId": 10989,
        "contract": "contracts/lending/SuCdpRegistry.sol:SuCdpRegistry",
        "label": "cdpList",
        "offset": 0,
        "slot": "1",
        "type": "t_mapping(t_address,t_array(t_address)dyn_storage)"
      },
      {
        "astId": 10995,
        "contract": "contracts/lending/SuCdpRegistry.sol:SuCdpRegistry",
        "label": "cdpIndex",
        "offset": 0,
        "slot": "2",
        "type": "t_mapping(t_address,t_mapping(t_address,t_uint256))"
      },
      {
        "astId": 10998,
        "contract": "contracts/lending/SuCdpRegistry.sol:SuCdpRegistry",
        "label": "vault",
        "offset": 0,
        "slot": "3",
        "type": "t_contract(ISuVault)10925"
      },
      {
        "astId": 11001,
        "contract": "contracts/lending/SuCdpRegistry.sol:SuCdpRegistry",
        "label": "cr",
        "offset": 0,
        "slot": "4",
        "type": "t_contract(ISuCollateralRegistry)10229"
      }
    ],
    "types": {
      "t_address": {
        "encoding": "inplace",
        "label": "address",
        "numberOfBytes": "20"
      },
      "t_array(t_address)dyn_storage": {
        "base": "t_address",
        "encoding": "dynamic_array",
        "label": "address[]",
        "numberOfBytes": "32"
      },
      "t_bool": {
        "encoding": "inplace",
        "label": "bool",
        "numberOfBytes": "1"
      },
      "t_contract(ISuCollateralRegistry)10229": {
        "encoding": "inplace",
        "label": "contract ISuCollateralRegistry",
        "numberOfBytes": "20"
      },
      "t_contract(ISuVault)10925": {
        "encoding": "inplace",
        "label": "contract ISuVault",
        "numberOfBytes": "20"
      },
      "t_mapping(t_address,t_array(t_address)dyn_storage)": {
        "encoding": "mapping",
        "key": "t_address",
        "label": "mapping(address => address[])",
        "numberOfBytes": "32",
        "value": "t_array(t_address)dyn_storage"
      },
      "t_mapping(t_address,t_mapping(t_address,t_uint256))": {
        "encoding": "mapping",
        "key": "t_address",
        "label": "mapping(address => mapping(address => uint256))",
        "numberOfBytes": "32",
        "value": "t_mapping(t_address,t_uint256)"
      },
      "t_mapping(t_address,t_uint256)": {
        "encoding": "mapping",
        "key": "t_address",
        "label": "mapping(address => uint256)",
        "numberOfBytes": "32",
        "value": "t_uint256"
      },
      "t_uint256": {
        "encoding": "inplace",
        "label": "uint256",
        "numberOfBytes": "32"
      },
      "t_uint8": {
        "encoding": "inplace",
        "label": "uint8",
        "numberOfBytes": "1"
      }
    }
  }
}