{
  "address": "0x75624298a56e5fc4D7a22a2Ca300A0e5DBdb1b23",
  "abi": [
    {
      "inputs": [],
      "name": "ACCESS_CONTROL_SINGLETON",
      "outputs": [
        {
          "internalType": "contract ISuAccessControl",
          "name": "",
          "type": "address"
        }
      ],
      "stateMutability": "view",
      "type": "function"
    },
    {
      "inputs": [],
      "name": "LIQUIDATION_ACCESS_ROLE",
      "outputs": [
        {
          "internalType": "bytes32",
          "name": "",
          "type": "bytes32"
        }
      ],
      "stateMutability": "view",
      "type": "function"
    },
    {
      "inputs": [],
      "name": "MINTER_ROLE",
      "outputs": [
        {
          "internalType": "bytes32",
          "name": "",
          "type": "bytes32"
        }
      ],
      "stateMutability": "view",
      "type": "function"
    },
    {
      "inputs": [],
      "name": "VAULT_ACCESS_ROLE",
      "outputs": [
        {
          "internalType": "bytes32",
          "name": "",
          "type": "bytes32"
        }
      ],
      "stateMutability": "view",
      "type": "function"
    },
    {
      "inputs": [
        {
          "internalType": "address",
          "name": "",
          "type": "address"
        }
      ],
      "name": "assetToDecimals",
      "outputs": [
        {
          "internalType": "uint8",
          "name": "",
          "type": "uint8"
        }
      ],
      "stateMutability": "view",
      "type": "function"
    },
    {
      "inputs": [
        {
          "internalType": "address",
          "name": "",
          "type": "address"
        }
      ],
      "name": "assetToFeed",
      "outputs": [
        {
          "internalType": "address",
          "name": "",
          "type": "address"
        }
      ],
      "stateMutability": "view",
      "type": "function"
    },
    {
      "inputs": [
        {
          "internalType": "address",
          "name": "asset",
          "type": "address"
        }
      ],
      "name": "getUsdPrice1e18",
      "outputs": [
        {
          "internalType": "uint256",
          "name": "",
          "type": "uint256"
        }
      ],
      "stateMutability": "view",
      "type": "function"
    },
    {
      "inputs": [
        {
          "internalType": "address",
          "name": "_authControl",
          "type": "address"
        }
      ],
      "name": "initialize",
      "outputs": [],
      "stateMutability": "nonpayable",
      "type": "function"
    },
    {
      "inputs": [
        {
          "internalType": "address",
          "name": "_collateral",
          "type": "address"
        },
        {
          "internalType": "address",
          "name": "_feed",
          "type": "address"
        },
        {
          "internalType": "uint8",
          "name": "_decimals",
          "type": "uint8"
        }
      ],
      "name": "setAssetFeed",
      "outputs": [],
      "stateMutability": "nonpayable",
      "type": "function"
    }
  ],
  "numDeployments": 1,
  "solcInputHash": "5694697cb0af4bc0d2a28db42599225b",
  "bytecode": "0x608060405234801561001057600080fd5b50610969806100206000396000f3fe608060405234801561001057600080fd5b50600436106100a35760003560e01c8063c4d66de811610076578063d53913931161005b578063d539139314610183578063dc97e84e146101aa578063e6741de2146101d157600080fd5b8063c4d66de81461013b578063cadcd1781461014e57600080fd5b806303ee9f22146100a857806314c376dc146100de578063356efd9814610113578063762c212914610126575b600080fd5b6000546100c1906201000090046001600160a01b031681565b6040516001600160a01b0390911681526020015b60405180910390f35b6101057fe965846df3dd5b1dfa65f58e31477079e90140e0908b6dd31b5aead5a57cf36581565b6040519081526020016100d5565b610105610121366004610663565b6101fa565b61013961013436600461067d565b6102d4565b005b610139610149366004610663565b61042b565b61017161015c366004610663565b60026020526000908152604090205460ff1681565b60405160ff90911681526020016100d5565b6101057f9f2df0fed2c77648de5860a4cc508cd0818c85b8b8a1ab4ceeef8d981c8956a681565b6101057f9a9aef7c1247d5fc769b0185c052913e39673da29a880317dfd20ebf86f26a4981565b6100c16101df366004610663565b6001602052600090815260409020546001600160a01b031681565b6001600160a01b0380821660009081526001602090815260408083205460029092528083205481517ffeaf968c00000000000000000000000000000000000000000000000000000000815291519394929092169260ff909216918491849163feaf968c9160048082019260a092909190829003018186803b15801561027e57600080fd5b505afa158015610292573d6000803e3d6000fd5b505050506040513d601f19601f820116820180604052508101906102b691906106e8565b50505091505060006102ca828460126104fd565b9695505050505050565b600080546040517f91d1485400000000000000000000000000000000000000000000000000000000815260048101929092523360248301526201000090046001600160a01b0316906391d148549060440160206040518083038186803b15801561033d57600080fd5b505afa158015610351573d6000803e3d6000fd5b505050506040513d601f19601f8201168201806040525081019061037591906106c8565b6103c65760405162461bcd60e51b815260206004820152601d60248201527f5375417574683a206f6e6c794f776e657220415554485f4641494c454400000060448201526064015b60405180910390fd5b6001600160a01b03928316600090815260016020908152604080832080547fffffffffffffffffffffffff000000000000000000000000000000000000000016959096169490941790945560029093529120805460ff191660ff909216919091179055565b600054610100900460ff166104465760005460ff161561044a565b303b155b6104bc5760405162461bcd60e51b815260206004820152602e60248201527f496e697469616c697a61626c653a20636f6e747261637420697320616c72656160448201527f647920696e697469616c697a656400000000000000000000000000000000000060648201526084016103bd565b600054610100900460ff161580156104de576000805461ffff19166101011790555b6104e782610570565b80156104f9576000805461ff00191690555b5050565b60008160ff168360ff1610156105365761051783836108fa565b6105259060ff16600a6107b4565b61052f908561085e565b9050610569565b8160ff168360ff1611156105665761054e82846108fa565b61055c9060ff16600a6107b4565b61052f9085610737565b50825b9392505050565b600054610100900460ff166105ed5760405162461bcd60e51b815260206004820152602b60248201527f496e697469616c697a61626c653a20636f6e7472616374206973206e6f74206960448201527f6e697469616c697a696e6700000000000000000000000000000000000000000060648201526084016103bd565b600080546001600160a01b0390921662010000027fffffffffffffffffffff0000000000000000000000000000000000000000ffff909216919091179055565b80356001600160a01b038116811461064457600080fd5b919050565b805169ffffffffffffffffffff8116811461064457600080fd5b600060208284031215610674578081fd5b6105698261062d565b600080600060608486031215610691578182fd5b61069a8461062d565b92506106a86020850161062d565b9150604084013560ff811681146106bd578182fd5b809150509250925092565b6000602082840312156106d9578081fd5b81518015158114610569578182fd5b600080600080600060a086880312156106ff578081fd5b61070886610649565b945060208601519350604086015192506060860151915061072b60808701610649565b90509295509295909350565b60008261075257634e487b7160e01b81526012600452602481fd5b600160ff1b82146000198414161561076c5761076c61091d565b500590565b600181815b808511156107ac5781600019048211156107925761079261091d565b8085161561079f57918102915b93841c9390800290610776565b509250929050565b600061056983836000826107ca57506001610858565b816107d757506000610858565b81600181146107ed57600281146107f757610813565b6001915050610858565b60ff8411156108085761080861091d565b50506001821b610858565b5060208310610133831016604e8410600b8410161715610836575081810a610858565b6108408383610771565b80600019048211156108545761085461091d565b0290505b92915050565b60007f7fffffffffffffffffffffffffffffffffffffffffffffffffffffffffffffff8184138284138583048511828216161561089d5761089d61091d565b600160ff1b848712868205881281841616156108bb576108bb61091d565b8587129250878205871284841616156108d6576108d661091d565b878505871281841616156108ec576108ec61091d565b505050929093029392505050565b600060ff821660ff8416808210156109145761091461091d565b90039392505050565b634e487b7160e01b600052601160045260246000fdfea26469706673582212205388ede3695bb8970256b6ccbc7200e50106150c309896758d6d0362e985732964736f6c63430008040033",
  "devdoc": {
    "kind": "dev",
    "methods": {
      "getUsdPrice1e18(address)": {
        "params": {
          "asset": "- address of erc20 token contract"
        },
        "returns": {
          "_0": "usdPrice1e18 such that asset.balanceOf() * getUsdPrice1e18(asset) / 1e18 == $$ * 1e18*"
        }
      }
    },
    "version": 1
  },
  "userdoc": {
    "kind": "user",
    "methods": {
      "getUsdPrice1e18(address)": {
        "notice": "WARNING! Read this description very carefully!      function getUsdPrice1e18(address asset) returns (uint256) that:          basicAmountOfAsset * getUsdPrice1e18(asset) / 1e18 === $$ * 1e18      in other words, it doesn't matter what's the erc20.decimals is,      you just multiply token balance in basic units on value from oracle and get dollar amount multiplied on 1e18. different assets have different deviation threshold (errors)      for wBTC it's <= 0.5%, read more https://data.chain.link/ethereum/mainnet/crypto-usd/btc-usd      for other asset is can be larger based on particular oracle implementation. examples:      assume market price of wBTC = $31,503.77, oracle error = $158       case #1: small amount of wBTC           we have 0.0,000,001 wBTC that is worth v = $0.00315  $0.00001 = 0.00315*1e18 = 315*1e13  1*1e13           actual balance on the asset b = wBTC.balanceOf() =  0.0000001*1e18 = 1e11           oracle should return or = oracle.getUsdPrice1e18(wBTC) <=>           <=> b*or = v => v/b = 315*1e13 / 1e11 = 315*1e2  1e2           error = or.error * b = 1e2 * 1e11 = 1e13 => 1e13/1e18 usd = 1e-5 = 0.00001 usd       case #2: large amount of wBTC           v = 2,000,000 wBTC = $31,503.77 * 2m  158*2m = $63,007,540,000  $316,000,000 = 63,007*1e24  316*1e24           for calc convenience we increase error on 0.05 and have v = 63,000*24  300*1e24 = (630  3)*1e26           b = 2*1e6 * 1e18 = 2*1e24           or = v/b = (630  3)*1e26 / 2*1e24 = 315*1e2  1.5*1e2           error = or.error * b = 1.5*100 * 2*1e24 = 3*1e26 = 3*1e8*1e18 = $300,000,000 ~ $316,000,000      assume the market price of USDT = $0.97  $0.00485,       case #3: little amount of USDT           v = USDT amount 0.005 = 0.005*(0.97  0.00485) = 0.00485*1e18  0.00002425*1e18 = 485*1e13  3*1e13           we rounded error up on (3000-2425)/2425 ~= +24% for calculation convenience.           b = USDT.balanceOf() = 0.005*1e6 = 5*1e3           b*or = v => or = v/b = (485*1e13  3*1e13) / 5*1e3 = 970*1e9  6*1e9           error = 6*1e9 * 5*1e3 / 1e18 = 30*1e12/1e18 = 3*1e-5 = $0,00005       case #4: lot of USDT           v = we have 100,000,000,000 USDT = $97B = 97*1e9*1e18  0.5*1e9*1e18           b = USDT.balanceOf() = 1e11*1e6 = 1e17           or = v/b = (97*1e9*1e18  0.5*1e9*1e18) / 1e17 = 970*1e9  5*1e9           error = 5*1e9 * 1e17 = 5*1e26 = 0.5 * 1e8*1e18"
      }
    },
    "version": 1
  },
  "storageLayout": {
    "storage": [
      {
        "astId": 454,
        "contract": "contracts/oracles/SuChainlinkOracle.sol:SuChainlinkOracle",
        "label": "_initialized",
        "offset": 0,
        "slot": "0",
        "type": "t_bool"
      },
      {
        "astId": 457,
        "contract": "contracts/oracles/SuChainlinkOracle.sol:SuChainlinkOracle",
        "label": "_initializing",
        "offset": 1,
        "slot": "0",
        "type": "t_bool"
      },
      {
        "astId": 3905,
        "contract": "contracts/oracles/SuChainlinkOracle.sol:SuChainlinkOracle",
        "label": "ACCESS_CONTROL_SINGLETON",
        "offset": 2,
        "slot": "0",
        "type": "t_contract(ISuAccessControl)6911"
      },
      {
        "astId": 12856,
        "contract": "contracts/oracles/SuChainlinkOracle.sol:SuChainlinkOracle",
        "label": "assetToFeed",
        "offset": 0,
        "slot": "1",
        "type": "t_mapping(t_address,t_address)"
      },
      {
        "astId": 12860,
        "contract": "contracts/oracles/SuChainlinkOracle.sol:SuChainlinkOracle",
        "label": "assetToDecimals",
        "offset": 0,
        "slot": "2",
        "type": "t_mapping(t_address,t_uint8)"
      }
    ],
    "types": {
      "t_address": {
        "encoding": "inplace",
        "label": "address",
        "numberOfBytes": "20"
      },
      "t_bool": {
        "encoding": "inplace",
        "label": "bool",
        "numberOfBytes": "1"
      },
      "t_contract(ISuAccessControl)6911": {
        "encoding": "inplace",
        "label": "contract ISuAccessControl",
        "numberOfBytes": "20"
      },
      "t_mapping(t_address,t_address)": {
        "encoding": "mapping",
        "key": "t_address",
        "label": "mapping(address => address)",
        "numberOfBytes": "32",
        "value": "t_address"
      },
      "t_mapping(t_address,t_uint8)": {
        "encoding": "mapping",
        "key": "t_address",
        "label": "mapping(address => uint8)",
        "numberOfBytes": "32",
        "value": "t_uint8"
      },
      "t_uint8": {
        "encoding": "inplace",
        "label": "uint8",
        "numberOfBytes": "1"
      }
    }
  }
}