{
  "address": "0x645BC7905Cfe5591F759b5946f761ac4b70D0Ac1",
  "abi": [
    {
      "inputs": [],
      "name": "AlreadyExist",
      "type": "error"
    },
    {
      "inputs": [],
      "name": "NotExist",
      "type": "error"
    },
    {
      "inputs": [],
      "name": "ZeroAddress",
      "type": "error"
    },
    {
      "anonymous": false,
      "inputs": [
        {
          "indexed": true,
          "internalType": "address",
          "name": "asset",
          "type": "address"
        }
      ],
      "name": "CollateralAdded",
      "type": "event"
    },
    {
      "anonymous": false,
      "inputs": [
        {
          "indexed": true,
          "internalType": "address",
          "name": "asset",
          "type": "address"
        }
      ],
      "name": "CollateralRemoved",
      "type": "event"
    },
    {
      "anonymous": false,
      "inputs": [
        {
          "indexed": false,
          "internalType": "uint8",
          "name": "version",
          "type": "uint8"
        }
      ],
      "name": "Initialized",
      "type": "event"
    },
    {
      "inputs": [],
      "name": "ACCESS_CONTROL_SINGLETON",
      "outputs": [
        {
          "internalType": "contract ISuAccessControl",
          "name": "",
          "type": "address"
        }
      ],
      "stateMutability": "view",
      "type": "function"
    },
    {
      "inputs": [],
      "name": "LIQUIDATION_ACCESS_ROLE",
      "outputs": [
        {
          "internalType": "bytes32",
          "name": "",
          "type": "bytes32"
        }
      ],
      "stateMutability": "view",
      "type": "function"
    },
    {
      "inputs": [],
      "name": "MINTER_ROLE",
      "outputs": [
        {
          "internalType": "bytes32",
          "name": "",
          "type": "bytes32"
        }
      ],
      "stateMutability": "view",
      "type": "function"
    },
    {
      "inputs": [],
      "name": "VAULT_ACCESS_ROLE",
      "outputs": [
        {
          "internalType": "bytes32",
          "name": "",
          "type": "bytes32"
        }
      ],
      "stateMutability": "view",
      "type": "function"
    },
    {
      "inputs": [
        {
          "internalType": "address",
          "name": "asset",
          "type": "address"
        }
      ],
      "name": "addCollateral",
      "outputs": [],
      "stateMutability": "nonpayable",
      "type": "function"
    },
    {
      "inputs": [
        {
          "internalType": "address",
          "name": "",
          "type": "address"
        }
      ],
      "name": "collateralId",
      "outputs": [
        {
          "internalType": "uint256",
          "name": "",
          "type": "uint256"
        }
      ],
      "stateMutability": "view",
      "type": "function"
    },
    {
      "inputs": [
        {
          "internalType": "uint256",
          "name": "",
          "type": "uint256"
        }
      ],
      "name": "collateralList",
      "outputs": [
        {
          "internalType": "address",
          "name": "",
          "type": "address"
        }
      ],
      "stateMutability": "view",
      "type": "function"
    },
    {
      "inputs": [],
      "name": "collaterals",
      "outputs": [
        {
          "internalType": "address[]",
          "name": "",
          "type": "address[]"
        }
      ],
      "stateMutability": "view",
      "type": "function"
    },
    {
      "inputs": [],
      "name": "collateralsCount",
      "outputs": [
        {
          "internalType": "uint256",
          "name": "",
          "type": "uint256"
        }
      ],
      "stateMutability": "view",
      "type": "function"
    },
    {
      "inputs": [
        {
          "internalType": "address",
          "name": "_authControl",
          "type": "address"
        },
        {
          "internalType": "address[]",
          "name": "assets",
          "type": "address[]"
        }
      ],
      "name": "initialize",
      "outputs": [],
      "stateMutability": "nonpayable",
      "type": "function"
    },
    {
      "inputs": [
        {
          "internalType": "address",
          "name": "asset",
          "type": "address"
        }
      ],
      "name": "isCollateral",
      "outputs": [
        {
          "internalType": "bool",
          "name": "",
          "type": "bool"
        }
      ],
      "stateMutability": "view",
      "type": "function"
    },
    {
      "inputs": [
        {
          "internalType": "address",
          "name": "asset",
          "type": "address"
        }
      ],
      "name": "removeCollateral",
      "outputs": [],
      "stateMutability": "nonpayable",
      "type": "function"
    }
  ],
  "numDeployments": 5,
  "solcInputHash": "bee5958df9bd2aa66431a5d7e5e2d5ec",
  "bytecode": "0x608060405234801561001057600080fd5b50610c08806100206000396000f3fe608060405234801561001057600080fd5b50600436106100a45760003560e01c806303ee9f22146100a95780630ee21e54146100df57806314c376dc146101025780631bcff06c146101375780633024a9121461013f5780634113e5ca146101525780634f73045514610167578063946d920414610187578063c99d3a061461019c578063d5391393146101af578063dc97e84e146101d6578063f0d2d5a8146101fd575b600080fd5b6000546100c2906201000090046001600160a01b031681565b6040516001600160a01b0390911681526020015b60405180910390f35b6100f26100ed36600461095f565b610210565b60405190151581526020016100d6565b6101297fe965846df3dd5b1dfa65f58e31477079e90140e0908b6dd31b5aead5a57cf36581565b6040519081526020016100d6565b600254610129565b6100c261014d366004610981565b610280565b61015a6102aa565b6040516100d6919061099a565b61012961017536600461095f565b60016020526000908152604090205481565b61019a6101953660046109fd565b61030c565b005b61019a6101aa36600461095f565b610553565b6101297f9f2df0fed2c77648de5860a4cc508cd0818c85b8b8a1ab4ceeef8d981c8956a681565b6101297f9a9aef7c1247d5fc769b0185c052913e39673da29a880317dfd20ebf86f26a4981565b61019a61020b36600461095f565b610757565b600254600090810361022457506000919050565b6001600160a01b03821660009081526001602052604090205415158061027a5750816001600160a01b0316600260008154811061026357610263610ad4565b6000918252602090912001546001600160a01b0316145b92915050565b6002818154811061029057600080fd5b6000918252602090912001546001600160a01b0316905081565b6060600280548060200260200160405190810160405280929190818152602001828054801561030257602002820191906000526020600020905b81546001600160a01b031681526001909101906020018083116102e4575b5050505050905090565b600054610100900460ff161580801561032c5750600054600160ff909116105b806103465750303b158015610346575060005460ff166001145b6103ae5760405162461bcd60e51b815260206004820152602e60248201527f496e697469616c697a61626c653a20636f6e747261637420697320616c72656160448201526d191e481a5b9a5d1a585b1a5e995960921b60648201526084015b60405180910390fd5b6000805460ff1916600117905580156103d1576000805461ff0019166101001790555b6103da836108ae565b60005b8251811015610507576104088382815181106103fb576103fb610ad4565b6020026020010151610210565b15610426576040516333e9449d60e21b815260040160405180910390fd5b600283828151811061043a5761043a610ad4565b60209081029190910181015182546001808201855560009485529284200180546001600160a01b0319166001600160a01b03909216919091179055845183929086908490811061048c5761048c610ad4565b60200260200101516001600160a01b03166001600160a01b03168152602001908152602001600020819055508281815181106104ca576104ca610ad4565b60200260200101516001600160a01b0316600080516020610bb383398151915260405160405180910390a2806104ff81610b00565b9150506103dd565b50801561054e576000805461ff0019169055604051600181527f7f26b83ff96e1f2b6a682f133852f6798a09c465da95921460cefb38474024989060200160405180910390a15b505050565b60008054604051632474521560e21b8152620100009091046001600160a01b0316916391d148549161058a91903390600401610b19565b602060405180830381865afa1580156105a7573d6000803e3d6000fd5b505050506040513d601f19601f820116820180604052508101906105cb9190610b30565b6105e75760405162461bcd60e51b81526004016103a590610b52565b6001600160a01b03811661060e5760405163d92e233d60e01b815260040160405180910390fd5b61061781610210565b6106345760405163ad5679e160e01b815260040160405180910390fd5b6001600160a01b0381166000908152600160208190526040822080549083905560025490929161066391610b89565b90508082146106eb5760006002828154811061068157610681610ad4565b600091825260209091200154600280546001600160a01b0390921692508291859081106106b0576106b0610ad4565b600091825260208083209190910180546001600160a01b0319166001600160a01b039485161790559290911681526001909152604090208290555b60028054806106fc576106fc610b9c565b600082815260208120820160001990810180546001600160a01b03191690559091019091556040516001600160a01b038516917fd89d2ee68ab04dca0193f48a4aff55e20fa5ec0429a8a8c1c51b8dad6178a59391a2505050565b60008054604051632474521560e21b8152620100009091046001600160a01b0316916391d148549161078e91903390600401610b19565b602060405180830381865afa1580156107ab573d6000803e3d6000fd5b505050506040513d601f19601f820116820180604052508101906107cf9190610b30565b6107eb5760405162461bcd60e51b81526004016103a590610b52565b6001600160a01b0381166108125760405163d92e233d60e01b815260040160405180910390fd5b61081b81610210565b15610839576040516333e9449d60e21b815260040160405180910390fd5b600280546001600160a01b038316600081815260016020819052604080832085905590840185559381527f405787fa12a823e0f2b7631cc41b3ba8828b3321ca811111fa75cd3aa3bb5ace90920180546001600160a01b031916821790559151600080516020610bb38339815191529190a250565b600054610100900460ff166109195760405162461bcd60e51b815260206004820152602b60248201527f496e697469616c697a61626c653a20636f6e7472616374206973206e6f74206960448201526a6e697469616c697a696e6760a81b60648201526084016103a5565b600080546001600160a01b03909216620100000262010000600160b01b0319909216919091179055565b80356001600160a01b038116811461095a57600080fd5b919050565b60006020828403121561097157600080fd5b61097a82610943565b9392505050565b60006020828403121561099357600080fd5b5035919050565b6020808252825182820181905260009190848201906040850190845b818110156109db5783516001600160a01b0316835292840192918401916001016109b6565b50909695505050505050565b634e487b7160e01b600052604160045260246000fd5b60008060408385031215610a1057600080fd5b610a1983610943565b91506020838101356001600160401b0380821115610a3657600080fd5b818601915086601f830112610a4a57600080fd5b813581811115610a5c57610a5c6109e7565b8060051b604051601f19603f83011681018181108582111715610a8157610a816109e7565b604052918252848201925083810185019189831115610a9f57600080fd5b938501935b82851015610ac457610ab585610943565b84529385019392850192610aa4565b8096505050505050509250929050565b634e487b7160e01b600052603260045260246000fd5b634e487b7160e01b600052601160045260246000fd5b600060018201610b1257610b12610aea565b5060010190565b9182526001600160a01b0316602082015260400190565b600060208284031215610b4257600080fd5b8151801515811461097a57600080fd5b6020808252601d908201527f5375417574683a206f6e6c794f776e657220415554485f4641494c4544000000604082015260600190565b8181038181111561027a5761027a610aea565b634e487b7160e01b600052603160045260246000fdfe7db05e63d635a68c62fd7fd8f3107ae8ab584a383e102d1bd8a40f4c977e465fa26469706673582212206ce9f189405175ac43b4773f32ab484028884930ddf661a5a293125f763ffcc364736f6c63430008110033",
  "devdoc": {
    "kind": "dev",
    "methods": {},
    "version": 1
  },
  "userdoc": {
    "kind": "user",
    "methods": {},
    "version": 1
  },
  "storageLayout": {
    "storage": [
      {
        "astId": 461,
        "contract": "contracts/lending/SuCollateralRegistry.sol:SuCollateralRegistry",
        "label": "_initialized",
        "offset": 0,
        "slot": "0",
        "type": "t_uint8"
      },
      {
        "astId": 464,
        "contract": "contracts/lending/SuCollateralRegistry.sol:SuCollateralRegistry",
        "label": "_initializing",
        "offset": 1,
        "slot": "0",
        "type": "t_bool"
      },
      {
        "astId": 6897,
        "contract": "contracts/lending/SuCollateralRegistry.sol:SuCollateralRegistry",
        "label": "ACCESS_CONTROL_SINGLETON",
        "offset": 2,
        "slot": "0",
        "type": "t_contract(ISuAccessControl)10043"
      },
      {
        "astId": 11632,
        "contract": "contracts/lending/SuCollateralRegistry.sol:SuCollateralRegistry",
        "label": "collateralId",
        "offset": 0,
        "slot": "1",
        "type": "t_mapping(t_address,t_uint256)"
      },
      {
        "astId": 11635,
        "contract": "contracts/lending/SuCollateralRegistry.sol:SuCollateralRegistry",
        "label": "collateralList",
        "offset": 0,
        "slot": "2",
        "type": "t_array(t_address)dyn_storage"
      }
    ],
    "types": {
      "t_address": {
        "encoding": "inplace",
        "label": "address",
        "numberOfBytes": "20"
      },
      "t_array(t_address)dyn_storage": {
        "base": "t_address",
        "encoding": "dynamic_array",
        "label": "address[]",
        "numberOfBytes": "32"
      },
      "t_bool": {
        "encoding": "inplace",
        "label": "bool",
        "numberOfBytes": "1"
      },
      "t_contract(ISuAccessControl)10043": {
        "encoding": "inplace",
        "label": "contract ISuAccessControl",
        "numberOfBytes": "20"
      },
      "t_mapping(t_address,t_uint256)": {
        "encoding": "mapping",
        "key": "t_address",
        "label": "mapping(address => uint256)",
        "numberOfBytes": "32",
        "value": "t_uint256"
      },
      "t_uint256": {
        "encoding": "inplace",
        "label": "uint256",
        "numberOfBytes": "32"
      },
      "t_uint8": {
        "encoding": "inplace",
        "label": "uint8",
        "numberOfBytes": "1"
      }
    }
  }
}