{
  "address": "0xE65b4962ad155238B44e0E88D3174a707A313326",
  "abi": [
    {
      "anonymous": false,
      "inputs": [
        {
          "indexed": true,
          "internalType": "address",
          "name": "asset",
          "type": "address"
        }
      ],
      "name": "CollateralAdded",
      "type": "event"
    },
    {
      "anonymous": false,
      "inputs": [
        {
          "indexed": true,
          "internalType": "address",
          "name": "asset",
          "type": "address"
        }
      ],
      "name": "CollateralRemoved",
      "type": "event"
    },
    {
      "inputs": [],
      "name": "ACCESS_CONTROL_SINGLETON",
      "outputs": [
        {
          "internalType": "contract ISuAccessControl",
          "name": "",
          "type": "address"
        }
      ],
      "stateMutability": "view",
      "type": "function"
    },
    {
      "inputs": [],
      "name": "LIQUIDATION_ACCESS_ROLE",
      "outputs": [
        {
          "internalType": "bytes32",
          "name": "",
          "type": "bytes32"
        }
      ],
      "stateMutability": "view",
      "type": "function"
    },
    {
      "inputs": [],
      "name": "MINTER_ROLE",
      "outputs": [
        {
          "internalType": "bytes32",
          "name": "",
          "type": "bytes32"
        }
      ],
      "stateMutability": "view",
      "type": "function"
    },
    {
      "inputs": [],
      "name": "VAULT_ACCESS_ROLE",
      "outputs": [
        {
          "internalType": "bytes32",
          "name": "",
          "type": "bytes32"
        }
      ],
      "stateMutability": "view",
      "type": "function"
    },
    {
      "inputs": [
        {
          "internalType": "address",
          "name": "asset",
          "type": "address"
        }
      ],
      "name": "addCollateral",
      "outputs": [],
      "stateMutability": "nonpayable",
      "type": "function"
    },
    {
      "inputs": [
        {
          "internalType": "address",
          "name": "",
          "type": "address"
        }
      ],
      "name": "collateralId",
      "outputs": [
        {
          "internalType": "uint256",
          "name": "",
          "type": "uint256"
        }
      ],
      "stateMutability": "view",
      "type": "function"
    },
    {
      "inputs": [
        {
          "internalType": "uint256",
          "name": "",
          "type": "uint256"
        }
      ],
      "name": "collateralList",
      "outputs": [
        {
          "internalType": "address",
          "name": "",
          "type": "address"
        }
      ],
      "stateMutability": "view",
      "type": "function"
    },
    {
      "inputs": [],
      "name": "collaterals",
      "outputs": [
        {
          "internalType": "address[]",
          "name": "",
          "type": "address[]"
        }
      ],
      "stateMutability": "view",
      "type": "function"
    },
    {
      "inputs": [],
      "name": "collateralsCount",
      "outputs": [
        {
          "internalType": "uint256",
          "name": "",
          "type": "uint256"
        }
      ],
      "stateMutability": "view",
      "type": "function"
    },
    {
      "inputs": [
        {
          "internalType": "address",
          "name": "_authControl",
          "type": "address"
        },
        {
          "internalType": "address[]",
          "name": "assets",
          "type": "address[]"
        }
      ],
      "name": "initialize",
      "outputs": [],
      "stateMutability": "nonpayable",
      "type": "function"
    },
    {
      "inputs": [
        {
          "internalType": "address",
          "name": "asset",
          "type": "address"
        }
      ],
      "name": "isCollateral",
      "outputs": [
        {
          "internalType": "bool",
          "name": "",
          "type": "bool"
        }
      ],
      "stateMutability": "view",
      "type": "function"
    },
    {
      "inputs": [
        {
          "internalType": "address",
          "name": "asset",
          "type": "address"
        }
      ],
      "name": "removeCollateral",
      "outputs": [],
      "stateMutability": "nonpayable",
      "type": "function"
    }
  ],
  "numDeployments": 1,
  "solcInputHash": "1ee30c392eeeb5c03c3751ea96247c34",
  "bytecode": "0x608060405234801561001057600080fd5b50610dbb806100206000396000f3fe608060405234801561001057600080fd5b50600436106100d45760003560e01c80634f73045511610081578063d53913931161005b578063d5391393146101df578063dc97e84e14610206578063f0d2d5a81461022d57600080fd5b80634f73045514610197578063946d9204146101b7578063c99d3a06146101cc57600080fd5b80631bcff06c116100b25780631bcff06c146101675780633024a9121461016f5780634113e5ca1461018257600080fd5b806303ee9f22146100d95780630ee21e541461010f57806314c376dc14610132575b600080fd5b6000546100f2906201000090046001600160a01b031681565b6040516001600160a01b0390911681526020015b60405180910390f35b61012261011d366004610ba7565b610240565b6040519015158152602001610106565b6101597fe965846df3dd5b1dfa65f58e31477079e90140e0908b6dd31b5aead5a57cf36581565b604051908152602001610106565b600254610159565b6100f261017d366004610cc2565b6102bc565b61018a6102e6565b6040516101069190610cda565b6101596101a5366004610ba7565b60016020526000908152604090205481565b6101ca6101c5366004610bc8565b610348565b005b6101ca6101da366004610ba7565b6105d4565b6101597f9f2df0fed2c77648de5860a4cc508cd0818c85b8b8a1ab4ceeef8d981c8956a681565b6101597f9a9aef7c1247d5fc769b0185c052913e39673da29a880317dfd20ebf86f26a4981565b6101ca61023b366004610ba7565b6108ba565b60025460009061025257506000919050565b6001600160a01b0382166000908152600160205260409020541515806102b65750816001600160a01b0316600260008154811061029f57634e487b7160e01b600052603260045260246000fd5b6000918252602090912001546001600160a01b0316145b92915050565b600281815481106102cc57600080fd5b6000918252602090912001546001600160a01b0316905081565b6060600280548060200260200160405190810160405280929190818152602001828054801561033e57602002820191906000526020600020905b81546001600160a01b03168152600190910190602001808311610320575b5050505050905090565b600054610100900460ff166103635760005460ff1615610367565b303b155b6103de5760405162461bcd60e51b815260206004820152602e60248201527f496e697469616c697a61626c653a20636f6e747261637420697320616c72656160448201527f647920696e697469616c697a656400000000000000000000000000000000000060648201526084015b60405180910390fd5b600054610100900460ff16158015610400576000805461ffff19166101011790555b61040983610ace565b60005b82518110156105bc5761044583828151811061043857634e487b7160e01b600052603260045260246000fd5b6020026020010151610240565b156104925760405162461bcd60e51b815260206004820152601a60248201527f53552050726f746f636f6c3a20414c52454144595f455849535400000000000060448201526064016103d5565b60028382815181106104b457634e487b7160e01b600052603260045260246000fd5b602090810291909101810151825460018082018555600094855292842001805473ffffffffffffffffffffffffffffffffffffffff19166001600160a01b03909216919091179055845183929086908490811061052157634e487b7160e01b600052603260045260246000fd5b60200260200101516001600160a01b03166001600160a01b031681526020019081526020016000208190555082818151811061056d57634e487b7160e01b600052603260045260246000fd5b60200260200101516001600160a01b03167f7db05e63d635a68c62fd7fd8f3107ae8ab584a383e102d1bd8a40f4c977e465f60405160405180910390a2806105b481610d3e565b91505061040c565b5080156105cf576000805461ff00191690555b505050565b60008054604051632474521560e21b815260048101929092523360248301526201000090046001600160a01b0316906391d148549060440160206040518083038186803b15801561062457600080fd5b505afa158015610638573d6000803e3d6000fd5b505050506040513d601f19601f8201168201806040525081019061065c9190610ca2565b6106a85760405162461bcd60e51b815260206004820152601d60248201527f5375417574683a206f6e6c794f776e657220415554485f4641494c454400000060448201526064016103d5565b6001600160a01b0381166106fe5760405162461bcd60e51b815260206004820152601960248201527f53552050726f746f636f6c3a205a45524f5f414444524553530000000000000060448201526064016103d5565b61070781610240565b6107535760405162461bcd60e51b815260206004820152601b60248201527f53552050726f746f636f6c3a20444f45535f4e4f545f4558495354000000000060448201526064016103d5565b6001600160a01b0381166000908152600160208190526040822080549083905560025490929161078291610d27565b9050808214610833576000600282815481106107ae57634e487b7160e01b600052603260045260246000fd5b600091825260209091200154600280546001600160a01b0390921692508291859081106107eb57634e487b7160e01b600052603260045260246000fd5b6000918252602080832091909101805473ffffffffffffffffffffffffffffffffffffffff19166001600160a01b039485161790559290911681526001909152604090208290555b600280548061085257634e487b7160e01b600052603160045260246000fd5b6000828152602081208201600019908101805473ffffffffffffffffffffffffffffffffffffffff191690559091019091556040516001600160a01b038516917fd89d2ee68ab04dca0193f48a4aff55e20fa5ec0429a8a8c1c51b8dad6178a59391a2505050565b60008054604051632474521560e21b815260048101929092523360248301526201000090046001600160a01b0316906391d148549060440160206040518083038186803b15801561090a57600080fd5b505afa15801561091e573d6000803e3d6000fd5b505050506040513d601f19601f820116820180604052508101906109429190610ca2565b61098e5760405162461bcd60e51b815260206004820152601d60248201527f5375417574683a206f6e6c794f776e657220415554485f4641494c454400000060448201526064016103d5565b6001600160a01b0381166109e45760405162461bcd60e51b815260206004820152601960248201527f53552050726f746f636f6c3a205a45524f5f414444524553530000000000000060448201526064016103d5565b6109ed81610240565b15610a3a5760405162461bcd60e51b815260206004820152601a60248201527f53552050726f746f636f6c3a20414c52454144595f455849535400000000000060448201526064016103d5565b600280546001600160a01b038316600081815260016020819052604080832085905590840185559381527f405787fa12a823e0f2b7631cc41b3ba8828b3321ca811111fa75cd3aa3bb5ace909201805473ffffffffffffffffffffffffffffffffffffffff19168217905591517f7db05e63d635a68c62fd7fd8f3107ae8ab584a383e102d1bd8a40f4c977e465f9190a250565b600054610100900460ff16610b4b5760405162461bcd60e51b815260206004820152602b60248201527f496e697469616c697a61626c653a20636f6e7472616374206973206e6f74206960448201527f6e697469616c697a696e6700000000000000000000000000000000000000000060648201526084016103d5565b600080546001600160a01b0390921662010000027fffffffffffffffffffff0000000000000000000000000000000000000000ffff909216919091179055565b80356001600160a01b0381168114610ba257600080fd5b919050565b600060208284031215610bb8578081fd5b610bc182610b8b565b9392505050565b60008060408385031215610bda578081fd5b610be383610b8b565b915060208084013567ffffffffffffffff80821115610c00578384fd5b818601915086601f830112610c13578384fd5b813581811115610c2557610c25610d6f565b8060051b604051601f19603f83011681018181108582111715610c4a57610c4a610d6f565b604052828152858101935084860182860187018b1015610c68578788fd5b8795505b83861015610c9157610c7d81610b8b565b855260019590950194938601938601610c6c565b508096505050505050509250929050565b600060208284031215610cb3578081fd5b81518015158114610bc1578182fd5b600060208284031215610cd3578081fd5b5035919050565b6020808252825182820181905260009190848201906040850190845b81811015610d1b5783516001600160a01b031683529284019291840191600101610cf6565b50909695505050505050565b600082821015610d3957610d39610d59565b500390565b6000600019821415610d5257610d52610d59565b5060010190565b634e487b7160e01b600052601160045260246000fd5b634e487b7160e01b600052604160045260246000fdfea26469706673582212206a8a3a7436e21700bd303a188e251a4a8c3aaf513adf6c82f51816e1bf471ca964736f6c63430008040033",
  "devdoc": {
    "kind": "dev",
    "methods": {},
    "version": 1
  },
  "userdoc": {
    "kind": "user",
    "methods": {},
    "version": 1
  },
  "storageLayout": {
    "storage": [
      {
        "astId": 454,
        "contract": "contracts/lending/SuCollateralRegistry.sol:SuCollateralRegistry",
        "label": "_initialized",
        "offset": 0,
        "slot": "0",
        "type": "t_bool"
      },
      {
        "astId": 457,
        "contract": "contracts/lending/SuCollateralRegistry.sol:SuCollateralRegistry",
        "label": "_initializing",
        "offset": 1,
        "slot": "0",
        "type": "t_bool"
      },
      {
        "astId": 4355,
        "contract": "contracts/lending/SuCollateralRegistry.sol:SuCollateralRegistry",
        "label": "ACCESS_CONTROL_SINGLETON",
        "offset": 2,
        "slot": "0",
        "type": "t_contract(ISuAccessControl)7493"
      },
      {
        "astId": 8784,
        "contract": "contracts/lending/SuCollateralRegistry.sol:SuCollateralRegistry",
        "label": "collateralId",
        "offset": 0,
        "slot": "1",
        "type": "t_mapping(t_address,t_uint256)"
      },
      {
        "astId": 8787,
        "contract": "contracts/lending/SuCollateralRegistry.sol:SuCollateralRegistry",
        "label": "collateralList",
        "offset": 0,
        "slot": "2",
        "type": "t_array(t_address)dyn_storage"
      }
    ],
    "types": {
      "t_address": {
        "encoding": "inplace",
        "label": "address",
        "numberOfBytes": "20"
      },
      "t_array(t_address)dyn_storage": {
        "base": "t_address",
        "encoding": "dynamic_array",
        "label": "address[]",
        "numberOfBytes": "32"
      },
      "t_bool": {
        "encoding": "inplace",
        "label": "bool",
        "numberOfBytes": "1"
      },
      "t_contract(ISuAccessControl)7493": {
        "encoding": "inplace",
        "label": "contract ISuAccessControl",
        "numberOfBytes": "20"
      },
      "t_mapping(t_address,t_uint256)": {
        "encoding": "mapping",
        "key": "t_address",
        "label": "mapping(address => uint256)",
        "numberOfBytes": "32",
        "value": "t_uint256"
      },
      "t_uint256": {
        "encoding": "inplace",
        "label": "uint256",
        "numberOfBytes": "32"
      }
    }
  }
}