{
  "address": "0x19527CB5d2bA2c3A9dE09070EAcd5c061C165A78",
  "abi": [
    {
      "inputs": [],
      "name": "BadAccessControlSingleton",
      "type": "error"
    },
    {
      "inputs": [
        {
          "internalType": "address",
          "name": "badStablecoin",
          "type": "address"
        }
      ],
      "name": "BadStablecoin",
      "type": "error"
    },
    {
      "inputs": [],
      "name": "NoProfit",
      "type": "error"
    },
    {
      "inputs": [],
      "name": "NoStablePro",
      "type": "error"
    },
    {
      "inputs": [],
      "name": "OnlyAdminError",
      "type": "error"
    },
    {
      "inputs": [],
      "name": "OnlyDAOError",
      "type": "error"
    },
    {
      "inputs": [],
      "name": "OnlyLiquidationAccessError",
      "type": "error"
    },
    {
      "inputs": [],
      "name": "OnlyMintAccessError",
      "type": "error"
    },
    {
      "inputs": [],
      "name": "OnlyPauserError",
      "type": "error"
    },
    {
      "inputs": [],
      "name": "OnlyRewardAccessError",
      "type": "error"
    },
    {
      "inputs": [],
      "name": "OnlyVaultAccessError",
      "type": "error"
    },
    {
      "anonymous": false,
      "inputs": [
        {
          "indexed": false,
          "internalType": "uint256",
          "name": "debt",
          "type": "uint256"
        }
      ],
      "name": "CollateralBorrowed",
      "type": "event"
    },
    {
      "anonymous": false,
      "inputs": [
        {
          "indexed": false,
          "internalType": "uint8",
          "name": "version",
          "type": "uint8"
        }
      ],
      "name": "Initialized",
      "type": "event"
    },
    {
      "anonymous": false,
      "inputs": [
        {
          "indexed": false,
          "internalType": "uint256",
          "name": "amount",
          "type": "uint256"
        }
      ],
      "name": "StableProSwapped",
      "type": "event"
    },
    {
      "inputs": [],
      "name": "ACCESS_CONTROL_SINGLETON",
      "outputs": [
        {
          "internalType": "contract ISuAccessControl",
          "name": "",
          "type": "address"
        }
      ],
      "stateMutability": "view",
      "type": "function"
    },
    {
      "inputs": [],
      "name": "ADMIN_ROLE",
      "outputs": [
        {
          "internalType": "bytes32",
          "name": "",
          "type": "bytes32"
        }
      ],
      "stateMutability": "view",
      "type": "function"
    },
    {
      "inputs": [],
      "name": "DAO_ROLE",
      "outputs": [
        {
          "internalType": "bytes32",
          "name": "",
          "type": "bytes32"
        }
      ],
      "stateMutability": "view",
      "type": "function"
    },
    {
      "inputs": [],
      "name": "LIQUIDATION_ACCESS_ROLE",
      "outputs": [
        {
          "internalType": "bytes32",
          "name": "",
          "type": "bytes32"
        }
      ],
      "stateMutability": "view",
      "type": "function"
    },
    {
      "inputs": [],
      "name": "MINT_ACCESS_ROLE",
      "outputs": [
        {
          "internalType": "bytes32",
          "name": "",
          "type": "bytes32"
        }
      ],
      "stateMutability": "view",
      "type": "function"
    },
    {
      "inputs": [],
      "name": "PAUSER_ROLE",
      "outputs": [
        {
          "internalType": "bytes32",
          "name": "",
          "type": "bytes32"
        }
      ],
      "stateMutability": "view",
      "type": "function"
    },
    {
      "inputs": [],
      "name": "REWARD_ACCESS_ROLE",
      "outputs": [
        {
          "internalType": "bytes32",
          "name": "",
          "type": "bytes32"
        }
      ],
      "stateMutability": "view",
      "type": "function"
    },
    {
      "inputs": [],
      "name": "VAULT_ACCESS_ROLE",
      "outputs": [
        {
          "internalType": "bytes32",
          "name": "",
          "type": "bytes32"
        }
      ],
      "stateMutability": "view",
      "type": "function"
    },
    {
      "inputs": [
        {
          "internalType": "address",
          "name": "_stablecoin",
          "type": "address"
        }
      ],
      "name": "addWhitelistStablecoin",
      "outputs": [],
      "stateMutability": "nonpayable",
      "type": "function"
    },
    {
      "inputs": [
        {
          "internalType": "address",
          "name": "collateral",
          "type": "address"
        },
        {
          "internalType": "uint256",
          "name": "amount",
          "type": "uint256"
        },
        {
          "internalType": "uint256",
          "name": "debt",
          "type": "uint256"
        }
      ],
      "name": "borrowCollateralToSell",
      "outputs": [],
      "stateMutability": "nonpayable",
      "type": "function"
    },
    {
      "inputs": [],
      "name": "foundation",
      "outputs": [
        {
          "internalType": "address",
          "name": "",
          "type": "address"
        }
      ],
      "stateMutability": "view",
      "type": "function"
    },
    {
      "inputs": [
        {
          "internalType": "address",
          "name": "_stablecoin",
          "type": "address"
        }
      ],
      "name": "hasWhitelistStablecoin",
      "outputs": [
        {
          "internalType": "bool",
          "name": "",
          "type": "bool"
        }
      ],
      "stateMutability": "view",
      "type": "function"
    },
    {
      "inputs": [
        {
          "internalType": "address",
          "name": "_authControl",
          "type": "address"
        },
        {
          "internalType": "address",
          "name": "_suExchangeModule",
          "type": "address"
        },
        {
          "internalType": "address",
          "name": "_suOracle",
          "type": "address"
        },
        {
          "internalType": "address",
          "name": "_stablePro",
          "type": "address"
        },
        {
          "internalType": "address",
          "name": "_foundation",
          "type": "address"
        }
      ],
      "name": "initialize",
      "outputs": [],
      "stateMutability": "nonpayable",
      "type": "function"
    },
    {
      "inputs": [],
      "name": "middlewareDebt",
      "outputs": [
        {
          "internalType": "int256",
          "name": "",
          "type": "int256"
        }
      ],
      "stateMutability": "view",
      "type": "function"
    },
    {
      "inputs": [
        {
          "internalType": "address",
          "name": "_stablecoin",
          "type": "address"
        }
      ],
      "name": "removeWhitelistStablecoin",
      "outputs": [],
      "stateMutability": "nonpayable",
      "type": "function"
    },
    {
      "inputs": [],
      "name": "sendProfitToFoundation",
      "outputs": [],
      "stateMutability": "nonpayable",
      "type": "function"
    },
    {
      "inputs": [],
      "name": "sendStableProToDAO",
      "outputs": [],
      "stateMutability": "nonpayable",
      "type": "function"
    },
    {
      "inputs": [],
      "name": "stablePro",
      "outputs": [
        {
          "internalType": "address",
          "name": "",
          "type": "address"
        }
      ],
      "stateMutability": "view",
      "type": "function"
    },
    {
      "inputs": [
        {
          "internalType": "bytes4",
          "name": "interfaceId",
          "type": "bytes4"
        }
      ],
      "name": "supportsInterface",
      "outputs": [
        {
          "internalType": "bool",
          "name": "",
          "type": "bool"
        }
      ],
      "stateMutability": "view",
      "type": "function"
    },
    {
      "inputs": [
        {
          "internalType": "address",
          "name": "stablecoinToken",
          "type": "address"
        },
        {
          "internalType": "uint256",
          "name": "stableProAmountE18",
          "type": "uint256"
        }
      ],
      "name": "swapStableProToStablecoin",
      "outputs": [],
      "stateMutability": "nonpayable",
      "type": "function"
    }
  ],
  "numDeployments": 1,
  "solcInputHash": "dd557791782b2a744fb91d3e74be9d42",
  "bytecode": "0x608080604052346100165761139f908161001c8239f35b600080fdfe60806040908082526004918236101561001757600080fd5b600091823560e01c90816301ffc9a714610dbc5750806303ee9f2214610d915780631459457a14610b0257806314c376dc14610ac857806324f204ce146109d757806341fbb050146109af578063438280dd14610975578063550a1e001461078457806375b238fc1461076a5780637ae8b2e1146106d15780637d2f775a146105aa5780638e5313e014610570578063c1c5017614610552578063d09a79dd1461049c578063d46e50d014610470578063dc97e84e14610448578063de51eefd14610403578063e63ab1e9146103c9578063e9c26518146103a15763fb3131871461010157600080fd5b3461039d57606036600319011261039d5761011a610e52565b926024918235926044359260018060a01b039485875460101c169584518097632474521560e21b825260008051602061134a83398151915285830152338683015281604460209a8b935afa908115610393578991610376575b50156103665760065415610354576006885280878920541698600554878101908a89831291129080158216911516176103425790829160055516906101d1888483600254168951938492839263095ea7b360e01b84528a8401610ebe565b03818d875af180156103385760c4928b959492869261030b575b506002541688519c8d958694637a9826a760e01b865289860152898501526044840152306064840152600160848401528160a48401525af180156103015761025c575b50507f44774e2297d3db5bced0cfd5129ff61632a7d013f5aa953ccbc8a829d56aee0993945051908152a180f35b3d8087893e61026b8189610e6d565b87019185888403126102fd5787516001600160401b03988982116102f957019183601f840112156102f55782519889116102e457505084808860051b988551906102b7838c0183610e6d565b815201978201019182116102e0578401955b8187101561022e57865181529584019584016102c9565b8580fd5b634e487b7160e01b88526041905286fd5b8780fd5b8880fd5b8680fd5b83513d88823e3d90fd5b61032a908c8d3d10610331575b6103228183610e6d565b810190610ea6565b50386101eb565b503d610318565b87513d8c823e3d90fd5b634e487b7160e01b8a5260118552858afd5b634e487b7160e01b8852603283528388fd5b845163200ab6d960e01b81528390fd5b61038d9150883d8a11610331576103228183610e6d565b38610173565b86513d8b823e3d90fd5b5080fd5b503461039d578160031936011261039d576020905160008051602061132a8339815191528152f35b503461039d578160031936011261039d57602090517f65d7a28e3265b37a6474929f336521b332c1681b933f6cb9f3376673440d862a8152f35b503461039d57602036600319011261039d5760209061043f6001600160a01b0361042b610e52565b166000526007602052604060002054151590565b90519015158152f35b503461039d578160031936011261039d576020905160008051602061134a8339815191528152f35b5082346104985782600319360112610498575490516001600160a01b03909116815260209150f35b8280fd5b503461039d57602036600319011261039d576104b6610e52565b82548251632474521560e21b815260008051602061132a833981519152868201523360248201526001600160a01b0393916020908290604490829060101c88165afa90811561054857859161052a575b501561051b575061051791166111c0565b5080f35b5163599a6c3360e11b81528490fd5b610542915060203d8111610331576103228183610e6d565b38610506565b82513d87823e3d90fd5b503461039d578160031936011261039d576020906005549051908152f35b503461039d578160031936011261039d57602090517fe453bacb314e78dcd5192e6b1a2b1f0e7c76e92f6b7e429a6a90f04e39db3b768152f35b503461039d578160031936011261039d5781548151632474521560e21b815260008051602061132a83398151915285820152336024820152602092916001600160a01b03919084908290604490829060101c86165afa9081156106c75785916106aa575b501561069a578454169080516370a0823160e01b815230868201528381602481865afa938415610548578594610666575b50508215610657575090610654913390611114565b80f35b51632d7de5ad60e11b81528490fd5b9080929450813d8311610693575b61067e8183610e6d565b8101031261068f575191388061063f565b8380fd5b503d610674565b815163599a6c3360e11b81528590fd5b6106c19150843d8611610331576103228183610e6d565b3861060e565b83513d87823e3d90fd5b503461039d57602036600319011261039d576106eb610e52565b82548251632474521560e21b815260008051602061132a833981519152868201523360248201526001600160a01b0393916020908290604490829060101c88165afa90811561054857859161074c575b501561051b5750610517911661123f565b610764915060203d8111610331576103228183610e6d565b3861073b565b503461039d578160031936011261039d5751908152602090f35b50913461039d578260031936011261039d5761079e610e52565b9060249384359160018060a01b038094166107c6816000526007602052604060002054151590565b1561096257670de0b6b3a764000090818502918583041485151715610950578560015416918451968793631735856760e31b85528386860152848b60209a8b935afa938415610393578994610921575b50831561090f57845486516323b872dd60e01b8a820152338c82015230604482015260648082018a90528152911660a082016001600160401b038111838210176108fd5761089c926108a196959492610870928a52610f0a565b61088e875194859263a9059cbb60e01b8c85015204338d8401610ebe565b03601f198101845283610e6d565b610f0a565b600554838103919086851280158285131691841216176108eb57507f062234b32cab33fa5bcd957e318141fefab38cc79f25ec5b972be8392e98cb6c94955060055551908152a180f35b634e487b7160e01b8652601190528585fd5b634e487b7160e01b8b52604187528b8bfd5b634e487b7160e01b8952601285528989fd5b9093508781813d8311610949575b6109398183610e6d565b810103126102f957519238610816565b503d61092f565b634e487b7160e01b8752601183528787fd5b86925191633935d9fb60e21b8352820152fd5b503461039d578160031936011261039d57602090517f39f61ca2a1a28fee144218173ec637b649a353e4026b2738c673800e5bf1437b8152f35b503461039d578160031936011261039d5760035490516001600160a01b039091168152602090f35b503461039d578160031936011261039d5781548151632474521560e21b815260008051602061132a833981519152858201523360248201526001600160a01b0392916020908290604490829060101c87165afa908115610abe578491610aa0575b5015610a91576005549083821215610a8257508354600354908316921690600160ff1b8114610a6f57836106549495500391611114565b634e487b7160e01b845260118552602484fd5b516371cd57f760e11b81528490fd5b5163599a6c3360e11b81528390fd5b610ab8915060203d8111610331576103228183610e6d565b38610a38565b82513d86823e3d90fd5b503461039d578160031936011261039d57602090517fe965846df3dd5b1dfa65f58e31477079e90140e0908b6dd31b5aead5a57cf3658152f35b5082346104985760a036600319011261049857610b1d610e52565b916001600160a01b039160243583811691908290036102e0576044358481168091036102fd57606435918583168093036102f557608435928684168094036102f95788549460ff8660081c161595868097610d84575b8015610d6d575b15610d135760ff1981166001178b5586610d02575b5089549760ff8960081c1615610cab5762010000600160b01b0360108b901b1662010000600160b01b03198a1681178c5588516301ffc9a760e01b8152637965db0b60e01b86820152909a909160209183916024918391165afa908115610ca1578b91610c83575b5015610c735760018060a01b031993846001541617600155836002541617600255828254161790556003541617600355610c2f578380f35b610100600160b01b0319909116909117825551600181527f7f26b83ff96e1f2b6a682f133852f6798a09c465da95921460cefb384740249890602090a18180808380f35b86516384d942fd60e01b81528390fd5b610c9b915060203d8111610331576103228183610e6d565b8b610bf7565b88513d8d823e3d90fd5b875162461bcd60e51b8152602081860152602b60248201527f496e697469616c697a61626c653a20636f6e7472616374206973206e6f74206960448201526a6e697469616c697a696e6760a81b6064820152608490fd5b61ffff1916610101178a558a610b8f565b875162461bcd60e51b8152602081860152602e60248201527f496e697469616c697a61626c653a20636f6e747261637420697320616c72656160448201526d191e481a5b9a5d1a585b1a5e995960921b6064820152608490fd5b50303b158015610b7a5750600160ff821614610b7a565b50600160ff821610610b73565b503461039d578160031936011261039d579054905160109190911c6001600160a01b03168152602090f35b929390503461068f57602036600319011261068f57803563ffffffff60e01b8116809103610e4e5784546301ffc9a760e01b8552918401526020908390602490829060101c6001600160a01b03165afa918215610e445760209392610e25575b50519015158152f35b610e3d919250833d8111610331576103228183610e6d565b9038610e1c565b81513d85823e3d90fd5b8480fd5b600435906001600160a01b0382168203610e6857565b600080fd5b601f909101601f19168101906001600160401b03821190821017610e9057604052565b634e487b7160e01b600052604160045260246000fd5b90816020910312610e6857518015158103610e685790565b6001600160a01b039091168152602081019190915260400190565b600654811015610ef457600660005260206000200190600090565b634e487b7160e01b600052603260045260246000fd5b60408051908101916001600160a01b03166001600160401b03831182841017610e9057610f79926040526000806020958685527f5361666545524332303a206c6f772d6c6576656c2063616c6c206661696c656487860152868151910182855af1610f73611001565b91611040565b805190828215928315610fe9575b50505015610f925750565b6084906040519062461bcd60e51b82526004820152602a60248201527f5361666545524332303a204552433230206f7065726174696f6e20646964206e6044820152691bdd081cdd58d8d9595960b21b6064820152fd5b610ff99350820181019101610ea6565b388281610f87565b3d1561103b573d906001600160401b038211610e90576040519161102f601f8201601f191660200184610e6d565b82523d6000602084013e565b606090565b919290156110a25750815115611054575090565b3b1561105d5790565b60405162461bcd60e51b815260206004820152601d60248201527f416464726573733a2063616c6c20746f206e6f6e2d636f6e74726163740000006044820152606490fd5b8251909150156110b55750805190602001fd5b6040519062461bcd60e51b82528160208060048301528251908160248401526000935b8285106110fb575050604492506000838284010152601f80199101168101030190fd5b84810182015186860160440152938101938593506110d8565b600092918361113f61114d8295604051928391602083019663a9059cbb60e01b885260248401610ebe565b03601f198101835282610e6d565b51925af1611159611001565b81611191575b501561116757565b60405162461bcd60e51b815260206004820152600260248201526114d560f21b6044820152606490fd5b80518015925082156111a6575b50503861115f565b6111b99250602080918301019101610ea6565b388061119e565b60008181526007602052604081205461123a57600654600160401b8110156112265790826112126111f984600160409601600655610ed9565b819391549060031b600019811b9283911b169119161790565b905560065492815260076020522055600190565b634e487b7160e01b82526041600452602482fd5b905090565b6000818152600760205260408120549091908015611324576000199080820181811161131057600654908382019182116112fc578082036112c8575b50505060065480156112b45781019061129382610ed9565b909182549160031b1b19169055600655815260076020526040812055600190565b634e487b7160e01b84526031600452602484fd5b6112e66112d76111f993610ed9565b90549060031b1c928392610ed9565b905584526007602052604084205538808061127b565b634e487b7160e01b86526011600452602486fd5b634e487b7160e01b85526011600452602485fd5b50509056fe3b5d4cc60d3ec3516ee8ae083bd60934f6eb2a6c54b1229985c41bfb092b26039a9aef7c1247d5fc769b0185c052913e39673da29a880317dfd20ebf86f26a49a2646970667358221220b8ef7820dcf42397238b265bb38b6f35ef16dc973bcf83fea5c97d2b9a67ac4164736f6c63430008110033",
  "devdoc": {
    "kind": "dev",
    "methods": {
      "supportsInterface(bytes4)": {
        "details": "Returns true if this contract implements the interface defined by `interfaceId`. See the corresponding https://eips.ethereum.org/EIPS/eip-165#how-interfaces-are-identified[EIP section] to learn more about how these ids are created. This function call must use less than 30 000 gas."
      }
    },
    "version": 1
  },
  "userdoc": {
    "kind": "user",
    "methods": {},
    "version": 1
  },
  "storageLayout": {
    "storage": [
      {
        "astId": 461,
        "contract": "contracts/liquidator/SuLiquidationMiddleware.sol:SuLiquidationMiddleware",
        "label": "_initialized",
        "offset": 0,
        "slot": "0",
        "type": "t_uint8"
      },
      {
        "astId": 464,
        "contract": "contracts/liquidator/SuLiquidationMiddleware.sol:SuLiquidationMiddleware",
        "label": "_initializing",
        "offset": 1,
        "slot": "0",
        "type": "t_bool"
      },
      {
        "astId": 9094,
        "contract": "contracts/liquidator/SuLiquidationMiddleware.sol:SuLiquidationMiddleware",
        "label": "ACCESS_CONTROL_SINGLETON",
        "offset": 2,
        "slot": "0",
        "type": "t_contract(ISuAccessControl)16250"
      },
      {
        "astId": 20136,
        "contract": "contracts/liquidator/SuLiquidationMiddleware.sol:SuLiquidationMiddleware",
        "label": "_oracle",
        "offset": 0,
        "slot": "1",
        "type": "t_contract(ISuOracle)16726"
      },
      {
        "astId": 20138,
        "contract": "contracts/liquidator/SuLiquidationMiddleware.sol:SuLiquidationMiddleware",
        "label": "_exchangeModule",
        "offset": 0,
        "slot": "2",
        "type": "t_address"
      },
      {
        "astId": 20140,
        "contract": "contracts/liquidator/SuLiquidationMiddleware.sol:SuLiquidationMiddleware",
        "label": "foundation",
        "offset": 0,
        "slot": "3",
        "type": "t_address"
      },
      {
        "astId": 20142,
        "contract": "contracts/liquidator/SuLiquidationMiddleware.sol:SuLiquidationMiddleware",
        "label": "stablePro",
        "offset": 0,
        "slot": "4",
        "type": "t_address"
      },
      {
        "astId": 20144,
        "contract": "contracts/liquidator/SuLiquidationMiddleware.sol:SuLiquidationMiddleware",
        "label": "middlewareDebt",
        "offset": 0,
        "slot": "5",
        "type": "t_int256"
      },
      {
        "astId": 20147,
        "contract": "contracts/liquidator/SuLiquidationMiddleware.sol:SuLiquidationMiddleware",
        "label": "_stablecoinWhitelist",
        "offset": 0,
        "slot": "6",
        "type": "t_struct(AddressSet)4717_storage"
      }
    ],
    "types": {
      "t_address": {
        "encoding": "inplace",
        "label": "address",
        "numberOfBytes": "20"
      },
      "t_array(t_bytes32)dyn_storage": {
        "base": "t_bytes32",
        "encoding": "dynamic_array",
        "label": "bytes32[]",
        "numberOfBytes": "32"
      },
      "t_bool": {
        "encoding": "inplace",
        "label": "bool",
        "numberOfBytes": "1"
      },
      "t_bytes32": {
        "encoding": "inplace",
        "label": "bytes32",
        "numberOfBytes": "32"
      },
      "t_contract(ISuAccessControl)16250": {
        "encoding": "inplace",
        "label": "contract ISuAccessControl",
        "numberOfBytes": "20"
      },
      "t_contract(ISuOracle)16726": {
        "encoding": "inplace",
        "label": "contract ISuOracle",
        "numberOfBytes": "20"
      },
      "t_int256": {
        "encoding": "inplace",
        "label": "int256",
        "numberOfBytes": "32"
      },
      "t_mapping(t_bytes32,t_uint256)": {
        "encoding": "mapping",
        "key": "t_bytes32",
        "label": "mapping(bytes32 => uint256)",
        "numberOfBytes": "32",
        "value": "t_uint256"
      },
      "t_struct(AddressSet)4717_storage": {
        "encoding": "inplace",
        "label": "struct EnumerableSetUpgradeable.AddressSet",
        "members": [
          {
            "astId": 4716,
            "contract": "contracts/liquidator/SuLiquidationMiddleware.sol:SuLiquidationMiddleware",
            "label": "_inner",
            "offset": 0,
            "slot": "0",
            "type": "t_struct(Set)4402_storage"
          }
        ],
        "numberOfBytes": "64"
      },
      "t_struct(Set)4402_storage": {
        "encoding": "inplace",
        "label": "struct EnumerableSetUpgradeable.Set",
        "members": [
          {
            "astId": 4397,
            "contract": "contracts/liquidator/SuLiquidationMiddleware.sol:SuLiquidationMiddleware",
            "label": "_values",
            "offset": 0,
            "slot": "0",
            "type": "t_array(t_bytes32)dyn_storage"
          },
          {
            "astId": 4401,
            "contract": "contracts/liquidator/SuLiquidationMiddleware.sol:SuLiquidationMiddleware",
            "label": "_indexes",
            "offset": 0,
            "slot": "1",
            "type": "t_mapping(t_bytes32,t_uint256)"
          }
        ],
        "numberOfBytes": "64"
      },
      "t_uint256": {
        "encoding": "inplace",
        "label": "uint256",
        "numberOfBytes": "32"
      },
      "t_uint8": {
        "encoding": "inplace",
        "label": "uint8",
        "numberOfBytes": "1"
      }
    }
  }
}