{
  "address": "0xDee4D09DC7a6B3132D2E139303370Bb71E68735c",
  "abi": [
    {
      "inputs": [],
      "name": "IncorrectDiscount",
      "type": "error"
    },
    {
      "inputs": [],
      "name": "LessThanMinimum",
      "type": "error"
    },
    {
      "inputs": [],
      "name": "NotEnoughAmount",
      "type": "error"
    },
    {
      "inputs": [],
      "name": "NotEnoughDeferredAmount",
      "type": "error"
    },
    {
      "inputs": [],
      "name": "TooMuchAmount",
      "type": "error"
    },
    {
      "inputs": [],
      "name": "ZeroAddress",
      "type": "error"
    },
    {
      "inputs": [],
      "name": "ACCESS_CONTROL_SINGLETON",
      "outputs": [
        {
          "internalType": "contract ISuAccessControl",
          "name": "",
          "type": "address"
        }
      ],
      "stateMutability": "view",
      "type": "function"
    },
    {
      "inputs": [],
      "name": "LIQUIDATION_ACCESS_ROLE",
      "outputs": [
        {
          "internalType": "bytes32",
          "name": "",
          "type": "bytes32"
        }
      ],
      "stateMutability": "view",
      "type": "function"
    },
    {
      "inputs": [],
      "name": "MINTER_ROLE",
      "outputs": [
        {
          "internalType": "bytes32",
          "name": "",
          "type": "bytes32"
        }
      ],
      "stateMutability": "view",
      "type": "function"
    },
    {
      "inputs": [],
      "name": "VAULT_ACCESS_ROLE",
      "outputs": [
        {
          "internalType": "bytes32",
          "name": "",
          "type": "bytes32"
        }
      ],
      "stateMutability": "view",
      "type": "function"
    },
    {
      "inputs": [
        {
          "internalType": "address",
          "name": "asset",
          "type": "address"
        },
        {
          "internalType": "enum DiscountType",
          "name": "discountType",
          "type": "uint8"
        },
        {
          "internalType": "uint256",
          "name": "liquidationBlock",
          "type": "uint256"
        }
      ],
      "name": "calculateDiscountE18",
      "outputs": [
        {
          "internalType": "uint256",
          "name": "",
          "type": "uint256"
        }
      ],
      "stateMutability": "view",
      "type": "function"
    },
    {
      "inputs": [
        {
          "internalType": "address",
          "name": "asset",
          "type": "address"
        },
        {
          "internalType": "address",
          "name": "owner",
          "type": "address"
        }
      ],
      "name": "calculateLiquidationDiscount",
      "outputs": [
        {
          "internalType": "uint256",
          "name": "",
          "type": "uint256"
        }
      ],
      "stateMutability": "view",
      "type": "function"
    },
    {
      "inputs": [
        {
          "internalType": "address",
          "name": "asset",
          "type": "address"
        },
        {
          "internalType": "enum DiscountType",
          "name": "discountType",
          "type": "uint8"
        }
      ],
      "name": "getDiscountInfo",
      "outputs": [
        {
          "components": [
            {
              "internalType": "uint256",
              "name": "firstBlockE18",
              "type": "uint256"
            },
            {
              "internalType": "uint256",
              "name": "stepPerBlockE18",
              "type": "uint256"
            }
          ],
          "internalType": "struct DiscountInfo",
          "name": "discountInfo",
          "type": "tuple"
        }
      ],
      "stateMutability": "view",
      "type": "function"
    },
    {
      "inputs": [
        {
          "internalType": "address",
          "name": "_authControl",
          "type": "address"
        }
      ],
      "name": "init",
      "outputs": [],
      "stateMutability": "nonpayable",
      "type": "function"
    },
    {
      "inputs": [
        {
          "internalType": "address",
          "name": "_authControl",
          "type": "address"
        },
        {
          "internalType": "address",
          "name": "_suManager",
          "type": "address"
        },
        {
          "internalType": "address",
          "name": "_suOracle",
          "type": "address"
        },
        {
          "internalType": "address",
          "name": "_suReward",
          "type": "address"
        }
      ],
      "name": "initialize",
      "outputs": [],
      "stateMutability": "nonpayable",
      "type": "function"
    },
    {
      "inputs": [
        {
          "internalType": "address",
          "name": "asset",
          "type": "address"
        },
        {
          "internalType": "enum DiscountType",
          "name": "discountType",
          "type": "uint8"
        },
        {
          "components": [
            {
              "internalType": "uint256",
              "name": "firstBlockE18",
              "type": "uint256"
            },
            {
              "internalType": "uint256",
              "name": "stepPerBlockE18",
              "type": "uint256"
            }
          ],
          "internalType": "struct DiscountInfo",
          "name": "discountInfo",
          "type": "tuple"
        }
      ],
      "name": "setDiscountInfo",
      "outputs": [],
      "stateMutability": "nonpayable",
      "type": "function"
    },
    {
      "inputs": [
        {
          "internalType": "address",
          "name": "asset",
          "type": "address"
        },
        {
          "internalType": "address",
          "name": "owner",
          "type": "address"
        },
        {
          "internalType": "address",
          "name": "stablecoinToken",
          "type": "address"
        },
        {
          "internalType": "uint256",
          "name": "stablecoinAmountEDecimal",
          "type": "uint256"
        },
        {
          "internalType": "uint256",
          "name": "minAssetAmountEDecimal",
          "type": "uint256"
        }
      ],
      "name": "swapStablecoinToAsset",
      "outputs": [],
      "stateMutability": "nonpayable",
      "type": "function"
    }
  ],
  "numDeployments": 4,
  "solcInputHash": "1f0f0ed9c26113a4bd687c717f4efe91",
  "bytecode": "0x608060405234801561001057600080fd5b50611654806100206000396000f3fe608060405234801561001057600080fd5b50600436106100995760003560e01c806303ee9f221461009e57806314c376dc146100cd57806319ab453c146101025780633599f022146101175780634d2cf8b71461014557806395bdf6bb14610158578063c3009f361461016b578063d53913931461017e578063dc97e84e146101a5578063f4e2ebeb146101cc578063f8c8765e146101df575b600080fd5b6000546100b7906201000090046001600160a01b031681565b6040516100c4919061114a565b60405180910390f35b6100f47fe965846df3dd5b1dfa65f58e31477079e90140e0908b6dd31b5aead5a57cf36581565b6040519081526020016100c4565b61011561011036600461117a565b6101f2565b005b61012a6101253660046111a4565b61027b565b604080518251815260209283015192810192909252016100c4565b6100f46101533660046111d7565b610301565b610115610166366004611201565b61038e565b6100f4610179366004611256565b61057d565b6100f47f9f2df0fed2c77648de5860a4cc508cd0818c85b8b8a1ab4ceeef8d981c8956a681565b6100f47f9a9aef7c1247d5fc769b0185c052913e39673da29a880317dfd20ebf86f26a4981565b6101156101da366004611292565b610663565b6101156101ed3660046112e1565b610795565b600054610100900460ff1661020d5760005460ff1615610215565b61021561088f565b61023a5760405162461bcd60e51b815260040161023190611335565b60405180910390fd5b600054610100900460ff1615801561025c576000805461ffff19166101011790555b610265826108a0565b8015610277576000805461ff00191690555b5050565b60408051808201909152600080825260208201526001600160a01b0383166000908152600160205260408120908360028111156102ba576102ba611383565b60028111156102cb576102cb611383565b81526020019081526020016000206040518060400160405290816000820154815260200160018201548152505090505b92915050565b6002546040516304c9a55560e41b815260009182916001600160a01b0390911690634c9a5550906103389087908790600401611399565b602060405180830381865afa158015610355573d6000803e3d6000fd5b505050506040513d601f19601f8201168201806040525081019061037991906113b3565b9050610386848483610935565b949350505050565b6003546040516306addfb360e31b81526000916001600160a01b03169063356efd98906103bf90879060040161114a565b602060405180830381865afa1580156103dc573d6000803e3d6000fd5b505050506040513d601f19601f8201168201806040525081019061040091906113b3565b90506000670de0b6b3a764000061041785846113e2565b61042191906113f9565b905060008060006104348a8a868961096f565b91945092509050600085610448838561141b565b61045a90670de0b6b3a76400006113e2565b61046491906113f9565b905061047289333084610afa565b6002546040516304c9a55560e41b81526000916001600160a01b031690634c9a5550906104a5908f908f90600401611399565b602060405180830381865afa1580156104c2573d6000803e3d6000fd5b505050506040513d601f19601f820116820180604052508101906104e691906113b3565b90506104f48a828686610b5a565b600254604051636f70e66f60e01b81526001600160a01b038e811660048301528d81166024830152336044830152606482018790526084820188905290911690636f70e66f9060a401600060405180830381600087803b15801561055757600080fd5b505af115801561056b573d6000803e3d6000fd5b50505050505050505050505050505050565b6001600160a01b03831660009081526001602052604081208190818560028111156105aa576105aa611383565b60028111156105bb576105bb611383565b81526020019081526020016000209050600083436105d9919061142e565b9050806000036105ee5760009250505061065c565b806001036105ff575054905061065c565b600085600281111561061357610613611383565b0361063e576106358166b1a2bc2ec50000846001015485600101546002610bb9565b9250505061065c565b61063581670de0b6b3a7640000846000015485600101546001610bb9565b9392505050565b60008054604051632474521560e21b815260048101929092523360248301526201000090046001600160a01b0316906391d1485490604401602060405180830381865afa1580156106b8573d6000803e3d6000fd5b505050506040513d601f19601f820116820180604052508101906106dc9190611441565b6107285760405162461bcd60e51b815260206004820152601d60248201527f5375417574683a206f6e6c794f776e657220415554485f4641494c45440000006044820152606401610231565b6107328282610bf7565b6001600160a01b0383166000908152600160205260408120829184600281111561075e5761075e611383565b600281111561076f5761076f611383565b8152602080820192909252604001600020823581559082013560018201555b5050505050565b600054610100900460ff166107b05760005460ff16156107b8565b6107b861088f565b6107d45760405162461bcd60e51b815260040161023190611335565b600054610100900460ff161580156107f6576000805461ffff19166101011790555b6107ff856101f2565b6001600160a01b038416158061081c57506001600160a01b038316155b1561083a5760405163d92e233d60e01b815260040160405180910390fd5b600280546001600160a01b038087166001600160a01b031992831617909255600380548684169083161790556004805492851692909116919091179055801561078e576000805461ff00191690555050505050565b600061089a30610c61565b15905090565b600054610100900460ff1661090b5760405162461bcd60e51b815260206004820152602b60248201527f496e697469616c697a61626c653a20636f6e7472616374206973206e6f74206960448201526a6e697469616c697a696e6760a81b6064820152608401610231565b600080546001600160a01b03909216620100000262010000600160b01b0319909216919091179055565b60045460009081906001600160a01b03858116911614610956576000610959565b60015b905061096685828561057d565b95945050505050565b60025460405163af368fbd60e01b8152600091829182918291829182916001600160a01b039091169063af368fbd906109ae908d908d90600401611399565b606060405180830381865afa1580156109cb573d6000803e3d6000fd5b505050506040513d601f19601f820116820180604052508101906109ef9190611463565b925092509250610a196040518060600160405280602c81526020016115c0602c9139848484610c70565b6000610a268b8b86610935565b6003546040516306addfb360e31b81529192506000916001600160a01b039091169063356efd9890610a5c908f9060040161114a565b602060405180830381865afa158015610a79573d6000803e3d6000fd5b505050506040513d601f19601f82011682018060405250810190610a9d91906113b3565b9050600080610aae838d8887610cb9565b915091508a821015610ad35760405163e4e014cd60e01b815260040160405180910390fd5b600080610ae08784610e28565b949c509a5092985050505050505050509450945094915050565b604080516001600160a01b0385811660248301528416604482015260648082018490528251808303909101815260849091019091526020810180516001600160e01b03166323b872dd60e01b179052610b54908590610e52565b50505050565b6001600160a01b038416600090815260056020526040812060018101805491928592610b8790849061141b565b9250508190555081816002016000828254610ba2919061141b565b9091555050805460000361078e5792909255505050565b60008083610bc7848961142e565b610bd191906113e2565b610bdb908661141b565b9050858111610bea5780610bec565b855b979650505050505050565b600080836002811115610c0c57610c0c611383565b03610c1f575066b1a2bc2ec50000610c2a565b50670de0b6b3a76400005b813581111580610c3e575080826020013510155b15610c5c5760405163211e2bb760e21b815260040160405180910390fd5b505050565b6001600160a01b03163b151590565b610b5484848484604051602401610c8a94939291906114e1565b60408051601f198184030181529190526020810180516001600160e01b031663a7a8785360e01b179052610f24565b60008080670de0b6b3a7640000610cd086896113e2565b610cda91906113f9565b9050610d006040518060600160405280603381526020016115ec60339139868984610c70565b610d23604051806060016040528060398152602001611587603991398786610f45565b6000610d30828887610f8c565b6040805180820190915260208082527f43414c435f424f4e555320737461626c65636f696e2072656d61696e6465723a908201529198509150610d7c90610d77838561142e565b611003565b60408051808201909152601c81527b21a0a621afa127a72aa99039ba30b13632b1b7b4b7103137b73ab99d60211b6020820152610dbd90610d77898461142e565b610dfc6040518060400160405280601e81526020017f43414c435f424f4e555320737461626c65636f696e207061796d656e743a000081525088611003565b600088610e1183670de0b6b3a76400006113e2565b610e1b91906113f9565b9997985050505050505050565b60008083831115610e4757610e3d848461142e565b9050839150610e4b565b8291505b9250929050565b6000610ea7826040518060400160405280602081526020017f5361666545524332303a206c6f772d6c6576656c2063616c6c206661696c6564815250856001600160a01b03166110489092919063ffffffff16565b805190915015610c5c5780806020019051810190610ec59190611441565b610c5c5760405162461bcd60e51b815260206004820152602a60248201527f5361666545524332303a204552433230206f7065726174696f6e20646964206e6044820152691bdd081cdd58d8d9595960b21b6064820152608401610231565b80516a636f6e736f6c652e6c6f67602083016000808483855afa5050505050565b610c5c838383604051602401610f5d93929190611510565b60408051601f198184030181529190526020810180516001600160e01b031663ca47c4eb60e01b179052610f24565b600080670de0b6b3a7640000610fa2848261141b565b610fac90866113e2565b610fb691906113f9565b905084811115610ff7575083610fd483670de0b6b3a764000061141b565b610fe686670de0b6b3a76400006113e2565b610ff091906113f9565b9150610ffb565b8391505b935093915050565b6102778282604051602401611019929190611535565b60408051601f198184030181529190526020810180516001600160e01b0316632d839cb360e21b179052610f24565b606061038684846000858561105c85610c61565b6110a85760405162461bcd60e51b815260206004820152601d60248201527f416464726573733a2063616c6c20746f206e6f6e2d636f6e74726163740000006044820152606401610231565b600080866001600160a01b031685876040516110c49190611557565b60006040518083038185875af1925050503d8060008114611101576040519150601f19603f3d011682016040523d82523d6000602084013e611106565b606091505b5091509150610bec8282866060831561112057508161065c565b8251156111305782518084602001fd5b8160405162461bcd60e51b81526004016102319190611573565b6001600160a01b0391909116815260200190565b80356001600160a01b038116811461117557600080fd5b919050565b60006020828403121561118c57600080fd5b61065c8261115e565b80356003811061117557600080fd5b600080604083850312156111b757600080fd5b6111c08361115e565b91506111ce60208401611195565b90509250929050565b600080604083850312156111ea57600080fd5b6111f38361115e565b91506111ce6020840161115e565b600080600080600060a0868803121561121957600080fd5b6112228661115e565b94506112306020870161115e565b935061123e6040870161115e565b94979396509394606081013594506080013592915050565b60008060006060848603121561126b57600080fd5b6112748461115e565b925061128260208501611195565b9150604084013590509250925092565b600080600083850360808112156112a857600080fd5b6112b18561115e565b93506112bf60208601611195565b92506040603f19820112156112d357600080fd5b506040840190509250925092565b600080600080608085870312156112f757600080fd5b6113008561115e565b935061130e6020860161115e565b925061131c6040860161115e565b915061132a6060860161115e565b905092959194509250565b6020808252602e908201527f496e697469616c697a61626c653a20636f6e747261637420697320616c72656160408201526d191e481a5b9a5d1a585b1a5e995960921b606082015260800190565b634e487b7160e01b600052602160045260246000fd5b6001600160a01b0392831681529116602082015260400190565b6000602082840312156113c557600080fd5b5051919050565b634e487b7160e01b600052601160045260246000fd5b80820281158282048414176102fb576102fb6113cc565b60008261141657634e487b7160e01b600052601260045260246000fd5b500490565b808201808211156102fb576102fb6113cc565b818103818111156102fb576102fb6113cc565b60006020828403121561145357600080fd5b8151801515811461065c57600080fd5b60008060006060848603121561147857600080fd5b8351925060208401519150604084015190509250925092565b60005b838110156114ac578181015183820152602001611494565b50506000910152565b600081518084526114cd816020860160208601611491565b601f01601f19169290920160200192915050565b6080815260006114f460808301876114b5565b6020830195909552506040810192909252606090910152919050565b60608152600061152360608301866114b5565b60208301949094525060400152919050565b60408152600061154860408301856114b5565b90508260208301529392505050565b60008251611569818460208701611491565b9190910192915050565b60208152600061065c60208301846114b556fe43414c435f424f4e555320737461626c65636f696e2028737461626c65636f696e416d6f756e744531382c20646973636f756e74453138293a4c49515549444154494f4e20504152414d532028626c6f636b2c20636f6c6c617465726c2c2064656274293a43414c435f424f4e555320636f6c6c61746572616c28616d6f756e74202a207072696365203d20617373657456616c7565293aa26469706673582212205294efc5b4f2be39b394d0091ebd6794efa36dd5ddb3bad562b1a2296236119164736f6c63430008110033",
  "devdoc": {
    "kind": "dev",
    "methods": {},
    "version": 1
  },
  "userdoc": {
    "kind": "user",
    "methods": {},
    "version": 1
  },
  "storageLayout": {
    "storage": [
      {
        "astId": 454,
        "contract": "contracts/liquidator/SuLiquidation.sol:SuLiquidation",
        "label": "_initialized",
        "offset": 0,
        "slot": "0",
        "type": "t_bool"
      },
      {
        "astId": 457,
        "contract": "contracts/liquidator/SuLiquidation.sol:SuLiquidation",
        "label": "_initializing",
        "offset": 1,
        "slot": "0",
        "type": "t_bool"
      },
      {
        "astId": 4347,
        "contract": "contracts/liquidator/SuLiquidation.sol:SuLiquidation",
        "label": "ACCESS_CONTROL_SINGLETON",
        "offset": 2,
        "slot": "0",
        "type": "t_contract(ISuAccessControl)7485"
      },
      {
        "astId": 12121,
        "contract": "contracts/liquidator/SuLiquidation.sol:SuLiquidation",
        "label": "_discountsInfo",
        "offset": 0,
        "slot": "1",
        "type": "t_mapping(t_address,t_mapping(t_enum(DiscountType)12338,t_struct(DiscountInfo)12343_storage))"
      },
      {
        "astId": 11571,
        "contract": "contracts/liquidator/SuLiquidation.sol:SuLiquidation",
        "label": "SU_MANAGER",
        "offset": 0,
        "slot": "2",
        "type": "t_contract(ISuManager)7953"
      },
      {
        "astId": 11574,
        "contract": "contracts/liquidator/SuLiquidation.sol:SuLiquidation",
        "label": "SU_ORACLE",
        "offset": 0,
        "slot": "3",
        "type": "t_contract(ISuOracle)8027"
      },
      {
        "astId": 11577,
        "contract": "contracts/liquidator/SuLiquidation.sol:SuLiquidation",
        "label": "SU_REWARD",
        "offset": 0,
        "slot": "4",
        "type": "t_contract(IRewardChefV2)7472"
      },
      {
        "astId": 11582,
        "contract": "contracts/liquidator/SuLiquidation.sol:SuLiquidation",
        "label": "_deferredStablecoinAmounts",
        "offset": 0,
        "slot": "5",
        "type": "t_mapping(t_address,t_struct(DeferredStablecoinAmount)12350_storage)"
      }
    ],
    "types": {
      "t_address": {
        "encoding": "inplace",
        "label": "address",
        "numberOfBytes": "20"
      },
      "t_bool": {
        "encoding": "inplace",
        "label": "bool",
        "numberOfBytes": "1"
      },
      "t_contract(IRewardChefV2)7472": {
        "encoding": "inplace",
        "label": "contract IRewardChefV2",
        "numberOfBytes": "20"
      },
      "t_contract(ISuAccessControl)7485": {
        "encoding": "inplace",
        "label": "contract ISuAccessControl",
        "numberOfBytes": "20"
      },
      "t_contract(ISuManager)7953": {
        "encoding": "inplace",
        "label": "contract ISuManager",
        "numberOfBytes": "20"
      },
      "t_contract(ISuOracle)8027": {
        "encoding": "inplace",
        "label": "contract ISuOracle",
        "numberOfBytes": "20"
      },
      "t_enum(DiscountType)12338": {
        "encoding": "inplace",
        "label": "enum DiscountType",
        "numberOfBytes": "1"
      },
      "t_mapping(t_address,t_mapping(t_enum(DiscountType)12338,t_struct(DiscountInfo)12343_storage))": {
        "encoding": "mapping",
        "key": "t_address",
        "label": "mapping(address => mapping(enum DiscountType => struct DiscountInfo))",
        "numberOfBytes": "32",
        "value": "t_mapping(t_enum(DiscountType)12338,t_struct(DiscountInfo)12343_storage)"
      },
      "t_mapping(t_address,t_struct(DeferredStablecoinAmount)12350_storage)": {
        "encoding": "mapping",
        "key": "t_address",
        "label": "mapping(address => struct DeferredStablecoinAmount)",
        "numberOfBytes": "32",
        "value": "t_struct(DeferredStablecoinAmount)12350_storage"
      },
      "t_mapping(t_enum(DiscountType)12338,t_struct(DiscountInfo)12343_storage)": {
        "encoding": "mapping",
        "key": "t_enum(DiscountType)12338",
        "label": "mapping(enum DiscountType => struct DiscountInfo)",
        "numberOfBytes": "32",
        "value": "t_struct(DiscountInfo)12343_storage"
      },
      "t_struct(DeferredStablecoinAmount)12350_storage": {
        "encoding": "inplace",
        "label": "struct DeferredStablecoinAmount",
        "members": [
          {
            "astId": 12345,
            "contract": "contracts/liquidator/SuLiquidation.sol:SuLiquidation",
            "label": "liquidationBlock",
            "offset": 0,
            "slot": "0",
            "type": "t_uint256"
          },
          {
            "astId": 12347,
            "contract": "contracts/liquidator/SuLiquidation.sol:SuLiquidation",
            "label": "toRepaymentE18",
            "offset": 0,
            "slot": "1",
            "type": "t_uint256"
          },
          {
            "astId": 12349,
            "contract": "contracts/liquidator/SuLiquidation.sol:SuLiquidation",
            "label": "toFoundationE18",
            "offset": 0,
            "slot": "2",
            "type": "t_uint256"
          }
        ],
        "numberOfBytes": "96"
      },
      "t_struct(DiscountInfo)12343_storage": {
        "encoding": "inplace",
        "label": "struct DiscountInfo",
        "members": [
          {
            "astId": 12340,
            "contract": "contracts/liquidator/SuLiquidation.sol:SuLiquidation",
            "label": "firstBlockE18",
            "offset": 0,
            "slot": "0",
            "type": "t_uint256"
          },
          {
            "astId": 12342,
            "contract": "contracts/liquidator/SuLiquidation.sol:SuLiquidation",
            "label": "stepPerBlockE18",
            "offset": 0,
            "slot": "1",
            "type": "t_uint256"
          }
        ],
        "numberOfBytes": "64"
      },
      "t_uint256": {
        "encoding": "inplace",
        "label": "uint256",
        "numberOfBytes": "32"
      }
    }
  }
}