{
  "address": "0xE12aFd36F00C5Fc706399F07233bC42464127458",
  "abi": [
    {
      "inputs": [],
      "name": "IncorrectDiscount",
      "type": "error"
    },
    {
      "inputs": [],
      "name": "NotEnoughAmount",
      "type": "error"
    },
    {
      "inputs": [],
      "name": "NotEnoughDeferredAmount",
      "type": "error"
    },
    {
      "inputs": [],
      "name": "TooMuchAmount",
      "type": "error"
    },
    {
      "inputs": [],
      "name": "ZeroAddress",
      "type": "error"
    },
    {
      "anonymous": false,
      "inputs": [
        {
          "indexed": false,
          "internalType": "uint8",
          "name": "version",
          "type": "uint8"
        }
      ],
      "name": "Initialized",
      "type": "event"
    },
    {
      "inputs": [],
      "name": "ACCESS_CONTROL_SINGLETON",
      "outputs": [
        {
          "internalType": "contract ISuAccessControl",
          "name": "",
          "type": "address"
        }
      ],
      "stateMutability": "view",
      "type": "function"
    },
    {
      "inputs": [],
      "name": "LIQUIDATION_ACCESS_ROLE",
      "outputs": [
        {
          "internalType": "bytes32",
          "name": "",
          "type": "bytes32"
        }
      ],
      "stateMutability": "view",
      "type": "function"
    },
    {
      "inputs": [],
      "name": "MINTER_ROLE",
      "outputs": [
        {
          "internalType": "bytes32",
          "name": "",
          "type": "bytes32"
        }
      ],
      "stateMutability": "view",
      "type": "function"
    },
    {
      "inputs": [],
      "name": "POOL_FEE",
      "outputs": [
        {
          "internalType": "uint24",
          "name": "",
          "type": "uint24"
        }
      ],
      "stateMutability": "view",
      "type": "function"
    },
    {
      "inputs": [],
      "name": "VAULT_ACCESS_ROLE",
      "outputs": [
        {
          "internalType": "bytes32",
          "name": "",
          "type": "bytes32"
        }
      ],
      "stateMutability": "view",
      "type": "function"
    },
    {
      "inputs": [
        {
          "internalType": "address",
          "name": "asset",
          "type": "address"
        },
        {
          "internalType": "enum DiscountType",
          "name": "discountType",
          "type": "uint8"
        },
        {
          "internalType": "uint256",
          "name": "liquidationBlock",
          "type": "uint256"
        }
      ],
      "name": "calculateDiscountE18",
      "outputs": [
        {
          "internalType": "uint256",
          "name": "",
          "type": "uint256"
        }
      ],
      "stateMutability": "view",
      "type": "function"
    },
    {
      "inputs": [
        {
          "internalType": "address",
          "name": "asset",
          "type": "address"
        },
        {
          "internalType": "address",
          "name": "owner",
          "type": "address"
        }
      ],
      "name": "calculateLiquidationDiscount",
      "outputs": [
        {
          "internalType": "uint256",
          "name": "",
          "type": "uint256"
        }
      ],
      "stateMutability": "view",
      "type": "function"
    },
    {
      "inputs": [
        {
          "internalType": "address",
          "name": "asset",
          "type": "address"
        },
        {
          "internalType": "address",
          "name": "owner",
          "type": "address"
        },
        {
          "internalType": "address",
          "name": "stablecoinToken",
          "type": "address"
        },
        {
          "internalType": "uint256",
          "name": "stablecoinAmountEDecimal",
          "type": "uint256"
        }
      ],
      "name": "flashSwapStablecoinToAssetAndSwapBack",
      "outputs": [],
      "stateMutability": "nonpayable",
      "type": "function"
    },
    {
      "inputs": [
        {
          "internalType": "address",
          "name": "asset",
          "type": "address"
        },
        {
          "internalType": "enum DiscountType",
          "name": "discountType",
          "type": "uint8"
        }
      ],
      "name": "getDiscountInfo",
      "outputs": [
        {
          "components": [
            {
              "internalType": "uint256",
              "name": "firstBlockE18",
              "type": "uint256"
            },
            {
              "internalType": "uint256",
              "name": "stepPerBlockE18",
              "type": "uint256"
            }
          ],
          "internalType": "struct DiscountInfo",
          "name": "discountInfo",
          "type": "tuple"
        }
      ],
      "stateMutability": "view",
      "type": "function"
    },
    {
      "inputs": [
        {
          "internalType": "address",
          "name": "_authControl",
          "type": "address"
        }
      ],
      "name": "init",
      "outputs": [],
      "stateMutability": "nonpayable",
      "type": "function"
    },
    {
      "inputs": [
        {
          "internalType": "address",
          "name": "_authControl",
          "type": "address"
        },
        {
          "internalType": "address",
          "name": "_suManager",
          "type": "address"
        },
        {
          "internalType": "address",
          "name": "_suOracle",
          "type": "address"
        },
        {
          "internalType": "address",
          "name": "_suReward",
          "type": "address"
        },
        {
          "internalType": "address",
          "name": "_swapRouter",
          "type": "address"
        },
        {
          "internalType": "address",
          "name": "_uniswapFactory",
          "type": "address"
        }
      ],
      "name": "initialize",
      "outputs": [],
      "stateMutability": "nonpayable",
      "type": "function"
    },
    {
      "inputs": [
        {
          "internalType": "address",
          "name": "asset",
          "type": "address"
        },
        {
          "internalType": "enum DiscountType",
          "name": "discountType",
          "type": "uint8"
        },
        {
          "components": [
            {
              "internalType": "uint256",
              "name": "firstBlockE18",
              "type": "uint256"
            },
            {
              "internalType": "uint256",
              "name": "stepPerBlockE18",
              "type": "uint256"
            }
          ],
          "internalType": "struct DiscountInfo",
          "name": "discountInfo",
          "type": "tuple"
        }
      ],
      "name": "setDiscountInfo",
      "outputs": [],
      "stateMutability": "nonpayable",
      "type": "function"
    },
    {
      "inputs": [
        {
          "internalType": "address",
          "name": "asset",
          "type": "address"
        },
        {
          "internalType": "address",
          "name": "owner",
          "type": "address"
        },
        {
          "internalType": "uint256",
          "name": "stablecoinAmountE18",
          "type": "uint256"
        }
      ],
      "name": "swapStableProToAsset",
      "outputs": [],
      "stateMutability": "nonpayable",
      "type": "function"
    },
    {
      "inputs": [
        {
          "internalType": "address",
          "name": "stablecoinToken",
          "type": "address"
        },
        {
          "internalType": "uint256",
          "name": "stablecoinAmountEDecimal",
          "type": "uint256"
        }
      ],
      "name": "swapStableProToStablecoin",
      "outputs": [],
      "stateMutability": "nonpayable",
      "type": "function"
    },
    {
      "inputs": [
        {
          "internalType": "address",
          "name": "asset",
          "type": "address"
        },
        {
          "internalType": "address",
          "name": "owner",
          "type": "address"
        },
        {
          "internalType": "address",
          "name": "stablecoinToken",
          "type": "address"
        },
        {
          "internalType": "uint256",
          "name": "stablecoinAmountEDecimal",
          "type": "uint256"
        },
        {
          "internalType": "bool",
          "name": "flashLoanIsUsed",
          "type": "bool"
        }
      ],
      "name": "swapStablecoinToAssetAndSwapBack",
      "outputs": [
        {
          "internalType": "uint256",
          "name": "profit",
          "type": "uint256"
        }
      ],
      "stateMutability": "nonpayable",
      "type": "function"
    },
    {
      "inputs": [
        {
          "internalType": "uint256",
          "name": "fee0",
          "type": "uint256"
        },
        {
          "internalType": "uint256",
          "name": "_fee1",
          "type": "uint256"
        },
        {
          "internalType": "bytes",
          "name": "data",
          "type": "bytes"
        }
      ],
      "name": "uniswapV3FlashCallback",
      "outputs": [],
      "stateMutability": "nonpayable",
      "type": "function"
    }
  ],
  "numDeployments": 7,
  "solcInputHash": "bee5958df9bd2aa66431a5d7e5e2d5ec",
  "bytecode": "0x608060405234801561001057600080fd5b5061239d806100206000396000f3fe608060405234801561001057600080fd5b50600436106100d05760003560e01c806303ee9f22146100d557806314c376dc1461010457806319ab453c146101395780631b6e27361461014e5780633599f022146101615780634d2cf8b71461018f578063550a1e00146101a25780635c1b55d6146101b5578063c3009f36146101c8578063cc2a9a5b146101db578063d5391393146101ee578063dc97e84e14610215578063dd1b9c4a1461023c578063e9cbafb014610266578063eecd204214610279578063f4e2ebeb1461028c575b600080fd5b6000546100ee906201000090046001600160a01b031681565b6040516100fb9190611cae565b60405180910390f35b61012b7fe965846df3dd5b1dfa65f58e31477079e90140e0908b6dd31b5aead5a57cf36581565b6040519081526020016100fb565b61014c610147366004611cea565b61029f565b005b61014c61015c366004611d07565b610369565b61017461016f366004611d57565b61040e565b604080518251815260209283015192810192909252016100fb565b61012b61019d366004611d8c565b610494565b61014c6101b0366004611dc5565b610521565b61012b6101c3366004611dff565b610643565b61012b6101d6366004611e67565b61080e565b61014c6101e9366004611ea5565b6108f4565b61012b7f9f2df0fed2c77648de5860a4cc508cd0818c85b8b8a1ab4ceeef8d981c8956a681565b61012b7f9a9aef7c1247d5fc769b0185c052913e39673da29a880317dfd20ebf86f26a4981565b60065461025290600160a01b900462ffffff1681565b60405162ffffff90911681526020016100fb565b61014c610274366004611f27565b610a5c565b61014c610287366004611fa6565b610be5565b61014c61029a366004611ff7565b610cd2565b600054610100900460ff16158080156102bf5750600054600160ff909116105b806102e057506102ce30610e01565b1580156102e0575060005460ff166001145b6103055760405162461bcd60e51b81526004016102fc90612048565b60405180910390fd5b6000805460ff191660011790558015610328576000805461ff0019166101001790555b61033182610e10565b8015610365576000805461ff0019169055604051600181526000805160206123488339815191529060200160405180910390a15b5050565b6000806000610379868686610ea5565b600254604051636bf12d5f60e01b81526001600160a01b038b811660048301528a81166024830152336044830152606482018590526084820184905260a482018690529497509295509093509190911690636bf12d5f9060c4015b600060405180830381600087803b1580156103ee57600080fd5b505af1158015610402573d6000803e3d6000fd5b50505050505050505050565b60408051808201909152600080825260208201526001600160a01b03831660009081526001602052604081209083600281111561044d5761044d612096565b600281111561045e5761045e612096565b81526020019081526020016000206040518060400160405290816000820154815260200160018201548152505090505b92915050565b6002546040516304c9a55560e41b815260009182916001600160a01b0390911690634c9a5550906104cb90879087906004016120ac565b602060405180830381865afa1580156104e8573d6000803e3d6000fd5b505050506040513d601f19601f8201168201806040525081019061050c91906120c6565b9050610519848483610fea565b949350505050565b600354604051631735856760e31b8152600091670de0b6b3a76400009184916001600160a01b03169063b9ac2b389061055e908890600401611cae565b602060405180830381865afa15801561057b573d6000803e3d6000fd5b505050506040513d601f19601f8201168201806040525081019061059f91906120c6565b6105a991906120f5565b6105b3919061210c565b90506000806105c28584611024565b60025460405163628a468360e01b815233600482015260248101849052604481018390529294509092506001600160a01b03169063628a468390606401600060405180830381600087803b15801561061957600080fd5b505af115801561062d573d6000803e3d6000fd5b5050505061063c8533866111b3565b5050505050565b600080600061065688888888881561120e565b9150915060006040518061010001604052808a6001600160a01b03168152602001886001600160a01b03168152602001600660149054906101000a900462ffffff1662ffffff168152602001866106ad57336106af565b305b6001600160a01b0316815260200142815260200183815260200184815260200160006001600160a01b031681525090506106ff89600560009054906101000a90046001600160a01b03168461143b565b84610710576107108933308561153e565b6005546040805163414bf38960e01b815283516001600160a01b0390811660048301526020850151811660248301529184015162ffffff1660448201526060840151821660648201526080840151608482015260a084015160a482015260c084015160c482015260e0840151821660e4820152600092919091169063414bf38990610104016020604051808303816000875af11580156107b4573d6000803e3d6000fd5b505050506040513d601f19601f820116820180604052508101906107d891906120c6565b9050856107f6576107ea88308361143b565b6107f68830338461153e565b610800848261212e565b9a9950505050505050505050565b6001600160a01b038316600090815260016020526040812081908185600281111561083b5761083b612096565b600281111561084c5761084c612096565b815260200190815260200160002090506000834361086a919061212e565b90508060000361087f576000925050506108ed565b8060010361089057505490506108ed565b60008560028111156108a4576108a4612096565b036108cf576108c68166b1a2bc2ec5000084600101548560010154600261164c565b925050506108ed565b6108c681670de0b6b3a764000084600001548560010154600161164c565b9392505050565b600054610100900460ff16158080156109145750600054600160ff909116105b80610935575061092330610e01565b158015610935575060005460ff166001145b6109515760405162461bcd60e51b81526004016102fc90612048565b6000805460ff191660011790558015610974576000805461ff0019166101001790555b61097d8761029f565b6001600160a01b038616158061099a57506001600160a01b038516155b156109b85760405163d92e233d60e01b815260040160405180910390fd5b600280546001600160a01b03199081166001600160a01b038981169190911790925560038054821688841617905560048054821687841617905560058054909116858316179055600680549184166001600160b81b03199092169190911761017760a31b1790558015610a53576000805461ff0019169055604051600181526000805160206123488339815191529060200160405180910390a15b50505050505050565b6000610a6a82840184612141565b90506000610a7b826040015161168a565b9050336001600160a01b03821614610ac65760405162461bcd60e51b815260206004820152600e60248201526d1b9bdd08185d5d1a1bdc9a5e995960921b60448201526064016102fc565b6000610ae683600001518460200151856040015186606001516001610643565b9050868111610b375760405162461bcd60e51b815260206004820152601d60248201527f4c69717569646174696f6e206973206e6f742070726f66697461626c6500000060448201526064016102fc565b8615610ba4576000878460600151610b4f91906121d9565b90506000610b5d898461212e565b9050610b798560400151308385610b7491906121d9565b61143b565b610b89856040015130868561153e565b610b9d85604001513087608001518461153e565b5050610a53565b610bbd836040015130838660600151610b7491906121d9565b610bd183604001513084866060015161153e565b610a5383604001513085608001518461153e565b6000610bf08361168a565b905060006040518060a00160405280876001600160a01b03168152602001866001600160a01b03168152602001856001600160a01b03168152602001848152602001336001600160a01b0316815250604051602001610c8f919081516001600160a01b03908116825260208084015182169083015260408084015182169083015260608084015190830152608092830151169181019190915260a00190565b60408051601f19818403018152908290526312439b2f60e21b825291506001600160a01b0383169063490e6cbc906103d49030908790600090879060040161223c565b60008054604051632474521560e21b815260048101929092523360248301526201000090046001600160a01b0316906391d1485490604401602060405180830381865afa158015610d27573d6000803e3d6000fd5b505050506040513d601f19601f82011682018060405250810190610d4b9190612273565b610d975760405162461bcd60e51b815260206004820152601d60248201527f5375417574683a206f6e6c794f776e657220415554485f4641494c454400000060448201526064016102fc565b610da18282611737565b6001600160a01b03831660009081526001602052604081208291846002811115610dcd57610dcd612096565b6002811115610dde57610dde612096565b81526020808201929092526040016000208235815590820135600182015561063c565b6001600160a01b03163b151590565b600054610100900460ff16610e7b5760405162461bcd60e51b815260206004820152602b60248201527f496e697469616c697a61626c653a20636f6e7472616374206973206e6f74206960448201526a6e697469616c697a696e6760a81b60648201526084016102fc565b600080546001600160a01b03909216620100000262010000600160b01b0319909216919091179055565b60025460405163af368fbd60e01b8152600091829182918291829182916001600160a01b039091169063af368fbd90610ee4908c908c906004016120ac565b606060405180830381865afa158015610f01573d6000803e3d6000fd5b505050506040513d601f19601f82011682018060405250810190610f259190612290565b9250925092506000610f388a8a86610fea565b600354604051631735856760e31b81529192506000916001600160a01b039091169063b9ac2b3890610f6e908e90600401611cae565b602060405180830381865afa158015610f8b573d6000803e3d6000fd5b505050506040513d601f19601f82011682018060405250810190610faf91906120c6565b9050600080610fc0838c888761179c565b91509150600080610fd187846117fd565b949c509a50929850505050505050505093509350939050565b60045460009081906001600160a01b0385811691161461100b57600061100e565b60015b905061101b85828561080e565b95945050505050565b600080826000036110485760405163e008b5f960e01b815260040160405180910390fd5b6001600160a01b038416600090815260076020526040812080549091036110825760405163895afd9560e01b815260040160405180910390fd5b6000611094866002846000015461080e565b6040805160608101825284548152600185015460208201526002850154918101919091529091506110c59086611827565b909450925083156110ea57838260010160008282546110e4919061212e565b90915550505b821561110a5782826002016000828254611104919061212e565b90915550505b600182015415801561111e57506002820154155b1561114a576001600160a01b038616600090815260076020526040812081815560018101829055600201555b61115c81670de0b6b3a76400006121d9565b61116e85670de0b6b3a76400006120f5565b611178919061210c565b935061118c81670de0b6b3a76400006121d9565b61119e84670de0b6b3a76400006120f5565b6111a8919061210c565b925050509250929050565b6112098363a9059cbb60e01b84846040516024016111d29291906122be565b60408051601f198184030181529190526020810180516001600160e01b03166001600160e01b03199093169290921790915261187f565b505050565b600354604051631735856760e31b8152600091829182916001600160a01b03169063b9ac2b3890611243908990600401611cae565b602060405180830381865afa158015611260573d6000803e3d6000fd5b505050506040513d601f19601f8201168201806040525081019061128491906120c6565b90506000670de0b6b3a764000061129b87846120f5565b6112a5919061210c565b905060008060006112b78c8c86610ea5565b919450925090506000856112cb83856121d9565b6112dd90670de0b6b3a76400006120f5565b6112e7919061210c565b905088156112fb576112fb8b333084611951565b6000600260009054906101000a90046001600160a01b03166001600160a01b0316634c9a55508f8f6040518363ffffffff1660e01b81526004016113409291906120ac565b602060405180830381865afa15801561135d573d6000803e3d6000fd5b505050506040513d601f19601f8201168201806040525081019061138191906120c6565b905061138f8c828686611978565b6002546001600160a01b0316636f70e66f8f8f8d6113ad57306113af565b335b60405160e085901b6001600160e01b03191681526001600160a01b03938416600482015291831660248301529091166044820152606481018790526084810188905260a401600060405180830381600087803b15801561140e57600080fd5b505af1158015611422573d6000803e3d6000fd5b50939a5095985050505050505050509550959350505050565b600080846001600160a01b031663095ea7b360e01b85856040516024016114639291906122be565b60408051601f198184030181529181526020820180516001600160e01b03166001600160e01b03199094169390931790925290516114a191906122d7565b6000604051808303816000865af19150503d80600081146114de576040519150601f19603f3d011682016040523d82523d6000602084013e6114e3565b606091505b509150915081801561150d57508051158061150d57508080602001905181019061150d9190612273565b61063c5760405162461bcd60e51b8152602060048201526002602482015261534160f01b60448201526064016102fc565b600080856001600160a01b03166323b872dd60e01b868686604051602401611568939291906122f3565b60408051601f198184030181529181526020820180516001600160e01b03166001600160e01b03199094169390931790925290516115a691906122d7565b6000604051808303816000865af19150503d80600081146115e3576040519150601f19603f3d011682016040523d82523d6000602084013e6115e8565b606091505b50915091508180156116125750805115806116125750808060200190518101906116129190612273565b6116445760405162461bcd60e51b815260206004820152600360248201526229aa2360e91b60448201526064016102fc565b505050505050565b6000808361165a848961212e565b61166491906120f5565b61166e90866121d9565b905085811161167d578061167f565b855b979650505050505050565b600080600560009054906101000a90046001600160a01b03166001600160a01b0316634aa4a4fc6040518163ffffffff1660e01b8152600401602060405180830381865afa1580156116e0573d6000803e3d6000fd5b505050506040513d601f19601f820116820180604052508101906117049190612317565b6006549091506108ed906001600160a01b038116906117329086908590600160a01b900462ffffff166119d7565b611a42565b60008083600281111561174c5761174c612096565b0361175f575066b1a2bc2ec5000061176a565b50670de0b6b3a76400005b81358111158061177e575080826020013510155b156112095760405163211e2bb760e21b815260040160405180910390fd5b60008080670de0b6b3a76400006117b386896120f5565b6117bd919061210c565b905060006117cc828887611b26565b90975090506000886117e683670de0b6b3a76400006120f5565b6117f0919061210c565b9997985050505050505050565b6000808383111561181c57611812848461212e565b9050839150611820565b8291505b9250929050565b6000808360200151831161183d57829150611820565b602084015161184c908461212e565b92508360400151831115611873576040516301af414160e51b815260040160405180910390fd5b50506020919091015191565b60006118d4826040518060400160405280602081526020017f5361666545524332303a206c6f772d6c6576656c2063616c6c206661696c6564815250856001600160a01b0316611b9d9092919063ffffffff16565b80519091501561120957808060200190518101906118f29190612273565b6112095760405162461bcd60e51b815260206004820152602a60248201527f5361666545524332303a204552433230206f7065726174696f6e20646964206e6044820152691bdd081cdd58d8d9595960b21b60648201526084016102fc565b611972846323b872dd60e01b8585856040516024016111d2939291906122f3565b50505050565b6001600160a01b0384166000908152600760205260408120600181018054919285926119a59084906121d9565b92505081905550818160020160008282546119c091906121d9565b9091555050805460000361063c5792909255505050565b6040805160608101825260008082526020820181905291810191909152826001600160a01b0316846001600160a01b03161115611a12579192915b50604080516060810182526001600160a01b03948516815292909316602083015262ffffff169181019190915290565b600081602001516001600160a01b031682600001516001600160a01b031610611a6a57600080fd5b815160208084015160408086015181516001600160a01b0395861681860152949092168482015262ffffff90911660608085019190915281518085038201815260808501909252815191909201206001600160f81b031960a08401529085901b6001600160601b03191660a183015260b58201527fe34f199b19b2b4f47f68442619d555527d244f78a3297ea89325f843f87b8b5460d582015260f50160408051601f1981840301815291905280516020909101209392505050565b600080670de0b6b3a7640000611b3c84826121d9565b611b4690866120f5565b611b50919061210c565b905084811115611b91575083611b6e83670de0b6b3a76400006121d9565b611b8086670de0b6b3a76400006120f5565b611b8a919061210c565b9150611b95565b8391505b935093915050565b6060610519848460008585600080866001600160a01b03168587604051611bc491906122d7565b60006040518083038185875af1925050503d8060008114611c01576040519150601f19603f3d011682016040523d82523d6000602084013e611c06565b606091505b509150915061167f8783838760608315611c7f578251600003611c7857611c2c85610e01565b611c785760405162461bcd60e51b815260206004820152601d60248201527f416464726573733a2063616c6c20746f206e6f6e2d636f6e747261637400000060448201526064016102fc565b5081610519565b6105198383815115611c945781518083602001fd5b8060405162461bcd60e51b81526004016102fc9190612334565b6001600160a01b0391909116815260200190565b6001600160a01b0381168114611cd757600080fd5b50565b8035611ce581611cc2565b919050565b600060208284031215611cfc57600080fd5b81356108ed81611cc2565b600080600060608486031215611d1c57600080fd5b8335611d2781611cc2565b92506020840135611d3781611cc2565b929592945050506040919091013590565b803560038110611ce557600080fd5b60008060408385031215611d6a57600080fd5b8235611d7581611cc2565b9150611d8360208401611d48565b90509250929050565b60008060408385031215611d9f57600080fd5b8235611daa81611cc2565b91506020830135611dba81611cc2565b809150509250929050565b60008060408385031215611dd857600080fd5b8235611de381611cc2565b946020939093013593505050565b8015158114611cd757600080fd5b600080600080600060a08688031215611e1757600080fd5b8535611e2281611cc2565b94506020860135611e3281611cc2565b93506040860135611e4281611cc2565b9250606086013591506080860135611e5981611df1565b809150509295509295909350565b600080600060608486031215611e7c57600080fd5b8335611e8781611cc2565b9250611e9560208501611d48565b9150604084013590509250925092565b60008060008060008060c08789031215611ebe57600080fd5b8635611ec981611cc2565b95506020870135611ed981611cc2565b94506040870135611ee981611cc2565b93506060870135611ef981611cc2565b92506080870135611f0981611cc2565b915060a0870135611f1981611cc2565b809150509295509295509295565b60008060008060608587031215611f3d57600080fd5b843593506020850135925060408501356001600160401b0380821115611f6257600080fd5b818701915087601f830112611f7657600080fd5b813581811115611f8557600080fd5b886020828501011115611f9757600080fd5b95989497505060200194505050565b60008060008060808587031215611fbc57600080fd5b8435611fc781611cc2565b93506020850135611fd781611cc2565b92506040850135611fe781611cc2565b9396929550929360600135925050565b6000806000838503608081121561200d57600080fd5b843561201881611cc2565b935061202660208601611d48565b92506040603f198201121561203a57600080fd5b506040840190509250925092565b6020808252602e908201527f496e697469616c697a61626c653a20636f6e747261637420697320616c72656160408201526d191e481a5b9a5d1a585b1a5e995960921b606082015260800190565b634e487b7160e01b600052602160045260246000fd5b6001600160a01b0392831681529116602082015260400190565b6000602082840312156120d857600080fd5b5051919050565b634e487b7160e01b600052601160045260246000fd5b808202811582820484141761048e5761048e6120df565b60008261212957634e487b7160e01b600052601260045260246000fd5b500490565b8181038181111561048e5761048e6120df565b600060a0828403121561215357600080fd5b60405160a081016001600160401b038111828210171561218357634e487b7160e01b600052604160045260246000fd5b604052823561219181611cc2565b815260208301356121a181611cc2565b60208201526121b260408401611cda565b6040820152606083013560608201526121cd60808401611cda565b60808201529392505050565b8082018082111561048e5761048e6120df565b60005b838110156122075781810151838201526020016121ef565b50506000910152565b600081518084526122288160208601602086016121ec565b601f01601f19169290920160200192915050565b60018060a01b03851681528360208201528260408201526080606082015260006122696080830184612210565b9695505050505050565b60006020828403121561228557600080fd5b81516108ed81611df1565b6000806000606084860312156122a557600080fd5b8351925060208401519150604084015190509250925092565b6001600160a01b03929092168252602082015260400190565b600082516122e98184602087016121ec565b9190910192915050565b6001600160a01b039384168152919092166020820152604081019190915260600190565b60006020828403121561232957600080fd5b81516108ed81611cc2565b6020815260006108ed602083018461221056fe7f26b83ff96e1f2b6a682f133852f6798a09c465da95921460cefb3847402498a2646970667358221220467962b7a2b1b5f90a0059c00f9fc2acc0606f9b44ff2d21a558f3bbe645123b64736f6c63430008110033",
  "devdoc": {
    "kind": "dev",
    "methods": {},
    "version": 1
  },
  "userdoc": {
    "kind": "user",
    "methods": {},
    "version": 1
  },
  "storageLayout": {
    "storage": [
      {
        "astId": 461,
        "contract": "contracts/liquidator/SuLiquidation.sol:SuLiquidation",
        "label": "_initialized",
        "offset": 0,
        "slot": "0",
        "type": "t_uint8"
      },
      {
        "astId": 464,
        "contract": "contracts/liquidator/SuLiquidation.sol:SuLiquidation",
        "label": "_initializing",
        "offset": 1,
        "slot": "0",
        "type": "t_bool"
      },
      {
        "astId": 6897,
        "contract": "contracts/liquidator/SuLiquidation.sol:SuLiquidation",
        "label": "ACCESS_CONTROL_SINGLETON",
        "offset": 2,
        "slot": "0",
        "type": "t_contract(ISuAccessControl)10043"
      },
      {
        "astId": 15294,
        "contract": "contracts/liquidator/SuLiquidation.sol:SuLiquidation",
        "label": "_discountsInfo",
        "offset": 0,
        "slot": "1",
        "type": "t_mapping(t_address,t_mapping(t_enum(DiscountType)15511,t_struct(DiscountInfo)15516_storage))"
      },
      {
        "astId": 14149,
        "contract": "contracts/liquidator/SuLiquidation.sol:SuLiquidation",
        "label": "SU_MANAGER",
        "offset": 0,
        "slot": "2",
        "type": "t_contract(ISuManager)10555"
      },
      {
        "astId": 14152,
        "contract": "contracts/liquidator/SuLiquidation.sol:SuLiquidation",
        "label": "SU_ORACLE",
        "offset": 0,
        "slot": "3",
        "type": "t_contract(ISuOracle)10629"
      },
      {
        "astId": 14155,
        "contract": "contracts/liquidator/SuLiquidation.sol:SuLiquidation",
        "label": "SU_REWARD",
        "offset": 0,
        "slot": "4",
        "type": "t_contract(IRewardChefV2)10030"
      },
      {
        "astId": 14158,
        "contract": "contracts/liquidator/SuLiquidation.sol:SuLiquidation",
        "label": "SWAP_ROUTER",
        "offset": 0,
        "slot": "5",
        "type": "t_contract(ISwapRouter)6519"
      },
      {
        "astId": 14160,
        "contract": "contracts/liquidator/SuLiquidation.sol:SuLiquidation",
        "label": "UNISWAP_FACTORY",
        "offset": 0,
        "slot": "6",
        "type": "t_address"
      },
      {
        "astId": 14162,
        "contract": "contracts/liquidator/SuLiquidation.sol:SuLiquidation",
        "label": "POOL_FEE",
        "offset": 20,
        "slot": "6",
        "type": "t_uint24"
      },
      {
        "astId": 14167,
        "contract": "contracts/liquidator/SuLiquidation.sol:SuLiquidation",
        "label": "_deferredStablecoinAmounts",
        "offset": 0,
        "slot": "7",
        "type": "t_mapping(t_address,t_struct(DeferredStablecoinAmount)15523_storage)"
      }
    ],
    "types": {
      "t_address": {
        "encoding": "inplace",
        "label": "address",
        "numberOfBytes": "20"
      },
      "t_bool": {
        "encoding": "inplace",
        "label": "bool",
        "numberOfBytes": "1"
      },
      "t_contract(IRewardChefV2)10030": {
        "encoding": "inplace",
        "label": "contract IRewardChefV2",
        "numberOfBytes": "20"
      },
      "t_contract(ISuAccessControl)10043": {
        "encoding": "inplace",
        "label": "contract ISuAccessControl",
        "numberOfBytes": "20"
      },
      "t_contract(ISuManager)10555": {
        "encoding": "inplace",
        "label": "contract ISuManager",
        "numberOfBytes": "20"
      },
      "t_contract(ISuOracle)10629": {
        "encoding": "inplace",
        "label": "contract ISuOracle",
        "numberOfBytes": "20"
      },
      "t_contract(ISwapRouter)6519": {
        "encoding": "inplace",
        "label": "contract ISwapRouter",
        "numberOfBytes": "20"
      },
      "t_enum(DiscountType)15511": {
        "encoding": "inplace",
        "label": "enum DiscountType",
        "numberOfBytes": "1"
      },
      "t_mapping(t_address,t_mapping(t_enum(DiscountType)15511,t_struct(DiscountInfo)15516_storage))": {
        "encoding": "mapping",
        "key": "t_address",
        "label": "mapping(address => mapping(enum DiscountType => struct DiscountInfo))",
        "numberOfBytes": "32",
        "value": "t_mapping(t_enum(DiscountType)15511,t_struct(DiscountInfo)15516_storage)"
      },
      "t_mapping(t_address,t_struct(DeferredStablecoinAmount)15523_storage)": {
        "encoding": "mapping",
        "key": "t_address",
        "label": "mapping(address => struct DeferredStablecoinAmount)",
        "numberOfBytes": "32",
        "value": "t_struct(DeferredStablecoinAmount)15523_storage"
      },
      "t_mapping(t_enum(DiscountType)15511,t_struct(DiscountInfo)15516_storage)": {
        "encoding": "mapping",
        "key": "t_enum(DiscountType)15511",
        "label": "mapping(enum DiscountType => struct DiscountInfo)",
        "numberOfBytes": "32",
        "value": "t_struct(DiscountInfo)15516_storage"
      },
      "t_struct(DeferredStablecoinAmount)15523_storage": {
        "encoding": "inplace",
        "label": "struct DeferredStablecoinAmount",
        "members": [
          {
            "astId": 15518,
            "contract": "contracts/liquidator/SuLiquidation.sol:SuLiquidation",
            "label": "liquidationBlock",
            "offset": 0,
            "slot": "0",
            "type": "t_uint256"
          },
          {
            "astId": 15520,
            "contract": "contracts/liquidator/SuLiquidation.sol:SuLiquidation",
            "label": "toRepaymentE18",
            "offset": 0,
            "slot": "1",
            "type": "t_uint256"
          },
          {
            "astId": 15522,
            "contract": "contracts/liquidator/SuLiquidation.sol:SuLiquidation",
            "label": "toFoundationE18",
            "offset": 0,
            "slot": "2",
            "type": "t_uint256"
          }
        ],
        "numberOfBytes": "96"
      },
      "t_struct(DiscountInfo)15516_storage": {
        "encoding": "inplace",
        "label": "struct DiscountInfo",
        "members": [
          {
            "astId": 15513,
            "contract": "contracts/liquidator/SuLiquidation.sol:SuLiquidation",
            "label": "firstBlockE18",
            "offset": 0,
            "slot": "0",
            "type": "t_uint256"
          },
          {
            "astId": 15515,
            "contract": "contracts/liquidator/SuLiquidation.sol:SuLiquidation",
            "label": "stepPerBlockE18",
            "offset": 0,
            "slot": "1",
            "type": "t_uint256"
          }
        ],
        "numberOfBytes": "64"
      },
      "t_uint24": {
        "encoding": "inplace",
        "label": "uint24",
        "numberOfBytes": "3"
      },
      "t_uint256": {
        "encoding": "inplace",
        "label": "uint256",
        "numberOfBytes": "32"
      },
      "t_uint8": {
        "encoding": "inplace",
        "label": "uint8",
        "numberOfBytes": "1"
      }
    }
  }
}