{
  "address": "0x8DB0d990d449E0dF2538e587a146c4aeFc747609",
  "abi": [
    {
      "anonymous": false,
      "inputs": [
        {
          "indexed": true,
          "internalType": "address",
          "name": "asset",
          "type": "address"
        },
        {
          "indexed": true,
          "internalType": "address",
          "name": "owner",
          "type": "address"
        },
        {
          "indexed": true,
          "internalType": "address",
          "name": "buyer",
          "type": "address"
        },
        {
          "indexed": false,
          "internalType": "uint256",
          "name": "amount",
          "type": "uint256"
        },
        {
          "indexed": false,
          "internalType": "uint256",
          "name": "price",
          "type": "uint256"
        }
      ],
      "name": "Buyout",
      "type": "event"
    },
    {
      "anonymous": false,
      "inputs": [
        {
          "indexed": true,
          "internalType": "address",
          "name": "asset",
          "type": "address"
        },
        {
          "indexed": true,
          "internalType": "address",
          "name": "owner",
          "type": "address"
        },
        {
          "indexed": false,
          "internalType": "uint256",
          "name": "main",
          "type": "uint256"
        },
        {
          "indexed": false,
          "internalType": "uint256",
          "name": "stablecoin",
          "type": "uint256"
        }
      ],
      "name": "Destroyed",
      "type": "event"
    },
    {
      "anonymous": false,
      "inputs": [
        {
          "indexed": true,
          "internalType": "address",
          "name": "asset",
          "type": "address"
        },
        {
          "indexed": true,
          "internalType": "address",
          "name": "owner",
          "type": "address"
        },
        {
          "indexed": false,
          "internalType": "uint256",
          "name": "main",
          "type": "uint256"
        },
        {
          "indexed": false,
          "internalType": "uint256",
          "name": "stablecoin",
          "type": "uint256"
        }
      ],
      "name": "Exit",
      "type": "event"
    },
    {
      "anonymous": false,
      "inputs": [
        {
          "indexed": true,
          "internalType": "address",
          "name": "asset",
          "type": "address"
        },
        {
          "indexed": true,
          "internalType": "address",
          "name": "owner",
          "type": "address"
        },
        {
          "indexed": false,
          "internalType": "uint256",
          "name": "main",
          "type": "uint256"
        },
        {
          "indexed": false,
          "internalType": "uint256",
          "name": "stablecoin",
          "type": "uint256"
        }
      ],
      "name": "Join",
      "type": "event"
    },
    {
      "anonymous": false,
      "inputs": [
        {
          "indexed": true,
          "internalType": "address",
          "name": "asset",
          "type": "address"
        },
        {
          "indexed": true,
          "internalType": "address",
          "name": "owner",
          "type": "address"
        }
      ],
      "name": "LiquidationTriggered",
      "type": "event"
    },
    {
      "inputs": [],
      "name": "ACCESS_CONTROL_SINGLETON",
      "outputs": [
        {
          "internalType": "contract ISuAccessControl",
          "name": "",
          "type": "address"
        }
      ],
      "stateMutability": "view",
      "type": "function"
    },
    {
      "inputs": [],
      "name": "LIQUIDATION_ACCESS_ROLE",
      "outputs": [
        {
          "internalType": "bytes32",
          "name": "",
          "type": "bytes32"
        }
      ],
      "stateMutability": "view",
      "type": "function"
    },
    {
      "inputs": [],
      "name": "MINTER_ROLE",
      "outputs": [
        {
          "internalType": "bytes32",
          "name": "",
          "type": "bytes32"
        }
      ],
      "stateMutability": "view",
      "type": "function"
    },
    {
      "inputs": [],
      "name": "VAULT_ACCESS_ROLE",
      "outputs": [
        {
          "internalType": "bytes32",
          "name": "",
          "type": "bytes32"
        }
      ],
      "stateMutability": "view",
      "type": "function"
    },
    {
      "inputs": [],
      "name": "cdpRegistry",
      "outputs": [
        {
          "internalType": "contract ISuCdpRegistry",
          "name": "",
          "type": "address"
        }
      ],
      "stateMutability": "view",
      "type": "function"
    },
    {
      "inputs": [
        {
          "internalType": "address",
          "name": "asset",
          "type": "address"
        },
        {
          "internalType": "uint256",
          "name": "assetAmountEDecimal",
          "type": "uint256"
        },
        {
          "internalType": "uint256",
          "name": "stablecoinAmountE18",
          "type": "uint256"
        }
      ],
      "name": "exit",
      "outputs": [
        {
          "internalType": "uint256",
          "name": "",
          "type": "uint256"
        }
      ],
      "stateMutability": "nonpayable",
      "type": "function"
    },
    {
      "inputs": [
        {
          "internalType": "address",
          "name": "asset",
          "type": "address"
        },
        {
          "internalType": "address",
          "name": "owner",
          "type": "address"
        }
      ],
      "name": "getAvailableToBorrowE18",
      "outputs": [
        {
          "internalType": "uint256",
          "name": "",
          "type": "uint256"
        }
      ],
      "stateMutability": "view",
      "type": "function"
    },
    {
      "inputs": [
        {
          "internalType": "address",
          "name": "asset",
          "type": "address"
        },
        {
          "internalType": "address",
          "name": "owner",
          "type": "address"
        }
      ],
      "name": "getAvailableToWithdrawE18",
      "outputs": [
        {
          "internalType": "uint256",
          "name": "",
          "type": "uint256"
        }
      ],
      "stateMutability": "view",
      "type": "function"
    },
    {
      "inputs": [
        {
          "internalType": "address",
          "name": "asset",
          "type": "address"
        },
        {
          "internalType": "address",
          "name": "owner",
          "type": "address"
        }
      ],
      "name": "getCollateralUsdValueE18",
      "outputs": [
        {
          "internalType": "uint256",
          "name": "",
          "type": "uint256"
        }
      ],
      "stateMutability": "view",
      "type": "function"
    },
    {
      "inputs": [
        {
          "internalType": "address",
          "name": "asset",
          "type": "address"
        },
        {
          "internalType": "address",
          "name": "owner",
          "type": "address"
        }
      ],
      "name": "getLTVE18",
      "outputs": [
        {
          "internalType": "uint256",
          "name": "",
          "type": "uint256"
        }
      ],
      "stateMutability": "view",
      "type": "function"
    },
    {
      "inputs": [
        {
          "internalType": "address",
          "name": "asset",
          "type": "address"
        },
        {
          "internalType": "address",
          "name": "owner",
          "type": "address"
        }
      ],
      "name": "getLiquidationBlock",
      "outputs": [
        {
          "internalType": "uint256",
          "name": "",
          "type": "uint256"
        }
      ],
      "stateMutability": "view",
      "type": "function"
    },
    {
      "inputs": [
        {
          "internalType": "address",
          "name": "asset",
          "type": "address"
        },
        {
          "internalType": "address",
          "name": "owner",
          "type": "address"
        }
      ],
      "name": "getPosition",
      "outputs": [
        {
          "internalType": "uint256",
          "name": "liquidationBlock",
          "type": "uint256"
        },
        {
          "internalType": "uint256",
          "name": "collateralEDecimal",
          "type": "uint256"
        },
        {
          "internalType": "uint256",
          "name": "debtE18",
          "type": "uint256"
        }
      ],
      "stateMutability": "view",
      "type": "function"
    },
    {
      "inputs": [
        {
          "internalType": "address",
          "name": "",
          "type": "address"
        }
      ],
      "name": "initialCollateralRatioE18",
      "outputs": [
        {
          "internalType": "uint256",
          "name": "",
          "type": "uint256"
        }
      ],
      "stateMutability": "view",
      "type": "function"
    },
    {
      "inputs": [
        {
          "internalType": "address",
          "name": "_vault",
          "type": "address"
        },
        {
          "internalType": "address",
          "name": "_suOracle",
          "type": "address"
        },
        {
          "internalType": "address",
          "name": "_cdpRegistry",
          "type": "address"
        }
      ],
      "name": "initialize",
      "outputs": [],
      "stateMutability": "nonpayable",
      "type": "function"
    },
    {
      "inputs": [
        {
          "internalType": "address",
          "name": "asset",
          "type": "address"
        },
        {
          "internalType": "address",
          "name": "owner",
          "type": "address"
        }
      ],
      "name": "isLiquidatablePosition",
      "outputs": [
        {
          "internalType": "bool",
          "name": "",
          "type": "bool"
        }
      ],
      "stateMutability": "view",
      "type": "function"
    },
    {
      "inputs": [
        {
          "internalType": "address",
          "name": "asset",
          "type": "address"
        },
        {
          "internalType": "uint256",
          "name": "assetAmountEDecimal",
          "type": "uint256"
        },
        {
          "internalType": "uint256",
          "name": "stablecoinAmountE18",
          "type": "uint256"
        },
        {
          "internalType": "uint256",
          "name": "lockupPeriodSeconds",
          "type": "uint256"
        }
      ],
      "name": "join",
      "outputs": [],
      "stateMutability": "nonpayable",
      "type": "function"
    },
    {
      "inputs": [
        {
          "internalType": "address",
          "name": "asset",
          "type": "address"
        },
        {
          "internalType": "address",
          "name": "owner",
          "type": "address"
        },
        {
          "internalType": "address",
          "name": "repayer",
          "type": "address"
        },
        {
          "internalType": "uint256",
          "name": "stablecoinsToRepaymentE18",
          "type": "uint256"
        },
        {
          "internalType": "uint256",
          "name": "assetAmountEDecimal",
          "type": "uint256"
        }
      ],
      "name": "liquidate",
      "outputs": [
        {
          "internalType": "bool",
          "name": "destroyed",
          "type": "bool"
        }
      ],
      "stateMutability": "nonpayable",
      "type": "function"
    },
    {
      "inputs": [
        {
          "internalType": "address",
          "name": "asset",
          "type": "address"
        },
        {
          "internalType": "address",
          "name": "owner",
          "type": "address"
        },
        {
          "internalType": "address",
          "name": "repayer",
          "type": "address"
        },
        {
          "internalType": "uint256",
          "name": "repaymentE18",
          "type": "uint256"
        },
        {
          "internalType": "uint256",
          "name": "excessAndFeeE18",
          "type": "uint256"
        },
        {
          "internalType": "uint256",
          "name": "assetAmountEDecimal",
          "type": "uint256"
        }
      ],
      "name": "liquidateAndRepay",
      "outputs": [
        {
          "internalType": "bool",
          "name": "destroyed",
          "type": "bool"
        }
      ],
      "stateMutability": "nonpayable",
      "type": "function"
    },
    {
      "inputs": [
        {
          "internalType": "address",
          "name": "asset",
          "type": "address"
        },
        {
          "internalType": "address",
          "name": "owner",
          "type": "address"
        }
      ],
      "name": "liquidationPriceE18",
      "outputs": [
        {
          "internalType": "uint256",
          "name": "",
          "type": "uint256"
        }
      ],
      "stateMutability": "view",
      "type": "function"
    },
    {
      "inputs": [
        {
          "internalType": "address",
          "name": "",
          "type": "address"
        }
      ],
      "name": "liquidationRatioE18",
      "outputs": [
        {
          "internalType": "uint256",
          "name": "",
          "type": "uint256"
        }
      ],
      "stateMutability": "view",
      "type": "function"
    },
    {
      "inputs": [],
      "name": "managerParameters",
      "outputs": [
        {
          "internalType": "contract ISuManagerParameters",
          "name": "",
          "type": "address"
        }
      ],
      "stateMutability": "view",
      "type": "function"
    },
    {
      "inputs": [],
      "name": "minCollateralInUsdE18",
      "outputs": [
        {
          "internalType": "uint256",
          "name": "",
          "type": "uint256"
        }
      ],
      "stateMutability": "view",
      "type": "function"
    },
    {
      "inputs": [
        {
          "internalType": "address",
          "name": "repayer",
          "type": "address"
        },
        {
          "internalType": "uint256",
          "name": "stablecoinsToRepaymentE18",
          "type": "uint256"
        },
        {
          "internalType": "uint256",
          "name": "stablecoinsToFoundationE18",
          "type": "uint256"
        }
      ],
      "name": "repay",
      "outputs": [],
      "stateMutability": "nonpayable",
      "type": "function"
    },
    {
      "inputs": [
        {
          "internalType": "address",
          "name": "asset",
          "type": "address"
        },
        {
          "internalType": "uint256",
          "name": "stabilityFeeValueE18",
          "type": "uint256"
        },
        {
          "internalType": "uint256",
          "name": "initialCollateralRatioValueE18",
          "type": "uint256"
        },
        {
          "internalType": "uint256",
          "name": "liquidationRatioValueE18",
          "type": "uint256"
        },
        {
          "internalType": "uint256",
          "name": "stablecoinLimitE18",
          "type": "uint256"
        },
        {
          "internalType": "uint256",
          "name": "minCollateralInUsdValueE18",
          "type": "uint256"
        }
      ],
      "name": "setCollateral",
      "outputs": [],
      "stateMutability": "nonpayable",
      "type": "function"
    },
    {
      "inputs": [
        {
          "internalType": "address",
          "name": "asset",
          "type": "address"
        },
        {
          "internalType": "uint256",
          "name": "newValueE18",
          "type": "uint256"
        }
      ],
      "name": "setInitialCollateralRatioE18",
      "outputs": [],
      "stateMutability": "nonpayable",
      "type": "function"
    },
    {
      "inputs": [
        {
          "internalType": "address",
          "name": "asset",
          "type": "address"
        },
        {
          "internalType": "uint256",
          "name": "newValueE18",
          "type": "uint256"
        }
      ],
      "name": "setLiquidationRatioE18",
      "outputs": [],
      "stateMutability": "nonpayable",
      "type": "function"
    },
    {
      "inputs": [
        {
          "internalType": "uint256",
          "name": "newValueE18",
          "type": "uint256"
        }
      ],
      "name": "setMinCollateralInUsdE18",
      "outputs": [],
      "stateMutability": "nonpayable",
      "type": "function"
    },
    {
      "inputs": [],
      "name": "suOracle",
      "outputs": [
        {
          "internalType": "contract ISuOracle",
          "name": "",
          "type": "address"
        }
      ],
      "stateMutability": "view",
      "type": "function"
    },
    {
      "inputs": [
        {
          "internalType": "address",
          "name": "asset",
          "type": "address"
        },
        {
          "internalType": "address",
          "name": "owner",
          "type": "address"
        }
      ],
      "name": "triggerLiquidation",
      "outputs": [],
      "stateMutability": "nonpayable",
      "type": "function"
    },
    {
      "inputs": [
        {
          "internalType": "address",
          "name": "asset",
          "type": "address"
        },
        {
          "internalType": "address",
          "name": "owner",
          "type": "address"
        }
      ],
      "name": "utilizationRatioE18",
      "outputs": [
        {
          "internalType": "uint256",
          "name": "",
          "type": "uint256"
        }
      ],
      "stateMutability": "view",
      "type": "function"
    },
    {
      "inputs": [],
      "name": "vault",
      "outputs": [
        {
          "internalType": "contract ISuVault",
          "name": "",
          "type": "address"
        }
      ],
      "stateMutability": "view",
      "type": "function"
    },
    {
      "inputs": [],
      "name": "vaultParameters",
      "outputs": [
        {
          "internalType": "contract SuVaultParameters",
          "name": "",
          "type": "address"
        }
      ],
      "stateMutability": "view",
      "type": "function"
    },
    {
      "stateMutability": "payable",
      "type": "receive"
    }
  ],
  "numDeployments": 1,
  "solcInputHash": "1ee30c392eeeb5c03c3751ea96247c34",
  "bytecode": "0x608060405234801561001057600080fd5b50613bdb806100206000396000f3fe6080604052600436106101e75760003560e01c80639077beac11610102578063c0c53b8b11610095578063dc97e84e11610064578063dc97e84e14610634578063e6bc046114610668578063f3f481df14610695578063fbfa77cf146106c257600080fd5b8063c0c53b8b146105a0578063cf133404146105c0578063d4796d12146105e0578063d53913931461060057600080fd5b8063ada9e5ad116100d1578063ada9e5ad1461050f578063b33dc1901461052f578063bb497dcc1461056a578063bbdc95311461058057600080fd5b80639077beac1461048f578063a20f9cb3146104af578063ab2a2a82146104cf578063aca345ee146104ef57600080fd5b80634c9a55501161017a5780636f16cbf7116101495780636f16cbf71461040f5780636f70e66f1461042f57806376b5070c1461044f5780638cd2e0c71461046f57600080fd5b80634c9a55501461038f57806356d8be56146103af5780636338e4d7146103cf5780636bf12d5f146103ef57600080fd5b80631af3be18116101b65780631af3be181461030f5780631c656c391461032f578063392c0ce71461034f5780634030815e1461036f57600080fd5b806303ee9f221461023e578063112e14001461027b578063134a02dd1461029d57806314c376dc146102cd57600080fd5b366102395760405162461bcd60e51b815260206004820152601760248201527f53552050726f746f636f6c3a205245535452494354454400000000000000000060448201526064015b60405180910390fd5b600080fd5b34801561024a57600080fd5b5060335461025e906001600160a01b031681565b6040516001600160a01b0390911681526020015b60405180910390f35b34801561028757600080fd5b5061029b6102963660046137e6565b6106e2565b005b3480156102a957600080fd5b506102bd6102b8366004613647565b610acf565b6040519015158152602001610272565b3480156102d957600080fd5b506103017fe965846df3dd5b1dfa65f58e31477079e90140e0908b6dd31b5aead5a57cf36581565b604051908152602001610272565b34801561031b57600080fd5b5060395461025e906001600160a01b031681565b34801561033b57600080fd5b5061030161034a366004613647565b610af3565b34801561035b57600080fd5b5061030161036a366004613647565b610bc1565b34801561037b57600080fd5b5061030161038a366004613647565b610c7a565b34801561039b57600080fd5b506103016103aa366004613647565b610da1565b3480156103bb57600080fd5b506103016103ca366004613647565b610e2e565b3480156103db57600080fd5b506103016103ea366004613647565b610f8e565b3480156103fb57600080fd5b506102bd61040a366004613723565b6112bd565b34801561041b57600080fd5b5061029b61042a366004613787565b6116cf565b34801561043b57600080fd5b506102bd61044a3660046136c9565b611852565b34801561045b57600080fd5b5061030161046a366004613647565b611bd3565b34801561047b57600080fd5b5061029b61048a3660046137b2565b611ebd565b34801561049b57600080fd5b5061029b6104aa366004613787565b611f52565b3480156104bb57600080fd5b50603b5461025e906001600160a01b031681565b3480156104db57600080fd5b50603a5461025e906001600160a01b031681565b3480156104fb57600080fd5b5060375461025e906001600160a01b031681565b34801561051b57600080fd5b5061029b61052a366004613820565b6120c5565b34801561053b57600080fd5b5061054f61054a366004613647565b61223e565b60408051938452602084019290925290820152606001610272565b34801561057657600080fd5b5061030160365481565b34801561058c57600080fd5b5061030161059b3660046137b2565b6123e1565b3480156105ac57600080fd5b5061029b6105bb36600461367f565b6128ef565b3480156105cc57600080fd5b5061029b6105db3660046138a7565b612add565b3480156105ec57600080fd5b5061029b6105fb366004613647565b612bb0565b34801561060c57600080fd5b506103017f9f2df0fed2c77648de5860a4cc508cd0818c85b8b8a1ab4ceeef8d981c8956a681565b34801561064057600080fd5b506103017f9a9aef7c1247d5fc769b0185c052913e39673da29a880317dfd20ebf86f26a4981565b34801561067457600080fd5b5061030161068336600461362b565b60356020526000908152604090205481565b3480156106a157600080fd5b506103016106b036600461362b565b60346020526000908152604090205481565b3480156106ce57600080fd5b5060385461025e906001600160a01b031681565b600260015414156107355760405162461bcd60e51b815260206004820152601f60248201527f5265656e7472616e637947756172643a207265656e7472616e742063616c6c006044820152606401610230565b600260015583338315158061074957508415155b6107955760405162461bcd60e51b815260206004820152601760248201527f53552050726f746f636f6c3a205553454c4553535f54580000000000000000006044820152606401610230565b6012866001600160a01b031663313ce5676040518163ffffffff1660e01b815260040160206040518083038186803b1580156107d057600080fd5b505afa1580156107e4573d6000803e3d6000fd5b505050506040513d601f19601f8201168201806040525081019061080891906138d7565b60ff1611156108655760405162461bcd60e51b815260206004820152602360248201527f53552050726f746f636f6c3a204e4f545f535550504f525445445f444543494d604482015262414c5360e81b6064820152608401610230565b836108e2576038546040516320e8c56560e01b81526001600160a01b0388811660048301523360248301526044820188905260648201869052909116906320e8c56590608401600060405180830381600087803b1580156108c557600080fd5b505af11580156108d9573d6000803e3d6000fd5b50505050610a0c565b841561095c576038546040516320e8c56560e01b81526001600160a01b0388811660048301523360248301526044820188905260648201869052909116906320e8c56590608401600060405180830381600087803b15801561094357600080fd5b505af1158015610957573d6000803e3d6000fd5b505050505b6038546040517f5224372c0000000000000000000000000000000000000000000000000000000081526001600160a01b0388811660048301523360248301526044820187905290911690635224372c90606401602060405180830381600087803b1580156109c957600080fd5b505af11580156109dd573d6000803e3d6000fd5b505050506040513d601f19601f82011682018060405250810190610a0191906138bf565b50610a0c8633612e15565b610a168633612f98565b604080518681526020810186905233916001600160a01b038916917f6423b6056e64b3b29cb2d342362b47c26fa8d6877da27ea152354060df19b9bc910160405180910390a3603a54604051632ed56dff60e21b81526001600160a01b03848116600483015283811660248301529091169063bb55b7fc90604401600060405180830381600087803b158015610aab57600080fd5b505af1158015610abf573d6000803e3d6000fd5b5050600180555050505050505050565b600080610adc8484610c7a565b9050610ae9848483613088565b9150505b92915050565b60385460405163a6ea8b8760e01b81526001600160a01b0384811660048301528381166024830152600092839291169063a6ea8b879060440160206040518083038186803b158015610b4457600080fd5b505afa158015610b58573d6000803e3d6000fd5b505050506040513d601f19601f82011682018060405250810190610b7c91906138bf565b905080610b8d576000915050610aed565b6000610b998585610c7a565b905080610bae83670de0b6b3a7640000613aa5565b610bb89190613997565b95945050505050565b600080610bce8484610c7a565b905080610bdf576000915050610aed565b603854604051636aee125d60e11b81526001600160a01b0386811660048301528581166024830152600092169063d5dc24ba9060440160206040518083038186803b158015610c2d57600080fd5b505afa158015610c41573d6000803e3d6000fd5b505050506040513d601f19601f82011682018060405250810190610c6591906138bf565b905081610bae82670de0b6b3a7640000613aa5565b6038546040516334e3b77960e01b81526001600160a01b038481166004830152838116602483015260009283929116906334e3b7799060440160206040518083038186803b158015610ccb57600080fd5b505afa158015610cdf573d6000803e3d6000fd5b505050506040513d601f19601f82011682018060405250810190610d0391906138bf565b603b546040516306addfb360e31b81526001600160a01b038781166004830152929350670de0b6b3a7640000928492169063356efd989060240160206040518083038186803b158015610d5557600080fd5b505afa158015610d69573d6000803e3d6000fd5b505050506040513d601f19601f82011682018060405250810190610d8d91906138bf565b610d979190613aa5565b610ae99190613997565b603854604051631ce4b4a760e01b81526001600160a01b03848116600483015283811660248301526000921690631ce4b4a79060440160206040518083038186803b158015610def57600080fd5b505afa158015610e03573d6000803e3d6000fd5b505050506040513d601f19601f82011682018060405250810190610e2791906138bf565b9392505050565b600080610e3b8484610c7a565b60395460405163f3f481df60e01b81526001600160a01b038781166004830152929350600092670de0b6b3a764000092169063f3f481df9060240160206040518083038186803b158015610e8e57600080fd5b505afa158015610ea2573d6000803e3d6000fd5b505050506040513d601f19601f82011682018060405250810190610ec691906138bf565b610ed09084613aa5565b610eda9190613997565b60385460405163a6ea8b8760e01b81526001600160a01b03888116600483015287811660248301529293506000929091169063a6ea8b879060440160206040518083038186803b158015610f2d57600080fd5b505afa158015610f41573d6000803e3d6000fd5b505050506040513d601f19601f82011682018060405250810190610f6591906138bf565b9050808211610f7a5760009350505050610aed565b610f848183613ac4565b9695505050505050565b60385460405163a6ea8b8760e01b81526001600160a01b0384811660048301528381166024830152600092839291169063a6ea8b879060440160206040518083038186803b158015610fdf57600080fd5b505afa158015610ff3573d6000803e3d6000fd5b505050506040513d601f19601f8201168201806040525081019061101791906138bf565b90508061102957600019915050610aed565b60395460405163e6bc046160e01b81526001600160a01b038681166004830152600092169063e6bc04619060240160206040518083038186803b15801561106f57600080fd5b505afa158015611083573d6000803e3d6000fd5b505050506040513d601f19601f820116820180604052508101906110a791906138bf565b6110b983670de0b6b3a7640000613aa5565b6110c39190613997565b90506012856001600160a01b031663313ce5676040518163ffffffff1660e01b815260040160206040518083038186803b15801561110057600080fd5b505afa158015611114573d6000803e3d6000fd5b505050506040513d601f19601f8201168201806040525081019061113891906138d7565b60ff1611156111955760405162461bcd60e51b815260206004820152602360248201527f53552050726f746f636f6c3a204e4f545f535550504f525445445f444543494d604482015262414c5360e81b6064820152608401610230565b846001600160a01b031663313ce5676040518163ffffffff1660e01b815260040160206040518083038186803b1580156111ce57600080fd5b505afa1580156111e2573d6000803e3d6000fd5b505050506040513d601f19601f8201168201806040525081019061120691906138d7565b611211906012613adb565b61121c90600a6139fa565b6038546040516334e3b77960e01b81526001600160a01b0388811660048301528781166024830152909116906334e3b7799060440160206040518083038186803b15801561126957600080fd5b505afa15801561127d573d6000803e3d6000fd5b505050506040513d601f19601f820116820180604052508101906112a191906138bf565b6112b383670de0b6b3a7640000613aa5565b610bae9190613997565b6000600260015414156113125760405162461bcd60e51b815260206004820152601f60248201527f5265656e7472616e637947756172643a207265656e7472616e742063616c6c006044820152606401610230565b6002600155603354604051632474521560e21b81527f9a9aef7c1247d5fc769b0185c052913e39673da29a880317dfd20ebf86f26a496004820152336024820152889188916001600160a01b03909116906391d148549060440160206040518083038186803b15801561138457600080fd5b505afa158015611398573d6000803e3d6000fd5b505050506040513d601f19601f820116820180604052508101906113bc919061386b565b61141a5760405162461bcd60e51b815260206004820152602960248201527f5375417574683a206f6e6c794c69717569646174696f6e416363657373204155604482015268151217d1905253115160ba1b6064820152608401610230565b603854604051631ce4b4a760e01b81526001600160a01b038b811660048301528a811660248301526000921690631ce4b4a79060440160206040518083038186803b15801561146857600080fd5b505afa15801561147c573d6000803e3d6000fd5b505050506040513d601f19601f820116820180604052508101906114a091906138bf565b116114fb5760405162461bcd60e51b815260206004820152602560248201527f53552050726f746f636f6c3a204e4f545f4c49515549444154494e475f504f5360448201526424aa24a7a760d91b6064820152608401610230565b61151e6040518060600160405280602e8152602001613b53602e91398588613283565b603854604051636f70e66f60e01b81526001600160a01b038b811660048301528a811660248301528981166044830152606482018790526084820189905290911690636f70e66f9060a401602060405180830381600087803b15801561158357600080fd5b505af1158015611597573d6000803e3d6000fd5b505050506040513d601f19601f820116820180604052508101906115bb919061386b565b92506115c78933612f98565b6115ea604051806060016040528060268152602001613b2d602691398787613283565b603854604051638cd2e0c760e01b81526001600160a01b038981166004830152602482018990526044820188905290911690638cd2e0c790606401600060405180830381600087803b15801561163f57600080fd5b505af1158015611653573d6000803e3d6000fd5b5050603a54604051632ed56dff60e21b81526001600160a01b0386811660048301528581166024830152909116925063bb55b7fc9150604401600060405180830381600087803b1580156116a657600080fd5b505af11580156116ba573d6000803e3d6000fd5b50506001805550929998505050505050505050565b603354604051632474521560e21b8152600060048201523360248201526001600160a01b03909116906391d148549060440160206040518083038186803b15801561171957600080fd5b505afa15801561172d573d6000803e3d6000fd5b505050506040513d601f19601f82011682018060405250810190611751919061386b565b61179d5760405162461bcd60e51b815260206004820152601d60248201527f5375417574683a206f6e6c794f776e657220415554485f4641494c45440000006044820152606401610230565b80158015906117c457506001600160a01b0382166000908152603460205260409020548110155b6118365760405162461bcd60e51b815260206004820152602e60248201527f53552050726f746f636f6c3a20494e434f52524543545f434f4c4c415445524160448201527f4c495a4154494f4e5f56414c55450000000000000000000000000000000000006064820152608401610230565b6001600160a01b03909116600090815260356020526040902055565b6000600260015414156118a75760405162461bcd60e51b815260206004820152601f60248201527f5265656e7472616e637947756172643a207265656e7472616e742063616c6c006044820152606401610230565b6002600155603354604051632474521560e21b81527f9a9aef7c1247d5fc769b0185c052913e39673da29a880317dfd20ebf86f26a496004820152336024820152879187916001600160a01b03909116906391d148549060440160206040518083038186803b15801561191957600080fd5b505afa15801561192d573d6000803e3d6000fd5b505050506040513d601f19601f82011682018060405250810190611951919061386b565b6119af5760405162461bcd60e51b815260206004820152602960248201527f5375417574683a206f6e6c794c69717569646174696f6e416363657373204155604482015268151217d1905253115160ba1b6064820152608401610230565b603854604051631ce4b4a760e01b81526001600160a01b038a8116600483015289811660248301526000921690631ce4b4a79060440160206040518083038186803b1580156119fd57600080fd5b505afa158015611a11573d6000803e3d6000fd5b505050506040513d601f19601f82011682018060405250810190611a3591906138bf565b11611a905760405162461bcd60e51b815260206004820152602560248201527f53552050726f746f636f6c3a204e4f545f4c49515549444154494e475f504f5360448201526424aa24a7a760d91b6064820152608401610230565b611ab36040518060600160405280602e8152602001613b53602e91398587613283565b603854604051636f70e66f60e01b81526001600160a01b038a8116600483015289811660248301528881166044830152606482018790526084820188905290911690636f70e66f9060a401602060405180830381600087803b158015611b1857600080fd5b505af1158015611b2c573d6000803e3d6000fd5b505050506040513d601f19601f82011682018060405250810190611b50919061386b565b9250611b5c8833612f98565b603a54604051632ed56dff60e21b81526001600160a01b03848116600483015283811660248301529091169063bb55b7fc90604401600060405180830381600087803b158015611bab57600080fd5b505af1158015611bbf573d6000803e3d6000fd5b505060018055509298975050505050505050565b6038546040516334e3b77960e01b81526001600160a01b038481166004830152838116602483015260009283929116906334e3b7799060440160206040518083038186803b158015611c2457600080fd5b505afa158015611c38573d6000803e3d6000fd5b505050506040513d601f19601f82011682018060405250810190611c5c91906138bf565b603b546040516306addfb360e31b81526001600160a01b0387811660048301529293506000929091169063356efd989060240160206040518083038186803b158015611ca757600080fd5b505afa158015611cbb573d6000803e3d6000fd5b505050506040513d601f19601f82011682018060405250810190611cdf91906138bf565b905080611cf157600092505050610aed565b603854604051636aee125d60e11b81526001600160a01b0387811660048301528681166024830152600092169063d5dc24ba9060440160206040518083038186803b158015611d3f57600080fd5b505afa158015611d53573d6000803e3d6000fd5b505050506040513d601f19601f82011682018060405250810190611d7791906138bf565b60395460405163f3f481df60e01b81526001600160a01b0389811660048301529293506000929091169063f3f481df9060240160206040518083038186803b158015611dc257600080fd5b505afa158015611dd6573d6000803e3d6000fd5b505050506040513d601f19601f82011682018060405250810190611dfa91906138bf565b611e049084613aa5565b876001600160a01b031663313ce5676040518163ffffffff1660e01b815260040160206040518083038186803b158015611e3d57600080fd5b505afa158015611e51573d6000803e3d6000fd5b505050506040513d601f19601f82011682018060405250810190611e7591906138d7565b611e8090600a6139fa565b611e8a9084613aa5565b611e9c90670de0b6b3a7640000613aa5565b611ea69190613997565b9050611eb28185613ac4565b979650505050505050565b611ee0604051806060016040528060258152602001613b81602591398383613283565b603854604051638cd2e0c760e01b81526001600160a01b038581166004830152602482018590526044820184905290911690638cd2e0c790606401600060405180830381600087803b158015611f3557600080fd5b505af1158015611f49573d6000803e3d6000fd5b50505050505050565b603354604051632474521560e21b8152600060048201523360248201526001600160a01b03909116906391d148549060440160206040518083038186803b158015611f9c57600080fd5b505afa158015611fb0573d6000803e3d6000fd5b505050506040513d601f19601f82011682018060405250810190611fd4919061386b565b6120205760405162461bcd60e51b815260206004820152601d60248201527f5375417574683a206f6e6c794f776e657220415554485f4641494c45440000006044820152606401610230565b80158015906120375750670de0b6b3a76400008111155b6120a95760405162461bcd60e51b815260206004820152602e60248201527f53552050726f746f636f6c3a20494e434f52524543545f434f4c4c415445524160448201527f4c495a4154494f4e5f56414c55450000000000000000000000000000000000006064820152608401610230565b6001600160a01b03909116600090815260346020526040902055565b603354604051632474521560e21b8152600060048201523360248201526001600160a01b03909116906391d148549060440160206040518083038186803b15801561210f57600080fd5b505afa158015612123573d6000803e3d6000fd5b505050506040513d601f19601f82011682018060405250810190612147919061386b565b6121935760405162461bcd60e51b815260206004820152601d60248201527f5375417574683a206f6e6c794f776e657220415554485f4641494c45440000006044820152606401610230565b6037546040517f9fea3e070000000000000000000000000000000000000000000000000000000081526001600160a01b038881166004830152602482018890526044820185905290911690639fea3e0790606401600060405180830381600087803b15801561220157600080fd5b505af1158015612215573d6000803e3d6000fd5b505050506122238685611f52565b61222d86846116cf565b61223681612add565b505050505050565b603854604051631ce4b4a760e01b81526001600160a01b03848116600483015283811660248301526000928392839290911690631ce4b4a79060440160206040518083038186803b15801561229257600080fd5b505afa1580156122a6573d6000803e3d6000fd5b505050506040513d601f19601f820116820180604052508101906122ca91906138bf565b6038546040516334e3b77960e01b81526001600160a01b03888116600483015287811660248301529295509116906334e3b7799060440160206040518083038186803b15801561231957600080fd5b505afa15801561232d573d6000803e3d6000fd5b505050506040513d601f19601f8201168201806040525081019061235191906138bf565b603854604051636aee125d60e11b81526001600160a01b038881166004830152878116602483015292945091169063d5dc24ba9060440160206040518083038186803b1580156123a057600080fd5b505afa1580156123b4573d6000803e3d6000fd5b505050506040513d601f19601f820116820180604052508101906123d891906138bf565b90509250925092565b6000600260015414156124365760405162461bcd60e51b815260206004820152601f60248201527f5265656e7472616e637947756172643a207265656e7472616e742063616c6c006044820152606401610230565b6002600155603854604051631ce4b4a760e01b81526001600160a01b038087166004830152336024830181905287939092911690631ce4b4a79060440160206040518083038186803b15801561248b57600080fd5b505afa15801561249f573d6000803e3d6000fd5b505050506040513d601f19601f820116820180604052508101906124c391906138bf565b1561251a5760405162461bcd60e51b815260206004820152602160248201527f53552050726f746f636f6c3a204c49515549444154494e475f504f534954494f6044820152602760f91b6064820152608401610230565b603854604051636aee125d60e11b81526001600160a01b038881166004830152336024830152600092169063d5dc24ba9060440160206040518083038186803b15801561256657600080fd5b505afa15801561257a573d6000803e3d6000fd5b505050506040513d601f19601f8201168201806040525081019061259e91906138bf565b9050808511156125ac578094505b6038546040517f34c188b00000000000000000000000000000000000000000000000000000000081526001600160a01b0389811660048301523360248301526044820188905260009216906334c188b09060640160206040518083038186803b15801561261857600080fd5b505afa15801561262c573d6000803e3d6000fd5b505050506040513d601f19601f8201168201806040525081019061265091906138bf565b603854604051636f70e66f60e01b81526001600160a01b038b8116600483015233602483018190526044830152606482018b9052608482018a905292935060009290911690636f70e66f9060a401602060405180830381600087803b1580156126b857600080fd5b505af11580156126cc573d6000803e3d6000fd5b505050506040513d601f19601f820116820180604052508101906126f0919061386b565b90506126fc8933612f98565b603854604051638cd2e0c760e01b815233600482015260248101899052604481018490526001600160a01b0390911690638cd2e0c790606401600060405180830381600087803b15801561274f57600080fd5b505af1158015612763573d6000803e3d6000fd5b5050505080156127be57604080518981526020810189905233916001600160a01b038c16917f4bd704811146c45cfd9276261817324e0acc0b5eaa458b21a0740367dc37cdb8910160405180910390a386955050505061287a565b60385460405163c640752d60e01b81526001600160a01b038b811660048301523360248301529091169063c640752d90604401600060405180830381600087803b15801561280b57600080fd5b505af115801561281f573d6000803e3d6000fd5b5050505061282d8933612e15565b604080518981526020810189905233916001600160a01b038c16917fa702ae6024e8b4c2b0eb162b1453dacb93cf6922f5a2d7236faed898c21148f8910160405180910390a38695505050505b603a54604051632ed56dff60e21b81526001600160a01b03848116600483015283811660248301529091169063bb55b7fc90604401600060405180830381600087803b1580156128c957600080fd5b505af11580156128dd573d6000803e3d6000fd5b50506001805550929695505050505050565b600054610100900460ff1661290a5760005460ff161561290e565b303b155b6129805760405162461bcd60e51b815260206004820152602e60248201527f496e697469616c697a61626c653a20636f6e747261637420697320616c72656160448201527f647920696e697469616c697a65640000000000000000000000000000000000006064820152608401610230565b600054610100900460ff161580156129a2576000805461ffff19166101011790555b6129aa6132f8565b6129b38461336d565b3080158015906129cb57506001600160a01b03831615155b612a175760405162461bcd60e51b815260206004820152601960248201527f53552050726f746f636f6c3a20494e56414c49445f41524753000000000000006044820152606401610230565b6001600160a01b038416612a6d5760405162461bcd60e51b815260206004820152601760248201527f494e56414c49445f415247533a2053555f4f5241434c450000000000000000006044820152606401610230565b603b80546001600160a01b0380871673ffffffffffffffffffffffffffffffffffffffff1992831617909255603980549383169382169390931790925560388054878316908416179055603a8054918516919092161790558015612ad7576000805461ff00191690555b50505050565b603354604051632474521560e21b8152600060048201523360248201526001600160a01b03909116906391d148549060440160206040518083038186803b158015612b2757600080fd5b505afa158015612b3b573d6000803e3d6000fd5b505050506040513d601f19601f82011682018060405250810190612b5f919061386b565b612bab5760405162461bcd60e51b815260206004820152601d60248201527f5375417574683a206f6e6c794f776e657220415554485f4641494c45440000006044820152606401610230565b603655565b603854604051631ce4b4a760e01b81526001600160a01b038481166004830152838116602483015290911690631ce4b4a79060440160206040518083038186803b158015612bfd57600080fd5b505afa158015612c11573d6000803e3d6000fd5b505050506040513d601f19601f82011682018060405250810190612c3591906138bf565b15612c8c5760405162461bcd60e51b815260206004820152602160248201527f53552050726f746f636f6c3a204c49515549444154494e475f504f534954494f6044820152602760f91b6064820152608401610230565b6000612c988383610c7a565b9050612ca5838383613088565b612cf15760405162461bcd60e51b815260206004820152601a60248201527f53552050726f746f636f6c3a20534146455f504f534954494f4e0000000000006044820152606401610230565b60385460405163c640752d60e01b81526001600160a01b03858116600483015284811660248301529091169063c640752d90604401600060405180830381600087803b158015612d4057600080fd5b505af1158015612d54573d6000803e3d6000fd5b50506038546040517fd4796d120000000000000000000000000000000000000000000000000000000081526001600160a01b0387811660048301528681166024830152909116925063d4796d129150604401600060405180830381600087803b158015612dc057600080fd5b505af1158015612dd4573d6000803e3d6000fd5b50506040516001600160a01b038086169350861691507f5b79a897d30813a62a1f95ba180d3320d3701d96605708b81105e00719a069e490600090a3505050565b6000612e218383610c7a565b60395460405163f3f481df60e01b81526001600160a01b038681166004830152929350600092670de0b6b3a764000092169063f3f481df9060240160206040518083038186803b158015612e7457600080fd5b505afa158015612e88573d6000803e3d6000fd5b505050506040513d601f19601f82011682018060405250810190612eac91906138bf565b612eb69084613aa5565b612ec09190613997565b60385460405163a6ea8b8760e01b81526001600160a01b038781166004830152868116602483015292935083929091169063a6ea8b879060440160206040518083038186803b158015612f1257600080fd5b505afa158015612f26573d6000803e3d6000fd5b505050506040513d601f19601f82011682018060405250810190612f4a91906138bf565b1115612ad75760405162461bcd60e51b815260206004820181905260248201527f53552050726f746f636f6c3a20554e444552434f4c4c41544552414c495a45446044820152606401610230565b6000612fa48383610c7a565b90508015806130375750603960009054906101000a90046001600160a01b03166001600160a01b031663bb497dcc6040518163ffffffff1660e01b815260040160206040518083038186803b158015612ffc57600080fd5b505afa158015613010573d6000803e3d6000fd5b505050506040513d601f19601f8201168201806040525081019061303491906138bf565b81115b6130835760405162461bcd60e51b815260206004820152601d60248201527f53552050726f746f636f6c3a20534d414c4c5f434f4c4c41544552414c0000006044820152606401610230565b505050565b60385460405163a6ea8b8760e01b81526001600160a01b0385811660048301528481166024830152600092839291169063a6ea8b879060440160206040518083038186803b1580156130d957600080fd5b505afa1580156130ed573d6000803e3d6000fd5b505050506040513d601f19601f8201168201806040525081019061311191906138bf565b905080613122576000915050610e27565b604080518082018252600581527f4c494d49540000000000000000000000000000000000000000000000000000006020820152603954915163e6bc046160e01b81526001600160a01b0388811660048301526131de93859288929091169063e6bc04619060240160206040518083038186803b1580156131a157600080fd5b505afa1580156131b5573d6000803e3d6000fd5b505050506040513d601f19601f820116820180604052508101906131d991906138bf565b61348c565b60395460405163e6bc046160e01b81526001600160a01b0387811660048301529091169063e6bc04619060240160206040518083038186803b15801561322357600080fd5b505afa158015613237573d6000803e3d6000fd5b505050506040513d601f19601f8201168201806040525081019061325b91906138bf565b8361326e83670de0b6b3a7640000613aa5565b6132789190613997565b101595945050505050565b61308383838360405160240161329b93929190613943565b60408051601f198184030181529190526020810180517bffffffffffffffffffffffffffffffffffffffffffffffffffffffff167f969cdd03000000000000000000000000000000000000000000000000000000001790526134ff565b600054610100900460ff166133635760405162461bcd60e51b815260206004820152602b60248201527f496e697469616c697a61626c653a20636f6e7472616374206973206e6f74206960448201526a6e697469616c697a696e6760a81b6064820152608401610230565b61336b613520565b565b600054610100900460ff166133d85760405162461bcd60e51b815260206004820152602b60248201527f496e697469616c697a61626c653a20636f6e7472616374206973206e6f74206960448201526a6e697469616c697a696e6760a81b6064820152608401610230565b613451816001600160a01b03166303ee9f226040518163ffffffff1660e01b815260040160206040518083038186803b15801561341457600080fd5b505afa158015613428573d6000803e3d6000fd5b505050506040513d601f19601f8201168201806040525081019061344c919061388b565b613591565b6037805473ffffffffffffffffffffffffffffffffffffffff19166001600160a01b0392909216919091179055674563918244f40000603655565b612ad7848484846040516024016134a69493929190613968565b60408051601f198184030181529190526020810180517bffffffffffffffffffffffffffffffffffffffffffffffffffffffff167f08ee5666000000000000000000000000000000000000000000000000000000001790525b80516a636f6e736f6c652e6c6f67602083016000808483855afa5050505050565b600054610100900460ff1661358b5760405162461bcd60e51b815260206004820152602b60248201527f496e697469616c697a61626c653a20636f6e7472616374206973206e6f74206960448201526a6e697469616c697a696e6760a81b6064820152608401610230565b60018055565b600054610100900460ff166135fc5760405162461bcd60e51b815260206004820152602b60248201527f496e697469616c697a61626c653a20636f6e7472616374206973206e6f74206960448201526a6e697469616c697a696e6760a81b6064820152608401610230565b6033805473ffffffffffffffffffffffffffffffffffffffff19166001600160a01b0392909216919091179055565b60006020828403121561363c578081fd5b8135610e2781613b14565b60008060408385031215613659578081fd5b823561366481613b14565b9150602083013561367481613b14565b809150509250929050565b600080600060608486031215613693578081fd5b833561369e81613b14565b925060208401356136ae81613b14565b915060408401356136be81613b14565b809150509250925092565b600080600080600060a086880312156136e0578081fd5b85356136eb81613b14565b945060208601356136fb81613b14565b9350604086013561370b81613b14565b94979396509394606081013594506080013592915050565b60008060008060008060c0878903121561373b578081fd5b863561374681613b14565b9550602087013561375681613b14565b9450604087013561376681613b14565b959894975094956060810135955060808101359460a0909101359350915050565b60008060408385031215613799578182fd5b82356137a481613b14565b946020939093013593505050565b6000806000606084860312156137c6578283fd5b83356137d181613b14565b95602085013595506040909401359392505050565b600080600080608085870312156137fb578384fd5b843561380681613b14565b966020860135965060408601359560600135945092505050565b60008060008060008060c08789031215613838578182fd5b863561384381613b14565b9860208801359850604088013597606081013597506080810135965060a00135945092505050565b60006020828403121561387c578081fd5b81518015158114610e27578182fd5b60006020828403121561389c578081fd5b8151610e2781613b14565b6000602082840312156138b8578081fd5b5035919050565b6000602082840312156138d0578081fd5b5051919050565b6000602082840312156138e8578081fd5b815160ff81168114610e27578182fd5b60008151808452815b8181101561391d57602081850181015186830182015201613901565b8181111561392e5782602083870101525b50601f01601f19169290920160200192915050565b60608152600061395660608301866138f8565b60208301949094525060400152919050565b60808152600061397b60808301876138f8565b6020830195909552506040810192909252606090910152919050565b6000826139b257634e487b7160e01b81526012600452602481fd5b500490565b600181815b808511156139f25781600019048211156139d8576139d8613afe565b808516156139e557918102915b93841c93908002906139bc565b509250929050565b6000610e2760ff841683600082613a1357506001610aed565b81613a2057506000610aed565b8160018114613a365760028114613a4057613a5c565b6001915050610aed565b60ff841115613a5157613a51613afe565b50506001821b610aed565b5060208310610133831016604e8410600b8410161715613a7f575081810a610aed565b613a8983836139b7565b8060001904821115613a9d57613a9d613afe565b029392505050565b6000816000190483118215151615613abf57613abf613afe565b500290565b600082821015613ad657613ad6613afe565b500390565b600060ff821660ff841680821015613af557613af5613afe565b90039392505050565b634e487b7160e01b600052601160045260246000fd5b6001600160a01b0381168114613b2957600080fd5b5056fe5245504159207265706179202872657061796d656e742c20657863657373416e64466565293a4c4951554944415445206c697175696461746520286173736574416d6f756e742c2072657061796d656e74293a205245504159207265706179202872657061796d656e742c20746f466f6e646174696f6e293aa2646970667358221220a8adfa3e9e77970aad2d05f28973959874b58c8b65c6b9ebd74d5221c9eb5dc664736f6c63430008040033",
  "devdoc": {
    "events": {
      "Buyout(address,address,address,uint256,uint256)": {
        "details": "Trigger when buyouts are happened*"
      }
    },
    "kind": "dev",
    "methods": {
      "getLiquidationBlock(address,address)": {
        "params": {
          "asset": "The address of the main collateral token of a position",
          "owner": "The owner of the collateral"
        },
        "returns": {
          "_0": "liquidationBlock The block number when the liquidation was triggered"
        }
      },
      "getPosition(address,address)": {
        "details": "TODO: should rename to getPositionInfo()",
        "params": {
          "asset": "The address of the main collateral token of a position",
          "owner": "The owner of the collateral"
        },
        "returns": {
          "collateralEDecimal": "The amount of collateral",
          "debtE18": "The amount of borrowed stablecoins",
          "liquidationBlock": "The block number when the liquidation was triggered"
        }
      },
      "liquidate(address,address,address,uint256,uint256)": {
        "details": "Supports a partial liquidation",
        "params": {
          "asset": "The address of the main collateral token of a position",
          "assetAmountEDecimal": "The position's collateral which be recieved by repayer",
          "owner": "The owner of the collateral",
          "repayer": "The person who repaies by debt and transfers stablecoins to the foundation",
          "stablecoinsToRepaymentE18": "The amount of stablecoins which will be burned as a debt repaymention"
        },
        "returns": {
          "destroyed": "Returns \"true\" if the position completely liquidated"
        }
      },
      "liquidateAndRepay(address,address,address,uint256,uint256,uint256)": {
        "details": "Supports a partial liquidation",
        "params": {
          "asset": "The address of the main collateral token of a position",
          "assetAmountEDecimal": "The position's collateral which be recieved by repayer",
          "excessAndFeeE18": "The amount of stablecoins which transfer to foundation",
          "owner": "The owner of a position",
          "repayer": "The person who repaies by debt and recieves a position's collateral",
          "repaymentE18": "The amount of repayment"
        },
        "returns": {
          "destroyed": "Returns \"true\" if the position completely liquidated"
        }
      },
      "repay(address,uint256,uint256)": {
        "params": {
          "repayer": "The person who repaies by debt and transfers stablecoins to the foundation",
          "stablecoinsToFoundationE18": "The amount of stablecoins which will be transfered to the foundation",
          "stablecoinsToRepaymentE18": "The amount of stablecoins which will be burned as a debt repayment"
        }
      },
      "setInitialCollateralRatioE18(address,uint256)": {
        "details": "Sets the initial collateral ratio",
        "params": {
          "asset": "The address of the main collateral token",
          "newValueE18": "The collateralization ratio (1e18 = 100%)*"
        }
      },
      "setLiquidationRatioE18(address,uint256)": {
        "details": "Sets the liquidation ratio",
        "params": {
          "asset": "The address of the main collateral token",
          "newValueE18": "The liquidation ratio (1e18 = 100%)*"
        }
      },
      "setMinCollateralInUsdE18(uint256)": {
        "details": "Sets a minimum value of collateral in USD which allowed to be left after partial closure",
        "params": {
          "newValueE18": "The minimum value of collateral in USD"
        }
      },
      "triggerLiquidation(address,address)": {
        "details": "Emits LiquidationTriggered event. Sets the current block as liquidationBlock for the position. Can be triggered only once for the position."
      }
    },
    "version": 1
  },
  "userdoc": {
    "kind": "user",
    "methods": {
      "getAvailableToBorrowE18(address,address)": {
        "notice": "Returns Available to Borrow we have invariant: (collateralAmountEDecimal * collateralPriceE18 / 1e18) * initialCollateralRatioE18 <= debtE18 Has similar logic like in _ensurePositionCollateralization"
      },
      "getAvailableToWithdrawE18(address,address)": {
        "notice": "Returns Available to Withdraw Has similar invariant like in getAvailableToBorrowE18"
      },
      "getLTVE18(address,address)": {
        "notice": "Returns Loan-To-Value in e18"
      },
      "getLiquidationBlock(address,address)": {
        "notice": "Returns information about a liquidating position"
      },
      "getPosition(address,address)": {
        "notice": "Returns information about a liquidating position"
      },
      "join(address,uint256,uint256,uint256)": {
        "notice": "Yes,"
      },
      "liquidate(address,address,address,uint256,uint256)": {
        "notice": "Liquidates a position"
      },
      "liquidateAndRepay(address,address,address,uint256,uint256,uint256)": {
        "notice": "please see https://ratiofinance.medium.com/ratio-risk-lesson-2-cascading-liquidations-e91e04050f47Liquidates a position's collateral completely"
      },
      "repay(address,uint256,uint256)": {
        "notice": "Finilizes the liquidation"
      },
      "setInitialCollateralRatioE18(address,uint256)": {
        "notice": "Only manager is able to call this function"
      },
      "setLiquidationRatioE18(address,uint256)": {
        "notice": "Only manager is able to call this function"
      },
      "setMinCollateralInUsdE18(uint256)": {
        "notice": "Only manager is able to call this function"
      }
    },
    "notice": "not sure why",
    "version": 1
  },
  "storageLayout": {
    "storage": [
      {
        "astId": 454,
        "contract": "contracts/lending/SuManager.sol:SuManager",
        "label": "_initialized",
        "offset": 0,
        "slot": "0",
        "type": "t_bool"
      },
      {
        "astId": 457,
        "contract": "contracts/lending/SuManager.sol:SuManager",
        "label": "_initializing",
        "offset": 1,
        "slot": "0",
        "type": "t_bool"
      },
      {
        "astId": 535,
        "contract": "contracts/lending/SuManager.sol:SuManager",
        "label": "_status",
        "offset": 0,
        "slot": "1",
        "type": "t_uint256"
      },
      {
        "astId": 579,
        "contract": "contracts/lending/SuManager.sol:SuManager",
        "label": "__gap",
        "offset": 0,
        "slot": "2",
        "type": "t_array(t_uint256)49_storage"
      },
      {
        "astId": 4355,
        "contract": "contracts/lending/SuManager.sol:SuManager",
        "label": "ACCESS_CONTROL_SINGLETON",
        "offset": 0,
        "slot": "51",
        "type": "t_contract(ISuAccessControl)7493"
      },
      {
        "astId": 10130,
        "contract": "contracts/lending/SuManager.sol:SuManager",
        "label": "initialCollateralRatioE18",
        "offset": 0,
        "slot": "52",
        "type": "t_mapping(t_address,t_uint256)"
      },
      {
        "astId": 10134,
        "contract": "contracts/lending/SuManager.sol:SuManager",
        "label": "liquidationRatioE18",
        "offset": 0,
        "slot": "53",
        "type": "t_mapping(t_address,t_uint256)"
      },
      {
        "astId": 10136,
        "contract": "contracts/lending/SuManager.sol:SuManager",
        "label": "minCollateralInUsdE18",
        "offset": 0,
        "slot": "54",
        "type": "t_uint256"
      },
      {
        "astId": 10139,
        "contract": "contracts/lending/SuManager.sol:SuManager",
        "label": "vaultParameters",
        "offset": 0,
        "slot": "55",
        "type": "t_contract(SuVaultParameters)11236"
      },
      {
        "astId": 9031,
        "contract": "contracts/lending/SuManager.sol:SuManager",
        "label": "vault",
        "offset": 0,
        "slot": "56",
        "type": "t_contract(ISuVault)8052"
      },
      {
        "astId": 9034,
        "contract": "contracts/lending/SuManager.sol:SuManager",
        "label": "managerParameters",
        "offset": 0,
        "slot": "57",
        "type": "t_contract(ISuManagerParameters)7874"
      },
      {
        "astId": 9037,
        "contract": "contracts/lending/SuManager.sol:SuManager",
        "label": "cdpRegistry",
        "offset": 0,
        "slot": "58",
        "type": "t_contract(ISuCdpRegistry)7590"
      },
      {
        "astId": 9040,
        "contract": "contracts/lending/SuManager.sol:SuManager",
        "label": "suOracle",
        "offset": 0,
        "slot": "59",
        "type": "t_contract(ISuOracle)7885"
      }
    ],
    "types": {
      "t_address": {
        "encoding": "inplace",
        "label": "address",
        "numberOfBytes": "20"
      },
      "t_array(t_uint256)49_storage": {
        "base": "t_uint256",
        "encoding": "inplace",
        "label": "uint256[49]",
        "numberOfBytes": "1568"
      },
      "t_bool": {
        "encoding": "inplace",
        "label": "bool",
        "numberOfBytes": "1"
      },
      "t_contract(ISuAccessControl)7493": {
        "encoding": "inplace",
        "label": "contract ISuAccessControl",
        "numberOfBytes": "20"
      },
      "t_contract(ISuCdpRegistry)7590": {
        "encoding": "inplace",
        "label": "contract ISuCdpRegistry",
        "numberOfBytes": "20"
      },
      "t_contract(ISuManagerParameters)7874": {
        "encoding": "inplace",
        "label": "contract ISuManagerParameters",
        "numberOfBytes": "20"
      },
      "t_contract(ISuOracle)7885": {
        "encoding": "inplace",
        "label": "contract ISuOracle",
        "numberOfBytes": "20"
      },
      "t_contract(ISuVault)8052": {
        "encoding": "inplace",
        "label": "contract ISuVault",
        "numberOfBytes": "20"
      },
      "t_contract(SuVaultParameters)11236": {
        "encoding": "inplace",
        "label": "contract SuVaultParameters",
        "numberOfBytes": "20"
      },
      "t_mapping(t_address,t_uint256)": {
        "encoding": "mapping",
        "key": "t_address",
        "label": "mapping(address => uint256)",
        "numberOfBytes": "32",
        "value": "t_uint256"
      },
      "t_uint256": {
        "encoding": "inplace",
        "label": "uint256",
        "numberOfBytes": "32"
      }
    }
  }
}