{
  "address": "0x9A45112567f63371B7eB5D24775C8AaAE7bCED84",
  "abi": [
    {
      "inputs": [],
      "name": "AlreadyPaused",
      "type": "error"
    },
    {
      "inputs": [],
      "name": "BadAccessControlSingleton",
      "type": "error"
    },
    {
      "inputs": [],
      "name": "BadInitialCollateralRatioValue",
      "type": "error"
    },
    {
      "inputs": [],
      "name": "BadLiquidationRatioValue",
      "type": "error"
    },
    {
      "inputs": [],
      "name": "InvalidArgs",
      "type": "error"
    },
    {
      "inputs": [],
      "name": "LiquidationIsTriggered",
      "type": "error"
    },
    {
      "inputs": [],
      "name": "NotPaused",
      "type": "error"
    },
    {
      "inputs": [],
      "name": "OnlyAdminError",
      "type": "error"
    },
    {
      "inputs": [],
      "name": "OnlyDAOError",
      "type": "error"
    },
    {
      "inputs": [],
      "name": "OnlyLiquidationAccessError",
      "type": "error"
    },
    {
      "inputs": [],
      "name": "OnlyMintAccessError",
      "type": "error"
    },
    {
      "inputs": [],
      "name": "OnlyPauserError",
      "type": "error"
    },
    {
      "inputs": [],
      "name": "OnlyRewardAccessError",
      "type": "error"
    },
    {
      "inputs": [],
      "name": "OnlyVaultAccessError",
      "type": "error"
    },
    {
      "inputs": [],
      "name": "PositionIsSafe",
      "type": "error"
    },
    {
      "inputs": [],
      "name": "Restricted",
      "type": "error"
    },
    {
      "inputs": [],
      "name": "SmallCollateral",
      "type": "error"
    },
    {
      "inputs": [],
      "name": "UnderCollateralized",
      "type": "error"
    },
    {
      "inputs": [],
      "name": "UnsupportedDecimals",
      "type": "error"
    },
    {
      "inputs": [],
      "name": "UselessTransaction",
      "type": "error"
    },
    {
      "anonymous": false,
      "inputs": [
        {
          "indexed": true,
          "internalType": "address",
          "name": "asset",
          "type": "address"
        },
        {
          "indexed": true,
          "internalType": "address",
          "name": "owner",
          "type": "address"
        },
        {
          "indexed": false,
          "internalType": "uint256",
          "name": "main",
          "type": "uint256"
        },
        {
          "indexed": false,
          "internalType": "uint256",
          "name": "stablecoin",
          "type": "uint256"
        }
      ],
      "name": "Exit",
      "type": "event"
    },
    {
      "anonymous": false,
      "inputs": [
        {
          "indexed": false,
          "internalType": "uint8",
          "name": "version",
          "type": "uint8"
        }
      ],
      "name": "Initialized",
      "type": "event"
    },
    {
      "anonymous": false,
      "inputs": [
        {
          "indexed": true,
          "internalType": "address",
          "name": "asset",
          "type": "address"
        },
        {
          "indexed": true,
          "internalType": "address",
          "name": "owner",
          "type": "address"
        },
        {
          "indexed": false,
          "internalType": "uint256",
          "name": "main",
          "type": "uint256"
        },
        {
          "indexed": false,
          "internalType": "uint256",
          "name": "stablecoin",
          "type": "uint256"
        }
      ],
      "name": "Join",
      "type": "event"
    },
    {
      "anonymous": false,
      "inputs": [
        {
          "indexed": false,
          "internalType": "address",
          "name": "asset",
          "type": "address"
        },
        {
          "indexed": false,
          "internalType": "uint256",
          "name": "debtAmount",
          "type": "uint256"
        }
      ],
      "name": "LiquidationTriggered",
      "type": "event"
    },
    {
      "inputs": [],
      "name": "ACCESS_CONTROL_SINGLETON",
      "outputs": [
        {
          "internalType": "contract ISuAccessControl",
          "name": "",
          "type": "address"
        }
      ],
      "stateMutability": "view",
      "type": "function"
    },
    {
      "inputs": [],
      "name": "ADMIN_ROLE",
      "outputs": [
        {
          "internalType": "bytes32",
          "name": "",
          "type": "bytes32"
        }
      ],
      "stateMutability": "view",
      "type": "function"
    },
    {
      "inputs": [],
      "name": "DAO_ROLE",
      "outputs": [
        {
          "internalType": "bytes32",
          "name": "",
          "type": "bytes32"
        }
      ],
      "stateMutability": "view",
      "type": "function"
    },
    {
      "inputs": [],
      "name": "LIQUIDATION_ACCESS_ROLE",
      "outputs": [
        {
          "internalType": "bytes32",
          "name": "",
          "type": "bytes32"
        }
      ],
      "stateMutability": "view",
      "type": "function"
    },
    {
      "inputs": [],
      "name": "MINT_ACCESS_ROLE",
      "outputs": [
        {
          "internalType": "bytes32",
          "name": "",
          "type": "bytes32"
        }
      ],
      "stateMutability": "view",
      "type": "function"
    },
    {
      "inputs": [],
      "name": "PAUSER_ROLE",
      "outputs": [
        {
          "internalType": "bytes32",
          "name": "",
          "type": "bytes32"
        }
      ],
      "stateMutability": "view",
      "type": "function"
    },
    {
      "inputs": [],
      "name": "REWARD_ACCESS_ROLE",
      "outputs": [
        {
          "internalType": "bytes32",
          "name": "",
          "type": "bytes32"
        }
      ],
      "stateMutability": "view",
      "type": "function"
    },
    {
      "inputs": [],
      "name": "VAULT_ACCESS_ROLE",
      "outputs": [
        {
          "internalType": "bytes32",
          "name": "",
          "type": "bytes32"
        }
      ],
      "stateMutability": "view",
      "type": "function"
    },
    {
      "inputs": [],
      "name": "cdpRegistry",
      "outputs": [
        {
          "internalType": "contract ISuCdpRegistry",
          "name": "",
          "type": "address"
        }
      ],
      "stateMutability": "view",
      "type": "function"
    },
    {
      "inputs": [
        {
          "internalType": "address",
          "name": "asset",
          "type": "address"
        },
        {
          "internalType": "uint256",
          "name": "assetAmountEDecimal",
          "type": "uint256"
        },
        {
          "internalType": "uint256",
          "name": "stablecoinAmountE18",
          "type": "uint256"
        }
      ],
      "name": "exit",
      "outputs": [],
      "stateMutability": "nonpayable",
      "type": "function"
    },
    {
      "inputs": [],
      "name": "foundation",
      "outputs": [
        {
          "internalType": "address",
          "name": "",
          "type": "address"
        }
      ],
      "stateMutability": "view",
      "type": "function"
    },
    {
      "inputs": [
        {
          "internalType": "address",
          "name": "asset",
          "type": "address"
        },
        {
          "internalType": "address",
          "name": "owner",
          "type": "address"
        }
      ],
      "name": "getAvailableToBorrowE18",
      "outputs": [
        {
          "internalType": "uint256",
          "name": "",
          "type": "uint256"
        }
      ],
      "stateMutability": "view",
      "type": "function"
    },
    {
      "inputs": [
        {
          "internalType": "address",
          "name": "asset",
          "type": "address"
        },
        {
          "internalType": "address",
          "name": "owner",
          "type": "address"
        }
      ],
      "name": "getAvailableToWithdrawE18",
      "outputs": [
        {
          "internalType": "uint256",
          "name": "",
          "type": "uint256"
        }
      ],
      "stateMutability": "view",
      "type": "function"
    },
    {
      "inputs": [
        {
          "internalType": "address",
          "name": "asset",
          "type": "address"
        },
        {
          "internalType": "address",
          "name": "owner",
          "type": "address"
        }
      ],
      "name": "getCollateralUsdValueE18",
      "outputs": [
        {
          "internalType": "uint256",
          "name": "",
          "type": "uint256"
        }
      ],
      "stateMutability": "view",
      "type": "function"
    },
    {
      "inputs": [
        {
          "internalType": "address",
          "name": "asset",
          "type": "address"
        },
        {
          "internalType": "address",
          "name": "owner",
          "type": "address"
        }
      ],
      "name": "getLTVE18",
      "outputs": [
        {
          "internalType": "uint256",
          "name": "",
          "type": "uint256"
        }
      ],
      "stateMutability": "view",
      "type": "function"
    },
    {
      "inputs": [
        {
          "internalType": "address",
          "name": "asset",
          "type": "address"
        },
        {
          "internalType": "address",
          "name": "owner",
          "type": "address"
        }
      ],
      "name": "getLiquidationBlock",
      "outputs": [
        {
          "internalType": "uint256",
          "name": "",
          "type": "uint256"
        }
      ],
      "stateMutability": "view",
      "type": "function"
    },
    {
      "inputs": [
        {
          "internalType": "address",
          "name": "asset",
          "type": "address"
        },
        {
          "internalType": "address",
          "name": "owner",
          "type": "address"
        }
      ],
      "name": "getPositionInfo",
      "outputs": [
        {
          "internalType": "uint256",
          "name": "collateralEDecimal",
          "type": "uint256"
        },
        {
          "internalType": "uint256",
          "name": "debtWithFeesE18",
          "type": "uint256"
        }
      ],
      "stateMutability": "view",
      "type": "function"
    },
    {
      "inputs": [
        {
          "internalType": "address",
          "name": "",
          "type": "address"
        }
      ],
      "name": "initialCollateralRatioE18",
      "outputs": [
        {
          "internalType": "uint256",
          "name": "",
          "type": "uint256"
        }
      ],
      "stateMutability": "view",
      "type": "function"
    },
    {
      "inputs": [
        {
          "internalType": "address",
          "name": "_vault",
          "type": "address"
        },
        {
          "internalType": "address",
          "name": "_suOracle",
          "type": "address"
        },
        {
          "internalType": "address",
          "name": "_cdpRegistry",
          "type": "address"
        },
        {
          "internalType": "address",
          "name": "_suLiquidationMiddleware",
          "type": "address"
        },
        {
          "internalType": "address",
          "name": "_stablePro",
          "type": "address"
        },
        {
          "internalType": "address",
          "name": "_foundation",
          "type": "address"
        },
        {
          "internalType": "address",
          "name": "_suPausable",
          "type": "address"
        }
      ],
      "name": "initialize",
      "outputs": [],
      "stateMutability": "nonpayable",
      "type": "function"
    },
    {
      "inputs": [
        {
          "internalType": "address",
          "name": "asset",
          "type": "address"
        },
        {
          "internalType": "address",
          "name": "owner",
          "type": "address"
        }
      ],
      "name": "isLiquidatablePosition",
      "outputs": [
        {
          "internalType": "bool",
          "name": "",
          "type": "bool"
        }
      ],
      "stateMutability": "view",
      "type": "function"
    },
    {
      "inputs": [
        {
          "internalType": "address",
          "name": "asset",
          "type": "address"
        },
        {
          "internalType": "uint256",
          "name": "assetAmountEDecimal",
          "type": "uint256"
        },
        {
          "internalType": "uint256",
          "name": "stablecoinAmountE18",
          "type": "uint256"
        },
        {
          "internalType": "uint256",
          "name": "lockupPeriodSeconds",
          "type": "uint256"
        }
      ],
      "name": "join",
      "outputs": [],
      "stateMutability": "nonpayable",
      "type": "function"
    },
    {
      "inputs": [
        {
          "internalType": "address",
          "name": "asset",
          "type": "address"
        },
        {
          "internalType": "address",
          "name": "owner",
          "type": "address"
        },
        {
          "internalType": "uint256",
          "name": "additionalCollateralAmount",
          "type": "uint256"
        },
        {
          "internalType": "uint256",
          "name": "additionalStablecoinAmount",
          "type": "uint256"
        }
      ],
      "name": "liquidationPriceByAmount",
      "outputs": [
        {
          "internalType": "uint256",
          "name": "",
          "type": "uint256"
        }
      ],
      "stateMutability": "view",
      "type": "function"
    },
    {
      "inputs": [
        {
          "internalType": "address",
          "name": "asset",
          "type": "address"
        },
        {
          "internalType": "address",
          "name": "owner",
          "type": "address"
        }
      ],
      "name": "liquidationPriceE18",
      "outputs": [
        {
          "internalType": "uint256",
          "name": "",
          "type": "uint256"
        }
      ],
      "stateMutability": "view",
      "type": "function"
    },
    {
      "inputs": [
        {
          "internalType": "address",
          "name": "",
          "type": "address"
        }
      ],
      "name": "liquidationRatioE18",
      "outputs": [
        {
          "internalType": "uint256",
          "name": "",
          "type": "uint256"
        }
      ],
      "stateMutability": "view",
      "type": "function"
    },
    {
      "inputs": [],
      "name": "minCollateralInUsdE18",
      "outputs": [
        {
          "internalType": "uint256",
          "name": "",
          "type": "uint256"
        }
      ],
      "stateMutability": "view",
      "type": "function"
    },
    {
      "inputs": [
        {
          "internalType": "address",
          "name": "asset",
          "type": "address"
        },
        {
          "internalType": "uint256",
          "name": "stabilityFeeValueE18",
          "type": "uint256"
        },
        {
          "internalType": "uint256",
          "name": "initialCollateralRatioValueE18",
          "type": "uint256"
        },
        {
          "internalType": "uint256",
          "name": "liquidationRatioValueE18",
          "type": "uint256"
        },
        {
          "internalType": "uint256",
          "name": "stablecoinLimitE18",
          "type": "uint256"
        },
        {
          "internalType": "uint256",
          "name": "minCollateralInUsdValueE18",
          "type": "uint256"
        }
      ],
      "name": "setCollateral",
      "outputs": [],
      "stateMutability": "nonpayable",
      "type": "function"
    },
    {
      "inputs": [
        {
          "internalType": "address",
          "name": "asset",
          "type": "address"
        },
        {
          "internalType": "uint256",
          "name": "newValueE18",
          "type": "uint256"
        }
      ],
      "name": "setInitialCollateralRatioE18",
      "outputs": [],
      "stateMutability": "nonpayable",
      "type": "function"
    },
    {
      "inputs": [
        {
          "internalType": "address",
          "name": "asset",
          "type": "address"
        },
        {
          "internalType": "uint256",
          "name": "newValueE18",
          "type": "uint256"
        }
      ],
      "name": "setLiquidationRatioE18",
      "outputs": [],
      "stateMutability": "nonpayable",
      "type": "function"
    },
    {
      "inputs": [
        {
          "internalType": "uint256",
          "name": "newValueE18",
          "type": "uint256"
        }
      ],
      "name": "setMinCollateralInUsdE18",
      "outputs": [],
      "stateMutability": "nonpayable",
      "type": "function"
    },
    {
      "inputs": [
        {
          "internalType": "bytes4",
          "name": "interfaceId",
          "type": "bytes4"
        }
      ],
      "name": "supportsInterface",
      "outputs": [
        {
          "internalType": "bool",
          "name": "",
          "type": "bool"
        }
      ],
      "stateMutability": "view",
      "type": "function"
    },
    {
      "inputs": [
        {
          "internalType": "address",
          "name": "asset",
          "type": "address"
        },
        {
          "internalType": "address",
          "name": "owner",
          "type": "address"
        }
      ],
      "name": "triggerLiquidation",
      "outputs": [],
      "stateMutability": "nonpayable",
      "type": "function"
    },
    {
      "inputs": [
        {
          "internalType": "address",
          "name": "asset",
          "type": "address"
        },
        {
          "internalType": "address",
          "name": "owner",
          "type": "address"
        }
      ],
      "name": "utilizationRatioE18",
      "outputs": [
        {
          "internalType": "uint256",
          "name": "",
          "type": "uint256"
        }
      ],
      "stateMutability": "view",
      "type": "function"
    },
    {
      "inputs": [],
      "name": "vault",
      "outputs": [
        {
          "internalType": "contract ISuVault",
          "name": "",
          "type": "address"
        }
      ],
      "stateMutability": "view",
      "type": "function"
    },
    {
      "inputs": [],
      "name": "vaultParameters",
      "outputs": [
        {
          "internalType": "contract SuVaultParameters",
          "name": "",
          "type": "address"
        }
      ],
      "stateMutability": "view",
      "type": "function"
    },
    {
      "stateMutability": "payable",
      "type": "receive"
    }
  ],
  "numDeployments": 6,
  "solcInputHash": "dd557791782b2a744fb91d3e74be9d42",
  "bytecode": "0x6080806040523461001657612c8b908161001c8239f35b600080fdfe608080604052600436101561002d575b50361561001b57600080fd5b60405163ccc0891360e01b8152600490fd5b600090813560e01c90816301ffc9a714611be05750806303ee9f2214611bb7578063112e1400146118fc578063134a02dd146118c557806314c376dc1461188a5780631c656c391461185d5780633587647614611436578063392c0ce7146114095780634030815e146113dc57806341fbb050146113b357806343070b7a1461137e578063438280dd146113435780634c9a55501461129f57806356d8be56146112725780636338e4d7146112455780636f16cbf71461118357806375b238fc1461116757806376b5070c146111325780638e5313e0146110f75780639077beac1461103b578063ab2a2a8214611012578063aca345ee14610fe9578063ada9e5ad14610d7f578063af368fbd14610c63578063bb497dcc14610c45578063bbdc95311461080d578063cf1334041461076e578063d4796d12146102e8578063dc97e84e146102ad578063e63ab1e914610272578063e6bc046114610239578063e9c2651814610210578063f3f481df146101d75763fbfa77cf0361000f57346101d457806003193601126101d4576042546040516001600160a01b039091168152602090f35b80fd5b50346101d45760203660031901126101d4576020906040906001600160a01b036101ff611c69565b168152603483522054604051908152f35b50346101d457806003193601126101d4576020604051600080516020612c368339815191528152f35b50346101d45760203660031901126101d4576020906040906001600160a01b03610261611c69565b168152603583522054604051908152f35b50346101d457806003193601126101d45760206040517f65d7a28e3265b37a6474929f336521b332c1681b933f6cb9f3376673440d862a8152f35b50346101d457806003193601126101d45760206040517f9a9aef7c1247d5fc769b0185c052913e39673da29a880317dfd20ebf86f26a498152f35b50346101d45760403660031901126101d457610302611c69565b61030a611c7f565b603854604051631ce4b4a760e01b81526020916001600160a01b03919082169083818061033b888a60048401611d59565b0381855afa908115610724578791610741575b5061072f57816039541683604051809263134a02dd60e01b825281806103788a8c60048401611d59565b03915afa9081156107245787916106f7575b50156106e5578086913b156106cd5781604051809263c640752d60e01b82528183816103ba8b8d60048401611d59565b03925af180156105bf576106d1575b508160385416803b156106cd57816040518092636a3cb68960e11b82528183816103f78b8d60048401611d59565b03925af180156105bf576106b9575b506038546040516334e3b77960e01b81529390831681858061042c898b60048401611d59565b0381845afa9485156106ae57839561067b575b50604051636aee125d60e11b81529582878061045f848c60048401611d59565b0381855afa96871561067057849761063d575b5060405163f084843d60e01b8152838180610491858d60048401611d59565b0381865afa9384156106325785946105fa575b5050813b156105f6578391888388936104d560405197889687958694636f70e66f60e01b8652309160048701611e2e565b03925af180156105bf576105de575b505060058202828104600514831517156105ca578592916103e861053292049061050f823389612b3a565b61052881603b5416610521848761229a565b9089612b3a565b603b54169261229a565b90803b156105bb5783839161055f938360405180968195829463fb31318760e01b84528c60048501611e61565b03925af180156105bf576105a7575b50507f518c4e18971712e9ead4b0494dcf1bfc39d789cf7622ddfc960c7d62661512da916105a160405192839283612b1f565b0390a180f35b6105b090611c95565b6105bb57823861056e565b8280fd5b6040513d84823e3d90fd5b634e487b7160e01b86526011600452602486fd5b6105e790611c95565b6105f25784386104e4565b8480fd5b8380fd5b819550809294503d831161062b575b6106138183611cbe565b81010312610626578792519138806104a4565b600080fd5b503d610609565b6040513d87823e3d90fd5b83809298508195503d8311610669575b6106578183611cbe565b81010312610626578792519538610472565b503d61064d565b6040513d86823e3d90fd5b82809296508194503d83116106a7575b6106958183611cbe565b8101031261062657869151933861043f565b503d61068b565b6040513d85823e3d90fd5b6106c290611c95565b6105f2578438610406565b5080fd5b6106da90611c95565b6105f25784386103c9565b604051632066819b60e21b8152600490fd5b6107179150843d861161071d575b61070f8183611cbe565b810190611ce1565b3861038a565b503d610705565b6040513d89823e3d90fd5b60405163fa5af4cd60e01b8152600490fd5b90508381813d8311610767575b6107588183611cbe565b8101031261062657513861034e565b503d61074e565b50346101d45760203660031901126101d457603354604051632474521560e21b8152600080516020612c36833981519152600482015233602482015290602090829060449082906001600160a01b03165afa9081156105bf5782916107ef575b50156107dd5760043560365580f35b60405163599a6c3360e11b8152600490fd5b610807915060203d811161071d5761070f8183611cbe565b386107ce565b50346101d45760603660031901126101d457610827611c69565b60443590602435610836611dd8565b60018060a01b03908160415416604051635b14f18360e01b8152808486169283600483015281602460209485935afa908115610aec578891610c28575b50610c16578590846042541696604051631ce4b4a760e01b815282818061089e338c60048401611d59565b03818c5afa908115610b67578a91610be9575b5061072f57889760405163f084843d60e01b928382528482806108d98d339060048401611d59565b0381865afa918215610bde578b92610bac575b508110610ba4575b5060405163034c188b60e41b81529083828061091588338e60048501611db6565b0381845afa918215610b67578a92610b72575b50803b15610b4b57898561095a9289838d60405196879586948593636f70e66f60e01b85523390339060048701611e2e565b03925af1908115610b67578a91610b4f575b50506109783389611f88565b8660425416803b15610b4b5760405163628a468360e01b8152918a9183918290849082906109ab908b3360048501611e61565b03925af1908115610b2c578991610b37575b50508560425416906040519081528281806109dc338c60048401611d59565b0381855afa908115610b2c578991610afb575b50610a86575b506040519384528301527fa702ae6024e8b4c2b0eb162b1453dacb93cf6922f5a2d7236faed898c21148f860403393a360435416803b15610a8257604051632ed56dff60e21b81529183918391829084908290610a5790339060048401611d59565b03925af180156105bf57610a6e575b506001805580f35b610a7790611c95565b6101d4578038610a66565b5050fd5b803b15610af75760405163c640752d60e01b81529088908290818381610ab0338e60048401611d59565b03925af1908115610aec578891610ad4575b5050610ace3387611ec8565b386109f5565b610add90611c95565b610ae8578638610ac2565b8680fd5b6040513d8a823e3d90fd5b8780fd5b809950838092503d8311610b25575b610b148183611cbe565b8101031261062657889751386109ef565b503d610b0a565b6040513d8b823e3d90fd5b610b4090611c95565b610af75787386109bd565b8980fd5b610b5890611c95565b610b6357883861096c565b8880fd5b6040513d8c823e3d90fd5b995090508289813d8111610b9d575b610b8b8183611cbe565b81010312610626578998519038610928565b503d610b81565b9350386108f4565b9a509050838a813d8111610bd7575b610bc58183611cbe565b81010312610626578a995190386108ec565b503d610bbb565b6040513d8d823e3d90fd5b90508281813d8311610c0f575b610c008183611cbe565b810103126106265751386108b1565b503d610bf6565b604051631785c68160e01b8152600490fd5b610c3f9150823d841161071d5761070f8183611cbe565b38610873565b50346101d457806003193601126101d4576020603654604051908152f35b50346101d45760403660031901126101d457610c7d611c69565b90610c86611c7f565b603e546040516334e3b77960e01b81526001600160a01b0390911693909291602091828580610cb9858560048401611d59565b0381895afa948515610670578495610d4c575b5060405163f084843d60e01b8152958392879283918291610cf1919060048401611d59565b03915afa918215610d405791610d10575b604080945051928352820152f35b80915083813d8311610d39575b610d278183611cbe565b81010312610626576040925190610d02565b503d610d1d565b604051903d90823e3d90fd5b919094508282813d8311610d78575b610d658183611cbe565b8101031261062657905193610cf1610ccc565b503d610d5b565b50346101d45760c03660031901126101d457610d99611c69565b6044359060643560018060a01b039283603354169060405194632474521560e21b9485875286600080516020612c368339815191529485600483015233602483015281604460209a8b935afa908115610b2c578991610fcc575b50156107dd57878260375416803b156106cd57816040518092639fea3e0760e01b8252818381610e2c6084356024358b60048501611e61565b03925af180156105bf57610fb8575b50506044878360335416604051928380928b82528960048301523360248301525afa908115610b2c578991610f9b575b50156107dd5782158015610f8a575b610f78578116918288526034875260408820556044868260335416604051928380928a82528860048301523360248301525afa908115610aec578891610f5b575b50156107dd5783158015610f47575b610f35578593604492885260358552604088205560335416936040519485938492835260048301523360248301525afa9182156106ae578392610f18575b5050156107dd5760a43560365580f35b610f2e9250803d1061071d5761070f8183611cbe565b3880610f08565b604051630906beff60e11b8152600490fd5b508187526034865260408720548410610eca565b610f729150873d891161071d5761070f8183611cbe565b38610ebb565b604051636ae75f5b60e01b8152600490fd5b50670de0b6b3a76400008311610e7a565b610fb29150883d8a1161071d5761070f8183611cbe565b38610e6b565b610fc190611c95565b610af7578738610e3b565b610fe39150883d8a1161071d5761070f8183611cbe565b38610df3565b50346101d457806003193601126101d4576037546040516001600160a01b039091168152602090f35b50346101d457806003193601126101d4576043546040516001600160a01b039091168152602090f35b50346101d45760403660031901126101d457611055611c69565b6024359060018060a01b039060446020836033541660405192838092632474521560e21b8252600080516020612c3683398151915260048301523360248301525afa9081156106325785916110d9575b50156107dd57821580156110c8575b610f78571682526034602052604082205580f35b50670de0b6b3a764000083116110b4565b6110f1915060203d811161071d5761070f8183611cbe565b386110a5565b50346101d457806003193601126101d45760206040517fe453bacb314e78dcd5192e6b1a2b1f0e7c76e92f6b7e429a6a90f04e39db3b768152f35b50346101d45760403660031901126101d457602061115f611151611c69565b611159611c7f565b906123d5565b604051908152f35b50346101d457806003193601126101d457602090604051908152f35b50346101d45760403660031901126101d45761119d611c69565b6024359060018060a01b039060446020836033541660405192838092632474521560e21b8252600080516020612c3683398151915260048301523360248301525afa908115610632578591611227575b50156107dd5782158015611210575b610f35571682526035602052604082205580f35b5081811684526034602052604084205483106111fc565b61123f915060203d811161071d5761070f8183611cbe565b386111ed565b50346101d45760403660031901126101d457602061115f611264611c69565b61126c611c7f565b9061266e565b50346101d45760403660031901126101d457602061115f611291611c69565b611299611c7f565b906122a7565b50346101d45760403660031901126101d4576112f59060206112bf611c69565b6112c7611c7f565b603e54604051631ce4b4a760e01b81529586936001600160a01b039092169284928392919060048401611d59565b03915afa908115610d405790611311575b602090604051908152f35b506020813d821161133b575b8161132a60209383611cbe565b810103126106265760209051611306565b3d915061131d565b50346101d457806003193601126101d45760206040517f39f61ca2a1a28fee144218173ec637b649a353e4026b2738c673800e5bf1437b8152f35b50346101d45760803660031901126101d457602061115f61139d611c69565b6113a5611c7f565b9060643591604435916128a6565b50346101d457806003193601126101d457603d546040516001600160a01b039091168152602090f35b50346101d45760403660031901126101d457602061115f6113fb611c69565b611403611c7f565b906120fa565b50346101d45760403660031901126101d457602061115f611428611c69565b611430611c7f565b906121eb565b50346101d45760e03660031901126101d457611450611c69565b611458611c7f565b6044356001600160a01b038116810361062657606435926001600160a01b038416840361062657608435926001600160a01b03841684036106265760a435906001600160a01b03821682036106265760c435916001600160a01b03831683036106265787549560ff8760081c161596878098611850575b8015611839575b156117dd5760ff1981166001178a55876117cc575b506001600160a01b0386161580156117bb575b6117315788549761151460ff8a60081c16611cf9565b61152360ff8a60081c16611cf9565b6001805561153660ff8a60081c16611cf9565b6040516301f74f9160e11b81526020816004816001600160a01b038b165afa908115610bde578b91611774575b506024906020906001600160a01b031661158360088d901c60ff16611cf9565b603380546001600160a01b031916821790556040516301ffc9a760e01b8152637965db0b60e01b600482015292839182905afa908115610bde578b91611755575b501561174357603780546001600160a01b0319166001600160a01b038816179055674563918244f4000060365561160160088a901c60ff16611cf9565b61161060ff8a60081c16611cf9565b61161f60ff8a60081c16611cf9565b603980546001600160a01b031990811630179091556038805482166001600160a01b0389811691909117909155603a805483168a8316179055603b8054831693821693909317909255603c8054821693831693909317909255603d805490921692811692909217905516801561173157603f80546001600160a01b03199081163017909155603e805482166001600160a01b039586169081179091556040805483169390931790925560418054821693851693909317909255604280548316909117905560438054909116929091169190911790556116fc575080f35b61ff00191681557f7f26b83ff96e1f2b6a682f133852f6798a09c465da95921460cefb3847402498602060405160018152a180f35b6040516350dd03f760e11b8152600490fd5b6040516384d942fd60e01b8152600490fd5b61176e915060203d60201161071d5761070f8183611cbe565b386115c4565b90506020813d6020116117b3575b8161178f60209383611cbe565b810103126117af57516001600160a01b03811681036117af576020611563565b8a80fd5b3d9150611782565b506001600160a01b038316156114fe565b61ffff1916610101178955386114eb565b60405162461bcd60e51b815260206004820152602e60248201527f496e697469616c697a61626c653a20636f6e747261637420697320616c72656160448201526d191e481a5b9a5d1a585b1a5e995960921b6064820152608490fd5b50303b1580156114d65750600160ff8216146114d6565b50600160ff8216106114cf565b50346101d45760403660031901126101d457602061115f61187c611c69565b611884611c7f565b90612a7c565b50346101d457806003193601126101d45760206040517fe965846df3dd5b1dfa65f58e31477079e90140e0908b6dd31b5aead5a57cf3658152f35b50346101d45760403660031901126101d45760206118f26118e4611c69565b6118ec611c7f565b90611fc2565b6040519015158152f35b50346101d45760803660031901126101d457611916611c69565b6044359190602435611926611dd8565b60018060a01b0390816041541660405195635b14f18360e01b8752868486169283600483015281602460209a8b935afa908115610724578791611b9a575b50610c165780158080611b92575b611b805760405163313ce56760e01b81528881600481875afa908115610aec5760129160ff918a91611b53575b501611611b415715611a745785968460425416803b15610af7578760405180926320e8c56560e01b82528183816119e08d8c60643591339060048601611d8c565b03925af1908115610aec578891611a60575b50505b6119ff3387611f88565b6040519384528301527f6423b6056e64b3b29cb2d342362b47c26fa8d6877da27ea152354060df19b9bc60403393a360435416803b15610a8257604051632ed56dff60e21b81529183918391829084908290610a5790339060048401611d59565b611a6990611c95565b610ae85786386119f2565b82611ae3575b85968460425416803b15610af7576040516314890dcb60e21b81529088908290818381611aac89338f60048501611db6565b03925af1908115610aec578891611acf575b5050611aca3387611ec8565b6119f5565b611ad890611c95565b610ae8578638611abe565b836042541696873b15610ae8576040516320e8c56560e01b81529787908990818381611b176064358b338f60048601611d8c565b03925af1801561072457611b2d575b9650611a7a565b959096611b3990611c95565b948690611b26565b604051636a78e98160e11b8152600490fd5b611b7391508b3d8d11611b79575b611b6b8183611cbe565b810190611d73565b3861199f565b503d611b61565b60405163fa95696160e01b8152600490fd5b508315611972565b611bb19150883d8a1161071d5761070f8183611cbe565b38611964565b50346101d457806003193601126101d4576033546040516001600160a01b039091168152602090f35b9050346106cd5760203660031901126106cd5760043563ffffffff60e01b81168091036105bb576033546301ffc9a760e01b83526004830191909152602090829060249082906001600160a01b03165afa9081156105bf5760209291611c4c575b506040519015158152f35b611c639150823d811161071d5761070f8183611cbe565b38611c41565b600435906001600160a01b038216820361062657565b602435906001600160a01b038216820361062657565b6001600160401b038111611ca857604052565b634e487b7160e01b600052604160045260246000fd5b601f909101601f19168101906001600160401b03821190821017611ca857604052565b90816020910312610626575180151581036106265790565b15611d0057565b60405162461bcd60e51b815260206004820152602b60248201527f496e697469616c697a61626c653a20636f6e7472616374206973206e6f74206960448201526a6e697469616c697a696e6760a81b6064820152608490fd5b6001600160a01b0391821681529116602082015260400190565b90816020910312610626575160ff811681036106265790565b6001600160a01b039182168152911660208201526040810191909152606081019190915260800190565b6001600160a01b03918216815291166020820152604081019190915260600190565b600260015414611de9576002600155565b60405162461bcd60e51b815260206004820152601f60248201527f5265656e7472616e637947756172643a207265656e7472616e742063616c6c006044820152606490fd5b6001600160a01b039182168152918116602083015290911660408201526060810191909152608081019190915260a00190565b604091949392606082019560018060a01b0316825260208201520152565b81810292918115918404141715611e9257565b634e487b7160e01b600052601160045260246000fd5b8115611eb2570490565b634e487b7160e01b600052601260045260246000fd5b90611f276020611ed883856120fa565b9260018060a01b0394670de0b6b3a7640000611f04600096888416885260348652604088205490611e7f565b0495604254169060405180958194829363a6ea8b8760e01b845260048401611d59565b03915afa918215610d40578092611f54575b505011611f4257565b6040516330b58a9160e01b8152600490fd5b9091506020823d8211611f80575b81611f6f60209383611cbe565b810103126101d45750513880611f39565b3d9150611f62565b90611f92916120fa565b8015159081611fb5575b50611fa357565b604051633fc1a63760e11b8152600490fd5b9050603654101538611f9c565b90611fcd81836120fa565b9182156120f257603e5460405163a6ea8b8760e01b81526020946001600160a01b03949092869183918716908290819061200b908960048401611d59565b03915afa9081156120af576000916120c5575b5080156120bb57670de0b6b3a764000080820291820403611e9257849161204491611ea8565b603f5460405163e6bc046160e01b81529385166004850152909383916024918391165afa9283156120af5760009361207e575b5050101590565b8181949293943d83116120a8575b6120968183611cbe565b810103126101d4575051903880612077565b503d61208c565b6040513d6000823e3d90fd5b5050505050600090565b908582813d83116120eb575b6120db8183611cbe565b810103126101d45750513861201e565b503d6120d1565b505050600090565b61212b9060018060a01b0380603e54169360405180956334e3b77960e01b8252818060209788958860048401611d59565b03915afa9384156120af576000946121bc575b50604080549051631735856760e31b81529282166004840152839183916024918391165afa9182156120af5760009261218b575b5050670de0b6b3a76400009161218791611e7f565b0490565b81819392933d83116121b5575b6121a28183611cbe565b810103126101d457505181612187612172565b503d612198565b90938382813d83116121e4575b6121d38183611cbe565b810103126101d4575051928261213e565b503d6121c9565b6121f582826120fa565b9081156120f257603e5460405163f084843d60e01b81529360209285926001600160a01b0316918391829161222d9160048401611d59565b03915afa9182156120af57600092612267575b50670de0b6b3a764000091828102928184041490151715611e925761226491611ea8565b90565b90916020823d8211612292575b8161228160209383611cbe565b810103126101d45750519038612240565b3d9150612274565b91908203918211611e9257565b906122b281836120fa565b603f5460405163f3f481df60e01b81526001600160a01b038581166004830152946020949390928590839060249082908a165afa9182156120af5760009261238d575b5091670de0b6b3a76400006123108695936123339795611e7f565b0495603e54169060405180968194829363a6ea8b8760e01b845260048401611d59565b03915afa9081156120af57600091612361575b5080915082111561235a576122649161229a565b5050600090565b82813d8311612386575b6123758183611cbe565b810103126101d45750518038612346565b503d61236b565b90918582813d83116123bd575b6123a48183611cbe565b810103126101d457505190670de0b6b3a76400006122f5565b503d61239a565b60ff16604d8111611e9257600a0a90565b603e54604080516334e3b77960e01b8152936001600160a01b03939192909160049160209190861682888061240d8886898401611d59565b0381845afa9788156125da5760009861262e575b508686541691865195631735856760e31b875284876024818c861697888b8301525afa968715612623576000976125f4575b5086156125e557875163f084843d60e01b815292859284928391829161247b918b8401611d59565b03915afa9081156125da576000916125ad575b50855163313ce56760e01b815283818681865afa9081156125a2576124c692916124c091600091612585575b506123c4565b90611e7f565b95670de0b6b3a764000096878102978189041490151715612570579060248392603f5416948751958693849263f3f481df60e01b84528301525afa9384156125665750600093612531575b50509161252561252b926122649594611e7f565b90611ea8565b9061229a565b8181949293943d831161255f575b6125498183611cbe565b810103126101d457505190612525612264612511565b503d61253f565b513d6000823e3d90fd5b601184634e487b7160e01b6000525260246000fd5b61259c9150863d8811611b7957611b6b8183611cbe565b386124ba565b87513d6000823e3d90fd5b908382813d83116125d3575b6125c38183611cbe565b810103126101d45750513861248e565b503d6125b9565b86513d6000823e3d90fd5b50505050505050505050600090565b90968582813d831161261c575b61260b8183611cbe565b810103126101d45750519538612453565b503d612601565b88513d6000823e3d90fd5b90978382813d8311612656575b6126458183611cbe565b810103126101d45750519638612421565b503d61263b565b60ff166012039060ff8211611e9257565b603e546040805163a6ea8b8760e01b81526001600160a01b0394919360049360209391908716908484806126a586858b8401611d59565b0381855afa9384156125a25760009461286a575b50831561285c57670de0b6b3a7640000938481029081048503612847576024868a603f54169a8a519283809263e6bc046160e01b825287169d8e8d8301525afa90811561283c5760009161280d575b5061271291611ea8565b8481029481860414901517156127f8579184916127439388518095819482936334e3b77960e01b84528b8401611d59565b03915afa9081156127ed579083916000916127bd575b506127649192611ea8565b9484519384809263313ce56760e01b82525afa928315612566575061226493926125259261279b926000926127a0575b505061265d565b6123c4565b6127b69250803d10611b7957611b6b8183611cbe565b3880612794565b9182813d83116127e6575b6127d28183611cbe565b810103126101d45750518290612764612759565b503d6127c8565b85513d6000823e3d90fd5b601186634e487b7160e01b6000525260246000fd5b908782813d8311612835575b6128238183611cbe565b810103126101d4575051612712612708565b503d612819565b89513d6000823e3d90fd5b601187634e487b7160e01b6000525260246000fd5b505050505050505060001990565b90938582813d8311612892575b6128818183611cbe565b810103126101d457505192386126b9565b503d612877565b91908201809211611e9257565b603e546040805163a6ea8b8760e01b815293959094600494602094936001600160a01b039081169390918681806128e08d8a8d8401611d59565b0381885afa90811561283c57600091612a4d575b50906128ff91612899565b978815612a3e57670de0b6b3a764000093848a02998a048503612a295782603f541699878a51809563e6bc046160e01b825289169c8d8c830152815a91602492fa938415612a1e5790889392916000956129e6575b5061297d9461296291611ea8565b968a518095819482936334e3b77960e01b84528d8401611d59565b03915afa9081156125a2576000916129b7575b509061299b91612899565b9181810291818304149015171561257057829161276491611ea8565b908582813d83116129df575b6129cd8183611cbe565b810103126101d457505161299b612990565b503d6129c3565b91938281969294963d8311612a17575b612a008183611cbe565b810103126101d45750519287929091612962612954565b503d6129f6565b8a513d6000823e3d90fd5b601188634e487b7160e01b6000525260246000fd5b50505050505050505060001990565b908782813d8311612a75575b612a638183611cbe565b810103126101d45750516128ff6128f4565b503d612a59565b603e5460405163a6ea8b8760e01b8152929060209084906001600160a01b03168180612aac868860048401611d59565b03915afa9283156120af57600093612aec575b5082156120f257612acf916120fa565b670de0b6b3a764000080830292830403611e925761226491611ea8565b90926020823d8211612b17575b81612b0660209383611cbe565b810103126101d45750519138612abf565b3d9150612af9565b6001600160a01b039091168152602081019190915260400190565b6040519182612b5c6020958683019363a9059cbb60e01b855260248401612b1f565b0392612b70601f1994858101835282611cbe565b600092839283809351925af1913d15612c2c573d6001600160401b038111612c1857612ba68560405193601f8401160183611cbe565b81528091843d92013e5b81612be8575b5015612bbf5750565b6064906040519062461bcd60e51b82526004820152600260248201526114d560f21b6044820152fd5b80518015925083908315612c00575b50505038612bb6565b612c109350820181019101611ce1565b388281612bf7565b634e487b7160e01b83526041600452602483fd5b50506060612bb056fe3b5d4cc60d3ec3516ee8ae083bd60934f6eb2a6c54b1229985c41bfb092b2603a2646970667358221220cfa401b28a85db530034f9b526b147f865d57ca60c4a3625453c976462ff556264736f6c63430008110033",
  "devdoc": {
    "kind": "dev",
    "methods": {
      "setInitialCollateralRatioE18(address,uint256)": {
        "details": "Sets the initial collateral ratio",
        "params": {
          "asset": "The address of the main collateral token",
          "newValueE18": "The collateralization ratio (1e18 = 100%)*"
        }
      },
      "setLiquidationRatioE18(address,uint256)": {
        "details": "Sets the liquidation ratio",
        "params": {
          "asset": "The address of the main collateral token",
          "newValueE18": "The liquidation ratio (1e18 = 100%).*"
        }
      },
      "setMinCollateralInUsdE18(uint256)": {
        "details": "Sets a minimum value of collateral in USD which allowed to be left after partial closure",
        "params": {
          "newValueE18": "The minimum value of collateral in USD"
        }
      },
      "supportsInterface(bytes4)": {
        "details": "Returns true if this contract implements the interface defined by `interfaceId`. See the corresponding https://eips.ethereum.org/EIPS/eip-165#how-interfaces-are-identified[EIP section] to learn more about how these ids are created. This function call must use less than 30 000 gas."
      },
      "triggerLiquidation(address,address)": {
        "details": "Emits LiquidationTriggered event. Sets the current block as liquidationBlock for the position. Can be triggered only once for the position. Add order for liquidated collateral to sell it by stablecoin from whitelist"
      }
    },
    "version": 1
  },
  "userdoc": {
    "kind": "user",
    "methods": {
      "setInitialCollateralRatioE18(address,uint256)": {
        "notice": "Only manager is able to call this function"
      },
      "setLiquidationRatioE18(address,uint256)": {
        "notice": "Only manager is able to call this function"
      },
      "setMinCollateralInUsdE18(uint256)": {
        "notice": "Only manager is able to call this function"
      }
    },
    "version": 1
  },
  "storageLayout": {
    "storage": [
      {
        "astId": 461,
        "contract": "contracts/lending/SuManager.sol:SuManager",
        "label": "_initialized",
        "offset": 0,
        "slot": "0",
        "type": "t_uint8"
      },
      {
        "astId": 464,
        "contract": "contracts/lending/SuManager.sol:SuManager",
        "label": "_initializing",
        "offset": 1,
        "slot": "0",
        "type": "t_bool"
      },
      {
        "astId": 637,
        "contract": "contracts/lending/SuManager.sol:SuManager",
        "label": "_status",
        "offset": 0,
        "slot": "1",
        "type": "t_uint256"
      },
      {
        "astId": 706,
        "contract": "contracts/lending/SuManager.sol:SuManager",
        "label": "__gap",
        "offset": 0,
        "slot": "2",
        "type": "t_array(t_uint256)49_storage"
      },
      {
        "astId": 9094,
        "contract": "contracts/lending/SuManager.sol:SuManager",
        "label": "ACCESS_CONTROL_SINGLETON",
        "offset": 0,
        "slot": "51",
        "type": "t_contract(ISuAccessControl)16250"
      },
      {
        "astId": 18973,
        "contract": "contracts/lending/SuManager.sol:SuManager",
        "label": "initialCollateralRatioE18",
        "offset": 0,
        "slot": "52",
        "type": "t_mapping(t_address,t_uint256)"
      },
      {
        "astId": 18977,
        "contract": "contracts/lending/SuManager.sol:SuManager",
        "label": "liquidationRatioE18",
        "offset": 0,
        "slot": "53",
        "type": "t_mapping(t_address,t_uint256)"
      },
      {
        "astId": 18979,
        "contract": "contracts/lending/SuManager.sol:SuManager",
        "label": "minCollateralInUsdE18",
        "offset": 0,
        "slot": "54",
        "type": "t_uint256"
      },
      {
        "astId": 18982,
        "contract": "contracts/lending/SuManager.sol:SuManager",
        "label": "vaultParameters",
        "offset": 0,
        "slot": "55",
        "type": "t_contract(SuVaultParameters)20114"
      },
      {
        "astId": 18768,
        "contract": "contracts/lending/SuManager.sol:SuManager",
        "label": "_vault",
        "offset": 0,
        "slot": "56",
        "type": "t_contract(ISuVault)17077"
      },
      {
        "astId": 18771,
        "contract": "contracts/lending/SuManager.sol:SuManager",
        "label": "_manager",
        "offset": 0,
        "slot": "57",
        "type": "t_contract(ISuManager)16528"
      },
      {
        "astId": 18774,
        "contract": "contracts/lending/SuManager.sol:SuManager",
        "label": "_cdpRegistry",
        "offset": 0,
        "slot": "58",
        "type": "t_contract(ISuCdpRegistry)16335"
      },
      {
        "astId": 18777,
        "contract": "contracts/lending/SuManager.sol:SuManager",
        "label": "_liquidationMiddleware",
        "offset": 0,
        "slot": "59",
        "type": "t_contract(ISuLiquidationMiddleware)16465"
      },
      {
        "astId": 18779,
        "contract": "contracts/lending/SuManager.sol:SuManager",
        "label": "_stablePro",
        "offset": 0,
        "slot": "60",
        "type": "t_address"
      },
      {
        "astId": 18781,
        "contract": "contracts/lending/SuManager.sol:SuManager",
        "label": "foundation",
        "offset": 0,
        "slot": "61",
        "type": "t_address"
      },
      {
        "astId": 18267,
        "contract": "contracts/lending/SuManager.sol:SuManager",
        "label": "_VAULT",
        "offset": 0,
        "slot": "62",
        "type": "t_contract(ISuVault)17077"
      },
      {
        "astId": 18270,
        "contract": "contracts/lending/SuManager.sol:SuManager",
        "label": "_MANAGER",
        "offset": 0,
        "slot": "63",
        "type": "t_contract(ISuManager)16528"
      },
      {
        "astId": 18273,
        "contract": "contracts/lending/SuManager.sol:SuManager",
        "label": "_ORACLE",
        "offset": 0,
        "slot": "64",
        "type": "t_contract(ISuOracle)16726"
      },
      {
        "astId": 9788,
        "contract": "contracts/lending/SuManager.sol:SuManager",
        "label": "suPausable",
        "offset": 0,
        "slot": "65",
        "type": "t_contract(ISuPausable)16841"
      },
      {
        "astId": 17863,
        "contract": "contracts/lending/SuManager.sol:SuManager",
        "label": "vault",
        "offset": 0,
        "slot": "66",
        "type": "t_contract(ISuVault)17077"
      },
      {
        "astId": 17866,
        "contract": "contracts/lending/SuManager.sol:SuManager",
        "label": "cdpRegistry",
        "offset": 0,
        "slot": "67",
        "type": "t_contract(ISuCdpRegistry)16335"
      }
    ],
    "types": {
      "t_address": {
        "encoding": "inplace",
        "label": "address",
        "numberOfBytes": "20"
      },
      "t_array(t_uint256)49_storage": {
        "base": "t_uint256",
        "encoding": "inplace",
        "label": "uint256[49]",
        "numberOfBytes": "1568"
      },
      "t_bool": {
        "encoding": "inplace",
        "label": "bool",
        "numberOfBytes": "1"
      },
      "t_contract(ISuAccessControl)16250": {
        "encoding": "inplace",
        "label": "contract ISuAccessControl",
        "numberOfBytes": "20"
      },
      "t_contract(ISuCdpRegistry)16335": {
        "encoding": "inplace",
        "label": "contract ISuCdpRegistry",
        "numberOfBytes": "20"
      },
      "t_contract(ISuLiquidationMiddleware)16465": {
        "encoding": "inplace",
        "label": "contract ISuLiquidationMiddleware",
        "numberOfBytes": "20"
      },
      "t_contract(ISuManager)16528": {
        "encoding": "inplace",
        "label": "contract ISuManager",
        "numberOfBytes": "20"
      },
      "t_contract(ISuOracle)16726": {
        "encoding": "inplace",
        "label": "contract ISuOracle",
        "numberOfBytes": "20"
      },
      "t_contract(ISuPausable)16841": {
        "encoding": "inplace",
        "label": "contract ISuPausable",
        "numberOfBytes": "20"
      },
      "t_contract(ISuVault)17077": {
        "encoding": "inplace",
        "label": "contract ISuVault",
        "numberOfBytes": "20"
      },
      "t_contract(SuVaultParameters)20114": {
        "encoding": "inplace",
        "label": "contract SuVaultParameters",
        "numberOfBytes": "20"
      },
      "t_mapping(t_address,t_uint256)": {
        "encoding": "mapping",
        "key": "t_address",
        "label": "mapping(address => uint256)",
        "numberOfBytes": "32",
        "value": "t_uint256"
      },
      "t_uint256": {
        "encoding": "inplace",
        "label": "uint256",
        "numberOfBytes": "32"
      },
      "t_uint8": {
        "encoding": "inplace",
        "label": "uint8",
        "numberOfBytes": "1"
      }
    }
  }
}