{
  "address": "0xB2981676f4d042f5714990879Fa2b700cc5eAF89",
  "abi": [
    {
      "inputs": [],
      "name": "BadInitialCollateralRatioValue",
      "type": "error"
    },
    {
      "inputs": [],
      "name": "BadLiquidationRatioValue",
      "type": "error"
    },
    {
      "inputs": [],
      "name": "InvalidArgs",
      "type": "error"
    },
    {
      "inputs": [],
      "name": "LiquidationIsNotTriggered",
      "type": "error"
    },
    {
      "inputs": [],
      "name": "LiquidationIsTriggered",
      "type": "error"
    },
    {
      "inputs": [],
      "name": "PositionIsSafe",
      "type": "error"
    },
    {
      "inputs": [],
      "name": "Restricted",
      "type": "error"
    },
    {
      "inputs": [],
      "name": "SmallCollateral",
      "type": "error"
    },
    {
      "inputs": [],
      "name": "UnderCollateralized",
      "type": "error"
    },
    {
      "inputs": [],
      "name": "UnsupportedDecimals",
      "type": "error"
    },
    {
      "inputs": [],
      "name": "UselessTransaction",
      "type": "error"
    },
    {
      "anonymous": false,
      "inputs": [
        {
          "indexed": true,
          "internalType": "address",
          "name": "asset",
          "type": "address"
        },
        {
          "indexed": true,
          "internalType": "address",
          "name": "owner",
          "type": "address"
        },
        {
          "indexed": false,
          "internalType": "uint256",
          "name": "main",
          "type": "uint256"
        },
        {
          "indexed": false,
          "internalType": "uint256",
          "name": "stablecoin",
          "type": "uint256"
        }
      ],
      "name": "Exit",
      "type": "event"
    },
    {
      "anonymous": false,
      "inputs": [
        {
          "indexed": true,
          "internalType": "address",
          "name": "asset",
          "type": "address"
        },
        {
          "indexed": true,
          "internalType": "address",
          "name": "owner",
          "type": "address"
        },
        {
          "indexed": false,
          "internalType": "uint256",
          "name": "main",
          "type": "uint256"
        },
        {
          "indexed": false,
          "internalType": "uint256",
          "name": "stablecoin",
          "type": "uint256"
        }
      ],
      "name": "Join",
      "type": "event"
    },
    {
      "inputs": [],
      "name": "ACCESS_CONTROL_SINGLETON",
      "outputs": [
        {
          "internalType": "contract ISuAccessControl",
          "name": "",
          "type": "address"
        }
      ],
      "stateMutability": "view",
      "type": "function"
    },
    {
      "inputs": [],
      "name": "LIQUIDATION_ACCESS_ROLE",
      "outputs": [
        {
          "internalType": "bytes32",
          "name": "",
          "type": "bytes32"
        }
      ],
      "stateMutability": "view",
      "type": "function"
    },
    {
      "inputs": [],
      "name": "MINTER_ROLE",
      "outputs": [
        {
          "internalType": "bytes32",
          "name": "",
          "type": "bytes32"
        }
      ],
      "stateMutability": "view",
      "type": "function"
    },
    {
      "inputs": [],
      "name": "VAULT_ACCESS_ROLE",
      "outputs": [
        {
          "internalType": "bytes32",
          "name": "",
          "type": "bytes32"
        }
      ],
      "stateMutability": "view",
      "type": "function"
    },
    {
      "inputs": [
        {
          "internalType": "address",
          "name": "asset",
          "type": "address"
        },
        {
          "internalType": "uint256",
          "name": "assetAmountEDecimal",
          "type": "uint256"
        },
        {
          "internalType": "uint256",
          "name": "stablecoinAmountE18",
          "type": "uint256"
        }
      ],
      "name": "exit",
      "outputs": [],
      "stateMutability": "nonpayable",
      "type": "function"
    },
    {
      "inputs": [
        {
          "internalType": "address",
          "name": "asset",
          "type": "address"
        },
        {
          "internalType": "address",
          "name": "owner",
          "type": "address"
        }
      ],
      "name": "getAvailableToBorrowE18",
      "outputs": [
        {
          "internalType": "uint256",
          "name": "",
          "type": "uint256"
        }
      ],
      "stateMutability": "view",
      "type": "function"
    },
    {
      "inputs": [
        {
          "internalType": "address",
          "name": "asset",
          "type": "address"
        },
        {
          "internalType": "address",
          "name": "owner",
          "type": "address"
        }
      ],
      "name": "getAvailableToWithdrawE18",
      "outputs": [
        {
          "internalType": "uint256",
          "name": "",
          "type": "uint256"
        }
      ],
      "stateMutability": "view",
      "type": "function"
    },
    {
      "inputs": [
        {
          "internalType": "address",
          "name": "asset",
          "type": "address"
        },
        {
          "internalType": "address",
          "name": "owner",
          "type": "address"
        }
      ],
      "name": "getCollateralUsdValueE18",
      "outputs": [
        {
          "internalType": "uint256",
          "name": "",
          "type": "uint256"
        }
      ],
      "stateMutability": "view",
      "type": "function"
    },
    {
      "inputs": [
        {
          "internalType": "address",
          "name": "asset",
          "type": "address"
        },
        {
          "internalType": "address",
          "name": "owner",
          "type": "address"
        }
      ],
      "name": "getLTVE18",
      "outputs": [
        {
          "internalType": "uint256",
          "name": "",
          "type": "uint256"
        }
      ],
      "stateMutability": "view",
      "type": "function"
    },
    {
      "inputs": [
        {
          "internalType": "address",
          "name": "asset",
          "type": "address"
        },
        {
          "internalType": "address",
          "name": "owner",
          "type": "address"
        }
      ],
      "name": "getLiquidationBlock",
      "outputs": [
        {
          "internalType": "uint256",
          "name": "",
          "type": "uint256"
        }
      ],
      "stateMutability": "view",
      "type": "function"
    },
    {
      "inputs": [
        {
          "internalType": "address",
          "name": "asset",
          "type": "address"
        },
        {
          "internalType": "address",
          "name": "owner",
          "type": "address"
        }
      ],
      "name": "getPositionInfo",
      "outputs": [
        {
          "internalType": "uint256",
          "name": "liquidationBlock",
          "type": "uint256"
        },
        {
          "internalType": "uint256",
          "name": "collateralEDecimal",
          "type": "uint256"
        },
        {
          "internalType": "uint256",
          "name": "debtWithFeesE18",
          "type": "uint256"
        }
      ],
      "stateMutability": "view",
      "type": "function"
    },
    {
      "inputs": [
        {
          "internalType": "address",
          "name": "",
          "type": "address"
        }
      ],
      "name": "initialCollateralRatioE18",
      "outputs": [
        {
          "internalType": "uint256",
          "name": "",
          "type": "uint256"
        }
      ],
      "stateMutability": "view",
      "type": "function"
    },
    {
      "inputs": [
        {
          "internalType": "address",
          "name": "_vault",
          "type": "address"
        },
        {
          "internalType": "address",
          "name": "_suOracle",
          "type": "address"
        }
      ],
      "name": "initialize",
      "outputs": [],
      "stateMutability": "nonpayable",
      "type": "function"
    },
    {
      "inputs": [
        {
          "internalType": "address",
          "name": "asset",
          "type": "address"
        },
        {
          "internalType": "address",
          "name": "owner",
          "type": "address"
        }
      ],
      "name": "isLiquidatablePosition",
      "outputs": [
        {
          "internalType": "bool",
          "name": "",
          "type": "bool"
        }
      ],
      "stateMutability": "view",
      "type": "function"
    },
    {
      "inputs": [
        {
          "internalType": "address",
          "name": "asset",
          "type": "address"
        },
        {
          "internalType": "uint256",
          "name": "assetAmountEDecimal",
          "type": "uint256"
        },
        {
          "internalType": "uint256",
          "name": "stablecoinAmountE18",
          "type": "uint256"
        },
        {
          "internalType": "uint256",
          "name": "lockupPeriodSeconds",
          "type": "uint256"
        }
      ],
      "name": "join",
      "outputs": [],
      "stateMutability": "nonpayable",
      "type": "function"
    },
    {
      "inputs": [
        {
          "internalType": "address",
          "name": "asset",
          "type": "address"
        },
        {
          "internalType": "address",
          "name": "owner",
          "type": "address"
        },
        {
          "internalType": "address",
          "name": "repayer",
          "type": "address"
        },
        {
          "internalType": "uint256",
          "name": "stablecoinsToRepaymentE18",
          "type": "uint256"
        },
        {
          "internalType": "uint256",
          "name": "assetAmountEDecimal",
          "type": "uint256"
        }
      ],
      "name": "liquidate",
      "outputs": [],
      "stateMutability": "nonpayable",
      "type": "function"
    },
    {
      "inputs": [
        {
          "internalType": "address",
          "name": "asset",
          "type": "address"
        },
        {
          "internalType": "address",
          "name": "owner",
          "type": "address"
        },
        {
          "internalType": "uint256",
          "name": "additionalCollateralAmount",
          "type": "uint256"
        },
        {
          "internalType": "uint256",
          "name": "additionalStablecoinAmount",
          "type": "uint256"
        }
      ],
      "name": "liquidationPriceByAmount",
      "outputs": [
        {
          "internalType": "uint256",
          "name": "",
          "type": "uint256"
        }
      ],
      "stateMutability": "view",
      "type": "function"
    },
    {
      "inputs": [
        {
          "internalType": "address",
          "name": "asset",
          "type": "address"
        },
        {
          "internalType": "address",
          "name": "owner",
          "type": "address"
        }
      ],
      "name": "liquidationPriceE18",
      "outputs": [
        {
          "internalType": "uint256",
          "name": "",
          "type": "uint256"
        }
      ],
      "stateMutability": "view",
      "type": "function"
    },
    {
      "inputs": [
        {
          "internalType": "address",
          "name": "",
          "type": "address"
        }
      ],
      "name": "liquidationRatioE18",
      "outputs": [
        {
          "internalType": "uint256",
          "name": "",
          "type": "uint256"
        }
      ],
      "stateMutability": "view",
      "type": "function"
    },
    {
      "inputs": [],
      "name": "minCollateralInUsdE18",
      "outputs": [
        {
          "internalType": "uint256",
          "name": "",
          "type": "uint256"
        }
      ],
      "stateMutability": "view",
      "type": "function"
    },
    {
      "inputs": [
        {
          "internalType": "address",
          "name": "asset",
          "type": "address"
        },
        {
          "internalType": "uint256",
          "name": "stabilityFeeValueE18",
          "type": "uint256"
        },
        {
          "internalType": "uint256",
          "name": "initialCollateralRatioValueE18",
          "type": "uint256"
        },
        {
          "internalType": "uint256",
          "name": "liquidationRatioValueE18",
          "type": "uint256"
        },
        {
          "internalType": "uint256",
          "name": "stablecoinLimitE18",
          "type": "uint256"
        },
        {
          "internalType": "uint256",
          "name": "minCollateralInUsdValueE18",
          "type": "uint256"
        }
      ],
      "name": "setCollateral",
      "outputs": [],
      "stateMutability": "nonpayable",
      "type": "function"
    },
    {
      "inputs": [
        {
          "internalType": "address",
          "name": "asset",
          "type": "address"
        },
        {
          "internalType": "uint256",
          "name": "newValueE18",
          "type": "uint256"
        }
      ],
      "name": "setInitialCollateralRatioE18",
      "outputs": [],
      "stateMutability": "nonpayable",
      "type": "function"
    },
    {
      "inputs": [
        {
          "internalType": "address",
          "name": "asset",
          "type": "address"
        },
        {
          "internalType": "uint256",
          "name": "newValueE18",
          "type": "uint256"
        }
      ],
      "name": "setLiquidationRatioE18",
      "outputs": [],
      "stateMutability": "nonpayable",
      "type": "function"
    },
    {
      "inputs": [
        {
          "internalType": "uint256",
          "name": "newValueE18",
          "type": "uint256"
        }
      ],
      "name": "setMinCollateralInUsdE18",
      "outputs": [],
      "stateMutability": "nonpayable",
      "type": "function"
    },
    {
      "inputs": [
        {
          "internalType": "address",
          "name": "asset",
          "type": "address"
        },
        {
          "internalType": "address",
          "name": "owner",
          "type": "address"
        }
      ],
      "name": "triggerLiquidation",
      "outputs": [],
      "stateMutability": "nonpayable",
      "type": "function"
    },
    {
      "inputs": [
        {
          "internalType": "address",
          "name": "asset",
          "type": "address"
        },
        {
          "internalType": "address",
          "name": "owner",
          "type": "address"
        }
      ],
      "name": "utilizationRatioE18",
      "outputs": [
        {
          "internalType": "uint256",
          "name": "",
          "type": "uint256"
        }
      ],
      "stateMutability": "view",
      "type": "function"
    },
    {
      "inputs": [],
      "name": "vault",
      "outputs": [
        {
          "internalType": "contract ISuVault",
          "name": "",
          "type": "address"
        }
      ],
      "stateMutability": "view",
      "type": "function"
    },
    {
      "inputs": [],
      "name": "vaultParameters",
      "outputs": [
        {
          "internalType": "contract SuVaultParameters",
          "name": "",
          "type": "address"
        }
      ],
      "stateMutability": "view",
      "type": "function"
    },
    {
      "stateMutability": "payable",
      "type": "receive"
    }
  ],
  "numDeployments": 3,
  "solcInputHash": "863628f94ed63f668290e10f5356c02b",
  "bytecode": "0x608060405234801561001057600080fd5b50612c63806100206000396000f3fe60806040526004361061014b5760003560e01c806303ee9f221461016e578063112e1400146101a4578063134a02dd146101c657806314c376dc146101f65780631c656c3914610238578063392c0ce7146102585780634030815e1461027857806343070b7a14610298578063485cc955146102b85780634c9a5550146102d857806356d8be56146102f85780636338e4d7146103185780636f16cbf7146103385780636f70e66f1461035857806376b5070c146103785780639077beac14610398578063aca345ee146103b8578063ada9e5ad146103d8578063af368fbd146103f8578063bb497dcc14610433578063bbdc953114610449578063cf13340414610469578063d4796d1214610489578063d5391393146104a9578063dc97e84e146104dd578063e6bc0461146104ff578063f3f481df1461052c578063fbfa77cf1461055957600080fd5b366101695760405163ccc0891360e01b815260040160405180910390fd5b600080fd5b34801561017a57600080fd5b5060335461018e906001600160a01b031681565b60405161019b9190612661565b60405180910390f35b3480156101b057600080fd5b506101c46101bf36600461268d565b610579565b005b3480156101d257600080fd5b506101e66101e13660046126c8565b610807565b604051901515815260200161019b565b34801561020257600080fd5b5061022a7fe965846df3dd5b1dfa65f58e31477079e90140e0908b6dd31b5aead5a57cf36581565b60405190815260200161019b565b34801561024457600080fd5b5061022a6102533660046126c8565b61093d565b34801561026457600080fd5b5061022a6102733660046126c8565b6109fd565b34801561028457600080fd5b5061022a6102933660046126c8565b610aa7565b3480156102a457600080fd5b5061022a6102b3366004612701565b610bb9565b3480156102c457600080fd5b506101c46102d33660046126c8565b610e0e565b3480156102e457600080fd5b5061022a6102f33660046126c8565b610f0a565b34801561030457600080fd5b5061022a6103133660046126c8565b610f85565b34801561032457600080fd5b5061022a6103333660046126c8565b6110c7565b34801561034457600080fd5b506101c4610353366004612747565b6112eb565b34801561036457600080fd5b506101c4610373366004612773565b6113d9565b34801561038457600080fd5b5061022a6103933660046126c8565b6115f1565b3480156103a457600080fd5b506101c46103b3366004612747565b611894565b3480156103c457600080fd5b5060375461018e906001600160a01b031681565b3480156103e457600080fd5b506101c46103f33660046127ce565b611972565b34801561040457600080fd5b506104186104133660046126c8565b611a8d565b6040805193845260208401929092529082015260600161019b565b34801561043f57600080fd5b5061022a60365481565b34801561045557600080fd5b506101c461046436600461281a565b611bf6565b34801561047557600080fd5b506101c461048436600461284f565b611fbe565b34801561049557600080fd5b506101c46104a43660046126c8565b612053565b3480156104b557600080fd5b5061022a7f9f2df0fed2c77648de5860a4cc508cd0818c85b8b8a1ab4ceeef8d981c8956a681565b3480156104e957600080fd5b5061022a600080516020612c0e83398151915281565b34801561050b57600080fd5b5061022a61051a366004612868565b60356020526000908152604090205481565b34801561053857600080fd5b5061022a610547366004612868565b60346020526000908152604090205481565b34801561056557600080fd5b50603d5461018e906001600160a01b031681565b6002600154036105a45760405162461bcd60e51b815260040161059b90612885565b60405180910390fd5b6002600155811580156105b5575082155b156105d35760405163fa95696160e01b815260040160405180910390fd5b6012846001600160a01b031663313ce5676040518163ffffffff1660e01b8152600401602060405180830381865afa158015610613573d6000803e3d6000fd5b505050506040513d601f19601f8201168201806040525081019061063791906128bc565b60ff16111561065957604051636a78e98160e11b815260040160405180910390fd5b816000036106ce57603d546040516320e8c56560e01b81526001600160a01b03909116906320e8c565906106979087903390889087906004016128df565b600060405180830381600087803b1580156106b157600080fd5b505af11580156106c5573d6000803e3d6000fd5b505050506107ad565b821561073d57603d546040516320e8c56560e01b81526001600160a01b03909116906320e8c5659061070a9087903390889087906004016128df565b600060405180830381600087803b15801561072457600080fd5b505af1158015610738573d6000803e3d6000fd5b505050505b603d546040516314890dcb60e21b81526001600160a01b0390911690635224372c9061077190879033908790600401612908565b600060405180830381600087803b15801561078b57600080fd5b505af115801561079f573d6000803e3d6000fd5b505050506107ad843361223a565b6107b7843361231e565b604080518481526020810184905233916001600160a01b038716917f6423b6056e64b3b29cb2d342362b47c26fa8d6877da27ea152354060df19b9bc910160405180910390a35050600180555050565b6000806108148484610aa7565b603a5460405163a6ea8b8760e01b81529192506000916001600160a01b039091169063a6ea8b879061084c908890889060040161292c565b602060405180830381865afa158015610869573d6000803e3d6000fd5b505050506040513d601f19601f8201168201806040525081019061088d9190612946565b9050806000036108a257600092505050610937565b603b5460405163e6bc046160e01b81526001600160a01b039091169063e6bc0461906108d2908890600401612661565b602060405180830381865afa1580156108ef573d6000803e3d6000fd5b505050506040513d601f19601f820116820180604052508101906109139190612946565b8261092683670de0b6b3a7640000612975565b610930919061298c565b1015925050505b92915050565b603a5460405163a6ea8b8760e01b815260009182916001600160a01b039091169063a6ea8b8790610974908790879060040161292c565b602060405180830381865afa158015610991573d6000803e3d6000fd5b505050506040513d601f19601f820116820180604052508101906109b59190612946565b9050806000036109c9576000915050610937565b60006109d58585610aa7565b9050806109ea83670de0b6b3a7640000612975565b6109f4919061298c565b95945050505050565b600080610a0a8484610aa7565b905080600003610a1e576000915050610937565b603a5460405163f084843d60e01b81526000916001600160a01b03169063f084843d90610a51908890889060040161292c565b602060405180830381865afa158015610a6e573d6000803e3d6000fd5b505050506040513d601f19601f82011682018060405250810190610a929190612946565b9050816109ea82670de0b6b3a7640000612975565b603a546040516334e3b77960e01b815260009182916001600160a01b03909116906334e3b77990610ade908790879060040161292c565b602060405180830381865afa158015610afb573d6000803e3d6000fd5b505050506040513d601f19601f82011682018060405250810190610b1f9190612946565b603c546040516306addfb360e31b8152919250670de0b6b3a76400009183916001600160a01b03169063356efd9890610b5c908990600401612661565b602060405180830381865afa158015610b79573d6000803e3d6000fd5b505050506040513d601f19601f82011682018060405250810190610b9d9190612946565b610ba79190612975565b610bb1919061298c565b949350505050565b603a5460405163a6ea8b8760e01b8152600091829184916001600160a01b03169063a6ea8b8790610bf0908a908a9060040161292c565b602060405180830381865afa158015610c0d573d6000803e3d6000fd5b505050506040513d601f19601f82011682018060405250810190610c319190612946565b610c3b91906129ae565b905080600003610c5057600019915050610bb1565b603b5460405163e6bc046160e01b81526000916001600160a01b03169063e6bc046190610c81908a90600401612661565b602060405180830381865afa158015610c9e573d6000803e3d6000fd5b505050506040513d601f19601f82011682018060405250810190610cc29190612946565b610cd483670de0b6b3a7640000612975565b610cde919061298c565b603a546040516334e3b77960e01b815291925060009187916001600160a01b0316906334e3b77990610d16908c908c9060040161292c565b602060405180830381865afa158015610d33573d6000803e3d6000fd5b505050506040513d601f19601f82011682018060405250810190610d579190612946565b610d6191906129ae565b9050876001600160a01b031663313ce5676040518163ffffffff1660e01b8152600401602060405180830381865afa158015610da1573d6000803e3d6000fd5b505050506040513d601f19601f82011682018060405250810190610dc591906128bc565b610dd09060126129c1565b610ddb90600a612abe565b81610dee84670de0b6b3a7640000612975565b610df8919061298c565b610e02919061298c565b98975050505050505050565b600054610100900460ff16610e295760005460ff1615610e2d565b303b155b610e905760405162461bcd60e51b815260206004820152602e60248201527f496e697469616c697a61626c653a20636f6e747261637420697320616c72656160448201526d191e481a5b9a5d1a585b1a5e995960921b606482015260840161059b565b600054610100900460ff16158015610eb2576000805461ffff19166101011790555b610eba612438565b610ec383612469565b610ecd3084612528565b610ed8308484612585565b603d80546001600160a01b0319166001600160a01b0385161790558015610f05576000805461ff00191690555b505050565b603a54604051631ce4b4a760e01b81526000916001600160a01b031690631ce4b4a790610f3d908690869060040161292c565b602060405180830381865afa158015610f5a573d6000803e3d6000fd5b505050506040513d601f19601f82011682018060405250810190610f7e9190612946565b9392505050565b600080610f928484610aa7565b603b5460405163f3f481df60e01b8152919250600091670de0b6b3a7640000916001600160a01b03169063f3f481df90610fd0908990600401612661565b602060405180830381865afa158015610fed573d6000803e3d6000fd5b505050506040513d601f19601f820116820180604052508101906110119190612946565b61101b9084612975565b611025919061298c565b603a5460405163a6ea8b8760e01b81529192506000916001600160a01b039091169063a6ea8b879061105d908990899060040161292c565b602060405180830381865afa15801561107a573d6000803e3d6000fd5b505050506040513d601f19601f8201168201806040525081019061109e9190612946565b90508082116110b35760009350505050610937565b6110bd8183612acd565b9695505050505050565b603a5460405163a6ea8b8760e01b815260009182916001600160a01b039091169063a6ea8b87906110fe908790879060040161292c565b602060405180830381865afa15801561111b573d6000803e3d6000fd5b505050506040513d601f19601f8201168201806040525081019061113f9190612946565b90508060000361115457600019915050610937565b603b5460405163e6bc046160e01b81526000916001600160a01b03169063e6bc046190611185908890600401612661565b602060405180830381865afa1580156111a2573d6000803e3d6000fd5b505050506040513d601f19601f820116820180604052508101906111c69190612946565b6111d883670de0b6b3a7640000612975565b6111e2919061298c565b9050846001600160a01b031663313ce5676040518163ffffffff1660e01b8152600401602060405180830381865afa158015611222573d6000803e3d6000fd5b505050506040513d601f19601f8201168201806040525081019061124691906128bc565b6112519060126129c1565b61125c90600a612abe565b603a546040516334e3b77960e01b81526001600160a01b03909116906334e3b7799061128e908990899060040161292c565b602060405180830381865afa1580156112ab573d6000803e3d6000fd5b505050506040513d601f19601f820116820180604052508101906112cf9190612946565b6112e183670de0b6b3a7640000612975565b6109ea919061298c565b603354604051632474521560e21b81526001600160a01b03909116906391d148549061131e906000903390600401612ae0565b602060405180830381865afa15801561133b573d6000803e3d6000fd5b505050506040513d601f19601f8201168201806040525081019061135f9190612af7565b61137b5760405162461bcd60e51b815260040161059b90612b19565b80158061139f57506001600160a01b03821660009081526034602052604090205481105b156113bd57604051630906beff60e11b815260040160405180910390fd5b6001600160a01b03909116600090815260356020526040902055565b6002600154036113fb5760405162461bcd60e51b815260040161059b90612885565b6002600155603354604051632474521560e21b81526001600160a01b03909116906391d148549061144090600080516020612c0e833981519152903390600401612ae0565b602060405180830381865afa15801561145d573d6000803e3d6000fd5b505050506040513d601f19601f820116820180604052508101906114819190612af7565b6114df5760405162461bcd60e51b815260206004820152602960248201527f5375417574683a206f6e6c794c69717569646174696f6e416363657373204155604482015268151217d1905253115160ba1b606482015260840161059b565b603854604051631ce4b4a760e01b81526001600160a01b0390911690631ce4b4a790611511908890889060040161292c565b602060405180830381865afa15801561152e573d6000803e3d6000fd5b505050506040513d601f19601f820116820180604052508101906115529190612946565b600003611572576040516308ae8efb60e31b815260040160405180910390fd5b603854604051636f70e66f60e01b81526001600160a01b0390911690636f70e66f906115aa9088908890889087908990600401612b50565b600060405180830381600087803b1580156115c457600080fd5b505af11580156115d8573d6000803e3d6000fd5b505050506115e6853361231e565b505060018055505050565b603a546040516334e3b77960e01b815260009182916001600160a01b03909116906334e3b77990611628908790879060040161292c565b602060405180830381865afa158015611645573d6000803e3d6000fd5b505050506040513d601f19601f820116820180604052508101906116699190612946565b603c546040516306addfb360e31b81529192506000916001600160a01b039091169063356efd989061169f908890600401612661565b602060405180830381865afa1580156116bc573d6000803e3d6000fd5b505050506040513d601f19601f820116820180604052508101906116e09190612946565b9050806000036116f557600092505050610937565b603a5460405163f084843d60e01b81526000916001600160a01b03169063f084843d90611728908990899060040161292c565b602060405180830381865afa158015611745573d6000803e3d6000fd5b505050506040513d601f19601f820116820180604052508101906117699190612946565b603b5460405163f3f481df60e01b81529192506000916001600160a01b039091169063f3f481df9061179f908a90600401612661565b602060405180830381865afa1580156117bc573d6000803e3d6000fd5b505050506040513d601f19601f820116820180604052508101906117e09190612946565b6117ea9084612975565b876001600160a01b031663313ce5676040518163ffffffff1660e01b8152600401602060405180830381865afa158015611828573d6000803e3d6000fd5b505050506040513d601f19601f8201168201806040525081019061184c91906128bc565b61185790600a612abe565b6118619084612975565b61187390670de0b6b3a7640000612975565b61187d919061298c565b90506118898185612acd565b979650505050505050565b603354604051632474521560e21b81526001600160a01b03909116906391d14854906118c7906000903390600401612ae0565b602060405180830381865afa1580156118e4573d6000803e3d6000fd5b505050506040513d601f19601f820116820180604052508101906119089190612af7565b6119245760405162461bcd60e51b815260040161059b90612b19565b8015806119385750670de0b6b3a764000081115b1561195657604051636ae75f5b60e01b815260040160405180910390fd5b6001600160a01b03909116600090815260346020526040902055565b603354604051632474521560e21b81526001600160a01b03909116906391d14854906119a5906000903390600401612ae0565b602060405180830381865afa1580156119c2573d6000803e3d6000fd5b505050506040513d601f19601f820116820180604052508101906119e69190612af7565b611a025760405162461bcd60e51b815260040161059b90612b19565b603754604051639fea3e0760e01b81526001600160a01b0390911690639fea3e0790611a3690899089908790600401612b84565b600060405180830381600087803b158015611a5057600080fd5b505af1158015611a64573d6000803e3d6000fd5b50505050611a728685611894565b611a7c86846112eb565b611a8581611fbe565b505050505050565b603a54604051631ce4b4a760e01b8152600091829182916001600160a01b031690631ce4b4a790611ac4908890889060040161292c565b602060405180830381865afa158015611ae1573d6000803e3d6000fd5b505050506040513d601f19601f82011682018060405250810190611b059190612946565b603a546040516334e3b77960e01b81529194506001600160a01b0316906334e3b77990611b38908890889060040161292c565b602060405180830381865afa158015611b55573d6000803e3d6000fd5b505050506040513d601f19601f82011682018060405250810190611b799190612946565b603a5460405163f084843d60e01b81529193506001600160a01b03169063f084843d90611bac908890889060040161292c565b602060405180830381865afa158015611bc9573d6000803e3d6000fd5b505050506040513d601f19601f82011682018060405250810190611bed9190612946565b90509250925092565b600260015403611c185760405162461bcd60e51b815260040161059b90612885565b6002600155603d54604051631ce4b4a760e01b81526000916001600160a01b031690631ce4b4a790611c50908790339060040161292c565b602060405180830381865afa158015611c6d573d6000803e3d6000fd5b505050506040513d601f19601f82011682018060405250810190611c919190612946565b1115611cb05760405163fa5af4cd60e01b815260040160405180910390fd5b603d5460405163f084843d60e01b81526000916001600160a01b03169063f084843d90611ce3908790339060040161292c565b602060405180830381865afa158015611d00573d6000803e3d6000fd5b505050506040513d601f19601f82011682018060405250810190611d249190612946565b905080821115611d32578091505b603d5460405163034c188b60e41b81526000916001600160a01b0316906334c188b090611d6790889033908890600401612908565b602060405180830381865afa158015611d84573d6000803e3d6000fd5b505050506040513d601f19601f82011682018060405250810190611da89190612946565b603d54604051636f70e66f60e01b81529192506001600160a01b031690636f70e66f90611de1908890339081908a908a90600401612b50565b600060405180830381600087803b158015611dfb57600080fd5b505af1158015611e0f573d6000803e3d6000fd5b50505050611e1d853361231e565b603d5460405163628a468360e01b81526001600160a01b039091169063628a468390611e5190339087908690600401612b84565b600060405180830381600087803b158015611e6b57600080fd5b505af1158015611e7f573d6000803e3d6000fd5b5050603d5460405163f084843d60e01b8152600093506001600160a01b03909116915063f084843d90611eb8908990339060040161292c565b602060405180830381865afa158015611ed5573d6000803e3d6000fd5b505050506040513d601f19601f82011682018060405250810190611ef99190612946565b1115611f6d57603d5460405163c640752d60e01b81526001600160a01b039091169063c640752d90611f31908890339060040161292c565b600060405180830381600087803b158015611f4b57600080fd5b505af1158015611f5f573d6000803e3d6000fd5b50505050611f6d853361223a565b604080518581526020810185905233916001600160a01b038816917fa702ae6024e8b4c2b0eb162b1453dacb93cf6922f5a2d7236faed898c21148f8910160405180910390a3505060018055505050565b603354604051632474521560e21b81526001600160a01b03909116906391d1485490611ff1906000903390600401612ae0565b602060405180830381865afa15801561200e573d6000803e3d6000fd5b505050506040513d601f19601f820116820180604052508101906120329190612af7565b61204e5760405162461bcd60e51b815260040161059b90612b19565b603655565b603854604051631ce4b4a760e01b81526000916001600160a01b031690631ce4b4a790612086908690869060040161292c565b602060405180830381865afa1580156120a3573d6000803e3d6000fd5b505050506040513d601f19601f820116820180604052508101906120c79190612946565b11156120e65760405163fa5af4cd60e01b815260040160405180910390fd5b60395460405163134a02dd60e01b81526001600160a01b039091169063134a02dd90612118908590859060040161292c565b602060405180830381865afa158015612135573d6000803e3d6000fd5b505050506040513d601f19601f820116820180604052508101906121599190612af7565b61217657604051632066819b60e21b815260040160405180910390fd5b60385460405163c640752d60e01b81526001600160a01b039091169063c640752d906121a8908590859060040161292c565b600060405180830381600087803b1580156121c257600080fd5b505af11580156121d6573d6000803e3d6000fd5b5050603854604051636a3cb68960e11b81526001600160a01b03909116925063d4796d12915061220c908590859060040161292c565b600060405180830381600087803b15801561222657600080fd5b505af1158015611a85573d6000803e3d6000fd5b60006122468383610aa7565b6001600160a01b03841660009081526034602052604081205491925090670de0b6b3a7640000906122779084612975565b612281919061298c565b603d5460405163a6ea8b8760e01b815291925082916001600160a01b039091169063a6ea8b87906122b8908890889060040161292c565b602060405180830381865afa1580156122d5573d6000803e3d6000fd5b505050506040513d601f19601f820116820180604052508101906122f99190612946565b1115612318576040516330b58a9160e01b815260040160405180910390fd5b50505050565b60395460405163201840af60e11b81526000916001600160a01b031690634030815e90612351908690869060040161292c565b602060405180830381865afa15801561236e573d6000803e3d6000fd5b505050506040513d601f19601f820116820180604052508101906123929190612946565b905060008111801561241a5750603960009054906101000a90046001600160a01b03166001600160a01b031663bb497dcc6040518163ffffffff1660e01b8152600401602060405180830381865afa1580156123f2573d6000803e3d6000fd5b505050506040513d601f19601f820116820180604052508101906124169190612946565b8111155b15610f0557604051633fc1a63760e11b815260040160405180910390fd5b600054610100900460ff1661245f5760405162461bcd60e51b815260040161059b90612ba5565b6124676125eb565b565b600054610100900460ff166124905760405162461bcd60e51b815260040161059b90612ba5565b6124fa816001600160a01b03166303ee9f226040518163ffffffff1660e01b8152600401602060405180830381865afa1580156124d1573d6000803e3d6000fd5b505050506040513d601f19601f820116820180604052508101906124f59190612bf0565b612618565b603780546001600160a01b0319166001600160a01b0392909216919091179055674563918244f40000603655565b600054610100900460ff1661254f5760405162461bcd60e51b815260040161059b90612ba5565b612557612438565b603980546001600160a01b039384166001600160a01b03199182161790915560388054929093169116179055565b6001600160a01b0381166125ac576040516350dd03f760e11b815260040160405180910390fd5b603b80546001600160a01b039485166001600160a01b031991821617909155603a805493851693821693909317909255603c8054919093169116179055565b600054610100900460ff166126125760405162461bcd60e51b815260040161059b90612ba5565b60018055565b600054610100900460ff1661263f5760405162461bcd60e51b815260040161059b90612ba5565b603380546001600160a01b0319166001600160a01b0392909216919091179055565b6001600160a01b0391909116815260200190565b6001600160a01b038116811461268a57600080fd5b50565b600080600080608085870312156126a357600080fd5b84356126ae81612675565b966020860135965060408601359560600135945092505050565b600080604083850312156126db57600080fd5b82356126e681612675565b915060208301356126f681612675565b809150509250929050565b6000806000806080858703121561271757600080fd5b843561272281612675565b9350602085013561273281612675565b93969395505050506040820135916060013590565b6000806040838503121561275a57600080fd5b823561276581612675565b946020939093013593505050565b600080600080600060a0868803121561278b57600080fd5b853561279681612675565b945060208601356127a681612675565b935060408601356127b681612675565b94979396509394606081013594506080013592915050565b60008060008060008060c087890312156127e757600080fd5b86356127f281612675565b9860208801359850604088013597606081013597506080810135965060a00135945092505050565b60008060006060848603121561282f57600080fd5b833561283a81612675565b95602085013595506040909401359392505050565b60006020828403121561286157600080fd5b5035919050565b60006020828403121561287a57600080fd5b8135610f7e81612675565b6020808252601f908201527f5265656e7472616e637947756172643a207265656e7472616e742063616c6c00604082015260600190565b6000602082840312156128ce57600080fd5b815160ff81168114610f7e57600080fd5b6001600160a01b0394851681529290931660208301526040820152606081019190915260800190565b6001600160a01b039384168152919092166020820152604081019190915260600190565b6001600160a01b0392831681529116602082015260400190565b60006020828403121561295857600080fd5b5051919050565b634e487b7160e01b600052601160045260246000fd5b80820281158282048414176109375761093761295f565b6000826129a957634e487b7160e01b600052601260045260246000fd5b500490565b808201808211156109375761093761295f565b60ff82811682821603908111156109375761093761295f565b600181815b80851115612a155781600019048211156129fb576129fb61295f565b80851615612a0857918102915b93841c93908002906129df565b509250929050565b600082612a2c57506001610937565b81612a3957506000610937565b8160018114612a4f5760028114612a5957612a75565b6001915050610937565b60ff841115612a6a57612a6a61295f565b50506001821b610937565b5060208310610133831016604e8410600b8410161715612a98575081810a610937565b612aa283836129da565b8060001904821115612ab657612ab661295f565b029392505050565b6000610f7e60ff841683612a1d565b818103818111156109375761093761295f565b9182526001600160a01b0316602082015260400190565b600060208284031215612b0957600080fd5b81518015158114610f7e57600080fd5b6020808252601d908201527f5375417574683a206f6e6c794f776e657220415554485f4641494c4544000000604082015260600190565b6001600160a01b03958616815293851660208501529190931660408301526060820192909252608081019190915260a00190565b6001600160a01b039390931683526020830191909152604082015260600190565b6020808252602b908201527f496e697469616c697a61626c653a20636f6e7472616374206973206e6f74206960408201526a6e697469616c697a696e6760a81b606082015260800190565b600060208284031215612c0257600080fd5b8151610f7e8161267556fe9a9aef7c1247d5fc769b0185c052913e39673da29a880317dfd20ebf86f26a49a264697066735822122025290fe0a58c968bf7bf21e477505b5e7413a9d245414ed2488695166d7aaed164736f6c63430008110033",
  "devdoc": {
    "kind": "dev",
    "methods": {
      "setInitialCollateralRatioE18(address,uint256)": {
        "details": "Sets the initial collateral ratio",
        "params": {
          "asset": "The address of the main collateral token",
          "newValueE18": "The collateralization ratio (1e18 = 100%)*"
        }
      },
      "setLiquidationRatioE18(address,uint256)": {
        "details": "Sets the liquidation ratio",
        "params": {
          "asset": "The address of the main collateral token",
          "newValueE18": "The liquidation ratio (1e18 = 100%).*"
        }
      },
      "setMinCollateralInUsdE18(uint256)": {
        "details": "Sets a minimum value of collateral in USD which allowed to be left after partial closure",
        "params": {
          "newValueE18": "The minimum value of collateral in USD"
        }
      },
      "triggerLiquidation(address,address)": {
        "details": "Emits LiquidationTriggered event. Sets the current block as liquidationBlock for the position. Can be triggered only once for the position."
      }
    },
    "version": 1
  },
  "userdoc": {
    "kind": "user",
    "methods": {
      "setInitialCollateralRatioE18(address,uint256)": {
        "notice": "Only manager is able to call this function"
      },
      "setLiquidationRatioE18(address,uint256)": {
        "notice": "Only manager is able to call this function"
      },
      "setMinCollateralInUsdE18(uint256)": {
        "notice": "Only manager is able to call this function"
      }
    },
    "version": 1
  },
  "storageLayout": {
    "storage": [
      {
        "astId": 408,
        "contract": "contracts/lending/SuManager.sol:SuManager",
        "label": "_initialized",
        "offset": 0,
        "slot": "0",
        "type": "t_bool"
      },
      {
        "astId": 411,
        "contract": "contracts/lending/SuManager.sol:SuManager",
        "label": "_initializing",
        "offset": 1,
        "slot": "0",
        "type": "t_bool"
      },
      {
        "astId": 489,
        "contract": "contracts/lending/SuManager.sol:SuManager",
        "label": "_status",
        "offset": 0,
        "slot": "1",
        "type": "t_uint256"
      },
      {
        "astId": 533,
        "contract": "contracts/lending/SuManager.sol:SuManager",
        "label": "__gap",
        "offset": 0,
        "slot": "2",
        "type": "t_array(t_uint256)49_storage"
      },
      {
        "astId": 2611,
        "contract": "contracts/lending/SuManager.sol:SuManager",
        "label": "ACCESS_CONTROL_SINGLETON",
        "offset": 0,
        "slot": "51",
        "type": "t_contract(ISuAccessControl)2930"
      },
      {
        "astId": 4472,
        "contract": "contracts/lending/SuManager.sol:SuManager",
        "label": "initialCollateralRatioE18",
        "offset": 0,
        "slot": "52",
        "type": "t_mapping(t_address,t_uint256)"
      },
      {
        "astId": 4476,
        "contract": "contracts/lending/SuManager.sol:SuManager",
        "label": "liquidationRatioE18",
        "offset": 0,
        "slot": "53",
        "type": "t_mapping(t_address,t_uint256)"
      },
      {
        "astId": 4478,
        "contract": "contracts/lending/SuManager.sol:SuManager",
        "label": "minCollateralInUsdE18",
        "offset": 0,
        "slot": "54",
        "type": "t_uint256"
      },
      {
        "astId": 4481,
        "contract": "contracts/lending/SuManager.sol:SuManager",
        "label": "vaultParameters",
        "offset": 0,
        "slot": "55",
        "type": "t_contract(SuVaultParameters)4760"
      },
      {
        "astId": 4000,
        "contract": "contracts/lending/SuManager.sol:SuManager",
        "label": "_vault",
        "offset": 0,
        "slot": "56",
        "type": "t_contract(ISuVault)3438"
      },
      {
        "astId": 4003,
        "contract": "contracts/lending/SuManager.sol:SuManager",
        "label": "_manager",
        "offset": 0,
        "slot": "57",
        "type": "t_contract(ISuManager)3128"
      },
      {
        "astId": 3498,
        "contract": "contracts/lending/SuManager.sol:SuManager",
        "label": "_VAULT",
        "offset": 0,
        "slot": "58",
        "type": "t_contract(ISuVault)3438"
      },
      {
        "astId": 3501,
        "contract": "contracts/lending/SuManager.sol:SuManager",
        "label": "_MANAGER",
        "offset": 0,
        "slot": "59",
        "type": "t_contract(ISuManager)3128"
      },
      {
        "astId": 3504,
        "contract": "contracts/lending/SuManager.sol:SuManager",
        "label": "_ORACLE",
        "offset": 0,
        "slot": "60",
        "type": "t_contract(ISuOracle)3202"
      },
      {
        "astId": 4168,
        "contract": "contracts/lending/SuManager.sol:SuManager",
        "label": "vault",
        "offset": 0,
        "slot": "61",
        "type": "t_contract(ISuVault)3438"
      }
    ],
    "types": {
      "t_address": {
        "encoding": "inplace",
        "label": "address",
        "numberOfBytes": "20"
      },
      "t_array(t_uint256)49_storage": {
        "base": "t_uint256",
        "encoding": "inplace",
        "label": "uint256[49]",
        "numberOfBytes": "1568"
      },
      "t_bool": {
        "encoding": "inplace",
        "label": "bool",
        "numberOfBytes": "1"
      },
      "t_contract(ISuAccessControl)2930": {
        "encoding": "inplace",
        "label": "contract ISuAccessControl",
        "numberOfBytes": "20"
      },
      "t_contract(ISuManager)3128": {
        "encoding": "inplace",
        "label": "contract ISuManager",
        "numberOfBytes": "20"
      },
      "t_contract(ISuOracle)3202": {
        "encoding": "inplace",
        "label": "contract ISuOracle",
        "numberOfBytes": "20"
      },
      "t_contract(ISuVault)3438": {
        "encoding": "inplace",
        "label": "contract ISuVault",
        "numberOfBytes": "20"
      },
      "t_contract(SuVaultParameters)4760": {
        "encoding": "inplace",
        "label": "contract SuVaultParameters",
        "numberOfBytes": "20"
      },
      "t_mapping(t_address,t_uint256)": {
        "encoding": "mapping",
        "key": "t_address",
        "label": "mapping(address => uint256)",
        "numberOfBytes": "32",
        "value": "t_uint256"
      },
      "t_uint256": {
        "encoding": "inplace",
        "label": "uint256",
        "numberOfBytes": "32"
      }
    }
  }
}