{
  "address": "0x2103609439BF945C14943d6c7C17af819359e2Bf",
  "abi": [
    {
      "inputs": [],
      "name": "BadInitialCollateralRatioValue",
      "type": "error"
    },
    {
      "inputs": [],
      "name": "BadLiquidationRatioValue",
      "type": "error"
    },
    {
      "inputs": [],
      "name": "InvalidArgs",
      "type": "error"
    },
    {
      "inputs": [],
      "name": "LiquidationIsTriggered",
      "type": "error"
    },
    {
      "inputs": [],
      "name": "Restricted",
      "type": "error"
    },
    {
      "inputs": [],
      "name": "SmallCollateral",
      "type": "error"
    },
    {
      "inputs": [],
      "name": "UnderCollateralized",
      "type": "error"
    },
    {
      "inputs": [],
      "name": "UnsupportedDecimals",
      "type": "error"
    },
    {
      "inputs": [],
      "name": "UselessTransaction",
      "type": "error"
    },
    {
      "anonymous": false,
      "inputs": [
        {
          "indexed": true,
          "internalType": "address",
          "name": "asset",
          "type": "address"
        },
        {
          "indexed": true,
          "internalType": "address",
          "name": "owner",
          "type": "address"
        },
        {
          "indexed": false,
          "internalType": "uint256",
          "name": "main",
          "type": "uint256"
        },
        {
          "indexed": false,
          "internalType": "uint256",
          "name": "stablecoin",
          "type": "uint256"
        }
      ],
      "name": "Exit",
      "type": "event"
    },
    {
      "anonymous": false,
      "inputs": [
        {
          "indexed": true,
          "internalType": "address",
          "name": "asset",
          "type": "address"
        },
        {
          "indexed": true,
          "internalType": "address",
          "name": "owner",
          "type": "address"
        },
        {
          "indexed": false,
          "internalType": "uint256",
          "name": "main",
          "type": "uint256"
        },
        {
          "indexed": false,
          "internalType": "uint256",
          "name": "stablecoin",
          "type": "uint256"
        }
      ],
      "name": "Join",
      "type": "event"
    },
    {
      "inputs": [],
      "name": "ACCESS_CONTROL_SINGLETON",
      "outputs": [
        {
          "internalType": "contract ISuAccessControl",
          "name": "",
          "type": "address"
        }
      ],
      "stateMutability": "view",
      "type": "function"
    },
    {
      "inputs": [],
      "name": "LIQUIDATION_ACCESS_ROLE",
      "outputs": [
        {
          "internalType": "bytes32",
          "name": "",
          "type": "bytes32"
        }
      ],
      "stateMutability": "view",
      "type": "function"
    },
    {
      "inputs": [],
      "name": "MINTER_ROLE",
      "outputs": [
        {
          "internalType": "bytes32",
          "name": "",
          "type": "bytes32"
        }
      ],
      "stateMutability": "view",
      "type": "function"
    },
    {
      "inputs": [],
      "name": "VAULT_ACCESS_ROLE",
      "outputs": [
        {
          "internalType": "bytes32",
          "name": "",
          "type": "bytes32"
        }
      ],
      "stateMutability": "view",
      "type": "function"
    },
    {
      "inputs": [],
      "name": "cdpRegistry",
      "outputs": [
        {
          "internalType": "contract ISuCdpRegistry",
          "name": "",
          "type": "address"
        }
      ],
      "stateMutability": "view",
      "type": "function"
    },
    {
      "inputs": [
        {
          "internalType": "address",
          "name": "asset",
          "type": "address"
        },
        {
          "internalType": "uint256",
          "name": "assetAmountEDecimal",
          "type": "uint256"
        },
        {
          "internalType": "uint256",
          "name": "stablecoinAmountE18",
          "type": "uint256"
        }
      ],
      "name": "exit",
      "outputs": [],
      "stateMutability": "nonpayable",
      "type": "function"
    },
    {
      "inputs": [
        {
          "internalType": "address",
          "name": "asset",
          "type": "address"
        },
        {
          "internalType": "address",
          "name": "owner",
          "type": "address"
        }
      ],
      "name": "getAvailableToBorrowE18",
      "outputs": [
        {
          "internalType": "uint256",
          "name": "",
          "type": "uint256"
        }
      ],
      "stateMutability": "view",
      "type": "function"
    },
    {
      "inputs": [
        {
          "internalType": "address",
          "name": "asset",
          "type": "address"
        },
        {
          "internalType": "address",
          "name": "owner",
          "type": "address"
        }
      ],
      "name": "getAvailableToWithdrawE18",
      "outputs": [
        {
          "internalType": "uint256",
          "name": "",
          "type": "uint256"
        }
      ],
      "stateMutability": "view",
      "type": "function"
    },
    {
      "inputs": [
        {
          "internalType": "address",
          "name": "asset",
          "type": "address"
        },
        {
          "internalType": "address",
          "name": "owner",
          "type": "address"
        }
      ],
      "name": "getCollateralUsdValueE18",
      "outputs": [
        {
          "internalType": "uint256",
          "name": "",
          "type": "uint256"
        }
      ],
      "stateMutability": "view",
      "type": "function"
    },
    {
      "inputs": [
        {
          "internalType": "address",
          "name": "asset",
          "type": "address"
        },
        {
          "internalType": "address",
          "name": "owner",
          "type": "address"
        }
      ],
      "name": "getLTVE18",
      "outputs": [
        {
          "internalType": "uint256",
          "name": "",
          "type": "uint256"
        }
      ],
      "stateMutability": "view",
      "type": "function"
    },
    {
      "inputs": [
        {
          "internalType": "address",
          "name": "",
          "type": "address"
        }
      ],
      "name": "initialCollateralRatioE18",
      "outputs": [
        {
          "internalType": "uint256",
          "name": "",
          "type": "uint256"
        }
      ],
      "stateMutability": "view",
      "type": "function"
    },
    {
      "inputs": [
        {
          "internalType": "address",
          "name": "_vault",
          "type": "address"
        },
        {
          "internalType": "address",
          "name": "_suOracle",
          "type": "address"
        },
        {
          "internalType": "address",
          "name": "_cdpRegistry",
          "type": "address"
        }
      ],
      "name": "initialize",
      "outputs": [],
      "stateMutability": "nonpayable",
      "type": "function"
    },
    {
      "inputs": [
        {
          "internalType": "address",
          "name": "asset",
          "type": "address"
        },
        {
          "internalType": "uint256",
          "name": "assetAmountEDecimal",
          "type": "uint256"
        },
        {
          "internalType": "uint256",
          "name": "stablecoinAmountE18",
          "type": "uint256"
        },
        {
          "internalType": "uint256",
          "name": "lockupPeriodSeconds",
          "type": "uint256"
        }
      ],
      "name": "join",
      "outputs": [],
      "stateMutability": "nonpayable",
      "type": "function"
    },
    {
      "inputs": [
        {
          "internalType": "address",
          "name": "",
          "type": "address"
        }
      ],
      "name": "liquidationRatioE18",
      "outputs": [
        {
          "internalType": "uint256",
          "name": "",
          "type": "uint256"
        }
      ],
      "stateMutability": "view",
      "type": "function"
    },
    {
      "inputs": [],
      "name": "minCollateralInUsdE18",
      "outputs": [
        {
          "internalType": "uint256",
          "name": "",
          "type": "uint256"
        }
      ],
      "stateMutability": "view",
      "type": "function"
    },
    {
      "inputs": [
        {
          "internalType": "address",
          "name": "asset",
          "type": "address"
        },
        {
          "internalType": "uint256",
          "name": "stabilityFeeValueE18",
          "type": "uint256"
        },
        {
          "internalType": "uint256",
          "name": "initialCollateralRatioValueE18",
          "type": "uint256"
        },
        {
          "internalType": "uint256",
          "name": "liquidationRatioValueE18",
          "type": "uint256"
        },
        {
          "internalType": "uint256",
          "name": "stablecoinLimitE18",
          "type": "uint256"
        },
        {
          "internalType": "uint256",
          "name": "minCollateralInUsdValueE18",
          "type": "uint256"
        }
      ],
      "name": "setCollateral",
      "outputs": [],
      "stateMutability": "nonpayable",
      "type": "function"
    },
    {
      "inputs": [
        {
          "internalType": "address",
          "name": "asset",
          "type": "address"
        },
        {
          "internalType": "uint256",
          "name": "newValueE18",
          "type": "uint256"
        }
      ],
      "name": "setInitialCollateralRatioE18",
      "outputs": [],
      "stateMutability": "nonpayable",
      "type": "function"
    },
    {
      "inputs": [
        {
          "internalType": "address",
          "name": "asset",
          "type": "address"
        },
        {
          "internalType": "uint256",
          "name": "newValueE18",
          "type": "uint256"
        }
      ],
      "name": "setLiquidationRatioE18",
      "outputs": [],
      "stateMutability": "nonpayable",
      "type": "function"
    },
    {
      "inputs": [
        {
          "internalType": "uint256",
          "name": "newValueE18",
          "type": "uint256"
        }
      ],
      "name": "setMinCollateralInUsdE18",
      "outputs": [],
      "stateMutability": "nonpayable",
      "type": "function"
    },
    {
      "inputs": [],
      "name": "suOracle",
      "outputs": [
        {
          "internalType": "contract ISuOracle",
          "name": "",
          "type": "address"
        }
      ],
      "stateMutability": "view",
      "type": "function"
    },
    {
      "inputs": [],
      "name": "vault",
      "outputs": [
        {
          "internalType": "contract ISuVault",
          "name": "",
          "type": "address"
        }
      ],
      "stateMutability": "view",
      "type": "function"
    },
    {
      "inputs": [],
      "name": "vaultParameters",
      "outputs": [
        {
          "internalType": "contract SuVaultParameters",
          "name": "",
          "type": "address"
        }
      ],
      "stateMutability": "view",
      "type": "function"
    },
    {
      "stateMutability": "payable",
      "type": "receive"
    }
  ],
  "numDeployments": 2,
  "solcInputHash": "784e97eb48090e9a500c09ac57803326",
  "bytecode": "0x608060405234801561001057600080fd5b50611d16806100206000396000f3fe6080604052600436106101095760003560e01c806303ee9f221461012c578063112e14001461016257806314c376dc14610184578063392c0ce7146101c65780634030815e146101e657806356d8be56146102065780636f16cbf71461022657806376b5070c146102465780639077beac14610266578063a20f9cb314610286578063ab2a2a82146102a6578063aca345ee146102c6578063ada9e5ad146102e6578063bb497dcc14610306578063bbdc95311461031c578063c0c53b8b1461033c578063cf1334041461035c578063d53913931461037c578063dc97e84e146103b0578063e6bc0461146103e4578063f3f481df14610411578063fbfa77cf1461043e57600080fd5b366101275760405163ccc0891360e01b815260040160405180910390fd5b600080fd5b34801561013857600080fd5b5060335461014c906001600160a01b031681565b60405161015991906117e3565b60405180910390f35b34801561016e57600080fd5b5061018261017d36600461180f565b61045e565b005b34801561019057600080fd5b506101b87fe965846df3dd5b1dfa65f58e31477079e90140e0908b6dd31b5aead5a57cf36581565b604051908152602001610159565b3480156101d257600080fd5b506101b86101e136600461184a565b610754565b3480156101f257600080fd5b506101b861020136600461184a565b610813565b34801561021257600080fd5b506101b861022136600461184a565b610925565b34801561023257600080fd5b50610182610241366004611883565b610a0f565b34801561025257600080fd5b506101b861026136600461184a565b610afd565b34801561027257600080fd5b50610182610281366004611883565b610d46565b34801561029257600080fd5b50603a5461014c906001600160a01b031681565b3480156102b257600080fd5b5060395461014c906001600160a01b031681565b3480156102d257600080fd5b5060375461014c906001600160a01b031681565b3480156102f257600080fd5b506101826103013660046118af565b610e24565b34801561031257600080fd5b506101b860365481565b34801561032857600080fd5b506101826103373660046118fb565b610f3f565b34801561034857600080fd5b50610182610357366004611930565b611382565b34801561036857600080fd5b5061018261037736600461197b565b6114c7565b34801561038857600080fd5b506101b87f9f2df0fed2c77648de5860a4cc508cd0818c85b8b8a1ab4ceeef8d981c8956a681565b3480156103bc57600080fd5b506101b87f9a9aef7c1247d5fc769b0185c052913e39673da29a880317dfd20ebf86f26a4981565b3480156103f057600080fd5b506101b86103ff366004611994565b60356020526000908152604090205481565b34801561041d57600080fd5b506101b861042c366004611994565b60346020526000908152604090205481565b34801561044a57600080fd5b5060385461014c906001600160a01b031681565b6002600154036104895760405162461bcd60e51b8152600401610480906119b8565b60405180910390fd5b600260015583338315801561049c575084155b156104ba5760405163fa95696160e01b815260040160405180910390fd5b6012866001600160a01b031663313ce5676040518163ffffffff1660e01b8152600401602060405180830381865afa1580156104fa573d6000803e3d6000fd5b505050506040513d601f19601f8201168201806040525081019061051e91906119ef565b60ff16111561054057604051636a78e98160e11b815260040160405180910390fd5b836000036105b5576038546040516320e8c56560e01b81526001600160a01b03909116906320e8c5659061057e90899033908a908990600401611a12565b600060405180830381600087803b15801561059857600080fd5b505af11580156105ac573d6000803e3d6000fd5b50505050610694565b8415610624576038546040516320e8c56560e01b81526001600160a01b03909116906320e8c565906105f190899033908a908990600401611a12565b600060405180830381600087803b15801561060b57600080fd5b505af115801561061f573d6000803e3d6000fd5b505050505b6038546040516314890dcb60e21b81526001600160a01b0390911690635224372c9061065890899033908990600401611a3b565b600060405180830381600087803b15801561067257600080fd5b505af1158015610686573d6000803e3d6000fd5b50505050610694863361155c565b61069e863361163a565b604080518681526020810186905233916001600160a01b038916917f6423b6056e64b3b29cb2d342362b47c26fa8d6877da27ea152354060df19b9bc910160405180910390a3603954604051632ed56dff60e21b81526001600160a01b039091169063bb55b7fc906107169085908590600401611a5f565b600060405180830381600087803b15801561073057600080fd5b505af1158015610744573d6000803e3d6000fd5b5050600180555050505050505050565b6000806107618484610813565b90508060000361077557600091505061080d565b603854604051636aee125d60e11b81526000916001600160a01b03169063d5dc24ba906107a89088908890600401611a5f565b602060405180830381865afa1580156107c5573d6000803e3d6000fd5b505050506040513d601f19601f820116820180604052508101906107e99190611a79565b9050816107fe82670de0b6b3a7640000611aa8565b6108089190611abf565b925050505b92915050565b6038546040516334e3b77960e01b815260009182916001600160a01b03909116906334e3b7799061084a9087908790600401611a5f565b602060405180830381865afa158015610867573d6000803e3d6000fd5b505050506040513d601f19601f8201168201806040525081019061088b9190611a79565b603a546040516306addfb360e31b8152919250670de0b6b3a76400009183916001600160a01b03169063356efd98906108c89089906004016117e3565b602060405180830381865afa1580156108e5573d6000803e3d6000fd5b505050506040513d601f19601f820116820180604052508101906109099190611a79565b6109139190611aa8565b61091d9190611abf565b949350505050565b6000806109328484610813565b6001600160a01b03851660009081526034602052604081205491925090670de0b6b3a7640000906109639084611aa8565b61096d9190611abf565b60385460405163a6ea8b8760e01b81529192506000916001600160a01b039091169063a6ea8b87906109a59089908990600401611a5f565b602060405180830381865afa1580156109c2573d6000803e3d6000fd5b505050506040513d601f19601f820116820180604052508101906109e69190611a79565b90508082116109fb576000935050505061080d565b610a058183611ae1565b9695505050505050565b603354604051632474521560e21b81526001600160a01b03909116906391d1485490610a42906000903390600401611af4565b602060405180830381865afa158015610a5f573d6000803e3d6000fd5b505050506040513d601f19601f82011682018060405250810190610a839190611b0b565b610a9f5760405162461bcd60e51b815260040161048090611b2d565b801580610ac357506001600160a01b03821660009081526034602052604090205481105b15610ae157604051630906beff60e11b815260040160405180910390fd5b6001600160a01b03909116600090815260356020526040902055565b6038546040516334e3b77960e01b815260009182916001600160a01b03909116906334e3b77990610b349087908790600401611a5f565b602060405180830381865afa158015610b51573d6000803e3d6000fd5b505050506040513d601f19601f82011682018060405250810190610b759190611a79565b603a546040516306addfb360e31b81529192506000916001600160a01b039091169063356efd9890610bab9088906004016117e3565b602060405180830381865afa158015610bc8573d6000803e3d6000fd5b505050506040513d601f19601f82011682018060405250810190610bec9190611a79565b905080600003610c015760009250505061080d565b603854604051636aee125d60e11b81526000916001600160a01b03169063d5dc24ba90610c349089908990600401611a5f565b602060405180830381865afa158015610c51573d6000803e3d6000fd5b505050506040513d601f19601f82011682018060405250810190610c759190611a79565b6001600160a01b03871660009081526034602052604081205491925090610c9c9084611aa8565b876001600160a01b031663313ce5676040518163ffffffff1660e01b8152600401602060405180830381865afa158015610cda573d6000803e3d6000fd5b505050506040513d601f19601f82011682018060405250810190610cfe91906119ef565b610d0990600a611c48565b610d139084611aa8565b610d2590670de0b6b3a7640000611aa8565b610d2f9190611abf565b9050610d3b8185611ae1565b979650505050505050565b603354604051632474521560e21b81526001600160a01b03909116906391d1485490610d79906000903390600401611af4565b602060405180830381865afa158015610d96573d6000803e3d6000fd5b505050506040513d601f19601f82011682018060405250810190610dba9190611b0b565b610dd65760405162461bcd60e51b815260040161048090611b2d565b801580610dea5750670de0b6b3a764000081115b15610e0857604051636ae75f5b60e01b815260040160405180910390fd5b6001600160a01b03909116600090815260346020526040902055565b603354604051632474521560e21b81526001600160a01b03909116906391d1485490610e57906000903390600401611af4565b602060405180830381865afa158015610e74573d6000803e3d6000fd5b505050506040513d601f19601f82011682018060405250810190610e989190611b0b565b610eb45760405162461bcd60e51b815260040161048090611b2d565b603754604051639fea3e0760e01b81526001600160a01b0390911690639fea3e0790610ee890899089908790600401611c57565b600060405180830381600087803b158015610f0257600080fd5b505af1158015610f16573d6000803e3d6000fd5b50505050610f248685610d46565b610f2e8684610a0f565b610f37816114c7565b505050505050565b600260015403610f615760405162461bcd60e51b8152600401610480906119b8565b6002600155603854604051631ce4b4a760e01b8152849133916000916001600160a01b031690631ce4b4a790610f9d9086908690600401611a5f565b602060405180830381865afa158015610fba573d6000803e3d6000fd5b505050506040513d601f19601f82011682018060405250810190610fde9190611a79565b1115610ffd5760405163fa5af4cd60e01b815260040160405180910390fd5b603854604051636aee125d60e11b81526000916001600160a01b03169063d5dc24ba906110309089903390600401611a5f565b602060405180830381865afa15801561104d573d6000803e3d6000fd5b505050506040513d601f19601f820116820180604052508101906110719190611a79565b90508084111561107f578093505b60385460405163034c188b60e41b81526000916001600160a01b0316906334c188b0906110b4908a9033908a90600401611a3b565b602060405180830381865afa1580156110d1573d6000803e3d6000fd5b505050506040513d601f19601f820116820180604052508101906110f59190611a79565b603854604051636f70e66f60e01b81526001600160a01b038a8116600483015233602483018190526044830152606482018a905260848201899052929350911690636f70e66f9060a401600060405180830381600087803b15801561115957600080fd5b505af115801561116d573d6000803e3d6000fd5b5050505061117b873361163a565b60385460405163628a468360e01b81526001600160a01b039091169063628a4683906111af90339089908690600401611c57565b600060405180830381600087803b1580156111c957600080fd5b505af11580156111dd573d6000803e3d6000fd5b5050603854604051636aee125d60e11b8152600093506001600160a01b03909116915063d5dc24ba90611216908b903390600401611a5f565b602060405180830381865afa158015611233573d6000803e3d6000fd5b505050506040513d601f19601f820116820180604052508101906112579190611a79565b11156112cb5760385460405163c640752d60e01b81526001600160a01b039091169063c640752d9061128f908a903390600401611a5f565b600060405180830381600087803b1580156112a957600080fd5b505af11580156112bd573d6000803e3d6000fd5b505050506112cb873361155c565b604080518781526020810187905233916001600160a01b038a16917fa702ae6024e8b4c2b0eb162b1453dacb93cf6922f5a2d7236faed898c21148f8910160405180910390a35050603954604051632ed56dff60e21b81526001600160a01b039091169063bb55b7fc906113459085908590600401611a5f565b600060405180830381600087803b15801561135f57600080fd5b505af1158015611373573d6000803e3d6000fd5b50506001805550505050505050565b600054610100900460ff1661139d5760005460ff16156113a1565b303b155b6114045760405162461bcd60e51b815260206004820152602e60248201527f496e697469616c697a61626c653a20636f6e747261637420697320616c72656160448201526d191e481a5b9a5d1a585b1a5e995960921b6064820152608401610480565b600054610100900460ff16158015611426576000805461ffff19166101011790555b6001600160a01b038216158061144357506001600160a01b038316155b15611461576040516350dd03f760e11b815260040160405180910390fd5b61146961167d565b611472846116ae565b603a80546001600160a01b038086166001600160a01b03199283161790925560388054878416908316179055603980549285169290911691909117905580156114c1576000805461ff00191690555b50505050565b603354604051632474521560e21b81526001600160a01b03909116906391d14854906114fa906000903390600401611af4565b602060405180830381865afa158015611517573d6000803e3d6000fd5b505050506040513d601f19601f8201168201806040525081019061153b9190611b0b565b6115575760405162461bcd60e51b815260040161048090611b2d565b603655565b60006115688383610813565b6001600160a01b03841660009081526034602052604081205491925090670de0b6b3a7640000906115999084611aa8565b6115a39190611abf565b60385460405163a6ea8b8760e01b815291925082916001600160a01b039091169063a6ea8b87906115da9088908890600401611a5f565b602060405180830381865afa1580156115f7573d6000803e3d6000fd5b505050506040513d601f19601f8201168201806040525081019061161b9190611a79565b11156114c1576040516330b58a9160e01b815260040160405180910390fd5b60006116468383610813565b905060008111801561165a57506036548111155b1561167857604051633fc1a63760e11b815260040160405180910390fd5b505050565b600054610100900460ff166116a45760405162461bcd60e51b815260040161048090611c78565b6116ac61176d565b565b600054610100900460ff166116d55760405162461bcd60e51b815260040161048090611c78565b61173f816001600160a01b03166303ee9f226040518163ffffffff1660e01b8152600401602060405180830381865afa158015611716573d6000803e3d6000fd5b505050506040513d601f19601f8201168201806040525081019061173a9190611cc3565b61179a565b603780546001600160a01b0319166001600160a01b0392909216919091179055674563918244f40000603655565b600054610100900460ff166117945760405162461bcd60e51b815260040161048090611c78565b60018055565b600054610100900460ff166117c15760405162461bcd60e51b815260040161048090611c78565b603380546001600160a01b0319166001600160a01b0392909216919091179055565b6001600160a01b0391909116815260200190565b6001600160a01b038116811461180c57600080fd5b50565b6000806000806080858703121561182557600080fd5b8435611830816117f7565b966020860135965060408601359560600135945092505050565b6000806040838503121561185d57600080fd5b8235611868816117f7565b91506020830135611878816117f7565b809150509250929050565b6000806040838503121561189657600080fd5b82356118a1816117f7565b946020939093013593505050565b60008060008060008060c087890312156118c857600080fd5b86356118d3816117f7565b9860208801359850604088013597606081013597506080810135965060a00135945092505050565b60008060006060848603121561191057600080fd5b833561191b816117f7565b95602085013595506040909401359392505050565b60008060006060848603121561194557600080fd5b8335611950816117f7565b92506020840135611960816117f7565b91506040840135611970816117f7565b809150509250925092565b60006020828403121561198d57600080fd5b5035919050565b6000602082840312156119a657600080fd5b81356119b1816117f7565b9392505050565b6020808252601f908201527f5265656e7472616e637947756172643a207265656e7472616e742063616c6c00604082015260600190565b600060208284031215611a0157600080fd5b815160ff811681146119b157600080fd5b6001600160a01b0394851681529290931660208301526040820152606081019190915260800190565b6001600160a01b039384168152919092166020820152604081019190915260600190565b6001600160a01b0392831681529116602082015260400190565b600060208284031215611a8b57600080fd5b5051919050565b634e487b7160e01b600052601160045260246000fd5b808202811582820484141761080d5761080d611a92565b600082611adc57634e487b7160e01b600052601260045260246000fd5b500490565b8181038181111561080d5761080d611a92565b9182526001600160a01b0316602082015260400190565b600060208284031215611b1d57600080fd5b815180151581146119b157600080fd5b6020808252601d908201527f5375417574683a206f6e6c794f776e657220415554485f4641494c4544000000604082015260600190565b600181815b80851115611b9f578160001904821115611b8557611b85611a92565b80851615611b9257918102915b93841c9390800290611b69565b509250929050565b600082611bb65750600161080d565b81611bc35750600061080d565b8160018114611bd95760028114611be357611bff565b600191505061080d565b60ff841115611bf457611bf4611a92565b50506001821b61080d565b5060208310610133831016604e8410600b8410161715611c22575081810a61080d565b611c2c8383611b64565b8060001904821115611c4057611c40611a92565b029392505050565b60006119b160ff841683611ba7565b6001600160a01b039390931683526020830191909152604082015260600190565b6020808252602b908201527f496e697469616c697a61626c653a20636f6e7472616374206973206e6f74206960408201526a6e697469616c697a696e6760a81b606082015260800190565b600060208284031215611cd557600080fd5b81516119b1816117f756fea2646970667358221220026ba8f873d5dac1b63b139ae60d3406481a2b89ddec908377a60bd30fa6779164736f6c63430008110033",
  "devdoc": {
    "kind": "dev",
    "methods": {
      "setInitialCollateralRatioE18(address,uint256)": {
        "details": "Sets the initial collateral ratio",
        "params": {
          "asset": "The address of the main collateral token",
          "newValueE18": "The collateralization ratio (1e18 = 100%)*"
        }
      },
      "setLiquidationRatioE18(address,uint256)": {
        "details": "Sets the liquidation ratio",
        "params": {
          "asset": "The address of the main collateral token",
          "newValueE18": "The liquidation ratio (1e18 = 100%)*"
        }
      },
      "setMinCollateralInUsdE18(uint256)": {
        "details": "Sets a minimum value of collateral in USD which allowed to be left after partial closure",
        "params": {
          "newValueE18": "The minimum value of collateral in USD"
        }
      }
    },
    "version": 1
  },
  "userdoc": {
    "kind": "user",
    "methods": {
      "setInitialCollateralRatioE18(address,uint256)": {
        "notice": "Only manager is able to call this function"
      },
      "setLiquidationRatioE18(address,uint256)": {
        "notice": "Only manager is able to call this function"
      },
      "setMinCollateralInUsdE18(uint256)": {
        "notice": "Only manager is able to call this function"
      }
    },
    "version": 1
  },
  "storageLayout": {
    "storage": [
      {
        "astId": 454,
        "contract": "contracts/lending/SuManager.sol:SuManager",
        "label": "_initialized",
        "offset": 0,
        "slot": "0",
        "type": "t_bool"
      },
      {
        "astId": 457,
        "contract": "contracts/lending/SuManager.sol:SuManager",
        "label": "_initializing",
        "offset": 1,
        "slot": "0",
        "type": "t_bool"
      },
      {
        "astId": 535,
        "contract": "contracts/lending/SuManager.sol:SuManager",
        "label": "_status",
        "offset": 0,
        "slot": "1",
        "type": "t_uint256"
      },
      {
        "astId": 579,
        "contract": "contracts/lending/SuManager.sol:SuManager",
        "label": "__gap",
        "offset": 0,
        "slot": "2",
        "type": "t_array(t_uint256)49_storage"
      },
      {
        "astId": 4347,
        "contract": "contracts/lending/SuManager.sol:SuManager",
        "label": "ACCESS_CONTROL_SINGLETON",
        "offset": 0,
        "slot": "51",
        "type": "t_contract(ISuAccessControl)7485"
      },
      {
        "astId": 10373,
        "contract": "contracts/lending/SuManager.sol:SuManager",
        "label": "initialCollateralRatioE18",
        "offset": 0,
        "slot": "52",
        "type": "t_mapping(t_address,t_uint256)"
      },
      {
        "astId": 10377,
        "contract": "contracts/lending/SuManager.sol:SuManager",
        "label": "liquidationRatioE18",
        "offset": 0,
        "slot": "53",
        "type": "t_mapping(t_address,t_uint256)"
      },
      {
        "astId": 10379,
        "contract": "contracts/lending/SuManager.sol:SuManager",
        "label": "minCollateralInUsdE18",
        "offset": 0,
        "slot": "54",
        "type": "t_uint256"
      },
      {
        "astId": 10382,
        "contract": "contracts/lending/SuManager.sol:SuManager",
        "label": "vaultParameters",
        "offset": 0,
        "slot": "55",
        "type": "t_contract(SuVaultParameters)11393"
      },
      {
        "astId": 9824,
        "contract": "contracts/lending/SuManager.sol:SuManager",
        "label": "vault",
        "offset": 0,
        "slot": "56",
        "type": "t_contract(ISuVault)8326"
      },
      {
        "astId": 9827,
        "contract": "contracts/lending/SuManager.sol:SuManager",
        "label": "cdpRegistry",
        "offset": 0,
        "slot": "57",
        "type": "t_contract(ISuCdpRegistry)7589"
      },
      {
        "astId": 9830,
        "contract": "contracts/lending/SuManager.sol:SuManager",
        "label": "suOracle",
        "offset": 0,
        "slot": "58",
        "type": "t_contract(ISuOracle)8046"
      }
    ],
    "types": {
      "t_address": {
        "encoding": "inplace",
        "label": "address",
        "numberOfBytes": "20"
      },
      "t_array(t_uint256)49_storage": {
        "base": "t_uint256",
        "encoding": "inplace",
        "label": "uint256[49]",
        "numberOfBytes": "1568"
      },
      "t_bool": {
        "encoding": "inplace",
        "label": "bool",
        "numberOfBytes": "1"
      },
      "t_contract(ISuAccessControl)7485": {
        "encoding": "inplace",
        "label": "contract ISuAccessControl",
        "numberOfBytes": "20"
      },
      "t_contract(ISuCdpRegistry)7589": {
        "encoding": "inplace",
        "label": "contract ISuCdpRegistry",
        "numberOfBytes": "20"
      },
      "t_contract(ISuOracle)8046": {
        "encoding": "inplace",
        "label": "contract ISuOracle",
        "numberOfBytes": "20"
      },
      "t_contract(ISuVault)8326": {
        "encoding": "inplace",
        "label": "contract ISuVault",
        "numberOfBytes": "20"
      },
      "t_contract(SuVaultParameters)11393": {
        "encoding": "inplace",
        "label": "contract SuVaultParameters",
        "numberOfBytes": "20"
      },
      "t_mapping(t_address,t_uint256)": {
        "encoding": "mapping",
        "key": "t_address",
        "label": "mapping(address => uint256)",
        "numberOfBytes": "32",
        "value": "t_uint256"
      },
      "t_uint256": {
        "encoding": "inplace",
        "label": "uint256",
        "numberOfBytes": "32"
      }
    }
  }
}