{
  "address": "0x7fEF99e104b63403233253B960C54DA5f05F7ff6",
  "abi": [
    {
      "inputs": [],
      "name": "BadAccessControlSingleton",
      "type": "error"
    },
    {
      "inputs": [],
      "name": "OnlyAdminError",
      "type": "error"
    },
    {
      "inputs": [],
      "name": "OnlyDAOError",
      "type": "error"
    },
    {
      "inputs": [],
      "name": "OnlyLiquidationAccessError",
      "type": "error"
    },
    {
      "inputs": [],
      "name": "OnlyMintAccessError",
      "type": "error"
    },
    {
      "inputs": [],
      "name": "OnlyPauserError",
      "type": "error"
    },
    {
      "inputs": [],
      "name": "OnlyRewardAccessError",
      "type": "error"
    },
    {
      "inputs": [],
      "name": "OnlyVaultAccessError",
      "type": "error"
    },
    {
      "anonymous": false,
      "inputs": [
        {
          "indexed": false,
          "internalType": "uint8",
          "name": "version",
          "type": "uint8"
        }
      ],
      "name": "Initialized",
      "type": "event"
    },
    {
      "inputs": [],
      "name": "ACCESS_CONTROL_SINGLETON",
      "outputs": [
        {
          "internalType": "contract ISuAccessControl",
          "name": "",
          "type": "address"
        }
      ],
      "stateMutability": "view",
      "type": "function"
    },
    {
      "inputs": [],
      "name": "ADMIN_ROLE",
      "outputs": [
        {
          "internalType": "bytes32",
          "name": "",
          "type": "bytes32"
        }
      ],
      "stateMutability": "view",
      "type": "function"
    },
    {
      "inputs": [],
      "name": "DAO_ROLE",
      "outputs": [
        {
          "internalType": "bytes32",
          "name": "",
          "type": "bytes32"
        }
      ],
      "stateMutability": "view",
      "type": "function"
    },
    {
      "inputs": [],
      "name": "LIQUIDATION_ACCESS_ROLE",
      "outputs": [
        {
          "internalType": "bytes32",
          "name": "",
          "type": "bytes32"
        }
      ],
      "stateMutability": "view",
      "type": "function"
    },
    {
      "inputs": [],
      "name": "MINT_ACCESS_ROLE",
      "outputs": [
        {
          "internalType": "bytes32",
          "name": "",
          "type": "bytes32"
        }
      ],
      "stateMutability": "view",
      "type": "function"
    },
    {
      "inputs": [],
      "name": "PAUSER_ROLE",
      "outputs": [
        {
          "internalType": "bytes32",
          "name": "",
          "type": "bytes32"
        }
      ],
      "stateMutability": "view",
      "type": "function"
    },
    {
      "inputs": [],
      "name": "REWARD_ACCESS_ROLE",
      "outputs": [
        {
          "internalType": "bytes32",
          "name": "",
          "type": "bytes32"
        }
      ],
      "stateMutability": "view",
      "type": "function"
    },
    {
      "inputs": [],
      "name": "VAULT_ACCESS_ROLE",
      "outputs": [
        {
          "internalType": "bytes32",
          "name": "",
          "type": "bytes32"
        }
      ],
      "stateMutability": "view",
      "type": "function"
    },
    {
      "inputs": [
        {
          "internalType": "address",
          "name": "",
          "type": "address"
        }
      ],
      "name": "assetToOracle",
      "outputs": [
        {
          "internalType": "uint256",
          "name": "",
          "type": "uint256"
        }
      ],
      "stateMutability": "view",
      "type": "function"
    },
    {
      "inputs": [
        {
          "internalType": "address",
          "name": "asset",
          "type": "address"
        }
      ],
      "name": "getFiatPrice1e18",
      "outputs": [
        {
          "internalType": "uint256",
          "name": "",
          "type": "uint256"
        }
      ],
      "stateMutability": "view",
      "type": "function"
    },
    {
      "inputs": [
        {
          "internalType": "address",
          "name": "_authControl",
          "type": "address"
        }
      ],
      "name": "initialize",
      "outputs": [],
      "stateMutability": "nonpayable",
      "type": "function"
    },
    {
      "inputs": [
        {
          "internalType": "uint256",
          "name": "",
          "type": "uint256"
        }
      ],
      "name": "oracleImplementations",
      "outputs": [
        {
          "internalType": "contract ISuOracle",
          "name": "",
          "type": "address"
        }
      ],
      "stateMutability": "view",
      "type": "function"
    },
    {
      "inputs": [
        {
          "internalType": "address[]",
          "name": "assets",
          "type": "address[]"
        },
        {
          "internalType": "uint256",
          "name": "oracleId",
          "type": "uint256"
        }
      ],
      "name": "setOracleIdForAssets",
      "outputs": [],
      "stateMutability": "nonpayable",
      "type": "function"
    },
    {
      "inputs": [
        {
          "internalType": "uint256",
          "name": "oracleId",
          "type": "uint256"
        },
        {
          "internalType": "contract ISuOracle",
          "name": "oracleImplementation",
          "type": "address"
        }
      ],
      "name": "setOracleImplementation",
      "outputs": [],
      "stateMutability": "nonpayable",
      "type": "function"
    },
    {
      "inputs": [
        {
          "internalType": "bytes4",
          "name": "interfaceId",
          "type": "bytes4"
        }
      ],
      "name": "supportsInterface",
      "outputs": [
        {
          "internalType": "bool",
          "name": "",
          "type": "bool"
        }
      ],
      "stateMutability": "view",
      "type": "function"
    }
  ],
  "numDeployments": 6,
  "solcInputHash": "dd557791782b2a744fb91d3e74be9d42",
  "bytecode": "0x6080806040523461001657610a80908161001c8239f35b600080fdfe608060408181526004908136101561001657600080fd5b600092833560e01c90816301ffc9a7146108e15750806303ee9f22146108b55780630827ba5b1461088257806314c376dc146108475780632e00d2451461080f578063438280dd146107d45780636806ff2b1461064357806375b238fc146106285780638e5313e0146105ed578063b9ac2b38146104b5578063c4d66de814610291578063dc97e84e14610256578063e63ab1e91461021b578063e9c26518146101ee5763ef54c378146100c957600080fd5b346101ea57806003193601126101ea576001600160a01b036024358181169380359290918590036101e6576020604491875460101c16855192838092632474521560e21b8252600080516020610a2b833981519152878301523360248301525afa9081156101dc5786916101ae575b50156101a057811561016d57506101508315156109e2565b83526002602052822080546001600160a01b031916909117905580f35b606490602084519162461bcd60e51b8352820152600d60248201526c04f7261636c654964203d3d203609c1b6044820152fd5b825163599a6c3360e11b8152fd5b6101cf915060203d81116101d5575b6101c78183610991565b8101906109ca565b38610138565b503d6101bd565b84513d88823e3d90fd5b8580fd5b8280fd5b83823461021757816003193601126102175760209051600080516020610a2b8339815191528152f35b5080fd5b838234610217578160031936011261021757602090517f65d7a28e3265b37a6474929f336521b332c1681b933f6cb9f3376673440d862a8152f35b838234610217578160031936011261021757602090517f9a9aef7c1247d5fc769b0185c052913e39673da29a880317dfd20ebf86f26a498152f35b50346101ea57602090816003193601126104b1576102ad610976565b845460ff8160081c1615908180926104a4575b801561048d575b156104335760ff198116600117875581610422575b5085549460ff8660081c16156103cb5762010000600160b01b03601084901b1662010000600160b01b031987168117885584516301ffc9a760e01b8152637965db0b60e01b8382015290938690829060249082906001600160a01b03165afa9081156103c15788916103a4575b50156103965750610358578480f35b7f7f26b83ff96e1f2b6a682f133852f6798a09c465da95921460cefb384740249893610100600160b01b0319161784555160018152a1388080808480f35b83516384d942fd60e01b8152fd5b6103bb9150863d88116101d5576101c78183610991565b38610349565b85513d8a823e3d90fd5b835162461bcd60e51b8152908101859052602b60248201527f496e697469616c697a61626c653a20636f6e7472616374206973206e6f74206960448201526a6e697469616c697a696e6760a81b6064820152608490fd5b61ffff1916610101178655386102dc565b835162461bcd60e51b8152808701869052602e60248201527f496e697469616c697a61626c653a20636f6e747261637420697320616c72656160448201526d191e481a5b9a5d1a585b1a5e995960921b6064820152608490fd5b50303b1580156102c75750600160ff8216146102c7565b50600160ff8216106102c0565b8380fd5b5082903461021757602092836003193601126101ea576001600160a01b03806104dc610976565b1690818552600186528385205480156105b057855260028652838520541691821561057257906024869285519485938492631735856760e31b84528301525afa928315610567578093610532575b505051908152f35b909192508382813d8311610560575b61054b8183610991565b8101031261055d57505190838061052a565b80fd5b503d610541565b8251903d90823e3d90fd5b835162461bcd60e51b8152908101869052601860248201527727379037b930b1b6329034b6b83632b6b2b73a30ba34b7b760411b6044820152606490fd5b845162461bcd60e51b81528085018890526017602482015276139bc81bdc9858db1948199bdc881d1a1948185cdcd95d604a1b6044820152606490fd5b838234610217578160031936011261021757602090517fe453bacb314e78dcd5192e6b1a2b1f0e7c76e92f6b7e429a6a90f04e39db3b768152f35b83823461021757816003193601126102175751908152602090f35b50823461055d578160031936011261055d576001600160401b039280358481116101ea57366023820112156101ea57808201359485116107c15760059385851b95815192602091610696838a0186610991565b845281840160248099830101913683116107bd578901905b82821061079a57505085548351632474521560e21b8152600080516020610a2b8339815191528782015233818b01528935956001600160a01b0393509184908290604490829060101c87165afa9081156103c157889161077d575b501561076d578487526002835261072682858920541615156109e2565b865b8151811015610769578284828b1b84010151168852600184528585892055600019811461075757600101610728565b634e487b7160e01b8852601187528988fd5b8780f35b835163599a6c3360e11b81528690fd5b6107949150843d86116101d5576101c78183610991565b8a610709565b81356001600160a01b03811681036107b95781529083019083016106ae565b8880fd5b8780fd5b634e487b7160e01b835260418252602483fd5b838234610217578160031936011261021757602090517f39f61ca2a1a28fee144218173ec637b649a353e4026b2738c673800e5bf1437b8152f35b8382346102175760203660031901126102175760209181906001600160a01b03610837610976565b1681526001845220549051908152f35b838234610217578160031936011261021757602090517fe965846df3dd5b1dfa65f58e31477079e90140e0908b6dd31b5aead5a57cf3658152f35b5090346101ea5760203660031901126101ea5735825260026020908152918190205490516001600160a01b039091168152f35b8382346102175781600319360112610217579054905160109190911c6001600160a01b03168152602090f35b929050346104b15760203660031901126104b157803563ffffffff60e01b81168091036109725784546301ffc9a760e01b8552918401526020908390602490829060101c6001600160a01b03165afa9182156109685760209392610949575b50519015158152f35b610961919250833d81116101d5576101c78183610991565b9038610940565b81513d85823e3d90fd5b8480fd5b600435906001600160a01b038216820361098c57565b600080fd5b601f909101601f19168101906001600160401b038211908210176109b457604052565b634e487b7160e01b600052604160045260246000fd5b9081602091031261098c5751801515810361098c5790565b156109e957565b60405162461bcd60e51b815260206004820152601960248201527804f7261636c65496d706c656d656e746174696f6e203d3d203603c1b6044820152606490fdfe3b5d4cc60d3ec3516ee8ae083bd60934f6eb2a6c54b1229985c41bfb092b2603a264697066735822122062b229f547edf2824e4c7f8d71af03908c91c0e4e24fe4000a161dea0348d90064736f6c63430008110033",
  "devdoc": {
    "kind": "dev",
    "methods": {
      "getFiatPrice1e18(address)": {
        "params": {
          "asset": "- address of erc20 token contract"
        },
        "returns": {
          "_0": "usdPrice1e18 such that asset.balanceOf() * getFiatPrice1e18(asset) / 1e18 == $$ * 1e18*"
        }
      },
      "setOracleImplementation(uint256,address)": {
        "params": {
          "oracleId": "- number 0,1, etc to assign the oracle",
          "oracleImplementation": "- an address with ISuOracle implementation contract*"
        }
      },
      "supportsInterface(bytes4)": {
        "details": "Returns true if this contract implements the interface defined by `interfaceId`. See the corresponding https://eips.ethereum.org/EIPS/eip-165#how-interfaces-are-identified[EIP section] to learn more about how these ids are created. This function call must use less than 30 000 gas."
      }
    },
    "version": 1
  },
  "userdoc": {
    "kind": "user",
    "methods": {
      "getFiatPrice1e18(address)": {
        "notice": "WARNING! Read this description very carefully!      function getFiatPrice1e18(address asset) returns (uint256) that:          basicAmountOfAsset * getFiatPrice1e18(asset) / 1e18 === $$ * 1e18      in other words, it doesn't matter what's the erc20.decimals is,      you just multiply token balance in basic units on value from oracle and get dollar amount multiplied on 1e18. different assets have different deviation threshold (errors)      for wBTC it's <= 0.5%, read more https://data.chain.link/ethereum/mainnet/crypto-usd/btc-usd      for other asset is can be larger based on particular oracle implementation. examples:       market price of btc = $30k,       for 0.1 wBTC the unit256 amount is 0.1 * 1e18       0.1 * 1e18 * (price1e18 / 1e18) == $3000 == uint256(3000*1e18)       => price1e18 = 30000 * 1e18;       market price of usdt = $0.97,       for 1 usdt uint256 = 1 * 1e6       so 1*1e6 * price1e18 / 1e18 == $0.97 == uint256(0.97*1e18)       => 1*1e6 * (price1e18 / 1e18) / (0.97*1e18)   = 1       =>  price1e18 = 0.97 * (1e18/1e6) * 1e18      assume market price of wBTC = $31,503.77, oracle error = $158       case #1: small amount of wBTC           we have 0.0,000,001 wBTC that is worth v = $0.00315  $0.00001 = 0.00315*1e18 = 315*1e13  1*1e13           actual balance on the asset b = wBTC.balanceOf() =  0.0000001*1e18 = 1e11           oracle should return or = oracle.getFiatPrice1e18(wBTC) <=>           <=> b*or = v => v/b = 315*1e13 / 1e11 = 315*1e2  1e2           error = or.error * b = 1e2 * 1e11 = 1e13 => 1e13/1e18 usd = 1e-5 = 0.00001 usd       case #2: large amount of wBTC           v = 2,000,000 wBTC = $31,503.77 * 2m  158*2m = $63,007,540,000  $316,000,000 = 63,007*1e24  316*1e24           for calc convenience we increase error on 0.05 and have v = 63,000*24  300*1e24 = (630  3)*1e26           b = 2*1e6 * 1e18 = 2*1e24           or = v/b = (630  3)*1e26 / 2*1e24 = 315*1e2  1.5*1e2           error = or.error * b = 1.5*100 * 2*1e24 = 3*1e26 = 3*1e8*1e18 = $300,000,000 ~ $316,000,000      assume the market price of USDT = $0.97  $0.00485,       case #3: little amount of USDT           v = USDT amount 0.005 = 0.005*(0.97  0.00485) = 0.00485*1e18  0.00002425*1e18 = 485*1e13  3*1e13           we rounded error up on (3000-2425)/2425 ~= +24% for calculation convenience.           b = USDT.balanceOf() = 0.005*1e6 = 5*1e3           b*or = v => or = v/b = (485*1e13  3*1e13) / 5*1e3 = 970*1e9  6*1e9           error = 6*1e9 * 5*1e3 / 1e18 = 30*1e12/1e18 = 3*1e-5 = $0,00005       case #4: lot of USDT           v = we have 100,000,000,000 USDT = $97B = 97*1e9*1e18  0.5*1e9*1e18           b = USDT.balanceOf() = 1e11*1e6 = 1e17           or = v/b = (97*1e9*1e18  0.5*1e9*1e18) / 1e17 = 970*1e9  5*1e9           error = 5*1e9 * 1e17 = 5*1e26 = 0.5 * 1e8*1e18"
      },
      "setOracleIdForAssets(address[],uint256)": {
        "notice": "specify what oracleId should be used for each assets. Checks that oracleId has an implementation*"
      },
      "setOracleImplementation(uint256,address)": {
        "notice": "assign address of oracle implementation to the oracleId"
      }
    },
    "version": 1
  },
  "storageLayout": {
    "storage": [
      {
        "astId": 461,
        "contract": "contracts/oracles/SuOracleAggregator.sol:SuOracleAggregator",
        "label": "_initialized",
        "offset": 0,
        "slot": "0",
        "type": "t_uint8"
      },
      {
        "astId": 464,
        "contract": "contracts/oracles/SuOracleAggregator.sol:SuOracleAggregator",
        "label": "_initializing",
        "offset": 1,
        "slot": "0",
        "type": "t_bool"
      },
      {
        "astId": 9094,
        "contract": "contracts/oracles/SuOracleAggregator.sol:SuOracleAggregator",
        "label": "ACCESS_CONTROL_SINGLETON",
        "offset": 2,
        "slot": "0",
        "type": "t_contract(ISuAccessControl)16250"
      },
      {
        "astId": 22021,
        "contract": "contracts/oracles/SuOracleAggregator.sol:SuOracleAggregator",
        "label": "assetToOracle",
        "offset": 0,
        "slot": "1",
        "type": "t_mapping(t_address,t_uint256)"
      },
      {
        "astId": 22026,
        "contract": "contracts/oracles/SuOracleAggregator.sol:SuOracleAggregator",
        "label": "oracleImplementations",
        "offset": 0,
        "slot": "2",
        "type": "t_mapping(t_uint256,t_contract(ISuOracle)16726)"
      }
    ],
    "types": {
      "t_address": {
        "encoding": "inplace",
        "label": "address",
        "numberOfBytes": "20"
      },
      "t_bool": {
        "encoding": "inplace",
        "label": "bool",
        "numberOfBytes": "1"
      },
      "t_contract(ISuAccessControl)16250": {
        "encoding": "inplace",
        "label": "contract ISuAccessControl",
        "numberOfBytes": "20"
      },
      "t_contract(ISuOracle)16726": {
        "encoding": "inplace",
        "label": "contract ISuOracle",
        "numberOfBytes": "20"
      },
      "t_mapping(t_address,t_uint256)": {
        "encoding": "mapping",
        "key": "t_address",
        "label": "mapping(address => uint256)",
        "numberOfBytes": "32",
        "value": "t_uint256"
      },
      "t_mapping(t_uint256,t_contract(ISuOracle)16726)": {
        "encoding": "mapping",
        "key": "t_uint256",
        "label": "mapping(uint256 => contract ISuOracle)",
        "numberOfBytes": "32",
        "value": "t_contract(ISuOracle)16726"
      },
      "t_uint256": {
        "encoding": "inplace",
        "label": "uint256",
        "numberOfBytes": "32"
      },
      "t_uint8": {
        "encoding": "inplace",
        "label": "uint8",
        "numberOfBytes": "1"
      }
    }
  }
}