{
  "address": "0x581E6C24A4964Ac0c89590F45ED7D23D05CAe8B3",
  "abi": [
    {
      "inputs": [],
      "name": "AlreadyPaused",
      "type": "error"
    },
    {
      "inputs": [],
      "name": "BadAccessControlSingleton",
      "type": "error"
    },
    {
      "inputs": [],
      "name": "NotPaused",
      "type": "error"
    },
    {
      "inputs": [],
      "name": "OnlyAdminError",
      "type": "error"
    },
    {
      "inputs": [],
      "name": "OnlyDAOError",
      "type": "error"
    },
    {
      "inputs": [],
      "name": "OnlyLiquidationAccessError",
      "type": "error"
    },
    {
      "inputs": [],
      "name": "OnlyMintAccessError",
      "type": "error"
    },
    {
      "inputs": [],
      "name": "OnlyPauserError",
      "type": "error"
    },
    {
      "inputs": [],
      "name": "OnlyRewardAccessError",
      "type": "error"
    },
    {
      "inputs": [],
      "name": "OnlyVaultAccessError",
      "type": "error"
    },
    {
      "anonymous": false,
      "inputs": [
        {
          "indexed": false,
          "internalType": "uint8",
          "name": "version",
          "type": "uint8"
        }
      ],
      "name": "Initialized",
      "type": "event"
    },
    {
      "anonymous": false,
      "inputs": [
        {
          "indexed": false,
          "internalType": "address",
          "name": "account",
          "type": "address"
        },
        {
          "indexed": false,
          "internalType": "address",
          "name": "collateral",
          "type": "address"
        }
      ],
      "name": "PausedCollateral",
      "type": "event"
    },
    {
      "anonymous": false,
      "inputs": [
        {
          "indexed": false,
          "internalType": "address",
          "name": "account",
          "type": "address"
        },
        {
          "indexed": false,
          "internalType": "address",
          "name": "_contract",
          "type": "address"
        }
      ],
      "name": "PausedContract",
      "type": "event"
    },
    {
      "anonymous": false,
      "inputs": [
        {
          "indexed": false,
          "internalType": "address",
          "name": "account",
          "type": "address"
        },
        {
          "indexed": false,
          "internalType": "address",
          "name": "collateral",
          "type": "address"
        }
      ],
      "name": "UnpausedCollateral",
      "type": "event"
    },
    {
      "anonymous": false,
      "inputs": [
        {
          "indexed": false,
          "internalType": "address",
          "name": "account",
          "type": "address"
        },
        {
          "indexed": false,
          "internalType": "address",
          "name": "_contract",
          "type": "address"
        }
      ],
      "name": "UnpausedContract",
      "type": "event"
    },
    {
      "inputs": [],
      "name": "ACCESS_CONTROL_SINGLETON",
      "outputs": [
        {
          "internalType": "contract ISuAccessControl",
          "name": "",
          "type": "address"
        }
      ],
      "stateMutability": "view",
      "type": "function"
    },
    {
      "inputs": [],
      "name": "ADMIN_ROLE",
      "outputs": [
        {
          "internalType": "bytes32",
          "name": "",
          "type": "bytes32"
        }
      ],
      "stateMutability": "view",
      "type": "function"
    },
    {
      "inputs": [],
      "name": "DAO_ROLE",
      "outputs": [
        {
          "internalType": "bytes32",
          "name": "",
          "type": "bytes32"
        }
      ],
      "stateMutability": "view",
      "type": "function"
    },
    {
      "inputs": [],
      "name": "LIQUIDATION_ACCESS_ROLE",
      "outputs": [
        {
          "internalType": "bytes32",
          "name": "",
          "type": "bytes32"
        }
      ],
      "stateMutability": "view",
      "type": "function"
    },
    {
      "inputs": [],
      "name": "MINT_ACCESS_ROLE",
      "outputs": [
        {
          "internalType": "bytes32",
          "name": "",
          "type": "bytes32"
        }
      ],
      "stateMutability": "view",
      "type": "function"
    },
    {
      "inputs": [],
      "name": "PAUSER_ROLE",
      "outputs": [
        {
          "internalType": "bytes32",
          "name": "",
          "type": "bytes32"
        }
      ],
      "stateMutability": "view",
      "type": "function"
    },
    {
      "inputs": [],
      "name": "REWARD_ACCESS_ROLE",
      "outputs": [
        {
          "internalType": "bytes32",
          "name": "",
          "type": "bytes32"
        }
      ],
      "stateMutability": "view",
      "type": "function"
    },
    {
      "inputs": [],
      "name": "VAULT_ACCESS_ROLE",
      "outputs": [
        {
          "internalType": "bytes32",
          "name": "",
          "type": "bytes32"
        }
      ],
      "stateMutability": "view",
      "type": "function"
    },
    {
      "inputs": [
        {
          "internalType": "address[]",
          "name": "collaterals",
          "type": "address[]"
        }
      ],
      "name": "batchPauseCollateral",
      "outputs": [],
      "stateMutability": "nonpayable",
      "type": "function"
    },
    {
      "inputs": [
        {
          "internalType": "address[]",
          "name": "collaterals",
          "type": "address[]"
        }
      ],
      "name": "batchUnpauseCollateral",
      "outputs": [],
      "stateMutability": "nonpayable",
      "type": "function"
    },
    {
      "inputs": [
        {
          "internalType": "address",
          "name": "_authControl",
          "type": "address"
        }
      ],
      "name": "initialize",
      "outputs": [],
      "stateMutability": "nonpayable",
      "type": "function"
    },
    {
      "inputs": [
        {
          "internalType": "address",
          "name": "collateral",
          "type": "address"
        }
      ],
      "name": "isPaused",
      "outputs": [
        {
          "internalType": "bool",
          "name": "",
          "type": "bool"
        }
      ],
      "stateMutability": "view",
      "type": "function"
    },
    {
      "inputs": [],
      "name": "pauseAll",
      "outputs": [],
      "stateMutability": "nonpayable",
      "type": "function"
    },
    {
      "inputs": [
        {
          "internalType": "address",
          "name": "collateral",
          "type": "address"
        }
      ],
      "name": "pauseCollateral",
      "outputs": [],
      "stateMutability": "nonpayable",
      "type": "function"
    },
    {
      "inputs": [
        {
          "internalType": "address",
          "name": "_contract",
          "type": "address"
        }
      ],
      "name": "pauseContract",
      "outputs": [],
      "stateMutability": "nonpayable",
      "type": "function"
    },
    {
      "inputs": [
        {
          "internalType": "bytes4",
          "name": "interfaceId",
          "type": "bytes4"
        }
      ],
      "name": "supportsInterface",
      "outputs": [
        {
          "internalType": "bool",
          "name": "",
          "type": "bool"
        }
      ],
      "stateMutability": "view",
      "type": "function"
    },
    {
      "inputs": [],
      "name": "unpauseAll",
      "outputs": [],
      "stateMutability": "nonpayable",
      "type": "function"
    },
    {
      "inputs": [
        {
          "internalType": "address",
          "name": "collateral",
          "type": "address"
        }
      ],
      "name": "unpauseCollateral",
      "outputs": [],
      "stateMutability": "nonpayable",
      "type": "function"
    },
    {
      "inputs": [
        {
          "internalType": "address",
          "name": "_contract",
          "type": "address"
        }
      ],
      "name": "unpauseContract",
      "outputs": [],
      "stateMutability": "nonpayable",
      "type": "function"
    }
  ],
  "numDeployments": 1,
  "solcInputHash": "dd557791782b2a744fb91d3e74be9d42",
  "bytecode": "0x6080806040523461001657610fad908161001c8239f35b600080fdfe608080604052600436101561001357600080fd5b600090813560e01c90816301ffc9a714610d6c5750806303ee9f2214610d4157806314c376dc14610d065780633d12bf6814610c2e578063438280dd14610bf3578063595c6a6714610b5e5780635b14f18314610ae757806375b238fc14610acb57806381338402146109535780638a2ddd03146108b65780638e5313e01461087b578063936b10b5146106de5780639903764d14610604578063adb99c8a14610506578063c4d66de8146102ca578063d97b9bd514610193578063dc97e84e14610158578063e63ab1e91461012f5763e9c26518146100f257600080fd5b3461012c578060031936011261012c5760206040517f3b5d4cc60d3ec3516ee8ae083bd60934f6eb2a6c54b1229985c41bfb092b26038152f35b80fd5b503461012c578060031936011261012c576020604051600080516020610f188339815191528152f35b503461012c578060031936011261012c5760206040517f9a9aef7c1247d5fc769b0185c052913e39673da29a880317dfd20ebf86f26a498152f35b503461012c576020806003193601126102c6576001600160a01b0360043581811692918382036102c25782604491865460101c1660405192838092632474521560e21b8252600080516020610f1883398151915260048301523360248301525afa9081156102b757859161028a575b5015610278578284526034825260ff60408520541615610266576034610260927f89a3d3fda348502e6f73d7a13fc1c360e76ffdd48255c834c2e6a7742fe0f68b948652526040842060ff1981541690556040519182913383610e9e565b0390a180f35b604051636cd6020160e01b8152600490fd5b60405163a3cd96a960e01b8152600490fd5b6102aa9150833d85116102b0575b6102a28183610e4d565b810190610e86565b38610202565b503d610298565b6040513d87823e3d90fd5b8480fd5b5080fd5b503461012c576020806003193601126102c657600435906001600160a01b03821680830361050257835460ff8160081c1615908180926104f5575b80156104de575b156104825760ff1981811660011787559082610471575b5085549460ff8660081c16156104185762010000600160b01b0360109190911b1662010000600160b01b03198616811787556040516301ffc9a760e01b8152637965db0b60e01b600482015290938590829060249082905afa90811561040d5787916103f0575b50156103de576035541660355561039f578380f35b7f7f26b83ff96e1f2b6a682f133852f6798a09c465da95921460cefb384740249892610100600160b01b03191617835560405160018152a13880808380f35b6040516384d942fd60e01b8152600490fd5b6104079150853d87116102b0576102a28183610e4d565b3861038a565b6040513d89823e3d90fd5b60405162461bcd60e51b815260048101869052602b60248201527f496e697469616c697a61626c653a20636f6e7472616374206973206e6f74206960448201526a6e697469616c697a696e6760a81b6064820152608490fd5b61ffff191661010117865538610323565b60405162461bcd60e51b815260048101859052602e60248201527f496e697469616c697a61626c653a20636f6e747261637420697320616c72656160448201526d191e481a5b9a5d1a585b1a5e995960921b6064820152608490fd5b50303b15801561030c5750600160ff82161461030c565b50600160ff821610610305565b8380fd5b503461012c576020806003193601126102c6576001600160a01b0360043581811692918382036102c25782604491865460101c1660405192838092632474521560e21b8252600080516020610f1883398151915260048301523360248301525afa9081156102b75785916105e7575b5015610278578284526034825260ff6040852054166105d5576034610260927f399539b980d306fdb9c06e54d4d9641bc47e79fdbbbe60801ea630eefee955f09486525260408420600160ff198254161790556040519182913383610e9e565b604051631785c68160e01b8152600490fd5b6105fe9150833d85116102b0576102a28183610e4d565b38610575565b503461012c576020806003193601126102c6576001600160a01b0360043581811692918382036102c25782604491865460101c1660405192838092632474521560e21b8252600080516020610f1883398151915260048301523360248301525afa9081156102b75785916106c1575b5015610278578284526033825260ff6040852054166105d557603361026092600080516020610f588339815191529486525260408420600160ff198254161790556040519182913383610e9e565b6106d89150833d85116102b0576102a28183610e4d565b38610673565b503461012c576106ed36610dfb565b8254604051632474521560e21b8152600080516020610f188339815191526004820152336024820152919291906020908290604490829060101c6001600160a01b03165afa908115610870578491610851575b501561027857825b828110610753578380f35b610766610761828585610edd565b610f03565b8454604051632474521560e21b8152600080516020610f188339815191526004820152336024820152919291906020908290604490829060101c6001600160a01b03165afa908115610846578691610827575b5015610278576001600160a01b03821680865260336020819052604087205490919060ff166105d55786526020526040808620805460ff191660011790555161082292600080516020610f588339815191529190819061081a903383610e9e565b0390a1610eb8565b610748565b610840915060203d6020116102b0576102a28183610e4d565b386107b9565b6040513d88823e3d90fd5b61086a915060203d6020116102b0576102a28183610e4d565b38610740565b6040513d86823e3d90fd5b503461012c578060031936011261012c5760206040517fe453bacb314e78dcd5192e6b1a2b1f0e7c76e92f6b7e429a6a90f04e39db3b768152f35b503461012c578060031936011261012c578054604051632474521560e21b8152600080516020610f188339815191526004820152336024820152906020908290604490829060101c6001600160a01b03165afa90811561094857829161092a575b50156102785760ff196035541660355580f35b610942915060203d81116102b0576102a28183610e4d565b38610917565b6040513d84823e3d90fd5b503461012c5761096236610dfb565b8254604051632474521560e21b8152600080516020610f188339815191526004820152336024820152919291906020908290604490829060101c6001600160a01b03165afa908115610870578491610aac575b501561027857825b8281106109c8578380f35b6109d6610761828585610edd565b8454604051632474521560e21b8152600080516020610f188339815191526004820152336024820152919291906020908290604490829060101c6001600160a01b03165afa908115610846578691610a8d575b5015610278576001600160a01b03821680865260336020819052604087205490919060ff16156102665786526020526040808620805460ff1916905551610a8892600080516020610f388339815191529190819061081a903383610e9e565b6109bd565b610aa6915060203d6020116102b0576102a28183610e4d565b38610a29565b610ac5915060203d6020116102b0576102a28183610e4d565b386109b5565b503461012c578060031936011261012c57602090604051908152f35b503461012c57602036600319011261012c576004356001600160a01b038116908190036102c6578152603360205260ff604082205416908115610b46575b508015610b3a575b6020906040519015158152f35b5060355460ff16610b2d565b60ff9150604090338152603460205220541638610b25565b503461012c578060031936011261012c578054604051632474521560e21b8152600080516020610f188339815191526004820152336024820152906020908290604490829060101c6001600160a01b03165afa908115610948578291610bd5575b501561027857600160ff19603554161760355580f35b610bed915060203d81116102b0576102a28183610e4d565b38610bbf565b503461012c578060031936011261012c5760206040517f39f61ca2a1a28fee144218173ec637b649a353e4026b2738c673800e5bf1437b8152f35b503461012c576020806003193601126102c6576001600160a01b0360043581811692918382036102c25782604491865460101c1660405192838092632474521560e21b8252600080516020610f1883398151915260048301523360248301525afa9081156102b7578591610ce9575b5015610278578284526033825260ff6040852054161561026657603361026092600080516020610f38833981519152948652526040842060ff1981541690556040519182913383610e9e565b610d009150833d85116102b0576102a28183610e4d565b38610c9d565b503461012c578060031936011261012c5760206040517fe965846df3dd5b1dfa65f58e31477079e90140e0908b6dd31b5aead5a57cf3658152f35b503461012c578060031936011261012c575460405160109190911c6001600160a01b03168152602090f35b9050346102c65760203660031901126102c65760043563ffffffff60e01b8116809103610df75782546301ffc9a760e01b835260048301919091526020908290602490829060101c6001600160a01b03165afa9081156109485760209291610dda575b506040519015158152f35b610df19150823d81116102b0576102a28183610e4d565b38610dcf565b8280fd5b906020600319830112610e48576001600160401b039160043590838211610e485780602383011215610e48578160040135938411610e485760248460051b83010111610e48576024019190565b600080fd5b601f909101601f19168101906001600160401b03821190821017610e7057604052565b634e487b7160e01b600052604160045260246000fd5b90816020910312610e4857518015158103610e485790565b6001600160a01b0391821681529116602082015260400190565b6000198114610ec75760010190565b634e487b7160e01b600052601160045260246000fd5b9190811015610eed5760051b0190565b634e487b7160e01b600052603260045260246000fd5b356001600160a01b0381168103610e48579056fe65d7a28e3265b37a6474929f336521b332c1681b933f6cb9f3376673440d862a0ff868317c539b6cf544d58b9bf4a804d4eb9b470973a8af72b955706cb5ba9d222bff8732285e05b0b7145168b258094e6bf8f0f7b136a9224345a3f4cdaee0a264697066735822122010072a9efca34e5d63ff21385544aea955de4eace65b217afba3f5e4e7c39bb864736f6c63430008110033",
  "devdoc": {
    "details": "Contract module which allows to implement an emergency stop mechanism that can be triggered only by an owner.",
    "kind": "dev",
    "methods": {
      "supportsInterface(bytes4)": {
        "details": "Returns true if this contract implements the interface defined by `interfaceId`. See the corresponding https://eips.ethereum.org/EIPS/eip-165#how-interfaces-are-identified[EIP section] to learn more about how these ids are created. This function call must use less than 30 000 gas."
      }
    },
    "stateVariables": {
      "__gap": {
        "details": "This empty reserved space is put in place to allow future versions to add new variables without shifting down storage in the inheritance chain. See https://docs.openzeppelin.com/contracts/4.x/upgradeable#storage_gaps"
      }
    },
    "version": 1
  },
  "userdoc": {
    "kind": "user",
    "methods": {},
    "version": 1
  },
  "storageLayout": {
    "storage": [
      {
        "astId": 461,
        "contract": "contracts/emergency/SuPausable.sol:SuPausable",
        "label": "_initialized",
        "offset": 0,
        "slot": "0",
        "type": "t_uint8"
      },
      {
        "astId": 464,
        "contract": "contracts/emergency/SuPausable.sol:SuPausable",
        "label": "_initializing",
        "offset": 1,
        "slot": "0",
        "type": "t_bool"
      },
      {
        "astId": 9094,
        "contract": "contracts/emergency/SuPausable.sol:SuPausable",
        "label": "ACCESS_CONTROL_SINGLETON",
        "offset": 2,
        "slot": "0",
        "type": "t_contract(ISuAccessControl)16250"
      },
      {
        "astId": 1593,
        "contract": "contracts/emergency/SuPausable.sol:SuPausable",
        "label": "__gap",
        "offset": 0,
        "slot": "1",
        "type": "t_array(t_uint256)50_storage"
      },
      {
        "astId": 9544,
        "contract": "contracts/emergency/SuPausable.sol:SuPausable",
        "label": "_isCollateralPaused",
        "offset": 0,
        "slot": "51",
        "type": "t_mapping(t_address,t_bool)"
      },
      {
        "astId": 9548,
        "contract": "contracts/emergency/SuPausable.sol:SuPausable",
        "label": "_isContractPaused",
        "offset": 0,
        "slot": "52",
        "type": "t_mapping(t_address,t_bool)"
      },
      {
        "astId": 9550,
        "contract": "contracts/emergency/SuPausable.sol:SuPausable",
        "label": "_isAllPaused",
        "offset": 0,
        "slot": "53",
        "type": "t_bool"
      },
      {
        "astId": 9776,
        "contract": "contracts/emergency/SuPausable.sol:SuPausable",
        "label": "__gap",
        "offset": 0,
        "slot": "54",
        "type": "t_array(t_uint256)45_storage"
      }
    ],
    "types": {
      "t_address": {
        "encoding": "inplace",
        "label": "address",
        "numberOfBytes": "20"
      },
      "t_array(t_uint256)45_storage": {
        "base": "t_uint256",
        "encoding": "inplace",
        "label": "uint256[45]",
        "numberOfBytes": "1440"
      },
      "t_array(t_uint256)50_storage": {
        "base": "t_uint256",
        "encoding": "inplace",
        "label": "uint256[50]",
        "numberOfBytes": "1600"
      },
      "t_bool": {
        "encoding": "inplace",
        "label": "bool",
        "numberOfBytes": "1"
      },
      "t_contract(ISuAccessControl)16250": {
        "encoding": "inplace",
        "label": "contract ISuAccessControl",
        "numberOfBytes": "20"
      },
      "t_mapping(t_address,t_bool)": {
        "encoding": "mapping",
        "key": "t_address",
        "label": "mapping(address => bool)",
        "numberOfBytes": "32",
        "value": "t_bool"
      },
      "t_uint256": {
        "encoding": "inplace",
        "label": "uint256",
        "numberOfBytes": "32"
      },
      "t_uint8": {
        "encoding": "inplace",
        "label": "uint8",
        "numberOfBytes": "1"
      }
    }
  }
}