{
  "address": "0xD31C639d7994E3aA102b009018BF43908CCbCb93",
  "abi": [
    {
      "inputs": [],
      "name": "AlreadyPaused",
      "type": "error"
    },
    {
      "inputs": [],
      "name": "AssetDebtLimit",
      "type": "error"
    },
    {
      "inputs": [],
      "name": "BadAccessControlSingleton",
      "type": "error"
    },
    {
      "inputs": [],
      "name": "LiquidationIsTriggered",
      "type": "error"
    },
    {
      "inputs": [],
      "name": "NotPaused",
      "type": "error"
    },
    {
      "inputs": [],
      "name": "OnlyAdminError",
      "type": "error"
    },
    {
      "inputs": [],
      "name": "OnlyDAOError",
      "type": "error"
    },
    {
      "inputs": [],
      "name": "OnlyLiquidationAccessError",
      "type": "error"
    },
    {
      "inputs": [],
      "name": "OnlyMintAccessError",
      "type": "error"
    },
    {
      "inputs": [],
      "name": "OnlyPauserError",
      "type": "error"
    },
    {
      "inputs": [],
      "name": "OnlyRewardAccessError",
      "type": "error"
    },
    {
      "inputs": [],
      "name": "OnlyVaultAccessError",
      "type": "error"
    },
    {
      "inputs": [],
      "name": "Restricted",
      "type": "error"
    },
    {
      "inputs": [],
      "name": "UselessTransaction",
      "type": "error"
    },
    {
      "inputs": [],
      "name": "WithdrawExceeded",
      "type": "error"
    },
    {
      "inputs": [],
      "name": "WrongDebt",
      "type": "error"
    },
    {
      "inputs": [],
      "name": "WrongTotalDebt",
      "type": "error"
    },
    {
      "inputs": [],
      "name": "ZeroAddress",
      "type": "error"
    },
    {
      "anonymous": false,
      "inputs": [
        {
          "indexed": false,
          "internalType": "uint8",
          "name": "version",
          "type": "uint8"
        }
      ],
      "name": "Initialized",
      "type": "event"
    },
    {
      "anonymous": false,
      "inputs": [
        {
          "indexed": true,
          "internalType": "address",
          "name": "asset",
          "type": "address"
        },
        {
          "indexed": true,
          "internalType": "address",
          "name": "owner",
          "type": "address"
        }
      ],
      "name": "LiquidationTriggered",
      "type": "event"
    },
    {
      "anonymous": false,
      "inputs": [
        {
          "indexed": false,
          "internalType": "address",
          "name": "asset",
          "type": "address"
        },
        {
          "indexed": false,
          "internalType": "address",
          "name": "owner",
          "type": "address"
        },
        {
          "indexed": false,
          "internalType": "address",
          "name": "repayer",
          "type": "address"
        },
        {
          "indexed": false,
          "internalType": "uint256",
          "name": "assetAmountEDecimal",
          "type": "uint256"
        },
        {
          "indexed": false,
          "internalType": "uint256",
          "name": "repaymentE18",
          "type": "uint256"
        }
      ],
      "name": "PositionLiquidated",
      "type": "event"
    },
    {
      "anonymous": false,
      "inputs": [
        {
          "indexed": false,
          "internalType": "address",
          "name": "asset",
          "type": "address"
        },
        {
          "indexed": false,
          "internalType": "address",
          "name": "owner",
          "type": "address"
        },
        {
          "indexed": false,
          "internalType": "address",
          "name": "repayer",
          "type": "address"
        },
        {
          "indexed": false,
          "internalType": "uint256",
          "name": "assetAmountEDecimal",
          "type": "uint256"
        },
        {
          "indexed": false,
          "internalType": "uint256",
          "name": "repaymentE18",
          "type": "uint256"
        }
      ],
      "name": "PositionLiquidatedPartial",
      "type": "event"
    },
    {
      "anonymous": false,
      "inputs": [
        {
          "indexed": false,
          "internalType": "address",
          "name": "repayer",
          "type": "address"
        },
        {
          "indexed": false,
          "internalType": "uint256",
          "name": "repaymentE18",
          "type": "uint256"
        },
        {
          "indexed": false,
          "internalType": "uint256",
          "name": "excessAndFeeE18",
          "type": "uint256"
        }
      ],
      "name": "PositionRepaid",
      "type": "event"
    },
    {
      "inputs": [],
      "name": "ACCESS_CONTROL_SINGLETON",
      "outputs": [
        {
          "internalType": "contract ISuAccessControl",
          "name": "",
          "type": "address"
        }
      ],
      "stateMutability": "view",
      "type": "function"
    },
    {
      "inputs": [],
      "name": "ADMIN_ROLE",
      "outputs": [
        {
          "internalType": "bytes32",
          "name": "",
          "type": "bytes32"
        }
      ],
      "stateMutability": "view",
      "type": "function"
    },
    {
      "inputs": [],
      "name": "DAO_ROLE",
      "outputs": [
        {
          "internalType": "bytes32",
          "name": "",
          "type": "bytes32"
        }
      ],
      "stateMutability": "view",
      "type": "function"
    },
    {
      "inputs": [],
      "name": "LIQUIDATION_ACCESS_ROLE",
      "outputs": [
        {
          "internalType": "bytes32",
          "name": "",
          "type": "bytes32"
        }
      ],
      "stateMutability": "view",
      "type": "function"
    },
    {
      "inputs": [],
      "name": "MINT_ACCESS_ROLE",
      "outputs": [
        {
          "internalType": "bytes32",
          "name": "",
          "type": "bytes32"
        }
      ],
      "stateMutability": "view",
      "type": "function"
    },
    {
      "inputs": [],
      "name": "PAUSER_ROLE",
      "outputs": [
        {
          "internalType": "bytes32",
          "name": "",
          "type": "bytes32"
        }
      ],
      "stateMutability": "view",
      "type": "function"
    },
    {
      "inputs": [],
      "name": "REWARD_ACCESS_ROLE",
      "outputs": [
        {
          "internalType": "bytes32",
          "name": "",
          "type": "bytes32"
        }
      ],
      "stateMutability": "view",
      "type": "function"
    },
    {
      "inputs": [],
      "name": "STABLE_PRO",
      "outputs": [
        {
          "internalType": "contract StablePro",
          "name": "",
          "type": "address"
        }
      ],
      "stateMutability": "view",
      "type": "function"
    },
    {
      "inputs": [],
      "name": "VAULT_ACCESS_ROLE",
      "outputs": [
        {
          "internalType": "bytes32",
          "name": "",
          "type": "bytes32"
        }
      ],
      "stateMutability": "view",
      "type": "function"
    },
    {
      "inputs": [
        {
          "internalType": "address",
          "name": "asset",
          "type": "address"
        },
        {
          "internalType": "address",
          "name": "user",
          "type": "address"
        },
        {
          "internalType": "uint256",
          "name": "amountE18",
          "type": "uint256"
        }
      ],
      "name": "borrow",
      "outputs": [],
      "stateMutability": "nonpayable",
      "type": "function"
    },
    {
      "inputs": [
        {
          "internalType": "address",
          "name": "asset",
          "type": "address"
        },
        {
          "internalType": "address",
          "name": "user",
          "type": "address"
        },
        {
          "internalType": "uint256",
          "name": "amountE18",
          "type": "uint256"
        }
      ],
      "name": "calculateFeeE18",
      "outputs": [
        {
          "internalType": "uint256",
          "name": "",
          "type": "uint256"
        }
      ],
      "stateMutability": "view",
      "type": "function"
    },
    {
      "inputs": [
        {
          "internalType": "address",
          "name": "",
          "type": "address"
        },
        {
          "internalType": "address",
          "name": "",
          "type": "address"
        }
      ],
      "name": "collateralsEDecimal",
      "outputs": [
        {
          "internalType": "uint256",
          "name": "",
          "type": "uint256"
        }
      ],
      "stateMutability": "view",
      "type": "function"
    },
    {
      "inputs": [
        {
          "internalType": "address",
          "name": "",
          "type": "address"
        },
        {
          "internalType": "address",
          "name": "",
          "type": "address"
        }
      ],
      "name": "debtWithFeesE18",
      "outputs": [
        {
          "internalType": "uint256",
          "name": "",
          "type": "uint256"
        }
      ],
      "stateMutability": "view",
      "type": "function"
    },
    {
      "inputs": [
        {
          "internalType": "address",
          "name": "",
          "type": "address"
        },
        {
          "internalType": "address",
          "name": "",
          "type": "address"
        }
      ],
      "name": "debtsE18",
      "outputs": [
        {
          "internalType": "uint256",
          "name": "",
          "type": "uint256"
        }
      ],
      "stateMutability": "view",
      "type": "function"
    },
    {
      "inputs": [
        {
          "internalType": "address",
          "name": "asset",
          "type": "address"
        },
        {
          "internalType": "address",
          "name": "user",
          "type": "address"
        },
        {
          "internalType": "uint256",
          "name": "amountEDecimal",
          "type": "uint256"
        },
        {
          "internalType": "uint256",
          "name": "lockupPeriodSeconds",
          "type": "uint256"
        }
      ],
      "name": "deposit",
      "outputs": [],
      "stateMutability": "nonpayable",
      "type": "function"
    },
    {
      "inputs": [
        {
          "internalType": "address",
          "name": "asset",
          "type": "address"
        },
        {
          "internalType": "address",
          "name": "user",
          "type": "address"
        }
      ],
      "name": "destroy",
      "outputs": [],
      "stateMutability": "nonpayable",
      "type": "function"
    },
    {
      "inputs": [
        {
          "internalType": "address",
          "name": "asset",
          "type": "address"
        },
        {
          "internalType": "address",
          "name": "user",
          "type": "address"
        },
        {
          "internalType": "uint256",
          "name": "amountEDecimal",
          "type": "uint256"
        }
      ],
      "name": "emergencyWithdraw",
      "outputs": [],
      "stateMutability": "nonpayable",
      "type": "function"
    },
    {
      "inputs": [],
      "name": "foundation",
      "outputs": [
        {
          "internalType": "address",
          "name": "",
          "type": "address"
        }
      ],
      "stateMutability": "view",
      "type": "function"
    },
    {
      "inputs": [
        {
          "internalType": "address",
          "name": "asset",
          "type": "address"
        },
        {
          "internalType": "address",
          "name": "user",
          "type": "address"
        }
      ],
      "name": "getTotalDebtE18",
      "outputs": [
        {
          "internalType": "uint256",
          "name": "",
          "type": "uint256"
        }
      ],
      "stateMutability": "view",
      "type": "function"
    },
    {
      "inputs": [
        {
          "internalType": "address",
          "name": "_authControl",
          "type": "address"
        },
        {
          "internalType": "address",
          "name": "_stablePro",
          "type": "address"
        },
        {
          "internalType": "address",
          "name": "_foundation",
          "type": "address"
        },
        {
          "internalType": "address",
          "name": "_rewardChef",
          "type": "address"
        },
        {
          "internalType": "address",
          "name": "_suPausable",
          "type": "address"
        }
      ],
      "name": "initialize",
      "outputs": [],
      "stateMutability": "nonpayable",
      "type": "function"
    },
    {
      "inputs": [
        {
          "internalType": "address",
          "name": "",
          "type": "address"
        },
        {
          "internalType": "address",
          "name": "",
          "type": "address"
        }
      ],
      "name": "lastUpdate",
      "outputs": [
        {
          "internalType": "uint256",
          "name": "",
          "type": "uint256"
        }
      ],
      "stateMutability": "view",
      "type": "function"
    },
    {
      "inputs": [
        {
          "internalType": "address",
          "name": "asset",
          "type": "address"
        },
        {
          "internalType": "address",
          "name": "user",
          "type": "address"
        },
        {
          "internalType": "address",
          "name": "recipient",
          "type": "address"
        },
        {
          "internalType": "uint256",
          "name": "assetAmountEDecimal",
          "type": "uint256"
        },
        {
          "internalType": "uint256",
          "name": "stablecoinAmountE18",
          "type": "uint256"
        }
      ],
      "name": "liquidate",
      "outputs": [],
      "stateMutability": "nonpayable",
      "type": "function"
    },
    {
      "inputs": [
        {
          "internalType": "address",
          "name": "",
          "type": "address"
        },
        {
          "internalType": "address",
          "name": "",
          "type": "address"
        }
      ],
      "name": "liquidationBlock",
      "outputs": [
        {
          "internalType": "uint256",
          "name": "",
          "type": "uint256"
        }
      ],
      "stateMutability": "view",
      "type": "function"
    },
    {
      "inputs": [
        {
          "internalType": "address",
          "name": "repayer",
          "type": "address"
        },
        {
          "internalType": "uint256",
          "name": "stablecoinsToRepaymentE18",
          "type": "uint256"
        },
        {
          "internalType": "uint256",
          "name": "stablecoinsToFoundationE18",
          "type": "uint256"
        }
      ],
      "name": "payFeeAndBurn",
      "outputs": [],
      "stateMutability": "nonpayable",
      "type": "function"
    },
    {
      "inputs": [
        {
          "internalType": "address",
          "name": "",
          "type": "address"
        }
      ],
      "name": "protocolStabilityFeeE18",
      "outputs": [
        {
          "internalType": "uint256",
          "name": "",
          "type": "uint256"
        }
      ],
      "stateMutability": "view",
      "type": "function"
    },
    {
      "inputs": [],
      "name": "rewardChef",
      "outputs": [
        {
          "internalType": "contract RewardChefV2",
          "name": "",
          "type": "address"
        }
      ],
      "stateMutability": "view",
      "type": "function"
    },
    {
      "inputs": [
        {
          "internalType": "address",
          "name": "asset",
          "type": "address"
        },
        {
          "internalType": "uint256",
          "name": "stabilityFeeValueE18",
          "type": "uint256"
        },
        {
          "internalType": "uint256",
          "name": "stablecoinLimitE18",
          "type": "uint256"
        }
      ],
      "name": "setCollateral",
      "outputs": [],
      "stateMutability": "nonpayable",
      "type": "function"
    },
    {
      "inputs": [
        {
          "internalType": "address",
          "name": "newFoundation",
          "type": "address"
        }
      ],
      "name": "setFoundation",
      "outputs": [],
      "stateMutability": "nonpayable",
      "type": "function"
    },
    {
      "inputs": [
        {
          "internalType": "address",
          "name": "_rewardChef",
          "type": "address"
        }
      ],
      "name": "setRewardChef",
      "outputs": [],
      "stateMutability": "nonpayable",
      "type": "function"
    },
    {
      "inputs": [
        {
          "internalType": "address",
          "name": "asset",
          "type": "address"
        },
        {
          "internalType": "uint256",
          "name": "newValue",
          "type": "uint256"
        }
      ],
      "name": "setStabilityFeeE18",
      "outputs": [],
      "stateMutability": "nonpayable",
      "type": "function"
    },
    {
      "inputs": [
        {
          "internalType": "address",
          "name": "asset",
          "type": "address"
        },
        {
          "internalType": "uint256",
          "name": "limit",
          "type": "uint256"
        }
      ],
      "name": "setTokenDebtLimitE18",
      "outputs": [],
      "stateMutability": "nonpayable",
      "type": "function"
    },
    {
      "inputs": [
        {
          "internalType": "address",
          "name": "",
          "type": "address"
        },
        {
          "internalType": "address",
          "name": "",
          "type": "address"
        }
      ],
      "name": "stabilityFeeE18",
      "outputs": [
        {
          "internalType": "uint256",
          "name": "",
          "type": "uint256"
        }
      ],
      "stateMutability": "view",
      "type": "function"
    },
    {
      "inputs": [
        {
          "internalType": "bytes4",
          "name": "interfaceId",
          "type": "bytes4"
        }
      ],
      "name": "supportsInterface",
      "outputs": [
        {
          "internalType": "bool",
          "name": "",
          "type": "bool"
        }
      ],
      "stateMutability": "view",
      "type": "function"
    },
    {
      "inputs": [
        {
          "internalType": "address",
          "name": "",
          "type": "address"
        }
      ],
      "name": "tokenDebtLimitE18",
      "outputs": [
        {
          "internalType": "uint256",
          "name": "",
          "type": "uint256"
        }
      ],
      "stateMutability": "view",
      "type": "function"
    },
    {
      "inputs": [
        {
          "internalType": "address",
          "name": "",
          "type": "address"
        }
      ],
      "name": "tokenDebtsE18",
      "outputs": [
        {
          "internalType": "uint256",
          "name": "",
          "type": "uint256"
        }
      ],
      "stateMutability": "view",
      "type": "function"
    },
    {
      "inputs": [
        {
          "internalType": "address",
          "name": "",
          "type": "address"
        }
      ],
      "name": "tokenDebtsWithFeesE18",
      "outputs": [
        {
          "internalType": "uint256",
          "name": "",
          "type": "uint256"
        }
      ],
      "stateMutability": "view",
      "type": "function"
    },
    {
      "inputs": [
        {
          "internalType": "address",
          "name": "asset",
          "type": "address"
        },
        {
          "internalType": "address",
          "name": "positionOwner",
          "type": "address"
        }
      ],
      "name": "triggerLiquidation",
      "outputs": [],
      "stateMutability": "nonpayable",
      "type": "function"
    },
    {
      "inputs": [
        {
          "internalType": "address",
          "name": "asset",
          "type": "address"
        },
        {
          "internalType": "address",
          "name": "user",
          "type": "address"
        }
      ],
      "name": "update",
      "outputs": [],
      "stateMutability": "nonpayable",
      "type": "function"
    },
    {
      "inputs": [],
      "name": "vault",
      "outputs": [
        {
          "internalType": "address",
          "name": "",
          "type": "address"
        }
      ],
      "stateMutability": "view",
      "type": "function"
    },
    {
      "inputs": [
        {
          "internalType": "address",
          "name": "asset",
          "type": "address"
        },
        {
          "internalType": "address",
          "name": "user",
          "type": "address"
        },
        {
          "internalType": "address",
          "name": "recipient",
          "type": "address"
        },
        {
          "internalType": "uint256",
          "name": "amountEDecimal",
          "type": "uint256"
        }
      ],
      "name": "withdraw",
      "outputs": [],
      "stateMutability": "nonpayable",
      "type": "function"
    },
    {
      "stateMutability": "payable",
      "type": "receive"
    }
  ],
  "numDeployments": 6,
  "solcInputHash": "dd557791782b2a744fb91d3e74be9d42",
  "bytecode": "0x608080604052346100165761295f908161001c8239f35b600080fdfe608080604052600436101561002d575b50361561001b57600080fd5b60405163ccc0891360e01b8152600490fd5b600090813560e01c90816301ffc9a7146123185750806303ee9f22146122ed5780630b620b81146121335780630fc9d694146120e45780631459457a14611e8857806314c376dc14611e5f5780631ce4b4a714611e1057806320e8c56514611c605780632754891e14611c275780632a43734e14611b8357806334c188b014611b6957806334e3b77914611b1a57806341fbb05014611af1578063438280dd14611ab6578063477e9c6a14611a135780635224372c146116bd578063628a46831461159a57806362b40f9f1461145c5780636f70e66f14610d0257806374befebc14610cc957806375b238fc14610cad5780638157537114610c8457806388ad7a6114610c355780638e5313e014610bfa578063965f5cfd14610bc15780639fea3e0714610a60578063a6ea8b8714610a2b578063c640752d14610886578063c9bc43841461085d578063d4796d12146106e9578063d5dc24ba1461069a578063d6ff0b3114610661578063db3543f51461058f578063dc97e84e14610554578063e63ab1e914610519578063e63ea40814610361578063e9c2651814610338578063ec69678a14610268578063f084843d146102195763fbfa77cf0361000f57346102165780600319360112610216576004546040516001600160a01b039091168152602090f35b80fd5b5034610216576040366003190112610216576102336123a7565b604061023d6123bd565b9260018060a01b03809316815260086020522091166000526020526020604060002054604051908152f35b5034610216576040366003190112610216576102826123a7565b8154604051632474521560e21b815260008051602061290a83398151915260048201523360248201526001600160a01b0392916020908290604490829060101c87165afa90811561032d5784916102ff575b50156102ed571681526001602052602435604082205580f35b604051635692bcb560e11b8152600490fd5b610320915060203d8111610326575b6103188183612471565b810190612494565b386102d4565b503d61030e565b6040513d86823e3d90fd5b503461021657806003193601126102165760206040516000805160206128ea8339815191528152f35b503461021657610370366123e9565b909160018060a01b0380855460101c166040518091632474521560e21b825260008051602061290a833981519152600483015233602483015281604460209485935afa9081156104f15787916104fc575b50156102ed578181816005541694602460405180948193635b14f18360e01b835216978860048301525afa9081156104f15787916104d4575b506104c2578286526007815260408620938286169485600052825260406000205481116104b0578695610465928588526007815260408820876000528152610447836040600020546124ac565b90868952600781526040892090886000525260406000205584612772565b600f541691823b156104ab576044849283604051958694859363cf4f68d560e01b8552600485015260248401525af161049b5750f35b6104a490612448565b6102165780f35b505050fd5b604051633b6bb76f60e01b8152600490fd5b604051631785c68160e01b8152600490fd5b6104eb9150823d8411610326576103188183612471565b386103fa565b6040513d89823e3d90fd5b6105139150823d8411610326576103188183612471565b386103c1565b503461021657806003193601126102165760206040517f65d7a28e3265b37a6474929f336521b332c1681b933f6cb9f3376673440d862a8152f35b503461021657806003193601126102165760206040517f9a9aef7c1247d5fc769b0185c052913e39673da29a880317dfd20ebf86f26a498152f35b5034610216576020366003190112610216576105a96123a7565b8154604051632474521560e21b81526000805160206128ea83398151915260048201523360248201526001600160a01b0392916020908290604490829060101c87165afa90811561032d578491610643575b50156106315716801561061f57600380546001600160a01b03191691909117905580f35b60405163d92e233d60e01b8152600490fd5b60405163599a6c3360e11b8152600490fd5b61065b915060203d8111610326576103188183612471565b386105fb565b5034610216576020366003190112610216576020906040906001600160a01b036106896123a7565b168152600283522054604051908152f35b5034610216576040366003190112610216576106b46123a7565b60406106be6123bd565b9260018060a01b03809316815260096020522091166000526020526020604060002054604051908152f35b5034610216576040366003190112610216576107036123a7565b61070b6123bd565b8254604051632474521560e21b815260008051602061290a833981519152600482015233602482015291926020926001600160a01b039284908290604490829060101c87165afa908115610852578691610835575b50156102ed57811690818552600e8352806040862094169384600052835260406000205461082357826024916005541660405192838092635b14f18360e01b82528660048301525afa9081156108185785916107fb575b506104c25782817f5b79a897d30813a62a1f95ba180d3320d3701d96605708b81105e00719a069e48680a38352600e81526040832091600052524360406000205580f35b6108129150833d8511610326576103188183612471565b386107b7565b6040513d87823e3d90fd5b60405163fa5af4cd60e01b8152600490fd5b61084c9150843d8611610326576103188183612471565b38610760565b6040513d88823e3d90fd5b5034610216578060031936011261021657600f546040516001600160a01b039091168152602090f35b5034610216576040366003190112610216576108a06123a7565b6108a86123bd565b8254604051632474521560e21b815260008051602061290a83398151915260048201523360248201526001600160a01b03936020939290919084908290604490829060101c89165afa908115610852578691610a0e575b50156102ed5783811691828652600e845260408620948082169586600052855260406000205461082357846024916005541660405192838092635b14f18360e01b82528860048301525afa9081156104f15787916109f1575b506104c257610966916127cc565b818552600a83526109988161099360408820546008875260408920886000528752604060002054906124ac565b6124cf565b828652600a845260408620556008835260408520846000528352604060002055808452600182526040842054600c8352604085208460005283526040600020558352600d81526040832091600052524260406000205580f35b610a089150853d8711610326576103188183612471565b38610958565b610a259150843d8611610326576103188183612471565b386108ff565b5034610216576040366003190112610216576020610a58610a4a6123a7565b610a526123bd565b906127cc565b604051908152f35b503461021657610a6f3661241e565b8354604051632474521560e21b80825260008051602061290a83398151915260048301819052336024840152939560209491936001600160a01b039360109190911c8416908681604481855afa908115610bb6578a91610b99575b50156102ed5785604491604051928380928982528760048301523360248301525afa908115610b8e578991610b71575b50156102ed578285936044921696878a526001855260408a2055885460101c16936040519485938492835260048301523360248301525afa908115610818578591610b54575b50156102ed57600291845252604082205580f35b610b6b9150823d8411610326576103188183612471565b38610b40565b610b889150863d8811610326576103188183612471565b38610afa565b6040513d8b823e3d90fd5b610bb09150873d8911610326576103188183612471565b38610aca565b6040513d8c823e3d90fd5b5034610216576020366003190112610216576020906040906001600160a01b03610be96123a7565b168152600183522054604051908152f35b503461021657806003193601126102165760206040517fe453bacb314e78dcd5192e6b1a2b1f0e7c76e92f6b7e429a6a90f04e39db3b768152f35b503461021657604036600319011261021657610c4f6123a7565b6040610c596123bd565b9260018060a01b038093168152600d6020522091166000526020526020604060002054604051908152f35b50346102165780600319360112610216576006546040516001600160a01b039091168152602090f35b5034610216578060031936011261021657602090604051908152f35b5034610216576020366003190112610216576020906040906001600160a01b03610cf16123a7565b168152600b83522054604051908152f35b50346102165760a036600319011261021657610d1c6123a7565b610d246123bd565b90610d2d6123d3565b8354604051632474521560e21b815260008051602061290a833981519152600482015233602482015260109190911c6001600160a01b031690602081604481855afa90811561085257869161143d575b50156102ed57600554604051635b14f18360e01b81526001600160a01b038581166004830152909160209183916024918391165afa90811561085257869161141e575b506104c25760643515908180611414575b611402576084356111a4575b5015610fb4575b6001600160a01b03828116855260086020908152604080872092861660008181529390925290912054610f7a578454604051632474521560e21b815260008051602061290a8339815191526004820152336024820152906020908290604490829060101c6001600160a01b03165afa908115610852578691610f5b575b50156102ed57600554604051635b14f18360e01b81526001600160a01b038581166004830152909160209183916024918391165afa908115610852578691610f3c575b506104c2576001600160a01b038316808652600c602090815260408088206000858152908352818120899055838952600d83528189208582528352818120899055928852600e8252808820938352929052819020859055517faaa3e6a935674cc172e60bf40d5e74691d4b2192405f3843f12ac33dacadb73d9390928392610f36926084359260643592919086612799565b0390a180f35b610f55915060203d602011610326576103188183612471565b38610ea4565b610f74915060203d602011610326576103188183612471565b38610e61565b50610f367f1aa32b453741aadaad9ed1a4be10676ce1cf45e4843cc4aa25e5fd969fc2514f93604051938493608435926064359286612799565b8354604051632474521560e21b815260008051602061290a8339815191526004820152336024820152906020908290604490829060101c6001600160a01b03165afa908115610818578591611185575b50156102ed57600554604051635b14f18360e01b81526001600160a01b038481166004830152909160209183916024918391165afa908115610818578591611166575b506104c2576001600160a01b03828116855260076020908152604080872092861660008181529390925290912054606435116104b05760018060a01b0383168552600760205260408520816000526020526110a96064356040600020546124ac565b6001600160a01b038481168752600760209081526040808920600095865290915290922055811661114b575b600f5484906001600160a01b0316803b1561114757816040518092636aed34f760e01b825281838161110e6064358c8c600485016124dc565b03925af1801561113c57611124575b5050610de4565b61112d90612448565b61113857833861111d565b8380fd5b6040513d84823e3d90fd5b5080fd5b611161606435826001600160a01b038516612772565b6110d5565b61117f915060203d602011610326576103188183612471565b38611047565b61119e915060203d602011610326576103188183612471565b38611004565b602060449160405192838092632474521560e21b825260008051602061290a83398151915260048301523360248301525afa9081156108525786916113e3575b50156102ed576001600160a01b038381168652600860209081526040808820928716600090815292909152902054608435116113d1576001600160a01b0383168552600a6020526040852054608435116113bf576001600160a01b03838116865260096020908152604080882092871660009081529290915290205460843511156113b65760018060a01b038316855260096020526040852060018060a01b03851660005260205261139a6112a06040600020546084356124ac565b60018060a01b038516875260086020526040872060018060a01b0387166000526020526112d46084356040600020546124ac565b6001600160a01b03868116808a52600860209081526040808c20938b16600081815294835281852095909555918b5260098152818b2093835292909252205461132b90608435906113269084906124cf565b6124ac565b6001600160a01b03868116808a52600960209081526040808c20938b16600090815293825292839020939093558952600a90915287205461136f90608435906124ac565b60018060a01b0386168852600a6020526040882055600b6020526113266084359160408920546124cf565b6001600160a01b0384168652600b602052604086205538610ddd565b61139a856112a0565b604051634bf0a71560e11b8152600490fd5b6040516371fa0fd760e01b8152600490fd5b6113fc915060203d602011610326576103188183612471565b386111e4565b60405163fa95696160e01b8152600490fd5b5060843515610dd1565b611437915060203d602011610326576103188183612471565b38610dc0565b611456915060203d602011610326576103188183612471565b38610d7d565b5034610216576040366003190112610216576114766123a7565b61147e6123bd565b8254604051632474521560e21b815260008051602061290a8339815191526004820152336024820152919260209290916001600160a01b03919084908290604490829060101c86165afa90811561085257869161157d575b50156102ed578083816005541693602460405180948193635b14f18360e01b835216968760048301525afa908115610852578691611560575b506104c257818552600c83526040852093169283600052825283604060002055808452600d825260408420836000528252836040600020558352600e81526040832091600052528060406000205580f35b6115779150843d8611610326576103188183612471565b3861150f565b6115949150843d8611610326576103188183612471565b386114d6565b5034610216576115a93661241e565b8354604051632474521560e21b815260008051602061290a83398151915260048201523360248201529193916001600160a01b03916020908290604490829060101c86165afa90811561085257869161169f575b50156102ed5784937ffd2eefe030edeab1f0352cd450d7c7e0ffb83cbf33faf97cf068d11974a5e1f160606040518486168152866020820152836040820152a180611684575b506006541691823b156104ab5761167392849283604051809681958294632770a7eb60e21b845260048401612757565b03925af1801561113c5761049b5750f35b611699908260065416848460035416916124fe565b38611643565b6116b7915060203d8111610326576103188183612471565b386115fd565b5034610216576116cc366123e9565b9060018060a01b039283855460101c169060405191632474521560e21b9182845260008051602061290a833981519152928360048601523360248601526020948581604481875afa908115610bb6578a916119f6575b50156102ed5787821693848a52600e865260408a20938988169485600052875260406000205461082357896005541692604051928c635b14f18360e01b948581528960048201528a816024818a5afa9182156119ea57916119cd575b506104c257604489926040519485938492835260048301523360248301525afa9081156119c2578b916119a5575b50156102ed57848a52600e865260408a2084600052865260406000205461082357859060246040518094819382528860048301525afa908115610b8e578991611988575b506104c257846117ff916127cc565b828852600a845261182c8161099360408b20546008885260408c20866000528852604060002054906124ac565b838952600a855260408920556008845260408820826000528452604060002055818752600183526040872054600c845260408820826000528452604060002055818752600d8352604087208160005283524260406000205581875260098352604087208160005283526118a4856040600020546124cf565b828852600984526040882082600052845260406000205581875260088352604087208160005283526118db856040600020546124cf565b908288526008845260408820906000528352604060002055808652600b82526119088460408820546124cf565b818752600b83526040872055600a82526119268460408820546124cf565b908652600a825260408620556002604086205491526040852054106119765783926006541691823b156104ab57611673928492836040518096819582946340c10f1960e01b845260048401612757565b604051632cd29bf960e21b8152600490fd5b61199f9150853d8711610326576103188183612471565b386117f0565b6119bc9150873d8911610326576103188183612471565b386117ac565b6040513d8d823e3d90fd5b6119e491508a3d8c11610326576103188183612471565b3861177e565b604051903d90823e3d90fd5b611a0d9150863d8811610326576103188183612471565b38611722565b503461021657604036600319011261021657611a2d6123a7565b8154604051632474521560e21b815260008051602061290a83398151915260048201523360248201526001600160a01b0392916020908290604490829060101c87165afa90811561032d578491611a98575b50156102ed571681526002602052602435604082205580f35b611ab0915060203d8111610326576103188183612471565b38611a7f565b503461021657806003193601126102165760206040517f39f61ca2a1a28fee144218173ec637b649a353e4026b2738c673800e5bf1437b8152f35b50346102165780600319360112610216576003546040516001600160a01b039091168152602090f35b503461021657604036600319011261021657611b346123a7565b6040611b3e6123bd565b9260018060a01b03809316815260076020522091166000526020526020604060002054604051908152f35b5034610216576020610a58611b7d366123e9565b9161281e565b503461021657602036600319011261021657611b9d6123a7565b8154604051632474521560e21b815260008051602061290a83398151915260048201523360248201526001600160a01b0392916020908290604490829060101c87165afa90811561032d578491611c09575b50156102ed571660018060a01b0319600f541617600f5580f35b611c21915060203d8111610326576103188183612471565b38611bef565b5034610216576020366003190112610216576020906040906001600160a01b03611c4f6123a7565b168152600a83522054604051908152f35b503461021657608036600319011261021657611c7a6123a7565b611c826123bd565b8254604051632474521560e21b815260008051602061290a8339815191526004820152336024820152919260448035936001600160a01b0393602093928491839190829060101c88165afa9081156104f1578791611df3575b50156102ed57821691828652600e825260408620918186169283600052815260406000205461082357602481836005541660405192838092635b14f18360e01b82528960048301525afa908115611de8578891611dcb575b506104c257611d468588973090876124fe565b8386526007815260408620836000528152611d66856040600020546124cf565b908487526007815260408720908460005252604060002055600f5416803b15611dc7578492836084926040519687958694633deffa8b60e21b865260048601526024850152604484015260643560648401525af1801561113c5761049b5750f35b8480fd5b611de29150823d8411610326576103188183612471565b38611d33565b6040513d8a823e3d90fd5b611e0a9150833d8511610326576103188183612471565b38611cdb565b503461021657604036600319011261021657611e2a6123a7565b6040611e346123bd565b9260018060a01b038093168152600e6020522091166000526020526020604060002054604051908152f35b5034610216578060031936011261021657602060405160008051602061290a8339815191528152f35b50346102165760a036600319011261021657611ea26123a7565b611eaa6123bd565b611eb26123d3565b6001600160a01b03919060643583811691908290036120df57608435938085168095036120df5786549360ff8560081c1615948580966120d2575b80156120bb575b1561205f5760ff19811660011789558561204e575b5087549560ff8760081c16611f1d81612889565b30158015612044575b61061f57611f3390612889565b62010000600160b01b03601089901b1662010000600160b01b0319881681178a556040516301ffc9a760e01b8152637965db0b60e01b600482015290986020908290602490829088165afa908115610bb6578a91612026575b5015612014578260018060a01b031994308660045416176004551684600354161760035583600554161760055516816006541617600655600f541617600f55611fd3578280f35b610100600160b01b031916178155604051600181527f7f26b83ff96e1f2b6a682f133852f6798a09c465da95921460cefb384740249890602090a138808280f35b6040516384d942fd60e01b8152600490fd5b61203e915060203d8111610326576103188183612471565b38611f8c565b5083851615611f26565b61ffff191661010117885538611f09565b60405162461bcd60e51b815260206004820152602e60248201527f496e697469616c697a61626c653a20636f6e747261637420697320616c72656160448201526d191e481a5b9a5d1a585b1a5e995960921b6064820152608490fd5b50303b158015611ef45750600160ff821614611ef4565b50600160ff821610611eed565b600080fd5b5034610216576040366003190112610216576120fe6123a7565b60406121086123bd565b9260018060a01b038093168152600c6020522091166000526020526020604060002054604051908152f35b50346102165760803660031901126102165761214d6123a7565b6121556123bd565b61215d6123d3565b8354604051632474521560e21b815260008051602061290a83398151915260048201523360248201526020936064359390926001600160a01b03929086908290604490829060101c87165afa908115611de85788916122d0575b50156102ed57816005541690604051635b14f18360e01b81528681602481878c16968760048301525afa908115610b8e5789916122b3575b506104c25781885260078652604088209083851691828a528752604089205486116104b057889686928489526007825260408920818a5282526122368460408b20546124ac565b91858a526007815260408a20918a525260408820558381166122a2575b505050600f541690813b1561113857836122849560405196879586948593636aed34f760e01b8552600485016124dc565b03925af1801561113c57612296575080f35b61229f90612448565b80f35b6122ab92612772565b388381612253565b6122ca9150873d8911610326576103188183612471565b386121ef565b6122e79150863d8811610326576103188183612471565b386121b7565b50346102165780600319360112610216575460405160109190911c6001600160a01b03168152602090f35b9050346111475760203660031901126111475760043563ffffffff60e01b81168091036123a35782546301ffc9a760e01b835260048301919091526020908290602490829060101c6001600160a01b03165afa90811561113c5760209291612386575b506040519015158152f35b61239d9150823d8111610326576103188183612471565b3861237b565b8280fd5b600435906001600160a01b03821682036120df57565b602435906001600160a01b03821682036120df57565b604435906001600160a01b03821682036120df57565b60609060031901126120df576001600160a01b039060043582811681036120df579160243590811681036120df579060443590565b60609060031901126120df576004356001600160a01b03811681036120df57906024359060443590565b6001600160401b03811161245b57604052565b634e487b7160e01b600052604160045260246000fd5b601f909101601f19168101906001600160401b0382119082101761245b57604052565b908160209103126120df575180151581036120df5790565b919082039182116124b957565b634e487b7160e01b600052601160045260246000fd5b919082018092116124b957565b6001600160a01b03918216815291166020820152604081019190915260600190565b9061253490612526612539956040519586936323b872dd60e01b6020860152602485016124dc565b03601f198101845283612471565b61253b565b565b604080516001600160401b0394936001600160a01b0390931692909182018581118382101761245b576040526020928383527f5361666545524332303a206c6f772d6c6576656c2063616c6c206661696c6564848401526000808386829551910182855af1903d15612676573d968711612662576125da949596604051906125cc88601f19601f8401160183612471565b81528093873d92013e612683565b80519082821592831561264a575b505050156125f35750565b6084906040519062461bcd60e51b82526004820152602a60248201527f5361666545524332303a204552433230206f7065726174696f6e20646964206e6044820152691bdd081cdd58d8d9595960b21b6064820152fd5b61265a9350820181019101612494565b3882816125e8565b634e487b7160e01b83526041600452602483fd5b91506125da939495506060915b919290156126e55750815115612697575090565b3b156126a05790565b60405162461bcd60e51b815260206004820152601d60248201527f416464726573733a2063616c6c20746f206e6f6e2d636f6e74726163740000006044820152606490fd5b8251909150156126f85750805190602001fd5b6040519062461bcd60e51b82528160208060048301528251908160248401526000935b82851061273e575050604492506000838284010152601f80199101168101030190fd5b848101820151868601604401529381019385935061271b565b6001600160a01b039091168152602081019190915260400190565b612534612539939261252660405194859263a9059cbb60e01b602085015260248401612757565b6001600160a01b039182168152918116602083015290911660408201526060810191909152608081019190915260a00190565b906128026128089260018060a01b038082166000526008602052604060002090841660005260205260406000205492839161281e565b906124cf565b90565b818102929181159184041417156124b957565b670de0b6b3a76400009261287f6301e133809361287960406128849560018060a01b0380911693600091858352600c60205283832091169081835260205282822054948252600d6020528282209082526020522054426124ac565b9261280b565b61280b565b040490565b1561289057565b60405162461bcd60e51b815260206004820152602b60248201527f496e697469616c697a61626c653a20636f6e7472616374206973206e6f74206960448201526a6e697469616c697a696e6760a81b6064820152608490fdfe3b5d4cc60d3ec3516ee8ae083bd60934f6eb2a6c54b1229985c41bfb092b2603e965846df3dd5b1dfa65f58e31477079e90140e0908b6dd31b5aead5a57cf365a264697066735822122063e6f74172f9d2eac46c1c7faa7fc00a82719241c3feb6d2be216b413e77a9a864736f6c63430008110033",
  "devdoc": {
    "kind": "dev",
    "methods": {
      "supportsInterface(bytes4)": {
        "details": "Returns true if this contract implements the interface defined by `interfaceId`. See the corresponding https://eips.ethereum.org/EIPS/eip-165#how-interfaces-are-identified[EIP section] to learn more about how these ids are created. This function call must use less than 30 000 gas."
      }
    },
    "version": 1
  },
  "userdoc": {
    "kind": "user",
    "methods": {},
    "version": 1
  },
  "storageLayout": {
    "storage": [
      {
        "astId": 461,
        "contract": "contracts/lending/SuVault.sol:SuVault",
        "label": "_initialized",
        "offset": 0,
        "slot": "0",
        "type": "t_uint8"
      },
      {
        "astId": 464,
        "contract": "contracts/lending/SuVault.sol:SuVault",
        "label": "_initializing",
        "offset": 1,
        "slot": "0",
        "type": "t_bool"
      },
      {
        "astId": 9094,
        "contract": "contracts/lending/SuVault.sol:SuVault",
        "label": "ACCESS_CONTROL_SINGLETON",
        "offset": 2,
        "slot": "0",
        "type": "t_contract(ISuAccessControl)16250"
      },
      {
        "astId": 19988,
        "contract": "contracts/lending/SuVault.sol:SuVault",
        "label": "protocolStabilityFeeE18",
        "offset": 0,
        "slot": "1",
        "type": "t_mapping(t_address,t_uint256)"
      },
      {
        "astId": 19992,
        "contract": "contracts/lending/SuVault.sol:SuVault",
        "label": "tokenDebtLimitE18",
        "offset": 0,
        "slot": "2",
        "type": "t_mapping(t_address,t_uint256)"
      },
      {
        "astId": 19994,
        "contract": "contracts/lending/SuVault.sol:SuVault",
        "label": "foundation",
        "offset": 0,
        "slot": "3",
        "type": "t_address"
      },
      {
        "astId": 19996,
        "contract": "contracts/lending/SuVault.sol:SuVault",
        "label": "vault",
        "offset": 0,
        "slot": "4",
        "type": "t_address"
      },
      {
        "astId": 9788,
        "contract": "contracts/lending/SuVault.sol:SuVault",
        "label": "suPausable",
        "offset": 0,
        "slot": "5",
        "type": "t_contract(ISuPausable)16841"
      },
      {
        "astId": 19140,
        "contract": "contracts/lending/SuVault.sol:SuVault",
        "label": "STABLE_PRO",
        "offset": 0,
        "slot": "6",
        "type": "t_contract(StablePro)8970"
      },
      {
        "astId": 19146,
        "contract": "contracts/lending/SuVault.sol:SuVault",
        "label": "collateralsEDecimal",
        "offset": 0,
        "slot": "7",
        "type": "t_mapping(t_address,t_mapping(t_address,t_uint256))"
      },
      {
        "astId": 19152,
        "contract": "contracts/lending/SuVault.sol:SuVault",
        "label": "debtWithFeesE18",
        "offset": 0,
        "slot": "8",
        "type": "t_mapping(t_address,t_mapping(t_address,t_uint256))"
      },
      {
        "astId": 19158,
        "contract": "contracts/lending/SuVault.sol:SuVault",
        "label": "debtsE18",
        "offset": 0,
        "slot": "9",
        "type": "t_mapping(t_address,t_mapping(t_address,t_uint256))"
      },
      {
        "astId": 19162,
        "contract": "contracts/lending/SuVault.sol:SuVault",
        "label": "tokenDebtsWithFeesE18",
        "offset": 0,
        "slot": "10",
        "type": "t_mapping(t_address,t_uint256)"
      },
      {
        "astId": 19166,
        "contract": "contracts/lending/SuVault.sol:SuVault",
        "label": "tokenDebtsE18",
        "offset": 0,
        "slot": "11",
        "type": "t_mapping(t_address,t_uint256)"
      },
      {
        "astId": 19172,
        "contract": "contracts/lending/SuVault.sol:SuVault",
        "label": "stabilityFeeE18",
        "offset": 0,
        "slot": "12",
        "type": "t_mapping(t_address,t_mapping(t_address,t_uint256))"
      },
      {
        "astId": 19178,
        "contract": "contracts/lending/SuVault.sol:SuVault",
        "label": "lastUpdate",
        "offset": 0,
        "slot": "13",
        "type": "t_mapping(t_address,t_mapping(t_address,t_uint256))"
      },
      {
        "astId": 19184,
        "contract": "contracts/lending/SuVault.sol:SuVault",
        "label": "liquidationBlock",
        "offset": 0,
        "slot": "14",
        "type": "t_mapping(t_address,t_mapping(t_address,t_uint256))"
      },
      {
        "astId": 19206,
        "contract": "contracts/lending/SuVault.sol:SuVault",
        "label": "rewardChef",
        "offset": 0,
        "slot": "15",
        "type": "t_contract(RewardChefV2)23775"
      }
    ],
    "types": {
      "t_address": {
        "encoding": "inplace",
        "label": "address",
        "numberOfBytes": "20"
      },
      "t_bool": {
        "encoding": "inplace",
        "label": "bool",
        "numberOfBytes": "1"
      },
      "t_contract(ISuAccessControl)16250": {
        "encoding": "inplace",
        "label": "contract ISuAccessControl",
        "numberOfBytes": "20"
      },
      "t_contract(ISuPausable)16841": {
        "encoding": "inplace",
        "label": "contract ISuPausable",
        "numberOfBytes": "20"
      },
      "t_contract(RewardChefV2)23775": {
        "encoding": "inplace",
        "label": "contract RewardChefV2",
        "numberOfBytes": "20"
      },
      "t_contract(StablePro)8970": {
        "encoding": "inplace",
        "label": "contract StablePro",
        "numberOfBytes": "20"
      },
      "t_mapping(t_address,t_mapping(t_address,t_uint256))": {
        "encoding": "mapping",
        "key": "t_address",
        "label": "mapping(address => mapping(address => uint256))",
        "numberOfBytes": "32",
        "value": "t_mapping(t_address,t_uint256)"
      },
      "t_mapping(t_address,t_uint256)": {
        "encoding": "mapping",
        "key": "t_address",
        "label": "mapping(address => uint256)",
        "numberOfBytes": "32",
        "value": "t_uint256"
      },
      "t_uint256": {
        "encoding": "inplace",
        "label": "uint256",
        "numberOfBytes": "32"
      },
      "t_uint8": {
        "encoding": "inplace",
        "label": "uint8",
        "numberOfBytes": "1"
      }
    }
  }
}