{
  "address": "0x0e825d77ED2Ac8D8d69Ef9648CEb9b90F31797b5",
  "abi": [
    {
      "inputs": [],
      "name": "AssetDebtLimit",
      "type": "error"
    },
    {
      "inputs": [],
      "name": "LiquidationIsTriggered",
      "type": "error"
    },
    {
      "inputs": [],
      "name": "Restricted",
      "type": "error"
    },
    {
      "inputs": [],
      "name": "UselessTransaction",
      "type": "error"
    },
    {
      "inputs": [],
      "name": "WithdrawExceeded",
      "type": "error"
    },
    {
      "inputs": [],
      "name": "WrongDebt",
      "type": "error"
    },
    {
      "inputs": [],
      "name": "WrongTotalDebt",
      "type": "error"
    },
    {
      "inputs": [],
      "name": "ZeroAddress",
      "type": "error"
    },
    {
      "anonymous": false,
      "inputs": [
        {
          "indexed": true,
          "internalType": "address",
          "name": "asset",
          "type": "address"
        },
        {
          "indexed": true,
          "internalType": "address",
          "name": "owner",
          "type": "address"
        }
      ],
      "name": "LiquidationTriggered",
      "type": "event"
    },
    {
      "anonymous": false,
      "inputs": [
        {
          "indexed": false,
          "internalType": "address",
          "name": "asset",
          "type": "address"
        },
        {
          "indexed": false,
          "internalType": "address",
          "name": "owner",
          "type": "address"
        },
        {
          "indexed": false,
          "internalType": "address",
          "name": "repayer",
          "type": "address"
        },
        {
          "indexed": false,
          "internalType": "uint256",
          "name": "assetAmountEDecimal",
          "type": "uint256"
        },
        {
          "indexed": false,
          "internalType": "uint256",
          "name": "repaymentE18",
          "type": "uint256"
        }
      ],
      "name": "PositionLiquidated",
      "type": "event"
    },
    {
      "anonymous": false,
      "inputs": [
        {
          "indexed": false,
          "internalType": "address",
          "name": "asset",
          "type": "address"
        },
        {
          "indexed": false,
          "internalType": "address",
          "name": "owner",
          "type": "address"
        },
        {
          "indexed": false,
          "internalType": "address",
          "name": "repayer",
          "type": "address"
        },
        {
          "indexed": false,
          "internalType": "uint256",
          "name": "assetAmountEDecimal",
          "type": "uint256"
        },
        {
          "indexed": false,
          "internalType": "uint256",
          "name": "repaymentE18",
          "type": "uint256"
        }
      ],
      "name": "PositionLiquidatedPartial",
      "type": "event"
    },
    {
      "anonymous": false,
      "inputs": [
        {
          "indexed": false,
          "internalType": "address",
          "name": "repayer",
          "type": "address"
        },
        {
          "indexed": false,
          "internalType": "uint256",
          "name": "repaymentE18",
          "type": "uint256"
        },
        {
          "indexed": false,
          "internalType": "uint256",
          "name": "excessAndFeeE18",
          "type": "uint256"
        }
      ],
      "name": "PositionRepaid",
      "type": "event"
    },
    {
      "inputs": [],
      "name": "ACCESS_CONTROL_SINGLETON",
      "outputs": [
        {
          "internalType": "contract ISuAccessControl",
          "name": "",
          "type": "address"
        }
      ],
      "stateMutability": "view",
      "type": "function"
    },
    {
      "inputs": [],
      "name": "LIQUIDATION_ACCESS_ROLE",
      "outputs": [
        {
          "internalType": "bytes32",
          "name": "",
          "type": "bytes32"
        }
      ],
      "stateMutability": "view",
      "type": "function"
    },
    {
      "inputs": [],
      "name": "MINTER_ROLE",
      "outputs": [
        {
          "internalType": "bytes32",
          "name": "",
          "type": "bytes32"
        }
      ],
      "stateMutability": "view",
      "type": "function"
    },
    {
      "inputs": [],
      "name": "STABLECOIN",
      "outputs": [
        {
          "internalType": "address",
          "name": "",
          "type": "address"
        }
      ],
      "stateMutability": "view",
      "type": "function"
    },
    {
      "inputs": [],
      "name": "VAULT_ACCESS_ROLE",
      "outputs": [
        {
          "internalType": "bytes32",
          "name": "",
          "type": "bytes32"
        }
      ],
      "stateMutability": "view",
      "type": "function"
    },
    {
      "inputs": [
        {
          "internalType": "address",
          "name": "asset",
          "type": "address"
        },
        {
          "internalType": "address",
          "name": "user",
          "type": "address"
        },
        {
          "internalType": "uint256",
          "name": "amountE18",
          "type": "uint256"
        }
      ],
      "name": "borrow",
      "outputs": [],
      "stateMutability": "nonpayable",
      "type": "function"
    },
    {
      "inputs": [
        {
          "internalType": "address",
          "name": "asset",
          "type": "address"
        },
        {
          "internalType": "address",
          "name": "user",
          "type": "address"
        },
        {
          "internalType": "uint256",
          "name": "amountE18",
          "type": "uint256"
        }
      ],
      "name": "calculateFeeE18",
      "outputs": [
        {
          "internalType": "uint256",
          "name": "",
          "type": "uint256"
        }
      ],
      "stateMutability": "view",
      "type": "function"
    },
    {
      "inputs": [
        {
          "internalType": "address",
          "name": "",
          "type": "address"
        },
        {
          "internalType": "address",
          "name": "",
          "type": "address"
        }
      ],
      "name": "collateralsEDecimal",
      "outputs": [
        {
          "internalType": "uint256",
          "name": "",
          "type": "uint256"
        }
      ],
      "stateMutability": "view",
      "type": "function"
    },
    {
      "inputs": [
        {
          "internalType": "address",
          "name": "",
          "type": "address"
        },
        {
          "internalType": "address",
          "name": "",
          "type": "address"
        }
      ],
      "name": "debtWithFeesE18",
      "outputs": [
        {
          "internalType": "uint256",
          "name": "",
          "type": "uint256"
        }
      ],
      "stateMutability": "view",
      "type": "function"
    },
    {
      "inputs": [
        {
          "internalType": "address",
          "name": "",
          "type": "address"
        },
        {
          "internalType": "address",
          "name": "",
          "type": "address"
        }
      ],
      "name": "debtsE18",
      "outputs": [
        {
          "internalType": "uint256",
          "name": "",
          "type": "uint256"
        }
      ],
      "stateMutability": "view",
      "type": "function"
    },
    {
      "inputs": [
        {
          "internalType": "address",
          "name": "asset",
          "type": "address"
        },
        {
          "internalType": "address",
          "name": "user",
          "type": "address"
        },
        {
          "internalType": "uint256",
          "name": "amountEDecimal",
          "type": "uint256"
        },
        {
          "internalType": "uint256",
          "name": "lockupPeriodSeconds",
          "type": "uint256"
        }
      ],
      "name": "deposit",
      "outputs": [],
      "stateMutability": "nonpayable",
      "type": "function"
    },
    {
      "inputs": [
        {
          "internalType": "address",
          "name": "asset",
          "type": "address"
        },
        {
          "internalType": "address",
          "name": "user",
          "type": "address"
        }
      ],
      "name": "destroy",
      "outputs": [],
      "stateMutability": "nonpayable",
      "type": "function"
    },
    {
      "inputs": [
        {
          "internalType": "address",
          "name": "asset",
          "type": "address"
        },
        {
          "internalType": "address",
          "name": "user",
          "type": "address"
        },
        {
          "internalType": "uint256",
          "name": "amountEDecimal",
          "type": "uint256"
        }
      ],
      "name": "emergencyWithdraw",
      "outputs": [],
      "stateMutability": "nonpayable",
      "type": "function"
    },
    {
      "inputs": [],
      "name": "foundation",
      "outputs": [
        {
          "internalType": "address",
          "name": "",
          "type": "address"
        }
      ],
      "stateMutability": "view",
      "type": "function"
    },
    {
      "inputs": [
        {
          "internalType": "address",
          "name": "asset",
          "type": "address"
        },
        {
          "internalType": "address",
          "name": "user",
          "type": "address"
        }
      ],
      "name": "getTotalDebtE18",
      "outputs": [
        {
          "internalType": "uint256",
          "name": "",
          "type": "uint256"
        }
      ],
      "stateMutability": "view",
      "type": "function"
    },
    {
      "inputs": [
        {
          "internalType": "address",
          "name": "_authControl",
          "type": "address"
        },
        {
          "internalType": "address",
          "name": "_stablecoin",
          "type": "address"
        },
        {
          "internalType": "address",
          "name": "_foundation",
          "type": "address"
        },
        {
          "internalType": "address",
          "name": "_rewardChef",
          "type": "address"
        }
      ],
      "name": "initialize",
      "outputs": [],
      "stateMutability": "nonpayable",
      "type": "function"
    },
    {
      "inputs": [
        {
          "internalType": "address",
          "name": "",
          "type": "address"
        },
        {
          "internalType": "address",
          "name": "",
          "type": "address"
        }
      ],
      "name": "lastUpdate",
      "outputs": [
        {
          "internalType": "uint256",
          "name": "",
          "type": "uint256"
        }
      ],
      "stateMutability": "view",
      "type": "function"
    },
    {
      "inputs": [
        {
          "internalType": "address",
          "name": "asset",
          "type": "address"
        },
        {
          "internalType": "address",
          "name": "user",
          "type": "address"
        },
        {
          "internalType": "address",
          "name": "recipient",
          "type": "address"
        },
        {
          "internalType": "uint256",
          "name": "assetAmountEDecimal",
          "type": "uint256"
        },
        {
          "internalType": "uint256",
          "name": "stablecoinAmountE18",
          "type": "uint256"
        }
      ],
      "name": "liquidate",
      "outputs": [],
      "stateMutability": "nonpayable",
      "type": "function"
    },
    {
      "inputs": [
        {
          "internalType": "address",
          "name": "",
          "type": "address"
        },
        {
          "internalType": "address",
          "name": "",
          "type": "address"
        }
      ],
      "name": "liquidationBlock",
      "outputs": [
        {
          "internalType": "uint256",
          "name": "",
          "type": "uint256"
        }
      ],
      "stateMutability": "view",
      "type": "function"
    },
    {
      "inputs": [
        {
          "internalType": "address",
          "name": "repayer",
          "type": "address"
        },
        {
          "internalType": "uint256",
          "name": "stablecoinsToRepaymentE18",
          "type": "uint256"
        },
        {
          "internalType": "uint256",
          "name": "stablecoinsToFoundationE18",
          "type": "uint256"
        }
      ],
      "name": "payFeeAndBurn",
      "outputs": [],
      "stateMutability": "nonpayable",
      "type": "function"
    },
    {
      "inputs": [
        {
          "internalType": "address",
          "name": "",
          "type": "address"
        }
      ],
      "name": "protocolStabilityFeeE18",
      "outputs": [
        {
          "internalType": "uint256",
          "name": "",
          "type": "uint256"
        }
      ],
      "stateMutability": "view",
      "type": "function"
    },
    {
      "inputs": [],
      "name": "rewardChef",
      "outputs": [
        {
          "internalType": "contract RewardChefV2",
          "name": "",
          "type": "address"
        }
      ],
      "stateMutability": "view",
      "type": "function"
    },
    {
      "inputs": [
        {
          "internalType": "address",
          "name": "asset",
          "type": "address"
        },
        {
          "internalType": "uint256",
          "name": "stabilityFeeValueE18",
          "type": "uint256"
        },
        {
          "internalType": "uint256",
          "name": "stablecoinLimitE18",
          "type": "uint256"
        }
      ],
      "name": "setCollateral",
      "outputs": [],
      "stateMutability": "nonpayable",
      "type": "function"
    },
    {
      "inputs": [
        {
          "internalType": "address",
          "name": "newFoundation",
          "type": "address"
        }
      ],
      "name": "setFoundation",
      "outputs": [],
      "stateMutability": "nonpayable",
      "type": "function"
    },
    {
      "inputs": [
        {
          "internalType": "address",
          "name": "_rewardChef",
          "type": "address"
        }
      ],
      "name": "setRewardChef",
      "outputs": [],
      "stateMutability": "nonpayable",
      "type": "function"
    },
    {
      "inputs": [
        {
          "internalType": "address",
          "name": "asset",
          "type": "address"
        },
        {
          "internalType": "uint256",
          "name": "newValue",
          "type": "uint256"
        }
      ],
      "name": "setStabilityFeeE18",
      "outputs": [],
      "stateMutability": "nonpayable",
      "type": "function"
    },
    {
      "inputs": [
        {
          "internalType": "address",
          "name": "asset",
          "type": "address"
        },
        {
          "internalType": "uint256",
          "name": "limit",
          "type": "uint256"
        }
      ],
      "name": "setTokenDebtLimitE18",
      "outputs": [],
      "stateMutability": "nonpayable",
      "type": "function"
    },
    {
      "inputs": [
        {
          "internalType": "address",
          "name": "",
          "type": "address"
        },
        {
          "internalType": "address",
          "name": "",
          "type": "address"
        }
      ],
      "name": "stabilityFeeE18",
      "outputs": [
        {
          "internalType": "uint256",
          "name": "",
          "type": "uint256"
        }
      ],
      "stateMutability": "view",
      "type": "function"
    },
    {
      "inputs": [
        {
          "internalType": "address",
          "name": "",
          "type": "address"
        }
      ],
      "name": "tokenDebtLimitE18",
      "outputs": [
        {
          "internalType": "uint256",
          "name": "",
          "type": "uint256"
        }
      ],
      "stateMutability": "view",
      "type": "function"
    },
    {
      "inputs": [
        {
          "internalType": "address",
          "name": "",
          "type": "address"
        }
      ],
      "name": "tokenDebtsE18",
      "outputs": [
        {
          "internalType": "uint256",
          "name": "",
          "type": "uint256"
        }
      ],
      "stateMutability": "view",
      "type": "function"
    },
    {
      "inputs": [
        {
          "internalType": "address",
          "name": "",
          "type": "address"
        }
      ],
      "name": "tokenDebtsWithFeesE18",
      "outputs": [
        {
          "internalType": "uint256",
          "name": "",
          "type": "uint256"
        }
      ],
      "stateMutability": "view",
      "type": "function"
    },
    {
      "inputs": [
        {
          "internalType": "address",
          "name": "asset",
          "type": "address"
        },
        {
          "internalType": "address",
          "name": "positionOwner",
          "type": "address"
        }
      ],
      "name": "triggerLiquidation",
      "outputs": [],
      "stateMutability": "nonpayable",
      "type": "function"
    },
    {
      "inputs": [
        {
          "internalType": "address",
          "name": "asset",
          "type": "address"
        },
        {
          "internalType": "address",
          "name": "user",
          "type": "address"
        }
      ],
      "name": "update",
      "outputs": [],
      "stateMutability": "nonpayable",
      "type": "function"
    },
    {
      "inputs": [],
      "name": "vault",
      "outputs": [
        {
          "internalType": "address",
          "name": "",
          "type": "address"
        }
      ],
      "stateMutability": "view",
      "type": "function"
    },
    {
      "inputs": [
        {
          "internalType": "address",
          "name": "asset",
          "type": "address"
        },
        {
          "internalType": "address",
          "name": "user",
          "type": "address"
        },
        {
          "internalType": "address",
          "name": "recipient",
          "type": "address"
        },
        {
          "internalType": "uint256",
          "name": "amountEDecimal",
          "type": "uint256"
        }
      ],
      "name": "withdraw",
      "outputs": [],
      "stateMutability": "nonpayable",
      "type": "function"
    },
    {
      "stateMutability": "payable",
      "type": "receive"
    }
  ],
  "numDeployments": 3,
  "solcInputHash": "4e95031df9956922a648acb4c06cfadc",
  "bytecode": "0x608060405234801561001057600080fd5b50612721806100206000396000f3fe6080604052600436106101985760003560e01c806303ee9f22146101bb5780630b620b81146101fe5780630fc9d6941461022057806314c376dc146102665780631ce4b4a71461028857806320e8c565146102c05780632754891e146102e05780632a43734e1461030d57806334c188b01461032d57806334e3b7791461034d57806341fbb05014610385578063477e9c6a146103a55780635224372c146103c5578063628a4683146103e557806362b40f9f146104055780636f70e66f1461042557806374befebc1461044557806388ad7a611461047257806393a39776146104aa578063965f5cfd146104ca5780639fea3e07146104f7578063a6ea8b8714610517578063c640752d14610537578063c9bc438414610557578063d4796d1214610577578063d539139314610597578063d5dc24ba146105cb578063d6ff0b3114610603578063db3543f514610630578063dc97e84e14610650578063e63ea40814610684578063ec69678a146106a4578063f084843d146106c4578063f8c8765e146106fc578063fbfa77cf1461071c57600080fd5b366101b65760405163ccc0891360e01b815260040160405180910390fd5b600080fd5b3480156101c757600080fd5b506000546101e1906201000090046001600160a01b031681565b6040516001600160a01b0390911681526020015b60405180910390f35b34801561020a57600080fd5b5061021e610219366004612257565b61073c565b005b34801561022c57600080fd5b5061025861023b3660046122a2565b600b60209081526000928352604080842090915290825290205481565b6040519081526020016101f5565b34801561027257600080fd5b506102586000805160206126cc83398151915281565b34801561029457600080fd5b506102586102a33660046122a2565b600d60209081526000928352604080842090915290825290205481565b3480156102cc57600080fd5b5061021e6102db3660046122d5565b6108fb565b3480156102ec57600080fd5b506102586102fb366004612317565b60096020526000908152604090205481565b34801561031957600080fd5b5061021e610328366004612317565b610ac1565b34801561033957600080fd5b50610258610348366004612332565b610b85565b34801561035957600080fd5b506102586103683660046122a2565b600660209081526000928352604080842090915290825290205481565b34801561039157600080fd5b506003546101e1906001600160a01b031681565b3480156103b157600080fd5b5061021e6103c036600461236e565b610c13565b3480156103d157600080fd5b5061021e6103e0366004612332565b610cc3565b3480156103f157600080fd5b5061021e610400366004612398565b610f54565b34801561041157600080fd5b5061021e6104203660046122a2565b6110ce565b34801561043157600080fd5b5061021e6104403660046123cb565b6111c7565b34801561045157600080fd5b50610258610460366004612317565b600a6020526000908152604090205481565b34801561047e57600080fd5b5061025861048d3660046122a2565b600c60209081526000928352604080842090915290825290205481565b3480156104b657600080fd5b506005546101e1906001600160a01b031681565b3480156104d657600080fd5b506102586104e5366004612317565b60016020526000908152604090205481565b34801561050357600080fd5b5061021e610512366004612398565b611379565b34801561052357600080fd5b506102586105323660046122a2565b611426565b34801561054357600080fd5b5061021e6105523660046122a2565b611471565b34801561056357600080fd5b50600e546101e1906001600160a01b031681565b34801561058357600080fd5b5061021e6105923660046122a2565b611620565b3480156105a357600080fd5b506102587f9f2df0fed2c77648de5860a4cc508cd0818c85b8b8a1ab4ceeef8d981c8956a681565b3480156105d757600080fd5b506102586105e63660046122a2565b600860209081526000928352604080842090915290825290205481565b34801561060f57600080fd5b5061025861061e366004612317565b60026020526000908152604090205481565b34801561063c57600080fd5b5061021e61064b366004612317565b611778565b34801561065c57600080fd5b506102587f9a9aef7c1247d5fc769b0185c052913e39673da29a880317dfd20ebf86f26a4981565b34801561069057600080fd5b5061021e61069f366004612332565b611855565b3480156106b057600080fd5b5061021e6106bf36600461236e565b611a09565b3480156106d057600080fd5b506102586106df3660046122a2565b600760209081526000928352604080842090915290825290205481565b34801561070857600080fd5b5061021e610717366004612420565b611ab9565b34801561072857600080fd5b506004546101e1906001600160a01b031681565b600054604051632474521560e21b8152620100009091046001600160a01b0316906391d1485490610781906000805160206126cc833981519152903390600401612474565b602060405180830381865afa15801561079e573d6000803e3d6000fd5b505050506040513d601f19601f820116820180604052508101906107c2919061248b565b6107e75760405162461bcd60e51b81526004016107de906124ad565b60405180910390fd5b6001600160a01b0380851660009081526006602090815260408083209387168352929052205481111561082d57604051633b6bb76f60e01b815260040160405180910390fd5b6001600160a01b0380851660009081526006602090815260408083209387168352929052205461085e908290612506565b6001600160a01b0380861660009081526006602090815260408083209388168352929052205561088f848383611bb4565b600e54604051636aed34f760e01b81526001600160a01b0390911690636aed34f7906108c390879087908690600401612519565b600060405180830381600087803b1580156108dd57600080fd5b505af11580156108f1573d6000803e3d6000fd5b5050505050505050565b600054604051632474521560e21b8152620100009091046001600160a01b0316906391d1485490610940906000805160206126cc833981519152903390600401612474565b602060405180830381865afa15801561095d573d6000803e3d6000fd5b505050506040513d601f19601f82011682018060405250810190610981919061248b565b61099d5760405162461bcd60e51b81526004016107de906124ad565b6001600160a01b038085166000908152600d602090815260408083209387168352929052205484908490156109e55760405163fa5af4cd60e01b815260040160405180910390fd5b6109f186863087611c0a565b6001600160a01b03808716600090815260066020908152604080832093891683529290522054610a2290859061253d565b6001600160a01b0387811660008181526006602090815260408083208b861680855292529182902094909455600e549051633deffa8b60e21b815260048101929092526024820193909352604481018790526064810186905291169063f7bfea2c90608401600060405180830381600087803b158015610aa157600080fd5b505af1158015610ab5573d6000803e3d6000fd5b50505050505050505050565b600054604051632474521560e21b8152620100009091046001600160a01b0316906391d1485490610b06906000805160206126cc833981519152903390600401612474565b602060405180830381865afa158015610b23573d6000803e3d6000fd5b505050506040513d601f19601f82011682018060405250810190610b47919061248b565b610b635760405162461bcd60e51b81526004016107de906124ad565b600e80546001600160a01b0319166001600160a01b0392909216919091179055565b6001600160a01b038084166000818152600b6020908152604080832094871680845294825280832054938352600c8252808320948352939052918220548290610bce9042612506565b9050670de0b6b3a76400006301e1338082610be98588612550565b610bf39190612550565b610bfd9190612567565b610c079190612567565b925050505b9392505050565b60008054604051632474521560e21b8152620100009091046001600160a01b0316916391d1485491610c4a91903390600401612474565b602060405180830381865afa158015610c67573d6000803e3d6000fd5b505050506040513d601f19601f82011682018060405250810190610c8b919061248b565b610ca75760405162461bcd60e51b81526004016107de90612589565b6001600160a01b03909116600090815260026020526040902055565b600054604051632474521560e21b8152620100009091046001600160a01b0316906391d1485490610d08906000805160206126cc833981519152903390600401612474565b602060405180830381865afa158015610d25573d6000803e3d6000fd5b505050506040513d601f19601f82011682018060405250810190610d49919061248b565b610d655760405162461bcd60e51b81526004016107de906124ad565b6001600160a01b038084166000908152600d60209081526040808320938616835292905220548390839015610dad5760405163fa5af4cd60e01b815260040160405180910390fd5b610db78585611471565b6001600160a01b03808616600090815260086020908152604080832093881683529290522054610de890849061253d565b6001600160a01b038087166000818152600860209081526040808320948a1680845294825280832095909555918152600782528381209281529190522054610e3190849061253d565b6001600160a01b038087166000818152600760209081526040808320948a16835293815283822094909455908152600a909252902054610e7290849061253d565b6001600160a01b0386166000908152600a6020908152604080832093909355600990522054610ea290849061253d565b6001600160a01b0386166000908152600960208181526040808420859055600282529092205491521015610ee957604051632cd29bf960e21b815260040160405180910390fd5b6005546040516340c10f1960e01b81526001600160a01b03909116906340c10f1990610f1b90879087906004016125c0565b600060405180830381600087803b158015610f3557600080fd5b505af1158015610f49573d6000803e3d6000fd5b505050505050505050565b600054604051632474521560e21b8152620100009091046001600160a01b0316906391d1485490610f99906000805160206126cc833981519152903390600401612474565b602060405180830381865afa158015610fb6573d6000803e3d6000fd5b505050506040513d601f19601f82011682018060405250810190610fda919061248b565b610ff65760405162461bcd60e51b81526004016107de906124ad565b604080516001600160a01b0385168152602081018490529081018290527ffd2eefe030edeab1f0352cd450d7c7e0ffb83cbf33faf97cf068d11974a5e1f19060600160405180910390a1801561106557600554600354611065916001600160a01b039081169186911684611c0a565b600554604051632770a7eb60e21b81526001600160a01b0390911690639dc29fac9061109790869086906004016125c0565b600060405180830381600087803b1580156110b157600080fd5b505af11580156110c5573d6000803e3d6000fd5b50505050505050565b600054604051632474521560e21b8152620100009091046001600160a01b0316906391d1485490611113906000805160206126cc833981519152903390600401612474565b602060405180830381865afa158015611130573d6000803e3d6000fd5b505050506040513d601f19601f82011682018060405250810190611154919061248b565b6111705760405162461bcd60e51b81526004016107de906124ad565b6001600160a01b039182166000818152600b6020908152604080832094909516808352938152848220829055828252600c81528482208483528152848220829055918152600d825283812092815291905290812055565b600054604051632474521560e21b8152620100009091046001600160a01b0316906391d148549061120c906000805160206126cc833981519152903390600401612474565b602060405180830381865afa158015611229573d6000803e3d6000fd5b505050506040513d601f19601f8201168201806040525081019061124d919061248b565b6112695760405162461bcd60e51b81526004016107de906124ad565b81158015611275575080155b156112935760405163fa95696160e01b815260040160405180910390fd5b80156112a4576112a4858583611c31565b81156112b6576112b68585858561073c565b6001600160a01b0380861660009081526007602090815260408083209388168352929052908120549003611332576112ee85856110ce565b7faaa3e6a935674cc172e60bf40d5e74691d4b2192405f3843f12ac33dacadb73d85858585856040516113259594939291906125d9565b60405180910390a1611372565b7f1aa32b453741aadaad9ed1a4be10676ce1cf45e4843cc4aa25e5fd969fc2514f85858585856040516113699594939291906125d9565b60405180910390a15b5050505050565b60008054604051632474521560e21b8152620100009091046001600160a01b0316916391d14854916113b091903390600401612474565b602060405180830381865afa1580156113cd573d6000803e3d6000fd5b505050506040513d601f19601f820116820180604052508101906113f1919061248b565b61140d5760405162461bcd60e51b81526004016107de90612589565b6114178383611a09565b6114218382610c13565b505050565b6001600160a01b0380831660009081526007602090815260408083209385168352929052908120548161145a858584610b85565b9050611466818361253d565b925050505b92915050565b600054604051632474521560e21b8152620100009091046001600160a01b0316906391d14854906114b6906000805160206126cc833981519152903390600401612474565b602060405180830381865afa1580156114d3573d6000803e3d6000fd5b505050506040513d601f19601f820116820180604052508101906114f7919061248b565b6115135760405162461bcd60e51b81526004016107de906124ad565b6001600160a01b038083166000908152600d6020908152604080832093851683529290522054829082901561155b5760405163fa5af4cd60e01b815260040160405180910390fd5b60006115678585611426565b6001600160a01b038087166000818152600760209081526040808320948a1683529381528382205492825260099052919091205491925082916115aa9190612506565b6115b4919061253d565b6001600160a01b039586166000818152600960209081526040808320949094556007815283822097909816808252968852828120939093558083526001875281832054600b88528284208785528852828420558252600c86528082209482529390945250509020429055565b600054604051632474521560e21b8152620100009091046001600160a01b0316906391d1485490611665906000805160206126cc833981519152903390600401612474565b602060405180830381865afa158015611682573d6000803e3d6000fd5b505050506040513d601f19601f820116820180604052508101906116a6919061248b565b6116c25760405162461bcd60e51b81526004016107de906124ad565b6001600160a01b038083166000908152600d6020908152604080832093851683529290522054829082901561170a5760405163fa5af4cd60e01b815260040160405180910390fd5b826001600160a01b0316846001600160a01b03167f5b79a897d30813a62a1f95ba180d3320d3701d96605708b81105e00719a069e460405160405180910390a350506001600160a01b039182166000908152600d602090815260408083209390941682529190915220439055565b60008054604051632474521560e21b8152620100009091046001600160a01b0316916391d14854916117af91903390600401612474565b602060405180830381865afa1580156117cc573d6000803e3d6000fd5b505050506040513d601f19601f820116820180604052508101906117f0919061248b565b61180c5760405162461bcd60e51b81526004016107de90612589565b6001600160a01b0381166118335760405163d92e233d60e01b815260040160405180910390fd5b600380546001600160a01b0319166001600160a01b0392909216919091179055565b600054604051632474521560e21b8152620100009091046001600160a01b0316906391d148549061189a906000805160206126cc833981519152903390600401612474565b602060405180830381865afa1580156118b7573d6000803e3d6000fd5b505050506040513d601f19601f820116820180604052508101906118db919061248b565b6118f75760405162461bcd60e51b81526004016107de906124ad565b6001600160a01b0380841660009081526006602090815260408083209386168352929052205481111561193d57604051633b6bb76f60e01b815260040160405180910390fd5b6001600160a01b0380841660009081526006602090815260408083209386168352929052205461196e908290612506565b6001600160a01b0380851660009081526006602090815260408083209387168352929052205561199f838383611bb4565b600e5460405163cf4f68d560e01b81526001600160a01b03858116600483015284811660248301529091169063cf4f68d590604401600060405180830381600087803b1580156119ee57600080fd5b505af19250505080156119ff575060015b1561142157505050565b60008054604051632474521560e21b8152620100009091046001600160a01b0316916391d1485491611a4091903390600401612474565b602060405180830381865afa158015611a5d573d6000803e3d6000fd5b505050506040513d601f19601f82011682018060405250810190611a81919061248b565b611a9d5760405162461bcd60e51b81526004016107de90612589565b6001600160a01b03909116600090815260016020526040902055565b600054610100900460ff16611ad45760005460ff1615611adc565b611adc611edf565b611b3f5760405162461bcd60e51b815260206004820152602e60248201527f496e697469616c697a61626c653a20636f6e747261637420697320616c72656160448201526d191e481a5b9a5d1a585b1a5e995960921b60648201526084016107de565b600054610100900460ff16158015611b61576000805461ffff19166101011790555b611b6c853085611ef0565b600580546001600160a01b038087166001600160a01b031992831617909255600e8054928516929091169190911790558015611372576000805461ff00191690555050505050565b6114218363a9059cbb60e01b8484604051602401611bd39291906125c0565b60408051601f198184030181529190526020810180516001600160e01b03166001600160e01b031990931692909217909152611f8a565b611c2b846323b872dd60e01b858585604051602401611bd393929190612519565b50505050565b600054604051632474521560e21b8152620100009091046001600160a01b0316906391d1485490611c76906000805160206126cc833981519152903390600401612474565b602060405180830381865afa158015611c93573d6000803e3d6000fd5b505050506040513d601f19601f82011682018060405250810190611cb7919061248b565b611cd35760405162461bcd60e51b81526004016107de906124ad565b6001600160a01b03808416600090815260076020908152604080832093861683529290522054811115611d19576040516371fa0fd760e01b815260040160405180910390fd5b6001600160a01b038316600090815260096020526040902054811115611d5257604051634bf0a71560e11b815260040160405180910390fd5b6001600160a01b0380841660009081526008602090815260408083209386168352929052908120548211611d87576000611db7565b6001600160a01b03808516600090815260086020908152604080832093871683529290522054611db79083612506565b6001600160a01b03808616600090815260076020908152604080832093881683529290522054909150611deb908390612506565b6001600160a01b038086166000818152600760209081526040808320948916808452948252808320959095559181526008825283812092815291905220548290611e3690839061253d565b611e409190612506565b6001600160a01b0380861660008181526008602090815260408083209489168352938152838220949094559081526009909252902054611e81908390612506565b6001600160a01b038516600090815260096020908152604080832093909355600a905220548290611eb390839061253d565b611ebd9190612506565b6001600160a01b039094166000908152600a6020526040902093909355505050565b6000611eea3061205c565b15905090565b600054610100900460ff16611f175760405162461bcd60e51b81526004016107de9061260d565b6001600160a01b0382161580611f3457506001600160a01b038116155b15611f525760405163d92e233d60e01b815260040160405180910390fd5b611f5b8361206b565b600480546001600160a01b039384166001600160a01b0319918216179091556003805492909316911617905550565b6000611fdf826040518060400160405280602081526020017f5361666545524332303a206c6f772d6c6576656c2063616c6c206661696c6564815250856001600160a01b03166120bc9092919063ffffffff16565b8051909150156114215780806020019051810190611ffd919061248b565b6114215760405162461bcd60e51b815260206004820152602a60248201527f5361666545524332303a204552433230206f7065726174696f6e20646964206e6044820152691bdd081cdd58d8d9595960b21b60648201526084016107de565b6001600160a01b03163b151590565b600054610100900460ff166120925760405162461bcd60e51b81526004016107de9061260d565b600080546001600160a01b03909216620100000262010000600160b01b0319909216919091179055565b60606120cb84846000856120d3565b949350505050565b6060824710156121345760405162461bcd60e51b815260206004820152602660248201527f416464726573733a20696e73756666696369656e742062616c616e636520666f6044820152651c8818d85b1b60d21b60648201526084016107de565b61213d8561205c565b6121895760405162461bcd60e51b815260206004820152601d60248201527f416464726573733a2063616c6c20746f206e6f6e2d636f6e747261637400000060448201526064016107de565b600080866001600160a01b031685876040516121a5919061267c565b60006040518083038185875af1925050503d80600081146121e2576040519150601f19603f3d011682016040523d82523d6000602084013e6121e7565b606091505b50915091506121f7828286612202565b979650505050505050565b60608315612211575081610c0c565b8251156122215782518084602001fd5b8160405162461bcd60e51b81526004016107de9190612698565b80356001600160a01b038116811461225257600080fd5b919050565b6000806000806080858703121561226d57600080fd5b6122768561223b565b93506122846020860161223b565b92506122926040860161223b565b9396929550929360600135925050565b600080604083850312156122b557600080fd5b6122be8361223b565b91506122cc6020840161223b565b90509250929050565b600080600080608085870312156122eb57600080fd5b6122f48561223b565b93506123026020860161223b565b93969395505050506040820135916060013590565b60006020828403121561232957600080fd5b610c0c8261223b565b60008060006060848603121561234757600080fd5b6123508461223b565b925061235e6020850161223b565b9150604084013590509250925092565b6000806040838503121561238157600080fd5b61238a8361223b565b946020939093013593505050565b6000806000606084860312156123ad57600080fd5b6123b68461223b565b95602085013595506040909401359392505050565b600080600080600060a086880312156123e357600080fd5b6123ec8661223b565b94506123fa6020870161223b565b93506124086040870161223b565b94979396509394606081013594506080013592915050565b6000806000806080858703121561243657600080fd5b61243f8561223b565b935061244d6020860161223b565b925061245b6040860161223b565b91506124696060860161223b565b905092959194509250565b9182526001600160a01b0316602082015260400190565b60006020828403121561249d57600080fd5b81518015158114610c0c57600080fd5b60208082526023908201527f5375417574683a206f6e6c795661756c7441636365737320415554485f46414960408201526213115160ea1b606082015260800190565b634e487b7160e01b600052601160045260246000fd5b8181038181111561146b5761146b6124f0565b6001600160a01b039384168152919092166020820152604081019190915260600190565b8082018082111561146b5761146b6124f0565b808202811582820484141761146b5761146b6124f0565b60008261258457634e487b7160e01b600052601260045260246000fd5b500490565b6020808252601d908201527f5375417574683a206f6e6c794f776e657220415554485f4641494c4544000000604082015260600190565b6001600160a01b03929092168252602082015260400190565b6001600160a01b03958616815293851660208501529190931660408301526060820192909252608081019190915260a00190565b6020808252602b908201527f496e697469616c697a61626c653a20636f6e7472616374206973206e6f74206960408201526a6e697469616c697a696e6760a81b606082015260800190565b60005b8381101561267357818101518382015260200161265b565b50506000910152565b6000825161268e818460208701612658565b9190910192915050565b60208152600082518060208401526126b7816040850160208701612658565b601f01601f1916919091016040019291505056fee965846df3dd5b1dfa65f58e31477079e90140e0908b6dd31b5aead5a57cf365a2646970667358221220496c1d1995774b51623e6e151d560f88d8cd983ab8a3fe0f16d4f6caa7571cb864736f6c63430008110033",
  "devdoc": {
    "kind": "dev",
    "methods": {},
    "version": 1
  },
  "userdoc": {
    "kind": "user",
    "methods": {},
    "version": 1
  },
  "storageLayout": {
    "storage": [
      {
        "astId": 408,
        "contract": "contracts/lending/SuVault.sol:SuVault",
        "label": "_initialized",
        "offset": 0,
        "slot": "0",
        "type": "t_bool"
      },
      {
        "astId": 411,
        "contract": "contracts/lending/SuVault.sol:SuVault",
        "label": "_initializing",
        "offset": 1,
        "slot": "0",
        "type": "t_bool"
      },
      {
        "astId": 2707,
        "contract": "contracts/lending/SuVault.sol:SuVault",
        "label": "ACCESS_CONTROL_SINGLETON",
        "offset": 2,
        "slot": "0",
        "type": "t_contract(ISuAccessControl)4153"
      },
      {
        "astId": 6833,
        "contract": "contracts/lending/SuVault.sol:SuVault",
        "label": "protocolStabilityFeeE18",
        "offset": 0,
        "slot": "1",
        "type": "t_mapping(t_address,t_uint256)"
      },
      {
        "astId": 6837,
        "contract": "contracts/lending/SuVault.sol:SuVault",
        "label": "tokenDebtLimitE18",
        "offset": 0,
        "slot": "2",
        "type": "t_mapping(t_address,t_uint256)"
      },
      {
        "astId": 6839,
        "contract": "contracts/lending/SuVault.sol:SuVault",
        "label": "foundation",
        "offset": 0,
        "slot": "3",
        "type": "t_address"
      },
      {
        "astId": 6841,
        "contract": "contracts/lending/SuVault.sol:SuVault",
        "label": "vault",
        "offset": 0,
        "slot": "4",
        "type": "t_address"
      },
      {
        "astId": 6021,
        "contract": "contracts/lending/SuVault.sol:SuVault",
        "label": "STABLECOIN",
        "offset": 0,
        "slot": "5",
        "type": "t_address"
      },
      {
        "astId": 6027,
        "contract": "contracts/lending/SuVault.sol:SuVault",
        "label": "collateralsEDecimal",
        "offset": 0,
        "slot": "6",
        "type": "t_mapping(t_address,t_mapping(t_address,t_uint256))"
      },
      {
        "astId": 6033,
        "contract": "contracts/lending/SuVault.sol:SuVault",
        "label": "debtWithFeesE18",
        "offset": 0,
        "slot": "7",
        "type": "t_mapping(t_address,t_mapping(t_address,t_uint256))"
      },
      {
        "astId": 6039,
        "contract": "contracts/lending/SuVault.sol:SuVault",
        "label": "debtsE18",
        "offset": 0,
        "slot": "8",
        "type": "t_mapping(t_address,t_mapping(t_address,t_uint256))"
      },
      {
        "astId": 6043,
        "contract": "contracts/lending/SuVault.sol:SuVault",
        "label": "tokenDebtsWithFeesE18",
        "offset": 0,
        "slot": "9",
        "type": "t_mapping(t_address,t_uint256)"
      },
      {
        "astId": 6047,
        "contract": "contracts/lending/SuVault.sol:SuVault",
        "label": "tokenDebtsE18",
        "offset": 0,
        "slot": "10",
        "type": "t_mapping(t_address,t_uint256)"
      },
      {
        "astId": 6053,
        "contract": "contracts/lending/SuVault.sol:SuVault",
        "label": "stabilityFeeE18",
        "offset": 0,
        "slot": "11",
        "type": "t_mapping(t_address,t_mapping(t_address,t_uint256))"
      },
      {
        "astId": 6059,
        "contract": "contracts/lending/SuVault.sol:SuVault",
        "label": "lastUpdate",
        "offset": 0,
        "slot": "12",
        "type": "t_mapping(t_address,t_mapping(t_address,t_uint256))"
      },
      {
        "astId": 6065,
        "contract": "contracts/lending/SuVault.sol:SuVault",
        "label": "liquidationBlock",
        "offset": 0,
        "slot": "13",
        "type": "t_mapping(t_address,t_mapping(t_address,t_uint256))"
      },
      {
        "astId": 6087,
        "contract": "contracts/lending/SuVault.sol:SuVault",
        "label": "rewardChef",
        "offset": 0,
        "slot": "14",
        "type": "t_contract(RewardChefV2)9175"
      }
    ],
    "types": {
      "t_address": {
        "encoding": "inplace",
        "label": "address",
        "numberOfBytes": "20"
      },
      "t_bool": {
        "encoding": "inplace",
        "label": "bool",
        "numberOfBytes": "1"
      },
      "t_contract(ISuAccessControl)4153": {
        "encoding": "inplace",
        "label": "contract ISuAccessControl",
        "numberOfBytes": "20"
      },
      "t_contract(RewardChefV2)9175": {
        "encoding": "inplace",
        "label": "contract RewardChefV2",
        "numberOfBytes": "20"
      },
      "t_mapping(t_address,t_mapping(t_address,t_uint256))": {
        "encoding": "mapping",
        "key": "t_address",
        "label": "mapping(address => mapping(address => uint256))",
        "numberOfBytes": "32",
        "value": "t_mapping(t_address,t_uint256)"
      },
      "t_mapping(t_address,t_uint256)": {
        "encoding": "mapping",
        "key": "t_address",
        "label": "mapping(address => uint256)",
        "numberOfBytes": "32",
        "value": "t_uint256"
      },
      "t_uint256": {
        "encoding": "inplace",
        "label": "uint256",
        "numberOfBytes": "32"
      }
    }
  }
}