{
  "address": "0x48756aF7CFdea8303efE73adcad300D77083433e",
  "abi": [
    {
      "inputs": [
        {
          "internalType": "address",
          "name": "staker",
          "type": "address"
        }
      ],
      "name": "StakerExist",
      "type": "error"
    },
    {
      "inputs": [
        {
          "internalType": "address",
          "name": "staker",
          "type": "address"
        }
      ],
      "name": "StakerNotExist",
      "type": "error"
    },
    {
      "anonymous": false,
      "inputs": [
        {
          "indexed": false,
          "internalType": "uint8",
          "name": "version",
          "type": "uint8"
        }
      ],
      "name": "Initialized",
      "type": "event"
    },
    {
      "inputs": [],
      "name": "ACCESS_CONTROL_SINGLETON",
      "outputs": [
        {
          "internalType": "contract ISuAccessControl",
          "name": "",
          "type": "address"
        }
      ],
      "stateMutability": "view",
      "type": "function"
    },
    {
      "inputs": [],
      "name": "LIQUIDATION_ACCESS_ROLE",
      "outputs": [
        {
          "internalType": "bytes32",
          "name": "",
          "type": "bytes32"
        }
      ],
      "stateMutability": "view",
      "type": "function"
    },
    {
      "inputs": [],
      "name": "MINTER_ROLE",
      "outputs": [
        {
          "internalType": "bytes32",
          "name": "",
          "type": "bytes32"
        }
      ],
      "stateMutability": "view",
      "type": "function"
    },
    {
      "inputs": [],
      "name": "VAULT_ACCESS_ROLE",
      "outputs": [
        {
          "internalType": "bytes32",
          "name": "",
          "type": "bytes32"
        }
      ],
      "stateMutability": "view",
      "type": "function"
    },
    {
      "inputs": [
        {
          "internalType": "address",
          "name": "staker",
          "type": "address"
        }
      ],
      "name": "addTopStaker",
      "outputs": [],
      "stateMutability": "nonpayable",
      "type": "function"
    },
    {
      "inputs": [],
      "name": "getTopStakersLength",
      "outputs": [
        {
          "internalType": "uint256",
          "name": "",
          "type": "uint256"
        }
      ],
      "stateMutability": "view",
      "type": "function"
    },
    {
      "inputs": [
        {
          "internalType": "address",
          "name": "_authControl",
          "type": "address"
        }
      ],
      "name": "initialize",
      "outputs": [],
      "stateMutability": "nonpayable",
      "type": "function"
    },
    {
      "inputs": [
        {
          "internalType": "address",
          "name": "staker",
          "type": "address"
        }
      ],
      "name": "isTopStaker",
      "outputs": [
        {
          "internalType": "bool",
          "name": "",
          "type": "bool"
        }
      ],
      "stateMutability": "view",
      "type": "function"
    },
    {
      "inputs": [
        {
          "internalType": "address",
          "name": "staker",
          "type": "address"
        }
      ],
      "name": "removeTopStaker",
      "outputs": [],
      "stateMutability": "nonpayable",
      "type": "function"
    }
  ],
  "numDeployments": 7,
  "solcInputHash": "be3efb63257dc7713cdb1d060fea14ce",
  "bytecode": "0x608060405234801561001057600080fd5b506107e4806100206000396000f3fe608060405234801561001057600080fd5b50600436106100835760003560e01c806303287e681461008857806303ee9f22146100b057806314c376dc146100d65780639e727dce1461010b578063c4d66de814610120578063c4e4a93b14610133578063d53913931461013b578063dc97e84e14610162578063e315f47b14610189575b600080fd5b61009b6100963660046106b4565b61019c565b60405190151581526020015b60405180910390f35b6000546100c9906201000090046001600160a01b031681565b6040516100a791906106dd565b6100fd7fe965846df3dd5b1dfa65f58e31477079e90140e0908b6dd31b5aead5a57cf36581565b6040519081526020016100a7565b61011e6101193660046106b4565b6101af565b005b61011e61012e3660046106b4565b610283565b6100fd6103a1565b6100fd7f9f2df0fed2c77648de5860a4cc508cd0818c85b8b8a1ab4ceeef8d981c8956a681565b6100fd7f9a9aef7c1247d5fc769b0185c052913e39673da29a880317dfd20ebf86f26a4981565b61011e6101973660046106b4565b6103b2565b60006101a960018361047a565b92915050565b60008054604051632474521560e21b8152620100009091046001600160a01b0316916391d14854916101e6919033906004016106f1565b602060405180830381865afa158015610203573d6000803e3d6000fd5b505050506040513d601f19601f820116820180604052508101906102279190610708565b61024c5760405162461bcd60e51b81526004016102439061072a565b60405180910390fd5b6102558161019c565b610274578060405163012076ad60e21b815260040161024391906106dd565b61027f600182610496565b5050565b600054610100900460ff16158080156102a35750600054600160ff909116105b806102bd5750303b1580156102bd575060005460ff166001145b6103205760405162461bcd60e51b815260206004820152602e60248201527f496e697469616c697a61626c653a20636f6e747261637420697320616c72656160448201526d191e481a5b9a5d1a585b1a5e995960921b6064820152608401610243565b6000805460ff191660011790558015610343576000805461ff0019166101001790555b61034c826104ab565b610357600133610540565b50801561027f576000805461ff0019169055604051600181527f7f26b83ff96e1f2b6a682f133852f6798a09c465da95921460cefb38474024989060200160405180910390a15050565b60006103ad6001610555565b905090565b60008054604051632474521560e21b8152620100009091046001600160a01b0316916391d14854916103e9919033906004016106f1565b602060405180830381865afa158015610406573d6000803e3d6000fd5b505050506040513d601f19601f8201168201806040525081019061042a9190610708565b6104465760405162461bcd60e51b81526004016102439061072a565b61044f8161019c565b1561046f578060405163e9cfb3f360e01b815260040161024391906106dd565b61027f600182610540565b600061048f836001600160a01b03841661055f565b9392505050565b600061048f836001600160a01b038416610577565b600054610100900460ff166105165760405162461bcd60e51b815260206004820152602b60248201527f496e697469616c697a61626c653a20636f6e7472616374206973206e6f74206960448201526a6e697469616c697a696e6760a81b6064820152608401610243565b600080546001600160a01b03909216620100000262010000600160b01b0319909216919091179055565b600061048f836001600160a01b03841661066a565b60006101a9825490565b60009081526001919091016020526040902054151590565b6000818152600183016020526040812054801561066057600061059b600183610761565b85549091506000906105af90600190610761565b90508181146106145760008660000182815481106105cf576105cf610782565b90600052602060002001549050808760000184815481106105f2576105f2610782565b6000918252602080832090910192909255918252600188019052604090208390555b855486908061062557610625610798565b6001900381819060005260206000200160009055905585600101600086815260200190815260200160002060009055600193505050506101a9565b60009150506101a9565b6000610676838361055f565b6106ac575081546001818101845560008481526020808220909301849055845484825282860190935260409020919091556101a9565b5060006101a9565b6000602082840312156106c657600080fd5b81356001600160a01b038116811461048f57600080fd5b6001600160a01b0391909116815260200190565b9182526001600160a01b0316602082015260400190565b60006020828403121561071a57600080fd5b8151801515811461048f57600080fd5b6020808252601d908201527f5375417574683a206f6e6c794f776e657220415554485f4641494c4544000000604082015260600190565b818103818111156101a957634e487b7160e01b600052601160045260246000fd5b634e487b7160e01b600052603260045260246000fd5b634e487b7160e01b600052603160045260246000fdfea2646970667358221220966563b8b464ba5db433d8cccb820b3c2ab530ff371f376a4705d70f5b2c7cb964736f6c63430008110033",
  "devdoc": {
    "kind": "dev",
    "methods": {},
    "version": 1
  },
  "userdoc": {
    "kind": "user",
    "methods": {},
    "version": 1
  },
  "storageLayout": {
    "storage": [
      {
        "astId": 461,
        "contract": "contracts/liquidator/v2/contracts/TopStakers.sol:TopStakers",
        "label": "_initialized",
        "offset": 0,
        "slot": "0",
        "type": "t_uint8"
      },
      {
        "astId": 464,
        "contract": "contracts/liquidator/v2/contracts/TopStakers.sol:TopStakers",
        "label": "_initializing",
        "offset": 1,
        "slot": "0",
        "type": "t_bool"
      },
      {
        "astId": 6897,
        "contract": "contracts/liquidator/v2/contracts/TopStakers.sol:TopStakers",
        "label": "ACCESS_CONTROL_SINGLETON",
        "offset": 2,
        "slot": "0",
        "type": "t_contract(ISuAccessControl)10043"
      },
      {
        "astId": 15915,
        "contract": "contracts/liquidator/v2/contracts/TopStakers.sol:TopStakers",
        "label": "topStakers",
        "offset": 0,
        "slot": "1",
        "type": "t_struct(AddressSet)4405_storage"
      }
    ],
    "types": {
      "t_array(t_bytes32)dyn_storage": {
        "base": "t_bytes32",
        "encoding": "dynamic_array",
        "label": "bytes32[]",
        "numberOfBytes": "32"
      },
      "t_bool": {
        "encoding": "inplace",
        "label": "bool",
        "numberOfBytes": "1"
      },
      "t_bytes32": {
        "encoding": "inplace",
        "label": "bytes32",
        "numberOfBytes": "32"
      },
      "t_contract(ISuAccessControl)10043": {
        "encoding": "inplace",
        "label": "contract ISuAccessControl",
        "numberOfBytes": "20"
      },
      "t_mapping(t_bytes32,t_uint256)": {
        "encoding": "mapping",
        "key": "t_bytes32",
        "label": "mapping(bytes32 => uint256)",
        "numberOfBytes": "32",
        "value": "t_uint256"
      },
      "t_struct(AddressSet)4405_storage": {
        "encoding": "inplace",
        "label": "struct EnumerableSetUpgradeable.AddressSet",
        "members": [
          {
            "astId": 4404,
            "contract": "contracts/liquidator/v2/contracts/TopStakers.sol:TopStakers",
            "label": "_inner",
            "offset": 0,
            "slot": "0",
            "type": "t_struct(Set)4090_storage"
          }
        ],
        "numberOfBytes": "64"
      },
      "t_struct(Set)4090_storage": {
        "encoding": "inplace",
        "label": "struct EnumerableSetUpgradeable.Set",
        "members": [
          {
            "astId": 4085,
            "contract": "contracts/liquidator/v2/contracts/TopStakers.sol:TopStakers",
            "label": "_values",
            "offset": 0,
            "slot": "0",
            "type": "t_array(t_bytes32)dyn_storage"
          },
          {
            "astId": 4089,
            "contract": "contracts/liquidator/v2/contracts/TopStakers.sol:TopStakers",
            "label": "_indexes",
            "offset": 0,
            "slot": "1",
            "type": "t_mapping(t_bytes32,t_uint256)"
          }
        ],
        "numberOfBytes": "64"
      },
      "t_uint256": {
        "encoding": "inplace",
        "label": "uint256",
        "numberOfBytes": "32"
      },
      "t_uint8": {
        "encoding": "inplace",
        "label": "uint8",
        "numberOfBytes": "1"
      }
    }
  }
}