{
  "_format": "hh-sol-artifact-1",
  "contractName": "RewardChefV2",
  "sourceName": "contracts/reward/RewardChefV2.sol",
  "abi": [
    {
      "inputs": [
        {
          "internalType": "address",
          "name": "_authControl",
          "type": "address"
        },
        {
          "internalType": "contract IERC20",
          "name": "_rewardToken",
          "type": "address"
        }
      ],
      "stateMutability": "nonpayable",
      "type": "constructor"
    },
    {
      "anonymous": false,
      "inputs": [
        {
          "indexed": true,
          "internalType": "address",
          "name": "user",
          "type": "address"
        },
        {
          "indexed": true,
          "internalType": "address",
          "name": "asset",
          "type": "address"
        },
        {
          "indexed": false,
          "internalType": "uint256",
          "name": "amount",
          "type": "uint256"
        }
      ],
      "name": "Harvest",
      "type": "event"
    },
    {
      "anonymous": false,
      "inputs": [
        {
          "indexed": true,
          "internalType": "address",
          "name": "asset",
          "type": "address"
        },
        {
          "indexed": false,
          "internalType": "uint256",
          "name": "allocPoint",
          "type": "uint256"
        }
      ],
      "name": "LogPoolAddition",
      "type": "event"
    },
    {
      "anonymous": false,
      "inputs": [
        {
          "indexed": true,
          "internalType": "address",
          "name": "asset",
          "type": "address"
        },
        {
          "indexed": false,
          "internalType": "uint256",
          "name": "allocPoint",
          "type": "uint256"
        }
      ],
      "name": "LogSetPool",
      "type": "event"
    },
    {
      "anonymous": false,
      "inputs": [
        {
          "indexed": true,
          "internalType": "address",
          "name": "asset",
          "type": "address"
        },
        {
          "indexed": false,
          "internalType": "uint64",
          "name": "lastRewardBlock",
          "type": "uint64"
        },
        {
          "indexed": false,
          "internalType": "uint256",
          "name": "lpSupply",
          "type": "uint256"
        },
        {
          "indexed": false,
          "internalType": "uint256",
          "name": "accSushiPerShare",
          "type": "uint256"
        }
      ],
      "name": "LogUpdatePool",
      "type": "event"
    },
    {
      "anonymous": false,
      "inputs": [
        {
          "indexed": true,
          "internalType": "address",
          "name": "user",
          "type": "address"
        },
        {
          "indexed": true,
          "internalType": "address",
          "name": "asset",
          "type": "address"
        },
        {
          "indexed": false,
          "internalType": "uint256",
          "name": "amount",
          "type": "uint256"
        },
        {
          "indexed": true,
          "internalType": "address",
          "name": "to",
          "type": "address"
        }
      ],
      "name": "ResetAmount",
      "type": "event"
    },
    {
      "anonymous": false,
      "inputs": [
        {
          "indexed": true,
          "internalType": "address",
          "name": "user",
          "type": "address"
        },
        {
          "indexed": true,
          "internalType": "address",
          "name": "asset",
          "type": "address"
        },
        {
          "indexed": false,
          "internalType": "uint256",
          "name": "amount",
          "type": "uint256"
        }
      ],
      "name": "VirtualDeposit",
      "type": "event"
    },
    {
      "anonymous": false,
      "inputs": [
        {
          "indexed": true,
          "internalType": "address",
          "name": "user",
          "type": "address"
        },
        {
          "indexed": true,
          "internalType": "address",
          "name": "asset",
          "type": "address"
        },
        {
          "indexed": false,
          "internalType": "uint256",
          "name": "amount",
          "type": "uint256"
        }
      ],
      "name": "VirtualWithdraw",
      "type": "event"
    },
    {
      "inputs": [],
      "name": "ACCESS_CONTROL_SINGLETON",
      "outputs": [
        {
          "internalType": "contract ISuAccessControl",
          "name": "",
          "type": "address"
        }
      ],
      "stateMutability": "view",
      "type": "function"
    },
    {
      "inputs": [],
      "name": "LIQUIDATION_ACCESS_ROLE",
      "outputs": [
        {
          "internalType": "bytes32",
          "name": "",
          "type": "bytes32"
        }
      ],
      "stateMutability": "view",
      "type": "function"
    },
    {
      "inputs": [],
      "name": "MINTER_ROLE",
      "outputs": [
        {
          "internalType": "bytes32",
          "name": "",
          "type": "bytes32"
        }
      ],
      "stateMutability": "view",
      "type": "function"
    },
    {
      "inputs": [],
      "name": "REWARD_TOKEN",
      "outputs": [
        {
          "internalType": "contract IERC20",
          "name": "",
          "type": "address"
        }
      ],
      "stateMutability": "view",
      "type": "function"
    },
    {
      "inputs": [],
      "name": "VAULT_ACCESS_ROLE",
      "outputs": [
        {
          "internalType": "bytes32",
          "name": "",
          "type": "bytes32"
        }
      ],
      "stateMutability": "view",
      "type": "function"
    },
    {
      "inputs": [
        {
          "internalType": "uint256",
          "name": "allocPoint",
          "type": "uint256"
        },
        {
          "internalType": "address",
          "name": "_asset",
          "type": "address"
        }
      ],
      "name": "add",
      "outputs": [],
      "stateMutability": "nonpayable",
      "type": "function"
    },
    {
      "inputs": [
        {
          "internalType": "address",
          "name": "asset",
          "type": "address"
        },
        {
          "internalType": "address",
          "name": "to",
          "type": "address"
        },
        {
          "internalType": "uint256",
          "name": "amountEDecimal",
          "type": "uint256"
        }
      ],
      "name": "decreaseAmount",
      "outputs": [],
      "stateMutability": "nonpayable",
      "type": "function"
    },
    {
      "inputs": [
        {
          "internalType": "address",
          "name": "asset",
          "type": "address"
        },
        {
          "internalType": "address",
          "name": "to",
          "type": "address"
        }
      ],
      "name": "harvest",
      "outputs": [],
      "stateMutability": "nonpayable",
      "type": "function"
    },
    {
      "inputs": [
        {
          "internalType": "address",
          "name": "asset",
          "type": "address"
        },
        {
          "internalType": "address",
          "name": "to",
          "type": "address"
        },
        {
          "internalType": "uint256",
          "name": "amountEDecimal",
          "type": "uint256"
        }
      ],
      "name": "increaseAmount",
      "outputs": [],
      "stateMutability": "nonpayable",
      "type": "function"
    },
    {
      "inputs": [
        {
          "internalType": "address",
          "name": "_asset",
          "type": "address"
        },
        {
          "internalType": "address",
          "name": "_user",
          "type": "address"
        }
      ],
      "name": "pendingSushi",
      "outputs": [
        {
          "internalType": "uint256",
          "name": "pending",
          "type": "uint256"
        }
      ],
      "stateMutability": "view",
      "type": "function"
    },
    {
      "inputs": [
        {
          "internalType": "address",
          "name": "",
          "type": "address"
        }
      ],
      "name": "poolInfo",
      "outputs": [
        {
          "internalType": "uint128",
          "name": "accSushiPerShare",
          "type": "uint128"
        },
        {
          "internalType": "uint64",
          "name": "lastRewardBlock",
          "type": "uint64"
        },
        {
          "internalType": "uint64",
          "name": "allocPoint",
          "type": "uint64"
        },
        {
          "internalType": "uint256",
          "name": "lpSupply",
          "type": "uint256"
        }
      ],
      "stateMutability": "view",
      "type": "function"
    },
    {
      "inputs": [
        {
          "internalType": "uint256",
          "name": "amount",
          "type": "uint256"
        },
        {
          "internalType": "uint64",
          "name": "endBlock",
          "type": "uint64"
        }
      ],
      "name": "refillReward",
      "outputs": [],
      "stateMutability": "nonpayable",
      "type": "function"
    },
    {
      "inputs": [
        {
          "internalType": "address",
          "name": "asset",
          "type": "address"
        },
        {
          "internalType": "address",
          "name": "to",
          "type": "address"
        }
      ],
      "name": "resetAmount",
      "outputs": [],
      "stateMutability": "nonpayable",
      "type": "function"
    },
    {
      "inputs": [],
      "name": "rewardEndBlock",
      "outputs": [
        {
          "internalType": "uint256",
          "name": "",
          "type": "uint256"
        }
      ],
      "stateMutability": "view",
      "type": "function"
    },
    {
      "inputs": [],
      "name": "rewardPerBlock",
      "outputs": [
        {
          "internalType": "uint256",
          "name": "",
          "type": "uint256"
        }
      ],
      "stateMutability": "view",
      "type": "function"
    },
    {
      "inputs": [
        {
          "internalType": "uint256",
          "name": "startBlock",
          "type": "uint256"
        },
        {
          "internalType": "uint256",
          "name": "endBlock",
          "type": "uint256"
        }
      ],
      "name": "rewardsBetweenBlocks",
      "outputs": [
        {
          "internalType": "uint256",
          "name": "",
          "type": "uint256"
        }
      ],
      "stateMutability": "view",
      "type": "function"
    },
    {
      "inputs": [
        {
          "internalType": "address",
          "name": "_asset",
          "type": "address"
        },
        {
          "internalType": "uint256",
          "name": "_allocPoint",
          "type": "uint256"
        }
      ],
      "name": "set",
      "outputs": [],
      "stateMutability": "nonpayable",
      "type": "function"
    },
    {
      "inputs": [],
      "name": "totalAllocPoint",
      "outputs": [
        {
          "internalType": "uint256",
          "name": "",
          "type": "uint256"
        }
      ],
      "stateMutability": "view",
      "type": "function"
    },
    {
      "inputs": [],
      "name": "updateAllPools",
      "outputs": [],
      "stateMutability": "nonpayable",
      "type": "function"
    },
    {
      "inputs": [
        {
          "internalType": "address",
          "name": "asset",
          "type": "address"
        }
      ],
      "name": "updatePool",
      "outputs": [
        {
          "components": [
            {
              "internalType": "uint128",
              "name": "accSushiPerShare",
              "type": "uint128"
            },
            {
              "internalType": "uint64",
              "name": "lastRewardBlock",
              "type": "uint64"
            },
            {
              "internalType": "uint64",
              "name": "allocPoint",
              "type": "uint64"
            },
            {
              "internalType": "uint256",
              "name": "lpSupply",
              "type": "uint256"
            }
          ],
          "internalType": "struct RewardChefV2.PoolInfo",
          "name": "pool",
          "type": "tuple"
        }
      ],
      "stateMutability": "nonpayable",
      "type": "function"
    },
    {
      "inputs": [
        {
          "internalType": "address",
          "name": "",
          "type": "address"
        },
        {
          "internalType": "address",
          "name": "",
          "type": "address"
        }
      ],
      "name": "userInfo",
      "outputs": [
        {
          "internalType": "uint256",
          "name": "amount",
          "type": "uint256"
        },
        {
          "internalType": "int256",
          "name": "rewardDebt",
          "type": "int256"
        }
      ],
      "stateMutability": "view",
      "type": "function"
    }
  ],
  "bytecode": "0x60c06040523480156200001157600080fd5b50604051620020d9380380620020d9833981016040819052620000349162000053565b6001600160601b0319606092831b8116608052911b1660a052620000aa565b6000806040838503121562000066578182fd5b8251620000738162000091565b6020840151909250620000868162000091565b809150509250929050565b6001600160a01b0381168114620000a757600080fd5b50565b60805160601c60a05160601c611fd2620001076000396000818161034101528181610b220152611142015260008181610181015281816105ea0152818161086501528181610bad01528181610fe001526111fd0152611fd26000f3fe608060405234801561001057600080fd5b50600436106101775760003560e01c80637b46c54f116100d85780639a7b5f111161008c578063d539139311610066578063d539139314610405578063dc97e84e1461042c578063eeba3c3f1461045357600080fd5b80639a7b5f1114610363578063b9ec7d74146103ea578063cf4f68d5146103f257600080fd5b80638ae39cac116100bd5780638ae39cac146103205780638e39520c1461032957806399248ea71461033c57600080fd5b80637b46c54f146102af57806387ee8c4c1461030d57600080fd5b80632b8bbbe81161012f578063604ef2e511610114578063604ef2e51461028057806366cc1857146102895780636aed34f71461029c57600080fd5b80632b8bbbe8146102585780633825d8281461026d57600080fd5b806314c376dc1161016057806314c376dc1461020757806317caf6f11461023c5780631d40e4391461024557600080fd5b806303ee9f221461017c5780630f208beb146101c0575b600080fd5b6101a37f000000000000000000000000000000000000000000000000000000000000000081565b6040516001600160a01b0390911681526020015b60405180910390f35b6101f26101ce366004611ca5565b60036020908152600092835260408084209091529082529020805460019091015482565b604080519283526020830191909152016101b7565b61022e7fe965846df3dd5b1dfa65f58e31477079e90140e0908b6dd31b5aead5a57cf36581565b6040519081526020016101b7565b61022e60045481565b61022e610253366004611ca5565b610466565b61026b610266366004611d5b565b6105ce565b005b61026b61027b366004611d12565b610849565b61022e60065481565b61026b610297366004611ca5565b610a9a565b61026b6102aa366004611cd7565b610b91565b6102c26102bd366004611c8b565b610dbc565b6040805182516001600160801b0316815260208084015167ffffffffffffffff90811691830191909152838301511691810191909152606091820151918101919091526080016101b7565b61026b61031b366004611d9e565b610fc4565b61022e60055481565b61026b610337366004611cd7565b6111e1565b6101a37f000000000000000000000000000000000000000000000000000000000000000081565b6103b2610371366004611c8b565b600060208190529081526040902080546001909101546001600160801b0382169167ffffffffffffffff600160801b8204811692600160c01b909204169084565b604080516001600160801b0395909516855267ffffffffffffffff9384166020860152919092169083015260608201526080016101b7565b61026b611401565b61026b610400366004611ca5565b611463565b61022e7f9f2df0fed2c77648de5860a4cc508cd0818c85b8b8a1ab4ceeef8d981c8956a681565b61022e7f9a9aef7c1247d5fc769b0185c052913e39673da29a880317dfd20ebf86f26a4981565b61022e610461366004611d7d565b6114db565b6001600160a01b03808316600081815260208181526040808320815160808101835281546001600160801b03808216835267ffffffffffffffff600160801b83048116848801908152600160c01b9093048116848701526001909401546060840181905288885260038752858820998b168852988652938620825197875294869052519496909593949390921692164311801561050257508015155b801561050f575060045415155b1561058457600061052e856020015167ffffffffffffffff16436114db565b90506000600454866040015167ffffffffffffffff168361054f9190611eca565b6105599190611eaa565b90508261056b64e8d4a5100083611eca565b6105759190611eaa565b61057f9085611e92565b935050505b6105c383600101546105b464e8d4a510008587600001546105a59190611eca565b6105af9190611eaa565b61152d565b6105be9190611ee9565b6115b0565b979650505050505050565b604051632474521560e21b8152600060048201523360248201527f00000000000000000000000000000000000000000000000000000000000000006001600160a01b0316906391d148549060440160206040518083038186803b15801561063457600080fd5b505afa158015610648573d6000803e3d6000fd5b505050506040513d601f19601f8201168201806040525081019061066c9190611d3b565b6106bd5760405162461bcd60e51b815260206004820152601d60248201527f5375417574683a206f6e6c794f776e657220415554485f4641494c454400000060448201526064015b60405180910390fd5b6001600160a01b038116600090815260208190526040902054600160801b900467ffffffffffffffff16156107345760405162461bcd60e51b815260206004820152601260248201527f506f6f6c20616c7265616479206578697374000000000000000000000000000060448201526064016106b4565b6004544390610744908490611e92565b600455610752600183611602565b50604051806080016040528060006001600160801b031681526020016107778361161e565b67ffffffffffffffff16815260200161078f8561161e565b67ffffffffffffffff9081168252600060209283018190526001600160a01b0386168082528184526040918290208551815487870151888601518716600160c01b026001600160c01b0391909716600160801b026001600160c01b03199092166001600160801b03909316929092171716939093178355606090940151600190920191909155518581527f595f39ef10c3b539b41f83620205bd2e76334edf0cfda5ed207f10616e867dad910160405180910390a2505050565b604051632474521560e21b8152600060048201523360248201527f00000000000000000000000000000000000000000000000000000000000000006001600160a01b0316906391d148549060440160206040518083038186803b1580156108af57600080fd5b505afa1580156108c3573d6000803e3d6000fd5b505050506040513d601f19601f820116820180604052508101906108e79190611d3b565b6109335760405162461bcd60e51b815260206004820152601d60248201527f5375417574683a206f6e6c794f776e657220415554485f4641494c454400000060448201526064016106b4565b6001600160a01b038216600090815260208190526040902054600160801b900467ffffffffffffffff166109a95760405162461bcd60e51b815260206004820152601260248201527f506f6f6c20646f65736e2774206578697374000000000000000000000000000060448201526064016106b4565b6109b282610dbc565b506001600160a01b03821660009081526020819052604090205460045482916109ed91600160c01b90910467ffffffffffffffff1690611f28565b6109f79190611e92565b600455610a038161161e565b6001600160a01b0383166000908152602081905260409020805467ffffffffffffffff92909216600160c01b026001600160c01b0390921691909117905580610a5357610a5160018361169e565b505b816001600160a01b03167f57096e403eca2ab85e7ad27527b2efe1598aaf6760715227633947f3652a0f6b82604051610a8e91815260200190565b60405180910390a25050565b6000610aa583610dbc565b6001600160a01b03841660009081526003602090815260408083203384529091528120825181549394509092610aef9164e8d4a51000916105a5916001600160801b031690611eca565b90506000610b068360010154836105be9190611ee9565b6001840183905590508015610b4957610b496001600160a01b037f00000000000000000000000000000000000000000000000000000000000000001686836116b3565b6040518181526001600160a01b0387169033907fa0306f61d3fafe13787b78e276cb6b644382854a66cb46daae14227d3ec267979060200160405180910390a3505050505050565b604051632474521560e21b8152600060048201523360248201527f00000000000000000000000000000000000000000000000000000000000000006001600160a01b0316906391d148549060440160206040518083038186803b158015610bf757600080fd5b505afa158015610c0b573d6000803e3d6000fd5b505050506040513d601f19601f82011682018060405250810190610c2f9190611d3b565b610c7b5760405162461bcd60e51b815260206004820152601d60248201527f5375417574683a206f6e6c794f776e657220415554485f4641494c454400000060448201526064016106b4565b6000610c8684610dbc565b6001600160a01b038086166000908152600360209081526040808320938816835292905220815191925090610ccf9064e8d4a51000906105a5906001600160801b031686611eca565b8160010154610cde9190611ee9565b60018201558054610cf0908490611f28565b81556060820151610d02908490611f28565b606083019081526001600160a01b038681166000818152602081815260409182902087518154838a0151858b01516001600160801b039093166001600160c01b031990921691909117600160801b67ffffffffffffffff92831602176001600160c01b0316600160c01b91909216021781559451600190950194909455518681529092918716917f5c89d0cd1567084571f8083b115429597fe4af296968d67b6b7ebc9d12777e8791015b60405180910390a35050505050565b604080516080810182526000808252602082018190529181018290526060810191909152506001600160a01b03811660009081526020818152604091829020825160808101845281546001600160801b038116825267ffffffffffffffff600160801b82048116948301859052600160c01b9091041693810193909352600101546060830152431115610fbf5760608101518015801590610e6b57506000826040015167ffffffffffffffff16115b15610ef3576000610e8a836020015167ffffffffffffffff16436114db565b90506000600454846040015167ffffffffffffffff1683610eab9190611eca565b610eb59190611eaa565b9050610ed983610eca64e8d4a5100084611eca565b610ed49190611eaa565b61175c565b8451610ee59190611e67565b6001600160801b0316845250505b610efc4361161e565b67ffffffffffffffff90811660208481019182526001600160a01b0386166000818152808352604090819020875181549551838a01518816600160c01b026001600160c01b0391909816600160801b81026001600160c01b03199098166001600160801b03909316928317979097171696909617815560608089015160019092019190915581519485529284018690528301939093527f46cf4926e42ba22492fd67b3ea0fba545c48ca18651eb6cd271e653d3308c567910160405180910390a2505b919050565b604051632474521560e21b8152600060048201523360248201527f00000000000000000000000000000000000000000000000000000000000000006001600160a01b0316906391d148549060440160206040518083038186803b15801561102a57600080fd5b505afa15801561103e573d6000803e3d6000fd5b505050506040513d601f19601f820116820180604052508101906110629190611d3b565b6110ae5760405162461bcd60e51b815260206004820152601d60248201527f5375417574683a206f6e6c794f776e657220415554485f4641494c454400000060448201526064016106b4565b438167ffffffffffffffff161161112d5760405162461bcd60e51b815260206004820152602d60248201527f456e64426c6f636b2073686f756c642062652067726561746572207468616e2060448201527f63757272656e7420626c6f636b0000000000000000000000000000000000000060648201526084016106b4565b611135611401565b61116a6001600160a01b037f0000000000000000000000000000000000000000000000000000000000000000163330856117db565b600654600090156111a5576006544310156111a1574360065461118d9190611f28565b60055461119a9190611eca565b90506111a5565b5060005b6111b94367ffffffffffffffff8416611f28565b6111c38483611e92565b6111cd9190611eaa565b6005555067ffffffffffffffff1660065550565b604051632474521560e21b8152600060048201523360248201527f00000000000000000000000000000000000000000000000000000000000000006001600160a01b0316906391d148549060440160206040518083038186803b15801561124757600080fd5b505afa15801561125b573d6000803e3d6000fd5b505050506040513d601f19601f8201168201806040525081019061127f9190611d3b565b6112cb5760405162461bcd60e51b815260206004820152601d60248201527f5375417574683a206f6e6c794f776e657220415554485f4641494c454400000060448201526064016106b4565b60006112d684610dbc565b6001600160a01b03808616600090815260036020908152604080832093881683529290522080549192509061130c908490611e92565b8155815161132e9064e8d4a51000906105a5906001600160801b031686611eca565b816001015461133d9190611e28565b60018201556060820151611352908490611e92565b606083019081526001600160a01b038681166000818152602081815260409182902087518154838a0151858b01516001600160801b039093166001600160c01b031990921691909117600160801b67ffffffffffffffff92831602176001600160c01b0316600160c01b91909216021781559451600190950194909455518681529092918716917fbe0e56c891bb7033dc9f0c815fb5e1fd09ee48ffbc1c32b504a52911a54246709101610dad565b600061140d6001611832565b805190915060005b8181101561145e5761144d83828151811061144057634e487b7160e01b600052603260045260246000fd5b6020026020010151610dbc565b5061145781611f6b565b9050611415565b505050565b61146c82610dbc565b506001600160a01b0382811660008181526003602090815260408083203380855290835292819020805491519182529486169392917f86f87eb4cd7a1da0639b774e09f1a832ebba3367c7d07682d3a8429749ce13ca910160405180910390a460008082556001909101555050565b600082600654116114ee57506000611527565b600654821015611516576005546115058484611f28565b61150f9190611eca565b9050611527565b600554836006546115059190611f28565b92915050565b60006001600160ff1b038211156115ac5760405162461bcd60e51b815260206004820152602860248201527f53616665436173743a2076616c756520646f65736e27742066697420696e206160448201527f6e20696e7432353600000000000000000000000000000000000000000000000060648201526084016106b4565b5090565b6000808212156115ac5760405162461bcd60e51b815260206004820181905260248201527f53616665436173743a2076616c7565206d75737420626520706f73697469766560448201526064016106b4565b6000611617836001600160a01b03841661183f565b9392505050565b600067ffffffffffffffff8211156115ac5760405162461bcd60e51b815260206004820152602660248201527f53616665436173743a2076616c756520646f65736e27742066697420696e203660448201527f342062697473000000000000000000000000000000000000000000000000000060648201526084016106b4565b6000611617836001600160a01b03841661188e565b6040516001600160a01b03831660248201526044810182905261145e9084907fa9059cbb00000000000000000000000000000000000000000000000000000000906064015b60408051601f198184030181529190526020810180517bffffffffffffffffffffffffffffffffffffffffffffffffffffffff167fffffffff00000000000000000000000000000000000000000000000000000000909316929092179091526119ab565b60006001600160801b038211156115ac5760405162461bcd60e51b815260206004820152602760248201527f53616665436173743a2076616c756520646f65736e27742066697420696e203160448201527f323820626974730000000000000000000000000000000000000000000000000060648201526084016106b4565b6040516001600160a01b038085166024830152831660448201526064810182905261182c9085907f23b872dd00000000000000000000000000000000000000000000000000000000906084016116f8565b50505050565b6060600061161783611a90565b600081815260018301602052604081205461188657508154600181810184556000848152602080822090930184905584548482528286019093526040902091909155611527565b506000611527565b600081815260018301602052604081205480156119a15760006118b2600183611f28565b85549091506000906118c690600190611f28565b90508181146119475760008660000182815481106118f457634e487b7160e01b600052603260045260246000fd5b906000526020600020015490508087600001848154811061192557634e487b7160e01b600052603260045260246000fd5b6000918252602080832090910192909255918252600188019052604090208390555b855486908061196657634e487b7160e01b600052603160045260246000fd5b600190038181906000526020600020016000905590558560010160008681526020019081526020016000206000905560019350505050611527565b6000915050611527565b6000611a00826040518060400160405280602081526020017f5361666545524332303a206c6f772d6c6576656c2063616c6c206661696c6564815250856001600160a01b0316611aec9092919063ffffffff16565b80519091501561145e5780806020019051810190611a1e9190611d3b565b61145e5760405162461bcd60e51b815260206004820152602a60248201527f5361666545524332303a204552433230206f7065726174696f6e20646964206e60448201527f6f7420737563636565640000000000000000000000000000000000000000000060648201526084016106b4565b606081600001805480602002602001604051908101604052809291908181526020018280548015611ae057602002820191906000526020600020905b815481526020019060010190808311611acc575b50505050509050919050565b6060611afb8484600085611b03565b949350505050565b606082471015611b7b5760405162461bcd60e51b815260206004820152602660248201527f416464726573733a20696e73756666696369656e742062616c616e636520666f60448201527f722063616c6c000000000000000000000000000000000000000000000000000060648201526084016106b4565b6001600160a01b0385163b611bd25760405162461bcd60e51b815260206004820152601d60248201527f416464726573733a2063616c6c20746f206e6f6e2d636f6e747261637400000060448201526064016106b4565b600080866001600160a01b03168587604051611bee9190611dd9565b60006040518083038185875af1925050503d8060008114611c2b576040519150601f19603f3d011682016040523d82523d6000602084013e611c30565b606091505b50915091506105c382828660608315611c4a575081611617565b825115611c5a5782518084602001fd5b8160405162461bcd60e51b81526004016106b49190611df5565b80356001600160a01b0381168114610fbf57600080fd5b600060208284031215611c9c578081fd5b61161782611c74565b60008060408385031215611cb7578081fd5b611cc083611c74565b9150611cce60208401611c74565b90509250929050565b600080600060608486031215611ceb578081fd5b611cf484611c74565b9250611d0260208501611c74565b9150604084013590509250925092565b60008060408385031215611d24578182fd5b611d2d83611c74565b946020939093013593505050565b600060208284031215611d4c578081fd5b81518015158114611617578182fd5b60008060408385031215611d6d578182fd5b82359150611cce60208401611c74565b60008060408385031215611d8f578182fd5b50508035926020909101359150565b60008060408385031215611db0578182fd5b82359150602083013567ffffffffffffffff81168114611dce578182fd5b809150509250929050565b60008251611deb818460208701611f3f565b9190910192915050565b6020815260008251806020840152611e14816040850160208701611f3f565b601f01601f19169190910160400192915050565b6000808212826001600160ff1b0303841381151615611e4957611e49611f86565b82600160ff1b038412811615611e6157611e61611f86565b50500190565b60006001600160801b03808316818516808303821115611e8957611e89611f86565b01949350505050565b60008219821115611ea557611ea5611f86565b500190565b600082611ec557634e487b7160e01b81526012600452602481fd5b500490565b6000816000190483118215151615611ee457611ee4611f86565b500290565b600080831283600160ff1b01831281151615611f0757611f07611f86565b836001600160ff1b03018313811615611f2257611f22611f86565b50500390565b600082821015611f3a57611f3a611f86565b500390565b60005b83811015611f5a578181015183820152602001611f42565b8381111561182c5750506000910152565b6000600019821415611f7f57611f7f611f86565b5060010190565b634e487b7160e01b600052601160045260246000fdfea264697066735822122067b7924b888f961296067c4a6df81b3a8681f994270e4dea25785a6330d2ef1964736f6c63430008040033",
  "linkReferences": {},
  "deployedLinkReferences": {}
}