{
  "_format": "hh-sol-artifact-1",
  "contractName": "MockGainErc20v1",
  "sourceName": "contracts/mocks/MockGainErc20v1.sol",
  "abi": [
    {
      "inputs": [
        {
          "internalType": "string",
          "name": "name",
          "type": "string"
        },
        {
          "internalType": "string",
          "name": "symbol",
          "type": "string"
        },
        {
          "internalType": "address",
          "name": "initialAccount",
          "type": "address"
        },
        {
          "internalType": "uint256",
          "name": "initialBalance",
          "type": "uint256"
        }
      ],
      "stateMutability": "payable",
      "type": "constructor"
    },
    {
      "anonymous": false,
      "inputs": [
        {
          "indexed": true,
          "internalType": "address",
          "name": "owner",
          "type": "address"
        },
        {
          "indexed": true,
          "internalType": "address",
          "name": "spender",
          "type": "address"
        },
        {
          "indexed": false,
          "internalType": "uint256",
          "name": "value",
          "type": "uint256"
        }
      ],
      "name": "Approval",
      "type": "event"
    },
    {
      "anonymous": false,
      "inputs": [
        {
          "indexed": false,
          "internalType": "uint256",
          "name": "amount",
          "type": "uint256"
        },
        {
          "indexed": false,
          "internalType": "uint256",
          "name": "newMultiplicator1e18",
          "type": "uint256"
        }
      ],
      "name": "Distributed",
      "type": "event"
    },
    {
      "anonymous": false,
      "inputs": [
        {
          "indexed": true,
          "internalType": "address",
          "name": "from",
          "type": "address"
        },
        {
          "indexed": true,
          "internalType": "address",
          "name": "to",
          "type": "address"
        },
        {
          "indexed": false,
          "internalType": "uint256",
          "name": "value",
          "type": "uint256"
        }
      ],
      "name": "Transfer",
      "type": "event"
    },
    {
      "inputs": [],
      "name": "_multiplicator1e18",
      "outputs": [
        {
          "internalType": "uint256",
          "name": "",
          "type": "uint256"
        }
      ],
      "stateMutability": "view",
      "type": "function"
    },
    {
      "inputs": [
        {
          "internalType": "address",
          "name": "owner",
          "type": "address"
        },
        {
          "internalType": "address",
          "name": "spender",
          "type": "address"
        }
      ],
      "name": "allowance",
      "outputs": [
        {
          "internalType": "uint256",
          "name": "",
          "type": "uint256"
        }
      ],
      "stateMutability": "view",
      "type": "function"
    },
    {
      "inputs": [
        {
          "internalType": "address",
          "name": "spender",
          "type": "address"
        },
        {
          "internalType": "uint256",
          "name": "amount",
          "type": "uint256"
        }
      ],
      "name": "approve",
      "outputs": [
        {
          "internalType": "bool",
          "name": "",
          "type": "bool"
        }
      ],
      "stateMutability": "nonpayable",
      "type": "function"
    },
    {
      "inputs": [
        {
          "internalType": "address",
          "name": "owner",
          "type": "address"
        },
        {
          "internalType": "address",
          "name": "spender",
          "type": "address"
        },
        {
          "internalType": "uint256",
          "name": "value",
          "type": "uint256"
        }
      ],
      "name": "approveInternal",
      "outputs": [],
      "stateMutability": "nonpayable",
      "type": "function"
    },
    {
      "inputs": [
        {
          "internalType": "address",
          "name": "account",
          "type": "address"
        }
      ],
      "name": "balanceOf",
      "outputs": [
        {
          "internalType": "uint256",
          "name": "",
          "type": "uint256"
        }
      ],
      "stateMutability": "view",
      "type": "function"
    },
    {
      "inputs": [
        {
          "internalType": "address",
          "name": "account",
          "type": "address"
        },
        {
          "internalType": "uint256",
          "name": "amount",
          "type": "uint256"
        }
      ],
      "name": "burn",
      "outputs": [],
      "stateMutability": "nonpayable",
      "type": "function"
    },
    {
      "inputs": [],
      "name": "decimals",
      "outputs": [
        {
          "internalType": "uint8",
          "name": "",
          "type": "uint8"
        }
      ],
      "stateMutability": "view",
      "type": "function"
    },
    {
      "inputs": [
        {
          "internalType": "address",
          "name": "spender",
          "type": "address"
        },
        {
          "internalType": "uint256",
          "name": "subtractedValue",
          "type": "uint256"
        }
      ],
      "name": "decreaseAllowance",
      "outputs": [
        {
          "internalType": "bool",
          "name": "",
          "type": "bool"
        }
      ],
      "stateMutability": "nonpayable",
      "type": "function"
    },
    {
      "inputs": [
        {
          "internalType": "uint256",
          "name": "amount",
          "type": "uint256"
        }
      ],
      "name": "distribute",
      "outputs": [],
      "stateMutability": "nonpayable",
      "type": "function"
    },
    {
      "inputs": [
        {
          "internalType": "address",
          "name": "spender",
          "type": "address"
        },
        {
          "internalType": "uint256",
          "name": "addedValue",
          "type": "uint256"
        }
      ],
      "name": "increaseAllowance",
      "outputs": [
        {
          "internalType": "bool",
          "name": "",
          "type": "bool"
        }
      ],
      "stateMutability": "nonpayable",
      "type": "function"
    },
    {
      "inputs": [
        {
          "internalType": "address",
          "name": "account",
          "type": "address"
        },
        {
          "internalType": "uint256",
          "name": "amount",
          "type": "uint256"
        }
      ],
      "name": "mint",
      "outputs": [],
      "stateMutability": "nonpayable",
      "type": "function"
    },
    {
      "inputs": [],
      "name": "name",
      "outputs": [
        {
          "internalType": "string",
          "name": "",
          "type": "string"
        }
      ],
      "stateMutability": "view",
      "type": "function"
    },
    {
      "inputs": [],
      "name": "symbol",
      "outputs": [
        {
          "internalType": "string",
          "name": "",
          "type": "string"
        }
      ],
      "stateMutability": "view",
      "type": "function"
    },
    {
      "inputs": [],
      "name": "totalSupply",
      "outputs": [
        {
          "internalType": "uint256",
          "name": "",
          "type": "uint256"
        }
      ],
      "stateMutability": "view",
      "type": "function"
    },
    {
      "inputs": [
        {
          "internalType": "address",
          "name": "recipient",
          "type": "address"
        },
        {
          "internalType": "uint256",
          "name": "amount",
          "type": "uint256"
        }
      ],
      "name": "transfer",
      "outputs": [
        {
          "internalType": "bool",
          "name": "",
          "type": "bool"
        }
      ],
      "stateMutability": "nonpayable",
      "type": "function"
    },
    {
      "inputs": [
        {
          "internalType": "address",
          "name": "sender",
          "type": "address"
        },
        {
          "internalType": "address",
          "name": "recipient",
          "type": "address"
        },
        {
          "internalType": "uint256",
          "name": "amount",
          "type": "uint256"
        }
      ],
      "name": "transferFrom",
      "outputs": [
        {
          "internalType": "bool",
          "name": "",
          "type": "bool"
        }
      ],
      "stateMutability": "nonpayable",
      "type": "function"
    },
    {
      "inputs": [
        {
          "internalType": "address",
          "name": "from",
          "type": "address"
        },
        {
          "internalType": "address",
          "name": "to",
          "type": "address"
        },
        {
          "internalType": "uint256",
          "name": "value",
          "type": "uint256"
        }
      ],
      "name": "transferInternal",
      "outputs": [],
      "stateMutability": "nonpayable",
      "type": "function"
    }
  ],
  "bytecode": "0x608060405260405162001505380380620015058339810160408190526200002691620002de565b8351849084906200003f90600490602085019062000185565b5080516200005590600590602084019062000185565b5050670de0b6b3a7640000600155506200007082826200007a565b5050505062000434565b6001600160a01b038216620000d55760405162461bcd60e51b815260206004820152601f60248201527f45524332303a206d696e7420746f20746865207a65726f206164647265737300604482015260640160405180910390fd5b8060036000828254620000e991906200036d565b90915550506001546200010582670de0b6b3a7640000620003a9565b62000111919062000388565b6001600160a01b038316600090815260208190526040812080549091906200013b9084906200036d565b90915550506040518181526001600160a01b038316906000907fddf252ad1be2c89b69c2b068fc378daa952ba7f163c4a11628f55a4df523b3ef9060200160405180910390a35050565b8280546200019390620003cb565b90600052602060002090601f016020900481019282620001b7576000855562000202565b82601f10620001d257805160ff191683800117855562000202565b8280016001018555821562000202579182015b8281111562000202578251825591602001919060010190620001e5565b506200021092915062000214565b5090565b5b8082111562000210576000815560010162000215565b600082601f8301126200023c578081fd5b81516001600160401b03808211156200025957620002596200041e565b604051601f8301601f19908116603f011681019082821181831017156200028457620002846200041e565b81604052838152602092508683858801011115620002a0578485fd5b8491505b83821015620002c35785820183015181830184015290820190620002a4565b83821115620002d457848385830101525b9695505050505050565b60008060008060808587031215620002f4578384fd5b84516001600160401b03808211156200030b578586fd5b62000319888389016200022b565b955060208701519150808211156200032f578485fd5b506200033e878288016200022b565b604087015190945090506001600160a01b03811681146200035d578283fd5b6060959095015193969295505050565b6000821982111562000383576200038362000408565b500190565b600082620003a457634e487b7160e01b81526012600452602481fd5b500490565b6000816000190483118215151615620003c657620003c662000408565b500290565b600181811c90821680620003e057607f821691505b602082108114156200040257634e487b7160e01b600052602260045260246000fd5b50919050565b634e487b7160e01b600052601160045260246000fd5b634e487b7160e01b600052604160045260246000fd5b6110c180620004446000396000f3fe608060405234801561001057600080fd5b506004361061011b5760003560e01c806356189cb4116100b25780639dc29fac11610081578063a9059cbb11610066578063a9059cbb14610237578063bd6fc7181461024a578063dd62ed3e1461025357600080fd5b80639dc29fac14610211578063a457c2d71461022457600080fd5b806356189cb4146101d057806370a08231146101e357806391c05b0b146101f657806395d89b411461020957600080fd5b806323b872dd116100ee57806323b872dd14610188578063313ce5671461019b57806339509351146101aa57806340c10f19146101bd57600080fd5b806306fdde0314610120578063095ea7b31461013e57806318160ddd14610161578063222f5be014610173575b600080fd5b61012861028c565b6040516101359190610f79565b60405180910390f35b61015161014c366004610f18565b61031e565b6040519015158152602001610135565b6003545b604051908152602001610135565b610186610181366004610edd565b610334565b005b610151610196366004610edd565b610344565b60405160128152602001610135565b6101516101b8366004610f18565b610368565b6101866101cb366004610f18565b6103a4565b6101866101de366004610edd565b6103b2565b6101656101f1366004610e8a565b6103bd565b610186610204366004610f61565b6103ff565b610128610585565b61018661021f366004610f18565b610594565b610151610232366004610f18565b61059e565b610151610245366004610f18565b610656565b61016560015481565b610165610261366004610eab565b6001600160a01b03918216600090815260026020908152604080832093909416825291909152205490565b60606004805461029b9061103a565b80601f01602080910402602001604051908101604052809291908181526020018280546102c79061103a565b80156103145780601f106102e957610100808354040283529160200191610314565b820191906000526020600020905b8154815290600101906020018083116102f757829003601f168201915b5050505050905090565b600061032b338484610663565b50600192915050565b61033f8383836107bb565b505050565b600033610352858285610b0c565b61035d8585856107bb565b506001949350505050565b3360008181526002602090815260408083206001600160a01b0387168452909152812054909161032b91859061039f908690610fcc565b610663565b6103ae8282610b9e565b5050565b61033f838383610663565b6001546001600160a01b0382166000908152602081905260408120549091670de0b6b3a7640000916103ef9190611004565b6103f99190610fe4565b92915050565b306323b872dd336040517fffffffff0000000000000000000000000000000000000000000000000000000060e084901b1681526001600160a01b03909116600482015230602482015260448101849052606401602060405180830381600087803b15801561046c57600080fd5b505af1158015610480573d6000803e3d6000fd5b505050506040513d601f19601f820116820180604052508101906104a49190610f41565b50600154306000908152602081905260408120549091670de0b6b3a7640000916104ce9190611004565b6104d89190610fe4565b6001549091506104e88383611023565b6104fa90670de0b6b3a7640000611004565b6105049190610fe4565b30600090815260208190526040812091909155600354610525908490611023565b6003546001546105359190611004565b61053f9190610fe4565b600181905560408051858152602081018390529192507f97791d3ac1343e05805a2f905fa80b249c2ca58cf9fef455d4fa7ec13ce58321910160405180910390a1505050565b60606005805461029b9061103a565b6103ae8282610c9c565b3360009081526002602090815260408083206001600160a01b03861684529091528120548281101561063d5760405162461bcd60e51b815260206004820152602560248201527f45524332303a2064656372656173656420616c6c6f77616e63652062656c6f7760448201527f207a65726f00000000000000000000000000000000000000000000000000000060648201526084015b60405180910390fd5b61064c338561039f8685611023565b5060019392505050565b600061032b3384846107bb565b6001600160a01b0383166106de5760405162461bcd60e51b8152602060048201526024808201527f45524332303a20617070726f76652066726f6d20746865207a65726f2061646460448201527f72657373000000000000000000000000000000000000000000000000000000006064820152608401610634565b6001600160a01b03821661075a5760405162461bcd60e51b815260206004820152602260248201527f45524332303a20617070726f766520746f20746865207a65726f20616464726560448201527f73730000000000000000000000000000000000000000000000000000000000006064820152608401610634565b6001600160a01b0383811660008181526002602090815260408083209487168084529482529182902085905590518481527f8c5be1e5ebec7d5bd14f71427d1e84f3dd0314c0f7b2291e5b200ac8c7c3b925910160405180910390a3505050565b6001600160a01b0383166108375760405162461bcd60e51b815260206004820152602560248201527f45524332303a207472616e736665722066726f6d20746865207a65726f20616460448201527f64726573730000000000000000000000000000000000000000000000000000006064820152608401610634565b6001600160a01b0382166108b35760405162461bcd60e51b815260206004820152602360248201527f45524332303a207472616e7366657220746f20746865207a65726f206164647260448201527f65737300000000000000000000000000000000000000000000000000000000006064820152608401610634565b6001546001600160a01b0384166000908152602081905260408120549091670de0b6b3a7640000916108e59190611004565b6108ef9190610fe4565b9050818110156109675760405162461bcd60e51b815260206004820152602660248201527f45524332303a207472616e7366657220616d6f756e742065786365656473206260448201527f616c616e636500000000000000000000000000000000000000000000000000006064820152608401610634565b600154600090670de0b6b3a764000090806109828686611023565b61099490670de0b6b3a7640000611004565b61099e9190610fe4565b6109a89190611004565b6109b29190610fe4565b6109bc8484611023565b6109c69190611023565b90508060015484846109d89190611023565b6109ea90670de0b6b3a7640000611004565b6109f49190610fe4565b6109fe9190610fcc565b6001600160a01b038616600090815260208190526040812091909155600154670de0b6b3a76400009080610a328784611004565b610a3c9190610fe4565b610a469190611004565b610a509190610fe4565b610a5a9085611023565b90508060015485670de0b6b3a7640000610a749190611004565b610a7e9190610fe4565b610a889190610fcc565b6001600160a01b03861660009081526020819052604081208054909190610ab0908490610fcc565b92505081905550846001600160a01b0316866001600160a01b03167fddf252ad1be2c89b69c2b068fc378daa952ba7f163c4a11628f55a4df523b3ef86604051610afc91815260200190565b60405180910390a3505050505050565b6001600160a01b038381166000908152600260209081526040808320938616835292905220546000198114610b985781811015610b8b5760405162461bcd60e51b815260206004820152601d60248201527f45524332303a20696e73756666696369656e7420616c6c6f77616e63650000006044820152606401610634565b610b988484848403610663565b50505050565b6001600160a01b038216610bf45760405162461bcd60e51b815260206004820152601f60248201527f45524332303a206d696e7420746f20746865207a65726f2061646472657373006044820152606401610634565b8060036000828254610c069190610fcc565b9091555050600154610c2082670de0b6b3a7640000611004565b610c2a9190610fe4565b6001600160a01b03831660009081526020819052604081208054909190610c52908490610fcc565b90915550506040518181526001600160a01b038316906000907fddf252ad1be2c89b69c2b068fc378daa952ba7f163c4a11628f55a4df523b3ef9060200160405180910390a35050565b6001600160a01b038216610d185760405162461bcd60e51b815260206004820152602160248201527f45524332303a206275726e2066726f6d20746865207a65726f2061646472657360448201527f73000000000000000000000000000000000000000000000000000000000000006064820152608401610634565b6001546001600160a01b0383166000908152602081905260408120549091670de0b6b3a764000091610d4a9190611004565b610d549190610fe4565b905081811015610dcc5760405162461bcd60e51b815260206004820152602260248201527f45524332303a206275726e20616d6f756e7420657863656564732062616c616e60448201527f63650000000000000000000000000000000000000000000000000000000000006064820152608401610634565b600154610dd98383611023565b610deb90670de0b6b3a7640000611004565b610df59190610fe4565b6001600160a01b03841660009081526020819052604081209190915560038054849290610e23908490611023565b90915550506040518281526000906001600160a01b038516907fddf252ad1be2c89b69c2b068fc378daa952ba7f163c4a11628f55a4df523b3ef9060200160405180910390a3505050565b80356001600160a01b0381168114610e8557600080fd5b919050565b600060208284031215610e9b578081fd5b610ea482610e6e565b9392505050565b60008060408385031215610ebd578081fd5b610ec683610e6e565b9150610ed460208401610e6e565b90509250929050565b600080600060608486031215610ef1578081fd5b610efa84610e6e565b9250610f0860208501610e6e565b9150604084013590509250925092565b60008060408385031215610f2a578182fd5b610f3383610e6e565b946020939093013593505050565b600060208284031215610f52578081fd5b81518015158114610ea4578182fd5b600060208284031215610f72578081fd5b5035919050565b6000602080835283518082850152825b81811015610fa557858101830151858201604001528201610f89565b81811115610fb65783604083870101525b50601f01601f1916929092016040019392505050565b60008219821115610fdf57610fdf611075565b500190565b600082610fff57634e487b7160e01b81526012600452602481fd5b500490565b600081600019048311821515161561101e5761101e611075565b500290565b60008282101561103557611035611075565b500390565b600181811c9082168061104e57607f821691505b6020821081141561106f57634e487b7160e01b600052602260045260246000fd5b50919050565b634e487b7160e01b600052601160045260246000fdfea26469706673582212204aefefc6173fa38b86cee1424dddadaac25a2f2eb95d2e56d0964561e61d4cba64736f6c63430008040033",
  "linkReferences": {},
  "deployedLinkReferences": {}
}