{
  "contracts/oracles/SuUniV3Oracle.sol": {
    "SuUniV3Oracle": {
      "abi": [
        {
          "inputs": [
            {
              "internalType": "address",
              "name": "_Factory",
              "type": "address"
            },
            {
              "internalType": "address",
              "name": "_WETH",
              "type": "address"
            },
            {
              "internalType": "address",
              "name": "_USDT",
              "type": "address"
            },
            {
              "internalType": "address",
              "name": "_authControl",
              "type": "address"
            }
          ],
          "stateMutability": "nonpayable",
          "type": "constructor"
        },
        {
          "inputs": [],
          "name": "ACCESS_CONTROL_SINGLETON",
          "outputs": [
            {
              "internalType": "contract ISuAccessControl",
              "name": "",
              "type": "address"
            }
          ],
          "stateMutability": "view",
          "type": "function"
        },
        {
          "inputs": [],
          "name": "Factory",
          "outputs": [
            {
              "internalType": "address",
              "name": "",
              "type": "address"
            }
          ],
          "stateMutability": "view",
          "type": "function"
        },
        {
          "inputs": [],
          "name": "LIQUIDATION_ACCESS_ROLE",
          "outputs": [
            {
              "internalType": "bytes32",
              "name": "",
              "type": "bytes32"
            }
          ],
          "stateMutability": "view",
          "type": "function"
        },
        {
          "inputs": [],
          "name": "MINTER_ROLE",
          "outputs": [
            {
              "internalType": "bytes32",
              "name": "",
              "type": "bytes32"
            }
          ],
          "stateMutability": "view",
          "type": "function"
        },
        {
          "inputs": [],
          "name": "USDT",
          "outputs": [
            {
              "internalType": "address",
              "name": "",
              "type": "address"
            }
          ],
          "stateMutability": "view",
          "type": "function"
        },
        {
          "inputs": [],
          "name": "USDTPool",
          "outputs": [
            {
              "internalType": "address",
              "name": "",
              "type": "address"
            }
          ],
          "stateMutability": "view",
          "type": "function"
        },
        {
          "inputs": [],
          "name": "VAULT_ACCESS_ROLE",
          "outputs": [
            {
              "internalType": "bytes32",
              "name": "",
              "type": "bytes32"
            }
          ],
          "stateMutability": "view",
          "type": "function"
        },
        {
          "inputs": [],
          "name": "WETH",
          "outputs": [
            {
              "internalType": "address",
              "name": "",
              "type": "address"
            }
          ],
          "stateMutability": "view",
          "type": "function"
        },
        {
          "inputs": [
            {
              "internalType": "address",
              "name": "",
              "type": "address"
            }
          ],
          "name": "assetToPool",
          "outputs": [
            {
              "internalType": "address",
              "name": "",
              "type": "address"
            }
          ],
          "stateMutability": "view",
          "type": "function"
        },
        {
          "inputs": [
            {
              "internalType": "address",
              "name": "_asset",
              "type": "address"
            },
            {
              "internalType": "uint24",
              "name": "_fee",
              "type": "uint24"
            }
          ],
          "name": "enableAssetPool",
          "outputs": [],
          "stateMutability": "nonpayable",
          "type": "function"
        },
        {
          "inputs": [
            {
              "internalType": "address[]",
              "name": "route",
              "type": "address[]"
            },
            {
              "internalType": "contract IUniswapV3Pool[]",
              "name": "pools",
              "type": "address[]"
            },
            {
              "internalType": "uint128",
              "name": "amountIn",
              "type": "uint128"
            }
          ],
          "name": "getExpectedReturnAmount",
          "outputs": [
            {
              "internalType": "uint256",
              "name": "returnAmount",
              "type": "uint256"
            },
            {
              "internalType": "uint256",
              "name": "returnDecimals",
              "type": "uint256"
            }
          ],
          "stateMutability": "view",
          "type": "function"
        },
        {
          "inputs": [
            {
              "internalType": "address",
              "name": "asset",
              "type": "address"
            }
          ],
          "name": "getUsdPrice1e18",
          "outputs": [
            {
              "internalType": "uint256",
              "name": "",
              "type": "uint256"
            }
          ],
          "stateMutability": "view",
          "type": "function"
        },
        {
          "inputs": [],
          "name": "observationSeconds",
          "outputs": [
            {
              "internalType": "uint32",
              "name": "",
              "type": "uint32"
            }
          ],
          "stateMutability": "view",
          "type": "function"
        },
        {
          "inputs": [
            {
              "internalType": "uint32",
              "name": "_newObservationSeconds",
              "type": "uint32"
            }
          ],
          "name": "setObservationSeconds",
          "outputs": [],
          "stateMutability": "nonpayable",
          "type": "function"
        }
      ],
      "devdoc": {
        "kind": "dev",
        "methods": {
          "getUsdPrice1e18(address)": {
            "params": {
              "asset": "- address of erc20 token contract"
            },
            "returns": {
              "_0": "usdPrice1e18 such that asset.balanceOf() * getUsdPrice1e18(asset) / 1e18 == $$ * 1e18*"
            }
          }
        },
        "version": 1
      },
      "evm": {
        "bytecode": {
          "linkReferences": {},
          "object": "6101206040523480156200001257600080fd5b50604051620026ba380380620026ba833981810160405260808110156200003857600080fd5b810190808051906020019092919080519060200190929190805190602001909291908051906020019092919050505080808073ffffffffffffffffffffffffffffffffffffffff1660808173ffffffffffffffffffffffffffffffffffffffff1660601b815250505061012c6000806101000a81548163ffffffff021916908363ffffffff160217905550508373ffffffffffffffffffffffffffffffffffffffff1660a08173ffffffffffffffffffffffffffffffffffffffff1660601b815250508273ffffffffffffffffffffffffffffffffffffffff1660c08173ffffffffffffffffffffffffffffffffffffffff1660601b815250508173ffffffffffffffffffffffffffffffffffffffff1660e08173ffffffffffffffffffffffffffffffffffffffff1660601b815250506200019984620001888585610bb8620001da60201b620013ce1760201c565b6200027960201b6200146a1760201c565b73ffffffffffffffffffffffffffffffffffffffff166101008173ffffffffffffffffffffffffffffffffffffffff1660601b815250505050505062000427565b620001e4620003d5565b8273ffffffffffffffffffffffffffffffffffffffff168473ffffffffffffffffffffffffffffffffffffffff1611156200022457828480945081955050505b60405180606001604052808573ffffffffffffffffffffffffffffffffffffffff1681526020018473ffffffffffffffffffffffffffffffffffffffff1681526020018362ffffff1681525090509392505050565b6000816020015173ffffffffffffffffffffffffffffffffffffffff16826000015173ffffffffffffffffffffffffffffffffffffffff1610620002bc57600080fd5b82826000015183602001518460400151604051602001808473ffffffffffffffffffffffffffffffffffffffff1681526020018373ffffffffffffffffffffffffffffffffffffffff1681526020018262ffffff1681526020019350505050604051602081830303815290604052805190602001207fe34f199b19b2b4f47f68442619d555527d244f78a3297ea89325f843f87b8b5460001b60405160200180807fff000000000000000000000000000000000000000000000000000000000000008152506001018473ffffffffffffffffffffffffffffffffffffffff1660601b815260140183815260200182815260200193505050506040516020818303038152906040528051906020012060001c905092915050565b6040518060600160405280600073ffffffffffffffffffffffffffffffffffffffff168152602001600073ffffffffffffffffffffffffffffffffffffffff168152602001600062ffffff1681525090565b60805160601c60a05160601c60c05160601c60e05160601c6101005160601c61220d620004ad6000398061077d5280610a5b52806111365250806106c9528061090052806110ee5250806105c1528061066152806108985280610f6852806112c2525080611112528061129e5250806105435280610f8c528061115a525061220d6000f3fe608060405234801561001057600080fd5b50600436106100ea5760003560e01c8063c54e44eb1161008c578063d3a6fc9911610066578063d3a6fc991461048e578063d5391393146104e1578063dc97e84e146104ff578063fa2c6d7c1461051d576100ea565b8063c54e44eb146103f2578063c83dd23114610426578063cb46b2821461045a576100ea565b8063356efd98116100c8578063356efd98146101af5780639788424314610207578063ad5c46481461038a578063c192041a146103be576100ea565b806303ee9f22146100ef578063044c8d711461012357806314c376dc14610191575b600080fd5b6100f7610541565b604051808273ffffffffffffffffffffffffffffffffffffffff16815260200191505060405180910390f35b6101656004803603602081101561013957600080fd5b81019080803573ffffffffffffffffffffffffffffffffffffffff169060200190929190505050610565565b604051808273ffffffffffffffffffffffffffffffffffffffff16815260200191505060405180910390f35b610199610598565b6040518082815260200191505060405180910390f35b6101f1600480360360208110156101c557600080fd5b81019080803573ffffffffffffffffffffffffffffffffffffffff1690602001909291905050506105bc565b6040518082815260200191505060405180910390f35b61036d6004803603606081101561021d57600080fd5b810190808035906020019064010000000081111561023a57600080fd5b82018360208201111561024c57600080fd5b8035906020019184602083028401116401000000008311171561026e57600080fd5b919080806020026020016040519081016040528093929190818152602001838360200280828437600081840152601f19601f820116905080830192505050505050509192919290803590602001906401000000008111156102ce57600080fd5b8201836020820111156102e057600080fd5b8035906020019184602083028401116401000000008311171561030257600080fd5b919080806020026020016040519081016040528093929190818152602001838360200280828437600081840152601f19601f82011690508083019250505050505050919291929080356fffffffffffffffffffffffffffffffff169060200190929190505050610aec565b604051808381526020018281526020019250505060405180910390f35b610392610f66565b604051808273ffffffffffffffffffffffffffffffffffffffff16815260200191505060405180910390f35b6103f0600480360360208110156103d457600080fd5b81019080803563ffffffff169060200190929190505050610f8a565b005b6103fa6110ec565b604051808273ffffffffffffffffffffffffffffffffffffffff16815260200191505060405180910390f35b61042e611110565b604051808273ffffffffffffffffffffffffffffffffffffffff16815260200191505060405180910390f35b610462611134565b604051808273ffffffffffffffffffffffffffffffffffffffff16815260200191505060405180910390f35b6104df600480360360408110156104a457600080fd5b81019080803573ffffffffffffffffffffffffffffffffffffffff169060200190929190803562ffffff169060200190929190505050611158565b005b6104e9611372565b6040518082815260200191505060405180910390f35b610507611396565b6040518082815260200191505060405180910390f35b6105256113ba565b604051808263ffffffff16815260200191505060405180910390f35b7f000000000000000000000000000000000000000000000000000000000000000081565b60016020528060005260406000206000915054906101000a900473ffffffffffffffffffffffffffffffffffffffff1681565b7fe965846df3dd5b1dfa65f58e31477079e90140e0908b6dd31b5aead5a57cf36581565b6000807f000000000000000000000000000000000000000000000000000000000000000073ffffffffffffffffffffffffffffffffffffffff168373ffffffffffffffffffffffffffffffffffffffff161415610802576000600267ffffffffffffffff8111801561062d57600080fd5b5060405190808252806020026020018201604052801561065c5781602001602082028036833780820191505090505b5090507f00000000000000000000000000000000000000000000000000000000000000008160008151811061068d57fe5b602002602001019073ffffffffffffffffffffffffffffffffffffffff16908173ffffffffffffffffffffffffffffffffffffffff16815250507f0000000000000000000000000000000000000000000000000000000000000000816001815181106106f557fe5b602002602001019073ffffffffffffffffffffffffffffffffffffffff16908173ffffffffffffffffffffffffffffffffffffffff16815250506000600167ffffffffffffffff8111801561074957600080fd5b506040519080825280602002602001820160405280156107785781602001602082028036833780820191505090505b5090507f0000000000000000000000000000000000000000000000000000000000000000816000815181106107a957fe5b602002602001019073ffffffffffffffffffffffffffffffffffffffff16908173ffffffffffffffffffffffffffffffffffffffff16815250506107f68282670de0b6b3a7640000610aec565b50809350505050610adc565b6000600367ffffffffffffffff8111801561081c57600080fd5b5060405190808252806020026020018201604052801561084b5781602001602082028036833780820191505090505b509050838160008151811061085c57fe5b602002602001019073ffffffffffffffffffffffffffffffffffffffff16908173ffffffffffffffffffffffffffffffffffffffff16815250507f0000000000000000000000000000000000000000000000000000000000000000816001815181106108c457fe5b602002602001019073ffffffffffffffffffffffffffffffffffffffff16908173ffffffffffffffffffffffffffffffffffffffff16815250507f00000000000000000000000000000000000000000000000000000000000000008160028151811061092c57fe5b602002602001019073ffffffffffffffffffffffffffffffffffffffff16908173ffffffffffffffffffffffffffffffffffffffff16815250506000600267ffffffffffffffff8111801561098057600080fd5b506040519080825280602002602001820160405280156109af5781602001602082028036833780820191505090505b509050600160008673ffffffffffffffffffffffffffffffffffffffff1673ffffffffffffffffffffffffffffffffffffffff16815260200190815260200160002060009054906101000a900473ffffffffffffffffffffffffffffffffffffffff1681600081518110610a1f57fe5b602002602001019073ffffffffffffffffffffffffffffffffffffffff16908173ffffffffffffffffffffffffffffffffffffffff16815250507f000000000000000000000000000000000000000000000000000000000000000081600181518110610a8757fe5b602002602001019073ffffffffffffffffffffffffffffffffffffffff16908173ffffffffffffffffffffffffffffffffffffffff1681525050610ad48282670de0b6b3a7640000610aec565b508093505050505b64e8d4a510008102915050919050565b6000806000845190506000849050600080600090505b83811015610ebe576000888281518110610b1857fe5b6020026020010151905060008a8381518110610b3057fe5b6020026020010151905060008b6001850181518110610b4b57fe5b602002602001015190508173ffffffffffffffffffffffffffffffffffffffff168373ffffffffffffffffffffffffffffffffffffffff16630dfe16816040518163ffffffff1660e01b815260040160206040518083038186803b158015610bb257600080fd5b505afa158015610bc6573d6000803e3d6000fd5b505050506040513d6020811015610bdc57600080fd5b810190808051906020019092919050505073ffffffffffffffffffffffffffffffffffffffff16148015610cbb57508073ffffffffffffffffffffffffffffffffffffffff168373ffffffffffffffffffffffffffffffffffffffff1663d21220a76040518163ffffffff1660e01b815260040160206040518083038186803b158015610c6857600080fd5b505afa158015610c7c573d6000803e3d6000fd5b505050506040513d6020811015610c9257600080fd5b810190808051906020019092919050505073ffffffffffffffffffffffffffffffffffffffff16145b80610e2857508073ffffffffffffffffffffffffffffffffffffffff168373ffffffffffffffffffffffffffffffffffffffff16630dfe16816040518163ffffffff1660e01b815260040160206040518083038186803b158015610d1e57600080fd5b505afa158015610d32573d6000803e3d6000fd5b505050506040513d6020811015610d4857600080fd5b810190808051906020019092919050505073ffffffffffffffffffffffffffffffffffffffff16148015610e2757508173ffffffffffffffffffffffffffffffffffffffff168373ffffffffffffffffffffffffffffffffffffffff1663d21220a76040518163ffffffff1660e01b815260040160206040518083038186803b158015610dd457600080fd5b505afa158015610de8573d6000803e3d6000fd5b505050506040513d6020811015610dfe57600080fd5b810190808051906020019092919050505073ffffffffffffffffffffffffffffffffffffffff16145b5b610e7d576040517f08c379a000000000000000000000000000000000000000000000000000000000815260040180806020018281038252603b81526020018061219d603b913960400191505060405180910390fd5b6000610e998460008054906101000a900463ffffffff166115c5565b509050610ea881888585611a32565b9550859650505050508080600101915050610b02565b50809450878381518110610ece57fe5b602002602001015173ffffffffffffffffffffffffffffffffffffffff1663313ce5676040518163ffffffff1660e01b815260040160206040518083038186803b158015610f1b57600080fd5b505afa158015610f2f573d6000803e3d6000fd5b505050506040513d6020811015610f4557600080fd5b810190808051906020019092919050505060ff169350505050935093915050565b7f000000000000000000000000000000000000000000000000000000000000000081565b7f000000000000000000000000000000000000000000000000000000000000000073ffffffffffffffffffffffffffffffffffffffff166391d148546000801b336040518363ffffffff1660e01b8152600401808381526020018273ffffffffffffffffffffffffffffffffffffffff1681526020019250505060206040518083038186803b15801561101c57600080fd5b505afa158015611030573d6000803e3d6000fd5b505050506040513d602081101561104657600080fd5b81019080805190602001909291905050506110c9576040517f08c379a000000000000000000000000000000000000000000000000000000000815260040180806020018281038252601d8152602001807f5375417574683a206f6e6c794f776e657220415554485f4641494c454400000081525060200191505060405180910390fd5b806000806101000a81548163ffffffff021916908363ffffffff16021790555050565b7f000000000000000000000000000000000000000000000000000000000000000081565b7f000000000000000000000000000000000000000000000000000000000000000081565b7f000000000000000000000000000000000000000000000000000000000000000081565b7f000000000000000000000000000000000000000000000000000000000000000073ffffffffffffffffffffffffffffffffffffffff166391d148546000801b336040518363ffffffff1660e01b8152600401808381526020018273ffffffffffffffffffffffffffffffffffffffff1681526020019250505060206040518083038186803b1580156111ea57600080fd5b505afa1580156111fe573d6000803e3d6000fd5b505050506040513d602081101561121457600080fd5b8101908080519060200190929190505050611297576040517f08c379a000000000000000000000000000000000000000000000000000000000815260040180806020018281038252601d8152602001807f5375417574683a206f6e6c794f776e657220415554485f4641494c454400000081525060200191505060405180910390fd5b60006112ed7f00000000000000000000000000000000000000000000000000000000000000006112e87f000000000000000000000000000000000000000000000000000000000000000086866113ce565b61146a565b905080600160008573ffffffffffffffffffffffffffffffffffffffff1673ffffffffffffffffffffffffffffffffffffffff16815260200190815260200160002060006101000a81548173ffffffffffffffffffffffffffffffffffffffff021916908373ffffffffffffffffffffffffffffffffffffffff160217905550505050565b7f9f2df0fed2c77648de5860a4cc508cd0818c85b8b8a1ab4ceeef8d981c8956a681565b7f9a9aef7c1247d5fc769b0185c052913e39673da29a880317dfd20ebf86f26a4981565b60008054906101000a900463ffffffff1681565b6113d661214a565b8273ffffffffffffffffffffffffffffffffffffffff168473ffffffffffffffffffffffffffffffffffffffff16111561141557828480945081955050505b60405180606001604052808573ffffffffffffffffffffffffffffffffffffffff1681526020018473ffffffffffffffffffffffffffffffffffffffff1681526020018362ffffff1681525090509392505050565b6000816020015173ffffffffffffffffffffffffffffffffffffffff16826000015173ffffffffffffffffffffffffffffffffffffffff16106114ac57600080fd5b82826000015183602001518460400151604051602001808473ffffffffffffffffffffffffffffffffffffffff1681526020018373ffffffffffffffffffffffffffffffffffffffff1681526020018262ffffff1681526020019350505050604051602081830303815290604052805190602001207fe34f199b19b2b4f47f68442619d555527d244f78a3297ea89325f843f87b8b5460001b60405160200180807fff000000000000000000000000000000000000000000000000000000000000008152506001018473ffffffffffffffffffffffffffffffffffffffff1660601b815260140183815260200182815260200193505050506040516020818303038152906040528051906020012060001c905092915050565b60008060008363ffffffff161415611645576040517f08c379a00000000000000000000000000000000000000000000000000000000081526004018080602001828103825260028152602001807f425000000000000000000000000000000000000000000000000000000000000081525060200191505060405180910390fd5b6000600267ffffffffffffffff8111801561165f57600080fd5b5060405190808252806020026020018201604052801561168e5781602001602082028036833780820191505090505b509050838160008151811061169f57fe5b602002602001019063ffffffff16908163ffffffff16815250506000816001815181106116c857fe5b602002602001019063ffffffff16908163ffffffff16815250506000808673ffffffffffffffffffffffffffffffffffffffff1663883bdbfd846040518263ffffffff1660e01b81526004018080602001828103825283818151815260200191508051906020019060200280838360005b83811015611754578082015181840152602081019050611739565b505050509050019250505060006040518083038186803b15801561177757600080fd5b505afa15801561178b573d6000803e3d6000fd5b505050506040513d6000823e3d601f19601f8201168201806040525060408110156117b557600080fd5b81019080805160405193929190846401000000008211156117d557600080fd5b838201915060208201858111156117eb57600080fd5b825186602082028301116401000000008211171561180857600080fd5b8083526020830192505050908051906020019060200280838360005b8381101561183f578082015181840152602081019050611824565b505050509050016040526020018051604051939291908464010000000082111561186857600080fd5b8382019150602082018581111561187e57600080fd5b825186602082028301116401000000008211171561189b57600080fd5b8083526020830192505050908051906020019060200280838360005b838110156118d25780820151818401526020810190506118b7565b50505050905001604052505050915091506000826000815181106118f257fe5b60200260200101518360018151811061190757fe5b602002602001015103905060008260008151811061192157fe5b60200260200101518360018151811061193657fe5b60200260200101510390508763ffffffff168260060b8161195357fe5b05965060008260060b12801561197f575060008863ffffffff168360060b8161197857fe5b0760060b14155b1561198e578680600190039750505b600073ffffffffffffffffffffffffffffffffffffffff80168963ffffffff1602905060208273ffffffffffffffffffffffffffffffffffffffff1677ffffffffffffffffffffffffffffffffffffffffffffffff16901b77ffffffffffffffffffffffffffffffffffffffffffffffff168177ffffffffffffffffffffffffffffffffffffffffffffffff1681611a2257fe5b0496505050505050509250929050565b600080611a3e86611c35565b90506fffffffffffffffffffffffffffffffff80168173ffffffffffffffffffffffffffffffffffffffff1611611b4f5760008173ffffffffffffffffffffffffffffffffffffffff168273ffffffffffffffffffffffffffffffffffffffff160290508373ffffffffffffffffffffffffffffffffffffffff168573ffffffffffffffffffffffffffffffffffffffff1610611b1057611b0b7801000000000000000000000000000000000000000000000000876fffffffffffffffffffffffffffffffff1683612070565b611b47565b611b4681876fffffffffffffffffffffffffffffffff167801000000000000000000000000000000000000000000000000612070565b5b925050611c2c565b6000611b918273ffffffffffffffffffffffffffffffffffffffff168373ffffffffffffffffffffffffffffffffffffffff1668010000000000000000612070565b90508373ffffffffffffffffffffffffffffffffffffffff168573ffffffffffffffffffffffffffffffffffffffff1610611bf957611bf4700100000000000000000000000000000000876fffffffffffffffffffffffffffffffff1683612070565b611c28565b611c2781876fffffffffffffffffffffffffffffffff16700100000000000000000000000000000000612070565b5b9250505b50949350505050565b60008060008360020b12611c4c578260020b611c54565b8260020b6000035b90507ffffffffffffffffffffffffffffffffffffffffffffffffffffffffffff2761860000360020b811115611cf2576040517f08c379a00000000000000000000000000000000000000000000000000000000081526004018080602001828103825260018152602001807f540000000000000000000000000000000000000000000000000000000000000081525060200191505060405180910390fd5b600080600183161415611d1657700100000000000000000000000000000000611d28565b6ffffcb933bd6fad37aa2d162d1a5940015b70ffffffffffffffffffffffffffffffffff16905060006002831614611d625760806ffff97272373d413259a46990580e213a8202901c90505b60006004831614611d875760806ffff2e50f5f656932ef12357cf3c7fdcc8202901c90505b60006008831614611dac5760806fffe5caca7e10e4e61c3624eaa0941cd08202901c90505b60006010831614611dd15760806fffcb9843d60f6159c9db58835c9266448202901c90505b60006020831614611df65760806fff973b41fa98c081472e6896dfb254c08202901c90505b60006040831614611e1b5760806fff2ea16466c96a3843ec78b326b528618202901c90505b60006080831614611e405760806ffe5dee046a99a2a811c461f1969c30538202901c90505b6000610100831614611e665760806ffcbe86c7900a88aedcffc83b479aa3a48202901c90505b6000610200831614611e8c5760806ff987a7253ac413176f2b074cf7815e548202901c90505b6000610400831614611eb25760806ff3392b0822b70005940c7a398e4b70f38202901c90505b6000610800831614611ed85760806fe7159475a2c29b7443b29c7fa6e889d98202901c90505b6000611000831614611efe5760806fd097f3bdfd2022b8845ad8f792aa58258202901c90505b6000612000831614611f245760806fa9f746462d870fdf8a65dc1f90e061e58202901c90505b6000614000831614611f4a5760806f70d869a156d2a1b890bb3df62baf32f78202901c90505b6000618000831614611f705760806f31be135f97d08fd981231505542fcfa68202901c90505b600062010000831614611f975760806f09aa508b5b7a84e1c677de54f3e99bc98202901c90505b600062020000831614611fbd5760806e5d6af8dedb81196699c329225ee6048202901c90505b600062040000831614611fe25760806d2216e584f5fa1ea926041bedfe988202901c90505b6000620800008316146120055760806b048a170391f7dc42444e8fa28202901c90505b60008460020b131561203e57807fffffffffffffffffffffffffffffffffffffffffffffffffffffffffffffffff8161203a57fe5b0490505b6000640100000000828161204e57fe5b061461205b57600161205e565b60005b60ff16602082901c0192505050919050565b6000806000801985870985870292508281108382030391505060008114156120ab576000841161209f57600080fd5b83820492505050612143565b8084116120b757600080fd5b600084868809905082811182039150808303925060008586600003169050808604955080840493506001818260000304019050808302841793506000600287600302189050808702600203810290508087026002038102905080870260020381029050808702600203810290508087026002038102905080870260020381029050808502955050505050505b9392505050565b6040518060600160405280600073ffffffffffffffffffffffffffffffffffffffff168152602001600073ffffffffffffffffffffffffffffffffffffffff168152602001600062ffffff168152509056fe556e6956334f7261636c653a20676574457870656374656452657475726e416d6f756e743a2057726f6e6720706f6f6c73206f7220746f6b656e73a2646970667358221220de5fb3d17b9d9be9345f5cfec3cf6b7b30ad44dadc927481800e1d8f84e239bd64736f6c63430007060033",
          "opcodes": "PUSH2 0x120 PUSH1 0x40 MSTORE CALLVALUE DUP1 ISZERO PUSH3 0x12 JUMPI PUSH1 0x0 DUP1 REVERT JUMPDEST POP PUSH1 0x40 MLOAD PUSH3 0x26BA CODESIZE SUB DUP1 PUSH3 0x26BA DUP4 CODECOPY DUP2 DUP2 ADD PUSH1 0x40 MSTORE PUSH1 0x80 DUP2 LT ISZERO PUSH3 0x38 JUMPI PUSH1 0x0 DUP1 REVERT JUMPDEST DUP2 ADD SWAP1 DUP1 DUP1 MLOAD SWAP1 PUSH1 0x20 ADD SWAP1 SWAP3 SWAP2 SWAP1 DUP1 MLOAD SWAP1 PUSH1 0x20 ADD SWAP1 SWAP3 SWAP2 SWAP1 DUP1 MLOAD SWAP1 PUSH1 0x20 ADD SWAP1 SWAP3 SWAP2 SWAP1 DUP1 MLOAD SWAP1 PUSH1 0x20 ADD SWAP1 SWAP3 SWAP2 SWAP1 POP POP POP DUP1 DUP1 DUP1 PUSH20 0xFFFFFFFFFFFFFFFFFFFFFFFFFFFFFFFFFFFFFFFF AND PUSH1 0x80 DUP2 PUSH20 0xFFFFFFFFFFFFFFFFFFFFFFFFFFFFFFFFFFFFFFFF AND PUSH1 0x60 SHL DUP2 MSTORE POP POP POP PUSH2 0x12C PUSH1 0x0 DUP1 PUSH2 0x100 EXP DUP2 SLOAD DUP2 PUSH4 0xFFFFFFFF MUL NOT AND SWAP1 DUP4 PUSH4 0xFFFFFFFF AND MUL OR SWAP1 SSTORE POP POP DUP4 PUSH20 0xFFFFFFFFFFFFFFFFFFFFFFFFFFFFFFFFFFFFFFFF AND PUSH1 0xA0 DUP2 PUSH20 0xFFFFFFFFFFFFFFFFFFFFFFFFFFFFFFFFFFFFFFFF AND PUSH1 0x60 SHL DUP2 MSTORE POP POP DUP3 PUSH20 0xFFFFFFFFFFFFFFFFFFFFFFFFFFFFFFFFFFFFFFFF AND PUSH1 0xC0 DUP2 PUSH20 0xFFFFFFFFFFFFFFFFFFFFFFFFFFFFFFFFFFFFFFFF AND PUSH1 0x60 SHL DUP2 MSTORE POP POP DUP2 PUSH20 0xFFFFFFFFFFFFFFFFFFFFFFFFFFFFFFFFFFFFFFFF AND PUSH1 0xE0 DUP2 PUSH20 0xFFFFFFFFFFFFFFFFFFFFFFFFFFFFFFFFFFFFFFFF AND PUSH1 0x60 SHL DUP2 MSTORE POP POP PUSH3 0x199 DUP5 PUSH3 0x188 DUP6 DUP6 PUSH2 0xBB8 PUSH3 0x1DA PUSH1 0x20 SHL PUSH3 0x13CE OR PUSH1 0x20 SHR JUMP JUMPDEST PUSH3 0x279 PUSH1 0x20 SHL PUSH3 0x146A OR PUSH1 0x20 SHR JUMP JUMPDEST PUSH20 0xFFFFFFFFFFFFFFFFFFFFFFFFFFFFFFFFFFFFFFFF AND PUSH2 0x100 DUP2 PUSH20 0xFFFFFFFFFFFFFFFFFFFFFFFFFFFFFFFFFFFFFFFF AND PUSH1 0x60 SHL DUP2 MSTORE POP POP POP POP POP POP PUSH3 0x427 JUMP JUMPDEST PUSH3 0x1E4 PUSH3 0x3D5 JUMP JUMPDEST DUP3 PUSH20 0xFFFFFFFFFFFFFFFFFFFFFFFFFFFFFFFFFFFFFFFF AND DUP5 PUSH20 0xFFFFFFFFFFFFFFFFFFFFFFFFFFFFFFFFFFFFFFFF AND GT ISZERO PUSH3 0x224 JUMPI DUP3 DUP5 DUP1 SWAP5 POP DUP2 SWAP6 POP POP POP JUMPDEST PUSH1 0x40 MLOAD DUP1 PUSH1 0x60 ADD PUSH1 0x40 MSTORE DUP1 DUP6 PUSH20 0xFFFFFFFFFFFFFFFFFFFFFFFFFFFFFFFFFFFFFFFF AND DUP2 MSTORE PUSH1 0x20 ADD DUP5 PUSH20 0xFFFFFFFFFFFFFFFFFFFFFFFFFFFFFFFFFFFFFFFF AND DUP2 MSTORE PUSH1 0x20 ADD DUP4 PUSH3 0xFFFFFF AND DUP2 MSTORE POP SWAP1 POP SWAP4 SWAP3 POP POP POP JUMP JUMPDEST PUSH1 0x0 DUP2 PUSH1 0x20 ADD MLOAD PUSH20 0xFFFFFFFFFFFFFFFFFFFFFFFFFFFFFFFFFFFFFFFF AND DUP3 PUSH1 0x0 ADD MLOAD PUSH20 0xFFFFFFFFFFFFFFFFFFFFFFFFFFFFFFFFFFFFFFFF AND LT PUSH3 0x2BC JUMPI PUSH1 0x0 DUP1 REVERT JUMPDEST DUP3 DUP3 PUSH1 0x0 ADD MLOAD DUP4 PUSH1 0x20 ADD MLOAD DUP5 PUSH1 0x40 ADD MLOAD PUSH1 0x40 MLOAD PUSH1 0x20 ADD DUP1 DUP5 PUSH20 0xFFFFFFFFFFFFFFFFFFFFFFFFFFFFFFFFFFFFFFFF AND DUP2 MSTORE PUSH1 0x20 ADD DUP4 PUSH20 0xFFFFFFFFFFFFFFFFFFFFFFFFFFFFFFFFFFFFFFFF AND DUP2 MSTORE PUSH1 0x20 ADD DUP3 PUSH3 0xFFFFFF AND DUP2 MSTORE PUSH1 0x20 ADD SWAP4 POP POP POP POP PUSH1 0x40 MLOAD PUSH1 0x20 DUP2 DUP4 SUB SUB DUP2 MSTORE SWAP1 PUSH1 0x40 MSTORE DUP1 MLOAD SWAP1 PUSH1 0x20 ADD KECCAK256 PUSH32 0xE34F199B19B2B4F47F68442619D555527D244F78A3297EA89325F843F87B8B54 PUSH1 0x0 SHL PUSH1 0x40 MLOAD PUSH1 0x20 ADD DUP1 DUP1 PUSH32 0xFF00000000000000000000000000000000000000000000000000000000000000 DUP2 MSTORE POP PUSH1 0x1 ADD DUP5 PUSH20 0xFFFFFFFFFFFFFFFFFFFFFFFFFFFFFFFFFFFFFFFF AND PUSH1 0x60 SHL DUP2 MSTORE PUSH1 0x14 ADD DUP4 DUP2 MSTORE PUSH1 0x20 ADD DUP3 DUP2 MSTORE PUSH1 0x20 ADD SWAP4 POP POP POP POP PUSH1 0x40 MLOAD PUSH1 0x20 DUP2 DUP4 SUB SUB DUP2 MSTORE SWAP1 PUSH1 0x40 MSTORE DUP1 MLOAD SWAP1 PUSH1 0x20 ADD KECCAK256 PUSH1 0x0 SHR SWAP1 POP SWAP3 SWAP2 POP POP JUMP JUMPDEST PUSH1 0x40 MLOAD DUP1 PUSH1 0x60 ADD PUSH1 0x40 MSTORE DUP1 PUSH1 0x0 PUSH20 0xFFFFFFFFFFFFFFFFFFFFFFFFFFFFFFFFFFFFFFFF AND DUP2 MSTORE PUSH1 0x20 ADD PUSH1 0x0 PUSH20 0xFFFFFFFFFFFFFFFFFFFFFFFFFFFFFFFFFFFFFFFF AND DUP2 MSTORE PUSH1 0x20 ADD PUSH1 0x0 PUSH3 0xFFFFFF AND DUP2 MSTORE POP SWAP1 JUMP JUMPDEST PUSH1 0x80 MLOAD PUSH1 0x60 SHR PUSH1 0xA0 MLOAD PUSH1 0x60 SHR PUSH1 0xC0 MLOAD PUSH1 0x60 SHR PUSH1 0xE0 MLOAD PUSH1 0x60 SHR PUSH2 0x100 MLOAD PUSH1 0x60 SHR PUSH2 0x220D PUSH3 0x4AD PUSH1 0x0 CODECOPY DUP1 PUSH2 0x77D MSTORE DUP1 PUSH2 0xA5B MSTORE DUP1 PUSH2 0x1136 MSTORE POP DUP1 PUSH2 0x6C9 MSTORE DUP1 PUSH2 0x900 MSTORE DUP1 PUSH2 0x10EE MSTORE POP DUP1 PUSH2 0x5C1 MSTORE DUP1 PUSH2 0x661 MSTORE DUP1 PUSH2 0x898 MSTORE DUP1 PUSH2 0xF68 MSTORE DUP1 PUSH2 0x12C2 MSTORE POP DUP1 PUSH2 0x1112 MSTORE DUP1 PUSH2 0x129E MSTORE POP DUP1 PUSH2 0x543 MSTORE DUP1 PUSH2 0xF8C MSTORE DUP1 PUSH2 0x115A MSTORE POP PUSH2 0x220D PUSH1 0x0 RETURN INVALID PUSH1 0x80 PUSH1 0x40 MSTORE CALLVALUE DUP1 ISZERO PUSH2 0x10 JUMPI PUSH1 0x0 DUP1 REVERT JUMPDEST POP PUSH1 0x4 CALLDATASIZE LT PUSH2 0xEA JUMPI PUSH1 0x0 CALLDATALOAD PUSH1 0xE0 SHR DUP1 PUSH4 0xC54E44EB GT PUSH2 0x8C JUMPI DUP1 PUSH4 0xD3A6FC99 GT PUSH2 0x66 JUMPI DUP1 PUSH4 0xD3A6FC99 EQ PUSH2 0x48E JUMPI DUP1 PUSH4 0xD5391393 EQ PUSH2 0x4E1 JUMPI DUP1 PUSH4 0xDC97E84E EQ PUSH2 0x4FF JUMPI DUP1 PUSH4 0xFA2C6D7C EQ PUSH2 0x51D JUMPI PUSH2 0xEA JUMP JUMPDEST DUP1 PUSH4 0xC54E44EB EQ PUSH2 0x3F2 JUMPI DUP1 PUSH4 0xC83DD231 EQ PUSH2 0x426 JUMPI DUP1 PUSH4 0xCB46B282 EQ PUSH2 0x45A JUMPI PUSH2 0xEA JUMP JUMPDEST DUP1 PUSH4 0x356EFD98 GT PUSH2 0xC8 JUMPI DUP1 PUSH4 0x356EFD98 EQ PUSH2 0x1AF JUMPI DUP1 PUSH4 0x97884243 EQ PUSH2 0x207 JUMPI DUP1 PUSH4 0xAD5C4648 EQ PUSH2 0x38A JUMPI DUP1 PUSH4 0xC192041A EQ PUSH2 0x3BE JUMPI PUSH2 0xEA JUMP JUMPDEST DUP1 PUSH4 0x3EE9F22 EQ PUSH2 0xEF JUMPI DUP1 PUSH4 0x44C8D71 EQ PUSH2 0x123 JUMPI DUP1 PUSH4 0x14C376DC EQ PUSH2 0x191 JUMPI JUMPDEST PUSH1 0x0 DUP1 REVERT JUMPDEST PUSH2 0xF7 PUSH2 0x541 JUMP JUMPDEST PUSH1 0x40 MLOAD DUP1 DUP3 PUSH20 0xFFFFFFFFFFFFFFFFFFFFFFFFFFFFFFFFFFFFFFFF AND DUP2 MSTORE PUSH1 0x20 ADD SWAP2 POP POP PUSH1 0x40 MLOAD DUP1 SWAP2 SUB SWAP1 RETURN JUMPDEST PUSH2 0x165 PUSH1 0x4 DUP1 CALLDATASIZE SUB PUSH1 0x20 DUP2 LT ISZERO PUSH2 0x139 JUMPI PUSH1 0x0 DUP1 REVERT JUMPDEST DUP2 ADD SWAP1 DUP1 DUP1 CALLDATALOAD PUSH20 0xFFFFFFFFFFFFFFFFFFFFFFFFFFFFFFFFFFFFFFFF AND SWAP1 PUSH1 0x20 ADD SWAP1 SWAP3 SWAP2 SWAP1 POP POP POP PUSH2 0x565 JUMP JUMPDEST PUSH1 0x40 MLOAD DUP1 DUP3 PUSH20 0xFFFFFFFFFFFFFFFFFFFFFFFFFFFFFFFFFFFFFFFF AND DUP2 MSTORE PUSH1 0x20 ADD SWAP2 POP POP PUSH1 0x40 MLOAD DUP1 SWAP2 SUB SWAP1 RETURN JUMPDEST PUSH2 0x199 PUSH2 0x598 JUMP JUMPDEST PUSH1 0x40 MLOAD DUP1 DUP3 DUP2 MSTORE PUSH1 0x20 ADD SWAP2 POP POP PUSH1 0x40 MLOAD DUP1 SWAP2 SUB SWAP1 RETURN JUMPDEST PUSH2 0x1F1 PUSH1 0x4 DUP1 CALLDATASIZE SUB PUSH1 0x20 DUP2 LT ISZERO PUSH2 0x1C5 JUMPI PUSH1 0x0 DUP1 REVERT JUMPDEST DUP2 ADD SWAP1 DUP1 DUP1 CALLDATALOAD PUSH20 0xFFFFFFFFFFFFFFFFFFFFFFFFFFFFFFFFFFFFFFFF AND SWAP1 PUSH1 0x20 ADD SWAP1 SWAP3 SWAP2 SWAP1 POP POP POP PUSH2 0x5BC JUMP JUMPDEST PUSH1 0x40 MLOAD DUP1 DUP3 DUP2 MSTORE PUSH1 0x20 ADD SWAP2 POP POP PUSH1 0x40 MLOAD DUP1 SWAP2 SUB SWAP1 RETURN JUMPDEST PUSH2 0x36D PUSH1 0x4 DUP1 CALLDATASIZE SUB PUSH1 0x60 DUP2 LT ISZERO PUSH2 0x21D JUMPI PUSH1 0x0 DUP1 REVERT JUMPDEST DUP2 ADD SWAP1 DUP1 DUP1 CALLDATALOAD SWAP1 PUSH1 0x20 ADD SWAP1 PUSH5 0x100000000 DUP2 GT ISZERO PUSH2 0x23A JUMPI PUSH1 0x0 DUP1 REVERT JUMPDEST DUP3 ADD DUP4 PUSH1 0x20 DUP3 ADD GT ISZERO PUSH2 0x24C JUMPI PUSH1 0x0 DUP1 REVERT JUMPDEST DUP1 CALLDATALOAD SWAP1 PUSH1 0x20 ADD SWAP2 DUP5 PUSH1 0x20 DUP4 MUL DUP5 ADD GT PUSH5 0x100000000 DUP4 GT OR ISZERO PUSH2 0x26E JUMPI PUSH1 0x0 DUP1 REVERT JUMPDEST SWAP2 SWAP1 DUP1 DUP1 PUSH1 0x20 MUL PUSH1 0x20 ADD PUSH1 0x40 MLOAD SWAP1 DUP2 ADD PUSH1 0x40 MSTORE DUP1 SWAP4 SWAP3 SWAP2 SWAP1 DUP2 DUP2 MSTORE PUSH1 0x20 ADD DUP4 DUP4 PUSH1 0x20 MUL DUP1 DUP3 DUP5 CALLDATACOPY PUSH1 0x0 DUP2 DUP5 ADD MSTORE PUSH1 0x1F NOT PUSH1 0x1F DUP3 ADD AND SWAP1 POP DUP1 DUP4 ADD SWAP3 POP POP POP POP POP POP POP SWAP2 SWAP3 SWAP2 SWAP3 SWAP1 DUP1 CALLDATALOAD SWAP1 PUSH1 0x20 ADD SWAP1 PUSH5 0x100000000 DUP2 GT ISZERO PUSH2 0x2CE JUMPI PUSH1 0x0 DUP1 REVERT JUMPDEST DUP3 ADD DUP4 PUSH1 0x20 DUP3 ADD GT ISZERO PUSH2 0x2E0 JUMPI PUSH1 0x0 DUP1 REVERT JUMPDEST DUP1 CALLDATALOAD SWAP1 PUSH1 0x20 ADD SWAP2 DUP5 PUSH1 0x20 DUP4 MUL DUP5 ADD GT PUSH5 0x100000000 DUP4 GT OR ISZERO PUSH2 0x302 JUMPI PUSH1 0x0 DUP1 REVERT JUMPDEST SWAP2 SWAP1 DUP1 DUP1 PUSH1 0x20 MUL PUSH1 0x20 ADD PUSH1 0x40 MLOAD SWAP1 DUP2 ADD PUSH1 0x40 MSTORE DUP1 SWAP4 SWAP3 SWAP2 SWAP1 DUP2 DUP2 MSTORE PUSH1 0x20 ADD DUP4 DUP4 PUSH1 0x20 MUL DUP1 DUP3 DUP5 CALLDATACOPY PUSH1 0x0 DUP2 DUP5 ADD MSTORE PUSH1 0x1F NOT PUSH1 0x1F DUP3 ADD AND SWAP1 POP DUP1 DUP4 ADD SWAP3 POP POP POP POP POP POP POP SWAP2 SWAP3 SWAP2 SWAP3 SWAP1 DUP1 CALLDATALOAD PUSH16 0xFFFFFFFFFFFFFFFFFFFFFFFFFFFFFFFF AND SWAP1 PUSH1 0x20 ADD SWAP1 SWAP3 SWAP2 SWAP1 POP POP POP PUSH2 0xAEC JUMP JUMPDEST PUSH1 0x40 MLOAD DUP1 DUP4 DUP2 MSTORE PUSH1 0x20 ADD DUP3 DUP2 MSTORE PUSH1 0x20 ADD SWAP3 POP POP POP PUSH1 0x40 MLOAD DUP1 SWAP2 SUB SWAP1 RETURN JUMPDEST PUSH2 0x392 PUSH2 0xF66 JUMP JUMPDEST PUSH1 0x40 MLOAD DUP1 DUP3 PUSH20 0xFFFFFFFFFFFFFFFFFFFFFFFFFFFFFFFFFFFFFFFF AND DUP2 MSTORE PUSH1 0x20 ADD SWAP2 POP POP PUSH1 0x40 MLOAD DUP1 SWAP2 SUB SWAP1 RETURN JUMPDEST PUSH2 0x3F0 PUSH1 0x4 DUP1 CALLDATASIZE SUB PUSH1 0x20 DUP2 LT ISZERO PUSH2 0x3D4 JUMPI PUSH1 0x0 DUP1 REVERT JUMPDEST DUP2 ADD SWAP1 DUP1 DUP1 CALLDATALOAD PUSH4 0xFFFFFFFF AND SWAP1 PUSH1 0x20 ADD SWAP1 SWAP3 SWAP2 SWAP1 POP POP POP PUSH2 0xF8A JUMP JUMPDEST STOP JUMPDEST PUSH2 0x3FA PUSH2 0x10EC JUMP JUMPDEST PUSH1 0x40 MLOAD DUP1 DUP3 PUSH20 0xFFFFFFFFFFFFFFFFFFFFFFFFFFFFFFFFFFFFFFFF AND DUP2 MSTORE PUSH1 0x20 ADD SWAP2 POP POP PUSH1 0x40 MLOAD DUP1 SWAP2 SUB SWAP1 RETURN JUMPDEST PUSH2 0x42E PUSH2 0x1110 JUMP JUMPDEST PUSH1 0x40 MLOAD DUP1 DUP3 PUSH20 0xFFFFFFFFFFFFFFFFFFFFFFFFFFFFFFFFFFFFFFFF AND DUP2 MSTORE PUSH1 0x20 ADD SWAP2 POP POP PUSH1 0x40 MLOAD DUP1 SWAP2 SUB SWAP1 RETURN JUMPDEST PUSH2 0x462 PUSH2 0x1134 JUMP JUMPDEST PUSH1 0x40 MLOAD DUP1 DUP3 PUSH20 0xFFFFFFFFFFFFFFFFFFFFFFFFFFFFFFFFFFFFFFFF AND DUP2 MSTORE PUSH1 0x20 ADD SWAP2 POP POP PUSH1 0x40 MLOAD DUP1 SWAP2 SUB SWAP1 RETURN JUMPDEST PUSH2 0x4DF PUSH1 0x4 DUP1 CALLDATASIZE SUB PUSH1 0x40 DUP2 LT ISZERO PUSH2 0x4A4 JUMPI PUSH1 0x0 DUP1 REVERT JUMPDEST DUP2 ADD SWAP1 DUP1 DUP1 CALLDATALOAD PUSH20 0xFFFFFFFFFFFFFFFFFFFFFFFFFFFFFFFFFFFFFFFF AND SWAP1 PUSH1 0x20 ADD SWAP1 SWAP3 SWAP2 SWAP1 DUP1 CALLDATALOAD PUSH3 0xFFFFFF AND SWAP1 PUSH1 0x20 ADD SWAP1 SWAP3 SWAP2 SWAP1 POP POP POP PUSH2 0x1158 JUMP JUMPDEST STOP JUMPDEST PUSH2 0x4E9 PUSH2 0x1372 JUMP JUMPDEST PUSH1 0x40 MLOAD DUP1 DUP3 DUP2 MSTORE PUSH1 0x20 ADD SWAP2 POP POP PUSH1 0x40 MLOAD DUP1 SWAP2 SUB SWAP1 RETURN JUMPDEST PUSH2 0x507 PUSH2 0x1396 JUMP JUMPDEST PUSH1 0x40 MLOAD DUP1 DUP3 DUP2 MSTORE PUSH1 0x20 ADD SWAP2 POP POP PUSH1 0x40 MLOAD DUP1 SWAP2 SUB SWAP1 RETURN JUMPDEST PUSH2 0x525 PUSH2 0x13BA JUMP JUMPDEST PUSH1 0x40 MLOAD DUP1 DUP3 PUSH4 0xFFFFFFFF AND DUP2 MSTORE PUSH1 0x20 ADD SWAP2 POP POP PUSH1 0x40 MLOAD DUP1 SWAP2 SUB SWAP1 RETURN JUMPDEST PUSH32 0x0 DUP2 JUMP JUMPDEST PUSH1 0x1 PUSH1 0x20 MSTORE DUP1 PUSH1 0x0 MSTORE PUSH1 0x40 PUSH1 0x0 KECCAK256 PUSH1 0x0 SWAP2 POP SLOAD SWAP1 PUSH2 0x100 EXP SWAP1 DIV PUSH20 0xFFFFFFFFFFFFFFFFFFFFFFFFFFFFFFFFFFFFFFFF AND DUP2 JUMP JUMPDEST PUSH32 0xE965846DF3DD5B1DFA65F58E31477079E90140E0908B6DD31B5AEAD5A57CF365 DUP2 JUMP JUMPDEST PUSH1 0x0 DUP1 PUSH32 0x0 PUSH20 0xFFFFFFFFFFFFFFFFFFFFFFFFFFFFFFFFFFFFFFFF AND DUP4 PUSH20 0xFFFFFFFFFFFFFFFFFFFFFFFFFFFFFFFFFFFFFFFF AND EQ ISZERO PUSH2 0x802 JUMPI PUSH1 0x0 PUSH1 0x2 PUSH8 0xFFFFFFFFFFFFFFFF DUP2 GT DUP1 ISZERO PUSH2 0x62D JUMPI PUSH1 0x0 DUP1 REVERT JUMPDEST POP PUSH1 0x40 MLOAD SWAP1 DUP1 DUP3 MSTORE DUP1 PUSH1 0x20 MUL PUSH1 0x20 ADD DUP3 ADD PUSH1 0x40 MSTORE DUP1 ISZERO PUSH2 0x65C JUMPI DUP2 PUSH1 0x20 ADD PUSH1 0x20 DUP3 MUL DUP1 CALLDATASIZE DUP4 CALLDATACOPY DUP1 DUP3 ADD SWAP2 POP POP SWAP1 POP JUMPDEST POP SWAP1 POP PUSH32 0x0 DUP2 PUSH1 0x0 DUP2 MLOAD DUP2 LT PUSH2 0x68D JUMPI INVALID JUMPDEST PUSH1 0x20 MUL PUSH1 0x20 ADD ADD SWAP1 PUSH20 0xFFFFFFFFFFFFFFFFFFFFFFFFFFFFFFFFFFFFFFFF AND SWAP1 DUP2 PUSH20 0xFFFFFFFFFFFFFFFFFFFFFFFFFFFFFFFFFFFFFFFF AND DUP2 MSTORE POP POP PUSH32 0x0 DUP2 PUSH1 0x1 DUP2 MLOAD DUP2 LT PUSH2 0x6F5 JUMPI INVALID JUMPDEST PUSH1 0x20 MUL PUSH1 0x20 ADD ADD SWAP1 PUSH20 0xFFFFFFFFFFFFFFFFFFFFFFFFFFFFFFFFFFFFFFFF AND SWAP1 DUP2 PUSH20 0xFFFFFFFFFFFFFFFFFFFFFFFFFFFFFFFFFFFFFFFF AND DUP2 MSTORE POP POP PUSH1 0x0 PUSH1 0x1 PUSH8 0xFFFFFFFFFFFFFFFF DUP2 GT DUP1 ISZERO PUSH2 0x749 JUMPI PUSH1 0x0 DUP1 REVERT JUMPDEST POP PUSH1 0x40 MLOAD SWAP1 DUP1 DUP3 MSTORE DUP1 PUSH1 0x20 MUL PUSH1 0x20 ADD DUP3 ADD PUSH1 0x40 MSTORE DUP1 ISZERO PUSH2 0x778 JUMPI DUP2 PUSH1 0x20 ADD PUSH1 0x20 DUP3 MUL DUP1 CALLDATASIZE DUP4 CALLDATACOPY DUP1 DUP3 ADD SWAP2 POP POP SWAP1 POP JUMPDEST POP SWAP1 POP PUSH32 0x0 DUP2 PUSH1 0x0 DUP2 MLOAD DUP2 LT PUSH2 0x7A9 JUMPI INVALID JUMPDEST PUSH1 0x20 MUL PUSH1 0x20 ADD ADD SWAP1 PUSH20 0xFFFFFFFFFFFFFFFFFFFFFFFFFFFFFFFFFFFFFFFF AND SWAP1 DUP2 PUSH20 0xFFFFFFFFFFFFFFFFFFFFFFFFFFFFFFFFFFFFFFFF AND DUP2 MSTORE POP POP PUSH2 0x7F6 DUP3 DUP3 PUSH8 0xDE0B6B3A7640000 PUSH2 0xAEC JUMP JUMPDEST POP DUP1 SWAP4 POP POP POP POP PUSH2 0xADC JUMP JUMPDEST PUSH1 0x0 PUSH1 0x3 PUSH8 0xFFFFFFFFFFFFFFFF DUP2 GT DUP1 ISZERO PUSH2 0x81C JUMPI PUSH1 0x0 DUP1 REVERT JUMPDEST POP PUSH1 0x40 MLOAD SWAP1 DUP1 DUP3 MSTORE DUP1 PUSH1 0x20 MUL PUSH1 0x20 ADD DUP3 ADD PUSH1 0x40 MSTORE DUP1 ISZERO PUSH2 0x84B JUMPI DUP2 PUSH1 0x20 ADD PUSH1 0x20 DUP3 MUL DUP1 CALLDATASIZE DUP4 CALLDATACOPY DUP1 DUP3 ADD SWAP2 POP POP SWAP1 POP JUMPDEST POP SWAP1 POP DUP4 DUP2 PUSH1 0x0 DUP2 MLOAD DUP2 LT PUSH2 0x85C JUMPI INVALID JUMPDEST PUSH1 0x20 MUL PUSH1 0x20 ADD ADD SWAP1 PUSH20 0xFFFFFFFFFFFFFFFFFFFFFFFFFFFFFFFFFFFFFFFF AND SWAP1 DUP2 PUSH20 0xFFFFFFFFFFFFFFFFFFFFFFFFFFFFFFFFFFFFFFFF AND DUP2 MSTORE POP POP PUSH32 0x0 DUP2 PUSH1 0x1 DUP2 MLOAD DUP2 LT PUSH2 0x8C4 JUMPI INVALID JUMPDEST PUSH1 0x20 MUL PUSH1 0x20 ADD ADD SWAP1 PUSH20 0xFFFFFFFFFFFFFFFFFFFFFFFFFFFFFFFFFFFFFFFF AND SWAP1 DUP2 PUSH20 0xFFFFFFFFFFFFFFFFFFFFFFFFFFFFFFFFFFFFFFFF AND DUP2 MSTORE POP POP PUSH32 0x0 DUP2 PUSH1 0x2 DUP2 MLOAD DUP2 LT PUSH2 0x92C JUMPI INVALID JUMPDEST PUSH1 0x20 MUL PUSH1 0x20 ADD ADD SWAP1 PUSH20 0xFFFFFFFFFFFFFFFFFFFFFFFFFFFFFFFFFFFFFFFF AND SWAP1 DUP2 PUSH20 0xFFFFFFFFFFFFFFFFFFFFFFFFFFFFFFFFFFFFFFFF AND DUP2 MSTORE POP POP PUSH1 0x0 PUSH1 0x2 PUSH8 0xFFFFFFFFFFFFFFFF DUP2 GT DUP1 ISZERO PUSH2 0x980 JUMPI PUSH1 0x0 DUP1 REVERT JUMPDEST POP PUSH1 0x40 MLOAD SWAP1 DUP1 DUP3 MSTORE DUP1 PUSH1 0x20 MUL PUSH1 0x20 ADD DUP3 ADD PUSH1 0x40 MSTORE DUP1 ISZERO PUSH2 0x9AF JUMPI DUP2 PUSH1 0x20 ADD PUSH1 0x20 DUP3 MUL DUP1 CALLDATASIZE DUP4 CALLDATACOPY DUP1 DUP3 ADD SWAP2 POP POP SWAP1 POP JUMPDEST POP SWAP1 POP PUSH1 0x1 PUSH1 0x0 DUP7 PUSH20 0xFFFFFFFFFFFFFFFFFFFFFFFFFFFFFFFFFFFFFFFF AND PUSH20 0xFFFFFFFFFFFFFFFFFFFFFFFFFFFFFFFFFFFFFFFF AND DUP2 MSTORE PUSH1 0x20 ADD SWAP1 DUP2 MSTORE PUSH1 0x20 ADD PUSH1 0x0 KECCAK256 PUSH1 0x0 SWAP1 SLOAD SWAP1 PUSH2 0x100 EXP SWAP1 DIV PUSH20 0xFFFFFFFFFFFFFFFFFFFFFFFFFFFFFFFFFFFFFFFF AND DUP2 PUSH1 0x0 DUP2 MLOAD DUP2 LT PUSH2 0xA1F JUMPI INVALID JUMPDEST PUSH1 0x20 MUL PUSH1 0x20 ADD ADD SWAP1 PUSH20 0xFFFFFFFFFFFFFFFFFFFFFFFFFFFFFFFFFFFFFFFF AND SWAP1 DUP2 PUSH20 0xFFFFFFFFFFFFFFFFFFFFFFFFFFFFFFFFFFFFFFFF AND DUP2 MSTORE POP POP PUSH32 0x0 DUP2 PUSH1 0x1 DUP2 MLOAD DUP2 LT PUSH2 0xA87 JUMPI INVALID JUMPDEST PUSH1 0x20 MUL PUSH1 0x20 ADD ADD SWAP1 PUSH20 0xFFFFFFFFFFFFFFFFFFFFFFFFFFFFFFFFFFFFFFFF AND SWAP1 DUP2 PUSH20 0xFFFFFFFFFFFFFFFFFFFFFFFFFFFFFFFFFFFFFFFF AND DUP2 MSTORE POP POP PUSH2 0xAD4 DUP3 DUP3 PUSH8 0xDE0B6B3A7640000 PUSH2 0xAEC JUMP JUMPDEST POP DUP1 SWAP4 POP POP POP POP JUMPDEST PUSH5 0xE8D4A51000 DUP2 MUL SWAP2 POP POP SWAP2 SWAP1 POP JUMP JUMPDEST PUSH1 0x0 DUP1 PUSH1 0x0 DUP5 MLOAD SWAP1 POP PUSH1 0x0 DUP5 SWAP1 POP PUSH1 0x0 DUP1 PUSH1 0x0 SWAP1 POP JUMPDEST DUP4 DUP2 LT ISZERO PUSH2 0xEBE JUMPI PUSH1 0x0 DUP9 DUP3 DUP2 MLOAD DUP2 LT PUSH2 0xB18 JUMPI INVALID JUMPDEST PUSH1 0x20 MUL PUSH1 0x20 ADD ADD MLOAD SWAP1 POP PUSH1 0x0 DUP11 DUP4 DUP2 MLOAD DUP2 LT PUSH2 0xB30 JUMPI INVALID JUMPDEST PUSH1 0x20 MUL PUSH1 0x20 ADD ADD MLOAD SWAP1 POP PUSH1 0x0 DUP12 PUSH1 0x1 DUP6 ADD DUP2 MLOAD DUP2 LT PUSH2 0xB4B JUMPI INVALID JUMPDEST PUSH1 0x20 MUL PUSH1 0x20 ADD ADD MLOAD SWAP1 POP DUP2 PUSH20 0xFFFFFFFFFFFFFFFFFFFFFFFFFFFFFFFFFFFFFFFF AND DUP4 PUSH20 0xFFFFFFFFFFFFFFFFFFFFFFFFFFFFFFFFFFFFFFFF AND PUSH4 0xDFE1681 PUSH1 0x40 MLOAD DUP2 PUSH4 0xFFFFFFFF AND PUSH1 0xE0 SHL DUP2 MSTORE PUSH1 0x4 ADD PUSH1 0x20 PUSH1 0x40 MLOAD DUP1 DUP4 SUB DUP2 DUP7 DUP1 EXTCODESIZE ISZERO DUP1 ISZERO PUSH2 0xBB2 JUMPI PUSH1 0x0 DUP1 REVERT JUMPDEST POP GAS STATICCALL ISZERO DUP1 ISZERO PUSH2 0xBC6 JUMPI RETURNDATASIZE PUSH1 0x0 DUP1 RETURNDATACOPY RETURNDATASIZE PUSH1 0x0 REVERT JUMPDEST POP POP POP POP PUSH1 0x40 MLOAD RETURNDATASIZE PUSH1 0x20 DUP2 LT ISZERO PUSH2 0xBDC JUMPI PUSH1 0x0 DUP1 REVERT JUMPDEST DUP2 ADD SWAP1 DUP1 DUP1 MLOAD SWAP1 PUSH1 0x20 ADD SWAP1 SWAP3 SWAP2 SWAP1 POP POP POP PUSH20 0xFFFFFFFFFFFFFFFFFFFFFFFFFFFFFFFFFFFFFFFF AND EQ DUP1 ISZERO PUSH2 0xCBB JUMPI POP DUP1 PUSH20 0xFFFFFFFFFFFFFFFFFFFFFFFFFFFFFFFFFFFFFFFF AND DUP4 PUSH20 0xFFFFFFFFFFFFFFFFFFFFFFFFFFFFFFFFFFFFFFFF AND PUSH4 0xD21220A7 PUSH1 0x40 MLOAD DUP2 PUSH4 0xFFFFFFFF AND PUSH1 0xE0 SHL DUP2 MSTORE PUSH1 0x4 ADD PUSH1 0x20 PUSH1 0x40 MLOAD DUP1 DUP4 SUB DUP2 DUP7 DUP1 EXTCODESIZE ISZERO DUP1 ISZERO PUSH2 0xC68 JUMPI PUSH1 0x0 DUP1 REVERT JUMPDEST POP GAS STATICCALL ISZERO DUP1 ISZERO PUSH2 0xC7C JUMPI RETURNDATASIZE PUSH1 0x0 DUP1 RETURNDATACOPY RETURNDATASIZE PUSH1 0x0 REVERT JUMPDEST POP POP POP POP PUSH1 0x40 MLOAD RETURNDATASIZE PUSH1 0x20 DUP2 LT ISZERO PUSH2 0xC92 JUMPI PUSH1 0x0 DUP1 REVERT JUMPDEST DUP2 ADD SWAP1 DUP1 DUP1 MLOAD SWAP1 PUSH1 0x20 ADD SWAP1 SWAP3 SWAP2 SWAP1 POP POP POP PUSH20 0xFFFFFFFFFFFFFFFFFFFFFFFFFFFFFFFFFFFFFFFF AND EQ JUMPDEST DUP1 PUSH2 0xE28 JUMPI POP DUP1 PUSH20 0xFFFFFFFFFFFFFFFFFFFFFFFFFFFFFFFFFFFFFFFF AND DUP4 PUSH20 0xFFFFFFFFFFFFFFFFFFFFFFFFFFFFFFFFFFFFFFFF AND PUSH4 0xDFE1681 PUSH1 0x40 MLOAD DUP2 PUSH4 0xFFFFFFFF AND PUSH1 0xE0 SHL DUP2 MSTORE PUSH1 0x4 ADD PUSH1 0x20 PUSH1 0x40 MLOAD DUP1 DUP4 SUB DUP2 DUP7 DUP1 EXTCODESIZE ISZERO DUP1 ISZERO PUSH2 0xD1E JUMPI PUSH1 0x0 DUP1 REVERT JUMPDEST POP GAS STATICCALL ISZERO DUP1 ISZERO PUSH2 0xD32 JUMPI RETURNDATASIZE PUSH1 0x0 DUP1 RETURNDATACOPY RETURNDATASIZE PUSH1 0x0 REVERT JUMPDEST POP POP POP POP PUSH1 0x40 MLOAD RETURNDATASIZE PUSH1 0x20 DUP2 LT ISZERO PUSH2 0xD48 JUMPI PUSH1 0x0 DUP1 REVERT JUMPDEST DUP2 ADD SWAP1 DUP1 DUP1 MLOAD SWAP1 PUSH1 0x20 ADD SWAP1 SWAP3 SWAP2 SWAP1 POP POP POP PUSH20 0xFFFFFFFFFFFFFFFFFFFFFFFFFFFFFFFFFFFFFFFF AND EQ DUP1 ISZERO PUSH2 0xE27 JUMPI POP DUP2 PUSH20 0xFFFFFFFFFFFFFFFFFFFFFFFFFFFFFFFFFFFFFFFF AND DUP4 PUSH20 0xFFFFFFFFFFFFFFFFFFFFFFFFFFFFFFFFFFFFFFFF AND PUSH4 0xD21220A7 PUSH1 0x40 MLOAD DUP2 PUSH4 0xFFFFFFFF AND PUSH1 0xE0 SHL DUP2 MSTORE PUSH1 0x4 ADD PUSH1 0x20 PUSH1 0x40 MLOAD DUP1 DUP4 SUB DUP2 DUP7 DUP1 EXTCODESIZE ISZERO DUP1 ISZERO PUSH2 0xDD4 JUMPI PUSH1 0x0 DUP1 REVERT JUMPDEST POP GAS STATICCALL ISZERO DUP1 ISZERO PUSH2 0xDE8 JUMPI RETURNDATASIZE PUSH1 0x0 DUP1 RETURNDATACOPY RETURNDATASIZE PUSH1 0x0 REVERT JUMPDEST POP POP POP POP PUSH1 0x40 MLOAD RETURNDATASIZE PUSH1 0x20 DUP2 LT ISZERO PUSH2 0xDFE JUMPI PUSH1 0x0 DUP1 REVERT JUMPDEST DUP2 ADD SWAP1 DUP1 DUP1 MLOAD SWAP1 PUSH1 0x20 ADD SWAP1 SWAP3 SWAP2 SWAP1 POP POP POP PUSH20 0xFFFFFFFFFFFFFFFFFFFFFFFFFFFFFFFFFFFFFFFF AND EQ JUMPDEST JUMPDEST PUSH2 0xE7D JUMPI PUSH1 0x40 MLOAD PUSH32 0x8C379A000000000000000000000000000000000000000000000000000000000 DUP2 MSTORE PUSH1 0x4 ADD DUP1 DUP1 PUSH1 0x20 ADD DUP3 DUP2 SUB DUP3 MSTORE PUSH1 0x3B DUP2 MSTORE PUSH1 0x20 ADD DUP1 PUSH2 0x219D PUSH1 0x3B SWAP2 CODECOPY PUSH1 0x40 ADD SWAP2 POP POP PUSH1 0x40 MLOAD DUP1 SWAP2 SUB SWAP1 REVERT JUMPDEST PUSH1 0x0 PUSH2 0xE99 DUP5 PUSH1 0x0 DUP1 SLOAD SWAP1 PUSH2 0x100 EXP SWAP1 DIV PUSH4 0xFFFFFFFF AND PUSH2 0x15C5 JUMP JUMPDEST POP SWAP1 POP PUSH2 0xEA8 DUP2 DUP9 DUP6 DUP6 PUSH2 0x1A32 JUMP JUMPDEST SWAP6 POP DUP6 SWAP7 POP POP POP POP POP DUP1 DUP1 PUSH1 0x1 ADD SWAP2 POP POP PUSH2 0xB02 JUMP JUMPDEST POP DUP1 SWAP5 POP DUP8 DUP4 DUP2 MLOAD DUP2 LT PUSH2 0xECE JUMPI INVALID JUMPDEST PUSH1 0x20 MUL PUSH1 0x20 ADD ADD MLOAD PUSH20 0xFFFFFFFFFFFFFFFFFFFFFFFFFFFFFFFFFFFFFFFF AND PUSH4 0x313CE567 PUSH1 0x40 MLOAD DUP2 PUSH4 0xFFFFFFFF AND PUSH1 0xE0 SHL DUP2 MSTORE PUSH1 0x4 ADD PUSH1 0x20 PUSH1 0x40 MLOAD DUP1 DUP4 SUB DUP2 DUP7 DUP1 EXTCODESIZE ISZERO DUP1 ISZERO PUSH2 0xF1B JUMPI PUSH1 0x0 DUP1 REVERT JUMPDEST POP GAS STATICCALL ISZERO DUP1 ISZERO PUSH2 0xF2F JUMPI RETURNDATASIZE PUSH1 0x0 DUP1 RETURNDATACOPY RETURNDATASIZE PUSH1 0x0 REVERT JUMPDEST POP POP POP POP PUSH1 0x40 MLOAD RETURNDATASIZE PUSH1 0x20 DUP2 LT ISZERO PUSH2 0xF45 JUMPI PUSH1 0x0 DUP1 REVERT JUMPDEST DUP2 ADD SWAP1 DUP1 DUP1 MLOAD SWAP1 PUSH1 0x20 ADD SWAP1 SWAP3 SWAP2 SWAP1 POP POP POP PUSH1 0xFF AND SWAP4 POP POP POP POP SWAP4 POP SWAP4 SWAP2 POP POP JUMP JUMPDEST PUSH32 0x0 DUP2 JUMP JUMPDEST PUSH32 0x0 PUSH20 0xFFFFFFFFFFFFFFFFFFFFFFFFFFFFFFFFFFFFFFFF AND PUSH4 0x91D14854 PUSH1 0x0 DUP1 SHL CALLER PUSH1 0x40 MLOAD DUP4 PUSH4 0xFFFFFFFF AND PUSH1 0xE0 SHL DUP2 MSTORE PUSH1 0x4 ADD DUP1 DUP4 DUP2 MSTORE PUSH1 0x20 ADD DUP3 PUSH20 0xFFFFFFFFFFFFFFFFFFFFFFFFFFFFFFFFFFFFFFFF AND DUP2 MSTORE PUSH1 0x20 ADD SWAP3 POP POP POP PUSH1 0x20 PUSH1 0x40 MLOAD DUP1 DUP4 SUB DUP2 DUP7 DUP1 EXTCODESIZE ISZERO DUP1 ISZERO PUSH2 0x101C JUMPI PUSH1 0x0 DUP1 REVERT JUMPDEST POP GAS STATICCALL ISZERO DUP1 ISZERO PUSH2 0x1030 JUMPI RETURNDATASIZE PUSH1 0x0 DUP1 RETURNDATACOPY RETURNDATASIZE PUSH1 0x0 REVERT JUMPDEST POP POP POP POP PUSH1 0x40 MLOAD RETURNDATASIZE PUSH1 0x20 DUP2 LT ISZERO PUSH2 0x1046 JUMPI PUSH1 0x0 DUP1 REVERT JUMPDEST DUP2 ADD SWAP1 DUP1 DUP1 MLOAD SWAP1 PUSH1 0x20 ADD SWAP1 SWAP3 SWAP2 SWAP1 POP POP POP PUSH2 0x10C9 JUMPI PUSH1 0x40 MLOAD PUSH32 0x8C379A000000000000000000000000000000000000000000000000000000000 DUP2 MSTORE PUSH1 0x4 ADD DUP1 DUP1 PUSH1 0x20 ADD DUP3 DUP2 SUB DUP3 MSTORE PUSH1 0x1D DUP2 MSTORE PUSH1 0x20 ADD DUP1 PUSH32 0x5375417574683A206F6E6C794F776E657220415554485F4641494C4544000000 DUP2 MSTORE POP PUSH1 0x20 ADD SWAP2 POP POP PUSH1 0x40 MLOAD DUP1 SWAP2 SUB SWAP1 REVERT JUMPDEST DUP1 PUSH1 0x0 DUP1 PUSH2 0x100 EXP DUP2 SLOAD DUP2 PUSH4 0xFFFFFFFF MUL NOT AND SWAP1 DUP4 PUSH4 0xFFFFFFFF AND MUL OR SWAP1 SSTORE POP POP JUMP JUMPDEST PUSH32 0x0 DUP2 JUMP JUMPDEST PUSH32 0x0 DUP2 JUMP JUMPDEST PUSH32 0x0 DUP2 JUMP JUMPDEST PUSH32 0x0 PUSH20 0xFFFFFFFFFFFFFFFFFFFFFFFFFFFFFFFFFFFFFFFF AND PUSH4 0x91D14854 PUSH1 0x0 DUP1 SHL CALLER PUSH1 0x40 MLOAD DUP4 PUSH4 0xFFFFFFFF AND PUSH1 0xE0 SHL DUP2 MSTORE PUSH1 0x4 ADD DUP1 DUP4 DUP2 MSTORE PUSH1 0x20 ADD DUP3 PUSH20 0xFFFFFFFFFFFFFFFFFFFFFFFFFFFFFFFFFFFFFFFF AND DUP2 MSTORE PUSH1 0x20 ADD SWAP3 POP POP POP PUSH1 0x20 PUSH1 0x40 MLOAD DUP1 DUP4 SUB DUP2 DUP7 DUP1 EXTCODESIZE ISZERO DUP1 ISZERO PUSH2 0x11EA JUMPI PUSH1 0x0 DUP1 REVERT JUMPDEST POP GAS STATICCALL ISZERO DUP1 ISZERO PUSH2 0x11FE JUMPI RETURNDATASIZE PUSH1 0x0 DUP1 RETURNDATACOPY RETURNDATASIZE PUSH1 0x0 REVERT JUMPDEST POP POP POP POP PUSH1 0x40 MLOAD RETURNDATASIZE PUSH1 0x20 DUP2 LT ISZERO PUSH2 0x1214 JUMPI PUSH1 0x0 DUP1 REVERT JUMPDEST DUP2 ADD SWAP1 DUP1 DUP1 MLOAD SWAP1 PUSH1 0x20 ADD SWAP1 SWAP3 SWAP2 SWAP1 POP POP POP PUSH2 0x1297 JUMPI PUSH1 0x40 MLOAD PUSH32 0x8C379A000000000000000000000000000000000000000000000000000000000 DUP2 MSTORE PUSH1 0x4 ADD DUP1 DUP1 PUSH1 0x20 ADD DUP3 DUP2 SUB DUP3 MSTORE PUSH1 0x1D DUP2 MSTORE PUSH1 0x20 ADD DUP1 PUSH32 0x5375417574683A206F6E6C794F776E657220415554485F4641494C4544000000 DUP2 MSTORE POP PUSH1 0x20 ADD SWAP2 POP POP PUSH1 0x40 MLOAD DUP1 SWAP2 SUB SWAP1 REVERT JUMPDEST PUSH1 0x0 PUSH2 0x12ED PUSH32 0x0 PUSH2 0x12E8 PUSH32 0x0 DUP7 DUP7 PUSH2 0x13CE JUMP JUMPDEST PUSH2 0x146A JUMP JUMPDEST SWAP1 POP DUP1 PUSH1 0x1 PUSH1 0x0 DUP6 PUSH20 0xFFFFFFFFFFFFFFFFFFFFFFFFFFFFFFFFFFFFFFFF AND PUSH20 0xFFFFFFFFFFFFFFFFFFFFFFFFFFFFFFFFFFFFFFFF AND DUP2 MSTORE PUSH1 0x20 ADD SWAP1 DUP2 MSTORE PUSH1 0x20 ADD PUSH1 0x0 KECCAK256 PUSH1 0x0 PUSH2 0x100 EXP DUP2 SLOAD DUP2 PUSH20 0xFFFFFFFFFFFFFFFFFFFFFFFFFFFFFFFFFFFFFFFF MUL NOT AND SWAP1 DUP4 PUSH20 0xFFFFFFFFFFFFFFFFFFFFFFFFFFFFFFFFFFFFFFFF AND MUL OR SWAP1 SSTORE POP POP POP POP JUMP JUMPDEST PUSH32 0x9F2DF0FED2C77648DE5860A4CC508CD0818C85B8B8A1AB4CEEEF8D981C8956A6 DUP2 JUMP JUMPDEST PUSH32 0x9A9AEF7C1247D5FC769B0185C052913E39673DA29A880317DFD20EBF86F26A49 DUP2 JUMP JUMPDEST PUSH1 0x0 DUP1 SLOAD SWAP1 PUSH2 0x100 EXP SWAP1 DIV PUSH4 0xFFFFFFFF AND DUP2 JUMP JUMPDEST PUSH2 0x13D6 PUSH2 0x214A JUMP JUMPDEST DUP3 PUSH20 0xFFFFFFFFFFFFFFFFFFFFFFFFFFFFFFFFFFFFFFFF AND DUP5 PUSH20 0xFFFFFFFFFFFFFFFFFFFFFFFFFFFFFFFFFFFFFFFF AND GT ISZERO PUSH2 0x1415 JUMPI DUP3 DUP5 DUP1 SWAP5 POP DUP2 SWAP6 POP POP POP JUMPDEST PUSH1 0x40 MLOAD DUP1 PUSH1 0x60 ADD PUSH1 0x40 MSTORE DUP1 DUP6 PUSH20 0xFFFFFFFFFFFFFFFFFFFFFFFFFFFFFFFFFFFFFFFF AND DUP2 MSTORE PUSH1 0x20 ADD DUP5 PUSH20 0xFFFFFFFFFFFFFFFFFFFFFFFFFFFFFFFFFFFFFFFF AND DUP2 MSTORE PUSH1 0x20 ADD DUP4 PUSH3 0xFFFFFF AND DUP2 MSTORE POP SWAP1 POP SWAP4 SWAP3 POP POP POP JUMP JUMPDEST PUSH1 0x0 DUP2 PUSH1 0x20 ADD MLOAD PUSH20 0xFFFFFFFFFFFFFFFFFFFFFFFFFFFFFFFFFFFFFFFF AND DUP3 PUSH1 0x0 ADD MLOAD PUSH20 0xFFFFFFFFFFFFFFFFFFFFFFFFFFFFFFFFFFFFFFFF AND LT PUSH2 0x14AC JUMPI PUSH1 0x0 DUP1 REVERT JUMPDEST DUP3 DUP3 PUSH1 0x0 ADD MLOAD DUP4 PUSH1 0x20 ADD MLOAD DUP5 PUSH1 0x40 ADD MLOAD PUSH1 0x40 MLOAD PUSH1 0x20 ADD DUP1 DUP5 PUSH20 0xFFFFFFFFFFFFFFFFFFFFFFFFFFFFFFFFFFFFFFFF AND DUP2 MSTORE PUSH1 0x20 ADD DUP4 PUSH20 0xFFFFFFFFFFFFFFFFFFFFFFFFFFFFFFFFFFFFFFFF AND DUP2 MSTORE PUSH1 0x20 ADD DUP3 PUSH3 0xFFFFFF AND DUP2 MSTORE PUSH1 0x20 ADD SWAP4 POP POP POP POP PUSH1 0x40 MLOAD PUSH1 0x20 DUP2 DUP4 SUB SUB DUP2 MSTORE SWAP1 PUSH1 0x40 MSTORE DUP1 MLOAD SWAP1 PUSH1 0x20 ADD KECCAK256 PUSH32 0xE34F199B19B2B4F47F68442619D555527D244F78A3297EA89325F843F87B8B54 PUSH1 0x0 SHL PUSH1 0x40 MLOAD PUSH1 0x20 ADD DUP1 DUP1 PUSH32 0xFF00000000000000000000000000000000000000000000000000000000000000 DUP2 MSTORE POP PUSH1 0x1 ADD DUP5 PUSH20 0xFFFFFFFFFFFFFFFFFFFFFFFFFFFFFFFFFFFFFFFF AND PUSH1 0x60 SHL DUP2 MSTORE PUSH1 0x14 ADD DUP4 DUP2 MSTORE PUSH1 0x20 ADD DUP3 DUP2 MSTORE PUSH1 0x20 ADD SWAP4 POP POP POP POP PUSH1 0x40 MLOAD PUSH1 0x20 DUP2 DUP4 SUB SUB DUP2 MSTORE SWAP1 PUSH1 0x40 MSTORE DUP1 MLOAD SWAP1 PUSH1 0x20 ADD KECCAK256 PUSH1 0x0 SHR SWAP1 POP SWAP3 SWAP2 POP POP JUMP JUMPDEST PUSH1 0x0 DUP1 PUSH1 0x0 DUP4 PUSH4 0xFFFFFFFF AND EQ ISZERO PUSH2 0x1645 JUMPI PUSH1 0x40 MLOAD PUSH32 0x8C379A000000000000000000000000000000000000000000000000000000000 DUP2 MSTORE PUSH1 0x4 ADD DUP1 DUP1 PUSH1 0x20 ADD DUP3 DUP2 SUB DUP3 MSTORE PUSH1 0x2 DUP2 MSTORE PUSH1 0x20 ADD DUP1 PUSH32 0x4250000000000000000000000000000000000000000000000000000000000000 DUP2 MSTORE POP PUSH1 0x20 ADD SWAP2 POP POP PUSH1 0x40 MLOAD DUP1 SWAP2 SUB SWAP1 REVERT JUMPDEST PUSH1 0x0 PUSH1 0x2 PUSH8 0xFFFFFFFFFFFFFFFF DUP2 GT DUP1 ISZERO PUSH2 0x165F JUMPI PUSH1 0x0 DUP1 REVERT JUMPDEST POP PUSH1 0x40 MLOAD SWAP1 DUP1 DUP3 MSTORE DUP1 PUSH1 0x20 MUL PUSH1 0x20 ADD DUP3 ADD PUSH1 0x40 MSTORE DUP1 ISZERO PUSH2 0x168E JUMPI DUP2 PUSH1 0x20 ADD PUSH1 0x20 DUP3 MUL DUP1 CALLDATASIZE DUP4 CALLDATACOPY DUP1 DUP3 ADD SWAP2 POP POP SWAP1 POP JUMPDEST POP SWAP1 POP DUP4 DUP2 PUSH1 0x0 DUP2 MLOAD DUP2 LT PUSH2 0x169F JUMPI INVALID JUMPDEST PUSH1 0x20 MUL PUSH1 0x20 ADD ADD SWAP1 PUSH4 0xFFFFFFFF AND SWAP1 DUP2 PUSH4 0xFFFFFFFF AND DUP2 MSTORE POP POP PUSH1 0x0 DUP2 PUSH1 0x1 DUP2 MLOAD DUP2 LT PUSH2 0x16C8 JUMPI INVALID JUMPDEST PUSH1 0x20 MUL PUSH1 0x20 ADD ADD SWAP1 PUSH4 0xFFFFFFFF AND SWAP1 DUP2 PUSH4 0xFFFFFFFF AND DUP2 MSTORE POP POP PUSH1 0x0 DUP1 DUP7 PUSH20 0xFFFFFFFFFFFFFFFFFFFFFFFFFFFFFFFFFFFFFFFF AND PUSH4 0x883BDBFD DUP5 PUSH1 0x40 MLOAD DUP3 PUSH4 0xFFFFFFFF AND PUSH1 0xE0 SHL DUP2 MSTORE PUSH1 0x4 ADD DUP1 DUP1 PUSH1 0x20 ADD DUP3 DUP2 SUB DUP3 MSTORE DUP4 DUP2 DUP2 MLOAD DUP2 MSTORE PUSH1 0x20 ADD SWAP2 POP DUP1 MLOAD SWAP1 PUSH1 0x20 ADD SWAP1 PUSH1 0x20 MUL DUP1 DUP4 DUP4 PUSH1 0x0 JUMPDEST DUP4 DUP2 LT ISZERO PUSH2 0x1754 JUMPI DUP1 DUP3 ADD MLOAD DUP2 DUP5 ADD MSTORE PUSH1 0x20 DUP2 ADD SWAP1 POP PUSH2 0x1739 JUMP JUMPDEST POP POP POP POP SWAP1 POP ADD SWAP3 POP POP POP PUSH1 0x0 PUSH1 0x40 MLOAD DUP1 DUP4 SUB DUP2 DUP7 DUP1 EXTCODESIZE ISZERO DUP1 ISZERO PUSH2 0x1777 JUMPI PUSH1 0x0 DUP1 REVERT JUMPDEST POP GAS STATICCALL ISZERO DUP1 ISZERO PUSH2 0x178B JUMPI RETURNDATASIZE PUSH1 0x0 DUP1 RETURNDATACOPY RETURNDATASIZE PUSH1 0x0 REVERT JUMPDEST POP POP POP POP PUSH1 0x40 MLOAD RETURNDATASIZE PUSH1 0x0 DUP3 RETURNDATACOPY RETURNDATASIZE PUSH1 0x1F NOT PUSH1 0x1F DUP3 ADD AND DUP3 ADD DUP1 PUSH1 0x40 MSTORE POP PUSH1 0x40 DUP2 LT ISZERO PUSH2 0x17B5 JUMPI PUSH1 0x0 DUP1 REVERT JUMPDEST DUP2 ADD SWAP1 DUP1 DUP1 MLOAD PUSH1 0x40 MLOAD SWAP4 SWAP3 SWAP2 SWAP1 DUP5 PUSH5 0x100000000 DUP3 GT ISZERO PUSH2 0x17D5 JUMPI PUSH1 0x0 DUP1 REVERT JUMPDEST DUP4 DUP3 ADD SWAP2 POP PUSH1 0x20 DUP3 ADD DUP6 DUP2 GT ISZERO PUSH2 0x17EB JUMPI PUSH1 0x0 DUP1 REVERT JUMPDEST DUP3 MLOAD DUP7 PUSH1 0x20 DUP3 MUL DUP4 ADD GT PUSH5 0x100000000 DUP3 GT OR ISZERO PUSH2 0x1808 JUMPI PUSH1 0x0 DUP1 REVERT JUMPDEST DUP1 DUP4 MSTORE PUSH1 0x20 DUP4 ADD SWAP3 POP POP POP SWAP1 DUP1 MLOAD SWAP1 PUSH1 0x20 ADD SWAP1 PUSH1 0x20 MUL DUP1 DUP4 DUP4 PUSH1 0x0 JUMPDEST DUP4 DUP2 LT ISZERO PUSH2 0x183F JUMPI DUP1 DUP3 ADD MLOAD DUP2 DUP5 ADD MSTORE PUSH1 0x20 DUP2 ADD SWAP1 POP PUSH2 0x1824 JUMP JUMPDEST POP POP POP POP SWAP1 POP ADD PUSH1 0x40 MSTORE PUSH1 0x20 ADD DUP1 MLOAD PUSH1 0x40 MLOAD SWAP4 SWAP3 SWAP2 SWAP1 DUP5 PUSH5 0x100000000 DUP3 GT ISZERO PUSH2 0x1868 JUMPI PUSH1 0x0 DUP1 REVERT JUMPDEST DUP4 DUP3 ADD SWAP2 POP PUSH1 0x20 DUP3 ADD DUP6 DUP2 GT ISZERO PUSH2 0x187E JUMPI PUSH1 0x0 DUP1 REVERT JUMPDEST DUP3 MLOAD DUP7 PUSH1 0x20 DUP3 MUL DUP4 ADD GT PUSH5 0x100000000 DUP3 GT OR ISZERO PUSH2 0x189B JUMPI PUSH1 0x0 DUP1 REVERT JUMPDEST DUP1 DUP4 MSTORE PUSH1 0x20 DUP4 ADD SWAP3 POP POP POP SWAP1 DUP1 MLOAD SWAP1 PUSH1 0x20 ADD SWAP1 PUSH1 0x20 MUL DUP1 DUP4 DUP4 PUSH1 0x0 JUMPDEST DUP4 DUP2 LT ISZERO PUSH2 0x18D2 JUMPI DUP1 DUP3 ADD MLOAD DUP2 DUP5 ADD MSTORE PUSH1 0x20 DUP2 ADD SWAP1 POP PUSH2 0x18B7 JUMP JUMPDEST POP POP POP POP SWAP1 POP ADD PUSH1 0x40 MSTORE POP POP POP SWAP2 POP SWAP2 POP PUSH1 0x0 DUP3 PUSH1 0x0 DUP2 MLOAD DUP2 LT PUSH2 0x18F2 JUMPI INVALID JUMPDEST PUSH1 0x20 MUL PUSH1 0x20 ADD ADD MLOAD DUP4 PUSH1 0x1 DUP2 MLOAD DUP2 LT PUSH2 0x1907 JUMPI INVALID JUMPDEST PUSH1 0x20 MUL PUSH1 0x20 ADD ADD MLOAD SUB SWAP1 POP PUSH1 0x0 DUP3 PUSH1 0x0 DUP2 MLOAD DUP2 LT PUSH2 0x1921 JUMPI INVALID JUMPDEST PUSH1 0x20 MUL PUSH1 0x20 ADD ADD MLOAD DUP4 PUSH1 0x1 DUP2 MLOAD DUP2 LT PUSH2 0x1936 JUMPI INVALID JUMPDEST PUSH1 0x20 MUL PUSH1 0x20 ADD ADD MLOAD SUB SWAP1 POP DUP8 PUSH4 0xFFFFFFFF AND DUP3 PUSH1 0x6 SIGNEXTEND DUP2 PUSH2 0x1953 JUMPI INVALID JUMPDEST SDIV SWAP7 POP PUSH1 0x0 DUP3 PUSH1 0x6 SIGNEXTEND SLT DUP1 ISZERO PUSH2 0x197F JUMPI POP PUSH1 0x0 DUP9 PUSH4 0xFFFFFFFF AND DUP4 PUSH1 0x6 SIGNEXTEND DUP2 PUSH2 0x1978 JUMPI INVALID JUMPDEST SMOD PUSH1 0x6 SIGNEXTEND EQ ISZERO JUMPDEST ISZERO PUSH2 0x198E JUMPI DUP7 DUP1 PUSH1 0x1 SWAP1 SUB SWAP8 POP POP JUMPDEST PUSH1 0x0 PUSH20 0xFFFFFFFFFFFFFFFFFFFFFFFFFFFFFFFFFFFFFFFF DUP1 AND DUP10 PUSH4 0xFFFFFFFF AND MUL SWAP1 POP PUSH1 0x20 DUP3 PUSH20 0xFFFFFFFFFFFFFFFFFFFFFFFFFFFFFFFFFFFFFFFF AND PUSH24 0xFFFFFFFFFFFFFFFFFFFFFFFFFFFFFFFFFFFFFFFFFFFFFFFF AND SWAP1 SHL PUSH24 0xFFFFFFFFFFFFFFFFFFFFFFFFFFFFFFFFFFFFFFFFFFFFFFFF AND DUP2 PUSH24 0xFFFFFFFFFFFFFFFFFFFFFFFFFFFFFFFFFFFFFFFFFFFFFFFF AND DUP2 PUSH2 0x1A22 JUMPI INVALID JUMPDEST DIV SWAP7 POP POP POP POP POP POP POP SWAP3 POP SWAP3 SWAP1 POP JUMP JUMPDEST PUSH1 0x0 DUP1 PUSH2 0x1A3E DUP7 PUSH2 0x1C35 JUMP JUMPDEST SWAP1 POP PUSH16 0xFFFFFFFFFFFFFFFFFFFFFFFFFFFFFFFF DUP1 AND DUP2 PUSH20 0xFFFFFFFFFFFFFFFFFFFFFFFFFFFFFFFFFFFFFFFF AND GT PUSH2 0x1B4F JUMPI PUSH1 0x0 DUP2 PUSH20 0xFFFFFFFFFFFFFFFFFFFFFFFFFFFFFFFFFFFFFFFF AND DUP3 PUSH20 0xFFFFFFFFFFFFFFFFFFFFFFFFFFFFFFFFFFFFFFFF AND MUL SWAP1 POP DUP4 PUSH20 0xFFFFFFFFFFFFFFFFFFFFFFFFFFFFFFFFFFFFFFFF AND DUP6 PUSH20 0xFFFFFFFFFFFFFFFFFFFFFFFFFFFFFFFFFFFFFFFF AND LT PUSH2 0x1B10 JUMPI PUSH2 0x1B0B PUSH25 0x1000000000000000000000000000000000000000000000000 DUP8 PUSH16 0xFFFFFFFFFFFFFFFFFFFFFFFFFFFFFFFF AND DUP4 PUSH2 0x2070 JUMP JUMPDEST PUSH2 0x1B47 JUMP JUMPDEST PUSH2 0x1B46 DUP2 DUP8 PUSH16 0xFFFFFFFFFFFFFFFFFFFFFFFFFFFFFFFF AND PUSH25 0x1000000000000000000000000000000000000000000000000 PUSH2 0x2070 JUMP JUMPDEST JUMPDEST SWAP3 POP POP PUSH2 0x1C2C JUMP JUMPDEST PUSH1 0x0 PUSH2 0x1B91 DUP3 PUSH20 0xFFFFFFFFFFFFFFFFFFFFFFFFFFFFFFFFFFFFFFFF AND DUP4 PUSH20 0xFFFFFFFFFFFFFFFFFFFFFFFFFFFFFFFFFFFFFFFF AND PUSH9 0x10000000000000000 PUSH2 0x2070 JUMP JUMPDEST SWAP1 POP DUP4 PUSH20 0xFFFFFFFFFFFFFFFFFFFFFFFFFFFFFFFFFFFFFFFF AND DUP6 PUSH20 0xFFFFFFFFFFFFFFFFFFFFFFFFFFFFFFFFFFFFFFFF AND LT PUSH2 0x1BF9 JUMPI PUSH2 0x1BF4 PUSH17 0x100000000000000000000000000000000 DUP8 PUSH16 0xFFFFFFFFFFFFFFFFFFFFFFFFFFFFFFFF AND DUP4 PUSH2 0x2070 JUMP JUMPDEST PUSH2 0x1C28 JUMP JUMPDEST PUSH2 0x1C27 DUP2 DUP8 PUSH16 0xFFFFFFFFFFFFFFFFFFFFFFFFFFFFFFFF AND PUSH17 0x100000000000000000000000000000000 PUSH2 0x2070 JUMP JUMPDEST JUMPDEST SWAP3 POP POP JUMPDEST POP SWAP5 SWAP4 POP POP POP POP JUMP JUMPDEST PUSH1 0x0 DUP1 PUSH1 0x0 DUP4 PUSH1 0x2 SIGNEXTEND SLT PUSH2 0x1C4C JUMPI DUP3 PUSH1 0x2 SIGNEXTEND PUSH2 0x1C54 JUMP JUMPDEST DUP3 PUSH1 0x2 SIGNEXTEND PUSH1 0x0 SUB JUMPDEST SWAP1 POP PUSH32 0xFFFFFFFFFFFFFFFFFFFFFFFFFFFFFFFFFFFFFFFFFFFFFFFFFFFFFFFFFFF27618 PUSH1 0x0 SUB PUSH1 0x2 SIGNEXTEND DUP2 GT ISZERO PUSH2 0x1CF2 JUMPI PUSH1 0x40 MLOAD PUSH32 0x8C379A000000000000000000000000000000000000000000000000000000000 DUP2 MSTORE PUSH1 0x4 ADD DUP1 DUP1 PUSH1 0x20 ADD DUP3 DUP2 SUB DUP3 MSTORE PUSH1 0x1 DUP2 MSTORE PUSH1 0x20 ADD DUP1 PUSH32 0x5400000000000000000000000000000000000000000000000000000000000000 DUP2 MSTORE POP PUSH1 0x20 ADD SWAP2 POP POP PUSH1 0x40 MLOAD DUP1 SWAP2 SUB SWAP1 REVERT JUMPDEST PUSH1 0x0 DUP1 PUSH1 0x1 DUP4 AND EQ ISZERO PUSH2 0x1D16 JUMPI PUSH17 0x100000000000000000000000000000000 PUSH2 0x1D28 JUMP JUMPDEST PUSH16 0xFFFCB933BD6FAD37AA2D162D1A594001 JUMPDEST PUSH17 0xFFFFFFFFFFFFFFFFFFFFFFFFFFFFFFFFFF AND SWAP1 POP PUSH1 0x0 PUSH1 0x2 DUP4 AND EQ PUSH2 0x1D62 JUMPI PUSH1 0x80 PUSH16 0xFFF97272373D413259A46990580E213A DUP3 MUL SWAP1 SHR SWAP1 POP JUMPDEST PUSH1 0x0 PUSH1 0x4 DUP4 AND EQ PUSH2 0x1D87 JUMPI PUSH1 0x80 PUSH16 0xFFF2E50F5F656932EF12357CF3C7FDCC DUP3 MUL SWAP1 SHR SWAP1 POP JUMPDEST PUSH1 0x0 PUSH1 0x8 DUP4 AND EQ PUSH2 0x1DAC JUMPI PUSH1 0x80 PUSH16 0xFFE5CACA7E10E4E61C3624EAA0941CD0 DUP3 MUL SWAP1 SHR SWAP1 POP JUMPDEST PUSH1 0x0 PUSH1 0x10 DUP4 AND EQ PUSH2 0x1DD1 JUMPI PUSH1 0x80 PUSH16 0xFFCB9843D60F6159C9DB58835C926644 DUP3 MUL SWAP1 SHR SWAP1 POP JUMPDEST PUSH1 0x0 PUSH1 0x20 DUP4 AND EQ PUSH2 0x1DF6 JUMPI PUSH1 0x80 PUSH16 0xFF973B41FA98C081472E6896DFB254C0 DUP3 MUL SWAP1 SHR SWAP1 POP JUMPDEST PUSH1 0x0 PUSH1 0x40 DUP4 AND EQ PUSH2 0x1E1B JUMPI PUSH1 0x80 PUSH16 0xFF2EA16466C96A3843EC78B326B52861 DUP3 MUL SWAP1 SHR SWAP1 POP JUMPDEST PUSH1 0x0 PUSH1 0x80 DUP4 AND EQ PUSH2 0x1E40 JUMPI PUSH1 0x80 PUSH16 0xFE5DEE046A99A2A811C461F1969C3053 DUP3 MUL SWAP1 SHR SWAP1 POP JUMPDEST PUSH1 0x0 PUSH2 0x100 DUP4 AND EQ PUSH2 0x1E66 JUMPI PUSH1 0x80 PUSH16 0xFCBE86C7900A88AEDCFFC83B479AA3A4 DUP3 MUL SWAP1 SHR SWAP1 POP JUMPDEST PUSH1 0x0 PUSH2 0x200 DUP4 AND EQ PUSH2 0x1E8C JUMPI PUSH1 0x80 PUSH16 0xF987A7253AC413176F2B074CF7815E54 DUP3 MUL SWAP1 SHR SWAP1 POP JUMPDEST PUSH1 0x0 PUSH2 0x400 DUP4 AND EQ PUSH2 0x1EB2 JUMPI PUSH1 0x80 PUSH16 0xF3392B0822B70005940C7A398E4B70F3 DUP3 MUL SWAP1 SHR SWAP1 POP JUMPDEST PUSH1 0x0 PUSH2 0x800 DUP4 AND EQ PUSH2 0x1ED8 JUMPI PUSH1 0x80 PUSH16 0xE7159475A2C29B7443B29C7FA6E889D9 DUP3 MUL SWAP1 SHR SWAP1 POP JUMPDEST PUSH1 0x0 PUSH2 0x1000 DUP4 AND EQ PUSH2 0x1EFE JUMPI PUSH1 0x80 PUSH16 0xD097F3BDFD2022B8845AD8F792AA5825 DUP3 MUL SWAP1 SHR SWAP1 POP JUMPDEST PUSH1 0x0 PUSH2 0x2000 DUP4 AND EQ PUSH2 0x1F24 JUMPI PUSH1 0x80 PUSH16 0xA9F746462D870FDF8A65DC1F90E061E5 DUP3 MUL SWAP1 SHR SWAP1 POP JUMPDEST PUSH1 0x0 PUSH2 0x4000 DUP4 AND EQ PUSH2 0x1F4A JUMPI PUSH1 0x80 PUSH16 0x70D869A156D2A1B890BB3DF62BAF32F7 DUP3 MUL SWAP1 SHR SWAP1 POP JUMPDEST PUSH1 0x0 PUSH2 0x8000 DUP4 AND EQ PUSH2 0x1F70 JUMPI PUSH1 0x80 PUSH16 0x31BE135F97D08FD981231505542FCFA6 DUP3 MUL SWAP1 SHR SWAP1 POP JUMPDEST PUSH1 0x0 PUSH3 0x10000 DUP4 AND EQ PUSH2 0x1F97 JUMPI PUSH1 0x80 PUSH16 0x9AA508B5B7A84E1C677DE54F3E99BC9 DUP3 MUL SWAP1 SHR SWAP1 POP JUMPDEST PUSH1 0x0 PUSH3 0x20000 DUP4 AND EQ PUSH2 0x1FBD JUMPI PUSH1 0x80 PUSH15 0x5D6AF8DEDB81196699C329225EE604 DUP3 MUL SWAP1 SHR SWAP1 POP JUMPDEST PUSH1 0x0 PUSH3 0x40000 DUP4 AND EQ PUSH2 0x1FE2 JUMPI PUSH1 0x80 PUSH14 0x2216E584F5FA1EA926041BEDFE98 DUP3 MUL SWAP1 SHR SWAP1 POP JUMPDEST PUSH1 0x0 PUSH3 0x80000 DUP4 AND EQ PUSH2 0x2005 JUMPI PUSH1 0x80 PUSH12 0x48A170391F7DC42444E8FA2 DUP3 MUL SWAP1 SHR SWAP1 POP JUMPDEST PUSH1 0x0 DUP5 PUSH1 0x2 SIGNEXTEND SGT ISZERO PUSH2 0x203E JUMPI DUP1 PUSH32 0xFFFFFFFFFFFFFFFFFFFFFFFFFFFFFFFFFFFFFFFFFFFFFFFFFFFFFFFFFFFFFFFF DUP2 PUSH2 0x203A JUMPI INVALID JUMPDEST DIV SWAP1 POP JUMPDEST PUSH1 0x0 PUSH5 0x100000000 DUP3 DUP2 PUSH2 0x204E JUMPI INVALID JUMPDEST MOD EQ PUSH2 0x205B JUMPI PUSH1 0x1 PUSH2 0x205E JUMP JUMPDEST PUSH1 0x0 JUMPDEST PUSH1 0xFF AND PUSH1 0x20 DUP3 SWAP1 SHR ADD SWAP3 POP POP POP SWAP2 SWAP1 POP JUMP JUMPDEST PUSH1 0x0 DUP1 PUSH1 0x0 DUP1 NOT DUP6 DUP8 MULMOD DUP6 DUP8 MUL SWAP3 POP DUP3 DUP2 LT DUP4 DUP3 SUB SUB SWAP2 POP POP PUSH1 0x0 DUP2 EQ ISZERO PUSH2 0x20AB JUMPI PUSH1 0x0 DUP5 GT PUSH2 0x209F JUMPI PUSH1 0x0 DUP1 REVERT JUMPDEST DUP4 DUP3 DIV SWAP3 POP POP POP PUSH2 0x2143 JUMP JUMPDEST DUP1 DUP5 GT PUSH2 0x20B7 JUMPI PUSH1 0x0 DUP1 REVERT JUMPDEST PUSH1 0x0 DUP5 DUP7 DUP9 MULMOD SWAP1 POP DUP3 DUP2 GT DUP3 SUB SWAP2 POP DUP1 DUP4 SUB SWAP3 POP PUSH1 0x0 DUP6 DUP7 PUSH1 0x0 SUB AND SWAP1 POP DUP1 DUP7 DIV SWAP6 POP DUP1 DUP5 DIV SWAP4 POP PUSH1 0x1 DUP2 DUP3 PUSH1 0x0 SUB DIV ADD SWAP1 POP DUP1 DUP4 MUL DUP5 OR SWAP4 POP PUSH1 0x0 PUSH1 0x2 DUP8 PUSH1 0x3 MUL XOR SWAP1 POP DUP1 DUP8 MUL PUSH1 0x2 SUB DUP2 MUL SWAP1 POP DUP1 DUP8 MUL PUSH1 0x2 SUB DUP2 MUL SWAP1 POP DUP1 DUP8 MUL PUSH1 0x2 SUB DUP2 MUL SWAP1 POP DUP1 DUP8 MUL PUSH1 0x2 SUB DUP2 MUL SWAP1 POP DUP1 DUP8 MUL PUSH1 0x2 SUB DUP2 MUL SWAP1 POP DUP1 DUP8 MUL PUSH1 0x2 SUB DUP2 MUL SWAP1 POP DUP1 DUP6 MUL SWAP6 POP POP POP POP POP POP JUMPDEST SWAP4 SWAP3 POP POP POP JUMP JUMPDEST PUSH1 0x40 MLOAD DUP1 PUSH1 0x60 ADD PUSH1 0x40 MSTORE DUP1 PUSH1 0x0 PUSH20 0xFFFFFFFFFFFFFFFFFFFFFFFFFFFFFFFFFFFFFFFF AND DUP2 MSTORE PUSH1 0x20 ADD PUSH1 0x0 PUSH20 0xFFFFFFFFFFFFFFFFFFFFFFFFFFFFFFFFFFFFFFFF AND DUP2 MSTORE PUSH1 0x20 ADD PUSH1 0x0 PUSH3 0xFFFFFF AND DUP2 MSTORE POP SWAP1 JUMP INVALID SSTORE PUSH15 0x6956334F7261636C653A2067657445 PUSH25 0x70656374656452657475726E416D6F756E743A2057726F6E67 KECCAK256 PUSH17 0x6F6F6C73206F7220746F6B656E73A26469 PUSH17 0x667358221220DE5FB3D17B9D9BE9345F5C INVALID 0xC3 0xCF PUSH12 0x7B30AD44DADC927481800E1D DUP16 DUP5 0xE2 CODECOPY 0xBD PUSH5 0x736F6C6343 STOP SMOD MOD STOP CALLER "
        },
        "gasEstimates": {
          "creation": {
            "codeDepositCost": "1743400",
            "executionCost": "infinite",
            "totalCost": "infinite"
          },
          "external": {
            "ACCESS_CONTROL_SINGLETON()": "infinite",
            "Factory()": "infinite",
            "LIQUIDATION_ACCESS_ROLE()": "271",
            "MINTER_ROLE()": "249",
            "USDT()": "infinite",
            "USDTPool()": "infinite",
            "VAULT_ACCESS_ROLE()": "273",
            "WETH()": "infinite",
            "assetToPool(address)": "1246",
            "enableAssetPool(address,uint24)": "infinite",
            "getExpectedReturnAmount(address[],address[],uint128)": "infinite",
            "getUsdPrice1e18(address)": "infinite",
            "observationSeconds()": "1132",
            "setObservationSeconds(uint32)": "infinite"
          }
        },
        "methodIdentifiers": {
          "ACCESS_CONTROL_SINGLETON()": "03ee9f22",
          "Factory()": "c83dd231",
          "LIQUIDATION_ACCESS_ROLE()": "dc97e84e",
          "MINTER_ROLE()": "d5391393",
          "USDT()": "c54e44eb",
          "USDTPool()": "cb46b282",
          "VAULT_ACCESS_ROLE()": "14c376dc",
          "WETH()": "ad5c4648",
          "assetToPool(address)": "044c8d71",
          "enableAssetPool(address,uint24)": "d3a6fc99",
          "getExpectedReturnAmount(address[],address[],uint128)": "97884243",
          "getUsdPrice1e18(address)": "356efd98",
          "observationSeconds()": "fa2c6d7c",
          "setObservationSeconds(uint32)": "c192041a"
        }
      },
      "storageLayout": {
        "storage": [
          {
            "astId": 887,
            "contract": "contracts/oracles/SuUniV3Oracle.sol:SuUniV3Oracle",
            "label": "observationSeconds",
            "offset": 0,
            "slot": "0",
            "type": "t_uint32"
          },
          {
            "astId": 647,
            "contract": "contracts/oracles/SuUniV3Oracle.sol:SuUniV3Oracle",
            "label": "assetToPool",
            "offset": 0,
            "slot": "1",
            "type": "t_mapping(t_address,t_address)"
          }
        ],
        "types": {
          "t_address": {
            "encoding": "inplace",
            "label": "address",
            "numberOfBytes": "20"
          },
          "t_mapping(t_address,t_address)": {
            "encoding": "mapping",
            "key": "t_address",
            "label": "mapping(address => address)",
            "numberOfBytes": "32",
            "value": "t_address"
          },
          "t_uint32": {
            "encoding": "inplace",
            "label": "uint32",
            "numberOfBytes": "4"
          }
        }
      },
      "userdoc": {
        "kind": "user",
        "methods": {
          "getUsdPrice1e18(address)": {
            "notice": "WARNING! Read this description very carefully!      function getUsdPrice1e18(address asset) returns (uint256) that:          basicAmountOfAsset * getUsdPrice1e18(asset) / 1e18 === $$ * 1e18      in other words, it doesn't matter what's the erc20.decimals is,      you just multiply token balance in basic units on value from oracle and get dollar amount multiplied on 1e18. different assets have different deviation threshold (errors)      for wBTC it's <= 0.5%, read more https://data.chain.link/ethereum/mainnet/crypto-usd/btc-usd      for other asset is can be larger based on particular oracle implementation. examples:      assume market price of wBTC = $31,503.77, oracle error = $158       case #1: small amount of wBTC           we have 0.0,000,001 wBTC that is worth v = $0.00315 ± $0.00001 = 0.00315*1e18 = 315*1e13 ± 1*1e13           actual balance on the asset b = wBTC.balanceOf() =  0.0000001*1e18 = 1e11           oracle should return or = oracle.getUsdPrice1e18(wBTC) <=>           <=> b*or = v => v/b = 315*1e13 / 1e11 = 315*1e2 ± 1e2           error = or.error * b = 1e2 * 1e11 = 1e13 => 1e13/1e18 usd = 1e-5 = 0.00001 usd       case #2: large amount of wBTC           v = 2,000,000 wBTC = $31,503.77 * 2m ± 158*2m = $63,007,540,000 ± $316,000,000 = 63,007*1e24 ± 316*1e24           for calc convenience we increase error on 0.05 and have v = 63,000*24 ± 300*1e24 = (630 ± 3)*1e26           b = 2*1e6 * 1e18 = 2*1e24           or = v/b = (630 ± 3)*1e26 / 2*1e24 = 315*1e2 ± 1.5*1e2           error = or.error * b = 1.5*100 * 2*1e24 = 3*1e26 = 3*1e8*1e18 = $300,000,000 ~ $316,000,000      assume the market price of USDT = $0.97 ± $0.00485,       case #3: little amount of USDT           v = USDT amount 0.005 = 0.005*(0.97 ± 0.00485) = 0.00485*1e18 ± 0.00002425*1e18 = 485*1e13 ± 3*1e13           we rounded error up on (3000-2425)/2425 ~= +24% for calculation convenience.           b = USDT.balanceOf() = 0.005*1e6 = 5*1e3           b*or = v => or = v/b = (485*1e13 ± 3*1e13) / 5*1e3 = 970*1e9 ± 6*1e9           error = 6*1e9 * 5*1e3 / 1e18 = 30*1e12/1e18 = 3*1e-5 = $0,00005       case #4: lot of USDT           v = we have 100,000,000,000 USDT = $97B = 97*1e9*1e18 ± 0.5*1e9*1e18           b = USDT.balanceOf() = 1e11*1e6 = 1e17           or = v/b = (97*1e9*1e18 ± 0.5*1e9*1e18) / 1e17 = 970*1e9 ± 5*1e9           error = 5*1e9 * 1e17 = 5*1e26 = 0.5 * 1e8*1e18"
          }
        },
        "version": 1
      }
    }
  }
}