{
  "_format": "hh-sol-artifact-1",
  "contractName": "SuCollateralRegistry",
  "sourceName": "contracts/SuCollateralRegistry.sol",
  "abi": [
    {
      "inputs": [
        {
          "internalType": "address",
          "name": "_vaultParameters",
          "type": "address"
        },
        {
          "internalType": "address[]",
          "name": "assets",
          "type": "address[]"
        }
      ],
      "stateMutability": "nonpayable",
      "type": "constructor"
    },
    {
      "anonymous": false,
      "inputs": [
        {
          "indexed": true,
          "internalType": "address",
          "name": "asset",
          "type": "address"
        }
      ],
      "name": "CollateralAdded",
      "type": "event"
    },
    {
      "anonymous": false,
      "inputs": [
        {
          "indexed": true,
          "internalType": "address",
          "name": "asset",
          "type": "address"
        }
      ],
      "name": "CollateralRemoved",
      "type": "event"
    },
    {
      "inputs": [
        {
          "internalType": "address",
          "name": "asset",
          "type": "address"
        }
      ],
      "name": "addCollateral",
      "outputs": [],
      "stateMutability": "nonpayable",
      "type": "function"
    },
    {
      "inputs": [
        {
          "internalType": "address",
          "name": "",
          "type": "address"
        }
      ],
      "name": "collateralId",
      "outputs": [
        {
          "internalType": "uint256",
          "name": "",
          "type": "uint256"
        }
      ],
      "stateMutability": "view",
      "type": "function"
    },
    {
      "inputs": [
        {
          "internalType": "uint256",
          "name": "",
          "type": "uint256"
        }
      ],
      "name": "collateralList",
      "outputs": [
        {
          "internalType": "address",
          "name": "",
          "type": "address"
        }
      ],
      "stateMutability": "view",
      "type": "function"
    },
    {
      "inputs": [],
      "name": "collaterals",
      "outputs": [
        {
          "internalType": "address[]",
          "name": "",
          "type": "address[]"
        }
      ],
      "stateMutability": "view",
      "type": "function"
    },
    {
      "inputs": [],
      "name": "collateralsCount",
      "outputs": [
        {
          "internalType": "uint256",
          "name": "",
          "type": "uint256"
        }
      ],
      "stateMutability": "view",
      "type": "function"
    },
    {
      "inputs": [
        {
          "internalType": "address",
          "name": "asset",
          "type": "address"
        }
      ],
      "name": "isCollateral",
      "outputs": [
        {
          "internalType": "bool",
          "name": "",
          "type": "bool"
        }
      ],
      "stateMutability": "view",
      "type": "function"
    },
    {
      "inputs": [
        {
          "internalType": "address",
          "name": "asset",
          "type": "address"
        }
      ],
      "name": "removeCollateral",
      "outputs": [],
      "stateMutability": "nonpayable",
      "type": "function"
    },
    {
      "inputs": [],
      "name": "vaultParameters",
      "outputs": [
        {
          "internalType": "contract SuVaultParameters",
          "name": "",
          "type": "address"
        }
      ],
      "stateMutability": "view",
      "type": "function"
    }
  ],
  "bytecode": "0x60806040523480156200001157600080fd5b5060405162000c5f38038062000c5f8339810160408190526200003491620002ad565b600080546001600160a01b0319166001600160a01b0384161781555b81518110156200020857620000938282815181106200007f57634e487b7160e01b600052603260045260246000fd5b60200260200101516200021160201b60201c565b15620000e55760405162461bcd60e51b815260206004820152601c60248201527f556e69742050726f746f636f6c3a20414c52454144595f455849535400000000604482015260640160405180910390fd5b60028282815181106200010857634e487b7160e01b600052603260045260246000fd5b60209081029190910181015182546001808201855560009485529284200180546001600160a01b0319166001600160a01b0390921691909117905583518392908590849081106200016957634e487b7160e01b600052603260045260246000fd5b60200260200101516001600160a01b03166001600160a01b0316815260200190815260200160002081905550818181518110620001b657634e487b7160e01b600052603260045260246000fd5b60200260200101516001600160a01b03167f7db05e63d635a68c62fd7fd8f3107ae8ab584a383e102d1bd8a40f4c977e465f60405160405180910390a280620001ff8162000398565b91505062000050565b505050620003d6565b6002546000906200022457506000919050565b6001600160a01b0382166000908152600160205260409020541515806200028a5750816001600160a01b031660026000815481106200027357634e487b7160e01b600052603260045260246000fd5b6000918252602090912001546001600160a01b0316145b92915050565b80516001600160a01b0381168114620002a857600080fd5b919050565b60008060408385031215620002c0578182fd5b620002cb8362000290565b602084810151919350906001600160401b0380821115620002ea578384fd5b818601915086601f830112620002fe578384fd5b815181811115620003135762000313620003c0565b8060051b604051601f19603f830116810181811085821117156200033b576200033b620003c0565b604052828152858101935084860182860187018b10156200035a578788fd5b8795505b838610156200038757620003728162000290565b8552600195909501949386019386016200035e565b508096505050505050509250929050565b6000600019821415620003b957634e487b7160e01b81526011600452602481fd5b5060010190565b634e487b7160e01b600052604160045260246000fd5b61087980620003e66000396000f3fe608060405234801561001057600080fd5b50600436106100885760003560e01c80634f7304551161005b5780634f73045514610107578063aca345ee14610127578063c99d3a061461013a578063f0d2d5a81461014f57600080fd5b80630ee21e541461008d5780631bcff06c146100b55780633024a912146100c75780634113e5ca146100f2575b600080fd5b6100a061009b36600461076d565b610162565b60405190151581526020015b60405180910390f35b6002545b6040519081526020016100ac565b6100da6100d53660046107bb565b6101de565b6040516001600160a01b0390911681526020016100ac565b6100fa610208565b6040516100ac91906107d3565b6100b961011536600461076d565b60016020526000908152604090205481565b6000546100da906001600160a01b031681565b61014d61014836600461076d565b61026a565b005b61014d61015d36600461076d565b610557565b60025460009061017457506000919050565b6001600160a01b0382166000908152600160205260409020541515806101d85750816001600160a01b031660026000815481106101c157634e487b7160e01b600052603260045260246000fd5b6000918252602090912001546001600160a01b0316145b92915050565b600281815481106101ee57600080fd5b6000918252602090912001546001600160a01b0316905081565b6060600280548060200260200160405190810160405280929190818152602001828054801561026057602002820191906000526020600020905b81546001600160a01b03168152600190910190602001808311610242575b5050505050905090565b60005460405163f3ae241560e01b81523360048201526001600160a01b039091169063f3ae24159060240160206040518083038186803b1580156102ad57600080fd5b505afa1580156102c1573d6000803e3d6000fd5b505050506040513d601f19601f820116820180604052508101906102e5919061079b565b6103455760405162461bcd60e51b815260206004820152602660248201527f556e69742050726f746f636f6c3a206f6e6c794d616e6167657220415554485f60448201526511905253115160d21b60648201526084015b60405180910390fd5b6001600160a01b03811661039b5760405162461bcd60e51b815260206004820152601b60248201527f556e69742050726f746f636f6c3a205a45524f5f414444524553530000000000604482015260640161033c565b6103a481610162565b6103f05760405162461bcd60e51b815260206004820152601d60248201527f556e69742050726f746f636f6c3a20444f45535f4e4f545f4558495354000000604482015260640161033c565b6001600160a01b0381166000908152600160208190526040822080549083905560025490929161041f91610820565b90508082146104d05760006002828154811061044b57634e487b7160e01b600052603260045260246000fd5b600091825260209091200154600280546001600160a01b03909216925082918590811061048857634e487b7160e01b600052603260045260246000fd5b6000918252602080832091909101805473ffffffffffffffffffffffffffffffffffffffff19166001600160a01b039485161790559290911681526001909152604090208290555b60028054806104ef57634e487b7160e01b600052603160045260246000fd5b6000828152602081208201600019908101805473ffffffffffffffffffffffffffffffffffffffff191690559091019091556040516001600160a01b038516917fd89d2ee68ab04dca0193f48a4aff55e20fa5ec0429a8a8c1c51b8dad6178a59391a2505050565b60005460405163f3ae241560e01b81523360048201526001600160a01b039091169063f3ae24159060240160206040518083038186803b15801561059a57600080fd5b505afa1580156105ae573d6000803e3d6000fd5b505050506040513d601f19601f820116820180604052508101906105d2919061079b565b61062d5760405162461bcd60e51b815260206004820152602660248201527f556e69742050726f746f636f6c3a206f6e6c794d616e6167657220415554485f60448201526511905253115160d21b606482015260840161033c565b6001600160a01b0381166106835760405162461bcd60e51b815260206004820152601b60248201527f556e69742050726f746f636f6c3a205a45524f5f414444524553530000000000604482015260640161033c565b61068c81610162565b156106d95760405162461bcd60e51b815260206004820152601c60248201527f556e69742050726f746f636f6c3a20414c52454144595f455849535400000000604482015260640161033c565b600280546001600160a01b038316600081815260016020819052604080832085905590840185559381527f405787fa12a823e0f2b7631cc41b3ba8828b3321ca811111fa75cd3aa3bb5ace909201805473ffffffffffffffffffffffffffffffffffffffff19168217905591517f7db05e63d635a68c62fd7fd8f3107ae8ab584a383e102d1bd8a40f4c977e465f9190a250565b60006020828403121561077e578081fd5b81356001600160a01b0381168114610794578182fd5b9392505050565b6000602082840312156107ac578081fd5b81518015158114610794578182fd5b6000602082840312156107cc578081fd5b5035919050565b6020808252825182820181905260009190848201906040850190845b818110156108145783516001600160a01b0316835292840192918401916001016107ef565b50909695505050505050565b60008282101561083e57634e487b7160e01b81526011600452602481fd5b50039056fea2646970667358221220b41c37f9117f9c83b0208688d59c7a98e52c8427daf0d7e06a2d5c961709241a64736f6c63430008040033",
  "linkReferences": {},
  "deployedLinkReferences": {}
}