{
  "_format": "hh-sol-artifact-1",
  "contractName": "UniV3Oracle",
  "sourceName": "contracts/oracles/UniV3Oracle.sol",
  "abi": [
    {
      "inputs": [
        {
          "internalType": "address",
          "name": "_authControl",
          "type": "address"
        }
      ],
      "stateMutability": "nonpayable",
      "type": "constructor"
    },
    {
      "inputs": [],
      "name": "ACCESS_CONTROL_SINGLETON",
      "outputs": [
        {
          "internalType": "contract ISuAccessControl",
          "name": "",
          "type": "address"
        }
      ],
      "stateMutability": "view",
      "type": "function"
    },
    {
      "inputs": [],
      "name": "LIQUIDATION_ACCESS_ROLE",
      "outputs": [
        {
          "internalType": "bytes32",
          "name": "",
          "type": "bytes32"
        }
      ],
      "stateMutability": "view",
      "type": "function"
    },
    {
      "inputs": [],
      "name": "MINTER_ROLE",
      "outputs": [
        {
          "internalType": "bytes32",
          "name": "",
          "type": "bytes32"
        }
      ],
      "stateMutability": "view",
      "type": "function"
    },
    {
      "inputs": [],
      "name": "VAULT_ACCESS_ROLE",
      "outputs": [
        {
          "internalType": "bytes32",
          "name": "",
          "type": "bytes32"
        }
      ],
      "stateMutability": "view",
      "type": "function"
    },
    {
      "inputs": [
        {
          "internalType": "address[]",
          "name": "route",
          "type": "address[]"
        },
        {
          "internalType": "contract IUniswapV3Pool[]",
          "name": "pools",
          "type": "address[]"
        },
        {
          "internalType": "uint128",
          "name": "amountIn",
          "type": "uint128"
        }
      ],
      "name": "getExpectedReturnAmount",
      "outputs": [
        {
          "internalType": "uint256",
          "name": "returnAmount",
          "type": "uint256"
        },
        {
          "internalType": "uint256",
          "name": "returnDecimals",
          "type": "uint256"
        }
      ],
      "stateMutability": "view",
      "type": "function"
    },
    {
      "inputs": [],
      "name": "observationSeconds",
      "outputs": [
        {
          "internalType": "uint32",
          "name": "",
          "type": "uint32"
        }
      ],
      "stateMutability": "view",
      "type": "function"
    },
    {
      "inputs": [
        {
          "internalType": "uint32",
          "name": "_newObservationSeconds",
          "type": "uint32"
        }
      ],
      "name": "setObservationSeconds",
      "outputs": [],
      "stateMutability": "nonpayable",
      "type": "function"
    }
  ],
  "bytecode": "0x60a060405234801561001057600080fd5b506040516116233803806116238339818101604052602081101561003357600080fd5b8101908080519060200190929190505050808073ffffffffffffffffffffffffffffffffffffffff1660808173ffffffffffffffffffffffffffffffffffffffff1660601b815250505061012c6000806101000a81548163ffffffff021916908363ffffffff1602179055505060805160601c6115616100c2600039806102ed52806107af52506115616000f3fe608060405234801561001057600080fd5b506004361061007d5760003560e01c8063c192041a1161005b578063c192041a14610257578063d53913931461028b578063dc97e84e146102a9578063fa2c6d7c146102c75761007d565b806303ee9f221461008257806314c376dc146100b657806397884243146100d4575b600080fd5b61008a6102eb565b604051808273ffffffffffffffffffffffffffffffffffffffff16815260200191505060405180910390f35b6100be61030f565b6040518082815260200191505060405180910390f35b61023a600480360360608110156100ea57600080fd5b810190808035906020019064010000000081111561010757600080fd5b82018360208201111561011957600080fd5b8035906020019184602083028401116401000000008311171561013b57600080fd5b919080806020026020016040519081016040528093929190818152602001838360200280828437600081840152601f19601f8201169050808301925050505050505091929192908035906020019064010000000081111561019b57600080fd5b8201836020820111156101ad57600080fd5b803590602001918460208302840111640100000000831117156101cf57600080fd5b919080806020026020016040519081016040528093929190818152602001838360200280828437600081840152601f19601f82011690508083019250505050505050919291929080356fffffffffffffffffffffffffffffffff169060200190929190505050610333565b604051808381526020018281526020019250505060405180910390f35b6102896004803603602081101561026d57600080fd5b81019080803563ffffffff1690602001909291905050506107ad565b005b61029361090f565b6040518082815260200191505060405180910390f35b6102b1610933565b6040518082815260200191505060405180910390f35b6102cf610957565b604051808263ffffffff16815260200191505060405180910390f35b7f000000000000000000000000000000000000000000000000000000000000000081565b7fe965846df3dd5b1dfa65f58e31477079e90140e0908b6dd31b5aead5a57cf36581565b6000806000845190506000849050600080600090505b8381101561070557600088828151811061035f57fe5b6020026020010151905060008a838151811061037757fe5b6020026020010151905060008b600185018151811061039257fe5b602002602001015190508173ffffffffffffffffffffffffffffffffffffffff168373ffffffffffffffffffffffffffffffffffffffff16630dfe16816040518163ffffffff1660e01b815260040160206040518083038186803b1580156103f957600080fd5b505afa15801561040d573d6000803e3d6000fd5b505050506040513d602081101561042357600080fd5b810190808051906020019092919050505073ffffffffffffffffffffffffffffffffffffffff1614801561050257508073ffffffffffffffffffffffffffffffffffffffff168373ffffffffffffffffffffffffffffffffffffffff1663d21220a76040518163ffffffff1660e01b815260040160206040518083038186803b1580156104af57600080fd5b505afa1580156104c3573d6000803e3d6000fd5b505050506040513d60208110156104d957600080fd5b810190808051906020019092919050505073ffffffffffffffffffffffffffffffffffffffff16145b8061066f57508073ffffffffffffffffffffffffffffffffffffffff168373ffffffffffffffffffffffffffffffffffffffff16630dfe16816040518163ffffffff1660e01b815260040160206040518083038186803b15801561056557600080fd5b505afa158015610579573d6000803e3d6000fd5b505050506040513d602081101561058f57600080fd5b810190808051906020019092919050505073ffffffffffffffffffffffffffffffffffffffff1614801561066e57508173ffffffffffffffffffffffffffffffffffffffff168373ffffffffffffffffffffffffffffffffffffffff1663d21220a76040518163ffffffff1660e01b815260040160206040518083038186803b15801561061b57600080fd5b505afa15801561062f573d6000803e3d6000fd5b505050506040513d602081101561064557600080fd5b810190808051906020019092919050505073ffffffffffffffffffffffffffffffffffffffff16145b5b6106c4576040517f08c379a000000000000000000000000000000000000000000000000000000000815260040180806020018281038252603b8152602001806114f1603b913960400191505060405180910390fd5b60006106e08460008054906101000a900463ffffffff1661096b565b5090506106ef81888585610dd8565b9550859650505050508080600101915050610349565b5080945087838151811061071557fe5b602002602001015173ffffffffffffffffffffffffffffffffffffffff1663313ce5676040518163ffffffff1660e01b815260040160206040518083038186803b15801561076257600080fd5b505afa158015610776573d6000803e3d6000fd5b505050506040513d602081101561078c57600080fd5b810190808051906020019092919050505060ff169350505050935093915050565b7f000000000000000000000000000000000000000000000000000000000000000073ffffffffffffffffffffffffffffffffffffffff166391d148546000801b336040518363ffffffff1660e01b8152600401808381526020018273ffffffffffffffffffffffffffffffffffffffff1681526020019250505060206040518083038186803b15801561083f57600080fd5b505afa158015610853573d6000803e3d6000fd5b505050506040513d602081101561086957600080fd5b81019080805190602001909291905050506108ec576040517f08c379a000000000000000000000000000000000000000000000000000000000815260040180806020018281038252601d8152602001807f5375417574683a206f6e6c794f776e657220415554485f4641494c454400000081525060200191505060405180910390fd5b806000806101000a81548163ffffffff021916908363ffffffff16021790555050565b7f9f2df0fed2c77648de5860a4cc508cd0818c85b8b8a1ab4ceeef8d981c8956a681565b7f9a9aef7c1247d5fc769b0185c052913e39673da29a880317dfd20ebf86f26a4981565b60008054906101000a900463ffffffff1681565b60008060008363ffffffff1614156109eb576040517f08c379a00000000000000000000000000000000000000000000000000000000081526004018080602001828103825260028152602001807f425000000000000000000000000000000000000000000000000000000000000081525060200191505060405180910390fd5b6000600267ffffffffffffffff81118015610a0557600080fd5b50604051908082528060200260200182016040528015610a345781602001602082028036833780820191505090505b5090508381600081518110610a4557fe5b602002602001019063ffffffff16908163ffffffff1681525050600081600181518110610a6e57fe5b602002602001019063ffffffff16908163ffffffff16815250506000808673ffffffffffffffffffffffffffffffffffffffff1663883bdbfd846040518263ffffffff1660e01b81526004018080602001828103825283818151815260200191508051906020019060200280838360005b83811015610afa578082015181840152602081019050610adf565b505050509050019250505060006040518083038186803b158015610b1d57600080fd5b505afa158015610b31573d6000803e3d6000fd5b505050506040513d6000823e3d601f19601f820116820180604052506040811015610b5b57600080fd5b8101908080516040519392919084640100000000821115610b7b57600080fd5b83820191506020820185811115610b9157600080fd5b8251866020820283011164010000000082111715610bae57600080fd5b8083526020830192505050908051906020019060200280838360005b83811015610be5578082015181840152602081019050610bca565b5050505090500160405260200180516040519392919084640100000000821115610c0e57600080fd5b83820191506020820185811115610c2457600080fd5b8251866020820283011164010000000082111715610c4157600080fd5b8083526020830192505050908051906020019060200280838360005b83811015610c78578082015181840152602081019050610c5d565b5050505090500160405250505091509150600082600081518110610c9857fe5b602002602001015183600181518110610cad57fe5b6020026020010151039050600082600081518110610cc757fe5b602002602001015183600181518110610cdc57fe5b60200260200101510390508763ffffffff168260060b81610cf957fe5b05965060008260060b128015610d25575060008863ffffffff168360060b81610d1e57fe5b0760060b14155b15610d34578680600190039750505b600073ffffffffffffffffffffffffffffffffffffffff80168963ffffffff1602905060208273ffffffffffffffffffffffffffffffffffffffff1677ffffffffffffffffffffffffffffffffffffffffffffffff16901b77ffffffffffffffffffffffffffffffffffffffffffffffff168177ffffffffffffffffffffffffffffffffffffffffffffffff1681610dc857fe5b0496505050505050509250929050565b600080610de486610fdb565b90506fffffffffffffffffffffffffffffffff80168173ffffffffffffffffffffffffffffffffffffffff1611610ef55760008173ffffffffffffffffffffffffffffffffffffffff168273ffffffffffffffffffffffffffffffffffffffff160290508373ffffffffffffffffffffffffffffffffffffffff168573ffffffffffffffffffffffffffffffffffffffff1610610eb657610eb17801000000000000000000000000000000000000000000000000876fffffffffffffffffffffffffffffffff1683611416565b610eed565b610eec81876fffffffffffffffffffffffffffffffff167801000000000000000000000000000000000000000000000000611416565b5b925050610fd2565b6000610f378273ffffffffffffffffffffffffffffffffffffffff168373ffffffffffffffffffffffffffffffffffffffff1668010000000000000000611416565b90508373ffffffffffffffffffffffffffffffffffffffff168573ffffffffffffffffffffffffffffffffffffffff1610610f9f57610f9a700100000000000000000000000000000000876fffffffffffffffffffffffffffffffff1683611416565b610fce565b610fcd81876fffffffffffffffffffffffffffffffff16700100000000000000000000000000000000611416565b5b9250505b50949350505050565b60008060008360020b12610ff2578260020b610ffa565b8260020b6000035b90507ffffffffffffffffffffffffffffffffffffffffffffffffffffffffffff2761860000360020b811115611098576040517f08c379a00000000000000000000000000000000000000000000000000000000081526004018080602001828103825260018152602001807f540000000000000000000000000000000000000000000000000000000000000081525060200191505060405180910390fd5b6000806001831614156110bc577001000000000000000000000000000000006110ce565b6ffffcb933bd6fad37aa2d162d1a5940015b70ffffffffffffffffffffffffffffffffff169050600060028316146111085760806ffff97272373d413259a46990580e213a8202901c90505b6000600483161461112d5760806ffff2e50f5f656932ef12357cf3c7fdcc8202901c90505b600060088316146111525760806fffe5caca7e10e4e61c3624eaa0941cd08202901c90505b600060108316146111775760806fffcb9843d60f6159c9db58835c9266448202901c90505b6000602083161461119c5760806fff973b41fa98c081472e6896dfb254c08202901c90505b600060408316146111c15760806fff2ea16466c96a3843ec78b326b528618202901c90505b600060808316146111e65760806ffe5dee046a99a2a811c461f1969c30538202901c90505b600061010083161461120c5760806ffcbe86c7900a88aedcffc83b479aa3a48202901c90505b60006102008316146112325760806ff987a7253ac413176f2b074cf7815e548202901c90505b60006104008316146112585760806ff3392b0822b70005940c7a398e4b70f38202901c90505b600061080083161461127e5760806fe7159475a2c29b7443b29c7fa6e889d98202901c90505b60006110008316146112a45760806fd097f3bdfd2022b8845ad8f792aa58258202901c90505b60006120008316146112ca5760806fa9f746462d870fdf8a65dc1f90e061e58202901c90505b60006140008316146112f05760806f70d869a156d2a1b890bb3df62baf32f78202901c90505b60006180008316146113165760806f31be135f97d08fd981231505542fcfa68202901c90505b60006201000083161461133d5760806f09aa508b5b7a84e1c677de54f3e99bc98202901c90505b6000620200008316146113635760806e5d6af8dedb81196699c329225ee6048202901c90505b6000620400008316146113885760806d2216e584f5fa1ea926041bedfe988202901c90505b6000620800008316146113ab5760806b048a170391f7dc42444e8fa28202901c90505b60008460020b13156113e457807fffffffffffffffffffffffffffffffffffffffffffffffffffffffffffffffff816113e057fe5b0490505b600064010000000082816113f457fe5b0614611401576001611404565b60005b60ff16602082901c0192505050919050565b600080600080198587098587029250828110838203039150506000811415611451576000841161144557600080fd5b838204925050506114e9565b80841161145d57600080fd5b600084868809905082811182039150808303925060008586600003169050808604955080840493506001818260000304019050808302841793506000600287600302189050808702600203810290508087026002038102905080870260020381029050808702600203810290508087026002038102905080870260020381029050808502955050505050505b939250505056fe556e6956334f7261636c653a20676574457870656374656452657475726e416d6f756e743a2057726f6e6720706f6f6c73206f7220746f6b656e73a26469706673582212200685ce5a702f46bdae49cbe6df499ec3d8e7186c125a0b449b2eddf7c6c9589b64736f6c63430007060033",
  "linkReferences": {},
  "deployedLinkReferences": {}
}