{
  "_format": "hh-sol-artifact-1",
  "contractName": "Auth",
  "sourceName": "contracts/SuVaultParameters.sol",
  "abi": [
    {
      "inputs": [
        {
          "internalType": "address",
          "name": "_parameters",
          "type": "address"
        }
      ],
      "stateMutability": "nonpayable",
      "type": "constructor"
    },
    {
      "inputs": [],
      "name": "vaultParameters",
      "outputs": [
        {
          "internalType": "contract SuVaultParameters",
          "name": "",
          "type": "address"
        }
      ],
      "stateMutability": "view",
      "type": "function"
    }
  ],
  "bytecode": "0x608060405234801561001057600080fd5b5060405161013b38038061013b83398101604081905261002f91610054565b600080546001600160a01b0319166001600160a01b0392909216919091179055610082565b600060208284031215610065578081fd5b81516001600160a01b038116811461007b578182fd5b9392505050565b60ab806100906000396000f3fe6080604052348015600f57600080fd5b506004361060285760003560e01c8063aca345ee14602d575b600080fd5b600054604c9073ffffffffffffffffffffffffffffffffffffffff1681565b60405173ffffffffffffffffffffffffffffffffffffffff909116815260200160405180910390f3fea26469706673582212205462da41e54252b7f5ab154e35faa0f1870d34c078a6cd9edc8b2d72945ef86b64736f6c63430008040033",
  "linkReferences": {},
  "deployedLinkReferences": {}
}