{
  "address": "0x46DE6a851E849A884e50E4B81B29cDec8E3F6576",
  "abi": [
    {
      "inputs": [],
      "stateMutability": "nonpayable",
      "type": "constructor"
    },
    {
      "anonymous": false,
      "inputs": [
        {
          "indexed": true,
          "internalType": "address",
          "name": "previousOwner",
          "type": "address"
        },
        {
          "indexed": true,
          "internalType": "address",
          "name": "newOwner",
          "type": "address"
        }
      ],
      "name": "OwnershipTransferred",
      "type": "event"
    },
    {
      "inputs": [
        {
          "internalType": "address",
          "name": "asset",
          "type": "address"
        }
      ],
      "name": "getUsdPrice1e18",
      "outputs": [
        {
          "internalType": "uint256",
          "name": "",
          "type": "uint256"
        }
      ],
      "stateMutability": "view",
      "type": "function"
    },
    {
      "inputs": [],
      "name": "owner",
      "outputs": [
        {
          "internalType": "address",
          "name": "",
          "type": "address"
        }
      ],
      "stateMutability": "view",
      "type": "function"
    },
    {
      "inputs": [],
      "name": "renounceOwnership",
      "outputs": [],
      "stateMutability": "nonpayable",
      "type": "function"
    },
    {
      "inputs": [
        {
          "internalType": "address",
          "name": "asset",
          "type": "address"
        },
        {
          "internalType": "uint256",
          "name": "price",
          "type": "uint256"
        }
      ],
      "name": "setPrice",
      "outputs": [],
      "stateMutability": "nonpayable",
      "type": "function"
    },
    {
      "inputs": [
        {
          "internalType": "address",
          "name": "newOwner",
          "type": "address"
        }
      ],
      "name": "transferOwnership",
      "outputs": [],
      "stateMutability": "nonpayable",
      "type": "function"
    }
  ],
  "transactionHash": "0x2b861f9da5033b95f974e90d4bc6b226be90849ada07c5fd1c98105634673ca0",
  "args": [],
  "numDeployments": 1,
  "solcInputHash": "d1c3e992972545e414ac7f62b849d9a1",
  "bytecode": "0x608060405234801561001057600080fd5b5061001a3361001f565b61006f565b600080546001600160a01b038381166001600160a01b0319831681178455604051919092169283917f8be0079c531659141344cd1fd0a4f28419497f9722a3daafe3b4186f6b6457e09190a35050565b6104188061007e6000396000f3fe608060405234801561001057600080fd5b50600436106100665760003560e01c8063715018a611610050578063715018a6146100a65780638da5cb5b146100ae578063f2fde38b146100c957600080fd5b8062e4768b1461006b578063356efd9814610080575b600080fd5b61007e610079366004610375565b6100dc565b005b61009361008e366004610354565b610157565b6040519081526020015b60405180910390f35b61007e610188565b6000546040516001600160a01b03909116815260200161009d565b61007e6100d7366004610354565b6101ee565b6000546001600160a01b0316331461013b5760405162461bcd60e51b815260206004820181905260248201527f4f776e61626c653a2063616c6c6572206973206e6f7420746865206f776e657260448201526064015b60405180910390fd5b6001600160a01b03909116600090815260016020526040902055565b6001600160a01b03811660009081526001602052604081205461018290670de0b6b3a764000061039e565b92915050565b6000546001600160a01b031633146101e25760405162461bcd60e51b815260206004820181905260248201527f4f776e61626c653a2063616c6c6572206973206e6f7420746865206f776e65726044820152606401610132565b6101ec60006102d0565b565b6000546001600160a01b031633146102485760405162461bcd60e51b815260206004820181905260248201527f4f776e61626c653a2063616c6c6572206973206e6f7420746865206f776e65726044820152606401610132565b6001600160a01b0381166102c45760405162461bcd60e51b815260206004820152602660248201527f4f776e61626c653a206e6577206f776e657220697320746865207a65726f206160448201527f64647265737300000000000000000000000000000000000000000000000000006064820152608401610132565b6102cd816102d0565b50565b600080546001600160a01b038381167fffffffffffffffffffffffff0000000000000000000000000000000000000000831681178455604051919092169283917f8be0079c531659141344cd1fd0a4f28419497f9722a3daafe3b4186f6b6457e09190a35050565b80356001600160a01b038116811461034f57600080fd5b919050565b600060208284031215610365578081fd5b61036e82610338565b9392505050565b60008060408385031215610387578081fd5b61039083610338565b946020939093013593505050565b60008160001904831182151516156103dd577f4e487b710000000000000000000000000000000000000000000000000000000081526011600452602481fd5b50029056fea26469706673582212205f8e6b9263b615140a4fd26c8169705ced092bb0292fae66232ca9f0ce91ca0064736f6c63430008040033",
  "devdoc": {
    "kind": "dev",
    "methods": {
      "getUsdPrice1e18(address)": {
        "params": {
          "asset": "of erc20 token"
        },
        "returns": {
          "_0": "price1e18 such as asset.balanceOf() * price1e18 / 1e18 == $$ 1e18*"
        }
      },
      "owner()": {
        "details": "Returns the address of the current owner."
      },
      "renounceOwnership()": {
        "details": "Leaves the contract without owner. It will not be possible to call `onlyOwner` functions anymore. Can only be called by the current owner. NOTE: Renouncing ownership will leave the contract without an owner, thereby removing any functionality that is only available to the owner."
      },
      "transferOwnership(address)": {
        "details": "Transfers ownership of the contract to a new account (`newOwner`). Can only be called by the current owner."
      }
    },
    "version": 1
  },
  "userdoc": {
    "kind": "user",
    "methods": {
      "getUsdPrice1e18(address)": {
        "notice": "returns price1e18(assert) such that:   [assetAmount * price1e18(assert) / 1e18 === $$ 1e18] == suUSD   examples:       market price of btc = $30k,       for 0.1 wBTC the unit256 amount is 0.1 * 1e18       0.1 * 1e18 * (price1e18 / 1e18) == $3000 == uint256(3000*1e18)       => price1e18 = 30000 * 1e18;       market price of usdt = $0.97,       for 1 usdt uint256 = 1 * 1e6       so 1*1e6 * price1e18 / 1e18 == $0.97 == uint256(0.97*1e18)       => 1*1e6 * (price1e18 / 1e18) / (0.97*1e18)   = 1       =>  price1e18 = 0.97 * (1e18/1e6) * 1e18"
      }
    },
    "version": 1
  },
  "storageLayout": {
    "storage": [
      {
        "astId": 435,
        "contract": "contracts/mocks/MockOracle.sol:MockOracle",
        "label": "_owner",
        "offset": 0,
        "slot": "0",
        "type": "t_address"
      },
      {
        "astId": 7298,
        "contract": "contracts/mocks/MockOracle.sol:MockOracle",
        "label": "assets",
        "offset": 0,
        "slot": "1",
        "type": "t_mapping(t_address,t_uint256)"
      }
    ],
    "types": {
      "t_address": {
        "encoding": "inplace",
        "label": "address",
        "numberOfBytes": "20"
      },
      "t_mapping(t_address,t_uint256)": {
        "encoding": "mapping",
        "key": "t_address",
        "label": "mapping(address => uint256)",
        "numberOfBytes": "32",
        "value": "t_uint256"
      },
      "t_uint256": {
        "encoding": "inplace",
        "label": "uint256",
        "numberOfBytes": "32"
      }
    }
  }
}