{
  "address": "0x2a04351387D6fA9D024315b83F07964a125e0248",
  "abi": [
    {
      "inputs": [
        {
          "internalType": "address",
          "name": "_authControl",
          "type": "address"
        },
        {
          "internalType": "contract IERC20",
          "name": "_rewardToken",
          "type": "address"
        },
        {
          "internalType": "contract ISuOracle",
          "name": "_oracle",
          "type": "address"
        }
      ],
      "stateMutability": "nonpayable",
      "type": "constructor"
    },
    {
      "anonymous": false,
      "inputs": [
        {
          "indexed": true,
          "internalType": "address",
          "name": "user",
          "type": "address"
        },
        {
          "indexed": true,
          "internalType": "address",
          "name": "asset",
          "type": "address"
        },
        {
          "indexed": false,
          "internalType": "uint256",
          "name": "amount",
          "type": "uint256"
        }
      ],
      "name": "Harvest",
      "type": "event"
    },
    {
      "anonymous": false,
      "inputs": [
        {
          "indexed": true,
          "internalType": "address",
          "name": "asset",
          "type": "address"
        },
        {
          "indexed": false,
          "internalType": "uint256",
          "name": "allocPoint",
          "type": "uint256"
        }
      ],
      "name": "LogPoolAddition",
      "type": "event"
    },
    {
      "anonymous": false,
      "inputs": [
        {
          "indexed": true,
          "internalType": "address",
          "name": "asset",
          "type": "address"
        },
        {
          "indexed": false,
          "internalType": "uint256",
          "name": "allocPoint",
          "type": "uint256"
        }
      ],
      "name": "LogSetPool",
      "type": "event"
    },
    {
      "anonymous": false,
      "inputs": [
        {
          "indexed": true,
          "internalType": "address",
          "name": "asset",
          "type": "address"
        },
        {
          "indexed": false,
          "internalType": "uint64",
          "name": "lastRewardBlock",
          "type": "uint64"
        },
        {
          "indexed": false,
          "internalType": "uint256",
          "name": "lpSupply",
          "type": "uint256"
        },
        {
          "indexed": false,
          "internalType": "uint256",
          "name": "accSushiPerShare",
          "type": "uint256"
        }
      ],
      "name": "LogUpdatePool",
      "type": "event"
    },
    {
      "anonymous": false,
      "inputs": [
        {
          "indexed": true,
          "internalType": "address",
          "name": "user",
          "type": "address"
        },
        {
          "indexed": true,
          "internalType": "address",
          "name": "asset",
          "type": "address"
        },
        {
          "indexed": true,
          "internalType": "address",
          "name": "to",
          "type": "address"
        },
        {
          "indexed": false,
          "internalType": "uint256",
          "name": "amount",
          "type": "uint256"
        },
        {
          "indexed": false,
          "internalType": "uint256",
          "name": "lockupPeriodSeconds",
          "type": "uint256"
        }
      ],
      "name": "ResetAmount",
      "type": "event"
    },
    {
      "anonymous": false,
      "inputs": [
        {
          "indexed": true,
          "internalType": "address",
          "name": "user",
          "type": "address"
        },
        {
          "indexed": true,
          "internalType": "address",
          "name": "asset",
          "type": "address"
        },
        {
          "indexed": false,
          "internalType": "uint256",
          "name": "amount",
          "type": "uint256"
        }
      ],
      "name": "VirtualDeposit",
      "type": "event"
    },
    {
      "anonymous": false,
      "inputs": [
        {
          "indexed": true,
          "internalType": "address",
          "name": "user",
          "type": "address"
        },
        {
          "indexed": true,
          "internalType": "address",
          "name": "asset",
          "type": "address"
        },
        {
          "indexed": false,
          "internalType": "uint256",
          "name": "amount",
          "type": "uint256"
        }
      ],
      "name": "VirtualWithdraw",
      "type": "event"
    },
    {
      "inputs": [],
      "name": "ACCESS_CONTROL_SINGLETON",
      "outputs": [
        {
          "internalType": "contract ISuAccessControl",
          "name": "",
          "type": "address"
        }
      ],
      "stateMutability": "view",
      "type": "function"
    },
    {
      "inputs": [],
      "name": "LIQUIDATION_ACCESS_ROLE",
      "outputs": [
        {
          "internalType": "bytes32",
          "name": "",
          "type": "bytes32"
        }
      ],
      "stateMutability": "view",
      "type": "function"
    },
    {
      "inputs": [],
      "name": "MINTER_ROLE",
      "outputs": [
        {
          "internalType": "bytes32",
          "name": "",
          "type": "bytes32"
        }
      ],
      "stateMutability": "view",
      "type": "function"
    },
    {
      "inputs": [],
      "name": "ORACLE",
      "outputs": [
        {
          "internalType": "contract ISuOracle",
          "name": "",
          "type": "address"
        }
      ],
      "stateMutability": "view",
      "type": "function"
    },
    {
      "inputs": [],
      "name": "REWARD_TOKEN",
      "outputs": [
        {
          "internalType": "contract IERC20",
          "name": "",
          "type": "address"
        }
      ],
      "stateMutability": "view",
      "type": "function"
    },
    {
      "inputs": [],
      "name": "VAULT_ACCESS_ROLE",
      "outputs": [
        {
          "internalType": "bytes32",
          "name": "",
          "type": "bytes32"
        }
      ],
      "stateMutability": "view",
      "type": "function"
    },
    {
      "inputs": [
        {
          "internalType": "uint256",
          "name": "allocPoint",
          "type": "uint256"
        },
        {
          "internalType": "address",
          "name": "_asset",
          "type": "address"
        }
      ],
      "name": "add",
      "outputs": [],
      "stateMutability": "nonpayable",
      "type": "function"
    },
    {
      "inputs": [
        {
          "internalType": "address",
          "name": "asset",
          "type": "address"
        },
        {
          "internalType": "address",
          "name": "to",
          "type": "address"
        },
        {
          "internalType": "uint256",
          "name": "amountEDecimal",
          "type": "uint256"
        }
      ],
      "name": "decreaseAmount",
      "outputs": [],
      "stateMutability": "nonpayable",
      "type": "function"
    },
    {
      "inputs": [
        {
          "internalType": "address",
          "name": "asset",
          "type": "address"
        },
        {
          "internalType": "address",
          "name": "to",
          "type": "address"
        },
        {
          "internalType": "uint256",
          "name": "amountEDecimal",
          "type": "uint256"
        }
      ],
      "name": "decreaseAmountRewardPenalty",
      "outputs": [
        {
          "internalType": "uint256",
          "name": "",
          "type": "uint256"
        }
      ],
      "stateMutability": "view",
      "type": "function"
    },
    {
      "inputs": [
        {
          "internalType": "address",
          "name": "asset",
          "type": "address"
        }
      ],
      "name": "getPoolApr",
      "outputs": [
        {
          "internalType": "uint256",
          "name": "",
          "type": "uint256"
        }
      ],
      "stateMutability": "view",
      "type": "function"
    },
    {
      "inputs": [],
      "name": "getPossibleLockupPeriodsSeconds",
      "outputs": [
        {
          "components": [
            {
              "internalType": "uint256",
              "name": "lockupPeriodSeconds",
              "type": "uint256"
            },
            {
              "internalType": "uint256",
              "name": "multiplicator1e18",
              "type": "uint256"
            }
          ],
          "internalType": "struct RewardChefV2.ILockupPeriod[]",
          "name": "",
          "type": "tuple[]"
        }
      ],
      "stateMutability": "view",
      "type": "function"
    },
    {
      "inputs": [
        {
          "internalType": "address",
          "name": "asset",
          "type": "address"
        },
        {
          "internalType": "address",
          "name": "to",
          "type": "address"
        },
        {
          "internalType": "uint256",
          "name": "newLockupPeriodSeconds",
          "type": "uint256"
        }
      ],
      "name": "harvest",
      "outputs": [],
      "stateMutability": "nonpayable",
      "type": "function"
    },
    {
      "inputs": [
        {
          "internalType": "address",
          "name": "asset",
          "type": "address"
        },
        {
          "internalType": "address",
          "name": "to",
          "type": "address"
        },
        {
          "internalType": "uint256",
          "name": "amountEDecimal",
          "type": "uint256"
        },
        {
          "internalType": "uint256",
          "name": "lockupPeriodSeconds",
          "type": "uint256"
        }
      ],
      "name": "increaseAmount",
      "outputs": [],
      "stateMutability": "nonpayable",
      "type": "function"
    },
    {
      "inputs": [
        {
          "internalType": "address",
          "name": "_asset",
          "type": "address"
        },
        {
          "internalType": "address",
          "name": "_user",
          "type": "address"
        }
      ],
      "name": "pendingSushi",
      "outputs": [
        {
          "internalType": "uint256",
          "name": "pending",
          "type": "uint256"
        }
      ],
      "stateMutability": "view",
      "type": "function"
    },
    {
      "inputs": [
        {
          "internalType": "address",
          "name": "",
          "type": "address"
        }
      ],
      "name": "poolInfo",
      "outputs": [
        {
          "internalType": "uint128",
          "name": "accSushiPerShare",
          "type": "uint128"
        },
        {
          "internalType": "uint64",
          "name": "lastRewardBlock",
          "type": "uint64"
        },
        {
          "internalType": "uint64",
          "name": "allocPoint",
          "type": "uint64"
        },
        {
          "internalType": "uint256",
          "name": "lpSupply",
          "type": "uint256"
        }
      ],
      "stateMutability": "view",
      "type": "function"
    },
    {
      "inputs": [
        {
          "internalType": "uint256",
          "name": "amount",
          "type": "uint256"
        },
        {
          "internalType": "uint64",
          "name": "endBlock",
          "type": "uint64"
        }
      ],
      "name": "refillReward",
      "outputs": [],
      "stateMutability": "nonpayable",
      "type": "function"
    },
    {
      "inputs": [
        {
          "internalType": "address",
          "name": "asset",
          "type": "address"
        },
        {
          "internalType": "address",
          "name": "to",
          "type": "address"
        }
      ],
      "name": "resetAmount",
      "outputs": [],
      "stateMutability": "nonpayable",
      "type": "function"
    },
    {
      "inputs": [],
      "name": "rewardEndBlock",
      "outputs": [
        {
          "internalType": "uint256",
          "name": "",
          "type": "uint256"
        }
      ],
      "stateMutability": "view",
      "type": "function"
    },
    {
      "inputs": [],
      "name": "rewardPerBlock",
      "outputs": [
        {
          "internalType": "uint256",
          "name": "",
          "type": "uint256"
        }
      ],
      "stateMutability": "view",
      "type": "function"
    },
    {
      "inputs": [
        {
          "internalType": "uint256",
          "name": "startBlock",
          "type": "uint256"
        },
        {
          "internalType": "uint256",
          "name": "endBlock",
          "type": "uint256"
        }
      ],
      "name": "rewardsBetweenBlocks",
      "outputs": [
        {
          "internalType": "uint256",
          "name": "",
          "type": "uint256"
        }
      ],
      "stateMutability": "view",
      "type": "function"
    },
    {
      "inputs": [
        {
          "internalType": "address",
          "name": "_asset",
          "type": "address"
        },
        {
          "internalType": "uint256",
          "name": "_allocPoint",
          "type": "uint256"
        }
      ],
      "name": "set",
      "outputs": [],
      "stateMutability": "nonpayable",
      "type": "function"
    },
    {
      "inputs": [
        {
          "internalType": "uint256",
          "name": "lockupPeriodSeconds",
          "type": "uint256"
        },
        {
          "internalType": "uint256",
          "name": "multiplicator1e18",
          "type": "uint256"
        }
      ],
      "name": "setPossibleLockupPeriodsSeconds",
      "outputs": [],
      "stateMutability": "nonpayable",
      "type": "function"
    },
    {
      "inputs": [],
      "name": "totalAllocPoint",
      "outputs": [
        {
          "internalType": "uint256",
          "name": "",
          "type": "uint256"
        }
      ],
      "stateMutability": "view",
      "type": "function"
    },
    {
      "inputs": [],
      "name": "updateAllPools",
      "outputs": [],
      "stateMutability": "nonpayable",
      "type": "function"
    },
    {
      "inputs": [
        {
          "internalType": "address",
          "name": "asset",
          "type": "address"
        }
      ],
      "name": "updatePool",
      "outputs": [
        {
          "components": [
            {
              "internalType": "uint128",
              "name": "accSushiPerShare",
              "type": "uint128"
            },
            {
              "internalType": "uint64",
              "name": "lastRewardBlock",
              "type": "uint64"
            },
            {
              "internalType": "uint64",
              "name": "allocPoint",
              "type": "uint64"
            },
            {
              "internalType": "uint256",
              "name": "lpSupply",
              "type": "uint256"
            }
          ],
          "internalType": "struct IRewardChefV2.PoolInfo",
          "name": "pool",
          "type": "tuple"
        }
      ],
      "stateMutability": "nonpayable",
      "type": "function"
    },
    {
      "inputs": [
        {
          "internalType": "address",
          "name": "",
          "type": "address"
        },
        {
          "internalType": "address",
          "name": "",
          "type": "address"
        }
      ],
      "name": "userInfo",
      "outputs": [
        {
          "internalType": "uint256",
          "name": "amount",
          "type": "uint256"
        },
        {
          "internalType": "int256",
          "name": "rewardDebt",
          "type": "int256"
        },
        {
          "internalType": "uint256",
          "name": "multiplicator1e18",
          "type": "uint256"
        },
        {
          "internalType": "uint256",
          "name": "lockupPeriodSeconds",
          "type": "uint256"
        },
        {
          "internalType": "uint256",
          "name": "lockupStartTimestamp",
          "type": "uint256"
        }
      ],
      "stateMutability": "view",
      "type": "function"
    }
  ],
  "transactionHash": "0x8cb66443ff3e654b4594b936c6ed2d8459ed8b9a0bac0386bd194bab0146b04b",
  "args": [
    "0x97BaD58312b27BB53846749d35a8f0dc0F95E7eE",
    "0x86bc9E097a0A2Ca736AB31B53Ad93Ab3E5B332e1",
    "0xE49187305017f54D2BB716a8b9C86D1cF90Cf99D"
  ],
  "numDeployments": 1,
  "solcInputHash": "f0e3ee812b01a4597188858a77d65e1c",
  "bytecode": "0x60e06040523480156200001157600080fd5b5060405162002e1d38038062002e1d83398101604081905262000034916200005c565b6001600160601b0319606093841b811660805291831b821660a05290911b1660c052620000c8565b60008060006060848603121562000071578283fd5b83516200007e81620000af565b60208501519093506200009181620000af565b6040850151909250620000a481620000af565b809150509250925092565b6001600160a01b0381168114620000c557600080fd5b50565b60805160601c60a05160601c60c05160601c612ccf6200014e600039600081816102e30152818161175601526118310152600081816103db01528181611540015281816117280152611ac10152600081816101b8015281816106fa0152818161097501528181610a9001528181610e2c015281816113de0152611e4b0152612ccf6000f3fe608060405234801561001057600080fd5b50600436106101ae5760003560e01c806387d48316116100ee578063b9ec7d7411610097578063d539139311610071578063d5391393146104c5578063dc97e84e146104ec578063eeba3c3f14610513578063f7bfea2c1461052657600080fd5b8063b9ec7d7414610497578063c2ceb95f1461049f578063cf4f68d5146104b257600080fd5b806399248ea7116100c857806399248ea7146103d65780639a7b5f11146103fd578063a7533e091461048457600080fd5b806387d48316146103a757806387ee8c4c146103ba5780638ae39cac146103cd57600080fd5b80632fcd4bc01161015b578063604ef2e511610135578063604ef2e51461031857806369827402146103215780636aed34f7146103365780637b46c54f1461034957600080fd5b80632fcd4bc0146102cb57806338013f02146102de5780633825d8281461030557600080fd5b806317caf6f11161018c57806317caf6f11461029a5780631d40e439146102a35780632b8bbbe8146102b657600080fd5b806303ee9f22146101b35780630f208beb146101f757806314c376dc14610265575b600080fd5b6101da7f000000000000000000000000000000000000000000000000000000000000000081565b6040516001600160a01b0390911681526020015b60405180910390f35b61023d6102053660046128fa565b600360208181526000938452604080852090915291835291208054600182015460028301549383015460049093015491939092909185565b604080519586526020860194909452928401919091526060830152608082015260a0016101ee565b61028c7fe965846df3dd5b1dfa65f58e31477079e90140e0908b6dd31b5aead5a57cf36581565b6040519081526020016101ee565b61028c60045481565b61028c6102b13660046128fa565b610539565b6102c96102c4366004612a09565b6106de565b005b6102c96102d9366004612a2b565b610959565b6101da7f000000000000000000000000000000000000000000000000000000000000000081565b6102c96103133660046129a8565b610a74565b61028c60065481565b610329610cc5565b6040516101ee9190612aa3565b6102c961034436600461292c565b610e10565b61035c6103573660046128e0565b6110f3565b6040805182516001600160801b0316815260208084015167ffffffffffffffff90811691830191909152838301511691810191909152606091820151918101919091526080016101ee565b61028c6103b536600461292c565b6112fb565b6102c96103c8366004612a4c565b6113c2565b61028c60055481565b6101da7f000000000000000000000000000000000000000000000000000000000000000081565b61044c61040b3660046128e0565b600060208190529081526040902080546001909101546001600160801b0382169167ffffffffffffffff600160801b8204811692600160c01b909204169084565b604080516001600160801b0395909516855267ffffffffffffffff9384166020860152919092169083015260608201526080016101ee565b61028c6104923660046128e0565b6115df565b6102c96118fa565b6102c96104ad36600461292c565b611959565b6102c96104c03660046128fa565b611c9e565b61028c7f9f2df0fed2c77648de5860a4cc508cd0818c85b8b8a1ab4ceeef8d981c8956a681565b61028c7f9a9aef7c1247d5fc769b0185c052913e39673da29a880317dfd20ebf86f26a4981565b61028c610521366004612a2b565b611ddd565b6102c9610534366004612967565b611e2f565b6001600160a01b0380831660008181526020818152604080832081516080808201845282546001600160801b03808216845267ffffffffffffffff600160801b83048116858901908152600160c01b90930481168588015260019586015460608087018290528b8b526003808b52898c209d8f168c529c8a52888b20895160a081018b528154815298810154898c01526002810154998901999099529b8801549b87019b909b52600490960154928501929092528251978752948690529351949690959194919093169291164311801561061257508015155b801561061f575060045415155b1561069457600061063e856020015167ffffffffffffffff1643611ddd565b90506000600454866040015167ffffffffffffffff168361065f9190612bc7565b6106699190612ba7565b90508261067b64e8d4a5100083612bc7565b6106859190612ba7565b61068f9085612b8f565b935050505b6106d383602001516106c464e8d4a510008587600001516106b59190612bc7565b6106bf9190612ba7565b612171565b6106ce9190612be6565b6121f4565b979650505050505050565b604051632474521560e21b8152600060048201523360248201527f00000000000000000000000000000000000000000000000000000000000000006001600160a01b0316906391d148549060440160206040518083038186803b15801561074457600080fd5b505afa158015610758573d6000803e3d6000fd5b505050506040513d601f19601f8201168201806040525081019061077c91906129d1565b6107cd5760405162461bcd60e51b815260206004820152601d60248201527f5375417574683a206f6e6c794f776e657220415554485f4641494c454400000060448201526064015b60405180910390fd5b6001600160a01b038116600090815260208190526040902054600160801b900467ffffffffffffffff16156108445760405162461bcd60e51b815260206004820152601260248201527f506f6f6c20616c7265616479206578697374000000000000000000000000000060448201526064016107c4565b6004544390610854908490612b8f565b600455610862600183612246565b50604051806080016040528060006001600160801b031681526020016108878361225b565b67ffffffffffffffff16815260200161089f8561225b565b67ffffffffffffffff9081168252600060209283018190526001600160a01b0386168082528184526040918290208551815487870151888601518716600160c01b026001600160c01b0391909716600160801b026001600160c01b03199092166001600160801b03909316929092171716939093178355606090940151600190920191909155518581527f595f39ef10c3b539b41f83620205bd2e76334edf0cfda5ed207f10616e867dad910160405180910390a2505050565b604051632474521560e21b8152600060048201523360248201527f00000000000000000000000000000000000000000000000000000000000000006001600160a01b0316906391d148549060440160206040518083038186803b1580156109bf57600080fd5b505afa1580156109d3573d6000803e3d6000fd5b505050506040513d601f19601f820116820180604052508101906109f791906129d1565b610a435760405162461bcd60e51b815260206004820152601d60248201527f5375417574683a206f6e6c794f776e657220415554485f4641494c454400000060448201526064016107c4565b600082815260076020526040902081905580610a6957610a646008836122db565b505050565b610a646008836122e7565b604051632474521560e21b8152600060048201523360248201527f00000000000000000000000000000000000000000000000000000000000000006001600160a01b0316906391d148549060440160206040518083038186803b158015610ada57600080fd5b505afa158015610aee573d6000803e3d6000fd5b505050506040513d601f19601f82011682018060405250810190610b1291906129d1565b610b5e5760405162461bcd60e51b815260206004820152601d60248201527f5375417574683a206f6e6c794f776e657220415554485f4641494c454400000060448201526064016107c4565b6001600160a01b038216600090815260208190526040902054600160801b900467ffffffffffffffff16610bd45760405162461bcd60e51b815260206004820152601260248201527f506f6f6c20646f65736e2774206578697374000000000000000000000000000060448201526064016107c4565b610bdd826110f3565b506001600160a01b0382166000908152602081905260409020546004548291610c1891600160c01b90910467ffffffffffffffff1690612c25565b610c229190612b8f565b600455610c2e8161225b565b6001600160a01b0383166000908152602081905260409020805467ffffffffffffffff92909216600160c01b026001600160c01b0390921691909117905580610c7e57610c7c6001836122f3565b505b816001600160a01b03167f57096e403eca2ab85e7ad27527b2efe1598aaf6760715227633947f3652a0f6b82604051610cb991815260200190565b60405180910390a25050565b60606000610cd36008612308565b805190915060008167ffffffffffffffff811115610d0157634e487b7160e01b600052604160045260246000fd5b604051908082528060200260200182016040528015610d4657816020015b6040805180820190915260008082526020820152815260200190600190039081610d1f5790505b50905060005b82811015610e08576040518060400160405280858381518110610d7f57634e487b7160e01b600052603260045260246000fd5b6020026020010151815260200160076000878581518110610db057634e487b7160e01b600052603260045260246000fd5b6020026020010151815260200190815260200160002054815250828281518110610dea57634e487b7160e01b600052603260045260246000fd5b60200260200101819052508080610e0090612c68565b915050610d4c565b509392505050565b604051632474521560e21b8152600060048201523360248201527f00000000000000000000000000000000000000000000000000000000000000006001600160a01b0316906391d148549060440160206040518083038186803b158015610e7657600080fd5b505afa158015610e8a573d6000803e3d6000fd5b505050506040513d601f19601f82011682018060405250810190610eae91906129d1565b610efa5760405162461bcd60e51b815260206004820152601d60248201527f5375417574683a206f6e6c794f776e657220415554485f4641494c454400000060448201526064016107c4565b6000610f05846110f3565b6001600160a01b038086166000908152600360209081526040808320938816835292905220600281015491925090610f7f5760405162461bcd60e51b815260206004820152601e60248201527f55736572206d756c7469706c696361746f7220657175696c73207a65726f000060448201526064016107c4565b600081600301548260040154610f959190612b8f565b421015610faa57610fa78686866112fb565b90505b6000670de0b6b3a7640000836002015486610fc59190612bc7565b610fcf9190612ba7565b9050610fda82612171565b8451610ffa9064e8d4a51000906106b5906001600160801b031685612bc7565b84600101546110099190612be6565b6110139190612b25565b60018401558254611025908290612c25565b83556060840151611037908290612c25565b606085019081526001600160a01b038881166000818152602081815260409182902089518154838c0151858d01516001600160801b039093166001600160c01b031990921691909117600160801b67ffffffffffffffff92831602176001600160c01b0316600160c01b91909216021781559451600190950194909455518481529092918916917f5c89d0cd1567084571f8083b115429597fe4af296968d67b6b7ebc9d12777e8791015b60405180910390a350505050505050565b604080516080810182526000808252602082018190529181018290526060810191909152506001600160a01b03811660009081526020818152604091829020825160808101845281546001600160801b038116825267ffffffffffffffff600160801b82048116948301859052600160c01b90910416938101939093526001015460608301524311156112f657606081015180158015906111a257506000826040015167ffffffffffffffff16115b1561122a5760006111c1836020015167ffffffffffffffff1643611ddd565b90506000600454846040015167ffffffffffffffff16836111e29190612bc7565b6111ec9190612ba7565b90506112108361120164e8d4a5100084612bc7565b61120b9190612ba7565b612315565b845161121c9190612b64565b6001600160801b0316845250505b6112334361225b565b67ffffffffffffffff90811660208481019182526001600160a01b0386166000818152808352604090819020875181549551838a01518816600160c01b026001600160c01b0391909816600160801b81026001600160c01b03199098166001600160801b03909316928317979097171696909617815560608089015160019092019190915581519485529284018690528301939093527f46cf4926e42ba22492fd67b3ea0fba545c48ca18651eb6cd271e653d3308c567910160405180910390a2505b919050565b6001600160a01b0380841660009081526003602081815260408084209487168452938152838320845160a081018652815481526001820154928101929092526002810154948201859052918201546060820152600490910154608082015290916113695760009150506113bb565b6000670de0b6b3a76400008260400151856113849190612bc7565b61138e9190612ba7565b9050600061139c8787610539565b83519091506113ab8383612bc7565b6113b59190612ba7565b93505050505b9392505050565b604051632474521560e21b8152600060048201523360248201527f00000000000000000000000000000000000000000000000000000000000000006001600160a01b0316906391d148549060440160206040518083038186803b15801561142857600080fd5b505afa15801561143c573d6000803e3d6000fd5b505050506040513d601f19601f8201168201806040525081019061146091906129d1565b6114ac5760405162461bcd60e51b815260206004820152601d60248201527f5375417574683a206f6e6c794f776e657220415554485f4641494c454400000060448201526064016107c4565b438167ffffffffffffffff161161152b5760405162461bcd60e51b815260206004820152602d60248201527f456e64426c6f636b2073686f756c642062652067726561746572207468616e2060448201527f63757272656e7420626c6f636b0000000000000000000000000000000000000060648201526084016107c4565b6115336118fa565b6115686001600160a01b037f000000000000000000000000000000000000000000000000000000000000000016333085612394565b600654600090156115a35760065443101561159f574360065461158b9190612c25565b6005546115989190612bc7565b90506115a3565b5060005b6115b74367ffffffffffffffff8416612c25565b6115c18483612b8f565b6115cb9190612ba7565b6005555067ffffffffffffffff1660065550565b6001600160a01b038116600090815260208190526040812054600160801b900467ffffffffffffffff166116555760405162461bcd60e51b815260206004820152601e60248201527f526577617264436865663a20506f6f6c20646f65736e2774206578697374000060448201526064016107c4565b6004546116ca5760405162461bcd60e51b815260206004820152602760248201527f526577617264436865663a20546f74616c20616c6c6f636174696f6e20706f6960448201527f6e7420697320300000000000000000000000000000000000000000000000000060648201526084016107c4565b6004546001600160a01b03831660009081526020819052604081205460055491929161170791600160c01b900467ffffffffffffffff1690612bc7565b6117119190612ba7565b6040516306addfb360e31b81526001600160a01b037f0000000000000000000000000000000000000000000000000000000000000000811660048301529192506000917f0000000000000000000000000000000000000000000000000000000000000000169063356efd989060240160206040518083038186803b15801561179857600080fd5b505afa1580156117ac573d6000803e3d6000fd5b505050506040513d601f19601f820116820180604052508101906117d091906129f1565b90506000816117e0846004612bc7565b6117eb90603c612bc7565b6117f6906018612bc7565b6118029061016e612bc7565b61180c9190612bc7565b6040516306addfb360e31b81526001600160a01b0387811660048301529192506000917f0000000000000000000000000000000000000000000000000000000000000000169063356efd989060240160206040518083038186803b15801561187357600080fd5b505afa158015611887573d6000803e3d6000fd5b505050506040513d601f19601f820116820180604052508101906118ab91906129f1565b6001600160a01b0387166000908152602081905260409020600101546118d19190612bc7565b9050806118e683670de0b6b3a7640000612bc7565b6118f09190612ba7565b9695505050505050565b60006119066001612308565b805190915060005b81811015610a645761194683828151811061193957634e487b7160e01b600052603260045260246000fd5b60200260200101516110f3565b508061195181612c68565b91505061190e565b6000611964846110f3565b6001600160a01b0385166000908152600360208181526040808420338552909152909120908101546004820154929350909142916119a191612b8f565b1115611a155760405162461bcd60e51b815260206004820152602360248201527f43616e27742068617276657374206265666f7265206c6f636b7570206973206f60448201527f766572000000000000000000000000000000000000000000000000000000000060648201526084016107c4565b6002810154611a665760405162461bcd60e51b815260206004820152601e60248201527f55736572206d756c7469706c696361746f7220657175696c73207a65726f000060448201526064016107c4565b6000611a8e64e8d4a5100084600001516001600160801b031684600001546106b59190612bc7565b90506000611aa58360010154836106ce9190612be6565b6001840183905590508015611ae857611ae86001600160a01b037f000000000000000000000000000000000000000000000000000000000000000016878361244b565b42600484015560008581526007602052604090205480611b4a5760405162461bcd60e51b815260206004820152601d60248201527f4e6577206d756c7469706c696361746f7220657175696c73207a65726f00000060448201526064016107c4565b8084600201541015611bcb578354600285015460009190611b6b8483612bc7565b611b759190612ba7565b611b7f9190612c25565b8554909150611b8f908290612b8f565b85558551611bb19064e8d4a51000906106b5906001600160801b031684612bc7565b8560010154611bc09190612b25565b600186015550611c4d565b8084600201541115611c4d5760008460020154828660000154611bee9190612bc7565b611bf89190612ba7565b8554611c049190612c25565b9050611c2864e8d4a5100087600001516001600160801b0316836106b59190612bc7565b8560010154611c379190612be6565b60018601558454611c49908290612c25565b8555505b600284018190556040518281526001600160a01b0389169033907fa0306f61d3fafe13787b78e276cb6b644382854a66cb46daae14227d3ec267979060200160405180910390a35050505050505050565b6001600160a01b038216600090815260208181526040808320600380845282852033865290935292208054918101546001840154919291611ce0908390612c25565b60018581019182556001600160a01b038881166000818152602081815260408083208b5481546001600160801b039091167fffffffffffffffffffffffffffffffff000000000000000000000000000000008216811783558d546001600160c01b031990921617600160801b9182900467ffffffffffffffff908116909202178083558d546001600160c01b03909116600160c01b91829004909216021781559654968601969096558189559388018190556003880155835186815292830185905290881692909133917f0b29f3a03cca6d26633adab7fad4d1d3383ee338e01e04ebcf40d0beff8838fe910160405180910390a4505050505050565b60008260065411611df057506000611e29565b600654821015611e1857600554611e078484612c25565b611e119190612bc7565b9050611e29565b60055483600654611e079190612c25565b92915050565b604051632474521560e21b8152600060048201523360248201527f00000000000000000000000000000000000000000000000000000000000000006001600160a01b0316906391d148549060440160206040518083038186803b158015611e9557600080fd5b505afa158015611ea9573d6000803e3d6000fd5b505050506040513d601f19601f82011682018060405250810190611ecd91906129d1565b611f195760405162461bcd60e51b815260206004820152601d60248201527f5375417574683a206f6e6c794f776e657220415554485f4641494c454400000060448201526064016107c4565b6000611f24856110f3565b6001600160a01b038087166000908152600360208181526040808420948a1684529390529190209081015491925090611f7d57600083815260076020526040902054600282015560038101839055426004820155611ff6565b82816003015414611ff65760405162461bcd60e51b815260206004820152602560248201527f4578697374696e67206465706f7369742068617320646966666572656e74206c60448201527f6f636b757000000000000000000000000000000000000000000000000000000060648201526084016107c4565b60028101546120475760405162461bcd60e51b815260206004820152601e60248201527f55736572206d756c7469706c696361746f7220657175696c73207a65726f000060448201526064016107c4565b6000670de0b6b3a76400008260020154866120629190612bc7565b61206c9190612ba7565b825490915061207c908290612b8f565b8255825161209e9064e8d4a51000906106b5906001600160801b031684612bc7565b82600101546120ad9190612b25565b600183015560608301516120c2908290612b8f565b606084019081526001600160a01b038881166000818152602081815260409182902088518154838b0151858c01516001600160801b039093166001600160c01b031990921691909117600160801b67ffffffffffffffff92831602176001600160c01b0316600160c01b91909216021781559451600190950194909455518481529092918916917fbe0e56c891bb7033dc9f0c815fb5e1fd09ee48ffbc1c32b504a52911a542467091016110e2565b60006001600160ff1b038211156121f05760405162461bcd60e51b815260206004820152602860248201527f53616665436173743a2076616c756520646f65736e27742066697420696e206160448201527f6e20696e7432353600000000000000000000000000000000000000000000000060648201526084016107c4565b5090565b6000808212156121f05760405162461bcd60e51b815260206004820181905260248201527f53616665436173743a2076616c7565206d75737420626520706f73697469766560448201526064016107c4565b60006113bb836001600160a01b038416612494565b600067ffffffffffffffff8211156121f05760405162461bcd60e51b815260206004820152602660248201527f53616665436173743a2076616c756520646f65736e27742066697420696e203660448201527f342062697473000000000000000000000000000000000000000000000000000060648201526084016107c4565b60006113bb83836124e3565b60006113bb8383612494565b60006113bb836001600160a01b0384166124e3565b606060006113bb83612600565b60006001600160801b038211156121f05760405162461bcd60e51b815260206004820152602760248201527f53616665436173743a2076616c756520646f65736e27742066697420696e203160448201527f323820626974730000000000000000000000000000000000000000000000000060648201526084016107c4565b6040516001600160a01b03808516602483015283166044820152606481018290526124459085907f23b872dd00000000000000000000000000000000000000000000000000000000906084015b60408051601f198184030181529190526020810180517bffffffffffffffffffffffffffffffffffffffffffffffffffffffff167fffffffff000000000000000000000000000000000000000000000000000000009093169290921790915261265c565b50505050565b6040516001600160a01b038316602482015260448101829052610a649084907fa9059cbb00000000000000000000000000000000000000000000000000000000906064016123e1565b60008181526001830160205260408120546124db57508154600181810184556000848152602080822090930184905584548482528286019093526040902091909155611e29565b506000611e29565b600081815260018301602052604081205480156125f6576000612507600183612c25565b855490915060009061251b90600190612c25565b905081811461259c57600086600001828154811061254957634e487b7160e01b600052603260045260246000fd5b906000526020600020015490508087600001848154811061257a57634e487b7160e01b600052603260045260246000fd5b6000918252602080832090910192909255918252600188019052604090208390555b85548690806125bb57634e487b7160e01b600052603160045260246000fd5b600190038181906000526020600020016000905590558560010160008681526020019081526020016000206000905560019350505050611e29565b6000915050611e29565b60608160000180548060200260200160405190810160405280929190818152602001828054801561265057602002820191906000526020600020905b81548152602001906001019080831161263c575b50505050509050919050565b60006126b1826040518060400160405280602081526020017f5361666545524332303a206c6f772d6c6576656c2063616c6c206661696c6564815250856001600160a01b03166127419092919063ffffffff16565b805190915015610a6457808060200190518101906126cf91906129d1565b610a645760405162461bcd60e51b815260206004820152602a60248201527f5361666545524332303a204552433230206f7065726174696f6e20646964206e60448201527f6f7420737563636565640000000000000000000000000000000000000000000060648201526084016107c4565b60606127508484600085612758565b949350505050565b6060824710156127d05760405162461bcd60e51b815260206004820152602660248201527f416464726573733a20696e73756666696369656e742062616c616e636520666f60448201527f722063616c6c000000000000000000000000000000000000000000000000000060648201526084016107c4565b6001600160a01b0385163b6128275760405162461bcd60e51b815260206004820152601d60248201527f416464726573733a2063616c6c20746f206e6f6e2d636f6e747261637400000060448201526064016107c4565b600080866001600160a01b031685876040516128439190612a87565b60006040518083038185875af1925050503d8060008114612880576040519150601f19603f3d011682016040523d82523d6000602084013e612885565b606091505b50915091506106d38282866060831561289f5750816113bb565b8251156128af5782518084602001fd5b8160405162461bcd60e51b81526004016107c49190612af2565b80356001600160a01b03811681146112f657600080fd5b6000602082840312156128f1578081fd5b6113bb826128c9565b6000806040838503121561290c578081fd5b612915836128c9565b9150612923602084016128c9565b90509250929050565b600080600060608486031215612940578081fd5b612949846128c9565b9250612957602085016128c9565b9150604084013590509250925092565b6000806000806080858703121561297c578081fd5b612985856128c9565b9350612993602086016128c9565b93969395505050506040820135916060013590565b600080604083850312156129ba578182fd5b6129c3836128c9565b946020939093013593505050565b6000602082840312156129e2578081fd5b815180151581146113bb578182fd5b600060208284031215612a02578081fd5b5051919050565b60008060408385031215612a1b578182fd5b82359150612923602084016128c9565b60008060408385031215612a3d578182fd5b50508035926020909101359150565b60008060408385031215612a5e578182fd5b82359150602083013567ffffffffffffffff81168114612a7c578182fd5b809150509250929050565b60008251612a99818460208701612c3c565b9190910192915050565b602080825282518282018190526000919060409081850190868401855b82811015612ae557815180518552860151868501529284019290850190600101612ac0565b5091979650505050505050565b6020815260008251806020840152612b11816040850160208701612c3c565b601f01601f19169190910160400192915050565b6000808212826001600160ff1b0303841381151615612b4657612b46612c83565b82600160ff1b038412811615612b5e57612b5e612c83565b50500190565b60006001600160801b03808316818516808303821115612b8657612b86612c83565b01949350505050565b60008219821115612ba257612ba2612c83565b500190565b600082612bc257634e487b7160e01b81526012600452602481fd5b500490565b6000816000190483118215151615612be157612be1612c83565b500290565b600080831283600160ff1b01831281151615612c0457612c04612c83565b836001600160ff1b03018313811615612c1f57612c1f612c83565b50500390565b600082821015612c3757612c37612c83565b500390565b60005b83811015612c57578181015183820152602001612c3f565b838111156124455750506000910152565b6000600019821415612c7c57612c7c612c83565b5060010190565b634e487b7160e01b600052601160045260246000fdfea2646970667358221220a095dce9c38152b9337d53e302df3ac23c346eca840357395cabfcb5d669302764736f6c63430008040033",
  "devdoc": {
    "kind": "dev",
    "methods": {
      "add(uint256,address)": {
        "params": {
          "_asset": "Address of the ERC-20 token.",
          "allocPoint": "AP of the new pool."
        }
      },
      "constructor": {
        "params": {
          "_rewardToken": "The REWARD_TOKEN token contract address."
        }
      },
      "harvest(address,address,uint256)": {
        "params": {
          "asset": "Asset address",
          "to": "Receiver of REWARD_TOKEN rewards."
        }
      },
      "pendingSushi(address,address)": {
        "params": {
          "_asset": "Address of the ERC-20 token.",
          "_user": "Address of user."
        },
        "returns": {
          "pending": "REWARD_TOKEN reward for a given user."
        }
      },
      "resetAmount(address,address)": {
        "params": {
          "asset": "Asset address",
          "to": "The address of the user whose information will be cleared"
        }
      },
      "rewardsBetweenBlocks(uint256,uint256)": {
        "details": "returns total amount of rewards allocated to the all pools on the rage (startBlock, endBlock]      i.e. excluding startBlock but including endBlock"
      },
      "set(address,uint256)": {
        "params": {
          "_allocPoint": "New AP of the pool.",
          "_asset": "Address of the ERC-20 token."
        }
      },
      "updatePool(address)": {
        "params": {
          "asset": "Asset address"
        },
        "returns": {
          "pool": "Returns the pool that was updated."
        }
      }
    },
    "stateVariables": {
      "totalAllocPoint": {
        "details": "Total allocation points. Must be the sum of all allocation points in all pools. The good practice, to always keep this variable is equal 1000."
      }
    },
    "version": 1
  },
  "userdoc": {
    "kind": "user",
    "methods": {
      "REWARD_TOKEN()": {
        "notice": "Address of REWARD_TOKEN contract."
      },
      "add(uint256,address)": {
        "notice": "Add a new reward pool. Can only be called by the owner. DO NOT add the same LP token more than once."
      },
      "decreaseAmount(address,address,uint256)": {
        "notice": "Analogues to MVC2 Withdraw method, that can be called only by trusted address that is trusted to honestly calc how many \"virtual\" tokens have to be allocated for each user."
      },
      "harvest(address,address,uint256)": {
        "notice": "Harvest proceeds for transaction sender to `to`."
      },
      "increaseAmount(address,address,uint256,uint256)": {
        "notice": "analogues to MCV2 Deposit method, but can be called only by trusted address"
      },
      "pendingSushi(address,address)": {
        "notice": "View function to see pending REWARD_TOKEN on frontend."
      },
      "poolInfo(address)": {
        "notice": "Info of each MCV2 pool. PoolInfo memory pool = poolInfo[_pid]"
      },
      "resetAmount(address,address)": {
        "notice": "Withdraw without caring about rewards. EMERGENCY ONLY."
      },
      "set(address,uint256)": {
        "notice": "Update the given pool's REWARD_TOKEN allocation point. Can only be called by the owner."
      },
      "updateAllPools()": {
        "notice": "Update reward variables for all pools. Be careful of gas spending!"
      },
      "updatePool(address)": {
        "notice": "Update reward variables of the given pool."
      },
      "userInfo(address,address)": {
        "notice": "Info of each user that stakes tokens. userInfo[_asset][_user]"
      }
    },
    "notice": "This contract is based on MVC2, but uses \"virtual\" balances instead of storing real ERC20 tokens and uses address of this assets instead of pid. Rewards that are distributed have to be deposited using refillReward(uint256 amount, uint64 endBlock)",
    "version": 1
  },
  "storageLayout": {
    "storage": [
      {
        "astId": 11085,
        "contract": "contracts/reward/RewardChefV2.sol:RewardChefV2",
        "label": "poolInfo",
        "offset": 0,
        "slot": "0",
        "type": "t_mapping(t_address,t_struct(PoolInfo)4537_storage)"
      },
      {
        "astId": 11089,
        "contract": "contracts/reward/RewardChefV2.sol:RewardChefV2",
        "label": "assetSet",
        "offset": 0,
        "slot": "1",
        "type": "t_struct(AddressSet)2800_storage"
      },
      {
        "astId": 11097,
        "contract": "contracts/reward/RewardChefV2.sol:RewardChefV2",
        "label": "userInfo",
        "offset": 0,
        "slot": "3",
        "type": "t_mapping(t_address,t_mapping(t_address,t_struct(UserInfo)4548_storage))"
      },
      {
        "astId": 11101,
        "contract": "contracts/reward/RewardChefV2.sol:RewardChefV2",
        "label": "totalAllocPoint",
        "offset": 0,
        "slot": "4",
        "type": "t_uint256"
      },
      {
        "astId": 11114,
        "contract": "contracts/reward/RewardChefV2.sol:RewardChefV2",
        "label": "rewardPerBlock",
        "offset": 0,
        "slot": "5",
        "type": "t_uint256"
      },
      {
        "astId": 11117,
        "contract": "contracts/reward/RewardChefV2.sol:RewardChefV2",
        "label": "rewardEndBlock",
        "offset": 0,
        "slot": "6",
        "type": "t_uint256"
      },
      {
        "astId": 11246,
        "contract": "contracts/reward/RewardChefV2.sol:RewardChefV2",
        "label": "multiplicator1e18ForLockupPeriod",
        "offset": 0,
        "slot": "7",
        "type": "t_mapping(t_uint256,t_uint256)"
      },
      {
        "astId": 11249,
        "contract": "contracts/reward/RewardChefV2.sol:RewardChefV2",
        "label": "possibleLockupPeriodsSeconds",
        "offset": 0,
        "slot": "8",
        "type": "t_struct(UintSet)2957_storage"
      }
    ],
    "types": {
      "t_address": {
        "encoding": "inplace",
        "label": "address",
        "numberOfBytes": "20"
      },
      "t_array(t_bytes32)dyn_storage": {
        "base": "t_bytes32",
        "encoding": "dynamic_array",
        "label": "bytes32[]",
        "numberOfBytes": "32"
      },
      "t_bytes32": {
        "encoding": "inplace",
        "label": "bytes32",
        "numberOfBytes": "32"
      },
      "t_int256": {
        "encoding": "inplace",
        "label": "int256",
        "numberOfBytes": "32"
      },
      "t_mapping(t_address,t_mapping(t_address,t_struct(UserInfo)4548_storage))": {
        "encoding": "mapping",
        "key": "t_address",
        "label": "mapping(address => mapping(address => struct IRewardChefV2.UserInfo))",
        "numberOfBytes": "32",
        "value": "t_mapping(t_address,t_struct(UserInfo)4548_storage)"
      },
      "t_mapping(t_address,t_struct(PoolInfo)4537_storage)": {
        "encoding": "mapping",
        "key": "t_address",
        "label": "mapping(address => struct IRewardChefV2.PoolInfo)",
        "numberOfBytes": "32",
        "value": "t_struct(PoolInfo)4537_storage"
      },
      "t_mapping(t_address,t_struct(UserInfo)4548_storage)": {
        "encoding": "mapping",
        "key": "t_address",
        "label": "mapping(address => struct IRewardChefV2.UserInfo)",
        "numberOfBytes": "32",
        "value": "t_struct(UserInfo)4548_storage"
      },
      "t_mapping(t_bytes32,t_uint256)": {
        "encoding": "mapping",
        "key": "t_bytes32",
        "label": "mapping(bytes32 => uint256)",
        "numberOfBytes": "32",
        "value": "t_uint256"
      },
      "t_mapping(t_uint256,t_uint256)": {
        "encoding": "mapping",
        "key": "t_uint256",
        "label": "mapping(uint256 => uint256)",
        "numberOfBytes": "32",
        "value": "t_uint256"
      },
      "t_struct(AddressSet)2800_storage": {
        "encoding": "inplace",
        "label": "struct EnumerableSet.AddressSet",
        "members": [
          {
            "astId": 2799,
            "contract": "contracts/reward/RewardChefV2.sol:RewardChefV2",
            "label": "_inner",
            "offset": 0,
            "slot": "0",
            "type": "t_struct(Set)2499_storage"
          }
        ],
        "numberOfBytes": "64"
      },
      "t_struct(PoolInfo)4537_storage": {
        "encoding": "inplace",
        "label": "struct IRewardChefV2.PoolInfo",
        "members": [
          {
            "astId": 4530,
            "contract": "contracts/reward/RewardChefV2.sol:RewardChefV2",
            "label": "accSushiPerShare",
            "offset": 0,
            "slot": "0",
            "type": "t_uint128"
          },
          {
            "astId": 4532,
            "contract": "contracts/reward/RewardChefV2.sol:RewardChefV2",
            "label": "lastRewardBlock",
            "offset": 16,
            "slot": "0",
            "type": "t_uint64"
          },
          {
            "astId": 4534,
            "contract": "contracts/reward/RewardChefV2.sol:RewardChefV2",
            "label": "allocPoint",
            "offset": 24,
            "slot": "0",
            "type": "t_uint64"
          },
          {
            "astId": 4536,
            "contract": "contracts/reward/RewardChefV2.sol:RewardChefV2",
            "label": "lpSupply",
            "offset": 0,
            "slot": "1",
            "type": "t_uint256"
          }
        ],
        "numberOfBytes": "64"
      },
      "t_struct(Set)2499_storage": {
        "encoding": "inplace",
        "label": "struct EnumerableSet.Set",
        "members": [
          {
            "astId": 2494,
            "contract": "contracts/reward/RewardChefV2.sol:RewardChefV2",
            "label": "_values",
            "offset": 0,
            "slot": "0",
            "type": "t_array(t_bytes32)dyn_storage"
          },
          {
            "astId": 2498,
            "contract": "contracts/reward/RewardChefV2.sol:RewardChefV2",
            "label": "_indexes",
            "offset": 0,
            "slot": "1",
            "type": "t_mapping(t_bytes32,t_uint256)"
          }
        ],
        "numberOfBytes": "64"
      },
      "t_struct(UintSet)2957_storage": {
        "encoding": "inplace",
        "label": "struct EnumerableSet.UintSet",
        "members": [
          {
            "astId": 2956,
            "contract": "contracts/reward/RewardChefV2.sol:RewardChefV2",
            "label": "_inner",
            "offset": 0,
            "slot": "0",
            "type": "t_struct(Set)2499_storage"
          }
        ],
        "numberOfBytes": "64"
      },
      "t_struct(UserInfo)4548_storage": {
        "encoding": "inplace",
        "label": "struct IRewardChefV2.UserInfo",
        "members": [
          {
            "astId": 4539,
            "contract": "contracts/reward/RewardChefV2.sol:RewardChefV2",
            "label": "amount",
            "offset": 0,
            "slot": "0",
            "type": "t_uint256"
          },
          {
            "astId": 4541,
            "contract": "contracts/reward/RewardChefV2.sol:RewardChefV2",
            "label": "rewardDebt",
            "offset": 0,
            "slot": "1",
            "type": "t_int256"
          },
          {
            "astId": 4543,
            "contract": "contracts/reward/RewardChefV2.sol:RewardChefV2",
            "label": "multiplicator1e18",
            "offset": 0,
            "slot": "2",
            "type": "t_uint256"
          },
          {
            "astId": 4545,
            "contract": "contracts/reward/RewardChefV2.sol:RewardChefV2",
            "label": "lockupPeriodSeconds",
            "offset": 0,
            "slot": "3",
            "type": "t_uint256"
          },
          {
            "astId": 4547,
            "contract": "contracts/reward/RewardChefV2.sol:RewardChefV2",
            "label": "lockupStartTimestamp",
            "offset": 0,
            "slot": "4",
            "type": "t_uint256"
          }
        ],
        "numberOfBytes": "160"
      },
      "t_uint128": {
        "encoding": "inplace",
        "label": "uint128",
        "numberOfBytes": "16"
      },
      "t_uint256": {
        "encoding": "inplace",
        "label": "uint256",
        "numberOfBytes": "32"
      },
      "t_uint64": {
        "encoding": "inplace",
        "label": "uint64",
        "numberOfBytes": "8"
      }
    }
  }
}