{
  "address": "0xAbB10bf201c53eF0B7c462A6d998119C12D1F91D",
  "abi": [
    {
      "inputs": [
        {
          "internalType": "address",
          "name": "_authControl",
          "type": "address"
        },
        {
          "internalType": "contract IERC20",
          "name": "_rewardToken",
          "type": "address"
        }
      ],
      "stateMutability": "nonpayable",
      "type": "constructor"
    },
    {
      "anonymous": false,
      "inputs": [
        {
          "indexed": true,
          "internalType": "address",
          "name": "user",
          "type": "address"
        },
        {
          "indexed": true,
          "internalType": "address",
          "name": "asset",
          "type": "address"
        },
        {
          "indexed": false,
          "internalType": "uint256",
          "name": "amount",
          "type": "uint256"
        }
      ],
      "name": "Harvest",
      "type": "event"
    },
    {
      "anonymous": false,
      "inputs": [
        {
          "indexed": true,
          "internalType": "address",
          "name": "asset",
          "type": "address"
        },
        {
          "indexed": false,
          "internalType": "uint256",
          "name": "allocPoint",
          "type": "uint256"
        }
      ],
      "name": "LogPoolAddition",
      "type": "event"
    },
    {
      "anonymous": false,
      "inputs": [
        {
          "indexed": true,
          "internalType": "address",
          "name": "asset",
          "type": "address"
        },
        {
          "indexed": false,
          "internalType": "uint256",
          "name": "allocPoint",
          "type": "uint256"
        }
      ],
      "name": "LogSetPool",
      "type": "event"
    },
    {
      "anonymous": false,
      "inputs": [
        {
          "indexed": true,
          "internalType": "address",
          "name": "asset",
          "type": "address"
        },
        {
          "indexed": false,
          "internalType": "uint64",
          "name": "lastRewardBlock",
          "type": "uint64"
        },
        {
          "indexed": false,
          "internalType": "uint256",
          "name": "lpSupply",
          "type": "uint256"
        },
        {
          "indexed": false,
          "internalType": "uint256",
          "name": "accSushiPerShare",
          "type": "uint256"
        }
      ],
      "name": "LogUpdatePool",
      "type": "event"
    },
    {
      "anonymous": false,
      "inputs": [
        {
          "indexed": true,
          "internalType": "address",
          "name": "user",
          "type": "address"
        },
        {
          "indexed": true,
          "internalType": "address",
          "name": "asset",
          "type": "address"
        },
        {
          "indexed": false,
          "internalType": "uint256",
          "name": "amount",
          "type": "uint256"
        },
        {
          "indexed": true,
          "internalType": "address",
          "name": "to",
          "type": "address"
        }
      ],
      "name": "ResetAmount",
      "type": "event"
    },
    {
      "anonymous": false,
      "inputs": [
        {
          "indexed": true,
          "internalType": "address",
          "name": "user",
          "type": "address"
        },
        {
          "indexed": true,
          "internalType": "address",
          "name": "asset",
          "type": "address"
        },
        {
          "indexed": false,
          "internalType": "uint256",
          "name": "amount",
          "type": "uint256"
        }
      ],
      "name": "VirtualDeposit",
      "type": "event"
    },
    {
      "anonymous": false,
      "inputs": [
        {
          "indexed": true,
          "internalType": "address",
          "name": "user",
          "type": "address"
        },
        {
          "indexed": true,
          "internalType": "address",
          "name": "asset",
          "type": "address"
        },
        {
          "indexed": false,
          "internalType": "uint256",
          "name": "amount",
          "type": "uint256"
        }
      ],
      "name": "VirtualWithdraw",
      "type": "event"
    },
    {
      "inputs": [],
      "name": "ACCESS_CONTROL_SINGLETON",
      "outputs": [
        {
          "internalType": "contract ISuAccessControl",
          "name": "",
          "type": "address"
        }
      ],
      "stateMutability": "view",
      "type": "function"
    },
    {
      "inputs": [],
      "name": "MINTER_ROLE",
      "outputs": [
        {
          "internalType": "bytes32",
          "name": "",
          "type": "bytes32"
        }
      ],
      "stateMutability": "view",
      "type": "function"
    },
    {
      "inputs": [],
      "name": "REWARD_TOKEN",
      "outputs": [
        {
          "internalType": "contract IERC20",
          "name": "",
          "type": "address"
        }
      ],
      "stateMutability": "view",
      "type": "function"
    },
    {
      "inputs": [],
      "name": "VAULT_ACCESS_ROLE",
      "outputs": [
        {
          "internalType": "bytes32",
          "name": "",
          "type": "bytes32"
        }
      ],
      "stateMutability": "view",
      "type": "function"
    },
    {
      "inputs": [
        {
          "internalType": "uint256",
          "name": "allocPoint",
          "type": "uint256"
        },
        {
          "internalType": "address",
          "name": "_asset",
          "type": "address"
        }
      ],
      "name": "add",
      "outputs": [],
      "stateMutability": "nonpayable",
      "type": "function"
    },
    {
      "inputs": [
        {
          "internalType": "address",
          "name": "asset",
          "type": "address"
        },
        {
          "internalType": "address",
          "name": "to",
          "type": "address"
        },
        {
          "internalType": "uint256",
          "name": "amountEDecimal",
          "type": "uint256"
        }
      ],
      "name": "decreaseAmount",
      "outputs": [],
      "stateMutability": "nonpayable",
      "type": "function"
    },
    {
      "inputs": [
        {
          "internalType": "address",
          "name": "asset",
          "type": "address"
        },
        {
          "internalType": "address",
          "name": "to",
          "type": "address"
        }
      ],
      "name": "harvest",
      "outputs": [],
      "stateMutability": "nonpayable",
      "type": "function"
    },
    {
      "inputs": [
        {
          "internalType": "address",
          "name": "asset",
          "type": "address"
        },
        {
          "internalType": "address",
          "name": "to",
          "type": "address"
        },
        {
          "internalType": "uint256",
          "name": "amountEDecimal",
          "type": "uint256"
        }
      ],
      "name": "increaseAmount",
      "outputs": [],
      "stateMutability": "nonpayable",
      "type": "function"
    },
    {
      "inputs": [
        {
          "internalType": "address",
          "name": "_asset",
          "type": "address"
        },
        {
          "internalType": "address",
          "name": "_user",
          "type": "address"
        }
      ],
      "name": "pendingSushi",
      "outputs": [
        {
          "internalType": "uint256",
          "name": "pending",
          "type": "uint256"
        }
      ],
      "stateMutability": "view",
      "type": "function"
    },
    {
      "inputs": [
        {
          "internalType": "address",
          "name": "",
          "type": "address"
        }
      ],
      "name": "poolInfo",
      "outputs": [
        {
          "internalType": "uint128",
          "name": "accSushiPerShare",
          "type": "uint128"
        },
        {
          "internalType": "uint64",
          "name": "lastRewardBlock",
          "type": "uint64"
        },
        {
          "internalType": "uint64",
          "name": "allocPoint",
          "type": "uint64"
        },
        {
          "internalType": "uint256",
          "name": "lpSupply",
          "type": "uint256"
        }
      ],
      "stateMutability": "view",
      "type": "function"
    },
    {
      "inputs": [
        {
          "internalType": "uint256",
          "name": "amount",
          "type": "uint256"
        },
        {
          "internalType": "uint64",
          "name": "endBlock",
          "type": "uint64"
        }
      ],
      "name": "refillReward",
      "outputs": [],
      "stateMutability": "nonpayable",
      "type": "function"
    },
    {
      "inputs": [
        {
          "internalType": "address",
          "name": "asset",
          "type": "address"
        },
        {
          "internalType": "address",
          "name": "to",
          "type": "address"
        }
      ],
      "name": "resetAmount",
      "outputs": [],
      "stateMutability": "nonpayable",
      "type": "function"
    },
    {
      "inputs": [],
      "name": "rewardEndBlock",
      "outputs": [
        {
          "internalType": "uint256",
          "name": "",
          "type": "uint256"
        }
      ],
      "stateMutability": "view",
      "type": "function"
    },
    {
      "inputs": [],
      "name": "rewardPerBlock",
      "outputs": [
        {
          "internalType": "uint256",
          "name": "",
          "type": "uint256"
        }
      ],
      "stateMutability": "view",
      "type": "function"
    },
    {
      "inputs": [
        {
          "internalType": "uint256",
          "name": "startBlock",
          "type": "uint256"
        },
        {
          "internalType": "uint256",
          "name": "endBlock",
          "type": "uint256"
        }
      ],
      "name": "rewardsBetweenBlocks",
      "outputs": [
        {
          "internalType": "uint256",
          "name": "",
          "type": "uint256"
        }
      ],
      "stateMutability": "view",
      "type": "function"
    },
    {
      "inputs": [
        {
          "internalType": "address",
          "name": "_asset",
          "type": "address"
        },
        {
          "internalType": "uint256",
          "name": "_allocPoint",
          "type": "uint256"
        }
      ],
      "name": "set",
      "outputs": [],
      "stateMutability": "nonpayable",
      "type": "function"
    },
    {
      "inputs": [],
      "name": "totalAllocPoint",
      "outputs": [
        {
          "internalType": "uint256",
          "name": "",
          "type": "uint256"
        }
      ],
      "stateMutability": "view",
      "type": "function"
    },
    {
      "inputs": [],
      "name": "updateAllPools",
      "outputs": [],
      "stateMutability": "nonpayable",
      "type": "function"
    },
    {
      "inputs": [
        {
          "internalType": "address",
          "name": "asset",
          "type": "address"
        }
      ],
      "name": "updatePool",
      "outputs": [
        {
          "components": [
            {
              "internalType": "uint128",
              "name": "accSushiPerShare",
              "type": "uint128"
            },
            {
              "internalType": "uint64",
              "name": "lastRewardBlock",
              "type": "uint64"
            },
            {
              "internalType": "uint64",
              "name": "allocPoint",
              "type": "uint64"
            },
            {
              "internalType": "uint256",
              "name": "lpSupply",
              "type": "uint256"
            }
          ],
          "internalType": "struct IRewardChefV2.PoolInfo",
          "name": "pool",
          "type": "tuple"
        }
      ],
      "stateMutability": "nonpayable",
      "type": "function"
    },
    {
      "inputs": [
        {
          "internalType": "address",
          "name": "",
          "type": "address"
        },
        {
          "internalType": "address",
          "name": "",
          "type": "address"
        }
      ],
      "name": "userInfo",
      "outputs": [
        {
          "internalType": "uint256",
          "name": "amount",
          "type": "uint256"
        },
        {
          "internalType": "int256",
          "name": "rewardDebt",
          "type": "int256"
        }
      ],
      "stateMutability": "view",
      "type": "function"
    }
  ],
  "transactionHash": "0xfe6bf6422086b8021732f21418ec8ace32680a784251fb45b8a65dcf82cf332d",
  "args": [
    "0x1d7E67F06d9c55C2e9F26140F679358Ed55F3535",
    "0x2D5A2DEF0C3eC6A40375502aD8F03B2089A6292f"
  ],
  "numDeployments": 1,
  "solcInputHash": "3a77249565816b4882d70e2bbafcaf5c",
  "bytecode": "0x60c06040523480156200001157600080fd5b50604051620020a7380380620020a7833981016040819052620000349162000053565b6001600160601b0319606092831b8116608052911b1660a052620000aa565b6000806040838503121562000066578182fd5b8251620000738162000091565b6020840151909250620000868162000091565b809150509250929050565b6001600160a01b0381168114620000a757600080fd5b50565b60805160601c60a05160601c611fa0620001076000396000818161033601528181610af00152611110015260008181610176015281816105b80152818161083301528181610b7b01528181610fae01526111cb0152611fa06000f3fe608060405234801561001057600080fd5b506004361061016c5760003560e01c80637b46c54f116100cd5780639a7b5f1111610081578063cf4f68d511610066578063cf4f68d5146103e7578063d5391393146103fa578063eeba3c3f1461042157600080fd5b80639a7b5f1114610358578063b9ec7d74146103df57600080fd5b80638ae39cac116100b25780638ae39cac146103155780638e39520c1461031e57806399248ea71461033157600080fd5b80637b46c54f146102a457806387ee8c4c1461030257600080fd5b80632b8bbbe811610124578063604ef2e511610109578063604ef2e51461027557806366cc18571461027e5780636aed34f71461029157600080fd5b80632b8bbbe81461024d5780633825d8281461026257600080fd5b806314c376dc1161015557806314c376dc146101fc57806317caf6f1146102315780631d40e4391461023a57600080fd5b806303ee9f22146101715780630f208beb146101b5575b600080fd5b6101987f000000000000000000000000000000000000000000000000000000000000000081565b6040516001600160a01b0390911681526020015b60405180910390f35b6101e76101c3366004611c73565b60036020908152600092835260408084209091529082529020805460019091015482565b604080519283526020830191909152016101ac565b6102237fe965846df3dd5b1dfa65f58e31477079e90140e0908b6dd31b5aead5a57cf36581565b6040519081526020016101ac565b61022360045481565b610223610248366004611c73565b610434565b61026061025b366004611d29565b61059c565b005b610260610270366004611ce0565b610817565b61022360065481565b61026061028c366004611c73565b610a68565b61026061029f366004611ca5565b610b5f565b6102b76102b2366004611c59565b610d8a565b6040805182516001600160801b0316815260208084015167ffffffffffffffff90811691830191909152838301511691810191909152606091820151918101919091526080016101ac565b610260610310366004611d6c565b610f92565b61022360055481565b61026061032c366004611ca5565b6111af565b6101987f000000000000000000000000000000000000000000000000000000000000000081565b6103a7610366366004611c59565b600060208190529081526040902080546001909101546001600160801b0382169167ffffffffffffffff600160801b8204811692600160c01b909204169084565b604080516001600160801b0395909516855267ffffffffffffffff9384166020860152919092169083015260608201526080016101ac565b6102606113cf565b6102606103f5366004611c73565b611431565b6102237f9f2df0fed2c77648de5860a4cc508cd0818c85b8b8a1ab4ceeef8d981c8956a681565b61022361042f366004611d4b565b6114a9565b6001600160a01b03808316600081815260208181526040808320815160808101835281546001600160801b03808216835267ffffffffffffffff600160801b83048116848801908152600160c01b9093048116848701526001909401546060840181905288885260038752858820998b16885298865293862082519787529486905251949690959394939092169216431180156104d057508015155b80156104dd575060045415155b156105525760006104fc856020015167ffffffffffffffff16436114a9565b90506000600454866040015167ffffffffffffffff168361051d9190611e98565b6105279190611e78565b90508261053964e8d4a5100083611e98565b6105439190611e78565b61054d9085611e60565b935050505b610591836001015461058264e8d4a510008587600001546105739190611e98565b61057d9190611e78565b6114fb565b61058c9190611eb7565b61157e565b979650505050505050565b604051632474521560e21b8152600060048201523360248201527f00000000000000000000000000000000000000000000000000000000000000006001600160a01b0316906391d148549060440160206040518083038186803b15801561060257600080fd5b505afa158015610616573d6000803e3d6000fd5b505050506040513d601f19601f8201168201806040525081019061063a9190611d09565b61068b5760405162461bcd60e51b815260206004820152601d60248201527f5375417574683a206f6e6c794f776e657220415554485f4641494c454400000060448201526064015b60405180910390fd5b6001600160a01b038116600090815260208190526040902054600160801b900467ffffffffffffffff16156107025760405162461bcd60e51b815260206004820152601260248201527f506f6f6c20616c726561647920657869737400000000000000000000000000006044820152606401610682565b6004544390610712908490611e60565b6004556107206001836115d0565b50604051806080016040528060006001600160801b03168152602001610745836115ec565b67ffffffffffffffff16815260200161075d856115ec565b67ffffffffffffffff9081168252600060209283018190526001600160a01b0386168082528184526040918290208551815487870151888601518716600160c01b026001600160c01b0391909716600160801b026001600160c01b03199092166001600160801b03909316929092171716939093178355606090940151600190920191909155518581527f595f39ef10c3b539b41f83620205bd2e76334edf0cfda5ed207f10616e867dad910160405180910390a2505050565b604051632474521560e21b8152600060048201523360248201527f00000000000000000000000000000000000000000000000000000000000000006001600160a01b0316906391d148549060440160206040518083038186803b15801561087d57600080fd5b505afa158015610891573d6000803e3d6000fd5b505050506040513d601f19601f820116820180604052508101906108b59190611d09565b6109015760405162461bcd60e51b815260206004820152601d60248201527f5375417574683a206f6e6c794f776e657220415554485f4641494c45440000006044820152606401610682565b6001600160a01b038216600090815260208190526040902054600160801b900467ffffffffffffffff166109775760405162461bcd60e51b815260206004820152601260248201527f506f6f6c20646f65736e277420657869737400000000000000000000000000006044820152606401610682565b61098082610d8a565b506001600160a01b03821660009081526020819052604090205460045482916109bb91600160c01b90910467ffffffffffffffff1690611ef6565b6109c59190611e60565b6004556109d1816115ec565b6001600160a01b0383166000908152602081905260409020805467ffffffffffffffff92909216600160c01b026001600160c01b0390921691909117905580610a2157610a1f60018361166c565b505b816001600160a01b03167f57096e403eca2ab85e7ad27527b2efe1598aaf6760715227633947f3652a0f6b82604051610a5c91815260200190565b60405180910390a25050565b6000610a7383610d8a565b6001600160a01b03841660009081526003602090815260408083203384529091528120825181549394509092610abd9164e8d4a5100091610573916001600160801b031690611e98565b90506000610ad483600101548361058c9190611eb7565b6001840183905590508015610b1757610b176001600160a01b037f0000000000000000000000000000000000000000000000000000000000000000168683611681565b6040518181526001600160a01b0387169033907fa0306f61d3fafe13787b78e276cb6b644382854a66cb46daae14227d3ec267979060200160405180910390a3505050505050565b604051632474521560e21b8152600060048201523360248201527f00000000000000000000000000000000000000000000000000000000000000006001600160a01b0316906391d148549060440160206040518083038186803b158015610bc557600080fd5b505afa158015610bd9573d6000803e3d6000fd5b505050506040513d601f19601f82011682018060405250810190610bfd9190611d09565b610c495760405162461bcd60e51b815260206004820152601d60248201527f5375417574683a206f6e6c794f776e657220415554485f4641494c45440000006044820152606401610682565b6000610c5484610d8a565b6001600160a01b038086166000908152600360209081526040808320938816835292905220815191925090610c9d9064e8d4a5100090610573906001600160801b031686611e98565b8160010154610cac9190611eb7565b60018201558054610cbe908490611ef6565b81556060820151610cd0908490611ef6565b606083019081526001600160a01b038681166000818152602081815260409182902087518154838a0151858b01516001600160801b039093166001600160c01b031990921691909117600160801b67ffffffffffffffff92831602176001600160c01b0316600160c01b91909216021781559451600190950194909455518681529092918716917f5c89d0cd1567084571f8083b115429597fe4af296968d67b6b7ebc9d12777e8791015b60405180910390a35050505050565b604080516080810182526000808252602082018190529181018290526060810191909152506001600160a01b03811660009081526020818152604091829020825160808101845281546001600160801b038116825267ffffffffffffffff600160801b82048116948301859052600160c01b9091041693810193909352600101546060830152431115610f8d5760608101518015801590610e3957506000826040015167ffffffffffffffff16115b15610ec1576000610e58836020015167ffffffffffffffff16436114a9565b90506000600454846040015167ffffffffffffffff1683610e799190611e98565b610e839190611e78565b9050610ea783610e9864e8d4a5100084611e98565b610ea29190611e78565b61172a565b8451610eb39190611e35565b6001600160801b0316845250505b610eca436115ec565b67ffffffffffffffff90811660208481019182526001600160a01b0386166000818152808352604090819020875181549551838a01518816600160c01b026001600160c01b0391909816600160801b81026001600160c01b03199098166001600160801b03909316928317979097171696909617815560608089015160019092019190915581519485529284018690528301939093527f46cf4926e42ba22492fd67b3ea0fba545c48ca18651eb6cd271e653d3308c567910160405180910390a2505b919050565b604051632474521560e21b8152600060048201523360248201527f00000000000000000000000000000000000000000000000000000000000000006001600160a01b0316906391d148549060440160206040518083038186803b158015610ff857600080fd5b505afa15801561100c573d6000803e3d6000fd5b505050506040513d601f19601f820116820180604052508101906110309190611d09565b61107c5760405162461bcd60e51b815260206004820152601d60248201527f5375417574683a206f6e6c794f776e657220415554485f4641494c45440000006044820152606401610682565b438167ffffffffffffffff16116110fb5760405162461bcd60e51b815260206004820152602d60248201527f456e64426c6f636b2073686f756c642062652067726561746572207468616e2060448201527f63757272656e7420626c6f636b000000000000000000000000000000000000006064820152608401610682565b6111036113cf565b6111386001600160a01b037f0000000000000000000000000000000000000000000000000000000000000000163330856117a9565b600654600090156111735760065443101561116f574360065461115b9190611ef6565b6005546111689190611e98565b9050611173565b5060005b6111874367ffffffffffffffff8416611ef6565b6111918483611e60565b61119b9190611e78565b6005555067ffffffffffffffff1660065550565b604051632474521560e21b8152600060048201523360248201527f00000000000000000000000000000000000000000000000000000000000000006001600160a01b0316906391d148549060440160206040518083038186803b15801561121557600080fd5b505afa158015611229573d6000803e3d6000fd5b505050506040513d601f19601f8201168201806040525081019061124d9190611d09565b6112995760405162461bcd60e51b815260206004820152601d60248201527f5375417574683a206f6e6c794f776e657220415554485f4641494c45440000006044820152606401610682565b60006112a484610d8a565b6001600160a01b0380861660009081526003602090815260408083209388168352929052208054919250906112da908490611e60565b815581516112fc9064e8d4a5100090610573906001600160801b031686611e98565b816001015461130b9190611df6565b60018201556060820151611320908490611e60565b606083019081526001600160a01b038681166000818152602081815260409182902087518154838a0151858b01516001600160801b039093166001600160c01b031990921691909117600160801b67ffffffffffffffff92831602176001600160c01b0316600160c01b91909216021781559451600190950194909455518681529092918716917fbe0e56c891bb7033dc9f0c815fb5e1fd09ee48ffbc1c32b504a52911a54246709101610d7b565b60006113db6001611800565b805190915060005b8181101561142c5761141b83828151811061140e57634e487b7160e01b600052603260045260246000fd5b6020026020010151610d8a565b5061142581611f39565b90506113e3565b505050565b61143a82610d8a565b506001600160a01b0382811660008181526003602090815260408083203380855290835292819020805491519182529486169392917f86f87eb4cd7a1da0639b774e09f1a832ebba3367c7d07682d3a8429749ce13ca910160405180910390a460008082556001909101555050565b600082600654116114bc575060006114f5565b6006548210156114e4576005546114d38484611ef6565b6114dd9190611e98565b90506114f5565b600554836006546114d39190611ef6565b92915050565b60006001600160ff1b0382111561157a5760405162461bcd60e51b815260206004820152602860248201527f53616665436173743a2076616c756520646f65736e27742066697420696e206160448201527f6e20696e743235360000000000000000000000000000000000000000000000006064820152608401610682565b5090565b60008082121561157a5760405162461bcd60e51b815260206004820181905260248201527f53616665436173743a2076616c7565206d75737420626520706f7369746976656044820152606401610682565b60006115e5836001600160a01b03841661180d565b9392505050565b600067ffffffffffffffff82111561157a5760405162461bcd60e51b815260206004820152602660248201527f53616665436173743a2076616c756520646f65736e27742066697420696e203660448201527f34206269747300000000000000000000000000000000000000000000000000006064820152608401610682565b60006115e5836001600160a01b03841661185c565b6040516001600160a01b03831660248201526044810182905261142c9084907fa9059cbb00000000000000000000000000000000000000000000000000000000906064015b60408051601f198184030181529190526020810180517bffffffffffffffffffffffffffffffffffffffffffffffffffffffff167fffffffff0000000000000000000000000000000000000000000000000000000090931692909217909152611979565b60006001600160801b0382111561157a5760405162461bcd60e51b815260206004820152602760248201527f53616665436173743a2076616c756520646f65736e27742066697420696e203160448201527f32382062697473000000000000000000000000000000000000000000000000006064820152608401610682565b6040516001600160a01b03808516602483015283166044820152606481018290526117fa9085907f23b872dd00000000000000000000000000000000000000000000000000000000906084016116c6565b50505050565b606060006115e583611a5e565b6000818152600183016020526040812054611854575081546001818101845560008481526020808220909301849055845484825282860190935260409020919091556114f5565b5060006114f5565b6000818152600183016020526040812054801561196f576000611880600183611ef6565b855490915060009061189490600190611ef6565b90508181146119155760008660000182815481106118c257634e487b7160e01b600052603260045260246000fd5b90600052602060002001549050808760000184815481106118f357634e487b7160e01b600052603260045260246000fd5b6000918252602080832090910192909255918252600188019052604090208390555b855486908061193457634e487b7160e01b600052603160045260246000fd5b6001900381819060005260206000200160009055905585600101600086815260200190815260200160002060009055600193505050506114f5565b60009150506114f5565b60006119ce826040518060400160405280602081526020017f5361666545524332303a206c6f772d6c6576656c2063616c6c206661696c6564815250856001600160a01b0316611aba9092919063ffffffff16565b80519091501561142c57808060200190518101906119ec9190611d09565b61142c5760405162461bcd60e51b815260206004820152602a60248201527f5361666545524332303a204552433230206f7065726174696f6e20646964206e60448201527f6f742073756363656564000000000000000000000000000000000000000000006064820152608401610682565b606081600001805480602002602001604051908101604052809291908181526020018280548015611aae57602002820191906000526020600020905b815481526020019060010190808311611a9a575b50505050509050919050565b6060611ac98484600085611ad1565b949350505050565b606082471015611b495760405162461bcd60e51b815260206004820152602660248201527f416464726573733a20696e73756666696369656e742062616c616e636520666f60448201527f722063616c6c00000000000000000000000000000000000000000000000000006064820152608401610682565b6001600160a01b0385163b611ba05760405162461bcd60e51b815260206004820152601d60248201527f416464726573733a2063616c6c20746f206e6f6e2d636f6e74726163740000006044820152606401610682565b600080866001600160a01b03168587604051611bbc9190611da7565b60006040518083038185875af1925050503d8060008114611bf9576040519150601f19603f3d011682016040523d82523d6000602084013e611bfe565b606091505b509150915061059182828660608315611c185750816115e5565b825115611c285782518084602001fd5b8160405162461bcd60e51b81526004016106829190611dc3565b80356001600160a01b0381168114610f8d57600080fd5b600060208284031215611c6a578081fd5b6115e582611c42565b60008060408385031215611c85578081fd5b611c8e83611c42565b9150611c9c60208401611c42565b90509250929050565b600080600060608486031215611cb9578081fd5b611cc284611c42565b9250611cd060208501611c42565b9150604084013590509250925092565b60008060408385031215611cf2578182fd5b611cfb83611c42565b946020939093013593505050565b600060208284031215611d1a578081fd5b815180151581146115e5578182fd5b60008060408385031215611d3b578182fd5b82359150611c9c60208401611c42565b60008060408385031215611d5d578182fd5b50508035926020909101359150565b60008060408385031215611d7e578182fd5b82359150602083013567ffffffffffffffff81168114611d9c578182fd5b809150509250929050565b60008251611db9818460208701611f0d565b9190910192915050565b6020815260008251806020840152611de2816040850160208701611f0d565b601f01601f19169190910160400192915050565b6000808212826001600160ff1b0303841381151615611e1757611e17611f54565b82600160ff1b038412811615611e2f57611e2f611f54565b50500190565b60006001600160801b03808316818516808303821115611e5757611e57611f54565b01949350505050565b60008219821115611e7357611e73611f54565b500190565b600082611e9357634e487b7160e01b81526012600452602481fd5b500490565b6000816000190483118215151615611eb257611eb2611f54565b500290565b600080831283600160ff1b01831281151615611ed557611ed5611f54565b836001600160ff1b03018313811615611ef057611ef0611f54565b50500390565b600082821015611f0857611f08611f54565b500390565b60005b83811015611f28578181015183820152602001611f10565b838111156117fa5750506000910152565b6000600019821415611f4d57611f4d611f54565b5060010190565b634e487b7160e01b600052601160045260246000fdfea2646970667358221220e283e61280c5ea733b0a6d2b48ed9dc275713b047acedca345ddbf61c6d0b82064736f6c63430008040033",
  "devdoc": {
    "kind": "dev",
    "methods": {
      "add(uint256,address)": {
        "params": {
          "_asset": "Address of the ERC-20 token.",
          "allocPoint": "AP of the new pool."
        }
      },
      "constructor": {
        "params": {
          "_rewardToken": "The REWARD_TOKEN token contract address."
        }
      },
      "harvest(address,address)": {
        "params": {
          "asset": "Asset address",
          "to": "Receiver of REWARD_TOKEN rewards."
        }
      },
      "pendingSushi(address,address)": {
        "params": {
          "_asset": "The index of the pool. See `poolInfo`.",
          "_user": "Address of user."
        },
        "returns": {
          "pending": "REWARD_TOKEN reward for a given user."
        }
      },
      "resetAmount(address,address)": {
        "params": {
          "asset": "Asset address",
          "to": "The address of the user whose information will be cleared"
        }
      },
      "rewardsBetweenBlocks(uint256,uint256)": {
        "details": "returns total amount of rewards allocated to the all pools on the rage (startBlock, endBlock]      i.e. excluding startBlock but including endBlock"
      },
      "set(address,uint256)": {
        "params": {
          "_allocPoint": "New AP of the pool.",
          "_asset": "The index of the pool. See `poolInfo`."
        }
      },
      "updatePool(address)": {
        "params": {
          "asset": "Asset address"
        },
        "returns": {
          "pool": "Returns the pool that was updated."
        }
      }
    },
    "stateVariables": {
      "totalAllocPoint": {
        "details": "Total allocation points. Must be the sum of all allocation points in all pools. The good practice, to always keep this variable is equal 1000."
      }
    },
    "version": 1
  },
  "userdoc": {
    "kind": "user",
    "methods": {
      "REWARD_TOKEN()": {
        "notice": "Address of REWARD_TOKEN contract."
      },
      "add(uint256,address)": {
        "notice": "Add a new reward  pool. Can only be called by the owner. DO NOT add the same LP token more than once."
      },
      "decreaseAmount(address,address,uint256)": {
        "notice": "Analogues to MVC2 Withdraw method, that can be called only by trusted address that is trusted to honestly calc how many \"virtual\" tokens have to be allocated for each user."
      },
      "harvest(address,address)": {
        "notice": "Harvest proceeds for transaction sender to `to`."
      },
      "increaseAmount(address,address,uint256)": {
        "notice": "analogues to MCV2 Deposit method, but can be called only by trusted address"
      },
      "pendingSushi(address,address)": {
        "notice": "View function to see pending REWARD_TOKEN on frontend."
      },
      "poolInfo(address)": {
        "notice": "Info of each MCV2 pool. PoolInfo memory pool = poolInfo[_pid]"
      },
      "resetAmount(address,address)": {
        "notice": "Withdraw without caring about rewards. EMERGENCY ONLY."
      },
      "set(address,uint256)": {
        "notice": "Update the given pool's REWARD_TOKEN allocation point. Can only be called by the owner."
      },
      "updateAllPools()": {
        "notice": "Update reward variables for all pools. Be careful of gas spending!"
      },
      "updatePool(address)": {
        "notice": "Update reward variables of the given pool."
      },
      "userInfo(address,address)": {
        "notice": "Info of each user that stakes tokens. userInfo[_asset][_user]"
      }
    },
    "notice": "This contract is based on MVC2, but uses \"virtual\" balances instead of storing real ERC20 tokens and uses address of this assets instead of pid. Rewards that are distributed have to be deposited using refillReward(uint256 amount, uint64 endBlock)",
    "version": 1
  },
  "storageLayout": {
    "storage": [
      {
        "astId": 9466,
        "contract": "contracts/reward/RewardChefV2.sol:RewardChefV2",
        "label": "poolInfo",
        "offset": 0,
        "slot": "0",
        "type": "t_mapping(t_address,t_struct(PoolInfo)4509_storage)"
      },
      {
        "astId": 9470,
        "contract": "contracts/reward/RewardChefV2.sol:RewardChefV2",
        "label": "assetSet",
        "offset": 0,
        "slot": "1",
        "type": "t_struct(AddressSet)2792_storage"
      },
      {
        "astId": 9478,
        "contract": "contracts/reward/RewardChefV2.sol:RewardChefV2",
        "label": "userInfo",
        "offset": 0,
        "slot": "3",
        "type": "t_mapping(t_address,t_mapping(t_address,t_struct(UserInfo)4514_storage))"
      },
      {
        "astId": 9482,
        "contract": "contracts/reward/RewardChefV2.sol:RewardChefV2",
        "label": "totalAllocPoint",
        "offset": 0,
        "slot": "4",
        "type": "t_uint256"
      },
      {
        "astId": 9492,
        "contract": "contracts/reward/RewardChefV2.sol:RewardChefV2",
        "label": "rewardPerBlock",
        "offset": 0,
        "slot": "5",
        "type": "t_uint256"
      },
      {
        "astId": 9495,
        "contract": "contracts/reward/RewardChefV2.sol:RewardChefV2",
        "label": "rewardEndBlock",
        "offset": 0,
        "slot": "6",
        "type": "t_uint256"
      }
    ],
    "types": {
      "t_address": {
        "encoding": "inplace",
        "label": "address",
        "numberOfBytes": "20"
      },
      "t_array(t_bytes32)dyn_storage": {
        "base": "t_bytes32",
        "encoding": "dynamic_array",
        "label": "bytes32[]",
        "numberOfBytes": "32"
      },
      "t_bytes32": {
        "encoding": "inplace",
        "label": "bytes32",
        "numberOfBytes": "32"
      },
      "t_int256": {
        "encoding": "inplace",
        "label": "int256",
        "numberOfBytes": "32"
      },
      "t_mapping(t_address,t_mapping(t_address,t_struct(UserInfo)4514_storage))": {
        "encoding": "mapping",
        "key": "t_address",
        "label": "mapping(address => mapping(address => struct IRewardChefV2.UserInfo))",
        "numberOfBytes": "32",
        "value": "t_mapping(t_address,t_struct(UserInfo)4514_storage)"
      },
      "t_mapping(t_address,t_struct(PoolInfo)4509_storage)": {
        "encoding": "mapping",
        "key": "t_address",
        "label": "mapping(address => struct IRewardChefV2.PoolInfo)",
        "numberOfBytes": "32",
        "value": "t_struct(PoolInfo)4509_storage"
      },
      "t_mapping(t_address,t_struct(UserInfo)4514_storage)": {
        "encoding": "mapping",
        "key": "t_address",
        "label": "mapping(address => struct IRewardChefV2.UserInfo)",
        "numberOfBytes": "32",
        "value": "t_struct(UserInfo)4514_storage"
      },
      "t_mapping(t_bytes32,t_uint256)": {
        "encoding": "mapping",
        "key": "t_bytes32",
        "label": "mapping(bytes32 => uint256)",
        "numberOfBytes": "32",
        "value": "t_uint256"
      },
      "t_struct(AddressSet)2792_storage": {
        "encoding": "inplace",
        "label": "struct EnumerableSet.AddressSet",
        "members": [
          {
            "astId": 2791,
            "contract": "contracts/reward/RewardChefV2.sol:RewardChefV2",
            "label": "_inner",
            "offset": 0,
            "slot": "0",
            "type": "t_struct(Set)2491_storage"
          }
        ],
        "numberOfBytes": "64"
      },
      "t_struct(PoolInfo)4509_storage": {
        "encoding": "inplace",
        "label": "struct IRewardChefV2.PoolInfo",
        "members": [
          {
            "astId": 4502,
            "contract": "contracts/reward/RewardChefV2.sol:RewardChefV2",
            "label": "accSushiPerShare",
            "offset": 0,
            "slot": "0",
            "type": "t_uint128"
          },
          {
            "astId": 4504,
            "contract": "contracts/reward/RewardChefV2.sol:RewardChefV2",
            "label": "lastRewardBlock",
            "offset": 16,
            "slot": "0",
            "type": "t_uint64"
          },
          {
            "astId": 4506,
            "contract": "contracts/reward/RewardChefV2.sol:RewardChefV2",
            "label": "allocPoint",
            "offset": 24,
            "slot": "0",
            "type": "t_uint64"
          },
          {
            "astId": 4508,
            "contract": "contracts/reward/RewardChefV2.sol:RewardChefV2",
            "label": "lpSupply",
            "offset": 0,
            "slot": "1",
            "type": "t_uint256"
          }
        ],
        "numberOfBytes": "64"
      },
      "t_struct(Set)2491_storage": {
        "encoding": "inplace",
        "label": "struct EnumerableSet.Set",
        "members": [
          {
            "astId": 2486,
            "contract": "contracts/reward/RewardChefV2.sol:RewardChefV2",
            "label": "_values",
            "offset": 0,
            "slot": "0",
            "type": "t_array(t_bytes32)dyn_storage"
          },
          {
            "astId": 2490,
            "contract": "contracts/reward/RewardChefV2.sol:RewardChefV2",
            "label": "_indexes",
            "offset": 0,
            "slot": "1",
            "type": "t_mapping(t_bytes32,t_uint256)"
          }
        ],
        "numberOfBytes": "64"
      },
      "t_struct(UserInfo)4514_storage": {
        "encoding": "inplace",
        "label": "struct IRewardChefV2.UserInfo",
        "members": [
          {
            "astId": 4511,
            "contract": "contracts/reward/RewardChefV2.sol:RewardChefV2",
            "label": "amount",
            "offset": 0,
            "slot": "0",
            "type": "t_uint256"
          },
          {
            "astId": 4513,
            "contract": "contracts/reward/RewardChefV2.sol:RewardChefV2",
            "label": "rewardDebt",
            "offset": 0,
            "slot": "1",
            "type": "t_int256"
          }
        ],
        "numberOfBytes": "64"
      },
      "t_uint128": {
        "encoding": "inplace",
        "label": "uint128",
        "numberOfBytes": "16"
      },
      "t_uint256": {
        "encoding": "inplace",
        "label": "uint256",
        "numberOfBytes": "32"
      },
      "t_uint64": {
        "encoding": "inplace",
        "label": "uint64",
        "numberOfBytes": "8"
      }
    }
  }
}