{
  "address": "0x75BD6FCf25102da32c94F3c5B75E45B6791DAe48",
  "abi": [
    {
      "inputs": [
        {
          "internalType": "address",
          "name": "_authControl",
          "type": "address"
        },
        {
          "internalType": "contract IERC20",
          "name": "_rewardToken",
          "type": "address"
        },
        {
          "internalType": "contract ISuOracle",
          "name": "_oracle",
          "type": "address"
        }
      ],
      "stateMutability": "nonpayable",
      "type": "constructor"
    },
    {
      "anonymous": false,
      "inputs": [
        {
          "indexed": true,
          "internalType": "address",
          "name": "user",
          "type": "address"
        },
        {
          "indexed": true,
          "internalType": "address",
          "name": "asset",
          "type": "address"
        },
        {
          "indexed": false,
          "internalType": "uint256",
          "name": "amount",
          "type": "uint256"
        }
      ],
      "name": "Harvest",
      "type": "event"
    },
    {
      "anonymous": false,
      "inputs": [
        {
          "indexed": true,
          "internalType": "address",
          "name": "asset",
          "type": "address"
        },
        {
          "indexed": false,
          "internalType": "uint256",
          "name": "allocPoint",
          "type": "uint256"
        }
      ],
      "name": "LogPoolAddition",
      "type": "event"
    },
    {
      "anonymous": false,
      "inputs": [
        {
          "indexed": true,
          "internalType": "address",
          "name": "asset",
          "type": "address"
        },
        {
          "indexed": false,
          "internalType": "uint256",
          "name": "allocPoint",
          "type": "uint256"
        }
      ],
      "name": "LogSetPool",
      "type": "event"
    },
    {
      "anonymous": false,
      "inputs": [
        {
          "indexed": true,
          "internalType": "address",
          "name": "asset",
          "type": "address"
        },
        {
          "indexed": false,
          "internalType": "uint64",
          "name": "lastRewardBlock",
          "type": "uint64"
        },
        {
          "indexed": false,
          "internalType": "uint256",
          "name": "lpSupply",
          "type": "uint256"
        },
        {
          "indexed": false,
          "internalType": "uint256",
          "name": "accSushiPerShare",
          "type": "uint256"
        }
      ],
      "name": "LogUpdatePool",
      "type": "event"
    },
    {
      "anonymous": false,
      "inputs": [
        {
          "indexed": true,
          "internalType": "address",
          "name": "user",
          "type": "address"
        },
        {
          "indexed": true,
          "internalType": "address",
          "name": "asset",
          "type": "address"
        },
        {
          "indexed": false,
          "internalType": "uint256",
          "name": "amount",
          "type": "uint256"
        },
        {
          "indexed": true,
          "internalType": "address",
          "name": "to",
          "type": "address"
        }
      ],
      "name": "ResetAmount",
      "type": "event"
    },
    {
      "anonymous": false,
      "inputs": [
        {
          "indexed": true,
          "internalType": "address",
          "name": "user",
          "type": "address"
        },
        {
          "indexed": true,
          "internalType": "address",
          "name": "asset",
          "type": "address"
        },
        {
          "indexed": false,
          "internalType": "uint256",
          "name": "amount",
          "type": "uint256"
        }
      ],
      "name": "VirtualDeposit",
      "type": "event"
    },
    {
      "anonymous": false,
      "inputs": [
        {
          "indexed": true,
          "internalType": "address",
          "name": "user",
          "type": "address"
        },
        {
          "indexed": true,
          "internalType": "address",
          "name": "asset",
          "type": "address"
        },
        {
          "indexed": false,
          "internalType": "uint256",
          "name": "amount",
          "type": "uint256"
        }
      ],
      "name": "VirtualWithdraw",
      "type": "event"
    },
    {
      "inputs": [],
      "name": "ACCESS_CONTROL_SINGLETON",
      "outputs": [
        {
          "internalType": "contract ISuAccessControl",
          "name": "",
          "type": "address"
        }
      ],
      "stateMutability": "view",
      "type": "function"
    },
    {
      "inputs": [],
      "name": "LIQUIDATION_ACCESS_ROLE",
      "outputs": [
        {
          "internalType": "bytes32",
          "name": "",
          "type": "bytes32"
        }
      ],
      "stateMutability": "view",
      "type": "function"
    },
    {
      "inputs": [],
      "name": "MINTER_ROLE",
      "outputs": [
        {
          "internalType": "bytes32",
          "name": "",
          "type": "bytes32"
        }
      ],
      "stateMutability": "view",
      "type": "function"
    },
    {
      "inputs": [],
      "name": "ORACLE",
      "outputs": [
        {
          "internalType": "contract ISuOracle",
          "name": "",
          "type": "address"
        }
      ],
      "stateMutability": "view",
      "type": "function"
    },
    {
      "inputs": [],
      "name": "REWARD_TOKEN",
      "outputs": [
        {
          "internalType": "contract IERC20",
          "name": "",
          "type": "address"
        }
      ],
      "stateMutability": "view",
      "type": "function"
    },
    {
      "inputs": [],
      "name": "VAULT_ACCESS_ROLE",
      "outputs": [
        {
          "internalType": "bytes32",
          "name": "",
          "type": "bytes32"
        }
      ],
      "stateMutability": "view",
      "type": "function"
    },
    {
      "inputs": [
        {
          "internalType": "uint256",
          "name": "allocPoint",
          "type": "uint256"
        },
        {
          "internalType": "address",
          "name": "_asset",
          "type": "address"
        }
      ],
      "name": "add",
      "outputs": [],
      "stateMutability": "nonpayable",
      "type": "function"
    },
    {
      "inputs": [
        {
          "internalType": "address",
          "name": "asset",
          "type": "address"
        },
        {
          "internalType": "address",
          "name": "to",
          "type": "address"
        },
        {
          "internalType": "uint256",
          "name": "amountEDecimal",
          "type": "uint256"
        }
      ],
      "name": "decreaseAmount",
      "outputs": [],
      "stateMutability": "nonpayable",
      "type": "function"
    },
    {
      "inputs": [
        {
          "internalType": "address",
          "name": "asset",
          "type": "address"
        }
      ],
      "name": "getPoolApr",
      "outputs": [
        {
          "internalType": "uint256",
          "name": "",
          "type": "uint256"
        }
      ],
      "stateMutability": "view",
      "type": "function"
    },
    {
      "inputs": [
        {
          "internalType": "address",
          "name": "asset",
          "type": "address"
        },
        {
          "internalType": "address",
          "name": "to",
          "type": "address"
        }
      ],
      "name": "harvest",
      "outputs": [],
      "stateMutability": "nonpayable",
      "type": "function"
    },
    {
      "inputs": [
        {
          "internalType": "address",
          "name": "asset",
          "type": "address"
        },
        {
          "internalType": "address",
          "name": "to",
          "type": "address"
        },
        {
          "internalType": "uint256",
          "name": "amountEDecimal",
          "type": "uint256"
        }
      ],
      "name": "increaseAmount",
      "outputs": [],
      "stateMutability": "nonpayable",
      "type": "function"
    },
    {
      "inputs": [
        {
          "internalType": "address",
          "name": "_asset",
          "type": "address"
        },
        {
          "internalType": "address",
          "name": "_user",
          "type": "address"
        }
      ],
      "name": "pendingSushi",
      "outputs": [
        {
          "internalType": "uint256",
          "name": "pending",
          "type": "uint256"
        }
      ],
      "stateMutability": "view",
      "type": "function"
    },
    {
      "inputs": [
        {
          "internalType": "address",
          "name": "",
          "type": "address"
        }
      ],
      "name": "poolInfo",
      "outputs": [
        {
          "internalType": "uint128",
          "name": "accSushiPerShare",
          "type": "uint128"
        },
        {
          "internalType": "uint64",
          "name": "lastRewardBlock",
          "type": "uint64"
        },
        {
          "internalType": "uint64",
          "name": "allocPoint",
          "type": "uint64"
        },
        {
          "internalType": "uint256",
          "name": "lpSupply",
          "type": "uint256"
        }
      ],
      "stateMutability": "view",
      "type": "function"
    },
    {
      "inputs": [
        {
          "internalType": "uint256",
          "name": "amount",
          "type": "uint256"
        },
        {
          "internalType": "uint64",
          "name": "endBlock",
          "type": "uint64"
        }
      ],
      "name": "refillReward",
      "outputs": [],
      "stateMutability": "nonpayable",
      "type": "function"
    },
    {
      "inputs": [
        {
          "internalType": "address",
          "name": "asset",
          "type": "address"
        },
        {
          "internalType": "address",
          "name": "to",
          "type": "address"
        }
      ],
      "name": "resetAmount",
      "outputs": [],
      "stateMutability": "nonpayable",
      "type": "function"
    },
    {
      "inputs": [],
      "name": "rewardEndBlock",
      "outputs": [
        {
          "internalType": "uint256",
          "name": "",
          "type": "uint256"
        }
      ],
      "stateMutability": "view",
      "type": "function"
    },
    {
      "inputs": [],
      "name": "rewardPerBlock",
      "outputs": [
        {
          "internalType": "uint256",
          "name": "",
          "type": "uint256"
        }
      ],
      "stateMutability": "view",
      "type": "function"
    },
    {
      "inputs": [
        {
          "internalType": "uint256",
          "name": "startBlock",
          "type": "uint256"
        },
        {
          "internalType": "uint256",
          "name": "endBlock",
          "type": "uint256"
        }
      ],
      "name": "rewardsBetweenBlocks",
      "outputs": [
        {
          "internalType": "uint256",
          "name": "",
          "type": "uint256"
        }
      ],
      "stateMutability": "view",
      "type": "function"
    },
    {
      "inputs": [
        {
          "internalType": "address",
          "name": "_asset",
          "type": "address"
        },
        {
          "internalType": "uint256",
          "name": "_allocPoint",
          "type": "uint256"
        }
      ],
      "name": "set",
      "outputs": [],
      "stateMutability": "nonpayable",
      "type": "function"
    },
    {
      "inputs": [],
      "name": "totalAllocPoint",
      "outputs": [
        {
          "internalType": "uint256",
          "name": "",
          "type": "uint256"
        }
      ],
      "stateMutability": "view",
      "type": "function"
    },
    {
      "inputs": [],
      "name": "updateAllPools",
      "outputs": [],
      "stateMutability": "nonpayable",
      "type": "function"
    },
    {
      "inputs": [
        {
          "internalType": "address",
          "name": "asset",
          "type": "address"
        }
      ],
      "name": "updatePool",
      "outputs": [
        {
          "components": [
            {
              "internalType": "uint128",
              "name": "accSushiPerShare",
              "type": "uint128"
            },
            {
              "internalType": "uint64",
              "name": "lastRewardBlock",
              "type": "uint64"
            },
            {
              "internalType": "uint64",
              "name": "allocPoint",
              "type": "uint64"
            },
            {
              "internalType": "uint256",
              "name": "lpSupply",
              "type": "uint256"
            }
          ],
          "internalType": "struct IRewardChefV2.PoolInfo",
          "name": "pool",
          "type": "tuple"
        }
      ],
      "stateMutability": "nonpayable",
      "type": "function"
    },
    {
      "inputs": [
        {
          "internalType": "address",
          "name": "",
          "type": "address"
        },
        {
          "internalType": "address",
          "name": "",
          "type": "address"
        }
      ],
      "name": "userInfo",
      "outputs": [
        {
          "internalType": "uint256",
          "name": "amount",
          "type": "uint256"
        },
        {
          "internalType": "int256",
          "name": "rewardDebt",
          "type": "int256"
        }
      ],
      "stateMutability": "view",
      "type": "function"
    }
  ],
  "transactionHash": "0x984552bc07044252789fe6a7aec1d68f0feaf72f1716b5158a1fe13dd46fa0ca",
  "args": [
    "0x00DAF65c320ac33F6d35b2943B1D5d31Cc5069a5",
    "0x8B6A194cE47Bb431Fe7533e070D80921391E9a58",
    "0x889c5eD40824f7f7511F84bFbAF683495188683C"
  ],
  "numDeployments": 1,
  "solcInputHash": "1acf5fc7213acb073e526533d9983610",
  "bytecode": "0x60e06040523480156200001157600080fd5b50604051620023b5380380620023b583398101604081905262000034916200005c565b6001600160601b0319606093841b811660805291831b821660a05290911b1660c052620000c8565b60008060006060848603121562000071578283fd5b83516200007e81620000af565b60208501519093506200009181620000af565b6040850151909250620000a481620000af565b809150509250925092565b6001600160a01b0381168114620000c557600080fd5b50565b60805160601c60a05160601c60c05160601c61226e6200014760003960008181610288015281816114e101526115bc01526000818161037e01528181610b720152818161119201526114b30152600081816101970152818161063a015281816108b501528181610bfd01528181611030015261124d015261226e6000f3fe608060405234801561001057600080fd5b506004361061018d5760003560e01c80637b46c54f116100e3578063a7533e091161008c578063d539139311610066578063d539139314610455578063dc97e84e1461047c578063eeba3c3f146104a357600080fd5b8063a7533e0914610427578063b9ec7d741461043a578063cf4f68d51461044257600080fd5b80638e39520c116100bd5780638e39520c1461036657806399248ea7146103795780639a7b5f11146103a057600080fd5b80637b46c54f146102ec57806387ee8c4c1461034a5780638ae39cac1461035d57600080fd5b80632b8bbbe811610145578063604ef2e51161011f578063604ef2e5146102bd57806366cc1857146102c65780636aed34f7146102d957600080fd5b80632b8bbbe81461026e57806338013f02146102835780633825d828146102aa57600080fd5b806314c376dc1161017657806314c376dc1461021d57806317caf6f1146102525780631d40e4391461025b57600080fd5b806303ee9f22146101925780630f208beb146101d6575b600080fd5b6101b97f000000000000000000000000000000000000000000000000000000000000000081565b6040516001600160a01b0390911681526020015b60405180910390f35b6102086101e4366004611f29565b60036020908152600092835260408084209091529082529020805460019091015482565b604080519283526020830191909152016101cd565b6102447fe965846df3dd5b1dfa65f58e31477079e90140e0908b6dd31b5aead5a57cf36581565b6040519081526020016101cd565b61024460045481565b610244610269366004611f29565b6104b6565b61028161027c366004611ff7565b61061e565b005b6101b97f000000000000000000000000000000000000000000000000000000000000000081565b6102816102b8366004611f96565b610899565b61024460065481565b6102816102d4366004611f29565b610aea565b6102816102e7366004611f5b565b610be1565b6102ff6102fa366004611f0f565b610e0c565b6040805182516001600160801b0316815260208084015167ffffffffffffffff90811691830191909152838301511691810191909152606091820151918101919091526080016101cd565b61028161035836600461203a565b611014565b61024460055481565b610281610374366004611f5b565b611231565b6101b97f000000000000000000000000000000000000000000000000000000000000000081565b6103ef6103ae366004611f0f565b600060208190529081526040902080546001909101546001600160801b0382169167ffffffffffffffff600160801b8204811692600160c01b909204169084565b604080516001600160801b0395909516855267ffffffffffffffff9384166020860152919092169083015260608201526080016101cd565b610244610435366004611f0f565b611451565b610281611685565b610281610450366004611f29565b6116e7565b6102447f9f2df0fed2c77648de5860a4cc508cd0818c85b8b8a1ab4ceeef8d981c8956a681565b6102447f9a9aef7c1247d5fc769b0185c052913e39673da29a880317dfd20ebf86f26a4981565b6102446104b1366004612019565b61175f565b6001600160a01b03808316600081815260208181526040808320815160808101835281546001600160801b03808216835267ffffffffffffffff600160801b83048116848801908152600160c01b9093048116848701526001909401546060840181905288885260038752858820998b168852988652938620825197875294869052519496909593949390921692164311801561055257508015155b801561055f575060045415155b156105d457600061057e856020015167ffffffffffffffff164361175f565b90506000600454866040015167ffffffffffffffff168361059f9190612166565b6105a99190612146565b9050826105bb64e8d4a5100083612166565b6105c59190612146565b6105cf908561212e565b935050505b610613836001015461060464e8d4a510008587600001546105f59190612166565b6105ff9190612146565b6117b1565b61060e9190612185565b611834565b979650505050505050565b604051632474521560e21b8152600060048201523360248201527f00000000000000000000000000000000000000000000000000000000000000006001600160a01b0316906391d148549060440160206040518083038186803b15801561068457600080fd5b505afa158015610698573d6000803e3d6000fd5b505050506040513d601f19601f820116820180604052508101906106bc9190611fbf565b61070d5760405162461bcd60e51b815260206004820152601d60248201527f5375417574683a206f6e6c794f776e657220415554485f4641494c454400000060448201526064015b60405180910390fd5b6001600160a01b038116600090815260208190526040902054600160801b900467ffffffffffffffff16156107845760405162461bcd60e51b815260206004820152601260248201527f506f6f6c20616c726561647920657869737400000000000000000000000000006044820152606401610704565b600454439061079490849061212e565b6004556107a2600183611886565b50604051806080016040528060006001600160801b031681526020016107c7836118a2565b67ffffffffffffffff1681526020016107df856118a2565b67ffffffffffffffff9081168252600060209283018190526001600160a01b0386168082528184526040918290208551815487870151888601518716600160c01b026001600160c01b0391909716600160801b026001600160c01b03199092166001600160801b03909316929092171716939093178355606090940151600190920191909155518581527f595f39ef10c3b539b41f83620205bd2e76334edf0cfda5ed207f10616e867dad910160405180910390a2505050565b604051632474521560e21b8152600060048201523360248201527f00000000000000000000000000000000000000000000000000000000000000006001600160a01b0316906391d148549060440160206040518083038186803b1580156108ff57600080fd5b505afa158015610913573d6000803e3d6000fd5b505050506040513d601f19601f820116820180604052508101906109379190611fbf565b6109835760405162461bcd60e51b815260206004820152601d60248201527f5375417574683a206f6e6c794f776e657220415554485f4641494c45440000006044820152606401610704565b6001600160a01b038216600090815260208190526040902054600160801b900467ffffffffffffffff166109f95760405162461bcd60e51b815260206004820152601260248201527f506f6f6c20646f65736e277420657869737400000000000000000000000000006044820152606401610704565b610a0282610e0c565b506001600160a01b0382166000908152602081905260409020546004548291610a3d91600160c01b90910467ffffffffffffffff16906121c4565b610a47919061212e565b600455610a53816118a2565b6001600160a01b0383166000908152602081905260409020805467ffffffffffffffff92909216600160c01b026001600160c01b0390921691909117905580610aa357610aa1600183611922565b505b816001600160a01b03167f57096e403eca2ab85e7ad27527b2efe1598aaf6760715227633947f3652a0f6b82604051610ade91815260200190565b60405180910390a25050565b6000610af583610e0c565b6001600160a01b03841660009081526003602090815260408083203384529091528120825181549394509092610b3f9164e8d4a51000916105f5916001600160801b031690612166565b90506000610b5683600101548361060e9190612185565b6001840183905590508015610b9957610b996001600160a01b037f0000000000000000000000000000000000000000000000000000000000000000168683611937565b6040518181526001600160a01b0387169033907fa0306f61d3fafe13787b78e276cb6b644382854a66cb46daae14227d3ec267979060200160405180910390a3505050505050565b604051632474521560e21b8152600060048201523360248201527f00000000000000000000000000000000000000000000000000000000000000006001600160a01b0316906391d148549060440160206040518083038186803b158015610c4757600080fd5b505afa158015610c5b573d6000803e3d6000fd5b505050506040513d601f19601f82011682018060405250810190610c7f9190611fbf565b610ccb5760405162461bcd60e51b815260206004820152601d60248201527f5375417574683a206f6e6c794f776e657220415554485f4641494c45440000006044820152606401610704565b6000610cd684610e0c565b6001600160a01b038086166000908152600360209081526040808320938816835292905220815191925090610d1f9064e8d4a51000906105f5906001600160801b031686612166565b8160010154610d2e9190612185565b60018201558054610d409084906121c4565b81556060820151610d529084906121c4565b606083019081526001600160a01b038681166000818152602081815260409182902087518154838a0151858b01516001600160801b039093166001600160c01b031990921691909117600160801b67ffffffffffffffff92831602176001600160c01b0316600160c01b91909216021781559451600190950194909455518681529092918716917f5c89d0cd1567084571f8083b115429597fe4af296968d67b6b7ebc9d12777e8791015b60405180910390a35050505050565b604080516080810182526000808252602082018190529181018290526060810191909152506001600160a01b03811660009081526020818152604091829020825160808101845281546001600160801b038116825267ffffffffffffffff600160801b82048116948301859052600160c01b909104169381019390935260010154606083015243111561100f5760608101518015801590610ebb57506000826040015167ffffffffffffffff16115b15610f43576000610eda836020015167ffffffffffffffff164361175f565b90506000600454846040015167ffffffffffffffff1683610efb9190612166565b610f059190612146565b9050610f2983610f1a64e8d4a5100084612166565b610f249190612146565b6119e0565b8451610f359190612103565b6001600160801b0316845250505b610f4c436118a2565b67ffffffffffffffff90811660208481019182526001600160a01b0386166000818152808352604090819020875181549551838a01518816600160c01b026001600160c01b0391909816600160801b81026001600160c01b03199098166001600160801b03909316928317979097171696909617815560608089015160019092019190915581519485529284018690528301939093527f46cf4926e42ba22492fd67b3ea0fba545c48ca18651eb6cd271e653d3308c567910160405180910390a2505b919050565b604051632474521560e21b8152600060048201523360248201527f00000000000000000000000000000000000000000000000000000000000000006001600160a01b0316906391d148549060440160206040518083038186803b15801561107a57600080fd5b505afa15801561108e573d6000803e3d6000fd5b505050506040513d601f19601f820116820180604052508101906110b29190611fbf565b6110fe5760405162461bcd60e51b815260206004820152601d60248201527f5375417574683a206f6e6c794f776e657220415554485f4641494c45440000006044820152606401610704565b438167ffffffffffffffff161161117d5760405162461bcd60e51b815260206004820152602d60248201527f456e64426c6f636b2073686f756c642062652067726561746572207468616e2060448201527f63757272656e7420626c6f636b000000000000000000000000000000000000006064820152608401610704565b611185611685565b6111ba6001600160a01b037f000000000000000000000000000000000000000000000000000000000000000016333085611a5f565b600654600090156111f5576006544310156111f157436006546111dd91906121c4565b6005546111ea9190612166565b90506111f5565b5060005b6112094367ffffffffffffffff84166121c4565b611213848361212e565b61121d9190612146565b6005555067ffffffffffffffff1660065550565b604051632474521560e21b8152600060048201523360248201527f00000000000000000000000000000000000000000000000000000000000000006001600160a01b0316906391d148549060440160206040518083038186803b15801561129757600080fd5b505afa1580156112ab573d6000803e3d6000fd5b505050506040513d601f19601f820116820180604052508101906112cf9190611fbf565b61131b5760405162461bcd60e51b815260206004820152601d60248201527f5375417574683a206f6e6c794f776e657220415554485f4641494c45440000006044820152606401610704565b600061132684610e0c565b6001600160a01b03808616600090815260036020908152604080832093881683529290522080549192509061135c90849061212e565b8155815161137e9064e8d4a51000906105f5906001600160801b031686612166565b816001015461138d91906120c4565b600182015560608201516113a290849061212e565b606083019081526001600160a01b038681166000818152602081815260409182902087518154838a0151858b01516001600160801b039093166001600160c01b031990921691909117600160801b67ffffffffffffffff92831602176001600160c01b0316600160c01b91909216021781559451600190950194909455518681529092918716917fbe0e56c891bb7033dc9f0c815fb5e1fd09ee48ffbc1c32b504a52911a54246709101610dfd565b6004546001600160a01b03821660009081526020819052604081205460055491928392909161149291600160c01b90910467ffffffffffffffff1690612166565b61149c9190612146565b6040516306addfb360e31b81526001600160a01b037f0000000000000000000000000000000000000000000000000000000000000000811660048301529192506000917f0000000000000000000000000000000000000000000000000000000000000000169063356efd989060240160206040518083038186803b15801561152357600080fd5b505afa158015611537573d6000803e3d6000fd5b505050506040513d601f19601f8201168201806040525081019061155b9190611fdf565b905060008161156b846004612166565b61157690603c612166565b611581906018612166565b61158d9061016e612166565b6115979190612166565b6040516306addfb360e31b81526001600160a01b0387811660048301529192506000917f0000000000000000000000000000000000000000000000000000000000000000169063356efd989060240160206040518083038186803b1580156115fe57600080fd5b505afa158015611612573d6000803e3d6000fd5b505050506040513d601f19601f820116820180604052508101906116369190611fdf565b6001600160a01b03871660009081526020819052604090206001015461165c9190612166565b90508061167183670de0b6b3a7640000612166565b61167b9190612146565b9695505050505050565b60006116916001611ab6565b805190915060005b818110156116e2576116d18382815181106116c457634e487b7160e01b600052603260045260246000fd5b6020026020010151610e0c565b506116db81612207565b9050611699565b505050565b6116f082610e0c565b506001600160a01b0382811660008181526003602090815260408083203380855290835292819020805491519182529486169392917f86f87eb4cd7a1da0639b774e09f1a832ebba3367c7d07682d3a8429749ce13ca910160405180910390a460008082556001909101555050565b60008260065411611772575060006117ab565b60065482101561179a5760055461178984846121c4565b6117939190612166565b90506117ab565b6005548360065461178991906121c4565b92915050565b60006001600160ff1b038211156118305760405162461bcd60e51b815260206004820152602860248201527f53616665436173743a2076616c756520646f65736e27742066697420696e206160448201527f6e20696e743235360000000000000000000000000000000000000000000000006064820152608401610704565b5090565b6000808212156118305760405162461bcd60e51b815260206004820181905260248201527f53616665436173743a2076616c7565206d75737420626520706f7369746976656044820152606401610704565b600061189b836001600160a01b038416611ac3565b9392505050565b600067ffffffffffffffff8211156118305760405162461bcd60e51b815260206004820152602660248201527f53616665436173743a2076616c756520646f65736e27742066697420696e203660448201527f34206269747300000000000000000000000000000000000000000000000000006064820152608401610704565b600061189b836001600160a01b038416611b12565b6040516001600160a01b0383166024820152604481018290526116e29084907fa9059cbb00000000000000000000000000000000000000000000000000000000906064015b60408051601f198184030181529190526020810180517bffffffffffffffffffffffffffffffffffffffffffffffffffffffff167fffffffff0000000000000000000000000000000000000000000000000000000090931692909217909152611c2f565b60006001600160801b038211156118305760405162461bcd60e51b815260206004820152602760248201527f53616665436173743a2076616c756520646f65736e27742066697420696e203160448201527f32382062697473000000000000000000000000000000000000000000000000006064820152608401610704565b6040516001600160a01b0380851660248301528316604482015260648101829052611ab09085907f23b872dd000000000000000000000000000000000000000000000000000000009060840161197c565b50505050565b6060600061189b83611d14565b6000818152600183016020526040812054611b0a575081546001818101845560008481526020808220909301849055845484825282860190935260409020919091556117ab565b5060006117ab565b60008181526001830160205260408120548015611c25576000611b366001836121c4565b8554909150600090611b4a906001906121c4565b9050818114611bcb576000866000018281548110611b7857634e487b7160e01b600052603260045260246000fd5b9060005260206000200154905080876000018481548110611ba957634e487b7160e01b600052603260045260246000fd5b6000918252602080832090910192909255918252600188019052604090208390555b8554869080611bea57634e487b7160e01b600052603160045260246000fd5b6001900381819060005260206000200160009055905585600101600086815260200190815260200160002060009055600193505050506117ab565b60009150506117ab565b6000611c84826040518060400160405280602081526020017f5361666545524332303a206c6f772d6c6576656c2063616c6c206661696c6564815250856001600160a01b0316611d709092919063ffffffff16565b8051909150156116e25780806020019051810190611ca29190611fbf565b6116e25760405162461bcd60e51b815260206004820152602a60248201527f5361666545524332303a204552433230206f7065726174696f6e20646964206e60448201527f6f742073756363656564000000000000000000000000000000000000000000006064820152608401610704565b606081600001805480602002602001604051908101604052809291908181526020018280548015611d6457602002820191906000526020600020905b815481526020019060010190808311611d50575b50505050509050919050565b6060611d7f8484600085611d87565b949350505050565b606082471015611dff5760405162461bcd60e51b815260206004820152602660248201527f416464726573733a20696e73756666696369656e742062616c616e636520666f60448201527f722063616c6c00000000000000000000000000000000000000000000000000006064820152608401610704565b6001600160a01b0385163b611e565760405162461bcd60e51b815260206004820152601d60248201527f416464726573733a2063616c6c20746f206e6f6e2d636f6e74726163740000006044820152606401610704565b600080866001600160a01b03168587604051611e729190612075565b60006040518083038185875af1925050503d8060008114611eaf576040519150601f19603f3d011682016040523d82523d6000602084013e611eb4565b606091505b509150915061061382828660608315611ece57508161189b565b825115611ede5782518084602001fd5b8160405162461bcd60e51b81526004016107049190612091565b80356001600160a01b038116811461100f57600080fd5b600060208284031215611f20578081fd5b61189b82611ef8565b60008060408385031215611f3b578081fd5b611f4483611ef8565b9150611f5260208401611ef8565b90509250929050565b600080600060608486031215611f6f578081fd5b611f7884611ef8565b9250611f8660208501611ef8565b9150604084013590509250925092565b60008060408385031215611fa8578182fd5b611fb183611ef8565b946020939093013593505050565b600060208284031215611fd0578081fd5b8151801515811461189b578182fd5b600060208284031215611ff0578081fd5b5051919050565b60008060408385031215612009578182fd5b82359150611f5260208401611ef8565b6000806040838503121561202b578182fd5b50508035926020909101359150565b6000806040838503121561204c578182fd5b82359150602083013567ffffffffffffffff8116811461206a578182fd5b809150509250929050565b600082516120878184602087016121db565b9190910192915050565b60208152600082518060208401526120b08160408501602087016121db565b601f01601f19169190910160400192915050565b6000808212826001600160ff1b03038413811516156120e5576120e5612222565b82600160ff1b0384128116156120fd576120fd612222565b50500190565b60006001600160801b0380831681851680830382111561212557612125612222565b01949350505050565b6000821982111561214157612141612222565b500190565b60008261216157634e487b7160e01b81526012600452602481fd5b500490565b600081600019048311821515161561218057612180612222565b500290565b600080831283600160ff1b018312811516156121a3576121a3612222565b836001600160ff1b030183138116156121be576121be612222565b50500390565b6000828210156121d6576121d6612222565b500390565b60005b838110156121f65781810151838201526020016121de565b83811115611ab05750506000910152565b600060001982141561221b5761221b612222565b5060010190565b634e487b7160e01b600052601160045260246000fdfea26469706673582212200baf16ed622c8f3f0d712059436310db2a4bb5bbb9b2d66585dbc6d601e3dcaf64736f6c63430008040033",
  "devdoc": {
    "kind": "dev",
    "methods": {
      "add(uint256,address)": {
        "params": {
          "_asset": "Address of the ERC-20 token.",
          "allocPoint": "AP of the new pool."
        }
      },
      "constructor": {
        "params": {
          "_rewardToken": "The REWARD_TOKEN token contract address."
        }
      },
      "harvest(address,address)": {
        "params": {
          "asset": "Asset address",
          "to": "Receiver of REWARD_TOKEN rewards."
        }
      },
      "pendingSushi(address,address)": {
        "params": {
          "_asset": "The index of the pool. See `poolInfo`.",
          "_user": "Address of user."
        },
        "returns": {
          "pending": "REWARD_TOKEN reward for a given user."
        }
      },
      "resetAmount(address,address)": {
        "params": {
          "asset": "Asset address",
          "to": "The address of the user whose information will be cleared"
        }
      },
      "rewardsBetweenBlocks(uint256,uint256)": {
        "details": "returns total amount of rewards allocated to the all pools on the rage (startBlock, endBlock]      i.e. excluding startBlock but including endBlock"
      },
      "set(address,uint256)": {
        "params": {
          "_allocPoint": "New AP of the pool.",
          "_asset": "The index of the pool. See `poolInfo`."
        }
      },
      "updatePool(address)": {
        "params": {
          "asset": "Asset address"
        },
        "returns": {
          "pool": "Returns the pool that was updated."
        }
      }
    },
    "stateVariables": {
      "totalAllocPoint": {
        "details": "Total allocation points. Must be the sum of all allocation points in all pools. The good practice, to always keep this variable is equal 1000."
      }
    },
    "version": 1
  },
  "userdoc": {
    "kind": "user",
    "methods": {
      "REWARD_TOKEN()": {
        "notice": "Address of REWARD_TOKEN contract."
      },
      "add(uint256,address)": {
        "notice": "Add a new reward  pool. Can only be called by the owner. DO NOT add the same LP token more than once."
      },
      "decreaseAmount(address,address,uint256)": {
        "notice": "Analogues to MVC2 Withdraw method, that can be called only by trusted address that is trusted to honestly calc how many \"virtual\" tokens have to be allocated for each user."
      },
      "harvest(address,address)": {
        "notice": "Harvest proceeds for transaction sender to `to`."
      },
      "increaseAmount(address,address,uint256)": {
        "notice": "analogues to MCV2 Deposit method, but can be called only by trusted address"
      },
      "pendingSushi(address,address)": {
        "notice": "View function to see pending REWARD_TOKEN on frontend."
      },
      "poolInfo(address)": {
        "notice": "Info of each MCV2 pool. PoolInfo memory pool = poolInfo[_pid]"
      },
      "resetAmount(address,address)": {
        "notice": "Withdraw without caring about rewards. EMERGENCY ONLY."
      },
      "set(address,uint256)": {
        "notice": "Update the given pool's REWARD_TOKEN allocation point. Can only be called by the owner."
      },
      "updateAllPools()": {
        "notice": "Update reward variables for all pools. Be careful of gas spending!"
      },
      "updatePool(address)": {
        "notice": "Update reward variables of the given pool."
      },
      "userInfo(address,address)": {
        "notice": "Info of each user that stakes tokens. userInfo[_asset][_user]"
      }
    },
    "notice": "This contract is based on MVC2, but uses \"virtual\" balances instead of storing real ERC20 tokens and uses address of this assets instead of pid. Rewards that are distributed have to be deposited using refillReward(uint256 amount, uint64 endBlock)",
    "version": 1
  },
  "storageLayout": {
    "storage": [
      {
        "astId": 11015,
        "contract": "contracts/reward/RewardChefV2.sol:RewardChefV2",
        "label": "poolInfo",
        "offset": 0,
        "slot": "0",
        "type": "t_mapping(t_address,t_struct(PoolInfo)4537_storage)"
      },
      {
        "astId": 11019,
        "contract": "contracts/reward/RewardChefV2.sol:RewardChefV2",
        "label": "assetSet",
        "offset": 0,
        "slot": "1",
        "type": "t_struct(AddressSet)2800_storage"
      },
      {
        "astId": 11027,
        "contract": "contracts/reward/RewardChefV2.sol:RewardChefV2",
        "label": "userInfo",
        "offset": 0,
        "slot": "3",
        "type": "t_mapping(t_address,t_mapping(t_address,t_struct(UserInfo)4542_storage))"
      },
      {
        "astId": 11031,
        "contract": "contracts/reward/RewardChefV2.sol:RewardChefV2",
        "label": "totalAllocPoint",
        "offset": 0,
        "slot": "4",
        "type": "t_uint256"
      },
      {
        "astId": 11044,
        "contract": "contracts/reward/RewardChefV2.sol:RewardChefV2",
        "label": "rewardPerBlock",
        "offset": 0,
        "slot": "5",
        "type": "t_uint256"
      },
      {
        "astId": 11047,
        "contract": "contracts/reward/RewardChefV2.sol:RewardChefV2",
        "label": "rewardEndBlock",
        "offset": 0,
        "slot": "6",
        "type": "t_uint256"
      }
    ],
    "types": {
      "t_address": {
        "encoding": "inplace",
        "label": "address",
        "numberOfBytes": "20"
      },
      "t_array(t_bytes32)dyn_storage": {
        "base": "t_bytes32",
        "encoding": "dynamic_array",
        "label": "bytes32[]",
        "numberOfBytes": "32"
      },
      "t_bytes32": {
        "encoding": "inplace",
        "label": "bytes32",
        "numberOfBytes": "32"
      },
      "t_int256": {
        "encoding": "inplace",
        "label": "int256",
        "numberOfBytes": "32"
      },
      "t_mapping(t_address,t_mapping(t_address,t_struct(UserInfo)4542_storage))": {
        "encoding": "mapping",
        "key": "t_address",
        "label": "mapping(address => mapping(address => struct IRewardChefV2.UserInfo))",
        "numberOfBytes": "32",
        "value": "t_mapping(t_address,t_struct(UserInfo)4542_storage)"
      },
      "t_mapping(t_address,t_struct(PoolInfo)4537_storage)": {
        "encoding": "mapping",
        "key": "t_address",
        "label": "mapping(address => struct IRewardChefV2.PoolInfo)",
        "numberOfBytes": "32",
        "value": "t_struct(PoolInfo)4537_storage"
      },
      "t_mapping(t_address,t_struct(UserInfo)4542_storage)": {
        "encoding": "mapping",
        "key": "t_address",
        "label": "mapping(address => struct IRewardChefV2.UserInfo)",
        "numberOfBytes": "32",
        "value": "t_struct(UserInfo)4542_storage"
      },
      "t_mapping(t_bytes32,t_uint256)": {
        "encoding": "mapping",
        "key": "t_bytes32",
        "label": "mapping(bytes32 => uint256)",
        "numberOfBytes": "32",
        "value": "t_uint256"
      },
      "t_struct(AddressSet)2800_storage": {
        "encoding": "inplace",
        "label": "struct EnumerableSet.AddressSet",
        "members": [
          {
            "astId": 2799,
            "contract": "contracts/reward/RewardChefV2.sol:RewardChefV2",
            "label": "_inner",
            "offset": 0,
            "slot": "0",
            "type": "t_struct(Set)2499_storage"
          }
        ],
        "numberOfBytes": "64"
      },
      "t_struct(PoolInfo)4537_storage": {
        "encoding": "inplace",
        "label": "struct IRewardChefV2.PoolInfo",
        "members": [
          {
            "astId": 4530,
            "contract": "contracts/reward/RewardChefV2.sol:RewardChefV2",
            "label": "accSushiPerShare",
            "offset": 0,
            "slot": "0",
            "type": "t_uint128"
          },
          {
            "astId": 4532,
            "contract": "contracts/reward/RewardChefV2.sol:RewardChefV2",
            "label": "lastRewardBlock",
            "offset": 16,
            "slot": "0",
            "type": "t_uint64"
          },
          {
            "astId": 4534,
            "contract": "contracts/reward/RewardChefV2.sol:RewardChefV2",
            "label": "allocPoint",
            "offset": 24,
            "slot": "0",
            "type": "t_uint64"
          },
          {
            "astId": 4536,
            "contract": "contracts/reward/RewardChefV2.sol:RewardChefV2",
            "label": "lpSupply",
            "offset": 0,
            "slot": "1",
            "type": "t_uint256"
          }
        ],
        "numberOfBytes": "64"
      },
      "t_struct(Set)2499_storage": {
        "encoding": "inplace",
        "label": "struct EnumerableSet.Set",
        "members": [
          {
            "astId": 2494,
            "contract": "contracts/reward/RewardChefV2.sol:RewardChefV2",
            "label": "_values",
            "offset": 0,
            "slot": "0",
            "type": "t_array(t_bytes32)dyn_storage"
          },
          {
            "astId": 2498,
            "contract": "contracts/reward/RewardChefV2.sol:RewardChefV2",
            "label": "_indexes",
            "offset": 0,
            "slot": "1",
            "type": "t_mapping(t_bytes32,t_uint256)"
          }
        ],
        "numberOfBytes": "64"
      },
      "t_struct(UserInfo)4542_storage": {
        "encoding": "inplace",
        "label": "struct IRewardChefV2.UserInfo",
        "members": [
          {
            "astId": 4539,
            "contract": "contracts/reward/RewardChefV2.sol:RewardChefV2",
            "label": "amount",
            "offset": 0,
            "slot": "0",
            "type": "t_uint256"
          },
          {
            "astId": 4541,
            "contract": "contracts/reward/RewardChefV2.sol:RewardChefV2",
            "label": "rewardDebt",
            "offset": 0,
            "slot": "1",
            "type": "t_int256"
          }
        ],
        "numberOfBytes": "64"
      },
      "t_uint128": {
        "encoding": "inplace",
        "label": "uint128",
        "numberOfBytes": "16"
      },
      "t_uint256": {
        "encoding": "inplace",
        "label": "uint256",
        "numberOfBytes": "32"
      },
      "t_uint64": {
        "encoding": "inplace",
        "label": "uint64",
        "numberOfBytes": "8"
      }
    }
  }
}