{
  "address": "0xbA0be87A8DA826898e069D5f65D6263Cd0F8E3dA",
  "abi": [
    {
      "inputs": [],
      "stateMutability": "nonpayable",
      "type": "constructor"
    },
    {
      "anonymous": false,
      "inputs": [
        {
          "indexed": true,
          "internalType": "bytes32",
          "name": "role",
          "type": "bytes32"
        },
        {
          "indexed": true,
          "internalType": "bytes32",
          "name": "previousAdminRole",
          "type": "bytes32"
        },
        {
          "indexed": true,
          "internalType": "bytes32",
          "name": "newAdminRole",
          "type": "bytes32"
        }
      ],
      "name": "RoleAdminChanged",
      "type": "event"
    },
    {
      "anonymous": false,
      "inputs": [
        {
          "indexed": true,
          "internalType": "bytes32",
          "name": "role",
          "type": "bytes32"
        },
        {
          "indexed": true,
          "internalType": "address",
          "name": "account",
          "type": "address"
        },
        {
          "indexed": true,
          "internalType": "address",
          "name": "sender",
          "type": "address"
        }
      ],
      "name": "RoleGranted",
      "type": "event"
    },
    {
      "anonymous": false,
      "inputs": [
        {
          "indexed": true,
          "internalType": "bytes32",
          "name": "role",
          "type": "bytes32"
        },
        {
          "indexed": true,
          "internalType": "address",
          "name": "account",
          "type": "address"
        },
        {
          "indexed": true,
          "internalType": "address",
          "name": "sender",
          "type": "address"
        }
      ],
      "name": "RoleRevoked",
      "type": "event"
    },
    {
      "inputs": [],
      "name": "ACCESS_CONTROL_SINGLETON",
      "outputs": [
        {
          "internalType": "contract ISuAccessControl",
          "name": "",
          "type": "address"
        }
      ],
      "stateMutability": "view",
      "type": "function"
    },
    {
      "inputs": [],
      "name": "DEFAULT_ADMIN_ROLE",
      "outputs": [
        {
          "internalType": "bytes32",
          "name": "",
          "type": "bytes32"
        }
      ],
      "stateMutability": "view",
      "type": "function"
    },
    {
      "inputs": [],
      "name": "MINTER_ROLE",
      "outputs": [
        {
          "internalType": "bytes32",
          "name": "",
          "type": "bytes32"
        }
      ],
      "stateMutability": "view",
      "type": "function"
    },
    {
      "inputs": [],
      "name": "VAULT_ACCESS_ROLE",
      "outputs": [
        {
          "internalType": "bytes32",
          "name": "",
          "type": "bytes32"
        }
      ],
      "stateMutability": "view",
      "type": "function"
    },
    {
      "inputs": [
        {
          "internalType": "bytes32",
          "name": "role",
          "type": "bytes32"
        }
      ],
      "name": "getRoleAdmin",
      "outputs": [
        {
          "internalType": "bytes32",
          "name": "",
          "type": "bytes32"
        }
      ],
      "stateMutability": "view",
      "type": "function"
    },
    {
      "inputs": [
        {
          "internalType": "bytes32",
          "name": "role",
          "type": "bytes32"
        },
        {
          "internalType": "address",
          "name": "account",
          "type": "address"
        }
      ],
      "name": "grantRole",
      "outputs": [],
      "stateMutability": "nonpayable",
      "type": "function"
    },
    {
      "inputs": [
        {
          "internalType": "bytes32",
          "name": "role",
          "type": "bytes32"
        },
        {
          "internalType": "address",
          "name": "account",
          "type": "address"
        }
      ],
      "name": "hasRole",
      "outputs": [
        {
          "internalType": "bool",
          "name": "",
          "type": "bool"
        }
      ],
      "stateMutability": "view",
      "type": "function"
    },
    {
      "inputs": [
        {
          "internalType": "bytes32",
          "name": "role",
          "type": "bytes32"
        },
        {
          "internalType": "address",
          "name": "account",
          "type": "address"
        }
      ],
      "name": "renounceRole",
      "outputs": [],
      "stateMutability": "nonpayable",
      "type": "function"
    },
    {
      "inputs": [
        {
          "internalType": "bytes32",
          "name": "role",
          "type": "bytes32"
        },
        {
          "internalType": "address",
          "name": "account",
          "type": "address"
        }
      ],
      "name": "revokeRole",
      "outputs": [],
      "stateMutability": "nonpayable",
      "type": "function"
    },
    {
      "inputs": [
        {
          "internalType": "bytes4",
          "name": "interfaceId",
          "type": "bytes4"
        }
      ],
      "name": "supportsInterface",
      "outputs": [
        {
          "internalType": "bool",
          "name": "",
          "type": "bool"
        }
      ],
      "stateMutability": "view",
      "type": "function"
    },
    {
      "inputs": [
        {
          "internalType": "address",
          "name": "newOwner",
          "type": "address"
        }
      ],
      "name": "transferOwnership",
      "outputs": [],
      "stateMutability": "nonpayable",
      "type": "function"
    }
  ],
  "transactionHash": "0x078ad84c6ae0598f3295e9e8ea208da6dc8e980ba278649d1cfa1ef280d0ff3b",
  "args": [],
  "numDeployments": 1,
  "solcInputHash": "d1c3e992972545e414ac7f62b849d9a1",
  "bytecode": "0x60a060405234801561001057600080fd5b503060601b608052610023600033610028565b6100d4565b6100328282610036565b5050565b6000828152602081815260408083206001600160a01b038516845290915290205460ff16610032576000828152602081815260408083206001600160a01b03851684529091529020805460ff191660011790556100903390565b6001600160a01b0316816001600160a01b0316837f2f8788117e7eff1d82e926ec794901d17c78024a50270940304540a733656f0d60405160405180910390a45050565b60805160601c610be56100f1600039600060fb0152610be56000f3fe608060405234801561001057600080fd5b50600436106100c95760003560e01c806336568abe11610081578063d53913931161005b578063d5391393146101f4578063d547741f1461021b578063f2fde38b1461022e57600080fd5b806336568abe146101a257806391d14854146101b5578063a217fddf146101ec57600080fd5b806314c376dc116100b257806314c376dc14610135578063248a9ca31461016a5780632f2ff15d1461018d57600080fd5b806301ffc9a7146100ce57806303ee9f22146100f6575b600080fd5b6100e16100dc366004610a27565b610241565b60405190151581526020015b60405180910390f35b61011d7f000000000000000000000000000000000000000000000000000000000000000081565b6040516001600160a01b0390911681526020016100ed565b61015c7fe965846df3dd5b1dfa65f58e31477079e90140e0908b6dd31b5aead5a57cf36581565b6040519081526020016100ed565b61015c6101783660046109e4565b60009081526020819052604090206001015490565b6101a061019b3660046109fc565b6102da565b005b6101a06101b03660046109fc565b610305565b6100e16101c33660046109fc565b6000918252602082815260408084206001600160a01b0393909316845291905290205460ff1690565b61015c600081565b61015c7f9f2df0fed2c77648de5860a4cc508cd0818c85b8b8a1ab4ceeef8d981c8956a681565b6101a06102293660046109fc565b610396565b6101a061023c3660046109ca565b6103bc565b60007fffffffff0000000000000000000000000000000000000000000000000000000082167f7965db0b0000000000000000000000000000000000000000000000000000000014806102d457507f01ffc9a7000000000000000000000000000000000000000000000000000000007fffffffff000000000000000000000000000000000000000000000000000000008316145b92915050565b6000828152602081905260409020600101546102f681336105e5565b6103008383610663565b505050565b6001600160a01b03811633146103885760405162461bcd60e51b815260206004820152602f60248201527f416363657373436f6e74726f6c3a2063616e206f6e6c792072656e6f756e636560448201527f20726f6c657320666f722073656c66000000000000000000000000000000000060648201526084015b60405180910390fd5b6103928282610701565b5050565b6000828152602081905260409020600101546103b281336105e5565b6103008383610701565b6001600160a01b0381166104385760405162461bcd60e51b815260206004820152602660248201527f4f776e61626c653a206e6577206f776e657220697320746865207a65726f206160448201527f6464726573730000000000000000000000000000000000000000000000000000606482015260840161037f565b3360009081527fad3228b676f7d3cd4284a5443f17f1962b36e491b30a40b2405849e597ba5fb5602052604090205460ff166104b65760405162461bcd60e51b815260206004820181905260248201527f4f776e61626c653a2063616c6c6572206973206e6f7420746865206f776e6572604482015260640161037f565b3360009081527f0781d7cac9c378efa22a7481e4d4d29704a680ddf504b3bc50b517700ee11e6c602052604090205460ff1615610541576105177f9f2df0fed2c77648de5860a4cc508cd0818c85b8b8a1ab4ceeef8d981c8956a6826102da565b6105417f9f2df0fed2c77648de5860a4cc508cd0818c85b8b8a1ab4ceeef8d981c8956a633610396565b3360009081527f71e4c91a3b9432eb252f96cfae58ca0ccec828b45236b2d1255b0ae198a1cfb5602052604090205460ff16156105cc576105a27fe965846df3dd5b1dfa65f58e31477079e90140e0908b6dd31b5aead5a57cf365826102da565b6105cc7fe965846df3dd5b1dfa65f58e31477079e90140e0908b6dd31b5aead5a57cf36533610396565b6105d76000826102da565b6105e2600033610396565b50565b6000828152602081815260408083206001600160a01b038516845290915290205460ff1661039257610621816001600160a01b03166014610780565b61062c836020610780565b60405160200161063d929190610a67565b60408051601f198184030181529082905262461bcd60e51b825261037f91600401610ae8565b6000828152602081815260408083206001600160a01b038516845290915290205460ff16610392576000828152602081815260408083206001600160a01b03851684529091529020805460ff191660011790556106bd3390565b6001600160a01b0316816001600160a01b0316837f2f8788117e7eff1d82e926ec794901d17c78024a50270940304540a733656f0d60405160405180910390a45050565b6000828152602081815260408083206001600160a01b038516845290915290205460ff1615610392576000828152602081815260408083206001600160a01b0385168085529252808320805460ff1916905551339285917ff6391f5c32d9c69d2a47ea670b442974b53935d1edc7fd64eb21e047a839171b9190a45050565b6060600061078f836002610b33565b61079a906002610b1b565b67ffffffffffffffff8111156107c057634e487b7160e01b600052604160045260246000fd5b6040519080825280601f01601f1916602001820160405280156107ea576020820181803683370190505b5090507f30000000000000000000000000000000000000000000000000000000000000008160008151811061082f57634e487b7160e01b600052603260045260246000fd5b60200101906001600160f81b031916908160001a9053507f78000000000000000000000000000000000000000000000000000000000000008160018151811061088857634e487b7160e01b600052603260045260246000fd5b60200101906001600160f81b031916908160001a90535060006108ac846002610b33565b6108b7906001610b1b565b90505b6001811115610958577f303132333435363738396162636465660000000000000000000000000000000085600f166010811061090657634e487b7160e01b600052603260045260246000fd5b1a60f81b82828151811061092a57634e487b7160e01b600052603260045260246000fd5b60200101906001600160f81b031916908160001a90535060049490941c9361095181610b82565b90506108ba565b5083156109a75760405162461bcd60e51b815260206004820181905260248201527f537472696e67733a20686578206c656e67746820696e73756666696369656e74604482015260640161037f565b9392505050565b80356001600160a01b03811681146109c557600080fd5b919050565b6000602082840312156109db578081fd5b6109a7826109ae565b6000602082840312156109f5578081fd5b5035919050565b60008060408385031215610a0e578081fd5b82359150610a1e602084016109ae565b90509250929050565b600060208284031215610a38578081fd5b81357fffffffff00000000000000000000000000000000000000000000000000000000811681146109a7578182fd5b7f416363657373436f6e74726f6c3a206163636f756e7420000000000000000000815260008351610a9f816017850160208801610b52565b7f206973206d697373696e6720726f6c65200000000000000000000000000000006017918401918201528351610adc816028840160208801610b52565b01602801949350505050565b6020815260008251806020840152610b07816040850160208701610b52565b601f01601f19169190910160400192915050565b60008219821115610b2e57610b2e610b99565b500190565b6000816000190483118215151615610b4d57610b4d610b99565b500290565b60005b83811015610b6d578181015183820152602001610b55565b83811115610b7c576000848401525b50505050565b600081610b9157610b91610b99565b506000190190565b634e487b7160e01b600052601160045260246000fdfea26469706673582212203a88c054f8bd735c75cb68214b2b328e6f825c64cc68858f05e0bd96f42264a164736f6c63430008040033",
  "devdoc": {
    "details": "Access control for contracts. SuVaultParameters can be inherited from it.",
    "kind": "dev",
    "methods": {
      "constructor": {
        "details": "Initialize the contract with initial owner to be deployer"
      },
      "getRoleAdmin(bytes32)": {
        "details": "Returns the admin role that controls `role`. See {grantRole} and {revokeRole}. To change a role's admin, use {_setRoleAdmin}."
      },
      "grantRole(bytes32,address)": {
        "details": "Grants `role` to `account`. If `account` had not been already granted `role`, emits a {RoleGranted} event. Requirements: - the caller must have ``role``'s admin role."
      },
      "hasRole(bytes32,address)": {
        "details": "Returns `true` if `account` has been granted `role`."
      },
      "renounceRole(bytes32,address)": {
        "details": "Revokes `role` from the calling account. Roles are often managed via {grantRole} and {revokeRole}: this function's purpose is to provide a mechanism for accounts to lose their privileges if they are compromised (such as when a trusted device is misplaced). If the calling account had been revoked `role`, emits a {RoleRevoked} event. Requirements: - the caller must be `account`."
      },
      "revokeRole(bytes32,address)": {
        "details": "Revokes `role` from `account`. If `account` had been granted `role`, emits a {RoleRevoked} event. Requirements: - the caller must have ``role``'s admin role."
      },
      "supportsInterface(bytes4)": {
        "details": "See {IERC165-supportsInterface}."
      },
      "transferOwnership(address)": {
        "details": "Transfers ownership of the contract to a new account (`newOwner`). Can only be called by the current owner."
      }
    },
    "title": "SuAccessControl",
    "version": 1
  },
  "userdoc": {
    "kind": "user",
    "methods": {},
    "version": 1
  },
  "storageLayout": {
    "storage": [
      {
        "astId": 70,
        "contract": "contracts/access-control/SuAccessControlSingleton.sol:SuAccessControlSingleton",
        "label": "_roles",
        "offset": 0,
        "slot": "0",
        "type": "t_mapping(t_bytes32,t_struct(RoleData)65_storage)"
      }
    ],
    "types": {
      "t_address": {
        "encoding": "inplace",
        "label": "address",
        "numberOfBytes": "20"
      },
      "t_bool": {
        "encoding": "inplace",
        "label": "bool",
        "numberOfBytes": "1"
      },
      "t_bytes32": {
        "encoding": "inplace",
        "label": "bytes32",
        "numberOfBytes": "32"
      },
      "t_mapping(t_address,t_bool)": {
        "encoding": "mapping",
        "key": "t_address",
        "label": "mapping(address => bool)",
        "numberOfBytes": "32",
        "value": "t_bool"
      },
      "t_mapping(t_bytes32,t_struct(RoleData)65_storage)": {
        "encoding": "mapping",
        "key": "t_bytes32",
        "label": "mapping(bytes32 => struct AccessControl.RoleData)",
        "numberOfBytes": "32",
        "value": "t_struct(RoleData)65_storage"
      },
      "t_struct(RoleData)65_storage": {
        "encoding": "inplace",
        "label": "struct AccessControl.RoleData",
        "members": [
          {
            "astId": 62,
            "contract": "contracts/access-control/SuAccessControlSingleton.sol:SuAccessControlSingleton",
            "label": "members",
            "offset": 0,
            "slot": "0",
            "type": "t_mapping(t_address,t_bool)"
          },
          {
            "astId": 64,
            "contract": "contracts/access-control/SuAccessControlSingleton.sol:SuAccessControlSingleton",
            "label": "adminRole",
            "offset": 0,
            "slot": "1",
            "type": "t_bytes32"
          }
        ],
        "numberOfBytes": "64"
      }
    }
  }
}