{
  "address": "0xA8dc2dC4E77d9FfEf568801128d1389BF9072998",
  "abi": [
    {
      "inputs": [
        {
          "internalType": "address",
          "name": "_vaultManagerParameters",
          "type": "address"
        },
        {
          "internalType": "address",
          "name": "_suOracle",
          "type": "address"
        },
        {
          "internalType": "address",
          "name": "_cdpRegistry",
          "type": "address"
        }
      ],
      "stateMutability": "nonpayable",
      "type": "constructor"
    },
    {
      "anonymous": false,
      "inputs": [
        {
          "indexed": true,
          "internalType": "address",
          "name": "asset",
          "type": "address"
        },
        {
          "indexed": true,
          "internalType": "address",
          "name": "owner",
          "type": "address"
        },
        {
          "indexed": false,
          "internalType": "uint256",
          "name": "main",
          "type": "uint256"
        },
        {
          "indexed": false,
          "internalType": "uint256",
          "name": "usdp",
          "type": "uint256"
        }
      ],
      "name": "Exit",
      "type": "event"
    },
    {
      "anonymous": false,
      "inputs": [
        {
          "indexed": true,
          "internalType": "address",
          "name": "asset",
          "type": "address"
        },
        {
          "indexed": true,
          "internalType": "address",
          "name": "owner",
          "type": "address"
        },
        {
          "indexed": false,
          "internalType": "uint256",
          "name": "main",
          "type": "uint256"
        },
        {
          "indexed": false,
          "internalType": "uint256",
          "name": "usdp",
          "type": "uint256"
        }
      ],
      "name": "Join",
      "type": "event"
    },
    {
      "anonymous": false,
      "inputs": [
        {
          "indexed": true,
          "internalType": "address",
          "name": "asset",
          "type": "address"
        },
        {
          "indexed": true,
          "internalType": "address",
          "name": "owner",
          "type": "address"
        }
      ],
      "name": "LiquidationTriggered",
      "type": "event"
    },
    {
      "inputs": [],
      "name": "DENOMINATOR_1E5",
      "outputs": [
        {
          "internalType": "uint256",
          "name": "",
          "type": "uint256"
        }
      ],
      "stateMutability": "view",
      "type": "function"
    },
    {
      "inputs": [],
      "name": "Q112",
      "outputs": [
        {
          "internalType": "uint256",
          "name": "",
          "type": "uint256"
        }
      ],
      "stateMutability": "view",
      "type": "function"
    },
    {
      "inputs": [],
      "name": "WETH",
      "outputs": [
        {
          "internalType": "address payable",
          "name": "",
          "type": "address"
        }
      ],
      "stateMutability": "view",
      "type": "function"
    },
    {
      "inputs": [],
      "name": "cdpRegistry",
      "outputs": [
        {
          "internalType": "contract ISuCdpRegistry",
          "name": "",
          "type": "address"
        }
      ],
      "stateMutability": "view",
      "type": "function"
    },
    {
      "inputs": [
        {
          "internalType": "address",
          "name": "asset",
          "type": "address"
        },
        {
          "internalType": "uint256",
          "name": "assetAmount",
          "type": "uint256"
        },
        {
          "internalType": "uint256",
          "name": "usdpAmount",
          "type": "uint256"
        }
      ],
      "name": "exit",
      "outputs": [
        {
          "internalType": "uint256",
          "name": "",
          "type": "uint256"
        }
      ],
      "stateMutability": "nonpayable",
      "type": "function"
    },
    {
      "inputs": [
        {
          "internalType": "uint256",
          "name": "ethAmount",
          "type": "uint256"
        },
        {
          "internalType": "uint256",
          "name": "usdpAmount",
          "type": "uint256"
        }
      ],
      "name": "exit_Eth",
      "outputs": [
        {
          "internalType": "uint256",
          "name": "",
          "type": "uint256"
        }
      ],
      "stateMutability": "nonpayable",
      "type": "function"
    },
    {
      "inputs": [
        {
          "internalType": "uint256",
          "name": "ethAmount",
          "type": "uint256"
        },
        {
          "internalType": "uint256",
          "name": "repayment",
          "type": "uint256"
        }
      ],
      "name": "exit_Eth_targetRepayment",
      "outputs": [
        {
          "internalType": "uint256",
          "name": "",
          "type": "uint256"
        }
      ],
      "stateMutability": "nonpayable",
      "type": "function"
    },
    {
      "inputs": [
        {
          "internalType": "address",
          "name": "asset",
          "type": "address"
        },
        {
          "internalType": "uint256",
          "name": "assetAmount",
          "type": "uint256"
        },
        {
          "internalType": "uint256",
          "name": "repayment",
          "type": "uint256"
        }
      ],
      "name": "exit_targetRepayment",
      "outputs": [
        {
          "internalType": "uint256",
          "name": "",
          "type": "uint256"
        }
      ],
      "stateMutability": "nonpayable",
      "type": "function"
    },
    {
      "inputs": [
        {
          "internalType": "address",
          "name": "asset",
          "type": "address"
        },
        {
          "internalType": "address",
          "name": "owner",
          "type": "address"
        }
      ],
      "name": "getCollateralUsdValue_q112",
      "outputs": [
        {
          "internalType": "uint256",
          "name": "",
          "type": "uint256"
        }
      ],
      "stateMutability": "view",
      "type": "function"
    },
    {
      "inputs": [
        {
          "internalType": "address",
          "name": "asset",
          "type": "address"
        },
        {
          "internalType": "address",
          "name": "owner",
          "type": "address"
        }
      ],
      "name": "isLiquidatablePosition",
      "outputs": [
        {
          "internalType": "bool",
          "name": "",
          "type": "bool"
        }
      ],
      "stateMutability": "view",
      "type": "function"
    },
    {
      "inputs": [
        {
          "internalType": "address",
          "name": "asset",
          "type": "address"
        },
        {
          "internalType": "uint256",
          "name": "assetAmount",
          "type": "uint256"
        },
        {
          "internalType": "uint256",
          "name": "usdpAmount",
          "type": "uint256"
        }
      ],
      "name": "join",
      "outputs": [],
      "stateMutability": "nonpayable",
      "type": "function"
    },
    {
      "inputs": [
        {
          "internalType": "uint256",
          "name": "usdpAmount",
          "type": "uint256"
        }
      ],
      "name": "join_Eth",
      "outputs": [],
      "stateMutability": "payable",
      "type": "function"
    },
    {
      "inputs": [
        {
          "internalType": "address",
          "name": "asset",
          "type": "address"
        },
        {
          "internalType": "address",
          "name": "owner",
          "type": "address"
        }
      ],
      "name": "liquidationPrice_q112",
      "outputs": [
        {
          "internalType": "uint256",
          "name": "",
          "type": "uint256"
        }
      ],
      "stateMutability": "view",
      "type": "function"
    },
    {
      "inputs": [],
      "name": "suOracle",
      "outputs": [
        {
          "internalType": "address",
          "name": "",
          "type": "address"
        }
      ],
      "stateMutability": "view",
      "type": "function"
    },
    {
      "inputs": [
        {
          "internalType": "address",
          "name": "asset",
          "type": "address"
        },
        {
          "internalType": "address",
          "name": "owner",
          "type": "address"
        }
      ],
      "name": "triggerLiquidation",
      "outputs": [],
      "stateMutability": "nonpayable",
      "type": "function"
    },
    {
      "inputs": [
        {
          "internalType": "address",
          "name": "asset",
          "type": "address"
        },
        {
          "internalType": "address",
          "name": "owner",
          "type": "address"
        }
      ],
      "name": "utilizationRatio",
      "outputs": [
        {
          "internalType": "uint256",
          "name": "",
          "type": "uint256"
        }
      ],
      "stateMutability": "view",
      "type": "function"
    },
    {
      "inputs": [],
      "name": "vault",
      "outputs": [
        {
          "internalType": "contract ISuVault",
          "name": "",
          "type": "address"
        }
      ],
      "stateMutability": "view",
      "type": "function"
    },
    {
      "inputs": [],
      "name": "vaultManagerParameters",
      "outputs": [
        {
          "internalType": "contract ISuVaultManagerParameters",
          "name": "",
          "type": "address"
        }
      ],
      "stateMutability": "view",
      "type": "function"
    },
    {
      "stateMutability": "payable",
      "type": "receive"
    }
  ],
  "transactionHash": "0xeedf1fe67bfdb3e67b87a2fadc132837649cacd01e7f279e8e389bcf7d9e5fd6",
  "args": [
    "0x5dbd56D7215B97FdF9A3Ddc79AEf63396996da51",
    "0x50685E6d111Af1E9bd51Cbe55919C261fD6C55Fe",
    "0xe52B5CfcA59b334131626b84Bf3167C46FC20907"
  ],
  "numDeployments": 1,
  "solcInputHash": "b2a316d88216370f97fe4d0da4c49655",
  "bytecode": "0x6101006040523480156200001257600080fd5b5060405162003172380380620031728339810160408190526200003591620007ca565b60016000556001600160a01b038316158015906200005b57506001600160a01b03811615155b620000ad5760405162461bcd60e51b815260206004820152601b60248201527f556e69742050726f746f636f6c3a20494e56414c49445f41524753000000000060448201526064015b60405180910390fd5b6001600160a01b038216620001055760405162461bcd60e51b815260206004820152601760248201527f494e56414c49445f415247533a2053555f4f5241434c450000000000000000006044820152606401620000a4565b60006001600160a01b0316836001600160a01b031663aca345ee6040518163ffffffff1660e01b815260040160206040518083038186803b1580156200014a57600080fd5b505afa1580156200015f573d6000803e3d6000fd5b505050506040513d601f19601f82011682018060405250810190620001859190620007a4565b6001600160a01b03161415620001de5760405162461bcd60e51b815260206004820152601e60248201527f494e56414c49445f415247533a205641554c545f504152414d455445525300006044820152606401620000a4565b60006001600160a01b0316836001600160a01b031663aca345ee6040518163ffffffff1660e01b815260040160206040518083038186803b1580156200022357600080fd5b505afa15801562000238573d6000803e3d6000fd5b505050506040513d601f19601f820116820180604052508101906200025e9190620007a4565b6001600160a01b031663fbfa77cf6040518163ffffffff1660e01b815260040160206040518083038186803b1580156200029757600080fd5b505afa158015620002ac573d6000803e3d6000fd5b505050506040513d601f19601f82011682018060405250810190620002d29190620007a4565b6001600160a01b031614156200032b5760405162461bcd60e51b815260206004820152601360248201527f494e56414c49445f415247533a205641554c54000000000000000000000000006044820152606401620000a4565b60006001600160a01b0316836001600160a01b031663aca345ee6040518163ffffffff1660e01b815260040160206040518083038186803b1580156200037057600080fd5b505afa15801562000385573d6000803e3d6000fd5b505050506040513d601f19601f82011682018060405250810190620003ab9190620007a4565b6001600160a01b031663fbfa77cf6040518163ffffffff1660e01b815260040160206040518083038186803b158015620003e457600080fd5b505afa158015620003f9573d6000803e3d6000fd5b505050506040513d601f19601f820116820180604052508101906200041f9190620007a4565b6001600160a01b0316633fc8cef36040518163ffffffff1660e01b815260040160206040518083038186803b1580156200045857600080fd5b505afa1580156200046d573d6000803e3d6000fd5b505050506040513d601f19601f82011682018060405250810190620004939190620007a4565b6001600160a01b03161415620004ec5760405162461bcd60e51b815260206004820152601b60248201527f494e56414c49445f415247533a205641554c545f4d414e4147455200000000006044820152606401620000a4565b600180546001600160a01b0319166001600160a01b0384811691909117909155606084901b6001600160601b03191660a05260408051635651a2f760e11b815290519185169163aca345ee91600480820192602092909190829003018186803b1580156200055957600080fd5b505afa1580156200056e573d6000803e3d6000fd5b505050506040513d601f19601f82011682018060405250810190620005949190620007a4565b6001600160a01b031663fbfa77cf6040518163ffffffff1660e01b815260040160206040518083038186803b158015620005cd57600080fd5b505afa158015620005e2573d6000803e3d6000fd5b505050506040513d601f19601f82011682018060405250810190620006089190620007a4565b6001600160a01b03166080816001600160a01b031660601b81525050826001600160a01b031663aca345ee6040518163ffffffff1660e01b815260040160206040518083038186803b1580156200065e57600080fd5b505afa15801562000673573d6000803e3d6000fd5b505050506040513d601f19601f82011682018060405250810190620006999190620007a4565b6001600160a01b031663fbfa77cf6040518163ffffffff1660e01b815260040160206040518083038186803b158015620006d257600080fd5b505afa158015620006e7573d6000803e3d6000fd5b505050506040513d601f19601f820116820180604052508101906200070d9190620007a4565b6001600160a01b0316633fc8cef36040518163ffffffff1660e01b815260040160206040518083038186803b1580156200074657600080fd5b505afa1580156200075b573d6000803e3d6000fd5b505050506040513d601f19601f82011682018060405250810190620007819190620007a4565b6001600160601b0319606091821b811660e05291901b1660c05250620008369050565b600060208284031215620007b6578081fd5b8151620007c3816200081d565b9392505050565b600080600060608486031215620007df578182fd5b8351620007ec816200081d565b6020850151909350620007ff816200081d565b604085015190925062000812816200081d565b809150509250925092565b6001600160a01b03811681146200083357600080fd5b50565b60805160601c60a05160601c60c05160601c60e05160601c6127f36200097f6000396000818161013d015281816103390152818161099c01528181610a3f01528181610b3e01528181610c71015281816118fd015281816119610152611a8601526000818161030501528181611072015261188e01526000818161036d01528181610541015281816111e201528181611d0501526123320152600081816104410152818161048f0152818161075c0152818161084301528181610b9301528181610d8001528181610e5301528181610eee01528181610f9b015281816112c30152818161151b015281816115a401528181611667015281816116f60152818161179801528181611c5b01528181611dec01528181611eb201528181611fb0015281816120300152818161205f015281816121b70152818161227b01526123f601526127f36000f3fe60806040526004361061012d5760003560e01c8063ab2a2a82116100a5578063bbdc953111610074578063ea36380a11610059578063ea36380a146103ef578063eb70d3581461040f578063fbfa77cf1461042f57600080fd5b8063bbdc9531146103af578063d4796d12146103cf57600080fd5b8063ab2a2a82146102f3578063ad5c464814610327578063b7ebdc0c1461035b578063ba96208a1461038f57600080fd5b80633bf7a83e116100fc578063971182c6116100e1578063971182c614610284578063a20f9cb31461029b578063a3d84b5b146102d357600080fd5b80633bf7a83e1461024c5780634265607c1461026457600080fd5b806312dc1dcc146101b6578063134a02dd146101e9578063252d040e1461021957806325df90581461023957600080fd5b366101b157336001600160a01b037f000000000000000000000000000000000000000000000000000000000000000016146101af5760405162461bcd60e51b815260206004820152601960248201527f556e69742050726f746f636f6c3a20524553545249435445440000000000000060448201526064015b60405180910390fd5b005b600080fd5b3480156101c257600080fd5b506101d66101d1366004612515565b610463565b6040519081526020015b60405180910390f35b3480156101f557600080fd5b50610209610204366004612515565b6107f5565b60405190151581526020016101e0565b34801561022557600080fd5b506101d6610234366004612515565b610817565b6101af6102473660046125a1565b610994565b34801561025857600080fd5b506101d6600160701b81565b34801561027057600080fd5b506101d661027f366004612515565b610b67565b34801561029057600080fd5b506101d6620186a081565b3480156102a757600080fd5b506001546102bb906001600160a01b031681565b6040516001600160a01b0390911681526020016101e0565b3480156102df57600080fd5b506101d66102ee36600461254d565b610c43565b3480156102ff57600080fd5b506102bb7f000000000000000000000000000000000000000000000000000000000000000081565b34801561033357600080fd5b506102bb7f000000000000000000000000000000000000000000000000000000000000000081565b34801561036757600080fd5b506102bb7f000000000000000000000000000000000000000000000000000000000000000081565b34801561039b57600080fd5b506101d66103aa3660046125d1565b610c69565b3480156103bb57600080fd5b506101d66103ca36600461254d565b610ca3565b3480156103db57600080fd5b506101af6103ea366004612515565b6110dd565b3480156103fb57600080fd5b506101af61040a36600461254d565b611365565b34801561041b57600080fd5b506101d661042a3660046125d1565b6118f6565b34801561043b57600080fd5b506102bb7f000000000000000000000000000000000000000000000000000000000000000081565b60405163d6446d4360e01b81526001600160a01b038381166004830152828116602483015260009182917f0000000000000000000000000000000000000000000000000000000000000000169063d6446d439060440160206040518083038186803b1580156104d157600080fd5b505afa1580156104e5573d6000803e3d6000fd5b505050506040513d601f19601f8201168201806040525081019061050991906125b9565b90508061051b576000199150506107ef565b604051631dffddf160e11b81526001600160a01b0385811660048301526000916105da917f00000000000000000000000000000000000000000000000000000000000000001690633bffbbe29060240160206040518083038186803b15801561058357600080fd5b505afa158015610597573d6000803e3d6000fd5b505050506040513d601f19601f820116820180604052508101906105bb91906125b9565b6105d4600160701b6105ce866064611b95565b90611b95565b90611bd6565b90506012856001600160a01b031663313ce5676040518163ffffffff1660e01b815260040160206040518083038186803b15801561061757600080fd5b505afa15801561062b573d6000803e3d6000fd5b505050506040513d601f19601f8201168201806040525081019061064f91906125f2565b60ff1611156106ae5760405162461bcd60e51b815260206004820152602560248201527f556e69742050726f746f636f6c3a204e4f545f535550504f525445445f444543604482015264494d414c5360d81b60648201526084016101a6565b846001600160a01b031663313ce5676040518163ffffffff1660e01b815260040160206040518083038186803b1580156106e757600080fd5b505afa1580156106fb573d6000803e3d6000fd5b505050506040513d601f19601f8201168201806040525081019061071f91906125f2565b61072a90601261276f565b61073590600a61268e565b60405163728f08cf60e11b81526001600160a01b03878116600483015286811660248301527f0000000000000000000000000000000000000000000000000000000000000000169063e51e119e9060440160206040518083038186803b15801561079e57600080fd5b505afa1580156107b2573d6000803e3d6000fd5b505050506040513d601f19601f820116820180604052508101906107d691906125b9565b6107e0908361262b565b6107ea919061262b565b925050505b92915050565b6000806108028484610817565b905061080f848483611c2f565b949350505050565b60405163728f08cf60e11b81526001600160a01b038381166004830152828116602483015260009182917f0000000000000000000000000000000000000000000000000000000000000000169063e51e119e9060440160206040518083038186803b15801561088557600080fd5b505afa158015610899573d6000803e3d6000fd5b505050506040513d601f19601f820116820180604052508101906108bd91906125b9565b6001546040517f356efd980000000000000000000000000000000000000000000000000000000081526001600160a01b038781166004830152929350600092670de0b6b3a764000092859291169063356efd989060240160206040518083038186803b15801561092c57600080fd5b505afa158015610940573d6000803e3d6000fd5b505050506040513d601f19601f8201168201806040525081019061096491906125b9565b61096e9190612739565b610978919061262b565b9050600061098a600160701b83612739565b9695505050505050565b3415610b39577f00000000000000000000000000000000000000000000000000000000000000006001600160a01b031663d0e30db0346040518263ffffffff1660e01b81526004016000604051808303818588803b1580156109f557600080fd5b505af1158015610a09573d6000803e3d6000fd5b50506040517fa9059cbb0000000000000000000000000000000000000000000000000000000081523360048201523460248201527f00000000000000000000000000000000000000000000000000000000000000006001600160a01b0316935063a9059cbb92506044019050602060405180830381600087803b158015610a8f57600080fd5b505af1158015610aa3573d6000803e3d6000fd5b505050506040513d601f19601f82011682018060405250810190610ac79190612581565b610b395760405162461bcd60e51b815260206004820152602360248201527f556e69742050726f746f636f6c3a20574554485f5452414e534645525f46414960448201527f4c4544000000000000000000000000000000000000000000000000000000000060648201526084016101a6565b610b647f00000000000000000000000000000000000000000000000000000000000000003483611365565b50565b60405163d6446d4360e01b81526001600160a01b038381166004830152828116602483015260009182917f0000000000000000000000000000000000000000000000000000000000000000169063d6446d439060440160206040518083038186803b158015610bd557600080fd5b505afa158015610be9573d6000803e3d6000fd5b505050506040513d601f19601f82011682018060405250810190610c0d91906125b9565b905080610c1e5760009150506107ef565b6000610c2a8585610817565b90506107ea816105d4600160701b6105ce866064611b95565b600080610c51853385611da1565b9050610c5e858583610ca3565b9150505b9392505050565b600080610c977f00000000000000000000000000000000000000000000000000000000000000003385611da1565b905061080f84826118f6565b600060026000541415610cf85760405162461bcd60e51b815260206004820152601f60248201527f5265656e7472616e637947756172643a207265656e7472616e742063616c6c0060448201526064016101a6565b6002600055833384151580610d0c57508315155b610d585760405162461bcd60e51b815260206004820152601960248201527f556e69742050726f746f636f6c3a205553454c4553535f54580000000000000060448201526064016101a6565b604051634ac1c33d60e01b81526001600160a01b0387811660048301523360248301526000917f000000000000000000000000000000000000000000000000000000000000000090911690634ac1c33d9060440160206040518083038186803b158015610dc457600080fd5b505afa158015610dd8573d6000803e3d6000fd5b505050506040513d601f19601f82011682018060405250810190610dfc91906125b9565b905080851115610e0a578094505b85610e1f57610e1a873387611f66565b611001565b84811415610ec2576040516311af95b160e31b81526001600160a01b038881166004830152336024830152604482018890527f00000000000000000000000000000000000000000000000000000000000000001690638d7cad8890606401600060405180830381600087803b158015610e9757600080fd5b505af1158015610eab573d6000803e3d6000fd5b5050505084600014610e1a57610e1a873387611f66565b6040516311af95b160e31b81526001600160a01b038881166004830152336024830152604482018890527f00000000000000000000000000000000000000000000000000000000000000001690638d7cad8890606401600060405180830381600087803b158015610f3257600080fd5b505af1158015610f46573d6000803e3d6000fd5b5050505084600014610f5d57610f5d873387611f66565b6040517fc640752d0000000000000000000000000000000000000000000000000000000081526001600160a01b0388811660048301523360248301527f0000000000000000000000000000000000000000000000000000000000000000169063c640752d90604401600060405180830381600087803b158015610fdf57600080fd5b505af1158015610ff3573d6000803e3d6000fd5b5050505061100187336122df565b604080518781526020810187905233916001600160a01b038a16917fa702ae6024e8b4c2b0eb162b1453dacb93cf6922f5a2d7236faed898c21148f8910160405180910390a350604051632ed56dff60e21b81526001600160a01b03838116600483015282811660248301528594507f0000000000000000000000000000000000000000000000000000000000000000169063bb55b7fc90604401600060405180830381600087803b1580156110b657600080fd5b505af11580156110ca573d6000803e3d6000fd5b5050600160005550929695505050505050565b600260005414156111305760405162461bcd60e51b815260206004820152601f60248201527f5265656e7472616e637947756172643a207265656e7472616e742063616c6c0060448201526064016101a6565b600260009081556111418383610817565b905061114e838383611c2f565b61119a5760405162461bcd60e51b815260206004820152601c60248201527f556e69742050726f746f636f6c3a20534146455f504f534954494f4e0000000060448201526064016101a6565b6040517f15a04ea20000000000000000000000000000000000000000000000000000000081526001600160a01b03848116600483015260009161126391620186a0916105d4917f000000000000000000000000000000000000000000000000000000000000000016906315a04ea29060240160206040518083038186803b15801561122457600080fd5b505afa158015611238573d6000803e3d6000fd5b505050506040513d601f19601f8201168201806040525081019061125c91906125b9565b8590611b95565b90506000611279600160701b6105d485856124cf565b6040517f742a326e0000000000000000000000000000000000000000000000000000000081526001600160a01b0387811660048301528681166024830152604482018390529192507f00000000000000000000000000000000000000000000000000000000000000009091169063742a326e90606401600060405180830381600087803b15801561130957600080fd5b505af115801561131d573d6000803e3d6000fd5b50506040516001600160a01b038088169350881691507f5b79a897d30813a62a1f95ba180d3320d3701d96605708b81105e00719a069e490600090a350506001600055505050565b600260005414156113b85760405162461bcd60e51b815260206004820152601f60248201527f5265656e7472616e637947756172643a207265656e7472616e742063616c6c0060448201526064016101a6565b60026000558233821515806113cc57508315155b6114185760405162461bcd60e51b815260206004820152601960248201527f556e69742050726f746f636f6c3a205553454c4553535f54580000000000000060448201526064016101a6565b6012856001600160a01b031663313ce5676040518163ffffffff1660e01b815260040160206040518083038186803b15801561145357600080fd5b505afa158015611467573d6000803e3d6000fd5b505050506040513d601f19601f8201168201806040525081019061148b91906125f2565b60ff1611156114ea5760405162461bcd60e51b815260206004820152602560248201527f556e69742050726f746f636f6c3a204e4f545f535550504f525445445f444543604482015264494d414c5360d81b60648201526084016101a6565b8261157c5760405163770c1acf60e11b81526001600160a01b038681166004830152336024830152604482018690527f0000000000000000000000000000000000000000000000000000000000000000169063ee18359e90606401600060405180830381600087803b15801561155f57600080fd5b505af1158015611573573d6000803e3d6000fd5b50505050611821565b604051634ac1c33d60e01b81526001600160a01b0386811660048301523360248301526000917f000000000000000000000000000000000000000000000000000000000000000090911690634ac1c33d9060440160206040518083038186803b1580156115e857600080fd5b505afa1580156115fc573d6000803e3d6000fd5b505050506040513d601f19601f8201168201806040525081019061162091906125b9565b15159050806116c4576040517fe0ede1cd0000000000000000000000000000000000000000000000000000000081526001600160a01b0387811660048301523360248301527f0000000000000000000000000000000000000000000000000000000000000000169063e0ede1cd90604401600060405180830381600087803b1580156116ab57600080fd5b505af11580156116bf573d6000803e3d6000fd5b505050505b84156117535760405163770c1acf60e11b81526001600160a01b038781166004830152336024830152604482018790527f0000000000000000000000000000000000000000000000000000000000000000169063ee18359e90606401600060405180830381600087803b15801561173a57600080fd5b505af115801561174e573d6000803e3d6000fd5b505050505b6040517f5224372c0000000000000000000000000000000000000000000000000000000081526001600160a01b038781166004830152336024830152604482018690527f00000000000000000000000000000000000000000000000000000000000000001690635224372c90606401602060405180830381600087803b1580156117dc57600080fd5b505af11580156117f0573d6000803e3d6000fd5b505050506040513d601f19601f8201168201806040525081019061181491906125b9565b5061181f86336122df565b505b604080518581526020810185905233916001600160a01b038816917f6423b6056e64b3b29cb2d342362b47c26fa8d6877da27ea152354060df19b9bc910160405180910390a3604051632ed56dff60e21b81526001600160a01b03838116600483015282811660248301527f0000000000000000000000000000000000000000000000000000000000000000169063bb55b7fc90604401600060405180830381600087803b1580156118d257600080fd5b505af11580156118e6573d6000803e3d6000fd5b5050600160005550505050505050565b60006119237f00000000000000000000000000000000000000000000000000000000000000008484610ca3565b6040517f23b872dd000000000000000000000000000000000000000000000000000000008152336004820152306024820152604481018590529092507f00000000000000000000000000000000000000000000000000000000000000006001600160a01b0316906323b872dd90606401602060405180830381600087803b1580156119ad57600080fd5b505af11580156119c1573d6000803e3d6000fd5b505050506040513d601f19601f820116820180604052508101906119e59190612581565b611a575760405162461bcd60e51b815260206004820152602860248201527f556e69742050726f746f636f6c3a20574554485f5452414e534645525f46524f60448201527f4d5f4641494c454400000000000000000000000000000000000000000000000060648201526084016101a6565b6040517f2e1a7d4d000000000000000000000000000000000000000000000000000000008152600481018490527f00000000000000000000000000000000000000000000000000000000000000006001600160a01b031690632e1a7d4d90602401600060405180830381600087803b158015611ad257600080fd5b505af1158015611ae6573d6000803e3d6000fd5b50506040516000925033915085908381818185875af1925050503d8060008114611b2c576040519150601f19603f3d011682016040523d82523d6000602084013e611b31565b606091505b5050905080611b8d5760405162461bcd60e51b815260206004820152602260248201527f556e69742050726f746f636f6c3a204554485f5452414e534645525f4641494c604482015261115160f21b60648201526084016101a6565b509092915050565b600082611ba4575060006107ef565b611bae8284612739565b905081611bbb848361262b565b146107ef57634e487b7160e01b600052600160045260246000fd5b600081611c255760405162461bcd60e51b815260206004820152601a60248201527f536166654d6174683a206469766973696f6e206279207a65726f00000000000060448201526064016101a6565b610c62828461262b565b60405163d6446d4360e01b81526001600160a01b038481166004830152838116602483015260009182917f0000000000000000000000000000000000000000000000000000000000000000169063d6446d439060440160206040518083038186803b158015611c9d57600080fd5b505afa158015611cb1573d6000803e3d6000fd5b505050506040513d601f19601f82011682018060405250810190611cd591906125b9565b905080611ce6576000915050610c62565b604051631dffddf160e11b81526001600160a01b0386811660048301527f00000000000000000000000000000000000000000000000000000000000000001690633bffbbe29060240160206040518083038186803b158015611d4757600080fd5b505afa158015611d5b573d6000803e3d6000fd5b505050506040513d601f19601f82011682018060405250810190611d7f91906125b9565b611d96846105d4600160701b6105ce866064611b95565b101595945050505050565b6040517f88ad7a610000000000000000000000000000000000000000000000000000000081526001600160a01b038481166004830152838116602483015260009182916301e13380917f0000000000000000000000000000000000000000000000000000000000000000909116906388ad7a619060440160206040518083038186803b158015611e3057600080fd5b505afa158015611e44573d6000803e3d6000fd5b505050506040513d601f19601f82011682018060405250810190611e6891906125b9565b611e729042612758565b6040517fd4b93dbe0000000000000000000000000000000000000000000000000000000081526001600160a01b03888116600483015287811660248301527f0000000000000000000000000000000000000000000000000000000000000000169063d4b93dbe9060440160206040518083038186803b158015611ef457600080fd5b505afa158015611f08573d6000803e3d6000fd5b505050506040513d601f19601f82011682018060405250810190611f2c91906125b9565b611f369190612739565b611f40919061262b565b9050611f4f81620186a0612613565b611f5c620186a085612739565b610c5e919061262b565b6040517f7ca87cb60000000000000000000000000000000000000000000000000000000081526001600160a01b0384811660048301528381166024830152604482018390526000917f000000000000000000000000000000000000000000000000000000000000000090911690637ca87cb69060640160206040518083038186803b158015611ff457600080fd5b505afa158015612008573d6000803e3d6000fd5b505050506040513d601f19601f8201168201806040525081019061202c91906125b9565b90507f00000000000000000000000000000000000000000000000000000000000000006001600160a01b0316633d1aa9637f00000000000000000000000000000000000000000000000000000000000000006001600160a01b03166374e6076c6040518163ffffffff1660e01b815260040160206040518083038186803b1580156120b657600080fd5b505afa1580156120ca573d6000803e3d6000fd5b505050506040513d601f19601f820116820180604052508101906120ee91906124f9565b6040517fffffffff0000000000000000000000000000000000000000000000000000000060e084901b1681526001600160a01b039182166004820152908616602482015260448101849052606401600060405180830381600087803b15801561215657600080fd5b505af115801561216a573d6000803e3d6000fd5b50506040517f1da649cf0000000000000000000000000000000000000000000000000000000081526001600160a01b038781166004830152868116602483015260448201869052600093507f0000000000000000000000000000000000000000000000000000000000000000169150631da649cf90606401602060405180830381600087803b1580156121fc57600080fd5b505af1158015612210573d6000803e3d6000fd5b505050506040513d601f19601f8201168201806040525081019061223491906125b9565b9050806122d8576040517f62b40f9f0000000000000000000000000000000000000000000000000000000081526001600160a01b03868116600483015285811660248301527f000000000000000000000000000000000000000000000000000000000000000016906362b40f9f90604401600060405180830381600087803b1580156122bf57600080fd5b505af11580156122d3573d6000803e3d6000fd5b505050505b5050505050565b60006122eb8383610817565b6040517fb85c44960000000000000000000000000000000000000000000000000000000081526001600160a01b038581166004830152919250600091606491600160701b917f0000000000000000000000000000000000000000000000000000000000000000169063b85c44969060240160206040518083038186803b15801561237457600080fd5b505afa158015612388573d6000803e3d6000fd5b505050506040513d601f19601f820116820180604052508101906123ac91906125b9565b6123b69085612739565b6123c0919061262b565b6123ca919061262b565b60405163d6446d4360e01b81526001600160a01b038681166004830152858116602483015291925082917f0000000000000000000000000000000000000000000000000000000000000000169063d6446d439060440160206040518083038186803b15801561243857600080fd5b505afa15801561244c573d6000803e3d6000fd5b505050506040513d601f19601f8201168201806040525081019061247091906125b9565b11156124c95760405162461bcd60e51b815260206004820152602260248201527f556e69742050726f746f636f6c3a20554e444552434f4c4c41544552414c495a604482015261115160f21b60648201526084016101a6565b50505050565b6000828211156124ef57634e487b7160e01b600052600160045260246000fd5b610c628284612758565b60006020828403121561250a578081fd5b8151610c62816127a8565b60008060408385031215612527578081fd5b8235612532816127a8565b91506020830135612542816127a8565b809150509250929050565b600080600060608486031215612561578081fd5b833561256c816127a8565b95602085013595506040909401359392505050565b600060208284031215612592578081fd5b81518015158114610c62578182fd5b6000602082840312156125b2578081fd5b5035919050565b6000602082840312156125ca578081fd5b5051919050565b600080604083850312156125e3578182fd5b50508035926020909101359150565b600060208284031215612603578081fd5b815160ff81168114610c62578182fd5b6000821982111561262657612626612792565b500190565b60008261264657634e487b7160e01b81526012600452602481fd5b500490565b600181815b8085111561268657816000190482111561266c5761266c612792565b8085161561267957918102915b93841c9390800290612650565b509250929050565b6000610c6260ff8416836000826126a7575060016107ef565b816126b4575060006107ef565b81600181146126ca57600281146126d4576126f0565b60019150506107ef565b60ff8411156126e5576126e5612792565b50506001821b6107ef565b5060208310610133831016604e8410600b8410161715612713575081810a6107ef565b61271d838361264b565b806000190482111561273157612731612792565b029392505050565b600081600019048311821515161561275357612753612792565b500290565b60008282101561276a5761276a612792565b500390565b600060ff821660ff84168082101561278957612789612792565b90039392505050565b634e487b7160e01b600052601160045260246000fd5b6001600160a01b0381168114610b6457600080fdfea2646970667358221220c9b801d977772d9003e0137b4ca265cfca420b19c5ee773057b33fc4119a91c664736f6c63430008040033",
  "devdoc": {
    "kind": "dev",
    "methods": {},
    "version": 1
  },
  "userdoc": {
    "kind": "user",
    "methods": {
      "Q112()": {
        "notice": "float standard https://en.wikipedia.org/wiki/Q_(number_format)"
      },
      "exit_targetRepayment(address,uint256,uint256)": {
        "notice": "UX convenience function"
      },
      "join(address,uint256,uint256)": {
        "notice": "Yes,"
      }
    },
    "notice": "not sure why",
    "version": 1
  },
  "storageLayout": {
    "storage": [
      {
        "astId": 5560,
        "contract": "contracts/SuCdpManager.sol:SuCdpManager",
        "label": "_status",
        "offset": 0,
        "slot": "0",
        "type": "t_uint256"
      },
      {
        "astId": 804,
        "contract": "contracts/SuCdpManager.sol:SuCdpManager",
        "label": "suOracle",
        "offset": 0,
        "slot": "1",
        "type": "t_address"
      }
    ],
    "types": {
      "t_address": {
        "encoding": "inplace",
        "label": "address",
        "numberOfBytes": "20"
      },
      "t_uint256": {
        "encoding": "inplace",
        "label": "uint256",
        "numberOfBytes": "32"
      }
    }
  }
}