{
  "address": "0x4293Fc260c7e67fec3384Ed8c6d589Af7B34aEa1",
  "abi": [
    {
      "inputs": [
        {
          "internalType": "address",
          "name": "_authControl",
          "type": "address"
        }
      ],
      "stateMutability": "nonpayable",
      "type": "constructor"
    },
    {
      "inputs": [],
      "name": "ACCESS_CONTROL_SINGLETON",
      "outputs": [
        {
          "internalType": "contract ISuAccessControl",
          "name": "",
          "type": "address"
        }
      ],
      "stateMutability": "view",
      "type": "function"
    },
    {
      "inputs": [],
      "name": "MINTER_ROLE",
      "outputs": [
        {
          "internalType": "bytes32",
          "name": "",
          "type": "bytes32"
        }
      ],
      "stateMutability": "view",
      "type": "function"
    },
    {
      "inputs": [],
      "name": "VAULT_ACCESS_ROLE",
      "outputs": [
        {
          "internalType": "bytes32",
          "name": "",
          "type": "bytes32"
        }
      ],
      "stateMutability": "view",
      "type": "function"
    },
    {
      "inputs": [
        {
          "internalType": "address",
          "name": "",
          "type": "address"
        }
      ],
      "name": "assetToDecimals",
      "outputs": [
        {
          "internalType": "uint8",
          "name": "",
          "type": "uint8"
        }
      ],
      "stateMutability": "view",
      "type": "function"
    },
    {
      "inputs": [
        {
          "internalType": "address",
          "name": "",
          "type": "address"
        }
      ],
      "name": "assetToFeed",
      "outputs": [
        {
          "internalType": "address",
          "name": "",
          "type": "address"
        }
      ],
      "stateMutability": "view",
      "type": "function"
    },
    {
      "inputs": [
        {
          "internalType": "address",
          "name": "asset",
          "type": "address"
        }
      ],
      "name": "getUsdPrice1e18",
      "outputs": [
        {
          "internalType": "uint256",
          "name": "",
          "type": "uint256"
        }
      ],
      "stateMutability": "view",
      "type": "function"
    },
    {
      "inputs": [
        {
          "internalType": "address",
          "name": "_collateral",
          "type": "address"
        },
        {
          "internalType": "address",
          "name": "_feed",
          "type": "address"
        },
        {
          "internalType": "uint8",
          "name": "_decimals",
          "type": "uint8"
        }
      ],
      "name": "setAssetFeed",
      "outputs": [],
      "stateMutability": "nonpayable",
      "type": "function"
    }
  ],
  "transactionHash": "0xedcc6c4e6c93b71def7fe84a4733481cfe5663383e0eee7d78ea4632af0954cb",
  "args": [
    "0x1d7E67F06d9c55C2e9F26140F679358Ed55F3535"
  ],
  "numDeployments": 1,
  "solcInputHash": "3a77249565816b4882d70e2bbafcaf5c",
  "bytecode": "0x60a060405234801561001057600080fd5b5060405161084938038061084983398101604081905261002f91610044565b60601b6001600160601b031916608052610072565b600060208284031215610055578081fd5b81516001600160a01b038116811461006b578182fd5b9392505050565b60805160601c6107b361009660003960008181608701526102b501526107b36000f3fe608060405234801561001057600080fd5b506004361061007d5760003560e01c8063762c21291161005b578063762c21291461010e578063cadcd17814610123578063d539139314610158578063e6741de21461017f57600080fd5b806303ee9f221461008257806314c376dc146100c6578063356efd98146100fb575b600080fd5b6100a97f000000000000000000000000000000000000000000000000000000000000000081565b6040516001600160a01b0390911681526020015b60405180910390f35b6100ed7fe965846df3dd5b1dfa65f58e31477079e90140e0908b6dd31b5aead5a57cf36581565b6040519081526020016100bd565b6100ed6101093660046104ad565b6101a8565b61012161011c3660046104c7565b610280565b005b6101466101313660046104ad565b60016020526000908152604090205460ff1681565b60405160ff90911681526020016100bd565b6100ed7f9f2df0fed2c77648de5860a4cc508cd0818c85b8b8a1ab4ceeef8d981c8956a681565b6100a961018d3660046104ad565b6000602081905290815260409020546001600160a01b031681565b6001600160a01b038082166000908152602081815260408083205460019092528083205481517ffeaf968c00000000000000000000000000000000000000000000000000000000815291519394929092169260ff909216918491849163feaf968c9160048082019260a092909190829003018186803b15801561022a57600080fd5b505afa15801561023e573d6000803e3d6000fd5b505050506040513d601f19601f820116820180604052508101906102629190610532565b505050915050600061027682846012610404565b9695505050505050565b6040517f91d14854000000000000000000000000000000000000000000000000000000008152600060048201523360248201527f00000000000000000000000000000000000000000000000000000000000000006001600160a01b0316906391d148549060440160206040518083038186803b1580156102ff57600080fd5b505afa158015610313573d6000803e3d6000fd5b505050506040513d601f19601f820116820180604052508101906103379190610512565b6103a1576040517f08c379a000000000000000000000000000000000000000000000000000000000815260206004820152601d60248201527f5375417574683a206f6e6c794f776e657220415554485f4641494c4544000000604482015260640160405180910390fd5b6001600160a01b0392831660009081526020818152604080832080547fffffffffffffffffffffffff000000000000000000000000000000000000000016959096169490941790945560019093529120805460ff191660ff909216919091179055565b60008160ff168360ff16101561043d5761041e8383610744565b61042c9060ff16600a6105fe565b61043690856106a8565b9050610470565b8160ff168360ff16111561046d576104558284610744565b6104639060ff16600a6105fe565b6104369085610581565b50825b9392505050565b80356001600160a01b038116811461048e57600080fd5b919050565b805169ffffffffffffffffffff8116811461048e57600080fd5b6000602082840312156104be578081fd5b61047082610477565b6000806000606084860312156104db578182fd5b6104e484610477565b92506104f260208501610477565b9150604084013560ff81168114610507578182fd5b809150509250925092565b600060208284031215610523578081fd5b81518015158114610470578182fd5b600080600080600060a08688031215610549578081fd5b61055286610493565b945060208601519350604086015192506060860151915061057560808701610493565b90509295509295909350565b60008261059c57634e487b7160e01b81526012600452602481fd5b600160ff1b8214600019841416156105b6576105b6610767565b500590565b600181815b808511156105f65781600019048211156105dc576105dc610767565b808516156105e957918102915b93841c93908002906105c0565b509250929050565b60006104708383600082610614575060016106a2565b81610621575060006106a2565b816001811461063757600281146106415761065d565b60019150506106a2565b60ff84111561065257610652610767565b50506001821b6106a2565b5060208310610133831016604e8410600b8410161715610680575081810a6106a2565b61068a83836105bb565b806000190482111561069e5761069e610767565b0290505b92915050565b60007f7fffffffffffffffffffffffffffffffffffffffffffffffffffffffffffffff818413828413858304851182821616156106e7576106e7610767565b600160ff1b8487128682058812818416161561070557610705610767565b85871292508782058712848416161561072057610720610767565b8785058712818416161561073657610736610767565b505050929093029392505050565b600060ff821660ff84168082101561075e5761075e610767565b90039392505050565b634e487b7160e01b600052601160045260246000fdfea2646970667358221220ecf2ec186bac394532e9ac8f4356a4ffb8f8e4ac1ab5766bc1e051dd989f986964736f6c63430008040033",
  "devdoc": {
    "kind": "dev",
    "methods": {
      "getUsdPrice1e18(address)": {
        "params": {
          "asset": "- address of erc20 token contract"
        },
        "returns": {
          "_0": "usdPrice1e18 such that asset.balanceOf() * getUsdPrice1e18(asset) / 1e18 == $$ * 1e18*"
        }
      }
    },
    "version": 1
  },
  "userdoc": {
    "kind": "user",
    "methods": {
      "getUsdPrice1e18(address)": {
        "notice": "WARNING! Read this description very carefully!      function getUsdPrice1e18(address asset) returns (uint256) that:          basicAmountOfAsset * getUsdPrice1e18(asset) / 1e18 === $$ * 1e18      in other words, it doesn't matter what's the erc20.decimals is,      you just multiply token balance in basic units on value from oracle and get dollar amount multiplied on 1e18. different assets have different deviation threshold (errors)      for wBTC it's <= 0.5%, read more https://data.chain.link/ethereum/mainnet/crypto-usd/btc-usd      for other asset is can be larger based on particular oracle implementation. examples:      assume market price of wBTC = $31,503.77, oracle error = $158       case #1: small amount of wBTC           we have 0.0,000,001 wBTC that is worth v = $0.00315 ± $0.00001 = 0.00315*1e18 = 315*1e13 ± 1*1e13           actual balance on the asset b = wBTC.balanceOf() =  0.0000001*1e18 = 1e11           oracle should return or = oracle.getUsdPrice1e18(wBTC) <=>           <=> b*or = v => v/b = 315*1e13 / 1e11 = 315*1e2 ± 1e2           error = or.error * b = 1e2 * 1e11 = 1e13 => 1e13/1e18 usd = 1e-5 = 0.00001 usd       case #2: large amount of wBTC           v = 2,000,000 wBTC = $31,503.77 * 2m ± 158*2m = $63,007,540,000 ± $316,000,000 = 63,007*1e24 ± 316*1e24           for calc convenience we increase error on 0.05 and have v = 63,000*24 ± 300*1e24 = (630 ± 3)*1e26           b = 2*1e6 * 1e18 = 2*1e24           or = v/b = (630 ± 3)*1e26 / 2*1e24 = 315*1e2 ± 1.5*1e2           error = or.error * b = 1.5*100 * 2*1e24 = 3*1e26 = 3*1e8*1e18 = $300,000,000 ~ $316,000,000      assume the market price of USDT = $0.97 ± $0.00485,       case #3: little amount of USDT           v = USDT amount 0.005 = 0.005*(0.97 ± 0.00485) = 0.00485*1e18 ± 0.00002425*1e18 = 485*1e13 ± 3*1e13           we rounded error up on (3000-2425)/2425 ~= +24% for calculation convenience.           b = USDT.balanceOf() = 0.005*1e6 = 5*1e3           b*or = v => or = v/b = (485*1e13 ± 3*1e13) / 5*1e3 = 970*1e9 ± 6*1e9           error = 6*1e9 * 5*1e3 / 1e18 = 30*1e12/1e18 = 3*1e-5 = $0,00005       case #4: lot of USDT           v = we have 100,000,000,000 USDT = $97B = 97*1e9*1e18 ± 0.5*1e9*1e18           b = USDT.balanceOf() = 1e11*1e6 = 1e17           or = v/b = (97*1e9*1e18 ± 0.5*1e9*1e18) / 1e17 = 970*1e9 ± 5*1e9           error = 5*1e9 * 1e17 = 5*1e26 = 0.5 * 1e8*1e18"
      }
    },
    "version": 1
  },
  "storageLayout": {
    "storage": [
      {
        "astId": 9037,
        "contract": "contracts/oracles/SuChainlinkOracle.sol:SuChainlinkOracle",
        "label": "assetToFeed",
        "offset": 0,
        "slot": "0",
        "type": "t_mapping(t_address,t_address)"
      },
      {
        "astId": 9041,
        "contract": "contracts/oracles/SuChainlinkOracle.sol:SuChainlinkOracle",
        "label": "assetToDecimals",
        "offset": 0,
        "slot": "1",
        "type": "t_mapping(t_address,t_uint8)"
      }
    ],
    "types": {
      "t_address": {
        "encoding": "inplace",
        "label": "address",
        "numberOfBytes": "20"
      },
      "t_mapping(t_address,t_address)": {
        "encoding": "mapping",
        "key": "t_address",
        "label": "mapping(address => address)",
        "numberOfBytes": "32",
        "value": "t_address"
      },
      "t_mapping(t_address,t_uint8)": {
        "encoding": "mapping",
        "key": "t_address",
        "label": "mapping(address => uint8)",
        "numberOfBytes": "32",
        "value": "t_uint8"
      },
      "t_uint8": {
        "encoding": "inplace",
        "label": "uint8",
        "numberOfBytes": "1"
      }
    }
  }
}