{
  "address": "0x483c5d1fc88ddcE77865fC767f4654EBf322cf91",
  "abi": [
    {
      "anonymous": false,
      "inputs": [
        {
          "indexed": true,
          "internalType": "address",
          "name": "previousOwner",
          "type": "address"
        },
        {
          "indexed": true,
          "internalType": "address",
          "name": "newOwner",
          "type": "address"
        }
      ],
      "name": "OwnershipTransferred",
      "type": "event"
    },
    {
      "inputs": [
        {
          "internalType": "address",
          "name": "",
          "type": "address"
        }
      ],
      "name": "assetToDecimals",
      "outputs": [
        {
          "internalType": "uint8",
          "name": "",
          "type": "uint8"
        }
      ],
      "stateMutability": "view",
      "type": "function"
    },
    {
      "inputs": [
        {
          "internalType": "address",
          "name": "",
          "type": "address"
        }
      ],
      "name": "assetToFeed",
      "outputs": [
        {
          "internalType": "address",
          "name": "",
          "type": "address"
        }
      ],
      "stateMutability": "view",
      "type": "function"
    },
    {
      "inputs": [
        {
          "internalType": "address",
          "name": "asset",
          "type": "address"
        }
      ],
      "name": "getUsdPrice1e18",
      "outputs": [
        {
          "internalType": "uint256",
          "name": "",
          "type": "uint256"
        }
      ],
      "stateMutability": "view",
      "type": "function"
    },
    {
      "inputs": [],
      "name": "owner",
      "outputs": [
        {
          "internalType": "address",
          "name": "",
          "type": "address"
        }
      ],
      "stateMutability": "view",
      "type": "function"
    },
    {
      "inputs": [],
      "name": "renounceOwnership",
      "outputs": [],
      "stateMutability": "nonpayable",
      "type": "function"
    },
    {
      "inputs": [
        {
          "internalType": "address",
          "name": "_collateral",
          "type": "address"
        },
        {
          "internalType": "address",
          "name": "_feed",
          "type": "address"
        },
        {
          "internalType": "uint8",
          "name": "_decimals",
          "type": "uint8"
        }
      ],
      "name": "setAssetFeed",
      "outputs": [],
      "stateMutability": "nonpayable",
      "type": "function"
    },
    {
      "inputs": [
        {
          "internalType": "address",
          "name": "newOwner",
          "type": "address"
        }
      ],
      "name": "transferOwnership",
      "outputs": [],
      "stateMutability": "nonpayable",
      "type": "function"
    }
  ],
  "transactionHash": "0xa91135f58418074816ef8b9a1457795b55e38fa9517333c560cb58be00cd61d2",
  "args": [],
  "numDeployments": 1,
  "solcInputHash": "273b8a8676c1f082f3d5df451cde8e6d",
  "bytecode": "0x608060405234801561001057600080fd5b50600080546001600160a01b031916339081178255604051909182917f8be0079c531659141344cd1fd0a4f28419497f9722a3daafe3b4186f6b6457e0908290a35061086c806100616000396000f3fe608060405234801561001057600080fd5b506004361061007d5760003560e01c80638da5cb5b1161005b5780638da5cb5b146100c5578063cadcd178146100ea578063e6741de21461011f578063f2fde38b1461014857600080fd5b8063356efd9814610082578063715018a6146100a8578063762c2129146100b2575b600080fd5b610095610090366004610586565b61015b565b6040519081526020015b60405180910390f35b6100b0610235565b005b6100b06100c03660046105a0565b6102eb565b6000546001600160a01b03165b6040516001600160a01b03909116815260200161009f565b61010d6100f8366004610586565b60026020526000908152604090205460ff1681565b60405160ff909116815260200161009f565b6100d261012d366004610586565b6001602052600090815260409020546001600160a01b031681565b6100b0610156366004610586565b61039f565b6001600160a01b0380821660009081526001602090815260408083205460029092528083205481517ffeaf968c00000000000000000000000000000000000000000000000000000000815291519394929092169260ff909216918491849163feaf968c9160048082019260a092909190829003018186803b1580156101df57600080fd5b505afa1580156101f3573d6000803e3d6000fd5b505050506040513d601f19601f8201168201806040525081019061021791906105eb565b505050915050600061022b828460126104dd565b9695505050505050565b6000546001600160a01b031633146102945760405162461bcd60e51b815260206004820181905260248201527f4f776e61626c653a2063616c6c6572206973206e6f7420746865206f776e657260448201526064015b60405180910390fd5b600080546040516001600160a01b03909116907f8be0079c531659141344cd1fd0a4f28419497f9722a3daafe3b4186f6b6457e0908390a36000805473ffffffffffffffffffffffffffffffffffffffff19169055565b6000546001600160a01b031633146103455760405162461bcd60e51b815260206004820181905260248201527f4f776e61626c653a2063616c6c6572206973206e6f7420746865206f776e6572604482015260640161028b565b6001600160a01b039283166000908152600160209081526040808320805473ffffffffffffffffffffffffffffffffffffffff1916959096169490941790945560029093529120805460ff191660ff909216919091179055565b6000546001600160a01b031633146103f95760405162461bcd60e51b815260206004820181905260248201527f4f776e61626c653a2063616c6c6572206973206e6f7420746865206f776e6572604482015260640161028b565b6001600160a01b0381166104755760405162461bcd60e51b815260206004820152602660248201527f4f776e61626c653a206e6577206f776e657220697320746865207a65726f206160448201527f6464726573730000000000000000000000000000000000000000000000000000606482015260840161028b565b600080546040516001600160a01b03808516939216917f8be0079c531659141344cd1fd0a4f28419497f9722a3daafe3b4186f6b6457e091a36000805473ffffffffffffffffffffffffffffffffffffffff19166001600160a01b0392909216919091179055565b60008160ff168360ff161015610516576104f783836107fd565b6105059060ff16600a6106b7565b61050f9085610761565b9050610549565b8160ff168360ff1611156105465761052e82846107fd565b61053c9060ff16600a6106b7565b61050f908561063a565b50825b9392505050565b80356001600160a01b038116811461056757600080fd5b919050565b805169ffffffffffffffffffff8116811461056757600080fd5b600060208284031215610597578081fd5b61054982610550565b6000806000606084860312156105b4578182fd5b6105bd84610550565b92506105cb60208501610550565b9150604084013560ff811681146105e0578182fd5b809150509250925092565b600080600080600060a08688031215610602578081fd5b61060b8661056c565b945060208601519350604086015192506060860151915061062e6080870161056c565b90509295509295909350565b60008261065557634e487b7160e01b81526012600452602481fd5b600160ff1b82146000198414161561066f5761066f610820565b500590565b600181815b808511156106af57816000190482111561069557610695610820565b808516156106a257918102915b93841c9390800290610679565b509250929050565b600061054983836000826106cd5750600161075b565b816106da5750600061075b565b81600181146106f057600281146106fa57610716565b600191505061075b565b60ff84111561070b5761070b610820565b50506001821b61075b565b5060208310610133831016604e8410600b8410161715610739575081810a61075b565b6107438383610674565b806000190482111561075757610757610820565b0290505b92915050565b60007f7fffffffffffffffffffffffffffffffffffffffffffffffffffffffffffffff818413828413858304851182821616156107a0576107a0610820565b600160ff1b848712868205881281841616156107be576107be610820565b8587129250878205871284841616156107d9576107d9610820565b878505871281841616156107ef576107ef610820565b505050929093029392505050565b600060ff821660ff84168082101561081757610817610820565b90039392505050565b634e487b7160e01b600052601160045260246000fdfea2646970667358221220ea1890218a9c26fee94dfb148e34f47d5aea5d21e5e1f1d9eabaa329f075930e64736f6c63430008040033",
  "devdoc": {
    "kind": "dev",
    "methods": {
      "owner()": {
        "details": "Returns the address of the current owner."
      },
      "renounceOwnership()": {
        "details": "Leaves the contract without owner. It will not be possible to call `onlyOwner` functions anymore. Can only be called by the current owner. NOTE: Renouncing ownership will leave the contract without an owner, thereby removing any functionality that is only available to the owner."
      },
      "transferOwnership(address)": {
        "details": "Transfers ownership of the contract to a new account (`newOwner`). Can only be called by the current owner."
      }
    },
    "version": 1
  },
  "userdoc": {
    "kind": "user",
    "methods": {},
    "version": 1
  },
  "storageLayout": {
    "storage": [
      {
        "astId": 53,
        "contract": "contracts/SuChainlinkOracle.sol:SuChainlinkOracle",
        "label": "_owner",
        "offset": 0,
        "slot": "0",
        "type": "t_address"
      },
      {
        "astId": 2674,
        "contract": "contracts/SuChainlinkOracle.sol:SuChainlinkOracle",
        "label": "assetToFeed",
        "offset": 0,
        "slot": "1",
        "type": "t_mapping(t_address,t_address)"
      },
      {
        "astId": 2678,
        "contract": "contracts/SuChainlinkOracle.sol:SuChainlinkOracle",
        "label": "assetToDecimals",
        "offset": 0,
        "slot": "2",
        "type": "t_mapping(t_address,t_uint8)"
      }
    ],
    "types": {
      "t_address": {
        "encoding": "inplace",
        "label": "address",
        "numberOfBytes": "20"
      },
      "t_mapping(t_address,t_address)": {
        "encoding": "mapping",
        "key": "t_address",
        "label": "mapping(address => address)",
        "numberOfBytes": "32",
        "value": "t_address"
      },
      "t_mapping(t_address,t_uint8)": {
        "encoding": "mapping",
        "key": "t_address",
        "label": "mapping(address => uint8)",
        "numberOfBytes": "32",
        "value": "t_uint8"
      },
      "t_uint8": {
        "encoding": "inplace",
        "label": "uint8",
        "numberOfBytes": "1"
      }
    }
  }
}