{
  "address": "0xE7240F96dCbfE0f48C1171398DAaD06fc7305E86",
  "abi": [
    {
      "inputs": [
        {
          "internalType": "address",
          "name": "_authControl",
          "type": "address"
        },
        {
          "internalType": "address[]",
          "name": "assets",
          "type": "address[]"
        }
      ],
      "stateMutability": "nonpayable",
      "type": "constructor"
    },
    {
      "anonymous": false,
      "inputs": [
        {
          "indexed": true,
          "internalType": "address",
          "name": "asset",
          "type": "address"
        }
      ],
      "name": "CollateralAdded",
      "type": "event"
    },
    {
      "anonymous": false,
      "inputs": [
        {
          "indexed": true,
          "internalType": "address",
          "name": "asset",
          "type": "address"
        }
      ],
      "name": "CollateralRemoved",
      "type": "event"
    },
    {
      "inputs": [],
      "name": "ACCESS_CONTROL_SINGLETON",
      "outputs": [
        {
          "internalType": "contract ISuAccessControl",
          "name": "",
          "type": "address"
        }
      ],
      "stateMutability": "view",
      "type": "function"
    },
    {
      "inputs": [],
      "name": "LIQUIDATION_ACCESS_ROLE",
      "outputs": [
        {
          "internalType": "bytes32",
          "name": "",
          "type": "bytes32"
        }
      ],
      "stateMutability": "view",
      "type": "function"
    },
    {
      "inputs": [],
      "name": "MINTER_ROLE",
      "outputs": [
        {
          "internalType": "bytes32",
          "name": "",
          "type": "bytes32"
        }
      ],
      "stateMutability": "view",
      "type": "function"
    },
    {
      "inputs": [],
      "name": "VAULT_ACCESS_ROLE",
      "outputs": [
        {
          "internalType": "bytes32",
          "name": "",
          "type": "bytes32"
        }
      ],
      "stateMutability": "view",
      "type": "function"
    },
    {
      "inputs": [
        {
          "internalType": "address",
          "name": "asset",
          "type": "address"
        }
      ],
      "name": "addCollateral",
      "outputs": [],
      "stateMutability": "nonpayable",
      "type": "function"
    },
    {
      "inputs": [
        {
          "internalType": "address",
          "name": "",
          "type": "address"
        }
      ],
      "name": "collateralId",
      "outputs": [
        {
          "internalType": "uint256",
          "name": "",
          "type": "uint256"
        }
      ],
      "stateMutability": "view",
      "type": "function"
    },
    {
      "inputs": [
        {
          "internalType": "uint256",
          "name": "",
          "type": "uint256"
        }
      ],
      "name": "collateralList",
      "outputs": [
        {
          "internalType": "address",
          "name": "",
          "type": "address"
        }
      ],
      "stateMutability": "view",
      "type": "function"
    },
    {
      "inputs": [],
      "name": "collaterals",
      "outputs": [
        {
          "internalType": "address[]",
          "name": "",
          "type": "address[]"
        }
      ],
      "stateMutability": "view",
      "type": "function"
    },
    {
      "inputs": [],
      "name": "collateralsCount",
      "outputs": [
        {
          "internalType": "uint256",
          "name": "",
          "type": "uint256"
        }
      ],
      "stateMutability": "view",
      "type": "function"
    },
    {
      "inputs": [
        {
          "internalType": "address",
          "name": "asset",
          "type": "address"
        }
      ],
      "name": "isCollateral",
      "outputs": [
        {
          "internalType": "bool",
          "name": "",
          "type": "bool"
        }
      ],
      "stateMutability": "view",
      "type": "function"
    },
    {
      "inputs": [
        {
          "internalType": "address",
          "name": "asset",
          "type": "address"
        }
      ],
      "name": "removeCollateral",
      "outputs": [],
      "stateMutability": "nonpayable",
      "type": "function"
    }
  ],
  "transactionHash": "0x2f6615eaeed260b0ab7f303c9c3dd5d93e760a216d9d9505b0b53c1e973498e7",
  "args": [
    "0x7e0D073062FC3D88bCD7d781679F829b12Ba6f95",
    []
  ],
  "numDeployments": 1,
  "solcInputHash": "1acf5fc7213acb073e526533d9983610",
  "bytecode": "0x60a06040523480156200001157600080fd5b5060405162000d6a38038062000d6a8339810160408190526200003491620002a9565b6001600160601b0319606083901b1660805260005b815181101562000204576200008c8282815181106200007857634e487b7160e01b600052603260045260246000fd5b60200260200101516200020d60201b60201c565b15620000de5760405162461bcd60e51b815260206004820152601c60248201527f556e69742050726f746f636f6c3a20414c52454144595f455849535400000000604482015260640160405180910390fd5b60018282815181106200010157634e487b7160e01b600052603260045260246000fd5b6020908102919091018101518254600181018455600093845291832090910180546001600160a01b0319166001600160a01b03909216919091179055825182919081908590849081106200016557634e487b7160e01b600052603260045260246000fd5b60200260200101516001600160a01b03166001600160a01b0316815260200190815260200160002081905550818181518110620001b257634e487b7160e01b600052603260045260246000fd5b60200260200101516001600160a01b03167f7db05e63d635a68c62fd7fd8f3107ae8ab584a383e102d1bd8a40f4c977e465f60405160405180910390a280620001fb8162000394565b91505062000049565b505050620003d2565b6001546000906200022057506000919050565b6001600160a01b038216600090815260208190526040902054151580620002865750816001600160a01b031660016000815481106200026f57634e487b7160e01b600052603260045260246000fd5b6000918252602090912001546001600160a01b0316145b92915050565b80516001600160a01b0381168114620002a457600080fd5b919050565b60008060408385031215620002bc578182fd5b620002c7836200028c565b602084810151919350906001600160401b0380821115620002e6578384fd5b818601915086601f830112620002fa578384fd5b8151818111156200030f576200030f620003bc565b8060051b604051601f19603f83011681018181108582111715620003375762000337620003bc565b604052828152858101935084860182860187018b101562000356578788fd5b8795505b8386101562000383576200036e816200028c565b8552600195909501949386019386016200035a565b508096505050505050509250929050565b6000600019821415620003b557634e487b7160e01b81526011600452602481fd5b5060010190565b634e487b7160e01b600052604160045260246000fd5b60805160601c61096c620003fe6000396000818160d3015281816103540152610654015261096c6000f3fe608060405234801561001057600080fd5b50600436106100c95760003560e01c80634113e5ca11610081578063d53913931161005b578063d5391393146101cf578063dc97e84e146101f6578063f0d2d5a81461021d57600080fd5b80634113e5ca146101855780634f7304551461019a578063c99d3a06146101ba57600080fd5b806314c376dc116100b257806314c376dc146101355780631bcff06c1461016a5780633024a9121461017257600080fd5b806303ee9f22146100ce5780630ee21e5414610112575b600080fd5b6100f57f000000000000000000000000000000000000000000000000000000000000000081565b6040516001600160a01b0390911681526020015b60405180910390f35b610125610120366004610860565b610230565b6040519015158152602001610109565b61015c7fe965846df3dd5b1dfa65f58e31477079e90140e0908b6dd31b5aead5a57cf36581565b604051908152602001610109565b60015461015c565b6100f56101803660046108ae565b6102ac565b61018d6102d6565b60405161010991906108c6565b61015c6101a8366004610860565b60006020819052908152604090205481565b6101cd6101c8366004610860565b610338565b005b61015c7f9f2df0fed2c77648de5860a4cc508cd0818c85b8b8a1ab4ceeef8d981c8956a681565b61015c7f9a9aef7c1247d5fc769b0185c052913e39673da29a880317dfd20ebf86f26a4981565b6101cd61022b366004610860565b610638565b60015460009061024257506000919050565b6001600160a01b0382166000908152602081905260409020541515806102a65750816001600160a01b0316600160008154811061028f57634e487b7160e01b600052603260045260246000fd5b6000918252602090912001546001600160a01b0316145b92915050565b600181815481106102bc57600080fd5b6000918252602090912001546001600160a01b0316905081565b6060600180548060200260200160405190810160405280929190818152602001828054801561032e57602002820191906000526020600020905b81546001600160a01b03168152600190910190602001808311610310575b5050505050905090565b604051632474521560e21b8152600060048201523360248201527f00000000000000000000000000000000000000000000000000000000000000006001600160a01b0316906391d148549060440160206040518083038186803b15801561039e57600080fd5b505afa1580156103b2573d6000803e3d6000fd5b505050506040513d601f19601f820116820180604052508101906103d6919061088e565b6104275760405162461bcd60e51b815260206004820152601d60248201527f5375417574683a206f6e6c794f776e657220415554485f4641494c454400000060448201526064015b60405180910390fd5b6001600160a01b03811661047d5760405162461bcd60e51b815260206004820152601b60248201527f556e69742050726f746f636f6c3a205a45524f5f414444524553530000000000604482015260640161041e565b61048681610230565b6104d25760405162461bcd60e51b815260206004820152601d60248201527f556e69742050726f746f636f6c3a20444f45535f4e4f545f4558495354000000604482015260640161041e565b6001600160a01b0381166000908152602081905260408120805490829055600180549192916105019190610913565b90508082146105b15760006001828154811061052d57634e487b7160e01b600052603260045260246000fd5b600091825260209091200154600180546001600160a01b03909216925082918590811061056a57634e487b7160e01b600052603260045260246000fd5b6000918252602080832091909101805473ffffffffffffffffffffffffffffffffffffffff19166001600160a01b0394851617905592909116815290819052604090208290555b60018054806105d057634e487b7160e01b600052603160045260246000fd5b6000828152602081208201600019908101805473ffffffffffffffffffffffffffffffffffffffff191690559091019091556040516001600160a01b038516917fd89d2ee68ab04dca0193f48a4aff55e20fa5ec0429a8a8c1c51b8dad6178a59391a2505050565b604051632474521560e21b8152600060048201523360248201527f00000000000000000000000000000000000000000000000000000000000000006001600160a01b0316906391d148549060440160206040518083038186803b15801561069e57600080fd5b505afa1580156106b2573d6000803e3d6000fd5b505050506040513d601f19601f820116820180604052508101906106d6919061088e565b6107225760405162461bcd60e51b815260206004820152601d60248201527f5375417574683a206f6e6c794f776e657220415554485f4641494c4544000000604482015260640161041e565b6001600160a01b0381166107785760405162461bcd60e51b815260206004820152601b60248201527f556e69742050726f746f636f6c3a205a45524f5f414444524553530000000000604482015260640161041e565b61078181610230565b156107ce5760405162461bcd60e51b815260206004820152601c60248201527f556e69742050726f746f636f6c3a20414c52454144595f455849535400000000604482015260640161041e565b600180546001600160a01b03831660008181526020819052604080822084905583850185559381527fb10e2d527612073b26eecdfd717e6a320cf44b4afac2b0732d9fcbe2b7fa0cf6909201805473ffffffffffffffffffffffffffffffffffffffff19168217905591517f7db05e63d635a68c62fd7fd8f3107ae8ab584a383e102d1bd8a40f4c977e465f9190a250565b600060208284031215610871578081fd5b81356001600160a01b0381168114610887578182fd5b9392505050565b60006020828403121561089f578081fd5b81518015158114610887578182fd5b6000602082840312156108bf578081fd5b5035919050565b6020808252825182820181905260009190848201906040850190845b818110156109075783516001600160a01b0316835292840192918401916001016108e2565b50909695505050505050565b60008282101561093157634e487b7160e01b81526011600452602481fd5b50039056fea2646970667358221220692974f1457430ea21490ae5e13da44db9d4d978883eb01dbeea0237e366614d64736f6c63430008040033",
  "devdoc": {
    "kind": "dev",
    "methods": {},
    "version": 1
  },
  "userdoc": {
    "kind": "user",
    "methods": {},
    "version": 1
  },
  "storageLayout": {
    "storage": [
      {
        "astId": 6002,
        "contract": "contracts/lending/SuCollateralRegistry.sol:SuCollateralRegistry",
        "label": "collateralId",
        "offset": 0,
        "slot": "0",
        "type": "t_mapping(t_address,t_uint256)"
      },
      {
        "astId": 6005,
        "contract": "contracts/lending/SuCollateralRegistry.sol:SuCollateralRegistry",
        "label": "collateralList",
        "offset": 0,
        "slot": "1",
        "type": "t_array(t_address)dyn_storage"
      }
    ],
    "types": {
      "t_address": {
        "encoding": "inplace",
        "label": "address",
        "numberOfBytes": "20"
      },
      "t_array(t_address)dyn_storage": {
        "base": "t_address",
        "encoding": "dynamic_array",
        "label": "address[]",
        "numberOfBytes": "32"
      },
      "t_mapping(t_address,t_uint256)": {
        "encoding": "mapping",
        "key": "t_address",
        "label": "mapping(address => uint256)",
        "numberOfBytes": "32",
        "value": "t_uint256"
      },
      "t_uint256": {
        "encoding": "inplace",
        "label": "uint256",
        "numberOfBytes": "32"
      }
    }
  }
}