{
  "address": "0xFEC6234338C98Bc101A62e95f6cAA54fAC3E975A",
  "abi": [
    {
      "inputs": [
        {
          "internalType": "address",
          "name": "authControl_",
          "type": "address"
        },
        {
          "internalType": "address",
          "name": "suManager_",
          "type": "address"
        },
        {
          "internalType": "address",
          "name": "suOracle_",
          "type": "address"
        },
        {
          "internalType": "address",
          "name": "suReward_",
          "type": "address"
        }
      ],
      "stateMutability": "nonpayable",
      "type": "constructor"
    },
    {
      "inputs": [],
      "name": "IncorrectDiscount",
      "type": "error"
    },
    {
      "inputs": [],
      "name": "LessThanMinimum",
      "type": "error"
    },
    {
      "inputs": [],
      "name": "NotEnoughAmount",
      "type": "error"
    },
    {
      "inputs": [],
      "name": "NotEnoughDeferredAmount",
      "type": "error"
    },
    {
      "inputs": [],
      "name": "TooMuchAmount",
      "type": "error"
    },
    {
      "inputs": [],
      "name": "ZeroAddress",
      "type": "error"
    },
    {
      "inputs": [],
      "name": "ACCESS_CONTROL_SINGLETON",
      "outputs": [
        {
          "internalType": "contract ISuAccessControl",
          "name": "",
          "type": "address"
        }
      ],
      "stateMutability": "view",
      "type": "function"
    },
    {
      "inputs": [],
      "name": "LIQUIDATION_ACCESS_ROLE",
      "outputs": [
        {
          "internalType": "bytes32",
          "name": "",
          "type": "bytes32"
        }
      ],
      "stateMutability": "view",
      "type": "function"
    },
    {
      "inputs": [],
      "name": "MINTER_ROLE",
      "outputs": [
        {
          "internalType": "bytes32",
          "name": "",
          "type": "bytes32"
        }
      ],
      "stateMutability": "view",
      "type": "function"
    },
    {
      "inputs": [],
      "name": "VAULT_ACCESS_ROLE",
      "outputs": [
        {
          "internalType": "bytes32",
          "name": "",
          "type": "bytes32"
        }
      ],
      "stateMutability": "view",
      "type": "function"
    },
    {
      "inputs": [
        {
          "internalType": "address",
          "name": "asset",
          "type": "address"
        },
        {
          "internalType": "enum DiscountType",
          "name": "discountType",
          "type": "uint8"
        },
        {
          "internalType": "uint256",
          "name": "liquidationBlock",
          "type": "uint256"
        }
      ],
      "name": "calculateDiscountE18",
      "outputs": [
        {
          "internalType": "uint256",
          "name": "",
          "type": "uint256"
        }
      ],
      "stateMutability": "view",
      "type": "function"
    },
    {
      "inputs": [
        {
          "internalType": "address",
          "name": "asset",
          "type": "address"
        },
        {
          "internalType": "address",
          "name": "owner",
          "type": "address"
        }
      ],
      "name": "calculateLiquidationDiscount",
      "outputs": [
        {
          "internalType": "uint256",
          "name": "",
          "type": "uint256"
        }
      ],
      "stateMutability": "view",
      "type": "function"
    },
    {
      "inputs": [
        {
          "internalType": "address",
          "name": "asset",
          "type": "address"
        },
        {
          "internalType": "enum DiscountType",
          "name": "discountType",
          "type": "uint8"
        }
      ],
      "name": "getDiscountInfo",
      "outputs": [
        {
          "components": [
            {
              "internalType": "uint256",
              "name": "firstBlockE18",
              "type": "uint256"
            },
            {
              "internalType": "uint256",
              "name": "stepPerBlockE18",
              "type": "uint256"
            }
          ],
          "internalType": "struct DiscountInfo",
          "name": "discountInfo",
          "type": "tuple"
        }
      ],
      "stateMutability": "view",
      "type": "function"
    },
    {
      "inputs": [
        {
          "internalType": "address",
          "name": "asset",
          "type": "address"
        },
        {
          "internalType": "enum DiscountType",
          "name": "discountType",
          "type": "uint8"
        },
        {
          "components": [
            {
              "internalType": "uint256",
              "name": "firstBlockE18",
              "type": "uint256"
            },
            {
              "internalType": "uint256",
              "name": "stepPerBlockE18",
              "type": "uint256"
            }
          ],
          "internalType": "struct DiscountInfo",
          "name": "discountInfo",
          "type": "tuple"
        }
      ],
      "name": "setDiscountInfo",
      "outputs": [],
      "stateMutability": "nonpayable",
      "type": "function"
    },
    {
      "inputs": [
        {
          "internalType": "address",
          "name": "asset",
          "type": "address"
        },
        {
          "internalType": "address",
          "name": "owner",
          "type": "address"
        },
        {
          "internalType": "address",
          "name": "stablecoinToken",
          "type": "address"
        },
        {
          "internalType": "uint256",
          "name": "stablecoinAmountEDecimal",
          "type": "uint256"
        },
        {
          "internalType": "uint256",
          "name": "minAssetAmountEDecimal",
          "type": "uint256"
        }
      ],
      "name": "swapStablecoinToAsset",
      "outputs": [],
      "stateMutability": "nonpayable",
      "type": "function"
    },
    {
      "inputs": [
        {
          "internalType": "address",
          "name": "asset",
          "type": "address"
        },
        {
          "internalType": "address",
          "name": "owner",
          "type": "address"
        },
        {
          "internalType": "uint256",
          "name": "stablecoinAmountE18",
          "type": "uint256"
        },
        {
          "internalType": "uint256",
          "name": "minAssetAmountEDecimal",
          "type": "uint256"
        }
      ],
      "name": "swapSuUsdToAsset",
      "outputs": [],
      "stateMutability": "nonpayable",
      "type": "function"
    },
    {
      "inputs": [
        {
          "internalType": "address",
          "name": "stablecoinToken",
          "type": "address"
        },
        {
          "internalType": "uint256",
          "name": "stablecoinAmountEDecimal",
          "type": "uint256"
        }
      ],
      "name": "swapSuUsdToStablecoin",
      "outputs": [],
      "stateMutability": "nonpayable",
      "type": "function"
    }
  ],
  "transactionHash": "0x7432b71b554091ce1698e5eb1c801f87dc21701d17b3cf722a6cd74a5a69d568",
  "args": [
    "0x053bAF8aA1fA955078356BFa4CEd149fd9B539ee",
    "0xdd194b05Ec225e3fb40dc64BF657083C30Fc21Ea",
    "0xCBAB9B985dDa1aF3177e3622CDA4Dee790087e66",
    "0x6cFE2627131aC4149be3411bd55aBa5D23b4C127"
  ],
  "numDeployments": 1,
  "solcInputHash": "a52e2c59662481816175484c19fb766d",
  "bytecode": "0x6101006040523480156200001257600080fd5b5060405162001e5338038062001e538339810160408190526200003591620000dd565b6001600160601b0319606085901b166080526001600160a01b0383166200006f5760405163d92e233d60e01b815260040160405180910390fd5b6001600160a01b038216620000975760405163d92e233d60e01b815260040160405180910390fd5b6001600160601b0319606093841b811660a05291831b821660c05290911b1660e0525062000139565b80516001600160a01b0381168114620000d857600080fd5b919050565b60008060008060808587031215620000f3578384fd5b620000fe85620000c0565b93506200010e60208601620000c0565b92506200011e60408601620000c0565b91506200012e60608601620000c0565b905092959194509250565b60805160601c60a05160601c60c05160601c60e05160601c611c9d620001b66000396000610b580152600081816103c1015281816105390152610f4b015260008181610304015281816104a1015281816106510152818161072f0152818161082e0152610e7501526000818160d301526109fa0152611c9d6000f3fe608060405234801561001057600080fd5b50600436106100c95760003560e01c806395bdf6bb11610081578063d53913931161005b578063d5391393146101d6578063dc97e84e146101fd578063f4e2ebeb1461022457600080fd5b806395bdf6bb1461019d5780639dd3e690146101b0578063c3009f36146101c357600080fd5b80633599f022116100b25780633599f022146101475780634d2cf8b7146101755780637a3027031461018857600080fd5b806303ee9f22146100ce57806314c376dc14610112575b600080fd5b6100f57f000000000000000000000000000000000000000000000000000000000000000081565b6040516001600160a01b0390911681526020015b60405180910390f35b6101397fe965846df3dd5b1dfa65f58e31477079e90140e0908b6dd31b5aead5a57cf36581565b604051908152602001610109565b61015a6101553660046118d9565b610237565b60408051825181526020928301519281019290925201610109565b610139610183366004611812565b6102d8565b61019b61019636600461198a565b610393565b005b61019b6101ab366004611844565b610517565b61019b6101be366004611898565b6107ba565b6101396101d136600461194f565b6108b6565b6101397f9f2df0fed2c77648de5860a4cc508cd0818c85b8b8a1ab4ceeef8d981c8956a681565b6101397f9a9aef7c1247d5fc769b0185c052913e39673da29a880317dfd20ebf86f26a4981565b61019b610232366004611902565b6109c5565b60408051808201909152600080825260208201526001600160a01b03831660009081526020819052604081209083600281111561028457634e487b7160e01b600052602160045260246000fd5b60028111156102a357634e487b7160e01b600052602160045260246000fd5b815260200190815260200160002060405180604001604052908160008201548152602001600182015481525050905092915050565b6040516304c9a55560e41b81526001600160a01b038381166004830152828116602483015260009182917f00000000000000000000000000000000000000000000000000000000000000001690634c9a55509060440160206040518083038186803b15801561034657600080fd5b505afa15801561035a573d6000803e3d6000fd5b505050506040513d601f19601f8201168201806040525081019061037e91906119d3565b905061038b848483610b53565b949350505050565b6040516306addfb360e31b81526001600160a01b038381166004830152600091670de0b6b3a76400009184917f00000000000000000000000000000000000000000000000000000000000000009091169063356efd989060240160206040518083038186803b15801561040557600080fd5b505afa158015610419573d6000803e3d6000fd5b505050506040513d601f19601f8201168201806040525081019061043d91906119d3565b6104479190611b21565b6104519190611b01565b90506000806104608584610baf565b6040517f8cd2e0c7000000000000000000000000000000000000000000000000000000008152336004820152602481018390526044810182905291935091507f00000000000000000000000000000000000000000000000000000000000000006001600160a01b031690638cd2e0c790606401600060405180830381600087803b1580156104ed57600080fd5b505af1158015610501573d6000803e3d6000fd5b50505050610510853386610d8f565b5050505050565b6040516306addfb360e31b81526001600160a01b0384811660048301526000917f00000000000000000000000000000000000000000000000000000000000000009091169063356efd989060240160206040518083038186803b15801561057d57600080fd5b505afa158015610591573d6000803e3d6000fd5b505050506040513d601f19601f820116820180604052508101906105b591906119d3565b90506000670de0b6b3a76400006105cc8584611b21565b6105d69190611b01565b905060008060006105e98a8a8689610e28565b919450925090506000856105fd8385611ae9565b61060f90670de0b6b3a7640000611b21565b6106199190611b01565b90506106278933308461103b565b6040516304c9a55560e41b81526001600160a01b038c811660048301528b811660248301526000917f000000000000000000000000000000000000000000000000000000000000000090911690634c9a55509060440160206040518083038186803b15801561069557600080fd5b505afa1580156106a9573d6000803e3d6000fd5b505050506040513d601f19601f820116820180604052508101906106cd91906119d3565b90506106db8a828686611092565b6040517f6f70e66f0000000000000000000000000000000000000000000000000000000081526001600160a01b038d811660048301528c8116602483015233604483015260648201869052608482018790527f00000000000000000000000000000000000000000000000000000000000000001690636f70e66f9060a401602060405180830381600087803b15801561077357600080fd5b505af1158015610787573d6000803e3d6000fd5b505050506040513d601f19601f820116820180604052508101906107ab91906119b3565b50505050505050505050505050565b60008060006107cb87878787610e28565b6040517f6bf12d5f0000000000000000000000000000000000000000000000000000000081526001600160a01b038b811660048301528a81166024830152336044830152606482018490526084820183905260a4820185905293965091945092507f000000000000000000000000000000000000000000000000000000000000000090911690636bf12d5f9060c401602060405180830381600087803b15801561087457600080fd5b505af1158015610888573d6000803e3d6000fd5b505050506040513d601f19601f820116820180604052508101906108ac91906119b3565b5050505050505050565b6001600160a01b03831660009081526020819052604081208190818560028111156108f157634e487b7160e01b600052602160045260246000fd5b600281111561091057634e487b7160e01b600052602160045260246000fd5b815260200190815260200160002090506000834361092e9190611b40565b905080610940576000925050506109be565b806001141561095257505490506109be565b600085600281111561097457634e487b7160e01b600052602160045260246000fd5b14156109a0576109978166b1a2bc2ec500008460010154856001015460026110ef565b925050506109be565b61099781670de0b6b3a76400008460000154856001015460016110ef565b9392505050565b6040517f91d14854000000000000000000000000000000000000000000000000000000008152600060048201523360248201527f00000000000000000000000000000000000000000000000000000000000000006001600160a01b0316906391d148549060440160206040518083038186803b158015610a4457600080fd5b505afa158015610a58573d6000803e3d6000fd5b505050506040513d601f19601f82011682018060405250810190610a7c91906119b3565b610acd5760405162461bcd60e51b815260206004820152601d60248201527f5375417574683a206f6e6c794f776e657220415554485f4641494c454400000060448201526064015b60405180910390fd5b610ad7828261112d565b6001600160a01b03831660009081526020819052604081208291846002811115610b1157634e487b7160e01b600052602160045260246000fd5b6002811115610b3057634e487b7160e01b600052602160045260246000fd5b815260208082019290925260400160002082358155908201356001820155610510565b6000807f00000000000000000000000000000000000000000000000000000000000000006001600160a01b0316846001600160a01b031614610b96576000610b99565b60015b9050610ba68582856108b6565b95945050505050565b60008082610be9576040517fe008b5f900000000000000000000000000000000000000000000000000000000815260040160405180910390fd5b6001600160a01b03841660009081526001602052604090208054610c39576040517f895afd9500000000000000000000000000000000000000000000000000000000815260040160405180910390fd5b6000610c4b86600284600001546108b6565b604080516060810182528454815260018501546020820152600285015491810191909152909150610c7c90866111ba565b90945092508315610ca15783826001016000828254610c9b9190611b40565b90915550505b8215610cc15782826002016000828254610cbb9190611b40565b90915550505b6001820154158015610cd557506002820154155b15610d02576001600160a01b03861660009081526001602081905260408220828155908101829055600201555b610d1481670de0b6b3a7640000611ae9565b610d2685670de0b6b3a7640000611b21565b610d309190611b01565b9350610d4481670de0b6b3a7640000611ae9565b610d5684670de0b6b3a7640000611b21565b610d609190611b01565b9250610d86604051806060016040528060368152602001611bd36036913982868661122f565b50509250929050565b6040516001600160a01b038316602482015260448101829052610e239084907fa9059cbb00000000000000000000000000000000000000000000000000000000906064015b60408051601f198184030181529190526020810180516001600160e01b03167fffffffff0000000000000000000000000000000000000000000000000000000090931692909217909152611291565b505050565b6040517fb33dc1900000000000000000000000000000000000000000000000000000000081526001600160a01b0385811660048301528481166024830152600091829182918291829182917f0000000000000000000000000000000000000000000000000000000000000000169063b33dc1909060440160606040518083038186803b158015610eb757600080fd5b505afa158015610ecb573d6000803e3d6000fd5b505050506040513d601f19601f82011682018060405250810190610eef91906119eb565b925092509250610f196040518060600160405280602c8152602001611c09602c913984848461122f565b6000610f268b8b86610b53565b6040516306addfb360e31b81526001600160a01b038d811660048301529192506000917f0000000000000000000000000000000000000000000000000000000000000000169063356efd989060240160206040518083038186803b158015610f8d57600080fd5b505afa158015610fa1573d6000803e3d6000fd5b505050506040513d601f19601f82011682018060405250810190610fc591906119d3565b9050600080610fd6838d8887611376565b915091508a821015611014576040517fe4e014cd00000000000000000000000000000000000000000000000000000000815260040160405180910390fd5b60008061102187846114e6565b949c509a5092985050505050505050509450945094915050565b6040516001600160a01b038085166024830152831660448201526064810182905261108c9085907f23b872dd0000000000000000000000000000000000000000000000000000000090608401610dd4565b50505050565b6001600160a01b038416600090815260016020819052604082209081018054919285926110c0908490611ae9565b92505081905550818160020160008282546110db9190611ae9565b909155505080546105105792909255505050565b600080836110fd8489611b40565b6111079190611b21565b6111119086611ae9565b90508581116111205780611122565b855b979650505050505050565b60008083600281111561115057634e487b7160e01b600052602160045260246000fd5b1415611164575066b1a2bc2ec5000061116f565b50670de0b6b3a76400005b813581111580611183575080826020013510155b15610e23576040517f8478aedc00000000000000000000000000000000000000000000000000000000815260040160405180910390fd5b600080836020015183116111d057829150611228565b60208401516111df9084611b40565b9250836040015183111561121f576040517f35e8282000000000000000000000000000000000000000000000000000000000815260040160405180910390fd5b50506020820151815b9250929050565b61108c848484846040516024016112499493929190611aba565b60408051601f198184030181529190526020810180516001600160e01b03167f08ee56660000000000000000000000000000000000000000000000000000000017905261150d565b60006112e6826040518060400160405280602081526020017f5361666545524332303a206c6f772d6c6576656c2063616c6c206661696c6564815250856001600160a01b031661152e9092919063ffffffff16565b805190915015610e23578080602001905181019061130491906119b3565b610e235760405162461bcd60e51b815260206004820152602a60248201527f5361666545524332303a204552433230206f7065726174696f6e20646964206e60448201527f6f742073756363656564000000000000000000000000000000000000000000006064820152608401610ac4565b60008080670de0b6b3a764000061138d8689611b21565b6113979190611b01565b90506113bd604051806060016040528060338152602001611c356033913986898461122f565b6113e0604051806060016040528060398152602001611b9a60399139878661153d565b60006113ed82888761159d565b6040805180820190915260208082527f43414c435f424f4e555320737461626c65636f696e2072656d61696e6465723a908201529198509150611439906114348385611b40565b611614565b60408051808201909152601c81527f43414c435f424f4e555320737461626c65636f696e20626f6e75733a00000000602082015261147b906114348984611b40565b6114ba6040518060400160405280601e81526020017f43414c435f424f4e555320737461626c65636f696e207061796d656e743a000081525088611614565b6000886114cf83670de0b6b3a7640000611b21565b6114d99190611b01565b9997985050505050505050565b60008083831115611505576114fb8484611b40565b9050839150611228565b919391925050565b80516a636f6e736f6c652e6c6f67602083016000808483855afa5050505050565b606061038b8484600085611676565b610e2383838360405160240161155593929190611a95565b60408051601f198184030181529190526020810180516001600160e01b03167f969cdd030000000000000000000000000000000000000000000000000000000017905261150d565b600080670de0b6b3a76400006115b38482611ae9565b6115bd9086611b21565b6115c79190611b01565b9050848111156116085750836115e583670de0b6b3a7640000611ae9565b6115f786670de0b6b3a7640000611b21565b6116019190611b01565b915061160c565b8391505b935093915050565b611672828260405160240161162a929190611a73565b60408051601f198184030181529190526020810180516001600160e01b03167f9710a9d00000000000000000000000000000000000000000000000000000000017905261150d565b5050565b6060824710156116ee5760405162461bcd60e51b815260206004820152602660248201527f416464726573733a20696e73756666696369656e742062616c616e636520666f60448201527f722063616c6c00000000000000000000000000000000000000000000000000006064820152608401610ac4565b6001600160a01b0385163b6117455760405162461bcd60e51b815260206004820152601d60248201527f416464726573733a2063616c6c20746f206e6f6e2d636f6e74726163740000006044820152606401610ac4565b600080866001600160a01b031685876040516117619190611a44565b60006040518083038185875af1925050503d806000811461179e576040519150601f19603f3d011682016040523d82523d6000602084013e6117a3565b606091505b5091509150611122828286606083156117bd5750816109be565b8251156117cd5782518084602001fd5b8160405162461bcd60e51b8152600401610ac49190611a60565b80356001600160a01b03811681146117fe57600080fd5b919050565b8035600381106117fe57600080fd5b60008060408385031215611824578182fd5b61182d836117e7565b915061183b602084016117e7565b90509250929050565b600080600080600060a0868803121561185b578081fd5b611864866117e7565b9450611872602087016117e7565b9350611880604087016117e7565b94979396509394606081013594506080013592915050565b600080600080608085870312156118ad578384fd5b6118b6856117e7565b93506118c4602086016117e7565b93969395505050506040820135916060013590565b600080604083850312156118eb578182fd5b6118f4836117e7565b915061183b60208401611803565b60008060008385036080811215611917578384fd5b611920856117e7565b935061192e60208601611803565b92506040603f1982011215611941578182fd5b506040840190509250925092565b600080600060608486031215611963578283fd5b61196c846117e7565b925061197a60208501611803565b9150604084013590509250925092565b6000806040838503121561199c578182fd5b6119a5836117e7565b946020939093013593505050565b6000602082840312156119c4578081fd5b815180151581146109be578182fd5b6000602082840312156119e4578081fd5b5051919050565b6000806000606084860312156119ff578283fd5b8351925060208401519150604084015190509250925092565b60008151808452611a30816020860160208601611b57565b601f01601f19169290920160200192915050565b60008251611a56818460208701611b57565b9190910192915050565b6020815260006109be6020830184611a18565b604081526000611a866040830185611a18565b90508260208301529392505050565b606081526000611aa86060830186611a18565b60208301949094525060400152919050565b608081526000611acd6080830187611a18565b6020830195909552506040810192909252606090910152919050565b60008219821115611afc57611afc611b83565b500190565b600082611b1c57634e487b7160e01b81526012600452602481fd5b500490565b6000816000190483118215151615611b3b57611b3b611b83565b500290565b600082821015611b5257611b52611b83565b500390565b60005b83811015611b72578181015183820152602001611b5a565b8381111561108c5750506000910152565b634e487b7160e01b600052601160045260246000fdfe43414c435f424f4e555320737461626c65636f696e2028737461626c65636f696e416d6f756e744531382c20646973636f756e74453138293a444953434f554e54532028646973636f756e744531382c207375546f52657061796d656e742c207375546f466f756e646174696f6e294c49515549444154494f4e20504152414d532028626c6f636b2c20636f6c6c617465726c2c2064656274293a43414c435f424f4e555320636f6c6c61746572616c28616d6f756e74202a207072696365203d20617373657456616c7565293aa26469706673582212205e7b41932bf664e65360871d82533d92322998ad2ca70567d3a15dc50fe9570d64736f6c63430008040033",
  "devdoc": {
    "kind": "dev",
    "methods": {
      "calculateDiscountE18(address,uint8,uint256)": {
        "details": "This is a linear function of the discount change.     Calculates the liquidation discount by passed blocks.",
        "params": {
          "asset": "The address of the main collateral token",
          "discountType": "Determines how aggressively the lending module offers a discount",
          "liquidationBlock": "The block number when the liquidation was triggered"
        },
        "returns": {
          "_0": "Amount of discount in percents, E18 format"
        }
      },
      "calculateLiquidationDiscount(address,address)": {
        "params": {
          "asset": "The address of the collateral token",
          "owner": "The owner of the collateral"
        }
      },
      "getDiscountInfo(address,uint8)": {
        "params": {
          "asset": "The address of the asset token",
          "discountType": "Type of discount determines how aggressively the lending module offers a discount"
        }
      },
      "setDiscountInfo(address,uint8,(uint256,uint256))": {
        "details": "Sets the liquidation discount",
        "params": {
          "asset": "The address of the asset token",
          "discountInfo": "Determines discount percentages depending on a block number",
          "discountType": "Determines how aggressively the lending module offers a discount"
        }
      },
      "swapStablecoinToAsset(address,address,address,uint256,uint256)": {
        "details": "This is a first step of two",
        "params": {
          "asset": "The address of the collateral token",
          "minAssetAmountEDecimal": "The minimum amount of collateral which the liquidator desires to obtain",
          "owner": "The owner of the collateral",
          "stablecoinAmountEDecimal": "The amount of stablecoins for the collateral buyout",
          "stablecoinToken": "The address of the stablecoin token"
        }
      },
      "swapSuUsdToAsset(address,address,uint256,uint256)": {
        "params": {
          "asset": "The address of the collateral token",
          "minAssetAmountEDecimal": "The minimum amount of collateral which the liquidator desires to obtain",
          "owner": "The owner of the collateral",
          "stablecoinAmountE18": "The amount of stablecoins for the collateral buyout"
        }
      },
      "swapSuUsdToStablecoin(address,uint256)": {
        "details": "This is a second step of two",
        "params": {
          "stablecoinAmountEDecimal": "The amount of stablecoins",
          "stablecoinToken": "The address of the stablecoin token"
        }
      }
    },
    "version": 1
  },
  "userdoc": {
    "kind": "user",
    "methods": {
      "calculateLiquidationDiscount(address,address)": {
        "notice": "Calculates a liquidation discount"
      },
      "getDiscountInfo(address,uint8)": {
        "notice": "Returns information about discount percentages depending on a block number"
      },
      "setDiscountInfo(address,uint8,(uint256,uint256))": {
        "notice": "Only owner is able to call this function"
      },
      "swapStablecoinToAsset(address,address,address,uint256,uint256)": {
        "notice": "Swaps stablecoins from the whitelist to the collateral"
      },
      "swapSuUsdToAsset(address,address,uint256,uint256)": {
        "notice": "Swaps SuUSD to the collateral"
      },
      "swapSuUsdToStablecoin(address,uint256)": {
        "notice": "Swaps SuUSD to stablecoins from the whitelist"
      }
    },
    "version": 1
  },
  "storageLayout": {
    "storage": [
      {
        "astId": 9228,
        "contract": "contracts/liquidator/SuLiquidation.sol:SuLiquidation",
        "label": "_discountsInfo",
        "offset": 0,
        "slot": "0",
        "type": "t_mapping(t_address,t_mapping(t_enum(DiscountType)9449,t_struct(DiscountInfo)9454_storage))"
      },
      {
        "astId": 8424,
        "contract": "contracts/liquidator/SuLiquidation.sol:SuLiquidation",
        "label": "_deferredStablecoinAmounts",
        "offset": 0,
        "slot": "1",
        "type": "t_mapping(t_address,t_struct(DeferredStablecoinAmount)9461_storage)"
      }
    ],
    "types": {
      "t_address": {
        "encoding": "inplace",
        "label": "address",
        "numberOfBytes": "20"
      },
      "t_enum(DiscountType)9449": {
        "encoding": "inplace",
        "label": "enum DiscountType",
        "numberOfBytes": "1"
      },
      "t_mapping(t_address,t_mapping(t_enum(DiscountType)9449,t_struct(DiscountInfo)9454_storage))": {
        "encoding": "mapping",
        "key": "t_address",
        "label": "mapping(address => mapping(enum DiscountType => struct DiscountInfo))",
        "numberOfBytes": "32",
        "value": "t_mapping(t_enum(DiscountType)9449,t_struct(DiscountInfo)9454_storage)"
      },
      "t_mapping(t_address,t_struct(DeferredStablecoinAmount)9461_storage)": {
        "encoding": "mapping",
        "key": "t_address",
        "label": "mapping(address => struct DeferredStablecoinAmount)",
        "numberOfBytes": "32",
        "value": "t_struct(DeferredStablecoinAmount)9461_storage"
      },
      "t_mapping(t_enum(DiscountType)9449,t_struct(DiscountInfo)9454_storage)": {
        "encoding": "mapping",
        "key": "t_enum(DiscountType)9449",
        "label": "mapping(enum DiscountType => struct DiscountInfo)",
        "numberOfBytes": "32",
        "value": "t_struct(DiscountInfo)9454_storage"
      },
      "t_struct(DeferredStablecoinAmount)9461_storage": {
        "encoding": "inplace",
        "label": "struct DeferredStablecoinAmount",
        "members": [
          {
            "astId": 9456,
            "contract": "contracts/liquidator/SuLiquidation.sol:SuLiquidation",
            "label": "liquidationBlock",
            "offset": 0,
            "slot": "0",
            "type": "t_uint256"
          },
          {
            "astId": 9458,
            "contract": "contracts/liquidator/SuLiquidation.sol:SuLiquidation",
            "label": "toRepaymentE18",
            "offset": 0,
            "slot": "1",
            "type": "t_uint256"
          },
          {
            "astId": 9460,
            "contract": "contracts/liquidator/SuLiquidation.sol:SuLiquidation",
            "label": "toFoundationE18",
            "offset": 0,
            "slot": "2",
            "type": "t_uint256"
          }
        ],
        "numberOfBytes": "96"
      },
      "t_struct(DiscountInfo)9454_storage": {
        "encoding": "inplace",
        "label": "struct DiscountInfo",
        "members": [
          {
            "astId": 9451,
            "contract": "contracts/liquidator/SuLiquidation.sol:SuLiquidation",
            "label": "firstBlockE18",
            "offset": 0,
            "slot": "0",
            "type": "t_uint256"
          },
          {
            "astId": 9453,
            "contract": "contracts/liquidator/SuLiquidation.sol:SuLiquidation",
            "label": "stepPerBlockE18",
            "offset": 0,
            "slot": "1",
            "type": "t_uint256"
          }
        ],
        "numberOfBytes": "64"
      },
      "t_uint256": {
        "encoding": "inplace",
        "label": "uint256",
        "numberOfBytes": "32"
      }
    }
  }
}