{
  "address": "0x9c9d8cA57f01661af44bc47bd98DC9f260C4AC05",
  "abi": [
    {
      "inputs": [],
      "name": "IncorrectDiscount",
      "type": "error"
    },
    {
      "inputs": [],
      "name": "LessThanMinimum",
      "type": "error"
    },
    {
      "inputs": [],
      "name": "NotEnoughAmount",
      "type": "error"
    },
    {
      "inputs": [],
      "name": "NotEnoughDeferredAmount",
      "type": "error"
    },
    {
      "inputs": [],
      "name": "TooMuchAmount",
      "type": "error"
    },
    {
      "inputs": [],
      "name": "ZeroAddress",
      "type": "error"
    },
    {
      "inputs": [],
      "name": "ACCESS_CONTROL_SINGLETON",
      "outputs": [
        {
          "internalType": "contract ISuAccessControl",
          "name": "",
          "type": "address"
        }
      ],
      "stateMutability": "view",
      "type": "function"
    },
    {
      "inputs": [],
      "name": "LIQUIDATION_ACCESS_ROLE",
      "outputs": [
        {
          "internalType": "bytes32",
          "name": "",
          "type": "bytes32"
        }
      ],
      "stateMutability": "view",
      "type": "function"
    },
    {
      "inputs": [],
      "name": "MINTER_ROLE",
      "outputs": [
        {
          "internalType": "bytes32",
          "name": "",
          "type": "bytes32"
        }
      ],
      "stateMutability": "view",
      "type": "function"
    },
    {
      "inputs": [],
      "name": "VAULT_ACCESS_ROLE",
      "outputs": [
        {
          "internalType": "bytes32",
          "name": "",
          "type": "bytes32"
        }
      ],
      "stateMutability": "view",
      "type": "function"
    },
    {
      "inputs": [
        {
          "internalType": "address",
          "name": "asset",
          "type": "address"
        },
        {
          "internalType": "enum DiscountType",
          "name": "discountType",
          "type": "uint8"
        },
        {
          "internalType": "uint256",
          "name": "liquidationBlock",
          "type": "uint256"
        }
      ],
      "name": "calculateDiscountE18",
      "outputs": [
        {
          "internalType": "uint256",
          "name": "",
          "type": "uint256"
        }
      ],
      "stateMutability": "view",
      "type": "function"
    },
    {
      "inputs": [
        {
          "internalType": "address",
          "name": "asset",
          "type": "address"
        },
        {
          "internalType": "address",
          "name": "owner",
          "type": "address"
        }
      ],
      "name": "calculateLiquidationDiscount",
      "outputs": [
        {
          "internalType": "uint256",
          "name": "",
          "type": "uint256"
        }
      ],
      "stateMutability": "view",
      "type": "function"
    },
    {
      "inputs": [
        {
          "internalType": "address",
          "name": "asset",
          "type": "address"
        },
        {
          "internalType": "enum DiscountType",
          "name": "discountType",
          "type": "uint8"
        }
      ],
      "name": "getDiscountInfo",
      "outputs": [
        {
          "components": [
            {
              "internalType": "uint256",
              "name": "firstBlockE18",
              "type": "uint256"
            },
            {
              "internalType": "uint256",
              "name": "stepPerBlockE18",
              "type": "uint256"
            }
          ],
          "internalType": "struct DiscountInfo",
          "name": "discountInfo",
          "type": "tuple"
        }
      ],
      "stateMutability": "view",
      "type": "function"
    },
    {
      "inputs": [
        {
          "internalType": "address",
          "name": "_authControl",
          "type": "address"
        }
      ],
      "name": "init",
      "outputs": [],
      "stateMutability": "nonpayable",
      "type": "function"
    },
    {
      "inputs": [
        {
          "internalType": "address",
          "name": "_authControl",
          "type": "address"
        },
        {
          "internalType": "address",
          "name": "_suManager",
          "type": "address"
        },
        {
          "internalType": "address",
          "name": "_suOracle",
          "type": "address"
        },
        {
          "internalType": "address",
          "name": "_suReward",
          "type": "address"
        }
      ],
      "name": "initialize",
      "outputs": [],
      "stateMutability": "nonpayable",
      "type": "function"
    },
    {
      "inputs": [
        {
          "internalType": "address",
          "name": "asset",
          "type": "address"
        },
        {
          "internalType": "enum DiscountType",
          "name": "discountType",
          "type": "uint8"
        },
        {
          "components": [
            {
              "internalType": "uint256",
              "name": "firstBlockE18",
              "type": "uint256"
            },
            {
              "internalType": "uint256",
              "name": "stepPerBlockE18",
              "type": "uint256"
            }
          ],
          "internalType": "struct DiscountInfo",
          "name": "discountInfo",
          "type": "tuple"
        }
      ],
      "name": "setDiscountInfo",
      "outputs": [],
      "stateMutability": "nonpayable",
      "type": "function"
    },
    {
      "inputs": [
        {
          "internalType": "address",
          "name": "asset",
          "type": "address"
        },
        {
          "internalType": "address",
          "name": "owner",
          "type": "address"
        },
        {
          "internalType": "address",
          "name": "stablecoinToken",
          "type": "address"
        },
        {
          "internalType": "uint256",
          "name": "stablecoinAmountEDecimal",
          "type": "uint256"
        },
        {
          "internalType": "uint256",
          "name": "minAssetAmountEDecimal",
          "type": "uint256"
        }
      ],
      "name": "swapStablecoinToAsset",
      "outputs": [],
      "stateMutability": "nonpayable",
      "type": "function"
    },
    {
      "inputs": [
        {
          "internalType": "address",
          "name": "asset",
          "type": "address"
        },
        {
          "internalType": "address",
          "name": "owner",
          "type": "address"
        },
        {
          "internalType": "uint256",
          "name": "stablecoinAmountE18",
          "type": "uint256"
        },
        {
          "internalType": "uint256",
          "name": "minAssetAmountEDecimal",
          "type": "uint256"
        }
      ],
      "name": "swapSuUsdToAsset",
      "outputs": [],
      "stateMutability": "nonpayable",
      "type": "function"
    },
    {
      "inputs": [
        {
          "internalType": "address",
          "name": "stablecoinToken",
          "type": "address"
        },
        {
          "internalType": "uint256",
          "name": "stablecoinAmountEDecimal",
          "type": "uint256"
        }
      ],
      "name": "swapSuUsdToStablecoin",
      "outputs": [],
      "stateMutability": "nonpayable",
      "type": "function"
    }
  ],
  "numDeployments": 1,
  "solcInputHash": "5694697cb0af4bc0d2a28db42599225b",
  "bytecode": "0x608060405234801561001057600080fd5b50611ef8806100206000396000f3fe608060405234801561001057600080fd5b50600436106100df5760003560e01c806395bdf6bb1161008c578063d539139311610066578063d5391393146101f1578063dc97e84e14610218578063f4e2ebeb1461023f578063f8c8765e1461025257600080fd5b806395bdf6bb146101b85780639dd3e690146101cb578063c3009f36146101de57600080fd5b80633599f022116100bd5780633599f022146101645780634d2cf8b7146101925780637a302703146101a557600080fd5b806303ee9f22146100e457806314c376dc1461011a57806319ab453c1461014f575b600080fd5b6000546100fd906201000090046001600160a01b031681565b6040516001600160a01b0390911681526020015b60405180910390f35b6101417fe965846df3dd5b1dfa65f58e31477079e90140e0908b6dd31b5aead5a57cf36581565b604051908152602001610111565b61016261015d366004611a00565b610265565b005b610177610172366004611b34565b61033c565b60408051825181526020928301519281019290925201610111565b6101416101a0366004611a1a565b6103dd565b6101626101b3366004611be5565b61047b565b6101626101c6366004611a9f565b6105c4565b6101626101d9366004611af3565b61080b565b6101416101ec366004611baa565b6108eb565b6101417f9f2df0fed2c77648de5860a4cc508cd0818c85b8b8a1ab4ceeef8d981c8956a681565b6101417f9a9aef7c1247d5fc769b0185c052913e39673da29a880317dfd20ebf86f26a4981565b61016261024d366004611b5d565b6109fa565b610162610260366004611a4c565b610b6d565b600054610100900460ff166102805760005460ff1615610284565b303b155b6102fb5760405162461bcd60e51b815260206004820152602e60248201527f496e697469616c697a61626c653a20636f6e747261637420697320616c72656160448201527f647920696e697469616c697a656400000000000000000000000000000000000060648201526084015b60405180910390fd5b600054610100900460ff1615801561031d576000805461ffff19166101011790555b61032682610ce4565b8015610338576000805461ff00191690555b5050565b60408051808201909152600080825260208201526001600160a01b03831660009081526001602052604081209083600281111561038957634e487b7160e01b600052602160045260246000fd5b60028111156103a857634e487b7160e01b600052602160045260246000fd5b815260200190815260200160002060405180604001604052908160008201548152602001600182015481525050905092915050565b6002546040516304c9a55560e41b81526001600160a01b03848116600483015283811660248301526000928392911690634c9a55509060440160206040518083038186803b15801561042e57600080fd5b505afa158015610442573d6000803e3d6000fd5b505050506040513d601f19601f820116820180604052508101906104669190611c2e565b9050610473848483610da1565b949350505050565b6003546040516306addfb360e31b81526001600160a01b038481166004830152600092670de0b6b3a76400009285929091169063356efd989060240160206040518083038186803b1580156104cf57600080fd5b505afa1580156104e3573d6000803e3d6000fd5b505050506040513d601f19601f820116820180604052508101906105079190611c2e565b6105119190611d7c565b61051b9190611d5c565b905060008061052a8584610ddb565b6002546040517f8cd2e0c700000000000000000000000000000000000000000000000000000000815233600482015260248101849052604481018390529294509092506001600160a01b031690638cd2e0c790606401600060405180830381600087803b15801561059a57600080fd5b505af11580156105ae573d6000803e3d6000fd5b505050506105bd853386610fba565b5050505050565b6003546040516306addfb360e31b81526001600160a01b038581166004830152600092169063356efd989060240160206040518083038186803b15801561060a57600080fd5b505afa15801561061e573d6000803e3d6000fd5b505050506040513d601f19601f820116820180604052508101906106429190611c2e565b90506000670de0b6b3a76400006106598584611d7c565b6106639190611d5c565b905060008060006106768a8a8689611053565b9194509250905060008561068a8385611d44565b61069c90670de0b6b3a7640000611d7c565b6106a69190611d5c565b90506106b48933308461122e565b6002546040516304c9a55560e41b81526001600160a01b038d811660048301528c811660248301526000921690634c9a55509060440160206040518083038186803b15801561070257600080fd5b505afa158015610716573d6000803e3d6000fd5b505050506040513d601f19601f8201168201806040525081019061073a9190611c2e565b90506107488a828686611285565b6002546040517f6f70e66f0000000000000000000000000000000000000000000000000000000081526001600160a01b038e811660048301528d81166024830152336044830152606482018790526084820188905290911690636f70e66f9060a401602060405180830381600087803b1580156107c457600080fd5b505af11580156107d8573d6000803e3d6000fd5b505050506040513d601f19601f820116820180604052508101906107fc9190611c0e565b50505050505050505050505050565b600080600061081c87878787611053565b6002546040517f6bf12d5f0000000000000000000000000000000000000000000000000000000081526001600160a01b038c811660048301528b81166024830152336044830152606482018590526084820184905260a482018690529497509295509093509190911690636bf12d5f9060c401602060405180830381600087803b1580156108a957600080fd5b505af11580156108bd573d6000803e3d6000fd5b505050506040513d601f19601f820116820180604052508101906108e19190611c0e565b5050505050505050565b6001600160a01b038316600090815260016020526040812081908185600281111561092657634e487b7160e01b600052602160045260246000fd5b600281111561094557634e487b7160e01b600052602160045260246000fd5b81526020019081526020016000209050600083436109639190611d9b565b905080610975576000925050506109f3565b806001141561098757505490506109f3565b60008560028111156109a957634e487b7160e01b600052602160045260246000fd5b14156109d5576109cc8166b1a2bc2ec500008460010154856001015460026112e1565b925050506109f3565b6109cc81670de0b6b3a76400008460000154856001015460016112e1565b9392505050565b600080546040517f91d1485400000000000000000000000000000000000000000000000000000000815260048101929092523360248301526201000090046001600160a01b0316906391d148549060440160206040518083038186803b158015610a6357600080fd5b505afa158015610a77573d6000803e3d6000fd5b505050506040513d601f19601f82011682018060405250810190610a9b9190611c0e565b610ae75760405162461bcd60e51b815260206004820152601d60248201527f5375417574683a206f6e6c794f776e657220415554485f4641494c454400000060448201526064016102f2565b610af1828261131f565b6001600160a01b03831660009081526001602052604081208291846002811115610b2b57634e487b7160e01b600052602160045260246000fd5b6002811115610b4a57634e487b7160e01b600052602160045260246000fd5b8152602080820192909252604001600020823581559082013560018201556105bd565b600054610100900460ff16610b885760005460ff1615610b8c565b303b155b610bfe5760405162461bcd60e51b815260206004820152602e60248201527f496e697469616c697a61626c653a20636f6e747261637420697320616c72656160448201527f647920696e697469616c697a656400000000000000000000000000000000000060648201526084016102f2565b600054610100900460ff16158015610c20576000805461ffff19166101011790555b610c2985610265565b6001600160a01b038416610c505760405163d92e233d60e01b815260040160405180910390fd5b6001600160a01b038316610c775760405163d92e233d60e01b815260040160405180910390fd5b600280546001600160a01b038087167fffffffffffffffffffffffff00000000000000000000000000000000000000009283161790925560038054868416908316179055600480549285169290911691909117905580156105bd576000805461ff00191690555050505050565b600054610100900460ff16610d615760405162461bcd60e51b815260206004820152602b60248201527f496e697469616c697a61626c653a20636f6e7472616374206973206e6f74206960448201527f6e697469616c697a696e6700000000000000000000000000000000000000000060648201526084016102f2565b600080546001600160a01b0390921662010000027fffffffffffffffffffff0000000000000000000000000000000000000000ffff909216919091179055565b60045460009081906001600160a01b03858116911614610dc2576000610dc5565b60015b9050610dd28582856108eb565b95945050505050565b60008082610e15576040517fe008b5f900000000000000000000000000000000000000000000000000000000815260040160405180910390fd5b6001600160a01b03841660009081526005602052604090208054610e65576040517f895afd9500000000000000000000000000000000000000000000000000000000815260040160405180910390fd5b6000610e7786600284600001546108eb565b604080516060810182528454815260018501546020820152600285015491810191909152909150610ea890866113ac565b90945092508315610ecd5783826001016000828254610ec79190611d9b565b90915550505b8215610eed5782826002016000828254610ee79190611d9b565b90915550505b6001820154158015610f0157506002820154155b15610f2d576001600160a01b038616600090815260056020526040812081815560018101829055600201555b610f3f81670de0b6b3a7640000611d44565b610f5185670de0b6b3a7640000611d7c565b610f5b9190611d5c565b9350610f6f81670de0b6b3a7640000611d44565b610f8184670de0b6b3a7640000611d7c565b610f8b9190611d5c565b9250610fb1604051806060016040528060368152602001611e2e60369139828686611421565b50509250929050565b6040516001600160a01b03831660248201526044810182905261104e9084907fa9059cbb00000000000000000000000000000000000000000000000000000000906064015b60408051601f198184030181529190526020810180516001600160e01b03167fffffffff0000000000000000000000000000000000000000000000000000000090931692909217909152611483565b505050565b6002546040517fb33dc1900000000000000000000000000000000000000000000000000000000081526001600160a01b0386811660048301528581166024830152600092839283928392839283929091169063b33dc1909060440160606040518083038186803b1580156110c657600080fd5b505afa1580156110da573d6000803e3d6000fd5b505050506040513d601f19601f820116820180604052508101906110fe9190611c46565b9250925092506111286040518060600160405280602c8152602001611e64602c9139848484611421565b60006111358b8b86610da1565b6003546040516306addfb360e31b81526001600160a01b038e811660048301529293506000929091169063356efd989060240160206040518083038186803b15801561118057600080fd5b505afa158015611194573d6000803e3d6000fd5b505050506040513d601f19601f820116820180604052508101906111b89190611c2e565b90506000806111c9838d8887611568565b915091508a821015611207576040517fe4e014cd00000000000000000000000000000000000000000000000000000000815260040160405180910390fd5b60008061121487846116d8565b949c509a5092985050505050505050509450945094915050565b6040516001600160a01b038085166024830152831660448201526064810182905261127f9085907f23b872dd0000000000000000000000000000000000000000000000000000000090608401610fff565b50505050565b6001600160a01b0384166000908152600560205260408120600181018054919285926112b2908490611d44565b92505081905550818160020160008282546112cd9190611d44565b909155505080546105bd5792909255505050565b600080836112ef8489611d9b565b6112f99190611d7c565b6113039086611d44565b90508581116113125780611314565b855b979650505050505050565b60008083600281111561134257634e487b7160e01b600052602160045260246000fd5b1415611356575066b1a2bc2ec50000611361565b50670de0b6b3a76400005b813581111580611375575080826020013510155b1561104e576040517f8478aedc00000000000000000000000000000000000000000000000000000000815260040160405180910390fd5b600080836020015183116113c25782915061141a565b60208401516113d19084611d9b565b92508360400151831115611411576040517f35e8282000000000000000000000000000000000000000000000000000000000815260040160405180910390fd5b50506020820151815b9250929050565b61127f8484848460405160240161143b9493929190611d15565b60408051601f198184030181529190526020810180516001600160e01b03167f08ee5666000000000000000000000000000000000000000000000000000000001790526116ff565b60006114d8826040518060400160405280602081526020017f5361666545524332303a206c6f772d6c6576656c2063616c6c206661696c6564815250856001600160a01b03166117209092919063ffffffff16565b80519091501561104e57808060200190518101906114f69190611c0e565b61104e5760405162461bcd60e51b815260206004820152602a60248201527f5361666545524332303a204552433230206f7065726174696f6e20646964206e60448201527f6f7420737563636565640000000000000000000000000000000000000000000060648201526084016102f2565b60008080670de0b6b3a764000061157f8689611d7c565b6115899190611d5c565b90506115af604051806060016040528060338152602001611e9060339139868984611421565b6115d2604051806060016040528060398152602001611df560399139878661172f565b60006115df82888761178f565b6040805180820190915260208082527f43414c435f424f4e555320737461626c65636f696e2072656d61696e6465723a90820152919850915061162b906116268385611d9b565b611806565b60408051808201909152601c81527f43414c435f424f4e555320737461626c65636f696e20626f6e75733a00000000602082015261166d906116268984611d9b565b6116ac6040518060400160405280601e81526020017f43414c435f424f4e555320737461626c65636f696e207061796d656e743a000081525088611806565b6000886116c183670de0b6b3a7640000611d7c565b6116cb9190611d5c565b9997985050505050505050565b600080838311156116f7576116ed8484611d9b565b905083915061141a565b919391925050565b80516a636f6e736f6c652e6c6f67602083016000808483855afa5050505050565b60606104738484600085611864565b61104e83838360405160240161174793929190611cf0565b60408051601f198184030181529190526020810180516001600160e01b03167f969cdd03000000000000000000000000000000000000000000000000000000001790526116ff565b600080670de0b6b3a76400006117a58482611d44565b6117af9086611d7c565b6117b99190611d5c565b9050848111156117fa5750836117d783670de0b6b3a7640000611d44565b6117e986670de0b6b3a7640000611d7c565b6117f39190611d5c565b91506117fe565b8391505b935093915050565b610338828260405160240161181c929190611cce565b60408051601f198184030181529190526020810180516001600160e01b03167f9710a9d0000000000000000000000000000000000000000000000000000000001790526116ff565b6060824710156118dc5760405162461bcd60e51b815260206004820152602660248201527f416464726573733a20696e73756666696369656e742062616c616e636520666f60448201527f722063616c6c000000000000000000000000000000000000000000000000000060648201526084016102f2565b6001600160a01b0385163b6119335760405162461bcd60e51b815260206004820152601d60248201527f416464726573733a2063616c6c20746f206e6f6e2d636f6e747261637400000060448201526064016102f2565b600080866001600160a01b0316858760405161194f9190611c9f565b60006040518083038185875af1925050503d806000811461198c576040519150601f19603f3d011682016040523d82523d6000602084013e611991565b606091505b5091509150611314828286606083156119ab5750816109f3565b8251156119bb5782518084602001fd5b8160405162461bcd60e51b81526004016102f29190611cbb565b80356001600160a01b03811681146119ec57600080fd5b919050565b8035600381106119ec57600080fd5b600060208284031215611a11578081fd5b6109f3826119d5565b60008060408385031215611a2c578081fd5b611a35836119d5565b9150611a43602084016119d5565b90509250929050565b60008060008060808587031215611a61578182fd5b611a6a856119d5565b9350611a78602086016119d5565b9250611a86604086016119d5565b9150611a94606086016119d5565b905092959194509250565b600080600080600060a08688031215611ab6578081fd5b611abf866119d5565b9450611acd602087016119d5565b9350611adb604087016119d5565b94979396509394606081013594506080013592915050565b60008060008060808587031215611b08578384fd5b611b11856119d5565b9350611b1f602086016119d5565b93969395505050506040820135916060013590565b60008060408385031215611b46578182fd5b611b4f836119d5565b9150611a43602084016119f1565b60008060008385036080811215611b72578384fd5b611b7b856119d5565b9350611b89602086016119f1565b92506040603f1982011215611b9c578182fd5b506040840190509250925092565b600080600060608486031215611bbe578283fd5b611bc7846119d5565b9250611bd5602085016119f1565b9150604084013590509250925092565b60008060408385031215611bf7578182fd5b611c00836119d5565b946020939093013593505050565b600060208284031215611c1f578081fd5b815180151581146109f3578182fd5b600060208284031215611c3f578081fd5b5051919050565b600080600060608486031215611c5a578283fd5b8351925060208401519150604084015190509250925092565b60008151808452611c8b816020860160208601611db2565b601f01601f19169290920160200192915050565b60008251611cb1818460208701611db2565b9190910192915050565b6020815260006109f36020830184611c73565b604081526000611ce16040830185611c73565b90508260208301529392505050565b606081526000611d036060830186611c73565b60208301949094525060400152919050565b608081526000611d286080830187611c73565b6020830195909552506040810192909252606090910152919050565b60008219821115611d5757611d57611dde565b500190565b600082611d7757634e487b7160e01b81526012600452602481fd5b500490565b6000816000190483118215151615611d9657611d96611dde565b500290565b600082821015611dad57611dad611dde565b500390565b60005b83811015611dcd578181015183820152602001611db5565b8381111561127f5750506000910152565b634e487b7160e01b600052601160045260246000fdfe43414c435f424f4e555320737461626c65636f696e2028737461626c65636f696e416d6f756e744531382c20646973636f756e74453138293a444953434f554e54532028646973636f756e744531382c207375546f52657061796d656e742c207375546f466f756e646174696f6e294c49515549444154494f4e20504152414d532028626c6f636b2c20636f6c6c617465726c2c2064656274293a43414c435f424f4e555320636f6c6c61746572616c28616d6f756e74202a207072696365203d20617373657456616c7565293aa2646970667358221220800651d6a9a00484f3ba00797c402b0995011746b1c79a59c9e6c5d060d3d4d064736f6c63430008040033",
  "devdoc": {
    "kind": "dev",
    "methods": {
      "calculateDiscountE18(address,uint8,uint256)": {
        "details": "This is a linear function of the discount change.     Calculates the liquidation discount by passed blocks.",
        "params": {
          "asset": "The address of the main collateral token",
          "discountType": "Determines how aggressively the lending module offers a discount",
          "liquidationBlock": "The block number when the liquidation was triggered"
        },
        "returns": {
          "_0": "Amount of discount in percents, E18 format"
        }
      },
      "calculateLiquidationDiscount(address,address)": {
        "params": {
          "asset": "The address of the collateral token",
          "owner": "The owner of the collateral"
        }
      },
      "getDiscountInfo(address,uint8)": {
        "params": {
          "asset": "The address of the asset token",
          "discountType": "Type of discount determines how aggressively the lending module offers a discount"
        }
      },
      "setDiscountInfo(address,uint8,(uint256,uint256))": {
        "details": "Sets the liquidation discount",
        "params": {
          "asset": "The address of the asset token",
          "discountInfo": "Determines discount percentages depending on a block number",
          "discountType": "Determines how aggressively the lending module offers a discount"
        }
      },
      "swapStablecoinToAsset(address,address,address,uint256,uint256)": {
        "details": "This is a first step of two",
        "params": {
          "asset": "The address of the collateral token",
          "minAssetAmountEDecimal": "The minimum amount of collateral which the liquidator desires to obtain",
          "owner": "The owner of the collateral",
          "stablecoinAmountEDecimal": "The amount of stablecoins for the collateral buyout",
          "stablecoinToken": "The address of the stablecoin token"
        }
      },
      "swapSuUsdToAsset(address,address,uint256,uint256)": {
        "params": {
          "asset": "The address of the collateral token",
          "minAssetAmountEDecimal": "The minimum amount of collateral which the liquidator desires to obtain",
          "owner": "The owner of the collateral",
          "stablecoinAmountE18": "The amount of stablecoins for the collateral buyout"
        }
      },
      "swapSuUsdToStablecoin(address,uint256)": {
        "details": "This is a second step of two",
        "params": {
          "stablecoinAmountEDecimal": "The amount of stablecoins",
          "stablecoinToken": "The address of the stablecoin token"
        }
      }
    },
    "version": 1
  },
  "userdoc": {
    "kind": "user",
    "methods": {
      "calculateLiquidationDiscount(address,address)": {
        "notice": "Calculates a liquidation discount"
      },
      "getDiscountInfo(address,uint8)": {
        "notice": "Returns information about discount percentages depending on a block number"
      },
      "setDiscountInfo(address,uint8,(uint256,uint256))": {
        "notice": "Only owner is able to call this function"
      },
      "swapStablecoinToAsset(address,address,address,uint256,uint256)": {
        "notice": "Swaps stablecoins from the whitelist to the collateral"
      },
      "swapSuUsdToAsset(address,address,uint256,uint256)": {
        "notice": "Swaps SuUSD to the collateral"
      },
      "swapSuUsdToStablecoin(address,uint256)": {
        "notice": "Swaps SuUSD to stablecoins from the whitelist"
      }
    },
    "version": 1
  },
  "storageLayout": {
    "storage": [
      {
        "astId": 454,
        "contract": "contracts/liquidator/SuLiquidation.sol:SuLiquidation",
        "label": "_initialized",
        "offset": 0,
        "slot": "0",
        "type": "t_bool"
      },
      {
        "astId": 457,
        "contract": "contracts/liquidator/SuLiquidation.sol:SuLiquidation",
        "label": "_initializing",
        "offset": 1,
        "slot": "0",
        "type": "t_bool"
      },
      {
        "astId": 3905,
        "contract": "contracts/liquidator/SuLiquidation.sol:SuLiquidation",
        "label": "ACCESS_CONTROL_SINGLETON",
        "offset": 2,
        "slot": "0",
        "type": "t_contract(ISuAccessControl)6911"
      },
      {
        "astId": 11502,
        "contract": "contracts/liquidator/SuLiquidation.sol:SuLiquidation",
        "label": "_discountsInfo",
        "offset": 0,
        "slot": "1",
        "type": "t_mapping(t_address,t_mapping(t_enum(DiscountType)11726,t_struct(DiscountInfo)11731_storage))"
      },
      {
        "astId": 10682,
        "contract": "contracts/liquidator/SuLiquidation.sol:SuLiquidation",
        "label": "SU_MANAGER",
        "offset": 0,
        "slot": "2",
        "type": "t_contract(ISuManager)7231"
      },
      {
        "astId": 10685,
        "contract": "contracts/liquidator/SuLiquidation.sol:SuLiquidation",
        "label": "SU_ORACLE",
        "offset": 0,
        "slot": "3",
        "type": "t_contract(ISuOracle)7303"
      },
      {
        "astId": 10688,
        "contract": "contracts/liquidator/SuLiquidation.sol:SuLiquidation",
        "label": "SU_REWARD",
        "offset": 0,
        "slot": "4",
        "type": "t_contract(IRewardChefV2)6830"
      },
      {
        "astId": 10693,
        "contract": "contracts/liquidator/SuLiquidation.sol:SuLiquidation",
        "label": "_deferredStablecoinAmounts",
        "offset": 0,
        "slot": "5",
        "type": "t_mapping(t_address,t_struct(DeferredStablecoinAmount)11738_storage)"
      }
    ],
    "types": {
      "t_address": {
        "encoding": "inplace",
        "label": "address",
        "numberOfBytes": "20"
      },
      "t_bool": {
        "encoding": "inplace",
        "label": "bool",
        "numberOfBytes": "1"
      },
      "t_contract(IRewardChefV2)6830": {
        "encoding": "inplace",
        "label": "contract IRewardChefV2",
        "numberOfBytes": "20"
      },
      "t_contract(ISuAccessControl)6911": {
        "encoding": "inplace",
        "label": "contract ISuAccessControl",
        "numberOfBytes": "20"
      },
      "t_contract(ISuManager)7231": {
        "encoding": "inplace",
        "label": "contract ISuManager",
        "numberOfBytes": "20"
      },
      "t_contract(ISuOracle)7303": {
        "encoding": "inplace",
        "label": "contract ISuOracle",
        "numberOfBytes": "20"
      },
      "t_enum(DiscountType)11726": {
        "encoding": "inplace",
        "label": "enum DiscountType",
        "numberOfBytes": "1"
      },
      "t_mapping(t_address,t_mapping(t_enum(DiscountType)11726,t_struct(DiscountInfo)11731_storage))": {
        "encoding": "mapping",
        "key": "t_address",
        "label": "mapping(address => mapping(enum DiscountType => struct DiscountInfo))",
        "numberOfBytes": "32",
        "value": "t_mapping(t_enum(DiscountType)11726,t_struct(DiscountInfo)11731_storage)"
      },
      "t_mapping(t_address,t_struct(DeferredStablecoinAmount)11738_storage)": {
        "encoding": "mapping",
        "key": "t_address",
        "label": "mapping(address => struct DeferredStablecoinAmount)",
        "numberOfBytes": "32",
        "value": "t_struct(DeferredStablecoinAmount)11738_storage"
      },
      "t_mapping(t_enum(DiscountType)11726,t_struct(DiscountInfo)11731_storage)": {
        "encoding": "mapping",
        "key": "t_enum(DiscountType)11726",
        "label": "mapping(enum DiscountType => struct DiscountInfo)",
        "numberOfBytes": "32",
        "value": "t_struct(DiscountInfo)11731_storage"
      },
      "t_struct(DeferredStablecoinAmount)11738_storage": {
        "encoding": "inplace",
        "label": "struct DeferredStablecoinAmount",
        "members": [
          {
            "astId": 11733,
            "contract": "contracts/liquidator/SuLiquidation.sol:SuLiquidation",
            "label": "liquidationBlock",
            "offset": 0,
            "slot": "0",
            "type": "t_uint256"
          },
          {
            "astId": 11735,
            "contract": "contracts/liquidator/SuLiquidation.sol:SuLiquidation",
            "label": "toRepaymentE18",
            "offset": 0,
            "slot": "1",
            "type": "t_uint256"
          },
          {
            "astId": 11737,
            "contract": "contracts/liquidator/SuLiquidation.sol:SuLiquidation",
            "label": "toFoundationE18",
            "offset": 0,
            "slot": "2",
            "type": "t_uint256"
          }
        ],
        "numberOfBytes": "96"
      },
      "t_struct(DiscountInfo)11731_storage": {
        "encoding": "inplace",
        "label": "struct DiscountInfo",
        "members": [
          {
            "astId": 11728,
            "contract": "contracts/liquidator/SuLiquidation.sol:SuLiquidation",
            "label": "firstBlockE18",
            "offset": 0,
            "slot": "0",
            "type": "t_uint256"
          },
          {
            "astId": 11730,
            "contract": "contracts/liquidator/SuLiquidation.sol:SuLiquidation",
            "label": "stepPerBlockE18",
            "offset": 0,
            "slot": "1",
            "type": "t_uint256"
          }
        ],
        "numberOfBytes": "64"
      },
      "t_uint256": {
        "encoding": "inplace",
        "label": "uint256",
        "numberOfBytes": "32"
      }
    }
  }
}