{
  "address": "0x3171A0b29226D41C8e22C488a9452eaD05a3daF6",
  "abi": [
    {
      "inputs": [
        {
          "internalType": "address",
          "name": "_vault",
          "type": "address"
        },
        {
          "internalType": "address",
          "name": "_suOracle",
          "type": "address"
        },
        {
          "internalType": "address",
          "name": "_cdpRegistry",
          "type": "address"
        }
      ],
      "stateMutability": "nonpayable",
      "type": "constructor"
    },
    {
      "anonymous": false,
      "inputs": [
        {
          "indexed": true,
          "internalType": "address",
          "name": "asset",
          "type": "address"
        },
        {
          "indexed": true,
          "internalType": "address",
          "name": "owner",
          "type": "address"
        },
        {
          "indexed": true,
          "internalType": "address",
          "name": "buyer",
          "type": "address"
        },
        {
          "indexed": false,
          "internalType": "uint256",
          "name": "amount",
          "type": "uint256"
        },
        {
          "indexed": false,
          "internalType": "uint256",
          "name": "price",
          "type": "uint256"
        }
      ],
      "name": "Buyout",
      "type": "event"
    },
    {
      "anonymous": false,
      "inputs": [
        {
          "indexed": true,
          "internalType": "address",
          "name": "asset",
          "type": "address"
        },
        {
          "indexed": true,
          "internalType": "address",
          "name": "owner",
          "type": "address"
        },
        {
          "indexed": false,
          "internalType": "uint256",
          "name": "main",
          "type": "uint256"
        },
        {
          "indexed": false,
          "internalType": "uint256",
          "name": "stablecoin",
          "type": "uint256"
        }
      ],
      "name": "Destroyed",
      "type": "event"
    },
    {
      "anonymous": false,
      "inputs": [
        {
          "indexed": true,
          "internalType": "address",
          "name": "asset",
          "type": "address"
        },
        {
          "indexed": true,
          "internalType": "address",
          "name": "owner",
          "type": "address"
        },
        {
          "indexed": false,
          "internalType": "uint256",
          "name": "main",
          "type": "uint256"
        },
        {
          "indexed": false,
          "internalType": "uint256",
          "name": "stablecoin",
          "type": "uint256"
        }
      ],
      "name": "Exit",
      "type": "event"
    },
    {
      "anonymous": false,
      "inputs": [
        {
          "indexed": true,
          "internalType": "address",
          "name": "asset",
          "type": "address"
        },
        {
          "indexed": true,
          "internalType": "address",
          "name": "owner",
          "type": "address"
        },
        {
          "indexed": false,
          "internalType": "uint256",
          "name": "main",
          "type": "uint256"
        },
        {
          "indexed": false,
          "internalType": "uint256",
          "name": "stablecoin",
          "type": "uint256"
        }
      ],
      "name": "Join",
      "type": "event"
    },
    {
      "anonymous": false,
      "inputs": [
        {
          "indexed": true,
          "internalType": "address",
          "name": "asset",
          "type": "address"
        },
        {
          "indexed": true,
          "internalType": "address",
          "name": "owner",
          "type": "address"
        }
      ],
      "name": "LiquidationTriggered",
      "type": "event"
    },
    {
      "inputs": [],
      "name": "ACCESS_CONTROL_SINGLETON",
      "outputs": [
        {
          "internalType": "contract ISuAccessControl",
          "name": "",
          "type": "address"
        }
      ],
      "stateMutability": "view",
      "type": "function"
    },
    {
      "inputs": [],
      "name": "LIQUIDATION_ACCESS_ROLE",
      "outputs": [
        {
          "internalType": "bytes32",
          "name": "",
          "type": "bytes32"
        }
      ],
      "stateMutability": "view",
      "type": "function"
    },
    {
      "inputs": [],
      "name": "MINTER_ROLE",
      "outputs": [
        {
          "internalType": "bytes32",
          "name": "",
          "type": "bytes32"
        }
      ],
      "stateMutability": "view",
      "type": "function"
    },
    {
      "inputs": [],
      "name": "VAULT_ACCESS_ROLE",
      "outputs": [
        {
          "internalType": "bytes32",
          "name": "",
          "type": "bytes32"
        }
      ],
      "stateMutability": "view",
      "type": "function"
    },
    {
      "inputs": [],
      "name": "cdpRegistry",
      "outputs": [
        {
          "internalType": "contract ISuCdpRegistry",
          "name": "",
          "type": "address"
        }
      ],
      "stateMutability": "view",
      "type": "function"
    },
    {
      "inputs": [
        {
          "internalType": "address",
          "name": "asset",
          "type": "address"
        },
        {
          "internalType": "uint256",
          "name": "assetAmountEDecimal",
          "type": "uint256"
        },
        {
          "internalType": "uint256",
          "name": "stablecoinAmountE18",
          "type": "uint256"
        }
      ],
      "name": "exit",
      "outputs": [
        {
          "internalType": "uint256",
          "name": "",
          "type": "uint256"
        }
      ],
      "stateMutability": "nonpayable",
      "type": "function"
    },
    {
      "inputs": [
        {
          "internalType": "address",
          "name": "asset",
          "type": "address"
        },
        {
          "internalType": "address",
          "name": "owner",
          "type": "address"
        }
      ],
      "name": "getAvailableToBorrowE18",
      "outputs": [
        {
          "internalType": "uint256",
          "name": "",
          "type": "uint256"
        }
      ],
      "stateMutability": "view",
      "type": "function"
    },
    {
      "inputs": [
        {
          "internalType": "address",
          "name": "asset",
          "type": "address"
        },
        {
          "internalType": "address",
          "name": "owner",
          "type": "address"
        }
      ],
      "name": "getAvailableToWithdrawE18",
      "outputs": [
        {
          "internalType": "uint256",
          "name": "",
          "type": "uint256"
        }
      ],
      "stateMutability": "view",
      "type": "function"
    },
    {
      "inputs": [
        {
          "internalType": "address",
          "name": "asset",
          "type": "address"
        },
        {
          "internalType": "address",
          "name": "owner",
          "type": "address"
        }
      ],
      "name": "getCollateralUsdValueE18",
      "outputs": [
        {
          "internalType": "uint256",
          "name": "",
          "type": "uint256"
        }
      ],
      "stateMutability": "view",
      "type": "function"
    },
    {
      "inputs": [
        {
          "internalType": "address",
          "name": "asset",
          "type": "address"
        },
        {
          "internalType": "address",
          "name": "owner",
          "type": "address"
        }
      ],
      "name": "getLTVE18",
      "outputs": [
        {
          "internalType": "uint256",
          "name": "",
          "type": "uint256"
        }
      ],
      "stateMutability": "view",
      "type": "function"
    },
    {
      "inputs": [
        {
          "internalType": "address",
          "name": "asset",
          "type": "address"
        },
        {
          "internalType": "address",
          "name": "owner",
          "type": "address"
        }
      ],
      "name": "getLiquidationBlock",
      "outputs": [
        {
          "internalType": "uint256",
          "name": "",
          "type": "uint256"
        }
      ],
      "stateMutability": "view",
      "type": "function"
    },
    {
      "inputs": [
        {
          "internalType": "address",
          "name": "asset",
          "type": "address"
        },
        {
          "internalType": "address",
          "name": "owner",
          "type": "address"
        }
      ],
      "name": "getPosition",
      "outputs": [
        {
          "internalType": "uint256",
          "name": "liquidationBlock",
          "type": "uint256"
        },
        {
          "internalType": "uint256",
          "name": "collateralEDecimal",
          "type": "uint256"
        },
        {
          "internalType": "uint256",
          "name": "debtE18",
          "type": "uint256"
        }
      ],
      "stateMutability": "view",
      "type": "function"
    },
    {
      "inputs": [
        {
          "internalType": "address",
          "name": "",
          "type": "address"
        }
      ],
      "name": "initialCollateralRatioE18",
      "outputs": [
        {
          "internalType": "uint256",
          "name": "",
          "type": "uint256"
        }
      ],
      "stateMutability": "view",
      "type": "function"
    },
    {
      "inputs": [
        {
          "internalType": "address",
          "name": "asset",
          "type": "address"
        },
        {
          "internalType": "address",
          "name": "owner",
          "type": "address"
        }
      ],
      "name": "isLiquidatablePosition",
      "outputs": [
        {
          "internalType": "bool",
          "name": "",
          "type": "bool"
        }
      ],
      "stateMutability": "view",
      "type": "function"
    },
    {
      "inputs": [
        {
          "internalType": "address",
          "name": "asset",
          "type": "address"
        },
        {
          "internalType": "uint256",
          "name": "assetAmountEDecimal",
          "type": "uint256"
        },
        {
          "internalType": "uint256",
          "name": "stablecoinAmountE18",
          "type": "uint256"
        }
      ],
      "name": "join",
      "outputs": [],
      "stateMutability": "nonpayable",
      "type": "function"
    },
    {
      "inputs": [
        {
          "internalType": "address",
          "name": "asset",
          "type": "address"
        },
        {
          "internalType": "address",
          "name": "owner",
          "type": "address"
        },
        {
          "internalType": "address",
          "name": "repayer",
          "type": "address"
        },
        {
          "internalType": "uint256",
          "name": "stablecoinsToRepaymentE18",
          "type": "uint256"
        },
        {
          "internalType": "uint256",
          "name": "assetAmountEDecimal",
          "type": "uint256"
        }
      ],
      "name": "liquidate",
      "outputs": [
        {
          "internalType": "bool",
          "name": "destroyed",
          "type": "bool"
        }
      ],
      "stateMutability": "nonpayable",
      "type": "function"
    },
    {
      "inputs": [
        {
          "internalType": "address",
          "name": "asset",
          "type": "address"
        },
        {
          "internalType": "address",
          "name": "owner",
          "type": "address"
        },
        {
          "internalType": "address",
          "name": "repayer",
          "type": "address"
        },
        {
          "internalType": "uint256",
          "name": "repaymentE18",
          "type": "uint256"
        },
        {
          "internalType": "uint256",
          "name": "excessAndFeeE18",
          "type": "uint256"
        },
        {
          "internalType": "uint256",
          "name": "assetAmountEDecimal",
          "type": "uint256"
        }
      ],
      "name": "liquidateAndRepay",
      "outputs": [
        {
          "internalType": "bool",
          "name": "destroyed",
          "type": "bool"
        }
      ],
      "stateMutability": "nonpayable",
      "type": "function"
    },
    {
      "inputs": [
        {
          "internalType": "address",
          "name": "asset",
          "type": "address"
        },
        {
          "internalType": "address",
          "name": "owner",
          "type": "address"
        }
      ],
      "name": "liquidationPriceE18",
      "outputs": [
        {
          "internalType": "uint256",
          "name": "",
          "type": "uint256"
        }
      ],
      "stateMutability": "view",
      "type": "function"
    },
    {
      "inputs": [
        {
          "internalType": "address",
          "name": "",
          "type": "address"
        }
      ],
      "name": "liquidationRatioE18",
      "outputs": [
        {
          "internalType": "uint256",
          "name": "",
          "type": "uint256"
        }
      ],
      "stateMutability": "view",
      "type": "function"
    },
    {
      "inputs": [],
      "name": "managerParameters",
      "outputs": [
        {
          "internalType": "contract ISuManagerParameters",
          "name": "",
          "type": "address"
        }
      ],
      "stateMutability": "view",
      "type": "function"
    },
    {
      "inputs": [],
      "name": "minCollateralInUsdE18",
      "outputs": [
        {
          "internalType": "uint256",
          "name": "",
          "type": "uint256"
        }
      ],
      "stateMutability": "view",
      "type": "function"
    },
    {
      "inputs": [
        {
          "internalType": "address",
          "name": "repayer",
          "type": "address"
        },
        {
          "internalType": "uint256",
          "name": "stablecoinsToRepaymentE18",
          "type": "uint256"
        },
        {
          "internalType": "uint256",
          "name": "stablecoinsToFoundationE18",
          "type": "uint256"
        }
      ],
      "name": "repay",
      "outputs": [],
      "stateMutability": "nonpayable",
      "type": "function"
    },
    {
      "inputs": [
        {
          "internalType": "address",
          "name": "asset",
          "type": "address"
        },
        {
          "internalType": "uint256",
          "name": "stabilityFeeValueE18",
          "type": "uint256"
        },
        {
          "internalType": "uint256",
          "name": "initialCollateralRatioValueE18",
          "type": "uint256"
        },
        {
          "internalType": "uint256",
          "name": "liquidationRatioValueE18",
          "type": "uint256"
        },
        {
          "internalType": "uint256",
          "name": "stablecoinLimitE18",
          "type": "uint256"
        },
        {
          "internalType": "uint256",
          "name": "minCollateralInUsdValueE18",
          "type": "uint256"
        }
      ],
      "name": "setCollateral",
      "outputs": [],
      "stateMutability": "nonpayable",
      "type": "function"
    },
    {
      "inputs": [
        {
          "internalType": "address",
          "name": "asset",
          "type": "address"
        },
        {
          "internalType": "uint256",
          "name": "newValueE18",
          "type": "uint256"
        }
      ],
      "name": "setInitialCollateralRatioE18",
      "outputs": [],
      "stateMutability": "nonpayable",
      "type": "function"
    },
    {
      "inputs": [
        {
          "internalType": "address",
          "name": "asset",
          "type": "address"
        },
        {
          "internalType": "uint256",
          "name": "newValueE18",
          "type": "uint256"
        }
      ],
      "name": "setLiquidationRatioE18",
      "outputs": [],
      "stateMutability": "nonpayable",
      "type": "function"
    },
    {
      "inputs": [
        {
          "internalType": "uint256",
          "name": "newValueE18",
          "type": "uint256"
        }
      ],
      "name": "setMinCollateralInUsdE18",
      "outputs": [],
      "stateMutability": "nonpayable",
      "type": "function"
    },
    {
      "inputs": [],
      "name": "suOracle",
      "outputs": [
        {
          "internalType": "contract ISuOracle",
          "name": "",
          "type": "address"
        }
      ],
      "stateMutability": "view",
      "type": "function"
    },
    {
      "inputs": [
        {
          "internalType": "address",
          "name": "asset",
          "type": "address"
        },
        {
          "internalType": "address",
          "name": "owner",
          "type": "address"
        }
      ],
      "name": "triggerLiquidation",
      "outputs": [],
      "stateMutability": "nonpayable",
      "type": "function"
    },
    {
      "inputs": [
        {
          "internalType": "address",
          "name": "asset",
          "type": "address"
        },
        {
          "internalType": "address",
          "name": "owner",
          "type": "address"
        }
      ],
      "name": "utilizationRatioE18",
      "outputs": [
        {
          "internalType": "uint256",
          "name": "",
          "type": "uint256"
        }
      ],
      "stateMutability": "view",
      "type": "function"
    },
    {
      "inputs": [],
      "name": "vault",
      "outputs": [
        {
          "internalType": "contract ISuVault",
          "name": "",
          "type": "address"
        }
      ],
      "stateMutability": "view",
      "type": "function"
    },
    {
      "inputs": [],
      "name": "vaultParameters",
      "outputs": [
        {
          "internalType": "contract SuVaultParameters",
          "name": "",
          "type": "address"
        }
      ],
      "stateMutability": "view",
      "type": "function"
    },
    {
      "stateMutability": "payable",
      "type": "receive"
    }
  ],
  "transactionHash": "0xac8a5f6623d38a4c48a3498b2c1051dfafa56b581dd9559660527e32787f5152",
  "args": [
    "0x86907dAE821789743750a0cbe2bBC562518DF336",
    "0x492802041d5781FD3e5a1f8DD9C3C481d82Be89D",
    "0x9E7507864681fB896b6FaAB76800b3ef9a9E0360"
  ],
  "numDeployments": 1,
  "solcInputHash": "1acf5fc7213acb073e526533d9983610",
  "bytecode": "0x610100604052674563918244f400006003553480156200001e57600080fd5b5060405162004011380380620040118339810160408190526200004191620001f8565b82806001600160a01b03166303ee9f226040518163ffffffff1660e01b815260040160206040518083038186803b1580156200007c57600080fd5b505afa15801562000091573d6000803e3d6000fd5b505050506040513d601f19601f82011682018060405250810190620000b791906200024b565b600160005560601b6001600160601b031916608052600480546001600160a01b0319166001600160a01b03929092169190911790553080158015906200010557506001600160a01b03821615155b620001575760405162461bcd60e51b815260206004820152601b60248201527f556e69742050726f746f636f6c3a20494e56414c49445f41524753000000000060448201526064015b60405180910390fd5b6001600160a01b038316620001af5760405162461bcd60e51b815260206004820152601760248201527f494e56414c49445f415247533a2053555f4f5241434c4500000000000000000060448201526064016200014e565b600580546001600160a01b039094166001600160a01b0319909416939093179092556001600160601b0319606092831b811660c05292821b831660a052901b1660e0526200028a565b6000806000606084860312156200020d578283fd5b83516200021a8162000271565b60208501519093506200022d8162000271565b6040850151909250620002408162000271565b809150509250925092565b6000602082840312156200025d578081fd5b81516200026a8162000271565b9392505050565b6001600160a01b03811681146200028757600080fd5b50565b60805160601c60a05160601c60c05160601c60e05160601c613bea62000427600039600081816104de0152818161143b015281816119d501528181612848015261304601526000818161030801528181610b1c01528181610d5601528181611c48015281816131bf0152818161325f0152818161339301526134ac0152600081816106e5015281816107570152818161085e0152818161091b01528181610a5d01528181610bd901528181610ca801528181610f70015281816111a9015281816112e2015281816113ba015281816117ed0152818161192601528181611a6e01528181611ba701528181611d4f01528181612104015281816121aa015281816122500152818161235a0152818161245501528181612527015281816125e30152818161268e0152818161276e015281816129c901528181612b2801528181612bc201528181612e1301528181612ea601528181612f48015281816130da01526135680152600081816102450152818161109f015281816114c7015281816116e301528181611dcc01528181611f5b01526128cf0152613bea6000f3fe6080604052600436106101dc5760003560e01c80639077beac11610102578063cf13340411610095578063e6bc046111610064578063e6bc046114610659578063ea36380a14610686578063f3f481df146106a6578063fbfa77cf146106d357600080fd5b8063cf133404146105b1578063d4796d12146105d1578063d5391393146105f1578063dc97e84e1461062557600080fd5b8063ada9e5ad116100d1578063ada9e5ad14610520578063b33dc19014610540578063bb497dcc1461057b578063bbdc95311461059157600080fd5b80639077beac1461048c578063a20f9cb3146104ac578063ab2a2a82146104cc578063aca345ee1461050057600080fd5b80634c9a55501161017a5780636f16cbf7116101495780636f16cbf71461040a5780636f70e66f1461042c57806376b5070c1461044c5780638cd2e0c71461046c57600080fd5b80634c9a55501461038a57806356d8be56146103aa5780636338e4d7146103ca5780636bf12d5f146103ea57600080fd5b80631af3be18116101b65780631af3be18146102f65780631c656c391461032a578063392c0ce71461034a5780634030815e1461036a57600080fd5b806303ee9f2214610233578063134a02dd1461028457806314c376dc146102b457600080fd5b3661022e5760405162461bcd60e51b815260206004820152601960248201527f556e69742050726f746f636f6c3a20524553545249435445440000000000000060448201526064015b60405180910390fd5b600080fd5b34801561023f57600080fd5b506102677f000000000000000000000000000000000000000000000000000000000000000081565b6040516001600160a01b0390911681526020015b60405180910390f35b34801561029057600080fd5b506102a461029f366004613726565b610707565b604051901515815260200161027b565b3480156102c057600080fd5b506102e87fe965846df3dd5b1dfa65f58e31477079e90140e0908b6dd31b5aead5a57cf36581565b60405190815260200161027b565b34801561030257600080fd5b506102677f000000000000000000000000000000000000000000000000000000000000000081565b34801561033657600080fd5b506102e8610345366004613726565b61072b565b34801561035657600080fd5b506102e8610365366004613726565b610816565b34801561037657600080fd5b506102e8610385366004613726565b6108ef565b34801561039657600080fd5b506102e86103a5366004613726565b610a33565b3480156103b657600080fd5b506102e86103c5366004613726565b610ae0565b3480156103d657600080fd5b506102e86103e5366004613726565b610c7c565b3480156103f657600080fd5b506102a46104053660046137ac565b611006565b34801561041657600080fd5b5061042a61042536600461380a565b6114ab565b005b34801561043857600080fd5b506102a4610447366004613758565b61164a565b34801561045857600080fd5b506102e8610467366004613726565b611a42565b34801561047857600080fd5b5061042a610487366004613833565b611cff565b34801561049857600080fd5b5061042a6104a736600461380a565b611db0565b3480156104b857600080fd5b50600554610267906001600160a01b031681565b3480156104d857600080fd5b506102677f000000000000000000000000000000000000000000000000000000000000000081565b34801561050c57600080fd5b50600454610267906001600160a01b031681565b34801561052c57600080fd5b5061042a61053b366004613865565b611f3f565b34801561054c57600080fd5b5061056061055b366004613726565b6120d6565b6040805193845260208401929092529082015260600161027b565b34801561058757600080fd5b506102e860035481565b34801561059d57600080fd5b506102e86105ac366004613833565b6122d5565b3480156105bd57600080fd5b5061042a6105cc3660046138ce565b6128b3565b3480156105dd57600080fd5b5061042a6105ec366004613726565b6129a2565b3480156105fd57600080fd5b506102e87f9f2df0fed2c77648de5860a4cc508cd0818c85b8b8a1ab4ceeef8d981c8956a681565b34801561063157600080fd5b506102e87f9a9aef7c1247d5fc769b0185c052913e39673da29a880317dfd20ebf86f26a4981565b34801561066557600080fd5b506102e861067436600461370c565b60026020526000908152604090205481565b34801561069257600080fd5b5061042a6106a1366004613833565b612c5d565b3480156106b257600080fd5b506102e86106c136600461370c565b60016020526000908152604090205481565b3480156106df57600080fd5b506102677f000000000000000000000000000000000000000000000000000000000000000081565b60008061071484846108ef565b90506107218484836130ae565b9150505b92915050565b60405163a6ea8b8760e01b81526001600160a01b038381166004830152828116602483015260009182917f0000000000000000000000000000000000000000000000000000000000000000169063a6ea8b879060440160206040518083038186803b15801561079957600080fd5b505afa1580156107ad573d6000803e3d6000fd5b505050506040513d601f19601f820116820180604052508101906107d191906138e6565b9050806107e2576000915050610725565b60006107ee85856108ef565b90508061080383670de0b6b3a7640000613acc565b61080d91906139be565b95945050505050565b60008061082384846108ef565b905080610834576000915050610725565b604051636aee125d60e11b81526001600160a01b03858116600483015284811660248301526000917f00000000000000000000000000000000000000000000000000000000000000009091169063d5dc24ba9060440160206040518083038186803b1580156108a257600080fd5b505afa1580156108b6573d6000803e3d6000fd5b505050506040513d601f19601f820116820180604052508101906108da91906138e6565b90508161080382670de0b6b3a7640000613acc565b6040516334e3b77960e01b81526001600160a01b038381166004830152828116602483015260009182917f000000000000000000000000000000000000000000000000000000000000000016906334e3b7799060440160206040518083038186803b15801561095d57600080fd5b505afa158015610971573d6000803e3d6000fd5b505050506040513d601f19601f8201168201806040525081019061099591906138e6565b6005546040516306addfb360e31b81526001600160a01b038781166004830152929350670de0b6b3a7640000928492169063356efd989060240160206040518083038186803b1580156109e757600080fd5b505afa1580156109fb573d6000803e3d6000fd5b505050506040513d601f19601f82011682018060405250810190610a1f91906138e6565b610a299190613acc565b61072191906139be565b604051631ce4b4a760e01b81526001600160a01b03838116600483015282811660248301526000917f000000000000000000000000000000000000000000000000000000000000000090911690631ce4b4a79060440160206040518083038186803b158015610aa157600080fd5b505afa158015610ab5573d6000803e3d6000fd5b505050506040513d601f19601f82011682018060405250810190610ad991906138e6565b9392505050565b600080610aed84846108ef565b60405163f3f481df60e01b81526001600160a01b038681166004830152919250600091670de0b6b3a7640000917f00000000000000000000000000000000000000000000000000000000000000009091169063f3f481df9060240160206040518083038186803b158015610b6057600080fd5b505afa158015610b74573d6000803e3d6000fd5b505050506040513d601f19601f82011682018060405250810190610b9891906138e6565b610ba29084613acc565b610bac91906139be565b60405163a6ea8b8760e01b81526001600160a01b03878116600483015286811660248301529192506000917f0000000000000000000000000000000000000000000000000000000000000000169063a6ea8b879060440160206040518083038186803b158015610c1b57600080fd5b505afa158015610c2f573d6000803e3d6000fd5b505050506040513d601f19601f82011682018060405250810190610c5391906138e6565b9050808211610c685760009350505050610725565b610c728183613aeb565b9695505050505050565b60405163a6ea8b8760e01b81526001600160a01b038381166004830152828116602483015260009182917f0000000000000000000000000000000000000000000000000000000000000000169063a6ea8b879060440160206040518083038186803b158015610cea57600080fd5b505afa158015610cfe573d6000803e3d6000fd5b505050506040513d601f19601f82011682018060405250810190610d2291906138e6565b905080610d3457600019915050610725565b60405163e6bc046160e01b81526001600160a01b0385811660048301526000917f00000000000000000000000000000000000000000000000000000000000000009091169063e6bc04619060240160206040518083038186803b158015610d9a57600080fd5b505afa158015610dae573d6000803e3d6000fd5b505050506040513d601f19601f82011682018060405250810190610dd291906138e6565b610de483670de0b6b3a7640000613acc565b610dee91906139be565b90506012856001600160a01b031663313ce5676040518163ffffffff1660e01b815260040160206040518083038186803b158015610e2b57600080fd5b505afa158015610e3f573d6000803e3d6000fd5b505050506040513d601f19601f82011682018060405250810190610e6391906138fe565b60ff161115610ec25760405162461bcd60e51b815260206004820152602560248201527f556e69742050726f746f636f6c3a204e4f545f535550504f525445445f444543604482015264494d414c5360d81b6064820152608401610225565b846001600160a01b031663313ce5676040518163ffffffff1660e01b815260040160206040518083038186803b158015610efb57600080fd5b505afa158015610f0f573d6000803e3d6000fd5b505050506040513d601f19601f82011682018060405250810190610f3391906138fe565b610f3e906012613b02565b610f4990600a613a21565b6040516334e3b77960e01b81526001600160a01b03878116600483015286811660248301527f000000000000000000000000000000000000000000000000000000000000000016906334e3b7799060440160206040518083038186803b158015610fb257600080fd5b505afa158015610fc6573d6000803e3d6000fd5b505050506040513d601f19601f82011682018060405250810190610fea91906138e6565b610ffc83670de0b6b3a7640000613acc565b61080391906139be565b60006002600054141561105b5760405162461bcd60e51b815260206004820152601f60248201527f5265656e7472616e637947756172643a207265656e7472616e742063616c6c006044820152606401610225565b6002600055604051632474521560e21b81527f9a9aef7c1247d5fc769b0185c052913e39673da29a880317dfd20ebf86f26a496004820152336024820152879087907f00000000000000000000000000000000000000000000000000000000000000006001600160a01b0316906391d148549060440160206040518083038186803b1580156110e957600080fd5b505afa1580156110fd573d6000803e3d6000fd5b505050506040513d601f19601f8201168201806040525081019061112191906138ae565b61117f5760405162461bcd60e51b815260206004820152602960248201527f5375417574683a206f6e6c794c69717569646174696f6e416363657373204155604482015268151217d1905253115160ba1b6064820152608401610225565b604051631ce4b4a760e01b81526001600160a01b038a8116600483015289811660248301526000917f000000000000000000000000000000000000000000000000000000000000000090911690631ce4b4a79060440160206040518083038186803b1580156111ed57600080fd5b505afa158015611201573d6000803e3d6000fd5b505050506040513d601f19601f8201168201806040525081019061122591906138e6565b116112825760405162461bcd60e51b815260206004820152602760248201527f556e69742050726f746f636f6c3a204e4f545f4c49515549444154494e475f5060448201526627a9a4aa24a7a760c91b6064820152608401610225565b6112a56040518060600160405280602e8152602001613b62602e91398588613301565b604051636f70e66f60e01b81526001600160a01b038a811660048301528981166024830152888116604483015260648201869052608482018890527f00000000000000000000000000000000000000000000000000000000000000001690636f70e66f9060a401602060405180830381600087803b15801561132657600080fd5b505af115801561133a573d6000803e3d6000fd5b505050506040513d601f19601f8201168201806040525081019061135e91906138ae565b925061136a893361337b565b61138d604051806060016040528060268152602001613b3c602691398787613301565b604051638cd2e0c760e01b81526001600160a01b03888116600483015260248201889052604482018790527f00000000000000000000000000000000000000000000000000000000000000001690638cd2e0c790606401600060405180830381600087803b1580156113fe57600080fd5b505af1158015611412573d6000803e3d6000fd5b5050604051632ed56dff60e21b81526001600160a01b03858116600483015284811660248301527f000000000000000000000000000000000000000000000000000000000000000016925063bb55b7fc9150604401600060405180830381600087803b15801561148157600080fd5b505af1158015611495573d6000803e3d6000fd5b5050600160005550929998505050505050505050565b604051632474521560e21b8152600060048201523360248201527f00000000000000000000000000000000000000000000000000000000000000006001600160a01b0316906391d148549060440160206040518083038186803b15801561151157600080fd5b505afa158015611525573d6000803e3d6000fd5b505050506040513d601f19601f8201168201806040525081019061154991906138ae565b6115955760405162461bcd60e51b815260206004820152601d60248201527f5375417574683a206f6e6c794f776e657220415554485f4641494c45440000006044820152606401610225565b80158015906115bc57506001600160a01b0382166000908152600160205260409020548110155b61162e5760405162461bcd60e51b815260206004820152603060248201527f556e69742050726f746f636f6c3a20494e434f52524543545f434f4c4c41544560448201527f52414c495a4154494f4e5f56414c5545000000000000000000000000000000006064820152608401610225565b6001600160a01b03909116600090815260026020526040902055565b60006002600054141561169f5760405162461bcd60e51b815260206004820152601f60248201527f5265656e7472616e637947756172643a207265656e7472616e742063616c6c006044820152606401610225565b6002600055604051632474521560e21b81527f9a9aef7c1247d5fc769b0185c052913e39673da29a880317dfd20ebf86f26a496004820152336024820152869086907f00000000000000000000000000000000000000000000000000000000000000006001600160a01b0316906391d148549060440160206040518083038186803b15801561172d57600080fd5b505afa158015611741573d6000803e3d6000fd5b505050506040513d601f19601f8201168201806040525081019061176591906138ae565b6117c35760405162461bcd60e51b815260206004820152602960248201527f5375417574683a206f6e6c794c69717569646174696f6e416363657373204155604482015268151217d1905253115160ba1b6064820152608401610225565b604051631ce4b4a760e01b81526001600160a01b03898116600483015288811660248301526000917f000000000000000000000000000000000000000000000000000000000000000090911690631ce4b4a79060440160206040518083038186803b15801561183157600080fd5b505afa158015611845573d6000803e3d6000fd5b505050506040513d601f19601f8201168201806040525081019061186991906138e6565b116118c65760405162461bcd60e51b815260206004820152602760248201527f556e69742050726f746f636f6c3a204e4f545f4c49515549444154494e475f5060448201526627a9a4aa24a7a760c91b6064820152608401610225565b6118e96040518060600160405280602e8152602001613b62602e91398587613301565b604051636f70e66f60e01b81526001600160a01b0389811660048301528881166024830152878116604483015260648201869052608482018790527f00000000000000000000000000000000000000000000000000000000000000001690636f70e66f9060a401602060405180830381600087803b15801561196a57600080fd5b505af115801561197e573d6000803e3d6000fd5b505050506040513d601f19601f820116820180604052508101906119a291906138ae565b92506119ae883361337b565b604051632ed56dff60e21b81526001600160a01b03838116600483015282811660248301527f0000000000000000000000000000000000000000000000000000000000000000169063bb55b7fc90604401600060405180830381600087803b158015611a1957600080fd5b505af1158015611a2d573d6000803e3d6000fd5b50506001600055509298975050505050505050565b6040516334e3b77960e01b81526001600160a01b038381166004830152828116602483015260009182917f000000000000000000000000000000000000000000000000000000000000000016906334e3b7799060440160206040518083038186803b158015611ab057600080fd5b505afa158015611ac4573d6000803e3d6000fd5b505050506040513d601f19601f82011682018060405250810190611ae891906138e6565b6005546040516306addfb360e31b81526001600160a01b0387811660048301529293506000929091169063356efd989060240160206040518083038186803b158015611b3357600080fd5b505afa158015611b47573d6000803e3d6000fd5b505050506040513d601f19601f82011682018060405250810190611b6b91906138e6565b905080611b7d57600092505050610725565b604051636aee125d60e11b81526001600160a01b03868116600483015285811660248301526000917f00000000000000000000000000000000000000000000000000000000000000009091169063d5dc24ba9060440160206040518083038186803b158015611beb57600080fd5b505afa158015611bff573d6000803e3d6000fd5b505050506040513d601f19601f82011682018060405250810190611c2391906138e6565b60405163f3f481df60e01b81526001600160a01b0388811660048301529192506000917f0000000000000000000000000000000000000000000000000000000000000000169063f3f481df9060240160206040518083038186803b158015611c8a57600080fd5b505afa158015611c9e573d6000803e3d6000fd5b505050506040513d601f19601f82011682018060405250810190611cc291906138e6565b611ccc9084613acc565b611cde83670de0b6b3a7640000613acc565b611ce891906139be565b9050611cf48185613aeb565b979650505050505050565b611d22604051806060016040528060258152602001613b90602591398383613301565b604051638cd2e0c760e01b81526001600160a01b03848116600483015260248201849052604482018390527f00000000000000000000000000000000000000000000000000000000000000001690638cd2e0c790606401600060405180830381600087803b158015611d9357600080fd5b505af1158015611da7573d6000803e3d6000fd5b50505050505050565b604051632474521560e21b8152600060048201523360248201527f00000000000000000000000000000000000000000000000000000000000000006001600160a01b0316906391d148549060440160206040518083038186803b158015611e1657600080fd5b505afa158015611e2a573d6000803e3d6000fd5b505050506040513d601f19601f82011682018060405250810190611e4e91906138ae565b611e9a5760405162461bcd60e51b815260206004820152601d60248201527f5375417574683a206f6e6c794f776e657220415554485f4641494c45440000006044820152606401610225565b8015801590611eb15750670de0b6b3a76400008111155b611f235760405162461bcd60e51b815260206004820152603060248201527f556e69742050726f746f636f6c3a20494e434f52524543545f434f4c4c41544560448201527f52414c495a4154494f4e5f56414c5545000000000000000000000000000000006064820152608401610225565b6001600160a01b03909116600090815260016020526040902055565b604051632474521560e21b8152600060048201523360248201527f00000000000000000000000000000000000000000000000000000000000000006001600160a01b0316906391d148549060440160206040518083038186803b158015611fa557600080fd5b505afa158015611fb9573d6000803e3d6000fd5b505050506040513d601f19601f82011682018060405250810190611fdd91906138ae565b6120295760405162461bcd60e51b815260206004820152601d60248201527f5375417574683a206f6e6c794f776e657220415554485f4641494c45440000006044820152606401610225565b600480546040517f9fea3e070000000000000000000000000000000000000000000000000000000081526001600160a01b03898116938201939093526024810188905260448101859052911690639fea3e0790606401600060405180830381600087803b15801561209957600080fd5b505af11580156120ad573d6000803e3d6000fd5b505050506120bb8685611db0565b6120c586846114ab565b6120ce816128b3565b505050505050565b604051631ce4b4a760e01b81526001600160a01b0383811660048301528281166024830152600091829182917f000000000000000000000000000000000000000000000000000000000000000090911690631ce4b4a79060440160206040518083038186803b15801561214857600080fd5b505afa15801561215c573d6000803e3d6000fd5b505050506040513d601f19601f8201168201806040525081019061218091906138e6565b6040516334e3b77960e01b81526001600160a01b03878116600483015286811660248301529194507f0000000000000000000000000000000000000000000000000000000000000000909116906334e3b7799060440160206040518083038186803b1580156121ee57600080fd5b505afa158015612202573d6000803e3d6000fd5b505050506040513d601f19601f8201168201806040525081019061222691906138e6565b604051636aee125d60e11b81526001600160a01b03878116600483015286811660248301529193507f00000000000000000000000000000000000000000000000000000000000000009091169063d5dc24ba9060440160206040518083038186803b15801561229457600080fd5b505afa1580156122a8573d6000803e3d6000fd5b505050506040513d601f19601f820116820180604052508101906122cc91906138e6565b90509250925092565b60006002600054141561232a5760405162461bcd60e51b815260206004820152601f60248201527f5265656e7472616e637947756172643a207265656e7472616e742063616c6c006044820152606401610225565b6002600055604051631ce4b4a760e01b81526001600160a01b0380861660048301523360248301819052869290917f00000000000000000000000000000000000000000000000000000000000000001690631ce4b4a79060440160206040518083038186803b15801561239c57600080fd5b505afa1580156123b0573d6000803e3d6000fd5b505050506040513d601f19601f820116820180604052508101906123d491906138e6565b1561242d5760405162461bcd60e51b815260206004820152602360248201527f556e69742050726f746f636f6c3a204c49515549444154494e475f504f53495460448201526224a7a760e91b6064820152608401610225565b604051636aee125d60e11b81526001600160a01b0387811660048301523360248301526000917f00000000000000000000000000000000000000000000000000000000000000009091169063d5dc24ba9060440160206040518083038186803b15801561249957600080fd5b505afa1580156124ad573d6000803e3d6000fd5b505050506040513d601f19601f820116820180604052508101906124d191906138e6565b9050808511156124df578094505b6040517f34c188b00000000000000000000000000000000000000000000000000000000081526001600160a01b038881166004830152336024830152604482018790526000917f0000000000000000000000000000000000000000000000000000000000000000909116906334c188b09060640160206040518083038186803b15801561256b57600080fd5b505afa15801561257f573d6000803e3d6000fd5b505050506040513d601f19601f820116820180604052508101906125a391906138e6565b604051636f70e66f60e01b81526001600160a01b038a8116600483015233602483018190526044830152606482018a9052608482018990529192506000917f00000000000000000000000000000000000000000000000000000000000000001690636f70e66f9060a401602060405180830381600087803b15801561262757600080fd5b505af115801561263b573d6000803e3d6000fd5b505050506040513d601f19601f8201168201806040525081019061265f91906138ae565b905061266b893361337b565b604051638cd2e0c760e01b815233600482015260248101889052604481018390527f00000000000000000000000000000000000000000000000000000000000000006001600160a01b031690638cd2e0c790606401600060405180830381600087803b1580156126da57600080fd5b505af11580156126ee573d6000803e3d6000fd5b50505050801561274957604080518981526020810189905233916001600160a01b038c16917f4bd704811146c45cfd9276261817324e0acc0b5eaa458b21a0740367dc37cdb8910160405180910390a3869550505050612821565b60405163c640752d60e01b81526001600160a01b038a811660048301523360248301527f0000000000000000000000000000000000000000000000000000000000000000169063c640752d90604401600060405180830381600087803b1580156127b257600080fd5b505af11580156127c6573d6000803e3d6000fd5b505050506127d48933613471565b604080518981526020810189905233916001600160a01b038c16917fa702ae6024e8b4c2b0eb162b1453dacb93cf6922f5a2d7236faed898c21148f8910160405180910390a38695505050505b604051632ed56dff60e21b81526001600160a01b03838116600483015282811660248301527f0000000000000000000000000000000000000000000000000000000000000000169063bb55b7fc90604401600060405180830381600087803b15801561288c57600080fd5b505af11580156128a0573d6000803e3d6000fd5b5050600160005550929695505050505050565b604051632474521560e21b8152600060048201523360248201527f00000000000000000000000000000000000000000000000000000000000000006001600160a01b0316906391d148549060440160206040518083038186803b15801561291957600080fd5b505afa15801561292d573d6000803e3d6000fd5b505050506040513d601f19601f8201168201806040525081019061295191906138ae565b61299d5760405162461bcd60e51b815260206004820152601d60248201527f5375417574683a206f6e6c794f776e657220415554485f4641494c45440000006044820152606401610225565b600355565b604051631ce4b4a760e01b81526001600160a01b03838116600483015282811660248301527f00000000000000000000000000000000000000000000000000000000000000001690631ce4b4a79060440160206040518083038186803b158015612a0b57600080fd5b505afa158015612a1f573d6000803e3d6000fd5b505050506040513d601f19601f82011682018060405250810190612a4391906138e6565b15612a9c5760405162461bcd60e51b815260206004820152602360248201527f556e69742050726f746f636f6c3a204c49515549444154494e475f504f53495460448201526224a7a760e91b6064820152608401610225565b6000612aa883836108ef565b9050612ab58383836130ae565b612b015760405162461bcd60e51b815260206004820152601c60248201527f556e69742050726f746f636f6c3a20534146455f504f534954494f4e000000006044820152606401610225565b60405163c640752d60e01b81526001600160a01b03848116600483015283811660248301527f0000000000000000000000000000000000000000000000000000000000000000169063c640752d90604401600060405180830381600087803b158015612b6c57600080fd5b505af1158015612b80573d6000803e3d6000fd5b50506040517fd4796d120000000000000000000000000000000000000000000000000000000081526001600160a01b03868116600483015285811660248301527f000000000000000000000000000000000000000000000000000000000000000016925063d4796d129150604401600060405180830381600087803b158015612c0857600080fd5b505af1158015612c1c573d6000803e3d6000fd5b50506040516001600160a01b038086169350861691507f5b79a897d30813a62a1f95ba180d3320d3701d96605708b81105e00719a069e490600090a3505050565b60026000541415612cb05760405162461bcd60e51b815260206004820152601f60248201527f5265656e7472616e637947756172643a207265656e7472616e742063616c6c006044820152606401610225565b6002600055823382151580612cc457508315155b612d105760405162461bcd60e51b815260206004820152601960248201527f556e69742050726f746f636f6c3a205553454c4553535f5458000000000000006044820152606401610225565b6012856001600160a01b031663313ce5676040518163ffffffff1660e01b815260040160206040518083038186803b158015612d4b57600080fd5b505afa158015612d5f573d6000803e3d6000fd5b505050506040513d601f19601f82011682018060405250810190612d8391906138fe565b60ff161115612de25760405162461bcd60e51b815260206004820152602560248201527f556e69742050726f746f636f6c3a204e4f545f535550504f525445445f444543604482015264494d414c5360d81b6064820152608401610225565b82612e7457604051638340f54960e01b81526001600160a01b038681166004830152336024830152604482018690527f00000000000000000000000000000000000000000000000000000000000000001690638340f54990606401600060405180830381600087803b158015612e5757600080fd5b505af1158015612e6b573d6000803e3d6000fd5b50505050612fcf565b8315612f0357604051638340f54960e01b81526001600160a01b038681166004830152336024830152604482018690527f00000000000000000000000000000000000000000000000000000000000000001690638340f54990606401600060405180830381600087803b158015612eea57600080fd5b505af1158015612efe573d6000803e3d6000fd5b505050505b6040517f5224372c0000000000000000000000000000000000000000000000000000000081526001600160a01b038681166004830152336024830152604482018590527f00000000000000000000000000000000000000000000000000000000000000001690635224372c90606401602060405180830381600087803b158015612f8c57600080fd5b505af1158015612fa0573d6000803e3d6000fd5b505050506040513d601f19601f82011682018060405250810190612fc491906138e6565b50612fcf8533613471565b612fd9853361337b565b604080518581526020810185905233916001600160a01b038816917f6423b6056e64b3b29cb2d342362b47c26fa8d6877da27ea152354060df19b9bc910160405180910390a3604051632ed56dff60e21b81526001600160a01b03838116600483015282811660248301527f0000000000000000000000000000000000000000000000000000000000000000169063bb55b7fc90604401600060405180830381600087803b15801561308a57600080fd5b505af115801561309e573d6000803e3d6000fd5b5050600160005550505050505050565b60405163a6ea8b8760e01b81526001600160a01b038481166004830152838116602483015260009182917f0000000000000000000000000000000000000000000000000000000000000000169063a6ea8b879060440160206040518083038186803b15801561311c57600080fd5b505afa158015613130573d6000803e3d6000fd5b505050506040513d601f19601f8201168201806040525081019061315491906138e6565b905080613165576000915050610ad9565b604080518082018252600581527f4c494d49540000000000000000000000000000000000000000000000000000006020820152905163e6bc046160e01b81526001600160a01b0387811660048301526132409291849187917f00000000000000000000000000000000000000000000000000000000000000009091169063e6bc04619060240160206040518083038186803b15801561320357600080fd5b505afa158015613217573d6000803e3d6000fd5b505050506040513d601f19601f8201168201806040525081019061323b91906138e6565b61365c565b60405163e6bc046160e01b81526001600160a01b0386811660048301527f0000000000000000000000000000000000000000000000000000000000000000169063e6bc04619060240160206040518083038186803b1580156132a157600080fd5b505afa1580156132b5573d6000803e3d6000fd5b505050506040513d601f19601f820116820180604052508101906132d991906138e6565b836132ec83670de0b6b3a7640000613acc565b6132f691906139be565b101595945050505050565b6133768383836040516024016133199392919061396a565b60408051601f198184030181529190526020810180517bffffffffffffffffffffffffffffffffffffffffffffffffffffffff167f969cdd03000000000000000000000000000000000000000000000000000000001790526136cf565b505050565b600061338783836108ef565b905080158061342557507f00000000000000000000000000000000000000000000000000000000000000006001600160a01b031663bb497dcc6040518163ffffffff1660e01b815260040160206040518083038186803b1580156133ea57600080fd5b505afa1580156133fe573d6000803e3d6000fd5b505050506040513d601f19601f8201168201806040525081019061342291906138e6565b81115b6133765760405162461bcd60e51b815260206004820152601f60248201527f556e69742050726f746f636f6c3a20534d414c4c5f434f4c4c41544552414c006044820152606401610225565b600061347d83836108ef565b60405163f3f481df60e01b81526001600160a01b038581166004830152919250600091670de0b6b3a7640000917f00000000000000000000000000000000000000000000000000000000000000009091169063f3f481df9060240160206040518083038186803b1580156134f057600080fd5b505afa158015613504573d6000803e3d6000fd5b505050506040513d601f19601f8201168201806040525081019061352891906138e6565b6135329084613acc565b61353c91906139be565b60405163a6ea8b8760e01b81526001600160a01b038681166004830152858116602483015291925082917f0000000000000000000000000000000000000000000000000000000000000000169063a6ea8b879060440160206040518083038186803b1580156135aa57600080fd5b505afa1580156135be573d6000803e3d6000fd5b505050506040513d601f19601f820116820180604052508101906135e291906138e6565b11156136565760405162461bcd60e51b815260206004820152602260248201527f556e69742050726f746f636f6c3a20554e444552434f4c4c41544552414c495a60448201527f45440000000000000000000000000000000000000000000000000000000000006064820152608401610225565b50505050565b61365684848484604051602401613676949392919061398f565b60408051601f198184030181529190526020810180517bffffffffffffffffffffffffffffffffffffffffffffffffffffffff167f08ee5666000000000000000000000000000000000000000000000000000000001790525b80516a636f6e736f6c652e6c6f67602083016000808483855afa5050505050565b80356001600160a01b038116811461370757600080fd5b919050565b60006020828403121561371d578081fd5b610ad9826136f0565b60008060408385031215613738578081fd5b613741836136f0565b915061374f602084016136f0565b90509250929050565b600080600080600060a0868803121561376f578081fd5b613778866136f0565b9450613786602087016136f0565b9350613794604087016136f0565b94979396509394606081013594506080013592915050565b60008060008060008060c087890312156137c4578081fd5b6137cd876136f0565b95506137db602088016136f0565b94506137e9604088016136f0565b9350606087013592506080870135915060a087013590509295509295509295565b6000806040838503121561381c578182fd5b613825836136f0565b946020939093013593505050565b600080600060608486031215613847578283fd5b613850846136f0565b95602085013595506040909401359392505050565b60008060008060008060c0878903121561387d578182fd5b613886876136f0565b9860208801359850604088013597606081013597506080810135965060a00135945092505050565b6000602082840312156138bf578081fd5b81518015158114610ad9578182fd5b6000602082840312156138df578081fd5b5035919050565b6000602082840312156138f7578081fd5b5051919050565b60006020828403121561390f578081fd5b815160ff81168114610ad9578182fd5b60008151808452815b8181101561394457602081850181015186830182015201613928565b818111156139555782602083870101525b50601f01601f19169290920160200192915050565b60608152600061397d606083018661391f565b60208301949094525060400152919050565b6080815260006139a2608083018761391f565b6020830195909552506040810192909252606090910152919050565b6000826139d957634e487b7160e01b81526012600452602481fd5b500490565b600181815b80851115613a195781600019048211156139ff576139ff613b25565b80851615613a0c57918102915b93841c93908002906139e3565b509250929050565b6000610ad960ff841683600082613a3a57506001610725565b81613a4757506000610725565b8160018114613a5d5760028114613a6757613a83565b6001915050610725565b60ff841115613a7857613a78613b25565b50506001821b610725565b5060208310610133831016604e8410600b8410161715613aa6575081810a610725565b613ab083836139de565b8060001904821115613ac457613ac4613b25565b029392505050565b6000816000190483118215151615613ae657613ae6613b25565b500290565b600082821015613afd57613afd613b25565b500390565b600060ff821660ff841680821015613b1c57613b1c613b25565b90039392505050565b634e487b7160e01b600052601160045260246000fdfe5245504159207265706179202872657061796d656e742c20657863657373416e64466565293a4c4951554944415445206c697175696461746520286173736574416d6f756e742c2072657061796d656e74293a205245504159207265706179202872657061796d656e742c20746f466f6e646174696f6e293aa26469706673582212205cf6ea7180a00a8370d1758e987c1e6c8f87f0d01739abedc8174c952d692c8964736f6c63430008040033",
  "devdoc": {
    "events": {
      "Buyout(address,address,address,uint256,uint256)": {
        "details": "Trigger when buyouts are happened*"
      }
    },
    "kind": "dev",
    "methods": {
      "getLiquidationBlock(address,address)": {
        "params": {
          "asset": "The address of the main collateral token of a position",
          "owner": "The owner of the collateral"
        },
        "returns": {
          "_0": "liquidationBlock The block number when the liquidation was triggered"
        }
      },
      "getPosition(address,address)": {
        "details": "TODO: should rename to getPositionInfo()",
        "params": {
          "asset": "The address of the main collateral token of a position",
          "owner": "The owner of the collateral"
        },
        "returns": {
          "collateralEDecimal": "The amount of collateral",
          "debtE18": "The amount of borrowed stablecoins",
          "liquidationBlock": "The block number when the liquidation was triggered"
        }
      },
      "liquidate(address,address,address,uint256,uint256)": {
        "details": "Supports a partial liquidation",
        "params": {
          "asset": "The address of the main collateral token of a position",
          "assetAmountEDecimal": "The position's collateral which be recieved by repayer",
          "owner": "The owner of the collateral",
          "repayer": "The person who repaies by debt and transfers stablecoins to the foundation",
          "stablecoinsToRepaymentE18": "The amount of stablecoins which will be burned as a debt repaymention"
        },
        "returns": {
          "destroyed": "Returns \"true\" if the position completely liquidated"
        }
      },
      "liquidateAndRepay(address,address,address,uint256,uint256,uint256)": {
        "details": "Supports a partial liquidation",
        "params": {
          "asset": "The address of the main collateral token of a position",
          "assetAmountEDecimal": "The position's collateral which be recieved by repayer",
          "excessAndFeeE18": "The amount of stablecoins which transfer to foundation",
          "owner": "The owner of a position",
          "repayer": "The person who repaies by debt and recieves a position's collateral",
          "repaymentE18": "The amount of repayment"
        },
        "returns": {
          "destroyed": "Returns \"true\" if the position completely liquidated"
        }
      },
      "repay(address,uint256,uint256)": {
        "params": {
          "repayer": "The person who repaies by debt and transfers stablecoins to the foundation",
          "stablecoinsToFoundationE18": "The amount of stablecoins which will be transfered to the foundation",
          "stablecoinsToRepaymentE18": "The amount of stablecoins which will be burned as a debt repayment"
        }
      },
      "setInitialCollateralRatioE18(address,uint256)": {
        "details": "Sets the initial collateral ratio",
        "params": {
          "asset": "The address of the main collateral token",
          "newValueE18": "The collateralization ratio (1e18 = 100%)*"
        }
      },
      "setLiquidationRatioE18(address,uint256)": {
        "details": "Sets the liquidation ratio",
        "params": {
          "asset": "The address of the main collateral token",
          "newValueE18": "The liquidation ratio (1e18 = 100%)*"
        }
      },
      "setMinCollateralInUsdE18(uint256)": {
        "details": "Sets a minimum value of collateral in USD which allowed to be left after partial closure",
        "params": {
          "newValueE18": "The minimum value of collateral in USD"
        }
      },
      "triggerLiquidation(address,address)": {
        "details": "Emits LiquidationTriggered event. Sets the current block as liquidationBlock for the position. Can be triggered only once for the position."
      }
    },
    "version": 1
  },
  "userdoc": {
    "kind": "user",
    "methods": {
      "getAvailableToBorrowE18(address,address)": {
        "notice": "Returns Available to Borrow we have invariant: (collateralAmountEDecimal * collateralPriceE18 / 1e18) * initialCollateralRatioE18 <= debtE18 Has similar logic like in _ensurePositionCollateralization"
      },
      "getAvailableToWithdrawE18(address,address)": {
        "notice": "Returns Available to Withdraw Has similar invariant like in getAvailableToBorrowE18"
      },
      "getLTVE18(address,address)": {
        "notice": "Returns Loan-To-Value in e18"
      },
      "getLiquidationBlock(address,address)": {
        "notice": "Returns information about a liquidating position"
      },
      "getPosition(address,address)": {
        "notice": "Returns information about a liquidating position"
      },
      "join(address,uint256,uint256)": {
        "notice": "Yes,"
      },
      "liquidate(address,address,address,uint256,uint256)": {
        "notice": "Liquidates a position"
      },
      "liquidateAndRepay(address,address,address,uint256,uint256,uint256)": {
        "notice": "please see https://ratiofinance.medium.com/ratio-risk-lesson-2-cascading-liquidations-e91e04050f47Liquidates a position's collateral completely"
      },
      "repay(address,uint256,uint256)": {
        "notice": "Finilizes the liquidation"
      },
      "setInitialCollateralRatioE18(address,uint256)": {
        "notice": "Only manager is able to call this function"
      },
      "setLiquidationRatioE18(address,uint256)": {
        "notice": "Only manager is able to call this function"
      },
      "setMinCollateralInUsdE18(uint256)": {
        "notice": "Only manager is able to call this function"
      }
    },
    "notice": "not sure why",
    "version": 1
  },
  "storageLayout": {
    "storage": [
      {
        "astId": 543,
        "contract": "contracts/lending/SuManager.sol:SuManager",
        "label": "_status",
        "offset": 0,
        "slot": "0",
        "type": "t_uint256"
      },
      {
        "astId": 7326,
        "contract": "contracts/lending/SuManager.sol:SuManager",
        "label": "initialCollateralRatioE18",
        "offset": 0,
        "slot": "1",
        "type": "t_mapping(t_address,t_uint256)"
      },
      {
        "astId": 7330,
        "contract": "contracts/lending/SuManager.sol:SuManager",
        "label": "liquidationRatioE18",
        "offset": 0,
        "slot": "2",
        "type": "t_mapping(t_address,t_uint256)"
      },
      {
        "astId": 7335,
        "contract": "contracts/lending/SuManager.sol:SuManager",
        "label": "minCollateralInUsdE18",
        "offset": 0,
        "slot": "3",
        "type": "t_uint256"
      },
      {
        "astId": 7338,
        "contract": "contracts/lending/SuManager.sol:SuManager",
        "label": "vaultParameters",
        "offset": 0,
        "slot": "4",
        "type": "t_contract(SuVaultParameters)8385"
      },
      {
        "astId": 6255,
        "contract": "contracts/lending/SuManager.sol:SuManager",
        "label": "suOracle",
        "offset": 0,
        "slot": "5",
        "type": "t_contract(ISuOracle)5114"
      }
    ],
    "types": {
      "t_address": {
        "encoding": "inplace",
        "label": "address",
        "numberOfBytes": "20"
      },
      "t_contract(ISuOracle)5114": {
        "encoding": "inplace",
        "label": "contract ISuOracle",
        "numberOfBytes": "20"
      },
      "t_contract(SuVaultParameters)8385": {
        "encoding": "inplace",
        "label": "contract SuVaultParameters",
        "numberOfBytes": "20"
      },
      "t_mapping(t_address,t_uint256)": {
        "encoding": "mapping",
        "key": "t_address",
        "label": "mapping(address => uint256)",
        "numberOfBytes": "32",
        "value": "t_uint256"
      },
      "t_uint256": {
        "encoding": "inplace",
        "label": "uint256",
        "numberOfBytes": "32"
      }
    }
  }
}