{
  "address": "0x8F8E4fDfe93ECa73385A872A424Fd50Af5917482",
  "abi": [
    {
      "inputs": [
        {
          "internalType": "address",
          "name": "_vault",
          "type": "address"
        },
        {
          "internalType": "address",
          "name": "_suOracle",
          "type": "address"
        },
        {
          "internalType": "address",
          "name": "_cdpRegistry",
          "type": "address"
        }
      ],
      "stateMutability": "nonpayable",
      "type": "constructor"
    },
    {
      "anonymous": false,
      "inputs": [
        {
          "indexed": true,
          "internalType": "address",
          "name": "asset",
          "type": "address"
        },
        {
          "indexed": true,
          "internalType": "address",
          "name": "owner",
          "type": "address"
        },
        {
          "indexed": true,
          "internalType": "address",
          "name": "buyer",
          "type": "address"
        },
        {
          "indexed": false,
          "internalType": "uint256",
          "name": "amount",
          "type": "uint256"
        },
        {
          "indexed": false,
          "internalType": "uint256",
          "name": "price",
          "type": "uint256"
        }
      ],
      "name": "Buyout",
      "type": "event"
    },
    {
      "anonymous": false,
      "inputs": [
        {
          "indexed": true,
          "internalType": "address",
          "name": "asset",
          "type": "address"
        },
        {
          "indexed": true,
          "internalType": "address",
          "name": "owner",
          "type": "address"
        },
        {
          "indexed": false,
          "internalType": "uint256",
          "name": "main",
          "type": "uint256"
        },
        {
          "indexed": false,
          "internalType": "uint256",
          "name": "stablecoin",
          "type": "uint256"
        }
      ],
      "name": "Destroyed",
      "type": "event"
    },
    {
      "anonymous": false,
      "inputs": [
        {
          "indexed": true,
          "internalType": "address",
          "name": "asset",
          "type": "address"
        },
        {
          "indexed": true,
          "internalType": "address",
          "name": "owner",
          "type": "address"
        },
        {
          "indexed": false,
          "internalType": "uint256",
          "name": "main",
          "type": "uint256"
        },
        {
          "indexed": false,
          "internalType": "uint256",
          "name": "stablecoin",
          "type": "uint256"
        }
      ],
      "name": "Exit",
      "type": "event"
    },
    {
      "anonymous": false,
      "inputs": [
        {
          "indexed": true,
          "internalType": "address",
          "name": "asset",
          "type": "address"
        },
        {
          "indexed": true,
          "internalType": "address",
          "name": "owner",
          "type": "address"
        },
        {
          "indexed": false,
          "internalType": "uint256",
          "name": "main",
          "type": "uint256"
        },
        {
          "indexed": false,
          "internalType": "uint256",
          "name": "stablecoin",
          "type": "uint256"
        }
      ],
      "name": "Join",
      "type": "event"
    },
    {
      "anonymous": false,
      "inputs": [
        {
          "indexed": true,
          "internalType": "address",
          "name": "asset",
          "type": "address"
        },
        {
          "indexed": true,
          "internalType": "address",
          "name": "owner",
          "type": "address"
        }
      ],
      "name": "LiquidationTriggered",
      "type": "event"
    },
    {
      "inputs": [],
      "name": "ACCESS_CONTROL_SINGLETON",
      "outputs": [
        {
          "internalType": "contract ISuAccessControl",
          "name": "",
          "type": "address"
        }
      ],
      "stateMutability": "view",
      "type": "function"
    },
    {
      "inputs": [],
      "name": "LIQUIDATION_ACCESS_ROLE",
      "outputs": [
        {
          "internalType": "bytes32",
          "name": "",
          "type": "bytes32"
        }
      ],
      "stateMutability": "view",
      "type": "function"
    },
    {
      "inputs": [],
      "name": "MINTER_ROLE",
      "outputs": [
        {
          "internalType": "bytes32",
          "name": "",
          "type": "bytes32"
        }
      ],
      "stateMutability": "view",
      "type": "function"
    },
    {
      "inputs": [],
      "name": "VAULT_ACCESS_ROLE",
      "outputs": [
        {
          "internalType": "bytes32",
          "name": "",
          "type": "bytes32"
        }
      ],
      "stateMutability": "view",
      "type": "function"
    },
    {
      "inputs": [],
      "name": "cdpRegistry",
      "outputs": [
        {
          "internalType": "contract ISuCdpRegistry",
          "name": "",
          "type": "address"
        }
      ],
      "stateMutability": "view",
      "type": "function"
    },
    {
      "inputs": [
        {
          "internalType": "address",
          "name": "asset",
          "type": "address"
        },
        {
          "internalType": "uint256",
          "name": "assetAmountEDecimal",
          "type": "uint256"
        },
        {
          "internalType": "uint256",
          "name": "stablecoinAmountE18",
          "type": "uint256"
        }
      ],
      "name": "exit",
      "outputs": [
        {
          "internalType": "uint256",
          "name": "",
          "type": "uint256"
        }
      ],
      "stateMutability": "nonpayable",
      "type": "function"
    },
    {
      "inputs": [
        {
          "internalType": "address",
          "name": "asset",
          "type": "address"
        },
        {
          "internalType": "address",
          "name": "owner",
          "type": "address"
        }
      ],
      "name": "getAvailableToBorrowE18",
      "outputs": [
        {
          "internalType": "uint256",
          "name": "",
          "type": "uint256"
        }
      ],
      "stateMutability": "view",
      "type": "function"
    },
    {
      "inputs": [
        {
          "internalType": "address",
          "name": "asset",
          "type": "address"
        },
        {
          "internalType": "address",
          "name": "owner",
          "type": "address"
        }
      ],
      "name": "getAvailableToWithdrawE18",
      "outputs": [
        {
          "internalType": "uint256",
          "name": "",
          "type": "uint256"
        }
      ],
      "stateMutability": "view",
      "type": "function"
    },
    {
      "inputs": [
        {
          "internalType": "address",
          "name": "asset",
          "type": "address"
        },
        {
          "internalType": "address",
          "name": "owner",
          "type": "address"
        }
      ],
      "name": "getCollateralUsdValueE18",
      "outputs": [
        {
          "internalType": "uint256",
          "name": "",
          "type": "uint256"
        }
      ],
      "stateMutability": "view",
      "type": "function"
    },
    {
      "inputs": [
        {
          "internalType": "address",
          "name": "asset",
          "type": "address"
        },
        {
          "internalType": "address",
          "name": "owner",
          "type": "address"
        }
      ],
      "name": "getLTVE18",
      "outputs": [
        {
          "internalType": "uint256",
          "name": "",
          "type": "uint256"
        }
      ],
      "stateMutability": "view",
      "type": "function"
    },
    {
      "inputs": [
        {
          "internalType": "address",
          "name": "asset",
          "type": "address"
        },
        {
          "internalType": "address",
          "name": "owner",
          "type": "address"
        }
      ],
      "name": "getLiquidationBlock",
      "outputs": [
        {
          "internalType": "uint256",
          "name": "",
          "type": "uint256"
        }
      ],
      "stateMutability": "view",
      "type": "function"
    },
    {
      "inputs": [
        {
          "internalType": "address",
          "name": "asset",
          "type": "address"
        },
        {
          "internalType": "address",
          "name": "owner",
          "type": "address"
        }
      ],
      "name": "getPosition",
      "outputs": [
        {
          "internalType": "uint256",
          "name": "liquidationBlock",
          "type": "uint256"
        },
        {
          "internalType": "uint256",
          "name": "collateralEDecimal",
          "type": "uint256"
        },
        {
          "internalType": "uint256",
          "name": "debtE18",
          "type": "uint256"
        }
      ],
      "stateMutability": "view",
      "type": "function"
    },
    {
      "inputs": [
        {
          "internalType": "address",
          "name": "",
          "type": "address"
        }
      ],
      "name": "initialCollateralRatioE18",
      "outputs": [
        {
          "internalType": "uint256",
          "name": "",
          "type": "uint256"
        }
      ],
      "stateMutability": "view",
      "type": "function"
    },
    {
      "inputs": [
        {
          "internalType": "address",
          "name": "asset",
          "type": "address"
        },
        {
          "internalType": "address",
          "name": "owner",
          "type": "address"
        }
      ],
      "name": "isLiquidatablePosition",
      "outputs": [
        {
          "internalType": "bool",
          "name": "",
          "type": "bool"
        }
      ],
      "stateMutability": "view",
      "type": "function"
    },
    {
      "inputs": [
        {
          "internalType": "address",
          "name": "asset",
          "type": "address"
        },
        {
          "internalType": "uint256",
          "name": "assetAmountEDecimal",
          "type": "uint256"
        },
        {
          "internalType": "uint256",
          "name": "stablecoinAmountE18",
          "type": "uint256"
        },
        {
          "internalType": "uint256",
          "name": "lockupPeriodSeconds",
          "type": "uint256"
        }
      ],
      "name": "join",
      "outputs": [],
      "stateMutability": "nonpayable",
      "type": "function"
    },
    {
      "inputs": [
        {
          "internalType": "address",
          "name": "asset",
          "type": "address"
        },
        {
          "internalType": "address",
          "name": "owner",
          "type": "address"
        },
        {
          "internalType": "address",
          "name": "repayer",
          "type": "address"
        },
        {
          "internalType": "uint256",
          "name": "stablecoinsToRepaymentE18",
          "type": "uint256"
        },
        {
          "internalType": "uint256",
          "name": "assetAmountEDecimal",
          "type": "uint256"
        }
      ],
      "name": "liquidate",
      "outputs": [
        {
          "internalType": "bool",
          "name": "destroyed",
          "type": "bool"
        }
      ],
      "stateMutability": "nonpayable",
      "type": "function"
    },
    {
      "inputs": [
        {
          "internalType": "address",
          "name": "asset",
          "type": "address"
        },
        {
          "internalType": "address",
          "name": "owner",
          "type": "address"
        },
        {
          "internalType": "address",
          "name": "repayer",
          "type": "address"
        },
        {
          "internalType": "uint256",
          "name": "repaymentE18",
          "type": "uint256"
        },
        {
          "internalType": "uint256",
          "name": "excessAndFeeE18",
          "type": "uint256"
        },
        {
          "internalType": "uint256",
          "name": "assetAmountEDecimal",
          "type": "uint256"
        }
      ],
      "name": "liquidateAndRepay",
      "outputs": [
        {
          "internalType": "bool",
          "name": "destroyed",
          "type": "bool"
        }
      ],
      "stateMutability": "nonpayable",
      "type": "function"
    },
    {
      "inputs": [
        {
          "internalType": "address",
          "name": "asset",
          "type": "address"
        },
        {
          "internalType": "address",
          "name": "owner",
          "type": "address"
        }
      ],
      "name": "liquidationPriceE18",
      "outputs": [
        {
          "internalType": "uint256",
          "name": "",
          "type": "uint256"
        }
      ],
      "stateMutability": "view",
      "type": "function"
    },
    {
      "inputs": [
        {
          "internalType": "address",
          "name": "",
          "type": "address"
        }
      ],
      "name": "liquidationRatioE18",
      "outputs": [
        {
          "internalType": "uint256",
          "name": "",
          "type": "uint256"
        }
      ],
      "stateMutability": "view",
      "type": "function"
    },
    {
      "inputs": [],
      "name": "managerParameters",
      "outputs": [
        {
          "internalType": "contract ISuManagerParameters",
          "name": "",
          "type": "address"
        }
      ],
      "stateMutability": "view",
      "type": "function"
    },
    {
      "inputs": [],
      "name": "minCollateralInUsdE18",
      "outputs": [
        {
          "internalType": "uint256",
          "name": "",
          "type": "uint256"
        }
      ],
      "stateMutability": "view",
      "type": "function"
    },
    {
      "inputs": [
        {
          "internalType": "address",
          "name": "repayer",
          "type": "address"
        },
        {
          "internalType": "uint256",
          "name": "stablecoinsToRepaymentE18",
          "type": "uint256"
        },
        {
          "internalType": "uint256",
          "name": "stablecoinsToFoundationE18",
          "type": "uint256"
        }
      ],
      "name": "repay",
      "outputs": [],
      "stateMutability": "nonpayable",
      "type": "function"
    },
    {
      "inputs": [
        {
          "internalType": "address",
          "name": "asset",
          "type": "address"
        },
        {
          "internalType": "uint256",
          "name": "stabilityFeeValueE18",
          "type": "uint256"
        },
        {
          "internalType": "uint256",
          "name": "initialCollateralRatioValueE18",
          "type": "uint256"
        },
        {
          "internalType": "uint256",
          "name": "liquidationRatioValueE18",
          "type": "uint256"
        },
        {
          "internalType": "uint256",
          "name": "stablecoinLimitE18",
          "type": "uint256"
        },
        {
          "internalType": "uint256",
          "name": "minCollateralInUsdValueE18",
          "type": "uint256"
        }
      ],
      "name": "setCollateral",
      "outputs": [],
      "stateMutability": "nonpayable",
      "type": "function"
    },
    {
      "inputs": [
        {
          "internalType": "address",
          "name": "asset",
          "type": "address"
        },
        {
          "internalType": "uint256",
          "name": "newValueE18",
          "type": "uint256"
        }
      ],
      "name": "setInitialCollateralRatioE18",
      "outputs": [],
      "stateMutability": "nonpayable",
      "type": "function"
    },
    {
      "inputs": [
        {
          "internalType": "address",
          "name": "asset",
          "type": "address"
        },
        {
          "internalType": "uint256",
          "name": "newValueE18",
          "type": "uint256"
        }
      ],
      "name": "setLiquidationRatioE18",
      "outputs": [],
      "stateMutability": "nonpayable",
      "type": "function"
    },
    {
      "inputs": [
        {
          "internalType": "uint256",
          "name": "newValueE18",
          "type": "uint256"
        }
      ],
      "name": "setMinCollateralInUsdE18",
      "outputs": [],
      "stateMutability": "nonpayable",
      "type": "function"
    },
    {
      "inputs": [],
      "name": "suOracle",
      "outputs": [
        {
          "internalType": "contract ISuOracle",
          "name": "",
          "type": "address"
        }
      ],
      "stateMutability": "view",
      "type": "function"
    },
    {
      "inputs": [
        {
          "internalType": "address",
          "name": "asset",
          "type": "address"
        },
        {
          "internalType": "address",
          "name": "owner",
          "type": "address"
        }
      ],
      "name": "triggerLiquidation",
      "outputs": [],
      "stateMutability": "nonpayable",
      "type": "function"
    },
    {
      "inputs": [
        {
          "internalType": "address",
          "name": "asset",
          "type": "address"
        },
        {
          "internalType": "address",
          "name": "owner",
          "type": "address"
        }
      ],
      "name": "utilizationRatioE18",
      "outputs": [
        {
          "internalType": "uint256",
          "name": "",
          "type": "uint256"
        }
      ],
      "stateMutability": "view",
      "type": "function"
    },
    {
      "inputs": [],
      "name": "vault",
      "outputs": [
        {
          "internalType": "contract ISuVault",
          "name": "",
          "type": "address"
        }
      ],
      "stateMutability": "view",
      "type": "function"
    },
    {
      "inputs": [],
      "name": "vaultParameters",
      "outputs": [
        {
          "internalType": "contract SuVaultParameters",
          "name": "",
          "type": "address"
        }
      ],
      "stateMutability": "view",
      "type": "function"
    },
    {
      "stateMutability": "payable",
      "type": "receive"
    }
  ],
  "transactionHash": "0x7bfd5155adc22a5fdc8934cd8450a68629bc37519b67882ce014ca9adb8735ac",
  "args": [
    "0x6134A3dc24727e8a2744772e0f42D5b60Ac46323",
    "0xE49187305017f54D2BB716a8b9C86D1cF90Cf99D",
    "0x501749426E84B980Df260206A0648903e3d9F32e"
  ],
  "numDeployments": 1,
  "solcInputHash": "f0e3ee812b01a4597188858a77d65e1c",
  "bytecode": "0x610100604052674563918244f400006003553480156200001e57600080fd5b5060405162004058380380620040588339810160408190526200004191620001f8565b82806001600160a01b03166303ee9f226040518163ffffffff1660e01b815260040160206040518083038186803b1580156200007c57600080fd5b505afa15801562000091573d6000803e3d6000fd5b505050506040513d601f19601f82011682018060405250810190620000b791906200024b565b600160005560601b6001600160601b031916608052600480546001600160a01b0319166001600160a01b03929092169190911790553080158015906200010557506001600160a01b03821615155b620001575760405162461bcd60e51b815260206004820152601b60248201527f556e69742050726f746f636f6c3a20494e56414c49445f41524753000000000060448201526064015b60405180910390fd5b6001600160a01b038316620001af5760405162461bcd60e51b815260206004820152601760248201527f494e56414c49445f415247533a2053555f4f5241434c4500000000000000000060448201526064016200014e565b600580546001600160a01b039094166001600160a01b0319909416939093179092556001600160601b0319606092831b811660c05292821b831660a052901b1660e0526200028a565b6000806000606084860312156200020d578283fd5b83516200021a8162000271565b60208501519093506200022d8162000271565b6040850151909250620002408162000271565b809150509250925092565b6000602082840312156200025d578081fd5b81516200026a8162000271565b9392505050565b6001600160a01b03811681146200028757600080fd5b50565b60805160601c60a05160601c60c05160601c60e05160601c613c3162000427600039600081816104fe01528181610afe0152818161189b01528181611e350152612ca801526000818161032a01528181610f7c015281816111b6015281816120a8015281816130f8015281816132c0015281816134b401526135540152600081816106e5015281816108c40152818161095e01528181610a0001528181610bb701528181610cbe01528181610d7b01528181610ebd0152818161103901528181611108015281816113d001528181611609015281816117420152818161181a01528181611c4d01528181611d8601528181611ece01528181612007015281816121af015281816125640152818161260a015281816126b0015281816127ba015281816128b50152818161298701528181612a4301528181612aee01528181612bce01528181612e2901528181612f8801528181613022015281816131b401526133cf015260008181610245015281816114ff0152818161192701528181611b430152818161222c015281816123bb0152612d2f0152613c316000f3fe6080604052600436106101dc5760003560e01c80638cd2e0c711610102578063bbdc953111610095578063dc97e84e11610064578063dc97e84e14610645578063e6bc046114610679578063f3f481df146106a6578063fbfa77cf146106d357600080fd5b8063bbdc9531146105b1578063cf133404146105d1578063d4796d12146105f1578063d53913931461061157600080fd5b8063aca345ee116100d1578063aca345ee14610520578063ada9e5ad14610540578063b33dc19014610560578063bb497dcc1461059b57600080fd5b80638cd2e0c71461048c5780639077beac146104ac578063a20f9cb3146104cc578063ab2a2a82146104ec57600080fd5b80634030815e1161017a5780636bf12d5f116101495780636bf12d5f1461040c5780636f16cbf71461042c5780636f70e66f1461044c57806376b5070c1461046c57600080fd5b80634030815e1461038c5780634c9a5550146103ac57806356d8be56146103cc5780636338e4d7146103ec57600080fd5b806314c376dc116101b657806314c376dc146102d65780631af3be18146103185780631c656c391461034c578063392c0ce71461036c57600080fd5b806303ee9f2214610233578063112e140014610284578063134a02dd146102a657600080fd5b3661022e5760405162461bcd60e51b815260206004820152601960248201527f556e69742050726f746f636f6c3a20524553545249435445440000000000000060448201526064015b60405180910390fd5b600080fd5b34801561023f57600080fd5b506102677f000000000000000000000000000000000000000000000000000000000000000081565b6040516001600160a01b0390911681526020015b60405180910390f35b34801561029057600080fd5b506102a461029f366004613874565b610707565b005b3480156102b257600080fd5b506102c66102c1366004613735565b610b67565b604051901515815260200161027b565b3480156102e257600080fd5b5061030a7fe965846df3dd5b1dfa65f58e31477079e90140e0908b6dd31b5aead5a57cf36581565b60405190815260200161027b565b34801561032457600080fd5b506102677f000000000000000000000000000000000000000000000000000000000000000081565b34801561035857600080fd5b5061030a610367366004613735565b610b8b565b34801561037857600080fd5b5061030a610387366004613735565b610c76565b34801561039857600080fd5b5061030a6103a7366004613735565b610d4f565b3480156103b857600080fd5b5061030a6103c7366004613735565b610e93565b3480156103d857600080fd5b5061030a6103e7366004613735565b610f40565b3480156103f857600080fd5b5061030a610407366004613735565b6110dc565b34801561041857600080fd5b506102c66104273660046137bb565b611466565b34801561043857600080fd5b506102a4610447366004613819565b61190b565b34801561045857600080fd5b506102c6610467366004613767565b611aaa565b34801561047857600080fd5b5061030a610487366004613735565b611ea2565b34801561049857600080fd5b506102a46104a7366004613842565b61215f565b3480156104b857600080fd5b506102a46104c7366004613819565b612210565b3480156104d857600080fd5b50600554610267906001600160a01b031681565b3480156104f857600080fd5b506102677f000000000000000000000000000000000000000000000000000000000000000081565b34801561052c57600080fd5b50600454610267906001600160a01b031681565b34801561054c57600080fd5b506102a461055b3660046138ac565b61239f565b34801561056c57600080fd5b5061058061057b366004613735565b612536565b6040805193845260208401929092529082015260600161027b565b3480156105a757600080fd5b5061030a60035481565b3480156105bd57600080fd5b5061030a6105cc366004613842565b612735565b3480156105dd57600080fd5b506102a46105ec366004613915565b612d13565b3480156105fd57600080fd5b506102a461060c366004613735565b612e02565b34801561061d57600080fd5b5061030a7f9f2df0fed2c77648de5860a4cc508cd0818c85b8b8a1ab4ceeef8d981c8956a681565b34801561065157600080fd5b5061030a7f9a9aef7c1247d5fc769b0185c052913e39673da29a880317dfd20ebf86f26a4981565b34801561068557600080fd5b5061030a61069436600461371b565b60026020526000908152604090205481565b3480156106b257600080fd5b5061030a6106c136600461371b565b60016020526000908152604090205481565b3480156106df57600080fd5b506102677f000000000000000000000000000000000000000000000000000000000000000081565b6002600054141561075a5760405162461bcd60e51b815260206004820152601f60248201527f5265656e7472616e637947756172643a207265656e7472616e742063616c6c006044820152606401610225565b600260005583338315158061076e57508415155b6107ba5760405162461bcd60e51b815260206004820152601960248201527f556e69742050726f746f636f6c3a205553454c4553535f5458000000000000006044820152606401610225565b6012866001600160a01b031663313ce5676040518163ffffffff1660e01b815260040160206040518083038186803b1580156107f557600080fd5b505afa158015610809573d6000803e3d6000fd5b505050506040513d601f19601f8201168201806040525081019061082d9190613945565b60ff16111561088c5760405162461bcd60e51b815260206004820152602560248201527f556e69742050726f746f636f6c3a204e4f545f535550504f525445445f444543604482015264494d414c5360d81b6064820152608401610225565b83610925576040516320e8c56560e01b81526001600160a01b03878116600483015233602483015260448201879052606482018590527f000000000000000000000000000000000000000000000000000000000000000016906320e8c56590608401600060405180830381600087803b15801561090857600080fd5b505af115801561091c573d6000803e3d6000fd5b50505050610a87565b84156109bb576040516320e8c56560e01b81526001600160a01b03878116600483015233602483015260448201879052606482018590527f000000000000000000000000000000000000000000000000000000000000000016906320e8c56590608401600060405180830381600087803b1580156109a257600080fd5b505af11580156109b6573d6000803e3d6000fd5b505050505b6040517f5224372c0000000000000000000000000000000000000000000000000000000081526001600160a01b038781166004830152336024830152604482018690527f00000000000000000000000000000000000000000000000000000000000000001690635224372c90606401602060405180830381600087803b158015610a4457600080fd5b505af1158015610a58573d6000803e3d6000fd5b505050506040513d601f19601f82011682018060405250810190610a7c919061392d565b50610a8786336130bd565b610a9186336132a8565b604080518681526020810186905233916001600160a01b038916917f6423b6056e64b3b29cb2d342362b47c26fa8d6877da27ea152354060df19b9bc910160405180910390a3604051632ed56dff60e21b81526001600160a01b03838116600483015282811660248301527f0000000000000000000000000000000000000000000000000000000000000000169063bb55b7fc90604401600060405180830381600087803b158015610b4257600080fd5b505af1158015610b56573d6000803e3d6000fd5b505060016000555050505050505050565b600080610b748484610d4f565b9050610b818484836133a3565b9150505b92915050565b60405163a6ea8b8760e01b81526001600160a01b038381166004830152828116602483015260009182917f0000000000000000000000000000000000000000000000000000000000000000169063a6ea8b879060440160206040518083038186803b158015610bf957600080fd5b505afa158015610c0d573d6000803e3d6000fd5b505050506040513d601f19601f82011682018060405250810190610c31919061392d565b905080610c42576000915050610b85565b6000610c4e8585610d4f565b905080610c6383670de0b6b3a7640000613b13565b610c6d9190613a05565b95945050505050565b600080610c838484610d4f565b905080610c94576000915050610b85565b604051636aee125d60e11b81526001600160a01b03858116600483015284811660248301526000917f00000000000000000000000000000000000000000000000000000000000000009091169063d5dc24ba9060440160206040518083038186803b158015610d0257600080fd5b505afa158015610d16573d6000803e3d6000fd5b505050506040513d601f19601f82011682018060405250810190610d3a919061392d565b905081610c6382670de0b6b3a7640000613b13565b6040516334e3b77960e01b81526001600160a01b038381166004830152828116602483015260009182917f000000000000000000000000000000000000000000000000000000000000000016906334e3b7799060440160206040518083038186803b158015610dbd57600080fd5b505afa158015610dd1573d6000803e3d6000fd5b505050506040513d601f19601f82011682018060405250810190610df5919061392d565b6005546040516306addfb360e31b81526001600160a01b038781166004830152929350670de0b6b3a7640000928492169063356efd989060240160206040518083038186803b158015610e4757600080fd5b505afa158015610e5b573d6000803e3d6000fd5b505050506040513d601f19601f82011682018060405250810190610e7f919061392d565b610e899190613b13565b610b819190613a05565b604051631ce4b4a760e01b81526001600160a01b03838116600483015282811660248301526000917f000000000000000000000000000000000000000000000000000000000000000090911690631ce4b4a79060440160206040518083038186803b158015610f0157600080fd5b505afa158015610f15573d6000803e3d6000fd5b505050506040513d601f19601f82011682018060405250810190610f39919061392d565b9392505050565b600080610f4d8484610d4f565b60405163f3f481df60e01b81526001600160a01b038681166004830152919250600091670de0b6b3a7640000917f00000000000000000000000000000000000000000000000000000000000000009091169063f3f481df9060240160206040518083038186803b158015610fc057600080fd5b505afa158015610fd4573d6000803e3d6000fd5b505050506040513d601f19601f82011682018060405250810190610ff8919061392d565b6110029084613b13565b61100c9190613a05565b60405163a6ea8b8760e01b81526001600160a01b03878116600483015286811660248301529192506000917f0000000000000000000000000000000000000000000000000000000000000000169063a6ea8b879060440160206040518083038186803b15801561107b57600080fd5b505afa15801561108f573d6000803e3d6000fd5b505050506040513d601f19601f820116820180604052508101906110b3919061392d565b90508082116110c85760009350505050610b85565b6110d28183613b32565b9695505050505050565b60405163a6ea8b8760e01b81526001600160a01b038381166004830152828116602483015260009182917f0000000000000000000000000000000000000000000000000000000000000000169063a6ea8b879060440160206040518083038186803b15801561114a57600080fd5b505afa15801561115e573d6000803e3d6000fd5b505050506040513d601f19601f82011682018060405250810190611182919061392d565b90508061119457600019915050610b85565b60405163e6bc046160e01b81526001600160a01b0385811660048301526000917f00000000000000000000000000000000000000000000000000000000000000009091169063e6bc04619060240160206040518083038186803b1580156111fa57600080fd5b505afa15801561120e573d6000803e3d6000fd5b505050506040513d601f19601f82011682018060405250810190611232919061392d565b61124483670de0b6b3a7640000613b13565b61124e9190613a05565b90506012856001600160a01b031663313ce5676040518163ffffffff1660e01b815260040160206040518083038186803b15801561128b57600080fd5b505afa15801561129f573d6000803e3d6000fd5b505050506040513d601f19601f820116820180604052508101906112c39190613945565b60ff1611156113225760405162461bcd60e51b815260206004820152602560248201527f556e69742050726f746f636f6c3a204e4f545f535550504f525445445f444543604482015264494d414c5360d81b6064820152608401610225565b846001600160a01b031663313ce5676040518163ffffffff1660e01b815260040160206040518083038186803b15801561135b57600080fd5b505afa15801561136f573d6000803e3d6000fd5b505050506040513d601f19601f820116820180604052508101906113939190613945565b61139e906012613b49565b6113a990600a613a68565b6040516334e3b77960e01b81526001600160a01b03878116600483015286811660248301527f000000000000000000000000000000000000000000000000000000000000000016906334e3b7799060440160206040518083038186803b15801561141257600080fd5b505afa158015611426573d6000803e3d6000fd5b505050506040513d601f19601f8201168201806040525081019061144a919061392d565b61145c83670de0b6b3a7640000613b13565b610c639190613a05565b6000600260005414156114bb5760405162461bcd60e51b815260206004820152601f60248201527f5265656e7472616e637947756172643a207265656e7472616e742063616c6c006044820152606401610225565b6002600055604051632474521560e21b81527f9a9aef7c1247d5fc769b0185c052913e39673da29a880317dfd20ebf86f26a496004820152336024820152879087907f00000000000000000000000000000000000000000000000000000000000000006001600160a01b0316906391d148549060440160206040518083038186803b15801561154957600080fd5b505afa15801561155d573d6000803e3d6000fd5b505050506040513d601f19601f8201168201806040525081019061158191906138f5565b6115df5760405162461bcd60e51b815260206004820152602960248201527f5375417574683a206f6e6c794c69717569646174696f6e416363657373204155604482015268151217d1905253115160ba1b6064820152608401610225565b604051631ce4b4a760e01b81526001600160a01b038a8116600483015289811660248301526000917f000000000000000000000000000000000000000000000000000000000000000090911690631ce4b4a79060440160206040518083038186803b15801561164d57600080fd5b505afa158015611661573d6000803e3d6000fd5b505050506040513d601f19601f82011682018060405250810190611685919061392d565b116116e25760405162461bcd60e51b815260206004820152602760248201527f556e69742050726f746f636f6c3a204e4f545f4c49515549444154494e475f5060448201526627a9a4aa24a7a760c91b6064820152608401610225565b6117056040518060600160405280602e8152602001613ba9602e913985886135f6565b604051636f70e66f60e01b81526001600160a01b038a811660048301528981166024830152888116604483015260648201869052608482018890527f00000000000000000000000000000000000000000000000000000000000000001690636f70e66f9060a401602060405180830381600087803b15801561178657600080fd5b505af115801561179a573d6000803e3d6000fd5b505050506040513d601f19601f820116820180604052508101906117be91906138f5565b92506117ca89336132a8565b6117ed604051806060016040528060268152602001613b836026913987876135f6565b604051638cd2e0c760e01b81526001600160a01b03888116600483015260248201889052604482018790527f00000000000000000000000000000000000000000000000000000000000000001690638cd2e0c790606401600060405180830381600087803b15801561185e57600080fd5b505af1158015611872573d6000803e3d6000fd5b5050604051632ed56dff60e21b81526001600160a01b03858116600483015284811660248301527f000000000000000000000000000000000000000000000000000000000000000016925063bb55b7fc9150604401600060405180830381600087803b1580156118e157600080fd5b505af11580156118f5573d6000803e3d6000fd5b5050600160005550929998505050505050505050565b604051632474521560e21b8152600060048201523360248201527f00000000000000000000000000000000000000000000000000000000000000006001600160a01b0316906391d148549060440160206040518083038186803b15801561197157600080fd5b505afa158015611985573d6000803e3d6000fd5b505050506040513d601f19601f820116820180604052508101906119a991906138f5565b6119f55760405162461bcd60e51b815260206004820152601d60248201527f5375417574683a206f6e6c794f776e657220415554485f4641494c45440000006044820152606401610225565b8015801590611a1c57506001600160a01b0382166000908152600160205260409020548110155b611a8e5760405162461bcd60e51b815260206004820152603060248201527f556e69742050726f746f636f6c3a20494e434f52524543545f434f4c4c41544560448201527f52414c495a4154494f4e5f56414c5545000000000000000000000000000000006064820152608401610225565b6001600160a01b03909116600090815260026020526040902055565b600060026000541415611aff5760405162461bcd60e51b815260206004820152601f60248201527f5265656e7472616e637947756172643a207265656e7472616e742063616c6c006044820152606401610225565b6002600055604051632474521560e21b81527f9a9aef7c1247d5fc769b0185c052913e39673da29a880317dfd20ebf86f26a496004820152336024820152869086907f00000000000000000000000000000000000000000000000000000000000000006001600160a01b0316906391d148549060440160206040518083038186803b158015611b8d57600080fd5b505afa158015611ba1573d6000803e3d6000fd5b505050506040513d601f19601f82011682018060405250810190611bc591906138f5565b611c235760405162461bcd60e51b815260206004820152602960248201527f5375417574683a206f6e6c794c69717569646174696f6e416363657373204155604482015268151217d1905253115160ba1b6064820152608401610225565b604051631ce4b4a760e01b81526001600160a01b03898116600483015288811660248301526000917f000000000000000000000000000000000000000000000000000000000000000090911690631ce4b4a79060440160206040518083038186803b158015611c9157600080fd5b505afa158015611ca5573d6000803e3d6000fd5b505050506040513d601f19601f82011682018060405250810190611cc9919061392d565b11611d265760405162461bcd60e51b815260206004820152602760248201527f556e69742050726f746f636f6c3a204e4f545f4c49515549444154494e475f5060448201526627a9a4aa24a7a760c91b6064820152608401610225565b611d496040518060600160405280602e8152602001613ba9602e913985876135f6565b604051636f70e66f60e01b81526001600160a01b0389811660048301528881166024830152878116604483015260648201869052608482018790527f00000000000000000000000000000000000000000000000000000000000000001690636f70e66f9060a401602060405180830381600087803b158015611dca57600080fd5b505af1158015611dde573d6000803e3d6000fd5b505050506040513d601f19601f82011682018060405250810190611e0291906138f5565b9250611e0e88336132a8565b604051632ed56dff60e21b81526001600160a01b03838116600483015282811660248301527f0000000000000000000000000000000000000000000000000000000000000000169063bb55b7fc90604401600060405180830381600087803b158015611e7957600080fd5b505af1158015611e8d573d6000803e3d6000fd5b50506001600055509298975050505050505050565b6040516334e3b77960e01b81526001600160a01b038381166004830152828116602483015260009182917f000000000000000000000000000000000000000000000000000000000000000016906334e3b7799060440160206040518083038186803b158015611f1057600080fd5b505afa158015611f24573d6000803e3d6000fd5b505050506040513d601f19601f82011682018060405250810190611f48919061392d565b6005546040516306addfb360e31b81526001600160a01b0387811660048301529293506000929091169063356efd989060240160206040518083038186803b158015611f9357600080fd5b505afa158015611fa7573d6000803e3d6000fd5b505050506040513d601f19601f82011682018060405250810190611fcb919061392d565b905080611fdd57600092505050610b85565b604051636aee125d60e11b81526001600160a01b03868116600483015285811660248301526000917f00000000000000000000000000000000000000000000000000000000000000009091169063d5dc24ba9060440160206040518083038186803b15801561204b57600080fd5b505afa15801561205f573d6000803e3d6000fd5b505050506040513d601f19601f82011682018060405250810190612083919061392d565b60405163f3f481df60e01b81526001600160a01b0388811660048301529192506000917f0000000000000000000000000000000000000000000000000000000000000000169063f3f481df9060240160206040518083038186803b1580156120ea57600080fd5b505afa1580156120fe573d6000803e3d6000fd5b505050506040513d601f19601f82011682018060405250810190612122919061392d565b61212c9084613b13565b61213e83670de0b6b3a7640000613b13565b6121489190613a05565b90506121548185613b32565b979650505050505050565b612182604051806060016040528060258152602001613bd76025913983836135f6565b604051638cd2e0c760e01b81526001600160a01b03848116600483015260248201849052604482018390527f00000000000000000000000000000000000000000000000000000000000000001690638cd2e0c790606401600060405180830381600087803b1580156121f357600080fd5b505af1158015612207573d6000803e3d6000fd5b50505050505050565b604051632474521560e21b8152600060048201523360248201527f00000000000000000000000000000000000000000000000000000000000000006001600160a01b0316906391d148549060440160206040518083038186803b15801561227657600080fd5b505afa15801561228a573d6000803e3d6000fd5b505050506040513d601f19601f820116820180604052508101906122ae91906138f5565b6122fa5760405162461bcd60e51b815260206004820152601d60248201527f5375417574683a206f6e6c794f776e657220415554485f4641494c45440000006044820152606401610225565b80158015906123115750670de0b6b3a76400008111155b6123835760405162461bcd60e51b815260206004820152603060248201527f556e69742050726f746f636f6c3a20494e434f52524543545f434f4c4c41544560448201527f52414c495a4154494f4e5f56414c5545000000000000000000000000000000006064820152608401610225565b6001600160a01b03909116600090815260016020526040902055565b604051632474521560e21b8152600060048201523360248201527f00000000000000000000000000000000000000000000000000000000000000006001600160a01b0316906391d148549060440160206040518083038186803b15801561240557600080fd5b505afa158015612419573d6000803e3d6000fd5b505050506040513d601f19601f8201168201806040525081019061243d91906138f5565b6124895760405162461bcd60e51b815260206004820152601d60248201527f5375417574683a206f6e6c794f776e657220415554485f4641494c45440000006044820152606401610225565b600480546040517f9fea3e070000000000000000000000000000000000000000000000000000000081526001600160a01b03898116938201939093526024810188905260448101859052911690639fea3e0790606401600060405180830381600087803b1580156124f957600080fd5b505af115801561250d573d6000803e3d6000fd5b5050505061251b8685612210565b612525868461190b565b61252e81612d13565b505050505050565b604051631ce4b4a760e01b81526001600160a01b0383811660048301528281166024830152600091829182917f000000000000000000000000000000000000000000000000000000000000000090911690631ce4b4a79060440160206040518083038186803b1580156125a857600080fd5b505afa1580156125bc573d6000803e3d6000fd5b505050506040513d601f19601f820116820180604052508101906125e0919061392d565b6040516334e3b77960e01b81526001600160a01b03878116600483015286811660248301529194507f0000000000000000000000000000000000000000000000000000000000000000909116906334e3b7799060440160206040518083038186803b15801561264e57600080fd5b505afa158015612662573d6000803e3d6000fd5b505050506040513d601f19601f82011682018060405250810190612686919061392d565b604051636aee125d60e11b81526001600160a01b03878116600483015286811660248301529193507f00000000000000000000000000000000000000000000000000000000000000009091169063d5dc24ba9060440160206040518083038186803b1580156126f457600080fd5b505afa158015612708573d6000803e3d6000fd5b505050506040513d601f19601f8201168201806040525081019061272c919061392d565b90509250925092565b60006002600054141561278a5760405162461bcd60e51b815260206004820152601f60248201527f5265656e7472616e637947756172643a207265656e7472616e742063616c6c006044820152606401610225565b6002600055604051631ce4b4a760e01b81526001600160a01b0380861660048301523360248301819052869290917f00000000000000000000000000000000000000000000000000000000000000001690631ce4b4a79060440160206040518083038186803b1580156127fc57600080fd5b505afa158015612810573d6000803e3d6000fd5b505050506040513d601f19601f82011682018060405250810190612834919061392d565b1561288d5760405162461bcd60e51b815260206004820152602360248201527f556e69742050726f746f636f6c3a204c49515549444154494e475f504f53495460448201526224a7a760e91b6064820152608401610225565b604051636aee125d60e11b81526001600160a01b0387811660048301523360248301526000917f00000000000000000000000000000000000000000000000000000000000000009091169063d5dc24ba9060440160206040518083038186803b1580156128f957600080fd5b505afa15801561290d573d6000803e3d6000fd5b505050506040513d601f19601f82011682018060405250810190612931919061392d565b90508085111561293f578094505b6040517f34c188b00000000000000000000000000000000000000000000000000000000081526001600160a01b038881166004830152336024830152604482018790526000917f0000000000000000000000000000000000000000000000000000000000000000909116906334c188b09060640160206040518083038186803b1580156129cb57600080fd5b505afa1580156129df573d6000803e3d6000fd5b505050506040513d601f19601f82011682018060405250810190612a03919061392d565b604051636f70e66f60e01b81526001600160a01b038a8116600483015233602483018190526044830152606482018a9052608482018990529192506000917f00000000000000000000000000000000000000000000000000000000000000001690636f70e66f9060a401602060405180830381600087803b158015612a8757600080fd5b505af1158015612a9b573d6000803e3d6000fd5b505050506040513d601f19601f82011682018060405250810190612abf91906138f5565b9050612acb89336132a8565b604051638cd2e0c760e01b815233600482015260248101889052604481018390527f00000000000000000000000000000000000000000000000000000000000000006001600160a01b031690638cd2e0c790606401600060405180830381600087803b158015612b3a57600080fd5b505af1158015612b4e573d6000803e3d6000fd5b505050508015612ba957604080518981526020810189905233916001600160a01b038c16917f4bd704811146c45cfd9276261817324e0acc0b5eaa458b21a0740367dc37cdb8910160405180910390a3869550505050612c81565b60405163c640752d60e01b81526001600160a01b038a811660048301523360248301527f0000000000000000000000000000000000000000000000000000000000000000169063c640752d90604401600060405180830381600087803b158015612c1257600080fd5b505af1158015612c26573d6000803e3d6000fd5b50505050612c3489336130bd565b604080518981526020810189905233916001600160a01b038c16917fa702ae6024e8b4c2b0eb162b1453dacb93cf6922f5a2d7236faed898c21148f8910160405180910390a38695505050505b604051632ed56dff60e21b81526001600160a01b03838116600483015282811660248301527f0000000000000000000000000000000000000000000000000000000000000000169063bb55b7fc90604401600060405180830381600087803b158015612cec57600080fd5b505af1158015612d00573d6000803e3d6000fd5b5050600160005550929695505050505050565b604051632474521560e21b8152600060048201523360248201527f00000000000000000000000000000000000000000000000000000000000000006001600160a01b0316906391d148549060440160206040518083038186803b158015612d7957600080fd5b505afa158015612d8d573d6000803e3d6000fd5b505050506040513d601f19601f82011682018060405250810190612db191906138f5565b612dfd5760405162461bcd60e51b815260206004820152601d60248201527f5375417574683a206f6e6c794f776e657220415554485f4641494c45440000006044820152606401610225565b600355565b604051631ce4b4a760e01b81526001600160a01b03838116600483015282811660248301527f00000000000000000000000000000000000000000000000000000000000000001690631ce4b4a79060440160206040518083038186803b158015612e6b57600080fd5b505afa158015612e7f573d6000803e3d6000fd5b505050506040513d601f19601f82011682018060405250810190612ea3919061392d565b15612efc5760405162461bcd60e51b815260206004820152602360248201527f556e69742050726f746f636f6c3a204c49515549444154494e475f504f53495460448201526224a7a760e91b6064820152608401610225565b6000612f088383610d4f565b9050612f158383836133a3565b612f615760405162461bcd60e51b815260206004820152601c60248201527f556e69742050726f746f636f6c3a20534146455f504f534954494f4e000000006044820152606401610225565b60405163c640752d60e01b81526001600160a01b03848116600483015283811660248301527f0000000000000000000000000000000000000000000000000000000000000000169063c640752d90604401600060405180830381600087803b158015612fcc57600080fd5b505af1158015612fe0573d6000803e3d6000fd5b50506040517fd4796d120000000000000000000000000000000000000000000000000000000081526001600160a01b03868116600483015285811660248301527f000000000000000000000000000000000000000000000000000000000000000016925063d4796d129150604401600060405180830381600087803b15801561306857600080fd5b505af115801561307c573d6000803e3d6000fd5b50506040516001600160a01b038086169350861691507f5b79a897d30813a62a1f95ba180d3320d3701d96605708b81105e00719a069e490600090a3505050565b60006130c98383610d4f565b60405163f3f481df60e01b81526001600160a01b038581166004830152919250600091670de0b6b3a7640000917f00000000000000000000000000000000000000000000000000000000000000009091169063f3f481df9060240160206040518083038186803b15801561313c57600080fd5b505afa158015613150573d6000803e3d6000fd5b505050506040513d601f19601f82011682018060405250810190613174919061392d565b61317e9084613b13565b6131889190613a05565b60405163a6ea8b8760e01b81526001600160a01b038681166004830152858116602483015291925082917f0000000000000000000000000000000000000000000000000000000000000000169063a6ea8b879060440160206040518083038186803b1580156131f657600080fd5b505afa15801561320a573d6000803e3d6000fd5b505050506040513d601f19601f8201168201806040525081019061322e919061392d565b11156132a25760405162461bcd60e51b815260206004820152602260248201527f556e69742050726f746f636f6c3a20554e444552434f4c4c41544552414c495a60448201527f45440000000000000000000000000000000000000000000000000000000000006064820152608401610225565b50505050565b60006132b48383610d4f565b905080158061335257507f00000000000000000000000000000000000000000000000000000000000000006001600160a01b031663bb497dcc6040518163ffffffff1660e01b815260040160206040518083038186803b15801561331757600080fd5b505afa15801561332b573d6000803e3d6000fd5b505050506040513d601f19601f8201168201806040525081019061334f919061392d565b81115b61339e5760405162461bcd60e51b815260206004820152601f60248201527f556e69742050726f746f636f6c3a20534d414c4c5f434f4c4c41544552414c006044820152606401610225565b505050565b60405163a6ea8b8760e01b81526001600160a01b038481166004830152838116602483015260009182917f0000000000000000000000000000000000000000000000000000000000000000169063a6ea8b879060440160206040518083038186803b15801561341157600080fd5b505afa158015613425573d6000803e3d6000fd5b505050506040513d601f19601f82011682018060405250810190613449919061392d565b90508061345a576000915050610f39565b604080518082018252600581527f4c494d49540000000000000000000000000000000000000000000000000000006020820152905163e6bc046160e01b81526001600160a01b0387811660048301526135359291849187917f00000000000000000000000000000000000000000000000000000000000000009091169063e6bc04619060240160206040518083038186803b1580156134f857600080fd5b505afa15801561350c573d6000803e3d6000fd5b505050506040513d601f19601f82011682018060405250810190613530919061392d565b61366b565b60405163e6bc046160e01b81526001600160a01b0386811660048301527f0000000000000000000000000000000000000000000000000000000000000000169063e6bc04619060240160206040518083038186803b15801561359657600080fd5b505afa1580156135aa573d6000803e3d6000fd5b505050506040513d601f19601f820116820180604052508101906135ce919061392d565b836135e183670de0b6b3a7640000613b13565b6135eb9190613a05565b101595945050505050565b61339e83838360405160240161360e939291906139b1565b60408051601f198184030181529190526020810180517bffffffffffffffffffffffffffffffffffffffffffffffffffffffff167f969cdd03000000000000000000000000000000000000000000000000000000001790526136de565b6132a28484848460405160240161368594939291906139d6565b60408051601f198184030181529190526020810180517bffffffffffffffffffffffffffffffffffffffffffffffffffffffff167f08ee5666000000000000000000000000000000000000000000000000000000001790525b80516a636f6e736f6c652e6c6f67602083016000808483855afa5050505050565b80356001600160a01b038116811461371657600080fd5b919050565b60006020828403121561372c578081fd5b610f39826136ff565b60008060408385031215613747578081fd5b613750836136ff565b915061375e602084016136ff565b90509250929050565b600080600080600060a0868803121561377e578081fd5b613787866136ff565b9450613795602087016136ff565b93506137a3604087016136ff565b94979396509394606081013594506080013592915050565b60008060008060008060c087890312156137d3578081fd5b6137dc876136ff565b95506137ea602088016136ff565b94506137f8604088016136ff565b9350606087013592506080870135915060a087013590509295509295509295565b6000806040838503121561382b578182fd5b613834836136ff565b946020939093013593505050565b600080600060608486031215613856578283fd5b61385f846136ff565b95602085013595506040909401359392505050565b60008060008060808587031215613889578384fd5b613892856136ff565b966020860135965060408601359560600135945092505050565b60008060008060008060c087890312156138c4578182fd5b6138cd876136ff565b9860208801359850604088013597606081013597506080810135965060a00135945092505050565b600060208284031215613906578081fd5b81518015158114610f39578182fd5b600060208284031215613926578081fd5b5035919050565b60006020828403121561393e578081fd5b5051919050565b600060208284031215613956578081fd5b815160ff81168114610f39578182fd5b60008151808452815b8181101561398b5760208185018101518683018201520161396f565b8181111561399c5782602083870101525b50601f01601f19169290920160200192915050565b6060815260006139c46060830186613966565b60208301949094525060400152919050565b6080815260006139e96080830187613966565b6020830195909552506040810192909252606090910152919050565b600082613a2057634e487b7160e01b81526012600452602481fd5b500490565b600181815b80851115613a60578160001904821115613a4657613a46613b6c565b80851615613a5357918102915b93841c9390800290613a2a565b509250929050565b6000610f3960ff841683600082613a8157506001610b85565b81613a8e57506000610b85565b8160018114613aa45760028114613aae57613aca565b6001915050610b85565b60ff841115613abf57613abf613b6c565b50506001821b610b85565b5060208310610133831016604e8410600b8410161715613aed575081810a610b85565b613af78383613a25565b8060001904821115613b0b57613b0b613b6c565b029392505050565b6000816000190483118215151615613b2d57613b2d613b6c565b500290565b600082821015613b4457613b44613b6c565b500390565b600060ff821660ff841680821015613b6357613b63613b6c565b90039392505050565b634e487b7160e01b600052601160045260246000fdfe5245504159207265706179202872657061796d656e742c20657863657373416e64466565293a4c4951554944415445206c697175696461746520286173736574416d6f756e742c2072657061796d656e74293a205245504159207265706179202872657061796d656e742c20746f466f6e646174696f6e293aa26469706673582212205febbc6654a7e807f6999014d090c60bbb2679bb084490ff7b2d6fccf2db646e64736f6c63430008040033",
  "devdoc": {
    "events": {
      "Buyout(address,address,address,uint256,uint256)": {
        "details": "Trigger when buyouts are happened*"
      }
    },
    "kind": "dev",
    "methods": {
      "getLiquidationBlock(address,address)": {
        "params": {
          "asset": "The address of the main collateral token of a position",
          "owner": "The owner of the collateral"
        },
        "returns": {
          "_0": "liquidationBlock The block number when the liquidation was triggered"
        }
      },
      "getPosition(address,address)": {
        "details": "TODO: should rename to getPositionInfo()",
        "params": {
          "asset": "The address of the main collateral token of a position",
          "owner": "The owner of the collateral"
        },
        "returns": {
          "collateralEDecimal": "The amount of collateral",
          "debtE18": "The amount of borrowed stablecoins",
          "liquidationBlock": "The block number when the liquidation was triggered"
        }
      },
      "liquidate(address,address,address,uint256,uint256)": {
        "details": "Supports a partial liquidation",
        "params": {
          "asset": "The address of the main collateral token of a position",
          "assetAmountEDecimal": "The position's collateral which be recieved by repayer",
          "owner": "The owner of the collateral",
          "repayer": "The person who repaies by debt and transfers stablecoins to the foundation",
          "stablecoinsToRepaymentE18": "The amount of stablecoins which will be burned as a debt repaymention"
        },
        "returns": {
          "destroyed": "Returns \"true\" if the position completely liquidated"
        }
      },
      "liquidateAndRepay(address,address,address,uint256,uint256,uint256)": {
        "details": "Supports a partial liquidation",
        "params": {
          "asset": "The address of the main collateral token of a position",
          "assetAmountEDecimal": "The position's collateral which be recieved by repayer",
          "excessAndFeeE18": "The amount of stablecoins which transfer to foundation",
          "owner": "The owner of a position",
          "repayer": "The person who repaies by debt and recieves a position's collateral",
          "repaymentE18": "The amount of repayment"
        },
        "returns": {
          "destroyed": "Returns \"true\" if the position completely liquidated"
        }
      },
      "repay(address,uint256,uint256)": {
        "params": {
          "repayer": "The person who repaies by debt and transfers stablecoins to the foundation",
          "stablecoinsToFoundationE18": "The amount of stablecoins which will be transfered to the foundation",
          "stablecoinsToRepaymentE18": "The amount of stablecoins which will be burned as a debt repayment"
        }
      },
      "setInitialCollateralRatioE18(address,uint256)": {
        "details": "Sets the initial collateral ratio",
        "params": {
          "asset": "The address of the main collateral token",
          "newValueE18": "The collateralization ratio (1e18 = 100%)*"
        }
      },
      "setLiquidationRatioE18(address,uint256)": {
        "details": "Sets the liquidation ratio",
        "params": {
          "asset": "The address of the main collateral token",
          "newValueE18": "The liquidation ratio (1e18 = 100%)*"
        }
      },
      "setMinCollateralInUsdE18(uint256)": {
        "details": "Sets a minimum value of collateral in USD which allowed to be left after partial closure",
        "params": {
          "newValueE18": "The minimum value of collateral in USD"
        }
      },
      "triggerLiquidation(address,address)": {
        "details": "Emits LiquidationTriggered event. Sets the current block as liquidationBlock for the position. Can be triggered only once for the position."
      }
    },
    "version": 1
  },
  "userdoc": {
    "kind": "user",
    "methods": {
      "getAvailableToBorrowE18(address,address)": {
        "notice": "Returns Available to Borrow we have invariant: (collateralAmountEDecimal * collateralPriceE18 / 1e18) * initialCollateralRatioE18 <= debtE18 Has similar logic like in _ensurePositionCollateralization"
      },
      "getAvailableToWithdrawE18(address,address)": {
        "notice": "Returns Available to Withdraw Has similar invariant like in getAvailableToBorrowE18"
      },
      "getLTVE18(address,address)": {
        "notice": "Returns Loan-To-Value in e18"
      },
      "getLiquidationBlock(address,address)": {
        "notice": "Returns information about a liquidating position"
      },
      "getPosition(address,address)": {
        "notice": "Returns information about a liquidating position"
      },
      "join(address,uint256,uint256,uint256)": {
        "notice": "Yes,"
      },
      "liquidate(address,address,address,uint256,uint256)": {
        "notice": "Liquidates a position"
      },
      "liquidateAndRepay(address,address,address,uint256,uint256,uint256)": {
        "notice": "please see https://ratiofinance.medium.com/ratio-risk-lesson-2-cascading-liquidations-e91e04050f47Liquidates a position's collateral completely"
      },
      "repay(address,uint256,uint256)": {
        "notice": "Finilizes the liquidation"
      },
      "setInitialCollateralRatioE18(address,uint256)": {
        "notice": "Only manager is able to call this function"
      },
      "setLiquidationRatioE18(address,uint256)": {
        "notice": "Only manager is able to call this function"
      },
      "setMinCollateralInUsdE18(uint256)": {
        "notice": "Only manager is able to call this function"
      }
    },
    "notice": "not sure why",
    "version": 1
  },
  "storageLayout": {
    "storage": [
      {
        "astId": 543,
        "contract": "contracts/lending/SuManager.sol:SuManager",
        "label": "_status",
        "offset": 0,
        "slot": "0",
        "type": "t_uint256"
      },
      {
        "astId": 7357,
        "contract": "contracts/lending/SuManager.sol:SuManager",
        "label": "initialCollateralRatioE18",
        "offset": 0,
        "slot": "1",
        "type": "t_mapping(t_address,t_uint256)"
      },
      {
        "astId": 7361,
        "contract": "contracts/lending/SuManager.sol:SuManager",
        "label": "liquidationRatioE18",
        "offset": 0,
        "slot": "2",
        "type": "t_mapping(t_address,t_uint256)"
      },
      {
        "astId": 7366,
        "contract": "contracts/lending/SuManager.sol:SuManager",
        "label": "minCollateralInUsdE18",
        "offset": 0,
        "slot": "3",
        "type": "t_uint256"
      },
      {
        "astId": 7369,
        "contract": "contracts/lending/SuManager.sol:SuManager",
        "label": "vaultParameters",
        "offset": 0,
        "slot": "4",
        "type": "t_contract(SuVaultParameters)8451"
      },
      {
        "astId": 6282,
        "contract": "contracts/lending/SuManager.sol:SuManager",
        "label": "suOracle",
        "offset": 0,
        "slot": "5",
        "type": "t_contract(ISuOracle)5135"
      }
    ],
    "types": {
      "t_address": {
        "encoding": "inplace",
        "label": "address",
        "numberOfBytes": "20"
      },
      "t_contract(ISuOracle)5135": {
        "encoding": "inplace",
        "label": "contract ISuOracle",
        "numberOfBytes": "20"
      },
      "t_contract(SuVaultParameters)8451": {
        "encoding": "inplace",
        "label": "contract SuVaultParameters",
        "numberOfBytes": "20"
      },
      "t_mapping(t_address,t_uint256)": {
        "encoding": "mapping",
        "key": "t_address",
        "label": "mapping(address => uint256)",
        "numberOfBytes": "32",
        "value": "t_uint256"
      },
      "t_uint256": {
        "encoding": "inplace",
        "label": "uint256",
        "numberOfBytes": "32"
      }
    }
  }
}