{
  "address": "0x9A869D11DB567e6cF680EC4f57C127Bf506eA5a2",
  "abi": [
    {
      "inputs": [
        {
          "internalType": "address",
          "name": "_vault",
          "type": "address"
        },
        {
          "internalType": "address",
          "name": "_suOracle",
          "type": "address"
        },
        {
          "internalType": "address",
          "name": "_cdpRegistry",
          "type": "address"
        }
      ],
      "stateMutability": "nonpayable",
      "type": "constructor"
    },
    {
      "anonymous": false,
      "inputs": [
        {
          "indexed": true,
          "internalType": "address",
          "name": "asset",
          "type": "address"
        },
        {
          "indexed": true,
          "internalType": "address",
          "name": "owner",
          "type": "address"
        },
        {
          "indexed": true,
          "internalType": "address",
          "name": "buyer",
          "type": "address"
        },
        {
          "indexed": false,
          "internalType": "uint256",
          "name": "amount",
          "type": "uint256"
        },
        {
          "indexed": false,
          "internalType": "uint256",
          "name": "price",
          "type": "uint256"
        },
        {
          "indexed": false,
          "internalType": "uint256",
          "name": "penalty",
          "type": "uint256"
        }
      ],
      "name": "Buyout",
      "type": "event"
    },
    {
      "anonymous": false,
      "inputs": [
        {
          "indexed": true,
          "internalType": "address",
          "name": "asset",
          "type": "address"
        },
        {
          "indexed": true,
          "internalType": "address",
          "name": "owner",
          "type": "address"
        },
        {
          "indexed": false,
          "internalType": "uint256",
          "name": "main",
          "type": "uint256"
        },
        {
          "indexed": false,
          "internalType": "uint256",
          "name": "stablecoin",
          "type": "uint256"
        }
      ],
      "name": "Exit",
      "type": "event"
    },
    {
      "anonymous": false,
      "inputs": [
        {
          "indexed": true,
          "internalType": "address",
          "name": "asset",
          "type": "address"
        },
        {
          "indexed": true,
          "internalType": "address",
          "name": "owner",
          "type": "address"
        },
        {
          "indexed": false,
          "internalType": "uint256",
          "name": "main",
          "type": "uint256"
        },
        {
          "indexed": false,
          "internalType": "uint256",
          "name": "stablecoin",
          "type": "uint256"
        }
      ],
      "name": "Join",
      "type": "event"
    },
    {
      "inputs": [],
      "name": "ACCESS_CONTROL_SINGLETON",
      "outputs": [
        {
          "internalType": "contract ISuAccessControl",
          "name": "",
          "type": "address"
        }
      ],
      "stateMutability": "view",
      "type": "function"
    },
    {
      "inputs": [],
      "name": "MINTER_ROLE",
      "outputs": [
        {
          "internalType": "bytes32",
          "name": "",
          "type": "bytes32"
        }
      ],
      "stateMutability": "view",
      "type": "function"
    },
    {
      "inputs": [],
      "name": "VAULT_ACCESS_ROLE",
      "outputs": [
        {
          "internalType": "bytes32",
          "name": "",
          "type": "bytes32"
        }
      ],
      "stateMutability": "view",
      "type": "function"
    },
    {
      "inputs": [
        {
          "internalType": "address",
          "name": "asset",
          "type": "address"
        },
        {
          "internalType": "address",
          "name": "owner",
          "type": "address"
        }
      ],
      "name": "buyout",
      "outputs": [],
      "stateMutability": "nonpayable",
      "type": "function"
    },
    {
      "inputs": [],
      "name": "cdpRegistry",
      "outputs": [
        {
          "internalType": "contract ISuCdpRegistry",
          "name": "",
          "type": "address"
        }
      ],
      "stateMutability": "view",
      "type": "function"
    },
    {
      "inputs": [
        {
          "internalType": "address",
          "name": "asset",
          "type": "address"
        },
        {
          "internalType": "uint256",
          "name": "assetAmountEDecimal",
          "type": "uint256"
        },
        {
          "internalType": "uint256",
          "name": "stablecoinAmountE18",
          "type": "uint256"
        }
      ],
      "name": "exit",
      "outputs": [
        {
          "internalType": "uint256",
          "name": "",
          "type": "uint256"
        }
      ],
      "stateMutability": "nonpayable",
      "type": "function"
    },
    {
      "inputs": [
        {
          "internalType": "address",
          "name": "asset",
          "type": "address"
        },
        {
          "internalType": "address",
          "name": "owner",
          "type": "address"
        }
      ],
      "name": "getCollateralUsdValueE18",
      "outputs": [
        {
          "internalType": "uint256",
          "name": "",
          "type": "uint256"
        }
      ],
      "stateMutability": "view",
      "type": "function"
    },
    {
      "inputs": [
        {
          "internalType": "address",
          "name": "",
          "type": "address"
        }
      ],
      "name": "initialCollateralRatioE18",
      "outputs": [
        {
          "internalType": "uint256",
          "name": "",
          "type": "uint256"
        }
      ],
      "stateMutability": "view",
      "type": "function"
    },
    {
      "inputs": [
        {
          "internalType": "address",
          "name": "asset",
          "type": "address"
        },
        {
          "internalType": "address",
          "name": "owner",
          "type": "address"
        }
      ],
      "name": "isLiquidatablePosition",
      "outputs": [
        {
          "internalType": "bool",
          "name": "",
          "type": "bool"
        }
      ],
      "stateMutability": "view",
      "type": "function"
    },
    {
      "inputs": [
        {
          "internalType": "address",
          "name": "asset",
          "type": "address"
        },
        {
          "internalType": "uint256",
          "name": "assetAmountEDecimal",
          "type": "uint256"
        },
        {
          "internalType": "uint256",
          "name": "stablecoinAmountE18",
          "type": "uint256"
        }
      ],
      "name": "join",
      "outputs": [],
      "stateMutability": "nonpayable",
      "type": "function"
    },
    {
      "inputs": [
        {
          "internalType": "address",
          "name": "",
          "type": "address"
        }
      ],
      "name": "liquidationDiscountE18",
      "outputs": [
        {
          "internalType": "uint256",
          "name": "",
          "type": "uint256"
        }
      ],
      "stateMutability": "view",
      "type": "function"
    },
    {
      "inputs": [
        {
          "internalType": "address",
          "name": "asset",
          "type": "address"
        },
        {
          "internalType": "address",
          "name": "owner",
          "type": "address"
        }
      ],
      "name": "liquidationPrice",
      "outputs": [
        {
          "internalType": "uint256",
          "name": "",
          "type": "uint256"
        }
      ],
      "stateMutability": "view",
      "type": "function"
    },
    {
      "inputs": [
        {
          "internalType": "address",
          "name": "",
          "type": "address"
        }
      ],
      "name": "liquidationRatioE18",
      "outputs": [
        {
          "internalType": "uint256",
          "name": "",
          "type": "uint256"
        }
      ],
      "stateMutability": "view",
      "type": "function"
    },
    {
      "inputs": [],
      "name": "managerParameters",
      "outputs": [
        {
          "internalType": "contract ISuManagerParameters",
          "name": "",
          "type": "address"
        }
      ],
      "stateMutability": "view",
      "type": "function"
    },
    {
      "inputs": [
        {
          "internalType": "address",
          "name": "asset",
          "type": "address"
        },
        {
          "internalType": "uint256",
          "name": "stabilityFeeValueE18",
          "type": "uint256"
        },
        {
          "internalType": "uint256",
          "name": "liquidationFeeValueE18",
          "type": "uint256"
        },
        {
          "internalType": "uint256",
          "name": "initialCollateralRatioValueE18",
          "type": "uint256"
        },
        {
          "internalType": "uint256",
          "name": "liquidationRatioValueE18",
          "type": "uint256"
        },
        {
          "internalType": "uint256",
          "name": "liquidationDiscountValueE18",
          "type": "uint256"
        },
        {
          "internalType": "uint256",
          "name": "stablecoinLimitE18",
          "type": "uint256"
        }
      ],
      "name": "setCollateral",
      "outputs": [],
      "stateMutability": "nonpayable",
      "type": "function"
    },
    {
      "inputs": [
        {
          "internalType": "address",
          "name": "asset",
          "type": "address"
        },
        {
          "internalType": "uint256",
          "name": "newValueE18",
          "type": "uint256"
        }
      ],
      "name": "setInitialCollateralRatioE18",
      "outputs": [],
      "stateMutability": "nonpayable",
      "type": "function"
    },
    {
      "inputs": [
        {
          "internalType": "address",
          "name": "asset",
          "type": "address"
        },
        {
          "internalType": "uint256",
          "name": "newValueE18",
          "type": "uint256"
        }
      ],
      "name": "setLiquidationDiscountE18",
      "outputs": [],
      "stateMutability": "nonpayable",
      "type": "function"
    },
    {
      "inputs": [
        {
          "internalType": "address",
          "name": "asset",
          "type": "address"
        },
        {
          "internalType": "uint256",
          "name": "newValueE18",
          "type": "uint256"
        }
      ],
      "name": "setLiquidationRatioE18",
      "outputs": [],
      "stateMutability": "nonpayable",
      "type": "function"
    },
    {
      "inputs": [],
      "name": "suOracle",
      "outputs": [
        {
          "internalType": "contract ISuOracle",
          "name": "",
          "type": "address"
        }
      ],
      "stateMutability": "view",
      "type": "function"
    },
    {
      "inputs": [
        {
          "internalType": "address",
          "name": "asset",
          "type": "address"
        },
        {
          "internalType": "address",
          "name": "owner",
          "type": "address"
        }
      ],
      "name": "utilizationRatioE18",
      "outputs": [
        {
          "internalType": "uint256",
          "name": "",
          "type": "uint256"
        }
      ],
      "stateMutability": "view",
      "type": "function"
    },
    {
      "inputs": [],
      "name": "vault",
      "outputs": [
        {
          "internalType": "contract ISuVault",
          "name": "",
          "type": "address"
        }
      ],
      "stateMutability": "view",
      "type": "function"
    },
    {
      "inputs": [],
      "name": "vaultParameters",
      "outputs": [
        {
          "internalType": "contract SuVaultParameters",
          "name": "",
          "type": "address"
        }
      ],
      "stateMutability": "view",
      "type": "function"
    },
    {
      "stateMutability": "payable",
      "type": "receive"
    }
  ],
  "transactionHash": "0x082caff9478764a7af50f484abde7bd6d5dba0866ba679a964bd13ca7b7009f9",
  "args": [
    "0x5C358df33F4ea6270F5070069EE191A50e5250Ed",
    "0xb423F6A92991BC6ad496E721713feD630fb7492e",
    "0xA24ABa376B4b5686DE3E8CA7582ce0bb6dDcD75f"
  ],
  "numDeployments": 1,
  "solcInputHash": "b9fd321b5f2445e923eafdd459969d80",
  "bytecode": "0x6101006040523480156200001257600080fd5b5060405162002e2f38038062002e2f8339810160408190526200003591620001ec565b82806001600160a01b03166303ee9f226040518163ffffffff1660e01b815260040160206040518083038186803b1580156200007057600080fd5b505afa15801562000085573d6000803e3d6000fd5b505050506040513d601f19601f82011682018060405250810190620000ab91906200023f565b600160005560601b6001600160601b031916608052600480546001600160a01b0319166001600160a01b0392909216919091179055308015801590620000f957506001600160a01b03821615155b6200014b5760405162461bcd60e51b815260206004820152601b60248201527f556e69742050726f746f636f6c3a20494e56414c49445f41524753000000000060448201526064015b60405180910390fd5b6001600160a01b038316620001a35760405162461bcd60e51b815260206004820152601760248201527f494e56414c49445f415247533a2053555f4f5241434c45000000000000000000604482015260640162000142565b600580546001600160a01b039094166001600160a01b0319909416939093179092556001600160601b0319606092831b811660c05292821b831660a052901b1660e0526200027e565b60008060006060848603121562000201578283fd5b83516200020e8162000265565b6020850151909350620002218162000265565b6040850151909250620002348162000265565b809150509250925092565b60006020828403121562000251578081fd5b81516200025e8162000265565b9392505050565b6001600160a01b03811681146200027b57600080fd5b50565b60805160601c60a05160601c60c05160601c60e05160601c612a84620003ab6000396000818161042801528181610e92015281816119f00152611e3a0152600081816103070152818161064601528181611f78015281816120c7015261257501526000818161054a015281816105980152818161086001528181610b3401528181610bdb01528181610ca501528181610db901528181610f3101528181611009015281816116fe015281816117d10152818161186c0152818161191901528181611c1101528181611ca401528181611d4601528181611ece015281816121f201528181612272015281816122a1015281816123f9015281816124bd01526126310152600081816101e20152818161093701528181611156015281816112f501526114950152612a846000f3fe6080604052600436106101795760003560e01c80639077beac116100cb578063bbdc95311161007f578063ea36380a11610059578063ea36380a146104eb578063f3f481df1461050b578063fbfa77cf1461053857600080fd5b8063bbdc95311461046a578063d53913931461048a578063e6bc0461146104be57600080fd5b8063a20f9cb3116100b0578063a20f9cb3146103f6578063ab2a2a8214610416578063aca345ee1461044a57600080fd5b80639077beac146103a95780639d58644c146103c957600080fd5b806316e78ac91161012d5780634030815e116101075780634030815e146103495780636f16cbf7146103695780637b330d261461038957600080fd5b806316e78ac9146102d55780631af3be18146102f55780631c656c391461032957600080fd5b8063134a02dd1161015e578063134a02dd1461024f57806314c376dc1461027f578063165bf278146102b357600080fd5b806303ee9f22146101d05780630fbac4e61461022157600080fd5b366101cb5760405162461bcd60e51b815260206004820152601960248201527f556e69742050726f746f636f6c3a20524553545249435445440000000000000060448201526064015b60405180910390fd5b600080fd5b3480156101dc57600080fd5b506102047f000000000000000000000000000000000000000000000000000000000000000081565b6040516001600160a01b0390911681526020015b60405180910390f35b34801561022d57600080fd5b5061024161023c36600461275d565b61056c565b604051908152602001610218565b34801561025b57600080fd5b5061026f61026a36600461275d565b6108f9565b6040519015158152602001610218565b34801561028b57600080fd5b506102417fe965846df3dd5b1dfa65f58e31477079e90140e0908b6dd31b5aead5a57cf36581565b3480156102bf57600080fd5b506102d36102ce366004612795565b61091b565b005b3480156102e157600080fd5b506102d36102f036600461275d565b610a9e565b34801561030157600080fd5b506102047f000000000000000000000000000000000000000000000000000000000000000081565b34801561033557600080fd5b5061024161034436600461275d565b610f05565b34801561035557600080fd5b5061024161036436600461275d565b610fdd565b34801561037557600080fd5b506102d3610384366004612795565b61113a565b34801561039557600080fd5b506102d36103a43660046127f4565b6112d9565b3480156103b557600080fd5b506102d36103c4366004612795565b611479565b3480156103d557600080fd5b506102416103e4366004612725565b60036020526000908152604090205481565b34801561040257600080fd5b50600554610204906001600160a01b031681565b34801561042257600080fd5b506102047f000000000000000000000000000000000000000000000000000000000000000081565b34801561045657600080fd5b50600454610204906001600160a01b031681565b34801561047657600080fd5b506102416104853660046127c0565b611608565b34801561049657600080fd5b506102417f9f2df0fed2c77648de5860a4cc508cd0818c85b8b8a1ab4ceeef8d981c8956a681565b3480156104ca57600080fd5b506102416104d9366004612725565b60026020526000908152604090205481565b3480156104f757600080fd5b506102d36105063660046127c0565b611a5b565b34801561051757600080fd5b50610241610526366004612725565b60016020526000908152604090205481565b34801561054457600080fd5b506102047f000000000000000000000000000000000000000000000000000000000000000081565b60405163a6ea8b8760e01b81526001600160a01b038381166004830152828116602483015260009182917f0000000000000000000000000000000000000000000000000000000000000000169063a6ea8b879060440160206040518083038186803b1580156105da57600080fd5b505afa1580156105ee573d6000803e3d6000fd5b505050506040513d601f19601f820116820180604052508101906106129190612868565b905080610624576000199150506108f3565b60405163e6bc046160e01b81526001600160a01b0385811660048301526000917f00000000000000000000000000000000000000000000000000000000000000009091169063e6bc04619060240160206040518083038186803b15801561068a57600080fd5b505afa15801561069e573d6000803e3d6000fd5b505050506040513d601f19601f820116820180604052508101906106c29190612868565b6106d483670de0b6b3a76400006129c7565b6106de91906128b9565b90506012856001600160a01b031663313ce5676040518163ffffffff1660e01b815260040160206040518083038186803b15801561071b57600080fd5b505afa15801561072f573d6000803e3d6000fd5b505050506040513d601f19601f820116820180604052508101906107539190612880565b60ff1611156107b25760405162461bcd60e51b815260206004820152602560248201527f556e69742050726f746f636f6c3a204e4f545f535550504f525445445f444543604482015264494d414c5360d81b60648201526084016101c2565b846001600160a01b031663313ce5676040518163ffffffff1660e01b815260040160206040518083038186803b1580156107eb57600080fd5b505afa1580156107ff573d6000803e3d6000fd5b505050506040513d601f19601f820116820180604052508101906108239190612880565b61082e9060126129fd565b61083990600a61291c565b6040516334e3b77960e01b81526001600160a01b03878116600483015286811660248301527f000000000000000000000000000000000000000000000000000000000000000016906334e3b7799060440160206040518083038186803b1580156108a257600080fd5b505afa1580156108b6573d6000803e3d6000fd5b505050506040513d601f19601f820116820180604052508101906108da9190612868565b6108e490836128b9565b6108ee91906128b9565b925050505b92915050565b6000806109068484610fdd565b9050610913848483611ea2565b949350505050565b604051632474521560e21b8152600060048201523360248201527f00000000000000000000000000000000000000000000000000000000000000006001600160a01b0316906391d148549060440160206040518083038186803b15801561098157600080fd5b505afa158015610995573d6000803e3d6000fd5b505050506040513d601f19601f820116820180604052508101906109b99190612848565b610a055760405162461bcd60e51b815260206004820152601d60248201527f5375417574683a206f6e6c794f776e657220415554485f4641494c454400000060448201526064016101c2565b670de0b6b3a76400008110610a825760405162461bcd60e51b815260206004820152602760248201527f556e69742050726f746f636f6c3a20494e434f52524543545f444953434f554e60448201527f545f56414c55450000000000000000000000000000000000000000000000000060648201526084016101c2565b6001600160a01b03909116600090815260036020526040902055565b60026000541415610af15760405162461bcd60e51b815260206004820152601f60248201527f5265656e7472616e637947756172643a207265656e7472616e742063616c6c0060448201526064016101c2565b600260008190555081816000610b07858561201c565b6040516334e3b77960e01b81526001600160a01b03878116600483015286811660248301529192506000917f000000000000000000000000000000000000000000000000000000000000000016906334e3b7799060440160206040518083038186803b158015610b7657600080fd5b505afa158015610b8a573d6000803e3d6000fd5b505050506040513d601f19601f82011682018060405250810190610bae9190612868565b60405163a6ea8b8760e01b81526001600160a01b03888116600483015287811660248301529192506000917f0000000000000000000000000000000000000000000000000000000000000000169063a6ea8b879060440160206040518083038186803b158015610c1d57600080fd5b505afa158015610c31573d6000803e3d6000fd5b505050506040513d601f19601f82011682018060405250810190610c559190612868565b6040517fe905efe30000000000000000000000000000000000000000000000000000000081526001600160a01b0389811660048301528881166024830152919250600091670de0b6b3a7640000917f00000000000000000000000000000000000000000000000000000000000000009091169063e905efe39060440160206040518083038186803b158015610ce957600080fd5b505afa158015610cfd573d6000803e3d6000fd5b505050506040513d601f19601f82011682018060405250810190610d219190612868565b610d2b90846129c7565b610d3591906128b9565b905060008080610d4f8688610d4a87896128a1565b612161565b6040517f9ffb62eb0000000000000000000000000000000000000000000000000000000081526001600160a01b038f811660048301528e8116602483015260448201859052606482018490526084820183905260a482018990523360c483015293965091945092507f000000000000000000000000000000000000000000000000000000000000000090911690639ffb62eb9060e401600060405180830381600087803b158015610dff57600080fd5b505af1158015610e13573d6000803e3d6000fd5b505060408051868152602081018590529081018790523392506001600160a01b038d811692508e16907f4bafc1b25a3e727ead9384f3708c85489bdad9585fb211bbae2f76cf68d973399060600160405180910390a45050604051632ed56dff60e21b81526001600160a01b03888116600483015287811660248301527f000000000000000000000000000000000000000000000000000000000000000016955063bb55b7fc94506044019250610ec8915050565b600060405180830381600087803b158015610ee257600080fd5b505af1158015610ef6573d6000803e3d6000fd5b50506001600055505050505050565b60405163a6ea8b8760e01b81526001600160a01b038381166004830152828116602483015260009182917f0000000000000000000000000000000000000000000000000000000000000000169063a6ea8b879060440160206040518083038186803b158015610f7357600080fd5b505afa158015610f87573d6000803e3d6000fd5b505050506040513d601f19601f82011682018060405250810190610fab9190612868565b905080610fbc5760009150506108f3565b6000610fc88585610fdd565b9050806108e483670de0b6b3a76400006129c7565b6040516334e3b77960e01b81526001600160a01b038381166004830152828116602483015260009182917f000000000000000000000000000000000000000000000000000000000000000016906334e3b7799060440160206040518083038186803b15801561104b57600080fd5b505afa15801561105f573d6000803e3d6000fd5b505050506040513d601f19601f820116820180604052508101906110839190612868565b6005546040517f356efd980000000000000000000000000000000000000000000000000000000081526001600160a01b038781166004830152929350670de0b6b3a7640000928492169063356efd989060240160206040518083038186803b1580156110ee57600080fd5b505afa158015611102573d6000803e3d6000fd5b505050506040513d601f19601f820116820180604052508101906111269190612868565b61113091906129c7565b61091391906128b9565b604051632474521560e21b8152600060048201523360248201527f00000000000000000000000000000000000000000000000000000000000000006001600160a01b0316906391d148549060440160206040518083038186803b1580156111a057600080fd5b505afa1580156111b4573d6000803e3d6000fd5b505050506040513d601f19601f820116820180604052508101906111d89190612848565b6112245760405162461bcd60e51b815260206004820152601d60248201527f5375417574683a206f6e6c794f776e657220415554485f4641494c454400000060448201526064016101c2565b801580159061124b57506001600160a01b0382166000908152600160205260409020548110155b6112bd5760405162461bcd60e51b815260206004820152603060248201527f556e69742050726f746f636f6c3a20494e434f52524543545f434f4c4c41544560448201527f52414c495a4154494f4e5f56414c55450000000000000000000000000000000060648201526084016101c2565b6001600160a01b03909116600090815260026020526040902055565b604051632474521560e21b8152600060048201523360248201527f00000000000000000000000000000000000000000000000000000000000000006001600160a01b0316906391d148549060440160206040518083038186803b15801561133f57600080fd5b505afa158015611353573d6000803e3d6000fd5b505050506040513d601f19601f820116820180604052508101906113779190612848565b6113c35760405162461bcd60e51b815260206004820152601d60248201527f5375417574683a206f6e6c794f776e657220415554485f4641494c454400000060448201526064016101c2565b600480546040517f38507ff50000000000000000000000000000000000000000000000000000000081526001600160a01b038a8116938201939093526024810189905260448101889052606481018490529116906338507ff590608401600060405180830381600087803b15801561143a57600080fd5b505af115801561144e573d6000803e3d6000fd5b5050505061145c8785611479565b611466878461113a565b611470878361091b565b50505050505050565b604051632474521560e21b8152600060048201523360248201527f00000000000000000000000000000000000000000000000000000000000000006001600160a01b0316906391d148549060440160206040518083038186803b1580156114df57600080fd5b505afa1580156114f3573d6000803e3d6000fd5b505050506040513d601f19601f820116820180604052508101906115179190612848565b6115635760405162461bcd60e51b815260206004820152601d60248201527f5375417574683a206f6e6c794f776e657220415554485f4641494c454400000060448201526064016101c2565b801580159061157a5750670de0b6b3a76400008111155b6115ec5760405162461bcd60e51b815260206004820152603060248201527f556e69742050726f746f636f6c3a20494e434f52524543545f434f4c4c41544560448201527f52414c495a4154494f4e5f56414c55450000000000000000000000000000000060648201526084016101c2565b6001600160a01b03909116600090815260016020526040902055565b60006002600054141561165d5760405162461bcd60e51b815260206004820152601f60248201527f5265656e7472616e637947756172643a207265656e7472616e742063616c6c0060448201526064016101c2565b600260005583338415158061167157508315155b6116bd5760405162461bcd60e51b815260206004820152601960248201527f556e69742050726f746f636f6c3a205553454c4553535f54580000000000000060448201526064016101c2565b6040517fd5dc24ba0000000000000000000000000000000000000000000000000000000081526001600160a01b0387811660048301523360248301526000917f00000000000000000000000000000000000000000000000000000000000000009091169063d5dc24ba9060440160206040518083038186803b15801561174257600080fd5b505afa158015611756573d6000803e3d6000fd5b505050506040513d601f19601f8201168201806040525081019061177a9190612868565b905080851115611788578094505b8561179d576117988733876121a8565b61197f565b8481141561184057604051636ce5768960e11b81526001600160a01b038881166004830152336024830152604482018890527f0000000000000000000000000000000000000000000000000000000000000000169063d9caed1290606401600060405180830381600087803b15801561181557600080fd5b505af1158015611829573d6000803e3d6000fd5b5050505084600014611798576117988733876121a8565b604051636ce5768960e11b81526001600160a01b038881166004830152336024830152604482018890527f0000000000000000000000000000000000000000000000000000000000000000169063d9caed1290606401600060405180830381600087803b1580156118b057600080fd5b505af11580156118c4573d6000803e3d6000fd5b50505050846000146118db576118db8733876121a8565b6040517fc640752d0000000000000000000000000000000000000000000000000000000081526001600160a01b0388811660048301523360248301527f0000000000000000000000000000000000000000000000000000000000000000169063c640752d90604401600060405180830381600087803b15801561195d57600080fd5b505af1158015611971573d6000803e3d6000fd5b5050505061197f8733612521565b604080518781526020810187905233916001600160a01b038a16917fa702ae6024e8b4c2b0eb162b1453dacb93cf6922f5a2d7236faed898c21148f8910160405180910390a350604051632ed56dff60e21b81526001600160a01b03838116600483015282811660248301528594507f0000000000000000000000000000000000000000000000000000000000000000169063bb55b7fc90604401600060405180830381600087803b158015611a3457600080fd5b505af1158015611a48573d6000803e3d6000fd5b5050600160005550929695505050505050565b60026000541415611aae5760405162461bcd60e51b815260206004820152601f60248201527f5265656e7472616e637947756172643a207265656e7472616e742063616c6c0060448201526064016101c2565b6002600055823382151580611ac257508315155b611b0e5760405162461bcd60e51b815260206004820152601960248201527f556e69742050726f746f636f6c3a205553454c4553535f54580000000000000060448201526064016101c2565b6012856001600160a01b031663313ce5676040518163ffffffff1660e01b815260040160206040518083038186803b158015611b4957600080fd5b505afa158015611b5d573d6000803e3d6000fd5b505050506040513d601f19601f82011682018060405250810190611b819190612880565b60ff161115611be05760405162461bcd60e51b815260206004820152602560248201527f556e69742050726f746f636f6c3a204e4f545f535550504f525445445f444543604482015264494d414c5360d81b60648201526084016101c2565b82611c7257604051638340f54960e01b81526001600160a01b038681166004830152336024830152604482018690527f00000000000000000000000000000000000000000000000000000000000000001690638340f54990606401600060405180830381600087803b158015611c5557600080fd5b505af1158015611c69573d6000803e3d6000fd5b50505050611dcd565b8315611d0157604051638340f54960e01b81526001600160a01b038681166004830152336024830152604482018690527f00000000000000000000000000000000000000000000000000000000000000001690638340f54990606401600060405180830381600087803b158015611ce857600080fd5b505af1158015611cfc573d6000803e3d6000fd5b505050505b6040517f5224372c0000000000000000000000000000000000000000000000000000000081526001600160a01b038681166004830152336024830152604482018590527f00000000000000000000000000000000000000000000000000000000000000001690635224372c90606401602060405180830381600087803b158015611d8a57600080fd5b505af1158015611d9e573d6000803e3d6000fd5b505050506040513d601f19601f82011682018060405250810190611dc29190612868565b50611dcd8533612521565b604080518581526020810185905233916001600160a01b038816917f6423b6056e64b3b29cb2d342362b47c26fa8d6877da27ea152354060df19b9bc910160405180910390a3604051632ed56dff60e21b81526001600160a01b03838116600483015282811660248301527f0000000000000000000000000000000000000000000000000000000000000000169063bb55b7fc90604401600060405180830381600087803b158015611e7e57600080fd5b505af1158015611e92573d6000803e3d6000fd5b5050600160005550505050505050565b60405163a6ea8b8760e01b81526001600160a01b038481166004830152838116602483015260009182917f0000000000000000000000000000000000000000000000000000000000000000169063a6ea8b879060440160206040518083038186803b158015611f1057600080fd5b505afa158015611f24573d6000803e3d6000fd5b505050506040513d601f19601f82011682018060405250810190611f489190612868565b905080611f59576000915050612015565b60405163e6bc046160e01b81526001600160a01b0386811660048301527f0000000000000000000000000000000000000000000000000000000000000000169063e6bc04619060240160206040518083038186803b158015611fba57600080fd5b505afa158015611fce573d6000803e3d6000fd5b505050506040513d601f19601f82011682018060405250810190611ff29190612868565b8361200583670de0b6b3a76400006129c7565b61200f91906128b9565b10159150505b9392505050565b6000806120298484610fdd565b9050612036848483611ea2565b6120825760405162461bcd60e51b815260206004820152601c60248201527f556e69742050726f746f636f6c3a20534146455f504f534954494f4e0000000060448201526064016101c2565b6040517f9d58644c0000000000000000000000000000000000000000000000000000000081526001600160a01b038581166004830152600091670de0b6b3a7640000917f00000000000000000000000000000000000000000000000000000000000000001690639d58644c9060240160206040518083038186803b15801561210957600080fd5b505afa15801561211d573d6000803e3d6000fd5b505050506040513d601f19601f820116820180604052508101906121419190612868565b61214b90846129c7565b61215591906128b9565b90506108ee81836129e6565b600080600083851115612199578461217985886129c7565b61218391906128b9565b925061218f83876129e6565b915083905061219f565b50849150835b93509350939050565b6040517f34c188b00000000000000000000000000000000000000000000000000000000081526001600160a01b0384811660048301528381166024830152604482018390526000917f0000000000000000000000000000000000000000000000000000000000000000909116906334c188b09060640160206040518083038186803b15801561223657600080fd5b505afa15801561224a573d6000803e3d6000fd5b505050506040513d601f19601f8201168201806040525081019061226e9190612868565b90507f00000000000000000000000000000000000000000000000000000000000000006001600160a01b0316633d1aa9637f00000000000000000000000000000000000000000000000000000000000000006001600160a01b031663e9cbd8226040518163ffffffff1660e01b815260040160206040518083038186803b1580156122f857600080fd5b505afa15801561230c573d6000803e3d6000fd5b505050506040513d601f19601f820116820180604052508101906123309190612741565b6040517fffffffff0000000000000000000000000000000000000000000000000000000060e084901b1681526001600160a01b039182166004820152908616602482015260448101849052606401600060405180830381600087803b15801561239857600080fd5b505af11580156123ac573d6000803e3d6000fd5b50506040517f1da649cf0000000000000000000000000000000000000000000000000000000081526001600160a01b038781166004830152868116602483015260448201869052600093507f0000000000000000000000000000000000000000000000000000000000000000169150631da649cf90606401602060405180830381600087803b15801561243e57600080fd5b505af1158015612452573d6000803e3d6000fd5b505050506040513d601f19601f820116820180604052508101906124769190612868565b90508061251a576040517f62b40f9f0000000000000000000000000000000000000000000000000000000081526001600160a01b03868116600483015285811660248301527f000000000000000000000000000000000000000000000000000000000000000016906362b40f9f90604401600060405180830381600087803b15801561250157600080fd5b505af1158015612515573d6000803e3d6000fd5b505050505b5050505050565b600061252d8383610fdd565b6040517ff3f481df0000000000000000000000000000000000000000000000000000000081526001600160a01b038581166004830152919250600091670de0b6b3a7640000917f00000000000000000000000000000000000000000000000000000000000000009091169063f3f481df9060240160206040518083038186803b1580156125b957600080fd5b505afa1580156125cd573d6000803e3d6000fd5b505050506040513d601f19601f820116820180604052508101906125f19190612868565b6125fb90846129c7565b61260591906128b9565b60405163a6ea8b8760e01b81526001600160a01b038681166004830152858116602483015291925082917f0000000000000000000000000000000000000000000000000000000000000000169063a6ea8b879060440160206040518083038186803b15801561267357600080fd5b505afa158015612687573d6000803e3d6000fd5b505050506040513d601f19601f820116820180604052508101906126ab9190612868565b111561271f5760405162461bcd60e51b815260206004820152602260248201527f556e69742050726f746f636f6c3a20554e444552434f4c4c41544552414c495a60448201527f454400000000000000000000000000000000000000000000000000000000000060648201526084016101c2565b50505050565b600060208284031215612736578081fd5b813561201581612a36565b600060208284031215612752578081fd5b815161201581612a36565b6000806040838503121561276f578081fd5b823561277a81612a36565b9150602083013561278a81612a36565b809150509250929050565b600080604083850312156127a7578182fd5b82356127b281612a36565b946020939093013593505050565b6000806000606084860312156127d4578081fd5b83356127df81612a36565b95602085013595506040909401359392505050565b600080600080600080600060e0888a03121561280e578283fd5b873561281981612a36565b9960208901359950604089013598606081013598506080810135975060a0810135965060c00135945092505050565b600060208284031215612859578081fd5b81518015158114612015578182fd5b600060208284031215612879578081fd5b5051919050565b600060208284031215612891578081fd5b815160ff81168114612015578182fd5b600082198211156128b4576128b4612a20565b500190565b6000826128d457634e487b7160e01b81526012600452602481fd5b500490565b600181815b808511156129145781600019048211156128fa576128fa612a20565b8085161561290757918102915b93841c93908002906128de565b509250929050565b600061201560ff841683600082612935575060016108f3565b81612942575060006108f3565b816001811461295857600281146129625761297e565b60019150506108f3565b60ff84111561297357612973612a20565b50506001821b6108f3565b5060208310610133831016604e8410600b84101617156129a1575081810a6108f3565b6129ab83836128d9565b80600019048211156129bf576129bf612a20565b029392505050565b60008160001904831182151516156129e1576129e1612a20565b500290565b6000828210156129f8576129f8612a20565b500390565b600060ff821660ff841680821015612a1757612a17612a20565b90039392505050565b634e487b7160e01b600052601160045260246000fd5b6001600160a01b0381168114612a4b57600080fd5b5056fea2646970667358221220c1164f29dd87b744bd9a516118e70f7ccdf327a5b9e84506148c10c8049a528264736f6c63430008040033",
  "devdoc": {
    "events": {
      "Buyout(address,address,address,uint256,uint256,uint256)": {
        "details": "Trigger when buyouts are happened*"
      }
    },
    "kind": "dev",
    "methods": {
      "buyout(address,address)": {
        "details": "Buyouts a position's collateral",
        "params": {
          "asset": "The address of the main collateral token of a position",
          "owner": "The owner of a position*"
        }
      },
      "setInitialCollateralRatioE18(address,uint256)": {
        "details": "Sets the initial collateral ratio",
        "params": {
          "asset": "The address of the main collateral token",
          "newValueE18": "The collateralization ratio (1e18 = 100%)*"
        }
      },
      "setLiquidationDiscountE18(address,uint256)": {
        "details": "Sets the liquidation discount",
        "params": {
          "asset": "The address of the main collateral token",
          "newValueE18": "The liquidation discount in 1e18 base*"
        }
      },
      "setLiquidationRatioE18(address,uint256)": {
        "details": "Sets the liquidation ratio",
        "params": {
          "asset": "The address of the main collateral token",
          "newValueE18": "The liquidation ratio (1e18 = 100%)*"
        }
      }
    },
    "version": 1
  },
  "userdoc": {
    "kind": "user",
    "methods": {
      "join(address,uint256,uint256)": {
        "notice": "Yes,"
      },
      "setInitialCollateralRatioE18(address,uint256)": {
        "notice": "Only manager is able to call this function"
      },
      "setLiquidationDiscountE18(address,uint256)": {
        "notice": "Only manager is able to call this function"
      },
      "setLiquidationRatioE18(address,uint256)": {
        "notice": "Only manager is able to call this function"
      }
    },
    "notice": "not sure why",
    "version": 1
  },
  "storageLayout": {
    "storage": [
      {
        "astId": 543,
        "contract": "contracts/lending/SuManager.sol:SuManager",
        "label": "_status",
        "offset": 0,
        "slot": "0",
        "type": "t_uint256"
      },
      {
        "astId": 6964,
        "contract": "contracts/lending/SuManager.sol:SuManager",
        "label": "initialCollateralRatioE18",
        "offset": 0,
        "slot": "1",
        "type": "t_mapping(t_address,t_uint256)"
      },
      {
        "astId": 6968,
        "contract": "contracts/lending/SuManager.sol:SuManager",
        "label": "liquidationRatioE18",
        "offset": 0,
        "slot": "2",
        "type": "t_mapping(t_address,t_uint256)"
      },
      {
        "astId": 6972,
        "contract": "contracts/lending/SuManager.sol:SuManager",
        "label": "liquidationDiscountE18",
        "offset": 0,
        "slot": "3",
        "type": "t_mapping(t_address,t_uint256)"
      },
      {
        "astId": 6975,
        "contract": "contracts/lending/SuManager.sol:SuManager",
        "label": "vaultParameters",
        "offset": 0,
        "slot": "4",
        "type": "t_contract(SuVaultParameters)8056"
      },
      {
        "astId": 6133,
        "contract": "contracts/lending/SuManager.sol:SuManager",
        "label": "suOracle",
        "offset": 0,
        "slot": "5",
        "type": "t_contract(ISuOracle)4936"
      }
    ],
    "types": {
      "t_address": {
        "encoding": "inplace",
        "label": "address",
        "numberOfBytes": "20"
      },
      "t_contract(ISuOracle)4936": {
        "encoding": "inplace",
        "label": "contract ISuOracle",
        "numberOfBytes": "20"
      },
      "t_contract(SuVaultParameters)8056": {
        "encoding": "inplace",
        "label": "contract SuVaultParameters",
        "numberOfBytes": "20"
      },
      "t_mapping(t_address,t_uint256)": {
        "encoding": "mapping",
        "key": "t_address",
        "label": "mapping(address => uint256)",
        "numberOfBytes": "32",
        "value": "t_uint256"
      },
      "t_uint256": {
        "encoding": "inplace",
        "label": "uint256",
        "numberOfBytes": "32"
      }
    }
  }
}