{
  "address": "0x7cC3beD76Ac8b0a973c2B01DF4a86fb8760f184b",
  "abi": [
    {
      "inputs": [
        {
          "internalType": "address",
          "name": "_vault",
          "type": "address"
        },
        {
          "internalType": "address",
          "name": "_suOracle",
          "type": "address"
        },
        {
          "internalType": "address",
          "name": "_cdpRegistry",
          "type": "address"
        }
      ],
      "stateMutability": "nonpayable",
      "type": "constructor"
    },
    {
      "anonymous": false,
      "inputs": [
        {
          "indexed": true,
          "internalType": "address",
          "name": "asset",
          "type": "address"
        },
        {
          "indexed": true,
          "internalType": "address",
          "name": "owner",
          "type": "address"
        },
        {
          "indexed": false,
          "internalType": "uint256",
          "name": "main",
          "type": "uint256"
        },
        {
          "indexed": false,
          "internalType": "uint256",
          "name": "stablecoin",
          "type": "uint256"
        }
      ],
      "name": "Exit",
      "type": "event"
    },
    {
      "anonymous": false,
      "inputs": [
        {
          "indexed": true,
          "internalType": "address",
          "name": "asset",
          "type": "address"
        },
        {
          "indexed": true,
          "internalType": "address",
          "name": "owner",
          "type": "address"
        },
        {
          "indexed": false,
          "internalType": "uint256",
          "name": "main",
          "type": "uint256"
        },
        {
          "indexed": false,
          "internalType": "uint256",
          "name": "stablecoin",
          "type": "uint256"
        }
      ],
      "name": "Join",
      "type": "event"
    },
    {
      "anonymous": false,
      "inputs": [
        {
          "indexed": true,
          "internalType": "address",
          "name": "asset",
          "type": "address"
        },
        {
          "indexed": true,
          "internalType": "address",
          "name": "owner",
          "type": "address"
        }
      ],
      "name": "LiquidationTriggered",
      "type": "event"
    },
    {
      "inputs": [],
      "name": "ACCESS_CONTROL_SINGLETON",
      "outputs": [
        {
          "internalType": "contract ISuAccessControl",
          "name": "",
          "type": "address"
        }
      ],
      "stateMutability": "view",
      "type": "function"
    },
    {
      "inputs": [],
      "name": "DENOMINATOR_1E5",
      "outputs": [
        {
          "internalType": "uint256",
          "name": "",
          "type": "uint256"
        }
      ],
      "stateMutability": "view",
      "type": "function"
    },
    {
      "inputs": [],
      "name": "MINTER_ROLE",
      "outputs": [
        {
          "internalType": "bytes32",
          "name": "",
          "type": "bytes32"
        }
      ],
      "stateMutability": "view",
      "type": "function"
    },
    {
      "inputs": [],
      "name": "Q112",
      "outputs": [
        {
          "internalType": "uint256",
          "name": "",
          "type": "uint256"
        }
      ],
      "stateMutability": "view",
      "type": "function"
    },
    {
      "inputs": [],
      "name": "VAULT_ACCESS_ROLE",
      "outputs": [
        {
          "internalType": "bytes32",
          "name": "",
          "type": "bytes32"
        }
      ],
      "stateMutability": "view",
      "type": "function"
    },
    {
      "inputs": [],
      "name": "cdpRegistry",
      "outputs": [
        {
          "internalType": "contract ISuCdpRegistry",
          "name": "",
          "type": "address"
        }
      ],
      "stateMutability": "view",
      "type": "function"
    },
    {
      "inputs": [
        {
          "internalType": "address",
          "name": "",
          "type": "address"
        }
      ],
      "name": "devaluationPeriod",
      "outputs": [
        {
          "internalType": "uint256",
          "name": "",
          "type": "uint256"
        }
      ],
      "stateMutability": "view",
      "type": "function"
    },
    {
      "inputs": [
        {
          "internalType": "address",
          "name": "asset",
          "type": "address"
        },
        {
          "internalType": "uint256",
          "name": "assetAmount",
          "type": "uint256"
        },
        {
          "internalType": "uint256",
          "name": "stablecoinAmount",
          "type": "uint256"
        }
      ],
      "name": "exit",
      "outputs": [
        {
          "internalType": "uint256",
          "name": "",
          "type": "uint256"
        }
      ],
      "stateMutability": "nonpayable",
      "type": "function"
    },
    {
      "inputs": [
        {
          "internalType": "address",
          "name": "asset",
          "type": "address"
        },
        {
          "internalType": "uint256",
          "name": "assetAmount",
          "type": "uint256"
        },
        {
          "internalType": "uint256",
          "name": "repayment",
          "type": "uint256"
        }
      ],
      "name": "exit_targetRepayment",
      "outputs": [
        {
          "internalType": "uint256",
          "name": "",
          "type": "uint256"
        }
      ],
      "stateMutability": "nonpayable",
      "type": "function"
    },
    {
      "inputs": [
        {
          "internalType": "address",
          "name": "asset",
          "type": "address"
        },
        {
          "internalType": "address",
          "name": "owner",
          "type": "address"
        }
      ],
      "name": "getCollateralUsdValue_q112",
      "outputs": [
        {
          "internalType": "uint256",
          "name": "",
          "type": "uint256"
        }
      ],
      "stateMutability": "view",
      "type": "function"
    },
    {
      "inputs": [
        {
          "internalType": "address",
          "name": "",
          "type": "address"
        }
      ],
      "name": "initialCollateralRatio",
      "outputs": [
        {
          "internalType": "uint256",
          "name": "",
          "type": "uint256"
        }
      ],
      "stateMutability": "view",
      "type": "function"
    },
    {
      "inputs": [
        {
          "internalType": "address",
          "name": "asset",
          "type": "address"
        },
        {
          "internalType": "address",
          "name": "owner",
          "type": "address"
        }
      ],
      "name": "isLiquidatablePosition",
      "outputs": [
        {
          "internalType": "bool",
          "name": "",
          "type": "bool"
        }
      ],
      "stateMutability": "view",
      "type": "function"
    },
    {
      "inputs": [
        {
          "internalType": "address",
          "name": "asset",
          "type": "address"
        },
        {
          "internalType": "uint256",
          "name": "assetAmount",
          "type": "uint256"
        },
        {
          "internalType": "uint256",
          "name": "stablecoinAmount",
          "type": "uint256"
        }
      ],
      "name": "join",
      "outputs": [],
      "stateMutability": "nonpayable",
      "type": "function"
    },
    {
      "inputs": [
        {
          "internalType": "address",
          "name": "",
          "type": "address"
        }
      ],
      "name": "liquidationDiscount",
      "outputs": [
        {
          "internalType": "uint256",
          "name": "",
          "type": "uint256"
        }
      ],
      "stateMutability": "view",
      "type": "function"
    },
    {
      "inputs": [
        {
          "internalType": "address",
          "name": "asset",
          "type": "address"
        },
        {
          "internalType": "address",
          "name": "owner",
          "type": "address"
        }
      ],
      "name": "liquidationPrice_q112",
      "outputs": [
        {
          "internalType": "uint256",
          "name": "",
          "type": "uint256"
        }
      ],
      "stateMutability": "view",
      "type": "function"
    },
    {
      "inputs": [
        {
          "internalType": "address",
          "name": "",
          "type": "address"
        }
      ],
      "name": "liquidationRatio",
      "outputs": [
        {
          "internalType": "uint256",
          "name": "",
          "type": "uint256"
        }
      ],
      "stateMutability": "view",
      "type": "function"
    },
    {
      "inputs": [],
      "name": "managerParameters",
      "outputs": [
        {
          "internalType": "contract ISuManagerParameters",
          "name": "",
          "type": "address"
        }
      ],
      "stateMutability": "view",
      "type": "function"
    },
    {
      "inputs": [
        {
          "internalType": "address",
          "name": "asset",
          "type": "address"
        },
        {
          "internalType": "uint256",
          "name": "stabilityFeeValue",
          "type": "uint256"
        },
        {
          "internalType": "uint256",
          "name": "liquidationFeeValue",
          "type": "uint256"
        },
        {
          "internalType": "uint256",
          "name": "initialCollateralRatioValue",
          "type": "uint256"
        },
        {
          "internalType": "uint256",
          "name": "liquidationRatioValue",
          "type": "uint256"
        },
        {
          "internalType": "uint256",
          "name": "liquidationDiscountValue",
          "type": "uint256"
        },
        {
          "internalType": "uint256",
          "name": "devaluationPeriodValue",
          "type": "uint256"
        },
        {
          "internalType": "uint256",
          "name": "stablecoinLimit",
          "type": "uint256"
        }
      ],
      "name": "setCollateral",
      "outputs": [],
      "stateMutability": "nonpayable",
      "type": "function"
    },
    {
      "inputs": [
        {
          "internalType": "address",
          "name": "asset",
          "type": "address"
        },
        {
          "internalType": "uint256",
          "name": "newValue",
          "type": "uint256"
        }
      ],
      "name": "setDevaluationPeriod",
      "outputs": [],
      "stateMutability": "nonpayable",
      "type": "function"
    },
    {
      "inputs": [
        {
          "internalType": "address",
          "name": "asset",
          "type": "address"
        },
        {
          "internalType": "uint256",
          "name": "newValue",
          "type": "uint256"
        }
      ],
      "name": "setInitialCollateralRatio",
      "outputs": [],
      "stateMutability": "nonpayable",
      "type": "function"
    },
    {
      "inputs": [
        {
          "internalType": "address",
          "name": "asset",
          "type": "address"
        },
        {
          "internalType": "uint256",
          "name": "newValue",
          "type": "uint256"
        }
      ],
      "name": "setLiquidationDiscount",
      "outputs": [],
      "stateMutability": "nonpayable",
      "type": "function"
    },
    {
      "inputs": [
        {
          "internalType": "address",
          "name": "asset",
          "type": "address"
        },
        {
          "internalType": "uint256",
          "name": "newValue",
          "type": "uint256"
        }
      ],
      "name": "setLiquidationRatio",
      "outputs": [],
      "stateMutability": "nonpayable",
      "type": "function"
    },
    {
      "inputs": [],
      "name": "suOracle",
      "outputs": [
        {
          "internalType": "address",
          "name": "",
          "type": "address"
        }
      ],
      "stateMutability": "view",
      "type": "function"
    },
    {
      "inputs": [
        {
          "internalType": "address",
          "name": "asset",
          "type": "address"
        },
        {
          "internalType": "address",
          "name": "owner",
          "type": "address"
        }
      ],
      "name": "triggerLiquidation",
      "outputs": [],
      "stateMutability": "nonpayable",
      "type": "function"
    },
    {
      "inputs": [
        {
          "internalType": "address",
          "name": "asset",
          "type": "address"
        },
        {
          "internalType": "address",
          "name": "owner",
          "type": "address"
        }
      ],
      "name": "utilizationRatio",
      "outputs": [
        {
          "internalType": "uint256",
          "name": "",
          "type": "uint256"
        }
      ],
      "stateMutability": "view",
      "type": "function"
    },
    {
      "inputs": [],
      "name": "vault",
      "outputs": [
        {
          "internalType": "contract ISuVault",
          "name": "",
          "type": "address"
        }
      ],
      "stateMutability": "view",
      "type": "function"
    },
    {
      "inputs": [],
      "name": "vaultParameters",
      "outputs": [
        {
          "internalType": "contract SuVaultParameters",
          "name": "",
          "type": "address"
        }
      ],
      "stateMutability": "view",
      "type": "function"
    },
    {
      "stateMutability": "payable",
      "type": "receive"
    }
  ],
  "transactionHash": "0x165089bdbc568284c2a7fd5df676cc3f0645659dd76e107090e42c9d51d26793",
  "args": [
    "0x58B02d8b2738d5701E36d0827F91C0B59C394906",
    "0x97FF42B38bE42aBcaEb8ea569513A6877286b232",
    "0x7A7bE43c72f77eBEa449eF07ACED00586d9E6f57"
  ],
  "numDeployments": 1,
  "solcInputHash": "d1c3e992972545e414ac7f62b849d9a1",
  "bytecode": "0x6101006040523480156200001257600080fd5b5060405162003082380380620030828339810160408190526200003591620001ec565b82806001600160a01b03166303ee9f226040518163ffffffff1660e01b815260040160206040518083038186803b1580156200007057600080fd5b505afa15801562000085573d6000803e3d6000fd5b505050506040513d601f19601f82011682018060405250810190620000ab91906200023f565b600160005560601b6001600160601b031916608052600580546001600160a01b0319166001600160a01b0392909216919091179055308015801590620000f957506001600160a01b03821615155b6200014b5760405162461bcd60e51b815260206004820152601b60248201527f556e69742050726f746f636f6c3a20494e56414c49445f41524753000000000060448201526064015b60405180910390fd5b6001600160a01b038316620001a35760405162461bcd60e51b815260206004820152601760248201527f494e56414c49445f415247533a2053555f4f5241434c45000000000000000000604482015260640162000142565b600680546001600160a01b039094166001600160a01b0319909416939093179092556001600160601b0319606092831b811660c05292821b831660a052901b1660e0526200027e565b60008060006060848603121562000201578283fd5b83516200020e8162000265565b6020850151909350620002218162000265565b6040850151909250620002348162000265565b809150509250925092565b60006020828403121562000251578081fd5b81516200025e8162000265565b9392505050565b6001600160a01b03811681146200027b57600080fd5b50565b60805160601c60a05160601c60c05160601c60e05160601c612cd0620003b260003960008181610488015281816114e8015261203701526000818161035601528181610719015281816117ef0152818161217501526127b001526000818161061d0152818161066b0152818161093b01528181610b9b01528181610d18015281816111f6015281816112c90152818161136401528181611411015281816118e401528181611cc401528181611d4d01528181611e1001528181611e9f01528181611f41015281816120cb0152818161226a015281816123300152818161242e015281816124ae015281816124dd01528181612635015281816126f9015261287401526000818161021901528181610a1201528181610e0e01528181610fb70152818161156f01526119a20152612cd06000f3fe6080604052600436106101b05760003560e01c8063a20f9cb3116100ec578063bbdc95311161008a578063d539139311610064578063d539139314610597578063d709b4b0146105cb578063ea36380a146105eb578063fbfa77cf1461060b57600080fd5b8063bbdc953114610537578063bf1b8dd314610557578063d4796d121461057757600080fd5b8063aca345ee116100c6578063aca345ee146104aa578063b1a4cf7f146104ca578063b7fc3ada146104ea578063b85c44961461050a57600080fd5b8063a20f9cb314610436578063a3d84b5b14610456578063ab2a2a821461047657600080fd5b80631af3be18116101595780633bf7a83e116101335780633bf7a83e146103ba5780633bffbbe2146103d25780634265607c146103ff578063971182c61461041f57600080fd5b80631af3be18146103445780631c71309814610378578063252d040e1461039a57600080fd5b8063134a02dd1161018a578063134a02dd146102b357806314c376dc146102e357806315a04ea21461031757600080fd5b806303ee9f22146102075780630aaddb501461025857806312dc1dcc1461029357600080fd5b366102025760405162461bcd60e51b815260206004820152601960248201527f556e69742050726f746f636f6c3a20524553545249435445440000000000000060448201526064015b60405180910390fd5b600080fd5b34801561021357600080fd5b5061023b7f000000000000000000000000000000000000000000000000000000000000000081565b6040516001600160a01b0390911681526020015b60405180910390f35b34801561026457600080fd5b50610285610273366004612968565b60046020526000908152604090205481565b60405190815260200161024f565b34801561029f57600080fd5b506102856102ae3660046129a0565b61063f565b3480156102bf57600080fd5b506102d36102ce3660046129a0565b6109d4565b604051901515815260200161024f565b3480156102ef57600080fd5b506102857fe965846df3dd5b1dfa65f58e31477079e90140e0908b6dd31b5aead5a57cf36581565b34801561032357600080fd5b50610285610332366004612968565b60036020526000908152604090205481565b34801561035057600080fd5b5061023b7f000000000000000000000000000000000000000000000000000000000000000081565b34801561038457600080fd5b506103986103933660046129d8565b6109f6565b005b3480156103a657600080fd5b506102856103b53660046129a0565b610b6f565b3480156103c657600080fd5b50610285600160701b81565b3480156103de57600080fd5b506102856103ed366004612968565b60026020526000908152604090205481565b34801561040b57600080fd5b5061028561041a3660046129a0565b610cec565b34801561042b57600080fd5b50610285620186a081565b34801561044257600080fd5b5060065461023b906001600160a01b031681565b34801561046257600080fd5b50610285610471366004612a03565b610dcc565b34801561048257600080fd5b5061023b7f000000000000000000000000000000000000000000000000000000000000000081565b3480156104b657600080fd5b5060055461023b906001600160a01b031681565b3480156104d657600080fd5b506103986104e5366004612a37565b610df2565b3480156104f657600080fd5b506103986105053660046129d8565b610f9b565b34801561051657600080fd5b50610285610525366004612968565b60016020526000908152604090205481565b34801561054357600080fd5b50610285610552366004612a03565b611119565b34801561056357600080fd5b506103986105723660046129d8565b611553565b34801561058357600080fd5b506103986105923660046129a0565b6116f2565b3480156105a357600080fd5b506102857f9f2df0fed2c77648de5860a4cc508cd0818c85b8b8a1ab4ceeef8d981c8956a681565b3480156105d757600080fd5b506103986105e63660046129d8565b611986565b3480156105f757600080fd5b50610398610606366004612a03565b611b0e565b34801561061757600080fd5b5061023b7f000000000000000000000000000000000000000000000000000000000000000081565b60405163d6446d4360e01b81526001600160a01b038381166004830152828116602483015260009182917f0000000000000000000000000000000000000000000000000000000000000000169063d6446d439060440160206040518083038186803b1580156106ad57600080fd5b505afa1580156106c1573d6000803e3d6000fd5b505050506040513d601f19601f820116820180604052508101906106e59190612ab4565b9050806106f7576000199150506109ce565b604051631dffddf160e11b81526001600160a01b0385811660048301526000917f000000000000000000000000000000000000000000000000000000000000000090911690633bffbbe29060240160206040518083038186803b15801561075d57600080fd5b505afa158015610771573d6000803e3d6000fd5b505050506040513d601f19601f820116820180604052508101906107959190612ab4565b600160701b6107a5846064612c13565b6107af9190612c13565b6107b99190612b05565b90506012856001600160a01b031663313ce5676040518163ffffffff1660e01b815260040160206040518083038186803b1580156107f657600080fd5b505afa15801561080a573d6000803e3d6000fd5b505050506040513d601f19601f8201168201806040525081019061082e9190612acc565b60ff16111561088d5760405162461bcd60e51b815260206004820152602560248201527f556e69742050726f746f636f6c3a204e4f545f535550504f525445445f444543604482015264494d414c5360d81b60648201526084016101f9565b846001600160a01b031663313ce5676040518163ffffffff1660e01b815260040160206040518083038186803b1580156108c657600080fd5b505afa1580156108da573d6000803e3d6000fd5b505050506040513d601f19601f820116820180604052508101906108fe9190612acc565b610909906012612c49565b61091490600a612b68565b60405163728f08cf60e11b81526001600160a01b03878116600483015286811660248301527f0000000000000000000000000000000000000000000000000000000000000000169063e51e119e9060440160206040518083038186803b15801561097d57600080fd5b505afa158015610991573d6000803e3d6000fd5b505050506040513d601f19601f820116820180604052508101906109b59190612ab4565b6109bf9083612b05565b6109c99190612b05565b925050505b92915050565b6000806109e18484610b6f565b90506109ee84848361209f565b949350505050565b604051632474521560e21b8152600060048201523360248201527f00000000000000000000000000000000000000000000000000000000000000006001600160a01b0316906391d148549060440160206040518083038186803b158015610a5c57600080fd5b505afa158015610a70573d6000803e3d6000fd5b505050506040513d601f19601f82011682018060405250810190610a949190612a94565b610ae05760405162461bcd60e51b815260206004820152601d60248201527f5375417574683a206f6e6c794f776e657220415554485f4641494c454400000060448201526064016101f9565b80610b535760405162461bcd60e51b815260206004820152602a60248201527f556e69742050726f746f636f6c3a20494e434f52524543545f444556414c554160448201527f54494f4e5f56414c55450000000000000000000000000000000000000000000060648201526084016101f9565b6001600160a01b03909116600090815260046020526040902055565b60405163728f08cf60e11b81526001600160a01b038381166004830152828116602483015260009182917f0000000000000000000000000000000000000000000000000000000000000000169063e51e119e9060440160206040518083038186803b158015610bdd57600080fd5b505afa158015610bf1573d6000803e3d6000fd5b505050506040513d601f19601f82011682018060405250810190610c159190612ab4565b6006546040517f356efd980000000000000000000000000000000000000000000000000000000081526001600160a01b038781166004830152929350600092670de0b6b3a764000092859291169063356efd989060240160206040518083038186803b158015610c8457600080fd5b505afa158015610c98573d6000803e3d6000fd5b505050506040513d601f19601f82011682018060405250810190610cbc9190612ab4565b610cc69190612c13565b610cd09190612b05565b90506000610ce2600160701b83612c13565b9695505050505050565b60405163d6446d4360e01b81526001600160a01b038381166004830152828116602483015260009182917f0000000000000000000000000000000000000000000000000000000000000000169063d6446d439060440160206040518083038186803b158015610d5a57600080fd5b505afa158015610d6e573d6000803e3d6000fd5b505050506040513d601f19601f82011682018060405250810190610d929190612ab4565b905080610da35760009150506109ce565b6000610daf8585610b6f565b905080600160701b610dc2846064612c13565b6109bf9190612c13565b600080610dda85338561221f565b9050610de7858583611119565b9150505b9392505050565b604051632474521560e21b8152600060048201523360248201527f00000000000000000000000000000000000000000000000000000000000000006001600160a01b0316906391d148549060440160206040518083038186803b158015610e5857600080fd5b505afa158015610e6c573d6000803e3d6000fd5b505050506040513d601f19601f82011682018060405250810190610e909190612a94565b610edc5760405162461bcd60e51b815260206004820152601d60248201527f5375417574683a206f6e6c794f776e657220415554485f4641494c454400000060448201526064016101f9565b6005546040517f38507ff50000000000000000000000000000000000000000000000000000000081526001600160a01b038a81166004830152602482018a90526044820189905260648201849052909116906338507ff590608401600060405180830381600087803b158015610f5157600080fd5b505af1158015610f65573d6000803e3d6000fd5b50505050610f738886611986565b610f7d8885611553565b610f8788836109f6565b610f918884610f9b565b5050505050505050565b604051632474521560e21b8152600060048201523360248201527f00000000000000000000000000000000000000000000000000000000000000006001600160a01b0316906391d148549060440160206040518083038186803b15801561100157600080fd5b505afa158015611015573d6000803e3d6000fd5b505050506040513d601f19601f820116820180604052508101906110399190612a94565b6110855760405162461bcd60e51b815260206004820152601d60248201527f5375417574683a206f6e6c794f776e657220415554485f4641494c454400000060448201526064016101f9565b620186a081106110fd5760405162461bcd60e51b815260206004820152602760248201527f556e69742050726f746f636f6c3a20494e434f52524543545f444953434f554e60448201527f545f56414c55450000000000000000000000000000000000000000000000000060648201526084016101f9565b6001600160a01b03909116600090815260036020526040902055565b60006002600054141561116e5760405162461bcd60e51b815260206004820152601f60248201527f5265656e7472616e637947756172643a207265656e7472616e742063616c6c0060448201526064016101f9565b600260005583338415158061118257508315155b6111ce5760405162461bcd60e51b815260206004820152601960248201527f556e69742050726f746f636f6c3a205553454c4553535f54580000000000000060448201526064016101f9565b604051634ac1c33d60e01b81526001600160a01b0387811660048301523360248301526000917f000000000000000000000000000000000000000000000000000000000000000090911690634ac1c33d9060440160206040518083038186803b15801561123a57600080fd5b505afa15801561124e573d6000803e3d6000fd5b505050506040513d601f19601f820116820180604052508101906112729190612ab4565b905080851115611280578094505b85611295576112908733876123e4565b611477565b8481141561133857604051636ce5768960e11b81526001600160a01b038881166004830152336024830152604482018890527f0000000000000000000000000000000000000000000000000000000000000000169063d9caed1290606401600060405180830381600087803b15801561130d57600080fd5b505af1158015611321573d6000803e3d6000fd5b5050505084600014611290576112908733876123e4565b604051636ce5768960e11b81526001600160a01b038881166004830152336024830152604482018890527f0000000000000000000000000000000000000000000000000000000000000000169063d9caed1290606401600060405180830381600087803b1580156113a857600080fd5b505af11580156113bc573d6000803e3d6000fd5b50505050846000146113d3576113d38733876123e4565b6040517fc640752d0000000000000000000000000000000000000000000000000000000081526001600160a01b0388811660048301523360248301527f0000000000000000000000000000000000000000000000000000000000000000169063c640752d90604401600060405180830381600087803b15801561145557600080fd5b505af1158015611469573d6000803e3d6000fd5b50505050611477873361275d565b604080518781526020810187905233916001600160a01b038a16917fa702ae6024e8b4c2b0eb162b1453dacb93cf6922f5a2d7236faed898c21148f8910160405180910390a350604051632ed56dff60e21b81526001600160a01b03838116600483015282811660248301528594507f0000000000000000000000000000000000000000000000000000000000000000169063bb55b7fc90604401600060405180830381600087803b15801561152c57600080fd5b505af1158015611540573d6000803e3d6000fd5b5050600160005550929695505050505050565b604051632474521560e21b8152600060048201523360248201527f00000000000000000000000000000000000000000000000000000000000000006001600160a01b0316906391d148549060440160206040518083038186803b1580156115b957600080fd5b505afa1580156115cd573d6000803e3d6000fd5b505050506040513d601f19601f820116820180604052508101906115f19190612a94565b61163d5760405162461bcd60e51b815260206004820152601d60248201527f5375417574683a206f6e6c794f776e657220415554485f4641494c454400000060448201526064016101f9565b801580159061166457506001600160a01b0382166000908152600160205260409020548110155b6116d65760405162461bcd60e51b815260206004820152603060248201527f556e69742050726f746f636f6c3a20494e434f52524543545f434f4c4c41544560448201527f52414c495a4154494f4e5f56414c55450000000000000000000000000000000060648201526084016101f9565b6001600160a01b03909116600090815260026020526040902055565b600260005414156117455760405162461bcd60e51b815260206004820152601f60248201527f5265656e7472616e637947756172643a207265656e7472616e742063616c6c0060448201526064016101f9565b600260009081556117568383610b6f565b905061176383838361209f565b6117af5760405162461bcd60e51b815260206004820152601c60248201527f556e69742050726f746f636f6c3a20534146455f504f534954494f4e0000000060448201526064016101f9565b6040517f15a04ea20000000000000000000000000000000000000000000000000000000081526001600160a01b038481166004830152600091620186a0917f000000000000000000000000000000000000000000000000000000000000000016906315a04ea29060240160206040518083038186803b15801561183157600080fd5b505afa158015611845573d6000803e3d6000fd5b505050506040513d601f19601f820116820180604052508101906118699190612ab4565b6118739084612c13565b61187d9190612b05565b90506000600160701b6118908385612c32565b61189a9190612b05565b6040517f742a326e0000000000000000000000000000000000000000000000000000000081526001600160a01b0387811660048301528681166024830152604482018390529192507f00000000000000000000000000000000000000000000000000000000000000009091169063742a326e90606401600060405180830381600087803b15801561192a57600080fd5b505af115801561193e573d6000803e3d6000fd5b50506040516001600160a01b038088169350881691507f5b79a897d30813a62a1f95ba180d3320d3701d96605708b81105e00719a069e490600090a350506001600055505050565b604051632474521560e21b8152600060048201523360248201527f00000000000000000000000000000000000000000000000000000000000000006001600160a01b0316906391d148549060440160206040518083038186803b1580156119ec57600080fd5b505afa158015611a00573d6000803e3d6000fd5b505050506040513d601f19601f82011682018060405250810190611a249190612a94565b611a705760405162461bcd60e51b815260206004820152601d60248201527f5375417574683a206f6e6c794f776e657220415554485f4641494c454400000060448201526064016101f9565b8015801590611a80575060648111155b611af25760405162461bcd60e51b815260206004820152603060248201527f556e69742050726f746f636f6c3a20494e434f52524543545f434f4c4c41544560448201527f52414c495a4154494f4e5f56414c55450000000000000000000000000000000060648201526084016101f9565b6001600160a01b03909116600090815260016020526040902055565b60026000541415611b615760405162461bcd60e51b815260206004820152601f60248201527f5265656e7472616e637947756172643a207265656e7472616e742063616c6c0060448201526064016101f9565b6002600055823382151580611b7557508315155b611bc15760405162461bcd60e51b815260206004820152601960248201527f556e69742050726f746f636f6c3a205553454c4553535f54580000000000000060448201526064016101f9565b6012856001600160a01b031663313ce5676040518163ffffffff1660e01b815260040160206040518083038186803b158015611bfc57600080fd5b505afa158015611c10573d6000803e3d6000fd5b505050506040513d601f19601f82011682018060405250810190611c349190612acc565b60ff161115611c935760405162461bcd60e51b815260206004820152602560248201527f556e69742050726f746f636f6c3a204e4f545f535550504f525445445f444543604482015264494d414c5360d81b60648201526084016101f9565b82611d2557604051638340f54960e01b81526001600160a01b038681166004830152336024830152604482018690527f00000000000000000000000000000000000000000000000000000000000000001690638340f54990606401600060405180830381600087803b158015611d0857600080fd5b505af1158015611d1c573d6000803e3d6000fd5b50505050611fca565b604051634ac1c33d60e01b81526001600160a01b0386811660048301523360248301526000917f000000000000000000000000000000000000000000000000000000000000000090911690634ac1c33d9060440160206040518083038186803b158015611d9157600080fd5b505afa158015611da5573d6000803e3d6000fd5b505050506040513d601f19601f82011682018060405250810190611dc99190612ab4565b1515905080611e6d576040517fe0ede1cd0000000000000000000000000000000000000000000000000000000081526001600160a01b0387811660048301523360248301527f0000000000000000000000000000000000000000000000000000000000000000169063e0ede1cd90604401600060405180830381600087803b158015611e5457600080fd5b505af1158015611e68573d6000803e3d6000fd5b505050505b8415611efc57604051638340f54960e01b81526001600160a01b038781166004830152336024830152604482018790527f00000000000000000000000000000000000000000000000000000000000000001690638340f54990606401600060405180830381600087803b158015611ee357600080fd5b505af1158015611ef7573d6000803e3d6000fd5b505050505b6040517f5224372c0000000000000000000000000000000000000000000000000000000081526001600160a01b038781166004830152336024830152604482018690527f00000000000000000000000000000000000000000000000000000000000000001690635224372c90606401602060405180830381600087803b158015611f8557600080fd5b505af1158015611f99573d6000803e3d6000fd5b505050506040513d601f19601f82011682018060405250810190611fbd9190612ab4565b50611fc8863361275d565b505b604080518581526020810185905233916001600160a01b038816917f6423b6056e64b3b29cb2d342362b47c26fa8d6877da27ea152354060df19b9bc910160405180910390a3604051632ed56dff60e21b81526001600160a01b03838116600483015282811660248301527f0000000000000000000000000000000000000000000000000000000000000000169063bb55b7fc90604401600060405180830381600087803b15801561207b57600080fd5b505af115801561208f573d6000803e3d6000fd5b5050600160005550505050505050565b60405163d6446d4360e01b81526001600160a01b038481166004830152838116602483015260009182917f0000000000000000000000000000000000000000000000000000000000000000169063d6446d439060440160206040518083038186803b15801561210d57600080fd5b505afa158015612121573d6000803e3d6000fd5b505050506040513d601f19601f820116820180604052508101906121459190612ab4565b905080612156576000915050610deb565b604051631dffddf160e11b81526001600160a01b0386811660048301527f00000000000000000000000000000000000000000000000000000000000000001690633bffbbe29060240160206040518083038186803b1580156121b757600080fd5b505afa1580156121cb573d6000803e3d6000fd5b505050506040513d601f19601f820116820180604052508101906121ef9190612ab4565b83600160701b612200846064612c13565b61220a9190612c13565b6122149190612b05565b101595945050505050565b6040517f88ad7a610000000000000000000000000000000000000000000000000000000081526001600160a01b038481166004830152838116602483015260009182916301e13380917f0000000000000000000000000000000000000000000000000000000000000000909116906388ad7a619060440160206040518083038186803b1580156122ae57600080fd5b505afa1580156122c2573d6000803e3d6000fd5b505050506040513d601f19601f820116820180604052508101906122e69190612ab4565b6122f09042612c32565b6040517fd4b93dbe0000000000000000000000000000000000000000000000000000000081526001600160a01b03888116600483015287811660248301527f0000000000000000000000000000000000000000000000000000000000000000169063d4b93dbe9060440160206040518083038186803b15801561237257600080fd5b505afa158015612386573d6000803e3d6000fd5b505050506040513d601f19601f820116820180604052508101906123aa9190612ab4565b6123b49190612c13565b6123be9190612b05565b90506123cd81620186a0612aed565b6123da620186a085612c13565b610de79190612b05565b6040517f7ca87cb60000000000000000000000000000000000000000000000000000000081526001600160a01b0384811660048301528381166024830152604482018390526000917f000000000000000000000000000000000000000000000000000000000000000090911690637ca87cb69060640160206040518083038186803b15801561247257600080fd5b505afa158015612486573d6000803e3d6000fd5b505050506040513d601f19601f820116820180604052508101906124aa9190612ab4565b90507f00000000000000000000000000000000000000000000000000000000000000006001600160a01b0316633d1aa9637f00000000000000000000000000000000000000000000000000000000000000006001600160a01b031663e9cbd8226040518163ffffffff1660e01b815260040160206040518083038186803b15801561253457600080fd5b505afa158015612548573d6000803e3d6000fd5b505050506040513d601f19601f8201168201806040525081019061256c9190612984565b6040517fffffffff0000000000000000000000000000000000000000000000000000000060e084901b1681526001600160a01b039182166004820152908616602482015260448101849052606401600060405180830381600087803b1580156125d457600080fd5b505af11580156125e8573d6000803e3d6000fd5b50506040517f1da649cf0000000000000000000000000000000000000000000000000000000081526001600160a01b038781166004830152868116602483015260448201869052600093507f0000000000000000000000000000000000000000000000000000000000000000169150631da649cf90606401602060405180830381600087803b15801561267a57600080fd5b505af115801561268e573d6000803e3d6000fd5b505050506040513d601f19601f820116820180604052508101906126b29190612ab4565b905080612756576040517f62b40f9f0000000000000000000000000000000000000000000000000000000081526001600160a01b03868116600483015285811660248301527f000000000000000000000000000000000000000000000000000000000000000016906362b40f9f90604401600060405180830381600087803b15801561273d57600080fd5b505af1158015612751573d6000803e3d6000fd5b505050505b5050505050565b60006127698383610b6f565b6040517fb85c44960000000000000000000000000000000000000000000000000000000081526001600160a01b038581166004830152919250600091606491600160701b917f0000000000000000000000000000000000000000000000000000000000000000169063b85c44969060240160206040518083038186803b1580156127f257600080fd5b505afa158015612806573d6000803e3d6000fd5b505050506040513d601f19601f8201168201806040525081019061282a9190612ab4565b6128349085612c13565b61283e9190612b05565b6128489190612b05565b60405163d6446d4360e01b81526001600160a01b038681166004830152858116602483015291925082917f0000000000000000000000000000000000000000000000000000000000000000169063d6446d439060440160206040518083038186803b1580156128b657600080fd5b505afa1580156128ca573d6000803e3d6000fd5b505050506040513d601f19601f820116820180604052508101906128ee9190612ab4565b11156129625760405162461bcd60e51b815260206004820152602260248201527f556e69742050726f746f636f6c3a20554e444552434f4c4c41544552414c495a60448201527f454400000000000000000000000000000000000000000000000000000000000060648201526084016101f9565b50505050565b600060208284031215612979578081fd5b8135610deb81612c82565b600060208284031215612995578081fd5b8151610deb81612c82565b600080604083850312156129b2578081fd5b82356129bd81612c82565b915060208301356129cd81612c82565b809150509250929050565b600080604083850312156129ea578182fd5b82356129f581612c82565b946020939093013593505050565b600080600060608486031215612a17578081fd5b8335612a2281612c82565b95602085013595506040909401359392505050565b600080600080600080600080610100898b031215612a53578384fd5b8835612a5e81612c82565b9a60208a01359a5060408a013599606081013599506080810135985060a0810135975060c0810135965060e00135945092505050565b600060208284031215612aa5578081fd5b81518015158114610deb578182fd5b600060208284031215612ac5578081fd5b5051919050565b600060208284031215612add578081fd5b815160ff81168114610deb578182fd5b60008219821115612b0057612b00612c6c565b500190565b600082612b2057634e487b7160e01b81526012600452602481fd5b500490565b600181815b80851115612b60578160001904821115612b4657612b46612c6c565b80851615612b5357918102915b93841c9390800290612b2a565b509250929050565b6000610deb60ff841683600082612b81575060016109ce565b81612b8e575060006109ce565b8160018114612ba45760028114612bae57612bca565b60019150506109ce565b60ff841115612bbf57612bbf612c6c565b50506001821b6109ce565b5060208310610133831016604e8410600b8410161715612bed575081810a6109ce565b612bf78383612b25565b8060001904821115612c0b57612c0b612c6c565b029392505050565b6000816000190483118215151615612c2d57612c2d612c6c565b500290565b600082821015612c4457612c44612c6c565b500390565b600060ff821660ff841680821015612c6357612c63612c6c565b90039392505050565b634e487b7160e01b600052601160045260246000fd5b6001600160a01b0381168114612c9757600080fd5b5056fea2646970667358221220a24b69c08edb415a65591c12b9a804a7eae28e0832de65f52070cd9d6e1a316764736f6c63430008040033",
  "devdoc": {
    "kind": "dev",
    "methods": {
      "setDevaluationPeriod(address,uint256)": {
        "details": "Sets the devaluation period of collateral after liquidation",
        "params": {
          "asset": "The address of the main collateral token",
          "newValue": "The devaluation period in blocks*"
        }
      },
      "setInitialCollateralRatio(address,uint256)": {
        "details": "Sets the initial collateral ratio",
        "params": {
          "asset": "The address of the main collateral token",
          "newValue": "The collateralization ratio (0 decimals)*"
        }
      },
      "setLiquidationDiscount(address,uint256)": {
        "details": "Sets the liquidation discount",
        "params": {
          "asset": "The address of the main collateral token",
          "newValue": "The liquidation discount (3 decimals)*"
        }
      },
      "setLiquidationRatio(address,uint256)": {
        "details": "Sets the liquidation ratio",
        "params": {
          "asset": "The address of the main collateral token",
          "newValue": "The liquidation ratio (0 decimals)*"
        }
      }
    },
    "version": 1
  },
  "userdoc": {
    "kind": "user",
    "methods": {
      "Q112()": {
        "notice": "float standard https://en.wikipedia.org/wiki/Q_(number_format)"
      },
      "exit_targetRepayment(address,uint256,uint256)": {
        "notice": "UX convenience function"
      },
      "join(address,uint256,uint256)": {
        "notice": "Yes,"
      },
      "setDevaluationPeriod(address,uint256)": {
        "notice": "Only manager is able to call this function"
      },
      "setInitialCollateralRatio(address,uint256)": {
        "notice": "Only manager is able to call this function"
      },
      "setLiquidationDiscount(address,uint256)": {
        "notice": "Only manager is able to call this function"
      },
      "setLiquidationRatio(address,uint256)": {
        "notice": "Only manager is able to call this function"
      }
    },
    "notice": "not sure why",
    "version": 1
  },
  "storageLayout": {
    "storage": [
      {
        "astId": 543,
        "contract": "contracts/lending/SuManager.sol:SuManager",
        "label": "_status",
        "offset": 0,
        "slot": "0",
        "type": "t_uint256"
      },
      {
        "astId": 5911,
        "contract": "contracts/lending/SuManager.sol:SuManager",
        "label": "initialCollateralRatio",
        "offset": 0,
        "slot": "1",
        "type": "t_mapping(t_address,t_uint256)"
      },
      {
        "astId": 5915,
        "contract": "contracts/lending/SuManager.sol:SuManager",
        "label": "liquidationRatio",
        "offset": 0,
        "slot": "2",
        "type": "t_mapping(t_address,t_uint256)"
      },
      {
        "astId": 5919,
        "contract": "contracts/lending/SuManager.sol:SuManager",
        "label": "liquidationDiscount",
        "offset": 0,
        "slot": "3",
        "type": "t_mapping(t_address,t_uint256)"
      },
      {
        "astId": 5923,
        "contract": "contracts/lending/SuManager.sol:SuManager",
        "label": "devaluationPeriod",
        "offset": 0,
        "slot": "4",
        "type": "t_mapping(t_address,t_uint256)"
      },
      {
        "astId": 5926,
        "contract": "contracts/lending/SuManager.sol:SuManager",
        "label": "vaultParameters",
        "offset": 0,
        "slot": "5",
        "type": "t_contract(SuVaultParameters)7180"
      },
      {
        "astId": 5094,
        "contract": "contracts/lending/SuManager.sol:SuManager",
        "label": "suOracle",
        "offset": 0,
        "slot": "6",
        "type": "t_address"
      }
    ],
    "types": {
      "t_address": {
        "encoding": "inplace",
        "label": "address",
        "numberOfBytes": "20"
      },
      "t_contract(SuVaultParameters)7180": {
        "encoding": "inplace",
        "label": "contract SuVaultParameters",
        "numberOfBytes": "20"
      },
      "t_mapping(t_address,t_uint256)": {
        "encoding": "mapping",
        "key": "t_address",
        "label": "mapping(address => uint256)",
        "numberOfBytes": "32",
        "value": "t_uint256"
      },
      "t_uint256": {
        "encoding": "inplace",
        "label": "uint256",
        "numberOfBytes": "32"
      }
    }
  }
}