{
  "address": "0xEE2687Df13758ae7e827CF8e4aD6E933b88801C2",
  "abi": [
    {
      "inputs": [],
      "name": "ACCESS_CONTROL_SINGLETON",
      "outputs": [
        {
          "internalType": "contract ISuAccessControl",
          "name": "",
          "type": "address"
        }
      ],
      "stateMutability": "view",
      "type": "function"
    },
    {
      "inputs": [],
      "name": "LIQUIDATION_ACCESS_ROLE",
      "outputs": [
        {
          "internalType": "bytes32",
          "name": "",
          "type": "bytes32"
        }
      ],
      "stateMutability": "view",
      "type": "function"
    },
    {
      "inputs": [],
      "name": "MINTER_ROLE",
      "outputs": [
        {
          "internalType": "bytes32",
          "name": "",
          "type": "bytes32"
        }
      ],
      "stateMutability": "view",
      "type": "function"
    },
    {
      "inputs": [],
      "name": "VAULT_ACCESS_ROLE",
      "outputs": [
        {
          "internalType": "bytes32",
          "name": "",
          "type": "bytes32"
        }
      ],
      "stateMutability": "view",
      "type": "function"
    },
    {
      "inputs": [
        {
          "internalType": "address",
          "name": "",
          "type": "address"
        }
      ],
      "name": "assetToOracle",
      "outputs": [
        {
          "internalType": "uint256",
          "name": "",
          "type": "uint256"
        }
      ],
      "stateMutability": "view",
      "type": "function"
    },
    {
      "inputs": [
        {
          "internalType": "address",
          "name": "asset",
          "type": "address"
        }
      ],
      "name": "getUsdPrice1e18",
      "outputs": [
        {
          "internalType": "uint256",
          "name": "",
          "type": "uint256"
        }
      ],
      "stateMutability": "view",
      "type": "function"
    },
    {
      "inputs": [
        {
          "internalType": "address",
          "name": "_authControl",
          "type": "address"
        }
      ],
      "name": "initialize",
      "outputs": [],
      "stateMutability": "nonpayable",
      "type": "function"
    },
    {
      "inputs": [
        {
          "internalType": "uint256",
          "name": "",
          "type": "uint256"
        }
      ],
      "name": "oracleImplementations",
      "outputs": [
        {
          "internalType": "contract ISuOracle",
          "name": "",
          "type": "address"
        }
      ],
      "stateMutability": "view",
      "type": "function"
    },
    {
      "inputs": [
        {
          "internalType": "address[]",
          "name": "assets",
          "type": "address[]"
        },
        {
          "internalType": "uint256",
          "name": "oracleId",
          "type": "uint256"
        }
      ],
      "name": "setOracleIdForAssets",
      "outputs": [],
      "stateMutability": "nonpayable",
      "type": "function"
    },
    {
      "inputs": [
        {
          "internalType": "uint256",
          "name": "oracleId",
          "type": "uint256"
        },
        {
          "internalType": "contract ISuOracle",
          "name": "oracleImplementation",
          "type": "address"
        }
      ],
      "name": "setOracleImplementation",
      "outputs": [],
      "stateMutability": "nonpayable",
      "type": "function"
    }
  ],
  "numDeployments": 1,
  "solcInputHash": "5694697cb0af4bc0d2a28db42599225b",
  "bytecode": "0x608060405234801561001057600080fd5b50610a80806100206000396000f3fe608060405234801561001057600080fd5b50600436106100be5760003560e01c80636806ff2b11610076578063d53913931161005b578063d5391393146101b2578063dc97e84e146101d9578063ef54c3781461020057600080fd5b80636806ff2b1461018a578063c4d66de81461019f57600080fd5b806314c376dc116100a757806314c376dc146101225780632e00d24514610157578063356efd981461017757600080fd5b806303ee9f22146100c35780630827ba5b146100f9575b600080fd5b6000546100dc906201000090046001600160a01b031681565b6040516001600160a01b0390911681526020015b60405180910390f35b6100dc610107366004610996565b6002602052600090815260409020546001600160a01b031681565b6101497fe965846df3dd5b1dfa65f58e31477079e90140e0908b6dd31b5aead5a57cf36581565b6040519081526020016100f0565b610149610165366004610886565b60016020526000908152604090205481565b610149610185366004610886565b610213565b61019d6101983660046108a9565b61037d565b005b61019d6101ad366004610886565b61052a565b6101497f9f2df0fed2c77648de5860a4cc508cd0818c85b8b8a1ab4ceeef8d981c8956a681565b6101497f9a9aef7c1247d5fc769b0185c052913e39673da29a880317dfd20ebf86f26a4981565b61019d61020e3660046109c6565b6105fc565b6001600160a01b0381166000908152600160205260408120548061027e5760405162461bcd60e51b815260206004820152601760248201527f4e6f206f7261636c6520666f722074686520617373657400000000000000000060448201526064015b60405180910390fd5b6000818152600260205260409020546001600160a01b0316806102e35760405162461bcd60e51b815260206004820152601860248201527f4e6f206f7261636c6520696d706c656d656e746174696f6e00000000000000006044820152606401610275565b6040517f356efd980000000000000000000000000000000000000000000000000000000081526001600160a01b03858116600483015282169063356efd989060240160206040518083038186803b15801561033d57600080fd5b505afa158015610351573d6000803e3d6000fd5b505050506040513d601f19601f8201168201806040525081019061037591906109ae565b949350505050565b60008054604051632474521560e21b815260048101929092523360248301526201000090046001600160a01b0316906391d148549060440160206040518083038186803b1580156103cd57600080fd5b505afa1580156103e1573d6000803e3d6000fd5b505050506040513d601f19601f820116820180604052508101906104059190610976565b6104515760405162461bcd60e51b815260206004820152601d60248201527f5375417574683a206f6e6c794f776e657220415554485f4641494c45440000006044820152606401610275565b6000818152600260205260409020546001600160a01b03166104b55760405162461bcd60e51b815260206004820152601960248201527f4f7261636c65496d706c656d656e746174696f6e203d3d2030000000000000006044820152606401610275565b60005b82518110156105255781600160008584815181106104e657634e487b7160e01b600052603260045260246000fd5b60200260200101516001600160a01b03166001600160a01b0316815260200190815260200160002081905550808061051d906109f5565b9150506104b8565b505050565b600054610100900460ff166105455760005460ff1615610549565b303b155b6105bb5760405162461bcd60e51b815260206004820152602e60248201527f496e697469616c697a61626c653a20636f6e747261637420697320616c72656160448201527f647920696e697469616c697a65640000000000000000000000000000000000006064820152608401610275565b600054610100900460ff161580156105dd576000805461ffff19166101011790555b6105e6826107b9565b80156105f8576000805461ff00191690555b5050565b60008054604051632474521560e21b815260048101929092523360248301526201000090046001600160a01b0316906391d148549060440160206040518083038186803b15801561064c57600080fd5b505afa158015610660573d6000803e3d6000fd5b505050506040513d601f19601f820116820180604052508101906106849190610976565b6106d05760405162461bcd60e51b815260206004820152601d60248201527f5375417574683a206f6e6c794f776e657220415554485f4641494c45440000006044820152606401610275565b8161071d5760405162461bcd60e51b815260206004820152600d60248201527f4f7261636c654964203d3d2030000000000000000000000000000000000000006044820152606401610275565b6001600160a01b0381166107735760405162461bcd60e51b815260206004820152601960248201527f4f7261636c65496d706c656d656e746174696f6e203d3d2030000000000000006044820152606401610275565b60009182526002602052604090912080547fffffffffffffffffffffffff0000000000000000000000000000000000000000166001600160a01b03909216919091179055565b600054610100900460ff166108365760405162461bcd60e51b815260206004820152602b60248201527f496e697469616c697a61626c653a20636f6e7472616374206973206e6f74206960448201527f6e697469616c697a696e670000000000000000000000000000000000000000006064820152608401610275565b600080546001600160a01b0390921662010000027fffffffffffffffffffff0000000000000000000000000000000000000000ffff909216919091179055565b803561088181610a32565b919050565b600060208284031215610897578081fd5b81356108a281610a32565b9392505050565b600080604083850312156108bb578081fd5b823567ffffffffffffffff808211156108d2578283fd5b818501915085601f8301126108e5578283fd5b81356020828211156108f9576108f9610a1c565b8160051b604051601f19603f8301168101818110868211171561091e5761091e610a1c565b604052838152828101945085830182870184018b101561093c578788fd5b8796505b848710156109655761095181610876565b865260019690960195948301948301610940565b509997909101359750505050505050565b600060208284031215610987578081fd5b815180151581146108a2578182fd5b6000602082840312156109a7578081fd5b5035919050565b6000602082840312156109bf578081fd5b5051919050565b600080604083850312156109d8578182fd5b8235915060208301356109ea81610a32565b809150509250929050565b6000600019821415610a1557634e487b7160e01b81526011600452602481fd5b5060010190565b634e487b7160e01b600052604160045260246000fd5b6001600160a01b0381168114610a4757600080fd5b5056fea264697066735822122091304309cb4244cdd1225b9633885a695488e2452e52a7aae5f3fa37faeffd2264736f6c63430008040033",
  "devdoc": {
    "kind": "dev",
    "methods": {
      "getUsdPrice1e18(address)": {
        "params": {
          "asset": "of erc20 token"
        },
        "returns": {
          "_0": "price1e18 such as asset.balanceOf() * price1e18 / 1e18 == $$ 1e18*"
        }
      },
      "setOracleImplementation(uint256,address)": {
        "params": {
          "oracleId": "- number 0,1, etc to assign the oracle",
          "oracleImplementation": "- an address with ISuOracle implementation contract*"
        }
      }
    },
    "version": 1
  },
  "userdoc": {
    "kind": "user",
    "methods": {
      "getUsdPrice1e18(address)": {
        "notice": "returns price1e18(assert) such that:   [assetAmount * price1e18(assert) / 1e18 === $$ 1e18] == suUSD   examples:       market price of btc = $30k,       for 0.1 wBTC the unit256 amount is 0.1 * 1e18       0.1 * 1e18 * (price1e18 / 1e18) == $3000 == uint256(3000*1e18)       => price1e18 = 30000 * 1e18;       market price of usdt = $0.97,       for 1 usdt uint256 = 1 * 1e6       so 1*1e6 * price1e18 / 1e18 == $0.97 == uint256(0.97*1e18)       => 1*1e6 * (price1e18 / 1e18) / (0.97*1e18)   = 1       =>  price1e18 = 0.97 * (1e18/1e6) * 1e18"
      },
      "setOracleIdForAssets(address[],uint256)": {
        "notice": "specify what oracleId should be used for each assets. Checks that oracleId has an implementation*"
      },
      "setOracleImplementation(uint256,address)": {
        "notice": "assign address of oracle implementation to the oracleId"
      }
    },
    "version": 1
  },
  "storageLayout": {
    "storage": [
      {
        "astId": 454,
        "contract": "contracts/oracles/SuOracleAggregator.sol:SuOracleAggregator",
        "label": "_initialized",
        "offset": 0,
        "slot": "0",
        "type": "t_bool"
      },
      {
        "astId": 457,
        "contract": "contracts/oracles/SuOracleAggregator.sol:SuOracleAggregator",
        "label": "_initializing",
        "offset": 1,
        "slot": "0",
        "type": "t_bool"
      },
      {
        "astId": 3905,
        "contract": "contracts/oracles/SuOracleAggregator.sol:SuOracleAggregator",
        "label": "ACCESS_CONTROL_SINGLETON",
        "offset": 2,
        "slot": "0",
        "type": "t_contract(ISuAccessControl)6911"
      },
      {
        "astId": 13003,
        "contract": "contracts/oracles/SuOracleAggregator.sol:SuOracleAggregator",
        "label": "assetToOracle",
        "offset": 0,
        "slot": "1",
        "type": "t_mapping(t_address,t_uint256)"
      },
      {
        "astId": 13008,
        "contract": "contracts/oracles/SuOracleAggregator.sol:SuOracleAggregator",
        "label": "oracleImplementations",
        "offset": 0,
        "slot": "2",
        "type": "t_mapping(t_uint256,t_contract(ISuOracle)7303)"
      }
    ],
    "types": {
      "t_address": {
        "encoding": "inplace",
        "label": "address",
        "numberOfBytes": "20"
      },
      "t_bool": {
        "encoding": "inplace",
        "label": "bool",
        "numberOfBytes": "1"
      },
      "t_contract(ISuAccessControl)6911": {
        "encoding": "inplace",
        "label": "contract ISuAccessControl",
        "numberOfBytes": "20"
      },
      "t_contract(ISuOracle)7303": {
        "encoding": "inplace",
        "label": "contract ISuOracle",
        "numberOfBytes": "20"
      },
      "t_mapping(t_address,t_uint256)": {
        "encoding": "mapping",
        "key": "t_address",
        "label": "mapping(address => uint256)",
        "numberOfBytes": "32",
        "value": "t_uint256"
      },
      "t_mapping(t_uint256,t_contract(ISuOracle)7303)": {
        "encoding": "mapping",
        "key": "t_uint256",
        "label": "mapping(uint256 => contract ISuOracle)",
        "numberOfBytes": "32",
        "value": "t_contract(ISuOracle)7303"
      },
      "t_uint256": {
        "encoding": "inplace",
        "label": "uint256",
        "numberOfBytes": "32"
      }
    }
  }
}