{
  "address": "0x7Ddd92A76d93A94393e2C1BA02853Fc3188288BB",
  "abi": [
    {
      "anonymous": false,
      "inputs": [
        {
          "indexed": true,
          "internalType": "address",
          "name": "owner",
          "type": "address"
        },
        {
          "indexed": true,
          "internalType": "address",
          "name": "spender",
          "type": "address"
        },
        {
          "indexed": false,
          "internalType": "uint256",
          "name": "value",
          "type": "uint256"
        }
      ],
      "name": "Approval",
      "type": "event"
    },
    {
      "anonymous": false,
      "inputs": [
        {
          "indexed": true,
          "internalType": "address",
          "name": "from",
          "type": "address"
        },
        {
          "indexed": true,
          "internalType": "address",
          "name": "to",
          "type": "address"
        },
        {
          "indexed": false,
          "internalType": "uint256",
          "name": "value",
          "type": "uint256"
        }
      ],
      "name": "Transfer",
      "type": "event"
    },
    {
      "inputs": [],
      "name": "ACCESS_CONTROL_SINGLETON",
      "outputs": [
        {
          "internalType": "contract ISuAccessControl",
          "name": "",
          "type": "address"
        }
      ],
      "stateMutability": "view",
      "type": "function"
    },
    {
      "inputs": [],
      "name": "LIQUIDATION_ACCESS_ROLE",
      "outputs": [
        {
          "internalType": "bytes32",
          "name": "",
          "type": "bytes32"
        }
      ],
      "stateMutability": "view",
      "type": "function"
    },
    {
      "inputs": [],
      "name": "MINTER_ROLE",
      "outputs": [
        {
          "internalType": "bytes32",
          "name": "",
          "type": "bytes32"
        }
      ],
      "stateMutability": "view",
      "type": "function"
    },
    {
      "inputs": [],
      "name": "VAULT_ACCESS_ROLE",
      "outputs": [
        {
          "internalType": "bytes32",
          "name": "",
          "type": "bytes32"
        }
      ],
      "stateMutability": "view",
      "type": "function"
    },
    {
      "inputs": [
        {
          "internalType": "address",
          "name": "",
          "type": "address"
        }
      ],
      "name": "_accounts",
      "outputs": [
        {
          "internalType": "uint256",
          "name": "balance",
          "type": "uint256"
        },
        {
          "internalType": "int256",
          "name": "rewardDebt",
          "type": "int256"
        },
        {
          "internalType": "bool",
          "name": "isGainDisabled",
          "type": "bool"
        }
      ],
      "stateMutability": "view",
      "type": "function"
    },
    {
      "inputs": [
        {
          "internalType": "address",
          "name": "owner",
          "type": "address"
        },
        {
          "internalType": "address",
          "name": "spender",
          "type": "address"
        }
      ],
      "name": "allowance",
      "outputs": [
        {
          "internalType": "uint256",
          "name": "",
          "type": "uint256"
        }
      ],
      "stateMutability": "view",
      "type": "function"
    },
    {
      "inputs": [
        {
          "internalType": "address",
          "name": "spender",
          "type": "address"
        },
        {
          "internalType": "uint256",
          "name": "amount",
          "type": "uint256"
        }
      ],
      "name": "approve",
      "outputs": [
        {
          "internalType": "bool",
          "name": "",
          "type": "bool"
        }
      ],
      "stateMutability": "nonpayable",
      "type": "function"
    },
    {
      "inputs": [
        {
          "internalType": "address",
          "name": "account",
          "type": "address"
        }
      ],
      "name": "balanceOf",
      "outputs": [
        {
          "internalType": "uint256",
          "name": "",
          "type": "uint256"
        }
      ],
      "stateMutability": "view",
      "type": "function"
    },
    {
      "inputs": [
        {
          "internalType": "uint256",
          "name": "amount",
          "type": "uint256"
        }
      ],
      "name": "burn",
      "outputs": [],
      "stateMutability": "nonpayable",
      "type": "function"
    },
    {
      "inputs": [
        {
          "internalType": "address",
          "name": "from",
          "type": "address"
        },
        {
          "internalType": "uint256",
          "name": "amount",
          "type": "uint256"
        }
      ],
      "name": "burn",
      "outputs": [],
      "stateMutability": "nonpayable",
      "type": "function"
    },
    {
      "inputs": [],
      "name": "decimals",
      "outputs": [
        {
          "internalType": "uint8",
          "name": "",
          "type": "uint8"
        }
      ],
      "stateMutability": "view",
      "type": "function"
    },
    {
      "inputs": [
        {
          "internalType": "address",
          "name": "spender",
          "type": "address"
        },
        {
          "internalType": "uint256",
          "name": "subtractedValue",
          "type": "uint256"
        }
      ],
      "name": "decreaseAllowance",
      "outputs": [
        {
          "internalType": "bool",
          "name": "",
          "type": "bool"
        }
      ],
      "stateMutability": "nonpayable",
      "type": "function"
    },
    {
      "inputs": [],
      "name": "getYieldAPR",
      "outputs": [
        {
          "internalType": "uint256",
          "name": "",
          "type": "uint256"
        }
      ],
      "stateMutability": "view",
      "type": "function"
    },
    {
      "inputs": [
        {
          "internalType": "address",
          "name": "spender",
          "type": "address"
        },
        {
          "internalType": "uint256",
          "name": "addedValue",
          "type": "uint256"
        }
      ],
      "name": "increaseAllowance",
      "outputs": [
        {
          "internalType": "bool",
          "name": "",
          "type": "bool"
        }
      ],
      "stateMutability": "nonpayable",
      "type": "function"
    },
    {
      "inputs": [
        {
          "internalType": "address",
          "name": "_authControl",
          "type": "address"
        }
      ],
      "name": "initialize",
      "outputs": [],
      "stateMutability": "nonpayable",
      "type": "function"
    },
    {
      "inputs": [
        {
          "internalType": "address",
          "name": "to",
          "type": "address"
        },
        {
          "internalType": "uint256",
          "name": "amount",
          "type": "uint256"
        }
      ],
      "name": "mint",
      "outputs": [],
      "stateMutability": "nonpayable",
      "type": "function"
    },
    {
      "inputs": [],
      "name": "name",
      "outputs": [
        {
          "internalType": "string",
          "name": "",
          "type": "string"
        }
      ],
      "stateMutability": "view",
      "type": "function"
    },
    {
      "inputs": [
        {
          "internalType": "address",
          "name": "account",
          "type": "address"
        }
      ],
      "name": "pendingRewards",
      "outputs": [
        {
          "internalType": "uint256",
          "name": "",
          "type": "uint256"
        }
      ],
      "stateMutability": "view",
      "type": "function"
    },
    {
      "inputs": [
        {
          "internalType": "uint256",
          "name": "amount",
          "type": "uint256"
        },
        {
          "internalType": "uint64",
          "name": "endBlock",
          "type": "uint64"
        }
      ],
      "name": "refillReward",
      "outputs": [],
      "stateMutability": "nonpayable",
      "type": "function"
    },
    {
      "inputs": [],
      "name": "rewardEndBlock",
      "outputs": [
        {
          "internalType": "uint256",
          "name": "",
          "type": "uint256"
        }
      ],
      "stateMutability": "view",
      "type": "function"
    },
    {
      "inputs": [],
      "name": "rewardPerBlock",
      "outputs": [
        {
          "internalType": "uint256",
          "name": "",
          "type": "uint256"
        }
      ],
      "stateMutability": "view",
      "type": "function"
    },
    {
      "inputs": [],
      "name": "rewardPool",
      "outputs": [
        {
          "internalType": "uint128",
          "name": "accRewardPerShare",
          "type": "uint128"
        },
        {
          "internalType": "uint64",
          "name": "lastRewardBlock",
          "type": "uint64"
        }
      ],
      "stateMutability": "view",
      "type": "function"
    },
    {
      "inputs": [
        {
          "internalType": "uint256",
          "name": "startBlock",
          "type": "uint256"
        },
        {
          "internalType": "uint256",
          "name": "endBlock",
          "type": "uint256"
        }
      ],
      "name": "rewardsBetweenBlocks",
      "outputs": [
        {
          "internalType": "uint256",
          "name": "",
          "type": "uint256"
        }
      ],
      "stateMutability": "view",
      "type": "function"
    },
    {
      "inputs": [],
      "name": "symbol",
      "outputs": [
        {
          "internalType": "string",
          "name": "",
          "type": "string"
        }
      ],
      "stateMutability": "view",
      "type": "function"
    },
    {
      "inputs": [],
      "name": "totalSupply",
      "outputs": [
        {
          "internalType": "uint256",
          "name": "",
          "type": "uint256"
        }
      ],
      "stateMutability": "view",
      "type": "function"
    },
    {
      "inputs": [
        {
          "internalType": "address",
          "name": "to",
          "type": "address"
        },
        {
          "internalType": "uint256",
          "name": "amount",
          "type": "uint256"
        }
      ],
      "name": "transfer",
      "outputs": [
        {
          "internalType": "bool",
          "name": "",
          "type": "bool"
        }
      ],
      "stateMutability": "nonpayable",
      "type": "function"
    },
    {
      "inputs": [
        {
          "internalType": "address",
          "name": "from",
          "type": "address"
        },
        {
          "internalType": "address",
          "name": "to",
          "type": "address"
        },
        {
          "internalType": "uint256",
          "name": "amount",
          "type": "uint256"
        }
      ],
      "name": "transferFrom",
      "outputs": [
        {
          "internalType": "bool",
          "name": "",
          "type": "bool"
        }
      ],
      "stateMutability": "nonpayable",
      "type": "function"
    },
    {
      "inputs": [],
      "name": "updateRewardPool",
      "outputs": [],
      "stateMutability": "nonpayable",
      "type": "function"
    }
  ],
  "numDeployments": 1,
  "solcInputHash": "5694697cb0af4bc0d2a28db42599225b",
  "bytecode": "0x608060405234801561001057600080fd5b50611d2f806100206000396000f3fe608060405234801561001057600080fd5b50600436106101c45760003560e01c806381028dde116100f9578063a9059cbb11610097578063d539139311610071578063d539139314610417578063dc97e84e1461043e578063dd62ed3e14610465578063eeba3c3f1461049e57600080fd5b8063a9059cbb146103e9578063ab6a8b02146103fc578063c4d66de81461040457600080fd5b806395d89b41116100d357806395d89b411461036c5780639dc29fac14610374578063a457c2d714610387578063a59bed581461039a57600080fd5b806381028dde1461034857806387ee8c4c146103505780638ae39cac1461036357600080fd5b806331d7a2621161016657806342966c681161014057806342966c68146102cb578063604ef2e5146102de57806366666aa9146102e757806370a082311461033557600080fd5b806331d7a2621461029057806339509351146102a357806340c10f19146102b657600080fd5b806314c376dc116101a257806314c376dc1461023157806318160ddd1461026657806323b872dd1461026e578063313ce5671461028157600080fd5b806303ee9f22146101c957806306fdde03146101f9578063095ea7b31461020e575b600080fd5b6068546101dc906001600160a01b031681565b6040516001600160a01b0390911681526020015b60405180910390f35b6102016104b1565b6040516101f09190611b48565b61022161021c366004611a8b565b610543565b60405190151581526020016101f0565b6102587fe965846df3dd5b1dfa65f58e31477079e90140e0908b6dd31b5aead5a57cf36581565b6040519081526020016101f0565b603654610258565b61022161027c366004611a50565b61055d565b604051601281526020016101f0565b61025861029e3660046119fd565b610581565b6102216102b1366004611a8b565b610694565b6102c96102c4366004611a8b565b6106d3565b005b6102c96102d9366004611ad4565b6107d3565b610258603a5481565b60335461030d906001600160801b03811690600160801b900467ffffffffffffffff1682565b604080516001600160801b03909316835267ffffffffffffffff9091166020830152016101f0565b6102586103433660046119fd565b6108ae565b6102586108dc565b6102c961035e366004611b0d565b610960565b61025860395481565b610201610a6a565b6102c9610382366004611a8b565b610a79565b610221610395366004611a8b565b610b70565b6103cc6103a83660046119fd565b60346020526000908152604090208054600182015460029092015490919060ff1683565b6040805193845260208401929092521515908201526060016101f0565b6102216103f7366004611a8b565b610c1a565b6102c9610c28565b6102c96104123660046119fd565b610d21565b6102587f9f2df0fed2c77648de5860a4cc508cd0818c85b8b8a1ab4ceeef8d981c8956a681565b6102587f9a9aef7c1247d5fc769b0185c052913e39673da29a880317dfd20ebf86f26a4981565b610258610473366004611a1e565b6001600160a01b03918216600090815260356020908152604080832093909416825291909152205490565b6102586104ac366004611aec565b610e66565b6060603780546104c090611ca8565b80601f01602080910402602001604051908101604052809291908181526020018280546104ec90611ca8565b80156105395780601f1061050e57610100808354040283529160200191610539565b820191906000526020600020905b81548152906001019060200180831161051c57829003601f168201915b5050505050905090565b600033610551818585610eb2565b60019150505b92915050565b60003361056b85828561100b565b61057685858561109d565b506001949350505050565b60335460009081906105a490600160801b900467ffffffffffffffff1643610e66565b603654909150806105b9575060009392505050565b60006105dd826105ce64e8d4a5100086611bfe565b6105d89190611bde565b6112bf565b6033546105f391906001600160801b0316611b9b565b6001600160a01b03861660009081526034602090815260408083208151606081018352815480825260018301549482019490945260029091015460ff161515918101919091526001600160801b0393909316935061066c9064e8d4a510009061065d908690611bfe565b6106679190611bde565b611342565b905060006106888360200151836106839190611c1d565b6113da565b98975050505050505050565b3360008181526035602090815260408083206001600160a01b038716845290915281205490919061055190829086906106ce908790611bc6565b610eb2565b606854604051632474521560e21b81527f9f2df0fed2c77648de5860a4cc508cd0818c85b8b8a1ab4ceeef8d981c8956a660048201523360248201526001600160a01b03909116906391d148549060440160206040518083038186803b15801561073c57600080fd5b505afa158015610750573d6000803e3d6000fd5b505050506040513d601f19601f820116820180604052508101906107749190611ab4565b6107c55760405162461bcd60e51b815260206004820152601e60248201527f5375417574683a206f6e6c794d696e74657220415554485f4641494c4544000060448201526064015b60405180910390fd5b6107cf828261142c565b5050565b606854604051632474521560e21b8152600060048201523360248201526001600160a01b03909116906391d148549060440160206040518083038186803b15801561081d57600080fd5b505afa158015610831573d6000803e3d6000fd5b505050506040513d601f19601f820116820180604052508101906108559190611ab4565b6108a15760405162461bcd60e51b815260206004820152601d60248201527f5375417574683a206f6e6c794f776e657220415554485f4641494c454400000060448201526064016107bc565b6108ab3382611517565b50565b60006108b982610581565b6001600160a01b0383166000908152603460205260409020546105579190611bc6565b6000603a544311156108ee5750600090565b600043603a546108fe9190611c91565b60395461090b9190611bfe565b905060008161091960365490565b6109239190611c91565b90506000622014809050818160395461093c9190611bfe565b61094e90670de0b6b3a7640000611bfe565b6109589190611bde565b935050505090565b8067ffffffffffffffff1643106109df5760405162461bcd60e51b815260206004820152602d60248201527f456e64426c6f636b2073686f756c642062652067726561746572207468616e2060448201527f63757272656e7420626c6f636b0000000000000000000000000000000000000060648201526084016107bc565b6109e7610c28565b6109f233308461055d565b50603a5460009015610a2e57603a54431015610a2a5743603a54610a169190611c91565b603954610a239190611bfe565b9050610a2e565b5060005b610a424367ffffffffffffffff8416611c91565b610a4c8483611bc6565b610a569190611bde565b6039555067ffffffffffffffff16603a5550565b6060603880546104c090611ca8565b606854604051632474521560e21b81527f9f2df0fed2c77648de5860a4cc508cd0818c85b8b8a1ab4ceeef8d981c8956a660048201523360248201526001600160a01b03909116906391d148549060440160206040518083038186803b158015610ae257600080fd5b505afa158015610af6573d6000803e3d6000fd5b505050506040513d601f19601f82011682018060405250810190610b1a9190611ab4565b610b665760405162461bcd60e51b815260206004820152601e60248201527f5375417574683a206f6e6c794d696e74657220415554485f4641494c4544000060448201526064016107bc565b6107cf8282611517565b3360008181526035602090815260408083206001600160a01b038716845290915281205490919083811015610c0d5760405162461bcd60e51b815260206004820152602560248201527f45524332303a2064656372656173656420616c6c6f77616e63652062656c6f7760448201527f207a65726f00000000000000000000000000000000000000000000000000000060648201526084016107bc565b6105768286868403610eb2565b60003361055181858561109d565b603354600160801b900467ffffffffffffffff16431115610d1f57603354600090610c6490600160801b900467ffffffffffffffff1643610e66565b6036549091508015610cd257610c83816105ce64e8d4a5100085611bfe565b603354610c9991906001600160801b0316611b9b565b603380547fffffffffffffffffffffffffffffffff00000000000000000000000000000000166001600160801b03929092169190911790555b610cdb436116a5565b6033805467ffffffffffffffff92909216600160801b027fffffffffffffffff0000000000000000ffffffffffffffffffffffffffffffff90921691909117905550505b565b600054610100900460ff16610d3c5760005460ff1615610d40565b303b155b610db25760405162461bcd60e51b815260206004820152602e60248201527f496e697469616c697a61626c653a20636f6e747261637420697320616c72656160448201527f647920696e697469616c697a656400000000000000000000000000000000000060648201526084016107bc565b600054610100900460ff16158015610dd4576000805461ffff19166101011790555b610e486040518060400160405280600e81526020017f537461626c65556e6974205553440000000000000000000000000000000000008152506040518060400160405280600581526020017f5375555344000000000000000000000000000000000000000000000000000000815250611725565b610e518261179a565b80156107cf576000805461ff00191690555050565b600082603a5411610e7957506000610557565b603a54821015610ea157603954610e908484611c91565b610e9a9190611bfe565b9050610557565b60395483603a54610e909190611c91565b6001600160a01b038316610f2d5760405162461bcd60e51b8152602060048201526024808201527f45524332303a20617070726f76652066726f6d20746865207a65726f2061646460448201527f726573730000000000000000000000000000000000000000000000000000000060648201526084016107bc565b6001600160a01b038216610fa95760405162461bcd60e51b815260206004820152602260248201527f45524332303a20617070726f766520746f20746865207a65726f20616464726560448201527f737300000000000000000000000000000000000000000000000000000000000060648201526084016107bc565b6001600160a01b0383811660008181526035602090815260408083209487168084529482529182902085905590518481527f8c5be1e5ebec7d5bd14f71427d1e84f3dd0314c0f7b2291e5b200ac8c7c3b92591015b60405180910390a3505050565b6001600160a01b038381166000908152603560209081526040808320938616835292905220546000198114611097578181101561108a5760405162461bcd60e51b815260206004820152601d60248201527f45524332303a20696e73756666696369656e7420616c6c6f77616e636500000060448201526064016107bc565b6110978484848403610eb2565b50505050565b6001600160a01b0383166111195760405162461bcd60e51b815260206004820152602560248201527f45524332303a207472616e736665722066726f6d20746865207a65726f20616460448201527f647265737300000000000000000000000000000000000000000000000000000060648201526084016107bc565b6001600160a01b0382166111955760405162461bcd60e51b815260206004820152602360248201527f45524332303a207472616e7366657220746f20746865207a65726f206164647260448201527f657373000000000000000000000000000000000000000000000000000000000060648201526084016107bc565b6111a083838361183f565b6001600160a01b0383166000908152603460205260409020548181101561122f5760405162461bcd60e51b815260206004820152602660248201527f45524332303a207472616e7366657220616d6f756e742065786365656473206260448201527f616c616e6365000000000000000000000000000000000000000000000000000060648201526084016107bc565b6001600160a01b03808516600090815260346020526040808220858503905591851681529081208054849290611266908490611bc6565b92505081905550826001600160a01b0316846001600160a01b03167fddf252ad1be2c89b69c2b068fc378daa952ba7f163c4a11628f55a4df523b3ef846040516112b291815260200190565b60405180910390a3611097565b60006001600160801b0382111561133e5760405162461bcd60e51b815260206004820152602760248201527f53616665436173743a2076616c756520646f65736e27742066697420696e203160448201527f323820626974730000000000000000000000000000000000000000000000000060648201526084016107bc565b5090565b60007f7fffffffffffffffffffffffffffffffffffffffffffffffffffffffffffffff82111561133e5760405162461bcd60e51b815260206004820152602860248201527f53616665436173743a2076616c756520646f65736e27742066697420696e206160448201527f6e20696e7432353600000000000000000000000000000000000000000000000060648201526084016107bc565b60008082121561133e5760405162461bcd60e51b815260206004820181905260248201527f53616665436173743a2076616c7565206d75737420626520706f73697469766560448201526064016107bc565b6001600160a01b0382166114825760405162461bcd60e51b815260206004820152601f60248201527f45524332303a206d696e7420746f20746865207a65726f20616464726573730060448201526064016107bc565b61148e6000838361183f565b80603660008282546114a09190611bc6565b90915550506001600160a01b038216600090815260346020526040812080548392906114cd908490611bc6565b90915550506040518181526001600160a01b038316906000907fddf252ad1be2c89b69c2b068fc378daa952ba7f163c4a11628f55a4df523b3ef9060200160405180910390a35050565b6001600160a01b0382166115935760405162461bcd60e51b815260206004820152602160248201527f45524332303a206275726e2066726f6d20746865207a65726f2061646472657360448201527f730000000000000000000000000000000000000000000000000000000000000060648201526084016107bc565b61159f8260008361183f565b6001600160a01b0382166000908152603460205260409020548181101561162e5760405162461bcd60e51b815260206004820152602260248201527f45524332303a206275726e20616d6f756e7420657863656564732062616c616e60448201527f636500000000000000000000000000000000000000000000000000000000000060648201526084016107bc565b6001600160a01b038316600090815260346020526040812083830390556036805484929061165d908490611c91565b90915550506040518281526000906001600160a01b038516907fddf252ad1be2c89b69c2b068fc378daa952ba7f163c4a11628f55a4df523b3ef90602001610ffe565b505050565b600067ffffffffffffffff82111561133e5760405162461bcd60e51b815260206004820152602660248201527f53616665436173743a2076616c756520646f65736e27742066697420696e203660448201527f342062697473000000000000000000000000000000000000000000000000000060648201526084016107bc565b600054610100900460ff166117905760405162461bcd60e51b815260206004820152602b60248201527f496e697469616c697a61626c653a20636f6e7472616374206973206e6f74206960448201526a6e697469616c697a696e6760a81b60648201526084016107bc565b6107cf8282611851565b600054610100900460ff166118055760405162461bcd60e51b815260206004820152602b60248201527f496e697469616c697a61626c653a20636f6e7472616374206973206e6f74206960448201526a6e697469616c697a696e6760a81b60648201526084016107bc565b606880547fffffffffffffffffffffffff0000000000000000000000000000000000000000166001600160a01b0392909216919091179055565b611848836118e3565b6116a0826118e3565b600054610100900460ff166118bc5760405162461bcd60e51b815260206004820152602b60248201527f496e697469616c697a61626c653a20636f6e7472616374206973206e6f74206960448201526a6e697469616c697a696e6760a81b60648201526084016107bc565b81516118cf906037906020850190611951565b5080516116a0906038906020840190611951565b6001600160a01b0381166000908152603460205260409020611903610c28565b600061190e83610581565b825490915061191e908290611bc6565b8083556033546119449164e8d4a510009161065d916001600160801b0390911690611bfe565b8260010181905550505050565b82805461195d90611ca8565b90600052602060002090601f01602090048101928261197f57600085556119c5565b82601f1061199857805160ff19168380011785556119c5565b828001600101855582156119c5579182015b828111156119c55782518255916020019190600101906119aa565b5061133e9291505b8082111561133e57600081556001016119cd565b80356001600160a01b03811681146119f857600080fd5b919050565b600060208284031215611a0e578081fd5b611a17826119e1565b9392505050565b60008060408385031215611a30578081fd5b611a39836119e1565b9150611a47602084016119e1565b90509250929050565b600080600060608486031215611a64578081fd5b611a6d846119e1565b9250611a7b602085016119e1565b9150604084013590509250925092565b60008060408385031215611a9d578182fd5b611aa6836119e1565b946020939093013593505050565b600060208284031215611ac5578081fd5b81518015158114611a17578182fd5b600060208284031215611ae5578081fd5b5035919050565b60008060408385031215611afe578182fd5b50508035926020909101359150565b60008060408385031215611b1f578182fd5b82359150602083013567ffffffffffffffff81168114611b3d578182fd5b809150509250929050565b6000602080835283518082850152825b81811015611b7457858101830151858201604001528201611b58565b81811115611b855783604083870101525b50601f01601f1916929092016040019392505050565b60006001600160801b03808316818516808303821115611bbd57611bbd611ce3565b01949350505050565b60008219821115611bd957611bd9611ce3565b500190565b600082611bf957634e487b7160e01b81526012600452602481fd5b500490565b6000816000190483118215151615611c1857611c18611ce3565b500290565b6000808312837f800000000000000000000000000000000000000000000000000000000000000001831281151615611c5757611c57611ce3565b837f7fffffffffffffffffffffffffffffffffffffffffffffffffffffffffffffff018313811615611c8b57611c8b611ce3565b50500390565b600082821015611ca357611ca3611ce3565b500390565b600181811c90821680611cbc57607f821691505b60208210811415611cdd57634e487b7160e01b600052602260045260246000fd5b50919050565b634e487b7160e01b600052601160045260246000fdfea264697066735822122075d90beaf797e00610fe60337c3c01ea7d0ac52503e401e7fef32fea42a24a8864736f6c63430008040033",
  "devdoc": {
    "kind": "dev",
    "methods": {
      "allowance(address,address)": {
        "details": "See {IERC20-allowance}."
      },
      "approve(address,uint256)": {
        "details": "See {IERC20-approve}. NOTE: If `amount` is the maximum `uint256`, the allowance is not updated on `transferFrom`. This is semantically equivalent to an infinite approval. Requirements: - `spender` cannot be the zero address."
      },
      "balanceOf(address)": {
        "details": "See {IERC20-balanceOf}."
      },
      "decimals()": {
        "details": "Returns the number of decimals used to get its user representation. For example, if `decimals` equals `2`, a balance of `505` tokens should be displayed to a user as `5.05` (`505 / 10 ** 2`). Tokens usually opt for a value of 18, imitating the relationship between Ether and Wei. This is the value {ERC20} uses, unless this function is overridden; NOTE: This information is only used for _display_ purposes: it in no way affects any of the arithmetic of the contract, including {IERC20-balanceOf} and {IERC20-transfer}."
      },
      "decreaseAllowance(address,uint256)": {
        "details": "Atomically decreases the allowance granted to `spender` by the caller. This is an alternative to {approve} that can be used as a mitigation for problems described in {IERC20-approve}. Emits an {Approval} event indicating the updated allowance. Requirements: - `spender` cannot be the zero address. - `spender` must have allowance for the caller of at least `subtractedValue`."
      },
      "increaseAllowance(address,uint256)": {
        "details": "Atomically increases the allowance granted to `spender` by the caller. This is an alternative to {approve} that can be used as a mitigation for problems described in {IERC20-approve}. Emits an {Approval} event indicating the updated allowance. Requirements: - `spender` cannot be the zero address."
      },
      "mint(address,uint256)": {
        "details": "Mints 'amount' of tokens to address 'to', and MUST fire the Transfer event",
        "params": {
          "amount": "The amount of token to be minted*",
          "to": "The address of the recipient"
        }
      },
      "name()": {
        "details": "Returns the name of the token."
      },
      "rewardsBetweenBlocks(uint256,uint256)": {
        "details": "returns total amount of rewards allocated to the all pools on the rage (startBlock, endBlock]      i.e. excluding startBlock but including endBlock"
      },
      "symbol()": {
        "details": "Returns the symbol of the token, usually a shorter version of the name."
      },
      "totalSupply()": {
        "details": "See {IERC20-totalSupply}."
      },
      "transfer(address,uint256)": {
        "details": "See {IERC20-transfer}. Requirements: - `to` cannot be the zero address. - the caller must have a balance of at least `amount`."
      },
      "transferFrom(address,address,uint256)": {
        "details": "See {IERC20-transferFrom}. Emits an {Approval} event indicating the updated allowance. This is not required by the EIP. See the note at the beginning of {ERC20}. NOTE: Does not update the allowance if the current allowance is the maximum `uint256`. Requirements: - `from` and `to` cannot be the zero address. - `from` must have a balance of at least `amount`. - the caller must have allowance for ``from``'s tokens of at least `amount`."
      }
    },
    "version": 1
  },
  "userdoc": {
    "kind": "user",
    "methods": {
      "mint(address,uint256)": {
        "notice": "Only Vault can mint SuUSD"
      }
    },
    "version": 1
  },
  "storageLayout": {
    "storage": [
      {
        "astId": 454,
        "contract": "contracts/SuUSD.sol:SuUSD",
        "label": "_initialized",
        "offset": 0,
        "slot": "0",
        "type": "t_bool"
      },
      {
        "astId": 457,
        "contract": "contracts/SuUSD.sol:SuUSD",
        "label": "_initializing",
        "offset": 1,
        "slot": "0",
        "type": "t_bool"
      },
      {
        "astId": 1191,
        "contract": "contracts/SuUSD.sol:SuUSD",
        "label": "__gap",
        "offset": 0,
        "slot": "1",
        "type": "t_array(t_uint256)50_storage"
      },
      {
        "astId": 5735,
        "contract": "contracts/SuUSD.sol:SuUSD",
        "label": "rewardPool",
        "offset": 0,
        "slot": "51",
        "type": "t_struct(IRewardPool)5729_storage"
      },
      {
        "astId": 5740,
        "contract": "contracts/SuUSD.sol:SuUSD",
        "label": "_accounts",
        "offset": 0,
        "slot": "52",
        "type": "t_mapping(t_address,t_struct(IAccount)5724_storage)"
      },
      {
        "astId": 5746,
        "contract": "contracts/SuUSD.sol:SuUSD",
        "label": "_allowances",
        "offset": 0,
        "slot": "53",
        "type": "t_mapping(t_address,t_mapping(t_address,t_uint256))"
      },
      {
        "astId": 5748,
        "contract": "contracts/SuUSD.sol:SuUSD",
        "label": "_totalSupply",
        "offset": 0,
        "slot": "54",
        "type": "t_uint256"
      },
      {
        "astId": 5750,
        "contract": "contracts/SuUSD.sol:SuUSD",
        "label": "_name",
        "offset": 0,
        "slot": "55",
        "type": "t_string_storage"
      },
      {
        "astId": 5752,
        "contract": "contracts/SuUSD.sol:SuUSD",
        "label": "_symbol",
        "offset": 0,
        "slot": "56",
        "type": "t_string_storage"
      },
      {
        "astId": 5754,
        "contract": "contracts/SuUSD.sol:SuUSD",
        "label": "rewardPerBlock",
        "offset": 0,
        "slot": "57",
        "type": "t_uint256"
      },
      {
        "astId": 5756,
        "contract": "contracts/SuUSD.sol:SuUSD",
        "label": "rewardEndBlock",
        "offset": 0,
        "slot": "58",
        "type": "t_uint256"
      },
      {
        "astId": 6692,
        "contract": "contracts/SuUSD.sol:SuUSD",
        "label": "__gap",
        "offset": 0,
        "slot": "59",
        "type": "t_array(t_uint256)45_storage"
      },
      {
        "astId": 3905,
        "contract": "contracts/SuUSD.sol:SuUSD",
        "label": "ACCESS_CONTROL_SINGLETON",
        "offset": 0,
        "slot": "104",
        "type": "t_contract(ISuAccessControl)6911"
      }
    ],
    "types": {
      "t_address": {
        "encoding": "inplace",
        "label": "address",
        "numberOfBytes": "20"
      },
      "t_array(t_uint256)45_storage": {
        "base": "t_uint256",
        "encoding": "inplace",
        "label": "uint256[45]",
        "numberOfBytes": "1440"
      },
      "t_array(t_uint256)50_storage": {
        "base": "t_uint256",
        "encoding": "inplace",
        "label": "uint256[50]",
        "numberOfBytes": "1600"
      },
      "t_bool": {
        "encoding": "inplace",
        "label": "bool",
        "numberOfBytes": "1"
      },
      "t_contract(ISuAccessControl)6911": {
        "encoding": "inplace",
        "label": "contract ISuAccessControl",
        "numberOfBytes": "20"
      },
      "t_int256": {
        "encoding": "inplace",
        "label": "int256",
        "numberOfBytes": "32"
      },
      "t_mapping(t_address,t_mapping(t_address,t_uint256))": {
        "encoding": "mapping",
        "key": "t_address",
        "label": "mapping(address => mapping(address => uint256))",
        "numberOfBytes": "32",
        "value": "t_mapping(t_address,t_uint256)"
      },
      "t_mapping(t_address,t_struct(IAccount)5724_storage)": {
        "encoding": "mapping",
        "key": "t_address",
        "label": "mapping(address => struct GainableERC20v3Upgradeable.IAccount)",
        "numberOfBytes": "32",
        "value": "t_struct(IAccount)5724_storage"
      },
      "t_mapping(t_address,t_uint256)": {
        "encoding": "mapping",
        "key": "t_address",
        "label": "mapping(address => uint256)",
        "numberOfBytes": "32",
        "value": "t_uint256"
      },
      "t_string_storage": {
        "encoding": "bytes",
        "label": "string",
        "numberOfBytes": "32"
      },
      "t_struct(IAccount)5724_storage": {
        "encoding": "inplace",
        "label": "struct GainableERC20v3Upgradeable.IAccount",
        "members": [
          {
            "astId": 5719,
            "contract": "contracts/SuUSD.sol:SuUSD",
            "label": "balance",
            "offset": 0,
            "slot": "0",
            "type": "t_uint256"
          },
          {
            "astId": 5721,
            "contract": "contracts/SuUSD.sol:SuUSD",
            "label": "rewardDebt",
            "offset": 0,
            "slot": "1",
            "type": "t_int256"
          },
          {
            "astId": 5723,
            "contract": "contracts/SuUSD.sol:SuUSD",
            "label": "isGainDisabled",
            "offset": 0,
            "slot": "2",
            "type": "t_bool"
          }
        ],
        "numberOfBytes": "96"
      },
      "t_struct(IRewardPool)5729_storage": {
        "encoding": "inplace",
        "label": "struct GainableERC20v3Upgradeable.IRewardPool",
        "members": [
          {
            "astId": 5726,
            "contract": "contracts/SuUSD.sol:SuUSD",
            "label": "accRewardPerShare",
            "offset": 0,
            "slot": "0",
            "type": "t_uint128"
          },
          {
            "astId": 5728,
            "contract": "contracts/SuUSD.sol:SuUSD",
            "label": "lastRewardBlock",
            "offset": 16,
            "slot": "0",
            "type": "t_uint64"
          }
        ],
        "numberOfBytes": "32"
      },
      "t_uint128": {
        "encoding": "inplace",
        "label": "uint128",
        "numberOfBytes": "16"
      },
      "t_uint256": {
        "encoding": "inplace",
        "label": "uint256",
        "numberOfBytes": "32"
      },
      "t_uint64": {
        "encoding": "inplace",
        "label": "uint64",
        "numberOfBytes": "8"
      }
    }
  }
}