{
  "address": "0xb085E2595B104e70d03C295173Fa6Ad9cD520AE9",
  "abi": [
    {
      "inputs": [
        {
          "internalType": "address",
          "name": "_authControl",
          "type": "address"
        },
        {
          "internalType": "address",
          "name": "_stablecoin",
          "type": "address"
        },
        {
          "internalType": "address",
          "name": "_foundation",
          "type": "address"
        },
        {
          "internalType": "address",
          "name": "_rewardChef",
          "type": "address"
        }
      ],
      "stateMutability": "nonpayable",
      "type": "constructor"
    },
    {
      "anonymous": false,
      "inputs": [
        {
          "indexed": false,
          "internalType": "address",
          "name": "asset",
          "type": "address"
        },
        {
          "indexed": false,
          "internalType": "address",
          "name": "owner",
          "type": "address"
        },
        {
          "indexed": false,
          "internalType": "address",
          "name": "repayer",
          "type": "address"
        },
        {
          "indexed": false,
          "internalType": "uint256",
          "name": "assetAmountEDecimal",
          "type": "uint256"
        },
        {
          "indexed": false,
          "internalType": "uint256",
          "name": "repaymentE18",
          "type": "uint256"
        }
      ],
      "name": "PositionLiquidated",
      "type": "event"
    },
    {
      "anonymous": false,
      "inputs": [
        {
          "indexed": false,
          "internalType": "address",
          "name": "repayer",
          "type": "address"
        },
        {
          "indexed": false,
          "internalType": "uint256",
          "name": "repaymentE18",
          "type": "uint256"
        },
        {
          "indexed": false,
          "internalType": "uint256",
          "name": "excessAndFeeE18",
          "type": "uint256"
        }
      ],
      "name": "PositionRepaid",
      "type": "event"
    },
    {
      "inputs": [],
      "name": "ACCESS_CONTROL_SINGLETON",
      "outputs": [
        {
          "internalType": "contract ISuAccessControl",
          "name": "",
          "type": "address"
        }
      ],
      "stateMutability": "view",
      "type": "function"
    },
    {
      "inputs": [],
      "name": "LIQUIDATION_ACCESS_ROLE",
      "outputs": [
        {
          "internalType": "bytes32",
          "name": "",
          "type": "bytes32"
        }
      ],
      "stateMutability": "view",
      "type": "function"
    },
    {
      "inputs": [],
      "name": "MINTER_ROLE",
      "outputs": [
        {
          "internalType": "bytes32",
          "name": "",
          "type": "bytes32"
        }
      ],
      "stateMutability": "view",
      "type": "function"
    },
    {
      "inputs": [],
      "name": "STABLECOIN",
      "outputs": [
        {
          "internalType": "address",
          "name": "",
          "type": "address"
        }
      ],
      "stateMutability": "view",
      "type": "function"
    },
    {
      "inputs": [],
      "name": "VAULT_ACCESS_ROLE",
      "outputs": [
        {
          "internalType": "bytes32",
          "name": "",
          "type": "bytes32"
        }
      ],
      "stateMutability": "view",
      "type": "function"
    },
    {
      "inputs": [],
      "name": "VAULT_PARAMETERS",
      "outputs": [
        {
          "internalType": "contract SuVaultParameters",
          "name": "",
          "type": "address"
        }
      ],
      "stateMutability": "view",
      "type": "function"
    },
    {
      "inputs": [
        {
          "internalType": "address",
          "name": "asset",
          "type": "address"
        },
        {
          "internalType": "address",
          "name": "user",
          "type": "address"
        },
        {
          "internalType": "uint256",
          "name": "amountE18",
          "type": "uint256"
        }
      ],
      "name": "borrow",
      "outputs": [
        {
          "internalType": "uint256",
          "name": "",
          "type": "uint256"
        }
      ],
      "stateMutability": "nonpayable",
      "type": "function"
    },
    {
      "inputs": [
        {
          "internalType": "address",
          "name": "asset",
          "type": "address"
        },
        {
          "internalType": "address",
          "name": "user",
          "type": "address"
        },
        {
          "internalType": "uint256",
          "name": "amountE18",
          "type": "uint256"
        }
      ],
      "name": "calculateFeeE18",
      "outputs": [
        {
          "internalType": "uint256",
          "name": "",
          "type": "uint256"
        }
      ],
      "stateMutability": "view",
      "type": "function"
    },
    {
      "inputs": [
        {
          "internalType": "address",
          "name": "",
          "type": "address"
        },
        {
          "internalType": "address",
          "name": "",
          "type": "address"
        }
      ],
      "name": "collateralsEDecimal",
      "outputs": [
        {
          "internalType": "uint256",
          "name": "",
          "type": "uint256"
        }
      ],
      "stateMutability": "view",
      "type": "function"
    },
    {
      "inputs": [
        {
          "internalType": "address",
          "name": "",
          "type": "address"
        },
        {
          "internalType": "address",
          "name": "",
          "type": "address"
        }
      ],
      "name": "debtsE18",
      "outputs": [
        {
          "internalType": "uint256",
          "name": "",
          "type": "uint256"
        }
      ],
      "stateMutability": "view",
      "type": "function"
    },
    {
      "inputs": [
        {
          "internalType": "address",
          "name": "asset",
          "type": "address"
        },
        {
          "internalType": "address",
          "name": "user",
          "type": "address"
        },
        {
          "internalType": "uint256",
          "name": "amountEDecimal",
          "type": "uint256"
        }
      ],
      "name": "deposit",
      "outputs": [],
      "stateMutability": "nonpayable",
      "type": "function"
    },
    {
      "inputs": [
        {
          "internalType": "address",
          "name": "asset",
          "type": "address"
        },
        {
          "internalType": "address",
          "name": "user",
          "type": "address"
        }
      ],
      "name": "destroy",
      "outputs": [],
      "stateMutability": "nonpayable",
      "type": "function"
    },
    {
      "inputs": [
        {
          "internalType": "address",
          "name": "asset",
          "type": "address"
        },
        {
          "internalType": "address",
          "name": "user",
          "type": "address"
        },
        {
          "internalType": "uint256",
          "name": "amountEDecimal",
          "type": "uint256"
        }
      ],
      "name": "emergencyWithdraw",
      "outputs": [],
      "stateMutability": "nonpayable",
      "type": "function"
    },
    {
      "inputs": [],
      "name": "foundation",
      "outputs": [
        {
          "internalType": "address",
          "name": "",
          "type": "address"
        }
      ],
      "stateMutability": "view",
      "type": "function"
    },
    {
      "inputs": [
        {
          "internalType": "address",
          "name": "asset",
          "type": "address"
        },
        {
          "internalType": "address",
          "name": "user",
          "type": "address"
        }
      ],
      "name": "getTotalDebtE18",
      "outputs": [
        {
          "internalType": "uint256",
          "name": "",
          "type": "uint256"
        }
      ],
      "stateMutability": "view",
      "type": "function"
    },
    {
      "inputs": [
        {
          "internalType": "address",
          "name": "",
          "type": "address"
        },
        {
          "internalType": "address",
          "name": "",
          "type": "address"
        }
      ],
      "name": "lastUpdate",
      "outputs": [
        {
          "internalType": "uint256",
          "name": "",
          "type": "uint256"
        }
      ],
      "stateMutability": "view",
      "type": "function"
    },
    {
      "inputs": [
        {
          "internalType": "address",
          "name": "asset",
          "type": "address"
        },
        {
          "internalType": "address",
          "name": "user",
          "type": "address"
        },
        {
          "internalType": "address",
          "name": "recipient",
          "type": "address"
        },
        {
          "internalType": "uint256",
          "name": "assetAmountEDecimal",
          "type": "uint256"
        },
        {
          "internalType": "uint256",
          "name": "stablecoinAmountE18",
          "type": "uint256"
        }
      ],
      "name": "liquidate",
      "outputs": [
        {
          "internalType": "bool",
          "name": "",
          "type": "bool"
        }
      ],
      "stateMutability": "nonpayable",
      "type": "function"
    },
    {
      "inputs": [
        {
          "internalType": "address",
          "name": "",
          "type": "address"
        },
        {
          "internalType": "address",
          "name": "",
          "type": "address"
        }
      ],
      "name": "liquidationBlock",
      "outputs": [
        {
          "internalType": "uint256",
          "name": "",
          "type": "uint256"
        }
      ],
      "stateMutability": "view",
      "type": "function"
    },
    {
      "inputs": [
        {
          "internalType": "address",
          "name": "",
          "type": "address"
        }
      ],
      "name": "protocolStabilityFeeE18",
      "outputs": [
        {
          "internalType": "uint256",
          "name": "",
          "type": "uint256"
        }
      ],
      "stateMutability": "view",
      "type": "function"
    },
    {
      "inputs": [
        {
          "internalType": "address",
          "name": "repayer",
          "type": "address"
        },
        {
          "internalType": "uint256",
          "name": "stablecoinsToRepaymentE18",
          "type": "uint256"
        },
        {
          "internalType": "uint256",
          "name": "stablecoinsToFoundationE18",
          "type": "uint256"
        }
      ],
      "name": "repay",
      "outputs": [],
      "stateMutability": "nonpayable",
      "type": "function"
    },
    {
      "inputs": [],
      "name": "rewardChef",
      "outputs": [
        {
          "internalType": "contract RewardChefV2",
          "name": "",
          "type": "address"
        }
      ],
      "stateMutability": "view",
      "type": "function"
    },
    {
      "inputs": [
        {
          "internalType": "address",
          "name": "asset",
          "type": "address"
        },
        {
          "internalType": "uint256",
          "name": "stabilityFeeValueE18",
          "type": "uint256"
        },
        {
          "internalType": "uint256",
          "name": "stablecoinLimitE18",
          "type": "uint256"
        }
      ],
      "name": "setCollateral",
      "outputs": [],
      "stateMutability": "nonpayable",
      "type": "function"
    },
    {
      "inputs": [
        {
          "internalType": "address",
          "name": "newFoundation",
          "type": "address"
        }
      ],
      "name": "setFoundation",
      "outputs": [],
      "stateMutability": "nonpayable",
      "type": "function"
    },
    {
      "inputs": [
        {
          "internalType": "address",
          "name": "_rewardChef",
          "type": "address"
        }
      ],
      "name": "setRewardChef",
      "outputs": [],
      "stateMutability": "nonpayable",
      "type": "function"
    },
    {
      "inputs": [
        {
          "internalType": "address",
          "name": "asset",
          "type": "address"
        },
        {
          "internalType": "uint256",
          "name": "newValue",
          "type": "uint256"
        }
      ],
      "name": "setStabilityFeeE18",
      "outputs": [],
      "stateMutability": "nonpayable",
      "type": "function"
    },
    {
      "inputs": [
        {
          "internalType": "address",
          "name": "asset",
          "type": "address"
        },
        {
          "internalType": "uint256",
          "name": "limit",
          "type": "uint256"
        }
      ],
      "name": "setTokenDebtLimitE18",
      "outputs": [],
      "stateMutability": "nonpayable",
      "type": "function"
    },
    {
      "inputs": [
        {
          "internalType": "address",
          "name": "",
          "type": "address"
        },
        {
          "internalType": "address",
          "name": "",
          "type": "address"
        }
      ],
      "name": "stabilityFeeE18",
      "outputs": [
        {
          "internalType": "uint256",
          "name": "",
          "type": "uint256"
        }
      ],
      "stateMutability": "view",
      "type": "function"
    },
    {
      "inputs": [
        {
          "internalType": "address",
          "name": "",
          "type": "address"
        }
      ],
      "name": "tokenDebtLimitE18",
      "outputs": [
        {
          "internalType": "uint256",
          "name": "",
          "type": "uint256"
        }
      ],
      "stateMutability": "view",
      "type": "function"
    },
    {
      "inputs": [
        {
          "internalType": "address",
          "name": "",
          "type": "address"
        }
      ],
      "name": "tokenDebtsE18",
      "outputs": [
        {
          "internalType": "uint256",
          "name": "",
          "type": "uint256"
        }
      ],
      "stateMutability": "view",
      "type": "function"
    },
    {
      "inputs": [
        {
          "internalType": "address",
          "name": "asset",
          "type": "address"
        },
        {
          "internalType": "address",
          "name": "positionOwner",
          "type": "address"
        }
      ],
      "name": "triggerLiquidation",
      "outputs": [],
      "stateMutability": "nonpayable",
      "type": "function"
    },
    {
      "inputs": [
        {
          "internalType": "address",
          "name": "asset",
          "type": "address"
        },
        {
          "internalType": "address",
          "name": "user",
          "type": "address"
        }
      ],
      "name": "update",
      "outputs": [],
      "stateMutability": "nonpayable",
      "type": "function"
    },
    {
      "inputs": [],
      "name": "vault",
      "outputs": [
        {
          "internalType": "address",
          "name": "",
          "type": "address"
        }
      ],
      "stateMutability": "view",
      "type": "function"
    },
    {
      "inputs": [
        {
          "internalType": "address",
          "name": "asset",
          "type": "address"
        },
        {
          "internalType": "address",
          "name": "user",
          "type": "address"
        },
        {
          "internalType": "address",
          "name": "recipient",
          "type": "address"
        },
        {
          "internalType": "uint256",
          "name": "amountEDecimal",
          "type": "uint256"
        }
      ],
      "name": "withdraw",
      "outputs": [],
      "stateMutability": "nonpayable",
      "type": "function"
    },
    {
      "stateMutability": "payable",
      "type": "receive"
    }
  ],
  "transactionHash": "0x391718728bec62be56b20ac734330153e8bb27ae9140d41871143decb9617600",
  "args": [
    "0x053bAF8aA1fA955078356BFa4CEd149fd9B539ee",
    "0x778494a09173E9a85165F6B9fe98927f9C345500",
    "0xeF8eD509Ee41Cee037736Eb841D52c1c3a714019",
    "0x6cFE2627131aC4149be3411bd55aBa5D23b4C127"
  ],
  "numDeployments": 1,
  "solcInputHash": "a52e2c59662481816175484c19fb766d",
  "bytecode": "0x6101006040523480156200001257600080fd5b5060405162002f3f38038062002f3f83398101604081905262000035916200016d565b6001600160601b0319606085901b16608052833083816200009d5760405162461bcd60e51b815260206004820152601b60248201527f556e69742050726f746f636f6c3a205a45524f5f41444452455353000000000060448201526064015b60405180910390fd5b6001600160a01b038116620000f55760405162461bcd60e51b815260206004820152601b60248201527f556e69742050726f746f636f6c3a205a45524f5f414444524553530000000000604482015260640162000094565b606091821b6001600160601b031990811660a052600280546001600160a01b03199081166001600160a01b039485161790915596831b1660c0523090911b60e0526009805490951692169190911790925550620001c9915050565b80516001600160a01b03811681146200016857600080fd5b919050565b6000806000806080858703121562000183578384fd5b6200018e8562000150565b93506200019e6020860162000150565b9250620001ae6040860162000150565b9150620001be6060860162000150565b905092959194509250565b60805160601c60a05160601c60c05160601c60e05160601c612c9d620002a26000396000818161062c01528181610f19015281816117ee0152611c9501526000818161054b01528181611039015281816117cc01526118c2015260006107ad01526000818161026b015281816107f801528181610a4d01528181610bee01528181610d04015281816110ef0152818161123a0152818161144e015281816116af0152818161193f01528181611a8f01528181611d7e01528181611f130152818161208f0152818161225701526124130152612c9d6000f3fe6080604052600436106102025760003560e01c80638cd2e0c71161011d578063d4796d12116100b0578063db3543f51161007f578063e63ea40811610064578063e63ea4081461075b578063ec69678a1461077b578063fbfa77cf1461079b57600080fd5b8063db3543f514610707578063dc97e84e1461072757600080fd5b8063d4796d121461064e578063d53913931461066e578063d5dc24ba146106a2578063d6ff0b31146106da57600080fd5b8063a6ea8b87116100ec578063a6ea8b87146105ba578063c640752d146105da578063c9bc4384146105fa578063cadc05961461061a57600080fd5b80638cd2e0c71461051957806393a3977614610539578063965f5cfd1461056d5780639fea3e071461059a57600080fd5b806341fbb050116101955780636f70e66f116101645780636f70e66f1461046457806374befebc146104945780638340f549146104c157806388ad7a61146104e157600080fd5b806341fbb050146103e4578063477e9c6a146104045780635224372c1461042457806362b40f9f1461044457600080fd5b80631ce4b4a7116101d15780631ce4b4a7146103345780632a43734e1461036c57806334c188b01461038c57806334e3b779146103ac57600080fd5b806303ee9f22146102595780630b620b81146102aa5780630fc9d694146102cc57806314c376dc1461031257600080fd5b366102545760405162461bcd60e51b815260206004820152601960248201527f556e69742050726f746f636f6c3a20524553545249435445440000000000000060448201526064015b60405180910390fd5b600080fd5b34801561026557600080fd5b5061028d7f000000000000000000000000000000000000000000000000000000000000000081565b6040516001600160a01b0390911681526020015b60405180910390f35b3480156102b657600080fd5b506102ca6102c536600461298f565b6107cf565b005b3480156102d857600080fd5b506103046102e7366004612957565b600660209081526000928352604080842090915290825290205481565b6040519081526020016102a1565b34801561031e57600080fd5b50610304600080516020612c4883398151915281565b34801561034057600080fd5b5061030461034f366004612957565b600860209081526000928352604080842090915290825290205481565b34801561037857600080fd5b506102ca61038736600461291f565b610a24565b34801561039857600080fd5b506103046103a7366004612a39565b610b44565b3480156103b857600080fd5b506103046103c7366004612957565b600360209081526000928352604080842090915290825290205481565b3480156103f057600080fd5b5060025461028d906001600160a01b031681565b34801561041057600080fd5b506102ca61041f366004612a79565b610bd2565b34801561043057600080fd5b5061030461043f366004612a39565b610cd8565b34801561045057600080fd5b506102ca61045f366004612957565b6110c6565b34801561047057600080fd5b5061048461047f3660046129df565b61120e565b60405190151581526020016102a1565b3480156104a057600080fd5b506103046104af36600461291f565b60056020526000908152604090205481565b3480156104cd57600080fd5b506102ca6104dc366004612a39565b611425565b3480156104ed57600080fd5b506103046104fc366004612957565b600760209081526000928352604080842090915290825290205481565b34801561052557600080fd5b506102ca610534366004612aa4565b611686565b34801561054557600080fd5b5061028d7f000000000000000000000000000000000000000000000000000000000000000081565b34801561057957600080fd5b5061030461058836600461291f565b60006020819052908152604090205481565b3480156105a657600080fd5b506102ca6105b5366004612aa4565b611923565b3480156105c657600080fd5b506103046105d5366004612957565b611a26565b3480156105e657600080fd5b506102ca6105f5366004612957565b611a66565b34801561060657600080fd5b5060095461028d906001600160a01b031681565b34801561062657600080fd5b5061028d7f000000000000000000000000000000000000000000000000000000000000000081565b34801561065a57600080fd5b506102ca610669366004612957565b611d55565b34801561067a57600080fd5b506103047f9f2df0fed2c77648de5860a4cc508cd0818c85b8b8a1ab4ceeef8d981c8956a681565b3480156106ae57600080fd5b506103046106bd366004612957565b600460209081526000928352604080842090915290825290205481565b3480156106e657600080fd5b506103046106f536600461291f565b60016020526000908152604090205481565b34801561071357600080fd5b506102ca61072236600461291f565b611ef7565b34801561073357600080fd5b506103047f9a9aef7c1247d5fc769b0185c052913e39673da29a880317dfd20ebf86f26a4981565b34801561076757600080fd5b506102ca610776366004612a39565b612066565b34801561078757600080fd5b506102ca610796366004612a79565b61223b565b3480156107a757600080fd5b5061028d7f000000000000000000000000000000000000000000000000000000000000000081565b604051632474521560e21b8152600080516020612c4883398151915260048201523360248201527f00000000000000000000000000000000000000000000000000000000000000006001600160a01b0316906391d148549060440160206040518083038186803b15801561084257600080fd5b505afa158015610856573d6000803e3d6000fd5b505050506040513d601f19601f8201168201806040525081019061087a9190612ad8565b6108c05760405162461bcd60e51b81526020600482015260236024820152600080516020612c2883398151915260448201526213115160ea1b606482015260840161024b565b6001600160a01b038085166000908152600360209081526040808320938716835292905220548111156109355760405162461bcd60e51b815260206004820152601d60248201527f556e69742070726f746f636f6c3a2057524f4e475f5749544844524157000000604482015260640161024b565b6001600160a01b03808516600090815260036020908152604080832093871683529290522054610966908290612bb6565b6001600160a01b03808616600090815260036020908152604080832093881683529290522055610997848383612341565b6009546040517f6aed34f70000000000000000000000000000000000000000000000000000000081526001600160a01b03868116600483015285811660248301526044820184905290911690636aed34f790606401600060405180830381600087803b158015610a0657600080fd5b505af1158015610a1a573d6000803e3d6000fd5b5050505050505050565b604051632474521560e21b8152600080516020612c4883398151915260048201523360248201527f00000000000000000000000000000000000000000000000000000000000000006001600160a01b0316906391d148549060440160206040518083038186803b158015610a9757600080fd5b505afa158015610aab573d6000803e3d6000fd5b505050506040513d601f19601f82011682018060405250810190610acf9190612ad8565b610b155760405162461bcd60e51b81526020600482015260236024820152600080516020612c2883398151915260448201526213115160ea1b606482015260840161024b565b6009805473ffffffffffffffffffffffffffffffffffffffff19166001600160a01b0392909216919091179055565b6001600160a01b0380841660008181526006602090815260408083209487168084529482528083205493835260078252808320948352939052918220548290610b8d9042612bb6565b9050670de0b6b3a76400006301e1338082610ba88588612b97565b610bb29190612b97565b610bbc9190612b77565b610bc69190612b77565b925050505b9392505050565b604051632474521560e21b8152600060048201523360248201527f00000000000000000000000000000000000000000000000000000000000000006001600160a01b0316906391d148549060440160206040518083038186803b158015610c3857600080fd5b505afa158015610c4c573d6000803e3d6000fd5b505050506040513d601f19601f82011682018060405250810190610c709190612ad8565b610cbc5760405162461bcd60e51b815260206004820152601d60248201527f5375417574683a206f6e6c794f776e657220415554485f4641494c4544000000604482015260640161024b565b6001600160a01b03909116600090815260016020526040902055565b604051632474521560e21b8152600080516020612c4883398151915260048201523360248201526000907f00000000000000000000000000000000000000000000000000000000000000006001600160a01b0316906391d148549060440160206040518083038186803b158015610d4e57600080fd5b505afa158015610d62573d6000803e3d6000fd5b505050506040513d601f19601f82011682018060405250810190610d869190612ad8565b610dcc5760405162461bcd60e51b81526020600482015260236024820152600080516020612c2883398151915260448201526213115160ea1b606482015260840161024b565b6001600160a01b038085166000908152600860209081526040808320938716835292905220548490849015610e4f5760405162461bcd60e51b815260206004820152602360248201527f556e69742050726f746f636f6c3a204c49515549444154494e475f504f53495460448201526224a7a760e91b606482015260840161024b565b610e598686611a66565b6001600160a01b03808716600090815260046020908152604080832093891683529290522054610e8a908590612b5f565b6001600160a01b038088166000818152600460209081526040808320948b168352938152838220949094559081526005909252902054610ecb908590612b5f565b6001600160a01b03878116600081815260056020526040908190209390935591517fd6ff0b3100000000000000000000000000000000000000000000000000000000815260048101929092527f0000000000000000000000000000000000000000000000000000000000000000169063d6ff0b319060240160206040518083038186803b158015610f5b57600080fd5b505afa158015610f6f573d6000803e3d6000fd5b505050506040513d601f19601f82011682018060405250810190610f939190612af8565b6001600160a01b0387166000908152600560205260409020541115610ffa5760405162461bcd60e51b815260206004820152601f60248201527f556e69742050726f746f636f6c3a2041535345545f444542545f4c494d495400604482015260640161024b565b6040517f40c10f190000000000000000000000000000000000000000000000000000000081526001600160a01b038681166004830152602482018690527f000000000000000000000000000000000000000000000000000000000000000016906340c10f1990604401600060405180830381600087803b15801561107d57600080fd5b505af1158015611091573d6000803e3d6000fd5b5050506001600160a01b038088166000908152600460209081526040808320938a168352929052205493505050509392505050565b604051632474521560e21b8152600080516020612c4883398151915260048201523360248201527f00000000000000000000000000000000000000000000000000000000000000006001600160a01b0316906391d148549060440160206040518083038186803b15801561113957600080fd5b505afa15801561114d573d6000803e3d6000fd5b505050506040513d601f19601f820116820180604052508101906111719190612ad8565b6111b75760405162461bcd60e51b81526020600482015260236024820152600080516020612c2883398151915260448201526213115160ea1b606482015260840161024b565b6001600160a01b039182166000818152600660209081526040808320949095168083529381528482208290558282526007815284822084835281528482208290559181526008825283812092815291905290812055565b604051632474521560e21b8152600080516020612c4883398151915260048201523360248201526000907f00000000000000000000000000000000000000000000000000000000000000006001600160a01b0316906391d148549060440160206040518083038186803b15801561128457600080fd5b505afa158015611298573d6000803e3d6000fd5b505050506040513d601f19601f820116820180604052508101906112bc9190612ad8565b6113025760405162461bcd60e51b81526020600482015260236024820152600080516020612c2883398151915260448201526213115160ea1b606482015260840161024b565b8215158061130f57508115155b61135b5760405162461bcd60e51b815260206004820152601960248201527f556e69742050726f746f636f6c3a205553454c4553535f545800000000000000604482015260640161024b565b811561136c5761136c8686846123ea565b821561137e5761137e868686866107cf565b604080516001600160a01b0388811682528781166020830152861681830152606081018590526080810184905290517faaa3e6a935674cc172e60bf40d5e74691d4b2192405f3843f12ac33dacadb73d9181900360a00190a16001600160a01b03808716600090815260046020908152604080832093891683529290522054806114165761140c87876110c6565b600191505061141c565b60009150505b95945050505050565b604051632474521560e21b8152600080516020612c4883398151915260048201523360248201527f00000000000000000000000000000000000000000000000000000000000000006001600160a01b0316906391d148549060440160206040518083038186803b15801561149857600080fd5b505afa1580156114ac573d6000803e3d6000fd5b505050506040513d601f19601f820116820180604052508101906114d09190612ad8565b6115165760405162461bcd60e51b81526020600482015260236024820152600080516020612c2883398151915260448201526213115160ea1b606482015260840161024b565b6001600160a01b0380841660009081526008602090815260408083209386168352929052205483908390156115995760405162461bcd60e51b815260206004820152602360248201527f556e69742050726f746f636f6c3a204c49515549444154494e475f504f53495460448201526224a7a760e91b606482015260840161024b565b6115a58585308661264b565b6001600160a01b038086166000908152600360209081526040808320938816835292905220546115d6908490612b5f565b6001600160a01b0386811660008181526003602090815260408083208a86168085529252918290209490945560095490517f8e39520c0000000000000000000000000000000000000000000000000000000081526004810192909252602482019390935260448101869052911690638e39520c90606401600060405180830381600087803b15801561166757600080fd5b505af115801561167b573d6000803e3d6000fd5b505050505050505050565b604051632474521560e21b8152600080516020612c4883398151915260048201523360248201527f00000000000000000000000000000000000000000000000000000000000000006001600160a01b0316906391d148549060440160206040518083038186803b1580156116f957600080fd5b505afa15801561170d573d6000803e3d6000fd5b505050506040513d601f19601f820116820180604052508101906117319190612ad8565b6117775760405162461bcd60e51b81526020600482015260236024820152600080516020612c2883398151915260448201526213115160ea1b606482015260840161024b565b604080516001600160a01b0385168152602081018490529081018290527ffd2eefe030edeab1f0352cd450d7c7e0ffb83cbf33faf97cf068d11974a5e1f19060600160405180910390a18015611883576118837f0000000000000000000000000000000000000000000000000000000000000000847f00000000000000000000000000000000000000000000000000000000000000006001600160a01b03166341fbb0506040518163ffffffff1660e01b815260040160206040518083038186803b15801561184557600080fd5b505afa158015611859573d6000803e3d6000fd5b505050506040513d601f19601f8201168201806040525081019061187d919061293b565b8461264b565b6040517f9dc29fac0000000000000000000000000000000000000000000000000000000081526001600160a01b038481166004830152602482018490527f00000000000000000000000000000000000000000000000000000000000000001690639dc29fac90604401600060405180830381600087803b15801561190657600080fd5b505af115801561191a573d6000803e3d6000fd5b50505050505050565b604051632474521560e21b8152600060048201523360248201527f00000000000000000000000000000000000000000000000000000000000000006001600160a01b0316906391d148549060440160206040518083038186803b15801561198957600080fd5b505afa15801561199d573d6000803e3d6000fd5b505050506040513d601f19601f820116820180604052508101906119c19190612ad8565b611a0d5760405162461bcd60e51b815260206004820152601d60248201527f5375417574683a206f6e6c794f776e657220415554485f4641494c4544000000604482015260640161024b565b611a17838361223b565b611a218382610bd2565b505050565b6001600160a01b03808316600090815260046020908152604080832093851683529290529081205481611a5a858584610b44565b905061141c8183612b5f565b604051632474521560e21b8152600080516020612c4883398151915260048201523360248201527f00000000000000000000000000000000000000000000000000000000000000006001600160a01b0316906391d148549060440160206040518083038186803b158015611ad957600080fd5b505afa158015611aed573d6000803e3d6000fd5b505050506040513d601f19601f82011682018060405250810190611b119190612ad8565b611b575760405162461bcd60e51b81526020600482015260236024820152600080516020612c2883398151915260448201526213115160ea1b606482015260840161024b565b6001600160a01b038083166000908152600860209081526040808320938516835292905220548290829015611bda5760405162461bcd60e51b815260206004820152602360248201527f556e69742050726f746f636f6c3a204c49515549444154494e475f504f53495460448201526224a7a760e91b606482015260840161024b565b6000611be68585611a26565b6001600160a01b038087166000818152600460209081526040808320948a168352938152838220549282526005905291909120549192508291611c299190612bb6565b611c339190612b5f565b6001600160a01b0386811660008181526005602090815260408083209590955560048082528583208a861684529091529084902085905592517f965f5cfd000000000000000000000000000000000000000000000000000000008152928301527f0000000000000000000000000000000000000000000000000000000000000000169063965f5cfd9060240160206040518083038186803b158015611cd757600080fd5b505afa158015611ceb573d6000803e3d6000fd5b505050506040513d601f19601f82011682018060405250810190611d0f9190612af8565b6001600160a01b03958616600081815260066020908152604080832098909916808352978152888220939093559081526007825286812095815294905250505020429055565b604051632474521560e21b8152600080516020612c4883398151915260048201523360248201527f00000000000000000000000000000000000000000000000000000000000000006001600160a01b0316906391d148549060440160206040518083038186803b158015611dc857600080fd5b505afa158015611ddc573d6000803e3d6000fd5b505050506040513d601f19601f82011682018060405250810190611e009190612ad8565b611e465760405162461bcd60e51b81526020600482015260236024820152600080516020612c2883398151915260448201526213115160ea1b606482015260840161024b565b6001600160a01b038083166000908152600860209081526040808320938516835292905220548290829015611ec95760405162461bcd60e51b815260206004820152602360248201527f556e69742050726f746f636f6c3a204c49515549444154494e475f504f53495460448201526224a7a760e91b606482015260840161024b565b50506001600160a01b0391821660009081526008602090815260408083209390941682529190915220439055565b604051632474521560e21b8152600060048201523360248201527f00000000000000000000000000000000000000000000000000000000000000006001600160a01b0316906391d148549060440160206040518083038186803b158015611f5d57600080fd5b505afa158015611f71573d6000803e3d6000fd5b505050506040513d601f19601f82011682018060405250810190611f959190612ad8565b611fe15760405162461bcd60e51b815260206004820152601d60248201527f5375417574683a206f6e6c794f776e657220415554485f4641494c4544000000604482015260640161024b565b6001600160a01b0381166120375760405162461bcd60e51b815260206004820152601b60248201527f556e69742050726f746f636f6c3a205a45524f5f414444524553530000000000604482015260640161024b565b6002805473ffffffffffffffffffffffffffffffffffffffff19166001600160a01b0392909216919091179055565b604051632474521560e21b8152600080516020612c4883398151915260048201523360248201527f00000000000000000000000000000000000000000000000000000000000000006001600160a01b0316906391d148549060440160206040518083038186803b1580156120d957600080fd5b505afa1580156120ed573d6000803e3d6000fd5b505050506040513d601f19601f820116820180604052508101906121119190612ad8565b6121575760405162461bcd60e51b81526020600482015260236024820152600080516020612c2883398151915260448201526213115160ea1b606482015260840161024b565b6001600160a01b03808416600090815260036020908152604080832093861683529290522054612188908290612bb6565b6001600160a01b038085166000908152600360209081526040808320938716835292905220556121b9838383612341565b6009546040517fcf4f68d50000000000000000000000000000000000000000000000000000000081526001600160a01b03858116600483015284811660248301529091169063cf4f68d590604401600060405180830381600087803b15801561222157600080fd5b505af1925050508015612232575060015b611a2157505050565b604051632474521560e21b8152600060048201523360248201527f00000000000000000000000000000000000000000000000000000000000000006001600160a01b0316906391d148549060440160206040518083038186803b1580156122a157600080fd5b505afa1580156122b5573d6000803e3d6000fd5b505050506040513d601f19601f820116820180604052508101906122d99190612ad8565b6123255760405162461bcd60e51b815260206004820152601d60248201527f5375417574683a206f6e6c794f776e657220415554485f4641494c4544000000604482015260640161024b565b6001600160a01b03909116600090815260208190526040902055565b6040516001600160a01b038316602482015260448101829052611a219084907fa9059cbb00000000000000000000000000000000000000000000000000000000906064015b60408051601f198184030181529190526020810180517bffffffffffffffffffffffffffffffffffffffffffffffffffffffff167fffffffff00000000000000000000000000000000000000000000000000000000909316929092179091526126a2565b604051632474521560e21b8152600080516020612c4883398151915260048201523360248201527f00000000000000000000000000000000000000000000000000000000000000006001600160a01b0316906391d148549060440160206040518083038186803b15801561245d57600080fd5b505afa158015612471573d6000803e3d6000fd5b505050506040513d601f19601f820116820180604052508101906124959190612ad8565b6124db5760405162461bcd60e51b81526020600482015260236024820152600080516020612c2883398151915260448201526213115160ea1b606482015260840161024b565b6001600160a01b038084166000908152600460209081526040808320938616835292905220548111156125505760405162461bcd60e51b815260206004820152601960248201527f556e69742070726f746f636f6c3a2057524f4e475f4445425400000000000000604482015260640161024b565b6001600160a01b0383166000908152600560205260409020548111156125b85760405162461bcd60e51b815260206004820152601f60248201527f556e69742070726f746f636f6c3a2057524f4e475f544f54414c5f4445425400604482015260640161024b565b6001600160a01b038084166000908152600460209081526040808320938616835292905220546125e9908290612bb6565b6001600160a01b038085166000818152600460209081526040808320948816835293815283822094909455908152600590925290205461262a908290612bb6565b6001600160a01b039093166000908152600560205260409020929092555050565b6040516001600160a01b038085166024830152831660448201526064810182905261269c9085907f23b872dd0000000000000000000000000000000000000000000000000000000090608401612386565b50505050565b60006126f7826040518060400160405280602081526020017f5361666545524332303a206c6f772d6c6576656c2063616c6c206661696c6564815250856001600160a01b03166127879092919063ffffffff16565b805190915015611a2157808060200190518101906127159190612ad8565b611a215760405162461bcd60e51b815260206004820152602a60248201527f5361666545524332303a204552433230206f7065726174696f6e20646964206e60448201527f6f74207375636365656400000000000000000000000000000000000000000000606482015260840161024b565b6060612796848460008561279e565b949350505050565b6060824710156128165760405162461bcd60e51b815260206004820152602660248201527f416464726573733a20696e73756666696369656e742062616c616e636520666f60448201527f722063616c6c0000000000000000000000000000000000000000000000000000606482015260840161024b565b6001600160a01b0385163b61286d5760405162461bcd60e51b815260206004820152601d60248201527f416464726573733a2063616c6c20746f206e6f6e2d636f6e7472616374000000604482015260640161024b565b600080866001600160a01b031685876040516128899190612b10565b60006040518083038185875af1925050503d80600081146128c6576040519150601f19603f3d011682016040523d82523d6000602084013e6128cb565b606091505b50915091506128db8282866128e6565b979650505050505050565b606083156128f5575081610bcb565b8251156129055782518084602001fd5b8160405162461bcd60e51b815260040161024b9190612b2c565b600060208284031215612930578081fd5b8135610bcb81612c0f565b60006020828403121561294c578081fd5b8151610bcb81612c0f565b60008060408385031215612969578081fd5b823561297481612c0f565b9150602083013561298481612c0f565b809150509250929050565b600080600080608085870312156129a4578182fd5b84356129af81612c0f565b935060208501356129bf81612c0f565b925060408501356129cf81612c0f565b9396929550929360600135925050565b600080600080600060a086880312156129f6578081fd5b8535612a0181612c0f565b94506020860135612a1181612c0f565b93506040860135612a2181612c0f565b94979396509394606081013594506080013592915050565b600080600060608486031215612a4d578283fd5b8335612a5881612c0f565b92506020840135612a6881612c0f565b929592945050506040919091013590565b60008060408385031215612a8b578182fd5b8235612a9681612c0f565b946020939093013593505050565b600080600060608486031215612ab8578283fd5b8335612ac381612c0f565b95602085013595506040909401359392505050565b600060208284031215612ae9578081fd5b81518015158114610bcb578182fd5b600060208284031215612b09578081fd5b5051919050565b60008251612b22818460208701612bcd565b9190910192915050565b6020815260008251806020840152612b4b816040850160208701612bcd565b601f01601f19169190910160400192915050565b60008219821115612b7257612b72612bf9565b500190565b600082612b9257634e487b7160e01b81526012600452602481fd5b500490565b6000816000190483118215151615612bb157612bb1612bf9565b500290565b600082821015612bc857612bc8612bf9565b500390565b60005b83811015612be8578181015183820152602001612bd0565b8381111561269c5750506000910152565b634e487b7160e01b600052601160045260246000fd5b6001600160a01b0381168114612c2457600080fd5b5056fe5375417574683a206f6e6c795661756c7441636365737320415554485f464149e965846df3dd5b1dfa65f58e31477079e90140e0908b6dd31b5aead5a57cf365a26469706673582212206443c21527472d9929c548abcbb9781921ad53cf5007b69b4b88a8d7664f543f64736f6c63430008040033",
  "devdoc": {
    "kind": "dev",
    "methods": {
      "repay(address,uint256,uint256)": {
        "params": {
          "repayer": "The person who repaies by debt and transfers stablecoins to the foundation",
          "stablecoinsToFoundationE18": "The amount of stablecoins which will be transfered to the foundation(e.g fees)",
          "stablecoinsToRepaymentE18": "The amount of stablecoins which will be burned as a debt repayment"
        }
      },
      "triggerLiquidation(address,address)": {
        "details": "Sets the current block as liquidationBlock for the position. Can be triggered only once for the position."
      }
    },
    "version": 1
  },
  "userdoc": {
    "kind": "user",
    "methods": {
      "borrow(address,address,uint256)": {
        "notice": "no, one debt for [asset][user]"
      },
      "calculateFeeE18(address,address,uint256)": {
        "notice": "No, any call of vault.update would calc fee in debt and restart fee timer"
      },
      "collateralsEDecimal(address,address)": {
        "notice": "No, it's how much user had stacked collaterael asset == collaterals[asset][user], i.e deposits"
      },
      "constructor": {
        "notice": "YES"
      },
      "debtsE18(address,address)": {
        "notice": "Yes, in stablecoin amount, == debts[asset][user]"
      },
      "destroy(address,address)": {
        "notice": "only destroy debt info, exit -> _repay -> destroy if debt == 0"
      },
      "foundation()": {
        "notice": "Beneficiaty as VotingEscrow.vy"
      },
      "getTotalDebtE18(address,address)": {
        "notice": "they don't use it in practice"
      },
      "lastUpdate(address,address)": {
        "notice": "everything before lastUpdates is already calced in the debt. all data such as fees are from lastUpdate only"
      },
      "protocolStabilityFeeE18(address)": {
        "notice": "yes"
      },
      "repay(address,uint256,uint256)": {
        "notice": "this is just transfer function, manager calc feesBurns a debt repayment and transfers fees to the foundation"
      },
      "setCollateral(address,uint256,uint256)": {
        "notice": "Not sure it makes sense to split into create/edit functions"
      },
      "setStabilityFeeE18(address,uint256)": {
        "notice": "No, it's APR ( per year, see calculateFee) percentrage, fee percentage. YES, self-documented code-style is the best practice."
      },
      "setTokenDebtLimitE18(address,uint256)": {
        "notice": "Yes, application of  principle of least priviledge needed"
      },
      "stabilityFeeE18(address,address)": {
        "notice": "current interest that user pay for stabilityFee[asset][user]"
      },
      "tokenDebtLimitE18(address)": {
        "notice": "yes, limit for each collateral-assert"
      },
      "tokenDebtsE18(address)": {
        "notice": "How much stablecoin was borrowed against particular asset == tokenDebts[asset]"
      },
      "update(address,address)": {
        "notice": "when user borrows more"
      }
    },
    "version": 1
  },
  "storageLayout": {
    "storage": [
      {
        "astId": 8253,
        "contract": "contracts/lending/SuVault.sol:SuVault",
        "label": "protocolStabilityFeeE18",
        "offset": 0,
        "slot": "0",
        "type": "t_mapping(t_address,t_uint256)"
      },
      {
        "astId": 8258,
        "contract": "contracts/lending/SuVault.sol:SuVault",
        "label": "tokenDebtLimitE18",
        "offset": 0,
        "slot": "1",
        "type": "t_mapping(t_address,t_uint256)"
      },
      {
        "astId": 8261,
        "contract": "contracts/lending/SuVault.sol:SuVault",
        "label": "foundation",
        "offset": 0,
        "slot": "2",
        "type": "t_address"
      },
      {
        "astId": 7491,
        "contract": "contracts/lending/SuVault.sol:SuVault",
        "label": "collateralsEDecimal",
        "offset": 0,
        "slot": "3",
        "type": "t_mapping(t_address,t_mapping(t_address,t_uint256))"
      },
      {
        "astId": 7498,
        "contract": "contracts/lending/SuVault.sol:SuVault",
        "label": "debtsE18",
        "offset": 0,
        "slot": "4",
        "type": "t_mapping(t_address,t_mapping(t_address,t_uint256))"
      },
      {
        "astId": 7503,
        "contract": "contracts/lending/SuVault.sol:SuVault",
        "label": "tokenDebtsE18",
        "offset": 0,
        "slot": "5",
        "type": "t_mapping(t_address,t_uint256)"
      },
      {
        "astId": 7510,
        "contract": "contracts/lending/SuVault.sol:SuVault",
        "label": "stabilityFeeE18",
        "offset": 0,
        "slot": "6",
        "type": "t_mapping(t_address,t_mapping(t_address,t_uint256))"
      },
      {
        "astId": 7517,
        "contract": "contracts/lending/SuVault.sol:SuVault",
        "label": "lastUpdate",
        "offset": 0,
        "slot": "7",
        "type": "t_mapping(t_address,t_mapping(t_address,t_uint256))"
      },
      {
        "astId": 7523,
        "contract": "contracts/lending/SuVault.sol:SuVault",
        "label": "liquidationBlock",
        "offset": 0,
        "slot": "8",
        "type": "t_mapping(t_address,t_mapping(t_address,t_uint256))"
      },
      {
        "astId": 7569,
        "contract": "contracts/lending/SuVault.sol:SuVault",
        "label": "rewardChef",
        "offset": 0,
        "slot": "9",
        "type": "t_contract(RewardChefV2)11960"
      }
    ],
    "types": {
      "t_address": {
        "encoding": "inplace",
        "label": "address",
        "numberOfBytes": "20"
      },
      "t_contract(RewardChefV2)11960": {
        "encoding": "inplace",
        "label": "contract RewardChefV2",
        "numberOfBytes": "20"
      },
      "t_mapping(t_address,t_mapping(t_address,t_uint256))": {
        "encoding": "mapping",
        "key": "t_address",
        "label": "mapping(address => mapping(address => uint256))",
        "numberOfBytes": "32",
        "value": "t_mapping(t_address,t_uint256)"
      },
      "t_mapping(t_address,t_uint256)": {
        "encoding": "mapping",
        "key": "t_address",
        "label": "mapping(address => uint256)",
        "numberOfBytes": "32",
        "value": "t_uint256"
      },
      "t_uint256": {
        "encoding": "inplace",
        "label": "uint256",
        "numberOfBytes": "32"
      }
    }
  }
}