{
  "address": "0xE8550F338CA6dca6eb31bA0FB5aB0f098F03a190",
  "abi": [
    {
      "inputs": [
        {
          "internalType": "address payable",
          "name": "_vault",
          "type": "address"
        },
        {
          "internalType": "address",
          "name": "_foundation",
          "type": "address"
        }
      ],
      "stateMutability": "nonpayable",
      "type": "constructor"
    },
    {
      "inputs": [
        {
          "internalType": "address",
          "name": "",
          "type": "address"
        }
      ],
      "name": "canModifyVault",
      "outputs": [
        {
          "internalType": "bool",
          "name": "",
          "type": "bool"
        }
      ],
      "stateMutability": "view",
      "type": "function"
    },
    {
      "inputs": [],
      "name": "foundation",
      "outputs": [
        {
          "internalType": "address",
          "name": "",
          "type": "address"
        }
      ],
      "stateMutability": "view",
      "type": "function"
    },
    {
      "inputs": [
        {
          "internalType": "address",
          "name": "",
          "type": "address"
        }
      ],
      "name": "isManager",
      "outputs": [
        {
          "internalType": "bool",
          "name": "",
          "type": "bool"
        }
      ],
      "stateMutability": "view",
      "type": "function"
    },
    {
      "inputs": [
        {
          "internalType": "uint256",
          "name": "",
          "type": "uint256"
        },
        {
          "internalType": "address",
          "name": "",
          "type": "address"
        }
      ],
      "name": "isOracleTypeEnabled",
      "outputs": [
        {
          "internalType": "bool",
          "name": "",
          "type": "bool"
        }
      ],
      "stateMutability": "view",
      "type": "function"
    },
    {
      "inputs": [
        {
          "internalType": "address",
          "name": "",
          "type": "address"
        }
      ],
      "name": "liquidationFee",
      "outputs": [
        {
          "internalType": "uint256",
          "name": "",
          "type": "uint256"
        }
      ],
      "stateMutability": "view",
      "type": "function"
    },
    {
      "inputs": [
        {
          "internalType": "address",
          "name": "asset",
          "type": "address"
        },
        {
          "internalType": "uint256",
          "name": "stabilityFeeValue",
          "type": "uint256"
        },
        {
          "internalType": "uint256",
          "name": "liquidationFeeValue",
          "type": "uint256"
        },
        {
          "internalType": "uint256",
          "name": "usdpLimit",
          "type": "uint256"
        }
      ],
      "name": "setCollateral",
      "outputs": [],
      "stateMutability": "nonpayable",
      "type": "function"
    },
    {
      "inputs": [
        {
          "internalType": "address",
          "name": "newFoundation",
          "type": "address"
        }
      ],
      "name": "setFoundation",
      "outputs": [],
      "stateMutability": "nonpayable",
      "type": "function"
    },
    {
      "inputs": [
        {
          "internalType": "address",
          "name": "asset",
          "type": "address"
        },
        {
          "internalType": "uint256",
          "name": "newValue",
          "type": "uint256"
        }
      ],
      "name": "setLiquidationFee",
      "outputs": [],
      "stateMutability": "nonpayable",
      "type": "function"
    },
    {
      "inputs": [
        {
          "internalType": "address",
          "name": "who",
          "type": "address"
        },
        {
          "internalType": "bool",
          "name": "permit",
          "type": "bool"
        }
      ],
      "name": "setManager",
      "outputs": [],
      "stateMutability": "nonpayable",
      "type": "function"
    },
    {
      "inputs": [
        {
          "internalType": "uint256",
          "name": "_type",
          "type": "uint256"
        },
        {
          "internalType": "address",
          "name": "asset",
          "type": "address"
        },
        {
          "internalType": "bool",
          "name": "enabled",
          "type": "bool"
        }
      ],
      "name": "setOracleType",
      "outputs": [],
      "stateMutability": "nonpayable",
      "type": "function"
    },
    {
      "inputs": [
        {
          "internalType": "address",
          "name": "asset",
          "type": "address"
        },
        {
          "internalType": "uint256",
          "name": "newValue",
          "type": "uint256"
        }
      ],
      "name": "setStabilityFee",
      "outputs": [],
      "stateMutability": "nonpayable",
      "type": "function"
    },
    {
      "inputs": [
        {
          "internalType": "address",
          "name": "asset",
          "type": "address"
        },
        {
          "internalType": "uint256",
          "name": "limit",
          "type": "uint256"
        }
      ],
      "name": "setTokenDebtLimit",
      "outputs": [],
      "stateMutability": "nonpayable",
      "type": "function"
    },
    {
      "inputs": [
        {
          "internalType": "address",
          "name": "who",
          "type": "address"
        },
        {
          "internalType": "bool",
          "name": "permit",
          "type": "bool"
        }
      ],
      "name": "setVaultAccess",
      "outputs": [],
      "stateMutability": "nonpayable",
      "type": "function"
    },
    {
      "inputs": [
        {
          "internalType": "address",
          "name": "",
          "type": "address"
        }
      ],
      "name": "stabilityFee",
      "outputs": [
        {
          "internalType": "uint256",
          "name": "",
          "type": "uint256"
        }
      ],
      "stateMutability": "view",
      "type": "function"
    },
    {
      "inputs": [
        {
          "internalType": "address",
          "name": "",
          "type": "address"
        }
      ],
      "name": "tokenDebtLimit",
      "outputs": [
        {
          "internalType": "uint256",
          "name": "",
          "type": "uint256"
        }
      ],
      "stateMutability": "view",
      "type": "function"
    },
    {
      "inputs": [],
      "name": "vault",
      "outputs": [
        {
          "internalType": "address payable",
          "name": "",
          "type": "address"
        }
      ],
      "stateMutability": "view",
      "type": "function"
    },
    {
      "inputs": [],
      "name": "vaultParameters",
      "outputs": [
        {
          "internalType": "contract SuVaultParameters",
          "name": "",
          "type": "address"
        }
      ],
      "stateMutability": "view",
      "type": "function"
    }
  ],
  "transactionHash": "0xe18561142f74e5cadacf90431fbf0a196048fd849b298e768063b738260c55e7",
  "args": [
    "0xFcf5f04ac1a72d379d53B9262dC933E96A564477",
    "0x710B50d8288Be6d9a2A550796564f79944296E9e"
  ],
  "numDeployments": 1,
  "solcInputHash": "b2a316d88216370f97fe4d0da4c49655",
  "bytecode": "0x608060405234801561001057600080fd5b50604051610eff380380610eff83398101604081905261002f9161013d565b600080546001600160a01b031916301790556001600160a01b03821661009c5760405162461bcd60e51b815260206004820152601b60248201527f556e69742050726f746f636f6c3a205a45524f5f41444452455353000000000060448201526064015b60405180910390fd5b6001600160a01b0381166100f25760405162461bcd60e51b815260206004820152601b60248201527f556e69742050726f746f636f6c3a205a45524f5f4144445245535300000000006044820152606401610093565b336000908152600560205260409020805460ff19166001179055600780546001600160a01b039384166001600160a01b0319918216179091556008805492909316911617905561018e565b6000806040838503121561014f578182fd5b825161015a81610176565b602084015190925061016b81610176565b809150509250929050565b6001600160a01b038116811461018b57600080fd5b50565b610d628061019d6000396000f3fe608060405234801561001057600080fd5b506004361061011b5760003560e01c8063bf33bd4c116100b2578063ede2362f11610081578063f3ae241511610066578063f3ae24151461029e578063fbfa77cf146102c1578063fec0feb3146102d457600080fd5b8063ede2362f1461026b578063f2e323ba1461027e57600080fd5b8063bf33bd4c14610212578063c8023af414610225578063cc9a10a614610245578063db3543f51461025857600080fd5b8063997a2572116100ee578063997a2572146101ab578063a526ae2c146101d9578063a5e90eee146101ec578063aca345ee146101ff57600080fd5b80630db063b01461012057806338507ff51461015857806341fbb0501461016d5780634df1434114610198575b600080fd5b61014361012e366004610bdd565b60046020526000908152604090205460ff1681565b60405190151581526020015b60405180910390f35b61016b610166366004610c5d565b610302565b005b600854610180906001600160a01b031681565b6040516001600160a01b03909116815260200161014f565b61016b6101a6366004610c34565b610401565b6101cb6101b9366004610bdd565b60016020526000908152604090205481565b60405190815260200161014f565b61016b6101e7366004610c34565b6104f3565b61016b6101fa366004610bfe565b6105e5565b600054610180906001600160a01b031681565b61016b610220366004610c34565b6106e6565b6101cb610233366004610bdd565b60026020526000908152604090205481565b61016b610253366004610cdc565b61084f565b61016b610266366004610bdd565b61095a565b61016b610279366004610bfe565b610ac0565b6101cb61028c366004610bdd565b60036020526000908152604090205481565b6101436102ac366004610bdd565b60056020526000908152604090205460ff1681565b600754610180906001600160a01b031681565b6101436102e2366004610cb1565b600660209081526000928352604080842090915290825290205460ff1681565b60005460405163f3ae241560e01b81523360048201526001600160a01b039091169063f3ae24159060240160206040518083038186803b15801561034557600080fd5b505afa158015610359573d6000803e3d6000fd5b505050506040513d601f19601f8201168201806040525081019061037d9190610c95565b6103dd5760405162461bcd60e51b815260206004820152602660248201527f556e69742050726f746f636f6c3a206f6e6c794d616e6167657220415554485f60448201526511905253115160d21b60648201526084015b60405180910390fd5b6103e784846104f3565b6103f184836106e6565b6103fb8482610401565b50505050565b60005460405163f3ae241560e01b81523360048201526001600160a01b039091169063f3ae24159060240160206040518083038186803b15801561044457600080fd5b505afa158015610458573d6000803e3d6000fd5b505050506040513d601f19601f8201168201806040525081019061047c9190610c95565b6104d75760405162461bcd60e51b815260206004820152602660248201527f556e69742050726f746f636f6c3a206f6e6c794d616e6167657220415554485f60448201526511905253115160d21b60648201526084016103d4565b6001600160a01b03909116600090815260036020526040902055565b60005460405163f3ae241560e01b81523360048201526001600160a01b039091169063f3ae24159060240160206040518083038186803b15801561053657600080fd5b505afa15801561054a573d6000803e3d6000fd5b505050506040513d601f19601f8201168201806040525081019061056e9190610c95565b6105c95760405162461bcd60e51b815260206004820152602660248201527f556e69742050726f746f636f6c3a206f6e6c794d616e6167657220415554485f60448201526511905253115160d21b60648201526084016103d4565b6001600160a01b03909116600090815260016020526040902055565b60005460405163f3ae241560e01b81523360048201526001600160a01b039091169063f3ae24159060240160206040518083038186803b15801561062857600080fd5b505afa15801561063c573d6000803e3d6000fd5b505050506040513d601f19601f820116820180604052508101906106609190610c95565b6106bb5760405162461bcd60e51b815260206004820152602660248201527f556e69742050726f746f636f6c3a206f6e6c794d616e6167657220415554485f60448201526511905253115160d21b60648201526084016103d4565b6001600160a01b03919091166000908152600560205260409020805460ff1916911515919091179055565b60005460405163f3ae241560e01b81523360048201526001600160a01b039091169063f3ae24159060240160206040518083038186803b15801561072957600080fd5b505afa15801561073d573d6000803e3d6000fd5b505050506040513d601f19601f820116820180604052508101906107619190610c95565b6107bc5760405162461bcd60e51b815260206004820152602660248201527f556e69742050726f746f636f6c3a206f6e6c794d616e6167657220415554485f60448201526511905253115160d21b60648201526084016103d4565b60648111156108335760405162461bcd60e51b815260206004820152602160248201527f556e69742050726f746f636f6c3a2056414c55455f4f55545f4f465f52414e4760448201527f450000000000000000000000000000000000000000000000000000000000000060648201526084016103d4565b6001600160a01b03909116600090815260026020526040902055565b60005460405163f3ae241560e01b81523360048201526001600160a01b039091169063f3ae24159060240160206040518083038186803b15801561089257600080fd5b505afa1580156108a6573d6000803e3d6000fd5b505050506040513d601f19601f820116820180604052508101906108ca9190610c95565b6109255760405162461bcd60e51b815260206004820152602660248201527f556e69742050726f746f636f6c3a206f6e6c794d616e6167657220415554485f60448201526511905253115160d21b60648201526084016103d4565b60009283526006602090815260408085206001600160a01b039490941685529290529120805460ff1916911515919091179055565b60005460405163f3ae241560e01b81523360048201526001600160a01b039091169063f3ae24159060240160206040518083038186803b15801561099d57600080fd5b505afa1580156109b1573d6000803e3d6000fd5b505050506040513d601f19601f820116820180604052508101906109d59190610c95565b610a305760405162461bcd60e51b815260206004820152602660248201527f556e69742050726f746f636f6c3a206f6e6c794d616e6167657220415554485f60448201526511905253115160d21b60648201526084016103d4565b6001600160a01b038116610a865760405162461bcd60e51b815260206004820152601b60248201527f556e69742050726f746f636f6c3a205a45524f5f41444452455353000000000060448201526064016103d4565b600880547fffffffffffffffffffffffff0000000000000000000000000000000000000000166001600160a01b0392909216919091179055565b60005460405163f3ae241560e01b81523360048201526001600160a01b039091169063f3ae24159060240160206040518083038186803b158015610b0357600080fd5b505afa158015610b17573d6000803e3d6000fd5b505050506040513d601f19601f82011682018060405250810190610b3b9190610c95565b610b965760405162461bcd60e51b815260206004820152602660248201527f556e69742050726f746f636f6c3a206f6e6c794d616e6167657220415554485f60448201526511905253115160d21b60648201526084016103d4565b6001600160a01b03919091166000908152600460205260409020805460ff1916911515919091179055565b80356001600160a01b0381168114610bd857600080fd5b919050565b600060208284031215610bee578081fd5b610bf782610bc1565b9392505050565b60008060408385031215610c10578081fd5b610c1983610bc1565b91506020830135610c2981610d1b565b809150509250929050565b60008060408385031215610c46578182fd5b610c4f83610bc1565b946020939093013593505050565b60008060008060808587031215610c72578182fd5b610c7b85610bc1565b966020860135965060408601359560600135945092505050565b600060208284031215610ca6578081fd5b8151610bf781610d1b565b60008060408385031215610cc3578182fd5b82359150610cd360208401610bc1565b90509250929050565b600080600060608486031215610cf0578283fd5b83359250610d0060208501610bc1565b91506040840135610d1081610d1b565b809150509250925092565b8015158114610d2957600080fd5b5056fea2646970667358221220220cfc36bdd9ca978c48a47284f85a98868e4a77aba7e700c0f3afe6fd1e16f664736f6c63430008040033",
  "devdoc": {
    "kind": "dev",
    "methods": {},
    "version": 1
  },
  "userdoc": {
    "kind": "user",
    "methods": {
      "constructor": {
        "notice": "Yes, possibly with some logic change"
      },
      "foundation()": {
        "notice": "Beneficiaty as VotingEscrow.vy"
      },
      "isOracleTypeEnabled(uint256,address)": {
        "notice": "TODO:"
      },
      "liquidationFee(address)": {
        "notice": "yes"
      },
      "setCollateral(address,uint256,uint256,uint256)": {
        "notice": "Not sure it makes sense to split into create/edit functions"
      },
      "setLiquidationFee(address,uint256)": {
        "notice": "% 0 decimals, needede to get better variable names"
      },
      "setManager(address,bool)": {
        "notice": "YES, could be dangerous"
      },
      "setOracleType(uint256,address,bool)": {
        "notice": "All oracles implementation are numbered, so some of them support this particular asset"
      },
      "setStabilityFee(address,uint256)": {
        "notice": "No, it's APR ( per year, see calculateFee) percentrage, fee percentage; 3 decimals. YES, self-documented code-style is the best practice."
      },
      "setTokenDebtLimit(address,uint256)": {
        "notice": "Yes, application of  principle of least priviledge needed"
      },
      "setVaultAccess(address,bool)": {
        "notice": "https://en.wikipedia.org/wiki/Principle_of_least_privilege "
      },
      "stabilityFee(address)": {
        "notice": "yes"
      },
      "tokenDebtLimit(address)": {
        "notice": "yes, limit for each collateral-assert"
      },
      "vault()": {
        "notice": "NO, needed for onlyVault modifier"
      }
    },
    "notice": "No, but it's a good idea to have it",
    "version": 1
  },
  "storageLayout": {
    "storage": [
      {
        "astId": 4459,
        "contract": "contracts/SuVaultParameters.sol:SuVaultParameters",
        "label": "vaultParameters",
        "offset": 0,
        "slot": "0",
        "type": "t_contract(SuVaultParameters)4768"
      },
      {
        "astId": 4521,
        "contract": "contracts/SuVaultParameters.sol:SuVaultParameters",
        "label": "stabilityFee",
        "offset": 0,
        "slot": "1",
        "type": "t_mapping(t_address,t_uint256)"
      },
      {
        "astId": 4526,
        "contract": "contracts/SuVaultParameters.sol:SuVaultParameters",
        "label": "liquidationFee",
        "offset": 0,
        "slot": "2",
        "type": "t_mapping(t_address,t_uint256)"
      },
      {
        "astId": 4531,
        "contract": "contracts/SuVaultParameters.sol:SuVaultParameters",
        "label": "tokenDebtLimit",
        "offset": 0,
        "slot": "3",
        "type": "t_mapping(t_address,t_uint256)"
      },
      {
        "astId": 4535,
        "contract": "contracts/SuVaultParameters.sol:SuVaultParameters",
        "label": "canModifyVault",
        "offset": 0,
        "slot": "4",
        "type": "t_mapping(t_address,t_bool)"
      },
      {
        "astId": 4539,
        "contract": "contracts/SuVaultParameters.sol:SuVaultParameters",
        "label": "isManager",
        "offset": 0,
        "slot": "5",
        "type": "t_mapping(t_address,t_bool)"
      },
      {
        "astId": 4546,
        "contract": "contracts/SuVaultParameters.sol:SuVaultParameters",
        "label": "isOracleTypeEnabled",
        "offset": 0,
        "slot": "6",
        "type": "t_mapping(t_uint256,t_mapping(t_address,t_bool))"
      },
      {
        "astId": 4549,
        "contract": "contracts/SuVaultParameters.sol:SuVaultParameters",
        "label": "vault",
        "offset": 0,
        "slot": "7",
        "type": "t_address_payable"
      },
      {
        "astId": 4552,
        "contract": "contracts/SuVaultParameters.sol:SuVaultParameters",
        "label": "foundation",
        "offset": 0,
        "slot": "8",
        "type": "t_address"
      }
    ],
    "types": {
      "t_address": {
        "encoding": "inplace",
        "label": "address",
        "numberOfBytes": "20"
      },
      "t_address_payable": {
        "encoding": "inplace",
        "label": "address payable",
        "numberOfBytes": "20"
      },
      "t_bool": {
        "encoding": "inplace",
        "label": "bool",
        "numberOfBytes": "1"
      },
      "t_contract(SuVaultParameters)4768": {
        "encoding": "inplace",
        "label": "contract SuVaultParameters",
        "numberOfBytes": "20"
      },
      "t_mapping(t_address,t_bool)": {
        "encoding": "mapping",
        "key": "t_address",
        "label": "mapping(address => bool)",
        "numberOfBytes": "32",
        "value": "t_bool"
      },
      "t_mapping(t_address,t_uint256)": {
        "encoding": "mapping",
        "key": "t_address",
        "label": "mapping(address => uint256)",
        "numberOfBytes": "32",
        "value": "t_uint256"
      },
      "t_mapping(t_uint256,t_mapping(t_address,t_bool))": {
        "encoding": "mapping",
        "key": "t_uint256",
        "label": "mapping(uint256 => mapping(address => bool))",
        "numberOfBytes": "32",
        "value": "t_mapping(t_address,t_bool)"
      },
      "t_uint256": {
        "encoding": "inplace",
        "label": "uint256",
        "numberOfBytes": "32"
      }
    }
  }
}