{
  "address": "0x8a5a61B4C344fD4c788d7e63E3140DbB2F4CD6B9",
  "abi": [
    {
      "inputs": [
        {
          "internalType": "address",
          "name": "_vaultParameters",
          "type": "address"
        }
      ],
      "stateMutability": "nonpayable",
      "type": "constructor"
    },
    {
      "inputs": [
        {
          "internalType": "address",
          "name": "",
          "type": "address"
        }
      ],
      "name": "devaluationPeriod",
      "outputs": [
        {
          "internalType": "uint256",
          "name": "",
          "type": "uint256"
        }
      ],
      "stateMutability": "view",
      "type": "function"
    },
    {
      "inputs": [
        {
          "internalType": "address",
          "name": "",
          "type": "address"
        }
      ],
      "name": "initialCollateralRatio",
      "outputs": [
        {
          "internalType": "uint256",
          "name": "",
          "type": "uint256"
        }
      ],
      "stateMutability": "view",
      "type": "function"
    },
    {
      "inputs": [
        {
          "internalType": "address",
          "name": "",
          "type": "address"
        }
      ],
      "name": "liquidationDiscount",
      "outputs": [
        {
          "internalType": "uint256",
          "name": "",
          "type": "uint256"
        }
      ],
      "stateMutability": "view",
      "type": "function"
    },
    {
      "inputs": [
        {
          "internalType": "address",
          "name": "",
          "type": "address"
        }
      ],
      "name": "liquidationRatio",
      "outputs": [
        {
          "internalType": "uint256",
          "name": "",
          "type": "uint256"
        }
      ],
      "stateMutability": "view",
      "type": "function"
    },
    {
      "inputs": [
        {
          "internalType": "address",
          "name": "",
          "type": "address"
        }
      ],
      "name": "maxColPercent",
      "outputs": [
        {
          "internalType": "uint256",
          "name": "",
          "type": "uint256"
        }
      ],
      "stateMutability": "view",
      "type": "function"
    },
    {
      "inputs": [
        {
          "internalType": "address",
          "name": "",
          "type": "address"
        }
      ],
      "name": "minColPercent",
      "outputs": [
        {
          "internalType": "uint256",
          "name": "",
          "type": "uint256"
        }
      ],
      "stateMutability": "view",
      "type": "function"
    },
    {
      "inputs": [
        {
          "internalType": "address",
          "name": "asset",
          "type": "address"
        },
        {
          "internalType": "uint256",
          "name": "min",
          "type": "uint256"
        },
        {
          "internalType": "uint256",
          "name": "max",
          "type": "uint256"
        }
      ],
      "name": "setColPartRange",
      "outputs": [],
      "stateMutability": "nonpayable",
      "type": "function"
    },
    {
      "inputs": [
        {
          "internalType": "address",
          "name": "asset",
          "type": "address"
        },
        {
          "internalType": "uint256",
          "name": "stabilityFeeValue",
          "type": "uint256"
        },
        {
          "internalType": "uint256",
          "name": "liquidationFeeValue",
          "type": "uint256"
        },
        {
          "internalType": "uint256",
          "name": "initialCollateralRatioValue",
          "type": "uint256"
        },
        {
          "internalType": "uint256",
          "name": "liquidationRatioValue",
          "type": "uint256"
        },
        {
          "internalType": "uint256",
          "name": "liquidationDiscountValue",
          "type": "uint256"
        },
        {
          "internalType": "uint256",
          "name": "devaluationPeriodValue",
          "type": "uint256"
        },
        {
          "internalType": "uint256",
          "name": "usdpLimit",
          "type": "uint256"
        }
      ],
      "name": "setCollateral",
      "outputs": [],
      "stateMutability": "nonpayable",
      "type": "function"
    },
    {
      "inputs": [
        {
          "internalType": "address",
          "name": "asset",
          "type": "address"
        },
        {
          "internalType": "uint256",
          "name": "newValue",
          "type": "uint256"
        }
      ],
      "name": "setDevaluationPeriod",
      "outputs": [],
      "stateMutability": "nonpayable",
      "type": "function"
    },
    {
      "inputs": [
        {
          "internalType": "address",
          "name": "asset",
          "type": "address"
        },
        {
          "internalType": "uint256",
          "name": "newValue",
          "type": "uint256"
        }
      ],
      "name": "setInitialCollateralRatio",
      "outputs": [],
      "stateMutability": "nonpayable",
      "type": "function"
    },
    {
      "inputs": [
        {
          "internalType": "address",
          "name": "asset",
          "type": "address"
        },
        {
          "internalType": "uint256",
          "name": "newValue",
          "type": "uint256"
        }
      ],
      "name": "setLiquidationDiscount",
      "outputs": [],
      "stateMutability": "nonpayable",
      "type": "function"
    },
    {
      "inputs": [
        {
          "internalType": "address",
          "name": "asset",
          "type": "address"
        },
        {
          "internalType": "uint256",
          "name": "newValue",
          "type": "uint256"
        }
      ],
      "name": "setLiquidationRatio",
      "outputs": [],
      "stateMutability": "nonpayable",
      "type": "function"
    },
    {
      "inputs": [],
      "name": "vaultParameters",
      "outputs": [
        {
          "internalType": "contract SuVaultParameters",
          "name": "",
          "type": "address"
        }
      ],
      "stateMutability": "view",
      "type": "function"
    }
  ],
  "transactionHash": "0xfe2f31ea5dcd8a4446d3bdb822e7a862f27aa904ba2b6dd7ddfc38fa35389bbe",
  "args": [
    "0x0B9A08Cd4301AA43f15Ce7AffDb399528313263A"
  ],
  "numDeployments": 2,
  "solcInputHash": "273b8a8676c1f082f3d5df451cde8e6d",
  "bytecode": "0x608060405234801561001057600080fd5b50604051610cf3380380610cf383398101604081905261002f91610054565b600080546001600160a01b0319166001600160a01b0392909216919091179055610082565b600060208284031215610065578081fd5b81516001600160a01b038116811461007b578182fd5b9392505050565b610c62806100916000396000f3fe608060405234801561001057600080fd5b50600436106100df5760003560e01c8063aca345ee1161008c578063b85c449611610066578063b85c4496146101fd578063bf1b8dd31461021d578063d709b4b014610230578063f9ba141b1461024357600080fd5b8063aca345ee146101ac578063b1a4cf7f146101d7578063b7fc3ada146101ea57600080fd5b806335e92539116100bd57806335e925391461014c5780633bffbbe21461016c57806384b381d41461018c57600080fd5b80630aaddb50146100e457806315a04ea2146101175780631c71309814610137575b600080fd5b6101046100f2366004610b35565b60066020526000908152604090205481565b6040519081526020015b60405180910390f35b610104610125366004610b35565b60056020526000908152604090205481565b61014a610145366004610b56565b610256565b005b61010461015a366004610b35565b60026020526000908152604090205481565b61010461017a366004610b35565b60046020526000908152604090205481565b61010461019a366004610b35565b60016020526000908152604090205481565b6000546101bf906001600160a01b031681565b6040516001600160a01b03909116815260200161010e565b61014a6101e5366004610bb1565b6103c0565b61014a6101f8366004610b56565b610555565b61010461020b366004610b35565b60036020526000908152604090205481565b61014a61022b366004610b56565b6106bf565b61014a61023e366004610b56565b61084a565b61014a610251366004610b7f565b6109be565b60005460405163f3ae241560e01b81523360048201526001600160a01b039091169063f3ae24159060240160206040518083038186803b15801561029957600080fd5b505afa1580156102ad573d6000803e3d6000fd5b505050506040513d601f19601f820116820180604052508101906102d19190610c0c565b6103315760405162461bcd60e51b815260206004820152602660248201527f556e69742050726f746f636f6c3a206f6e6c794d616e6167657220415554485f60448201526511905253115160d21b60648201526084015b60405180910390fd5b806103a45760405162461bcd60e51b815260206004820152602a60248201527f556e69742050726f746f636f6c3a20494e434f52524543545f444556414c554160448201527f54494f4e5f56414c5545000000000000000000000000000000000000000000006064820152608401610328565b6001600160a01b03909116600090815260066020526040902055565b60005460405163f3ae241560e01b81523360048201526001600160a01b039091169063f3ae24159060240160206040518083038186803b15801561040357600080fd5b505afa158015610417573d6000803e3d6000fd5b505050506040513d601f19601f8201168201806040525081019061043b9190610c0c565b6104965760405162461bcd60e51b815260206004820152602660248201527f556e69742050726f746f636f6c3a206f6e6c794d616e6167657220415554485f60448201526511905253115160d21b6064820152608401610328565b6000546040517f38507ff50000000000000000000000000000000000000000000000000000000081526001600160a01b038a81166004830152602482018a90526044820189905260648201849052909116906338507ff590608401600060405180830381600087803b15801561050b57600080fd5b505af115801561051f573d6000803e3d6000fd5b5050505061052d888661084a565b61053788856106bf565b6105418883610256565b61054b8884610555565b5050505050505050565b60005460405163f3ae241560e01b81523360048201526001600160a01b039091169063f3ae24159060240160206040518083038186803b15801561059857600080fd5b505afa1580156105ac573d6000803e3d6000fd5b505050506040513d601f19601f820116820180604052508101906105d09190610c0c565b61062b5760405162461bcd60e51b815260206004820152602660248201527f556e69742050726f746f636f6c3a206f6e6c794d616e6167657220415554485f60448201526511905253115160d21b6064820152608401610328565b620186a081106106a35760405162461bcd60e51b815260206004820152602760248201527f556e69742050726f746f636f6c3a20494e434f52524543545f444953434f554e60448201527f545f56414c5545000000000000000000000000000000000000000000000000006064820152608401610328565b6001600160a01b03909116600090815260056020526040902055565b60005460405163f3ae241560e01b81523360048201526001600160a01b039091169063f3ae24159060240160206040518083038186803b15801561070257600080fd5b505afa158015610716573d6000803e3d6000fd5b505050506040513d601f19601f8201168201806040525081019061073a9190610c0c565b6107955760405162461bcd60e51b815260206004820152602660248201527f556e69742050726f746f636f6c3a206f6e6c794d616e6167657220415554485f60448201526511905253115160d21b6064820152608401610328565b80158015906107bc57506001600160a01b0382166000908152600360205260409020548110155b61082e5760405162461bcd60e51b815260206004820152603060248201527f556e69742050726f746f636f6c3a20494e434f52524543545f434f4c4c41544560448201527f52414c495a4154494f4e5f56414c5545000000000000000000000000000000006064820152608401610328565b6001600160a01b03909116600090815260046020526040902055565b60005460405163f3ae241560e01b81523360048201526001600160a01b039091169063f3ae24159060240160206040518083038186803b15801561088d57600080fd5b505afa1580156108a1573d6000803e3d6000fd5b505050506040513d601f19601f820116820180604052508101906108c59190610c0c565b6109205760405162461bcd60e51b815260206004820152602660248201527f556e69742050726f746f636f6c3a206f6e6c794d616e6167657220415554485f60448201526511905253115160d21b6064820152608401610328565b8015801590610930575060648111155b6109a25760405162461bcd60e51b815260206004820152603060248201527f556e69742050726f746f636f6c3a20494e434f52524543545f434f4c4c41544560448201527f52414c495a4154494f4e5f56414c5545000000000000000000000000000000006064820152608401610328565b6001600160a01b03909116600090815260036020526040902055565b60005460405163f3ae241560e01b81523360048201526001600160a01b039091169063f3ae24159060240160206040518083038186803b158015610a0157600080fd5b505afa158015610a15573d6000803e3d6000fd5b505050506040513d601f19601f82011682018060405250810190610a399190610c0c565b610a945760405162461bcd60e51b815260206004820152602660248201527f556e69742050726f746f636f6c3a206f6e6c794d616e6167657220415554485f60448201526511905253115160d21b6064820152608401610328565b60648111158015610aa55750808211155b610af15760405162461bcd60e51b815260206004820152601a60248201527f556e69742050726f746f636f6c3a2057524f4e475f52414e47450000000000006044820152606401610328565b6001600160a01b03909216600090815260016020908152604080832093909355600290522055565b80356001600160a01b0381168114610b3057600080fd5b919050565b600060208284031215610b46578081fd5b610b4f82610b19565b9392505050565b60008060408385031215610b68578081fd5b610b7183610b19565b946020939093013593505050565b600080600060608486031215610b93578081fd5b610b9c84610b19565b95602085013595506040909401359392505050565b600080600080600080600080610100898b031215610bcd578384fd5b610bd689610b19565b9a60208a01359a5060408a013599606081013599506080810135985060a0810135975060c0810135965060e00135945092505050565b600060208284031215610c1d578081fd5b81518015158114610b4f578182fdfea264697066735822122040332634ccb6d9f698f3d4b9e4547c0ebf62d4094f3cf0596fa11e54e675646164736f6c63430008040033",
  "devdoc": {
    "kind": "dev",
    "methods": {
      "setColPartRange(address,uint256,uint256)": {
        "details": "Sets the percentage range of the COL token part for specific collateral token",
        "params": {
          "asset": "The address of the main collateral token",
          "max": "The max percentage (0 decimals)*",
          "min": "The min percentage (0 decimals)"
        }
      },
      "setDevaluationPeriod(address,uint256)": {
        "details": "Sets the devaluation period of collateral after liquidation",
        "params": {
          "asset": "The address of the main collateral token",
          "newValue": "The devaluation period in blocks*"
        }
      },
      "setInitialCollateralRatio(address,uint256)": {
        "details": "Sets the initial collateral ratio",
        "params": {
          "asset": "The address of the main collateral token",
          "newValue": "The collateralization ratio (0 decimals)*"
        }
      },
      "setLiquidationDiscount(address,uint256)": {
        "details": "Sets the liquidation discount",
        "params": {
          "asset": "The address of the main collateral token",
          "newValue": "The liquidation discount (3 decimals)*"
        }
      },
      "setLiquidationRatio(address,uint256)": {
        "details": "Sets the liquidation ratio",
        "params": {
          "asset": "The address of the main collateral token",
          "newValue": "The liquidation ratio (0 decimals)*"
        }
      }
    },
    "title": "VaultManagerParameters*",
    "version": 1
  },
  "userdoc": {
    "kind": "user",
    "methods": {
      "setColPartRange(address,uint256,uint256)": {
        "notice": "Only manager is able to call this function"
      },
      "setDevaluationPeriod(address,uint256)": {
        "notice": "Only manager is able to call this function"
      },
      "setInitialCollateralRatio(address,uint256)": {
        "notice": "Only manager is able to call this function"
      },
      "setLiquidationDiscount(address,uint256)": {
        "notice": "Only manager is able to call this function"
      },
      "setLiquidationRatio(address,uint256)": {
        "notice": "Only manager is able to call this function"
      }
    },
    "version": 1
  },
  "storageLayout": {
    "storage": [
      {
        "astId": 4935,
        "contract": "contracts/SuVaultManagerParameters.sol:SuVaultManagerParameters",
        "label": "vaultParameters",
        "offset": 0,
        "slot": "0",
        "type": "t_contract(SuVaultParameters)5244"
      },
      {
        "astId": 4706,
        "contract": "contracts/SuVaultManagerParameters.sol:SuVaultManagerParameters",
        "label": "minColPercent",
        "offset": 0,
        "slot": "1",
        "type": "t_mapping(t_address,t_uint256)"
      },
      {
        "astId": 4710,
        "contract": "contracts/SuVaultManagerParameters.sol:SuVaultManagerParameters",
        "label": "maxColPercent",
        "offset": 0,
        "slot": "2",
        "type": "t_mapping(t_address,t_uint256)"
      },
      {
        "astId": 4714,
        "contract": "contracts/SuVaultManagerParameters.sol:SuVaultManagerParameters",
        "label": "initialCollateralRatio",
        "offset": 0,
        "slot": "3",
        "type": "t_mapping(t_address,t_uint256)"
      },
      {
        "astId": 4718,
        "contract": "contracts/SuVaultManagerParameters.sol:SuVaultManagerParameters",
        "label": "liquidationRatio",
        "offset": 0,
        "slot": "4",
        "type": "t_mapping(t_address,t_uint256)"
      },
      {
        "astId": 4722,
        "contract": "contracts/SuVaultManagerParameters.sol:SuVaultManagerParameters",
        "label": "liquidationDiscount",
        "offset": 0,
        "slot": "5",
        "type": "t_mapping(t_address,t_uint256)"
      },
      {
        "astId": 4726,
        "contract": "contracts/SuVaultManagerParameters.sol:SuVaultManagerParameters",
        "label": "devaluationPeriod",
        "offset": 0,
        "slot": "6",
        "type": "t_mapping(t_address,t_uint256)"
      }
    ],
    "types": {
      "t_address": {
        "encoding": "inplace",
        "label": "address",
        "numberOfBytes": "20"
      },
      "t_contract(SuVaultParameters)5244": {
        "encoding": "inplace",
        "label": "contract SuVaultParameters",
        "numberOfBytes": "20"
      },
      "t_mapping(t_address,t_uint256)": {
        "encoding": "mapping",
        "key": "t_address",
        "label": "mapping(address => uint256)",
        "numberOfBytes": "32",
        "value": "t_uint256"
      },
      "t_uint256": {
        "encoding": "inplace",
        "label": "uint256",
        "numberOfBytes": "32"
      }
    }
  }
}