{
  "address": "0xAF2F4Ba354775ED1506651aba95F4E456a71dA8a",
  "abi": [
    {
      "anonymous": false,
      "inputs": [
        {
          "indexed": false,
          "internalType": "address",
          "name": "asset",
          "type": "address"
        },
        {
          "indexed": false,
          "internalType": "address",
          "name": "owner",
          "type": "address"
        },
        {
          "indexed": false,
          "internalType": "address",
          "name": "repayer",
          "type": "address"
        },
        {
          "indexed": false,
          "internalType": "uint256",
          "name": "assetAmountEDecimal",
          "type": "uint256"
        },
        {
          "indexed": false,
          "internalType": "uint256",
          "name": "repaymentE18",
          "type": "uint256"
        }
      ],
      "name": "PositionLiquidated",
      "type": "event"
    },
    {
      "anonymous": false,
      "inputs": [
        {
          "indexed": false,
          "internalType": "address",
          "name": "repayer",
          "type": "address"
        },
        {
          "indexed": false,
          "internalType": "uint256",
          "name": "repaymentE18",
          "type": "uint256"
        },
        {
          "indexed": false,
          "internalType": "uint256",
          "name": "excessAndFeeE18",
          "type": "uint256"
        }
      ],
      "name": "PositionRepaid",
      "type": "event"
    },
    {
      "inputs": [],
      "name": "ACCESS_CONTROL_SINGLETON",
      "outputs": [
        {
          "internalType": "contract ISuAccessControl",
          "name": "",
          "type": "address"
        }
      ],
      "stateMutability": "view",
      "type": "function"
    },
    {
      "inputs": [],
      "name": "LIQUIDATION_ACCESS_ROLE",
      "outputs": [
        {
          "internalType": "bytes32",
          "name": "",
          "type": "bytes32"
        }
      ],
      "stateMutability": "view",
      "type": "function"
    },
    {
      "inputs": [],
      "name": "MINTER_ROLE",
      "outputs": [
        {
          "internalType": "bytes32",
          "name": "",
          "type": "bytes32"
        }
      ],
      "stateMutability": "view",
      "type": "function"
    },
    {
      "inputs": [],
      "name": "STABLECOIN",
      "outputs": [
        {
          "internalType": "address",
          "name": "",
          "type": "address"
        }
      ],
      "stateMutability": "view",
      "type": "function"
    },
    {
      "inputs": [],
      "name": "VAULT_ACCESS_ROLE",
      "outputs": [
        {
          "internalType": "bytes32",
          "name": "",
          "type": "bytes32"
        }
      ],
      "stateMutability": "view",
      "type": "function"
    },
    {
      "inputs": [],
      "name": "VAULT_PARAMETERS",
      "outputs": [
        {
          "internalType": "contract SuVaultParameters",
          "name": "",
          "type": "address"
        }
      ],
      "stateMutability": "view",
      "type": "function"
    },
    {
      "inputs": [
        {
          "internalType": "address",
          "name": "asset",
          "type": "address"
        },
        {
          "internalType": "address",
          "name": "user",
          "type": "address"
        },
        {
          "internalType": "uint256",
          "name": "amountE18",
          "type": "uint256"
        }
      ],
      "name": "borrow",
      "outputs": [
        {
          "internalType": "uint256",
          "name": "",
          "type": "uint256"
        }
      ],
      "stateMutability": "nonpayable",
      "type": "function"
    },
    {
      "inputs": [
        {
          "internalType": "address",
          "name": "asset",
          "type": "address"
        },
        {
          "internalType": "address",
          "name": "user",
          "type": "address"
        },
        {
          "internalType": "uint256",
          "name": "amountE18",
          "type": "uint256"
        }
      ],
      "name": "calculateFeeE18",
      "outputs": [
        {
          "internalType": "uint256",
          "name": "",
          "type": "uint256"
        }
      ],
      "stateMutability": "view",
      "type": "function"
    },
    {
      "inputs": [
        {
          "internalType": "address",
          "name": "",
          "type": "address"
        },
        {
          "internalType": "address",
          "name": "",
          "type": "address"
        }
      ],
      "name": "collateralsEDecimal",
      "outputs": [
        {
          "internalType": "uint256",
          "name": "",
          "type": "uint256"
        }
      ],
      "stateMutability": "view",
      "type": "function"
    },
    {
      "inputs": [
        {
          "internalType": "address",
          "name": "",
          "type": "address"
        },
        {
          "internalType": "address",
          "name": "",
          "type": "address"
        }
      ],
      "name": "debtsE18",
      "outputs": [
        {
          "internalType": "uint256",
          "name": "",
          "type": "uint256"
        }
      ],
      "stateMutability": "view",
      "type": "function"
    },
    {
      "inputs": [
        {
          "internalType": "address",
          "name": "asset",
          "type": "address"
        },
        {
          "internalType": "address",
          "name": "user",
          "type": "address"
        },
        {
          "internalType": "uint256",
          "name": "amountEDecimal",
          "type": "uint256"
        },
        {
          "internalType": "uint256",
          "name": "lockupPeriodSeconds",
          "type": "uint256"
        }
      ],
      "name": "deposit",
      "outputs": [],
      "stateMutability": "nonpayable",
      "type": "function"
    },
    {
      "inputs": [
        {
          "internalType": "address",
          "name": "asset",
          "type": "address"
        },
        {
          "internalType": "address",
          "name": "user",
          "type": "address"
        }
      ],
      "name": "destroy",
      "outputs": [],
      "stateMutability": "nonpayable",
      "type": "function"
    },
    {
      "inputs": [
        {
          "internalType": "address",
          "name": "asset",
          "type": "address"
        },
        {
          "internalType": "address",
          "name": "user",
          "type": "address"
        },
        {
          "internalType": "uint256",
          "name": "amountEDecimal",
          "type": "uint256"
        }
      ],
      "name": "emergencyWithdraw",
      "outputs": [],
      "stateMutability": "nonpayable",
      "type": "function"
    },
    {
      "inputs": [],
      "name": "foundation",
      "outputs": [
        {
          "internalType": "address",
          "name": "",
          "type": "address"
        }
      ],
      "stateMutability": "view",
      "type": "function"
    },
    {
      "inputs": [
        {
          "internalType": "address",
          "name": "asset",
          "type": "address"
        },
        {
          "internalType": "address",
          "name": "user",
          "type": "address"
        }
      ],
      "name": "getTotalDebtE18",
      "outputs": [
        {
          "internalType": "uint256",
          "name": "",
          "type": "uint256"
        }
      ],
      "stateMutability": "view",
      "type": "function"
    },
    {
      "inputs": [
        {
          "internalType": "address",
          "name": "_authControl",
          "type": "address"
        },
        {
          "internalType": "address",
          "name": "_stablecoin",
          "type": "address"
        },
        {
          "internalType": "address",
          "name": "_foundation",
          "type": "address"
        },
        {
          "internalType": "address",
          "name": "_rewardChef",
          "type": "address"
        }
      ],
      "name": "initialize",
      "outputs": [],
      "stateMutability": "nonpayable",
      "type": "function"
    },
    {
      "inputs": [
        {
          "internalType": "address",
          "name": "",
          "type": "address"
        },
        {
          "internalType": "address",
          "name": "",
          "type": "address"
        }
      ],
      "name": "lastUpdate",
      "outputs": [
        {
          "internalType": "uint256",
          "name": "",
          "type": "uint256"
        }
      ],
      "stateMutability": "view",
      "type": "function"
    },
    {
      "inputs": [
        {
          "internalType": "address",
          "name": "asset",
          "type": "address"
        },
        {
          "internalType": "address",
          "name": "user",
          "type": "address"
        },
        {
          "internalType": "address",
          "name": "recipient",
          "type": "address"
        },
        {
          "internalType": "uint256",
          "name": "assetAmountEDecimal",
          "type": "uint256"
        },
        {
          "internalType": "uint256",
          "name": "stablecoinAmountE18",
          "type": "uint256"
        }
      ],
      "name": "liquidate",
      "outputs": [
        {
          "internalType": "bool",
          "name": "",
          "type": "bool"
        }
      ],
      "stateMutability": "nonpayable",
      "type": "function"
    },
    {
      "inputs": [
        {
          "internalType": "address",
          "name": "",
          "type": "address"
        },
        {
          "internalType": "address",
          "name": "",
          "type": "address"
        }
      ],
      "name": "liquidationBlock",
      "outputs": [
        {
          "internalType": "uint256",
          "name": "",
          "type": "uint256"
        }
      ],
      "stateMutability": "view",
      "type": "function"
    },
    {
      "inputs": [
        {
          "internalType": "address",
          "name": "",
          "type": "address"
        }
      ],
      "name": "protocolStabilityFeeE18",
      "outputs": [
        {
          "internalType": "uint256",
          "name": "",
          "type": "uint256"
        }
      ],
      "stateMutability": "view",
      "type": "function"
    },
    {
      "inputs": [
        {
          "internalType": "address",
          "name": "repayer",
          "type": "address"
        },
        {
          "internalType": "uint256",
          "name": "stablecoinsToRepaymentE18",
          "type": "uint256"
        },
        {
          "internalType": "uint256",
          "name": "stablecoinsToFoundationE18",
          "type": "uint256"
        }
      ],
      "name": "repay",
      "outputs": [],
      "stateMutability": "nonpayable",
      "type": "function"
    },
    {
      "inputs": [],
      "name": "rewardChef",
      "outputs": [
        {
          "internalType": "contract RewardChefV2",
          "name": "",
          "type": "address"
        }
      ],
      "stateMutability": "view",
      "type": "function"
    },
    {
      "inputs": [
        {
          "internalType": "address",
          "name": "asset",
          "type": "address"
        },
        {
          "internalType": "uint256",
          "name": "stabilityFeeValueE18",
          "type": "uint256"
        },
        {
          "internalType": "uint256",
          "name": "stablecoinLimitE18",
          "type": "uint256"
        }
      ],
      "name": "setCollateral",
      "outputs": [],
      "stateMutability": "nonpayable",
      "type": "function"
    },
    {
      "inputs": [
        {
          "internalType": "address",
          "name": "newFoundation",
          "type": "address"
        }
      ],
      "name": "setFoundation",
      "outputs": [],
      "stateMutability": "nonpayable",
      "type": "function"
    },
    {
      "inputs": [
        {
          "internalType": "address",
          "name": "_rewardChef",
          "type": "address"
        }
      ],
      "name": "setRewardChef",
      "outputs": [],
      "stateMutability": "nonpayable",
      "type": "function"
    },
    {
      "inputs": [
        {
          "internalType": "address",
          "name": "asset",
          "type": "address"
        },
        {
          "internalType": "uint256",
          "name": "newValue",
          "type": "uint256"
        }
      ],
      "name": "setStabilityFeeE18",
      "outputs": [],
      "stateMutability": "nonpayable",
      "type": "function"
    },
    {
      "inputs": [
        {
          "internalType": "address",
          "name": "asset",
          "type": "address"
        },
        {
          "internalType": "uint256",
          "name": "limit",
          "type": "uint256"
        }
      ],
      "name": "setTokenDebtLimitE18",
      "outputs": [],
      "stateMutability": "nonpayable",
      "type": "function"
    },
    {
      "inputs": [
        {
          "internalType": "address",
          "name": "",
          "type": "address"
        },
        {
          "internalType": "address",
          "name": "",
          "type": "address"
        }
      ],
      "name": "stabilityFeeE18",
      "outputs": [
        {
          "internalType": "uint256",
          "name": "",
          "type": "uint256"
        }
      ],
      "stateMutability": "view",
      "type": "function"
    },
    {
      "inputs": [
        {
          "internalType": "address",
          "name": "",
          "type": "address"
        }
      ],
      "name": "tokenDebtLimitE18",
      "outputs": [
        {
          "internalType": "uint256",
          "name": "",
          "type": "uint256"
        }
      ],
      "stateMutability": "view",
      "type": "function"
    },
    {
      "inputs": [
        {
          "internalType": "address",
          "name": "",
          "type": "address"
        }
      ],
      "name": "tokenDebtsE18",
      "outputs": [
        {
          "internalType": "uint256",
          "name": "",
          "type": "uint256"
        }
      ],
      "stateMutability": "view",
      "type": "function"
    },
    {
      "inputs": [
        {
          "internalType": "address",
          "name": "asset",
          "type": "address"
        },
        {
          "internalType": "address",
          "name": "positionOwner",
          "type": "address"
        }
      ],
      "name": "triggerLiquidation",
      "outputs": [],
      "stateMutability": "nonpayable",
      "type": "function"
    },
    {
      "inputs": [
        {
          "internalType": "address",
          "name": "asset",
          "type": "address"
        },
        {
          "internalType": "address",
          "name": "user",
          "type": "address"
        }
      ],
      "name": "update",
      "outputs": [],
      "stateMutability": "nonpayable",
      "type": "function"
    },
    {
      "inputs": [],
      "name": "vault",
      "outputs": [
        {
          "internalType": "address",
          "name": "",
          "type": "address"
        }
      ],
      "stateMutability": "view",
      "type": "function"
    },
    {
      "inputs": [
        {
          "internalType": "address",
          "name": "asset",
          "type": "address"
        },
        {
          "internalType": "address",
          "name": "user",
          "type": "address"
        },
        {
          "internalType": "address",
          "name": "recipient",
          "type": "address"
        },
        {
          "internalType": "uint256",
          "name": "amountEDecimal",
          "type": "uint256"
        }
      ],
      "name": "withdraw",
      "outputs": [],
      "stateMutability": "nonpayable",
      "type": "function"
    },
    {
      "stateMutability": "payable",
      "type": "receive"
    }
  ],
  "numDeployments": 1,
  "solcInputHash": "5694697cb0af4bc0d2a28db42599225b",
  "bytecode": "0x608060405234801561001057600080fd5b50612ef2806100206000396000f3fe60806040526004361061021d5760003560e01c806393a397761161011d578063d5391393116100b0578063dc97e84e1161007f578063ec69678a11610064578063ec69678a14610760578063f8c8765e14610780578063fbfa77cf146107a057600080fd5b8063dc97e84e1461070c578063e63ea4081461074057600080fd5b8063d539139314610653578063d5dc24ba14610687578063d6ff0b31146106bf578063db3543f5146106ec57600080fd5b8063c640752d116100ec578063c640752d146105d3578063c9bc4384146105f3578063cadc059614610613578063d4796d121461063357600080fd5b806393a3977614610546578063965f5cfd146105665780639fea3e0714610593578063a6ea8b87146105b357600080fd5b806334e3b779116101b057806362b40f9f1161017f57806374befebc1161016457806374befebc146104c157806388ad7a61146104ee5780638cd2e0c71461052657600080fd5b806362b40f9f146104715780636f70e66f1461049157600080fd5b806334e3b779146103d957806341fbb05014610411578063477e9c6a146104315780635224372c1461045157600080fd5b80631ce4b4a7116101ec5780631ce4b4a71461034157806320e8c565146103795780632a43734e1461039957806334c188b0146103b957600080fd5b806303ee9f22146102745780630b620b81146102b75780630fc9d694146102d957806314c376dc1461031f57600080fd5b3661026f5760405162461bcd60e51b815260206004820152601960248201527f556e69742050726f746f636f6c3a20524553545249435445440000000000000060448201526064015b60405180910390fd5b600080fd5b34801561028057600080fd5b5060005461029a906201000090046001600160a01b031681565b6040516001600160a01b0390911681526020015b60405180910390f35b3480156102c357600080fd5b506102d76102d2366004612b9f565b6107c0565b005b3480156102e557600080fd5b506103116102f4366004612b0c565b600960209081526000928352604080842090915290825290205481565b6040519081526020016102ae565b34801561032b57600080fd5b50610311600080516020612e9d83398151915281565b34801561034d57600080fd5b5061031161035c366004612b0c565b600b60209081526000928352604080842090915290825290205481565b34801561038557600080fd5b506102d7610394366004612c89565b6109fe565b3480156103a557600080fd5b506102d76103b4366004612ad4565b610c50565b3480156103c557600080fd5b506103116103d4366004612c49565b610d59565b3480156103e557600080fd5b506103116103f4366004612b0c565b600660209081526000928352604080842090915290825290205481565b34801561041d57600080fd5b5060035461029a906001600160a01b031681565b34801561043d57600080fd5b506102d761044c366004612cce565b610de7565b34801561045d57600080fd5b5061031161046c366004612c49565b610ed7565b34801561047d57600080fd5b506102d761048c366004612b0c565b611273565b34801561049d57600080fd5b506104b16104ac366004612bef565b6113a4565b60405190151581526020016102ae565b3480156104cd57600080fd5b506103116104dc366004612ad4565b60086020526000908152604090205481565b3480156104fa57600080fd5b50610311610509366004612b0c565b600a60209081526000928352604080842090915290825290205481565b34801561053257600080fd5b506102d7610541366004612cf9565b6115a2565b34801561055257600080fd5b5060055461029a906001600160a01b031681565b34801561057257600080fd5b50610311610581366004612ad4565b60016020526000908152604090205481565b34801561059f57600080fd5b506102d76105ae366004612cf9565b6117f8565b3480156105bf57600080fd5b506103116105ce366004612b0c565b6118e5565b3480156105df57600080fd5b506102d76105ee366004612b0c565b611925565b3480156105ff57600080fd5b50600d5461029a906001600160a01b031681565b34801561061f57600080fd5b50600c5461029a906001600160a01b031681565b34801561063f57600080fd5b506102d761064e366004612b0c565b611be1565b34801561065f57600080fd5b506103117f9f2df0fed2c77648de5860a4cc508cd0818c85b8b8a1ab4ceeef8d981c8956a681565b34801561069357600080fd5b506103116106a2366004612b0c565b600760209081526000928352604080842090915290825290205481565b3480156106cb57600080fd5b506103116106da366004612ad4565b60026020526000908152604090205481565b3480156106f857600080fd5b506102d7610707366004612ad4565b611d6c565b34801561071857600080fd5b506103117f9a9aef7c1247d5fc769b0185c052913e39673da29a880317dfd20ebf86f26a4981565b34801561074c57600080fd5b506102d761075b366004612c49565b611ec5565b34801561076c57600080fd5b506102d761077b366004612cce565b6120f8565b34801561078c57600080fd5b506102d761079b366004612b44565b6121e8565b3480156107ac57600080fd5b5060045461029a906001600160a01b031681565b600054604051632474521560e21b8152600080516020612e9d8339815191526004820152336024820152620100009091046001600160a01b0316906391d148549060440160206040518083038186803b15801561081c57600080fd5b505afa158015610830573d6000803e3d6000fd5b505050506040513d601f19601f820116820180604052508101906108549190612d2d565b61089a5760405162461bcd60e51b81526020600482015260236024820152600080516020612e7d83398151915260448201526213115160ea1b6064820152608401610266565b6001600160a01b0380851660009081526006602090815260408083209387168352929052205481111561090f5760405162461bcd60e51b815260206004820152601160248201527f57697468647261772065786365656465640000000000000000000000000000006044820152606401610266565b6001600160a01b03808516600090815260066020908152604080832093871683529290522054610940908290612e0b565b6001600160a01b03808616600090815260066020908152604080832093881683529290522055610971848383612306565b600d546040517f6aed34f70000000000000000000000000000000000000000000000000000000081526001600160a01b03868116600483015285811660248301526044820184905290911690636aed34f790606401600060405180830381600087803b1580156109e057600080fd5b505af11580156109f4573d6000803e3d6000fd5b5050505050505050565b600054604051632474521560e21b8152600080516020612e9d8339815191526004820152336024820152620100009091046001600160a01b0316906391d148549060440160206040518083038186803b158015610a5a57600080fd5b505afa158015610a6e573d6000803e3d6000fd5b505050506040513d601f19601f82011682018060405250810190610a929190612d2d565b610ad85760405162461bcd60e51b81526020600482015260236024820152600080516020612e7d83398151915260448201526213115160ea1b6064820152608401610266565b6001600160a01b038085166000908152600b60209081526040808320938716835292905220548490849015610b5b5760405162461bcd60e51b815260206004820152602360248201527f556e69742050726f746f636f6c3a204c49515549444154494e475f504f53495460448201526224a7a760e91b6064820152608401610266565b610b67868630876123af565b6001600160a01b03808716600090815260066020908152604080832093891683529290522054610b98908590612db4565b6001600160a01b0387811660008181526006602090815260408083208b861680855292529182902094909455600d5490517ff7bfea2c00000000000000000000000000000000000000000000000000000000815260048101929092526024820193909352604481018790526064810186905291169063f7bfea2c90608401600060405180830381600087803b158015610c3057600080fd5b505af1158015610c44573d6000803e3d6000fd5b50505050505050505050565b600054604051632474521560e21b8152600080516020612e9d8339815191526004820152336024820152620100009091046001600160a01b0316906391d148549060440160206040518083038186803b158015610cac57600080fd5b505afa158015610cc0573d6000803e3d6000fd5b505050506040513d601f19601f82011682018060405250810190610ce49190612d2d565b610d2a5760405162461bcd60e51b81526020600482015260236024820152600080516020612e7d83398151915260448201526213115160ea1b6064820152608401610266565b600d805473ffffffffffffffffffffffffffffffffffffffff19166001600160a01b0392909216919091179055565b6001600160a01b03808416600081815260096020908152604080832094871680845294825280832054938352600a8252808320948352939052918220548290610da29042612e0b565b9050670de0b6b3a76400006301e1338082610dbd8588612dec565b610dc79190612dec565b610dd19190612dcc565b610ddb9190612dcc565b925050505b9392505050565b60008054604051632474521560e21b815260048101929092523360248301526201000090046001600160a01b0316906391d148549060440160206040518083038186803b158015610e3757600080fd5b505afa158015610e4b573d6000803e3d6000fd5b505050506040513d601f19601f82011682018060405250810190610e6f9190612d2d565b610ebb5760405162461bcd60e51b815260206004820152601d60248201527f5375417574683a206f6e6c794f776e657220415554485f4641494c45440000006044820152606401610266565b6001600160a01b03909116600090815260026020526040902055565b60008054604051632474521560e21b8152600080516020612e9d8339815191526004820152336024820152620100009091046001600160a01b0316906391d148549060440160206040518083038186803b158015610f3457600080fd5b505afa158015610f48573d6000803e3d6000fd5b505050506040513d601f19601f82011682018060405250810190610f6c9190612d2d565b610fb25760405162461bcd60e51b81526020600482015260236024820152600080516020612e7d83398151915260448201526213115160ea1b6064820152608401610266565b6001600160a01b038085166000908152600b602090815260408083209387168352929052205484908490156110355760405162461bcd60e51b815260206004820152602360248201527f556e69742050726f746f636f6c3a204c49515549444154494e475f504f53495460448201526224a7a760e91b6064820152608401610266565b61103f8686611925565b6001600160a01b03808716600090815260076020908152604080832093891683529290522054611070908590612db4565b6001600160a01b038088166000818152600760209081526040808320948b1683529381528382209490945590815260089092529020546110b1908590612db4565b6001600160a01b038781166000818152600860205260409081902093909355600c5492517fd6ff0b31000000000000000000000000000000000000000000000000000000008152600481019190915291169063d6ff0b319060240160206040518083038186803b15801561112457600080fd5b505afa158015611138573d6000803e3d6000fd5b505050506040513d601f19601f8201168201806040525081019061115c9190612d4d565b6001600160a01b03871660009081526008602052604090205411156111c35760405162461bcd60e51b815260206004820152601f60248201527f556e69742050726f746f636f6c3a2041535345545f444542545f4c494d4954006044820152606401610266565b6005546040517f40c10f190000000000000000000000000000000000000000000000000000000081526001600160a01b03878116600483015260248201879052909116906340c10f1990604401600060405180830381600087803b15801561122a57600080fd5b505af115801561123e573d6000803e3d6000fd5b5050506001600160a01b038088166000908152600760209081526040808320938a168352929052205493505050509392505050565b600054604051632474521560e21b8152600080516020612e9d8339815191526004820152336024820152620100009091046001600160a01b0316906391d148549060440160206040518083038186803b1580156112cf57600080fd5b505afa1580156112e3573d6000803e3d6000fd5b505050506040513d601f19601f820116820180604052508101906113079190612d2d565b61134d5760405162461bcd60e51b81526020600482015260236024820152600080516020612e7d83398151915260448201526213115160ea1b6064820152608401610266565b6001600160a01b03918216600081815260096020908152604080832094909516808352938152848220829055828252600a81528482208483528152848220829055918152600b825283812092815291905290812055565b60008054604051632474521560e21b8152600080516020612e9d8339815191526004820152336024820152620100009091046001600160a01b0316906391d148549060440160206040518083038186803b15801561140157600080fd5b505afa158015611415573d6000803e3d6000fd5b505050506040513d601f19601f820116820180604052508101906114399190612d2d565b61147f5760405162461bcd60e51b81526020600482015260236024820152600080516020612e7d83398151915260448201526213115160ea1b6064820152608401610266565b8215158061148c57508115155b6114d85760405162461bcd60e51b815260206004820152601960248201527f556e69742050726f746f636f6c3a205553454c4553535f5458000000000000006044820152606401610266565b81156114e9576114e9868684612406565b82156114fb576114fb868686866107c0565b604080516001600160a01b0388811682528781166020830152861681830152606081018590526080810184905290517faaa3e6a935674cc172e60bf40d5e74691d4b2192405f3843f12ac33dacadb73d9181900360a00190a16001600160a01b0380871660009081526007602090815260408083209389168352929052205480611593576115898787611273565b6001915050611599565b60009150505b95945050505050565b600054604051632474521560e21b8152600080516020612e9d8339815191526004820152336024820152620100009091046001600160a01b0316906391d148549060440160206040518083038186803b1580156115fe57600080fd5b505afa158015611612573d6000803e3d6000fd5b505050506040513d601f19601f820116820180604052508101906116369190612d2d565b61167c5760405162461bcd60e51b81526020600482015260236024820152600080516020612e7d83398151915260448201526213115160ea1b6064820152608401610266565b604080516001600160a01b0385168152602081018490529081018290527ffd2eefe030edeab1f0352cd450d7c7e0ffb83cbf33faf97cf068d11974a5e1f19060600160405180910390a1801561177457600554600c54604080517f41fbb0500000000000000000000000000000000000000000000000000000000081529051611774936001600160a01b039081169388939116916341fbb05091600480820192602092909190829003018186803b15801561173657600080fd5b505afa15801561174a573d6000803e3d6000fd5b505050506040513d601f19601f8201168201806040525081019061176e9190612af0565b846123af565b6005546040517f9dc29fac0000000000000000000000000000000000000000000000000000000081526001600160a01b0385811660048301526024820185905290911690639dc29fac90604401600060405180830381600087803b1580156117db57600080fd5b505af11580156117ef573d6000803e3d6000fd5b50505050505050565b60008054604051632474521560e21b815260048101929092523360248301526201000090046001600160a01b0316906391d148549060440160206040518083038186803b15801561184857600080fd5b505afa15801561185c573d6000803e3d6000fd5b505050506040513d601f19601f820116820180604052508101906118809190612d2d565b6118cc5760405162461bcd60e51b815260206004820152601d60248201527f5375417574683a206f6e6c794f776e657220415554485f4641494c45440000006044820152606401610266565b6118d683836120f8565b6118e08382610de7565b505050565b6001600160a01b03808316600090815260076020908152604080832093851683529290529081205481611919858584610d59565b90506115998183612db4565b600054604051632474521560e21b8152600080516020612e9d8339815191526004820152336024820152620100009091046001600160a01b0316906391d148549060440160206040518083038186803b15801561198157600080fd5b505afa158015611995573d6000803e3d6000fd5b505050506040513d601f19601f820116820180604052508101906119b99190612d2d565b6119ff5760405162461bcd60e51b81526020600482015260236024820152600080516020612e7d83398151915260448201526213115160ea1b6064820152608401610266565b6001600160a01b038083166000908152600b60209081526040808320938516835292905220548290829015611a825760405162461bcd60e51b815260206004820152602360248201527f556e69742050726f746f636f6c3a204c49515549444154494e475f504f53495460448201526224a7a760e91b6064820152608401610266565b6000611a8e85856118e5565b6001600160a01b038087166000818152600760209081526040808320948a168352938152838220549282526008905291909120549192508291611ad19190612e0b565b611adb9190612db4565b6001600160a01b038681166000818152600860209081526040808320959095556007815284822089851683529052839020849055600c5492517f965f5cfd000000000000000000000000000000000000000000000000000000008152600481019190915291169063965f5cfd9060240160206040518083038186803b158015611b6357600080fd5b505afa158015611b77573d6000803e3d6000fd5b505050506040513d601f19601f82011682018060405250810190611b9b9190612d4d565b6001600160a01b0395861660008181526009602090815260408083209890991680835297815288822093909355908152600a825286812095815294905250505020429055565b600054604051632474521560e21b8152600080516020612e9d8339815191526004820152336024820152620100009091046001600160a01b0316906391d148549060440160206040518083038186803b158015611c3d57600080fd5b505afa158015611c51573d6000803e3d6000fd5b505050506040513d601f19601f82011682018060405250810190611c759190612d2d565b611cbb5760405162461bcd60e51b81526020600482015260236024820152600080516020612e7d83398151915260448201526213115160ea1b6064820152608401610266565b6001600160a01b038083166000908152600b60209081526040808320938516835292905220548290829015611d3e5760405162461bcd60e51b815260206004820152602360248201527f556e69742050726f746f636f6c3a204c49515549444154494e475f504f53495460448201526224a7a760e91b6064820152608401610266565b50506001600160a01b039182166000908152600b602090815260408083209390941682529190915220439055565b60008054604051632474521560e21b815260048101929092523360248301526201000090046001600160a01b0316906391d148549060440160206040518083038186803b158015611dbc57600080fd5b505afa158015611dd0573d6000803e3d6000fd5b505050506040513d601f19601f82011682018060405250810190611df49190612d2d565b611e405760405162461bcd60e51b815260206004820152601d60248201527f5375417574683a206f6e6c794f776e657220415554485f4641494c45440000006044820152606401610266565b6001600160a01b038116611e965760405162461bcd60e51b815260206004820152601b60248201527f556e69742050726f746f636f6c3a205a45524f5f4144445245535300000000006044820152606401610266565b6003805473ffffffffffffffffffffffffffffffffffffffff19166001600160a01b0392909216919091179055565b600054604051632474521560e21b8152600080516020612e9d8339815191526004820152336024820152620100009091046001600160a01b0316906391d148549060440160206040518083038186803b158015611f2157600080fd5b505afa158015611f35573d6000803e3d6000fd5b505050506040513d601f19601f82011682018060405250810190611f599190612d2d565b611f9f5760405162461bcd60e51b81526020600482015260236024820152600080516020612e7d83398151915260448201526213115160ea1b6064820152608401610266565b6001600160a01b038084166000908152600660209081526040808320938616835292905220548111156120145760405162461bcd60e51b815260206004820152601160248201527f57697468647261772065786365656465640000000000000000000000000000006044820152606401610266565b6001600160a01b03808416600090815260066020908152604080832093861683529290522054612045908290612e0b565b6001600160a01b03808516600090815260066020908152604080832093871683529290522055612076838383612306565b600d546040517fcf4f68d50000000000000000000000000000000000000000000000000000000081526001600160a01b03858116600483015284811660248301529091169063cf4f68d590604401600060405180830381600087803b1580156120de57600080fd5b505af19250505080156120ef575060015b6118e057505050565b60008054604051632474521560e21b815260048101929092523360248301526201000090046001600160a01b0316906391d148549060440160206040518083038186803b15801561214857600080fd5b505afa15801561215c573d6000803e3d6000fd5b505050506040513d601f19601f820116820180604052508101906121809190612d2d565b6121cc5760405162461bcd60e51b815260206004820152601d60248201527f5375417574683a206f6e6c794f776e657220415554485f4641494c45440000006044820152606401610266565b6001600160a01b03909116600090815260016020526040902055565b600054610100900460ff166122035760005460ff1615612207565b303b155b6122795760405162461bcd60e51b815260206004820152602e60248201527f496e697469616c697a61626c653a20636f6e747261637420697320616c72656160448201527f647920696e697469616c697a65640000000000000000000000000000000000006064820152608401610266565b600054610100900460ff1615801561229b576000805461ffff19166101011790555b6122a6853085612650565b600580546001600160a01b0380871673ffffffffffffffffffffffffffffffffffffffff1992831617909255600c8054821630179055600d80549285169290911691909117905580156122ff576000805461ff00191690555b5050505050565b6040516001600160a01b0383166024820152604481018290526118e09084907fa9059cbb00000000000000000000000000000000000000000000000000000000906064015b60408051601f198184030181529190526020810180517bffffffffffffffffffffffffffffffffffffffffffffffffffffffff167fffffffff00000000000000000000000000000000000000000000000000000000909316929092179091526127ac565b6040516001600160a01b03808516602483015283166044820152606481018290526124009085907f23b872dd000000000000000000000000000000000000000000000000000000009060840161234b565b50505050565b600054604051632474521560e21b8152600080516020612e9d8339815191526004820152336024820152620100009091046001600160a01b0316906391d148549060440160206040518083038186803b15801561246257600080fd5b505afa158015612476573d6000803e3d6000fd5b505050506040513d601f19601f8201168201806040525081019061249a9190612d2d565b6124e05760405162461bcd60e51b81526020600482015260236024820152600080516020612e7d83398151915260448201526213115160ea1b6064820152608401610266565b6001600160a01b038084166000908152600760209081526040808320938616835292905220548111156125555760405162461bcd60e51b815260206004820152601960248201527f556e69742070726f746f636f6c3a2057524f4e475f44454254000000000000006044820152606401610266565b6001600160a01b0383166000908152600860205260409020548111156125bd5760405162461bcd60e51b815260206004820152601f60248201527f556e69742070726f746f636f6c3a2057524f4e475f544f54414c5f44454254006044820152606401610266565b6001600160a01b038084166000908152600760209081526040808320938616835292905220546125ee908290612e0b565b6001600160a01b038085166000818152600760209081526040808320948816835293815283822094909455908152600890925290205461262f908290612e0b565b6001600160a01b039093166000908152600860205260409020929092555050565b600054610100900460ff166126bb5760405162461bcd60e51b815260206004820152602b60248201527f496e697469616c697a61626c653a20636f6e7472616374206973206e6f74206960448201526a6e697469616c697a696e6760a81b6064820152608401610266565b6126c483612891565b6001600160a01b03821661271a5760405162461bcd60e51b815260206004820152601b60248201527f556e69742050726f746f636f6c3a205a45524f5f4144445245535300000000006044820152606401610266565b6001600160a01b0381166127705760405162461bcd60e51b815260206004820152601b60248201527f556e69742050726f746f636f6c3a205a45524f5f4144445245535300000000006044820152606401610266565b600480546001600160a01b0393841673ffffffffffffffffffffffffffffffffffffffff19918216179091556003805492909316911617905550565b6000612801826040518060400160405280602081526020017f5361666545524332303a206c6f772d6c6576656c2063616c6c206661696c6564815250856001600160a01b031661293c9092919063ffffffff16565b8051909150156118e0578080602001905181019061281f9190612d2d565b6118e05760405162461bcd60e51b815260206004820152602a60248201527f5361666545524332303a204552433230206f7065726174696f6e20646964206e60448201527f6f742073756363656564000000000000000000000000000000000000000000006064820152608401610266565b600054610100900460ff166128fc5760405162461bcd60e51b815260206004820152602b60248201527f496e697469616c697a61626c653a20636f6e7472616374206973206e6f74206960448201526a6e697469616c697a696e6760a81b6064820152608401610266565b600080546001600160a01b0390921662010000027fffffffffffffffffffff0000000000000000000000000000000000000000ffff909216919091179055565b606061294b8484600085612953565b949350505050565b6060824710156129cb5760405162461bcd60e51b815260206004820152602660248201527f416464726573733a20696e73756666696369656e742062616c616e636520666f60448201527f722063616c6c00000000000000000000000000000000000000000000000000006064820152608401610266565b6001600160a01b0385163b612a225760405162461bcd60e51b815260206004820152601d60248201527f416464726573733a2063616c6c20746f206e6f6e2d636f6e74726163740000006044820152606401610266565b600080866001600160a01b03168587604051612a3e9190612d65565b60006040518083038185875af1925050503d8060008114612a7b576040519150601f19603f3d011682016040523d82523d6000602084013e612a80565b606091505b5091509150612a90828286612a9b565b979650505050505050565b60608315612aaa575081610de0565b825115612aba5782518084602001fd5b8160405162461bcd60e51b81526004016102669190612d81565b600060208284031215612ae5578081fd5b8135610de081612e64565b600060208284031215612b01578081fd5b8151610de081612e64565b60008060408385031215612b1e578081fd5b8235612b2981612e64565b91506020830135612b3981612e64565b809150509250929050565b60008060008060808587031215612b59578182fd5b8435612b6481612e64565b93506020850135612b7481612e64565b92506040850135612b8481612e64565b91506060850135612b9481612e64565b939692955090935050565b60008060008060808587031215612bb4578384fd5b8435612bbf81612e64565b93506020850135612bcf81612e64565b92506040850135612bdf81612e64565b9396929550929360600135925050565b600080600080600060a08688031215612c06578081fd5b8535612c1181612e64565b94506020860135612c2181612e64565b93506040860135612c3181612e64565b94979396509394606081013594506080013592915050565b600080600060608486031215612c5d578283fd5b8335612c6881612e64565b92506020840135612c7881612e64565b929592945050506040919091013590565b60008060008060808587031215612c9e578384fd5b8435612ca981612e64565b93506020850135612cb981612e64565b93969395505050506040820135916060013590565b60008060408385031215612ce0578182fd5b8235612ceb81612e64565b946020939093013593505050565b600080600060608486031215612d0d578283fd5b8335612d1881612e64565b95602085013595506040909401359392505050565b600060208284031215612d3e578081fd5b81518015158114610de0578182fd5b600060208284031215612d5e578081fd5b5051919050565b60008251612d77818460208701612e22565b9190910192915050565b6020815260008251806020840152612da0816040850160208701612e22565b601f01601f19169190910160400192915050565b60008219821115612dc757612dc7612e4e565b500190565b600082612de757634e487b7160e01b81526012600452602481fd5b500490565b6000816000190483118215151615612e0657612e06612e4e565b500290565b600082821015612e1d57612e1d612e4e565b500390565b60005b83811015612e3d578181015183820152602001612e25565b838111156124005750506000910152565b634e487b7160e01b600052601160045260246000fd5b6001600160a01b0381168114612e7957600080fd5b5056fe5375417574683a206f6e6c795661756c7441636365737320415554485f464149e965846df3dd5b1dfa65f58e31477079e90140e0908b6dd31b5aead5a57cf365a264697066735822122021a1e23a0da059816ca8388779f1d2c50459f135be48f13ca5b36356870262ee64736f6c63430008040033",
  "devdoc": {
    "kind": "dev",
    "methods": {
      "repay(address,uint256,uint256)": {
        "params": {
          "repayer": "The person who repaies by debt and transfers stablecoins to the foundation",
          "stablecoinsToFoundationE18": "The amount of stablecoins which will be transfered to the foundation(e.g fees)",
          "stablecoinsToRepaymentE18": "The amount of stablecoins which will be burned as a debt repayment"
        }
      },
      "triggerLiquidation(address,address)": {
        "details": "Sets the current block as liquidationBlock for the position. Can be triggered only once for the position."
      }
    },
    "version": 1
  },
  "userdoc": {
    "kind": "user",
    "methods": {
      "borrow(address,address,uint256)": {
        "notice": "no, one debt for [asset][user]"
      },
      "calculateFeeE18(address,address,uint256)": {
        "notice": "No, any call of vault.update would calc fee in debt and restart fee timer"
      },
      "collateralsEDecimal(address,address)": {
        "notice": "No, it's how much user had stacked collateral asset == collaterals[asset][user], i.e deposits"
      },
      "debtsE18(address,address)": {
        "notice": "Yes, in stablecoin amount, == debts[asset][user]"
      },
      "destroy(address,address)": {
        "notice": "only destroy debt info, exit -> _repay -> destroy if debt == 0"
      },
      "foundation()": {
        "notice": "Beneficiaty as VotingEscrow.vy"
      },
      "getTotalDebtE18(address,address)": {
        "notice": "they don't use it in practice"
      },
      "initialize(address,address,address,address)": {
        "notice": "YES"
      },
      "lastUpdate(address,address)": {
        "notice": "everything before lastUpdates is already calced in the debt. all data such as fees are from lastUpdate only"
      },
      "protocolStabilityFeeE18(address)": {
        "notice": "yes"
      },
      "repay(address,uint256,uint256)": {
        "notice": "this is just transfer function, manager calc feesBurns a debt repayment and transfers fees to the foundation"
      },
      "setCollateral(address,uint256,uint256)": {
        "notice": "Not sure it makes sense to split into create/edit functions"
      },
      "setStabilityFeeE18(address,uint256)": {
        "notice": "No, it's APR ( per year, see calculateFee) percentrage, fee percentage. YES, self-documented code-style is the best practice."
      },
      "setTokenDebtLimitE18(address,uint256)": {
        "notice": "Yes, application of  principle of least priviledge needed"
      },
      "stabilityFeeE18(address,address)": {
        "notice": "current interest that user pay for stabilityFee[asset][user]"
      },
      "tokenDebtLimitE18(address)": {
        "notice": "yes, limit for each collateral-assert"
      },
      "tokenDebtsE18(address)": {
        "notice": "How much stablecoin was borrowed against particular asset == tokenDebts[asset]"
      },
      "update(address,address)": {
        "notice": "when user borrows more"
      }
    },
    "version": 1
  },
  "storageLayout": {
    "storage": [
      {
        "astId": 454,
        "contract": "contracts/lending/SuVault.sol:SuVault",
        "label": "_initialized",
        "offset": 0,
        "slot": "0",
        "type": "t_bool"
      },
      {
        "astId": 457,
        "contract": "contracts/lending/SuVault.sol:SuVault",
        "label": "_initializing",
        "offset": 1,
        "slot": "0",
        "type": "t_bool"
      },
      {
        "astId": 3905,
        "contract": "contracts/lending/SuVault.sol:SuVault",
        "label": "ACCESS_CONTROL_SINGLETON",
        "offset": 2,
        "slot": "0",
        "type": "t_contract(ISuAccessControl)6911"
      },
      {
        "astId": 10519,
        "contract": "contracts/lending/SuVault.sol:SuVault",
        "label": "protocolStabilityFeeE18",
        "offset": 0,
        "slot": "1",
        "type": "t_mapping(t_address,t_uint256)"
      },
      {
        "astId": 10524,
        "contract": "contracts/lending/SuVault.sol:SuVault",
        "label": "tokenDebtLimitE18",
        "offset": 0,
        "slot": "2",
        "type": "t_mapping(t_address,t_uint256)"
      },
      {
        "astId": 10527,
        "contract": "contracts/lending/SuVault.sol:SuVault",
        "label": "foundation",
        "offset": 0,
        "slot": "3",
        "type": "t_address"
      },
      {
        "astId": 10529,
        "contract": "contracts/lending/SuVault.sol:SuVault",
        "label": "vault",
        "offset": 0,
        "slot": "4",
        "type": "t_address"
      },
      {
        "astId": 9715,
        "contract": "contracts/lending/SuVault.sol:SuVault",
        "label": "STABLECOIN",
        "offset": 0,
        "slot": "5",
        "type": "t_address"
      },
      {
        "astId": 9723,
        "contract": "contracts/lending/SuVault.sol:SuVault",
        "label": "collateralsEDecimal",
        "offset": 0,
        "slot": "6",
        "type": "t_mapping(t_address,t_mapping(t_address,t_uint256))"
      },
      {
        "astId": 9731,
        "contract": "contracts/lending/SuVault.sol:SuVault",
        "label": "debtsE18",
        "offset": 0,
        "slot": "7",
        "type": "t_mapping(t_address,t_mapping(t_address,t_uint256))"
      },
      {
        "astId": 9737,
        "contract": "contracts/lending/SuVault.sol:SuVault",
        "label": "tokenDebtsE18",
        "offset": 0,
        "slot": "8",
        "type": "t_mapping(t_address,t_uint256)"
      },
      {
        "astId": 9745,
        "contract": "contracts/lending/SuVault.sol:SuVault",
        "label": "stabilityFeeE18",
        "offset": 0,
        "slot": "9",
        "type": "t_mapping(t_address,t_mapping(t_address,t_uint256))"
      },
      {
        "astId": 9753,
        "contract": "contracts/lending/SuVault.sol:SuVault",
        "label": "lastUpdate",
        "offset": 0,
        "slot": "10",
        "type": "t_mapping(t_address,t_mapping(t_address,t_uint256))"
      },
      {
        "astId": 9760,
        "contract": "contracts/lending/SuVault.sol:SuVault",
        "label": "liquidationBlock",
        "offset": 0,
        "slot": "11",
        "type": "t_mapping(t_address,t_mapping(t_address,t_uint256))"
      },
      {
        "astId": 9763,
        "contract": "contracts/lending/SuVault.sol:SuVault",
        "label": "VAULT_PARAMETERS",
        "offset": 0,
        "slot": "12",
        "type": "t_contract(SuVaultParameters)10654"
      },
      {
        "astId": 9806,
        "contract": "contracts/lending/SuVault.sol:SuVault",
        "label": "rewardChef",
        "offset": 0,
        "slot": "13",
        "type": "t_contract(RewardChefV2)14611"
      }
    ],
    "types": {
      "t_address": {
        "encoding": "inplace",
        "label": "address",
        "numberOfBytes": "20"
      },
      "t_bool": {
        "encoding": "inplace",
        "label": "bool",
        "numberOfBytes": "1"
      },
      "t_contract(ISuAccessControl)6911": {
        "encoding": "inplace",
        "label": "contract ISuAccessControl",
        "numberOfBytes": "20"
      },
      "t_contract(RewardChefV2)14611": {
        "encoding": "inplace",
        "label": "contract RewardChefV2",
        "numberOfBytes": "20"
      },
      "t_contract(SuVaultParameters)10654": {
        "encoding": "inplace",
        "label": "contract SuVaultParameters",
        "numberOfBytes": "20"
      },
      "t_mapping(t_address,t_mapping(t_address,t_uint256))": {
        "encoding": "mapping",
        "key": "t_address",
        "label": "mapping(address => mapping(address => uint256))",
        "numberOfBytes": "32",
        "value": "t_mapping(t_address,t_uint256)"
      },
      "t_mapping(t_address,t_uint256)": {
        "encoding": "mapping",
        "key": "t_address",
        "label": "mapping(address => uint256)",
        "numberOfBytes": "32",
        "value": "t_uint256"
      },
      "t_uint256": {
        "encoding": "inplace",
        "label": "uint256",
        "numberOfBytes": "32"
      }
    }
  }
}