{
  "address": "0xC26DC5662D7C5320AD7Ef8e15e1711305b890b25",
  "abi": [
    {
      "inputs": [
        {
          "internalType": "address",
          "name": "accessControl_",
          "type": "address"
        },
        {
          "internalType": "address",
          "name": "safeEngine_",
          "type": "address"
        },
        {
          "internalType": "address",
          "name": "exchange_",
          "type": "address"
        },
        {
          "internalType": "address",
          "name": "oracle_",
          "type": "address"
        },
        {
          "internalType": "address",
          "name": "suDAO_",
          "type": "address"
        },
        {
          "internalType": "address",
          "name": "rewardChef_",
          "type": "address"
        },
        {
          "internalType": "address",
          "name": "stablePro_",
          "type": "address"
        },
        {
          "internalType": "address",
          "name": "coinJoin_",
          "type": "address"
        }
      ],
      "stateMutability": "nonpayable",
      "type": "constructor"
    },
    {
      "inputs": [],
      "name": "BadAccessControlSingleton",
      "type": "error"
    },
    {
      "inputs": [],
      "name": "BadModifyParameters",
      "type": "error"
    },
    {
      "inputs": [],
      "name": "BadRewardToken",
      "type": "error"
    },
    {
      "inputs": [
        {
          "internalType": "address",
          "name": "asset",
          "type": "address"
        }
      ],
      "name": "BadStablecoin",
      "type": "error"
    },
    {
      "inputs": [],
      "name": "ContractDisabled",
      "type": "error"
    },
    {
      "inputs": [],
      "name": "DebtNotZero",
      "type": "error"
    },
    {
      "inputs": [],
      "name": "InsufficientDebt",
      "type": "error"
    },
    {
      "inputs": [],
      "name": "InsufficientSurplus",
      "type": "error"
    },
    {
      "inputs": [],
      "name": "NotEnoughAsh",
      "type": "error"
    },
    {
      "inputs": [],
      "name": "OnlyAdminError",
      "type": "error"
    },
    {
      "inputs": [],
      "name": "OnlyAlerterError",
      "type": "error"
    },
    {
      "inputs": [],
      "name": "OnlyCDPAccessError",
      "type": "error"
    },
    {
      "inputs": [],
      "name": "OnlyDAOError",
      "type": "error"
    },
    {
      "inputs": [],
      "name": "OnlyDisablerAccessError",
      "type": "error"
    },
    {
      "inputs": [],
      "name": "OnlyLiquidationAccessError",
      "type": "error"
    },
    {
      "inputs": [],
      "name": "OnlyMintAccessError",
      "type": "error"
    },
    {
      "inputs": [],
      "name": "OnlyProxyActionsError",
      "type": "error"
    },
    {
      "inputs": [],
      "name": "OnlyRewardAccessError",
      "type": "error"
    },
    {
      "inputs": [],
      "name": "OnlyRoleError",
      "type": "error"
    },
    {
      "inputs": [],
      "name": "OnlyVaultAccessError",
      "type": "error"
    },
    {
      "inputs": [],
      "name": "OnlyVotingEscrowError",
      "type": "error"
    },
    {
      "inputs": [],
      "name": "PopDebtDelayNotFinished",
      "type": "error"
    },
    {
      "inputs": [
        {
          "internalType": "address",
          "name": "asset",
          "type": "address"
        }
      ],
      "name": "StablecoinExists",
      "type": "error"
    },
    {
      "inputs": [
        {
          "internalType": "address",
          "name": "asset",
          "type": "address"
        }
      ],
      "name": "StablecoinNotExist",
      "type": "error"
    },
    {
      "inputs": [],
      "name": "SurplusNotZero",
      "type": "error"
    },
    {
      "anonymous": false,
      "inputs": [],
      "name": "DisableContract",
      "type": "event"
    },
    {
      "anonymous": false,
      "inputs": [
        {
          "indexed": false,
          "internalType": "uint256",
          "name": "amount",
          "type": "uint256"
        }
      ],
      "name": "StableProSwapped",
      "type": "event"
    },
    {
      "anonymous": false,
      "inputs": [
        {
          "indexed": false,
          "internalType": "address",
          "name": "stablecoin",
          "type": "address"
        },
        {
          "indexed": false,
          "internalType": "uint256",
          "name": "amount",
          "type": "uint256"
        }
      ],
      "name": "StablecoinRefilled",
      "type": "event"
    },
    {
      "inputs": [],
      "name": "ACCESS_CONTROL_SINGLETON",
      "outputs": [
        {
          "internalType": "contract ISuAccessControl",
          "name": "",
          "type": "address"
        }
      ],
      "stateMutability": "view",
      "type": "function"
    },
    {
      "inputs": [],
      "name": "ADMIN_ROLE",
      "outputs": [
        {
          "internalType": "bytes32",
          "name": "",
          "type": "bytes32"
        }
      ],
      "stateMutability": "view",
      "type": "function"
    },
    {
      "inputs": [],
      "name": "ALERTER_ROLE",
      "outputs": [
        {
          "internalType": "bytes32",
          "name": "",
          "type": "bytes32"
        }
      ],
      "stateMutability": "view",
      "type": "function"
    },
    {
      "inputs": [],
      "name": "CDP_ACCESS_ROLE",
      "outputs": [
        {
          "internalType": "bytes32",
          "name": "",
          "type": "bytes32"
        }
      ],
      "stateMutability": "view",
      "type": "function"
    },
    {
      "inputs": [],
      "name": "DAO_ROLE",
      "outputs": [
        {
          "internalType": "bytes32",
          "name": "",
          "type": "bytes32"
        }
      ],
      "stateMutability": "view",
      "type": "function"
    },
    {
      "inputs": [],
      "name": "DISABLER_ROLE",
      "outputs": [
        {
          "internalType": "bytes32",
          "name": "",
          "type": "bytes32"
        }
      ],
      "stateMutability": "view",
      "type": "function"
    },
    {
      "inputs": [],
      "name": "LIQUIDATION_ACCESS_ROLE",
      "outputs": [
        {
          "internalType": "bytes32",
          "name": "",
          "type": "bytes32"
        }
      ],
      "stateMutability": "view",
      "type": "function"
    },
    {
      "inputs": [],
      "name": "MINT_ACCESS_ROLE",
      "outputs": [
        {
          "internalType": "bytes32",
          "name": "",
          "type": "bytes32"
        }
      ],
      "stateMutability": "view",
      "type": "function"
    },
    {
      "inputs": [],
      "name": "PROXY_ACTIONS_ROLE",
      "outputs": [
        {
          "internalType": "bytes32",
          "name": "",
          "type": "bytes32"
        }
      ],
      "stateMutability": "view",
      "type": "function"
    },
    {
      "inputs": [],
      "name": "REWARD_ACCESS_ROLE",
      "outputs": [
        {
          "internalType": "bytes32",
          "name": "",
          "type": "bytes32"
        }
      ],
      "stateMutability": "view",
      "type": "function"
    },
    {
      "inputs": [],
      "name": "VOTING_ESCROW_ROLE",
      "outputs": [
        {
          "internalType": "bytes32",
          "name": "",
          "type": "bytes32"
        }
      ],
      "stateMutability": "view",
      "type": "function"
    },
    {
      "inputs": [
        {
          "internalType": "address",
          "name": "stablecoin",
          "type": "address"
        }
      ],
      "name": "addWhitelistStablecoin",
      "outputs": [],
      "stateMutability": "nonpayable",
      "type": "function"
    },
    {
      "inputs": [
        {
          "internalType": "address",
          "name": "token2sell",
          "type": "address"
        },
        {
          "internalType": "uint256",
          "name": "amountToSell",
          "type": "uint256"
        },
        {
          "internalType": "uint8",
          "name": "discountType",
          "type": "uint8"
        },
        {
          "internalType": "uint256",
          "name": "auctionDebt",
          "type": "uint256"
        }
      ],
      "name": "auctionDebt",
      "outputs": [
        {
          "internalType": "uint256",
          "name": "orderId",
          "type": "uint256"
        }
      ],
      "stateMutability": "nonpayable",
      "type": "function"
    },
    {
      "inputs": [
        {
          "internalType": "uint256",
          "name": "surplusAmount",
          "type": "uint256"
        },
        {
          "internalType": "uint8",
          "name": "discountType",
          "type": "uint8"
        }
      ],
      "name": "auctionSurplus",
      "outputs": [
        {
          "internalType": "uint256",
          "name": "orderId",
          "type": "uint256"
        }
      ],
      "stateMutability": "nonpayable",
      "type": "function"
    },
    {
      "inputs": [
        {
          "internalType": "uint256",
          "name": "rad",
          "type": "uint256"
        }
      ],
      "name": "cancelAuctionedDebtWithSurplus",
      "outputs": [],
      "stateMutability": "nonpayable",
      "type": "function"
    },
    {
      "inputs": [],
      "name": "coinJoin",
      "outputs": [
        {
          "internalType": "contract ICoinJoin",
          "name": "",
          "type": "address"
        }
      ],
      "stateMutability": "view",
      "type": "function"
    },
    {
      "inputs": [],
      "name": "contractEnabled",
      "outputs": [
        {
          "internalType": "uint256",
          "name": "",
          "type": "uint256"
        }
      ],
      "stateMutability": "view",
      "type": "function"
    },
    {
      "inputs": [
        {
          "internalType": "uint256",
          "name": "",
          "type": "uint256"
        }
      ],
      "name": "debtQueue",
      "outputs": [
        {
          "internalType": "uint256",
          "name": "",
          "type": "uint256"
        }
      ],
      "stateMutability": "view",
      "type": "function"
    },
    {
      "inputs": [],
      "name": "defaultRewardEndBlock",
      "outputs": [
        {
          "internalType": "uint256",
          "name": "",
          "type": "uint256"
        }
      ],
      "stateMutability": "view",
      "type": "function"
    },
    {
      "inputs": [],
      "name": "disableContract",
      "outputs": [],
      "stateMutability": "nonpayable",
      "type": "function"
    },
    {
      "inputs": [
        {
          "internalType": "uint256",
          "name": "amount",
          "type": "uint256"
        }
      ],
      "name": "distributeSurplus",
      "outputs": [],
      "stateMutability": "nonpayable",
      "type": "function"
    },
    {
      "inputs": [],
      "name": "exchange",
      "outputs": [
        {
          "internalType": "contract IExchange",
          "name": "",
          "type": "address"
        }
      ],
      "stateMutability": "view",
      "type": "function"
    },
    {
      "inputs": [
        {
          "internalType": "uint256",
          "name": "amount",
          "type": "uint256"
        }
      ],
      "name": "getRealStablePro",
      "outputs": [],
      "stateMutability": "nonpayable",
      "type": "function"
    },
    {
      "inputs": [
        {
          "internalType": "address",
          "name": "stablecoin",
          "type": "address"
        }
      ],
      "name": "hasWhitelistStablecoin",
      "outputs": [
        {
          "internalType": "bool",
          "name": "",
          "type": "bool"
        }
      ],
      "stateMutability": "view",
      "type": "function"
    },
    {
      "inputs": [
        {
          "internalType": "uint256",
          "name": "amount",
          "type": "uint256"
        }
      ],
      "name": "joinStablePro",
      "outputs": [],
      "stateMutability": "nonpayable",
      "type": "function"
    },
    {
      "inputs": [
        {
          "internalType": "bytes32",
          "name": "what",
          "type": "bytes32"
        },
        {
          "internalType": "address",
          "name": "data",
          "type": "address"
        }
      ],
      "name": "modifyParameters",
      "outputs": [],
      "stateMutability": "nonpayable",
      "type": "function"
    },
    {
      "inputs": [
        {
          "internalType": "bytes32",
          "name": "what",
          "type": "bytes32"
        },
        {
          "internalType": "uint256",
          "name": "data",
          "type": "uint256"
        }
      ],
      "name": "modifyParameters",
      "outputs": [],
      "stateMutability": "nonpayable",
      "type": "function"
    },
    {
      "inputs": [],
      "name": "oracle",
      "outputs": [
        {
          "internalType": "contract ISuOracleAggregator",
          "name": "",
          "type": "address"
        }
      ],
      "stateMutability": "view",
      "type": "function"
    },
    {
      "inputs": [],
      "name": "popDebtDelay",
      "outputs": [
        {
          "internalType": "uint256",
          "name": "",
          "type": "uint256"
        }
      ],
      "stateMutability": "view",
      "type": "function"
    },
    {
      "inputs": [
        {
          "internalType": "uint256",
          "name": "era",
          "type": "uint256"
        }
      ],
      "name": "popDebtFromQueue",
      "outputs": [],
      "stateMutability": "nonpayable",
      "type": "function"
    },
    {
      "inputs": [
        {
          "internalType": "uint256",
          "name": "amountToRaise",
          "type": "uint256"
        }
      ],
      "name": "pushDebtToQueue",
      "outputs": [],
      "stateMutability": "nonpayable",
      "type": "function"
    },
    {
      "inputs": [
        {
          "internalType": "address",
          "name": "stablecoin",
          "type": "address"
        },
        {
          "internalType": "uint256",
          "name": "amount",
          "type": "uint256"
        }
      ],
      "name": "refillStablecoin",
      "outputs": [],
      "stateMutability": "nonpayable",
      "type": "function"
    },
    {
      "inputs": [
        {
          "internalType": "address",
          "name": "stablecoin",
          "type": "address"
        }
      ],
      "name": "removeWhitelistStablecoin",
      "outputs": [],
      "stateMutability": "nonpayable",
      "type": "function"
    },
    {
      "inputs": [],
      "name": "rewardChef",
      "outputs": [
        {
          "internalType": "contract IRewardChefV2",
          "name": "",
          "type": "address"
        }
      ],
      "stateMutability": "view",
      "type": "function"
    },
    {
      "inputs": [],
      "name": "safeEngine",
      "outputs": [
        {
          "internalType": "contract ISafeEngine",
          "name": "",
          "type": "address"
        }
      ],
      "stateMutability": "view",
      "type": "function"
    },
    {
      "inputs": [
        {
          "internalType": "address",
          "name": "stablecoin",
          "type": "address"
        }
      ],
      "name": "setStablecoinToSwap",
      "outputs": [],
      "stateMutability": "nonpayable",
      "type": "function"
    },
    {
      "inputs": [
        {
          "internalType": "uint256",
          "name": "rad",
          "type": "uint256"
        }
      ],
      "name": "settleDebt",
      "outputs": [],
      "stateMutability": "nonpayable",
      "type": "function"
    },
    {
      "inputs": [],
      "name": "stablePro",
      "outputs": [
        {
          "internalType": "contract IERC20",
          "name": "",
          "type": "address"
        }
      ],
      "stateMutability": "view",
      "type": "function"
    },
    {
      "inputs": [],
      "name": "stablecoinToSwap",
      "outputs": [
        {
          "internalType": "address",
          "name": "",
          "type": "address"
        }
      ],
      "stateMutability": "view",
      "type": "function"
    },
    {
      "inputs": [],
      "name": "suDAO",
      "outputs": [
        {
          "internalType": "contract IERC20",
          "name": "",
          "type": "address"
        }
      ],
      "stateMutability": "view",
      "type": "function"
    },
    {
      "inputs": [
        {
          "internalType": "bytes4",
          "name": "interfaceId",
          "type": "bytes4"
        }
      ],
      "name": "supportsInterface",
      "outputs": [
        {
          "internalType": "bool",
          "name": "",
          "type": "bool"
        }
      ],
      "stateMutability": "view",
      "type": "function"
    },
    {
      "inputs": [],
      "name": "surplusBuffer",
      "outputs": [
        {
          "internalType": "uint256",
          "name": "",
          "type": "uint256"
        }
      ],
      "stateMutability": "view",
      "type": "function"
    },
    {
      "inputs": [
        {
          "internalType": "address",
          "name": "stablecoinToken",
          "type": "address"
        },
        {
          "internalType": "uint256",
          "name": "stableProAmountE18",
          "type": "uint256"
        }
      ],
      "name": "swapStableProToStablecoin",
      "outputs": [],
      "stateMutability": "nonpayable",
      "type": "function"
    },
    {
      "inputs": [],
      "name": "totalOnAuctionDebt",
      "outputs": [
        {
          "internalType": "uint256",
          "name": "",
          "type": "uint256"
        }
      ],
      "stateMutability": "view",
      "type": "function"
    },
    {
      "inputs": [],
      "name": "totalQueuedDebt",
      "outputs": [
        {
          "internalType": "uint256",
          "name": "",
          "type": "uint256"
        }
      ],
      "stateMutability": "view",
      "type": "function"
    }
  ],
  "numDeployments": 1,
  "solcInputHash": "403b958b64b1c77d13b9eddc7dda2091",
  "bytecode": "0x60c06040908082523462000308576000610100826200254580380380916200002882856200030d565b83398101031262000305576200003e8262000347565b916020926200004f84830162000347565b91836200005e87830162000347565b916200006d6060820162000347565b906200007c6080820162000347565b6200008a60a0830162000347565b92620000a760e06200009f60c0860162000347565b940162000347565b94546001600160a01b039788166001600160a01b031991821681178b55959890958015908c908e83156200029b575b5050506200028a5792878095938180969481808097169b8c608052168a600154161760015516886002541617600255168660035416176003551660a0521694858360045416176004551680916005541617600555813b15620002865784916024839289519485938492631b29a84160e31b845260048401525af180156200027c576200024c575b506001600d556202a300600e5581620001ca575b84516121ce90816200037782396080518181816103ae01528181610d5b01528181610fd0015281816112fb01528181611a8e0152611c19015260a051818181610424015281816108d001528181610dd101526116950152f35b82916044859260035416918751958693849263095ea7b360e01b8452600484015260001960248401525af19081156200024157506200020c575b808062000171565b816200023092903d1062000239575b6200022781836200030d565b8101906200035c565b50388062000204565b503d6200021b565b8451903d90823e3d90fd5b9092906001600160401b0381116200026857855291386200015d565b634e487b7160e01b82526041600452602482fd5b86513d86823e3d90fd5b8480fd5b8b516384d942fd60e01b8152600490fd5b516301ffc9a760e01b8152637965db0b60e01b60048201529250829060249082905afa908115620002fb578b91620002d9575b50158b388e620000d6565b620002f491508c8d3d1062000239576200022781836200030d565b38620002ce565b8d513d8d823e3d90fd5b80fd5b600080fd5b601f909101601f19168101906001600160401b038211908210176200033157604052565b634e487b7160e01b600052604160045260246000fd5b51906001600160a01b03821682036200030857565b90816020910312620003085751801515810362000308579056fe6080604081815260048036101561001557600080fd5b600092833560e01c90816301ffc9a714611e8257508063038a3e2f14611da657806303ee9f2214611d7e5780630f44d6bd14611d5f57806327a0bb3314611bf15780632a608d5b14611bd25780632d09f11d14611bb357806330413a2a14611b8a5780633977a31914611b635780633dc4ab1d14611a595780633fec7e4614611a3057806341b3a0d914611a11578063438280dd146119d65780634a9afc5b146118145780635221e882146117f5578063550a1e00146115ed5780635d49502b146115145780636614f0101461132a57806367aea313146112e657806371d0fb41146112ab57806375b238fc146112905780637ae8b2e1146111945780637dc0d1d01461116b578063887e2a4a14611142578063894ba83314610f4e5780638b24dc3e14610ee45780638e5313e014610ea95780639d32526814610c91578063a8b30a9f14610bb8578063b38234f314610b7d578063bd5f5be614610b42578063c9bc438414610b1b578063d09a79dd1461098c578063d0e8fa8214610951578063d2351cee14610928578063d2f7265a146108ff578063d46e50d0146108bb578063d5070076146107c4578063d65e861d146107a5578063dc97e84e1461077c578063de51eefd1461073e578063e9c2651814610715578063e9de2c3f146106b6578063ed9ac368146103335763fe4f58901461021257600080fd5b3461032f578160031936011261032f57803591602435926044602060018060a01b03875416845192838092632474521560e21b8252600080516020612139833981519152898301523360248301525afa9081156103255786916102f7575b50156102e9576b706f704465627444656c617960a01b810361029657505050600b555b80f35b6c39bab938363ab9a13ab33332b960991b81036102b657505050600c5580f35b7464656661756c74526577617264456e64426c6f636b60581b036102dc575050600e5580f35b51634f7c191f60e01b8152fd5b505163599a6c3360e11b8152fd5b610318915060203d811161031e575b6103108183611f6b565b810190611f8e565b38610270565b503d610306565b83513d88823e3d90fd5b8280fd5b509190346106b257806003193601126106b2576024928335813560ff821682036105005760018060a01b0390818654169685518098632474521560e21b82528887830152338383015281604460209b8c935afa9081156106a857889161068b575b501561067b578551633eaf7a0360e21b81523086820152907f0000000000000000000000000000000000000000000000000000000000000000841689838381845afa92831561064057908a918a9461064a575b509082918951938480926311005b0760e01b8252308c8301525afa918215610640578992610611575b5087516370a0823160e01b815230888201527f00000000000000000000000000000000000000000000000000000000000000008616938b828481885afa918215610607578b926105d8575b50600c5491828210938415610537575b505050506105275761048361048c916009549061212b565b600a549061212b565b61051757908683926104c08a969560015416946003541695895198899788968795633bcce46f60e21b875230938701611fc1565b03925af192831561050c57926104d8575b5051908152f35b9091508281813d8311610505575b6104f08183611f6b565b81010312610500575190386104d1565b600080fd5b503d6104e6565b8251903d90823e3d90fd5b85516312bf4cab60e01b81528590fd5b86516394290ab960e01b81528690fd5b9293509091676765c793fa10079d601b1b91828102908015908204841417156105c6576105649084612108565b9283106105c2578187029187830414871517156105b157506105869084612108565b918383106105ad576105989083612108565b9182106105a957103880808061046b565b8980fd5b8a80fd5b634e487b7160e01b8c5260118a528bfd5b8b80fd5b50634e487b7160e01b8c5260118a528bfd5b9091508b81813d8311610600575b6105f08183611f6b565b810103126105005751903861045b565b503d6105e6565b8a513d8d823e3d90fd5b9091508981813d8311610639575b6106298183611f6b565b8101031261050057519038610410565b503d61061f565b88513d8b823e3d90fd5b8281939295503d8311610674575b6106628183611f6b565b810103126105005751918990826103e7565b503d610658565b8551631886ea7d60e11b81528590fd5b6106a29150893d8b1161031e576103108183611f6b565b38610394565b87513d8a823e3d90fd5b5080fd5b5050346106b257806003193601126106b2577f2cb31b7cd23f5e7810b379525524ddf0fdf14cab7855eff4507f490a268ce016906106f2611f11565b61070f602435926107058430338661203b565b5192839283611fa6565b0390a180f35b5050346106b257816003193601126106b257602090516000805160206121398339815191528152f35b5050346106b25760203660031901126106b25760209160ff9082906001600160a01b03610769611f11565b1681526006855220541690519015158152f35b5050346106b257816003193601126106b257602090516000805160206121598339815191528152f35b5050346106b257816003193601126106b257602090600e549051908152f35b508290346106b25760203660031901126106b25781548351632474521560e21b81528281018490523360248201526001600160a01b0394916020908290604490829089165afa9081156108b1578491610893575b501561088657829360055416803b15610881578151633bccb9b760e21b815292849184918290849082906108529080359030908401611fa6565b03925af190811561087857506108655750f35b61086e90611f27565b6108755780f35b80fd5b513d84823e3d90fd5b505050fd5b51631886ea7d60e11b8152fd5b6108ab915060203d811161031e576103108183611f6b565b85610818565b82513d86823e3d90fd5b5050346106b257816003193601126106b257517f00000000000000000000000000000000000000000000000000000000000000006001600160a01b03168152602090f35b5050346106b257816003193601126106b25760015490516001600160a01b039091168152602090f35b5050346106b257816003193601126106b257602090516000805160206121798339815191528152f35b5050346106b257816003193601126106b257602090517f76d0567582f23e1e9d7a13eeba60f9aea9d69b8da87ca27a8bf3698b35c653db8152f35b50903461032f5760209081600319360112610b17576109a9611f11565b84548251632474521560e21b8152600080516020612139833981519152868201523360248201526001600160a01b039185908290604490829086165afa908115610b0d578791610af0575b5015610ae0578082168087526006855260ff8488205416610aca5791600092918392885260068652848820600160ff19825416179055600154168285518781019263095ea7b360e01b845260248201528119604482015260448152610a5881611f50565b51925af1610a64611ffc565b81610a9a575b5015610a74578380f35b5162461bcd60e51b8152918201526002602482015261534160f01b604482015260649150fd5b80518015925084908315610ab2575b50505038610a6a565b610ac29350820181019101611f8e565b388381610aa9565b8560249185519163c05cbd9360e01b8352820152fd5b825163599a6c3360e11b81528590fd5b610b079150853d871161031e576103108183611f6b565b386109f4565b84513d89823e3d90fd5b8380fd5b503461032f578260031936011261032f575490516001600160a01b03909116815260209150f35b5050346106b257816003193601126106b257602090517f4f14c8366fa999817edc9f29824eb88a00cc31225e2156f399da4bc91049eb108152f35b5050346106b257816003193601126106b257602090517fd83f5343da19b478b15a140c301a868be9e02603958f38fbd822b9d5c0a289168152f35b50903461032f5760209081600319360112610b175783548151632474521560e21b815260008051602061215983398151915281860152336024820152843594918490829060449082906001600160a01b03165afa908115610325578691610c74575b5015610c665750428452600882528084205491610c378484612108565b928310610c625760089042865252832055610c556009549182612108565b9081106106b25760095580f35b8480fd5b905163200ab6d960e01b8152fd5b610c8b9150843d861161031e576103108183611f6b565b38610c1a565b509190346106b25760803660031901126106b257610cad611f11565b926024359060443560ff811681036105005760018060a01b0392838654169685518098632474521560e21b8252888683015233602483015281604460209b8c935afa9081156106a8578891610e8c575b5015610e7c57868886600254166024895180948193632a5001c960e01b83528b88168b8401525af19081156106a8578891610e4f575b508083810204831490151715610e3a578551633eaf7a0360e21b8152308582015288816024817f00000000000000000000000000000000000000000000000000000000000000008a165afa9081156106a8578891610e0d575b50610dfd57600a54610da060643582612108565b908110610df95788949392918891600a556104c0876001541694895198899788968795633bcce46f60e21b875230937f000000000000000000000000000000000000000000000000000000000000000016928701611fc1565b8780fd5b855163e9f0635560e01b81528490fd5b90508881813d8311610e33575b610e248183611f6b565b81010312610500575138610d8c565b503d610e1a565b601184634e487b7160e01b6000525260246000fd5b90508881813d8311610e75575b610e668183611f6b565b81010312610500575138610d33565b503d610e5c565b8551631886ea7d60e11b81528490fd5b610ea39150893d8b1161031e576103108183611f6b565b38610cfd565b5050346106b257816003193601126106b257602090517fe453bacb314e78dcd5192e6b1a2b1f0e7c76e92f6b7e429a6a90f04e39db3b768152f35b509190346106b25760203660031901126106b2578235610f06600b5482612108565b818110610b17574210610f3e57829350610f2e6009548285526008602052838520549061212b565b6009558252600860205281205580f35b81516306932a5360e11b81528490fd5b509190346106b257816003193601126106b25781548151632474521560e21b815260008051602061217983398151915285820152336024820152602092916001600160a01b03919084908290604490829086165afa90811561113857859161111b575b501561110b57600d54156110fb5793839484600d558460095584600a557f00000000000000000000000000000000000000000000000000000000000000001692825190633eaf7a0360e21b825230838301528082602481885afa9182156110f15786926110bf575b5083516311005b0760e01b815230848201528181602481895afa9182156110b5578792611084575b505080821161107d57505b833b15610c62576024859283855196879485936327a0bb3360e01b85528401525af190811561087857506108655750f35b905061104c565b8197508092503d83116110ae575b61109c8183611f6b565b81010312610500578594513880611041565b503d611092565b85513d89823e3d90fd5b809650818093503d83116110ea575b6110d88183611f6b565b81010312610500578594519038611019565b503d6110ce565b84513d88823e3d90fd5b81516303b14e6560e51b81528590fd5b815163bb0684b760e01b81528590fd5b6111329150843d861161031e576103108183611f6b565b38610fb1565b83513d87823e3d90fd5b5050346106b257816003193601126106b25760035490516001600160a01b039091168152602090f35b5050346106b257816003193601126106b25760025490516001600160a01b039091168152602090f35b50903461032f5760209081600319360112610b17576111b1611f11565b84548251632474521560e21b8152600080516020612139833981519152868201523360248201526001600160a01b039185908290604490829086165afa908115610b0d578791611273575b5015610ae0578082168087526006855260ff84882054161561125d579160009291839288526006865284882060ff198154169055600154168285518781019263095ea7b360e01b8452602482015281604482015260448152610a5881611f50565b8560249185519163052bb4dd60e01b8352820152fd5b61128a9150853d871161031e576103108183611f6b565b386111fc565b5050346106b257816003193601126106b25751908152602090f35b5050346106b257816003193601126106b257602090517f880a91047114272656e533301261260c75e4d11543ac7303d6fe4204579ec7278152f35b5050346106b257816003193601126106b257517f00000000000000000000000000000000000000000000000000000000000000006001600160a01b03168152602090f35b503461032f578160031936011261032f578035916001600160a01b03602435818116939084900361050057818654169483518096632474521560e21b8252600080516020612139833981519152848301523360248301528160446020998a935afa90811561150a5788916114ed575b50156114de576765786368616e676560c01b81146114c7575b656f7261636c6560d01b81146114b0575b64737544414f60d81b8114611496575b6731b7b4b72537b4b760c11b811461147f575b693932bbb0b93221b432b360b11b036114715780546001600160a01b0319811685178255600354845163095ea7b360e01b8152918816909517918101919091526000196024820152928491849160449183918991165af1908115611468575061144e57505080f35b8161146492903d1061031e576103108183611f6b565b5080f35b513d85823e3d90fd5b8251634f7c191f60e01b8152fd5b600580546001600160a01b031916861790556113e6565b600380546001600160a01b031981169085161790556113d3565b600280546001600160a01b031916861790556113c3565b600180546001600160a01b031916861790556113b2565b50825163599a6c3360e11b8152fd5b6115049150873d891161031e576103108183611f6b565b38611399565b85513d8a823e3d90fd5b509190346106b25760203660031901126106b25782359060018060a01b036044602082865416845192838092632474521560e21b8252898b8301523360248301525afa9081156111385785916115cf575b50156115bf57938394600a54848082106000146115b1575050845b600a556005541692833b15610c62576108529385928385518097819582946312db6f5f60e01b845230908401611fa6565b6115ba9161212b565b611580565b8151631886ea7d60e11b81528590fd5b6115e7915060203d811161031e576103108183611f6b565b38611565565b508290346106b257826003193601126106b257611608611f11565b9060249081359160018060a01b0393848116948587526020956006875260ff8989205416156117e057670de0b6b3a7640000918287029287840414871517156117ce5787816002541692868c5180958193631735856760e31b83528b8301525afa9182156117c4578992611795575b5081156117815791886116d76116e58296946116ba8b8598309033907f00000000000000000000000000000000000000000000000000000000000000001661203b565b8d519283918d83019663a9059cbb60e01b885204338b8401611fa6565b03601f198101835282611f6b565b51925af16116f1611ffc565b81611751575b501561172a5750507f062234b32cab33fa5bcd957e318141fefab38cc79f25ec5b972be8392e98cb6c929351908152a180f35b855162461bcd60e51b81529182018490526002908201526114d560f21b6044820152606490fd5b80518015925086908315611769575b505050876116f7565b6117799350820181019101611f8e565b878581611760565b84601287634e487b7160e01b600052526000fd5b9091508781813d83116117bd575b6117ad8183611f6b565b810103126105005751908a611677565b503d6117a3565b8a513d8b823e3d90fd5b634e487b7160e01b8952601186528489fd5b8484918a5191633935d9fb60e21b8352820152fd5b5050346106b257816003193601126106b257602090600b549051908152f35b509190346106b2576020908160031936011261032f5782548151632474521560e21b81528581018590523360248201526001600160a01b03939182908290604490829088165afa9081156111385785916119b9575b50156115bf57845482516399248ea760e01b81529084169382828881885afa9182156110f157869261197d575b50806003541691160361196e57938394825163604ef2e560e01b815281818481885afa9182156110f157869261193d575b50508015611920576001600160401b03165b833b15610c625782516321fba31360e21b81528235928101929092526001600160401b031660248201529183908390604490829084905af190811561087857506108655750f35b50600e546001600160401b03906119379043612108565b166118d9565b8196508092503d8311611967575b6119558183611f6b565b810103126105005784935138806118c7565b503d61194b565b815162ce650360e31b81528590fd5b9091508281813d83116119b2575b6119958183611f6b565b810103126119ae575181811681036119ae579038611896565b8580fd5b503d61198b565b6119d09150823d841161031e576103108183611f6b565b38611869565b5050346106b257816003193601126106b257602090517f39f61ca2a1a28fee144218173ec637b649a353e4026b2738c673800e5bf1437b8152f35b5050346106b257816003193601126106b257602090600d549051908152f35b5050346106b257816003193601126106b25760075490516001600160a01b039091168152602090f35b509190346106b25760203660031901126106b257823590600a5493848311611b55578151633eaf7a0360e21b815230828201527f00000000000000000000000000000000000000000000000000000000000000006001600160a01b03169390602081602481885afa9081156110f1578691611b24575b508111611b1557611ae181869761212b565b600a55833b15610c62576024859283855196879485936327a0bb3360e01b85528401525af190811561087857506108655750f35b5090516394290ab960e01b8152fd5b90506020813d8211611b4d575b81611b3e60209383611f6b565b81010312610500575138611acf565b3d9150611b31565b9051633f94439960e21b8152fd5b503461032f57602036600319011261032f5760209282913581526008845220549051908152f35b5050346106b257816003193601126106b25760055490516001600160a01b039091168152602090f35b5050346106b257816003193601126106b2576020906009549051908152f35b5050346106b257816003193601126106b257602090600c549051908152f35b50903461032f5760209182600319360112610b17578151633eaf7a0360e21b815230818301527f00000000000000000000000000000000000000000000000000000000000000006001600160a01b031693823592918181602481895afa9081156110b5578791611d2e575b508311611d1f5783516311005b0760e01b815230838201528181602481895afa9182156110b5578792611ced575b5050610483611c9c916009549061212b565b8211611cdf57908491843b1561032f5760249083855196879485936327a0bb3360e01b85528401525af19081156108785750611cd6575080f35b61029390611f27565b825163ac4314a960e01b8152fd5b90809250813d8311611d18575b611d048183611f6b565b810103126119ae5751610483611c9c611c8a565b503d611cfa565b5082516394290ab960e01b8152fd5b90508181813d8311611d58575b611d458183611f6b565b81010312611d54575138611c5c565b8680fd5b503d611d3b565b5050346106b257816003193601126106b257602090600a549051908152f35b5050346106b257816003193601126106b257905490516001600160a01b039091168152602090f35b503461032f57602036600319011261032f57611dc0611f11565b83548351632474521560e21b81528381018690523360248201526001600160a01b0392916020908290604490829087165afa908115611e78578691611e5a575b5015611e4a571691828452600660205260ff818520541615611e35575050600780546001600160a01b03191691909117905580f35b916024925191633935d9fb60e21b8352820152fd5b8351631886ea7d60e11b81528390fd5b611e72915060203d811161031e576103108183611f6b565b38611e00565b85513d88823e3d90fd5b9291905034610b17576020366003190112610b1757803563ffffffff60e01b8116809103610c625784546301ffc9a760e01b855291840152602090839060249082906001600160a01b03165afa918215611f075760209392611ee8575b50519015158152f35b611f00919250833d811161031e576103108183611f6b565b9038611edf565b81513d85823e3d90fd5b600435906001600160a01b038216820361050057565b6001600160401b038111611f3a57604052565b634e487b7160e01b600052604160045260246000fd5b608081019081106001600160401b03821117611f3a57604052565b601f909101601f19168101906001600160401b03821190821017611f3a57604052565b90816020910312610500575180151581036105005790565b6001600160a01b039091168152602081019190915260400190565b6001600160a01b039182168152602081019290925291821660408201529116606082015260ff9091166080820152600060a082015260c00190565b3d15612036573d906001600160401b038211611f3a576040519161202a601f8201601f191660200184611f6b565b82523d6000602084013e565b606090565b6040516323b872dd60e01b602082019081526001600160a01b03938416602483015292909316604484015260648084019490945292825260a0820192906001600160401b03841183851017611f3a576000809493819460405251925af16120a0611ffc565b816120d9575b50156120ae57565b60405162461bcd60e51b815260206004820152600360248201526229aa2360e91b6044820152606490fd5b80518015925082156120ee575b5050386120a6565b6121019250602080918301019101611f8e565b38806120e6565b9190820180921161211557565b634e487b7160e01b600052601160045260246000fd5b908103908111612115579056fe3b5d4cc60d3ec3516ee8ae083bd60934f6eb2a6c54b1229985c41bfb092b26039a9aef7c1247d5fc769b0185c052913e39673da29a880317dfd20ebf86f26a49b0fdd1623e42dbffda4acd8bd643e1cb69f00f0e83abeaa8150ee42cf0fd105ea2646970667358221220c24191ed65d9a7454652c08830224955c7dc6f535bc5a646dda3f056f6f5b93464736f6c63430008110033",
  "devdoc": {
    "kind": "dev",
    "methods": {
      "auctionDebt(address,uint256,uint8,uint256)": {
        "details": "We can only auction debt that is not already being auctioned and is not locked in the debt queue. Firstly, we should donate token2sell (it's collateral or stablecoin) by refillStablecoin*"
      },
      "auctionSurplus(uint256,uint8)": {
        "details": "We can only auction surplus if we wait at least 'surplusAuctionDelay' seconds since the last      auction trigger, if we keep enough surplus in the buffer and if there is no bad debt to settle*"
      },
      "cancelAuctionedDebtWithSurplus(uint256)": {
        "params": {
          "rad": "Amount of coins/debt to destroy (number with 45 decimals)*"
        }
      },
      "disableContract()": {
        "details": "When we disable, the contract tries to settle as much debt as possible (if there's any) with any surplus that's left in the system. After erasing debt, the contract will either transfer any remaining surplus right away (if disableCooldown == 0) or will only record the timestamp when it was disabled*"
      },
      "popDebtFromQueue(uint256)": {
        "params": {
          "era": "Timestamp of the block of debt that should be popped out"
        }
      },
      "pushDebtToQueue(uint256)": {
        "details": "Debt is locked in a queue to give the system enough time to auction collateral      and gather surplus",
        "params": {
          "amountToRaise": "Amount of debt to push"
        }
      },
      "settleDebt(uint256)": {
        "details": "We can only destroy debt that is not locked in the queue and also not in a debt auction",
        "params": {
          "rad": "Amount of coins/debt to destroy (number with 45 decimals)*"
        }
      },
      "supportsInterface(bytes4)": {
        "details": "Returns true if this contract implements the interface defined by `interfaceId`. See the corresponding https://eips.ethereum.org/EIPS/eip-165#how-interfaces-are-identified[EIP section] to learn more about how these ids are created. This function call must use less than 30 000 gas."
      }
    },
    "version": 1
  },
  "userdoc": {
    "kind": "user",
    "methods": {
      "addWhitelistStablecoin(address)": {
        "notice": "Add new stablecoin to whitelist of stablecoins protocol works with*"
      },
      "auctionDebt(address,uint256,uint8,uint256)": {
        "notice": "Start a debt auction (we have debt = x$, token2sell with value of y$, where y >= x)"
      },
      "auctionSurplus(uint256,uint8)": {
        "notice": "Start a surplus auction"
      },
      "cancelAuctionedDebtWithSurplus(uint256)": {
        "notice": "Use surplus coins to destroy debt that is/was in a debt auction"
      },
      "disableContract()": {
        "notice": "Disable this contract (normally called by Global Settlement)"
      },
      "distributeSurplus(uint256)": {
        "notice": "Admin function to distribute surplus after getting it*"
      },
      "getRealStablePro(uint256)": {
        "notice": "Admin function to get real StablePro tokens instead of records in protocol (= exit from coinJoin)*"
      },
      "hasWhitelistStablecoin(address)": {
        "notice": "Check if give token is in stablecoins whitelist*"
      },
      "joinStablePro(uint256)": {
        "notice": "Admin function to join protocol using real StablePro (= join in coinJoin)*"
      },
      "popDebtFromQueue(uint256)": {
        "notice": "A block of debt can be popped from the queue after popDebtDelay seconds passed since it was         added there"
      },
      "pushDebtToQueue(uint256)": {
        "notice": "Push debt (that the system tries to cover with collateral auctions) to a queue"
      },
      "refillStablecoin(address,uint256)": {
        "notice": "Function to send stablecoin to AccountingEngine contract*"
      },
      "removeWhitelistStablecoin(address)": {
        "notice": "Remove stablecoin from whitelist of stablecoins protocol works with*"
      },
      "setStablecoinToSwap(address)": {
        "notice": "Change var stablecoinToSwap, that is used in liquidation process*"
      },
      "settleDebt(uint256)": {
        "notice": "Destroy an equal amount of coins and debt"
      },
      "swapStableProToStablecoin(address,uint256)": {
        "notice": "Function to swap sender's stablePro to stablecoin that is in whitelist*"
      }
    },
    "version": 1
  },
  "storageLayout": {
    "storage": [
      {
        "astId": 22875,
        "contract": "contracts/makerdao/externalContracts/AccountingEngine.sol:AccountingEngine",
        "label": "ACCESS_CONTROL_SINGLETON",
        "offset": 0,
        "slot": "0",
        "type": "t_contract(ISuAccessControl)27027"
      },
      {
        "astId": 42614,
        "contract": "contracts/makerdao/externalContracts/AccountingEngine.sol:AccountingEngine",
        "label": "exchange",
        "offset": 0,
        "slot": "1",
        "type": "t_contract(IExchange)21392"
      },
      {
        "astId": 42617,
        "contract": "contracts/makerdao/externalContracts/AccountingEngine.sol:AccountingEngine",
        "label": "oracle",
        "offset": 0,
        "slot": "2",
        "type": "t_contract(ISuOracleAggregator)27821"
      },
      {
        "astId": 42620,
        "contract": "contracts/makerdao/externalContracts/AccountingEngine.sol:AccountingEngine",
        "label": "suDAO",
        "offset": 0,
        "slot": "3",
        "type": "t_contract(IERC20)6874"
      },
      {
        "astId": 42626,
        "contract": "contracts/makerdao/externalContracts/AccountingEngine.sol:AccountingEngine",
        "label": "rewardChef",
        "offset": 0,
        "slot": "4",
        "type": "t_contract(IRewardChefV2)39140"
      },
      {
        "astId": 42629,
        "contract": "contracts/makerdao/externalContracts/AccountingEngine.sol:AccountingEngine",
        "label": "coinJoin",
        "offset": 0,
        "slot": "5",
        "type": "t_contract(ICoinJoin)46123"
      },
      {
        "astId": 42633,
        "contract": "contracts/makerdao/externalContracts/AccountingEngine.sol:AccountingEngine",
        "label": "stablecoinWhitelist",
        "offset": 0,
        "slot": "6",
        "type": "t_mapping(t_address,t_bool)"
      },
      {
        "astId": 42635,
        "contract": "contracts/makerdao/externalContracts/AccountingEngine.sol:AccountingEngine",
        "label": "stablecoinToSwap",
        "offset": 0,
        "slot": "7",
        "type": "t_address"
      },
      {
        "astId": 42639,
        "contract": "contracts/makerdao/externalContracts/AccountingEngine.sol:AccountingEngine",
        "label": "debtQueue",
        "offset": 0,
        "slot": "8",
        "type": "t_mapping(t_uint256,t_uint256)"
      },
      {
        "astId": 42641,
        "contract": "contracts/makerdao/externalContracts/AccountingEngine.sol:AccountingEngine",
        "label": "totalQueuedDebt",
        "offset": 0,
        "slot": "9",
        "type": "t_uint256"
      },
      {
        "astId": 42643,
        "contract": "contracts/makerdao/externalContracts/AccountingEngine.sol:AccountingEngine",
        "label": "totalOnAuctionDebt",
        "offset": 0,
        "slot": "10",
        "type": "t_uint256"
      },
      {
        "astId": 42645,
        "contract": "contracts/makerdao/externalContracts/AccountingEngine.sol:AccountingEngine",
        "label": "popDebtDelay",
        "offset": 0,
        "slot": "11",
        "type": "t_uint256"
      },
      {
        "astId": 42647,
        "contract": "contracts/makerdao/externalContracts/AccountingEngine.sol:AccountingEngine",
        "label": "surplusBuffer",
        "offset": 0,
        "slot": "12",
        "type": "t_uint256"
      },
      {
        "astId": 42649,
        "contract": "contracts/makerdao/externalContracts/AccountingEngine.sol:AccountingEngine",
        "label": "contractEnabled",
        "offset": 0,
        "slot": "13",
        "type": "t_uint256"
      },
      {
        "astId": 42651,
        "contract": "contracts/makerdao/externalContracts/AccountingEngine.sol:AccountingEngine",
        "label": "defaultRewardEndBlock",
        "offset": 0,
        "slot": "14",
        "type": "t_uint256"
      }
    ],
    "types": {
      "t_address": {
        "encoding": "inplace",
        "label": "address",
        "numberOfBytes": "20"
      },
      "t_bool": {
        "encoding": "inplace",
        "label": "bool",
        "numberOfBytes": "1"
      },
      "t_contract(ICoinJoin)46123": {
        "encoding": "inplace",
        "label": "contract ICoinJoin",
        "numberOfBytes": "20"
      },
      "t_contract(IERC20)6874": {
        "encoding": "inplace",
        "label": "contract IERC20",
        "numberOfBytes": "20"
      },
      "t_contract(IExchange)21392": {
        "encoding": "inplace",
        "label": "contract IExchange",
        "numberOfBytes": "20"
      },
      "t_contract(IRewardChefV2)39140": {
        "encoding": "inplace",
        "label": "contract IRewardChefV2",
        "numberOfBytes": "20"
      },
      "t_contract(ISuAccessControl)27027": {
        "encoding": "inplace",
        "label": "contract ISuAccessControl",
        "numberOfBytes": "20"
      },
      "t_contract(ISuOracleAggregator)27821": {
        "encoding": "inplace",
        "label": "contract ISuOracleAggregator",
        "numberOfBytes": "20"
      },
      "t_mapping(t_address,t_bool)": {
        "encoding": "mapping",
        "key": "t_address",
        "label": "mapping(address => bool)",
        "numberOfBytes": "32",
        "value": "t_bool"
      },
      "t_mapping(t_uint256,t_uint256)": {
        "encoding": "mapping",
        "key": "t_uint256",
        "label": "mapping(uint256 => uint256)",
        "numberOfBytes": "32",
        "value": "t_uint256"
      },
      "t_uint256": {
        "encoding": "inplace",
        "label": "uint256",
        "numberOfBytes": "32"
      }
    }
  }
}