{
  "address": "0xBd64505a0E5Afb50Ba9E199D3074697FdeaDEE61",
  "abi": [
    {
      "inputs": [],
      "name": "BadAccessControlSingleton",
      "type": "error"
    },
    {
      "inputs": [
        {
          "internalType": "address",
          "name": "sender",
          "type": "address"
        }
      ],
      "name": "BadSender",
      "type": "error"
    },
    {
      "inputs": [
        {
          "internalType": "address",
          "name": "lpToken",
          "type": "address"
        }
      ],
      "name": "LPTokenNotRegistered",
      "type": "error"
    },
    {
      "inputs": [
        {
          "internalType": "address",
          "name": "lpToken",
          "type": "address"
        }
      ],
      "name": "LPTokenNotSupported",
      "type": "error"
    },
    {
      "inputs": [
        {
          "internalType": "address",
          "name": "sender",
          "type": "address"
        }
      ],
      "name": "NotAPool",
      "type": "error"
    },
    {
      "inputs": [],
      "name": "OnlyAdminError",
      "type": "error"
    },
    {
      "inputs": [],
      "name": "OnlyAlerterError",
      "type": "error"
    },
    {
      "inputs": [],
      "name": "OnlyDAOError",
      "type": "error"
    },
    {
      "inputs": [],
      "name": "OnlyLiquidationAccessError",
      "type": "error"
    },
    {
      "inputs": [],
      "name": "OnlyMintAccessError",
      "type": "error"
    },
    {
      "inputs": [],
      "name": "OnlyRewardAccessError",
      "type": "error"
    },
    {
      "inputs": [],
      "name": "OnlyRoleError",
      "type": "error"
    },
    {
      "inputs": [],
      "name": "OnlyVaultAccessError",
      "type": "error"
    },
    {
      "inputs": [],
      "name": "SwapBy1InchError",
      "type": "error"
    },
    {
      "inputs": [],
      "name": "SwapByParaSwapError",
      "type": "error"
    },
    {
      "inputs": [],
      "name": "SwapNotProfitable",
      "type": "error"
    },
    {
      "anonymous": false,
      "inputs": [
        {
          "indexed": false,
          "internalType": "uint8",
          "name": "version",
          "type": "uint8"
        }
      ],
      "name": "Initialized",
      "type": "event"
    },
    {
      "inputs": [],
      "name": "ACCESS_CONTROL_SINGLETON",
      "outputs": [
        {
          "internalType": "contract ISuAccessControl",
          "name": "",
          "type": "address"
        }
      ],
      "stateMutability": "view",
      "type": "function"
    },
    {
      "inputs": [],
      "name": "ADMIN_ROLE",
      "outputs": [
        {
          "internalType": "bytes32",
          "name": "",
          "type": "bytes32"
        }
      ],
      "stateMutability": "view",
      "type": "function"
    },
    {
      "inputs": [],
      "name": "ALERTER_ROLE",
      "outputs": [
        {
          "internalType": "bytes32",
          "name": "",
          "type": "bytes32"
        }
      ],
      "stateMutability": "view",
      "type": "function"
    },
    {
      "inputs": [],
      "name": "DAO_ROLE",
      "outputs": [
        {
          "internalType": "bytes32",
          "name": "",
          "type": "bytes32"
        }
      ],
      "stateMutability": "view",
      "type": "function"
    },
    {
      "inputs": [],
      "name": "LIQUIDATION_ACCESS_ROLE",
      "outputs": [
        {
          "internalType": "bytes32",
          "name": "",
          "type": "bytes32"
        }
      ],
      "stateMutability": "view",
      "type": "function"
    },
    {
      "inputs": [],
      "name": "MINT_ACCESS_ROLE",
      "outputs": [
        {
          "internalType": "bytes32",
          "name": "",
          "type": "bytes32"
        }
      ],
      "stateMutability": "view",
      "type": "function"
    },
    {
      "inputs": [],
      "name": "REWARD_ACCESS_ROLE",
      "outputs": [
        {
          "internalType": "bytes32",
          "name": "",
          "type": "bytes32"
        }
      ],
      "stateMutability": "view",
      "type": "function"
    },
    {
      "inputs": [],
      "name": "SYSTEM_ROLE",
      "outputs": [
        {
          "internalType": "bytes32",
          "name": "",
          "type": "bytes32"
        }
      ],
      "stateMutability": "view",
      "type": "function"
    },
    {
      "inputs": [],
      "name": "VAULT_ACCESS_ROLE",
      "outputs": [
        {
          "internalType": "bytes32",
          "name": "",
          "type": "bytes32"
        }
      ],
      "stateMutability": "view",
      "type": "function"
    },
    {
      "inputs": [
        {
          "internalType": "bytes",
          "name": "data",
          "type": "bytes"
        },
        {
          "internalType": "uint256",
          "name": "newAmount",
          "type": "uint256"
        }
      ],
      "name": "changeCalldataAmount",
      "outputs": [
        {
          "internalType": "bytes",
          "name": "",
          "type": "bytes"
        }
      ],
      "stateMutability": "pure",
      "type": "function"
    },
    {
      "inputs": [
        {
          "internalType": "address",
          "name": "clipperExchange",
          "type": "address"
        },
        {
          "internalType": "address",
          "name": "srcToken",
          "type": "address"
        },
        {
          "internalType": "address",
          "name": "dstToken",
          "type": "address"
        },
        {
          "internalType": "uint256",
          "name": "inputAmount",
          "type": "uint256"
        },
        {
          "internalType": "uint256",
          "name": "outputAmount",
          "type": "uint256"
        },
        {
          "internalType": "uint256",
          "name": "goodUntil",
          "type": "uint256"
        },
        {
          "internalType": "bytes32",
          "name": "r",
          "type": "bytes32"
        },
        {
          "internalType": "bytes32",
          "name": "vs",
          "type": "bytes32"
        }
      ],
      "name": "clipperSwap",
      "outputs": [],
      "stateMutability": "pure",
      "type": "function"
    },
    {
      "inputs": [
        {
          "internalType": "address",
          "name": "_authControl",
          "type": "address"
        },
        {
          "internalType": "address",
          "name": "_exchange",
          "type": "address"
        }
      ],
      "name": "initialize",
      "outputs": [],
      "stateMutability": "nonpayable",
      "type": "function"
    },
    {
      "inputs": [
        {
          "internalType": "address",
          "name": "",
          "type": "address"
        }
      ],
      "name": "lpToAdapter",
      "outputs": [
        {
          "internalType": "contract ILPAdapter",
          "name": "",
          "type": "address"
        }
      ],
      "stateMutability": "view",
      "type": "function"
    },
    {
      "inputs": [
        {
          "internalType": "address",
          "name": "_lp",
          "type": "address"
        },
        {
          "internalType": "address",
          "name": "_lpAdapter",
          "type": "address"
        }
      ],
      "name": "registerLP",
      "outputs": [],
      "stateMutability": "nonpayable",
      "type": "function"
    },
    {
      "inputs": [
        {
          "internalType": "address",
          "name": "asset",
          "type": "address"
        },
        {
          "internalType": "uint256",
          "name": "amount",
          "type": "uint256"
        },
        {
          "internalType": "address",
          "name": "sender",
          "type": "address"
        },
        {
          "internalType": "bytes",
          "name": "data",
          "type": "bytes"
        }
      ],
      "name": "stableunitFillOrderCallback",
      "outputs": [
        {
          "internalType": "bool",
          "name": "",
          "type": "bool"
        }
      ],
      "stateMutability": "nonpayable",
      "type": "function"
    },
    {
      "inputs": [
        {
          "internalType": "bytes4",
          "name": "interfaceId",
          "type": "bytes4"
        }
      ],
      "name": "supportsInterface",
      "outputs": [
        {
          "internalType": "bool",
          "name": "",
          "type": "bool"
        }
      ],
      "stateMutability": "view",
      "type": "function"
    },
    {
      "inputs": [
        {
          "internalType": "address",
          "name": "",
          "type": "address"
        },
        {
          "components": [
            {
              "internalType": "address",
              "name": "srcToken",
              "type": "address"
            },
            {
              "internalType": "address",
              "name": "dstToken",
              "type": "address"
            },
            {
              "internalType": "address",
              "name": "srcReceiver",
              "type": "address"
            },
            {
              "internalType": "address",
              "name": "dstReceiver",
              "type": "address"
            },
            {
              "internalType": "uint256",
              "name": "amount",
              "type": "uint256"
            },
            {
              "internalType": "uint256",
              "name": "minReturnAmount",
              "type": "uint256"
            },
            {
              "internalType": "uint256",
              "name": "flags",
              "type": "uint256"
            }
          ],
          "internalType": "struct SwapDescription",
          "name": "",
          "type": "tuple"
        },
        {
          "internalType": "bytes",
          "name": "",
          "type": "bytes"
        },
        {
          "internalType": "bytes",
          "name": "",
          "type": "bytes"
        }
      ],
      "name": "swap",
      "outputs": [],
      "stateMutability": "pure",
      "type": "function"
    },
    {
      "inputs": [
        {
          "internalType": "uint256",
          "name": "orderId",
          "type": "uint256"
        },
        {
          "internalType": "address",
          "name": "token2sell",
          "type": "address"
        },
        {
          "internalType": "uint256",
          "name": "token2sellAmount",
          "type": "uint256"
        },
        {
          "components": [
            {
              "internalType": "address",
              "name": "contractAddress",
              "type": "address"
            },
            {
              "internalType": "bytes",
              "name": "data",
              "type": "bytes"
            },
            {
              "internalType": "address",
              "name": "token",
              "type": "address"
            }
          ],
          "internalType": "struct InchData[]",
          "name": "inchData",
          "type": "tuple[]"
        }
      ],
      "name": "swapLPWithFlashLoan",
      "outputs": [],
      "stateMutability": "nonpayable",
      "type": "function"
    },
    {
      "inputs": [
        {
          "internalType": "uint256",
          "name": "orderId",
          "type": "uint256"
        },
        {
          "internalType": "address",
          "name": "token2sell",
          "type": "address"
        },
        {
          "internalType": "uint256",
          "name": "token2sellAmount",
          "type": "uint256"
        },
        {
          "components": [
            {
              "internalType": "address",
              "name": "contractAddress",
              "type": "address"
            },
            {
              "internalType": "bytes",
              "name": "data",
              "type": "bytes"
            },
            {
              "internalType": "address",
              "name": "token",
              "type": "address"
            }
          ],
          "internalType": "struct InchData",
          "name": "inchData",
          "type": "tuple"
        }
      ],
      "name": "swapWithFlashLoan",
      "outputs": [],
      "stateMutability": "nonpayable",
      "type": "function"
    },
    {
      "inputs": [
        {
          "internalType": "uint256",
          "name": "",
          "type": "uint256"
        },
        {
          "internalType": "uint256",
          "name": "",
          "type": "uint256"
        },
        {
          "internalType": "uint256[]",
          "name": "",
          "type": "uint256[]"
        }
      ],
      "name": "uniswapV3Swap",
      "outputs": [],
      "stateMutability": "pure",
      "type": "function"
    },
    {
      "inputs": [
        {
          "internalType": "address",
          "name": "",
          "type": "address"
        },
        {
          "internalType": "uint256",
          "name": "",
          "type": "uint256"
        },
        {
          "internalType": "uint256",
          "name": "",
          "type": "uint256"
        },
        {
          "internalType": "uint256[]",
          "name": "",
          "type": "uint256[]"
        }
      ],
      "name": "unoswap",
      "outputs": [],
      "stateMutability": "pure",
      "type": "function"
    }
  ],
  "numDeployments": 7,
  "solcInputHash": "4b4827c185e49f5250e237ecb28af247",
  "bytecode": "0x6080806040523461001657611d4b908161001c8239f35b600080fdfe608080604052600436101561001357600080fd5b60003560e01c90816301ffc9a7146111a35750806303ee9f22146111765780630502b1c51461113d57806312aa3caf146110da57806314c376dc1461109f5780631e61130614611048578063438280dd1461100d578063485cc95514610dbd5780634dec53e014610d825780636a2f53c21461066357806371d0fb411461062857806374cc2bdd1461058a57806375071d2a1461054f57806375b238fc1461053357806384bd6d29146105075780638e5313e0146104cc578063943a0f1314610349578063dc97e84e1461030e578063e37c74a114610178578063e449022e146101465763e9c265181461010657600080fd5b346101415760003660031901126101415760206040517f3b5d4cc60d3ec3516ee8ae083bd60934f6eb2a6c54b1229985c41bfb092b26038152f35b600080fd5b34610141576060366003190112610141576044356001600160401b03811161014157610176903690600401611284565b005b3461014157608036600319011261014157600435610194611244565b90604435906001600160401b0390606435828111610141576101ba903690600401611409565b90604051946040860186811085821117610218576040526001865260005b6020908181101561022e57604051606092838201938285108986111761021857602094604052600083528183015260006040830152828a010152016101d8565b634e487b7160e01b600052604160045260246000fd5b836102ce846102a38b8b8a61024283611554565b5261024c82611554565b506001546040516001600160a01b039791881693600092916102b19161027182611329565b84825260209a8b99858b85015216604083015285606083015233608083015260a082015260405196879189830161158b565b03601f19810187528661135f565b604051637176836f60e11b8152968795869485936004850161165f565b03925af18015610302576102de57005b813d83116102fb575b6102f1818361135f565b8101031261014157005b503d6102e7565b6040513d6000823e3d90fd5b346101415760003660031901126101415760206040517f9a9aef7c1247d5fc769b0185c052913e39673da29a880317dfd20ebf86f26a498152f35b346101415760403660031901126101415761036261122e565b61036a611244565b9060018060a01b03908160005460101c16926040518094632474521560e21b82526000600483015233602483015281604460209788935afa9081156103025760009161049f575b501561048d5782169181166000526002835260406000208260018060a01b0319825416179055604051908382019263095ea7b360e01b84526024830152600019604483015260448252608082019282841060018060401b03851117610218576000809493819460405251925af1610426611524565b8161045d575b501561043457005b6064906040519062461bcd60e51b825260048201526002602482015261534160f01b6044820152fd5b80518015925083908315610475575b5050508261042c565b61048593508201810191016114f1565b82828161046c565b604051631886ea7d60e11b8152600490fd5b6104bf9150853d87116104c5575b6104b7818361135f565b8101906114f1565b856103b1565b503d6104ad565b346101415760003660031901126101415760206040517fe453bacb314e78dcd5192e6b1a2b1f0e7c76e92f6b7e429a6a90f04e39db3b768152f35b34610141576101003660031901126101415761052161122e565b5061052a611244565b5061017661125a565b3461014157600036600319011261014157602060405160008152f35b346101415760003660031901126101415760206040517f5719df9ef2c4678b547f89e4f5ae410dbf400fc51cf3ded434c55f6adea2c43f8152f35b34610141576080366003190112610141576004356105a6611244565b604435906064356001600160401b038111610141576102ce926105d06102a3923690600401611471565b6001546040516001600160a01b03979188169392600092916102b1916105f582611329565b6001825260209a8b99858b85015216604083015285606083015233608083015260a082015260405196879189830161158b565b346101415760003660031901126101415760206040517f880a91047114272656e533301261260c75e4d11543ac7303d6fe4204579ec7278152f35b346101415760803660031901126101415761067c61122e565b61068461125a565b906064356001600160401b038111610141576106a49036906004016112b4565b81019290602081850312610141578035906001600160401b038211610141570160c081850312610141576040519360c085016001600160401b0381118682101761021857604052813580151581036101415785526020820135602086015261070e60408301611270565b60408601526060820135606086015261072960808301611270565b608086015260a08201356001600160401b0381116101415761074b9201611471565b60a08401526001546001600160a01b03163303610d6a576001600160a01b0316308103610d5257506040516370a0823160e01b8152306004820152906020826024816001600160a01b0385165afa91821561030257600092610d1e575b50825115610cd0576040838101516001600160a01b039081166000908152600260205291909120541615610ca957604083810180516001600160a01b039081166000908152600260209081528482205493519451635136211760e01b8152948316600486015292849260249284929091165af190811561030257600091610c8a575b5015610c6357604080840180516001600160a01b03908116600090815260026020528381205492516060880151945163f3fef3a360e01b815297959491938893908116928492869284926108849290911660048401611509565b03925af193841561030257600094610b68575b5060a0820151519184519460005b8661ffff82161015610a8d576001600160a01b036108c761ffff831684611577565b5151169060206108db61ffff831685611577565b5101516001600160a01b03861683036108ff575b506108fa915061167b565b6108a5565b8689036109b4576109619060018060a01b0361092361ffff851660a0890151611577565b5151166000602061093c61ffff871660a08b0151611577565b51015160405180958192630f30898360e11b8352604060048401526044830190611304565b8560248301520381305afa918215610302576108fa956109899460009461098f575b506117bb565b886108ef565b6109ad9194503d806000833e6109a5818361135f565b8101906116a4565b928d610983565b94919790959660005b8861ffff82161015610a7c576001600160a01b036109df61ffff8a1687611577565b51511660018060a01b0360406109fd61ffff851660a08b0151611577565b5101511614610a1457610a0f9061167b565b6109bd565b95610a50919897929993966000602061093c61ffff60018060a01b03610a418c60a0848916910151611577565b515116941660a08b0151611577565b8560248301520381305afa918215610302576108fa95610a779460009461098f57506117bb565b610989565b5096959097506108fa919450610989565b505092915092505b6040516370a0823160e01b8152306004820152906020826024816001600160a01b0388165afa801561030257600090610b34575b610ad39250611702565b9160243591828410610b2257610b04610aef84610b1796611702565b6001549094906001600160a01b03168461170f565b608001516001600160a01b03169061170f565b602060405160018152f35b60405163510a529560e01b8152600490fd5b506020823d602011610b60575b81610b4e6020938361135f565b8101031261014157610ad39151610ac9565b3d9150610b41565b9093503d806000833e610b7b818361135f565b6020828281010312610141578151906001600160401b03821161014157808301601f838501011215610141578183015190610bb582611382565b93610bc3604051958661135f565b828552602085019382820160208560061b8385010101116101415793602085830101945b60208560061b82850101018610610c05575050505050509284610897565b604086858501031261014157604080519081018082116001600160401b0390911117610218576040818101905286516001600160a01b03811681036101415760209382859260409452828a0151838201528152019601959150610be7565b60408381015190516325eadd2560e01b81526001600160a01b039091166004820152602490fd5b610ca3915060203d6020116104c5576104b7818361135f565b8461082a565b6040838101519051637d250b0b60e11b81526001600160a01b039091166004820152602490fd5b6040830151606084015160a085015192949392610d19926001600160a01b039081169291610cfd90611554565b515116906020610d1060a0880151611554565b510151926117bb565b610a95565b9091506020813d602011610d4a575b81610d3a6020938361135f565b81010312610141575190836107a8565b3d9150610d2d565b60249060405190637d85130d60e11b82526004820152fd5b60405163e372835960e01b8152336004820152602490fd5b346101415760203660031901126101415760206001600160a01b0380610da661122e565b166000526002825260406000205416604051908152f35b3461014157604036600319011261014157610dd661122e565b610dde611244565b60005460ff8160081c161590818092611000575b8015610fe9575b15610f8d5760ff19811660011760005581610f7b575b506000549160ff8360081c1615610f225762010000600160b01b03601085901b1662010000600160b01b031984168117600055936001600160a01b03919082168015159081610ec5575b50610eb3571660018060a01b03196001541617600155610e7557005b610100600160b01b03191617600055604051600181527f7f26b83ff96e1f2b6a682f133852f6798a09c465da95921460cefb384740249890602090a1005b6040516384d942fd60e01b8152600490fd5b6040516301ffc9a760e01b8152637965db0b60e01b60048201529150602090829060249082905afa90811561030257600091610f04575b501586610e59565b610f1c915060203d81116104c5576104b7818361135f565b86610efc565b60405162461bcd60e51b815260206004820152602b60248201527f496e697469616c697a61626c653a20636f6e7472616374206973206e6f74206960448201526a6e697469616c697a696e6760a81b6064820152608490fd5b61ffff19166101011760005583610e0f565b60405162461bcd60e51b815260206004820152602e60248201527f496e697469616c697a61626c653a20636f6e747261637420697320616c72656160448201526d191e481a5b9a5d1a585b1a5e995960921b6064820152608490fd5b50303b158015610df95750600160ff821614610df9565b50600160ff821610610df2565b346101415760003660031901126101415760206040517f39f61ca2a1a28fee144218173ec637b649a353e4026b2738c673800e5bf1437b8152f35b34610141576040366003190112610141576004356001600160401b0381116101415761108761107e61109b9236906004016112b4565b60243591611919565b604051918291602083526020830190611304565b0390f35b346101415760003660031901126101415760206040517fe965846df3dd5b1dfa65f58e31477079e90140e0908b6dd31b5aead5a57cf3658152f35b3461014157610140366003190112610141576110f461122e565b5060e0366023190112610141576001600160401b0361010435818111610141576111229036906004016112b4565b505061012435908111610141576101769036906004016112b4565b346101415760803660031901126101415761115661122e565b506064356001600160401b03811161014157610176903690600401611284565b346101415760003660031901126101415760005460405160109190911c6001600160a01b03168152602090f35b346101415760203660031901126101415760043563ffffffff60e01b8116809103610141576000546301ffc9a760e01b835260048301919091526020908290602490829060101c6001600160a01b03165afa801561030257602091600091611211575b506040519015158152f35b6112289150823d81116104c5576104b7818361135f565b82611206565b600435906001600160a01b038216820361014157565b602435906001600160a01b038216820361014157565b604435906001600160a01b038216820361014157565b35906001600160a01b038216820361014157565b9181601f84011215610141578235916001600160401b038311610141576020808501948460051b01011161014157565b9181601f84011215610141578235916001600160401b038311610141576020838186019501011161014157565b60005b8381106112f45750506000910152565b81810151838201526020016112e4565b9060209161131d815180928185528580860191016112e1565b601f01601f1916010190565b60c081019081106001600160401b0382111761021857604052565b60e081019081106001600160401b0382111761021857604052565b601f909101601f19168101906001600160401b0382119082101761021857604052565b6001600160401b0381116102185760051b60200190565b6001600160401b03811161021857601f01601f191660200190565b9291926113c082611399565b916113ce604051938461135f565b829481845281830111610141578281602093846000960137010152565b9080601f8301121561014157816020611406933591016113b4565b90565b91909160608184031261014157604051906001600160401b03606083018181118482101761021857604052829461143f83611270565b8452602083013591821161014157826114616040949261146c948694016113eb565b602086015201611270565b910152565b9080601f830112156101415781359061148982611382565b92611497604051948561135f565b828452602092838086019160051b8301019280841161014157848301915b8483106114c55750505050505090565b82356001600160401b0381116101415786916114e684848094890101611409565b8152019201916114b5565b90816020910312610141575180151581036101415790565b6001600160a01b039091168152602081019190915260400190565b3d1561154f573d9061153582611399565b91611543604051938461135f565b82523d6000602084013e565b606090565b8051156115615760200190565b634e487b7160e01b600052603260045260246000fd5b80518210156115615760209160051b010190565b602080825260e0820190835115158184015280840151926040938482015260018060a01b039360a08582880151169660609788850152878101516080850152866080820151168285015201519560c08084015286518095526101009184838501938760051b8601019801966000945b87861061160d5750505050505050505090565b909192939495969798878060019260ff198582030189528c5190868251168152878781611645868601518d888701528d860190611304565b940151169101529b019601960194979695939291906115fa565b6114069392606092825260208201528160408201520190611304565b61ffff80911690811461168e5760010190565b634e487b7160e01b600052601160045260246000fd5b602081830312610141578051906001600160401b038211610141570181601f820112156101415780516116d681611399565b926116e4604051948561135f565b818452602082840101116101415761140691602080850191016112e1565b9190820391821161168e57565b600092918361173a6117488295604051928391602083019663a9059cbb60e01b885260248401611509565b03601f19810183528261135f565b51925af1611754611524565b8161178c575b501561176257565b60405162461bcd60e51b815260206004820152600260248201526114d560f21b6044820152606490fd5b80518015925082156117a1575b50503861175a565b6117b492506020809183010191016114f1565b3880611799565b92906040516117e08161173a602082019463095ea7b360e01b86528760248401611509565b600094859283809351925af16117f4611524565b81611858575b501561182e57829182602083519301915af1611814611524565b501561181c57565b604051635aa0560760e11b8152600490fd5b60405162461bcd60e51b8152602060048201526002602482015261534160f01b6044820152606490fd5b805180159250821561186d575b5050386117fa565b61188092506020809183010191016114f1565b3880611865565b81601f820112156101415780359161189e83611382565b926118ac604051948561135f565b808452602092838086019260051b820101928311610141578301905b8282106118d6575050505090565b813581529083019083016118c8565b90815180825260208080930193019160005b828110611905575050505090565b8351855293810193928101926001016118f7565b90600481811193846101415783356001600160e01b03191694637224811760e11b808714611ca25750630502b1c560e01b868114611c1e57506312aa3caf60e01b8614611a45576384bd6d2960e01b95861461197e57505050611406925036916113b4565b9392909193610141576101009083018390036003190112610141576119a4838301611270565b6119b060248401611270565b906119bd60448501611270565b9060405196602088015260018060a01b03928380921660248901521660448701521660648501526084840152600160a484015260a481013560c484015260c481013560e484015260e461010491013581840152825261014082019082821060018060401b03831117611a30575060405290565b604190634e487b7160e01b6000525260246000fd5b90929193945061014157830191838303916101406003198401126101415760e0611a70838701611270565b9360231901126101415760405190611a8782611344565b611a9360248701611270565b8252611aa160448701611270565b9560208301968752611ab560648201611270565b60408401908152611ac860848301611270565b6060850190815260a4830135608086015260c483013560a086015260e483013560c086019081526001600160401b039491610104850135868111610141578a89611b14928801016113eb565b94610124810135968711610141576114069a61173a99611c0b98611b399301016113eb565b96519a519351905191516040519b90946001600160a01b0393841693928316929081169116611b678d611344565b8c526020808d019182526040808e0193845260608e0194855260808e01958652600160a08f0190815260c08f0197885290516312aa3caf60e01b928101929092526001600160a01b039b8c1660248301529c518b16604482015290518a166064820152905189166084820152905190971660a48801525160c4870152965160e486015295516101048501526101406101248501529294859390610164850190611304565b8381036023190161014485015290611304565b939192949550610141578401906080858303600319011261014157611c44848601611270565b946064810135926001600160401b038411610141576114069561173a94611c6c930101611887565b90604051958694602086015260018060a01b031660248501526044840152600160648401526080608484015260a48301906118e5565b94939195505060009083019260606003198286030112611d11576044810135916001600160401b038311611d0e57509261173a92611ce69261140696950101611887565b60405194859360208501526024840152600160448401526060606484015260848301906118e5565b80fd5b5080fdfea26469706673582212200659d5c4dee2c5a4388f0cadefd6678e42cc61b0e1f01b9264ad014b2e0c2da764736f6c63430008110033",
  "devdoc": {
    "details": "See IArbitrageHelper interface for full details.",
    "kind": "dev",
    "methods": {
      "changeCalldataAmount(bytes,uint256)": {
        "params": {
          "data": "- calldata to edit",
          "newAmount": "- new amount that should replace amount in {data}"
        },
        "returns": {
          "_0": "edited calldata with new amount inside*"
        }
      },
      "stableunitFillOrderCallback(address,uint256,address,bytes)": {
        "details": "behaviour like in uniswapV3FlashCallback: https://docs.uniswap.org/contracts/v3/guides/flash-integrations/flash-callback and AAVE flash-loan callback: https://github.com/aave/aave-v3-core/blob/master/contracts/flashloan/interfaces/IFlashLoanSimpleReceiver.sol*"
      },
      "supportsInterface(bytes4)": {
        "details": "Returns true if this contract implements the interface defined by `interfaceId`. See the corresponding https://eips.ethereum.org/EIPS/eip-165#how-interfaces-are-identified[EIP section] to learn more about how these ids are created. This function call must use less than 30 000 gas."
      },
      "swapLPWithFlashLoan(uint256,address,uint256,(address,bytes,address)[])": {
        "details": "Contract receive LP-token from exchange module, unwrap it and swap with 1inch all underline tokens to token that exchange module need.",
        "params": {
          "inchData": "- 1inch callData and contract array to swap every underline token of LP*",
          "orderId": "- Id of order in Exchange module to fill",
          "token2sell": "- Token in order to get as flash-loan",
          "token2sellAmount": "- Amount of token in order to get as flash-loan"
        }
      },
      "swapWithFlashLoan(uint256,address,uint256,(address,bytes,address))": {
        "details": "Contract receive loan from exchange module, sell it on 1inch and get profit = received amount - fee",
        "params": {
          "inchData": "- 1inch callData and contract to swap loan*",
          "orderId": "- Id of order in Exchange module to fill",
          "token2sell": "- Token in order to get as flash-loan",
          "token2sellAmount": "- Amount of token in order to get as flash-loan"
        }
      }
    },
    "title": "ArbitrageHelper",
    "version": 1
  },
  "userdoc": {
    "kind": "user",
    "methods": {
      "changeCalldataAmount(bytes,uint256)": {
        "notice": "Helper function to change amount parameter on callback that depends on return by 1inch API calldata for swap We set minAmount to 1 to be sure, that swap will be created. Route path don't depend on that - this path was calculated previously in backend part and is stored in {data}."
      },
      "stableunitFillOrderCallback(address,uint256,address,bytes)": {
        "notice": "This is callback function from Exchange contract. fillOrderAsFlashLoan call (msg.sender).executeOperation(...) after transferring loan to sender"
      },
      "swapLPWithFlashLoan(uint256,address,uint256,(address,bytes,address)[])": {
        "notice": "The same as swapWithFlashLoan, but loan is LP-token that we need to unwrap"
      },
      "swapWithFlashLoan(uint256,address,uint256,(address,bytes,address))": {
        "notice": "Reference implementation of Arbitrage bot contract, that use Exchange module to get profit"
      },
      "uniswapV3Swap(uint256,uint256,uint256[])": {
        "notice": "We need this functions to check their selector and functionSelector in calldata for changeCalldataAmount() function*"
      }
    },
    "notice": "Helper contract to arbitrage using Exchange module",
    "version": 1
  },
  "storageLayout": {
    "storage": [
      {
        "astId": 672,
        "contract": "contracts/exchange/contracts/ArbitrageHelper.sol:ArbitrageHelper",
        "label": "_initialized",
        "offset": 0,
        "slot": "0",
        "type": "t_uint8"
      },
      {
        "astId": 675,
        "contract": "contracts/exchange/contracts/ArbitrageHelper.sol:ArbitrageHelper",
        "label": "_initializing",
        "offset": 1,
        "slot": "0",
        "type": "t_bool"
      },
      {
        "astId": 33377,
        "contract": "contracts/exchange/contracts/ArbitrageHelper.sol:ArbitrageHelper",
        "label": "ACCESS_CONTROL_SINGLETON",
        "offset": 2,
        "slot": "0",
        "type": "t_contract(ISuAccessControl)37440"
      },
      {
        "astId": 18132,
        "contract": "contracts/exchange/contracts/ArbitrageHelper.sol:ArbitrageHelper",
        "label": "EXCHANGE",
        "offset": 0,
        "slot": "1",
        "type": "t_contract(IExchange)20052"
      },
      {
        "astId": 18137,
        "contract": "contracts/exchange/contracts/ArbitrageHelper.sol:ArbitrageHelper",
        "label": "lpToAdapter",
        "offset": 0,
        "slot": "2",
        "type": "t_mapping(t_address,t_contract(ILPAdapter)37501)"
      },
      {
        "astId": 18646,
        "contract": "contracts/exchange/contracts/ArbitrageHelper.sol:ArbitrageHelper",
        "label": "__gap",
        "offset": 0,
        "slot": "3",
        "type": "t_array(t_uint256)45_storage"
      }
    ],
    "types": {
      "t_address": {
        "encoding": "inplace",
        "label": "address",
        "numberOfBytes": "20"
      },
      "t_array(t_uint256)45_storage": {
        "base": "t_uint256",
        "encoding": "inplace",
        "label": "uint256[45]",
        "numberOfBytes": "1440"
      },
      "t_bool": {
        "encoding": "inplace",
        "label": "bool",
        "numberOfBytes": "1"
      },
      "t_contract(IExchange)20052": {
        "encoding": "inplace",
        "label": "contract IExchange",
        "numberOfBytes": "20"
      },
      "t_contract(ILPAdapter)37501": {
        "encoding": "inplace",
        "label": "contract ILPAdapter",
        "numberOfBytes": "20"
      },
      "t_contract(ISuAccessControl)37440": {
        "encoding": "inplace",
        "label": "contract ISuAccessControl",
        "numberOfBytes": "20"
      },
      "t_mapping(t_address,t_contract(ILPAdapter)37501)": {
        "encoding": "mapping",
        "key": "t_address",
        "label": "mapping(address => contract ILPAdapter)",
        "numberOfBytes": "32",
        "value": "t_contract(ILPAdapter)37501"
      },
      "t_uint256": {
        "encoding": "inplace",
        "label": "uint256",
        "numberOfBytes": "32"
      },
      "t_uint8": {
        "encoding": "inplace",
        "label": "uint8",
        "numberOfBytes": "1"
      }
    }
  }
}