{
  "address": "0x7050622D0E01C39eefB13409117359155A51ca7a",
  "abi": [
    {
      "inputs": [],
      "stateMutability": "nonpayable",
      "type": "constructor"
    },
    {
      "inputs": [
        {
          "internalType": "address",
          "name": "sender",
          "type": "address"
        }
      ],
      "name": "BadSender",
      "type": "error"
    },
    {
      "inputs": [],
      "name": "InvalidProfitPercent",
      "type": "error"
    },
    {
      "inputs": [
        {
          "internalType": "address",
          "name": "lpToken",
          "type": "address"
        }
      ],
      "name": "LPTokenNotRegistered",
      "type": "error"
    },
    {
      "inputs": [
        {
          "internalType": "address",
          "name": "lpToken",
          "type": "address"
        }
      ],
      "name": "LPTokenNotSupported",
      "type": "error"
    },
    {
      "inputs": [
        {
          "internalType": "address",
          "name": "sender",
          "type": "address"
        }
      ],
      "name": "NotAPool",
      "type": "error"
    },
    {
      "inputs": [],
      "name": "SwapBy1InchError",
      "type": "error"
    },
    {
      "inputs": [],
      "name": "SwapByParaSwapError",
      "type": "error"
    },
    {
      "inputs": [
        {
          "internalType": "uint256",
          "name": "expectedAmount",
          "type": "uint256"
        },
        {
          "internalType": "uint256",
          "name": "realAmount",
          "type": "uint256"
        }
      ],
      "name": "SwapNotProfitable",
      "type": "error"
    },
    {
      "inputs": [],
      "name": "ZeroRecipient",
      "type": "error"
    },
    {
      "anonymous": false,
      "inputs": [
        {
          "indexed": true,
          "internalType": "address",
          "name": "lp",
          "type": "address"
        },
        {
          "indexed": true,
          "internalType": "address",
          "name": "adapter",
          "type": "address"
        }
      ],
      "name": "ApprovalRevoked",
      "type": "event"
    },
    {
      "anonymous": false,
      "inputs": [
        {
          "indexed": true,
          "internalType": "address",
          "name": "token",
          "type": "address"
        },
        {
          "indexed": true,
          "internalType": "address",
          "name": "recipient",
          "type": "address"
        },
        {
          "indexed": false,
          "internalType": "uint256",
          "name": "amount",
          "type": "uint256"
        }
      ],
      "name": "EmergencyWithdraw",
      "type": "event"
    },
    {
      "anonymous": false,
      "inputs": [
        {
          "indexed": false,
          "internalType": "uint8",
          "name": "version",
          "type": "uint8"
        }
      ],
      "name": "Initialized",
      "type": "event"
    },
    {
      "anonymous": false,
      "inputs": [
        {
          "indexed": true,
          "internalType": "address",
          "name": "lp",
          "type": "address"
        },
        {
          "indexed": true,
          "internalType": "address",
          "name": "adapter",
          "type": "address"
        }
      ],
      "name": "LPRegistered",
      "type": "event"
    },
    {
      "anonymous": false,
      "inputs": [
        {
          "indexed": true,
          "internalType": "address",
          "name": "previousOwner",
          "type": "address"
        },
        {
          "indexed": true,
          "internalType": "address",
          "name": "newOwner",
          "type": "address"
        }
      ],
      "name": "OwnershipTransferred",
      "type": "event"
    },
    {
      "inputs": [
        {
          "internalType": "uint256",
          "name": "amount",
          "type": "uint256"
        }
      ],
      "name": "approveToVeToken",
      "outputs": [],
      "stateMutability": "nonpayable",
      "type": "function"
    },
    {
      "inputs": [
        {
          "internalType": "bytes",
          "name": "data",
          "type": "bytes"
        },
        {
          "internalType": "uint256",
          "name": "newAmount",
          "type": "uint256"
        }
      ],
      "name": "changeCalldataAmount",
      "outputs": [
        {
          "internalType": "bytes",
          "name": "",
          "type": "bytes"
        }
      ],
      "stateMutability": "pure",
      "type": "function"
    },
    {
      "inputs": [
        {
          "internalType": "address",
          "name": "clipperExchange",
          "type": "address"
        },
        {
          "internalType": "address",
          "name": "srcToken",
          "type": "address"
        },
        {
          "internalType": "address",
          "name": "dstToken",
          "type": "address"
        },
        {
          "internalType": "uint256",
          "name": "inputAmount",
          "type": "uint256"
        },
        {
          "internalType": "uint256",
          "name": "outputAmount",
          "type": "uint256"
        },
        {
          "internalType": "uint256",
          "name": "goodUntil",
          "type": "uint256"
        },
        {
          "internalType": "bytes32",
          "name": "r",
          "type": "bytes32"
        },
        {
          "internalType": "bytes32",
          "name": "vs",
          "type": "bytes32"
        }
      ],
      "name": "clipperSwap",
      "outputs": [],
      "stateMutability": "pure",
      "type": "function"
    },
    {
      "inputs": [
        {
          "internalType": "address",
          "name": "to",
          "type": "address"
        }
      ],
      "name": "delegateVotingPower",
      "outputs": [],
      "stateMutability": "nonpayable",
      "type": "function"
    },
    {
      "inputs": [
        {
          "internalType": "address",
          "name": "token",
          "type": "address"
        },
        {
          "internalType": "address",
          "name": "recipient",
          "type": "address"
        },
        {
          "internalType": "uint256",
          "name": "amount",
          "type": "uint256"
        }
      ],
      "name": "emergencyWithdraw",
      "outputs": [],
      "stateMutability": "nonpayable",
      "type": "function"
    },
    {
      "inputs": [
        {
          "internalType": "address",
          "name": "_exchange",
          "type": "address"
        },
        {
          "internalType": "address",
          "name": "_gov",
          "type": "address"
        },
        {
          "internalType": "address",
          "name": "_veGov",
          "type": "address"
        },
        {
          "internalType": "address",
          "name": "_topStakers",
          "type": "address"
        }
      ],
      "name": "initialize",
      "outputs": [],
      "stateMutability": "nonpayable",
      "type": "function"
    },
    {
      "inputs": [
        {
          "internalType": "address",
          "name": "",
          "type": "address"
        }
      ],
      "name": "lpToAdapter",
      "outputs": [
        {
          "internalType": "contract ILPAdapter",
          "name": "",
          "type": "address"
        }
      ],
      "stateMutability": "view",
      "type": "function"
    },
    {
      "inputs": [],
      "name": "owner",
      "outputs": [
        {
          "internalType": "address",
          "name": "",
          "type": "address"
        }
      ],
      "stateMutability": "view",
      "type": "function"
    },
    {
      "inputs": [
        {
          "internalType": "address",
          "name": "_lp",
          "type": "address"
        },
        {
          "internalType": "address",
          "name": "_lpAdapter",
          "type": "address"
        }
      ],
      "name": "registerLP",
      "outputs": [],
      "stateMutability": "nonpayable",
      "type": "function"
    },
    {
      "inputs": [],
      "name": "renounceOwnership",
      "outputs": [],
      "stateMutability": "nonpayable",
      "type": "function"
    },
    {
      "inputs": [
        {
          "internalType": "address",
          "name": "_lp",
          "type": "address"
        },
        {
          "internalType": "address",
          "name": "_lpAdapter",
          "type": "address"
        }
      ],
      "name": "revokeApprove",
      "outputs": [],
      "stateMutability": "nonpayable",
      "type": "function"
    },
    {
      "inputs": [
        {
          "internalType": "address",
          "name": "returnAsset",
          "type": "address"
        },
        {
          "internalType": "uint256",
          "name": "amount",
          "type": "uint256"
        },
        {
          "internalType": "address",
          "name": "sender",
          "type": "address"
        },
        {
          "internalType": "bytes",
          "name": "data",
          "type": "bytes"
        }
      ],
      "name": "stableunitFillOrderCallback",
      "outputs": [
        {
          "internalType": "bool",
          "name": "",
          "type": "bool"
        }
      ],
      "stateMutability": "nonpayable",
      "type": "function"
    },
    {
      "inputs": [
        {
          "internalType": "uint256",
          "name": "amount",
          "type": "uint256"
        },
        {
          "internalType": "uint256",
          "name": "unlockTime",
          "type": "uint256"
        }
      ],
      "name": "stakeTokens",
      "outputs": [],
      "stateMutability": "nonpayable",
      "type": "function"
    },
    {
      "inputs": [],
      "name": "subscribeInTopStaker",
      "outputs": [],
      "stateMutability": "nonpayable",
      "type": "function"
    },
    {
      "inputs": [
        {
          "internalType": "address",
          "name": "",
          "type": "address"
        },
        {
          "components": [
            {
              "internalType": "address",
              "name": "srcToken",
              "type": "address"
            },
            {
              "internalType": "address",
              "name": "dstToken",
              "type": "address"
            },
            {
              "internalType": "address",
              "name": "srcReceiver",
              "type": "address"
            },
            {
              "internalType": "address",
              "name": "dstReceiver",
              "type": "address"
            },
            {
              "internalType": "uint256",
              "name": "amount",
              "type": "uint256"
            },
            {
              "internalType": "uint256",
              "name": "minReturnAmount",
              "type": "uint256"
            },
            {
              "internalType": "uint256",
              "name": "flags",
              "type": "uint256"
            }
          ],
          "internalType": "struct SwapDescription",
          "name": "",
          "type": "tuple"
        },
        {
          "internalType": "bytes",
          "name": "",
          "type": "bytes"
        },
        {
          "internalType": "bytes",
          "name": "",
          "type": "bytes"
        }
      ],
      "name": "swap",
      "outputs": [],
      "stateMutability": "pure",
      "type": "function"
    },
    {
      "inputs": [
        {
          "internalType": "uint256",
          "name": "orderId",
          "type": "uint256"
        },
        {
          "internalType": "uint256",
          "name": "token2sellAmount",
          "type": "uint256"
        },
        {
          "internalType": "uint256",
          "name": "minProfitPercent",
          "type": "uint256"
        },
        {
          "internalType": "uint256",
          "name": "minUnwrapSlippage",
          "type": "uint256"
        },
        {
          "components": [
            {
              "internalType": "address",
              "name": "contractAddress",
              "type": "address"
            },
            {
              "internalType": "bytes",
              "name": "data",
              "type": "bytes"
            },
            {
              "internalType": "address",
              "name": "token",
              "type": "address"
            }
          ],
          "internalType": "struct InchData[]",
          "name": "inchData",
          "type": "tuple[]"
        }
      ],
      "name": "swapLPWithFlashLoan",
      "outputs": [],
      "stateMutability": "nonpayable",
      "type": "function"
    },
    {
      "inputs": [
        {
          "internalType": "uint256",
          "name": "orderId",
          "type": "uint256"
        },
        {
          "internalType": "uint256",
          "name": "token2sellAmount",
          "type": "uint256"
        },
        {
          "internalType": "uint256",
          "name": "minProfitPercent",
          "type": "uint256"
        },
        {
          "components": [
            {
              "internalType": "address",
              "name": "contractAddress",
              "type": "address"
            },
            {
              "internalType": "bytes",
              "name": "data",
              "type": "bytes"
            },
            {
              "internalType": "address",
              "name": "token",
              "type": "address"
            }
          ],
          "internalType": "struct InchData",
          "name": "inchData",
          "type": "tuple"
        }
      ],
      "name": "swapWithFlashLoan",
      "outputs": [],
      "stateMutability": "nonpayable",
      "type": "function"
    },
    {
      "inputs": [
        {
          "internalType": "address",
          "name": "newOwner",
          "type": "address"
        }
      ],
      "name": "transferOwnership",
      "outputs": [],
      "stateMutability": "nonpayable",
      "type": "function"
    },
    {
      "inputs": [
        {
          "internalType": "uint256",
          "name": "",
          "type": "uint256"
        },
        {
          "internalType": "uint256",
          "name": "",
          "type": "uint256"
        },
        {
          "internalType": "uint256[]",
          "name": "",
          "type": "uint256[]"
        }
      ],
      "name": "uniswapV3Swap",
      "outputs": [],
      "stateMutability": "pure",
      "type": "function"
    },
    {
      "inputs": [
        {
          "internalType": "address",
          "name": "",
          "type": "address"
        },
        {
          "internalType": "uint256",
          "name": "",
          "type": "uint256"
        },
        {
          "internalType": "uint256",
          "name": "",
          "type": "uint256"
        },
        {
          "internalType": "uint256[]",
          "name": "",
          "type": "uint256[]"
        }
      ],
      "name": "unoswap",
      "outputs": [],
      "stateMutability": "pure",
      "type": "function"
    },
    {
      "inputs": [],
      "name": "unsubscribeFromTopStaker",
      "outputs": [],
      "stateMutability": "nonpayable",
      "type": "function"
    }
  ],
  "numDeployments": 1,
  "solcInputHash": "4b662494c2d36519e2003da4fb264050",
  "bytecode": "0x608080604052346100c1576000549060ff8260081c1661006f575060ff80821603610034575b60405161261a90816100c78239f35b60ff90811916176000557f7f26b83ff96e1f2b6a682f133852f6798a09c465da95921460cefb3847402498602060405160ff8152a138610025565b62461bcd60e51b815260206004820152602760248201527f496e697469616c697a61626c653a20636f6e747261637420697320696e697469604482015266616c697a696e6760c81b6064820152608490fd5b600080fdfe6080604052600436101561001257600080fd5b600060e08135811c9081630502b1c5146116695781630da291f91461160d57816312aa3caf146115a65781631e6113061461154e5781633b7b6188146114ea5781634d77406e1461132c5781634dec53e0146112f05781636a2f53c214610b12578163715018a614610ac657816384bd6d2914610a995781638da5cb5b14610a70578163943a0f13146108ac57816396238d2d146106f757508063cda502e1146106a1578063d65a3a2e1461052d578063e449022e146104f3578063e63ea40814610463578063e75c0f2d146103d5578063f2fde38b14610344578063f3ff955a146102be5763f8c8765e1461010757600080fd5b346102bb5760803660031901126102bb576101206116a3565b6101286116cf565b906101316116b9565b906064356001600160a01b0381811692918390036102b65785549360ff8560081c1615948580966102a9575b8015610292575b156102365760ff198116600117885585610225575b5061019360ff885460081c1661018e81611a3f565b611a3f565b61019c33611a08565b818754966101b360ff8960081c1661018e81611a3f565b60016065558160018060a01b031995168560975416176097551683609954161760995516816098541617609855609a541617609a556101f0575080f35b61ff00191681557f7f26b83ff96e1f2b6a682f133852f6798a09c465da95921460cefb3847402498602060405160018152a180f35b61ffff191661010117875538610179565b60405162461bcd60e51b815260206004820152602e60248201527f496e697469616c697a61626c653a20636f6e747261637420697320616c72656160448201526d191e481a5b9a5d1a585b1a5e995960921b6064820152608490fd5b50303b1580156101645750600160ff821614610164565b50600160ff82161061015d565b600080fd5b80fd5b50346102bb5760203660031901126102bb57806102d96116a3565b6102e16119b0565b6098546001600160a01b039081169190823b1561033f57602484928360405195869485936317066a5760e21b85521660048401525af18015610334576103245750f35b61032d9061179e565b6102bb5780f35b6040513d84823e3d90fd5b505050fd5b50346102bb5760203660031901126102bb5761035e6116a3565b6103666119b0565b6001600160a01b038116156103815761037e90611a08565b80f35b60405162461bcd60e51b815260206004820152602660248201527f4f776e61626c653a206e6577206f776e657220697320746865207a65726f206160448201526564647265737360d01b6064820152608490fd5b50346102bb5760203660031901126102bb576103ef6119b0565b80602061042660018060a01b038060995416906098541660405194858094819363095ea7b360e01b83526004359060048401611ab9565b03925af1801561033457610438575080f35b6104589060203d811161045c575b610450818361181e565b810190611ad4565b5080f35b503d610446565b50346102bb5760603660031901126102bb5761047d6116a3565b6104856116cf565b604435916104916119b0565b6001600160a01b038281169390919084156104e1576104d7817ff24ef89f38eadc1bde50701ad6e4d6d11a2dc24f7cf834a486991f388332850494602094169586611f55565b604051908152a380f35b60405163d27b444360e01b8152600490fd5b50346102bb5760603660031901126102bb576044356001600160401b038111610529576105249036906004016116f9565b505080f35b5080fd5b50346102bb5760403660031901126102bb576105476116a3565b61054f6116cf565b906105586119b0565b604051636eb1769f60e11b81526001600160a01b0391821692906020908590828180610588873060048401611a9f565b0381895afa908115610334578291610670575b506105cc575b505016907f97a94ee714dc2c5c1889f6fe8e8909a95e0307c4b272c7df374bf76582099f878380a380f35b61060d57610606906040519063095ea7b360e01b908201528383166024820152600060448201526044815261060081611803565b84611aec565b38846105a1565b6084906040519062461bcd60e51b82526004820152603660248201527f5361666545524332303a20617070726f76652066726f6d206e6f6e2d7a65726f60448201527520746f206e6f6e2d7a65726f20616c6c6f77616e636560501b6064820152fd5b809250838092503d831161069a575b610689818361181e565b810103126102b6578590513861059b565b503d61067f565b50346102bb57806003193601126102bb576106ba6119b0565b609a5481906001600160a01b0316803b156106f457818091600460405180948193633f2b912160e21b83525af18015610334576103245750f35b50fd5b9050346105295760a0366003190112610529576044359060243590600435906084356001600160401b0381116108a857610735903690600401611930565b9161073e6119b0565b8415801561089d575b61088b5760018060a01b0393868560975416926040519463d09ef24160e01b8652816004870152610100908187602481895afa9889156108805761080e996107e3986107f1948792610853575b5050511697604051916107a6836117b1565b6001835260209b8c9a868c8601526040850152876060850152608084015260643560a08401523360c0840152820152604051968791898301611d87565b03601f19810187528661181e565b604051637176836f60e11b81529687958694859360048501611e72565b03925af1801561084857610820578280f35b813d8311610841575b610833818361181e565b810103126102b65738808280f35b503d610829565b6040513d85823e3d90fd5b6108729250803d10610879575b61086a818361181e565b810190611cb3565b3880610794565b503d610860565b6040513d86823e3d90fd5b6040516363358a5760e01b8152600490fd5b506127108511610747565b8580fd5b82346102bb5760403660031901126102bb576108c66116a3565b6108ce6116cf565b6108d66119b0565b6001600160a01b03918216808452609b6020908152604080862080546001600160a01b031916958516958617905551636eb1769f60e11b81529192909190829082908190610928903060048401611a9f565b0381865afa908115610a65578591610a38575b5060001990600101610971575b50507fd10f56385a196925f272a951681f1d659519962e5e8a1ba95c6d0c0916ac89338380a380f35b6040519060008084840163095ea7b360e01b9384825288602487015260448601526044855261099f85611803565b84519082885af16109ae611bd2565b81610a08575b50806109fe575b156109c7575b50610948565b6109f6926109f09160405191820152856024820152600060448201526044815261060081611803565b82611aec565b8380806109c1565b50833b15156109bb565b80518015925085908315610a20575b505050876109b4565b610a309350820181019101611ad4565b878481610a17565b90508181813d8311610a5e575b610a4f818361181e565b810103126102b657518561093b565b503d610a45565b6040513d87823e3d90fd5b82346102bb57806003193601126102bb576033546040516001600160a01b039091168152602090f35b82346102bb576101003660031901126102bb57610ab46116a3565b50610abd6116cf565b506104586116b9565b82346102bb57806003193601126102bb57610adf6119b0565b603380546001600160a01b031981169091556000906001600160a01b03166000805160206125c58339815191528280a380f35b82346102bb5760803660031901126102bb57610b2c6116a3565b91610b356116b9565b906064356001600160401b0381116112ec57610b55903690600401611729565b6002606596929654146112a75760026065558501946020818703126112a3578035906001600160401b0382116108a857016101009384828803126108a8576040519485016001600160401b0381118682101761117a576040528135801515810361119857855260208201356020860152610bd1604083016116e5565b604086019081526060860197606084013589526080840135608088015260a087019360a08101358552610c0660c082016116e5565b60c089015280870135906001600160401b03821161119457610c29929101611930565b868601525196516097546001600160a01b039889169891929116330361128b576001600160a01b031630810361127357506040516370a0823160e01b8152306004820152966020886024816001600160a01b0388165afa978815611268578798611234575b508551156111f657808752609b60205260408720546001600160a01b0316156111de57808752609b60205286602060018060a01b03604083205416602460405180948193635136211760e01b83528760048401525af19081156111d35788916111b4575b501561119c579060648288938452609b6020528360018060a01b036040822054169551956040519687958694635ae2fb3960e11b86526004860152602485015260448401525af1908115610a6557859161108d575b508284015151815191865b8361ffff82161015610f54576001600160a01b03610d7461ffff831684611d73565b5151166020610d8761ffff841685611d73565b5101516001600160a01b0387168203610dab575b5050610da690611e8e565b610d52565b848603610e715790610e0d9160018060a01b03610dcf61ffff86168b8d0151611d73565b515116918b6020610de88d8d61ffff8a16910151611d73565b51015160405180968192630f30898360e11b8352604060048401526044830190611779565b8560248301520381305afa938415610e665791610e3a9391610da69695938e8095610e41575b5050611f91565b908a610d9b565b610e5e9295503d8091833e610e56818361181e565b810190611eb7565b928f8e610e33565b6040513d8e823e3d90fd5b9693989990958a989592985b8a61ffff82161015610f41576001600160a01b03610e9f61ffff8c1687611d73565b51511660018060a01b036040610ebc61ffff85168a8c0151611d73565b5101511614610ed357610ece90611e8e565b610e7d565b90969785988c6020610de8610f10969f9e999a809e989b61ffff60018060a01b03610f03828b1684860151611d73565b5151169816910151611d73565b8560248301520381305afa938415610e665791610f3c9391610da69695938e8095610e41575050611f91565b610e3a565b50955098979295509295610da690610e3a565b505050509390509190915b6040516370a0823160e01b8152306004820152916020836024816001600160a01b0389165afa908115611081579061104d575b610f9c9250611f15565b916024359283811061102f5783610fb291611f15565b91612710610fc4608083015186611f22565b04808410611011575060975461100194610feb916001600160a01b03908116908516611f55565b60c001516001600160a01b039081169116611f55565b6001606555602060405160018152f35b604490846040519163bc7857df60e01b835260048301526024820152fd5b836044916040519163bc7857df60e01b835260048301526024820152fd5b506020823d602011611079575b816110676020938361181e565b810103126102b657610f9c9151610f92565b3d915061105a565b604051903d90823e3d90fd5b90503d8086833e61109e818361181e565b60208282810103126108a8578151906001600160401b03821161119857808301601f8385010112156111985781830151906110d882611919565b936110e6604051958661181e565b828552602085019382820160208560061b8385010101116111945793602085830101945b60208560061b828501010186106111275750505050505086610d47565b60408685850103126111905760408051929083018084116001600160401b039091111761117a576020604091848383960184526111638a611c9f565b8152828a015183820152815201960195915061110a565b634e487b7160e01b600052604160045260246000fd5b8a80fd5b8980fd5b8680fd5b602490604051906325eadd2560e01b82526004820152fd5b6111cd915060203d60201161045c57610450818361181e565b89610cf2565b6040513d8a823e3d90fd5b60249060405190637d250b0b60e11b82526004820152fd5b91509261122f929693602061122660018060a09a999a1b0361121a858b0151611d50565b51511693890151611d50565b51015192611f91565b610f5f565b9097506020813d602011611260575b816112506020938361181e565b810103126102b657519688610c8e565b3d9150611243565b6040513d89823e3d90fd5b60249060405190637d85130d60e11b82526004820152fd5b60405163e372835960e01b8152336004820152602490fd5b8480fd5b60405162461bcd60e51b815260206004820152601f60248201527f5265656e7472616e637947756172643a207265656e7472616e742063616c6c006044820152606490fd5b8380fd5b82346102bb5760203660031901126102bb576020906001600160a01b03906040908261131a6116a3565b168152609b8452205416604051908152f35b82346102bb5760803660031901126102bb5760043591602435916001600160401b0391604435906064358481116112ec5761136b9036906004016118b1565b946113746119b0565b821580156114df575b61088b5760975460405163d09ef24160e01b815260048101899052610100986001600160a01b0392831694909290918a81602481895afa9a8b156111d357889b6114c0575b5050604051996113d18b6117e8565b60018b52875b6020811015611415576040519060608201918083108c84111761117a576020828f82956040528d84526060838501528d6040850152010152016113d7565b506107e3936107f161148697948d97948b948e6114318b611d50565b5261143b8a611d50565b505116976040519161144c836117b1565b85835260209b8c9a868c860152604085015287606085015260808401528560a08401523360c0840152820152604051968791898301611d87565b03925af1801561084857611498578280f35b813d83116114b9575b6114ab818361181e565b810103126102b65781808280f35b503d6114a1565b6114d7929b50803d106108795761086a818361181e565b988a806113c2565b50612710831161137d565b82346102bb5760403660031901126102bb576115046119b0565b60985481906001600160a01b0316803b156106f457818091604460405180948193635a9602ff60e11b8352600435600484015260243560248401525af18015610334576103245750f35b82346102bb5760403660031901126102bb57600435906001600160401b0382116102bb576115a261158e6115853660048601611729565b6024359161211c565b604051918291602083526020830190611779565b0390f35b90503461052957610140366003190112610529576115c26116a3565b503660231901126102bb576001600160401b0361010435818111611609576115ee903690600401611729565b50506101243590811161052957610524903690600401611729565b8280fd5b82346102bb57806003193601126102bb576116266119b0565b609a5481906001600160a01b0316803b156106f4578190600460405180948193638f449a0560e01b83525af1801561033457611660575080f35b61037e9061179e565b82346102bb5760803660031901126102bb576116836116a3565b506064356001600160401b038111610529576105249036906004016116f9565b600435906001600160a01b03821682036102b657565b604435906001600160a01b03821682036102b657565b602435906001600160a01b03821682036102b657565b35906001600160a01b03821682036102b657565b9181601f840112156102b6578235916001600160401b0383116102b6576020808501948460051b0101116102b657565b9181601f840112156102b6578235916001600160401b0383116102b657602083818601950101116102b657565b60005b8381106117695750506000910152565b8181015183820152602001611759565b9060209161179281518092818552858086019101611756565b601f01601f1916010190565b6001600160401b03811161117a57604052565b61010081019081106001600160401b0382111761117a57604052565b60e081019081106001600160401b0382111761117a57604052565b604081019081106001600160401b0382111761117a57604052565b608081019081106001600160401b0382111761117a57604052565b601f909101601f19168101906001600160401b0382119082101761117a57604052565b6001600160401b03811161117a57601f01601f191660200190565b92919261186882611841565b91611876604051938461181e565b8294818452818301116102b6578281602093846000960137010152565b9080601f830112156102b6578160206118ae9335910161185c565b90565b9190916060818403126102b657604051906001600160401b03606083018181118482101761117a5760405282946118e7836116e5565b845260208301359182116102b657826119096040949261191494869401611893565b6020860152016116e5565b910152565b6001600160401b03811161117a5760051b60200190565b9080601f830112156102b65781359061194882611919565b92611956604051948561181e565b828452602092838086019160051b830101928084116102b657848301915b8483106119845750505050505090565b82356001600160401b0381116102b65786916119a5848480948901016118b1565b815201920191611974565b6033546001600160a01b031633036119c457565b606460405162461bcd60e51b815260206004820152602060248201527f4f776e61626c653a2063616c6c6572206973206e6f7420746865206f776e65726044820152fd5b603380546001600160a01b039283166001600160a01b0319821681179092559091166000805160206125c5833981519152600080a3565b15611a4657565b60405162461bcd60e51b815260206004820152602b60248201527f496e697469616c697a61626c653a20636f6e7472616374206973206e6f74206960448201526a6e697469616c697a696e6760a81b6064820152608490fd5b6001600160a01b0391821681529116602082015260400190565b6001600160a01b039091168152602081019190915260400190565b908160209103126102b6575180151581036102b65790565b604051611b4a916001600160a01b0316611b05826117e8565b6000806020958685527f5361666545524332303a206c6f772d6c6576656c2063616c6c206661696c656487860152868151910182855af1611b44611bd2565b91611c02565b805190828215928315611bba575b50505015611b635750565b6084906040519062461bcd60e51b82526004820152602a60248201527f5361666545524332303a204552433230206f7065726174696f6e20646964206e6044820152691bdd081cdd58d8d9595960b21b6064820152fd5b611bca9350820181019101611ad4565b388281611b58565b3d15611bfd573d90611be382611841565b91611bf1604051938461181e565b82523d6000602084013e565b606090565b91929015611c645750815115611c16575090565b3b15611c1f5790565b60405162461bcd60e51b815260206004820152601d60248201527f416464726573733a2063616c6c20746f206e6f6e2d636f6e74726163740000006044820152606490fd5b825190915015611c775750805190602001fd5b60405162461bcd60e51b815260206004820152908190611c9b906024830190611779565b0390fd5b51906001600160a01b03821682036102b657565b90816101009103126102b65760405190611ccc826117b1565b611cd581611c9f565b8252611ce360208201611c9f565b6020830152611cf460408201611c9f565b6040830152611d0560608201611c9f565b60608301526080818101519083015260a0808201519083015260c0810151906001600160401b03821682036102b65760e09160c0840152015160ff811681036102b65760e082015290565b805115611d5d5760200190565b634e487b7160e01b600052603260045260246000fd5b8051821015611d5d5760209160051b010190565b6020808252610120820190835115158184015280840151926040938482015260018060a01b039360e08582880151169660609788850152878101516080850152608081015160a085015260a081015160c08501528660c082015116828501520151956101008084015286518095526101409184838501938760051b8601019801966000945b878610611e1f5750505050505050505090565b909192939495969798878060019261013f198582030189528c5190868251168152878781611e58868601518d888701528d860190611779565b940151169101529b01960196019497969593929190611e0c565b6118ae9392606092825260208201528160408201520190611779565b61ffff809116908114611ea15760010190565b634e487b7160e01b600052601160045260246000fd5b6020818303126102b6578051906001600160401b0382116102b6570181601f820112156102b6578051611ee981611841565b92611ef7604051948561181e565b818452602082840101116102b6576118ae9160208085019101611756565b91908203918211611ea157565b81810292918115918404141715611ea157565b8115611f3f570490565b634e487b7160e01b600052601260045260246000fd5b611f8a611f8f9392611f7c60405194859263a9059cbb60e01b602085015260248401611ab9565b03601f19810184528361181e565b611aec565b565b92909160018060a01b03809416926040516020810194611fc482611f7c63095ea7b360e01b95868a528760248401611ab9565b6000968780809885519082865af1611fda611bd2565b8161205b575b5080612051575b1561201d575b5050505082602083519301915af1612003611bd2565b501561200b57565b604051635aa0560760e11b8152600490fd5b61204893611f8a9160405191602083015286166024820152876044820152604481526109f081611803565b38808080611fed565b50813b1515611fe7565b8051801592508215612070575b505038611fe0565b6120839250602080918301019101611ad4565b3880612068565b81601f820112156102b6578035916120a183611919565b926120af604051948561181e565b808452602092838086019260051b8201019283116102b6578301905b8282106120d9575050505090565b813581529083019083016120cb565b90815180825260208080930193019160005b828110612108575050505090565b8351855293810193928101926001016120fa565b90600481811193846102b65783356001600160e01b03191694637224811760e11b8087146125325750630502b1c560e01b86811461248457506312aa3caf60e01b8614612272576384bd6d2960e01b958614612181575050506118ae9250369161185c565b93929091936102b65761010090830183900360031901126102b6576121a78383016116e5565b906121b4602484016116e5565b6121c0604485016116e5565b60648501358015612269576121e2906121dd856084890135611f22565b611f35565b935b60405197602089015260018060a01b03928380921660248a0152166044880152166064860152608485015260a484015260a481013560c484015260c481013560e484015260e461010491013581840152825261014082019082821060018060401b03831117612254575060405290565b604190634e487b7160e01b6000525260246000fd5b506001936121e4565b9094509190916102b6578201828103916101406003198401126102b65760e061229c8286016116e5565b9360231901126102b657604051906122b3826117cd565b6122bf602486016116e5565b82526122cd604486016116e5565b602083019081526122e0606487016116e5565b90604084019182526122f4608488016116e5565b9360608101948552608081019860a48901358a5260a082019560c48a0135875260c083019060e48b013582526101048b01359560018060401b03968781116102b6578a89612344928f0101611893565b966101248d01359081116102b6576123bc9d61236f61246b9c6118ae9f9b88946124589d0101611893565b8151909b90156124795761238f926123879151611f22565b905190611f35565b945b5195519051915192516040519d90966001600160a01b0394851694938416939283169216908e6117cd565b8d526020808e019182526040808f0193845260608f0194855260808f0195865260a08f0196875260c08f01978852516312aa3caf60e01b918101919091526001600160a01b039b8c1660248201529c518b1660448e0152518a1660648d015251891660848c01525190971660a48a0152955160c4890152945160e488015293516101048701526101406101248701528593610164850190611779565b8381036023190161014485015290611779565b03601f19810183528261181e565b505050600194612391565b939195509391936102b657810190608081830360031901126102b6576124ab8482016116e5565b9460648201359460248301356001600160401b0387116102b6576124da61246b9584936118ae9987010161208a565b938115612527576124f29260446121dd920135611f22565b905b604051968795602087015260018060a01b03166024860152604485015260648401526080608484015260a48301906120e8565b5050506001906124f4565b94919550506000928101606060031983830301126112ec57818301359260448301356001600160401b0381116108a8579261257b889361246b96936118ae99989684010161208a565b935081156125ba576125949260246121dd920135611f22565b6040519586946020860152602485015260448401526060606484015260848301906120e8565b505050600161259456fe8be0079c531659141344cd1fd0a4f28419497f9722a3daafe3b4186f6b6457e0a264697066735822122049bb31666cd1d18886b40dcc1cab85c457a869cdfcab88bc3e5141086cc4472a64736f6c63430008110033",
  "devdoc": {
    "details": "See IArbitrageHelper interface for full details.",
    "kind": "dev",
    "methods": {
      "changeCalldataAmount(bytes,uint256)": {
        "params": {
          "data": "- calldata to edit",
          "newAmount": "- new amount that should replace amount in {data}"
        },
        "returns": {
          "_0": "edited calldata with new amount inside*"
        }
      },
      "constructor": {
        "custom:oz-upgrades-unsafe-allow": "constructor"
      },
      "owner()": {
        "details": "Returns the address of the current owner."
      },
      "renounceOwnership()": {
        "details": "Leaves the contract without owner. It will not be possible to call `onlyOwner` functions. Can only be called by the current owner. NOTE: Renouncing ownership will leave the contract without an owner, thereby disabling any functionality that is only available to the owner."
      },
      "stableunitFillOrderCallback(address,uint256,address,bytes)": {
        "details": "behaviour like in uniswapV3FlashCallback: https://docs.uniswap.org/contracts/v3/guides/flash-integrations/flash-callback and AAVE flash-loan callback: https://github.com/aave/aave-v3-core/blob/master/contracts/flashloan/interfaces/IFlashLoanSimpleReceiver.sol*"
      },
      "swapLPWithFlashLoan(uint256,uint256,uint256,uint256,(address,bytes,address)[])": {
        "details": "Contract receive LP-token from exchange module, unwrap it and swap with 1inch all underline tokens to token that exchange module need.- minProfitPercent must be > 0 and <= 10000 (100%)      - Transaction reverts if actual profit is less than minProfitPercent of the flash loan amount      - Higher minProfitPercent provides better protection against sandwich attacks        but may result in fewer successful arbitrages*",
        "params": {
          "inchData": "- 1inch callData and contract array to swap every underline token of LP",
          "minProfitPercent": "Minimum required profit in basis points (1 bp = 0.01%)",
          "minUnwrapSlippage": "Minimum slippage to unwrap LP, in basis points (1 bp = 0.01%)",
          "orderId": "- Id of order in Exchange module to fill",
          "token2sellAmount": "- Amount of token in order to get as flash-loan"
        }
      },
      "swapWithFlashLoan(uint256,uint256,uint256,(address,bytes,address))": {
        "details": "Contract receive loan from exchange module, sell it on 1inch and get profit = received amount - fee- minProfitPercent must be > 0 and <= 10000 (100%)      - Transaction reverts if actual profit is less than minProfitPercent of the flash loan amount      - Higher minProfitPercent provides better protection against sandwich attacks        but may result in fewer successful arbitrages*",
        "params": {
          "inchData": "- 1inch callData and contract to swap loan",
          "minProfitPercent": "Minimum required profit in basis points (1 bp = 0.01%)",
          "orderId": "- Id of order in Exchange module to fill",
          "token2sellAmount": "- Amount of token in order to get as flash-loan"
        }
      },
      "transferOwnership(address)": {
        "details": "Transfers ownership of the contract to a new account (`newOwner`). Can only be called by the current owner."
      }
    },
    "title": "ArbitrageHelper",
    "version": 1
  },
  "userdoc": {
    "kind": "user",
    "methods": {
      "approveToVeToken(uint256)": {
        "notice": "Before stake we need to approve veToken contract to use our Governance tokens*"
      },
      "changeCalldataAmount(bytes,uint256)": {
        "notice": "Helper function to change amount parameter on callback that depends on return by 1inch API calldata for swap. We also change minAmount proportionally to newAmount. Route path don't depend on that - this path was calculated previously in backend part and is stored in {data}."
      },
      "delegateVotingPower(address)": {
        "notice": "Delegate voting power to another contract or user*"
      },
      "emergencyWithdraw(address,address,uint256)": {
        "notice": "Emergency withdraw in case contract have some tokens, that can be transferred by default functions*"
      },
      "stableunitFillOrderCallback(address,uint256,address,bytes)": {
        "notice": "This is callback function from Exchange contract. fillOrderAsFlashLoan call (msg.sender).executeOperation(...) after transferring loan to sender"
      },
      "stakeTokens(uint256,uint256)": {
        "notice": "We stake Governance token from contract to receive voting power to make a contract be able to be a top-staker.*"
      },
      "subscribeInTopStaker()": {
        "notice": "Subscribe contract to be a staker in TopStaker contract*"
      },
      "swapLPWithFlashLoan(uint256,uint256,uint256,uint256,(address,bytes,address)[])": {
        "notice": "The same as swapWithFlashLoan, but loan is LP-token that we need to unwrap"
      },
      "swapWithFlashLoan(uint256,uint256,uint256,(address,bytes,address))": {
        "notice": "Reference implementation of Arbitrage bot contract, that use Exchange module to get profit"
      },
      "uniswapV3Swap(uint256,uint256,uint256[])": {
        "notice": "We need this functions to check their selector and functionSelector in calldata for changeCalldataAmount() function*"
      },
      "unsubscribeFromTopStaker()": {
        "notice": "Unsubscribe contract from stakers list in TopStaker contract*"
      }
    },
    "notice": "Helper contract to arbitrage using Exchange module. This is reference implementation that is enough to start arbitrage in Exchange Module. Anyone can update the code and deploy own ArbitrageHelper.",
    "version": 1
  },
  "storageLayout": {
    "storage": [
      {
        "astId": 1226,
        "contract": "contracts/stableunit-exchange/contracts/exchange/ArbitrageHelper.sol:ArbitrageHelper",
        "label": "_initialized",
        "offset": 0,
        "slot": "0",
        "type": "t_uint8"
      },
      {
        "astId": 1229,
        "contract": "contracts/stableunit-exchange/contracts/exchange/ArbitrageHelper.sol:ArbitrageHelper",
        "label": "_initializing",
        "offset": 1,
        "slot": "0",
        "type": "t_bool"
      },
      {
        "astId": 1853,
        "contract": "contracts/stableunit-exchange/contracts/exchange/ArbitrageHelper.sol:ArbitrageHelper",
        "label": "__gap",
        "offset": 0,
        "slot": "1",
        "type": "t_array(t_uint256)50_storage"
      },
      {
        "astId": 1098,
        "contract": "contracts/stableunit-exchange/contracts/exchange/ArbitrageHelper.sol:ArbitrageHelper",
        "label": "_owner",
        "offset": 0,
        "slot": "51",
        "type": "t_address"
      },
      {
        "astId": 1218,
        "contract": "contracts/stableunit-exchange/contracts/exchange/ArbitrageHelper.sol:ArbitrageHelper",
        "label": "__gap",
        "offset": 0,
        "slot": "52",
        "type": "t_array(t_uint256)49_storage"
      },
      {
        "astId": 1403,
        "contract": "contracts/stableunit-exchange/contracts/exchange/ArbitrageHelper.sol:ArbitrageHelper",
        "label": "_status",
        "offset": 0,
        "slot": "101",
        "type": "t_uint256"
      },
      {
        "astId": 1472,
        "contract": "contracts/stableunit-exchange/contracts/exchange/ArbitrageHelper.sol:ArbitrageHelper",
        "label": "__gap",
        "offset": 0,
        "slot": "102",
        "type": "t_array(t_uint256)49_storage"
      },
      {
        "astId": 15200,
        "contract": "contracts/stableunit-exchange/contracts/exchange/ArbitrageHelper.sol:ArbitrageHelper",
        "label": "EXCHANGE",
        "offset": 0,
        "slot": "151",
        "type": "t_contract(IExchange)18074"
      },
      {
        "astId": 15203,
        "contract": "contracts/stableunit-exchange/contracts/exchange/ArbitrageHelper.sol:ArbitrageHelper",
        "label": "VE_GOV",
        "offset": 0,
        "slot": "152",
        "type": "t_contract(IVotingEscrow)18292"
      },
      {
        "astId": 15206,
        "contract": "contracts/stableunit-exchange/contracts/exchange/ArbitrageHelper.sol:ArbitrageHelper",
        "label": "GOV",
        "offset": 0,
        "slot": "153",
        "type": "t_contract(IERC20)4205"
      },
      {
        "astId": 15209,
        "contract": "contracts/stableunit-exchange/contracts/exchange/ArbitrageHelper.sol:ArbitrageHelper",
        "label": "TOP_STAKERS",
        "offset": 0,
        "slot": "154",
        "type": "t_contract(ITopStakers)18228"
      },
      {
        "astId": 15214,
        "contract": "contracts/stableunit-exchange/contracts/exchange/ArbitrageHelper.sol:ArbitrageHelper",
        "label": "lpToAdapter",
        "offset": 0,
        "slot": "155",
        "type": "t_mapping(t_address,t_contract(ILPAdapter)24129)"
      },
      {
        "astId": 15968,
        "contract": "contracts/stableunit-exchange/contracts/exchange/ArbitrageHelper.sol:ArbitrageHelper",
        "label": "__gap",
        "offset": 0,
        "slot": "156",
        "type": "t_array(t_uint256)50_storage"
      }
    ],
    "types": {
      "t_address": {
        "encoding": "inplace",
        "label": "address",
        "numberOfBytes": "20"
      },
      "t_array(t_uint256)49_storage": {
        "base": "t_uint256",
        "encoding": "inplace",
        "label": "uint256[49]",
        "numberOfBytes": "1568"
      },
      "t_array(t_uint256)50_storage": {
        "base": "t_uint256",
        "encoding": "inplace",
        "label": "uint256[50]",
        "numberOfBytes": "1600"
      },
      "t_bool": {
        "encoding": "inplace",
        "label": "bool",
        "numberOfBytes": "1"
      },
      "t_contract(IERC20)4205": {
        "encoding": "inplace",
        "label": "contract IERC20",
        "numberOfBytes": "20"
      },
      "t_contract(IExchange)18074": {
        "encoding": "inplace",
        "label": "contract IExchange",
        "numberOfBytes": "20"
      },
      "t_contract(ILPAdapter)24129": {
        "encoding": "inplace",
        "label": "contract ILPAdapter",
        "numberOfBytes": "20"
      },
      "t_contract(ITopStakers)18228": {
        "encoding": "inplace",
        "label": "contract ITopStakers",
        "numberOfBytes": "20"
      },
      "t_contract(IVotingEscrow)18292": {
        "encoding": "inplace",
        "label": "contract IVotingEscrow",
        "numberOfBytes": "20"
      },
      "t_mapping(t_address,t_contract(ILPAdapter)24129)": {
        "encoding": "mapping",
        "key": "t_address",
        "label": "mapping(address => contract ILPAdapter)",
        "numberOfBytes": "32",
        "value": "t_contract(ILPAdapter)24129"
      },
      "t_uint256": {
        "encoding": "inplace",
        "label": "uint256",
        "numberOfBytes": "32"
      },
      "t_uint8": {
        "encoding": "inplace",
        "label": "uint8",
        "numberOfBytes": "1"
      }
    }
  }
}