{
  "address": "0xeF7EDb2c905b6e5432a889b0ed3639a566D89695",
  "abi": [
    {
      "inputs": [
        {
          "internalType": "address",
          "name": "asset",
          "type": "address"
        }
      ],
      "name": "AlreadyRegistered",
      "type": "error"
    },
    {
      "inputs": [],
      "name": "BadAccessControlSingleton",
      "type": "error"
    },
    {
      "inputs": [
        {
          "internalType": "address",
          "name": "asset",
          "type": "address"
        }
      ],
      "name": "IsNotLP",
      "type": "error"
    },
    {
      "inputs": [],
      "name": "LPOracleNotReady",
      "type": "error"
    },
    {
      "inputs": [],
      "name": "OnlyAdminError",
      "type": "error"
    },
    {
      "inputs": [],
      "name": "OnlyAlerterError",
      "type": "error"
    },
    {
      "inputs": [],
      "name": "OnlyDAOError",
      "type": "error"
    },
    {
      "inputs": [],
      "name": "OnlyLiquidationAccessError",
      "type": "error"
    },
    {
      "inputs": [],
      "name": "OnlyMintAccessError",
      "type": "error"
    },
    {
      "inputs": [],
      "name": "OnlyRewardAccessError",
      "type": "error"
    },
    {
      "inputs": [],
      "name": "OnlyRoleError",
      "type": "error"
    },
    {
      "inputs": [],
      "name": "OnlyVaultAccessError",
      "type": "error"
    },
    {
      "anonymous": false,
      "inputs": [
        {
          "indexed": false,
          "internalType": "uint8",
          "name": "version",
          "type": "uint8"
        }
      ],
      "name": "Initialized",
      "type": "event"
    },
    {
      "inputs": [],
      "name": "ACCESS_CONTROL_SINGLETON",
      "outputs": [
        {
          "internalType": "contract ISuAccessControl",
          "name": "",
          "type": "address"
        }
      ],
      "stateMutability": "view",
      "type": "function"
    },
    {
      "inputs": [],
      "name": "ADAPTER",
      "outputs": [
        {
          "internalType": "address",
          "name": "",
          "type": "address"
        }
      ],
      "stateMutability": "view",
      "type": "function"
    },
    {
      "inputs": [],
      "name": "ADMIN_ROLE",
      "outputs": [
        {
          "internalType": "bytes32",
          "name": "",
          "type": "bytes32"
        }
      ],
      "stateMutability": "view",
      "type": "function"
    },
    {
      "inputs": [],
      "name": "ALERTER_ROLE",
      "outputs": [
        {
          "internalType": "bytes32",
          "name": "",
          "type": "bytes32"
        }
      ],
      "stateMutability": "view",
      "type": "function"
    },
    {
      "inputs": [],
      "name": "DAO_ROLE",
      "outputs": [
        {
          "internalType": "bytes32",
          "name": "",
          "type": "bytes32"
        }
      ],
      "stateMutability": "view",
      "type": "function"
    },
    {
      "inputs": [],
      "name": "LIQUIDATION_ACCESS_ROLE",
      "outputs": [
        {
          "internalType": "bytes32",
          "name": "",
          "type": "bytes32"
        }
      ],
      "stateMutability": "view",
      "type": "function"
    },
    {
      "inputs": [],
      "name": "MINT_ACCESS_ROLE",
      "outputs": [
        {
          "internalType": "bytes32",
          "name": "",
          "type": "bytes32"
        }
      ],
      "stateMutability": "view",
      "type": "function"
    },
    {
      "inputs": [],
      "name": "REWARD_ACCESS_ROLE",
      "outputs": [
        {
          "internalType": "bytes32",
          "name": "",
          "type": "bytes32"
        }
      ],
      "stateMutability": "view",
      "type": "function"
    },
    {
      "inputs": [],
      "name": "SYSTEM_ROLE",
      "outputs": [
        {
          "internalType": "bytes32",
          "name": "",
          "type": "bytes32"
        }
      ],
      "stateMutability": "view",
      "type": "function"
    },
    {
      "inputs": [],
      "name": "VAULT_ACCESS_ROLE",
      "outputs": [
        {
          "internalType": "bytes32",
          "name": "",
          "type": "bytes32"
        }
      ],
      "stateMutability": "view",
      "type": "function"
    },
    {
      "inputs": [
        {
          "internalType": "address",
          "name": "asset",
          "type": "address"
        }
      ],
      "name": "getFiatPrice1e18",
      "outputs": [
        {
          "internalType": "uint256",
          "name": "",
          "type": "uint256"
        }
      ],
      "stateMutability": "view",
      "type": "function"
    },
    {
      "inputs": [
        {
          "internalType": "address",
          "name": "_authControl",
          "type": "address"
        },
        {
          "internalType": "address",
          "name": "_balancerAdapter",
          "type": "address"
        }
      ],
      "name": "initialize",
      "outputs": [],
      "stateMutability": "nonpayable",
      "type": "function"
    },
    {
      "inputs": [
        {
          "internalType": "address",
          "name": "asset",
          "type": "address"
        }
      ],
      "name": "isAdapterLP",
      "outputs": [
        {
          "internalType": "bool",
          "name": "",
          "type": "bool"
        }
      ],
      "stateMutability": "view",
      "type": "function"
    },
    {
      "inputs": [
        {
          "internalType": "address",
          "name": "",
          "type": "address"
        }
      ],
      "name": "lps",
      "outputs": [
        {
          "internalType": "address",
          "name": "",
          "type": "address"
        }
      ],
      "stateMutability": "view",
      "type": "function"
    },
    {
      "inputs": [
        {
          "internalType": "address",
          "name": "lp",
          "type": "address"
        }
      ],
      "name": "registerLP",
      "outputs": [],
      "stateMutability": "nonpayable",
      "type": "function"
    },
    {
      "inputs": [
        {
          "internalType": "bytes4",
          "name": "interfaceId",
          "type": "bytes4"
        }
      ],
      "name": "supportsInterface",
      "outputs": [
        {
          "internalType": "bool",
          "name": "",
          "type": "bool"
        }
      ],
      "stateMutability": "view",
      "type": "function"
    },
    {
      "inputs": [
        {
          "internalType": "address",
          "name": "asset",
          "type": "address"
        },
        {
          "internalType": "uint256",
          "name": "amount",
          "type": "uint256"
        }
      ],
      "name": "withdraw",
      "outputs": [
        {
          "components": [
            {
              "internalType": "address",
              "name": "token",
              "type": "address"
            },
            {
              "internalType": "uint256",
              "name": "amount",
              "type": "uint256"
            }
          ],
          "internalType": "struct WithdrawResult[]",
          "name": "results",
          "type": "tuple[]"
        }
      ],
      "stateMutability": "nonpayable",
      "type": "function"
    }
  ],
  "numDeployments": 2,
  "solcInputHash": "4b4827c185e49f5250e237ecb28af247",
  "bytecode": "0x6080806040523461001657610e87908161001c8239f35b600080fdfe608060408181526004918236101561001657600080fd5b600090813560e01c90816301ffc9a714610cb75750806303ee9f2214610c8b578063121193f014610c6257806314c376dc14610c275780631e96838b14610a68578063438280dd14610a2d578063485cc955146107bc578063513621171461077f57806371d0fb411461074457806375071d2a1461070957806375b238fc146106ee5780638e5313e0146106b3578063b9ac2b3814610606578063d12e7332146105cb578063dc97e84e14610590578063e9c26518146105515763f3fef3a3146100df57600080fd5b3461054e578160031936011261054e576100f7610d4d565b60249081359260018060a01b039283831696878352600197602094898652868986205416801561053a578951988993888501936323b872dd60e01b85523388870152604494308688015283606480980152868d5260a08d019c60018060401b039d8e8282109082111761046d578f52518a9283929083905af1610178610e12565b8161050a575b50156104e457888891868e5180948193632d182be560e21b8352878c840152308d840152308a8401525af180156104da57898993928e926104a7575b50506101e093838c60025416925180968195829463f3fef3a360e01b84528c8401610dcd565b03925af198891561049d57908b9594939291879a610390575b505090919293508799979895949698518888905b61025d575b50505050505081519481860192828752875180945282818801980194915b84831061023d5787890388f35b8551805182168a5284015189850152978101979483019491860191610230565b8887898d8f9d9f9b9e9c9a9b61ffff8616928784101561037d578b926102838584610de8565b51511693846102c5575b5050505050505061ffff8091169081146102b357989a979997989597969589018961020d565b634e487b7160e01b8752601185528587fd5b856102f788976102d9610305948a97610de8565b510151935193849283019663a9059cbb60e01b885233908401610dcd565b03601f198101835282610d68565b51925af1610311610e12565b8161034d575b501561032957868838888d8f8361028d565b505060026114d560f21b9294878b519562461bcd60e51b8752860152840152820152fd5b8051801592508a908315610365575b50505038610317565b6103759350820181019101610da1565b38898161035c565b5050505050509a989a9996959799610212565b91995091929394503d8087843e6103a78184610d68565b82019187818403126104955780519082821161049957019082601f8301121561049557815190808211610483578b51936103e68a8460051b0186610d68565b828552898086019360061b8501019381851161047f57908a8f999897969594939201925b84841061041e5750505050509738806101f9565b909192939495969798508d8483031261047f578d51808f018481118282101761046d578f528e918c9161045087610db9565b81528287015183820152815201930191908e98979695949361040a565b634e487b7160e01b8c5260418a528a8cfd5b8980fd5b634e487b7160e01b8852604186528688fd5b8680fd5b8780fd5b8a513d88823e3d90fd5b915080929493503d83116104d3575b6104c08183610d68565b81010312610495579086908b89386101ba565b503d6104b6565b8c513d8a823e3d90fd5b50505060036229aa2360e91b9294878b519562461bcd60e51b8752860152840152820152fd5b8051801592508b908315610522575b5050503861017e565b6105329350820181019101610da1565b388a81610519565b50508751631e489be560e01b815291820152fd5b80fd5b50903461058c578160031936011261058c57602090517f3b5d4cc60d3ec3516ee8ae083bd60934f6eb2a6c54b1229985c41bfb092b26038152f35b5080fd5b50903461058c578160031936011261058c57602090517f9a9aef7c1247d5fc769b0185c052913e39673da29a880317dfd20ebf86f26a498152f35b50903461058c57602036600319011261058c576020916001600160a01b03908290826105f5610d4d565b168152600185522054169051908152f35b50903461058c57602092836003193601126106af5783610624610d4d565b6002546001600160a01b03918216865260018352848620548551631735856760e31b81529083169481019490945283916024918391165afa9283156106a4578093610672575b505051908152f35b909192508382813d831161069d575b61068b8183610d68565b8101031261054e57505190388061066a565b503d610681565b8251903d90823e3d90fd5b8280fd5b50903461058c578160031936011261058c57602090517fe453bacb314e78dcd5192e6b1a2b1f0e7c76e92f6b7e429a6a90f04e39db3b768152f35b50903461058c578160031936011261058c5751908152602090f35b50903461058c578160031936011261058c57602090517f5719df9ef2c4678b547f89e4f5ae410dbf400fc51cf3ded434c55f6adea2c43f8152f35b50903461058c578160031936011261058c57602090517f880a91047114272656e533301261260c75e4d11543ac7303d6fe4204579ec7278152f35b50903461058c57602036600319011261058c576020916001600160a01b03908290826107a9610d4d565b1681526001855220541615159051908152f35b5091346106af57816003193601126106af576107d6610d4d565b916001600160a01b039160243583811690819003610a295785549160ff8360081c161592838094610a1c575b8015610a05575b156109ab5760ff19811660011788558361099a575b5086549460ff8660081c16156109435762010000600160b01b03601088901b1662010000600160b01b0319871681178955961680151590816108cf575b506108c15750600280546001600160a01b03191691909117905561087d578380f35b610100600160b01b0319909116909117825551600181527f7f26b83ff96e1f2b6a682f133852f6798a09c465da95921460cefb384740249890602090a13880808380f35b83516384d942fd60e01b8152fd5b85516301ffc9a760e01b8152637965db0b60e01b848201529150602090829060249082905afa90811561093957889161090b575b50153861085b565b61092c915060203d8111610932575b6109248183610d68565b810190610da1565b38610903565b503d61091a565b85513d8a823e3d90fd5b845162461bcd60e51b8152602081840152602b60248201527f496e697469616c697a61626c653a20636f6e7472616374206973206e6f74206960448201526a6e697469616c697a696e6760a81b6064820152608490fd5b61ffff19166101011787553861081e565b845162461bcd60e51b8152602081840152602e60248201527f496e697469616c697a61626c653a20636f6e747261637420697320616c72656160448201526d191e481a5b9a5d1a585b1a5e995960921b6064820152608490fd5b50303b1580156108095750600160ff821614610809565b50600160ff821610610802565b8580fd5b50903461058c578160031936011261058c57602090517f39f61ca2a1a28fee144218173ec637b649a353e4026b2738c673800e5bf1437b8152f35b509190346106af5760209081600319360112610c2357610a86610d4d565b84548251632474521560e21b81528581018790523360248201526001600160a01b0394929183908290604490829060101c89165afa908115610bec578791610c06575b5015610bf657831682516338d52e0f60e01b815282818781855afa908115610bec579085918891610bb4575b5016938415610b9d5781875260018352808488205416610b86576002541683519563095ea7b360e01b87528601526000196024860152818560448189885af1948515610b7c576001939495610b5f575b50855252822080546001600160a01b031916909117905580f35b610b7590833d8511610932576109248183610d68565b5038610b45565b83513d88823e3d90fd5b83516345ed80e960e01b8152808701839052602490fd5b8351631e489be560e01b8152808701839052602490fd5b809250848092503d8311610be5575b610bcd8183610d68565b8101031261049557610bdf8591610db9565b38610af5565b503d610bc3565b84513d89823e3d90fd5b8251631886ea7d60e11b81528590fd5b610c1d9150833d8511610932576109248183610d68565b38610ac9565b8380fd5b50903461058c578160031936011261058c57602090517fe965846df3dd5b1dfa65f58e31477079e90140e0908b6dd31b5aead5a57cf3658152f35b50903461058c578160031936011261058c5760025490516001600160a01b039091168152602090f35b50903461058c578160031936011261058c579054905160109190911c6001600160a01b03168152602090f35b9050828434610c23576020366003190112610c2357803563ffffffff60e01b8116809103610d495784546301ffc9a760e01b8552918401526020908390602490829060101c6001600160a01b03165afa918215610d3f5760209392610d20575b50519015158152f35b610d38919250833d8111610932576109248183610d68565b9083610d17565b81513d85823e3d90fd5b8480fd5b600435906001600160a01b0382168203610d6357565b600080fd5b601f909101601f19168101906001600160401b03821190821017610d8b57604052565b634e487b7160e01b600052604160045260246000fd5b90816020910312610d6357518015158103610d635790565b51906001600160a01b0382168203610d6357565b6001600160a01b039091168152602081019190915260400190565b8051821015610dfc5760209160051b010190565b634e487b7160e01b600052603260045260246000fd5b3d15610e4c573d906001600160401b038211610d8b5760405191610e40601f8201601f191660200184610d68565b82523d6000602084013e565b60609056fea26469706673582212205824c8b8eb3c50abf23da65713d51d8e985e712dcf9bffe8de3f569a4a810bc164736f6c63430008110033",
  "devdoc": {
    "details": "See ILPAdapter interface for full details.",
    "kind": "dev",
    "methods": {
      "getFiatPrice1e18(address)": {
        "params": {
          "asset": "- address of erc20 token contract"
        },
        "returns": {
          "_0": "usdPrice1e18 such that asset.balanceOf() * getFiatPrice1e18(asset) / 1e18 == $$ * 1e18*"
        }
      },
      "isAdapterLP(address)": {
        "params": {
          "asset": "- address of LP token to check*"
        }
      },
      "registerLP(address)": {
        "params": {
          "lp": "LP token to find and set the corresponding info.*"
        }
      },
      "supportsInterface(bytes4)": {
        "details": "Returns true if this contract implements the interface defined by `interfaceId`. See the corresponding https://eips.ethereum.org/EIPS/eip-165#how-interfaces-are-identified[EIP section] to learn more about how these ids are created. This function call must use less than 30 000 gas."
      },
      "withdraw(address,uint256)": {
        "params": {
          "amount": "- amount of asset to withdraw/unwrap*",
          "asset": "- address of LP token to withdraw/unwrap"
        }
      }
    },
    "title": "AuraAdapterWeighted",
    "version": 1
  },
  "userdoc": {
    "kind": "user",
    "methods": {
      "getFiatPrice1e18(address)": {
        "notice": "WARNING! Read this description very carefully!     function getFiatPrice1e18(address asset) returns (uint256) that:         basicAmountOfAsset * getFiatPrice1e18(asset) / 1e18 === $$ * 1e18     in other words, it doesn't matter what's the erc20.decimals is,     you just multiply token balance in basic units on value from oracle and get dollar amount multiplied on 1e18. different assets have different deviation threshold (errors)     for wBTC it's <= 0.5%, read more https://data.chain.link/ethereum/mainnet/crypto-usd/btc-usd     for other asset is can be larger based on particular oracle implementation. examples:     market price of btc = $30k,     for 0.1 wBTC the unit256 amount is 0.1 * 1e18     0.1 * 1e18 * (price1e18 / 1e18) == $3000 == uint256(3000*1e18)     => price1e18 = 30000 * 1e18;     market price of usdt = $0.97,     for 1 usdt uint256 = 1 * 1e6     so 1*1e6 * price1e18 / 1e18 == $0.97 == uint256(0.97*1e18)     => 1*1e6 * (price1e18 / 1e18) / (0.97*1e18)   = 1     =>  price1e18 = 0.97 * (1e18/1e6) * 1e18    assume market price of wBTC = $31,503.77, oracle error = $158     case #1: small amount of wBTC         we have 0.0,000,001 wBTC that is worth v = $0.00315  $0.00001 = 0.00315*1e18 = 315*1e13  1*1e13         actual balance on the asset b = wBTC.balanceOf() =  0.0000001*1e18 = 1e11         oracle should return or = oracle.getFiatPrice1e18(wBTC) <=>         <=> b*or = v => v/b = 315*1e13 / 1e11 = 315*1e2  1e2         error = or.error * b = 1e2 * 1e11 = 1e13 => 1e13/1e18 usd = 1e-5 = 0.00001 usd     case #2: large amount of wBTC         v = 2,000,000 wBTC = $31,503.77 * 2m  158*2m = $63,007,540,000  $316,000,000 = 63,007*1e24  316*1e24         for calc convenience we increase error on 0.05 and have v = 63,000*24  300*1e24 = (630  3)*1e26         b = 2*1e6 * 1e18 = 2*1e24         or = v/b = (630  3)*1e26 / 2*1e24 = 315*1e2  1.5*1e2         error = or.error * b = 1.5*100 * 2*1e24 = 3*1e26 = 3*1e8*1e18 = $300,000,000 ~ $316,000,000     assume the market price of USDT = $0.97  $0.00485,     case #3: little amount of USDT         v = USDT amount 0.005 = 0.005*(0.97  0.00485) = 0.00485*1e18  0.00002425*1e18 = 485*1e13  3*1e13         we rounded error up on (3000-2425)/2425 ~= +24% for calculation convenience.         b = USDT.balanceOf() = 0.005*1e6 = 5*1e3         b*or = v => or = v/b = (485*1e13  3*1e13) / 5*1e3 = 970*1e9  6*1e9         error = 6*1e9 * 5*1e3 / 1e18 = 30*1e12/1e18 = 3*1e-5 = $0,00005     case #4: lot of USDT         v = we have 100,000,000,000 USDT = $97B = 97*1e9*1e18  0.5*1e9*1e18         b = USDT.balanceOf() = 1e11*1e6 = 1e17         or = v/b = (97*1e9*1e18  0.5*1e9*1e18) / 1e17 = 970*1e9  5*1e9         error = 5*1e9 * 1e17 = 5*1e26 = 0.5 * 1e8*1e18"
      },
      "isAdapterLP(address)": {
        "notice": "Returns if asset ig Balancer LP token, registered in our adapter"
      },
      "registerLP(address)": {
        "notice": "Register the given LP token address and set the LP info. We go to the depth = 2, that means, that if LP token {lp} contains {lp1} and {erc20Token1} as underlying tokens, where lp1 contains {erc20Token0} and {erc20Token2}, then we will register that {lp} has {erc20Token0}, {erc20Token2} and {erc20Token1} as underlying tokens."
      },
      "withdraw(address,uint256)": {
        "notice": "Unwrap LP token with depth = 2 (if underlying token is LP => it's also unwrapping)"
      }
    },
    "notice": "Adapter for Aura LP token based on Balancer Weighted LP token.",
    "version": 1
  },
  "storageLayout": {
    "storage": [
      {
        "astId": 672,
        "contract": "contracts/periphery/contracts/adapters/AuraAdapterWeighted.sol:AuraAdapterWeighted",
        "label": "_initialized",
        "offset": 0,
        "slot": "0",
        "type": "t_uint8"
      },
      {
        "astId": 675,
        "contract": "contracts/periphery/contracts/adapters/AuraAdapterWeighted.sol:AuraAdapterWeighted",
        "label": "_initializing",
        "offset": 1,
        "slot": "0",
        "type": "t_bool"
      },
      {
        "astId": 33377,
        "contract": "contracts/periphery/contracts/adapters/AuraAdapterWeighted.sol:AuraAdapterWeighted",
        "label": "ACCESS_CONTROL_SINGLETON",
        "offset": 2,
        "slot": "0",
        "type": "t_contract(ISuAccessControl)37440"
      },
      {
        "astId": 33781,
        "contract": "contracts/periphery/contracts/adapters/AuraAdapterWeighted.sol:AuraAdapterWeighted",
        "label": "lps",
        "offset": 0,
        "slot": "1",
        "type": "t_mapping(t_address,t_address)"
      },
      {
        "astId": 33783,
        "contract": "contracts/periphery/contracts/adapters/AuraAdapterWeighted.sol:AuraAdapterWeighted",
        "label": "ADAPTER",
        "offset": 0,
        "slot": "2",
        "type": "t_address"
      },
      {
        "astId": 34012,
        "contract": "contracts/periphery/contracts/adapters/AuraAdapterWeighted.sol:AuraAdapterWeighted",
        "label": "__gap",
        "offset": 0,
        "slot": "3",
        "type": "t_array(t_uint256)45_storage"
      }
    ],
    "types": {
      "t_address": {
        "encoding": "inplace",
        "label": "address",
        "numberOfBytes": "20"
      },
      "t_array(t_uint256)45_storage": {
        "base": "t_uint256",
        "encoding": "inplace",
        "label": "uint256[45]",
        "numberOfBytes": "1440"
      },
      "t_bool": {
        "encoding": "inplace",
        "label": "bool",
        "numberOfBytes": "1"
      },
      "t_contract(ISuAccessControl)37440": {
        "encoding": "inplace",
        "label": "contract ISuAccessControl",
        "numberOfBytes": "20"
      },
      "t_mapping(t_address,t_address)": {
        "encoding": "mapping",
        "key": "t_address",
        "label": "mapping(address => address)",
        "numberOfBytes": "32",
        "value": "t_address"
      },
      "t_uint256": {
        "encoding": "inplace",
        "label": "uint256",
        "numberOfBytes": "32"
      },
      "t_uint8": {
        "encoding": "inplace",
        "label": "uint8",
        "numberOfBytes": "1"
      }
    }
  }
}