{
  "address": "0x1E181E63bB35257200cfc414931a67Ea854C4E90",
  "abi": [
    {
      "inputs": [],
      "stateMutability": "nonpayable",
      "type": "constructor"
    },
    {
      "inputs": [
        {
          "internalType": "address",
          "name": "asset",
          "type": "address"
        }
      ],
      "name": "AlreadyRegistered",
      "type": "error"
    },
    {
      "inputs": [],
      "name": "BadAccessControlSingleton",
      "type": "error"
    },
    {
      "inputs": [
        {
          "internalType": "address",
          "name": "asset",
          "type": "address"
        }
      ],
      "name": "BadDecimals",
      "type": "error"
    },
    {
      "inputs": [],
      "name": "BadMainUnderlyingToken",
      "type": "error"
    },
    {
      "inputs": [
        {
          "internalType": "address",
          "name": "asset",
          "type": "address"
        }
      ],
      "name": "IsNotLP",
      "type": "error"
    },
    {
      "inputs": [],
      "name": "LPOracleNotReady",
      "type": "error"
    },
    {
      "inputs": [],
      "name": "OnlyAdminError",
      "type": "error"
    },
    {
      "inputs": [],
      "name": "OnlyAlerterError",
      "type": "error"
    },
    {
      "inputs": [],
      "name": "OnlyCDPAccessError",
      "type": "error"
    },
    {
      "inputs": [],
      "name": "OnlyDAOError",
      "type": "error"
    },
    {
      "inputs": [],
      "name": "OnlyDisablerAccessError",
      "type": "error"
    },
    {
      "inputs": [],
      "name": "OnlyLiquidationAccessError",
      "type": "error"
    },
    {
      "inputs": [],
      "name": "OnlyMintAccessError",
      "type": "error"
    },
    {
      "inputs": [],
      "name": "OnlyProxyActionsError",
      "type": "error"
    },
    {
      "inputs": [],
      "name": "OnlyRewardAccessError",
      "type": "error"
    },
    {
      "inputs": [],
      "name": "OnlyRoleError",
      "type": "error"
    },
    {
      "inputs": [],
      "name": "OnlyVaultAccessError",
      "type": "error"
    },
    {
      "inputs": [],
      "name": "OnlyVotingEscrowError",
      "type": "error"
    },
    {
      "inputs": [],
      "name": "WithdrawalFailed",
      "type": "error"
    },
    {
      "inputs": [],
      "name": "ZeroRecipient",
      "type": "error"
    },
    {
      "anonymous": false,
      "inputs": [
        {
          "indexed": false,
          "internalType": "address",
          "name": "lp",
          "type": "address"
        }
      ],
      "name": "ApprovalRevoked",
      "type": "event"
    },
    {
      "anonymous": false,
      "inputs": [
        {
          "indexed": false,
          "internalType": "address",
          "name": "lp",
          "type": "address"
        }
      ],
      "name": "AuraLPRegistered",
      "type": "event"
    },
    {
      "anonymous": false,
      "inputs": [
        {
          "indexed": true,
          "internalType": "address",
          "name": "token",
          "type": "address"
        },
        {
          "indexed": false,
          "internalType": "uint256",
          "name": "amount",
          "type": "uint256"
        },
        {
          "indexed": false,
          "internalType": "address",
          "name": "receiver",
          "type": "address"
        }
      ],
      "name": "EmergencyWithdraw",
      "type": "event"
    },
    {
      "anonymous": false,
      "inputs": [
        {
          "indexed": false,
          "internalType": "uint8",
          "name": "version",
          "type": "uint8"
        }
      ],
      "name": "Initialized",
      "type": "event"
    },
    {
      "inputs": [],
      "name": "ACCESS_CONTROL_SINGLETON",
      "outputs": [
        {
          "internalType": "contract ISuAccessControl",
          "name": "",
          "type": "address"
        }
      ],
      "stateMutability": "view",
      "type": "function"
    },
    {
      "inputs": [],
      "name": "ADAPTER",
      "outputs": [
        {
          "internalType": "contract IBalancerAdapter",
          "name": "",
          "type": "address"
        }
      ],
      "stateMutability": "view",
      "type": "function"
    },
    {
      "inputs": [],
      "name": "ADMIN_ROLE",
      "outputs": [
        {
          "internalType": "bytes32",
          "name": "",
          "type": "bytes32"
        }
      ],
      "stateMutability": "view",
      "type": "function"
    },
    {
      "inputs": [],
      "name": "ALERTER_ROLE",
      "outputs": [
        {
          "internalType": "bytes32",
          "name": "",
          "type": "bytes32"
        }
      ],
      "stateMutability": "view",
      "type": "function"
    },
    {
      "inputs": [],
      "name": "CDP_ACCESS_ROLE",
      "outputs": [
        {
          "internalType": "bytes32",
          "name": "",
          "type": "bytes32"
        }
      ],
      "stateMutability": "view",
      "type": "function"
    },
    {
      "inputs": [],
      "name": "DAO_ROLE",
      "outputs": [
        {
          "internalType": "bytes32",
          "name": "",
          "type": "bytes32"
        }
      ],
      "stateMutability": "view",
      "type": "function"
    },
    {
      "inputs": [],
      "name": "DISABLER_ROLE",
      "outputs": [
        {
          "internalType": "bytes32",
          "name": "",
          "type": "bytes32"
        }
      ],
      "stateMutability": "view",
      "type": "function"
    },
    {
      "inputs": [],
      "name": "LIQUIDATION_ACCESS_ROLE",
      "outputs": [
        {
          "internalType": "bytes32",
          "name": "",
          "type": "bytes32"
        }
      ],
      "stateMutability": "view",
      "type": "function"
    },
    {
      "inputs": [],
      "name": "MINT_ACCESS_ROLE",
      "outputs": [
        {
          "internalType": "bytes32",
          "name": "",
          "type": "bytes32"
        }
      ],
      "stateMutability": "view",
      "type": "function"
    },
    {
      "inputs": [],
      "name": "PROXY_ACTIONS_ROLE",
      "outputs": [
        {
          "internalType": "bytes32",
          "name": "",
          "type": "bytes32"
        }
      ],
      "stateMutability": "view",
      "type": "function"
    },
    {
      "inputs": [],
      "name": "REWARD_ACCESS_ROLE",
      "outputs": [
        {
          "internalType": "bytes32",
          "name": "",
          "type": "bytes32"
        }
      ],
      "stateMutability": "view",
      "type": "function"
    },
    {
      "inputs": [],
      "name": "VOTING_ESCROW_ROLE",
      "outputs": [
        {
          "internalType": "bytes32",
          "name": "",
          "type": "bytes32"
        }
      ],
      "stateMutability": "view",
      "type": "function"
    },
    {
      "inputs": [
        {
          "internalType": "address[]",
          "name": "tokens",
          "type": "address[]"
        },
        {
          "internalType": "address",
          "name": "receiver",
          "type": "address"
        }
      ],
      "name": "emergencyWithdraw",
      "outputs": [],
      "stateMutability": "nonpayable",
      "type": "function"
    },
    {
      "inputs": [
        {
          "internalType": "address",
          "name": "asset",
          "type": "address"
        }
      ],
      "name": "getFiatPrice1e18",
      "outputs": [
        {
          "internalType": "uint256",
          "name": "",
          "type": "uint256"
        }
      ],
      "stateMutability": "view",
      "type": "function"
    },
    {
      "inputs": [
        {
          "internalType": "address",
          "name": "_authControl",
          "type": "address"
        },
        {
          "internalType": "address",
          "name": "_balancerAdapter",
          "type": "address"
        }
      ],
      "name": "initialize",
      "outputs": [],
      "stateMutability": "nonpayable",
      "type": "function"
    },
    {
      "inputs": [
        {
          "internalType": "address",
          "name": "asset",
          "type": "address"
        }
      ],
      "name": "isAdapterLP",
      "outputs": [
        {
          "internalType": "bool",
          "name": "",
          "type": "bool"
        }
      ],
      "stateMutability": "view",
      "type": "function"
    },
    {
      "inputs": [
        {
          "internalType": "address",
          "name": "",
          "type": "address"
        }
      ],
      "name": "lps",
      "outputs": [
        {
          "internalType": "address",
          "name": "",
          "type": "address"
        }
      ],
      "stateMutability": "view",
      "type": "function"
    },
    {
      "inputs": [
        {
          "internalType": "address",
          "name": "lp",
          "type": "address"
        }
      ],
      "name": "registerLP",
      "outputs": [],
      "stateMutability": "nonpayable",
      "type": "function"
    },
    {
      "inputs": [
        {
          "internalType": "address",
          "name": "lp",
          "type": "address"
        }
      ],
      "name": "revokeApprove",
      "outputs": [],
      "stateMutability": "nonpayable",
      "type": "function"
    },
    {
      "inputs": [
        {
          "internalType": "bytes4",
          "name": "interfaceId",
          "type": "bytes4"
        }
      ],
      "name": "supportsInterface",
      "outputs": [
        {
          "internalType": "bool",
          "name": "",
          "type": "bool"
        }
      ],
      "stateMutability": "view",
      "type": "function"
    },
    {
      "inputs": [
        {
          "internalType": "address",
          "name": "asset",
          "type": "address"
        },
        {
          "internalType": "uint256",
          "name": "amount",
          "type": "uint256"
        },
        {
          "internalType": "uint256",
          "name": "maxSlippageBps",
          "type": "uint256"
        }
      ],
      "name": "withdraw",
      "outputs": [
        {
          "components": [
            {
              "internalType": "address",
              "name": "token",
              "type": "address"
            },
            {
              "internalType": "uint256",
              "name": "amount",
              "type": "uint256"
            }
          ],
          "internalType": "struct WithdrawResult[]",
          "name": "results",
          "type": "tuple[]"
        }
      ],
      "stateMutability": "nonpayable",
      "type": "function"
    }
  ],
  "numDeployments": 1,
  "solcInputHash": "403b958b64b1c77d13b9eddc7dda2091",
  "bytecode": "0x608080604052346100c1576000549060ff8260081c1661006f575060ff80821603610034575b60405161151090816100c78239f35b60ff90811916176000557f7f26b83ff96e1f2b6a682f133852f6798a09c465da95921460cefb3847402498602060405160ff8152a138610025565b62461bcd60e51b815260206004820152602760248201527f496e697469616c697a61626c653a20636f6e747261637420697320696e697469604482015266616c697a696e6760c81b6064820152608490fd5b600080fdfe608060408181526004918236101561001657600080fd5b600092833560e01c91826301ffc9a7146111215750816303ee9f22146110f55781630581db3014610f81578163121193f014610f585781631e96838b14610d05578163438280dd14610cca578163485cc95514610a735781635136211714610a3657816371d0fb41146109fb57816375b238fc146109e05781638e5313e0146109a5578163b38234f31461096a578163b5c5f672146106b5578163b9ac2b38146104a2578163bd5f5be614610467578163d0e8fa821461042c578163d12e7332146103f1578163d1dff44f146101bd57508063d2351cee14610183578063dc97e84e146101495763e9c265181461010c57600080fd5b34610145578160031936011261014557602090517f3b5d4cc60d3ec3516ee8ae083bd60934f6eb2a6c54b1229985c41bfb092b26038152f35b5080fd5b5034610145578160031936011261014557602090517f9a9aef7c1247d5fc769b0185c052913e39673da29a880317dfd20ebf86f26a498152f35b5034610145578160031936011261014557602090517fb0fdd1623e42dbffda4acd8bd643e1cb69f00f0e83abeaa8150ee42cf0fd105e8152f35b919050346103ed57806003193601126103ed578135916001600160401b03918284116103e957366023850112156103e957838201359283116103e957602493600591368686851b840101116103e5576102146111c8565b87548251632474521560e21b81528681018a905233898201526001600160a01b03956044956020949193909290859082908990829060101c8c165afa9081156103db578c916103ae575b501561039e57861691821561038e578a5b89811061027a578b80f35b8a81831b8401013588811680910361038a5786516370a0823160e01b815230818c01528d9087818f81865afa91821561037f578e928a9290610348575b50806102e5575b5050505060001981146102d35760010161026f565b634e487b7160e01b8c52601189528a8cfd5b6103347faaeda929aa102e867049528ec7cd2499e3a2f8846e736ae7935f234dfbf500d9938984519163a9059cbb60e01b8d840152820152828d8201528c815261032e816111de565b85611277565b81519081528789820152a2388b87826102be565b925050508681813d8311610378575b610361818361120f565b8101031261037357878d9151386102b7565b600080fd5b503d610357565b8951903d90823e3d90fd5b8c80fd5b845163d27b444360e01b81528890fd5b8451631886ea7d60e11b81528890fd5b6103ce9150853d87116103d4575b6103c6818361120f565b810190611232565b3861025e565b503d6103bc565b86513d8e823e3d90fd5b8680fd5b8480fd5b8280fd5b505034610145576020366003190112610145576020916001600160a01b039082908261041b6111b2565b168152603385522054169051908152f35b505034610145578160031936011261014557602090517f76d0567582f23e1e9d7a13eeba60f9aea9d69b8da87ca27a8bf3698b35c653db8152f35b505034610145578160031936011261014557602090517f4f14c8366fa999817edc9f29824eb88a00cc31225e2156f399da4bc91049eb108152f35b8391503461014557602092836003193601126103ed576001600160a01b0392836104ca6111b2565b16938482526033865280838320541694851561069f57835163313ce56760e01b808252929088818881865afa908115610678578591610682575b508551938452888488818b5afa938415610678579089918695610645575b5061052c90611493565b60248751809581936303d1689d60e11b83528b8301525afa91821561063b57908891859361060a575b5060345416966024865180998193631735856760e31b83528a8301525afa9586156106005783966105d1575b508581029581870414901517156105be5761059b90611493565b9283156105ab5750505191048152f35b634e487b7160e01b825260129052602490fd5b634e487b7160e01b825260118452602482fd5b9095508681813d83116105f9575b6105e9818361120f565b8101031261037357519487610581565b503d6105df565b84513d85823e3d90fd5b8281939294503d8311610634575b610622818361120f565b81010312610373578790519189610555565b503d610618565b85513d86823e3d90fd5b61052c91955061066a90833d8511610671575b610662818361120f565b81019061125e565b9490610522565b503d610658565b86513d87823e3d90fd5b6106999150893d8b1161067157610662818361120f565b89610504565b84602491855191631e489be560e01b8352820152fd5b83915034610145576060366003190112610145576106d16111b2565b926024803560018060a01b0380961690818652602092603384528785882054169283156109555785516323b872dd60e01b868201523383820152306044820152606480820185905281526001600160401b03939060a08101858111828210176109415787926107478c95936064938c5284611277565b89519485938492635d043b2960e11b84528d84015230888401523060448401525af1908115610937579088918291610906575b5060848a603454169583895197889485936306393c3360e21b85528d8501528784015260443560448401523360648401525af19586156108fc578796610808575b50505050929080519380850191818652845180935281818701950193905b8382106107e65786860387f35b84518051891687528301518684015294850194938201936001909101906107d9565b9091929395503d8088863e61081d818661120f565b84019386818603126108f4578051908482116108f857019284601f850112156108f4578351928184116108e35786519561085c898660051b018861120f565b848752888088019560061b870101958187116108df578901945b86861061088e575050505050505091858080806107bb565b88868303126108df578851898101818110868211176108cb578a5289918b916108b68961124a565b81528289015183820152815201950194610876565b84604188634e487b7160e01b600052526000fd5b8a80fd5b634e487b7160e01b89526041835288fd5b8780fd5b8880fd5b85513d89823e3d90fd5b809250868092503d8311610930575b61091f818361120f565b81010312610373578790518a61077a565b503d610915565b86513d8a823e3d90fd5b8460418b634e487b7160e01b600052526000fd5b8551631e489be560e01b815280880191909152fd5b505034610145578160031936011261014557602090517fd83f5343da19b478b15a140c301a868be9e02603958f38fbd822b9d5c0a289168152f35b505034610145578160031936011261014557602090517fe453bacb314e78dcd5192e6b1a2b1f0e7c76e92f6b7e429a6a90f04e39db3b768152f35b50503461014557816003193601126101455751908152602090f35b505034610145578160031936011261014557602090517f880a91047114272656e533301261260c75e4d11543ac7303d6fe4204579ec7278152f35b505034610145576020366003190112610145576020916001600160a01b0390829082610a606111b2565b1681526033855220541615159051908152f35b9050346103ed57816003193601126103ed57610a8d6111b2565b91610a966111c8565b9184549060ff8260081c161591828093610cbd575b8015610ca6575b15610c4c5760ff198116600117875582610c3b575b5085549360ff8560081c1615610be45762010000600160b01b03601087901b1662010000600160b01b0319861681178855956001600160a01b03929083168015908115610b80575b50610b7257501660018060a01b03196034541617603455610b2e578380f35b610100600160b01b0319909116909117825551600181527f7f26b83ff96e1f2b6a682f133852f6798a09c465da95921460cefb384740249890602090a13880808380f35b84516384d942fd60e01b8152fd5b86516301ffc9a760e01b8152637965db0b60e01b848201529150602090829060249082905afa908115610bda578991610bbc575b501538610b0f565b610bd4915060203d81116103d4576103c6818361120f565b38610bb4565b86513d8b823e3d90fd5b835162461bcd60e51b8152602081840152602b60248201527f496e697469616c697a61626c653a20636f6e7472616374206973206e6f74206960448201526a6e697469616c697a696e6760a81b6064820152608490fd5b61ffff191661010117865538610ac7565b835162461bcd60e51b8152602081840152602e60248201527f496e697469616c697a61626c653a20636f6e747261637420697320616c72656160448201526d191e481a5b9a5d1a585b1a5e995960921b6064820152608490fd5b50303b158015610ab25750600160ff821614610ab2565b50600160ff821610610aab565b505034610145578160031936011261014557602090517f39f61ca2a1a28fee144218173ec637b649a353e4026b2738c673800e5bf1437b8152f35b919050346103ed5760209081600319360112610f5457610d236111b2565b84548251632474521560e21b81528581018790523360248201526001600160a01b0393929185908290604490829060101c88165afa908115610f1d578791610f37575b5015610f275782169181516338d52e0f60e01b815284818781875afa908115610f1d579082918891610ee5575b5016908115610ece5783875260338552808388205416610eb757825163313ce56760e01b815285818881885afa908115610ead5760129160ff918a91610e90575b501603610e79576034541682519563095ea7b360e01b87528601526000196024860152838560448189855af1948515610e6f577f9c16c2c9a02189bfaeaa78ff529271ecc23bb964e06b36c3f111c4e014e26e9795610e52575b508286526033845281862080546001600160a01b031916909117905551908152a180f35b610e6890853d87116103d4576103c6818361120f565b5038610e2e565b82513d88823e3d90fd5b825163144a426560e31b8152808701859052602490fd5b610ea79150883d8a1161067157610662818361120f565b38610dd4565b84513d8a823e3d90fd5b82516345ed80e960e01b8152808701859052602490fd5b8251631e489be560e01b8152808701859052602490fd5b809250868092503d8311610f16575b610efe818361120f565b810103126103e557610f10829161124a565b38610d93565b503d610ef4565b83513d89823e3d90fd5b8151631886ea7d60e11b81528590fd5b610f4e9150853d87116103d4576103c6818361120f565b38610d66565b8380fd5b50503461014557816003193601126101455760345490516001600160a01b039091168152602090f35b83833461014557602090816003193601126103ed57610f9e6111b2565b83548251632474521560e21b81528681018690523360248201526001600160a01b0393929185908290604490829060101c88165afa9081156110eb5786916110ce575b50156110be578216916034541694815190636eb1769f60e11b825230908201528560248201528381604481865afa9081156110b4578591611087575b5061103d575b6000805160206114bb83398151915293945051908152a180f35b61107f6000805160206114bb833981519152949582519063095ea7b360e01b8683015260248201526000604482015260448152611079816111de565b83611277565b849350611023565b90508381813d83116110ad575b61109e818361120f565b810103126103e957518661101d565b503d611094565b82513d87823e3d90fd5b8151631886ea7d60e11b81528690fd5b6110e59150853d87116103d4576103c6818361120f565b87610fe1565b83513d88823e3d90fd5b5050346101455781600319360112610145579054905160109190911c6001600160a01b03168152602090f35b92915034610f54576020366003190112610f5457803563ffffffff60e01b81168091036103e95784546301ffc9a760e01b8552918401526020908390602490829060101c6001600160a01b03165afa9182156111a85760209392611189575b50519015158152f35b6111a1919250833d81116103d4576103c6818361120f565b9038611180565b81513d85823e3d90fd5b600435906001600160a01b038216820361037357565b602435906001600160a01b038216820361037357565b608081019081106001600160401b038211176111f957604052565b634e487b7160e01b600052604160045260246000fd5b601f909101601f19168101906001600160401b038211908210176111f957604052565b90816020910312610373575180151581036103735790565b51906001600160a01b038216820361037357565b90816020910312610373575160ff811681036103735790565b604080516001600160401b0394936001600160a01b039093169290918201858111838210176111f9576040526020928383527f5361666545524332303a206c6f772d6c6576656c2063616c6c206661696c6564848401526000808386829551910182855af1903d156113b2573d96871161139e576113169495966040519061130888601f19601f840116018361120f565b81528093873d92013e6113bf565b805190828215928315611386575b5050501561132f5750565b6084906040519062461bcd60e51b82526004820152602a60248201527f5361666545524332303a204552433230206f7065726174696f6e20646964206e6044820152691bdd081cdd58d8d9595960b21b6064820152fd5b6113969350820181019101611232565b388281611324565b634e487b7160e01b83526041600452602483fd5b9150611316939495506060915b9192901561142157508151156113d3575090565b3b156113dc5790565b60405162461bcd60e51b815260206004820152601d60248201527f416464726573733a2063616c6c20746f206e6f6e2d636f6e74726163740000006044820152606490fd5b8251909150156114345750805190602001fd5b6040519062461bcd60e51b82528160208060048301528251908160248401526000935b82851061147a575050604492506000838284010152601f80199101168101030190fd5b8481018201518686016044015293810193859350611457565b60ff16604d81116114a457600a0a90565b634e487b7160e01b600052601160045260246000fdfeb9d372ca98fcaccd93b1d0e8a23b184901314fb7f610fb82ba911d094c4c2e76a2646970667358221220bbbb1e7e96e3715b0a4ff9744c044b6e09e92efde906d7f43a2d9ce362bbbc1e64736f6c63430008110033",
  "devdoc": {
    "details": "See ILPAdapter interface for full details.",
    "kind": "dev",
    "methods": {
      "constructor": {
        "custom:oz-upgrades-unsafe-allow": "constructor"
      },
      "emergencyWithdraw(address[],address)": {
        "details": "This function is restricted to the admin and allows for emergency withdrawal of tokens.",
        "params": {
          "receiver": "Address of the receiver to receive the tokens.",
          "tokens": "List of tokens to withdraw."
        }
      },
      "getFiatPrice1e18(address)": {
        "params": {
          "asset": "- address of erc20 token contract"
        },
        "returns": {
          "_0": "usdPrice1e18 such that asset.balanceOf() * getFiatPrice1e18(asset) / 1e18 == $$ * 1e18*"
        }
      },
      "isAdapterLP(address)": {
        "params": {
          "asset": "- address of LP token to check*"
        }
      },
      "registerLP(address)": {
        "details": "The function traverses to depth = 2, meaning if LP token {lp} contains {lp1} and {erc20Token1}      as underlying tokens, where lp1 contains {erc20Token0} and {erc20Token2},      then we register that {lp} has {erc20Token0}, {erc20Token2}, and {erc20Token1} as underlying tokens.",
        "params": {
          "lp": "LP token to find and set the corresponding info."
        }
      },
      "revokeApprove(address)": {
        "params": {
          "lp": "LP token address for which approval should be revoked."
        }
      },
      "supportsInterface(bytes4)": {
        "details": "Returns true if this contract implements the interface defined by `interfaceId`. See the corresponding https://eips.ethereum.org/EIPS/eip-165#how-interfaces-are-identified[EIP section] to learn more about how these ids are created. This function call must use less than 30 000 gas."
      },
      "withdraw(address,uint256,uint256)": {
        "params": {
          "amount": "- amount of asset to withdraw/unwrap",
          "asset": "- address of LP token to withdraw/unwrap",
          "maxSlippageBps": "Maximum allowed slippage in basis points (1 = 0.01%)*"
        }
      }
    },
    "title": "AuraAdapterWeighted",
    "version": 1
  },
  "userdoc": {
    "kind": "user",
    "methods": {
      "emergencyWithdraw(address[],address)": {
        "notice": "Withdraw tokens from the adapter in case of emergency."
      },
      "getFiatPrice1e18(address)": {
        "notice": "WARNING! Read this description very carefully!     function getFiatPrice1e18(address asset) returns (uint256) that:         basicAmountOfAsset * getFiatPrice1e18(asset) / 1e18 === $$ * 1e18     in other words, it doesn't matter what's the erc20.decimals is,     you just multiply token balance in basic units on value from oracle and get dollar amount multiplied on 1e18. different assets have different deviation threshold (errors)     for wBTC it's <= 0.5%, read more https://data.chain.link/ethereum/mainnet/crypto-usd/btc-usd     for other asset is can be larger based on particular oracle implementation. examples:     market price of btc = $30k,     for 0.1 wBTC the unit256 amount is 0.1 * 1e18     0.1 * 1e18 * (price1e18 / 1e18) == $3000 == uint256(3000*1e18)     => price1e18 = 30000 * 1e18;     market price of usdt = $0.97,     for 1 usdt uint256 = 1 * 1e6     so 1*1e6 * price1e18 / 1e18 == $0.97 == uint256(0.97*1e18)     => 1*1e6 * (price1e18 / 1e18) / (0.97*1e18)   = 1     =>  price1e18 = 0.97 * (1e18/1e6) * 1e18    assume market price of wBTC = $31,503.77, oracle error = $158     case #1: small amount of wBTC         we have 0.0,000,001 wBTC that is worth v = $0.00315  $0.00001 = 0.00315*1e18 = 315*1e13  1*1e13         actual balance on the asset b = wBTC.balanceOf() =  0.0000001*1e18 = 1e11         oracle should return or = oracle.getFiatPrice1e18(wBTC) <=>         <=> b*or = v => v/b = 315*1e13 / 1e11 = 315*1e2  1e2         error = or.error * b = 1e2 * 1e11 = 1e13 => 1e13/1e18 usd = 1e-5 = 0.00001 usd     case #2: large amount of wBTC         v = 2,000,000 wBTC = $31,503.77 * 2m  158*2m = $63,007,540,000  $316,000,000 = 63,007*1e24  316*1e24         for calc convenience we increase error on 0.05 and have v = 63,000*24  300*1e24 = (630  3)*1e26         b = 2*1e6 * 1e18 = 2*1e24         or = v/b = (630  3)*1e26 / 2*1e24 = 315*1e2  1.5*1e2         error = or.error * b = 1.5*100 * 2*1e24 = 3*1e26 = 3*1e8*1e18 = $300,000,000 ~ $316,000,000     assume the market price of USDT = $0.97  $0.00485,     case #3: little amount of USDT         v = USDT amount 0.005 = 0.005*(0.97  0.00485) = 0.00485*1e18  0.00002425*1e18 = 485*1e13  3*1e13         we rounded error up on (3000-2425)/2425 ~= +24% for calculation convenience.         b = USDT.balanceOf() = 0.005*1e6 = 5*1e3         b*or = v => or = v/b = (485*1e13  3*1e13) / 5*1e3 = 970*1e9  6*1e9         error = 6*1e9 * 5*1e3 / 1e18 = 30*1e12/1e18 = 3*1e-5 = $0,00005     case #4: lot of USDT         v = we have 100,000,000,000 USDT = $97B = 97*1e9*1e18  0.5*1e9*1e18         b = USDT.balanceOf() = 1e11*1e6 = 1e17         or = v/b = (97*1e9*1e18  0.5*1e9*1e18) / 1e17 = 970*1e9  5*1e9         error = 5*1e9 * 1e17 = 5*1e26 = 0.5 * 1e8*1e18"
      },
      "isAdapterLP(address)": {
        "notice": "Returns if asset ig Balancer LP token, registered in our adapter"
      },
      "registerLP(address)": {
        "notice": "Register the given LP token address and set the LP info."
      },
      "revokeApprove(address)": {
        "notice": "Revoke the approval granted to Balancer Adapter for an LP token."
      },
      "withdraw(address,uint256,uint256)": {
        "notice": "Unwrap LP token with depth 2 (if underlying token is LP, it's also unwrapping) with slippage protection"
      }
    },
    "notice": "Adapter for Aura LP token based on Balancer Weighted LP token.",
    "version": 1
  },
  "storageLayout": {
    "storage": [
      {
        "astId": 1226,
        "contract": "contracts/exchange/contracts/periphery/contracts/adapters/AuraAdapterWeighted.sol:AuraAdapterWeighted",
        "label": "_initialized",
        "offset": 0,
        "slot": "0",
        "type": "t_uint8"
      },
      {
        "astId": 1229,
        "contract": "contracts/exchange/contracts/periphery/contracts/adapters/AuraAdapterWeighted.sol:AuraAdapterWeighted",
        "label": "_initializing",
        "offset": 1,
        "slot": "0",
        "type": "t_bool"
      },
      {
        "astId": 22590,
        "contract": "contracts/exchange/contracts/periphery/contracts/adapters/AuraAdapterWeighted.sol:AuraAdapterWeighted",
        "label": "ACCESS_CONTROL_SINGLETON",
        "offset": 2,
        "slot": "0",
        "type": "t_contract(ISuAccessControl)27027"
      },
      {
        "astId": 22861,
        "contract": "contracts/exchange/contracts/periphery/contracts/adapters/AuraAdapterWeighted.sol:AuraAdapterWeighted",
        "label": "__gap",
        "offset": 0,
        "slot": "1",
        "type": "t_array(t_uint256)50_storage"
      },
      {
        "astId": 23161,
        "contract": "contracts/exchange/contracts/periphery/contracts/adapters/AuraAdapterWeighted.sol:AuraAdapterWeighted",
        "label": "lps",
        "offset": 0,
        "slot": "51",
        "type": "t_mapping(t_address,t_address)"
      },
      {
        "astId": 23164,
        "contract": "contracts/exchange/contracts/periphery/contracts/adapters/AuraAdapterWeighted.sol:AuraAdapterWeighted",
        "label": "ADAPTER",
        "offset": 0,
        "slot": "52",
        "type": "t_contract(IBalancerAdapter)27145"
      },
      {
        "astId": 23553,
        "contract": "contracts/exchange/contracts/periphery/contracts/adapters/AuraAdapterWeighted.sol:AuraAdapterWeighted",
        "label": "__gap",
        "offset": 0,
        "slot": "53",
        "type": "t_array(t_uint256)50_storage"
      }
    ],
    "types": {
      "t_address": {
        "encoding": "inplace",
        "label": "address",
        "numberOfBytes": "20"
      },
      "t_array(t_uint256)50_storage": {
        "base": "t_uint256",
        "encoding": "inplace",
        "label": "uint256[50]",
        "numberOfBytes": "1600"
      },
      "t_bool": {
        "encoding": "inplace",
        "label": "bool",
        "numberOfBytes": "1"
      },
      "t_contract(IBalancerAdapter)27145": {
        "encoding": "inplace",
        "label": "contract IBalancerAdapter",
        "numberOfBytes": "20"
      },
      "t_contract(ISuAccessControl)27027": {
        "encoding": "inplace",
        "label": "contract ISuAccessControl",
        "numberOfBytes": "20"
      },
      "t_mapping(t_address,t_address)": {
        "encoding": "mapping",
        "key": "t_address",
        "label": "mapping(address => address)",
        "numberOfBytes": "32",
        "value": "t_address"
      },
      "t_uint256": {
        "encoding": "inplace",
        "label": "uint256",
        "numberOfBytes": "32"
      },
      "t_uint8": {
        "encoding": "inplace",
        "label": "uint8",
        "numberOfBytes": "1"
      }
    }
  }
}