{
  "address": "0x69E6c6F65FF1c18be0fE30543D2204584a19ceb8",
  "abi": [
    {
      "inputs": [],
      "stateMutability": "nonpayable",
      "type": "constructor"
    },
    {
      "inputs": [
        {
          "internalType": "address",
          "name": "",
          "type": "address"
        }
      ],
      "name": "AlreadyRegistered",
      "type": "error"
    },
    {
      "inputs": [],
      "name": "BadAccessControlSingleton",
      "type": "error"
    },
    {
      "inputs": [
        {
          "internalType": "address",
          "name": "asset",
          "type": "address"
        }
      ],
      "name": "BadDecimals",
      "type": "error"
    },
    {
      "inputs": [],
      "name": "BadMainUnderlyingToken",
      "type": "error"
    },
    {
      "inputs": [],
      "name": "DecimalsTooHigh",
      "type": "error"
    },
    {
      "inputs": [],
      "name": "InvalidSlippage",
      "type": "error"
    },
    {
      "inputs": [
        {
          "internalType": "address",
          "name": "asset",
          "type": "address"
        }
      ],
      "name": "IsNotLP",
      "type": "error"
    },
    {
      "inputs": [],
      "name": "LPOracleNotReady",
      "type": "error"
    },
    {
      "inputs": [],
      "name": "NativeETHNotSupported",
      "type": "error"
    },
    {
      "inputs": [],
      "name": "NoPriceAfterRegister",
      "type": "error"
    },
    {
      "inputs": [],
      "name": "OnlyAdminError",
      "type": "error"
    },
    {
      "inputs": [],
      "name": "OnlyAlerterError",
      "type": "error"
    },
    {
      "inputs": [],
      "name": "OnlyCDPAccessError",
      "type": "error"
    },
    {
      "inputs": [],
      "name": "OnlyDAOError",
      "type": "error"
    },
    {
      "inputs": [],
      "name": "OnlyDisablerAccessError",
      "type": "error"
    },
    {
      "inputs": [],
      "name": "OnlyLiquidationAccessError",
      "type": "error"
    },
    {
      "inputs": [],
      "name": "OnlyMintAccessError",
      "type": "error"
    },
    {
      "inputs": [],
      "name": "OnlyProxyActionsError",
      "type": "error"
    },
    {
      "inputs": [],
      "name": "OnlyRewardAccessError",
      "type": "error"
    },
    {
      "inputs": [],
      "name": "OnlyRoleError",
      "type": "error"
    },
    {
      "inputs": [],
      "name": "OnlyVaultAccessError",
      "type": "error"
    },
    {
      "inputs": [],
      "name": "OnlyVotingEscrowError",
      "type": "error"
    },
    {
      "inputs": [],
      "name": "PRBMathSD59x18__DivInputTooSmall",
      "type": "error"
    },
    {
      "inputs": [
        {
          "internalType": "uint256",
          "name": "rAbs",
          "type": "uint256"
        }
      ],
      "name": "PRBMathSD59x18__DivOverflow",
      "type": "error"
    },
    {
      "inputs": [
        {
          "internalType": "int256",
          "name": "x",
          "type": "int256"
        }
      ],
      "name": "PRBMathSD59x18__Exp2InputTooBig",
      "type": "error"
    },
    {
      "inputs": [
        {
          "internalType": "int256",
          "name": "x",
          "type": "int256"
        }
      ],
      "name": "PRBMathSD59x18__FromIntOverflow",
      "type": "error"
    },
    {
      "inputs": [
        {
          "internalType": "int256",
          "name": "x",
          "type": "int256"
        }
      ],
      "name": "PRBMathSD59x18__FromIntUnderflow",
      "type": "error"
    },
    {
      "inputs": [
        {
          "internalType": "int256",
          "name": "x",
          "type": "int256"
        }
      ],
      "name": "PRBMathSD59x18__LogInputTooSmall",
      "type": "error"
    },
    {
      "inputs": [],
      "name": "PRBMathSD59x18__MulInputTooSmall",
      "type": "error"
    },
    {
      "inputs": [
        {
          "internalType": "uint256",
          "name": "rAbs",
          "type": "uint256"
        }
      ],
      "name": "PRBMathSD59x18__MulOverflow",
      "type": "error"
    },
    {
      "inputs": [
        {
          "internalType": "uint256",
          "name": "prod1",
          "type": "uint256"
        }
      ],
      "name": "PRBMath__MulDivFixedPointOverflow",
      "type": "error"
    },
    {
      "inputs": [
        {
          "internalType": "uint256",
          "name": "prod1",
          "type": "uint256"
        },
        {
          "internalType": "uint256",
          "name": "denominator",
          "type": "uint256"
        }
      ],
      "name": "PRBMath__MulDivOverflow",
      "type": "error"
    },
    {
      "inputs": [],
      "name": "PoolInvariantError",
      "type": "error"
    },
    {
      "inputs": [
        {
          "internalType": "uint256",
          "name": "expectedValueUSD",
          "type": "uint256"
        },
        {
          "internalType": "uint256",
          "name": "receivedValueUSD",
          "type": "uint256"
        }
      ],
      "name": "SlippageExceeded",
      "type": "error"
    },
    {
      "inputs": [],
      "name": "TotalSupplyError",
      "type": "error"
    },
    {
      "inputs": [],
      "name": "ZeroRecipient",
      "type": "error"
    },
    {
      "inputs": [],
      "name": "ZeroWeight",
      "type": "error"
    },
    {
      "anonymous": false,
      "inputs": [
        {
          "indexed": true,
          "internalType": "address",
          "name": "token",
          "type": "address"
        },
        {
          "indexed": false,
          "internalType": "uint256",
          "name": "amount",
          "type": "uint256"
        },
        {
          "indexed": false,
          "internalType": "address",
          "name": "receiver",
          "type": "address"
        }
      ],
      "name": "EmergencyWithdraw",
      "type": "event"
    },
    {
      "anonymous": false,
      "inputs": [
        {
          "indexed": false,
          "internalType": "uint8",
          "name": "version",
          "type": "uint8"
        }
      ],
      "name": "Initialized",
      "type": "event"
    },
    {
      "anonymous": false,
      "inputs": [
        {
          "indexed": false,
          "internalType": "address",
          "name": "",
          "type": "address"
        }
      ],
      "name": "TokenRegistered",
      "type": "event"
    },
    {
      "anonymous": false,
      "inputs": [],
      "name": "UnderlyingTokensUpdated",
      "type": "event"
    },
    {
      "anonymous": false,
      "inputs": [
        {
          "indexed": false,
          "internalType": "address",
          "name": "",
          "type": "address"
        },
        {
          "indexed": false,
          "internalType": "uint256",
          "name": "",
          "type": "uint256"
        },
        {
          "indexed": false,
          "internalType": "address",
          "name": "",
          "type": "address"
        }
      ],
      "name": "Withdraw",
      "type": "event"
    },
    {
      "inputs": [],
      "name": "ACCESS_CONTROL_SINGLETON",
      "outputs": [
        {
          "internalType": "contract ISuAccessControl",
          "name": "",
          "type": "address"
        }
      ],
      "stateMutability": "view",
      "type": "function"
    },
    {
      "inputs": [],
      "name": "ADMIN_ROLE",
      "outputs": [
        {
          "internalType": "bytes32",
          "name": "",
          "type": "bytes32"
        }
      ],
      "stateMutability": "view",
      "type": "function"
    },
    {
      "inputs": [],
      "name": "ALERTER_ROLE",
      "outputs": [
        {
          "internalType": "bytes32",
          "name": "",
          "type": "bytes32"
        }
      ],
      "stateMutability": "view",
      "type": "function"
    },
    {
      "inputs": [],
      "name": "CDP_ACCESS_ROLE",
      "outputs": [
        {
          "internalType": "bytes32",
          "name": "",
          "type": "bytes32"
        }
      ],
      "stateMutability": "view",
      "type": "function"
    },
    {
      "inputs": [],
      "name": "DAO_ROLE",
      "outputs": [
        {
          "internalType": "bytes32",
          "name": "",
          "type": "bytes32"
        }
      ],
      "stateMutability": "view",
      "type": "function"
    },
    {
      "inputs": [],
      "name": "DISABLER_ROLE",
      "outputs": [
        {
          "internalType": "bytes32",
          "name": "",
          "type": "bytes32"
        }
      ],
      "stateMutability": "view",
      "type": "function"
    },
    {
      "inputs": [],
      "name": "LIQUIDATION_ACCESS_ROLE",
      "outputs": [
        {
          "internalType": "bytes32",
          "name": "",
          "type": "bytes32"
        }
      ],
      "stateMutability": "view",
      "type": "function"
    },
    {
      "inputs": [],
      "name": "MINT_ACCESS_ROLE",
      "outputs": [
        {
          "internalType": "bytes32",
          "name": "",
          "type": "bytes32"
        }
      ],
      "stateMutability": "view",
      "type": "function"
    },
    {
      "inputs": [],
      "name": "ORACLE",
      "outputs": [
        {
          "internalType": "contract ISuOracle",
          "name": "",
          "type": "address"
        }
      ],
      "stateMutability": "view",
      "type": "function"
    },
    {
      "inputs": [],
      "name": "PROXY_ACTIONS_ROLE",
      "outputs": [
        {
          "internalType": "bytes32",
          "name": "",
          "type": "bytes32"
        }
      ],
      "stateMutability": "view",
      "type": "function"
    },
    {
      "inputs": [],
      "name": "REWARD_ACCESS_ROLE",
      "outputs": [
        {
          "internalType": "bytes32",
          "name": "",
          "type": "bytes32"
        }
      ],
      "stateMutability": "view",
      "type": "function"
    },
    {
      "inputs": [],
      "name": "VOTING_ESCROW_ROLE",
      "outputs": [
        {
          "internalType": "bytes32",
          "name": "",
          "type": "bytes32"
        }
      ],
      "stateMutability": "view",
      "type": "function"
    },
    {
      "inputs": [
        {
          "internalType": "address",
          "name": "lp",
          "type": "address"
        }
      ],
      "name": "checkUnderlyingTokens",
      "outputs": [
        {
          "internalType": "bool",
          "name": "",
          "type": "bool"
        }
      ],
      "stateMutability": "view",
      "type": "function"
    },
    {
      "inputs": [
        {
          "internalType": "address[]",
          "name": "tokens",
          "type": "address[]"
        },
        {
          "internalType": "address",
          "name": "receiver",
          "type": "address"
        }
      ],
      "name": "emergencyWithdraw",
      "outputs": [],
      "stateMutability": "nonpayable",
      "type": "function"
    },
    {
      "inputs": [
        {
          "internalType": "address",
          "name": "asset",
          "type": "address"
        }
      ],
      "name": "getFiatPrice1e18",
      "outputs": [
        {
          "internalType": "uint256",
          "name": "",
          "type": "uint256"
        }
      ],
      "stateMutability": "view",
      "type": "function"
    },
    {
      "inputs": [
        {
          "internalType": "address",
          "name": "_authControl",
          "type": "address"
        },
        {
          "internalType": "address",
          "name": "_oracle",
          "type": "address"
        }
      ],
      "name": "initialize",
      "outputs": [],
      "stateMutability": "nonpayable",
      "type": "function"
    },
    {
      "inputs": [
        {
          "internalType": "address",
          "name": "asset",
          "type": "address"
        }
      ],
      "name": "isAdapterLP",
      "outputs": [
        {
          "internalType": "bool",
          "name": "",
          "type": "bool"
        }
      ],
      "stateMutability": "view",
      "type": "function"
    },
    {
      "inputs": [
        {
          "internalType": "address",
          "name": "",
          "type": "address"
        }
      ],
      "name": "lps",
      "outputs": [
        {
          "internalType": "bytes32",
          "name": "poolId",
          "type": "bytes32"
        },
        {
          "internalType": "contract IVault",
          "name": "vault",
          "type": "address"
        }
      ],
      "stateMutability": "view",
      "type": "function"
    },
    {
      "inputs": [
        {
          "internalType": "address",
          "name": "lp",
          "type": "address"
        }
      ],
      "name": "registerLP",
      "outputs": [],
      "stateMutability": "nonpayable",
      "type": "function"
    },
    {
      "inputs": [
        {
          "internalType": "bytes4",
          "name": "interfaceId",
          "type": "bytes4"
        }
      ],
      "name": "supportsInterface",
      "outputs": [
        {
          "internalType": "bool",
          "name": "",
          "type": "bool"
        }
      ],
      "stateMutability": "view",
      "type": "function"
    },
    {
      "inputs": [
        {
          "internalType": "address",
          "name": "lp",
          "type": "address"
        }
      ],
      "name": "updateUnderlyingTokens",
      "outputs": [],
      "stateMutability": "nonpayable",
      "type": "function"
    },
    {
      "inputs": [
        {
          "internalType": "address",
          "name": "asset",
          "type": "address"
        },
        {
          "internalType": "uint256",
          "name": "amount",
          "type": "uint256"
        },
        {
          "internalType": "uint256",
          "name": "maxSlippageBps",
          "type": "uint256"
        }
      ],
      "name": "withdraw",
      "outputs": [
        {
          "components": [
            {
              "internalType": "address",
              "name": "token",
              "type": "address"
            },
            {
              "internalType": "uint256",
              "name": "amount",
              "type": "uint256"
            }
          ],
          "internalType": "struct WithdrawResult[]",
          "name": "results",
          "type": "tuple[]"
        }
      ],
      "stateMutability": "nonpayable",
      "type": "function"
    },
    {
      "inputs": [
        {
          "internalType": "address",
          "name": "asset",
          "type": "address"
        },
        {
          "internalType": "uint256",
          "name": "amount",
          "type": "uint256"
        },
        {
          "internalType": "uint256",
          "name": "maxSlippageBps",
          "type": "uint256"
        },
        {
          "internalType": "address",
          "name": "receiver",
          "type": "address"
        }
      ],
      "name": "withdrawTo",
      "outputs": [
        {
          "components": [
            {
              "internalType": "address",
              "name": "token",
              "type": "address"
            },
            {
              "internalType": "uint256",
              "name": "amount",
              "type": "uint256"
            }
          ],
          "internalType": "struct WithdrawResult[]",
          "name": "results",
          "type": "tuple[]"
        }
      ],
      "stateMutability": "nonpayable",
      "type": "function"
    }
  ],
  "numDeployments": 1,
  "solcInputHash": "403b958b64b1c77d13b9eddc7dda2091",
  "bytecode": "0x60808060405234620000c6576000549060ff8260081c1662000074575060ff8082160362000038575b6040516135319081620000cc8239f35b60ff90811916176000557f7f26b83ff96e1f2b6a682f133852f6798a09c465da95921460cefb3847402498602060405160ff8152a13862000028565b62461bcd60e51b815260206004820152602760248201527f496e697469616c697a61626c653a20636f6e747261637420697320696e697469604482015266616c697a696e6760c81b6064820152608490fd5b600080fdfe60806040526004361015610013575b600080fd5b60003560e01c806301ffc9a7146101df57806303ee9f22146101d657806318e4f0cc146101cd5780631e96838b146101c457806338013f02146101bb578063438280dd146101b2578063485cc955146101a957806351362117146101a057806371d0fb411461019757806375b238fc1461018e5780638e5313e014610185578063b38234f31461017c578063b5c5f67214610173578063b9ac2b381461016a578063bd5f5be614610161578063ca3b2e8e14610158578063cafdb2171461014f578063d0e8fa8214610146578063d12e73321461013d578063d1dff44f14610134578063d2351cee1461012b578063dc97e84e146101225763e9c265181461011a57600080fd5b61000e610995565b5061000e610959565b5061000e61091d565b5061000e6108bb565b5061000e610870565b5061000e61081a565b5061000e6107f2565b5061000e61074e565b5061000e610712565b5061000e6106e2565b5061000e6106af565b5061000e610673565b5061000e610637565b5061000e61061a565b5061000e6105de565b5061000e6105ac565b5061000e6104b2565b5061000e610476565b5061000e61044c565b5061000e61038f565b5061000e610345565b5061000e6102b3565b503461000e57602036600319011261000e5760043563ffffffff60e01b811680910361000e576000546040516301ffc9a760e01b8152600481019290925261025d91906020908290602490829060101c6001600160a01b03165afa90811561028f575b600091610261575b5060405190151581529081906020820190565b0390f35b610282915060203d8111610288575b61027a8183610a3e565b810190610a61565b3861024a565b503d610270565b610297610a79565b610242565b600091031261000e57565b6001600160a01b031690565b503461000e57600036600319011261000e5760005460405160109190911c6001600160a01b03168152602090f35b6001600160a01b0381160361000e57565b60208082019080835283518092528060408094019401926000905b83821061031c57505050505090565b845180516001600160a01b0316875283015186840152948501949382019360019091019061030d565b503461000e57608036600319011261000e5761025d610383600435610369816102e1565b60643590610376826102e1565b60443590602435906116e0565b604051918291826102f2565b503461000e57602036600319011261000e576004356103ad816102e1565b6000546103ca9060101c6001600160a01b03166102a7565b6102a7565b60206040518092632474521560e21b825281806103ea3360048301610c2b565b03915afa90811561043f575b600091610421575b501561040f5761040d90610edf565b005b604051631886ea7d60e11b8152600490fd5b610439915060203d81116102885761027a8183610a3e565b386103fe565b610447610a79565b6103f6565b503461000e57600036600319011261000e576034546040516001600160a01b039091168152602090f35b503461000e57600036600319011261000e5760206040517f39f61ca2a1a28fee144218173ec637b649a353e4026b2738c673800e5bf1437b8152f35b503461000e57604036600319011261000e576004356104d0816102e1565b6105206024356104df816102e1565b6000549261050460ff8560081c16158095819661059e575b811561057e575b50610a86565b83610517600160ff196000541617600055565b61056557610ae9565b61052657005b61053661ff001960005416600055565b604051600181527f7f26b83ff96e1f2b6a682f133852f6798a09c465da95921460cefb384740249890602090a1005b61057961010061ff00196000541617600055565b610ae9565b303b15915081610590575b50386104fe565b6001915060ff161438610589565b600160ff82161091506104f7565b503461000e57602036600319011261000e5760206105d46004356105cf816102e1565b6111ab565b6040519015158152f35b503461000e57600036600319011261000e5760206040517f880a91047114272656e533301261260c75e4d11543ac7303d6fe4204579ec7278152f35b503461000e57600036600319011261000e57602060405160008152f35b503461000e57600036600319011261000e5760206040517fe453bacb314e78dcd5192e6b1a2b1f0e7c76e92f6b7e429a6a90f04e39db3b768152f35b503461000e57600036600319011261000e5760206040517fd83f5343da19b478b15a140c301a868be9e02603958f38fbd822b9d5c0a289168152f35b503461000e57606036600319011261000e5761025d6103836004356106d3816102e1565b339060443590602435906116e0565b503461000e57602036600319011261000e57602061070a600435610705816102e1565b6114ba565b604051908152f35b503461000e57600036600319011261000e5760206040517f4f14c8366fa999817edc9f29824eb88a00cc31225e2156f399da4bc91049eb108152f35b503461000e57602036600319011261000e5760043561076c816102e1565b6000546107849060101c6001600160a01b03166102a7565b60206040518092632474521560e21b825281806107a43360048301610c2b565b03915afa9081156107e5575b6000916107c7575b501561040f5761040d906113d8565b6107df915060203d81116102885761027a8183610a3e565b386107b8565b6107ed610a79565b6107b0565b503461000e57602036600319011261000e5760206105d4600435610815816102e1565b6112be565b503461000e57600036600319011261000e5760206040517f76d0567582f23e1e9d7a13eeba60f9aea9d69b8da87ca27a8bf3698b35c653db8152f35b6001600160a01b0316600090815260336020526040902090565b503461000e57602036600319011261000e576040600435610890816102e1565b60018060a01b0380911660005260336020528160002090600182549201541682519182526020820152f35b503461000e57604036600319011261000e576001600160401b0360043581811161000e573660238201121561000e57806004013591821161000e573660248360051b8301011161000e5761040d916024803592610917846102e1565b016121e0565b503461000e57600036600319011261000e5760206040517fb0fdd1623e42dbffda4acd8bd643e1cb69f00f0e83abeaa8150ee42cf0fd105e8152f35b503461000e57600036600319011261000e5760206040517f9a9aef7c1247d5fc769b0185c052913e39673da29a880317dfd20ebf86f26a498152f35b503461000e57600036600319011261000e5760206040517f3b5d4cc60d3ec3516ee8ae083bd60934f6eb2a6c54b1229985c41bfb092b26038152f35b50634e487b7160e01b600052604160045260246000fd5b606081019081106001600160401b03821117610a0357604052565b610a0b6109d1565b604052565b6001600160401b038111610a0357604052565b604081019081106001600160401b03821117610a0357604052565b601f909101601f19168101906001600160401b03821190821017610a0357604052565b9081602091031261000e5751801515810361000e5790565b506040513d6000823e3d90fd5b15610a8d57565b60405162461bcd60e51b815260206004820152602e60248201527f496e697469616c697a61626c653a20636f6e747261637420697320616c72656160448201526d191e481a5b9a5d1a585b1a5e995960921b6064820152608490fd5b60ff60005460081c1615610bd2576000805462010000600160b01b031916601083901b62010000600160b01b03161790556001600160a01b039081168015908115610b67575b50610b5557610b53911660018060a01b031660018060a01b03196034541617603455565b565b6040516384d942fd60e01b8152600490fd5b6040516301ffc9a760e01b8152637965db0b60e01b60048201529150602090829060249082905afa908115610bc5575b600091610ba7575b501538610b2f565b610bbf915060203d81116102885761027a8183610a3e565b38610b9f565b610bcd610a79565b610b97565b60405162461bcd60e51b815260206004820152602b60248201527f496e697469616c697a61626c653a20636f6e7472616374206973206e6f74206960448201526a6e697469616c697a696e6760a81b6064820152608490fd5b600081526001600160a01b03909116602082015260400190565b9081602091031261000e5751610c5a816102e1565b90565b6001600160a01b03909116815260200190565b9081602091031261000e575160ff8116810361000e5790565b9081602091031261000e575190565b60405190608082016001600160401b03811183821017610a0357604052565b60405190610b5382610a23565b6020906001600160401b038111610cdd575b60051b0190565b610ce56109d1565b610cd6565b81601f8201121561000e57805191610d0183610cc4565b92610d0f6040519485610a3e565b808452602092838086019260051b82010192831161000e578301905b828210610d39575050505090565b81518152908301908301610d2b565b909160608284031261000e5781516001600160401b03939084811161000e5783019381601f8601121561000e578451610d8081610cc4565b90610d8e6040519283610a3e565b808252602096878084019260051b8201019185831161000e5788809201905b838210610dd757505050509484015190811161000e57604091610dd1918501610cea565b92015190565b8280918351610de5816102e1565b815201910190610dad565b50634e487b7160e01b600052601160045260246000fd5b81810292918115918404141715610e1a57565b610b53610df0565b516001600160a01b031690565b8151916001600160401b038311610ed2575b600160401b8311610ec5575b8154838355808410610e9c575b50610e6f602080920192600052602060002090565b9060005b848110610e81575050505050565b60019082610e8f86516102a7565b9501948185015501610e73565b6000838152846020822092830192015b828110610eba575050610e5a565b818155600101610eac565b610ecd6109d1565b610e4d565b610eda6109d1565b610e41565b604080516311b2515f60e31b81526004906020906001600160a01b03858116919083828681865afa91821561119e575b60009261116f575b50811691821561115657610f436103c56103c56001610f358b610856565b01546001600160a01b031690565b61113d57601260ff875163313ce56760e01b815286818981875afa908115611130575b600091611103575b5016036110e65790848461102595949388519283809263038fff2d60e41b82525afa9384156110d9575b6000946110aa575b5050600086518093631f29a8cd60e31b82528180610fc5888b83019190602083019252565b03915afa91821561109d575b600092611076575b506110149192610fe888610856565b556001610ff488610856565b0180546001600160a01b0319166001600160a01b03909216919091179055565b600261101f86610856565b01610e2f565b61102e836114ba565b156110685750517f158412daecdc1456d01568828bcdb18464cc7f1ce0215ddbc3f3cfede9d1e63d9181906110639082610c5d565b0390a1565b9051633b045b2f60e01b8152fd5b61109590611014933d8091833e61108d8183610a3e565b810190610d48565b505091610fd9565b6110a5610a79565b610fd1565b6110ca929450803d106110d2575b6110c28183610a3e565b810190610c89565b913880610fa0565b503d6110b8565b6110e1610a79565b610f98565b855163144a426560e31b8152806110ff89828901610c5d565b0390fd5b6111239150873d8911611129575b61111b8183610a3e565b810190610c70565b38610f6e565b503d611111565b611138610a79565b610f66565b85516345ed80e960e01b8152806110ff89828901610c5d565b8551631e489be560e01b8152806110ff89828901610c5d565b611190919250843d8611611197575b6111888183610a3e565b810190610c45565b9038610f17565b503d61117e565b6111a6610a79565b610f0f565b6001600160a01b0390811660009081526033602052604090206001015416151590565b90604051916111dc836109e8565b828154815260018060a01b036001926002828583015416916020928386015201906040519485869483855492838152019460005283600020936000915b8383106112395750505050505060409291611235910384610a3e565b0152565b855481168752899750958101959484019491840191611219565b6001906000198114611263570190565b61126b610df0565b0190565b50634e487b7160e01b600052603260045260246000fd5b602090805115611294570190565b61126b61126f565b60209181518110156112b1575b60051b010190565b6112b961126f565b6112a9565b6112ce6112ca826111ab565b1590565b6113d2576112de6112e391610856565b6111ce565b61131c6112f66103c560208401516102a7565b82516040518092631f29a8cd60e31b825281806000968795600483019190602083019252565b03915afa9081156113c5575b82916113a9575b506040815193019081515184036113a257825b848110611353575050505050600190565b6113686103c5611363838561129c565b610e22565b61137c6103c56103c561136385885161129c565b6001600160a01b039091160361139a5761139590611253565b611342565b505050905090565b5050905090565b6113bd91503d8084833e61108d8183610a3e565b50503861132f565b6113cd610a79565b611328565b50600090565b6113e46112ca826111ab565b61149d5761142c6113f761144992610856565b60006114096103c560018401546102a7565b8254906040518080968194631f29a8cd60e31b8352600483019190602083019252565b03915afa918215611490575b600092611470575b50600201610e2f565b7f323e83facc076019f3e08edf2af50cc4f87861f86b16d0cddf345401483a29cb600080a1565b61148790600292933d8091833e61108d8183610a3e565b50509190611440565b611498610a79565b611438565b604051631e489be560e01b81529081906110ff9060048301610c5d565b906114c4826111ab565b1561157a5760018060a01b0391828116600052602092603384526040600020604051946114f0866109e8565b815486526001906002848385015416938289019485520191604051809583855492838152019460005283600020936000915b83831061156357505050505050610c5a949561154384611551930385610a3e565b8360408201525191516102a7565b9061155d6034546102a7565b936123e9565b855481168752958101959484019491840191611522565b604051631e489be560e01b81526001600160a01b0383166004820152602490fd5b50634e487b7160e01b600052601260045260246000fd5b81156115bc570490565b6115c461159b565b0490565b90612710918203918211610e1a57565b600019810191908211610e1a57565b91908203918211610e1a57565b906115fe82610cc4565b604061160c81519283610a3e565b838252819361161d601f1991610cc4565b0191600090815b848110611632575050505050565b8351602091908086016001600160401b03811182821017611664575b8652848152828581830152828501015201611624565b61166c6109d1565b61164e565b9060408201809211610e1a57565b9060208201809211610e1a57565b9060108201809211610e1a57565b9060088201809211610e1a57565b9060048201809211610e1a57565b9060028201809211610e1a57565b9060018201809211610e1a57565b91908201809211610e1a57565b909193926116f06112ca836111ab565b611913576127108510156119015761173e61173661173061172a61171c611716876114ba565b88610e07565b670de0b6b3a7640000900490565b976115c8565b87610e07565b612710900490565b6001600160a01b0395611755853033878b16611983565b61175f8585611d05565b80516000939161176e826115f4565b998591865b8481106117f457505050505082106117d2575050604080516001600160a01b03938416815260208101949094529116908201527f56c54ba9bd38d8fd62012e42c7ee564519b09763c426d331b3661b537ead19b2908060608101611063565b6040516371c4efed60e01b815260048101919091526024810191909152604490fd5b611807611801828461129c565b51610e22565b8d848216918b83611825575b5050505061182090611253565b611773565b6118cd9297916118a7916118a187969e61189b61171c61185261187f6118209c8e6020938492839261129c565b510151986118646103c56034546102a7565b6040518080958194631735856760e31b835260048301610c5d565b03915afa9182156118f4575b6000926118d7575b505086610e07565b906116d3565b9d611949565b6118b1838661129c565b51966118bc82611253565b976118c7838361129c565b5261129c565b50908d388b611813565b6118ed9250803d106110d2576110c28183610a3e565b3880611893565b6118fc610a79565b61188b565b60405163334ee9a160e01b8152600490fd5b604051631e489be560e01b8152806110ff8460048301610c5d565b6001600160a01b039091168152602081019190915260400190565b61197e610b53939261197060405194859263a9059cbb60e01b60208501526024840161192e565b03601f198101845283610a3e565b6119e8565b6040516323b872dd60e01b60208201526001600160a01b039283166024820152929091166044830152606480830193909352918152610b539160a082018281106001600160401b038211176119db575b6040526119e8565b6119e36109d1565b6119d3565b604051611a46916001600160a01b0316611a0182610a23565b6000806020958685527f5361666545524332303a206c6f772d6c6576656c2063616c6c206661696c656487860152868151910182855af1611a40611ace565b91611b1b565b805190828215928315611ab6575b50505015611a5f5750565b6084906040519062461bcd60e51b82526004820152602a60248201527f5361666545524332303a204552433230206f7065726174696f6e20646964206e6044820152691bdd081cdd58d8d9595960b21b6064820152fd5b611ac69350820181019101610a61565b388281611a54565b3d15611b16573d906001600160401b038211611b09575b60405191611afd601f8201601f191660200184610a3e565b82523d6000602084013e565b611b116109d1565b611ae5565b606090565b91929015611b7d5750815115611b2f575090565b3b15611b385790565b60405162461bcd60e51b815260206004820152601d60248201527f416464726573733a2063616c6c20746f206e6f6e2d636f6e74726163740000006044820152606490fd5b825190915015611b905750805190602001fd5b60405162461bcd60e51b8152602060048201529081906110ff9060248301905b919082519283825260005b848110611bdc575050826000602080949584010152601f8019910116010190565b602081830181015184830182015201611bbb565b90611bfa82610cc4565b611c076040519182610a3e565b8281528092611c18601f1991610cc4565b0190602036910137565b90815180825260208080930193019160005b828110611c42575050505090565b835185529381019392810192600101611c34565b929190835260018060a01b0380928160209316838601521660408401526080606084015261010083019184519260808086015283518091528261012086019401916000905b828210611cec57505050506060611ce2610c5a9493611ccd60e09488015191607f1992838883030160a0890152611c22565b906040880151908683030160c0870152611bb0565b9401511515910152565b8351811686529484019492840192600190910190611c9b565b919091611d146112de82610856565b9060209081830192611d2e611d2985516102a7565b61348a565b6040958682019283515195611d466103c582516102a7565b6001600160a01b039283169287908590831685141580612173575b612110575b505050611d7287611bf0565b9360005b88811061208f5750611d8788611bf0565b91611d9189611bf0565b9060005b888b821061204457505090611dcf611db36103c561197094516102a7565b9351968d519384918c8301919060206040840193600181520152565b611dd7610c98565b938452888401528a83015260006060830152803b1561000e57611e1a6000929183928c51948580948193638bdb391360e01b835260049a309030908d8601611c56565b03925af18015612037575b61201e575b50611e3e6103c56103c56113638751611286565b03611f4857611e54611e4f866115d8565b6115f4565b9660015b868110611e685750505050505050565b80611f138a611ec9611e846103c5611363611f19978c5161129c565b86516370a0823160e01b8152908b9082908180611ea3308e8301610c5d565b03915afa908115611f3b575b600091611f1e575b50611ec2858a61129c565b51906115e7565b611eda6103c5611363868c5161129c565b90611ef5611ee6610cb7565b6001600160a01b039093168352565b8a820152611f0c611f05856115d8565b809361129c565b528b61129c565b50611253565b611e58565b611f3591508b3d8d116110d2576110c28183610a3e565b38611eb7565b611f43610a79565b611eaf565b611f51856115f4565b9660005b868110611f655750505050505050565b80611fb9611f7d6103c5611363611fef958a5161129c565b88855180926370a0823160e01b82528180611f9a308c8301610c5d565b03915afa908115612011575b600091611ff4575b50611ec2838861129c565b611fca6103c5611363848a5161129c565b90611fd6611ee6610cb7565b88820152611fe4828c61129c565b52611f13818b61129c565b611f55565b61200b9150893d8b116110d2576110c28183610a3e565b38611fae565b612019610a79565b611fa6565b8061202b61203192610a10565b8061029c565b38611e2a565b61203f610a79565b611e25565b9061207861205f6103c56103c56113638561208a975161129c565b612069838961129c565b6001600160a01b039091169052565b6000612084828661129c565b52611253565b611d95565b806120a46103c56113636120e1948b5161129c565b898d5180926370a0823160e01b825281806120c23060048301610c5d565b03915afa908115612103575b6000916120e6575b50612084828961129c565b611d76565b6120fd91508a3d8c116110d2576110c28183610a3e565b386120d6565b61210b610a79565b6120ce565b8b5163095ea7b360e01b8152928391829161212f91906004840161192e565b03816000875af18015612166575b612149575b8684611d66565b61215f90873d89116102885761027a8183610a3e565b5038612142565b61216e610a79565b61213d565b508b51636eb1769f60e11b81523060048201526001600160a01b0384166024820152819083816044818a5afa9081156121d3575b6000916121b6575b5010611d61565b6121cd9150843d86116110d2576110c28183610a3e565b386121af565b6121db610a79565b6121a7565b9160018060a01b0390600082815460101c1693604093845191632474521560e21b83526020928381600499818061221a8d33908301610c2b565b03915afa908115612365575b8591612348575b5015612338578185161561232857835b81811061224f57505050505050505050565b80836122676122626122aa94868e612372565b61238a565b16612286868b8b51809381926370a0823160e01b835230908301610c5d565b0381855afa90811561231b575b88916122fe575b5088816122af575b505050611253565b61223d565b816122dc7faaeda929aa102e867049528ec7cd2499e3a2f8846e736ae7935f234dfbf500d9938386611949565b8b519081526001600160a01b03919091166020820152604090a23880886122a2565b6123159150873d89116110d2576110c28183610a3e565b3861229a565b612323610a79565b612293565b855163d27b444360e01b81528790fd5b8551631886ea7d60e11b81528790fd5b61235f9150843d86116102885761027a8183610a3e565b3861222d565b61236d610a79565b612226565b91908110156123825760051b0190565b610ce561126f565b35610c5a816102e1565b9060208282031261000e5781516001600160401b03811161000e57610c5a9201610cea565b60ff166012039060ff8211610e1a57565b60ff16604d81116123dc575b600a0a90565b6123e4610df0565b6123d6565b93919290926123f78161348a565b60408051631f29a8cd60e31b81526004808201969096526001600160a01b039560009587949293919287908590602490829089165afa9283156126c5575b879488946126a2575b50878a8285518099819363f89f27ed60e01b8352165afa958615612695575b8896612671575b509794939291906a0c097ce7bc90715b34b9f160249897981b986124888551611bf0565b94519688995b888b106124d057505050505050505050505090670de0b6b3a76400006124c96124c3610c5a946124bd8561332c565b9061286b565b926133de565b91056126f1565b909192939495969798999a6124e58c8a61129c565b5115612661576124fb6103c56113638e8561129c565b865163313ce56760e01b8152602091908d90838189818a87165afa918215612654575b91612637575b50601260ff821611612627578b8f8f9061258c6125cf8f8f908f8f8f978f8d6125ee9f9d9e6125e89f8b98956124bd9f9d6125ab956125e19f998c996125926125776125726125c59e6123b9565b6123ca565b9b61258c8d612586838661129c565b51610e07565b9261129c565b5251809781958294631735856760e31b84528301610c5d565b0392165afa92831561261a575b926125fd575b50506115b2565b6118c7838361129c565b516125da838661129c565b51906126f1565b51906129a1565b9b611253565b9998979695949392919061248e565b6126139250803d106110d2576110c28183610a3e565b38806125be565b612622610a79565b6125b8565b885163a3095eff60e01b81528790fd5b61264e9150833d85116111295761111b8183610a3e565b38612524565b61265c610a79565b61251e565b85516319a2a9bd60e01b81528490fd5b61268e9196503d808a833e6126868183610a3e565b810190612394565b9438612464565b61269d610a79565b61245d565b9093506126ba9194503d8089833e61108d8183610a3e565b50939093923861243e565b6126cd610a79565b612435565b600160ff1b81146126e4575b60000390565b6126ec610df0565b6126de565b600160ff1b81811490811561278d575b5061277b5760008112156127725761272a816000035b600084121561276b578360000390612797565b916001600160ff1b03831161275257600019918212911218600103610c5a57610c5a906126d2565b604051637cb4bef560e01b815260048101849052602490fd5b8390612797565b61272a81612717565b60405163b3c754a360e01b8152600490fd5b9050821438612701565b670de0b6b3a7640000916000198383099280830292838086109503948086039514612837578285101561281757908291096001821901821680920460028082600302188083028203028083028203028083028203028083028203028083028203028092029003029360018380600003040190848311900302920304170290565b604051631dcf306360e21b81526004810186905260248101849052604490fd5b505090610c5a92506115b2565b801561285e575b6a0c097ce7bc90715b34b9f160241b0590565b61286661159b565b61284b565b600160ff1b818114908115612904575b506128f25760008112156128e9576128a4816000035b60008412156128e257836000039061290e565b916001600160ff1b0383116128c957600019918212911218600103610c5a5760000390565b60405163bf79e8d960e01b815260048101849052602490fd5b839061290e565b6128a481612891565b604051630d01a11b60e21b8152600490fd5b905082143861287b565b600019828209828202908180821091039381850390670de0b6b3a764000094858310156129885790859109916706f05b59d3b1ffff83119514612981577faccb18165bd6fe31ae1cf318dc5b51eee0e1ba569b88cd74c1773b91fac106699350828211900360ee1b910360121c17020190565b5050040190565b60405163698d9a0160e11b815260048101849052602490fd5b806129bb5750600090610c5a5750670de0b6b3a764000090565b610c5a916129cb6129d092613181565b61286b565b5b6000811215612a005768033dd1780914b971141981126113d2576129f7906000036129d1565b610c5a90612844565b680a688906bd8b00000081121561316957604090670de0b6b3a764000090821b81900490600160bf1b6001603f1b8316613156575b6001603e1b8316613144575b6001603d1b8316613132575b6001603c1b8316613120575b6001603b1b831661310e575b6001603a1b83166130fc575b600160391b83166130ea575b600160381b83166130d8575b600160371b83166130c6575b600160361b83166130b4575b600160351b83166130a2575b600160341b8316613090575b600160331b831661307e575b600160321b831661306c575b600160311b831661305a575b600160301b8316613048575b6001602f1b8316613036575b6001602e1b8316613024575b6001602d1b8316613012575b6001602c1b8316613000575b6001602b1b8316612fee575b6001602a1b8316612fdc575b600160291b8316612fca575b600160281b8316612fb8575b600160271b8316612fa6575b600160261b8316612f94575b600160251b8316612f82575b600160241b8316612f70575b600160231b8316612f5e575b600160221b8316612f4c575b600160211b8316612f3a575b600160201b8316612f28575b63800000008316612f16575b63400000008316612f04575b63200000008316612ef2575b63100000008316612ee0575b63080000008316612ece575b63040000008316612ebc575b63020000008316612eaa575b63010000008316612e98575b628000008316612e86575b624000008316612e74575b622000008316612e62575b621000008316612e50575b620800008316612e3e575b620400008316612e2c575b620200008316612e1a575b620100008316612e09575b6180008316612df8575b6140008316612de7575b6120008316612dd6575b6110008316612dc5575b6108008316612db4575b6104008316612da3575b6102008316612d92575b6101008316612d82575b60808316612d72575b838316612d62575b60208316612d52575b60108316612d42575b60088316612d32575b60048316612d22575b60028316612d12575b60018316612d02575b02911c60bf031c90565b6001600160401b0102831c612cf8565b6001600160401b0102831c612cef565b6003600160401b0102831c612ce6565b6006600160401b0102831c612cdd565b600b600160401b0102831c612cd4565b6016600160401b0102831c612ccb565b602c600160401b0102831c612cc2565b6059600160401b0102831c612cba565b60b1600160401b0102831c612cb1565b610163600160401b0102831c612ca7565b6102c6600160401b0102831c612c9d565b61058c600160401b0102831c612c93565b610b17600160401b0102831c612c89565b61162e600160401b0102831c612c7f565b612c5d600160401b0102831c612c75565b6158b9600160401b0102831c612c6b565b61b172600160401b0102831c612c61565b680100000000000162e402831c612c56565b6801000000000002c5c802831c612c4b565b68010000000000058b9102831c612c40565b680100000000000b172102831c612c35565b68010000000000162e4302831c612c2a565b680100000000002c5c8602831c612c1f565b6801000000000058b90c02831c612c14565b68010000000000b1721802831c612c09565b6801000000000162e43002831c612bfd565b68010000000002c5c86002831c612bf1565b680100000000058b90c002831c612be5565b6801000000000b17217f02831c612bd9565b680100000000162e42ff02831c612bcd565b6801000000002c5c85fe02831c612bc1565b68010000000058b90bfc02831c612bb5565b680100000000b17217f802831c612ba9565b68010000000162e42ff102831c612b9d565b680100000002c5c85fe302831c612b91565b6801000000058b90bfce02831c612b85565b68010000000b17217fbb02831c612b79565b6801000000162e42fff002831c612b6d565b68010000002c5c8601cc02831c612b61565b680100000058b90c0b4902831c612b55565b6801000000b17218355102831c612b49565b680100000162e430e5a202831c612b3d565b6801000002c5c863b73f02831c612b31565b68010000058b90cf1e6e02831c612b25565b680100000b1721bcfc9a02831c612b19565b68010000162e43f4f83102831c612b0d565b680100002c5c89d5ec6d02831c612b01565b6801000058b91b5bc9ae02831c612af5565b68010000b17255775c0402831c612ae9565b6801000162e525ee054702831c612add565b68010002c5cc37da949202831c612ad1565b680100058ba01fb9f96d02831c612ac5565b6801000b175effdc76ba02831c612ab9565b680100162f3904051fa102831c612aad565b6801002c605e2e8cec5002831c612aa1565b68010058c86da1c09ea202831c612a95565b680100b1afa5abcbed6102831c612a89565b68010163da9fb33356d802831c612a7d565b680102c9a3e778060ee702831c612a71565b6801059b0d31585743ae02831c612a65565b68010b5586cf9890f62a02831c612a59565b6801172b83c7d517adce02831c612a4d565b6801306fe0a31b7152df02831c612a41565b5068016a09e667f3bcc909607f1b612a35565b6024906040519063e69458f960e01b82526004820152fd5b6000908181131561322b57670de0b6b3a76400009182821261320e576001925b6131ac818405613245565b81810293811d9082821461320357506706f05b59d3b20000905b8382136131d557505050500290565b808391020590671bc16d674ec800008212156131f5575b60011d906131c6565b809194019360011d906131ec565b925050929150020290565b600019926a0c097ce7bc90715b34b9f160241b92909204916131a1565b60405163309fa7dd60e11b81526004810191909152602490fd5b60009190600160801b811015613321575b600290600160401b81101561330e575b600160201b8110156132fb575b620100008110156132e8575b6101008110156132d5575b60108110156132c2575b60048110156132b0575b10156132a657565b90610c5a906116c5565b6132bc90821c936116b7565b9261329e565b6132cf9060041c936116a9565b92613294565b6132e29060081c9361169b565b9261328a565b6132f59060101c9361168d565b9261327f565b6133089060201c9361167f565b92613273565b61331b9060401c93611671565b92613266565b60809250821c613256565b6040516316212c4f60e31b81526001600160a01b0391909116906020908181600481865afa600091816133bf575b506133b957508060049260405193848092634d8166ef60e11b82525afa91829160009361339a575b5050610c5a5760405163d0e2db4d60e01b8152600490fd5b6133b1929350803d106110d2576110c28183610a3e565b903880613382565b91505090565b6133d7919250833d85116110d2576110c28183610a3e565b903861335a565b60405163876f303b60e01b81526001600160a01b0391909116906020908181600481865afa6000918161346b575b506133b9575080600492604051938480926318160ddd60e01b82525afa91829160009361344c575b5050610c5a5760405163baf618d960e01b8152600490fd5b613463929350803d106110d2576110c28183610a3e565b903880613434565b613483919250833d85116110d2576110c28183610a3e565b903861340c565b6000809160405160208101906303a38fa160e21b8252836024820152602481526134b3816109e8565b51916001600160a01b0316612710fa506134cb611ace565b516134d257565b62461bcd60e51b60009081526020600452600760245266042414c233430360cc1b604452606490fdfea2646970667358221220aa1328f486d2c0bb68434b6fc756286fd4242e3a85500fc7023c91fa7a6577e964736f6c63430008110033",
  "devdoc": {
    "details": "See IBalancerAdapter and ILPAdapter interface for full details.      IMPORTANT: This adapter intentionally does not support native ETH withdrawals.      Only ERC20 token withdrawals are supported. For ETH-based pools, use the wrapped version (WETH).",
    "kind": "dev",
    "methods": {
      "checkUnderlyingTokens(address)": {
        "details": "In the Balancer adapter, we store list of underlying tokens at lps[lp].underlyingTokens,      however don't hardcode tokens for each pool, because weighted pools can be managed      and their tokens may change over time, so hardcoding can prevent proper withdrawals and price calculations.      Managed pool source code: https://github.com/balancer/balancer-v2-monorepo/blob/master/pkg/pool-weighted/contracts/managed/ManagedPoolSettings.sol#L608      Example managed pool: https://polygonscan.com/address/0xC22bb237A5B8b7260190cb9e4998A9901a68af6f#code",
        "params": {
          "lp": "Address of the LP token to check"
        },
        "returns": {
          "_0": "bool Returns:         - false if LP is not registered in adapter         - false if stored and current token arrays have different lengths         - false if any token addresses don't match at the same index         - true if all tokens match in the same order"
        }
      },
      "constructor": {
        "custom:oz-upgrades-unsafe-allow": "constructor"
      },
      "emergencyWithdraw(address[],address)": {
        "details": "This function is restricted to the admin and allows for emergency withdrawal of tokens.",
        "params": {
          "receiver": "Address of the receiver to receive the tokens.",
          "tokens": "List of tokens to withdraw."
        }
      },
      "getFiatPrice1e18(address)": {
        "params": {
          "asset": "- address of erc20 token contract"
        },
        "returns": {
          "_0": "usdPrice1e18 such that asset.balanceOf() * getFiatPrice1e18(asset) / 1e18 == $$ * 1e18*"
        }
      },
      "isAdapterLP(address)": {
        "params": {
          "asset": "- address of LP token to check*"
        }
      },
      "registerLP(address)": {
        "params": {
          "lp": "LP token to find and set the corresponding info.*"
        }
      },
      "supportsInterface(bytes4)": {
        "details": "Returns true if this contract implements the interface defined by `interfaceId`. See the corresponding https://eips.ethereum.org/EIPS/eip-165#how-interfaces-are-identified[EIP section] to learn more about how these ids are created. This function call must use less than 30 000 gas."
      },
      "updateUnderlyingTokens(address)": {
        "params": {
          "lp": "Address of the LP token to update"
        }
      },
      "withdraw(address,uint256,uint256)": {
        "params": {
          "amount": "- amount of asset to withdraw/unwrap",
          "asset": "- address of LP token to withdraw/unwrap",
          "maxSlippageBps": "Maximum allowed slippage in basis points (1 = 0.01%)*"
        }
      },
      "withdrawTo(address,uint256,uint256,address)": {
        "details": "Only supports ERC20 token withdrawals. Native ETH withdrawals are not supported.      Use WETH for ETH-based pools.",
        "params": {
          "amount": "- amount of asset to withdraw/unwrap",
          "asset": "- address of LP token to withdraw/unwrap",
          "maxSlippageBps": "Maximum allowed slippage in basis points (1 = 0.01%, 10000 = 100%)",
          "receiver": "- receiver of underlying tokens*"
        }
      }
    },
    "title": "BalancerAdapterWeighted",
    "version": 1
  },
  "userdoc": {
    "errors": {
      "PRBMathSD59x18__DivInputTooSmall()": [
        {
          "notice": "Emitted when one of the inputs is MIN_SD59x18."
        }
      ],
      "PRBMathSD59x18__DivOverflow(uint256)": [
        {
          "notice": "Emitted when one of the intermediary unsigned results overflows SD59x18."
        }
      ],
      "PRBMathSD59x18__Exp2InputTooBig(int256)": [
        {
          "notice": "Emitted when the input is greater than 192."
        }
      ],
      "PRBMathSD59x18__FromIntOverflow(int256)": [
        {
          "notice": "Emitted when converting a basic integer to the fixed-point format overflows SD59x18."
        }
      ],
      "PRBMathSD59x18__FromIntUnderflow(int256)": [
        {
          "notice": "Emitted when converting a basic integer to the fixed-point format underflows SD59x18."
        }
      ],
      "PRBMathSD59x18__LogInputTooSmall(int256)": [
        {
          "notice": "Emitted when the input is less than or equal to zero."
        }
      ],
      "PRBMathSD59x18__MulInputTooSmall()": [
        {
          "notice": "Emitted when one of the inputs is MIN_SD59x18."
        }
      ],
      "PRBMathSD59x18__MulOverflow(uint256)": [
        {
          "notice": "Emitted when the intermediary absolute result overflows SD59x18."
        }
      ],
      "PRBMath__MulDivFixedPointOverflow(uint256)": [
        {
          "notice": "Emitted when the result overflows uint256."
        }
      ],
      "PRBMath__MulDivOverflow(uint256,uint256)": [
        {
          "notice": "Emitted when the result overflows uint256."
        }
      ]
    },
    "kind": "user",
    "methods": {
      "checkUnderlyingTokens(address)": {
        "notice": "Verifies if stored underlying tokens match current pool tokens"
      },
      "emergencyWithdraw(address[],address)": {
        "notice": "Withdraw tokens from the adapter in case of emergency."
      },
      "getFiatPrice1e18(address)": {
        "notice": "WARNING! Read this description very carefully!     function getFiatPrice1e18(address asset) returns (uint256) that:         basicAmountOfAsset * getFiatPrice1e18(asset) / 1e18 === $$ * 1e18     in other words, it doesn't matter what's the erc20.decimals is,     you just multiply token balance in basic units on value from oracle and get dollar amount multiplied on 1e18. different assets have different deviation threshold (errors)     for wBTC it's <= 0.5%, read more https://data.chain.link/ethereum/mainnet/crypto-usd/btc-usd     for other asset is can be larger based on particular oracle implementation. examples:     market price of btc = $30k,     for 0.1 wBTC the unit256 amount is 0.1 * 1e18     0.1 * 1e18 * (price1e18 / 1e18) == $3000 == uint256(3000*1e18)     => price1e18 = 30000 * 1e18;     market price of usdt = $0.97,     for 1 usdt uint256 = 1 * 1e6     so 1*1e6 * price1e18 / 1e18 == $0.97 == uint256(0.97*1e18)     => 1*1e6 * (price1e18 / 1e18) / (0.97*1e18)   = 1     =>  price1e18 = 0.97 * (1e18/1e6) * 1e18    assume market price of wBTC = $31,503.77, oracle error = $158     case #1: small amount of wBTC         we have 0.0,000,001 wBTC that is worth v = $0.00315  $0.00001 = 0.00315*1e18 = 315*1e13  1*1e13         actual balance on the asset b = wBTC.balanceOf() =  0.0000001*1e18 = 1e11         oracle should return or = oracle.getFiatPrice1e18(wBTC) <=>         <=> b*or = v => v/b = 315*1e13 / 1e11 = 315*1e2  1e2         error = or.error * b = 1e2 * 1e11 = 1e13 => 1e13/1e18 usd = 1e-5 = 0.00001 usd     case #2: large amount of wBTC         v = 2,000,000 wBTC = $31,503.77 * 2m  158*2m = $63,007,540,000  $316,000,000 = 63,007*1e24  316*1e24         for calc convenience we increase error on 0.05 and have v = 63,000*24  300*1e24 = (630  3)*1e26         b = 2*1e6 * 1e18 = 2*1e24         or = v/b = (630  3)*1e26 / 2*1e24 = 315*1e2  1.5*1e2         error = or.error * b = 1.5*100 * 2*1e24 = 3*1e26 = 3*1e8*1e18 = $300,000,000 ~ $316,000,000     assume the market price of USDT = $0.97  $0.00485,     case #3: little amount of USDT         v = USDT amount 0.005 = 0.005*(0.97  0.00485) = 0.00485*1e18  0.00002425*1e18 = 485*1e13  3*1e13         we rounded error up on (3000-2425)/2425 ~= +24% for calculation convenience.         b = USDT.balanceOf() = 0.005*1e6 = 5*1e3         b*or = v => or = v/b = (485*1e13  3*1e13) / 5*1e3 = 970*1e9  6*1e9         error = 6*1e9 * 5*1e3 / 1e18 = 30*1e12/1e18 = 3*1e-5 = $0,00005     case #4: lot of USDT         v = we have 100,000,000,000 USDT = $97B = 97*1e9*1e18  0.5*1e9*1e18         b = USDT.balanceOf() = 1e11*1e6 = 1e17         or = v/b = (97*1e9*1e18  0.5*1e9*1e18) / 1e17 = 970*1e9  5*1e9         error = 5*1e9 * 1e17 = 5*1e26 = 0.5 * 1e8*1e18"
      },
      "isAdapterLP(address)": {
        "notice": "Returns if asset ig Balancer LP token, registered in our adapter"
      },
      "registerLP(address)": {
        "notice": "Register the given LP token address and set the LP info. We go to the depth = 2, that means, that if LP token {lp} contains {lp1} and {erc20Token1} as underlying tokens, where lp1 contains {erc20Token0} and {erc20Token2}, then we will register that {lp} has {erc20Token0}, {erc20Token2} and {erc20Token1} as underlying tokens."
      },
      "updateUnderlyingTokens(address)": {
        "notice": "Updates the stored underlying tokens at lps[lp].underlyingTokens"
      },
      "withdraw(address,uint256,uint256)": {
        "notice": "Unwrap LP token with depth 2 (if underlying token is LP, it's also unwrapping) with slippage protection"
      },
      "withdrawTo(address,uint256,uint256,address)": {
        "notice": "Like common withdraw with slippage protection, but we can change receiver."
      }
    },
    "notice": "Adapter for Balancer Weighted LP token.",
    "version": 1
  },
  "storageLayout": {
    "storage": [
      {
        "astId": 1226,
        "contract": "contracts/exchange/contracts/periphery/contracts/adapters/Balancer/BalancerAdapterWeighted.sol:BalancerAdapterWeighted",
        "label": "_initialized",
        "offset": 0,
        "slot": "0",
        "type": "t_uint8"
      },
      {
        "astId": 1229,
        "contract": "contracts/exchange/contracts/periphery/contracts/adapters/Balancer/BalancerAdapterWeighted.sol:BalancerAdapterWeighted",
        "label": "_initializing",
        "offset": 1,
        "slot": "0",
        "type": "t_bool"
      },
      {
        "astId": 22590,
        "contract": "contracts/exchange/contracts/periphery/contracts/adapters/Balancer/BalancerAdapterWeighted.sol:BalancerAdapterWeighted",
        "label": "ACCESS_CONTROL_SINGLETON",
        "offset": 2,
        "slot": "0",
        "type": "t_contract(ISuAccessControl)27027"
      },
      {
        "astId": 22861,
        "contract": "contracts/exchange/contracts/periphery/contracts/adapters/Balancer/BalancerAdapterWeighted.sol:BalancerAdapterWeighted",
        "label": "__gap",
        "offset": 0,
        "slot": "1",
        "type": "t_array(t_uint256)50_storage"
      },
      {
        "astId": 23580,
        "contract": "contracts/exchange/contracts/periphery/contracts/adapters/Balancer/BalancerAdapterWeighted.sol:BalancerAdapterWeighted",
        "label": "lps",
        "offset": 0,
        "slot": "51",
        "type": "t_mapping(t_address,t_struct(LPInfoAdapter)27078_storage)"
      },
      {
        "astId": 23583,
        "contract": "contracts/exchange/contracts/periphery/contracts/adapters/Balancer/BalancerAdapterWeighted.sol:BalancerAdapterWeighted",
        "label": "ORACLE",
        "offset": 0,
        "slot": "52",
        "type": "t_contract(ISuOracle)27701"
      },
      {
        "astId": 24508,
        "contract": "contracts/exchange/contracts/periphery/contracts/adapters/Balancer/BalancerAdapterWeighted.sol:BalancerAdapterWeighted",
        "label": "__gap",
        "offset": 0,
        "slot": "53",
        "type": "t_array(t_uint256)50_storage"
      }
    ],
    "types": {
      "t_address": {
        "encoding": "inplace",
        "label": "address",
        "numberOfBytes": "20"
      },
      "t_array(t_contract(IERC20)6874)dyn_storage": {
        "base": "t_contract(IERC20)6874",
        "encoding": "dynamic_array",
        "label": "contract IERC20[]",
        "numberOfBytes": "32"
      },
      "t_array(t_uint256)50_storage": {
        "base": "t_uint256",
        "encoding": "inplace",
        "label": "uint256[50]",
        "numberOfBytes": "1600"
      },
      "t_bool": {
        "encoding": "inplace",
        "label": "bool",
        "numberOfBytes": "1"
      },
      "t_bytes32": {
        "encoding": "inplace",
        "label": "bytes32",
        "numberOfBytes": "32"
      },
      "t_contract(IERC20)6874": {
        "encoding": "inplace",
        "label": "contract IERC20",
        "numberOfBytes": "20"
      },
      "t_contract(ISuAccessControl)27027": {
        "encoding": "inplace",
        "label": "contract ISuAccessControl",
        "numberOfBytes": "20"
      },
      "t_contract(ISuOracle)27701": {
        "encoding": "inplace",
        "label": "contract ISuOracle",
        "numberOfBytes": "20"
      },
      "t_contract(IVault)31479": {
        "encoding": "inplace",
        "label": "contract IVault",
        "numberOfBytes": "20"
      },
      "t_mapping(t_address,t_struct(LPInfoAdapter)27078_storage)": {
        "encoding": "mapping",
        "key": "t_address",
        "label": "mapping(address => struct IBalancerAdapter.LPInfoAdapter)",
        "numberOfBytes": "32",
        "value": "t_struct(LPInfoAdapter)27078_storage"
      },
      "t_struct(LPInfoAdapter)27078_storage": {
        "encoding": "inplace",
        "label": "struct IBalancerAdapter.LPInfoAdapter",
        "members": [
          {
            "astId": 27070,
            "contract": "contracts/exchange/contracts/periphery/contracts/adapters/Balancer/BalancerAdapterWeighted.sol:BalancerAdapterWeighted",
            "label": "poolId",
            "offset": 0,
            "slot": "0",
            "type": "t_bytes32"
          },
          {
            "astId": 27073,
            "contract": "contracts/exchange/contracts/periphery/contracts/adapters/Balancer/BalancerAdapterWeighted.sol:BalancerAdapterWeighted",
            "label": "vault",
            "offset": 0,
            "slot": "1",
            "type": "t_contract(IVault)31479"
          },
          {
            "astId": 27077,
            "contract": "contracts/exchange/contracts/periphery/contracts/adapters/Balancer/BalancerAdapterWeighted.sol:BalancerAdapterWeighted",
            "label": "underlyingTokens",
            "offset": 0,
            "slot": "2",
            "type": "t_array(t_contract(IERC20)6874)dyn_storage"
          }
        ],
        "numberOfBytes": "96"
      },
      "t_uint256": {
        "encoding": "inplace",
        "label": "uint256",
        "numberOfBytes": "32"
      },
      "t_uint8": {
        "encoding": "inplace",
        "label": "uint8",
        "numberOfBytes": "1"
      }
    }
  }
}