{
  "address": "0xCaA8A0dfc4b5FedB0Ee84A6C16e6797B1bbb1560",
  "abi": [
    {
      "inputs": [
        {
          "internalType": "address",
          "name": "asset",
          "type": "address"
        }
      ],
      "name": "AlreadyRegistered",
      "type": "error"
    },
    {
      "inputs": [],
      "name": "BadAccessControlSingleton",
      "type": "error"
    },
    {
      "inputs": [
        {
          "internalType": "address",
          "name": "asset",
          "type": "address"
        }
      ],
      "name": "IsNotLP",
      "type": "error"
    },
    {
      "inputs": [],
      "name": "LPOracleNotReady",
      "type": "error"
    },
    {
      "inputs": [],
      "name": "OnlyAdminError",
      "type": "error"
    },
    {
      "inputs": [],
      "name": "OnlyAlerterError",
      "type": "error"
    },
    {
      "inputs": [],
      "name": "OnlyCDPAccessError",
      "type": "error"
    },
    {
      "inputs": [],
      "name": "OnlyDAOError",
      "type": "error"
    },
    {
      "inputs": [],
      "name": "OnlyDisablerAccessError",
      "type": "error"
    },
    {
      "inputs": [],
      "name": "OnlyLiquidationAccessError",
      "type": "error"
    },
    {
      "inputs": [],
      "name": "OnlyMintAccessError",
      "type": "error"
    },
    {
      "inputs": [],
      "name": "OnlyProxyActionsError",
      "type": "error"
    },
    {
      "inputs": [],
      "name": "OnlyRewardAccessError",
      "type": "error"
    },
    {
      "inputs": [],
      "name": "OnlyRoleError",
      "type": "error"
    },
    {
      "inputs": [],
      "name": "OnlyVaultAccessError",
      "type": "error"
    },
    {
      "inputs": [],
      "name": "OnlyVotingEscrowError",
      "type": "error"
    },
    {
      "inputs": [],
      "name": "PRBMathSD59x18__DivInputTooSmall",
      "type": "error"
    },
    {
      "inputs": [
        {
          "internalType": "uint256",
          "name": "rAbs",
          "type": "uint256"
        }
      ],
      "name": "PRBMathSD59x18__DivOverflow",
      "type": "error"
    },
    {
      "inputs": [
        {
          "internalType": "int256",
          "name": "x",
          "type": "int256"
        }
      ],
      "name": "PRBMathSD59x18__Exp2InputTooBig",
      "type": "error"
    },
    {
      "inputs": [
        {
          "internalType": "int256",
          "name": "x",
          "type": "int256"
        }
      ],
      "name": "PRBMathSD59x18__FromIntOverflow",
      "type": "error"
    },
    {
      "inputs": [
        {
          "internalType": "int256",
          "name": "x",
          "type": "int256"
        }
      ],
      "name": "PRBMathSD59x18__FromIntUnderflow",
      "type": "error"
    },
    {
      "inputs": [
        {
          "internalType": "int256",
          "name": "x",
          "type": "int256"
        }
      ],
      "name": "PRBMathSD59x18__LogInputTooSmall",
      "type": "error"
    },
    {
      "inputs": [],
      "name": "PRBMathSD59x18__MulInputTooSmall",
      "type": "error"
    },
    {
      "inputs": [
        {
          "internalType": "uint256",
          "name": "rAbs",
          "type": "uint256"
        }
      ],
      "name": "PRBMathSD59x18__MulOverflow",
      "type": "error"
    },
    {
      "inputs": [
        {
          "internalType": "uint256",
          "name": "prod1",
          "type": "uint256"
        }
      ],
      "name": "PRBMath__MulDivFixedPointOverflow",
      "type": "error"
    },
    {
      "inputs": [
        {
          "internalType": "uint256",
          "name": "prod1",
          "type": "uint256"
        },
        {
          "internalType": "uint256",
          "name": "denominator",
          "type": "uint256"
        }
      ],
      "name": "PRBMath__MulDivOverflow",
      "type": "error"
    },
    {
      "anonymous": false,
      "inputs": [
        {
          "indexed": false,
          "internalType": "uint8",
          "name": "version",
          "type": "uint8"
        }
      ],
      "name": "Initialized",
      "type": "event"
    },
    {
      "inputs": [],
      "name": "ACCESS_CONTROL_SINGLETON",
      "outputs": [
        {
          "internalType": "contract ISuAccessControl",
          "name": "",
          "type": "address"
        }
      ],
      "stateMutability": "view",
      "type": "function"
    },
    {
      "inputs": [],
      "name": "ADMIN_ROLE",
      "outputs": [
        {
          "internalType": "bytes32",
          "name": "",
          "type": "bytes32"
        }
      ],
      "stateMutability": "view",
      "type": "function"
    },
    {
      "inputs": [],
      "name": "ALERTER_ROLE",
      "outputs": [
        {
          "internalType": "bytes32",
          "name": "",
          "type": "bytes32"
        }
      ],
      "stateMutability": "view",
      "type": "function"
    },
    {
      "inputs": [],
      "name": "CDP_ACCESS_ROLE",
      "outputs": [
        {
          "internalType": "bytes32",
          "name": "",
          "type": "bytes32"
        }
      ],
      "stateMutability": "view",
      "type": "function"
    },
    {
      "inputs": [],
      "name": "DAO_ROLE",
      "outputs": [
        {
          "internalType": "bytes32",
          "name": "",
          "type": "bytes32"
        }
      ],
      "stateMutability": "view",
      "type": "function"
    },
    {
      "inputs": [],
      "name": "DISABLER_ROLE",
      "outputs": [
        {
          "internalType": "bytes32",
          "name": "",
          "type": "bytes32"
        }
      ],
      "stateMutability": "view",
      "type": "function"
    },
    {
      "inputs": [],
      "name": "LIQUIDATION_ACCESS_ROLE",
      "outputs": [
        {
          "internalType": "bytes32",
          "name": "",
          "type": "bytes32"
        }
      ],
      "stateMutability": "view",
      "type": "function"
    },
    {
      "inputs": [],
      "name": "MINT_ACCESS_ROLE",
      "outputs": [
        {
          "internalType": "bytes32",
          "name": "",
          "type": "bytes32"
        }
      ],
      "stateMutability": "view",
      "type": "function"
    },
    {
      "inputs": [],
      "name": "ORACLE",
      "outputs": [
        {
          "internalType": "contract ISuOracle",
          "name": "",
          "type": "address"
        }
      ],
      "stateMutability": "view",
      "type": "function"
    },
    {
      "inputs": [],
      "name": "PROXY_ACTIONS_ROLE",
      "outputs": [
        {
          "internalType": "bytes32",
          "name": "",
          "type": "bytes32"
        }
      ],
      "stateMutability": "view",
      "type": "function"
    },
    {
      "inputs": [],
      "name": "REWARD_ACCESS_ROLE",
      "outputs": [
        {
          "internalType": "bytes32",
          "name": "",
          "type": "bytes32"
        }
      ],
      "stateMutability": "view",
      "type": "function"
    },
    {
      "inputs": [],
      "name": "VOTING_ESCROW_ROLE",
      "outputs": [
        {
          "internalType": "bytes32",
          "name": "",
          "type": "bytes32"
        }
      ],
      "stateMutability": "view",
      "type": "function"
    },
    {
      "inputs": [
        {
          "internalType": "address",
          "name": "asset",
          "type": "address"
        }
      ],
      "name": "getFiatPrice1e18",
      "outputs": [
        {
          "internalType": "uint256",
          "name": "",
          "type": "uint256"
        }
      ],
      "stateMutability": "view",
      "type": "function"
    },
    {
      "inputs": [
        {
          "internalType": "address",
          "name": "_authControl",
          "type": "address"
        },
        {
          "internalType": "address",
          "name": "_oracle",
          "type": "address"
        }
      ],
      "name": "initialize",
      "outputs": [],
      "stateMutability": "nonpayable",
      "type": "function"
    },
    {
      "inputs": [
        {
          "internalType": "address",
          "name": "asset",
          "type": "address"
        }
      ],
      "name": "isAdapterLP",
      "outputs": [
        {
          "internalType": "bool",
          "name": "",
          "type": "bool"
        }
      ],
      "stateMutability": "view",
      "type": "function"
    },
    {
      "inputs": [
        {
          "internalType": "address",
          "name": "",
          "type": "address"
        }
      ],
      "name": "lps",
      "outputs": [
        {
          "internalType": "enum WeightedPoolType",
          "name": "poolType",
          "type": "uint8"
        },
        {
          "internalType": "bytes32",
          "name": "poolId",
          "type": "bytes32"
        },
        {
          "internalType": "contract IVault",
          "name": "vault",
          "type": "address"
        }
      ],
      "stateMutability": "view",
      "type": "function"
    },
    {
      "inputs": [
        {
          "internalType": "address",
          "name": "lp",
          "type": "address"
        },
        {
          "internalType": "enum WeightedPoolType",
          "name": "poolType",
          "type": "uint8"
        }
      ],
      "name": "registerLP",
      "outputs": [],
      "stateMutability": "nonpayable",
      "type": "function"
    },
    {
      "inputs": [
        {
          "internalType": "bytes4",
          "name": "interfaceId",
          "type": "bytes4"
        }
      ],
      "name": "supportsInterface",
      "outputs": [
        {
          "internalType": "bool",
          "name": "",
          "type": "bool"
        }
      ],
      "stateMutability": "view",
      "type": "function"
    },
    {
      "inputs": [
        {
          "internalType": "address",
          "name": "asset",
          "type": "address"
        },
        {
          "internalType": "uint256",
          "name": "amount",
          "type": "uint256"
        }
      ],
      "name": "withdraw",
      "outputs": [
        {
          "components": [
            {
              "internalType": "address",
              "name": "token",
              "type": "address"
            },
            {
              "internalType": "uint256",
              "name": "amount",
              "type": "uint256"
            }
          ],
          "internalType": "struct WithdrawResult[]",
          "name": "results",
          "type": "tuple[]"
        }
      ],
      "stateMutability": "nonpayable",
      "type": "function"
    },
    {
      "inputs": [
        {
          "internalType": "address",
          "name": "asset",
          "type": "address"
        },
        {
          "internalType": "uint256",
          "name": "amount",
          "type": "uint256"
        },
        {
          "internalType": "address",
          "name": "receiver",
          "type": "address"
        }
      ],
      "name": "withdrawTo",
      "outputs": [
        {
          "components": [
            {
              "internalType": "address",
              "name": "token",
              "type": "address"
            },
            {
              "internalType": "uint256",
              "name": "amount",
              "type": "uint256"
            }
          ],
          "internalType": "struct WithdrawResult[]",
          "name": "results",
          "type": "tuple[]"
        }
      ],
      "stateMutability": "nonpayable",
      "type": "function"
    }
  ],
  "numDeployments": 4,
  "solcInputHash": "063b59c64b6b03a7efa7d47f22e02344",
  "bytecode": "0x6080806040523461001657612c41908161001c8239f35b600080fdfe608080604052600436101561001357600080fd5b60003560e01c90816301ffc9a7146110495750806303ee9f221461101c57806338013f0214610ff3578063438280dd14610fb8578063485cc95514610d615780635136211714610d3457806371d0fb4114610cf957806375b238fc14610cdd5780638e5313e014610ca2578063aefca7e81461080f578063b38234f3146107d4578063b9ac2b3814610314578063bd5f5be6146102d9578063c4e2c1e61461029b578063d0e8fa8214610260578063d12e7332146101eb578063d2351cee146101b0578063dc97e84e14610175578063e9c265181461013a5763f3fef3a3146100fb57600080fd5b346101355760403660031901126101355761013161012561011a6110d4565b339060243590612114565b604051918291826110ea565b0390f35b600080fd5b346101355760003660031901126101355760206040517f3b5d4cc60d3ec3516ee8ae083bd60934f6eb2a6c54b1229985c41bfb092b26038152f35b346101355760003660031901126101355760206040517f9a9aef7c1247d5fc769b0185c052913e39673da29a880317dfd20ebf86f26a498152f35b346101355760003660031901126101355760206040517fb0fdd1623e42dbffda4acd8bd643e1cb69f00f0e83abeaa8150ee42cf0fd105e8152f35b34610135576020366003190112610135576001600160a01b038061020d6110d4565b166000526001602052604060002060ff81541691600260018301549201541660405191600284101561024a57606093835260208301526040820152f35b634e487b7160e01b600052602160045260246000fd5b346101355760003660031901126101355760206040517f76d0567582f23e1e9d7a13eeba60f9aea9d69b8da87ca27a8bf3698b35c653db8152f35b34610135576060366003190112610135576102b46110d4565b604435906001600160a01b038216820361013557610131916101259160243590612114565b346101355760003660031901126101355760206040517f4f14c8366fa999817edc9f29824eb88a00cc31225e2156f399da4bc91049eb108152f35b346101355760203660031901126101355761032d6110d4565b610336816113d4565b156107b25760018060a01b03811660005260016020526040600020906040519161035f8361113d565b60ff815416600281101561024a5783526000600182015491602085019283526103af600460018060a01b0360028401541692604088019384526103a460038201611366565b606089015201611366565b6080860152519151604051631f29a8cd60e31b8152600481019190915291829060249082906001600160a01b03165afa80156106105760009160009161078c575b5060405163f89f27ed60e01b81526000816004816001600160a01b0388165afa9081156106105760009161074e575b506a0c097ce7bc90715b34b9f16024949293941b9261043e85516113f7565b9560009360018060a01b0360025416955b875186101561065a5760608301516001600160a01b03906104719088906113c0565b5160405163313ce56760e01b8152911691602082600481865afa9182156106105760009261061c575b506104a588876113c0565b5180670de0b6b3a7640000810204670de0b6b3a764000014811517156105c6576104e590670de0b6b3a76400006104de60ff8616611438565b9102611446565b6104ef89886113c0565b5260405192631735856760e31b845260048401526020836024818c5afa928315610610576000936105dc575b5060128060ff84168103116105c65761059f936105436105499260ff61059996169003611438565b90611446565b610553898d6113c0565b52610573610561898d6113c0565b5161056c8a8a6113c0565b5190611473565b61057d89896113c0565b5190806105ac57506105a557670de0b6b3a76400005b906115e5565b95611429565b9461044f565b6000610593565b610593916105bc6105c192611ed1565b6115e5565b61171b565b634e487b7160e01b600052601160045260246000fd5b9092506020813d602011610608575b816105f860209383611189565b810103126101355751918b61051b565b3d91506105eb565b6040513d6000823e3d90fd5b9091506020813d602011610652575b8161063860209383611189565b81010312610135575160ff8116810361013557908b61049a565b3d915061062b565b604051634d8166ef60e11b8152906020826004816001600160a01b0387165afa91821561061057600092610718575b506106986004926020926115e5565b6040516318160ddd60e01b815290939092839182906001600160a01b03165afa908115610610576000916106e5575b60206106dd83670de0b6b3a76400008605611473565b604051908152f35b90506020813d602011610710575b8161070060209383611189565b81010312610135575160206106c7565b3d91506106f3565b91506020823d602011610746575b8161073360209383611189565b8101031261013557905190610698610689565b3d9150610726565b90503d806000833e6107608183611189565b81016020828203126101355781516001600160401b0381116101355761078692016111db565b8561041f565b90506107ab91503d806000833e6107a38183611189565b810190611239565b50846103f0565b604051631e489be560e01b81526001600160a01b039091166004820152602490fd5b346101355760003660031901126101355760206040517fd83f5343da19b478b15a140c301a868be9e02603958f38fbd822b9d5c0a289168152f35b34610135576040366003190112610135576108286110d4565b6024803591600290818410156101355760018060a01b03908160005460101c16906040518092632474521560e21b825260006004830152338783015281604460209586935afa90811561061057600091610c75575b5015610c63578216906040516311b2515f60e31b81528181600481865afa8015610610578491600091610c29575b5016918215610c12578060005260019485835284816040600020015416610bfa5760405163038fff2d60e41b8152938385600481865afa908115610610578895600092610bc7575b5060008481528886526040808220808b0185905585810180546001600160a01b03191685179055805460ff191660ff9d8e1617905551631f29a8cd60e31b808252600482019490945296909187919082905afa94851561061057600095610ba8575b50600083815287855260409020855160039690918701906001600160401b038311610b9357600160401b8311610b935786908254848455808510610b66575b509b979b01906000528560002060005b838110610b53575050505082600052868452886040600020015494876000905b6109ca57005b61ffff878183161015610b515785600052898752888c6109f084826040600020016112f8565b9054911b1c166109ff816113d4565b15610b3057600052898752604060002060405190610a1c8261113d565b8481541687811015610b1b578e8360808f8f946000968f9998878f610a6a95600495610a5f94528401549c88019c8d528301541696604087019788528201611366565b606086015201611366565b910152511692518d604051809581938a835260048301525afa91821561061057600092610afc575b5060008b5b610ab3575b50505099610aab899a9b6112e5565b909a996109c4565b825182821690811015610af6578c91610aeb610af0928e858e8e60005252610ae3600460406000200192896113c0565b511690611326565b6112e5565b90610a97565b50610a9c565b610b129192503d806000833e6107a38183611189565b5050908d610a92565b8d634e487b7160e01b60005260216004526000fd5b610aab915091610aeb8b9c9d93886000528c8a526004604060002001611326565b005b82518a1682820155918701918a016109a4565b836000528b858460002092830192015b828110610b84575050610994565b600081558a94508d9101610b76565b8a634e487b7160e01b60005260416004526000fd5b610bbe9195503d806000833e6107a38183611189565b50509389610955565b955090508385813d8111610bf3575b610be08183611189565b81010312610135579351879460006108f3565b503d610bd6565b6040516345ed80e960e01b8152600481018390528790fd5b859060405190631e489be560e01b82526004820152fd5b809250838092503d8311610c5c575b610c428183611189565b8101031261013557518381168103610135578390886108ab565b503d610c38565b604051631886ea7d60e11b8152600490fd5b610c959150833d8511610c9b575b610c8d8183611189565b8101906111ac565b8761087d565b503d610c83565b346101355760003660031901126101355760206040517fe453bacb314e78dcd5192e6b1a2b1f0e7c76e92f6b7e429a6a90f04e39db3b768152f35b3461013557600036600319011261013557602060405160008152f35b346101355760003660031901126101355760206040517f880a91047114272656e533301261260c75e4d11543ac7303d6fe4204579ec7278152f35b34610135576020366003190112610135576020610d57610d526110d4565b6113d4565b6040519015158152f35b3461013557604036600319011261013557610d7a6110d4565b6001600160a01b0360243581811690819003610135576000549060ff8260081c161591828093610fab575b8015610f94575b15610f385760ff19811660011760005582610f26575b506000549260ff8460081c1615610ecd5762010000600160b01b03601086901b1662010000600160b01b03198516811760005594168015908115610e70575b50610e5e57600280546001600160a01b031916919091179055610e2057005b610100600160b01b03191617600055604051600181527f7f26b83ff96e1f2b6a682f133852f6798a09c465da95921460cefb384740249890602090a1005b6040516384d942fd60e01b8152600490fd5b6040516301ffc9a760e01b8152637965db0b60e01b60048201529150602090829060249082905afa90811561061057600091610eaf575b501585610e01565b610ec7915060203d8111610c9b57610c8d8183611189565b85610ea7565b60405162461bcd60e51b815260206004820152602b60248201527f496e697469616c697a61626c653a20636f6e7472616374206973206e6f74206960448201526a6e697469616c697a696e6760a81b6064820152608490fd5b61ffff19166101011760005584610dc2565b60405162461bcd60e51b815260206004820152602e60248201527f496e697469616c697a61626c653a20636f6e747261637420697320616c72656160448201526d191e481a5b9a5d1a585b1a5e995960921b6064820152608490fd5b50303b158015610dac5750600160ff821614610dac565b50600160ff821610610da5565b346101355760003660031901126101355760206040517f39f61ca2a1a28fee144218173ec637b649a353e4026b2738c673800e5bf1437b8152f35b34610135576000366003190112610135576002546040516001600160a01b039091168152602090f35b346101355760003660031901126101355760005460405160109190911c6001600160a01b03168152602090f35b346101355760203660031901126101355760043563ffffffff60e01b8116809103610135576000546301ffc9a760e01b835260048301919091526020908290602490829060101c6001600160a01b03165afa8015610610576020916000916110b7575b506040519015158152f35b6110ce9150823d8111610c9b57610c8d8183611189565b826110ac565b600435906001600160a01b038216820361013557565b60208082019080835283518092528060408094019401926000905b83821061111457505050505090565b845180516001600160a01b03168752830151868401529485019493820193600190910190611105565b60a081019081106001600160401b0382111761115857604052565b634e487b7160e01b600052604160045260246000fd5b604081019081106001600160401b0382111761115857604052565b601f909101601f19168101906001600160401b0382119082101761115857604052565b90816020910312610135575180151581036101355790565b6001600160401b0381116111585760051b60200190565b81601f82011215610135578051916111f2836111c4565b926112006040519485611189565b808452602092838086019260051b820101928311610135578301905b82821061122a575050505090565b8151815290830190830161121c565b90916060828403126101355781516001600160401b0393908481116101355783019381601f8601121561013557845194611272866111c4565b906112806040519283611189565b868252602096878084019160051b83010191858311610135578801905b8282106112c65750505094840151908111610135576040916112c09185016111db565b92015190565b81516001600160a01b038116810361013557815290880190880161129d565b61ffff8091169081146105c65760010190565b80548210156113105760005260206000200190600090565b634e487b7160e01b600052603260045260246000fd5b8054600160401b81101561115857611343916001820181556112f8565b819291549060031b9160018060a01b039283811b93849216901b16911916179055565b9060405191828154918282526020928383019160005283600020936000905b82821061139d5750505061139b92500383611189565b565b85546001600160a01b031684526001958601958895509381019390910190611385565b80518210156113105760209160051b010190565b6001600160a01b0390811660009081526001602052604090206002015416151590565b90611401826111c4565b61140e6040519182611189565b828152809261141f601f19916111c4565b0190602036910137565b60001981146105c65760010190565b604d81116105c657600a0a90565b8115611450570490565b634e487b7160e01b600052601260045260246000fd5b919082039182116105c657565b600160ff1b908082148015611515575b6115035760008112156114fa576114ab816000035b60008512156114f357846000039061151e565b926001600160ff1b0384116114da576000199182129112186001036114d65781146105c65760000390565b5090565b604051637cb4bef560e01b815260048101859052602490fd5b849061151e565b6114ab81611498565b60405163b3c754a360e01b8152600490fd5b50818314611483565b670de0b6b3a76400009160001983830992808302928380861095039480860395146115bc578285101561159e57908291096001821901821680920460028082600302188083028203028083028203028083028203028083028203028083028203028092029003029360018380600003040190848311900302920304170290565b6044858460405191631dcf306360e21b835260048301526024820152fd5b5050906115c99250611446565b90565b8015611450576a0c097ce7bc90715b34b9f160241b0590565b600160ff1b81811490811561167e575b5061166c5760008112156116635761161e816000035b600084121561165c578360000390611688565b916001600160ff1b038311611643576000199182129112186001036115c95760000390565b60405163bf79e8d960e01b815260048101849052602490fd5b8390611688565b61161e8161160b565b604051630d01a11b60e21b8152600490fd5b90508214386115f5565b600019828209828202908180821091039381850390670de0b6b3a764000094858310156117025790859109916706f05b59d3b1ffff831195146116fb577faccb18165bd6fe31ae1cf318dc5b51eee0e1ba569b88cd74c1773b91fac106699350828211900360ee1b910360121c17020190565b5050040190565b60405163698d9a0160e11b815260048101849052602490fd5b60008112156117505768033dd1780914b9711419811261174a576117419060000361171b565b6115c9906115cc565b50600090565b680a688906bd8b000000811215611eb957604090670de0b6b3a764000090821b81900490600160bf1b6001603f1b8316611ea6575b6001603e1b8316611e94575b6001603d1b8316611e82575b6001603c1b8316611e70575b6001603b1b8316611e5e575b6001603a1b8316611e4c575b600160391b8316611e3a575b600160381b8316611e28575b600160371b8316611e16575b600160361b8316611e04575b600160351b8316611df2575b600160341b8316611de0575b600160331b8316611dce575b600160321b8316611dbc575b600160311b8316611daa575b600160301b8316611d98575b6001602f1b8316611d86575b6001602e1b8316611d74575b6001602d1b8316611d62575b6001602c1b8316611d50575b6001602b1b8316611d3e575b6001602a1b8316611d2c575b600160291b8316611d1a575b600160281b8316611d08575b600160271b8316611cf6575b600160261b8316611ce4575b600160251b8316611cd2575b600160241b8316611cc0575b600160231b8316611cae575b600160221b8316611c9c575b600160211b8316611c8a575b600160201b8316611c78575b63800000008316611c66575b63400000008316611c54575b63200000008316611c42575b63100000008316611c30575b63080000008316611c1e575b63040000008316611c0c575b63020000008316611bfa575b63010000008316611be8575b628000008316611bd6575b624000008316611bc4575b622000008316611bb2575b621000008316611ba0575b620800008316611b8e575b620400008316611b7c575b620200008316611b6a575b620100008316611b59575b6180008316611b48575b6140008316611b37575b6120008316611b26575b6110008316611b15575b6108008316611b04575b6104008316611af3575b6102008316611ae2575b6101008316611ad2575b60808316611ac2575b838316611ab2575b60208316611aa2575b60108316611a92575b60088316611a82575b60048316611a72575b60028316611a62575b60018316611a52575b02911c60bf031c90565b6001600160401b0102831c611a48565b6001600160401b0102831c611a3f565b6003600160401b0102831c611a36565b6006600160401b0102831c611a2d565b600b600160401b0102831c611a24565b6016600160401b0102831c611a1b565b602c600160401b0102831c611a12565b6059600160401b0102831c611a0a565b60b1600160401b0102831c611a01565b610163600160401b0102831c6119f7565b6102c6600160401b0102831c6119ed565b61058c600160401b0102831c6119e3565b610b17600160401b0102831c6119d9565b61162e600160401b0102831c6119cf565b612c5d600160401b0102831c6119c5565b6158b9600160401b0102831c6119bb565b61b172600160401b0102831c6119b1565b680100000000000162e402831c6119a6565b6801000000000002c5c802831c61199b565b68010000000000058b9102831c611990565b680100000000000b172102831c611985565b68010000000000162e4302831c61197a565b680100000000002c5c8602831c61196f565b6801000000000058b90c02831c611964565b68010000000000b1721802831c611959565b6801000000000162e43002831c61194d565b68010000000002c5c86002831c611941565b680100000000058b90c002831c611935565b6801000000000b17217f02831c611929565b680100000000162e42ff02831c61191d565b6801000000002c5c85fe02831c611911565b68010000000058b90bfc02831c611905565b680100000000b17217f802831c6118f9565b68010000000162e42ff102831c6118ed565b680100000002c5c85fe302831c6118e1565b6801000000058b90bfce02831c6118d5565b68010000000b17217fbb02831c6118c9565b6801000000162e42fff002831c6118bd565b68010000002c5c8601cc02831c6118b1565b680100000058b90c0b4902831c6118a5565b6801000000b17218355102831c611899565b680100000162e430e5a202831c61188d565b6801000002c5c863b73f02831c611881565b68010000058b90cf1e6e02831c611875565b680100000b1721bcfc9a02831c611869565b68010000162e43f4f83102831c61185d565b680100002c5c89d5ec6d02831c611851565b6801000058b91b5bc9ae02831c611845565b68010000b17255775c0402831c611839565b6801000162e525ee054702831c61182d565b68010002c5cc37da949202831c611821565b680100058ba01fb9f96d02831c611815565b6801000b175effdc76ba02831c611809565b680100162f3904051fa102831c6117fd565b6801002c605e2e8cec5002831c6117f1565b68010058c86da1c09ea202831c6117e5565b680100b1afa5abcbed6102831c6117d9565b68010163da9fb33356d802831c6117cd565b680102c9a3e778060ee702831c6117c1565b6801059b0d31585743ae02831c6117b5565b68010b5586cf9890f62a02831c6117a9565b6801172b83c7d517adce02831c61179d565b6801306fe0a31b7152df02831c611791565b5068016a09e667f3bcc909607f1b611785565b6024906040519063e69458f960e01b82526004820152fd5b6000908181131561208c57670de0b6b3a76400009182821261206f576001925b81818405600160801b811015612064575b600160401b81101561204f575b600160201b81101561203a575b62010000811015612025575b610100811015612010575b6010811015611ffb575b6004811015611fd2575b60021115611fb2575b81810293811d90828214611fa757506706f05b59d3b20000905b838213611f7957505050500290565b808391020590671bc16d674ec80000821215611f99575b60011d90611f6a565b809194019360011d90611f90565b925050929150020290565b6001810180911115611f5057634e487b7160e01b83526011600452602483fd5b60021c9060028101809111611fe75790611f47565b634e487b7160e01b84526011600452602484fd5b60041c9060048101809111611fe75790611f3d565b60081c9060088101809111611fe75790611f33565b60101c9060108101809111611fe75790611f28565b60201c9060208101809111611fe75790611f1c565b60401c9060408101809111611fe75790611f0f565b60809150811c611f02565b600019926a0c097ce7bc90715b34b9f160241b9290920491611ef1565b6024906040519063309fa7dd60e11b82526004820152fd5b906120ae826111c4565b6040906120bd82519182611189565b83815280936120ce601f19916111c4565b019060005b8281106120e05750505050565b835180850191906001600160401b0383118184101761115857602092865260008152826000818301528285010152016120d3565b9261211e846113d4565b1561242d5760008060405160208101906323b872dd60e01b8252336024820152306044820152856064820152606481526121578161113d565b519082885af161216561244e565b816123fe575b50156123d3576001600160a01b038416600090815260016020526040902060040154936121a361219a866120a4565b936000926124a8565b908151926000955b8461ffff881610156122aa576121d86001600160a01b036121d061ffff8a16876113c0565b5151166113d4565b15612276576122126001600160a01b036121f661ffff8a16876113c0565b515116602061220961ffff8b16886113c0565b510151906124a8565b936000935b61ffff85168781101561225d576122579161223561225192896113c0565b51612240828c6113c0565b5261224b818b6113c0565b50611429565b946112e5565b93612217565b5098935093509561226d906112e5565b959691966121ab565b9596916122a461226d9161228e61ffff8b16876113c0565b51612299828a6113c0565b5261224b81896113c0565b976112e5565b935094506122b891506120a4565b9160009183835b61ffff8116888110156123c9576001600160a01b036122de82876113c0565b515116806122f7575b50506122f2906112e5565b6122bf565b60008091602061230a858a9b979b6113c0565b5101518260405161233f81612331602082019563a9059cbb60e01b87528d6024840161248d565b03601f198101835282611189565b51925af161234b61244e565b8161239a575b5015612370576122f29161228e61236892876113c0565b9490386122e7565b60405162461bcd60e51b815260206004820152600260248201526114d560f21b6044820152606490fd5b80518015925082156123af575b505038612351565b6123c292506020809183010191016111ac565b38806123a7565b5050955050505050565b60405162461bcd60e51b815260206004820152600360248201526229aa2360e91b6044820152606490fd5b8051801592508215612413575b50503861216b565b61242692506020809183010191016111ac565b388061240b565b604051631e489be560e01b81526001600160a01b0385166004820152602490fd5b3d15612488573d906001600160401b038211611158576040519161247c601f8201601f191660200184611189565b82523d6000602084013e565b606090565b6001600160a01b039091168152602081019190915260400190565b6001600160a01b038116600090815260016020526040808220905191949392906124d18361113d565b60ff8154166002811015612bf75783526001810154602084015260028101546001600160a01b0316604084015261251190600490610a5f60038201611366565b6080830152606082015151604083015190939081906001600160a01b0390811690841681141580612b6c575b612afe575b505061254d846113f7565b93865b8161ffff8216101561260357602490602060018060a01b0361257a61ffff841660608a01516113c0565b5116604051938480926370a0823160e01b82523060048301525afa80156125f85789906125c0575b6125bb92506125b561ffff8316896113c0565b526112e5565b612550565b506020823d6020116125f0575b816125da60209383611189565b810103126125ec576125bb91516125a2565b8880fd5b3d91506125cd565b6040513d8b823e3d90fd5b5091949593909295612614836111c4565b916126226040519384611189565b838352601f19612631856111c4565b01366020850137612641846113f7565b93865b61ffff8116828110156126885790886125b5838d61267061268396606060018060a01b039301516113c0565b511661267c828b6113c0565b52896113c0565b612644565b5050949693909592919660018060a01b0360408a0151169160208a015193604051926001602085015260408401526040835282606081011060018060401b03606085011117612aea576001600160401b0360e084019081116060850190911017612aea5760e08301604052606083015260808201528060a08101528360c0820152813b15612ae657918391604051938492638bdb391360e01b845260048401523060248401523060448401526080606484015261010483019060608101519160806084860152825180915260206101248601930190865b818110612ac1575050506080810151916083198582030160a486015260208084519283815201930190865b818110612aa55750505060a08101518483036083190160c486015280518084529190865b838110612a8b57505084838360c06020948a868198879a0101520151151560e4840152601f8019910116010301925af18015612a8057612a55575b5090606086015190815115611310576020909101516001600160a01b0390811691160361296557600019820182811161295157612825906120a4565b9260015b61ffff811684811015612948576024602060018060a01b0361284f8460608d01516113c0565b5116604051928380926370a0823160e01b82523060048301525afa801561293d578590612909575b61288d915061288683866113c0565b5190611466565b9060018060a01b036128a38260608c01516113c0565b511691604051926128b38461116e565b8352602083015261ffff6000198201116128f5576128f092916128ea916000190161ffff16906128e3828a6113c0565b52876113c0565b506112e5565b612829565b634e487b7160e01b85526011600452602485fd5b506020813d602011612935575b8161292360209383611189565b810103126101355761288d9051612877565b3d9150612916565b6040513d87823e3d90fd5b50505050509150565b634e487b7160e01b82526011600452602482fd5b612971829395926120a4565b94815b61ffff81169085821015612a4d576024602060018060a01b0361299b8560608a01516113c0565b5116604051928380926370a0823160e01b82523060048301525afa90811561293d578591612a19575b50826129da6128ea92612886612a1496886113c0565b60608801516001600160a01b03906129f39084906113c0565b51169060405191612a038361116e565b8252602082015261267c828c6113c0565b612974565b90506020813d602011612a45575b81612a3460209383611189565b810103126101355751612a146129c4565b3d9150612a27565b505050505050565b6001600160401b038111612a6c57604052386127e9565b634e487b7160e01b82526041600452602482fd5b6040513d84823e3d90fd5b60208183018101518683018201528a9850899750016127ae565b825185528997508896506020948501949092019160010161278a565b82516001600160a01b031685528997508896506020948501949092019160010161275f565b8380fd5b634e487b7160e01b86526041600452602486fd5b60405163095ea7b360e01b81529160209183918291612b2191906004840161248d565b03818a6001600160a01b0388165af18015612b6157612b42575b8190612542565b612b5a9060203d602011610c9b57610c8d8183611189565b5038612b3b565b6040513d89823e3d90fd5b50604051636eb1769f60e11b81523060048201526024810182905291506020826044816001600160a01b0388165afa8015612bec5783928991612bb2575b50821161253d565b9250506020823d602011612be4575b81612bce60209383611189565b81010312612be0578280925190612baa565b8780fd5b3d9150612bc1565b6040513d8a823e3d90fd5b634e487b7160e01b87526021600452602487fdfea26469706673582212205e3bdd2d78f8f31d65bd91c622c67872dac0cf95d2a36dca371d1b180bb5c24664736f6c63430008110033",
  "devdoc": {
    "details": "See IBalancerAdapter and ILPAdapter interface for full details.",
    "kind": "dev",
    "methods": {
      "getFiatPrice1e18(address)": {
        "params": {
          "asset": "- address of erc20 token contract"
        },
        "returns": {
          "_0": "usdPrice1e18 such that asset.balanceOf() * getFiatPrice1e18(asset) / 1e18 == $$ * 1e18*"
        }
      },
      "isAdapterLP(address)": {
        "params": {
          "asset": "- address of LP token to check*"
        }
      },
      "registerLP(address,uint8)": {
        "params": {
          "lp": "LP token to find and set the corresponding info.*"
        }
      },
      "supportsInterface(bytes4)": {
        "details": "Returns true if this contract implements the interface defined by `interfaceId`. See the corresponding https://eips.ethereum.org/EIPS/eip-165#how-interfaces-are-identified[EIP section] to learn more about how these ids are created. This function call must use less than 30 000 gas."
      },
      "withdraw(address,uint256)": {
        "params": {
          "amount": "- amount of asset to withdraw/unwrap*",
          "asset": "- address of LP token to withdraw/unwrap"
        }
      },
      "withdrawTo(address,uint256,address)": {
        "params": {
          "amount": "- amount of asset to withdraw/unwrap",
          "asset": "- address of LP token to withdraw/unwrap",
          "receiver": "- receiver of underlying tokens*"
        }
      }
    },
    "title": "BalancerAdapterWeighted",
    "version": 1
  },
  "userdoc": {
    "errors": {
      "PRBMathSD59x18__DivInputTooSmall()": [
        {
          "notice": "Emitted when one of the inputs is MIN_SD59x18."
        }
      ],
      "PRBMathSD59x18__DivOverflow(uint256)": [
        {
          "notice": "Emitted when one of the intermediary unsigned results overflows SD59x18."
        }
      ],
      "PRBMathSD59x18__Exp2InputTooBig(int256)": [
        {
          "notice": "Emitted when the input is greater than 192."
        }
      ],
      "PRBMathSD59x18__FromIntOverflow(int256)": [
        {
          "notice": "Emitted when converting a basic integer to the fixed-point format overflows SD59x18."
        }
      ],
      "PRBMathSD59x18__FromIntUnderflow(int256)": [
        {
          "notice": "Emitted when converting a basic integer to the fixed-point format underflows SD59x18."
        }
      ],
      "PRBMathSD59x18__LogInputTooSmall(int256)": [
        {
          "notice": "Emitted when the input is less than or equal to zero."
        }
      ],
      "PRBMathSD59x18__MulInputTooSmall()": [
        {
          "notice": "Emitted when one of the inputs is MIN_SD59x18."
        }
      ],
      "PRBMathSD59x18__MulOverflow(uint256)": [
        {
          "notice": "Emitted when the intermediary absolute result overflows SD59x18."
        }
      ],
      "PRBMath__MulDivFixedPointOverflow(uint256)": [
        {
          "notice": "Emitted when the result overflows uint256."
        }
      ],
      "PRBMath__MulDivOverflow(uint256,uint256)": [
        {
          "notice": "Emitted when the result overflows uint256."
        }
      ]
    },
    "kind": "user",
    "methods": {
      "getFiatPrice1e18(address)": {
        "notice": "WARNING! Read this description very carefully!     function getFiatPrice1e18(address asset) returns (uint256) that:         basicAmountOfAsset * getFiatPrice1e18(asset) / 1e18 === $$ * 1e18     in other words, it doesn't matter what's the erc20.decimals is,     you just multiply token balance in basic units on value from oracle and get dollar amount multiplied on 1e18. different assets have different deviation threshold (errors)     for wBTC it's <= 0.5%, read more https://data.chain.link/ethereum/mainnet/crypto-usd/btc-usd     for other asset is can be larger based on particular oracle implementation. examples:     market price of btc = $30k,     for 0.1 wBTC the unit256 amount is 0.1 * 1e18     0.1 * 1e18 * (price1e18 / 1e18) == $3000 == uint256(3000*1e18)     => price1e18 = 30000 * 1e18;     market price of usdt = $0.97,     for 1 usdt uint256 = 1 * 1e6     so 1*1e6 * price1e18 / 1e18 == $0.97 == uint256(0.97*1e18)     => 1*1e6 * (price1e18 / 1e18) / (0.97*1e18)   = 1     =>  price1e18 = 0.97 * (1e18/1e6) * 1e18    assume market price of wBTC = $31,503.77, oracle error = $158     case #1: small amount of wBTC         we have 0.0,000,001 wBTC that is worth v = $0.00315  $0.00001 = 0.00315*1e18 = 315*1e13  1*1e13         actual balance on the asset b = wBTC.balanceOf() =  0.0000001*1e18 = 1e11         oracle should return or = oracle.getFiatPrice1e18(wBTC) <=>         <=> b*or = v => v/b = 315*1e13 / 1e11 = 315*1e2  1e2         error = or.error * b = 1e2 * 1e11 = 1e13 => 1e13/1e18 usd = 1e-5 = 0.00001 usd     case #2: large amount of wBTC         v = 2,000,000 wBTC = $31,503.77 * 2m  158*2m = $63,007,540,000  $316,000,000 = 63,007*1e24  316*1e24         for calc convenience we increase error on 0.05 and have v = 63,000*24  300*1e24 = (630  3)*1e26         b = 2*1e6 * 1e18 = 2*1e24         or = v/b = (630  3)*1e26 / 2*1e24 = 315*1e2  1.5*1e2         error = or.error * b = 1.5*100 * 2*1e24 = 3*1e26 = 3*1e8*1e18 = $300,000,000 ~ $316,000,000     assume the market price of USDT = $0.97  $0.00485,     case #3: little amount of USDT         v = USDT amount 0.005 = 0.005*(0.97  0.00485) = 0.00485*1e18  0.00002425*1e18 = 485*1e13  3*1e13         we rounded error up on (3000-2425)/2425 ~= +24% for calculation convenience.         b = USDT.balanceOf() = 0.005*1e6 = 5*1e3         b*or = v => or = v/b = (485*1e13  3*1e13) / 5*1e3 = 970*1e9  6*1e9         error = 6*1e9 * 5*1e3 / 1e18 = 30*1e12/1e18 = 3*1e-5 = $0,00005     case #4: lot of USDT         v = we have 100,000,000,000 USDT = $97B = 97*1e9*1e18  0.5*1e9*1e18         b = USDT.balanceOf() = 1e11*1e6 = 1e17         or = v/b = (97*1e9*1e18  0.5*1e9*1e18) / 1e17 = 970*1e9  5*1e9         error = 5*1e9 * 1e17 = 5*1e26 = 0.5 * 1e8*1e18"
      },
      "isAdapterLP(address)": {
        "notice": "Returns if asset ig Balancer LP token, registered in our adapter"
      },
      "registerLP(address,uint8)": {
        "notice": "Register the given LP token address and set the LP info. We go to the depth = 2, that means, that if LP token {lp} contains {lp1} and {erc20Token1} as underlying tokens, where lp1 contains {erc20Token0} and {erc20Token2}, then we will register that {lp} has {erc20Token0}, {erc20Token2} and {erc20Token1} as underlying tokens."
      },
      "withdraw(address,uint256)": {
        "notice": "Unwrap LP token with depth = 2 (if underlying token is LP => it's also unwrapping)"
      },
      "withdrawTo(address,uint256,address)": {
        "notice": "Like common withdraw, but we can change receiver"
      }
    },
    "notice": "Adapter for Balancer Weighted LP token.",
    "version": 1
  },
  "storageLayout": {
    "storage": [
      {
        "astId": 462,
        "contract": "contracts/periphery/contracts/adapters/BalancerAdapterWeighted.sol:BalancerAdapterWeighted",
        "label": "_initialized",
        "offset": 0,
        "slot": "0",
        "type": "t_uint8"
      },
      {
        "astId": 465,
        "contract": "contracts/periphery/contracts/adapters/BalancerAdapterWeighted.sol:BalancerAdapterWeighted",
        "label": "_initializing",
        "offset": 1,
        "slot": "0",
        "type": "t_bool"
      },
      {
        "astId": 26374,
        "contract": "contracts/periphery/contracts/adapters/BalancerAdapterWeighted.sol:BalancerAdapterWeighted",
        "label": "ACCESS_CONTROL_SINGLETON",
        "offset": 2,
        "slot": "0",
        "type": "t_contract(ISuAccessControl)29456"
      },
      {
        "astId": 27171,
        "contract": "contracts/periphery/contracts/adapters/BalancerAdapterWeighted.sol:BalancerAdapterWeighted",
        "label": "lps",
        "offset": 0,
        "slot": "1",
        "type": "t_mapping(t_address,t_struct(LPInfoAdapter)27159_storage)"
      },
      {
        "astId": 27174,
        "contract": "contracts/periphery/contracts/adapters/BalancerAdapterWeighted.sol:BalancerAdapterWeighted",
        "label": "ORACLE",
        "offset": 0,
        "slot": "2",
        "type": "t_contract(ISuOracle)29609"
      },
      {
        "astId": 28168,
        "contract": "contracts/periphery/contracts/adapters/BalancerAdapterWeighted.sol:BalancerAdapterWeighted",
        "label": "__gap",
        "offset": 0,
        "slot": "3",
        "type": "t_array(t_uint256)45_storage"
      }
    ],
    "types": {
      "t_address": {
        "encoding": "inplace",
        "label": "address",
        "numberOfBytes": "20"
      },
      "t_array(t_contract(IERC20)5262)dyn_storage": {
        "base": "t_contract(IERC20)5262",
        "encoding": "dynamic_array",
        "label": "contract IERC20[]",
        "numberOfBytes": "32"
      },
      "t_array(t_uint256)45_storage": {
        "base": "t_uint256",
        "encoding": "inplace",
        "label": "uint256[45]",
        "numberOfBytes": "1440"
      },
      "t_bool": {
        "encoding": "inplace",
        "label": "bool",
        "numberOfBytes": "1"
      },
      "t_bytes32": {
        "encoding": "inplace",
        "label": "bytes32",
        "numberOfBytes": "32"
      },
      "t_contract(IERC20)5262": {
        "encoding": "inplace",
        "label": "contract IERC20",
        "numberOfBytes": "20"
      },
      "t_contract(ISuAccessControl)29456": {
        "encoding": "inplace",
        "label": "contract ISuAccessControl",
        "numberOfBytes": "20"
      },
      "t_contract(ISuOracle)29609": {
        "encoding": "inplace",
        "label": "contract ISuOracle",
        "numberOfBytes": "20"
      },
      "t_contract(IVault)31138": {
        "encoding": "inplace",
        "label": "contract IVault",
        "numberOfBytes": "20"
      },
      "t_enum(WeightedPoolType)27142": {
        "encoding": "inplace",
        "label": "enum WeightedPoolType",
        "numberOfBytes": "1"
      },
      "t_mapping(t_address,t_struct(LPInfoAdapter)27159_storage)": {
        "encoding": "mapping",
        "key": "t_address",
        "label": "mapping(address => struct LPInfoAdapter)",
        "numberOfBytes": "32",
        "value": "t_struct(LPInfoAdapter)27159_storage"
      },
      "t_struct(LPInfoAdapter)27159_storage": {
        "encoding": "inplace",
        "label": "struct LPInfoAdapter",
        "members": [
          {
            "astId": 27145,
            "contract": "contracts/periphery/contracts/adapters/BalancerAdapterWeighted.sol:BalancerAdapterWeighted",
            "label": "poolType",
            "offset": 0,
            "slot": "0",
            "type": "t_enum(WeightedPoolType)27142"
          },
          {
            "astId": 27147,
            "contract": "contracts/periphery/contracts/adapters/BalancerAdapterWeighted.sol:BalancerAdapterWeighted",
            "label": "poolId",
            "offset": 0,
            "slot": "1",
            "type": "t_bytes32"
          },
          {
            "astId": 27150,
            "contract": "contracts/periphery/contracts/adapters/BalancerAdapterWeighted.sol:BalancerAdapterWeighted",
            "label": "vault",
            "offset": 0,
            "slot": "2",
            "type": "t_contract(IVault)31138"
          },
          {
            "astId": 27154,
            "contract": "contracts/periphery/contracts/adapters/BalancerAdapterWeighted.sol:BalancerAdapterWeighted",
            "label": "underlyingTokens",
            "offset": 0,
            "slot": "3",
            "type": "t_array(t_contract(IERC20)5262)dyn_storage"
          },
          {
            "astId": 27158,
            "contract": "contracts/periphery/contracts/adapters/BalancerAdapterWeighted.sol:BalancerAdapterWeighted",
            "label": "underlyingTokensExpanded",
            "offset": 0,
            "slot": "4",
            "type": "t_array(t_contract(IERC20)5262)dyn_storage"
          }
        ],
        "numberOfBytes": "160"
      },
      "t_uint256": {
        "encoding": "inplace",
        "label": "uint256",
        "numberOfBytes": "32"
      },
      "t_uint8": {
        "encoding": "inplace",
        "label": "uint8",
        "numberOfBytes": "1"
      }
    }
  }
}