{
  "address": "0x15052e6e9c2aeFd24C76d92792aFF1f9E2bDA2F9",
  "abi": [
    {
      "inputs": [
        {
          "internalType": "address",
          "name": "asset",
          "type": "address"
        }
      ],
      "name": "AlreadyRegistered",
      "type": "error"
    },
    {
      "inputs": [],
      "name": "BadAccessControlSingleton",
      "type": "error"
    },
    {
      "inputs": [
        {
          "internalType": "address",
          "name": "asset",
          "type": "address"
        }
      ],
      "name": "IsNotLP",
      "type": "error"
    },
    {
      "inputs": [],
      "name": "LPOracleNotReady",
      "type": "error"
    },
    {
      "inputs": [],
      "name": "OnlyAdminError",
      "type": "error"
    },
    {
      "inputs": [],
      "name": "OnlyAlerterError",
      "type": "error"
    },
    {
      "inputs": [],
      "name": "OnlyDAOError",
      "type": "error"
    },
    {
      "inputs": [],
      "name": "OnlyLiquidationAccessError",
      "type": "error"
    },
    {
      "inputs": [],
      "name": "OnlyMintAccessError",
      "type": "error"
    },
    {
      "inputs": [],
      "name": "OnlyRewardAccessError",
      "type": "error"
    },
    {
      "inputs": [],
      "name": "OnlyRoleError",
      "type": "error"
    },
    {
      "inputs": [],
      "name": "OnlyVaultAccessError",
      "type": "error"
    },
    {
      "inputs": [],
      "name": "PRBMathSD59x18__DivInputTooSmall",
      "type": "error"
    },
    {
      "inputs": [
        {
          "internalType": "uint256",
          "name": "rAbs",
          "type": "uint256"
        }
      ],
      "name": "PRBMathSD59x18__DivOverflow",
      "type": "error"
    },
    {
      "inputs": [
        {
          "internalType": "int256",
          "name": "x",
          "type": "int256"
        }
      ],
      "name": "PRBMathSD59x18__Exp2InputTooBig",
      "type": "error"
    },
    {
      "inputs": [
        {
          "internalType": "int256",
          "name": "x",
          "type": "int256"
        }
      ],
      "name": "PRBMathSD59x18__FromIntOverflow",
      "type": "error"
    },
    {
      "inputs": [
        {
          "internalType": "int256",
          "name": "x",
          "type": "int256"
        }
      ],
      "name": "PRBMathSD59x18__FromIntUnderflow",
      "type": "error"
    },
    {
      "inputs": [
        {
          "internalType": "int256",
          "name": "x",
          "type": "int256"
        }
      ],
      "name": "PRBMathSD59x18__LogInputTooSmall",
      "type": "error"
    },
    {
      "inputs": [],
      "name": "PRBMathSD59x18__MulInputTooSmall",
      "type": "error"
    },
    {
      "inputs": [
        {
          "internalType": "uint256",
          "name": "rAbs",
          "type": "uint256"
        }
      ],
      "name": "PRBMathSD59x18__MulOverflow",
      "type": "error"
    },
    {
      "inputs": [
        {
          "internalType": "uint256",
          "name": "prod1",
          "type": "uint256"
        }
      ],
      "name": "PRBMath__MulDivFixedPointOverflow",
      "type": "error"
    },
    {
      "inputs": [
        {
          "internalType": "uint256",
          "name": "prod1",
          "type": "uint256"
        },
        {
          "internalType": "uint256",
          "name": "denominator",
          "type": "uint256"
        }
      ],
      "name": "PRBMath__MulDivOverflow",
      "type": "error"
    },
    {
      "anonymous": false,
      "inputs": [
        {
          "indexed": false,
          "internalType": "uint8",
          "name": "version",
          "type": "uint8"
        }
      ],
      "name": "Initialized",
      "type": "event"
    },
    {
      "inputs": [],
      "name": "ACCESS_CONTROL_SINGLETON",
      "outputs": [
        {
          "internalType": "contract ISuAccessControl",
          "name": "",
          "type": "address"
        }
      ],
      "stateMutability": "view",
      "type": "function"
    },
    {
      "inputs": [],
      "name": "ADMIN_ROLE",
      "outputs": [
        {
          "internalType": "bytes32",
          "name": "",
          "type": "bytes32"
        }
      ],
      "stateMutability": "view",
      "type": "function"
    },
    {
      "inputs": [],
      "name": "ALERTER_ROLE",
      "outputs": [
        {
          "internalType": "bytes32",
          "name": "",
          "type": "bytes32"
        }
      ],
      "stateMutability": "view",
      "type": "function"
    },
    {
      "inputs": [],
      "name": "DAO_ROLE",
      "outputs": [
        {
          "internalType": "bytes32",
          "name": "",
          "type": "bytes32"
        }
      ],
      "stateMutability": "view",
      "type": "function"
    },
    {
      "inputs": [],
      "name": "LIQUIDATION_ACCESS_ROLE",
      "outputs": [
        {
          "internalType": "bytes32",
          "name": "",
          "type": "bytes32"
        }
      ],
      "stateMutability": "view",
      "type": "function"
    },
    {
      "inputs": [],
      "name": "MINT_ACCESS_ROLE",
      "outputs": [
        {
          "internalType": "bytes32",
          "name": "",
          "type": "bytes32"
        }
      ],
      "stateMutability": "view",
      "type": "function"
    },
    {
      "inputs": [],
      "name": "ORACLE",
      "outputs": [
        {
          "internalType": "contract ISuOracle",
          "name": "",
          "type": "address"
        }
      ],
      "stateMutability": "view",
      "type": "function"
    },
    {
      "inputs": [],
      "name": "REWARD_ACCESS_ROLE",
      "outputs": [
        {
          "internalType": "bytes32",
          "name": "",
          "type": "bytes32"
        }
      ],
      "stateMutability": "view",
      "type": "function"
    },
    {
      "inputs": [],
      "name": "SYSTEM_ROLE",
      "outputs": [
        {
          "internalType": "bytes32",
          "name": "",
          "type": "bytes32"
        }
      ],
      "stateMutability": "view",
      "type": "function"
    },
    {
      "inputs": [],
      "name": "VAULT_ACCESS_ROLE",
      "outputs": [
        {
          "internalType": "bytes32",
          "name": "",
          "type": "bytes32"
        }
      ],
      "stateMutability": "view",
      "type": "function"
    },
    {
      "inputs": [],
      "name": "_ORACLE",
      "outputs": [
        {
          "internalType": "contract ISuOracle",
          "name": "",
          "type": "address"
        }
      ],
      "stateMutability": "view",
      "type": "function"
    },
    {
      "inputs": [
        {
          "internalType": "address",
          "name": "_oracle",
          "type": "address"
        }
      ],
      "name": "__BalancerAdapterWeightedUnsafe__init",
      "outputs": [],
      "stateMutability": "nonpayable",
      "type": "function"
    },
    {
      "inputs": [
        {
          "internalType": "address",
          "name": "asset",
          "type": "address"
        }
      ],
      "name": "getFiatPrice1e18",
      "outputs": [
        {
          "internalType": "uint256",
          "name": "",
          "type": "uint256"
        }
      ],
      "stateMutability": "view",
      "type": "function"
    },
    {
      "inputs": [
        {
          "internalType": "address",
          "name": "asset",
          "type": "address"
        }
      ],
      "name": "getFiatPrice1e18Unsafe",
      "outputs": [
        {
          "internalType": "uint256",
          "name": "",
          "type": "uint256"
        }
      ],
      "stateMutability": "view",
      "type": "function"
    },
    {
      "inputs": [
        {
          "internalType": "address",
          "name": "_authControl",
          "type": "address"
        },
        {
          "internalType": "address",
          "name": "_oracle",
          "type": "address"
        }
      ],
      "name": "initialize",
      "outputs": [],
      "stateMutability": "nonpayable",
      "type": "function"
    },
    {
      "inputs": [
        {
          "internalType": "address",
          "name": "asset",
          "type": "address"
        }
      ],
      "name": "isAdapterLP",
      "outputs": [
        {
          "internalType": "bool",
          "name": "",
          "type": "bool"
        }
      ],
      "stateMutability": "view",
      "type": "function"
    },
    {
      "inputs": [
        {
          "internalType": "address",
          "name": "",
          "type": "address"
        }
      ],
      "name": "lps",
      "outputs": [
        {
          "internalType": "enum WeightedPoolType",
          "name": "poolType",
          "type": "uint8"
        },
        {
          "internalType": "bytes32",
          "name": "poolId",
          "type": "bytes32"
        },
        {
          "internalType": "contract IVault",
          "name": "vault",
          "type": "address"
        }
      ],
      "stateMutability": "view",
      "type": "function"
    },
    {
      "inputs": [
        {
          "internalType": "address",
          "name": "lp",
          "type": "address"
        },
        {
          "internalType": "enum WeightedPoolType",
          "name": "poolType",
          "type": "uint8"
        }
      ],
      "name": "registerLP",
      "outputs": [],
      "stateMutability": "nonpayable",
      "type": "function"
    },
    {
      "inputs": [
        {
          "internalType": "bytes4",
          "name": "interfaceId",
          "type": "bytes4"
        }
      ],
      "name": "supportsInterface",
      "outputs": [
        {
          "internalType": "bool",
          "name": "",
          "type": "bool"
        }
      ],
      "stateMutability": "view",
      "type": "function"
    },
    {
      "inputs": [
        {
          "internalType": "address",
          "name": "asset",
          "type": "address"
        },
        {
          "internalType": "uint256",
          "name": "amount",
          "type": "uint256"
        }
      ],
      "name": "withdraw",
      "outputs": [
        {
          "components": [
            {
              "internalType": "address",
              "name": "token",
              "type": "address"
            },
            {
              "internalType": "uint256",
              "name": "amount",
              "type": "uint256"
            }
          ],
          "internalType": "struct WithdrawResult[]",
          "name": "results",
          "type": "tuple[]"
        }
      ],
      "stateMutability": "nonpayable",
      "type": "function"
    }
  ],
  "numDeployments": 2,
  "solcInputHash": "763a020caf9e1e6ef21291ab55ec3cde",
  "bytecode": "0x6080806040523461001657612e06908161001c8239f35b600080fdfe608080604052600436101561001357600080fd5b60003560e01c90816301ffc9a71461157b5750806303ee9f221461154e578063071b32d31461152d57806314c376dc146114f257806316e29636146114c957806338013f02146114a0578063438280dd14611465578063485cc9551461120b57806351362117146111de57806371d0fb41146111a357806375071d2a1461116857806375b238fc1461114c5780638e5313e014611111578063aefca7e814610c85578063b9ac2b38146107e1578063c02d9db11461058f578063d12e73321461051a578063dc97e84e146104df578063e9c26518146104a45763f3fef3a3146100fb57600080fd5b3461049f57604036600319011261049f57610114611606565b602435610120826118b3565b1561047e5760008060405160208101906323b872dd60e01b8252336024820152306044820152846064820152606481526101598161161c565b519082865af16101676125f1565b8161044f575b5015610424576001600160a01b03821660009081526002602052604090206004015491906101a661019d84612581565b9160009361264b565b928351926000905b8461ffff831610156102ac576101db6001600160a01b036101d361ffff85168961189f565b5151166118b3565b15610279576102156001600160a01b036101f961ffff85168961189f565b515116602061020c61ffff86168a61189f565b5101519061264b565b926000915b8661ffff841610156102635761025761025d9161023b61ffff86168861189f565b51610246828a61189f565b52610251818961189f565b50611906565b926117c4565b9161021a565b969290935061027291506117c4565b90946101ae565b6102a66102729161029061ffff859995168561189f565b5161029b828861189f565b52610251818761189f565b956117c4565b836102b78492612581565b809160009060005b61ffff8116868110156103c9576001600160a01b036102de828561189f565b515116806102f7575b50506102f2906117c4565b6102bf565b60008091602061030a858899979961189f565b5101518260405161033f81610331602082019563a9059cbb60e01b87523360248401612630565b03601f198101835282611668565b51925af161034b6125f1565b8161039a575b5015610370576102f291610290610368928561189f565b9290876102e7565b60405162461bcd60e51b815260206004820152600260248201526114d560f21b6044820152606490fd5b80518015925082156103af575b505088610351565b6103c2925060208091830101910161168b565b88806103a7565b8560405180916020820160208352815180915260206040840192019060005b8181106103f6575050500390f35b825180516001600160a01b0316855260209081015181860152869550604090940193909201916001016103e8565b60405162461bcd60e51b815260206004820152600360248201526229aa2360e91b6044820152606490fd5b8051801592508215610464575b50503861016d565b610477925060208091830101910161168b565b388061045c565b604051631e489be560e01b81526001600160a01b0383166004820152602490fd5b600080fd5b3461049f57600036600319011261049f5760206040517f3b5d4cc60d3ec3516ee8ae083bd60934f6eb2a6c54b1229985c41bfb092b26038152f35b3461049f57600036600319011261049f5760206040517f9a9aef7c1247d5fc769b0185c052913e39673da29a880317dfd20ebf86f26a498152f35b3461049f57602036600319011261049f576001600160a01b038061053c611606565b166000526002602052604060002060ff81541691600260018301549201541660405191600284101561057957606093835260208301526040820152f35b634e487b7160e01b600052602160045260246000fd5b3461049f5760208060031936011261049f576001600160a01b0390816105b3611606565b169182600052600282526040600020906040516105cf8161161c565b60ff835416600281101561057957815260018084015492858301938452806002860154169260408101938452608061061c600461060e60038a01611845565b9860608501998a5201611845565b91015260009481815151945116945190600060405180978194631f29a8cd60e31b8352600483015260249889915afa9182156106d0576000926107b9575b5060005b8581106106dc5788600489828d604051938480926318160ddd60e01b82525afa9081156106d05760009161069f575b6106979250611923565b604051908152f35b90508282813d83116106c9575b6106b68183611668565b8101031261049f5761069791519061068d565b503d6106ac565b6040513d6000823e3d90fd5b836106e882845161189f565b51168a8103610701575b506106fc90611906565b61065e565b61070e82859a939a61189f565b518a86885416928a60405180958193631735856760e31b835260048301525afa9182156106d05760009261078a575b5081810291818304149015171561077557810180911161076057966106fc6106f2565b86634e487b7160e01b60005260116004526000fd5b87634e487b7160e01b60005260116004526000fd5b9091508a81813d83116107b2575b6107a28183611668565b8101031261049f5751908c61073d565b503d610798565b6107d79192503d806000833e6107cf8183611668565b810190611718565b509050908961065a565b3461049f57602036600319011261049f576107fa611606565b610803816118b3565b15610c635760018060a01b03811660005260026020526040600020906040519161082c8361161c565b60ff815416600281101561057957835260006001820154916020850192835261087c600460018060a01b03600284015416926040880193845261087160038201611845565b606089015201611845565b6080860152519151604051631f29a8cd60e31b8152600481019190915291829060249082906001600160a01b03165afa80156106d057600091600091610c45575b5060405163f89f27ed60e01b81526000816004816001600160a01b0388165afa9081156106d057600091610c07575b506a0c097ce7bc90715b34b9f16024949293941b9261090b85516118d4565b9560009360018060a01b0360035416955b8751861015610b1b5760608301516001600160a01b039061093e90889061189f565b5160405163313ce56760e01b8152911691602082600481865afa9182156106d057600092610add575b50610972888761189f565b5180670de0b6b3a7640000810204670de0b6b3a76400001481151715610a93576109b290670de0b6b3a76400006109ab60ff8616611915565b9102611923565b6109bc898861189f565b5260405192631735856760e31b845260048401526020836024818c5afa9283156106d057600093610aa9575b5060128060ff8416810311610a9357610a6c93610a10610a169260ff610a6696169003611915565b90611923565b610a20898d61189f565b52610a40610a2e898d61189f565b51610a398a8a61189f565b5190611950565b610a4a898961189f565b519080610a795750610a7257670de0b6b3a76400005b90611ac2565b95611906565b9461091c565b6000610a60565b610a6091610a89610a8e926123ae565b611ac2565b611bf8565b634e487b7160e01b600052601160045260246000fd5b9092506020813d602011610ad5575b81610ac560209383611668565b8101031261049f5751918b6109e8565b3d9150610ab8565b9091506020813d602011610b13575b81610af960209383611668565b8101031261049f575160ff8116810361049f57908b610967565b3d9150610aec565b604051634d8166ef60e11b8152906020826004816001600160a01b0387165afa9182156106d057600092610bd1575b50610b59600492602092611ac2565b6040516318160ddd60e01b815290939092839182906001600160a01b03165afa9081156106d057600091610b9e575b602061069783670de0b6b3a76400008605611950565b90506020813d602011610bc9575b81610bb960209383611668565b8101031261049f57516020610b88565b3d9150610bac565b91506020823d602011610bff575b81610bec60209383611668565b8101031261049f57905190610b59610b4a565b3d9150610bdf565b90503d806000833e610c198183611668565b810160208282031261049f5781516001600160401b03811161049f57610c3f92016116ba565b856108ec565b9050610c5c91503d806000833e6107cf8183611668565b50846108bd565b604051631e489be560e01b81526001600160a01b039091166004820152602490fd5b3461049f57604036600319011261049f57610c9e611606565b60248035916002928381101561049f5760018060a01b03908160005460101c16926040518094632474521560e21b825260006004830152338783015281604460209788935afa9081156106d0576000916110e4575b50156110d2578216946040516311b2515f60e31b815284816004818a5afa80156106d0578491600091611098575b50169384156110805786600052818152838260406000200154166110685760405163038fff2d60e41b8152968188600481845afa9788156106d057600098611039575b50806000528282528660006001978a896040842001558560408320018160018060a01b03198254161790556040822060ff1981541660ff80991617905560405192838092631f29a8cd60e31b9d8e835260048301525afa9081156106d05760009161101c575b50600082815284845260409020815160039290918301906001600160401b03831161100757600160401b83116110075785908254848455808510610fda575b509a999a01906000528460002060005b838110610fc7575050505087988260009998995284845281604060002001549560009a5b610e4357005b61ffff87818d161015610fc5578460005286865288610e688d866040600020016117d7565b905490861b1c16610e78816118b3565b15610fa5576000528686526040600020604051610e948161161c565b8382541689811015610f90578893928260808f8f94858f610ee19360049360009a528701549a86019a8b52860154169460408501958652610ed68d8201611845565b606086015201611845565b910152511692518d6040518095819389835260048301525afa9182156106d057600092610f71575b5060008b5b610f28575b505050610f21899a9b6117c4565b9a99610e3d565b825182821690811015610f6b578c91610f60610f65928e8b6000528d8d52610f586004604060002001928961189f565b511690611805565b6117c4565b90610f0e565b50610f13565b610f879192503d806000833e6107cf8183611668565b5050908d610f09565b8d634e487b7160e01b60005260216004526000fd5b610f2191509b610f608b9c9d876000528989526004604060002001611805565b005b82518a1682820155918601918b01610e19565b836000528b858460002092830192015b828110610ff8575050610e09565b600081558994508d9101610fea565b8a634e487b7160e01b60005260416004526000fd5b61103191503d806000833e6107cf8183611668565b505089610dca565b9097508181813d8311611061575b6110518183611668565b8101031261049f57519688610d64565b503d611047565b6040516345ed80e960e01b8152600481018890528690fd5b604051631e489be560e01b8152600481018890528690fd5b809250868092503d83116110cb575b6110b18183611668565b8101031261049f5751838116810361049f57839088610d21565b503d6110a7565b604051631886ea7d60e11b8152600490fd5b6111049150853d871161110a575b6110fc8183611668565b81019061168b565b87610cf3565b503d6110f2565b3461049f57600036600319011261049f5760206040517fe453bacb314e78dcd5192e6b1a2b1f0e7c76e92f6b7e429a6a90f04e39db3b768152f35b3461049f57600036600319011261049f57602060405160008152f35b3461049f57600036600319011261049f5760206040517f5719df9ef2c4678b547f89e4f5ae410dbf400fc51cf3ded434c55f6adea2c43f8152f35b3461049f57600036600319011261049f5760206040517f880a91047114272656e533301261260c75e4d11543ac7303d6fe4204579ec7278152f35b3461049f57602036600319011261049f5760206112016111fc611606565b6118b3565b6040519015158152f35b3461049f57604036600319011261049f57611224611606565b6001600160a01b03906024358281169182820361049f576000549360ff8560081c161594858096611458575b8015611441575b156113e55760ff198116600117600055856113d3575b506000549060ff8260081c161561137a5762010000600160b01b0319909116601083901b62010000600160b01b03161760005516801515908161131d575b5061130b576112b990612dae565b600380546001600160a01b0319169190911790556112d357005b61ff0019600054166000557f7f26b83ff96e1f2b6a682f133852f6798a09c465da95921460cefb3847402498602060405160018152a1005b6040516384d942fd60e01b8152600490fd5b6040516301ffc9a760e01b8152637965db0b60e01b60048201529150602090829060249082905afa9081156106d05760009161135c575b5015846112ab565b611374915060203d811161110a576110fc8183611668565b84611354565b60405162461bcd60e51b815260206004820152602b60248201527f496e697469616c697a61626c653a20636f6e7472616374206973206e6f74206960448201526a6e697469616c697a696e6760a81b6064820152608490fd5b61ffff1916610101176000558561126d565b60405162461bcd60e51b815260206004820152602e60248201527f496e697469616c697a61626c653a20636f6e747261637420697320616c72656160448201526d191e481a5b9a5d1a585b1a5e995960921b6064820152608490fd5b50303b1580156112575750600160ff821614611257565b50600160ff821610611250565b3461049f57600036600319011261049f5760206040517f39f61ca2a1a28fee144218173ec637b649a353e4026b2738c673800e5bf1437b8152f35b3461049f57600036600319011261049f576003546040516001600160a01b039091168152602090f35b3461049f57600036600319011261049f576001546040516001600160a01b039091168152602090f35b3461049f57600036600319011261049f5760206040517fe965846df3dd5b1dfa65f58e31477079e90140e0908b6dd31b5aead5a57cf3658152f35b3461049f57602036600319011261049f57610fc5611549611606565b612dae565b3461049f57600036600319011261049f5760005460405160109190911c6001600160a01b03168152602090f35b3461049f57602036600319011261049f5760043563ffffffff60e01b811680910361049f576000546301ffc9a760e01b835260048301919091526020908290602490829060101c6001600160a01b03165afa80156106d0576020916000916115e9575b506040519015158152f35b6116009150823d811161110a576110fc8183611668565b826115de565b600435906001600160a01b038216820361049f57565b60a081019081106001600160401b0382111761163757604052565b634e487b7160e01b600052604160045260246000fd5b604081019081106001600160401b0382111761163757604052565b601f909101601f19168101906001600160401b0382119082101761163757604052565b9081602091031261049f5751801515810361049f5790565b6001600160401b0381116116375760051b60200190565b81601f8201121561049f578051916116d1836116a3565b926116df6040519485611668565b808452602092838086019260051b82010192831161049f578301905b828210611709575050505090565b815181529083019083016116fb565b909160608284031261049f5781516001600160401b03939084811161049f5783019381601f8601121561049f57845194611751866116a3565b9061175f6040519283611668565b868252602096878084019160051b8301019185831161049f578801905b8282106117a5575050509484015190811161049f5760409161179f9185016116ba565b92015190565b81516001600160a01b038116810361049f57815290880190880161177c565b61ffff809116908114610a935760010190565b80548210156117ef5760005260206000200190600090565b634e487b7160e01b600052603260045260246000fd5b8054600160401b81101561163757611822916001820181556117d7565b819291549060031b9160018060a01b039283811b93849216901b16911916179055565b9060405191828154918282526020928383019160005283600020936000905b82821061187c5750505061187a92500383611668565b565b85546001600160a01b031684526001958601958895509381019390910190611864565b80518210156117ef5760209160051b010190565b60018060a01b03809116600052600260205260026040600020015416151590565b906118de826116a3565b6118eb6040519182611668565b82815280926118fc601f19916116a3565b0190602036910137565b6000198114610a935760010190565b604d8111610a9357600a0a90565b811561192d570490565b634e487b7160e01b600052601260045260246000fd5b91908203918211610a9357565b600160ff1b9080821480156119f2575b6119e05760008112156119d757611988816000035b60008512156119d05784600003906119fb565b926001600160ff1b0384116119b7576000199182129112186001036119b3578114610a935760000390565b5090565b604051637cb4bef560e01b815260048101859052602490fd5b84906119fb565b61198881611975565b60405163b3c754a360e01b8152600490fd5b50818314611960565b670de0b6b3a7640000916000198383099280830292838086109503948086039514611a995782851015611a7b57908291096001821901821680920460028082600302188083028203028083028203028083028203028083028203028083028203028092029003029360018380600003040190848311900302920304170290565b6044858460405191631dcf306360e21b835260048301526024820152fd5b505090611aa69250611923565b90565b801561192d576a0c097ce7bc90715b34b9f160241b0590565b600160ff1b818114908115611b5b575b50611b49576000811215611b4057611afb816000035b6000841215611b39578360000390611b65565b916001600160ff1b038311611b2057600019918212911218600103611aa65760000390565b60405163bf79e8d960e01b815260048101849052602490fd5b8390611b65565b611afb81611ae8565b604051630d01a11b60e21b8152600490fd5b9050821438611ad2565b600019828209828202908180821091039381850390670de0b6b3a76400009485831015611bdf5790859109916706f05b59d3b1ffff83119514611bd8577faccb18165bd6fe31ae1cf318dc5b51eee0e1ba569b88cd74c1773b91fac106699350828211900360ee1b910360121c17020190565b5050040190565b60405163698d9a0160e11b815260048101849052602490fd5b6000811215611c2d5768033dd1780914b97114198112611c2757611c1e90600003611bf8565b611aa690611aa9565b50600090565b680a688906bd8b00000081121561239657604090670de0b6b3a764000090821b81900490600160bf1b6001603f1b8316612383575b6001603e1b8316612371575b6001603d1b831661235f575b6001603c1b831661234d575b6001603b1b831661233b575b6001603a1b8316612329575b600160391b8316612317575b600160381b8316612305575b600160371b83166122f3575b600160361b83166122e1575b600160351b83166122cf575b600160341b83166122bd575b600160331b83166122ab575b600160321b8316612299575b600160311b8316612287575b600160301b8316612275575b6001602f1b8316612263575b6001602e1b8316612251575b6001602d1b831661223f575b6001602c1b831661222d575b6001602b1b831661221b575b6001602a1b8316612209575b600160291b83166121f7575b600160281b83166121e5575b600160271b83166121d3575b600160261b83166121c1575b600160251b83166121af575b600160241b831661219d575b600160231b831661218b575b600160221b8316612179575b600160211b8316612167575b600160201b8316612155575b63800000008316612143575b63400000008316612131575b6320000000831661211f575b6310000000831661210d575b630800000083166120fb575b630400000083166120e9575b630200000083166120d7575b630100000083166120c5575b6280000083166120b3575b6240000083166120a1575b62200000831661208f575b62100000831661207d575b62080000831661206b575b620400008316612059575b620200008316612047575b620100008316612036575b6180008316612025575b6140008316612014575b6120008316612003575b6110008316611ff2575b6108008316611fe1575b6104008316611fd0575b6102008316611fbf575b6101008316611faf575b60808316611f9f575b838316611f8f575b60208316611f7f575b60108316611f6f575b60088316611f5f575b60048316611f4f575b60028316611f3f575b60018316611f2f575b02911c60bf031c90565b6001600160401b0102831c611f25565b6001600160401b0102831c611f1c565b6003600160401b0102831c611f13565b6006600160401b0102831c611f0a565b600b600160401b0102831c611f01565b6016600160401b0102831c611ef8565b602c600160401b0102831c611eef565b6059600160401b0102831c611ee7565b60b1600160401b0102831c611ede565b610163600160401b0102831c611ed4565b6102c6600160401b0102831c611eca565b61058c600160401b0102831c611ec0565b610b17600160401b0102831c611eb6565b61162e600160401b0102831c611eac565b612c5d600160401b0102831c611ea2565b6158b9600160401b0102831c611e98565b61b172600160401b0102831c611e8e565b680100000000000162e402831c611e83565b6801000000000002c5c802831c611e78565b68010000000000058b9102831c611e6d565b680100000000000b172102831c611e62565b68010000000000162e4302831c611e57565b680100000000002c5c8602831c611e4c565b6801000000000058b90c02831c611e41565b68010000000000b1721802831c611e36565b6801000000000162e43002831c611e2a565b68010000000002c5c86002831c611e1e565b680100000000058b90c002831c611e12565b6801000000000b17217f02831c611e06565b680100000000162e42ff02831c611dfa565b6801000000002c5c85fe02831c611dee565b68010000000058b90bfc02831c611de2565b680100000000b17217f802831c611dd6565b68010000000162e42ff102831c611dca565b680100000002c5c85fe302831c611dbe565b6801000000058b90bfce02831c611db2565b68010000000b17217fbb02831c611da6565b6801000000162e42fff002831c611d9a565b68010000002c5c8601cc02831c611d8e565b680100000058b90c0b4902831c611d82565b6801000000b17218355102831c611d76565b680100000162e430e5a202831c611d6a565b6801000002c5c863b73f02831c611d5e565b68010000058b90cf1e6e02831c611d52565b680100000b1721bcfc9a02831c611d46565b68010000162e43f4f83102831c611d3a565b680100002c5c89d5ec6d02831c611d2e565b6801000058b91b5bc9ae02831c611d22565b68010000b17255775c0402831c611d16565b6801000162e525ee054702831c611d0a565b68010002c5cc37da949202831c611cfe565b680100058ba01fb9f96d02831c611cf2565b6801000b175effdc76ba02831c611ce6565b680100162f3904051fa102831c611cda565b6801002c605e2e8cec5002831c611cce565b68010058c86da1c09ea202831c611cc2565b680100b1afa5abcbed6102831c611cb6565b68010163da9fb33356d802831c611caa565b680102c9a3e778060ee702831c611c9e565b6801059b0d31585743ae02831c611c92565b68010b5586cf9890f62a02831c611c86565b6801172b83c7d517adce02831c611c7a565b6801306fe0a31b7152df02831c611c6e565b5068016a09e667f3bcc909607f1b611c62565b6024906040519063e69458f960e01b82526004820152fd5b6000908181131561256957670de0b6b3a76400009182821261254c576001925b81818405600160801b811015612541575b600160401b81101561252c575b600160201b811015612517575b62010000811015612502575b6101008110156124ed575b60108110156124d8575b60048110156124af575b6002111561248f575b81810293811d9082821461248457506706f05b59d3b20000905b83821361245657505050500290565b808391020590671bc16d674ec80000821215612476575b60011d90612447565b809194019360011d9061246d565b925050929150020290565b600181018091111561242d57634e487b7160e01b83526011600452602483fd5b60021c90600281018091116124c45790612424565b634e487b7160e01b84526011600452602484fd5b60041c90600481018091116124c4579061241a565b60081c90600881018091116124c45790612410565b60101c90601081018091116124c45790612405565b60201c90602081018091116124c457906123f9565b60401c90604081018091116124c457906123ec565b60809150811c6123df565b600019926a0c097ce7bc90715b34b9f160241b92909204916123ce565b6024906040519063309fa7dd60e11b82526004820152fd5b9061258b826116a3565b60409061259a82519182611668565b83815280936125ab601f19916116a3565b019060005b8281106125bd5750505050565b835180850191906001600160401b0383118184101761163757602092865260008152826000818301528285010152016125b0565b3d1561262b573d906001600160401b038211611637576040519161261f601f8201601f191660200184611668565b82523d6000602084013e565b606090565b6001600160a01b039091168152602081019190915260400190565b6001600160a01b038116600090815260026020526040808220905191949392906126748361161c565b60ff8154166002811015612d9a5783526001810154602084015260028101546001600160a01b031660408401526126b490600490610ed660038201611845565b6080830152606082015151604083015190939081906001600160a01b0390811690841681141580612d0f575b612ca1575b50506126f0846118d4565b93865b8161ffff821610156127a657602490602060018060a01b0361271d61ffff841660608a015161189f565b5116604051938480926370a0823160e01b82523060048301525afa801561279b578990612763575b61275e925061275861ffff83168961189f565b526117c4565b6126f3565b506020823d602011612793575b8161277d60209383611668565b8101031261278f5761275e9151612745565b8880fd5b3d9150612770565b6040513d8b823e3d90fd5b50919495939092956127b7836116a3565b916127c56040519384611668565b838352601f196127d4856116a3565b013660208501376127e4846118d4565b93865b61ffff81168281101561282b579088612758838d61281361282696606060018060a01b0393015161189f565b511661281f828b61189f565b528961189f565b6127e7565b5050949693909592919660018060a01b0360408a0151169160208a015193604051926001602085015260408401526040835282606081011060018060401b03606085011117612c8d576001600160401b0360e084019081116060850190911017612c8d5760e08301604052606083015260808201528060a08101528360c0820152813b15612c8957918391604051938492638bdb391360e01b845260048401523060248401523060448401526080606484015261010483019060608101519160806084860152825180915260206101248601930190865b818110612c64575050506080810151916083198582030160a486015260208084519283815201930190865b818110612c485750505060a08101518483036083190160c486015280518084529190865b838110612c2e57505084838360c06020948a868198879a0101520151151560e4840152601f8019910116010301925af18015612c2357612bf8575b50906060860151908151156117ef576020909101516001600160a01b03908116911603612b08576000198201828111612af4576129c890612581565b9260015b61ffff811684811015612aeb576024602060018060a01b036129f28460608d015161189f565b5116604051928380926370a0823160e01b82523060048301525afa8015612ae0578590612aac575b612a309150612a29838661189f565b5190611943565b9060018060a01b03612a468260608c015161189f565b51169160405192612a568461164d565b8352602083015261ffff600019820111612a9857612a939291612a8d916000190161ffff1690612a86828a61189f565b528761189f565b506117c4565b6129cc565b634e487b7160e01b85526011600452602485fd5b506020813d602011612ad8575b81612ac660209383611668565b8101031261049f57612a309051612a1a565b3d9150612ab9565b6040513d87823e3d90fd5b50505050509150565b634e487b7160e01b82526011600452602482fd5b612b1482939592612581565b94815b61ffff81169085821015612bf0576024602060018060a01b03612b3e8560608a015161189f565b5116604051928380926370a0823160e01b82523060048301525afa908115612ae0578591612bbc575b5082612b7d612a8d92612a29612bb7968861189f565b60608801516001600160a01b0390612b9690849061189f565b51169060405191612ba68361164d565b8252602082015261281f828c61189f565b612b17565b90506020813d602011612be8575b81612bd760209383611668565b8101031261049f5751612bb7612b67565b3d9150612bca565b505050505050565b6001600160401b038111612c0f576040523861298c565b634e487b7160e01b82526041600452602482fd5b6040513d84823e3d90fd5b60208183018101518683018201528a985089975001612951565b825185528997508896506020948501949092019160010161292d565b82516001600160a01b0316855289975088965060209485019490920191600101612902565b8380fd5b634e487b7160e01b86526041600452602486fd5b60405163095ea7b360e01b81529160209183918291612cc4919060048401612630565b03818a6001600160a01b0388165af18015612d0457612ce5575b81906126e5565b612cfd9060203d60201161110a576110fc8183611668565b5038612cde565b6040513d89823e3d90fd5b50604051636eb1769f60e11b81523060048201526024810182905291506020826044816001600160a01b0388165afa8015612d8f5783928991612d55575b5082116126e0565b9250506020823d602011612d87575b81612d7160209383611668565b81010312612d83578280925190612d4d565b8780fd5b3d9150612d64565b6040513d8a823e3d90fd5b634e487b7160e01b87526021600452602487fd5b600180546001600160a01b0319166001600160a01b039290921691909117905556fea2646970667358221220658d24568925d367fac2064dc4ec87824714afa00226b331d5dca91471ece93b64736f6c63430008110033",
  "devdoc": {
    "details": "See ILPAdapter interface for full details. Before mainnet deploy need to remove BalancerAdapterWeightedUnsafe",
    "kind": "dev",
    "methods": {
      "getFiatPrice1e18(address)": {
        "params": {
          "asset": "- address of erc20 token contract"
        },
        "returns": {
          "_0": "usdPrice1e18 such that asset.balanceOf() * getFiatPrice1e18(asset) / 1e18 == $$ * 1e18*"
        }
      },
      "isAdapterLP(address)": {
        "params": {
          "asset": "- address of LP token to check*"
        }
      },
      "registerLP(address,uint8)": {
        "params": {
          "lp": "LP token to find and set the corresponding info.*"
        }
      },
      "supportsInterface(bytes4)": {
        "details": "Returns true if this contract implements the interface defined by `interfaceId`. See the corresponding https://eips.ethereum.org/EIPS/eip-165#how-interfaces-are-identified[EIP section] to learn more about how these ids are created. This function call must use less than 30 000 gas."
      },
      "withdraw(address,uint256)": {
        "params": {
          "amount": "- amount of asset to withdraw/unwrap*",
          "asset": "- address of LP token to withdraw/unwrap"
        }
      }
    },
    "title": "BalancerAdapterWeighted",
    "version": 1
  },
  "userdoc": {
    "errors": {
      "PRBMathSD59x18__DivInputTooSmall()": [
        {
          "notice": "Emitted when one of the inputs is MIN_SD59x18."
        }
      ],
      "PRBMathSD59x18__DivOverflow(uint256)": [
        {
          "notice": "Emitted when one of the intermediary unsigned results overflows SD59x18."
        }
      ],
      "PRBMathSD59x18__Exp2InputTooBig(int256)": [
        {
          "notice": "Emitted when the input is greater than 192."
        }
      ],
      "PRBMathSD59x18__FromIntOverflow(int256)": [
        {
          "notice": "Emitted when converting a basic integer to the fixed-point format overflows SD59x18."
        }
      ],
      "PRBMathSD59x18__FromIntUnderflow(int256)": [
        {
          "notice": "Emitted when converting a basic integer to the fixed-point format underflows SD59x18."
        }
      ],
      "PRBMathSD59x18__LogInputTooSmall(int256)": [
        {
          "notice": "Emitted when the input is less than or equal to zero."
        }
      ],
      "PRBMathSD59x18__MulInputTooSmall()": [
        {
          "notice": "Emitted when one of the inputs is MIN_SD59x18."
        }
      ],
      "PRBMathSD59x18__MulOverflow(uint256)": [
        {
          "notice": "Emitted when the intermediary absolute result overflows SD59x18."
        }
      ],
      "PRBMath__MulDivFixedPointOverflow(uint256)": [
        {
          "notice": "Emitted when the result overflows uint256."
        }
      ],
      "PRBMath__MulDivOverflow(uint256,uint256)": [
        {
          "notice": "Emitted when the result overflows uint256."
        }
      ]
    },
    "kind": "user",
    "methods": {
      "getFiatPrice1e18(address)": {
        "notice": "WARNING! Read this description very carefully!     function getFiatPrice1e18(address asset) returns (uint256) that:         basicAmountOfAsset * getFiatPrice1e18(asset) / 1e18 === $$ * 1e18     in other words, it doesn't matter what's the erc20.decimals is,     you just multiply token balance in basic units on value from oracle and get dollar amount multiplied on 1e18. different assets have different deviation threshold (errors)     for wBTC it's <= 0.5%, read more https://data.chain.link/ethereum/mainnet/crypto-usd/btc-usd     for other asset is can be larger based on particular oracle implementation. examples:     market price of btc = $30k,     for 0.1 wBTC the unit256 amount is 0.1 * 1e18     0.1 * 1e18 * (price1e18 / 1e18) == $3000 == uint256(3000*1e18)     => price1e18 = 30000 * 1e18;     market price of usdt = $0.97,     for 1 usdt uint256 = 1 * 1e6     so 1*1e6 * price1e18 / 1e18 == $0.97 == uint256(0.97*1e18)     => 1*1e6 * (price1e18 / 1e18) / (0.97*1e18)   = 1     =>  price1e18 = 0.97 * (1e18/1e6) * 1e18    assume market price of wBTC = $31,503.77, oracle error = $158     case #1: small amount of wBTC         we have 0.0,000,001 wBTC that is worth v = $0.00315  $0.00001 = 0.00315*1e18 = 315*1e13  1*1e13         actual balance on the asset b = wBTC.balanceOf() =  0.0000001*1e18 = 1e11         oracle should return or = oracle.getFiatPrice1e18(wBTC) <=>         <=> b*or = v => v/b = 315*1e13 / 1e11 = 315*1e2  1e2         error = or.error * b = 1e2 * 1e11 = 1e13 => 1e13/1e18 usd = 1e-5 = 0.00001 usd     case #2: large amount of wBTC         v = 2,000,000 wBTC = $31,503.77 * 2m  158*2m = $63,007,540,000  $316,000,000 = 63,007*1e24  316*1e24         for calc convenience we increase error on 0.05 and have v = 63,000*24  300*1e24 = (630  3)*1e26         b = 2*1e6 * 1e18 = 2*1e24         or = v/b = (630  3)*1e26 / 2*1e24 = 315*1e2  1.5*1e2         error = or.error * b = 1.5*100 * 2*1e24 = 3*1e26 = 3*1e8*1e18 = $300,000,000 ~ $316,000,000     assume the market price of USDT = $0.97  $0.00485,     case #3: little amount of USDT         v = USDT amount 0.005 = 0.005*(0.97  0.00485) = 0.00485*1e18  0.00002425*1e18 = 485*1e13  3*1e13         we rounded error up on (3000-2425)/2425 ~= +24% for calculation convenience.         b = USDT.balanceOf() = 0.005*1e6 = 5*1e3         b*or = v => or = v/b = (485*1e13  3*1e13) / 5*1e3 = 970*1e9  6*1e9         error = 6*1e9 * 5*1e3 / 1e18 = 30*1e12/1e18 = 3*1e-5 = $0,00005     case #4: lot of USDT         v = we have 100,000,000,000 USDT = $97B = 97*1e9*1e18  0.5*1e9*1e18         b = USDT.balanceOf() = 1e11*1e6 = 1e17         or = v/b = (97*1e9*1e18  0.5*1e9*1e18) / 1e17 = 970*1e9  5*1e9         error = 5*1e9 * 1e17 = 5*1e26 = 0.5 * 1e8*1e18"
      },
      "getFiatPrice1e18Unsafe(address)": {
        "notice": "Deprecated - Simple version of oracle that can be attacked with flash-loan, only for tests"
      },
      "isAdapterLP(address)": {
        "notice": "Returns if asset ig Balancer LP token, registered in our adapter"
      },
      "registerLP(address,uint8)": {
        "notice": "Register the given LP token address and set the LP info. We go to the depth = 2, that means, that if LP token {lp} contains {lp1} and {erc20Token1} as underlying tokens, where lp1 contains {erc20Token0} and {erc20Token2}, then we will register that {lp} has {erc20Token0}, {erc20Token2} and {erc20Token1} as underlying tokens."
      },
      "withdraw(address,uint256)": {
        "notice": "Unwrap LP token with depth = 2 (if underlying token is LP => it's also unwrapping)"
      }
    },
    "notice": "Adapter for Balancer Weighted LP token.",
    "version": 1
  },
  "storageLayout": {
    "storage": [
      {
        "astId": 671,
        "contract": "contracts/periphery/contracts/adapters/BalancerAdapterWeighted.sol:BalancerAdapterWeighted",
        "label": "_initialized",
        "offset": 0,
        "slot": "0",
        "type": "t_uint8"
      },
      {
        "astId": 674,
        "contract": "contracts/periphery/contracts/adapters/BalancerAdapterWeighted.sol:BalancerAdapterWeighted",
        "label": "_initializing",
        "offset": 1,
        "slot": "0",
        "type": "t_bool"
      },
      {
        "astId": 34698,
        "contract": "contracts/periphery/contracts/adapters/BalancerAdapterWeighted.sol:BalancerAdapterWeighted",
        "label": "ACCESS_CONTROL_SINGLETON",
        "offset": 2,
        "slot": "0",
        "type": "t_contract(ISuAccessControl)38513"
      },
      {
        "astId": 38100,
        "contract": "contracts/periphery/contracts/adapters/BalancerAdapterWeighted.sol:BalancerAdapterWeighted",
        "label": "_ORACLE",
        "offset": 0,
        "slot": "1",
        "type": "t_contract(ISuOracle)38704"
      },
      {
        "astId": 35131,
        "contract": "contracts/periphery/contracts/adapters/BalancerAdapterWeighted.sol:BalancerAdapterWeighted",
        "label": "lps",
        "offset": 0,
        "slot": "2",
        "type": "t_mapping(t_address,t_struct(LPInfoAdapter)35117_storage)"
      },
      {
        "astId": 35134,
        "contract": "contracts/periphery/contracts/adapters/BalancerAdapterWeighted.sol:BalancerAdapterWeighted",
        "label": "ORACLE",
        "offset": 0,
        "slot": "3",
        "type": "t_contract(ISuOracle)38704"
      },
      {
        "astId": 36127,
        "contract": "contracts/periphery/contracts/adapters/BalancerAdapterWeighted.sol:BalancerAdapterWeighted",
        "label": "__gap",
        "offset": 0,
        "slot": "4",
        "type": "t_array(t_uint256)45_storage"
      }
    ],
    "types": {
      "t_address": {
        "encoding": "inplace",
        "label": "address",
        "numberOfBytes": "20"
      },
      "t_array(t_contract(IERC20)5992)dyn_storage": {
        "base": "t_contract(IERC20)5992",
        "encoding": "dynamic_array",
        "label": "contract IERC20[]",
        "numberOfBytes": "32"
      },
      "t_array(t_uint256)45_storage": {
        "base": "t_uint256",
        "encoding": "inplace",
        "label": "uint256[45]",
        "numberOfBytes": "1440"
      },
      "t_bool": {
        "encoding": "inplace",
        "label": "bool",
        "numberOfBytes": "1"
      },
      "t_bytes32": {
        "encoding": "inplace",
        "label": "bytes32",
        "numberOfBytes": "32"
      },
      "t_contract(IERC20)5992": {
        "encoding": "inplace",
        "label": "contract IERC20",
        "numberOfBytes": "20"
      },
      "t_contract(ISuAccessControl)38513": {
        "encoding": "inplace",
        "label": "contract ISuAccessControl",
        "numberOfBytes": "20"
      },
      "t_contract(ISuOracle)38704": {
        "encoding": "inplace",
        "label": "contract ISuOracle",
        "numberOfBytes": "20"
      },
      "t_contract(IVault)41574": {
        "encoding": "inplace",
        "label": "contract IVault",
        "numberOfBytes": "20"
      },
      "t_enum(WeightedPoolType)35100": {
        "encoding": "inplace",
        "label": "enum WeightedPoolType",
        "numberOfBytes": "1"
      },
      "t_mapping(t_address,t_struct(LPInfoAdapter)35117_storage)": {
        "encoding": "mapping",
        "key": "t_address",
        "label": "mapping(address => struct LPInfoAdapter)",
        "numberOfBytes": "32",
        "value": "t_struct(LPInfoAdapter)35117_storage"
      },
      "t_struct(LPInfoAdapter)35117_storage": {
        "encoding": "inplace",
        "label": "struct LPInfoAdapter",
        "members": [
          {
            "astId": 35103,
            "contract": "contracts/periphery/contracts/adapters/BalancerAdapterWeighted.sol:BalancerAdapterWeighted",
            "label": "poolType",
            "offset": 0,
            "slot": "0",
            "type": "t_enum(WeightedPoolType)35100"
          },
          {
            "astId": 35105,
            "contract": "contracts/periphery/contracts/adapters/BalancerAdapterWeighted.sol:BalancerAdapterWeighted",
            "label": "poolId",
            "offset": 0,
            "slot": "1",
            "type": "t_bytes32"
          },
          {
            "astId": 35108,
            "contract": "contracts/periphery/contracts/adapters/BalancerAdapterWeighted.sol:BalancerAdapterWeighted",
            "label": "vault",
            "offset": 0,
            "slot": "2",
            "type": "t_contract(IVault)41574"
          },
          {
            "astId": 35112,
            "contract": "contracts/periphery/contracts/adapters/BalancerAdapterWeighted.sol:BalancerAdapterWeighted",
            "label": "underlyingTokens",
            "offset": 0,
            "slot": "3",
            "type": "t_array(t_contract(IERC20)5992)dyn_storage"
          },
          {
            "astId": 35116,
            "contract": "contracts/periphery/contracts/adapters/BalancerAdapterWeighted.sol:BalancerAdapterWeighted",
            "label": "underlyingTokensExpanded",
            "offset": 0,
            "slot": "4",
            "type": "t_array(t_contract(IERC20)5992)dyn_storage"
          }
        ],
        "numberOfBytes": "160"
      },
      "t_uint256": {
        "encoding": "inplace",
        "label": "uint256",
        "numberOfBytes": "32"
      },
      "t_uint8": {
        "encoding": "inplace",
        "label": "uint8",
        "numberOfBytes": "1"
      }
    }
  }
}