{
  "address": "0xe2B7FA7e51320DE4871aa29D4cdd74406c7DE67d",
  "abi": [
    {
      "inputs": [
        {
          "internalType": "address",
          "name": "_manager",
          "type": "address"
        },
        {
          "internalType": "address",
          "name": "_ve",
          "type": "address"
        }
      ],
      "stateMutability": "nonpayable",
      "type": "constructor"
    },
    {
      "inputs": [
        {
          "internalType": "address",
          "name": "addr",
          "type": "address"
        }
      ],
      "name": "blockContract",
      "outputs": [],
      "stateMutability": "nonpayable",
      "type": "function"
    },
    {
      "inputs": [
        {
          "internalType": "address",
          "name": "addr",
          "type": "address"
        }
      ],
      "name": "isBlocked",
      "outputs": [
        {
          "internalType": "bool",
          "name": "",
          "type": "bool"
        }
      ],
      "stateMutability": "view",
      "type": "function"
    },
    {
      "inputs": [],
      "name": "manager",
      "outputs": [
        {
          "internalType": "address",
          "name": "",
          "type": "address"
        }
      ],
      "stateMutability": "view",
      "type": "function"
    },
    {
      "inputs": [],
      "name": "ve",
      "outputs": [
        {
          "internalType": "address",
          "name": "",
          "type": "address"
        }
      ],
      "stateMutability": "view",
      "type": "function"
    }
  ],
  "transactionHash": "0x47e18a9bd6352135ac282528cc998edfc535b08638053a6a9cc4756b9796a04a",
  "args": [
    "0xe1c43255220a459e1C64038a981C85ED5cDF037a",
    "0x5f98bEA860620E5D6780142144E6827fBC18b791"
  ],
  "numDeployments": 1,
  "solcInputHash": "5bc0d5dcc998690252d7c4c581d2a8fc",
  "bytecode": "0x60c03461008757601f61036738819003918201601f19168301916001600160401b0383118484101761008c57808492604094855283398101031261008757610052602061004b836100a2565b92016100a2565b9060805260a0526040516102b090816100b7823960805181818160bc0152610208015260a051818181610101015261024b0152f35b600080fd5b634e487b7160e01b600052604160045260246000fd5b51906001600160a01b03821682036100875756fe6080604081815260048036101561001557600080fd5b600092833560e01c9081631f8507161461023757508063481c6a75146101f3578063aba129b61461008f5763fbac39511461004f57600080fd5b3461008b57602036600319011261008b57356001600160a01b0381169081900361008b57818360ff926020955280855220541690519015158152f35b8280fd5b509190346101ef5760203660031901126101ef576001600160a01b039280358481169081810361018557857f00000000000000000000000000000000000000000000000000000000000000001633036101bd573b1561018957839481855284602052838520600160ff198254161790557f000000000000000000000000000000000000000000000000000000000000000016803b15610185576024859285519687938492631c8e64fb60e11b8452878401525af1801561017b57610151578380f35b6001600160401b0383116101685750523880808380f35b634e487b7160e01b845260419052602483fd5b82513d86823e3d90fd5b8480fd5b506020606492519162461bcd60e51b8352820152600e60248201526d4f6e6c7920636f6e74726163747360901b6044820152fd5b835162461bcd60e51b8152602081850152600c60248201526b27b7363c9036b0b730b3b2b960a11b6044820152606490fd5b5080fd5b5050346101ef57816003193601126101ef57517f00000000000000000000000000000000000000000000000000000000000000006001600160a01b03168152602090f35b8490346101ef57816003193601126101ef577f00000000000000000000000000000000000000000000000000000000000000006001600160a01b03168152602090f3fea264697066735822122019dc9f051975b9a174f0f5b14f17bc8703d793fe68a218cc2c06c892f84a70c564736f6c63430008110033",
  "devdoc": {
    "details": "Blocking can be circumvented by a deterministically created (create2) contract that selfdestructs after execution of instructions In such a scenario the Blocklist may have to be replaced with new one that also supports blocking of addresses in general",
    "kind": "dev",
    "methods": {
      "blockContract(address)": {
        "details": "Is only callable by the Blocklist owner Allows blocklisting only of contracts",
        "params": {
          "addr": "The contract address to blocklist"
        }
      },
      "constructor": {
        "params": {
          "_manager": "Owner of the blocklist contract",
          "_ve": "Address of the `VotingEscrow` contract"
        }
      },
      "isBlocked(address)": {
        "details": "This method will be called by the VotingEscrow contract",
        "params": {
          "addr": "The contract address to check"
        },
        "returns": {
          "_0": "Whether `addr` is blocked or not"
        }
      }
    },
    "title": "A blocklist for contracts",
    "version": 1
  },
  "userdoc": {
    "kind": "user",
    "methods": {
      "blockContract(address)": {
        "notice": "Add address to blocklist"
      },
      "constructor": {
        "notice": "Initializes state"
      },
      "isBlocked(address)": {
        "notice": "Check an address"
      }
    },
    "notice": "Allows blocking of contracts. Blocking a contract also forces the undelegation of that lock in the VotingEscrow contract",
    "version": 1
  },
  "storageLayout": {
    "storage": [
      {
        "astId": 40388,
        "contract": "contracts/staking/contracts/Blocklist.sol:Blocklist",
        "label": "_blocklist",
        "offset": 0,
        "slot": "0",
        "type": "t_mapping(t_address,t_bool)"
      }
    ],
    "types": {
      "t_address": {
        "encoding": "inplace",
        "label": "address",
        "numberOfBytes": "20"
      },
      "t_bool": {
        "encoding": "inplace",
        "label": "bool",
        "numberOfBytes": "1"
      },
      "t_mapping(t_address,t_bool)": {
        "encoding": "mapping",
        "key": "t_address",
        "label": "mapping(address => bool)",
        "numberOfBytes": "32",
        "value": "t_bool"
      }
    }
  }
}