{
  "address": "0x75028faacf26ca990c9F2d3A759b0791bC78218F",
  "abi": [
    {
      "inputs": [
        {
          "internalType": "address",
          "name": "accessControlSingleton",
          "type": "address"
        },
        {
          "internalType": "address",
          "name": "safeEngine_",
          "type": "address"
        },
        {
          "internalType": "address",
          "name": "systemCoin_",
          "type": "address"
        },
        {
          "internalType": "address",
          "name": "rewardChef_",
          "type": "address"
        }
      ],
      "stateMutability": "nonpayable",
      "type": "constructor"
    },
    {
      "inputs": [],
      "name": "BadAccessControlSingleton",
      "type": "error"
    },
    {
      "inputs": [],
      "name": "BadLockupPeriod",
      "type": "error"
    },
    {
      "inputs": [],
      "name": "InvalidProxy",
      "type": "error"
    },
    {
      "inputs": [],
      "name": "InvalidProxyOwner",
      "type": "error"
    },
    {
      "inputs": [],
      "name": "OnlyAdminError",
      "type": "error"
    },
    {
      "inputs": [],
      "name": "OnlyAlerterError",
      "type": "error"
    },
    {
      "inputs": [],
      "name": "OnlyCDPAccessError",
      "type": "error"
    },
    {
      "inputs": [],
      "name": "OnlyDAOError",
      "type": "error"
    },
    {
      "inputs": [],
      "name": "OnlyDisablerAccessError",
      "type": "error"
    },
    {
      "inputs": [],
      "name": "OnlyLiquidationAccessError",
      "type": "error"
    },
    {
      "inputs": [],
      "name": "OnlyMintAccessError",
      "type": "error"
    },
    {
      "inputs": [],
      "name": "OnlyProxyActionsError",
      "type": "error"
    },
    {
      "inputs": [],
      "name": "OnlyRewardAccessError",
      "type": "error"
    },
    {
      "inputs": [],
      "name": "OnlyRoleError",
      "type": "error"
    },
    {
      "inputs": [],
      "name": "OnlyVaultAccessError",
      "type": "error"
    },
    {
      "inputs": [],
      "name": "OnlyVotingEscrowError",
      "type": "error"
    },
    {
      "anonymous": false,
      "inputs": [
        {
          "indexed": true,
          "internalType": "address",
          "name": "collateralType",
          "type": "address"
        },
        {
          "indexed": true,
          "internalType": "address",
          "name": "user",
          "type": "address"
        },
        {
          "indexed": false,
          "internalType": "uint256",
          "name": "amount",
          "type": "uint256"
        }
      ],
      "name": "DecreaseAmountFailed",
      "type": "event"
    },
    {
      "anonymous": false,
      "inputs": [],
      "name": "DisableContract",
      "type": "event"
    },
    {
      "anonymous": false,
      "inputs": [
        {
          "indexed": true,
          "internalType": "address",
          "name": "usr",
          "type": "address"
        },
        {
          "indexed": false,
          "internalType": "uint256",
          "name": "wad",
          "type": "uint256"
        }
      ],
      "name": "Exit",
      "type": "event"
    },
    {
      "anonymous": false,
      "inputs": [
        {
          "indexed": true,
          "internalType": "address",
          "name": "usr",
          "type": "address"
        },
        {
          "indexed": false,
          "internalType": "uint256",
          "name": "wad",
          "type": "uint256"
        }
      ],
      "name": "ExitNoReward",
      "type": "event"
    },
    {
      "anonymous": false,
      "inputs": [
        {
          "indexed": true,
          "internalType": "address",
          "name": "collateralType",
          "type": "address"
        },
        {
          "indexed": true,
          "internalType": "address",
          "name": "user",
          "type": "address"
        },
        {
          "indexed": false,
          "internalType": "uint256",
          "name": "amount",
          "type": "uint256"
        },
        {
          "indexed": false,
          "internalType": "uint256",
          "name": "lockupPeriodSeconds",
          "type": "uint256"
        }
      ],
      "name": "IncreaseAmountFailed",
      "type": "event"
    },
    {
      "anonymous": false,
      "inputs": [
        {
          "indexed": true,
          "internalType": "address",
          "name": "usr",
          "type": "address"
        },
        {
          "indexed": false,
          "internalType": "uint256",
          "name": "wad",
          "type": "uint256"
        }
      ],
      "name": "Join",
      "type": "event"
    },
    {
      "anonymous": false,
      "inputs": [
        {
          "indexed": true,
          "internalType": "address",
          "name": "usr",
          "type": "address"
        },
        {
          "indexed": false,
          "internalType": "uint256",
          "name": "wad",
          "type": "uint256"
        }
      ],
      "name": "JoinNoReward",
      "type": "event"
    },
    {
      "anonymous": false,
      "inputs": [],
      "name": "UpdateRewardChef",
      "type": "event"
    },
    {
      "inputs": [],
      "name": "ACCESS_CONTROL_SINGLETON",
      "outputs": [
        {
          "internalType": "contract ISuAccessControl",
          "name": "",
          "type": "address"
        }
      ],
      "stateMutability": "view",
      "type": "function"
    },
    {
      "inputs": [],
      "name": "ADMIN_ROLE",
      "outputs": [
        {
          "internalType": "bytes32",
          "name": "",
          "type": "bytes32"
        }
      ],
      "stateMutability": "view",
      "type": "function"
    },
    {
      "inputs": [],
      "name": "ALERTER_ROLE",
      "outputs": [
        {
          "internalType": "bytes32",
          "name": "",
          "type": "bytes32"
        }
      ],
      "stateMutability": "view",
      "type": "function"
    },
    {
      "inputs": [],
      "name": "CDP_ACCESS_ROLE",
      "outputs": [
        {
          "internalType": "bytes32",
          "name": "",
          "type": "bytes32"
        }
      ],
      "stateMutability": "view",
      "type": "function"
    },
    {
      "inputs": [],
      "name": "DAO_ROLE",
      "outputs": [
        {
          "internalType": "bytes32",
          "name": "",
          "type": "bytes32"
        }
      ],
      "stateMutability": "view",
      "type": "function"
    },
    {
      "inputs": [],
      "name": "DISABLER_ROLE",
      "outputs": [
        {
          "internalType": "bytes32",
          "name": "",
          "type": "bytes32"
        }
      ],
      "stateMutability": "view",
      "type": "function"
    },
    {
      "inputs": [],
      "name": "LIQUIDATION_ACCESS_ROLE",
      "outputs": [
        {
          "internalType": "bytes32",
          "name": "",
          "type": "bytes32"
        }
      ],
      "stateMutability": "view",
      "type": "function"
    },
    {
      "inputs": [],
      "name": "MINT_ACCESS_ROLE",
      "outputs": [
        {
          "internalType": "bytes32",
          "name": "",
          "type": "bytes32"
        }
      ],
      "stateMutability": "view",
      "type": "function"
    },
    {
      "inputs": [],
      "name": "PROXY_ACTIONS_ROLE",
      "outputs": [
        {
          "internalType": "bytes32",
          "name": "",
          "type": "bytes32"
        }
      ],
      "stateMutability": "view",
      "type": "function"
    },
    {
      "inputs": [],
      "name": "REWARD_ACCESS_ROLE",
      "outputs": [
        {
          "internalType": "bytes32",
          "name": "",
          "type": "bytes32"
        }
      ],
      "stateMutability": "view",
      "type": "function"
    },
    {
      "inputs": [],
      "name": "VOTING_ESCROW_ROLE",
      "outputs": [
        {
          "internalType": "bytes32",
          "name": "",
          "type": "bytes32"
        }
      ],
      "stateMutability": "view",
      "type": "function"
    },
    {
      "inputs": [
        {
          "internalType": "bytes32",
          "name": "",
          "type": "bytes32"
        }
      ],
      "name": "collateralAddress",
      "outputs": [
        {
          "internalType": "address",
          "name": "",
          "type": "address"
        }
      ],
      "stateMutability": "view",
      "type": "function"
    },
    {
      "inputs": [],
      "name": "contractEnabled",
      "outputs": [
        {
          "internalType": "uint256",
          "name": "",
          "type": "uint256"
        }
      ],
      "stateMutability": "view",
      "type": "function"
    },
    {
      "inputs": [],
      "name": "disableContract",
      "outputs": [],
      "stateMutability": "nonpayable",
      "type": "function"
    },
    {
      "inputs": [
        {
          "internalType": "bytes32",
          "name": "collateralType",
          "type": "bytes32"
        },
        {
          "internalType": "address",
          "name": "user",
          "type": "address"
        },
        {
          "internalType": "uint256",
          "name": "lockupPeriodSeconds",
          "type": "uint256"
        },
        {
          "internalType": "address",
          "name": "cdp",
          "type": "address"
        },
        {
          "internalType": "uint256",
          "name": "wad",
          "type": "uint256"
        }
      ],
      "name": "exit",
      "outputs": [],
      "stateMutability": "nonpayable",
      "type": "function"
    },
    {
      "inputs": [
        {
          "internalType": "address",
          "name": "cdp",
          "type": "address"
        },
        {
          "internalType": "uint256",
          "name": "wad",
          "type": "uint256"
        }
      ],
      "name": "exitNoReward",
      "outputs": [],
      "stateMutability": "nonpayable",
      "type": "function"
    },
    {
      "inputs": [
        {
          "internalType": "bytes32",
          "name": "_collateralType",
          "type": "bytes32"
        },
        {
          "internalType": "address",
          "name": "_collateralAddress",
          "type": "address"
        }
      ],
      "name": "initializeCollateralType",
      "outputs": [],
      "stateMutability": "nonpayable",
      "type": "function"
    },
    {
      "inputs": [
        {
          "internalType": "bytes32",
          "name": "collateralType",
          "type": "bytes32"
        },
        {
          "internalType": "address",
          "name": "user",
          "type": "address"
        },
        {
          "internalType": "address",
          "name": "cdp",
          "type": "address"
        },
        {
          "internalType": "uint256",
          "name": "wad",
          "type": "uint256"
        }
      ],
      "name": "join",
      "outputs": [],
      "stateMutability": "nonpayable",
      "type": "function"
    },
    {
      "inputs": [
        {
          "internalType": "address",
          "name": "cdp",
          "type": "address"
        },
        {
          "internalType": "uint256",
          "name": "wad",
          "type": "uint256"
        }
      ],
      "name": "joinNoReward",
      "outputs": [],
      "stateMutability": "nonpayable",
      "type": "function"
    },
    {
      "inputs": [],
      "name": "rewardChef",
      "outputs": [
        {
          "internalType": "address",
          "name": "",
          "type": "address"
        }
      ],
      "stateMutability": "view",
      "type": "function"
    },
    {
      "inputs": [],
      "name": "safeEngine",
      "outputs": [
        {
          "internalType": "contract ISafeEngine",
          "name": "",
          "type": "address"
        }
      ],
      "stateMutability": "view",
      "type": "function"
    },
    {
      "inputs": [
        {
          "internalType": "bytes4",
          "name": "interfaceId",
          "type": "bytes4"
        }
      ],
      "name": "supportsInterface",
      "outputs": [
        {
          "internalType": "bool",
          "name": "",
          "type": "bool"
        }
      ],
      "stateMutability": "view",
      "type": "function"
    },
    {
      "inputs": [],
      "name": "systemCoin",
      "outputs": [
        {
          "internalType": "contract ICoin",
          "name": "",
          "type": "address"
        }
      ],
      "stateMutability": "view",
      "type": "function"
    },
    {
      "inputs": [
        {
          "internalType": "address",
          "name": "rewardChef_",
          "type": "address"
        }
      ],
      "name": "updateRewardChef",
      "outputs": [],
      "stateMutability": "nonpayable",
      "type": "function"
    }
  ],
  "numDeployments": 1,
  "solcInputHash": "403b958b64b1c77d13b9eddc7dda2091",
  "bytecode": "0x6080604090808252346200017c5760808162001353803803809162000025828562000181565b8339810103126200017c576200003b81620001bb565b6200004960208301620001bb565b916200006560606200005d868401620001bb565b9201620001bb565b600080546001600160a01b039485166001600160a01b0319918216811783559095929392918115918215620000e2575b5050620000d157908380926001600555168560025416176002551683600354161760035516906001541617600155516111829081620001d18239f35b85516384d942fd60e01b8152600490fd5b88516301ffc9a760e01b8152637965db0b60e01b60048201529250602090839060249082905afa9182156200017057819262000124575b505015388062000095565b9091506020813d821162000167575b81620001426020938362000181565b81010312620001635751908115158203620001605750388062000119565b80fd5b5080fd5b3d915062000133565b508751903d90823e3d90fd5b600080fd5b601f909101601f19168101906001600160401b03821190821017620001a557604052565b634e487b7160e01b600052604160045260246000fd5b51906001600160a01b03821682036200017c5756fe6080604081815260048036101561001557600080fd5b600092833560e01c90816301ffc9a714610e415750806303ee9f2214610e195780630a09b59114610de857806312db6f5f14610cd057806319b6fb0114610a9e57806320d8a59f146109ee57806341b3a0d9146109cf578063438280dd146109945780634ba957181461066c57806367aea3131461064357806371d0fb411461060857806375b238fc146105ed578063894ba833146105295780638e5313e0146104ee5780639a43e66d146103ff578063a7e94455146103d6578063b38234f31461039b578063bd5f5be614610360578063c9bc438414610337578063d0e8fa82146102fc578063d2351cee146102d3578063dc97e84e14610298578063e9c265181461026f5763ef32e6dc1461012b57600080fd5b34610245578160031936011261024557610143610f0c565b90602435926101566001600554146110c1565b6002546001600160a01b03928691841661016f87611052565b90803b1561026b578451633beaf2b760e21b8152918491839182908490829061019c9030338b8501611015565b03925af1801561026157908391610249575b50508360035416803b156102455786839187836101df958851968795869485936340c10f1960e01b85528401611037565b03925af1801561023b5761021f575b50505192835216907fb8c03d8cff6c18be1283cd376bee133c5f9370f38ef86d25777c1b8e5d6542ba90602090a280f35b61022b90939293610f38565b610237579084386101ee565b8480fd5b83513d84823e3d90fd5b8280fd5b61025290610f38565b61025d5781386101ae565b5080fd5b84513d85823e3d90fd5b8380fd5b50503461025d578160031936011261025d576020905160008051602061110d8339815191528152f35b50503461025d578160031936011261025d57602090517f9a9aef7c1247d5fc769b0185c052913e39673da29a880317dfd20ebf86f26a498152f35b50503461025d578160031936011261025d576020905160008051602061112d8339815191528152f35b50503461025d578160031936011261025d57602090517f76d0567582f23e1e9d7a13eeba60f9aea9d69b8da87ca27a8bf3698b35c653db8152f35b50503461025d578160031936011261025d5760015490516001600160a01b039091168152602090f35b50503461025d578160031936011261025d57602090517f4f14c8366fa999817edc9f29824eb88a00cc31225e2156f399da4bc91049eb108152f35b50503461025d578160031936011261025d57602090517fd83f5343da19b478b15a140c301a868be9e02603958f38fbd822b9d5c0a289168152f35b50503461025d578160031936011261025d5760035490516001600160a01b039091168152602090f35b503461024557602036600319011261024557610419610f0c565b83548351632474521560e21b815260008051602061110d833981519152818501523360248201526001600160a01b0394929392916020908290604490829089165afa9081156104e45786916104b6575b50156104a95750501660018060a01b031960015416176001557f1069a911d5b955446293ca24a9ec6822758127a5efa52063334b08eec9efff058180a180f35b5163599a6c3360e11b8152fd5b6104d7915060203d81116104dd575b6104cf8183610f7c565b810190610f9f565b38610469565b503d6104c5565b82513d88823e3d90fd5b50503461025d578160031936011261025d57602090517fe453bacb314e78dcd5192e6b1a2b1f0e7c76e92f6b7e429a6a90f04e39db3b768152f35b50903461024557826003193601126102455782548151632474521560e21b815260008051602061112d8339815191528482015233602482015290602090829060449082906001600160a01b03165afa9081156105e35784916105c5575b50156105b85782806005557f2d4b4ecff7bd7503135271925520a2f6c0d98c9473ffc1a1e72c92502f51b25e8180a180f35b5163bb0684b760e01b8152fd5b6105dd915060203d81116104dd576104cf8183610f7c565b38610586565b82513d86823e3d90fd5b50503461025d578160031936011261025d5751908152602090f35b50503461025d578160031936011261025d57602090517f880a91047114272656e533301261260c75e4d11543ac7303d6fe4204579ec7278152f35b50503461025d578160031936011261025d5760025490516001600160a01b039091168152602090f35b5091903461025d5760a036600319011261025d57610688610f22565b6001600160a01b036064358181169390926044359285850361098f5760843593333b1561097f57835195888060209889810190638da5cb5b60e01b82528d81526106d181610f61565b519082335af16106df610fb7565b901561096f57836106f9828a808495518301019101610ff6565b16941680940361095f576107116001600554146110c1565b826002541661071f87611052565b90803b1561095b5761074c918b918d838a51809681958294633beaf2b760e21b8452309033908501611015565b03925af1801561091757908a91610943575b5050826003541690813b1561090c5786610790928b92838e8a51968795869485936340c10f1960e01b85528401611037565b03925af1801561093957908991610921575b50508835885288865281848920541691600154169084516303b113c360e01b8152838b8201528460248201528781604481865afa908115610917578a916108e6575b508181151591826108db575b50506108cb57845187810191633deffa8b60e21b835284602483015285604483015287606483015260848201526084815260c0810181811060018060401b038211176108b6578a809c508094927f22d324652c93739755cf4581508b60875ebdd78c20c0cff5cf8e23452b2996319b9c9492895251925af1610870610fb7565b5015610881575b505051908152a280f35b7f9df355e2486e9cf5ade3607880f0e3aeb23c84a7e20ea28702a22da1f2444921838051868152600188820152a33880610877565b60418c634e487b7160e01b6000525260246000fd5b8451638063d5a360e01b81528a90fd5b1415905081386107f0565b90508781813d8311610910575b6108fd8183610f7c565b8101031261090c5751386107e4565b8980fd5b503d6108f3565b86513d8c823e3d90fd5b61092a90610f38565b6109355787386107a2565b8780fd5b85513d8b823e3d90fd5b61094c90610f38565b61095757883861075e565b8880fd5b8a80fd5b845163074b52c960e01b81528a90fd5b8551632e7973df60e21b81528b90fd5b8351632e7973df60e21b81528990fd5b600080fd5b50503461025d578160031936011261025d57602090517f39f61ca2a1a28fee144218173ec637b649a353e4026b2738c673800e5bf1437b8152f35b50503461025d578160031936011261025d576020906005549051908152f35b5034610245578160031936011261024557610a07610f22565b9160018060a01b03916044602084875416845192838092632474521560e21b82528a878301523360248301525afa908115610a94578691610a76575b5015610a685780358552602052832080546001600160a01b0319169190921617905580f35b9051631886ea7d60e11b8152fd5b610a8e915060203d81116104dd576104cf8183610f7c565b38610a43565b83513d88823e3d90fd5b503461024557608036600319011261024557610ab8610f22565b6001600160a01b03604435818116949293929085810361098f5760643592333b15610cc057825194888060209788810190638da5cb5b60e01b8252848152610aff81610f61565b519082335af1610b0d610fb7565b9015610cb157610b268188808694518301019101610ff6565b1692828816809403610ca257908991836002541690610b4488611052565b823b1561023757610b6d928592838a51809681958294633beaf2b760e21b8452308b8501611015565b03925af18015610c8457908391610c8e575b50508260035416803b15610245578286518092632770a7eb60e21b8252818381610bac8d338a8401611037565b03925af18015610c8457610c70575b507fb4e09949657f21548b58afe74e7b86cd2295da5ff1598ae1e5faecb1cf19ca959781839235835288528386832054169360015416908288610c258b610c178b51938492830196636aed34f760e01b88528b60248501611015565b03601f198101835282610f7c565b51925af1610c31610fb7565b5015610c4157505051908152a280f35b7f23c498cde0db23a0a4abbd9972e7c1f7181485344e6c3fa1acecf351649a4db5858451868152a33880610877565b610c7a8391610f38565b61025d5738610bbb565b86513d85823e3d90fd5b610c9790610f38565b61025d578138610b7f565b50835163074b52c960e01b8152fd5b508351632e7973df60e21b8152fd5b8251632e7973df60e21b81528590fd5b5034610245578160031936011261024557610ce9610f0c565b6002546024359391926001600160a01b03929186908416610d0987611052565b813b15610245578291610d32918651948580948193633beaf2b760e21b83528c308b8501611015565b03925af18015610dde57610dcb575b5085908360035416803b1561024557868391610d7393838751809681958294632770a7eb60e21b845233908401611037565b03925af1801561023b57610db3575b50505192835216907f0df2be71fcb03c1f59e496559e59727ef26ff117e1f022aa699bb79afdb4c55090602090a280f35b610dbf90939293610f38565b61023757908438610d82565b610dd790969196610f38565b9438610d41565b83513d89823e3d90fd5b503461024557602036600319011261024557803583526020908152918190205490516001600160a01b039091168152f35b50503461025d578160031936011261025d57905490516001600160a01b039091168152602090f35b849391503461026b57602036600319011261026b5782359263ffffffff60e01b84168094036102375763b284223d60e01b8414938415610efb575b8415610e8f575b60208585519015158152f35b85546301ffc9a760e01b84529183015291925090602090829060249082906001600160a01b03165afa908115610eef5760209391610ed2575b5090838080610e83565b610ee99150833d81116104dd576104cf8183610f7c565b83610ec8565b505051903d90823e3d90fd5b6301ffc9a760e01b81149450610e7c565b600435906001600160a01b038216820361098f57565b602435906001600160a01b038216820361098f57565b6001600160401b038111610f4b57604052565b634e487b7160e01b600052604160045260246000fd5b604081019081106001600160401b03821117610f4b57604052565b601f909101601f19168101906001600160401b03821190821017610f4b57604052565b9081602091031261098f5751801515810361098f5790565b3d15610ff1573d906001600160401b038211610f4b5760405191610fe5601f8201601f191660200184610f7c565b82523d6000602084013e565b606090565b9081602091031261098f57516001600160a01b038116810361098f5790565b6001600160a01b03918216815291166020820152604081019190915260600190565b6001600160a01b039091168152602081019190915260400190565b90600091600090801590811561106f575b501561106c5750565b80fd5b909350676765c793fa10079d601b1b9081810282810482036110ad57809561109957041438611063565b634e487b7160e01b84526012600452602484fd5b634e487b7160e01b84526011600452602484fd5b156110c857565b60405162461bcd60e51b815260206004820152601c60248201527b10dbda5b929bda5b8bdb9bdd0b58dbdb9d1c9858dd115b98589b195960221b6044820152606490fdfe3b5d4cc60d3ec3516ee8ae083bd60934f6eb2a6c54b1229985c41bfb092b2603b0fdd1623e42dbffda4acd8bd643e1cb69f00f0e83abeaa8150ee42cf0fd105ea2646970667358221220cb95a8113e4680da6bd24f6bf3589e06aab9b541b7ea5482d1cce6550a9278c064736f6c63430008110033",
  "devdoc": {
    "kind": "dev",
    "methods": {
      "exit(bytes32,address,uint256,address,uint256)": {
        "details": "Inside the system, coins have 45 (rad) decimals but outside they have 18 decimals (wad). When we exit, we specify a wad amount of coins and then the contract automatically multiplies wad by 10**27 to move the correct 45 decimal coin amount to this adapter. Can only be called by authorized contracts.",
        "params": {
          "cdp": "Account that will receive the exited coins",
          "collateralType": "Collateral that will be used for repay",
          "lockupPeriodSeconds": "Lockup period for rewardChef that calculate user rewards",
          "user": "Account that call borrow/repay function and will receive rewards in RewardChef",
          "wad": "Amount of internal coins to join (18 decimal number that will be multiplied by ray)*"
        }
      },
      "exitNoReward(address,uint256)": {
        "params": {
          "cdp": "Account that will receive the joined coins",
          "wad": "Amount of external coins to join (18 decimal number)*"
        }
      },
      "initializeCollateralType(bytes32,address)": {
        "params": {
          "_collateralAddress": "Address of collateral*",
          "_collateralType": "Collateral type as bytes32, that we use in our protocol."
        }
      },
      "join(bytes32,address,address,uint256)": {
        "details": "Exited coins have 18 decimals but inside the system they have 45 (rad) decimals. When we join, the amount (wad) is multiplied by 10**27 (ray). Can only be called by authorized contracts.",
        "params": {
          "cdp": "Account that will receive the joined coins",
          "collateralType": "Collateral that will be used for borrow",
          "user": "Account that call borrow/repay function and will receive rewards in RewardChef",
          "wad": "Amount of external coins to join (18 decimal number)*"
        }
      },
      "joinNoReward(address,uint256)": {
        "params": {
          "cdp": "Account that will receive the joined coins",
          "wad": "Amount of external coins to join (18 decimal number)*"
        }
      },
      "supportsInterface(bytes4)": {
        "details": "Returns true if this contract implements the interface defined by `interfaceId`. See the corresponding https://eips.ethereum.org/EIPS/eip-165#how-interfaces-are-identified[EIP section] to learn more about how these ids are created. This function call must use less than 30 000 gas."
      }
    },
    "version": 1
  },
  "userdoc": {
    "kind": "user",
    "methods": {
      "exit(bytes32,address,uint256,address,uint256)": {
        "notice": "Exit pegged-coins from the system and inside 'Coin.sol'"
      },
      "exitNoReward(address,uint256)": {
        "notice": "Simple version of exit(). Don't have Rewards, it is useful for our smart-contracts."
      },
      "initializeCollateralType(bytes32,address)": {
        "notice": "We need to save mapping of collateralType => collateralAddress to work with RewardChef."
      },
      "join(bytes32,address,address,uint256)": {
        "notice": "Join pegged-coins in the system"
      },
      "joinNoReward(address,uint256)": {
        "notice": "Simple version of join(). Don't have Rewards, it is useful for our smart-contracts."
      }
    },
    "version": 1
  },
  "storageLayout": {
    "storage": [
      {
        "astId": 22875,
        "contract": "contracts/makerdao/core/adapters/CoinJoin.sol:CoinJoin",
        "label": "ACCESS_CONTROL_SINGLETON",
        "offset": 0,
        "slot": "0",
        "type": "t_contract(ISuAccessControl)27027"
      },
      {
        "astId": 41802,
        "contract": "contracts/makerdao/core/adapters/CoinJoin.sol:CoinJoin",
        "label": "rewardChef",
        "offset": 0,
        "slot": "1",
        "type": "t_address"
      },
      {
        "astId": 41805,
        "contract": "contracts/makerdao/core/adapters/CoinJoin.sol:CoinJoin",
        "label": "safeEngine",
        "offset": 0,
        "slot": "2",
        "type": "t_contract(ISafeEngine)46741"
      },
      {
        "astId": 41808,
        "contract": "contracts/makerdao/core/adapters/CoinJoin.sol:CoinJoin",
        "label": "systemCoin",
        "offset": 0,
        "slot": "3",
        "type": "t_contract(ICoin)46005"
      },
      {
        "astId": 41812,
        "contract": "contracts/makerdao/core/adapters/CoinJoin.sol:CoinJoin",
        "label": "collateralAddress",
        "offset": 0,
        "slot": "4",
        "type": "t_mapping(t_bytes32,t_address)"
      },
      {
        "astId": 41849,
        "contract": "contracts/makerdao/core/adapters/CoinJoin.sol:CoinJoin",
        "label": "contractEnabled",
        "offset": 0,
        "slot": "5",
        "type": "t_uint256"
      }
    ],
    "types": {
      "t_address": {
        "encoding": "inplace",
        "label": "address",
        "numberOfBytes": "20"
      },
      "t_bytes32": {
        "encoding": "inplace",
        "label": "bytes32",
        "numberOfBytes": "32"
      },
      "t_contract(ICoin)46005": {
        "encoding": "inplace",
        "label": "contract ICoin",
        "numberOfBytes": "20"
      },
      "t_contract(ISafeEngine)46741": {
        "encoding": "inplace",
        "label": "contract ISafeEngine",
        "numberOfBytes": "20"
      },
      "t_contract(ISuAccessControl)27027": {
        "encoding": "inplace",
        "label": "contract ISuAccessControl",
        "numberOfBytes": "20"
      },
      "t_mapping(t_bytes32,t_address)": {
        "encoding": "mapping",
        "key": "t_bytes32",
        "label": "mapping(bytes32 => address)",
        "numberOfBytes": "32",
        "value": "t_address"
      },
      "t_uint256": {
        "encoding": "inplace",
        "label": "uint256",
        "numberOfBytes": "32"
      }
    }
  }
}