{
  "address": "0x3A57f3F5DeCE8C61302FC02AC58766f03dfDB2D5",
  "abi": [
    {
      "inputs": [
        {
          "internalType": "address",
          "name": "safeEngine_",
          "type": "address"
        },
        {
          "internalType": "bytes32",
          "name": "collateralType_",
          "type": "bytes32"
        },
        {
          "internalType": "address",
          "name": "collateral_",
          "type": "address"
        }
      ],
      "stateMutability": "nonpayable",
      "type": "constructor"
    },
    {
      "anonymous": false,
      "inputs": [
        {
          "indexed": true,
          "internalType": "address",
          "name": "usr",
          "type": "address"
        }
      ],
      "name": "AddAuthorization",
      "type": "event"
    },
    {
      "anonymous": false,
      "inputs": [],
      "name": "DisableContract",
      "type": "event"
    },
    {
      "anonymous": false,
      "inputs": [
        {
          "indexed": true,
          "internalType": "address",
          "name": "usr",
          "type": "address"
        },
        {
          "indexed": false,
          "internalType": "uint256",
          "name": "wad",
          "type": "uint256"
        }
      ],
      "name": "Exit",
      "type": "event"
    },
    {
      "anonymous": false,
      "inputs": [
        {
          "indexed": true,
          "internalType": "address",
          "name": "usr",
          "type": "address"
        },
        {
          "indexed": false,
          "internalType": "uint256",
          "name": "wad",
          "type": "uint256"
        }
      ],
      "name": "Join",
      "type": "event"
    },
    {
      "anonymous": false,
      "inputs": [
        {
          "indexed": true,
          "internalType": "address",
          "name": "usr",
          "type": "address"
        }
      ],
      "name": "RemoveAuthorization",
      "type": "event"
    },
    {
      "inputs": [
        {
          "internalType": "address",
          "name": "usr",
          "type": "address"
        }
      ],
      "name": "addAuthorization",
      "outputs": [],
      "stateMutability": "nonpayable",
      "type": "function"
    },
    {
      "inputs": [
        {
          "internalType": "address",
          "name": "",
          "type": "address"
        }
      ],
      "name": "authorizedAccounts",
      "outputs": [
        {
          "internalType": "uint256",
          "name": "",
          "type": "uint256"
        }
      ],
      "stateMutability": "view",
      "type": "function"
    },
    {
      "inputs": [],
      "name": "collateral",
      "outputs": [
        {
          "internalType": "contract IERC20Metadata",
          "name": "",
          "type": "address"
        }
      ],
      "stateMutability": "view",
      "type": "function"
    },
    {
      "inputs": [],
      "name": "collateralType",
      "outputs": [
        {
          "internalType": "bytes32",
          "name": "",
          "type": "bytes32"
        }
      ],
      "stateMutability": "view",
      "type": "function"
    },
    {
      "inputs": [],
      "name": "contractEnabled",
      "outputs": [
        {
          "internalType": "uint256",
          "name": "",
          "type": "uint256"
        }
      ],
      "stateMutability": "view",
      "type": "function"
    },
    {
      "inputs": [],
      "name": "decimals",
      "outputs": [
        {
          "internalType": "uint256",
          "name": "",
          "type": "uint256"
        }
      ],
      "stateMutability": "view",
      "type": "function"
    },
    {
      "inputs": [],
      "name": "disableContract",
      "outputs": [],
      "stateMutability": "nonpayable",
      "type": "function"
    },
    {
      "inputs": [
        {
          "internalType": "address",
          "name": "usr",
          "type": "address"
        },
        {
          "internalType": "uint256",
          "name": "wad",
          "type": "uint256"
        }
      ],
      "name": "exit",
      "outputs": [],
      "stateMutability": "nonpayable",
      "type": "function"
    },
    {
      "inputs": [
        {
          "internalType": "address",
          "name": "usr",
          "type": "address"
        },
        {
          "internalType": "uint256",
          "name": "wad",
          "type": "uint256"
        }
      ],
      "name": "join",
      "outputs": [],
      "stateMutability": "nonpayable",
      "type": "function"
    },
    {
      "inputs": [
        {
          "internalType": "address",
          "name": "usr",
          "type": "address"
        }
      ],
      "name": "removeAuthorization",
      "outputs": [],
      "stateMutability": "nonpayable",
      "type": "function"
    },
    {
      "inputs": [],
      "name": "rewardChef",
      "outputs": [
        {
          "internalType": "contract IRewardChefV2",
          "name": "",
          "type": "address"
        }
      ],
      "stateMutability": "view",
      "type": "function"
    },
    {
      "inputs": [],
      "name": "safeEngine",
      "outputs": [
        {
          "internalType": "contract ISafeEngine",
          "name": "",
          "type": "address"
        }
      ],
      "stateMutability": "view",
      "type": "function"
    }
  ],
  "numDeployments": 1,
  "solcInputHash": "6e931fdc81ca54b8c04b70713702c588",
  "bytecode": "0x6080604081815234610135576060826109cd8038038091610020828561013a565b83398101031261013557600461003583610173565b6020809161004885838801519701610173565b336000908152808452868120600190819055600655600280546001600160a01b03199081166001600160a01b0395861617909155600398909855855490971691169081178455845163313ce56760e01b815293849182905afa9081156101285784916100eb575b5060ff91501660055551907f599a298163e1678bb1c676052a8930bf0b8a1261ed6e01b8a2391e55f7000102339180a261084590816101888239f35b905081813d8311610121575b610101818361013a565b8101031261011d575160ff8116810361011d5760ff90386100af565b8280fd5b503d6100f7565b50505051903d90823e3d90fd5b600080fd5b601f909101601f19168101906001600160401b0382119082101761015d57604052565b634e487b7160e01b600052604160045260246000fd5b51906001600160a01b03821682036101355756fe608060408181526004908136101561001657600080fd5b600092833560e01c90816324ba58841461063c57508063313ce5671461061d57806335b28153146105b25780633b4da69f146103e957806341b3a0d9146103ca57806367aea313146103a1578063894ba8331461034e57806394f3f81d146102e0578063c9bc4384146102b7578063d8dfeb451461028f578063e824600f1461026c5763ef693bed146100a857600080fd5b346102415780600319360112610241576100c061066f565b6024359190600160ff1b6100d6818511156106d6565b6002546003546001600160a01b03929091831690861461025957908188923b156102415761012291839189838a8a5196879586948593632508c12f60e11b855285039133918501610768565b03925af1801561023757610245575b5081600154168287541690803b15610241578483918893838b6101678b5197889687958694636aed34f760e01b865285016107a1565b03925af180156102375761021f575b505080604460209287541693888651958694859363a9059cbb60e01b855216809a8401528860248401525af190811561021557916101e07f22d324652c93739755cf4581508b60875ebdd78c20c0cff5cf8e23452b299631949260209488916101e8575b506107c3565b51908152a280f35b6102089150853d811161020e575b6102008183610745565b810190610789565b386101da565b503d6101f6565b82513d87823e3d90fd5b6102289061071c565b610233578538610176565b8580fd5b85513d84823e3d90fd5b8280fd5b61024e9061071c565b610233578538610131565b634e487b7160e01b885260118752602488fd5b83823461028b578160031936011261028b576020906003549051908152f35b5080fd5b5090346102415782600319360112610241575490516001600160a01b03909116815260209150f35b83823461028b578160031936011261028b5760015490516001600160a01b039091168152602090f35b83823461028b57602036600319011261028b57816102fc61066f565b338252816020526103126001848420541461068a565b6001600160a01b03168082526020829052918120557f8834a87e641e9716be4f34527af5d23e11624f1ddeefede6ad75a9acfc31b9038280a280f35b83823461028b578160031936011261028b57600161037691338452836020528320541461068a565b806006557f2d4b4ecff7bd7503135271925520a2f6c0d98c9473ffc1a1e72c92502f51b25e8180a180f35b83823461028b578160031936011261028b5760025490516001600160a01b039091168152602090f35b83823461028b578160031936011261028b576020906006549051908152f35b50903461024157816003193601126102415761040361066f565b91602435916001600654036105655761041e858412156106d6565b6002546003546001600160a01b03918216908790823b1561028b5761045c9288838993895196879586948593632508c12f60e11b85528c8501610768565b03925af1801561055b57610548575b508581600154169582845416873b15610241578391608484928389519586948593633deffa8b60e21b85528b850152169b8c60248401528b6044840152600160648401525af180156102375790869493929161052f575b505091816104ee936020935416908886518096819582946323b872dd60e01b84523090339085016107a1565b03925af190811561021557916101e07fb4e09949657f21548b58afe74e7b86cd2295da5ff1598ae1e5faecb1cf19ca95949260209488916101e857506107c3565b61053b9192945061071c565b61023357839186386104c2565b6105549096919661071c565b943861046b565b84513d89823e3d90fd5b6020608492519162461bcd60e51b8352820152602260248201527f436f6c6c61746572616c4a6f696e2f6e6f742d636f6e7472616374456e61626c604482015261195960f21b6064820152fd5b83823461028b57602036600319011261028b5760016105cf61066f565b338452836020526105e482848620541461068a565b818060a01b031691828452836020528320557f599a298163e1678bb1c676052a8930bf0b8a1261ed6e01b8a2391e55f70001028280a280f35b83823461028b578160031936011261028b576020906005549051908152f35b92505034610241576020366003190112610241576020926001600160a01b0361066361066f565b16815280845220548152f35b600435906001600160a01b038216820361068557565b600080fd5b1561069157565b60405162461bcd60e51b815260206004820152601d60248201527f436f6c6c61746572616c4a6f696e2f6e6f742d617574686f72697a65640000006044820152606490fd5b156106dd57565b60405162461bcd60e51b8152602060048201526017602482015276436f6c6c61746572616c4a6f696e2f6f766572666c6f7760481b6044820152606490fd5b6001600160401b03811161072f57604052565b634e487b7160e01b600052604160045260246000fd5b601f909101601f19168101906001600160401b0382119082101761072f57604052565b9081526001600160a01b039091166020820152604081019190915260600190565b90816020910312610685575180151581036106855790565b6001600160a01b03918216815291166020820152604081019190915260600190565b156107ca57565b60405162461bcd60e51b815260206004820152601e60248201527f436f6c6c61746572616c4a6f696e2f6661696c65642d7472616e7366657200006044820152606490fdfea26469706673582212206aeff66b1d4d8f72ab3da8da74ee7ab514e2d26b53fce0696b5a4f5014be813a64736f6c63430008110033",
  "devdoc": {
    "details": "This adapter assumes that the collateral has 18 decimals",
    "kind": "dev",
    "methods": {
      "exit(address,uint256)": {
        "params": {
          "usr": "Account to which we transfer the collateral",
          "wad": "Amount of collateral to transfer to 'account' (represented as a number with 18 decimals)*"
        }
      },
      "join(address,uint256)": {
        "params": {
          "usr": "Account from which we transferFrom collateral and add it in the system",
          "wad": "Amount of collateral to transfer in the system (represented as a number with 18 decimals)*"
        }
      }
    },
    "version": 1
  },
  "userdoc": {
    "kind": "user",
    "methods": {
      "exit(address,uint256)": {
        "notice": "Exit collateral from the system"
      },
      "join(address,uint256)": {
        "notice": "Join collateral in the system"
      }
    },
    "version": 1
  },
  "storageLayout": {
    "storage": [
      {
        "astId": 29568,
        "contract": "contracts/makerdao/core/adapters/CollateralJoin.sol:CollateralJoin",
        "label": "authorizedAccounts",
        "offset": 0,
        "slot": "0",
        "type": "t_mapping(t_address,t_uint256)"
      },
      {
        "astId": 29621,
        "contract": "contracts/makerdao/core/adapters/CollateralJoin.sol:CollateralJoin",
        "label": "rewardChef",
        "offset": 0,
        "slot": "1",
        "type": "t_contract(IRewardChefV2)23112"
      },
      {
        "astId": 29624,
        "contract": "contracts/makerdao/core/adapters/CollateralJoin.sol:CollateralJoin",
        "label": "safeEngine",
        "offset": 0,
        "slot": "2",
        "type": "t_contract(ISafeEngine)31345"
      },
      {
        "astId": 29626,
        "contract": "contracts/makerdao/core/adapters/CollateralJoin.sol:CollateralJoin",
        "label": "collateralType",
        "offset": 0,
        "slot": "3",
        "type": "t_bytes32"
      },
      {
        "astId": 29629,
        "contract": "contracts/makerdao/core/adapters/CollateralJoin.sol:CollateralJoin",
        "label": "collateral",
        "offset": 0,
        "slot": "4",
        "type": "t_contract(IERC20Metadata)6006"
      },
      {
        "astId": 29631,
        "contract": "contracts/makerdao/core/adapters/CollateralJoin.sol:CollateralJoin",
        "label": "decimals",
        "offset": 0,
        "slot": "5",
        "type": "t_uint256"
      },
      {
        "astId": 29633,
        "contract": "contracts/makerdao/core/adapters/CollateralJoin.sol:CollateralJoin",
        "label": "contractEnabled",
        "offset": 0,
        "slot": "6",
        "type": "t_uint256"
      }
    ],
    "types": {
      "t_address": {
        "encoding": "inplace",
        "label": "address",
        "numberOfBytes": "20"
      },
      "t_bytes32": {
        "encoding": "inplace",
        "label": "bytes32",
        "numberOfBytes": "32"
      },
      "t_contract(IERC20Metadata)6006": {
        "encoding": "inplace",
        "label": "contract IERC20Metadata",
        "numberOfBytes": "20"
      },
      "t_contract(IRewardChefV2)23112": {
        "encoding": "inplace",
        "label": "contract IRewardChefV2",
        "numberOfBytes": "20"
      },
      "t_contract(ISafeEngine)31345": {
        "encoding": "inplace",
        "label": "contract ISafeEngine",
        "numberOfBytes": "20"
      },
      "t_mapping(t_address,t_uint256)": {
        "encoding": "mapping",
        "key": "t_address",
        "label": "mapping(address => uint256)",
        "numberOfBytes": "32",
        "value": "t_uint256"
      },
      "t_uint256": {
        "encoding": "inplace",
        "label": "uint256",
        "numberOfBytes": "32"
      }
    }
  }
}