{
  "address": "0xd4E25B186216b2374E62Aa3339ee23c1047c6aC7",
  "abi": [
    {
      "inputs": [
        {
          "internalType": "address",
          "name": "safeEngine_",
          "type": "address"
        },
        {
          "internalType": "bytes32",
          "name": "collateralType_",
          "type": "bytes32"
        },
        {
          "internalType": "address",
          "name": "collateral_",
          "type": "address"
        }
      ],
      "stateMutability": "nonpayable",
      "type": "constructor"
    },
    {
      "anonymous": false,
      "inputs": [
        {
          "indexed": true,
          "internalType": "address",
          "name": "usr",
          "type": "address"
        }
      ],
      "name": "AddAuthorization",
      "type": "event"
    },
    {
      "anonymous": false,
      "inputs": [],
      "name": "DisableContract",
      "type": "event"
    },
    {
      "anonymous": false,
      "inputs": [
        {
          "indexed": true,
          "internalType": "address",
          "name": "usr",
          "type": "address"
        },
        {
          "indexed": false,
          "internalType": "uint256",
          "name": "wad",
          "type": "uint256"
        }
      ],
      "name": "Exit",
      "type": "event"
    },
    {
      "anonymous": false,
      "inputs": [
        {
          "indexed": true,
          "internalType": "address",
          "name": "usr",
          "type": "address"
        },
        {
          "indexed": false,
          "internalType": "uint256",
          "name": "wad",
          "type": "uint256"
        }
      ],
      "name": "Join",
      "type": "event"
    },
    {
      "anonymous": false,
      "inputs": [
        {
          "indexed": true,
          "internalType": "address",
          "name": "usr",
          "type": "address"
        }
      ],
      "name": "RemoveAuthorization",
      "type": "event"
    },
    {
      "inputs": [
        {
          "internalType": "address",
          "name": "usr",
          "type": "address"
        }
      ],
      "name": "addAuthorization",
      "outputs": [],
      "stateMutability": "nonpayable",
      "type": "function"
    },
    {
      "inputs": [
        {
          "internalType": "address",
          "name": "",
          "type": "address"
        }
      ],
      "name": "authorizedAccounts",
      "outputs": [
        {
          "internalType": "uint256",
          "name": "",
          "type": "uint256"
        }
      ],
      "stateMutability": "view",
      "type": "function"
    },
    {
      "inputs": [],
      "name": "collateral",
      "outputs": [
        {
          "internalType": "contract IERC20Metadata",
          "name": "",
          "type": "address"
        }
      ],
      "stateMutability": "view",
      "type": "function"
    },
    {
      "inputs": [],
      "name": "collateralType",
      "outputs": [
        {
          "internalType": "bytes32",
          "name": "",
          "type": "bytes32"
        }
      ],
      "stateMutability": "view",
      "type": "function"
    },
    {
      "inputs": [],
      "name": "contractEnabled",
      "outputs": [
        {
          "internalType": "uint256",
          "name": "",
          "type": "uint256"
        }
      ],
      "stateMutability": "view",
      "type": "function"
    },
    {
      "inputs": [],
      "name": "decimals",
      "outputs": [
        {
          "internalType": "uint256",
          "name": "",
          "type": "uint256"
        }
      ],
      "stateMutability": "view",
      "type": "function"
    },
    {
      "inputs": [],
      "name": "disableContract",
      "outputs": [],
      "stateMutability": "nonpayable",
      "type": "function"
    },
    {
      "inputs": [
        {
          "internalType": "address",
          "name": "usr",
          "type": "address"
        },
        {
          "internalType": "uint256",
          "name": "wad",
          "type": "uint256"
        }
      ],
      "name": "exit",
      "outputs": [],
      "stateMutability": "nonpayable",
      "type": "function"
    },
    {
      "inputs": [
        {
          "internalType": "address",
          "name": "usr",
          "type": "address"
        },
        {
          "internalType": "uint256",
          "name": "wad",
          "type": "uint256"
        }
      ],
      "name": "join",
      "outputs": [],
      "stateMutability": "nonpayable",
      "type": "function"
    },
    {
      "inputs": [
        {
          "internalType": "address",
          "name": "usr",
          "type": "address"
        }
      ],
      "name": "removeAuthorization",
      "outputs": [],
      "stateMutability": "nonpayable",
      "type": "function"
    },
    {
      "inputs": [],
      "name": "safeEngine",
      "outputs": [
        {
          "internalType": "contract ISafeEngine",
          "name": "",
          "type": "address"
        }
      ],
      "stateMutability": "view",
      "type": "function"
    }
  ],
  "numDeployments": 1,
  "solcInputHash": "de734d57514453715cff7ed689bd2bb9",
  "bytecode": "0x608060408181523461012d576060826108d380380380916100208285610132565b83398101031261012d5760046100358361016b565b602080916100488583880151970161016b565b95600096338852878452600187892055600160055560018060a01b03918260018060a01b03199416846001541617600155600255168091600354161760035584519384809263313ce56760e01b82525afa9081156101205784916100e3575b5060ff91501660045551907f599a298163e1678bb1c676052a8930bf0b8a1261ed6e01b8a2391e55f7000102339180a261075390816101808239f35b905081813d8311610119575b6100f98183610132565b81010312610115575160ff811681036101155760ff90386100a7565b8280fd5b503d6100ef565b50505051903d90823e3d90fd5b600080fd5b601f909101601f19168101906001600160401b0382119082101761015557604052565b634e487b7160e01b600052604160045260246000fd5b51906001600160a01b038216820361012d5756fe608060408181526004908136101561001657600080fd5b600092833560e01c90816324ba58841461056c57508063313ce5671461054e57806335b28153146104e35780633b4da69f1461035e57806341b3a0d91461033f57806367aea31314610316578063894ba833146102c357806394f3f81d14610255578063d8dfeb451461022c578063e824600f146102095763ef693bed1461009d57600080fd5b346101f257806003193601126101f2576100b561059f565b6024359190600160ff1b6100cb81851115610606565b6001546002546001600160a01b0392909183169086146101f657908188923b156101f25761011791839189838a8a5196879586948593632508c12f60e11b855285039133918501610698565b03925af180156101e8576101d0575b50508060446020926003541693888651958694859363a9059cbb60e01b855216809a8401528860248401525af19081156101c657916101917f22d324652c93739755cf4581508b60875ebdd78c20c0cff5cf8e23452b29963194926020948891610199575b506106d1565b51908152a280f35b6101b99150853d81116101bf575b6101b18183610675565b8101906106b9565b3861018b565b503d6101a7565b82513d87823e3d90fd5b6101d99061064c565b6101e4578538610126565b8580fd5b85513d84823e3d90fd5b8280fd5b634e487b7160e01b885260118752602488fd5b8382346102285781600319360112610228576020906002549051908152f35b5080fd5b83823461022857816003193601126102285760035490516001600160a01b039091168152602090f35b838234610228576020366003190112610228578161027161059f565b33825281602052610287600184842054146105ba565b6001600160a01b03168082526020829052918120557f8834a87e641e9716be4f34527af5d23e11624f1ddeefede6ad75a9acfc31b9038280a280f35b83823461022857816003193601126102285760016102eb9133845283602052832054146105ba565b806005557f2d4b4ecff7bd7503135271925520a2f6c0d98c9473ffc1a1e72c92502f51b25e8180a180f35b83823461022857816003193601126102285760015490516001600160a01b039091168152602090f35b8382346102285781600319360112610228576020906005549051908152f35b5090346101f257816003193601126101f25761037861059f565b602435926001600554036104965761039285851215610606565b6001546002546001600160a01b0394918516908790823b15610228576103d19286838a93885196879586948593632508c12f60e11b85528b8501610698565b03925af1801561048c5761047a575b50602086916064866003541691855194859384926323b872dd60e01b845233908401523060248401528a60448401525af1908115610470579161044f602094927fb4e09949657f21548b58afe74e7b86cd2295da5ff1598ae1e5faecb1cf19ca959694899161045957506106d1565b519485521692a280f35b6101b99150863d81116101bf576101b18183610675565b82513d88823e3d90fd5b9561048660209761064c565b956103e0565b83513d89823e3d90fd5b5162461bcd60e51b8152602081840152602260248201527f436f6c6c61746572616c4a6f696e2f6e6f742d636f6e7472616374456e61626c604482015261195960f21b6064820152608490fd5b83823461022857602036600319011261022857600161050061059f565b338452836020526105158284862054146105ba565b818060a01b031691828452836020528320557f599a298163e1678bb1c676052a8930bf0b8a1261ed6e01b8a2391e55f70001028280a280f35b5090346101f257826003193601126101f25760209250549051908152f35b925050346101f25760203660031901126101f2576020926001600160a01b0361059361059f565b16815280845220548152f35b600435906001600160a01b03821682036105b557565b600080fd5b156105c157565b60405162461bcd60e51b815260206004820152601d60248201527f436f6c6c61746572616c4a6f696e2f6e6f742d617574686f72697a65640000006044820152606490fd5b1561060d57565b60405162461bcd60e51b8152602060048201526017602482015276436f6c6c61746572616c4a6f696e2f6f766572666c6f7760481b6044820152606490fd5b6001600160401b03811161065f57604052565b634e487b7160e01b600052604160045260246000fd5b601f909101601f19168101906001600160401b0382119082101761065f57604052565b9081526001600160a01b039091166020820152604081019190915260600190565b908160209103126105b5575180151581036105b55790565b156106d857565b60405162461bcd60e51b815260206004820152601e60248201527f436f6c6c61746572616c4a6f696e2f6661696c65642d7472616e7366657200006044820152606490fdfea2646970667358221220da82dcb4a1f3a0aef141c698ed42df558dbf4bbfc38016e006920b010ef82ed864736f6c63430008110033",
  "devdoc": {
    "details": "This adapter assumes that the collateral has 18 decimals",
    "kind": "dev",
    "methods": {
      "exit(address,uint256)": {
        "params": {
          "usr": "Account to which we transfer the collateral",
          "wad": "Amount of collateral to transfer to 'account' (represented as a number with 18 decimals)*"
        }
      },
      "join(address,uint256)": {
        "params": {
          "usr": "Account from which we transferFrom collateral and add it in the system",
          "wad": "Amount of collateral to transfer in the system (represented as a number with 18 decimals)*"
        }
      }
    },
    "version": 1
  },
  "userdoc": {
    "kind": "user",
    "methods": {
      "exit(address,uint256)": {
        "notice": "Exit collateral from the system"
      },
      "join(address,uint256)": {
        "notice": "Join collateral in the system"
      }
    },
    "version": 1
  },
  "storageLayout": {
    "storage": [
      {
        "astId": 3090,
        "contract": "contracts/makerdao/core/adapters/CollateralJoin.sol:CollateralJoin",
        "label": "authorizedAccounts",
        "offset": 0,
        "slot": "0",
        "type": "t_mapping(t_address,t_uint256)"
      },
      {
        "astId": 3143,
        "contract": "contracts/makerdao/core/adapters/CollateralJoin.sol:CollateralJoin",
        "label": "safeEngine",
        "offset": 0,
        "slot": "1",
        "type": "t_contract(ISafeEngine)4413"
      },
      {
        "astId": 3145,
        "contract": "contracts/makerdao/core/adapters/CollateralJoin.sol:CollateralJoin",
        "label": "collateralType",
        "offset": 0,
        "slot": "2",
        "type": "t_bytes32"
      },
      {
        "astId": 3148,
        "contract": "contracts/makerdao/core/adapters/CollateralJoin.sol:CollateralJoin",
        "label": "collateral",
        "offset": 0,
        "slot": "3",
        "type": "t_contract(IERC20Metadata)1377"
      },
      {
        "astId": 3150,
        "contract": "contracts/makerdao/core/adapters/CollateralJoin.sol:CollateralJoin",
        "label": "decimals",
        "offset": 0,
        "slot": "4",
        "type": "t_uint256"
      },
      {
        "astId": 3152,
        "contract": "contracts/makerdao/core/adapters/CollateralJoin.sol:CollateralJoin",
        "label": "contractEnabled",
        "offset": 0,
        "slot": "5",
        "type": "t_uint256"
      }
    ],
    "types": {
      "t_address": {
        "encoding": "inplace",
        "label": "address",
        "numberOfBytes": "20"
      },
      "t_bytes32": {
        "encoding": "inplace",
        "label": "bytes32",
        "numberOfBytes": "32"
      },
      "t_contract(IERC20Metadata)1377": {
        "encoding": "inplace",
        "label": "contract IERC20Metadata",
        "numberOfBytes": "20"
      },
      "t_contract(ISafeEngine)4413": {
        "encoding": "inplace",
        "label": "contract ISafeEngine",
        "numberOfBytes": "20"
      },
      "t_mapping(t_address,t_uint256)": {
        "encoding": "mapping",
        "key": "t_address",
        "label": "mapping(address => uint256)",
        "numberOfBytes": "32",
        "value": "t_uint256"
      },
      "t_uint256": {
        "encoding": "inplace",
        "label": "uint256",
        "numberOfBytes": "32"
      }
    }
  }
}