{
  "address": "0x686bde5E2ACc1e637616A596FdD15C18052d267b",
  "abi": [
    {
      "inputs": [
        {
          "internalType": "address",
          "name": "accessControlSingleton",
          "type": "address"
        },
        {
          "internalType": "address",
          "name": "safeEngine_",
          "type": "address"
        },
        {
          "internalType": "bytes32",
          "name": "collateralType_",
          "type": "bytes32"
        },
        {
          "internalType": "address",
          "name": "collateral_",
          "type": "address"
        }
      ],
      "stateMutability": "nonpayable",
      "type": "constructor"
    },
    {
      "inputs": [],
      "name": "BadAccessControlSingleton",
      "type": "error"
    },
    {
      "inputs": [],
      "name": "OnlyAdminError",
      "type": "error"
    },
    {
      "inputs": [],
      "name": "OnlyAlerterError",
      "type": "error"
    },
    {
      "inputs": [],
      "name": "OnlyCDPAccessError",
      "type": "error"
    },
    {
      "inputs": [],
      "name": "OnlyDAOError",
      "type": "error"
    },
    {
      "inputs": [],
      "name": "OnlyDisablerAccessError",
      "type": "error"
    },
    {
      "inputs": [],
      "name": "OnlyLiquidationAccessError",
      "type": "error"
    },
    {
      "inputs": [],
      "name": "OnlyMintAccessError",
      "type": "error"
    },
    {
      "inputs": [],
      "name": "OnlyProxyActionsError",
      "type": "error"
    },
    {
      "inputs": [],
      "name": "OnlyRewardAccessError",
      "type": "error"
    },
    {
      "inputs": [],
      "name": "OnlyRoleError",
      "type": "error"
    },
    {
      "inputs": [],
      "name": "OnlyVaultAccessError",
      "type": "error"
    },
    {
      "inputs": [],
      "name": "OnlyVotingEscrowError",
      "type": "error"
    },
    {
      "anonymous": false,
      "inputs": [],
      "name": "DisableContract",
      "type": "event"
    },
    {
      "anonymous": false,
      "inputs": [
        {
          "indexed": true,
          "internalType": "address",
          "name": "usr",
          "type": "address"
        },
        {
          "indexed": false,
          "internalType": "uint256",
          "name": "wad",
          "type": "uint256"
        }
      ],
      "name": "Exit",
      "type": "event"
    },
    {
      "anonymous": false,
      "inputs": [
        {
          "indexed": true,
          "internalType": "address",
          "name": "usr",
          "type": "address"
        },
        {
          "indexed": false,
          "internalType": "uint256",
          "name": "wad",
          "type": "uint256"
        }
      ],
      "name": "Join",
      "type": "event"
    },
    {
      "inputs": [],
      "name": "ACCESS_CONTROL_SINGLETON",
      "outputs": [
        {
          "internalType": "contract ISuAccessControl",
          "name": "",
          "type": "address"
        }
      ],
      "stateMutability": "view",
      "type": "function"
    },
    {
      "inputs": [],
      "name": "ADMIN_ROLE",
      "outputs": [
        {
          "internalType": "bytes32",
          "name": "",
          "type": "bytes32"
        }
      ],
      "stateMutability": "view",
      "type": "function"
    },
    {
      "inputs": [],
      "name": "ALERTER_ROLE",
      "outputs": [
        {
          "internalType": "bytes32",
          "name": "",
          "type": "bytes32"
        }
      ],
      "stateMutability": "view",
      "type": "function"
    },
    {
      "inputs": [],
      "name": "CDP_ACCESS_ROLE",
      "outputs": [
        {
          "internalType": "bytes32",
          "name": "",
          "type": "bytes32"
        }
      ],
      "stateMutability": "view",
      "type": "function"
    },
    {
      "inputs": [],
      "name": "DAO_ROLE",
      "outputs": [
        {
          "internalType": "bytes32",
          "name": "",
          "type": "bytes32"
        }
      ],
      "stateMutability": "view",
      "type": "function"
    },
    {
      "inputs": [],
      "name": "DISABLER_ROLE",
      "outputs": [
        {
          "internalType": "bytes32",
          "name": "",
          "type": "bytes32"
        }
      ],
      "stateMutability": "view",
      "type": "function"
    },
    {
      "inputs": [],
      "name": "LIQUIDATION_ACCESS_ROLE",
      "outputs": [
        {
          "internalType": "bytes32",
          "name": "",
          "type": "bytes32"
        }
      ],
      "stateMutability": "view",
      "type": "function"
    },
    {
      "inputs": [],
      "name": "MINT_ACCESS_ROLE",
      "outputs": [
        {
          "internalType": "bytes32",
          "name": "",
          "type": "bytes32"
        }
      ],
      "stateMutability": "view",
      "type": "function"
    },
    {
      "inputs": [],
      "name": "PROXY_ACTIONS_ROLE",
      "outputs": [
        {
          "internalType": "bytes32",
          "name": "",
          "type": "bytes32"
        }
      ],
      "stateMutability": "view",
      "type": "function"
    },
    {
      "inputs": [],
      "name": "REWARD_ACCESS_ROLE",
      "outputs": [
        {
          "internalType": "bytes32",
          "name": "",
          "type": "bytes32"
        }
      ],
      "stateMutability": "view",
      "type": "function"
    },
    {
      "inputs": [],
      "name": "VOTING_ESCROW_ROLE",
      "outputs": [
        {
          "internalType": "bytes32",
          "name": "",
          "type": "bytes32"
        }
      ],
      "stateMutability": "view",
      "type": "function"
    },
    {
      "inputs": [],
      "name": "collateral",
      "outputs": [
        {
          "internalType": "contract IERC20Metadata",
          "name": "",
          "type": "address"
        }
      ],
      "stateMutability": "view",
      "type": "function"
    },
    {
      "inputs": [],
      "name": "collateralType",
      "outputs": [
        {
          "internalType": "bytes32",
          "name": "",
          "type": "bytes32"
        }
      ],
      "stateMutability": "view",
      "type": "function"
    },
    {
      "inputs": [],
      "name": "contractEnabled",
      "outputs": [
        {
          "internalType": "uint256",
          "name": "",
          "type": "uint256"
        }
      ],
      "stateMutability": "view",
      "type": "function"
    },
    {
      "inputs": [],
      "name": "decimals",
      "outputs": [
        {
          "internalType": "uint256",
          "name": "",
          "type": "uint256"
        }
      ],
      "stateMutability": "view",
      "type": "function"
    },
    {
      "inputs": [],
      "name": "disableContract",
      "outputs": [],
      "stateMutability": "nonpayable",
      "type": "function"
    },
    {
      "inputs": [
        {
          "internalType": "address",
          "name": "usr",
          "type": "address"
        },
        {
          "internalType": "uint256",
          "name": "wad",
          "type": "uint256"
        }
      ],
      "name": "exit",
      "outputs": [],
      "stateMutability": "nonpayable",
      "type": "function"
    },
    {
      "inputs": [
        {
          "internalType": "address",
          "name": "usr",
          "type": "address"
        },
        {
          "internalType": "uint256",
          "name": "wad",
          "type": "uint256"
        }
      ],
      "name": "join",
      "outputs": [],
      "stateMutability": "nonpayable",
      "type": "function"
    },
    {
      "inputs": [],
      "name": "safeEngine",
      "outputs": [
        {
          "internalType": "contract ISafeEngine",
          "name": "",
          "type": "address"
        }
      ],
      "stateMutability": "view",
      "type": "function"
    },
    {
      "inputs": [
        {
          "internalType": "bytes4",
          "name": "interfaceId",
          "type": "bytes4"
        }
      ],
      "name": "supportsInterface",
      "outputs": [
        {
          "internalType": "bool",
          "name": "",
          "type": "bool"
        }
      ],
      "stateMutability": "view",
      "type": "function"
    }
  ],
  "numDeployments": 3,
  "solcInputHash": "391f99102fcf6a77832aec16c8e54c9d",
  "bytecode": "0x608060409080825234620002355760808162000c4880380380916200002582856200023a565b83398101031262000235576200003b8162000274565b906020916200004c83830162000274565b906200005f606086850151940162000274565b600080546001600160a01b039384166001600160a01b03199182168117835591959094909180159088908215620001ac575b50506200019b5791839187946004979694600160055516846001541617600155600255168091600354161760035585519384809263313ce56760e01b82525afa9182156200018f57819262000144575b505060ff601291168060045503620001025750516109be90816200028a8239f35b606491519062461bcd60e51b82526004820152601b60248201527f436f6c6c61746572616c4a6f696e2f6261642d646563696d616c7300000000006044820152fd5b9091508281813d831162000187575b6200015f81836200023a565b810103126200018357519060ff8216820362000180575060ff6012620000e1565b80fd5b5080fd5b503d62000153565b508351903d90823e3d90fd5b87516384d942fd60e01b8152600490fd5b8a516301ffc9a760e01b8152637965db0b60e01b60048201529250829060249082905afa9081156200022b578791620001ea575b5015873862000091565b90508781813d831162000223575b6200020481836200023a565b810103126200021f575180151581036200021f5738620001e0565b8680fd5b503d620001f8565b89513d89823e3d90fd5b600080fd5b601f909101601f19168101906001600160401b038211908210176200025e57604052565b634e487b7160e01b600052604160045260246000fd5b51906001600160a01b0382168203620002355756fe608060408181526004908136101561001657600080fd5b600092833560e01c90816301ffc9a7146107905750806303ee9f2214610768578063313ce5671461074a5780633b4da69f146105d257806341b3a0d9146105b3578063438280dd1461057857806367aea3131461054f57806371d0fb411461051457806375b238fc146104f9578063894ba833146104365780638e5313e0146103fb578063b38234f3146103c0578063bd5f5be614610385578063d0e8fa821461034a578063d2351cee14610321578063d8dfeb45146102f8578063dc97e84e146102bd578063e824600f1461029e578063e9c265181461025f5763ef693bed1461010057600080fd5b346102485761010e36610826565b9190600160ff1b610121818511156108b5565b6001546002546001600160a01b03929091831690861461024c57908188923b156102485761016d91839189838a8a5196879586948593632508c12f60e11b8552850391339185016108fb565b03925af1801561023e57610226575b50508060446020926003541693888651958694859363a9059cbb60e01b855216809a8401528860248401525af190811561021c57916101e77f22d324652c93739755cf4581508b60875ebdd78c20c0cff5cf8e23452b299631949260209488916101ef575b5061091c565b51908152a280f35b61020f9150853d8111610215575b610207818361087a565b81019061089d565b386101e1565b503d6101fd565b82513d87823e3d90fd5b61022f90610851565b61023a57853861017c565b8580fd5b85513d84823e3d90fd5b8280fd5b634e487b7160e01b885260118752602488fd5b83823461029a578160031936011261029a57602090517f3b5d4cc60d3ec3516ee8ae083bd60934f6eb2a6c54b1229985c41bfb092b26038152f35b5080fd5b83823461029a578160031936011261029a576020906002549051908152f35b83823461029a578160031936011261029a57602090517f9a9aef7c1247d5fc769b0185c052913e39673da29a880317dfd20ebf86f26a498152f35b83823461029a578160031936011261029a5760035490516001600160a01b039091168152602090f35b83823461029a578160031936011261029a57602090516000805160206109698339815191528152f35b83823461029a578160031936011261029a57602090517f76d0567582f23e1e9d7a13eeba60f9aea9d69b8da87ca27a8bf3698b35c653db8152f35b83823461029a578160031936011261029a57602090517f4f14c8366fa999817edc9f29824eb88a00cc31225e2156f399da4bc91049eb108152f35b83823461029a578160031936011261029a57602090517fd83f5343da19b478b15a140c301a868be9e02603958f38fbd822b9d5c0a289168152f35b83823461029a578160031936011261029a57602090517fe453bacb314e78dcd5192e6b1a2b1f0e7c76e92f6b7e429a6a90f04e39db3b768152f35b503461024857826003193601126102485782548151632474521560e21b81526000805160206109698339815191528482015233602482015290602090829060449082906001600160a01b03165afa9081156104ef5784916104d1575b50156104c45782806005557f2d4b4ecff7bd7503135271925520a2f6c0d98c9473ffc1a1e72c92502f51b25e8180a180f35b5163bb0684b760e01b8152fd5b6104e9915060203d811161021557610207818361087a565b38610492565b82513d86823e3d90fd5b83823461029a578160031936011261029a5751908152602090f35b83823461029a578160031936011261029a57602090517f880a91047114272656e533301261260c75e4d11543ac7303d6fe4204579ec7278152f35b83823461029a578160031936011261029a5760015490516001600160a01b039091168152602090f35b83823461029a578160031936011261029a57602090517f39f61ca2a1a28fee144218173ec637b649a353e4026b2738c673800e5bf1437b8152f35b83823461029a578160031936011261029a576020906005549051908152f35b509034610248576105e236610826565b926001600554036106fd576105f9858512156108b5565b6001546002546001600160a01b0394918516908790823b1561029a576106389286838a93885196879586948593632508c12f60e11b85528b85016108fb565b03925af180156106f3576106e1575b50602086916064866003541691855194859384926323b872dd60e01b845233908401523060248401528a60448401525af19081156106d757916106b6602094927fb4e09949657f21548b58afe74e7b86cd2295da5ff1598ae1e5faecb1cf19ca95969489916106c0575061091c565b519485521692a280f35b61020f9150863d811161021557610207818361087a565b82513d88823e3d90fd5b956106ed602097610851565b95610647565b83513d89823e3d90fd5b5162461bcd60e51b8152602081840152602260248201527f436f6c6c61746572616c4a6f696e2f6e6f742d636f6e7472616374456e61626c604482015261195960f21b6064820152608490fd5b50903461024857826003193601126102485760209250549051908152f35b83823461029a578160031936011261029a57905490516001600160a01b039091168152602090f35b9290503461082257602036600319011261082257803563ffffffff60e01b811680910361081e5784546301ffc9a760e01b855291840152602090839060249082906001600160a01b03165afa91821561081457602093926107f5575b50519015158152f35b61080d919250833d811161021557610207818361087a565b90386107ec565b81513d85823e3d90fd5b8480fd5b8380fd5b604090600319011261084c576004356001600160a01b038116810361084c579060243590565b600080fd5b6001600160401b03811161086457604052565b634e487b7160e01b600052604160045260246000fd5b601f909101601f19168101906001600160401b0382119082101761086457604052565b9081602091031261084c5751801515810361084c5790565b156108bc57565b60405162461bcd60e51b8152602060048201526017602482015276436f6c6c61746572616c4a6f696e2f6f766572666c6f7760481b6044820152606490fd5b9081526001600160a01b039091166020820152604081019190915260600190565b1561092357565b60405162461bcd60e51b815260206004820152601e60248201527f436f6c6c61746572616c4a6f696e2f6661696c65642d7472616e7366657200006044820152606490fdfeb0fdd1623e42dbffda4acd8bd643e1cb69f00f0e83abeaa8150ee42cf0fd105ea2646970667358221220e64d59c87392160f7434044c6116efca42c29e00778d817576d8faa9930bcf4864736f6c63430008110033",
  "devdoc": {
    "details": "This adapter assumes that the collateral has 18 decimals",
    "kind": "dev",
    "methods": {
      "exit(address,uint256)": {
        "params": {
          "usr": "Account to which we transfer the collateral",
          "wad": "Amount of collateral to transfer to 'account' (represented as a number with 18 decimals)*"
        }
      },
      "join(address,uint256)": {
        "params": {
          "usr": "Account from which we transferFrom collateral and add it in the system",
          "wad": "Amount of collateral to transfer in the system (represented as a number with 18 decimals)*"
        }
      },
      "supportsInterface(bytes4)": {
        "details": "Returns true if this contract implements the interface defined by `interfaceId`. See the corresponding https://eips.ethereum.org/EIPS/eip-165#how-interfaces-are-identified[EIP section] to learn more about how these ids are created. This function call must use less than 30 000 gas."
      }
    },
    "version": 1
  },
  "userdoc": {
    "kind": "user",
    "methods": {
      "exit(address,uint256)": {
        "notice": "Exit collateral from the system"
      },
      "join(address,uint256)": {
        "notice": "Join collateral in the system"
      }
    },
    "version": 1
  },
  "storageLayout": {
    "storage": [
      {
        "astId": 5984,
        "contract": "contracts/makerdao/core/adapters/CollateralJoin.sol:CollateralJoin",
        "label": "ACCESS_CONTROL_SINGLETON",
        "offset": 0,
        "slot": "0",
        "type": "t_contract(ISuAccessControl)6267"
      },
      {
        "astId": 2904,
        "contract": "contracts/makerdao/core/adapters/CollateralJoin.sol:CollateralJoin",
        "label": "safeEngine",
        "offset": 0,
        "slot": "1",
        "type": "t_contract(ISafeEngine)5516"
      },
      {
        "astId": 2906,
        "contract": "contracts/makerdao/core/adapters/CollateralJoin.sol:CollateralJoin",
        "label": "collateralType",
        "offset": 0,
        "slot": "2",
        "type": "t_bytes32"
      },
      {
        "astId": 2909,
        "contract": "contracts/makerdao/core/adapters/CollateralJoin.sol:CollateralJoin",
        "label": "collateral",
        "offset": 0,
        "slot": "3",
        "type": "t_contract(IERC20Metadata)265"
      },
      {
        "astId": 2911,
        "contract": "contracts/makerdao/core/adapters/CollateralJoin.sol:CollateralJoin",
        "label": "decimals",
        "offset": 0,
        "slot": "4",
        "type": "t_uint256"
      },
      {
        "astId": 2961,
        "contract": "contracts/makerdao/core/adapters/CollateralJoin.sol:CollateralJoin",
        "label": "contractEnabled",
        "offset": 0,
        "slot": "5",
        "type": "t_uint256"
      }
    ],
    "types": {
      "t_bytes32": {
        "encoding": "inplace",
        "label": "bytes32",
        "numberOfBytes": "32"
      },
      "t_contract(IERC20Metadata)265": {
        "encoding": "inplace",
        "label": "contract IERC20Metadata",
        "numberOfBytes": "20"
      },
      "t_contract(ISafeEngine)5516": {
        "encoding": "inplace",
        "label": "contract ISafeEngine",
        "numberOfBytes": "20"
      },
      "t_contract(ISuAccessControl)6267": {
        "encoding": "inplace",
        "label": "contract ISuAccessControl",
        "numberOfBytes": "20"
      },
      "t_uint256": {
        "encoding": "inplace",
        "label": "uint256",
        "numberOfBytes": "32"
      }
    }
  }
}