{
  "address": "0xacf923A4242B974e3B9F025A4eFfDDdf5ce3D8A1",
  "abi": [
    {
      "inputs": [
        {
          "internalType": "address",
          "name": "accessControlSingleton",
          "type": "address"
        },
        {
          "internalType": "address",
          "name": "safeEngine_",
          "type": "address"
        },
        {
          "internalType": "bytes32",
          "name": "collateralType_",
          "type": "bytes32"
        },
        {
          "internalType": "address",
          "name": "collateral_",
          "type": "address"
        }
      ],
      "stateMutability": "nonpayable",
      "type": "constructor"
    },
    {
      "inputs": [],
      "name": "BadAccessControlSingleton",
      "type": "error"
    },
    {
      "inputs": [],
      "name": "OnlyAdminError",
      "type": "error"
    },
    {
      "inputs": [],
      "name": "OnlyAlerterError",
      "type": "error"
    },
    {
      "inputs": [],
      "name": "OnlyCDPAccessError",
      "type": "error"
    },
    {
      "inputs": [],
      "name": "OnlyDAOError",
      "type": "error"
    },
    {
      "inputs": [],
      "name": "OnlyDisablerAccessError",
      "type": "error"
    },
    {
      "inputs": [],
      "name": "OnlyLiquidationAccessError",
      "type": "error"
    },
    {
      "inputs": [],
      "name": "OnlyMintAccessError",
      "type": "error"
    },
    {
      "inputs": [],
      "name": "OnlyProxyActionsError",
      "type": "error"
    },
    {
      "inputs": [],
      "name": "OnlyRewardAccessError",
      "type": "error"
    },
    {
      "inputs": [],
      "name": "OnlyRoleError",
      "type": "error"
    },
    {
      "inputs": [],
      "name": "OnlyVaultAccessError",
      "type": "error"
    },
    {
      "inputs": [],
      "name": "OnlyVotingEscrowError",
      "type": "error"
    },
    {
      "anonymous": false,
      "inputs": [],
      "name": "DisableContract",
      "type": "event"
    },
    {
      "anonymous": false,
      "inputs": [
        {
          "indexed": true,
          "internalType": "address",
          "name": "usr",
          "type": "address"
        },
        {
          "indexed": false,
          "internalType": "uint256",
          "name": "wad",
          "type": "uint256"
        }
      ],
      "name": "Exit",
      "type": "event"
    },
    {
      "anonymous": false,
      "inputs": [
        {
          "indexed": true,
          "internalType": "address",
          "name": "usr",
          "type": "address"
        },
        {
          "indexed": false,
          "internalType": "uint256",
          "name": "wad",
          "type": "uint256"
        }
      ],
      "name": "Join",
      "type": "event"
    },
    {
      "inputs": [],
      "name": "ACCESS_CONTROL_SINGLETON",
      "outputs": [
        {
          "internalType": "contract ISuAccessControl",
          "name": "",
          "type": "address"
        }
      ],
      "stateMutability": "view",
      "type": "function"
    },
    {
      "inputs": [],
      "name": "ADMIN_ROLE",
      "outputs": [
        {
          "internalType": "bytes32",
          "name": "",
          "type": "bytes32"
        }
      ],
      "stateMutability": "view",
      "type": "function"
    },
    {
      "inputs": [],
      "name": "ALERTER_ROLE",
      "outputs": [
        {
          "internalType": "bytes32",
          "name": "",
          "type": "bytes32"
        }
      ],
      "stateMutability": "view",
      "type": "function"
    },
    {
      "inputs": [],
      "name": "CDP_ACCESS_ROLE",
      "outputs": [
        {
          "internalType": "bytes32",
          "name": "",
          "type": "bytes32"
        }
      ],
      "stateMutability": "view",
      "type": "function"
    },
    {
      "inputs": [],
      "name": "DAO_ROLE",
      "outputs": [
        {
          "internalType": "bytes32",
          "name": "",
          "type": "bytes32"
        }
      ],
      "stateMutability": "view",
      "type": "function"
    },
    {
      "inputs": [],
      "name": "DISABLER_ROLE",
      "outputs": [
        {
          "internalType": "bytes32",
          "name": "",
          "type": "bytes32"
        }
      ],
      "stateMutability": "view",
      "type": "function"
    },
    {
      "inputs": [],
      "name": "LIQUIDATION_ACCESS_ROLE",
      "outputs": [
        {
          "internalType": "bytes32",
          "name": "",
          "type": "bytes32"
        }
      ],
      "stateMutability": "view",
      "type": "function"
    },
    {
      "inputs": [],
      "name": "MINT_ACCESS_ROLE",
      "outputs": [
        {
          "internalType": "bytes32",
          "name": "",
          "type": "bytes32"
        }
      ],
      "stateMutability": "view",
      "type": "function"
    },
    {
      "inputs": [],
      "name": "PROXY_ACTIONS_ROLE",
      "outputs": [
        {
          "internalType": "bytes32",
          "name": "",
          "type": "bytes32"
        }
      ],
      "stateMutability": "view",
      "type": "function"
    },
    {
      "inputs": [],
      "name": "REWARD_ACCESS_ROLE",
      "outputs": [
        {
          "internalType": "bytes32",
          "name": "",
          "type": "bytes32"
        }
      ],
      "stateMutability": "view",
      "type": "function"
    },
    {
      "inputs": [],
      "name": "VOTING_ESCROW_ROLE",
      "outputs": [
        {
          "internalType": "bytes32",
          "name": "",
          "type": "bytes32"
        }
      ],
      "stateMutability": "view",
      "type": "function"
    },
    {
      "inputs": [],
      "name": "collateral",
      "outputs": [
        {
          "internalType": "contract IERC20Metadata",
          "name": "",
          "type": "address"
        }
      ],
      "stateMutability": "view",
      "type": "function"
    },
    {
      "inputs": [],
      "name": "collateralType",
      "outputs": [
        {
          "internalType": "bytes32",
          "name": "",
          "type": "bytes32"
        }
      ],
      "stateMutability": "view",
      "type": "function"
    },
    {
      "inputs": [],
      "name": "contractEnabled",
      "outputs": [
        {
          "internalType": "uint256",
          "name": "",
          "type": "uint256"
        }
      ],
      "stateMutability": "view",
      "type": "function"
    },
    {
      "inputs": [],
      "name": "decimals",
      "outputs": [
        {
          "internalType": "uint256",
          "name": "",
          "type": "uint256"
        }
      ],
      "stateMutability": "view",
      "type": "function"
    },
    {
      "inputs": [],
      "name": "disableContract",
      "outputs": [],
      "stateMutability": "nonpayable",
      "type": "function"
    },
    {
      "inputs": [
        {
          "internalType": "address",
          "name": "usr",
          "type": "address"
        },
        {
          "internalType": "uint256",
          "name": "amt",
          "type": "uint256"
        }
      ],
      "name": "exit",
      "outputs": [],
      "stateMutability": "nonpayable",
      "type": "function"
    },
    {
      "inputs": [
        {
          "internalType": "address",
          "name": "usr",
          "type": "address"
        },
        {
          "internalType": "uint256",
          "name": "amt",
          "type": "uint256"
        }
      ],
      "name": "join",
      "outputs": [],
      "stateMutability": "nonpayable",
      "type": "function"
    },
    {
      "inputs": [],
      "name": "safeEngine",
      "outputs": [
        {
          "internalType": "contract ISafeEngine",
          "name": "",
          "type": "address"
        }
      ],
      "stateMutability": "view",
      "type": "function"
    },
    {
      "inputs": [
        {
          "internalType": "bytes4",
          "name": "interfaceId",
          "type": "bytes4"
        }
      ],
      "name": "supportsInterface",
      "outputs": [
        {
          "internalType": "bool",
          "name": "",
          "type": "bool"
        }
      ],
      "stateMutability": "view",
      "type": "function"
    }
  ],
  "numDeployments": 1,
  "solcInputHash": "403b958b64b1c77d13b9eddc7dda2091",
  "bytecode": "0x608060409080825234620001e45760808162000c918038038091620000258285620001e9565b833981010312620001e4576200003b8162000223565b6020906200004b82840162000223565b906200005e606086860151950162000223565b600080546001600160a01b039384166001600160a01b031991821681178355919690949091801590879082156200015b575b50506200014a57918391869460049694600160055516846001541617600155600255168091600354161760035585519283809263313ce56760e01b82525afa91821562000140578392620000f5575b8460ff841660045551610a589081620002398239f35b90809250813d831162000138575b6200010f8183620001e9565b810103126200013457519060ff8216820362000131575060ff903880620000df565b80fd5b5080fd5b503d62000103565b84513d85823e3d90fd5b87516384d942fd60e01b8152600490fd5b8a516301ffc9a760e01b8152637965db0b60e01b60048201529250829060249082905afa908115620001da57889162000199575b5015863862000090565b90508681813d8311620001d2575b620001b38183620001e9565b81010312620001ce57518015158103620001ce57386200018f565b8780fd5b503d620001a7565b89513d8a823e3d90fd5b600080fd5b601f909101601f19168101906001600160401b038211908210176200020d57604052565b634e487b7160e01b600052604160045260246000fd5b51906001600160a01b0382168203620001e45756fe608060408181526004908136101561001657600080fd5b600092833560e01c90816301ffc9a7146107f75750806303ee9f22146107cf578063313ce567146107b15780633b4da69f1461060757806341b3a0d9146105e8578063438280dd146105ad57806367aea3131461058457806371d0fb411461054957806375b238fc1461052e578063894ba8331461046b5780638e5313e014610430578063b38234f3146103f5578063bd5f5be6146103ba578063d0e8fa821461037f578063d2351cee14610356578063d8dfeb451461032d578063dc97e84e146102f2578063e824600f146102d3578063e9c26518146102945763ef693bed1461010057600080fd5b346102905761010e36610889565b919083546012036012811161027d5761012961012f91610918565b8461093c565b600160ff1b6101408183111561094f565b6001546002546001600160a01b039391841692821461026a5790829189933b156102665761018b92898580948a5196879586948593632508c12f60e11b855285039133918501610995565b03925af1801561025c57610244575b50508060446020926003541693888651958694859363a9059cbb60e01b855216809a8401528860248401525af190811561023a57916102057f22d324652c93739755cf4581508b60875ebdd78c20c0cff5cf8e23452b2996319492602094889161020d575b506109b6565b51908152a280f35b61022d9150853d8111610233575b61022581836108dd565b810190610900565b386101ff565b503d61021b565b82513d87823e3d90fd5b61024d906108b4565b61025857853861019a565b8580fd5b85513d84823e3d90fd5b8380fd5b634e487b7160e01b895260118852602489fd5b634e487b7160e01b865260118552602486fd5b8280fd5b8382346102cf57816003193601126102cf57602090517f3b5d4cc60d3ec3516ee8ae083bd60934f6eb2a6c54b1229985c41bfb092b26038152f35b5080fd5b8382346102cf57816003193601126102cf576020906002549051908152f35b8382346102cf57816003193601126102cf57602090517f9a9aef7c1247d5fc769b0185c052913e39673da29a880317dfd20ebf86f26a498152f35b8382346102cf57816003193601126102cf5760035490516001600160a01b039091168152602090f35b8382346102cf57816003193601126102cf5760209051600080516020610a038339815191528152f35b8382346102cf57816003193601126102cf57602090517f76d0567582f23e1e9d7a13eeba60f9aea9d69b8da87ca27a8bf3698b35c653db8152f35b8382346102cf57816003193601126102cf57602090517f4f14c8366fa999817edc9f29824eb88a00cc31225e2156f399da4bc91049eb108152f35b8382346102cf57816003193601126102cf57602090517fd83f5343da19b478b15a140c301a868be9e02603958f38fbd822b9d5c0a289168152f35b8382346102cf57816003193601126102cf57602090517fe453bacb314e78dcd5192e6b1a2b1f0e7c76e92f6b7e429a6a90f04e39db3b768152f35b503461029057826003193601126102905782548151632474521560e21b8152600080516020610a038339815191528482015233602482015290602090829060449082906001600160a01b03165afa908115610524578491610506575b50156104f95782806005557f2d4b4ecff7bd7503135271925520a2f6c0d98c9473ffc1a1e72c92502f51b25e8180a180f35b5163bb0684b760e01b8152fd5b61051e915060203d81116102335761022581836108dd565b386104c7565b82513d86823e3d90fd5b8382346102cf57816003193601126102cf5751908152602090f35b8382346102cf57816003193601126102cf57602090517f880a91047114272656e533301261260c75e4d11543ac7303d6fe4204579ec7278152f35b8382346102cf57816003193601126102cf5760015490516001600160a01b039091168152602090f35b8382346102cf57816003193601126102cf57602090517f39f61ca2a1a28fee144218173ec637b649a353e4026b2738c673800e5bf1437b8152f35b8382346102cf57816003193601126102cf576020906005549051908152f35b5090346102905761061736610889565b92600160055403610764578254601203601281116107515761063b61064191610918565b8561093c565b9261064e8685121561094f565b6001546002546001600160a01b039590918891908716803b1561029057868361068c95885196879586948593632508c12f60e11b85528b8501610995565b03925af1801561074757610735575b50602086916064866003541691855194859384926323b872dd60e01b845233908401523060248401528a60448401525af190811561072b579161070a602094927fb4e09949657f21548b58afe74e7b86cd2295da5ff1598ae1e5faecb1cf19ca959694899161071457506109b6565b519485521692a280f35b61022d9150863d81116102335761022581836108dd565b82513d88823e3d90fd5b956107416020976108b4565b9561069b565b83513d89823e3d90fd5b634e487b7160e01b865260118452602486fd5b5162461bcd60e51b8152602081840152602260248201527f436f6c6c61746572616c4a6f696e2f6e6f742d636f6e7472616374456e61626c604482015261195960f21b6064820152608490fd5b50903461029057826003193601126102905760209250549051908152f35b8382346102cf57816003193601126102cf57905490516001600160a01b039091168152602090f35b9290503461026657602036600319011261026657803563ffffffff60e01b81168091036108855784546301ffc9a760e01b855291840152602090839060249082906001600160a01b03165afa91821561087b576020939261085c575b50519015158152f35b610874919250833d81116102335761022581836108dd565b9038610853565b81513d85823e3d90fd5b8480fd5b60409060031901126108af576004356001600160a01b03811681036108af579060243590565b600080fd5b6001600160401b0381116108c757604052565b634e487b7160e01b600052604160045260246000fd5b601f909101601f19168101906001600160401b038211908210176108c757604052565b908160209103126108af575180151581036108af5790565b604d811161092657600a0a90565b634e487b7160e01b600052601160045260246000fd5b8181029291811591840414171561092657565b1561095657565b60405162461bcd60e51b8152602060048201526017602482015276436f6c6c61746572616c4a6f696e2f6f766572666c6f7760481b6044820152606490fd5b9081526001600160a01b039091166020820152604081019190915260600190565b156109bd57565b60405162461bcd60e51b815260206004820152601e60248201527f436f6c6c61746572616c4a6f696e2f6661696c65642d7472616e7366657200006044820152606490fdfeb0fdd1623e42dbffda4acd8bd643e1cb69f00f0e83abeaa8150ee42cf0fd105ea26469706673582212208530994c5ccba449216550e7dd1e30025ab3c0b2d9e2216f45abb02b27f0394064736f6c63430008110033",
  "devdoc": {
    "details": "This adapter assumes that the collateral has decimals < 18",
    "kind": "dev",
    "methods": {
      "supportsInterface(bytes4)": {
        "details": "Returns true if this contract implements the interface defined by `interfaceId`. See the corresponding https://eips.ethereum.org/EIPS/eip-165#how-interfaces-are-identified[EIP section] to learn more about how these ids are created. This function call must use less than 30 000 gas."
      }
    },
    "version": 1
  },
  "userdoc": {
    "kind": "user",
    "methods": {},
    "version": 1
  },
  "storageLayout": {
    "storage": [
      {
        "astId": 22875,
        "contract": "contracts/makerdao/core/adapters/CollateralJoinDecimals.sol:CollateralJoinDecimals",
        "label": "ACCESS_CONTROL_SINGLETON",
        "offset": 0,
        "slot": "0",
        "type": "t_contract(ISuAccessControl)27027"
      },
      {
        "astId": 42401,
        "contract": "contracts/makerdao/core/adapters/CollateralJoinDecimals.sol:CollateralJoinDecimals",
        "label": "safeEngine",
        "offset": 0,
        "slot": "1",
        "type": "t_contract(ISafeEngine)46741"
      },
      {
        "astId": 42403,
        "contract": "contracts/makerdao/core/adapters/CollateralJoinDecimals.sol:CollateralJoinDecimals",
        "label": "collateralType",
        "offset": 0,
        "slot": "2",
        "type": "t_bytes32"
      },
      {
        "astId": 42406,
        "contract": "contracts/makerdao/core/adapters/CollateralJoinDecimals.sol:CollateralJoinDecimals",
        "label": "collateral",
        "offset": 0,
        "slot": "3",
        "type": "t_contract(IERC20Metadata)6943"
      },
      {
        "astId": 42408,
        "contract": "contracts/makerdao/core/adapters/CollateralJoinDecimals.sol:CollateralJoinDecimals",
        "label": "decimals",
        "offset": 0,
        "slot": "4",
        "type": "t_uint256"
      },
      {
        "astId": 42451,
        "contract": "contracts/makerdao/core/adapters/CollateralJoinDecimals.sol:CollateralJoinDecimals",
        "label": "contractEnabled",
        "offset": 0,
        "slot": "5",
        "type": "t_uint256"
      }
    ],
    "types": {
      "t_bytes32": {
        "encoding": "inplace",
        "label": "bytes32",
        "numberOfBytes": "32"
      },
      "t_contract(IERC20Metadata)6943": {
        "encoding": "inplace",
        "label": "contract IERC20Metadata",
        "numberOfBytes": "20"
      },
      "t_contract(ISafeEngine)46741": {
        "encoding": "inplace",
        "label": "contract ISafeEngine",
        "numberOfBytes": "20"
      },
      "t_contract(ISuAccessControl)27027": {
        "encoding": "inplace",
        "label": "contract ISuAccessControl",
        "numberOfBytes": "20"
      },
      "t_uint256": {
        "encoding": "inplace",
        "label": "uint256",
        "numberOfBytes": "32"
      }
    }
  }
}