{
  "address": "0x1ECd69FC736D8099eb1630e7D12bfb042d3E611E",
  "abi": [
    {
      "inputs": [
        {
          "internalType": "address",
          "name": "apt",
          "type": "address"
        },
        {
          "internalType": "address",
          "name": "safe",
          "type": "address"
        },
        {
          "internalType": "uint256",
          "name": "wad",
          "type": "uint256"
        }
      ],
      "name": "coinJoin_join",
      "outputs": [],
      "stateMutability": "nonpayable",
      "type": "function"
    },
    {
      "inputs": [
        {
          "internalType": "address",
          "name": "apt",
          "type": "address"
        },
        {
          "internalType": "address",
          "name": "safe",
          "type": "address"
        },
        {
          "internalType": "uint256",
          "name": "amt",
          "type": "uint256"
        },
        {
          "internalType": "bool",
          "name": "transferFrom",
          "type": "bool"
        }
      ],
      "name": "collateralJoin_join",
      "outputs": [],
      "stateMutability": "nonpayable",
      "type": "function"
    },
    {
      "inputs": [
        {
          "internalType": "address",
          "name": "manager",
          "type": "address"
        },
        {
          "internalType": "address",
          "name": "collateralJoin",
          "type": "address"
        },
        {
          "internalType": "uint256",
          "name": "cdp",
          "type": "uint256"
        },
        {
          "internalType": "uint256",
          "name": "amt",
          "type": "uint256"
        }
      ],
      "name": "exitTokenCollateral",
      "outputs": [],
      "stateMutability": "nonpayable",
      "type": "function"
    },
    {
      "inputs": [
        {
          "internalType": "address",
          "name": "manager",
          "type": "address"
        },
        {
          "internalType": "address",
          "name": "collateralJoin",
          "type": "address"
        },
        {
          "internalType": "uint256",
          "name": "cdp",
          "type": "uint256"
        },
        {
          "internalType": "uint256",
          "name": "amt",
          "type": "uint256"
        }
      ],
      "name": "freeTokenCollateral",
      "outputs": [],
      "stateMutability": "nonpayable",
      "type": "function"
    },
    {
      "inputs": [
        {
          "internalType": "address",
          "name": "manager",
          "type": "address"
        },
        {
          "internalType": "address",
          "name": "taxCollector",
          "type": "address"
        },
        {
          "internalType": "address",
          "name": "coinJoin",
          "type": "address"
        },
        {
          "internalType": "uint256",
          "name": "cdp",
          "type": "uint256"
        },
        {
          "internalType": "uint256",
          "name": "wad",
          "type": "uint256"
        }
      ],
      "name": "generateDebt",
      "outputs": [],
      "stateMutability": "nonpayable",
      "type": "function"
    },
    {
      "inputs": [
        {
          "internalType": "address",
          "name": "manager",
          "type": "address"
        },
        {
          "internalType": "address",
          "name": "user",
          "type": "address"
        },
        {
          "internalType": "bytes32",
          "name": "collateralType",
          "type": "bytes32"
        }
      ],
      "name": "getAvailableToBorrow",
      "outputs": [
        {
          "internalType": "uint256",
          "name": "",
          "type": "uint256"
        }
      ],
      "stateMutability": "view",
      "type": "function"
    },
    {
      "inputs": [
        {
          "internalType": "address",
          "name": "manager",
          "type": "address"
        },
        {
          "internalType": "address",
          "name": "user",
          "type": "address"
        },
        {
          "internalType": "bytes32",
          "name": "collateralType",
          "type": "bytes32"
        }
      ],
      "name": "getAvailableToWithdraw",
      "outputs": [
        {
          "internalType": "uint256",
          "name": "",
          "type": "uint256"
        }
      ],
      "stateMutability": "view",
      "type": "function"
    },
    {
      "inputs": [
        {
          "internalType": "address",
          "name": "manager",
          "type": "address"
        },
        {
          "internalType": "address",
          "name": "user",
          "type": "address"
        },
        {
          "internalType": "bytes32",
          "name": "collateralType",
          "type": "bytes32"
        }
      ],
      "name": "getCdpId",
      "outputs": [
        {
          "internalType": "uint256",
          "name": "",
          "type": "uint256"
        }
      ],
      "stateMutability": "view",
      "type": "function"
    },
    {
      "inputs": [
        {
          "internalType": "address",
          "name": "manager",
          "type": "address"
        },
        {
          "internalType": "address",
          "name": "user",
          "type": "address"
        },
        {
          "internalType": "bytes32",
          "name": "collateralType",
          "type": "bytes32"
        }
      ],
      "name": "getCdpInfo",
      "outputs": [
        {
          "internalType": "uint256",
          "name": "",
          "type": "uint256"
        },
        {
          "internalType": "uint256",
          "name": "",
          "type": "uint256"
        }
      ],
      "stateMutability": "view",
      "type": "function"
    },
    {
      "inputs": [
        {
          "internalType": "address",
          "name": "manager",
          "type": "address"
        },
        {
          "internalType": "address",
          "name": "collateralJoin",
          "type": "address"
        },
        {
          "internalType": "uint256",
          "name": "cdp",
          "type": "uint256"
        },
        {
          "internalType": "uint256",
          "name": "amt",
          "type": "uint256"
        },
        {
          "internalType": "bool",
          "name": "transferFrom",
          "type": "bool"
        }
      ],
      "name": "lockTokenCollateral",
      "outputs": [],
      "stateMutability": "nonpayable",
      "type": "function"
    },
    {
      "inputs": [
        {
          "internalType": "address",
          "name": "manager",
          "type": "address"
        },
        {
          "internalType": "address",
          "name": "taxCollector",
          "type": "address"
        },
        {
          "internalType": "address",
          "name": "collateralJoin",
          "type": "address"
        },
        {
          "internalType": "address",
          "name": "coinJoin",
          "type": "address"
        },
        {
          "internalType": "uint256",
          "name": "safe",
          "type": "uint256"
        },
        {
          "internalType": "uint256",
          "name": "collateralAmount",
          "type": "uint256"
        },
        {
          "internalType": "uint256",
          "name": "deltaWad",
          "type": "uint256"
        },
        {
          "internalType": "bool",
          "name": "transferFrom",
          "type": "bool"
        }
      ],
      "name": "lockTokenCollateralAndGenerateDebt",
      "outputs": [],
      "stateMutability": "nonpayable",
      "type": "function"
    },
    {
      "inputs": [
        {
          "internalType": "address",
          "name": "manager",
          "type": "address"
        },
        {
          "internalType": "uint256",
          "name": "cdp",
          "type": "uint256"
        },
        {
          "internalType": "int256",
          "name": "deltaCollateral",
          "type": "int256"
        },
        {
          "internalType": "int256",
          "name": "deltaDebt",
          "type": "int256"
        }
      ],
      "name": "modifySAFECollateralization",
      "outputs": [],
      "stateMutability": "nonpayable",
      "type": "function"
    },
    {
      "inputs": [
        {
          "internalType": "address",
          "name": "manager",
          "type": "address"
        },
        {
          "internalType": "address",
          "name": "taxCollector",
          "type": "address"
        },
        {
          "internalType": "address",
          "name": "collateralJoin",
          "type": "address"
        },
        {
          "internalType": "address",
          "name": "coinJoin",
          "type": "address"
        },
        {
          "internalType": "bytes32",
          "name": "collateralType",
          "type": "bytes32"
        },
        {
          "internalType": "uint256",
          "name": "amtC",
          "type": "uint256"
        },
        {
          "internalType": "uint256",
          "name": "wadD",
          "type": "uint256"
        },
        {
          "internalType": "bool",
          "name": "transferFrom",
          "type": "bool"
        }
      ],
      "name": "openLockTokenCollateralAndGenerateDebt",
      "outputs": [
        {
          "internalType": "uint256",
          "name": "cdp",
          "type": "uint256"
        }
      ],
      "stateMutability": "nonpayable",
      "type": "function"
    },
    {
      "inputs": [
        {
          "internalType": "address",
          "name": "manager",
          "type": "address"
        },
        {
          "internalType": "address",
          "name": "coinJoin",
          "type": "address"
        },
        {
          "internalType": "uint256",
          "name": "cdp",
          "type": "uint256"
        }
      ],
      "name": "repayAllDebt",
      "outputs": [],
      "stateMutability": "nonpayable",
      "type": "function"
    },
    {
      "inputs": [
        {
          "internalType": "address",
          "name": "manager",
          "type": "address"
        },
        {
          "internalType": "address",
          "name": "collateralJoin",
          "type": "address"
        },
        {
          "internalType": "address",
          "name": "coinJoin",
          "type": "address"
        },
        {
          "internalType": "uint256",
          "name": "cdp",
          "type": "uint256"
        },
        {
          "internalType": "uint256",
          "name": "amtC",
          "type": "uint256"
        }
      ],
      "name": "repayAllDebtAndFreeTokenCollateral",
      "outputs": [],
      "stateMutability": "nonpayable",
      "type": "function"
    },
    {
      "inputs": [
        {
          "internalType": "address",
          "name": "manager",
          "type": "address"
        },
        {
          "internalType": "address",
          "name": "coinJoin",
          "type": "address"
        },
        {
          "internalType": "uint256",
          "name": "cdp",
          "type": "uint256"
        },
        {
          "internalType": "uint256",
          "name": "wad",
          "type": "uint256"
        }
      ],
      "name": "repayDebt",
      "outputs": [],
      "stateMutability": "nonpayable",
      "type": "function"
    },
    {
      "inputs": [
        {
          "internalType": "address",
          "name": "manager",
          "type": "address"
        },
        {
          "internalType": "address",
          "name": "collateralJoin",
          "type": "address"
        },
        {
          "internalType": "address",
          "name": "coinJoin",
          "type": "address"
        },
        {
          "internalType": "uint256",
          "name": "cdp",
          "type": "uint256"
        },
        {
          "internalType": "uint256",
          "name": "amtC",
          "type": "uint256"
        },
        {
          "internalType": "uint256",
          "name": "wadD",
          "type": "uint256"
        }
      ],
      "name": "repayDebtAndFreeTokenCollateral",
      "outputs": [],
      "stateMutability": "nonpayable",
      "type": "function"
    }
  ],
  "numDeployments": 3,
  "solcInputHash": "540c18d156fa2805797caedda86c68d8",
  "bytecode": "0x608060405234801561001057600080fd5b50613f62806100206000396000f3fe608060405234801561001057600080fd5b506004361061010b5760003560e01c80636093c975116100a2578063bb44afd311610071578063bb44afd314610798578063de92b1751461081a578063e25187c114610894578063f19d3b4114610977578063f7f898b0146109d95761010b565b80636093c9751461058257806364e506a0146105fa5780637a2a10311461067e578063b02f9e3d146107005761010b565b80632af7ec8b116100de5780632af7ec8b146103105780632dc469a314610399578063434fa72214610431578063437c050d146104b35761010b565b806303f2cd051461011057806313cc55e4146101885780631c005fda1461022a5780632581700814610298575b600080fd5b6101866004803603608081101561012657600080fd5b81019080803573ffffffffffffffffffffffffffffffffffffffff169060200190929190803573ffffffffffffffffffffffffffffffffffffffff1690602001909291908035906020019092919080359060200190929190505050610a47565b005b610228600480360360c081101561019e57600080fd5b81019080803573ffffffffffffffffffffffffffffffffffffffff169060200190929190803573ffffffffffffffffffffffffffffffffffffffff169060200190929190803573ffffffffffffffffffffffffffffffffffffffff169060200190929190803590602001909291908035906020019092919080359060200190929190505050610aeb565b005b6102966004803603606081101561024057600080fd5b81019080803573ffffffffffffffffffffffffffffffffffffffff169060200190929190803573ffffffffffffffffffffffffffffffffffffffff16906020019092919080359060200190929190505050610e81565b005b61030e600480360360808110156102ae57600080fd5b81019080803573ffffffffffffffffffffffffffffffffffffffff169060200190929190803573ffffffffffffffffffffffffffffffffffffffff1690602001909291908035906020019092919080359060200190929190505050611143565b005b61037c6004803603606081101561032657600080fd5b81019080803573ffffffffffffffffffffffffffffffffffffffff169060200190929190803573ffffffffffffffffffffffffffffffffffffffff1690602001909291908035906020019092919050505061164c565b604051808381526020018281526020019250505060405180910390f35b61042f600480360360a08110156103af57600080fd5b81019080803573ffffffffffffffffffffffffffffffffffffffff169060200190929190803573ffffffffffffffffffffffffffffffffffffffff169060200190929190803573ffffffffffffffffffffffffffffffffffffffff169060200190929190803590602001909291908035906020019092919050505061186b565b005b61049d6004803603606081101561044757600080fd5b81019080803573ffffffffffffffffffffffffffffffffffffffff169060200190929190803573ffffffffffffffffffffffffffffffffffffffff16906020019092919080359060200190929190505050611ba7565b6040518082815260200191505060405180910390f35b61058060048036036101008110156104ca57600080fd5b81019080803573ffffffffffffffffffffffffffffffffffffffff169060200190929190803573ffffffffffffffffffffffffffffffffffffffff169060200190929190803573ffffffffffffffffffffffffffffffffffffffff169060200190929190803573ffffffffffffffffffffffffffffffffffffffff169060200190929190803590602001909291908035906020019092919080359060200190929190803515159060200190929190505050611d3c565b005b6105f86004803603608081101561059857600080fd5b81019080803573ffffffffffffffffffffffffffffffffffffffff169060200190929190803573ffffffffffffffffffffffffffffffffffffffff169060200190929190803590602001909291908035906020019092919050505061210a565b005b61067c600480360360a081101561061057600080fd5b81019080803573ffffffffffffffffffffffffffffffffffffffff169060200190929190803573ffffffffffffffffffffffffffffffffffffffff16906020019092919080359060200190929190803590602001909291908035151590602001909291905050506121cc565b005b6106ea6004803603606081101561069457600080fd5b81019080803573ffffffffffffffffffffffffffffffffffffffff169060200190929190803573ffffffffffffffffffffffffffffffffffffffff1690602001909291908035906020019092919050505061245c565b6040518082815260200191505060405180910390f35b610796600480360360a081101561071657600080fd5b81019080803573ffffffffffffffffffffffffffffffffffffffff169060200190929190803573ffffffffffffffffffffffffffffffffffffffff169060200190929190803573ffffffffffffffffffffffffffffffffffffffff1690602001909291908035906020019092919080359060200190929190505050612729565b005b610804600480360360608110156107ae57600080fd5b81019080803573ffffffffffffffffffffffffffffffffffffffff169060200190929190803573ffffffffffffffffffffffffffffffffffffffff16906020019092919080359060200190929190505050612ad8565b6040518082815260200191505060405180910390f35b6108926004803603608081101561083057600080fd5b81019080803573ffffffffffffffffffffffffffffffffffffffff169060200190929190803573ffffffffffffffffffffffffffffffffffffffff16906020019092919080359060200190929190803515159060200190929190505050612c6d565b005b61096160048036036101008110156108ab57600080fd5b81019080803573ffffffffffffffffffffffffffffffffffffffff169060200190929190803573ffffffffffffffffffffffffffffffffffffffff169060200190929190803573ffffffffffffffffffffffffffffffffffffffff169060200190929190803573ffffffffffffffffffffffffffffffffffffffff169060200190929190803590602001909291908035906020019092919080359060200190929190803515159060200190929190505050612f37565b6040518082815260200191505060405180910390f35b6109d76004803603608081101561098d57600080fd5b81019080803573ffffffffffffffffffffffffffffffffffffffff169060200190929190803590602001909291908035906020019092919080359060200190929190505050612f62565b005b610a45600480360360608110156109ef57600080fd5b81019080803573ffffffffffffffffffffffffffffffffffffffff169060200190929190803573ffffffffffffffffffffffffffffffffffffffff16906020019092919080359060200190929190505050612fe3565b005b610a5c848330610a5787866134fb565b613597565b8273ffffffffffffffffffffffffffffffffffffffff1663ef693bed33836040518363ffffffff1660e01b8152600401808373ffffffffffffffffffffffffffffffffffffffff16815260200182815260200192505050600060405180830381600087803b158015610acd57600080fd5b505af1158015610ae1573d6000803e3d6000fd5b5050505050505050565b60008673ffffffffffffffffffffffffffffffffffffffff1663434efcbd856040518263ffffffff1660e01b81526004018082815260200191505060206040518083038186803b158015610b3e57600080fd5b505afa158015610b52573d6000803e3d6000fd5b505050506040513d6020811015610b6857600080fd5b81019080805190602001909291905050509050610b86858284610e81565b6000610b9287856134fb565b9050610de28886610ba28461362e565b600003610ddd8c73ffffffffffffffffffffffffffffffffffffffff166367aea3136040518163ffffffff1660e01b815260040160206040518083038186803b158015610bee57600080fd5b505afa158015610c02573d6000803e3d6000fd5b505050506040513d6020811015610c1857600080fd5b81019080805190602001909291905050508d73ffffffffffffffffffffffffffffffffffffffff166367aea3136040518163ffffffff1660e01b815260040160206040518083038186803b158015610c6f57600080fd5b505afa158015610c83573d6000803e3d6000fd5b505050506040513d6020811015610c9957600080fd5b810190808051906020019092919050505073ffffffffffffffffffffffffffffffffffffffff1663fabde80c896040518263ffffffff1660e01b8152600401808273ffffffffffffffffffffffffffffffffffffffff16815260200191505060206040518083038186803b158015610d1057600080fd5b505afa158015610d24573d6000803e3d6000fd5b505050506040513d6020811015610d3a57600080fd5b8101908080519060200190929190505050888f73ffffffffffffffffffffffffffffffffffffffff1663918b7cfe8e6040518263ffffffff1660e01b81526004018082815260200191505060206040518083038186803b158015610d9d57600080fd5b505afa158015610db1573d6000803e3d6000fd5b505050506040513d6020811015610dc757600080fd5b81019080805190602001909291905050506136af565b612f62565b610dee88863084613597565b8673ffffffffffffffffffffffffffffffffffffffff1663ef693bed33866040518363ffffffff1660e01b8152600401808373ffffffffffffffffffffffffffffffffffffffff16815260200182815260200192505050600060405180830381600087803b158015610e5f57600080fd5b505af1158015610e73573d6000803e3d6000fd5b505050505050505050505050565b8273ffffffffffffffffffffffffffffffffffffffff1663a7e944556040518163ffffffff1660e01b8152600401602060405180830381600087803b158015610ec957600080fd5b505af1158015610edd573d6000803e3d6000fd5b505050506040513d6020811015610ef357600080fd5b810190808051906020019092919050505073ffffffffffffffffffffffffffffffffffffffff166323b872dd3330846040518463ffffffff1660e01b8152600401808473ffffffffffffffffffffffffffffffffffffffff1681526020018373ffffffffffffffffffffffffffffffffffffffff1681526020018281526020019350505050600060405180830381600087803b158015610f9257600080fd5b505af1158015610fa6573d6000803e3d6000fd5b505050508273ffffffffffffffffffffffffffffffffffffffff1663a7e944556040518163ffffffff1660e01b8152600401602060405180830381600087803b158015610ff257600080fd5b505af1158015611006573d6000803e3d6000fd5b505050506040513d602081101561101c57600080fd5b810190808051906020019092919050505073ffffffffffffffffffffffffffffffffffffffff1663095ea7b384836040518363ffffffff1660e01b8152600401808373ffffffffffffffffffffffffffffffffffffffff16815260200182815260200192505050600060405180830381600087803b15801561109d57600080fd5b505af11580156110b1573d6000803e3d6000fd5b505050508273ffffffffffffffffffffffffffffffffffffffff16633b4da69f83836040518363ffffffff1660e01b8152600401808373ffffffffffffffffffffffffffffffffffffffff16815260200182815260200192505050600060405180830381600087803b15801561112657600080fd5b505af115801561113a573d6000803e3d6000fd5b50505050505050565b60008473ffffffffffffffffffffffffffffffffffffffff166367aea3136040518163ffffffff1660e01b815260040160206040518083038186803b15801561118b57600080fd5b505afa15801561119f573d6000803e3d6000fd5b505050506040513d60208110156111b557600080fd5b8101908080519060200190929190505050905060008573ffffffffffffffffffffffffffffffffffffffff1663434efcbd856040518263ffffffff1660e01b81526004018082815260200191505060206040518083038186803b15801561121b57600080fd5b505afa15801561122f573d6000803e3d6000fd5b505050506040513d602081101561124557600080fd5b8101908080519060200190929190505050905060008673ffffffffffffffffffffffffffffffffffffffff1663918b7cfe866040518263ffffffff1660e01b81526004018082815260200191505060206040518083038186803b1580156112ab57600080fd5b505afa1580156112bf573d6000803e3d6000fd5b505050506040513d60208110156112d557600080fd5b8101908080519060200190929190505050905060008773ffffffffffffffffffffffffffffffffffffffff16638161b120876040518263ffffffff1660e01b81526004018082815260200191505060206040518083038186803b15801561133b57600080fd5b505afa15801561134f573d6000803e3d6000fd5b505050506040513d602081101561136557600080fd5b810190808051906020019092919050505090503073ffffffffffffffffffffffffffffffffffffffff168173ffffffffffffffffffffffffffffffffffffffff161480611479575060018873ffffffffffffffffffffffffffffffffffffffff16635aebb4608389306040518463ffffffff1660e01b8152600401808473ffffffffffffffffffffffffffffffffffffffff1681526020018381526020018273ffffffffffffffffffffffffffffffffffffffff168152602001935050505060206040518083038186803b15801561143c57600080fd5b505afa158015611450573d6000803e3d6000fd5b505050506040513d602081101561146657600080fd5b8101908080519060200190929190505050145b1561154757611489878487610e81565b6115428887600061153d888973ffffffffffffffffffffffffffffffffffffffff1663fabde80c8a6040518263ffffffff1660e01b8152600401808273ffffffffffffffffffffffffffffffffffffffff16815260200191505060206040518083038186803b1580156114fb57600080fd5b505afa15801561150f573d6000803e3d6000fd5b505050506040513d602081101561152557600080fd5b810190808051906020019092919050505089896136af565b612f62565b611642565b611552873087610e81565b8373ffffffffffffffffffffffffffffffffffffffff166399bec31583853030600061158e8b6b033b2e3c9fd0803ce80000008e028c8c6136af565b6040518763ffffffff1660e01b8152600401808781526020018673ffffffffffffffffffffffffffffffffffffffff1681526020018573ffffffffffffffffffffffffffffffffffffffff1681526020018473ffffffffffffffffffffffffffffffffffffffff1681526020018381526020018281526020019650505050505050600060405180830381600087803b15801561162957600080fd5b505af115801561163d573d6000803e3d6000fd5b505050505b5050505050505050565b600080600061165c86868661245c565b90507fffffffffffffffffffffffffffffffffffffffffffffffffffffffffffffffff811415611693576000809250925050611863565b60008673ffffffffffffffffffffffffffffffffffffffff166367aea3136040518163ffffffff1660e01b815260040160206040518083038186803b1580156116db57600080fd5b505afa1580156116ef573d6000803e3d6000fd5b505050506040513d602081101561170557600080fd5b8101908080519060200190929190505050905060008773ffffffffffffffffffffffffffffffffffffffff1663434efcbd846040518263ffffffff1660e01b81526004018082815260200191505060206040518083038186803b15801561176b57600080fd5b505afa15801561177f573d6000803e3d6000fd5b505050506040513d602081101561179557600080fd5b810190808051906020019092919050505090508173ffffffffffffffffffffffffffffffffffffffff16633d42250487836040518363ffffffff1660e01b8152600401808381526020018273ffffffffffffffffffffffffffffffffffffffff16815260200192505050604080518083038186803b15801561181657600080fd5b505afa15801561182a573d6000803e3d6000fd5b505050506040513d604081101561184057600080fd5b810190808051906020019092919080519060200190929190505050945094505050505b935093915050565b60008573ffffffffffffffffffffffffffffffffffffffff166367aea3136040518163ffffffff1660e01b815260040160206040518083038186803b1580156118b357600080fd5b505afa1580156118c7573d6000803e3d6000fd5b505050506040513d60208110156118dd57600080fd5b8101908080519060200190929190505050905060008673ffffffffffffffffffffffffffffffffffffffff1663434efcbd856040518263ffffffff1660e01b81526004018082815260200191505060206040518083038186803b15801561194357600080fd5b505afa158015611957573d6000803e3d6000fd5b505050506040513d602081101561196d57600080fd5b8101908080519060200190929190505050905060008773ffffffffffffffffffffffffffffffffffffffff1663918b7cfe866040518263ffffffff1660e01b81526004018082815260200191505060206040518083038186803b1580156119d357600080fd5b505afa1580156119e7573d6000803e3d6000fd5b505050506040513d60208110156119fd57600080fd5b8101908080519060200190929190505050905060008373ffffffffffffffffffffffffffffffffffffffff16633d42250483856040518363ffffffff1660e01b8152600401808381526020018273ffffffffffffffffffffffffffffffffffffffff16815260200192505050604080518083038186803b158015611a8057600080fd5b505afa158015611a94573d6000803e3d6000fd5b505050506040513d6040811015611aaa57600080fd5b810190808051906020019092919080519060200190929190505050915050611ade8784611ad987878888613862565b610e81565b6000611aea89876134fb565b9050611b068a88611afa8461362e565b60000385600003612f62565b611b128a883084613597565b8873ffffffffffffffffffffffffffffffffffffffff1663ef693bed33886040518363ffffffff1660e01b8152600401808373ffffffffffffffffffffffffffffffffffffffff16815260200182815260200192505050600060405180830381600087803b158015611b8357600080fd5b505af1158015611b97573d6000803e3d6000fd5b5050505050505050505050505050565b6000808473ffffffffffffffffffffffffffffffffffffffff166367aea3136040518163ffffffff1660e01b815260040160206040518083038186803b158015611bf057600080fd5b505afa158015611c04573d6000803e3d6000fd5b505050506040513d6020811015611c1a57600080fd5b81019080805190602001909291905050509050600080611c3b87878761164c565b915091506000808473ffffffffffffffffffffffffffffffffffffffff1663d07900bb886040518263ffffffff1660e01b81526004018082815260200191505060a06040518083038186803b158015611c9357600080fd5b505afa158015611ca7573d6000803e3d6000fd5b505050506040513d60a0811015611cbd57600080fd5b81019080805190602001909291908051906020019092919080519060200190929190805190602001909291908051906020019092919050505050509250925050600082611d0a8684613ae1565b81611d1157fe5b049050838111611d22576000611d2d565b611d2c8185613b76565b5b96505050505050509392505050565b60008873ffffffffffffffffffffffffffffffffffffffff1663434efcbd866040518263ffffffff1660e01b81526004018082815260200191505060206040518083038186803b158015611d8f57600080fd5b505afa158015611da3573d6000803e3d6000fd5b505050506040513d6020811015611db957600080fd5b8101908080519060200190929190505050905060008973ffffffffffffffffffffffffffffffffffffffff166367aea3136040518163ffffffff1660e01b815260040160206040518083038186803b158015611e1457600080fd5b505afa158015611e28573d6000803e3d6000fd5b505050506040513d6020811015611e3e57600080fd5b8101908080519060200190929190505050905060008a73ffffffffffffffffffffffffffffffffffffffff1663918b7cfe886040518263ffffffff1660e01b81526004018082815260200191505060206040518083038186803b158015611ea457600080fd5b505afa158015611eb8573d6000803e3d6000fd5b505050506040513d6020811015611ece57600080fd5b81019080805190602001909291905050509050611eed89848887612c6d565b611f168b88611f04611eff8d8b6134fb565b61362e565b611f11868f89888d613bf9565b612f62565b611f2a8b8830611f2589613dbf565b613dde565b60008273ffffffffffffffffffffffffffffffffffffffff1663da49bada308b6040518363ffffffff1660e01b8152600401808373ffffffffffffffffffffffffffffffffffffffff1681526020018273ffffffffffffffffffffffffffffffffffffffff1681526020019250505060206040518083038186803b158015611fb157600080fd5b505afa158015611fc5573d6000803e3d6000fd5b505050506040513d6020811015611fdb57600080fd5b81019080805190602001909291905050501415612074578173ffffffffffffffffffffffffffffffffffffffff1663d94d4208896040518263ffffffff1660e01b8152600401808273ffffffffffffffffffffffffffffffffffffffff168152602001915050600060405180830381600087803b15801561205b57600080fd5b505af115801561206f573d6000803e3d6000fd5b505050505b8773ffffffffffffffffffffffffffffffffffffffff1663ef693bed33876040518363ffffffff1660e01b8152600401808373ffffffffffffffffffffffffffffffffffffffff16815260200182815260200192505050600060405180830381600087803b1580156120e557600080fd5b505af11580156120f9573d6000803e3d6000fd5b505050505050505050505050505050565b600061211684836134fb565b905061213085846121268461362e565b6000036000612f62565b61213c85843084613597565b8373ffffffffffffffffffffffffffffffffffffffff1663ef693bed33846040518363ffffffff1660e01b8152600401808373ffffffffffffffffffffffffffffffffffffffff16815260200182815260200192505050600060405180830381600087803b1580156121ad57600080fd5b505af11580156121c1573d6000803e3d6000fd5b505050505050505050565b6121d884308484612c6d565b8473ffffffffffffffffffffffffffffffffffffffff166367aea3136040518163ffffffff1660e01b815260040160206040518083038186803b15801561221e57600080fd5b505afa158015612232573d6000803e3d6000fd5b505050506040513d602081101561224857600080fd5b810190808051906020019092919050505073ffffffffffffffffffffffffffffffffffffffff166399bec3158673ffffffffffffffffffffffffffffffffffffffff1663918b7cfe866040518263ffffffff1660e01b81526004018082815260200191505060206040518083038186803b1580156122c557600080fd5b505afa1580156122d9573d6000803e3d6000fd5b505050506040513d60208110156122ef57600080fd5b81019080805190602001909291905050508773ffffffffffffffffffffffffffffffffffffffff1663434efcbd876040518263ffffffff1660e01b81526004018082815260200191505060206040518083038186803b15801561235157600080fd5b505afa158015612365573d6000803e3d6000fd5b505050506040513d602081101561237b57600080fd5b810190808051906020019092919050505030306123a061239b8b8a6134fb565b61362e565b60006040518763ffffffff1660e01b8152600401808781526020018673ffffffffffffffffffffffffffffffffffffffff1681526020018573ffffffffffffffffffffffffffffffffffffffff1681526020018473ffffffffffffffffffffffffffffffffffffffff1681526020018381526020018281526020019650505050505050600060405180830381600087803b15801561243d57600080fd5b505af1158015612451573d6000803e3d6000fd5b505050505050505050565b6000808473ffffffffffffffffffffffffffffffffffffffff1663b77b80e3856040518263ffffffff1660e01b8152600401808273ffffffffffffffffffffffffffffffffffffffff16815260200191505060206040518083038186803b1580156124c657600080fd5b505afa1580156124da573d6000803e3d6000fd5b505050506040513d60208110156124f057600080fd5b8101908080519060200190929190505050905060008573ffffffffffffffffffffffffffffffffffffffff1663782c549c866040518263ffffffff1660e01b8152600401808273ffffffffffffffffffffffffffffffffffffffff16815260200191505060206040518083038186803b15801561256c57600080fd5b505afa158015612580573d6000803e3d6000fd5b505050506040513d602081101561259657600080fd5b8101908080519060200190929190505050905060005b828110156126fb57848773ffffffffffffffffffffffffffffffffffffffff1663918b7cfe846040518263ffffffff1660e01b81526004018082815260200191505060206040518083038186803b15801561260657600080fd5b505afa15801561261a573d6000803e3d6000fd5b505050506040513d602081101561263057600080fd5b8101908080519060200190929190505050141561265257819350505050612722565b60008773ffffffffffffffffffffffffffffffffffffffff166380c9419e846040518263ffffffff1660e01b815260040180828152602001915050604080518083038186803b1580156126a457600080fd5b505afa1580156126b8573d6000803e3d6000fd5b505050506040513d60408110156126ce57600080fd5b810190808051906020019092919080519060200190929190505050915050809250508060010190506125ac565b507fffffffffffffffffffffffffffffffffffffffffffffffffffffffffffffffff925050505b9392505050565b60008573ffffffffffffffffffffffffffffffffffffffff1663434efcbd846040518263ffffffff1660e01b81526004018082815260200191505060206040518083038186803b15801561277c57600080fd5b505afa158015612790573d6000803e3d6000fd5b505050506040513d60208110156127a657600080fd5b8101908080519060200190929190505050905060008673ffffffffffffffffffffffffffffffffffffffff166367aea3136040518163ffffffff1660e01b815260040160206040518083038186803b15801561280157600080fd5b505afa158015612815573d6000803e3d6000fd5b505050506040513d602081101561282b57600080fd5b8101908080519060200190929190505050905060008773ffffffffffffffffffffffffffffffffffffffff1663918b7cfe866040518263ffffffff1660e01b81526004018082815260200191505060206040518083038186803b15801561289157600080fd5b505afa1580156128a5573d6000803e3d6000fd5b505050506040513d60208110156128bb57600080fd5b810190808051906020019092919050505090506128e7888660006128e2868c89888c613bf9565b612f62565b6128fb8886306128f688613dbf565b613dde565b60008273ffffffffffffffffffffffffffffffffffffffff1663da49bada30896040518363ffffffff1660e01b8152600401808373ffffffffffffffffffffffffffffffffffffffff1681526020018273ffffffffffffffffffffffffffffffffffffffff1681526020019250505060206040518083038186803b15801561298257600080fd5b505afa158015612996573d6000803e3d6000fd5b505050506040513d60208110156129ac57600080fd5b81019080805190602001909291905050501415612a45578173ffffffffffffffffffffffffffffffffffffffff1663d94d4208876040518263ffffffff1660e01b8152600401808273ffffffffffffffffffffffffffffffffffffffff168152602001915050600060405180830381600087803b158015612a2c57600080fd5b505af1158015612a40573d6000803e3d6000fd5b505050505b8573ffffffffffffffffffffffffffffffffffffffff1663ef693bed33866040518363ffffffff1660e01b8152600401808373ffffffffffffffffffffffffffffffffffffffff16815260200182815260200192505050600060405180830381600087803b158015612ab657600080fd5b505af1158015612aca573d6000803e3d6000fd5b505050505050505050505050565b6000808473ffffffffffffffffffffffffffffffffffffffff166367aea3136040518163ffffffff1660e01b815260040160206040518083038186803b158015612b2157600080fd5b505afa158015612b35573d6000803e3d6000fd5b505050506040513d6020811015612b4b57600080fd5b81019080805190602001909291905050509050600080612b6c87878761164c565b915091506000808473ffffffffffffffffffffffffffffffffffffffff1663d07900bb886040518263ffffffff1660e01b81526004018082815260200191505060a06040518083038186803b158015612bc457600080fd5b505afa158015612bd8573d6000803e3d6000fd5b505050506040513d60a0811015612bee57600080fd5b81019080805190602001909291908051906020019092919080519060200190929190805190602001909291908051906020019092919050505050509250925050600081612c3b8585613ae1565b81612c4257fe5b049050808511612c53576000612c5e565b612c5d8582613b76565b5b96505050505050509392505050565b8015612ea8578373ffffffffffffffffffffffffffffffffffffffff1663d8dfeb456040518163ffffffff1660e01b8152600401602060405180830381600087803b158015612cbb57600080fd5b505af1158015612ccf573d6000803e3d6000fd5b505050506040513d6020811015612ce557600080fd5b810190808051906020019092919050505073ffffffffffffffffffffffffffffffffffffffff166323b872dd3330856040518463ffffffff1660e01b8152600401808473ffffffffffffffffffffffffffffffffffffffff1681526020018373ffffffffffffffffffffffffffffffffffffffff1681526020018281526020019350505050600060405180830381600087803b158015612d8457600080fd5b505af1158015612d98573d6000803e3d6000fd5b505050508373ffffffffffffffffffffffffffffffffffffffff1663d8dfeb456040518163ffffffff1660e01b8152600401602060405180830381600087803b158015612de457600080fd5b505af1158015612df8573d6000803e3d6000fd5b505050506040513d6020811015612e0e57600080fd5b810190808051906020019092919050505073ffffffffffffffffffffffffffffffffffffffff1663095ea7b385846040518363ffffffff1660e01b8152600401808373ffffffffffffffffffffffffffffffffffffffff16815260200182815260200192505050600060405180830381600087803b158015612e8f57600080fd5b505af1158015612ea3573d6000803e3d6000fd5b505050505b8373ffffffffffffffffffffffffffffffffffffffff16633b4da69f84846040518363ffffffff1660e01b8152600401808373ffffffffffffffffffffffffffffffffffffffff16815260200182815260200192505050600060405180830381600087803b158015612f1957600080fd5b505af1158015612f2d573d6000803e3d6000fd5b5050505050505050565b6000612f44898630613e75565b9050612f568989898985898989611d3c565b98975050505050505050565b8373ffffffffffffffffffffffffffffffffffffffff1663c78101f88484846040518463ffffffff1660e01b8152600401808481526020018381526020018281526020019350505050600060405180830381600087803b158015612fc557600080fd5b505af1158015612fd9573d6000803e3d6000fd5b5050505050505050565b60008373ffffffffffffffffffffffffffffffffffffffff166367aea3136040518163ffffffff1660e01b815260040160206040518083038186803b15801561302b57600080fd5b505afa15801561303f573d6000803e3d6000fd5b505050506040513d602081101561305557600080fd5b8101908080519060200190929190505050905060008473ffffffffffffffffffffffffffffffffffffffff1663434efcbd846040518263ffffffff1660e01b81526004018082815260200191505060206040518083038186803b1580156130bb57600080fd5b505afa1580156130cf573d6000803e3d6000fd5b505050506040513d60208110156130e557600080fd5b8101908080519060200190929190505050905060008573ffffffffffffffffffffffffffffffffffffffff1663918b7cfe856040518263ffffffff1660e01b81526004018082815260200191505060206040518083038186803b15801561314b57600080fd5b505afa15801561315f573d6000803e3d6000fd5b505050506040513d602081101561317557600080fd5b8101908080519060200190929190505050905060008373ffffffffffffffffffffffffffffffffffffffff16633d42250483856040518363ffffffff1660e01b8152600401808381526020018273ffffffffffffffffffffffffffffffffffffffff16815260200192505050604080518083038186803b1580156131f857600080fd5b505afa15801561320c573d6000803e3d6000fd5b505050506040513d604081101561322257600080fd5b81019080805190602001909291908051906020019092919050505091505060008773ffffffffffffffffffffffffffffffffffffffff16638161b120876040518263ffffffff1660e01b81526004018082815260200191505060206040518083038186803b15801561329357600080fd5b505afa1580156132a7573d6000803e3d6000fd5b505050506040513d60208110156132bd57600080fd5b810190808051906020019092919050505090503073ffffffffffffffffffffffffffffffffffffffff168173ffffffffffffffffffffffffffffffffffffffff1614806133d1575060018873ffffffffffffffffffffffffffffffffffffffff16635aebb4608389306040518463ffffffff1660e01b8152600401808473ffffffffffffffffffffffffffffffffffffffff1681526020018381526020018273ffffffffffffffffffffffffffffffffffffffff168152602001935050505060206040518083038186803b15801561339457600080fd5b505afa1580156133a8573d6000803e3d6000fd5b505050506040513d60208110156133be57600080fd5b8101908080519060200190929190505050145b15613401576133ec87856133e788888989613862565b610e81565b6133fc8887600085600003612f62565b6134f1565b613417873061341288308989613862565b610e81565b8473ffffffffffffffffffffffffffffffffffffffff166399bec315848630306000886000036040518763ffffffff1660e01b8152600401808781526020018673ffffffffffffffffffffffffffffffffffffffff1681526020018573ffffffffffffffffffffffffffffffffffffffff1681526020018473ffffffffffffffffffffffffffffffffffffffff1681526020018381526020018281526020019650505050505050600060405180830381600087803b1580156134d857600080fd5b505af11580156134ec573d6000803e3d6000fd5b505050505b5050505050505050565b600061358f828473ffffffffffffffffffffffffffffffffffffffff1663313ce5676040518163ffffffff1660e01b8152600401602060405180830381600087803b15801561354957600080fd5b505af115801561355d573d6000803e3d6000fd5b505050506040513d602081101561357357600080fd5b8101908080519060200190929190505050601203600a0a613ae1565b905092915050565b8373ffffffffffffffffffffffffffffffffffffffff1663871581a28484846040518463ffffffff1660e01b8152600401808481526020018373ffffffffffffffffffffffffffffffffffffffff1681526020018281526020019350505050600060405180830381600087803b15801561361057600080fd5b505af1158015613624573d6000803e3d6000fd5b5050505050505050565b600081905060008112156136aa576040517f08c379a000000000000000000000000000000000000000000000000000000000815260040180806020018281038252600c8152602001807f696e742d6f766572666c6f77000000000000000000000000000000000000000081525060200191505060405180910390fd5b919050565b6000808573ffffffffffffffffffffffffffffffffffffffff1663d07900bb846040518263ffffffff1660e01b81526004018082815260200191505060a06040518083038186803b15801561370357600080fd5b505afa158015613717573d6000803e3d6000fd5b505050506040513d60a081101561372d57600080fd5b81019080805190602001909291908051906020019092919080519060200190929190805190602001909291908051906020019092919050505050505091505060008673ffffffffffffffffffffffffffffffffffffffff16633d42250485876040518363ffffffff1660e01b8152600401808381526020018273ffffffffffffffffffffffffffffffffffffffff16815260200192505050604080518083038186803b1580156137dc57600080fd5b505afa1580156137f0573d6000803e3d6000fd5b505050506040513d604081101561380657600080fd5b81019080805190602001909291908051906020019092919050505091505061383682878161383057fe5b0461362e565b925080831115613851576138498161362e565b600003613856565b826000035b92505050949350505050565b6000808573ffffffffffffffffffffffffffffffffffffffff1663d07900bb846040518263ffffffff1660e01b81526004018082815260200191505060a06040518083038186803b1580156138b657600080fd5b505afa1580156138ca573d6000803e3d6000fd5b505050506040513d60a08110156138e057600080fd5b81019080805190602001909291908051906020019092919080519060200190929190805190602001909291908051906020019092919050505050505091505060008673ffffffffffffffffffffffffffffffffffffffff16633d42250485876040518363ffffffff1660e01b8152600401808381526020018273ffffffffffffffffffffffffffffffffffffffff16815260200192505050604080518083038186803b15801561398f57600080fd5b505afa1580156139a3573d6000803e3d6000fd5b505050506040513d60408110156139b957600080fd5b81019080805190602001909291908051906020019092919050505091505060008773ffffffffffffffffffffffffffffffffffffffff1663fabde80c886040518263ffffffff1660e01b8152600401808273ffffffffffffffffffffffffffffffffffffffff16815260200191505060206040518083038186803b158015613a4057600080fd5b505afa158015613a54573d6000803e3d6000fd5b505050506040513d6020811015613a6a57600080fd5b810190808051906020019092919050505090506000613a92613a8c8486613ae1565b83613b76565b90506b033b2e3c9fd0803ce80000008181613aa957fe5b04945080613ac3866b033b2e3c9fd0803ce8000000613ae1565b10613ace5784613ad3565b600185015b945050505050949350505050565b600080821480613afe5750828283850292508281613afb57fe5b04145b613b70576040517f08c379a000000000000000000000000000000000000000000000000000000000815260040180806020018281038252600c8152602001807f6d756c2d6f766572666c6f77000000000000000000000000000000000000000081525060200191505060405180910390fd5b92915050565b6000828284039150811115613bf3576040517f08c379a000000000000000000000000000000000000000000000000000000000815260040180806020018281038252600c8152602001807f7375622d6f766572666c6f77000000000000000000000000000000000000000081525060200191505060405180910390fd5b92915050565b6000808573ffffffffffffffffffffffffffffffffffffffff16636c50dbba856040518263ffffffff1660e01b815260040180828152602001915050602060405180830381600087803b158015613c4f57600080fd5b505af1158015613c63573d6000803e3d6000fd5b505050506040513d6020811015613c7957600080fd5b8101908080519060200190929190505050905060008773ffffffffffffffffffffffffffffffffffffffff1663fabde80c876040518263ffffffff1660e01b8152600401808273ffffffffffffffffffffffffffffffffffffffff16815260200191505060206040518083038186803b158015613cf557600080fd5b505afa158015613d09573d6000803e3d6000fd5b505050506040513d6020811015613d1f57600080fd5b81019080805190602001909291905050509050613d48846b033b2e3c9fd0803ce8000000613ae1565b811015613db457613d7f82613d72613d6c876b033b2e3c9fd0803ce8000000613ae1565b84613b76565b81613d7957fe5b0461362e565b9250613d97846b033b2e3c9fd0803ce8000000613ae1565b613da18484613ae1565b10613dac5782613db1565b600183015b92505b505095945050505050565b6000613dd7826b033b2e3c9fd0803ce8000000613ae1565b9050919050565b8373ffffffffffffffffffffffffffffffffffffffff1663660e16078484846040518463ffffffff1660e01b8152600401808481526020018373ffffffffffffffffffffffffffffffffffffffff1681526020018281526020019350505050600060405180830381600087803b158015613e5757600080fd5b505af1158015613e6b573d6000803e3d6000fd5b5050505050505050565b60008373ffffffffffffffffffffffffffffffffffffffff1663730abfa284846040518363ffffffff1660e01b8152600401808381526020018273ffffffffffffffffffffffffffffffffffffffff16815260200192505050602060405180830381600087803b158015613ee857600080fd5b505af1158015613efc573d6000803e3d6000fd5b505050506040513d6020811015613f1257600080fd5b81019080805190602001909291905050509050939250505056fea2646970667358221220dbc5955e2218d595b3d765f158a95807daa8bfef6e52fd530c527775dc68491464736f6c634300060c0033",
  "devdoc": {
    "kind": "dev",
    "methods": {},
    "version": 1
  },
  "userdoc": {
    "kind": "user",
    "methods": {},
    "version": 1
  },
  "storageLayout": {
    "storage": [],
    "types": null
  }
}