{
  "address": "0x7f7Afbe4259ea37A48c49e793e3e9ddcfCB619DA",
  "abi": [
    {
      "inputs": [
        {
          "internalType": "bytes32",
          "name": "collateralType",
          "type": "bytes32"
        },
        {
          "internalType": "address",
          "name": "apt",
          "type": "address"
        },
        {
          "internalType": "address",
          "name": "cdp",
          "type": "address"
        },
        {
          "internalType": "uint256",
          "name": "wad",
          "type": "uint256"
        }
      ],
      "name": "coinJoin_join",
      "outputs": [],
      "stateMutability": "nonpayable",
      "type": "function"
    },
    {
      "inputs": [
        {
          "internalType": "address",
          "name": "apt",
          "type": "address"
        },
        {
          "internalType": "address",
          "name": "safe",
          "type": "address"
        },
        {
          "internalType": "uint256",
          "name": "amt",
          "type": "uint256"
        }
      ],
      "name": "collateralJoin_join",
      "outputs": [],
      "stateMutability": "nonpayable",
      "type": "function"
    },
    {
      "inputs": [
        {
          "internalType": "address",
          "name": "manager",
          "type": "address"
        },
        {
          "internalType": "address",
          "name": "collateralJoin",
          "type": "address"
        },
        {
          "internalType": "uint256",
          "name": "cdp",
          "type": "uint256"
        },
        {
          "internalType": "uint256",
          "name": "amt",
          "type": "uint256"
        }
      ],
      "name": "exitTokenCollateral",
      "outputs": [],
      "stateMutability": "nonpayable",
      "type": "function"
    },
    {
      "inputs": [
        {
          "internalType": "address",
          "name": "manager",
          "type": "address"
        },
        {
          "internalType": "address",
          "name": "collateralJoin",
          "type": "address"
        },
        {
          "internalType": "uint256",
          "name": "cdp",
          "type": "uint256"
        },
        {
          "internalType": "uint256",
          "name": "amt",
          "type": "uint256"
        }
      ],
      "name": "freeTokenCollateral",
      "outputs": [],
      "stateMutability": "nonpayable",
      "type": "function"
    },
    {
      "inputs": [
        {
          "internalType": "address",
          "name": "manager",
          "type": "address"
        },
        {
          "internalType": "address",
          "name": "taxCollector",
          "type": "address"
        },
        {
          "internalType": "address",
          "name": "coinJoin",
          "type": "address"
        },
        {
          "internalType": "uint256",
          "name": "cdp",
          "type": "uint256"
        },
        {
          "internalType": "uint256",
          "name": "wad",
          "type": "uint256"
        }
      ],
      "name": "generateDebt",
      "outputs": [],
      "stateMutability": "nonpayable",
      "type": "function"
    },
    {
      "inputs": [
        {
          "internalType": "address",
          "name": "manager",
          "type": "address"
        },
        {
          "internalType": "address",
          "name": "user",
          "type": "address"
        },
        {
          "internalType": "bytes32",
          "name": "collateralType",
          "type": "bytes32"
        }
      ],
      "name": "getAvailableToBorrow",
      "outputs": [
        {
          "internalType": "uint256",
          "name": "",
          "type": "uint256"
        }
      ],
      "stateMutability": "view",
      "type": "function"
    },
    {
      "inputs": [
        {
          "internalType": "address",
          "name": "manager",
          "type": "address"
        },
        {
          "internalType": "address",
          "name": "user",
          "type": "address"
        },
        {
          "internalType": "bytes32",
          "name": "collateralType",
          "type": "bytes32"
        }
      ],
      "name": "getAvailableToWithdraw",
      "outputs": [
        {
          "internalType": "uint256",
          "name": "",
          "type": "uint256"
        }
      ],
      "stateMutability": "view",
      "type": "function"
    },
    {
      "inputs": [
        {
          "internalType": "address",
          "name": "manager",
          "type": "address"
        },
        {
          "internalType": "address",
          "name": "user",
          "type": "address"
        },
        {
          "internalType": "bytes32",
          "name": "collateralType",
          "type": "bytes32"
        }
      ],
      "name": "getCdpId",
      "outputs": [
        {
          "internalType": "uint256",
          "name": "",
          "type": "uint256"
        }
      ],
      "stateMutability": "view",
      "type": "function"
    },
    {
      "inputs": [
        {
          "internalType": "address",
          "name": "manager",
          "type": "address"
        },
        {
          "internalType": "address",
          "name": "user",
          "type": "address"
        },
        {
          "internalType": "bytes32",
          "name": "collateralType",
          "type": "bytes32"
        }
      ],
      "name": "getCdpInfo",
      "outputs": [
        {
          "internalType": "uint256",
          "name": "",
          "type": "uint256"
        },
        {
          "internalType": "uint256",
          "name": "",
          "type": "uint256"
        }
      ],
      "stateMutability": "view",
      "type": "function"
    },
    {
      "inputs": [
        {
          "internalType": "address",
          "name": "manager",
          "type": "address"
        },
        {
          "internalType": "address",
          "name": "collateralJoin",
          "type": "address"
        },
        {
          "internalType": "uint256",
          "name": "cdp",
          "type": "uint256"
        },
        {
          "internalType": "uint256",
          "name": "amt",
          "type": "uint256"
        }
      ],
      "name": "lockTokenCollateral",
      "outputs": [],
      "stateMutability": "nonpayable",
      "type": "function"
    },
    {
      "inputs": [
        {
          "internalType": "address",
          "name": "manager",
          "type": "address"
        },
        {
          "internalType": "address",
          "name": "taxCollector",
          "type": "address"
        },
        {
          "internalType": "address",
          "name": "collateralJoin",
          "type": "address"
        },
        {
          "internalType": "address",
          "name": "coinJoin",
          "type": "address"
        },
        {
          "internalType": "uint256",
          "name": "cdp",
          "type": "uint256"
        },
        {
          "internalType": "uint256",
          "name": "collateralAmount",
          "type": "uint256"
        },
        {
          "internalType": "uint256",
          "name": "deltaWad",
          "type": "uint256"
        }
      ],
      "name": "lockTokenCollateralAndGenerateDebt",
      "outputs": [],
      "stateMutability": "nonpayable",
      "type": "function"
    },
    {
      "inputs": [
        {
          "internalType": "address",
          "name": "manager",
          "type": "address"
        },
        {
          "internalType": "uint256",
          "name": "cdp",
          "type": "uint256"
        },
        {
          "internalType": "int256",
          "name": "deltaCollateral",
          "type": "int256"
        },
        {
          "internalType": "int256",
          "name": "deltaDebt",
          "type": "int256"
        }
      ],
      "name": "modifySAFECollateralization",
      "outputs": [],
      "stateMutability": "nonpayable",
      "type": "function"
    },
    {
      "inputs": [
        {
          "internalType": "address",
          "name": "manager",
          "type": "address"
        },
        {
          "internalType": "address",
          "name": "taxCollector",
          "type": "address"
        },
        {
          "internalType": "address",
          "name": "collateralJoin",
          "type": "address"
        },
        {
          "internalType": "address",
          "name": "coinJoin",
          "type": "address"
        },
        {
          "internalType": "bytes32",
          "name": "collateralType",
          "type": "bytes32"
        },
        {
          "internalType": "uint256",
          "name": "amtC",
          "type": "uint256"
        },
        {
          "internalType": "uint256",
          "name": "wadD",
          "type": "uint256"
        }
      ],
      "name": "openLockTokenCollateralAndGenerateDebt",
      "outputs": [
        {
          "internalType": "uint256",
          "name": "cdp",
          "type": "uint256"
        }
      ],
      "stateMutability": "nonpayable",
      "type": "function"
    },
    {
      "inputs": [
        {
          "internalType": "address",
          "name": "manager",
          "type": "address"
        },
        {
          "internalType": "address",
          "name": "coinJoin",
          "type": "address"
        },
        {
          "internalType": "uint256",
          "name": "cdp",
          "type": "uint256"
        }
      ],
      "name": "repayAllDebt",
      "outputs": [],
      "stateMutability": "nonpayable",
      "type": "function"
    },
    {
      "inputs": [
        {
          "internalType": "address",
          "name": "manager",
          "type": "address"
        },
        {
          "internalType": "address",
          "name": "collateralJoin",
          "type": "address"
        },
        {
          "internalType": "address",
          "name": "coinJoin",
          "type": "address"
        },
        {
          "internalType": "uint256",
          "name": "cdp",
          "type": "uint256"
        },
        {
          "internalType": "uint256",
          "name": "amtC",
          "type": "uint256"
        }
      ],
      "name": "repayAllDebtAndFreeTokenCollateral",
      "outputs": [],
      "stateMutability": "nonpayable",
      "type": "function"
    },
    {
      "inputs": [
        {
          "internalType": "address",
          "name": "manager",
          "type": "address"
        },
        {
          "internalType": "address",
          "name": "coinJoin",
          "type": "address"
        },
        {
          "internalType": "uint256",
          "name": "cdp",
          "type": "uint256"
        },
        {
          "internalType": "uint256",
          "name": "wad",
          "type": "uint256"
        }
      ],
      "name": "repayDebt",
      "outputs": [],
      "stateMutability": "nonpayable",
      "type": "function"
    },
    {
      "inputs": [
        {
          "internalType": "address",
          "name": "manager",
          "type": "address"
        },
        {
          "internalType": "address",
          "name": "collateralJoin",
          "type": "address"
        },
        {
          "internalType": "address",
          "name": "coinJoin",
          "type": "address"
        },
        {
          "internalType": "uint256",
          "name": "cdp",
          "type": "uint256"
        },
        {
          "internalType": "uint256",
          "name": "amtC",
          "type": "uint256"
        },
        {
          "internalType": "uint256",
          "name": "wadD",
          "type": "uint256"
        }
      ],
      "name": "repayDebtAndFreeTokenCollateral",
      "outputs": [],
      "stateMutability": "nonpayable",
      "type": "function"
    }
  ],
  "numDeployments": 4,
  "solcInputHash": "95735ceba90b0df4fe4113c1880b1f57",
  "bytecode": "0x608060405234801561001057600080fd5b50613f31806100206000396000f3fe608060405234801561001057600080fd5b506004361061010b5760003560e01c80637a2a1031116100a2578063b02f9e3d11610071578063b02f9e3d146107bd578063b95a275514610855578063bb44afd3146108cd578063f19d3b411461094f578063f7f898b0146109b15761010b565b80637a2a10311461052b5780637a4d9a47146105ad5780637f5b1a1b146106835780638f86e015146107455761010b565b80632af7ec8b116100de5780632af7ec8b146103105780632dc469a314610399578063434fa722146104315780636093c975146104b35761010b565b806303f2cd051461011057806313cc55e414610188578063182c1fdb1461022a5780632581700814610298575b600080fd5b6101866004803603608081101561012657600080fd5b81019080803573ffffffffffffffffffffffffffffffffffffffff169060200190929190803573ffffffffffffffffffffffffffffffffffffffff1690602001909291908035906020019092919080359060200190929190505050610a1f565b005b610228600480360360c081101561019e57600080fd5b81019080803573ffffffffffffffffffffffffffffffffffffffff169060200190929190803573ffffffffffffffffffffffffffffffffffffffff169060200190929190803573ffffffffffffffffffffffffffffffffffffffff169060200190929190803590602001909291908035906020019092919080359060200190929190505050610ac3565b005b6102966004803603606081101561024057600080fd5b81019080803573ffffffffffffffffffffffffffffffffffffffff169060200190929190803573ffffffffffffffffffffffffffffffffffffffff16906020019092919080359060200190929190505050610de6565b005b61030e600480360360808110156102ae57600080fd5b81019080803573ffffffffffffffffffffffffffffffffffffffff169060200190929190803573ffffffffffffffffffffffffffffffffffffffff16906020019092919080359060200190929190803590602001909291905050506110a8565b005b61037c6004803603606081101561032657600080fd5b81019080803573ffffffffffffffffffffffffffffffffffffffff169060200190929190803573ffffffffffffffffffffffffffffffffffffffff169060200190929190803590602001909291905050506115b3565b604051808381526020018281526020019250505060405180910390f35b61042f600480360360a08110156103af57600080fd5b81019080803573ffffffffffffffffffffffffffffffffffffffff169060200190929190803573ffffffffffffffffffffffffffffffffffffffff169060200190929190803573ffffffffffffffffffffffffffffffffffffffff16906020019092919080359060200190929190803590602001909291905050506117d2565b005b61049d6004803603606081101561044757600080fd5b81019080803573ffffffffffffffffffffffffffffffffffffffff169060200190929190803573ffffffffffffffffffffffffffffffffffffffff16906020019092919080359060200190929190505050611b0f565b6040518082815260200191505060405180910390f35b610529600480360360808110156104c957600080fd5b81019080803573ffffffffffffffffffffffffffffffffffffffff169060200190929190803573ffffffffffffffffffffffffffffffffffffffff1690602001909291908035906020019092919080359060200190929190505050611ca4565b005b6105976004803603606081101561054157600080fd5b81019080803573ffffffffffffffffffffffffffffffffffffffff169060200190929190803573ffffffffffffffffffffffffffffffffffffffff16906020019092919080359060200190929190505050611d66565b6040518082815260200191505060405180910390f35b61066d600480360360e08110156105c357600080fd5b81019080803573ffffffffffffffffffffffffffffffffffffffff169060200190929190803573ffffffffffffffffffffffffffffffffffffffff169060200190929190803573ffffffffffffffffffffffffffffffffffffffff169060200190929190803573ffffffffffffffffffffffffffffffffffffffff169060200190929190803590602001909291908035906020019092919080359060200190929190505050612033565b6040518082815260200191505060405180910390f35b610743600480360360e081101561069957600080fd5b81019080803573ffffffffffffffffffffffffffffffffffffffff169060200190929190803573ffffffffffffffffffffffffffffffffffffffff169060200190929190803573ffffffffffffffffffffffffffffffffffffffff169060200190929190803573ffffffffffffffffffffffffffffffffffffffff16906020019092919080359060200190929190803590602001909291908035906020019092919050505061205c565b005b6107bb6004803603608081101561075b57600080fd5b81019080803573ffffffffffffffffffffffffffffffffffffffff169060200190929190803573ffffffffffffffffffffffffffffffffffffffff169060200190929190803590602001909291908035906020019092919050505061244e565b005b610853600480360360a08110156107d357600080fd5b81019080803573ffffffffffffffffffffffffffffffffffffffff169060200190929190803573ffffffffffffffffffffffffffffffffffffffff169060200190929190803573ffffffffffffffffffffffffffffffffffffffff16906020019092919080359060200190929190803590602001909291905050506126dc565b005b6108cb6004803603608081101561086b57600080fd5b8101908080359060200190929190803573ffffffffffffffffffffffffffffffffffffffff169060200190929190803573ffffffffffffffffffffffffffffffffffffffff16906020019092919080359060200190929190505050612ab1565b005b610939600480360360608110156108e357600080fd5b81019080803573ffffffffffffffffffffffffffffffffffffffff169060200190929190803573ffffffffffffffffffffffffffffffffffffffff16906020019092919080359060200190929190505050612d9a565b6040518082815260200191505060405180910390f35b6109af6004803603608081101561096557600080fd5b81019080803573ffffffffffffffffffffffffffffffffffffffff169060200190929190803590602001909291908035906020019092919080359060200190929190505050612f2f565b005b610a1d600480360360608110156109c757600080fd5b81019080803573ffffffffffffffffffffffffffffffffffffffff169060200190929190803573ffffffffffffffffffffffffffffffffffffffff16906020019092919080359060200190929190505050612fb0565b005b610a34848330610a2f87866134ca565b613566565b8273ffffffffffffffffffffffffffffffffffffffff1663ef693bed33836040518363ffffffff1660e01b8152600401808373ffffffffffffffffffffffffffffffffffffffff16815260200182815260200192505050600060405180830381600087803b158015610aa557600080fd5b505af1158015610ab9573d6000803e3d6000fd5b5050505050505050565b60008673ffffffffffffffffffffffffffffffffffffffff1663434efcbd856040518263ffffffff1660e01b81526004018082815260200191505060206040518083038186803b158015610b1657600080fd5b505afa158015610b2a573d6000803e3d6000fd5b505050506040513d6020811015610b4057600080fd5b8101908080519060200190929190505050905060008773ffffffffffffffffffffffffffffffffffffffff1663918b7cfe866040518263ffffffff1660e01b81526004018082815260200191505060206040518083038186803b158015610ba657600080fd5b505afa158015610bba573d6000803e3d6000fd5b505050506040513d6020811015610bd057600080fd5b8101908080519060200190929190505050905060008873ffffffffffffffffffffffffffffffffffffffff166367aea3136040518163ffffffff1660e01b815260040160206040518083038186803b158015610c2b57600080fd5b505afa158015610c3f573d6000803e3d6000fd5b505050506040513d6020811015610c5557600080fd5b81019080805190602001909291905050509050610c7482888587612ab1565b6000610c8089876134ca565b9050610d458a88610c90846135fd565b600003610d40868773ffffffffffffffffffffffffffffffffffffffff1663fabde80c8b6040518263ffffffff1660e01b8152600401808273ffffffffffffffffffffffffffffffffffffffff16815260200191505060206040518083038186803b158015610cfe57600080fd5b505afa158015610d12573d6000803e3d6000fd5b505050506040513d6020811015610d2857600080fd5b81019080805190602001909291905050508a8a61367e565b612f2f565b610d518a883084613566565b8873ffffffffffffffffffffffffffffffffffffffff1663ef693bed33886040518363ffffffff1660e01b8152600401808373ffffffffffffffffffffffffffffffffffffffff16815260200182815260200192505050600060405180830381600087803b158015610dc257600080fd5b505af1158015610dd6573d6000803e3d6000fd5b5050505050505050505050505050565b8273ffffffffffffffffffffffffffffffffffffffff1663d8dfeb456040518163ffffffff1660e01b8152600401602060405180830381600087803b158015610e2e57600080fd5b505af1158015610e42573d6000803e3d6000fd5b505050506040513d6020811015610e5857600080fd5b810190808051906020019092919050505073ffffffffffffffffffffffffffffffffffffffff166323b872dd3330846040518463ffffffff1660e01b8152600401808473ffffffffffffffffffffffffffffffffffffffff1681526020018373ffffffffffffffffffffffffffffffffffffffff1681526020018281526020019350505050600060405180830381600087803b158015610ef757600080fd5b505af1158015610f0b573d6000803e3d6000fd5b505050508273ffffffffffffffffffffffffffffffffffffffff1663d8dfeb456040518163ffffffff1660e01b8152600401602060405180830381600087803b158015610f5757600080fd5b505af1158015610f6b573d6000803e3d6000fd5b505050506040513d6020811015610f8157600080fd5b810190808051906020019092919050505073ffffffffffffffffffffffffffffffffffffffff1663095ea7b384836040518363ffffffff1660e01b8152600401808373ffffffffffffffffffffffffffffffffffffffff16815260200182815260200192505050600060405180830381600087803b15801561100257600080fd5b505af1158015611016573d6000803e3d6000fd5b505050508273ffffffffffffffffffffffffffffffffffffffff16633b4da69f83836040518363ffffffff1660e01b8152600401808373ffffffffffffffffffffffffffffffffffffffff16815260200182815260200192505050600060405180830381600087803b15801561108b57600080fd5b505af115801561109f573d6000803e3d6000fd5b50505050505050565b60008473ffffffffffffffffffffffffffffffffffffffff166367aea3136040518163ffffffff1660e01b815260040160206040518083038186803b1580156110f057600080fd5b505afa158015611104573d6000803e3d6000fd5b505050506040513d602081101561111a57600080fd5b8101908080519060200190929190505050905060008573ffffffffffffffffffffffffffffffffffffffff1663434efcbd856040518263ffffffff1660e01b81526004018082815260200191505060206040518083038186803b15801561118057600080fd5b505afa158015611194573d6000803e3d6000fd5b505050506040513d60208110156111aa57600080fd5b8101908080519060200190929190505050905060008673ffffffffffffffffffffffffffffffffffffffff1663918b7cfe866040518263ffffffff1660e01b81526004018082815260200191505060206040518083038186803b15801561121057600080fd5b505afa158015611224573d6000803e3d6000fd5b505050506040513d602081101561123a57600080fd5b8101908080519060200190929190505050905060008773ffffffffffffffffffffffffffffffffffffffff16638161b120876040518263ffffffff1660e01b81526004018082815260200191505060206040518083038186803b1580156112a057600080fd5b505afa1580156112b4573d6000803e3d6000fd5b505050506040513d60208110156112ca57600080fd5b810190808051906020019092919050505090503073ffffffffffffffffffffffffffffffffffffffff168173ffffffffffffffffffffffffffffffffffffffff1614806113de575060018873ffffffffffffffffffffffffffffffffffffffff16635aebb4608389306040518463ffffffff1660e01b8152600401808473ffffffffffffffffffffffffffffffffffffffff1681526020018381526020018273ffffffffffffffffffffffffffffffffffffffff168152602001935050505060206040518083038186803b1580156113a157600080fd5b505afa1580156113b5573d6000803e3d6000fd5b505050506040513d60208110156113cb57600080fd5b8101908080519060200190929190505050145b156114ad576113ef82888588612ab1565b6114a8888760006114a3888973ffffffffffffffffffffffffffffffffffffffff1663fabde80c8a6040518263ffffffff1660e01b8152600401808273ffffffffffffffffffffffffffffffffffffffff16815260200191505060206040518083038186803b15801561146157600080fd5b505afa158015611475573d6000803e3d6000fd5b505050506040513d602081101561148b57600080fd5b8101908080519060200190929190505050898961367e565b612f2f565b6115a9565b6114b982883088612ab1565b8373ffffffffffffffffffffffffffffffffffffffff166399bec3158385303060006114f58b6b033b2e3c9fd0803ce80000008e028c8c61367e565b6040518763ffffffff1660e01b8152600401808781526020018673ffffffffffffffffffffffffffffffffffffffff1681526020018573ffffffffffffffffffffffffffffffffffffffff1681526020018473ffffffffffffffffffffffffffffffffffffffff1681526020018381526020018281526020019650505050505050600060405180830381600087803b15801561159057600080fd5b505af11580156115a4573d6000803e3d6000fd5b505050505b5050505050505050565b60008060006115c3868686611d66565b90507fffffffffffffffffffffffffffffffffffffffffffffffffffffffffffffffff8114156115fa5760008092509250506117ca565b60008673ffffffffffffffffffffffffffffffffffffffff166367aea3136040518163ffffffff1660e01b815260040160206040518083038186803b15801561164257600080fd5b505afa158015611656573d6000803e3d6000fd5b505050506040513d602081101561166c57600080fd5b8101908080519060200190929190505050905060008773ffffffffffffffffffffffffffffffffffffffff1663434efcbd846040518263ffffffff1660e01b81526004018082815260200191505060206040518083038186803b1580156116d257600080fd5b505afa1580156116e6573d6000803e3d6000fd5b505050506040513d60208110156116fc57600080fd5b810190808051906020019092919050505090508173ffffffffffffffffffffffffffffffffffffffff16633d42250487836040518363ffffffff1660e01b8152600401808381526020018273ffffffffffffffffffffffffffffffffffffffff16815260200192505050604080518083038186803b15801561177d57600080fd5b505afa158015611791573d6000803e3d6000fd5b505050506040513d60408110156117a757600080fd5b810190808051906020019092919080519060200190929190505050945094505050505b935093915050565b60008573ffffffffffffffffffffffffffffffffffffffff166367aea3136040518163ffffffff1660e01b815260040160206040518083038186803b15801561181a57600080fd5b505afa15801561182e573d6000803e3d6000fd5b505050506040513d602081101561184457600080fd5b8101908080519060200190929190505050905060008673ffffffffffffffffffffffffffffffffffffffff1663434efcbd856040518263ffffffff1660e01b81526004018082815260200191505060206040518083038186803b1580156118aa57600080fd5b505afa1580156118be573d6000803e3d6000fd5b505050506040513d60208110156118d457600080fd5b8101908080519060200190929190505050905060008773ffffffffffffffffffffffffffffffffffffffff1663918b7cfe866040518263ffffffff1660e01b81526004018082815260200191505060206040518083038186803b15801561193a57600080fd5b505afa15801561194e573d6000803e3d6000fd5b505050506040513d602081101561196457600080fd5b8101908080519060200190929190505050905060008373ffffffffffffffffffffffffffffffffffffffff16633d42250483856040518363ffffffff1660e01b8152600401808381526020018273ffffffffffffffffffffffffffffffffffffffff16815260200192505050604080518083038186803b1580156119e757600080fd5b505afa1580156119fb573d6000803e3d6000fd5b505050506040513d6040811015611a1157600080fd5b810190808051906020019092919080519060200190929190505050915050611a46828885611a4188888989613831565b612ab1565b6000611a5289876134ca565b9050611a6e8a88611a62846135fd565b60000385600003612f2f565b611a7a8a883084613566565b8873ffffffffffffffffffffffffffffffffffffffff1663ef693bed33886040518363ffffffff1660e01b8152600401808373ffffffffffffffffffffffffffffffffffffffff16815260200182815260200192505050600060405180830381600087803b158015611aeb57600080fd5b505af1158015611aff573d6000803e3d6000fd5b5050505050505050505050505050565b6000808473ffffffffffffffffffffffffffffffffffffffff166367aea3136040518163ffffffff1660e01b815260040160206040518083038186803b158015611b5857600080fd5b505afa158015611b6c573d6000803e3d6000fd5b505050506040513d6020811015611b8257600080fd5b81019080805190602001909291905050509050600080611ba38787876115b3565b915091506000808473ffffffffffffffffffffffffffffffffffffffff1663d07900bb886040518263ffffffff1660e01b81526004018082815260200191505060a06040518083038186803b158015611bfb57600080fd5b505afa158015611c0f573d6000803e3d6000fd5b505050506040513d60a0811015611c2557600080fd5b81019080805190602001909291908051906020019092919080519060200190929190805190602001909291908051906020019092919050505050509250925050600082611c728684613ab0565b81611c7957fe5b049050838111611c8a576000611c95565b611c948185613b45565b5b96505050505050509392505050565b6000611cb084836134ca565b9050611cca8584611cc0846135fd565b6000036000612f2f565b611cd685843084613566565b8373ffffffffffffffffffffffffffffffffffffffff1663ef693bed33846040518363ffffffff1660e01b8152600401808373ffffffffffffffffffffffffffffffffffffffff16815260200182815260200192505050600060405180830381600087803b158015611d4757600080fd5b505af1158015611d5b573d6000803e3d6000fd5b505050505050505050565b6000808473ffffffffffffffffffffffffffffffffffffffff1663b77b80e3856040518263ffffffff1660e01b8152600401808273ffffffffffffffffffffffffffffffffffffffff16815260200191505060206040518083038186803b158015611dd057600080fd5b505afa158015611de4573d6000803e3d6000fd5b505050506040513d6020811015611dfa57600080fd5b8101908080519060200190929190505050905060008573ffffffffffffffffffffffffffffffffffffffff1663782c549c866040518263ffffffff1660e01b8152600401808273ffffffffffffffffffffffffffffffffffffffff16815260200191505060206040518083038186803b158015611e7657600080fd5b505afa158015611e8a573d6000803e3d6000fd5b505050506040513d6020811015611ea057600080fd5b8101908080519060200190929190505050905060005b8281101561200557848773ffffffffffffffffffffffffffffffffffffffff1663918b7cfe846040518263ffffffff1660e01b81526004018082815260200191505060206040518083038186803b158015611f1057600080fd5b505afa158015611f24573d6000803e3d6000fd5b505050506040513d6020811015611f3a57600080fd5b81019080805190602001909291905050501415611f5c5781935050505061202c565b60008773ffffffffffffffffffffffffffffffffffffffff166380c9419e846040518263ffffffff1660e01b815260040180828152602001915050604080518083038186803b158015611fae57600080fd5b505afa158015611fc2573d6000803e3d6000fd5b505050506040513d6040811015611fd857600080fd5b81019080805190602001909291908051906020019092919050505091505080925050806001019050611eb6565b507fffffffffffffffffffffffffffffffffffffffffffffffffffffffffffffffff925050505b9392505050565b6000612040888530613bc8565b90506120518888888885888861205c565b979650505050505050565b60008773ffffffffffffffffffffffffffffffffffffffff1663434efcbd856040518263ffffffff1660e01b81526004018082815260200191505060206040518083038186803b1580156120af57600080fd5b505afa1580156120c3573d6000803e3d6000fd5b505050506040513d60208110156120d957600080fd5b8101908080519060200190929190505050905060008873ffffffffffffffffffffffffffffffffffffffff166367aea3136040518163ffffffff1660e01b815260040160206040518083038186803b15801561213457600080fd5b505afa158015612148573d6000803e3d6000fd5b505050506040513d602081101561215e57600080fd5b8101908080519060200190929190505050905060008973ffffffffffffffffffffffffffffffffffffffff1663918b7cfe876040518263ffffffff1660e01b81526004018082815260200191505060206040518083038186803b1580156121c457600080fd5b505afa1580156121d8573d6000803e3d6000fd5b505050506040513d60208110156121ee57600080fd5b8101908080519060200190929190505050905061220c888487610de6565b6122358a8761222361221e8c8a6134ca565b6135fd565b612230868e89888c613c7f565b612f2f565b6122498a873061224488613e45565b613e64565b60008273ffffffffffffffffffffffffffffffffffffffff1663da49bada308a6040518363ffffffff1660e01b8152600401808373ffffffffffffffffffffffffffffffffffffffff1681526020018273ffffffffffffffffffffffffffffffffffffffff1681526020019250505060206040518083038186803b1580156122d057600080fd5b505afa1580156122e4573d6000803e3d6000fd5b505050506040513d60208110156122fa57600080fd5b81019080805190602001909291905050501415612393578173ffffffffffffffffffffffffffffffffffffffff1663d94d4208886040518263ffffffff1660e01b8152600401808273ffffffffffffffffffffffffffffffffffffffff168152602001915050600060405180830381600087803b15801561237a57600080fd5b505af115801561238e573d6000803e3d6000fd5b505050505b8673ffffffffffffffffffffffffffffffffffffffff1663f0b522db823333886040518563ffffffff1660e01b8152600401808581526020018473ffffffffffffffffffffffffffffffffffffffff1681526020018373ffffffffffffffffffffffffffffffffffffffff168152602001828152602001945050505050600060405180830381600087803b15801561242a57600080fd5b505af115801561243e573d6000803e3d6000fd5b5050505050505050505050505050565b612459833083610de6565b8373ffffffffffffffffffffffffffffffffffffffff166367aea3136040518163ffffffff1660e01b815260040160206040518083038186803b15801561249f57600080fd5b505afa1580156124b3573d6000803e3d6000fd5b505050506040513d60208110156124c957600080fd5b810190808051906020019092919050505073ffffffffffffffffffffffffffffffffffffffff166399bec3158573ffffffffffffffffffffffffffffffffffffffff1663918b7cfe856040518263ffffffff1660e01b81526004018082815260200191505060206040518083038186803b15801561254657600080fd5b505afa15801561255a573d6000803e3d6000fd5b505050506040513d602081101561257057600080fd5b81019080805190602001909291905050508673ffffffffffffffffffffffffffffffffffffffff1663434efcbd866040518263ffffffff1660e01b81526004018082815260200191505060206040518083038186803b1580156125d257600080fd5b505afa1580156125e6573d6000803e3d6000fd5b505050506040513d60208110156125fc57600080fd5b8101908080519060200190929190505050303061262161261c8a896134ca565b6135fd565b60006040518763ffffffff1660e01b8152600401808781526020018673ffffffffffffffffffffffffffffffffffffffff1681526020018573ffffffffffffffffffffffffffffffffffffffff1681526020018473ffffffffffffffffffffffffffffffffffffffff1681526020018381526020018281526020019650505050505050600060405180830381600087803b1580156126be57600080fd5b505af11580156126d2573d6000803e3d6000fd5b5050505050505050565b60008573ffffffffffffffffffffffffffffffffffffffff1663434efcbd846040518263ffffffff1660e01b81526004018082815260200191505060206040518083038186803b15801561272f57600080fd5b505afa158015612743573d6000803e3d6000fd5b505050506040513d602081101561275957600080fd5b8101908080519060200190929190505050905060008673ffffffffffffffffffffffffffffffffffffffff166367aea3136040518163ffffffff1660e01b815260040160206040518083038186803b1580156127b457600080fd5b505afa1580156127c8573d6000803e3d6000fd5b505050506040513d60208110156127de57600080fd5b8101908080519060200190929190505050905060008773ffffffffffffffffffffffffffffffffffffffff1663918b7cfe866040518263ffffffff1660e01b81526004018082815260200191505060206040518083038186803b15801561284457600080fd5b505afa158015612858573d6000803e3d6000fd5b505050506040513d602081101561286e57600080fd5b8101908080519060200190929190505050905061289a88866000612895868c89888c613c7f565b612f2f565b6128ae8886306128a988613e45565b613e64565b60008273ffffffffffffffffffffffffffffffffffffffff1663da49bada30896040518363ffffffff1660e01b8152600401808373ffffffffffffffffffffffffffffffffffffffff1681526020018273ffffffffffffffffffffffffffffffffffffffff1681526020019250505060206040518083038186803b15801561293557600080fd5b505afa158015612949573d6000803e3d6000fd5b505050506040513d602081101561295f57600080fd5b810190808051906020019092919050505014156129f8578173ffffffffffffffffffffffffffffffffffffffff1663d94d4208876040518263ffffffff1660e01b8152600401808273ffffffffffffffffffffffffffffffffffffffff168152602001915050600060405180830381600087803b1580156129df57600080fd5b505af11580156129f3573d6000803e3d6000fd5b505050505b8573ffffffffffffffffffffffffffffffffffffffff1663f0b522db823333886040518563ffffffff1660e01b8152600401808581526020018473ffffffffffffffffffffffffffffffffffffffff1681526020018373ffffffffffffffffffffffffffffffffffffffff168152602001828152602001945050505050600060405180830381600087803b158015612a8f57600080fd5b505af1158015612aa3573d6000803e3d6000fd5b505050505050505050505050565b8273ffffffffffffffffffffffffffffffffffffffff1663a7e944556040518163ffffffff1660e01b8152600401602060405180830381600087803b158015612af957600080fd5b505af1158015612b0d573d6000803e3d6000fd5b505050506040513d6020811015612b2357600080fd5b810190808051906020019092919050505073ffffffffffffffffffffffffffffffffffffffff166323b872dd3330846040518463ffffffff1660e01b8152600401808473ffffffffffffffffffffffffffffffffffffffff1681526020018373ffffffffffffffffffffffffffffffffffffffff1681526020018281526020019350505050600060405180830381600087803b158015612bc257600080fd5b505af1158015612bd6573d6000803e3d6000fd5b505050508273ffffffffffffffffffffffffffffffffffffffff1663a7e944556040518163ffffffff1660e01b8152600401602060405180830381600087803b158015612c2257600080fd5b505af1158015612c36573d6000803e3d6000fd5b505050506040513d6020811015612c4c57600080fd5b810190808051906020019092919050505073ffffffffffffffffffffffffffffffffffffffff1663095ea7b384836040518363ffffffff1660e01b8152600401808373ffffffffffffffffffffffffffffffffffffffff16815260200182815260200192505050600060405180830381600087803b158015612ccd57600080fd5b505af1158015612ce1573d6000803e3d6000fd5b505050508273ffffffffffffffffffffffffffffffffffffffff166319b6fb01853385856040518563ffffffff1660e01b8152600401808581526020018473ffffffffffffffffffffffffffffffffffffffff1681526020018373ffffffffffffffffffffffffffffffffffffffff168152602001828152602001945050505050600060405180830381600087803b158015612d7c57600080fd5b505af1158015612d90573d6000803e3d6000fd5b5050505050505050565b6000808473ffffffffffffffffffffffffffffffffffffffff166367aea3136040518163ffffffff1660e01b815260040160206040518083038186803b158015612de357600080fd5b505afa158015612df7573d6000803e3d6000fd5b505050506040513d6020811015612e0d57600080fd5b81019080805190602001909291905050509050600080612e2e8787876115b3565b915091506000808473ffffffffffffffffffffffffffffffffffffffff1663d07900bb886040518263ffffffff1660e01b81526004018082815260200191505060a06040518083038186803b158015612e8657600080fd5b505afa158015612e9a573d6000803e3d6000fd5b505050506040513d60a0811015612eb057600080fd5b81019080805190602001909291908051906020019092919080519060200190929190805190602001909291908051906020019092919050505050509250925050600081612efd8585613ab0565b81612f0457fe5b049050808511612f15576000612f20565b612f1f8582613b45565b5b96505050505050509392505050565b8373ffffffffffffffffffffffffffffffffffffffff1663c78101f88484846040518463ffffffff1660e01b8152600401808481526020018381526020018281526020019350505050600060405180830381600087803b158015612f9257600080fd5b505af1158015612fa6573d6000803e3d6000fd5b5050505050505050565b60008373ffffffffffffffffffffffffffffffffffffffff166367aea3136040518163ffffffff1660e01b815260040160206040518083038186803b158015612ff857600080fd5b505afa15801561300c573d6000803e3d6000fd5b505050506040513d602081101561302257600080fd5b8101908080519060200190929190505050905060008473ffffffffffffffffffffffffffffffffffffffff1663434efcbd846040518263ffffffff1660e01b81526004018082815260200191505060206040518083038186803b15801561308857600080fd5b505afa15801561309c573d6000803e3d6000fd5b505050506040513d60208110156130b257600080fd5b8101908080519060200190929190505050905060008573ffffffffffffffffffffffffffffffffffffffff1663918b7cfe856040518263ffffffff1660e01b81526004018082815260200191505060206040518083038186803b15801561311857600080fd5b505afa15801561312c573d6000803e3d6000fd5b505050506040513d602081101561314257600080fd5b8101908080519060200190929190505050905060008373ffffffffffffffffffffffffffffffffffffffff16633d42250483856040518363ffffffff1660e01b8152600401808381526020018273ffffffffffffffffffffffffffffffffffffffff16815260200192505050604080518083038186803b1580156131c557600080fd5b505afa1580156131d9573d6000803e3d6000fd5b505050506040513d60408110156131ef57600080fd5b81019080805190602001909291908051906020019092919050505091505060008773ffffffffffffffffffffffffffffffffffffffff16638161b120876040518263ffffffff1660e01b81526004018082815260200191505060206040518083038186803b15801561326057600080fd5b505afa158015613274573d6000803e3d6000fd5b505050506040513d602081101561328a57600080fd5b810190808051906020019092919050505090503073ffffffffffffffffffffffffffffffffffffffff168173ffffffffffffffffffffffffffffffffffffffff16148061339e575060018873ffffffffffffffffffffffffffffffffffffffff16635aebb4608389306040518463ffffffff1660e01b8152600401808473ffffffffffffffffffffffffffffffffffffffff1681526020018381526020018273ffffffffffffffffffffffffffffffffffffffff168152602001935050505060206040518083038186803b15801561336157600080fd5b505afa158015613375573d6000803e3d6000fd5b505050506040513d602081101561338b57600080fd5b8101908080519060200190929190505050145b156133cf576133ba8388866133b589898a8a613831565b612ab1565b6133ca8887600085600003612f2f565b6134c0565b6133e68388306133e189308a8a613831565b612ab1565b8473ffffffffffffffffffffffffffffffffffffffff166399bec315848630306000886000036040518763ffffffff1660e01b8152600401808781526020018673ffffffffffffffffffffffffffffffffffffffff1681526020018573ffffffffffffffffffffffffffffffffffffffff1681526020018473ffffffffffffffffffffffffffffffffffffffff1681526020018381526020018281526020019650505050505050600060405180830381600087803b1580156134a757600080fd5b505af11580156134bb573d6000803e3d6000fd5b505050505b5050505050505050565b600061355e828473ffffffffffffffffffffffffffffffffffffffff1663313ce5676040518163ffffffff1660e01b8152600401602060405180830381600087803b15801561351857600080fd5b505af115801561352c573d6000803e3d6000fd5b505050506040513d602081101561354257600080fd5b8101908080519060200190929190505050601203600a0a613ab0565b905092915050565b8373ffffffffffffffffffffffffffffffffffffffff1663871581a28484846040518463ffffffff1660e01b8152600401808481526020018373ffffffffffffffffffffffffffffffffffffffff1681526020018281526020019350505050600060405180830381600087803b1580156135df57600080fd5b505af11580156135f3573d6000803e3d6000fd5b5050505050505050565b60008190506000811215613679576040517f08c379a000000000000000000000000000000000000000000000000000000000815260040180806020018281038252600c8152602001807f696e742d6f766572666c6f77000000000000000000000000000000000000000081525060200191505060405180910390fd5b919050565b6000808573ffffffffffffffffffffffffffffffffffffffff1663d07900bb846040518263ffffffff1660e01b81526004018082815260200191505060a06040518083038186803b1580156136d257600080fd5b505afa1580156136e6573d6000803e3d6000fd5b505050506040513d60a08110156136fc57600080fd5b81019080805190602001909291908051906020019092919080519060200190929190805190602001909291908051906020019092919050505050505091505060008673ffffffffffffffffffffffffffffffffffffffff16633d42250485876040518363ffffffff1660e01b8152600401808381526020018273ffffffffffffffffffffffffffffffffffffffff16815260200192505050604080518083038186803b1580156137ab57600080fd5b505afa1580156137bf573d6000803e3d6000fd5b505050506040513d60408110156137d557600080fd5b8101908080519060200190929190805190602001909291905050509150506138058287816137ff57fe5b046135fd565b92508083111561382057613818816135fd565b600003613825565b826000035b92505050949350505050565b6000808573ffffffffffffffffffffffffffffffffffffffff1663d07900bb846040518263ffffffff1660e01b81526004018082815260200191505060a06040518083038186803b15801561388557600080fd5b505afa158015613899573d6000803e3d6000fd5b505050506040513d60a08110156138af57600080fd5b81019080805190602001909291908051906020019092919080519060200190929190805190602001909291908051906020019092919050505050505091505060008673ffffffffffffffffffffffffffffffffffffffff16633d42250485876040518363ffffffff1660e01b8152600401808381526020018273ffffffffffffffffffffffffffffffffffffffff16815260200192505050604080518083038186803b15801561395e57600080fd5b505afa158015613972573d6000803e3d6000fd5b505050506040513d604081101561398857600080fd5b81019080805190602001909291908051906020019092919050505091505060008773ffffffffffffffffffffffffffffffffffffffff1663fabde80c886040518263ffffffff1660e01b8152600401808273ffffffffffffffffffffffffffffffffffffffff16815260200191505060206040518083038186803b158015613a0f57600080fd5b505afa158015613a23573d6000803e3d6000fd5b505050506040513d6020811015613a3957600080fd5b810190808051906020019092919050505090506000613a61613a5b8486613ab0565b83613b45565b90506b033b2e3c9fd0803ce80000008181613a7857fe5b04945080613a92866b033b2e3c9fd0803ce8000000613ab0565b10613a9d5784613aa2565b600185015b945050505050949350505050565b600080821480613acd5750828283850292508281613aca57fe5b04145b613b3f576040517f08c379a000000000000000000000000000000000000000000000000000000000815260040180806020018281038252600c8152602001807f6d756c2d6f766572666c6f77000000000000000000000000000000000000000081525060200191505060405180910390fd5b92915050565b6000828284039150811115613bc2576040517f08c379a000000000000000000000000000000000000000000000000000000000815260040180806020018281038252600c8152602001807f7375622d6f766572666c6f77000000000000000000000000000000000000000081525060200191505060405180910390fd5b92915050565b60008373ffffffffffffffffffffffffffffffffffffffff1663730abfa284846040518363ffffffff1660e01b8152600401808381526020018273ffffffffffffffffffffffffffffffffffffffff16815260200192505050602060405180830381600087803b158015613c3b57600080fd5b505af1158015613c4f573d6000803e3d6000fd5b505050506040513d6020811015613c6557600080fd5b810190808051906020019092919050505090509392505050565b6000808573ffffffffffffffffffffffffffffffffffffffff16636c50dbba856040518263ffffffff1660e01b815260040180828152602001915050602060405180830381600087803b158015613cd557600080fd5b505af1158015613ce9573d6000803e3d6000fd5b505050506040513d6020811015613cff57600080fd5b8101908080519060200190929190505050905060008773ffffffffffffffffffffffffffffffffffffffff1663fabde80c876040518263ffffffff1660e01b8152600401808273ffffffffffffffffffffffffffffffffffffffff16815260200191505060206040518083038186803b158015613d7b57600080fd5b505afa158015613d8f573d6000803e3d6000fd5b505050506040513d6020811015613da557600080fd5b81019080805190602001909291905050509050613dce846b033b2e3c9fd0803ce8000000613ab0565b811015613e3a57613e0582613df8613df2876b033b2e3c9fd0803ce8000000613ab0565b84613b45565b81613dff57fe5b046135fd565b9250613e1d846b033b2e3c9fd0803ce8000000613ab0565b613e278484613ab0565b10613e325782613e37565b600183015b92505b505095945050505050565b6000613e5d826b033b2e3c9fd0803ce8000000613ab0565b9050919050565b8373ffffffffffffffffffffffffffffffffffffffff1663660e16078484846040518463ffffffff1660e01b8152600401808481526020018373ffffffffffffffffffffffffffffffffffffffff1681526020018281526020019350505050600060405180830381600087803b158015613edd57600080fd5b505af1158015613ef1573d6000803e3d6000fd5b505050505050505056fea264697066735822122013c346602b02657aa24d2ff73b5bb24baf83f8e6b25e1a6f9ef4d85d043f96d664736f6c634300060c0033",
  "devdoc": {
    "kind": "dev",
    "methods": {},
    "version": 1
  },
  "userdoc": {
    "kind": "user",
    "methods": {},
    "version": 1
  },
  "storageLayout": {
    "storage": [],
    "types": null
  }
}