{
  "address": "0x051494d433039E895c5f39834EF4b68d68f591A1",
  "abi": [
    {
      "inputs": [
        {
          "internalType": "address",
          "name": "orderToken2buy",
          "type": "address"
        },
        {
          "internalType": "address",
          "name": "inToken",
          "type": "address"
        }
      ],
      "name": "IncorrectToken",
      "type": "error"
    },
    {
      "inputs": [
        {
          "internalType": "address",
          "name": "staker",
          "type": "address"
        }
      ],
      "name": "IsNotTopStaker",
      "type": "error"
    },
    {
      "inputs": [
        {
          "internalType": "uint256",
          "name": "orderId",
          "type": "uint256"
        }
      ],
      "name": "OrderExist",
      "type": "error"
    },
    {
      "inputs": [
        {
          "internalType": "uint256",
          "name": "orderId",
          "type": "uint256"
        }
      ],
      "name": "OrderNotExist",
      "type": "error"
    },
    {
      "inputs": [
        {
          "internalType": "uint256",
          "name": "orderId",
          "type": "uint256"
        },
        {
          "internalType": "address",
          "name": "staker",
          "type": "address"
        }
      ],
      "name": "OrderNotForThisStaker",
      "type": "error"
    },
    {
      "inputs": [],
      "name": "SmallAmountLeft",
      "type": "error"
    },
    {
      "inputs": [],
      "name": "UserIsNotBeneficiary",
      "type": "error"
    },
    {
      "anonymous": false,
      "inputs": [
        {
          "indexed": false,
          "internalType": "uint8",
          "name": "version",
          "type": "uint8"
        }
      ],
      "name": "Initialized",
      "type": "event"
    },
    {
      "anonymous": false,
      "inputs": [
        {
          "indexed": false,
          "internalType": "address",
          "name": "LPToken",
          "type": "address"
        },
        {
          "indexed": false,
          "internalType": "uint256[]",
          "name": "orderIds",
          "type": "uint256[]"
        }
      ],
      "name": "LpOrdersAdded",
      "type": "event"
    },
    {
      "anonymous": false,
      "inputs": [
        {
          "indexed": false,
          "internalType": "uint256",
          "name": "orderId",
          "type": "uint256"
        }
      ],
      "name": "OrderAdded",
      "type": "event"
    },
    {
      "anonymous": false,
      "inputs": [
        {
          "indexed": false,
          "internalType": "uint256",
          "name": "orderId",
          "type": "uint256"
        }
      ],
      "name": "OrderCanceled",
      "type": "event"
    },
    {
      "anonymous": false,
      "inputs": [
        {
          "indexed": false,
          "internalType": "uint256",
          "name": "orderId",
          "type": "uint256"
        }
      ],
      "name": "OrderFilled",
      "type": "event"
    },
    {
      "anonymous": false,
      "inputs": [
        {
          "indexed": false,
          "internalType": "uint256",
          "name": "orderId",
          "type": "uint256"
        }
      ],
      "name": "OrderFilledPartially",
      "type": "event"
    },
    {
      "inputs": [],
      "name": "ACCESS_CONTROL_SINGLETON",
      "outputs": [
        {
          "internalType": "contract ISuAccessControl",
          "name": "",
          "type": "address"
        }
      ],
      "stateMutability": "view",
      "type": "function"
    },
    {
      "inputs": [],
      "name": "DUST_THRESHHOLD",
      "outputs": [
        {
          "internalType": "uint256",
          "name": "",
          "type": "uint256"
        }
      ],
      "stateMutability": "view",
      "type": "function"
    },
    {
      "inputs": [],
      "name": "LIQUIDATION_ACCESS_ROLE",
      "outputs": [
        {
          "internalType": "bytes32",
          "name": "",
          "type": "bytes32"
        }
      ],
      "stateMutability": "view",
      "type": "function"
    },
    {
      "inputs": [],
      "name": "MINTER_ROLE",
      "outputs": [
        {
          "internalType": "bytes32",
          "name": "",
          "type": "bytes32"
        }
      ],
      "stateMutability": "view",
      "type": "function"
    },
    {
      "inputs": [],
      "name": "ORACLE",
      "outputs": [
        {
          "internalType": "contract ISuOracle",
          "name": "",
          "type": "address"
        }
      ],
      "stateMutability": "view",
      "type": "function"
    },
    {
      "inputs": [],
      "name": "TOP_STAKERS",
      "outputs": [
        {
          "internalType": "contract ITopStakers",
          "name": "",
          "type": "address"
        }
      ],
      "stateMutability": "view",
      "type": "function"
    },
    {
      "inputs": [],
      "name": "VAULT_ACCESS_ROLE",
      "outputs": [
        {
          "internalType": "bytes32",
          "name": "",
          "type": "bytes32"
        }
      ],
      "stateMutability": "view",
      "type": "function"
    },
    {
      "inputs": [
        {
          "internalType": "address",
          "name": "token2sell",
          "type": "address"
        },
        {
          "internalType": "uint256",
          "name": "amount2sell",
          "type": "uint256"
        },
        {
          "internalType": "address",
          "name": "token2buy",
          "type": "address"
        },
        {
          "internalType": "address",
          "name": "beneficiary",
          "type": "address"
        },
        {
          "internalType": "enum DiscountType",
          "name": "discountType",
          "type": "uint8"
        },
        {
          "internalType": "uint16",
          "name": "nCoinsLp",
          "type": "uint16"
        }
      ],
      "name": "addOrder",
      "outputs": [
        {
          "internalType": "uint256[]",
          "name": "orderIds",
          "type": "uint256[]"
        }
      ],
      "stateMutability": "nonpayable",
      "type": "function"
    },
    {
      "inputs": [
        {
          "internalType": "uint256",
          "name": "orderId",
          "type": "uint256"
        }
      ],
      "name": "cancelOrder",
      "outputs": [],
      "stateMutability": "nonpayable",
      "type": "function"
    },
    {
      "inputs": [
        {
          "internalType": "uint256",
          "name": "orderId",
          "type": "uint256"
        },
        {
          "internalType": "uint256",
          "name": "tokenBAmount",
          "type": "uint256"
        },
        {
          "internalType": "address",
          "name": "user",
          "type": "address"
        },
        {
          "internalType": "bool",
          "name": "needCallback",
          "type": "bool"
        }
      ],
      "name": "fillOrder",
      "outputs": [
        {
          "internalType": "uint256",
          "name": "",
          "type": "uint256"
        },
        {
          "internalType": "uint256",
          "name": "",
          "type": "uint256"
        }
      ],
      "stateMutability": "nonpayable",
      "type": "function"
    },
    {
      "inputs": [],
      "name": "getAllOrders",
      "outputs": [
        {
          "components": [
            {
              "components": [
                {
                  "internalType": "address",
                  "name": "token2sell",
                  "type": "address"
                },
                {
                  "internalType": "uint256",
                  "name": "amountLeft",
                  "type": "uint256"
                },
                {
                  "internalType": "address",
                  "name": "token2buy",
                  "type": "address"
                },
                {
                  "internalType": "uint256",
                  "name": "token2buyAmount",
                  "type": "uint256"
                },
                {
                  "internalType": "address",
                  "name": "beneficiary",
                  "type": "address"
                },
                {
                  "internalType": "uint256",
                  "name": "creationTimestamp",
                  "type": "uint256"
                },
                {
                  "internalType": "enum DiscountType",
                  "name": "discountType",
                  "type": "uint8"
                },
                {
                  "internalType": "address",
                  "name": "caller",
                  "type": "address"
                }
              ],
              "internalType": "struct Order",
              "name": "order",
              "type": "tuple"
            },
            {
              "internalType": "uint256",
              "name": "orderId",
              "type": "uint256"
            }
          ],
          "internalType": "struct OrderWithId[]",
          "name": "",
          "type": "tuple[]"
        }
      ],
      "stateMutability": "view",
      "type": "function"
    },
    {
      "inputs": [
        {
          "internalType": "uint256",
          "name": "orderId",
          "type": "uint256"
        }
      ],
      "name": "getExpectedOrderOutcome",
      "outputs": [
        {
          "internalType": "uint256",
          "name": "",
          "type": "uint256"
        }
      ],
      "stateMutability": "view",
      "type": "function"
    },
    {
      "inputs": [
        {
          "internalType": "uint256",
          "name": "orderId",
          "type": "uint256"
        }
      ],
      "name": "getOrder",
      "outputs": [
        {
          "components": [
            {
              "internalType": "address",
              "name": "token2sell",
              "type": "address"
            },
            {
              "internalType": "uint256",
              "name": "amountLeft",
              "type": "uint256"
            },
            {
              "internalType": "address",
              "name": "token2buy",
              "type": "address"
            },
            {
              "internalType": "uint256",
              "name": "token2buyAmount",
              "type": "uint256"
            },
            {
              "internalType": "address",
              "name": "beneficiary",
              "type": "address"
            },
            {
              "internalType": "uint256",
              "name": "creationTimestamp",
              "type": "uint256"
            },
            {
              "internalType": "enum DiscountType",
              "name": "discountType",
              "type": "uint8"
            },
            {
              "internalType": "address",
              "name": "caller",
              "type": "address"
            }
          ],
          "internalType": "struct Order",
          "name": "",
          "type": "tuple"
        }
      ],
      "stateMutability": "view",
      "type": "function"
    },
    {
      "inputs": [
        {
          "internalType": "uint256",
          "name": "index",
          "type": "uint256"
        }
      ],
      "name": "getOrderAt",
      "outputs": [
        {
          "components": [
            {
              "internalType": "address",
              "name": "token2sell",
              "type": "address"
            },
            {
              "internalType": "uint256",
              "name": "amountLeft",
              "type": "uint256"
            },
            {
              "internalType": "address",
              "name": "token2buy",
              "type": "address"
            },
            {
              "internalType": "uint256",
              "name": "token2buyAmount",
              "type": "uint256"
            },
            {
              "internalType": "address",
              "name": "beneficiary",
              "type": "address"
            },
            {
              "internalType": "uint256",
              "name": "creationTimestamp",
              "type": "uint256"
            },
            {
              "internalType": "enum DiscountType",
              "name": "discountType",
              "type": "uint8"
            },
            {
              "internalType": "address",
              "name": "caller",
              "type": "address"
            }
          ],
          "internalType": "struct Order",
          "name": "",
          "type": "tuple"
        }
      ],
      "stateMutability": "view",
      "type": "function"
    },
    {
      "inputs": [
        {
          "internalType": "address",
          "name": "token2sell",
          "type": "address"
        },
        {
          "internalType": "uint256",
          "name": "timePassed",
          "type": "uint256"
        },
        {
          "internalType": "enum DiscountType",
          "name": "discountType",
          "type": "uint8"
        }
      ],
      "name": "getOrderPrice",
      "outputs": [
        {
          "internalType": "uint256",
          "name": "",
          "type": "uint256"
        }
      ],
      "stateMutability": "view",
      "type": "function"
    },
    {
      "inputs": [],
      "name": "getOrdersCount",
      "outputs": [
        {
          "internalType": "uint256",
          "name": "",
          "type": "uint256"
        }
      ],
      "stateMutability": "view",
      "type": "function"
    },
    {
      "inputs": [
        {
          "internalType": "address",
          "name": "tokenA",
          "type": "address"
        },
        {
          "internalType": "address",
          "name": "tokenB",
          "type": "address"
        },
        {
          "internalType": "uint256",
          "name": "amountA",
          "type": "uint256"
        },
        {
          "internalType": "uint256",
          "name": "timePassed",
          "type": "uint256"
        },
        {
          "internalType": "enum DiscountType",
          "name": "discountType",
          "type": "uint8"
        }
      ],
      "name": "getOutcome",
      "outputs": [
        {
          "internalType": "uint256",
          "name": "",
          "type": "uint256"
        }
      ],
      "stateMutability": "view",
      "type": "function"
    },
    {
      "inputs": [
        {
          "internalType": "address",
          "name": "_authControl",
          "type": "address"
        },
        {
          "internalType": "address",
          "name": "_oracleAddress",
          "type": "address"
        },
        {
          "internalType": "address",
          "name": "_topStakersAddress",
          "type": "address"
        }
      ],
      "name": "initialize",
      "outputs": [],
      "stateMutability": "nonpayable",
      "type": "function"
    },
    {
      "inputs": [
        {
          "internalType": "address",
          "name": "",
          "type": "address"
        }
      ],
      "name": "lpTokenToPool",
      "outputs": [
        {
          "internalType": "address",
          "name": "",
          "type": "address"
        }
      ],
      "stateMutability": "view",
      "type": "function"
    },
    {
      "inputs": [
        {
          "internalType": "uint256",
          "name": "",
          "type": "uint256"
        }
      ],
      "name": "orders",
      "outputs": [
        {
          "internalType": "address",
          "name": "token2sell",
          "type": "address"
        },
        {
          "internalType": "uint256",
          "name": "amountLeft",
          "type": "uint256"
        },
        {
          "internalType": "address",
          "name": "token2buy",
          "type": "address"
        },
        {
          "internalType": "uint256",
          "name": "token2buyAmount",
          "type": "uint256"
        },
        {
          "internalType": "address",
          "name": "beneficiary",
          "type": "address"
        },
        {
          "internalType": "uint256",
          "name": "creationTimestamp",
          "type": "uint256"
        },
        {
          "internalType": "enum DiscountType",
          "name": "discountType",
          "type": "uint8"
        },
        {
          "internalType": "address",
          "name": "caller",
          "type": "address"
        }
      ],
      "stateMutability": "view",
      "type": "function"
    },
    {
      "inputs": [
        {
          "internalType": "enum DiscountType",
          "name": "",
          "type": "uint8"
        },
        {
          "internalType": "uint256",
          "name": "",
          "type": "uint256"
        }
      ],
      "name": "priceCurve",
      "outputs": [
        {
          "internalType": "uint256",
          "name": "",
          "type": "uint256"
        }
      ],
      "stateMutability": "view",
      "type": "function"
    },
    {
      "inputs": [
        {
          "internalType": "address",
          "name": "lpToken",
          "type": "address"
        },
        {
          "internalType": "address",
          "name": "pool",
          "type": "address"
        }
      ],
      "name": "setLPTokenPool",
      "outputs": [],
      "stateMutability": "nonpayable",
      "type": "function"
    },
    {
      "inputs": [
        {
          "internalType": "enum DiscountType",
          "name": "discountType",
          "type": "uint8"
        },
        {
          "internalType": "uint256[2]",
          "name": "newPriceCurve",
          "type": "uint256[2]"
        }
      ],
      "name": "setPriceCurve",
      "outputs": [],
      "stateMutability": "nonpayable",
      "type": "function"
    },
    {
      "inputs": [
        {
          "internalType": "bytes4",
          "name": "interfaceId",
          "type": "bytes4"
        }
      ],
      "name": "supportsInterface",
      "outputs": [
        {
          "internalType": "bool",
          "name": "",
          "type": "bool"
        }
      ],
      "stateMutability": "view",
      "type": "function"
    },
    {
      "inputs": [
        {
          "internalType": "contract ICurveLP",
          "name": "lpTokenPool",
          "type": "address"
        },
        {
          "internalType": "address",
          "name": "lpToken",
          "type": "address"
        },
        {
          "internalType": "uint256",
          "name": "amount",
          "type": "uint256"
        },
        {
          "internalType": "address",
          "name": "requiredToken",
          "type": "address"
        },
        {
          "internalType": "uint16",
          "name": "nCoinsLp",
          "type": "uint16"
        }
      ],
      "name": "unwrapLP",
      "outputs": [
        {
          "components": [
            {
              "internalType": "address",
              "name": "token",
              "type": "address"
            },
            {
              "internalType": "uint256",
              "name": "amount",
              "type": "uint256"
            }
          ],
          "internalType": "struct UnwrapData[]",
          "name": "unwrapData",
          "type": "tuple[]"
        }
      ],
      "stateMutability": "nonpayable",
      "type": "function"
    }
  ],
  "numDeployments": 2,
  "solcInputHash": "66f0c3bfed93e950f7841407990d8204",
  "bytecode": "0x6080806040523461001657612bdb908161001c8239f35b600080fdfe60806040526004361015610013575b600080fd5b60003560e01c806301ffc9a71461020757806303eaa21a146101fe57806303ee9f22146101f557806314c376dc146101ec57806338013f02146101e35780633ee03a3d146101da578063514fcac7146101d157806372a733ab146101c857806373a423d0146101bf5780637a9826a7146101b65780637bea0d1c146101ad578063818e664a146101a45780639081bf391461019b578063a04c88ed14610192578063a85c38ef14610189578063b5b3b05114610180578063ba07fc5914610177578063c0c53b8b1461016e578063d09ef24114610165578063d53913931461015c578063d7c8ae8914610153578063db21d8b81461014a578063dc97e84e14610141578063f711bff8146101385763f8de67811461013057600080fd5b61000e61137c565b5061000e61135d565b5061000e611321565b5061000e61127a565b5061000e61122f565b5061000e6111c3565b5061000e61118d565b5061000e611082565b5061000e611058565b5061000e611039565b5061000e610fcd565b5061000e610f2e565b5061000e610a7e565b5061000e610a39565b5061000e610969565b5061000e610740565b5061000e610665565b5061000e61055a565b5061000e61041f565b5061000e6103d2565b5061000e610397565b5061000e61035b565b5061000e61032d565b5061000e610263565b503461000e57602036600319011261000e5760043563ffffffff60e01b811680910361000e5760405160016202b7d560e31b03199091148152602090f35b60043590600382101561000e57565b60843590600382101561000e57565b503461000e57606036600319011261000e5761027d610245565b3660641161000e576102d9906102d46044602060018060a01b0360005460101c1660405192838092632474521560e21b8252600060048301523360248301525afa908115610309575b6000916102db575b50611724565b611770565b005b6102fc915060203d8111610302575b6102f48183611486565b810190611702565b386102ce565b503d6102ea565b610311611717565b6102c6565b600091031261000e57565b6001600160a01b031690565b503461000e57600036600319011261000e5760005460405160109190911c6001600160a01b03168152602090f35b503461000e57600036600319011261000e5760206040517fe965846df3dd5b1dfa65f58e31477079e90140e0908b6dd31b5aead5a57cf3658152f35b503461000e57600036600319011261000e576007546040516001600160a01b039091168152602090f35b6001600160a01b0381160361000e57565b503461000e5760a036600319011261000e5760206104176004356103f5816103c1565b602435610401816103c1565b610409610254565b9160643591604435916127b5565b604051908152f35b503461000e57602036600319011261000e5760043561044561044082610f6e565b612501565b9060a08201511561053c5760808201906104676104628351610321565b610321565b33141580610523575b610511576104bc61050c928460206104b36104ac7fc41f4ceb2938876c35e61b705e9d2f18a02c4a26ce5e049a6308a943d46851b39851610321565b9351610321565b91015191612172565b6104f26104c882610f6e565b60066000918281558260018201558260028201558260038201558260048201558260058201550155565b6104fb816125e7565b506040519081529081906020820190565b0390a1005b60405163da383fb560e01b8152600490fd5b5061053461046260e0850151610321565b331415610470565b6040516373a98b6360e11b81526004810191909152602490fd5b0390fd5b503461000e57604036600319011261000e576102d960043561057b816103c1565b60243590610588826103c1565b6105d16044602060018060a01b0360005460101c1660405192838092632474521560e21b8252600060048301523360248301525afa908115610309576000916102db5750611724565b61179f565b600311156105e057565b634e487b7160e01b600052602160045260246000fd5b9060038210156105e05752565b60e0908160018060a01b0391828151168552602081015160208601528260408201511660408601526060810151606086015282608082015116608086015260a081015160a086015261065d60c082015160c08701906105f6565b015116910152565b503461000e57602036600319011261000e576004356106826128ea565b506002548110156106c9575b600080516020612b6683398151915201546000908152600160205260409020610100906106ba90612501565b6106c76040518092610603565bf35b6106d1611218565b61068e565b60a4359061ffff8216820361000e57565b6084359061ffff8216820361000e57565b90815180825260208080930193019160005b828110610718575050505090565b83518552938101939281019260010161070a565b90602061073d9281815201906106f8565b90565b503461000e5760c036600319011261000e5760043561075e816103c1565b60243560443561076d816103c1565b6064359261077a846103c1565b610782610254565b9061078b6106d6565b60609461ffff918083169182156108e8579086826107ae6107e39430338a6120bb565b866107de6104626107d18360018060a01b03166000526005602052604060002090565b546001600160a01b031690565b611ab8565b936107fe6107f0866118e4565b51516001600160a01b031690565b6001600160a01b039081169087160361084157505050509061083d936020610828610831946118e4565b51015191612172565b6040519182918261072c565b0390f35b9296919550929361085184611980565b9460005b878116868110156108a257908161089761089088888861087b6107f061089d998b61191c565b6020610887888c61191c565b5101519061230e565b918a61191c565b526117e4565b610855565b5050505050505090507ff311df037b068e9a1ed1ea8db32370743d539f79b7bb5bb54e847de2e6afc7318161083d936108e06040519283928361204c565b0390a1610831565b91505061083d96929550610906949150610900611966565b9561230e565b61090f826118e4565b52610831565b6020908160408183019282815285518094520193019160005b82811061093c575050505090565b9091929382610120600192828851610955838251610603565b01516101008201520195019392910161092e565b503461000e57600080600319360112610a3657604051806002548082528260208093016002865283862092865b85828210610a20575050506109ad92500383611486565b8151916109b983612947565b935b8381106109d0576040518061083d8782610915565b806109de610a1b928461191c565b516109e881610f6e565b906109fa6109f46114a9565b92612501565b825285820152610a0a828861191c565b52610a15818761191c565b506129af565b6109bb565b8554845260019586019588955093019201610996565b80fd5b503461000e57606036600319011261000e57600435610a57816103c1565b60443590600382101561000e5760209161041791602435906126e2565b8015150361000e57565b503461000e57608036600319011261000e5760243560048035604435610aa3816103c1565b606435610aaf81610a74565b610ab883610f6e565b9360058501548015610eff57610ace9042611ed0565b603c811115610dd2575b610ae185612872565b92610b05610aef8854610321565b6006890193610aff855460ff1690565b916126e2565b96610b14610462600754610321565b956002820195610b248754610321565b9a6020610b4760409a8b519e8f80938192631735856760e31b83528d8301610f1b565b03915afa9b8c15610dc5575b60009c610d89575b50610b78610b7d928c92818111600014610d8157509c5b8d61150d565b6126cc565b916003810196610b8e8c895461222c565b8855600182018054909490808210610d6d57505083549a600085555b84548015159182610d44575b5050610d345791610bec8b92610be68e610bd3610bf19754610321565b85610be08d860154610321565b916120bb565b54610321565b612172565b54610cfc57610c53575b505050600080516020612b86833981519152610c3983610c206104c861083d96610f6e565b610c29816125e7565b5083519081529081906020820190565b0390a15b5191825260208201929092529081906040820190565b5491939091610c6f906104629060081c6001600160a01b031681565b935490843b1561000e57610cbf6000610c399361083d978483600080516020612b86833981519152988a51968795869485936305077f2360e51b8552840160209093929193604081019481520152565b03925af18015610cef575b610cd6575b5093610bfb565b80610ce3610ce992611415565b80610316565b38610ccf565b610cf7611717565b610cca565b505082519384525061083d927fc238a2d1c485b17bfd980b5e6d0483704cd4720118eb06215758d49f85ea89639150602090a1610c3d565b885163117be23960e31b81528790fd5b610d61925090610d539161150d565b670de0b6b3a7640000900490565b60065410153880610bb6565b81610d7a919d929d611ed0565b8555610baa565b90509c610b72565b8b919c50610b7d92610db4610b789260203d8111610dbe575b610dac8183611486565b8101906119cd565b9d92509250610b5b565b503d610da2565b610dcd611717565b610b53565b610de0610462600854610321565b60405163c4e4a93b60e01b81529060209081838681845afa928315610ef2575b600093610ed3575b5081604051809262650fcd60e31b82528180610e268c8b8301610f1b565b03915afa918215610ec6575b600092610ea9575b505015610e8f57610e5e610e57826001600160a01b0388166128d4565b91876128d4565b14610ad85760408051636d5e923560e01b81528084018781526001600160a01b038716602082015290918291010390fd5b60405163a849de1760e01b81528061055687828701610f1b565b610ebf9250803d10610302576102f48183611486565b3880610e3a565b610ece611717565b610e32565b610eeb919350823d8411610dbe57610dac8183611486565b9138610e08565b610efa611717565b610e00565b6040516373a98b6360e11b815280830186815281906020010390fd5b6001600160a01b03909116815260200190565b503461000e57602036600319011261000e576020600435610f4e816103c1565b60018060a01b038091166000526005825260406000205416604051908152f35b6000526001602052604060002090565b9691610fc7939560e097929a99956101008a019b60018060a01b03988994858093168d5260208d01521660408b015260608a015216608088015260a087015260c08601906105f6565b16910152565b503461000e57602036600319011261000e57600435600052600160205260ff604060002061083d60018060a01b03918281541660018201549184600282015416600382015486600484015416916006600585015494015495604051998a998860081c1697169589610f7e565b503461000e57600036600319011261000e576020600254604051908152f35b503461000e57600036600319011261000e576008546040516001600160a01b039091168152602090f35b503461000e57606036600319011261000e576004356110a0816103c1565b6110fd6024356110af816103c1565b604435906110bc826103c1565b600054936110e160ff8660081c16158096819761117f575b811561115f575b5061139b565b846110f4600160ff196000541617600055565b61114657611592565b61110357005b61111361ff001960005416600055565b604051600181527f7f26b83ff96e1f2b6a682f133852f6798a09c465da95921460cefb384740249890806020810161050c565b61115a61010061ff00196000541617600055565b611592565b303b15915081611171575b50386110db565b6001915060ff16143861116a565b600160ff82161091506110d4565b503461000e57602036600319011261000e576111a76128ea565b5060043560005260016020526101006106ba6040600020612501565b503461000e57600036600319011261000e5760206040517f9f2df0fed2c77648de5860a4cc508cd0818c85b8b8a1ab4ceeef8d981c8956a68152f35b60038110156105e0576000526004602052604060002090565b50634e487b7160e01b600052603260045260246000fd5b503461000e57604036600319011261000e57611249610245565b6024359060038110156105e0576000526004602052604060002090600281101561000e576020910154604051908152f35b503461000e5760a036600319011261000e576112c760043561129b816103c1565b602435906112a8826103c1565b606435906112b5826103c1565b6112bd6106e7565b9260443591611ab8565b604080519182916020808401908085528351809252808386019401926000905b8382106112f45786860387f35b845180516001600160a01b03168752830151868401528796509485019493820193600191909101906112e7565b503461000e57600036600319011261000e5760206040517f9a9aef7c1247d5fc769b0185c052913e39673da29a880317dfd20ebf86f26a498152f35b503461000e57600036600319011261000e576020600654604051908152f35b503461000e57602036600319011261000e576020610417600435612872565b156113a257565b60405162461bcd60e51b815260206004820152602e60248201527f496e697469616c697a61626c653a20636f6e747261637420697320616c72656160448201526d191e481a5b9a5d1a585b1a5e995960921b6064820152608490fd5b50634e487b7160e01b600052604160045260246000fd5b6001600160401b03811161142857604052565b6114306113fe565b604052565b604081019081106001600160401b0382111761142857604052565b60a081019081106001600160401b0382111761142857604052565b606081019081106001600160401b0382111761142857604052565b601f909101601f19168101906001600160401b0382119082101761142857604052565b604051906114b682611435565b565b6040519061010082016001600160401b0381118382101761142857604052565b50634e487b7160e01b600052601160045260246000fd5b908160031b918083046008149015171561150557565b6114b66114d8565b8181029291811591840414171561150557565b9060005b6002811061153157505050565b600190602061ffff8451169301928185015501611524565b9060005b6002811061155a57505050565b600190602062ffffff845116930192818501550161154d565b80546001600160a01b0319166001600160a01b03909216919091179055565b9160005460ff8160081c16156116a95762010000600160b01b03191660109390931b62010000600160b01b0316929092176000556114b6916115fa6115d56114a9565b6103848152600060208201526115f5600080526004602052604060002090565b611520565b61162c6116056114a9565b6202bf2081526000602082015261162760016000526004602052604060002090565b611549565b6116596116376114a9565b6206978081526000602082015261162760026000526004602052604060002090565b61166b68056bc75e2d63100000600655565b600780546001600160a01b0319166001600160a01b0393841617905560088054919092166001600160a01b03166001600160a01b0319909116179055565b60405162461bcd60e51b815260206004820152602b60248201527f496e697469616c697a61626c653a20636f6e7472616374206973206e6f74206960448201526a6e697469616c697a696e6760a81b6064820152608490fd5b9081602091031261000e575161073d81610a74565b506040513d6000823e3d90fd5b1561172b57565b60405162461bcd60e51b815260206004820152601d60248201527f5375417574683a206f6e6c794f776e657220415554485f4641494c45440000006044820152606490fd5b611779906111ff565b602460005b6002811061178b57505050565b60019060208335930192818501550161177e565b6001600160a01b031660009081526005602052604090206114b69190611573565b604051906117cd82611435565b60088252670756e777261704c560c41b6020830152565b60019061ffff8091169081146117f8570190565b6118006114d8565b0190565b9081602091031261000e575161073d816103c1565b6020906001600160401b038111611832575b60051b0190565b61183a6113fe565b61182b565b6040519061184c82611435565b60006020838281520152565b6040519061186582611435565b600182528160005b6020908181101561188f5760209161188361183f565b9082850101520161186d565b505050565b9061189e82611819565b6118ab6040519182611486565b82815280926118bc601f1991611819565b019060005b8281106118cd57505050565b6020906118d861183f565b828285010152016118c1565b6020908051156118f2570190565b611800611218565b6040908051600110156118f2570190565b6060908051600210156118f2570190565b6020918151811015611931575b60051b010190565b611939611218565b611929565b6040519061194b82611435565b600c82526b1b9bdd081c995c5d5a5c995960a21b6020830152565b6040519061197382611435565b6001825260203681840137565b9061198a82611819565b6119976040519182611486565b82815280926119a8601f1991611819565b0190602036910137565b6001600160a01b039091168152602081019190915260400190565b9081602091031261000e575190565b6001600160a01b0391821681529116602082015260400190565b602090818184031261000e578051906001600160401b03821161000e57019180601f8401121561000e578251611a2b81611819565b93611a396040519586611486565b818552838086019260051b82010192831161000e578301905b828210611a60575050505090565b81518152908301908301611a52565b60409061073d9392815281602082015201906106f8565b60405190611a9382611435565b6007825266616d6f756e747360c81b6020830152565b6001600160a01b039091169052565b929091906001600160a01b0380851690611ad982611ad46117c0565b612aa2565b611ae2846129bf565b611aeb83612a6f565b61ffff80971696611afb886129bf565b60005b81811689811015611bc15760405163c661065760e01b815261ffff8316600482015260209081816024818a5afa918215611bb4575b600092611b87575b5050841686851614611b565750611b51906117e4565b611afe565b965050505050611b70939450611b6a611858565b94611edd565b611b79826118e4565b52611b83816118e4565b5090565b611ba69250803d10611bad575b611b9e8183611486565b810190611804565b3880611b3b565b503d611b94565b611bbc611717565b611b33565b5050939550969390959150611bdc611bd761193e565b612a41565b611be582611980565b9460005b84811684811015611c0957906000610897611c04938a61191c565b611be9565b50506040805163095ea7b360e01b81529598949793966020968796600495939487949092869282168a89818480611c438a8d8684016119b2565b0381865a90600091f1928315611c8c611d009f60009c611ce79a611cd899611cc099611ca696611ec3575b611ea6575b505180938192636eb1769f60e11b8352308984016119dc565b0381865afa908115611e99575b8c91611e82575b506129bf565b8a5180809581946370a0823160e01b835230908301610f1b565b03915afa908115611e75575b8791611e5857506129bf565b611ce1836129bf565b87612af0565b835163350376e360e21b81529687928392878401611a6f565b038183875af1938415611e4b575b600094611e28575b50611d46611d23856118e4565b51611d2d866118fa565b51611d378761190b565b5191611d41611a86565b612b17565b611d4f86611894565b9760005b8881168a89821015611e1b578188611d968594611ddc948d80611de2998e8e8e5180988194829363c661065760e01b8452830191909161ffff6020820193169052565b03915afa938415611e0e575b600094611de7575b50611db983611dd5959661191c565b5190611dcd611dc66114a9565b9687611aa9565b85015261191c565b528c61191c565b506117e4565b611d53565b611dd5945083611e06611db992843d8611611bad57611b9e8183611486565b955050611daa565b611e16611717565b611da2565b5050509650505050505050565b611e4491943d8091833e611e3c8183611486565b8101906119f6565b9238611d16565b611e53611717565b611d0e565b611e6f91508c8d3d10610dbe57610dac8183611486565b38611ca0565b611e7d611717565b611ccc565b611e6f9150853d8711610dbe57610dac8183611486565b611ea1611717565b611c99565b611ebc90843d8611610302576102f48183611486565b5038611c73565b611ecb611717565b611c6e565b9190820391821161150557565b91929092611ee961183f565b506040516370a0823160e01b80825260209491926001600160a01b0387811693919291878680611f1c3060048301610f1b565b0381885afa95861561203f575b600096612020575b5016803b1561000e57604051630d2680e960e11b815260048101939093526001600160801b0395909516600f0b602483015260016044830152611fbd948692906000908290606490829084905af18015612013575b612000575b5060405192839182528180611fa33060048301610f1b565b03915afa908115611ff3575b600091611fd6575b50611ed0565b90611fd0611fc96114a9565b9384611aa9565b82015290565b611fed9150843d8611610dbe57610dac8183611486565b38611fb7565b611ffb611717565b611faf565b80610ce361200d92611415565b38611f8b565b61201b611717565b611f86565b612038919650883d8a11610dbe57610dac8183611486565b9438611f31565b612047611717565b611f29565b6001600160a01b03909116815260406020820181905261073d929101906106f8565b3d156120b6573d906001600160401b0382116120a9575b6040519161209d601f8201601f191660200184611486565b82523d6000602084013e565b6120b16113fe565b612085565b606090565b9091600080949381946040519160208301946323b872dd60e01b865260018060a01b0380921660248501521660448301526064820152606481526120fe81611450565b51925af161210a61206e565b81612143575b501561211857565b60405162461bcd60e51b815260206004820152600360248201526229aa2360e91b6044820152606490fd5b8051801592508215612158575b505038612110565b61216b9250602080918301019101611702565b3880612150565b600092918361219d6121ab8295604051928391602083019663a9059cbb60e01b8852602484016119b2565b03601f198101835282611486565b51925af16121b761206e565b816121ef575b50156121c557565b60405162461bcd60e51b815260206004820152600260248201526114d560f21b6044820152606490fd5b8051801592508215612204575b5050386121bd565b6122179250602080918301019101611702565b38806121fc565b906001820180921161150557565b9190820180921161150557565b60038210156105e05752565b9060038110156105e05760ff80198354169116179055565b906122ec60e060066114b69461227c6122768651610321565b82611573565b6020850151600182015561229f6122966040870151610321565b60028301611573565b606085015160038201556122c26122b96080870151610321565b60048301611573565b60a0850151600582015501926122e560c08201516122df816105d6565b85612245565b0151610321565b8154610100600160a81b03191660089190911b610100600160a81b0316179055565b929094939160405160208101906123618161219d858b8a334389939091607c9592855260018060601b03199384809260601b16602087015260601b166034850152604884015260601b1660688201520190565b51902095600561237088610f6e565b0154612450575b600561238288610f6e565b0154612437576123e4926123c56123ff969593836123a56123d59530338b6120bb565b6123b76123b06114b8565b9889611aa9565b602088015260408701611aa9565b6000606086015260808501611aa9565b4260a084015260c08301612239565b6123f13360e08301611aa9565b6123fa84610f6e565b61225d565b61240882612489565b506040518281527f12a866cc569301d2ff9fcbbae3decc9e0cf3fa94ddef08dd0de3e9a693fb8d1990602090a1565b604051634b92340560e01b815260048101889052602490fd5b9561245a9061221e565b95612377565b60025481101561247c575b600260005260206000200190600090565b612484611218565b61246b565b6000818152600360205260408120546124fc57604090826002546001841b8110156124ef575b60018101806002558110156124e2575b600080516020612b66833981519152015560025492815260036020522055600190565b6124ea611218565b6124bf565b6124f76113fe565b6124af565b905090565b906114b6600661250f6114b8565b9361252361251d8254610321565b86611aa9565b6001810154602086015261254661253d6002830154610321565b60408701611aa9565b600381015460608601526125696125606004830154610321565b60808701611aa9565b600581015460a0860152015461258560ff821660c08601612239565b60081c6001600160a01b031660e08401611aa9565b60025480156125d1576000801980830192808410156125c4575b6002835260208320010155600255565b6125cc611218565b6125b4565b634e487b7160e01b600052603160045260246000fd5b60008181526003602052604090205480156126ae57600091612642916000198082018281116126a1575b600254918201918211612694575b808203612648575b50505061263261259a565b6000526003602052604060002090565b55600190565b6126326126709161266861265e61268b95612460565b90549060031b1c90565b928391612460565b90919082549060031b600019811b9283911b16911916179055565b55388080612627565b61269c6114d8565b61261f565b6126a96114d8565b612611565b5050600090565b50634e487b7160e01b600052601260045260246000fd5b81156126d6570490565b6126de6126b5565b0490565b909161273692602061270c61265e6127036126fc866111ff565b54956111ff565b60010190600090565b9361271b610462600754610321565b6040518080988194631735856760e31b835260048301610f1b565b03915afa9384156127a8575b600094612788575b50818111612772579261276761276d92610b7861073d968461150d565b90611ed0565b611ed0565b50505061278161073d916114ef565b600a900490565b6127a191945060203d8111610dbe57610dac8183611486565b923861274a565b6127b0611717565b612742565b926127c392939491946126e2565b600754604051631735856760e31b81526001600160a01b0394851660048201529360209185916024918391165afa928315612865575b600093612841575b5080610b7884612814612823948661150d565b8115612834575b04948561150d565b0361282b5790565b61073d9061221e565b61283c6126b5565b61281b565b61282391935061285e9060203d8111610dbe57610dac8183611486565b9290612801565b61286d611717565b6127f9565b60005260016020526128876040600020612501565b60018060a01b0390818151169160408201511690602081015160c060a08301514203924284116128c7575b01519260038410156105e05761073d946127b5565b6128cf6114d8565b6128b2565b81156128de570690565b6128e66126b5565b0690565b6040519061010082016001600160401b0381118382101761293a575b6040528160e06000918281528260208201528260408201528260608201528260808201528260a08201528260c08201520152565b6129426113fe565b612906565b9061295182611819565b60409061296082519182611486565b8381528093612971601f1991611819565b0191600090815b848110612986575050505050565b602090825161299481611435565b61299c6128ea565b8152828581830152828701015201612978565b60019060001981146117f8570190565b6114b6906040519063f82c50f160e01b60208301526024820152602481526129e68161146b565b600080916020815191016a636f6e736f6c652e6c6f675afa50565b919082519283825260005b848110612a2d575050826000602080949584010152601f8019910116010190565b602081830181015184830182015201612a0c565b61219d6129e66114b69260405192839163104c13eb60e21b6020840152602060248401526044830190612a01565b60405163161765e160e11b60208201526001600160a01b0390911660248083019190915281526114b6906129e68161146b565b6129e6612ad1916114b69360405193849263319af33360e01b6020850152604060248501526064840190612a01565b6001600160a01b0391909116604483015203601f198101835282611486565b906129e66114b69261219d604051938492636d786a5560e11b6020850152602484016119dc565b6129e6916114b694612b479460405195869463a7a8785360e01b60208701526080602487015260a4860190612a01565b9260448501526064840152608483015203601f19810183528261148656fe405787fa12a823e0f2b7631cc41b3ba8828b3321ca811111fa75cd3aa3bb5acecdf98e0235c72ad7ae8de32249da25cc98298c8f11710c55a3d58e9e7ac69f94a26469706673582212208ef9080661557a3fb6087aa3151fe0b7ca1b5a08b6c0f81b72269e7fe145678664736f6c63430008110033",
  "devdoc": {
    "kind": "dev",
    "methods": {},
    "version": 1
  },
  "userdoc": {
    "kind": "user",
    "methods": {},
    "version": 1
  },
  "storageLayout": {
    "storage": [
      {
        "astId": 79,
        "contract": "contracts/liquidator/v2/contracts/Exchange.sol:Exchange",
        "label": "_initialized",
        "offset": 0,
        "slot": "0",
        "type": "t_uint8"
      },
      {
        "astId": 82,
        "contract": "contracts/liquidator/v2/contracts/Exchange.sol:Exchange",
        "label": "_initializing",
        "offset": 1,
        "slot": "0",
        "type": "t_bool"
      },
      {
        "astId": 2042,
        "contract": "contracts/liquidator/v2/contracts/Exchange.sol:Exchange",
        "label": "ACCESS_CONTROL_SINGLETON",
        "offset": 2,
        "slot": "0",
        "type": "t_contract(ISuAccessControl)2126"
      },
      {
        "astId": 2164,
        "contract": "contracts/liquidator/v2/contracts/Exchange.sol:Exchange",
        "label": "orders",
        "offset": 0,
        "slot": "1",
        "type": "t_mapping(t_uint256,t_struct(Order)3486_storage)"
      },
      {
        "astId": 2167,
        "contract": "contracts/liquidator/v2/contracts/Exchange.sol:Exchange",
        "label": "orderIdSet",
        "offset": 0,
        "slot": "2",
        "type": "t_struct(UintSet)1054_storage"
      },
      {
        "astId": 2174,
        "contract": "contracts/liquidator/v2/contracts/Exchange.sol:Exchange",
        "label": "priceCurve",
        "offset": 0,
        "slot": "4",
        "type": "t_mapping(t_enum(DiscountType)3468,t_array(t_uint256)2_storage)"
      },
      {
        "astId": 2178,
        "contract": "contracts/liquidator/v2/contracts/Exchange.sol:Exchange",
        "label": "lpTokenToPool",
        "offset": 0,
        "slot": "5",
        "type": "t_mapping(t_address,t_address)"
      },
      {
        "astId": 2180,
        "contract": "contracts/liquidator/v2/contracts/Exchange.sol:Exchange",
        "label": "DUST_THRESHHOLD",
        "offset": 0,
        "slot": "6",
        "type": "t_uint256"
      },
      {
        "astId": 2183,
        "contract": "contracts/liquidator/v2/contracts/Exchange.sol:Exchange",
        "label": "ORACLE",
        "offset": 0,
        "slot": "7",
        "type": "t_contract(ISuOracle)2137"
      },
      {
        "astId": 2186,
        "contract": "contracts/liquidator/v2/contracts/Exchange.sol:Exchange",
        "label": "TOP_STAKERS",
        "offset": 0,
        "slot": "8",
        "type": "t_contract(ITopStakers)3680"
      },
      {
        "astId": 3397,
        "contract": "contracts/liquidator/v2/contracts/Exchange.sol:Exchange",
        "label": "__gap",
        "offset": 0,
        "slot": "9",
        "type": "t_array(t_uint256)45_storage"
      }
    ],
    "types": {
      "t_address": {
        "encoding": "inplace",
        "label": "address",
        "numberOfBytes": "20"
      },
      "t_array(t_bytes32)dyn_storage": {
        "base": "t_bytes32",
        "encoding": "dynamic_array",
        "label": "bytes32[]",
        "numberOfBytes": "32"
      },
      "t_array(t_uint256)2_storage": {
        "base": "t_uint256",
        "encoding": "inplace",
        "label": "uint256[2]",
        "numberOfBytes": "64"
      },
      "t_array(t_uint256)45_storage": {
        "base": "t_uint256",
        "encoding": "inplace",
        "label": "uint256[45]",
        "numberOfBytes": "1440"
      },
      "t_bool": {
        "encoding": "inplace",
        "label": "bool",
        "numberOfBytes": "1"
      },
      "t_bytes32": {
        "encoding": "inplace",
        "label": "bytes32",
        "numberOfBytes": "32"
      },
      "t_contract(ISuAccessControl)2126": {
        "encoding": "inplace",
        "label": "contract ISuAccessControl",
        "numberOfBytes": "20"
      },
      "t_contract(ISuOracle)2137": {
        "encoding": "inplace",
        "label": "contract ISuOracle",
        "numberOfBytes": "20"
      },
      "t_contract(ITopStakers)3680": {
        "encoding": "inplace",
        "label": "contract ITopStakers",
        "numberOfBytes": "20"
      },
      "t_enum(DiscountType)3468": {
        "encoding": "inplace",
        "label": "enum DiscountType",
        "numberOfBytes": "1"
      },
      "t_mapping(t_address,t_address)": {
        "encoding": "mapping",
        "key": "t_address",
        "label": "mapping(address => address)",
        "numberOfBytes": "32",
        "value": "t_address"
      },
      "t_mapping(t_bytes32,t_uint256)": {
        "encoding": "mapping",
        "key": "t_bytes32",
        "label": "mapping(bytes32 => uint256)",
        "numberOfBytes": "32",
        "value": "t_uint256"
      },
      "t_mapping(t_enum(DiscountType)3468,t_array(t_uint256)2_storage)": {
        "encoding": "mapping",
        "key": "t_enum(DiscountType)3468",
        "label": "mapping(enum DiscountType => uint256[2])",
        "numberOfBytes": "32",
        "value": "t_array(t_uint256)2_storage"
      },
      "t_mapping(t_uint256,t_struct(Order)3486_storage)": {
        "encoding": "mapping",
        "key": "t_uint256",
        "label": "mapping(uint256 => struct Order)",
        "numberOfBytes": "32",
        "value": "t_struct(Order)3486_storage"
      },
      "t_struct(Order)3486_storage": {
        "encoding": "inplace",
        "label": "struct Order",
        "members": [
          {
            "astId": 3470,
            "contract": "contracts/liquidator/v2/contracts/Exchange.sol:Exchange",
            "label": "token2sell",
            "offset": 0,
            "slot": "0",
            "type": "t_address"
          },
          {
            "astId": 3472,
            "contract": "contracts/liquidator/v2/contracts/Exchange.sol:Exchange",
            "label": "amountLeft",
            "offset": 0,
            "slot": "1",
            "type": "t_uint256"
          },
          {
            "astId": 3474,
            "contract": "contracts/liquidator/v2/contracts/Exchange.sol:Exchange",
            "label": "token2buy",
            "offset": 0,
            "slot": "2",
            "type": "t_address"
          },
          {
            "astId": 3476,
            "contract": "contracts/liquidator/v2/contracts/Exchange.sol:Exchange",
            "label": "token2buyAmount",
            "offset": 0,
            "slot": "3",
            "type": "t_uint256"
          },
          {
            "astId": 3478,
            "contract": "contracts/liquidator/v2/contracts/Exchange.sol:Exchange",
            "label": "beneficiary",
            "offset": 0,
            "slot": "4",
            "type": "t_address"
          },
          {
            "astId": 3480,
            "contract": "contracts/liquidator/v2/contracts/Exchange.sol:Exchange",
            "label": "creationTimestamp",
            "offset": 0,
            "slot": "5",
            "type": "t_uint256"
          },
          {
            "astId": 3483,
            "contract": "contracts/liquidator/v2/contracts/Exchange.sol:Exchange",
            "label": "discountType",
            "offset": 0,
            "slot": "6",
            "type": "t_enum(DiscountType)3468"
          },
          {
            "astId": 3485,
            "contract": "contracts/liquidator/v2/contracts/Exchange.sol:Exchange",
            "label": "caller",
            "offset": 1,
            "slot": "6",
            "type": "t_address"
          }
        ],
        "numberOfBytes": "224"
      },
      "t_struct(Set)582_storage": {
        "encoding": "inplace",
        "label": "struct EnumerableSetUpgradeable.Set",
        "members": [
          {
            "astId": 577,
            "contract": "contracts/liquidator/v2/contracts/Exchange.sol:Exchange",
            "label": "_values",
            "offset": 0,
            "slot": "0",
            "type": "t_array(t_bytes32)dyn_storage"
          },
          {
            "astId": 581,
            "contract": "contracts/liquidator/v2/contracts/Exchange.sol:Exchange",
            "label": "_indexes",
            "offset": 0,
            "slot": "1",
            "type": "t_mapping(t_bytes32,t_uint256)"
          }
        ],
        "numberOfBytes": "64"
      },
      "t_struct(UintSet)1054_storage": {
        "encoding": "inplace",
        "label": "struct EnumerableSetUpgradeable.UintSet",
        "members": [
          {
            "astId": 1053,
            "contract": "contracts/liquidator/v2/contracts/Exchange.sol:Exchange",
            "label": "_inner",
            "offset": 0,
            "slot": "0",
            "type": "t_struct(Set)582_storage"
          }
        ],
        "numberOfBytes": "64"
      },
      "t_uint256": {
        "encoding": "inplace",
        "label": "uint256",
        "numberOfBytes": "32"
      },
      "t_uint8": {
        "encoding": "inplace",
        "label": "uint8",
        "numberOfBytes": "1"
      }
    }
  }
}