{
  "address": "0xB1C8138C69c8d045264B51DE960BBC506758CDB3",
  "abi": [
    {
      "inputs": [],
      "name": "BadAccessControlSingleton",
      "type": "error"
    },
    {
      "inputs": [],
      "name": "BadOutAmount",
      "type": "error"
    },
    {
      "inputs": [],
      "name": "CallbackError",
      "type": "error"
    },
    {
      "inputs": [
        {
          "internalType": "address",
          "name": "orderToken2buy",
          "type": "address"
        },
        {
          "internalType": "address",
          "name": "inToken",
          "type": "address"
        }
      ],
      "name": "IncorrectToken",
      "type": "error"
    },
    {
      "inputs": [
        {
          "internalType": "address",
          "name": "staker",
          "type": "address"
        }
      ],
      "name": "IsNotStaker",
      "type": "error"
    },
    {
      "inputs": [
        {
          "internalType": "address",
          "name": "staker",
          "type": "address"
        }
      ],
      "name": "IsNotTopStaker",
      "type": "error"
    },
    {
      "inputs": [],
      "name": "NotEnoughReturnValue",
      "type": "error"
    },
    {
      "inputs": [],
      "name": "OnlyAdminError",
      "type": "error"
    },
    {
      "inputs": [],
      "name": "OnlyAlerterError",
      "type": "error"
    },
    {
      "inputs": [],
      "name": "OnlyCDPAccessError",
      "type": "error"
    },
    {
      "inputs": [],
      "name": "OnlyDAOError",
      "type": "error"
    },
    {
      "inputs": [],
      "name": "OnlyDisablerAccessError",
      "type": "error"
    },
    {
      "inputs": [],
      "name": "OnlyLiquidationAccessError",
      "type": "error"
    },
    {
      "inputs": [],
      "name": "OnlyMintAccessError",
      "type": "error"
    },
    {
      "inputs": [],
      "name": "OnlyProxyActionsError",
      "type": "error"
    },
    {
      "inputs": [],
      "name": "OnlyRewardAccessError",
      "type": "error"
    },
    {
      "inputs": [],
      "name": "OnlyRoleError",
      "type": "error"
    },
    {
      "inputs": [],
      "name": "OnlyVaultAccessError",
      "type": "error"
    },
    {
      "inputs": [],
      "name": "OnlyVotingEscrowError",
      "type": "error"
    },
    {
      "inputs": [
        {
          "internalType": "uint256",
          "name": "orderId",
          "type": "uint256"
        }
      ],
      "name": "OrderExist",
      "type": "error"
    },
    {
      "inputs": [
        {
          "internalType": "uint256",
          "name": "orderId",
          "type": "uint256"
        }
      ],
      "name": "OrderNotExist",
      "type": "error"
    },
    {
      "inputs": [
        {
          "internalType": "uint256",
          "name": "orderId",
          "type": "uint256"
        },
        {
          "internalType": "address",
          "name": "staker",
          "type": "address"
        }
      ],
      "name": "OrderNotForThisStaker",
      "type": "error"
    },
    {
      "inputs": [],
      "name": "SmallAmountLeft",
      "type": "error"
    },
    {
      "inputs": [],
      "name": "UserIsNotBeneficiary",
      "type": "error"
    },
    {
      "anonymous": false,
      "inputs": [
        {
          "indexed": false,
          "internalType": "uint8",
          "name": "version",
          "type": "uint8"
        }
      ],
      "name": "Initialized",
      "type": "event"
    },
    {
      "anonymous": false,
      "inputs": [
        {
          "indexed": false,
          "internalType": "address",
          "name": "LPToken",
          "type": "address"
        },
        {
          "indexed": false,
          "internalType": "uint256[]",
          "name": "orderIds",
          "type": "uint256[]"
        }
      ],
      "name": "LpOrdersAdded",
      "type": "event"
    },
    {
      "anonymous": false,
      "inputs": [
        {
          "indexed": false,
          "internalType": "uint256",
          "name": "orderId",
          "type": "uint256"
        }
      ],
      "name": "OrderAdded",
      "type": "event"
    },
    {
      "anonymous": false,
      "inputs": [
        {
          "indexed": false,
          "internalType": "uint256",
          "name": "orderId",
          "type": "uint256"
        }
      ],
      "name": "OrderCanceled",
      "type": "event"
    },
    {
      "anonymous": false,
      "inputs": [
        {
          "indexed": false,
          "internalType": "uint256",
          "name": "orderId",
          "type": "uint256"
        }
      ],
      "name": "OrderFilled",
      "type": "event"
    },
    {
      "anonymous": false,
      "inputs": [
        {
          "indexed": false,
          "internalType": "uint256",
          "name": "orderId",
          "type": "uint256"
        }
      ],
      "name": "OrderFilledPartially",
      "type": "event"
    },
    {
      "inputs": [],
      "name": "ACCESS_CONTROL_SINGLETON",
      "outputs": [
        {
          "internalType": "contract ISuAccessControl",
          "name": "",
          "type": "address"
        }
      ],
      "stateMutability": "view",
      "type": "function"
    },
    {
      "inputs": [],
      "name": "ADMIN_ROLE",
      "outputs": [
        {
          "internalType": "bytes32",
          "name": "",
          "type": "bytes32"
        }
      ],
      "stateMutability": "view",
      "type": "function"
    },
    {
      "inputs": [],
      "name": "ALERTER_ROLE",
      "outputs": [
        {
          "internalType": "bytes32",
          "name": "",
          "type": "bytes32"
        }
      ],
      "stateMutability": "view",
      "type": "function"
    },
    {
      "inputs": [],
      "name": "CDP_ACCESS_ROLE",
      "outputs": [
        {
          "internalType": "bytes32",
          "name": "",
          "type": "bytes32"
        }
      ],
      "stateMutability": "view",
      "type": "function"
    },
    {
      "inputs": [],
      "name": "DAO_ROLE",
      "outputs": [
        {
          "internalType": "bytes32",
          "name": "",
          "type": "bytes32"
        }
      ],
      "stateMutability": "view",
      "type": "function"
    },
    {
      "inputs": [],
      "name": "DISABLER_ROLE",
      "outputs": [
        {
          "internalType": "bytes32",
          "name": "",
          "type": "bytes32"
        }
      ],
      "stateMutability": "view",
      "type": "function"
    },
    {
      "inputs": [],
      "name": "DUST_THRESHOLD",
      "outputs": [
        {
          "internalType": "uint256",
          "name": "",
          "type": "uint256"
        }
      ],
      "stateMutability": "view",
      "type": "function"
    },
    {
      "inputs": [],
      "name": "LIQUIDATION_ACCESS_ROLE",
      "outputs": [
        {
          "internalType": "bytes32",
          "name": "",
          "type": "bytes32"
        }
      ],
      "stateMutability": "view",
      "type": "function"
    },
    {
      "inputs": [],
      "name": "MINT_ACCESS_ROLE",
      "outputs": [
        {
          "internalType": "bytes32",
          "name": "",
          "type": "bytes32"
        }
      ],
      "stateMutability": "view",
      "type": "function"
    },
    {
      "inputs": [],
      "name": "ORACLE",
      "outputs": [
        {
          "internalType": "contract ISuOracleAggregator",
          "name": "",
          "type": "address"
        }
      ],
      "stateMutability": "view",
      "type": "function"
    },
    {
      "inputs": [],
      "name": "PROXY_ACTIONS_ROLE",
      "outputs": [
        {
          "internalType": "bytes32",
          "name": "",
          "type": "bytes32"
        }
      ],
      "stateMutability": "view",
      "type": "function"
    },
    {
      "inputs": [],
      "name": "REWARD_ACCESS_ROLE",
      "outputs": [
        {
          "internalType": "bytes32",
          "name": "",
          "type": "bytes32"
        }
      ],
      "stateMutability": "view",
      "type": "function"
    },
    {
      "inputs": [],
      "name": "TOP_STAKERS",
      "outputs": [
        {
          "internalType": "contract ITopStakers",
          "name": "",
          "type": "address"
        }
      ],
      "stateMutability": "view",
      "type": "function"
    },
    {
      "inputs": [],
      "name": "VOTING_ESCROW_ROLE",
      "outputs": [
        {
          "internalType": "bytes32",
          "name": "",
          "type": "bytes32"
        }
      ],
      "stateMutability": "view",
      "type": "function"
    },
    {
      "inputs": [
        {
          "internalType": "address",
          "name": "token2sell",
          "type": "address"
        },
        {
          "internalType": "uint256",
          "name": "amount2sell",
          "type": "uint256"
        },
        {
          "internalType": "address",
          "name": "token2buy",
          "type": "address"
        },
        {
          "internalType": "address",
          "name": "beneficiary",
          "type": "address"
        },
        {
          "internalType": "uint8",
          "name": "discountType",
          "type": "uint8"
        },
        {
          "internalType": "address",
          "name": "collateralJoin",
          "type": "address"
        }
      ],
      "name": "addOrder",
      "outputs": [
        {
          "internalType": "uint256",
          "name": "orderId",
          "type": "uint256"
        }
      ],
      "stateMutability": "nonpayable",
      "type": "function"
    },
    {
      "inputs": [
        {
          "internalType": "uint256",
          "name": "orderId",
          "type": "uint256"
        }
      ],
      "name": "cancelOrder",
      "outputs": [],
      "stateMutability": "nonpayable",
      "type": "function"
    },
    {
      "inputs": [
        {
          "internalType": "uint256",
          "name": "orderId",
          "type": "uint256"
        },
        {
          "internalType": "uint256",
          "name": "inAmount",
          "type": "uint256"
        },
        {
          "internalType": "bytes",
          "name": "data",
          "type": "bytes"
        }
      ],
      "name": "fillOrderAsFlashLoan",
      "outputs": [
        {
          "internalType": "uint256",
          "name": "outAmount",
          "type": "uint256"
        }
      ],
      "stateMutability": "nonpayable",
      "type": "function"
    },
    {
      "inputs": [
        {
          "internalType": "uint256",
          "name": "orderId",
          "type": "uint256"
        },
        {
          "internalType": "uint256",
          "name": "inAmount",
          "type": "uint256"
        }
      ],
      "name": "fillOrderSimple",
      "outputs": [
        {
          "internalType": "uint256",
          "name": "outAmount",
          "type": "uint256"
        }
      ],
      "stateMutability": "nonpayable",
      "type": "function"
    },
    {
      "inputs": [
        {
          "internalType": "uint256",
          "name": "offset",
          "type": "uint256"
        },
        {
          "internalType": "uint256",
          "name": "limit",
          "type": "uint256"
        }
      ],
      "name": "getAllOrders",
      "outputs": [
        {
          "components": [
            {
              "components": [
                {
                  "internalType": "address",
                  "name": "token2sell",
                  "type": "address"
                },
                {
                  "internalType": "address",
                  "name": "token2buy",
                  "type": "address"
                },
                {
                  "internalType": "address",
                  "name": "beneficiary",
                  "type": "address"
                },
                {
                  "internalType": "address",
                  "name": "caller",
                  "type": "address"
                },
                {
                  "internalType": "uint256",
                  "name": "amountLeft",
                  "type": "uint256"
                },
                {
                  "internalType": "uint256",
                  "name": "token2buyAmount",
                  "type": "uint256"
                },
                {
                  "internalType": "uint64",
                  "name": "creationTimestamp",
                  "type": "uint64"
                },
                {
                  "internalType": "uint8",
                  "name": "discountType",
                  "type": "uint8"
                }
              ],
              "internalType": "struct Order",
              "name": "order",
              "type": "tuple"
            },
            {
              "internalType": "uint256",
              "name": "orderId",
              "type": "uint256"
            }
          ],
          "internalType": "struct OrderWithId[]",
          "name": "",
          "type": "tuple[]"
        }
      ],
      "stateMutability": "view",
      "type": "function"
    },
    {
      "inputs": [
        {
          "internalType": "uint256",
          "name": "orderId",
          "type": "uint256"
        },
        {
          "internalType": "uint256",
          "name": "inAmount",
          "type": "uint256"
        }
      ],
      "name": "getExpectedOrderOutcome",
      "outputs": [
        {
          "internalType": "uint256",
          "name": "outAmount",
          "type": "uint256"
        }
      ],
      "stateMutability": "view",
      "type": "function"
    },
    {
      "inputs": [
        {
          "internalType": "uint256",
          "name": "orderId",
          "type": "uint256"
        }
      ],
      "name": "getOrder",
      "outputs": [
        {
          "components": [
            {
              "internalType": "address",
              "name": "token2sell",
              "type": "address"
            },
            {
              "internalType": "address",
              "name": "token2buy",
              "type": "address"
            },
            {
              "internalType": "address",
              "name": "beneficiary",
              "type": "address"
            },
            {
              "internalType": "address",
              "name": "caller",
              "type": "address"
            },
            {
              "internalType": "uint256",
              "name": "amountLeft",
              "type": "uint256"
            },
            {
              "internalType": "uint256",
              "name": "token2buyAmount",
              "type": "uint256"
            },
            {
              "internalType": "uint64",
              "name": "creationTimestamp",
              "type": "uint64"
            },
            {
              "internalType": "uint8",
              "name": "discountType",
              "type": "uint8"
            }
          ],
          "internalType": "struct Order",
          "name": "",
          "type": "tuple"
        }
      ],
      "stateMutability": "view",
      "type": "function"
    },
    {
      "inputs": [],
      "name": "getOrdersCount",
      "outputs": [
        {
          "internalType": "uint256",
          "name": "",
          "type": "uint256"
        }
      ],
      "stateMutability": "view",
      "type": "function"
    },
    {
      "inputs": [
        {
          "internalType": "address",
          "name": "_authControl",
          "type": "address"
        },
        {
          "internalType": "address",
          "name": "_oracleAddress",
          "type": "address"
        },
        {
          "internalType": "address",
          "name": "_topStakersAddress",
          "type": "address"
        }
      ],
      "name": "initialize",
      "outputs": [],
      "stateMutability": "nonpayable",
      "type": "function"
    },
    {
      "inputs": [
        {
          "internalType": "uint256",
          "name": "",
          "type": "uint256"
        }
      ],
      "name": "orders",
      "outputs": [
        {
          "internalType": "address",
          "name": "token2sell",
          "type": "address"
        },
        {
          "internalType": "address",
          "name": "token2buy",
          "type": "address"
        },
        {
          "internalType": "address",
          "name": "beneficiary",
          "type": "address"
        },
        {
          "internalType": "address",
          "name": "caller",
          "type": "address"
        },
        {
          "internalType": "uint256",
          "name": "amountLeft",
          "type": "uint256"
        },
        {
          "internalType": "uint256",
          "name": "token2buyAmount",
          "type": "uint256"
        },
        {
          "internalType": "uint64",
          "name": "creationTimestamp",
          "type": "uint64"
        },
        {
          "internalType": "uint8",
          "name": "discountType",
          "type": "uint8"
        }
      ],
      "stateMutability": "view",
      "type": "function"
    },
    {
      "inputs": [
        {
          "internalType": "uint8",
          "name": "",
          "type": "uint8"
        },
        {
          "internalType": "uint256",
          "name": "",
          "type": "uint256"
        }
      ],
      "name": "priceCurve",
      "outputs": [
        {
          "internalType": "uint256",
          "name": "",
          "type": "uint256"
        }
      ],
      "stateMutability": "view",
      "type": "function"
    },
    {
      "inputs": [
        {
          "internalType": "uint8",
          "name": "discountType",
          "type": "uint8"
        },
        {
          "internalType": "uint256[2]",
          "name": "newPriceCurve",
          "type": "uint256[2]"
        }
      ],
      "name": "setPriceCurve",
      "outputs": [],
      "stateMutability": "nonpayable",
      "type": "function"
    },
    {
      "inputs": [
        {
          "internalType": "bytes4",
          "name": "interfaceId",
          "type": "bytes4"
        }
      ],
      "name": "supportsInterface",
      "outputs": [
        {
          "internalType": "bool",
          "name": "",
          "type": "bool"
        }
      ],
      "stateMutability": "pure",
      "type": "function"
    }
  ],
  "numDeployments": 6,
  "solcInputHash": "063b59c64b6b03a7efa7d47f22e02344",
  "bytecode": "0x60808060405234610016576123c2908161001c8239f35b600080fdfe608080604052600436101561001357600080fd5b600090813560e01c90816301ffc9a714611b905750806303eaa21a14611ac057806303ee9f2214611a9557806338013f0214611a68578063418f2845146119f9578063438280dd146119be578063511df4421461150d578063514fcac71461141957806371d0fb41146113de57806375b238fc146113c25780638e5313e014611387578063a85c38ef146112f7578063b38234f3146112bc578063b5b3b0511461129e578063ba07fc5914611275578063bd5f5be61461123a578063c0c53b8b14610eb5578063d09ef24114610e72578063d0e8fa8214610e37578063d2351cee14610dfc578063d7c8ae8914610db9578063dc97e84e14610d7e578063dd7dc9a914610d60578063e2ed06de14610650578063e9c2651814610615578063ef3391bc146102ab5763f6243a041461014a57600080fd5b346102a85761015836611bd8565b9082526020916036835261016e60408220611e1a565b60c0810151909290610189906001600160401b031642611eb6565b6033548451604051631735856760e31b8082526001600160a01b03928316600483015260189390931c8216938882602481885afa91821561029d579089949392918892610269575b506101e960249392869260ff60e08d0151169161209b565b98015116916040519485938492835260048301525afa92831561025d5792610227575b5061021f9261021a91611cf3565b61207b565b604051908152f35b9091508381813d8311610256575b61023f8183611cb5565b8101031261025157519061021f61020c565b600080fd5b503d610235565b604051903d90823e3d90fd5b809392508591953d8311610296575b6102828183611cb5565b8101031261025157905188936101e96101d1565b503d610278565b6040513d89823e3d90fd5b80fd5b50346102a85760c03660031901126102a8576102c5611c52565b602435906102d1611c68565b916064356001600160a01b0381169190829003610611576084359160ff8316830361060d5760a4356001600160a01b03811690819003610609578061059d57506040516323b872dd60e01b81526020818061033186303360048501611d4f565b03818a6001600160a01b038a165af1801561029d5761056f575b505b60405160208101904382523360601b604082015260018060601b0319808760601b1660548301528460688301528760601b166088820152607c815260a0810181811060018060401b038211176105595760405251902094858752603660205260018060401b03600660408920015416610533575b858752603660205260408720600601546001600160401b031661051a57956006926040926020988451976103f489611c99565b60018060a01b0316885260018060a01b0316898801528387015233606087015260808601528060a0860152600180831b03421660c086015260ff60e0860194168452858152603687522060018060a01b0384511660018060a01b031990818354161782556001820160018060a01b038887015116828254161790556002820160018060a01b0360408701511682825416179055600382019060018060a01b03606087015116908254161790556080840151600482015560a08401516005820155019160c060018060401b039101511682549160ff60401b905160401b169160018060481b031916171790556104e881611daf565b507f12a866cc569301d2ff9fcbbae3decc9e0cf3fa94ddef08dd0de3e9a693fb8d1982604051838152a1604051908152f35b604051634b92340560e01b815260048101879052602490fd5b946001810180911161054557946103c1565b634e487b7160e01b87526011600452602487fd5b634e487b7160e01b600052604160045260246000fd5b61058f9060203d8111610596575b6105878183611cb5565b810190611d1c565b503861034b565b503d61057d565b803b156106095786604051809263ef693bed60e01b82528183816105c5893060048401611d34565b03925af1801561029d576105da575b5061034d565b9095906001600160401b0381116105f55760405294386105d4565b634e487b7160e01b82526041600452602482fd5b8680fd5b8580fd5b8480fd5b50346102a857806003193601126102a85760206040517f3b5d4cc60d3ec3516ee8ae083bd60934f6eb2a6c54b1229985c41bfb092b26038152f35b50346102a85760603660031901126102a8576001600160401b0390604435908282116102a857366023830112156102a857816004013561068f81611cd8565b9261069d6040519485611cb5565b8184523660248383010111610d5c578183926024602093018387013784010152600260015414610d17576002600155602435916004358252603660205260408220936006850154168015610cfe576106f59042611eb6565b845460018601546001600160a01b039081169392911690603c8111610c8857603454604051631bdff1b760e21b81526001600160a01b0390911690602081600481855afa90811561029d578791610c56575b50604051629fabeb60e81b8152602081600481865afa908115610c4b578891610c14575b5060249160209181811115610c0c5750925b60405162650fcd60e31b815233600482015292839182905afa90811561029d578791610bed575b5015610bd5576107c06107b782336120fe565b916004356120fe565b03610bb3575b6004870154808711610bab575b50603354604051632a5001c960e01b81526004810184905290602090829060249082908a9060181c6001600160a01b03165af1908115610b6c578691610b77575b5061082a9160ff60068a015460401c169161209b565b9484602060018060a01b0360335460181c16602460405180948193632a5001c960e01b83528a60048401525af18015610b6c578690610b38575b610873915061021a8884611cf3565b958615610b265760058801610889888254611d71565b90556108998260048a0154611eb6565b8060048a01558015159182610b04575b5050610af2576108ba913390611fdd565b6040516370a0823160e01b8082523060048301529091602083602481875afa928315610a9b578593610abe575b5060405190633517a9e160e11b82528460048301528660248301523360448301526080606483015281815191826084830152875b838110610aa657505060a48183898360209684010152601f8019910116810103018188335af1908115610a9b578591610a7c575b5015610a6a57604051908152306004820152602081602481865afa908115610a5f5785908592610a25575b506109859192611d71565b11610a13576020936109a78460049360018060a01b0360028501541690611fdd565b01546109f45760406109c29160043581526036855220611e8c565b6109cd600435611ec3565b5060008051602061236d833981519152826040516004358152a15b60018055604051908152f35b5060008051602061234d833981519152826040516004358152a16109e8565b60405163395c945760e11b8152600490fd5b9150506020813d602011610a57575b81610a4160209383611cb5565b81010312610a5357518461098561097a565b8380fd5b3d9150610a34565b6040513d86823e3d90fd5b60405163c286d75960e01b8152600490fd5b610a95915060203d602011610596576105878183611cb5565b3861094f565b6040513d87823e3d90fd5b602082820181015160a487840101528593500161091b565b9092506020813d602011610aea575b81610ada60209383611cb5565b81010312610611575191386108e7565b3d9150610acd565b60405163117be23960e31b8152600490fd5b670de0b6b3a7640000925090610b1991611cf3565b04603554101538806108a9565b60405163ebda174360e01b8152600490fd5b506020813d602011610b64575b81610b5260209383611cb5565b8101031261060d576108739051610864565b3d9150610b45565b6040513d88823e3d90fd5b90506020813d602011610ba3575b81610b9260209383611cb5565b8101031261060d575161082a610814565b3d9150610b85565b9550386107d3565b604051636d5e923560e01b815280610bd13360048035908401612108565b0390fd5b60405163a849de1760e01b8152336004820152602490fd5b610c06915060203d602011610596576105878183611cb5565b386107a4565b90509261077d565b90506020813d602011610c43575b81610c2f60209383611cb5565b81010312610c3f5751602461076b565b8780fd5b3d9150610c22565b6040513d8a823e3d90fd5b90506020813d602011610c80575b81610c7160209383611cb5565b81010312610609575138610747565b3d9150610c64565b603454604051636f1e853360e01b815233600482015290602090829060249082906001600160a01b03165afa908115610b6c578691610cdf575b506107c657604051631953278360e21b8152336004820152602490fd5b610cf8915060203d602011610596576105878183611cb5565b38610cc2565b60246040516373a98b6360e11b81526004356004820152fd5b60405162461bcd60e51b815260206004820152601f60248201527f5265656e7472616e637947756172643a207265656e7472616e742063616c6c006044820152606490fd5b8280fd5b50346102a857806003193601126102a8576020603554604051908152f35b50346102a857806003193601126102a85760206040517f9a9aef7c1247d5fc769b0185c052913e39673da29a880317dfd20ebf86f26a498152f35b50346102a85760403660031901126102a857610dd3611bc8565b60ff602435911682526039602052604082206002821015610d5c57602092500154604051908152f35b50346102a857806003193601126102a85760206040517fb0fdd1623e42dbffda4acd8bd643e1cb69f00f0e83abeaa8150ee42cf0fd105e8152f35b50346102a857806003193601126102a85760206040517f76d0567582f23e1e9d7a13eeba60f9aea9d69b8da87ca27a8bf3698b35c653db8152f35b50346102a85760203660031901126102a857610ea6604061010092610e95612121565b506004358152603660205220611e1a565b610eb36040518092611bee565bf35b50346102a85760603660031901126102a857610ecf611c52565b6001600160a01b0390602435908282168203610a5357610eed611c68565b9284549360ff93848660081c16159384809561122e575b8015611218575b156111bc57600196858860ff198316178a556111ab575b508754868160081c16156111525762010000600160b01b031916601082901b62010000600160b01b0316178855831680159081156110f6575b506110e4576033906202010062ffffff1983541617825560405195610f7f87611c7e565b610384875260209689888201528980526039885260408a2090898b5b600281106110ce5750505050604051610fb381611c7e565b6202bf208152898882015281845460081c168a526039885260408a2090898b5b600281106110b7575050505060405190610fec82611c7e565b6206978082528988830152835460101c168952603987526040892090888a5b600281106110a057505068056bc75e2d63100000603555505081546301000000600160b81b03191660189190911b6301000000600160b81b0316179055603480546001600160a01b03191692909116919091179055611068578280f35b825461ff00191683556040519182527f7f26b83ff96e1f2b6a682f133852f6798a09c465da95921460cefb384740249891a138808280f35b8962ffffff8451169301928185015501899061100b565b8a62ffffff84511693019281850155018a90610fd3565b8a61ffff84511693019281850155018a90610f9b565b6040516384d942fd60e01b8152600490fd5b6040516301ffc9a760e01b8152637965db0b60e01b60048201529150602090829060249082905afa908115610c4b578891611134575b501538610f5b565b61114c915060203d8111610596576105878183611cb5565b3861112c565b60405162461bcd60e51b815260206004820152602b60248201527f496e697469616c697a61626c653a20636f6e7472616374206973206e6f74206960448201526a6e697469616c697a696e6760a81b6064820152608490fd5b61ffff191661010117885538610f22565b60405162461bcd60e51b815260206004820152602e60248201527f496e697469616c697a61626c653a20636f6e747261637420697320616c72656160448201526d191e481a5b9a5d1a585b1a5e995960921b6064820152608490fd5b50303b158015610f0b5750600186881614610f0b565b50600186881610610f04565b50346102a857806003193601126102a85760206040517f4f14c8366fa999817edc9f29824eb88a00cc31225e2156f399da4bc91049eb108152f35b50346102a857806003193601126102a8576034546040516001600160a01b039091168152602090f35b50346102a857806003193601126102a8576020603754604051908152f35b50346102a857806003193601126102a85760206040517fd83f5343da19b478b15a140c301a868be9e02603958f38fbd822b9d5c0a289168152f35b50346102a85760203660031901126102a857604061010091600435815260366020522060ff60018060a01b038083541692816001820154169180600283015416906003830154166004830154916006600585015494015494604051978852602088015260408701526060860152608085015260a084015260018060401b03811660c084015260401c1660e0820152f35b50346102a857806003193601126102a85760206040517fe453bacb314e78dcd5192e6b1a2b1f0e7c76e92f6b7e429a6a90f04e39db3b768152f35b50346102a857806003193601126102a857602090604051908152f35b50346102a857806003193601126102a85760206040517f880a91047114272656e533301261260c75e4d11543ac7303d6fe4204579ec7278152f35b50346102a85760203660031901126102a857600435808252603660205261144260408320611e1a565b60c08101516001600160401b0316156114f45760408101516001600160a01b0392908316331415806114e4575b6114d2576114ab8260807fc41f4ceb2938876c35e61b705e9d2f18a02c4a26ce5e049a6308a943d46851b3956020955116910151903390611fdd565b808452603682526114be60408520611e8c565b6114c781611ec3565b50604051908152a180f35b60405163da383fb560e01b8152600490fd5b508260608301511633141561146f565b6040516373a98b6360e11b815260048101839052602490fd5b50346102a85761151c36611bd8565b91829180825260209360368552604083209360018060401b0360068601541680156119a55761154b9042611eb6565b94603c861161193257603454604051631bdff1b760e21b81526001600160a01b03909116908881600481855afa90811561029d578791611905575b50604051629fabeb60e81b81528981600481865afa908115610c4b57908a9189916118d5575b5060249290818111156118cd5750925b60405162650fcd60e31b815233600482015292839182905afa90811561029d5787916118b0575b5015610bd5576115fd6115f682336120fe565b91866120fe565b03611894575b6004810192835480911161188c575b506033548154604051632a5001c960e01b8082526001600160a01b0392831660048301529891928a90829060181c8516818b5a92602493f1908115610c4b57889161185d575b5061166e9160ff600686015460401c169161209b565b968160335460181c16896001850192602485855416918b6040519586948593845260048401525af18015610c4b57889061182e575b6116b2915061021a8a87611cf3565b978815610b2657600584016116c88a8254611d71565b90556116d5858754611eb6565b808755801515918261180c575b5050610af2578682819254168a828b61172a8760028a0154169361171c6040519384928301966323b872dd60e01b88523360248501611d4f565b03601f198101835282611cb5565b51925af1611736611fad565b816117dc575b50156117b15791611754918895949333915416611fdd565b546117945761177b6040848360008051602061236d83398151915296526036855220611e8c565b61178481611ec3565b50604051908152a1604051908152f35b60008051602061234d8339815191529250604051908152a161021f565b60405162461bcd60e51b815260048101899052600360248201526229aa2360e91b6044820152606490fd5b8051801592508a9083156117f4575b5050503861173c565b6118049350820181019101611d1c565b3889816117eb565b670de0b6b3a764000092509061182191611cf3565b04603554101538806116e2565b508981813d8311611856575b6118448183611cb5565b81010312610c3f576116b290516116a3565b503d61183a565b90508981813d8311611885575b6118748183611cb5565b81010312610c3f575161166e611658565b503d61186a565b915038611612565b604051636d5e923560e01b815280610bd1338760048401612108565b6118c79150893d8b11610596576105878183611cb5565b386115e3565b9050926115bc565b82819392503d83116118fe575b6118ec8183611cb5565b81010312610c3f5751899060246115ac565b503d6118e2565b90508881813d831161192b575b61191c8183611cb5565b81010312610609575138611586565b503d611912565b603454604051636f1e853360e01b8152336004820152908890829060249082906001600160a01b03165afa908115610b6c578691611988575b5061160357604051631953278360e21b8152336004820152602490fd5b61199f9150883d8a11610596576105878183611cb5565b3861196b565b6040516373a98b6360e11b815260048101859052602490fd5b50346102a857806003193601126102a85760206040517f39f61ca2a1a28fee144218173ec637b649a353e4026b2738c673800e5bf1437b8152f35b50346102a857611a11611a0b36611bd8565b9061218a565b60405190602080830190808452825180925280604085019301945b828110611a395784840385f35b90919282610120600192828951611a51838251611bee565b015161010082015201960191019492919094611a2c565b50346102a857806003193601126102a85760335460405160189190911c6001600160a01b03168152602090f35b50346102a857806003193601126102a8575460405160109190911c6001600160a01b03168152602090f35b50346102a85760603660031901126102a857611ada611bc8565b36606411611b8c578154604051632474521560e21b8152600481018490523360248201526020929183908290604490829060101c6001600160a01b03165afa908115610a5f578491611b6f575b5015611b5d5760ff1682526039815260408220602490835b60028110611b4b578480f35b82358282015591830191600101611b3f565b604051631886ea7d60e11b8152600490fd5b611b869150833d8511610596576105878183611cb5565b38611b27565b5080fd5b905034611b8c576020366003190112611b8c5760043563ffffffff60e01b8116809103610d5c576346fed7f760e11b14815260209150f35b6004359060ff8216820361025157565b6040906003190112610251576004359060243590565b60ff60e0809260018060a01b0380825116865280602083015116602087015280604083015116604087015260608201511660608601526080810151608086015260a081015160a086015260018060401b0360c08201511660c0860152015116910152565b600435906001600160a01b038216820361025157565b604435906001600160a01b038216820361025157565b604081019081106001600160401b0382111761055957604052565b61010081019081106001600160401b0382111761055957604052565b601f909101601f19168101906001600160401b0382119082101761055957604052565b6001600160401b03811161055957601f01601f191660200190565b81810292918115918404141715611d0657565b634e487b7160e01b600052601160045260246000fd5b90816020910312610251575180151581036102515790565b6001600160a01b039091168152602081019190915260400190565b6001600160a01b03918216815291166020820152604081019190915260600190565b91908201809211611d0657565b603754811015611d9957603760005260206000200190600090565b634e487b7160e01b600052603260045260246000fd5b600081815260386020526040812054611e1557603754600160401b8110156105f5579082611e01611de884600160409601603755611d7e565b819391549060031b600019811b9283911b169119161790565b905560375492815260386020522055600190565b905090565b90604051611e2781611c99565b60e060ff6006839560018060a01b03808254168652806001830154166020870152806002830154166040870152600382015416606086015260048101546080860152600581015460a0860152015460018060401b03811660c085015260401c16910152565b60066000918281558260018201558260028201558260038201558260048201558260058201550155565b91908203918211611d0657565b6000818152603860205260408120549091908015611fa85760001990808201818111611f945760375490838201918211611f8057808203611f4c575b5050506037548015611f3857810190611f1782611d7e565b909182549160031b1b19169055603755815260386020526040812055600190565b634e487b7160e01b84526031600452602484fd5b611f6a611f5b611de893611d7e565b90549060031b1c928392611d7e565b9055845260386020526040842055388080611eff565b634e487b7160e01b86526011600452602486fd5b634e487b7160e01b85526011600452602485fd5b505090565b3d15611fd8573d90611fbe82611cd8565b91611fcc6040519384611cb5565b82523d6000602084013e565b606090565b600092918361171c6120088295604051928391602083019663a9059cbb60e01b885260248401611d34565b51925af1612014611fad565b8161204c575b501561202257565b60405162461bcd60e51b815260206004820152600260248201526114d560f21b6044820152606490fd5b8051801592508215612061575b50503861201a565b6120749250602080918301019101611d1c565b3880612059565b8115612085570490565b634e487b7160e01b600052601260045260246000fd5b9160ff166000526039602052604060002054600160406000200154918181116120e157926120d36120d99261021a6120de9684611cf3565b90611eb6565b611eb6565b90565b5050508060031b9080820460081490151715611d0657600a900490565b8115612085570690565b9081526001600160a01b03909116602082015260400190565b6040519061212e82611c99565b8160e06000918281528260208201528260408201528260608201528260808201528260a08201528260c08201520152565b6001600160401b0381116105595760051b60200190565b8051821015611d995760209160051b010190565b604080516037805480835260009182529195946020949391927f42a7b7dd785cd69714a189dffb3fd7d7174edc9ece837694ce50f7078f7c31ae90889087820190865b89828210612336575050506121e492500388611cb5565b86519081156122fd57816121f88287611d71565b11156122ec5750925b808411156122e5576122138185611eb6565b945b61221e8661215f565b9561222b84519788611cb5565b80875261223a601f199161215f565b0181855b8281106122bd57505050815b85811061225c57509496505050505050565b6122ab612269828b612176565b51808752603684528587209061228987519261228484611c7e565b611e1a565b8252848201526122998584611eb6565b906122a4828b612176565b5288612176565b506000198114611f945760010161224a565b85516122c881611c7e565b6122d0612121565b8152878382015282828b01015201829061223e565b8294612215565b6122f7915084611d71565b92612201565b505080519495509092840191506001600160401b038211848310176123225752815290565b634e487b7160e01b83526041600452602483fd5b855484526001958601958d9550930192016121cd56fec238a2d1c485b17bfd980b5e6d0483704cd4720118eb06215758d49f85ea8963cdf98e0235c72ad7ae8de32249da25cc98298c8f11710c55a3d58e9e7ac69f94a26469706673582212202c216033c9578848232defc2db18e63553287f77faeaad3dd4a7e683101576f164736f6c63430008110033",
  "devdoc": {
    "details": "See IExchange interface for full details.",
    "kind": "dev",
    "methods": {
      "addOrder(address,uint256,address,address,uint8,address)": {
        "details": "This swap is async, because depends on how arbitrage bots will fill this order. Emits OrderAdded() event. Before addOrder user needs to approve token2sell for exchange contract",
        "params": {
          "amount2sell": "- Amount of {token2sell} to sell",
          "beneficiary": "- Address that will receive {token2buy} after filling order.",
          "collateralJoin": "- address of collateral adapter*",
          "discountType": "- Speed of decreasing swap price. { 0 - aggressive, 1 - middle, 2 - conservative }",
          "token2buy": "- Address of token to buy",
          "token2sell": "- Address of token to sell"
        }
      },
      "cancelOrder(uint256)": {
        "params": {
          "orderId": "- Id of order to cancel.*"
        }
      },
      "fillOrderAsFlashLoan(uint256,uint256,bytes)": {
        "details": "Caller contract receive orders {token2sell} and after that his stableunitFillOrderCallback() is called. At the end of thi callback contract should send some amount of another token back to Exchange contract.",
        "params": {
          "data": "- encoded data to pass to callback function*",
          "inAmount": "- Amount of {token2sell} to receive",
          "orderId": "- Id of order to fill."
        }
      },
      "getExpectedOrderOutcome(uint256,uint256)": {
        "returns": {
          "outAmount": "The amount of outcome that caller will receive if he will fill {orderId} with {inAmount} of {token2sell}*"
        }
      },
      "getOrder(uint256)": {
        "returns": {
          "_0": "Order with id = {orderId}*"
        }
      },
      "getOrdersCount()": {
        "returns": {
          "_0": "The amount of not full-filled orders*"
        }
      },
      "setPriceCurve(uint8,uint256[2])": {
        "params": {
          "discountType": "- discount type to change",
          "newPriceCurve": "- parameters of formula*"
        }
      },
      "supportsInterface(bytes4)": {
        "details": "Returns true if this contract implements the interface defined by `interfaceId`. See the corresponding https://eips.ethereum.org/EIPS/eip-165#how-interfaces-are-identified[EIP section] to learn more about how these ids are created. This function call must use less than 30 000 gas."
      }
    },
    "title": "Exchange",
    "version": 1
  },
  "userdoc": {
    "kind": "user",
    "methods": {
      "DUST_THRESHOLD()": {
        "notice": "Amount of minimum amountLeft in order. It's measured in fiat. For example DUST_THRESHOLD = 100 * 1e18 => it's 100 USD*"
      },
      "addOrder(address,uint256,address,address,uint8,address)": {
        "notice": "Add order to swap {token2sell} to {token2buy}."
      },
      "cancelOrder(uint256)": {
        "notice": "Only user who place order or who is beneficiary can cancelOrder();"
      },
      "fillOrderAsFlashLoan(uint256,uint256,bytes)": {
        "notice": "Fill order with flash-loan like logic"
      },
      "getAllOrders(uint256,uint256)": {
        "notice": "This method can be deleted after we'll add GraphQL to watch orders*"
      },
      "priceCurve(uint8,uint256)": {
        "notice": "priceCurve is like price_t = price_0 * (1 - t/priceCurve[0]) - priceCurve[1] from timePassed = 0 to t priceCurve decrease linear, but after t (when discount is 20%), it's constant*"
      },
      "setPriceCurve(uint8,uint256[2])": {
        "notice": "Function to update price curve - how fast {token2sell} price will decrease/increase"
      }
    },
    "notice": "Main contract of Exchange module. Here we can add order or fill it to get profit.",
    "version": 1
  },
  "storageLayout": {
    "storage": [
      {
        "astId": 462,
        "contract": "contracts/exchange/contracts/Exchange.sol:Exchange",
        "label": "_initialized",
        "offset": 0,
        "slot": "0",
        "type": "t_uint8"
      },
      {
        "astId": 465,
        "contract": "contracts/exchange/contracts/Exchange.sol:Exchange",
        "label": "_initializing",
        "offset": 1,
        "slot": "0",
        "type": "t_bool"
      },
      {
        "astId": 26374,
        "contract": "contracts/exchange/contracts/Exchange.sol:Exchange",
        "label": "ACCESS_CONTROL_SINGLETON",
        "offset": 2,
        "slot": "0",
        "type": "t_contract(ISuAccessControl)29456"
      },
      {
        "astId": 639,
        "contract": "contracts/exchange/contracts/Exchange.sol:Exchange",
        "label": "_status",
        "offset": 0,
        "slot": "1",
        "type": "t_uint256"
      },
      {
        "astId": 708,
        "contract": "contracts/exchange/contracts/Exchange.sol:Exchange",
        "label": "__gap",
        "offset": 0,
        "slot": "2",
        "type": "t_array(t_uint256)49_storage"
      },
      {
        "astId": 15784,
        "contract": "contracts/exchange/contracts/Exchange.sol:Exchange",
        "label": "DISCOUNT_TYPE_AGGRESSIVE",
        "offset": 0,
        "slot": "51",
        "type": "t_uint8"
      },
      {
        "astId": 15786,
        "contract": "contracts/exchange/contracts/Exchange.sol:Exchange",
        "label": "DISCOUNT_TYPE_MIDDLE",
        "offset": 1,
        "slot": "51",
        "type": "t_uint8"
      },
      {
        "astId": 15788,
        "contract": "contracts/exchange/contracts/Exchange.sol:Exchange",
        "label": "DISCOUNT_TYPE_CONSERVATIVE",
        "offset": 2,
        "slot": "51",
        "type": "t_uint8"
      },
      {
        "astId": 15791,
        "contract": "contracts/exchange/contracts/Exchange.sol:Exchange",
        "label": "ORACLE",
        "offset": 3,
        "slot": "51",
        "type": "t_contract(ISuOracleAggregator)29701"
      },
      {
        "astId": 15794,
        "contract": "contracts/exchange/contracts/Exchange.sol:Exchange",
        "label": "TOP_STAKERS",
        "offset": 0,
        "slot": "52",
        "type": "t_contract(ITopStakers)35463"
      },
      {
        "astId": 15797,
        "contract": "contracts/exchange/contracts/Exchange.sol:Exchange",
        "label": "DUST_THRESHOLD",
        "offset": 0,
        "slot": "53",
        "type": "t_uint256"
      },
      {
        "astId": 15806,
        "contract": "contracts/exchange/contracts/Exchange.sol:Exchange",
        "label": "orders",
        "offset": 0,
        "slot": "54",
        "type": "t_mapping(t_uint256,t_struct(Order)16900_storage)"
      },
      {
        "astId": 15809,
        "contract": "contracts/exchange/contracts/Exchange.sol:Exchange",
        "label": "orderIdSet",
        "offset": 0,
        "slot": "55",
        "type": "t_struct(UintSet)4886_storage"
      },
      {
        "astId": 15816,
        "contract": "contracts/exchange/contracts/Exchange.sol:Exchange",
        "label": "priceCurve",
        "offset": 0,
        "slot": "57",
        "type": "t_mapping(t_uint8,t_array(t_uint256)2_storage)"
      },
      {
        "astId": 16880,
        "contract": "contracts/exchange/contracts/Exchange.sol:Exchange",
        "label": "__gap",
        "offset": 0,
        "slot": "58",
        "type": "t_array(t_uint256)45_storage"
      }
    ],
    "types": {
      "t_address": {
        "encoding": "inplace",
        "label": "address",
        "numberOfBytes": "20"
      },
      "t_array(t_bytes32)dyn_storage": {
        "base": "t_bytes32",
        "encoding": "dynamic_array",
        "label": "bytes32[]",
        "numberOfBytes": "32"
      },
      "t_array(t_uint256)2_storage": {
        "base": "t_uint256",
        "encoding": "inplace",
        "label": "uint256[2]",
        "numberOfBytes": "64"
      },
      "t_array(t_uint256)45_storage": {
        "base": "t_uint256",
        "encoding": "inplace",
        "label": "uint256[45]",
        "numberOfBytes": "1440"
      },
      "t_array(t_uint256)49_storage": {
        "base": "t_uint256",
        "encoding": "inplace",
        "label": "uint256[49]",
        "numberOfBytes": "1568"
      },
      "t_bool": {
        "encoding": "inplace",
        "label": "bool",
        "numberOfBytes": "1"
      },
      "t_bytes32": {
        "encoding": "inplace",
        "label": "bytes32",
        "numberOfBytes": "32"
      },
      "t_contract(ISuAccessControl)29456": {
        "encoding": "inplace",
        "label": "contract ISuAccessControl",
        "numberOfBytes": "20"
      },
      "t_contract(ISuOracleAggregator)29701": {
        "encoding": "inplace",
        "label": "contract ISuOracleAggregator",
        "numberOfBytes": "20"
      },
      "t_contract(ITopStakers)35463": {
        "encoding": "inplace",
        "label": "contract ITopStakers",
        "numberOfBytes": "20"
      },
      "t_mapping(t_bytes32,t_uint256)": {
        "encoding": "mapping",
        "key": "t_bytes32",
        "label": "mapping(bytes32 => uint256)",
        "numberOfBytes": "32",
        "value": "t_uint256"
      },
      "t_mapping(t_uint256,t_struct(Order)16900_storage)": {
        "encoding": "mapping",
        "key": "t_uint256",
        "label": "mapping(uint256 => struct Order)",
        "numberOfBytes": "32",
        "value": "t_struct(Order)16900_storage"
      },
      "t_mapping(t_uint8,t_array(t_uint256)2_storage)": {
        "encoding": "mapping",
        "key": "t_uint8",
        "label": "mapping(uint8 => uint256[2])",
        "numberOfBytes": "32",
        "value": "t_array(t_uint256)2_storage"
      },
      "t_struct(Order)16900_storage": {
        "encoding": "inplace",
        "label": "struct Order",
        "members": [
          {
            "astId": 16885,
            "contract": "contracts/exchange/contracts/Exchange.sol:Exchange",
            "label": "token2sell",
            "offset": 0,
            "slot": "0",
            "type": "t_address"
          },
          {
            "astId": 16887,
            "contract": "contracts/exchange/contracts/Exchange.sol:Exchange",
            "label": "token2buy",
            "offset": 0,
            "slot": "1",
            "type": "t_address"
          },
          {
            "astId": 16889,
            "contract": "contracts/exchange/contracts/Exchange.sol:Exchange",
            "label": "beneficiary",
            "offset": 0,
            "slot": "2",
            "type": "t_address"
          },
          {
            "astId": 16891,
            "contract": "contracts/exchange/contracts/Exchange.sol:Exchange",
            "label": "caller",
            "offset": 0,
            "slot": "3",
            "type": "t_address"
          },
          {
            "astId": 16893,
            "contract": "contracts/exchange/contracts/Exchange.sol:Exchange",
            "label": "amountLeft",
            "offset": 0,
            "slot": "4",
            "type": "t_uint256"
          },
          {
            "astId": 16895,
            "contract": "contracts/exchange/contracts/Exchange.sol:Exchange",
            "label": "token2buyAmount",
            "offset": 0,
            "slot": "5",
            "type": "t_uint256"
          },
          {
            "astId": 16897,
            "contract": "contracts/exchange/contracts/Exchange.sol:Exchange",
            "label": "creationTimestamp",
            "offset": 0,
            "slot": "6",
            "type": "t_uint64"
          },
          {
            "astId": 16899,
            "contract": "contracts/exchange/contracts/Exchange.sol:Exchange",
            "label": "discountType",
            "offset": 8,
            "slot": "6",
            "type": "t_uint8"
          }
        ],
        "numberOfBytes": "224"
      },
      "t_struct(Set)4414_storage": {
        "encoding": "inplace",
        "label": "struct EnumerableSetUpgradeable.Set",
        "members": [
          {
            "astId": 4409,
            "contract": "contracts/exchange/contracts/Exchange.sol:Exchange",
            "label": "_values",
            "offset": 0,
            "slot": "0",
            "type": "t_array(t_bytes32)dyn_storage"
          },
          {
            "astId": 4413,
            "contract": "contracts/exchange/contracts/Exchange.sol:Exchange",
            "label": "_indexes",
            "offset": 0,
            "slot": "1",
            "type": "t_mapping(t_bytes32,t_uint256)"
          }
        ],
        "numberOfBytes": "64"
      },
      "t_struct(UintSet)4886_storage": {
        "encoding": "inplace",
        "label": "struct EnumerableSetUpgradeable.UintSet",
        "members": [
          {
            "astId": 4885,
            "contract": "contracts/exchange/contracts/Exchange.sol:Exchange",
            "label": "_inner",
            "offset": 0,
            "slot": "0",
            "type": "t_struct(Set)4414_storage"
          }
        ],
        "numberOfBytes": "64"
      },
      "t_uint256": {
        "encoding": "inplace",
        "label": "uint256",
        "numberOfBytes": "32"
      },
      "t_uint64": {
        "encoding": "inplace",
        "label": "uint64",
        "numberOfBytes": "8"
      },
      "t_uint8": {
        "encoding": "inplace",
        "label": "uint8",
        "numberOfBytes": "1"
      }
    }
  }
}