{
  "address": "0xAdB0265d7a989Fe04401eFCFcCf049284bfCF160",
  "abi": [
    {
      "inputs": [
        {
          "internalType": "address",
          "name": "accessControl",
          "type": "address"
        },
        {
          "internalType": "address",
          "name": "safeEngine_",
          "type": "address"
        }
      ],
      "stateMutability": "nonpayable",
      "type": "constructor"
    },
    {
      "inputs": [],
      "name": "BadAccessControlSingleton",
      "type": "error"
    },
    {
      "inputs": [],
      "name": "OnlyAdminError",
      "type": "error"
    },
    {
      "inputs": [],
      "name": "OnlyAlerterError",
      "type": "error"
    },
    {
      "inputs": [],
      "name": "OnlyCDPAccessError",
      "type": "error"
    },
    {
      "inputs": [],
      "name": "OnlyDAOError",
      "type": "error"
    },
    {
      "inputs": [],
      "name": "OnlyDisablerAccessError",
      "type": "error"
    },
    {
      "inputs": [],
      "name": "OnlyLiquidationAccessError",
      "type": "error"
    },
    {
      "inputs": [],
      "name": "OnlyMintAccessError",
      "type": "error"
    },
    {
      "inputs": [],
      "name": "OnlyProxyActionsError",
      "type": "error"
    },
    {
      "inputs": [],
      "name": "OnlyRewardAccessError",
      "type": "error"
    },
    {
      "inputs": [],
      "name": "OnlyRoleError",
      "type": "error"
    },
    {
      "inputs": [],
      "name": "OnlyVaultAccessError",
      "type": "error"
    },
    {
      "inputs": [],
      "name": "OnlyVotingEscrowError",
      "type": "error"
    },
    {
      "anonymous": false,
      "inputs": [
        {
          "indexed": true,
          "internalType": "address",
          "name": "usr",
          "type": "address"
        }
      ],
      "name": "AddAuthorization",
      "type": "event"
    },
    {
      "anonymous": false,
      "inputs": [],
      "name": "DisableContract",
      "type": "event"
    },
    {
      "anonymous": false,
      "inputs": [
        {
          "indexed": true,
          "internalType": "bytes32",
          "name": "collateralType",
          "type": "bytes32"
        },
        {
          "indexed": true,
          "internalType": "address",
          "name": "cdp",
          "type": "address"
        },
        {
          "indexed": false,
          "internalType": "uint256",
          "name": "lockedCollateral",
          "type": "uint256"
        },
        {
          "indexed": false,
          "internalType": "uint256",
          "name": "generatedDebt",
          "type": "uint256"
        },
        {
          "indexed": false,
          "internalType": "uint256",
          "name": "due",
          "type": "uint256"
        },
        {
          "indexed": false,
          "internalType": "address",
          "name": "liquidator",
          "type": "address"
        },
        {
          "indexed": true,
          "internalType": "uint256",
          "name": "id",
          "type": "uint256"
        }
      ],
      "name": "LiquidateCDP",
      "type": "event"
    },
    {
      "anonymous": false,
      "inputs": [
        {
          "indexed": true,
          "internalType": "bytes32",
          "name": "what",
          "type": "bytes32"
        },
        {
          "indexed": false,
          "internalType": "uint256",
          "name": "data",
          "type": "uint256"
        }
      ],
      "name": "ModifyParameters",
      "type": "event"
    },
    {
      "anonymous": false,
      "inputs": [
        {
          "indexed": true,
          "internalType": "bytes32",
          "name": "what",
          "type": "bytes32"
        },
        {
          "indexed": false,
          "internalType": "address",
          "name": "data",
          "type": "address"
        }
      ],
      "name": "ModifyParameters",
      "type": "event"
    },
    {
      "anonymous": false,
      "inputs": [
        {
          "indexed": true,
          "internalType": "bytes32",
          "name": "collateralType",
          "type": "bytes32"
        },
        {
          "indexed": true,
          "internalType": "bytes32",
          "name": "what",
          "type": "bytes32"
        },
        {
          "indexed": false,
          "internalType": "uint256",
          "name": "data",
          "type": "uint256"
        }
      ],
      "name": "ModifyParameters",
      "type": "event"
    },
    {
      "anonymous": false,
      "inputs": [
        {
          "indexed": true,
          "internalType": "bytes32",
          "name": "collateralType",
          "type": "bytes32"
        },
        {
          "indexed": true,
          "internalType": "bytes32",
          "name": "what",
          "type": "bytes32"
        },
        {
          "indexed": false,
          "internalType": "address",
          "name": "liquidator",
          "type": "address"
        }
      ],
      "name": "ModifyParameters",
      "type": "event"
    },
    {
      "anonymous": false,
      "inputs": [
        {
          "indexed": true,
          "internalType": "bytes32",
          "name": "collateralType",
          "type": "bytes32"
        },
        {
          "indexed": false,
          "internalType": "uint256",
          "name": "rad",
          "type": "uint256"
        }
      ],
      "name": "ReduceActiveLiquidationAmount",
      "type": "event"
    },
    {
      "anonymous": false,
      "inputs": [
        {
          "indexed": true,
          "internalType": "address",
          "name": "usr",
          "type": "address"
        }
      ],
      "name": "RemoveAuthorization",
      "type": "event"
    },
    {
      "inputs": [],
      "name": "ACCESS_CONTROL_SINGLETON",
      "outputs": [
        {
          "internalType": "contract ISuAccessControl",
          "name": "",
          "type": "address"
        }
      ],
      "stateMutability": "view",
      "type": "function"
    },
    {
      "inputs": [],
      "name": "ADMIN_ROLE",
      "outputs": [
        {
          "internalType": "bytes32",
          "name": "",
          "type": "bytes32"
        }
      ],
      "stateMutability": "view",
      "type": "function"
    },
    {
      "inputs": [],
      "name": "ALERTER_ROLE",
      "outputs": [
        {
          "internalType": "bytes32",
          "name": "",
          "type": "bytes32"
        }
      ],
      "stateMutability": "view",
      "type": "function"
    },
    {
      "inputs": [],
      "name": "ActiveLiquidationAmount",
      "outputs": [
        {
          "internalType": "uint256",
          "name": "",
          "type": "uint256"
        }
      ],
      "stateMutability": "view",
      "type": "function"
    },
    {
      "inputs": [],
      "name": "CDP_ACCESS_ROLE",
      "outputs": [
        {
          "internalType": "bytes32",
          "name": "",
          "type": "bytes32"
        }
      ],
      "stateMutability": "view",
      "type": "function"
    },
    {
      "inputs": [],
      "name": "DAO_ROLE",
      "outputs": [
        {
          "internalType": "bytes32",
          "name": "",
          "type": "bytes32"
        }
      ],
      "stateMutability": "view",
      "type": "function"
    },
    {
      "inputs": [],
      "name": "DISABLER_ROLE",
      "outputs": [
        {
          "internalType": "bytes32",
          "name": "",
          "type": "bytes32"
        }
      ],
      "stateMutability": "view",
      "type": "function"
    },
    {
      "inputs": [],
      "name": "GlobalLiquidationLimit",
      "outputs": [
        {
          "internalType": "uint256",
          "name": "",
          "type": "uint256"
        }
      ],
      "stateMutability": "view",
      "type": "function"
    },
    {
      "inputs": [],
      "name": "LIQUIDATION_ACCESS_ROLE",
      "outputs": [
        {
          "internalType": "bytes32",
          "name": "",
          "type": "bytes32"
        }
      ],
      "stateMutability": "view",
      "type": "function"
    },
    {
      "inputs": [],
      "name": "LiquidatorReward",
      "outputs": [
        {
          "internalType": "uint256",
          "name": "",
          "type": "uint256"
        }
      ],
      "stateMutability": "view",
      "type": "function"
    },
    {
      "inputs": [],
      "name": "MINT_ACCESS_ROLE",
      "outputs": [
        {
          "internalType": "bytes32",
          "name": "",
          "type": "bytes32"
        }
      ],
      "stateMutability": "view",
      "type": "function"
    },
    {
      "inputs": [],
      "name": "PROXY_ACTIONS_ROLE",
      "outputs": [
        {
          "internalType": "bytes32",
          "name": "",
          "type": "bytes32"
        }
      ],
      "stateMutability": "view",
      "type": "function"
    },
    {
      "inputs": [],
      "name": "REWARD_ACCESS_ROLE",
      "outputs": [
        {
          "internalType": "bytes32",
          "name": "",
          "type": "bytes32"
        }
      ],
      "stateMutability": "view",
      "type": "function"
    },
    {
      "inputs": [],
      "name": "VOTING_ESCROW_ROLE",
      "outputs": [
        {
          "internalType": "bytes32",
          "name": "",
          "type": "bytes32"
        }
      ],
      "stateMutability": "view",
      "type": "function"
    },
    {
      "inputs": [],
      "name": "accountingEngine",
      "outputs": [
        {
          "internalType": "contract IAccountingEngine",
          "name": "",
          "type": "address"
        }
      ],
      "stateMutability": "view",
      "type": "function"
    },
    {
      "inputs": [
        {
          "internalType": "bytes32",
          "name": "",
          "type": "bytes32"
        }
      ],
      "name": "collateralTypes",
      "outputs": [
        {
          "internalType": "uint256",
          "name": "liquidationPenalty",
          "type": "uint256"
        },
        {
          "internalType": "uint256",
          "name": "liquidationLimit",
          "type": "uint256"
        },
        {
          "internalType": "uint256",
          "name": "activeLiquidationAmount",
          "type": "uint256"
        }
      ],
      "stateMutability": "view",
      "type": "function"
    },
    {
      "inputs": [],
      "name": "contractEnabled",
      "outputs": [
        {
          "internalType": "uint256",
          "name": "",
          "type": "uint256"
        }
      ],
      "stateMutability": "view",
      "type": "function"
    },
    {
      "inputs": [],
      "name": "disableContract",
      "outputs": [],
      "stateMutability": "nonpayable",
      "type": "function"
    },
    {
      "inputs": [
        {
          "internalType": "bytes32",
          "name": "collateralType",
          "type": "bytes32"
        },
        {
          "internalType": "address",
          "name": "cdp",
          "type": "address"
        },
        {
          "internalType": "address",
          "name": "incentivesReceiver",
          "type": "address"
        },
        {
          "internalType": "address",
          "name": "collateralJoin",
          "type": "address"
        }
      ],
      "name": "liquidateCDP",
      "outputs": [
        {
          "internalType": "uint256",
          "name": "id",
          "type": "uint256"
        }
      ],
      "stateMutability": "nonpayable",
      "type": "function"
    },
    {
      "inputs": [],
      "name": "liquidationDiscountType",
      "outputs": [
        {
          "internalType": "uint8",
          "name": "",
          "type": "uint8"
        }
      ],
      "stateMutability": "view",
      "type": "function"
    },
    {
      "inputs": [
        {
          "internalType": "bytes32",
          "name": "collateralType",
          "type": "bytes32"
        }
      ],
      "name": "liquidationPenalty",
      "outputs": [
        {
          "internalType": "uint256",
          "name": "",
          "type": "uint256"
        }
      ],
      "stateMutability": "view",
      "type": "function"
    },
    {
      "inputs": [],
      "name": "liquidator",
      "outputs": [
        {
          "internalType": "address",
          "name": "",
          "type": "address"
        }
      ],
      "stateMutability": "view",
      "type": "function"
    },
    {
      "inputs": [
        {
          "internalType": "bytes32",
          "name": "what",
          "type": "bytes32"
        },
        {
          "internalType": "address",
          "name": "data",
          "type": "address"
        }
      ],
      "name": "modifyParameters",
      "outputs": [],
      "stateMutability": "nonpayable",
      "type": "function"
    },
    {
      "inputs": [
        {
          "internalType": "bytes32",
          "name": "collateralType",
          "type": "bytes32"
        },
        {
          "internalType": "bytes32",
          "name": "what",
          "type": "bytes32"
        },
        {
          "internalType": "uint256",
          "name": "data",
          "type": "uint256"
        }
      ],
      "name": "modifyParameters",
      "outputs": [],
      "stateMutability": "nonpayable",
      "type": "function"
    },
    {
      "inputs": [
        {
          "internalType": "bytes32",
          "name": "what",
          "type": "bytes32"
        },
        {
          "internalType": "uint256",
          "name": "data",
          "type": "uint256"
        }
      ],
      "name": "modifyParameters",
      "outputs": [],
      "stateMutability": "nonpayable",
      "type": "function"
    },
    {
      "inputs": [
        {
          "internalType": "bytes32",
          "name": "collateralType",
          "type": "bytes32"
        },
        {
          "internalType": "uint256",
          "name": "rad",
          "type": "uint256"
        }
      ],
      "name": "reduceActiveLiquidationAmount",
      "outputs": [],
      "stateMutability": "nonpayable",
      "type": "function"
    },
    {
      "inputs": [],
      "name": "safeEngine",
      "outputs": [
        {
          "internalType": "contract ISafeEngine",
          "name": "",
          "type": "address"
        }
      ],
      "stateMutability": "view",
      "type": "function"
    },
    {
      "inputs": [
        {
          "internalType": "uint8",
          "name": "newDiscountType",
          "type": "uint8"
        }
      ],
      "name": "setLiquidationDiscountType",
      "outputs": [],
      "stateMutability": "nonpayable",
      "type": "function"
    },
    {
      "inputs": [
        {
          "internalType": "bytes4",
          "name": "interfaceId",
          "type": "bytes4"
        }
      ],
      "name": "supportsInterface",
      "outputs": [
        {
          "internalType": "bool",
          "name": "",
          "type": "bool"
        }
      ],
      "stateMutability": "view",
      "type": "function"
    }
  ],
  "numDeployments": 4,
  "solcInputHash": "391f99102fcf6a77832aec16c8e54c9d",
  "bytecode": "0x60a0604081815234620001a657808262001b2d8038038091620000238285620001ab565b833981010312620001a6576200004760206200003f84620001e5565b9301620001e5565b600080546001600160a01b0319166001600160a01b03948516908117825590939190801590811562000117575b5062000106571660805260016007556006805460ff60a01b19169055519033907f599a298163e1678bb1c676052a8930bf0b8a1261ed6e01b8a2391e55f70001029080a26119329081620001fb823960805181818161032a01528181610375015281816103de01528181610481015281816105da01528181610658015281816106b201528181610727015261143d0152f35b82516384d942fd60e01b8152600490fd5b84516301ffc9a760e01b8152637965db0b60e01b60048201529150602090829060249082905afa9081156200019c57859162000157575b50153862000074565b90506020813d821162000193575b816200017460209383620001ab565b810103126200018f575180151581036200018f57386200014e565b8480fd5b3d915062000165565b84513d87823e3d90fd5b600080fd5b601f909101601f19168101906001600160401b03821190821017620001cf57604052565b634e487b7160e01b600052604160045260246000fd5b51906001600160a01b0382168203620001a65756fe608080604052600436101561001357600080fd5b600090813560e01c90816301ffc9a7146116975750806303ee9f221461167057806318e81571146116465780634046ebae1461161d57806341b3a0d9146115ff578063438280dd146115c457806351a8cd87146115a6578063556617c7146115885780636614f0101461146c57806367aea313146114275780636efb72ce1461131757806371d0fb41146112dc57806375b238fc146112c0578063894ba833146112015780638e5313e0146111c6578063961d45c41461119d578063b38234f314611162578063bd5f5be614611127578063c4e9069814611072578063d07900bb14611030578063d0e8fa8214610ff5578063d2351cee14610fcc578063d4b9311d14610e4f578063dbec7dd414610e2b578063dc97e84e14610e02578063e8d769a714610de4578063e9c2651814610dbb578063eb9ff0b4146102dc5763fe4f58901461016057600080fd5b346102d95761016e36611735565b8254604051632474521560e21b815260008051602061183d833981519152600482015233602482015290602090829060449082906001600160a01b03165afa9081156102ce5784916102a0575b501561028e577511db1bd8985b131a5c5d5a59185d1a5bdb931a5b5a5d60521b82036102025760208160008051602061185d833981519152926003555b604051908152a280f35b6f131a5c5d5a59185d1bdc94995dd85c9960821b82036102375760208160008051602061185d833981519152926005556101f8565b60405162461bcd60e51b815260206004820152602960248201527f4c69717569646174696f6e456e67696e652f66696c652d756e7265636f676e696044820152687a65642d706172616d60b81b6064820152608490fd5b60405163599a6c3360e11b8152600490fd5b6102c1915060203d81116102c7575b6102b9818361175e565b810190611781565b386101bb565b503d6102af565b6040513d86823e3d90fd5b80fd5b50346102d95760803660031901126102d9576102f661171f565b906044356001600160a01b0381168103610d3657606435916001600160a01b03831683036102d957600160075403610d68577f00000000000000000000000000000000000000000000000000000000000000006001600160a01b03163b156102d95760405163e401f2e760e01b815260048035908201528181602481837f00000000000000000000000000000000000000000000000000000000000000006001600160a01b03165af18015610d5d57610d4e575b5060408051630f50894160e21b815260048035908201526001600160a01b03868116602483015290939190849060449082907f0000000000000000000000000000000000000000000000000000000000000000165afa918215610d425780938193610d03575b50600435815260016020526040808220905192906001600160401b036060850190811190851117610ced576060840160409081528154855260018201546020860152600290910154818501525163d07900bb60e01b8152600480359082015293610100856024816001600160a01b037f0000000000000000000000000000000000000000000000000000000000000000165afa958615610ce257839684968591610c8b575b508015159081610c6f575b5015610c2b5760035460045480821180610c1a575b15610bc5576104e3916117ad565b6104f660208701516040880151906117ad565b808211610bbe57505b80670de0b6b3a7640000810204670de0b6b3a76400001481151715610ba85780670de0b6b3a76400008082020403610ba35761054888670de0b6b3a764000061055093026117ba565b8651906117ba565b808311610b9d575081955b8787808511610ae1575b505050906105768661057b936117ff565b6117ba565b948515610a9c57600160ff1b808611159081610a91575b5015610a4f57670de0b6b3a76400006105ad600554886117ff565b04916105b983886117ad565b92878411610a4b576002546001600160a01b0316906105d7906117da565b907f00000000000000000000000000000000000000000000000000000000000000006001600160a01b03163b156109505760405192634e14a96760e01b8452600435600485015260018060a01b038c16602485015260018060a01b03166044840152606483015260848201528360a4820152838160c4818360018060a01b037f0000000000000000000000000000000000000000000000000000000000000000165af180156102ce57908491610a37575b50506006546002546001600160a01b0391821691166106a6846117da565b6106af886117da565b917f00000000000000000000000000000000000000000000000000000000000000006001600160a01b03163b15610a335760405193634e14a96760e01b8552600435600486015260018060a01b038d16602486015260448501526064840152608483015260a4820152838160c4818360018060a01b037f0000000000000000000000000000000000000000000000000000000000000000165af180156102ce57908491610a1f575b505061076390856117ff565b6002549093906001600160a01b0316803b156109fb5783809160246040518094819363a8b30a9f60e01b83528a60048401525af180156102ce57908491610a07575b5050806040670de0b6b3a76400006107c16107d99451886117ff565b04916107cf836004546117eb565b60045501516117eb565b6004358352600160205260026040842001556006546040519063d8dfeb4560e01b825260208260048160018060a01b038c165afa9182156102ce5784926109bf575b50600254604051631ff63f2360e11b815298906001600160a01b031660208a600481845afa998a156109b457869a610969575b50604051633bcce46f60e21b81526001600160a01b03948516600482015260248101959095529883166044850152606484019890985260a081901c60ff16608484015296811660a48301529095602091879160c49183918691165af194851561095c578195610919575b60208680878a888860018060a01b036006541691604051948552878501526040840152606083015260018060a01b0316907f3e68ae8e518de004a5c7f6407b51d7b729e26ddb6bcd135fe2f9e58df1b75b45608060043592a4604051908152f35b909591939294506020813d602011610954575b816109396020938361175e565b8101031261095057519094509290916020386108b8565b8580fd5b3d915061092c565b50604051903d90823e3d90fd5b9099506020813d6020116109ac575b816109856020938361175e565b810103126109505760c492602095949261099f8893611799565b9b9250929495509261084e565b3d9150610978565b6040513d88823e3d90fd5b9091506020813d6020116109ff575b816109db6020938361175e565b810103126109fb57516001600160a01b03811681036109fb57903861081b565b8380fd5b3d91506109ce565b610a109061174b565b610a1b5782386107a5565b8280fd5b610a289061174b565b610a1b578238610757565b8680fd5b610a409061174b565b610a1b578238610688565b8480fd5b60405162461bcd60e51b815260206004820152601a6024820152794c69717569646174696f6e456e67696e652f6f766572666c6f7760301b6044820152606490fd5b905086111538610592565b60405162461bcd60e51b815260206004820152601e60248201527f4c69717569646174696f6e456e67696e652f6e756c6c2d61756374696f6e00006044820152606490fd5b82610af883610af384899d989d6117ad565b6117ff565b1015610b1757505050508061057661057b9280975b9293899150610565565b90610b2591989493986117ff565b10610b37576105768661057b93610b0d565b60405162461bcd60e51b815260206004820152603860248201527f4c69717569646174696f6e456e67696e652f64757374792d61756374696f6e2d604482015277333937b696b830b93a34b0b616b634b8bab4b230ba34b7b760411b6064820152608490fd5b9561055b565b600080fd5b634e487b7160e01b600052601160045260246000fd5b90506104ff565b60405162461bcd60e51b815260206004820152602760248201527f4c69717569646174696f6e456e67696e652f6c69717569646174696f6e2d6c696044820152661b5a5d0b5a1a5d60ca1b6064820152608490fd5b5060208701516040880151106104d5565b60405162461bcd60e51b815260206004820152601c60248201527b4c69717569646174696f6e456e67696e652f6e6f742d756e7361666560201b6044820152606490fd5b610c7a9150826117ff565b610c8488846117ff565b11386104c0565b9650509550610100853d61010011610cda575b81610cac610100938361175e565b81010312610a1b57602085015195606086015196610cd160c060808901519801611799565b509695386104b5565b3d9150610c9e565b6040513d85823e3d90fd5b634e487b7160e01b600052604160045260246000fd5b935091506040833d604011610d3a575b81610d206040938361175e565b81010312610d3657602083519301519138610410565b5080fd5b3d9150610d13565b604051903d90823e3d90fd5b610d579061174b565b386103aa565b6040513d84823e3d90fd5b60405162461bcd60e51b815260206004820152602560248201527f4c69717569646174696f6e456e67696e652f6e6f742d636f6e7472616374456e60448201526418589b195960da1b6064820152608490fd5b50346102d957806003193601126102d957602060405160008051602061183d8339815191528152f35b50346102d957806003193601126102d9576020600554604051908152f35b50346102d957806003193601126102d95760206040516000805160206118bd8339815191528152f35b50346102d957806003193601126102d957602060ff60065460a01c16604051908152f35b50346102d95760603660031901126102d9576004356024359060443560018060a01b03845416906040518092632474521560e21b825260008051602061183d833981519152600483015233602483015281604460209586935afa9081156109b4578691610faf575b501561028e57716c69717569646174696f6e50656e616c747960701b8403610f6f57670de0b6b3a76400008110610f11579060008051602061187d83398151915291838652600182528060408720555b604051908152a380f35b60405162461bcd60e51b815260048101839052603060248201527f4c69717569646174696f6e456e67696e652f66696c652d6c697175696461746960448201526f1bdb94195b985b1d1e4b5b1d0b55d05160821b6064820152608490fd5b906f1b1a5c5d5a59185d1a5bdb931a5b5a5d60821b84036102375760008051602061187d8339815191529183865260018252806001604088200155610f07565b610fc69150833d85116102c7576102b9818361175e565b38610eb7565b50346102d957806003193601126102d95760206040516000805160206118dd8339815191528152f35b50346102d957806003193601126102d95760206040517f76d0567582f23e1e9d7a13eeba60f9aea9d69b8da87ca27a8bf3698b35c653db8152f35b50346102d95760203660031901126102d95760406060916004358152600160205220805490600260018201549101549060405192835260208301526040820152f35b50346102d95760203660031901126102d95760043560ff81168103610d36578154604051632474521560e21b81526004810184905233602482015290602090829060449082906001600160a01b03165afa908115610ce2578391611109575b50156110f7576006805460ff60a01b191660a09290921b60ff60a01b1691909117905580f35b604051631886ea7d60e11b8152600490fd5b611121915060203d81116102c7576102b9818361175e565b386110d1565b50346102d957806003193601126102d95760206040517f4f14c8366fa999817edc9f29824eb88a00cc31225e2156f399da4bc91049eb108152f35b50346102d957806003193601126102d95760206040517fd83f5343da19b478b15a140c301a868be9e02603958f38fbd822b9d5c0a289168152f35b50346102d957806003193601126102d9576002546040516001600160a01b039091168152602090f35b50346102d957806003193601126102d95760206040517fe453bacb314e78dcd5192e6b1a2b1f0e7c76e92f6b7e429a6a90f04e39db3b768152f35b50346102d957806003193601126102d9578054604051632474521560e21b81526000805160206118dd833981519152600482015233602482015290602090829060449082906001600160a01b03165afa908115610d5d5782916112a2575b501561129057806007557f2d4b4ecff7bd7503135271925520a2f6c0d98c9473ffc1a1e72c92502f51b25e8180a180f35b60405163bb0684b760e01b8152600490fd5b6112ba915060203d81116102c7576102b9818361175e565b3861125f565b50346102d957806003193601126102d957602090604051908152f35b50346102d957806003193601126102d95760206040517f880a91047114272656e533301261260c75e4d11543ac7303d6fe4204579ec7278152f35b50346102d95761132636611735565b8254604051632474521560e21b81526000805160206118bd83398151915260048201523360248201526020918290829060449082906001600160a01b03165afa90811561141c5785916113ff575b50156113ed5760045461138783826117ad565b908111610a4b57600455828452600181526002604085200154916113ab81846117ad565b928311610a4b577f78430dc03266569e2b73ec40d7107a5bc7047f2244bbca5d04294edb4a6f6ae392848652600183526002604087200155604051908152a280f35b60405163200ab6d960e01b8152600490fd5b6114169150823d84116102c7576102b9818361175e565b38611374565b6040513d87823e3d90fd5b50346102d957806003193601126102d9576040517f00000000000000000000000000000000000000000000000000000000000000006001600160a01b03168152602090f35b50346102d95760403660031901126102d95760043561148961171f565b8254604051632474521560e21b815260008051602061183d83398151915260048201523360248201526001600160a01b03916020908290604490829086165afa90811561141c57859161156a575b501561028e576f6163636f756e74696e67456e67696e6560801b830361152a57600280546001600160a01b03191682841617905560008051602061189d833981519152916020915b60405191168152a280f35b693634b8bab4b230ba37b960b11b830361023757600680546001600160a01b03191682841617905560008051602061189d8339815191529160209161151f565b611582915060203d81116102c7576102b9818361175e565b386114d7565b50346102d957806003193601126102d9576020600454604051908152f35b50346102d957806003193601126102d9576020600354604051908152f35b50346102d957806003193601126102d95760206040517f39f61ca2a1a28fee144218173ec637b649a353e4026b2738c673800e5bf1437b8152f35b50346102d957806003193601126102d9576020600754604051908152f35b50346102d957806003193601126102d9576006546040516001600160a01b039091168152602090f35b50346102d95760203660031901126102d95760406020916004358152600183522054604051908152f35b50346102d957806003193601126102d957546040516001600160a01b039091168152602090f35b905034610d36576020366003190112610d365760043563ffffffff60e01b8116809103610a1b5782546301ffc9a760e01b83526004830191909152602090829060249082906001600160a01b03165afa908115610d5d5760209291611702575b506040519015158152f35b6117199150823d81116102c7576102b9818361175e565b386116f7565b602435906001600160a01b0382168203610ba357565b6040906003190112610ba3576004359060243590565b6001600160401b038111610ced57604052565b601f909101601f19168101906001600160401b03821190821017610ced57604052565b90816020910312610ba357518015158103610ba35790565b51906001600160a01b0382168203610ba357565b91908203918211610ba857565b81156117c4570490565b634e487b7160e01b600052601260045260246000fd5b600160ff1b8114610ba85760000390565b9190820191828111610ba8578210610ba357565b600092918015918215611816575b505015610ba357565b80820294509150811582850482141715610ba85761183490846117ba565b14388061180d56fe3b5d4cc60d3ec3516ee8ae083bd60934f6eb2a6c54b1229985c41bfb092b2603ac7c5c1afaef770ec56ac6268cd3f2fbb1035858ead2601d6553157c33036c3ac59b1109b54f213212d2f5af5c1dae5e887f9daa63b595578fae847cb048e8f4d91f38cf03346b5dc15fb60f9076f866295231ad3c3841a1051f8443f25170d19a9aef7c1247d5fc769b0185c052913e39673da29a880317dfd20ebf86f26a49b0fdd1623e42dbffda4acd8bd643e1cb69f00f0e83abeaa8150ee42cf0fd105ea2646970667358221220a7362484c96b8a498f5acfd9520b5126ed3f591fda656b041873ea76534b7ff464736f6c63430008110033",
  "devdoc": {
    "kind": "dev",
    "methods": {
      "liquidateCDP(bytes32,address,address,address)": {
        "details": "The entire Vault will be liquidated except when the target amount of StablePro to be raised in the resulting auction (debt of Vault + liquidation penalty) causes either ActiveLiquidationAmount to exceed GlobalLiquidationLimit or collateralType.activeLiquidationAmount to exceed collateralType.liquidationLimit by an economically significant amount. In that case, a partial liquidation is performed to respect the global and per-collateralType limits on outstanding StablePro target. The one exception is if the resulting auction would likely have too little collateral to be interesting to Keepers (debt taken from Vault < collateralType.debtFloor), in which case the function reverts. Please refer to the code and comments within if more detail is desired.",
        "params": {
          "cdp": "- address of cdp position",
          "collateralJoin": "- address of collateral adapter*",
          "collateralType": "- collateral type",
          "incentivesReceiver": "- address that will receive the liquidation reward, if any."
        }
      },
      "supportsInterface(bytes4)": {
        "details": "Returns true if this contract implements the interface defined by `interfaceId`. See the corresponding https://eips.ethereum.org/EIPS/eip-165#how-interfaces-are-identified[EIP section] to learn more about how these ids are created. This function call must use less than 30 000 gas."
      }
    },
    "version": 1
  },
  "userdoc": {
    "kind": "user",
    "methods": {
      "liquidateCDP(bytes32,address,address,address)": {
        "notice": "Liquidate a Vault and start a Dutch auction to sell its collateral for StablePro."
      }
    },
    "version": 1
  },
  "storageLayout": {
    "storage": [
      {
        "astId": 5984,
        "contract": "contracts/makerdao/externalContracts/LiquidationEngine.sol:LiquidationEngine",
        "label": "ACCESS_CONTROL_SINGLETON",
        "offset": 0,
        "slot": "0",
        "type": "t_contract(ISuAccessControl)6267"
      },
      {
        "astId": 4221,
        "contract": "contracts/makerdao/externalContracts/LiquidationEngine.sol:LiquidationEngine",
        "label": "collateralTypes",
        "offset": 0,
        "slot": "1",
        "type": "t_mapping(t_bytes32,t_struct(CollateralType)5152_storage)"
      },
      {
        "astId": 4224,
        "contract": "contracts/makerdao/externalContracts/LiquidationEngine.sol:LiquidationEngine",
        "label": "accountingEngine",
        "offset": 0,
        "slot": "2",
        "type": "t_contract(IAccountingEngine)4948"
      },
      {
        "astId": 4226,
        "contract": "contracts/makerdao/externalContracts/LiquidationEngine.sol:LiquidationEngine",
        "label": "GlobalLiquidationLimit",
        "offset": 0,
        "slot": "3",
        "type": "t_uint256"
      },
      {
        "astId": 4228,
        "contract": "contracts/makerdao/externalContracts/LiquidationEngine.sol:LiquidationEngine",
        "label": "ActiveLiquidationAmount",
        "offset": 0,
        "slot": "4",
        "type": "t_uint256"
      },
      {
        "astId": 4230,
        "contract": "contracts/makerdao/externalContracts/LiquidationEngine.sol:LiquidationEngine",
        "label": "LiquidatorReward",
        "offset": 0,
        "slot": "5",
        "type": "t_uint256"
      },
      {
        "astId": 4232,
        "contract": "contracts/makerdao/externalContracts/LiquidationEngine.sol:LiquidationEngine",
        "label": "liquidator",
        "offset": 0,
        "slot": "6",
        "type": "t_address"
      },
      {
        "astId": 4234,
        "contract": "contracts/makerdao/externalContracts/LiquidationEngine.sol:LiquidationEngine",
        "label": "liquidationDiscountType",
        "offset": 20,
        "slot": "6",
        "type": "t_uint8"
      },
      {
        "astId": 4266,
        "contract": "contracts/makerdao/externalContracts/LiquidationEngine.sol:LiquidationEngine",
        "label": "contractEnabled",
        "offset": 0,
        "slot": "7",
        "type": "t_uint256"
      }
    ],
    "types": {
      "t_address": {
        "encoding": "inplace",
        "label": "address",
        "numberOfBytes": "20"
      },
      "t_bytes32": {
        "encoding": "inplace",
        "label": "bytes32",
        "numberOfBytes": "32"
      },
      "t_contract(IAccountingEngine)4948": {
        "encoding": "inplace",
        "label": "contract IAccountingEngine",
        "numberOfBytes": "20"
      },
      "t_contract(ISuAccessControl)6267": {
        "encoding": "inplace",
        "label": "contract ISuAccessControl",
        "numberOfBytes": "20"
      },
      "t_mapping(t_bytes32,t_struct(CollateralType)5152_storage)": {
        "encoding": "mapping",
        "key": "t_bytes32",
        "label": "mapping(bytes32 => struct ILiquidationEngine.CollateralType)",
        "numberOfBytes": "32",
        "value": "t_struct(CollateralType)5152_storage"
      },
      "t_struct(CollateralType)5152_storage": {
        "encoding": "inplace",
        "label": "struct ILiquidationEngine.CollateralType",
        "members": [
          {
            "astId": 5147,
            "contract": "contracts/makerdao/externalContracts/LiquidationEngine.sol:LiquidationEngine",
            "label": "liquidationPenalty",
            "offset": 0,
            "slot": "0",
            "type": "t_uint256"
          },
          {
            "astId": 5149,
            "contract": "contracts/makerdao/externalContracts/LiquidationEngine.sol:LiquidationEngine",
            "label": "liquidationLimit",
            "offset": 0,
            "slot": "1",
            "type": "t_uint256"
          },
          {
            "astId": 5151,
            "contract": "contracts/makerdao/externalContracts/LiquidationEngine.sol:LiquidationEngine",
            "label": "activeLiquidationAmount",
            "offset": 0,
            "slot": "2",
            "type": "t_uint256"
          }
        ],
        "numberOfBytes": "96"
      },
      "t_uint256": {
        "encoding": "inplace",
        "label": "uint256",
        "numberOfBytes": "32"
      },
      "t_uint8": {
        "encoding": "inplace",
        "label": "uint8",
        "numberOfBytes": "1"
      }
    }
  }
}