{
  "address": "0xE3136d9eFC4075Cb8E1FAB1952f09fAE47e3118d",
  "abi": [
    {
      "inputs": [
        {
          "internalType": "address",
          "name": "safeEngine_",
          "type": "address"
        }
      ],
      "stateMutability": "nonpayable",
      "type": "constructor"
    },
    {
      "inputs": [],
      "name": "NotAuthorized",
      "type": "error"
    },
    {
      "anonymous": false,
      "inputs": [
        {
          "indexed": true,
          "internalType": "address",
          "name": "usr",
          "type": "address"
        }
      ],
      "name": "AddAuthorization",
      "type": "event"
    },
    {
      "anonymous": false,
      "inputs": [],
      "name": "DisableContract",
      "type": "event"
    },
    {
      "anonymous": false,
      "inputs": [
        {
          "indexed": true,
          "internalType": "bytes32",
          "name": "collateralType",
          "type": "bytes32"
        },
        {
          "indexed": true,
          "internalType": "address",
          "name": "cdp",
          "type": "address"
        },
        {
          "indexed": false,
          "internalType": "uint256",
          "name": "lockedCollateral",
          "type": "uint256"
        },
        {
          "indexed": false,
          "internalType": "uint256",
          "name": "generatedDebt",
          "type": "uint256"
        },
        {
          "indexed": false,
          "internalType": "uint256",
          "name": "due",
          "type": "uint256"
        },
        {
          "indexed": false,
          "internalType": "address",
          "name": "liquidator",
          "type": "address"
        },
        {
          "indexed": true,
          "internalType": "uint256",
          "name": "id",
          "type": "uint256"
        }
      ],
      "name": "LiquidateCDP",
      "type": "event"
    },
    {
      "anonymous": false,
      "inputs": [
        {
          "indexed": true,
          "internalType": "bytes32",
          "name": "what",
          "type": "bytes32"
        },
        {
          "indexed": false,
          "internalType": "uint256",
          "name": "data",
          "type": "uint256"
        }
      ],
      "name": "ModifyParameters",
      "type": "event"
    },
    {
      "anonymous": false,
      "inputs": [
        {
          "indexed": true,
          "internalType": "bytes32",
          "name": "what",
          "type": "bytes32"
        },
        {
          "indexed": false,
          "internalType": "address",
          "name": "data",
          "type": "address"
        }
      ],
      "name": "ModifyParameters",
      "type": "event"
    },
    {
      "anonymous": false,
      "inputs": [
        {
          "indexed": true,
          "internalType": "bytes32",
          "name": "collateralType",
          "type": "bytes32"
        },
        {
          "indexed": true,
          "internalType": "bytes32",
          "name": "what",
          "type": "bytes32"
        },
        {
          "indexed": false,
          "internalType": "uint256",
          "name": "data",
          "type": "uint256"
        }
      ],
      "name": "ModifyParameters",
      "type": "event"
    },
    {
      "anonymous": false,
      "inputs": [
        {
          "indexed": true,
          "internalType": "bytes32",
          "name": "collateralType",
          "type": "bytes32"
        },
        {
          "indexed": true,
          "internalType": "bytes32",
          "name": "what",
          "type": "bytes32"
        },
        {
          "indexed": false,
          "internalType": "address",
          "name": "liquidator",
          "type": "address"
        }
      ],
      "name": "ModifyParameters",
      "type": "event"
    },
    {
      "anonymous": false,
      "inputs": [
        {
          "indexed": true,
          "internalType": "bytes32",
          "name": "collateralType",
          "type": "bytes32"
        },
        {
          "indexed": false,
          "internalType": "uint256",
          "name": "rad",
          "type": "uint256"
        }
      ],
      "name": "ReduceActiveLiquidationAmount",
      "type": "event"
    },
    {
      "anonymous": false,
      "inputs": [
        {
          "indexed": true,
          "internalType": "address",
          "name": "usr",
          "type": "address"
        }
      ],
      "name": "RemoveAuthorization",
      "type": "event"
    },
    {
      "inputs": [],
      "name": "ActiveLiquidationAmount",
      "outputs": [
        {
          "internalType": "uint256",
          "name": "",
          "type": "uint256"
        }
      ],
      "stateMutability": "view",
      "type": "function"
    },
    {
      "inputs": [],
      "name": "GlobalLiquidationLimit",
      "outputs": [
        {
          "internalType": "uint256",
          "name": "",
          "type": "uint256"
        }
      ],
      "stateMutability": "view",
      "type": "function"
    },
    {
      "inputs": [],
      "name": "LiquidatorReward",
      "outputs": [
        {
          "internalType": "uint256",
          "name": "",
          "type": "uint256"
        }
      ],
      "stateMutability": "view",
      "type": "function"
    },
    {
      "inputs": [],
      "name": "accountingEngine",
      "outputs": [
        {
          "internalType": "contract AccountingEngineLike",
          "name": "",
          "type": "address"
        }
      ],
      "stateMutability": "view",
      "type": "function"
    },
    {
      "inputs": [
        {
          "internalType": "address",
          "name": "usr",
          "type": "address"
        }
      ],
      "name": "addAuthorization",
      "outputs": [],
      "stateMutability": "nonpayable",
      "type": "function"
    },
    {
      "inputs": [
        {
          "internalType": "address",
          "name": "_stablecoin",
          "type": "address"
        }
      ],
      "name": "addWhitelistStablecoin",
      "outputs": [],
      "stateMutability": "nonpayable",
      "type": "function"
    },
    {
      "inputs": [
        {
          "internalType": "address",
          "name": "",
          "type": "address"
        }
      ],
      "name": "authorizedAccounts",
      "outputs": [
        {
          "internalType": "uint256",
          "name": "",
          "type": "uint256"
        }
      ],
      "stateMutability": "view",
      "type": "function"
    },
    {
      "inputs": [
        {
          "internalType": "bytes32",
          "name": "",
          "type": "bytes32"
        }
      ],
      "name": "collateralTypes",
      "outputs": [
        {
          "internalType": "uint256",
          "name": "liquidationPenalty",
          "type": "uint256"
        },
        {
          "internalType": "uint256",
          "name": "liquidationLimit",
          "type": "uint256"
        },
        {
          "internalType": "uint256",
          "name": "activeLiquidationAmount",
          "type": "uint256"
        }
      ],
      "stateMutability": "view",
      "type": "function"
    },
    {
      "inputs": [],
      "name": "contractEnabled",
      "outputs": [
        {
          "internalType": "uint256",
          "name": "",
          "type": "uint256"
        }
      ],
      "stateMutability": "view",
      "type": "function"
    },
    {
      "inputs": [],
      "name": "disableContract",
      "outputs": [],
      "stateMutability": "nonpayable",
      "type": "function"
    },
    {
      "inputs": [
        {
          "internalType": "address",
          "name": "_stablecoin",
          "type": "address"
        }
      ],
      "name": "hasWhitelistStablecoin",
      "outputs": [
        {
          "internalType": "bool",
          "name": "",
          "type": "bool"
        }
      ],
      "stateMutability": "view",
      "type": "function"
    },
    {
      "inputs": [
        {
          "internalType": "bytes32",
          "name": "collateralType",
          "type": "bytes32"
        },
        {
          "internalType": "address",
          "name": "cdp",
          "type": "address"
        },
        {
          "internalType": "address",
          "name": "incentivesReceiver",
          "type": "address"
        },
        {
          "internalType": "address",
          "name": "collateralJoin",
          "type": "address"
        }
      ],
      "name": "liquidateCDP",
      "outputs": [
        {
          "internalType": "uint256",
          "name": "id",
          "type": "uint256"
        }
      ],
      "stateMutability": "nonpayable",
      "type": "function"
    },
    {
      "inputs": [
        {
          "internalType": "bytes32",
          "name": "collateralType",
          "type": "bytes32"
        }
      ],
      "name": "liquidationPenalty",
      "outputs": [
        {
          "internalType": "uint256",
          "name": "",
          "type": "uint256"
        }
      ],
      "stateMutability": "view",
      "type": "function"
    },
    {
      "inputs": [],
      "name": "liquidator",
      "outputs": [
        {
          "internalType": "address",
          "name": "",
          "type": "address"
        }
      ],
      "stateMutability": "view",
      "type": "function"
    },
    {
      "inputs": [
        {
          "internalType": "bytes32",
          "name": "what",
          "type": "bytes32"
        },
        {
          "internalType": "address",
          "name": "data",
          "type": "address"
        }
      ],
      "name": "modifyParameters",
      "outputs": [],
      "stateMutability": "nonpayable",
      "type": "function"
    },
    {
      "inputs": [
        {
          "internalType": "bytes32",
          "name": "collateralType",
          "type": "bytes32"
        },
        {
          "internalType": "bytes32",
          "name": "what",
          "type": "bytes32"
        },
        {
          "internalType": "uint256",
          "name": "data",
          "type": "uint256"
        }
      ],
      "name": "modifyParameters",
      "outputs": [],
      "stateMutability": "nonpayable",
      "type": "function"
    },
    {
      "inputs": [
        {
          "internalType": "bytes32",
          "name": "what",
          "type": "bytes32"
        },
        {
          "internalType": "uint256",
          "name": "data",
          "type": "uint256"
        }
      ],
      "name": "modifyParameters",
      "outputs": [],
      "stateMutability": "nonpayable",
      "type": "function"
    },
    {
      "inputs": [
        {
          "internalType": "bytes32",
          "name": "collateralType",
          "type": "bytes32"
        },
        {
          "internalType": "uint256",
          "name": "rad",
          "type": "uint256"
        }
      ],
      "name": "reduceActiveLiquidationAmount",
      "outputs": [],
      "stateMutability": "nonpayable",
      "type": "function"
    },
    {
      "inputs": [
        {
          "internalType": "address",
          "name": "usr",
          "type": "address"
        }
      ],
      "name": "removeAuthorization",
      "outputs": [],
      "stateMutability": "nonpayable",
      "type": "function"
    },
    {
      "inputs": [
        {
          "internalType": "address",
          "name": "_stablecoin",
          "type": "address"
        }
      ],
      "name": "removeWhitelistStablecoin",
      "outputs": [],
      "stateMutability": "nonpayable",
      "type": "function"
    },
    {
      "inputs": [],
      "name": "safeEngine",
      "outputs": [
        {
          "internalType": "contract ISafeEngine",
          "name": "",
          "type": "address"
        }
      ],
      "stateMutability": "view",
      "type": "function"
    }
  ],
  "numDeployments": 3,
  "solcInputHash": "de734d57514453715cff7ed689bd2bb9",
  "bytecode": "0x60a0346100d157601f61161638819003918201601f19168301916001600160401b038311848410176100d6578084926020946040528339810103126100d157516001600160a01b038116908190036100d157608052600180553360005260006020526001604060002055604051337f599a298163e1678bb1c676052a8930bf0b8a1261ed6e01b8a2391e55f7000102600080a261152990816100ed823960805181818161028a0152818161032c015281816104850152818161050301528181610559015281816105ce0152610fbe0152f35b600080fd5b634e487b7160e01b600052604160045260246000fdfe608080604052600436101561001357600080fd5b600090813560e01c90816318e81571146111c45750806324ba58841461118c57806335b28153146111445780634046ebae1461111b57806341b3a0d9146110fd57806351a8cd87146110df578063556617c7146110c15780636614f01014610fed57806367aea31314610fa85780636efb72ce14610f105780637ae8b2e114610ed1578063894ba83314610e8257806394f3f81d14610e3b578063961d45c414610e12578063d07900bb14610dd0578063d09a79dd14610d8d578063d4b9311d14610c6a578063de51eefd14610c2f578063e8d769a714610c11578063eb9ff0b41461020b5763fe4f58901461010857600080fd5b34610208576101163661121c565b3383528260205260016040842054036101f6577511db1bd8985b131a5c5d5a59185d1a5bdb931a5b5a5d60521b820361016a57602081600080516020611494833981519152926004555b604051908152a280f35b6f131a5c5d5a59185d1bdc94995dd85c9960821b820361019f5760208160008051602061149483398151915292600655610160565b60405162461bcd60e51b815260206004820152602960248201527f4c69717569646174696f6e456e67696e652f66696c652d756e7265636f676e696044820152687a65642d706172616d60b81b6064820152608490fd5b60405163ea8e4eb560e01b8152600490fd5b80fd5b503461020857608036600319011261020857610225611206565b90604435906001600160a01b038216820361020857606435916001600160a01b0383168303610c0d576001805403610bba5760408051630f50894160e21b815260048035908201526001600160a01b03868116602483015290929190839060449082907f0000000000000000000000000000000000000000000000000000000000000000165afa928315610bae5780928194610b73575b50600435815260026020526040808220905192906001600160401b036060850190811190851117610b5f576060840160409081528154855260018201546020860152600290910154818501525163d07900bb60e01b815260048035908201529460a0866024816001600160a01b037f0000000000000000000000000000000000000000000000000000000000000000165afa948515610b5457839684908597610b0f575b508015159081610af3575b5015610aaf5760045460055480821180610a9e575b15610a495761038e9161127e565b6103a1602087015160408801519061127e565b808211610a4257505b80670de0b6b3a7640000810204670de0b6b3a76400001481151715610a2e5780670de0b6b3a7640000808202040361085b576103f388670de0b6b3a76400006103fb93026112a1565b8651906112a1565b808311610a28575081955b878780851161096c575b505050906104218661042693611456565b6112a1565b94851561092757600160ff1b80861115908161091c575b50156108da57670de0b6b3a764000061045860065488611456565b0491610464838861127e565b9287841161085b576003546001600160a01b031690610482906112c1565b907f00000000000000000000000000000000000000000000000000000000000000006001600160a01b03163b156108005760405192634e14a96760e01b8452600435600485015260018060a01b038c16602485015260018060a01b03166044840152606483015260848201528360a4820152838160c4818360018060a01b037f0000000000000000000000000000000000000000000000000000000000000000165af180156108a0576108c7575b506007546003546001600160a01b03918216911661054d846112c1565b610556886112c1565b917f00000000000000000000000000000000000000000000000000000000000000006001600160a01b03163b156108c35760405193634e14a96760e01b8552600435600486015260018060a01b038d16602486015260448501526064840152608483015260a4820152838160c4818360018060a01b037f0000000000000000000000000000000000000000000000000000000000000000165af180156108a0579084916108af575b505061060a9085611456565b6003549093906001600160a01b0316803b156108ab5783809160246040518094819363a8b30a9f60e01b83528a60048401525af180156108a057908491610888575b5050806040670de0b6b3a7640000610668610680945188611456565b049161067683600554611442565b6005550151611442565b600435835260026020526002604084200155600854156108725760086000527ff3f7a9fe364faab93b216da50a3214154f22a0a2b415b23a84c8169e8b636ee35460075460405163d8dfeb4560e01b81526001600160a01b03928316989092918216916020908490600490829085165afa92831561086757908592918394610819575b50600354604051633bcce46f60e21b81526001600160a01b0395861660048201526024810196909652604486019a909a529883166064850152600160848501529790911660a48301529095602091879160c49183915af194851561080c5781956107c9575b60208680878a888860018060a01b036007541691604051948552878501526040840152606083015260018060a01b0316907f3e68ae8e518de004a5c7f6407b51d7b729e26ddb6bcd135fe2f9e58df1b75b45608060043592a4604051908152f35b909591939294506020813d602011610804575b816107e96020938361125b565b810103126108005751909450929091602038610768565b8580fd5b3d91506107dc565b50604051903d90823e3d90fd5b91925092506020813d60201161085f575b816108376020938361125b565b8101031261085b57516001600160a01b038116810361085b579184919060c4610703565b8480fd5b3d915061082a565b6040513d87823e3d90fd5b634e487b7160e01b600052603260045260246000fd5b61089190611232565b61089c57823861064c565b8280fd5b6040513d86823e3d90fd5b8380fd5b6108b890611232565b61089c5782386105fe565b8680fd5b6108d390939193611232565b9138610530565b60405162461bcd60e51b815260206004820152601a6024820152794c69717569646174696f6e456e67696e652f6f766572666c6f7760301b6044820152606490fd5b90508611153861043d565b60405162461bcd60e51b815260206004820152601e60248201527f4c69717569646174696f6e456e67696e652f6e756c6c2d61756374696f6e00006044820152606490fd5b826109838361097e84899d989d61127e565b611456565b10156109a25750505050806104216104269280975b9293899150610410565b906109b09198949398611456565b106109c2576104218661042693610998565b60405162461bcd60e51b815260206004820152603860248201527f4c69717569646174696f6e456e67696e652f64757374792d61756374696f6e2d604482015277333937b696b830b93a34b0b616b634b8bab4b230ba34b7b760411b6064820152608490fd5b95610406565b634e487b7160e01b85526011600452602485fd5b90506103aa565b60405162461bcd60e51b815260206004820152602760248201527f4c69717569646174696f6e456e67696e652f6c69717569646174696f6e2d6c696044820152661b5a5d0b5a1a5d60ca1b6064820152608490fd5b506020870151604088015110610380565b60405162461bcd60e51b815260206004820152601c60248201527b4c69717569646174696f6e456e67696e652f6e6f742d756e7361666560201b6044820152606490fd5b610afe915082611456565b610b088884611456565b113861036b565b975050945060a0863d8211610b4c575b81610b2c60a0938361125b565b8101031261089c5760208601519460806040880151970151959638610360565b3d9150610b1f565b6040513d85823e3d90fd5b634e487b7160e01b83526041600452602483fd5b925092506040823d604011610ba6575b81610b906040938361125b565b8101031261089c576020825192015192386102bc565b3d9150610b83565b604051903d90823e3d90fd5b60405162461bcd60e51b815260206004820152602560248201527f4c69717569646174696f6e456e67696e652f6e6f742d636f6e7472616374456e60448201526418589b195960da1b6064820152608490fd5b5080fd5b50346102085780600319360112610208576020600654604051908152f35b5034610208576020366003190112610208576020906040906001600160a01b03610c576111eb565b1681526009835220541515604051908152f35b503461020857606036600319011261020857600435602435906044353384528360205260016040852054036101f657716c69717569646174696f6e50656e616c747960701b8303610d4c57670de0b6b3a76400008110610cee5760206000805160206114b483398151915291838652600282528060408720555b604051908152a380f35b60405162461bcd60e51b815260206004820152603060248201527f4c69717569646174696f6e456e67696e652f66696c652d6c697175696461746960448201526f1bdb94195b985b1d1e4b5b1d0b55d05160821b6064820152608490fd5b6f1b1a5c5d5a59185d1a5bdb931a5b5a5d60821b830361019f5760206000805160206114b48339815191529183865260028252806001604088200155610ce4565b503461020857602036600319011261020857610da76111eb565b3382528160205260016040832054036101f657610dcc906001600160a01b03166112ed565b5080f35b50346102085760203660031901126102085760406060916004358152600260205220805490600260018201549101549060405192835260208301526040820152f35b50346102085780600319360112610208576003546040516001600160a01b039091168152602090f35b503461020857602036600319011261020857610e556111eb565b3382528160205260016040832054036101f6576001600160a01b0316815260208190526040812081905580f35b50346102085780600319360112610208573381528060205260016040822054036101f657806001557f2d4b4ecff7bd7503135271925520a2f6c0d98c9473ffc1a1e72c92502f51b25e8180a180f35b503461020857602036600319011261020857610eeb6111eb565b3382528160205260016040832054036101f657610dcc906001600160a01b031661136c565b503461020857610f1f3661121c565b3383528260205260016040842054036101f657600554610f3f828261127e565b9081116108ab5760055581835260026020526002604084200154610f63828261127e565b9081116108ab577f78430dc03266569e2b73ec40d7107a5bc7047f2244bbca5d04294edb4a6f6ae391602091848652600283526002604087200155604051908152a280f35b50346102085780600319360112610208576040517f00000000000000000000000000000000000000000000000000000000000000006001600160a01b03168152602090f35b50346102085760403660031901126102085760043561100a611206565b3383528260205260016040842054036101f6576f6163636f756e74696e67456e67696e6560801b820361107a57600380546001600160a01b0319166001600160a01b0383161790556000805160206114d4833981519152906020905b6040516001600160a01b039091168152a280f35b693634b8bab4b230ba37b960b11b820361019f57600780546001600160a01b0319166001600160a01b0383161790556000805160206114d483398151915290602090611066565b50346102085780600319360112610208576020600554604051908152f35b50346102085780600319360112610208576020600454604051908152f35b50346102085780600319360112610208576020600154604051908152f35b50346102085780600319360112610208576007546040516001600160a01b039091168152602090f35b50346102085760203660031901126102085761115e6111eb565b3382528160205260016040832054036101f6576001600160a01b031681526020819052604081206001905580f35b5034610208576020366003190112610208576020906040906001600160a01b036111b46111eb565b1681528083522054604051908152f35b905034610c0d576020366003190112610c0d57604060209260043581526002845220548152f35b600435906001600160a01b038216820361120157565b600080fd5b602435906001600160a01b038216820361120157565b6040906003190112611201576004359060243590565b6001600160401b03811161124557604052565b634e487b7160e01b600052604160045260246000fd5b601f909101601f19168101906001600160401b0382119082101761124557604052565b9190820391821161128b57565b634e487b7160e01b600052601160045260246000fd5b81156112ab570490565b634e487b7160e01b600052601260045260246000fd5b600160ff1b811461128b5760000390565b60085481101561087257600860005260206000200190600090565b60008181526009602052604081205461136757600854600160401b81101561135357908261133f611326846001604096016008556112d2565b819391549060031b600019811b9283911b169119161790565b905560085492815260096020522055600190565b634e487b7160e01b82526041600452602482fd5b905090565b600081815260096020526040812054909190801561143d5760001990808201818111610a2e5760085490838201918211611429578082036113f5575b50505060085480156113e1578101906113c0826112d2565b909182549160031b1b19169055600855815260096020526040812055600190565b634e487b7160e01b84526031600452602484fd5b611413611404611326936112d2565b90549060031b1c9283926112d2565b90558452600960205260408420553880806113a8565b634e487b7160e01b86526011600452602486fd5b505090565b919082019182811161128b57821061120157565b60009291801591821561146d575b50501561120157565b8082029450915081158285048214171561128b5761148b90846112a1565b14388061146456feac7c5c1afaef770ec56ac6268cd3f2fbb1035858ead2601d6553157c33036c3ac59b1109b54f213212d2f5af5c1dae5e887f9daa63b595578fae847cb048e8f4d91f38cf03346b5dc15fb60f9076f866295231ad3c3841a1051f8443f25170d1a264697066735822122043d46b0fdb7563d6becbc4af80a139a70290b45804255da37f2d9dfe8e2f682364736f6c63430008110033",
  "devdoc": {
    "kind": "dev",
    "methods": {
      "liquidateCDP(bytes32,address,address,address)": {
        "details": "The entire Vault will be liquidated except when the target amount of StablePro to be raised in the resulting auction (debt of Vault + liquidation penalty) causes either ActiveLiquidationAmount to exceed GlobalLiquidationLimit or collateralType.activeLiquidationAmount to exceed collateralType.liquidationLimit by an economically significant amount. In that case, a partial liquidation is performed to respect the global and per-collateralType limits on outstanding StablePro target. The one exception is if the resulting auction would likely have too little collateral to be interesting to Keepers (debt taken from Vault < collateralType.debtFloor), in which case the function reverts. Please refer to the code and comments within if more detail is desired.",
        "params": {
          "cdp": "- address of cdp position",
          "collateralJoin": "- address of collateral adapter*",
          "collateralType": "- collateral type",
          "incentivesReceiver": "- address that will receive the liquidation reward, if any."
        }
      }
    },
    "version": 1
  },
  "userdoc": {
    "kind": "user",
    "methods": {
      "liquidateCDP(bytes32,address,address,address)": {
        "notice": "Liquidate a Vault and start a Dutch auction to sell its collateral for StablePro."
      }
    },
    "version": 1
  },
  "storageLayout": {
    "storage": [
      {
        "astId": 4425,
        "contract": "contracts/makerdao/externalContracts/LiquidationEngine.sol:LiquidationEngine",
        "label": "authorizedAccounts",
        "offset": 0,
        "slot": "0",
        "type": "t_mapping(t_address,t_uint256)"
      },
      {
        "astId": 4469,
        "contract": "contracts/makerdao/externalContracts/LiquidationEngine.sol:LiquidationEngine",
        "label": "contractEnabled",
        "offset": 0,
        "slot": "1",
        "type": "t_uint256"
      },
      {
        "astId": 3344,
        "contract": "contracts/makerdao/externalContracts/LiquidationEngine.sol:LiquidationEngine",
        "label": "collateralTypes",
        "offset": 0,
        "slot": "2",
        "type": "t_mapping(t_bytes32,t_struct(CollateralType)4081_storage)"
      },
      {
        "astId": 3347,
        "contract": "contracts/makerdao/externalContracts/LiquidationEngine.sol:LiquidationEngine",
        "label": "accountingEngine",
        "offset": 0,
        "slot": "3",
        "type": "t_contract(AccountingEngineLike)3330"
      },
      {
        "astId": 3349,
        "contract": "contracts/makerdao/externalContracts/LiquidationEngine.sol:LiquidationEngine",
        "label": "GlobalLiquidationLimit",
        "offset": 0,
        "slot": "4",
        "type": "t_uint256"
      },
      {
        "astId": 3351,
        "contract": "contracts/makerdao/externalContracts/LiquidationEngine.sol:LiquidationEngine",
        "label": "ActiveLiquidationAmount",
        "offset": 0,
        "slot": "5",
        "type": "t_uint256"
      },
      {
        "astId": 3353,
        "contract": "contracts/makerdao/externalContracts/LiquidationEngine.sol:LiquidationEngine",
        "label": "LiquidatorReward",
        "offset": 0,
        "slot": "6",
        "type": "t_uint256"
      },
      {
        "astId": 3355,
        "contract": "contracts/makerdao/externalContracts/LiquidationEngine.sol:LiquidationEngine",
        "label": "liquidator",
        "offset": 0,
        "slot": "7",
        "type": "t_address"
      },
      {
        "astId": 3880,
        "contract": "contracts/makerdao/externalContracts/LiquidationEngine.sol:LiquidationEngine",
        "label": "_stablecoinWhitelist",
        "offset": 0,
        "slot": "8",
        "type": "t_struct(AddressSet)987_storage"
      }
    ],
    "types": {
      "t_address": {
        "encoding": "inplace",
        "label": "address",
        "numberOfBytes": "20"
      },
      "t_array(t_bytes32)dyn_storage": {
        "base": "t_bytes32",
        "encoding": "dynamic_array",
        "label": "bytes32[]",
        "numberOfBytes": "32"
      },
      "t_bytes32": {
        "encoding": "inplace",
        "label": "bytes32",
        "numberOfBytes": "32"
      },
      "t_contract(AccountingEngineLike)3330": {
        "encoding": "inplace",
        "label": "contract AccountingEngineLike",
        "numberOfBytes": "20"
      },
      "t_mapping(t_address,t_uint256)": {
        "encoding": "mapping",
        "key": "t_address",
        "label": "mapping(address => uint256)",
        "numberOfBytes": "32",
        "value": "t_uint256"
      },
      "t_mapping(t_bytes32,t_struct(CollateralType)4081_storage)": {
        "encoding": "mapping",
        "key": "t_bytes32",
        "label": "mapping(bytes32 => struct ILiquidationEngine.CollateralType)",
        "numberOfBytes": "32",
        "value": "t_struct(CollateralType)4081_storage"
      },
      "t_mapping(t_bytes32,t_uint256)": {
        "encoding": "mapping",
        "key": "t_bytes32",
        "label": "mapping(bytes32 => uint256)",
        "numberOfBytes": "32",
        "value": "t_uint256"
      },
      "t_struct(AddressSet)987_storage": {
        "encoding": "inplace",
        "label": "struct EnumerableSetUpgradeable.AddressSet",
        "members": [
          {
            "astId": 986,
            "contract": "contracts/makerdao/externalContracts/LiquidationEngine.sol:LiquidationEngine",
            "label": "_inner",
            "offset": 0,
            "slot": "0",
            "type": "t_struct(Set)672_storage"
          }
        ],
        "numberOfBytes": "64"
      },
      "t_struct(CollateralType)4081_storage": {
        "encoding": "inplace",
        "label": "struct ILiquidationEngine.CollateralType",
        "members": [
          {
            "astId": 4076,
            "contract": "contracts/makerdao/externalContracts/LiquidationEngine.sol:LiquidationEngine",
            "label": "liquidationPenalty",
            "offset": 0,
            "slot": "0",
            "type": "t_uint256"
          },
          {
            "astId": 4078,
            "contract": "contracts/makerdao/externalContracts/LiquidationEngine.sol:LiquidationEngine",
            "label": "liquidationLimit",
            "offset": 0,
            "slot": "1",
            "type": "t_uint256"
          },
          {
            "astId": 4080,
            "contract": "contracts/makerdao/externalContracts/LiquidationEngine.sol:LiquidationEngine",
            "label": "activeLiquidationAmount",
            "offset": 0,
            "slot": "2",
            "type": "t_uint256"
          }
        ],
        "numberOfBytes": "96"
      },
      "t_struct(Set)672_storage": {
        "encoding": "inplace",
        "label": "struct EnumerableSetUpgradeable.Set",
        "members": [
          {
            "astId": 667,
            "contract": "contracts/makerdao/externalContracts/LiquidationEngine.sol:LiquidationEngine",
            "label": "_values",
            "offset": 0,
            "slot": "0",
            "type": "t_array(t_bytes32)dyn_storage"
          },
          {
            "astId": 671,
            "contract": "contracts/makerdao/externalContracts/LiquidationEngine.sol:LiquidationEngine",
            "label": "_indexes",
            "offset": 0,
            "slot": "1",
            "type": "t_mapping(t_bytes32,t_uint256)"
          }
        ],
        "numberOfBytes": "64"
      },
      "t_uint256": {
        "encoding": "inplace",
        "label": "uint256",
        "numberOfBytes": "32"
      }
    }
  }
}