{
  "address": "0x5954fe5687F36e6BD4e5ACE09F8045c7D5Dcfc04",
  "abi": [
    {
      "inputs": [
        {
          "internalType": "address",
          "name": "_exchange",
          "type": "address"
        }
      ],
      "stateMutability": "nonpayable",
      "type": "constructor"
    },
    {
      "inputs": [
        {
          "internalType": "contract IERC20",
          "name": "gov",
          "type": "address"
        },
        {
          "internalType": "contract IVotingEscrow",
          "name": "veGov",
          "type": "address"
        },
        {
          "internalType": "contract ITopStakers",
          "name": "topStakers",
          "type": "address"
        },
        {
          "internalType": "uint256",
          "name": "lockAmount",
          "type": "uint256"
        },
        {
          "internalType": "uint256",
          "name": "duration",
          "type": "uint256"
        }
      ],
      "name": "becomeTopStaker",
      "outputs": [],
      "stateMutability": "nonpayable",
      "type": "function"
    },
    {
      "inputs": [],
      "name": "exchange",
      "outputs": [
        {
          "internalType": "contract Exchange",
          "name": "",
          "type": "address"
        }
      ],
      "stateMutability": "view",
      "type": "function"
    },
    {
      "inputs": [
        {
          "internalType": "address",
          "name": "token2buy",
          "type": "address"
        },
        {
          "internalType": "uint256",
          "name": "amount",
          "type": "uint256"
        },
        {
          "internalType": "address",
          "name": "sender",
          "type": "address"
        },
        {
          "internalType": "bytes",
          "name": "data",
          "type": "bytes"
        }
      ],
      "name": "stableunitFillOrderCallback",
      "outputs": [
        {
          "internalType": "bool",
          "name": "",
          "type": "bool"
        }
      ],
      "stateMutability": "nonpayable",
      "type": "function"
    },
    {
      "inputs": [
        {
          "internalType": "uint256",
          "name": "orderId",
          "type": "uint256"
        }
      ],
      "name": "triggerFillOrderAsFlashLoan",
      "outputs": [],
      "stateMutability": "nonpayable",
      "type": "function"
    }
  ],
  "transactionHash": "0x283f953603e7ab8a70ff3da20a31f8abdd31d66f788ab7c037d356c97b9dc02f",
  "args": [
    "0x30078795F1403f3c8B738D5148939480aB3F4CF1"
  ],
  "numDeployments": 1,
  "solcInputHash": "403b958b64b1c77d13b9eddc7dda2091",
  "bytecode": "0x60803461007457601f61055838819003918201601f19168301916001600160401b038311848410176100795780849260209460405283398101031261007457516001600160a01b0381169081900361007457600080546001600160a01b0319169190911790556040516104c890816100908239f35b600080fd5b634e487b7160e01b600052604160045260246000fdfe608060408181526004918236101561001657600080fd5b600092833560e01c9182636a2f53c214610302575083908263910caf79146101e95782639d4e51391461007e57505063d2f7265a1461005457600080fd5b3461007a578160031936011261007a57905490516001600160a01b039091168152602090f35b5080fd5b915091346101e55760a03660031901126101e5576001600160a01b03918035838116908190036101e157602435848116809103610198576044359485168095036101985785602060643593604487518094819363095ea7b360e01b8352878a8401528860248401525af180156101d75761019c575b50803b15610198576044869285519889938492635a9602ff60e11b84528784015260843560248401525af1801561018e5761017a575b839450823b15610175578151638f449a0560e01b81529284918491829084905af190811561016c57506101595750f35b61016290610446565b6101695780f35b80fd5b513d84823e3d90fd5b505050fd5b92909361018690610446565b918390610129565b82513d86823e3d90fd5b8580fd5b6020813d82116101cf575b816101b46020938361046f565b810103126101cb57518015150361019857386100f3565b8680fd5b3d91506101a7565b85513d89823e3d90fd5b8480fd5b5050fd5b83346102fe57602091826003193601126102fa5780359180519280858501528484528184019284841060018060401b038511176102e7575082859181845260018060a01b0388541690637176836f60e11b83526044870152670de0b6b3a7640000606487015260606084870152878680518060a4830152825b8181106102ca575080820160c401839052601f01601f1916810103608401918391905af19081156102c15750610296578380f35b82903d84116102b9575b816102aa9161046f565b81010312610169578180808380f35b3d91506102a0565b513d86823e3d90fd5b9182018087015160c49091015289958895508b9350899201610262565b634e487b7160e01b875260419052602486fd5b8380fd5b8280fd5b9391503461007a57608036600319011261007a576001600160a01b038135818116036102fe57604435818116036102fe576001600160401b0394606435908682116101e157366023830112156101e1578184013596871161043357602096610373601f8201601f191689018361046f565b8082528782019236602483830101116101cb57888281949360248a94018737830101528051810103126102fa579060a486925191855416938587519586948593637176836f60e11b8552840152670de0b6b3a76400006024840152606060448401526002606484015261060f60f31b60848401525af1801561042957908491610400575b50825160018152f35b813d8311610422575b610413818361046f565b810103126101695782816103f7565b503d610409565b83513d84823e3d90fd5b634e487b7160e01b855260418452602485fd5b6001600160401b03811161045957604052565b634e487b7160e01b600052604160045260246000fd5b601f909101601f19168101906001600160401b038211908210176104595760405256fea26469706673582212208e807f2535969895354464a2f6a72d41668aec31fc22342d7abc3ffd06bfb39d64736f6c63430008110033",
  "devdoc": {
    "kind": "dev",
    "methods": {},
    "version": 1
  },
  "userdoc": {
    "kind": "user",
    "methods": {},
    "version": 1
  },
  "storageLayout": {
    "storage": [
      {
        "astId": 21762,
        "contract": "contracts/exchange/contracts/mocks/MockReentrancy.sol:MockReentrancy",
        "label": "exchange",
        "offset": 0,
        "slot": "0",
        "type": "t_contract(Exchange)20903"
      }
    ],
    "types": {
      "t_contract(Exchange)20903": {
        "encoding": "inplace",
        "label": "contract Exchange",
        "numberOfBytes": "20"
      }
    }
  }
}