{
  "address": "0xb68EEe62e3167c31F1a43A3a7c43AdD3229827E7",
  "abi": [
    {
      "inputs": [
        {
          "internalType": "address",
          "name": "asset",
          "type": "address"
        }
      ],
      "name": "AlreadyRegistered",
      "type": "error"
    },
    {
      "inputs": [],
      "name": "BadAccessControlSingleton",
      "type": "error"
    },
    {
      "inputs": [
        {
          "internalType": "address",
          "name": "asset",
          "type": "address"
        }
      ],
      "name": "IsNotLP",
      "type": "error"
    },
    {
      "inputs": [],
      "name": "LPOracleNotReady",
      "type": "error"
    },
    {
      "inputs": [
        {
          "internalType": "int256",
          "name": "exchangeRate",
          "type": "int256"
        }
      ],
      "name": "MarketExchangeRateBelowOne",
      "type": "error"
    },
    {
      "inputs": [],
      "name": "MarketExpired",
      "type": "error"
    },
    {
      "inputs": [],
      "name": "MarketProportionMustNotEqualOne",
      "type": "error"
    },
    {
      "inputs": [
        {
          "internalType": "int256",
          "name": "rateScalar",
          "type": "int256"
        }
      ],
      "name": "MarketRateScalarBelowZero",
      "type": "error"
    },
    {
      "inputs": [
        {
          "internalType": "int256",
          "name": "totalPt",
          "type": "int256"
        },
        {
          "internalType": "int256",
          "name": "totalAsset",
          "type": "int256"
        }
      ],
      "name": "MarketZeroTotalPtOrTotalAsset",
      "type": "error"
    },
    {
      "inputs": [],
      "name": "OnlyAdminError",
      "type": "error"
    },
    {
      "inputs": [],
      "name": "OnlyAlerterError",
      "type": "error"
    },
    {
      "inputs": [],
      "name": "OnlyDAOError",
      "type": "error"
    },
    {
      "inputs": [],
      "name": "OnlyLiquidationAccessError",
      "type": "error"
    },
    {
      "inputs": [],
      "name": "OnlyMintAccessError",
      "type": "error"
    },
    {
      "inputs": [],
      "name": "OnlyRewardAccessError",
      "type": "error"
    },
    {
      "inputs": [],
      "name": "OnlyRoleError",
      "type": "error"
    },
    {
      "inputs": [],
      "name": "OnlyVaultAccessError",
      "type": "error"
    },
    {
      "anonymous": false,
      "inputs": [
        {
          "indexed": false,
          "internalType": "uint8",
          "name": "version",
          "type": "uint8"
        }
      ],
      "name": "Initialized",
      "type": "event"
    },
    {
      "inputs": [],
      "name": "ACCESS_CONTROL_SINGLETON",
      "outputs": [
        {
          "internalType": "contract ISuAccessControl",
          "name": "",
          "type": "address"
        }
      ],
      "stateMutability": "view",
      "type": "function"
    },
    {
      "inputs": [],
      "name": "ADMIN_ROLE",
      "outputs": [
        {
          "internalType": "bytes32",
          "name": "",
          "type": "bytes32"
        }
      ],
      "stateMutability": "view",
      "type": "function"
    },
    {
      "inputs": [],
      "name": "ALERTER_ROLE",
      "outputs": [
        {
          "internalType": "bytes32",
          "name": "",
          "type": "bytes32"
        }
      ],
      "stateMutability": "view",
      "type": "function"
    },
    {
      "inputs": [],
      "name": "DAO_ROLE",
      "outputs": [
        {
          "internalType": "bytes32",
          "name": "",
          "type": "bytes32"
        }
      ],
      "stateMutability": "view",
      "type": "function"
    },
    {
      "inputs": [],
      "name": "LIQUIDATION_ACCESS_ROLE",
      "outputs": [
        {
          "internalType": "bytes32",
          "name": "",
          "type": "bytes32"
        }
      ],
      "stateMutability": "view",
      "type": "function"
    },
    {
      "inputs": [],
      "name": "MINT_ACCESS_ROLE",
      "outputs": [
        {
          "internalType": "bytes32",
          "name": "",
          "type": "bytes32"
        }
      ],
      "stateMutability": "view",
      "type": "function"
    },
    {
      "inputs": [],
      "name": "ORACLE",
      "outputs": [
        {
          "internalType": "contract ISuOracle",
          "name": "",
          "type": "address"
        }
      ],
      "stateMutability": "view",
      "type": "function"
    },
    {
      "inputs": [],
      "name": "REWARD_ACCESS_ROLE",
      "outputs": [
        {
          "internalType": "bytes32",
          "name": "",
          "type": "bytes32"
        }
      ],
      "stateMutability": "view",
      "type": "function"
    },
    {
      "inputs": [],
      "name": "VAULT_ACCESS_ROLE",
      "outputs": [
        {
          "internalType": "bytes32",
          "name": "",
          "type": "bytes32"
        }
      ],
      "stateMutability": "view",
      "type": "function"
    },
    {
      "inputs": [
        {
          "internalType": "address",
          "name": "asset",
          "type": "address"
        }
      ],
      "name": "getFiatPrice1e18",
      "outputs": [
        {
          "internalType": "uint256",
          "name": "",
          "type": "uint256"
        }
      ],
      "stateMutability": "view",
      "type": "function"
    },
    {
      "inputs": [
        {
          "internalType": "address",
          "name": "asset",
          "type": "address"
        }
      ],
      "name": "getFiatPrice1e18Unsafe",
      "outputs": [
        {
          "internalType": "uint256",
          "name": "",
          "type": "uint256"
        }
      ],
      "stateMutability": "view",
      "type": "function"
    },
    {
      "inputs": [
        {
          "internalType": "address",
          "name": "_authControl",
          "type": "address"
        },
        {
          "internalType": "address",
          "name": "_oracle",
          "type": "address"
        }
      ],
      "name": "initialize",
      "outputs": [],
      "stateMutability": "nonpayable",
      "type": "function"
    },
    {
      "inputs": [
        {
          "internalType": "address",
          "name": "asset",
          "type": "address"
        }
      ],
      "name": "isAdapterLP",
      "outputs": [
        {
          "internalType": "bool",
          "name": "",
          "type": "bool"
        }
      ],
      "stateMutability": "view",
      "type": "function"
    },
    {
      "inputs": [
        {
          "internalType": "address",
          "name": "",
          "type": "address"
        }
      ],
      "name": "lps",
      "outputs": [
        {
          "internalType": "contract IPMarket",
          "name": "market",
          "type": "address"
        },
        {
          "internalType": "contract IStandardizedYield",
          "name": "SY",
          "type": "address"
        },
        {
          "internalType": "contract IPPrincipalToken",
          "name": "PT",
          "type": "address"
        },
        {
          "internalType": "contract IPYieldToken",
          "name": "YT",
          "type": "address"
        },
        {
          "internalType": "address",
          "name": "mainUnderlyingToken",
          "type": "address"
        }
      ],
      "stateMutability": "view",
      "type": "function"
    },
    {
      "inputs": [
        {
          "internalType": "address",
          "name": "lp",
          "type": "address"
        },
        {
          "internalType": "contract IPMarket",
          "name": "market",
          "type": "address"
        },
        {
          "internalType": "address",
          "name": "mainUnderlyingToken",
          "type": "address"
        }
      ],
      "name": "registerLP",
      "outputs": [],
      "stateMutability": "nonpayable",
      "type": "function"
    },
    {
      "inputs": [
        {
          "internalType": "bytes4",
          "name": "interfaceId",
          "type": "bytes4"
        }
      ],
      "name": "supportsInterface",
      "outputs": [
        {
          "internalType": "bool",
          "name": "",
          "type": "bool"
        }
      ],
      "stateMutability": "view",
      "type": "function"
    },
    {
      "inputs": [
        {
          "internalType": "uint256",
          "name": "",
          "type": "uint256"
        }
      ],
      "name": "underlyingTokens",
      "outputs": [
        {
          "internalType": "address",
          "name": "",
          "type": "address"
        }
      ],
      "stateMutability": "view",
      "type": "function"
    },
    {
      "inputs": [
        {
          "internalType": "address",
          "name": "asset",
          "type": "address"
        },
        {
          "internalType": "uint256",
          "name": "amount",
          "type": "uint256"
        }
      ],
      "name": "withdraw",
      "outputs": [
        {
          "components": [
            {
              "internalType": "address",
              "name": "token",
              "type": "address"
            },
            {
              "internalType": "uint256",
              "name": "amount",
              "type": "uint256"
            }
          ],
          "internalType": "struct WithdrawResult[]",
          "name": "results",
          "type": "tuple[]"
        }
      ],
      "stateMutability": "nonpayable",
      "type": "function"
    }
  ],
  "numDeployments": 1,
  "solcInputHash": "fb971b10e71fde9083125ccba025c60e",
  "bytecode": "0x6080806040523461001657612af9908161001c8239f35b600080fdfe608080604052600436101561001357600080fd5b60003560e01c90816301ffc9a714611d815750806303ee9f2214611d5457806314c376dc14611d1957806338013f0214611cf0578063438280dd14611cb5578063485cc95514611a6e5780635136211714611a4157806371d0fb4114611a0657806375b238fc146119ea5780638e5313e0146119af578063a3bf224b14611954578063b9ac2b38146110da578063c02d9db114610d8b578063c7c7ab6d14610aac578063d12e733214610a3a578063dc97e84e146109ff578063e9c26518146109c45763f3fef3a3146100e557600080fd5b3461035a57604036600319011261035a576100fe611e0c565b61010781611f12565b156109a25760008060405160208101906323b872dd60e01b825261014481610136602435303360248501612a62565b03601f198101835282611e58565b519082855af1610152612a84565b81610973575b50156109485760018060a01b0316600052600160205260406000206040519061018082611e22565b80546001600160a01b03908116835260018201548116602080850191909152600283015482166040808601919091526003840154909216606085015290516004830180548083526000918252838220929493859290830191905b8181106109265750506101ef92500383611e58565b60808301829052600501546001600160a01b031660a083015251604051919061021783611e3d565b6001835260005b60208110610901575060025460009384926001600160a01b039092169190835b61ffff8116838110156103bb57608087015190815111156103a557600582901b621fffe016016020908101518782015160405163cbe52ae360e01b81526001600160a01b03928316939092909183911681806102a06024358860048401612a31565b03915afa90811561036757600091610373575b50604051631735856760e31b815260048101839052906020826024818a5afa9081156103675760009161032c575b6102eb9250611eff565b868111610320575b505061ffff808083161461030a571660010161023e565b634e487b7160e01b600052601160045260246000fd5b909750945038806102f3565b90506020823d60201161035f575b8161034760209383611e58565b8101031261035a576102eb9151906102e1565b600080fd5b3d915061033a565b6040513d6000823e3d90fd5b90506020813d60201161039d575b8161038e60209383611e58565b8101031261035a5751386102b3565b3d9150610381565b634e487b7160e01b600052603260045260246000fd5b8651604051630b2339af60e21b815284918a91906001600160a01b0316606082600481845afa8015610367576000926000906000926108cb575b5060405163a9059cbb60e01b815290602082806104186024358860048401612a31565b03816000885af1908115610367576004926020926108ae575b50604051630bc4ed8360e21b815292839182906001600160a01b03165afa9081156103675760009161087f575b50156107075760408051633dae446f60e21b8152926001600160a01b0385811693169190849081600081610499602435888a60048501612a62565b03925af19081156103675760009384926106d1575b50602460209293604051958693849263bcb7ea5d60e01b845260048401525af19081156103675760009161069b575b6104e79250611f32565b905b60405163769f8e5d60e01b815230600482015260248101929092526001600160a01b0383811660448401819052600060648501819052600160848601529092602092859260a4928492165af191821561036757600092610664575b50916000929183926040519061055982611e3d565b815281602082015261056a86612a24565b5261057485612a24565b508260405161059981610136602082019563a9059cbb60e01b87523360248401612a31565b51925af16105a5612a84565b81610635575b501561060b5760405180916020820160208352815180915260206040840192019060005b8181106105dd575050500390f35b825180516001600160a01b0316855260209081015181860152869550604090940193909201916001016105cf565b60405162461bcd60e51b815260206004820152600260248201526114d560f21b6044820152606490fd5b805180159250821561064a575b5050826105ab565b61065d9250602080918301019101611e7b565b8280610642565b9150916020823d602011610693575b8161068060209383611e58565b8101031261035a57905190916000610544565b3d9150610673565b90506020823d6020116106c9575b816106b660209383611e58565b8101031261035a576104e79151906104dd565b3d91506106a9565b602092506106f860249160403d604011610700575b6106f08183611e58565b810190612a4c565b5092506104ae565b503d6106e6565b5060408051633dae446f60e21b8152908180610733602435866001600160a01b03891660048501612a62565b03816000865af19182156103675760009160009361085c575b5060405160008152926001600160401b036020850190811190851117610846576020840160408190526329910b1160e01b90526001600160a01b03851660248501526044840152606060648401528251608484018190529060005b8281106108315750600084830160a4018190526040926020860192601f909101601f191686018690036084019183915af1908115610367576107f1926000926107f7575b50611f32565b906104e9565b61082291925060403d60401161082a575b6020816108188293838601611e58565b8301019101612a4c565b5090866107eb565b503d610808565b80602091860160a483820151910152016107a7565b634e487b7160e01b600052604160045260246000fd5b909250610878915060403d604011610700576106f08183611e58565b918661074c565b6108a1915060203d6020116108a7575b6108998183611e58565b810190611e7b565b8661045e565b503d61088f565b6108c490833d85116108a7576108998183611e58565b5088610431565b9150506108f091925060603d81116108fa575b6108e88183611e58565b810190611e93565b90929192866103f5565b503d6108de565b60209060405161091081611e3d565b600081526000838201528282870101520161021e565b84546001600160a01b03168352600194850194879450602090930192016101da565b60405162461bcd60e51b815260206004820152600360248201526229aa2360e91b6044820152606490fd5b8051801592508215610988575b505038610158565b61099b9250602080918301019101611e7b565b3880610980565b604051631e489be560e01b81526001600160a01b039091166004820152602490fd5b3461035a57600036600319011261035a5760206040517f3b5d4cc60d3ec3516ee8ae083bd60934f6eb2a6c54b1229985c41bfb092b26038152f35b3461035a57600036600319011261035a5760206040517f9a9aef7c1247d5fc769b0185c052913e39673da29a880317dfd20ebf86f26a498152f35b3461035a57602036600319011261035a5760a06001600160a01b0380610a5e611e0c565b16600052600160205260406000209080825416918160018201541691806002830154169060058160038501541693015416926040519485526020850152604084015260608301526080820152f35b3461035a57606036600319011261035a57610ac5611e0c565b6024356001600160a01b03818116929183900361035a576044359181831680930361035a578160005460101c16906040518092632474521560e21b82526000600483015233602483015281604460209586935afa90811561036757600091610d6e575b5015610d5c578216806000526004600193848452606060406000209760018060a01b031998818a82541617905560405193848092630b2339af60e21b82525afa9182156103675781600493600090600093600091610d36575b50866000528888528289604060002001946002604060002001928d836003604060002001921690825416179055168b825416179055168882541617905560008186604083200154166040519384809263071bc3c960e01b82525afa91821561036757600092610c9b575b508260005284845260046040600020019082519260018060401b03841161084657600160401b84116108465785908354858555808610610c6e575b50019160005284600020908660005b858110610c5a5750505050505060005252600560406000200191825416179055600080f35b878386511695019481850155018790610c35565b8460005288868460002092830192015b828110610c8c575050610c26565b600081558994508a9101610c7e565b9091503d806000833e610cae8183611e58565b810190848183031261035a578051906001600160401b03821161035a57019080601f8301121561035a578151610ce381611ed4565b92610cf16040519485611e58565b818452868085019260051b82010192831161035a5786809101915b838310610d1e57505050509087610beb565b8190610d2984611eeb565b8152019101908690610d0c565b915050610d5291925060603d81116108fa576108e88183611e58565b929190928b610b81565b604051631886ea7d60e11b8152600490fd5b610d859150833d85116108a7576108998183611e58565b86610b28565b3461035a5760208060031936011261035a576001600160a01b0380610dae611e0c565b1690816000526001835260406000209160405191610dcb83611e22565b80845416835280600185015416938584019485528160028201541660408501908152826003830154169160608601928352836004820191604051808b85549182815201946000528b6000209060005b8d8282106110c05750505050610e3581600594950382611e58565b608089015201541660a086015282600254169560048885835116604051928380926376d5de8560e01b82525afa9081156103675789918691600091611085575b50604051631735856760e31b81529116600482015297889060249082905afa96871561036757600097611056575b5083905116936040519188836024816370a0823160e01b998a82528660048301525afa9283156103675789918691600095611020575b5090602492915116604051928380928a82528660048301525afa80156103675789938692600092610fea575b5060249291610f1391611f32565b945116956040519687938492835260048301525afa908115610367578693600092610fb7575b5094610f4a610f4f92600497611f32565b611eff565b925116604051938480926318160ddd60e01b82525afa90811561036757600091610f86575b610f7e9250611f3f565b604051908152f35b90508282813d8311610fb0575b610f9d8183611e58565b8101031261035a57610f7e915190610f74565b503d610f93565b8481959293503d8311610fe3575b610fcf8183611e58565b8101031261035a5791518592610f4a610f39565b503d610fc5565b925093905081813d8311611019575b6110038183611e58565b8101031261035a57518892859190610f13610f05565b503d610ff9565b92839195508092503d831161104f575b61103a8183611e58565b8101031261035a575191889085906024610ed9565b503d611030565b9096508781813d831161107e575b61106e8183611e58565b8101031261035a57519583610ea3565b503d611064565b928092508391503d83116110b9575b61109e8183611e58565b8101031261035a578460246110b38b93611eeb565b90610e75565b503d611094565b835490961687529490950194889460019283019201610e1a565b3461035a57602036600319011261035a576110f3611e0c565b6110fc81611f12565b156109a25760018060a01b0316600052600160205260406000206040519061112382611e22565b60018060a01b03815416825260018060a01b03600182015416602083015260018060a01b03600282015416604083015260018060a01b036003820154169060609182840152600481016040518082602082945493848152019060005260206000209260005b81811061193257505061119d92500382611e58565b6080840152600501546001600160a01b0390811660a08401528251604051630b2339af60e21b8152929116908083600481855afa80156103675760049360009060009261190f575b50604051633ba0b9a960e01b81529460209186919082906001600160a01b03165afa938415610367576000946118db575b50604051636951ac2760e11b8152906001600160a01b0316602082600481845afa918215610367576000926118a7575b5060405163516399df60e01b815290602082600481845afa91821561036757600092611886575b5081611808575b50156117f257915b60405163794052f360e01b815260006004820152906101208083602481855afa9283156103675760009361174d575b505060405192608084016001600160401b03811185821017610846576040526000845260006020850152600060408501526000818501524260a0840151111561173b576112fc4260a0850151611f7e565b6080840151806301e133808102056301e13380148115171561030a576001600160ff1b03821161035a578115611725576301e133808102600160ff1b1460001983141661030a576000826301e133808302051315611706576301e13380028190058552602084015160008112156116fe57600019905b8760008213156116dc5761138f90670de0b6b3a764000092611eff565b046001600160ff1b03811161035a576113a791611fd2565b806020870152845190811580156116d4575b6116b6575050835190610100850151906020870151926113db82895194611f8b565b93670de0b6b3a7640000851261169d57906114026113fc6114079383611f62565b91611fb5565b61204d565b670de0b6b3a7640000811461168b5780670de0b6b3a7640000039360008212670de0b6b3a76400008612811690670de0b6b3a764000087139015161761030a576114736114889461140261146e6114696301e133809961140261147998611fb5565b612347565b611fb5565b90611f49565b604088015260c0860151611eff565b046001600160ff1b03811161035a576114a090612057565b9084015260a08201514210611585575061140260406114c96114d3946020855191015190611f62565b925b015191611fb5565b6000811261035a576114ed926114e891611eff565b611f3f565b60025460a09290920151604051631735856760e31b81526001600160a01b0391821660048201529260209184916024918391165afa9182156103675760009261154f575b6020670de0b6b3a76400006115468486611eff565b04604051908152f35b91506020823d60201161157d575b8161156a60209383611e58565b8101031261035a57905190611546611531565b3d915061155d565b61158e90612781565b6001600160ff1b03811161035a576115a590612034565b60026115cd826115c86101008601516115c24260a0890151611f7e565b90611f8b565b611f62565b056115f9670de0b6b3a76400006115f386516115ed604089015187611f49565b90611fd2565b05612057565b61162982611402611623670de0b6b3a764000061161a60208b015187611fd2565b05885190611f49565b93611fb5565b9485670de0b6b3a76400000195861260011661030a5761167f6114029461140261146e611677604097611473602061166a6114d39e6114026116859c611fb5565b9801519161140289611fb5565b948951611f62565b90611f62565b926114cb565b60405163a9c8b14d60e01b8152600490fd5b60405163329e322960e21b815260048101869052602490fd5b604492506040519163b1c4aefb60e01b835260048301526024820152fd5b5080156113b9565b50600160ff1b811461030a5761138f88670de0b6b3a764000092600003611eff565b600190611372565b6024916301e1338060405192630e520c3b60e11b845202056004820152fd5b634e487b7160e01b600052601260045260246000fd5b60405163b2094b5960e01b8152600490fd5b908092935081813d83116117eb575b6117668183611e58565b8101031261035a576040519182016001600160401b03811183821017610846576040528051825260208101516020830152604081015160408301526117ac848201611eeb565b848301526080810151608083015260a081015160a083015260c081015160c083015260e081015160e083015261010080910151908201529086806112ab565b503d61175c565b808411156118035750825b9161127c565b6117fd565b6040516360e0a9e160e01b81529150602090829060049082905afa90811561036757600091611844575b506001600160801b0316431486611274565b90506020813d60201161187e575b8161185f60209383611e58565b8101031261035a57516001600160801b038116810361035a5786611832565b3d9150611852565b6118a091925060203d6020116108a7576108998183611e58565b908761126d565b9091506020813d6020116118d3575b816118c360209383611e58565b8101031261035a57519086611246565b3d91506118b6565b9093506020813d602011611907575b816118f760209383611e58565b8101031261035a57519285611216565b3d91506118ea565b6020925061192a9150833d85116108fa576108e88183611e58565b9290506111e5565b84546001600160a01b0316835260019485019486945060209093019201611188565b3461035a57602036600319011261035a5760043560035481101561035a5760036000527fc2575a0e9e593c00f959f8c92f12db2869c3395a3b0502d05e2516446f71f85b01546040516001600160a01b039091168152602090f35b3461035a57600036600319011261035a5760206040517fe453bacb314e78dcd5192e6b1a2b1f0e7c76e92f6b7e429a6a90f04e39db3b768152f35b3461035a57600036600319011261035a57602060405160008152f35b3461035a57600036600319011261035a5760206040517f880a91047114272656e533301261260c75e4d11543ac7303d6fe4204579ec7278152f35b3461035a57602036600319011261035a576020611a64611a5f611e0c565b611f12565b6040519015158152f35b3461035a57604036600319011261035a57611a87611e0c565b6001600160a01b036024358181169081900361035a576000549060ff8260081c161591828093611ca8575b8015611c91575b15611c355760ff19811660011760005582611c23575b506000549260ff8460081c1615611bca5762010000600160b01b03601086901b1662010000600160b01b0319851681176000556040516301ffc9a760e01b8152637965db0b60e01b60048201529095909160209183916024918391165afa90811561036757600091611bac575b5015611b9a57600280546001600160a01b031916919091179055611b5c57005b610100600160b01b03191617600055604051600181527f7f26b83ff96e1f2b6a682f133852f6798a09c465da95921460cefb384740249890602090a1005b6040516384d942fd60e01b8152600490fd5b611bc4915060203d81116108a7576108998183611e58565b85611b3c565b60405162461bcd60e51b815260206004820152602b60248201527f496e697469616c697a61626c653a20636f6e7472616374206973206e6f74206960448201526a6e697469616c697a696e6760a81b6064820152608490fd5b61ffff19166101011760005584611acf565b60405162461bcd60e51b815260206004820152602e60248201527f496e697469616c697a61626c653a20636f6e747261637420697320616c72656160448201526d191e481a5b9a5d1a585b1a5e995960921b6064820152608490fd5b50303b158015611ab95750600160ff821614611ab9565b50600160ff821610611ab2565b3461035a57600036600319011261035a5760206040517f39f61ca2a1a28fee144218173ec637b649a353e4026b2738c673800e5bf1437b8152f35b3461035a57600036600319011261035a576002546040516001600160a01b039091168152602090f35b3461035a57600036600319011261035a5760206040517fe965846df3dd5b1dfa65f58e31477079e90140e0908b6dd31b5aead5a57cf3658152f35b3461035a57600036600319011261035a5760005460405160109190911c6001600160a01b03168152602090f35b3461035a57602036600319011261035a5760043563ffffffff60e01b811680910361035a576000546301ffc9a760e01b835260048301919091526020908290602490829060101c6001600160a01b03165afa801561036757602091600091611def575b506040519015158152f35b611e069150823d81116108a7576108998183611e58565b82611de4565b600435906001600160a01b038216820361035a57565b60c081019081106001600160401b0382111761084657604052565b604081019081106001600160401b0382111761084657604052565b601f909101601f19168101906001600160401b0382119082101761084657604052565b9081602091031261035a5751801515810361035a5790565b9081606091031261035a5780516001600160a01b039290838116810361035a57926020830151818116810361035a57604090930151908116810361035a5790565b6001600160401b0381116108465760051b60200190565b51906001600160a01b038216820361035a57565b8181029291811591840414171561030a57565b6001600160a01b0316600090815260016020526040902060040154151590565b9190820180921161030a57565b8115611725570490565b8181039291600013801582851316918412161761030a57565b9190916000838201938412911290801582169115161761030a57565b9190820391821161030a57565b6301e1338091611f9a91611eff565b046001600160ff1b03811161035a57611fb290612057565b90565b90670de0b6b3a76400009182810292818405149015171561030a57565b818102929160008212600160ff1b82141661030a57818405149015171561030a57565b15611ffc57565b60405162461bcd60e51b815260206004820152601060248201526f125b9d985b1a5908195e1c1bdb995b9d60821b6044820152606490fd5b8015611725576a0c097ce7bc90715b34b9f160241b0590565b8115611725570590565b680238fd42c5cf03ffff1981121580612334575b61207490611ff5565b6000811261231f576064906806f05b59d3b200000081126122d25772195e54c5dd42177f53a27172fa9ec63026282760241b9068056bc75e2d631000009083906806f05b59d3b1ffffff19015b0280829168ad78ebc5ac620000008112156122ac575b50806856bc75e2d63100000084921215612288575b682b5e3af16b18800000811215612266575b6815af1d78b58c400000811215612244575b680ad78ebc5ac6200000811215612223575b81811215612202575b6802b5e3af16b18800008112156121e1575b68015af1d78b58c400008112156121c0575b60028282800205056003838383020505600484848302050560058585830205056006868683020505600787878302050590600888888402050592600989898602050594600a8a8a8802050596600b8b8b8a02050598600c8c8c8c0205059a0101010101010101010101010205020590565b6806f5f1775788937937829168015af1d78b58c3ffff19019302059161214f565b6808f00f760a4b2db55d82916802b5e3af16b187ffff19019302059161213d565b680ebc5fb41746121110829168056bc75e2d630fffff19019302059161212b565b68280e60114edb805d038291680ad78ebc5ac61fffff190193020591612122565b690127fa27722cc06cc5e282916815af1d78b58c3fffff190193020591612110565b693f1fce3da636ea5cf8508291682b5e3af16b187fffff1901930205916120fe565b6b02df0ab5a80a22c61ab5a70082916856bc75e2d630ffffff1901930205916120ec565b6e01855144814a7ff805980ff0084000925068ad78ebc5ac61ffffff19019050826120d7565b6803782dace9d9000000811261230c576803782dace9d8ffffff190168056bc75e2d63100000826b1425982cf597cd205cef7380926120c1565b68056bc75e2d63100000826001926120c1565b61232b90600003612057565b611fb290612034565b5068070c1cc73b00c8000081131561206b565b60008113156124195780670c7d713b49da00001280612408575b156123ff57670de0b6b3a7640000906a0c097ce7bc90715b34b9f160241b906123a3908302828101906ec097ce7bc90715b34b9f0fffffffff1901830261204d565b9080828002059181838202058284820205838582020591848684020593858786020595808888020597880205600f900596600d900595600b900594600990059360079005926005900591600390050101010101010160011b0590565b611fb29061244e565b50670f43fc2c04ee00008112612361565b60405162461bcd60e51b815260206004820152600d60248201526c6f7574206f6620626f756e647360981b6044820152606490fd5b670de0b6b3a7640000811261276a576064906000775803bcc5cb9634ba4cfb2213f784019318ed4dcb6017880f60361b821215612741575b6f8bcc0026baae9e45e470190267a230cf60191b821215612720575b8202908202816e01855144814a7ff805980ff008400082818112156126f9575b5050506b02df0ab5a80a22c61ab5a700808212156126d9575b50693f1fce3da636ea5cf850808212156126b9575b50690127fa27722cc06cc5e280821215612699575b5068280e60114edb805d0380821215612679575b50680ebc5fb4174612111080821215612662575b506808f00f760a4b2db55d80821215612642575b506806f5f177578893793780821215612622575b506806248f33704b28660380821215612603575b506805c548670b9510e7ac808212156125e4575b506125a368056bc75e2d6310000091828082019168056bc75e2d630fffff19010261204d565b9080828002059181838202058284820205916003600560076009600b888a89020598808b8b02059a8b0205059805960594059205010101010160011b010590565b68056bc75e2d631000006756bc75e2d63100009202059101903861257d565b68056bc75e2d6310000067ad78ebc5ac62000092020591019038612569565b68056bc75e2d6310000068015af1d78b58c4000092020591019038612555565b68056bc75e2d631000006802b5e3af16b188000092020591019038612541565b68056bc75e2d63100000809202059101903861252d565b68056bc75e2d63100000680ad78ebc5ac620000092020591019038612519565b68056bc75e2d631000006815af1d78b58c40000092020591019038612505565b68056bc75e2d63100000682b5e3af16b18800000920205910190386124f0565b68056bc75e2d631000006856bc75e2d631000000920205910190386124db565b68056bc75e2d631000009192945068ad78ebc5ac62000000935002059101903880806124c2565b6b1425982cf597cd205cef7380909105906803782dace9d9000000016124a2565b5072195e54c5dd42177f53a27172fa9ec63026282760241b90056806f05b59d3b2000000612486565b61277661277b91612034565b61244e565b60000390565b604080516370c264df60e11b815260049290916001600160a01b0390911690602080848681865afa938415612a19576000946129ea575b504284116127d1575050505050670de0b6b3a764000090565b81516001600160401b03919060608101838111828210176129d55784526002815293818501908436833761012c958661280982612a24565b52855192839163883bdbfd60e01b83526024830190868c8501525180915260448301919060005b878282106129b8575050505091818060009403915afa9283156129ad57600093612908575b505050908151600110156128f3578101516001600160d81b03929190831690839061287f90612a24565b51169003928284116128de57908261289d6128a69594934290611f7e565b93160416611f8b565b906000821261035a5781156128c957506a0c097ce7bc90715b34b9f160241b0490565b601290634e487b7160e01b6000525260246000fd5b601185634e487b7160e01b6000525260246000fd5b603285634e487b7160e01b6000525260246000fd5b3d8085843e6129178184611e58565b82019183818403126129a95780519182116129a957019281601f850112156129a65783519061294582611ed4565b9461295287519687611e58565b828652848087019360051b8201019384116129a2578401915b83831061297f575050505050388080612855565b82516001600160d81b038116810361299e57815291840191840161296b565b8280fd5b5080fd5b80fd5b8480fd5b84513d6000823e3d90fd5b835163ffffffff1685528795509384019390920191600101612830565b604188634e487b7160e01b6000525260246000fd5b90938482813d8311612a12575b612a018183611e58565b810103126129a657505192386127b8565b503d6129f7565b82513d6000823e3d90fd5b8051156103a55760200190565b6001600160a01b039091168152602081019190915260400190565b919082604091031261035a576020825192015190565b6001600160a01b03918216815291166020820152604081019190915260600190565b3d15612abe573d906001600160401b0382116108465760405191612ab2601f8201601f191660200184611e58565b82523d6000602084013e565b60609056fea26469706673582212203f5d4e46e10b07e418a55f92a2ed61c518f38931a5fe7f985c215743036eefd664736f6c63430008110033",
  "devdoc": {
    "details": "See ILPAdapter interface for full details.",
    "kind": "dev",
    "methods": {
      "getFiatPrice1e18(address)": {
        "params": {
          "asset": "- address of erc20 token contract"
        },
        "returns": {
          "_0": "usdPrice1e18 such that asset.balanceOf() * getFiatPrice1e18(asset) / 1e18 == $$ * 1e18*"
        }
      },
      "isAdapterLP(address)": {
        "params": {
          "asset": "- address of LP token to check*"
        }
      },
      "registerLP(address,address,address)": {
        "params": {
          "lp": "address of LP token",
          "market": "market for LP token*"
        }
      },
      "supportsInterface(bytes4)": {
        "details": "Returns true if this contract implements the interface defined by `interfaceId`. See the corresponding https://eips.ethereum.org/EIPS/eip-165#how-interfaces-are-identified[EIP section] to learn more about how these ids are created. This function call must use less than 30 000 gas."
      },
      "withdraw(address,uint256)": {
        "params": {
          "amount": "- amount of asset to withdraw/unwrap*",
          "asset": "- address of LP token to withdraw/unwrap"
        }
      }
    },
    "title": "PendleAdapter",
    "version": 1
  },
  "userdoc": {
    "kind": "user",
    "methods": {
      "getFiatPrice1e18(address)": {
        "notice": "WARNING! Read this description very carefully!     function getFiatPrice1e18(address asset) returns (uint256) that:         basicAmountOfAsset * getFiatPrice1e18(asset) / 1e18 === $$ * 1e18     in other words, it doesn't matter what's the erc20.decimals is,     you just multiply token balance in basic units on value from oracle and get dollar amount multiplied on 1e18. different assets have different deviation threshold (errors)     for wBTC it's <= 0.5%, read more https://data.chain.link/ethereum/mainnet/crypto-usd/btc-usd     for other asset is can be larger based on particular oracle implementation. examples:     market price of btc = $30k,     for 0.1 wBTC the unit256 amount is 0.1 * 1e18     0.1 * 1e18 * (price1e18 / 1e18) == $3000 == uint256(3000*1e18)     => price1e18 = 30000 * 1e18;     market price of usdt = $0.97,     for 1 usdt uint256 = 1 * 1e6     so 1*1e6 * price1e18 / 1e18 == $0.97 == uint256(0.97*1e18)     => 1*1e6 * (price1e18 / 1e18) / (0.97*1e18)   = 1     =>  price1e18 = 0.97 * (1e18/1e6) * 1e18    assume market price of wBTC = $31,503.77, oracle error = $158     case #1: small amount of wBTC         we have 0.0,000,001 wBTC that is worth v = $0.00315  $0.00001 = 0.00315*1e18 = 315*1e13  1*1e13         actual balance on the asset b = wBTC.balanceOf() =  0.0000001*1e18 = 1e11         oracle should return or = oracle.getFiatPrice1e18(wBTC) <=>         <=> b*or = v => v/b = 315*1e13 / 1e11 = 315*1e2  1e2         error = or.error * b = 1e2 * 1e11 = 1e13 => 1e13/1e18 usd = 1e-5 = 0.00001 usd     case #2: large amount of wBTC         v = 2,000,000 wBTC = $31,503.77 * 2m  158*2m = $63,007,540,000  $316,000,000 = 63,007*1e24  316*1e24         for calc convenience we increase error on 0.05 and have v = 63,000*24  300*1e24 = (630  3)*1e26         b = 2*1e6 * 1e18 = 2*1e24         or = v/b = (630  3)*1e26 / 2*1e24 = 315*1e2  1.5*1e2         error = or.error * b = 1.5*100 * 2*1e24 = 3*1e26 = 3*1e8*1e18 = $300,000,000 ~ $316,000,000     assume the market price of USDT = $0.97  $0.00485,     case #3: little amount of USDT         v = USDT amount 0.005 = 0.005*(0.97  0.00485) = 0.00485*1e18  0.00002425*1e18 = 485*1e13  3*1e13         we rounded error up on (3000-2425)/2425 ~= +24% for calculation convenience.         b = USDT.balanceOf() = 0.005*1e6 = 5*1e3         b*or = v => or = v/b = (485*1e13  3*1e13) / 5*1e3 = 970*1e9  6*1e9         error = 6*1e9 * 5*1e3 / 1e18 = 30*1e12/1e18 = 3*1e-5 = $0,00005     case #4: lot of USDT         v = we have 100,000,000,000 USDT = $97B = 97*1e9*1e18  0.5*1e9*1e18         b = USDT.balanceOf() = 1e11*1e6 = 1e17         or = v/b = (97*1e9*1e18  0.5*1e9*1e18) / 1e17 = 970*1e9  5*1e9         error = 5*1e9 * 1e17 = 5*1e26 = 0.5 * 1e8*1e18"
      },
      "getFiatPrice1e18Unsafe(address)": {
        "notice": "Is depreceted, only for tests usage"
      },
      "isAdapterLP(address)": {
        "notice": "Returns if asset ig Balancer LP token, registered in our adapter"
      },
      "registerLP(address,address,address)": {
        "notice": "Register the given LP token address and set the LP info"
      },
      "withdraw(address,uint256)": {
        "notice": "Unwrap LP token with depth = 2 (if underlying token is LP => it's also unwrapping)"
      }
    },
    "notice": "Adapter for Pendle LP token.",
    "version": 1
  },
  "storageLayout": {
    "storage": [
      {
        "astId": 79,
        "contract": "contracts/periphery/contracts/adapters/PendleAdapter.sol:PendleAdapter",
        "label": "_initialized",
        "offset": 0,
        "slot": "0",
        "type": "t_uint8"
      },
      {
        "astId": 82,
        "contract": "contracts/periphery/contracts/adapters/PendleAdapter.sol:PendleAdapter",
        "label": "_initializing",
        "offset": 1,
        "slot": "0",
        "type": "t_bool"
      },
      {
        "astId": 9591,
        "contract": "contracts/periphery/contracts/adapters/PendleAdapter.sol:PendleAdapter",
        "label": "ACCESS_CONTROL_SINGLETON",
        "offset": 2,
        "slot": "0",
        "type": "t_contract(ISuAccessControl)11888"
      },
      {
        "astId": 11519,
        "contract": "contracts/periphery/contracts/adapters/PendleAdapter.sol:PendleAdapter",
        "label": "lps",
        "offset": 0,
        "slot": "1",
        "type": "t_mapping(t_address,t_struct(PendleLPInfo)11503_storage)"
      },
      {
        "astId": 11522,
        "contract": "contracts/periphery/contracts/adapters/PendleAdapter.sol:PendleAdapter",
        "label": "ORACLE",
        "offset": 0,
        "slot": "2",
        "type": "t_contract(ISuOracle)11980"
      },
      {
        "astId": 11525,
        "contract": "contracts/periphery/contracts/adapters/PendleAdapter.sol:PendleAdapter",
        "label": "underlyingTokens",
        "offset": 0,
        "slot": "3",
        "type": "t_array(t_address)dyn_storage"
      },
      {
        "astId": 11869,
        "contract": "contracts/periphery/contracts/adapters/PendleAdapter.sol:PendleAdapter",
        "label": "__gap",
        "offset": 0,
        "slot": "4",
        "type": "t_array(t_uint256)45_storage"
      }
    ],
    "types": {
      "t_address": {
        "encoding": "inplace",
        "label": "address",
        "numberOfBytes": "20"
      },
      "t_array(t_address)dyn_storage": {
        "base": "t_address",
        "encoding": "dynamic_array",
        "label": "address[]",
        "numberOfBytes": "32"
      },
      "t_array(t_uint256)45_storage": {
        "base": "t_uint256",
        "encoding": "inplace",
        "label": "uint256[45]",
        "numberOfBytes": "1440"
      },
      "t_bool": {
        "encoding": "inplace",
        "label": "bool",
        "numberOfBytes": "1"
      },
      "t_contract(IPMarket)4960": {
        "encoding": "inplace",
        "label": "contract IPMarket",
        "numberOfBytes": "20"
      },
      "t_contract(IPPrincipalToken)5010": {
        "encoding": "inplace",
        "label": "contract IPPrincipalToken",
        "numberOfBytes": "20"
      },
      "t_contract(IPYieldToken)5167": {
        "encoding": "inplace",
        "label": "contract IPYieldToken",
        "numberOfBytes": "20"
      },
      "t_contract(IStandardizedYield)5363": {
        "encoding": "inplace",
        "label": "contract IStandardizedYield",
        "numberOfBytes": "20"
      },
      "t_contract(ISuAccessControl)11888": {
        "encoding": "inplace",
        "label": "contract ISuAccessControl",
        "numberOfBytes": "20"
      },
      "t_contract(ISuOracle)11980": {
        "encoding": "inplace",
        "label": "contract ISuOracle",
        "numberOfBytes": "20"
      },
      "t_mapping(t_address,t_struct(PendleLPInfo)11503_storage)": {
        "encoding": "mapping",
        "key": "t_address",
        "label": "mapping(address => struct PendleLPInfo)",
        "numberOfBytes": "32",
        "value": "t_struct(PendleLPInfo)11503_storage"
      },
      "t_struct(PendleLPInfo)11503_storage": {
        "encoding": "inplace",
        "label": "struct PendleLPInfo",
        "members": [
          {
            "astId": 11488,
            "contract": "contracts/periphery/contracts/adapters/PendleAdapter.sol:PendleAdapter",
            "label": "market",
            "offset": 0,
            "slot": "0",
            "type": "t_contract(IPMarket)4960"
          },
          {
            "astId": 11491,
            "contract": "contracts/periphery/contracts/adapters/PendleAdapter.sol:PendleAdapter",
            "label": "SY",
            "offset": 0,
            "slot": "1",
            "type": "t_contract(IStandardizedYield)5363"
          },
          {
            "astId": 11494,
            "contract": "contracts/periphery/contracts/adapters/PendleAdapter.sol:PendleAdapter",
            "label": "PT",
            "offset": 0,
            "slot": "2",
            "type": "t_contract(IPPrincipalToken)5010"
          },
          {
            "astId": 11497,
            "contract": "contracts/periphery/contracts/adapters/PendleAdapter.sol:PendleAdapter",
            "label": "YT",
            "offset": 0,
            "slot": "3",
            "type": "t_contract(IPYieldToken)5167"
          },
          {
            "astId": 11500,
            "contract": "contracts/periphery/contracts/adapters/PendleAdapter.sol:PendleAdapter",
            "label": "underlyingTokens",
            "offset": 0,
            "slot": "4",
            "type": "t_array(t_address)dyn_storage"
          },
          {
            "astId": 11502,
            "contract": "contracts/periphery/contracts/adapters/PendleAdapter.sol:PendleAdapter",
            "label": "mainUnderlyingToken",
            "offset": 0,
            "slot": "5",
            "type": "t_address"
          }
        ],
        "numberOfBytes": "192"
      },
      "t_uint256": {
        "encoding": "inplace",
        "label": "uint256",
        "numberOfBytes": "32"
      },
      "t_uint8": {
        "encoding": "inplace",
        "label": "uint8",
        "numberOfBytes": "1"
      }
    }
  }
}