{
  "address": "0x612EC7B933AF9BB666a3Ea249FD31E20c3185727",
  "abi": [
    {
      "inputs": [
        {
          "internalType": "address",
          "name": "asset",
          "type": "address"
        }
      ],
      "name": "AlreadyRegistered",
      "type": "error"
    },
    {
      "inputs": [],
      "name": "BadAccessControlSingleton",
      "type": "error"
    },
    {
      "inputs": [
        {
          "internalType": "address",
          "name": "asset",
          "type": "address"
        }
      ],
      "name": "IsNotLP",
      "type": "error"
    },
    {
      "inputs": [],
      "name": "LPOracleNotReady",
      "type": "error"
    },
    {
      "inputs": [
        {
          "internalType": "int256",
          "name": "exchangeRate",
          "type": "int256"
        }
      ],
      "name": "MarketExchangeRateBelowOne",
      "type": "error"
    },
    {
      "inputs": [],
      "name": "MarketExpired",
      "type": "error"
    },
    {
      "inputs": [],
      "name": "MarketProportionMustNotEqualOne",
      "type": "error"
    },
    {
      "inputs": [
        {
          "internalType": "int256",
          "name": "rateScalar",
          "type": "int256"
        }
      ],
      "name": "MarketRateScalarBelowZero",
      "type": "error"
    },
    {
      "inputs": [
        {
          "internalType": "int256",
          "name": "totalPt",
          "type": "int256"
        },
        {
          "internalType": "int256",
          "name": "totalAsset",
          "type": "int256"
        }
      ],
      "name": "MarketZeroTotalPtOrTotalAsset",
      "type": "error"
    },
    {
      "inputs": [],
      "name": "OnlyAdminError",
      "type": "error"
    },
    {
      "inputs": [],
      "name": "OnlyAlerterError",
      "type": "error"
    },
    {
      "inputs": [],
      "name": "OnlyCDPAccessError",
      "type": "error"
    },
    {
      "inputs": [],
      "name": "OnlyDAOError",
      "type": "error"
    },
    {
      "inputs": [],
      "name": "OnlyDisablerAccessError",
      "type": "error"
    },
    {
      "inputs": [],
      "name": "OnlyLiquidationAccessError",
      "type": "error"
    },
    {
      "inputs": [],
      "name": "OnlyMintAccessError",
      "type": "error"
    },
    {
      "inputs": [],
      "name": "OnlyProxyActionsError",
      "type": "error"
    },
    {
      "inputs": [],
      "name": "OnlyRewardAccessError",
      "type": "error"
    },
    {
      "inputs": [],
      "name": "OnlyRoleError",
      "type": "error"
    },
    {
      "inputs": [],
      "name": "OnlyVaultAccessError",
      "type": "error"
    },
    {
      "inputs": [],
      "name": "OnlyVotingEscrowError",
      "type": "error"
    },
    {
      "anonymous": false,
      "inputs": [
        {
          "indexed": false,
          "internalType": "uint8",
          "name": "version",
          "type": "uint8"
        }
      ],
      "name": "Initialized",
      "type": "event"
    },
    {
      "inputs": [],
      "name": "ACCESS_CONTROL_SINGLETON",
      "outputs": [
        {
          "internalType": "contract ISuAccessControl",
          "name": "",
          "type": "address"
        }
      ],
      "stateMutability": "view",
      "type": "function"
    },
    {
      "inputs": [],
      "name": "ADMIN_ROLE",
      "outputs": [
        {
          "internalType": "bytes32",
          "name": "",
          "type": "bytes32"
        }
      ],
      "stateMutability": "view",
      "type": "function"
    },
    {
      "inputs": [],
      "name": "ALERTER_ROLE",
      "outputs": [
        {
          "internalType": "bytes32",
          "name": "",
          "type": "bytes32"
        }
      ],
      "stateMutability": "view",
      "type": "function"
    },
    {
      "inputs": [],
      "name": "CDP_ACCESS_ROLE",
      "outputs": [
        {
          "internalType": "bytes32",
          "name": "",
          "type": "bytes32"
        }
      ],
      "stateMutability": "view",
      "type": "function"
    },
    {
      "inputs": [],
      "name": "DAO_ROLE",
      "outputs": [
        {
          "internalType": "bytes32",
          "name": "",
          "type": "bytes32"
        }
      ],
      "stateMutability": "view",
      "type": "function"
    },
    {
      "inputs": [],
      "name": "DISABLER_ROLE",
      "outputs": [
        {
          "internalType": "bytes32",
          "name": "",
          "type": "bytes32"
        }
      ],
      "stateMutability": "view",
      "type": "function"
    },
    {
      "inputs": [],
      "name": "LIQUIDATION_ACCESS_ROLE",
      "outputs": [
        {
          "internalType": "bytes32",
          "name": "",
          "type": "bytes32"
        }
      ],
      "stateMutability": "view",
      "type": "function"
    },
    {
      "inputs": [],
      "name": "MINT_ACCESS_ROLE",
      "outputs": [
        {
          "internalType": "bytes32",
          "name": "",
          "type": "bytes32"
        }
      ],
      "stateMutability": "view",
      "type": "function"
    },
    {
      "inputs": [],
      "name": "ORACLE",
      "outputs": [
        {
          "internalType": "contract ISuOracleAggregator",
          "name": "",
          "type": "address"
        }
      ],
      "stateMutability": "view",
      "type": "function"
    },
    {
      "inputs": [],
      "name": "PROXY_ACTIONS_ROLE",
      "outputs": [
        {
          "internalType": "bytes32",
          "name": "",
          "type": "bytes32"
        }
      ],
      "stateMutability": "view",
      "type": "function"
    },
    {
      "inputs": [],
      "name": "REWARD_ACCESS_ROLE",
      "outputs": [
        {
          "internalType": "bytes32",
          "name": "",
          "type": "bytes32"
        }
      ],
      "stateMutability": "view",
      "type": "function"
    },
    {
      "inputs": [],
      "name": "VOTING_ESCROW_ROLE",
      "outputs": [
        {
          "internalType": "bytes32",
          "name": "",
          "type": "bytes32"
        }
      ],
      "stateMutability": "view",
      "type": "function"
    },
    {
      "inputs": [
        {
          "internalType": "address",
          "name": "asset",
          "type": "address"
        }
      ],
      "name": "getFiatPrice1e18",
      "outputs": [
        {
          "internalType": "uint256",
          "name": "",
          "type": "uint256"
        }
      ],
      "stateMutability": "view",
      "type": "function"
    },
    {
      "inputs": [
        {
          "internalType": "address",
          "name": "_authControl",
          "type": "address"
        },
        {
          "internalType": "address",
          "name": "_oracle",
          "type": "address"
        }
      ],
      "name": "initialize",
      "outputs": [],
      "stateMutability": "nonpayable",
      "type": "function"
    },
    {
      "inputs": [
        {
          "internalType": "address",
          "name": "asset",
          "type": "address"
        }
      ],
      "name": "isAdapterLP",
      "outputs": [
        {
          "internalType": "bool",
          "name": "",
          "type": "bool"
        }
      ],
      "stateMutability": "view",
      "type": "function"
    },
    {
      "inputs": [
        {
          "internalType": "address",
          "name": "",
          "type": "address"
        }
      ],
      "name": "lps",
      "outputs": [
        {
          "internalType": "contract IPMarket",
          "name": "market",
          "type": "address"
        },
        {
          "internalType": "contract IStandardizedYield",
          "name": "SY",
          "type": "address"
        },
        {
          "internalType": "address",
          "name": "mainUnderlyingToken",
          "type": "address"
        }
      ],
      "stateMutability": "view",
      "type": "function"
    },
    {
      "inputs": [
        {
          "internalType": "address",
          "name": "lp",
          "type": "address"
        },
        {
          "internalType": "contract IPMarket",
          "name": "market",
          "type": "address"
        },
        {
          "internalType": "address",
          "name": "mainUnderlyingToken",
          "type": "address"
        }
      ],
      "name": "registerLP",
      "outputs": [],
      "stateMutability": "nonpayable",
      "type": "function"
    },
    {
      "inputs": [
        {
          "internalType": "bytes4",
          "name": "interfaceId",
          "type": "bytes4"
        }
      ],
      "name": "supportsInterface",
      "outputs": [
        {
          "internalType": "bool",
          "name": "",
          "type": "bool"
        }
      ],
      "stateMutability": "view",
      "type": "function"
    },
    {
      "inputs": [
        {
          "internalType": "address",
          "name": "asset",
          "type": "address"
        },
        {
          "internalType": "uint256",
          "name": "amount",
          "type": "uint256"
        }
      ],
      "name": "withdraw",
      "outputs": [
        {
          "components": [
            {
              "internalType": "address",
              "name": "token",
              "type": "address"
            },
            {
              "internalType": "uint256",
              "name": "amount",
              "type": "uint256"
            }
          ],
          "internalType": "struct WithdrawResult[]",
          "name": "results",
          "type": "tuple[]"
        }
      ],
      "stateMutability": "nonpayable",
      "type": "function"
    }
  ],
  "numDeployments": 4,
  "solcInputHash": "063b59c64b6b03a7efa7d47f22e02344",
  "bytecode": "0x60808060405234610016576127f6908161001c8239f35b600080fdfe608080604052600436101561001357600080fd5b60003560e01c90816301ffc9a7146113fd5750806303ee9f22146113d057806338013f02146113a7578063438280dd1461136c578063485cc9551461111557806351362117146110e857806371d0fb41146110ad57806375b238fc146110915780638e5313e014611056578063b38234f31461101b578063b9ac2b3814610e64578063bd5f5be614610e29578063c7c7ab6d14610b4c578063d0e8fa8214610b11578063d12e733214610aba578063d2351cee14610a7f578063dc97e84e14610a44578063e9c2651814610a095763f3fef3a3146100f057600080fd5b3461037d57604036600319011261037d57610109611488565b6101128161158e565b156109e75760008060405160208101906323b872dd60e01b825261014f81610141602435303360248501612752565b03601f1981018352826114d4565b519082855af161015d612781565b816109b8575b501561098d5760018060a01b0316600052600160205260406000206040519061018b8261149e565b80546001600160a01b0390811683526001820154166020808401919091526040516002830180548083526000918252838220929493859290830191905b81811061096b5750506101dd925003836114d4565b816040840152600360018060a01b039101541660608301525190604051610203816114b9565b6001815260005b60208110610946575060009260009160005b61ffff81168381101561041057604086015190815111156103fa57600582901b621fffe0160160209081015160025460405163a780f13360e01b81526001600160a01b03928316600482018190529391909216919081602481855afa90811561038a576000916103cb575b506102ba575b505061ffff80808316146102a4571660010161021c565b634e487b7160e01b600052601160045260246000fd5b60208781015160405163cbe52ae360e01b815292919083906001600160a01b031681806102ed6024358960048401612721565b03915afa91821561038a57600092610396575b50906020600092602460405180958193632a5001c960e01b83528860048401525af190811561038a5760009161034f575b61033b925061157b565b8581111561028d579096509350388061028d565b90506020823d602011610382575b8161036a602093836114d4565b8101031261037d5761033b915190610331565b600080fd5b3d915061035d565b6040513d6000823e3d90fd5b91506020823d6020116103c3575b816103b1602093836114d4565b8101031261037d579051906020610300565b3d91506103a4565b6103ed915060203d6020116103f3575b6103e581836114d4565b8101906114f7565b38610287565b503d6103db565b634e487b7160e01b600052603260045260246000fd5b8551604051630b2339af60e21b815284918991906001600160a01b0316606082600481845afa801561038a57600092600090600092610910575b5060405163a9059cbb60e01b8152906020828061046d6024358860048401612721565b03816000885af190811561038a576004926020926108f3575b50604051630bc4ed8360e21b815292839182906001600160a01b03165afa90811561038a576000916108d4575b501561075c5760408051633dae446f60e21b8152926001600160a01b03858116931691908490816000816104ee602435888a60048501612752565b03925af190811561038a576000938492610726575b50602460209293604051958693849263bcb7ea5d60e01b845260048401525af190811561038a576000916106f0575b61053c9250612774565b905b60405163769f8e5d60e01b815230600482015260248101929092526001600160a01b0383811660448401819052600060648501819052600160848601529092602092859260a4928492165af191821561038a576000926106b9575b5091600092918392604051906105ae826114b9565b81528160208201526105bf86612714565b526105c985612714565b50826040516105ee81610141602082019563a9059cbb60e01b87523360248401612721565b51925af16105fa612781565b8161068a575b50156106605760405180916020820160208352815180915260206040840192019060005b818110610632575050500390f35b825180516001600160a01b031685526020908101518186015286955060409094019390920191600101610624565b60405162461bcd60e51b815260206004820152600260248201526114d560f21b6044820152606490fd5b805180159250821561069f575b505082610600565b6106b292506020809183010191016114f7565b8280610697565b9150916020823d6020116106e8575b816106d5602093836114d4565b8101031261037d57905190916000610599565b3d91506106c8565b90506020823d60201161071e575b8161070b602093836114d4565b8101031261037d5761053c915190610532565b3d91506106fe565b6020925061074d60249160403d604011610755575b61074581836114d4565b81019061273c565b509250610503565b503d61073b565b5060408051633dae446f60e21b8152908180610788602435866001600160a01b03891660048501612752565b03816000865af191821561038a576000916000936108b1575b5060405160008152926001600160401b03602085019081119085111761089b576020840160408190526329910b1160e01b90526001600160a01b03851660248501526044840152606060648401528251608484018190529060005b8281106108865750600084830160a4018190526040926020860192601f909101601f191686018690036084019183915af190811561038a576108469260009261084c575b50612774565b9061053e565b61087791925060403d60401161087f575b60208161086d82938386016114d4565b830101910161273c565b509086610840565b503d61085d565b80602091860160a483820151910152016107fc565b634e487b7160e01b600052604160045260246000fd5b9092506108cd915060403d6040116107555761074581836114d4565b91866107a1565b6108ed915060203d6020116103f3576103e581836114d4565b866104b3565b61090990833d85116103f3576103e581836114d4565b5088610486565b91505061093591925060603d811161093f575b61092d81836114d4565b81019061150f565b909291928661044a565b503d610923565b602090604051610955816114b9565b600081526000838201528282850101520161020a565b84546001600160a01b03168352600194850194879450602090930192016101c8565b60405162461bcd60e51b815260206004820152600360248201526229aa2360e91b6044820152606490fd5b80518015925082156109cd575b505038610163565b6109e092506020809183010191016114f7565b38806109c5565b604051631e489be560e01b81526001600160a01b039091166004820152602490fd5b3461037d57600036600319011261037d5760206040517f3b5d4cc60d3ec3516ee8ae083bd60934f6eb2a6c54b1229985c41bfb092b26038152f35b3461037d57600036600319011261037d5760206040517f9a9aef7c1247d5fc769b0185c052913e39673da29a880317dfd20ebf86f26a498152f35b3461037d57600036600319011261037d5760206040517fb0fdd1623e42dbffda4acd8bd643e1cb69f00f0e83abeaa8150ee42cf0fd105e8152f35b3461037d57602036600319011261037d5760606001600160a01b0380610ade611488565b16600052600160205260406000208181541691600381600184015416920154169060405192835260208301526040820152f35b3461037d57600036600319011261037d5760206040517f76d0567582f23e1e9d7a13eeba60f9aea9d69b8da87ca27a8bf3698b35c653db8152f35b3461037d57606036600319011261037d57610b65611488565b6024356001600160a01b03818116929183900361037d576044359181831680930361037d578160005460101c16906040518092632474521560e21b82526000600483015233602483015281604460209586935afa90811561038a57600091610e0c575b5015610dfa578216806000526001928383528060036040600020015416610de15760049082600052848452606060406000209760018060a01b031998818a82541617905560405193848092630b2339af60e21b82525afa801561038a57600492600091610dc1575b5083600052858552818660406000200191168882541617905560008186604083200154166040519384809263071bc3c960e01b82525afa91821561038a57600092610d26575b508260005284845260026040600020019082519260018060401b03841161089b57600160401b841161089b5785908354858555808610610cf9575b50019160005284600020908660005b858110610ce55750505050505060005252600360406000200191825416179055600080f35b878386511695019481850155018790610cc0565b8460005288868460002092830192015b828110610d17575050610cb1565b600081558994508a9101610d09565b9091503d806000833e610d3981836114d4565b810190848183031261037d578051906001600160401b03821161037d57019080601f8301121561037d578151610d6e81611550565b92610d7c60405194856114d4565b818452868085019260051b82010192831161037d5786809101915b838310610da957505050509087610c76565b8190610db484611567565b8152019101908690610d97565b610dd9915060603d811161093f5761092d81836114d4565b505088610c30565b6040516345ed80e960e01b815260048101839052602490fd5b604051631886ea7d60e11b8152600490fd5b610e239150833d85116103f3576103e581836114d4565b86610bc8565b3461037d57600036600319011261037d5760206040517f4f14c8366fa999817edc9f29824eb88a00cc31225e2156f399da4bc91049eb108152f35b3461037d5760208060031936011261037d57610e7e611488565b610e878161158e565b156109e75760018060a01b03809116600052600180835260406000208260405192610eb18461149e565b81835416845281818401541686850152600283016040518092888354928381520192600052886000209160005b8a82821061100357878a610f14828060038e8d610efd818f03826114d4565b6040870152015416926060810193845251166115ce565b600484848451166040519283809263313ce56760e01b82525afa801561038a578591600091610fc9575b5060ff16938060025416935116602460405180958193631735856760e31b835260048301525afa801561038a57600090610f9a575b610f7d925061157b565b604d82116102a457610f9291600a0a906115ae565b604051908152f35b508382813d8311610fc2575b610fb081836114d4565b8101031261037d57610f7d9151610f73565b503d610fa6565b82819392503d8311610ffc575b610fe081836114d4565b8101031261037d575160ff8116810361037d57849060ff610f3e565b503d610fd6565b84549097168552899690940193928201928201610ede565b3461037d57600036600319011261037d5760206040517fd83f5343da19b478b15a140c301a868be9e02603958f38fbd822b9d5c0a289168152f35b3461037d57600036600319011261037d5760206040517fe453bacb314e78dcd5192e6b1a2b1f0e7c76e92f6b7e429a6a90f04e39db3b768152f35b3461037d57600036600319011261037d57602060405160008152f35b3461037d57600036600319011261037d5760206040517f880a91047114272656e533301261260c75e4d11543ac7303d6fe4204579ec7278152f35b3461037d57602036600319011261037d57602061110b611106611488565b61158e565b6040519015158152f35b3461037d57604036600319011261037d5761112e611488565b6001600160a01b036024358181169081900361037d576000549060ff8260081c16159182809361135f575b8015611348575b156112ec5760ff198116600117600055826112da575b506000549260ff8460081c16156112815762010000600160b01b03601086901b1662010000600160b01b03198516811760005594168015908115611224575b5061121257600280546001600160a01b0319169190911790556111d457005b610100600160b01b03191617600055604051600181527f7f26b83ff96e1f2b6a682f133852f6798a09c465da95921460cefb384740249890602090a1005b6040516384d942fd60e01b8152600490fd5b6040516301ffc9a760e01b8152637965db0b60e01b60048201529150602090829060249082905afa90811561038a57600091611263575b5015856111b5565b61127b915060203d81116103f3576103e581836114d4565b8561125b565b60405162461bcd60e51b815260206004820152602b60248201527f496e697469616c697a61626c653a20636f6e7472616374206973206e6f74206960448201526a6e697469616c697a696e6760a81b6064820152608490fd5b61ffff19166101011760005584611176565b60405162461bcd60e51b815260206004820152602e60248201527f496e697469616c697a61626c653a20636f6e747261637420697320616c72656160448201526d191e481a5b9a5d1a585b1a5e995960921b6064820152608490fd5b50303b1580156111605750600160ff821614611160565b50600160ff821610611159565b3461037d57600036600319011261037d5760206040517f39f61ca2a1a28fee144218173ec637b649a353e4026b2738c673800e5bf1437b8152f35b3461037d57600036600319011261037d576002546040516001600160a01b039091168152602090f35b3461037d57600036600319011261037d5760005460405160109190911c6001600160a01b03168152602090f35b3461037d57602036600319011261037d5760043563ffffffff60e01b811680910361037d576000546301ffc9a760e01b835260048301919091526020908290602490829060101c6001600160a01b03165afa801561038a5760209160009161146b575b506040519015158152f35b6114829150823d81116103f3576103e581836114d4565b82611460565b600435906001600160a01b038216820361037d57565b608081019081106001600160401b0382111761089b57604052565b604081019081106001600160401b0382111761089b57604052565b601f909101601f19168101906001600160401b0382119082101761089b57604052565b9081602091031261037d5751801515810361037d5790565b9081606091031261037d5780516001600160a01b039290838116810361037d57926020830151818116810361037d57604090930151908116810361037d5790565b6001600160401b03811161089b5760051b60200190565b51906001600160a01b038216820361037d57565b818102929181159184041417156102a457565b6001600160a01b0316600090815260016020526040902060020154151590565b81156115b8570490565b634e487b7160e01b600052601260045260246000fd5b604051630b2339af60e21b81526001600160a01b0391906000906060816004818787165afa908115611b695784929182918291611e4e575b50602090600460405180988193633ba0b9a960e01b8352165afa948515611b69578295611e1a575b50604051636951ac2760e11b815291908316602083600481845afa928315611b69578293611de6575b5060405163516399df60e01b815290602082600481845afa918215611ddb578392611dba575b5081611d39575b5015611d225750915b60405163794052f360e01b8152600060048201529161012080846024818686165afa93841561038a57600094611c63575b505060a083015160009190421061172d57505050806116fe60406116f461170394516116ee602086015188611f1c565b90611e8c565b925b015191611edc565b611fe0565b916000831261037d5781811061171857505090565b6117259061172a9361157b565b6115ae565b90565b6040519261173a8461149e565b8284528260208501528260408501528260608501524260a08601511115611c51576117694260a0870151611ea8565b60808601516301e133808102908082056301e133801490151715611c29576001600160ff1b038211611b5d578115611c3d57600160ff1b8114600019831416611c2957848282051315611c0f5781900585526117c9602087015188611f1c565b80602087015286519081158015611c07575b611be957505085516101008701516020870151916117fb84895193611eb5565b92670de0b6b3a76400008412611bd057906116fe61181c6118229383611e8c565b91611edc565b670de0b6b3a76400008114611bbe57868112670de0b6b3a764000082810312811690670de0b6b3a76400008381031390151617611baa576118a7926118926301e1338095936116fe61188d611888866116fe61189898670de0b6b3a76400000391611edc565b6122da565b611edc565b90611e73565b604088015260c088015161157b565b046001600160ff1b038111611b65576118bf90611fea565b60608501526040519182606081011060018060401b03606085011117611b965791839160608201604052600282526020820193604036863761012c61190384612714565b5260405163883bdbfd60e01b81526020600482015292516024840181905292948593604485019190865b818110611b7457505050908380920392165afa908115611b69578291611ab8575b50805160011015611aa45760408101516001600160d81b039190821690829061197690612714565b51169003818111611a90576119bf826119ac6002936119ba969561012c6119a14260a08d0151611ea8565b948593160416611eb5565b948591610100890151611eb5565b611e8c565b05906119ec670de0b6b3a76400006119e686516119e0604089015188611e73565b90611ef9565b05611fea565b611a1c836116fe611a16670de0b6b3a7640000611a0d60208b015187611ef9565b058a5190611e73565b93611edc565b9182670de0b6b3a764000001928312600116611a7c5750936116ee6116fe946116fe61188d611a6e6040976118926020611a61611a769a6117039f9e6116fe90611edc565b980151916116fe89611edc565b948951611e8c565b926116f6565b634e487b7160e01b81526011600452602490fd5b634e487b7160e01b83526011600452602483fd5b634e487b7160e01b82526032600452602482fd5b90503d8083833e611ac981836114d4565b810190602081830312611b61578051906001600160401b038211611b6557019080601f83011215611b6157815190611b0082611550565b92611b0e60405194856114d4565b82845260208085019360051b820101918211611b5d57602001915b818310611b39575050503861194e565b82516001600160d81b0381168103611b5957815260209283019201611b29565b8580fd5b8480fd5b8280fd5b8380fd5b6040513d84823e3d90fd5b825163ffffffff1684528997508896506020938401939092019160010161192d565b634e487b7160e01b84526041600452602484fd5b634e487b7160e01b87526011600452602487fd5b60405163a9c8b14d60e01b8152600490fd5b60405163329e322960e21b815260048101859052602490fd5b604492506040519163b1c4aefb60e01b835260048301526024820152fd5b5080156117db565b604051630e520c3b60e11b81529190056004820152602490fd5b634e487b7160e01b85526011600452602485fd5b634e487b7160e01b85526012600452602485fd5b60405163b2094b5960e01b8152600490fd5b9091938282813d8311611d1b575b611c7b81836114d4565b81010312611d1857604051928301906001600160401b03821184831017611d045750604052805182526020810151602083015260408101516040830152611cc460608201611567565b60608301526080810151608083015260a081015160a083015260c081015160c083015260e081015160e083015261010080910151908201529138806116be565b634e487b7160e01b81526041600452602490fd5b80fd5b503d611c71565b5080841115611d345750825b9161168d565b611d2e565b6040516360e0a9e160e01b81529150602090829060049082905afa908115611b69578291611d74575b506001600160801b0316431438611684565b90506020813d602011611db2575b81611d8f602093836114d4565b81010312611dae57516001600160801b0381168103611dae5738611d62565b5080fd5b3d9150611d82565b611dd491925060203d6020116103f3576103e581836114d4565b903861167d565b6040513d85823e3d90fd5b9092506020813d602011611e12575b81611e02602093836114d4565b81010312611dae57519138611657565b3d9150611df5565b9094506020813d602011611e46575b81611e36602093836114d4565b81010312611dae5751938261162e565b3d9150611e29565b60209250611e6b915060603d60601161093f5761092d81836114d4565b929050611606565b818103929160001380158285131691841216176102a457565b919091600083820193841291129080158216911516176102a457565b919082039182116102a457565b6301e1338091611ec49161157b565b046001600160ff1b03811161037d5761172a90611fea565b90670de0b6b3a7640000918281029281840514901517156102a457565b818102929160008212600160ff1b8214166102a45781840514901517156102a457565b6000821215611f8057600019915b600080821315611f605750670de0b6b3a764000091611f489161157b565b046001600160ff1b03811161037d5761172a91611ef9565b600160ff1b8214611a7c5791611f4891670de0b6b3a7640000930361157b565b600191611f2a565b15611f8f57565b60405162461bcd60e51b815260206004820152601060248201526f125b9d985b1a5908195e1c1bdb995b9d60821b6044820152606490fd5b80156115b8576a0c097ce7bc90715b34b9f160241b0590565b81156115b8570590565b680238fd42c5cf03ffff19811215806122c7575b61200790611f88565b600081126122b2576064906806f05b59d3b200000081126122655772195e54c5dd42177f53a27172fa9ec63026282760241b9068056bc75e2d631000009083906806f05b59d3b1ffffff19015b0280829168ad78ebc5ac6200000081121561223f575b50806856bc75e2d6310000008492121561221b575b682b5e3af16b188000008112156121f9575b6815af1d78b58c4000008112156121d7575b680ad78ebc5ac62000008112156121b6575b81811215612195575b6802b5e3af16b1880000811215612174575b68015af1d78b58c40000811215612153575b60028282800205056003838383020505600484848302050560058585830205056006868683020505600787878302050590600888888402050592600989898602050594600a8a8a8802050596600b8b8b8a02050598600c8c8c8c0205059a0101010101010101010101010205020590565b6806f5f1775788937937829168015af1d78b58c3ffff1901930205916120e2565b6808f00f760a4b2db55d82916802b5e3af16b187ffff1901930205916120d0565b680ebc5fb41746121110829168056bc75e2d630fffff1901930205916120be565b68280e60114edb805d038291680ad78ebc5ac61fffff1901930205916120b5565b690127fa27722cc06cc5e282916815af1d78b58c3fffff1901930205916120a3565b693f1fce3da636ea5cf8508291682b5e3af16b187fffff190193020591612091565b6b02df0ab5a80a22c61ab5a70082916856bc75e2d630ffffff19019302059161207f565b6e01855144814a7ff805980ff0084000925068ad78ebc5ac61ffffff190190508261206a565b6803782dace9d9000000811261229f576803782dace9d8ffffff190168056bc75e2d63100000826b1425982cf597cd205cef738092612054565b68056bc75e2d6310000082600192612054565b6122be90600003611fea565b61172a90611fc7565b5068070c1cc73b00c80000811315611ffe565b60008113156123ac5780670c7d713b49da0000128061239b575b1561239257670de0b6b3a7640000906a0c097ce7bc90715b34b9f160241b90612336908302828101906ec097ce7bc90715b34b9f0fffffffff19018302611fe0565b9080828002059181838202058284820205838582020591848684020593858786020595808888020597880205600f900596600d900595600b900594600990059360079005926005900591600390050101010101010160011b0590565b61172a906123e1565b50670f43fc2c04ee000081126122f4565b60405162461bcd60e51b815260206004820152600d60248201526c6f7574206f6620626f756e647360981b6044820152606490fd5b670de0b6b3a764000081126126fd576064906000775803bcc5cb9634ba4cfb2213f784019318ed4dcb6017880f60361b8212156126d4575b6f8bcc0026baae9e45e470190267a230cf60191b8212156126b3575b8202908202816e01855144814a7ff805980ff0084000828181121561268c575b5050506b02df0ab5a80a22c61ab5a7008082121561266c575b50693f1fce3da636ea5cf8508082121561264c575b50690127fa27722cc06cc5e28082121561262c575b5068280e60114edb805d038082121561260c575b50680ebc5fb41746121110808212156125f5575b506808f00f760a4b2db55d808212156125d5575b506806f5f1775788937937808212156125b5575b506806248f33704b28660380821215612596575b506805c548670b9510e7ac80821215612577575b5061253668056bc75e2d6310000091828082019168056bc75e2d630fffff190102611fe0565b9080828002059181838202058284820205916003600560076009600b888a89020598808b8b02059a8b0205059805960594059205010101010160011b010590565b68056bc75e2d631000006756bc75e2d631000092020591019038612510565b68056bc75e2d6310000067ad78ebc5ac620000920205910190386124fc565b68056bc75e2d6310000068015af1d78b58c40000920205910190386124e8565b68056bc75e2d631000006802b5e3af16b1880000920205910190386124d4565b68056bc75e2d6310000080920205910190386124c0565b68056bc75e2d63100000680ad78ebc5ac6200000920205910190386124ac565b68056bc75e2d631000006815af1d78b58c40000092020591019038612498565b68056bc75e2d63100000682b5e3af16b1880000092020591019038612483565b68056bc75e2d631000006856bc75e2d6310000009202059101903861246e565b68056bc75e2d631000009192945068ad78ebc5ac6200000093500205910190388080612455565b6b1425982cf597cd205cef7380909105906803782dace9d900000001612435565b5072195e54c5dd42177f53a27172fa9ec63026282760241b90056806f05b59d3b2000000612419565b61270961270e91611fc7565b6123e1565b60000390565b8051156103fa5760200190565b6001600160a01b039091168152602081019190915260400190565b919082604091031261037d576020825192015190565b6001600160a01b03918216815291166020820152604081019190915260600190565b919082018092116102a457565b3d156127bb573d906001600160401b03821161089b57604051916127af601f8201601f1916602001846114d4565b82523d6000602084013e565b60609056fea2646970667358221220a716efb0c8eb9db6ce9ee9757dc34a545f8349739338f83a9131d4934b0e85fc64736f6c63430008110033",
  "devdoc": {
    "details": "See ILPAdapter interface for full details.",
    "kind": "dev",
    "methods": {
      "isAdapterLP(address)": {
        "params": {
          "asset": "- address of LP token to check*"
        }
      },
      "registerLP(address,address,address)": {
        "params": {
          "lp": "address of LP token",
          "market": "market for LP token*"
        }
      },
      "supportsInterface(bytes4)": {
        "details": "Returns true if this contract implements the interface defined by `interfaceId`. See the corresponding https://eips.ethereum.org/EIPS/eip-165#how-interfaces-are-identified[EIP section] to learn more about how these ids are created. This function call must use less than 30 000 gas."
      }
    },
    "title": "PendleAdapter",
    "version": 1
  },
  "userdoc": {
    "kind": "user",
    "methods": {
      "getFiatPrice1e18(address)": {
        "notice": "Idea of this implementation was in Pendle example*"
      },
      "isAdapterLP(address)": {
        "notice": "Returns if asset ig Balancer LP token, registered in our adapter"
      },
      "registerLP(address,address,address)": {
        "notice": "Register the given LP token address and set the LP info"
      },
      "withdraw(address,uint256)": {
        "notice": "Pendle unwrap LP only to 1 token, but our ILPAdapter is more general, so we need to return here the array of WithdrawResult.*"
      }
    },
    "notice": "Adapter for Pendle LP token.",
    "version": 1
  },
  "storageLayout": {
    "storage": [
      {
        "astId": 462,
        "contract": "contracts/periphery/contracts/adapters/PendleAdapter.sol:PendleAdapter",
        "label": "_initialized",
        "offset": 0,
        "slot": "0",
        "type": "t_uint8"
      },
      {
        "astId": 465,
        "contract": "contracts/periphery/contracts/adapters/PendleAdapter.sol:PendleAdapter",
        "label": "_initializing",
        "offset": 1,
        "slot": "0",
        "type": "t_bool"
      },
      {
        "astId": 26374,
        "contract": "contracts/periphery/contracts/adapters/PendleAdapter.sol:PendleAdapter",
        "label": "ACCESS_CONTROL_SINGLETON",
        "offset": 2,
        "slot": "0",
        "type": "t_contract(ISuAccessControl)29456"
      },
      {
        "astId": 28723,
        "contract": "contracts/periphery/contracts/adapters/PendleAdapter.sol:PendleAdapter",
        "label": "lps",
        "offset": 0,
        "slot": "1",
        "type": "t_mapping(t_address,t_struct(PendleLPInfo)28707_storage)"
      },
      {
        "astId": 28726,
        "contract": "contracts/periphery/contracts/adapters/PendleAdapter.sol:PendleAdapter",
        "label": "ORACLE",
        "offset": 0,
        "slot": "2",
        "type": "t_contract(ISuOracleAggregator)29701"
      },
      {
        "astId": 29033,
        "contract": "contracts/periphery/contracts/adapters/PendleAdapter.sol:PendleAdapter",
        "label": "__gap",
        "offset": 0,
        "slot": "3",
        "type": "t_array(t_uint256)45_storage"
      }
    ],
    "types": {
      "t_address": {
        "encoding": "inplace",
        "label": "address",
        "numberOfBytes": "20"
      },
      "t_array(t_address)dyn_storage": {
        "base": "t_address",
        "encoding": "dynamic_array",
        "label": "address[]",
        "numberOfBytes": "32"
      },
      "t_array(t_uint256)45_storage": {
        "base": "t_uint256",
        "encoding": "inplace",
        "label": "uint256[45]",
        "numberOfBytes": "1440"
      },
      "t_bool": {
        "encoding": "inplace",
        "label": "bool",
        "numberOfBytes": "1"
      },
      "t_contract(IPMarket)10373": {
        "encoding": "inplace",
        "label": "contract IPMarket",
        "numberOfBytes": "20"
      },
      "t_contract(IStandardizedYield)10775": {
        "encoding": "inplace",
        "label": "contract IStandardizedYield",
        "numberOfBytes": "20"
      },
      "t_contract(ISuAccessControl)29456": {
        "encoding": "inplace",
        "label": "contract ISuAccessControl",
        "numberOfBytes": "20"
      },
      "t_contract(ISuOracleAggregator)29701": {
        "encoding": "inplace",
        "label": "contract ISuOracleAggregator",
        "numberOfBytes": "20"
      },
      "t_mapping(t_address,t_struct(PendleLPInfo)28707_storage)": {
        "encoding": "mapping",
        "key": "t_address",
        "label": "mapping(address => struct PendleLPInfo)",
        "numberOfBytes": "32",
        "value": "t_struct(PendleLPInfo)28707_storage"
      },
      "t_struct(PendleLPInfo)28707_storage": {
        "encoding": "inplace",
        "label": "struct PendleLPInfo",
        "members": [
          {
            "astId": 28698,
            "contract": "contracts/periphery/contracts/adapters/PendleAdapter.sol:PendleAdapter",
            "label": "market",
            "offset": 0,
            "slot": "0",
            "type": "t_contract(IPMarket)10373"
          },
          {
            "astId": 28701,
            "contract": "contracts/periphery/contracts/adapters/PendleAdapter.sol:PendleAdapter",
            "label": "SY",
            "offset": 0,
            "slot": "1",
            "type": "t_contract(IStandardizedYield)10775"
          },
          {
            "astId": 28704,
            "contract": "contracts/periphery/contracts/adapters/PendleAdapter.sol:PendleAdapter",
            "label": "underlyingTokens",
            "offset": 0,
            "slot": "2",
            "type": "t_array(t_address)dyn_storage"
          },
          {
            "astId": 28706,
            "contract": "contracts/periphery/contracts/adapters/PendleAdapter.sol:PendleAdapter",
            "label": "mainUnderlyingToken",
            "offset": 0,
            "slot": "3",
            "type": "t_address"
          }
        ],
        "numberOfBytes": "128"
      },
      "t_uint256": {
        "encoding": "inplace",
        "label": "uint256",
        "numberOfBytes": "32"
      },
      "t_uint8": {
        "encoding": "inplace",
        "label": "uint8",
        "numberOfBytes": "1"
      }
    }
  }
}