{
  "address": "0x2928e475E9044e1c1E702e51D800f8b264c2b913",
  "abi": [
    {
      "inputs": [],
      "name": "BadAccessControlSingleton",
      "type": "error"
    },
    {
      "inputs": [],
      "name": "BadEndBlockForRefill",
      "type": "error"
    },
    {
      "inputs": [],
      "name": "DifferentLockup",
      "type": "error"
    },
    {
      "inputs": [],
      "name": "HarvestBeforeLockup",
      "type": "error"
    },
    {
      "inputs": [],
      "name": "OnlyAdminError",
      "type": "error"
    },
    {
      "inputs": [],
      "name": "OnlyAlerterError",
      "type": "error"
    },
    {
      "inputs": [],
      "name": "OnlyDAOError",
      "type": "error"
    },
    {
      "inputs": [],
      "name": "OnlyLiquidationAccessError",
      "type": "error"
    },
    {
      "inputs": [],
      "name": "OnlyMintAccessError",
      "type": "error"
    },
    {
      "inputs": [],
      "name": "OnlyRewardAccessError",
      "type": "error"
    },
    {
      "inputs": [],
      "name": "OnlyRoleError",
      "type": "error"
    },
    {
      "inputs": [],
      "name": "OnlyVaultAccessError",
      "type": "error"
    },
    {
      "inputs": [],
      "name": "PoolExist",
      "type": "error"
    },
    {
      "inputs": [],
      "name": "PoolNotExist",
      "type": "error"
    },
    {
      "inputs": [],
      "name": "ZeroLockupPeriod",
      "type": "error"
    },
    {
      "inputs": [],
      "name": "ZeroMultiplicator",
      "type": "error"
    },
    {
      "anonymous": false,
      "inputs": [
        {
          "indexed": true,
          "internalType": "address",
          "name": "user",
          "type": "address"
        },
        {
          "indexed": true,
          "internalType": "address",
          "name": "asset",
          "type": "address"
        },
        {
          "indexed": false,
          "internalType": "uint256",
          "name": "amount",
          "type": "uint256"
        }
      ],
      "name": "Harvest",
      "type": "event"
    },
    {
      "anonymous": false,
      "inputs": [
        {
          "indexed": false,
          "internalType": "uint8",
          "name": "version",
          "type": "uint8"
        }
      ],
      "name": "Initialized",
      "type": "event"
    },
    {
      "anonymous": false,
      "inputs": [
        {
          "indexed": true,
          "internalType": "address",
          "name": "asset",
          "type": "address"
        },
        {
          "indexed": false,
          "internalType": "uint256",
          "name": "allocPoint",
          "type": "uint256"
        }
      ],
      "name": "LogPoolAddition",
      "type": "event"
    },
    {
      "anonymous": false,
      "inputs": [
        {
          "indexed": true,
          "internalType": "address",
          "name": "asset",
          "type": "address"
        },
        {
          "indexed": false,
          "internalType": "uint256",
          "name": "allocPoint",
          "type": "uint256"
        }
      ],
      "name": "LogSetPool",
      "type": "event"
    },
    {
      "anonymous": false,
      "inputs": [
        {
          "indexed": true,
          "internalType": "address",
          "name": "asset",
          "type": "address"
        },
        {
          "indexed": false,
          "internalType": "uint64",
          "name": "lastRewardBlock",
          "type": "uint64"
        },
        {
          "indexed": false,
          "internalType": "uint256",
          "name": "lpSupply",
          "type": "uint256"
        },
        {
          "indexed": false,
          "internalType": "uint256",
          "name": "accSushiPerShare",
          "type": "uint256"
        }
      ],
      "name": "LogUpdatePool",
      "type": "event"
    },
    {
      "anonymous": false,
      "inputs": [
        {
          "indexed": true,
          "internalType": "address",
          "name": "user",
          "type": "address"
        },
        {
          "indexed": true,
          "internalType": "address",
          "name": "asset",
          "type": "address"
        },
        {
          "indexed": true,
          "internalType": "address",
          "name": "to",
          "type": "address"
        },
        {
          "indexed": false,
          "internalType": "uint256",
          "name": "amount",
          "type": "uint256"
        },
        {
          "indexed": false,
          "internalType": "uint256",
          "name": "lockupPeriodSeconds",
          "type": "uint256"
        }
      ],
      "name": "ResetAmount",
      "type": "event"
    },
    {
      "anonymous": false,
      "inputs": [
        {
          "indexed": true,
          "internalType": "address",
          "name": "user",
          "type": "address"
        },
        {
          "indexed": true,
          "internalType": "address",
          "name": "asset",
          "type": "address"
        },
        {
          "indexed": false,
          "internalType": "uint256",
          "name": "amount",
          "type": "uint256"
        }
      ],
      "name": "VirtualDeposit",
      "type": "event"
    },
    {
      "anonymous": false,
      "inputs": [
        {
          "indexed": true,
          "internalType": "address",
          "name": "user",
          "type": "address"
        },
        {
          "indexed": true,
          "internalType": "address",
          "name": "asset",
          "type": "address"
        },
        {
          "indexed": false,
          "internalType": "uint256",
          "name": "amount",
          "type": "uint256"
        }
      ],
      "name": "VirtualWithdraw",
      "type": "event"
    },
    {
      "inputs": [],
      "name": "ACCESS_CONTROL_SINGLETON",
      "outputs": [
        {
          "internalType": "contract ISuAccessControl",
          "name": "",
          "type": "address"
        }
      ],
      "stateMutability": "view",
      "type": "function"
    },
    {
      "inputs": [],
      "name": "ADMIN_ROLE",
      "outputs": [
        {
          "internalType": "bytes32",
          "name": "",
          "type": "bytes32"
        }
      ],
      "stateMutability": "view",
      "type": "function"
    },
    {
      "inputs": [],
      "name": "ALERTER_ROLE",
      "outputs": [
        {
          "internalType": "bytes32",
          "name": "",
          "type": "bytes32"
        }
      ],
      "stateMutability": "view",
      "type": "function"
    },
    {
      "inputs": [],
      "name": "DAO_ROLE",
      "outputs": [
        {
          "internalType": "bytes32",
          "name": "",
          "type": "bytes32"
        }
      ],
      "stateMutability": "view",
      "type": "function"
    },
    {
      "inputs": [],
      "name": "LIQUIDATION_ACCESS_ROLE",
      "outputs": [
        {
          "internalType": "bytes32",
          "name": "",
          "type": "bytes32"
        }
      ],
      "stateMutability": "view",
      "type": "function"
    },
    {
      "inputs": [],
      "name": "MINT_ACCESS_ROLE",
      "outputs": [
        {
          "internalType": "bytes32",
          "name": "",
          "type": "bytes32"
        }
      ],
      "stateMutability": "view",
      "type": "function"
    },
    {
      "inputs": [],
      "name": "ORACLE",
      "outputs": [
        {
          "internalType": "contract ISuOracle",
          "name": "",
          "type": "address"
        }
      ],
      "stateMutability": "view",
      "type": "function"
    },
    {
      "inputs": [],
      "name": "REWARD_ACCESS_ROLE",
      "outputs": [
        {
          "internalType": "bytes32",
          "name": "",
          "type": "bytes32"
        }
      ],
      "stateMutability": "view",
      "type": "function"
    },
    {
      "inputs": [],
      "name": "REWARD_TOKEN",
      "outputs": [
        {
          "internalType": "contract IERC20Upgradeable",
          "name": "",
          "type": "address"
        }
      ],
      "stateMutability": "view",
      "type": "function"
    },
    {
      "inputs": [],
      "name": "SYSTEM_ROLE",
      "outputs": [
        {
          "internalType": "bytes32",
          "name": "",
          "type": "bytes32"
        }
      ],
      "stateMutability": "view",
      "type": "function"
    },
    {
      "inputs": [],
      "name": "VAULT_ACCESS_ROLE",
      "outputs": [
        {
          "internalType": "bytes32",
          "name": "",
          "type": "bytes32"
        }
      ],
      "stateMutability": "view",
      "type": "function"
    },
    {
      "inputs": [
        {
          "internalType": "uint256",
          "name": "allocPoint",
          "type": "uint256"
        },
        {
          "internalType": "address",
          "name": "_asset",
          "type": "address"
        }
      ],
      "name": "add",
      "outputs": [],
      "stateMutability": "nonpayable",
      "type": "function"
    },
    {
      "inputs": [
        {
          "internalType": "address",
          "name": "asset",
          "type": "address"
        },
        {
          "internalType": "address",
          "name": "to",
          "type": "address"
        },
        {
          "internalType": "uint256",
          "name": "amountEDecimal",
          "type": "uint256"
        }
      ],
      "name": "decreaseAmount",
      "outputs": [],
      "stateMutability": "nonpayable",
      "type": "function"
    },
    {
      "inputs": [
        {
          "internalType": "address",
          "name": "asset",
          "type": "address"
        },
        {
          "internalType": "address",
          "name": "to",
          "type": "address"
        },
        {
          "internalType": "uint256",
          "name": "amountEDecimal",
          "type": "uint256"
        }
      ],
      "name": "getDecreaseAmountRewardPenalty",
      "outputs": [
        {
          "internalType": "uint256",
          "name": "",
          "type": "uint256"
        }
      ],
      "stateMutability": "view",
      "type": "function"
    },
    {
      "inputs": [
        {
          "internalType": "address",
          "name": "_asset",
          "type": "address"
        },
        {
          "internalType": "address",
          "name": "_user",
          "type": "address"
        }
      ],
      "name": "getHarvestLockupEndTimestamp",
      "outputs": [
        {
          "internalType": "uint256",
          "name": "",
          "type": "uint256"
        }
      ],
      "stateMutability": "view",
      "type": "function"
    },
    {
      "inputs": [
        {
          "internalType": "address",
          "name": "asset",
          "type": "address"
        }
      ],
      "name": "getPoolApr",
      "outputs": [
        {
          "internalType": "uint256",
          "name": "",
          "type": "uint256"
        }
      ],
      "stateMutability": "view",
      "type": "function"
    },
    {
      "inputs": [],
      "name": "getPossibleLockupPeriodsSeconds",
      "outputs": [
        {
          "components": [
            {
              "internalType": "uint256",
              "name": "lockupPeriodSeconds",
              "type": "uint256"
            },
            {
              "internalType": "uint256",
              "name": "multiplicator1e18",
              "type": "uint256"
            }
          ],
          "internalType": "struct IRewardChefV2.ILockupPeriod[]",
          "name": "",
          "type": "tuple[]"
        }
      ],
      "stateMutability": "view",
      "type": "function"
    },
    {
      "inputs": [
        {
          "internalType": "address",
          "name": "asset",
          "type": "address"
        },
        {
          "internalType": "address",
          "name": "to",
          "type": "address"
        },
        {
          "internalType": "uint256",
          "name": "newLockupPeriodSeconds",
          "type": "uint256"
        }
      ],
      "name": "harvest",
      "outputs": [],
      "stateMutability": "nonpayable",
      "type": "function"
    },
    {
      "inputs": [
        {
          "internalType": "address",
          "name": "asset",
          "type": "address"
        },
        {
          "internalType": "address",
          "name": "to",
          "type": "address"
        },
        {
          "internalType": "uint256",
          "name": "amountEDecimal",
          "type": "uint256"
        },
        {
          "internalType": "uint256",
          "name": "lockupPeriodSeconds",
          "type": "uint256"
        }
      ],
      "name": "increaseAmount",
      "outputs": [],
      "stateMutability": "nonpayable",
      "type": "function"
    },
    {
      "inputs": [
        {
          "internalType": "address",
          "name": "_authControl",
          "type": "address"
        },
        {
          "internalType": "contract IERC20Upgradeable",
          "name": "_rewardToken",
          "type": "address"
        },
        {
          "internalType": "contract ISuOracle",
          "name": "_oracle",
          "type": "address"
        }
      ],
      "name": "initialize",
      "outputs": [],
      "stateMutability": "nonpayable",
      "type": "function"
    },
    {
      "inputs": [
        {
          "internalType": "uint256",
          "name": "",
          "type": "uint256"
        }
      ],
      "name": "multiplicator1e18ForLockupPeriod",
      "outputs": [
        {
          "internalType": "uint256",
          "name": "",
          "type": "uint256"
        }
      ],
      "stateMutability": "view",
      "type": "function"
    },
    {
      "inputs": [
        {
          "internalType": "address",
          "name": "_asset",
          "type": "address"
        },
        {
          "internalType": "address",
          "name": "_user",
          "type": "address"
        }
      ],
      "name": "pendingSushi",
      "outputs": [
        {
          "internalType": "uint256",
          "name": "pending",
          "type": "uint256"
        }
      ],
      "stateMutability": "view",
      "type": "function"
    },
    {
      "inputs": [
        {
          "internalType": "address",
          "name": "",
          "type": "address"
        }
      ],
      "name": "poolInfo",
      "outputs": [
        {
          "internalType": "uint128",
          "name": "accSushiPerShare",
          "type": "uint128"
        },
        {
          "internalType": "uint64",
          "name": "lastRewardBlock",
          "type": "uint64"
        },
        {
          "internalType": "uint64",
          "name": "allocPoint",
          "type": "uint64"
        },
        {
          "internalType": "uint256",
          "name": "lpSupply",
          "type": "uint256"
        }
      ],
      "stateMutability": "view",
      "type": "function"
    },
    {
      "inputs": [
        {
          "internalType": "uint256",
          "name": "amount",
          "type": "uint256"
        },
        {
          "internalType": "uint64",
          "name": "endBlock",
          "type": "uint64"
        }
      ],
      "name": "refillReward",
      "outputs": [],
      "stateMutability": "nonpayable",
      "type": "function"
    },
    {
      "inputs": [
        {
          "internalType": "address",
          "name": "asset",
          "type": "address"
        },
        {
          "internalType": "address",
          "name": "to",
          "type": "address"
        }
      ],
      "name": "resetAmount",
      "outputs": [],
      "stateMutability": "nonpayable",
      "type": "function"
    },
    {
      "inputs": [],
      "name": "rewardEndBlock",
      "outputs": [
        {
          "internalType": "uint256",
          "name": "",
          "type": "uint256"
        }
      ],
      "stateMutability": "view",
      "type": "function"
    },
    {
      "inputs": [],
      "name": "rewardPerBlock",
      "outputs": [
        {
          "internalType": "uint256",
          "name": "",
          "type": "uint256"
        }
      ],
      "stateMutability": "view",
      "type": "function"
    },
    {
      "inputs": [
        {
          "internalType": "uint256",
          "name": "startBlock",
          "type": "uint256"
        },
        {
          "internalType": "uint256",
          "name": "endBlock",
          "type": "uint256"
        }
      ],
      "name": "rewardsBetweenBlocks",
      "outputs": [
        {
          "internalType": "uint256",
          "name": "",
          "type": "uint256"
        }
      ],
      "stateMutability": "view",
      "type": "function"
    },
    {
      "inputs": [
        {
          "internalType": "address",
          "name": "_asset",
          "type": "address"
        },
        {
          "internalType": "uint256",
          "name": "_allocPoint",
          "type": "uint256"
        }
      ],
      "name": "set",
      "outputs": [],
      "stateMutability": "nonpayable",
      "type": "function"
    },
    {
      "inputs": [
        {
          "internalType": "uint256",
          "name": "lockupPeriodSeconds",
          "type": "uint256"
        },
        {
          "internalType": "uint256",
          "name": "multiplicator1e18",
          "type": "uint256"
        }
      ],
      "name": "setPossibleLockupPeriodsSeconds",
      "outputs": [],
      "stateMutability": "nonpayable",
      "type": "function"
    },
    {
      "inputs": [
        {
          "internalType": "bytes4",
          "name": "interfaceId",
          "type": "bytes4"
        }
      ],
      "name": "supportsInterface",
      "outputs": [
        {
          "internalType": "bool",
          "name": "",
          "type": "bool"
        }
      ],
      "stateMutability": "view",
      "type": "function"
    },
    {
      "inputs": [],
      "name": "totalAllocPoint",
      "outputs": [
        {
          "internalType": "uint256",
          "name": "",
          "type": "uint256"
        }
      ],
      "stateMutability": "view",
      "type": "function"
    },
    {
      "inputs": [],
      "name": "updateAllPools",
      "outputs": [],
      "stateMutability": "nonpayable",
      "type": "function"
    },
    {
      "inputs": [
        {
          "internalType": "address",
          "name": "asset",
          "type": "address"
        }
      ],
      "name": "updatePool",
      "outputs": [
        {
          "components": [
            {
              "internalType": "uint128",
              "name": "accSushiPerShare",
              "type": "uint128"
            },
            {
              "internalType": "uint64",
              "name": "lastRewardBlock",
              "type": "uint64"
            },
            {
              "internalType": "uint64",
              "name": "allocPoint",
              "type": "uint64"
            },
            {
              "internalType": "uint256",
              "name": "lpSupply",
              "type": "uint256"
            }
          ],
          "internalType": "struct IRewardChefV2.PoolInfo",
          "name": "pool",
          "type": "tuple"
        }
      ],
      "stateMutability": "nonpayable",
      "type": "function"
    },
    {
      "inputs": [
        {
          "internalType": "address",
          "name": "",
          "type": "address"
        },
        {
          "internalType": "address",
          "name": "",
          "type": "address"
        }
      ],
      "name": "userInfo",
      "outputs": [
        {
          "internalType": "uint256",
          "name": "amount",
          "type": "uint256"
        },
        {
          "internalType": "int256",
          "name": "rewardDebt",
          "type": "int256"
        },
        {
          "internalType": "uint256",
          "name": "multiplicator1e18",
          "type": "uint256"
        },
        {
          "internalType": "uint256",
          "name": "lockupPeriodSeconds",
          "type": "uint256"
        },
        {
          "internalType": "uint256",
          "name": "lockupStartTimestamp",
          "type": "uint256"
        }
      ],
      "stateMutability": "view",
      "type": "function"
    }
  ],
  "numDeployments": 3,
  "solcInputHash": "9e610b084d72502eaed8c8aac6380418",
  "bytecode": "0x608080604052346100165761289f908161001c8239f35b600080fdfe60806040908082526004918236101561001757600080fd5b600091823560e01c90816301ffc9a714611a395750806303ee9f2214611a0e5780630f208beb1461199a57806314c376dc1461196057806317caf6f1146119425780631d40e439146119155780632b8bbbe81461178e5780632fcd4bc0146116b257806338013f021461168a5780633825d82814611524578063438280dd146114fc578063604ef2e5146114de57806369827402146113565780636aed34f71461116957806371d0fb411461112f57806375071d2a146110f557806375b238fc146110db5780637b46c54f1461108157806387ee8c4c14610f205780638ae39cac14610f025780638e5313e014610ec857806399248ea714610ea05780639a7b5f1114610e3c578063a7533e0914610ade578063b9ec7d7414610abf578063c0c53b8b14610845578063c2ceb95f14610628578063cf4f68d51461050e578063d81c12f1146104f3578063d859c58814610471578063dc97e84e14610437578063e68f85021461040b578063e9c26518146103e3578063eeba3c3f146103c15763f7bfea2c146101a657600080fd5b346103bd5760803660031901126103bd576101bf611acb565b6101c7611ae6565b9060643560018060a01b039384865460101c169281518094632474521560e21b825260008051602061284a8339815191528a83015233602483015281604460209788935afa9081156103b3578891610386575b5015610376578561022a826124a7565b91169586885260028552828820951694858852845281872092600384018054801560001461035e5750818952600a86528389205460028601555542888401555b60028301549788156103505750600180670de0b6b3a76400006102b37fbe0e56c891bb7033dc9f0c815fb5e1fd09ee48ffbc1c32b504a52911a542467098999a9b604435611c0c565b04946102c0868254611c1f565b815501918254926102f3838060801b03946102ed64e8d4a510006102e7888751168b611c0c565b04612440565b90612769565b90556103446060820191610308878451611c1f565b83528a8c52838852858c2094815116848060801b031986541617855585848060401b039161033b838b8301511688612187565b015116846121b0565b5191015551908152a380f35b82516310ce271360e21b8152fd5b9050031561026a5781516318a8ca4f60e01b81528890fd5b8151631a3d931f60e31b81528890fd5b6103a69150853d87116103ac575b61039e8183611bae565b810190611bd1565b3861021a565b503d610394565b83513d8a823e3d90fd5b5080fd5b50346103bd576020906103dc6103d636611afc565b90611e5c565b9051908152f35b50346103bd57816003193601126103bd576020905160008051602061282a8339815191528152f35b508234610433576020366003190112610433576020928291358152600a845220549051908152f35b8280fd5b50346103bd57816003193601126103bd57602090517f9a9aef7c1247d5fc769b0185c052913e39673da29a880317dfd20ebf86f26a498152f35b5082346104335781600319360112610433576103dc90608083602095610495611acb565b61049d611ae6565b6001600160a01b0391821683526002895283832091168252875220845190926104c582611b93565b8354825260018401548783015260028401548683015260038401549384606084015201549182910152611c1f565b50346103bd576020906103dc61050836611b12565b91612785565b508234610433578160031936011261043357610528611acb565b907f0b29f3a03cca6d26633adab7fad4d1d3383ee338e01e04ebcf40d0beff8838fe610552611ae6565b9260018060a01b03809116938487526001602052848760028882209681602052898320338452602052828a808220928354809b600386019384549961059c60018401948554611be9565b8455865260016020528520918183036105d6575b50505082845582600185015542908401555501558651948552602085015216933392a480f35b815483546001600160801b0319166001600160801b0391909116178355815460019261061c916106129060801c6001600160401b031686612187565b5460c01c846121b0565b549101558e80806105b0565b5082346104335761063836611b12565b61064583949295936124a7565b60018060a01b03809516958688526002602052848820338952602052848820918483016106788154600386015490611c1f565b42106108355760028401948554156108255784549064e8d4a51000926106ad846102e760018060801b03958689511690611c0c565b9a8b966106c86106c360018b01998a549061223b565b6123f1565b9c88558c6107e7575b50504290558b52600a602052878b20549687156107d957508554878082101561076e576102e791506102ed93928761073061072961071c946107248d61073d9c9d5497889384611c0c565b905490611c2c565b611be9565b8094611c1f565b9055875495511690611c0c565b90555b55519081527fa0306f61d3fafe13787b78e276cb6b644382854a66cb46daae14227d3ec2679760203392a380f35b9290949193838611610787575b50505050505050610740565b6107be6107c4926102e76107b26107ac6107cb9a6107a78d549a8b611c0c565b611c2c565b88611be9565b97865494511688611c0c565b9061223b565b9055611be9565b90558680808481808061077b565b88516310ce271360e21b8152fd5b6006548c5163a9059cbb60e01b6020820152918316602483015260448083018f9052825261081e921661081982611b47565b611c4c565b8d806106d1565b87516310ce271360e21b81528790fd5b8651633a777ed360e01b81528690fd5b50823461043357606036600319011261043357610860611acb565b916001600160a01b039160243583811690819003610abb5760443590848216809203610ab75786549260ff8460081c161593848095610aaa575b8015610a93575b15610a395760ff198116600117895584610a28575b5087549560ff8760081c16156109d15762010000600160b01b03601089901b1662010000600160b01b0319881681178a559716801515908161096d575b5061095f575060018060a01b031990816006541617600655600754161760075561091b578380f35b610100600160b01b0319909116909117825551600181527f7f26b83ff96e1f2b6a682f133852f6798a09c465da95921460cefb384740249890602090a18180808380f35b84516384d942fd60e01b8152fd5b86516301ffc9a760e01b8152637965db0b60e01b848201529150602090829060249082905afa9081156109c75789916109a9575b5015896108f3565b6109c1915060203d81116103ac5761039e8183611bae565b896109a1565b86513d8b823e3d90fd5b855162461bcd60e51b8152602081840152602b60248201527f496e697469616c697a61626c653a20636f6e7472616374206973206e6f74206960448201526a6e697469616c697a696e6760a81b6064820152608490fd5b61ffff1916610101178855886108b6565b855162461bcd60e51b8152602081840152602e60248201527f496e697469616c697a61626c653a20636f6e747261637420697320616c72656160448201526d191e481a5b9a5d1a585b1a5e995960921b6064820152608490fd5b50303b1580156108a15750600160ff8216146108a1565b50600160ff82161061089a565b8680fd5b8580fd5b8234610adb5780600319360112610adb57610ad86126c7565b80f35b80fd5b509034610adb57602092836003193601126103bd576001600160a01b039182610b05611acb565b1690818152600186526001858220015415610de9576003548015610d9657600954431015610d4357610b4b906107a760085485855260018a528885205460c01c90611c0c565b9084600754169460065416928651631735856760e31b9485825286820152602493898286818b5afa918215610ce5578492610d14575b508060021b90808204881490151715610cef57603c810290808204603c1481151715610d02576105a081029180830460181490151715610d025762080ac0029080820461016e1490151715610cef5790610bda91611c0c565b95875163313ce56760e01b815289818881865afa908115610ce557908a918591610ca7575b5060ff1695858a51809481938252868b8301525afa908115610c9d578391610c6e575b50610c3a918352600189526001888420015490611c0c565b93604d8411610c5e575050506103dc9291610c5891600a0a90611c2c565b90611c2c565b634e487b7160e01b825260119052fd5b90508881813d8311610c96575b610c858183611bae565b810103126104335751610c3a610c22565b503d610c7b565b88513d85823e3d90fd5b82819392503d8311610cde575b610cbe8183611bae565b81010312610cda575160ff81168103610cda57899060ff610bff565b8380fd5b503d610cb4565b89513d86823e3d90fd5b5050634e487b7160e01b82525060118452fd5b634e487b7160e01b8552601188528585fd5b9091508981813d8311610d3c575b610d2c8183611bae565b81010312610cda57519038610b81565b503d610d22565b855162461bcd60e51b8152808501889052602760248201527f526577617264436865663a2056657374696e6720697320616c726561647920666044820152661a5b9a5cda195960ca1b6064820152608490fd5b855162461bcd60e51b8152808501889052602760248201527f526577617264436865663a20546f74616c20616c6c6f636174696f6e20706f6960448201526606e7420697320360cc1b6064820152608490fd5b845162461bcd60e51b8152808401879052602760248201527f526577617264436865663a20506f6f6c20646f65736e27742068617665206c696044820152667175696469747960c81b6064820152608490fd5b50346103bd5760203660031901126103bd5760809181906001600160a01b03610e63611acb565b168152600160205220906001825492015490805192600180861b038116845260018060401b0381861c16602085015260c01c908301526060820152f35b50346103bd57816003193601126103bd5760065490516001600160a01b039091168152602090f35b50346103bd57816003193601126103bd57602090517fe453bacb314e78dcd5192e6b1a2b1f0e7c76e92f6b7e429a6a90f04e39db3b768152f35b50346103bd57816003193601126103bd576020906008549051908152f35b508290346104335780600319360112610433576024356001600160401b038116928035929184900361107d5784548251632474521560e21b81528083018790523360248201526001600160a01b0392916020908290604490829060101c87165afa908115611073578791611055575b50156110475743851115611039575091610fe5610ff592610fff94610fb26126c7565b60065491516323b872dd60e01b602082015233602482015230604482015260648082018690528152911661081982611b93565b8460095480611008575b50611c1f565b610c584384611be9565b60085560095580f35b80915043106000146110325761102c90611026600854914390611be9565b90611c0c565b86610fef565b508461102c565b8251632b0d402960e01b8152fd5b8251631886ea7d60e11b8152fd5b61106d915060203d81116103ac5761039e8183611bae565b87610f8f565b84513d89823e3d90fd5b8480fd5b50346103bd5760203660031901126103bd5760809060606110a86110a3611acb565b6124a7565b825192600180861b03825116845260018060401b0380602084015116602086015281830151169084015201516060820152f35b50346103bd57816003193601126103bd5751908152602090f35b50346103bd57816003193601126103bd57602090517f5719df9ef2c4678b547f89e4f5ae410dbf400fc51cf3ded434c55f6adea2c43f8152f35b50346103bd57816003193601126103bd57602090517f880a91047114272656e533301261260c75e4d11543ac7303d6fe4204579ec7278152f35b508290346104335761117a36611b12565b909160018060a01b039384875460101c169281518094632474521560e21b825260008051602061284a8339815191528983015233602483015281604460209788935afa90811561134c57899161132f575b501561131f576111da836124a7565b9686841697888a5260028652838a2097871697888b528652838a209160028301908154908115611311578c929161123891860198878a549c61122260038a019e8f5490611c1f565b4210156113075761123292612785565b96611c0c565b670de0b6b3a76400009004966001850194855496600160801b600190039788875116611264908c611c0c565b64e8d4a51000900461127590612440565b61127e9161223b565b9061128890612440565b61129191612769565b809655888154906112a191611be9565b80915515998a6001967f5c89d0cd1567084571f8083b115429597fe4af296968d67b6b7ebc9d12777e879c6112fe575b506112ee575b505050506103446060820191610308878451611be9565b83914290555555898b80806112d7565b9050158f6112d1565b5050508396611c0c565b86516310ce271360e21b8152fd5b8151631a3d931f60e31b81528790fd5b6113469150853d87116103ac5761039e8183611bae565b896111cb565b83513d8b823e3d90fd5b50346103bd57816003193601126103bd578051600b80548083529084529192602092838301907f0175b7a638427703f0dbe7bb9bbf987a2551717b34e79f33b5b1008d1fa01db990835b8181106114ca57505050826113b6910383611bae565b81516113c181611ea2565b926113ce86519485611bae565b818452601f196113dd83611ea2565b01835b8181106114a0575050825b82811061144057505050835193838594850191818652845180935281818701950193905b83821061141c5786860387f35b8451805187528301518684015287965094850194938201936001919091019061140f565b8061145361149692849997989699611ec8565b5161145e8285611ec8565b518952600a86528689205487519161147583611b78565b8252868201526114858289611ec8565b526114908188611ec8565b50611eb9565b95929493956113eb565b95879596819598516114b181611b78565b898152898382015282828a0101520196939594966113e0565b8254845292860192600192830192016113a0565b50346103bd57816003193601126103bd576020906009549051908152f35b50346103bd57816003193601126103bd576020905160008051602061284a8339815191528152f35b5091346103bd57826003193601126103bd5761153e611acb565b9260243560018060a01b039182855460101c169281518094632474521560e21b8252878783015233602483015281604460209788935afa908115611680578791611663575b5015611653578616808652600184528186205490949060801c6001600160401b03161561164557506115d77f57096e403eca2ab85e7ad27527b2efe1598aaf6760715227633947f3652a0f6b9495966124a7565b50848652600183528086205460c01c6115fb836115f683600354611be9565b611c1f565b60035561161961160a846121d3565b878952600186528389206121b0565b826116325750611628856120de565b505b51908152a280f35b61162a5761163f85611f28565b5061162a565b905163357113b160e11b8152fd5b8151631886ea7d60e11b81528590fd5b61167a9150853d87116103ac5761039e8183611bae565b38611583565b83513d89823e3d90fd5b50346103bd57816003193601126103bd5760075490516001600160a01b039091168152602090f35b50829034610433576116c336611afc565b84548351632474521560e21b815260008051602061282a833981519152818701523360248201529294919392906020908290604490829060101c6001600160a01b03165afa908115611784578691611766575b501561175857831561174a5750828452600a60205283208190556117415761173d90611ff4565b5080f35b61173d90611fa7565b90516338d945f960e01b8152fd5b905163599a6c3360e11b8152fd5b61177e915060203d81116103ac5761039e8183611bae565b86611716565b83513d88823e3d90fd5b50346103bd57806003193601126103bd5782356117a9611ae6565b9060018060a01b0380855460101c169284518094632474521560e21b8252878983015233602483015281604460209788935afa90811561190b5787916118ee575b50156118de571680855260018352838520546001600160401b03969194919060801c87166118d05750806001856118c47f595f39ef10c3b539b41f83620205bd2e76334edf0cfda5ed207f10616e867dad97989961184a87600354611c1f565b60035561185683611f28565b508a6118bc828a886118678c6121d3565b9489611872436121d3565b938584519d8e61188181611b47565b8581528284820198168852019816885260608d019a838c528352522098888060801b03905116888060801b03198a5416178955511687612187565b5116846121b0565b5191015551908152a280f35b90516318971cbf60e11b8152fd5b8451631886ea7d60e11b81528790fd5b6119059150853d87116103ac5761039e8183611bae565b386117ea565b86513d89823e3d90fd5b50346103bd57806003193601126103bd576020906103dc611934611acb565b61193c611ae6565b90612254565b50346103bd57816003193601126103bd576020906003549051908152f35b50346103bd57816003193601126103bd57602090517fe965846df3dd5b1dfa65f58e31477079e90140e0908b6dd31b5aead5a57cf3658152f35b508290346104335780600319360112610433578060a0936119b9611acb565b6119c1611ae6565b90600180881b038091168352600260205283832091168252602052208054926001820154926002830154916003840154930154938151958652602086015284015260608301526080820152f35b50346103bd57816003193601126103bd579054905160109190911c6001600160a01b03168152602090f35b9293905034610cda576020366003190112610cda57803563ffffffff60e01b811680910361107d5784546301ffc9a760e01b8552918401526020908390602490829060101c6001600160a01b03165afa918215611ac15760209392611aa2575b50519015158152f35b611aba919250833d81116103ac5761039e8183611bae565b9038611a99565b81513d85823e3d90fd5b600435906001600160a01b0382168203611ae157565b600080fd5b602435906001600160a01b0382168203611ae157565b6040906003190112611ae1576004359060243590565b6060906003190112611ae1576001600160a01b03906004358281168103611ae157916024359081168103611ae1579060443590565b608081019081106001600160401b03821117611b6257604052565b634e487b7160e01b600052604160045260246000fd5b604081019081106001600160401b03821117611b6257604052565b60a081019081106001600160401b03821117611b6257604052565b601f909101601f19168101906001600160401b03821190821017611b6257604052565b90816020910312611ae157518015158103611ae15790565b91908203918211611bf657565b634e487b7160e01b600052601160045260246000fd5b81810292918115918404141715611bf657565b91908201809211611bf657565b8115611c36570490565b634e487b7160e01b600052601260045260246000fd5b6040516001600160a01b03909116929190611c6681611b78565b6020918282527f5361666545524332303a206c6f772d6c6576656c2063616c6c206661696c6564838301526000808285829451910182895af13d15611d7c573d956001600160401b038711611d6857611ce094959660405190611cd288601f19601f8401160183611bae565b81528093873d92013e611d88565b805190828215928315611d50575b50505015611cf95750565b6084906040519062461bcd60e51b82526004820152602a60248201527f5361666545524332303a204552433230206f7065726174696f6e20646964206e6044820152691bdd081cdd58d8d9595960b21b6064820152fd5b611d609350820181019101611bd1565b388281611cee565b634e487b7160e01b83526041600452602483fd5b611ce093949591506060915b91929015611dea5750815115611d9c575090565b3b15611da55790565b60405162461bcd60e51b815260206004820152601d60248201527f416464726573733a2063616c6c20746f206e6f6e2d636f6e74726163740000006044820152606490fd5b825190915015611dfd5750805190602001fd5b6040519062461bcd60e51b82528160208060048301528251908160248401526000935b828510611e43575050604492506000838284010152601f80199101168101030190fd5b8481018201518686016044015293810193859350611e20565b600954909190828111611e7157505050600090565b80821015611e935750611e9091611e8791611be9565b60085490611c0c565b90565b611e87915091611e9092611be9565b6001600160401b038111611b625760051b60200190565b6000198114611bf65760010190565b8051821015611edc5760209160051b010190565b634e487b7160e01b600052603260045260246000fd5b600454811015611edc57600460005260206000200190600090565b600b54811015611edc57600b60005260206000200190600090565b600081815260056020526040812054611fa257600454600160401b811015611f8e579082611f7a611f6184600160409601600455611ef2565b819391549060031b600019811b9283911b169119161790565b905560045492815260056020522055600190565b634e487b7160e01b82526041600452602482fd5b905090565b6000818152600c6020526040812054611fa257600b54600160401b811015611f8e579082611fe0611f6184600160409601600b55611f0d565b9055600b54928152600c6020522055600190565b6000818152600c602052604081205490919080156120d957600019908082018181116120c557600b54908382019182116120b15780820361207d575b505050600b5480156120695781019061204882611f0d565b909182549160031b1b19169055600b558152600c6020526040812055600190565b634e487b7160e01b84526031600452602484fd5b61209b61208c611f6193611f0d565b90549060031b1c928392611f0d565b90558452600c6020526040842055388080612030565b634e487b7160e01b86526011600452602486fd5b634e487b7160e01b85526011600452602485fd5b505090565b60008181526005602052604081205490919080156120d957600019908082018181116120c557600454908382019182116120b157808203612153575b50505060045480156120695781019061213282611ef2565b909182549160031b1b19169055600455815260056020526040812055600190565b612171612162611f6193611ef2565b90549060031b1c928392611ef2565b905584526005602052604084205538808061211a565b8054600160801b600160c01b03191660809290921b600160801b600160c01b0316919091179055565b80546001600160c01b031660c09290921b6001600160c01b031916919091179055565b6001600160401b03908181116121e7571690565b60405162461bcd60e51b815260206004820152602660248201527f53616665436173743a2076616c756520646f65736e27742066697420696e203660448201526534206269747360d01b6064820152608490fd5b81810392916000138015828513169184121617611bf657565b600160a01b60019003809116906000928284526020936001855260408082209381519461228086611b47565b805492600160801b6001900398898516885280880196600160401b60019003948594858860801c168a52848b019760c01c88526001015460608b01528a885260028352838820911687528152818620998251986122dc8a611b93565b8b548a5260018c01549b838b019c8d526002810154858c0152600381015460608c01526004015460808b0152511698865260019052842060010154945116804311806123e8575b806123dd575b612356575b50505050509161234e64e8d4a510006102e76106c394611e909651611c0c565b90519061223b565b916123759161236c61237e949897984390611e5c565b91511690611c0c565b60035490611c2c565b9064e8d4a51000918281029281840414901517156123c957506102e76106c3946123bf611e9097956123b961234e9664e8d4a5100096611c2c565b90611c1f565b958195975061232e565b634e487b7160e01b81526011600452602490fd5b506003541515612329565b50841515612323565b600081126123fc5790565b606460405162461bcd60e51b815260206004820152602060248201527f53616665436173743a2076616c7565206d75737420626520706f7369746976656044820152fd5b6001600160ff1b0381116124515790565b60405162461bcd60e51b815260206004820152602860248201527f53616665436173743a2076616c756520646f65736e27742066697420696e2061604482015267371034b73a191a9b60c11b6064820152608490fd5b9060408051906124b682611b47565b60009384835284606060209482868201528285820152015260018060a01b03169182855260018152818520918051956124ee87611b47565b83549260018060801b0397888516815260018060401b0398898660801c1699838301968b885260c01c91600187850199848b520154956060850193878552859d804311612545575b50505050505050505050505050565b8c9189151590816126bd575b506125e2575b5083806001948b7f46cf4926e42ba22492fd67b3ea0fba545c48ca18651eb6cd271e653d3308c5679e9c9a98956125c09560609f809e9c9a612598436121d3565b1690528152878a5220965116998a868060801b03198854161787555116996118bc8b87612187565b519101558251948552840152820152a238808080808080808080808080612536565b6125ff91506125f5612375914390611e5c565b858d511690611c0c565b828651169064e8d4a51000908181029181830414901517156126a9578861262591611c2c565b8381116126555783160182811161264157821685528a83612557565b634e487b7160e01b82526011600452602482fd5b895162461bcd60e51b815260048101899052602760248201527f53616665436173743a2076616c756520646f65736e27742066697420696e20316044820152663238206269747360c81b6064820152608490fd5b634e487b7160e01b83526011600452602483fd5b9050151538612551565b6040516004805480835260009182527f8a35acfbc15ff81a39ae7d344fd709f28e8600b4aa8c65c6b64bfe7fe36bd19b918391602080840192905b82821061274f5750505061271892500382611bae565b80519060005b82811061272a57505050565b61274a906114906001600160a01b036127438386611ec8565b51166124a7565b61271e565b855484526001958601958795509381019390910190612702565b91909160008382019384129112908015821691151617611bf657565b91909160018060a01b0380821660005260026020526040600020908416600052602052604060002090604051926127bb84611b93565b825484526001830154602085015260046002840154938460408701526003810154606087015201546080850152821561281f57611e9094670de0b6b3a764000061280b6128179561281294611c0c565b0492612254565b611c0c565b905190611c2c565b505050505060009056fe3b5d4cc60d3ec3516ee8ae083bd60934f6eb2a6c54b1229985c41bfb092b260339f61ca2a1a28fee144218173ec637b649a353e4026b2738c673800e5bf1437ba26469706673582212202c4ea51073b7081e49f91e3508262ce75fd4361e40502d53f5dafc0d33ea9bf264736f6c63430008110033",
  "devdoc": {
    "details": "See IRewardChefV2 interface for full details.*",
    "kind": "dev",
    "methods": {
      "add(uint256,address)": {
        "params": {
          "_asset": "Address of the ERC-20 token.",
          "allocPoint": "AP of the new pool."
        }
      },
      "decreaseAmount(address,address,uint256)": {
        "params": {
          "amountEDecimal": "Quantity without taking into account the multiplier that we will subtract",
          "asset": "Asset address",
          "to": "User for whom we will subtract the virtual balance"
        }
      },
      "getDecreaseAmountRewardPenalty(address,address,uint256)": {
        "params": {
          "amountEDecimal": "Quantity without taking into account the multiplier that we will subtract",
          "asset": "Asset address",
          "to": "User who will decrease his deposit amount"
        }
      },
      "getPoolApr(address)": {
        "params": {
          "asset": "Asset address"
        }
      },
      "harvest(address,address,uint256)": {
        "details": "Here we send msg.sender pendingSushi to {to} and update lockup period.",
        "params": {
          "asset": "Asset address",
          "to": "Receiver of REWARD_TOKEN rewards."
        }
      },
      "increaseAmount(address,address,uint256,uint256)": {
        "params": {
          "amountEDecimal": "Quantity without taking into account the multiplier that we will add",
          "asset": "Asset address",
          "lockupPeriodSeconds": "Current deposit lockup period. Can't increase amount with 2 different lockupPeriods",
          "to": "User for whom we will increase the virtual balance"
        }
      },
      "pendingSushi(address,address)": {
        "params": {
          "_asset": "Address of the ERC-20 token.",
          "_user": "Address of user."
        },
        "returns": {
          "pending": "REWARD_TOKEN reward for a given user."
        }
      },
      "refillReward(uint256,uint64)": {
        "details": "admin transfer REWARD_TOKEN to contract to increase rewards per block"
      },
      "resetAmount(address,address)": {
        "params": {
          "asset": "Asset address",
          "to": "The address of the user whose information will be cleared"
        }
      },
      "rewardsBetweenBlocks(uint256,uint256)": {
        "details": "returns total amount of rewards allocated to the all pools on the rage (startBlock, endBlock] i.e. excluding startBlock but including endBlock"
      },
      "set(address,uint256)": {
        "params": {
          "_allocPoint": "New AP of the pool.",
          "_asset": "Address of the ERC-20 token."
        }
      },
      "setPossibleLockupPeriodsSeconds(uint256,uint256)": {
        "details": "If multiplicator1e18 == 0 => we remove lockupPeriodSeconds else we add it",
        "params": {
          "lockupPeriodSeconds": "Amount of seconds of lockupPeriod we want to add/remove",
          "multiplicator1e18": "Multiplicator for that lockupPeriod"
        }
      },
      "supportsInterface(bytes4)": {
        "details": "Returns true if this contract implements the interface defined by `interfaceId`. See the corresponding https://eips.ethereum.org/EIPS/eip-165#how-interfaces-are-identified[EIP section] to learn more about how these ids are created. This function call must use less than 30 000 gas."
      },
      "updatePool(address)": {
        "params": {
          "asset": "Asset address"
        },
        "returns": {
          "pool": "updated pool info"
        }
      }
    },
    "stateVariables": {
      "totalAllocPoint": {
        "details": "Total allocation points. Must be the sum of all allocation points in all pools. The good practice, to always keep this variable is equal 1000."
      }
    },
    "title": "RewardChefV2",
    "version": 1
  },
  "userdoc": {
    "kind": "user",
    "methods": {
      "add(uint256,address)": {
        "notice": "Add a new reward pool. Can only be called by the admin. Can't add the same LP token more than once."
      },
      "decreaseAmount(address,address,uint256)": {
        "notice": "Analogues to MVC2 Withdraw method, that can be called only by trusted address (onlyRewardAccess) that is trusted to honestly calc how many \"virtual\" tokens have to be allocated for each user."
      },
      "getDecreaseAmountRewardPenalty(address,address,uint256)": {
        "notice": "View method that return penalty for user that will decrease amount by {amountEDecimal}"
      },
      "getPoolApr(address)": {
        "notice": "Method for frontend that return pool APR"
      },
      "getPossibleLockupPeriodsSeconds()": {
        "notice": "view method that return all lockupPeriods in ILockupPeriod struct"
      },
      "harvest(address,address,uint256)": {
        "notice": "Harvest proceeds for transaction sender to {to}."
      },
      "increaseAmount(address,address,uint256,uint256)": {
        "notice": "analogues to MCV2 Deposit method, but can be called only by trusted address (onlyRewardAccess) that is trusted to honestly calc how many \"virtual\" tokens have to be allocated for each user."
      },
      "initialize(address,address,address)": {
        "notice": "_rewardToken The REWARD_TOKEN token contract address.*"
      },
      "pendingSushi(address,address)": {
        "notice": "View function to see pending REWARD_TOKEN on frontend."
      },
      "poolInfo(address)": {
        "notice": "Info of each MCV2 pool. SuDAO: instead of pool Ids (pid) we use address of the asset directly. Also, there aren't just LPs but regular assets as well*"
      },
      "resetAmount(address,address)": {
        "notice": "Withdraw without caring about rewards. EMERGENCY ONLY."
      },
      "set(address,uint256)": {
        "notice": "Update the given pool's REWARD_TOKEN allocation point. Can only be called by the admin. Can't be called for asset that was not added by add() function."
      },
      "setPossibleLockupPeriodsSeconds(uint256,uint256)": {
        "notice": "method to add new LockupPeriods with it multiplicator"
      },
      "updateAllPools()": {
        "notice": "Update reward variables for all pools. Be careful of gas spending!"
      },
      "updatePool(address)": {
        "notice": "Update reward variables of the given pool."
      },
      "userInfo(address,address)": {
        "notice": "Info of each user that stakes tokens. userInfo[_asset][_user]*"
      }
    },
    "version": 1
  },
  "storageLayout": {
    "storage": [
      {
        "astId": 79,
        "contract": "contracts/reward/RewardChefV2.sol:RewardChefV2",
        "label": "_initialized",
        "offset": 0,
        "slot": "0",
        "type": "t_uint8"
      },
      {
        "astId": 82,
        "contract": "contracts/reward/RewardChefV2.sol:RewardChefV2",
        "label": "_initializing",
        "offset": 1,
        "slot": "0",
        "type": "t_bool"
      },
      {
        "astId": 4739,
        "contract": "contracts/reward/RewardChefV2.sol:RewardChefV2",
        "label": "ACCESS_CONTROL_SINGLETON",
        "offset": 2,
        "slot": "0",
        "type": "t_contract(ISuAccessControl)4949"
      },
      {
        "astId": 5005,
        "contract": "contracts/reward/RewardChefV2.sol:RewardChefV2",
        "label": "poolInfo",
        "offset": 0,
        "slot": "1",
        "type": "t_mapping(t_address,t_struct(PoolInfo)4421_storage)"
      },
      {
        "astId": 5013,
        "contract": "contracts/reward/RewardChefV2.sol:RewardChefV2",
        "label": "userInfo",
        "offset": 0,
        "slot": "2",
        "type": "t_mapping(t_address,t_mapping(t_address,t_struct(UserInfo)4432_storage))"
      },
      {
        "astId": 5015,
        "contract": "contracts/reward/RewardChefV2.sol:RewardChefV2",
        "label": "totalAllocPoint",
        "offset": 0,
        "slot": "3",
        "type": "t_uint256"
      },
      {
        "astId": 5019,
        "contract": "contracts/reward/RewardChefV2.sol:RewardChefV2",
        "label": "assetSet",
        "offset": 0,
        "slot": "4",
        "type": "t_struct(AddressSet)2940_storage"
      },
      {
        "astId": 5025,
        "contract": "contracts/reward/RewardChefV2.sol:RewardChefV2",
        "label": "REWARD_TOKEN",
        "offset": 0,
        "slot": "6",
        "type": "t_contract(IERC20Upgradeable)319"
      },
      {
        "astId": 5028,
        "contract": "contracts/reward/RewardChefV2.sol:RewardChefV2",
        "label": "ORACLE",
        "offset": 0,
        "slot": "7",
        "type": "t_contract(ISuOracle)4960"
      },
      {
        "astId": 5030,
        "contract": "contracts/reward/RewardChefV2.sol:RewardChefV2",
        "label": "rewardPerBlock",
        "offset": 0,
        "slot": "8",
        "type": "t_uint256"
      },
      {
        "astId": 5032,
        "contract": "contracts/reward/RewardChefV2.sol:RewardChefV2",
        "label": "rewardEndBlock",
        "offset": 0,
        "slot": "9",
        "type": "t_uint256"
      },
      {
        "astId": 5153,
        "contract": "contracts/reward/RewardChefV2.sol:RewardChefV2",
        "label": "multiplicator1e18ForLockupPeriod",
        "offset": 0,
        "slot": "10",
        "type": "t_mapping(t_uint256,t_uint256)"
      },
      {
        "astId": 5156,
        "contract": "contracts/reward/RewardChefV2.sol:RewardChefV2",
        "label": "possibleLockupPeriodsSeconds",
        "offset": 0,
        "slot": "11",
        "type": "t_struct(UintSet)3097_storage"
      }
    ],
    "types": {
      "t_address": {
        "encoding": "inplace",
        "label": "address",
        "numberOfBytes": "20"
      },
      "t_array(t_bytes32)dyn_storage": {
        "base": "t_bytes32",
        "encoding": "dynamic_array",
        "label": "bytes32[]",
        "numberOfBytes": "32"
      },
      "t_bool": {
        "encoding": "inplace",
        "label": "bool",
        "numberOfBytes": "1"
      },
      "t_bytes32": {
        "encoding": "inplace",
        "label": "bytes32",
        "numberOfBytes": "32"
      },
      "t_contract(IERC20Upgradeable)319": {
        "encoding": "inplace",
        "label": "contract IERC20Upgradeable",
        "numberOfBytes": "20"
      },
      "t_contract(ISuAccessControl)4949": {
        "encoding": "inplace",
        "label": "contract ISuAccessControl",
        "numberOfBytes": "20"
      },
      "t_contract(ISuOracle)4960": {
        "encoding": "inplace",
        "label": "contract ISuOracle",
        "numberOfBytes": "20"
      },
      "t_int256": {
        "encoding": "inplace",
        "label": "int256",
        "numberOfBytes": "32"
      },
      "t_mapping(t_address,t_mapping(t_address,t_struct(UserInfo)4432_storage))": {
        "encoding": "mapping",
        "key": "t_address",
        "label": "mapping(address => mapping(address => struct IRewardChefV2.UserInfo))",
        "numberOfBytes": "32",
        "value": "t_mapping(t_address,t_struct(UserInfo)4432_storage)"
      },
      "t_mapping(t_address,t_struct(PoolInfo)4421_storage)": {
        "encoding": "mapping",
        "key": "t_address",
        "label": "mapping(address => struct IRewardChefV2.PoolInfo)",
        "numberOfBytes": "32",
        "value": "t_struct(PoolInfo)4421_storage"
      },
      "t_mapping(t_address,t_struct(UserInfo)4432_storage)": {
        "encoding": "mapping",
        "key": "t_address",
        "label": "mapping(address => struct IRewardChefV2.UserInfo)",
        "numberOfBytes": "32",
        "value": "t_struct(UserInfo)4432_storage"
      },
      "t_mapping(t_bytes32,t_uint256)": {
        "encoding": "mapping",
        "key": "t_bytes32",
        "label": "mapping(bytes32 => uint256)",
        "numberOfBytes": "32",
        "value": "t_uint256"
      },
      "t_mapping(t_uint256,t_uint256)": {
        "encoding": "mapping",
        "key": "t_uint256",
        "label": "mapping(uint256 => uint256)",
        "numberOfBytes": "32",
        "value": "t_uint256"
      },
      "t_struct(AddressSet)2940_storage": {
        "encoding": "inplace",
        "label": "struct EnumerableSetUpgradeable.AddressSet",
        "members": [
          {
            "astId": 2939,
            "contract": "contracts/reward/RewardChefV2.sol:RewardChefV2",
            "label": "_inner",
            "offset": 0,
            "slot": "0",
            "type": "t_struct(Set)2625_storage"
          }
        ],
        "numberOfBytes": "64"
      },
      "t_struct(PoolInfo)4421_storage": {
        "encoding": "inplace",
        "label": "struct IRewardChefV2.PoolInfo",
        "members": [
          {
            "astId": 4414,
            "contract": "contracts/reward/RewardChefV2.sol:RewardChefV2",
            "label": "accSushiPerShare",
            "offset": 0,
            "slot": "0",
            "type": "t_uint128"
          },
          {
            "astId": 4416,
            "contract": "contracts/reward/RewardChefV2.sol:RewardChefV2",
            "label": "lastRewardBlock",
            "offset": 16,
            "slot": "0",
            "type": "t_uint64"
          },
          {
            "astId": 4418,
            "contract": "contracts/reward/RewardChefV2.sol:RewardChefV2",
            "label": "allocPoint",
            "offset": 24,
            "slot": "0",
            "type": "t_uint64"
          },
          {
            "astId": 4420,
            "contract": "contracts/reward/RewardChefV2.sol:RewardChefV2",
            "label": "lpSupply",
            "offset": 0,
            "slot": "1",
            "type": "t_uint256"
          }
        ],
        "numberOfBytes": "64"
      },
      "t_struct(Set)2625_storage": {
        "encoding": "inplace",
        "label": "struct EnumerableSetUpgradeable.Set",
        "members": [
          {
            "astId": 2620,
            "contract": "contracts/reward/RewardChefV2.sol:RewardChefV2",
            "label": "_values",
            "offset": 0,
            "slot": "0",
            "type": "t_array(t_bytes32)dyn_storage"
          },
          {
            "astId": 2624,
            "contract": "contracts/reward/RewardChefV2.sol:RewardChefV2",
            "label": "_indexes",
            "offset": 0,
            "slot": "1",
            "type": "t_mapping(t_bytes32,t_uint256)"
          }
        ],
        "numberOfBytes": "64"
      },
      "t_struct(UintSet)3097_storage": {
        "encoding": "inplace",
        "label": "struct EnumerableSetUpgradeable.UintSet",
        "members": [
          {
            "astId": 3096,
            "contract": "contracts/reward/RewardChefV2.sol:RewardChefV2",
            "label": "_inner",
            "offset": 0,
            "slot": "0",
            "type": "t_struct(Set)2625_storage"
          }
        ],
        "numberOfBytes": "64"
      },
      "t_struct(UserInfo)4432_storage": {
        "encoding": "inplace",
        "label": "struct IRewardChefV2.UserInfo",
        "members": [
          {
            "astId": 4423,
            "contract": "contracts/reward/RewardChefV2.sol:RewardChefV2",
            "label": "amount",
            "offset": 0,
            "slot": "0",
            "type": "t_uint256"
          },
          {
            "astId": 4425,
            "contract": "contracts/reward/RewardChefV2.sol:RewardChefV2",
            "label": "rewardDebt",
            "offset": 0,
            "slot": "1",
            "type": "t_int256"
          },
          {
            "astId": 4427,
            "contract": "contracts/reward/RewardChefV2.sol:RewardChefV2",
            "label": "multiplicator1e18",
            "offset": 0,
            "slot": "2",
            "type": "t_uint256"
          },
          {
            "astId": 4429,
            "contract": "contracts/reward/RewardChefV2.sol:RewardChefV2",
            "label": "lockupPeriodSeconds",
            "offset": 0,
            "slot": "3",
            "type": "t_uint256"
          },
          {
            "astId": 4431,
            "contract": "contracts/reward/RewardChefV2.sol:RewardChefV2",
            "label": "lockupStartTimestamp",
            "offset": 0,
            "slot": "4",
            "type": "t_uint256"
          }
        ],
        "numberOfBytes": "160"
      },
      "t_uint128": {
        "encoding": "inplace",
        "label": "uint128",
        "numberOfBytes": "16"
      },
      "t_uint256": {
        "encoding": "inplace",
        "label": "uint256",
        "numberOfBytes": "32"
      },
      "t_uint64": {
        "encoding": "inplace",
        "label": "uint64",
        "numberOfBytes": "8"
      },
      "t_uint8": {
        "encoding": "inplace",
        "label": "uint8",
        "numberOfBytes": "1"
      }
    }
  }
}