{
  "address": "0x4EB80DE2FcBeB319F7B3267F1AFaf9BCF26503dC",
  "abi": [
    {
      "inputs": [],
      "stateMutability": "nonpayable",
      "type": "constructor"
    },
    {
      "inputs": [],
      "name": "BadAccessControlSingleton",
      "type": "error"
    },
    {
      "inputs": [],
      "name": "BadEndBlockForRefill",
      "type": "error"
    },
    {
      "inputs": [],
      "name": "DifferentLockup",
      "type": "error"
    },
    {
      "inputs": [],
      "name": "HarvestBeforeLockup",
      "type": "error"
    },
    {
      "inputs": [],
      "name": "OnlyAdminError",
      "type": "error"
    },
    {
      "inputs": [],
      "name": "OnlyAlerterError",
      "type": "error"
    },
    {
      "inputs": [],
      "name": "OnlyCDPAccessError",
      "type": "error"
    },
    {
      "inputs": [],
      "name": "OnlyDAOError",
      "type": "error"
    },
    {
      "inputs": [],
      "name": "OnlyDisablerAccessError",
      "type": "error"
    },
    {
      "inputs": [],
      "name": "OnlyLiquidationAccessError",
      "type": "error"
    },
    {
      "inputs": [],
      "name": "OnlyMintAccessError",
      "type": "error"
    },
    {
      "inputs": [],
      "name": "OnlyProxyActionsError",
      "type": "error"
    },
    {
      "inputs": [],
      "name": "OnlyRewardAccessError",
      "type": "error"
    },
    {
      "inputs": [],
      "name": "OnlyRoleError",
      "type": "error"
    },
    {
      "inputs": [],
      "name": "OnlyVaultAccessError",
      "type": "error"
    },
    {
      "inputs": [],
      "name": "OnlyVotingEscrowError",
      "type": "error"
    },
    {
      "inputs": [],
      "name": "PoolExist",
      "type": "error"
    },
    {
      "inputs": [],
      "name": "PoolNotExist",
      "type": "error"
    },
    {
      "inputs": [],
      "name": "ZeroLockupPeriod",
      "type": "error"
    },
    {
      "inputs": [],
      "name": "ZeroMultiplicator",
      "type": "error"
    },
    {
      "anonymous": false,
      "inputs": [
        {
          "indexed": true,
          "internalType": "address",
          "name": "user",
          "type": "address"
        },
        {
          "indexed": true,
          "internalType": "address",
          "name": "asset",
          "type": "address"
        },
        {
          "indexed": false,
          "internalType": "uint256",
          "name": "amount",
          "type": "uint256"
        }
      ],
      "name": "Harvest",
      "type": "event"
    },
    {
      "anonymous": false,
      "inputs": [
        {
          "indexed": false,
          "internalType": "uint8",
          "name": "version",
          "type": "uint8"
        }
      ],
      "name": "Initialized",
      "type": "event"
    },
    {
      "anonymous": false,
      "inputs": [
        {
          "indexed": true,
          "internalType": "address",
          "name": "asset",
          "type": "address"
        },
        {
          "indexed": false,
          "internalType": "uint256",
          "name": "allocPoint",
          "type": "uint256"
        }
      ],
      "name": "LogPoolAddition",
      "type": "event"
    },
    {
      "anonymous": false,
      "inputs": [
        {
          "indexed": true,
          "internalType": "address",
          "name": "asset",
          "type": "address"
        },
        {
          "indexed": false,
          "internalType": "uint256",
          "name": "allocPoint",
          "type": "uint256"
        }
      ],
      "name": "LogSetPool",
      "type": "event"
    },
    {
      "anonymous": false,
      "inputs": [
        {
          "indexed": true,
          "internalType": "address",
          "name": "asset",
          "type": "address"
        },
        {
          "indexed": false,
          "internalType": "uint64",
          "name": "lastRewardBlock",
          "type": "uint64"
        },
        {
          "indexed": false,
          "internalType": "uint256",
          "name": "lpSupply",
          "type": "uint256"
        },
        {
          "indexed": false,
          "internalType": "uint256",
          "name": "accSushiPerShare",
          "type": "uint256"
        }
      ],
      "name": "LogUpdatePool",
      "type": "event"
    },
    {
      "anonymous": false,
      "inputs": [
        {
          "indexed": true,
          "internalType": "address",
          "name": "user",
          "type": "address"
        },
        {
          "indexed": true,
          "internalType": "address",
          "name": "asset",
          "type": "address"
        },
        {
          "indexed": true,
          "internalType": "address",
          "name": "to",
          "type": "address"
        },
        {
          "indexed": false,
          "internalType": "uint256",
          "name": "amount",
          "type": "uint256"
        },
        {
          "indexed": false,
          "internalType": "uint256",
          "name": "lockupPeriodSeconds",
          "type": "uint256"
        }
      ],
      "name": "ResetAmount",
      "type": "event"
    },
    {
      "anonymous": false,
      "inputs": [
        {
          "indexed": true,
          "internalType": "address",
          "name": "user",
          "type": "address"
        },
        {
          "indexed": true,
          "internalType": "address",
          "name": "asset",
          "type": "address"
        },
        {
          "indexed": false,
          "internalType": "uint256",
          "name": "amount",
          "type": "uint256"
        }
      ],
      "name": "VirtualDeposit",
      "type": "event"
    },
    {
      "anonymous": false,
      "inputs": [
        {
          "indexed": true,
          "internalType": "address",
          "name": "user",
          "type": "address"
        },
        {
          "indexed": true,
          "internalType": "address",
          "name": "asset",
          "type": "address"
        },
        {
          "indexed": false,
          "internalType": "uint256",
          "name": "amount",
          "type": "uint256"
        }
      ],
      "name": "VirtualWithdraw",
      "type": "event"
    },
    {
      "inputs": [],
      "name": "ACCESS_CONTROL_SINGLETON",
      "outputs": [
        {
          "internalType": "contract ISuAccessControl",
          "name": "",
          "type": "address"
        }
      ],
      "stateMutability": "view",
      "type": "function"
    },
    {
      "inputs": [],
      "name": "ADMIN_ROLE",
      "outputs": [
        {
          "internalType": "bytes32",
          "name": "",
          "type": "bytes32"
        }
      ],
      "stateMutability": "view",
      "type": "function"
    },
    {
      "inputs": [],
      "name": "ALERTER_ROLE",
      "outputs": [
        {
          "internalType": "bytes32",
          "name": "",
          "type": "bytes32"
        }
      ],
      "stateMutability": "view",
      "type": "function"
    },
    {
      "inputs": [],
      "name": "CDP_ACCESS_ROLE",
      "outputs": [
        {
          "internalType": "bytes32",
          "name": "",
          "type": "bytes32"
        }
      ],
      "stateMutability": "view",
      "type": "function"
    },
    {
      "inputs": [],
      "name": "DAO_ROLE",
      "outputs": [
        {
          "internalType": "bytes32",
          "name": "",
          "type": "bytes32"
        }
      ],
      "stateMutability": "view",
      "type": "function"
    },
    {
      "inputs": [],
      "name": "DISABLER_ROLE",
      "outputs": [
        {
          "internalType": "bytes32",
          "name": "",
          "type": "bytes32"
        }
      ],
      "stateMutability": "view",
      "type": "function"
    },
    {
      "inputs": [],
      "name": "LIQUIDATION_ACCESS_ROLE",
      "outputs": [
        {
          "internalType": "bytes32",
          "name": "",
          "type": "bytes32"
        }
      ],
      "stateMutability": "view",
      "type": "function"
    },
    {
      "inputs": [],
      "name": "MINT_ACCESS_ROLE",
      "outputs": [
        {
          "internalType": "bytes32",
          "name": "",
          "type": "bytes32"
        }
      ],
      "stateMutability": "view",
      "type": "function"
    },
    {
      "inputs": [],
      "name": "ORACLE",
      "outputs": [
        {
          "internalType": "contract ISuOracle",
          "name": "",
          "type": "address"
        }
      ],
      "stateMutability": "view",
      "type": "function"
    },
    {
      "inputs": [],
      "name": "PROXY_ACTIONS_ROLE",
      "outputs": [
        {
          "internalType": "bytes32",
          "name": "",
          "type": "bytes32"
        }
      ],
      "stateMutability": "view",
      "type": "function"
    },
    {
      "inputs": [],
      "name": "REWARD_ACCESS_ROLE",
      "outputs": [
        {
          "internalType": "bytes32",
          "name": "",
          "type": "bytes32"
        }
      ],
      "stateMutability": "view",
      "type": "function"
    },
    {
      "inputs": [],
      "name": "REWARD_TOKEN",
      "outputs": [
        {
          "internalType": "contract IERC20Upgradeable",
          "name": "",
          "type": "address"
        }
      ],
      "stateMutability": "view",
      "type": "function"
    },
    {
      "inputs": [],
      "name": "VOTING_ESCROW_ROLE",
      "outputs": [
        {
          "internalType": "bytes32",
          "name": "",
          "type": "bytes32"
        }
      ],
      "stateMutability": "view",
      "type": "function"
    },
    {
      "inputs": [
        {
          "internalType": "uint256",
          "name": "allocPoint",
          "type": "uint256"
        },
        {
          "internalType": "address",
          "name": "_asset",
          "type": "address"
        }
      ],
      "name": "add",
      "outputs": [],
      "stateMutability": "nonpayable",
      "type": "function"
    },
    {
      "inputs": [
        {
          "internalType": "address",
          "name": "asset",
          "type": "address"
        },
        {
          "internalType": "address",
          "name": "to",
          "type": "address"
        },
        {
          "internalType": "uint256",
          "name": "amountEDecimal",
          "type": "uint256"
        }
      ],
      "name": "decreaseAmount",
      "outputs": [],
      "stateMutability": "nonpayable",
      "type": "function"
    },
    {
      "inputs": [
        {
          "internalType": "address",
          "name": "asset",
          "type": "address"
        },
        {
          "internalType": "address",
          "name": "to",
          "type": "address"
        },
        {
          "internalType": "uint256",
          "name": "amountEDecimal",
          "type": "uint256"
        }
      ],
      "name": "getDecreaseAmountRewardPenalty",
      "outputs": [
        {
          "internalType": "uint256",
          "name": "",
          "type": "uint256"
        }
      ],
      "stateMutability": "view",
      "type": "function"
    },
    {
      "inputs": [
        {
          "internalType": "address",
          "name": "_asset",
          "type": "address"
        },
        {
          "internalType": "address",
          "name": "_user",
          "type": "address"
        }
      ],
      "name": "getHarvestLockupEndTimestamp",
      "outputs": [
        {
          "internalType": "uint256",
          "name": "",
          "type": "uint256"
        }
      ],
      "stateMutability": "view",
      "type": "function"
    },
    {
      "inputs": [
        {
          "internalType": "address",
          "name": "asset",
          "type": "address"
        }
      ],
      "name": "getPoolApr",
      "outputs": [
        {
          "internalType": "uint256",
          "name": "",
          "type": "uint256"
        }
      ],
      "stateMutability": "view",
      "type": "function"
    },
    {
      "inputs": [],
      "name": "getPossibleLockupPeriodsSeconds",
      "outputs": [
        {
          "components": [
            {
              "internalType": "uint256",
              "name": "lockupPeriodSeconds",
              "type": "uint256"
            },
            {
              "internalType": "uint256",
              "name": "multiplicator1e18",
              "type": "uint256"
            }
          ],
          "internalType": "struct IRewardChefV2.ILockupPeriod[]",
          "name": "",
          "type": "tuple[]"
        }
      ],
      "stateMutability": "view",
      "type": "function"
    },
    {
      "inputs": [
        {
          "internalType": "address",
          "name": "asset",
          "type": "address"
        },
        {
          "internalType": "address",
          "name": "user",
          "type": "address"
        }
      ],
      "name": "getUserLockupPeriodsSeconds",
      "outputs": [
        {
          "internalType": "uint256",
          "name": "",
          "type": "uint256"
        }
      ],
      "stateMutability": "view",
      "type": "function"
    },
    {
      "inputs": [
        {
          "internalType": "address",
          "name": "asset",
          "type": "address"
        },
        {
          "internalType": "address",
          "name": "to",
          "type": "address"
        },
        {
          "internalType": "uint256",
          "name": "newLockupPeriodSeconds",
          "type": "uint256"
        }
      ],
      "name": "harvest",
      "outputs": [],
      "stateMutability": "nonpayable",
      "type": "function"
    },
    {
      "inputs": [
        {
          "internalType": "address",
          "name": "asset",
          "type": "address"
        },
        {
          "internalType": "address",
          "name": "to",
          "type": "address"
        },
        {
          "internalType": "uint256",
          "name": "amountEDecimal",
          "type": "uint256"
        },
        {
          "internalType": "uint256",
          "name": "lockupPeriodSeconds",
          "type": "uint256"
        }
      ],
      "name": "increaseAmount",
      "outputs": [],
      "stateMutability": "nonpayable",
      "type": "function"
    },
    {
      "inputs": [
        {
          "internalType": "address",
          "name": "_authControl",
          "type": "address"
        },
        {
          "internalType": "contract IERC20Upgradeable",
          "name": "_rewardToken",
          "type": "address"
        },
        {
          "internalType": "contract ISuOracle",
          "name": "_oracle",
          "type": "address"
        }
      ],
      "name": "initialize",
      "outputs": [],
      "stateMutability": "nonpayable",
      "type": "function"
    },
    {
      "inputs": [
        {
          "internalType": "uint256",
          "name": "",
          "type": "uint256"
        }
      ],
      "name": "multiplicator1e18ForLockupPeriod",
      "outputs": [
        {
          "internalType": "uint256",
          "name": "",
          "type": "uint256"
        }
      ],
      "stateMutability": "view",
      "type": "function"
    },
    {
      "inputs": [
        {
          "internalType": "address",
          "name": "_asset",
          "type": "address"
        },
        {
          "internalType": "address",
          "name": "_user",
          "type": "address"
        }
      ],
      "name": "pendingSushi",
      "outputs": [
        {
          "internalType": "uint256",
          "name": "pending",
          "type": "uint256"
        }
      ],
      "stateMutability": "view",
      "type": "function"
    },
    {
      "inputs": [
        {
          "internalType": "address",
          "name": "",
          "type": "address"
        }
      ],
      "name": "poolInfo",
      "outputs": [
        {
          "internalType": "uint128",
          "name": "accSushiPerShare",
          "type": "uint128"
        },
        {
          "internalType": "uint64",
          "name": "lastRewardBlock",
          "type": "uint64"
        },
        {
          "internalType": "uint64",
          "name": "allocPoint",
          "type": "uint64"
        },
        {
          "internalType": "uint256",
          "name": "lpSupply",
          "type": "uint256"
        }
      ],
      "stateMutability": "view",
      "type": "function"
    },
    {
      "inputs": [
        {
          "internalType": "uint256",
          "name": "amount",
          "type": "uint256"
        },
        {
          "internalType": "uint64",
          "name": "endBlock",
          "type": "uint64"
        }
      ],
      "name": "refillReward",
      "outputs": [],
      "stateMutability": "nonpayable",
      "type": "function"
    },
    {
      "inputs": [
        {
          "internalType": "address",
          "name": "asset",
          "type": "address"
        },
        {
          "internalType": "address",
          "name": "to",
          "type": "address"
        }
      ],
      "name": "resetAmount",
      "outputs": [],
      "stateMutability": "nonpayable",
      "type": "function"
    },
    {
      "inputs": [],
      "name": "rewardEndBlock",
      "outputs": [
        {
          "internalType": "uint256",
          "name": "",
          "type": "uint256"
        }
      ],
      "stateMutability": "view",
      "type": "function"
    },
    {
      "inputs": [],
      "name": "rewardPerBlock",
      "outputs": [
        {
          "internalType": "uint256",
          "name": "",
          "type": "uint256"
        }
      ],
      "stateMutability": "view",
      "type": "function"
    },
    {
      "inputs": [
        {
          "internalType": "uint256",
          "name": "startBlock",
          "type": "uint256"
        },
        {
          "internalType": "uint256",
          "name": "endBlock",
          "type": "uint256"
        }
      ],
      "name": "rewardsBetweenBlocks",
      "outputs": [
        {
          "internalType": "uint256",
          "name": "",
          "type": "uint256"
        }
      ],
      "stateMutability": "view",
      "type": "function"
    },
    {
      "inputs": [
        {
          "internalType": "address",
          "name": "_asset",
          "type": "address"
        },
        {
          "internalType": "uint256",
          "name": "_allocPoint",
          "type": "uint256"
        }
      ],
      "name": "set",
      "outputs": [],
      "stateMutability": "nonpayable",
      "type": "function"
    },
    {
      "inputs": [
        {
          "internalType": "uint256",
          "name": "lockupPeriodSeconds",
          "type": "uint256"
        },
        {
          "internalType": "uint256",
          "name": "multiplicator1e18",
          "type": "uint256"
        }
      ],
      "name": "setPossibleLockupPeriodsSeconds",
      "outputs": [],
      "stateMutability": "nonpayable",
      "type": "function"
    },
    {
      "inputs": [
        {
          "internalType": "bytes4",
          "name": "interfaceId",
          "type": "bytes4"
        }
      ],
      "name": "supportsInterface",
      "outputs": [
        {
          "internalType": "bool",
          "name": "",
          "type": "bool"
        }
      ],
      "stateMutability": "view",
      "type": "function"
    },
    {
      "inputs": [],
      "name": "totalAllocPoint",
      "outputs": [
        {
          "internalType": "uint256",
          "name": "",
          "type": "uint256"
        }
      ],
      "stateMutability": "view",
      "type": "function"
    },
    {
      "inputs": [],
      "name": "updateAllPools",
      "outputs": [],
      "stateMutability": "nonpayable",
      "type": "function"
    },
    {
      "inputs": [
        {
          "internalType": "address",
          "name": "asset",
          "type": "address"
        }
      ],
      "name": "updatePool",
      "outputs": [
        {
          "components": [
            {
              "internalType": "uint128",
              "name": "accSushiPerShare",
              "type": "uint128"
            },
            {
              "internalType": "uint64",
              "name": "lastRewardBlock",
              "type": "uint64"
            },
            {
              "internalType": "uint64",
              "name": "allocPoint",
              "type": "uint64"
            },
            {
              "internalType": "uint256",
              "name": "lpSupply",
              "type": "uint256"
            }
          ],
          "internalType": "struct IRewardChefV2.PoolInfo",
          "name": "pool",
          "type": "tuple"
        }
      ],
      "stateMutability": "nonpayable",
      "type": "function"
    },
    {
      "inputs": [
        {
          "internalType": "address",
          "name": "",
          "type": "address"
        },
        {
          "internalType": "address",
          "name": "",
          "type": "address"
        }
      ],
      "name": "userInfo",
      "outputs": [
        {
          "internalType": "uint256",
          "name": "amount",
          "type": "uint256"
        },
        {
          "internalType": "int256",
          "name": "rewardDebt",
          "type": "int256"
        },
        {
          "internalType": "uint256",
          "name": "multiplicator1e18",
          "type": "uint256"
        },
        {
          "internalType": "uint256",
          "name": "lockupPeriodSeconds",
          "type": "uint256"
        },
        {
          "internalType": "uint256",
          "name": "lockupStartTimestamp",
          "type": "uint256"
        }
      ],
      "stateMutability": "view",
      "type": "function"
    }
  ],
  "numDeployments": 1,
  "solcInputHash": "403b958b64b1c77d13b9eddc7dda2091",
  "bytecode": "0x608080604052346100c1576000549060ff8260081c1661006f575060ff80821603610034575b6040516129c890816100c78239f35b60ff90811916176000557f7f26b83ff96e1f2b6a682f133852f6798a09c465da95921460cefb3847402498602060405160ff8152a138610025565b62461bcd60e51b815260206004820152602760248201527f496e697469616c697a61626c653a20636f6e747261637420697320696e697469604482015266616c697a696e6760c81b6064820152608490fd5b600080fdfe60806040908082526004918236101561001757600080fd5b600091823560e01c90816301ffc9a714611b6a5750806303b113c314611aeb57806303ee9f2214611ac05780630f208beb14611a4c57806317caf6f114611a2e5780631d40e43914611a015780632b8bbbe8146118795780632fcd4bc01461179d57806338013f02146117755780633825d8281461160f578063438280dd146115e7578063604ef2e5146115c957806369827402146114415780636aed34f71461125457806371d0fb411461121a57806375b238fc146112005780637b46c54f146111a657806387ee8c4c14610fcc5780638ae39cac14610fae5780638e5313e014610f7457806399248ea714610f4c5780639a7b5f1114610ee8578063a7533e0914610be9578063b38234f314610baf578063b9ec7d7414610b90578063bd5f5be614610b56578063c0c53b8b146108dc578063c2ceb95f146106bf578063cf4f68d5146105a4578063d0e8fa821461056a578063d2351cee14610530578063d81c12f114610515578063d859c58814610493578063dc97e84e14610459578063e68f85021461042d578063e9c2651814610405578063eeba3c3f146103e35763f7bfea2c146101c757600080fd5b346103df5760803660031901126103df576101e0611c00565b6101e8611c1b565b9060643560018060a01b039384865460101c169281518094632474521560e21b82526000805160206129738339815191528a83015233602483015281604460209788935afa9081156103d55788916103a8575b5015610398578561024b826125cf565b9116958688526034855282882095169485885284528187209260038401805480156000146103805750818952603c86528389205460028601555542888401555b60028301549788156103725750600180670de0b6b3a76400006102d47fbe0e56c891bb7033dc9f0c815fb5e1fd09ee48ffbc1c32b504a52911a542467098999a9b604435611d41565b04946102e1868254611d54565b81550191825492610314838060801b039461030e64e8d4a51000610308888751168b611d41565b04612568565b90612892565b90556103666060820191610329878451611d54565b83528a8c5260338852858c2094815116848060801b031986541617855585848060401b039161035d838b83015116886122bc565b015116846122e5565b5191015551908152a380f35b82516310ce271360e21b8152fd5b9050031561028b5781516318a8ca4f60e01b81528890fd5b8151631a3d931f60e31b81528890fd5b6103c89150853d87116103ce575b6103c08183611ce3565b810190611d06565b3861023b565b503d6103b6565b83513d8a823e3d90fd5b5080fd5b50346103df576020906103fe6103f836611c31565b90611f91565b9051908152f35b50346103df57816003193601126103df57602090516000805160206129538339815191528152f35b508234610455576020366003190112610455576020928291358152603c845220549051908152f35b8280fd5b50346103df57816003193601126103df57602090517f9a9aef7c1247d5fc769b0185c052913e39673da29a880317dfd20ebf86f26a498152f35b5082346104555781600319360112610455576103fe906080836020956104b7611c00565b6104bf611c1b565b6001600160a01b0391821683526034895283832091168252875220845190926104e782611c7c565b8354825260018401548783015260028401548683015260038401549384606084015201549182910152611d54565b50346103df576020906103fe61052a36611c47565b916128ae565b50346103df57816003193601126103df57602090517fb0fdd1623e42dbffda4acd8bd643e1cb69f00f0e83abeaa8150ee42cf0fd105e8152f35b50346103df57816003193601126103df57602090517f76d0567582f23e1e9d7a13eeba60f9aea9d69b8da87ca27a8bf3698b35c653db8152f35b5082346104555781600319360112610455576105be611c00565b907f0b29f3a03cca6d26633adab7fad4d1d3383ee338e01e04ebcf40d0beff8838fe6105e8611c1b565b9260018060a01b0380911693848752603360205284876002888220966034602052898320338452602052828a808220928354809b600386019384549961063360018401948554611d1e565b84558652603360205285209181830361066d575b50505082845582600185015542908401555501558651948552602085015216933392a480f35b815483546001600160801b0319166001600160801b039190911617835581546001926106b3916106a99060801c6001600160401b0316866122bc565b5460c01c846122e5565b549101558e8080610647565b508234610455576106cf36611c47565b6106dc83949295936125cf565b60018060a01b038095169586885260346020528488203389526020528488209184830161070f8154600386015490611d54565b42106108cc5760028401948554156108bc5784549064e8d4a51000926107448461030860018060801b03958689511690611d41565b9a8b9661075f61075a60018b01998a5490612370565b612519565b9c88558c61087e575b50504290558b52603c602052878b205496871561087057508554878082101561080557610308915061030e9392876107c76107c06107b3946107bb8d6107d49c9d5497889384611d41565b905490611d61565b611d1e565b8094611d54565b9055875495511690611d41565b90555b55519081527fa0306f61d3fafe13787b78e276cb6b644382854a66cb46daae14227d3ec2679760203392a380f35b929094919383861161081e575b505050505050506107d7565b61085561085b926103086108496108436108629a61083e8d549a8b611d41565b611d61565b88611d1e565b97865494511688611d41565b90612370565b9055611d1e565b905586808084818080610812565b88516310ce271360e21b8152fd5b6038548c5163a9059cbb60e01b6020820152918316602483015260448083018f905282526108b592166108b082611cad565b611d81565b8d80610768565b87516310ce271360e21b81528790fd5b8651633a777ed360e01b81528690fd5b508234610455576060366003190112610455576108f7611c00565b916001600160a01b039160243583811690819003610b525760443590848216809203610b4e5786549260ff8460081c161593848095610b41575b8015610b2a575b15610ad05760ff198116600117895584610abf575b5087549560ff8760081c1615610a685762010000600160b01b03601089901b1662010000600160b01b0319881681178a5597168015908115610a04575b506109f6575060018060a01b03199081603854161760385560395416176039556109b2578380f35b610100600160b01b0319909116909117825551600181527f7f26b83ff96e1f2b6a682f133852f6798a09c465da95921460cefb384740249890602090a18180808380f35b84516384d942fd60e01b8152fd5b86516301ffc9a760e01b8152637965db0b60e01b848201529150602090829060249082905afa908115610a5e578991610a40575b50158961098a565b610a58915060203d81116103ce576103c08183611ce3565b89610a38565b86513d8b823e3d90fd5b855162461bcd60e51b8152602081840152602b60248201527f496e697469616c697a61626c653a20636f6e7472616374206973206e6f74206960448201526a6e697469616c697a696e6760a81b6064820152608490fd5b61ffff19166101011788558861094d565b855162461bcd60e51b8152602081840152602e60248201527f496e697469616c697a61626c653a20636f6e747261637420697320616c72656160448201526d191e481a5b9a5d1a585b1a5e995960921b6064820152608490fd5b50303b1580156109385750600160ff821614610938565b50600160ff821610610931565b8680fd5b8580fd5b50346103df57816003193601126103df57602090517f4f14c8366fa999817edc9f29824eb88a00cc31225e2156f399da4bc91049eb108152f35b8234610bac5780600319360112610bac57610ba96127f0565b80f35b80fd5b50346103df57816003193601126103df57602090517fd83f5343da19b478b15a140c301a868be9e02603958f38fbd822b9d5c0a289168152f35b5082346104555760209283600319360112610bac576001600160a01b039081610c10611c00565b1690818152603386526001858220015415610e95576035548015610e4257603b54431015610def57610c569061083e603a5485855260338a528885205460c01c90611d41565b9183603954169360385416938651631735856760e31b958682528782015260249489828781865afa918215610de5578592610db2575b508060021b90808204891490151715610d8e57603c810290808204603c1481151715610da0576105a081029180830460181490151715610da05762080ac0029080820461016e1490151715610d8e578991610ce691611d41565b95858951809481938252868b8301525afa908115610d84578391610d55575b50610d1d918352603388526001878420015490611d41565b93670de0b6b3a764000093848102948186041490151715610d4557505050906103fe91611d61565b634e487b7160e01b825260119052fd5b90508781813d8311610d7d575b610d6c8183611ce3565b810103126104555751610d1d610d05565b503d610d62565b87513d85823e3d90fd5b634e487b7160e01b8552601188528585fd5b634e487b7160e01b8652601189528686fd5b9091508981813d8311610dde575b610dca8183611ce3565b81010312610dda5751908a610c8c565b8480fd5b503d610dc0565b89513d87823e3d90fd5b855162461bcd60e51b8152808601889052602760248201527f526577617264436865663a2056657374696e6720697320616c726561647920666044820152661a5b9a5cda195960ca1b6064820152608490fd5b855162461bcd60e51b8152808601889052602760248201527f526577617264436865663a20546f74616c20616c6c6f636174696f6e20706f6960448201526606e7420697320360cc1b6064820152608490fd5b845162461bcd60e51b8152808501879052602760248201527f526577617264436865663a20506f6f6c20646f65736e27742068617665206c696044820152667175696469747960c81b6064820152608490fd5b50346103df5760203660031901126103df5760809181906001600160a01b03610f0f611c00565b168152603360205220906001825492015490805192600180861b038116845260018060401b0381861c16602085015260c01c908301526060820152f35b50346103df57816003193601126103df5760385490516001600160a01b039091168152602090f35b50346103df57816003193601126103df57602090517fe453bacb314e78dcd5192e6b1a2b1f0e7c76e92f6b7e429a6a90f04e39db3b768152f35b50346103df57816003193601126103df57602090603a549051908152f35b5082346104555781600319360112610455576024356001600160401b0381169282359291849003610dda5784548151632474521560e21b808252600080516020612973833981519152828601523360248301526020946001600160a01b0393909260109190911c8416908681604481855afa90811561119c579087918b9161117f575b50159283611125575b505050611117574386111561110957506110bf926110cf94926110af9261107d6127f0565b603854169051916323b872dd60e01b90830152336024830152306044830152836064830152606482526108b082611c7c565b84603b54806110d8575b50611d54565b6110c94384611d1e565b90611d61565b603a55603b5580f35b8091504310600014611102576110fc906110f6603a54914390611d1e565b90611d41565b866110b9565b50846110fc565b8251632b0d402960e01b8152fd5b8251631a3d931f60e31b8152fd5b90919250604486518094819382528c878301523360248301525afa908115611175578891611158575b5015888581611058565b61116f9150853d87116103ce576103c08183611ce3565b8861114e565b84513d8a823e3d90fd5b6111969150823d84116103ce576103c08183611ce3565b8b61104f565b86513d8c823e3d90fd5b50346103df5760203660031901126103df5760809060606111cd6111c8611c00565b6125cf565b825192600180861b03825116845260018060401b0380602084015116602086015281830151169084015201516060820152f35b50346103df57816003193601126103df5751908152602090f35b50346103df57816003193601126103df57602090517f880a91047114272656e533301261260c75e4d11543ac7303d6fe4204579ec7278152f35b508290346104555761126536611c47565b909160018060a01b039384875460101c169281518094632474521560e21b82526000805160206129738339815191528983015233602483015281604460209788935afa90811561143757899161141a575b501561140a576112c5836125cf565b9686841697888a5260348652838a2097871697888b528652838a2091600283019081549081156113fc578c929161132391860198878a549c61130d60038a019e8f5490611d54565b4210156113f25761131d926128ae565b96611d41565b670de0b6b3a76400009004966001850194855496600160801b60019003978887511661134f908c611d41565b64e8d4a51000900461136090612568565b61136991612370565b9061137390612568565b61137c91612892565b8096558881549061138c91611d1e565b80915515998a6001967f5c89d0cd1567084571f8083b115429597fe4af296968d67b6b7ebc9d12777e879c6113e9575b506113d9575b505050506103666060820191610329878451611d1e565b83914290555555898b80806113c2565b9050158f6113bc565b5050508396611d41565b86516310ce271360e21b8152fd5b8151631a3d931f60e31b81528790fd5b6114319150853d87116103ce576103c08183611ce3565b896112b6565b83513d8b823e3d90fd5b50346103df57816003193601126103df578051603d80548083529084529192602092838301907fece66cfdbd22e3f37d348a3d8e19074452862cd65fd4b9a11f0336d1ac6d1dc390835b8181106115b557505050826114a1910383611ce3565b81516114ac81611fd7565b926114b986519485611ce3565b818452601f196114c883611fd7565b01835b81811061158b575050825b82811061152b57505050835193838594850191818652845180935281818701950193905b8382106115075786860387f35b845180518752830151868401528796509485019493820193600191909101906114fa565b8061153e61158192849997989699611ffd565b516115498285611ffd565b518952603c86528689205487519161156083611cc8565b8252868201526115708289611ffd565b5261157b8188611ffd565b50611fee565b95929493956114d6565b958795968195985161159c81611cc8565b898152898382015282828a0101520196939594966114cb565b82548452928601926001928301920161148b565b50346103df57816003193601126103df57602090603b549051908152f35b50346103df57816003193601126103df57602090516000805160206129738339815191528152f35b5091346103df57826003193601126103df57611629611c00565b9260243560018060a01b039182855460101c169281518094632474521560e21b8252878783015233602483015281604460209788935afa90811561176b57879161174e575b501561173e578616808652603384528186205490949060801c6001600160401b03161561173057506116c27f57096e403eca2ab85e7ad27527b2efe1598aaf6760715227633947f3652a0f6b9495966125cf565b50848652603383528086205460c01c6116e6836116e183603554611d1e565b611d54565b6035556117046116f584612308565b878952603386528389206122e5565b8261171d575061171385612213565b505b51908152a280f35b6117155761172a8561205d565b50611715565b905163357113b160e11b8152fd5b8151631886ea7d60e11b81528590fd5b6117659150853d87116103ce576103c08183611ce3565b3861166e565b83513d89823e3d90fd5b50346103df57816003193601126103df5760395490516001600160a01b039091168152602090f35b50829034610455576117ae36611c31565b84548351632474521560e21b8152600080516020612953833981519152818701523360248201529294919392906020908290604490829060101c6001600160a01b03165afa90811561186f578691611851575b50156118435783156118355750828452603c602052832081905561182c5761182890612129565b5080f35b611828906120dc565b90516338d945f960e01b8152fd5b905163599a6c3360e11b8152fd5b611869915060203d81116103ce576103c08183611ce3565b86611801565b83513d88823e3d90fd5b50346103df57806003193601126103df578235611894611c1b565b9060018060a01b0380855460101c169284518094632474521560e21b8252878983015233602483015281604460209788935afa9081156119f75787916119da575b50156119ca571680855260338352838520546001600160401b03969194919060801c87166119bc5750806001856119b07f595f39ef10c3b539b41f83620205bd2e76334edf0cfda5ed207f10616e867dad97989961193587603554611d54565b6035556119418361205d565b508a6119a8828a886119528c612308565b94603361195e43612308565b938584519d8e61196d81611cad565b8581528284820198168852019816885260608d019a838c528352522098888060801b03905116888060801b03198a54161789555116876122bc565b5116846122e5565b5191015551908152a280f35b90516318971cbf60e11b8152fd5b8451631886ea7d60e11b81528790fd5b6119f19150853d87116103ce576103c08183611ce3565b386118d5565b86513d89823e3d90fd5b50346103df57806003193601126103df576020906103fe611a20611c00565b611a28611c1b565b90612389565b50346103df57816003193601126103df576020906035549051908152f35b508290346104555780600319360112610455578060a093611a6b611c00565b611a73611c1b565b90600180881b038091168352603460205283832091168252602052208054926001820154926002830154916003840154930154938151958652602086015284015260608301526080820152f35b50346103df57816003193601126103df579054905160109190911c6001600160a01b03168152602090f35b5082903461045557806003193601126104555780602093611b0a611c00565b611b12611c1b565b6001600160a01b039182168352603487528383209116825285522081519092608090611b3d83611c7c565b84548352600185015486840152600285015484840152600385015494856060850152015491015251908152f35b9293905034611bfc576020366003190112611bfc57803563ffffffff60e01b8116809103610dda5784546301ffc9a760e01b8552918401526020908390602490829060101c6001600160a01b03165afa918215611bf25760209392611bd3575b50519015158152f35b611beb919250833d81116103ce576103c08183611ce3565b9038611bca565b81513d85823e3d90fd5b8380fd5b600435906001600160a01b0382168203611c1657565b600080fd5b602435906001600160a01b0382168203611c1657565b6040906003190112611c16576004359060243590565b6060906003190112611c16576001600160a01b03906004358281168103611c1657916024359081168103611c16579060443590565b60a081019081106001600160401b03821117611c9757604052565b634e487b7160e01b600052604160045260246000fd5b608081019081106001600160401b03821117611c9757604052565b604081019081106001600160401b03821117611c9757604052565b601f909101601f19168101906001600160401b03821190821017611c9757604052565b90816020910312611c1657518015158103611c165790565b91908203918211611d2b57565b634e487b7160e01b600052601160045260246000fd5b81810292918115918404141715611d2b57565b91908201809211611d2b57565b8115611d6b570490565b634e487b7160e01b600052601260045260246000fd5b6040516001600160a01b03909116929190611d9b81611cc8565b6020918282527f5361666545524332303a206c6f772d6c6576656c2063616c6c206661696c6564838301526000808285829451910182895af13d15611eb1573d956001600160401b038711611e9d57611e1594959660405190611e0788601f19601f8401160183611ce3565b81528093873d92013e611ebd565b805190828215928315611e85575b50505015611e2e5750565b6084906040519062461bcd60e51b82526004820152602a60248201527f5361666545524332303a204552433230206f7065726174696f6e20646964206e6044820152691bdd081cdd58d8d9595960b21b6064820152fd5b611e959350820181019101611d06565b388281611e23565b634e487b7160e01b83526041600452602483fd5b611e1593949591506060915b91929015611f1f5750815115611ed1575090565b3b15611eda5790565b60405162461bcd60e51b815260206004820152601d60248201527f416464726573733a2063616c6c20746f206e6f6e2d636f6e74726163740000006044820152606490fd5b825190915015611f325750805190602001fd5b6040519062461bcd60e51b82528160208060048301528251908160248401526000935b828510611f78575050604492506000838284010152601f80199101168101030190fd5b8481018201518686016044015293810193859350611f55565b603b54909190828111611fa657505050600090565b80821015611fc85750611fc591611fbc91611d1e565b603a5490611d41565b90565b611fbc915091611fc592611d1e565b6001600160401b038111611c975760051b60200190565b6000198114611d2b5760010190565b80518210156120115760209160051b010190565b634e487b7160e01b600052603260045260246000fd5b60365481101561201157603660005260206000200190600090565b603d5481101561201157603d60005260206000200190600090565b6000818152603760205260408120546120d757603654600160401b8110156120c35790826120af61209684600160409601603655612027565b819391549060031b600019811b9283911b169119161790565b905560365492815260376020522055600190565b634e487b7160e01b82526041600452602482fd5b905090565b6000818152603e60205260408120546120d757603d54600160401b8110156120c357908261211561209684600160409601603d55612042565b9055603d54928152603e6020522055600190565b6000818152603e6020526040812054909190801561220e57600019908082018181116121fa57603d54908382019182116121e6578082036121b2575b505050603d54801561219e5781019061217d82612042565b909182549160031b1b19169055603d558152603e6020526040812055600190565b634e487b7160e01b84526031600452602484fd5b6121d06121c161209693612042565b90549060031b1c928392612042565b90558452603e6020526040842055388080612165565b634e487b7160e01b86526011600452602486fd5b634e487b7160e01b85526011600452602485fd5b505090565b600081815260376020526040812054909190801561220e57600019908082018181116121fa57603654908382019182116121e657808203612288575b505050603654801561219e5781019061226782612027565b909182549160031b1b19169055603655815260376020526040812055600190565b6122a661229761209693612027565b90549060031b1c928392612027565b905584526037602052604084205538808061224f565b8054600160801b600160c01b03191660809290921b600160801b600160c01b0316919091179055565b80546001600160c01b031660c09290921b6001600160c01b031916919091179055565b6001600160401b039081811161231c571690565b60405162461bcd60e51b815260206004820152602660248201527f53616665436173743a2076616c756520646f65736e27742066697420696e203660448201526534206269747360d01b6064820152608490fd5b81810392916000138015828513169184121617611d2b57565b9060018060a01b038092169060009282845260336020526040938481209260018651946123b586611cad565b805492828060801b039081851688526020880196848060401b03948594858860801c168a528c8b019760c01c885201549960608a019a8b52875260346020528a8720911686526020528885209660048a51986124108a611c7c565b80548a5260018101549b60208b019c8d526002820154908b0152600381015460608b0152015460808901525116965194511680431180612510575b80612505575b61247e575b50505050509161247664e8d4a5100061030861075a94611fc59651611d41565b905190612370565b9161249d916124946124a6949897984390611f91565b91511690611d41565b60355490611d61565b9064e8d4a51000918281029281840414901517156124f1575061030861075a946124e7611fc597956124e16124769664e8d4a5100096611d61565b90611d54565b9581959750612456565b634e487b7160e01b81526011600452602490fd5b506035541515612451565b5084151561244b565b600081126125245790565b606460405162461bcd60e51b815260206004820152602060248201527f53616665436173743a2076616c7565206d75737420626520706f7369746976656044820152fd5b6001600160ff1b0381116125795790565b60405162461bcd60e51b815260206004820152602860248201527f53616665436173743a2076616c756520646f65736e27742066697420696e2061604482015267371034b73a191a9b60c11b6064820152608490fd5b9060408051906125de82611cad565b60009384835284606060209482868201528285820152015260018060a01b031691828552603381528185209180519561261687611cad565b83549260018060801b0397888516815260018060401b0398898660801c1699838301968b885260c01c91600187850199848b520154956060850193878552859d80431161266d575b50505050505050505050505050565b8c9189151590816127e6575b5061270b575b5083806001948b7f46cf4926e42ba22492fd67b3ea0fba545c48ca18651eb6cd271e653d3308c5679e9c9a98956126e99560609f809e9c9a6126c043612308565b169052815260338a5220965116998a868060801b03198854161787555116996119a88b876122bc565b519101558251948552840152820152a23880808080808080808080808061265e565b612728915061271e61249d914390611f91565b858d511690611d41565b828651169064e8d4a51000908181029181830414901517156127d2578861274e91611d61565b83811161277e5783160182811161276a57821685528a8361267f565b634e487b7160e01b82526011600452602482fd5b895162461bcd60e51b815260048101899052602760248201527f53616665436173743a2076616c756520646f65736e27742066697420696e20316044820152663238206269747360c81b6064820152608490fd5b634e487b7160e01b83526011600452602483fd5b9050151538612679565b6040516036805480835260009182527f4a11f94e20a93c79f6ec743a1954ec4fc2c08429ae2122118bf234b2185c81b8918391602080840192905b8282106128785750505061284192500382611ce3565b80519060005b82811061285357505050565b6128739061157b6001600160a01b0361286c8386611ffd565b51166125cf565b612847565b85548452600195860195879550938101939091019061282b565b91909160008382019384129112908015821691151617611d2b57565b91909160018060a01b0380821660005260346020526040600020908416600052602052604060002090604051926128e484611c7c565b825484526001830154602085015260046002840154938460408701526003810154606087015201546080850152821561294857611fc594670de0b6b3a76400006129346129409561293b94611d41565b0492612389565b611d41565b905190611d61565b505050505060009056fe3b5d4cc60d3ec3516ee8ae083bd60934f6eb2a6c54b1229985c41bfb092b260339f61ca2a1a28fee144218173ec637b649a353e4026b2738c673800e5bf1437ba264697066735822122038bcdc95e87a68ed83de5c99a5a4b597d1dbf8ab0698a24738fc0cae77becda864736f6c63430008110033",
  "devdoc": {
    "details": "See IRewardChefV2 interface for full details.*",
    "kind": "dev",
    "methods": {
      "add(uint256,address)": {
        "params": {
          "_asset": "Address of the ERC-20 token.",
          "allocPoint": "AP of the new pool."
        }
      },
      "constructor": {
        "custom:oz-upgrades-unsafe-allow": "constructor"
      },
      "decreaseAmount(address,address,uint256)": {
        "params": {
          "amountEDecimal": "Quantity without taking into account the multiplier that we will subtract",
          "asset": "Asset address",
          "to": "User for whom we will subtract the virtual balance"
        }
      },
      "getDecreaseAmountRewardPenalty(address,address,uint256)": {
        "params": {
          "amountEDecimal": "Quantity without taking into account the multiplier that we will subtract",
          "asset": "Asset address",
          "to": "User who will decrease his deposit amount"
        }
      },
      "getPoolApr(address)": {
        "params": {
          "asset": "Asset address"
        }
      },
      "harvest(address,address,uint256)": {
        "details": "Here we send msg.sender pendingSushi to {to} and update lockup period.",
        "params": {
          "asset": "Asset address",
          "to": "Receiver of REWARD_TOKEN rewards."
        }
      },
      "increaseAmount(address,address,uint256,uint256)": {
        "params": {
          "amountEDecimal": "Quantity without taking into account the multiplier that we will add",
          "asset": "Asset address",
          "lockupPeriodSeconds": "Current deposit lockup period. Can't increase amount with 2 different lockupPeriods",
          "to": "User for whom we will increase the virtual balance"
        }
      },
      "pendingSushi(address,address)": {
        "params": {
          "_asset": "Address of the ERC-20 token.",
          "_user": "Address of user."
        },
        "returns": {
          "pending": "REWARD_TOKEN reward for a given user."
        }
      },
      "refillReward(uint256,uint64)": {
        "details": "admin transfer REWARD_TOKEN to contract to increase rewards per block"
      },
      "resetAmount(address,address)": {
        "params": {
          "asset": "Asset address",
          "to": "The address of the user whose information will be cleared"
        }
      },
      "rewardsBetweenBlocks(uint256,uint256)": {
        "details": "returns total amount of rewards allocated to the all pools on the rage (startBlock, endBlock] i.e. excluding startBlock but including endBlock"
      },
      "set(address,uint256)": {
        "params": {
          "_allocPoint": "New AP of the pool.",
          "_asset": "Address of the ERC-20 token."
        }
      },
      "setPossibleLockupPeriodsSeconds(uint256,uint256)": {
        "details": "If multiplicator1e18 == 0 => we remove lockupPeriodSeconds else we add it",
        "params": {
          "lockupPeriodSeconds": "Amount of seconds of lockupPeriod we want to add/remove",
          "multiplicator1e18": "Multiplicator for that lockupPeriod"
        }
      },
      "supportsInterface(bytes4)": {
        "details": "Returns true if this contract implements the interface defined by `interfaceId`. See the corresponding https://eips.ethereum.org/EIPS/eip-165#how-interfaces-are-identified[EIP section] to learn more about how these ids are created. This function call must use less than 30 000 gas."
      },
      "updatePool(address)": {
        "params": {
          "asset": "Asset address"
        },
        "returns": {
          "pool": "updated pool info"
        }
      }
    },
    "stateVariables": {
      "totalAllocPoint": {
        "details": "Total allocation points. Must be the sum of all allocation points in all pools. The good practice, to always keep this variable is equal 1000."
      }
    },
    "title": "RewardChefV2",
    "version": 1
  },
  "userdoc": {
    "kind": "user",
    "methods": {
      "add(uint256,address)": {
        "notice": "Add a new reward pool. Can only be called by the admin. Can't add the same LP token more than once."
      },
      "decreaseAmount(address,address,uint256)": {
        "notice": "Analogues to MVC2 Withdraw method, that can be called only by trusted address (onlyRewardAccess) that is trusted to honestly calc how many \"virtual\" tokens have to be allocated for each user."
      },
      "getDecreaseAmountRewardPenalty(address,address,uint256)": {
        "notice": "View method that return penalty for user that will decrease amount by {amountEDecimal}"
      },
      "getPoolApr(address)": {
        "notice": "Method for frontend that return pool APR in base of 1e18"
      },
      "getPossibleLockupPeriodsSeconds()": {
        "notice": "view method that return all lockupPeriods in ILockupPeriod struct"
      },
      "harvest(address,address,uint256)": {
        "notice": "Harvest proceeds for transaction sender to {to}."
      },
      "increaseAmount(address,address,uint256,uint256)": {
        "notice": "analogues to MCV2 Deposit method, but can be called only by trusted address (onlyRewardAccess) that is trusted to honestly calc how many \"virtual\" tokens have to be allocated for each user."
      },
      "initialize(address,address,address)": {
        "notice": "_rewardToken - The REWARD_TOKEN token contract address.*"
      },
      "pendingSushi(address,address)": {
        "notice": "View function to see pending REWARD_TOKEN on frontend."
      },
      "poolInfo(address)": {
        "notice": "Info of each MCV2 pool. SuDAO: instead of pool Ids (pid) we use address of the asset directly. Also, there aren't just LPs but regular assets as well*"
      },
      "resetAmount(address,address)": {
        "notice": "Withdraw without caring about rewards. EMERGENCY ONLY."
      },
      "set(address,uint256)": {
        "notice": "Update the given pool's REWARD_TOKEN allocation point. Can only be called by the admin. Can't be called for asset that was not added by add() function."
      },
      "setPossibleLockupPeriodsSeconds(uint256,uint256)": {
        "notice": "method to add new LockupPeriods with it multiplicator"
      },
      "updateAllPools()": {
        "notice": "Update reward variables for all pools. Be careful of gas spending!"
      },
      "updatePool(address)": {
        "notice": "Update reward variables of the given pool."
      },
      "userInfo(address,address)": {
        "notice": "Info of each user that stakes tokens. userInfo[_asset][_user]*"
      }
    },
    "version": 1
  },
  "storageLayout": {
    "storage": [
      {
        "astId": 1226,
        "contract": "contracts/reward/RewardChefV2.sol:RewardChefV2",
        "label": "_initialized",
        "offset": 0,
        "slot": "0",
        "type": "t_uint8"
      },
      {
        "astId": 1229,
        "contract": "contracts/reward/RewardChefV2.sol:RewardChefV2",
        "label": "_initializing",
        "offset": 1,
        "slot": "0",
        "type": "t_bool"
      },
      {
        "astId": 22590,
        "contract": "contracts/reward/RewardChefV2.sol:RewardChefV2",
        "label": "ACCESS_CONTROL_SINGLETON",
        "offset": 2,
        "slot": "0",
        "type": "t_contract(ISuAccessControl)27027"
      },
      {
        "astId": 22861,
        "contract": "contracts/reward/RewardChefV2.sol:RewardChefV2",
        "label": "__gap",
        "offset": 0,
        "slot": "1",
        "type": "t_array(t_uint256)50_storage"
      },
      {
        "astId": 48085,
        "contract": "contracts/reward/RewardChefV2.sol:RewardChefV2",
        "label": "poolInfo",
        "offset": 0,
        "slot": "51",
        "type": "t_mapping(t_address,t_struct(PoolInfo)38871_storage)"
      },
      {
        "astId": 48093,
        "contract": "contracts/reward/RewardChefV2.sol:RewardChefV2",
        "label": "userInfo",
        "offset": 0,
        "slot": "52",
        "type": "t_mapping(t_address,t_mapping(t_address,t_struct(UserInfo)38882_storage))"
      },
      {
        "astId": 48095,
        "contract": "contracts/reward/RewardChefV2.sol:RewardChefV2",
        "label": "totalAllocPoint",
        "offset": 0,
        "slot": "53",
        "type": "t_uint256"
      },
      {
        "astId": 48099,
        "contract": "contracts/reward/RewardChefV2.sol:RewardChefV2",
        "label": "assetSet",
        "offset": 0,
        "slot": "54",
        "type": "t_struct(AddressSet)5493_storage"
      },
      {
        "astId": 48114,
        "contract": "contracts/reward/RewardChefV2.sol:RewardChefV2",
        "label": "REWARD_TOKEN",
        "offset": 0,
        "slot": "56",
        "type": "t_contract(IERC20Upgradeable)1551"
      },
      {
        "astId": 48117,
        "contract": "contracts/reward/RewardChefV2.sol:RewardChefV2",
        "label": "ORACLE",
        "offset": 0,
        "slot": "57",
        "type": "t_contract(ISuOracle)27701"
      },
      {
        "astId": 48119,
        "contract": "contracts/reward/RewardChefV2.sol:RewardChefV2",
        "label": "rewardPerBlock",
        "offset": 0,
        "slot": "58",
        "type": "t_uint256"
      },
      {
        "astId": 48121,
        "contract": "contracts/reward/RewardChefV2.sol:RewardChefV2",
        "label": "rewardEndBlock",
        "offset": 0,
        "slot": "59",
        "type": "t_uint256"
      },
      {
        "astId": 48242,
        "contract": "contracts/reward/RewardChefV2.sol:RewardChefV2",
        "label": "multiplicator1e18ForLockupPeriod",
        "offset": 0,
        "slot": "60",
        "type": "t_mapping(t_uint256,t_uint256)"
      },
      {
        "astId": 48245,
        "contract": "contracts/reward/RewardChefV2.sol:RewardChefV2",
        "label": "possibleLockupPeriodsSeconds",
        "offset": 0,
        "slot": "61",
        "type": "t_struct(UintSet)5650_storage"
      }
    ],
    "types": {
      "t_address": {
        "encoding": "inplace",
        "label": "address",
        "numberOfBytes": "20"
      },
      "t_array(t_bytes32)dyn_storage": {
        "base": "t_bytes32",
        "encoding": "dynamic_array",
        "label": "bytes32[]",
        "numberOfBytes": "32"
      },
      "t_array(t_uint256)50_storage": {
        "base": "t_uint256",
        "encoding": "inplace",
        "label": "uint256[50]",
        "numberOfBytes": "1600"
      },
      "t_bool": {
        "encoding": "inplace",
        "label": "bool",
        "numberOfBytes": "1"
      },
      "t_bytes32": {
        "encoding": "inplace",
        "label": "bytes32",
        "numberOfBytes": "32"
      },
      "t_contract(IERC20Upgradeable)1551": {
        "encoding": "inplace",
        "label": "contract IERC20Upgradeable",
        "numberOfBytes": "20"
      },
      "t_contract(ISuAccessControl)27027": {
        "encoding": "inplace",
        "label": "contract ISuAccessControl",
        "numberOfBytes": "20"
      },
      "t_contract(ISuOracle)27701": {
        "encoding": "inplace",
        "label": "contract ISuOracle",
        "numberOfBytes": "20"
      },
      "t_int256": {
        "encoding": "inplace",
        "label": "int256",
        "numberOfBytes": "32"
      },
      "t_mapping(t_address,t_mapping(t_address,t_struct(UserInfo)38882_storage))": {
        "encoding": "mapping",
        "key": "t_address",
        "label": "mapping(address => mapping(address => struct IRewardChefV2.UserInfo))",
        "numberOfBytes": "32",
        "value": "t_mapping(t_address,t_struct(UserInfo)38882_storage)"
      },
      "t_mapping(t_address,t_struct(PoolInfo)38871_storage)": {
        "encoding": "mapping",
        "key": "t_address",
        "label": "mapping(address => struct IRewardChefV2.PoolInfo)",
        "numberOfBytes": "32",
        "value": "t_struct(PoolInfo)38871_storage"
      },
      "t_mapping(t_address,t_struct(UserInfo)38882_storage)": {
        "encoding": "mapping",
        "key": "t_address",
        "label": "mapping(address => struct IRewardChefV2.UserInfo)",
        "numberOfBytes": "32",
        "value": "t_struct(UserInfo)38882_storage"
      },
      "t_mapping(t_bytes32,t_uint256)": {
        "encoding": "mapping",
        "key": "t_bytes32",
        "label": "mapping(bytes32 => uint256)",
        "numberOfBytes": "32",
        "value": "t_uint256"
      },
      "t_mapping(t_uint256,t_uint256)": {
        "encoding": "mapping",
        "key": "t_uint256",
        "label": "mapping(uint256 => uint256)",
        "numberOfBytes": "32",
        "value": "t_uint256"
      },
      "t_struct(AddressSet)5493_storage": {
        "encoding": "inplace",
        "label": "struct EnumerableSetUpgradeable.AddressSet",
        "members": [
          {
            "astId": 5492,
            "contract": "contracts/reward/RewardChefV2.sol:RewardChefV2",
            "label": "_inner",
            "offset": 0,
            "slot": "0",
            "type": "t_struct(Set)5178_storage"
          }
        ],
        "numberOfBytes": "64"
      },
      "t_struct(PoolInfo)38871_storage": {
        "encoding": "inplace",
        "label": "struct IRewardChefV2.PoolInfo",
        "members": [
          {
            "astId": 38864,
            "contract": "contracts/reward/RewardChefV2.sol:RewardChefV2",
            "label": "accSushiPerShare",
            "offset": 0,
            "slot": "0",
            "type": "t_uint128"
          },
          {
            "astId": 38866,
            "contract": "contracts/reward/RewardChefV2.sol:RewardChefV2",
            "label": "lastRewardBlock",
            "offset": 16,
            "slot": "0",
            "type": "t_uint64"
          },
          {
            "astId": 38868,
            "contract": "contracts/reward/RewardChefV2.sol:RewardChefV2",
            "label": "allocPoint",
            "offset": 24,
            "slot": "0",
            "type": "t_uint64"
          },
          {
            "astId": 38870,
            "contract": "contracts/reward/RewardChefV2.sol:RewardChefV2",
            "label": "lpSupply",
            "offset": 0,
            "slot": "1",
            "type": "t_uint256"
          }
        ],
        "numberOfBytes": "64"
      },
      "t_struct(Set)5178_storage": {
        "encoding": "inplace",
        "label": "struct EnumerableSetUpgradeable.Set",
        "members": [
          {
            "astId": 5173,
            "contract": "contracts/reward/RewardChefV2.sol:RewardChefV2",
            "label": "_values",
            "offset": 0,
            "slot": "0",
            "type": "t_array(t_bytes32)dyn_storage"
          },
          {
            "astId": 5177,
            "contract": "contracts/reward/RewardChefV2.sol:RewardChefV2",
            "label": "_indexes",
            "offset": 0,
            "slot": "1",
            "type": "t_mapping(t_bytes32,t_uint256)"
          }
        ],
        "numberOfBytes": "64"
      },
      "t_struct(UintSet)5650_storage": {
        "encoding": "inplace",
        "label": "struct EnumerableSetUpgradeable.UintSet",
        "members": [
          {
            "astId": 5649,
            "contract": "contracts/reward/RewardChefV2.sol:RewardChefV2",
            "label": "_inner",
            "offset": 0,
            "slot": "0",
            "type": "t_struct(Set)5178_storage"
          }
        ],
        "numberOfBytes": "64"
      },
      "t_struct(UserInfo)38882_storage": {
        "encoding": "inplace",
        "label": "struct IRewardChefV2.UserInfo",
        "members": [
          {
            "astId": 38873,
            "contract": "contracts/reward/RewardChefV2.sol:RewardChefV2",
            "label": "amount",
            "offset": 0,
            "slot": "0",
            "type": "t_uint256"
          },
          {
            "astId": 38875,
            "contract": "contracts/reward/RewardChefV2.sol:RewardChefV2",
            "label": "rewardDebt",
            "offset": 0,
            "slot": "1",
            "type": "t_int256"
          },
          {
            "astId": 38877,
            "contract": "contracts/reward/RewardChefV2.sol:RewardChefV2",
            "label": "multiplicator1e18",
            "offset": 0,
            "slot": "2",
            "type": "t_uint256"
          },
          {
            "astId": 38879,
            "contract": "contracts/reward/RewardChefV2.sol:RewardChefV2",
            "label": "lockupPeriodSeconds",
            "offset": 0,
            "slot": "3",
            "type": "t_uint256"
          },
          {
            "astId": 38881,
            "contract": "contracts/reward/RewardChefV2.sol:RewardChefV2",
            "label": "lockupStartTimestamp",
            "offset": 0,
            "slot": "4",
            "type": "t_uint256"
          }
        ],
        "numberOfBytes": "160"
      },
      "t_uint128": {
        "encoding": "inplace",
        "label": "uint128",
        "numberOfBytes": "16"
      },
      "t_uint256": {
        "encoding": "inplace",
        "label": "uint256",
        "numberOfBytes": "32"
      },
      "t_uint64": {
        "encoding": "inplace",
        "label": "uint64",
        "numberOfBytes": "8"
      },
      "t_uint8": {
        "encoding": "inplace",
        "label": "uint8",
        "numberOfBytes": "1"
      }
    }
  }
}