{
  "address": "0xEdc1E0C67357B55092147C77572Be73ba61Ee730",
  "abi": [
    {
      "inputs": [
        {
          "internalType": "address",
          "name": "accessControl",
          "type": "address"
        },
        {
          "internalType": "address",
          "name": "oracle",
          "type": "address"
        }
      ],
      "stateMutability": "nonpayable",
      "type": "constructor"
    },
    {
      "inputs": [],
      "name": "BadAccessControlSingleton",
      "type": "error"
    },
    {
      "inputs": [],
      "name": "OnlyAdminError",
      "type": "error"
    },
    {
      "inputs": [],
      "name": "OnlyAlerterError",
      "type": "error"
    },
    {
      "inputs": [],
      "name": "OnlyCDPAccessError",
      "type": "error"
    },
    {
      "inputs": [],
      "name": "OnlyDAOError",
      "type": "error"
    },
    {
      "inputs": [],
      "name": "OnlyDisablerAccessError",
      "type": "error"
    },
    {
      "inputs": [],
      "name": "OnlyLiquidationAccessError",
      "type": "error"
    },
    {
      "inputs": [],
      "name": "OnlyMintAccessError",
      "type": "error"
    },
    {
      "inputs": [],
      "name": "OnlyProxyActionsError",
      "type": "error"
    },
    {
      "inputs": [],
      "name": "OnlyRewardAccessError",
      "type": "error"
    },
    {
      "inputs": [],
      "name": "OnlyRoleError",
      "type": "error"
    },
    {
      "inputs": [],
      "name": "OnlyVaultAccessError",
      "type": "error"
    },
    {
      "inputs": [],
      "name": "OnlyVotingEscrowError",
      "type": "error"
    },
    {
      "anonymous": false,
      "inputs": [],
      "name": "DisableContract",
      "type": "event"
    },
    {
      "inputs": [],
      "name": "ACCESS_CONTROL_SINGLETON",
      "outputs": [
        {
          "internalType": "contract ISuAccessControl",
          "name": "",
          "type": "address"
        }
      ],
      "stateMutability": "view",
      "type": "function"
    },
    {
      "inputs": [],
      "name": "ADMIN_ROLE",
      "outputs": [
        {
          "internalType": "bytes32",
          "name": "",
          "type": "bytes32"
        }
      ],
      "stateMutability": "view",
      "type": "function"
    },
    {
      "inputs": [],
      "name": "ALERTER_ROLE",
      "outputs": [
        {
          "internalType": "bytes32",
          "name": "",
          "type": "bytes32"
        }
      ],
      "stateMutability": "view",
      "type": "function"
    },
    {
      "inputs": [],
      "name": "CDP_ACCESS_ROLE",
      "outputs": [
        {
          "internalType": "bytes32",
          "name": "",
          "type": "bytes32"
        }
      ],
      "stateMutability": "view",
      "type": "function"
    },
    {
      "inputs": [],
      "name": "DAO_ROLE",
      "outputs": [
        {
          "internalType": "bytes32",
          "name": "",
          "type": "bytes32"
        }
      ],
      "stateMutability": "view",
      "type": "function"
    },
    {
      "inputs": [],
      "name": "DISABLER_ROLE",
      "outputs": [
        {
          "internalType": "bytes32",
          "name": "",
          "type": "bytes32"
        }
      ],
      "stateMutability": "view",
      "type": "function"
    },
    {
      "inputs": [],
      "name": "LIQUIDATION_ACCESS_ROLE",
      "outputs": [
        {
          "internalType": "bytes32",
          "name": "",
          "type": "bytes32"
        }
      ],
      "stateMutability": "view",
      "type": "function"
    },
    {
      "inputs": [],
      "name": "MINT_ACCESS_ROLE",
      "outputs": [
        {
          "internalType": "bytes32",
          "name": "",
          "type": "bytes32"
        }
      ],
      "stateMutability": "view",
      "type": "function"
    },
    {
      "inputs": [],
      "name": "ORACLE",
      "outputs": [
        {
          "internalType": "contract ISuOracleAggregator",
          "name": "",
          "type": "address"
        }
      ],
      "stateMutability": "view",
      "type": "function"
    },
    {
      "inputs": [],
      "name": "PROXY_ACTIONS_ROLE",
      "outputs": [
        {
          "internalType": "bytes32",
          "name": "",
          "type": "bytes32"
        }
      ],
      "stateMutability": "view",
      "type": "function"
    },
    {
      "inputs": [],
      "name": "REWARD_ACCESS_ROLE",
      "outputs": [
        {
          "internalType": "bytes32",
          "name": "",
          "type": "bytes32"
        }
      ],
      "stateMutability": "view",
      "type": "function"
    },
    {
      "inputs": [],
      "name": "VOTING_ESCROW_ROLE",
      "outputs": [
        {
          "internalType": "bytes32",
          "name": "",
          "type": "bytes32"
        }
      ],
      "stateMutability": "view",
      "type": "function"
    },
    {
      "inputs": [
        {
          "internalType": "address",
          "name": "usr",
          "type": "address"
        }
      ],
      "name": "approveSAFEModification",
      "outputs": [],
      "stateMutability": "nonpayable",
      "type": "function"
    },
    {
      "inputs": [
        {
          "internalType": "address",
          "name": "",
          "type": "address"
        },
        {
          "internalType": "address",
          "name": "",
          "type": "address"
        }
      ],
      "name": "cdpRights",
      "outputs": [
        {
          "internalType": "uint256",
          "name": "",
          "type": "uint256"
        }
      ],
      "stateMutability": "view",
      "type": "function"
    },
    {
      "inputs": [
        {
          "internalType": "address",
          "name": "",
          "type": "address"
        }
      ],
      "name": "coinBalance",
      "outputs": [
        {
          "internalType": "uint256",
          "name": "",
          "type": "uint256"
        }
      ],
      "stateMutability": "view",
      "type": "function"
    },
    {
      "inputs": [
        {
          "internalType": "bytes32",
          "name": "",
          "type": "bytes32"
        }
      ],
      "name": "collateralTypes",
      "outputs": [
        {
          "internalType": "uint256",
          "name": "debtAmount",
          "type": "uint256"
        },
        {
          "internalType": "uint256",
          "name": "accumulatedRate",
          "type": "uint256"
        },
        {
          "internalType": "uint256",
          "name": "debtCeiling",
          "type": "uint256"
        },
        {
          "internalType": "uint256",
          "name": "debtFloor",
          "type": "uint256"
        },
        {
          "internalType": "uint256",
          "name": "safetyPrice",
          "type": "uint256"
        },
        {
          "internalType": "uint256",
          "name": "liquidationRatio",
          "type": "uint256"
        },
        {
          "internalType": "address",
          "name": "collateralAddress",
          "type": "address"
        },
        {
          "internalType": "uint256",
          "name": "safetyPriceBlockNumber",
          "type": "uint256"
        }
      ],
      "stateMutability": "view",
      "type": "function"
    },
    {
      "inputs": [
        {
          "internalType": "bytes32",
          "name": "collateralType",
          "type": "bytes32"
        },
        {
          "internalType": "address",
          "name": "cdp",
          "type": "address"
        },
        {
          "internalType": "address",
          "name": "collateralCounterparty",
          "type": "address"
        },
        {
          "internalType": "address",
          "name": "debtCounterparty",
          "type": "address"
        },
        {
          "internalType": "int256",
          "name": "deltaCollateral",
          "type": "int256"
        },
        {
          "internalType": "int256",
          "name": "deltaDebt",
          "type": "int256"
        }
      ],
      "name": "confiscateSAFECollateralAndDebt",
      "outputs": [],
      "stateMutability": "nonpayable",
      "type": "function"
    },
    {
      "inputs": [],
      "name": "contractEnabled",
      "outputs": [
        {
          "internalType": "uint256",
          "name": "",
          "type": "uint256"
        }
      ],
      "stateMutability": "view",
      "type": "function"
    },
    {
      "inputs": [
        {
          "internalType": "address",
          "name": "debtDestination",
          "type": "address"
        },
        {
          "internalType": "address",
          "name": "coinDestination",
          "type": "address"
        },
        {
          "internalType": "uint256",
          "name": "rad",
          "type": "uint256"
        }
      ],
      "name": "createUnbackedDebt",
      "outputs": [],
      "stateMutability": "nonpayable",
      "type": "function"
    },
    {
      "inputs": [
        {
          "internalType": "address",
          "name": "",
          "type": "address"
        }
      ],
      "name": "debtBalance",
      "outputs": [
        {
          "internalType": "uint256",
          "name": "",
          "type": "uint256"
        }
      ],
      "stateMutability": "view",
      "type": "function"
    },
    {
      "inputs": [],
      "name": "defaultLiquidationRatio",
      "outputs": [
        {
          "internalType": "uint256",
          "name": "",
          "type": "uint256"
        }
      ],
      "stateMutability": "view",
      "type": "function"
    },
    {
      "inputs": [
        {
          "internalType": "address",
          "name": "usr",
          "type": "address"
        }
      ],
      "name": "denySAFEModification",
      "outputs": [],
      "stateMutability": "nonpayable",
      "type": "function"
    },
    {
      "inputs": [],
      "name": "disableContract",
      "outputs": [],
      "stateMutability": "nonpayable",
      "type": "function"
    },
    {
      "inputs": [],
      "name": "globalDebt",
      "outputs": [
        {
          "internalType": "uint256",
          "name": "",
          "type": "uint256"
        }
      ],
      "stateMutability": "view",
      "type": "function"
    },
    {
      "inputs": [],
      "name": "globalDebtCeiling",
      "outputs": [
        {
          "internalType": "uint256",
          "name": "",
          "type": "uint256"
        }
      ],
      "stateMutability": "view",
      "type": "function"
    },
    {
      "inputs": [],
      "name": "globalUnbackedDebt",
      "outputs": [
        {
          "internalType": "uint256",
          "name": "",
          "type": "uint256"
        }
      ],
      "stateMutability": "view",
      "type": "function"
    },
    {
      "inputs": [
        {
          "internalType": "bytes32",
          "name": "collateralType",
          "type": "bytes32"
        },
        {
          "internalType": "address",
          "name": "collateralAddress",
          "type": "address"
        }
      ],
      "name": "initializeCollateralType",
      "outputs": [],
      "stateMutability": "nonpayable",
      "type": "function"
    },
    {
      "inputs": [
        {
          "internalType": "bytes32",
          "name": "collateralType",
          "type": "bytes32"
        },
        {
          "internalType": "address",
          "name": "usr",
          "type": "address"
        },
        {
          "internalType": "int256",
          "name": "wad",
          "type": "int256"
        }
      ],
      "name": "modifyCollateralBalance",
      "outputs": [],
      "stateMutability": "nonpayable",
      "type": "function"
    },
    {
      "inputs": [
        {
          "internalType": "bytes32",
          "name": "collateralType",
          "type": "bytes32"
        },
        {
          "internalType": "bytes32",
          "name": "what",
          "type": "bytes32"
        },
        {
          "internalType": "uint256",
          "name": "data",
          "type": "uint256"
        }
      ],
      "name": "modifyParameters",
      "outputs": [],
      "stateMutability": "nonpayable",
      "type": "function"
    },
    {
      "inputs": [
        {
          "internalType": "bytes32",
          "name": "what",
          "type": "bytes32"
        },
        {
          "internalType": "uint256",
          "name": "data",
          "type": "uint256"
        }
      ],
      "name": "modifyParameters",
      "outputs": [],
      "stateMutability": "nonpayable",
      "type": "function"
    },
    {
      "inputs": [
        {
          "internalType": "bytes32",
          "name": "collateralType",
          "type": "bytes32"
        },
        {
          "internalType": "address",
          "name": "cdp",
          "type": "address"
        },
        {
          "internalType": "address",
          "name": "collateralSource",
          "type": "address"
        },
        {
          "internalType": "address",
          "name": "debtDestination",
          "type": "address"
        },
        {
          "internalType": "int256",
          "name": "deltaCollateral",
          "type": "int256"
        },
        {
          "internalType": "int256",
          "name": "deltaDebt",
          "type": "int256"
        }
      ],
      "name": "modifySAFECollateralization",
      "outputs": [],
      "stateMutability": "nonpayable",
      "type": "function"
    },
    {
      "inputs": [],
      "name": "redemptionPrice",
      "outputs": [
        {
          "internalType": "uint256",
          "name": "",
          "type": "uint256"
        }
      ],
      "stateMutability": "view",
      "type": "function"
    },
    {
      "inputs": [
        {
          "internalType": "bytes32",
          "name": "",
          "type": "bytes32"
        },
        {
          "internalType": "address",
          "name": "",
          "type": "address"
        }
      ],
      "name": "safes",
      "outputs": [
        {
          "internalType": "uint256",
          "name": "lockedCollateral",
          "type": "uint256"
        },
        {
          "internalType": "uint256",
          "name": "generatedDebt",
          "type": "uint256"
        }
      ],
      "stateMutability": "view",
      "type": "function"
    },
    {
      "inputs": [],
      "name": "safetyPriceValidBlockAmount",
      "outputs": [
        {
          "internalType": "uint256",
          "name": "",
          "type": "uint256"
        }
      ],
      "stateMutability": "view",
      "type": "function"
    },
    {
      "inputs": [
        {
          "internalType": "uint256",
          "name": "rad",
          "type": "uint256"
        }
      ],
      "name": "settleDebt",
      "outputs": [],
      "stateMutability": "nonpayable",
      "type": "function"
    },
    {
      "inputs": [
        {
          "internalType": "bytes4",
          "name": "interfaceId",
          "type": "bytes4"
        }
      ],
      "name": "supportsInterface",
      "outputs": [
        {
          "internalType": "bool",
          "name": "",
          "type": "bool"
        }
      ],
      "stateMutability": "view",
      "type": "function"
    },
    {
      "inputs": [
        {
          "internalType": "bytes32",
          "name": "",
          "type": "bytes32"
        },
        {
          "internalType": "address",
          "name": "",
          "type": "address"
        }
      ],
      "name": "tokenCollateral",
      "outputs": [
        {
          "internalType": "uint256",
          "name": "",
          "type": "uint256"
        }
      ],
      "stateMutability": "view",
      "type": "function"
    },
    {
      "inputs": [
        {
          "internalType": "bytes32",
          "name": "collateralType",
          "type": "bytes32"
        },
        {
          "internalType": "address",
          "name": "src",
          "type": "address"
        },
        {
          "internalType": "address",
          "name": "dst",
          "type": "address"
        },
        {
          "internalType": "uint256",
          "name": "wad",
          "type": "uint256"
        }
      ],
      "name": "transferCollateral",
      "outputs": [],
      "stateMutability": "nonpayable",
      "type": "function"
    },
    {
      "inputs": [
        {
          "internalType": "address",
          "name": "src",
          "type": "address"
        },
        {
          "internalType": "address",
          "name": "dst",
          "type": "address"
        },
        {
          "internalType": "uint256",
          "name": "rad",
          "type": "uint256"
        }
      ],
      "name": "transferInternalCoins",
      "outputs": [],
      "stateMutability": "nonpayable",
      "type": "function"
    },
    {
      "inputs": [
        {
          "internalType": "bytes32",
          "name": "collateralType",
          "type": "bytes32"
        },
        {
          "internalType": "address",
          "name": "src",
          "type": "address"
        },
        {
          "internalType": "address",
          "name": "dst",
          "type": "address"
        },
        {
          "internalType": "int256",
          "name": "deltaCollateral",
          "type": "int256"
        },
        {
          "internalType": "int256",
          "name": "deltaDebt",
          "type": "int256"
        }
      ],
      "name": "transferSAFECollateralAndDebt",
      "outputs": [],
      "stateMutability": "nonpayable",
      "type": "function"
    },
    {
      "inputs": [
        {
          "internalType": "bytes32",
          "name": "collateralType",
          "type": "bytes32"
        },
        {
          "internalType": "address",
          "name": "surplusDst",
          "type": "address"
        },
        {
          "internalType": "int256",
          "name": "accumulatedRate",
          "type": "int256"
        }
      ],
      "name": "updateAccumulatedRate",
      "outputs": [],
      "stateMutability": "nonpayable",
      "type": "function"
    },
    {
      "inputs": [
        {
          "internalType": "bytes32",
          "name": "collateralType",
          "type": "bytes32"
        }
      ],
      "name": "updateSafetyPrice",
      "outputs": [],
      "stateMutability": "nonpayable",
      "type": "function"
    }
  ],
  "numDeployments": 3,
  "solcInputHash": "391f99102fcf6a77832aec16c8e54c9d",
  "bytecode": "0x608060409080825234620001695781816200232080380380916200002482856200016e565b83398101031262000169576200004860206200004083620001a8565b9201620001a8565b600080546001600160a01b039384166001600160a01b031991821681178355909392918115918215620000cf575b5050620000be57600180556b033b2e3c9fd0803ce8000000600c556001600d556b04d8c55aefb8c05b5c000000600e5516906008541617600855516121629081620001be8239f35b83516384d942fd60e01b8152600490fd5b86516301ffc9a760e01b8152637965db0b60e01b60048201529250602090839060249082905afa9182156200015d57819262000111575b505015388062000076565b9091506020813d821162000154575b816200012f602093836200016e565b810103126200015057519081151582036200014d5750388062000106565b80fd5b5080fd5b3d915062000120565b508551903d90823e3d90fd5b600080fd5b601f909101601f19168101906001600160401b038211908210176200019257604052565b634e487b7160e01b600052604160045260246000fd5b51906001600160a01b0382168203620001695756fe608080604052600436101561001357600080fd5b60003560e01c90816301ffc9a7146119b65750806303ee9f221461198d5780630e9e11d31461189d57806311005b07146118635780631b1428201461174f5780631d2a783d1461173157806320d8a59f146115ed57806327a0bb331461154f5780632efcc8661461153157806338013f02146115085780633d422504146114b757806341b3a0d914611499578063438280dd1461145e578063476bb6ef146112315780634a11825e146111695780634e14a96714610fff5780634e5111a614610f2e57806362a1e17b14610f1057806371d0fb4114610ed557806375b238fc14610eb957806376e0b4ca14610e715780638543d5e014610e53578063894ba83314610d915780638e5313e014610d5657806399bec31514610857578063a39b558014610839578063b38234f3146107fe578063bd5f5be6146107d5578063c5b748c0146107b7578063d07900bb14610736578063d0e8fa82146106fb578063d2351cee146106d2578063d49d786714610690578063d4b9311d1461057a578063d94d420814610537578063da49bada146104e6578063dc97e84e146104ab578063e401f2e71461048f578063e9c2651814610466578063efabcadc146103db578063fabde80c146103a15763fe4f5890146101ed57600080fd5b3461039c57604036600319011261039c57600435602435906044602060018060a01b036000541660405192838092632474521560e21b82526000805160206120cd83398151915260048301523360248301525afa90811561039057600091610362575b5015610350576102636001805414611b63565b70676c6f62616c446562744365696c696e6760781b81036102855750600b555b005b6e726564656d7074696f6e507269636560881b81036102a45750600c55005b7664656661756c744c69717569646174696f6e526174696f60481b81036102cb5750600e55005b7a1cd859995d1e541c9a58d955985b1a59109b1bd8dad05b5bdd5b9d602a1b036102f457600d55005b60405162461bcd60e51b815260206004820152602e60248201527f53616665456e67696e652f6d6f64696679506172616d65746572732d756e726560448201526d636f676e697a65642d706172616d60901b6064820152608490fd5b60405163599a6c3360e11b8152600490fd5b610383915060203d8111610389575b61037b8183611b28565b810190611b4b565b38610250565b503d610371565b6040513d6000823e3d90fd5b600080fd5b3461039c57602036600319011261039c576001600160a01b036103c2611a3e565b1660005260066020526020604060002054604051908152f35b3461039c576103e936611aaa565b91906103fd6103f83384611ea9565b611e64565b6001600160a01b03918216600081815260066020526040902054906104228583611bd2565b91821161039c576000526006602052604060002055168060005261044c6040600020549283611baf565b91821061039c576000526006602052604060002055600080f35b3461039c57600036600319011261039c5760206040516000805160206120cd8339815191528152f35b3461039c57602036600319011261039c57610283600435611bff565b3461039c57600036600319011261039c5760206040517f9a9aef7c1247d5fc769b0185c052913e39673da29a880317dfd20ebf86f26a498152f35b3461039c57604036600319011261039c576104ff611a3e565b610507611a54565b9060018060a01b038091166000526002602052604060002091166000526020526020604060002054604051908152f35b3461039c57602036600319011261039c57610550611a3e565b33600052600260205260406000209060018060a01b03166000526020526001604060002055600080f35b3461039c57606036600319011261039c57600435602435906044359160018060a01b0360005416906040518092632474521560e21b82526000805160206120cd833981519152600483015233602483015281604460209586935afa90811561039057600091610673575b5015610350576105f76001805414611b63565b6a646562744365696c696e6760a81b810361061f575060039160005252600260406000200155005b683232b13a233637b7b960b91b8103610648575060039160005252600360406000200155600080f35b6f6c69717569646174696f6e526174696f60801b036102f45760039160005252600560406000200155005b61068a9150833d85116103895761037b8183611b28565b856105e4565b3461039c57602036600319011261039c576106a9611a3e565b33600052600260205260406000209060018060a01b031660005260205260006040812055600080f35b3461039c57600036600319011261039c57602060405160008051602061210d8339815191528152f35b3461039c57600036600319011261039c5760206040517f76d0567582f23e1e9d7a13eeba60f9aea9d69b8da87ca27a8bf3698b35c653db8152f35b3461039c57602036600319011261039c576004356000526003602052610100604060002080549060018101549060028101546003820154600483015490600584015492600760018060a01b0360068701541695015495604051978852602088015260408701526060860152608085015260a084015260c083015260e0820152f35b3461039c57600036600319011261039c576020600c54604051908152f35b3461039c57600036600319011261039c5760206040516000805160206120ed8339815191528152f35b3461039c57600036600319011261039c5760206040517fd83f5343da19b478b15a140c301a868be9e02603958f38fbd822b9d5c0a289168152f35b3461039c57600036600319011261039c576020600d54604051908152f35b3461039c5761086536611adf565b9061087860018097969495975414611b63565b60008581526004602090815260408083206001600160a01b0387168452909152908190208151959186018087116001600160401b0390911117610d40576001906040870160405280548752015460208601526108d386611bff565b856000526003602052604060002096604051978861010081011060018060401b036101008b011117610d405761010089016040528054895260076001820154918260208c0152600281015460408c0152600381015460608c0152600481015460808c0152600581015460a08c015260018060a01b0360068201541660c08c0152015460e08a015215610cef5761096a838751611eec565b865261097a846020880151611eec565b602087015261098a848951611eec565b885261099a8460208a0151611fbe565b936109ae60208a015160208901519061208f565b906109bb86600954611eec565b806009556109cf8b5160208d01519061208f565b60408c0151101590600b5410151660008213151715610cac576000851215600082131516610a03895160808d01519061208f565b831115811715610c7157610a173389611ea9565b1715610c3157610a273384611ea9565b60008613151715610bf1576000610a3e3386611ea9565b9112151715610bb1576020870151159060608a015111151715610b7557610a8c610ac59388600052600560205260406000209260018060a01b03169283600052602052604060002054611f5d565b9087600052600560205260406000209060005260205260406000205560018060a01b031691826000526006602052604060002054611eec565b90600052600660205260406000205582600052600460205260406000209060018060a01b0316600052602052600160206040600020928051845501519101556000526003602052600760e0604060002092805184556020810151600185015560408101516002850155606081015160038501556080810151600485015560a081015160058501556006840160018060a01b0360c08301511660018060a01b03198254161790550151910155600080f35b60405162461bcd60e51b815260206004820152601460248201527329b0b332a2b733b4b73297b232b13a233637b7b960611b6044820152606490fd5b60405162461bcd60e51b815260206004820152601860248201527753616665456e67696e652f6e6f742d616c6c6f7765642d7760401b6044820152606490fd5b60405162461bcd60e51b815260206004820152601860248201527729b0b332a2b733b4b73297b737ba16b0b63637bbb2b216bb60411b6044820152606490fd5b60405162461bcd60e51b815260206004820152601860248201527753616665456e67696e652f6e6f742d616c6c6f7765642d7560401b6044820152606490fd5b60405162461bcd60e51b815260206004820152601360248201527253616665456e67696e652f6e6f742d7361666560681b6044820152606490fd5b60405162461bcd60e51b815260206004820152601b60248201527a14d85999515b99da5b994bd8d95a5b1a5b99cb595e18d959591959602a1b6044820152606490fd5b60405162461bcd60e51b815260206004820152602360248201527f53616665456e67696e652f636f6c6c61746572616c2d747970652d6e6f742d696044820152621b9a5d60ea1b6064820152608490fd5b634e487b7160e01b600052604160045260246000fd5b3461039c57600036600319011261039c5760206040517fe453bacb314e78dcd5192e6b1a2b1f0e7c76e92f6b7e429a6a90f04e39db3b768152f35b3461039c57600036600319011261039c57600054604051632474521560e21b815260008051602061210d833981519152600482015233602482015290602090829060449082906001600160a01b03165afa90811561039057600091610e35575b5015610e235760006001557f2d4b4ecff7bd7503135271925520a2f6c0d98c9473ffc1a1e72c92502f51b25e600080a1005b60405163bb0684b760e01b8152600490fd5b610e4d915060203d81116103895761037b8183611b28565b81610df1565b3461039c57600036600319011261039c576020600954604051908152f35b3461039c57604036600319011261039c57610e8a611a54565b600435600052600560205260406000209060018060a01b03166000526020526020604060002054604051908152f35b3461039c57600036600319011261039c57602060405160008152f35b3461039c57600036600319011261039c5760206040517f880a91047114272656e533301261260c75e4d11543ac7303d6fe4204579ec7278152f35b3461039c57600036600319011261039c576020600e54604051908152f35b3461039c57608036600319011261039c57600435610f4a611a54565b610f52611a6a565b9060643592610f646103f83384611ea9565b60008181526005602090815260408083206001600160a01b03958616808552908352922054909391610f968783611bd2565b91821161039c578360005260058552604060002090600052845260406000205581600052600583526040600020931692836000528252610fdc6040600020549485611baf565b93841061039c576000526005815260406000209160005252604060002055600080f35b3461039c5761100d36611adf565b9490939160018060a01b03918260005416946040518096632474521560e21b82526000805160206120ed83398151915260048301523360248301528160446020998a935afa9081156103905760009161114c575b501561113a576110f16110ce611135996007978560005260048a528760406000209116600052895260018a8160406000208860005260038d526110aa6040600020938254611eec565b8155016110b8848254611eec565b90556110c5838254611eec565b81550154611fbe565b978360005260058852856040600020931692836000528852604060002054611f5d565b9160005260058652604060002090600052855260406000205516918260005281815261112284604060002054611f5d565b9260005252604060002055600a54611f5d565b600a55005b604051635e9e090760e01b8152600490fd5b6111639150873d89116103895761037b8183611b28565b89611061565b3461039c5761117736611a80565b600054604051632474521560e21b81526000805160206120ed83398151915260048201523360248201526020926001600160a01b039290919084908290604490829087165afa90811561039057600091611214575b501561113a576111f79185600052600584526040600020941693846000528352604060002054611eec565b926000526005815260406000209160005252604060002055600080f35b61122b9150843d86116103895761037b8183611b28565b866111cc565b3461039c5760a036600319011261039c5760043561124d611a54565b611255611a6a565b91606435926084359061126783611bff565b60008381526004602090815260408083206001600160a01b0388811685529083528184209085168452818420968452600383529220825491979295909290916112b1908290611f5d565b86556112e060016112d3818901936112ca898654611f5d565b85558554611eec565b9384815501958654611eec565b809555549461131e600184015494611318611310611308611301898c61208f565b988a61208f565b9a3390611ea9565b913390611ea9565b16611e64565b549061132f6004840154809361208f565b841161141f579061133f9161208f565b85116113e0576003015480931591101517156113a05715911015171561136157005b6064906040519062461bcd60e51b82526004820152601860248201527714d85999515b99da5b994bd919589d119b1bdbdc8b591cdd60421b6044820152fd5b60405162461bcd60e51b815260048101859052601860248201527753616665456e67696e652f64656274466c6f6f722d73726360401b6044820152606490fd5b60405162461bcd60e51b815260048101879052601760248201527614d85999515b99da5b994bdb9bdd0b5cd859994b591cdd604a1b6044820152606490fd5b60405162461bcd60e51b815260048101899052601760248201527653616665456e67696e652f6e6f742d736166652d73726360481b6044820152606490fd5b3461039c57600036600319011261039c5760206040517f39f61ca2a1a28fee144218173ec637b649a353e4026b2738c673800e5bf1437b8152f35b3461039c57600036600319011261039c576020600154604051908152f35b3461039c57604036600319011261039c576114d0611a54565b600435600052600460205260406000209060018060a01b03166000526020526040806000206001815491015482519182526020820152f35b3461039c57600036600319011261039c576008546040516001600160a01b039091168152602090f35b3461039c57600036600319011261039c576020600b54604051908152f35b3461039c57602036600319011261039c5760043533600052600760205260406000205461157c8282611bd2565b90811161039c5733600052600760205260406000205560066020526040600020546115a78282611bd2565b90811161039c57336000526006602052604060002055600a546115ca8282611bd2565b90811161039c57600a556115e16009549182611bd2565b90811161039c57600955005b3461039c57604036600319011261039c57600435611609611a54565b9060018060a01b03908160005416906040518092632474521560e21b82526000600483015233602483015281604460209586935afa90811561039057600091611714575b50156117025780600052600382526001604060002001546116ad576000908152600390915260409020676765c793fa10079d601b1b60018201556006810180546001600160a01b0319169290931691909117909155600e54600590910155005b60405162461bcd60e51b815260048101839052602760248201527f53616665456e67696e652f636f6c6c61746572616c2d747970652d616c726561604482015266191e4b5a5b9a5d60ca1b6064820152608490fd5b604051631886ea7d60e11b8152600490fd5b61172b9150833d85116103895761037b8183611b28565b8561164d565b3461039c57600036600319011261039c576020600a54604051908152f35b3461039c5761175d36611aaa565b600054604051632474521560e21b81526000805160206120ed833981519152600482015233602482015291936020936001600160a01b0393909285908290604490829088165afa90811561039057600091611846575b501561113a5782168060005260078452604060002054906117d48683611baf565b91821061039c5760005260078452604060002055168060005260068252604060002054916118028484611baf565b92831061039c5760069160005252604060002055600a546118238282611baf565b90811061039c57600a5561183a6009549182611baf565b90811061039c57600955005b61185d9150853d87116103895761037b8183611b28565b866117b3565b3461039c57602036600319011261039c576001600160a01b03611884611a3e565b1660005260076020526020604060002054604051908152f35b3461039c576118ab36611a80565b600054604051632474521560e21b81526000805160206120ed8339815191526004820152336024820152602092916001600160a01b03919084908290604490829086165afa90811561039057600091611970575b501561113a5761193f60069261196b9661191c6001805414611b63565b60005260038552604060002060018101611937838254611eec565b905554611fbe565b9316918260005281815261195884604060002054611eec565b9260005252604060002055600954611eec565b600955005b6119879150843d86116103895761037b8183611b28565b866118ff565b3461039c57600036600319011261039c576000546040516001600160a01b039091168152602090f35b3461039c57602036600319011261039c5760043563ffffffff60e01b811680910361039c576000546301ffc9a760e01b83526004830191909152602090829060249082906001600160a01b03165afa801561039057602091600091611a21575b506040519015158152f35b611a389150823d81116103895761037b8183611b28565b82611a16565b600435906001600160a01b038216820361039c57565b602435906001600160a01b038216820361039c57565b604435906001600160a01b038216820361039c57565b606090600319011261039c57600435906024356001600160a01b038116810361039c579060443590565b606090600319011261039c576001600160a01b0390600435828116810361039c5791602435908116810361039c579060443590565b60c090600319011261039c57600435906001600160a01b03602435818116810361039c5791604435828116810361039c5791606435908116810361039c57906084359060a43590565b601f909101601f19168101906001600160401b03821190821017610d4057604052565b9081602091031261039c5751801515810361039c5790565b15611b6a57565b60405162461bcd60e51b815260206004820152601e60248201527f53616665456e67696e652f6e6f742d636f6e7472616374456e61626c656400006044820152606490fd5b91908201809211611bbc57565b634e487b7160e01b600052601160045260246000fd5b91908203918211611bbc57565b8115611be9570490565b634e487b7160e01b600052601260045260246000fd5b906000828152602092600384526040906007828420015415600014611e44578083526003855243600783852001555b8083526003855281832060060154825163313ce56760e01b8152600496916001600160a01b039081169183818a81865afa908115611e3a579187939185938591611df6575b5060ff1660128103611d4e5750602490600854169187519485938492632a5001c960e01b84528d8401525af1908115611d44578591611d13575b505b633b9aca0090818102918183041490151715611d0057600794959691611cf0611cdd600393600c549061205d565b8589528383526005878a2001549061205d565b9387525282852001554392200155565b634e487b7160e01b855260118752602485fd5b90508181813d8311611d3d575b611d2a8183611b28565b81010312611d39575138611cad565b8480fd5b503d611d20565b84513d87823e3d90fd5b92919350600854169260248a8989519687948593632a5001c960e01b85528401525af1918215611dec578692611db9575b5060120360128111611da657604d8111611da65790611da191600a0a90611bdf565b611caf565b634e487b7160e01b865260118852602486fd5b9091508281813d8311611de5575b611dd18183611b28565b81010312611de157519038611d7f565b8580fd5b503d611dc7565b85513d88823e3d90fd5b929450509181813d8311611e33575b611e0f8183611b28565b81010312611e2f575160ff81168103611e2f5791839160ff889490611c73565b8680fd5b503d611e05565b86513d89823e3d90fd5b611e5760078385200154600d5490611baf565b4311611c2e575050509050565b15611e6b57565b60405162461bcd60e51b815260206004820152601660248201527514d85999515b99da5b994bdb9bdd0b585b1b1bddd95960521b6044820152606490fd5b9060018060a01b0380911691169081600052600260205260406000208160005260205260016040600020541491141790565b600160ff1b8114611bbc5760000390565b6000808312801594939192919080611f4557611f088284611baf565b955b90611f3b575b15611f3757821290811591611f2c575b5015611f295750565b80fd5b905083101538611f20565b8280fd5b5081851115611f10565b611f57611f5183611edb565b84611bd2565b95611f0a565b90919060009081841290811582611fa55783611f798784611bd2565b965b13801590611f9b575b15611f975791611f2c575015611f295750565b8380fd5b5081861115611f84565b83611fb8611fb288611edb565b84611baf565b96611f7b565b600080821293929091600160ff1b91808202838214871661204957828105821483151715612049578096611d39578115938415612002575b5050505015611f295750565b9091929361203557811460001983141661202157051438808080611ff6565b634e487b7160e01b84526011600452602484fd5b634e487b7160e01b85526012600452602485fd5b634e487b7160e01b85526011600452602485fd5b676765c793fa10079d601b1b808202929190811582850482141715611bbc5783040361039c5761208c91611bdf565b90565b6000929180159182156120a6575b50501561039c57565b80820294509150811582850482141715611bbc576120c49084611bdf565b14388061209d56fe3b5d4cc60d3ec3516ee8ae083bd60934f6eb2a6c54b1229985c41bfb092b26034f14c8366fa999817edc9f29824eb88a00cc31225e2156f399da4bc91049eb10b0fdd1623e42dbffda4acd8bd643e1cb69f00f0e83abeaa8150ee42cf0fd105ea26469706673582212203640fd7de732e7568d58f9dbde391b82bd86590dc884fa5f3787c0fa907803ef64736f6c63430008110033",
  "devdoc": {
    "kind": "dev",
    "methods": {
      "approveSAFEModification(address)": {
        "params": {
          "usr": "Account to give CDP permissions to"
        }
      },
      "confiscateSAFECollateralAndDebt(bytes32,address,address,address,int256,int256)": {
        "params": {
          "cdp": "Target CDP",
          "collateralCounterparty": "Who we take/give collateral to",
          "collateralType": "Collateral type the CDP has locked inside",
          "debtCounterparty": "Who we take/give debt to",
          "deltaCollateral": "Amount of collateral taken/added into the CDP",
          "deltaDebt": "Amount of debt taken/added into the CDP"
        }
      },
      "createUnbackedDebt(address,address,uint256)": {
        "params": {
          "coinDestination": "Usually CoinSavingsAccount who passes the new coins to depositors",
          "debtDestination": "Usually AccountingEngine that can settle decreaseSoldAmount with surplus",
          "rad": "Amount of debt to create (expressed as a number with 45 decimals)"
        }
      },
      "denySAFEModification(address)": {
        "params": {
          "usr": "Account to give CDP permissions to"
        }
      },
      "modifyParameters(bytes32,bytes32,uint256)": {
        "params": {
          "collateralType": "- collateral type we want to modify (collateralTypes[collateralType])",
          "data": "- new value of this variable",
          "what": "- name of variable in struct we want to change"
        }
      },
      "modifyParameters(bytes32,uint256)": {
        "params": {
          "data": "- new value of this variable",
          "what": "- name of variable we want to change"
        }
      },
      "modifySAFECollateralization(bytes32,address,address,address,int256,int256)": {
        "params": {
          "cdp": "Target CDP",
          "collateralSource": "Account we take collateral from/put collateral into",
          "collateralType": "Type of collateral to withdraw/deposit in and from the CDP",
          "debtDestination": "Account from which we credit/debit coins and debt",
          "deltaCollateral": "Amount of collateral added/extract from the CDP",
          "deltaDebt": "Amount of debt to generate/repay"
        }
      },
      "settleDebt(uint256)": {
        "params": {
          "rad": "Amount of debt & coins to destroy (expressed as a number with 45 decimals)"
        }
      },
      "supportsInterface(bytes4)": {
        "details": "Returns true if this contract implements the interface defined by `interfaceId`. See the corresponding https://eips.ethereum.org/EIPS/eip-165#how-interfaces-are-identified[EIP section] to learn more about how these ids are created. This function call must use less than 30 000 gas."
      },
      "transferSAFECollateralAndDebt(bytes32,address,address,int256,int256)": {
        "params": {
          "collateralType": "Collateral type transferred between CDPs",
          "deltaCollateral": "Amount of collateral to take/add into src and give/take from dst",
          "deltaDebt": "Amount of debt to take/add into src and give/take from dst",
          "dst": "Destination CDP",
          "src": "Source CDP"
        }
      },
      "updateAccumulatedRate(bytes32,address,int256)": {
        "params": {
          "accumulatedRate": "Multiplier applied to the debtAmount in order to calculate the surplus",
          "collateralType": "Collateral type we accrue interest for",
          "surplusDst": "Destination for amount of surplus created by applying the interest rate to debt created by CDPs with 'collateralType'"
        }
      },
      "updateSafetyPrice(bytes32)": {
        "params": {
          "collateralType": "- safetyPrice's collateral type we want to update"
        }
      }
    },
    "version": 1
  },
  "userdoc": {
    "kind": "user",
    "methods": {
      "approveSAFEModification(address)": {
        "notice": "Allow an address to modify your CDP. For example coinAdapter should be able to modify your CDP to withdraw all correctly."
      },
      "collateralTypes(bytes32)": {
        "notice": "Total User Debt (drawn StablePro + stability fee accrued) = SAFE.generatedDebt * CollateralType.accumulatedRate"
      },
      "confiscateSAFECollateralAndDebt(bytes32,address,address,address,int256,int256)": {
        "notice": "Normally used by the LiquidationEngine in order to confiscate collateral and debt from a CDP and give them to someone else"
      },
      "createUnbackedDebt(address,address,uint256)": {
        "notice": "Usually called by CoinSavingsAccount in order to create unbacked debt"
      },
      "denySAFEModification(address)": {
        "notice": "Deny an address the rights to modify your CDP"
      },
      "modifyParameters(bytes32,bytes32,uint256)": {
        "notice": "Method to modify values in struct of collateralTypes"
      },
      "modifyParameters(bytes32,uint256)": {
        "notice": "Method to modify some global variables"
      },
      "modifySAFECollateralization(bytes32,address,address,address,int256,int256)": {
        "notice": "Add/remove collateral or put back/generate more debt in a CDP"
      },
      "settleDebt(uint256)": {
        "notice": "Nullify an amount of coins with an equal amount of debt"
      },
      "transferSAFECollateralAndDebt(bytes32,address,address,int256,int256)": {
        "notice": "Transfer collateral and/or debt between CDPs"
      },
      "updateAccumulatedRate(bytes32,address,int256)": {
        "notice": "Usually called by TaxCollector in order to accrue interest on a specific collateral type"
      },
      "updateSafetyPrice(bytes32)": {
        "notice": "Method to update safetyPrice, it's called each time, when function need actual safetyPrice"
      }
    },
    "version": 1
  },
  "storageLayout": {
    "storage": [
      {
        "astId": 5984,
        "contract": "contracts/makerdao/core/SafeEngine.sol:SafeEngine",
        "label": "ACCESS_CONTROL_SINGLETON",
        "offset": 0,
        "slot": "0",
        "type": "t_contract(ISuAccessControl)6267"
      },
      {
        "astId": 918,
        "contract": "contracts/makerdao/core/SafeEngine.sol:SafeEngine",
        "label": "contractEnabled",
        "offset": 0,
        "slot": "1",
        "type": "t_uint256"
      },
      {
        "astId": 937,
        "contract": "contracts/makerdao/core/SafeEngine.sol:SafeEngine",
        "label": "cdpRights",
        "offset": 0,
        "slot": "2",
        "type": "t_mapping(t_address,t_mapping(t_address,t_uint256))"
      },
      {
        "astId": 996,
        "contract": "contracts/makerdao/core/SafeEngine.sol:SafeEngine",
        "label": "collateralTypes",
        "offset": 0,
        "slot": "3",
        "type": "t_mapping(t_bytes32,t_struct(CollateralType)5292_storage)"
      },
      {
        "astId": 1003,
        "contract": "contracts/makerdao/core/SafeEngine.sol:SafeEngine",
        "label": "safes",
        "offset": 0,
        "slot": "4",
        "type": "t_mapping(t_bytes32,t_mapping(t_address,t_struct(SAFE)5297_storage))"
      },
      {
        "astId": 1009,
        "contract": "contracts/makerdao/core/SafeEngine.sol:SafeEngine",
        "label": "tokenCollateral",
        "offset": 0,
        "slot": "5",
        "type": "t_mapping(t_bytes32,t_mapping(t_address,t_uint256))"
      },
      {
        "astId": 1013,
        "contract": "contracts/makerdao/core/SafeEngine.sol:SafeEngine",
        "label": "coinBalance",
        "offset": 0,
        "slot": "6",
        "type": "t_mapping(t_address,t_uint256)"
      },
      {
        "astId": 1017,
        "contract": "contracts/makerdao/core/SafeEngine.sol:SafeEngine",
        "label": "debtBalance",
        "offset": 0,
        "slot": "7",
        "type": "t_mapping(t_address,t_uint256)"
      },
      {
        "astId": 1020,
        "contract": "contracts/makerdao/core/SafeEngine.sol:SafeEngine",
        "label": "ORACLE",
        "offset": 0,
        "slot": "8",
        "type": "t_contract(ISuOracleAggregator)6370"
      },
      {
        "astId": 1022,
        "contract": "contracts/makerdao/core/SafeEngine.sol:SafeEngine",
        "label": "globalDebt",
        "offset": 0,
        "slot": "9",
        "type": "t_uint256"
      },
      {
        "astId": 1024,
        "contract": "contracts/makerdao/core/SafeEngine.sol:SafeEngine",
        "label": "globalUnbackedDebt",
        "offset": 0,
        "slot": "10",
        "type": "t_uint256"
      },
      {
        "astId": 1026,
        "contract": "contracts/makerdao/core/SafeEngine.sol:SafeEngine",
        "label": "globalDebtCeiling",
        "offset": 0,
        "slot": "11",
        "type": "t_uint256"
      },
      {
        "astId": 1028,
        "contract": "contracts/makerdao/core/SafeEngine.sol:SafeEngine",
        "label": "redemptionPrice",
        "offset": 0,
        "slot": "12",
        "type": "t_uint256"
      },
      {
        "astId": 1030,
        "contract": "contracts/makerdao/core/SafeEngine.sol:SafeEngine",
        "label": "safetyPriceValidBlockAmount",
        "offset": 0,
        "slot": "13",
        "type": "t_uint256"
      },
      {
        "astId": 1032,
        "contract": "contracts/makerdao/core/SafeEngine.sol:SafeEngine",
        "label": "defaultLiquidationRatio",
        "offset": 0,
        "slot": "14",
        "type": "t_uint256"
      }
    ],
    "types": {
      "t_address": {
        "encoding": "inplace",
        "label": "address",
        "numberOfBytes": "20"
      },
      "t_bytes32": {
        "encoding": "inplace",
        "label": "bytes32",
        "numberOfBytes": "32"
      },
      "t_contract(ISuAccessControl)6267": {
        "encoding": "inplace",
        "label": "contract ISuAccessControl",
        "numberOfBytes": "20"
      },
      "t_contract(ISuOracleAggregator)6370": {
        "encoding": "inplace",
        "label": "contract ISuOracleAggregator",
        "numberOfBytes": "20"
      },
      "t_mapping(t_address,t_mapping(t_address,t_uint256))": {
        "encoding": "mapping",
        "key": "t_address",
        "label": "mapping(address => mapping(address => uint256))",
        "numberOfBytes": "32",
        "value": "t_mapping(t_address,t_uint256)"
      },
      "t_mapping(t_address,t_struct(SAFE)5297_storage)": {
        "encoding": "mapping",
        "key": "t_address",
        "label": "mapping(address => struct ISafeEngine.SAFE)",
        "numberOfBytes": "32",
        "value": "t_struct(SAFE)5297_storage"
      },
      "t_mapping(t_address,t_uint256)": {
        "encoding": "mapping",
        "key": "t_address",
        "label": "mapping(address => uint256)",
        "numberOfBytes": "32",
        "value": "t_uint256"
      },
      "t_mapping(t_bytes32,t_mapping(t_address,t_struct(SAFE)5297_storage))": {
        "encoding": "mapping",
        "key": "t_bytes32",
        "label": "mapping(bytes32 => mapping(address => struct ISafeEngine.SAFE))",
        "numberOfBytes": "32",
        "value": "t_mapping(t_address,t_struct(SAFE)5297_storage)"
      },
      "t_mapping(t_bytes32,t_mapping(t_address,t_uint256))": {
        "encoding": "mapping",
        "key": "t_bytes32",
        "label": "mapping(bytes32 => mapping(address => uint256))",
        "numberOfBytes": "32",
        "value": "t_mapping(t_address,t_uint256)"
      },
      "t_mapping(t_bytes32,t_struct(CollateralType)5292_storage)": {
        "encoding": "mapping",
        "key": "t_bytes32",
        "label": "mapping(bytes32 => struct ISafeEngine.CollateralType)",
        "numberOfBytes": "32",
        "value": "t_struct(CollateralType)5292_storage"
      },
      "t_struct(CollateralType)5292_storage": {
        "encoding": "inplace",
        "label": "struct ISafeEngine.CollateralType",
        "members": [
          {
            "astId": 5277,
            "contract": "contracts/makerdao/core/SafeEngine.sol:SafeEngine",
            "label": "debtAmount",
            "offset": 0,
            "slot": "0",
            "type": "t_uint256"
          },
          {
            "astId": 5279,
            "contract": "contracts/makerdao/core/SafeEngine.sol:SafeEngine",
            "label": "accumulatedRate",
            "offset": 0,
            "slot": "1",
            "type": "t_uint256"
          },
          {
            "astId": 5281,
            "contract": "contracts/makerdao/core/SafeEngine.sol:SafeEngine",
            "label": "debtCeiling",
            "offset": 0,
            "slot": "2",
            "type": "t_uint256"
          },
          {
            "astId": 5283,
            "contract": "contracts/makerdao/core/SafeEngine.sol:SafeEngine",
            "label": "debtFloor",
            "offset": 0,
            "slot": "3",
            "type": "t_uint256"
          },
          {
            "astId": 5285,
            "contract": "contracts/makerdao/core/SafeEngine.sol:SafeEngine",
            "label": "safetyPrice",
            "offset": 0,
            "slot": "4",
            "type": "t_uint256"
          },
          {
            "astId": 5287,
            "contract": "contracts/makerdao/core/SafeEngine.sol:SafeEngine",
            "label": "liquidationRatio",
            "offset": 0,
            "slot": "5",
            "type": "t_uint256"
          },
          {
            "astId": 5289,
            "contract": "contracts/makerdao/core/SafeEngine.sol:SafeEngine",
            "label": "collateralAddress",
            "offset": 0,
            "slot": "6",
            "type": "t_address"
          },
          {
            "astId": 5291,
            "contract": "contracts/makerdao/core/SafeEngine.sol:SafeEngine",
            "label": "safetyPriceBlockNumber",
            "offset": 0,
            "slot": "7",
            "type": "t_uint256"
          }
        ],
        "numberOfBytes": "256"
      },
      "t_struct(SAFE)5297_storage": {
        "encoding": "inplace",
        "label": "struct ISafeEngine.SAFE",
        "members": [
          {
            "astId": 5294,
            "contract": "contracts/makerdao/core/SafeEngine.sol:SafeEngine",
            "label": "lockedCollateral",
            "offset": 0,
            "slot": "0",
            "type": "t_uint256"
          },
          {
            "astId": 5296,
            "contract": "contracts/makerdao/core/SafeEngine.sol:SafeEngine",
            "label": "generatedDebt",
            "offset": 0,
            "slot": "1",
            "type": "t_uint256"
          }
        ],
        "numberOfBytes": "64"
      },
      "t_uint256": {
        "encoding": "inplace",
        "label": "uint256",
        "numberOfBytes": "32"
      }
    }
  }
}