{
  "address": "0xe53bdf250Ce49df9A8A7D396A125405963628731",
  "abi": [
    {
      "anonymous": false,
      "inputs": [
        {
          "indexed": true,
          "internalType": "address",
          "name": "owner",
          "type": "address"
        },
        {
          "indexed": true,
          "internalType": "address",
          "name": "spender",
          "type": "address"
        },
        {
          "indexed": false,
          "internalType": "uint256",
          "name": "value",
          "type": "uint256"
        }
      ],
      "name": "Approval",
      "type": "event"
    },
    {
      "anonymous": false,
      "inputs": [
        {
          "indexed": false,
          "internalType": "uint8",
          "name": "version",
          "type": "uint8"
        }
      ],
      "name": "Initialized",
      "type": "event"
    },
    {
      "anonymous": false,
      "inputs": [
        {
          "indexed": true,
          "internalType": "address",
          "name": "from",
          "type": "address"
        },
        {
          "indexed": true,
          "internalType": "address",
          "name": "to",
          "type": "address"
        },
        {
          "indexed": false,
          "internalType": "uint256",
          "name": "value",
          "type": "uint256"
        }
      ],
      "name": "Transfer",
      "type": "event"
    },
    {
      "inputs": [],
      "name": "ACCESS_CONTROL_SINGLETON",
      "outputs": [
        {
          "internalType": "contract ISuAccessControl",
          "name": "",
          "type": "address"
        }
      ],
      "stateMutability": "view",
      "type": "function"
    },
    {
      "inputs": [],
      "name": "LIQUIDATION_ACCESS_ROLE",
      "outputs": [
        {
          "internalType": "bytes32",
          "name": "",
          "type": "bytes32"
        }
      ],
      "stateMutability": "view",
      "type": "function"
    },
    {
      "inputs": [],
      "name": "MINTER_ROLE",
      "outputs": [
        {
          "internalType": "bytes32",
          "name": "",
          "type": "bytes32"
        }
      ],
      "stateMutability": "view",
      "type": "function"
    },
    {
      "inputs": [],
      "name": "REWARD_PRECISION",
      "outputs": [
        {
          "internalType": "uint256",
          "name": "",
          "type": "uint256"
        }
      ],
      "stateMutability": "view",
      "type": "function"
    },
    {
      "inputs": [],
      "name": "VAULT_ACCESS_ROLE",
      "outputs": [
        {
          "internalType": "bytes32",
          "name": "",
          "type": "bytes32"
        }
      ],
      "stateMutability": "view",
      "type": "function"
    },
    {
      "inputs": [
        {
          "internalType": "address",
          "name": "",
          "type": "address"
        }
      ],
      "name": "_accounts",
      "outputs": [
        {
          "internalType": "uint256",
          "name": "balance",
          "type": "uint256"
        },
        {
          "internalType": "int256",
          "name": "rewardDebt",
          "type": "int256"
        },
        {
          "internalType": "bool",
          "name": "isGainDisabled",
          "type": "bool"
        }
      ],
      "stateMutability": "view",
      "type": "function"
    },
    {
      "inputs": [
        {
          "internalType": "address",
          "name": "owner",
          "type": "address"
        },
        {
          "internalType": "address",
          "name": "spender",
          "type": "address"
        }
      ],
      "name": "allowance",
      "outputs": [
        {
          "internalType": "uint256",
          "name": "",
          "type": "uint256"
        }
      ],
      "stateMutability": "view",
      "type": "function"
    },
    {
      "inputs": [
        {
          "internalType": "address",
          "name": "spender",
          "type": "address"
        },
        {
          "internalType": "uint256",
          "name": "amount",
          "type": "uint256"
        }
      ],
      "name": "approve",
      "outputs": [
        {
          "internalType": "bool",
          "name": "",
          "type": "bool"
        }
      ],
      "stateMutability": "nonpayable",
      "type": "function"
    },
    {
      "inputs": [
        {
          "internalType": "address",
          "name": "account",
          "type": "address"
        }
      ],
      "name": "balanceOf",
      "outputs": [
        {
          "internalType": "uint256",
          "name": "",
          "type": "uint256"
        }
      ],
      "stateMutability": "view",
      "type": "function"
    },
    {
      "inputs": [
        {
          "internalType": "uint256",
          "name": "amount",
          "type": "uint256"
        }
      ],
      "name": "burn",
      "outputs": [],
      "stateMutability": "nonpayable",
      "type": "function"
    },
    {
      "inputs": [
        {
          "internalType": "address",
          "name": "from",
          "type": "address"
        },
        {
          "internalType": "uint256",
          "name": "amount",
          "type": "uint256"
        }
      ],
      "name": "burn",
      "outputs": [],
      "stateMutability": "nonpayable",
      "type": "function"
    },
    {
      "inputs": [],
      "name": "decimals",
      "outputs": [
        {
          "internalType": "uint8",
          "name": "",
          "type": "uint8"
        }
      ],
      "stateMutability": "view",
      "type": "function"
    },
    {
      "inputs": [
        {
          "internalType": "address",
          "name": "spender",
          "type": "address"
        },
        {
          "internalType": "uint256",
          "name": "subtractedValue",
          "type": "uint256"
        }
      ],
      "name": "decreaseAllowance",
      "outputs": [
        {
          "internalType": "bool",
          "name": "",
          "type": "bool"
        }
      ],
      "stateMutability": "nonpayable",
      "type": "function"
    },
    {
      "inputs": [],
      "name": "getYieldAPR",
      "outputs": [
        {
          "internalType": "uint256",
          "name": "",
          "type": "uint256"
        }
      ],
      "stateMutability": "view",
      "type": "function"
    },
    {
      "inputs": [
        {
          "internalType": "address",
          "name": "spender",
          "type": "address"
        },
        {
          "internalType": "uint256",
          "name": "addedValue",
          "type": "uint256"
        }
      ],
      "name": "increaseAllowance",
      "outputs": [
        {
          "internalType": "bool",
          "name": "",
          "type": "bool"
        }
      ],
      "stateMutability": "nonpayable",
      "type": "function"
    },
    {
      "inputs": [
        {
          "internalType": "address",
          "name": "_authControl",
          "type": "address"
        }
      ],
      "name": "initialize",
      "outputs": [],
      "stateMutability": "nonpayable",
      "type": "function"
    },
    {
      "inputs": [
        {
          "internalType": "address",
          "name": "to",
          "type": "address"
        },
        {
          "internalType": "uint256",
          "name": "amount",
          "type": "uint256"
        }
      ],
      "name": "mint",
      "outputs": [],
      "stateMutability": "nonpayable",
      "type": "function"
    },
    {
      "inputs": [],
      "name": "name",
      "outputs": [
        {
          "internalType": "string",
          "name": "",
          "type": "string"
        }
      ],
      "stateMutability": "view",
      "type": "function"
    },
    {
      "inputs": [
        {
          "internalType": "address",
          "name": "account",
          "type": "address"
        }
      ],
      "name": "pendingRewards",
      "outputs": [
        {
          "internalType": "uint256",
          "name": "",
          "type": "uint256"
        }
      ],
      "stateMutability": "view",
      "type": "function"
    },
    {
      "inputs": [
        {
          "internalType": "uint256",
          "name": "amount",
          "type": "uint256"
        },
        {
          "internalType": "uint64",
          "name": "endBlock",
          "type": "uint64"
        }
      ],
      "name": "refillReward",
      "outputs": [],
      "stateMutability": "nonpayable",
      "type": "function"
    },
    {
      "inputs": [],
      "name": "rewardEndBlock",
      "outputs": [
        {
          "internalType": "uint256",
          "name": "",
          "type": "uint256"
        }
      ],
      "stateMutability": "view",
      "type": "function"
    },
    {
      "inputs": [],
      "name": "rewardPerBlock",
      "outputs": [
        {
          "internalType": "uint256",
          "name": "",
          "type": "uint256"
        }
      ],
      "stateMutability": "view",
      "type": "function"
    },
    {
      "inputs": [],
      "name": "rewardPool",
      "outputs": [
        {
          "internalType": "uint128",
          "name": "accRewardPerShare",
          "type": "uint128"
        },
        {
          "internalType": "uint64",
          "name": "lastRewardBlock",
          "type": "uint64"
        }
      ],
      "stateMutability": "view",
      "type": "function"
    },
    {
      "inputs": [
        {
          "internalType": "uint256",
          "name": "startBlock",
          "type": "uint256"
        },
        {
          "internalType": "uint256",
          "name": "endBlock",
          "type": "uint256"
        }
      ],
      "name": "rewardsBetweenBlocks",
      "outputs": [
        {
          "internalType": "uint256",
          "name": "",
          "type": "uint256"
        }
      ],
      "stateMutability": "view",
      "type": "function"
    },
    {
      "inputs": [],
      "name": "symbol",
      "outputs": [
        {
          "internalType": "string",
          "name": "",
          "type": "string"
        }
      ],
      "stateMutability": "view",
      "type": "function"
    },
    {
      "inputs": [],
      "name": "totalSupply",
      "outputs": [
        {
          "internalType": "uint256",
          "name": "",
          "type": "uint256"
        }
      ],
      "stateMutability": "view",
      "type": "function"
    },
    {
      "inputs": [
        {
          "internalType": "address",
          "name": "to",
          "type": "address"
        },
        {
          "internalType": "uint256",
          "name": "amount",
          "type": "uint256"
        }
      ],
      "name": "transfer",
      "outputs": [
        {
          "internalType": "bool",
          "name": "",
          "type": "bool"
        }
      ],
      "stateMutability": "nonpayable",
      "type": "function"
    },
    {
      "inputs": [
        {
          "internalType": "address",
          "name": "from",
          "type": "address"
        },
        {
          "internalType": "address",
          "name": "to",
          "type": "address"
        },
        {
          "internalType": "uint256",
          "name": "amount",
          "type": "uint256"
        }
      ],
      "name": "transferFrom",
      "outputs": [
        {
          "internalType": "bool",
          "name": "",
          "type": "bool"
        }
      ],
      "stateMutability": "nonpayable",
      "type": "function"
    },
    {
      "inputs": [],
      "name": "updateRewardPool",
      "outputs": [],
      "stateMutability": "nonpayable",
      "type": "function"
    }
  ],
  "numDeployments": 1,
  "solcInputHash": "f21cd953de572bbeee60b2afd0a705d7",
  "bytecode": "0x6080806040523461001657611b67908161001c8239f35b600080fdfe608060408181526004918236101561001657600080fd5b600090813560e01c90816303ee9f2214610f3f5750806306fdde0314610e99578063095ea7b314610e6f57806314c376dc14610e3457806318160ddd14610e1557806323b872dd14610dda578063313ce56714610dbe57806331d7a26214610d985780633950935114610d485780633d6aa5e114610d2757806340c10f1914610bbc57806342966c6814610aec578063604ef2e514610acd57806366666aa914610a9457806370a0823114610a5057806381028dde14610a3357806387ee8c4c1461092c5780638ae39cac1461090d57806395d89b41146108305780639dc29fac1461077d578063a457c2d7146106d8578063a59bed5814610683578063a9059cbb14610652578063ab6a8b0214610636578063c4d66de81461023f578063d539139314610216578063dc97e84e146101db578063dd62ed3e1461018e5763eeba3c3f1461016357600080fd5b3461018b578160031936011261018b57506101846020926024359035611159565b9051908152f35b80fd5b5090346101d757806003193601126101d757806020926101ac610fad565b6101b4610fc8565b6001600160a01b0391821683526035865283832091168252845220549051908152f35b5080fd5b5090346101d757816003193601126101d757602090517f9a9aef7c1247d5fc769b0185c052913e39673da29a880317dfd20ebf86f26a498152f35b5090346101d757816003193601126101d75760209051600080516020611af28339815191528152f35b509134610632576020908160031936011261062e5761025c610fad565b9284549160ff8360081c161590818092610621575b801561060a575b156105b057600193828560ff19831617895561059f575b50825161029b81610fde565b6013815272537461626c65556e6974204555524f2050726f60681b8682015283516102c581610fde565b600681526545555250726f60d01b878201526102f060ff8a5460081c166102eb81611096565b611096565b81516001600160401b03939084811161058c578061030f60375461159c565b94601f9586811161053a575b508a908d8784116001146104d757926104cc575b5050600019600383901b1c191690881b176037555b81519384116104b9575090829161035c60385461159c565b828111610468575b50879183116001146104075789926103fc575b5050600019600383901b1c191690841b176038555b85549461039e60ff8760081c16611096565b606880546001600160a01b0319166001600160a01b03929092169190911790556103c6578480f35b7f7f26b83ff96e1f2b6a682f133852f6798a09c465da95921460cefb38474024989361ff001916855551908152a1388080808480f35b015190503880610377565b60388a52878a208794509190601f1984168b5b8a8282106104525750508411610439575b505050811b0160385561038c565b015160001960f88460031b161c1916905538808061042b565b8385015186558a9790950194938401930161041a565b9091925060388a52878a208380860160051c8201928a87106104b0575b9186958a929594930160051c01915b8281106104a2575050610364565b8c8155869550899101610494565b92508192610485565b634e487b7160e01b8a5260419052602489fd5b01519050388061032f565b603781528c81208c9550929190601f198516908e5b828210610523575050841161050a575b505050811b01603755610344565b015160001960f88460031b161c191690553880806104fc565b8385015186558e979095019493840193018e6104ec565b90915060378d528a8d208680850160051c8201928d8610610583575b859493910160051c909101908b908f5b8382106105755750505061031b565b81558594508c91018f610566565b92508192610556565b634e487b7160e01b8b526041825260248bfd5b61ffff19166101011787553861028f565b825162461bcd60e51b8152908101859052602e60248201527f496e697469616c697a61626c653a20636f6e747261637420697320616c72656160448201526d191e481a5b9a5d1a585b1a5e995960921b6064820152608490fd5b50303b1580156102785750600160ff851614610278565b50600160ff851610610271565b8380fd5b8280fd5b503461018b578060031936011261018b5761064f61119f565b80f35b5090346101d757806003193601126101d75760209061067c610672610fad565b6024359033611676565b5160018152f35b5090346101d75760203660031901126101d75760609181906001600160a01b036106ab610fad565b1681526034602052209081549160ff60026001830154920154169082519384526020840152151590820152f35b5082903461018b578260031936011261018b576106f3610fad565b918360243592338152603560205281812060018060a01b038616825260205220549082821061072c5760208561067c858503873361197f565b608490602086519162461bcd60e51b8352820152602560248201527f45524332303a2064656372656173656420616c6c6f77616e63652062656c6f77604482015264207a65726f60d81b6064820152fd5b509134610632578160031936011261063257610797610fad565b906020600080516020611af2833981519152604460018060a01b03606854169386519485938492632474521560e21b84528301523360248301525afa928315610827575061064f926107f09185916107f9575b5061104a565b6024359061184b565b61081a915060203d8111610820575b610812818361100f565b810190611032565b386107ea565b503d610808565b513d85823e3d90fd5b5090346101d757816003193601126101d757805190826038546108528161159c565b808552906001908181169081156108e5575060011461088c575b50505061087e8261088894038361100f565b5191829182610f64565b0390f35b60388352602095507f38395c5dceade9603479b177b68959049485df8aa97b39f3533039af5f4561995b8284106108d257505050826108889461087e928201019461086c565b80548685018801529286019281016108b6565b610888975061087e9450602092508693915060ff191682840152151560051b8201019461086c565b5090346101d757816003193601126101d7576020906039549051908152f35b5091346106325781600319360112610632576024356001600160401b0381169282359291849003610a2f57834310156109d657505061098c61099c9161097061119f565b61097b8130336115d6565b5084603a54806109a5575b5061112c565b61099643846110f6565b90611139565b603955603a5580f35b80915043106000146109cf576109c9906109c36039549143906110f6565b90611119565b38610986565b50846109c9565b906020608492519162461bcd60e51b8352820152602d60248201527f456e64426c6f636b2073686f756c642062652067726561746572207468616e2060448201526c63757272656e7420626c6f636b60981b6064820152fd5b8480fd5b5090346101d757816003193601126101d75760209061018461153c565b5090346101d75760203660031901126101d757610184602092610a8e83610a75610fad565b6001600160a01b0381168452603487529220549161134f565b9061112c565b503461018b578060031936011261018b575060335481516001600160801b038216815260809190911c6001600160401b03166020820152f35b5090346101d757816003193601126101d757602090603a549051908152f35b50919034610632576020366003190112610632576068548151632474521560e21b815283810185905233602482015290602090829060449082906001600160a01b03165afa908115610bb2578491610b94575b5015610b51575061064f90353361184b565b906020606492519162461bcd60e51b8352820152601d60248201527f5375417574683a206f6e6c794f776e657220415554485f4641494c45440000006044820152fd5b610bac915060203d811161082057610812818361100f565b38610b3f565b82513d86823e3d90fd5b50919034610632578060031936011261063257610bd7610fad565b906024359060018060a01b039283606854169382518095632474521560e21b8252600080516020611af28339815191528883015233602483015281604460209889935afa908115610d1d5790610c33918991610d06575061104a565b8116948515610cc3575091859391610c59600080516020611b1283398151915294611a81565b610c658260365461112c565b60365585855260348352808520610c7d83825461112c565b905585855260348352610cad64e8d4a51000610ca78388205460018060801b036033541690611119565b046114d5565b868652603484526001828720015551908152a380f35b825162461bcd60e51b8152908101859052601f60248201527f45524332303a206d696e7420746f20746865207a65726f2061646472657373006044820152606490fd5b61081a9150873d891161082057610812818361100f565b84513d8a823e3d90fd5b5090346101d757816003193601126101d75760209051655af3107a40008152f35b5090346101d757806003193601126101d75761067c602092610d91610d6b610fad565b338352603586528483206001600160a01b0382168452865291849020546024359061112c565b903361197f565b5090346101d75760203660031901126101d757602090610184610db9610fad565b61134f565b5090346101d757816003193601126101d7576020905160128152f35b5090346101d75760603660031901126101d757602090610e0c610dfb610fad565b610e03610fc8565b604435916115d6565b90519015158152f35b5090346101d757816003193601126101d7576020906036549051908152f35b5090346101d757816003193601126101d757602090517fe965846df3dd5b1dfa65f58e31477079e90140e0908b6dd31b5aead5a57cf3658152f35b5090346101d757806003193601126101d75760209061067c610e8f610fad565b602435903361197f565b5090346101d757816003193601126101d75780519082603754610ebb8161159c565b808552906001908181169081156108e55750600114610ee65750505061087e8261088894038361100f565b60378352602095507f42a7b7dd785cd69714a189dffb3fd7d7174edc9ece837694ce50f7078f7c31ae5b828410610f2c57505050826108889461087e928201019461086c565b8054868501880152928601928101610f10565b9050346101d757816003193601126101d7576068546001600160a01b03168152602090f35b6020808252825181830181905290939260005b828110610f9957505060409293506000838284010152601f8019910116010190565b818101860151848201604001528501610f77565b600435906001600160a01b0382168203610fc357565b600080fd5b602435906001600160a01b0382168203610fc357565b604081019081106001600160401b03821117610ff957604052565b634e487b7160e01b600052604160045260246000fd5b601f909101601f19168101906001600160401b03821190821017610ff957604052565b90816020910312610fc357518015158103610fc35790565b1561105157565b60405162461bcd60e51b815260206004820152601e60248201527f5375417574683a206f6e6c794d696e74657220415554485f4641494c454400006044820152606490fd5b1561109d57565b60405162461bcd60e51b815260206004820152602b60248201527f496e697469616c697a61626c653a20636f6e7472616374206973206e6f74206960448201526a6e697469616c697a696e6760a81b6064820152608490fd5b9190820391821161110357565b634e487b7160e01b600052601160045260246000fd5b8181029291811591840414171561110357565b9190820180921161110357565b8115611143570490565b634e487b7160e01b600052601260045260246000fd5b603a5490919082811161116e57505050600090565b80821015611190575061118d91611184916110f6565b60395490611119565b90565b61118491509161118d926110f6565b6033546001600160401b0390608081901c82164381106111be57505050565b6111d26036546111cc611314565b906110f6565b908161125c575b50505043116112085760338054600160801b600160c01b0319164360801b600160801b600160c01b0316179055565b60405162461bcd60e51b815260206004820152602660248201527f53616665436173743a2076616c756520646f65736e27742066697420696e203660448201526534206269747360d01b6064820152608490fd5b611267904390611159565b9064e8d4a51000918281029281840414901517156111035761128891611139565b6001600160801b03908181116112bf57811681831601818111611103576001600160801b03199092169116176033553880806111d9565b60405162461bcd60e51b815260206004820152602760248201527f53616665436173743a2076616c756520646f65736e27742066697420696e20316044820152663238206269747360c81b6064820152608490fd5b603a548043116113305761118d906109c36039549143906110f6565b50600090565b8181039291600013801582851316918412161761110357565b61135d6036546111cc611314565b90811561147f576033546001600160401b0392906001600160801b0381169060801c8416438110611449575b50905060009160018060a01b031682526034602052604082209260405190606082019082821090821117611435576113ef9264e8d4a5100092610ca792604052865490818152604060ff600260018b01549a602085019b8c520154161515910152611119565b9161140c611407655af3107a40009485935190611336565b611486565b04828102928184041490151715611421575090565b634e487b7160e01b81526011600452602490fd5b634e487b7160e01b84526041600452602484fd5b611454904390611159565b64e8d4a51000908181029181830414901517156111035761147892610a8e91611139565b8038611389565b5050600090565b600081126114915790565b606460405162461bcd60e51b815260206004820152602060248201527f53616665436173743a2076616c7565206d75737420626520706f7369746976656044820152fd5b6001600160ff1b0381116114e65790565b60405162461bcd60e51b815260206004820152602860248201527f53616665436173743a2076616c756520646f65736e27742066697420696e2061604482015267371034b73a191a9b60c11b6064820152608490fd5b603a544311611597576115536036546111cc611314565b6039549062201480918281029281840414811517156111035766de99aa8b27b3c160191b0291808304670de0b6b3a764000014901517156111035761118d91611139565b600090565b90600182811c921680156115cc575b60208310146115b657565b634e487b7160e01b600052602260045260246000fd5b91607f16916115ab565b919060018060a01b0383166000526035602052604060002033600052602052604060002054926000198403611615575b6116109350611676565b600190565b8284106116315761162c836116109503338361197f565b611606565b60405162461bcd60e51b815260206004820152601d60248201527f45524332303a20696e73756666696369656e7420616c6c6f77616e63650000006044820152606490fd5b9192916001600160a01b03808216919082156117f85783169283156117a7576116a16116a692611a81565b611a81565b6000938185526020906034825260408087205496828810611754578285969798600080516020611b1283398151915296835260348652038282205560018261174281842054610ca764e8d4a510009161170c83878060801b0392836033541602046114d5565b8c885260348b528686892001558c875284872061172a8a825461112c565b90558c875260348a5284872054906033541690611119565b928981526034875220015551908152a3565b815162461bcd60e51b815260048101859052602660248201527f45524332303a207472616e7366657220616d6f756e7420657863656564732062604482015265616c616e636560d01b6064820152608490fd5b60405162461bcd60e51b815260206004820152602360248201527f45524332303a207472616e7366657220746f20746865207a65726f206164647260448201526265737360e81b6064820152608490fd5b60405162461bcd60e51b815260206004820152602560248201527f45524332303a207472616e736665722066726f6d20746865207a65726f206164604482015264647265737360d81b6064820152608490fd5b6001600160a01b0381169081156119305761186590611a81565b60009181835260346020526040808420548281106118e1579160209181600080516020611b12833981519152948688526034855203818720556118bd64e8d4a510008288205460018060801b036033541602046114d5565b85875260348452600182882001556118d7826036546110f6565b60365551908152a3565b815162461bcd60e51b815260206004820152602260248201527f45524332303a206275726e20616d6f756e7420657863656564732062616c616e604482015261636560f01b6064820152608490fd5b60405162461bcd60e51b815260206004820152602160248201527f45524332303a206275726e2066726f6d20746865207a65726f206164647265736044820152607360f81b6064820152608490fd5b6001600160a01b03908116918215611a3057169182156119e05760207f8c5be1e5ebec7d5bd14f71427d1e84f3dd0314c0f7b2291e5b200ac8c7c3b925918360005260358252604060002085600052825280604060002055604051908152a3565b60405162461bcd60e51b815260206004820152602260248201527f45524332303a20617070726f766520746f20746865207a65726f206164647265604482015261737360f01b6064820152608490fd5b60405162461bcd60e51b8152602060048201526024808201527f45524332303a20617070726f76652066726f6d20746865207a65726f206164646044820152637265737360e01b6064820152608490fd5b6001600160a01b03166000908152603460205260409020611aa061119f565b611aed815491610ca764e8d4a510009160018060801b03611ae0611acc85610ca784603354168a611119565b96610a8e61140760018601998a5490611336565b8092556033541690611119565b905556fe9f2df0fed2c77648de5860a4cc508cd0818c85b8b8a1ab4ceeef8d981c8956a6ddf252ad1be2c89b69c2b068fc378daa952ba7f163c4a11628f55a4df523b3efa2646970667358221220683e4111a66e95827581b8e50f48945a26f19099bc48015494abb2ab23a821fd64736f6c63430008110033",
  "devdoc": {
    "kind": "dev",
    "methods": {
      "allowance(address,address)": {
        "details": "See {IERC20-allowance}."
      },
      "approve(address,uint256)": {
        "details": "See {IERC20-approve}. NOTE: If `amount` is the maximum `uint256`, the allowance is not updated on `transferFrom`. This is semantically equivalent to an infinite approval. Requirements: - `spender` cannot be the zero address."
      },
      "balanceOf(address)": {
        "details": "See {IERC20-balanceOf}."
      },
      "decimals()": {
        "details": "Returns the number of decimals used to get its user representation. For example, if `decimals` equals `2`, a balance of `505` tokens should be displayed to a user as `5.05` (`505 / 10 ** 2`). Tokens usually opt for a value of 18, imitating the relationship between Ether and Wei. This is the value {ERC20} uses, unless this function is overridden; NOTE: This information is only used for _display_ purposes: it in no way affects any of the arithmetic of the contract, including {IERC20-balanceOf} and {IERC20-transfer}."
      },
      "decreaseAllowance(address,uint256)": {
        "details": "Atomically decreases the allowance granted to `spender` by the caller. This is an alternative to {approve} that can be used as a mitigation for problems described in {IERC20-approve}. Emits an {Approval} event indicating the updated allowance. Requirements: - `spender` cannot be the zero address. - `spender` must have allowance for the caller of at least `subtractedValue`."
      },
      "increaseAllowance(address,uint256)": {
        "details": "Atomically increases the allowance granted to `spender` by the caller. This is an alternative to {approve} that can be used as a mitigation for problems described in {IERC20-approve}. Emits an {Approval} event indicating the updated allowance. Requirements: - `spender` cannot be the zero address."
      },
      "mint(address,uint256)": {
        "details": "Mints 'amount' of tokens to address 'to', and MUST fire the Transfer event",
        "params": {
          "amount": "The amount of token to be minted*",
          "to": "The address of the recipient"
        }
      },
      "name()": {
        "details": "Returns the name of the token."
      },
      "rewardsBetweenBlocks(uint256,uint256)": {
        "details": "returns total amount of rewards allocated to the all pools on the rage (startBlock, endBlock]      i.e. excluding startBlock but including endBlock"
      },
      "symbol()": {
        "details": "Returns the symbol of the token, usually a shorter version of the name."
      },
      "totalSupply()": {
        "details": "See {IERC20-totalSupply}."
      },
      "transfer(address,uint256)": {
        "details": "See {IERC20-transfer}. Requirements: - `to` cannot be the zero address. - the caller must have a balance of at least `amount`."
      },
      "transferFrom(address,address,uint256)": {
        "details": "See {IERC20-transferFrom}. Emits an {Approval} event indicating the updated allowance. This is not required by the EIP. See the note at the beginning of {ERC20}. NOTE: Does not update the allowance if the current allowance is the maximum `uint256`. Requirements: - `from` and `to` cannot be the zero address. - `from` must have a balance of at least `amount`. - the caller must have allowance for ``from``'s tokens of at least `amount`."
      }
    },
    "version": 1
  },
  "userdoc": {
    "kind": "user",
    "methods": {
      "mint(address,uint256)": {
        "notice": "Only Vault can mint StablePro"
      }
    },
    "version": 1
  },
  "storageLayout": {
    "storage": [
      {
        "astId": 461,
        "contract": "contracts/StablePro.sol:StablePro",
        "label": "_initialized",
        "offset": 0,
        "slot": "0",
        "type": "t_uint8"
      },
      {
        "astId": 464,
        "contract": "contracts/StablePro.sol:StablePro",
        "label": "_initializing",
        "offset": 1,
        "slot": "0",
        "type": "t_bool"
      },
      {
        "astId": 1593,
        "contract": "contracts/StablePro.sol:StablePro",
        "label": "__gap",
        "offset": 0,
        "slot": "1",
        "type": "t_array(t_uint256)50_storage"
      },
      {
        "astId": 10557,
        "contract": "contracts/StablePro.sol:StablePro",
        "label": "rewardPool",
        "offset": 0,
        "slot": "51",
        "type": "t_struct(IRewardPool)10548_storage"
      },
      {
        "astId": 10562,
        "contract": "contracts/StablePro.sol:StablePro",
        "label": "_accounts",
        "offset": 0,
        "slot": "52",
        "type": "t_mapping(t_address,t_struct(IAccount)10543_storage)"
      },
      {
        "astId": 10568,
        "contract": "contracts/StablePro.sol:StablePro",
        "label": "_allowances",
        "offset": 0,
        "slot": "53",
        "type": "t_mapping(t_address,t_mapping(t_address,t_uint256))"
      },
      {
        "astId": 10570,
        "contract": "contracts/StablePro.sol:StablePro",
        "label": "_totalSupply",
        "offset": 0,
        "slot": "54",
        "type": "t_uint256"
      },
      {
        "astId": 10572,
        "contract": "contracts/StablePro.sol:StablePro",
        "label": "_name",
        "offset": 0,
        "slot": "55",
        "type": "t_string_storage"
      },
      {
        "astId": 10574,
        "contract": "contracts/StablePro.sol:StablePro",
        "label": "_symbol",
        "offset": 0,
        "slot": "56",
        "type": "t_string_storage"
      },
      {
        "astId": 10576,
        "contract": "contracts/StablePro.sol:StablePro",
        "label": "rewardPerBlock",
        "offset": 0,
        "slot": "57",
        "type": "t_uint256"
      },
      {
        "astId": 10578,
        "contract": "contracts/StablePro.sol:StablePro",
        "label": "rewardEndBlock",
        "offset": 0,
        "slot": "58",
        "type": "t_uint256"
      },
      {
        "astId": 11642,
        "contract": "contracts/StablePro.sol:StablePro",
        "label": "__gap",
        "offset": 0,
        "slot": "59",
        "type": "t_array(t_uint256)45_storage"
      },
      {
        "astId": 8364,
        "contract": "contracts/StablePro.sol:StablePro",
        "label": "ACCESS_CONTROL_SINGLETON",
        "offset": 0,
        "slot": "104",
        "type": "t_contract(ISuAccessControl)11891"
      }
    ],
    "types": {
      "t_address": {
        "encoding": "inplace",
        "label": "address",
        "numberOfBytes": "20"
      },
      "t_array(t_uint256)45_storage": {
        "base": "t_uint256",
        "encoding": "inplace",
        "label": "uint256[45]",
        "numberOfBytes": "1440"
      },
      "t_array(t_uint256)50_storage": {
        "base": "t_uint256",
        "encoding": "inplace",
        "label": "uint256[50]",
        "numberOfBytes": "1600"
      },
      "t_bool": {
        "encoding": "inplace",
        "label": "bool",
        "numberOfBytes": "1"
      },
      "t_contract(ISuAccessControl)11891": {
        "encoding": "inplace",
        "label": "contract ISuAccessControl",
        "numberOfBytes": "20"
      },
      "t_int256": {
        "encoding": "inplace",
        "label": "int256",
        "numberOfBytes": "32"
      },
      "t_mapping(t_address,t_mapping(t_address,t_uint256))": {
        "encoding": "mapping",
        "key": "t_address",
        "label": "mapping(address => mapping(address => uint256))",
        "numberOfBytes": "32",
        "value": "t_mapping(t_address,t_uint256)"
      },
      "t_mapping(t_address,t_struct(IAccount)10543_storage)": {
        "encoding": "mapping",
        "key": "t_address",
        "label": "mapping(address => struct GainableERC20v3Upgradeable.IAccount)",
        "numberOfBytes": "32",
        "value": "t_struct(IAccount)10543_storage"
      },
      "t_mapping(t_address,t_uint256)": {
        "encoding": "mapping",
        "key": "t_address",
        "label": "mapping(address => uint256)",
        "numberOfBytes": "32",
        "value": "t_uint256"
      },
      "t_string_storage": {
        "encoding": "bytes",
        "label": "string",
        "numberOfBytes": "32"
      },
      "t_struct(IAccount)10543_storage": {
        "encoding": "inplace",
        "label": "struct GainableERC20v3Upgradeable.IAccount",
        "members": [
          {
            "astId": 10538,
            "contract": "contracts/StablePro.sol:StablePro",
            "label": "balance",
            "offset": 0,
            "slot": "0",
            "type": "t_uint256"
          },
          {
            "astId": 10540,
            "contract": "contracts/StablePro.sol:StablePro",
            "label": "rewardDebt",
            "offset": 0,
            "slot": "1",
            "type": "t_int256"
          },
          {
            "astId": 10542,
            "contract": "contracts/StablePro.sol:StablePro",
            "label": "isGainDisabled",
            "offset": 0,
            "slot": "2",
            "type": "t_bool"
          }
        ],
        "numberOfBytes": "96"
      },
      "t_struct(IRewardPool)10548_storage": {
        "encoding": "inplace",
        "label": "struct GainableERC20v3Upgradeable.IRewardPool",
        "members": [
          {
            "astId": 10545,
            "contract": "contracts/StablePro.sol:StablePro",
            "label": "accRewardPerShare",
            "offset": 0,
            "slot": "0",
            "type": "t_uint128"
          },
          {
            "astId": 10547,
            "contract": "contracts/StablePro.sol:StablePro",
            "label": "lastRewardBlock",
            "offset": 16,
            "slot": "0",
            "type": "t_uint64"
          }
        ],
        "numberOfBytes": "32"
      },
      "t_uint128": {
        "encoding": "inplace",
        "label": "uint128",
        "numberOfBytes": "16"
      },
      "t_uint256": {
        "encoding": "inplace",
        "label": "uint256",
        "numberOfBytes": "32"
      },
      "t_uint64": {
        "encoding": "inplace",
        "label": "uint64",
        "numberOfBytes": "8"
      },
      "t_uint8": {
        "encoding": "inplace",
        "label": "uint8",
        "numberOfBytes": "1"
      }
    }
  }
}