{
  "address": "0x20452B90CD1057614479CeDc22509E304D47909E",
  "abi": [
    {
      "inputs": [],
      "name": "BadAccessControlSingleton",
      "type": "error"
    },
    {
      "inputs": [],
      "name": "BadEndBlock",
      "type": "error"
    },
    {
      "inputs": [],
      "name": "OnlyAdminError",
      "type": "error"
    },
    {
      "inputs": [],
      "name": "OnlyAlerterError",
      "type": "error"
    },
    {
      "inputs": [],
      "name": "OnlyCDPAccessError",
      "type": "error"
    },
    {
      "inputs": [],
      "name": "OnlyDAOError",
      "type": "error"
    },
    {
      "inputs": [],
      "name": "OnlyDisablerAccessError",
      "type": "error"
    },
    {
      "inputs": [],
      "name": "OnlyLiquidationAccessError",
      "type": "error"
    },
    {
      "inputs": [],
      "name": "OnlyMintAccessError",
      "type": "error"
    },
    {
      "inputs": [],
      "name": "OnlyProxyActionsError",
      "type": "error"
    },
    {
      "inputs": [],
      "name": "OnlyRewardAccessError",
      "type": "error"
    },
    {
      "inputs": [],
      "name": "OnlyRoleError",
      "type": "error"
    },
    {
      "inputs": [],
      "name": "OnlyVaultAccessError",
      "type": "error"
    },
    {
      "inputs": [],
      "name": "OnlyVotingEscrowError",
      "type": "error"
    },
    {
      "anonymous": false,
      "inputs": [
        {
          "indexed": true,
          "internalType": "address",
          "name": "owner",
          "type": "address"
        },
        {
          "indexed": true,
          "internalType": "address",
          "name": "spender",
          "type": "address"
        },
        {
          "indexed": false,
          "internalType": "uint256",
          "name": "value",
          "type": "uint256"
        }
      ],
      "name": "Approval",
      "type": "event"
    },
    {
      "anonymous": false,
      "inputs": [
        {
          "indexed": false,
          "internalType": "uint8",
          "name": "version",
          "type": "uint8"
        }
      ],
      "name": "Initialized",
      "type": "event"
    },
    {
      "anonymous": false,
      "inputs": [
        {
          "indexed": true,
          "internalType": "address",
          "name": "from",
          "type": "address"
        },
        {
          "indexed": true,
          "internalType": "address",
          "name": "to",
          "type": "address"
        },
        {
          "indexed": false,
          "internalType": "uint256",
          "name": "value",
          "type": "uint256"
        }
      ],
      "name": "Transfer",
      "type": "event"
    },
    {
      "inputs": [],
      "name": "ACCESS_CONTROL_SINGLETON",
      "outputs": [
        {
          "internalType": "contract ISuAccessControl",
          "name": "",
          "type": "address"
        }
      ],
      "stateMutability": "view",
      "type": "function"
    },
    {
      "inputs": [],
      "name": "ADMIN_ROLE",
      "outputs": [
        {
          "internalType": "bytes32",
          "name": "",
          "type": "bytes32"
        }
      ],
      "stateMutability": "view",
      "type": "function"
    },
    {
      "inputs": [],
      "name": "ALERTER_ROLE",
      "outputs": [
        {
          "internalType": "bytes32",
          "name": "",
          "type": "bytes32"
        }
      ],
      "stateMutability": "view",
      "type": "function"
    },
    {
      "inputs": [],
      "name": "CDP_ACCESS_ROLE",
      "outputs": [
        {
          "internalType": "bytes32",
          "name": "",
          "type": "bytes32"
        }
      ],
      "stateMutability": "view",
      "type": "function"
    },
    {
      "inputs": [],
      "name": "DAO_ROLE",
      "outputs": [
        {
          "internalType": "bytes32",
          "name": "",
          "type": "bytes32"
        }
      ],
      "stateMutability": "view",
      "type": "function"
    },
    {
      "inputs": [],
      "name": "DISABLER_ROLE",
      "outputs": [
        {
          "internalType": "bytes32",
          "name": "",
          "type": "bytes32"
        }
      ],
      "stateMutability": "view",
      "type": "function"
    },
    {
      "inputs": [],
      "name": "LIQUIDATION_ACCESS_ROLE",
      "outputs": [
        {
          "internalType": "bytes32",
          "name": "",
          "type": "bytes32"
        }
      ],
      "stateMutability": "view",
      "type": "function"
    },
    {
      "inputs": [],
      "name": "MINT_ACCESS_ROLE",
      "outputs": [
        {
          "internalType": "bytes32",
          "name": "",
          "type": "bytes32"
        }
      ],
      "stateMutability": "view",
      "type": "function"
    },
    {
      "inputs": [],
      "name": "PROXY_ACTIONS_ROLE",
      "outputs": [
        {
          "internalType": "bytes32",
          "name": "",
          "type": "bytes32"
        }
      ],
      "stateMutability": "view",
      "type": "function"
    },
    {
      "inputs": [],
      "name": "REWARD_ACCESS_ROLE",
      "outputs": [
        {
          "internalType": "bytes32",
          "name": "",
          "type": "bytes32"
        }
      ],
      "stateMutability": "view",
      "type": "function"
    },
    {
      "inputs": [],
      "name": "REWARD_PRECISION",
      "outputs": [
        {
          "internalType": "uint256",
          "name": "",
          "type": "uint256"
        }
      ],
      "stateMutability": "view",
      "type": "function"
    },
    {
      "inputs": [],
      "name": "VOTING_ESCROW_ROLE",
      "outputs": [
        {
          "internalType": "bytes32",
          "name": "",
          "type": "bytes32"
        }
      ],
      "stateMutability": "view",
      "type": "function"
    },
    {
      "inputs": [
        {
          "internalType": "address",
          "name": "",
          "type": "address"
        }
      ],
      "name": "_accounts",
      "outputs": [
        {
          "internalType": "uint256",
          "name": "balance",
          "type": "uint256"
        },
        {
          "internalType": "int256",
          "name": "rewardDebt",
          "type": "int256"
        },
        {
          "internalType": "address",
          "name": "redirectYieldTo",
          "type": "address"
        }
      ],
      "stateMutability": "view",
      "type": "function"
    },
    {
      "inputs": [
        {
          "internalType": "address",
          "name": "owner",
          "type": "address"
        },
        {
          "internalType": "address",
          "name": "spender",
          "type": "address"
        }
      ],
      "name": "allowance",
      "outputs": [
        {
          "internalType": "uint256",
          "name": "",
          "type": "uint256"
        }
      ],
      "stateMutability": "view",
      "type": "function"
    },
    {
      "inputs": [
        {
          "internalType": "address",
          "name": "spender",
          "type": "address"
        },
        {
          "internalType": "uint256",
          "name": "amount",
          "type": "uint256"
        }
      ],
      "name": "approve",
      "outputs": [
        {
          "internalType": "bool",
          "name": "",
          "type": "bool"
        }
      ],
      "stateMutability": "nonpayable",
      "type": "function"
    },
    {
      "inputs": [
        {
          "internalType": "address",
          "name": "account",
          "type": "address"
        }
      ],
      "name": "balanceOf",
      "outputs": [
        {
          "internalType": "uint256",
          "name": "",
          "type": "uint256"
        }
      ],
      "stateMutability": "view",
      "type": "function"
    },
    {
      "inputs": [
        {
          "internalType": "uint256",
          "name": "amount",
          "type": "uint256"
        }
      ],
      "name": "burn",
      "outputs": [],
      "stateMutability": "nonpayable",
      "type": "function"
    },
    {
      "inputs": [
        {
          "internalType": "address",
          "name": "from",
          "type": "address"
        },
        {
          "internalType": "uint256",
          "name": "amount",
          "type": "uint256"
        }
      ],
      "name": "burn",
      "outputs": [],
      "stateMutability": "nonpayable",
      "type": "function"
    },
    {
      "inputs": [],
      "name": "cancelRedirectYieldAndHarvest",
      "outputs": [],
      "stateMutability": "nonpayable",
      "type": "function"
    },
    {
      "inputs": [],
      "name": "decimals",
      "outputs": [
        {
          "internalType": "uint8",
          "name": "",
          "type": "uint8"
        }
      ],
      "stateMutability": "view",
      "type": "function"
    },
    {
      "inputs": [
        {
          "internalType": "address",
          "name": "spender",
          "type": "address"
        },
        {
          "internalType": "uint256",
          "name": "subtractedValue",
          "type": "uint256"
        }
      ],
      "name": "decreaseAllowance",
      "outputs": [
        {
          "internalType": "bool",
          "name": "",
          "type": "bool"
        }
      ],
      "stateMutability": "nonpayable",
      "type": "function"
    },
    {
      "inputs": [],
      "name": "getTotalRewardsSinceLastUpdate",
      "outputs": [
        {
          "internalType": "uint256",
          "name": "",
          "type": "uint256"
        }
      ],
      "stateMutability": "view",
      "type": "function"
    },
    {
      "inputs": [],
      "name": "getYieldAPR",
      "outputs": [
        {
          "internalType": "uint256",
          "name": "",
          "type": "uint256"
        }
      ],
      "stateMutability": "view",
      "type": "function"
    },
    {
      "inputs": [
        {
          "internalType": "address",
          "name": "account",
          "type": "address"
        }
      ],
      "name": "harvest",
      "outputs": [],
      "stateMutability": "nonpayable",
      "type": "function"
    },
    {
      "inputs": [
        {
          "internalType": "address",
          "name": "spender",
          "type": "address"
        },
        {
          "internalType": "uint256",
          "name": "addedValue",
          "type": "uint256"
        }
      ],
      "name": "increaseAllowance",
      "outputs": [
        {
          "internalType": "bool",
          "name": "",
          "type": "bool"
        }
      ],
      "stateMutability": "nonpayable",
      "type": "function"
    },
    {
      "inputs": [
        {
          "internalType": "address",
          "name": "_authControl",
          "type": "address"
        }
      ],
      "name": "initialize",
      "outputs": [],
      "stateMutability": "nonpayable",
      "type": "function"
    },
    {
      "inputs": [
        {
          "internalType": "address",
          "name": "to",
          "type": "address"
        },
        {
          "internalType": "uint256",
          "name": "amount",
          "type": "uint256"
        }
      ],
      "name": "mint",
      "outputs": [],
      "stateMutability": "nonpayable",
      "type": "function"
    },
    {
      "inputs": [],
      "name": "name",
      "outputs": [
        {
          "internalType": "string",
          "name": "",
          "type": "string"
        }
      ],
      "stateMutability": "view",
      "type": "function"
    },
    {
      "inputs": [
        {
          "internalType": "address",
          "name": "account",
          "type": "address"
        }
      ],
      "name": "pendingRewards",
      "outputs": [
        {
          "internalType": "uint256",
          "name": "",
          "type": "uint256"
        }
      ],
      "stateMutability": "view",
      "type": "function"
    },
    {
      "inputs": [
        {
          "internalType": "address",
          "name": "to",
          "type": "address"
        }
      ],
      "name": "redirectYieldAndHarvest",
      "outputs": [],
      "stateMutability": "nonpayable",
      "type": "function"
    },
    {
      "inputs": [
        {
          "internalType": "address",
          "name": "from",
          "type": "address"
        },
        {
          "internalType": "address",
          "name": "to",
          "type": "address"
        }
      ],
      "name": "redirectYieldAndHarvestByDAO",
      "outputs": [],
      "stateMutability": "nonpayable",
      "type": "function"
    },
    {
      "inputs": [
        {
          "internalType": "uint256",
          "name": "amount",
          "type": "uint256"
        },
        {
          "internalType": "uint64",
          "name": "endBlock",
          "type": "uint64"
        }
      ],
      "name": "refillReward",
      "outputs": [],
      "stateMutability": "nonpayable",
      "type": "function"
    },
    {
      "inputs": [],
      "name": "rewardEndBlock",
      "outputs": [
        {
          "internalType": "uint256",
          "name": "",
          "type": "uint256"
        }
      ],
      "stateMutability": "view",
      "type": "function"
    },
    {
      "inputs": [],
      "name": "rewardPerBlock",
      "outputs": [
        {
          "internalType": "uint256",
          "name": "",
          "type": "uint256"
        }
      ],
      "stateMutability": "view",
      "type": "function"
    },
    {
      "inputs": [],
      "name": "rewardPool",
      "outputs": [
        {
          "internalType": "uint128",
          "name": "accRewardPerShare",
          "type": "uint128"
        },
        {
          "internalType": "uint64",
          "name": "lastRewardBlock",
          "type": "uint64"
        }
      ],
      "stateMutability": "view",
      "type": "function"
    },
    {
      "inputs": [
        {
          "internalType": "bytes4",
          "name": "interfaceId",
          "type": "bytes4"
        }
      ],
      "name": "supportsInterface",
      "outputs": [
        {
          "internalType": "bool",
          "name": "",
          "type": "bool"
        }
      ],
      "stateMutability": "view",
      "type": "function"
    },
    {
      "inputs": [],
      "name": "symbol",
      "outputs": [
        {
          "internalType": "string",
          "name": "",
          "type": "string"
        }
      ],
      "stateMutability": "view",
      "type": "function"
    },
    {
      "inputs": [],
      "name": "totalSupply",
      "outputs": [
        {
          "internalType": "uint256",
          "name": "",
          "type": "uint256"
        }
      ],
      "stateMutability": "view",
      "type": "function"
    },
    {
      "inputs": [
        {
          "internalType": "address",
          "name": "to",
          "type": "address"
        },
        {
          "internalType": "uint256",
          "name": "amount",
          "type": "uint256"
        }
      ],
      "name": "transfer",
      "outputs": [
        {
          "internalType": "bool",
          "name": "",
          "type": "bool"
        }
      ],
      "stateMutability": "nonpayable",
      "type": "function"
    },
    {
      "inputs": [
        {
          "internalType": "address",
          "name": "from",
          "type": "address"
        },
        {
          "internalType": "address",
          "name": "to",
          "type": "address"
        },
        {
          "internalType": "uint256",
          "name": "amount",
          "type": "uint256"
        }
      ],
      "name": "transferFrom",
      "outputs": [
        {
          "internalType": "bool",
          "name": "",
          "type": "bool"
        }
      ],
      "stateMutability": "nonpayable",
      "type": "function"
    },
    {
      "inputs": [],
      "name": "updateRewardPool",
      "outputs": [],
      "stateMutability": "nonpayable",
      "type": "function"
    }
  ],
  "numDeployments": 5,
  "solcInputHash": "063b59c64b6b03a7efa7d47f22e02344",
  "bytecode": "0x60808060405234610016576120f7908161001c8239f35b600080fdfe608060408181526004918236101561001657600080fd5b600092833560e01c91826301ffc9a71461142d5750816303ee9f221461140457816306fdde031461135e578163095ea7b3146113345781630e5c011e1461131257816318160ddd146112f357816323b872dd14611234578163313ce5671461121857816331d7a262146111f257816339509351146111a25781633d6aa5e11461118157816340c10f191461101757816342966c6814610f8b578163438280dd14610f50578163604ef2e514610f3157816366666aa914610ef75781636c9f018f14610dfe5781636cfd385114610d9757816370a0823114610d1157816371d0fb4114610cd657816375b238fc14610cbb57816381028dde14610c9e57816387ee8c4c14610b6d5781638ae39cac14610b4e5781638e5313e014610b2557816395d89b4114610a485781639dc29fac146109a5578163a457c2d714610900578163a59bed58146108ad578163a9059cbb1461087a578163ab6a8b021461085b578163af163abf14610821578163afba99bd146107fd578163b38234f3146107c2578163bd5f5be614610787578163c4d66de81461030957508063d0e8fa82146102cf578063d2351cee14610295578063dc97e84e1461025b578063dd62ed3e146102135763e9c26518146101e857600080fd5b3461020f578160031936011261020f57602090516000805160206120428339815191528152f35b5080fd5b503461020f578060031936011261020f5780602092610230611505565b610238611520565b6001600160a01b0391821683526036865283832091168252845220549051908152f35b503461020f578160031936011261020f57602090517f9a9aef7c1247d5fc769b0185c052913e39673da29a880317dfd20ebf86f26a498152f35b503461020f578160031936011261020f57602090517fb0fdd1623e42dbffda4acd8bd643e1cb69f00f0e83abeaa8150ee42cf0fd105e8152f35b503461020f578160031936011261020f57602090517f76d0567582f23e1e9d7a13eeba60f9aea9d69b8da87ca27a8bf3698b35c653db8152f35b905034610783576020908160031936011261077f57610326611505565b9284549160ff8360081c161590818092610772575b801561075b575b1561070157600193828560ff1983161789556106f0575b50825161036581611581565b600881526714dbdb59481554d160c21b8682015283519061038582611581565b600782526614dbdb595554d160ca1b878301526103b160ff8a5460081c166103ac81611b1d565b611b1d565b80516001600160401b0392908381116106dd57806103d0603854611b7d565b93601f9485811161068b575b508a908d868411600114610628579261061d575b5050600019600383901b1c191690881b176038555b805192831161060a5790829161041c603954611b7d565b8281116105b9575b5088918311600114610558578a9261054d575b5050600019600383901b1c191690851b176039555b86549561045e60ff8860081c16611b1d565b603380546001600160a01b0319166001600160a01b03929092169182179055801590869082156104dc575b50506104ce5750610498578480f35b7f7f26b83ff96e1f2b6a682f133852f6798a09c465da95921460cefb38474024989361ff001916855551908152a1388080808480f35b82516384d942fd60e01b8152fd5b85516301ffc9a760e01b8152637965db0b60e01b858201529250829060249082905afa908115610543578891610516575b50158538610489565b6105369150863d881161053c575b61052e818361159c565b8101906115bf565b3861050d565b503d610524565b84513d8a823e3d90fd5b015190503880610437565b60398b52888b208894509190601f1984168c5b8b8282106105a3575050841161058a575b505050811b0160395561044c565b015160001960f88460031b161c1916905538808061057c565b8385015186558b9790950194938401930161056b565b9091925060398b52888b208380860160051c8201928b8710610601575b9186958b929594930160051c01915b8281106105f3575050610424565b8d81558695508a91016105e5565b925081926105d6565b634e487b7160e01b8a526041845260248afd5b0151905038806103f0565b603881528c81208c9550929190601f198516908e5b828210610674575050841161065b575b505050811b01603855610405565b015160001960f88460031b161c1916905538808061064d565b8385015186558e979095019493840193018e61063d565b90915060388d528a8d208580850160051c8201928d86106106d4575b859493910160051c909101908b908f5b8382106106c6575050506103dc565b81558594508c91018f6106b7565b925081926106a7565b634e487b7160e01b8b526041855260248bfd5b61ffff191661010117875538610359565b825162461bcd60e51b8152908101859052602e60248201527f496e697469616c697a61626c653a20636f6e747261637420697320616c72656160448201526d191e481a5b9a5d1a585b1a5e995960921b6064820152608490fd5b50303b1580156103425750600160ff851614610342565b50600160ff85161061033b565b8380fd5b8280fd5b50503461020f578160031936011261020f57602090517f4f14c8366fa999817edc9f29824eb88a00cc31225e2156f399da4bc91049eb108152f35b50503461020f578160031936011261020f57602090517fd83f5343da19b478b15a140c301a868be9e02603958f38fbd822b9d5c0a289168152f35b50503461020f578160031936011261020f5760209061081a61167c565b9051908152f35b50503461020f578160031936011261020f576002903383526035602052822061084933611a04565b0180546001600160a01b031916905580f35b83346108775780600319360112610877576108746116de565b80f35b80fd5b50503461020f578060031936011261020f576020906108a6600161089c611505565b6024359033611cc4565b5160018152f35b50503461020f57602036600319011261020f576060916001600160a01b0391908190836108d8611505565b1681526035602052209081549260026001840154930154169181519384526020840152820152f35b9050823461087757826003193601126108775761091b611505565b918360243592338152603660205281812060018060a01b0386168252602052205490828210610954576020856108a68585038733611f0c565b608490602086519162461bcd60e51b8352820152602560248201527f45524332303a2064656372656173656420616c6c6f77616e63652062656c6f77604482015264207a65726f60d81b6064820152fd5b9050346107835781600319360112610783576109bf611505565b6033548351632474521560e21b81529193919060209082906001600160a01b031681806109ee338983016115d7565b03915afa908115610a3e578591610a20575b5015610a13578361087460243585611dd8565b516308ff603760e01b8152fd5b610a38915060203d811161053c5761052e818361159c565b38610a00565b82513d87823e3d90fd5b50503461020f578160031936011261020f5780519082603954610a6a81611b7d565b80855290600190818116908115610afd5750600114610aa4575b505050610a9682610aa094038361159c565b51918291826114bc565b0390f35b60398352602095507fdc16fef70f8d5ddbc01ee3d903d1e69c18a3c7be080eb86a81e0578814ee58d35b828410610aea5750505082610aa094610a969282010194610a84565b8054868501880152928601928101610ace565b610aa09750610a969450602092508693915060ff191682840152151560051b82010194610a84565b50503461020f578160031936011261020f57602090516000805160206120628339815191528152f35b50503461020f578160031936011261020f57602090603a549051908152f35b919050346107835780600319360112610783576024356001600160401b0381169280359291849003610c9a5783431015610c8c57610ba96116de565b338552603660205281852060205281852054916000198303610c37575b505050610bed81610bdd6001610bfd943033611cc4565b84603b5480610c06575b5061164f565b610bf743846115fe565b9061165c565b603a55603b5580f35b8091504310600014610c3057610c2a90610c24603a549143906115fe565b9061163c565b38610be7565b5084610c2a565b838310610c5b57505081610c54610bfd93610bed93033333611f0c565b9138610bc6565b906020606492519162461bcd60e51b8352820152601d60248201526000805160206120a28339815191526044820152fd5b905163e1133c0960e01b8152fd5b8480fd5b50503461020f578160031936011261020f5760209061081a611ac9565b50503461020f578160031936011261020f5751908152602090f35b50503461020f578160031936011261020f57602090517f880a91047114272656e533301261260c75e4d11543ac7303d6fe4204579ec7278152f35b50503461020f57602036600319011261020f57602091610d2f611505565b6001600160a01b03818116835260358552838320845190938592909190610d5582611550565b600286549687845260018101548a85015201541692839101525015600014610d905790610d8461081a92611853565b9061164f565b51908152f35b5090610d8a565b50503461020f57602036600319011261020f576002610db4611505565b9133845260356020528320610dc833611a04565b6001600160a01b0383169283610def575b500180546001600160a01b031916909117905580f35b610df890611a04565b38610dd9565b83833461020f578060031936011261020f57610e18611505565b90610e21611520565b6033548251632474521560e21b81526000805160206120428339815191528782015233602482015291936001600160a01b039290916020908290604490829087165afa908115610eed578691610ecf575b5015610ebf579081610e8660029493611a04565b8185169485610eb0575b50168452603560205283200180546001600160a01b031916909117905580f35b610eb990611a04565b86610e90565b825163599a6c3360e11b81528690fd5b610ee7915060203d811161053c5761052e818361159c565b87610e72565b84513d88823e3d90fd5b8284346108775780600319360112610877575060345481516001600160801b038216815260809190911c6001600160401b03166020820152f35b50503461020f578160031936011261020f57602090603b549051908152f35b50503461020f578160031936011261020f57602090517f39f61ca2a1a28fee144218173ec637b649a353e4026b2738c673800e5bf1437b8152f35b91905034610783576020366003190112610783576033548151632474521560e21b81529060209082906001600160a01b03168180610fcb338983016115d7565b03915afa90811561100d578491610fef575b5015610a135750610874903533611dd8565b611007915060203d811161053c5761052e818361159c565b38610fdd565b82513d86823e3d90fd5b91905034610783578060031936011261078357611032611505565b6033548251632474521560e21b815260209360243593909290916001600160a01b03918690829084168180611069338d83016115d7565b03915afa908115610543578891611164575b50156111545781169485156111115750918593916110a760008051602061208283398151915294611a04565b6110b38260375461164f565b603755858552603583528085206110cb83825461164f565b9055858552603583526110fb64e8d4a510006110f58388205460018060801b03603454169061163c565b0461199d565b868652603584526001828720015551908152a380f35b825162461bcd60e51b8152908101859052601f60248201527f45524332303a206d696e7420746f20746865207a65726f2061646472657373006044820152606490fd5b82516308ff603760e01b81528690fd5b61117b9150863d881161053c5761052e818361159c565b3861107b565b50503461020f578160031936011261020f5760209051655af3107a40008152f35b50503461020f578060031936011261020f576108a66020926111eb6111c5611505565b338352603686528483206001600160a01b0382168452865291849020546024359061164f565b9033611f0c565b50503461020f57602036600319011261020f5760209061081a611213611505565b611853565b50503461020f578160031936011261020f576020905160128152f35b8391503461020f57606036600319011261020f57611250611505565b611258611520565b6001600160a01b03821684526036602090815285852033865290529284902054604435939260018201611296575b6020866108a66001888888611cc4565b8482106112c25750926108a6926001926112b68360209897033383611f0c565b92509281949550611286565b606490602087519162461bcd60e51b8352820152601d60248201526000805160206120a28339815191526044820152fd5b50503461020f578160031936011261020f576020906037549051908152f35b83346108775760203660031901126108775761087461132f611505565b611a04565b50503461020f578060031936011261020f576020906108a6611354611505565b6024359033611f0c565b50503461020f578160031936011261020f578051908260385461138081611b7d565b80855290600190818116908115610afd57506001146113ab57505050610a9682610aa094038361159c565b60388352602095507f38395c5dceade9603479b177b68959049485df8aa97b39f3533039af5f4561995b8284106113f15750505082610aa094610a969282010194610a84565b80548685018801529286019281016113d5565b50503461020f578160031936011261020f5760335490516001600160a01b039091168152602090f35b9291503461077f57602036600319011261077f57803563ffffffff60e01b8116809103610c9a576033546301ffc9a760e01b855291840152602090839060249082906001600160a01b03165afa9182156114b25760209392611493575b50519015158152f35b6114ab919250833d811161053c5761052e818361159c565b903861148a565b81513d85823e3d90fd5b6020808252825181830181905290939260005b8281106114f157505060409293506000838284010152601f8019910116010190565b8181018601518482016040015285016114cf565b600435906001600160a01b038216820361151b57565b600080fd5b602435906001600160a01b038216820361151b57565b6001600160a01b0316600090815260356020526040902090565b606081019081106001600160401b0382111761156b57604052565b634e487b7160e01b600052604160045260246000fd5b604081019081106001600160401b0382111761156b57604052565b601f909101601f19168101906001600160401b0382119082101761156b57604052565b9081602091031261151b5751801515810361151b5790565b60008051602061206283398151915281526001600160a01b03909116602082015260400190565b9190820391821161160b57565b634e487b7160e01b600052601160045260246000fd5b90655af3107a40009182810292818404149015171561160b57565b8181029291811591840414171561160b57565b9190820180921161160b57565b8115611666570490565b634e487b7160e01b600052601260045260246000fd5b60345460801c6001600160401b03164381108015906116d4575b6116ce57603b548043106000146116c157506116b56116be91436115fe565b603a549061163c565b90565b6116be916116b5916115fe565b50600090565b50603b5415611696565b6034546001600160401b0390608081901c821643116116fb575050565b60375480611786575b505043116117325760348054600160801b600160c01b0319164360801b600160801b600160c01b0316179055565b60405162461bcd60e51b815260206004820152602660248201527f53616665436173743a2076616c756520646f65736e27742066697420696e203660448201526534206269747360d01b6064820152608490fd5b61178e61167c565b9064e8d4a510009182810292818404149015171561160b576117af9161165c565b6001600160801b03908181116117e55781168183160181811161160b576001600160801b03199092169116176034553880611704565b60405162461bcd60e51b815260206004820152602760248201527f53616665436173743a2076616c756520646f65736e27742066697420696e20316044820152663238206269747360c81b6064820152608490fd5b8181039291600013801582851316918412161761160b57565b6034546001600160801b0381169060801c6001600160401b0316431180611943575b6118fe575b64e8d4a510006110f56118cd9260018060a01b0380951660005260356020526040600020946040516118ab81611550565b6040875492838352600260018a015499602085019a8b5201541691015261163c565b906118ea6118e5655af3107a4000938493519061183a565b61194e565b0481810291818304149015171561160b5790565b61190661167c565b64e8d4a510009081810291818304149015171561160b576110f561193a6118cd93610d8464e8d4a51000946037549061165c565b9250505061187a565b506037541515611875565b600081126119595790565b606460405162461bcd60e51b815260206004820152602060248201527f53616665436173743a2076616c7565206d75737420626520706f7369746976656044820152fd5b6001600160ff1b0381116119ae5790565b60405162461bcd60e51b815260206004820152602860248201527f53616665436173743a2076616c756520646f65736e27742066697420696e2061604482015267371034b73a191a9b60c11b6064820152608490fd5b611a0d81611536565b90611a166116de565b8154603454611a4691611a4191611a3691906001600160801b0316610c24565b64e8d4a51000900490565b61199d565b916001810192611a71611a6c611a606118e587548561183a565b655af3107a4000900490565b611621565b935582151580611ab6575b611a8557505050565b600201546001600160a01b031680611aa75750611aa59160009130611cc4565b565b6001915091611aa59230611cc4565b506001600160a01b038216301415611a7c565b603b544311611b1857603a54622014809081810291818304148115171561160b5766de99aa8b27b3c160191b0290808204670de0b6b3a7640000149015171561160b576037546116be9161165c565b600090565b15611b2457565b60405162461bcd60e51b815260206004820152602b60248201527f496e697469616c697a61626c653a20636f6e7472616374206973206e6f74206960448201526a6e697469616c697a696e6760a81b6064820152608490fd5b90600182811c92168015611bad575b6020831014611b9757565b634e487b7160e01b600052602260045260246000fd5b91607f1691611b8c565b15611bbe57565b60405162461bcd60e51b815260206004820152602560248201527f45524332303a207472616e736665722066726f6d20746865207a65726f206164604482015264647265737360d81b6064820152608490fd5b15611c1857565b60405162461bcd60e51b815260206004820152602360248201527f45524332303a207472616e7366657220746f20746865207a65726f206164647260448201526265737360e81b6064820152608490fd5b15611c7057565b60405162461bcd60e51b815260206004820152602660248201527f45524332303a207472616e7366657220616d6f756e7420657863656564732062604482015265616c616e636560d01b6064820152608490fd5b6001600160a01b03808216939190611cdd851515611bb7565b831694611ceb861515611c11565b611dc7575b90600080516020612082833981519152928282611d0f611dc295611536565b54611d1c82821015611c69565b03611d2682611536565b556001611d6b611d65611a41611d3b85611536565b54603454611d59906001600160801b03165b6001600160801b031690565b0264e8d4a51000900490565b92611536565b0155611d7681611536565b611d8183825461164f565b90556001611db0611d65611a41611a36611d9a86611536565b54603454610c24906001600160801b0316611d4d565b01556040519081529081906020820190565b0390a3565b90611dd2838361200e565b90611cf0565b6001600160a01b038116908115611ebd57611df290611a04565b6000918183526035602052604080842054828110611e6e57916020918160008051602061208283398151915294868852603585520381872055611e4a64e8d4a510008288205460018060801b0360345416020461199d565b8587526035845260018288200155611e64826037546115fe565b60375551908152a3565b815162461bcd60e51b815260206004820152602260248201527f45524332303a206275726e20616d6f756e7420657863656564732062616c616e604482015261636560f01b6064820152608490fd5b60405162461bcd60e51b815260206004820152602160248201527f45524332303a206275726e2066726f6d20746865207a65726f206164647265736044820152607360f81b6064820152608490fd5b6001600160a01b03908116918215611fbd5716918215611f6d5760207f8c5be1e5ebec7d5bd14f71427d1e84f3dd0314c0f7b2291e5b200ac8c7c3b925918360005260368252604060002085600052825280604060002055604051908152a3565b60405162461bcd60e51b815260206004820152602260248201527f45524332303a20617070726f766520746f20746865207a65726f206164647265604482015261737360f01b6064820152608490fd5b60405162461bcd60e51b8152602060048201526024808201527f45524332303a20617070726f76652066726f6d20746865207a65726f206164646044820152637265737360e01b6064820152608490fd5b6001600160a01b0390808216612032575b5081166120295750565b611aa590611a04565b61203b90611a04565b3861201f56fe3b5d4cc60d3ec3516ee8ae083bd60934f6eb2a6c54b1229985c41bfb092b2603e453bacb314e78dcd5192e6b1a2b1f0e7c76e92f6b7e429a6a90f04e39db3b76ddf252ad1be2c89b69c2b068fc378daa952ba7f163c4a11628f55a4df523b3ef45524332303a20696e73756666696369656e7420616c6c6f77616e6365000000a26469706673582212208998dc01e0fe144060a454e36f23d6df559e7418ad70bc7242db1b3c85b2de0864736f6c63430008110033",
  "devdoc": {
    "details": "See GainableERC20v3Upgradeable contract for more details.*",
    "kind": "dev",
    "methods": {
      "allowance(address,address)": {
        "details": "Returns the remaining number of tokens that `spender` will be allowed to spend on behalf of `owner` through {transferFrom}. This is zero by default. This value changes when {approve} or {transferFrom} are called."
      },
      "approve(address,uint256)": {
        "details": "Sets `amount` as the allowance of `spender` over the caller's tokens. Returns a boolean value indicating whether the operation succeeded. IMPORTANT: Beware that changing an allowance with this method brings the risk that someone may use both the old and the new allowance by unfortunate transaction ordering. One possible solution to mitigate this race condition is to first reduce the spender's allowance to 0 and set the desired value afterwards: https://github.com/ethereum/EIPs/issues/20#issuecomment-263524729 Emits an {Approval} event."
      },
      "balanceOf(address)": {
        "details": "Returns the amount of tokens owned by `account`."
      },
      "cancelRedirectYieldAndHarvest()": {
        "details": "This function stops redirecting yield and harvests the current rewards for the caller"
      },
      "decimals()": {
        "details": "Returns the decimals places of the token."
      },
      "decreaseAllowance(address,uint256)": {
        "details": "Atomically decreases the allowance granted to `spender` by the caller. This is an alternative to {approve} that can be used as a mitigation for problems described in {IERC20-approve}. Emits an {Approval} event indicating the updated allowance. Requirements: - `spender` cannot be the zero address. - `spender` must have allowance for the caller of at least `subtractedValue`."
      },
      "getTotalRewardsSinceLastUpdate()": {
        "details": "Calculates total amount of rewards allocated to the all pools on the rage (startBlock, endBlock] i.e. excluding startBlock but including endBlock",
        "returns": {
          "_0": "The total amount of rewards allocated since the last update"
        }
      },
      "getYieldAPR()": {
        "details": "This function provides an estimate of the annual yield rate based on current rewards, especially for UI",
        "returns": {
          "_0": "The current yield APR expressed as a percentage with 18 decimal places"
        }
      },
      "harvest(address)": {
        "details": "This function calculates and transfers pending rewards to the account or its designated yield recipient. We won't make it private, because if user will send 1wei to any account, then harvest(to) will be called",
        "params": {
          "account": "The address of the account to harvest rewards for"
        }
      },
      "increaseAllowance(address,uint256)": {
        "details": "Atomically increases the allowance granted to `spender` by the caller. This is an alternative to {approve} that can be used as a mitigation for problems described in {IERC20-approve}. Emits an {Approval} event indicating the updated allowance. Requirements: - `spender` cannot be the zero address."
      },
      "mint(address,uint256)": {
        "details": "Mints 'amount' of tokens to address 'to', and MUST fire the Transfer event",
        "params": {
          "amount": "The amount of token to be minted*",
          "to": "The address of the recipient"
        }
      },
      "name()": {
        "details": "Returns the name of the token."
      },
      "pendingRewards(address)": {
        "details": "This function calculates rewards without updating the state",
        "params": {
          "account": "The address of the account to check pending rewards for"
        },
        "returns": {
          "_0": "The amount of pending rewards for the account"
        }
      },
      "redirectYieldAndHarvest(address)": {
        "details": "This function allows users to redirect their yield to another address and immediately harvest current rewards. To remove redirect just pass address(0) in argument",
        "params": {
          "to": "The address to redirect yield to (from msg.sender)"
        }
      },
      "redirectYieldAndHarvestByDAO(address,address)": {
        "details": "This function can only be called by the DAO and allows for administrative yield redirection",
        "params": {
          "from": "The address of the user whose yield is being redirected",
          "to": "The address to redirect the yield to"
        }
      },
      "refillReward(uint256,uint64)": {
        "details": "This function updates the reward per block and end block for the reward distribution",
        "params": {
          "amount": "The amount of tokens to add to the reward pool",
          "endBlock": "The block number at which the rewards will end"
        }
      },
      "supportsInterface(bytes4)": {
        "details": "Returns true if this contract implements the interface defined by `interfaceId`. See the corresponding https://eips.ethereum.org/EIPS/eip-165#how-interfaces-are-identified[EIP section] to learn more about how these ids are created. This function call must use less than 30 000 gas."
      },
      "symbol()": {
        "details": "Returns the symbol of the token."
      },
      "totalSupply()": {
        "details": "Returns the amount of tokens in existence."
      },
      "transfer(address,uint256)": {
        "details": "Moves `amount` tokens from the caller's account to `to`. Returns a boolean value indicating whether the operation succeeded. Emits a {Transfer} event."
      },
      "transferFrom(address,address,uint256)": {
        "details": "Moves `amount` tokens from `from` to `to` using the allowance mechanism. `amount` is then deducted from the caller's allowance. Returns a boolean value indicating whether the operation succeeded. Emits a {Transfer} event."
      },
      "updateRewardPool()": {
        "details": "This function should be called to update the accumulated rewards per share and the last reward block"
      }
    },
    "title": "StablePro",
    "version": 1
  },
  "userdoc": {
    "kind": "user",
    "methods": {
      "burn(address,uint256)": {
        "notice": "also vault is allowed to burn dollars of any account when user repays his loan and takes back his collateral*"
      },
      "burn(uint256)": {
        "notice": "dollars can be burned by manager but only his own dollars which managers will be using this feature? burning protocol fees?*"
      },
      "cancelRedirectYieldAndHarvest()": {
        "notice": "Cancels yield redirection and harvests current rewards"
      },
      "getYieldAPR()": {
        "notice": "Calculates the current yield Annual Percentage Rate (APR)"
      },
      "harvest(address)": {
        "notice": "Harvests rewards for a specified account"
      },
      "mint(address,uint256)": {
        "notice": "Only Vault can mint StablePro. Dollars can be minted by vault (once user deposited collateral)"
      },
      "pendingRewards(address)": {
        "notice": "Calculates the pending rewards for a given account"
      },
      "redirectYieldAndHarvest(address)": {
        "notice": "Redirects yield to a specified address and harvests current rewards"
      },
      "redirectYieldAndHarvestByDAO(address,address)": {
        "notice": "Allows the DAO to redirect yield for a user and harvest their rewards"
      },
      "refillReward(uint256,uint64)": {
        "notice": "Refills the \"moneybox\" with a specified amount of tokens"
      },
      "updateRewardPool()": {
        "notice": "Updates the reward pool state"
      }
    },
    "notice": "ERC-20 token with GainableERC20 feature",
    "version": 1
  },
  "storageLayout": {
    "storage": [
      {
        "astId": 462,
        "contract": "contracts/StablePro.sol:StablePro",
        "label": "_initialized",
        "offset": 0,
        "slot": "0",
        "type": "t_uint8"
      },
      {
        "astId": 465,
        "contract": "contracts/StablePro.sol:StablePro",
        "label": "_initializing",
        "offset": 1,
        "slot": "0",
        "type": "t_bool"
      },
      {
        "astId": 1604,
        "contract": "contracts/StablePro.sol:StablePro",
        "label": "__gap",
        "offset": 0,
        "slot": "1",
        "type": "t_array(t_uint256)50_storage"
      },
      {
        "astId": 26374,
        "contract": "contracts/StablePro.sol:StablePro",
        "label": "ACCESS_CONTROL_SINGLETON",
        "offset": 0,
        "slot": "51",
        "type": "t_contract(ISuAccessControl)29456"
      },
      {
        "astId": 17103,
        "contract": "contracts/StablePro.sol:StablePro",
        "label": "rewardPool",
        "offset": 0,
        "slot": "52",
        "type": "t_struct(IRewardPool)18339_storage"
      },
      {
        "astId": 17108,
        "contract": "contracts/StablePro.sol:StablePro",
        "label": "_accounts",
        "offset": 0,
        "slot": "53",
        "type": "t_mapping(t_address,t_struct(IAccount)18334_storage)"
      },
      {
        "astId": 17114,
        "contract": "contracts/StablePro.sol:StablePro",
        "label": "_allowances",
        "offset": 0,
        "slot": "54",
        "type": "t_mapping(t_address,t_mapping(t_address,t_uint256))"
      },
      {
        "astId": 17116,
        "contract": "contracts/StablePro.sol:StablePro",
        "label": "_totalSupply",
        "offset": 0,
        "slot": "55",
        "type": "t_uint256"
      },
      {
        "astId": 17118,
        "contract": "contracts/StablePro.sol:StablePro",
        "label": "_name",
        "offset": 0,
        "slot": "56",
        "type": "t_string_storage"
      },
      {
        "astId": 17120,
        "contract": "contracts/StablePro.sol:StablePro",
        "label": "_symbol",
        "offset": 0,
        "slot": "57",
        "type": "t_string_storage"
      },
      {
        "astId": 17122,
        "contract": "contracts/StablePro.sol:StablePro",
        "label": "rewardPerBlock",
        "offset": 0,
        "slot": "58",
        "type": "t_uint256"
      },
      {
        "astId": 17124,
        "contract": "contracts/StablePro.sol:StablePro",
        "label": "rewardEndBlock",
        "offset": 0,
        "slot": "59",
        "type": "t_uint256"
      },
      {
        "astId": 18259,
        "contract": "contracts/StablePro.sol:StablePro",
        "label": "__gap",
        "offset": 0,
        "slot": "60",
        "type": "t_array(t_uint256)45_storage"
      }
    ],
    "types": {
      "t_address": {
        "encoding": "inplace",
        "label": "address",
        "numberOfBytes": "20"
      },
      "t_array(t_uint256)45_storage": {
        "base": "t_uint256",
        "encoding": "inplace",
        "label": "uint256[45]",
        "numberOfBytes": "1440"
      },
      "t_array(t_uint256)50_storage": {
        "base": "t_uint256",
        "encoding": "inplace",
        "label": "uint256[50]",
        "numberOfBytes": "1600"
      },
      "t_bool": {
        "encoding": "inplace",
        "label": "bool",
        "numberOfBytes": "1"
      },
      "t_contract(ISuAccessControl)29456": {
        "encoding": "inplace",
        "label": "contract ISuAccessControl",
        "numberOfBytes": "20"
      },
      "t_int256": {
        "encoding": "inplace",
        "label": "int256",
        "numberOfBytes": "32"
      },
      "t_mapping(t_address,t_mapping(t_address,t_uint256))": {
        "encoding": "mapping",
        "key": "t_address",
        "label": "mapping(address => mapping(address => uint256))",
        "numberOfBytes": "32",
        "value": "t_mapping(t_address,t_uint256)"
      },
      "t_mapping(t_address,t_struct(IAccount)18334_storage)": {
        "encoding": "mapping",
        "key": "t_address",
        "label": "mapping(address => struct IGainableERC20v3.IAccount)",
        "numberOfBytes": "32",
        "value": "t_struct(IAccount)18334_storage"
      },
      "t_mapping(t_address,t_uint256)": {
        "encoding": "mapping",
        "key": "t_address",
        "label": "mapping(address => uint256)",
        "numberOfBytes": "32",
        "value": "t_uint256"
      },
      "t_string_storage": {
        "encoding": "bytes",
        "label": "string",
        "numberOfBytes": "32"
      },
      "t_struct(IAccount)18334_storage": {
        "encoding": "inplace",
        "label": "struct IGainableERC20v3.IAccount",
        "members": [
          {
            "astId": 18329,
            "contract": "contracts/StablePro.sol:StablePro",
            "label": "balance",
            "offset": 0,
            "slot": "0",
            "type": "t_uint256"
          },
          {
            "astId": 18331,
            "contract": "contracts/StablePro.sol:StablePro",
            "label": "rewardDebt",
            "offset": 0,
            "slot": "1",
            "type": "t_int256"
          },
          {
            "astId": 18333,
            "contract": "contracts/StablePro.sol:StablePro",
            "label": "redirectYieldTo",
            "offset": 0,
            "slot": "2",
            "type": "t_address"
          }
        ],
        "numberOfBytes": "96"
      },
      "t_struct(IRewardPool)18339_storage": {
        "encoding": "inplace",
        "label": "struct IGainableERC20v3.IRewardPool",
        "members": [
          {
            "astId": 18336,
            "contract": "contracts/StablePro.sol:StablePro",
            "label": "accRewardPerShare",
            "offset": 0,
            "slot": "0",
            "type": "t_uint128"
          },
          {
            "astId": 18338,
            "contract": "contracts/StablePro.sol:StablePro",
            "label": "lastRewardBlock",
            "offset": 16,
            "slot": "0",
            "type": "t_uint64"
          }
        ],
        "numberOfBytes": "32"
      },
      "t_uint128": {
        "encoding": "inplace",
        "label": "uint128",
        "numberOfBytes": "16"
      },
      "t_uint256": {
        "encoding": "inplace",
        "label": "uint256",
        "numberOfBytes": "32"
      },
      "t_uint64": {
        "encoding": "inplace",
        "label": "uint64",
        "numberOfBytes": "8"
      },
      "t_uint8": {
        "encoding": "inplace",
        "label": "uint8",
        "numberOfBytes": "1"
      }
    }
  }
}