{
  "address": "0xe44Acf3D6c67A7C1806f0660DBBEe8680953C999",
  "abi": [
    {
      "inputs": [],
      "name": "BadAccessControlSingleton",
      "type": "error"
    },
    {
      "inputs": [],
      "name": "BadPriceAnswer",
      "type": "error"
    },
    {
      "inputs": [],
      "name": "OnlyAdminError",
      "type": "error"
    },
    {
      "inputs": [],
      "name": "OnlyAlerterError",
      "type": "error"
    },
    {
      "inputs": [],
      "name": "OnlyDAOError",
      "type": "error"
    },
    {
      "inputs": [],
      "name": "OnlyLiquidationAccessError",
      "type": "error"
    },
    {
      "inputs": [],
      "name": "OnlyMintAccessError",
      "type": "error"
    },
    {
      "inputs": [],
      "name": "OnlyRewardAccessError",
      "type": "error"
    },
    {
      "inputs": [],
      "name": "OnlyRoleError",
      "type": "error"
    },
    {
      "inputs": [],
      "name": "OnlyVaultAccessError",
      "type": "error"
    },
    {
      "anonymous": false,
      "inputs": [
        {
          "indexed": false,
          "internalType": "uint8",
          "name": "version",
          "type": "uint8"
        }
      ],
      "name": "Initialized",
      "type": "event"
    },
    {
      "inputs": [],
      "name": "ACCESS_CONTROL_SINGLETON",
      "outputs": [
        {
          "internalType": "contract ISuAccessControl",
          "name": "",
          "type": "address"
        }
      ],
      "stateMutability": "view",
      "type": "function"
    },
    {
      "inputs": [],
      "name": "ADMIN_ROLE",
      "outputs": [
        {
          "internalType": "bytes32",
          "name": "",
          "type": "bytes32"
        }
      ],
      "stateMutability": "view",
      "type": "function"
    },
    {
      "inputs": [],
      "name": "ALERTER_ROLE",
      "outputs": [
        {
          "internalType": "bytes32",
          "name": "",
          "type": "bytes32"
        }
      ],
      "stateMutability": "view",
      "type": "function"
    },
    {
      "inputs": [],
      "name": "DAO_ROLE",
      "outputs": [
        {
          "internalType": "bytes32",
          "name": "",
          "type": "bytes32"
        }
      ],
      "stateMutability": "view",
      "type": "function"
    },
    {
      "inputs": [],
      "name": "LIQUIDATION_ACCESS_ROLE",
      "outputs": [
        {
          "internalType": "bytes32",
          "name": "",
          "type": "bytes32"
        }
      ],
      "stateMutability": "view",
      "type": "function"
    },
    {
      "inputs": [],
      "name": "MINT_ACCESS_ROLE",
      "outputs": [
        {
          "internalType": "bytes32",
          "name": "",
          "type": "bytes32"
        }
      ],
      "stateMutability": "view",
      "type": "function"
    },
    {
      "inputs": [],
      "name": "REWARD_ACCESS_ROLE",
      "outputs": [
        {
          "internalType": "bytes32",
          "name": "",
          "type": "bytes32"
        }
      ],
      "stateMutability": "view",
      "type": "function"
    },
    {
      "inputs": [],
      "name": "SYSTEM_ROLE",
      "outputs": [
        {
          "internalType": "bytes32",
          "name": "",
          "type": "bytes32"
        }
      ],
      "stateMutability": "view",
      "type": "function"
    },
    {
      "inputs": [],
      "name": "VAULT_ACCESS_ROLE",
      "outputs": [
        {
          "internalType": "bytes32",
          "name": "",
          "type": "bytes32"
        }
      ],
      "stateMutability": "view",
      "type": "function"
    },
    {
      "inputs": [
        {
          "internalType": "address",
          "name": "",
          "type": "address"
        }
      ],
      "name": "assetToFeed",
      "outputs": [
        {
          "internalType": "address",
          "name": "",
          "type": "address"
        }
      ],
      "stateMutability": "view",
      "type": "function"
    },
    {
      "inputs": [
        {
          "internalType": "address",
          "name": "",
          "type": "address"
        }
      ],
      "name": "assetToFeedDecimals",
      "outputs": [
        {
          "internalType": "uint8",
          "name": "",
          "type": "uint8"
        }
      ],
      "stateMutability": "view",
      "type": "function"
    },
    {
      "inputs": [
        {
          "internalType": "address",
          "name": "asset",
          "type": "address"
        }
      ],
      "name": "getFiatPrice1e18",
      "outputs": [
        {
          "internalType": "uint256",
          "name": "",
          "type": "uint256"
        }
      ],
      "stateMutability": "view",
      "type": "function"
    },
    {
      "inputs": [
        {
          "internalType": "address",
          "name": "_authControl",
          "type": "address"
        }
      ],
      "name": "initialize",
      "outputs": [],
      "stateMutability": "nonpayable",
      "type": "function"
    },
    {
      "inputs": [
        {
          "internalType": "address",
          "name": "",
          "type": "address"
        }
      ],
      "name": "isPriceInETH",
      "outputs": [
        {
          "internalType": "bool",
          "name": "",
          "type": "bool"
        }
      ],
      "stateMutability": "view",
      "type": "function"
    },
    {
      "inputs": [
        {
          "internalType": "address",
          "name": "asset",
          "type": "address"
        },
        {
          "internalType": "address",
          "name": "chainlinkDataFeed",
          "type": "address"
        },
        {
          "internalType": "uint8",
          "name": "chainlinkDataFeedDecimals",
          "type": "uint8"
        }
      ],
      "name": "setAssetFeed",
      "outputs": [],
      "stateMutability": "nonpayable",
      "type": "function"
    },
    {
      "inputs": [
        {
          "internalType": "address",
          "name": "asset",
          "type": "address"
        },
        {
          "internalType": "bool",
          "name": "_isPriceInETH",
          "type": "bool"
        }
      ],
      "name": "setPriceBase",
      "outputs": [],
      "stateMutability": "nonpayable",
      "type": "function"
    },
    {
      "inputs": [
        {
          "internalType": "bytes4",
          "name": "interfaceId",
          "type": "bytes4"
        }
      ],
      "name": "supportsInterface",
      "outputs": [
        {
          "internalType": "bool",
          "name": "",
          "type": "bool"
        }
      ],
      "stateMutability": "view",
      "type": "function"
    }
  ],
  "numDeployments": 4,
  "solcInputHash": "4b4827c185e49f5250e237ecb28af247",
  "bytecode": "0x6080806040523461001657610bdf908161001c8239f35b600080fdfe608060408181526004918236101561001657600080fd5b600092833560e01c91826301ffc9a7146107b45750816303ee9f221461078857816314c376dc1461074d57816317d9c94e146107115781633443aa881461063c578163438280dd1461060157816371d0fb41146105c657816375071d2a1461058b57816375b238fc14610570578163762c2129146104725781638e5313e014610437578163b9ac2b381461040a578163c4d66de8146101bc57508063cf4809821461017f578063dc97e84e14610145578063e6741de21461010b5763e9c26518146100e057600080fd5b3461010757816003193601126101075760209051600080516020610b8a8339815191528152f35b5080fd5b5034610107576020366003190112610107576020916001600160a01b0390829082610134610845565b168152600185522054169051908152f35b5034610107578160031936011261010757602090517f9a9aef7c1247d5fc769b0185c052913e39673da29a880317dfd20ebf86f26a498152f35b50346101075760203660031901126101075760209160ff9082906001600160a01b036101a9610845565b1681526003855220541690519015158152f35b919050346104065760209081600319360112610402576101da610845565b845460ff8160081c1615908180926103f5575b80156103de575b156103845760ff198116600117875581610373575b5085549460ff8660081c161561031c5762010000600160b01b03601084901b1662010000600160b01b0319871681178855926001600160a01b0316801515908690826102ab575b505061029d575061025f578480f35b7f7f26b83ff96e1f2b6a682f133852f6798a09c465da95921460cefb384740249893610100600160b01b0319161784555160018152a1388080808480f35b83516384d942fd60e01b8152fd5b86516301ffc9a760e01b8152637965db0b60e01b858201529250829060249082905afa9081156103125788916102e5575b50158538610250565b6103059150863d881161030b575b6102fd8183610860565b810190610899565b386102dc565b503d6102f3565b85513d8a823e3d90fd5b835162461bcd60e51b8152908101859052602b60248201527f496e697469616c697a61626c653a20636f6e7472616374206973206e6f74206960448201526a6e697469616c697a696e6760a81b6064820152608490fd5b61ffff191661010117865538610209565b835162461bcd60e51b8152808701869052602e60248201527f496e697469616c697a61626c653a20636f6e747261637420697320616c72656160448201526d191e481a5b9a5d1a585b1a5e995960921b6064820152608490fd5b50303b1580156101f45750600160ff8216146101f4565b50600160ff8216106101ed565b8380fd5b8280fd5b5050346101075760203660031901126101075760209061043061042b610845565b610949565b9051908152f35b505034610107578160031936011261010757602090517fe453bacb314e78dcd5192e6b1a2b1f0e7c76e92f6b7e429a6a90f04e39db3b768152f35b919050346104065760603660031901126104065761048e610845565b6001600160a01b03602435818116929083900361056c576044359460ff8616809603610568576044602084895460101c16875192838092632474521560e21b8252600080516020610b8a833981519152878301523360248301525afa90811561055e578891610540575b501561053257501684526001602090815282852080546001600160a01b031916909217909155600290528220805460ff1916909117905580f35b845163599a6c3360e11b8152fd5b610558915060203d811161030b576102fd8183610860565b386104f8565b86513d8a823e3d90fd5b8680fd5b8580fd5b50503461010757816003193601126101075751908152602090f35b505034610107578160031936011261010757602090517f5719df9ef2c4678b547f89e4f5ae410dbf400fc51cf3ded434c55f6adea2c43f8152f35b505034610107578160031936011261010757602090517f880a91047114272656e533301261260c75e4d11543ac7303d6fe4204579ec7278152f35b505034610107578160031936011261010757602090517f39f61ca2a1a28fee144218173ec637b649a353e4026b2738c673800e5bf1437b8152f35b91905034610406578060031936011261040657610657610845565b916024359283151580940361070d5784548351632474521560e21b8152600080516020610b8a833981519152818501523360248201526001600160a01b0393916020908290604490829060101c88165afa9081156107035787916106e5575b50156106d75750168352600360205282209060ff8019835416911617905580f35b835163599a6c3360e11b8152fd5b6106fd915060203d811161030b576102fd8183610860565b386106b6565b85513d89823e3d90fd5b8480fd5b5050346101075760203660031901126101075760209160ff9082906001600160a01b0361073c610845565b168152600285522054169051908152f35b505034610107578160031936011261010757602090517fe965846df3dd5b1dfa65f58e31477079e90140e0908b6dd31b5aead5a57cf3658152f35b5050346101075781600319360112610107579054905160109190911c6001600160a01b03168152602090f35b9291503461040257602036600319011261040257803563ffffffff60e01b811680910361070d5784546301ffc9a760e01b8552918401526020908390602490829060101c6001600160a01b03165afa91821561083b576020939261081c575b50519015158152f35b610834919250833d811161030b576102fd8183610860565b9038610813565b81513d85823e3d90fd5b600435906001600160a01b038216820361085b57565b600080fd5b601f909101601f19168101906001600160401b0382119082101761088357604052565b634e487b7160e01b600052604160045260246000fd5b9081602091031261085b5751801515810361085b5790565b506040513d6000823e3d90fd5b51906001600160501b038216820361085b57565b908160a091031261085b576108e6816108be565b916020820151916040810151916109046080606084015193016108be565b90565b9081602091031261085b575160ff8116810361085b5790565b8181029291811591840414171561093357565b634e487b7160e01b600052601160045260246000fd5b6001600160a01b0381811660009081526001602090815260408083205460029092529091209116919061097e905b5460ff1690565b60405190633fabe5a360e21b825260a082600481600180851b038098165afa918215610ad0575b600092610a9b575b506000821315610a89576109c091610aeb565b918116806109cd57505090565b610a066004610a2293946020610977946040519384809263313ce56760e01b82525afa918215610a7c575b600092610a4c575b50610aeb565b6001600160a01b03909316600090815260036020526040902090565b1561090457610a316000610949565b610a3e9061090492610920565b670de0b6b3a7640000900490565b610a6e91925060203d8111610a75575b610a668183610860565b810190610907565b9038610a00565b503d610a5c565b610a846108b1565b6109f8565b6040516321d0ed8560e11b8152600490fd5b610abd91925060a03d8111610ac9575b610ab58183610860565b8101906108d2565b505050905090386109ad565b503d610aab565b610ad86108b1565b6109a5565b604d811161093357600a0a90565b9060ff166012811015610b335760120360ff81116109335760ff610b0f9116610add565b818102919060008212600160ff1b8214166109335781830514901517156109335790565b60128111610b3f575090565b6011190160ff81116109335760ff610b579116610add565b908115610b7357600160ff1b8114600019831416610933570590565b634e487b7160e01b600052601260045260246000fdfe3b5d4cc60d3ec3516ee8ae083bd60934f6eb2a6c54b1229985c41bfb092b2603a2646970667358221220e8c0eb06a08c0d9dc98cbadaea1ad3833099927bcbd90fea6319175e96a7e17964736f6c63430008110033",
  "devdoc": {
    "details": "See ISuChainlinkOracle interface for full details.",
    "kind": "dev",
    "methods": {
      "getFiatPrice1e18(address)": {
        "params": {
          "asset": "- address of erc20 token contract"
        },
        "returns": {
          "_0": "usdPrice1e18 such that asset.balanceOf() * getFiatPrice1e18(asset) / 1e18 == $$ * 1e18*"
        }
      },
      "supportsInterface(bytes4)": {
        "details": "Returns true if this contract implements the interface defined by `interfaceId`. See the corresponding https://eips.ethereum.org/EIPS/eip-165#how-interfaces-are-identified[EIP section] to learn more about how these ids are created. This function call must use less than 30 000 gas."
      }
    },
    "title": "SuChainlinkOracle",
    "version": 1
  },
  "userdoc": {
    "kind": "user",
    "methods": {
      "assetToFeed(address)": {
        "notice": "Data feeds addresses from https://docs.chain.link/docs/ethereum-addresses/#Goerli%20Testnet each chainlink data feed has own decimals, see the link above*"
      },
      "getFiatPrice1e18(address)": {
        "notice": "WARNING! Read this description very carefully!     function getFiatPrice1e18(address asset) returns (uint256) that:         basicAmountOfAsset * getFiatPrice1e18(asset) / 1e18 === $$ * 1e18     in other words, it doesn't matter what's the erc20.decimals is,     you just multiply token balance in basic units on value from oracle and get dollar amount multiplied on 1e18. different assets have different deviation threshold (errors)     for wBTC it's <= 0.5%, read more https://data.chain.link/ethereum/mainnet/crypto-usd/btc-usd     for other asset is can be larger based on particular oracle implementation. examples:     market price of btc = $30k,     for 0.1 wBTC the unit256 amount is 0.1 * 1e18     0.1 * 1e18 * (price1e18 / 1e18) == $3000 == uint256(3000*1e18)     => price1e18 = 30000 * 1e18;     market price of usdt = $0.97,     for 1 usdt uint256 = 1 * 1e6     so 1*1e6 * price1e18 / 1e18 == $0.97 == uint256(0.97*1e18)     => 1*1e6 * (price1e18 / 1e18) / (0.97*1e18)   = 1     =>  price1e18 = 0.97 * (1e18/1e6) * 1e18    assume market price of wBTC = $31,503.77, oracle error = $158     case #1: small amount of wBTC         we have 0.0,000,001 wBTC that is worth v = $0.00315  $0.00001 = 0.00315*1e18 = 315*1e13  1*1e13         actual balance on the asset b = wBTC.balanceOf() =  0.0000001*1e18 = 1e11         oracle should return or = oracle.getFiatPrice1e18(wBTC) <=>         <=> b*or = v => v/b = 315*1e13 / 1e11 = 315*1e2  1e2         error = or.error * b = 1e2 * 1e11 = 1e13 => 1e13/1e18 usd = 1e-5 = 0.00001 usd     case #2: large amount of wBTC         v = 2,000,000 wBTC = $31,503.77 * 2m  158*2m = $63,007,540,000  $316,000,000 = 63,007*1e24  316*1e24         for calc convenience we increase error on 0.05 and have v = 63,000*24  300*1e24 = (630  3)*1e26         b = 2*1e6 * 1e18 = 2*1e24         or = v/b = (630  3)*1e26 / 2*1e24 = 315*1e2  1.5*1e2         error = or.error * b = 1.5*100 * 2*1e24 = 3*1e26 = 3*1e8*1e18 = $300,000,000 ~ $316,000,000     assume the market price of USDT = $0.97  $0.00485,     case #3: little amount of USDT         v = USDT amount 0.005 = 0.005*(0.97  0.00485) = 0.00485*1e18  0.00002425*1e18 = 485*1e13  3*1e13         we rounded error up on (3000-2425)/2425 ~= +24% for calculation convenience.         b = USDT.balanceOf() = 0.005*1e6 = 5*1e3         b*or = v => or = v/b = (485*1e13  3*1e13) / 5*1e3 = 970*1e9  6*1e9         error = 6*1e9 * 5*1e3 / 1e18 = 30*1e12/1e18 = 3*1e-5 = $0,00005     case #4: lot of USDT         v = we have 100,000,000,000 USDT = $97B = 97*1e9*1e18  0.5*1e9*1e18         b = USDT.balanceOf() = 1e11*1e6 = 1e17         or = v/b = (97*1e9*1e18  0.5*1e9*1e18) / 1e17 = 970*1e9  5*1e9         error = 5*1e9 * 1e17 = 5*1e26 = 0.5 * 1e8*1e18"
      }
    },
    "notice": "Oracle that use Chainlink prices",
    "version": 1
  },
  "storageLayout": {
    "storage": [
      {
        "astId": 672,
        "contract": "contracts/periphery/contracts/oracle/SuChainlinkOracle.sol:SuChainlinkOracle",
        "label": "_initialized",
        "offset": 0,
        "slot": "0",
        "type": "t_uint8"
      },
      {
        "astId": 675,
        "contract": "contracts/periphery/contracts/oracle/SuChainlinkOracle.sol:SuChainlinkOracle",
        "label": "_initializing",
        "offset": 1,
        "slot": "0",
        "type": "t_bool"
      },
      {
        "astId": 33377,
        "contract": "contracts/periphery/contracts/oracle/SuChainlinkOracle.sol:SuChainlinkOracle",
        "label": "ACCESS_CONTROL_SINGLETON",
        "offset": 2,
        "slot": "0",
        "type": "t_contract(ISuAccessControl)37440"
      },
      {
        "astId": 38826,
        "contract": "contracts/periphery/contracts/oracle/SuChainlinkOracle.sol:SuChainlinkOracle",
        "label": "assetToFeed",
        "offset": 0,
        "slot": "1",
        "type": "t_mapping(t_address,t_address)"
      },
      {
        "astId": 38830,
        "contract": "contracts/periphery/contracts/oracle/SuChainlinkOracle.sol:SuChainlinkOracle",
        "label": "assetToFeedDecimals",
        "offset": 0,
        "slot": "2",
        "type": "t_mapping(t_address,t_uint8)"
      },
      {
        "astId": 38834,
        "contract": "contracts/periphery/contracts/oracle/SuChainlinkOracle.sol:SuChainlinkOracle",
        "label": "isPriceInETH",
        "offset": 0,
        "slot": "3",
        "type": "t_mapping(t_address,t_bool)"
      }
    ],
    "types": {
      "t_address": {
        "encoding": "inplace",
        "label": "address",
        "numberOfBytes": "20"
      },
      "t_bool": {
        "encoding": "inplace",
        "label": "bool",
        "numberOfBytes": "1"
      },
      "t_contract(ISuAccessControl)37440": {
        "encoding": "inplace",
        "label": "contract ISuAccessControl",
        "numberOfBytes": "20"
      },
      "t_mapping(t_address,t_address)": {
        "encoding": "mapping",
        "key": "t_address",
        "label": "mapping(address => address)",
        "numberOfBytes": "32",
        "value": "t_address"
      },
      "t_mapping(t_address,t_bool)": {
        "encoding": "mapping",
        "key": "t_address",
        "label": "mapping(address => bool)",
        "numberOfBytes": "32",
        "value": "t_bool"
      },
      "t_mapping(t_address,t_uint8)": {
        "encoding": "mapping",
        "key": "t_address",
        "label": "mapping(address => uint8)",
        "numberOfBytes": "32",
        "value": "t_uint8"
      },
      "t_uint8": {
        "encoding": "inplace",
        "label": "uint8",
        "numberOfBytes": "1"
      }
    }
  }
}