{
  "address": "0xCcf40564b2b1C524fA88F1A207f1bFC05582fA94",
  "abi": [
    {
      "inputs": [],
      "stateMutability": "nonpayable",
      "type": "constructor"
    },
    {
      "inputs": [],
      "name": "AssetNotRegistered",
      "type": "error"
    },
    {
      "inputs": [],
      "name": "BadAccessControlSingleton",
      "type": "error"
    },
    {
      "inputs": [],
      "name": "BadDecimals",
      "type": "error"
    },
    {
      "inputs": [],
      "name": "BadETHPrice",
      "type": "error"
    },
    {
      "inputs": [],
      "name": "BadFeed",
      "type": "error"
    },
    {
      "inputs": [],
      "name": "BadPriceAnswer",
      "type": "error"
    },
    {
      "inputs": [],
      "name": "L2SequencerUnavailable",
      "type": "error"
    },
    {
      "inputs": [],
      "name": "OnlyAdminError",
      "type": "error"
    },
    {
      "inputs": [],
      "name": "OnlyAlerterError",
      "type": "error"
    },
    {
      "inputs": [],
      "name": "OnlyCDPAccessError",
      "type": "error"
    },
    {
      "inputs": [],
      "name": "OnlyDAOError",
      "type": "error"
    },
    {
      "inputs": [],
      "name": "OnlyDisablerAccessError",
      "type": "error"
    },
    {
      "inputs": [],
      "name": "OnlyLiquidationAccessError",
      "type": "error"
    },
    {
      "inputs": [],
      "name": "OnlyMintAccessError",
      "type": "error"
    },
    {
      "inputs": [],
      "name": "OnlyProxyActionsError",
      "type": "error"
    },
    {
      "inputs": [],
      "name": "OnlyRewardAccessError",
      "type": "error"
    },
    {
      "inputs": [],
      "name": "OnlyRoleError",
      "type": "error"
    },
    {
      "inputs": [],
      "name": "OnlyVaultAccessError",
      "type": "error"
    },
    {
      "inputs": [],
      "name": "OnlyVotingEscrowError",
      "type": "error"
    },
    {
      "inputs": [],
      "name": "StalePrice",
      "type": "error"
    },
    {
      "inputs": [],
      "name": "SystemNotPaused",
      "type": "error"
    },
    {
      "inputs": [],
      "name": "SystemPaused",
      "type": "error"
    },
    {
      "anonymous": false,
      "inputs": [
        {
          "indexed": true,
          "internalType": "address",
          "name": "asset",
          "type": "address"
        },
        {
          "indexed": true,
          "internalType": "address",
          "name": "feed",
          "type": "address"
        },
        {
          "indexed": false,
          "internalType": "uint8",
          "name": "decimals",
          "type": "uint8"
        },
        {
          "indexed": false,
          "internalType": "bool",
          "name": "isPriceInETH",
          "type": "bool"
        },
        {
          "indexed": false,
          "internalType": "uint256",
          "name": "threshold",
          "type": "uint256"
        }
      ],
      "name": "AssetRegistered",
      "type": "event"
    },
    {
      "anonymous": false,
      "inputs": [
        {
          "indexed": false,
          "internalType": "uint8",
          "name": "version",
          "type": "uint8"
        }
      ],
      "name": "Initialized",
      "type": "event"
    },
    {
      "anonymous": false,
      "inputs": [
        {
          "indexed": false,
          "internalType": "address",
          "name": "account",
          "type": "address"
        }
      ],
      "name": "Paused",
      "type": "event"
    },
    {
      "anonymous": false,
      "inputs": [
        {
          "indexed": true,
          "internalType": "address",
          "name": "asset",
          "type": "address"
        },
        {
          "indexed": false,
          "internalType": "uint256",
          "name": "threshold",
          "type": "uint256"
        }
      ],
      "name": "StalenessThresholdUpdated",
      "type": "event"
    },
    {
      "anonymous": false,
      "inputs": [
        {
          "indexed": false,
          "internalType": "address",
          "name": "account",
          "type": "address"
        }
      ],
      "name": "Unpaused",
      "type": "event"
    },
    {
      "inputs": [],
      "name": "ACCESS_CONTROL_SINGLETON",
      "outputs": [
        {
          "internalType": "contract ISuAccessControl",
          "name": "",
          "type": "address"
        }
      ],
      "stateMutability": "view",
      "type": "function"
    },
    {
      "inputs": [],
      "name": "ADMIN_ROLE",
      "outputs": [
        {
          "internalType": "bytes32",
          "name": "",
          "type": "bytes32"
        }
      ],
      "stateMutability": "view",
      "type": "function"
    },
    {
      "inputs": [],
      "name": "ALERTER_ROLE",
      "outputs": [
        {
          "internalType": "bytes32",
          "name": "",
          "type": "bytes32"
        }
      ],
      "stateMutability": "view",
      "type": "function"
    },
    {
      "inputs": [],
      "name": "CDP_ACCESS_ROLE",
      "outputs": [
        {
          "internalType": "bytes32",
          "name": "",
          "type": "bytes32"
        }
      ],
      "stateMutability": "view",
      "type": "function"
    },
    {
      "inputs": [],
      "name": "DAO_ROLE",
      "outputs": [
        {
          "internalType": "bytes32",
          "name": "",
          "type": "bytes32"
        }
      ],
      "stateMutability": "view",
      "type": "function"
    },
    {
      "inputs": [],
      "name": "DISABLER_ROLE",
      "outputs": [
        {
          "internalType": "bytes32",
          "name": "",
          "type": "bytes32"
        }
      ],
      "stateMutability": "view",
      "type": "function"
    },
    {
      "inputs": [],
      "name": "LIQUIDATION_ACCESS_ROLE",
      "outputs": [
        {
          "internalType": "bytes32",
          "name": "",
          "type": "bytes32"
        }
      ],
      "stateMutability": "view",
      "type": "function"
    },
    {
      "inputs": [],
      "name": "MINT_ACCESS_ROLE",
      "outputs": [
        {
          "internalType": "bytes32",
          "name": "",
          "type": "bytes32"
        }
      ],
      "stateMutability": "view",
      "type": "function"
    },
    {
      "inputs": [],
      "name": "PROXY_ACTIONS_ROLE",
      "outputs": [
        {
          "internalType": "bytes32",
          "name": "",
          "type": "bytes32"
        }
      ],
      "stateMutability": "view",
      "type": "function"
    },
    {
      "inputs": [],
      "name": "REWARD_ACCESS_ROLE",
      "outputs": [
        {
          "internalType": "bytes32",
          "name": "",
          "type": "bytes32"
        }
      ],
      "stateMutability": "view",
      "type": "function"
    },
    {
      "inputs": [],
      "name": "VOTING_ESCROW_ROLE",
      "outputs": [
        {
          "internalType": "bytes32",
          "name": "",
          "type": "bytes32"
        }
      ],
      "stateMutability": "view",
      "type": "function"
    },
    {
      "inputs": [
        {
          "internalType": "address",
          "name": "",
          "type": "address"
        }
      ],
      "name": "assetStalenessThreshold",
      "outputs": [
        {
          "internalType": "uint256",
          "name": "",
          "type": "uint256"
        }
      ],
      "stateMutability": "view",
      "type": "function"
    },
    {
      "inputs": [
        {
          "internalType": "address",
          "name": "",
          "type": "address"
        }
      ],
      "name": "assetToFeed",
      "outputs": [
        {
          "internalType": "address",
          "name": "",
          "type": "address"
        }
      ],
      "stateMutability": "view",
      "type": "function"
    },
    {
      "inputs": [
        {
          "internalType": "address",
          "name": "",
          "type": "address"
        }
      ],
      "name": "assetToFeedDecimals",
      "outputs": [
        {
          "internalType": "uint8",
          "name": "",
          "type": "uint8"
        }
      ],
      "stateMutability": "view",
      "type": "function"
    },
    {
      "inputs": [
        {
          "internalType": "address",
          "name": "asset",
          "type": "address"
        }
      ],
      "name": "getFiatPrice1e18",
      "outputs": [
        {
          "internalType": "uint256",
          "name": "",
          "type": "uint256"
        }
      ],
      "stateMutability": "view",
      "type": "function"
    },
    {
      "inputs": [
        {
          "internalType": "address",
          "name": "_authControl",
          "type": "address"
        },
        {
          "internalType": "address",
          "name": "_sequencerUptimeFeed",
          "type": "address"
        }
      ],
      "name": "initialize",
      "outputs": [],
      "stateMutability": "nonpayable",
      "type": "function"
    },
    {
      "inputs": [
        {
          "internalType": "address",
          "name": "",
          "type": "address"
        }
      ],
      "name": "isPriceInETH",
      "outputs": [
        {
          "internalType": "bool",
          "name": "",
          "type": "bool"
        }
      ],
      "stateMutability": "view",
      "type": "function"
    },
    {
      "inputs": [],
      "name": "pause",
      "outputs": [],
      "stateMutability": "nonpayable",
      "type": "function"
    },
    {
      "inputs": [],
      "name": "paused",
      "outputs": [
        {
          "internalType": "bool",
          "name": "",
          "type": "bool"
        }
      ],
      "stateMutability": "view",
      "type": "function"
    },
    {
      "inputs": [
        {
          "internalType": "address",
          "name": "asset",
          "type": "address"
        },
        {
          "internalType": "address",
          "name": "chainlinkDataFeed",
          "type": "address"
        },
        {
          "internalType": "uint8",
          "name": "chainlinkDataFeedDecimals",
          "type": "uint8"
        },
        {
          "internalType": "bool",
          "name": "_isPriceInETH",
          "type": "bool"
        },
        {
          "internalType": "uint256",
          "name": "_stalenessThreshold",
          "type": "uint256"
        }
      ],
      "name": "registerAsset",
      "outputs": [],
      "stateMutability": "nonpayable",
      "type": "function"
    },
    {
      "inputs": [
        {
          "internalType": "bytes4",
          "name": "interfaceId",
          "type": "bytes4"
        }
      ],
      "name": "supportsInterface",
      "outputs": [
        {
          "internalType": "bool",
          "name": "",
          "type": "bool"
        }
      ],
      "stateMutability": "view",
      "type": "function"
    },
    {
      "inputs": [],
      "name": "unpause",
      "outputs": [],
      "stateMutability": "nonpayable",
      "type": "function"
    },
    {
      "inputs": [
        {
          "internalType": "address",
          "name": "asset",
          "type": "address"
        },
        {
          "internalType": "uint256",
          "name": "_stalenessThreshold",
          "type": "uint256"
        }
      ],
      "name": "updateStalenessThreshold",
      "outputs": [],
      "stateMutability": "nonpayable",
      "type": "function"
    }
  ],
  "numDeployments": 1,
  "solcInputHash": "403b958b64b1c77d13b9eddc7dda2091",
  "bytecode": "0x608080604052346100c1576000549060ff8260081c1661006f575060ff80821603610034575b60405161111e90816100c78239f35b60ff90811916176000557f7f26b83ff96e1f2b6a682f133852f6798a09c465da95921460cefb3847402498602060405160ff8152a138610025565b62461bcd60e51b815260206004820152602760248201527f496e697469616c697a61626c653a20636f6e747261637420697320696e697469604482015266616c697a696e6760c81b6064820152608490fd5b600080fdfe608060408181526004918236101561001657600080fd5b600092833560e01c91826301ffc9a714610b575750816303ee9f2214610b2b57816317d9c94e14610aef5781631eead007146109925781633272f67e1461095a5781633f4ba83a14610893578163438280dd14610858578163485cc955146106015781635c975abb146105dd57816371d0fb41146105a257816375b238fc146105875781638456cb591461049f5781638e5313e0146104645781638eb9212714610344578163b38234f314610309578163b9ac2b38146102be57508063bd5f5be614610284578063cf48098214610247578063d0e8fa821461020d578063d2351cee146101d3578063dc97e84e14610199578063e6741de21461015f5763e9c265181461012257600080fd5b3461015b578160031936011261015b57602090517f3b5d4cc60d3ec3516ee8ae083bd60934f6eb2a6c54b1229985c41bfb092b26038152f35b5080fd5b503461015b57602036600319011261015b576020916001600160a01b0390829082610188610bf0565b168152603485522054169051908152f35b503461015b578160031936011261015b57602090517f9a9aef7c1247d5fc769b0185c052913e39673da29a880317dfd20ebf86f26a498152f35b503461015b578160031936011261015b57602090517fb0fdd1623e42dbffda4acd8bd643e1cb69f00f0e83abeaa8150ee42cf0fd105e8152f35b503461015b578160031936011261015b57602090517f76d0567582f23e1e9d7a13eeba60f9aea9d69b8da87ca27a8bf3698b35c653db8152f35b503461015b57602036600319011261015b5760209160ff9082906001600160a01b03610271610bf0565b1681526036855220541690519015158152f35b503461015b578160031936011261015b57602090517f4f14c8366fa999817edc9f29824eb88a00cc31225e2156f399da4bc91049eb108152f35b82843461030657602036600319011261030657506102da610bf0565b9160ff603354166102f857506102f1602092610d3c565b9051908152f35b90516301ca793160e61b8152fd5b80fd5b50503461015b578160031936011261015b57602090517fd83f5343da19b478b15a140c301a868be9e02603958f38fbd822b9d5c0a289168152f35b83833461015b578060031936011261015b5761035e610bf0565b60243560ff603354166104545760018060a01b039283855460101c169281518094632474521560e21b8252878983015233602483015281604460209788935afa90811561044a57879161041d575b501561040d57841693848652603484528186205416156103fe57907f3fdda51a3d79e38997658ae2afa817c2121d46666e5ea5bb68dbe939a9d11ca7929184865260378352818187205551908152a280f35b51630719d53360e21b81528590fd5b8151631886ea7d60e11b81528790fd5b61043d9150853d8711610443575b6104358183610c21565b810190610c5a565b886103ac565b503d61042b565b83513d89823e3d90fd5b82516301ca793160e61b81528590fd5b50503461015b578160031936011261015b57602090517fe453bacb314e78dcd5192e6b1a2b1f0e7c76e92f6b7e429a6a90f04e39db3b768152f35b90503461058357826003193601126105835782548251632474521560e21b8152828101859052336024820152906020908290604490829060101c6001600160a01b03165afa908115610576578491610558575b501561054a576033549060ff821661053c575060ff1916600117603355513381527f62e78cea01bee320cd4e420270b5ea74000d11b0c9f74754ebdbfc544b05a25890602090a180f35b82516301ca793160e61b8152fd5b9051631886ea7d60e11b8152fd5b610570915060203d8111610443576104358183610c21565b386104f2565b50505051903d90823e3d90fd5b8280fd5b50503461015b578160031936011261015b5751908152602090f35b50503461015b578160031936011261015b57602090517f880a91047114272656e533301261260c75e4d11543ac7303d6fe4204579ec7278152f35b50503461015b578160031936011261015b5760209060ff6033541690519015158152f35b90503461058357816003193601126105835761061b610bf0565b91610624610c0b565b9184549060ff8260081c16159182809361084b575b8015610834575b156107da5760ff1981166001178755826107c9575b5085549360ff8560081c16156107725762010000600160b01b03601087901b1662010000600160b01b0319861681178855956001600160a01b0392908316801590811561070e575b5061070057501660018060a01b031960385416176038556106bc578380f35b610100600160b01b0319909116909117825551600181527f7f26b83ff96e1f2b6a682f133852f6798a09c465da95921460cefb384740249890602090a13880808380f35b84516384d942fd60e01b8152fd5b86516301ffc9a760e01b8152637965db0b60e01b848201529150602090829060249082905afa90811561076857899161074a575b50153861069d565b610762915060203d8111610443576104358183610c21565b38610742565b86513d8b823e3d90fd5b835162461bcd60e51b8152602081840152602b60248201527f496e697469616c697a61626c653a20636f6e7472616374206973206e6f74206960448201526a6e697469616c697a696e6760a81b6064820152608490fd5b61ffff191661010117865538610655565b835162461bcd60e51b8152602081840152602e60248201527f496e697469616c697a61626c653a20636f6e747261637420697320616c72656160448201526d191e481a5b9a5d1a585b1a5e995960921b6064820152608490fd5b50303b1580156106405750600160ff821614610640565b50600160ff821610610639565b50503461015b578160031936011261015b57602090517f39f61ca2a1a28fee144218173ec637b649a353e4026b2738c673800e5bf1437b8152f35b90503461058357826003193601126105835782548251632474521560e21b8152828101859052336024820152906020908290604490829060101c6001600160a01b03165afa90811561057657849161093c575b501561054a576033549060ff82161561092e575060ff1916603355513381527f5db9ee0a495bf2e6ff9c91a7834c1ba4fdd244a5e8aa4e537bd38aeae4b073aa90602090a180f35b8251636879228960e11b8152fd5b610954915060203d8111610443576104358183610c21565b386108e6565b50503461015b57602036600319011261015b5760209181906001600160a01b03610982610bf0565b1681526037845220549051908152f35b919050346105835760a0366003190112610583576109ae610bf0565b906109b7610c0b565b926044359160ff8316809303610aeb57606435801515809103610ae7576084359260ff6033541661053c5760018060a01b039586895460101c169184518093632474521560e21b82528b8383015233602483015281604460209687935afa908115610add578b91610ac0575b5015610ab257508616808952603482528389208054989097166001600160a01b0319909816881790965560358152828820805460ff19908116871790915560368252838920805490911660ff84161790556037815282882084905582519485528401528201527f1905d696815085213d4ca0df34ce35858f1ef8a2940f38a20741de4c4230814390606090a380f35b8451631886ea7d60e11b8152fd5b610ad79150843d8611610443576104358183610c21565b38610a23565b86513d8d823e3d90fd5b8680fd5b8580fd5b50503461015b57602036600319011261015b5760209160ff9082906001600160a01b03610b1a610bf0565b168152603585522054169051908152f35b50503461015b578160031936011261015b579054905160109190911c6001600160a01b03168152602090f35b92915034610bec576020366003190112610bec57803563ffffffff60e01b8116809103610be85784546301ffc9a760e01b8552918401526020908390602490829060101c6001600160a01b03165afa918215610bde5760209392610bbf575b50519015158152f35b610bd7919250833d8111610443576104358183610c21565b9038610bb6565b81513d85823e3d90fd5b8480fd5b8380fd5b600435906001600160a01b0382168203610c0657565b600080fd5b602435906001600160a01b0382168203610c0657565b601f909101601f19168101906001600160401b03821190821017610c4457604052565b634e487b7160e01b600052604160045260246000fd5b90816020910312610c0657518015158103610c065790565b506040513d6000823e3d90fd5b60ff60335416610c9557610c9290610d3c565b90565b6040516301ca793160e61b8152600490fd5b51906001600160501b0382168203610c0657565b908160a0910312610c0657610ccf81610ca7565b91602082015191604081015191610c92608060608401519301610ca7565b91908203918211610cfa57565b634e487b7160e01b600052601160045260246000fd5b90816020910312610c06575160ff81168103610c065790565b81810292918115918404141715610cfa57565b6001600160a01b0381811660009081526034602052604090205490919082168015610f8457610d70610d6c610f96565b1590565b610f725760049060a0610d9f610d988560018060a01b03166000526035602052604060002090565b5460ff1690565b9160405193848092633fabe5a360e21b82525afa8015610f65575b6000928391610f2c575b50610dcf9042610ced565b6001600160a01b0384166000908152603760205260409020541115610f1a576000821315610f0857610e0091611053565b91811680158015610eeb575b15610e1657505090565b610e4f6004610e6b93946020610d98946040519384809263313ce56760e01b82525afa918215610ede575b600092610eae575b50611053565b6001600160a01b03909316600090815260366020526040902090565b15610c9257610e7a6000610c7f565b908115610e9c57610c9291610e8e91610d29565b670de0b6b3a7640000900490565b60405163f174653d60e01b8152600490fd5b610ed091925060203d8111610ed7575b610ec88183610c21565b810190610d10565b9038610e49565b503d610ebe565b610ee6610c72565b610e41565b5073eeeeeeeeeeeeeeeeeeeeeeeeeeeeeeeeeeeeeeee8114610e0c565b6040516321d0ed8560e11b8152600490fd5b604051630cd5fa0760e11b8152600490fd5b610dcf9350610f52915060a03d8111610f5e575b610f4a8183610c21565b810190610cbb565b50949250509290610dc4565b503d610f40565b610f6d610c72565b610dba565b60405163bbc1ae1f60e01b8152600490fd5b60405163b0171a5d60e01b8152600490fd5b6038546001600160a01b0316801561103c5760a060049160405192838092633fabe5a360e21b82525afa8015611030576000918291611002575b50610fde610e109142610ced565b1190811591610ff7575b50610ff257600190565b600090565b600191501438610fe8565b610fde9250610e1091506110239060a03d8111610f5e57610f4a8183610c21565b5050939150929150610fd0565b6040513d6000823e3d90fd5b50600190565b60ff16604d8111610cfa57600a0a90565b9081156110e15760ff16604d8110156110cf57601281101561108d576012039060ff8211610cfa57611087610c9292611042565b90610d29565b60128111611099575090565b6011190160ff8111610cfa576110ae90611042565b9081156110b9570490565b634e487b7160e01b600052601260045260246000fd5b604051630456c65960e51b8152600490fd5b505060009056fea264697066735822122087368426317c2bf419bcb414585e362600abbb1639b4a0fc337e0fde1a50e51864736f6c63430008110033",
  "devdoc": {
    "details": "See ISuChainlinkOracle interface for full details.",
    "kind": "dev",
    "methods": {
      "constructor": {
        "custom:oz-upgrades-unsafe-allow": "constructor"
      },
      "getFiatPrice1e18(address)": {
        "params": {
          "asset": "- address of erc20 token contract"
        },
        "returns": {
          "_0": "usdPrice1e18 such that asset.balanceOf() * getFiatPrice1e18(asset) / 1e18 == $$ * 1e18*"
        }
      },
      "supportsInterface(bytes4)": {
        "details": "Returns true if this contract implements the interface defined by `interfaceId`. See the corresponding https://eips.ethereum.org/EIPS/eip-165#how-interfaces-are-identified[EIP section] to learn more about how these ids are created. This function call must use less than 30 000 gas."
      },
      "updateStalenessThreshold(address,uint256)": {
        "details": "This threshold should be set based on the Chainlink feed's heartbeat For example: - ETH/USD: 3600s (1 hour) heartbeat -> set threshold to 3600 - STETH/USD: 3600s heartbeat -> set threshold to 3600 - wstETH/USD: 86400s (24 hour) heartbeat -> set threshold to 86400",
        "params": {
          "_stalenessThreshold": "New staleness threshold in seconds",
          "asset": "The address of the asset to update"
        }
      }
    },
    "title": "SuChainlinkOracle",
    "version": 1
  },
  "userdoc": {
    "kind": "user",
    "methods": {
      "assetToFeed(address)": {
        "notice": "Data feeds addresses from https://docs.chain.link/docs/ethereum-addresses/#Goerli%20Testnet each chainlink data feed has own decimals, see the link above*"
      },
      "getFiatPrice1e18(address)": {
        "notice": "WARNING! Read this description very carefully!     function getFiatPrice1e18(address asset) returns (uint256) that:         basicAmountOfAsset * getFiatPrice1e18(asset) / 1e18 === $$ * 1e18     in other words, it doesn't matter what's the erc20.decimals is,     you just multiply token balance in basic units on value from oracle and get dollar amount multiplied on 1e18. different assets have different deviation threshold (errors)     for wBTC it's <= 0.5%, read more https://data.chain.link/ethereum/mainnet/crypto-usd/btc-usd     for other asset is can be larger based on particular oracle implementation. examples:     market price of btc = $30k,     for 0.1 wBTC the unit256 amount is 0.1 * 1e18     0.1 * 1e18 * (price1e18 / 1e18) == $3000 == uint256(3000*1e18)     => price1e18 = 30000 * 1e18;     market price of usdt = $0.97,     for 1 usdt uint256 = 1 * 1e6     so 1*1e6 * price1e18 / 1e18 == $0.97 == uint256(0.97*1e18)     => 1*1e6 * (price1e18 / 1e18) / (0.97*1e18)   = 1     =>  price1e18 = 0.97 * (1e18/1e6) * 1e18    assume market price of wBTC = $31,503.77, oracle error = $158     case #1: small amount of wBTC         we have 0.0,000,001 wBTC that is worth v = $0.00315  $0.00001 = 0.00315*1e18 = 315*1e13  1*1e13         actual balance on the asset b = wBTC.balanceOf() =  0.0000001*1e18 = 1e11         oracle should return or = oracle.getFiatPrice1e18(wBTC) <=>         <=> b*or = v => v/b = 315*1e13 / 1e11 = 315*1e2  1e2         error = or.error * b = 1e2 * 1e11 = 1e13 => 1e13/1e18 usd = 1e-5 = 0.00001 usd     case #2: large amount of wBTC         v = 2,000,000 wBTC = $31,503.77 * 2m  158*2m = $63,007,540,000  $316,000,000 = 63,007*1e24  316*1e24         for calc convenience we increase error on 0.05 and have v = 63,000*24  300*1e24 = (630  3)*1e26         b = 2*1e6 * 1e18 = 2*1e24         or = v/b = (630  3)*1e26 / 2*1e24 = 315*1e2  1.5*1e2         error = or.error * b = 1.5*100 * 2*1e24 = 3*1e26 = 3*1e8*1e18 = $300,000,000 ~ $316,000,000     assume the market price of USDT = $0.97  $0.00485,     case #3: little amount of USDT         v = USDT amount 0.005 = 0.005*(0.97  0.00485) = 0.00485*1e18  0.00002425*1e18 = 485*1e13  3*1e13         we rounded error up on (3000-2425)/2425 ~= +24% for calculation convenience.         b = USDT.balanceOf() = 0.005*1e6 = 5*1e3         b*or = v => or = v/b = (485*1e13  3*1e13) / 5*1e3 = 970*1e9  6*1e9         error = 6*1e9 * 5*1e3 / 1e18 = 30*1e12/1e18 = 3*1e-5 = $0,00005     case #4: lot of USDT         v = we have 100,000,000,000 USDT = $97B = 97*1e9*1e18  0.5*1e9*1e18         b = USDT.balanceOf() = 1e11*1e6 = 1e17         or = v/b = (97*1e9*1e18  0.5*1e9*1e18) / 1e17 = 970*1e9  5*1e9         error = 5*1e9 * 1e17 = 5*1e26 = 0.5 * 1e8*1e18"
      },
      "initialize(address,address)": {
        "notice": "For a list of available Sequencer Uptime Feed proxy addresses, see: https://docs.chain.link/docs/data-feeds/l2-sequencer-feeds"
      },
      "updateStalenessThreshold(address,uint256)": {
        "notice": "Updates the staleness threshold for a specific asset"
      }
    },
    "notice": "Oracle that use Chainlink prices",
    "version": 1
  },
  "storageLayout": {
    "storage": [
      {
        "astId": 1226,
        "contract": "contracts/exchange/contracts/periphery/contracts/oracle/SuChainlinkOracle.sol:SuChainlinkOracle",
        "label": "_initialized",
        "offset": 0,
        "slot": "0",
        "type": "t_uint8"
      },
      {
        "astId": 1229,
        "contract": "contracts/exchange/contracts/periphery/contracts/oracle/SuChainlinkOracle.sol:SuChainlinkOracle",
        "label": "_initializing",
        "offset": 1,
        "slot": "0",
        "type": "t_bool"
      },
      {
        "astId": 22590,
        "contract": "contracts/exchange/contracts/periphery/contracts/oracle/SuChainlinkOracle.sol:SuChainlinkOracle",
        "label": "ACCESS_CONTROL_SINGLETON",
        "offset": 2,
        "slot": "0",
        "type": "t_contract(ISuAccessControl)27027"
      },
      {
        "astId": 22861,
        "contract": "contracts/exchange/contracts/periphery/contracts/oracle/SuChainlinkOracle.sol:SuChainlinkOracle",
        "label": "__gap",
        "offset": 0,
        "slot": "1",
        "type": "t_array(t_uint256)50_storage"
      },
      {
        "astId": 22342,
        "contract": "contracts/exchange/contracts/periphery/contracts/oracle/SuChainlinkOracle.sol:SuChainlinkOracle",
        "label": "paused",
        "offset": 0,
        "slot": "51",
        "type": "t_bool"
      },
      {
        "astId": 29373,
        "contract": "contracts/exchange/contracts/periphery/contracts/oracle/SuChainlinkOracle.sol:SuChainlinkOracle",
        "label": "assetToFeed",
        "offset": 0,
        "slot": "52",
        "type": "t_mapping(t_address,t_address)"
      },
      {
        "astId": 29377,
        "contract": "contracts/exchange/contracts/periphery/contracts/oracle/SuChainlinkOracle.sol:SuChainlinkOracle",
        "label": "assetToFeedDecimals",
        "offset": 0,
        "slot": "53",
        "type": "t_mapping(t_address,t_uint8)"
      },
      {
        "astId": 29381,
        "contract": "contracts/exchange/contracts/periphery/contracts/oracle/SuChainlinkOracle.sol:SuChainlinkOracle",
        "label": "isPriceInETH",
        "offset": 0,
        "slot": "54",
        "type": "t_mapping(t_address,t_bool)"
      },
      {
        "astId": 29388,
        "contract": "contracts/exchange/contracts/periphery/contracts/oracle/SuChainlinkOracle.sol:SuChainlinkOracle",
        "label": "assetStalenessThreshold",
        "offset": 0,
        "slot": "55",
        "type": "t_mapping(t_address,t_uint256)"
      },
      {
        "astId": 29390,
        "contract": "contracts/exchange/contracts/periphery/contracts/oracle/SuChainlinkOracle.sol:SuChainlinkOracle",
        "label": "sequencerUptimeFeed",
        "offset": 0,
        "slot": "56",
        "type": "t_address"
      },
      {
        "astId": 29741,
        "contract": "contracts/exchange/contracts/periphery/contracts/oracle/SuChainlinkOracle.sol:SuChainlinkOracle",
        "label": "__gap",
        "offset": 0,
        "slot": "57",
        "type": "t_array(t_uint256)50_storage"
      }
    ],
    "types": {
      "t_address": {
        "encoding": "inplace",
        "label": "address",
        "numberOfBytes": "20"
      },
      "t_array(t_uint256)50_storage": {
        "base": "t_uint256",
        "encoding": "inplace",
        "label": "uint256[50]",
        "numberOfBytes": "1600"
      },
      "t_bool": {
        "encoding": "inplace",
        "label": "bool",
        "numberOfBytes": "1"
      },
      "t_contract(ISuAccessControl)27027": {
        "encoding": "inplace",
        "label": "contract ISuAccessControl",
        "numberOfBytes": "20"
      },
      "t_mapping(t_address,t_address)": {
        "encoding": "mapping",
        "key": "t_address",
        "label": "mapping(address => address)",
        "numberOfBytes": "32",
        "value": "t_address"
      },
      "t_mapping(t_address,t_bool)": {
        "encoding": "mapping",
        "key": "t_address",
        "label": "mapping(address => bool)",
        "numberOfBytes": "32",
        "value": "t_bool"
      },
      "t_mapping(t_address,t_uint256)": {
        "encoding": "mapping",
        "key": "t_address",
        "label": "mapping(address => uint256)",
        "numberOfBytes": "32",
        "value": "t_uint256"
      },
      "t_mapping(t_address,t_uint8)": {
        "encoding": "mapping",
        "key": "t_address",
        "label": "mapping(address => uint8)",
        "numberOfBytes": "32",
        "value": "t_uint8"
      },
      "t_uint256": {
        "encoding": "inplace",
        "label": "uint256",
        "numberOfBytes": "32"
      },
      "t_uint8": {
        "encoding": "inplace",
        "label": "uint8",
        "numberOfBytes": "1"
      }
    }
  }
}