{
  "address": "0xe3841d3F270a7AA7ad0713e83a5E2cc0860E89CF",
  "abi": [
    {
      "inputs": [],
      "name": "BadAccessControlSingleton",
      "type": "error"
    },
    {
      "inputs": [],
      "name": "BadPriceAnswer",
      "type": "error"
    },
    {
      "inputs": [],
      "name": "OnlyAdminError",
      "type": "error"
    },
    {
      "inputs": [],
      "name": "OnlyAlerterError",
      "type": "error"
    },
    {
      "inputs": [],
      "name": "OnlyDAOError",
      "type": "error"
    },
    {
      "inputs": [],
      "name": "OnlyLiquidationAccessError",
      "type": "error"
    },
    {
      "inputs": [],
      "name": "OnlyMintAccessError",
      "type": "error"
    },
    {
      "inputs": [],
      "name": "OnlyRewardAccessError",
      "type": "error"
    },
    {
      "inputs": [],
      "name": "OnlyRoleError",
      "type": "error"
    },
    {
      "inputs": [],
      "name": "OnlyVaultAccessError",
      "type": "error"
    },
    {
      "anonymous": false,
      "inputs": [
        {
          "indexed": false,
          "internalType": "uint8",
          "name": "version",
          "type": "uint8"
        }
      ],
      "name": "Initialized",
      "type": "event"
    },
    {
      "inputs": [],
      "name": "ACCESS_CONTROL_SINGLETON",
      "outputs": [
        {
          "internalType": "contract ISuAccessControl",
          "name": "",
          "type": "address"
        }
      ],
      "stateMutability": "view",
      "type": "function"
    },
    {
      "inputs": [],
      "name": "ADMIN_ROLE",
      "outputs": [
        {
          "internalType": "bytes32",
          "name": "",
          "type": "bytes32"
        }
      ],
      "stateMutability": "view",
      "type": "function"
    },
    {
      "inputs": [],
      "name": "ALERTER_ROLE",
      "outputs": [
        {
          "internalType": "bytes32",
          "name": "",
          "type": "bytes32"
        }
      ],
      "stateMutability": "view",
      "type": "function"
    },
    {
      "inputs": [],
      "name": "DAO_ROLE",
      "outputs": [
        {
          "internalType": "bytes32",
          "name": "",
          "type": "bytes32"
        }
      ],
      "stateMutability": "view",
      "type": "function"
    },
    {
      "inputs": [],
      "name": "LIQUIDATION_ACCESS_ROLE",
      "outputs": [
        {
          "internalType": "bytes32",
          "name": "",
          "type": "bytes32"
        }
      ],
      "stateMutability": "view",
      "type": "function"
    },
    {
      "inputs": [],
      "name": "MINT_ACCESS_ROLE",
      "outputs": [
        {
          "internalType": "bytes32",
          "name": "",
          "type": "bytes32"
        }
      ],
      "stateMutability": "view",
      "type": "function"
    },
    {
      "inputs": [],
      "name": "REWARD_ACCESS_ROLE",
      "outputs": [
        {
          "internalType": "bytes32",
          "name": "",
          "type": "bytes32"
        }
      ],
      "stateMutability": "view",
      "type": "function"
    },
    {
      "inputs": [],
      "name": "VAULT_ACCESS_ROLE",
      "outputs": [
        {
          "internalType": "bytes32",
          "name": "",
          "type": "bytes32"
        }
      ],
      "stateMutability": "view",
      "type": "function"
    },
    {
      "inputs": [
        {
          "internalType": "address",
          "name": "",
          "type": "address"
        }
      ],
      "name": "assetToFeed",
      "outputs": [
        {
          "internalType": "address",
          "name": "",
          "type": "address"
        }
      ],
      "stateMutability": "view",
      "type": "function"
    },
    {
      "inputs": [
        {
          "internalType": "address",
          "name": "",
          "type": "address"
        }
      ],
      "name": "assetToFeedDecimals",
      "outputs": [
        {
          "internalType": "uint8",
          "name": "",
          "type": "uint8"
        }
      ],
      "stateMutability": "view",
      "type": "function"
    },
    {
      "inputs": [
        {
          "internalType": "address",
          "name": "asset",
          "type": "address"
        }
      ],
      "name": "getFiatPrice1e18",
      "outputs": [
        {
          "internalType": "uint256",
          "name": "",
          "type": "uint256"
        }
      ],
      "stateMutability": "view",
      "type": "function"
    },
    {
      "inputs": [
        {
          "internalType": "address",
          "name": "_authControl",
          "type": "address"
        }
      ],
      "name": "initialize",
      "outputs": [],
      "stateMutability": "nonpayable",
      "type": "function"
    },
    {
      "inputs": [
        {
          "internalType": "address",
          "name": "asset",
          "type": "address"
        },
        {
          "internalType": "address",
          "name": "chainlinkDataFeed",
          "type": "address"
        },
        {
          "internalType": "uint8",
          "name": "chainlinkDataFeedDecimals",
          "type": "uint8"
        }
      ],
      "name": "setAssetFeed",
      "outputs": [],
      "stateMutability": "nonpayable",
      "type": "function"
    },
    {
      "inputs": [
        {
          "internalType": "bytes4",
          "name": "interfaceId",
          "type": "bytes4"
        }
      ],
      "name": "supportsInterface",
      "outputs": [
        {
          "internalType": "bool",
          "name": "",
          "type": "bool"
        }
      ],
      "stateMutability": "view",
      "type": "function"
    }
  ],
  "numDeployments": 2,
  "solcInputHash": "35752a6382680fb35d9a108017dd3bcc",
  "bytecode": "0x608080604052346100165761098e908161001c8239f35b600080fdfe608060408181526004918236101561001657600080fd5b600092833560e01c91826301ffc9a7146107615750816303ee9f221461073557816314c376dc146106fa57816317d9c94e146106be578163438280dd1461068357816371d0fb411461064857816375b238fc1461062d578163762c21291461052f5781638e5313e0146104f4578163b9ac2b3814610398578163c4d66de81461015e57508063dc97e84e14610124578063e6741de2146100ea5763e9c26518146100bf57600080fd5b346100e657816003193601126100e657602090516000805160206109398339815191528152f35b5080fd5b50346100e65760203660031901126100e6576020916001600160a01b03908290826101136107f6565b168152600185522054169051908152f35b50346100e657816003193601126100e657602090517f9a9aef7c1247d5fc769b0185c052913e39673da29a880317dfd20ebf86f26a498152f35b9190503461039457602090816003193601126103905761017c6107f6565b845460ff8160081c161590818092610383575b801561036c575b156103125760ff198116600117875581610301575b5085549460ff8660081c16156102aa5762010000600160b01b03601084901b1662010000600160b01b031987168117885584516301ffc9a760e01b8152637965db0b60e01b8382015290938690829060249082906001600160a01b03165afa9081156102a0578891610273575b50156102655750610227578480f35b7f7f26b83ff96e1f2b6a682f133852f6798a09c465da95921460cefb384740249893610100600160b01b0319161784555160018152a1388080808480f35b83516384d942fd60e01b8152fd5b6102939150863d8811610299575b61028b8183610811565b81019061084a565b38610218565b503d610281565b85513d8a823e3d90fd5b835162461bcd60e51b8152908101859052602b60248201527f496e697469616c697a61626c653a20636f6e7472616374206973206e6f74206960448201526a6e697469616c697a696e6760a81b6064820152608490fd5b61ffff1916610101178655386101ab565b835162461bcd60e51b8152808701869052602e60248201527f496e697469616c697a61626c653a20636f6e747261637420697320616c72656160448201526d191e481a5b9a5d1a585b1a5e995960921b6064820152608490fd5b50303b1580156101965750600160ff821614610196565b50600160ff82161061018f565b8380fd5b8280fd5b82843461047957602092836003193601126100e6576001600160a01b0391826103bf6107f6565b1692838252600186528482205416600286528260a060ff878520541692875192838092633fabe5a360e21b82525afa9081156104ea57839161049f575b508281131561048f5786916104109161089a565b9385519384809263313ce56760e01b82525afa918215610483578192610443575b505061043c9161089a565b9051908152f35b9091508481813d831161047c575b61045b8183610811565b810103126100e657519060ff82168203610479575061043c85610431565b80fd5b503d610451565b508351903d90823e3d90fd5b85516321d0ed8560e11b81528490fd5b905060a0813d82116104e2575b816104b960a09383610811565b81010312610394576104ca81610862565b506104db6080888301519201610862565b50876103fc565b3d91506104ac565b86513d85823e3d90fd5b5050346100e657816003193601126100e657602090517fe453bacb314e78dcd5192e6b1a2b1f0e7c76e92f6b7e429a6a90f04e39db3b768152f35b919050346103945760603660031901126103945761054b6107f6565b6001600160a01b036024358181169290839003610629576044359460ff8616809603610625576044602084895460101c16875192838092632474521560e21b8252600080516020610939833981519152878301523360248301525afa90811561061b5788916105fd575b50156105ef57501684526001602090815282852080546001600160a01b031916909217909155600290528220805460ff1916909117905580f35b845163599a6c3360e11b8152fd5b610615915060203d81116102995761028b8183610811565b386105b5565b86513d8a823e3d90fd5b8680fd5b8580fd5b5050346100e657816003193601126100e65751908152602090f35b5050346100e657816003193601126100e657602090517f880a91047114272656e533301261260c75e4d11543ac7303d6fe4204579ec7278152f35b5050346100e657816003193601126100e657602090517f39f61ca2a1a28fee144218173ec637b649a353e4026b2738c673800e5bf1437b8152f35b5050346100e65760203660031901126100e65760209160ff9082906001600160a01b036106e96107f6565b168152600285522054169051908152f35b5050346100e657816003193601126100e657602090517fe965846df3dd5b1dfa65f58e31477079e90140e0908b6dd31b5aead5a57cf3658152f35b5050346100e657816003193601126100e6579054905160109190911c6001600160a01b03168152602090f35b9291503461039057602036600319011261039057803563ffffffff60e01b81168091036107f25784546301ffc9a760e01b8552918401526020908390602490829060101c6001600160a01b03165afa9182156107e857602093926107c9575b50519015158152f35b6107e1919250833d81116102995761028b8183610811565b90386107c0565b81513d85823e3d90fd5b8480fd5b600435906001600160a01b038216820361080c57565b600080fd5b601f909101601f19168101906001600160401b0382119082101761083457604052565b634e487b7160e01b600052604160045260246000fd5b9081602091031261080c5751801515810361080c5790565b51906001600160501b038216820361080c57565b604d811161088457600a0a90565b634e487b7160e01b600052601160045260246000fd5b9060ff1660128110156108e25760120360ff81116108845760ff6108be9116610876565b818102919060008212600160ff1b8214166108845781830514901517156108845790565b601281116108ee575090565b6011190160ff81116108845760ff6109069116610876565b90811561092257600160ff1b8114600019831416610884570590565b634e487b7160e01b600052601260045260246000fdfe3b5d4cc60d3ec3516ee8ae083bd60934f6eb2a6c54b1229985c41bfb092b2603a2646970667358221220ee5e657fca56235e6a3e4849c4931a57604265271a39abbd68db2cc732437c7664736f6c63430008110033",
  "devdoc": {
    "details": "See ISuChainlinkOracle interface for full details.",
    "kind": "dev",
    "methods": {
      "getFiatPrice1e18(address)": {
        "params": {
          "asset": "- address of erc20 token contract"
        },
        "returns": {
          "_0": "usdPrice1e18 such that asset.balanceOf() * getFiatPrice1e18(asset) / 1e18 == $$ * 1e18*"
        }
      },
      "supportsInterface(bytes4)": {
        "details": "Returns true if this contract implements the interface defined by `interfaceId`. See the corresponding https://eips.ethereum.org/EIPS/eip-165#how-interfaces-are-identified[EIP section] to learn more about how these ids are created. This function call must use less than 30 000 gas."
      }
    },
    "title": "SuChainlinkOracle",
    "version": 1
  },
  "userdoc": {
    "kind": "user",
    "methods": {
      "assetToFeed(address)": {
        "notice": "Data feeds addresses from https://docs.chain.link/docs/ethereum-addresses/#Goerli%20Testnet each chainlink data feed has own decimals, see the link above*"
      },
      "getFiatPrice1e18(address)": {
        "notice": "WARNING! Read this description very carefully!     function getFiatPrice1e18(address asset) returns (uint256) that:         basicAmountOfAsset * getFiatPrice1e18(asset) / 1e18 === $$ * 1e18     in other words, it doesn't matter what's the erc20.decimals is,     you just multiply token balance in basic units on value from oracle and get dollar amount multiplied on 1e18. different assets have different deviation threshold (errors)     for wBTC it's <= 0.5%, read more https://data.chain.link/ethereum/mainnet/crypto-usd/btc-usd     for other asset is can be larger based on particular oracle implementation. examples:     market price of btc = $30k,     for 0.1 wBTC the unit256 amount is 0.1 * 1e18     0.1 * 1e18 * (price1e18 / 1e18) == $3000 == uint256(3000*1e18)     => price1e18 = 30000 * 1e18;     market price of usdt = $0.97,     for 1 usdt uint256 = 1 * 1e6     so 1*1e6 * price1e18 / 1e18 == $0.97 == uint256(0.97*1e18)     => 1*1e6 * (price1e18 / 1e18) / (0.97*1e18)   = 1     =>  price1e18 = 0.97 * (1e18/1e6) * 1e18    assume market price of wBTC = $31,503.77, oracle error = $158     case #1: small amount of wBTC         we have 0.0,000,001 wBTC that is worth v = $0.00315  $0.00001 = 0.00315*1e18 = 315*1e13  1*1e13         actual balance on the asset b = wBTC.balanceOf() =  0.0000001*1e18 = 1e11         oracle should return or = oracle.getFiatPrice1e18(wBTC) <=>         <=> b*or = v => v/b = 315*1e13 / 1e11 = 315*1e2  1e2         error = or.error * b = 1e2 * 1e11 = 1e13 => 1e13/1e18 usd = 1e-5 = 0.00001 usd     case #2: large amount of wBTC         v = 2,000,000 wBTC = $31,503.77 * 2m  158*2m = $63,007,540,000  $316,000,000 = 63,007*1e24  316*1e24         for calc convenience we increase error on 0.05 and have v = 63,000*24  300*1e24 = (630  3)*1e26         b = 2*1e6 * 1e18 = 2*1e24         or = v/b = (630  3)*1e26 / 2*1e24 = 315*1e2  1.5*1e2         error = or.error * b = 1.5*100 * 2*1e24 = 3*1e26 = 3*1e8*1e18 = $300,000,000 ~ $316,000,000     assume the market price of USDT = $0.97  $0.00485,     case #3: little amount of USDT         v = USDT amount 0.005 = 0.005*(0.97  0.00485) = 0.00485*1e18  0.00002425*1e18 = 485*1e13  3*1e13         we rounded error up on (3000-2425)/2425 ~= +24% for calculation convenience.         b = USDT.balanceOf() = 0.005*1e6 = 5*1e3         b*or = v => or = v/b = (485*1e13  3*1e13) / 5*1e3 = 970*1e9  6*1e9         error = 6*1e9 * 5*1e3 / 1e18 = 30*1e12/1e18 = 3*1e-5 = $0,00005     case #4: lot of USDT         v = we have 100,000,000,000 USDT = $97B = 97*1e9*1e18  0.5*1e9*1e18         b = USDT.balanceOf() = 1e11*1e6 = 1e17         or = v/b = (97*1e9*1e18  0.5*1e9*1e18) / 1e17 = 970*1e9  5*1e9         error = 5*1e9 * 1e17 = 5*1e26 = 0.5 * 1e8*1e18"
      }
    },
    "notice": "Oracle that use Chainlink prices",
    "version": 1
  },
  "storageLayout": {
    "storage": [
      {
        "astId": 671,
        "contract": "contracts/periphery/contracts/oracle/SuChainlinkOracle.sol:SuChainlinkOracle",
        "label": "_initialized",
        "offset": 0,
        "slot": "0",
        "type": "t_uint8"
      },
      {
        "astId": 674,
        "contract": "contracts/periphery/contracts/oracle/SuChainlinkOracle.sol:SuChainlinkOracle",
        "label": "_initializing",
        "offset": 1,
        "slot": "0",
        "type": "t_bool"
      },
      {
        "astId": 23399,
        "contract": "contracts/periphery/contracts/oracle/SuChainlinkOracle.sol:SuChainlinkOracle",
        "label": "ACCESS_CONTROL_SINGLETON",
        "offset": 2,
        "slot": "0",
        "type": "t_contract(ISuAccessControl)26587"
      },
      {
        "astId": 27532,
        "contract": "contracts/periphery/contracts/oracle/SuChainlinkOracle.sol:SuChainlinkOracle",
        "label": "assetToFeed",
        "offset": 0,
        "slot": "1",
        "type": "t_mapping(t_address,t_address)"
      },
      {
        "astId": 27536,
        "contract": "contracts/periphery/contracts/oracle/SuChainlinkOracle.sol:SuChainlinkOracle",
        "label": "assetToFeedDecimals",
        "offset": 0,
        "slot": "2",
        "type": "t_mapping(t_address,t_uint8)"
      }
    ],
    "types": {
      "t_address": {
        "encoding": "inplace",
        "label": "address",
        "numberOfBytes": "20"
      },
      "t_bool": {
        "encoding": "inplace",
        "label": "bool",
        "numberOfBytes": "1"
      },
      "t_contract(ISuAccessControl)26587": {
        "encoding": "inplace",
        "label": "contract ISuAccessControl",
        "numberOfBytes": "20"
      },
      "t_mapping(t_address,t_address)": {
        "encoding": "mapping",
        "key": "t_address",
        "label": "mapping(address => address)",
        "numberOfBytes": "32",
        "value": "t_address"
      },
      "t_mapping(t_address,t_uint8)": {
        "encoding": "mapping",
        "key": "t_address",
        "label": "mapping(address => uint8)",
        "numberOfBytes": "32",
        "value": "t_uint8"
      },
      "t_uint8": {
        "encoding": "inplace",
        "label": "uint8",
        "numberOfBytes": "1"
      }
    }
  }
}