{
  "address": "0x7a6B94257B9bB8207B03F99b954bd5357bED4C6C",
  "abi": [
    {
      "inputs": [],
      "name": "BadAccessControlSingleton",
      "type": "error"
    },
    {
      "inputs": [
        {
          "internalType": "address",
          "name": "badStablecoin",
          "type": "address"
        }
      ],
      "name": "BadStablecoin",
      "type": "error"
    },
    {
      "inputs": [],
      "name": "NoProfit",
      "type": "error"
    },
    {
      "inputs": [],
      "name": "NoStablePro",
      "type": "error"
    },
    {
      "inputs": [],
      "name": "OnlyAdminError",
      "type": "error"
    },
    {
      "inputs": [],
      "name": "OnlyAlerterError",
      "type": "error"
    },
    {
      "inputs": [],
      "name": "OnlyDAOError",
      "type": "error"
    },
    {
      "inputs": [],
      "name": "OnlyLiquidationAccessError",
      "type": "error"
    },
    {
      "inputs": [],
      "name": "OnlyMintAccessError",
      "type": "error"
    },
    {
      "inputs": [],
      "name": "OnlyRewardAccessError",
      "type": "error"
    },
    {
      "inputs": [],
      "name": "OnlyRoleError",
      "type": "error"
    },
    {
      "inputs": [],
      "name": "OnlyVaultAccessError",
      "type": "error"
    },
    {
      "anonymous": false,
      "inputs": [
        {
          "indexed": false,
          "internalType": "uint256",
          "name": "debt",
          "type": "uint256"
        }
      ],
      "name": "CollateralBorrowed",
      "type": "event"
    },
    {
      "anonymous": false,
      "inputs": [
        {
          "indexed": false,
          "internalType": "uint8",
          "name": "version",
          "type": "uint8"
        }
      ],
      "name": "Initialized",
      "type": "event"
    },
    {
      "anonymous": false,
      "inputs": [
        {
          "indexed": false,
          "internalType": "uint256",
          "name": "amount",
          "type": "uint256"
        }
      ],
      "name": "StableProSwapped",
      "type": "event"
    },
    {
      "inputs": [],
      "name": "ACCESS_CONTROL_SINGLETON",
      "outputs": [
        {
          "internalType": "contract ISuAccessControl",
          "name": "",
          "type": "address"
        }
      ],
      "stateMutability": "view",
      "type": "function"
    },
    {
      "inputs": [],
      "name": "ADMIN_ROLE",
      "outputs": [
        {
          "internalType": "bytes32",
          "name": "",
          "type": "bytes32"
        }
      ],
      "stateMutability": "view",
      "type": "function"
    },
    {
      "inputs": [],
      "name": "ALERTER_ROLE",
      "outputs": [
        {
          "internalType": "bytes32",
          "name": "",
          "type": "bytes32"
        }
      ],
      "stateMutability": "view",
      "type": "function"
    },
    {
      "inputs": [],
      "name": "DAO_ROLE",
      "outputs": [
        {
          "internalType": "bytes32",
          "name": "",
          "type": "bytes32"
        }
      ],
      "stateMutability": "view",
      "type": "function"
    },
    {
      "inputs": [],
      "name": "LIQUIDATION_ACCESS_ROLE",
      "outputs": [
        {
          "internalType": "bytes32",
          "name": "",
          "type": "bytes32"
        }
      ],
      "stateMutability": "view",
      "type": "function"
    },
    {
      "inputs": [],
      "name": "MINT_ACCESS_ROLE",
      "outputs": [
        {
          "internalType": "bytes32",
          "name": "",
          "type": "bytes32"
        }
      ],
      "stateMutability": "view",
      "type": "function"
    },
    {
      "inputs": [],
      "name": "REWARD_ACCESS_ROLE",
      "outputs": [
        {
          "internalType": "bytes32",
          "name": "",
          "type": "bytes32"
        }
      ],
      "stateMutability": "view",
      "type": "function"
    },
    {
      "inputs": [],
      "name": "VAULT_ACCESS_ROLE",
      "outputs": [
        {
          "internalType": "bytes32",
          "name": "",
          "type": "bytes32"
        }
      ],
      "stateMutability": "view",
      "type": "function"
    },
    {
      "inputs": [
        {
          "internalType": "address",
          "name": "_stablecoin",
          "type": "address"
        }
      ],
      "name": "addWhitelistStablecoin",
      "outputs": [],
      "stateMutability": "nonpayable",
      "type": "function"
    },
    {
      "inputs": [
        {
          "internalType": "address",
          "name": "collateral",
          "type": "address"
        },
        {
          "internalType": "uint256",
          "name": "amount",
          "type": "uint256"
        },
        {
          "internalType": "uint256",
          "name": "debt",
          "type": "uint256"
        }
      ],
      "name": "borrowCollateralToSell",
      "outputs": [],
      "stateMutability": "nonpayable",
      "type": "function"
    },
    {
      "inputs": [],
      "name": "foundation",
      "outputs": [
        {
          "internalType": "address",
          "name": "",
          "type": "address"
        }
      ],
      "stateMutability": "view",
      "type": "function"
    },
    {
      "inputs": [
        {
          "internalType": "address",
          "name": "_stablecoin",
          "type": "address"
        }
      ],
      "name": "hasWhitelistStablecoin",
      "outputs": [
        {
          "internalType": "bool",
          "name": "",
          "type": "bool"
        }
      ],
      "stateMutability": "view",
      "type": "function"
    },
    {
      "inputs": [
        {
          "internalType": "address",
          "name": "_authControl",
          "type": "address"
        },
        {
          "internalType": "address",
          "name": "_suExchangeModule",
          "type": "address"
        },
        {
          "internalType": "address",
          "name": "_suOracle",
          "type": "address"
        },
        {
          "internalType": "address",
          "name": "_stablePro",
          "type": "address"
        },
        {
          "internalType": "address",
          "name": "_foundation",
          "type": "address"
        }
      ],
      "name": "initialize",
      "outputs": [],
      "stateMutability": "nonpayable",
      "type": "function"
    },
    {
      "inputs": [],
      "name": "middlewareDebt",
      "outputs": [
        {
          "internalType": "int256",
          "name": "",
          "type": "int256"
        }
      ],
      "stateMutability": "view",
      "type": "function"
    },
    {
      "inputs": [
        {
          "internalType": "address",
          "name": "_stablecoin",
          "type": "address"
        }
      ],
      "name": "removeWhitelistStablecoin",
      "outputs": [],
      "stateMutability": "nonpayable",
      "type": "function"
    },
    {
      "inputs": [],
      "name": "sendProfitToFoundation",
      "outputs": [],
      "stateMutability": "nonpayable",
      "type": "function"
    },
    {
      "inputs": [],
      "name": "sendStableProToDAO",
      "outputs": [],
      "stateMutability": "nonpayable",
      "type": "function"
    },
    {
      "inputs": [],
      "name": "stablePro",
      "outputs": [
        {
          "internalType": "address",
          "name": "",
          "type": "address"
        }
      ],
      "stateMutability": "view",
      "type": "function"
    },
    {
      "inputs": [
        {
          "internalType": "bytes4",
          "name": "interfaceId",
          "type": "bytes4"
        }
      ],
      "name": "supportsInterface",
      "outputs": [
        {
          "internalType": "bool",
          "name": "",
          "type": "bool"
        }
      ],
      "stateMutability": "view",
      "type": "function"
    },
    {
      "inputs": [
        {
          "internalType": "address",
          "name": "stablecoinToken",
          "type": "address"
        },
        {
          "internalType": "uint256",
          "name": "stableProAmountE18",
          "type": "uint256"
        }
      ],
      "name": "swapStableProToStablecoin",
      "outputs": [],
      "stateMutability": "nonpayable",
      "type": "function"
    }
  ],
  "numDeployments": 1,
  "solcInputHash": "35752a6382680fb35d9a108017dd3bcc",
  "bytecode": "0x60808060405234610016576111c0908161001c8239f35b600080fdfe6080604081815260048036101561001557600080fd5b600092833560e01c90816301ffc9a714610da85750806303ee9f2214610d7c5780631459457a14610ae257806314c376dc14610aa757806324f204ce146109b457806341fbb0501461098b578063438280dd14610950578063550a1e001461070857806371d0fb41146106cd57806375b238fc146106b25780637ae8b2e1146106175780637d2f775a146104f25780638e5313e0146104b7578063c1c5017614610498578063d09a79dd146103e0578063d46e50d0146103b9578063dc97e84e14610390578063de51eefd1461034a578063e9c265181461031d5763fb313187146100ff57600080fd5b3461031957606036600319011261031957610118610e3e565b6024356044359160018060a01b0380875460101c169486518096632474521560e21b825260008051602061116b833981519152838301523360248301528160446020998a935afa90811561030f5789916102f2575b50156102e457600654156102d1576006885281868920541692600554868101908a88831291129080158216911516176102be57836101cf959493928b926005551693888785600254168c51988992839263095ea7b360e01b8452888401610eaa565b038185895af19384156102b457899660a495610287575b5060025416908a51978896879563c3f2b67d60e01b875286015260248501526044840152306064840152600160848401525af1801561027d5761024f575b507f44774e2297d3db5bced0cfd5129ff61632a7d013f5aa953ccbc8a829d56aee099251908152a180f35b8290813d8311610276575b6102648183610e59565b810103126102725738610224565b8380fd5b503d61025a565b84513d87823e3d90fd5b6102a690883d8a116102ad575b61029e8183610e59565b810190610e92565b50386101e6565b503d610294565b8a513d84823e3d90fd5b634e487b7160e01b8a526011835260248afd5b634e487b7160e01b885260329052602487fd5b865163200ab6d960e01b8152fd5b6103099150873d89116102ad5761029e8183610e59565b3861016d565b88513d8b823e3d90fd5b8280fd5b5050346103465781600319360112610346576020905160008051602061114b8339815191528152f35b5080fd5b505034610346576020366003190112610346576020906103876001600160a01b03610373610e3e565b166000526007602052604060002054151590565b90519015158152f35b5050346103465781600319360112610346576020905160008051602061116b8339815191528152f35b50346103195782600319360112610319575490516001600160a01b03909116815260209150f35b50919034610346576020366003190112610346576103fc610e3e565b82548251632474521560e21b815260008051602061114b833981519152868201523360248201526001600160a01b0393916020908290604490829060101c88165afa90811561048e578591610470575b5015610461575061045d9116610fe1565b5080f35b5163599a6c3360e11b81528490fd5b610488915060203d81116102ad5761029e8183610e59565b3861044c565b82513d87823e3d90fd5b5050346103465781600319360112610346576020906005549051908152f35b505034610346578160031936011261034657602090517fe453bacb314e78dcd5192e6b1a2b1f0e7c76e92f6b7e429a6a90f04e39db3b768152f35b5091903461034657816003193601126103465781548151632474521560e21b815260008051602061114b83398151915285820152336024820152602092916001600160a01b03919084908290604490829060101c86165afa90811561060d5785916105f0575b50156105e0578454169080516370a0823160e01b815230868201528381602481865afa93841561048e5785946105b0575b505082156105a157509061059e913390610f35565b80f35b51632d7de5ad60e11b81528490fd5b9080929450813d83116105d9575b6105c88183610e59565b810103126102725751913880610589565b503d6105be565b815163599a6c3360e11b81528590fd5b6106079150843d86116102ad5761029e8183610e59565b38610558565b83513d87823e3d90fd5b5091903461034657602036600319011261034657610633610e3e565b82548251632474521560e21b815260008051602061114b833981519152868201523360248201526001600160a01b0393916020908290604490829060101c88165afa90811561048e578591610694575b5015610461575061045d9116611060565b6106ac915060203d81116102ad5761029e8183610e59565b38610683565b50503461034657816003193601126103465751908152602090f35b505034610346578160031936011261034657602090517f880a91047114272656e533301261260c75e4d11543ac7303d6fe4204579ec7278152f35b50829034610346578260031936011261034657610723610e3e565b9060249384359160018060a01b039384811661074c816000526007602052604060002054151590565b1561093b57670de0b6b3a7640000808602908682041486151715610929578660015416968551978893631735856760e31b855286850152838b60209a8b935afa92831561091f5790899182946108e8575b5083156108d6578554168651898101906323b872dd60e01b8252338d8201523060448201528960648201526064815260a0810181811060018060401b038211176108c4578493929184918b5251925af16107f5610ef6565b81610894575b501561086c5790610810929104903390610f35565b6005548381039190868512801582851316918412161761085a57507f062234b32cab33fa5bcd957e318141fefab38cc79f25ec5b972be8392e98cb6c94955060055551908152a180f35b634e487b7160e01b8652601190528585fd5b845162461bcd60e51b81528085018890526003818b01526229aa2360e91b6044820152606490fd5b805180159250899083156108ac575b5050508a6107fb565b6108bc9350820181019101610e92565b8a88816108a3565b634e487b7160e01b8552604189528d85fd5b634e487b7160e01b8252601286528a82fd5b89809295508193503d8311610918575b6109028183610e59565b8101031261091457889051928b61079d565b8880fd5b503d6108f8565b86513d8b823e3d90fd5b634e487b7160e01b8852601184528888fd5b905086925191633935d9fb60e21b8352820152fd5b505034610346578160031936011261034657602090517f39f61ca2a1a28fee144218173ec637b649a353e4026b2738c673800e5bf1437b8152f35b50503461034657816003193601126103465760035490516001600160a01b039091168152602090f35b5091903461034657816003193601126103465781548151632474521560e21b815260008051602061114b833981519152858201523360248201526001600160a01b0392916020908290604490829060101c87165afa908115610a9d578491610a7f575b5015610a70576005549083821215610a6157508354600354908316921690600160ff1b8114610a4e578361059e9495500391610f35565b634e487b7160e01b845260118552602484fd5b516371cd57f760e11b81528490fd5b5163599a6c3360e11b81528390fd5b610a97915060203d81116102ad5761029e8183610e59565b38610a17565b82513d86823e3d90fd5b505034610346578160031936011261034657602090517fe965846df3dd5b1dfa65f58e31477079e90140e0908b6dd31b5aead5a57cf3658152f35b50346103195760a036600319011261031957610afc610e3e565b916001600160a01b03916024358381169190829003610d7857604435848116809103610d745760643591858316809303610d7057608435928684168094036109145788549460ff8660081c161595868097610d63575b8015610d4c575b15610cf25760ff1981166001178b5586610ce1575b5089549760ff8960081c1615610c8a5762010000600160b01b0360108b901b1662010000600160b01b03198a1681178c5588516301ffc9a760e01b8152637965db0b60e01b86820152909a909160209183916024918391165afa908115610c80578b91610c62575b5015610c525760018060a01b031993846001541617600155836002541617600255828254161790556003541617600355610c0e578380f35b610100600160b01b0319909116909117825551600181527f7f26b83ff96e1f2b6a682f133852f6798a09c465da95921460cefb384740249890602090a13880808380f35b86516384d942fd60e01b81528390fd5b610c7a915060203d81116102ad5761029e8183610e59565b38610bd6565b88513d8d823e3d90fd5b875162461bcd60e51b8152602081860152602b60248201527f496e697469616c697a61626c653a20636f6e7472616374206973206e6f74206960448201526a6e697469616c697a696e6760a81b6064820152608490fd5b61ffff1916610101178a5538610b6e565b875162461bcd60e51b8152602081860152602e60248201527f496e697469616c697a61626c653a20636f6e747261637420697320616c72656160448201526d191e481a5b9a5d1a585b1a5e995960921b6064820152608490fd5b50303b158015610b595750600160ff821614610b59565b50600160ff821610610b52565b8780fd5b8680fd5b8580fd5b5050346103465781600319360112610346579054905160109190911c6001600160a01b03168152602090f35b929190503461027257602036600319011261027257803563ffffffff60e01b8116809103610e3a5784546301ffc9a760e01b8552918401526020908390602490829060101c6001600160a01b03165afa918215610e305760209392610e11575b50519015158152f35b610e29919250833d81116102ad5761029e8183610e59565b9038610e08565b81513d85823e3d90fd5b8480fd5b600435906001600160a01b0382168203610e5457565b600080fd5b601f909101601f19168101906001600160401b03821190821017610e7c57604052565b634e487b7160e01b600052604160045260246000fd5b90816020910312610e5457518015158103610e545790565b6001600160a01b039091168152602081019190915260400190565b600654811015610ee057600660005260206000200190600090565b634e487b7160e01b600052603260045260246000fd5b3d15610f30573d906001600160401b038211610e7c5760405191610f24601f8201601f191660200184610e59565b82523d6000602084013e565b606090565b6000929183610f60610f6e8295604051928391602083019663a9059cbb60e01b885260248401610eaa565b03601f198101835282610e59565b51925af1610f7a610ef6565b81610fb2575b5015610f8857565b60405162461bcd60e51b815260206004820152600260248201526114d560f21b6044820152606490fd5b8051801592508215610fc7575b505038610f80565b610fda9250602080918301019101610e92565b3880610fbf565b60008181526007602052604081205461105b57600654600160401b81101561104757908261103361101a84600160409601600655610ec5565b819391549060031b600019811b9283911b169119161790565b905560065492815260076020522055600190565b634e487b7160e01b82526041600452602482fd5b905090565b60008181526007602052604081205490919080156111455760001990808201818111611131576006549083820191821161111d578082036110e9575b50505060065480156110d5578101906110b482610ec5565b909182549160031b1b19169055600655815260076020526040812055600190565b634e487b7160e01b84526031600452602484fd5b6111076110f861101a93610ec5565b90549060031b1c928392610ec5565b905584526007602052604084205538808061109c565b634e487b7160e01b86526011600452602486fd5b634e487b7160e01b85526011600452602485fd5b50509056fe3b5d4cc60d3ec3516ee8ae083bd60934f6eb2a6c54b1229985c41bfb092b26039a9aef7c1247d5fc769b0185c052913e39673da29a880317dfd20ebf86f26a49a26469706673582212202611d48ce9da0241c8c73ab8bb0b1bfa19012e3d01eb61d8aea39d027465a2ef64736f6c63430008110033",
  "devdoc": {
    "details": "See ISuLiquidationMiddleware interface for full details.",
    "kind": "dev",
    "methods": {
      "borrowCollateralToSell(address,uint256,uint256)": {
        "details": "TriggerLiquidation in SuManager need to send collateral to this contract and call this function",
        "params": {
          "amount": "- The amount of LP-token to be unwrapped",
          "collateral": "- collateral token address",
          "debt": "- debt to the SuManager - how much StablePro user borrow using this collateral*"
        }
      },
      "supportsInterface(bytes4)": {
        "details": "Returns true if this contract implements the interface defined by `interfaceId`. See the corresponding https://eips.ethereum.org/EIPS/eip-165#how-interfaces-are-identified[EIP section] to learn more about how these ids are created. This function call must use less than 30 000 gas."
      }
    },
    "title": "SuLiquidationMiddleware",
    "version": 1
  },
  "userdoc": {
    "kind": "user",
    "methods": {
      "borrowCollateralToSell(address,uint256,uint256)": {
        "notice": "Set order to swap collateral to stablecoin to exchange module and store his debt to the SuManager"
      },
      "sendProfitToFoundation()": {
        "notice": "DAO can send profit after liquidations that accumulates in this contract to foundation*"
      },
      "sendStableProToDAO()": {
        "notice": "After swapping Stablecoin to users StablePro Middleware can send them to DAO, that can send them to liquidity pool, burn them and etc.*"
      }
    },
    "version": 1
  },
  "storageLayout": {
    "storage": [
      {
        "astId": 671,
        "contract": "contracts/liquidator/SuLiquidationMiddleware.sol:SuLiquidationMiddleware",
        "label": "_initialized",
        "offset": 0,
        "slot": "0",
        "type": "t_uint8"
      },
      {
        "astId": 674,
        "contract": "contracts/liquidator/SuLiquidationMiddleware.sol:SuLiquidationMiddleware",
        "label": "_initializing",
        "offset": 1,
        "slot": "0",
        "type": "t_bool"
      },
      {
        "astId": 23399,
        "contract": "contracts/liquidator/SuLiquidationMiddleware.sol:SuLiquidationMiddleware",
        "label": "ACCESS_CONTROL_SINGLETON",
        "offset": 2,
        "slot": "0",
        "type": "t_contract(ISuAccessControl)26587"
      },
      {
        "astId": 21864,
        "contract": "contracts/liquidator/SuLiquidationMiddleware.sol:SuLiquidationMiddleware",
        "label": "_oracle",
        "offset": 0,
        "slot": "1",
        "type": "t_contract(ISuOracle)26771"
      },
      {
        "astId": 21866,
        "contract": "contracts/liquidator/SuLiquidationMiddleware.sol:SuLiquidationMiddleware",
        "label": "_exchangeModule",
        "offset": 0,
        "slot": "2",
        "type": "t_address"
      },
      {
        "astId": 21868,
        "contract": "contracts/liquidator/SuLiquidationMiddleware.sol:SuLiquidationMiddleware",
        "label": "foundation",
        "offset": 0,
        "slot": "3",
        "type": "t_address"
      },
      {
        "astId": 21870,
        "contract": "contracts/liquidator/SuLiquidationMiddleware.sol:SuLiquidationMiddleware",
        "label": "stablePro",
        "offset": 0,
        "slot": "4",
        "type": "t_address"
      },
      {
        "astId": 21872,
        "contract": "contracts/liquidator/SuLiquidationMiddleware.sol:SuLiquidationMiddleware",
        "label": "middlewareDebt",
        "offset": 0,
        "slot": "5",
        "type": "t_int256"
      },
      {
        "astId": 21875,
        "contract": "contracts/liquidator/SuLiquidationMiddleware.sol:SuLiquidationMiddleware",
        "label": "_stablecoinWhitelist",
        "offset": 0,
        "slot": "6",
        "type": "t_struct(AddressSet)4927_storage"
      }
    ],
    "types": {
      "t_address": {
        "encoding": "inplace",
        "label": "address",
        "numberOfBytes": "20"
      },
      "t_array(t_bytes32)dyn_storage": {
        "base": "t_bytes32",
        "encoding": "dynamic_array",
        "label": "bytes32[]",
        "numberOfBytes": "32"
      },
      "t_bool": {
        "encoding": "inplace",
        "label": "bool",
        "numberOfBytes": "1"
      },
      "t_bytes32": {
        "encoding": "inplace",
        "label": "bytes32",
        "numberOfBytes": "32"
      },
      "t_contract(ISuAccessControl)26587": {
        "encoding": "inplace",
        "label": "contract ISuAccessControl",
        "numberOfBytes": "20"
      },
      "t_contract(ISuOracle)26771": {
        "encoding": "inplace",
        "label": "contract ISuOracle",
        "numberOfBytes": "20"
      },
      "t_int256": {
        "encoding": "inplace",
        "label": "int256",
        "numberOfBytes": "32"
      },
      "t_mapping(t_bytes32,t_uint256)": {
        "encoding": "mapping",
        "key": "t_bytes32",
        "label": "mapping(bytes32 => uint256)",
        "numberOfBytes": "32",
        "value": "t_uint256"
      },
      "t_struct(AddressSet)4927_storage": {
        "encoding": "inplace",
        "label": "struct EnumerableSetUpgradeable.AddressSet",
        "members": [
          {
            "astId": 4926,
            "contract": "contracts/liquidator/SuLiquidationMiddleware.sol:SuLiquidationMiddleware",
            "label": "_inner",
            "offset": 0,
            "slot": "0",
            "type": "t_struct(Set)4612_storage"
          }
        ],
        "numberOfBytes": "64"
      },
      "t_struct(Set)4612_storage": {
        "encoding": "inplace",
        "label": "struct EnumerableSetUpgradeable.Set",
        "members": [
          {
            "astId": 4607,
            "contract": "contracts/liquidator/SuLiquidationMiddleware.sol:SuLiquidationMiddleware",
            "label": "_values",
            "offset": 0,
            "slot": "0",
            "type": "t_array(t_bytes32)dyn_storage"
          },
          {
            "astId": 4611,
            "contract": "contracts/liquidator/SuLiquidationMiddleware.sol:SuLiquidationMiddleware",
            "label": "_indexes",
            "offset": 0,
            "slot": "1",
            "type": "t_mapping(t_bytes32,t_uint256)"
          }
        ],
        "numberOfBytes": "64"
      },
      "t_uint256": {
        "encoding": "inplace",
        "label": "uint256",
        "numberOfBytes": "32"
      },
      "t_uint8": {
        "encoding": "inplace",
        "label": "uint8",
        "numberOfBytes": "1"
      }
    }
  }
}