{
  "address": "0xBb9df77f1d23Ee4b805B077bBD6345653Bc36368",
  "abi": [
    {
      "inputs": [],
      "name": "BadAccessControlSingleton",
      "type": "error"
    },
    {
      "inputs": [],
      "name": "InvalidToken",
      "type": "error"
    },
    {
      "inputs": [],
      "name": "OnlyAdminError",
      "type": "error"
    },
    {
      "inputs": [],
      "name": "OnlyAlerterError",
      "type": "error"
    },
    {
      "inputs": [],
      "name": "OnlyDAOError",
      "type": "error"
    },
    {
      "inputs": [],
      "name": "OnlyLiquidationAccessError",
      "type": "error"
    },
    {
      "inputs": [],
      "name": "OnlyMintAccessError",
      "type": "error"
    },
    {
      "inputs": [],
      "name": "OnlyRewardAccessError",
      "type": "error"
    },
    {
      "inputs": [],
      "name": "OnlyRoleError",
      "type": "error"
    },
    {
      "inputs": [],
      "name": "OnlyVaultAccessError",
      "type": "error"
    },
    {
      "inputs": [],
      "name": "T",
      "type": "error"
    },
    {
      "anonymous": false,
      "inputs": [
        {
          "indexed": false,
          "internalType": "uint8",
          "name": "version",
          "type": "uint8"
        }
      ],
      "name": "Initialized",
      "type": "event"
    },
    {
      "inputs": [],
      "name": "ACCESS_CONTROL_SINGLETON",
      "outputs": [
        {
          "internalType": "contract ISuAccessControl",
          "name": "",
          "type": "address"
        }
      ],
      "stateMutability": "view",
      "type": "function"
    },
    {
      "inputs": [],
      "name": "ADMIN_ROLE",
      "outputs": [
        {
          "internalType": "bytes32",
          "name": "",
          "type": "bytes32"
        }
      ],
      "stateMutability": "view",
      "type": "function"
    },
    {
      "inputs": [],
      "name": "ALERTER_ROLE",
      "outputs": [
        {
          "internalType": "bytes32",
          "name": "",
          "type": "bytes32"
        }
      ],
      "stateMutability": "view",
      "type": "function"
    },
    {
      "inputs": [],
      "name": "DAO_ROLE",
      "outputs": [
        {
          "internalType": "bytes32",
          "name": "",
          "type": "bytes32"
        }
      ],
      "stateMutability": "view",
      "type": "function"
    },
    {
      "inputs": [],
      "name": "LIQUIDATION_ACCESS_ROLE",
      "outputs": [
        {
          "internalType": "bytes32",
          "name": "",
          "type": "bytes32"
        }
      ],
      "stateMutability": "view",
      "type": "function"
    },
    {
      "inputs": [],
      "name": "MINT_ACCESS_ROLE",
      "outputs": [
        {
          "internalType": "bytes32",
          "name": "",
          "type": "bytes32"
        }
      ],
      "stateMutability": "view",
      "type": "function"
    },
    {
      "inputs": [],
      "name": "ORACLE",
      "outputs": [
        {
          "internalType": "address",
          "name": "",
          "type": "address"
        }
      ],
      "stateMutability": "view",
      "type": "function"
    },
    {
      "inputs": [],
      "name": "REWARD_ACCESS_ROLE",
      "outputs": [
        {
          "internalType": "bytes32",
          "name": "",
          "type": "bytes32"
        }
      ],
      "stateMutability": "view",
      "type": "function"
    },
    {
      "inputs": [],
      "name": "UNISWAP_FACTORY",
      "outputs": [
        {
          "internalType": "address",
          "name": "",
          "type": "address"
        }
      ],
      "stateMutability": "view",
      "type": "function"
    },
    {
      "inputs": [],
      "name": "USDT",
      "outputs": [
        {
          "internalType": "address",
          "name": "",
          "type": "address"
        }
      ],
      "stateMutability": "view",
      "type": "function"
    },
    {
      "inputs": [],
      "name": "VAULT_ACCESS_ROLE",
      "outputs": [
        {
          "internalType": "bytes32",
          "name": "",
          "type": "bytes32"
        }
      ],
      "stateMutability": "view",
      "type": "function"
    },
    {
      "inputs": [
        {
          "internalType": "address",
          "name": "",
          "type": "address"
        }
      ],
      "name": "assetToPool",
      "outputs": [
        {
          "internalType": "contract IUniswapV3Pool",
          "name": "",
          "type": "address"
        }
      ],
      "stateMutability": "view",
      "type": "function"
    },
    {
      "inputs": [
        {
          "internalType": "address",
          "name": "_asset",
          "type": "address"
        },
        {
          "internalType": "uint24",
          "name": "_fee",
          "type": "uint24"
        }
      ],
      "name": "enableAssetPool",
      "outputs": [],
      "stateMutability": "nonpayable",
      "type": "function"
    },
    {
      "inputs": [
        {
          "internalType": "address",
          "name": "asset",
          "type": "address"
        }
      ],
      "name": "getFiatPrice1e18",
      "outputs": [
        {
          "internalType": "uint256",
          "name": "",
          "type": "uint256"
        }
      ],
      "stateMutability": "view",
      "type": "function"
    },
    {
      "inputs": [
        {
          "internalType": "address",
          "name": "_authControl",
          "type": "address"
        },
        {
          "internalType": "address",
          "name": "_UNISWAP_FACTORY",
          "type": "address"
        },
        {
          "internalType": "address",
          "name": "_USDT",
          "type": "address"
        },
        {
          "internalType": "address",
          "name": "_ORACLE",
          "type": "address"
        }
      ],
      "name": "initialize",
      "outputs": [],
      "stateMutability": "nonpayable",
      "type": "function"
    },
    {
      "inputs": [
        {
          "internalType": "bytes4",
          "name": "interfaceId",
          "type": "bytes4"
        }
      ],
      "name": "supportsInterface",
      "outputs": [
        {
          "internalType": "bool",
          "name": "",
          "type": "bool"
        }
      ],
      "stateMutability": "view",
      "type": "function"
    }
  ],
  "numDeployments": 2,
  "solcInputHash": "fb971b10e71fde9083125ccba025c60e",
  "bytecode": "0x608080604052346100165761124a908161001c8239f35b600080fdfe6080604081815260048036101561001557600080fd5b600092833560e01c90816301ffc9a714610f555750806303ee9f2214610f29578063044c8d7114610eee57806314c376dc14610eb357806338013f0214610e8c578063438280dd14610e5157806371d0fb4114610e1657806375b238fc14610dfb5780638e5313e014610dc0578063b9ac2b38146105de578063c54e44eb146105b5578063c74c0fac1461058c578063d3a6fc99146103e4578063dc97e84e146103a9578063e9c265181461036a5763f8c8765e146100d357600080fd5b34610366576080366003190112610366576100ec610feb565b916001600160a01b03916024358381169190829003610362576044359184831680930361035e576064359085821680920361035a5787549360ff8560081c16159485809661034d575b8015610336575b156102dc5760ff1981166001178a55856102cb575b5088549660ff8860081c16156102745762010000600160b01b0360108a901b1662010000600160b01b0319891681178b5587516301ffc9a760e01b8152637965db0b60e01b878201529099909160209183916024918391165afa90811561026a578a9161023c575b501561022c5760018060a01b0319918260025416176002558160035416176003558254161790556101e8578380f35b610100600160b01b0319909116909117825551600181527f7f26b83ff96e1f2b6a682f133852f6798a09c465da95921460cefb384740249890602090a13880808380f35b85516384d942fd60e01b81528490fd5b61025d915060203d8111610263575b6102558183611052565b810190611075565b386101b9565b503d61024b565b87513d8c823e3d90fd5b865162461bcd60e51b8152602081870152602b60248201527f496e697469616c697a61626c653a20636f6e7472616374206973206e6f74206960448201526a6e697469616c697a696e6760a81b6064820152608490fd5b61ffff191661010117895538610151565b865162461bcd60e51b8152602081870152602e60248201527f496e697469616c697a61626c653a20636f6e747261637420697320616c72656160448201526d191e481a5b9a5d1a585b1a5e995960921b6064820152608490fd5b50303b15801561013c5750600160ff82161461013c565b50600160ff821610610135565b8780fd5b8680fd5b8580fd5b8280fd5b5050346103a557816003193601126103a557602090517f3b5d4cc60d3ec3516ee8ae083bd60934f6eb2a6c54b1229985c41bfb092b26038152f35b5080fd5b5050346103a557816003193601126103a557602090517f9a9aef7c1247d5fc769b0185c052913e39673da29a880317dfd20ebf86f26a498152f35b5090346103665780600319360112610366576103fe610feb565b916024359062ffffff82168092036105885760018060a01b0380865460101c169184518093632474521560e21b8252888383015233602483015281604460209687935afa90811561057e578891610561575b50156105535750600254816003541686818988805161046e81611006565b8281528289820152015284891698818a11610548575b50508587858082519461049686611006565b16948585521692838882015201528082101561054457600195875191868301938452888301526060820152606081526104ce81611037565b5190208551908482019260ff60f81b8452868060601b03199060601b16602183015260358201527fe34f199b19b2b4f47f68442619d555527d244f78a3297ea89325f843f87b8b5460558201526055815261052881611037565b519020169385525282209060018060a01b031982541617905580f35b8880fd5b925090503880610484565b8451631886ea7d60e11b8152fd5b6105789150843d8611610263576102558183611052565b38610450565b86513d8a823e3d90fd5b8480fd5b5050346103a557816003193601126103a55760025490516001600160a01b039091168152602090f35b5050346103a557816003193601126103a55760035490516001600160a01b039091168152602090f35b5091346108f957602092836003193601126103a5576105fb610feb565b81546003548551631735856760e31b81526001600160a01b03918216818601529492909187908690602490829086165afa948515610db6578395610d87575b5081169081835260018752808684205416938651630dfe168160e01b815288818381895afa908115610cdf578591610d6a575b50875163d21220a760e01b815290898284818a5afa918215610d60578692610d31575b508381168514801580610d25575b610d155715610d0a5750948489915b8951906106b982611006565b600282528382018b368237600a6106cf846110ec565b52836106da8461110f565b528b5194859363883bdbfd60e01b8552602485019082898701525180915260448501929186905b828210610ce9575050505082809103915afa908115610cdf578591610bd5575b5061073561072e8261110f565b51916110ec565b5160060b9060060b03667fffffffffffff8113667fffffffffffff19821217610bb25760060b600a810560020b908581129081610bc5575b50610b9e575b60020b9084821215610b9857818503915b620d89e88311610b89578392919086906001841615610b7f576ffffcb933bd6fad37aa2d162d1a5940015b6001600160881b03169360028116610b63575b838116610b47575b60088116610b2b575b60108116610b0f575b8c8116610af3575b8b8116610ad7575b608090818116610abc575b6101008116610aa1575b6102008116610a86575b6104008116610a6b575b6108008116610a50575b6110008116610a35575b6120008116610a1a575b61400081166109ff575b61800081166109e4575b6201000081166109c9575b6202000081166109af575b620400008116610995575b620800001661097c575b5013610953575b5063ffffffff811661094a5760ff855b1690891c01166001600160801b0381116108fc57806108a79161108d565b931611156108d45750670de0b6b3a7640000916108c66108cc926111bf565b9061108d565b049051908152f35b81156108f95750670de0b6b3a7640000916108cc916503782dace9d960d21b046108c6565b80fd5b806109069161111f565b931611156109255750670de0b6b3a7640000916108c66108cc9261116a565b81156108f95750670de0b6b3a7640000916108cc916503782dace9d960921b046108c6565b60ff6001610889565b9080925015610969575081906000190438610879565b634e487b7160e01b855260129052602484fd5b90936b048a170391f7dc42444e8fa202901c9238610872565b6d2216e584f5fa1ea926041bedfe98909502811c94610868565b946e5d6af8dedb81196699c329225ee60402811c9461085d565b946f09aa508b5b7a84e1c677de54f3e99bc902811c94610852565b946f31be135f97d08fd981231505542fcfa602811c94610847565b946f70d869a156d2a1b890bb3df62baf32f702811c9461083d565b946fa9f746462d870fdf8a65dc1f90e061e502811c94610833565b946fd097f3bdfd2022b8845ad8f792aa582502811c94610829565b946fe7159475a2c29b7443b29c7fa6e889d902811c9461081f565b946ff3392b0822b70005940c7a398e4b70f302811c94610815565b946ff987a7253ac413176f2b074cf7815e5402811c9461080b565b946ffcbe86c7900a88aedcffc83b479aa3a402811c94610801565b946ffe5dee046a99a2a811c461f1969c305302811c946107f7565b936fff2ea16466c96a3843ec78b326b528610260801c936107ec565b936fff973b41fa98c081472e6896dfb254c00260801c936107e4565b936fffcb9843d60f6159c9db58835c9266440260801c936107dc565b936fffe5caca7e10e4e61c3624eaa0941cd00260801c936107d3565b936ffff2e50f5f656932ef12357cf3c7fdcc0260801c936107ca565b936ffff97272373d413259a46990580e213a0260801c936107c2565b600160801b6107af565b5087516315e4079d60e11b8152fd5b81610784565b627fffff198114610bb25760001901610773565b634e487b7160e01b855260118252602485fd5b600a91500760060b15153861076d565b90503d8086833e610be68183611052565b810188828203126103625781516001600160401b039081811161035a5783019282601f8501121561035a57835193610c1d856110d5565b94610c2a8d519687611052565b8086528d8087019160051b83010191858311610cdb578e01905b828210610cbe575050508b81015191821161035a570181601f8201121561035e578051908b808c610c80610c77866110d5565b91519182611052565b848152019260051b82010192831161035a578b01905b828210610ca65750505038610721565b81518681168103610544578152908b01908b01610c96565b81518060060b8103610cd7578152908e01908e01610c44565b8b80fd5b8a80fd5b88513d87823e3d90fd5b835163ffffffff1685528c975088965093840193909201916001018f610701565b9050948489916106ad565b895163c1ab6dc160e01b81528490fd5b5084831686141561069e565b610d529192508a3d8c11610d59575b610d4a8183611052565b8101906110b6565b9038610690565b503d610d40565b89513d88823e3d90fd5b610d819150893d8b11610d5957610d4a8183611052565b3861066d565b9094508681813d8311610daf575b610d9f8183611052565b810103126103665751938161063a565b503d610d95565b86513d85823e3d90fd5b5050346103a557816003193601126103a557602090517fe453bacb314e78dcd5192e6b1a2b1f0e7c76e92f6b7e429a6a90f04e39db3b768152f35b5050346103a557816003193601126103a55751908152602090f35b5050346103a557816003193601126103a557602090517f880a91047114272656e533301261260c75e4d11543ac7303d6fe4204579ec7278152f35b5050346103a557816003193601126103a557602090517f39f61ca2a1a28fee144218173ec637b649a353e4026b2738c673800e5bf1437b8152f35b50346103665782600319360112610366575490516001600160a01b03909116815260209150f35b5050346103a557816003193601126103a557602090517fe965846df3dd5b1dfa65f58e31477079e90140e0908b6dd31b5aead5a57cf3658152f35b5050346103a55760203660031901126103a5576020916001600160a01b0390829082610f18610feb565b168152600185522054169051908152f35b5050346103a557816003193601126103a5579054905160109190911c6001600160a01b03168152602090f35b9291905034610fe7576020366003190112610fe757803563ffffffff60e01b81168091036105885784546301ffc9a760e01b8552918401526020908390602490829060101c6001600160a01b03165afa918215610fdd5760209392610fbe575b50519015158152f35b610fd6919250833d8111610263576102558183611052565b9038610fb5565b81513d85823e3d90fd5b8380fd5b600435906001600160a01b038216820361100157565b600080fd5b606081019081106001600160401b0382111761102157604052565b634e487b7160e01b600052604160045260246000fd5b608081019081106001600160401b0382111761102157604052565b601f909101601f19168101906001600160401b0382119082101761102157604052565b90816020910312611001575180151581036110015790565b818102929181159184041417156110a057565b634e487b7160e01b600052601160045260246000fd5b9081602091031261100157516001600160a01b03811681036110015790565b6001600160401b0381116110215760051b60200190565b8051156110f95760200190565b634e487b7160e01b600052603260045260246000fd5b8051600110156110f95760400190565b600019828209908281029283808410930391838303936000931461115f57600160401b92848411156108f957500990828211900360c01b910360401c1790565b505090505060401c90565b670de0b6b3a76400009060001982820990828102928380841093039183830393600093146111b457600160801b92848411156108f957500990828211900360801b910360801c1790565b505090505060801c90565b670de0b6b3a764000090600019828209908281029283808410930391838303936000931461120957600160c01b92848411156108f957500990828211900360401b910360c01c1790565b505090505060c01c9056fea26469706673582212206fd10acae81c7591e7e148606d7c3a64004bcee332667f058c79f461cdb834c764736f6c63430008110033",
  "devdoc": {
    "details": "Here we calculate only the price of asset in USDT, not USD. Before that we need to enableAssetPool, to know what pool use for that asset (what fees). See ISuUniV3Oracle interface for full details.*",
    "kind": "dev",
    "methods": {
      "getFiatPrice1e18(address)": {
        "params": {
          "asset": "- address of erc20 token contract"
        },
        "returns": {
          "_0": "usdPrice1e18 such that asset.balanceOf() * getFiatPrice1e18(asset) / 1e18 == $$ * 1e18*"
        }
      },
      "supportsInterface(bytes4)": {
        "details": "Returns true if this contract implements the interface defined by `interfaceId`. See the corresponding https://eips.ethereum.org/EIPS/eip-165#how-interfaces-are-identified[EIP section] to learn more about how these ids are created. This function call must use less than 30 000 gas."
      }
    },
    "version": 1
  },
  "userdoc": {
    "kind": "user",
    "methods": {
      "getFiatPrice1e18(address)": {
        "notice": "WARNING! Read this description very carefully!     function getFiatPrice1e18(address asset) returns (uint256) that:         basicAmountOfAsset * getFiatPrice1e18(asset) / 1e18 === $$ * 1e18     in other words, it doesn't matter what's the erc20.decimals is,     you just multiply token balance in basic units on value from oracle and get dollar amount multiplied on 1e18. different assets have different deviation threshold (errors)     for wBTC it's <= 0.5%, read more https://data.chain.link/ethereum/mainnet/crypto-usd/btc-usd     for other asset is can be larger based on particular oracle implementation. examples:     market price of btc = $30k,     for 0.1 wBTC the unit256 amount is 0.1 * 1e18     0.1 * 1e18 * (price1e18 / 1e18) == $3000 == uint256(3000*1e18)     => price1e18 = 30000 * 1e18;     market price of usdt = $0.97,     for 1 usdt uint256 = 1 * 1e6     so 1*1e6 * price1e18 / 1e18 == $0.97 == uint256(0.97*1e18)     => 1*1e6 * (price1e18 / 1e18) / (0.97*1e18)   = 1     =>  price1e18 = 0.97 * (1e18/1e6) * 1e18    assume market price of wBTC = $31,503.77, oracle error = $158     case #1: small amount of wBTC         we have 0.0,000,001 wBTC that is worth v = $0.00315  $0.00001 = 0.00315*1e18 = 315*1e13  1*1e13         actual balance on the asset b = wBTC.balanceOf() =  0.0000001*1e18 = 1e11         oracle should return or = oracle.getFiatPrice1e18(wBTC) <=>         <=> b*or = v => v/b = 315*1e13 / 1e11 = 315*1e2  1e2         error = or.error * b = 1e2 * 1e11 = 1e13 => 1e13/1e18 usd = 1e-5 = 0.00001 usd     case #2: large amount of wBTC         v = 2,000,000 wBTC = $31,503.77 * 2m  158*2m = $63,007,540,000  $316,000,000 = 63,007*1e24  316*1e24         for calc convenience we increase error on 0.05 and have v = 63,000*24  300*1e24 = (630  3)*1e26         b = 2*1e6 * 1e18 = 2*1e24         or = v/b = (630  3)*1e26 / 2*1e24 = 315*1e2  1.5*1e2         error = or.error * b = 1.5*100 * 2*1e24 = 3*1e26 = 3*1e8*1e18 = $300,000,000 ~ $316,000,000     assume the market price of USDT = $0.97  $0.00485,     case #3: little amount of USDT         v = USDT amount 0.005 = 0.005*(0.97  0.00485) = 0.00485*1e18  0.00002425*1e18 = 485*1e13  3*1e13         we rounded error up on (3000-2425)/2425 ~= +24% for calculation convenience.         b = USDT.balanceOf() = 0.005*1e6 = 5*1e3         b*or = v => or = v/b = (485*1e13  3*1e13) / 5*1e3 = 970*1e9  6*1e9         error = 6*1e9 * 5*1e3 / 1e18 = 30*1e12/1e18 = 3*1e-5 = $0,00005     case #4: lot of USDT         v = we have 100,000,000,000 USDT = $97B = 97*1e9*1e18  0.5*1e9*1e18         b = USDT.balanceOf() = 1e11*1e6 = 1e17         or = v/b = (97*1e9*1e18  0.5*1e9*1e18) / 1e17 = 970*1e9  5*1e9         error = 5*1e9 * 1e17 = 5*1e26 = 0.5 * 1e8*1e18"
      }
    },
    "notice": "check SuUniV3Oracle section in ORACLE_ARCHITECTURE.md",
    "version": 1
  },
  "storageLayout": {
    "storage": [
      {
        "astId": 79,
        "contract": "contracts/periphery/contracts/oracle/SuUniV3Oracle.sol:SuUniV3Oracle",
        "label": "_initialized",
        "offset": 0,
        "slot": "0",
        "type": "t_uint8"
      },
      {
        "astId": 82,
        "contract": "contracts/periphery/contracts/oracle/SuUniV3Oracle.sol:SuUniV3Oracle",
        "label": "_initializing",
        "offset": 1,
        "slot": "0",
        "type": "t_bool"
      },
      {
        "astId": 9591,
        "contract": "contracts/periphery/contracts/oracle/SuUniV3Oracle.sol:SuUniV3Oracle",
        "label": "ACCESS_CONTROL_SINGLETON",
        "offset": 2,
        "slot": "0",
        "type": "t_contract(ISuAccessControl)11888"
      },
      {
        "astId": 12923,
        "contract": "contracts/periphery/contracts/oracle/SuUniV3Oracle.sol:SuUniV3Oracle",
        "label": "assetToPool",
        "offset": 0,
        "slot": "1",
        "type": "t_mapping(t_address,t_contract(IUniswapV3Pool)8947)"
      },
      {
        "astId": 12925,
        "contract": "contracts/periphery/contracts/oracle/SuUniV3Oracle.sol:SuUniV3Oracle",
        "label": "UNISWAP_FACTORY",
        "offset": 0,
        "slot": "2",
        "type": "t_address"
      },
      {
        "astId": 12927,
        "contract": "contracts/periphery/contracts/oracle/SuUniV3Oracle.sol:SuUniV3Oracle",
        "label": "USDT",
        "offset": 0,
        "slot": "3",
        "type": "t_address"
      },
      {
        "astId": 12929,
        "contract": "contracts/periphery/contracts/oracle/SuUniV3Oracle.sol:SuUniV3Oracle",
        "label": "ORACLE",
        "offset": 0,
        "slot": "4",
        "type": "t_address"
      }
    ],
    "types": {
      "t_address": {
        "encoding": "inplace",
        "label": "address",
        "numberOfBytes": "20"
      },
      "t_bool": {
        "encoding": "inplace",
        "label": "bool",
        "numberOfBytes": "1"
      },
      "t_contract(ISuAccessControl)11888": {
        "encoding": "inplace",
        "label": "contract ISuAccessControl",
        "numberOfBytes": "20"
      },
      "t_contract(IUniswapV3Pool)8947": {
        "encoding": "inplace",
        "label": "contract IUniswapV3Pool",
        "numberOfBytes": "20"
      },
      "t_mapping(t_address,t_contract(IUniswapV3Pool)8947)": {
        "encoding": "mapping",
        "key": "t_address",
        "label": "mapping(address => contract IUniswapV3Pool)",
        "numberOfBytes": "32",
        "value": "t_contract(IUniswapV3Pool)8947"
      },
      "t_uint8": {
        "encoding": "inplace",
        "label": "uint8",
        "numberOfBytes": "1"
      }
    }
  }
}