{
  "address": "0xca08849CaFa586676934E871F03C61b7675CE8F5",
  "abi": [
    {
      "inputs": [],
      "name": "BadAccessControlSingleton",
      "type": "error"
    },
    {
      "inputs": [],
      "name": "InvalidToken",
      "type": "error"
    },
    {
      "inputs": [],
      "name": "OnlyAdminError",
      "type": "error"
    },
    {
      "inputs": [],
      "name": "OnlyAlerterError",
      "type": "error"
    },
    {
      "inputs": [],
      "name": "OnlyDAOError",
      "type": "error"
    },
    {
      "inputs": [],
      "name": "OnlyLiquidationAccessError",
      "type": "error"
    },
    {
      "inputs": [],
      "name": "OnlyMintAccessError",
      "type": "error"
    },
    {
      "inputs": [],
      "name": "OnlyRewardAccessError",
      "type": "error"
    },
    {
      "inputs": [],
      "name": "OnlyRoleError",
      "type": "error"
    },
    {
      "inputs": [],
      "name": "OnlyVaultAccessError",
      "type": "error"
    },
    {
      "inputs": [],
      "name": "T",
      "type": "error"
    },
    {
      "anonymous": false,
      "inputs": [
        {
          "indexed": false,
          "internalType": "uint8",
          "name": "version",
          "type": "uint8"
        }
      ],
      "name": "Initialized",
      "type": "event"
    },
    {
      "inputs": [],
      "name": "ACCESS_CONTROL_SINGLETON",
      "outputs": [
        {
          "internalType": "contract ISuAccessControl",
          "name": "",
          "type": "address"
        }
      ],
      "stateMutability": "view",
      "type": "function"
    },
    {
      "inputs": [],
      "name": "ADMIN_ROLE",
      "outputs": [
        {
          "internalType": "bytes32",
          "name": "",
          "type": "bytes32"
        }
      ],
      "stateMutability": "view",
      "type": "function"
    },
    {
      "inputs": [],
      "name": "ALERTER_ROLE",
      "outputs": [
        {
          "internalType": "bytes32",
          "name": "",
          "type": "bytes32"
        }
      ],
      "stateMutability": "view",
      "type": "function"
    },
    {
      "inputs": [],
      "name": "DAO_ROLE",
      "outputs": [
        {
          "internalType": "bytes32",
          "name": "",
          "type": "bytes32"
        }
      ],
      "stateMutability": "view",
      "type": "function"
    },
    {
      "inputs": [],
      "name": "LIQUIDATION_ACCESS_ROLE",
      "outputs": [
        {
          "internalType": "bytes32",
          "name": "",
          "type": "bytes32"
        }
      ],
      "stateMutability": "view",
      "type": "function"
    },
    {
      "inputs": [],
      "name": "MINT_ACCESS_ROLE",
      "outputs": [
        {
          "internalType": "bytes32",
          "name": "",
          "type": "bytes32"
        }
      ],
      "stateMutability": "view",
      "type": "function"
    },
    {
      "inputs": [],
      "name": "ORACLE",
      "outputs": [
        {
          "internalType": "address",
          "name": "",
          "type": "address"
        }
      ],
      "stateMutability": "view",
      "type": "function"
    },
    {
      "inputs": [],
      "name": "REWARD_ACCESS_ROLE",
      "outputs": [
        {
          "internalType": "bytes32",
          "name": "",
          "type": "bytes32"
        }
      ],
      "stateMutability": "view",
      "type": "function"
    },
    {
      "inputs": [],
      "name": "SYSTEM_ROLE",
      "outputs": [
        {
          "internalType": "bytes32",
          "name": "",
          "type": "bytes32"
        }
      ],
      "stateMutability": "view",
      "type": "function"
    },
    {
      "inputs": [],
      "name": "UNISWAP_FACTORY",
      "outputs": [
        {
          "internalType": "address",
          "name": "",
          "type": "address"
        }
      ],
      "stateMutability": "view",
      "type": "function"
    },
    {
      "inputs": [],
      "name": "USDT",
      "outputs": [
        {
          "internalType": "address",
          "name": "",
          "type": "address"
        }
      ],
      "stateMutability": "view",
      "type": "function"
    },
    {
      "inputs": [],
      "name": "VAULT_ACCESS_ROLE",
      "outputs": [
        {
          "internalType": "bytes32",
          "name": "",
          "type": "bytes32"
        }
      ],
      "stateMutability": "view",
      "type": "function"
    },
    {
      "inputs": [
        {
          "internalType": "address",
          "name": "",
          "type": "address"
        }
      ],
      "name": "assetToPool",
      "outputs": [
        {
          "internalType": "contract IUniswapV3Pool",
          "name": "",
          "type": "address"
        }
      ],
      "stateMutability": "view",
      "type": "function"
    },
    {
      "inputs": [
        {
          "internalType": "address",
          "name": "_asset",
          "type": "address"
        },
        {
          "internalType": "uint24",
          "name": "_fee",
          "type": "uint24"
        }
      ],
      "name": "enableAssetPool",
      "outputs": [],
      "stateMutability": "nonpayable",
      "type": "function"
    },
    {
      "inputs": [
        {
          "internalType": "address",
          "name": "asset",
          "type": "address"
        }
      ],
      "name": "getFiatPrice1e18",
      "outputs": [
        {
          "internalType": "uint256",
          "name": "",
          "type": "uint256"
        }
      ],
      "stateMutability": "view",
      "type": "function"
    },
    {
      "inputs": [
        {
          "internalType": "address",
          "name": "_authControl",
          "type": "address"
        },
        {
          "internalType": "address",
          "name": "_UNISWAP_FACTORY",
          "type": "address"
        },
        {
          "internalType": "address",
          "name": "_USDT",
          "type": "address"
        },
        {
          "internalType": "address",
          "name": "_ORACLE",
          "type": "address"
        }
      ],
      "name": "initialize",
      "outputs": [],
      "stateMutability": "nonpayable",
      "type": "function"
    },
    {
      "inputs": [
        {
          "internalType": "bytes4",
          "name": "interfaceId",
          "type": "bytes4"
        }
      ],
      "name": "supportsInterface",
      "outputs": [
        {
          "internalType": "bool",
          "name": "",
          "type": "bool"
        }
      ],
      "stateMutability": "view",
      "type": "function"
    }
  ],
  "numDeployments": 3,
  "solcInputHash": "763a020caf9e1e6ef21291ab55ec3cde",
  "bytecode": "0x60808060405234610016576112a0908161001c8239f35b600080fdfe6080604081815260048036101561001557600080fd5b600092833560e01c90816301ffc9a714610fab5750806303ee9f2214610f7f578063044c8d7114610f4457806314c376dc14610f0957806338013f0214610ee2578063438280dd14610ea757806371d0fb4114610e6c57806375071d2a14610e3157806375b238fc14610e165780638e5313e014610ddb578063b9ac2b38146105f9578063c54e44eb146105d0578063c74c0fac146105a7578063d3a6fc99146103ff578063dc97e84e146103c4578063e9c26518146103855763f8c8765e146100de57600080fd5b34610381576080366003190112610381576100f7611041565b916001600160a01b0391602435838116919082900361037d576044359184831680930361037957606435908582168092036103755787549360ff8560081c161594858096610368575b8015610351575b156102f75760ff1981166001178a55856102e6575b5088549660ff8860081c161561028f5762010000600160b01b0360108a901b1662010000600160b01b0319891681178b559816801515908161021b575b5061020b5760018060a01b0319918260025416176002558160035416176003558254161790556101c7578380f35b610100600160b01b0319909116909117825551600181527f7f26b83ff96e1f2b6a682f133852f6798a09c465da95921460cefb384740249890602090a13880808380f35b85516384d942fd60e01b81528490fd5b87516301ffc9a760e01b8152637965db0b60e01b878201529150602090829060249082905afa908115610285578a91610257575b501538610199565b610278915060203d811161027e575b61027081836110a8565b8101906110cb565b3861024f565b503d610266565b87513d8c823e3d90fd5b865162461bcd60e51b8152602081870152602b60248201527f496e697469616c697a61626c653a20636f6e7472616374206973206e6f74206960448201526a6e697469616c697a696e6760a81b6064820152608490fd5b61ffff19166101011789553861015c565b865162461bcd60e51b8152602081870152602e60248201527f496e697469616c697a61626c653a20636f6e747261637420697320616c72656160448201526d191e481a5b9a5d1a585b1a5e995960921b6064820152608490fd5b50303b1580156101475750600160ff821614610147565b50600160ff821610610140565b8780fd5b8680fd5b8580fd5b8280fd5b5050346103c057816003193601126103c057602090517f3b5d4cc60d3ec3516ee8ae083bd60934f6eb2a6c54b1229985c41bfb092b26038152f35b5080fd5b5050346103c057816003193601126103c057602090517f9a9aef7c1247d5fc769b0185c052913e39673da29a880317dfd20ebf86f26a498152f35b509034610381578060031936011261038157610419611041565b916024359062ffffff82168092036105a35760018060a01b0380865460101c169184518093632474521560e21b8252888383015233602483015281604460209687935afa90811561059957889161057c575b501561056e575060025481600354168681898880516104898161105c565b8281528289820152015284891698818a11610563575b5050858785808251946104b18661105c565b16948585521692838882015201528082101561055f57600195875191868301938452888301526060820152606081526104e98161108d565b5190208551908482019260ff60f81b8452868060601b03199060601b16602183015260358201527fe34f199b19b2b4f47f68442619d555527d244f78a3297ea89325f843f87b8b546055820152605581526105438161108d565b519020169385525282209060018060a01b031982541617905580f35b8880fd5b92509050388061049f565b8451631886ea7d60e11b8152fd5b6105939150843d861161027e5761027081836110a8565b3861046b565b86513d8a823e3d90fd5b8480fd5b5050346103c057816003193601126103c05760025490516001600160a01b039091168152602090f35b5050346103c057816003193601126103c05760035490516001600160a01b039091168152602090f35b50913461091457602092836003193601126103c057610616611041565b81546003548551631735856760e31b81526001600160a01b03918216818601529492909187908690602490829086165afa948515610dd1578395610da2575b5081169081835260018752808684205416938651630dfe168160e01b815288818381895afa908115610cfa578591610d85575b50875163d21220a760e01b815290898284818a5afa918215610d7b578692610d4c575b508381168514801580610d40575b610d305715610d255750948489915b8951906106d48261105c565b600282528382018b368237600a6106ea84611142565b52836106f584611165565b528b5194859363883bdbfd60e01b8552602485019082898701525180915260448501929186905b828210610d04575050505082809103915afa908115610cfa578591610bf0575b5061075061074982611165565b5191611142565b5160060b9060060b03667fffffffffffff8113667fffffffffffff19821217610bcd5760060b600a810560020b908581129081610be0575b50610bb9575b60020b9084821215610bb357818503915b620d89e88311610ba4578392919086906001841615610b9a576ffffcb933bd6fad37aa2d162d1a5940015b6001600160881b03169360028116610b7e575b838116610b62575b60088116610b46575b60108116610b2a575b8c8116610b0e575b8b8116610af2575b608090818116610ad7575b6101008116610abc575b6102008116610aa1575b6104008116610a86575b6108008116610a6b575b6110008116610a50575b6120008116610a35575b6140008116610a1a575b61800081166109ff575b6201000081166109e4575b6202000081166109ca575b6204000081166109b0575b6208000016610997575b501361096e575b5063ffffffff81166109655760ff855b1690891c01166001600160801b03811161091757806108c2916110e3565b931611156108ef5750670de0b6b3a7640000916108e16108e792611215565b906110e3565b049051908152f35b81156109145750670de0b6b3a7640000916108e7916503782dace9d960d21b046108e1565b80fd5b8061092191611175565b931611156109405750670de0b6b3a7640000916108e16108e7926111c0565b81156109145750670de0b6b3a7640000916108e7916503782dace9d960921b046108e1565b60ff60016108a4565b9080925015610984575081906000190438610894565b634e487b7160e01b855260129052602484fd5b90936b048a170391f7dc42444e8fa202901c923861088d565b6d2216e584f5fa1ea926041bedfe98909502811c94610883565b946e5d6af8dedb81196699c329225ee60402811c94610878565b946f09aa508b5b7a84e1c677de54f3e99bc902811c9461086d565b946f31be135f97d08fd981231505542fcfa602811c94610862565b946f70d869a156d2a1b890bb3df62baf32f702811c94610858565b946fa9f746462d870fdf8a65dc1f90e061e502811c9461084e565b946fd097f3bdfd2022b8845ad8f792aa582502811c94610844565b946fe7159475a2c29b7443b29c7fa6e889d902811c9461083a565b946ff3392b0822b70005940c7a398e4b70f302811c94610830565b946ff987a7253ac413176f2b074cf7815e5402811c94610826565b946ffcbe86c7900a88aedcffc83b479aa3a402811c9461081c565b946ffe5dee046a99a2a811c461f1969c305302811c94610812565b936fff2ea16466c96a3843ec78b326b528610260801c93610807565b936fff973b41fa98c081472e6896dfb254c00260801c936107ff565b936fffcb9843d60f6159c9db58835c9266440260801c936107f7565b936fffe5caca7e10e4e61c3624eaa0941cd00260801c936107ee565b936ffff2e50f5f656932ef12357cf3c7fdcc0260801c936107e5565b936ffff97272373d413259a46990580e213a0260801c936107dd565b600160801b6107ca565b5087516315e4079d60e11b8152fd5b8161079f565b627fffff198114610bcd576000190161078e565b634e487b7160e01b855260118252602485fd5b600a91500760060b151538610788565b90503d8086833e610c0181836110a8565b8101888282031261037d5781516001600160401b03908181116103755783019282601f8501121561037557835193610c388561112b565b94610c458d5196876110a8565b8086528d8087019160051b83010191858311610cf6578e01905b828210610cd9575050508b810151918211610375570181601f82011215610379578051908b808c610c9b610c928661112b565b915191826110a8565b848152019260051b820101928311610375578b01905b828210610cc1575050503861073c565b8151868116810361055f578152908b01908b01610cb1565b81518060060b8103610cf2578152908e01908e01610c5f565b8b80fd5b8a80fd5b88513d87823e3d90fd5b835163ffffffff1685528c975088965093840193909201916001018f61071c565b9050948489916106c8565b895163c1ab6dc160e01b81528490fd5b508483168614156106b9565b610d6d9192508a3d8c11610d74575b610d6581836110a8565b81019061110c565b90386106ab565b503d610d5b565b89513d88823e3d90fd5b610d9c9150893d8b11610d7457610d6581836110a8565b38610688565b9094508681813d8311610dca575b610dba81836110a8565b8101031261038157519381610655565b503d610db0565b86513d85823e3d90fd5b5050346103c057816003193601126103c057602090517fe453bacb314e78dcd5192e6b1a2b1f0e7c76e92f6b7e429a6a90f04e39db3b768152f35b5050346103c057816003193601126103c05751908152602090f35b5050346103c057816003193601126103c057602090517f5719df9ef2c4678b547f89e4f5ae410dbf400fc51cf3ded434c55f6adea2c43f8152f35b5050346103c057816003193601126103c057602090517f880a91047114272656e533301261260c75e4d11543ac7303d6fe4204579ec7278152f35b5050346103c057816003193601126103c057602090517f39f61ca2a1a28fee144218173ec637b649a353e4026b2738c673800e5bf1437b8152f35b50346103815782600319360112610381575490516001600160a01b03909116815260209150f35b5050346103c057816003193601126103c057602090517fe965846df3dd5b1dfa65f58e31477079e90140e0908b6dd31b5aead5a57cf3658152f35b5050346103c05760203660031901126103c0576020916001600160a01b0390829082610f6e611041565b168152600185522054169051908152f35b5050346103c057816003193601126103c0579054905160109190911c6001600160a01b03168152602090f35b929190503461103d57602036600319011261103d57803563ffffffff60e01b81168091036105a35784546301ffc9a760e01b8552918401526020908390602490829060101c6001600160a01b03165afa9182156110335760209392611014575b50519015158152f35b61102c919250833d811161027e5761027081836110a8565b903861100b565b81513d85823e3d90fd5b8380fd5b600435906001600160a01b038216820361105757565b600080fd5b606081019081106001600160401b0382111761107757604052565b634e487b7160e01b600052604160045260246000fd5b608081019081106001600160401b0382111761107757604052565b601f909101601f19168101906001600160401b0382119082101761107757604052565b90816020910312611057575180151581036110575790565b818102929181159184041417156110f657565b634e487b7160e01b600052601160045260246000fd5b9081602091031261105757516001600160a01b03811681036110575790565b6001600160401b0381116110775760051b60200190565b80511561114f5760200190565b634e487b7160e01b600052603260045260246000fd5b80516001101561114f5760400190565b60001982820990828102928380841093039183830393600093146111b557600160401b928484111561091457500990828211900360c01b910360401c1790565b505090505060401c90565b670de0b6b3a764000090600019828209908281029283808410930391838303936000931461120a57600160801b928484111561091457500990828211900360801b910360801c1790565b505090505060801c90565b670de0b6b3a764000090600019828209908281029283808410930391838303936000931461125f57600160c01b928484111561091457500990828211900360401b910360c01c1790565b505090505060c01c9056fea26469706673582212207f2068999123da86b3a0c28e3ddf2187f73e88338fc4a868a85e553ffd5d93db64736f6c63430008110033",
  "devdoc": {
    "details": "Here we calculate only the price of asset in USDT, not USD. Before that we need to enableAssetPool, to know what pool use for that asset (what fees). See ISuUniV3Oracle interface for full details.*",
    "kind": "dev",
    "methods": {
      "getFiatPrice1e18(address)": {
        "params": {
          "asset": "- address of erc20 token contract"
        },
        "returns": {
          "_0": "usdPrice1e18 such that asset.balanceOf() * getFiatPrice1e18(asset) / 1e18 == $$ * 1e18*"
        }
      },
      "supportsInterface(bytes4)": {
        "details": "Returns true if this contract implements the interface defined by `interfaceId`. See the corresponding https://eips.ethereum.org/EIPS/eip-165#how-interfaces-are-identified[EIP section] to learn more about how these ids are created. This function call must use less than 30 000 gas."
      }
    },
    "version": 1
  },
  "userdoc": {
    "kind": "user",
    "methods": {
      "getFiatPrice1e18(address)": {
        "notice": "WARNING! Read this description very carefully!     function getFiatPrice1e18(address asset) returns (uint256) that:         basicAmountOfAsset * getFiatPrice1e18(asset) / 1e18 === $$ * 1e18     in other words, it doesn't matter what's the erc20.decimals is,     you just multiply token balance in basic units on value from oracle and get dollar amount multiplied on 1e18. different assets have different deviation threshold (errors)     for wBTC it's <= 0.5%, read more https://data.chain.link/ethereum/mainnet/crypto-usd/btc-usd     for other asset is can be larger based on particular oracle implementation. examples:     market price of btc = $30k,     for 0.1 wBTC the unit256 amount is 0.1 * 1e18     0.1 * 1e18 * (price1e18 / 1e18) == $3000 == uint256(3000*1e18)     => price1e18 = 30000 * 1e18;     market price of usdt = $0.97,     for 1 usdt uint256 = 1 * 1e6     so 1*1e6 * price1e18 / 1e18 == $0.97 == uint256(0.97*1e18)     => 1*1e6 * (price1e18 / 1e18) / (0.97*1e18)   = 1     =>  price1e18 = 0.97 * (1e18/1e6) * 1e18    assume market price of wBTC = $31,503.77, oracle error = $158     case #1: small amount of wBTC         we have 0.0,000,001 wBTC that is worth v = $0.00315  $0.00001 = 0.00315*1e18 = 315*1e13  1*1e13         actual balance on the asset b = wBTC.balanceOf() =  0.0000001*1e18 = 1e11         oracle should return or = oracle.getFiatPrice1e18(wBTC) <=>         <=> b*or = v => v/b = 315*1e13 / 1e11 = 315*1e2  1e2         error = or.error * b = 1e2 * 1e11 = 1e13 => 1e13/1e18 usd = 1e-5 = 0.00001 usd     case #2: large amount of wBTC         v = 2,000,000 wBTC = $31,503.77 * 2m  158*2m = $63,007,540,000  $316,000,000 = 63,007*1e24  316*1e24         for calc convenience we increase error on 0.05 and have v = 63,000*24  300*1e24 = (630  3)*1e26         b = 2*1e6 * 1e18 = 2*1e24         or = v/b = (630  3)*1e26 / 2*1e24 = 315*1e2  1.5*1e2         error = or.error * b = 1.5*100 * 2*1e24 = 3*1e26 = 3*1e8*1e18 = $300,000,000 ~ $316,000,000     assume the market price of USDT = $0.97  $0.00485,     case #3: little amount of USDT         v = USDT amount 0.005 = 0.005*(0.97  0.00485) = 0.00485*1e18  0.00002425*1e18 = 485*1e13  3*1e13         we rounded error up on (3000-2425)/2425 ~= +24% for calculation convenience.         b = USDT.balanceOf() = 0.005*1e6 = 5*1e3         b*or = v => or = v/b = (485*1e13  3*1e13) / 5*1e3 = 970*1e9  6*1e9         error = 6*1e9 * 5*1e3 / 1e18 = 30*1e12/1e18 = 3*1e-5 = $0,00005     case #4: lot of USDT         v = we have 100,000,000,000 USDT = $97B = 97*1e9*1e18  0.5*1e9*1e18         b = USDT.balanceOf() = 1e11*1e6 = 1e17         or = v/b = (97*1e9*1e18  0.5*1e9*1e18) / 1e17 = 970*1e9  5*1e9         error = 5*1e9 * 1e17 = 5*1e26 = 0.5 * 1e8*1e18"
      }
    },
    "notice": "check SuUniV3Oracle section in ORACLE_ARCHITECTURE.md",
    "version": 1
  },
  "storageLayout": {
    "storage": [
      {
        "astId": 671,
        "contract": "contracts/periphery/contracts/oracle/SuUniV3Oracle.sol:SuUniV3Oracle",
        "label": "_initialized",
        "offset": 0,
        "slot": "0",
        "type": "t_uint8"
      },
      {
        "astId": 674,
        "contract": "contracts/periphery/contracts/oracle/SuUniV3Oracle.sol:SuUniV3Oracle",
        "label": "_initializing",
        "offset": 1,
        "slot": "0",
        "type": "t_bool"
      },
      {
        "astId": 34698,
        "contract": "contracts/periphery/contracts/oracle/SuUniV3Oracle.sol:SuUniV3Oracle",
        "label": "ACCESS_CONTROL_SINGLETON",
        "offset": 2,
        "slot": "0",
        "type": "t_contract(ISuAccessControl)38513"
      },
      {
        "astId": 40267,
        "contract": "contracts/periphery/contracts/oracle/SuUniV3Oracle.sol:SuUniV3Oracle",
        "label": "assetToPool",
        "offset": 0,
        "slot": "1",
        "type": "t_mapping(t_address,t_contract(IUniswapV3Pool)16639)"
      },
      {
        "astId": 40269,
        "contract": "contracts/periphery/contracts/oracle/SuUniV3Oracle.sol:SuUniV3Oracle",
        "label": "UNISWAP_FACTORY",
        "offset": 0,
        "slot": "2",
        "type": "t_address"
      },
      {
        "astId": 40271,
        "contract": "contracts/periphery/contracts/oracle/SuUniV3Oracle.sol:SuUniV3Oracle",
        "label": "USDT",
        "offset": 0,
        "slot": "3",
        "type": "t_address"
      },
      {
        "astId": 40273,
        "contract": "contracts/periphery/contracts/oracle/SuUniV3Oracle.sol:SuUniV3Oracle",
        "label": "ORACLE",
        "offset": 0,
        "slot": "4",
        "type": "t_address"
      }
    ],
    "types": {
      "t_address": {
        "encoding": "inplace",
        "label": "address",
        "numberOfBytes": "20"
      },
      "t_bool": {
        "encoding": "inplace",
        "label": "bool",
        "numberOfBytes": "1"
      },
      "t_contract(ISuAccessControl)38513": {
        "encoding": "inplace",
        "label": "contract ISuAccessControl",
        "numberOfBytes": "20"
      },
      "t_contract(IUniswapV3Pool)16639": {
        "encoding": "inplace",
        "label": "contract IUniswapV3Pool",
        "numberOfBytes": "20"
      },
      "t_mapping(t_address,t_contract(IUniswapV3Pool)16639)": {
        "encoding": "mapping",
        "key": "t_address",
        "label": "mapping(address => contract IUniswapV3Pool)",
        "numberOfBytes": "32",
        "value": "t_contract(IUniswapV3Pool)16639"
      },
      "t_uint8": {
        "encoding": "inplace",
        "label": "uint8",
        "numberOfBytes": "1"
      }
    }
  }
}