{
  "address": "0x7776eB66E9990b91ACA1EE898AA0657b29cF6461",
  "abi": [
    {
      "inputs": [],
      "name": "BadAccessControlSingleton",
      "type": "error"
    },
    {
      "inputs": [],
      "name": "OnlyAdminError",
      "type": "error"
    },
    {
      "inputs": [],
      "name": "OnlyAlerterError",
      "type": "error"
    },
    {
      "inputs": [],
      "name": "OnlyDAOError",
      "type": "error"
    },
    {
      "inputs": [],
      "name": "OnlyLiquidationAccessError",
      "type": "error"
    },
    {
      "inputs": [],
      "name": "OnlyMintAccessError",
      "type": "error"
    },
    {
      "inputs": [],
      "name": "OnlyRewardAccessError",
      "type": "error"
    },
    {
      "inputs": [],
      "name": "OnlyRoleError",
      "type": "error"
    },
    {
      "inputs": [],
      "name": "OnlyVaultAccessError",
      "type": "error"
    },
    {
      "inputs": [
        {
          "internalType": "address",
          "name": "staker",
          "type": "address"
        }
      ],
      "name": "StakerExist",
      "type": "error"
    },
    {
      "inputs": [
        {
          "internalType": "address",
          "name": "staker",
          "type": "address"
        }
      ],
      "name": "StakerNotExist",
      "type": "error"
    },
    {
      "anonymous": false,
      "inputs": [
        {
          "indexed": false,
          "internalType": "uint8",
          "name": "version",
          "type": "uint8"
        }
      ],
      "name": "Initialized",
      "type": "event"
    },
    {
      "inputs": [],
      "name": "ACCESS_CONTROL_SINGLETON",
      "outputs": [
        {
          "internalType": "contract ISuAccessControl",
          "name": "",
          "type": "address"
        }
      ],
      "stateMutability": "view",
      "type": "function"
    },
    {
      "inputs": [],
      "name": "ADMIN_ROLE",
      "outputs": [
        {
          "internalType": "bytes32",
          "name": "",
          "type": "bytes32"
        }
      ],
      "stateMutability": "view",
      "type": "function"
    },
    {
      "inputs": [],
      "name": "ALERTER_ROLE",
      "outputs": [
        {
          "internalType": "bytes32",
          "name": "",
          "type": "bytes32"
        }
      ],
      "stateMutability": "view",
      "type": "function"
    },
    {
      "inputs": [],
      "name": "DAO_ROLE",
      "outputs": [
        {
          "internalType": "bytes32",
          "name": "",
          "type": "bytes32"
        }
      ],
      "stateMutability": "view",
      "type": "function"
    },
    {
      "inputs": [],
      "name": "LIQUIDATION_ACCESS_ROLE",
      "outputs": [
        {
          "internalType": "bytes32",
          "name": "",
          "type": "bytes32"
        }
      ],
      "stateMutability": "view",
      "type": "function"
    },
    {
      "inputs": [],
      "name": "MINT_ACCESS_ROLE",
      "outputs": [
        {
          "internalType": "bytes32",
          "name": "",
          "type": "bytes32"
        }
      ],
      "stateMutability": "view",
      "type": "function"
    },
    {
      "inputs": [],
      "name": "REWARD_ACCESS_ROLE",
      "outputs": [
        {
          "internalType": "bytes32",
          "name": "",
          "type": "bytes32"
        }
      ],
      "stateMutability": "view",
      "type": "function"
    },
    {
      "inputs": [],
      "name": "SYSTEM_ROLE",
      "outputs": [
        {
          "internalType": "bytes32",
          "name": "",
          "type": "bytes32"
        }
      ],
      "stateMutability": "view",
      "type": "function"
    },
    {
      "inputs": [],
      "name": "VAULT_ACCESS_ROLE",
      "outputs": [
        {
          "internalType": "bytes32",
          "name": "",
          "type": "bytes32"
        }
      ],
      "stateMutability": "view",
      "type": "function"
    },
    {
      "inputs": [
        {
          "internalType": "address",
          "name": "staker",
          "type": "address"
        }
      ],
      "name": "addTopStaker",
      "outputs": [],
      "stateMutability": "nonpayable",
      "type": "function"
    },
    {
      "inputs": [],
      "name": "getTopStakersLength",
      "outputs": [
        {
          "internalType": "uint256",
          "name": "",
          "type": "uint256"
        }
      ],
      "stateMutability": "view",
      "type": "function"
    },
    {
      "inputs": [
        {
          "internalType": "address",
          "name": "_authControl",
          "type": "address"
        }
      ],
      "name": "initialize",
      "outputs": [],
      "stateMutability": "nonpayable",
      "type": "function"
    },
    {
      "inputs": [
        {
          "internalType": "address",
          "name": "staker",
          "type": "address"
        }
      ],
      "name": "isTopStaker",
      "outputs": [
        {
          "internalType": "bool",
          "name": "",
          "type": "bool"
        }
      ],
      "stateMutability": "view",
      "type": "function"
    },
    {
      "inputs": [
        {
          "internalType": "address",
          "name": "staker",
          "type": "address"
        }
      ],
      "name": "removeTopStaker",
      "outputs": [],
      "stateMutability": "nonpayable",
      "type": "function"
    },
    {
      "inputs": [
        {
          "internalType": "bytes4",
          "name": "interfaceId",
          "type": "bytes4"
        }
      ],
      "name": "supportsInterface",
      "outputs": [
        {
          "internalType": "bool",
          "name": "",
          "type": "bool"
        }
      ],
      "stateMutability": "view",
      "type": "function"
    }
  ],
  "numDeployments": 3,
  "solcInputHash": "763a020caf9e1e6ef21291ab55ec3cde",
  "bytecode": "0x60808060405234610016576109b0908161001c8239f35b600080fdfe608060408181526004918236101561001657600080fd5b600092833560e01c91826301ffc9a7146106e25750816303287e68146106a357816303ee9f221461067757816314c376dc1461063c578163438280dd1461060157816371d0fb41146105c657816375071d2a1461058b57816375b238fc146105705781638e5313e0146105355781639e727dce14610485578163c4d66de814610241578163c4e4a93b14610222578163dc97e84e146101e7578163e315f47b14610107575063e9c26518146100ca57600080fd5b34610103578160031936011261010357602090517f3b5d4cc60d3ec3516ee8ae083bd60934f6eb2a6c54b1229985c41bfb092b26038152f35b5080fd5b8383346101035760203660031901126101035782356001600160a01b0381811692918390036101e3576020604491855460101c16835192838092632474521560e21b8252888a8301523360248301525afa9081156101d95784916101ab575b501561019c576101758261087d565b6101875750610183906107fe565b5080f35b5163e9cfb3f360e01b81529283015250602490fd5b51631886ea7d60e11b81528390fd5b6101cc915060203d81116101d2575b6101c48183610777565b8101906107b0565b85610166565b503d6101ba565b82513d86823e3d90fd5b8380fd5b505034610103578160031936011261010357602090517f9a9aef7c1247d5fc769b0185c052913e39673da29a880317dfd20ebf86f26a498152f35b5050346101035781600319360112610103576020906001549051908152f35b9190503461048157602090816003193601126101e3578235926001600160a01b0384169081850361047d5785549060ff8260081c161591828093610470575b8015610459575b156103ff5760ff1981166001178855826103ee575b5086549560ff8760081c16156103975762010000600160b01b0360109190911b1662010000600160b01b03198716811788559280151590869082610336575b505061032857506102ea578480f35b7f7f26b83ff96e1f2b6a682f133852f6798a09c465da95921460cefb384740249893610100600160b01b0319161784555160018152a1388080808480f35b83516384d942fd60e01b8152fd5b86516301ffc9a760e01b8152637965db0b60e01b858201529250829060249082905afa90811561038d578891610370575b501585386102db565b6103879150863d88116101d2576101c48183610777565b38610367565b85513d8a823e3d90fd5b845162461bcd60e51b8152808301879052602b60248201527f496e697469616c697a61626c653a20636f6e7472616374206973206e6f74206960448201526a6e697469616c697a696e6760a81b6064820152608490fd5b61ffff19166101011787553861029c565b845162461bcd60e51b8152808301879052602e60248201527f496e697469616c697a61626c653a20636f6e747261637420697320616c72656160448201526d191e481a5b9a5d1a585b1a5e995960921b6064820152608490fd5b50303b1580156102875750600160ff821614610287565b50600160ff821610610280565b8580fd5b8280fd5b8383346101035760203660031901126101035782356001600160a01b0381811692918390036101e3576020604491855460101c16835192838092632474521560e21b8252888a8301523360248301525afa9081156101d9578491610517575b501561019c576104f38261087d565b15610502575061018390610890565b5163012076ad60e21b81529283015250602490fd5b61052f915060203d81116101d2576101c48183610777565b856104e4565b505034610103578160031936011261010357602090517fe453bacb314e78dcd5192e6b1a2b1f0e7c76e92f6b7e429a6a90f04e39db3b768152f35b50503461010357816003193601126101035751908152602090f35b505034610103578160031936011261010357602090517f5719df9ef2c4678b547f89e4f5ae410dbf400fc51cf3ded434c55f6adea2c43f8152f35b505034610103578160031936011261010357602090517f880a91047114272656e533301261260c75e4d11543ac7303d6fe4204579ec7278152f35b505034610103578160031936011261010357602090517f39f61ca2a1a28fee144218173ec637b649a353e4026b2738c673800e5bf1437b8152f35b505034610103578160031936011261010357602090517fe965846df3dd5b1dfa65f58e31477079e90140e0908b6dd31b5aead5a57cf3658152f35b5050346101035781600319360112610103579054905160109190911c6001600160a01b03168152602090f35b90503461048157602036600319011261048157356001600160a01b03811692908390036106df57506106d660209261087d565b90519015158152f35b80fd5b929150346101e35760203660031901126101e357803563ffffffff60e01b81168091036107735784546301ffc9a760e01b8552918401526020908390602490829060101c6001600160a01b03165afa918215610769576020939261074a575b50519015158152f35b610762919250833d81116101d2576101c48183610777565b9038610741565b81513d85823e3d90fd5b8480fd5b601f909101601f19168101906001600160401b0382119082101761079a57604052565b634e487b7160e01b600052604160045260246000fd5b908160209103126107c8575180151581036107c85790565b600080fd5b6001548110156107e857600160005260206000200190600090565b634e487b7160e01b600052603260045260246000fd5b60008181526002602052604081205461087857600154600160401b811015610864579082610850610837846001604096016001556107cd565b819391549060031b600019811b9283911b169119161790565b905560015492815260026020522055600190565b634e487b7160e01b82526041600452602482fd5b905090565b6000526002602052604060002054151590565b60008181526002602052604081205490919080156109755760001990808201818111610961576001549083820191821161094d57808203610919575b5050506001548015610905578101906108e4826107cd565b909182549160031b1b19169055600155815260026020526040812055600190565b634e487b7160e01b84526031600452602484fd5b610937610928610837936107cd565b90549060031b1c9283926107cd565b90558452600260205260408420553880806108cc565b634e487b7160e01b86526011600452602486fd5b634e487b7160e01b85526011600452602485fd5b50509056fea2646970667358221220c7c6854830e07aecad19100b753fd4218489ae75e473cb7559cea45af5a273f364736f6c63430008110033",
  "devdoc": {
    "kind": "dev",
    "methods": {
      "supportsInterface(bytes4)": {
        "details": "Returns true if this contract implements the interface defined by `interfaceId`. See the corresponding https://eips.ethereum.org/EIPS/eip-165#how-interfaces-are-identified[EIP section] to learn more about how these ids are created. This function call must use less than 30 000 gas."
      }
    },
    "version": 1
  },
  "userdoc": {
    "kind": "user",
    "methods": {},
    "notice": "Real TopStaker in polygon/mainnet will be different, but with the same interface*",
    "version": 1
  },
  "storageLayout": {
    "storage": [
      {
        "astId": 671,
        "contract": "contracts/exchange/contracts/TopStakers.sol:TopStakers",
        "label": "_initialized",
        "offset": 0,
        "slot": "0",
        "type": "t_uint8"
      },
      {
        "astId": 674,
        "contract": "contracts/exchange/contracts/TopStakers.sol:TopStakers",
        "label": "_initializing",
        "offset": 1,
        "slot": "0",
        "type": "t_bool"
      },
      {
        "astId": 34698,
        "contract": "contracts/exchange/contracts/TopStakers.sol:TopStakers",
        "label": "ACCESS_CONTROL_SINGLETON",
        "offset": 2,
        "slot": "0",
        "type": "t_contract(ISuAccessControl)38513"
      },
      {
        "astId": 19546,
        "contract": "contracts/exchange/contracts/TopStakers.sol:TopStakers",
        "label": "topStakers",
        "offset": 0,
        "slot": "1",
        "type": "t_struct(AddressSet)4927_storage"
      }
    ],
    "types": {
      "t_array(t_bytes32)dyn_storage": {
        "base": "t_bytes32",
        "encoding": "dynamic_array",
        "label": "bytes32[]",
        "numberOfBytes": "32"
      },
      "t_bool": {
        "encoding": "inplace",
        "label": "bool",
        "numberOfBytes": "1"
      },
      "t_bytes32": {
        "encoding": "inplace",
        "label": "bytes32",
        "numberOfBytes": "32"
      },
      "t_contract(ISuAccessControl)38513": {
        "encoding": "inplace",
        "label": "contract ISuAccessControl",
        "numberOfBytes": "20"
      },
      "t_mapping(t_bytes32,t_uint256)": {
        "encoding": "mapping",
        "key": "t_bytes32",
        "label": "mapping(bytes32 => uint256)",
        "numberOfBytes": "32",
        "value": "t_uint256"
      },
      "t_struct(AddressSet)4927_storage": {
        "encoding": "inplace",
        "label": "struct EnumerableSetUpgradeable.AddressSet",
        "members": [
          {
            "astId": 4926,
            "contract": "contracts/exchange/contracts/TopStakers.sol:TopStakers",
            "label": "_inner",
            "offset": 0,
            "slot": "0",
            "type": "t_struct(Set)4612_storage"
          }
        ],
        "numberOfBytes": "64"
      },
      "t_struct(Set)4612_storage": {
        "encoding": "inplace",
        "label": "struct EnumerableSetUpgradeable.Set",
        "members": [
          {
            "astId": 4607,
            "contract": "contracts/exchange/contracts/TopStakers.sol:TopStakers",
            "label": "_values",
            "offset": 0,
            "slot": "0",
            "type": "t_array(t_bytes32)dyn_storage"
          },
          {
            "astId": 4611,
            "contract": "contracts/exchange/contracts/TopStakers.sol:TopStakers",
            "label": "_indexes",
            "offset": 0,
            "slot": "1",
            "type": "t_mapping(t_bytes32,t_uint256)"
          }
        ],
        "numberOfBytes": "64"
      },
      "t_uint256": {
        "encoding": "inplace",
        "label": "uint256",
        "numberOfBytes": "32"
      },
      "t_uint8": {
        "encoding": "inplace",
        "label": "uint8",
        "numberOfBytes": "1"
      }
    }
  }
}