{
  "address": "0xbF777F01C792dE9362121d3e91F1b3a1403bC679",
  "abi": [
    {
      "inputs": [],
      "name": "AmountMustBeMoreThatMinimum",
      "type": "error"
    },
    {
      "inputs": [],
      "name": "BadAccessControlSingleton",
      "type": "error"
    },
    {
      "inputs": [
        {
          "internalType": "uint256",
          "name": "available",
          "type": "uint256"
        },
        {
          "internalType": "uint256",
          "name": "requested",
          "type": "uint256"
        }
      ],
      "name": "InsufficientStake",
      "type": "error"
    },
    {
      "inputs": [],
      "name": "NotStakerFound",
      "type": "error"
    },
    {
      "inputs": [],
      "name": "OnlyAdminError",
      "type": "error"
    },
    {
      "inputs": [],
      "name": "OnlyAlerterError",
      "type": "error"
    },
    {
      "inputs": [],
      "name": "OnlyCDPAccessError",
      "type": "error"
    },
    {
      "inputs": [],
      "name": "OnlyDAOError",
      "type": "error"
    },
    {
      "inputs": [],
      "name": "OnlyDisablerAccessError",
      "type": "error"
    },
    {
      "inputs": [],
      "name": "OnlyLiquidationAccessError",
      "type": "error"
    },
    {
      "inputs": [],
      "name": "OnlyMintAccessError",
      "type": "error"
    },
    {
      "inputs": [],
      "name": "OnlyProxyActionsError",
      "type": "error"
    },
    {
      "inputs": [],
      "name": "OnlyRewardAccessError",
      "type": "error"
    },
    {
      "inputs": [],
      "name": "OnlyRoleError",
      "type": "error"
    },
    {
      "inputs": [],
      "name": "OnlyVaultAccessError",
      "type": "error"
    },
    {
      "inputs": [],
      "name": "OnlyVotingEscrowError",
      "type": "error"
    },
    {
      "anonymous": false,
      "inputs": [
        {
          "indexed": false,
          "internalType": "uint8",
          "name": "version",
          "type": "uint8"
        }
      ],
      "name": "Initialized",
      "type": "event"
    },
    {
      "inputs": [],
      "name": "ACCESS_CONTROL_SINGLETON",
      "outputs": [
        {
          "internalType": "contract ISuAccessControl",
          "name": "",
          "type": "address"
        }
      ],
      "stateMutability": "view",
      "type": "function"
    },
    {
      "inputs": [],
      "name": "ADMIN_ROLE",
      "outputs": [
        {
          "internalType": "bytes32",
          "name": "",
          "type": "bytes32"
        }
      ],
      "stateMutability": "view",
      "type": "function"
    },
    {
      "inputs": [],
      "name": "ALERTER_ROLE",
      "outputs": [
        {
          "internalType": "bytes32",
          "name": "",
          "type": "bytes32"
        }
      ],
      "stateMutability": "view",
      "type": "function"
    },
    {
      "inputs": [],
      "name": "CDP_ACCESS_ROLE",
      "outputs": [
        {
          "internalType": "bytes32",
          "name": "",
          "type": "bytes32"
        }
      ],
      "stateMutability": "view",
      "type": "function"
    },
    {
      "inputs": [],
      "name": "DAO_ROLE",
      "outputs": [
        {
          "internalType": "bytes32",
          "name": "",
          "type": "bytes32"
        }
      ],
      "stateMutability": "view",
      "type": "function"
    },
    {
      "inputs": [],
      "name": "DISABLER_ROLE",
      "outputs": [
        {
          "internalType": "bytes32",
          "name": "",
          "type": "bytes32"
        }
      ],
      "stateMutability": "view",
      "type": "function"
    },
    {
      "inputs": [],
      "name": "LIQUIDATION_ACCESS_ROLE",
      "outputs": [
        {
          "internalType": "bytes32",
          "name": "",
          "type": "bytes32"
        }
      ],
      "stateMutability": "view",
      "type": "function"
    },
    {
      "inputs": [],
      "name": "MINT_ACCESS_ROLE",
      "outputs": [
        {
          "internalType": "bytes32",
          "name": "",
          "type": "bytes32"
        }
      ],
      "stateMutability": "view",
      "type": "function"
    },
    {
      "inputs": [],
      "name": "PROXY_ACTIONS_ROLE",
      "outputs": [
        {
          "internalType": "bytes32",
          "name": "",
          "type": "bytes32"
        }
      ],
      "stateMutability": "view",
      "type": "function"
    },
    {
      "inputs": [],
      "name": "REWARD_ACCESS_ROLE",
      "outputs": [
        {
          "internalType": "bytes32",
          "name": "",
          "type": "bytes32"
        }
      ],
      "stateMutability": "view",
      "type": "function"
    },
    {
      "inputs": [],
      "name": "VOTING_ESCROW_ROLE",
      "outputs": [
        {
          "internalType": "bytes32",
          "name": "",
          "type": "bytes32"
        }
      ],
      "stateMutability": "view",
      "type": "function"
    },
    {
      "inputs": [
        {
          "internalType": "uint256",
          "name": "_minStakingAmount",
          "type": "uint256"
        }
      ],
      "name": "changeMinStakingAmount",
      "outputs": [],
      "stateMutability": "nonpayable",
      "type": "function"
    },
    {
      "inputs": [
        {
          "internalType": "uint256",
          "name": "newTopStakersCount",
          "type": "uint256"
        }
      ],
      "name": "changeTopStakersCount",
      "outputs": [],
      "stateMutability": "nonpayable",
      "type": "function"
    },
    {
      "inputs": [
        {
          "internalType": "address",
          "name": "_veToken",
          "type": "address"
        }
      ],
      "name": "changeVeToken",
      "outputs": [],
      "stateMutability": "nonpayable",
      "type": "function"
    },
    {
      "inputs": [],
      "name": "cleanExpiredTopStakers",
      "outputs": [],
      "stateMutability": "nonpayable",
      "type": "function"
    },
    {
      "inputs": [],
      "name": "getStakersLength",
      "outputs": [
        {
          "internalType": "uint256",
          "name": "",
          "type": "uint256"
        }
      ],
      "stateMutability": "view",
      "type": "function"
    },
    {
      "inputs": [],
      "name": "getTopStakers",
      "outputs": [
        {
          "internalType": "address[]",
          "name": "",
          "type": "address[]"
        }
      ],
      "stateMutability": "view",
      "type": "function"
    },
    {
      "inputs": [
        {
          "internalType": "address",
          "name": "_authControl",
          "type": "address"
        },
        {
          "internalType": "address",
          "name": "_veToken",
          "type": "address"
        }
      ],
      "name": "initialize",
      "outputs": [],
      "stateMutability": "nonpayable",
      "type": "function"
    },
    {
      "inputs": [
        {
          "internalType": "address",
          "name": "user",
          "type": "address"
        }
      ],
      "name": "isStaker",
      "outputs": [
        {
          "internalType": "bool",
          "name": "",
          "type": "bool"
        }
      ],
      "stateMutability": "view",
      "type": "function"
    },
    {
      "inputs": [
        {
          "internalType": "address",
          "name": "staker",
          "type": "address"
        }
      ],
      "name": "isTopStaker",
      "outputs": [
        {
          "internalType": "bool",
          "name": "",
          "type": "bool"
        }
      ],
      "stateMutability": "view",
      "type": "function"
    },
    {
      "inputs": [],
      "name": "minStakingAmount",
      "outputs": [
        {
          "internalType": "uint256",
          "name": "",
          "type": "uint256"
        }
      ],
      "stateMutability": "view",
      "type": "function"
    },
    {
      "inputs": [
        {
          "internalType": "address",
          "name": "user",
          "type": "address"
        },
        {
          "internalType": "address",
          "name": "prevDelegatee",
          "type": "address"
        },
        {
          "internalType": "address",
          "name": "newDelegatee",
          "type": "address"
        }
      ],
      "name": "onDelegationChanged",
      "outputs": [],
      "stateMutability": "nonpayable",
      "type": "function"
    },
    {
      "inputs": [],
      "name": "subscribe",
      "outputs": [],
      "stateMutability": "nonpayable",
      "type": "function"
    },
    {
      "inputs": [
        {
          "internalType": "bytes4",
          "name": "interfaceId",
          "type": "bytes4"
        }
      ],
      "name": "supportsInterface",
      "outputs": [
        {
          "internalType": "bool",
          "name": "",
          "type": "bool"
        }
      ],
      "stateMutability": "view",
      "type": "function"
    },
    {
      "inputs": [],
      "name": "topStakersCount",
      "outputs": [
        {
          "internalType": "uint256",
          "name": "",
          "type": "uint256"
        }
      ],
      "stateMutability": "view",
      "type": "function"
    },
    {
      "inputs": [],
      "name": "unsubscribe",
      "outputs": [],
      "stateMutability": "nonpayable",
      "type": "function"
    },
    {
      "inputs": [],
      "name": "veToken",
      "outputs": [
        {
          "internalType": "contract IVeToken",
          "name": "",
          "type": "address"
        }
      ],
      "stateMutability": "view",
      "type": "function"
    }
  ],
  "numDeployments": 5,
  "solcInputHash": "063b59c64b6b03a7efa7d47f22e02344",
  "bytecode": "0x6080806040523461001657611685908161001c8239f35b600080fdfe60806040908082526004918236101561001757600080fd5b600092833560e01c92836301ffc9a714610d6f5750826303287e6814610d4057826303ee9f2214610d1457826325c065b114610cf55782633841c5bf14610c565782633b92eb2314610c2d5782634375995d14610bad578263438280dd14610b72578263485cc955146109115782634a390d151461087a5782636f1e8533146107c95782636f7fc6dc146107aa57826370bb9a251461065457826371d0fb411461061957826375b238fc146105fe5782638e5313e0146105c35782638f449a05146104f25782639fabeb00146104d3578263b38234f314610498578263b757b75b14610377578263bd5f5be61461033c578263d0e8fa8214610313578263d16538621461022457508163d2351cee146101e9578163dc97e84e146101ae578163e9c265181461016f575063fcae44841461015057600080fd5b3461016c578060031936011261016c576101693361136b565b80f35b80fd5b9050346101aa57816003193601126101aa57602090517f3b5d4cc60d3ec3516ee8ae083bd60934f6eb2a6c54b1229985c41bfb092b26038152f35b5080fd5b9050346101aa57816003193601126101aa57602090517f9a9aef7c1247d5fc769b0185c052913e39673da29a880317dfd20ebf86f26a498152f35b9050346101aa57816003193601126101aa57602090517fb0fdd1623e42dbffda4acd8bd643e1cb69f00f0e83abeaa8150ee42cf0fd105e8152f35b9091503461030f578260031936011261030f576002546001600160a01b0390811690845b8183169283151580610304575b1561030057908260075416918651809363cbf9fe5f60e01b8252868883015281602460809687935afa9081156102f6576102b5948a926102c9575b50508742910151109488526001602052836003888a20015416946102ba575b50610ef8565b610248565b6102c39061136b565b386102af565b6102e89250803d106102ef575b6102e08183610e65565b8101906113ae565b3880610290565b503d6102d6565b88513d8b823e3d90fd5b8680f35b506005548210610255565b8280fd5b8382346101aa57816003193601126101aa57602090516000805160206116308339815191528152f35b8382346101aa57816003193601126101aa57602090517f4f14c8366fa999817edc9f29824eb88a00cc31225e2156f399da4bc91049eb108152f35b9091503461030f57606036600319011261030f57610393610e03565b9161039c610e1e565b604435936001600160a01b0393848616938487036104945760446020878a5460101c16835192838092632474521560e21b8252600080516020611630833981519152888301523360248301525afa90811561048a57899161045c575b501561044f5750508061040b8592611408565b1692811682848214159182610444575b5050610435575b500361042c575080f35b61016990611408565b61043e90611408565b38610422565b14159050823861041b565b51631f4ead2d60e01b8152fd5b61047d915060203d8111610483575b6104758183610e65565b810190610e88565b386103f8565b503d61046b565b82513d8b823e3d90fd5b8780fd5b8382346101aa57816003193601126101aa57602090517fd83f5343da19b478b15a140c301a868be9e02603958f38fbd822b9d5c0a289168152f35b9091503461030f578260031936011261030f5760209250549051908152f35b8382346101aa57816003193601126101aa5760075481516370a0823160e01b81523385820152916001600160a01b03916020908490602490829086165afa9283156105b9578493610582575b506006548311156105735750906101699161055833610ede565b5416610565575b33610f1d565b61056e33611205565b61055f565b51632891f68760e21b81528490fd5b9092506020813d82116105b1575b8161059d60209383610e65565b810103126105ad5751918561053e565b8380fd5b3d9150610590565b81513d86823e3d90fd5b8382346101aa57816003193601126101aa57602090517fe453bacb314e78dcd5192e6b1a2b1f0e7c76e92f6b7e429a6a90f04e39db3b768152f35b8382346101aa57816003193601126101aa5751908152602090f35b8382346101aa57816003193601126101aa57602090517f880a91047114272656e533301261260c75e4d11543ac7303d6fe4204579ec7278152f35b9091503461030f578260031936011261030f5760059283548254908181116000146107a45750805b81116107525761068b81611618565b9061069885519283610e65565b8082526106a481611618565b9360209182840195601f19013687376002546001600160a01b039886918a165b8383106107065750505050508451948186019282875251809352850193925b8281106106f05785850386f35b83518716855293810193928101926001016106e3565b869795965183101561073f578a600361072c838361073595168b8d89891b010152610ede565b01541692610ef8565b91969594966106c4565b634e487b7160e01b865260328552602486fd5b835162461bcd60e51b8152602081850152602660248201527f526571756573746564206d6f726520656c656d656e7473207468616e20617661604482015265696c61626c6560d01b6064820152608490fd5b9061067c565b8382346101aa57816003193601126101aa576020906005549051908152f35b91503461030f57602036600319011261030f576107e4610e03565b9160018060a01b03906080826007541691602485518094819363cbf9fe5f60e01b8352878a16908301525afa9081156108705790839160209691610852575b500151421115928361083a575b5050519015158152f35b61084691929350610ede565b54161515903880610830565b61086a915060803d81116102ef576102e08183610e65565b38610823565b83513d87823e3d90fd5b91503461030f57602036600319011261030f5782548151632474521560e21b8152838101859052336024820152906020908290604490829060101c6001600160a01b03165afa9081156109075784916108e9575b50156108dc57503560055580f35b51631886ea7d60e11b8152fd5b610901915060203d8111610483576104758183610e65565b386108ce565b82513d86823e3d90fd5b9091503461030f578160031936011261030f5761092c610e03565b91610935610e1e565b9184549060ff8260081c161591828093610b65575b8015610b4e575b15610af45760ff198116600117875582610ae3575b5085549360ff8560081c1615610a8c5762010000600160b01b03601087901b1662010000600160b01b0319861681178855956001600160a01b03929083168015908115610a28575b50610a1a57501660018060a01b031960075416176007556015600555846006556109d6578380f35b610100600160b01b0319909116909117825551600181527f7f26b83ff96e1f2b6a682f133852f6798a09c465da95921460cefb384740249890602090a13880808380f35b84516384d942fd60e01b8152fd5b86516301ffc9a760e01b8152637965db0b60e01b848201529150602090829060249082905afa908115610a82578991610a64575b5015386109ae565b610a7c915060203d8111610483576104758183610e65565b38610a5c565b86513d8b823e3d90fd5b835162461bcd60e51b8152602081840152602b60248201527f496e697469616c697a61626c653a20636f6e7472616374206973206e6f74206960448201526a6e697469616c697a696e6760a81b6064820152608490fd5b61ffff191661010117865538610966565b835162461bcd60e51b8152602081840152602e60248201527f496e697469616c697a61626c653a20636f6e747261637420697320616c72656160448201526d191e481a5b9a5d1a585b1a5e995960921b6064820152608490fd5b50303b1580156109515750600160ff821614610951565b50600160ff82161061094a565b8382346101aa57816003193601126101aa57602090517f39f61ca2a1a28fee144218173ec637b649a353e4026b2738c673800e5bf1437b8152f35b91503461030f57602036600319011261030f5782548151632474521560e21b8152838101859052336024820152906020908290604490829060101c6001600160a01b03165afa908115610907578491610c0f575b50156108dc57503560065580f35b610c27915060203d8111610483576104758183610e65565b38610c01565b8382346101aa57816003193601126101aa5760075490516001600160a01b039091168152602090f35b9091503461030f57602036600319011261030f57610c72610e03565b9060018060a01b03926044602085875460101c16835192838092632474521560e21b82528a888301523360248301525afa908115610ceb578691610ccd575b50156108dc5750501660018060a01b0319600754161760075580f35b610ce5915060203d8111610483576104758183610e65565b38610cb1565b82513d88823e3d90fd5b8382346101aa57816003193601126101aa576020906006549051908152f35b8382346101aa57816003193601126101aa579054905160109190911c6001600160a01b03168152602090f35b8382346101aa5760203660031901126101aa57602090610d66610d61610e03565b6114ca565b90519015158152f35b9250346105ad5760203660031901126105ad57803563ffffffff60e01b8116809103610dff5784546301ffc9a760e01b8552918401526020908390602490829060101c6001600160a01b03165afa918215610df55760209392610dd6575b50519015158152f35b610dee919250833d8111610483576104758183610e65565b9038610dcd565b81513d85823e3d90fd5b8480fd5b600435906001600160a01b0382168203610e1957565b600080fd5b602435906001600160a01b0382168203610e1957565b608081019081106001600160401b03821117610e4f57604052565b634e487b7160e01b600052604160045260246000fd5b601f909101601f19168101906001600160401b03821190821017610e4f57604052565b90816020910312610e1957518015158103610e195790565b15610ea757565b60405162461bcd60e51b815260206004820152600f60248201526e496e76616c6964206164647265737360881b6044820152606490fd5b6001600160a01b0316600090815260016020526040902090565b6000198114610f075760010190565b634e487b7160e01b600052601160045260246000fd5b6001600160a01b039081169190610f35831515610ea0565b600454610fcb57600360018060a01b03199284846002541617600255848483541617825560405190610f6682610e34565b8582526020820190815260408201906000825260608301966000885260005260016020528460406000209351168684541617835551600183015583600283019151168582541617905501925116908254161790555b610fc6600454610ef8565b600455565b9160029391938381541694855b85811690811515806111ec575b1561100457506003604087926000908152600160205220015416610fd8565b869150969192939496169081156000146110b057505060039380855416600052600160205284806040600020019360018060a01b031994868682541617905582825416836040519261105584610e34565b8884526020840196875260408401928352606084019660008852896000526001602052826040600020955116898654161785555160018501558301915116868254161790550191511682825416179055825416179055610fbb565b9294919281036111495750808454168160036040516110ce81610e34565b868152602081019586526040810160008152606082019485528760005260016020528360406000209251169660018060a01b0319978884541617835551600183015583898301915116878254161790550191511683825416179055835416600052826040600020018282825416179055825416179055610fbb565b6000818152600160205260408082208701548416808352818320600390810180546001600160a01b03199081168a17909155835190999793969495949261118f82610e34565b8982526020820194855287820190815260608201948686528a88526001602052848989209351168c845416178355516001830155838983019151168b82541617905501915116878254161790558152200191825416179055610fbb565b5082600083815260406001918260205220015411610fe5565b6001600160a01b039081169061121c821515610ea0565b60045415611336576003600092838093828252600192836020526040918284209080845161124981610e34565b83548216815287840154602082015260028401548216868201818152948a0154831660609092018281529190801561131c57885260208990528688208a0180546001600160a01b03191690911790555b51169182156113045751918552602086905283852060020180546001600160a01b031916919092161790555b82528260205281209181835582015582600282015501556004549081156112f0575060001901600455565b634e487b7160e01b81526011600452602490fd5b5187546001600160a01b0319169116178655506112c5565b50600280546001600160a01b031916919091179055611299565b60405162461bcd60e51b815260206004820152600d60248201526c4c69737420697320656d70747960981b6044820152606490fd5b6001600160a01b0361137c82610ede565b54161561138e5761138c90611205565b565b6040516306fceae360e01b8152600490fd5b519081600f0b8203610e1957565b90816080910312610e19576060604051916113c883610e34565b6113d1816113a0565b83526113df602082016113a0565b60208401526040818101519084015201516001600160a01b0381168103610e1957606082015290565b60075460405163cbf9fe5f60e01b81526001600160a01b038381166004830181905291926080908490602490829085165afa9283156114be5760009361149e575b5082516001600160801b0316926060908261146387610ede565b5416611490575b0151161480611485575b61147c575050565b61138c91610f1d565b506006548111611474565b61149986611205565b61146a565b6114b791935060803d81116102ef576102e08183610e65565b9138611449565b6040513d6000823e3d90fd5b906001600160a01b03806114dd84610ede565b54166115b3575b806002541692600092828060075416955b16801515806115a8575b1561159d57604090815163cbf9fe5f60e01b815281600482015260809081816024818c5afa91821561159257916060918893600092611575575b50500151168585161461156957846003819361156393600052600160205260002001541695610ef8565b946114f5565b50509350505050600190565b61158b9250803d106102ef576102e08183610e65565b3880611539565b84513d6000823e3d90fd5b509350505050600090565b5060055485106114ff565b60009283928280600254165b168015158061160d575b156116035783831681146115f85785526001602052826115f28160036040892001541695610ef8565b946115bf565b509350505050600190565b50925092506114e4565b5060055485106115c9565b6001600160401b038111610e4f5760051b6020019056fe76d0567582f23e1e9d7a13eeba60f9aea9d69b8da87ca27a8bf3698b35c653dba26469706673582212203f5b6f1943a776cc7dbfd08c566ca67e5b6089a9300e26d07a714123cfa8e21764736f6c63430008110033",
  "devdoc": {
    "kind": "dev",
    "methods": {
      "supportsInterface(bytes4)": {
        "details": "Returns true if this contract implements the interface defined by `interfaceId`. See the corresponding https://eips.ethereum.org/EIPS/eip-165#how-interfaces-are-identified[EIP section] to learn more about how these ids are created. This function call must use less than 30 000 gas."
      }
    },
    "title": "TopStakers",
    "version": 1
  },
  "userdoc": {
    "kind": "user",
    "methods": {
      "changeTopStakersCount(uint256)": {
        "notice": "Admin function to change number of top stakers*"
      },
      "cleanExpiredTopStakers()": {
        "notice": "Sometimes topStakers can be expired (lock date is over), this function remove such topStakers*"
      },
      "getStakersLength()": {
        "notice": "Returns the amount of subscribed users (stakers list length)*"
      },
      "getTopStakers()": {
        "notice": "Returns the list of users that are topStakers*"
      },
      "isStaker(address)": {
        "notice": "Returns if user is staker with not expired stake*"
      },
      "isTopStaker(address)": {
        "notice": "Returns if user is top staker or not*"
      },
      "onDelegationChanged(address,address,address)": {
        "notice": "Callback that is calling by veToken after adding/removing delegation*"
      },
      "subscribe()": {
        "notice": "User function to add yourself in stakers list to be able to be topStaker for liquidation*"
      },
      "unsubscribe()": {
        "notice": "User function to remove yourself from stakers list*"
      }
    },
    "notice": "Contract that have functionality to work with Top Stakers. They need to have veToken and call subscribe to participate in this list.*",
    "version": 1
  },
  "storageLayout": {
    "storage": [
      {
        "astId": 462,
        "contract": "contracts/staking/contracts/TopStakers.sol:TopStakers",
        "label": "_initialized",
        "offset": 0,
        "slot": "0",
        "type": "t_uint8"
      },
      {
        "astId": 465,
        "contract": "contracts/staking/contracts/TopStakers.sol:TopStakers",
        "label": "_initializing",
        "offset": 1,
        "slot": "0",
        "type": "t_bool"
      },
      {
        "astId": 26374,
        "contract": "contracts/staking/contracts/TopStakers.sol:TopStakers",
        "label": "ACCESS_CONTROL_SINGLETON",
        "offset": 2,
        "slot": "0",
        "type": "t_contract(ISuAccessControl)29456"
      },
      {
        "astId": 34924,
        "contract": "contracts/staking/contracts/TopStakers.sol:TopStakers",
        "label": "stakers",
        "offset": 0,
        "slot": "1",
        "type": "t_struct(List)18813_storage"
      },
      {
        "astId": 34926,
        "contract": "contracts/staking/contracts/TopStakers.sol:TopStakers",
        "label": "topStakersCount",
        "offset": 0,
        "slot": "5",
        "type": "t_uint256"
      },
      {
        "astId": 34928,
        "contract": "contracts/staking/contracts/TopStakers.sol:TopStakers",
        "label": "minStakingAmount",
        "offset": 0,
        "slot": "6",
        "type": "t_uint256"
      },
      {
        "astId": 34931,
        "contract": "contracts/staking/contracts/TopStakers.sol:TopStakers",
        "label": "veToken",
        "offset": 0,
        "slot": "7",
        "type": "t_contract(IVeToken)34912"
      }
    ],
    "types": {
      "t_address": {
        "encoding": "inplace",
        "label": "address",
        "numberOfBytes": "20"
      },
      "t_bool": {
        "encoding": "inplace",
        "label": "bool",
        "numberOfBytes": "1"
      },
      "t_contract(ISuAccessControl)29456": {
        "encoding": "inplace",
        "label": "contract ISuAccessControl",
        "numberOfBytes": "20"
      },
      "t_contract(IVeToken)34912": {
        "encoding": "inplace",
        "label": "contract IVeToken",
        "numberOfBytes": "20"
      },
      "t_mapping(t_address,t_struct(Node)18801_storage)": {
        "encoding": "mapping",
        "key": "t_address",
        "label": "mapping(address => struct SortedLinkedList.Node)",
        "numberOfBytes": "32",
        "value": "t_struct(Node)18801_storage"
      },
      "t_struct(List)18813_storage": {
        "encoding": "inplace",
        "label": "struct SortedLinkedList.List",
        "members": [
          {
            "astId": 18806,
            "contract": "contracts/staking/contracts/TopStakers.sol:TopStakers",
            "label": "nodes",
            "offset": 0,
            "slot": "0",
            "type": "t_mapping(t_address,t_struct(Node)18801_storage)"
          },
          {
            "astId": 18808,
            "contract": "contracts/staking/contracts/TopStakers.sol:TopStakers",
            "label": "head",
            "offset": 0,
            "slot": "1",
            "type": "t_address"
          },
          {
            "astId": 18810,
            "contract": "contracts/staking/contracts/TopStakers.sol:TopStakers",
            "label": "tail",
            "offset": 0,
            "slot": "2",
            "type": "t_address"
          },
          {
            "astId": 18812,
            "contract": "contracts/staking/contracts/TopStakers.sol:TopStakers",
            "label": "size",
            "offset": 0,
            "slot": "3",
            "type": "t_uint256"
          }
        ],
        "numberOfBytes": "128"
      },
      "t_struct(Node)18801_storage": {
        "encoding": "inplace",
        "label": "struct SortedLinkedList.Node",
        "members": [
          {
            "astId": 18794,
            "contract": "contracts/staking/contracts/TopStakers.sol:TopStakers",
            "label": "key",
            "offset": 0,
            "slot": "0",
            "type": "t_address"
          },
          {
            "astId": 18796,
            "contract": "contracts/staking/contracts/TopStakers.sol:TopStakers",
            "label": "value",
            "offset": 0,
            "slot": "1",
            "type": "t_uint256"
          },
          {
            "astId": 18798,
            "contract": "contracts/staking/contracts/TopStakers.sol:TopStakers",
            "label": "prev",
            "offset": 0,
            "slot": "2",
            "type": "t_address"
          },
          {
            "astId": 18800,
            "contract": "contracts/staking/contracts/TopStakers.sol:TopStakers",
            "label": "next",
            "offset": 0,
            "slot": "3",
            "type": "t_address"
          }
        ],
        "numberOfBytes": "128"
      },
      "t_uint256": {
        "encoding": "inplace",
        "label": "uint256",
        "numberOfBytes": "32"
      },
      "t_uint8": {
        "encoding": "inplace",
        "label": "uint8",
        "numberOfBytes": "1"
      }
    }
  }
}