{
  "address": "0xa819e75A163e48dB49ba9E23c60028b04271Eed3",
  "abi": [
    {
      "inputs": [
        {
          "internalType": "address",
          "name": "staker",
          "type": "address"
        }
      ],
      "name": "StakerExist",
      "type": "error"
    },
    {
      "inputs": [
        {
          "internalType": "address",
          "name": "staker",
          "type": "address"
        }
      ],
      "name": "StakerNotExist",
      "type": "error"
    },
    {
      "anonymous": false,
      "inputs": [
        {
          "indexed": false,
          "internalType": "uint8",
          "name": "version",
          "type": "uint8"
        }
      ],
      "name": "Initialized",
      "type": "event"
    },
    {
      "inputs": [],
      "name": "ACCESS_CONTROL_SINGLETON",
      "outputs": [
        {
          "internalType": "contract ISuAccessControl",
          "name": "",
          "type": "address"
        }
      ],
      "stateMutability": "view",
      "type": "function"
    },
    {
      "inputs": [],
      "name": "LIQUIDATION_ACCESS_ROLE",
      "outputs": [
        {
          "internalType": "bytes32",
          "name": "",
          "type": "bytes32"
        }
      ],
      "stateMutability": "view",
      "type": "function"
    },
    {
      "inputs": [],
      "name": "MINTER_ROLE",
      "outputs": [
        {
          "internalType": "bytes32",
          "name": "",
          "type": "bytes32"
        }
      ],
      "stateMutability": "view",
      "type": "function"
    },
    {
      "inputs": [],
      "name": "VAULT_ACCESS_ROLE",
      "outputs": [
        {
          "internalType": "bytes32",
          "name": "",
          "type": "bytes32"
        }
      ],
      "stateMutability": "view",
      "type": "function"
    },
    {
      "inputs": [
        {
          "internalType": "address",
          "name": "staker",
          "type": "address"
        }
      ],
      "name": "addTopStaker",
      "outputs": [],
      "stateMutability": "nonpayable",
      "type": "function"
    },
    {
      "inputs": [],
      "name": "getTopStakersLength",
      "outputs": [
        {
          "internalType": "uint256",
          "name": "",
          "type": "uint256"
        }
      ],
      "stateMutability": "view",
      "type": "function"
    },
    {
      "inputs": [
        {
          "internalType": "address",
          "name": "_authControl",
          "type": "address"
        }
      ],
      "name": "initialize",
      "outputs": [],
      "stateMutability": "nonpayable",
      "type": "function"
    },
    {
      "inputs": [
        {
          "internalType": "address",
          "name": "staker",
          "type": "address"
        }
      ],
      "name": "isTopStaker",
      "outputs": [
        {
          "internalType": "bool",
          "name": "",
          "type": "bool"
        }
      ],
      "stateMutability": "view",
      "type": "function"
    },
    {
      "inputs": [
        {
          "internalType": "address",
          "name": "staker",
          "type": "address"
        }
      ],
      "name": "removeTopStaker",
      "outputs": [],
      "stateMutability": "nonpayable",
      "type": "function"
    }
  ],
  "numDeployments": 1,
  "solcInputHash": "f21cd953de572bbeee60b2afd0a705d7",
  "bytecode": "0x608080604052346100165761076c908161001c8239f35b600080fdfe6040608081526004908136101561001557600080fd5b600090813560e01c806303287e68146104a857806303ee9f221461047d57806314c376dc146104435780639e727dce146103ae578063c4d66de8146101ee578063c4e4a93b146101d0578063d539139314610196578063dc97e84e1461015c5763e315f47b1461008457600080fd5b346101585760203660031901126101585782356001600160a01b038181169291839003610154576020604491855460101c16835192838092632474521560e21b8252888a8301523360248301525afa90811561014a57906100ec91859161011c575b5061053d565b6100f582610639565b6101075750610103906105ba565b5080f35b5163e9cfb3f360e01b81529283015250602490fd5b61013d915060203d8111610143575b61013581836104e7565b810190610520565b386100e6565b503d61012b565b82513d86823e3d90fd5b8380fd5b5080fd5b5034610158578160031936011261015857602090517f9a9aef7c1247d5fc769b0185c052913e39673da29a880317dfd20ebf86f26a498152f35b5034610158578160031936011261015857602090517f9f2df0fed2c77648de5860a4cc508cd0818c85b8b8a1ab4ceeef8d981c8956a68152f35b50346101585781600319360112610158576020906001549051908152f35b5082346103aa5760203660031901126103aa578035916001600160a01b03831683036101545783549260ff8460081c16159384809561039d575b8015610386575b1561032c5760ff19811660011786558461031b575b5084549260ff8460081c16156102c4575062010000600160b01b0360109190911b1662010000600160b01b031983168117855592610280578380f35b610100600160b01b0319909116909117825551600181527f7f26b83ff96e1f2b6a682f133852f6798a09c465da95921460cefb384740249890602090a18180808380f35b608490602084519162461bcd60e51b8352820152602b60248201527f496e697469616c697a61626c653a20636f6e7472616374206973206e6f74206960448201526a6e697469616c697a696e6760a81b6064820152fd5b61ffff191661010117855585610244565b825162461bcd60e51b8152602081860152602e60248201527f496e697469616c697a61626c653a20636f6e747261637420697320616c72656160448201526d191e481a5b9a5d1a585b1a5e995960921b6064820152608490fd5b50303b15801561022f5750600160ff82161461022f565b50600160ff821610610228565b8280fd5b50346101585760203660031901126101585782356001600160a01b038181169291839003610154576020604491855460101c16835192838092632474521560e21b8252888a8301523360248301525afa90811561014a579061041691859161011c575061053d565b61041f82610639565b1561042e57506101039061064c565b5163012076ad60e21b81529283015250602490fd5b5034610158578160031936011261015857602090517fe965846df3dd5b1dfa65f58e31477079e90140e0908b6dd31b5aead5a57cf3658152f35b50346101585781600319360112610158579054905160109190911c6001600160a01b03168152602090f35b5082346103aa5760203660031901126103aa57356001600160a01b03811692908390036104e457506104db602092610639565b90519015158152f35b80fd5b601f909101601f19168101906001600160401b0382119082101761050a57604052565b634e487b7160e01b600052604160045260246000fd5b90816020910312610538575180151581036105385790565b600080fd5b1561054457565b60405162461bcd60e51b815260206004820152601d60248201527f5375417574683a206f6e6c794f776e657220415554485f4641494c45440000006044820152606490fd5b6001548110156105a457600160005260206000200190600090565b634e487b7160e01b600052603260045260246000fd5b60008181526002602052604081205461063457600154600160401b81101561062057908261060c6105f384600160409601600155610589565b819391549060031b600019811b9283911b169119161790565b905560015492815260026020522055600190565b634e487b7160e01b82526041600452602482fd5b905090565b6000526002602052604060002054151590565b6000818152600260205260408120549091908015610731576000199080820181811161071d5760015490838201918211610709578082036106d5575b50505060015480156106c1578101906106a082610589565b909182549160031b1b19169055600155815260026020526040812055600190565b634e487b7160e01b84526031600452602484fd5b6106f36106e46105f393610589565b90549060031b1c928392610589565b9055845260026020526040842055388080610688565b634e487b7160e01b86526011600452602486fd5b634e487b7160e01b85526011600452602485fd5b50509056fea2646970667358221220ac0eaa19e50961006f1bbb52ac8759c0ed56bef51d3fdcbeeda7e57cc914224b64736f6c63430008110033",
  "devdoc": {
    "kind": "dev",
    "methods": {},
    "version": 1
  },
  "userdoc": {
    "kind": "user",
    "methods": {},
    "version": 1
  },
  "storageLayout": {
    "storage": [
      {
        "astId": 461,
        "contract": "contracts/liquidator/v2/contracts/TopStakers.sol:TopStakers",
        "label": "_initialized",
        "offset": 0,
        "slot": "0",
        "type": "t_uint8"
      },
      {
        "astId": 464,
        "contract": "contracts/liquidator/v2/contracts/TopStakers.sol:TopStakers",
        "label": "_initializing",
        "offset": 1,
        "slot": "0",
        "type": "t_bool"
      },
      {
        "astId": 8364,
        "contract": "contracts/liquidator/v2/contracts/TopStakers.sol:TopStakers",
        "label": "ACCESS_CONTROL_SINGLETON",
        "offset": 2,
        "slot": "0",
        "type": "t_contract(ISuAccessControl)11891"
      },
      {
        "astId": 18041,
        "contract": "contracts/liquidator/v2/contracts/TopStakers.sol:TopStakers",
        "label": "topStakers",
        "offset": 0,
        "slot": "1",
        "type": "t_struct(AddressSet)4717_storage"
      }
    ],
    "types": {
      "t_array(t_bytes32)dyn_storage": {
        "base": "t_bytes32",
        "encoding": "dynamic_array",
        "label": "bytes32[]",
        "numberOfBytes": "32"
      },
      "t_bool": {
        "encoding": "inplace",
        "label": "bool",
        "numberOfBytes": "1"
      },
      "t_bytes32": {
        "encoding": "inplace",
        "label": "bytes32",
        "numberOfBytes": "32"
      },
      "t_contract(ISuAccessControl)11891": {
        "encoding": "inplace",
        "label": "contract ISuAccessControl",
        "numberOfBytes": "20"
      },
      "t_mapping(t_bytes32,t_uint256)": {
        "encoding": "mapping",
        "key": "t_bytes32",
        "label": "mapping(bytes32 => uint256)",
        "numberOfBytes": "32",
        "value": "t_uint256"
      },
      "t_struct(AddressSet)4717_storage": {
        "encoding": "inplace",
        "label": "struct EnumerableSetUpgradeable.AddressSet",
        "members": [
          {
            "astId": 4716,
            "contract": "contracts/liquidator/v2/contracts/TopStakers.sol:TopStakers",
            "label": "_inner",
            "offset": 0,
            "slot": "0",
            "type": "t_struct(Set)4402_storage"
          }
        ],
        "numberOfBytes": "64"
      },
      "t_struct(Set)4402_storage": {
        "encoding": "inplace",
        "label": "struct EnumerableSetUpgradeable.Set",
        "members": [
          {
            "astId": 4397,
            "contract": "contracts/liquidator/v2/contracts/TopStakers.sol:TopStakers",
            "label": "_values",
            "offset": 0,
            "slot": "0",
            "type": "t_array(t_bytes32)dyn_storage"
          },
          {
            "astId": 4401,
            "contract": "contracts/liquidator/v2/contracts/TopStakers.sol:TopStakers",
            "label": "_indexes",
            "offset": 0,
            "slot": "1",
            "type": "t_mapping(t_bytes32,t_uint256)"
          }
        ],
        "numberOfBytes": "64"
      },
      "t_uint256": {
        "encoding": "inplace",
        "label": "uint256",
        "numberOfBytes": "32"
      },
      "t_uint8": {
        "encoding": "inplace",
        "label": "uint8",
        "numberOfBytes": "1"
      }
    }
  }
}