{
  "address": "0x5f98bEA860620E5D6780142144E6827fBC18b791",
  "abi": [
    {
      "inputs": [
        {
          "internalType": "address",
          "name": "_owner",
          "type": "address"
        },
        {
          "internalType": "address",
          "name": "_penaltyRecipient",
          "type": "address"
        },
        {
          "internalType": "address",
          "name": "_token",
          "type": "address"
        },
        {
          "internalType": "string",
          "name": "_name",
          "type": "string"
        },
        {
          "internalType": "string",
          "name": "_symbol",
          "type": "string"
        }
      ],
      "stateMutability": "nonpayable",
      "type": "constructor"
    },
    {
      "anonymous": false,
      "inputs": [
        {
          "indexed": false,
          "internalType": "uint256",
          "name": "amount",
          "type": "uint256"
        },
        {
          "indexed": true,
          "internalType": "address",
          "name": "recipient",
          "type": "address"
        }
      ],
      "name": "CollectPenalty",
      "type": "event"
    },
    {
      "anonymous": false,
      "inputs": [
        {
          "indexed": true,
          "internalType": "address",
          "name": "provider",
          "type": "address"
        },
        {
          "indexed": false,
          "internalType": "uint256",
          "name": "value",
          "type": "uint256"
        },
        {
          "indexed": false,
          "internalType": "uint256",
          "name": "locktime",
          "type": "uint256"
        },
        {
          "indexed": true,
          "internalType": "enum VotingEscrow.LockAction",
          "name": "action",
          "type": "uint8"
        },
        {
          "indexed": false,
          "internalType": "uint256",
          "name": "ts",
          "type": "uint256"
        }
      ],
      "name": "Deposit",
      "type": "event"
    },
    {
      "anonymous": false,
      "inputs": [
        {
          "indexed": true,
          "internalType": "address",
          "name": "owner",
          "type": "address"
        }
      ],
      "name": "TransferOwnership",
      "type": "event"
    },
    {
      "anonymous": false,
      "inputs": [],
      "name": "Unlock",
      "type": "event"
    },
    {
      "anonymous": false,
      "inputs": [
        {
          "indexed": true,
          "internalType": "address",
          "name": "blocklist",
          "type": "address"
        }
      ],
      "name": "UpdateBlocklist",
      "type": "event"
    },
    {
      "anonymous": false,
      "inputs": [
        {
          "indexed": true,
          "internalType": "address",
          "name": "recipient",
          "type": "address"
        }
      ],
      "name": "UpdatePenaltyRecipient",
      "type": "event"
    },
    {
      "anonymous": false,
      "inputs": [
        {
          "indexed": true,
          "internalType": "address",
          "name": "provider",
          "type": "address"
        },
        {
          "indexed": false,
          "internalType": "uint256",
          "name": "value",
          "type": "uint256"
        },
        {
          "indexed": true,
          "internalType": "enum VotingEscrow.LockAction",
          "name": "action",
          "type": "uint8"
        },
        {
          "indexed": false,
          "internalType": "uint256",
          "name": "ts",
          "type": "uint256"
        }
      ],
      "name": "Withdraw",
      "type": "event"
    },
    {
      "inputs": [],
      "name": "MAXTIME",
      "outputs": [
        {
          "internalType": "uint256",
          "name": "",
          "type": "uint256"
        }
      ],
      "stateMutability": "view",
      "type": "function"
    },
    {
      "inputs": [],
      "name": "MULTIPLIER",
      "outputs": [
        {
          "internalType": "uint256",
          "name": "",
          "type": "uint256"
        }
      ],
      "stateMutability": "view",
      "type": "function"
    },
    {
      "inputs": [],
      "name": "WEEK",
      "outputs": [
        {
          "internalType": "uint256",
          "name": "",
          "type": "uint256"
        }
      ],
      "stateMutability": "view",
      "type": "function"
    },
    {
      "inputs": [
        {
          "internalType": "address",
          "name": "_owner",
          "type": "address"
        }
      ],
      "name": "balanceOf",
      "outputs": [
        {
          "internalType": "uint256",
          "name": "",
          "type": "uint256"
        }
      ],
      "stateMutability": "view",
      "type": "function"
    },
    {
      "inputs": [
        {
          "internalType": "address",
          "name": "_owner",
          "type": "address"
        },
        {
          "internalType": "uint256",
          "name": "_blockNumber",
          "type": "uint256"
        }
      ],
      "name": "balanceOfAt",
      "outputs": [
        {
          "internalType": "uint256",
          "name": "",
          "type": "uint256"
        }
      ],
      "stateMutability": "view",
      "type": "function"
    },
    {
      "inputs": [],
      "name": "blocklist",
      "outputs": [
        {
          "internalType": "address",
          "name": "",
          "type": "address"
        }
      ],
      "stateMutability": "view",
      "type": "function"
    },
    {
      "inputs": [],
      "name": "checkpoint",
      "outputs": [],
      "stateMutability": "nonpayable",
      "type": "function"
    },
    {
      "inputs": [],
      "name": "collectPenalty",
      "outputs": [],
      "stateMutability": "nonpayable",
      "type": "function"
    },
    {
      "inputs": [
        {
          "internalType": "uint256",
          "name": "_value",
          "type": "uint256"
        },
        {
          "internalType": "uint256",
          "name": "_unlockTime",
          "type": "uint256"
        }
      ],
      "name": "createLock",
      "outputs": [],
      "stateMutability": "nonpayable",
      "type": "function"
    },
    {
      "inputs": [],
      "name": "decimals",
      "outputs": [
        {
          "internalType": "uint256",
          "name": "",
          "type": "uint256"
        }
      ],
      "stateMutability": "view",
      "type": "function"
    },
    {
      "inputs": [
        {
          "internalType": "address",
          "name": "_addr",
          "type": "address"
        }
      ],
      "name": "delegate",
      "outputs": [],
      "stateMutability": "nonpayable",
      "type": "function"
    },
    {
      "inputs": [
        {
          "internalType": "address",
          "name": "_addr",
          "type": "address"
        }
      ],
      "name": "forceUndelegate",
      "outputs": [],
      "stateMutability": "nonpayable",
      "type": "function"
    },
    {
      "inputs": [
        {
          "internalType": "address",
          "name": "_addr",
          "type": "address"
        }
      ],
      "name": "getLastUserPoint",
      "outputs": [
        {
          "internalType": "int128",
          "name": "bias",
          "type": "int128"
        },
        {
          "internalType": "int128",
          "name": "slope",
          "type": "int128"
        },
        {
          "internalType": "uint256",
          "name": "ts",
          "type": "uint256"
        }
      ],
      "stateMutability": "view",
      "type": "function"
    },
    {
      "inputs": [
        {
          "internalType": "uint256",
          "name": "end",
          "type": "uint256"
        }
      ],
      "name": "getPenaltyRate",
      "outputs": [
        {
          "internalType": "uint256",
          "name": "",
          "type": "uint256"
        }
      ],
      "stateMutability": "view",
      "type": "function"
    },
    {
      "inputs": [],
      "name": "globalEpoch",
      "outputs": [
        {
          "internalType": "uint256",
          "name": "",
          "type": "uint256"
        }
      ],
      "stateMutability": "view",
      "type": "function"
    },
    {
      "inputs": [
        {
          "internalType": "uint256",
          "name": "_value",
          "type": "uint256"
        }
      ],
      "name": "increaseAmount",
      "outputs": [],
      "stateMutability": "nonpayable",
      "type": "function"
    },
    {
      "inputs": [
        {
          "internalType": "uint256",
          "name": "_unlockTime",
          "type": "uint256"
        }
      ],
      "name": "increaseUnlockTime",
      "outputs": [],
      "stateMutability": "nonpayable",
      "type": "function"
    },
    {
      "inputs": [
        {
          "internalType": "address",
          "name": "_addr",
          "type": "address"
        }
      ],
      "name": "lockEnd",
      "outputs": [
        {
          "internalType": "uint256",
          "name": "",
          "type": "uint256"
        }
      ],
      "stateMutability": "view",
      "type": "function"
    },
    {
      "inputs": [
        {
          "internalType": "address",
          "name": "",
          "type": "address"
        }
      ],
      "name": "locked",
      "outputs": [
        {
          "internalType": "int128",
          "name": "amount",
          "type": "int128"
        },
        {
          "internalType": "int128",
          "name": "delegated",
          "type": "int128"
        },
        {
          "internalType": "uint96",
          "name": "end",
          "type": "uint96"
        },
        {
          "internalType": "address",
          "name": "delegatee",
          "type": "address"
        }
      ],
      "stateMutability": "view",
      "type": "function"
    },
    {
      "inputs": [],
      "name": "maxPenalty",
      "outputs": [
        {
          "internalType": "uint256",
          "name": "",
          "type": "uint256"
        }
      ],
      "stateMutability": "view",
      "type": "function"
    },
    {
      "inputs": [],
      "name": "name",
      "outputs": [
        {
          "internalType": "string",
          "name": "",
          "type": "string"
        }
      ],
      "stateMutability": "view",
      "type": "function"
    },
    {
      "inputs": [],
      "name": "owner",
      "outputs": [
        {
          "internalType": "address",
          "name": "",
          "type": "address"
        }
      ],
      "stateMutability": "view",
      "type": "function"
    },
    {
      "inputs": [],
      "name": "penaltyAccumulated",
      "outputs": [
        {
          "internalType": "uint256",
          "name": "",
          "type": "uint256"
        }
      ],
      "stateMutability": "view",
      "type": "function"
    },
    {
      "inputs": [],
      "name": "penaltyRecipient",
      "outputs": [
        {
          "internalType": "address",
          "name": "",
          "type": "address"
        }
      ],
      "stateMutability": "view",
      "type": "function"
    },
    {
      "inputs": [
        {
          "internalType": "uint256",
          "name": "",
          "type": "uint256"
        }
      ],
      "name": "pointHistory",
      "outputs": [
        {
          "internalType": "int128",
          "name": "bias",
          "type": "int128"
        },
        {
          "internalType": "int128",
          "name": "slope",
          "type": "int128"
        },
        {
          "internalType": "uint256",
          "name": "ts",
          "type": "uint256"
        },
        {
          "internalType": "uint256",
          "name": "blk",
          "type": "uint256"
        }
      ],
      "stateMutability": "view",
      "type": "function"
    },
    {
      "inputs": [],
      "name": "quitLock",
      "outputs": [],
      "stateMutability": "nonpayable",
      "type": "function"
    },
    {
      "inputs": [
        {
          "internalType": "address",
          "name": "_topStakers",
          "type": "address"
        }
      ],
      "name": "setTopStakerContract",
      "outputs": [],
      "stateMutability": "nonpayable",
      "type": "function"
    },
    {
      "inputs": [
        {
          "internalType": "uint256",
          "name": "",
          "type": "uint256"
        }
      ],
      "name": "slopeChanges",
      "outputs": [
        {
          "internalType": "int128",
          "name": "",
          "type": "int128"
        }
      ],
      "stateMutability": "view",
      "type": "function"
    },
    {
      "inputs": [],
      "name": "supply",
      "outputs": [
        {
          "internalType": "uint256",
          "name": "",
          "type": "uint256"
        }
      ],
      "stateMutability": "view",
      "type": "function"
    },
    {
      "inputs": [],
      "name": "symbol",
      "outputs": [
        {
          "internalType": "string",
          "name": "",
          "type": "string"
        }
      ],
      "stateMutability": "view",
      "type": "function"
    },
    {
      "inputs": [],
      "name": "token",
      "outputs": [
        {
          "internalType": "contract IERC20",
          "name": "",
          "type": "address"
        }
      ],
      "stateMutability": "view",
      "type": "function"
    },
    {
      "inputs": [],
      "name": "topStakers",
      "outputs": [
        {
          "internalType": "contract ITopStakers",
          "name": "",
          "type": "address"
        }
      ],
      "stateMutability": "view",
      "type": "function"
    },
    {
      "inputs": [],
      "name": "totalSupply",
      "outputs": [
        {
          "internalType": "uint256",
          "name": "",
          "type": "uint256"
        }
      ],
      "stateMutability": "view",
      "type": "function"
    },
    {
      "inputs": [
        {
          "internalType": "uint256",
          "name": "_blockNumber",
          "type": "uint256"
        }
      ],
      "name": "totalSupplyAt",
      "outputs": [
        {
          "internalType": "uint256",
          "name": "",
          "type": "uint256"
        }
      ],
      "stateMutability": "view",
      "type": "function"
    },
    {
      "inputs": [
        {
          "internalType": "address",
          "name": "_addr",
          "type": "address"
        }
      ],
      "name": "transferOwnership",
      "outputs": [],
      "stateMutability": "nonpayable",
      "type": "function"
    },
    {
      "inputs": [],
      "name": "unlock",
      "outputs": [],
      "stateMutability": "nonpayable",
      "type": "function"
    },
    {
      "inputs": [
        {
          "internalType": "address",
          "name": "_addr",
          "type": "address"
        }
      ],
      "name": "updateBlocklist",
      "outputs": [],
      "stateMutability": "nonpayable",
      "type": "function"
    },
    {
      "inputs": [
        {
          "internalType": "address",
          "name": "_addr",
          "type": "address"
        }
      ],
      "name": "updatePenaltyRecipient",
      "outputs": [],
      "stateMutability": "nonpayable",
      "type": "function"
    },
    {
      "inputs": [
        {
          "internalType": "address",
          "name": "",
          "type": "address"
        }
      ],
      "name": "userPointEpoch",
      "outputs": [
        {
          "internalType": "uint256",
          "name": "",
          "type": "uint256"
        }
      ],
      "stateMutability": "view",
      "type": "function"
    },
    {
      "inputs": [
        {
          "internalType": "address",
          "name": "",
          "type": "address"
        },
        {
          "internalType": "uint256",
          "name": "",
          "type": "uint256"
        }
      ],
      "name": "userPointHistory",
      "outputs": [
        {
          "internalType": "int128",
          "name": "bias",
          "type": "int128"
        },
        {
          "internalType": "int128",
          "name": "slope",
          "type": "int128"
        },
        {
          "internalType": "uint256",
          "name": "ts",
          "type": "uint256"
        },
        {
          "internalType": "uint256",
          "name": "blk",
          "type": "uint256"
        }
      ],
      "stateMutability": "view",
      "type": "function"
    },
    {
      "inputs": [],
      "name": "withdraw",
      "outputs": [],
      "stateMutability": "nonpayable",
      "type": "function"
    }
  ],
  "transactionHash": "0x628067279794765638a0e8f00c0f82fb128801ec9ddb6814a46da4a4524db4c3",
  "args": [
    "0xe1c43255220a459e1C64038a981C85ED5cDF037a",
    "0xe1c43255220a459e1C64038a981C85ED5cDF037a",
    "0x81da82F55dd8c67DaD2E18BB1842d339561EF9A1",
    "Voting Escrow SuDAO",
    "VeSuDAO"
  ],
  "numDeployments": 1,
  "solcInputHash": "5bc0d5dcc998690252d7c4c581d2a8fc",
  "bytecode": "0x60a060409080825234620004ef5762003ece8038038091620000228285620004f4565b833981019060a081830312620004ef576200003d816200052e565b916020906200004e8284016200052e565b916200005c8685016200052e565b606085015190946001600160401b0391828111620004ef57846200008291830162000543565b936080820151838111620004ef576200009c920162000543565b60016000818155670de0b6b3a76400006003556001600160a01b0397881660808181528b519397949390810186811182821017620004db57908792918d528381528383820152428d8201526060439101528260095542600a5543600b558b519687809263313ce56760e01b82526004998a915afa908115620004d15783916200048e575b5060ff60129116806729a2241af62c000f55116200044c57835185811162000439576729a2241af62c000d908154958987811c971680156200042e575b848810146200041b578190601f97888111620003c8575b5084908883116001146200036457869262000358575b5050600019600383901b1c191690891b1790555b825194851162000345576729a2241af62c000e958654908882811c921680156200033a575b83831014620003275750908185879695949311620002ce575b5080938511600114620002675750926200025b575b5050600019600383901b1c191690831b1790555b8260018060a01b031994168482541617905516906002541617600255516139139081620005bb82396080518181816101f9015281816109400152818161103b0152818161139f0152818161146f015261194b0152f35b015190503880620001f1565b868252808220889650939291601f198616915b828210620002b457505084116200029a575b505050811b01905562000205565b015160001960f88460031b161c191690553880806200028c565b84840151865589979095019493840193908101906200027a565b9091929394508683528183208580880160051c8201928489106200031d575b9188978b9297969594930160051c01915b8281106200030e575050620001dc565b8481558897508a9101620002fe565b92508192620002ed565b634e487b7160e01b845260229052602483fd5b91607f1691620001c3565b634e487b7160e01b825260418652602482fd5b0151905038806200018a565b8487528587208c94509190601f198416885b88828210620003b1575050841162000397575b505050811b0190556200019e565b015160001960f88460031b161c1916905538808062000389565b8385015186558f9790950194938401930162000376565b9091508386528486208880850160051c82019287861062000411575b918d91869594930160051c01915b8281106200040257505062000174565b8881558594508d9101620003f2565b92508192620003e4565b634e487b7160e01b855260228952602485fd5b96607f16966200015d565b634e487b7160e01b835260418752602483fd5b856064918c519162461bcd60e51b8352820152601460248201527f45786365656473206d617820646563696d616c730000000000000000000000006044820152fd5b90508181813d8311620004c9575b620004a88183620004f4565b81010312620004c5575160ff81168103620004c55760ff62000120565b8280fd5b503d6200049c565b8c513d85823e3d90fd5b634e487b7160e01b84526041600452602484fd5b600080fd5b601f909101601f19168101906001600160401b038211908210176200051857604052565b634e487b7160e01b600052604160045260246000fd5b51906001600160a01b0382168203620004ef57565b919080601f84011215620004ef578251906001600160401b0382116200051857604051916020916200057f601f8301601f1916840185620004f4565b818452828287010111620004ef5760005b818110620005a657508260009394955001015290565b85810183015184820184015282016200059056fe608080604052600436101561001357600080fd5b600090813560e01c908163012caae114611c8157508063047fc9aa14611c63578063059f8b1614611c4057806306fdde0314611b6157806315456eba1461176e57806318160ddd1461171a57806323792279146116d0578063313ce567146116ab57806334d901a414611638578063391cc9f61461149d57806339f22f6b146114215780633ccfd60b1461125357806343fb90b11461120b5780634684532e1461119e5780634ee2cd7e146111765780635200e79e146111585780635719098b1461113a5780635c19a95c146110ac57806370a082311461108857806375c54eda14610e905780637c616fe614610c9657806381fc83bb14610c565780638ad4c44714610c045780638da5cb5b14610bdb57806392e9352614610ba157806395d89b4114610ab1578063981b24d014610a8a578063a69df4b514610a39578063b52c05fe1461075c578063c2c4c5c11461048f578063c4698ee514610452578063c91412fe14610429578063cbf9fe5f146103be578063d64e539614610395578063e489071114610328578063ee00ef3a14610309578063f2fde38b1461029b578063f4359ce51461027d578063f52a36f714610249578063f6ab9d811461022b5763fc0c546a146101e457600080fd5b346102285780600319360112610228576040517f00000000000000000000000000000000000000000000000000000000000000006001600160a01b03168152602090f35b80fd5b50346102285780600319360112610228576020600454604051908152f35b503461022857602036600319011261022857604060209160043581526729a2241af62c000b83522054600f0b604051908152f35b5034610228578060031936011261022857602060405162093a808152f35b5034610228576020366003190112610228576102b5611d56565b600154906001600160a01b03906102cf3383851614611daa565b166001600160a01b03199190911681176001557fcfaaa26691e16e66e73290fc725eee1a6b4e0e693a1640484937aac25ffb55a48280a280f35b503461022857806003193601126102285760206040516303c267008152f35b503461022857602036600319011261022857610342611d56565b6001546001600160a01b03919061035c9083163314611daa565b168060018060a01b031960025416176002557ff5fad27d0b1a5f45f08a652a1e4502d75974a852e28d3502d4a978b7cfd900ba8280a280f35b50346102285780600319360112610228576006546040516001600160a01b039091168152602090f35b5034610228576020366003190112610228576080906040906001600160a01b036103e6611d56565b1681526729a2241af62c000c60205220600181549101546040519180600f0b8352831d600f0b602083015260018060601b038116604083015260601c6060820152f35b50346102285780600319360112610228576005546040516001600160a01b039091168152602090f35b5034610228576020366003190112610228576060610476610471611d56565b611e62565b9060405192600f0b8352600f0b60208301526040820152f35b50346102285780600319360112610228576104a8611de3565b506104b1611de3565b506104ba611de3565b506008546040516104ca81611ca6565b600081526020906000828201524260408201524360608201529082610735575b6040820190815190606084019182519060405161050681611ca6565b600081526000848201526060604082019183835201928352600090865142116106e3575b6105388397969594936132f1565b936000975b60ff891061058b575b50505050505050505081600855670de0b6b3a76400008210156105755760036105729202600901611f1e565b80f35b634e487b7160e01b600052603260045260246000fd5b62093a80869798999b959601809711610694576000968a81428111156106bc575060008092506105f2429a8b935b6105e56105dc6105ce8a8401998a5198611eca565b96600f97880b90880b611ed7565b8251870b611f99565b850b90528551840b611fbe565b820b918285528d51900b126106b4575b126106aa575b50859386895285519a61063a670de0b6b3a76400009c8d61063361062d88518d611eca565b89611f66565b0490611eee565b895260019182810180911161069457809c428a1460001461067257505050505050505050509050439052388080808080808080610546565b811015610575578b60036106899202600901611f1e565b01979695949361053d565b634e487b7160e01b600052601160045260246000fd5b6000905238610608565b818c52610602565b6105f2839a9260408460009695948795526729a2241af62c000b89522054600f0b906105b9565b906106ef865143611eca565b90670de0b6b3a76400009180830292830403610721575061071b90610715885142611eca565b90611f79565b9061052a565b634e487b7160e01b81526011600452602490fd5b9050670de0b6b3a76400008210156105755761075660038302600901611e2b565b906104ea565b5034610228576040366003190112610228576004359061077a612707565b60065460405163fbac395160e01b81523360048201526020918290829060249082906001600160a01b03165afa908115610a2e57906107c1918491610a01575b50156125ec565b6107cc6024356132f1565b903383526729a2241af62c000c9081815260408420604051926107ee84611ca6565b8154906001600f9383850b87528587019360801d850b8452015491604086019360018060601b03928385168652606088019460601c85526108308b151561262b565b8751820b6109ce57610847848751168a101561266e565b42891115610992576303c26700420180421161097e5793600161097498946108f68e99958e9f8f8f9760008051602061389e8339815191529f9b604093896109389f9b8f61089a6108ca958311156126b3565b6108a684600754611eee565b6007556108ba81518a0b948a0b8095611fbe565b890b9052168c528751860b611fbe565b840b865233808a5282528a522089518154608087901b8790039182169119161781559251900b82611efb565b019251168a83549260018060601b0319905160601b16921617179055876040519161092083611ca6565b81835282015287604082015287606082015233611fe3565b6109648130337f000000000000000000000000000000000000000000000000000000000000000061275d565b60405191829133954291846126f1565b0390a36001815580f35b634e487b7160e01b8b52601160045260248bfd5b60405162461bcd60e51b815260048101889052601460248201527313db9b1e48199d5d1d5c99481b1bd8dac8195b9960621b6044820152606490fd5b60405162461bcd60e51b815260048101889052600b60248201526a4c6f636b2065786973747360a81b6044820152606490fd5b610a219150833d8511610a27575b610a198183611cea565b8101906125d4565b386107ba565b503d610a0f565b6040513d85823e3d90fd5b5034610228578060031936011261022857610a5f60018060a01b03600154163314611daa565b806003557f70e3fffea7bbb557facdee48ed7f7af5179030adef9ad0c876df039a718f359e8180a180f35b5034610228576020366003190112610228576020610aa960043561375e565b604051908152f35b50346102285780600319360112610228576040516000906729a2241af62c000e805490600182811c91818416938415610b97575b6020948585108114610b8357848752908115610b615750600114610b24575b610b2085610b1481890382611cea565b60405191829182611d0d565b0390f35b6000908152838120939550925b828410610b4e5750505081610b2093610b14928201019385610b04565b8054858501870152928501928101610b31565b60ff191686860152505050151560051b8201019150610b1481610b2085610b04565b634e487b7160e01b88526022600452602488fd5b92607f1692610ae5565b50346102285760203660031901126102285760206303c26700610bd2610bc942600435611eca565b60035490611f66565b04604051908152f35b50346102285780600319360112610228576001546040516001600160a01b039091168152602090f35b503461022857602036600319011261022857600435670de0b6b3a7640000811015610c52576003028060090154610b20600b600a8401549301546040519383859460801d90600f0b85611d88565b5080fd5b5034610228576020366003190112610228576020906040906001600160a01b03610c7e611d56565b1681526729a2241af62c000a83522054604051908152f35b5034610228576020908160031936011261022857610cb2612707565b60065460405163fbac395160e01b8152336004820152908390829060249082906001600160a01b03165afa908115610e855790610cf6918391610e6e5750156125ec565b3381526729a2241af62c000c91828152604082209260405190610d1882611ca6565b600185549586600f0b84528484019660801d600f0b8752015491604081019560018060601b03938481168852606083019060601c8152610d596004356132f1565b94610d69888551600f0b13612994565b610d77818a511642106129ca565b610d85818a5116871161266e565b6303c267004201804211610e5a5791889991610da760039a95948911156126b3565b8251818916845233865296895260408520865181546001600160801b0319166001600160801b03909116178155935196811696600f0b93600190610deb8682611efb565b019251168483549260018060601b0319905160601b1692161717905513610e3a575b50506040519184835282015242604082015260008051602061389e83398151915260603392a36001815580f35b610e5391610e4782613298565b90604082015233611fe3565b3880610e0d565b634e487b7160e01b89526011600452602489fd5b610a219150843d8611610a2757610a198183611cea565b6040513d84823e3d90fd5b5034610228578060031936011261022857610ea9612707565b3381526729a2241af62c000c8060205260408220604051610ec981611ca6565b815490600f9282840b9283835260801d840b60208301526001015492604082019386600160601b60019003948583168752606085019260601c835213610f0e90612994565b838551164210610f1d906129ca565b51610f32906001600160a01b03163314612aaf565b85600160801b60019003918183855116978860075490610f5191611eca565b600755610f5d86613298565b9482865260208601938451810b8851820b610f7791611f99565b810b8552606087019284845233855260205260408420918751600160801b600190031984541691161782558451900b610fb09082611efb565b60010160408601918883511684835492600160601b6001900319905160601b1692161717905552523391610fe392611fe3565b4291511690610ff191611eca565b600354610ffd91611f66565b6303c26700900461100e9082611f66565b670de0b6b3a76400009004806004549061102791611eee565b6004556110349082611eca565b61105f90337f0000000000000000000000000000000000000000000000000000000000000000612aec565b604051908152426020820152336000805160206138be8339815191526040600593a36001815580f35b5034610228576020366003190112610228576020610aa96110a7611d56565b61330b565b50346102285760203660031901126102285760246110c8611d56565b6110d0612707565b60065460405163fbac395160e01b81523360048201529260209184919082906001600160a01b03165afa918215610a2e5761111b926111169185916111225750156125ec565b612b2a565b6001815580f35b610a21915060203d8111610a2757610a198183611cea565b50346102285780600319360112610228576020600854604051908152f35b50346102285780600319360112610228576020600354604051908152f35b5034610228576040366003190112610228576020610aa9611195611d56565b602435906133e9565b5034610228576020366003190112610228576111b8611d56565b6001546001600160a01b0391906111d29083163314611daa565b168060018060a01b031960065416176006557fb089f68ad820a83477076ed7bca5d94c6a56c0c85e82b7ed8df87507a1d6198b8280a280f35b503461022857602036600319011261022857611225611d56565b6001546001600160a01b03919061123f9083163314611daa565b1660018060a01b0319600554161760055580f35b503461022857806003193601126102285761126c612707565b3381526729a2241af62c000c9060209180835281604081206040519061129182611ca6565b80546001600f9282840b9283865260801d840b89860152015490604084016112d160018060601b039687938486168452606088019560601c865213612994565b511642106113e95791856004969794926112fa61139895339060018060a01b0390511614612aaf565b60018060801b03808451169761131289600754611eca565b60075561131e85613298565b95848752600160408801938685526113758b8a01966113448851820b8b51830b90611f99565b810b885260608b0195898752338a528d5260408920928b51858060801b031985541691161783558751900b82611efb565b019251168483549260018060601b0319905160601b169216171790555233611fe3565b6113c382337f0000000000000000000000000000000000000000000000000000000000000000612aec565b60405191825242908201526000805160206138be83398151915260403392a36001815580f35b60405162461bcd60e51b815260048101889052601060248201526f131bd8dac81b9bdd08195e1c1a5c995960821b6044820152606490fd5b5034610228578060031936011261022857600454816004557fabef55bd3931568707a1758ae67679779c66d9deaa23e8bbad8974e421035d60602060018060a01b03600254169261149381857f0000000000000000000000000000000000000000000000000000000000000000612aec565b604051908152a280f35b503461022857602080600319360112610c52576114b8611d56565b6006546001600160a01b039081163303611602578181168085526729a2241af62c000c80855260408087209051879594936114f282611ca6565b600183549384600f0b9485855260801d600f0b8a850152015497604083019060018060601b03998a8116835260601c9960608501928b8452848c1415806115f9575b61153c578a80f35b61159b9761159595889561154e611de3565b50528c8c528352600160408c206040519461156886611ca6565b815480600f0b875260801d600f0b9086015201549182169182604085015260601c60608401525289613101565b846131d2565b60055416803b156115f5576115c8938360405180968195829463b757b75b60e01b84528160048501611e08565b03925af18015610e85576115e6575b81818080808080808080808a80f35b6115ef90611cd7565b386115d7565b8280fd5b508a8713611534565b60405162461bcd60e51b815260048101849052600e60248201526d13db9b1e48109b1bd8dadb1a5cdd60921b6044820152606490fd5b503461022857604036600319011261022857611652611d56565b6001600160a01b031681526729a2241af62c00096020526040812060243590633b9aca008210156115f5576116879250611d71565b508054610b20600260018401549301546040519383859460801d90600f0b85611d88565b503461022857806003193601126102285760206729a2241af62c000f54604051908152f35b5034610228576020366003190112610228576020906001600160a01b036116f5611d56565b1681526729a2241af62c000c825260016040818060601b039220015416604051908152f35b503461022857806003193601126102285760085490670de0b6b3a764000082101561175a576020610aa961175360038502600901611e2b565b429061367c565b634e487b7160e01b81526032600452602490fd5b503461022857602036600319011261022857611788612707565b60065460405163fbac395160e01b81523360048201526001600160a01b03916020908290602490829086165afa8015610a2e576117cc918491611b485750156125ec565b3382526729a2241af62c000c602052604082206040516117eb81611ca6565b600182549283600f0b8352602083019360801d600f0b8452015460018060601b038116604083015260601c6060820152809261182a600435151561262b565b611839858351600f0b13612994565b6040820151611852906001600160601b031642106129ca565b611860600435600754611eee565b600755606082015160408301516001600160601b03169391169160019190611886611de3565b503384036119af57505050611941906002936118a181613298565b918251600f0b6118b7600435600f0b8092611fbe565b600f0b84526118ce60208501918251600f0b611fbe565b600f90810b82523389526729a2241af62c000c60205260408920855181546001600160801b0319166001600160801b039091161781559151611911910b82611efb565b6040840151606085810151901b6001600160601b0319166001600160601b03919091161760019190910155611fe3565b61196f60043530337f000000000000000000000000000000000000000000000000000000000000000061275d565b600882101561199b5760008051602061389e8339815191526040518061097433944290600435846126f1565b634e487b7160e01b83526021600452602483fd5b61194193929550806119cd60019251600f0b600435600f0b90611fbe565b600f0b81523388526729a2241af62c000c602052611a0a60408920938251848060801b031986541690858060801b031617855551600f0b84611efb565b818060601b036040820151169060608380821b031991015160601b161791015580855260408520611a9a604051611a4081611ca6565b600183549384600f0b83528460801d600f0b6020840152015460018060601b038116604083015260601c6060820152611a7e888294600f0b13612a05565b611a954260018060601b0360408401511611612a49565b613298565b9160068160008051602061389e833981519152611b4060208701611ac7600435600f0b8251600f0b611fbe565b600f90810b8252848d526729a2241af62c000c60205260408d20895181546001600160801b0319166001600160801b039091161781559151611b0a910b82611efb565b60018060601b03604089015116906001808060601b031960608b015160601b168317910155604051918291429060043584612a8e565b0390a3611fe3565b610a21915060203d602011610a2757610a198183611cea565b5034610228578060031936011261022857604051816729a2241af62c000d80549160019083821c92828516948515611c36575b6020958686108114611c2257858852908115611bfe5750600114611bc3575b610b2086610b14818a0382611cea565b9080949650528483205b828410611beb5750505081610b2093610b1492820101933880611bb3565b8054858501870152928501928101611bcd565b60ff19168787015250505050151560051b8201019150610b1481610b203880611bb3565b634e487b7160e01b84526022600452602484fd5b93607f1693611b94565b50346102285780600319360112610228576020604051670de0b6b3a76400008152f35b50346102285780600319360112610228576020600754604051908152f35b905034610c525781600319360112610c52576002546001600160a01b03168152602090f35b608081019081106001600160401b03821117611cc157604052565b634e487b7160e01b600052604160045260246000fd5b6001600160401b038111611cc157604052565b601f909101601f19168101906001600160401b03821190821017611cc157604052565b6020808252825181830181905290939260005b828110611d4257505060409293506000838284010152601f8019910116010190565b818101860151848201604001528501611d20565b600435906001600160a01b0382168203611d6c57565b600080fd5b90633b9aca00811015610575576003020190600090565b909493926060926080830196600f0b8352600f0b602083015260408201520152565b15611db157565b60405162461bcd60e51b815260206004820152600a60248201526927b7363c9037bbb732b960b11b6044820152606490fd5b60405190611df082611ca6565b60006060838281528260208201528260408201520152565b6001600160a01b0391821681529181166020830152909116604082015260600190565b90604051611e3881611ca6565b606060028294805480600f0b855260801d600f0b6020850152600181015460408501520154910152565b6001600160a01b031660009081526729a2241af62c000a60205260408120548015611ec357611ea3906040611ea9936729a2241af62c000960205220611d71565b50611e2b565b908151600f0b9060406020840151600f0b93015191929190565b5080918190565b9190820391821161069457565b90600f0b90600f0b029081600f0b91820361069457565b9190820180921161069457565b80546001600160801b031660809290921b6001600160801b031916919091179055565b815181546001600160801b0319166001600160801b039091161781556020820151909160029160609190611f5590600f0b85611efb565b604081015160018501550151910155565b8181029291811591840414171561069457565b8115611f83570490565b634e487b7160e01b600052601260045260246000fd5b600f91820b910b039060016001607f1b0319821260016001607f1b0383131761069457565b600f91820b910b019060016001607f1b0319821260016001607f1b0383131761069457565b9190611fed611de3565b92611ff6611de3565b9160009384926008549060018060a01b031690816123f4575b60405161201b81611ca6565b6000815260006020820152426040820152436060820152816123cf575b604081015160608201516040519061204f82611ca6565b60008252600060208301526040820190838252606083015260009260408501514211612391575b929190612082846132f1565b926000945b60ff8610612247575b50505050505081600855826121ca575b670de0b6b3a76400008210156105755760036120bf9202600901611f1e565b6120cc575b505050505050565b60408092019560018060601b0395428789511611612155575b505001938385511690428211156120c45751841610612106575b80806120c4565b6020612117920151600f0b90611f99565b91511660009081526729a2241af62c000b6020526040902080546001600160801b0319166001600160801b03909216919091179055388080806120ff565b6020612166920151600f0b90611fbe565b85838301511686885116146121b3575b8651861660009081526729a2241af62c000b60205283902080546001600160801b0319166001600160801b039290921691909117905538806120e5565b6121c5906020860151600f0b90611f99565b612176565b600087602083016121f98c60206121ee81855196015195600f96870b90870b611fbe565b910151840b90611f99565b820b81528261221e8d6122148d8851870b9051870b90611fbe565b9051850b90611f99565b830b928386528251900b1261223e575b5012156120a057600081526120a0565b8290523861222e565b62093a8085969893949501809611610694578695600090804281111561236157505060209660006122af81936122a261229961228b429d8e975b0198895197611eca565b95600f96870b90870b611ed7565b8d51860b611f99565b840b8c528551840b611fbe565b820b918285528a51900b12612359575b1261234f575b5084918560408801526060850151976122f6670de0b6b3a7640000998a6106336122f089518c611eca565b87611f66565b606089015260019182810180911161069457809942891460001461232e57505050505050505050436060820152388080808080612090565b811015610575578860036123459202600901611f1e565b0194939291612087565b60009052386122c5565b8189526122bf565b6122af82996122a261229961228b602060408960009a988b99526729a2241af62c000b83522054600f0b94612281565b926123a0606086015143611eca565b90670de0b6b3a7640000918083029283040361072157506123c990610715604087015142611eca565b92612076565b50670de0b6b3a7640000811015610575576123ef60038202600901611e2b565b612038565b604084810180516001600160601b039081164210806125c4575b612592575b8286019942828c51161180612582575b612547575b8581526729a2241af62c000a80602052848220549060018201809211612533578783526020528085832055848b019042825261247c60608d01914383528985526729a2241af62c0009602052878520611d71565b92909261251f578c5183546001600160801b0319166001600160801b0390911617835560208d015185948894909390926002926124bc90600f0b85611efb565b516001840155519101558285511681526729a2241af62c000b6020522054600f0b9a511691826124f0575b5050505061200f565b9091929397505116811460001461250f57505085935b388080806124e7565b60005260002054600f0b93612506565b634e487b7160e01b84526004849052602484fd5b634e487b7160e01b83526011600452602483fd5b6125786303c267006020890151600f0b05600f0b8060208d015261256f8d8542915116611eca565b600f0b90611ed7565b600f0b8a52612428565b50806020880151600f0b13612423565b6125ba60208c6303c26700828b0151600f0b05600f0b918291015261256f4284865116611eca565b600f0b8b52612413565b50896020880151600f0b1361240e565b90816020910312611d6c57518015158103611d6c5790565b156125f357565b60405162461bcd60e51b815260206004820152601060248201526f109b1bd8dad9590818dbdb9d1c9858dd60821b6044820152606490fd5b1561263257565b60405162461bcd60e51b815260206004820152601460248201527313db9b1e481b9bdb881e995c9bc8185b5bdd5b9d60621b6044820152606490fd5b1561267557565b60405162461bcd60e51b815260206004820152601660248201527513db9b1e481a5b98dc99585cd9481b1bd8dac8195b9960521b6044820152606490fd5b156126ba57565b60405162461bcd60e51b815260206004820152600f60248201526e45786365656473206d617874696d6560881b6044820152606490fd5b6040919493926060820195825260208201520152565b600260005414612718576002600055565b60405162461bcd60e51b815260206004820152601f60248201527f5265656e7472616e637947756172643a207265656e7472616e742063616c6c006044820152606490fd5b6040516323b872dd60e01b60208201526001600160a01b03928316602482015292909116604483015260648083019390935291815260a08101918183106001600160401b03841117611cc1576127b5926040526127b7565b565b604080516001600160401b0394936001600160a01b03909316929091820185811183821017611cc1576040526020928383527f5361666545524332303a206c6f772d6c6576656c2063616c6c206661696c6564848401526000808386829551910182855af1903d156128f2573d9687116128de576128569495966040519061284888601f19601f8401160183611cea565b81528093873d92013e6128ff565b8051908282159283156128c6575b5050501561286f5750565b6084906040519062461bcd60e51b82526004820152602a60248201527f5361666545524332303a204552433230206f7065726174696f6e20646964206e6044820152691bdd081cdd58d8d9595960b21b6064820152fd5b6128d693508201810191016125d4565b388281612864565b634e487b7160e01b83526041600452602483fd5b9150612856939495506060915b919290156129615750815115612913575090565b3b1561291c5790565b60405162461bcd60e51b815260206004820152601d60248201527f416464726573733a2063616c6c20746f206e6f6e2d636f6e74726163740000006044820152606490fd5b8251909150156129745750805190602001fd5b60405162461bcd60e51b81529081906129909060048301611d0d565b0390fd5b1561299b57565b60405162461bcd60e51b81526020600482015260076024820152664e6f206c6f636b60c81b6044820152606490fd5b156129d157565b60405162461bcd60e51b815260206004820152600c60248201526b131bd8dac8195e1c1a5c995960a21b6044820152606490fd5b15612a0c57565b60405162461bcd60e51b815260206004820152601560248201527444656c65676174656520686173206e6f206c6f636b60581b6044820152606490fd5b15612a5057565b60405162461bcd60e51b815260206004820152601660248201527511195b1959d85d1959481b1bd8dac8195e1c1a5c995960521b6044820152606490fd5b9081526001600160601b039091166020820152604081019190915260600190565b15612ab657565b60405162461bcd60e51b815260206004820152600e60248201526d131bd8dac819195b1959d85d195960921b6044820152606490fd5b60405163a9059cbb60e01b60208201526001600160a01b0390921660248301526044808301939093529181526127b591612b2582611ca6565b6127b7565b6000903382526729a2241af62c000c60205260408220600160405191612b4f83611ca6565b8054600f81810b855260809190911d900b602084015201546001600160601b0381166040830152606090811c90820152806001600160a01b0383163314612e8e5760065460405163fbac395160e01b81526001600160a01b038581166004830152909160209183916024918391165afa908115612e835790612bd8918691611b485750156125ec565b612be7848251600f0b13612994565b6040810151612c00906001600160601b031642106129ca565b60608101516001600160a01b03848116911614612e4a578051600f0b60018060a01b036060830151169160018060a01b03851686526729a2241af62c000c6020526040862090600160405192612c5584611ca6565b8054600f81810b865260809190911d900b602085015201546001600160601b0381166040840152606090811c818401526001600160a01b03871690820152338403612d99575b50612cab868251600f0b13612a05565b612cc24260018060601b0360408401511611612a49565b604081810151908501516001600160601b03918216911611612d55576115958285612cec95613101565b6005546060909101516001600160a01b039182169116813b15612d5157918391612d2e938360405180968195829463b757b75b60e01b84523360048501611e08565b03925af18015610e8557612d40575050565b612d4a8291611cd7565b6102285750565b8380fd5b60405162461bcd60e51b815260206004820152601c60248201527b4f6e6c792064656c656761746520746f206c6f6e676572206c6f636b60201b6044820152606490fd5b9093503386526729a2241af62c000c6020526001604087208251828060801b031982541690838060801b0316178155612dd96020840151600f0b82611efb565b019060018060601b03604082015116878354926060600180821b031991015160601b1692161717905581855260408520600160405191612e1883611ca6565b805480600f0b845260801d600f0b6020840152015460018060601b038116604083015260601c60608201529238612c9b565b60405162461bcd60e51b8152602060048201526011602482015270105b1c9958591e4819195b1959d85d1959607a1b6044820152606490fd5b6040513d87823e3d90fd5b90503383526729a2241af62c000c6020526040832060405190612eb082611ca6565b600181549182600f0b9283855260801d600f0b60208501520154612eee86604085019360018060601b0384168552606086019360601c845213612994565b80516001600160a01b031633146130c657612f89908351600f0b92839160018060a01b0381511690818a526729a2241af62c000c60205260408a2092600160405194612f3986611ca6565b8054600f81810b885260809190911d900b602087015201546001600160601b0380821660408701908152606092831c9287019290925233909352815190518316921682116130be575b5050613101565b84612f9383613298565b916020830190612fa7818351600f0b611fbe565b600f0b82526006604085019160008051602061389e833981519152612fe060018060601b03855116926040519182913395429184612a8e565b0390a33383526729a2241af62c000c60205260408320845181546001600160801b0319166001600160801b0382161782559251909160019161302590600f0b84611efb565b818060601b03905116818060601b0319606087015160601b1617910155600f0b136130ad575b50506005546060909101516001600160a01b039182169116813b15612d515791839161308f938360405180968195829463b757b75b60e01b84528160048501611e08565b03925af18015610e85576130a1575050565b6130aa90611cd7565b50565b6130b79133611fe3565b388061304b565b523880612f82565b60405162461bcd60e51b8152602060048201526013602482015272105b1c9958591e481d5b99195b1959d85d1959606a1b6044820152606490fd5b9190600061310e82613298565b92604060076020860192613126818551600f0b611f99565b600f0b84526000805160206138be83398151915260018060a01b038916938492815190600f0b8152426020820152a382526729a2241af62c000c60205260408220845181546001600160801b0319166001600160801b038216178255915161319190600f0b82611efb565b6040850151606086810151901b6001600160601b0319166001600160601b03919091161760019190910155600f0b136131c957505050565b6127b592611fe3565b919060006131df82613298565b9260208401906131f3818351600f0b611fbe565b600f0b825260016040860191818060601b039060068285511660008051602061389e833981519152858060a01b038c1693849261323a6040519283924291600f0b84612a8e565b0390a385526729a2241af62c000c6020526040852092613275885195848060801b031986541687868060801b031617865551600f0b85611efb565b5116818060601b0319606088015160601b1617910155600f0b136131c957505050565b6132a0611de3565b50805160408083015160608401516020909401519151936001600160a01b0316926001600160601b0390911691906132d785611ca6565b600f0b8452600f0b60208401526040830152606082015290565b62093a808091048181029181830414901517156106945790565b6001600160a01b031660009081526729a2241af62c000a602052604081205480156133a057611ea361334c916729a2241af62c000960205260408420611d71565b908061337e83516133756020860151613369604088015142611eca565b600f0b90600f0b611ed7565b90600f0b611f99565b600f0b80845212613398575b50516001600160801b031690565b81523861338a565b5090565b156133ab57565b60405162461bcd60e51b815260206004820152601660248201527527b7363c903830b9ba10313637b1b590373ab6b132b960511b6044820152606490fd5b906133f6438211156133a4565b60009160018060a01b0316908183526020926729a2241af62c000a84526040928382205482905b6080821061358b575b505081156135815761344d91611ea3916000526729a2241af62c0009865284600020611d71565b926008549161345c83826135fc565b93670de0b6b3a7640000808610156105755761347d60038702600901611e2b565b9486101561354f576001860180961161069457851015610575576133696134f994613375936134b3600360009902600901611e2b565b906134d8856134cb6060850151606087015190611eca565b9301518685015190611eca565b905b85840151938361351a575b505050508751948801519288015190611eca565b600f81900b928390529112613514576001600160801b031690565b50600090565b61354092613535613546969593606061353b94015190611eca565b90611f66565b611f79565b90611eee565b388080806134e5565b5060009450613369846133759361356d60606134f998015143611eca565b9061357b8584015142611eca565b906134da565b5050505050600090565b9092818110156135f65761359f8282611eee565b9060019182810180911161069457821c90846000526729a2241af62c000989528660026135cf848b600020611d71565b500154116135e15750935b019061341d565b949250600019810190811161069457916135da565b92613426565b6000919082915b60808310613612575b50505090565b90919281811015613676576136278282611eee565b9060019182810180911161069457821c90670de0b6b3a76400008210156105755760038202600b015485106136615750935b019190613603565b94925060001981019081116106945791613659565b9261360c565b90604080830161368c81516132f1565b926000935b60ff85106136c2575b505050505060008151600f0b126136b9575b516001600160801b031690565b600081526136ac565b62093a80810180911161069457600090808381111561374057505081945b86516020880190613710825191613708600f936136fe8a518d611eca565b850b90850b611ed7565b90830b611f99565b810b89528488146137385761372a6001948351830b611fbe565b900b90528584520193613691565b50505061369a565b918591969281526729a2241af62c000b6020522054600f0b906136e0565b61376a438211156133a4565b6008549061377882826135fc565b670de0b6b3a764000092838210156105755761379960038302600901611e2b565b9260608401948551828111613891576000938510156138425750600184018094116106945783101561057557613801946137db60036137fb9502600901611e2b565b8151606082019384518203613804575b50505050505b6040830151611eee565b9061367c565b90565b613838955091613535604061382061382e946107159796611eca565b92015160408a015190611eca565b9251905190611eca565b38808080806137eb565b90506137fb9350613801959143820361385e575b5050506137f1565b61388993506138736107159261388192611eca565b613535604088015142611eca565b915143611eca565b388080613856565b5050505050505060009056febe9cf0e939c614fad640a623a53ba0a807c8cb503c4c4c8dacabe27b86ff2dd5c6c74a68f89b63353b582f75a2009daefef14ef389fbf7e30edb6141f414f028a2646970667358221220208a0cd8c1459b2ce623814fbc34928944e4c0f2b7cf1c4b4e1a02c100abfa7264736f6c63430008110033",
  "devdoc": {
    "details": "Builds on Curve Finance's original VotingEscrow implementation (see https://github.com/curvefi/curve-dao-contracts/blob/master/contracts/VotingEscrow.vy) and mStable's Solidity translation thereof (see https://github.com/mstable/mStable-contracts/blob/master/contracts/governance/IncentivisedVotingLockup.sol) Usage of this contract is not safe with all tokens, specifically: - Contract does not support tokens with maxSupply>2^128-10^[decimals] - Contract does not support fee-on-transfer tokens - Contract may be unsafe for tokens with decimals<6",
    "kind": "dev",
    "methods": {
      "balanceOf(address)": {
        "params": {
          "_owner": "The address of the lock owner for which to return voting power"
        },
        "returns": {
          "_0": "Voting power of the lock"
        }
      },
      "balanceOfAt(address,uint256)": {
        "params": {
          "_blockNumber": "The block at which to calculate the lock's voting power",
          "_owner": "The address of the lock owner for which to return voting power"
        },
        "returns": {
          "_0": "uint256 Voting power of the lock"
        }
      },
      "constructor": {
        "params": {
          "_name": "The name of the voting token",
          "_owner": "Is assumed to be a timelock contract",
          "_penaltyRecipient": "The recipient of penalty paid by lock quitters",
          "_symbol": "The symbol of the voting token",
          "_token": "The token locked in order to obtain voting power"
        }
      },
      "createLock(uint256,uint256)": {
        "details": "`_value` is (unsafely) downcasted from `uint256` to `int128` and `_unlockTime` is (unsafely) downcasted from `uint256` to `uint96` assuming that the values never reach the respective max values",
        "params": {
          "_unlockTime": "Expiration time of the lock",
          "_value": "Amount of token to lock"
        }
      },
      "delegate(address)": {
        "params": {
          "_addr": "The address of the lock owner to which to delegate"
        }
      },
      "forceUndelegate(address)": {
        "details": "Only callable by the blocklist contract",
        "params": {
          "_addr": "user to which voting power is delegated"
        }
      },
      "getLastUserPoint(address)": {
        "params": {
          "_addr": "The address of the lock owner"
        },
        "returns": {
          "bias": "The last recorded virtual balance",
          "slope": "The last recorded linear decay",
          "ts": "The last recorded timestamp"
        }
      },
      "getPenaltyRate(uint256)": {
        "details": "The penalty rate decreases linearly at the same rate as a lock's voting power in order to compensate for votes unlocked without committing to the lock expiration",
        "params": {
          "end": "The lock's expiration"
        },
        "returns": {
          "_0": "The penalty rate applicable to the lock"
        }
      },
      "increaseAmount(uint256)": {
        "details": "Does not update the lock's expiration Does record a new checkpoint for the lock `_value` is (unsafely) downcasted from `uint256` to `int128` assuming that the max value is never reached in practice",
        "params": {
          "_value": "Amount of tokens to add to the lock"
        }
      },
      "increaseUnlockTime(uint256)": {
        "details": "Does not update the amount of tokens locked Does record a new checkpoint for the lock `_unlockTime` is (unsafely) downcasted from `uint256` to `uint96` assuming that the max value is never reached in practice",
        "params": {
          "_unlockTime": "New lock expiration time"
        }
      },
      "lockEnd(address)": {
        "params": {
          "_addr": "The address of the lock owner"
        },
        "returns": {
          "_0": "Expiration of the lock"
        }
      },
      "quitLock()": {
        "details": "Quitters lock expiration remains in place because it might be delegated to"
      },
      "setTopStakerContract(address)": {
        "params": {
          "_topStakers": "The new address"
        }
      },
      "totalSupply()": {
        "returns": {
          "_0": "Current totalSupply"
        }
      },
      "totalSupplyAt(uint256)": {
        "params": {
          "_blockNumber": "The block number at which to calculate total supply"
        },
        "returns": {
          "_0": "totalSupply of voting power at the given block number"
        }
      },
      "transferOwnership(address)": {
        "details": "Owner is assumed to be a timelock contract",
        "params": {
          "_addr": "The new owner"
        }
      },
      "unlock()": {
        "details": "This is an irreversible action and is assumed to be used in a migration to a new VotingEscrow contract only"
      }
    },
    "title": "Delegated Voting Escrow",
    "version": 1
  },
  "userdoc": {
    "kind": "user",
    "methods": {
      "balanceOf(address)": {
        "notice": "Get a lock's current voting power"
      },
      "balanceOfAt(address,uint256)": {
        "notice": "Get a lock's voting power at a given block number"
      },
      "checkpoint()": {
        "notice": "Records a new global checkpoint"
      },
      "collectPenalty()": {
        "notice": "Collect accumulated penalty from lock quitters Everyone can collect but penalty is sent to `penaltyRecipient`"
      },
      "constructor": {
        "notice": "Initializes state"
      },
      "createLock(uint256,uint256)": {
        "notice": "Creates a new lock"
      },
      "delegate(address)": {
        "notice": "Delegate lock and voting power to another lock The receiving lock needs to have a longer lock duration The delegated lock will inherit the receiving lock's expiration"
      },
      "forceUndelegate(address)": {
        "notice": "Remove delegation for blocked contract"
      },
      "getLastUserPoint(address)": {
        "notice": "Returns a lock's last available user point"
      },
      "getPenaltyRate(uint256)": {
        "notice": "Returns the penalty rate for a given lock expiration"
      },
      "increaseAmount(uint256)": {
        "notice": "Locks more tokens in an existing lock"
      },
      "increaseUnlockTime(uint256)": {
        "notice": "Extends the expiration of an existing lock"
      },
      "lockEnd(address)": {
        "notice": "Returns a lock's expiration"
      },
      "quitLock()": {
        "notice": "Quit an existing lock by withdrawing all tokens less a penalty Use `withdraw` for expired locks"
      },
      "setTopStakerContract(address)": {
        "notice": "Set new address of TopStakers contract"
      },
      "totalSupply()": {
        "notice": "Calculate current total supply of voting power"
      },
      "totalSupplyAt(uint256)": {
        "notice": "Calculate total supply of voting power at a given block number"
      },
      "transferOwnership(address)": {
        "notice": "Transfers ownership to a new owner"
      },
      "unlock()": {
        "notice": "Removes quitlock penalty by setting it to zero"
      },
      "updateBlocklist(address)": {
        "notice": "Updates the blocklist contract"
      },
      "updatePenaltyRecipient(address)": {
        "notice": "Updates the recipient of the accumulated penalty paid by quitters"
      },
      "withdraw()": {
        "notice": "Withdraws the tokens of an expired lock Delegated locks need to be undelegated first"
      }
    },
    "notice": "An ERC20 token that allocates users a virtual balance depending on the amount of tokens locked and their remaining lock duration. The virtual balance decreases linearly with the remaining lock duration. This is the locking mechanism known from veCRV with additional features: - Delegation of lock and voting power - Quit an existing lock and pay a penalty - Optimistic approval of SmartWallets through Blocklist - Reduced pointHistory array size and, as a result, lifetime of the contract - Removed public deposit_for and Aragon compatibility (no use case)",
    "version": 1
  },
  "storageLayout": {
    "storage": [
      {
        "astId": 5441,
        "contract": "contracts/staking/contracts/VotingEscrow.sol:VotingEscrow",
        "label": "_status",
        "offset": 0,
        "slot": "0",
        "type": "t_uint256"
      },
      {
        "astId": 41038,
        "contract": "contracts/staking/contracts/VotingEscrow.sol:VotingEscrow",
        "label": "owner",
        "offset": 0,
        "slot": "1",
        "type": "t_address"
      },
      {
        "astId": 41040,
        "contract": "contracts/staking/contracts/VotingEscrow.sol:VotingEscrow",
        "label": "penaltyRecipient",
        "offset": 0,
        "slot": "2",
        "type": "t_address"
      },
      {
        "astId": 41043,
        "contract": "contracts/staking/contracts/VotingEscrow.sol:VotingEscrow",
        "label": "maxPenalty",
        "offset": 0,
        "slot": "3",
        "type": "t_uint256"
      },
      {
        "astId": 41045,
        "contract": "contracts/staking/contracts/VotingEscrow.sol:VotingEscrow",
        "label": "penaltyAccumulated",
        "offset": 0,
        "slot": "4",
        "type": "t_uint256"
      },
      {
        "astId": 41048,
        "contract": "contracts/staking/contracts/VotingEscrow.sol:VotingEscrow",
        "label": "topStakers",
        "offset": 0,
        "slot": "5",
        "type": "t_contract(ITopStakers)44071"
      },
      {
        "astId": 41050,
        "contract": "contracts/staking/contracts/VotingEscrow.sol:VotingEscrow",
        "label": "blocklist",
        "offset": 0,
        "slot": "6",
        "type": "t_address"
      },
      {
        "astId": 41052,
        "contract": "contracts/staking/contracts/VotingEscrow.sol:VotingEscrow",
        "label": "supply",
        "offset": 0,
        "slot": "7",
        "type": "t_uint256"
      },
      {
        "astId": 41054,
        "contract": "contracts/staking/contracts/VotingEscrow.sol:VotingEscrow",
        "label": "globalEpoch",
        "offset": 0,
        "slot": "8",
        "type": "t_uint256"
      },
      {
        "astId": 41059,
        "contract": "contracts/staking/contracts/VotingEscrow.sol:VotingEscrow",
        "label": "pointHistory",
        "offset": 0,
        "slot": "9",
        "type": "t_array(t_struct(Point)41094_storage)1000000000000000000_storage"
      },
      {
        "astId": 41066,
        "contract": "contracts/staking/contracts/VotingEscrow.sol:VotingEscrow",
        "label": "userPointHistory",
        "offset": 0,
        "slot": "3000000000000000009",
        "type": "t_mapping(t_address,t_array(t_struct(Point)41094_storage)1000000000_storage)"
      },
      {
        "astId": 41070,
        "contract": "contracts/staking/contracts/VotingEscrow.sol:VotingEscrow",
        "label": "userPointEpoch",
        "offset": 0,
        "slot": "3000000000000000010",
        "type": "t_mapping(t_address,t_uint256)"
      },
      {
        "astId": 41074,
        "contract": "contracts/staking/contracts/VotingEscrow.sol:VotingEscrow",
        "label": "slopeChanges",
        "offset": 0,
        "slot": "3000000000000000011",
        "type": "t_mapping(t_uint256,t_int128)"
      },
      {
        "astId": 41079,
        "contract": "contracts/staking/contracts/VotingEscrow.sol:VotingEscrow",
        "label": "locked",
        "offset": 0,
        "slot": "3000000000000000012",
        "type": "t_mapping(t_address,t_struct(LockedBalance)41103_storage)"
      },
      {
        "astId": 41081,
        "contract": "contracts/staking/contracts/VotingEscrow.sol:VotingEscrow",
        "label": "name",
        "offset": 0,
        "slot": "3000000000000000013",
        "type": "t_string_storage"
      },
      {
        "astId": 41083,
        "contract": "contracts/staking/contracts/VotingEscrow.sol:VotingEscrow",
        "label": "symbol",
        "offset": 0,
        "slot": "3000000000000000014",
        "type": "t_string_storage"
      },
      {
        "astId": 41085,
        "contract": "contracts/staking/contracts/VotingEscrow.sol:VotingEscrow",
        "label": "decimals",
        "offset": 0,
        "slot": "3000000000000000015",
        "type": "t_uint256"
      }
    ],
    "types": {
      "t_address": {
        "encoding": "inplace",
        "label": "address",
        "numberOfBytes": "20"
      },
      "t_array(t_struct(Point)41094_storage)1000000000000000000_storage": {
        "base": "t_struct(Point)41094_storage",
        "encoding": "inplace",
        "label": "struct VotingEscrow.Point[1000000000000000000]",
        "numberOfBytes": "96000000000000000000"
      },
      "t_array(t_struct(Point)41094_storage)1000000000_storage": {
        "base": "t_struct(Point)41094_storage",
        "encoding": "inplace",
        "label": "struct VotingEscrow.Point[1000000000]",
        "numberOfBytes": "96000000000"
      },
      "t_contract(ITopStakers)44071": {
        "encoding": "inplace",
        "label": "contract ITopStakers",
        "numberOfBytes": "20"
      },
      "t_int128": {
        "encoding": "inplace",
        "label": "int128",
        "numberOfBytes": "16"
      },
      "t_mapping(t_address,t_array(t_struct(Point)41094_storage)1000000000_storage)": {
        "encoding": "mapping",
        "key": "t_address",
        "label": "mapping(address => struct VotingEscrow.Point[1000000000])",
        "numberOfBytes": "32",
        "value": "t_array(t_struct(Point)41094_storage)1000000000_storage"
      },
      "t_mapping(t_address,t_struct(LockedBalance)41103_storage)": {
        "encoding": "mapping",
        "key": "t_address",
        "label": "mapping(address => struct VotingEscrow.LockedBalance)",
        "numberOfBytes": "32",
        "value": "t_struct(LockedBalance)41103_storage"
      },
      "t_mapping(t_address,t_uint256)": {
        "encoding": "mapping",
        "key": "t_address",
        "label": "mapping(address => uint256)",
        "numberOfBytes": "32",
        "value": "t_uint256"
      },
      "t_mapping(t_uint256,t_int128)": {
        "encoding": "mapping",
        "key": "t_uint256",
        "label": "mapping(uint256 => int128)",
        "numberOfBytes": "32",
        "value": "t_int128"
      },
      "t_string_storage": {
        "encoding": "bytes",
        "label": "string",
        "numberOfBytes": "32"
      },
      "t_struct(LockedBalance)41103_storage": {
        "encoding": "inplace",
        "label": "struct VotingEscrow.LockedBalance",
        "members": [
          {
            "astId": 41096,
            "contract": "contracts/staking/contracts/VotingEscrow.sol:VotingEscrow",
            "label": "amount",
            "offset": 0,
            "slot": "0",
            "type": "t_int128"
          },
          {
            "astId": 41098,
            "contract": "contracts/staking/contracts/VotingEscrow.sol:VotingEscrow",
            "label": "delegated",
            "offset": 16,
            "slot": "0",
            "type": "t_int128"
          },
          {
            "astId": 41100,
            "contract": "contracts/staking/contracts/VotingEscrow.sol:VotingEscrow",
            "label": "end",
            "offset": 0,
            "slot": "1",
            "type": "t_uint96"
          },
          {
            "astId": 41102,
            "contract": "contracts/staking/contracts/VotingEscrow.sol:VotingEscrow",
            "label": "delegatee",
            "offset": 12,
            "slot": "1",
            "type": "t_address"
          }
        ],
        "numberOfBytes": "64"
      },
      "t_struct(Point)41094_storage": {
        "encoding": "inplace",
        "label": "struct VotingEscrow.Point",
        "members": [
          {
            "astId": 41087,
            "contract": "contracts/staking/contracts/VotingEscrow.sol:VotingEscrow",
            "label": "bias",
            "offset": 0,
            "slot": "0",
            "type": "t_int128"
          },
          {
            "astId": 41089,
            "contract": "contracts/staking/contracts/VotingEscrow.sol:VotingEscrow",
            "label": "slope",
            "offset": 16,
            "slot": "0",
            "type": "t_int128"
          },
          {
            "astId": 41091,
            "contract": "contracts/staking/contracts/VotingEscrow.sol:VotingEscrow",
            "label": "ts",
            "offset": 0,
            "slot": "1",
            "type": "t_uint256"
          },
          {
            "astId": 41093,
            "contract": "contracts/staking/contracts/VotingEscrow.sol:VotingEscrow",
            "label": "blk",
            "offset": 0,
            "slot": "2",
            "type": "t_uint256"
          }
        ],
        "numberOfBytes": "96"
      },
      "t_uint256": {
        "encoding": "inplace",
        "label": "uint256",
        "numberOfBytes": "32"
      },
      "t_uint96": {
        "encoding": "inplace",
        "label": "uint96",
        "numberOfBytes": "12"
      }
    }
  }
}