{
  "address": "0x26B862f640357268Bd2d9E95bc81553a2Aa81D7E",
  "abi": [
    {
      "inputs": [],
      "name": "IncorrectDiscount",
      "type": "error"
    },
    {
      "inputs": [],
      "name": "ACCESS_CONTROL_SINGLETON",
      "outputs": [
        {
          "internalType": "contract ISuAccessControl",
          "name": "",
          "type": "address"
        }
      ],
      "stateMutability": "view",
      "type": "function"
    },
    {
      "inputs": [],
      "name": "LIQUIDATION_ACCESS_ROLE",
      "outputs": [
        {
          "internalType": "bytes32",
          "name": "",
          "type": "bytes32"
        }
      ],
      "stateMutability": "view",
      "type": "function"
    },
    {
      "inputs": [],
      "name": "MINTER_ROLE",
      "outputs": [
        {
          "internalType": "bytes32",
          "name": "",
          "type": "bytes32"
        }
      ],
      "stateMutability": "view",
      "type": "function"
    },
    {
      "inputs": [],
      "name": "VAULT_ACCESS_ROLE",
      "outputs": [
        {
          "internalType": "bytes32",
          "name": "",
          "type": "bytes32"
        }
      ],
      "stateMutability": "view",
      "type": "function"
    },
    {
      "inputs": [
        {
          "internalType": "address",
          "name": "asset",
          "type": "address"
        },
        {
          "internalType": "enum DiscountType",
          "name": "discountType",
          "type": "uint8"
        },
        {
          "internalType": "uint256",
          "name": "liquidationBlock",
          "type": "uint256"
        }
      ],
      "name": "calculateDiscountE18",
      "outputs": [
        {
          "internalType": "uint256",
          "name": "",
          "type": "uint256"
        }
      ],
      "stateMutability": "view",
      "type": "function"
    },
    {
      "inputs": [
        {
          "internalType": "address",
          "name": "asset",
          "type": "address"
        },
        {
          "internalType": "enum DiscountType",
          "name": "discountType",
          "type": "uint8"
        }
      ],
      "name": "getDiscountInfo",
      "outputs": [
        {
          "components": [
            {
              "internalType": "uint256",
              "name": "firstBlockE18",
              "type": "uint256"
            },
            {
              "internalType": "uint256",
              "name": "stepPerBlockE18",
              "type": "uint256"
            }
          ],
          "internalType": "struct DiscountInfo",
          "name": "discountInfo",
          "type": "tuple"
        }
      ],
      "stateMutability": "view",
      "type": "function"
    },
    {
      "inputs": [
        {
          "internalType": "address",
          "name": "_authControl",
          "type": "address"
        }
      ],
      "name": "init",
      "outputs": [],
      "stateMutability": "nonpayable",
      "type": "function"
    },
    {
      "inputs": [
        {
          "internalType": "address",
          "name": "asset",
          "type": "address"
        },
        {
          "internalType": "enum DiscountType",
          "name": "discountType",
          "type": "uint8"
        },
        {
          "components": [
            {
              "internalType": "uint256",
              "name": "firstBlockE18",
              "type": "uint256"
            },
            {
              "internalType": "uint256",
              "name": "stepPerBlockE18",
              "type": "uint256"
            }
          ],
          "internalType": "struct DiscountInfo",
          "name": "discountInfo",
          "type": "tuple"
        }
      ],
      "name": "setDiscountInfo",
      "outputs": [],
      "stateMutability": "nonpayable",
      "type": "function"
    }
  ],
  "numDeployments": 2,
  "solcInputHash": "625ad26419abf2ed0c138f1436525766",
  "bytecode": "0x608060405234801561001057600080fd5b506108ef806100206000396000f3fe608060405234801561001057600080fd5b50600436106100885760003560e01c8063c3009f361161005b578063c3009f361461013b578063d53913931461014e578063dc97e84e14610175578063f4e2ebeb1461019c57600080fd5b806303ee9f221461008d57806314c376dc146100c357806319ab453c146100f85780633599f0221461010d575b600080fd5b6000546100a6906201000090046001600160a01b031681565b6040516001600160a01b0390911681526020015b60405180910390f35b6100ea7fe965846df3dd5b1dfa65f58e31477079e90140e0908b6dd31b5aead5a57cf36581565b6040519081526020016100ba565b61010b610106366004610761565b6101af565b005b61012061011b36600461077b565b610286565b604080518251815260209283015192810192909252016100ba565b6100ea6101493660046107fa565b610327565b6100ea7f9f2df0fed2c77648de5860a4cc508cd0818c85b8b8a1ab4ceeef8d981c8956a681565b6100ea7f9a9aef7c1247d5fc769b0185c052913e39673da29a880317dfd20ebf86f26a4981565b61010b6101aa3660046107ad565b610436565b600054610100900460ff166101ca5760005460ff16156101ce565b303b155b6102455760405162461bcd60e51b815260206004820152602e60248201527f496e697469616c697a61626c653a20636f6e747261637420697320616c72656160448201527f647920696e697469616c697a656400000000000000000000000000000000000060648201526084015b60405180910390fd5b600054610100900460ff16158015610267576000805461ffff19166101011790555b610270826105a9565b8015610282576000805461ff00191690555b5050565b60408051808201909152600080825260208201526001600160a01b0383166000908152600160205260408120908360028111156102d357634e487b7160e01b600052602160045260246000fd5b60028111156102f257634e487b7160e01b600052602160045260246000fd5b815260200190815260200160002060405180604001604052908160008201548152602001600182015481525050905092915050565b6001600160a01b038316600090815260016020526040812081908185600281111561036257634e487b7160e01b600052602160045260246000fd5b600281111561038157634e487b7160e01b600052602160045260246000fd5b815260200190815260200160002090506000834361039f919061088c565b9050806103b15760009250505061042f565b80600114156103c3575054905061042f565b60008560028111156103e557634e487b7160e01b600052602160045260246000fd5b1415610411576104088166b1a2bc2ec50000846001015485600101546002610666565b9250505061042f565b61040881670de0b6b3a7640000846000015485600101546001610666565b9392505050565b600080546040517f91d1485400000000000000000000000000000000000000000000000000000000815260048101929092523360248301526201000090046001600160a01b0316906391d148549060440160206040518083038186803b15801561049f57600080fd5b505afa1580156104b3573d6000803e3d6000fd5b505050506040513d601f19601f820116820180604052508101906104d79190610835565b6105235760405162461bcd60e51b815260206004820152601d60248201527f5375417574683a206f6e6c794f776e657220415554485f4641494c4544000000604482015260640161023c565b61052d82826106a4565b6001600160a01b0383166000908152600160205260408120829184600281111561056757634e487b7160e01b600052602160045260246000fd5b600281111561058657634e487b7160e01b600052602160045260246000fd5b815260208082019290925260400160002082358155910135600190910155505050565b600054610100900460ff166106265760405162461bcd60e51b815260206004820152602b60248201527f496e697469616c697a61626c653a20636f6e7472616374206973206e6f74206960448201527f6e697469616c697a696e67000000000000000000000000000000000000000000606482015260840161023c565b600080546001600160a01b0390921662010000027fffffffffffffffffffff0000000000000000000000000000000000000000ffff909216919091179055565b60008083610674848961088c565b61067e919061086d565b6106889086610855565b90508581116106975780610699565b855b979650505050505050565b6000808360028111156106c757634e487b7160e01b600052602160045260246000fd5b14156106db575066b1a2bc2ec500006106e6565b50670de0b6b3a76400005b8135811115806106fa575080826020013510155b15610731576040517f8478aedc00000000000000000000000000000000000000000000000000000000815260040160405180910390fd5b505050565b80356001600160a01b038116811461074d57600080fd5b919050565b80356003811061074d57600080fd5b600060208284031215610772578081fd5b61042f82610736565b6000806040838503121561078d578081fd5b61079683610736565b91506107a460208401610752565b90509250929050565b600080600083850360808112156107c2578182fd5b6107cb85610736565b93506107d960208601610752565b92506040603f19820112156107ec578182fd5b506040840190509250925092565b60008060006060848603121561080e578283fd5b61081784610736565b925061082560208501610752565b9150604084013590509250925092565b600060208284031215610846578081fd5b8151801515811461042f578182fd5b60008219821115610868576108686108a3565b500190565b6000816000190483118215151615610887576108876108a3565b500290565b60008282101561089e5761089e6108a3565b500390565b634e487b7160e01b600052601160045260246000fdfea2646970667358221220fb3aae07565587189356deda46571fff7f6d6d7a45fded70ca7fcbd3e772164564736f6c63430008040033",
  "devdoc": {
    "kind": "dev",
    "methods": {
      "calculateDiscountE18(address,uint8,uint256)": {
        "details": "This is a linear function of the discount change.     Calculates the liquidation discount by passed blocks.",
        "params": {
          "asset": "The address of the main collateral token",
          "discountType": "Determines how aggressively the lending module offers a discount",
          "liquidationBlock": "The block number when the liquidation was triggered"
        },
        "returns": {
          "_0": "Amount of discount in percents, E18 format"
        }
      },
      "getDiscountInfo(address,uint8)": {
        "params": {
          "asset": "The address of the asset token",
          "discountType": "Type of discount determines how aggressively the lending module offers a discount"
        }
      },
      "setDiscountInfo(address,uint8,(uint256,uint256))": {
        "details": "Sets the liquidation discount",
        "params": {
          "asset": "The address of the asset token",
          "discountInfo": "Determines discount percentages depending on a block number",
          "discountType": "Determines how aggressively the lending module offers a discount"
        }
      }
    },
    "version": 1
  },
  "userdoc": {
    "kind": "user",
    "methods": {
      "getDiscountInfo(address,uint8)": {
        "notice": "Returns information about discount percentages depending on a block number"
      },
      "setDiscountInfo(address,uint8,(uint256,uint256))": {
        "notice": "Only owner is able to call this function"
      }
    },
    "version": 1
  },
  "storageLayout": {
    "storage": [
      {
        "astId": 454,
        "contract": "contracts/liquidator/SuLiquidationDiscount.sol:SuLiquidationDiscount",
        "label": "_initialized",
        "offset": 0,
        "slot": "0",
        "type": "t_bool"
      },
      {
        "astId": 457,
        "contract": "contracts/liquidator/SuLiquidationDiscount.sol:SuLiquidationDiscount",
        "label": "_initializing",
        "offset": 1,
        "slot": "0",
        "type": "t_bool"
      },
      {
        "astId": 4355,
        "contract": "contracts/liquidator/SuLiquidationDiscount.sol:SuLiquidationDiscount",
        "label": "ACCESS_CONTROL_SINGLETON",
        "offset": 2,
        "slot": "0",
        "type": "t_contract(ISuAccessControl)7493"
      },
      {
        "astId": 12084,
        "contract": "contracts/liquidator/SuLiquidationDiscount.sol:SuLiquidationDiscount",
        "label": "_discountsInfo",
        "offset": 0,
        "slot": "1",
        "type": "t_mapping(t_address,t_mapping(t_enum(DiscountType)12308,t_struct(DiscountInfo)12313_storage))"
      }
    ],
    "types": {
      "t_address": {
        "encoding": "inplace",
        "label": "address",
        "numberOfBytes": "20"
      },
      "t_bool": {
        "encoding": "inplace",
        "label": "bool",
        "numberOfBytes": "1"
      },
      "t_contract(ISuAccessControl)7493": {
        "encoding": "inplace",
        "label": "contract ISuAccessControl",
        "numberOfBytes": "20"
      },
      "t_enum(DiscountType)12308": {
        "encoding": "inplace",
        "label": "enum DiscountType",
        "numberOfBytes": "1"
      },
      "t_mapping(t_address,t_mapping(t_enum(DiscountType)12308,t_struct(DiscountInfo)12313_storage))": {
        "encoding": "mapping",
        "key": "t_address",
        "label": "mapping(address => mapping(enum DiscountType => struct DiscountInfo))",
        "numberOfBytes": "32",
        "value": "t_mapping(t_enum(DiscountType)12308,t_struct(DiscountInfo)12313_storage)"
      },
      "t_mapping(t_enum(DiscountType)12308,t_struct(DiscountInfo)12313_storage)": {
        "encoding": "mapping",
        "key": "t_enum(DiscountType)12308",
        "label": "mapping(enum DiscountType => struct DiscountInfo)",
        "numberOfBytes": "32",
        "value": "t_struct(DiscountInfo)12313_storage"
      },
      "t_struct(DiscountInfo)12313_storage": {
        "encoding": "inplace",
        "label": "struct DiscountInfo",
        "members": [
          {
            "astId": 12310,
            "contract": "contracts/liquidator/SuLiquidationDiscount.sol:SuLiquidationDiscount",
            "label": "firstBlockE18",
            "offset": 0,
            "slot": "0",
            "type": "t_uint256"
          },
          {
            "astId": 12312,
            "contract": "contracts/liquidator/SuLiquidationDiscount.sol:SuLiquidationDiscount",
            "label": "stepPerBlockE18",
            "offset": 0,
            "slot": "1",
            "type": "t_uint256"
          }
        ],
        "numberOfBytes": "64"
      },
      "t_uint256": {
        "encoding": "inplace",
        "label": "uint256",
        "numberOfBytes": "32"
      }
    }
  }
}