{
  "_format": "hh-sol-artifact-1",
  "contractName": "SuCdpManager",
  "sourceName": "contracts/SuCdpManager.sol",
  "abi": [
    {
      "inputs": [
        {
          "internalType": "address",
          "name": "_vaultManagerParameters",
          "type": "address"
        },
        {
          "internalType": "address",
          "name": "_suOracle",
          "type": "address"
        },
        {
          "internalType": "address",
          "name": "_cdpRegistry",
          "type": "address"
        }
      ],
      "stateMutability": "nonpayable",
      "type": "constructor"
    },
    {
      "anonymous": false,
      "inputs": [
        {
          "indexed": true,
          "internalType": "address",
          "name": "asset",
          "type": "address"
        },
        {
          "indexed": true,
          "internalType": "address",
          "name": "owner",
          "type": "address"
        },
        {
          "indexed": false,
          "internalType": "uint256",
          "name": "main",
          "type": "uint256"
        },
        {
          "indexed": false,
          "internalType": "uint256",
          "name": "usdp",
          "type": "uint256"
        }
      ],
      "name": "Exit",
      "type": "event"
    },
    {
      "anonymous": false,
      "inputs": [
        {
          "indexed": true,
          "internalType": "address",
          "name": "asset",
          "type": "address"
        },
        {
          "indexed": true,
          "internalType": "address",
          "name": "owner",
          "type": "address"
        },
        {
          "indexed": false,
          "internalType": "uint256",
          "name": "main",
          "type": "uint256"
        },
        {
          "indexed": false,
          "internalType": "uint256",
          "name": "usdp",
          "type": "uint256"
        }
      ],
      "name": "Join",
      "type": "event"
    },
    {
      "anonymous": false,
      "inputs": [
        {
          "indexed": true,
          "internalType": "address",
          "name": "asset",
          "type": "address"
        },
        {
          "indexed": true,
          "internalType": "address",
          "name": "owner",
          "type": "address"
        }
      ],
      "name": "LiquidationTriggered",
      "type": "event"
    },
    {
      "inputs": [],
      "name": "DENOMINATOR_1E5",
      "outputs": [
        {
          "internalType": "uint256",
          "name": "",
          "type": "uint256"
        }
      ],
      "stateMutability": "view",
      "type": "function"
    },
    {
      "inputs": [],
      "name": "Q112",
      "outputs": [
        {
          "internalType": "uint256",
          "name": "",
          "type": "uint256"
        }
      ],
      "stateMutability": "view",
      "type": "function"
    },
    {
      "inputs": [],
      "name": "WETH",
      "outputs": [
        {
          "internalType": "address payable",
          "name": "",
          "type": "address"
        }
      ],
      "stateMutability": "view",
      "type": "function"
    },
    {
      "inputs": [],
      "name": "cdpRegistry",
      "outputs": [
        {
          "internalType": "contract ISuCdpRegistry",
          "name": "",
          "type": "address"
        }
      ],
      "stateMutability": "view",
      "type": "function"
    },
    {
      "inputs": [
        {
          "internalType": "address",
          "name": "asset",
          "type": "address"
        },
        {
          "internalType": "uint256",
          "name": "assetAmount",
          "type": "uint256"
        },
        {
          "internalType": "uint256",
          "name": "usdpAmount",
          "type": "uint256"
        }
      ],
      "name": "exit",
      "outputs": [
        {
          "internalType": "uint256",
          "name": "",
          "type": "uint256"
        }
      ],
      "stateMutability": "nonpayable",
      "type": "function"
    },
    {
      "inputs": [
        {
          "internalType": "uint256",
          "name": "ethAmount",
          "type": "uint256"
        },
        {
          "internalType": "uint256",
          "name": "usdpAmount",
          "type": "uint256"
        }
      ],
      "name": "exit_Eth",
      "outputs": [
        {
          "internalType": "uint256",
          "name": "",
          "type": "uint256"
        }
      ],
      "stateMutability": "nonpayable",
      "type": "function"
    },
    {
      "inputs": [
        {
          "internalType": "uint256",
          "name": "ethAmount",
          "type": "uint256"
        },
        {
          "internalType": "uint256",
          "name": "repayment",
          "type": "uint256"
        }
      ],
      "name": "exit_Eth_targetRepayment",
      "outputs": [
        {
          "internalType": "uint256",
          "name": "",
          "type": "uint256"
        }
      ],
      "stateMutability": "nonpayable",
      "type": "function"
    },
    {
      "inputs": [
        {
          "internalType": "address",
          "name": "asset",
          "type": "address"
        },
        {
          "internalType": "uint256",
          "name": "assetAmount",
          "type": "uint256"
        },
        {
          "internalType": "uint256",
          "name": "repayment",
          "type": "uint256"
        }
      ],
      "name": "exit_targetRepayment",
      "outputs": [
        {
          "internalType": "uint256",
          "name": "",
          "type": "uint256"
        }
      ],
      "stateMutability": "nonpayable",
      "type": "function"
    },
    {
      "inputs": [
        {
          "internalType": "address",
          "name": "asset",
          "type": "address"
        },
        {
          "internalType": "address",
          "name": "owner",
          "type": "address"
        }
      ],
      "name": "getCollateralUsdValue_q112",
      "outputs": [
        {
          "internalType": "uint256",
          "name": "",
          "type": "uint256"
        }
      ],
      "stateMutability": "view",
      "type": "function"
    },
    {
      "inputs": [
        {
          "internalType": "address",
          "name": "asset",
          "type": "address"
        },
        {
          "internalType": "address",
          "name": "owner",
          "type": "address"
        }
      ],
      "name": "isLiquidatablePosition",
      "outputs": [
        {
          "internalType": "bool",
          "name": "",
          "type": "bool"
        }
      ],
      "stateMutability": "view",
      "type": "function"
    },
    {
      "inputs": [
        {
          "internalType": "address",
          "name": "asset",
          "type": "address"
        },
        {
          "internalType": "uint256",
          "name": "assetAmount",
          "type": "uint256"
        },
        {
          "internalType": "uint256",
          "name": "usdpAmount",
          "type": "uint256"
        }
      ],
      "name": "join",
      "outputs": [],
      "stateMutability": "nonpayable",
      "type": "function"
    },
    {
      "inputs": [
        {
          "internalType": "uint256",
          "name": "usdpAmount",
          "type": "uint256"
        }
      ],
      "name": "join_Eth",
      "outputs": [],
      "stateMutability": "payable",
      "type": "function"
    },
    {
      "inputs": [
        {
          "internalType": "address",
          "name": "asset",
          "type": "address"
        },
        {
          "internalType": "address",
          "name": "owner",
          "type": "address"
        }
      ],
      "name": "liquidationPrice_q112",
      "outputs": [
        {
          "internalType": "uint256",
          "name": "",
          "type": "uint256"
        }
      ],
      "stateMutability": "view",
      "type": "function"
    },
    {
      "inputs": [],
      "name": "suOracle",
      "outputs": [
        {
          "internalType": "address",
          "name": "",
          "type": "address"
        }
      ],
      "stateMutability": "view",
      "type": "function"
    },
    {
      "inputs": [
        {
          "internalType": "address",
          "name": "asset",
          "type": "address"
        },
        {
          "internalType": "address",
          "name": "owner",
          "type": "address"
        }
      ],
      "name": "triggerLiquidation",
      "outputs": [],
      "stateMutability": "nonpayable",
      "type": "function"
    },
    {
      "inputs": [
        {
          "internalType": "address",
          "name": "asset",
          "type": "address"
        },
        {
          "internalType": "address",
          "name": "owner",
          "type": "address"
        }
      ],
      "name": "utilizationRatio",
      "outputs": [
        {
          "internalType": "uint256",
          "name": "",
          "type": "uint256"
        }
      ],
      "stateMutability": "view",
      "type": "function"
    },
    {
      "inputs": [],
      "name": "vault",
      "outputs": [
        {
          "internalType": "contract ISuVault",
          "name": "",
          "type": "address"
        }
      ],
      "stateMutability": "view",
      "type": "function"
    },
    {
      "inputs": [],
      "name": "vaultManagerParameters",
      "outputs": [
        {
          "internalType": "contract ISuVaultManagerParameters",
          "name": "",
          "type": "address"
        }
      ],
      "stateMutability": "view",
      "type": "function"
    },
    {
      "stateMutability": "payable",
      "type": "receive"
    }
  ],
  "bytecode": "0x6101006040523480156200001257600080fd5b5060405162002c6338038062002c6383398101604081905262000035916200038a565b60016000556001600160a01b038316158015906200005b57506001600160a01b03811615155b620000ac5760405162461bcd60e51b815260206004820152601b60248201527f556e69742050726f746f636f6c3a20494e56414c49445f415247530000000000604482015260640160405180910390fd5b600180546001600160a01b0319166001600160a01b0384811691909117909155606084901b6001600160601b03191660a05260408051635651a2f760e11b815290519185169163aca345ee91600480820192602092909190829003018186803b1580156200011957600080fd5b505afa1580156200012e573d6000803e3d6000fd5b505050506040513d601f19601f8201168201806040525081019062000154919062000364565b6001600160a01b031663fbfa77cf6040518163ffffffff1660e01b815260040160206040518083038186803b1580156200018d57600080fd5b505afa158015620001a2573d6000803e3d6000fd5b505050506040513d601f19601f82011682018060405250810190620001c8919062000364565b6001600160a01b03166080816001600160a01b031660601b81525050826001600160a01b031663aca345ee6040518163ffffffff1660e01b815260040160206040518083038186803b1580156200021e57600080fd5b505afa15801562000233573d6000803e3d6000fd5b505050506040513d601f19601f8201168201806040525081019062000259919062000364565b6001600160a01b031663fbfa77cf6040518163ffffffff1660e01b815260040160206040518083038186803b1580156200029257600080fd5b505afa158015620002a7573d6000803e3d6000fd5b505050506040513d601f19601f82011682018060405250810190620002cd919062000364565b6001600160a01b0316633fc8cef36040518163ffffffff1660e01b815260040160206040518083038186803b1580156200030657600080fd5b505afa1580156200031b573d6000803e3d6000fd5b505050506040513d601f19601f8201168201806040525081019062000341919062000364565b6001600160601b0319606091821b811660e05291901b1660c05250620003f69050565b60006020828403121562000376578081fd5b81516200038381620003dd565b9392505050565b6000806000606084860312156200039f578182fd5b8351620003ac81620003dd565b6020850151909350620003bf81620003dd565b6040850151909250620003d281620003dd565b809150509250925092565b6001600160a01b0381168114620003f357600080fd5b50565b60805160601c60a05160601c60c05160601c60e05160601c61272b620005386000396000818161013d01528181610339015281816108d60152818161097901528181610a7801528181610ba9015281816118350152818161189901526119be01526000818161030501528181610faa01526117c601526000818161036d015281816105410152818161111a01528181611c3d015261226a0152600081816104410152818161048f0152818161077501528181610acd01528181610cb801528181610d8b01528181610e2601528181610ed3015281816111fb01528181611453015281816114dc0152818161159f0152818161162e015281816116d001528181611b9301528181611d2401528181611dea01528181611ee801528181611f6801528181611f97015281816120ef015281816121b3015261232e015261272b6000f3fe60806040526004361061012d5760003560e01c8063ab2a2a82116100a5578063bbdc953111610074578063ea36380a11610059578063ea36380a146103ef578063eb70d3581461040f578063fbfa77cf1461042f57600080fd5b8063bbdc9531146103af578063d4796d12146103cf57600080fd5b8063ab2a2a82146102f3578063ad5c464814610327578063b7ebdc0c1461035b578063ba96208a1461038f57600080fd5b80633bf7a83e116100fc578063971182c6116100e1578063971182c614610284578063a20f9cb31461029b578063a3d84b5b146102d357600080fd5b80633bf7a83e1461024c5780634265607c1461026457600080fd5b806312dc1dcc146101b6578063134a02dd146101e9578063252d040e1461021957806325df90581461023957600080fd5b366101b157336001600160a01b037f000000000000000000000000000000000000000000000000000000000000000016146101af5760405162461bcd60e51b815260206004820152601960248201527f556e69742050726f746f636f6c3a20524553545249435445440000000000000060448201526064015b60405180910390fd5b005b600080fd5b3480156101c257600080fd5b506101d66101d136600461244d565b610463565b6040519081526020015b60405180910390f35b3480156101f557600080fd5b5061020961020436600461244d565b61080e565b60405190151581526020016101e0565b34801561022557600080fd5b506101d661023436600461244d565b610830565b6101af6102473660046124d9565b6108ce565b34801561025857600080fd5b506101d6600160701b81565b34801561027057600080fd5b506101d661027f36600461244d565b610aa1565b34801561029057600080fd5b506101d6620186a081565b3480156102a757600080fd5b506001546102bb906001600160a01b031681565b6040516001600160a01b0390911681526020016101e0565b3480156102df57600080fd5b506101d66102ee366004612485565b610b7d565b3480156102ff57600080fd5b506102bb7f000000000000000000000000000000000000000000000000000000000000000081565b34801561033357600080fd5b506102bb7f000000000000000000000000000000000000000000000000000000000000000081565b34801561036757600080fd5b506102bb7f000000000000000000000000000000000000000000000000000000000000000081565b34801561039b57600080fd5b506101d66103aa366004612509565b610ba1565b3480156103bb57600080fd5b506101d66103ca366004612485565b610bdb565b3480156103db57600080fd5b506101af6103ea36600461244d565b611015565b3480156103fb57600080fd5b506101af61040a366004612485565b61129d565b34801561041b57600080fd5b506101d661042a366004612509565b61182e565b34801561043b57600080fd5b506102bb7f000000000000000000000000000000000000000000000000000000000000000081565b60405163d6446d4360e01b81526001600160a01b038381166004830152828116602483015260009182917f0000000000000000000000000000000000000000000000000000000000000000169063d6446d439060440160206040518083038186803b1580156104d157600080fd5b505afa1580156104e5573d6000803e3d6000fd5b505050506040513d601f19601f8201168201806040525081019061050991906124f1565b90508061051b57600019915050610808565b604051631dffddf160e11b81526001600160a01b0385811660048301526000916105da917f00000000000000000000000000000000000000000000000000000000000000001690633bffbbe29060240160206040518083038186803b15801561058357600080fd5b505afa158015610597573d6000803e3d6000fd5b505050506040513d601f19601f820116820180604052508101906105bb91906124f1565b6105d4600160701b6105ce866064611acd565b90611acd565b90611b0e565b90506012856001600160a01b031663313ce5676040518163ffffffff1660e01b815260040160206040518083038186803b15801561061757600080fd5b505afa15801561062b573d6000803e3d6000fd5b505050506040513d601f19601f8201168201806040525081019061064f919061252a565b60ff1611156106ae5760405162461bcd60e51b815260206004820152602560248201527f556e69742050726f746f636f6c3a204e4f545f535550504f525445445f444543604482015264494d414c5360d81b60648201526084016101a6565b846001600160a01b031663313ce5676040518163ffffffff1660e01b815260040160206040518083038186803b1580156106e757600080fd5b505afa1580156106fb573d6000803e3d6000fd5b505050506040513d601f19601f8201168201806040525081019061071f919061252a565b61072a9060126126a7565b61073590600a6125c6565b6040517fe51e119e0000000000000000000000000000000000000000000000000000000081526001600160a01b03878116600483015286811660248301527f0000000000000000000000000000000000000000000000000000000000000000169063e51e119e9060440160206040518083038186803b1580156107b757600080fd5b505afa1580156107cb573d6000803e3d6000fd5b505050506040513d601f19601f820116820180604052508101906107ef91906124f1565b6107f99083612563565b6108039190612563565b925050505b92915050565b60008061081b8484610830565b9050610828848483611b67565b949350505050565b6001546040517f356efd980000000000000000000000000000000000000000000000000000000081526001600160a01b038481166004830152600092169063356efd989060240160206040518083038186803b15801561088f57600080fd5b505afa1580156108a3573d6000803e3d6000fd5b505050506040513d601f19601f820116820180604052508101906108c791906124f1565b9392505050565b3415610a73577f00000000000000000000000000000000000000000000000000000000000000006001600160a01b031663d0e30db0346040518263ffffffff1660e01b81526004016000604051808303818588803b15801561092f57600080fd5b505af1158015610943573d6000803e3d6000fd5b50506040517fa9059cbb0000000000000000000000000000000000000000000000000000000081523360048201523460248201527f00000000000000000000000000000000000000000000000000000000000000006001600160a01b0316935063a9059cbb92506044019050602060405180830381600087803b1580156109c957600080fd5b505af11580156109dd573d6000803e3d6000fd5b505050506040513d601f19601f82011682018060405250810190610a0191906124b9565b610a735760405162461bcd60e51b815260206004820152602360248201527f556e69742050726f746f636f6c3a20574554485f5452414e534645525f46414960448201527f4c4544000000000000000000000000000000000000000000000000000000000060648201526084016101a6565b610a9e7f0000000000000000000000000000000000000000000000000000000000000000348361129d565b50565b60405163d6446d4360e01b81526001600160a01b038381166004830152828116602483015260009182917f0000000000000000000000000000000000000000000000000000000000000000169063d6446d439060440160206040518083038186803b158015610b0f57600080fd5b505afa158015610b23573d6000803e3d6000fd5b505050506040513d601f19601f82011682018060405250810190610b4791906124f1565b905080610b58576000915050610808565b6000610b648585610830565b9050610803816105d4600160701b6105ce866064611acd565b600080610b8b853385611cd9565b9050610b98858583610bdb565b95945050505050565b600080610bcf7f00000000000000000000000000000000000000000000000000000000000000003385611cd9565b9050610828848261182e565b600060026000541415610c305760405162461bcd60e51b815260206004820152601f60248201527f5265656e7472616e637947756172643a207265656e7472616e742063616c6c0060448201526064016101a6565b6002600055833384151580610c4457508315155b610c905760405162461bcd60e51b815260206004820152601960248201527f556e69742050726f746f636f6c3a205553454c4553535f54580000000000000060448201526064016101a6565b604051634ac1c33d60e01b81526001600160a01b0387811660048301523360248301526000917f000000000000000000000000000000000000000000000000000000000000000090911690634ac1c33d9060440160206040518083038186803b158015610cfc57600080fd5b505afa158015610d10573d6000803e3d6000fd5b505050506040513d601f19601f82011682018060405250810190610d3491906124f1565b905080851115610d42578094505b85610d5757610d52873387611e9e565b610f39565b84811415610dfa576040516311af95b160e31b81526001600160a01b038881166004830152336024830152604482018890527f00000000000000000000000000000000000000000000000000000000000000001690638d7cad8890606401600060405180830381600087803b158015610dcf57600080fd5b505af1158015610de3573d6000803e3d6000fd5b5050505084600014610d5257610d52873387611e9e565b6040516311af95b160e31b81526001600160a01b038881166004830152336024830152604482018890527f00000000000000000000000000000000000000000000000000000000000000001690638d7cad8890606401600060405180830381600087803b158015610e6a57600080fd5b505af1158015610e7e573d6000803e3d6000fd5b5050505084600014610e9557610e95873387611e9e565b6040517fc640752d0000000000000000000000000000000000000000000000000000000081526001600160a01b0388811660048301523360248301527f0000000000000000000000000000000000000000000000000000000000000000169063c640752d90604401600060405180830381600087803b158015610f1757600080fd5b505af1158015610f2b573d6000803e3d6000fd5b50505050610f398733612217565b604080518781526020810187905233916001600160a01b038a16917fa702ae6024e8b4c2b0eb162b1453dacb93cf6922f5a2d7236faed898c21148f8910160405180910390a350604051632ed56dff60e21b81526001600160a01b03838116600483015282811660248301528594507f0000000000000000000000000000000000000000000000000000000000000000169063bb55b7fc90604401600060405180830381600087803b158015610fee57600080fd5b505af1158015611002573d6000803e3d6000fd5b5050600160005550929695505050505050565b600260005414156110685760405162461bcd60e51b815260206004820152601f60248201527f5265656e7472616e637947756172643a207265656e7472616e742063616c6c0060448201526064016101a6565b600260009081556110798383610830565b9050611086838383611b67565b6110d25760405162461bcd60e51b815260206004820152601c60248201527f556e69742050726f746f636f6c3a20534146455f504f534954494f4e0000000060448201526064016101a6565b6040517f15a04ea20000000000000000000000000000000000000000000000000000000081526001600160a01b03848116600483015260009161119b91620186a0916105d4917f000000000000000000000000000000000000000000000000000000000000000016906315a04ea29060240160206040518083038186803b15801561115c57600080fd5b505afa158015611170573d6000803e3d6000fd5b505050506040513d601f19601f8201168201806040525081019061119491906124f1565b8590611acd565b905060006111b1600160701b6105d48585612407565b6040517f742a326e0000000000000000000000000000000000000000000000000000000081526001600160a01b0387811660048301528681166024830152604482018390529192507f00000000000000000000000000000000000000000000000000000000000000009091169063742a326e90606401600060405180830381600087803b15801561124157600080fd5b505af1158015611255573d6000803e3d6000fd5b50506040516001600160a01b038088169350881691507f5b79a897d30813a62a1f95ba180d3320d3701d96605708b81105e00719a069e490600090a350506001600055505050565b600260005414156112f05760405162461bcd60e51b815260206004820152601f60248201527f5265656e7472616e637947756172643a207265656e7472616e742063616c6c0060448201526064016101a6565b600260005582338215158061130457508315155b6113505760405162461bcd60e51b815260206004820152601960248201527f556e69742050726f746f636f6c3a205553454c4553535f54580000000000000060448201526064016101a6565b6012856001600160a01b031663313ce5676040518163ffffffff1660e01b815260040160206040518083038186803b15801561138b57600080fd5b505afa15801561139f573d6000803e3d6000fd5b505050506040513d601f19601f820116820180604052508101906113c3919061252a565b60ff1611156114225760405162461bcd60e51b815260206004820152602560248201527f556e69742050726f746f636f6c3a204e4f545f535550504f525445445f444543604482015264494d414c5360d81b60648201526084016101a6565b826114b45760405163770c1acf60e11b81526001600160a01b038681166004830152336024830152604482018690527f0000000000000000000000000000000000000000000000000000000000000000169063ee18359e90606401600060405180830381600087803b15801561149757600080fd5b505af11580156114ab573d6000803e3d6000fd5b50505050611759565b604051634ac1c33d60e01b81526001600160a01b0386811660048301523360248301526000917f000000000000000000000000000000000000000000000000000000000000000090911690634ac1c33d9060440160206040518083038186803b15801561152057600080fd5b505afa158015611534573d6000803e3d6000fd5b505050506040513d601f19601f8201168201806040525081019061155891906124f1565b15159050806115fc576040517fe0ede1cd0000000000000000000000000000000000000000000000000000000081526001600160a01b0387811660048301523360248301527f0000000000000000000000000000000000000000000000000000000000000000169063e0ede1cd90604401600060405180830381600087803b1580156115e357600080fd5b505af11580156115f7573d6000803e3d6000fd5b505050505b841561168b5760405163770c1acf60e11b81526001600160a01b038781166004830152336024830152604482018790527f0000000000000000000000000000000000000000000000000000000000000000169063ee18359e90606401600060405180830381600087803b15801561167257600080fd5b505af1158015611686573d6000803e3d6000fd5b505050505b6040517f5224372c0000000000000000000000000000000000000000000000000000000081526001600160a01b038781166004830152336024830152604482018690527f00000000000000000000000000000000000000000000000000000000000000001690635224372c90606401602060405180830381600087803b15801561171457600080fd5b505af1158015611728573d6000803e3d6000fd5b505050506040513d601f19601f8201168201806040525081019061174c91906124f1565b506117578633612217565b505b604080518581526020810185905233916001600160a01b038816917f6423b6056e64b3b29cb2d342362b47c26fa8d6877da27ea152354060df19b9bc910160405180910390a3604051632ed56dff60e21b81526001600160a01b03838116600483015282811660248301527f0000000000000000000000000000000000000000000000000000000000000000169063bb55b7fc90604401600060405180830381600087803b15801561180a57600080fd5b505af115801561181e573d6000803e3d6000fd5b5050600160005550505050505050565b600061185b7f00000000000000000000000000000000000000000000000000000000000000008484610bdb565b6040517f23b872dd000000000000000000000000000000000000000000000000000000008152336004820152306024820152604481018590529092507f00000000000000000000000000000000000000000000000000000000000000006001600160a01b0316906323b872dd90606401602060405180830381600087803b1580156118e557600080fd5b505af11580156118f9573d6000803e3d6000fd5b505050506040513d601f19601f8201168201806040525081019061191d91906124b9565b61198f5760405162461bcd60e51b815260206004820152602860248201527f556e69742050726f746f636f6c3a20574554485f5452414e534645525f46524f60448201527f4d5f4641494c454400000000000000000000000000000000000000000000000060648201526084016101a6565b6040517f2e1a7d4d000000000000000000000000000000000000000000000000000000008152600481018490527f00000000000000000000000000000000000000000000000000000000000000006001600160a01b031690632e1a7d4d90602401600060405180830381600087803b158015611a0a57600080fd5b505af1158015611a1e573d6000803e3d6000fd5b50506040516000925033915085908381818185875af1925050503d8060008114611a64576040519150601f19603f3d011682016040523d82523d6000602084013e611a69565b606091505b5050905080611ac55760405162461bcd60e51b815260206004820152602260248201527f556e69742050726f746f636f6c3a204554485f5452414e534645525f4641494c604482015261115160f21b60648201526084016101a6565b509092915050565b600082611adc57506000610808565b611ae68284612671565b905081611af38483612563565b1461080857634e487b7160e01b600052600160045260246000fd5b600081611b5d5760405162461bcd60e51b815260206004820152601a60248201527f536166654d6174683a206469766973696f6e206279207a65726f00000000000060448201526064016101a6565b6108c78284612563565b60405163d6446d4360e01b81526001600160a01b038481166004830152838116602483015260009182917f0000000000000000000000000000000000000000000000000000000000000000169063d6446d439060440160206040518083038186803b158015611bd557600080fd5b505afa158015611be9573d6000803e3d6000fd5b505050506040513d601f19601f82011682018060405250810190611c0d91906124f1565b905080611c1e5760009150506108c7565b604051631dffddf160e11b81526001600160a01b0386811660048301527f00000000000000000000000000000000000000000000000000000000000000001690633bffbbe29060240160206040518083038186803b158015611c7f57600080fd5b505afa158015611c93573d6000803e3d6000fd5b505050506040513d601f19601f82011682018060405250810190611cb791906124f1565b611cce846105d4600160701b6105ce866064611acd565b101595945050505050565b6040517f88ad7a610000000000000000000000000000000000000000000000000000000081526001600160a01b038481166004830152838116602483015260009182916301e13380917f0000000000000000000000000000000000000000000000000000000000000000909116906388ad7a619060440160206040518083038186803b158015611d6857600080fd5b505afa158015611d7c573d6000803e3d6000fd5b505050506040513d601f19601f82011682018060405250810190611da091906124f1565b611daa9042612690565b6040517fd4b93dbe0000000000000000000000000000000000000000000000000000000081526001600160a01b03888116600483015287811660248301527f0000000000000000000000000000000000000000000000000000000000000000169063d4b93dbe9060440160206040518083038186803b158015611e2c57600080fd5b505afa158015611e40573d6000803e3d6000fd5b505050506040513d601f19601f82011682018060405250810190611e6491906124f1565b611e6e9190612671565b611e789190612563565b9050611e8781620186a061254b565b611e94620186a085612671565b610b989190612563565b6040517f7ca87cb60000000000000000000000000000000000000000000000000000000081526001600160a01b0384811660048301528381166024830152604482018390526000917f000000000000000000000000000000000000000000000000000000000000000090911690637ca87cb69060640160206040518083038186803b158015611f2c57600080fd5b505afa158015611f40573d6000803e3d6000fd5b505050506040513d601f19601f82011682018060405250810190611f6491906124f1565b90507f00000000000000000000000000000000000000000000000000000000000000006001600160a01b0316633d1aa9637f00000000000000000000000000000000000000000000000000000000000000006001600160a01b03166374e6076c6040518163ffffffff1660e01b815260040160206040518083038186803b158015611fee57600080fd5b505afa158015612002573d6000803e3d6000fd5b505050506040513d601f19601f820116820180604052508101906120269190612431565b6040517fffffffff0000000000000000000000000000000000000000000000000000000060e084901b1681526001600160a01b039182166004820152908616602482015260448101849052606401600060405180830381600087803b15801561208e57600080fd5b505af11580156120a2573d6000803e3d6000fd5b50506040517f1da649cf0000000000000000000000000000000000000000000000000000000081526001600160a01b038781166004830152868116602483015260448201869052600093507f0000000000000000000000000000000000000000000000000000000000000000169150631da649cf90606401602060405180830381600087803b15801561213457600080fd5b505af1158015612148573d6000803e3d6000fd5b505050506040513d601f19601f8201168201806040525081019061216c91906124f1565b905080612210576040517f62b40f9f0000000000000000000000000000000000000000000000000000000081526001600160a01b03868116600483015285811660248301527f000000000000000000000000000000000000000000000000000000000000000016906362b40f9f90604401600060405180830381600087803b1580156121f757600080fd5b505af115801561220b573d6000803e3d6000fd5b505050505b5050505050565b60006122238383610830565b6040517fb85c44960000000000000000000000000000000000000000000000000000000081526001600160a01b038581166004830152919250600091606491600160701b917f0000000000000000000000000000000000000000000000000000000000000000169063b85c44969060240160206040518083038186803b1580156122ac57600080fd5b505afa1580156122c0573d6000803e3d6000fd5b505050506040513d601f19601f820116820180604052508101906122e491906124f1565b6122ee9085612671565b6122f89190612563565b6123029190612563565b60405163d6446d4360e01b81526001600160a01b038681166004830152858116602483015291925082917f0000000000000000000000000000000000000000000000000000000000000000169063d6446d439060440160206040518083038186803b15801561237057600080fd5b505afa158015612384573d6000803e3d6000fd5b505050506040513d601f19601f820116820180604052508101906123a891906124f1565b11156124015760405162461bcd60e51b815260206004820152602260248201527f556e69742050726f746f636f6c3a20554e444552434f4c4c41544552414c495a604482015261115160f21b60648201526084016101a6565b50505050565b60008282111561242757634e487b7160e01b600052600160045260246000fd5b6108c78284612690565b600060208284031215612442578081fd5b81516108c7816126e0565b6000806040838503121561245f578081fd5b823561246a816126e0565b9150602083013561247a816126e0565b809150509250929050565b600080600060608486031215612499578081fd5b83356124a4816126e0565b95602085013595506040909401359392505050565b6000602082840312156124ca578081fd5b815180151581146108c7578182fd5b6000602082840312156124ea578081fd5b5035919050565b600060208284031215612502578081fd5b5051919050565b6000806040838503121561251b578182fd5b50508035926020909101359150565b60006020828403121561253b578081fd5b815160ff811681146108c7578182fd5b6000821982111561255e5761255e6126ca565b500190565b60008261257e57634e487b7160e01b81526012600452602481fd5b500490565b600181815b808511156125be5781600019048211156125a4576125a46126ca565b808516156125b157918102915b93841c9390800290612588565b509250929050565b60006108c760ff8416836000826125df57506001610808565b816125ec57506000610808565b8160018114612602576002811461260c57612628565b6001915050610808565b60ff84111561261d5761261d6126ca565b50506001821b610808565b5060208310610133831016604e8410600b841016171561264b575081810a610808565b6126558383612583565b8060001904821115612669576126696126ca565b029392505050565b600081600019048311821515161561268b5761268b6126ca565b500290565b6000828210156126a2576126a26126ca565b500390565b600060ff821660ff8416808210156126c1576126c16126ca565b90039392505050565b634e487b7160e01b600052601160045260246000fd5b6001600160a01b0381168114610a9e57600080fdfea26469706673582212201320f624079ad1545f12d10dc8a9b16af6d6c2e77967554cfca76f67b23ab53b64736f6c63430008040033",
  "linkReferences": {},
  "deployedLinkReferences": {}
}