{
  "_format": "hh-sol-artifact-1",
  "contractName": "AssetParametersViewer",
  "sourceName": "contracts/original-unit-contracts/helpers/AssetParametersViewer.sol",
  "abi": [
    {
      "inputs": [
        {
          "internalType": "address",
          "name": "_vaultManagerParameters",
          "type": "address"
        }
      ],
      "stateMutability": "nonpayable",
      "type": "constructor"
    },
    {
      "inputs": [
        {
          "internalType": "address",
          "name": "asset",
          "type": "address"
        },
        {
          "internalType": "uint256",
          "name": "maxOracleTypesToSearch",
          "type": "uint256"
        }
      ],
      "name": "getAssetParameters",
      "outputs": [
        {
          "components": [
            {
              "internalType": "address",
              "name": "asset",
              "type": "address"
            },
            {
              "internalType": "uint256",
              "name": "stabilityFee",
              "type": "uint256"
            },
            {
              "internalType": "uint256",
              "name": "liquidationFee",
              "type": "uint256"
            },
            {
              "internalType": "uint256",
              "name": "initialCollateralRatio",
              "type": "uint256"
            },
            {
              "internalType": "uint256",
              "name": "liquidationRatio",
              "type": "uint256"
            },
            {
              "internalType": "uint256",
              "name": "liquidationDiscount",
              "type": "uint256"
            },
            {
              "internalType": "uint256",
              "name": "devaluationPeriod",
              "type": "uint256"
            },
            {
              "internalType": "uint256",
              "name": "tokenDebtLimit",
              "type": "uint256"
            },
            {
              "internalType": "uint256[]",
              "name": "oracles",
              "type": "uint256[]"
            },
            {
              "internalType": "uint256",
              "name": "minColPercent",
              "type": "uint256"
            },
            {
              "internalType": "uint256",
              "name": "maxColPercent",
              "type": "uint256"
            }
          ],
          "internalType": "struct AssetParametersViewer.AssetParameters",
          "name": "r",
          "type": "tuple"
        }
      ],
      "stateMutability": "view",
      "type": "function"
    },
    {
      "inputs": [
        {
          "internalType": "address[]",
          "name": "assets",
          "type": "address[]"
        },
        {
          "internalType": "uint256",
          "name": "maxOracleTypesToSearch",
          "type": "uint256"
        }
      ],
      "name": "getMultiAssetParameters",
      "outputs": [
        {
          "components": [
            {
              "internalType": "address",
              "name": "asset",
              "type": "address"
            },
            {
              "internalType": "uint256",
              "name": "stabilityFee",
              "type": "uint256"
            },
            {
              "internalType": "uint256",
              "name": "liquidationFee",
              "type": "uint256"
            },
            {
              "internalType": "uint256",
              "name": "initialCollateralRatio",
              "type": "uint256"
            },
            {
              "internalType": "uint256",
              "name": "liquidationRatio",
              "type": "uint256"
            },
            {
              "internalType": "uint256",
              "name": "liquidationDiscount",
              "type": "uint256"
            },
            {
              "internalType": "uint256",
              "name": "devaluationPeriod",
              "type": "uint256"
            },
            {
              "internalType": "uint256",
              "name": "tokenDebtLimit",
              "type": "uint256"
            },
            {
              "internalType": "uint256[]",
              "name": "oracles",
              "type": "uint256[]"
            },
            {
              "internalType": "uint256",
              "name": "minColPercent",
              "type": "uint256"
            },
            {
              "internalType": "uint256",
              "name": "maxColPercent",
              "type": "uint256"
            }
          ],
          "internalType": "struct AssetParametersViewer.AssetParameters[]",
          "name": "r",
          "type": "tuple[]"
        }
      ],
      "stateMutability": "view",
      "type": "function"
    },
    {
      "inputs": [],
      "name": "vaultManagerParameters",
      "outputs": [
        {
          "internalType": "contract IVaultManagerParametersViewer",
          "name": "",
          "type": "address"
        }
      ],
      "stateMutability": "view",
      "type": "function"
    },
    {
      "inputs": [],
      "name": "vaultParameters",
      "outputs": [
        {
          "internalType": "contract IVaultParametersViewer",
          "name": "",
          "type": "address"
        }
      ],
      "stateMutability": "view",
      "type": "function"
    }
  ],
  "bytecode": "0x60c060405234801561001057600080fd5b50604051610f98380380610f9883398101604081905261002f916100da565b6000819050806001600160a01b031660a0816001600160a01b031660601b81525050806001600160a01b031663aca345ee6040518163ffffffff1660e01b815260040160206040518083038186803b15801561008a57600080fd5b505afa15801561009e573d6000803e3d6000fd5b505050506040513d601f19601f820116820180604052508101906100c291906100da565b60601b6001600160601b031916608052506101089050565b6000602082840312156100eb578081fd5b81516001600160a01b0381168114610101578182fd5b9392505050565b60805160601c60a05160601c610e216101776000396000818160be015281816104680152818161051f015281816105d60152818161068d015281816107fb01526108b3015260008181607f015281816102f6015281816103af0152818161074401526109d30152610e216000f3fe608060405234801561001057600080fd5b506004361061004c5760003560e01c806376359f4c14610051578063aca345ee1461007a578063b7ebdc0c146100b9578063d904d44c146100e0575b600080fd5b61006461005f366004610bd5565b610100565b6040516100719190610d50565b60405180910390f35b6100a17f000000000000000000000000000000000000000000000000000000000000000081565b6040516001600160a01b039091168152602001610071565b6100a17f000000000000000000000000000000000000000000000000000000000000000081565b6100f36100ee366004610bac565b610252565b6040516100719190610db1565b6060828067ffffffffffffffff81111561012a57634e487b7160e01b600052604160045260246000fd5b6040519080825280602002602001820160405280156101c157816020015b6101ae60405180610160016040528060006001600160a01b03168152602001600081526020016000815260200160008152602001600081526020016000815260200160008152602001600081526020016060815260200160008152602001600081525090565b8152602001906001900390816101485790505b50915060005b818110156102495761020d8686838181106101f257634e487b7160e01b600052603260045260246000fd5b90506020020160208101906102079190610b8b565b85610252565b83828151811061022d57634e487b7160e01b600052603260045260246000fd5b60200260200101819052508061024290610dc4565b90506101c7565b50509392505050565b6102b860405180610160016040528060006001600160a01b03168152602001600081526020016000815260200160008152602001600081526020016000815260200160008152602001600081526020016060815260200160008152602001600081525090565b6001600160a01b038381168083526040517f997a257200000000000000000000000000000000000000000000000000000000815260048101919091527f00000000000000000000000000000000000000000000000000000000000000009091169063997a25729060240160206040518083038186803b15801561033a57600080fd5b505afa15801561034e573d6000803e3d6000fd5b505050506040513d601f19601f820116820180604052508101906103729190610c6b565b60208201526040517fc8023af40000000000000000000000000000000000000000000000000000000081526001600160a01b0384811660048301527f0000000000000000000000000000000000000000000000000000000000000000169063c8023af49060240160206040518083038186803b1580156103f157600080fd5b505afa158015610405573d6000803e3d6000fd5b505050506040513d601f19601f820116820180604052508101906104299190610c6b565b604082810191909152517fb85c44960000000000000000000000000000000000000000000000000000000081526001600160a01b0384811660048301527f0000000000000000000000000000000000000000000000000000000000000000169063b85c44969060240160206040518083038186803b1580156104aa57600080fd5b505afa1580156104be573d6000803e3d6000fd5b505050506040513d601f19601f820116820180604052508101906104e29190610c6b565b60608201526040517f3bffbbe20000000000000000000000000000000000000000000000000000000081526001600160a01b0384811660048301527f00000000000000000000000000000000000000000000000000000000000000001690633bffbbe29060240160206040518083038186803b15801561056157600080fd5b505afa158015610575573d6000803e3d6000fd5b505050506040513d601f19601f820116820180604052508101906105999190610c6b565b60808201526040517f15a04ea20000000000000000000000000000000000000000000000000000000081526001600160a01b0384811660048301527f000000000000000000000000000000000000000000000000000000000000000016906315a04ea29060240160206040518083038186803b15801561061857600080fd5b505afa15801561062c573d6000803e3d6000fd5b505050506040513d601f19601f820116820180604052508101906106509190610c6b565b60a08201526040517f0aaddb500000000000000000000000000000000000000000000000000000000081526001600160a01b0384811660048301527f00000000000000000000000000000000000000000000000000000000000000001690630aaddb509060240160206040518083038186803b1580156106cf57600080fd5b505afa1580156106e3573d6000803e3d6000fd5b505050506040513d601f19601f820116820180604052508101906107079190610c6b565b60c08201526040517ff2e323ba0000000000000000000000000000000000000000000000000000000081526001600160a01b0384811660048301527f0000000000000000000000000000000000000000000000000000000000000000169063f2e323ba9060240160206040518083038186803b15801561078657600080fd5b505afa15801561079a573d6000803e3d6000fd5b505050506040513d601f19601f820116820180604052508101906107be9190610c6b565b60e08201526040517f84b381d40000000000000000000000000000000000000000000000000000000081526001600160a01b0384811660048301527f000000000000000000000000000000000000000000000000000000000000000016906384b381d49060240160206040518083038186803b15801561083d57600080fd5b505afa158015610851573d6000803e3d6000fd5b505050506040513d601f19601f820116820180604052508101906108759190610c6b565b6101208201526040517f35e925390000000000000000000000000000000000000000000000000000000081526001600160a01b0384811660048301527f000000000000000000000000000000000000000000000000000000000000000016906335e925399060240160206040518083038186803b1580156108f557600080fd5b505afa158015610909573d6000803e3d6000fd5b505050506040513d601f19601f8201168201806040525081019061092d9190610c6b565b61014082015260008267ffffffffffffffff81111561095c57634e487b7160e01b600052604160045260246000fd5b604051908082528060200260200182016040528015610985578160200160208202803683370190505b5090506000805b84811015610a9b576040517ffec0feb3000000000000000000000000000000000000000000000000000000008152600481018290526001600160a01b0387811660248301527f0000000000000000000000000000000000000000000000000000000000000000169063fec0feb39060440160206040518083038186803b158015610a1557600080fd5b505afa158015610a29573d6000803e3d6000fd5b505050506040513d601f19601f82011682018060405250810190610a4d9190610c4b565b15610a8b57808383610a5e81610dc4565b945081518110610a7e57634e487b7160e01b600052603260045260246000fd5b6020026020010181815250505b610a9481610dc4565b905061098c565b508067ffffffffffffffff811115610ac357634e487b7160e01b600052604160045260246000fd5b604051908082528060200260200182016040528015610aec578160200160208202803683370190505b5061010084015260005b81811015610b6657828181518110610b1e57634e487b7160e01b600052603260045260246000fd5b60200260200101518461010001518281518110610b4b57634e487b7160e01b600052603260045260246000fd5b6020908102919091010152610b5f81610dc4565b9050610af6565b50505092915050565b80356001600160a01b0381168114610b8657600080fd5b919050565b600060208284031215610b9c578081fd5b610ba582610b6f565b9392505050565b60008060408385031215610bbe578081fd5b610bc783610b6f565b946020939093013593505050565b600080600060408486031215610be9578081fd5b833567ffffffffffffffff80821115610c00578283fd5b818601915086601f830112610c13578283fd5b813581811115610c21578384fd5b8760208260051b8501011115610c35578384fd5b6020928301989097509590910135949350505050565b600060208284031215610c5c578081fd5b81518015158114610ba5578182fd5b600060208284031215610c7c578081fd5b5051919050565b6000815180845260208085019450808401835b83811015610cb257815187529582019590820190600101610c96565b509495945050505050565b80516001600160a01b0316825260006101606020830151602085015260408301516040850152606083015160608501526080830151608085015260a083015160a085015260c083015160c085015260e083015160e0850152610100808401518282870152610d2d83870182610c83565b610120868101519088015261014095860151959096019490945250929392505050565b6000602080830181845280855180835260408601915060408160051b8701019250838701855b82811015610da457603f19888603018452610d92858351610cbd565b94509285019290850190600101610d76565b5092979650505050505050565b602081526000610ba56020830184610cbd565b6000600019821415610de457634e487b7160e01b81526011600452602481fd5b506001019056fea264697066735822122064c4d60b01ed21f799757286866cd320b6ae8890b841da88488ee41e897efec164736f6c63430008040033",
  "linkReferences": {},
  "deployedLinkReferences": {}
}