{
  "_format": "hh-sol-artifact-1",
  "contractName": "MockAccessControl",
  "sourceName": "contracts/mocks/MockAccessControl.sol",
  "abi": [
    {
      "inputs": [],
      "stateMutability": "nonpayable",
      "type": "constructor"
    },
    {
      "anonymous": false,
      "inputs": [
        {
          "indexed": true,
          "internalType": "bytes32",
          "name": "role",
          "type": "bytes32"
        },
        {
          "indexed": true,
          "internalType": "bytes32",
          "name": "previousAdminRole",
          "type": "bytes32"
        },
        {
          "indexed": true,
          "internalType": "bytes32",
          "name": "newAdminRole",
          "type": "bytes32"
        }
      ],
      "name": "RoleAdminChanged",
      "type": "event"
    },
    {
      "anonymous": false,
      "inputs": [
        {
          "indexed": true,
          "internalType": "bytes32",
          "name": "role",
          "type": "bytes32"
        },
        {
          "indexed": true,
          "internalType": "address",
          "name": "account",
          "type": "address"
        },
        {
          "indexed": true,
          "internalType": "address",
          "name": "sender",
          "type": "address"
        }
      ],
      "name": "RoleGranted",
      "type": "event"
    },
    {
      "anonymous": false,
      "inputs": [
        {
          "indexed": true,
          "internalType": "bytes32",
          "name": "role",
          "type": "bytes32"
        },
        {
          "indexed": true,
          "internalType": "address",
          "name": "account",
          "type": "address"
        },
        {
          "indexed": true,
          "internalType": "address",
          "name": "sender",
          "type": "address"
        }
      ],
      "name": "RoleRevoked",
      "type": "event"
    },
    {
      "inputs": [],
      "name": "ACCESS_CONTROL_SINGLETON",
      "outputs": [
        {
          "internalType": "contract ISuAccessControl",
          "name": "",
          "type": "address"
        }
      ],
      "stateMutability": "view",
      "type": "function"
    },
    {
      "inputs": [],
      "name": "DEFAULT_ADMIN_ROLE",
      "outputs": [
        {
          "internalType": "bytes32",
          "name": "",
          "type": "bytes32"
        }
      ],
      "stateMutability": "view",
      "type": "function"
    },
    {
      "inputs": [],
      "name": "LIQUIDATION_ACCESS_ROLE",
      "outputs": [
        {
          "internalType": "bytes32",
          "name": "",
          "type": "bytes32"
        }
      ],
      "stateMutability": "view",
      "type": "function"
    },
    {
      "inputs": [],
      "name": "MINTER_ROLE",
      "outputs": [
        {
          "internalType": "bytes32",
          "name": "",
          "type": "bytes32"
        }
      ],
      "stateMutability": "view",
      "type": "function"
    },
    {
      "inputs": [],
      "name": "VAULT_ACCESS_ROLE",
      "outputs": [
        {
          "internalType": "bytes32",
          "name": "",
          "type": "bytes32"
        }
      ],
      "stateMutability": "view",
      "type": "function"
    },
    {
      "inputs": [
        {
          "internalType": "bytes32",
          "name": "role",
          "type": "bytes32"
        }
      ],
      "name": "getRoleAdmin",
      "outputs": [
        {
          "internalType": "bytes32",
          "name": "",
          "type": "bytes32"
        }
      ],
      "stateMutability": "view",
      "type": "function"
    },
    {
      "inputs": [
        {
          "internalType": "bytes32",
          "name": "role",
          "type": "bytes32"
        },
        {
          "internalType": "address",
          "name": "account",
          "type": "address"
        }
      ],
      "name": "grantRole",
      "outputs": [],
      "stateMutability": "nonpayable",
      "type": "function"
    },
    {
      "inputs": [
        {
          "internalType": "bytes32",
          "name": "role",
          "type": "bytes32"
        },
        {
          "internalType": "address",
          "name": "account",
          "type": "address"
        }
      ],
      "name": "hasRole",
      "outputs": [
        {
          "internalType": "bool",
          "name": "",
          "type": "bool"
        }
      ],
      "stateMutability": "view",
      "type": "function"
    },
    {
      "inputs": [
        {
          "internalType": "bytes32",
          "name": "role",
          "type": "bytes32"
        },
        {
          "internalType": "address",
          "name": "account",
          "type": "address"
        }
      ],
      "name": "renounceRole",
      "outputs": [],
      "stateMutability": "nonpayable",
      "type": "function"
    },
    {
      "inputs": [
        {
          "internalType": "bytes32",
          "name": "role",
          "type": "bytes32"
        },
        {
          "internalType": "address",
          "name": "account",
          "type": "address"
        }
      ],
      "name": "revokeRole",
      "outputs": [],
      "stateMutability": "nonpayable",
      "type": "function"
    },
    {
      "inputs": [
        {
          "internalType": "bytes4",
          "name": "interfaceId",
          "type": "bytes4"
        }
      ],
      "name": "supportsInterface",
      "outputs": [
        {
          "internalType": "bool",
          "name": "",
          "type": "bool"
        }
      ],
      "stateMutability": "view",
      "type": "function"
    },
    {
      "inputs": [
        {
          "internalType": "address",
          "name": "newOwner",
          "type": "address"
        }
      ],
      "name": "transferOwnership",
      "outputs": [],
      "stateMutability": "nonpayable",
      "type": "function"
    }
  ],
  "bytecode": "0x60a060405234801561001057600080fd5b503060601b608052610023600033610028565b6100d4565b6100328282610036565b5050565b6000828152602081815260408083206001600160a01b038516845290915290205460ff16610032576000828152602081815260408083206001600160a01b03851684529091529020805460ff191660011790556100903390565b6001600160a01b0316816001600160a01b0316837f2f8788117e7eff1d82e926ec794901d17c78024a50270940304540a733656f0d60405160405180910390a45050565b60805160601c610c176100f260003960006101060152610c176000f3fe608060405234801561001057600080fd5b50600436106100d45760003560e01c806391d1485411610081578063d547741f1161005b578063d547741f14610226578063dc97e84e14610239578063f2fde38b1461026057600080fd5b806391d14854146101c0578063a217fddf146101f7578063d5391393146101ff57600080fd5b8063248a9ca3116100b2578063248a9ca3146101755780632f2ff15d1461019857806336568abe146101ad57600080fd5b806301ffc9a7146100d957806303ee9f221461010157806314c376dc14610140575b600080fd5b6100ec6100e7366004610a59565b610273565b60405190151581526020015b60405180910390f35b6101287f000000000000000000000000000000000000000000000000000000000000000081565b6040516001600160a01b0390911681526020016100f8565b6101677fe965846df3dd5b1dfa65f58e31477079e90140e0908b6dd31b5aead5a57cf36581565b6040519081526020016100f8565b610167610183366004610a16565b60009081526020819052604090206001015490565b6101ab6101a6366004610a2e565b61030c565b005b6101ab6101bb366004610a2e565b610337565b6100ec6101ce366004610a2e565b6000918252602082815260408084206001600160a01b0393909316845291905290205460ff1690565b610167600081565b6101677f9f2df0fed2c77648de5860a4cc508cd0818c85b8b8a1ab4ceeef8d981c8956a681565b6101ab610234366004610a2e565b6103c8565b6101677f9a9aef7c1247d5fc769b0185c052913e39673da29a880317dfd20ebf86f26a4981565b6101ab61026e3660046109fc565b6103ee565b60007fffffffff0000000000000000000000000000000000000000000000000000000082167f7965db0b00000000000000000000000000000000000000000000000000000000148061030657507f01ffc9a7000000000000000000000000000000000000000000000000000000007fffffffff000000000000000000000000000000000000000000000000000000008316145b92915050565b6000828152602081905260409020600101546103288133610617565b6103328383610695565b505050565b6001600160a01b03811633146103ba5760405162461bcd60e51b815260206004820152602f60248201527f416363657373436f6e74726f6c3a2063616e206f6e6c792072656e6f756e636560448201527f20726f6c657320666f722073656c66000000000000000000000000000000000060648201526084015b60405180910390fd5b6103c48282610733565b5050565b6000828152602081905260409020600101546103e48133610617565b6103328383610733565b6001600160a01b03811661046a5760405162461bcd60e51b815260206004820152602660248201527f4f776e61626c653a206e6577206f776e657220697320746865207a65726f206160448201527f646472657373000000000000000000000000000000000000000000000000000060648201526084016103b1565b3360009081527fad3228b676f7d3cd4284a5443f17f1962b36e491b30a40b2405849e597ba5fb5602052604090205460ff166104e85760405162461bcd60e51b815260206004820181905260248201527f4f776e61626c653a2063616c6c6572206973206e6f7420746865206f776e657260448201526064016103b1565b3360009081527f0781d7cac9c378efa22a7481e4d4d29704a680ddf504b3bc50b517700ee11e6c602052604090205460ff1615610573576105497f9f2df0fed2c77648de5860a4cc508cd0818c85b8b8a1ab4ceeef8d981c8956a68261030c565b6105737f9f2df0fed2c77648de5860a4cc508cd0818c85b8b8a1ab4ceeef8d981c8956a6336103c8565b3360009081527f71e4c91a3b9432eb252f96cfae58ca0ccec828b45236b2d1255b0ae198a1cfb5602052604090205460ff16156105fe576105d47fe965846df3dd5b1dfa65f58e31477079e90140e0908b6dd31b5aead5a57cf3658261030c565b6105fe7fe965846df3dd5b1dfa65f58e31477079e90140e0908b6dd31b5aead5a57cf365336103c8565b61060960008261030c565b6106146000336103c8565b50565b6000828152602081815260408083206001600160a01b038516845290915290205460ff166103c457610653816001600160a01b031660146107b2565b61065e8360206107b2565b60405160200161066f929190610a99565b60408051601f198184030181529082905262461bcd60e51b82526103b191600401610b1a565b6000828152602081815260408083206001600160a01b038516845290915290205460ff166103c4576000828152602081815260408083206001600160a01b03851684529091529020805460ff191660011790556106ef3390565b6001600160a01b0316816001600160a01b0316837f2f8788117e7eff1d82e926ec794901d17c78024a50270940304540a733656f0d60405160405180910390a45050565b6000828152602081815260408083206001600160a01b038516845290915290205460ff16156103c4576000828152602081815260408083206001600160a01b0385168085529252808320805460ff1916905551339285917ff6391f5c32d9c69d2a47ea670b442974b53935d1edc7fd64eb21e047a839171b9190a45050565b606060006107c1836002610b65565b6107cc906002610b4d565b67ffffffffffffffff8111156107f257634e487b7160e01b600052604160045260246000fd5b6040519080825280601f01601f19166020018201604052801561081c576020820181803683370190505b5090507f30000000000000000000000000000000000000000000000000000000000000008160008151811061086157634e487b7160e01b600052603260045260246000fd5b60200101906001600160f81b031916908160001a9053507f7800000000000000000000000000000000000000000000000000000000000000816001815181106108ba57634e487b7160e01b600052603260045260246000fd5b60200101906001600160f81b031916908160001a90535060006108de846002610b65565b6108e9906001610b4d565b90505b600181111561098a577f303132333435363738396162636465660000000000000000000000000000000085600f166010811061093857634e487b7160e01b600052603260045260246000fd5b1a60f81b82828151811061095c57634e487b7160e01b600052603260045260246000fd5b60200101906001600160f81b031916908160001a90535060049490941c9361098381610bb4565b90506108ec565b5083156109d95760405162461bcd60e51b815260206004820181905260248201527f537472696e67733a20686578206c656e67746820696e73756666696369656e7460448201526064016103b1565b9392505050565b80356001600160a01b03811681146109f757600080fd5b919050565b600060208284031215610a0d578081fd5b6109d9826109e0565b600060208284031215610a27578081fd5b5035919050565b60008060408385031215610a40578081fd5b82359150610a50602084016109e0565b90509250929050565b600060208284031215610a6a578081fd5b81357fffffffff00000000000000000000000000000000000000000000000000000000811681146109d9578182fd5b7f416363657373436f6e74726f6c3a206163636f756e7420000000000000000000815260008351610ad1816017850160208801610b84565b7f206973206d697373696e6720726f6c65200000000000000000000000000000006017918401918201528351610b0e816028840160208801610b84565b01602801949350505050565b6020815260008251806020840152610b39816040850160208701610b84565b601f01601f19169190910160400192915050565b60008219821115610b6057610b60610bcb565b500190565b6000816000190483118215151615610b7f57610b7f610bcb565b500290565b60005b83811015610b9f578181015183820152602001610b87565b83811115610bae576000848401525b50505050565b600081610bc357610bc3610bcb565b506000190190565b634e487b7160e01b600052601160045260246000fdfea264697066735822122085264e3dc1e870f8ad11c87703a9f27950709fbb4e0b7ffe45bd29e00584a3ae64736f6c63430008040033",
  "linkReferences": {},
  "deployedLinkReferences": {}
}