{
  "_format": "hh-sol-artifact-1",
  "contractName": "SuManager",
  "sourceName": "contracts/lending/SuManager.sol",
  "abi": [
    {
      "inputs": [
        {
          "internalType": "address",
          "name": "_vault",
          "type": "address"
        },
        {
          "internalType": "address",
          "name": "_suOracle",
          "type": "address"
        },
        {
          "internalType": "address",
          "name": "_cdpRegistry",
          "type": "address"
        }
      ],
      "stateMutability": "nonpayable",
      "type": "constructor"
    },
    {
      "anonymous": false,
      "inputs": [
        {
          "indexed": true,
          "internalType": "address",
          "name": "asset",
          "type": "address"
        },
        {
          "indexed": true,
          "internalType": "address",
          "name": "owner",
          "type": "address"
        },
        {
          "indexed": true,
          "internalType": "address",
          "name": "buyer",
          "type": "address"
        },
        {
          "indexed": false,
          "internalType": "uint256",
          "name": "amount",
          "type": "uint256"
        },
        {
          "indexed": false,
          "internalType": "uint256",
          "name": "price",
          "type": "uint256"
        }
      ],
      "name": "Buyout",
      "type": "event"
    },
    {
      "anonymous": false,
      "inputs": [
        {
          "indexed": true,
          "internalType": "address",
          "name": "asset",
          "type": "address"
        },
        {
          "indexed": true,
          "internalType": "address",
          "name": "owner",
          "type": "address"
        },
        {
          "indexed": false,
          "internalType": "uint256",
          "name": "main",
          "type": "uint256"
        },
        {
          "indexed": false,
          "internalType": "uint256",
          "name": "stablecoin",
          "type": "uint256"
        }
      ],
      "name": "Destroyed",
      "type": "event"
    },
    {
      "anonymous": false,
      "inputs": [
        {
          "indexed": true,
          "internalType": "address",
          "name": "asset",
          "type": "address"
        },
        {
          "indexed": true,
          "internalType": "address",
          "name": "owner",
          "type": "address"
        },
        {
          "indexed": false,
          "internalType": "uint256",
          "name": "main",
          "type": "uint256"
        },
        {
          "indexed": false,
          "internalType": "uint256",
          "name": "stablecoin",
          "type": "uint256"
        }
      ],
      "name": "Exit",
      "type": "event"
    },
    {
      "anonymous": false,
      "inputs": [
        {
          "indexed": true,
          "internalType": "address",
          "name": "asset",
          "type": "address"
        },
        {
          "indexed": true,
          "internalType": "address",
          "name": "owner",
          "type": "address"
        },
        {
          "indexed": false,
          "internalType": "uint256",
          "name": "main",
          "type": "uint256"
        },
        {
          "indexed": false,
          "internalType": "uint256",
          "name": "stablecoin",
          "type": "uint256"
        }
      ],
      "name": "Join",
      "type": "event"
    },
    {
      "anonymous": false,
      "inputs": [
        {
          "indexed": true,
          "internalType": "address",
          "name": "asset",
          "type": "address"
        },
        {
          "indexed": true,
          "internalType": "address",
          "name": "owner",
          "type": "address"
        }
      ],
      "name": "LiquidationTriggered",
      "type": "event"
    },
    {
      "inputs": [],
      "name": "ACCESS_CONTROL_SINGLETON",
      "outputs": [
        {
          "internalType": "contract ISuAccessControl",
          "name": "",
          "type": "address"
        }
      ],
      "stateMutability": "view",
      "type": "function"
    },
    {
      "inputs": [],
      "name": "LIQUIDATION_ACCESS_ROLE",
      "outputs": [
        {
          "internalType": "bytes32",
          "name": "",
          "type": "bytes32"
        }
      ],
      "stateMutability": "view",
      "type": "function"
    },
    {
      "inputs": [],
      "name": "MINTER_ROLE",
      "outputs": [
        {
          "internalType": "bytes32",
          "name": "",
          "type": "bytes32"
        }
      ],
      "stateMutability": "view",
      "type": "function"
    },
    {
      "inputs": [],
      "name": "VAULT_ACCESS_ROLE",
      "outputs": [
        {
          "internalType": "bytes32",
          "name": "",
          "type": "bytes32"
        }
      ],
      "stateMutability": "view",
      "type": "function"
    },
    {
      "inputs": [],
      "name": "cdpRegistry",
      "outputs": [
        {
          "internalType": "contract ISuCdpRegistry",
          "name": "",
          "type": "address"
        }
      ],
      "stateMutability": "view",
      "type": "function"
    },
    {
      "inputs": [
        {
          "internalType": "address",
          "name": "asset",
          "type": "address"
        },
        {
          "internalType": "uint256",
          "name": "assetAmountEDecimal",
          "type": "uint256"
        },
        {
          "internalType": "uint256",
          "name": "stablecoinAmountE18",
          "type": "uint256"
        }
      ],
      "name": "exit",
      "outputs": [
        {
          "internalType": "uint256",
          "name": "",
          "type": "uint256"
        }
      ],
      "stateMutability": "nonpayable",
      "type": "function"
    },
    {
      "inputs": [
        {
          "internalType": "address",
          "name": "asset",
          "type": "address"
        },
        {
          "internalType": "address",
          "name": "owner",
          "type": "address"
        }
      ],
      "name": "getCollateralUsdValueE18",
      "outputs": [
        {
          "internalType": "uint256",
          "name": "",
          "type": "uint256"
        }
      ],
      "stateMutability": "view",
      "type": "function"
    },
    {
      "inputs": [
        {
          "internalType": "address",
          "name": "asset",
          "type": "address"
        },
        {
          "internalType": "address",
          "name": "owner",
          "type": "address"
        }
      ],
      "name": "getPosition",
      "outputs": [
        {
          "internalType": "uint256",
          "name": "liquidationBlock",
          "type": "uint256"
        },
        {
          "internalType": "uint256",
          "name": "collateralEDecimal",
          "type": "uint256"
        },
        {
          "internalType": "uint256",
          "name": "debtE18",
          "type": "uint256"
        }
      ],
      "stateMutability": "view",
      "type": "function"
    },
    {
      "inputs": [
        {
          "internalType": "address",
          "name": "asset",
          "type": "address"
        },
        {
          "internalType": "address",
          "name": "owner",
          "type": "address"
        }
      ],
      "name": "getPositionLiquidationBlock",
      "outputs": [
        {
          "internalType": "uint256",
          "name": "",
          "type": "uint256"
        }
      ],
      "stateMutability": "view",
      "type": "function"
    },
    {
      "inputs": [
        {
          "internalType": "address",
          "name": "",
          "type": "address"
        }
      ],
      "name": "initialCollateralRatioE18",
      "outputs": [
        {
          "internalType": "uint256",
          "name": "",
          "type": "uint256"
        }
      ],
      "stateMutability": "view",
      "type": "function"
    },
    {
      "inputs": [
        {
          "internalType": "address",
          "name": "asset",
          "type": "address"
        },
        {
          "internalType": "address",
          "name": "owner",
          "type": "address"
        }
      ],
      "name": "isLiquidatablePosition",
      "outputs": [
        {
          "internalType": "bool",
          "name": "",
          "type": "bool"
        }
      ],
      "stateMutability": "view",
      "type": "function"
    },
    {
      "inputs": [
        {
          "internalType": "address",
          "name": "asset",
          "type": "address"
        },
        {
          "internalType": "uint256",
          "name": "assetAmountEDecimal",
          "type": "uint256"
        },
        {
          "internalType": "uint256",
          "name": "stablecoinAmountE18",
          "type": "uint256"
        }
      ],
      "name": "join",
      "outputs": [],
      "stateMutability": "nonpayable",
      "type": "function"
    },
    {
      "inputs": [
        {
          "internalType": "address",
          "name": "asset",
          "type": "address"
        },
        {
          "internalType": "address",
          "name": "owner",
          "type": "address"
        },
        {
          "internalType": "address",
          "name": "repayer",
          "type": "address"
        },
        {
          "internalType": "uint256",
          "name": "stablecoinsToRepaymentE18",
          "type": "uint256"
        },
        {
          "internalType": "uint256",
          "name": "assetAmountEDecimal",
          "type": "uint256"
        }
      ],
      "name": "liquidate",
      "outputs": [
        {
          "internalType": "bool",
          "name": "destroyed",
          "type": "bool"
        }
      ],
      "stateMutability": "nonpayable",
      "type": "function"
    },
    {
      "inputs": [
        {
          "internalType": "address",
          "name": "asset",
          "type": "address"
        },
        {
          "internalType": "address",
          "name": "owner",
          "type": "address"
        },
        {
          "internalType": "address",
          "name": "repayer",
          "type": "address"
        },
        {
          "internalType": "uint256",
          "name": "repaymentE18",
          "type": "uint256"
        },
        {
          "internalType": "uint256",
          "name": "excessAndFeeE18",
          "type": "uint256"
        },
        {
          "internalType": "uint256",
          "name": "assetAmountEDecimal",
          "type": "uint256"
        }
      ],
      "name": "liquidateAndRepay",
      "outputs": [
        {
          "internalType": "bool",
          "name": "destroyed",
          "type": "bool"
        }
      ],
      "stateMutability": "nonpayable",
      "type": "function"
    },
    {
      "inputs": [
        {
          "internalType": "address",
          "name": "asset",
          "type": "address"
        },
        {
          "internalType": "address",
          "name": "owner",
          "type": "address"
        }
      ],
      "name": "liquidationPrice",
      "outputs": [
        {
          "internalType": "uint256",
          "name": "",
          "type": "uint256"
        }
      ],
      "stateMutability": "view",
      "type": "function"
    },
    {
      "inputs": [
        {
          "internalType": "address",
          "name": "",
          "type": "address"
        }
      ],
      "name": "liquidationRatioE18",
      "outputs": [
        {
          "internalType": "uint256",
          "name": "",
          "type": "uint256"
        }
      ],
      "stateMutability": "view",
      "type": "function"
    },
    {
      "inputs": [],
      "name": "managerParameters",
      "outputs": [
        {
          "internalType": "contract ISuManagerParameters",
          "name": "",
          "type": "address"
        }
      ],
      "stateMutability": "view",
      "type": "function"
    },
    {
      "inputs": [],
      "name": "minCollateralInUsdE18",
      "outputs": [
        {
          "internalType": "uint256",
          "name": "",
          "type": "uint256"
        }
      ],
      "stateMutability": "view",
      "type": "function"
    },
    {
      "inputs": [
        {
          "internalType": "address",
          "name": "repayer",
          "type": "address"
        },
        {
          "internalType": "uint256",
          "name": "stablecoinsToRepaymentE18",
          "type": "uint256"
        },
        {
          "internalType": "uint256",
          "name": "stablecoinsToFoundationE18",
          "type": "uint256"
        }
      ],
      "name": "repay",
      "outputs": [],
      "stateMutability": "nonpayable",
      "type": "function"
    },
    {
      "inputs": [
        {
          "internalType": "address",
          "name": "asset",
          "type": "address"
        },
        {
          "internalType": "uint256",
          "name": "stabilityFeeValueE18",
          "type": "uint256"
        },
        {
          "internalType": "uint256",
          "name": "initialCollateralRatioValueE18",
          "type": "uint256"
        },
        {
          "internalType": "uint256",
          "name": "liquidationRatioValueE18",
          "type": "uint256"
        },
        {
          "internalType": "uint256",
          "name": "stablecoinLimitE18",
          "type": "uint256"
        },
        {
          "internalType": "uint256",
          "name": "minCollateralInUsdValueE18",
          "type": "uint256"
        }
      ],
      "name": "setCollateral",
      "outputs": [],
      "stateMutability": "nonpayable",
      "type": "function"
    },
    {
      "inputs": [
        {
          "internalType": "address",
          "name": "asset",
          "type": "address"
        },
        {
          "internalType": "uint256",
          "name": "newValueE18",
          "type": "uint256"
        }
      ],
      "name": "setInitialCollateralRatioE18",
      "outputs": [],
      "stateMutability": "nonpayable",
      "type": "function"
    },
    {
      "inputs": [
        {
          "internalType": "address",
          "name": "asset",
          "type": "address"
        },
        {
          "internalType": "uint256",
          "name": "newValueE18",
          "type": "uint256"
        }
      ],
      "name": "setLiquidationRatioE18",
      "outputs": [],
      "stateMutability": "nonpayable",
      "type": "function"
    },
    {
      "inputs": [
        {
          "internalType": "uint256",
          "name": "newValueE18",
          "type": "uint256"
        }
      ],
      "name": "setMinCollateralInUsdE18",
      "outputs": [],
      "stateMutability": "nonpayable",
      "type": "function"
    },
    {
      "inputs": [],
      "name": "suOracle",
      "outputs": [
        {
          "internalType": "contract ISuOracle",
          "name": "",
          "type": "address"
        }
      ],
      "stateMutability": "view",
      "type": "function"
    },
    {
      "inputs": [
        {
          "internalType": "address",
          "name": "asset",
          "type": "address"
        },
        {
          "internalType": "address",
          "name": "owner",
          "type": "address"
        }
      ],
      "name": "triggerLiquidation",
      "outputs": [],
      "stateMutability": "nonpayable",
      "type": "function"
    },
    {
      "inputs": [
        {
          "internalType": "address",
          "name": "asset",
          "type": "address"
        },
        {
          "internalType": "address",
          "name": "owner",
          "type": "address"
        }
      ],
      "name": "utilizationRatioE18",
      "outputs": [
        {
          "internalType": "uint256",
          "name": "",
          "type": "uint256"
        }
      ],
      "stateMutability": "view",
      "type": "function"
    },
    {
      "inputs": [],
      "name": "vault",
      "outputs": [
        {
          "internalType": "contract ISuVault",
          "name": "",
          "type": "address"
        }
      ],
      "stateMutability": "view",
      "type": "function"
    },
    {
      "inputs": [],
      "name": "vaultParameters",
      "outputs": [
        {
          "internalType": "contract SuVaultParameters",
          "name": "",
          "type": "address"
        }
      ],
      "stateMutability": "view",
      "type": "function"
    },
    {
      "stateMutability": "payable",
      "type": "receive"
    }
  ],
  "bytecode": "0x610100604052674563918244f400006003553480156200001e57600080fd5b5060405162003a3d38038062003a3d8339810160408190526200004191620001f8565b82806001600160a01b03166303ee9f226040518163ffffffff1660e01b815260040160206040518083038186803b1580156200007c57600080fd5b505afa15801562000091573d6000803e3d6000fd5b505050506040513d601f19601f82011682018060405250810190620000b791906200024b565b600160005560601b6001600160601b031916608052600480546001600160a01b0319166001600160a01b03929092169190911790553080158015906200010557506001600160a01b03821615155b620001575760405162461bcd60e51b815260206004820152601b60248201527f556e69742050726f746f636f6c3a20494e56414c49445f41524753000000000060448201526064015b60405180910390fd5b6001600160a01b038316620001af5760405162461bcd60e51b815260206004820152601760248201527f494e56414c49445f415247533a2053555f4f5241434c4500000000000000000060448201526064016200014e565b600580546001600160a01b039094166001600160a01b0319909416939093179092556001600160601b0319606092831b811660c05292821b831660a052901b1660e0526200028a565b6000806000606084860312156200020d578283fd5b83516200021a8162000271565b60208501519093506200022d8162000271565b6040850151909250620002408162000271565b809150509250925092565b6000602082840312156200025d578081fd5b81516200026a8162000271565b9392505050565b6001600160a01b03811681146200028757600080fd5b50565b60805160601c60a05160601c60c05160601c60e05160601c613640620003fd6000396000818161045d0152818161114c015281816116e60152818161229c0152612a9a0152600081816103070152818161076001528181612c1301528181612cb301528181612de70152612f19015260008181610664015281816106b20152818161097a01528181610a6101528181610b3701528181610be601528181610eba01528181610ff3015281816110cb015281816114fe01528181611637015281816117a301528181611b5801528181611bfe01528181611ca401528181611dae01528181611ea901528181611f7b01528181612037015281816120e2015281816121c20152818161241d0152818161257c0152818161261601528181612867015281816128fa0152818161299c01528181612b2e0152612fd501526000818161022401528181610db0015281816111d8015281816113f401528181611820015281816119af015261232301526136406000f3fe6080604052600436106101bb5760003560e01c8063ab2a2a82116100ec578063d4796d121161008a578063e6bc046111610064578063e6bc0461146105d8578063ea36380a14610605578063f3f481df14610625578063fbfa77cf1461065257600080fd5b8063d4796d1214610550578063d539139314610570578063dc97e84e146105a457600080fd5b8063b33dc190116100c6578063b33dc190146104bf578063bb497dcc146104fa578063bbdc953114610510578063cf1334041461053057600080fd5b8063ab2a2a821461044b578063aca345ee1461047f578063ada9e5ad1461049f57600080fd5b80634030815e116101595780636f70e66f116101335780636f70e66f146103cb5780638cd2e0c7146103eb5780639077beac1461040b578063a20f9cb31461042b57600080fd5b80634030815e146103695780636bf12d5f146103895780636f16cbf7146103a957600080fd5b806314c376dc1161019557806314c376dc146102c15780631af3be18146102f55780631c656c39146103295780632062ca541461034957600080fd5b806303ee9f22146102125780630fbac4e614610263578063134a02dd1461029157600080fd5b3661020d5760405162461bcd60e51b815260206004820152601960248201527f556e69742050726f746f636f6c3a20524553545249435445440000000000000060448201526064015b60405180910390fd5b600080fd5b34801561021e57600080fd5b506102467f000000000000000000000000000000000000000000000000000000000000000081565b6040516001600160a01b0390911681526020015b60405180910390f35b34801561026f57600080fd5b5061028361027e366004613193565b610686565b60405190815260200161025a565b34801561029d57600080fd5b506102b16102ac366004613193565b610a13565b604051901515815260200161025a565b3480156102cd57600080fd5b506102837fe965846df3dd5b1dfa65f58e31477079e90140e0908b6dd31b5aead5a57cf36581565b34801561030157600080fd5b506102467f000000000000000000000000000000000000000000000000000000000000000081565b34801561033557600080fd5b50610283610344366004613193565b610a35565b34801561035557600080fd5b50610283610364366004613193565b610b0d565b34801561037557600080fd5b50610283610384366004613193565b610bba565b34801561039557600080fd5b506102b16103a4366004613219565b610d17565b3480156103b557600080fd5b506103c96103c4366004613277565b6111bc565b005b3480156103d757600080fd5b506102b16103e63660046131c5565b61135b565b3480156103f757600080fd5b506103c96104063660046132a0565b611753565b34801561041757600080fd5b506103c9610426366004613277565b611804565b34801561043757600080fd5b50600554610246906001600160a01b031681565b34801561045757600080fd5b506102467f000000000000000000000000000000000000000000000000000000000000000081565b34801561048b57600080fd5b50600454610246906001600160a01b031681565b3480156104ab57600080fd5b506103c96104ba3660046132d2565b611993565b3480156104cb57600080fd5b506104df6104da366004613193565b611b2a565b6040805193845260208401929092529082015260600161025a565b34801561050657600080fd5b5061028360035481565b34801561051c57600080fd5b5061028361052b3660046132a0565b611d29565b34801561053c57600080fd5b506103c961054b36600461333b565b612307565b34801561055c57600080fd5b506103c961056b366004613193565b6123f6565b34801561057c57600080fd5b506102837f9f2df0fed2c77648de5860a4cc508cd0818c85b8b8a1ab4ceeef8d981c8956a681565b3480156105b057600080fd5b506102837f9a9aef7c1247d5fc769b0185c052913e39673da29a880317dfd20ebf86f26a4981565b3480156105e457600080fd5b506102836105f3366004613179565b60026020526000908152604090205481565b34801561061157600080fd5b506103c96106203660046132a0565b6126b1565b34801561063157600080fd5b50610283610640366004613179565b60016020526000908152604090205481565b34801561065e57600080fd5b506102467f000000000000000000000000000000000000000000000000000000000000000081565b60405163a6ea8b8760e01b81526001600160a01b038381166004830152828116602483015260009182917f0000000000000000000000000000000000000000000000000000000000000000169063a6ea8b879060440160206040518083038186803b1580156106f457600080fd5b505afa158015610708573d6000803e3d6000fd5b505050506040513d601f19601f8201168201806040525081019061072c9190613353565b90508061073e57600019915050610a0d565b60405163e6bc046160e01b81526001600160a01b0385811660048301526000917f00000000000000000000000000000000000000000000000000000000000000009091169063e6bc04619060240160206040518083038186803b1580156107a457600080fd5b505afa1580156107b8573d6000803e3d6000fd5b505050506040513d601f19601f820116820180604052508101906107dc9190613353565b6107ee83670de0b6b3a7640000613539565b6107f8919061342b565b90506012856001600160a01b031663313ce5676040518163ffffffff1660e01b815260040160206040518083038186803b15801561083557600080fd5b505afa158015610849573d6000803e3d6000fd5b505050506040513d601f19601f8201168201806040525081019061086d919061336b565b60ff1611156108cc5760405162461bcd60e51b815260206004820152602560248201527f556e69742050726f746f636f6c3a204e4f545f535550504f525445445f444543604482015264494d414c5360d81b6064820152608401610204565b846001600160a01b031663313ce5676040518163ffffffff1660e01b815260040160206040518083038186803b15801561090557600080fd5b505afa158015610919573d6000803e3d6000fd5b505050506040513d601f19601f8201168201806040525081019061093d919061336b565b610948906012613558565b61095390600a61348e565b6040516334e3b77960e01b81526001600160a01b03878116600483015286811660248301527f000000000000000000000000000000000000000000000000000000000000000016906334e3b7799060440160206040518083038186803b1580156109bc57600080fd5b505afa1580156109d0573d6000803e3d6000fd5b505050506040513d601f19601f820116820180604052508101906109f49190613353565b6109fe908361342b565b610a08919061342b565b925050505b92915050565b600080610a208484610bba565b9050610a2d848483612b02565b949350505050565b60405163a6ea8b8760e01b81526001600160a01b038381166004830152828116602483015260009182917f0000000000000000000000000000000000000000000000000000000000000000169063a6ea8b879060440160206040518083038186803b158015610aa357600080fd5b505afa158015610ab7573d6000803e3d6000fd5b505050506040513d601f19601f82011682018060405250810190610adb9190613353565b905080610aec576000915050610a0d565b6000610af88585610bba565b9050806109fe83670de0b6b3a7640000613539565b604051631ce4b4a760e01b81526001600160a01b03838116600483015282811660248301526000917f000000000000000000000000000000000000000000000000000000000000000090911690631ce4b4a79060440160206040518083038186803b158015610b7b57600080fd5b505afa158015610b8f573d6000803e3d6000fd5b505050506040513d601f19601f82011682018060405250810190610bb39190613353565b9392505050565b6040516334e3b77960e01b81526001600160a01b038381166004830152828116602483015260009182917f000000000000000000000000000000000000000000000000000000000000000016906334e3b7799060440160206040518083038186803b158015610c2857600080fd5b505afa158015610c3c573d6000803e3d6000fd5b505050506040513d601f19601f82011682018060405250810190610c609190613353565b6005546040517f356efd980000000000000000000000000000000000000000000000000000000081526001600160a01b038781166004830152929350670de0b6b3a7640000928492169063356efd989060240160206040518083038186803b158015610ccb57600080fd5b505afa158015610cdf573d6000803e3d6000fd5b505050506040513d601f19601f82011682018060405250810190610d039190613353565b610d0d9190613539565b610a2d919061342b565b600060026000541415610d6c5760405162461bcd60e51b815260206004820152601f60248201527f5265656e7472616e637947756172643a207265656e7472616e742063616c6c006044820152606401610204565b6002600055604051632474521560e21b81527f9a9aef7c1247d5fc769b0185c052913e39673da29a880317dfd20ebf86f26a496004820152336024820152879087907f00000000000000000000000000000000000000000000000000000000000000006001600160a01b0316906391d148549060440160206040518083038186803b158015610dfa57600080fd5b505afa158015610e0e573d6000803e3d6000fd5b505050506040513d601f19601f82011682018060405250810190610e32919061331b565b610e905760405162461bcd60e51b815260206004820152602960248201527f5375417574683a206f6e6c794c69717569646174696f6e416363657373204155604482015268151217d1905253115160ba1b6064820152608401610204565b604051631ce4b4a760e01b81526001600160a01b038a8116600483015289811660248301526000917f000000000000000000000000000000000000000000000000000000000000000090911690631ce4b4a79060440160206040518083038186803b158015610efe57600080fd5b505afa158015610f12573d6000803e3d6000fd5b505050506040513d601f19601f82011682018060405250810190610f369190613353565b11610f935760405162461bcd60e51b815260206004820152602760248201527f556e69742050726f746f636f6c3a204e4f545f4c49515549444154494e475f5060448201526627a9a4aa24a7a760c91b6064820152608401610204565b610fb66040518060600160405280602e81526020016135b8602e91398588612d55565b604051636f70e66f60e01b81526001600160a01b038a811660048301528981166024830152888116604483015260648201869052608482018890527f00000000000000000000000000000000000000000000000000000000000000001690636f70e66f9060a401602060405180830381600087803b15801561103757600080fd5b505af115801561104b573d6000803e3d6000fd5b505050506040513d601f19601f8201168201806040525081019061106f919061331b565b925061107b8933612dcf565b61109e604051806060016040528060268152602001613592602691398787612d55565b604051638cd2e0c760e01b81526001600160a01b03888116600483015260248201889052604482018790527f00000000000000000000000000000000000000000000000000000000000000001690638cd2e0c790606401600060405180830381600087803b15801561110f57600080fd5b505af1158015611123573d6000803e3d6000fd5b5050604051632ed56dff60e21b81526001600160a01b03858116600483015284811660248301527f000000000000000000000000000000000000000000000000000000000000000016925063bb55b7fc9150604401600060405180830381600087803b15801561119257600080fd5b505af11580156111a6573d6000803e3d6000fd5b5050600160005550929998505050505050505050565b604051632474521560e21b8152600060048201523360248201527f00000000000000000000000000000000000000000000000000000000000000006001600160a01b0316906391d148549060440160206040518083038186803b15801561122257600080fd5b505afa158015611236573d6000803e3d6000fd5b505050506040513d601f19601f8201168201806040525081019061125a919061331b565b6112a65760405162461bcd60e51b815260206004820152601d60248201527f5375417574683a206f6e6c794f776e657220415554485f4641494c45440000006044820152606401610204565b80158015906112cd57506001600160a01b0382166000908152600160205260409020548110155b61133f5760405162461bcd60e51b815260206004820152603060248201527f556e69742050726f746f636f6c3a20494e434f52524543545f434f4c4c41544560448201527f52414c495a4154494f4e5f56414c5545000000000000000000000000000000006064820152608401610204565b6001600160a01b03909116600090815260026020526040902055565b6000600260005414156113b05760405162461bcd60e51b815260206004820152601f60248201527f5265656e7472616e637947756172643a207265656e7472616e742063616c6c006044820152606401610204565b6002600055604051632474521560e21b81527f9a9aef7c1247d5fc769b0185c052913e39673da29a880317dfd20ebf86f26a496004820152336024820152869086907f00000000000000000000000000000000000000000000000000000000000000006001600160a01b0316906391d148549060440160206040518083038186803b15801561143e57600080fd5b505afa158015611452573d6000803e3d6000fd5b505050506040513d601f19601f82011682018060405250810190611476919061331b565b6114d45760405162461bcd60e51b815260206004820152602960248201527f5375417574683a206f6e6c794c69717569646174696f6e416363657373204155604482015268151217d1905253115160ba1b6064820152608401610204565b604051631ce4b4a760e01b81526001600160a01b03898116600483015288811660248301526000917f000000000000000000000000000000000000000000000000000000000000000090911690631ce4b4a79060440160206040518083038186803b15801561154257600080fd5b505afa158015611556573d6000803e3d6000fd5b505050506040513d601f19601f8201168201806040525081019061157a9190613353565b116115d75760405162461bcd60e51b815260206004820152602760248201527f556e69742050726f746f636f6c3a204e4f545f4c49515549444154494e475f5060448201526627a9a4aa24a7a760c91b6064820152608401610204565b6115fa6040518060600160405280602e81526020016135b8602e91398587612d55565b604051636f70e66f60e01b81526001600160a01b0389811660048301528881166024830152878116604483015260648201869052608482018790527f00000000000000000000000000000000000000000000000000000000000000001690636f70e66f9060a401602060405180830381600087803b15801561167b57600080fd5b505af115801561168f573d6000803e3d6000fd5b505050506040513d601f19601f820116820180604052508101906116b3919061331b565b92506116bf8833612dcf565b604051632ed56dff60e21b81526001600160a01b03838116600483015282811660248301527f0000000000000000000000000000000000000000000000000000000000000000169063bb55b7fc90604401600060405180830381600087803b15801561172a57600080fd5b505af115801561173e573d6000803e3d6000fd5b50506001600055509298975050505050505050565b6117766040518060600160405280602581526020016135e6602591398383612d55565b604051638cd2e0c760e01b81526001600160a01b03848116600483015260248201849052604482018390527f00000000000000000000000000000000000000000000000000000000000000001690638cd2e0c790606401600060405180830381600087803b1580156117e757600080fd5b505af11580156117fb573d6000803e3d6000fd5b50505050505050565b604051632474521560e21b8152600060048201523360248201527f00000000000000000000000000000000000000000000000000000000000000006001600160a01b0316906391d148549060440160206040518083038186803b15801561186a57600080fd5b505afa15801561187e573d6000803e3d6000fd5b505050506040513d601f19601f820116820180604052508101906118a2919061331b565b6118ee5760405162461bcd60e51b815260206004820152601d60248201527f5375417574683a206f6e6c794f776e657220415554485f4641494c45440000006044820152606401610204565b80158015906119055750670de0b6b3a76400008111155b6119775760405162461bcd60e51b815260206004820152603060248201527f556e69742050726f746f636f6c3a20494e434f52524543545f434f4c4c41544560448201527f52414c495a4154494f4e5f56414c5545000000000000000000000000000000006064820152608401610204565b6001600160a01b03909116600090815260016020526040902055565b604051632474521560e21b8152600060048201523360248201527f00000000000000000000000000000000000000000000000000000000000000006001600160a01b0316906391d148549060440160206040518083038186803b1580156119f957600080fd5b505afa158015611a0d573d6000803e3d6000fd5b505050506040513d601f19601f82011682018060405250810190611a31919061331b565b611a7d5760405162461bcd60e51b815260206004820152601d60248201527f5375417574683a206f6e6c794f776e657220415554485f4641494c45440000006044820152606401610204565b600480546040517f9fea3e070000000000000000000000000000000000000000000000000000000081526001600160a01b03898116938201939093526024810188905260448101859052911690639fea3e0790606401600060405180830381600087803b158015611aed57600080fd5b505af1158015611b01573d6000803e3d6000fd5b50505050611b0f8685611804565b611b1986846111bc565b611b2281612307565b505050505050565b604051631ce4b4a760e01b81526001600160a01b0383811660048301528281166024830152600091829182917f000000000000000000000000000000000000000000000000000000000000000090911690631ce4b4a79060440160206040518083038186803b158015611b9c57600080fd5b505afa158015611bb0573d6000803e3d6000fd5b505050506040513d601f19601f82011682018060405250810190611bd49190613353565b6040516334e3b77960e01b81526001600160a01b03878116600483015286811660248301529194507f0000000000000000000000000000000000000000000000000000000000000000909116906334e3b7799060440160206040518083038186803b158015611c4257600080fd5b505afa158015611c56573d6000803e3d6000fd5b505050506040513d601f19601f82011682018060405250810190611c7a9190613353565b604051636aee125d60e11b81526001600160a01b03878116600483015286811660248301529193507f00000000000000000000000000000000000000000000000000000000000000009091169063d5dc24ba9060440160206040518083038186803b158015611ce857600080fd5b505afa158015611cfc573d6000803e3d6000fd5b505050506040513d601f19601f82011682018060405250810190611d209190613353565b90509250925092565b600060026000541415611d7e5760405162461bcd60e51b815260206004820152601f60248201527f5265656e7472616e637947756172643a207265656e7472616e742063616c6c006044820152606401610204565b6002600055604051631ce4b4a760e01b81526001600160a01b0380861660048301523360248301819052869290917f00000000000000000000000000000000000000000000000000000000000000001690631ce4b4a79060440160206040518083038186803b158015611df057600080fd5b505afa158015611e04573d6000803e3d6000fd5b505050506040513d601f19601f82011682018060405250810190611e289190613353565b15611e815760405162461bcd60e51b815260206004820152602360248201527f556e69742050726f746f636f6c3a204c49515549444154494e475f504f53495460448201526224a7a760e91b6064820152608401610204565b604051636aee125d60e11b81526001600160a01b0387811660048301523360248301526000917f00000000000000000000000000000000000000000000000000000000000000009091169063d5dc24ba9060440160206040518083038186803b158015611eed57600080fd5b505afa158015611f01573d6000803e3d6000fd5b505050506040513d601f19601f82011682018060405250810190611f259190613353565b905080851115611f33578094505b6040517f34c188b00000000000000000000000000000000000000000000000000000000081526001600160a01b038881166004830152336024830152604482018790526000917f0000000000000000000000000000000000000000000000000000000000000000909116906334c188b09060640160206040518083038186803b158015611fbf57600080fd5b505afa158015611fd3573d6000803e3d6000fd5b505050506040513d601f19601f82011682018060405250810190611ff79190613353565b604051636f70e66f60e01b81526001600160a01b038a8116600483015233602483018190526044830152606482018a9052608482018990529192506000917f00000000000000000000000000000000000000000000000000000000000000001690636f70e66f9060a401602060405180830381600087803b15801561207b57600080fd5b505af115801561208f573d6000803e3d6000fd5b505050506040513d601f19601f820116820180604052508101906120b3919061331b565b90506120bf8933612dcf565b604051638cd2e0c760e01b815233600482015260248101889052604481018390527f00000000000000000000000000000000000000000000000000000000000000006001600160a01b031690638cd2e0c790606401600060405180830381600087803b15801561212e57600080fd5b505af1158015612142573d6000803e3d6000fd5b50505050801561219d57604080518981526020810189905233916001600160a01b038c16917f4bd704811146c45cfd9276261817324e0acc0b5eaa458b21a0740367dc37cdb8910160405180910390a3869550505050612275565b60405163c640752d60e01b81526001600160a01b038a811660048301523360248301527f0000000000000000000000000000000000000000000000000000000000000000169063c640752d90604401600060405180830381600087803b15801561220657600080fd5b505af115801561221a573d6000803e3d6000fd5b505050506122288933612ec5565b604080518981526020810189905233916001600160a01b038c16917fa702ae6024e8b4c2b0eb162b1453dacb93cf6922f5a2d7236faed898c21148f8910160405180910390a38695505050505b604051632ed56dff60e21b81526001600160a01b03838116600483015282811660248301527f0000000000000000000000000000000000000000000000000000000000000000169063bb55b7fc90604401600060405180830381600087803b1580156122e057600080fd5b505af11580156122f4573d6000803e3d6000fd5b5050600160005550929695505050505050565b604051632474521560e21b8152600060048201523360248201527f00000000000000000000000000000000000000000000000000000000000000006001600160a01b0316906391d148549060440160206040518083038186803b15801561236d57600080fd5b505afa158015612381573d6000803e3d6000fd5b505050506040513d601f19601f820116820180604052508101906123a5919061331b565b6123f15760405162461bcd60e51b815260206004820152601d60248201527f5375417574683a206f6e6c794f776e657220415554485f4641494c45440000006044820152606401610204565b600355565b604051631ce4b4a760e01b81526001600160a01b03838116600483015282811660248301527f00000000000000000000000000000000000000000000000000000000000000001690631ce4b4a79060440160206040518083038186803b15801561245f57600080fd5b505afa158015612473573d6000803e3d6000fd5b505050506040513d601f19601f820116820180604052508101906124979190613353565b156124f05760405162461bcd60e51b815260206004820152602360248201527f556e69742050726f746f636f6c3a204c49515549444154494e475f504f53495460448201526224a7a760e91b6064820152608401610204565b60006124fc8383610bba565b9050612509838383612b02565b6125555760405162461bcd60e51b815260206004820152601c60248201527f556e69742050726f746f636f6c3a20534146455f504f534954494f4e000000006044820152606401610204565b60405163c640752d60e01b81526001600160a01b03848116600483015283811660248301527f0000000000000000000000000000000000000000000000000000000000000000169063c640752d90604401600060405180830381600087803b1580156125c057600080fd5b505af11580156125d4573d6000803e3d6000fd5b50506040517fd4796d120000000000000000000000000000000000000000000000000000000081526001600160a01b03868116600483015285811660248301527f000000000000000000000000000000000000000000000000000000000000000016925063d4796d129150604401600060405180830381600087803b15801561265c57600080fd5b505af1158015612670573d6000803e3d6000fd5b50506040516001600160a01b038086169350861691507f5b79a897d30813a62a1f95ba180d3320d3701d96605708b81105e00719a069e490600090a3505050565b600260005414156127045760405162461bcd60e51b815260206004820152601f60248201527f5265656e7472616e637947756172643a207265656e7472616e742063616c6c006044820152606401610204565b600260005582338215158061271857508315155b6127645760405162461bcd60e51b815260206004820152601960248201527f556e69742050726f746f636f6c3a205553454c4553535f5458000000000000006044820152606401610204565b6012856001600160a01b031663313ce5676040518163ffffffff1660e01b815260040160206040518083038186803b15801561279f57600080fd5b505afa1580156127b3573d6000803e3d6000fd5b505050506040513d601f19601f820116820180604052508101906127d7919061336b565b60ff1611156128365760405162461bcd60e51b815260206004820152602560248201527f556e69742050726f746f636f6c3a204e4f545f535550504f525445445f444543604482015264494d414c5360d81b6064820152608401610204565b826128c857604051638340f54960e01b81526001600160a01b038681166004830152336024830152604482018690527f00000000000000000000000000000000000000000000000000000000000000001690638340f54990606401600060405180830381600087803b1580156128ab57600080fd5b505af11580156128bf573d6000803e3d6000fd5b50505050612a23565b831561295757604051638340f54960e01b81526001600160a01b038681166004830152336024830152604482018690527f00000000000000000000000000000000000000000000000000000000000000001690638340f54990606401600060405180830381600087803b15801561293e57600080fd5b505af1158015612952573d6000803e3d6000fd5b505050505b6040517f5224372c0000000000000000000000000000000000000000000000000000000081526001600160a01b038681166004830152336024830152604482018590527f00000000000000000000000000000000000000000000000000000000000000001690635224372c90606401602060405180830381600087803b1580156129e057600080fd5b505af11580156129f4573d6000803e3d6000fd5b505050506040513d601f19601f82011682018060405250810190612a189190613353565b50612a238533612ec5565b612a2d8533612dcf565b604080518581526020810185905233916001600160a01b038816917f6423b6056e64b3b29cb2d342362b47c26fa8d6877da27ea152354060df19b9bc910160405180910390a3604051632ed56dff60e21b81526001600160a01b03838116600483015282811660248301527f0000000000000000000000000000000000000000000000000000000000000000169063bb55b7fc90604401600060405180830381600087803b158015612ade57600080fd5b505af1158015612af2573d6000803e3d6000fd5b5050600160005550505050505050565b60405163a6ea8b8760e01b81526001600160a01b038481166004830152838116602483015260009182917f0000000000000000000000000000000000000000000000000000000000000000169063a6ea8b879060440160206040518083038186803b158015612b7057600080fd5b505afa158015612b84573d6000803e3d6000fd5b505050506040513d601f19601f82011682018060405250810190612ba89190613353565b905080612bb9576000915050610bb3565b604080518082018252600581527f4c494d49540000000000000000000000000000000000000000000000000000006020820152905163e6bc046160e01b81526001600160a01b038781166004830152612c949291849187917f00000000000000000000000000000000000000000000000000000000000000009091169063e6bc04619060240160206040518083038186803b158015612c5757600080fd5b505afa158015612c6b573d6000803e3d6000fd5b505050506040513d601f19601f82011682018060405250810190612c8f9190613353565b6130c9565b60405163e6bc046160e01b81526001600160a01b0386811660048301527f0000000000000000000000000000000000000000000000000000000000000000169063e6bc04619060240160206040518083038186803b158015612cf557600080fd5b505afa158015612d09573d6000803e3d6000fd5b505050506040513d601f19601f82011682018060405250810190612d2d9190613353565b83612d4083670de0b6b3a7640000613539565b612d4a919061342b565b101595945050505050565b612dca838383604051602401612d6d939291906133d7565b60408051601f198184030181529190526020810180517bffffffffffffffffffffffffffffffffffffffffffffffffffffffff167f969cdd030000000000000000000000000000000000000000000000000000000017905261313c565b505050565b6000612ddb8383610bba565b9050801580612e7957507f00000000000000000000000000000000000000000000000000000000000000006001600160a01b031663bb497dcc6040518163ffffffff1660e01b815260040160206040518083038186803b158015612e3e57600080fd5b505afa158015612e52573d6000803e3d6000fd5b505050506040513d601f19601f82011682018060405250810190612e769190613353565b81115b612dca5760405162461bcd60e51b815260206004820152601f60248201527f556e69742050726f746f636f6c3a20534d414c4c5f434f4c4c41544552414c006044820152606401610204565b6000612ed18383610bba565b6040517ff3f481df0000000000000000000000000000000000000000000000000000000081526001600160a01b038581166004830152919250600091670de0b6b3a7640000917f00000000000000000000000000000000000000000000000000000000000000009091169063f3f481df9060240160206040518083038186803b158015612f5d57600080fd5b505afa158015612f71573d6000803e3d6000fd5b505050506040513d601f19601f82011682018060405250810190612f959190613353565b612f9f9084613539565b612fa9919061342b565b60405163a6ea8b8760e01b81526001600160a01b038681166004830152858116602483015291925082917f0000000000000000000000000000000000000000000000000000000000000000169063a6ea8b879060440160206040518083038186803b15801561301757600080fd5b505afa15801561302b573d6000803e3d6000fd5b505050506040513d601f19601f8201168201806040525081019061304f9190613353565b11156130c35760405162461bcd60e51b815260206004820152602260248201527f556e69742050726f746f636f6c3a20554e444552434f4c4c41544552414c495a60448201527f45440000000000000000000000000000000000000000000000000000000000006064820152608401610204565b50505050565b6130c3848484846040516024016130e394939291906133fc565b60408051601f198184030181529190526020810180517bffffffffffffffffffffffffffffffffffffffffffffffffffffffff167f08ee5666000000000000000000000000000000000000000000000000000000001790525b80516a636f6e736f6c652e6c6f67602083016000808483855afa5050505050565b80356001600160a01b038116811461317457600080fd5b919050565b60006020828403121561318a578081fd5b610bb38261315d565b600080604083850312156131a5578081fd5b6131ae8361315d565b91506131bc6020840161315d565b90509250929050565b600080600080600060a086880312156131dc578081fd5b6131e58661315d565b94506131f36020870161315d565b93506132016040870161315d565b94979396509394606081013594506080013592915050565b60008060008060008060c08789031215613231578081fd5b61323a8761315d565b95506132486020880161315d565b94506132566040880161315d565b9350606087013592506080870135915060a087013590509295509295509295565b60008060408385031215613289578182fd5b6132928361315d565b946020939093013593505050565b6000806000606084860312156132b4578283fd5b6132bd8461315d565b95602085013595506040909401359392505050565b60008060008060008060c087890312156132ea578182fd5b6132f38761315d565b9860208801359850604088013597606081013597506080810135965060a00135945092505050565b60006020828403121561332c578081fd5b81518015158114610bb3578182fd5b60006020828403121561334c578081fd5b5035919050565b600060208284031215613364578081fd5b5051919050565b60006020828403121561337c578081fd5b815160ff81168114610bb3578182fd5b60008151808452815b818110156133b157602081850181015186830182015201613395565b818111156133c25782602083870101525b50601f01601f19169290920160200192915050565b6060815260006133ea606083018661338c565b60208301949094525060400152919050565b60808152600061340f608083018761338c565b6020830195909552506040810192909252606090910152919050565b60008261344657634e487b7160e01b81526012600452602481fd5b500490565b600181815b8085111561348657816000190482111561346c5761346c61357b565b8085161561347957918102915b93841c9390800290613450565b509250929050565b6000610bb360ff8416836000826134a757506001610a0d565b816134b457506000610a0d565b81600181146134ca57600281146134d4576134f0565b6001915050610a0d565b60ff8411156134e5576134e561357b565b50506001821b610a0d565b5060208310610133831016604e8410600b8410161715613513575081810a610a0d565b61351d838361344b565b80600019048211156135315761353161357b565b029392505050565b60008160001904831182151516156135535761355361357b565b500290565b600060ff821660ff8416808210156135725761357261357b565b90039392505050565b634e487b7160e01b600052601160045260246000fdfe5245504159207265706179202872657061796d656e742c20657863657373416e64466565293a4c4951554944415445206c697175696461746520286173736574416d6f756e742c2072657061796d656e74293a205245504159207265706179202872657061796d656e742c20746f466f6e646174696f6e293aa2646970667358221220f2eb262e213a221becfbed038466f685f1396516ed7b6b7e637f976d3766805864736f6c63430008040033",
  "linkReferences": {},
  "deployedLinkReferences": {}
}