{
  "address": "0x66aF2e9e05aB418A32742A0351FCe9F7801F8aA8",
  "abi": [
    {
      "inputs": [
        {
          "internalType": "address",
          "name": "accessControl_",
          "type": "address"
        },
        {
          "internalType": "address",
          "name": "safeEngine_",
          "type": "address"
        },
        {
          "internalType": "address",
          "name": "exchange_",
          "type": "address"
        },
        {
          "internalType": "address",
          "name": "oracle_",
          "type": "address"
        },
        {
          "internalType": "address",
          "name": "suDAO_",
          "type": "address"
        },
        {
          "internalType": "address",
          "name": "rewardChef_",
          "type": "address"
        },
        {
          "internalType": "address",
          "name": "stablePro_",
          "type": "address"
        },
        {
          "internalType": "address",
          "name": "coinJoin_",
          "type": "address"
        }
      ],
      "stateMutability": "nonpayable",
      "type": "constructor"
    },
    {
      "inputs": [],
      "name": "BadAccessControlSingleton",
      "type": "error"
    },
    {
      "inputs": [],
      "name": "BadModifyParameters",
      "type": "error"
    },
    {
      "inputs": [],
      "name": "BadRewardToken",
      "type": "error"
    },
    {
      "inputs": [
        {
          "internalType": "address",
          "name": "asset",
          "type": "address"
        }
      ],
      "name": "BadStablecoin",
      "type": "error"
    },
    {
      "inputs": [],
      "name": "ContractDisabled",
      "type": "error"
    },
    {
      "inputs": [],
      "name": "DebtNotZero",
      "type": "error"
    },
    {
      "inputs": [],
      "name": "InsufficientDebt",
      "type": "error"
    },
    {
      "inputs": [],
      "name": "InsufficientSurplus",
      "type": "error"
    },
    {
      "inputs": [],
      "name": "NotEnoughAsh",
      "type": "error"
    },
    {
      "inputs": [],
      "name": "OnlyAdminError",
      "type": "error"
    },
    {
      "inputs": [],
      "name": "OnlyAlerterError",
      "type": "error"
    },
    {
      "inputs": [],
      "name": "OnlyCDPAccessError",
      "type": "error"
    },
    {
      "inputs": [],
      "name": "OnlyDAOError",
      "type": "error"
    },
    {
      "inputs": [],
      "name": "OnlyDisablerAccessError",
      "type": "error"
    },
    {
      "inputs": [],
      "name": "OnlyLiquidationAccessError",
      "type": "error"
    },
    {
      "inputs": [],
      "name": "OnlyMintAccessError",
      "type": "error"
    },
    {
      "inputs": [],
      "name": "OnlyRewardAccessError",
      "type": "error"
    },
    {
      "inputs": [],
      "name": "OnlyRoleError",
      "type": "error"
    },
    {
      "inputs": [],
      "name": "PopDebtDelayNotFinished",
      "type": "error"
    },
    {
      "inputs": [
        {
          "internalType": "address",
          "name": "asset",
          "type": "address"
        }
      ],
      "name": "StablecoinExists",
      "type": "error"
    },
    {
      "inputs": [
        {
          "internalType": "address",
          "name": "asset",
          "type": "address"
        }
      ],
      "name": "StablecoinNotExist",
      "type": "error"
    },
    {
      "inputs": [],
      "name": "SurplusNotZero",
      "type": "error"
    },
    {
      "anonymous": false,
      "inputs": [],
      "name": "DisableContract",
      "type": "event"
    },
    {
      "anonymous": false,
      "inputs": [
        {
          "indexed": false,
          "internalType": "uint256",
          "name": "amount",
          "type": "uint256"
        }
      ],
      "name": "StableProSwapped",
      "type": "event"
    },
    {
      "anonymous": false,
      "inputs": [
        {
          "indexed": false,
          "internalType": "address",
          "name": "stablecoin",
          "type": "address"
        },
        {
          "indexed": false,
          "internalType": "uint256",
          "name": "amount",
          "type": "uint256"
        }
      ],
      "name": "StablecoinRefilled",
      "type": "event"
    },
    {
      "inputs": [],
      "name": "ACCESS_CONTROL_SINGLETON",
      "outputs": [
        {
          "internalType": "contract ISuAccessControl",
          "name": "",
          "type": "address"
        }
      ],
      "stateMutability": "view",
      "type": "function"
    },
    {
      "inputs": [],
      "name": "ADMIN_ROLE",
      "outputs": [
        {
          "internalType": "bytes32",
          "name": "",
          "type": "bytes32"
        }
      ],
      "stateMutability": "view",
      "type": "function"
    },
    {
      "inputs": [],
      "name": "ALERTER_ROLE",
      "outputs": [
        {
          "internalType": "bytes32",
          "name": "",
          "type": "bytes32"
        }
      ],
      "stateMutability": "view",
      "type": "function"
    },
    {
      "inputs": [],
      "name": "CDP_ACCESS_ROLE",
      "outputs": [
        {
          "internalType": "bytes32",
          "name": "",
          "type": "bytes32"
        }
      ],
      "stateMutability": "view",
      "type": "function"
    },
    {
      "inputs": [],
      "name": "DAO_ROLE",
      "outputs": [
        {
          "internalType": "bytes32",
          "name": "",
          "type": "bytes32"
        }
      ],
      "stateMutability": "view",
      "type": "function"
    },
    {
      "inputs": [],
      "name": "DISABLER_ROLE",
      "outputs": [
        {
          "internalType": "bytes32",
          "name": "",
          "type": "bytes32"
        }
      ],
      "stateMutability": "view",
      "type": "function"
    },
    {
      "inputs": [],
      "name": "LIQUIDATION_ACCESS_ROLE",
      "outputs": [
        {
          "internalType": "bytes32",
          "name": "",
          "type": "bytes32"
        }
      ],
      "stateMutability": "view",
      "type": "function"
    },
    {
      "inputs": [],
      "name": "MINT_ACCESS_ROLE",
      "outputs": [
        {
          "internalType": "bytes32",
          "name": "",
          "type": "bytes32"
        }
      ],
      "stateMutability": "view",
      "type": "function"
    },
    {
      "inputs": [],
      "name": "REWARD_ACCESS_ROLE",
      "outputs": [
        {
          "internalType": "bytes32",
          "name": "",
          "type": "bytes32"
        }
      ],
      "stateMutability": "view",
      "type": "function"
    },
    {
      "inputs": [],
      "name": "VOTING_ESCROW_ROLE",
      "outputs": [
        {
          "internalType": "bytes32",
          "name": "",
          "type": "bytes32"
        }
      ],
      "stateMutability": "view",
      "type": "function"
    },
    {
      "inputs": [
        {
          "internalType": "address",
          "name": "stablecoin",
          "type": "address"
        }
      ],
      "name": "addWhitelistStablecoin",
      "outputs": [],
      "stateMutability": "nonpayable",
      "type": "function"
    },
    {
      "inputs": [
        {
          "internalType": "address",
          "name": "token2sell",
          "type": "address"
        },
        {
          "internalType": "uint256",
          "name": "amountToSell",
          "type": "uint256"
        },
        {
          "internalType": "enum DiscountType",
          "name": "discountType",
          "type": "uint8"
        },
        {
          "internalType": "uint256",
          "name": "auctionDebt",
          "type": "uint256"
        }
      ],
      "name": "auctionDebt",
      "outputs": [
        {
          "internalType": "uint256",
          "name": "orderId",
          "type": "uint256"
        }
      ],
      "stateMutability": "nonpayable",
      "type": "function"
    },
    {
      "inputs": [
        {
          "internalType": "uint256",
          "name": "surplusAmount",
          "type": "uint256"
        },
        {
          "internalType": "enum DiscountType",
          "name": "discountType",
          "type": "uint8"
        }
      ],
      "name": "auctionSurplus",
      "outputs": [
        {
          "internalType": "uint256",
          "name": "orderId",
          "type": "uint256"
        }
      ],
      "stateMutability": "nonpayable",
      "type": "function"
    },
    {
      "inputs": [
        {
          "internalType": "uint256",
          "name": "rad",
          "type": "uint256"
        }
      ],
      "name": "cancelAuctionedDebtWithSurplus",
      "outputs": [],
      "stateMutability": "nonpayable",
      "type": "function"
    },
    {
      "inputs": [],
      "name": "coinJoin",
      "outputs": [
        {
          "internalType": "contract ICoinJoin",
          "name": "",
          "type": "address"
        }
      ],
      "stateMutability": "view",
      "type": "function"
    },
    {
      "inputs": [],
      "name": "contractEnabled",
      "outputs": [
        {
          "internalType": "uint256",
          "name": "",
          "type": "uint256"
        }
      ],
      "stateMutability": "view",
      "type": "function"
    },
    {
      "inputs": [
        {
          "internalType": "uint256",
          "name": "",
          "type": "uint256"
        }
      ],
      "name": "debtQueue",
      "outputs": [
        {
          "internalType": "uint256",
          "name": "",
          "type": "uint256"
        }
      ],
      "stateMutability": "view",
      "type": "function"
    },
    {
      "inputs": [],
      "name": "defaultRewardEndBlock",
      "outputs": [
        {
          "internalType": "uint256",
          "name": "",
          "type": "uint256"
        }
      ],
      "stateMutability": "view",
      "type": "function"
    },
    {
      "inputs": [],
      "name": "disableContract",
      "outputs": [],
      "stateMutability": "nonpayable",
      "type": "function"
    },
    {
      "inputs": [
        {
          "internalType": "uint256",
          "name": "amount",
          "type": "uint256"
        }
      ],
      "name": "distributeSurplus",
      "outputs": [],
      "stateMutability": "nonpayable",
      "type": "function"
    },
    {
      "inputs": [],
      "name": "exchange",
      "outputs": [
        {
          "internalType": "contract IExchange",
          "name": "",
          "type": "address"
        }
      ],
      "stateMutability": "view",
      "type": "function"
    },
    {
      "inputs": [
        {
          "internalType": "uint256",
          "name": "amount",
          "type": "uint256"
        }
      ],
      "name": "getRealStablePro",
      "outputs": [],
      "stateMutability": "nonpayable",
      "type": "function"
    },
    {
      "inputs": [
        {
          "internalType": "address",
          "name": "stablecoin",
          "type": "address"
        }
      ],
      "name": "hasWhitelistStablecoin",
      "outputs": [
        {
          "internalType": "bool",
          "name": "",
          "type": "bool"
        }
      ],
      "stateMutability": "view",
      "type": "function"
    },
    {
      "inputs": [
        {
          "internalType": "uint256",
          "name": "amount",
          "type": "uint256"
        }
      ],
      "name": "joinStablePro",
      "outputs": [],
      "stateMutability": "nonpayable",
      "type": "function"
    },
    {
      "inputs": [
        {
          "internalType": "bytes32",
          "name": "what",
          "type": "bytes32"
        },
        {
          "internalType": "address",
          "name": "data",
          "type": "address"
        }
      ],
      "name": "modifyParameters",
      "outputs": [],
      "stateMutability": "nonpayable",
      "type": "function"
    },
    {
      "inputs": [
        {
          "internalType": "bytes32",
          "name": "what",
          "type": "bytes32"
        },
        {
          "internalType": "uint256",
          "name": "data",
          "type": "uint256"
        }
      ],
      "name": "modifyParameters",
      "outputs": [],
      "stateMutability": "nonpayable",
      "type": "function"
    },
    {
      "inputs": [],
      "name": "oracle",
      "outputs": [
        {
          "internalType": "contract ISuOracleAggregator",
          "name": "",
          "type": "address"
        }
      ],
      "stateMutability": "view",
      "type": "function"
    },
    {
      "inputs": [],
      "name": "popDebtDelay",
      "outputs": [
        {
          "internalType": "uint256",
          "name": "",
          "type": "uint256"
        }
      ],
      "stateMutability": "view",
      "type": "function"
    },
    {
      "inputs": [
        {
          "internalType": "uint256",
          "name": "era",
          "type": "uint256"
        }
      ],
      "name": "popDebtFromQueue",
      "outputs": [],
      "stateMutability": "nonpayable",
      "type": "function"
    },
    {
      "inputs": [
        {
          "internalType": "uint256",
          "name": "amountToRaise",
          "type": "uint256"
        }
      ],
      "name": "pushDebtToQueue",
      "outputs": [],
      "stateMutability": "nonpayable",
      "type": "function"
    },
    {
      "inputs": [
        {
          "internalType": "address",
          "name": "stablecoin",
          "type": "address"
        },
        {
          "internalType": "uint256",
          "name": "amount",
          "type": "uint256"
        }
      ],
      "name": "refillStablecoin",
      "outputs": [],
      "stateMutability": "nonpayable",
      "type": "function"
    },
    {
      "inputs": [
        {
          "internalType": "address",
          "name": "stablecoin",
          "type": "address"
        }
      ],
      "name": "removeWhitelistStablecoin",
      "outputs": [],
      "stateMutability": "nonpayable",
      "type": "function"
    },
    {
      "inputs": [],
      "name": "rewardChef",
      "outputs": [
        {
          "internalType": "contract IRewardChefV2",
          "name": "",
          "type": "address"
        }
      ],
      "stateMutability": "view",
      "type": "function"
    },
    {
      "inputs": [],
      "name": "safeEngine",
      "outputs": [
        {
          "internalType": "contract ISafeEngine",
          "name": "",
          "type": "address"
        }
      ],
      "stateMutability": "view",
      "type": "function"
    },
    {
      "inputs": [
        {
          "internalType": "address",
          "name": "stablecoin",
          "type": "address"
        }
      ],
      "name": "setStablecoinToSwap",
      "outputs": [],
      "stateMutability": "nonpayable",
      "type": "function"
    },
    {
      "inputs": [
        {
          "internalType": "uint256",
          "name": "rad",
          "type": "uint256"
        }
      ],
      "name": "settleDebt",
      "outputs": [],
      "stateMutability": "nonpayable",
      "type": "function"
    },
    {
      "inputs": [],
      "name": "stablePro",
      "outputs": [
        {
          "internalType": "contract IERC20",
          "name": "",
          "type": "address"
        }
      ],
      "stateMutability": "view",
      "type": "function"
    },
    {
      "inputs": [],
      "name": "stablecoinToSwap",
      "outputs": [
        {
          "internalType": "address",
          "name": "",
          "type": "address"
        }
      ],
      "stateMutability": "view",
      "type": "function"
    },
    {
      "inputs": [],
      "name": "suDAO",
      "outputs": [
        {
          "internalType": "contract IERC20",
          "name": "",
          "type": "address"
        }
      ],
      "stateMutability": "view",
      "type": "function"
    },
    {
      "inputs": [
        {
          "internalType": "bytes4",
          "name": "interfaceId",
          "type": "bytes4"
        }
      ],
      "name": "supportsInterface",
      "outputs": [
        {
          "internalType": "bool",
          "name": "",
          "type": "bool"
        }
      ],
      "stateMutability": "view",
      "type": "function"
    },
    {
      "inputs": [],
      "name": "surplusBuffer",
      "outputs": [
        {
          "internalType": "uint256",
          "name": "",
          "type": "uint256"
        }
      ],
      "stateMutability": "view",
      "type": "function"
    },
    {
      "inputs": [
        {
          "internalType": "address",
          "name": "stablecoinToken",
          "type": "address"
        },
        {
          "internalType": "uint256",
          "name": "stableProAmountE18",
          "type": "uint256"
        }
      ],
      "name": "swapStableProToStablecoin",
      "outputs": [],
      "stateMutability": "nonpayable",
      "type": "function"
    },
    {
      "inputs": [],
      "name": "totalOnAuctionDebt",
      "outputs": [
        {
          "internalType": "uint256",
          "name": "",
          "type": "uint256"
        }
      ],
      "stateMutability": "view",
      "type": "function"
    },
    {
      "inputs": [],
      "name": "totalQueuedDebt",
      "outputs": [
        {
          "internalType": "uint256",
          "name": "",
          "type": "uint256"
        }
      ],
      "stateMutability": "view",
      "type": "function"
    }
  ],
  "numDeployments": 3,
  "solcInputHash": "99c0a0d9f58fa8279c64246a47fa58ae",
  "bytecode": "0x60c060409080825234620002f35760009061010081620025058038038091620000298285620002f8565b833981010312620002ef576200003f8162000332565b602092906200005083850162000332565b926200005e86820162000332565b6200006c6060830162000332565b946200007b6080840162000332565b926200008a60a0820162000332565b906200009960c0820162000332565b9060e001620000a89062000332565b87546001600160a01b039788166001600160a01b031991821681178a558c516301ffc9a760e01b8152637965db0b60e01b6004808301919091529b93989296929392918d908290815a91602492fa908115620002e5578b91620002c3575b5015620002b35792888095938180969481808097169b8c608052168a600154161760015516886002541617600255168660035416176003551660a052169384838954161788551680916005541617600555813b15620002af578491602483928a519485938492631b29a84160e31b84528b8401525af18015620002a55762000276575b506001600d556202a300600e5580620001f6575b85516121a390816200036282396080518181816103a201528181610d1301528181610f88015281816112b301528181611a460152611bd1015260a051818181610418015281816108c801528181610d89015261164d0152f35b604485926003541694848851968794859363095ea7b360e01b855284015260001960248401525af19081156200026b575062000236575b8080806200019d565b816200025a92903d1062000263575b620002518183620002f8565b81019062000347565b5038806200022d565b503d62000245565b8451903d90823e3d90fd5b9092906001600160401b03811162000292578652913862000189565b634e487b7160e01b825260418552602482fd5b87513d86823e3d90fd5b8480fd5b8c516384d942fd60e01b81528b90fd5b620002de91508d803d106200026357620002518183620002f8565b3862000106565b8e513d8d823e3d90fd5b5080fd5b600080fd5b601f909101601f19168101906001600160401b038211908210176200031c57604052565b634e487b7160e01b600052604160045260246000fd5b51906001600160a01b0382168203620002f357565b90816020910312620002f357518015158103620002f3579056fe6080604081815260048036101561001557600080fd5b600092833560e01c90816301ffc9a714611e3a57508063038a3e2f14611d5e57806303ee9f2214611d365780630f44d6bd14611d1757806327a0bb3314611ba95780632a608d5b14611b8a5780632d09f11d14611b6b57806330413a2a14611b425780633977a31914611b1b5780633dc4ab1d14611a115780633fec7e46146119e857806341b3a0d9146119c9578063438280dd1461198e5780634a9afc5b146117cc5780635221e882146117ad578063550a1e00146115a55780635d49502b146114cc5780636614f010146112e257806367aea3131461129e57806371d0fb411461126357806375b238fc146112485780637ae8b2e11461114c5780637dc0d1d014611123578063887e2a4a146110fa578063894ba83314610f065780638b24dc3e14610e9c5780638e5313e014610e615780639d32526814610c4a578063a8b30a9f14610b75578063bd5f5be614610b3a578063c9bc438414610b13578063d09a79dd14610984578063d0e8fa8214610949578063d2351cee14610920578063d2f7265a146108f7578063d46e50d0146108b3578063d5070076146107bc578063d65e861d1461079d578063dc97e84e14610774578063de51eefd14610736578063e9c265181461070d578063e9de2c3f146106ae578063ed9ac368146103285763fe4f58901461020757600080fd5b34610324578160031936011261032457803591602435926044602060018060a01b03875416845192838092632474521560e21b825260008051602061210e833981519152898301523360248301525afa90811561031a5786916102ec575b50156102de576b706f704465627444656c617960a01b810361028b57505050600b555b80f35b6c39bab938363ab9a13ab33332b960991b81036102ab57505050600c5580f35b7464656661756c74526577617264456e64426c6f636b60581b036102d1575050600e5580f35b51634f7c191f60e01b8152fd5b505163599a6c3360e11b8152fd5b61030d915060203d8111610313575b6103058183611f23565b810190611f46565b38610265565b503d6102fb565b83513d88823e3d90fd5b8280fd5b509190346106aa57806003193601126106aa576024928335813560038210156106a65760018060a01b0390818654169685518098632474521560e21b82528887830152338383015281604460209b8c935afa90811561069c57889161067f575b501561066f578551633eaf7a0360e21b81523086820152907f0000000000000000000000000000000000000000000000000000000000000000841689838381845afa92831561063457908a918a9461063e575b509082918951938480926311005b0760e01b8252308c8301525afa918215610634578992610605575b5087516370a0823160e01b815230888201527f00000000000000000000000000000000000000000000000000000000000000008616938b828481885afa9182156105fb578b926105cc575b50600c549182821093841561052b575b5050505061051b576104776104809160095490612100565b600a5490612100565b61050b57908683926104b48a969560015416946003541695895198899788968795633bcce46f60e21b875230938701611f79565b03925af192831561050057926104cc575b5051908152f35b9091508281813d83116104f9575b6104e48183611f23565b810103126104f4575190386104c5565b600080fd5b503d6104da565b8251903d90823e3d90fd5b85516312bf4cab60e01b81528590fd5b86516394290ab960e01b81528690fd5b9293509091676765c793fa10079d601b1b91828102908015908204841417156105ba5761055890846120dd565b9283106105b6578187029187830414871517156105a5575061057a90846120dd565b918383106105a15761058c90836120dd565b91821061059d57103880808061045f565b8980fd5b8a80fd5b634e487b7160e01b8c5260118a528bfd5b8b80fd5b50634e487b7160e01b8c5260118a528bfd5b9091508b81813d83116105f4575b6105e48183611f23565b810103126104f45751903861044f565b503d6105da565b8a513d8d823e3d90fd5b9091508981813d831161062d575b61061d8183611f23565b810103126104f457519038610404565b503d610613565b88513d8b823e3d90fd5b8281939295503d8311610668575b6106568183611f23565b810103126104f45751918990826103db565b503d61064c565b8551631886ea7d60e11b81528590fd5b6106969150893d8b11610313576103058183611f23565b38610388565b87513d8a823e3d90fd5b8480fd5b5080fd5b5050346106aa57806003193601126106aa577f2cb31b7cd23f5e7810b379525524ddf0fdf14cab7855eff4507f490a268ce016906106ea611ec9565b610707602435926106fd84303386612010565b5192839283611f5e565b0390a180f35b5050346106aa57816003193601126106aa576020905160008051602061210e8339815191528152f35b5050346106aa5760203660031901126106aa5760209160ff9082906001600160a01b03610761611ec9565b1681526006855220541690519015158152f35b5050346106aa57816003193601126106aa576020905160008051602061212e8339815191528152f35b5050346106aa57816003193601126106aa57602090600e549051908152f35b508290346106aa5760203660031901126106aa5781548351632474521560e21b81528281018490523360248201526001600160a01b0394916020908290604490829089165afa9081156108a957849161088b575b501561087e57829360055416803b15610879578151633bccb9b760e21b8152928491849182908490829061084a9080359030908401611f5e565b03925af1908115610870575061085d5750f35b61086690611edf565b61086d5780f35b80fd5b513d84823e3d90fd5b505050fd5b51631886ea7d60e11b8152fd5b6108a3915060203d8111610313576103058183611f23565b85610810565b82513d86823e3d90fd5b5050346106aa57816003193601126106aa57517f00000000000000000000000000000000000000000000000000000000000000006001600160a01b03168152602090f35b5050346106aa57816003193601126106aa5760015490516001600160a01b039091168152602090f35b5050346106aa57816003193601126106aa576020905160008051602061214e8339815191528152f35b5050346106aa57816003193601126106aa57602090517f76d0567582f23e1e9d7a13eeba60f9aea9d69b8da87ca27a8bf3698b35c653db8152f35b5090346103245760209081600319360112610b0f576109a1611ec9565b84548251632474521560e21b815260008051602061210e833981519152868201523360248201526001600160a01b039185908290604490829086165afa908115610b05578791610ae8575b5015610ad8578082168087526006855260ff8488205416610ac25791600092918392885260068652848820600160ff19825416179055600154168285518781019263095ea7b360e01b845260248201528119604482015260448152610a5081611f08565b51925af1610a5c611fd1565b81610a92575b5015610a6c578380f35b5162461bcd60e51b8152918201526002602482015261534160f01b604482015260649150fd5b80518015925084908315610aaa575b50505038610a62565b610aba9350820181019101611f46565b388381610aa1565b8560249185519163c05cbd9360e01b8352820152fd5b825163599a6c3360e11b81528590fd5b610aff9150853d8711610313576103058183611f23565b386109ec565b84513d89823e3d90fd5b8380fd5b50346103245782600319360112610324575490516001600160a01b03909116815260209150f35b5050346106aa57816003193601126106aa57602090517f4f14c8366fa999817edc9f29824eb88a00cc31225e2156f399da4bc91049eb108152f35b5090346103245760209081600319360112610b0f5783548151632474521560e21b815260008051602061212e83398151915281860152336024820152843594918490829060449082906001600160a01b03165afa90811561031a578691610c2d575b5015610c1f5750428452600882528084205491610bf484846120dd565b9283106106a65760089042865252832055610c1260095491826120dd565b9081106106aa5760095580f35b905163200ab6d960e01b8152fd5b610c449150843d8611610313576103058183611f23565b38610bd7565b509190346106aa5760803660031901126106aa57610c66611ec9565b926024359060443560038110156106a65760018060a01b0392838654169685518098632474521560e21b8252888683015233602483015281604460209b8c935afa90811561069c578891610e44575b5015610e3457868886600254166024895180948193632a5001c960e01b83528b88168b8401525af190811561069c578891610e07575b508083810204831490151715610df2578551633eaf7a0360e21b8152308582015288816024817f00000000000000000000000000000000000000000000000000000000000000008a165afa90811561069c578891610dc5575b50610db557600a54610d58606435826120dd565b908110610db15788949392918891600a556104b4876001541694895198899788968795633bcce46f60e21b875230937f000000000000000000000000000000000000000000000000000000000000000016928701611f79565b8780fd5b855163e9f0635560e01b81528490fd5b90508881813d8311610deb575b610ddc8183611f23565b810103126104f4575138610d44565b503d610dd2565b601184634e487b7160e01b6000525260246000fd5b90508881813d8311610e2d575b610e1e8183611f23565b810103126104f4575138610ceb565b503d610e14565b8551631886ea7d60e11b81528490fd5b610e5b9150893d8b11610313576103058183611f23565b38610cb5565b5050346106aa57816003193601126106aa57602090517fe453bacb314e78dcd5192e6b1a2b1f0e7c76e92f6b7e429a6a90f04e39db3b768152f35b509190346106aa5760203660031901126106aa578235610ebe600b54826120dd565b818110610b0f574210610ef657829350610ee660095482855260086020528385205490612100565b6009558252600860205281205580f35b81516306932a5360e11b81528490fd5b509190346106aa57816003193601126106aa5781548151632474521560e21b815260008051602061214e83398151915285820152336024820152602092916001600160a01b03919084908290604490829086165afa9081156110f05785916110d3575b50156110c357600d54156110b35793839484600d558460095584600a557f00000000000000000000000000000000000000000000000000000000000000001692825190633eaf7a0360e21b825230838301528082602481885afa9182156110a9578692611077575b5083516311005b0760e01b815230848201528181602481895afa91821561106d57879261103c575b505080821161103557505b833b156106a6576024859283855196879485936327a0bb3360e01b85528401525af1908115610870575061085d5750f35b9050611004565b8197508092503d8311611066575b6110548183611f23565b810103126104f4578594513880610ff9565b503d61104a565b85513d89823e3d90fd5b809650818093503d83116110a2575b6110908183611f23565b810103126104f4578594519038610fd1565b503d611086565b84513d88823e3d90fd5b81516303b14e6560e51b81528590fd5b815163bb0684b760e01b81528590fd5b6110ea9150843d8611610313576103058183611f23565b38610f69565b83513d87823e3d90fd5b5050346106aa57816003193601126106aa5760035490516001600160a01b039091168152602090f35b5050346106aa57816003193601126106aa5760025490516001600160a01b039091168152602090f35b5090346103245760209081600319360112610b0f57611169611ec9565b84548251632474521560e21b815260008051602061210e833981519152868201523360248201526001600160a01b039185908290604490829086165afa908115610b0557879161122b575b5015610ad8578082168087526006855260ff848820541615611215579160009291839288526006865284882060ff198154169055600154168285518781019263095ea7b360e01b8452602482015281604482015260448152610a5081611f08565b8560249185519163052bb4dd60e01b8352820152fd5b6112429150853d8711610313576103058183611f23565b386111b4565b5050346106aa57816003193601126106aa5751908152602090f35b5050346106aa57816003193601126106aa57602090517f880a91047114272656e533301261260c75e4d11543ac7303d6fe4204579ec7278152f35b5050346106aa57816003193601126106aa57517f00000000000000000000000000000000000000000000000000000000000000006001600160a01b03168152602090f35b50346103245781600319360112610324578035916001600160a01b0360243581811693908490036104f457818654169483518096632474521560e21b825260008051602061210e833981519152848301523360248301528160446020998a935afa9081156114c25788916114a5575b5015611496576765786368616e676560c01b811461147f575b656f7261636c6560d01b8114611468575b64737544414f60d81b811461144e575b6731b7b4b72537b4b760c11b8114611437575b693932bbb0b93221b432b360b11b036114295780546001600160a01b0319811685178255600354845163095ea7b360e01b8152918816909517918101919091526000196024820152928491849160449183918991165af1908115611420575061140657505080f35b8161141c92903d10610313576103058183611f23565b5080f35b513d85823e3d90fd5b8251634f7c191f60e01b8152fd5b600580546001600160a01b0319168617905561139e565b600380546001600160a01b0319811690851617905561138b565b600280546001600160a01b0319168617905561137b565b600180546001600160a01b0319168617905561136a565b50825163599a6c3360e11b8152fd5b6114bc9150873d8911610313576103058183611f23565b38611351565b85513d8a823e3d90fd5b509190346106aa5760203660031901126106aa5782359060018060a01b036044602082865416845192838092632474521560e21b8252898b8301523360248301525afa9081156110f0578591611587575b501561157757938394600a5484808210600014611569575050845b600a556005541692833b156106a65761084a9385928385518097819582946312db6f5f60e01b845230908401611f5e565b61157291612100565b611538565b8151631886ea7d60e11b81528590fd5b61159f915060203d8111610313576103058183611f23565b3861151d565b508290346106aa57826003193601126106aa576115c0611ec9565b9060249081359160018060a01b0393848116948587526020956006875260ff89892054161561179857670de0b6b3a7640000918287029287840414871517156117865787816002541692868c5180958193631735856760e31b83528b8301525afa91821561177c57899261174d575b50811561173957918861168f61169d8296946116728b8598309033907f000000000000000000000000000000000000000000000000000000000000000016612010565b8d519283918d83019663a9059cbb60e01b885204338b8401611f5e565b03601f198101835282611f23565b51925af16116a9611fd1565b81611709575b50156116e25750507f062234b32cab33fa5bcd957e318141fefab38cc79f25ec5b972be8392e98cb6c929351908152a180f35b855162461bcd60e51b81529182018490526002908201526114d560f21b6044820152606490fd5b80518015925086908315611721575b505050876116af565b6117319350820181019101611f46565b878581611718565b84601287634e487b7160e01b600052526000fd5b9091508781813d8311611775575b6117658183611f23565b810103126104f45751908a61162f565b503d61175b565b8a513d8b823e3d90fd5b634e487b7160e01b8952601186528489fd5b8484918a5191633935d9fb60e21b8352820152fd5b5050346106aa57816003193601126106aa57602090600b549051908152f35b509190346106aa57602090816003193601126103245782548151632474521560e21b81528581018590523360248201526001600160a01b03939182908290604490829088165afa9081156110f0578591611971575b501561157757845482516399248ea760e01b81529084169382828881885afa9182156110a9578692611935575b50806003541691160361192657938394825163604ef2e560e01b815281818481885afa9182156110a95786926118f5575b505080156118d8576001600160401b03165b833b156106a65782516321fba31360e21b81528235928101929092526001600160401b031660248201529183908390604490829084905af1908115610870575061085d5750f35b50600e546001600160401b03906118ef90436120dd565b16611891565b8196508092503d831161191f575b61190d8183611f23565b810103126104f457849351388061187f565b503d611903565b815162ce650360e31b81528590fd5b9091508281813d831161196a575b61194d8183611f23565b810103126119665751818116810361196657903861184e565b8580fd5b503d611943565b6119889150823d8411610313576103058183611f23565b38611821565b5050346106aa57816003193601126106aa57602090517f39f61ca2a1a28fee144218173ec637b649a353e4026b2738c673800e5bf1437b8152f35b5050346106aa57816003193601126106aa57602090600d549051908152f35b5050346106aa57816003193601126106aa5760075490516001600160a01b039091168152602090f35b509190346106aa5760203660031901126106aa57823590600a5493848311611b0d578151633eaf7a0360e21b815230828201527f00000000000000000000000000000000000000000000000000000000000000006001600160a01b03169390602081602481885afa9081156110a9578691611adc575b508111611acd57611a99818697612100565b600a55833b156106a6576024859283855196879485936327a0bb3360e01b85528401525af1908115610870575061085d5750f35b5090516394290ab960e01b8152fd5b90506020813d8211611b05575b81611af660209383611f23565b810103126104f4575138611a87565b3d9150611ae9565b9051633f94439960e21b8152fd5b50346103245760203660031901126103245760209282913581526008845220549051908152f35b5050346106aa57816003193601126106aa5760055490516001600160a01b039091168152602090f35b5050346106aa57816003193601126106aa576020906009549051908152f35b5050346106aa57816003193601126106aa57602090600c549051908152f35b5090346103245760209182600319360112610b0f578151633eaf7a0360e21b815230818301527f00000000000000000000000000000000000000000000000000000000000000006001600160a01b031693823592918181602481895afa90811561106d578791611ce6575b508311611cd75783516311005b0760e01b815230838201528181602481895afa91821561106d578792611ca5575b5050610477611c549160095490612100565b8211611c9757908491843b156103245760249083855196879485936327a0bb3360e01b85528401525af19081156108705750611c8e575080f35b61028890611edf565b825163ac4314a960e01b8152fd5b90809250813d8311611cd0575b611cbc8183611f23565b810103126119665751610477611c54611c42565b503d611cb2565b5082516394290ab960e01b8152fd5b90508181813d8311611d10575b611cfd8183611f23565b81010312611d0c575138611c14565b8680fd5b503d611cf3565b5050346106aa57816003193601126106aa57602090600a549051908152f35b5050346106aa57816003193601126106aa57905490516001600160a01b039091168152602090f35b503461032457602036600319011261032457611d78611ec9565b83548351632474521560e21b81528381018690523360248201526001600160a01b0392916020908290604490829087165afa908115611e30578691611e12575b5015611e02571691828452600660205260ff818520541615611ded575050600780546001600160a01b03191691909117905580f35b916024925191633935d9fb60e21b8352820152fd5b8351631886ea7d60e11b81528390fd5b611e2a915060203d8111610313576103058183611f23565b38611db8565b85513d88823e3d90fd5b9291905034610b0f576020366003190112610b0f57803563ffffffff60e01b81168091036106a65784546301ffc9a760e01b855291840152602090839060249082906001600160a01b03165afa918215611ebf5760209392611ea0575b50519015158152f35b611eb8919250833d8111610313576103058183611f23565b9038611e97565b81513d85823e3d90fd5b600435906001600160a01b03821682036104f457565b6001600160401b038111611ef257604052565b634e487b7160e01b600052604160045260246000fd5b608081019081106001600160401b03821117611ef257604052565b601f909101601f19168101906001600160401b03821190821017611ef257604052565b908160209103126104f4575180151581036104f45790565b6001600160a01b039091168152602081019190915260400190565b6001600160a01b039182168152602081019290925291821660408201529116606082015260c0810192916003811015611fbb578160a091608060009401520152565b634e487b7160e01b600052602160045260246000fd5b3d1561200b573d906001600160401b038211611ef25760405191611fff601f8201601f191660200184611f23565b82523d6000602084013e565b606090565b6040516323b872dd60e01b602082019081526001600160a01b03938416602483015292909316604484015260648084019490945292825260a0820192906001600160401b03841183851017611ef2576000809493819460405251925af1612075611fd1565b816120ae575b501561208357565b60405162461bcd60e51b815260206004820152600360248201526229aa2360e91b6044820152606490fd5b80518015925082156120c3575b50503861207b565b6120d69250602080918301019101611f46565b38806120bb565b919082018092116120ea57565b634e487b7160e01b600052601160045260246000fd5b9081039081116120ea579056fe3b5d4cc60d3ec3516ee8ae083bd60934f6eb2a6c54b1229985c41bfb092b26039a9aef7c1247d5fc769b0185c052913e39673da29a880317dfd20ebf86f26a49b0fdd1623e42dbffda4acd8bd643e1cb69f00f0e83abeaa8150ee42cf0fd105ea2646970667358221220599c4b177b4729772b69ec1b24ae6553b3f3fd0d08643c32b403fe818f9e54a064736f6c63430008110033",
  "devdoc": {
    "kind": "dev",
    "methods": {
      "auctionDebt(address,uint256,uint8,uint256)": {
        "details": "We can only auction debt that is not already being auctioned and is not locked in the debt queue. Firstly, we should donate token2sell (it's collateral or stablecoin) by refillStablecoin*"
      },
      "auctionSurplus(uint256,uint8)": {
        "details": "We can only auction surplus if we wait at least 'surplusAuctionDelay' seconds since the last      auction trigger, if we keep enough surplus in the buffer and if there is no bad debt to settle*"
      },
      "cancelAuctionedDebtWithSurplus(uint256)": {
        "params": {
          "rad": "Amount of coins/debt to destroy (number with 45 decimals)*"
        }
      },
      "disableContract()": {
        "details": "When we disable, the contract tries to settle as much debt as possible (if there's any) with any surplus that's left in the system. After erasing debt, the contract will either transfer any remaining surplus right away (if disableCooldown == 0) or will only record the timestamp when it was disabled*"
      },
      "popDebtFromQueue(uint256)": {
        "params": {
          "era": "Timestamp of the block of debt that should be popped out"
        }
      },
      "pushDebtToQueue(uint256)": {
        "details": "Debt is locked in a queue to give the system enough time to auction collateral      and gather surplus",
        "params": {
          "amountToRaise": "Amount of debt to push"
        }
      },
      "settleDebt(uint256)": {
        "details": "We can only destroy debt that is not locked in the queue and also not in a debt auction",
        "params": {
          "rad": "Amount of coins/debt to destroy (number with 45 decimals)*"
        }
      },
      "supportsInterface(bytes4)": {
        "details": "Returns true if this contract implements the interface defined by `interfaceId`. See the corresponding https://eips.ethereum.org/EIPS/eip-165#how-interfaces-are-identified[EIP section] to learn more about how these ids are created. This function call must use less than 30 000 gas."
      }
    },
    "version": 1
  },
  "userdoc": {
    "kind": "user",
    "methods": {
      "addWhitelistStablecoin(address)": {
        "notice": "Add new stablecoin to whitelist of stablecoins protocol works with*"
      },
      "auctionDebt(address,uint256,uint8,uint256)": {
        "notice": "Start a debt auction (we have debt = x$, token2sell with value of y$, where y >= x)"
      },
      "auctionSurplus(uint256,uint8)": {
        "notice": "Start a surplus auction"
      },
      "cancelAuctionedDebtWithSurplus(uint256)": {
        "notice": "Use surplus coins to destroy debt that is/was in a debt auction"
      },
      "disableContract()": {
        "notice": "Disable this contract (normally called by Global Settlement)"
      },
      "distributeSurplus(uint256)": {
        "notice": "Admin function to distribute surplus after getting it*"
      },
      "getRealStablePro(uint256)": {
        "notice": "Admin function to get real StablePro tokens instead of records in protocol (= exit from coinJoin)*"
      },
      "hasWhitelistStablecoin(address)": {
        "notice": "Check if give token is in stablecoins whitelist*"
      },
      "joinStablePro(uint256)": {
        "notice": "Admin function to join protocol using real StablePro (= join in coinJoin)*"
      },
      "popDebtFromQueue(uint256)": {
        "notice": "A block of debt can be popped from the queue after popDebtDelay seconds passed since it was         added there"
      },
      "pushDebtToQueue(uint256)": {
        "notice": "Push debt (that the system tries to cover with collateral auctions) to a queue"
      },
      "refillStablecoin(address,uint256)": {
        "notice": "Function to send stablecoin to AccountingEngine contract*"
      },
      "removeWhitelistStablecoin(address)": {
        "notice": "Remove stablecoin from whitelist of stablecoins protocol works with*"
      },
      "setStablecoinToSwap(address)": {
        "notice": "Change var stablecoinToSwap, that is used in liquidation process*"
      },
      "settleDebt(uint256)": {
        "notice": "Destroy an equal amount of coins and debt"
      },
      "swapStableProToStablecoin(address,uint256)": {
        "notice": "Function to swap sender's stablePro to stablecoin that is in whitelist*"
      }
    },
    "version": 1
  },
  "storageLayout": {
    "storage": [
      {
        "astId": 7048,
        "contract": "contracts/makerdao/externalContracts/AccountingEngine.sol:AccountingEngine",
        "label": "ACCESS_CONTROL_SINGLETON",
        "offset": 0,
        "slot": "0",
        "type": "t_contract(ISuAccessControl)7265"
      },
      {
        "astId": 4067,
        "contract": "contracts/makerdao/externalContracts/AccountingEngine.sol:AccountingEngine",
        "label": "exchange",
        "offset": 0,
        "slot": "1",
        "type": "t_contract(IExchange)3751"
      },
      {
        "astId": 4070,
        "contract": "contracts/makerdao/externalContracts/AccountingEngine.sol:AccountingEngine",
        "label": "oracle",
        "offset": 0,
        "slot": "2",
        "type": "t_contract(ISuOracleAggregator)7409"
      },
      {
        "astId": 4073,
        "contract": "contracts/makerdao/externalContracts/AccountingEngine.sol:AccountingEngine",
        "label": "suDAO",
        "offset": 0,
        "slot": "3",
        "type": "t_contract(IERC20)1437"
      },
      {
        "astId": 4079,
        "contract": "contracts/makerdao/externalContracts/AccountingEngine.sol:AccountingEngine",
        "label": "rewardChef",
        "offset": 0,
        "slot": "4",
        "type": "t_contract(IRewardChefV2)4042"
      },
      {
        "astId": 4082,
        "contract": "contracts/makerdao/externalContracts/AccountingEngine.sol:AccountingEngine",
        "label": "coinJoin",
        "offset": 0,
        "slot": "5",
        "type": "t_contract(ICoinJoin)5839"
      },
      {
        "astId": 4086,
        "contract": "contracts/makerdao/externalContracts/AccountingEngine.sol:AccountingEngine",
        "label": "stablecoinWhitelist",
        "offset": 0,
        "slot": "6",
        "type": "t_mapping(t_address,t_bool)"
      },
      {
        "astId": 4088,
        "contract": "contracts/makerdao/externalContracts/AccountingEngine.sol:AccountingEngine",
        "label": "stablecoinToSwap",
        "offset": 0,
        "slot": "7",
        "type": "t_address"
      },
      {
        "astId": 4092,
        "contract": "contracts/makerdao/externalContracts/AccountingEngine.sol:AccountingEngine",
        "label": "debtQueue",
        "offset": 0,
        "slot": "8",
        "type": "t_mapping(t_uint256,t_uint256)"
      },
      {
        "astId": 4094,
        "contract": "contracts/makerdao/externalContracts/AccountingEngine.sol:AccountingEngine",
        "label": "totalQueuedDebt",
        "offset": 0,
        "slot": "9",
        "type": "t_uint256"
      },
      {
        "astId": 4096,
        "contract": "contracts/makerdao/externalContracts/AccountingEngine.sol:AccountingEngine",
        "label": "totalOnAuctionDebt",
        "offset": 0,
        "slot": "10",
        "type": "t_uint256"
      },
      {
        "astId": 4098,
        "contract": "contracts/makerdao/externalContracts/AccountingEngine.sol:AccountingEngine",
        "label": "popDebtDelay",
        "offset": 0,
        "slot": "11",
        "type": "t_uint256"
      },
      {
        "astId": 4100,
        "contract": "contracts/makerdao/externalContracts/AccountingEngine.sol:AccountingEngine",
        "label": "surplusBuffer",
        "offset": 0,
        "slot": "12",
        "type": "t_uint256"
      },
      {
        "astId": 4102,
        "contract": "contracts/makerdao/externalContracts/AccountingEngine.sol:AccountingEngine",
        "label": "contractEnabled",
        "offset": 0,
        "slot": "13",
        "type": "t_uint256"
      },
      {
        "astId": 4104,
        "contract": "contracts/makerdao/externalContracts/AccountingEngine.sol:AccountingEngine",
        "label": "defaultRewardEndBlock",
        "offset": 0,
        "slot": "14",
        "type": "t_uint256"
      }
    ],
    "types": {
      "t_address": {
        "encoding": "inplace",
        "label": "address",
        "numberOfBytes": "20"
      },
      "t_bool": {
        "encoding": "inplace",
        "label": "bool",
        "numberOfBytes": "1"
      },
      "t_contract(ICoinJoin)5839": {
        "encoding": "inplace",
        "label": "contract ICoinJoin",
        "numberOfBytes": "20"
      },
      "t_contract(IERC20)1437": {
        "encoding": "inplace",
        "label": "contract IERC20",
        "numberOfBytes": "20"
      },
      "t_contract(IExchange)3751": {
        "encoding": "inplace",
        "label": "contract IExchange",
        "numberOfBytes": "20"
      },
      "t_contract(IRewardChefV2)4042": {
        "encoding": "inplace",
        "label": "contract IRewardChefV2",
        "numberOfBytes": "20"
      },
      "t_contract(ISuAccessControl)7265": {
        "encoding": "inplace",
        "label": "contract ISuAccessControl",
        "numberOfBytes": "20"
      },
      "t_contract(ISuOracleAggregator)7409": {
        "encoding": "inplace",
        "label": "contract ISuOracleAggregator",
        "numberOfBytes": "20"
      },
      "t_mapping(t_address,t_bool)": {
        "encoding": "mapping",
        "key": "t_address",
        "label": "mapping(address => bool)",
        "numberOfBytes": "32",
        "value": "t_bool"
      },
      "t_mapping(t_uint256,t_uint256)": {
        "encoding": "mapping",
        "key": "t_uint256",
        "label": "mapping(uint256 => uint256)",
        "numberOfBytes": "32",
        "value": "t_uint256"
      },
      "t_uint256": {
        "encoding": "inplace",
        "label": "uint256",
        "numberOfBytes": "32"
      }
    }
  }
}