{
  "address": "0x3E68C3978a21BBF317FbBf919F6154376Bba175A",
  "abi": [
    {
      "inputs": [
        {
          "internalType": "address",
          "name": "safeEngine_",
          "type": "address"
        },
        {
          "internalType": "address",
          "name": "liquidationEngine_",
          "type": "address"
        },
        {
          "internalType": "address",
          "name": "oracle_",
          "type": "address"
        },
        {
          "internalType": "address",
          "name": "stablePro_",
          "type": "address"
        }
      ],
      "stateMutability": "nonpayable",
      "type": "constructor"
    },
    {
      "inputs": [
        {
          "internalType": "address",
          "name": "asset",
          "type": "address"
        }
      ],
      "name": "BadStablecoin",
      "type": "error"
    },
    {
      "anonymous": false,
      "inputs": [],
      "name": "DisableContract",
      "type": "event"
    },
    {
      "anonymous": false,
      "inputs": [
        {
          "indexed": false,
          "internalType": "uint256",
          "name": "amount",
          "type": "uint256"
        }
      ],
      "name": "StableProSwapped",
      "type": "event"
    },
    {
      "inputs": [
        {
          "internalType": "address",
          "name": "usr",
          "type": "address"
        }
      ],
      "name": "addAuthorization",
      "outputs": [],
      "stateMutability": "nonpayable",
      "type": "function"
    },
    {
      "inputs": [
        {
          "internalType": "address",
          "name": "",
          "type": "address"
        }
      ],
      "name": "authorizedAccounts",
      "outputs": [
        {
          "internalType": "uint256",
          "name": "",
          "type": "uint256"
        }
      ],
      "stateMutability": "view",
      "type": "function"
    },
    {
      "inputs": [],
      "name": "contractEnabled",
      "outputs": [
        {
          "internalType": "uint256",
          "name": "",
          "type": "uint256"
        }
      ],
      "stateMutability": "view",
      "type": "function"
    },
    {
      "inputs": [
        {
          "internalType": "uint256",
          "name": "",
          "type": "uint256"
        }
      ],
      "name": "debtQueue",
      "outputs": [
        {
          "internalType": "uint256",
          "name": "",
          "type": "uint256"
        }
      ],
      "stateMutability": "view",
      "type": "function"
    },
    {
      "inputs": [],
      "name": "disableContract",
      "outputs": [],
      "stateMutability": "nonpayable",
      "type": "function"
    },
    {
      "inputs": [],
      "name": "liquidationEngine",
      "outputs": [
        {
          "internalType": "contract ILiquidationEngine",
          "name": "",
          "type": "address"
        }
      ],
      "stateMutability": "view",
      "type": "function"
    },
    {
      "inputs": [],
      "name": "oracle",
      "outputs": [
        {
          "internalType": "contract ISuOracle",
          "name": "",
          "type": "address"
        }
      ],
      "stateMutability": "view",
      "type": "function"
    },
    {
      "inputs": [
        {
          "internalType": "uint256",
          "name": "era",
          "type": "uint256"
        }
      ],
      "name": "popDebtFromQueue",
      "outputs": [],
      "stateMutability": "nonpayable",
      "type": "function"
    },
    {
      "inputs": [
        {
          "internalType": "uint256",
          "name": "amountToRaise",
          "type": "uint256"
        }
      ],
      "name": "pushDebtToQueue",
      "outputs": [],
      "stateMutability": "nonpayable",
      "type": "function"
    },
    {
      "inputs": [
        {
          "internalType": "address",
          "name": "usr",
          "type": "address"
        }
      ],
      "name": "removeAuthorization",
      "outputs": [],
      "stateMutability": "nonpayable",
      "type": "function"
    },
    {
      "inputs": [],
      "name": "safeEngine",
      "outputs": [
        {
          "internalType": "contract ISafeEngine",
          "name": "",
          "type": "address"
        }
      ],
      "stateMutability": "view",
      "type": "function"
    },
    {
      "inputs": [],
      "name": "stablePro",
      "outputs": [
        {
          "internalType": "address",
          "name": "",
          "type": "address"
        }
      ],
      "stateMutability": "view",
      "type": "function"
    },
    {
      "inputs": [
        {
          "internalType": "address",
          "name": "stablecoinToken",
          "type": "address"
        },
        {
          "internalType": "uint256",
          "name": "stableProAmountE18",
          "type": "uint256"
        }
      ],
      "name": "swapStableProToStablecoin",
      "outputs": [],
      "stateMutability": "nonpayable",
      "type": "function"
    },
    {
      "inputs": [],
      "name": "totalQueuedDebt",
      "outputs": [
        {
          "internalType": "uint256",
          "name": "",
          "type": "uint256"
        }
      ],
      "stateMutability": "view",
      "type": "function"
    }
  ],
  "numDeployments": 2,
  "solcInputHash": "c51927dd277f1318ab9de6db4c2443ac",
  "bytecode": "0x6080346100cf57601f610ac238819003918201601f19168301916001600160401b038311848410176100d4578084926080946040528339810103126100cf57610047816100ea565b90610054602082016100ea565b61006c6060610065604085016100ea565b93016100ea565b90336000526000602052600160406000205560018060a01b03928380928160018060a01b0319971687600154161760015516856002541617600255168360035416176003551690600454161760045560016007556040516109c390816100ff8239f35b600080fd5b634e487b7160e01b600052604160045260246000fd5b51906001600160a01b03821682036100cf5756fe6080604081815260048036101561001557600080fd5b600092833560e01c90816324ba5884146107e1575080632d09f11d146107c257806335b281531461076f5780633977a3191461074857806341b3a0d91461072957806344bf3c7214610700578063550a1e00146103f857806367aea313146103cf5780637dc0d1d0146103a657838163894ba833146101eb575080638b24dc3e146101935783816394f3f81d1461014957508063a8b30a9f146100eb5763d46e50d0146100c157600080fd5b346100e757826003193601126100e7575490516001600160a01b03909116815260209150f35b8280fd5b5090346100e75760203660031901126100e7576101439135903384528360205261011a6001828620541461082f565b428452600560205261012f8282862054610963565b904285526005602052842055600654610963565b60065580f35b80843461019057602036600319011261019057610164610814565b3383528260205261017a6001838520541461082f565b6001600160a01b03168252602082905281205580f35b50fd5b509190346101e75760203660031901126101e757823560065481845260056020528284205481039081116101d4578394506006558252600560205281205580f35b634e487b7160e01b845260118552602484fd5b5080fd5b808484346103a257826003193601126103a25733835260208381526102156001848620541461082f565b61022360016007541461087b565b600784905560068490556001548351633eaf7a0360e21b815230848201526001600160a01b03909116918082602481865afa918215610398578692610369575b5084516311005b0760e01b815230858201528181602481875afa91821561035f57879261032d575b50508082116103255750905b803b156103215760248592855196879384926327a0bb3360e01b8452878401525af18015610317576102ec575b837f2d4b4ecff7bd7503135271925520a2f6c0d98c9473ffc1a1e72c92502f51b25e8180a180f35b6001600160401b0383116103045750528180806102c4565b634e487b7160e01b845260419052602483fd5b82513d86823e3d90fd5b8480fd5b905090610297565b90809250813d8311610358575b61034481836108d3565b810103126103545751878061028b565b8580fd5b503d61033a565b86513d89823e3d90fd5b9080925081813d8311610391575b61038181836108d3565b8101031261035457519087610263565b503d610377565b85513d88823e3d90fd5b5050fd5b5050346101e757816003193601126101e75760035490516001600160a01b039091168152602090f35b5050346101e757816003193601126101e75760015490516001600160a01b039091168152602090f35b508290346101e757826003193601126101e757610413610814565b9060249081359160018060a01b039384600254169487519563de51eefd60e01b875286828416918287830152818660209a8b935afa9081156106a25789916106d3575b50156106be57670de0b6b3a7640000918287029287840414871517156106ac5787816003541692868c5180958193631735856760e31b83528b8301525afa9182156106a257899261066f575b50811561065d5785548a516323b872dd60e01b8a8201908152338883015230604483015260648083018b905282526001600160401b0393909216919060a081018481118282101761064b578d52518b9283929083905af1610501610924565b8161061b575b50156105f3578951918883019363a9059cbb60e01b85523387850152046044830152604482526080820190828210908211176105e157895251879283929083905af1610551610924565b816105b1575b501561058a5750507f062234b32cab33fa5bcd957e318141fefab38cc79f25ec5b972be8392e98cb6c929351908152a180f35b855162461bcd60e51b81529182018490526002908201526114d560f21b6044820152606490fd5b805180159250869083156105c9575b50505087610557565b6105d9935082018101910161090c565b8785816105c0565b634e487b7160e01b8952604186528489fd5b895162461bcd60e51b81528087018990526003818701526229aa2360e91b6044820152606490fd5b8051801592508a908315610633575b5050508b610507565b610643935082018101910161090c565b8b898161062a565b634e487b7160e01b8d5260418a52888dfd5b634e487b7160e01b8952601286528489fd5b9091508781813d831161069b575b61068781836108d3565b810103126106975751908a6104a2565b8880fd5b503d61067d565b8a513d8b823e3d90fd5b634e487b7160e01b8952601186528489fd5b8484918a5191633935d9fb60e21b8352820152fd5b6106f39150883d8a116106f9575b6106eb81836108d3565b81019061090c565b8a610456565b503d6106e1565b5050346101e757816003193601126101e75760025490516001600160a01b039091168152602090f35b5050346101e757816003193601126101e7576020906007549051908152f35b50346100e75760203660031901126100e75760209282913581526005845220549051908152f35b5050346101e75760203660031901126101e75760019061078d610814565b338452836020526107a283838620541461082f565b6107af836007541461087b565b828060a01b031683528260205282205580f35b5050346101e757816003193601126101e7576020906006549051908152f35b849084346100e75760203660031901126100e7576020926001600160a01b03610808610814565b16815280845220548152f35b600435906001600160a01b038216820361082a57565b600080fd5b1561083657565b60405162461bcd60e51b815260206004820152601f60248201527f4163636f756e74696e67456e67696e652f6e6f742d617574686f72697a6564006044820152606490fd5b1561088257565b60405162461bcd60e51b8152602060048201526024808201527f4163636f756e74696e67456e67696e652f6e6f742d636f6e7472616374456e61604482015263189b195960e21b6064820152608490fd5b601f909101601f19168101906001600160401b038211908210176108f657604052565b634e487b7160e01b600052604160045260246000fd5b9081602091031261082a5751801515810361082a5790565b3d1561095e573d906001600160401b0382116108f65760405191610952601f8201601f1916602001846108d3565b82523d6000602084013e565b606090565b919082019182811161097757821061082a57565b634e487b7160e01b600052601160045260246000fdfea2646970667358221220278c5ce8ca506106f425971ab87339ff8e4b4d923599a3c9cd833d0730c801ae64736f6c63430008110033",
  "devdoc": {
    "kind": "dev",
    "methods": {
      "disableContract()": {
        "details": "When we disable, the contract tries to settle as much debt as possible (if there's any) with any surplus that's left in the system. After erasing debt, the contract will either transfer any remaining surplus right away (if disableCooldown == 0) or will only record the timestamp when it was disabled*"
      },
      "popDebtFromQueue(uint256)": {
        "params": {
          "era": "Timestamp of the block of debt that should be popped out"
        }
      },
      "pushDebtToQueue(uint256)": {
        "details": "Debt is locked in a queue to give the system enough time to auction collateral      and gather surplus",
        "params": {
          "amountToRaise": "Amount of debt to push"
        }
      }
    },
    "version": 1
  },
  "userdoc": {
    "kind": "user",
    "methods": {
      "disableContract()": {
        "notice": "Disable this contract (normally called by Global Settlement)"
      },
      "popDebtFromQueue(uint256)": {
        "notice": "A block of debt can be popped from the queue after popDebtDelay seconds passed since it was         added there"
      },
      "pushDebtToQueue(uint256)": {
        "notice": "Push debt (that the system tries to cover with collateral auctions) to a queue"
      }
    },
    "version": 1
  },
  "storageLayout": {
    "storage": [
      {
        "astId": 6350,
        "contract": "contracts/makerdao/externalContracts/AccountingEngine.sol:AccountingEngine",
        "label": "authorizedAccounts",
        "offset": 0,
        "slot": "0",
        "type": "t_mapping(t_address,t_uint256)"
      },
      {
        "astId": 6402,
        "contract": "contracts/makerdao/externalContracts/AccountingEngine.sol:AccountingEngine",
        "label": "safeEngine",
        "offset": 0,
        "slot": "1",
        "type": "t_contract(ISafeEngine)9549"
      },
      {
        "astId": 6405,
        "contract": "contracts/makerdao/externalContracts/AccountingEngine.sol:AccountingEngine",
        "label": "liquidationEngine",
        "offset": 0,
        "slot": "2",
        "type": "t_contract(ILiquidationEngine)9322"
      },
      {
        "astId": 6408,
        "contract": "contracts/makerdao/externalContracts/AccountingEngine.sol:AccountingEngine",
        "label": "oracle",
        "offset": 0,
        "slot": "3",
        "type": "t_contract(ISuOracle)10405"
      },
      {
        "astId": 6410,
        "contract": "contracts/makerdao/externalContracts/AccountingEngine.sol:AccountingEngine",
        "label": "stablePro",
        "offset": 0,
        "slot": "4",
        "type": "t_address"
      },
      {
        "astId": 6414,
        "contract": "contracts/makerdao/externalContracts/AccountingEngine.sol:AccountingEngine",
        "label": "debtQueue",
        "offset": 0,
        "slot": "5",
        "type": "t_mapping(t_uint256,t_uint256)"
      },
      {
        "astId": 6416,
        "contract": "contracts/makerdao/externalContracts/AccountingEngine.sol:AccountingEngine",
        "label": "totalQueuedDebt",
        "offset": 0,
        "slot": "6",
        "type": "t_uint256"
      },
      {
        "astId": 6418,
        "contract": "contracts/makerdao/externalContracts/AccountingEngine.sol:AccountingEngine",
        "label": "contractEnabled",
        "offset": 0,
        "slot": "7",
        "type": "t_uint256"
      }
    ],
    "types": {
      "t_address": {
        "encoding": "inplace",
        "label": "address",
        "numberOfBytes": "20"
      },
      "t_contract(ILiquidationEngine)9322": {
        "encoding": "inplace",
        "label": "contract ILiquidationEngine",
        "numberOfBytes": "20"
      },
      "t_contract(ISafeEngine)9549": {
        "encoding": "inplace",
        "label": "contract ISafeEngine",
        "numberOfBytes": "20"
      },
      "t_contract(ISuOracle)10405": {
        "encoding": "inplace",
        "label": "contract ISuOracle",
        "numberOfBytes": "20"
      },
      "t_mapping(t_address,t_uint256)": {
        "encoding": "mapping",
        "key": "t_address",
        "label": "mapping(address => uint256)",
        "numberOfBytes": "32",
        "value": "t_uint256"
      },
      "t_mapping(t_uint256,t_uint256)": {
        "encoding": "mapping",
        "key": "t_uint256",
        "label": "mapping(uint256 => uint256)",
        "numberOfBytes": "32",
        "value": "t_uint256"
      },
      "t_uint256": {
        "encoding": "inplace",
        "label": "uint256",
        "numberOfBytes": "32"
      }
    }
  }
}