{
  "address": "0x05aB43Ee768148a905366d0cF445B32906C0a301",
  "abi": [
    {
      "inputs": [],
      "name": "BadAccessControlSingleton",
      "type": "error"
    },
    {
      "inputs": [
        {
          "internalType": "address",
          "name": "sender",
          "type": "address"
        }
      ],
      "name": "BadSender",
      "type": "error"
    },
    {
      "inputs": [
        {
          "internalType": "address",
          "name": "lpToken",
          "type": "address"
        }
      ],
      "name": "LPTokenNotRegistered",
      "type": "error"
    },
    {
      "inputs": [
        {
          "internalType": "address",
          "name": "lpToken",
          "type": "address"
        }
      ],
      "name": "LPTokenNotSupported",
      "type": "error"
    },
    {
      "inputs": [
        {
          "internalType": "address",
          "name": "sender",
          "type": "address"
        }
      ],
      "name": "NotAPool",
      "type": "error"
    },
    {
      "inputs": [],
      "name": "OnlyAdminError",
      "type": "error"
    },
    {
      "inputs": [],
      "name": "OnlyAlerterError",
      "type": "error"
    },
    {
      "inputs": [],
      "name": "OnlyDAOError",
      "type": "error"
    },
    {
      "inputs": [],
      "name": "OnlyDisablerAccessError",
      "type": "error"
    },
    {
      "inputs": [],
      "name": "OnlyLiquidationAccessError",
      "type": "error"
    },
    {
      "inputs": [],
      "name": "OnlyMintAccessError",
      "type": "error"
    },
    {
      "inputs": [],
      "name": "OnlyRewardAccessError",
      "type": "error"
    },
    {
      "inputs": [],
      "name": "OnlyRoleError",
      "type": "error"
    },
    {
      "inputs": [],
      "name": "OnlyVaultAccessError",
      "type": "error"
    },
    {
      "inputs": [],
      "name": "SwapBy1InchError",
      "type": "error"
    },
    {
      "inputs": [],
      "name": "SwapByParaSwapError",
      "type": "error"
    },
    {
      "inputs": [],
      "name": "SwapNotProfitable",
      "type": "error"
    },
    {
      "anonymous": false,
      "inputs": [
        {
          "indexed": false,
          "internalType": "uint8",
          "name": "version",
          "type": "uint8"
        }
      ],
      "name": "Initialized",
      "type": "event"
    },
    {
      "inputs": [],
      "name": "ACCESS_CONTROL_SINGLETON",
      "outputs": [
        {
          "internalType": "contract ISuAccessControl",
          "name": "",
          "type": "address"
        }
      ],
      "stateMutability": "view",
      "type": "function"
    },
    {
      "inputs": [],
      "name": "ADMIN_ROLE",
      "outputs": [
        {
          "internalType": "bytes32",
          "name": "",
          "type": "bytes32"
        }
      ],
      "stateMutability": "view",
      "type": "function"
    },
    {
      "inputs": [],
      "name": "ALERTER_ROLE",
      "outputs": [
        {
          "internalType": "bytes32",
          "name": "",
          "type": "bytes32"
        }
      ],
      "stateMutability": "view",
      "type": "function"
    },
    {
      "inputs": [],
      "name": "CDP_ACCESS_ROLE",
      "outputs": [
        {
          "internalType": "bytes32",
          "name": "",
          "type": "bytes32"
        }
      ],
      "stateMutability": "view",
      "type": "function"
    },
    {
      "inputs": [],
      "name": "DAO_ROLE",
      "outputs": [
        {
          "internalType": "bytes32",
          "name": "",
          "type": "bytes32"
        }
      ],
      "stateMutability": "view",
      "type": "function"
    },
    {
      "inputs": [],
      "name": "DISABLER_ROLE",
      "outputs": [
        {
          "internalType": "bytes32",
          "name": "",
          "type": "bytes32"
        }
      ],
      "stateMutability": "view",
      "type": "function"
    },
    {
      "inputs": [],
      "name": "LIQUIDATION_ACCESS_ROLE",
      "outputs": [
        {
          "internalType": "bytes32",
          "name": "",
          "type": "bytes32"
        }
      ],
      "stateMutability": "view",
      "type": "function"
    },
    {
      "inputs": [],
      "name": "MINT_ACCESS_ROLE",
      "outputs": [
        {
          "internalType": "bytes32",
          "name": "",
          "type": "bytes32"
        }
      ],
      "stateMutability": "view",
      "type": "function"
    },
    {
      "inputs": [],
      "name": "REWARD_ACCESS_ROLE",
      "outputs": [
        {
          "internalType": "bytes32",
          "name": "",
          "type": "bytes32"
        }
      ],
      "stateMutability": "view",
      "type": "function"
    },
    {
      "inputs": [],
      "name": "SYSTEM_ROLE",
      "outputs": [
        {
          "internalType": "bytes32",
          "name": "",
          "type": "bytes32"
        }
      ],
      "stateMutability": "view",
      "type": "function"
    },
    {
      "inputs": [
        {
          "internalType": "bytes",
          "name": "data",
          "type": "bytes"
        },
        {
          "internalType": "uint256",
          "name": "newAmount",
          "type": "uint256"
        }
      ],
      "name": "changeCalldataAmount",
      "outputs": [
        {
          "internalType": "bytes",
          "name": "",
          "type": "bytes"
        }
      ],
      "stateMutability": "pure",
      "type": "function"
    },
    {
      "inputs": [
        {
          "internalType": "address",
          "name": "clipperExchange",
          "type": "address"
        },
        {
          "internalType": "address",
          "name": "srcToken",
          "type": "address"
        },
        {
          "internalType": "address",
          "name": "dstToken",
          "type": "address"
        },
        {
          "internalType": "uint256",
          "name": "inputAmount",
          "type": "uint256"
        },
        {
          "internalType": "uint256",
          "name": "outputAmount",
          "type": "uint256"
        },
        {
          "internalType": "uint256",
          "name": "goodUntil",
          "type": "uint256"
        },
        {
          "internalType": "bytes32",
          "name": "r",
          "type": "bytes32"
        },
        {
          "internalType": "bytes32",
          "name": "vs",
          "type": "bytes32"
        }
      ],
      "name": "clipperSwap",
      "outputs": [],
      "stateMutability": "pure",
      "type": "function"
    },
    {
      "inputs": [
        {
          "internalType": "address",
          "name": "_authControl",
          "type": "address"
        },
        {
          "internalType": "address",
          "name": "_exchange",
          "type": "address"
        }
      ],
      "name": "initialize",
      "outputs": [],
      "stateMutability": "nonpayable",
      "type": "function"
    },
    {
      "inputs": [
        {
          "internalType": "address",
          "name": "",
          "type": "address"
        }
      ],
      "name": "lpToAdapter",
      "outputs": [
        {
          "internalType": "contract ILPAdapter",
          "name": "",
          "type": "address"
        }
      ],
      "stateMutability": "view",
      "type": "function"
    },
    {
      "inputs": [
        {
          "internalType": "address",
          "name": "_lp",
          "type": "address"
        },
        {
          "internalType": "address",
          "name": "_lpAdapter",
          "type": "address"
        }
      ],
      "name": "registerLP",
      "outputs": [],
      "stateMutability": "nonpayable",
      "type": "function"
    },
    {
      "inputs": [
        {
          "internalType": "address",
          "name": "asset",
          "type": "address"
        },
        {
          "internalType": "uint256",
          "name": "amount",
          "type": "uint256"
        },
        {
          "internalType": "address",
          "name": "sender",
          "type": "address"
        },
        {
          "internalType": "bytes",
          "name": "data",
          "type": "bytes"
        }
      ],
      "name": "stableunitFillOrderCallback",
      "outputs": [
        {
          "internalType": "bool",
          "name": "",
          "type": "bool"
        }
      ],
      "stateMutability": "nonpayable",
      "type": "function"
    },
    {
      "inputs": [
        {
          "internalType": "bytes4",
          "name": "interfaceId",
          "type": "bytes4"
        }
      ],
      "name": "supportsInterface",
      "outputs": [
        {
          "internalType": "bool",
          "name": "",
          "type": "bool"
        }
      ],
      "stateMutability": "view",
      "type": "function"
    },
    {
      "inputs": [
        {
          "internalType": "address",
          "name": "",
          "type": "address"
        },
        {
          "components": [
            {
              "internalType": "address",
              "name": "srcToken",
              "type": "address"
            },
            {
              "internalType": "address",
              "name": "dstToken",
              "type": "address"
            },
            {
              "internalType": "address",
              "name": "srcReceiver",
              "type": "address"
            },
            {
              "internalType": "address",
              "name": "dstReceiver",
              "type": "address"
            },
            {
              "internalType": "uint256",
              "name": "amount",
              "type": "uint256"
            },
            {
              "internalType": "uint256",
              "name": "minReturnAmount",
              "type": "uint256"
            },
            {
              "internalType": "uint256",
              "name": "flags",
              "type": "uint256"
            }
          ],
          "internalType": "struct SwapDescription",
          "name": "",
          "type": "tuple"
        },
        {
          "internalType": "bytes",
          "name": "",
          "type": "bytes"
        },
        {
          "internalType": "bytes",
          "name": "",
          "type": "bytes"
        }
      ],
      "name": "swap",
      "outputs": [],
      "stateMutability": "pure",
      "type": "function"
    },
    {
      "inputs": [
        {
          "internalType": "uint256",
          "name": "orderId",
          "type": "uint256"
        },
        {
          "internalType": "address",
          "name": "token2sell",
          "type": "address"
        },
        {
          "internalType": "uint256",
          "name": "token2sellAmount",
          "type": "uint256"
        },
        {
          "components": [
            {
              "internalType": "address",
              "name": "contractAddress",
              "type": "address"
            },
            {
              "internalType": "bytes",
              "name": "data",
              "type": "bytes"
            },
            {
              "internalType": "address",
              "name": "token",
              "type": "address"
            }
          ],
          "internalType": "struct InchData[]",
          "name": "inchData",
          "type": "tuple[]"
        }
      ],
      "name": "swapLPWithFlashLoan",
      "outputs": [],
      "stateMutability": "nonpayable",
      "type": "function"
    },
    {
      "inputs": [
        {
          "internalType": "uint256",
          "name": "orderId",
          "type": "uint256"
        },
        {
          "internalType": "address",
          "name": "token2sell",
          "type": "address"
        },
        {
          "internalType": "uint256",
          "name": "token2sellAmount",
          "type": "uint256"
        },
        {
          "components": [
            {
              "internalType": "address",
              "name": "contractAddress",
              "type": "address"
            },
            {
              "internalType": "bytes",
              "name": "data",
              "type": "bytes"
            },
            {
              "internalType": "address",
              "name": "token",
              "type": "address"
            }
          ],
          "internalType": "struct InchData",
          "name": "inchData",
          "type": "tuple"
        }
      ],
      "name": "swapWithFlashLoan",
      "outputs": [],
      "stateMutability": "nonpayable",
      "type": "function"
    },
    {
      "inputs": [
        {
          "internalType": "uint256",
          "name": "",
          "type": "uint256"
        },
        {
          "internalType": "uint256",
          "name": "",
          "type": "uint256"
        },
        {
          "internalType": "uint256[]",
          "name": "",
          "type": "uint256[]"
        }
      ],
      "name": "uniswapV3Swap",
      "outputs": [],
      "stateMutability": "pure",
      "type": "function"
    },
    {
      "inputs": [
        {
          "internalType": "address",
          "name": "",
          "type": "address"
        },
        {
          "internalType": "uint256",
          "name": "",
          "type": "uint256"
        },
        {
          "internalType": "uint256",
          "name": "",
          "type": "uint256"
        },
        {
          "internalType": "uint256[]",
          "name": "",
          "type": "uint256[]"
        }
      ],
      "name": "unoswap",
      "outputs": [],
      "stateMutability": "pure",
      "type": "function"
    }
  ],
  "numDeployments": 2,
  "solcInputHash": "a7b485a60b324a39edc963d60a5bb5a0",
  "bytecode": "0x6080806040523461001657611d91908161001c8239f35b600080fdfe608080604052600436101561001357600080fd5b60003560e01c90816301ffc9a7146111e95750806303ee9f22146111bc5780630502b1c51461118357806312aa3caf146111205780631e611306146110c9578063438280dd1461108e578063485cc95514610e3e5780634dec53e014610e035780636a2f53c2146106e457806371d0fb41146106a957806374cc2bdd1461060b57806375071d2a146105d057806375b238fc146105b457806384bd6d29146105885780638e5313e01461054d578063943a0f13146103ca578063bd5f5be61461038f578063d2351cee14610354578063dc97e84e14610319578063e37c74a114610183578063e449022e146101515763e9c265181461011157600080fd5b3461014c57600036600319011261014c5760206040517f3b5d4cc60d3ec3516ee8ae083bd60934f6eb2a6c54b1229985c41bfb092b26038152f35b600080fd5b3461014c57606036600319011261014c576044356001600160401b03811161014c576101819036906004016112ca565b005b3461014c57608036600319011261014c5760043561019f61128a565b90604435906001600160401b039060643582811161014c576101c590369060040161144f565b90604051946040860186811085821117610223576040526001865260005b6020908181101561023957604051606092838201938285108986111761022357602094604052600083528183015260006040830152828a010152016101e3565b634e487b7160e01b600052604160045260246000fd5b836102d9846102ae8b8b8a61024d8361159a565b526102578261159a565b506001546040516001600160a01b039791881693600092916102bc9161027c8261136f565b84825260209a8b99858b85015216604083015285606083015233608083015260a08201526040519687918983016115d1565b03601f1981018752866113a5565b604051637176836f60e11b815296879586948593600485016116a5565b03925af1801561030d576102e957005b813d8311610306575b6102fc81836113a5565b8101031261014c57005b503d6102f2565b6040513d6000823e3d90fd5b3461014c57600036600319011261014c5760206040517f9a9aef7c1247d5fc769b0185c052913e39673da29a880317dfd20ebf86f26a498152f35b3461014c57600036600319011261014c5760206040517fb0fdd1623e42dbffda4acd8bd643e1cb69f00f0e83abeaa8150ee42cf0fd105e8152f35b3461014c57600036600319011261014c5760206040517f4f14c8366fa999817edc9f29824eb88a00cc31225e2156f399da4bc91049eb108152f35b3461014c57604036600319011261014c576103e3611274565b6103eb61128a565b9060018060a01b03908160005460101c16926040518094632474521560e21b82526000600483015233602483015281604460209788935afa90811561030d57600091610520575b501561050e5782169181166000526002835260406000208260018060a01b0319825416179055604051908382019263095ea7b360e01b84526024830152600019604483015260448252608082019282841060018060401b03851117610223576000809493819460405251925af16104a761156a565b816104de575b50156104b557005b6064906040519062461bcd60e51b825260048201526002602482015261534160f01b6044820152fd5b805180159250839083156104f6575b505050826104ad565b6105069350820181019101611537565b8282816104ed565b604051631886ea7d60e11b8152600490fd5b6105409150853d8711610546575b61053881836113a5565b810190611537565b85610432565b503d61052e565b3461014c57600036600319011261014c5760206040517fe453bacb314e78dcd5192e6b1a2b1f0e7c76e92f6b7e429a6a90f04e39db3b768152f35b3461014c5761010036600319011261014c576105a2611274565b506105ab61128a565b506101816112a0565b3461014c57600036600319011261014c57602060405160008152f35b3461014c57600036600319011261014c5760206040517f5719df9ef2c4678b547f89e4f5ae410dbf400fc51cf3ded434c55f6adea2c43f8152f35b3461014c57608036600319011261014c5760043561062761128a565b604435906064356001600160401b03811161014c576102d9926106516102ae9236906004016114b7565b6001546040516001600160a01b03979188169392600092916102bc916106768261136f565b6001825260209a8b99858b85015216604083015285606083015233608083015260a08201526040519687918983016115d1565b3461014c57600036600319011261014c5760206040517f880a91047114272656e533301261260c75e4d11543ac7303d6fe4204579ec7278152f35b3461014c57608036600319011261014c576106fd611274565b6107056112a0565b906064356001600160401b03811161014c576107259036906004016112fa565b8101929060208185031261014c578035906001600160401b03821161014c570160c08185031261014c576040519360c085016001600160401b03811186821017610223576040528135801515810361014c5785526020820135602086015261078f604083016112b6565b6040860152606082013560608601526107aa608083016112b6565b608086015260a08201356001600160401b03811161014c576107cc92016114b7565b60a08401526001546001600160a01b03163303610deb576001600160a01b0316308103610dd357506040516370a0823160e01b8152306004820152906020826024816001600160a01b0385165afa91821561030d57600092610d9f575b50825115610d51576040838101516001600160a01b039081166000908152600260205291909120541615610d2a57604083810180516001600160a01b039081166000908152600260209081528482205493519451635136211760e01b8152948316600486015292849260249284929091165af190811561030d57600091610d0b575b5015610ce457604080840180516001600160a01b03908116600090815260026020528381205492516060880151945163f3fef3a360e01b81529795949193889390811692849286928492610905929091166004840161154f565b03925af193841561030d57600094610be9575b5060a0820151519184519460005b8661ffff82161015610b0e576001600160a01b0361094861ffff8316846115bd565b51511690602061095c61ffff8316856115bd565b5101516001600160a01b0386168303610980575b5061097b91506116c1565b610926565b868903610a35576109e29060018060a01b036109a461ffff851660a08901516115bd565b515116600060206109bd61ffff871660a08b01516115bd565b51015160405180958192630f30898360e11b835260406004840152604483019061134a565b8560248301520381305afa91821561030d5761097b95610a0a94600094610a10575b50611801565b88610970565b610a2e9194503d806000833e610a2681836113a5565b8101906116ea565b928d610a04565b94919790959660005b8861ffff82161015610afd576001600160a01b03610a6061ffff8a16876115bd565b51511660018060a01b036040610a7e61ffff851660a08b01516115bd565b5101511614610a9557610a90906116c1565b610a3e565b95610ad191989792999396600060206109bd61ffff60018060a01b03610ac28c60a08489169101516115bd565b515116941660a08b01516115bd565b8560248301520381305afa91821561030d5761097b95610af894600094610a105750611801565b610a0a565b50969590975061097b919450610a0a565b505092915092505b6040516370a0823160e01b8152306004820152906020826024816001600160a01b0388165afa801561030d57600090610bb5575b610b549250611748565b9160243591828410610ba357610b85610b7084610b9896611748565b6001549094906001600160a01b031684611755565b608001516001600160a01b031690611755565b602060405160018152f35b60405163510a529560e01b8152600490fd5b506020823d602011610be1575b81610bcf602093836113a5565b8101031261014c57610b549151610b4a565b3d9150610bc2565b9093503d806000833e610bfc81836113a5565b602082828101031261014c578151906001600160401b03821161014c57808301601f83850101121561014c578183015190610c36826113c8565b93610c4460405195866113a5565b828552602085019382820160208560061b83850101011161014c5793602085830101945b60208560061b82850101018610610c86575050505050509284610918565b604086858501031261014c57604080519081018082116001600160401b0390911117610223576040818101905286516001600160a01b038116810361014c5760209382859260409452828a0151838201528152019601959150610c68565b60408381015190516325eadd2560e01b81526001600160a01b039091166004820152602490fd5b610d24915060203d6020116105465761053881836113a5565b846108ab565b6040838101519051637d250b0b60e11b81526001600160a01b039091166004820152602490fd5b6040830151606084015160a085015192949392610d9a926001600160a01b039081169291610d7e9061159a565b515116906020610d9160a088015161159a565b51015192611801565b610b16565b9091506020813d602011610dcb575b81610dbb602093836113a5565b8101031261014c57519083610829565b3d9150610dae565b60249060405190637d85130d60e11b82526004820152fd5b60405163e372835960e01b8152336004820152602490fd5b3461014c57602036600319011261014c5760206001600160a01b0380610e27611274565b166000526002825260406000205416604051908152f35b3461014c57604036600319011261014c57610e57611274565b610e5f61128a565b60005460ff8160081c161590818092611081575b801561106a575b1561100e5760ff19811660011760005581610ffc575b506000549160ff8360081c1615610fa35762010000600160b01b03601085901b1662010000600160b01b031984168117600055936001600160a01b03919082168015159081610f46575b50610f34571660018060a01b03196001541617600155610ef657005b610100600160b01b03191617600055604051600181527f7f26b83ff96e1f2b6a682f133852f6798a09c465da95921460cefb384740249890602090a1005b6040516384d942fd60e01b8152600490fd5b6040516301ffc9a760e01b8152637965db0b60e01b60048201529150602090829060249082905afa90811561030d57600091610f85575b501586610eda565b610f9d915060203d81116105465761053881836113a5565b86610f7d565b60405162461bcd60e51b815260206004820152602b60248201527f496e697469616c697a61626c653a20636f6e7472616374206973206e6f74206960448201526a6e697469616c697a696e6760a81b6064820152608490fd5b61ffff19166101011760005583610e90565b60405162461bcd60e51b815260206004820152602e60248201527f496e697469616c697a61626c653a20636f6e747261637420697320616c72656160448201526d191e481a5b9a5d1a585b1a5e995960921b6064820152608490fd5b50303b158015610e7a5750600160ff821614610e7a565b50600160ff821610610e73565b3461014c57600036600319011261014c5760206040517f39f61ca2a1a28fee144218173ec637b649a353e4026b2738c673800e5bf1437b8152f35b3461014c57604036600319011261014c576004356001600160401b03811161014c576111086110ff61111c9236906004016112fa565b6024359161195f565b60405191829160208352602083019061134a565b0390f35b3461014c5761014036600319011261014c5761113a611274565b5060e036602319011261014c576001600160401b036101043581811161014c576111689036906004016112fa565b50506101243590811161014c576101819036906004016112fa565b3461014c57608036600319011261014c5761119c611274565b506064356001600160401b03811161014c576101819036906004016112ca565b3461014c57600036600319011261014c5760005460405160109190911c6001600160a01b03168152602090f35b3461014c57602036600319011261014c5760043563ffffffff60e01b811680910361014c576000546301ffc9a760e01b835260048301919091526020908290602490829060101c6001600160a01b03165afa801561030d57602091600091611257575b506040519015158152f35b61126e9150823d81116105465761053881836113a5565b8261124c565b600435906001600160a01b038216820361014c57565b602435906001600160a01b038216820361014c57565b604435906001600160a01b038216820361014c57565b35906001600160a01b038216820361014c57565b9181601f8401121561014c578235916001600160401b03831161014c576020808501948460051b01011161014c57565b9181601f8401121561014c578235916001600160401b03831161014c576020838186019501011161014c57565b60005b83811061133a5750506000910152565b818101518382015260200161132a565b9060209161136381518092818552858086019101611327565b601f01601f1916010190565b60c081019081106001600160401b0382111761022357604052565b60e081019081106001600160401b0382111761022357604052565b601f909101601f19168101906001600160401b0382119082101761022357604052565b6001600160401b0381116102235760051b60200190565b6001600160401b03811161022357601f01601f191660200190565b929192611406826113df565b9161141460405193846113a5565b82948184528183011161014c578281602093846000960137010152565b9080601f8301121561014c5781602061144c933591016113fa565b90565b91909160608184031261014c57604051906001600160401b036060830181811184821017610223576040528294611485836112b6565b8452602083013591821161014c57826114a7604094926114b294869401611431565b6020860152016112b6565b910152565b9080601f8301121561014c578135906114cf826113c8565b926114dd60405194856113a5565b828452602092838086019160051b8301019280841161014c57848301915b84831061150b5750505050505090565b82356001600160401b03811161014c57869161152c8484809489010161144f565b8152019201916114fb565b9081602091031261014c5751801515810361014c5790565b6001600160a01b039091168152602081019190915260400190565b3d15611595573d9061157b826113df565b9161158960405193846113a5565b82523d6000602084013e565b606090565b8051156115a75760200190565b634e487b7160e01b600052603260045260246000fd5b80518210156115a75760209160051b010190565b602080825260e0820190835115158184015280840151926040938482015260018060a01b039360a08582880151169660609788850152878101516080850152866080820151168285015201519560c08084015286518095526101009184838501938760051b8601019801966000945b8786106116535750505050505050505090565b909192939495969798878060019260ff198582030189528c519086825116815287878161168b868601518d888701528d86019061134a565b940151169101529b01960196019497969593929190611640565b61144c939260609282526020820152816040820152019061134a565b61ffff8091169081146116d45760010190565b634e487b7160e01b600052601160045260246000fd5b60208183031261014c578051906001600160401b03821161014c570181601f8201121561014c57805161171c816113df565b9261172a60405194856113a5565b8184526020828401011161014c5761144c9160208085019101611327565b919082039182116116d457565b600092918361178061178e8295604051928391602083019663a9059cbb60e01b88526024840161154f565b03601f1981018352826113a5565b51925af161179a61156a565b816117d2575b50156117a857565b60405162461bcd60e51b815260206004820152600260248201526114d560f21b6044820152606490fd5b80518015925082156117e7575b5050386117a0565b6117fa9250602080918301019101611537565b38806117df565b929060405161182681611780602082019463095ea7b360e01b8652876024840161154f565b600094859283809351925af161183a61156a565b8161189e575b501561187457829182602083519301915af161185a61156a565b501561186257565b604051635aa0560760e11b8152600490fd5b60405162461bcd60e51b8152602060048201526002602482015261534160f01b6044820152606490fd5b80518015925082156118b3575b505038611840565b6118c69250602080918301019101611537565b38806118ab565b81601f8201121561014c578035916118e4836113c8565b926118f260405194856113a5565b808452602092838086019260051b82010192831161014c578301905b82821061191c575050505090565b8135815290830190830161190e565b90815180825260208080930193019160005b82811061194b575050505090565b83518552938101939281019260010161193d565b906004818111938461014c5783356001600160e01b03191694637224811760e11b808714611ce85750630502b1c560e01b868114611c6457506312aa3caf60e01b8614611a8b576384bd6d2960e01b9586146119c45750505061144c925036916113fa565b939290919361014c57610100908301839003600319011261014c576119ea8383016112b6565b6119f6602484016112b6565b90611a03604485016112b6565b9060405196602088015260018060a01b03928380921660248901521660448701521660648501526084840152600160a484015260a481013560c484015260c481013560e484015260e461010491013581840152825261014082019082821060018060401b03831117611a76575060405290565b604190634e487b7160e01b6000525260246000fd5b90929193945061014c578301918383039161014060031984011261014c5760e0611ab68387016112b6565b93602319011261014c5760405190611acd8261138a565b611ad9602487016112b6565b8252611ae7604487016112b6565b9560208301968752611afb606482016112b6565b60408401908152611b0e608483016112b6565b6060850190815260a4830135608086015260c483013560a086015260e483013560c086019081526001600160401b03949161010485013586811161014c578a89611b5a92880101611431565b9461012481013596871161014c5761144c9a61178099611c5198611b7f930101611431565b96519a519351905191516040519b90946001600160a01b0393841693928316929081169116611bad8d61138a565b8c526020808d019182526040808e0193845260608e0194855260808e01958652600160a08f0190815260c08f0197885290516312aa3caf60e01b928101929092526001600160a01b039b8c1660248301529c518b16604482015290518a166064820152905189166084820152905190971660a48801525160c4870152965160e48601529551610104850152610140610124850152929485939061016485019061134a565b838103602319016101448501529061134a565b93919294955061014c578401906080858303600319011261014c57611c8a8486016112b6565b946064810135926001600160401b03841161014c5761144c9561178094611cb29301016118cd565b90604051958694602086015260018060a01b031660248501526044840152600160648401526080608484015260a483019061192b565b94939195505060009083019260606003198286030112611d57576044810135916001600160401b038311611d5457509261178092611d2c9261144c969501016118cd565b604051948593602085015260248401526001604484015260606064840152608483019061192b565b80fd5b5080fdfea264697066735822122071cd9f4521e8ee2da6bd8066a3d0fab06193c664251f0363a9de94946829661064736f6c63430008110033",
  "devdoc": {
    "details": "See IArbitrageHelper interface for full details.",
    "kind": "dev",
    "methods": {
      "changeCalldataAmount(bytes,uint256)": {
        "params": {
          "data": "- calldata to edit",
          "newAmount": "- new amount that should replace amount in {data}"
        },
        "returns": {
          "_0": "edited calldata with new amount inside*"
        }
      },
      "stableunitFillOrderCallback(address,uint256,address,bytes)": {
        "details": "behaviour like in uniswapV3FlashCallback: https://docs.uniswap.org/contracts/v3/guides/flash-integrations/flash-callback and AAVE flash-loan callback: https://github.com/aave/aave-v3-core/blob/master/contracts/flashloan/interfaces/IFlashLoanSimpleReceiver.sol*"
      },
      "supportsInterface(bytes4)": {
        "details": "Returns true if this contract implements the interface defined by `interfaceId`. See the corresponding https://eips.ethereum.org/EIPS/eip-165#how-interfaces-are-identified[EIP section] to learn more about how these ids are created. This function call must use less than 30 000 gas."
      },
      "swapLPWithFlashLoan(uint256,address,uint256,(address,bytes,address)[])": {
        "details": "Contract receive LP-token from exchange module, unwrap it and swap with 1inch all underline tokens to token that exchange module need.",
        "params": {
          "inchData": "- 1inch callData and contract array to swap every underline token of LP*",
          "orderId": "- Id of order in Exchange module to fill",
          "token2sell": "- Token in order to get as flash-loan",
          "token2sellAmount": "- Amount of token in order to get as flash-loan"
        }
      },
      "swapWithFlashLoan(uint256,address,uint256,(address,bytes,address))": {
        "details": "Contract receive loan from exchange module, sell it on 1inch and get profit = received amount - fee",
        "params": {
          "inchData": "- 1inch callData and contract to swap loan*",
          "orderId": "- Id of order in Exchange module to fill",
          "token2sell": "- Token in order to get as flash-loan",
          "token2sellAmount": "- Amount of token in order to get as flash-loan"
        }
      }
    },
    "title": "ArbitrageHelper",
    "version": 1
  },
  "userdoc": {
    "kind": "user",
    "methods": {
      "changeCalldataAmount(bytes,uint256)": {
        "notice": "Helper function to change amount parameter on callback that depends on return by 1inch API calldata for swap We set minAmount to 1 to be sure, that swap will be created. Route path don't depend on that - this path was calculated previously in backend part and is stored in {data}."
      },
      "stableunitFillOrderCallback(address,uint256,address,bytes)": {
        "notice": "This is callback function from Exchange contract. fillOrderAsFlashLoan call (msg.sender).executeOperation(...) after transferring loan to sender"
      },
      "swapLPWithFlashLoan(uint256,address,uint256,(address,bytes,address)[])": {
        "notice": "The same as swapWithFlashLoan, but loan is LP-token that we need to unwrap"
      },
      "swapWithFlashLoan(uint256,address,uint256,(address,bytes,address))": {
        "notice": "Reference implementation of Arbitrage bot contract, that use Exchange module to get profit"
      },
      "uniswapV3Swap(uint256,uint256,uint256[])": {
        "notice": "We need this functions to check their selector and functionSelector in calldata for changeCalldataAmount() function*"
      }
    },
    "notice": "Helper contract to arbitrage using Exchange module",
    "version": 1
  },
  "storageLayout": {
    "storage": [
      {
        "astId": 672,
        "contract": "contracts/exchange/contracts/ArbitrageHelper.sol:ArbitrageHelper",
        "label": "_initialized",
        "offset": 0,
        "slot": "0",
        "type": "t_uint8"
      },
      {
        "astId": 675,
        "contract": "contracts/exchange/contracts/ArbitrageHelper.sol:ArbitrageHelper",
        "label": "_initializing",
        "offset": 1,
        "slot": "0",
        "type": "t_bool"
      },
      {
        "astId": 33300,
        "contract": "contracts/exchange/contracts/ArbitrageHelper.sol:ArbitrageHelper",
        "label": "ACCESS_CONTROL_SINGLETON",
        "offset": 2,
        "slot": "0",
        "type": "t_contract(ISuAccessControl)37381"
      },
      {
        "astId": 18277,
        "contract": "contracts/exchange/contracts/ArbitrageHelper.sol:ArbitrageHelper",
        "label": "EXCHANGE",
        "offset": 0,
        "slot": "1",
        "type": "t_contract(IExchange)20197"
      },
      {
        "astId": 18282,
        "contract": "contracts/exchange/contracts/ArbitrageHelper.sol:ArbitrageHelper",
        "label": "lpToAdapter",
        "offset": 0,
        "slot": "2",
        "type": "t_mapping(t_address,t_contract(ILPAdapter)37442)"
      },
      {
        "astId": 18791,
        "contract": "contracts/exchange/contracts/ArbitrageHelper.sol:ArbitrageHelper",
        "label": "__gap",
        "offset": 0,
        "slot": "3",
        "type": "t_array(t_uint256)45_storage"
      }
    ],
    "types": {
      "t_address": {
        "encoding": "inplace",
        "label": "address",
        "numberOfBytes": "20"
      },
      "t_array(t_uint256)45_storage": {
        "base": "t_uint256",
        "encoding": "inplace",
        "label": "uint256[45]",
        "numberOfBytes": "1440"
      },
      "t_bool": {
        "encoding": "inplace",
        "label": "bool",
        "numberOfBytes": "1"
      },
      "t_contract(IExchange)20197": {
        "encoding": "inplace",
        "label": "contract IExchange",
        "numberOfBytes": "20"
      },
      "t_contract(ILPAdapter)37442": {
        "encoding": "inplace",
        "label": "contract ILPAdapter",
        "numberOfBytes": "20"
      },
      "t_contract(ISuAccessControl)37381": {
        "encoding": "inplace",
        "label": "contract ISuAccessControl",
        "numberOfBytes": "20"
      },
      "t_mapping(t_address,t_contract(ILPAdapter)37442)": {
        "encoding": "mapping",
        "key": "t_address",
        "label": "mapping(address => contract ILPAdapter)",
        "numberOfBytes": "32",
        "value": "t_contract(ILPAdapter)37442"
      },
      "t_uint256": {
        "encoding": "inplace",
        "label": "uint256",
        "numberOfBytes": "32"
      },
      "t_uint8": {
        "encoding": "inplace",
        "label": "uint8",
        "numberOfBytes": "1"
      }
    }
  }
}