{
  "address": "0xFfbe287c5e00FB31877d1F61D7d5296db265E032",
  "abi": [
    {
      "inputs": [],
      "name": "BadAccessControlSingleton",
      "type": "error"
    },
    {
      "inputs": [
        {
          "internalType": "address",
          "name": "sender",
          "type": "address"
        }
      ],
      "name": "BadSender",
      "type": "error"
    },
    {
      "inputs": [
        {
          "internalType": "address",
          "name": "lpToken",
          "type": "address"
        }
      ],
      "name": "LPTokenNotRegistered",
      "type": "error"
    },
    {
      "inputs": [
        {
          "internalType": "address",
          "name": "lpToken",
          "type": "address"
        }
      ],
      "name": "LPTokenNotSupported",
      "type": "error"
    },
    {
      "inputs": [
        {
          "internalType": "address",
          "name": "sender",
          "type": "address"
        }
      ],
      "name": "NotAPool",
      "type": "error"
    },
    {
      "inputs": [],
      "name": "OnlyAdminError",
      "type": "error"
    },
    {
      "inputs": [],
      "name": "OnlyAlerterError",
      "type": "error"
    },
    {
      "inputs": [],
      "name": "OnlyDAOError",
      "type": "error"
    },
    {
      "inputs": [],
      "name": "OnlyDisablerAccessError",
      "type": "error"
    },
    {
      "inputs": [],
      "name": "OnlyLiquidationAccessError",
      "type": "error"
    },
    {
      "inputs": [],
      "name": "OnlyMintAccessError",
      "type": "error"
    },
    {
      "inputs": [],
      "name": "OnlyRewardAccessError",
      "type": "error"
    },
    {
      "inputs": [],
      "name": "OnlyRoleError",
      "type": "error"
    },
    {
      "inputs": [],
      "name": "OnlyVaultAccessError",
      "type": "error"
    },
    {
      "inputs": [],
      "name": "OnlyVotingEscrowError",
      "type": "error"
    },
    {
      "inputs": [],
      "name": "SwapBy1InchError",
      "type": "error"
    },
    {
      "inputs": [],
      "name": "SwapByParaSwapError",
      "type": "error"
    },
    {
      "inputs": [
        {
          "internalType": "uint256",
          "name": "diffAmount",
          "type": "uint256"
        }
      ],
      "name": "SwapNotProfitable",
      "type": "error"
    },
    {
      "anonymous": false,
      "inputs": [
        {
          "indexed": false,
          "internalType": "uint8",
          "name": "version",
          "type": "uint8"
        }
      ],
      "name": "Initialized",
      "type": "event"
    },
    {
      "inputs": [],
      "name": "ACCESS_CONTROL_SINGLETON",
      "outputs": [
        {
          "internalType": "contract ISuAccessControl",
          "name": "",
          "type": "address"
        }
      ],
      "stateMutability": "view",
      "type": "function"
    },
    {
      "inputs": [],
      "name": "ADMIN_ROLE",
      "outputs": [
        {
          "internalType": "bytes32",
          "name": "",
          "type": "bytes32"
        }
      ],
      "stateMutability": "view",
      "type": "function"
    },
    {
      "inputs": [],
      "name": "ALERTER_ROLE",
      "outputs": [
        {
          "internalType": "bytes32",
          "name": "",
          "type": "bytes32"
        }
      ],
      "stateMutability": "view",
      "type": "function"
    },
    {
      "inputs": [],
      "name": "CDP_ACCESS_ROLE",
      "outputs": [
        {
          "internalType": "bytes32",
          "name": "",
          "type": "bytes32"
        }
      ],
      "stateMutability": "view",
      "type": "function"
    },
    {
      "inputs": [],
      "name": "DAO_ROLE",
      "outputs": [
        {
          "internalType": "bytes32",
          "name": "",
          "type": "bytes32"
        }
      ],
      "stateMutability": "view",
      "type": "function"
    },
    {
      "inputs": [],
      "name": "DISABLER_ROLE",
      "outputs": [
        {
          "internalType": "bytes32",
          "name": "",
          "type": "bytes32"
        }
      ],
      "stateMutability": "view",
      "type": "function"
    },
    {
      "inputs": [],
      "name": "LIQUIDATION_ACCESS_ROLE",
      "outputs": [
        {
          "internalType": "bytes32",
          "name": "",
          "type": "bytes32"
        }
      ],
      "stateMutability": "view",
      "type": "function"
    },
    {
      "inputs": [],
      "name": "MINT_ACCESS_ROLE",
      "outputs": [
        {
          "internalType": "bytes32",
          "name": "",
          "type": "bytes32"
        }
      ],
      "stateMutability": "view",
      "type": "function"
    },
    {
      "inputs": [],
      "name": "REWARD_ACCESS_ROLE",
      "outputs": [
        {
          "internalType": "bytes32",
          "name": "",
          "type": "bytes32"
        }
      ],
      "stateMutability": "view",
      "type": "function"
    },
    {
      "inputs": [],
      "name": "VOTING_ESCROW_ROLE",
      "outputs": [
        {
          "internalType": "bytes32",
          "name": "",
          "type": "bytes32"
        }
      ],
      "stateMutability": "view",
      "type": "function"
    },
    {
      "inputs": [
        {
          "internalType": "bytes",
          "name": "data",
          "type": "bytes"
        },
        {
          "internalType": "uint256",
          "name": "newAmount",
          "type": "uint256"
        }
      ],
      "name": "changeCalldataAmount",
      "outputs": [
        {
          "internalType": "bytes",
          "name": "",
          "type": "bytes"
        }
      ],
      "stateMutability": "pure",
      "type": "function"
    },
    {
      "inputs": [
        {
          "internalType": "address",
          "name": "clipperExchange",
          "type": "address"
        },
        {
          "internalType": "address",
          "name": "srcToken",
          "type": "address"
        },
        {
          "internalType": "address",
          "name": "dstToken",
          "type": "address"
        },
        {
          "internalType": "uint256",
          "name": "inputAmount",
          "type": "uint256"
        },
        {
          "internalType": "uint256",
          "name": "outputAmount",
          "type": "uint256"
        },
        {
          "internalType": "uint256",
          "name": "goodUntil",
          "type": "uint256"
        },
        {
          "internalType": "bytes32",
          "name": "r",
          "type": "bytes32"
        },
        {
          "internalType": "bytes32",
          "name": "vs",
          "type": "bytes32"
        }
      ],
      "name": "clipperSwap",
      "outputs": [],
      "stateMutability": "pure",
      "type": "function"
    },
    {
      "inputs": [
        {
          "internalType": "address",
          "name": "_authControl",
          "type": "address"
        },
        {
          "internalType": "address",
          "name": "_exchange",
          "type": "address"
        }
      ],
      "name": "initialize",
      "outputs": [],
      "stateMutability": "nonpayable",
      "type": "function"
    },
    {
      "inputs": [
        {
          "internalType": "address",
          "name": "",
          "type": "address"
        }
      ],
      "name": "lpToAdapter",
      "outputs": [
        {
          "internalType": "contract ILPAdapter",
          "name": "",
          "type": "address"
        }
      ],
      "stateMutability": "view",
      "type": "function"
    },
    {
      "inputs": [
        {
          "internalType": "address",
          "name": "_lp",
          "type": "address"
        },
        {
          "internalType": "address",
          "name": "_lpAdapter",
          "type": "address"
        }
      ],
      "name": "registerLP",
      "outputs": [],
      "stateMutability": "nonpayable",
      "type": "function"
    },
    {
      "inputs": [
        {
          "internalType": "address",
          "name": "asset",
          "type": "address"
        },
        {
          "internalType": "uint256",
          "name": "amount",
          "type": "uint256"
        },
        {
          "internalType": "address",
          "name": "sender",
          "type": "address"
        },
        {
          "internalType": "bytes",
          "name": "data",
          "type": "bytes"
        }
      ],
      "name": "stableunitFillOrderCallback",
      "outputs": [
        {
          "internalType": "bool",
          "name": "",
          "type": "bool"
        }
      ],
      "stateMutability": "nonpayable",
      "type": "function"
    },
    {
      "inputs": [
        {
          "internalType": "bytes4",
          "name": "interfaceId",
          "type": "bytes4"
        }
      ],
      "name": "supportsInterface",
      "outputs": [
        {
          "internalType": "bool",
          "name": "",
          "type": "bool"
        }
      ],
      "stateMutability": "view",
      "type": "function"
    },
    {
      "inputs": [
        {
          "internalType": "address",
          "name": "",
          "type": "address"
        },
        {
          "components": [
            {
              "internalType": "address",
              "name": "srcToken",
              "type": "address"
            },
            {
              "internalType": "address",
              "name": "dstToken",
              "type": "address"
            },
            {
              "internalType": "address",
              "name": "srcReceiver",
              "type": "address"
            },
            {
              "internalType": "address",
              "name": "dstReceiver",
              "type": "address"
            },
            {
              "internalType": "uint256",
              "name": "amount",
              "type": "uint256"
            },
            {
              "internalType": "uint256",
              "name": "minReturnAmount",
              "type": "uint256"
            },
            {
              "internalType": "uint256",
              "name": "flags",
              "type": "uint256"
            }
          ],
          "internalType": "struct SwapDescription",
          "name": "",
          "type": "tuple"
        },
        {
          "internalType": "bytes",
          "name": "",
          "type": "bytes"
        },
        {
          "internalType": "bytes",
          "name": "",
          "type": "bytes"
        }
      ],
      "name": "swap",
      "outputs": [],
      "stateMutability": "pure",
      "type": "function"
    },
    {
      "inputs": [
        {
          "internalType": "uint256",
          "name": "orderId",
          "type": "uint256"
        },
        {
          "internalType": "address",
          "name": "token2sell",
          "type": "address"
        },
        {
          "internalType": "uint256",
          "name": "token2sellAmount",
          "type": "uint256"
        },
        {
          "components": [
            {
              "internalType": "address",
              "name": "contractAddress",
              "type": "address"
            },
            {
              "internalType": "bytes",
              "name": "data",
              "type": "bytes"
            },
            {
              "internalType": "address",
              "name": "token",
              "type": "address"
            }
          ],
          "internalType": "struct InchData[]",
          "name": "inchData",
          "type": "tuple[]"
        }
      ],
      "name": "swapLPWithFlashLoan",
      "outputs": [],
      "stateMutability": "nonpayable",
      "type": "function"
    },
    {
      "inputs": [
        {
          "internalType": "uint256",
          "name": "orderId",
          "type": "uint256"
        },
        {
          "internalType": "address",
          "name": "token2sell",
          "type": "address"
        },
        {
          "internalType": "uint256",
          "name": "token2sellAmount",
          "type": "uint256"
        },
        {
          "components": [
            {
              "internalType": "address",
              "name": "contractAddress",
              "type": "address"
            },
            {
              "internalType": "bytes",
              "name": "data",
              "type": "bytes"
            },
            {
              "internalType": "address",
              "name": "token",
              "type": "address"
            }
          ],
          "internalType": "struct InchData",
          "name": "inchData",
          "type": "tuple"
        }
      ],
      "name": "swapWithFlashLoan",
      "outputs": [],
      "stateMutability": "nonpayable",
      "type": "function"
    },
    {
      "inputs": [
        {
          "internalType": "uint256",
          "name": "",
          "type": "uint256"
        },
        {
          "internalType": "uint256",
          "name": "",
          "type": "uint256"
        },
        {
          "internalType": "uint256[]",
          "name": "",
          "type": "uint256[]"
        }
      ],
      "name": "uniswapV3Swap",
      "outputs": [],
      "stateMutability": "pure",
      "type": "function"
    },
    {
      "inputs": [
        {
          "internalType": "address",
          "name": "",
          "type": "address"
        },
        {
          "internalType": "uint256",
          "name": "",
          "type": "uint256"
        },
        {
          "internalType": "uint256",
          "name": "",
          "type": "uint256"
        },
        {
          "internalType": "uint256[]",
          "name": "",
          "type": "uint256[]"
        }
      ],
      "name": "unoswap",
      "outputs": [],
      "stateMutability": "pure",
      "type": "function"
    }
  ],
  "numDeployments": 3,
  "solcInputHash": "99c0a0d9f58fa8279c64246a47fa58ae",
  "bytecode": "0x6080806040523461001657611dc1908161001c8239f35b600080fdfe608080604052600436101561001357600080fd5b60003560e01c90816301ffc9a7146111f95750806303ee9f22146111cc5780630502b1c51461119357806312aa3caf146111305780631e611306146110d9578063438280dd1461109e578063485cc95514610e4e5780634dec53e014610e135780636a2f53c2146106e557806371d0fb41146106aa57806374cc2bdd1461060c57806375b238fc146105f057806384bd6d29146105c45780638e5313e014610589578063943a0f13146103f3578063bd5f5be6146103b8578063d0e8fa821461037d578063d2351cee14610342578063dc97e84e14610307578063e37c74a114610171578063e449022e1461013f5763e9c265181461011157600080fd5b3461013a57600036600319011261013a576020604051600080516020611d6c8339815191528152f35b600080fd5b3461013a57606036600319011261013a576044356001600160401b03811161013a5761016f9036906004016112da565b005b3461013a57608036600319011261013a5760043561018d61129a565b90604435906001600160401b039060643582811161013a576101b390369060040161145f565b90604051946040860186811085821117610211576040526001865260005b6020908181101561022757604051606092838201938285108986111761021157602094604052600083528183015260006040830152828a010152016101d1565b634e487b7160e01b600052604160045260246000fd5b836102c78461029c8b8b8a61023b836115aa565b52610245826115aa565b506001546040516001600160a01b039791881693600092916102aa9161026a8261137f565b84825260209a8b99858b85015216604083015285606083015233608083015260a08201526040519687918983016115e1565b03601f1981018752866113b5565b604051637176836f60e11b815296879586948593600485016116b5565b03925af180156102fb576102d757005b813d83116102f4575b6102ea81836113b5565b8101031261013a57005b503d6102e0565b6040513d6000823e3d90fd5b3461013a57600036600319011261013a5760206040517f9a9aef7c1247d5fc769b0185c052913e39673da29a880317dfd20ebf86f26a498152f35b3461013a57600036600319011261013a5760206040517fb0fdd1623e42dbffda4acd8bd643e1cb69f00f0e83abeaa8150ee42cf0fd105e8152f35b3461013a57600036600319011261013a5760206040517f76d0567582f23e1e9d7a13eeba60f9aea9d69b8da87ca27a8bf3698b35c653db8152f35b3461013a57600036600319011261013a5760206040517f4f14c8366fa999817edc9f29824eb88a00cc31225e2156f399da4bc91049eb108152f35b3461013a57604036600319011261013a5761040c611284565b61041461129a565b600054604051632474521560e21b8152600080516020611d6c83398151915260048201523360248201526020936001600160a01b0393909290919085908290604490829060101c88165afa9081156102fb5760009161055c575b501561054a5782169181166000526002835260406000208260018060a01b0319825416179055604051908382019263095ea7b360e01b84526024830152600019604483015260448252608082019282841060018060401b03851117610211576000809493819460405251925af16104e361157a565b8161051a575b50156104f157005b6064906040519062461bcd60e51b825260048201526002602482015261534160f01b6044820152fd5b80518015925083908315610532575b505050826104e9565b6105429350820181019101611547565b828281610529565b60405163599a6c3360e11b8152600490fd5b61057c9150853d8711610582575b61057481836113b5565b810190611547565b8561046e565b503d61056a565b3461013a57600036600319011261013a5760206040517fe453bacb314e78dcd5192e6b1a2b1f0e7c76e92f6b7e429a6a90f04e39db3b768152f35b3461013a5761010036600319011261013a576105de611284565b506105e761129a565b5061016f6112b0565b3461013a57600036600319011261013a57602060405160008152f35b3461013a57608036600319011261013a5760043561062861129a565b604435906064356001600160401b03811161013a576102c79261065261029c9236906004016114c7565b6001546040516001600160a01b03979188169392600092916102aa916106778261137f565b6001825260209a8b99858b85015216604083015285606083015233608083015260a08201526040519687918983016115e1565b3461013a57600036600319011261013a5760206040517f880a91047114272656e533301261260c75e4d11543ac7303d6fe4204579ec7278152f35b3461013a57608036600319011261013a576106fe611284565b6107066112b0565b906064356001600160401b03811161013a5761072690369060040161130a565b8101929060208185031261013a578035906001600160401b03821161013a570160c08185031261013a576040519360c085016001600160401b03811186821017610211576040528135801515810361013a57855260208201356020860152610790604083016112c6565b6040860152606082013560608601526107ab608083016112c6565b608086015260a08201356001600160401b03811161013a576107cd92016114c7565b60a08401526001546001600160a01b03163303610dfb576001600160a01b0316308103610de357506040516370a0823160e01b8152306004820152906020826024816001600160a01b0385165afa9182156102fb57600092610daf575b50825115610d61576040838101516001600160a01b039081166000908152600260205291909120541615610d3a57604083810180516001600160a01b039081166000908152600260209081528482205493519451635136211760e01b8152948316600486015292849260249284929091165af19081156102fb57600091610d1b575b5015610cf457604080840180516001600160a01b03908116600090815260026020528381205492516060880151945163f3fef3a360e01b81529795949193889390811692849286928492610906929091166004840161155f565b03925af19384156102fb57600094610bf9575b5060a0820151519184519460005b8661ffff82161015610b0f576001600160a01b0361094961ffff8316846115cd565b51511690602061095d61ffff8316856115cd565b5101516001600160a01b0386168303610981575b5061097c91506116d1565b610927565b868903610a36576109e39060018060a01b036109a561ffff851660a08901516115cd565b515116600060206109be61ffff871660a08b01516115cd565b51015160405180958192630f30898360e11b835260406004840152604483019061135a565b8560248301520381305afa9182156102fb5761097c95610a0b94600094610a11575b50611811565b88610971565b610a2f9194503d806000833e610a2781836113b5565b8101906116fa565b928d610a05565b94919790959660005b8861ffff82161015610afe576001600160a01b03610a6161ffff8a16876115cd565b51511660018060a01b036040610a7f61ffff851660a08b01516115cd565b5101511614610a9657610a91906116d1565b610a3f565b95610ad291989792999396600060206109be61ffff60018060a01b03610ac38c60a08489169101516115cd565b515116941660a08b01516115cd565b8560248301520381305afa9182156102fb5761097c95610af994600094610a115750611811565b610a0b565b50969590975061097c919450610a0b565b505092915092505b6040516370a0823160e01b8152306004820152906020826024816001600160a01b0388165afa80156102fb57600090610bc5575b610b559250611758565b9160243591828410610ba457610b86610b7184610b9996611758565b6001549094906001600160a01b031684611765565b608001516001600160a01b031690611765565b602060405160018152f35b6024610bb08585611758565b604051906363bfcb0d60e01b82526004820152fd5b506020823d602011610bf1575b81610bdf602093836113b5565b8101031261013a57610b559151610b4b565b3d9150610bd2565b9093503d806000833e610c0c81836113b5565b602082828101031261013a578151906001600160401b03821161013a57808301601f83850101121561013a578183015190610c46826113d8565b93610c5460405195866113b5565b828552602085019382820160208560061b83850101011161013a5793602085830101945b60208560061b82850101018610610c96575050505050509284610919565b604086858501031261013a57604080519081018082116001600160401b0390911117610211576040818101905286516001600160a01b038116810361013a5760209382859260409452828a0151838201528152019601959150610c78565b60408381015190516325eadd2560e01b81526001600160a01b039091166004820152602490fd5b610d34915060203d6020116105825761057481836113b5565b846108ac565b6040838101519051637d250b0b60e11b81526001600160a01b039091166004820152602490fd5b6040830151606084015160a085015192949392610daa926001600160a01b039081169291610d8e906115aa565b515116906020610da160a08801516115aa565b51015192611811565b610b17565b9091506020813d602011610ddb575b81610dcb602093836113b5565b8101031261013a5751908361082a565b3d9150610dbe565b60249060405190637d85130d60e11b82526004820152fd5b60405163e372835960e01b8152336004820152602490fd5b3461013a57602036600319011261013a5760206001600160a01b0380610e37611284565b166000526002825260406000205416604051908152f35b3461013a57604036600319011261013a57610e67611284565b610e6f61129a565b60005460ff8160081c161590818092611091575b801561107a575b1561101e5760ff1981166001176000558161100c575b506000549160ff8360081c1615610fb35762010000600160b01b03601085901b1662010000600160b01b031984168117600055936001600160a01b03919082168015159081610f56575b50610f44571660018060a01b03196001541617600155610f0657005b610100600160b01b03191617600055604051600181527f7f26b83ff96e1f2b6a682f133852f6798a09c465da95921460cefb384740249890602090a1005b6040516384d942fd60e01b8152600490fd5b6040516301ffc9a760e01b8152637965db0b60e01b60048201529150602090829060249082905afa9081156102fb57600091610f95575b501586610eea565b610fad915060203d81116105825761057481836113b5565b86610f8d565b60405162461bcd60e51b815260206004820152602b60248201527f496e697469616c697a61626c653a20636f6e7472616374206973206e6f74206960448201526a6e697469616c697a696e6760a81b6064820152608490fd5b61ffff19166101011760005583610ea0565b60405162461bcd60e51b815260206004820152602e60248201527f496e697469616c697a61626c653a20636f6e747261637420697320616c72656160448201526d191e481a5b9a5d1a585b1a5e995960921b6064820152608490fd5b50303b158015610e8a5750600160ff821614610e8a565b50600160ff821610610e83565b3461013a57600036600319011261013a5760206040517f39f61ca2a1a28fee144218173ec637b649a353e4026b2738c673800e5bf1437b8152f35b3461013a57604036600319011261013a576004356001600160401b03811161013a5761111861110f61112c92369060040161130a565b6024359161196f565b60405191829160208352602083019061135a565b0390f35b3461013a5761014036600319011261013a5761114a611284565b5060e036602319011261013a576001600160401b036101043581811161013a5761117890369060040161130a565b50506101243590811161013a5761016f90369060040161130a565b3461013a57608036600319011261013a576111ac611284565b506064356001600160401b03811161013a5761016f9036906004016112da565b3461013a57600036600319011261013a5760005460405160109190911c6001600160a01b03168152602090f35b3461013a57602036600319011261013a5760043563ffffffff60e01b811680910361013a576000546301ffc9a760e01b835260048301919091526020908290602490829060101c6001600160a01b03165afa80156102fb57602091600091611267575b506040519015158152f35b61127e9150823d81116105825761057481836113b5565b8261125c565b600435906001600160a01b038216820361013a57565b602435906001600160a01b038216820361013a57565b604435906001600160a01b038216820361013a57565b35906001600160a01b038216820361013a57565b9181601f8401121561013a578235916001600160401b03831161013a576020808501948460051b01011161013a57565b9181601f8401121561013a578235916001600160401b03831161013a576020838186019501011161013a57565b60005b83811061134a5750506000910152565b818101518382015260200161133a565b9060209161137381518092818552858086019101611337565b601f01601f1916010190565b60c081019081106001600160401b0382111761021157604052565b60e081019081106001600160401b0382111761021157604052565b601f909101601f19168101906001600160401b0382119082101761021157604052565b6001600160401b0381116102115760051b60200190565b6001600160401b03811161021157601f01601f191660200190565b929192611416826113ef565b9161142460405193846113b5565b82948184528183011161013a578281602093846000960137010152565b9080601f8301121561013a5781602061145c9335910161140a565b90565b91909160608184031261013a57604051906001600160401b036060830181811184821017610211576040528294611495836112c6565b8452602083013591821161013a57826114b7604094926114c294869401611441565b6020860152016112c6565b910152565b9080601f8301121561013a578135906114df826113d8565b926114ed60405194856113b5565b828452602092838086019160051b8301019280841161013a57848301915b84831061151b5750505050505090565b82356001600160401b03811161013a57869161153c8484809489010161145f565b81520192019161150b565b9081602091031261013a5751801515810361013a5790565b6001600160a01b039091168152602081019190915260400190565b3d156115a5573d9061158b826113ef565b9161159960405193846113b5565b82523d6000602084013e565b606090565b8051156115b75760200190565b634e487b7160e01b600052603260045260246000fd5b80518210156115b75760209160051b010190565b602080825260e0820190835115158184015280840151926040938482015260018060a01b039360a08582880151169660609788850152878101516080850152866080820151168285015201519560c08084015286518095526101009184838501938760051b8601019801966000945b8786106116635750505050505050505090565b909192939495969798878060019260ff198582030189528c519086825116815287878161169b868601518d888701528d86019061135a565b940151169101529b01960196019497969593929190611650565b61145c939260609282526020820152816040820152019061135a565b61ffff8091169081146116e45760010190565b634e487b7160e01b600052601160045260246000fd5b60208183031261013a578051906001600160401b03821161013a570181601f8201121561013a57805161172c816113ef565b9261173a60405194856113b5565b8184526020828401011161013a5761145c9160208085019101611337565b919082039182116116e457565b600092918361179061179e8295604051928391602083019663a9059cbb60e01b88526024840161155f565b03601f1981018352826113b5565b51925af16117aa61157a565b816117e2575b50156117b857565b60405162461bcd60e51b815260206004820152600260248201526114d560f21b6044820152606490fd5b80518015925082156117f7575b5050386117b0565b61180a9250602080918301019101611547565b38806117ef565b929060405161183681611790602082019463095ea7b360e01b8652876024840161155f565b600094859283809351925af161184a61157a565b816118ae575b501561188457829182602083519301915af161186a61157a565b501561187257565b604051635aa0560760e11b8152600490fd5b60405162461bcd60e51b8152602060048201526002602482015261534160f01b6044820152606490fd5b80518015925082156118c3575b505038611850565b6118d69250602080918301019101611547565b38806118bb565b81601f8201121561013a578035916118f4836113d8565b9261190260405194856113b5565b808452602092838086019260051b82010192831161013a578301905b82821061192c575050505090565b8135815290830190830161191e565b90815180825260208080930193019160005b82811061195b575050505090565b83518552938101939281019260010161194d565b906004818111938461013a5783356001600160e01b03191694637224811760e11b808714611cf85750630502b1c560e01b868114611c7457506312aa3caf60e01b8614611a9b576384bd6d2960e01b9586146119d45750505061145c9250369161140a565b939290919361013a57610100908301839003600319011261013a576119fa8383016112c6565b611a06602484016112c6565b90611a13604485016112c6565b9060405196602088015260018060a01b03928380921660248901521660448701521660648501526084840152600160a484015260a481013560c484015260c481013560e484015260e461010491013581840152825261014082019082821060018060401b03831117611a86575060405290565b604190634e487b7160e01b6000525260246000fd5b90929193945061013a578301918383039161014060031984011261013a5760e0611ac68387016112c6565b93602319011261013a5760405190611add8261139a565b611ae9602487016112c6565b8252611af7604487016112c6565b9560208301968752611b0b606482016112c6565b60408401908152611b1e608483016112c6565b6060850190815260a4830135608086015260c483013560a086015260e483013560c086019081526001600160401b03949161010485013586811161013a578a89611b6a92880101611441565b9461012481013596871161013a5761145c9a61179099611c6198611b8f930101611441565b96519a519351905191516040519b90946001600160a01b0393841693928316929081169116611bbd8d61139a565b8c526020808d019182526040808e0193845260608e0194855260808e01958652600160a08f0190815260c08f0197885290516312aa3caf60e01b928101929092526001600160a01b039b8c1660248301529c518b16604482015290518a166064820152905189166084820152905190971660a48801525160c4870152965160e48601529551610104850152610140610124850152929485939061016485019061135a565b838103602319016101448501529061135a565b93919294955061013a578401906080858303600319011261013a57611c9a8486016112c6565b946064810135926001600160401b03841161013a5761145c9561179094611cc29301016118dd565b90604051958694602086015260018060a01b031660248501526044840152600160648401526080608484015260a483019061193b565b94939195505060009083019260606003198286030112611d67576044810135916001600160401b038311611d6457509261179092611d3c9261145c969501016118dd565b604051948593602085015260248401526001604484015260606064840152608483019061193b565b80fd5b5080fdfe3b5d4cc60d3ec3516ee8ae083bd60934f6eb2a6c54b1229985c41bfb092b2603a264697066735822122002b5ba965d7de43acc5ca7da0e746677eca6c3b3386d73e6d02ed2439dd0d8d664736f6c63430008110033",
  "devdoc": {
    "details": "See IArbitrageHelper interface for full details.",
    "kind": "dev",
    "methods": {
      "changeCalldataAmount(bytes,uint256)": {
        "params": {
          "data": "- calldata to edit",
          "newAmount": "- new amount that should replace amount in {data}"
        },
        "returns": {
          "_0": "edited calldata with new amount inside*"
        }
      },
      "stableunitFillOrderCallback(address,uint256,address,bytes)": {
        "details": "behaviour like in uniswapV3FlashCallback: https://docs.uniswap.org/contracts/v3/guides/flash-integrations/flash-callback and AAVE flash-loan callback: https://github.com/aave/aave-v3-core/blob/master/contracts/flashloan/interfaces/IFlashLoanSimpleReceiver.sol*"
      },
      "supportsInterface(bytes4)": {
        "details": "Returns true if this contract implements the interface defined by `interfaceId`. See the corresponding https://eips.ethereum.org/EIPS/eip-165#how-interfaces-are-identified[EIP section] to learn more about how these ids are created. This function call must use less than 30 000 gas."
      },
      "swapLPWithFlashLoan(uint256,address,uint256,(address,bytes,address)[])": {
        "details": "Contract receive LP-token from exchange module, unwrap it and swap with 1inch all underline tokens to token that exchange module need.",
        "params": {
          "inchData": "- 1inch callData and contract array to swap every underline token of LP*",
          "orderId": "- Id of order in Exchange module to fill",
          "token2sell": "- Token in order to get as flash-loan",
          "token2sellAmount": "- Amount of token in order to get as flash-loan"
        }
      },
      "swapWithFlashLoan(uint256,address,uint256,(address,bytes,address))": {
        "details": "Contract receive loan from exchange module, sell it on 1inch and get profit = received amount - fee",
        "params": {
          "inchData": "- 1inch callData and contract to swap loan*",
          "orderId": "- Id of order in Exchange module to fill",
          "token2sell": "- Token in order to get as flash-loan",
          "token2sellAmount": "- Amount of token in order to get as flash-loan"
        }
      }
    },
    "title": "ArbitrageHelper",
    "version": 1
  },
  "userdoc": {
    "kind": "user",
    "methods": {
      "changeCalldataAmount(bytes,uint256)": {
        "notice": "Helper function to change amount parameter on callback that depends on return by 1inch API calldata for swap We set minAmount to 1 to be sure, that swap will be created. Route path don't depend on that - this path was calculated previously in backend part and is stored in {data}."
      },
      "stableunitFillOrderCallback(address,uint256,address,bytes)": {
        "notice": "This is callback function from Exchange contract. fillOrderAsFlashLoan call (msg.sender).executeOperation(...) after transferring loan to sender"
      },
      "swapLPWithFlashLoan(uint256,address,uint256,(address,bytes,address)[])": {
        "notice": "The same as swapWithFlashLoan, but loan is LP-token that we need to unwrap"
      },
      "swapWithFlashLoan(uint256,address,uint256,(address,bytes,address))": {
        "notice": "Reference implementation of Arbitrage bot contract, that use Exchange module to get profit"
      },
      "uniswapV3Swap(uint256,uint256,uint256[])": {
        "notice": "We need this functions to check their selector and functionSelector in calldata for changeCalldataAmount() function*"
      }
    },
    "notice": "Helper contract to arbitrage using Exchange module",
    "version": 1
  },
  "storageLayout": {
    "storage": [
      {
        "astId": 79,
        "contract": "contracts/exchange/contracts/ArbitrageHelper.sol:ArbitrageHelper",
        "label": "_initialized",
        "offset": 0,
        "slot": "0",
        "type": "t_uint8"
      },
      {
        "astId": 82,
        "contract": "contracts/exchange/contracts/ArbitrageHelper.sol:ArbitrageHelper",
        "label": "_initializing",
        "offset": 1,
        "slot": "0",
        "type": "t_bool"
      },
      {
        "astId": 6801,
        "contract": "contracts/exchange/contracts/ArbitrageHelper.sol:ArbitrageHelper",
        "label": "ACCESS_CONTROL_SINGLETON",
        "offset": 2,
        "slot": "0",
        "type": "t_contract(ISuAccessControl)7265"
      },
      {
        "astId": 1664,
        "contract": "contracts/exchange/contracts/ArbitrageHelper.sol:ArbitrageHelper",
        "label": "EXCHANGE",
        "offset": 0,
        "slot": "1",
        "type": "t_contract(IExchange)3751"
      },
      {
        "astId": 1669,
        "contract": "contracts/exchange/contracts/ArbitrageHelper.sol:ArbitrageHelper",
        "label": "lpToAdapter",
        "offset": 0,
        "slot": "2",
        "type": "t_mapping(t_address,t_contract(ILPAdapter)7306)"
      },
      {
        "astId": 2181,
        "contract": "contracts/exchange/contracts/ArbitrageHelper.sol:ArbitrageHelper",
        "label": "__gap",
        "offset": 0,
        "slot": "3",
        "type": "t_array(t_uint256)45_storage"
      }
    ],
    "types": {
      "t_address": {
        "encoding": "inplace",
        "label": "address",
        "numberOfBytes": "20"
      },
      "t_array(t_uint256)45_storage": {
        "base": "t_uint256",
        "encoding": "inplace",
        "label": "uint256[45]",
        "numberOfBytes": "1440"
      },
      "t_bool": {
        "encoding": "inplace",
        "label": "bool",
        "numberOfBytes": "1"
      },
      "t_contract(IExchange)3751": {
        "encoding": "inplace",
        "label": "contract IExchange",
        "numberOfBytes": "20"
      },
      "t_contract(ILPAdapter)7306": {
        "encoding": "inplace",
        "label": "contract ILPAdapter",
        "numberOfBytes": "20"
      },
      "t_contract(ISuAccessControl)7265": {
        "encoding": "inplace",
        "label": "contract ISuAccessControl",
        "numberOfBytes": "20"
      },
      "t_mapping(t_address,t_contract(ILPAdapter)7306)": {
        "encoding": "mapping",
        "key": "t_address",
        "label": "mapping(address => contract ILPAdapter)",
        "numberOfBytes": "32",
        "value": "t_contract(ILPAdapter)7306"
      },
      "t_uint256": {
        "encoding": "inplace",
        "label": "uint256",
        "numberOfBytes": "32"
      },
      "t_uint8": {
        "encoding": "inplace",
        "label": "uint8",
        "numberOfBytes": "1"
      }
    }
  }
}