{
  "address": "0x394B0bF8181cc5D57659cac483C176fb4c7988F0",
  "abi": [
    {
      "inputs": [
        {
          "internalType": "address",
          "name": "asset",
          "type": "address"
        }
      ],
      "name": "AlreadyRegistered",
      "type": "error"
    },
    {
      "inputs": [],
      "name": "BadAccessControlSingleton",
      "type": "error"
    },
    {
      "inputs": [
        {
          "internalType": "address",
          "name": "asset",
          "type": "address"
        }
      ],
      "name": "IsNotLP",
      "type": "error"
    },
    {
      "inputs": [],
      "name": "LPOracleNotReady",
      "type": "error"
    },
    {
      "inputs": [],
      "name": "OnlyAdminError",
      "type": "error"
    },
    {
      "inputs": [],
      "name": "OnlyAlerterError",
      "type": "error"
    },
    {
      "inputs": [],
      "name": "OnlyDAOError",
      "type": "error"
    },
    {
      "inputs": [],
      "name": "OnlyDisablerAccessError",
      "type": "error"
    },
    {
      "inputs": [],
      "name": "OnlyLiquidationAccessError",
      "type": "error"
    },
    {
      "inputs": [],
      "name": "OnlyMintAccessError",
      "type": "error"
    },
    {
      "inputs": [],
      "name": "OnlyRewardAccessError",
      "type": "error"
    },
    {
      "inputs": [],
      "name": "OnlyRoleError",
      "type": "error"
    },
    {
      "inputs": [],
      "name": "OnlyVaultAccessError",
      "type": "error"
    },
    {
      "inputs": [],
      "name": "OnlyVotingEscrowError",
      "type": "error"
    },
    {
      "anonymous": false,
      "inputs": [
        {
          "indexed": false,
          "internalType": "uint8",
          "name": "version",
          "type": "uint8"
        }
      ],
      "name": "Initialized",
      "type": "event"
    },
    {
      "inputs": [],
      "name": "ACCESS_CONTROL_SINGLETON",
      "outputs": [
        {
          "internalType": "contract ISuAccessControl",
          "name": "",
          "type": "address"
        }
      ],
      "stateMutability": "view",
      "type": "function"
    },
    {
      "inputs": [],
      "name": "ADAPTER",
      "outputs": [
        {
          "internalType": "contract IBalancerAdapter",
          "name": "",
          "type": "address"
        }
      ],
      "stateMutability": "view",
      "type": "function"
    },
    {
      "inputs": [],
      "name": "ADMIN_ROLE",
      "outputs": [
        {
          "internalType": "bytes32",
          "name": "",
          "type": "bytes32"
        }
      ],
      "stateMutability": "view",
      "type": "function"
    },
    {
      "inputs": [],
      "name": "ALERTER_ROLE",
      "outputs": [
        {
          "internalType": "bytes32",
          "name": "",
          "type": "bytes32"
        }
      ],
      "stateMutability": "view",
      "type": "function"
    },
    {
      "inputs": [],
      "name": "CDP_ACCESS_ROLE",
      "outputs": [
        {
          "internalType": "bytes32",
          "name": "",
          "type": "bytes32"
        }
      ],
      "stateMutability": "view",
      "type": "function"
    },
    {
      "inputs": [],
      "name": "DAO_ROLE",
      "outputs": [
        {
          "internalType": "bytes32",
          "name": "",
          "type": "bytes32"
        }
      ],
      "stateMutability": "view",
      "type": "function"
    },
    {
      "inputs": [],
      "name": "DISABLER_ROLE",
      "outputs": [
        {
          "internalType": "bytes32",
          "name": "",
          "type": "bytes32"
        }
      ],
      "stateMutability": "view",
      "type": "function"
    },
    {
      "inputs": [],
      "name": "LIQUIDATION_ACCESS_ROLE",
      "outputs": [
        {
          "internalType": "bytes32",
          "name": "",
          "type": "bytes32"
        }
      ],
      "stateMutability": "view",
      "type": "function"
    },
    {
      "inputs": [],
      "name": "MINT_ACCESS_ROLE",
      "outputs": [
        {
          "internalType": "bytes32",
          "name": "",
          "type": "bytes32"
        }
      ],
      "stateMutability": "view",
      "type": "function"
    },
    {
      "inputs": [],
      "name": "REWARD_ACCESS_ROLE",
      "outputs": [
        {
          "internalType": "bytes32",
          "name": "",
          "type": "bytes32"
        }
      ],
      "stateMutability": "view",
      "type": "function"
    },
    {
      "inputs": [],
      "name": "VOTING_ESCROW_ROLE",
      "outputs": [
        {
          "internalType": "bytes32",
          "name": "",
          "type": "bytes32"
        }
      ],
      "stateMutability": "view",
      "type": "function"
    },
    {
      "inputs": [
        {
          "internalType": "address",
          "name": "asset",
          "type": "address"
        }
      ],
      "name": "getFiatPrice1e18",
      "outputs": [
        {
          "internalType": "uint256",
          "name": "",
          "type": "uint256"
        }
      ],
      "stateMutability": "view",
      "type": "function"
    },
    {
      "inputs": [
        {
          "internalType": "address",
          "name": "_authControl",
          "type": "address"
        },
        {
          "internalType": "address",
          "name": "_balancerAdapter",
          "type": "address"
        }
      ],
      "name": "initialize",
      "outputs": [],
      "stateMutability": "nonpayable",
      "type": "function"
    },
    {
      "inputs": [
        {
          "internalType": "address",
          "name": "asset",
          "type": "address"
        }
      ],
      "name": "isAdapterLP",
      "outputs": [
        {
          "internalType": "bool",
          "name": "",
          "type": "bool"
        }
      ],
      "stateMutability": "view",
      "type": "function"
    },
    {
      "inputs": [
        {
          "internalType": "address",
          "name": "",
          "type": "address"
        }
      ],
      "name": "lps",
      "outputs": [
        {
          "internalType": "address",
          "name": "",
          "type": "address"
        }
      ],
      "stateMutability": "view",
      "type": "function"
    },
    {
      "inputs": [
        {
          "internalType": "address",
          "name": "lp",
          "type": "address"
        }
      ],
      "name": "registerLP",
      "outputs": [],
      "stateMutability": "nonpayable",
      "type": "function"
    },
    {
      "inputs": [
        {
          "internalType": "bytes4",
          "name": "interfaceId",
          "type": "bytes4"
        }
      ],
      "name": "supportsInterface",
      "outputs": [
        {
          "internalType": "bool",
          "name": "",
          "type": "bool"
        }
      ],
      "stateMutability": "view",
      "type": "function"
    },
    {
      "inputs": [
        {
          "internalType": "address",
          "name": "asset",
          "type": "address"
        },
        {
          "internalType": "uint256",
          "name": "amount",
          "type": "uint256"
        }
      ],
      "name": "withdraw",
      "outputs": [
        {
          "components": [
            {
              "internalType": "address",
              "name": "token",
              "type": "address"
            },
            {
              "internalType": "uint256",
              "name": "amount",
              "type": "uint256"
            }
          ],
          "internalType": "struct WithdrawResult[]",
          "name": "results",
          "type": "tuple[]"
        }
      ],
      "stateMutability": "nonpayable",
      "type": "function"
    }
  ],
  "numDeployments": 2,
  "solcInputHash": "bf39d1579cb15455a9583613f66e6945",
  "bytecode": "0x6080806040523461001657610d2f908161001c8239f35b600080fdfe6080604081815260048036101561001557600080fd5b600092833560e01c90816301ffc9a714610be75750806303ee9f2214610bbb578063121193f014610b925780631e96838b146109d0578063438280dd14610995578063485cc9551461072557806351362117146106e857806371d0fb41146106ad57806375b238fc146106925780638e5313e014610657578063b9ac2b38146105aa578063bd5f5be61461056f578063d0e8fa8214610534578063d12e7332146104f9578063d2351cee146104be578063dc97e84e14610483578063e9c26518146104445763f3fef3a3146100e957600080fd5b34610440578160031936011261044057610101610c79565b9260249384359160018060a01b03928383169283835260019760209489865286898620541690811561042b5789516323b872dd60e01b8882019081523385830152306044830152606480830188905282526001600160401b03959160a0810187811182821017610419578d5251889283929083905af13d15610412573d858111610400578b519061019b601f8201601f19168b0183610c94565b81523d888a83013e5b816103d0575b50156103a857868560648b898e519586948593632d182be560e21b855284015230898401523060448401525af1801561039e57869291889161036b575b5050606489838a600254168d51988995869463627160f360e11b8652850152878401523360448401525af196871561036157849761026f575b5050505091939081959395519481860192828752875180945282818801980194915b84831061024f5787890388f35b8551805182168a5284015189850152978101979483019491860191610242565b9091929396503d8088863e6102848186610c94565b84019385818603126103595780519084821161035d57019284601f8501121561035957835192818411610348578951956102c3888660051b0188610c94565b848752878088019560061b87010195818711610344578801945b8686106102f557505050505050509238808080610220565b8b86830312610344578b518c810181811086821117610332578d528c918a9161031d89610ce5565b815282890151838201528152019501946102dd565b634e487b7160e01b8d5260418752848dfd5b8a80fd5b634e487b7160e01b89526041835288fd5b8780fd5b8880fd5b88513d86823e3d90fd5b90809293503d8311610397575b6103828183610c94565b8101031261039357849086386101e7565b8480fd5b503d610378565b8a513d88823e3d90fd5b895162461bcd60e51b8152808a018890526003818501526229aa2360e91b6044820152606490fd5b805180159250899083156103e8575b505050386101aa565b6103f89350820181019101610ccd565b3888816103df565b634e487b7160e01b885260418b528488fd5b60606101a4565b634e487b7160e01b8a5260418d52868afd5b889150895191631e489be560e01b8352820152fd5b8280fd5b50503461047f578160031936011261047f57602090517f3b5d4cc60d3ec3516ee8ae083bd60934f6eb2a6c54b1229985c41bfb092b26038152f35b5080fd5b50503461047f578160031936011261047f57602090517f9a9aef7c1247d5fc769b0185c052913e39673da29a880317dfd20ebf86f26a498152f35b50503461047f578160031936011261047f57602090517fb0fdd1623e42dbffda4acd8bd643e1cb69f00f0e83abeaa8150ee42cf0fd105e8152f35b50503461047f57602036600319011261047f576020916001600160a01b0390829082610523610c79565b168152600185522054169051908152f35b50503461047f578160031936011261047f57602090517f76d0567582f23e1e9d7a13eeba60f9aea9d69b8da87ca27a8bf3698b35c653db8152f35b50503461047f578160031936011261047f57602090517f4f14c8366fa999817edc9f29824eb88a00cc31225e2156f399da4bc91049eb108152f35b5091903461047f576020928360031936011261044057836105c9610c79565b6002546001600160a01b03918216865260018352848620548551631735856760e31b81529083169481019490945283916024918391165afa92831561064c578093610617575b505051908152f35b909192508382813d8311610645575b6106308183610c94565b8101031261064257505190388061060f565b80fd5b503d610626565b8251903d90823e3d90fd5b50503461047f578160031936011261047f57602090517fe453bacb314e78dcd5192e6b1a2b1f0e7c76e92f6b7e429a6a90f04e39db3b768152f35b50503461047f578160031936011261047f5751908152602090f35b50503461047f578160031936011261047f57602090517f880a91047114272656e533301261260c75e4d11543ac7303d6fe4204579ec7278152f35b50503461047f57602036600319011261047f576020916001600160a01b0390829082610712610c79565b1681526001855220541615159051908152f35b503461044057816003193601126104405761073e610c79565b916001600160a01b0391602435838116908190036109915785549160ff8360081c161592838094610984575b801561096d575b156109135760ff198116600117885583610902575b5086549460ff8660081c16156108ab5762010000600160b01b03601088901b1662010000600160b01b031987168117895596168015159081610837575b506108295750600280546001600160a01b0319169190911790556107e5578380f35b610100600160b01b0319909116909117825551600181527f7f26b83ff96e1f2b6a682f133852f6798a09c465da95921460cefb384740249890602090a13880808380f35b83516384d942fd60e01b8152fd5b85516301ffc9a760e01b8152637965db0b60e01b848201529150602090829060249082905afa9081156108a1578891610873575b5015386107c3565b610894915060203d811161089a575b61088c8183610c94565b810190610ccd565b3861086b565b503d610882565b85513d8a823e3d90fd5b845162461bcd60e51b8152602081840152602b60248201527f496e697469616c697a61626c653a20636f6e7472616374206973206e6f74206960448201526a6e697469616c697a696e6760a81b6064820152608490fd5b61ffff191661010117875538610786565b845162461bcd60e51b8152602081840152602e60248201527f496e697469616c697a61626c653a20636f6e747261637420697320616c72656160448201526d191e481a5b9a5d1a585b1a5e995960921b6064820152608490fd5b50303b1580156107715750600160ff821614610771565b50600160ff82161061076a565b8580fd5b50503461047f578160031936011261047f57602090517f39f61ca2a1a28fee144218173ec637b649a353e4026b2738c673800e5bf1437b8152f35b5090346104405760209081600319360112610b8e576109ed610c79565b84548251632474521560e21b81528581018790523360248201526001600160a01b0394929183908290604490829060101c89165afa908115610b57578791610b71575b5015610b6157831682516338d52e0f60e01b815282818781855afa908115610b57579085918891610b1b575b5016938415610b045781875260018352808488205416610aed576002541683519563095ea7b360e01b87528601526000196024860152818560448189885af1948515610ae3576001939495610ac6575b50855252822080546001600160a01b031916909117905580f35b610adc90833d851161089a5761088c8183610c94565b5038610aac565b83513d88823e3d90fd5b83516345ed80e960e01b8152808701839052602490fd5b8351631e489be560e01b8152808701839052602490fd5b809250848092503d8311610b50575b610b348183610c94565b81010312610b4c57610b468591610ce5565b38610a5c565b8680fd5b503d610b2a565b84513d89823e3d90fd5b8251631886ea7d60e11b81528590fd5b610b889150833d851161089a5761088c8183610c94565b38610a30565b8380fd5b50503461047f578160031936011261047f5760025490516001600160a01b039091168152602090f35b50503461047f578160031936011261047f579054905160109190911c6001600160a01b03168152602090f35b9291905034610b8e576020366003190112610b8e57803563ffffffff60e01b81168091036103935784546301ffc9a760e01b8552918401526020908390602490829060101c6001600160a01b03165afa918215610c6f5760209392610c50575b50519015158152f35b610c68919250833d811161089a5761088c8183610c94565b9038610c47565b81513d85823e3d90fd5b600435906001600160a01b0382168203610c8f57565b600080fd5b601f909101601f19168101906001600160401b03821190821017610cb757604052565b634e487b7160e01b600052604160045260246000fd5b90816020910312610c8f57518015158103610c8f5790565b51906001600160a01b0382168203610c8f5756fea26469706673582212201d5593ebd0ecaedd970f3792067a381864fc3cebfcdbae1c61a41508b22686ca64736f6c63430008110033",
  "devdoc": {
    "details": "See ILPAdapter interface for full details.",
    "kind": "dev",
    "methods": {
      "getFiatPrice1e18(address)": {
        "params": {
          "asset": "- address of erc20 token contract"
        },
        "returns": {
          "_0": "usdPrice1e18 such that asset.balanceOf() * getFiatPrice1e18(asset) / 1e18 == $$ * 1e18*"
        }
      },
      "isAdapterLP(address)": {
        "params": {
          "asset": "- address of LP token to check*"
        }
      },
      "registerLP(address)": {
        "params": {
          "lp": "LP token to find and set the corresponding info.*"
        }
      },
      "supportsInterface(bytes4)": {
        "details": "Returns true if this contract implements the interface defined by `interfaceId`. See the corresponding https://eips.ethereum.org/EIPS/eip-165#how-interfaces-are-identified[EIP section] to learn more about how these ids are created. This function call must use less than 30 000 gas."
      },
      "withdraw(address,uint256)": {
        "params": {
          "amount": "- amount of asset to withdraw/unwrap*",
          "asset": "- address of LP token to withdraw/unwrap"
        }
      }
    },
    "title": "AuraAdapterWeighted",
    "version": 1
  },
  "userdoc": {
    "kind": "user",
    "methods": {
      "getFiatPrice1e18(address)": {
        "notice": "WARNING! Read this description very carefully!     function getFiatPrice1e18(address asset) returns (uint256) that:         basicAmountOfAsset * getFiatPrice1e18(asset) / 1e18 === $$ * 1e18     in other words, it doesn't matter what's the erc20.decimals is,     you just multiply token balance in basic units on value from oracle and get dollar amount multiplied on 1e18. different assets have different deviation threshold (errors)     for wBTC it's <= 0.5%, read more https://data.chain.link/ethereum/mainnet/crypto-usd/btc-usd     for other asset is can be larger based on particular oracle implementation. examples:     market price of btc = $30k,     for 0.1 wBTC the unit256 amount is 0.1 * 1e18     0.1 * 1e18 * (price1e18 / 1e18) == $3000 == uint256(3000*1e18)     => price1e18 = 30000 * 1e18;     market price of usdt = $0.97,     for 1 usdt uint256 = 1 * 1e6     so 1*1e6 * price1e18 / 1e18 == $0.97 == uint256(0.97*1e18)     => 1*1e6 * (price1e18 / 1e18) / (0.97*1e18)   = 1     =>  price1e18 = 0.97 * (1e18/1e6) * 1e18    assume market price of wBTC = $31,503.77, oracle error = $158     case #1: small amount of wBTC         we have 0.0,000,001 wBTC that is worth v = $0.00315  $0.00001 = 0.00315*1e18 = 315*1e13  1*1e13         actual balance on the asset b = wBTC.balanceOf() =  0.0000001*1e18 = 1e11         oracle should return or = oracle.getFiatPrice1e18(wBTC) <=>         <=> b*or = v => v/b = 315*1e13 / 1e11 = 315*1e2  1e2         error = or.error * b = 1e2 * 1e11 = 1e13 => 1e13/1e18 usd = 1e-5 = 0.00001 usd     case #2: large amount of wBTC         v = 2,000,000 wBTC = $31,503.77 * 2m  158*2m = $63,007,540,000  $316,000,000 = 63,007*1e24  316*1e24         for calc convenience we increase error on 0.05 and have v = 63,000*24  300*1e24 = (630  3)*1e26         b = 2*1e6 * 1e18 = 2*1e24         or = v/b = (630  3)*1e26 / 2*1e24 = 315*1e2  1.5*1e2         error = or.error * b = 1.5*100 * 2*1e24 = 3*1e26 = 3*1e8*1e18 = $300,000,000 ~ $316,000,000     assume the market price of USDT = $0.97  $0.00485,     case #3: little amount of USDT         v = USDT amount 0.005 = 0.005*(0.97  0.00485) = 0.00485*1e18  0.00002425*1e18 = 485*1e13  3*1e13         we rounded error up on (3000-2425)/2425 ~= +24% for calculation convenience.         b = USDT.balanceOf() = 0.005*1e6 = 5*1e3         b*or = v => or = v/b = (485*1e13  3*1e13) / 5*1e3 = 970*1e9  6*1e9         error = 6*1e9 * 5*1e3 / 1e18 = 30*1e12/1e18 = 3*1e-5 = $0,00005     case #4: lot of USDT         v = we have 100,000,000,000 USDT = $97B = 97*1e9*1e18  0.5*1e9*1e18         b = USDT.balanceOf() = 1e11*1e6 = 1e17         or = v/b = (97*1e9*1e18  0.5*1e9*1e18) / 1e17 = 970*1e9  5*1e9         error = 5*1e9 * 1e17 = 5*1e26 = 0.5 * 1e8*1e18"
      },
      "isAdapterLP(address)": {
        "notice": "Returns if asset ig Balancer LP token, registered in our adapter"
      },
      "registerLP(address)": {
        "notice": "Register the given LP token address and set the LP info. We go to the depth = 2, that means, that if LP token {lp} contains {lp1} and {erc20Token1} as underlying tokens, where lp1 contains {erc20Token0} and {erc20Token2}, then we will register that {lp} has {erc20Token0}, {erc20Token2} and {erc20Token1} as underlying tokens."
      },
      "withdraw(address,uint256)": {
        "notice": "Unwrap LP token with depth = 2 (if underlying token is LP => it's also unwrapping)"
      }
    },
    "notice": "Adapter for Aura LP token based on Balancer Weighted LP token.",
    "version": 1
  },
  "storageLayout": {
    "storage": [
      {
        "astId": 672,
        "contract": "contracts/periphery/contracts/adapters/AuraAdapterWeighted.sol:AuraAdapterWeighted",
        "label": "_initialized",
        "offset": 0,
        "slot": "0",
        "type": "t_uint8"
      },
      {
        "astId": 675,
        "contract": "contracts/periphery/contracts/adapters/AuraAdapterWeighted.sol:AuraAdapterWeighted",
        "label": "_initializing",
        "offset": 1,
        "slot": "0",
        "type": "t_bool"
      },
      {
        "astId": 37201,
        "contract": "contracts/periphery/contracts/adapters/AuraAdapterWeighted.sol:AuraAdapterWeighted",
        "label": "ACCESS_CONTROL_SINGLETON",
        "offset": 2,
        "slot": "0",
        "type": "t_contract(ISuAccessControl)41342"
      },
      {
        "astId": 37664,
        "contract": "contracts/periphery/contracts/adapters/AuraAdapterWeighted.sol:AuraAdapterWeighted",
        "label": "lps",
        "offset": 0,
        "slot": "1",
        "type": "t_mapping(t_address,t_address)"
      },
      {
        "astId": 37667,
        "contract": "contracts/periphery/contracts/adapters/AuraAdapterWeighted.sol:AuraAdapterWeighted",
        "label": "ADAPTER",
        "offset": 0,
        "slot": "2",
        "type": "t_contract(IBalancerAdapter)41362"
      },
      {
        "astId": 37855,
        "contract": "contracts/periphery/contracts/adapters/AuraAdapterWeighted.sol:AuraAdapterWeighted",
        "label": "__gap",
        "offset": 0,
        "slot": "3",
        "type": "t_array(t_uint256)45_storage"
      }
    ],
    "types": {
      "t_address": {
        "encoding": "inplace",
        "label": "address",
        "numberOfBytes": "20"
      },
      "t_array(t_uint256)45_storage": {
        "base": "t_uint256",
        "encoding": "inplace",
        "label": "uint256[45]",
        "numberOfBytes": "1440"
      },
      "t_bool": {
        "encoding": "inplace",
        "label": "bool",
        "numberOfBytes": "1"
      },
      "t_contract(IBalancerAdapter)41362": {
        "encoding": "inplace",
        "label": "contract IBalancerAdapter",
        "numberOfBytes": "20"
      },
      "t_contract(ISuAccessControl)41342": {
        "encoding": "inplace",
        "label": "contract ISuAccessControl",
        "numberOfBytes": "20"
      },
      "t_mapping(t_address,t_address)": {
        "encoding": "mapping",
        "key": "t_address",
        "label": "mapping(address => address)",
        "numberOfBytes": "32",
        "value": "t_address"
      },
      "t_uint256": {
        "encoding": "inplace",
        "label": "uint256",
        "numberOfBytes": "32"
      },
      "t_uint8": {
        "encoding": "inplace",
        "label": "uint8",
        "numberOfBytes": "1"
      }
    }
  }
}