{
  "address": "0xeD401A87f370810b8c920b61492F613CA10d65f4",
  "abi": [
    {
      "inputs": [],
      "name": "BadAccessControlSingleton",
      "type": "error"
    },
    {
      "inputs": [],
      "name": "OnlyAdminError",
      "type": "error"
    },
    {
      "inputs": [],
      "name": "OnlyAlerterError",
      "type": "error"
    },
    {
      "inputs": [],
      "name": "OnlyDAOError",
      "type": "error"
    },
    {
      "inputs": [],
      "name": "OnlyLiquidationAccessError",
      "type": "error"
    },
    {
      "inputs": [],
      "name": "OnlyMintAccessError",
      "type": "error"
    },
    {
      "inputs": [],
      "name": "OnlyRewardAccessError",
      "type": "error"
    },
    {
      "inputs": [],
      "name": "OnlyRoleError",
      "type": "error"
    },
    {
      "inputs": [],
      "name": "OnlyVaultAccessError",
      "type": "error"
    },
    {
      "inputs": [],
      "name": "ThresholdExceeded",
      "type": "error"
    },
    {
      "inputs": [],
      "name": "Triggered",
      "type": "error"
    },
    {
      "anonymous": false,
      "inputs": [
        {
          "indexed": false,
          "internalType": "uint8",
          "name": "version",
          "type": "uint8"
        }
      ],
      "name": "Initialized",
      "type": "event"
    },
    {
      "anonymous": false,
      "inputs": [],
      "name": "RateLimitTriggered",
      "type": "event"
    },
    {
      "anonymous": false,
      "inputs": [],
      "name": "ResetByAdmin",
      "type": "event"
    },
    {
      "anonymous": false,
      "inputs": [],
      "name": "ThresholdWarning",
      "type": "event"
    },
    {
      "anonymous": false,
      "inputs": [],
      "name": "TriggeredRateLimitExpired",
      "type": "event"
    },
    {
      "inputs": [],
      "name": "ACCESS_CONTROL_SINGLETON",
      "outputs": [
        {
          "internalType": "contract ISuAccessControl",
          "name": "",
          "type": "address"
        }
      ],
      "stateMutability": "view",
      "type": "function"
    },
    {
      "inputs": [],
      "name": "ADMIN_ROLE",
      "outputs": [
        {
          "internalType": "bytes32",
          "name": "",
          "type": "bytes32"
        }
      ],
      "stateMutability": "view",
      "type": "function"
    },
    {
      "inputs": [],
      "name": "ALERTER_ROLE",
      "outputs": [
        {
          "internalType": "bytes32",
          "name": "",
          "type": "bytes32"
        }
      ],
      "stateMutability": "view",
      "type": "function"
    },
    {
      "inputs": [],
      "name": "DAO_ROLE",
      "outputs": [
        {
          "internalType": "bytes32",
          "name": "",
          "type": "bytes32"
        }
      ],
      "stateMutability": "view",
      "type": "function"
    },
    {
      "inputs": [],
      "name": "LIQUIDATION_ACCESS_ROLE",
      "outputs": [
        {
          "internalType": "bytes32",
          "name": "",
          "type": "bytes32"
        }
      ],
      "stateMutability": "view",
      "type": "function"
    },
    {
      "inputs": [],
      "name": "MINT_ACCESS_ROLE",
      "outputs": [
        {
          "internalType": "bytes32",
          "name": "",
          "type": "bytes32"
        }
      ],
      "stateMutability": "view",
      "type": "function"
    },
    {
      "inputs": [],
      "name": "REWARD_ACCESS_ROLE",
      "outputs": [
        {
          "internalType": "bytes32",
          "name": "",
          "type": "bytes32"
        }
      ],
      "stateMutability": "view",
      "type": "function"
    },
    {
      "inputs": [],
      "name": "SLIDING_WINDOW_PARTS",
      "outputs": [
        {
          "internalType": "uint256",
          "name": "",
          "type": "uint256"
        }
      ],
      "stateMutability": "view",
      "type": "function"
    },
    {
      "inputs": [],
      "name": "SLIDING_WINDOW_SIZE",
      "outputs": [
        {
          "internalType": "uint256",
          "name": "",
          "type": "uint256"
        }
      ],
      "stateMutability": "view",
      "type": "function"
    },
    {
      "inputs": [],
      "name": "SYSTEM_ROLE",
      "outputs": [
        {
          "internalType": "bytes32",
          "name": "",
          "type": "bytes32"
        }
      ],
      "stateMutability": "view",
      "type": "function"
    },
    {
      "inputs": [],
      "name": "TRIGGER_RATE_LIMIT_LENGTH",
      "outputs": [
        {
          "internalType": "uint256",
          "name": "",
          "type": "uint256"
        }
      ],
      "stateMutability": "view",
      "type": "function"
    },
    {
      "inputs": [],
      "name": "VAULT_ACCESS_ROLE",
      "outputs": [
        {
          "internalType": "bytes32",
          "name": "",
          "type": "bytes32"
        }
      ],
      "stateMutability": "view",
      "type": "function"
    },
    {
      "inputs": [],
      "name": "WITHDRAWAL_PERIOD",
      "outputs": [
        {
          "internalType": "uint256",
          "name": "",
          "type": "uint256"
        }
      ],
      "stateMutability": "view",
      "type": "function"
    },
    {
      "inputs": [
        {
          "internalType": "address",
          "name": "token",
          "type": "address"
        },
        {
          "internalType": "address",
          "name": "to",
          "type": "address"
        },
        {
          "internalType": "uint256",
          "name": "amount",
          "type": "uint256"
        },
        {
          "internalType": "uint256",
          "name": "value",
          "type": "uint256"
        }
      ],
      "name": "controlledTransfer",
      "outputs": [],
      "stateMutability": "nonpayable",
      "type": "function"
    },
    {
      "inputs": [],
      "name": "fundsFlowThreshold",
      "outputs": [
        {
          "internalType": "uint256",
          "name": "",
          "type": "uint256"
        }
      ],
      "stateMutability": "view",
      "type": "function"
    },
    {
      "inputs": [],
      "name": "getWindowId",
      "outputs": [
        {
          "internalType": "uint256",
          "name": "",
          "type": "uint256"
        }
      ],
      "stateMutability": "view",
      "type": "function"
    },
    {
      "inputs": [
        {
          "internalType": "address",
          "name": "_authControl",
          "type": "address"
        }
      ],
      "name": "initialize",
      "outputs": [],
      "stateMutability": "nonpayable",
      "type": "function"
    },
    {
      "inputs": [
        {
          "internalType": "uint256",
          "name": "",
          "type": "uint256"
        }
      ],
      "name": "liqInPeriod",
      "outputs": [
        {
          "internalType": "uint256",
          "name": "",
          "type": "uint256"
        }
      ],
      "stateMutability": "view",
      "type": "function"
    },
    {
      "inputs": [],
      "name": "reset",
      "outputs": [],
      "stateMutability": "nonpayable",
      "type": "function"
    },
    {
      "inputs": [
        {
          "internalType": "uint256",
          "name": "_fundsFlowThreshold",
          "type": "uint256"
        }
      ],
      "name": "setFundsFlowThreshold",
      "outputs": [],
      "stateMutability": "nonpayable",
      "type": "function"
    },
    {
      "inputs": [],
      "name": "state",
      "outputs": [
        {
          "internalType": "enum State",
          "name": "",
          "type": "uint8"
        }
      ],
      "stateMutability": "view",
      "type": "function"
    },
    {
      "inputs": [
        {
          "internalType": "bytes4",
          "name": "interfaceId",
          "type": "bytes4"
        }
      ],
      "name": "supportsInterface",
      "outputs": [
        {
          "internalType": "bool",
          "name": "",
          "type": "bool"
        }
      ],
      "stateMutability": "view",
      "type": "function"
    },
    {
      "inputs": [],
      "name": "totalLiquidityInPeriod",
      "outputs": [
        {
          "internalType": "uint256",
          "name": "",
          "type": "uint256"
        }
      ],
      "stateMutability": "view",
      "type": "function"
    },
    {
      "inputs": [],
      "name": "triggerRateLimit",
      "outputs": [],
      "stateMutability": "nonpayable",
      "type": "function"
    },
    {
      "inputs": [],
      "name": "triggeredRateLimitEndTimestamp",
      "outputs": [
        {
          "internalType": "uint256",
          "name": "",
          "type": "uint256"
        }
      ],
      "stateMutability": "view",
      "type": "function"
    }
  ],
  "numDeployments": 1,
  "solcInputHash": "6c31cc5657a386a5e63d4506ca82bbf1",
  "bytecode": "0x6080806040523461001657610ee0908161001c8239f35b600080fdfe608060408181526004918236101561001657600080fd5b600092833560e01c91826301ffc9a714610c115750816303ee9f2214610be55781630bf390b814610bc757816314c376dc14610b8c5781631b1a0f8c14610b6d5781633d3aabab14610b5057816342759b5a14610b31578163438280dd14610af657816348dadd9614610ace578163511c9fb614610ab1578163616db79814610a925781636d610f5714610a6e57816371d0fb4114610a4557816375071d2a14610a0a57816375b238fc146109ef5781638e5313e0146109b45781639a9fd5ad146106ca578163b2b23ec9146106ac578163c19d93fb1461066d578163c4d66de814610433578163ce927e4c14610398578163d6e2bc13146102a4578163d826f88f1461019d57508063dc97e84e146101635763e9c265181461013857600080fd5b3461015f578160031936011261015f5760209051600080516020610e6b8339815191528152f35b5080fd5b503461015f578160031936011261015f57602090517f9a9aef7c1247d5fc769b0185c052913e39673da29a880317dfd20ebf86f26a498152f35b919050346102a057826003193601126102a05782548151632474521560e21b815283810185905233602482015260209182908290604490829060101c6001600160a01b03165afa908115610296578591610269575b501561025b5760ff19600354166003556154604204845b84811061023857857f8638e096b921f1193d3fd93c8aa5f20df7807eb3eeb1c1240cfc7a98dec415ab8180a180f35b806102466102569284610e14565b8752600284528685812055610e05565b610209565b5051631886ea7d60e11b8152fd5b6102899150823d841161028f575b6102818183610cbd565b810190610cf6565b386101f2565b503d610277565b83513d87823e3d90fd5b8280fd5b919050346102a057826003193601126102a05782548151632474521560e21b8152600080516020610e8b83398151915284820152336024820152906020908290604490829060101c6001600160a01b03165afa90811561038e578491610370575b50156103635750600260ff1960035416176003556301d5560042019081421161035057557f6abcb6f631e67bf375981ed2d7c9b077f0b60f85ddbdd711ff5e1f4f58958d198180a180f35b634e487b7160e01b835260119052602482fd5b51632d924c4d60e01b8152fd5b610388915060203d811161028f576102818183610cbd565b38610305565b82513d86823e3d90fd5b919050346102a05760203660031901126102a05782548151632474521560e21b8152600080516020610e6b83398151915284820152336024820152906020908290604490829060101c6001600160a01b03165afa90811561038e578491610415575b501561040857503560015580f35b5163599a6c3360e11b8152fd5b61042d915060203d811161028f576102818183610cbd565b386103fa565b919050346102a0576020908160031936011261066957610451610ca2565b845460ff8160081c16159081809261065c575b8015610645575b156105eb5760ff1981166001178755816105da575b5085549460ff8660081c16156105835762010000600160b01b03601084901b1662010000600160b01b0319871681178855926001600160a01b031680151590869082610522575b505061051457506104d6578480f35b7f7f26b83ff96e1f2b6a682f133852f6798a09c465da95921460cefb384740249893610100600160b01b0319161784555160018152a1388080808480f35b83516384d942fd60e01b8152fd5b86516301ffc9a760e01b8152637965db0b60e01b858201529250829060249082905afa90811561057957889161055c575b501585386104c7565b6105739150863d881161028f576102818183610cbd565b38610553565b85513d8a823e3d90fd5b835162461bcd60e51b8152908101859052602b60248201527f496e697469616c697a61626c653a20636f6e7472616374206973206e6f74206960448201526a6e697469616c697a696e6760a81b6064820152608490fd5b61ffff191661010117865538610480565b835162461bcd60e51b8152808701869052602e60248201527f496e697469616c697a61626c653a20636f6e747261637420697320616c72656160448201526d191e481a5b9a5d1a585b1a5e995960921b6064820152608490fd5b50303b15801561046b5750600160ff82161461046b565b50600160ff821610610464565b8380fd5b83833461015f578160031936011261015f5760ff60035416905191600382101561069957602083838152f35b634e487b7160e01b815260218452602490fd5b9050346102a057826003193601126102a05760209250549051908152f35b8284346109b15760803660031901126109b1576106e5610ca2565b60249081356001600160a01b03818116918290036109ad57600392835460ff81168581101561099b57600214610952575b5061546042048652602093600285528787206107356064358254610de2565b905561073f610e21565b6001548082111561075a5789516318de7acd60e31b81528b90fd5b60019a999697989a1c106108f0575b5016825190848201926323b872dd60e01b84523387840152604483015260443560648301526064825260a082019260018060401b0392808510848611176108de5760e08101858110858211176108cc5786528685527f5361666545524332303a206c6f772d6c6576656c2063616c6c206661696c656460c082015251899182919082855af1903d156108bd573d9283116108ab579061082793929185519261081a88601f19601f8401160185610cbd565b83523d8a8885013e610d0e565b805190838215928315610893575b50505015610841578480f35b5162461bcd60e51b815292830152602a908201527f5361666545524332303a204552433230206f7065726174696f6e20646964206e6044820152691bdd081cdd58d8d9595960b21b6064820152608490fd5b6108a39350820181019101610cf6565b868381610835565b634e487b7160e01b8952604188528689fd5b90610827939250606091610d0e565b634e487b7160e01b8b5260418a52888bfd5b634e487b7160e01b8a5260418952878afd5b805460ff8116828110156109405760010361090c575b50610769565b60ff191660011790557f734132146c734bfbd0bb9343217e4e2a08256925b14661ad6a92f28401188ce98880a18880610906565b634e487b7160e01b8b5260218a52888bfd5b885442101561096b578751630bc302bd60e21b81528990fd5b60ff191684557fad8b24992ce64204403561393b5e021a0dce9be191355ced52708d465522e3558680a188610716565b634e487b7160e01b885260218a528688fd5b8480fd5b80fd5b50503461015f578160031936011261015f57602090517fe453bacb314e78dcd5192e6b1a2b1f0e7c76e92f6b7e429a6a90f04e39db3b768152f35b50503461015f578160031936011261015f5751908152602090f35b50503461015f578160031936011261015f57602090517f5719df9ef2c4678b547f89e4f5ae410dbf400fc51cf3ded434c55f6adea2c43f8152f35b50503461015f578160031936011261015f5760209051600080516020610e8b8339815191528152f35b50503461015f578160031936011261015f57602090610a8b610e21565b9051908152f35b50503461015f578160031936011261015f576020905161546042048152f35b919050346102a057826003193601126102a0576020925051908152f35b9050346102a05760203660031901126102a05760209282913581526002845220549051908152f35b50503461015f578160031936011261015f57602090517f39f61ca2a1a28fee144218173ec637b649a353e4026b2738c673800e5bf1437b8152f35b50503461015f578160031936011261015f57602090516301d556008152f35b50503461015f578160031936011261015f57602090516154608152f35b50503461015f578160031936011261015f576020906001549051908152f35b50503461015f578160031936011261015f57602090517fe965846df3dd5b1dfa65f58e31477079e90140e0908b6dd31b5aead5a57cf3658152f35b50503461015f578160031936011261015f5760209051620151808152f35b50503461015f578160031936011261015f579054905160109190911c6001600160a01b03168152602090f35b9291503461066957602036600319011261066957803563ffffffff60e01b81168091036109ad5784546301ffc9a760e01b8552918401526020908390602490829060101c6001600160a01b03165afa918215610c985760209392610c79575b50519015158152f35b610c91919250833d811161028f576102818183610cbd565b9038610c70565b81513d85823e3d90fd5b600435906001600160a01b0382168203610cb857565b600080fd5b601f909101601f19168101906001600160401b03821190821017610ce057604052565b634e487b7160e01b600052604160045260246000fd5b90816020910312610cb857518015158103610cb85790565b91929015610d705750815115610d22575090565b3b15610d2b5790565b60405162461bcd60e51b815260206004820152601d60248201527f416464726573733a2063616c6c20746f206e6f6e2d636f6e74726163740000006044820152606490fd5b825190915015610d835750805190602001fd5b6040519062461bcd60e51b82528160208060048301528251908160248401526000935b828510610dc9575050604492506000838284010152601f80199101168101030190fd5b8481018201518686016044015293810193859350610da6565b91908201809211610def57565b634e487b7160e01b600052601160045260246000fd5b6000198114610def5760010190565b91908203918211610def57565b60008061546042045b60048210610e3757505090565b9091610e5e610e6491610e4a8585610e14565b600052600260205260406000205490610de2565b92610e05565b90610e2a56fe3b5d4cc60d3ec3516ee8ae083bd60934f6eb2a6c54b1229985c41bfb092b2603880a91047114272656e533301261260c75e4d11543ac7303d6fe4204579ec727a264697066735822122054adb7b138c0a3c05a75dbb05eb9f22a770e867b47681cb9d836c087467f7dea64736f6c63430008110033",
  "devdoc": {
    "details": "This is gas-unoptimized version for testing. See the associated interface for full details.",
    "kind": "dev",
    "methods": {
      "controlledTransfer(address,address,uint256,uint256)": {
        "details": "This function will revert if the contract state is interrupted.",
        "params": {
          "amount": "The amount to be transferred.",
          "to": "The address to transfer to.",
          "token": "The address of the erc20 token to transfer",
          "value": "The total value of the transfer, in fiat amount, for ex. $100 should be passed as 100, not 100*1e18.        value is needed to avoid expensive call to the oracle inside of the transfer code."
        }
      },
      "supportsInterface(bytes4)": {
        "details": "Returns true if this contract implements the interface defined by `interfaceId`. See the corresponding https://eips.ethereum.org/EIPS/eip-165#how-interfaces-are-identified[EIP section] to learn more about how these ids are created. This function call must use less than 30 000 gas."
      }
    },
    "stateVariables": {
      "SLIDING_WINDOW_PARTS": {
        "details": "Here we use sliding window algorithm (https://www.geeksforgeeks.org/window-sliding-technique/) to count sum of funds passed during 1 day"
      }
    },
    "title": "CircuitBreakerUnoptimized",
    "version": 1
  },
  "userdoc": {
    "kind": "user",
    "methods": {
      "controlledTransfer(address,address,uint256,uint256)": {
        "notice": "Transfer funds to a specified address.          If the threshold is exceeded, the transfer will be interrupted."
      }
    },
    "version": 1
  },
  "storageLayout": {
    "storage": [
      {
        "astId": 416,
        "contract": "contracts/emergency/CircuitBreakerUnoptimized.sol:CircuitBreakerUnoptimized",
        "label": "_initialized",
        "offset": 0,
        "slot": "0",
        "type": "t_uint8"
      },
      {
        "astId": 419,
        "contract": "contracts/emergency/CircuitBreakerUnoptimized.sol:CircuitBreakerUnoptimized",
        "label": "_initializing",
        "offset": 1,
        "slot": "0",
        "type": "t_bool"
      },
      {
        "astId": 16995,
        "contract": "contracts/emergency/CircuitBreakerUnoptimized.sol:CircuitBreakerUnoptimized",
        "label": "ACCESS_CONTROL_SINGLETON",
        "offset": 2,
        "slot": "0",
        "type": "t_contract(ISuAccessControl)17205"
      },
      {
        "astId": 8402,
        "contract": "contracts/emergency/CircuitBreakerUnoptimized.sol:CircuitBreakerUnoptimized",
        "label": "fundsFlowThreshold",
        "offset": 0,
        "slot": "1",
        "type": "t_uint256"
      },
      {
        "astId": 8406,
        "contract": "contracts/emergency/CircuitBreakerUnoptimized.sol:CircuitBreakerUnoptimized",
        "label": "liqInPeriod",
        "offset": 0,
        "slot": "2",
        "type": "t_mapping(t_uint256,t_uint256)"
      },
      {
        "astId": 8409,
        "contract": "contracts/emergency/CircuitBreakerUnoptimized.sol:CircuitBreakerUnoptimized",
        "label": "state",
        "offset": 0,
        "slot": "3",
        "type": "t_enum(State)11801"
      },
      {
        "astId": 8411,
        "contract": "contracts/emergency/CircuitBreakerUnoptimized.sol:CircuitBreakerUnoptimized",
        "label": "triggeredRateLimitEndTimestamp",
        "offset": 0,
        "slot": "4",
        "type": "t_uint256"
      }
    ],
    "types": {
      "t_bool": {
        "encoding": "inplace",
        "label": "bool",
        "numberOfBytes": "1"
      },
      "t_contract(ISuAccessControl)17205": {
        "encoding": "inplace",
        "label": "contract ISuAccessControl",
        "numberOfBytes": "20"
      },
      "t_enum(State)11801": {
        "encoding": "inplace",
        "label": "enum State",
        "numberOfBytes": "1"
      },
      "t_mapping(t_uint256,t_uint256)": {
        "encoding": "mapping",
        "key": "t_uint256",
        "label": "mapping(uint256 => uint256)",
        "numberOfBytes": "32",
        "value": "t_uint256"
      },
      "t_uint256": {
        "encoding": "inplace",
        "label": "uint256",
        "numberOfBytes": "32"
      },
      "t_uint8": {
        "encoding": "inplace",
        "label": "uint8",
        "numberOfBytes": "1"
      }
    }
  }
}