{
  "address": "0xfF5C0fB36Ce7010863bbcC0026Eb9c25B4D8cDaD",
  "abi": [
    {
      "inputs": [
        {
          "internalType": "address",
          "name": "safeEngine_",
          "type": "address"
        },
        {
          "internalType": "address",
          "name": "systemCoin_",
          "type": "address"
        }
      ],
      "stateMutability": "nonpayable",
      "type": "constructor"
    },
    {
      "anonymous": false,
      "inputs": [
        {
          "indexed": true,
          "internalType": "address",
          "name": "usr",
          "type": "address"
        }
      ],
      "name": "AddAuthorization",
      "type": "event"
    },
    {
      "anonymous": false,
      "inputs": [],
      "name": "DisableContract",
      "type": "event"
    },
    {
      "anonymous": false,
      "inputs": [
        {
          "indexed": true,
          "internalType": "address",
          "name": "usr",
          "type": "address"
        },
        {
          "indexed": false,
          "internalType": "uint256",
          "name": "wad",
          "type": "uint256"
        }
      ],
      "name": "Exit",
      "type": "event"
    },
    {
      "anonymous": false,
      "inputs": [
        {
          "indexed": true,
          "internalType": "address",
          "name": "usr",
          "type": "address"
        },
        {
          "indexed": false,
          "internalType": "uint256",
          "name": "wad",
          "type": "uint256"
        }
      ],
      "name": "Join",
      "type": "event"
    },
    {
      "anonymous": false,
      "inputs": [
        {
          "indexed": true,
          "internalType": "address",
          "name": "usr",
          "type": "address"
        }
      ],
      "name": "RemoveAuthorization",
      "type": "event"
    },
    {
      "inputs": [
        {
          "internalType": "address",
          "name": "usr",
          "type": "address"
        }
      ],
      "name": "addAuthorization",
      "outputs": [],
      "stateMutability": "nonpayable",
      "type": "function"
    },
    {
      "inputs": [
        {
          "internalType": "address",
          "name": "",
          "type": "address"
        }
      ],
      "name": "authorizedAccounts",
      "outputs": [
        {
          "internalType": "uint256",
          "name": "",
          "type": "uint256"
        }
      ],
      "stateMutability": "view",
      "type": "function"
    },
    {
      "inputs": [],
      "name": "contractEnabled",
      "outputs": [
        {
          "internalType": "uint256",
          "name": "",
          "type": "uint256"
        }
      ],
      "stateMutability": "view",
      "type": "function"
    },
    {
      "inputs": [],
      "name": "disableContract",
      "outputs": [],
      "stateMutability": "nonpayable",
      "type": "function"
    },
    {
      "inputs": [
        {
          "internalType": "address",
          "name": "usr",
          "type": "address"
        },
        {
          "internalType": "uint256",
          "name": "wad",
          "type": "uint256"
        }
      ],
      "name": "exit",
      "outputs": [],
      "stateMutability": "nonpayable",
      "type": "function"
    },
    {
      "inputs": [
        {
          "internalType": "address",
          "name": "usr",
          "type": "address"
        },
        {
          "internalType": "uint256",
          "name": "wad",
          "type": "uint256"
        }
      ],
      "name": "join",
      "outputs": [],
      "stateMutability": "nonpayable",
      "type": "function"
    },
    {
      "inputs": [
        {
          "internalType": "address",
          "name": "usr",
          "type": "address"
        }
      ],
      "name": "removeAuthorization",
      "outputs": [],
      "stateMutability": "nonpayable",
      "type": "function"
    },
    {
      "inputs": [],
      "name": "safeEngine",
      "outputs": [
        {
          "internalType": "contract ISafeEngine",
          "name": "",
          "type": "address"
        }
      ],
      "stateMutability": "view",
      "type": "function"
    },
    {
      "inputs": [],
      "name": "systemCoin",
      "outputs": [
        {
          "internalType": "contract ICoin",
          "name": "",
          "type": "address"
        }
      ],
      "stateMutability": "view",
      "type": "function"
    }
  ],
  "numDeployments": 1,
  "solcInputHash": "5a3048d5b2f56301a323a2276b6562ea",
  "bytecode": "0x60803461009d57601f61076638819003918201601f19168301916001600160401b038311848410176100a257808492604094855283398101031261009d57610052602061004b836100b8565b92016100b8565b3360005260006020526001604060002055600160035560018060a01b03908160018060a01b031993168360015416176001551690600254161760025560405161069990816100cd8239f35b600080fd5b634e487b7160e01b600052604160045260246000fd5b51906001600160a01b038216820361009d5756fe6080604081815260048036101561001557600080fd5b600092833560e01c90816324ba5884146104fa5750806335b281531461048f5780633b4da69f1461033a57806341b3a0d91461031b57806367aea313146102f2578063894ba8331461029f57806394f3f81d14610231578063a7e94455146102085763ef693bed1461008657600080fd5b3461019c578160031936011261019c5761009e61052d565b90602435926001600354036101c6576001546001600160a01b0392869184166100c6876105f4565b90803b156101c2578451633beaf2b760e21b815291849183918290849082906100f39030338b85016105b7565b03925af180156101b8579083916101a0575b50508360025416803b1561019c578683918783610136958851968795869485936340c10f1960e01b855284016105d9565b03925af1801561019257610176575b50505192835216907f22d324652c93739755cf4581508b60875ebdd78c20c0cff5cf8e23452b29963190602090a280f35b6101829093929361058e565b61018e57908438610145565b8480fd5b83513d84823e3d90fd5b8280fd5b6101a99061058e565b6101b4578138610105565b5080fd5b84513d85823e3d90fd5b8380fd5b906020606492519162461bcd60e51b8352820152601c60248201527b10dbda5b929bda5b8bdb9bdd0b58dbdb9d1c9858dd115b98589b195960221b6044820152fd5b5050346101b457816003193601126101b45760025490516001600160a01b039091168152602090f35b5050346101b45760203660031901126101b4578161024d61052d565b3382528160205261026360018484205414610548565b6001600160a01b03168082526020829052918120557f8834a87e641e9716be4f34527af5d23e11624f1ddeefede6ad75a9acfc31b9038280a280f35b5050346101b457816003193601126101b45760016102c7913384528360205283205414610548565b806003557f2d4b4ecff7bd7503135271925520a2f6c0d98c9473ffc1a1e72c92502f51b25e8180a180f35b5050346101b457816003193601126101b45760015490516001600160a01b039091168152602090f35b5050346101b457816003193601126101b4576020906003549051908152f35b503461019c578160031936011261019c5761035361052d565b6001546024359391926001600160a01b03929186908416610373876105f4565b813b1561019c57829161039c918651948580948193633beaf2b760e21b83528c308b85016105b7565b03925af180156104725761047c575b50826002541690602083518093632770a7eb60e21b8252818a816103d28c338984016105d9565b03925af1801561047257610412575b50505192835216907fb4e09949657f21548b58afe74e7b86cd2295da5ff1598ae1e5faecb1cf19ca9590602090a280f35b6020939293903d821161046a575b601f8201601f19168301906001600160401b038211848310176104555750906020929185528101031261018e579038806103e1565b604190634e487b7160e01b6000525260246000fd5b3d9150610420565b83513d89823e3d90fd5b6104889096919661058e565b94386103ab565b5050346101b45760203660031901126101b45760016104ac61052d565b338452836020526104c1828486205414610548565b818060a01b031691828452836020528320557f599a298163e1678bb1c676052a8930bf0b8a1261ed6e01b8a2391e55f70001028280a280f35b8490843461019c57602036600319011261019c576020926001600160a01b0361052161052d565b16815280845220548152f35b600435906001600160a01b038216820361054357565b600080fd5b1561054f57565b60405162461bcd60e51b815260206004820152601760248201527610dbda5b929bda5b8bdb9bdd0b585d5d1a1bdc9a5e9959604a1b6044820152606490fd5b6001600160401b0381116105a157604052565b634e487b7160e01b600052604160045260246000fd5b6001600160a01b03918216815291166020820152604081019190915260600190565b6001600160a01b039091168152602081019190915260400190565b906000916000908015908115610611575b501561060e5750565b80fd5b909350676765c793fa10079d601b1b90818102828104820361064f57809561063b57041438610605565b634e487b7160e01b84526012600452602484fd5b634e487b7160e01b84526011600452602484fdfea2646970667358221220caf9b0b9b39ccb69fb91d5899c40ea8ef7265d5606aa2ffa6586783c47a8155664736f6c63430008110033",
  "devdoc": {
    "kind": "dev",
    "methods": {
      "exit(address,uint256)": {
        "details": "Inside the system, coins have 45 (rad) decimals but outside they have 18 decimals (wad). When we exit, we specify a wad amount of coins and then the contract automatically multiplies wad by 10**27 to move the correct 45 decimal coin amount to this adapter",
        "params": {
          "usr": "Account that will receive the exited coins",
          "wad": "Amount of internal coins to join (18 decimal number that will be multiplied by ray)*"
        }
      },
      "join(address,uint256)": {
        "details": "Exited coins have 18 decimals but inside the system they have 45 (rad) decimals. When we join, the amount (wad) is multiplied by 10**27 (ray)",
        "params": {
          "usr": "Account that will receive the joined coins",
          "wad": "Amount of external coins to join (18 decimal number)*"
        }
      }
    },
    "version": 1
  },
  "userdoc": {
    "kind": "user",
    "methods": {
      "exit(address,uint256)": {
        "notice": "Exit pegged-coins from the system and inside 'Coin.sol'"
      },
      "join(address,uint256)": {
        "notice": "Join pegged-coins in the system"
      }
    },
    "version": 1
  },
  "storageLayout": {
    "storage": [
      {
        "astId": 3494,
        "contract": "contracts/makerdao/core/adapters/CoinJoin.sol:CoinJoin",
        "label": "authorizedAccounts",
        "offset": 0,
        "slot": "0",
        "type": "t_mapping(t_address,t_uint256)"
      },
      {
        "astId": 3547,
        "contract": "contracts/makerdao/core/adapters/CoinJoin.sol:CoinJoin",
        "label": "safeEngine",
        "offset": 0,
        "slot": "1",
        "type": "t_contract(ISafeEngine)5465"
      },
      {
        "astId": 3550,
        "contract": "contracts/makerdao/core/adapters/CoinJoin.sol:CoinJoin",
        "label": "systemCoin",
        "offset": 0,
        "slot": "2",
        "type": "t_contract(ICoin)4931"
      },
      {
        "astId": 3552,
        "contract": "contracts/makerdao/core/adapters/CoinJoin.sol:CoinJoin",
        "label": "contractEnabled",
        "offset": 0,
        "slot": "3",
        "type": "t_uint256"
      }
    ],
    "types": {
      "t_address": {
        "encoding": "inplace",
        "label": "address",
        "numberOfBytes": "20"
      },
      "t_contract(ICoin)4931": {
        "encoding": "inplace",
        "label": "contract ICoin",
        "numberOfBytes": "20"
      },
      "t_contract(ISafeEngine)5465": {
        "encoding": "inplace",
        "label": "contract ISafeEngine",
        "numberOfBytes": "20"
      },
      "t_mapping(t_address,t_uint256)": {
        "encoding": "mapping",
        "key": "t_address",
        "label": "mapping(address => uint256)",
        "numberOfBytes": "32",
        "value": "t_uint256"
      },
      "t_uint256": {
        "encoding": "inplace",
        "label": "uint256",
        "numberOfBytes": "32"
      }
    }
  }
}