{
  "address": "0xfF5025892bFBcd5Db344d7312C2FbC86Df34D2b5",
  "abi": [
    {
      "inputs": [
        {
          "internalType": "address",
          "name": "accessControlSingleton",
          "type": "address"
        },
        {
          "internalType": "address",
          "name": "safeEngine_",
          "type": "address"
        },
        {
          "internalType": "address",
          "name": "systemCoin_",
          "type": "address"
        },
        {
          "internalType": "address",
          "name": "rewardChef_",
          "type": "address"
        }
      ],
      "stateMutability": "nonpayable",
      "type": "constructor"
    },
    {
      "inputs": [],
      "name": "BadAccessControlSingleton",
      "type": "error"
    },
    {
      "inputs": [],
      "name": "OnlyAdminError",
      "type": "error"
    },
    {
      "inputs": [],
      "name": "OnlyAlerterError",
      "type": "error"
    },
    {
      "inputs": [],
      "name": "OnlyCDPAccessError",
      "type": "error"
    },
    {
      "inputs": [],
      "name": "OnlyDAOError",
      "type": "error"
    },
    {
      "inputs": [],
      "name": "OnlyDisablerAccessError",
      "type": "error"
    },
    {
      "inputs": [],
      "name": "OnlyLiquidationAccessError",
      "type": "error"
    },
    {
      "inputs": [],
      "name": "OnlyMintAccessError",
      "type": "error"
    },
    {
      "inputs": [],
      "name": "OnlyRewardAccessError",
      "type": "error"
    },
    {
      "inputs": [],
      "name": "OnlyRoleError",
      "type": "error"
    },
    {
      "anonymous": false,
      "inputs": [],
      "name": "DisableContract",
      "type": "event"
    },
    {
      "anonymous": false,
      "inputs": [
        {
          "indexed": true,
          "internalType": "address",
          "name": "usr",
          "type": "address"
        },
        {
          "indexed": false,
          "internalType": "uint256",
          "name": "wad",
          "type": "uint256"
        }
      ],
      "name": "Exit",
      "type": "event"
    },
    {
      "anonymous": false,
      "inputs": [
        {
          "indexed": true,
          "internalType": "address",
          "name": "usr",
          "type": "address"
        },
        {
          "indexed": false,
          "internalType": "uint256",
          "name": "wad",
          "type": "uint256"
        }
      ],
      "name": "Join",
      "type": "event"
    },
    {
      "anonymous": false,
      "inputs": [],
      "name": "UpdateRewardChef",
      "type": "event"
    },
    {
      "inputs": [],
      "name": "ACCESS_CONTROL_SINGLETON",
      "outputs": [
        {
          "internalType": "contract ISuAccessControl",
          "name": "",
          "type": "address"
        }
      ],
      "stateMutability": "view",
      "type": "function"
    },
    {
      "inputs": [],
      "name": "ADMIN_ROLE",
      "outputs": [
        {
          "internalType": "bytes32",
          "name": "",
          "type": "bytes32"
        }
      ],
      "stateMutability": "view",
      "type": "function"
    },
    {
      "inputs": [],
      "name": "ALERTER_ROLE",
      "outputs": [
        {
          "internalType": "bytes32",
          "name": "",
          "type": "bytes32"
        }
      ],
      "stateMutability": "view",
      "type": "function"
    },
    {
      "inputs": [],
      "name": "CDP_ACCESS_ROLE",
      "outputs": [
        {
          "internalType": "bytes32",
          "name": "",
          "type": "bytes32"
        }
      ],
      "stateMutability": "view",
      "type": "function"
    },
    {
      "inputs": [],
      "name": "DAO_ROLE",
      "outputs": [
        {
          "internalType": "bytes32",
          "name": "",
          "type": "bytes32"
        }
      ],
      "stateMutability": "view",
      "type": "function"
    },
    {
      "inputs": [],
      "name": "DISABLER_ROLE",
      "outputs": [
        {
          "internalType": "bytes32",
          "name": "",
          "type": "bytes32"
        }
      ],
      "stateMutability": "view",
      "type": "function"
    },
    {
      "inputs": [],
      "name": "LIQUIDATION_ACCESS_ROLE",
      "outputs": [
        {
          "internalType": "bytes32",
          "name": "",
          "type": "bytes32"
        }
      ],
      "stateMutability": "view",
      "type": "function"
    },
    {
      "inputs": [],
      "name": "MINT_ACCESS_ROLE",
      "outputs": [
        {
          "internalType": "bytes32",
          "name": "",
          "type": "bytes32"
        }
      ],
      "stateMutability": "view",
      "type": "function"
    },
    {
      "inputs": [],
      "name": "REWARD_ACCESS_ROLE",
      "outputs": [
        {
          "internalType": "bytes32",
          "name": "",
          "type": "bytes32"
        }
      ],
      "stateMutability": "view",
      "type": "function"
    },
    {
      "inputs": [],
      "name": "SYSTEM_ROLE",
      "outputs": [
        {
          "internalType": "bytes32",
          "name": "",
          "type": "bytes32"
        }
      ],
      "stateMutability": "view",
      "type": "function"
    },
    {
      "inputs": [
        {
          "internalType": "bytes32",
          "name": "",
          "type": "bytes32"
        }
      ],
      "name": "collateralAddress",
      "outputs": [
        {
          "internalType": "address",
          "name": "",
          "type": "address"
        }
      ],
      "stateMutability": "view",
      "type": "function"
    },
    {
      "inputs": [],
      "name": "contractEnabled",
      "outputs": [
        {
          "internalType": "uint256",
          "name": "",
          "type": "uint256"
        }
      ],
      "stateMutability": "view",
      "type": "function"
    },
    {
      "inputs": [],
      "name": "disableContract",
      "outputs": [],
      "stateMutability": "nonpayable",
      "type": "function"
    },
    {
      "inputs": [
        {
          "internalType": "bytes32",
          "name": "collateralType",
          "type": "bytes32"
        },
        {
          "internalType": "address",
          "name": "user",
          "type": "address"
        },
        {
          "internalType": "address",
          "name": "cdp",
          "type": "address"
        },
        {
          "internalType": "uint256",
          "name": "wad",
          "type": "uint256"
        }
      ],
      "name": "exit",
      "outputs": [],
      "stateMutability": "nonpayable",
      "type": "function"
    },
    {
      "inputs": [
        {
          "internalType": "bytes32",
          "name": "_collateralType",
          "type": "bytes32"
        },
        {
          "internalType": "address",
          "name": "_collateralAddress",
          "type": "address"
        }
      ],
      "name": "initializeCollateralType",
      "outputs": [],
      "stateMutability": "nonpayable",
      "type": "function"
    },
    {
      "inputs": [
        {
          "internalType": "bytes32",
          "name": "collateralType",
          "type": "bytes32"
        },
        {
          "internalType": "address",
          "name": "user",
          "type": "address"
        },
        {
          "internalType": "address",
          "name": "cdp",
          "type": "address"
        },
        {
          "internalType": "uint256",
          "name": "wad",
          "type": "uint256"
        }
      ],
      "name": "join",
      "outputs": [],
      "stateMutability": "nonpayable",
      "type": "function"
    },
    {
      "inputs": [],
      "name": "rewardChef",
      "outputs": [
        {
          "internalType": "contract IRewardChefV2",
          "name": "",
          "type": "address"
        }
      ],
      "stateMutability": "view",
      "type": "function"
    },
    {
      "inputs": [],
      "name": "safeEngine",
      "outputs": [
        {
          "internalType": "contract ISafeEngine",
          "name": "",
          "type": "address"
        }
      ],
      "stateMutability": "view",
      "type": "function"
    },
    {
      "inputs": [
        {
          "internalType": "bytes4",
          "name": "interfaceId",
          "type": "bytes4"
        }
      ],
      "name": "supportsInterface",
      "outputs": [
        {
          "internalType": "bool",
          "name": "",
          "type": "bool"
        }
      ],
      "stateMutability": "view",
      "type": "function"
    },
    {
      "inputs": [],
      "name": "systemCoin",
      "outputs": [
        {
          "internalType": "contract ICoin",
          "name": "",
          "type": "address"
        }
      ],
      "stateMutability": "view",
      "type": "function"
    },
    {
      "inputs": [
        {
          "internalType": "address",
          "name": "rewardChef_",
          "type": "address"
        }
      ],
      "name": "updateRewardChef",
      "outputs": [],
      "stateMutability": "nonpayable",
      "type": "function"
    }
  ],
  "numDeployments": 2,
  "solcInputHash": "c51927dd277f1318ab9de6db4c2443ac",
  "bytecode": "0x608060409080825234620001665760808162000dc280380380916200002582856200016b565b83398101031262000166576200003b81620001a5565b6200004960208301620001a5565b916200006560606200005d868401620001a5565b9201620001a5565b600080546001600160a01b039485166001600160a01b03199182168117835587516301ffc9a760e01b8152637965db0b60e01b600482015291969394939290602090839060249082905afa9182156200015a5781926200010e575b505015620000fd5790838092600160055516856002541617600255168360035416176003551690600154161760015551610c079081620001bb8239f35b85516384d942fd60e01b8152600490fd5b9091506020813d821162000151575b816200012c602093836200016b565b810103126200014d57519081151582036200014a57503880620000c0565b80fd5b5080fd5b3d91506200011d565b508751903d90823e3d90fd5b600080fd5b601f909101601f19168101906001600160401b038211908210176200018f57604052565b634e487b7160e01b600052604160045260246000fd5b51906001600160a01b0382168203620001665756fe6080604081815260048036101561001557600080fd5b600092833560e01c90816301ffc9a71461099d5750806303ee9f22146109755780630a09b5911461094457806319b6fb01146107cf57806320d8a59f1461071a57806341b3a0d9146106fb578063438280dd146106c057806367aea3131461069757806371d0fb411461065c57806375071d2a1461062157806375b238fc14610606578063894ba833146105425780638e5313e0146105075780639a43e66d1461041f578063a7e94455146103f6578063bd5f5be6146103bb578063c9bc438414610392578063d2351cee14610369578063dc97e84e1461032e578063e9c26518146102ef5763f0b522db1461010a57600080fd5b346102eb5761011836610a68565b949190936001600554036102a9576002546001600160a01b039488939291861661014189610b42565b90803b156102a5578651633beaf2b760e21b8152918691839182908490829061016e9030338c8501610b05565b03925af1801561028757908591610291575b50508560035416803b156102615785516340c10f1960e01b815290859082908183816101af8f8f8b8401610b27565b03925af180156102875790859161026f575b505085600154169084528160205285858520541690803b15610261578492836084928989519788968795633deffa8b60e21b87528601521660248401528b6044840152600160648401525af1801561026557610249575b50505192835216907f22d324652c93739755cf4581508b60875ebdd78c20c0cff5cf8e23452b29963190602090a280f35b61025590939293610aa1565b61026157908438610218565b8480fd5b83513d84823e3d90fd5b61027890610aa1565b6102835783386101c1565b8380fd5b86513d87823e3d90fd5b61029a90610aa1565b610283578338610180565b8580fd5b606490602084519162461bcd60e51b8352820152601c60248201527b10dbda5b929bda5b8bdb9bdd0b58dbdb9d1c9858dd115b98589b195960221b6044820152fd5b8280fd5b50503461032a578160031936011261032a57602090517f3b5d4cc60d3ec3516ee8ae083bd60934f6eb2a6c54b1229985c41bfb092b26038152f35b5080fd5b50503461032a578160031936011261032a57602090517f9a9aef7c1247d5fc769b0185c052913e39673da29a880317dfd20ebf86f26a498152f35b50503461032a578160031936011261032a5760209051600080516020610bb28339815191528152f35b50503461032a578160031936011261032a5760015490516001600160a01b039091168152602090f35b50503461032a578160031936011261032a57602090517f4f14c8366fa999817edc9f29824eb88a00cc31225e2156f399da4bc91049eb108152f35b50503461032a578160031936011261032a5760035490516001600160a01b039091168152602090f35b50346102eb5760203660031901126102eb5780356001600160a01b038181169391849003610502576020604491865416835192838092632474521560e21b825289888301523360248301525afa9081156104f85785916104ca575b50156104bd575050600180546001600160a01b0319169190911790557f1069a911d5b955446293ca24a9ec6822758127a5efa52063334b08eec9efff058180a180f35b51631886ea7d60e11b8152fd5b6104eb915060203d81116104f1575b6104e38183610aca565b810190610aed565b3861047a565b503d6104d9565b82513d87823e3d90fd5b600080fd5b50503461032a578160031936011261032a57602090517fe453bacb314e78dcd5192e6b1a2b1f0e7c76e92f6b7e429a6a90f04e39db3b768152f35b5090346102eb57826003193601126102eb5782548151632474521560e21b8152600080516020610bb28339815191528482015233602482015290602090829060449082906001600160a01b03165afa9081156105fc5784916105de575b50156105d15782806005557f2d4b4ecff7bd7503135271925520a2f6c0d98c9473ffc1a1e72c92502f51b25e8180a180f35b5163bb0684b760e01b8152fd5b6105f6915060203d81116104f1576104e38183610aca565b3861059f565b82513d86823e3d90fd5b50503461032a578160031936011261032a5751908152602090f35b50503461032a578160031936011261032a57602090517f5719df9ef2c4678b547f89e4f5ae410dbf400fc51cf3ded434c55f6adea2c43f8152f35b50503461032a578160031936011261032a57602090517f880a91047114272656e533301261260c75e4d11543ac7303d6fe4204579ec7278152f35b50503461032a578160031936011261032a5760025490516001600160a01b039091168152602090f35b50503461032a578160031936011261032a57602090517f39f61ca2a1a28fee144218173ec637b649a353e4026b2738c673800e5bf1437b8152f35b50503461032a578160031936011261032a576020906005549051908152f35b5090346102eb57806003193601126102eb576024356001600160a01b038181169391849003610502576020604491865416845192838092632474521560e21b825289878301523360248301525afa9081156107c55785916107a7575b50156107995780358452602052822080546001600160a01b031916909117905580f35b9051631886ea7d60e11b8152fd5b6107bf915060203d81116104f1576104e38183610aca565b38610776565b83513d87823e3d90fd5b50346102eb576107de36610a68565b600254909591946001600160a01b0394929390918516886107fe89610b42565b823b1561032a576108269289838951809681958294633beaf2b760e21b8452308c8501610b05565b03925af1801561093a57610923575b50908792918560035416803b15610261578551632770a7eb60e21b815290859082908183816108678f338b8401610b27565b03925af180156102875790859161090f575b505085600154169284528160205285858520541692803b156102615788938580946108b7895197889687958694636aed34f760e01b86528501610b05565b03925af18015610265576108f7575b50505192835216907fb4e09949657f21548b58afe74e7b86cd2295da5ff1598ae1e5faecb1cf19ca9590602090a280f35b61090390939293610aa1565b610261579084386108c6565b61091890610aa1565b610283578338610879565b610931909891939298610aa1565b96909138610835565b85513d8b823e3d90fd5b50346102eb5760203660031901126102eb57803583526020908152918190205490516001600160a01b039091168152f35b50503461032a578160031936011261032a57905490516001600160a01b039091168152602090f35b84939150346102835760203660031901126102835782359263ffffffff60e01b841680940361026157634eea9d8f60e01b8414938415610a57575b84156109eb575b60208585519015158152f35b85546301ffc9a760e01b84529183015291925090602090829060249082906001600160a01b03165afa908115610a4b5760209391610a2e575b50908380806109df565b610a459150833d81116104f1576104e38183610aca565b83610a24565b505051903d90823e3d90fd5b6301ffc9a760e01b811494506109d8565b608090600319011261050257600435906001600160a01b0390602435828116810361050257916044359081168103610502579060643590565b6001600160401b038111610ab457604052565b634e487b7160e01b600052604160045260246000fd5b601f909101601f19168101906001600160401b03821190821017610ab457604052565b90816020910312610502575180151581036105025790565b6001600160a01b03918216815291166020820152604081019190915260600190565b6001600160a01b039091168152602081019190915260400190565b906000916000908015908115610b5f575b5015610b5c5750565b80fd5b909350676765c793fa10079d601b1b908181028281048203610b9d578095610b8957041438610b53565b634e487b7160e01b84526012600452602484fd5b634e487b7160e01b84526011600452602484fdfeb0fdd1623e42dbffda4acd8bd643e1cb69f00f0e83abeaa8150ee42cf0fd105ea264697066735822122056046e6a0023eb16afb192450bd2e7b23d3e81f9637dc652db812d26ce06c60c64736f6c63430008110033",
  "devdoc": {
    "kind": "dev",
    "methods": {
      "exit(bytes32,address,address,uint256)": {
        "details": "Inside the system, coins have 45 (rad) decimals but outside they have 18 decimals (wad). When we exit, we specify a wad amount of coins and then the contract automatically multiplies wad by 10**27 to move the correct 45 decimal coin amount to this adapter",
        "params": {
          "cdp": "Account that will receive the exited coins",
          "collateralType": "Collateral that will be used for repay",
          "user": "Account that call borrow/repay function and will receive rewards in RewardChef",
          "wad": "Amount of internal coins to join (18 decimal number that will be multiplied by ray)*"
        }
      },
      "join(bytes32,address,address,uint256)": {
        "details": "Exited coins have 18 decimals but inside the system they have 45 (rad) decimals. When we join, the amount (wad) is multiplied by 10**27 (ray)",
        "params": {
          "cdp": "Account that will receive the joined coins",
          "collateralType": "Collateral that will be used for borrow",
          "user": "Account that call borrow/repay function and will receive rewards in RewardChef",
          "wad": "Amount of external coins to join (18 decimal number)*"
        }
      },
      "supportsInterface(bytes4)": {
        "details": "Returns true if this contract implements the interface defined by `interfaceId`. See the corresponding https://eips.ethereum.org/EIPS/eip-165#how-interfaces-are-identified[EIP section] to learn more about how these ids are created. This function call must use less than 30 000 gas."
      }
    },
    "version": 1
  },
  "userdoc": {
    "kind": "user",
    "methods": {
      "exit(bytes32,address,address,uint256)": {
        "notice": "Exit pegged-coins from the system and inside 'Coin.sol'"
      },
      "join(bytes32,address,address,uint256)": {
        "notice": "Join pegged-coins in the system"
      }
    },
    "version": 1
  },
  "storageLayout": {
    "storage": [
      {
        "astId": 10177,
        "contract": "contracts/makerdao/core/adapters/CoinJoin.sol:CoinJoin",
        "label": "ACCESS_CONTROL_SINGLETON",
        "offset": 0,
        "slot": "0",
        "type": "t_contract(ISuAccessControl)10394"
      },
      {
        "astId": 5895,
        "contract": "contracts/makerdao/core/adapters/CoinJoin.sol:CoinJoin",
        "label": "rewardChef",
        "offset": 0,
        "slot": "1",
        "type": "t_contract(IRewardChefV2)3412"
      },
      {
        "astId": 5898,
        "contract": "contracts/makerdao/core/adapters/CoinJoin.sol:CoinJoin",
        "label": "safeEngine",
        "offset": 0,
        "slot": "2",
        "type": "t_contract(ISafeEngine)9549"
      },
      {
        "astId": 5901,
        "contract": "contracts/makerdao/core/adapters/CoinJoin.sol:CoinJoin",
        "label": "systemCoin",
        "offset": 0,
        "slot": "3",
        "type": "t_contract(ICoin)8896"
      },
      {
        "astId": 5905,
        "contract": "contracts/makerdao/core/adapters/CoinJoin.sol:CoinJoin",
        "label": "collateralAddress",
        "offset": 0,
        "slot": "4",
        "type": "t_mapping(t_bytes32,t_address)"
      },
      {
        "astId": 5944,
        "contract": "contracts/makerdao/core/adapters/CoinJoin.sol:CoinJoin",
        "label": "contractEnabled",
        "offset": 0,
        "slot": "5",
        "type": "t_uint256"
      }
    ],
    "types": {
      "t_address": {
        "encoding": "inplace",
        "label": "address",
        "numberOfBytes": "20"
      },
      "t_bytes32": {
        "encoding": "inplace",
        "label": "bytes32",
        "numberOfBytes": "32"
      },
      "t_contract(ICoin)8896": {
        "encoding": "inplace",
        "label": "contract ICoin",
        "numberOfBytes": "20"
      },
      "t_contract(IRewardChefV2)3412": {
        "encoding": "inplace",
        "label": "contract IRewardChefV2",
        "numberOfBytes": "20"
      },
      "t_contract(ISafeEngine)9549": {
        "encoding": "inplace",
        "label": "contract ISafeEngine",
        "numberOfBytes": "20"
      },
      "t_contract(ISuAccessControl)10394": {
        "encoding": "inplace",
        "label": "contract ISuAccessControl",
        "numberOfBytes": "20"
      },
      "t_mapping(t_bytes32,t_address)": {
        "encoding": "mapping",
        "key": "t_bytes32",
        "label": "mapping(bytes32 => address)",
        "numberOfBytes": "32",
        "value": "t_address"
      },
      "t_uint256": {
        "encoding": "inplace",
        "label": "uint256",
        "numberOfBytes": "32"
      }
    }
  }
}