{
  "address": "0x4711dC5cd51D11d30577E652Bb737786a4540128",
  "abi": [
    {
      "inputs": [
        {
          "internalType": "address",
          "name": "accessControlSingleton",
          "type": "address"
        },
        {
          "internalType": "address",
          "name": "safeEngine_",
          "type": "address"
        },
        {
          "internalType": "address",
          "name": "systemCoin_",
          "type": "address"
        },
        {
          "internalType": "address",
          "name": "rewardChef_",
          "type": "address"
        }
      ],
      "stateMutability": "nonpayable",
      "type": "constructor"
    },
    {
      "inputs": [],
      "name": "BadAccessControlSingleton",
      "type": "error"
    },
    {
      "inputs": [],
      "name": "OnlyAdminError",
      "type": "error"
    },
    {
      "inputs": [],
      "name": "OnlyAlerterError",
      "type": "error"
    },
    {
      "inputs": [],
      "name": "OnlyCDPAccessError",
      "type": "error"
    },
    {
      "inputs": [],
      "name": "OnlyDAOError",
      "type": "error"
    },
    {
      "inputs": [],
      "name": "OnlyDisablerAccessError",
      "type": "error"
    },
    {
      "inputs": [],
      "name": "OnlyLiquidationAccessError",
      "type": "error"
    },
    {
      "inputs": [],
      "name": "OnlyMintAccessError",
      "type": "error"
    },
    {
      "inputs": [],
      "name": "OnlyRewardAccessError",
      "type": "error"
    },
    {
      "inputs": [],
      "name": "OnlyRoleError",
      "type": "error"
    },
    {
      "anonymous": false,
      "inputs": [],
      "name": "DisableContract",
      "type": "event"
    },
    {
      "anonymous": false,
      "inputs": [
        {
          "indexed": true,
          "internalType": "address",
          "name": "usr",
          "type": "address"
        },
        {
          "indexed": false,
          "internalType": "uint256",
          "name": "wad",
          "type": "uint256"
        }
      ],
      "name": "Exit",
      "type": "event"
    },
    {
      "anonymous": false,
      "inputs": [
        {
          "indexed": true,
          "internalType": "address",
          "name": "usr",
          "type": "address"
        },
        {
          "indexed": false,
          "internalType": "uint256",
          "name": "wad",
          "type": "uint256"
        }
      ],
      "name": "ExitNoReward",
      "type": "event"
    },
    {
      "anonymous": false,
      "inputs": [
        {
          "indexed": true,
          "internalType": "address",
          "name": "usr",
          "type": "address"
        },
        {
          "indexed": false,
          "internalType": "uint256",
          "name": "wad",
          "type": "uint256"
        }
      ],
      "name": "Join",
      "type": "event"
    },
    {
      "anonymous": false,
      "inputs": [
        {
          "indexed": true,
          "internalType": "address",
          "name": "usr",
          "type": "address"
        },
        {
          "indexed": false,
          "internalType": "uint256",
          "name": "wad",
          "type": "uint256"
        }
      ],
      "name": "JoinNoReward",
      "type": "event"
    },
    {
      "anonymous": false,
      "inputs": [],
      "name": "UpdateRewardChef",
      "type": "event"
    },
    {
      "inputs": [],
      "name": "ACCESS_CONTROL_SINGLETON",
      "outputs": [
        {
          "internalType": "contract ISuAccessControl",
          "name": "",
          "type": "address"
        }
      ],
      "stateMutability": "view",
      "type": "function"
    },
    {
      "inputs": [],
      "name": "ADMIN_ROLE",
      "outputs": [
        {
          "internalType": "bytes32",
          "name": "",
          "type": "bytes32"
        }
      ],
      "stateMutability": "view",
      "type": "function"
    },
    {
      "inputs": [],
      "name": "ALERTER_ROLE",
      "outputs": [
        {
          "internalType": "bytes32",
          "name": "",
          "type": "bytes32"
        }
      ],
      "stateMutability": "view",
      "type": "function"
    },
    {
      "inputs": [],
      "name": "CDP_ACCESS_ROLE",
      "outputs": [
        {
          "internalType": "bytes32",
          "name": "",
          "type": "bytes32"
        }
      ],
      "stateMutability": "view",
      "type": "function"
    },
    {
      "inputs": [],
      "name": "DAO_ROLE",
      "outputs": [
        {
          "internalType": "bytes32",
          "name": "",
          "type": "bytes32"
        }
      ],
      "stateMutability": "view",
      "type": "function"
    },
    {
      "inputs": [],
      "name": "DISABLER_ROLE",
      "outputs": [
        {
          "internalType": "bytes32",
          "name": "",
          "type": "bytes32"
        }
      ],
      "stateMutability": "view",
      "type": "function"
    },
    {
      "inputs": [],
      "name": "LIQUIDATION_ACCESS_ROLE",
      "outputs": [
        {
          "internalType": "bytes32",
          "name": "",
          "type": "bytes32"
        }
      ],
      "stateMutability": "view",
      "type": "function"
    },
    {
      "inputs": [],
      "name": "MINT_ACCESS_ROLE",
      "outputs": [
        {
          "internalType": "bytes32",
          "name": "",
          "type": "bytes32"
        }
      ],
      "stateMutability": "view",
      "type": "function"
    },
    {
      "inputs": [],
      "name": "REWARD_ACCESS_ROLE",
      "outputs": [
        {
          "internalType": "bytes32",
          "name": "",
          "type": "bytes32"
        }
      ],
      "stateMutability": "view",
      "type": "function"
    },
    {
      "inputs": [],
      "name": "VOTING_ESCROW_ROLE",
      "outputs": [
        {
          "internalType": "bytes32",
          "name": "",
          "type": "bytes32"
        }
      ],
      "stateMutability": "view",
      "type": "function"
    },
    {
      "inputs": [
        {
          "internalType": "bytes32",
          "name": "",
          "type": "bytes32"
        }
      ],
      "name": "collateralAddress",
      "outputs": [
        {
          "internalType": "address",
          "name": "",
          "type": "address"
        }
      ],
      "stateMutability": "view",
      "type": "function"
    },
    {
      "inputs": [],
      "name": "contractEnabled",
      "outputs": [
        {
          "internalType": "uint256",
          "name": "",
          "type": "uint256"
        }
      ],
      "stateMutability": "view",
      "type": "function"
    },
    {
      "inputs": [],
      "name": "disableContract",
      "outputs": [],
      "stateMutability": "nonpayable",
      "type": "function"
    },
    {
      "inputs": [
        {
          "internalType": "bytes32",
          "name": "collateralType",
          "type": "bytes32"
        },
        {
          "internalType": "address",
          "name": "user",
          "type": "address"
        },
        {
          "internalType": "address",
          "name": "cdp",
          "type": "address"
        },
        {
          "internalType": "uint256",
          "name": "wad",
          "type": "uint256"
        }
      ],
      "name": "exit",
      "outputs": [],
      "stateMutability": "nonpayable",
      "type": "function"
    },
    {
      "inputs": [
        {
          "internalType": "address",
          "name": "cdp",
          "type": "address"
        },
        {
          "internalType": "uint256",
          "name": "wad",
          "type": "uint256"
        }
      ],
      "name": "exitNoReward",
      "outputs": [],
      "stateMutability": "nonpayable",
      "type": "function"
    },
    {
      "inputs": [
        {
          "internalType": "bytes32",
          "name": "_collateralType",
          "type": "bytes32"
        },
        {
          "internalType": "address",
          "name": "_collateralAddress",
          "type": "address"
        }
      ],
      "name": "initializeCollateralType",
      "outputs": [],
      "stateMutability": "nonpayable",
      "type": "function"
    },
    {
      "inputs": [
        {
          "internalType": "bytes32",
          "name": "collateralType",
          "type": "bytes32"
        },
        {
          "internalType": "address",
          "name": "user",
          "type": "address"
        },
        {
          "internalType": "address",
          "name": "cdp",
          "type": "address"
        },
        {
          "internalType": "uint256",
          "name": "wad",
          "type": "uint256"
        }
      ],
      "name": "join",
      "outputs": [],
      "stateMutability": "nonpayable",
      "type": "function"
    },
    {
      "inputs": [
        {
          "internalType": "address",
          "name": "cdp",
          "type": "address"
        },
        {
          "internalType": "uint256",
          "name": "wad",
          "type": "uint256"
        }
      ],
      "name": "joinNoReward",
      "outputs": [],
      "stateMutability": "nonpayable",
      "type": "function"
    },
    {
      "inputs": [],
      "name": "rewardChef",
      "outputs": [
        {
          "internalType": "contract IRewardChefV2",
          "name": "",
          "type": "address"
        }
      ],
      "stateMutability": "view",
      "type": "function"
    },
    {
      "inputs": [],
      "name": "safeEngine",
      "outputs": [
        {
          "internalType": "contract ISafeEngine",
          "name": "",
          "type": "address"
        }
      ],
      "stateMutability": "view",
      "type": "function"
    },
    {
      "inputs": [
        {
          "internalType": "bytes4",
          "name": "interfaceId",
          "type": "bytes4"
        }
      ],
      "name": "supportsInterface",
      "outputs": [
        {
          "internalType": "bool",
          "name": "",
          "type": "bool"
        }
      ],
      "stateMutability": "view",
      "type": "function"
    },
    {
      "inputs": [],
      "name": "systemCoin",
      "outputs": [
        {
          "internalType": "contract ICoin",
          "name": "",
          "type": "address"
        }
      ],
      "stateMutability": "view",
      "type": "function"
    },
    {
      "inputs": [
        {
          "internalType": "address",
          "name": "rewardChef_",
          "type": "address"
        }
      ],
      "name": "updateRewardChef",
      "outputs": [],
      "stateMutability": "nonpayable",
      "type": "function"
    }
  ],
  "numDeployments": 3,
  "solcInputHash": "bf39d1579cb15455a9583613f66e6945",
  "bytecode": "0x60806040908082523462000166576080816200104e80380380916200002582856200016b565b83398101031262000166576200003b81620001a5565b6200004960208301620001a5565b916200006560606200005d868401620001a5565b9201620001a5565b600080546001600160a01b039485166001600160a01b03199182168117835587516301ffc9a760e01b8152637965db0b60e01b600482015291969394939290602090839060249082905afa9182156200015a5781926200010e575b505015620000fd5790838092600160055516856002541617600255168360035416176003551690600154161760015551610e939081620001bb8239f35b85516384d942fd60e01b8152600490fd5b9091506020813d821162000151575b816200012c602093836200016b565b810103126200014d57519081151582036200014a57503880620000c0565b80fd5b5080fd5b3d91506200011d565b508751903d90823e3d90fd5b600080fd5b601f909101601f19168101906001600160401b038211908210176200018f57604052565b634e487b7160e01b600052604160045260246000fd5b51906001600160a01b0382168203620001665756fe6080604081815260048036101561001557600080fd5b600092833560e01c90816301ffc9a714610ba85750806303ee9f2214610b805780630a09b59114610b4f57806312db6f5f14610a375783816319b6fb01146108ce5750806320d8a59f1461081457806341b3a0d9146107f5578063438280dd146107ba57806367aea3131461079157806371d0fb411461075657806375b238fc1461073b578063894ba833146106775780638e5313e01461063c5780639a43e66d1461054d578063a7e9445514610524578063bd5f5be6146104e9578063c9bc4384146104c0578063d0e8fa8214610485578063d2351cee1461045c578063dc97e84e14610421578063e9c26518146103f8578063ef32e6dc146102c95763f0b522db1461012257600080fd5b346102c5578261013136610c89565b959293919094610145600160055414610dd2565b6002546001600160a01b039590861661015d89610d63565b90803b156102c1578651633beaf2b760e21b8152918691839182908490829061018a9030338c8501610d26565b03925af180156102a3579085916102ad575b50508560035416803b1561027d5785516340c10f1960e01b815290859082908183816101cb8f8f8b8401610d48565b03925af180156102a35790859161028b575b505085600154169084528160205285858520541690803b1561027d578492836084928989519788968795633deffa8b60e21b87528601521660248401528b6044840152600160648401525af1801561028157610265575b50505192835216907f22d324652c93739755cf4581508b60875ebdd78c20c0cff5cf8e23452b29963190602090a280f35b61027190939293610cc2565b61027d57908438610234565b8480fd5b83513d84823e3d90fd5b61029490610cc2565b61029f5783386101dd565b8380fd5b86513d87823e3d90fd5b6102b690610cc2565b61029f57833861019c565b8580fd5b8280fd5b50346102c557816003193601126102c5576102e2610c73565b90602435926102f5600160055414610dd2565b6002546001600160a01b03928691841661030e87610d63565b90803b1561029f578451633beaf2b760e21b8152918491839182908490829061033b9030338b8501610d26565b03925af180156103ee579083916103d6575b50508360035416803b156102c557868391878361037e958851968795869485936340c10f1960e01b85528401610d48565b03925af18015610281576103be575b50505192835216907fb8c03d8cff6c18be1283cd376bee133c5f9370f38ef86d25777c1b8e5d6542ba90602090a280f35b6103ca90939293610cc2565b61027d5790843861038d565b6103df90610cc2565b6103ea57813861034d565b5080fd5b84513d85823e3d90fd5b5050346103ea57816003193601126103ea5760209051600080516020610e1e8339815191528152f35b5050346103ea57816003193601126103ea57602090517f9a9aef7c1247d5fc769b0185c052913e39673da29a880317dfd20ebf86f26a498152f35b5050346103ea57816003193601126103ea5760209051600080516020610e3e8339815191528152f35b5050346103ea57816003193601126103ea57602090517f76d0567582f23e1e9d7a13eeba60f9aea9d69b8da87ca27a8bf3698b35c653db8152f35b5050346103ea57816003193601126103ea5760015490516001600160a01b039091168152602090f35b5050346103ea57816003193601126103ea57602090517f4f14c8366fa999817edc9f29824eb88a00cc31225e2156f399da4bc91049eb108152f35b5050346103ea57816003193601126103ea5760035490516001600160a01b039091168152602090f35b50346102c55760203660031901126102c557610567610c73565b83548351632474521560e21b8152600080516020610e1e833981519152818501523360248201526001600160a01b0394929392916020908290604490829089165afa908115610632578691610604575b50156105f75750501660018060a01b031960015416176001557f1069a911d5b955446293ca24a9ec6822758127a5efa52063334b08eec9efff058180a180f35b5163599a6c3360e11b8152fd5b610625915060203d811161062b575b61061d8183610ceb565b810190610d0e565b386105b7565b503d610613565b82513d88823e3d90fd5b5050346103ea57816003193601126103ea57602090517fe453bacb314e78dcd5192e6b1a2b1f0e7c76e92f6b7e429a6a90f04e39db3b768152f35b5090346102c557826003193601126102c55782548151632474521560e21b8152600080516020610e3e8339815191528482015233602482015290602090829060449082906001600160a01b03165afa908115610731578491610713575b50156107065782806005557f2d4b4ecff7bd7503135271925520a2f6c0d98c9473ffc1a1e72c92502f51b25e8180a180f35b5163bb0684b760e01b8152fd5b61072b915060203d811161062b5761061d8183610ceb565b386106d4565b82513d86823e3d90fd5b5050346103ea57816003193601126103ea5751908152602090f35b5050346103ea57816003193601126103ea57602090517f880a91047114272656e533301261260c75e4d11543ac7303d6fe4204579ec7278152f35b5050346103ea57816003193601126103ea5760025490516001600160a01b039091168152602090f35b5050346103ea57816003193601126103ea57602090517f39f61ca2a1a28fee144218173ec637b649a353e4026b2738c673800e5bf1437b8152f35b5050346103ea57816003193601126103ea576020906005549051908152f35b5090346102c557806003193601126102c5576024356001600160a01b0381811693918490036108c9576020604491865416845192838092632474521560e21b825289878301523360248301525afa9081156108bf5785916108a1575b50156108935780358452602052822080546001600160a01b031916909117905580f35b9051631886ea7d60e11b8152fd5b6108b9915060203d811161062b5761061d8183610ceb565b38610870565b83513d87823e3d90fd5b600080fd5b919050346103ea576108df36610c89565b95929094919360018060a01b039485600254166108fb89610d63565b90803b156102c1576109269186918a838a51809681958294633beaf2b760e21b8452308c8501610d26565b03925af180156102a357908591610a23575b50508560035416803b1561027d578551632770a7eb60e21b815290859082908183816109678f338b8401610d48565b03925af180156102a357908591610a0f575b505085600154169284528160205285858520541692803b1561027d5788938580946109b7895197889687958694636aed34f760e01b86528501610d26565b03925af18015610281576109f7575b50505192835216907fb4e09949657f21548b58afe74e7b86cd2295da5ff1598ae1e5faecb1cf19ca9590602090a280f35b610a0390939293610cc2565b61027d579084386109c6565b610a1890610cc2565b61029f578338610979565b610a2c90610cc2565b61029f578338610938565b50346102c557816003193601126102c557610a50610c73565b6002546024359391926001600160a01b03929186908416610a7087610d63565b813b156102c5578291610a99918651948580948193633beaf2b760e21b83528c308b8501610d26565b03925af18015610b4557610b32575b5085908360035416803b156102c557868391610ada93838751809681958294632770a7eb60e21b845233908401610d48565b03925af1801561028157610b1a575b50505192835216907f0df2be71fcb03c1f59e496559e59727ef26ff117e1f022aa699bb79afdb4c55090602090a280f35b610b2690939293610cc2565b61027d57908438610ae9565b610b3e90969196610cc2565b9438610aa8565b83513d89823e3d90fd5b50346102c55760203660031901126102c557803583526020908152918190205490516001600160a01b039091168152f35b5050346103ea57816003193601126103ea57905490516001600160a01b039091168152602090f35b849391503461029f57602036600319011261029f5782359263ffffffff60e01b841680940361027d576304cc2bff60e11b8414938415610c62575b8415610bf6575b60208585519015158152f35b85546301ffc9a760e01b84529183015291925090602090829060249082906001600160a01b03165afa908115610c565760209391610c39575b5090838080610bea565b610c509150833d811161062b5761061d8183610ceb565b83610c2f565b505051903d90823e3d90fd5b6301ffc9a760e01b81149450610be3565b600435906001600160a01b03821682036108c957565b60809060031901126108c957600435906001600160a01b039060243582811681036108c9579160443590811681036108c9579060643590565b6001600160401b038111610cd557604052565b634e487b7160e01b600052604160045260246000fd5b601f909101601f19168101906001600160401b03821190821017610cd557604052565b908160209103126108c9575180151581036108c95790565b6001600160a01b03918216815291166020820152604081019190915260600190565b6001600160a01b039091168152602081019190915260400190565b906000916000908015908115610d80575b5015610d7d5750565b80fd5b909350676765c793fa10079d601b1b908181028281048203610dbe578095610daa57041438610d74565b634e487b7160e01b84526012600452602484fd5b634e487b7160e01b84526011600452602484fd5b15610dd957565b60405162461bcd60e51b815260206004820152601c60248201527b10dbda5b929bda5b8bdb9bdd0b58dbdb9d1c9858dd115b98589b195960221b6044820152606490fdfe3b5d4cc60d3ec3516ee8ae083bd60934f6eb2a6c54b1229985c41bfb092b2603b0fdd1623e42dbffda4acd8bd643e1cb69f00f0e83abeaa8150ee42cf0fd105ea26469706673582212201e88d82e3622f91344cf4db54a1d6262f605245df7cd01249c036075b93bed7e64736f6c63430008110033",
  "devdoc": {
    "kind": "dev",
    "methods": {
      "exit(bytes32,address,address,uint256)": {
        "details": "Inside the system, coins have 45 (rad) decimals but outside they have 18 decimals (wad). When we exit, we specify a wad amount of coins and then the contract automatically multiplies wad by 10**27 to move the correct 45 decimal coin amount to this adapter",
        "params": {
          "cdp": "Account that will receive the exited coins",
          "collateralType": "Collateral that will be used for repay",
          "user": "Account that call borrow/repay function and will receive rewards in RewardChef",
          "wad": "Amount of internal coins to join (18 decimal number that will be multiplied by ray)*"
        }
      },
      "exitNoReward(address,uint256)": {
        "params": {
          "cdp": "Account that will receive the joined coins",
          "wad": "Amount of external coins to join (18 decimal number)*"
        }
      },
      "initializeCollateralType(bytes32,address)": {
        "params": {
          "_collateralAddress": "Address of collateral*",
          "_collateralType": "Collateral type as bytes32, that we use in our protocol."
        }
      },
      "join(bytes32,address,address,uint256)": {
        "details": "Exited coins have 18 decimals but inside the system they have 45 (rad) decimals. When we join, the amount (wad) is multiplied by 10**27 (ray)",
        "params": {
          "cdp": "Account that will receive the joined coins",
          "collateralType": "Collateral that will be used for borrow",
          "user": "Account that call borrow/repay function and will receive rewards in RewardChef",
          "wad": "Amount of external coins to join (18 decimal number)*"
        }
      },
      "joinNoReward(address,uint256)": {
        "params": {
          "cdp": "Account that will receive the joined coins",
          "wad": "Amount of external coins to join (18 decimal number)*"
        }
      },
      "supportsInterface(bytes4)": {
        "details": "Returns true if this contract implements the interface defined by `interfaceId`. See the corresponding https://eips.ethereum.org/EIPS/eip-165#how-interfaces-are-identified[EIP section] to learn more about how these ids are created. This function call must use less than 30 000 gas."
      }
    },
    "version": 1
  },
  "userdoc": {
    "kind": "user",
    "methods": {
      "exit(bytes32,address,address,uint256)": {
        "notice": "Exit pegged-coins from the system and inside 'Coin.sol'"
      },
      "exitNoReward(address,uint256)": {
        "notice": "Simple version of exit(). Don't have Rewards, it is useful for our smart-contracts."
      },
      "initializeCollateralType(bytes32,address)": {
        "notice": "We need to save mapping of collateralType => collateralAddress to work with RewardChef."
      },
      "join(bytes32,address,address,uint256)": {
        "notice": "Join pegged-coins in the system"
      },
      "joinNoReward(address,uint256)": {
        "notice": "Simple version of join(). Don't have Rewards, it is useful for our smart-contracts."
      }
    },
    "version": 1
  },
  "storageLayout": {
    "storage": [
      {
        "astId": 37448,
        "contract": "contracts/makerdao/core/adapters/CoinJoin.sol:CoinJoin",
        "label": "ACCESS_CONTROL_SINGLETON",
        "offset": 0,
        "slot": "0",
        "type": "t_contract(ISuAccessControl)41342"
      },
      {
        "astId": 30359,
        "contract": "contracts/makerdao/core/adapters/CoinJoin.sol:CoinJoin",
        "label": "rewardChef",
        "offset": 0,
        "slot": "1",
        "type": "t_contract(IRewardChefV2)23760"
      },
      {
        "astId": 30362,
        "contract": "contracts/makerdao/core/adapters/CoinJoin.sol:CoinJoin",
        "label": "safeEngine",
        "offset": 0,
        "slot": "2",
        "type": "t_contract(ISafeEngine)35203"
      },
      {
        "astId": 30365,
        "contract": "contracts/makerdao/core/adapters/CoinJoin.sol:CoinJoin",
        "label": "systemCoin",
        "offset": 0,
        "slot": "3",
        "type": "t_contract(ICoin)34489"
      },
      {
        "astId": 30369,
        "contract": "contracts/makerdao/core/adapters/CoinJoin.sol:CoinJoin",
        "label": "collateralAddress",
        "offset": 0,
        "slot": "4",
        "type": "t_mapping(t_bytes32,t_address)"
      },
      {
        "astId": 30408,
        "contract": "contracts/makerdao/core/adapters/CoinJoin.sol:CoinJoin",
        "label": "contractEnabled",
        "offset": 0,
        "slot": "5",
        "type": "t_uint256"
      }
    ],
    "types": {
      "t_address": {
        "encoding": "inplace",
        "label": "address",
        "numberOfBytes": "20"
      },
      "t_bytes32": {
        "encoding": "inplace",
        "label": "bytes32",
        "numberOfBytes": "32"
      },
      "t_contract(ICoin)34489": {
        "encoding": "inplace",
        "label": "contract ICoin",
        "numberOfBytes": "20"
      },
      "t_contract(IRewardChefV2)23760": {
        "encoding": "inplace",
        "label": "contract IRewardChefV2",
        "numberOfBytes": "20"
      },
      "t_contract(ISafeEngine)35203": {
        "encoding": "inplace",
        "label": "contract ISafeEngine",
        "numberOfBytes": "20"
      },
      "t_contract(ISuAccessControl)41342": {
        "encoding": "inplace",
        "label": "contract ISuAccessControl",
        "numberOfBytes": "20"
      },
      "t_mapping(t_bytes32,t_address)": {
        "encoding": "mapping",
        "key": "t_bytes32",
        "label": "mapping(bytes32 => address)",
        "numberOfBytes": "32",
        "value": "t_address"
      },
      "t_uint256": {
        "encoding": "inplace",
        "label": "uint256",
        "numberOfBytes": "32"
      }
    }
  }
}