{
  "address": "0x7D7927Ccb4C4DdB298f38218Ad98ef64760B154a",
  "abi": [
    {
      "inputs": [
        {
          "internalType": "address",
          "name": "asset",
          "type": "address"
        }
      ],
      "name": "AlreadyRegistered",
      "type": "error"
    },
    {
      "inputs": [],
      "name": "BadAccessControlSingleton",
      "type": "error"
    },
    {
      "inputs": [
        {
          "internalType": "address",
          "name": "asset",
          "type": "address"
        }
      ],
      "name": "IsNotLP",
      "type": "error"
    },
    {
      "inputs": [],
      "name": "LPOracleNotReady",
      "type": "error"
    },
    {
      "inputs": [],
      "name": "OnlyAdminError",
      "type": "error"
    },
    {
      "inputs": [],
      "name": "OnlyAlerterError",
      "type": "error"
    },
    {
      "inputs": [],
      "name": "OnlyDAOError",
      "type": "error"
    },
    {
      "inputs": [],
      "name": "OnlyDisablerAccessError",
      "type": "error"
    },
    {
      "inputs": [],
      "name": "OnlyLiquidationAccessError",
      "type": "error"
    },
    {
      "inputs": [],
      "name": "OnlyMintAccessError",
      "type": "error"
    },
    {
      "inputs": [],
      "name": "OnlyRewardAccessError",
      "type": "error"
    },
    {
      "inputs": [],
      "name": "OnlyRoleError",
      "type": "error"
    },
    {
      "inputs": [],
      "name": "OnlyVaultAccessError",
      "type": "error"
    },
    {
      "anonymous": false,
      "inputs": [
        {
          "indexed": false,
          "internalType": "uint8",
          "name": "version",
          "type": "uint8"
        }
      ],
      "name": "Initialized",
      "type": "event"
    },
    {
      "inputs": [],
      "name": "ACCESS_CONTROL_SINGLETON",
      "outputs": [
        {
          "internalType": "contract ISuAccessControl",
          "name": "",
          "type": "address"
        }
      ],
      "stateMutability": "view",
      "type": "function"
    },
    {
      "inputs": [],
      "name": "ADMIN_ROLE",
      "outputs": [
        {
          "internalType": "bytes32",
          "name": "",
          "type": "bytes32"
        }
      ],
      "stateMutability": "view",
      "type": "function"
    },
    {
      "inputs": [],
      "name": "ALERTER_ROLE",
      "outputs": [
        {
          "internalType": "bytes32",
          "name": "",
          "type": "bytes32"
        }
      ],
      "stateMutability": "view",
      "type": "function"
    },
    {
      "inputs": [],
      "name": "CDP_ACCESS_ROLE",
      "outputs": [
        {
          "internalType": "bytes32",
          "name": "",
          "type": "bytes32"
        }
      ],
      "stateMutability": "view",
      "type": "function"
    },
    {
      "inputs": [],
      "name": "DAO_ROLE",
      "outputs": [
        {
          "internalType": "bytes32",
          "name": "",
          "type": "bytes32"
        }
      ],
      "stateMutability": "view",
      "type": "function"
    },
    {
      "inputs": [],
      "name": "DISABLER_ROLE",
      "outputs": [
        {
          "internalType": "bytes32",
          "name": "",
          "type": "bytes32"
        }
      ],
      "stateMutability": "view",
      "type": "function"
    },
    {
      "inputs": [],
      "name": "LIQUIDATION_ACCESS_ROLE",
      "outputs": [
        {
          "internalType": "bytes32",
          "name": "",
          "type": "bytes32"
        }
      ],
      "stateMutability": "view",
      "type": "function"
    },
    {
      "inputs": [],
      "name": "MINT_ACCESS_ROLE",
      "outputs": [
        {
          "internalType": "bytes32",
          "name": "",
          "type": "bytes32"
        }
      ],
      "stateMutability": "view",
      "type": "function"
    },
    {
      "inputs": [],
      "name": "ORACLE",
      "outputs": [
        {
          "internalType": "contract ISuOracle",
          "name": "",
          "type": "address"
        }
      ],
      "stateMutability": "view",
      "type": "function"
    },
    {
      "inputs": [],
      "name": "REWARD_ACCESS_ROLE",
      "outputs": [
        {
          "internalType": "bytes32",
          "name": "",
          "type": "bytes32"
        }
      ],
      "stateMutability": "view",
      "type": "function"
    },
    {
      "inputs": [],
      "name": "SYSTEM_ROLE",
      "outputs": [
        {
          "internalType": "bytes32",
          "name": "",
          "type": "bytes32"
        }
      ],
      "stateMutability": "view",
      "type": "function"
    },
    {
      "inputs": [
        {
          "internalType": "address",
          "name": "asset",
          "type": "address"
        }
      ],
      "name": "getFiatPrice1e18",
      "outputs": [
        {
          "internalType": "uint256",
          "name": "",
          "type": "uint256"
        }
      ],
      "stateMutability": "view",
      "type": "function"
    },
    {
      "inputs": [
        {
          "internalType": "address",
          "name": "asset",
          "type": "address"
        }
      ],
      "name": "getFiatPrice1e18Unsafe",
      "outputs": [
        {
          "internalType": "uint256",
          "name": "",
          "type": "uint256"
        }
      ],
      "stateMutability": "view",
      "type": "function"
    },
    {
      "inputs": [
        {
          "internalType": "address",
          "name": "_authControl",
          "type": "address"
        },
        {
          "internalType": "address",
          "name": "_oracle",
          "type": "address"
        }
      ],
      "name": "initialize",
      "outputs": [],
      "stateMutability": "nonpayable",
      "type": "function"
    },
    {
      "inputs": [
        {
          "internalType": "address",
          "name": "asset",
          "type": "address"
        }
      ],
      "name": "isAdapterLP",
      "outputs": [
        {
          "internalType": "bool",
          "name": "",
          "type": "bool"
        }
      ],
      "stateMutability": "view",
      "type": "function"
    },
    {
      "inputs": [
        {
          "internalType": "address",
          "name": "",
          "type": "address"
        }
      ],
      "name": "lps",
      "outputs": [
        {
          "internalType": "address",
          "name": "pool",
          "type": "address"
        },
        {
          "internalType": "enum CurvePoolType",
          "name": "poolType",
          "type": "uint8"
        }
      ],
      "stateMutability": "view",
      "type": "function"
    },
    {
      "inputs": [
        {
          "internalType": "address",
          "name": "lp",
          "type": "address"
        },
        {
          "internalType": "address",
          "name": "lpPool",
          "type": "address"
        },
        {
          "internalType": "uint256",
          "name": "nTokens",
          "type": "uint256"
        },
        {
          "internalType": "enum CurvePoolType",
          "name": "poolType",
          "type": "uint8"
        }
      ],
      "name": "registerLP",
      "outputs": [],
      "stateMutability": "nonpayable",
      "type": "function"
    },
    {
      "inputs": [
        {
          "internalType": "bytes4",
          "name": "interfaceId",
          "type": "bytes4"
        }
      ],
      "name": "supportsInterface",
      "outputs": [
        {
          "internalType": "bool",
          "name": "",
          "type": "bool"
        }
      ],
      "stateMutability": "view",
      "type": "function"
    },
    {
      "inputs": [
        {
          "internalType": "address",
          "name": "asset",
          "type": "address"
        },
        {
          "internalType": "uint256",
          "name": "amount",
          "type": "uint256"
        }
      ],
      "name": "withdraw",
      "outputs": [
        {
          "components": [
            {
              "internalType": "address",
              "name": "token",
              "type": "address"
            },
            {
              "internalType": "uint256",
              "name": "amount",
              "type": "uint256"
            }
          ],
          "internalType": "struct WithdrawResult[]",
          "name": "results",
          "type": "tuple[]"
        }
      ],
      "stateMutability": "nonpayable",
      "type": "function"
    }
  ],
  "numDeployments": 1,
  "solcInputHash": "a7b485a60b324a39edc963d60a5bb5a0",
  "bytecode": "0x60808060405234610016576118ce908161001c8239f35b600080fdfe608080604052600436101561001357600080fd5b600090813560e01c90816301ffc9a71461137e5750806303ee9f221461135357806338013f021461132a578063438280dd146112ef57806346faa4d51461104d578063485cc95514610dfd5780635136211714610dcf57806371d0fb4114610d9457806375071d2a14610d5957806375b238fc14610d3d5780638e5313e014610d02578063b9ac2b3814610cd6578063bd5f5be614610c9b578063c02d9db1146109bd578063d12e733214610957578063d2351cee1461091c578063dc97e84e146108e1578063e9c26518146108a65763f3fef3a3146100f257600080fd5b346108a35760403660031901126108a35761010b611414565b6101148161151a565b156108815760405160208101906323b872dd60e01b825233602482015230604482015260243560648201526064815260a0810181811060018060401b0382111761086d5760405251839182919082855af161016d611859565b8161083e575b5015610813576001600160a01b03811682526001602052604080832090519061019b82611440565b80546001600160a01b038116835260a01c60ff1660038110156107ff57906001916020840152016040518082602082945493848152019087526020872092875b8181106107dd5750506101f09250038261149f565b806040830152519083610202836114da565b93610210604051958661149f565b83855261021c846114da565b825b601f19820181106107b357505082516001600160a01b03828116911690811415908161072a575b506106a7575b5050610256826114da565b91610264604051938461149f565b808352601f19610273826114da565b01366020850137845b8161ffff8216101561032f57602490602060018060a01b036102a661ffff8416604088015161153a565b5116604051938480926370a0823160e01b82523060048301525afa80156103245787906102ec575b6102e792506102e161ffff83168761153a565b526114f1565b61027c565b506020823d60201161031c575b816103066020938361149f565b81010312610318576102e791516102ce565b8680fd5b3d91506102f9565b6040513d89823e3d90fd5b509392919060028514610606575b60038514610546575b835b8561ffff821610156104e95760408201516001600160a01b03906103719061ffff84169061153a565b51166040516370a0823160e01b8152306004820152602081602481855afa9081156103245787916104b2575b506103ac61ffff84168661153a565b51810390811161049e57869182916040516103c681611471565b8281528160208201526103dd61ffff87168a61153a565b526103ec61ffff86168961153a565b508260405161041f81610411602082019563a9059cbb60e01b8752336024840161183e565b03601f19810183528261149f565b51925af161042b611859565b8161046f575b501561044557610440906114f1565b610348565b60405162461bcd60e51b815260206004820152600260248201526114d560f21b6044820152606490fd5b8051801592508215610484575b505038610431565b61049792506020809183010191016114c2565b388061047c565b634e487b7160e01b87526011600452602487fd5b90506020813d6020116104e1575b816104cd6020938361149f565b810103126104dc57513861039d565b600080fd5b3d91506104c0565b50505090604051918291602083016020845282518091526020604085019301915b818110610518575050500390f35b825180516001600160a01b03168552602090810151818601528695506040909401939092019160010161050a565b60405161055281611440565b6060368237848152602081018590526040810185905281516001600160a01b0316803b156106025790859060405192839163ecb586a560e01b835260243560048401526024830184905b600382106105e65750505081836084925af180156105db579085916105c3575b5050610346565b6105cc9061148c565b6105d75783386105bc565b8380fd5b6040513d87823e3d90fd5b825181528a95508694506020928301926001909201910161059c565b8580fd5b60405161061281611471565b60403682378481526020810185905281516001600160a01b0316803b15610602579085906040519283916316cd8e2760e21b835260243560048401526024830184905b6002821061068b5750505081836064925af180156105db57610678575b5061033d565b6106849094919461148c565b9238610672565b825181528a955086945060209283019260019092019101610655565b825160405163095ea7b360e01b81529260209284929091839182906106dc90602435906001600160a01b03166004840161183e565b03926001600160a01b03165af180156105db576106fb575b849061024b565b61071c9060203d602011610723575b610714818361149f565b8101906114c2565b50386106f4565b503d61070a565b604051636eb1769f60e11b8152306004820152602481019190915290506020816044816001600160a01b0386165afa9081156107a8578391610772575b506024351138610245565b90506020813d6020116107a0575b8161078d6020938361149f565b8101031261079c575138610767565b8280fd5b3d9150610780565b6040513d85823e3d90fd5b6020919293506040516107c581611471565b8881528883820152828289010152019086929161021e565b84546001600160a01b03168352600194850194869450602090930192016101db565b634e487b7160e01b85526021600452602485fd5b60405162461bcd60e51b815260206004820152600360248201526229aa2360e91b6044820152606490fd5b8051801592508215610853575b505038610173565b61086692506020809183010191016114c2565b388061084b565b634e487b7160e01b85526041600452602485fd5b604051631e489be560e01b81526001600160a01b039091166004820152602490fd5b80fd5b50346108a357806003193601126108a35760206040517f3b5d4cc60d3ec3516ee8ae083bd60934f6eb2a6c54b1229985c41bfb092b26038152f35b50346108a357806003193601126108a35760206040517f9a9aef7c1247d5fc769b0185c052913e39673da29a880317dfd20ebf86f26a498152f35b50346108a357806003193601126108a35760206040517fb0fdd1623e42dbffda4acd8bd643e1cb69f00f0e83abeaa8150ee42cf0fd105e8152f35b50346108a35760203660031901126108a3576001600160a01b038061097a611414565b16825260016020526040808320549051918116825260a01c60ff1660038110156109a957604092506020820152f35b634e487b7160e01b83526021600452602483fd5b50346108a357602090816003193601126108a3576109d9611414565b906109e38261151a565b15610c7a576001600160a01b0391821680825260018085526040808420905190610a0c82611440565b60ff8154878116845260a01c166003811015610c66579280918894858599989795015201946040519586858254918281520191875285872090875b818110610c4f5750505086610a5d91038761149f565b60408701968688528596519186988160025416925b848b10610b06576040516318160ddd60e01b815288908b908b83826004818e5afa918215610af9578192610ac6575b508115610ab2575060405191048152f35b634e487b7160e01b81526012600452602490fd5b9091508381813d8311610af2575b610ade818361149f565b81010312610aee57519084610aa1565b5080fd5b503d610ad4565b50604051903d90823e3d90fd5b91809496989991939597508251168b8b602460405180948193634903b0d160e01b835260048301525afa908115610c44578a91610c13575b5084610b4b8c865161153a565b51604051631735856760e31b815291166004820152908c826024818a5afa918215610c08578b92610bd5575b50818102918183041490151715610bc1578101809111610bad57986000198114610bad578601989796949290918a969492610a72565b634e487b7160e01b89526011600452602489fd5b634e487b7160e01b8a52601160045260248afd5b9091508c81813d8311610c01575b610bed818361149f565b81010312610bfd57519038610b77565b8a80fd5b503d610be3565b6040513d8d823e3d90fd5b90508b81813d8311610c3d575b610c2a818361149f565b81010312610c39575138610b3e565b8980fd5b503d610c20565b6040513d8c823e3d90fd5b8254851684528b9790930192918501918501610a47565b634e487b7160e01b86526021600452602486fd5b604051631e489be560e01b81526001600160a01b0383166004820152602490fd5b50346108a357806003193601126108a35760206040517f4f14c8366fa999817edc9f29824eb88a00cc31225e2156f399da4bc91049eb108152f35b50346108a35760203660031901126108a3576020610cfa610cf5611414565b611564565b604051908152f35b50346108a357806003193601126108a35760206040517fe453bacb314e78dcd5192e6b1a2b1f0e7c76e92f6b7e429a6a90f04e39db3b768152f35b50346108a357806003193601126108a357602090604051908152f35b50346108a357806003193601126108a35760206040517f5719df9ef2c4678b547f89e4f5ae410dbf400fc51cf3ded434c55f6adea2c43f8152f35b50346108a357806003193601126108a35760206040517f880a91047114272656e533301261260c75e4d11543ac7303d6fe4204579ec7278152f35b50346108a35760203660031901126108a3576020610df3610dee611414565b61151a565b6040519015158152f35b50346108a35760403660031901126108a357610e17611414565b610e1f61142a565b825460ff8160081c161590818092611040575b8015611029575b15610fcd5760ff198116600117855581610fbc575b5083549160ff8360081c1615610f635762010000600160b01b03601085901b1662010000600160b01b0319841681178655936001600160a01b03919082168015159081610f07575b50610ef5571660018060a01b03196002541617600255610eb4578280f35b610100600160b01b031916178155604051600181527f7f26b83ff96e1f2b6a682f133852f6798a09c465da95921460cefb384740249890602090a138808280f35b6040516384d942fd60e01b8152600490fd5b6040516301ffc9a760e01b8152637965db0b60e01b60048201529150602090829060249082905afa908115610324578791610f45575b501538610e96565b610f5d915060203d811161072357610714818361149f565b38610f3d565b60405162461bcd60e51b815260206004820152602b60248201527f496e697469616c697a61626c653a20636f6e7472616374206973206e6f74206960448201526a6e697469616c697a696e6760a81b6064820152608490fd5b61ffff191661010117845538610e4e565b60405162461bcd60e51b815260206004820152602e60248201527f496e697469616c697a61626c653a20636f6e747261637420697320616c72656160448201526d191e481a5b9a5d1a585b1a5e995960921b6064820152608490fd5b50303b158015610e395750600160ff821614610e39565b50600160ff821610610e32565b50346108a35760803660031901126108a357611067611414565b61106f61142a565b90604435916064359160038310156112eb578454604051632474521560e21b8152600481018790523360248201526001600160a01b039260209290919083908290604490829060101c88165afa9081156112e05788916112c3575b50156112b1578216808752600180835260408820805460ff60a01b199686169687166001600160a81b03199091161760a09790971b60ff60a01b1696909617909555939492936001600160a01b031993611123816114da565b611130604051918261149f565b81815261113c826114da565b8482019190601f1901368337838a5288855260408a20905191908901906001600160401b03831161129d57600160401b831161129d578154838355808410611276575b50908a52848a20898b5b84811061126257509250505088905b6111a0578880f35b61ffff81168281101561125d576040519063c661065760e01b8252600482015284816024818b5afa908115610c44578a91611227575b50838a528885528860408b20018054831015611213579161120b918782888e8e999897815220019116898254161790556114f1565b909192611198565b634e487b7160e01b8b52603260045260248bfd5b90508481813d8311611256575b61123e818361149f565b81010312610c3957518581168103610c3957386111d6565b503d611234565b508880f35b878985511694019381840155018a90611189565b8a84888e8681522092830192015b82811061129257505061117f565b8d8155018b90611284565b634e487b7160e01b8b52604160045260248bfd5b604051631886ea7d60e11b8152600490fd5b6112da9150833d851161072357610714818361149f565b386110ca565b6040513d8a823e3d90fd5b8480fd5b50346108a357806003193601126108a35760206040517f39f61ca2a1a28fee144218173ec637b649a353e4026b2738c673800e5bf1437b8152f35b50346108a357806003193601126108a3576002546040516001600160a01b039091168152602090f35b50346108a357806003193601126108a3575460405160109190911c6001600160a01b03168152602090f35b905034610aee576020366003190112610aee5760043563ffffffff60e01b811680910361079c5782546301ffc9a760e01b835260048301919091526020908290602490829060101c6001600160a01b03165afa90811561140957602092916113ec575b506040519015158152f35b6114039150823d811161072357610714818361149f565b386113e1565b6040513d84823e3d90fd5b600435906001600160a01b03821682036104dc57565b602435906001600160a01b03821682036104dc57565b606081019081106001600160401b0382111761145b57604052565b634e487b7160e01b600052604160045260246000fd5b604081019081106001600160401b0382111761145b57604052565b6001600160401b03811161145b57604052565b601f909101601f19168101906001600160401b0382119082101761145b57604052565b908160209103126104dc575180151581036104dc5790565b6001600160401b03811161145b5760051b60200190565b61ffff8091169081146115045760010190565b634e487b7160e01b600052601160045260246000fd5b6001600160a01b0390811660009081526001602052604090205416151590565b805182101561154e5760209160051b010190565b634e487b7160e01b600052603260045260246000fd5b6000916115708261151a565b15610c7a5760018060a01b03928383168082526001602091818352604095868520875161159c81611440565b60ff82548b8116835260a01c169186820192600381101561182a578a918791855201918b8251938a8586938c845492838152019383528b8d80852094925b84841061180357505050505050906115f391038461149f565b0152805160038110156117ef57841461173557516003811015610c6657600214611628578651636844a2db60e11b8152600490fd5b6116349096959661151a565b1561171e5783528082528383209084519161164e83611440565b60ff8154898116855260a01c166003811015610c6657908291858501520185518092858354928381520192875285872091875b818110611709575050505091816116a06004979899938695038261149f565b8782015251168551948580926354f0f7d560e01b82525afa9384156116fe575081936116cd575b50505090565b9091809350813d83116116f7575b6116e5818361149f565b810103126108a35750513880806116c7565b503d6116db565b51913d9150823e3d90fd5b83548c16855293870193928201928201611681565b602490855190631e489be560e01b82526004820152fd5b506117429096959661151a565b1561171e5783528082528383209084519161175c83611440565b60ff8154898116855260a01c166003811015610c6657908291858501520185518092858354928381520192875285872091875b8181106117da575050505091816117ae6004979899938695038261149f565b878201525116855194858092630176f71760e71b82525afa9384156116fe575081936116cd5750505090565b83548c1685529387019392820192820161178f565b634e487b7160e01b87526021600452602487fd5b909295919480989950859497505416815201940191019085928f928f9695938d8d916115da565b634e487b7160e01b89526021600452602489fd5b6001600160a01b039091168152602081019190915260400190565b3d15611893573d906001600160401b03821161145b5760405191611887601f8201601f19166020018461149f565b82523d6000602084013e565b60609056fea264697066735822122061681495e0ad692d87957c642314cff1d71db0af73acfd8ffe52f840b1fa939964736f6c63430008110033",
  "devdoc": {
    "details": "See ILPAdapter interface for full details.",
    "kind": "dev",
    "methods": {
      "getFiatPrice1e18(address)": {
        "params": {
          "asset": "- address of erc20 token contract"
        },
        "returns": {
          "_0": "usdPrice1e18 such that asset.balanceOf() * getFiatPrice1e18(asset) / 1e18 == $$ * 1e18*"
        }
      },
      "isAdapterLP(address)": {
        "params": {
          "asset": "- address of LP token to check*"
        }
      },
      "registerLP(address,address,uint256,uint8)": {
        "params": {
          "lp": "address of LP token",
          "lpPool": "address of pool of {lp} LP-token",
          "nTokens": "amount of underlyingTokens*"
        }
      },
      "supportsInterface(bytes4)": {
        "details": "Returns true if this contract implements the interface defined by `interfaceId`. See the corresponding https://eips.ethereum.org/EIPS/eip-165#how-interfaces-are-identified[EIP section] to learn more about how these ids are created. This function call must use less than 30 000 gas."
      },
      "withdraw(address,uint256)": {
        "params": {
          "amount": "- amount of asset to withdraw/unwrap*",
          "asset": "- address of LP token to withdraw/unwrap"
        }
      }
    },
    "title": "CurveAdapter",
    "version": 1
  },
  "userdoc": {
    "kind": "user",
    "methods": {
      "getFiatPrice1e18(address)": {
        "notice": "WARNING! Read this description very carefully!     function getFiatPrice1e18(address asset) returns (uint256) that:         basicAmountOfAsset * getFiatPrice1e18(asset) / 1e18 === $$ * 1e18     in other words, it doesn't matter what's the erc20.decimals is,     you just multiply token balance in basic units on value from oracle and get dollar amount multiplied on 1e18. different assets have different deviation threshold (errors)     for wBTC it's <= 0.5%, read more https://data.chain.link/ethereum/mainnet/crypto-usd/btc-usd     for other asset is can be larger based on particular oracle implementation. examples:     market price of btc = $30k,     for 0.1 wBTC the unit256 amount is 0.1 * 1e18     0.1 * 1e18 * (price1e18 / 1e18) == $3000 == uint256(3000*1e18)     => price1e18 = 30000 * 1e18;     market price of usdt = $0.97,     for 1 usdt uint256 = 1 * 1e6     so 1*1e6 * price1e18 / 1e18 == $0.97 == uint256(0.97*1e18)     => 1*1e6 * (price1e18 / 1e18) / (0.97*1e18)   = 1     =>  price1e18 = 0.97 * (1e18/1e6) * 1e18    assume market price of wBTC = $31,503.77, oracle error = $158     case #1: small amount of wBTC         we have 0.0,000,001 wBTC that is worth v = $0.00315  $0.00001 = 0.00315*1e18 = 315*1e13  1*1e13         actual balance on the asset b = wBTC.balanceOf() =  0.0000001*1e18 = 1e11         oracle should return or = oracle.getFiatPrice1e18(wBTC) <=>         <=> b*or = v => v/b = 315*1e13 / 1e11 = 315*1e2  1e2         error = or.error * b = 1e2 * 1e11 = 1e13 => 1e13/1e18 usd = 1e-5 = 0.00001 usd     case #2: large amount of wBTC         v = 2,000,000 wBTC = $31,503.77 * 2m  158*2m = $63,007,540,000  $316,000,000 = 63,007*1e24  316*1e24         for calc convenience we increase error on 0.05 and have v = 63,000*24  300*1e24 = (630  3)*1e26         b = 2*1e6 * 1e18 = 2*1e24         or = v/b = (630  3)*1e26 / 2*1e24 = 315*1e2  1.5*1e2         error = or.error * b = 1.5*100 * 2*1e24 = 3*1e26 = 3*1e8*1e18 = $300,000,000 ~ $316,000,000     assume the market price of USDT = $0.97  $0.00485,     case #3: little amount of USDT         v = USDT amount 0.005 = 0.005*(0.97  0.00485) = 0.00485*1e18  0.00002425*1e18 = 485*1e13  3*1e13         we rounded error up on (3000-2425)/2425 ~= +24% for calculation convenience.         b = USDT.balanceOf() = 0.005*1e6 = 5*1e3         b*or = v => or = v/b = (485*1e13  3*1e13) / 5*1e3 = 970*1e9  6*1e9         error = 6*1e9 * 5*1e3 / 1e18 = 30*1e12/1e18 = 3*1e-5 = $0,00005     case #4: lot of USDT         v = we have 100,000,000,000 USDT = $97B = 97*1e9*1e18  0.5*1e9*1e18         b = USDT.balanceOf() = 1e11*1e6 = 1e17         or = v/b = (97*1e9*1e18  0.5*1e9*1e18) / 1e17 = 970*1e9  5*1e9         error = 5*1e9 * 1e17 = 5*1e26 = 0.5 * 1e8*1e18"
      },
      "getFiatPrice1e18Unsafe(address)": {
        "notice": "Is depreceted, only for tests usage"
      },
      "isAdapterLP(address)": {
        "notice": "Returns if asset ig Balancer LP token, registered in our adapter"
      },
      "registerLP(address,address,uint256,uint8)": {
        "notice": "Register the given LP token address and set the LP pool"
      },
      "withdraw(address,uint256)": {
        "notice": "Unwrap LP token with depth = 2 (if underlying token is LP => it's also unwrapping)"
      }
    },
    "notice": "Adapter for Curve LP token.",
    "version": 1
  },
  "storageLayout": {
    "storage": [
      {
        "astId": 672,
        "contract": "contracts/periphery/contracts/adapters/CurveAdapter.sol:CurveAdapter",
        "label": "_initialized",
        "offset": 0,
        "slot": "0",
        "type": "t_uint8"
      },
      {
        "astId": 675,
        "contract": "contracts/periphery/contracts/adapters/CurveAdapter.sol:CurveAdapter",
        "label": "_initializing",
        "offset": 1,
        "slot": "0",
        "type": "t_bool"
      },
      {
        "astId": 33300,
        "contract": "contracts/periphery/contracts/adapters/CurveAdapter.sol:CurveAdapter",
        "label": "ACCESS_CONTROL_SINGLETON",
        "offset": 2,
        "slot": "0",
        "type": "t_contract(ISuAccessControl)37381"
      },
      {
        "astId": 35025,
        "contract": "contracts/periphery/contracts/adapters/CurveAdapter.sol:CurveAdapter",
        "label": "lps",
        "offset": 0,
        "slot": "1",
        "type": "t_mapping(t_address,t_struct(CurveLPInfo)35015_storage)"
      },
      {
        "astId": 35028,
        "contract": "contracts/periphery/contracts/adapters/CurveAdapter.sol:CurveAdapter",
        "label": "ORACLE",
        "offset": 0,
        "slot": "2",
        "type": "t_contract(ISuOracle)37572"
      },
      {
        "astId": 35578,
        "contract": "contracts/periphery/contracts/adapters/CurveAdapter.sol:CurveAdapter",
        "label": "__gap",
        "offset": 0,
        "slot": "3",
        "type": "t_array(t_uint256)45_storage"
      }
    ],
    "types": {
      "t_address": {
        "encoding": "inplace",
        "label": "address",
        "numberOfBytes": "20"
      },
      "t_array(t_address)dyn_storage": {
        "base": "t_address",
        "encoding": "dynamic_array",
        "label": "address[]",
        "numberOfBytes": "32"
      },
      "t_array(t_uint256)45_storage": {
        "base": "t_uint256",
        "encoding": "inplace",
        "label": "uint256[45]",
        "numberOfBytes": "1440"
      },
      "t_bool": {
        "encoding": "inplace",
        "label": "bool",
        "numberOfBytes": "1"
      },
      "t_contract(ISuAccessControl)37381": {
        "encoding": "inplace",
        "label": "contract ISuAccessControl",
        "numberOfBytes": "20"
      },
      "t_contract(ISuOracle)37572": {
        "encoding": "inplace",
        "label": "contract ISuOracle",
        "numberOfBytes": "20"
      },
      "t_enum(CurvePoolType)35006": {
        "encoding": "inplace",
        "label": "enum CurvePoolType",
        "numberOfBytes": "1"
      },
      "t_mapping(t_address,t_struct(CurveLPInfo)35015_storage)": {
        "encoding": "mapping",
        "key": "t_address",
        "label": "mapping(address => struct CurveLPInfo)",
        "numberOfBytes": "32",
        "value": "t_struct(CurveLPInfo)35015_storage"
      },
      "t_struct(CurveLPInfo)35015_storage": {
        "encoding": "inplace",
        "label": "struct CurveLPInfo",
        "members": [
          {
            "astId": 35008,
            "contract": "contracts/periphery/contracts/adapters/CurveAdapter.sol:CurveAdapter",
            "label": "pool",
            "offset": 0,
            "slot": "0",
            "type": "t_address"
          },
          {
            "astId": 35011,
            "contract": "contracts/periphery/contracts/adapters/CurveAdapter.sol:CurveAdapter",
            "label": "poolType",
            "offset": 20,
            "slot": "0",
            "type": "t_enum(CurvePoolType)35006"
          },
          {
            "astId": 35014,
            "contract": "contracts/periphery/contracts/adapters/CurveAdapter.sol:CurveAdapter",
            "label": "underlyingTokens",
            "offset": 0,
            "slot": "1",
            "type": "t_array(t_address)dyn_storage"
          }
        ],
        "numberOfBytes": "64"
      },
      "t_uint256": {
        "encoding": "inplace",
        "label": "uint256",
        "numberOfBytes": "32"
      },
      "t_uint8": {
        "encoding": "inplace",
        "label": "uint8",
        "numberOfBytes": "1"
      }
    }
  }
}