{
  "address": "0x062f7f23cd102F233Bc1139ee6780c6247cc6127",
  "abi": [
    {
      "inputs": [],
      "name": "BadAccessControlSingleton",
      "type": "error"
    },
    {
      "inputs": [],
      "name": "BadOutAmount",
      "type": "error"
    },
    {
      "inputs": [],
      "name": "CallbackError",
      "type": "error"
    },
    {
      "inputs": [
        {
          "internalType": "address",
          "name": "orderToken2buy",
          "type": "address"
        },
        {
          "internalType": "address",
          "name": "inToken",
          "type": "address"
        }
      ],
      "name": "IncorrectToken",
      "type": "error"
    },
    {
      "inputs": [
        {
          "internalType": "address",
          "name": "staker",
          "type": "address"
        }
      ],
      "name": "IsNotStaker",
      "type": "error"
    },
    {
      "inputs": [
        {
          "internalType": "address",
          "name": "staker",
          "type": "address"
        }
      ],
      "name": "IsNotTopStaker",
      "type": "error"
    },
    {
      "inputs": [],
      "name": "NotEnoughReturnValue",
      "type": "error"
    },
    {
      "inputs": [],
      "name": "OnlyAdminError",
      "type": "error"
    },
    {
      "inputs": [],
      "name": "OnlyAlerterError",
      "type": "error"
    },
    {
      "inputs": [],
      "name": "OnlyDAOError",
      "type": "error"
    },
    {
      "inputs": [],
      "name": "OnlyDisablerAccessError",
      "type": "error"
    },
    {
      "inputs": [],
      "name": "OnlyLiquidationAccessError",
      "type": "error"
    },
    {
      "inputs": [],
      "name": "OnlyMintAccessError",
      "type": "error"
    },
    {
      "inputs": [],
      "name": "OnlyRewardAccessError",
      "type": "error"
    },
    {
      "inputs": [],
      "name": "OnlyRoleError",
      "type": "error"
    },
    {
      "inputs": [],
      "name": "OnlyVaultAccessError",
      "type": "error"
    },
    {
      "inputs": [],
      "name": "OnlyVotingEscrowError",
      "type": "error"
    },
    {
      "inputs": [
        {
          "internalType": "uint256",
          "name": "orderId",
          "type": "uint256"
        }
      ],
      "name": "OrderExist",
      "type": "error"
    },
    {
      "inputs": [
        {
          "internalType": "uint256",
          "name": "orderId",
          "type": "uint256"
        }
      ],
      "name": "OrderNotExist",
      "type": "error"
    },
    {
      "inputs": [
        {
          "internalType": "uint256",
          "name": "orderId",
          "type": "uint256"
        },
        {
          "internalType": "address",
          "name": "staker",
          "type": "address"
        }
      ],
      "name": "OrderNotForThisStaker",
      "type": "error"
    },
    {
      "inputs": [],
      "name": "SmallAmountLeft",
      "type": "error"
    },
    {
      "inputs": [],
      "name": "UserIsNotBeneficiary",
      "type": "error"
    },
    {
      "anonymous": false,
      "inputs": [
        {
          "indexed": false,
          "internalType": "uint8",
          "name": "version",
          "type": "uint8"
        }
      ],
      "name": "Initialized",
      "type": "event"
    },
    {
      "anonymous": false,
      "inputs": [
        {
          "indexed": false,
          "internalType": "address",
          "name": "LPToken",
          "type": "address"
        },
        {
          "indexed": false,
          "internalType": "uint256[]",
          "name": "orderIds",
          "type": "uint256[]"
        }
      ],
      "name": "LpOrdersAdded",
      "type": "event"
    },
    {
      "anonymous": false,
      "inputs": [
        {
          "indexed": false,
          "internalType": "uint256",
          "name": "orderId",
          "type": "uint256"
        }
      ],
      "name": "OrderAdded",
      "type": "event"
    },
    {
      "anonymous": false,
      "inputs": [
        {
          "indexed": false,
          "internalType": "uint256",
          "name": "orderId",
          "type": "uint256"
        }
      ],
      "name": "OrderCanceled",
      "type": "event"
    },
    {
      "anonymous": false,
      "inputs": [
        {
          "indexed": false,
          "internalType": "uint256",
          "name": "orderId",
          "type": "uint256"
        }
      ],
      "name": "OrderFilled",
      "type": "event"
    },
    {
      "anonymous": false,
      "inputs": [
        {
          "indexed": false,
          "internalType": "uint256",
          "name": "orderId",
          "type": "uint256"
        }
      ],
      "name": "OrderFilledPartially",
      "type": "event"
    },
    {
      "inputs": [],
      "name": "ACCESS_CONTROL_SINGLETON",
      "outputs": [
        {
          "internalType": "contract ISuAccessControl",
          "name": "",
          "type": "address"
        }
      ],
      "stateMutability": "view",
      "type": "function"
    },
    {
      "inputs": [],
      "name": "ADMIN_ROLE",
      "outputs": [
        {
          "internalType": "bytes32",
          "name": "",
          "type": "bytes32"
        }
      ],
      "stateMutability": "view",
      "type": "function"
    },
    {
      "inputs": [],
      "name": "ALERTER_ROLE",
      "outputs": [
        {
          "internalType": "bytes32",
          "name": "",
          "type": "bytes32"
        }
      ],
      "stateMutability": "view",
      "type": "function"
    },
    {
      "inputs": [],
      "name": "CDP_ACCESS_ROLE",
      "outputs": [
        {
          "internalType": "bytes32",
          "name": "",
          "type": "bytes32"
        }
      ],
      "stateMutability": "view",
      "type": "function"
    },
    {
      "inputs": [],
      "name": "DAO_ROLE",
      "outputs": [
        {
          "internalType": "bytes32",
          "name": "",
          "type": "bytes32"
        }
      ],
      "stateMutability": "view",
      "type": "function"
    },
    {
      "inputs": [],
      "name": "DISABLER_ROLE",
      "outputs": [
        {
          "internalType": "bytes32",
          "name": "",
          "type": "bytes32"
        }
      ],
      "stateMutability": "view",
      "type": "function"
    },
    {
      "inputs": [],
      "name": "DUST_THRESHOLD",
      "outputs": [
        {
          "internalType": "uint256",
          "name": "",
          "type": "uint256"
        }
      ],
      "stateMutability": "view",
      "type": "function"
    },
    {
      "inputs": [],
      "name": "LIQUIDATION_ACCESS_ROLE",
      "outputs": [
        {
          "internalType": "bytes32",
          "name": "",
          "type": "bytes32"
        }
      ],
      "stateMutability": "view",
      "type": "function"
    },
    {
      "inputs": [],
      "name": "MINT_ACCESS_ROLE",
      "outputs": [
        {
          "internalType": "bytes32",
          "name": "",
          "type": "bytes32"
        }
      ],
      "stateMutability": "view",
      "type": "function"
    },
    {
      "inputs": [],
      "name": "ORACLE",
      "outputs": [
        {
          "internalType": "contract ISuOracleAggregator",
          "name": "",
          "type": "address"
        }
      ],
      "stateMutability": "view",
      "type": "function"
    },
    {
      "inputs": [],
      "name": "REWARD_ACCESS_ROLE",
      "outputs": [
        {
          "internalType": "bytes32",
          "name": "",
          "type": "bytes32"
        }
      ],
      "stateMutability": "view",
      "type": "function"
    },
    {
      "inputs": [],
      "name": "TOP_STAKERS",
      "outputs": [
        {
          "internalType": "contract ITopStakers",
          "name": "",
          "type": "address"
        }
      ],
      "stateMutability": "view",
      "type": "function"
    },
    {
      "inputs": [],
      "name": "VOTING_ESCROW_ROLE",
      "outputs": [
        {
          "internalType": "bytes32",
          "name": "",
          "type": "bytes32"
        }
      ],
      "stateMutability": "view",
      "type": "function"
    },
    {
      "inputs": [
        {
          "internalType": "address",
          "name": "token2sell",
          "type": "address"
        },
        {
          "internalType": "uint256",
          "name": "amount2sell",
          "type": "uint256"
        },
        {
          "internalType": "address",
          "name": "token2buy",
          "type": "address"
        },
        {
          "internalType": "address",
          "name": "beneficiary",
          "type": "address"
        },
        {
          "internalType": "enum DiscountType",
          "name": "discountType",
          "type": "uint8"
        },
        {
          "internalType": "address",
          "name": "collateralJoin",
          "type": "address"
        }
      ],
      "name": "addOrder",
      "outputs": [
        {
          "internalType": "uint256",
          "name": "orderId",
          "type": "uint256"
        }
      ],
      "stateMutability": "nonpayable",
      "type": "function"
    },
    {
      "inputs": [
        {
          "internalType": "uint256",
          "name": "orderId",
          "type": "uint256"
        }
      ],
      "name": "cancelOrder",
      "outputs": [],
      "stateMutability": "nonpayable",
      "type": "function"
    },
    {
      "inputs": [
        {
          "internalType": "uint256",
          "name": "orderId",
          "type": "uint256"
        },
        {
          "internalType": "uint256",
          "name": "inAmount",
          "type": "uint256"
        },
        {
          "internalType": "bytes",
          "name": "data",
          "type": "bytes"
        }
      ],
      "name": "fillOrderAsFlashLoan",
      "outputs": [
        {
          "internalType": "uint256",
          "name": "outAmount",
          "type": "uint256"
        }
      ],
      "stateMutability": "nonpayable",
      "type": "function"
    },
    {
      "inputs": [
        {
          "internalType": "uint256",
          "name": "orderId",
          "type": "uint256"
        },
        {
          "internalType": "uint256",
          "name": "inAmount",
          "type": "uint256"
        }
      ],
      "name": "fillOrderSimple",
      "outputs": [
        {
          "internalType": "uint256",
          "name": "outAmount",
          "type": "uint256"
        }
      ],
      "stateMutability": "nonpayable",
      "type": "function"
    },
    {
      "inputs": [
        {
          "internalType": "uint256",
          "name": "offset",
          "type": "uint256"
        },
        {
          "internalType": "uint256",
          "name": "limit",
          "type": "uint256"
        }
      ],
      "name": "getAllOrders",
      "outputs": [
        {
          "components": [
            {
              "components": [
                {
                  "internalType": "address",
                  "name": "token2sell",
                  "type": "address"
                },
                {
                  "internalType": "uint256",
                  "name": "amountLeft",
                  "type": "uint256"
                },
                {
                  "internalType": "address",
                  "name": "token2buy",
                  "type": "address"
                },
                {
                  "internalType": "uint256",
                  "name": "token2buyAmount",
                  "type": "uint256"
                },
                {
                  "internalType": "address",
                  "name": "beneficiary",
                  "type": "address"
                },
                {
                  "internalType": "uint256",
                  "name": "creationTimestamp",
                  "type": "uint256"
                },
                {
                  "internalType": "enum DiscountType",
                  "name": "discountType",
                  "type": "uint8"
                },
                {
                  "internalType": "address",
                  "name": "caller",
                  "type": "address"
                }
              ],
              "internalType": "struct Order",
              "name": "order",
              "type": "tuple"
            },
            {
              "internalType": "uint256",
              "name": "orderId",
              "type": "uint256"
            }
          ],
          "internalType": "struct OrderWithId[]",
          "name": "",
          "type": "tuple[]"
        }
      ],
      "stateMutability": "view",
      "type": "function"
    },
    {
      "inputs": [
        {
          "internalType": "uint256",
          "name": "orderId",
          "type": "uint256"
        },
        {
          "internalType": "uint256",
          "name": "inAmount",
          "type": "uint256"
        }
      ],
      "name": "getExpectedOrderOutcome",
      "outputs": [
        {
          "internalType": "uint256",
          "name": "outAmount",
          "type": "uint256"
        }
      ],
      "stateMutability": "view",
      "type": "function"
    },
    {
      "inputs": [
        {
          "internalType": "uint256",
          "name": "orderId",
          "type": "uint256"
        }
      ],
      "name": "getOrder",
      "outputs": [
        {
          "components": [
            {
              "internalType": "address",
              "name": "token2sell",
              "type": "address"
            },
            {
              "internalType": "uint256",
              "name": "amountLeft",
              "type": "uint256"
            },
            {
              "internalType": "address",
              "name": "token2buy",
              "type": "address"
            },
            {
              "internalType": "uint256",
              "name": "token2buyAmount",
              "type": "uint256"
            },
            {
              "internalType": "address",
              "name": "beneficiary",
              "type": "address"
            },
            {
              "internalType": "uint256",
              "name": "creationTimestamp",
              "type": "uint256"
            },
            {
              "internalType": "enum DiscountType",
              "name": "discountType",
              "type": "uint8"
            },
            {
              "internalType": "address",
              "name": "caller",
              "type": "address"
            }
          ],
          "internalType": "struct Order",
          "name": "",
          "type": "tuple"
        }
      ],
      "stateMutability": "view",
      "type": "function"
    },
    {
      "inputs": [],
      "name": "getOrdersCount",
      "outputs": [
        {
          "internalType": "uint256",
          "name": "",
          "type": "uint256"
        }
      ],
      "stateMutability": "view",
      "type": "function"
    },
    {
      "inputs": [
        {
          "internalType": "address",
          "name": "_authControl",
          "type": "address"
        },
        {
          "internalType": "address",
          "name": "_oracleAddress",
          "type": "address"
        },
        {
          "internalType": "address",
          "name": "_topStakersAddress",
          "type": "address"
        }
      ],
      "name": "initialize",
      "outputs": [],
      "stateMutability": "nonpayable",
      "type": "function"
    },
    {
      "inputs": [
        {
          "internalType": "uint256",
          "name": "",
          "type": "uint256"
        }
      ],
      "name": "orders",
      "outputs": [
        {
          "internalType": "address",
          "name": "token2sell",
          "type": "address"
        },
        {
          "internalType": "uint256",
          "name": "amountLeft",
          "type": "uint256"
        },
        {
          "internalType": "address",
          "name": "token2buy",
          "type": "address"
        },
        {
          "internalType": "uint256",
          "name": "token2buyAmount",
          "type": "uint256"
        },
        {
          "internalType": "address",
          "name": "beneficiary",
          "type": "address"
        },
        {
          "internalType": "uint256",
          "name": "creationTimestamp",
          "type": "uint256"
        },
        {
          "internalType": "enum DiscountType",
          "name": "discountType",
          "type": "uint8"
        },
        {
          "internalType": "address",
          "name": "caller",
          "type": "address"
        }
      ],
      "stateMutability": "view",
      "type": "function"
    },
    {
      "inputs": [
        {
          "internalType": "enum DiscountType",
          "name": "",
          "type": "uint8"
        },
        {
          "internalType": "uint256",
          "name": "",
          "type": "uint256"
        }
      ],
      "name": "priceCurve",
      "outputs": [
        {
          "internalType": "uint256",
          "name": "",
          "type": "uint256"
        }
      ],
      "stateMutability": "view",
      "type": "function"
    },
    {
      "inputs": [
        {
          "internalType": "enum DiscountType",
          "name": "discountType",
          "type": "uint8"
        },
        {
          "internalType": "uint256[2]",
          "name": "newPriceCurve",
          "type": "uint256[2]"
        }
      ],
      "name": "setPriceCurve",
      "outputs": [],
      "stateMutability": "nonpayable",
      "type": "function"
    },
    {
      "inputs": [
        {
          "internalType": "bytes4",
          "name": "interfaceId",
          "type": "bytes4"
        }
      ],
      "name": "supportsInterface",
      "outputs": [
        {
          "internalType": "bool",
          "name": "",
          "type": "bool"
        }
      ],
      "stateMutability": "pure",
      "type": "function"
    }
  ],
  "numDeployments": 3,
  "solcInputHash": "99c0a0d9f58fa8279c64246a47fa58ae",
  "bytecode": "0x60808060405234610016576120d0908161001c8239f35b600080fdfe6080604081815260048036101561001557600080fd5b600092833560e01c90816301ffc9a7146118355750806303eaa21a1461176457806303ee9f221461173857806338013f021461170f578063418f28451461169e578063438280dd14611663578063511df44214611378578063514fcac71461129357806371d0fb411461125857806375b238fc1461123d5780638e5313e014611202578063a85c38ef14611178578063b5b3b05114611159578063ba07fc5914611130578063bd5f5be6146110f5578063c0c53b8b14610dab578063d09ef24114610d6b578063d0e8fa8214610d30578063d2351cee14610cf5578063d7c8ae8914610cb6578063dc97e84e14610c7b578063dd7dc9a914610c5c578063e2ed06de14610614578063e9c26518146105d9578063ef3391bc1461029d5763f6243a041461014157600080fd5b346102995761014f3661186c565b9390815260209360338552610165848320611b25565b9261017460a085015142611bc1565b60385485518751631735856760e31b8082526001600160a01b039283168287015292821694938a82602481895afa91821561028f578892610260575b5060c089015191600383101561024d576101d28c969593602495938d93611db7565b99015116948951958694859384528301525afa928315610242579261020c575b5061020592610200916119d7565b611d97565b9051908152f35b9091508481813d831161023b575b6102248183611999565b810103126102365751906102056101f2565b600080fd5b503d61021a565b8551903d90823e3d90fd5b634e487b7160e01b895260218652602489fd5b9091508a81813d8311610288575b6102788183611999565b81010312610236575190386101b0565b503d61026e565b8a513d8a823e3d90fd5b8280fd5b509190346105d55760c03660031901126105d5576102b9611907565b926024908135916102c861191d565b6001600160a01b039690959060643588811690819003610299576084359560038710156105d15760a4358a81168091036105cd578061056257506103286020828c89888d518096819582946323b872dd60e01b8452309033908501611a33565b039289165af180156105585761052a575b505b875143602080830191825233606090811b848d01526001600160601b031987821b8116605486015260688501869052908d901b166088840152607c83529b9160a081018181106001600160401b03821117610516578b52519020998a865260338c5260058a872001546104f2575b8a865260338c5260058a872001546104dc5791818c938c98979695938c51966103d18861197d565b168652848601928352818c87019116815260608601908782526080870194855260a087019542875260c088019c610408908e611a62565b60e088019a338c52895260339052828d892097511693600160a01b600190031994858954161788555160018801558260028801915116848254161790555160038601558885019251169082541617905551600582015560060194519360038510156104cc5750505060ff835491610100600160a81b03905160081b1692169060018060a81b0319161717905561049d82611a9f565b507f12a866cc569301d2ff9fcbbae3decc9e0cf3fa94ddef08dd0de3e9a693fb8d19838251848152a151908152f35b634e487b7160e01b825260219052fd5b8951634b92340560e01b81528089018c90528790fd5b996001810180911161050457996103a9565b634e487b7160e01b8652601188528686fd5b8860418b634e487b7160e01b600052526000fd5b61054a9060203d8111610551575b6105428183611999565b810190611a00565b5038610339565b503d610538565b89513d87823e3d90fd5b803b156105cd57848261058c9289838d5180968195829463ef693bed60e01b845230908401611a18565b03925af18015610558576105a1575b5061033b565b9093906001600160401b0381116105bb578852923861059b565b634e487b7160e01b8252604187528582fd5b8480fd5b8380fd5b5080fd5b5050346105d557816003193601126105d557602090517f3b5d4cc60d3ec3516ee8ae083bd60934f6eb2a6c54b1229985c41bfb092b26038152f35b5090346102995760603660031901126102995760249260443592803591908535906001600160401b038611610299573660238701121561029957858101359561065c876119bc565b9661066987519889611999565b808852368982840101116105cd5788929181869260209b8c9301838c013789010152600260015414610c1c5760026001558296858552603389528685209060058201548015610c05576106bc9042611bc1565b93603c8511610b9a576039548951633ba7f4c760e21b8152906001600160a01b03168c828781845afa918215610b5a5783918e918b94610b64575b508c5162650fcd60e31b8152328982015292839182905afa908115610b5a578991610b3d575b5015610b29576107376107308232611e17565b918a611e17565b03610b0d575b60018301958654809111610b05575b5060385483548a51632a5001c960e01b8082526001600160a01b0392831688830152919791928e908290869082908e908d165af19081156109eb578a91610ad6575b506107a19160ff60068801541691611db7565b9a86603854168d8c8560028901958d8c8854169351958694859384528d8401525af19081156109eb57908d918b91610a9f575b506102006107e292846119d7565b9b8c15610a8f578c6107f960038801918254611a55565b9055610806828a54611bc1565b808a558015159182610a6d575b5050610a5d579061082f85949392888f99989754163390611cf9565b858154168b51936370a0823160e01b988986523088870152858581855afa948515610a5357908f918f908f908e98610a14575b5051633517a9e160e11b815289810194909452858401523360448401526080606484015280516084840181905283918d9084825b8481106109f55750505081839160a4809484010152601f801991011681010301818d335af19081156109eb578e8b926109ce575b5050156109be57858d915416968b519283918252308783015281895afa90811561028f578b908992610988575b506109029192611a55565b11610979578995938897959361091d938b9301541690611cf9565b5461095e5760008051602061207b83398151915293818361094393526033855220611b97565b61094c81611bce565b508351908152a15b6001805551908152f35b5060008051602061205b8339815191529251908152a1610954565b50865163395c945760e11b8152fd5b8092508d8092503d83116109b7575b6109a18183611999565b810103126109b357518a6109026108f7565b8780fd5b503d610997565b8a5163c286d75960e01b81528590fd5b6109e49250803d10610551576105428183611999565b388e6108ca565b8c513d8c823e3d90fd5b82819395965082945001015160a4828801015201849291848f92610896565b93929495969750505081813d8311610a4c575b610a318183611999565b81010312610a485751939291908e908e8e38610862565b8a80fd5b503d610a27565b8d513d8d823e3d90fd5b8a5163117be23960e31b81528690fd5b670de0b6b3a7640000925090610a82916119d7565b0460375410153880610813565b8b5163ebda174360e01b81528790fd5b8f8193508092503d8311610acf575b610ab88183611999565b81010312610acb57518c906102006107d4565b8980fd5b503d610aae565b90508d81813d8311610afe575b610aed8183611999565b81010312610acb57516107a161078e565b503d610ae3565b99503861074c565b83604491898b5192636d5e923560e01b84528301523290820152fd5b50885163a849de1760e01b81523281860152fd5b610b5491508d803d10610551576105428183611999565b3861071d565b8b513d8b823e3d90fd5b9250925081813d8311610b93575b610b7c8183611999565b81010312610b8f578c83915192386106f7565b8880fd5b503d610b72565b6039548951636f1e853360e01b81523286820152908c908290849082906001600160a01b03165afa90811561028f578891610be8575b5061073d578851631953278360e21b81523281860152fd5b610bff91508c8d3d10610551576105428183611999565b38610bd0565b505086516373a98b6360e11b815291820186905250fd5b601f6064928988519362461bcd60e51b85528401528201527f5265656e7472616e637947756172643a207265656e7472616e742063616c6c006044820152fd5b5050346105d557816003193601126105d5576020906037549051908152f35b5050346105d557816003193601126105d557602090517f9a9aef7c1247d5fc769b0185c052913e39673da29a880317dfd20ebf86f26a498152f35b503461029957816003193601126102995735600381101561029957602435908352603660205281832060028210156105d1576020935001549051908152f35b5050346105d557816003193601126105d557602090517fb0fdd1623e42dbffda4acd8bd643e1cb69f00f0e83abeaa8150ee42cf0fd105e8152f35b5050346105d557816003193601126105d557602090517f76d0567582f23e1e9d7a13eeba60f9aea9d69b8da87ca27a8bf3698b35c653db8152f35b503461029957602036600319011261029957610da08261010094610da993610d91611e21565b50358152603360205220611b25565b915180926118a5565bf35b503461029957606036600319011261029957610dc5611907565b6001600160a01b039190602435838116908190036110f157610de561191d565b9386549360ff8560081c1615938480956110e4575b80156110cd575b1561107357600195858760ff198316178b55611062575b50885460ff8160081c161561100b5762010000600160b01b031916601082901b62010000600160b01b031617895582168015159081610fa7575b50610f995750855194610e648661194c565b610384865260209588878201528880526036875287892090868a5b60028110610f8357505050508651610e968161194c565b6202bf20815288878201528589526036875287892090868a5b60028110610f6c57505050508651610ec68161194c565b6206978081528887820152600290818a5260368852888a20878b5b848110610f5557505050505068056bc75e2d6310000060375560018060a01b03199283603854161760385516906039541617603955610f1e578380f35b7f7f26b83ff96e1f2b6a682f133852f6798a09c465da95921460cefb38474024989261ff0019855416855551908152a13880808380f35b8a62ffffff85511694019381840155018890610ee1565b8962ffffff84511693019281850155018790610eaf565b8961ffff84511693019281850155018790610e7f565b86516384d942fd60e01b8152fd5b88516301ffc9a760e01b8152637965db0b60e01b848201529150602090829060249082905afa908115611001578991610fe3575b501538610e52565b610ffb915060203d8111610551576105428183611999565b38610fdb565b88513d8b823e3d90fd5b885162461bcd60e51b8152602081850152602b60248201527f496e697469616c697a61626c653a20636f6e7472616374206973206e6f74206960448201526a6e697469616c697a696e6760a81b6064820152608490fd5b61ffff191661010117895538610e18565b875162461bcd60e51b8152602081840152602e60248201527f496e697469616c697a61626c653a20636f6e747261637420697320616c72656160448201526d191e481a5b9a5d1a585b1a5e995960921b6064820152608490fd5b50303b158015610e015750600160ff871614610e01565b50600160ff871610610dfa565b8580fd5b5050346105d557816003193601126105d557602090517f4f14c8366fa999817edc9f29824eb88a00cc31225e2156f399da4bc91049eb108152f35b5050346105d557816003193601126105d55760395490516001600160a01b039091168152602090f35b5050346105d557816003193601126105d5576020906034549051908152f35b5034610299576020366003190112610299578161010093823581526033602052209060018060a01b03918281541693600182015492846002840154168560038501549285015416926006600586015495015495815198895260208901528701526060860152608085015260a08401526111f760c0840160ff8316611882565b60081c1660e0820152f35b5050346105d557816003193601126105d557602090517fe453bacb314e78dcd5192e6b1a2b1f0e7c76e92f6b7e429a6a90f04e39db3b768152f35b5050346105d557816003193601126105d55751908152602090f35b5050346105d557816003193601126105d557602090517f880a91047114272656e533301261260c75e4d11543ac7303d6fe4204579ec7278152f35b5090346102995760203660031901126102995781359182845260336020526112bc828520611b25565b9060a0820151156113615760808201516001600160a01b039190821633141580611351575b61134357509161131f82602080957fc41f4ceb2938876c35e61b705e9d2f18a02c4a26ce5e049a6308a943d46851b397955116910151903390611cf9565b81855260338352611331818620611b97565b61133a82611bce565b5051908152a180f35b835163da383fb560e01b8152fd5b508160e0840151163314156112e1565b82516373a98b6360e11b8152908101849052602490fd5b509034610299576113883661186c565b9384828252602095603387528483206005810154801561164c576113ac9042611bc1565b9660018201938454809111611644575b5060385482548851632a5001c960e01b8082526001600160a01b03928316828601529a9193928c9082908616818b5a92602493f190811561028f578891611615575b506114119160ff60068701541691611db7565b9882603854168b8a602460028801948b88875416935195869485938452898401525af1801561028f5788906115e6575b61145091506102008c886119d7565b998a156115d657600385016114668c8254611a55565b9055611473868854611bc1565b80885580151591826115b4575b50506115a557868b8a828d6114c78883975416946114b98a8a8d01541695519384928301966323b872dd60e01b88523360248501611a33565b03601f198101835282611999565b51925af16114d3611cc9565b81611575575b501561154c5750889492879694926114f49233915416611cf9565b546115315760008051602061207b83398151915293818361151a93526033855220611b97565b61152381611bce565b508351908152a15b51908152f35b5060008051602061205b8339815191529251908152a161152b565b875162461bcd60e51b81529081018a9052600360248201526229aa2360e91b6044820152606490fd5b8051801592508c90831561158d575b505050386114d9565b61159d9350820181019101611a00565b388b81611584565b50875163117be23960e31b8152fd5b670de0b6b3a76400009250906115c9916119d7565b0460375410153880611480565b895163ebda174360e01b81528390fd5b508b81813d831161160e575b6115fc8183611999565b810103126109b3576114509051611441565b503d6115f2565b90508b81813d831161163d575b61162c8183611999565b810103126109b357516114116113fe565b503d611622565b9250386113bc565b86516373a98b6360e11b8152808901879052602490fd5b5050346105d557816003193601126105d557602090517f39f61ca2a1a28fee144218173ec637b649a353e4026b2738c673800e5bf1437b8152f35b82843461170c57906116b86116b23661186c565b90611e8a565b81519160208080850192818652845180945285019301945b8281106116dd5784840385f35b909192826101206001928289516116f58382516118a5565b0151610100820152019601910194929190946116d0565b80fd5b5050346105d557816003193601126105d55760385490516001600160a01b039091168152602090f35b5050346105d557816003193601126105d5579054905160109190911c6001600160a01b03168152602090f35b50346102995760603660031901126102995780359060038210156105d157366064116105d15783548351632474521560e21b81528281018690523360248201526020949185908290604490829060101c6001600160a01b03165afa90811561182b57869161180e575b50156118015750506117de90611933565b602490835b600281106117ef578480f35b823582820155918301916001016117e3565b51631886ea7d60e11b8152fd5b6118259150853d8711610551576105428183611999565b386117cd565b82513d88823e3d90fd5b92505034610299576020366003190112610299573563ffffffff60e01b8116809103610299576346fed7f760e11b14815260209150f35b6040906003190112610236576004359060243590565b90600382101561188f5752565b634e487b7160e01b600052602160045260246000fd5b60e0908160018060a01b0391828151168552602081015160208601528260408201511660408601526060810151606086015282608082015116608086015260a081015160a08601526118ff60c082015160c0870190611882565b015116910152565b600435906001600160a01b038216820361023657565b604435906001600160a01b038216820361023657565b600381101561188f576000526036602052604060002090565b604081019081106001600160401b0382111761196757604052565b634e487b7160e01b600052604160045260246000fd5b61010081019081106001600160401b0382111761196757604052565b601f909101601f19168101906001600160401b0382119082101761196757604052565b6001600160401b03811161196757601f01601f191660200190565b818102929181159184041417156119ea57565b634e487b7160e01b600052601160045260246000fd5b90816020910312610236575180151581036102365790565b6001600160a01b039091168152602081019190915260400190565b6001600160a01b03918216815291166020820152604081019190915260600190565b919082018092116119ea57565b600382101561188f5752565b603454811015611a8957603460005260206000200190600090565b634e487b7160e01b600052603260045260246000fd5b600081815260356020526040812054611b2057603454600160401b811015611b0c576001810180603455811015611af85760008051602061203b8339815191520182905560345491815260356020526040902055600190565b634e487b7160e01b82526032600452602482fd5b634e487b7160e01b82526041600452602482fd5b905090565b90604051611b328161197d565b60e08193600660018060a01b03918281541685526001810154602086015282600282015416604086015260038101546060860152826004820154166080860152600581015460a08601520154611b8e60ff821660c08601611a62565b60081c16910152565b60066000918281558260018201558260028201558260038201558260048201558260058201550155565b919082039182116119ea57565b6000818152603560205260408120549091908015611cc45760001990808201818111611cb05760345490838201918211611c9c57808203611c57575b5050506034548015611c4357810190611c2282611a6e565b909182549160031b1b19169055603455815260356020526040812055600190565b634e487b7160e01b84526031600452602484fd5b611c63611c7292611a6e565b90549060031b1c918291611a6e565b819291549060031b86811b9283911b16911916179055845260356020526040842055388080611c0a565b634e487b7160e01b86526011600452602486fd5b634e487b7160e01b85526011600452602485fd5b505090565b3d15611cf4573d90611cda826119bc565b91611ce86040519384611999565b82523d6000602084013e565b606090565b60009291836114b9611d248295604051928391602083019663a9059cbb60e01b885260248401611a18565b51925af1611d30611cc9565b81611d68575b5015611d3e57565b60405162461bcd60e51b815260206004820152600260248201526114d560f21b6044820152606490fd5b8051801592508215611d7d575b505038611d36565b611d909250602080918301019101611a00565b3880611d75565b8115611da1570490565b634e487b7160e01b600052601260045260246000fd5b916001611dcd611dc683611933565b5492611933565b015491818111611dfa5792611dec611df292610200611df796846119d7565b90611bc1565b611bc1565b90565b5050508060031b90808204600814901517156119ea57600a900490565b8115611da1570690565b60405190611e2e8261197d565b8160e06000918281528260208201528260408201528260608201528260808201528260a08201528260c08201520152565b6001600160401b0381116119675760051b60200190565b8051821015611a895760209160051b010190565b6040805160348054808352600091825291959460209493919260008051602061203b83398151915290889087820190865b8982821061202457505050611ed292500388611999565b8651908115611feb5781611ee68287611a55565b1115611fda5750925b80841115611fd357611f018185611bc1565b945b611f0c86611e5f565b95611f1984519788611999565b808752611f28601f1991611e5f565b0181855b828110611fab57505050815b858110611f4a57509496505050505050565b611f99611f57828b611e76565b518087526033845285872090611f77875192611f728461194c565b611b25565b825284820152611f878584611bc1565b90611f92828b611e76565b5288611e76565b506000198114611cb057600101611f38565b8551611fb68161194c565b611fbe611e21565b8152878382015282828b010152018290611f2c565b8294611f03565b611fe5915084611a55565b92611eef565b505080519495509092840191506001600160401b038211848310176120105752815290565b634e487b7160e01b83526041600452602483fd5b855484526001958601958d955093019201611ebb56fe46bddb1178e94d7f2892ff5f366840eb658911794f2c3a44c450aa2c505186c1c238a2d1c485b17bfd980b5e6d0483704cd4720118eb06215758d49f85ea8963cdf98e0235c72ad7ae8de32249da25cc98298c8f11710c55a3d58e9e7ac69f94a26469706673582212202419f1203a22171390e6aff1295234e6c60054b4d936b80bc9ae7401a69eb5a064736f6c63430008110033",
  "devdoc": {
    "details": "See IExchange interface for full details.",
    "kind": "dev",
    "methods": {
      "addOrder(address,uint256,address,address,uint8,address)": {
        "details": "This swap is async, because depends on how arbitrage bots will fill this order. Emits OrderAdded() event. Before addOrder user needs to approve token2sell for exchange contract",
        "params": {
          "amount2sell": "- Amount of {token2sell} to sell",
          "beneficiary": "- Address that will receive {token2buy} after filling order.",
          "collateralJoin": "- address of collateral adapter*",
          "discountType": "- Speed of decreasing swap price. { 0 - aggressive, 1 - middle, 2 - conservative }",
          "token2buy": "- Address of token to buy",
          "token2sell": "- Address of token to sell"
        }
      },
      "cancelOrder(uint256)": {
        "params": {
          "orderId": "- Id of order to cancel.*"
        }
      },
      "fillOrderAsFlashLoan(uint256,uint256,bytes)": {
        "details": "Caller contract receive orders {token2sell} and after that his stableunitFillOrderCallback() is called. At the end of thi callback contract should send some amount of another token back to Exchange contract.",
        "params": {
          "data": "- encoded data to pass to callback function*",
          "inAmount": "- Amount of {token2sell} to receive",
          "orderId": "- Id of order to fill."
        }
      },
      "getExpectedOrderOutcome(uint256,uint256)": {
        "returns": {
          "outAmount": "The amount of outcome that caller will receive if he will fill {orderId} with {inAmount} of {token2sell}*"
        }
      },
      "getOrder(uint256)": {
        "returns": {
          "_0": "Order with id = {orderId}*"
        }
      },
      "getOrdersCount()": {
        "returns": {
          "_0": "The amount of not full-filled orders*"
        }
      },
      "setPriceCurve(uint8,uint256[2])": {
        "params": {
          "discountType": "- discount type to change",
          "newPriceCurve": "- parameters of formula*"
        }
      },
      "supportsInterface(bytes4)": {
        "details": "Returns true if this contract implements the interface defined by `interfaceId`. See the corresponding https://eips.ethereum.org/EIPS/eip-165#how-interfaces-are-identified[EIP section] to learn more about how these ids are created. This function call must use less than 30 000 gas."
      }
    },
    "title": "Exchange",
    "version": 1
  },
  "userdoc": {
    "kind": "user",
    "methods": {
      "DUST_THRESHOLD()": {
        "notice": "Amount of minimum amountLeft in order. It's measured in fiat. For example DUST_THRESHOLD = 100 * 1e18 => it's 100 USD*"
      },
      "addOrder(address,uint256,address,address,uint8,address)": {
        "notice": "Add order to swap {token2sell} to {token2buy}."
      },
      "cancelOrder(uint256)": {
        "notice": "Only user who place order or who is beneficiary can cancelOrder();"
      },
      "fillOrderAsFlashLoan(uint256,uint256,bytes)": {
        "notice": "Fill order with flash-loan like logic"
      },
      "getAllOrders(uint256,uint256)": {
        "notice": "This method can be deleted after we'll add GraphQL to watch orders*"
      },
      "priceCurve(uint8,uint256)": {
        "notice": "priceCurve is like price_t = price_0 * (1 - t/priceCurve[0]) - priceCurve[1] from timePassed = 0 to t priceCurve decrease linear, but after t (when discount is 20%), it's constant*"
      },
      "setPriceCurve(uint8,uint256[2])": {
        "notice": "Function to update price curve - how fast {token2sell} price will decrease/increase"
      }
    },
    "notice": "Main contract of Exchange module. Here we can add order or fill it to get profit.",
    "version": 1
  },
  "storageLayout": {
    "storage": [
      {
        "astId": 79,
        "contract": "contracts/exchange/contracts/Exchange.sol:Exchange",
        "label": "_initialized",
        "offset": 0,
        "slot": "0",
        "type": "t_uint8"
      },
      {
        "astId": 82,
        "contract": "contracts/exchange/contracts/Exchange.sol:Exchange",
        "label": "_initializing",
        "offset": 1,
        "slot": "0",
        "type": "t_bool"
      },
      {
        "astId": 6801,
        "contract": "contracts/exchange/contracts/Exchange.sol:Exchange",
        "label": "ACCESS_CONTROL_SINGLETON",
        "offset": 2,
        "slot": "0",
        "type": "t_contract(ISuAccessControl)7265"
      },
      {
        "astId": 256,
        "contract": "contracts/exchange/contracts/Exchange.sol:Exchange",
        "label": "_status",
        "offset": 0,
        "slot": "1",
        "type": "t_uint256"
      },
      {
        "astId": 325,
        "contract": "contracts/exchange/contracts/Exchange.sol:Exchange",
        "label": "__gap",
        "offset": 0,
        "slot": "2",
        "type": "t_array(t_uint256)49_storage"
      },
      {
        "astId": 2490,
        "contract": "contracts/exchange/contracts/Exchange.sol:Exchange",
        "label": "orders",
        "offset": 0,
        "slot": "51",
        "type": "t_mapping(t_uint256,t_struct(Order)3598_storage)"
      },
      {
        "astId": 2493,
        "contract": "contracts/exchange/contracts/Exchange.sol:Exchange",
        "label": "orderIdSet",
        "offset": 0,
        "slot": "52",
        "type": "t_struct(UintSet)1229_storage"
      },
      {
        "astId": 2501,
        "contract": "contracts/exchange/contracts/Exchange.sol:Exchange",
        "label": "priceCurve",
        "offset": 0,
        "slot": "54",
        "type": "t_mapping(t_enum(DiscountType)3580,t_array(t_uint256)2_storage)"
      },
      {
        "astId": 2504,
        "contract": "contracts/exchange/contracts/Exchange.sol:Exchange",
        "label": "DUST_THRESHOLD",
        "offset": 0,
        "slot": "55",
        "type": "t_uint256"
      },
      {
        "astId": 2507,
        "contract": "contracts/exchange/contracts/Exchange.sol:Exchange",
        "label": "ORACLE",
        "offset": 0,
        "slot": "56",
        "type": "t_contract(ISuOracleAggregator)7409"
      },
      {
        "astId": 2510,
        "contract": "contracts/exchange/contracts/Exchange.sol:Exchange",
        "label": "TOP_STAKERS",
        "offset": 0,
        "slot": "57",
        "type": "t_contract(ITopStakers)7492"
      },
      {
        "astId": 3479,
        "contract": "contracts/exchange/contracts/Exchange.sol:Exchange",
        "label": "__gap",
        "offset": 0,
        "slot": "58",
        "type": "t_array(t_uint256)45_storage"
      }
    ],
    "types": {
      "t_address": {
        "encoding": "inplace",
        "label": "address",
        "numberOfBytes": "20"
      },
      "t_array(t_bytes32)dyn_storage": {
        "base": "t_bytes32",
        "encoding": "dynamic_array",
        "label": "bytes32[]",
        "numberOfBytes": "32"
      },
      "t_array(t_uint256)2_storage": {
        "base": "t_uint256",
        "encoding": "inplace",
        "label": "uint256[2]",
        "numberOfBytes": "64"
      },
      "t_array(t_uint256)45_storage": {
        "base": "t_uint256",
        "encoding": "inplace",
        "label": "uint256[45]",
        "numberOfBytes": "1440"
      },
      "t_array(t_uint256)49_storage": {
        "base": "t_uint256",
        "encoding": "inplace",
        "label": "uint256[49]",
        "numberOfBytes": "1568"
      },
      "t_bool": {
        "encoding": "inplace",
        "label": "bool",
        "numberOfBytes": "1"
      },
      "t_bytes32": {
        "encoding": "inplace",
        "label": "bytes32",
        "numberOfBytes": "32"
      },
      "t_contract(ISuAccessControl)7265": {
        "encoding": "inplace",
        "label": "contract ISuAccessControl",
        "numberOfBytes": "20"
      },
      "t_contract(ISuOracleAggregator)7409": {
        "encoding": "inplace",
        "label": "contract ISuOracleAggregator",
        "numberOfBytes": "20"
      },
      "t_contract(ITopStakers)7492": {
        "encoding": "inplace",
        "label": "contract ITopStakers",
        "numberOfBytes": "20"
      },
      "t_enum(DiscountType)3580": {
        "encoding": "inplace",
        "label": "enum DiscountType",
        "numberOfBytes": "1"
      },
      "t_mapping(t_bytes32,t_uint256)": {
        "encoding": "mapping",
        "key": "t_bytes32",
        "label": "mapping(bytes32 => uint256)",
        "numberOfBytes": "32",
        "value": "t_uint256"
      },
      "t_mapping(t_enum(DiscountType)3580,t_array(t_uint256)2_storage)": {
        "encoding": "mapping",
        "key": "t_enum(DiscountType)3580",
        "label": "mapping(enum DiscountType => uint256[2])",
        "numberOfBytes": "32",
        "value": "t_array(t_uint256)2_storage"
      },
      "t_mapping(t_uint256,t_struct(Order)3598_storage)": {
        "encoding": "mapping",
        "key": "t_uint256",
        "label": "mapping(uint256 => struct Order)",
        "numberOfBytes": "32",
        "value": "t_struct(Order)3598_storage"
      },
      "t_struct(Order)3598_storage": {
        "encoding": "inplace",
        "label": "struct Order",
        "members": [
          {
            "astId": 3582,
            "contract": "contracts/exchange/contracts/Exchange.sol:Exchange",
            "label": "token2sell",
            "offset": 0,
            "slot": "0",
            "type": "t_address"
          },
          {
            "astId": 3584,
            "contract": "contracts/exchange/contracts/Exchange.sol:Exchange",
            "label": "amountLeft",
            "offset": 0,
            "slot": "1",
            "type": "t_uint256"
          },
          {
            "astId": 3586,
            "contract": "contracts/exchange/contracts/Exchange.sol:Exchange",
            "label": "token2buy",
            "offset": 0,
            "slot": "2",
            "type": "t_address"
          },
          {
            "astId": 3588,
            "contract": "contracts/exchange/contracts/Exchange.sol:Exchange",
            "label": "token2buyAmount",
            "offset": 0,
            "slot": "3",
            "type": "t_uint256"
          },
          {
            "astId": 3590,
            "contract": "contracts/exchange/contracts/Exchange.sol:Exchange",
            "label": "beneficiary",
            "offset": 0,
            "slot": "4",
            "type": "t_address"
          },
          {
            "astId": 3592,
            "contract": "contracts/exchange/contracts/Exchange.sol:Exchange",
            "label": "creationTimestamp",
            "offset": 0,
            "slot": "5",
            "type": "t_uint256"
          },
          {
            "astId": 3595,
            "contract": "contracts/exchange/contracts/Exchange.sol:Exchange",
            "label": "discountType",
            "offset": 0,
            "slot": "6",
            "type": "t_enum(DiscountType)3580"
          },
          {
            "astId": 3597,
            "contract": "contracts/exchange/contracts/Exchange.sol:Exchange",
            "label": "caller",
            "offset": 1,
            "slot": "6",
            "type": "t_address"
          }
        ],
        "numberOfBytes": "224"
      },
      "t_struct(Set)757_storage": {
        "encoding": "inplace",
        "label": "struct EnumerableSetUpgradeable.Set",
        "members": [
          {
            "astId": 752,
            "contract": "contracts/exchange/contracts/Exchange.sol:Exchange",
            "label": "_values",
            "offset": 0,
            "slot": "0",
            "type": "t_array(t_bytes32)dyn_storage"
          },
          {
            "astId": 756,
            "contract": "contracts/exchange/contracts/Exchange.sol:Exchange",
            "label": "_indexes",
            "offset": 0,
            "slot": "1",
            "type": "t_mapping(t_bytes32,t_uint256)"
          }
        ],
        "numberOfBytes": "64"
      },
      "t_struct(UintSet)1229_storage": {
        "encoding": "inplace",
        "label": "struct EnumerableSetUpgradeable.UintSet",
        "members": [
          {
            "astId": 1228,
            "contract": "contracts/exchange/contracts/Exchange.sol:Exchange",
            "label": "_inner",
            "offset": 0,
            "slot": "0",
            "type": "t_struct(Set)757_storage"
          }
        ],
        "numberOfBytes": "64"
      },
      "t_uint256": {
        "encoding": "inplace",
        "label": "uint256",
        "numberOfBytes": "32"
      },
      "t_uint8": {
        "encoding": "inplace",
        "label": "uint8",
        "numberOfBytes": "1"
      }
    }
  }
}