{
  "address": "0x9D4d8e210e96b03bc5EA8e24d0AB3A32556069E0",
  "abi": [
    {
      "inputs": [],
      "name": "BadAccessControlSingleton",
      "type": "error"
    },
    {
      "inputs": [],
      "name": "CallbackError",
      "type": "error"
    },
    {
      "inputs": [
        {
          "internalType": "address",
          "name": "orderToken2buy",
          "type": "address"
        },
        {
          "internalType": "address",
          "name": "inToken",
          "type": "address"
        }
      ],
      "name": "IncorrectToken",
      "type": "error"
    },
    {
      "inputs": [
        {
          "internalType": "address",
          "name": "staker",
          "type": "address"
        }
      ],
      "name": "IsNotTopStaker",
      "type": "error"
    },
    {
      "inputs": [],
      "name": "NotEnoughReturnValue",
      "type": "error"
    },
    {
      "inputs": [],
      "name": "OnlyAdminError",
      "type": "error"
    },
    {
      "inputs": [],
      "name": "OnlyAlerterError",
      "type": "error"
    },
    {
      "inputs": [],
      "name": "OnlyDAOError",
      "type": "error"
    },
    {
      "inputs": [],
      "name": "OnlyLiquidationAccessError",
      "type": "error"
    },
    {
      "inputs": [],
      "name": "OnlyMintAccessError",
      "type": "error"
    },
    {
      "inputs": [],
      "name": "OnlyRewardAccessError",
      "type": "error"
    },
    {
      "inputs": [],
      "name": "OnlyRoleError",
      "type": "error"
    },
    {
      "inputs": [],
      "name": "OnlyVaultAccessError",
      "type": "error"
    },
    {
      "inputs": [
        {
          "internalType": "uint256",
          "name": "orderId",
          "type": "uint256"
        }
      ],
      "name": "OrderExist",
      "type": "error"
    },
    {
      "inputs": [
        {
          "internalType": "uint256",
          "name": "orderId",
          "type": "uint256"
        }
      ],
      "name": "OrderNotExist",
      "type": "error"
    },
    {
      "inputs": [
        {
          "internalType": "uint256",
          "name": "orderId",
          "type": "uint256"
        },
        {
          "internalType": "address",
          "name": "staker",
          "type": "address"
        }
      ],
      "name": "OrderNotForThisStaker",
      "type": "error"
    },
    {
      "inputs": [],
      "name": "SmallAmountLeft",
      "type": "error"
    },
    {
      "inputs": [],
      "name": "UserIsNotBeneficiary",
      "type": "error"
    },
    {
      "anonymous": false,
      "inputs": [
        {
          "indexed": false,
          "internalType": "uint8",
          "name": "version",
          "type": "uint8"
        }
      ],
      "name": "Initialized",
      "type": "event"
    },
    {
      "anonymous": false,
      "inputs": [
        {
          "indexed": false,
          "internalType": "address",
          "name": "LPToken",
          "type": "address"
        },
        {
          "indexed": false,
          "internalType": "uint256[]",
          "name": "orderIds",
          "type": "uint256[]"
        }
      ],
      "name": "LpOrdersAdded",
      "type": "event"
    },
    {
      "anonymous": false,
      "inputs": [
        {
          "indexed": false,
          "internalType": "uint256",
          "name": "orderId",
          "type": "uint256"
        }
      ],
      "name": "OrderAdded",
      "type": "event"
    },
    {
      "anonymous": false,
      "inputs": [
        {
          "indexed": false,
          "internalType": "uint256",
          "name": "orderId",
          "type": "uint256"
        }
      ],
      "name": "OrderCanceled",
      "type": "event"
    },
    {
      "anonymous": false,
      "inputs": [
        {
          "indexed": false,
          "internalType": "uint256",
          "name": "orderId",
          "type": "uint256"
        }
      ],
      "name": "OrderFilled",
      "type": "event"
    },
    {
      "anonymous": false,
      "inputs": [
        {
          "indexed": false,
          "internalType": "uint256",
          "name": "orderId",
          "type": "uint256"
        }
      ],
      "name": "OrderFilledPartially",
      "type": "event"
    },
    {
      "inputs": [],
      "name": "ACCESS_CONTROL_SINGLETON",
      "outputs": [
        {
          "internalType": "contract ISuAccessControl",
          "name": "",
          "type": "address"
        }
      ],
      "stateMutability": "view",
      "type": "function"
    },
    {
      "inputs": [],
      "name": "ADMIN_ROLE",
      "outputs": [
        {
          "internalType": "bytes32",
          "name": "",
          "type": "bytes32"
        }
      ],
      "stateMutability": "view",
      "type": "function"
    },
    {
      "inputs": [],
      "name": "ALERTER_ROLE",
      "outputs": [
        {
          "internalType": "bytes32",
          "name": "",
          "type": "bytes32"
        }
      ],
      "stateMutability": "view",
      "type": "function"
    },
    {
      "inputs": [],
      "name": "DAO_ROLE",
      "outputs": [
        {
          "internalType": "bytes32",
          "name": "",
          "type": "bytes32"
        }
      ],
      "stateMutability": "view",
      "type": "function"
    },
    {
      "inputs": [],
      "name": "DUST_THRESHOLD",
      "outputs": [
        {
          "internalType": "uint256",
          "name": "",
          "type": "uint256"
        }
      ],
      "stateMutability": "view",
      "type": "function"
    },
    {
      "inputs": [],
      "name": "LIQUIDATION_ACCESS_ROLE",
      "outputs": [
        {
          "internalType": "bytes32",
          "name": "",
          "type": "bytes32"
        }
      ],
      "stateMutability": "view",
      "type": "function"
    },
    {
      "inputs": [],
      "name": "MINT_ACCESS_ROLE",
      "outputs": [
        {
          "internalType": "bytes32",
          "name": "",
          "type": "bytes32"
        }
      ],
      "stateMutability": "view",
      "type": "function"
    },
    {
      "inputs": [],
      "name": "ORACLE",
      "outputs": [
        {
          "internalType": "contract ISuOracle",
          "name": "",
          "type": "address"
        }
      ],
      "stateMutability": "view",
      "type": "function"
    },
    {
      "inputs": [],
      "name": "REWARD_ACCESS_ROLE",
      "outputs": [
        {
          "internalType": "bytes32",
          "name": "",
          "type": "bytes32"
        }
      ],
      "stateMutability": "view",
      "type": "function"
    },
    {
      "inputs": [],
      "name": "SYSTEM_ROLE",
      "outputs": [
        {
          "internalType": "bytes32",
          "name": "",
          "type": "bytes32"
        }
      ],
      "stateMutability": "view",
      "type": "function"
    },
    {
      "inputs": [],
      "name": "TOP_STAKERS",
      "outputs": [
        {
          "internalType": "contract ITopStakers",
          "name": "",
          "type": "address"
        }
      ],
      "stateMutability": "view",
      "type": "function"
    },
    {
      "inputs": [],
      "name": "VAULT_ACCESS_ROLE",
      "outputs": [
        {
          "internalType": "bytes32",
          "name": "",
          "type": "bytes32"
        }
      ],
      "stateMutability": "view",
      "type": "function"
    },
    {
      "inputs": [
        {
          "internalType": "address",
          "name": "token2sell",
          "type": "address"
        },
        {
          "internalType": "uint256",
          "name": "amount2sell",
          "type": "uint256"
        },
        {
          "internalType": "address",
          "name": "token2buy",
          "type": "address"
        },
        {
          "internalType": "address",
          "name": "beneficiary",
          "type": "address"
        },
        {
          "internalType": "enum DiscountType",
          "name": "discountType",
          "type": "uint8"
        },
        {
          "internalType": "address",
          "name": "collateralJoin",
          "type": "address"
        }
      ],
      "name": "addOrder",
      "outputs": [
        {
          "internalType": "uint256",
          "name": "orderId",
          "type": "uint256"
        }
      ],
      "stateMutability": "nonpayable",
      "type": "function"
    },
    {
      "inputs": [
        {
          "internalType": "uint256",
          "name": "orderId",
          "type": "uint256"
        }
      ],
      "name": "cancelOrder",
      "outputs": [],
      "stateMutability": "nonpayable",
      "type": "function"
    },
    {
      "inputs": [
        {
          "internalType": "uint256",
          "name": "orderId",
          "type": "uint256"
        },
        {
          "internalType": "uint256",
          "name": "inAmount",
          "type": "uint256"
        },
        {
          "internalType": "bytes",
          "name": "data",
          "type": "bytes"
        }
      ],
      "name": "fillOrderAsFlashLoan",
      "outputs": [
        {
          "internalType": "uint256",
          "name": "outAmount",
          "type": "uint256"
        }
      ],
      "stateMutability": "nonpayable",
      "type": "function"
    },
    {
      "inputs": [],
      "name": "getAllOrders",
      "outputs": [
        {
          "components": [
            {
              "components": [
                {
                  "internalType": "address",
                  "name": "token2sell",
                  "type": "address"
                },
                {
                  "internalType": "uint256",
                  "name": "amountLeft",
                  "type": "uint256"
                },
                {
                  "internalType": "address",
                  "name": "token2buy",
                  "type": "address"
                },
                {
                  "internalType": "uint256",
                  "name": "token2buyAmount",
                  "type": "uint256"
                },
                {
                  "internalType": "address",
                  "name": "beneficiary",
                  "type": "address"
                },
                {
                  "internalType": "uint256",
                  "name": "creationTimestamp",
                  "type": "uint256"
                },
                {
                  "internalType": "enum DiscountType",
                  "name": "discountType",
                  "type": "uint8"
                },
                {
                  "internalType": "address",
                  "name": "caller",
                  "type": "address"
                }
              ],
              "internalType": "struct Order",
              "name": "order",
              "type": "tuple"
            },
            {
              "internalType": "uint256",
              "name": "orderId",
              "type": "uint256"
            }
          ],
          "internalType": "struct OrderWithId[]",
          "name": "",
          "type": "tuple[]"
        }
      ],
      "stateMutability": "view",
      "type": "function"
    },
    {
      "inputs": [
        {
          "internalType": "uint256",
          "name": "orderId",
          "type": "uint256"
        },
        {
          "internalType": "uint256",
          "name": "inAmount",
          "type": "uint256"
        }
      ],
      "name": "getExpectedOrderOutcome",
      "outputs": [
        {
          "internalType": "uint256",
          "name": "outAmount",
          "type": "uint256"
        }
      ],
      "stateMutability": "view",
      "type": "function"
    },
    {
      "inputs": [
        {
          "internalType": "uint256",
          "name": "orderId",
          "type": "uint256"
        }
      ],
      "name": "getOrder",
      "outputs": [
        {
          "components": [
            {
              "internalType": "address",
              "name": "token2sell",
              "type": "address"
            },
            {
              "internalType": "uint256",
              "name": "amountLeft",
              "type": "uint256"
            },
            {
              "internalType": "address",
              "name": "token2buy",
              "type": "address"
            },
            {
              "internalType": "uint256",
              "name": "token2buyAmount",
              "type": "uint256"
            },
            {
              "internalType": "address",
              "name": "beneficiary",
              "type": "address"
            },
            {
              "internalType": "uint256",
              "name": "creationTimestamp",
              "type": "uint256"
            },
            {
              "internalType": "enum DiscountType",
              "name": "discountType",
              "type": "uint8"
            },
            {
              "internalType": "address",
              "name": "caller",
              "type": "address"
            }
          ],
          "internalType": "struct Order",
          "name": "",
          "type": "tuple"
        }
      ],
      "stateMutability": "view",
      "type": "function"
    },
    {
      "inputs": [],
      "name": "getOrdersCount",
      "outputs": [
        {
          "internalType": "uint256",
          "name": "",
          "type": "uint256"
        }
      ],
      "stateMutability": "view",
      "type": "function"
    },
    {
      "inputs": [
        {
          "internalType": "address",
          "name": "_authControl",
          "type": "address"
        },
        {
          "internalType": "address",
          "name": "_oracleAddress",
          "type": "address"
        },
        {
          "internalType": "address",
          "name": "_topStakersAddress",
          "type": "address"
        }
      ],
      "name": "initialize",
      "outputs": [],
      "stateMutability": "nonpayable",
      "type": "function"
    },
    {
      "inputs": [
        {
          "internalType": "uint256",
          "name": "",
          "type": "uint256"
        }
      ],
      "name": "orders",
      "outputs": [
        {
          "internalType": "address",
          "name": "token2sell",
          "type": "address"
        },
        {
          "internalType": "uint256",
          "name": "amountLeft",
          "type": "uint256"
        },
        {
          "internalType": "address",
          "name": "token2buy",
          "type": "address"
        },
        {
          "internalType": "uint256",
          "name": "token2buyAmount",
          "type": "uint256"
        },
        {
          "internalType": "address",
          "name": "beneficiary",
          "type": "address"
        },
        {
          "internalType": "uint256",
          "name": "creationTimestamp",
          "type": "uint256"
        },
        {
          "internalType": "enum DiscountType",
          "name": "discountType",
          "type": "uint8"
        },
        {
          "internalType": "address",
          "name": "caller",
          "type": "address"
        }
      ],
      "stateMutability": "view",
      "type": "function"
    },
    {
      "inputs": [
        {
          "internalType": "enum DiscountType",
          "name": "",
          "type": "uint8"
        },
        {
          "internalType": "uint256",
          "name": "",
          "type": "uint256"
        }
      ],
      "name": "priceCurve",
      "outputs": [
        {
          "internalType": "uint256",
          "name": "",
          "type": "uint256"
        }
      ],
      "stateMutability": "view",
      "type": "function"
    },
    {
      "inputs": [
        {
          "internalType": "enum DiscountType",
          "name": "discountType",
          "type": "uint8"
        },
        {
          "internalType": "uint256[2]",
          "name": "newPriceCurve",
          "type": "uint256[2]"
        }
      ],
      "name": "setPriceCurve",
      "outputs": [],
      "stateMutability": "nonpayable",
      "type": "function"
    },
    {
      "inputs": [
        {
          "internalType": "bytes4",
          "name": "interfaceId",
          "type": "bytes4"
        }
      ],
      "name": "supportsInterface",
      "outputs": [
        {
          "internalType": "bool",
          "name": "",
          "type": "bool"
        }
      ],
      "stateMutability": "pure",
      "type": "function"
    }
  ],
  "numDeployments": 1,
  "solcInputHash": "1120135cd63872ffb86d1e75143eb50c",
  "bytecode": "0x6080806040523461001657611a57908161001c8239f35b600080fdfe608080604052600436101561001357600080fd5b600090813560e01c90816301ffc9a7146113805750806303eaa21a146112a757806303ee9f221461127c57806314c376dc1461124157806338013f0214611218578063438280dd146111dd578063514fcac7146110f457806371d0fb41146110b957806375071d2a1461107e57806375b238fc146110625780637bea0d1c14610ed65780638e5313e014610e9b578063a85c38ef14610e0d578063b5b3b05114610def578063ba07fc5914610dc6578063c0c53b8b14610a6f578063d09ef24114610a2c578063d7c8ae89146109e7578063dc97e84e146109ac578063dd7dc9a91461098e578063e2ed06de14610533578063e9c265181461050a578063ef3391bc146102345763f6243a041461012957600080fd5b346102315760403660031901126102315760043581526020906001825261015260408220611632565b61016060a0820151426116ce565b815160c08301516001600160a01b03939290918416600383101561021d579161018a9187936118b9565b926040816006541693015116602460405180948193631735856760e31b835260048301525afa92831561021157926101db575b50906101ce6101d39260243561150d565b611899565b604051908152f35b91508282813d831161020a575b6101f281836114cf565b81010312610205579051906101ce6101bd565b600080fd5b503d6101e8565b604051903d90823e3d90fd5b634e487b7160e01b86526021600452602486fd5b80fd5b50346102315760c03660031901126102315761024e61143d565b9060249081359061025d611453565b6001600160a01b039490939060643586811690819003610506576084359460038610156105025760a4358881168091036104fe57803b156104fe5785604051809263ef693bed60e01b82528183816102b988306004840161154e565b03925af180156104f3576104c5575b5060405197602098898101904382523360601b604082015260018060601b0319808760601b1660548301528460688301528a60601b166088820152607c815260a0810181811060018060401b038211176104b0576040525190209788875260018a52600560408820015461048b575b88875260018a526005604088200154610473579288959492826006958c9460405196610362886114b3565b16865284860192835281604087019116815260608601908a825260808701948552600160a088019642885261039b60c08a019e8f611576565b60e089019b338d528d52528260408c209751169360018060a01b03199485895416178855516001880155826002880191511684825416179055516003860155600485019251169082541617905551600582015501935192600384101561046257505082549051610100600160a81b0360089190911b1660ff929092166001600160a81b031990911617179055610430816115b3565b507f12a866cc569301d2ff9fcbbae3decc9e0cf3fa94ddef08dd0de3e9a693fb8d1982604051838152a1604051908152f35b634e487b7160e01b81526021600452fd5b604051634b92340560e01b8152600481018a90528690fd5b976001810180911161049d5797610337565b634e487b7160e01b875260116004528587fd5b87634e487b7160e01b60005260416004526000fd5b9094906001600160401b0381116104e05760405293386102c8565b634e487b7160e01b825260416004528482fd5b6040513d88823e3d90fd5b8580fd5b8480fd5b8380fd5b50346102315780600319360112610231576020604051600080516020611a028339815191528152f35b50346102315760603660031901126102315760443590602435906001600160401b0383116102315736602384011215610231578260040135610574816114f2565b9361058260405195866114cf565b818552366024838301011161098a578183926024602093018388013785010152819260043582526001602052604082209360058501548015610971576105c890426116ce565b90600186015480951161096a575b6105f360018060a01b038754169260ff60068901541690846118b9565b6006546002880154604051631735856760e31b81526001600160a01b0391821660048201529160209183916024918391165afa9081156104f35783908792610934575b5061064861065f926101ce858461150d565b9760038a016106588a8254611569565b90556116ce565b8060018901558015159182610912575b5050610900576106809133906117c5565b60028401546040516370a0823160e01b8082523060048301529290916001600160a01b031690602083602481855afa9283156108f55785936108c1575b5060405191633517a9e160e11b835260048301528560248301523360448301526080606483015281815191826084830152865b8381106108a957505060a48183888360209684010152601f8019910116810103018187335af190811561085d57849161087a575b50156108685760028501546040519283523060048401526001600160a01b031691602081602481865afa90811561085d5785908592610827575b506107699192611569565b116108155760209361078a84600193848060a01b03600485015416906117c5565b01546107e45760406107a591600435815260018552206116a4565b6107b06004356116db565b507fcdf98e0235c72ad7ae8de32249da25cc98298c8f11710c55a3d58e9e7ac69f94826040516004358152a1604051908152f35b507fc238a2d1c485b17bfd980b5e6d0483704cd4720118eb06215758d49f85ea8963826040516004358152a16101d3565b60405163395c945760e11b8152600490fd5b9150506020813d602011610855575b81610843602093836114cf565b8101031261050657518461076961075e565b3d9150610836565b6040513d86823e3d90fd5b60405163c286d75960e01b8152600490fd5b61089c915060203d6020116108a2575b61089481836114cf565b810190611536565b38610724565b503d61088a565b602082820181015160a48784010152859350016106f0565b9092506020813d6020116108ed575b816108dd602093836114cf565b81010312610502575191386106bd565b3d91506108d0565b6040513d87823e3d90fd5b60405163117be23960e31b8152600490fd5b670de0b6b3a76400009250906109279161150d565b046005541015388061066f565b9150506020813d602011610962575b81610950602093836114cf565b810103126104fe575182610648610636565b3d9150610943565b50836105d6565b60246040516373a98b6360e11b81526004356004820152fd5b8280fd5b50346102315780600319360112610231576020600554604051908152f35b503461023157806003193601126102315760206040517f9a9aef7c1247d5fc769b0185c052913e39673da29a880317dfd20ebf86f26a498152f35b5034610231576040366003190112610231576004356003811015610a2857610a1160243591611469565b600282101561098a57602092500154604051908152f35b5080fd5b503461023157602036600319011261023157610a60604061010092610a4f611998565b506004358152600160205220611632565b610a6d60405180926113db565bf35b503461023157606036600319011261023157610a8961143d565b6001600160a01b0390602435828116919082900361050657610aa9611453565b9184549360ff8560081c161592838094610db9575b8015610da2575b15610d4657600195848760ff198316178955610d35575b50865460ff8160081c1615610cdc5762010000600160b01b031916601082901b62010000600160b01b031617875581168015159081610c75575b50610c635760405193610b2885611482565b6103848552602094878682015287805260048652604088209087895b60028110610c4d5750505050604051610b5c81611482565b6202bf208152878682015286885260048652604088209087895b60028110610c365750505050604051610b8e81611482565b62069780815287868201526002908189526004875260408920888a5b848110610c1f57505050505068056bc75e2d6310000060055560018060a01b03199283600654161760065516906007541617600755610be7578280f35b825461ff00191683556040519182527f7f26b83ff96e1f2b6a682f133852f6798a09c465da95921460cefb384740249891a138808280f35b8962ffffff85511694019381840155018990610baa565b8862ffffff84511693019281850155018890610b76565b8861ffff84511693019281850155018890610b44565b6040516384d942fd60e01b8152600490fd5b6040516301ffc9a760e01b8152637965db0b60e01b60048201529150602090829060249082905afa908115610cd1578791610cb3575b501538610b16565b610ccb915060203d81116108a25761089481836114cf565b38610cab565b6040513d89823e3d90fd5b60405162461bcd60e51b815260206004820152602b60248201527f496e697469616c697a61626c653a20636f6e7472616374206973206e6f74206960448201526a6e697469616c697a696e6760a81b6064820152608490fd5b61ffff191661010117875538610adc565b60405162461bcd60e51b815260206004820152602e60248201527f496e697469616c697a61626c653a20636f6e747261637420697320616c72656160448201526d191e481a5b9a5d1a585b1a5e995960921b6064820152608490fd5b50303b158015610ac55750600160ff871614610ac5565b50600160ff871610610abe565b50346102315780600319360112610231576007546040516001600160a01b039091168152602090f35b50346102315780600319360112610231576020600254604051908152f35b503461023157602036600319011261023157604061010091600435815260016020522060018060a01b03808254169160018101549082600282015416600382015484600484015416916006600585015494015494604051978852602088015260408701526060860152608085015260a0840152610e9060c0840160ff83166113b8565b60081c1660e0820152f35b503461023157806003193601126102315760206040517fe453bacb314e78dcd5192e6b1a2b1f0e7c76e92f6b7e429a6a90f04e39db3b768152f35b5034610231578060031936011261023157604051806002548083526020809301906002855283852090855b81811061104e5750505081610f179103826114cf565b8051610f22816119d6565b91610f3060405193846114cf565b818352601f19610f3f836119d6565b01855b81811061101f575050845b828110610fac575050506040519180830190808452825180925280604085019301945b828110610f7d5784840385f35b90919282610120600192828951610f958382516113db565b015161010082015201960191019492919094610f70565b610fb981839795976119ed565b51808552600186526040852090610fdb60405192610fd684611482565b611632565b825286820152610feb82886119ed565b52610ff681876119ed565b50600019811461100b57600101949294610f4d565b634e487b7160e01b84526011600452602484fd5b859060409795975161103081611482565b611038611998565b8152868382015282828a01015201959395610f42565b825484529285019260019283019201610f01565b5034610231578060031936011261023157602090604051908152f35b503461023157806003193601126102315760206040517f5719df9ef2c4678b547f89e4f5ae410dbf400fc51cf3ded434c55f6adea2c43f8152f35b503461023157806003193601126102315760206040517f880a91047114272656e533301261260c75e4d11543ac7303d6fe4204579ec7278152f35b503461023157602036600319011261023157600435808252600160205261111d60408320611632565b60a0810151156111c45760808101516001600160a01b0392908316331415806111b4575b6111a25781516020928301517fc41f4ceb2938876c35e61b705e9d2f18a02c4a26ce5e049a6308a943d46851b39461117b923391166117c5565b8084526001825261118e604085206116a4565b611197816116db565b50604051908152a180f35b60405163da383fb560e01b8152600490fd5b508260e083015116331415611141565b6040516373a98b6360e11b815260048101839052602490fd5b503461023157806003193601126102315760206040517f39f61ca2a1a28fee144218173ec637b649a353e4026b2738c673800e5bf1437b8152f35b50346102315780600319360112610231576006546040516001600160a01b039091168152602090f35b503461023157806003193601126102315760206040517fe965846df3dd5b1dfa65f58e31477079e90140e0908b6dd31b5aead5a57cf3658152f35b50346102315780600319360112610231575460405160109190911c6001600160a01b03168152602090f35b5034610231576060366003190112610231576004356003811015610a285736606411610a28578154604051632474521560e21b8152600080516020611a0283398151915260048201523360248201526020929183908290604490829060101c6001600160a01b03165afa90811561085d578491611363575b50156113515761132e90611469565b602490835b6002811061133f578480f35b82358282015591830191600101611333565b60405163599a6c3360e11b8152600490fd5b61137a9150833d85116108a25761089481836114cf565b3861131f565b905034610a28576020366003190112610a285760043563ffffffff60e01b811680910361098a5763b7988ab760e01b14815260209150f35b9060038210156113c55752565b634e487b7160e01b600052602160045260246000fd5b60e0908160018060a01b0391828151168552602081015160208601528260408201511660408601526060810151606086015282608082015116608086015260a081015160a086015261143560c082015160c08701906113b8565b015116910152565b600435906001600160a01b038216820361020557565b604435906001600160a01b038216820361020557565b60038110156113c5576000526004602052604060002090565b604081019081106001600160401b0382111761149d57604052565b634e487b7160e01b600052604160045260246000fd5b61010081019081106001600160401b0382111761149d57604052565b601f909101601f19168101906001600160401b0382119082101761149d57604052565b6001600160401b03811161149d57601f01601f191660200190565b8181029291811591840414171561152057565b634e487b7160e01b600052601160045260246000fd5b90816020910312610205575180151581036102055790565b6001600160a01b039091168152602081019190915260400190565b9190820180921161152057565b60038210156113c55752565b60025481101561159d57600260005260206000200190600090565b634e487b7160e01b600052603260045260246000fd5b60008181526003602052604081205461162d57600254600160401b8110156116195790826116056115ec84600160409601600255611582565b819391549060031b600019811b9283911b169119161790565b905560025492815260036020522055600190565b634e487b7160e01b82526041600452602482fd5b905090565b9060405161163f816114b3565b60e08193600660018060a01b03918281541685526001810154602086015282600282015416604086015260038101546060860152826004820154166080860152600581015460a0860152015461169b60ff821660c08601611576565b60081c16910152565b60066000918281558260018201558260028201558260038201558260048201558260058201550155565b9190820391821161152057565b60008181526003602052604081205490919080156117c057600019908082018181116117ac576002549083820191821161179857808203611764575b50505060025480156117505781019061172f82611582565b909182549160031b1b19169055600255815260036020526040812055600190565b634e487b7160e01b84526031600452602484fd5b6117826117736115ec93611582565b90549060031b1c928392611582565b9055845260036020526040842055388080611717565b634e487b7160e01b86526011600452602486fd5b634e487b7160e01b85526011600452602485fd5b505090565b60009291836117f06117fe8295604051928391602083019663a9059cbb60e01b88526024840161154e565b03601f1981018352826114cf565b51925af13d15611892573d611812816114f2565b9061182060405192836114cf565b81523d6000602083013e5b81611863575b501561183957565b60405162461bcd60e51b815260206004820152600260248201526114d560f21b6044820152606490fd5b8051801592508215611878575b505038611831565b61188b9250602080918301019101611536565b3880611870565b606061182b565b81156118a3570490565b634e487b7160e01b600052601260045260246000fd5b9160016118cf6118c883611469565b5492611469565b0154600654604051631735856760e31b81526001600160a01b0395861660048201529491939160209186916024918391165afa93841561198c57600094611959575b5081811161193c579261192e611934926101ce611939968461150d565b906116ce565b6116ce565b90565b5050508060031b908082046008149015171561152057600a900490565b90936020823d8211611984575b81611973602093836114cf565b810103126102315750519238611911565b3d9150611966565b6040513d6000823e3d90fd5b604051906119a5826114b3565b8160e06000918281528260208201528260408201528260608201528260808201528260a08201528260c08201520152565b6001600160401b03811161149d5760051b60200190565b805182101561159d5760209160051b01019056fe3b5d4cc60d3ec3516ee8ae083bd60934f6eb2a6c54b1229985c41bfb092b2603a26469706673582212200323baff56286c0defcc5f353ad959fc35876fc4d7aa5f265ce6d7a76c913a6364736f6c63430008110033",
  "devdoc": {
    "details": "See IExchange interface for full details.",
    "kind": "dev",
    "methods": {
      "addOrder(address,uint256,address,address,uint8,address)": {
        "details": "This swap is async, because depends on how arbitrage bots will fill this order. Emits OrderAdded() event. Before addOrder user needs to approve token2sell for exchange contract",
        "params": {
          "amount2sell": "- Amount of {token2sell} to sell",
          "beneficiary": "- Address that will receive {token2buy} after filling order.",
          "collateralJoin": "- address of collateral adapter*",
          "discountType": "- Speed of decreasing swap price. { 0 - aggressive, 1 - middle, 2 - conservative }",
          "token2buy": "- Address of token to buy",
          "token2sell": "- Address of token to sell"
        }
      },
      "cancelOrder(uint256)": {
        "params": {
          "orderId": "- Id of order to cancel.*"
        }
      },
      "fillOrderAsFlashLoan(uint256,uint256,bytes)": {
        "details": "Caller contract receive orders {token2sell} and after that his stableunitFillOrderCallback() is called. At the end of thi callback contract should send some amount of another token back to Exchange contract.",
        "params": {
          "data": "- encoded data to pass to callback function*",
          "inAmount": "- Amount of {token2sell} to receive",
          "orderId": "- Id of order to fill."
        }
      },
      "getExpectedOrderOutcome(uint256,uint256)": {
        "returns": {
          "outAmount": "The amount of outcome that caller will receive if he will fill {orderId} with {inAmount} of {token2sell}*"
        }
      },
      "getOrder(uint256)": {
        "returns": {
          "_0": "Order with id = {orderId}*"
        }
      },
      "getOrdersCount()": {
        "returns": {
          "_0": "The amount of not full-filled orders*"
        }
      },
      "setPriceCurve(uint8,uint256[2])": {
        "params": {
          "discountType": "- discount type to change",
          "newPriceCurve": "- parameters of formula*"
        }
      },
      "supportsInterface(bytes4)": {
        "details": "Returns true if this contract implements the interface defined by `interfaceId`. See the corresponding https://eips.ethereum.org/EIPS/eip-165#how-interfaces-are-identified[EIP section] to learn more about how these ids are created. This function call must use less than 30 000 gas."
      }
    },
    "title": "Exchange",
    "version": 1
  },
  "userdoc": {
    "kind": "user",
    "methods": {
      "DUST_THRESHOLD()": {
        "notice": "Amount of minimum amountLeft in order. It's measured in fiat. For example DUST_THRESHOLD = 100 * 1e18 => it's 100 USD*"
      },
      "addOrder(address,uint256,address,address,uint8,address)": {
        "notice": "Add order to swap {token2sell} to {token2buy}."
      },
      "cancelOrder(uint256)": {
        "notice": "Only user who place order or who is beneficiary can cancelOrder();"
      },
      "fillOrderAsFlashLoan(uint256,uint256,bytes)": {
        "notice": "Fill order with flash-loan like logic"
      },
      "getAllOrders()": {
        "notice": "This method will be deleted after we'll add GraphQL to watch orders*"
      },
      "priceCurve(uint8,uint256)": {
        "notice": "priceCurve is like price_t = price_0 * (1 - t/priceCurve[0]) - priceCurve[1] from timePassed = 0 to t priceCurve decrease linear, but after t (when discount is 20%), it's constant*"
      },
      "setPriceCurve(uint8,uint256[2])": {
        "notice": "Function to update price curve - how fast {token2sell} price will decrease/increase"
      }
    },
    "notice": "Main contract of Exchange module. Here we can add order or fill it to get profit.",
    "version": 1
  },
  "storageLayout": {
    "storage": [
      {
        "astId": 79,
        "contract": "contracts/exchange/contracts/Exchange.sol:Exchange",
        "label": "_initialized",
        "offset": 0,
        "slot": "0",
        "type": "t_uint8"
      },
      {
        "astId": 82,
        "contract": "contracts/exchange/contracts/Exchange.sol:Exchange",
        "label": "_initializing",
        "offset": 1,
        "slot": "0",
        "type": "t_bool"
      },
      {
        "astId": 3430,
        "contract": "contracts/exchange/contracts/Exchange.sol:Exchange",
        "label": "ACCESS_CONTROL_SINGLETON",
        "offset": 2,
        "slot": "0",
        "type": "t_contract(ISuAccessControl)3640"
      },
      {
        "astId": 2309,
        "contract": "contracts/exchange/contracts/Exchange.sol:Exchange",
        "label": "orders",
        "offset": 0,
        "slot": "1",
        "type": "t_mapping(t_uint256,t_struct(Order)3123_storage)"
      },
      {
        "astId": 2312,
        "contract": "contracts/exchange/contracts/Exchange.sol:Exchange",
        "label": "orderIdSet",
        "offset": 0,
        "slot": "2",
        "type": "t_struct(UintSet)1066_storage"
      },
      {
        "astId": 2320,
        "contract": "contracts/exchange/contracts/Exchange.sol:Exchange",
        "label": "priceCurve",
        "offset": 0,
        "slot": "4",
        "type": "t_mapping(t_enum(DiscountType)3105,t_array(t_uint256)2_storage)"
      },
      {
        "astId": 2323,
        "contract": "contracts/exchange/contracts/Exchange.sol:Exchange",
        "label": "DUST_THRESHOLD",
        "offset": 0,
        "slot": "5",
        "type": "t_uint256"
      },
      {
        "astId": 2326,
        "contract": "contracts/exchange/contracts/Exchange.sol:Exchange",
        "label": "ORACLE",
        "offset": 0,
        "slot": "6",
        "type": "t_contract(ISuOracle)3692"
      },
      {
        "astId": 2329,
        "contract": "contracts/exchange/contracts/Exchange.sol:Exchange",
        "label": "TOP_STAKERS",
        "offset": 0,
        "slot": "7",
        "type": "t_contract(ITopStakers)3316"
      },
      {
        "astId": 3006,
        "contract": "contracts/exchange/contracts/Exchange.sol:Exchange",
        "label": "__gap",
        "offset": 0,
        "slot": "8",
        "type": "t_array(t_uint256)45_storage"
      }
    ],
    "types": {
      "t_address": {
        "encoding": "inplace",
        "label": "address",
        "numberOfBytes": "20"
      },
      "t_array(t_bytes32)dyn_storage": {
        "base": "t_bytes32",
        "encoding": "dynamic_array",
        "label": "bytes32[]",
        "numberOfBytes": "32"
      },
      "t_array(t_uint256)2_storage": {
        "base": "t_uint256",
        "encoding": "inplace",
        "label": "uint256[2]",
        "numberOfBytes": "64"
      },
      "t_array(t_uint256)45_storage": {
        "base": "t_uint256",
        "encoding": "inplace",
        "label": "uint256[45]",
        "numberOfBytes": "1440"
      },
      "t_bool": {
        "encoding": "inplace",
        "label": "bool",
        "numberOfBytes": "1"
      },
      "t_bytes32": {
        "encoding": "inplace",
        "label": "bytes32",
        "numberOfBytes": "32"
      },
      "t_contract(ISuAccessControl)3640": {
        "encoding": "inplace",
        "label": "contract ISuAccessControl",
        "numberOfBytes": "20"
      },
      "t_contract(ISuOracle)3692": {
        "encoding": "inplace",
        "label": "contract ISuOracle",
        "numberOfBytes": "20"
      },
      "t_contract(ITopStakers)3316": {
        "encoding": "inplace",
        "label": "contract ITopStakers",
        "numberOfBytes": "20"
      },
      "t_enum(DiscountType)3105": {
        "encoding": "inplace",
        "label": "enum DiscountType",
        "numberOfBytes": "1"
      },
      "t_mapping(t_bytes32,t_uint256)": {
        "encoding": "mapping",
        "key": "t_bytes32",
        "label": "mapping(bytes32 => uint256)",
        "numberOfBytes": "32",
        "value": "t_uint256"
      },
      "t_mapping(t_enum(DiscountType)3105,t_array(t_uint256)2_storage)": {
        "encoding": "mapping",
        "key": "t_enum(DiscountType)3105",
        "label": "mapping(enum DiscountType => uint256[2])",
        "numberOfBytes": "32",
        "value": "t_array(t_uint256)2_storage"
      },
      "t_mapping(t_uint256,t_struct(Order)3123_storage)": {
        "encoding": "mapping",
        "key": "t_uint256",
        "label": "mapping(uint256 => struct Order)",
        "numberOfBytes": "32",
        "value": "t_struct(Order)3123_storage"
      },
      "t_struct(Order)3123_storage": {
        "encoding": "inplace",
        "label": "struct Order",
        "members": [
          {
            "astId": 3107,
            "contract": "contracts/exchange/contracts/Exchange.sol:Exchange",
            "label": "token2sell",
            "offset": 0,
            "slot": "0",
            "type": "t_address"
          },
          {
            "astId": 3109,
            "contract": "contracts/exchange/contracts/Exchange.sol:Exchange",
            "label": "amountLeft",
            "offset": 0,
            "slot": "1",
            "type": "t_uint256"
          },
          {
            "astId": 3111,
            "contract": "contracts/exchange/contracts/Exchange.sol:Exchange",
            "label": "token2buy",
            "offset": 0,
            "slot": "2",
            "type": "t_address"
          },
          {
            "astId": 3113,
            "contract": "contracts/exchange/contracts/Exchange.sol:Exchange",
            "label": "token2buyAmount",
            "offset": 0,
            "slot": "3",
            "type": "t_uint256"
          },
          {
            "astId": 3115,
            "contract": "contracts/exchange/contracts/Exchange.sol:Exchange",
            "label": "beneficiary",
            "offset": 0,
            "slot": "4",
            "type": "t_address"
          },
          {
            "astId": 3117,
            "contract": "contracts/exchange/contracts/Exchange.sol:Exchange",
            "label": "creationTimestamp",
            "offset": 0,
            "slot": "5",
            "type": "t_uint256"
          },
          {
            "astId": 3120,
            "contract": "contracts/exchange/contracts/Exchange.sol:Exchange",
            "label": "discountType",
            "offset": 0,
            "slot": "6",
            "type": "t_enum(DiscountType)3105"
          },
          {
            "astId": 3122,
            "contract": "contracts/exchange/contracts/Exchange.sol:Exchange",
            "label": "caller",
            "offset": 1,
            "slot": "6",
            "type": "t_address"
          }
        ],
        "numberOfBytes": "224"
      },
      "t_struct(Set)594_storage": {
        "encoding": "inplace",
        "label": "struct EnumerableSetUpgradeable.Set",
        "members": [
          {
            "astId": 589,
            "contract": "contracts/exchange/contracts/Exchange.sol:Exchange",
            "label": "_values",
            "offset": 0,
            "slot": "0",
            "type": "t_array(t_bytes32)dyn_storage"
          },
          {
            "astId": 593,
            "contract": "contracts/exchange/contracts/Exchange.sol:Exchange",
            "label": "_indexes",
            "offset": 0,
            "slot": "1",
            "type": "t_mapping(t_bytes32,t_uint256)"
          }
        ],
        "numberOfBytes": "64"
      },
      "t_struct(UintSet)1066_storage": {
        "encoding": "inplace",
        "label": "struct EnumerableSetUpgradeable.UintSet",
        "members": [
          {
            "astId": 1065,
            "contract": "contracts/exchange/contracts/Exchange.sol:Exchange",
            "label": "_inner",
            "offset": 0,
            "slot": "0",
            "type": "t_struct(Set)594_storage"
          }
        ],
        "numberOfBytes": "64"
      },
      "t_uint256": {
        "encoding": "inplace",
        "label": "uint256",
        "numberOfBytes": "32"
      },
      "t_uint8": {
        "encoding": "inplace",
        "label": "uint8",
        "numberOfBytes": "1"
      }
    }
  }
}