{
  "address": "0xf0FF38c297A5Ff94ffA447bCE456d092Af4CCd6a",
  "abi": [
    {
      "inputs": [],
      "name": "BadAccessControlSingleton",
      "type": "error"
    },
    {
      "inputs": [],
      "name": "CallbackError",
      "type": "error"
    },
    {
      "inputs": [
        {
          "internalType": "address",
          "name": "orderToken2buy",
          "type": "address"
        },
        {
          "internalType": "address",
          "name": "inToken",
          "type": "address"
        }
      ],
      "name": "IncorrectToken",
      "type": "error"
    },
    {
      "inputs": [
        {
          "internalType": "address",
          "name": "staker",
          "type": "address"
        }
      ],
      "name": "IsNotTopStaker",
      "type": "error"
    },
    {
      "inputs": [],
      "name": "NotEnoughReturnValue",
      "type": "error"
    },
    {
      "inputs": [],
      "name": "OnlyAdminError",
      "type": "error"
    },
    {
      "inputs": [],
      "name": "OnlyAlerterError",
      "type": "error"
    },
    {
      "inputs": [],
      "name": "OnlyDAOError",
      "type": "error"
    },
    {
      "inputs": [],
      "name": "OnlyDisablerAccessError",
      "type": "error"
    },
    {
      "inputs": [],
      "name": "OnlyLiquidationAccessError",
      "type": "error"
    },
    {
      "inputs": [],
      "name": "OnlyMintAccessError",
      "type": "error"
    },
    {
      "inputs": [],
      "name": "OnlyRewardAccessError",
      "type": "error"
    },
    {
      "inputs": [],
      "name": "OnlyRoleError",
      "type": "error"
    },
    {
      "inputs": [],
      "name": "OnlyVaultAccessError",
      "type": "error"
    },
    {
      "inputs": [
        {
          "internalType": "uint256",
          "name": "orderId",
          "type": "uint256"
        }
      ],
      "name": "OrderExist",
      "type": "error"
    },
    {
      "inputs": [
        {
          "internalType": "uint256",
          "name": "orderId",
          "type": "uint256"
        }
      ],
      "name": "OrderNotExist",
      "type": "error"
    },
    {
      "inputs": [
        {
          "internalType": "uint256",
          "name": "orderId",
          "type": "uint256"
        },
        {
          "internalType": "address",
          "name": "staker",
          "type": "address"
        }
      ],
      "name": "OrderNotForThisStaker",
      "type": "error"
    },
    {
      "inputs": [],
      "name": "SmallAmountLeft",
      "type": "error"
    },
    {
      "inputs": [],
      "name": "UserIsNotBeneficiary",
      "type": "error"
    },
    {
      "anonymous": false,
      "inputs": [
        {
          "indexed": false,
          "internalType": "uint8",
          "name": "version",
          "type": "uint8"
        }
      ],
      "name": "Initialized",
      "type": "event"
    },
    {
      "anonymous": false,
      "inputs": [
        {
          "indexed": false,
          "internalType": "address",
          "name": "LPToken",
          "type": "address"
        },
        {
          "indexed": false,
          "internalType": "uint256[]",
          "name": "orderIds",
          "type": "uint256[]"
        }
      ],
      "name": "LpOrdersAdded",
      "type": "event"
    },
    {
      "anonymous": false,
      "inputs": [
        {
          "indexed": false,
          "internalType": "uint256",
          "name": "orderId",
          "type": "uint256"
        }
      ],
      "name": "OrderAdded",
      "type": "event"
    },
    {
      "anonymous": false,
      "inputs": [
        {
          "indexed": false,
          "internalType": "uint256",
          "name": "orderId",
          "type": "uint256"
        }
      ],
      "name": "OrderCanceled",
      "type": "event"
    },
    {
      "anonymous": false,
      "inputs": [
        {
          "indexed": false,
          "internalType": "uint256",
          "name": "orderId",
          "type": "uint256"
        }
      ],
      "name": "OrderFilled",
      "type": "event"
    },
    {
      "anonymous": false,
      "inputs": [
        {
          "indexed": false,
          "internalType": "uint256",
          "name": "orderId",
          "type": "uint256"
        }
      ],
      "name": "OrderFilledPartially",
      "type": "event"
    },
    {
      "inputs": [],
      "name": "ACCESS_CONTROL_SINGLETON",
      "outputs": [
        {
          "internalType": "contract ISuAccessControl",
          "name": "",
          "type": "address"
        }
      ],
      "stateMutability": "view",
      "type": "function"
    },
    {
      "inputs": [],
      "name": "ADMIN_ROLE",
      "outputs": [
        {
          "internalType": "bytes32",
          "name": "",
          "type": "bytes32"
        }
      ],
      "stateMutability": "view",
      "type": "function"
    },
    {
      "inputs": [],
      "name": "ALERTER_ROLE",
      "outputs": [
        {
          "internalType": "bytes32",
          "name": "",
          "type": "bytes32"
        }
      ],
      "stateMutability": "view",
      "type": "function"
    },
    {
      "inputs": [],
      "name": "CDP_ACCESS_ROLE",
      "outputs": [
        {
          "internalType": "bytes32",
          "name": "",
          "type": "bytes32"
        }
      ],
      "stateMutability": "view",
      "type": "function"
    },
    {
      "inputs": [],
      "name": "DAO_ROLE",
      "outputs": [
        {
          "internalType": "bytes32",
          "name": "",
          "type": "bytes32"
        }
      ],
      "stateMutability": "view",
      "type": "function"
    },
    {
      "inputs": [],
      "name": "DISABLER_ROLE",
      "outputs": [
        {
          "internalType": "bytes32",
          "name": "",
          "type": "bytes32"
        }
      ],
      "stateMutability": "view",
      "type": "function"
    },
    {
      "inputs": [],
      "name": "DUST_THRESHOLD",
      "outputs": [
        {
          "internalType": "uint256",
          "name": "",
          "type": "uint256"
        }
      ],
      "stateMutability": "view",
      "type": "function"
    },
    {
      "inputs": [],
      "name": "LIQUIDATION_ACCESS_ROLE",
      "outputs": [
        {
          "internalType": "bytes32",
          "name": "",
          "type": "bytes32"
        }
      ],
      "stateMutability": "view",
      "type": "function"
    },
    {
      "inputs": [],
      "name": "MINT_ACCESS_ROLE",
      "outputs": [
        {
          "internalType": "bytes32",
          "name": "",
          "type": "bytes32"
        }
      ],
      "stateMutability": "view",
      "type": "function"
    },
    {
      "inputs": [],
      "name": "ORACLE",
      "outputs": [
        {
          "internalType": "contract ISuOracle",
          "name": "",
          "type": "address"
        }
      ],
      "stateMutability": "view",
      "type": "function"
    },
    {
      "inputs": [],
      "name": "REWARD_ACCESS_ROLE",
      "outputs": [
        {
          "internalType": "bytes32",
          "name": "",
          "type": "bytes32"
        }
      ],
      "stateMutability": "view",
      "type": "function"
    },
    {
      "inputs": [],
      "name": "SYSTEM_ROLE",
      "outputs": [
        {
          "internalType": "bytes32",
          "name": "",
          "type": "bytes32"
        }
      ],
      "stateMutability": "view",
      "type": "function"
    },
    {
      "inputs": [],
      "name": "TOP_STAKERS",
      "outputs": [
        {
          "internalType": "contract ITopStakers",
          "name": "",
          "type": "address"
        }
      ],
      "stateMutability": "view",
      "type": "function"
    },
    {
      "inputs": [
        {
          "internalType": "address",
          "name": "token2sell",
          "type": "address"
        },
        {
          "internalType": "uint256",
          "name": "amount2sell",
          "type": "uint256"
        },
        {
          "internalType": "address",
          "name": "token2buy",
          "type": "address"
        },
        {
          "internalType": "address",
          "name": "beneficiary",
          "type": "address"
        },
        {
          "internalType": "enum DiscountType",
          "name": "discountType",
          "type": "uint8"
        },
        {
          "internalType": "address",
          "name": "collateralJoin",
          "type": "address"
        }
      ],
      "name": "addOrder",
      "outputs": [
        {
          "internalType": "uint256",
          "name": "orderId",
          "type": "uint256"
        }
      ],
      "stateMutability": "nonpayable",
      "type": "function"
    },
    {
      "inputs": [
        {
          "internalType": "uint256",
          "name": "orderId",
          "type": "uint256"
        }
      ],
      "name": "cancelOrder",
      "outputs": [],
      "stateMutability": "nonpayable",
      "type": "function"
    },
    {
      "inputs": [
        {
          "internalType": "uint256",
          "name": "orderId",
          "type": "uint256"
        },
        {
          "internalType": "uint256",
          "name": "inAmount",
          "type": "uint256"
        },
        {
          "internalType": "bytes",
          "name": "data",
          "type": "bytes"
        }
      ],
      "name": "fillOrderAsFlashLoan",
      "outputs": [
        {
          "internalType": "uint256",
          "name": "outAmount",
          "type": "uint256"
        }
      ],
      "stateMutability": "nonpayable",
      "type": "function"
    },
    {
      "inputs": [],
      "name": "getAllOrders",
      "outputs": [
        {
          "components": [
            {
              "components": [
                {
                  "internalType": "address",
                  "name": "token2sell",
                  "type": "address"
                },
                {
                  "internalType": "uint256",
                  "name": "amountLeft",
                  "type": "uint256"
                },
                {
                  "internalType": "address",
                  "name": "token2buy",
                  "type": "address"
                },
                {
                  "internalType": "uint256",
                  "name": "token2buyAmount",
                  "type": "uint256"
                },
                {
                  "internalType": "address",
                  "name": "beneficiary",
                  "type": "address"
                },
                {
                  "internalType": "uint256",
                  "name": "creationTimestamp",
                  "type": "uint256"
                },
                {
                  "internalType": "enum DiscountType",
                  "name": "discountType",
                  "type": "uint8"
                },
                {
                  "internalType": "address",
                  "name": "caller",
                  "type": "address"
                }
              ],
              "internalType": "struct Order",
              "name": "order",
              "type": "tuple"
            },
            {
              "internalType": "uint256",
              "name": "orderId",
              "type": "uint256"
            }
          ],
          "internalType": "struct OrderWithId[]",
          "name": "",
          "type": "tuple[]"
        }
      ],
      "stateMutability": "view",
      "type": "function"
    },
    {
      "inputs": [
        {
          "internalType": "uint256",
          "name": "orderId",
          "type": "uint256"
        },
        {
          "internalType": "uint256",
          "name": "inAmount",
          "type": "uint256"
        }
      ],
      "name": "getExpectedOrderOutcome",
      "outputs": [
        {
          "internalType": "uint256",
          "name": "outAmount",
          "type": "uint256"
        }
      ],
      "stateMutability": "view",
      "type": "function"
    },
    {
      "inputs": [
        {
          "internalType": "uint256",
          "name": "orderId",
          "type": "uint256"
        }
      ],
      "name": "getOrder",
      "outputs": [
        {
          "components": [
            {
              "internalType": "address",
              "name": "token2sell",
              "type": "address"
            },
            {
              "internalType": "uint256",
              "name": "amountLeft",
              "type": "uint256"
            },
            {
              "internalType": "address",
              "name": "token2buy",
              "type": "address"
            },
            {
              "internalType": "uint256",
              "name": "token2buyAmount",
              "type": "uint256"
            },
            {
              "internalType": "address",
              "name": "beneficiary",
              "type": "address"
            },
            {
              "internalType": "uint256",
              "name": "creationTimestamp",
              "type": "uint256"
            },
            {
              "internalType": "enum DiscountType",
              "name": "discountType",
              "type": "uint8"
            },
            {
              "internalType": "address",
              "name": "caller",
              "type": "address"
            }
          ],
          "internalType": "struct Order",
          "name": "",
          "type": "tuple"
        }
      ],
      "stateMutability": "view",
      "type": "function"
    },
    {
      "inputs": [],
      "name": "getOrdersCount",
      "outputs": [
        {
          "internalType": "uint256",
          "name": "",
          "type": "uint256"
        }
      ],
      "stateMutability": "view",
      "type": "function"
    },
    {
      "inputs": [
        {
          "internalType": "address",
          "name": "_authControl",
          "type": "address"
        },
        {
          "internalType": "address",
          "name": "_oracleAddress",
          "type": "address"
        },
        {
          "internalType": "address",
          "name": "_topStakersAddress",
          "type": "address"
        }
      ],
      "name": "initialize",
      "outputs": [],
      "stateMutability": "nonpayable",
      "type": "function"
    },
    {
      "inputs": [
        {
          "internalType": "uint256",
          "name": "",
          "type": "uint256"
        }
      ],
      "name": "orders",
      "outputs": [
        {
          "internalType": "address",
          "name": "token2sell",
          "type": "address"
        },
        {
          "internalType": "uint256",
          "name": "amountLeft",
          "type": "uint256"
        },
        {
          "internalType": "address",
          "name": "token2buy",
          "type": "address"
        },
        {
          "internalType": "uint256",
          "name": "token2buyAmount",
          "type": "uint256"
        },
        {
          "internalType": "address",
          "name": "beneficiary",
          "type": "address"
        },
        {
          "internalType": "uint256",
          "name": "creationTimestamp",
          "type": "uint256"
        },
        {
          "internalType": "enum DiscountType",
          "name": "discountType",
          "type": "uint8"
        },
        {
          "internalType": "address",
          "name": "caller",
          "type": "address"
        }
      ],
      "stateMutability": "view",
      "type": "function"
    },
    {
      "inputs": [
        {
          "internalType": "enum DiscountType",
          "name": "",
          "type": "uint8"
        },
        {
          "internalType": "uint256",
          "name": "",
          "type": "uint256"
        }
      ],
      "name": "priceCurve",
      "outputs": [
        {
          "internalType": "uint256",
          "name": "",
          "type": "uint256"
        }
      ],
      "stateMutability": "view",
      "type": "function"
    },
    {
      "inputs": [
        {
          "internalType": "enum DiscountType",
          "name": "discountType",
          "type": "uint8"
        },
        {
          "internalType": "uint256[2]",
          "name": "newPriceCurve",
          "type": "uint256[2]"
        }
      ],
      "name": "setPriceCurve",
      "outputs": [],
      "stateMutability": "nonpayable",
      "type": "function"
    },
    {
      "inputs": [
        {
          "internalType": "bytes4",
          "name": "interfaceId",
          "type": "bytes4"
        }
      ],
      "name": "supportsInterface",
      "outputs": [
        {
          "internalType": "bool",
          "name": "",
          "type": "bool"
        }
      ],
      "stateMutability": "pure",
      "type": "function"
    }
  ],
  "numDeployments": 2,
  "solcInputHash": "c51927dd277f1318ab9de6db4c2443ac",
  "bytecode": "0x6080806040523461001657611b4d908161001c8239f35b600080fdfe608080604052600436101561001357600080fd5b600090813560e01c90816301ffc9a7146114535750806303eaa21a1461137a57806303ee9f221461134f57806338013f0214611326578063438280dd146112eb578063514fcac71461120257806371d0fb41146111c757806375071d2a1461118c57806375b238fc146111705780637bea0d1c14610fe45780638e5313e014610fa9578063a85c38ef14610f1b578063b5b3b05114610efd578063ba07fc5914610ed4578063bd5f5be614610e99578063c0c53b8b14610b42578063d09ef24114610aff578063d2351cee14610ac4578063d7c8ae8914610a7f578063dc97e84e14610a44578063dd7dc9a914610a26578063e2ed06de146105cb578063e9c26518146105a2578063ef3391bc1461023f5763f6243a041461013457600080fd5b3461023c57604036600319011261023c5760043581526020906001825261015d60408220611750565b61016b60a0820151426117ec565b815160c08301516001600160a01b03939290918416600383101561022857916101959187936119af565b926040816006541693015116602460405180948193631735856760e31b835260048301525afa92831561021c57926101e6575b50906101d96101de926024356115fb565b61198f565b604051908152f35b91508282813d8311610215575b6101fd81836115bd565b81010312610210579051906101d96101c8565b600080fd5b503d6101f3565b604051903d90823e3d90fd5b634e487b7160e01b86526021600452602486fd5b80fd5b503461023c5760c036600319011261023c57610259611510565b90602490813590610268611526565b6001600160a01b03949093906064358681169081900361059e5760843594600386101561059a5760a43588811680910361059657806105205750848060405160208101906323b872dd60e01b82523388820152306044820152846064820152606481526102d4816115a2565b519082875af16102e2611720565b816104f1575b50156104c7575b60405197602098898101904382523360601b604082015260018060601b0319808760601b1660548301528460688301528a60601b166088820152607c8152610336816115a2565b5190209788875260018a5260056040882001546104a2575b88875260018a52600560408820015461048a579288959492826006958c946040519661037988611586565b16865284860192835281604087019116815260608601908a825260808701948552600160a08801964288526103b260c08a019e8f611664565b60e089019b338d528d52528260408c209751169360018060a01b03199485895416178855516001880155826002880191511684825416179055516003860155600485019251169082541617905551600582015501935192600384101561047957505082549051610100600160a81b0360089190911b1660ff929092166001600160a81b031990911617179055610447816116a1565b507f12a866cc569301d2ff9fcbbae3decc9e0cf3fa94ddef08dd0de3e9a693fb8d1982604051838152a1604051908152f35b634e487b7160e01b81526021600452fd5b604051634b92340560e01b8152600481018a90528690fd5b97600181018091116104b4579761034e565b634e487b7160e01b875260116004528587fd5b60405162461bcd60e51b8152602060048201526003818601526229aa2360e91b6044820152606490fd5b8051801592508215610506575b5050386102e8565b6105199250602080918301019101611624565b38806104fe565b803b156105965785604051809263ef693bed60e01b825281838161054888306004840161163c565b03925af1801561058b5761055d575b506102ef565b9094906001600160401b038111610578576040529338610557565b634e487b7160e01b825260416004528482fd5b6040513d88823e3d90fd5b8580fd5b8480fd5b8380fd5b503461023c578060031936011261023c576020604051600080516020611af88339815191528152f35b503461023c57606036600319011261023c5760443590602435906001600160401b03831161023c573660238401121561023c57826004013561060c816115e0565b9361061a60405195866115bd565b8185523660248383010111610a22578183926024602093018388013785010152819260043582526001602052604082209360058501548015610a095761066090426117ec565b906001860154809511610a02575b61068b60018060a01b038754169260ff60068901541690846119af565b6006546002880154604051631735856760e31b81526001600160a01b0391821660048201529160209183916024918391165afa90811561058b57839087926109cc575b506106e06106f7926101d985846115fb565b9760038a016106f08a8254611657565b90556117ec565b80600189015580151591826109aa575b5050610998576107189133906118e3565b60028401546040516370a0823160e01b8082523060048301529290916001600160a01b031690602083602481855afa92831561098d578593610959575b5060405191633517a9e160e11b835260048301528560248301523360448301526080606483015281815191826084830152865b83811061094157505060a48183888360209684010152601f8019910116810103018187335af19081156108f5578491610912575b50156109005760028501546040519283523060048401526001600160a01b031691602081602481865afa9081156108f557859085926108bf575b506108019192611657565b116108ad5760209361082284600193848060a01b03600485015416906118e3565b015461087c57604061083d91600435815260018552206117c2565b6108486004356117f9565b507fcdf98e0235c72ad7ae8de32249da25cc98298c8f11710c55a3d58e9e7ac69f94826040516004358152a1604051908152f35b507fc238a2d1c485b17bfd980b5e6d0483704cd4720118eb06215758d49f85ea8963826040516004358152a16101de565b60405163395c945760e11b8152600490fd5b9150506020813d6020116108ed575b816108db602093836115bd565b8101031261059e5751846108016107f6565b3d91506108ce565b6040513d86823e3d90fd5b60405163c286d75960e01b8152600490fd5b610934915060203d60201161093a575b61092c81836115bd565b810190611624565b386107bc565b503d610922565b602082820181015160a4878401015285935001610788565b9092506020813d602011610985575b81610975602093836115bd565b8101031261059a57519138610755565b3d9150610968565b6040513d87823e3d90fd5b60405163117be23960e31b8152600490fd5b670de0b6b3a76400009250906109bf916115fb565b0460055410153880610707565b9150506020813d6020116109fa575b816109e8602093836115bd565b810103126105965751826106e06106ce565b3d91506109db565b508361066e565b60246040516373a98b6360e11b81526004356004820152fd5b8280fd5b503461023c578060031936011261023c576020600554604051908152f35b503461023c578060031936011261023c5760206040517f9a9aef7c1247d5fc769b0185c052913e39673da29a880317dfd20ebf86f26a498152f35b503461023c57604036600319011261023c576004356003811015610ac057610aa96024359161153c565b6002821015610a2257602092500154604051908152f35b5080fd5b503461023c578060031936011261023c5760206040517fb0fdd1623e42dbffda4acd8bd643e1cb69f00f0e83abeaa8150ee42cf0fd105e8152f35b503461023c57602036600319011261023c57610b33604061010092610b22611a8e565b506004358152600160205220611750565b610b4060405180926114ae565bf35b503461023c57606036600319011261023c57610b5c611510565b6001600160a01b0390602435828116919082900361059e57610b7c611526565b9184549360ff8560081c161592838094610e8c575b8015610e75575b15610e1957600195848760ff198316178955610e08575b50865460ff8160081c1615610daf5762010000600160b01b031916601082901b62010000600160b01b031617875581168015159081610d48575b50610d365760405193610bfb85611555565b6103848552602094878682015287805260048652604088209087895b60028110610d205750505050604051610c2f81611555565b6202bf208152878682015286885260048652604088209087895b60028110610d095750505050604051610c6181611555565b62069780815287868201526002908189526004875260408920888a5b848110610cf257505050505068056bc75e2d6310000060055560018060a01b03199283600654161760065516906007541617600755610cba578280f35b825461ff00191683556040519182527f7f26b83ff96e1f2b6a682f133852f6798a09c465da95921460cefb384740249891a138808280f35b8962ffffff85511694019381840155018990610c7d565b8862ffffff84511693019281850155018890610c49565b8861ffff84511693019281850155018890610c17565b6040516384d942fd60e01b8152600490fd5b6040516301ffc9a760e01b8152637965db0b60e01b60048201529150602090829060249082905afa908115610da4578791610d86575b501538610be9565b610d9e915060203d811161093a5761092c81836115bd565b38610d7e565b6040513d89823e3d90fd5b60405162461bcd60e51b815260206004820152602b60248201527f496e697469616c697a61626c653a20636f6e7472616374206973206e6f74206960448201526a6e697469616c697a696e6760a81b6064820152608490fd5b61ffff191661010117875538610baf565b60405162461bcd60e51b815260206004820152602e60248201527f496e697469616c697a61626c653a20636f6e747261637420697320616c72656160448201526d191e481a5b9a5d1a585b1a5e995960921b6064820152608490fd5b50303b158015610b985750600160ff871614610b98565b50600160ff871610610b91565b503461023c578060031936011261023c5760206040517f4f14c8366fa999817edc9f29824eb88a00cc31225e2156f399da4bc91049eb108152f35b503461023c578060031936011261023c576007546040516001600160a01b039091168152602090f35b503461023c578060031936011261023c576020600254604051908152f35b503461023c57602036600319011261023c57604061010091600435815260016020522060018060a01b03808254169160018101549082600282015416600382015484600484015416916006600585015494015494604051978852602088015260408701526060860152608085015260a0840152610f9e60c0840160ff831661148b565b60081c1660e0820152f35b503461023c578060031936011261023c5760206040517fe453bacb314e78dcd5192e6b1a2b1f0e7c76e92f6b7e429a6a90f04e39db3b768152f35b503461023c578060031936011261023c57604051806002548083526020809301906002855283852090855b81811061115c57505050816110259103826115bd565b805161103081611acc565b9161103e60405193846115bd565b818352601f1961104d83611acc565b01855b81811061112d575050845b8281106110ba575050506040519180830190808452825180925280604085019301945b82811061108b5784840385f35b909192826101206001928289516110a38382516114ae565b01516101008201520196019101949291909461107e565b6110c78183979597611ae3565b518085526001865260408520906110e9604051926110e484611555565b611750565b8252868201526110f98288611ae3565b526111048187611ae3565b5060001981146111195760010194929461105b565b634e487b7160e01b84526011600452602484fd5b859060409795975161113e81611555565b611146611a8e565b8152868382015282828a01015201959395611050565b82548452928501926001928301920161100f565b503461023c578060031936011261023c57602090604051908152f35b503461023c578060031936011261023c5760206040517f5719df9ef2c4678b547f89e4f5ae410dbf400fc51cf3ded434c55f6adea2c43f8152f35b503461023c578060031936011261023c5760206040517f880a91047114272656e533301261260c75e4d11543ac7303d6fe4204579ec7278152f35b503461023c57602036600319011261023c57600435808252600160205261122b60408320611750565b60a0810151156112d25760808101516001600160a01b0392908316331415806112c2575b6112b05781516020928301517fc41f4ceb2938876c35e61b705e9d2f18a02c4a26ce5e049a6308a943d46851b394611289923391166118e3565b8084526001825261129c604085206117c2565b6112a5816117f9565b50604051908152a180f35b60405163da383fb560e01b8152600490fd5b508260e08301511633141561124f565b6040516373a98b6360e11b815260048101839052602490fd5b503461023c578060031936011261023c5760206040517f39f61ca2a1a28fee144218173ec637b649a353e4026b2738c673800e5bf1437b8152f35b503461023c578060031936011261023c576006546040516001600160a01b039091168152602090f35b503461023c578060031936011261023c575460405160109190911c6001600160a01b03168152602090f35b503461023c57606036600319011261023c576004356003811015610ac05736606411610ac0578154604051632474521560e21b8152600080516020611af883398151915260048201523360248201526020929183908290604490829060101c6001600160a01b03165afa9081156108f5578491611436575b5015611424576114019061153c565b602490835b60028110611412578480f35b82358282015591830191600101611406565b60405163599a6c3360e11b8152600490fd5b61144d9150833d851161093a5761092c81836115bd565b386113f2565b905034610ac0576020366003190112610ac05760043563ffffffff60e01b8116809103610a225763b7988ab760e01b14815260209150f35b9060038210156114985752565b634e487b7160e01b600052602160045260246000fd5b60e0908160018060a01b0391828151168552602081015160208601528260408201511660408601526060810151606086015282608082015116608086015260a081015160a086015261150860c082015160c087019061148b565b015116910152565b600435906001600160a01b038216820361021057565b604435906001600160a01b038216820361021057565b6003811015611498576000526004602052604060002090565b604081019081106001600160401b0382111761157057604052565b634e487b7160e01b600052604160045260246000fd5b61010081019081106001600160401b0382111761157057604052565b60a081019081106001600160401b0382111761157057604052565b601f909101601f19168101906001600160401b0382119082101761157057604052565b6001600160401b03811161157057601f01601f191660200190565b8181029291811591840414171561160e57565b634e487b7160e01b600052601160045260246000fd5b90816020910312610210575180151581036102105790565b6001600160a01b039091168152602081019190915260400190565b9190820180921161160e57565b60038210156114985752565b60025481101561168b57600260005260206000200190600090565b634e487b7160e01b600052603260045260246000fd5b60008181526003602052604081205461171b57600254600160401b8110156117075790826116f36116da84600160409601600255611670565b819391549060031b600019811b9283911b169119161790565b905560025492815260036020522055600190565b634e487b7160e01b82526041600452602482fd5b905090565b3d1561174b573d90611731826115e0565b9161173f60405193846115bd565b82523d6000602084013e565b606090565b9060405161175d81611586565b60e08193600660018060a01b03918281541685526001810154602086015282600282015416604086015260038101546060860152826004820154166080860152600581015460a086015201546117b960ff821660c08601611664565b60081c16910152565b60066000918281558260018201558260028201558260038201558260048201558260058201550155565b9190820391821161160e57565b60008181526003602052604081205490919080156118de57600019908082018181116118ca57600254908382019182116118b657808203611882575b505050600254801561186e5781019061184d82611670565b909182549160031b1b19169055600255815260036020526040812055600190565b634e487b7160e01b84526031600452602484fd5b6118a06118916116da93611670565b90549060031b1c928392611670565b9055845260036020526040842055388080611835565b634e487b7160e01b86526011600452602486fd5b634e487b7160e01b85526011600452602485fd5b505090565b600092918361190e61191c8295604051928391602083019663a9059cbb60e01b88526024840161163c565b03601f1981018352826115bd565b51925af1611928611720565b81611960575b501561193657565b60405162461bcd60e51b815260206004820152600260248201526114d560f21b6044820152606490fd5b8051801592508215611975575b50503861192e565b6119889250602080918301019101611624565b388061196d565b8115611999570490565b634e487b7160e01b600052601260045260246000fd5b9160016119c56119be8361153c565b549261153c565b0154600654604051631735856760e31b81526001600160a01b0395861660048201529491939160209186916024918391165afa938415611a8257600094611a4f575b50818111611a325792611a24611a2a926101d9611a2f96846115fb565b906117ec565b6117ec565b90565b5050508060031b908082046008149015171561160e57600a900490565b90936020823d8211611a7a575b81611a69602093836115bd565b8101031261023c5750519238611a07565b3d9150611a5c565b6040513d6000823e3d90fd5b60405190611a9b82611586565b8160e06000918281528260208201528260408201528260608201528260808201528260a08201528260c08201520152565b6001600160401b0381116115705760051b60200190565b805182101561168b5760209160051b01019056fe3b5d4cc60d3ec3516ee8ae083bd60934f6eb2a6c54b1229985c41bfb092b2603a26469706673582212207c4e27e3873c286cf59f0b7a6cfce6ac33b5f65b6a47a2081f26656ae3a28c2464736f6c63430008110033",
  "devdoc": {
    "details": "See IExchange interface for full details.",
    "kind": "dev",
    "methods": {
      "addOrder(address,uint256,address,address,uint8,address)": {
        "details": "This swap is async, because depends on how arbitrage bots will fill this order. Emits OrderAdded() event. Before addOrder user needs to approve token2sell for exchange contract",
        "params": {
          "amount2sell": "- Amount of {token2sell} to sell",
          "beneficiary": "- Address that will receive {token2buy} after filling order.",
          "collateralJoin": "- address of collateral adapter*",
          "discountType": "- Speed of decreasing swap price. { 0 - aggressive, 1 - middle, 2 - conservative }",
          "token2buy": "- Address of token to buy",
          "token2sell": "- Address of token to sell"
        }
      },
      "cancelOrder(uint256)": {
        "params": {
          "orderId": "- Id of order to cancel.*"
        }
      },
      "fillOrderAsFlashLoan(uint256,uint256,bytes)": {
        "details": "Caller contract receive orders {token2sell} and after that his stableunitFillOrderCallback() is called. At the end of thi callback contract should send some amount of another token back to Exchange contract.",
        "params": {
          "data": "- encoded data to pass to callback function*",
          "inAmount": "- Amount of {token2sell} to receive",
          "orderId": "- Id of order to fill."
        }
      },
      "getExpectedOrderOutcome(uint256,uint256)": {
        "returns": {
          "outAmount": "The amount of outcome that caller will receive if he will fill {orderId} with {inAmount} of {token2sell}*"
        }
      },
      "getOrder(uint256)": {
        "returns": {
          "_0": "Order with id = {orderId}*"
        }
      },
      "getOrdersCount()": {
        "returns": {
          "_0": "The amount of not full-filled orders*"
        }
      },
      "setPriceCurve(uint8,uint256[2])": {
        "params": {
          "discountType": "- discount type to change",
          "newPriceCurve": "- parameters of formula*"
        }
      },
      "supportsInterface(bytes4)": {
        "details": "Returns true if this contract implements the interface defined by `interfaceId`. See the corresponding https://eips.ethereum.org/EIPS/eip-165#how-interfaces-are-identified[EIP section] to learn more about how these ids are created. This function call must use less than 30 000 gas."
      }
    },
    "title": "Exchange",
    "version": 1
  },
  "userdoc": {
    "kind": "user",
    "methods": {
      "DUST_THRESHOLD()": {
        "notice": "Amount of minimum amountLeft in order. It's measured in fiat. For example DUST_THRESHOLD = 100 * 1e18 => it's 100 USD*"
      },
      "addOrder(address,uint256,address,address,uint8,address)": {
        "notice": "Add order to swap {token2sell} to {token2buy}."
      },
      "cancelOrder(uint256)": {
        "notice": "Only user who place order or who is beneficiary can cancelOrder();"
      },
      "fillOrderAsFlashLoan(uint256,uint256,bytes)": {
        "notice": "Fill order with flash-loan like logic"
      },
      "getAllOrders()": {
        "notice": "This method will be deleted after we'll add GraphQL to watch orders*"
      },
      "priceCurve(uint8,uint256)": {
        "notice": "priceCurve is like price_t = price_0 * (1 - t/priceCurve[0]) - priceCurve[1] from timePassed = 0 to t priceCurve decrease linear, but after t (when discount is 20%), it's constant*"
      },
      "setPriceCurve(uint8,uint256[2])": {
        "notice": "Function to update price curve - how fast {token2sell} price will decrease/increase"
      }
    },
    "notice": "Main contract of Exchange module. Here we can add order or fill it to get profit.",
    "version": 1
  },
  "storageLayout": {
    "storage": [
      {
        "astId": 79,
        "contract": "contracts/exchange/contracts/Exchange.sol:Exchange",
        "label": "_initialized",
        "offset": 0,
        "slot": "0",
        "type": "t_uint8"
      },
      {
        "astId": 82,
        "contract": "contracts/exchange/contracts/Exchange.sol:Exchange",
        "label": "_initializing",
        "offset": 1,
        "slot": "0",
        "type": "t_bool"
      },
      {
        "astId": 9970,
        "contract": "contracts/exchange/contracts/Exchange.sol:Exchange",
        "label": "ACCESS_CONTROL_SINGLETON",
        "offset": 2,
        "slot": "0",
        "type": "t_contract(ISuAccessControl)10394"
      },
      {
        "astId": 2201,
        "contract": "contracts/exchange/contracts/Exchange.sol:Exchange",
        "label": "orders",
        "offset": 0,
        "slot": "1",
        "type": "t_mapping(t_uint256,t_struct(Order)2945_storage)"
      },
      {
        "astId": 2204,
        "contract": "contracts/exchange/contracts/Exchange.sol:Exchange",
        "label": "orderIdSet",
        "offset": 0,
        "slot": "2",
        "type": "t_struct(UintSet)1144_storage"
      },
      {
        "astId": 2212,
        "contract": "contracts/exchange/contracts/Exchange.sol:Exchange",
        "label": "priceCurve",
        "offset": 0,
        "slot": "4",
        "type": "t_mapping(t_enum(DiscountType)2927,t_array(t_uint256)2_storage)"
      },
      {
        "astId": 2215,
        "contract": "contracts/exchange/contracts/Exchange.sol:Exchange",
        "label": "DUST_THRESHOLD",
        "offset": 0,
        "slot": "5",
        "type": "t_uint256"
      },
      {
        "astId": 2218,
        "contract": "contracts/exchange/contracts/Exchange.sol:Exchange",
        "label": "ORACLE",
        "offset": 0,
        "slot": "6",
        "type": "t_contract(ISuOracle)10405"
      },
      {
        "astId": 2221,
        "contract": "contracts/exchange/contracts/Exchange.sol:Exchange",
        "label": "TOP_STAKERS",
        "offset": 0,
        "slot": "7",
        "type": "t_contract(ITopStakers)3138"
      },
      {
        "astId": 2920,
        "contract": "contracts/exchange/contracts/Exchange.sol:Exchange",
        "label": "__gap",
        "offset": 0,
        "slot": "8",
        "type": "t_array(t_uint256)45_storage"
      }
    ],
    "types": {
      "t_address": {
        "encoding": "inplace",
        "label": "address",
        "numberOfBytes": "20"
      },
      "t_array(t_bytes32)dyn_storage": {
        "base": "t_bytes32",
        "encoding": "dynamic_array",
        "label": "bytes32[]",
        "numberOfBytes": "32"
      },
      "t_array(t_uint256)2_storage": {
        "base": "t_uint256",
        "encoding": "inplace",
        "label": "uint256[2]",
        "numberOfBytes": "64"
      },
      "t_array(t_uint256)45_storage": {
        "base": "t_uint256",
        "encoding": "inplace",
        "label": "uint256[45]",
        "numberOfBytes": "1440"
      },
      "t_bool": {
        "encoding": "inplace",
        "label": "bool",
        "numberOfBytes": "1"
      },
      "t_bytes32": {
        "encoding": "inplace",
        "label": "bytes32",
        "numberOfBytes": "32"
      },
      "t_contract(ISuAccessControl)10394": {
        "encoding": "inplace",
        "label": "contract ISuAccessControl",
        "numberOfBytes": "20"
      },
      "t_contract(ISuOracle)10405": {
        "encoding": "inplace",
        "label": "contract ISuOracle",
        "numberOfBytes": "20"
      },
      "t_contract(ITopStakers)3138": {
        "encoding": "inplace",
        "label": "contract ITopStakers",
        "numberOfBytes": "20"
      },
      "t_enum(DiscountType)2927": {
        "encoding": "inplace",
        "label": "enum DiscountType",
        "numberOfBytes": "1"
      },
      "t_mapping(t_bytes32,t_uint256)": {
        "encoding": "mapping",
        "key": "t_bytes32",
        "label": "mapping(bytes32 => uint256)",
        "numberOfBytes": "32",
        "value": "t_uint256"
      },
      "t_mapping(t_enum(DiscountType)2927,t_array(t_uint256)2_storage)": {
        "encoding": "mapping",
        "key": "t_enum(DiscountType)2927",
        "label": "mapping(enum DiscountType => uint256[2])",
        "numberOfBytes": "32",
        "value": "t_array(t_uint256)2_storage"
      },
      "t_mapping(t_uint256,t_struct(Order)2945_storage)": {
        "encoding": "mapping",
        "key": "t_uint256",
        "label": "mapping(uint256 => struct Order)",
        "numberOfBytes": "32",
        "value": "t_struct(Order)2945_storage"
      },
      "t_struct(Order)2945_storage": {
        "encoding": "inplace",
        "label": "struct Order",
        "members": [
          {
            "astId": 2929,
            "contract": "contracts/exchange/contracts/Exchange.sol:Exchange",
            "label": "token2sell",
            "offset": 0,
            "slot": "0",
            "type": "t_address"
          },
          {
            "astId": 2931,
            "contract": "contracts/exchange/contracts/Exchange.sol:Exchange",
            "label": "amountLeft",
            "offset": 0,
            "slot": "1",
            "type": "t_uint256"
          },
          {
            "astId": 2933,
            "contract": "contracts/exchange/contracts/Exchange.sol:Exchange",
            "label": "token2buy",
            "offset": 0,
            "slot": "2",
            "type": "t_address"
          },
          {
            "astId": 2935,
            "contract": "contracts/exchange/contracts/Exchange.sol:Exchange",
            "label": "token2buyAmount",
            "offset": 0,
            "slot": "3",
            "type": "t_uint256"
          },
          {
            "astId": 2937,
            "contract": "contracts/exchange/contracts/Exchange.sol:Exchange",
            "label": "beneficiary",
            "offset": 0,
            "slot": "4",
            "type": "t_address"
          },
          {
            "astId": 2939,
            "contract": "contracts/exchange/contracts/Exchange.sol:Exchange",
            "label": "creationTimestamp",
            "offset": 0,
            "slot": "5",
            "type": "t_uint256"
          },
          {
            "astId": 2942,
            "contract": "contracts/exchange/contracts/Exchange.sol:Exchange",
            "label": "discountType",
            "offset": 0,
            "slot": "6",
            "type": "t_enum(DiscountType)2927"
          },
          {
            "astId": 2944,
            "contract": "contracts/exchange/contracts/Exchange.sol:Exchange",
            "label": "caller",
            "offset": 1,
            "slot": "6",
            "type": "t_address"
          }
        ],
        "numberOfBytes": "224"
      },
      "t_struct(Set)672_storage": {
        "encoding": "inplace",
        "label": "struct EnumerableSetUpgradeable.Set",
        "members": [
          {
            "astId": 667,
            "contract": "contracts/exchange/contracts/Exchange.sol:Exchange",
            "label": "_values",
            "offset": 0,
            "slot": "0",
            "type": "t_array(t_bytes32)dyn_storage"
          },
          {
            "astId": 671,
            "contract": "contracts/exchange/contracts/Exchange.sol:Exchange",
            "label": "_indexes",
            "offset": 0,
            "slot": "1",
            "type": "t_mapping(t_bytes32,t_uint256)"
          }
        ],
        "numberOfBytes": "64"
      },
      "t_struct(UintSet)1144_storage": {
        "encoding": "inplace",
        "label": "struct EnumerableSetUpgradeable.UintSet",
        "members": [
          {
            "astId": 1143,
            "contract": "contracts/exchange/contracts/Exchange.sol:Exchange",
            "label": "_inner",
            "offset": 0,
            "slot": "0",
            "type": "t_struct(Set)672_storage"
          }
        ],
        "numberOfBytes": "64"
      },
      "t_uint256": {
        "encoding": "inplace",
        "label": "uint256",
        "numberOfBytes": "32"
      },
      "t_uint8": {
        "encoding": "inplace",
        "label": "uint8",
        "numberOfBytes": "1"
      }
    }
  }
}