{
  "address": "0x6ec03F4a873c0EA8C08EE839a727C3510A01fe61",
  "abi": [
    {
      "inputs": [
        {
          "internalType": "address",
          "name": "accessControl",
          "type": "address"
        },
        {
          "internalType": "address",
          "name": "safeEngine_",
          "type": "address"
        }
      ],
      "stateMutability": "nonpayable",
      "type": "constructor"
    },
    {
      "inputs": [],
      "name": "BadAccessControlSingleton",
      "type": "error"
    },
    {
      "inputs": [],
      "name": "OnlyAdminError",
      "type": "error"
    },
    {
      "inputs": [],
      "name": "OnlyAlerterError",
      "type": "error"
    },
    {
      "inputs": [],
      "name": "OnlyCDPAccessError",
      "type": "error"
    },
    {
      "inputs": [],
      "name": "OnlyDAOError",
      "type": "error"
    },
    {
      "inputs": [],
      "name": "OnlyDisablerAccessError",
      "type": "error"
    },
    {
      "inputs": [],
      "name": "OnlyLiquidationAccessError",
      "type": "error"
    },
    {
      "inputs": [],
      "name": "OnlyMintAccessError",
      "type": "error"
    },
    {
      "inputs": [],
      "name": "OnlyRewardAccessError",
      "type": "error"
    },
    {
      "inputs": [],
      "name": "OnlyRoleError",
      "type": "error"
    },
    {
      "anonymous": false,
      "inputs": [
        {
          "indexed": true,
          "internalType": "address",
          "name": "usr",
          "type": "address"
        }
      ],
      "name": "AddAuthorization",
      "type": "event"
    },
    {
      "anonymous": false,
      "inputs": [],
      "name": "DisableContract",
      "type": "event"
    },
    {
      "anonymous": false,
      "inputs": [
        {
          "indexed": true,
          "internalType": "bytes32",
          "name": "collateralType",
          "type": "bytes32"
        },
        {
          "indexed": true,
          "internalType": "address",
          "name": "cdp",
          "type": "address"
        },
        {
          "indexed": false,
          "internalType": "uint256",
          "name": "lockedCollateral",
          "type": "uint256"
        },
        {
          "indexed": false,
          "internalType": "uint256",
          "name": "generatedDebt",
          "type": "uint256"
        },
        {
          "indexed": false,
          "internalType": "uint256",
          "name": "due",
          "type": "uint256"
        },
        {
          "indexed": false,
          "internalType": "address",
          "name": "liquidator",
          "type": "address"
        },
        {
          "indexed": true,
          "internalType": "uint256",
          "name": "id",
          "type": "uint256"
        }
      ],
      "name": "LiquidateCDP",
      "type": "event"
    },
    {
      "anonymous": false,
      "inputs": [
        {
          "indexed": true,
          "internalType": "bytes32",
          "name": "what",
          "type": "bytes32"
        },
        {
          "indexed": false,
          "internalType": "uint256",
          "name": "data",
          "type": "uint256"
        }
      ],
      "name": "ModifyParameters",
      "type": "event"
    },
    {
      "anonymous": false,
      "inputs": [
        {
          "indexed": true,
          "internalType": "bytes32",
          "name": "what",
          "type": "bytes32"
        },
        {
          "indexed": false,
          "internalType": "address",
          "name": "data",
          "type": "address"
        }
      ],
      "name": "ModifyParameters",
      "type": "event"
    },
    {
      "anonymous": false,
      "inputs": [
        {
          "indexed": true,
          "internalType": "bytes32",
          "name": "collateralType",
          "type": "bytes32"
        },
        {
          "indexed": true,
          "internalType": "bytes32",
          "name": "what",
          "type": "bytes32"
        },
        {
          "indexed": false,
          "internalType": "uint256",
          "name": "data",
          "type": "uint256"
        }
      ],
      "name": "ModifyParameters",
      "type": "event"
    },
    {
      "anonymous": false,
      "inputs": [
        {
          "indexed": true,
          "internalType": "bytes32",
          "name": "collateralType",
          "type": "bytes32"
        },
        {
          "indexed": true,
          "internalType": "bytes32",
          "name": "what",
          "type": "bytes32"
        },
        {
          "indexed": false,
          "internalType": "address",
          "name": "liquidator",
          "type": "address"
        }
      ],
      "name": "ModifyParameters",
      "type": "event"
    },
    {
      "anonymous": false,
      "inputs": [
        {
          "indexed": true,
          "internalType": "bytes32",
          "name": "collateralType",
          "type": "bytes32"
        },
        {
          "indexed": false,
          "internalType": "uint256",
          "name": "rad",
          "type": "uint256"
        }
      ],
      "name": "ReduceActiveLiquidationAmount",
      "type": "event"
    },
    {
      "anonymous": false,
      "inputs": [
        {
          "indexed": true,
          "internalType": "address",
          "name": "usr",
          "type": "address"
        }
      ],
      "name": "RemoveAuthorization",
      "type": "event"
    },
    {
      "inputs": [],
      "name": "ACCESS_CONTROL_SINGLETON",
      "outputs": [
        {
          "internalType": "contract ISuAccessControl",
          "name": "",
          "type": "address"
        }
      ],
      "stateMutability": "view",
      "type": "function"
    },
    {
      "inputs": [],
      "name": "ADMIN_ROLE",
      "outputs": [
        {
          "internalType": "bytes32",
          "name": "",
          "type": "bytes32"
        }
      ],
      "stateMutability": "view",
      "type": "function"
    },
    {
      "inputs": [],
      "name": "ALERTER_ROLE",
      "outputs": [
        {
          "internalType": "bytes32",
          "name": "",
          "type": "bytes32"
        }
      ],
      "stateMutability": "view",
      "type": "function"
    },
    {
      "inputs": [],
      "name": "ActiveLiquidationAmount",
      "outputs": [
        {
          "internalType": "uint256",
          "name": "",
          "type": "uint256"
        }
      ],
      "stateMutability": "view",
      "type": "function"
    },
    {
      "inputs": [],
      "name": "CDP_ACCESS_ROLE",
      "outputs": [
        {
          "internalType": "bytes32",
          "name": "",
          "type": "bytes32"
        }
      ],
      "stateMutability": "view",
      "type": "function"
    },
    {
      "inputs": [],
      "name": "DAO_ROLE",
      "outputs": [
        {
          "internalType": "bytes32",
          "name": "",
          "type": "bytes32"
        }
      ],
      "stateMutability": "view",
      "type": "function"
    },
    {
      "inputs": [],
      "name": "DISABLER_ROLE",
      "outputs": [
        {
          "internalType": "bytes32",
          "name": "",
          "type": "bytes32"
        }
      ],
      "stateMutability": "view",
      "type": "function"
    },
    {
      "inputs": [],
      "name": "GlobalLiquidationLimit",
      "outputs": [
        {
          "internalType": "uint256",
          "name": "",
          "type": "uint256"
        }
      ],
      "stateMutability": "view",
      "type": "function"
    },
    {
      "inputs": [],
      "name": "LIQUIDATION_ACCESS_ROLE",
      "outputs": [
        {
          "internalType": "bytes32",
          "name": "",
          "type": "bytes32"
        }
      ],
      "stateMutability": "view",
      "type": "function"
    },
    {
      "inputs": [],
      "name": "LiquidatorReward",
      "outputs": [
        {
          "internalType": "uint256",
          "name": "",
          "type": "uint256"
        }
      ],
      "stateMutability": "view",
      "type": "function"
    },
    {
      "inputs": [],
      "name": "MINT_ACCESS_ROLE",
      "outputs": [
        {
          "internalType": "bytes32",
          "name": "",
          "type": "bytes32"
        }
      ],
      "stateMutability": "view",
      "type": "function"
    },
    {
      "inputs": [],
      "name": "REWARD_ACCESS_ROLE",
      "outputs": [
        {
          "internalType": "bytes32",
          "name": "",
          "type": "bytes32"
        }
      ],
      "stateMutability": "view",
      "type": "function"
    },
    {
      "inputs": [],
      "name": "SYSTEM_ROLE",
      "outputs": [
        {
          "internalType": "bytes32",
          "name": "",
          "type": "bytes32"
        }
      ],
      "stateMutability": "view",
      "type": "function"
    },
    {
      "inputs": [],
      "name": "accountingEngine",
      "outputs": [
        {
          "internalType": "contract AccountingEngineLike",
          "name": "",
          "type": "address"
        }
      ],
      "stateMutability": "view",
      "type": "function"
    },
    {
      "inputs": [
        {
          "internalType": "address",
          "name": "_stablecoin",
          "type": "address"
        }
      ],
      "name": "addWhitelistStablecoin",
      "outputs": [],
      "stateMutability": "nonpayable",
      "type": "function"
    },
    {
      "inputs": [
        {
          "internalType": "bytes32",
          "name": "",
          "type": "bytes32"
        }
      ],
      "name": "collateralTypes",
      "outputs": [
        {
          "internalType": "uint256",
          "name": "liquidationPenalty",
          "type": "uint256"
        },
        {
          "internalType": "uint256",
          "name": "liquidationLimit",
          "type": "uint256"
        },
        {
          "internalType": "uint256",
          "name": "activeLiquidationAmount",
          "type": "uint256"
        }
      ],
      "stateMutability": "view",
      "type": "function"
    },
    {
      "inputs": [],
      "name": "contractEnabled",
      "outputs": [
        {
          "internalType": "uint256",
          "name": "",
          "type": "uint256"
        }
      ],
      "stateMutability": "view",
      "type": "function"
    },
    {
      "inputs": [],
      "name": "disableContract",
      "outputs": [],
      "stateMutability": "nonpayable",
      "type": "function"
    },
    {
      "inputs": [
        {
          "internalType": "address",
          "name": "_stablecoin",
          "type": "address"
        }
      ],
      "name": "hasWhitelistStablecoin",
      "outputs": [
        {
          "internalType": "bool",
          "name": "",
          "type": "bool"
        }
      ],
      "stateMutability": "view",
      "type": "function"
    },
    {
      "inputs": [
        {
          "internalType": "bytes32",
          "name": "collateralType",
          "type": "bytes32"
        },
        {
          "internalType": "address",
          "name": "cdp",
          "type": "address"
        },
        {
          "internalType": "address",
          "name": "incentivesReceiver",
          "type": "address"
        },
        {
          "internalType": "address",
          "name": "collateralJoin",
          "type": "address"
        }
      ],
      "name": "liquidateCDP",
      "outputs": [
        {
          "internalType": "uint256",
          "name": "id",
          "type": "uint256"
        }
      ],
      "stateMutability": "nonpayable",
      "type": "function"
    },
    {
      "inputs": [
        {
          "internalType": "bytes32",
          "name": "collateralType",
          "type": "bytes32"
        }
      ],
      "name": "liquidationPenalty",
      "outputs": [
        {
          "internalType": "uint256",
          "name": "",
          "type": "uint256"
        }
      ],
      "stateMutability": "view",
      "type": "function"
    },
    {
      "inputs": [],
      "name": "liquidator",
      "outputs": [
        {
          "internalType": "address",
          "name": "",
          "type": "address"
        }
      ],
      "stateMutability": "view",
      "type": "function"
    },
    {
      "inputs": [
        {
          "internalType": "bytes32",
          "name": "what",
          "type": "bytes32"
        },
        {
          "internalType": "address",
          "name": "data",
          "type": "address"
        }
      ],
      "name": "modifyParameters",
      "outputs": [],
      "stateMutability": "nonpayable",
      "type": "function"
    },
    {
      "inputs": [
        {
          "internalType": "bytes32",
          "name": "collateralType",
          "type": "bytes32"
        },
        {
          "internalType": "bytes32",
          "name": "what",
          "type": "bytes32"
        },
        {
          "internalType": "uint256",
          "name": "data",
          "type": "uint256"
        }
      ],
      "name": "modifyParameters",
      "outputs": [],
      "stateMutability": "nonpayable",
      "type": "function"
    },
    {
      "inputs": [
        {
          "internalType": "bytes32",
          "name": "what",
          "type": "bytes32"
        },
        {
          "internalType": "uint256",
          "name": "data",
          "type": "uint256"
        }
      ],
      "name": "modifyParameters",
      "outputs": [],
      "stateMutability": "nonpayable",
      "type": "function"
    },
    {
      "inputs": [
        {
          "internalType": "bytes32",
          "name": "collateralType",
          "type": "bytes32"
        },
        {
          "internalType": "uint256",
          "name": "rad",
          "type": "uint256"
        }
      ],
      "name": "reduceActiveLiquidationAmount",
      "outputs": [],
      "stateMutability": "nonpayable",
      "type": "function"
    },
    {
      "inputs": [
        {
          "internalType": "address",
          "name": "_stablecoin",
          "type": "address"
        }
      ],
      "name": "removeWhitelistStablecoin",
      "outputs": [],
      "stateMutability": "nonpayable",
      "type": "function"
    },
    {
      "inputs": [],
      "name": "safeEngine",
      "outputs": [
        {
          "internalType": "contract ISafeEngine",
          "name": "",
          "type": "address"
        }
      ],
      "stateMutability": "view",
      "type": "function"
    },
    {
      "inputs": [
        {
          "internalType": "bytes4",
          "name": "interfaceId",
          "type": "bytes4"
        }
      ],
      "name": "supportsInterface",
      "outputs": [
        {
          "internalType": "bool",
          "name": "",
          "type": "bool"
        }
      ],
      "stateMutability": "view",
      "type": "function"
    }
  ],
  "numDeployments": 2,
  "solcInputHash": "c51927dd277f1318ab9de6db4c2443ac",
  "bytecode": "0x60a06040818152346200017657808262001bcf80380380916200002382856200017b565b83398101031262000176576200004760206200003f84620001b5565b9301620001b5565b600080546001600160a01b0319166001600160a01b03948516908117825583516301ffc9a760e01b8152637965db0b60e01b60048201529194929190602090829060249082905afa9081156200016c57859162000127575b5015620001165716608052600160075551907f599a298163e1678bb1c676052a8930bf0b8a1261ed6e01b8a2391e55f7000102339180a2611a049081620001cb823960805181818161034f015281816103f10152818161054a015281816105c80152818161061e0152818161069301526113990152f35b82516384d942fd60e01b8152600490fd5b90506020813d821162000163575b8162000144602093836200017b565b810103126200015f575180151581036200015f57386200009f565b8480fd5b3d915062000135565b84513d87823e3d90fd5b600080fd5b601f909101601f19168101906001600160401b038211908210176200019f57604052565b634e487b7160e01b600052604160045260246000fd5b51906001600160a01b0382168203620001765756fe608080604052600436101561001357600080fd5b600090813560e01c90816301ffc9a7146115e65750806303ee9f22146115bf57806318e81571146115955780634046ebae1461156c57806341b3a0d91461154e578063438280dd1461151357806351a8cd87146114f5578063556617c7146114d75780636614f010146113c857806367aea313146113835780636efb72ce1461127e57806371d0fb411461124357806375071d2a1461120857806375b238fc146111ec5780637ae8b2e114611163578063894ba833146110995780638e5313e01461105e578063961d45c414611035578063bd5f5be614610ffa578063d07900bb14610fb8578063d09a79dd14610f2b578063d2351cee14610f02578063d4b9311d14610d88578063dc97e84e14610d5f578063de51eefd14610d24578063e8d769a714610d06578063e9c2651814610ccb578063eb9ff0b4146102cf5763fe4f58901461016057600080fd5b346102cc5761016e3661169f565b8254604051632474521560e21b81526004810185905233602482015290602090829060449082906001600160a01b03165afa9081156102c1578491610293575b5015610281577511db1bd8985b131a5c5d5a59185d1a5bdb931a5b5a5d60521b82036101f55760208160008051602061192f833981519152926003555b604051908152a280f35b6f131a5c5d5a59185d1bdc94995dd85c9960821b820361022a5760208160008051602061192f833981519152926005556101eb565b60405162461bcd60e51b815260206004820152602960248201527f4c69717569646174696f6e456e67696e652f66696c652d756e7265636f676e696044820152687a65642d706172616d60b81b6064820152608490fd5b604051631886ea7d60e11b8152600490fd5b6102b4915060203d81116102ba575b6102ac81836116de565b810190611701565b386101ae565b503d6102a2565b6040513d86823e3d90fd5b80fd5b50346102cc5760803660031901126102cc576102e961166e565b90604435906001600160a01b03821682036102cc57606435916001600160a01b0383168303610cc757600160075403610c745760408051630f50894160e21b815260048035908201526001600160a01b03868116602483015290929190839060449082907f0000000000000000000000000000000000000000000000000000000000000000165afa928315610c685780928194610c2d575b50600435815260016020526040808220905192906001600160401b036060850190811190851117610c19576060840160409081528154855260018201546020860152600290910154818501525163d07900bb60e01b815260048035908201529460a0866024816001600160a01b037f0000000000000000000000000000000000000000000000000000000000000000165afa948515610c0e57839684908597610bc9575b508015159081610bad575b5015610b695760035460045480821180610b58575b15610b035761045391611719565b6104666020870151604088015190611719565b808211610afc57505b80670de0b6b3a7640000810204670de0b6b3a76400001481151715610ae85780670de0b6b3a76400008082020403610920576104b888670de0b6b3a76400006104c0930261173c565b86519061173c565b808311610ae2575081955b8787808511610a26575b505050906104e6866104eb936118f1565b61173c565b9485156109e157600160ff1b8086111590816109d6575b501561099457670de0b6b3a764000061051d600554886118f1565b04916105298388611719565b92878411610920576002546001600160a01b0316906105479061175c565b907f00000000000000000000000000000000000000000000000000000000000000006001600160a01b03163b156108c55760405192634e14a96760e01b8452600435600485015260018060a01b038c16602485015260018060a01b03166044840152606483015260848201528360a4820152838160c4818360018060a01b037f0000000000000000000000000000000000000000000000000000000000000000165af180156102c157610981575b506006546002546001600160a01b0391821691166106128461175c565b61061b8861175c565b917f00000000000000000000000000000000000000000000000000000000000000006001600160a01b03163b1561097d5760405193634e14a96760e01b8552600435600486015260018060a01b038d16602486015260448501526064840152608483015260a4820152838160c4818360018060a01b037f0000000000000000000000000000000000000000000000000000000000000000165af180156102c157908491610969575b50506106cf90856118f1565b6002549093906001600160a01b0316803b156109655783809160246040518094819363a8b30a9f60e01b83528a60048401525af180156102c15790849161094d575b5050806040670de0b6b3a764000061072d6107459451886118f1565b049161073b836004546118dd565b60045501516118dd565b600435835260016020526002604084200155600854156109375760086000527ff3f7a9fe364faab93b216da50a3214154f22a0a2b415b23a84c8169e8b636ee35460065460405163d8dfeb4560e01b81526001600160a01b03928316989092918216916020908490600490829085165afa92831561092c579085929183946108de575b50600254604051633bcce46f60e21b81526001600160a01b0395861660048201526024810196909652604486019a909a529883166064850152600160848501529790911660a48301529095602091879160c49183915af19485156108d157819561088e575b60208680878a888860018060a01b036006541691604051948552878501526040840152606083015260018060a01b0316907f3e68ae8e518de004a5c7f6407b51d7b729e26ddb6bcd135fe2f9e58df1b75b45608060043592a4604051908152f35b909591939294506020813d6020116108c9575b816108ae602093836116de565b810103126108c5575190945092909160203861082d565b8580fd5b3d91506108a1565b50604051903d90823e3d90fd5b91925092506020813d602011610924575b816108fc602093836116de565b8101031261092057516001600160a01b0381168103610920579184919060c46107c8565b8480fd5b3d91506108ef565b6040513d87823e3d90fd5b634e487b7160e01b600052603260045260246000fd5b610956906116b5565b610961578238610711565b8280fd5b8380fd5b610972906116b5565b6109615782386106c3565b8680fd5b61098d909391936116b5565b91386105f5565b60405162461bcd60e51b815260206004820152601a6024820152794c69717569646174696f6e456e67696e652f6f766572666c6f7760301b6044820152606490fd5b905086111538610502565b60405162461bcd60e51b815260206004820152601e60248201527f4c69717569646174696f6e456e67696e652f6e756c6c2d61756374696f6e00006044820152606490fd5b82610a3d83610a3884899d989d611719565b6118f1565b1015610a5c5750505050806104e66104eb9280975b92938991506104d5565b90610a6a91989493986118f1565b10610a7c576104e6866104eb93610a52565b60405162461bcd60e51b815260206004820152603860248201527f4c69717569646174696f6e456e67696e652f64757374792d61756374696f6e2d604482015277333937b696b830b93a34b0b616b634b8bab4b230ba34b7b760411b6064820152608490fd5b956104cb565b634e487b7160e01b85526011600452602485fd5b905061046f565b60405162461bcd60e51b815260206004820152602760248201527f4c69717569646174696f6e456e67696e652f6c69717569646174696f6e2d6c696044820152661b5a5d0b5a1a5d60ca1b6064820152608490fd5b506020870151604088015110610445565b60405162461bcd60e51b815260206004820152601c60248201527b4c69717569646174696f6e456e67696e652f6e6f742d756e7361666560201b6044820152606490fd5b610bb89150826118f1565b610bc288846118f1565b1138610430565b975050945060a0863d8211610c06575b81610be660a093836116de565b810103126109615760208601519460806040880151970151959638610425565b3d9150610bd9565b6040513d85823e3d90fd5b634e487b7160e01b83526041600452602483fd5b925092506040823d604011610c60575b81610c4a604093836116de565b8101031261096157602082519201519238610381565b3d9150610c3d565b604051903d90823e3d90fd5b60405162461bcd60e51b815260206004820152602560248201527f4c69717569646174696f6e456e67696e652f6e6f742d636f6e7472616374456e60448201526418589b195960da1b6064820152608490fd5b5080fd5b50346102cc57806003193601126102cc5760206040517f3b5d4cc60d3ec3516ee8ae083bd60934f6eb2a6c54b1229985c41bfb092b26038152f35b50346102cc57806003193601126102cc576020600554604051908152f35b50346102cc5760203660031901126102cc576020906040906001600160a01b03610d4c611689565b1681526009835220541515604051908152f35b50346102cc57806003193601126102cc57602060405160008051602061198f8339815191528152f35b50346102cc5760603660031901126102cc576004356024359060443560018060a01b03845416906040518092632474521560e21b825286600483015233602483015281604460209586935afa908115610ef7578691610eda575b501561028157716c69717569646174696f6e50656e616c747960701b8403610e9a57670de0b6b3a76400008110610e3c579060008051602061194f83398151915291838652600182528060408720555b604051908152a380f35b60405162461bcd60e51b815260048101839052603060248201527f4c69717569646174696f6e456e67696e652f66696c652d6c697175696461746960448201526f1bdb94195b985b1d1e4b5b1d0b55d05160821b6064820152608490fd5b906f1b1a5c5d5a59185d1a5bdb931a5b5a5d60821b840361022a5760008051602061194f8339815191529183865260018252806001604088200155610e32565b610ef19150833d85116102ba576102ac81836116de565b38610de2565b6040513d88823e3d90fd5b50346102cc57806003193601126102cc5760206040516000805160206119af8339815191528152f35b50346102cc5760203660031901126102cc57610f45611689565b8154604051632474521560e21b8152600481018490523360248201526001600160a01b03916020908290604490829086165afa9081156102c1578491610f9a575b501561028157610f969116611788565b5080f35b610fb2915060203d81116102ba576102ac81836116de565b38610f86565b50346102cc5760203660031901126102cc5760406060916004358152600160205220805490600260018201549101549060405192835260208301526040820152f35b50346102cc57806003193601126102cc5760206040517f4f14c8366fa999817edc9f29824eb88a00cc31225e2156f399da4bc91049eb108152f35b50346102cc57806003193601126102cc576002546040516001600160a01b039091168152602090f35b50346102cc57806003193601126102cc5760206040517fe453bacb314e78dcd5192e6b1a2b1f0e7c76e92f6b7e429a6a90f04e39db3b768152f35b50346102cc57806003193601126102cc578054604051632474521560e21b81526000805160206119af833981519152600482015233602482015290602090829060449082906001600160a01b03165afa90811561115857829161113a575b501561112857806007557f2d4b4ecff7bd7503135271925520a2f6c0d98c9473ffc1a1e72c92502f51b25e8180a180f35b60405163bb0684b760e01b8152600490fd5b611152915060203d81116102ba576102ac81836116de565b386110f7565b6040513d84823e3d90fd5b50346102cc5760203660031901126102cc5761117d611689565b8154604051632474521560e21b8152600481018490523360248201526001600160a01b03916020908290604490829086165afa9081156102c15784916111ce575b501561028157610f969116611807565b6111e6915060203d81116102ba576102ac81836116de565b386111be565b50346102cc57806003193601126102cc57602090604051908152f35b50346102cc57806003193601126102cc5760206040517f5719df9ef2c4678b547f89e4f5ae410dbf400fc51cf3ded434c55f6adea2c43f8152f35b50346102cc57806003193601126102cc5760206040517f880a91047114272656e533301261260c75e4d11543ac7303d6fe4204579ec7278152f35b50346102cc5761128d3661169f565b8254604051632474521560e21b815260008051602061198f83398151915260048201523360248201526020918290829060449082906001600160a01b03165afa90811561092c578591611366575b5015611354576004546112ee8382611719565b90811161092057600455828452600181526002604085200154916113128184611719565b928311610920577f78430dc03266569e2b73ec40d7107a5bc7047f2244bbca5d04294edb4a6f6ae392848652600183526002604087200155604051908152a280f35b60405163200ab6d960e01b8152600490fd5b61137d9150823d84116102ba576102ac81836116de565b386112db565b50346102cc57806003193601126102cc576040517f00000000000000000000000000000000000000000000000000000000000000006001600160a01b03168152602090f35b50346102cc5760403660031901126102cc576004356113e561166e565b8254604051632474521560e21b8152600481018590523360248201526001600160a01b03916020908290604490829086165afa90811561092c5785916114b9575b5015610281576f6163636f756e74696e67456e67696e6560801b830361147957600280546001600160a01b03191682841617905560008051602061196f833981519152916020915b60405191168152a280f35b693634b8bab4b230ba37b960b11b830361022a57600680546001600160a01b03191682841617905560008051602061196f8339815191529160209161146e565b6114d1915060203d81116102ba576102ac81836116de565b38611426565b50346102cc57806003193601126102cc576020600454604051908152f35b50346102cc57806003193601126102cc576020600354604051908152f35b50346102cc57806003193601126102cc5760206040517f39f61ca2a1a28fee144218173ec637b649a353e4026b2738c673800e5bf1437b8152f35b50346102cc57806003193601126102cc576020600754604051908152f35b50346102cc57806003193601126102cc576006546040516001600160a01b039091168152602090f35b50346102cc5760203660031901126102cc5760406020916004358152600183522054604051908152f35b50346102cc57806003193601126102cc57546040516001600160a01b039091168152602090f35b905034610cc7576020366003190112610cc75760043563ffffffff60e01b81168091036109615782546301ffc9a760e01b83526004830191909152602090829060249082906001600160a01b03165afa9081156111585760209291611651575b506040519015158152f35b6116689150823d81116102ba576102ac81836116de565b38611646565b602435906001600160a01b038216820361168457565b600080fd5b600435906001600160a01b038216820361168457565b6040906003190112611684576004359060243590565b6001600160401b0381116116c857604052565b634e487b7160e01b600052604160045260246000fd5b601f909101601f19168101906001600160401b038211908210176116c857604052565b90816020910312611684575180151581036116845790565b9190820391821161172657565b634e487b7160e01b600052601160045260246000fd5b8115611746570490565b634e487b7160e01b600052601260045260246000fd5b600160ff1b81146117265760000390565b60085481101561093757600860005260206000200190600090565b60008181526009602052604081205461180257600854600160401b8110156117ee5790826117da6117c18460016040960160085561176d565b819391549060031b600019811b9283911b169119161790565b905560085492815260096020522055600190565b634e487b7160e01b82526041600452602482fd5b905090565b60008181526009602052604081205490919080156118d85760001990808201818111610ae857600854908382019182116118c457808203611890575b505050600854801561187c5781019061185b8261176d565b909182549160031b1b19169055600855815260096020526040812055600190565b634e487b7160e01b84526031600452602484fd5b6118ae61189f6117c19361176d565b90549060031b1c92839261176d565b9055845260096020526040842055388080611843565b634e487b7160e01b86526011600452602486fd5b505090565b919082019182811161172657821061168457565b600092918015918215611908575b50501561168457565b8082029450915081158285048214171561172657611926908461173c565b1438806118ff56feac7c5c1afaef770ec56ac6268cd3f2fbb1035858ead2601d6553157c33036c3ac59b1109b54f213212d2f5af5c1dae5e887f9daa63b595578fae847cb048e8f4d91f38cf03346b5dc15fb60f9076f866295231ad3c3841a1051f8443f25170d19a9aef7c1247d5fc769b0185c052913e39673da29a880317dfd20ebf86f26a49b0fdd1623e42dbffda4acd8bd643e1cb69f00f0e83abeaa8150ee42cf0fd105ea264697066735822122043c434979b1eaedae27608cddd14b981992c1d40ce65cab5853be2c92038564564736f6c63430008110033",
  "devdoc": {
    "kind": "dev",
    "methods": {
      "liquidateCDP(bytes32,address,address,address)": {
        "details": "The entire Vault will be liquidated except when the target amount of StablePro to be raised in the resulting auction (debt of Vault + liquidation penalty) causes either ActiveLiquidationAmount to exceed GlobalLiquidationLimit or collateralType.activeLiquidationAmount to exceed collateralType.liquidationLimit by an economically significant amount. In that case, a partial liquidation is performed to respect the global and per-collateralType limits on outstanding StablePro target. The one exception is if the resulting auction would likely have too little collateral to be interesting to Keepers (debt taken from Vault < collateralType.debtFloor), in which case the function reverts. Please refer to the code and comments within if more detail is desired.",
        "params": {
          "cdp": "- address of cdp position",
          "collateralJoin": "- address of collateral adapter*",
          "collateralType": "- collateral type",
          "incentivesReceiver": "- address that will receive the liquidation reward, if any."
        }
      },
      "supportsInterface(bytes4)": {
        "details": "Returns true if this contract implements the interface defined by `interfaceId`. See the corresponding https://eips.ethereum.org/EIPS/eip-165#how-interfaces-are-identified[EIP section] to learn more about how these ids are created. This function call must use less than 30 000 gas."
      }
    },
    "version": 1
  },
  "userdoc": {
    "kind": "user",
    "methods": {
      "liquidateCDP(bytes32,address,address,address)": {
        "notice": "Liquidate a Vault and start a Dutch auction to sell its collateral for StablePro."
      }
    },
    "version": 1
  },
  "storageLayout": {
    "storage": [
      {
        "astId": 10177,
        "contract": "contracts/makerdao/externalContracts/LiquidationEngine.sol:LiquidationEngine",
        "label": "ACCESS_CONTROL_SINGLETON",
        "offset": 0,
        "slot": "0",
        "type": "t_contract(ISuAccessControl)10394"
      },
      {
        "astId": 8256,
        "contract": "contracts/makerdao/externalContracts/LiquidationEngine.sol:LiquidationEngine",
        "label": "collateralTypes",
        "offset": 0,
        "slot": "1",
        "type": "t_mapping(t_bytes32,t_struct(CollateralType)9193_storage)"
      },
      {
        "astId": 8259,
        "contract": "contracts/makerdao/externalContracts/LiquidationEngine.sol:LiquidationEngine",
        "label": "accountingEngine",
        "offset": 0,
        "slot": "2",
        "type": "t_contract(AccountingEngineLike)8242"
      },
      {
        "astId": 8261,
        "contract": "contracts/makerdao/externalContracts/LiquidationEngine.sol:LiquidationEngine",
        "label": "GlobalLiquidationLimit",
        "offset": 0,
        "slot": "3",
        "type": "t_uint256"
      },
      {
        "astId": 8263,
        "contract": "contracts/makerdao/externalContracts/LiquidationEngine.sol:LiquidationEngine",
        "label": "ActiveLiquidationAmount",
        "offset": 0,
        "slot": "4",
        "type": "t_uint256"
      },
      {
        "astId": 8265,
        "contract": "contracts/makerdao/externalContracts/LiquidationEngine.sol:LiquidationEngine",
        "label": "LiquidatorReward",
        "offset": 0,
        "slot": "5",
        "type": "t_uint256"
      },
      {
        "astId": 8267,
        "contract": "contracts/makerdao/externalContracts/LiquidationEngine.sol:LiquidationEngine",
        "label": "liquidator",
        "offset": 0,
        "slot": "6",
        "type": "t_address"
      },
      {
        "astId": 8295,
        "contract": "contracts/makerdao/externalContracts/LiquidationEngine.sol:LiquidationEngine",
        "label": "contractEnabled",
        "offset": 0,
        "slot": "7",
        "type": "t_uint256"
      },
      {
        "astId": 8805,
        "contract": "contracts/makerdao/externalContracts/LiquidationEngine.sol:LiquidationEngine",
        "label": "_stablecoinWhitelist",
        "offset": 0,
        "slot": "8",
        "type": "t_struct(AddressSet)987_storage"
      }
    ],
    "types": {
      "t_address": {
        "encoding": "inplace",
        "label": "address",
        "numberOfBytes": "20"
      },
      "t_array(t_bytes32)dyn_storage": {
        "base": "t_bytes32",
        "encoding": "dynamic_array",
        "label": "bytes32[]",
        "numberOfBytes": "32"
      },
      "t_bytes32": {
        "encoding": "inplace",
        "label": "bytes32",
        "numberOfBytes": "32"
      },
      "t_contract(AccountingEngineLike)8242": {
        "encoding": "inplace",
        "label": "contract AccountingEngineLike",
        "numberOfBytes": "20"
      },
      "t_contract(ISuAccessControl)10394": {
        "encoding": "inplace",
        "label": "contract ISuAccessControl",
        "numberOfBytes": "20"
      },
      "t_mapping(t_bytes32,t_struct(CollateralType)9193_storage)": {
        "encoding": "mapping",
        "key": "t_bytes32",
        "label": "mapping(bytes32 => struct ILiquidationEngine.CollateralType)",
        "numberOfBytes": "32",
        "value": "t_struct(CollateralType)9193_storage"
      },
      "t_mapping(t_bytes32,t_uint256)": {
        "encoding": "mapping",
        "key": "t_bytes32",
        "label": "mapping(bytes32 => uint256)",
        "numberOfBytes": "32",
        "value": "t_uint256"
      },
      "t_struct(AddressSet)987_storage": {
        "encoding": "inplace",
        "label": "struct EnumerableSetUpgradeable.AddressSet",
        "members": [
          {
            "astId": 986,
            "contract": "contracts/makerdao/externalContracts/LiquidationEngine.sol:LiquidationEngine",
            "label": "_inner",
            "offset": 0,
            "slot": "0",
            "type": "t_struct(Set)672_storage"
          }
        ],
        "numberOfBytes": "64"
      },
      "t_struct(CollateralType)9193_storage": {
        "encoding": "inplace",
        "label": "struct ILiquidationEngine.CollateralType",
        "members": [
          {
            "astId": 9188,
            "contract": "contracts/makerdao/externalContracts/LiquidationEngine.sol:LiquidationEngine",
            "label": "liquidationPenalty",
            "offset": 0,
            "slot": "0",
            "type": "t_uint256"
          },
          {
            "astId": 9190,
            "contract": "contracts/makerdao/externalContracts/LiquidationEngine.sol:LiquidationEngine",
            "label": "liquidationLimit",
            "offset": 0,
            "slot": "1",
            "type": "t_uint256"
          },
          {
            "astId": 9192,
            "contract": "contracts/makerdao/externalContracts/LiquidationEngine.sol:LiquidationEngine",
            "label": "activeLiquidationAmount",
            "offset": 0,
            "slot": "2",
            "type": "t_uint256"
          }
        ],
        "numberOfBytes": "96"
      },
      "t_struct(Set)672_storage": {
        "encoding": "inplace",
        "label": "struct EnumerableSetUpgradeable.Set",
        "members": [
          {
            "astId": 667,
            "contract": "contracts/makerdao/externalContracts/LiquidationEngine.sol:LiquidationEngine",
            "label": "_values",
            "offset": 0,
            "slot": "0",
            "type": "t_array(t_bytes32)dyn_storage"
          },
          {
            "astId": 671,
            "contract": "contracts/makerdao/externalContracts/LiquidationEngine.sol:LiquidationEngine",
            "label": "_indexes",
            "offset": 0,
            "slot": "1",
            "type": "t_mapping(t_bytes32,t_uint256)"
          }
        ],
        "numberOfBytes": "64"
      },
      "t_uint256": {
        "encoding": "inplace",
        "label": "uint256",
        "numberOfBytes": "32"
      }
    }
  }
}