{
  "address": "0x2EFB509D7639a0F1B3048cf8e4A60E4440735D5b",
  "abi": [
    {
      "inputs": [
        {
          "internalType": "address",
          "name": "factory_",
          "type": "address"
        }
      ],
      "stateMutability": "nonpayable",
      "type": "constructor"
    },
    {
      "inputs": [],
      "name": "build",
      "outputs": [
        {
          "internalType": "address payable",
          "name": "proxy",
          "type": "address"
        }
      ],
      "stateMutability": "nonpayable",
      "type": "function"
    },
    {
      "inputs": [
        {
          "internalType": "address",
          "name": "owner",
          "type": "address"
        }
      ],
      "name": "build",
      "outputs": [
        {
          "internalType": "address payable",
          "name": "proxy",
          "type": "address"
        }
      ],
      "stateMutability": "nonpayable",
      "type": "function"
    },
    {
      "inputs": [
        {
          "internalType": "address",
          "name": "",
          "type": "address"
        }
      ],
      "name": "proxies",
      "outputs": [
        {
          "internalType": "contract DSProxy",
          "name": "",
          "type": "address"
        }
      ],
      "stateMutability": "view",
      "type": "function"
    }
  ],
  "numDeployments": 1,
  "solcInputHash": "ecb8874df414cff466aa0b8e0d386ed8",
  "bytecode": "0x608060405234801561001057600080fd5b5060405161055b38038061055b8339818101604052602081101561003357600080fd5b810190808051906020019092919050505080600160006101000a81548173ffffffffffffffffffffffffffffffffffffffff021916908373ffffffffffffffffffffffffffffffffffffffff160217905550506104c6806100956000396000f3fe608060405234801561001057600080fd5b50600436106100415760003560e01c80638e1a55fc14610046578063c45527911461007a578063f3701da2146100e8575b600080fd5b61004e610156565b604051808273ffffffffffffffffffffffffffffffffffffffff16815260200191505060405180910390f35b6100bc6004803603602081101561009057600080fd5b81019080803573ffffffffffffffffffffffffffffffffffffffff169060200190929190505050610166565b604051808273ffffffffffffffffffffffffffffffffffffffff16815260200191505060405180910390f35b61012a600480360360208110156100fe57600080fd5b81019080803573ffffffffffffffffffffffffffffffffffffffff169060200190929190505050610199565b604051808273ffffffffffffffffffffffffffffffffffffffff16815260200191505060405180910390f35b600061016133610199565b905090565b60006020528060005260406000206000915054906101000a900473ffffffffffffffffffffffffffffffffffffffff1681565b60008073ffffffffffffffffffffffffffffffffffffffff166000808473ffffffffffffffffffffffffffffffffffffffff1673ffffffffffffffffffffffffffffffffffffffff16815260200190815260200160002060009054906101000a900473ffffffffffffffffffffffffffffffffffffffff1673ffffffffffffffffffffffffffffffffffffffff16148061033d57508173ffffffffffffffffffffffffffffffffffffffff166000808473ffffffffffffffffffffffffffffffffffffffff1673ffffffffffffffffffffffffffffffffffffffff16815260200190815260200160002060009054906101000a900473ffffffffffffffffffffffffffffffffffffffff1673ffffffffffffffffffffffffffffffffffffffff16638da5cb5b6040518163ffffffff1660e01b815260040160206040518083038186803b1580156102e957600080fd5b505afa1580156102fd573d6000803e3d6000fd5b505050506040513d602081101561031357600080fd5b810190808051906020019092919050505073ffffffffffffffffffffffffffffffffffffffff1614155b61034657600080fd5b600160009054906101000a900473ffffffffffffffffffffffffffffffffffffffff1673ffffffffffffffffffffffffffffffffffffffff1663f3701da2836040518263ffffffff1660e01b8152600401808273ffffffffffffffffffffffffffffffffffffffff168152602001915050602060405180830381600087803b1580156103d157600080fd5b505af11580156103e5573d6000803e3d6000fd5b505050506040513d60208110156103fb57600080fd5b81019080805190602001909291905050509050806000808473ffffffffffffffffffffffffffffffffffffffff1673ffffffffffffffffffffffffffffffffffffffff16815260200190815260200160002060006101000a81548173ffffffffffffffffffffffffffffffffffffffff021916908373ffffffffffffffffffffffffffffffffffffffff16021790555091905056fea2646970667358221220539b3e24343a54923da12be82c63904857826142f9d14848c77236470d9195ff64736f6c634300060c0033",
  "devdoc": {
    "kind": "dev",
    "methods": {},
    "version": 1
  },
  "userdoc": {
    "kind": "user",
    "methods": {},
    "version": 1
  },
  "storageLayout": {
    "storage": [
      {
        "astId": 1258,
        "contract": "contracts/makerdao/core/ProxyRegistry.sol:ProxyRegistry",
        "label": "proxies",
        "offset": 0,
        "slot": "0",
        "type": "t_mapping(t_address,t_contract(DSProxy)7741)"
      },
      {
        "astId": 1260,
        "contract": "contracts/makerdao/core/ProxyRegistry.sol:ProxyRegistry",
        "label": "factory",
        "offset": 0,
        "slot": "1",
        "type": "t_contract(DSProxyFactory)7829"
      }
    ],
    "types": {
      "t_address": {
        "encoding": "inplace",
        "label": "address",
        "numberOfBytes": "20"
      },
      "t_contract(DSProxy)7741": {
        "encoding": "inplace",
        "label": "contract DSProxy",
        "numberOfBytes": "20"
      },
      "t_contract(DSProxyFactory)7829": {
        "encoding": "inplace",
        "label": "contract DSProxyFactory",
        "numberOfBytes": "20"
      },
      "t_mapping(t_address,t_contract(DSProxy)7741)": {
        "encoding": "mapping",
        "key": "t_address",
        "label": "mapping(address => contract DSProxy)",
        "numberOfBytes": "32",
        "value": "t_contract(DSProxy)7741"
      }
    }
  }
}