{
  "address": "0xf90d84EF4E17fB044C2a5752340a3d28c3D4394F",
  "abi": [
    {
      "inputs": [
        {
          "internalType": "address",
          "name": "_exchange",
          "type": "address"
        }
      ],
      "stateMutability": "nonpayable",
      "type": "constructor"
    },
    {
      "inputs": [
        {
          "internalType": "uint256",
          "name": "orderId",
          "type": "uint256"
        },
        {
          "internalType": "address",
          "name": "token2sell",
          "type": "address"
        },
        {
          "internalType": "uint256",
          "name": "token2sellAmount",
          "type": "uint256"
        }
      ],
      "name": "fillOrderSimple",
      "outputs": [],
      "stateMutability": "nonpayable",
      "type": "function"
    },
    {
      "inputs": [
        {
          "internalType": "address",
          "name": "asset",
          "type": "address"
        },
        {
          "internalType": "uint256",
          "name": "amount",
          "type": "uint256"
        },
        {
          "internalType": "address",
          "name": "",
          "type": "address"
        },
        {
          "internalType": "bytes",
          "name": "data",
          "type": "bytes"
        }
      ],
      "name": "stableunitFillOrderCallback",
      "outputs": [
        {
          "internalType": "bool",
          "name": "",
          "type": "bool"
        }
      ],
      "stateMutability": "nonpayable",
      "type": "function"
    }
  ],
  "transactionHash": "0x93a732a2734b34898696a571f0778609e8c08b0d29c6a83923cf3f8610d6dedf",
  "args": [
    "0x062f7f23cd102F233Bc1139ee6780c6247cc6127"
  ],
  "numDeployments": 1,
  "solcInputHash": "cfa240ac8d1eab6e98320e67814f92b0",
  "bytecode": "0x60803461007457601f61050d38819003918201601f19168301916001600160401b038311848410176100795780849260209460405283398101031261007457516001600160a01b0381169081900361007457600080546001600160a01b03191691909117905560405161047d90816100908239f35b600080fd5b634e487b7160e01b600052604160045260246000fdfe608060408181526004908136101561001657600080fd5b600092833560e01c9081636a2f53c21461022d575063e72fa1731461003a57600080fd5b34610229576060366003190112610229576001600160a01b0390602435828116810361022557604435825161006e81610397565b339052825193602094338682015285815284810160018060401b039282821084831117610212578188918189528b5416637176836f60e11b82528a356044860152866064860152606060848601528b8580518060a4830152825b8181106101f5575080820160c401839052601f01601f1916810103608401918391905af180156101eb57908792916101bb575b5050508351908582019263a9059cbb60e01b84523360248401526044830152604482526080820190828210908211176101a857845251869283929083905af16101426103eb565b81610178575b5015610152578380f35b5162461bcd60e51b815291820152600260248201526114d560f21b604482015260649150fd5b80518015925084908315610190575b50505038610148565b6101a0935082018101910161042a565b388381610187565b634e487b7160e01b885260418752602488fd5b82903d84116101e3575b816101cf916103c8565b810103126101df578438806100fb565b8680fd5b3d91506101c5565b86513d8b823e3d90fd5b9182018087015160c4909101528c958795508f93508892016100c8565b634e487b7160e01b8a526041895260248afd5b8480fd5b8280fd5b82848634610394576080366003190112610394576001600160a01b039082358281168103610390576044358381160361039057606435956001600160401b0380881161038c573660238901121561038c578786013581811161022557880194602495368782011161038857899060209a8b9103126103885786906102b085610397565b0135818116938482036101df575284541690875191898301936323b872dd60e01b8552878401526044830152853560648301526064825260a08201908282109082111761037657849392918491895251925af161030b6103eb565b81610346575b50156103205750505160018152f35b60649360039293519362461bcd60e51b85528401528201526229aa2360e91b6044820152fd5b8051801592508690831561035e575b50505085610311565b61036e935082018101910161042a565b858581610355565b634e487b7160e01b8552604187528585fd5b8580fd5b8380fd5b5080fd5b80fd5b602081019081106001600160401b038211176103b257604052565b634e487b7160e01b600052604160045260246000fd5b601f909101601f19168101906001600160401b038211908210176103b257604052565b3d15610425573d906001600160401b0382116103b25760405191610419601f8201601f1916602001846103c8565b82523d6000602084013e565b606090565b90816020910312610442575180151581036104425790565b600080fdfea2646970667358221220fdcc20cf1501f87857a0be73870211d3a8de87c9a52e122a3de658d37bdb38e264736f6c63430008110033",
  "devdoc": {
    "kind": "dev",
    "methods": {},
    "version": 1
  },
  "userdoc": {
    "kind": "user",
    "methods": {},
    "version": 1
  },
  "storageLayout": {
    "storage": [
      {
        "astId": 36740,
        "contract": "contracts/mocks/SimpleFillOrder.sol:SimpleFillOrder",
        "label": "EXCHANGE",
        "offset": 0,
        "slot": "0",
        "type": "t_contract(IExchange)20555"
      }
    ],
    "types": {
      "t_contract(IExchange)20555": {
        "encoding": "inplace",
        "label": "contract IExchange",
        "numberOfBytes": "20"
      }
    }
  }
}