{
  "address": "0xC639C86FAEE398d5cC7137bBA00Ce43e5217f07B",
  "abi": [
    {
      "inputs": [
        {
          "internalType": "contract ISwapRouter",
          "name": "_swapRouter",
          "type": "address"
        }
      ],
      "stateMutability": "nonpayable",
      "type": "constructor"
    },
    {
      "inputs": [],
      "name": "DAI",
      "outputs": [
        {
          "internalType": "address",
          "name": "",
          "type": "address"
        }
      ],
      "stateMutability": "view",
      "type": "function"
    },
    {
      "inputs": [],
      "name": "WBTC",
      "outputs": [
        {
          "internalType": "address",
          "name": "",
          "type": "address"
        }
      ],
      "stateMutability": "view",
      "type": "function"
    },
    {
      "inputs": [],
      "name": "WETH9",
      "outputs": [
        {
          "internalType": "address",
          "name": "",
          "type": "address"
        }
      ],
      "stateMutability": "view",
      "type": "function"
    },
    {
      "inputs": [],
      "name": "feeTier",
      "outputs": [
        {
          "internalType": "uint24",
          "name": "",
          "type": "uint24"
        }
      ],
      "stateMutability": "view",
      "type": "function"
    },
    {
      "inputs": [],
      "name": "swapRouter",
      "outputs": [
        {
          "internalType": "contract ISwapRouter",
          "name": "",
          "type": "address"
        }
      ],
      "stateMutability": "view",
      "type": "function"
    },
    {
      "inputs": [
        {
          "internalType": "uint256",
          "name": "amountIn",
          "type": "uint256"
        }
      ],
      "name": "swapWETHForDAI",
      "outputs": [
        {
          "internalType": "uint256",
          "name": "amountOut",
          "type": "uint256"
        }
      ],
      "stateMutability": "nonpayable",
      "type": "function"
    },
    {
      "inputs": [
        {
          "internalType": "address",
          "name": "tokenOut",
          "type": "address"
        },
        {
          "internalType": "uint256",
          "name": "amountIn",
          "type": "uint256"
        }
      ],
      "name": "swapWETHForToken",
      "outputs": [
        {
          "internalType": "uint256",
          "name": "amountOut",
          "type": "uint256"
        }
      ],
      "stateMutability": "nonpayable",
      "type": "function"
    },
    {
      "inputs": [
        {
          "internalType": "uint256",
          "name": "amountIn",
          "type": "uint256"
        }
      ],
      "name": "swapWETHForWBTC",
      "outputs": [
        {
          "internalType": "uint256",
          "name": "amountOut",
          "type": "uint256"
        }
      ],
      "stateMutability": "nonpayable",
      "type": "function"
    }
  ],
  "transactionHash": "0xce0be810ac0e8ec831684815b43da64ce6e019820adb888c0f6585040bfedf1c",
  "args": [
    "0xE592427A0AEce92De3Edee1F18E0157C05861564"
  ],
  "numDeployments": 1,
  "solcInputHash": "763a020caf9e1e6ef21291ab55ec3cde",
  "bytecode": "0x60a03461007e57601f6107e838819003918201601f19168301916001600160401b038311848410176100835780849260209460405283398101031261007e57516001600160a01b038116810361007e5760805260405161074e908161009a823960805181818160c0015281816101a6015281816102c2015261039d0152f35b600080fd5b634e487b7160e01b600052604160045260246000fdfe6040608081526004908136101561001557600080fd5b600091823560e01c9081630804db36146103735781632ed5016f146102985781634a1d184214610167575080634aa4a4fc146101395780634dede3de1461010b57806372f5d98a146100ef578063c31c9c07146100ac5763e0bab4c41461007b57600080fd5b346100a857816003193601126100a85760209051736b175474e89094c44da98b954eedeac495271d0f8152f35b5080fd5b50346100a857816003193601126100a857517f00000000000000000000000000000000000000000000000000000000000000006001600160a01b03168152602090f35b50346100a857816003193601126100a85760209051610bb88152f35b50346100a857816003193601126100a85760209051732260fac5e5542a773aa44fbcfedf7c193bc2c5998152f35b50346100a857816003193601126100a8576020905173c02aaa39b223fe8d0a0e5c4f27ead9083c756cc28152f35b8383346100a857806003193601126100a8576001600160a01b039280358481169190829003610294579061023a91602435956101a4873033610562565b7f0000000000000000000000000000000000000000000000000000000000000000166101d08782610642565b8451916101dc8361044a565b73c02aaa39b223fe8d0a0e5c4f27ead9083c756cc28352602097889485850152610bb88785015233606085015242608085015260a08401528660c08401528660e084015286865180968195829463414bf38960e01b8452830161049f565b03925af1928315610289578093610254575b505051908152f35b909192508382813d8311610282575b61026d818361047c565b8101031261027f57505190838061024c565b80fd5b503d610263565b8251903d90823e3d90fd5b8380fd5b8383346100a8576020928360031936011261036f57838161023a9235906102c0823033610562565b7f00000000000000000000000000000000000000000000000000000000000000006001600160a01b0316906102f58383610642565b8551926103018461044a565b73c02aaa39b223fe8d0a0e5c4f27ead9083c756cc28452736b175474e89094c44da98b954eedeac495271d0f85850152610bb88785015233606085015242608085015260a08401528660c08401528660e084015286865180968195829463414bf38960e01b8452830161049f565b8280fd5b8383346100a8576020928360031936011261036f57838161023a92359061039b823033610562565b7f00000000000000000000000000000000000000000000000000000000000000006001600160a01b0316906103d08383610642565b8551926103dc8461044a565b73c02aaa39b223fe8d0a0e5c4f27ead9083c756cc28452732260fac5e5542a773aa44fbcfedf7c193bc2c59985850152610bb88785015233606085015242608085015260a08401528660c08401528660e084015286865180968195829463414bf38960e01b8452830161049f565b61010081019081106001600160401b0382111761046657604052565b634e487b7160e01b600052604160045260246000fd5b601f909101601f19168101906001600160401b0382119082101761046657604052565b91909160e06101008201938160018060a01b039182815116855282602082015116602086015262ffffff60408201511660408601528260608201511660608601526080810151608086015260a081015160a086015260c081015160c0860152015116910152565b3d15610540573d906001600160401b0382116104665760405191610534601f8201601f19166020018461047c565b82523d6000602084013e565b606090565b9081602091031261055d5751801515810361055d5790565b600080fd5b6040516323b872dd60e01b602082019081526001600160a01b03928316602483015292909116604482015260648082019390935291825260a08201908282106001600160401b0383111761046657600092839260405251908273c02aaa39b223fe8d0a0e5c4f27ead9083c756cc25af16105da610506565b81610613575b50156105e857565b60405162461bcd60e51b815260206004820152600360248201526229aa2360e91b6044820152606490fd5b8051801592508215610628575b5050386105e0565b61063b9250602080918301019101610545565b3880610620565b60405163095ea7b360e01b602082019081526001600160a01b03909216602482015260448082019390935291825260808201906001600160401b0382118383101761046657600092839260405251908273c02aaa39b223fe8d0a0e5c4f27ead9083c756cc25af16106b1610506565b816106e9575b50156106bf57565b60405162461bcd60e51b8152602060048201526002602482015261534160f01b6044820152606490fd5b80518015925082156106fe575b5050386106b7565b6107119250602080918301019101610545565b38806106f656fea2646970667358221220dae802ba910dc138fdf3cac51398bae8cb0209fe81661cf51193140696b89ea564736f6c63430008110033",
  "devdoc": {
    "kind": "dev",
    "methods": {},
    "version": 1
  },
  "userdoc": {
    "kind": "user",
    "methods": {},
    "version": 1
  },
  "storageLayout": {
    "storage": [],
    "types": null
  }
}