{
  "address": "0x90A9DFB39896a549b816019BC1158B7df5fA5Af6",
  "abi": [
    {
      "inputs": [],
      "name": "BadAccessControlSingleton",
      "type": "error"
    },
    {
      "inputs": [],
      "name": "BadOracleId",
      "type": "error"
    },
    {
      "inputs": [
        {
          "internalType": "address",
          "name": "asset",
          "type": "address"
        }
      ],
      "name": "NoOracleFound",
      "type": "error"
    },
    {
      "inputs": [],
      "name": "NoOracleImplementation",
      "type": "error"
    },
    {
      "inputs": [],
      "name": "OnlyAdminError",
      "type": "error"
    },
    {
      "inputs": [],
      "name": "OnlyAlerterError",
      "type": "error"
    },
    {
      "inputs": [],
      "name": "OnlyDAOError",
      "type": "error"
    },
    {
      "inputs": [],
      "name": "OnlyDisablerAccessError",
      "type": "error"
    },
    {
      "inputs": [],
      "name": "OnlyLiquidationAccessError",
      "type": "error"
    },
    {
      "inputs": [],
      "name": "OnlyMintAccessError",
      "type": "error"
    },
    {
      "inputs": [],
      "name": "OnlyRewardAccessError",
      "type": "error"
    },
    {
      "inputs": [],
      "name": "OnlyRoleError",
      "type": "error"
    },
    {
      "inputs": [],
      "name": "OnlyVaultAccessError",
      "type": "error"
    },
    {
      "inputs": [],
      "name": "OnlyVotingEscrowError",
      "type": "error"
    },
    {
      "anonymous": false,
      "inputs": [
        {
          "indexed": false,
          "internalType": "uint8",
          "name": "version",
          "type": "uint8"
        }
      ],
      "name": "Initialized",
      "type": "event"
    },
    {
      "anonymous": false,
      "inputs": [
        {
          "indexed": false,
          "internalType": "uint256",
          "name": "price",
          "type": "uint256"
        }
      ],
      "name": "OracleLowerBoundWarning",
      "type": "event"
    },
    {
      "anonymous": false,
      "inputs": [
        {
          "indexed": false,
          "internalType": "uint256",
          "name": "price",
          "type": "uint256"
        }
      ],
      "name": "OracleUpperBoundWarning",
      "type": "event"
    },
    {
      "inputs": [],
      "name": "ACCESS_CONTROL_SINGLETON",
      "outputs": [
        {
          "internalType": "contract ISuAccessControl",
          "name": "",
          "type": "address"
        }
      ],
      "stateMutability": "view",
      "type": "function"
    },
    {
      "inputs": [],
      "name": "ADMIN_ROLE",
      "outputs": [
        {
          "internalType": "bytes32",
          "name": "",
          "type": "bytes32"
        }
      ],
      "stateMutability": "view",
      "type": "function"
    },
    {
      "inputs": [],
      "name": "ALERTER_ROLE",
      "outputs": [
        {
          "internalType": "bytes32",
          "name": "",
          "type": "bytes32"
        }
      ],
      "stateMutability": "view",
      "type": "function"
    },
    {
      "inputs": [],
      "name": "CDP_ACCESS_ROLE",
      "outputs": [
        {
          "internalType": "bytes32",
          "name": "",
          "type": "bytes32"
        }
      ],
      "stateMutability": "view",
      "type": "function"
    },
    {
      "inputs": [],
      "name": "DAO_ROLE",
      "outputs": [
        {
          "internalType": "bytes32",
          "name": "",
          "type": "bytes32"
        }
      ],
      "stateMutability": "view",
      "type": "function"
    },
    {
      "inputs": [],
      "name": "DISABLER_ROLE",
      "outputs": [
        {
          "internalType": "bytes32",
          "name": "",
          "type": "bytes32"
        }
      ],
      "stateMutability": "view",
      "type": "function"
    },
    {
      "inputs": [],
      "name": "LIQUIDATION_ACCESS_ROLE",
      "outputs": [
        {
          "internalType": "bytes32",
          "name": "",
          "type": "bytes32"
        }
      ],
      "stateMutability": "view",
      "type": "function"
    },
    {
      "inputs": [],
      "name": "MINT_ACCESS_ROLE",
      "outputs": [
        {
          "internalType": "bytes32",
          "name": "",
          "type": "bytes32"
        }
      ],
      "stateMutability": "view",
      "type": "function"
    },
    {
      "inputs": [],
      "name": "REWARD_ACCESS_ROLE",
      "outputs": [
        {
          "internalType": "bytes32",
          "name": "",
          "type": "bytes32"
        }
      ],
      "stateMutability": "view",
      "type": "function"
    },
    {
      "inputs": [],
      "name": "VOTING_ESCROW_ROLE",
      "outputs": [
        {
          "internalType": "bytes32",
          "name": "",
          "type": "bytes32"
        }
      ],
      "stateMutability": "view",
      "type": "function"
    },
    {
      "inputs": [
        {
          "internalType": "address",
          "name": "",
          "type": "address"
        }
      ],
      "name": "assetToOracle",
      "outputs": [
        {
          "internalType": "uint256",
          "name": "",
          "type": "uint256"
        }
      ],
      "stateMutability": "view",
      "type": "function"
    },
    {
      "inputs": [
        {
          "internalType": "address",
          "name": "asset",
          "type": "address"
        }
      ],
      "name": "getFiatPrice1e18",
      "outputs": [
        {
          "internalType": "uint256",
          "name": "",
          "type": "uint256"
        }
      ],
      "stateMutability": "view",
      "type": "function"
    },
    {
      "inputs": [
        {
          "internalType": "address",
          "name": "asset",
          "type": "address"
        }
      ],
      "name": "getSafeFiatPrice1e18",
      "outputs": [
        {
          "internalType": "uint256",
          "name": "",
          "type": "uint256"
        }
      ],
      "stateMutability": "nonpayable",
      "type": "function"
    },
    {
      "inputs": [
        {
          "internalType": "address",
          "name": "asset",
          "type": "address"
        }
      ],
      "name": "hasPriceForAsset",
      "outputs": [
        {
          "internalType": "bool",
          "name": "",
          "type": "bool"
        }
      ],
      "stateMutability": "view",
      "type": "function"
    },
    {
      "inputs": [
        {
          "internalType": "address",
          "name": "_authControl",
          "type": "address"
        }
      ],
      "name": "initialize",
      "outputs": [],
      "stateMutability": "nonpayable",
      "type": "function"
    },
    {
      "inputs": [
        {
          "internalType": "address",
          "name": "",
          "type": "address"
        }
      ],
      "name": "limitations",
      "outputs": [
        {
          "internalType": "uint256",
          "name": "lowerBound",
          "type": "uint256"
        },
        {
          "internalType": "uint256",
          "name": "upperBound",
          "type": "uint256"
        }
      ],
      "stateMutability": "view",
      "type": "function"
    },
    {
      "inputs": [
        {
          "internalType": "uint256",
          "name": "",
          "type": "uint256"
        }
      ],
      "name": "oracleImplementations",
      "outputs": [
        {
          "internalType": "contract ISuOracle",
          "name": "",
          "type": "address"
        }
      ],
      "stateMutability": "view",
      "type": "function"
    },
    {
      "inputs": [
        {
          "internalType": "address",
          "name": "asset",
          "type": "address"
        },
        {
          "internalType": "uint256",
          "name": "newLowerBound",
          "type": "uint256"
        }
      ],
      "name": "setLowerBound",
      "outputs": [],
      "stateMutability": "nonpayable",
      "type": "function"
    },
    {
      "inputs": [
        {
          "internalType": "address[]",
          "name": "assets",
          "type": "address[]"
        },
        {
          "internalType": "uint256",
          "name": "oracleId",
          "type": "uint256"
        }
      ],
      "name": "setOracleIdForAssets",
      "outputs": [],
      "stateMutability": "nonpayable",
      "type": "function"
    },
    {
      "inputs": [
        {
          "internalType": "uint256",
          "name": "oracleId",
          "type": "uint256"
        },
        {
          "internalType": "contract ISuOracle",
          "name": "oracleImplementation",
          "type": "address"
        }
      ],
      "name": "setOracleImplementation",
      "outputs": [],
      "stateMutability": "nonpayable",
      "type": "function"
    },
    {
      "inputs": [
        {
          "internalType": "address",
          "name": "asset",
          "type": "address"
        },
        {
          "internalType": "uint256",
          "name": "newUpperBound",
          "type": "uint256"
        }
      ],
      "name": "setUpperBound",
      "outputs": [],
      "stateMutability": "nonpayable",
      "type": "function"
    },
    {
      "inputs": [
        {
          "internalType": "bytes4",
          "name": "interfaceId",
          "type": "bytes4"
        }
      ],
      "name": "supportsInterface",
      "outputs": [
        {
          "internalType": "bool",
          "name": "",
          "type": "bool"
        }
      ],
      "stateMutability": "view",
      "type": "function"
    }
  ],
  "numDeployments": 3,
  "solcInputHash": "bf39d1579cb15455a9583613f66e6945",
  "bytecode": "0x6080806040523461001657610d5a908161001c8239f35b600080fdfe608060408181526004908136101561001657600080fd5b600092833560e01c90816301ffc9a714610a845750806303ee9f2214610a585780630827ba5b14610a255780632a5001c9146109ff5780632e00d245146109c75780633e052a9214610933578063438280dd146108f85780636806ff2b146107595780636bf264bc1461071757806371d0fb41146106dc57806375b238fc146106c15780638e5313e014610686578063a780f1331461064c578063b5daa6101461059d578063b9ac2b3814610570578063bd5f5be614610535578063c4d66de8146102fd578063d0e8fa82146102c2578063d2351cee14610287578063dc97e84e1461024c578063e9c265181461021f5763ef54c3781461011657600080fd5b3461021b578060031936011261021b576001600160a01b03602435818116938035929091859003610217576020604491875460101c16855192838092632474521560e21b8252600080516020610d05833981519152878301523360248301525afa90811561020d5786916101df575b50156101d15781156101c35783156101b5575083526002602052822080546001600160a01b031916909117905580f35b825163722dd29d60e11b8152fd5b825163f837507f60e01b8152fd5b825163599a6c3360e11b8152fd5b610200915060203d8111610206575b6101f88183610b34565b810190610b6d565b38610185565b503d6101ee565b84513d88823e3d90fd5b8580fd5b8280fd5b83823461024857816003193601126102485760209051600080516020610d058339815191528152f35b5080fd5b838234610248578160031936011261024857602090517f9a9aef7c1247d5fc769b0185c052913e39673da29a880317dfd20ebf86f26a498152f35b838234610248578160031936011261024857602090517fb0fdd1623e42dbffda4acd8bd643e1cb69f00f0e83abeaa8150ee42cf0fd105e8152f35b838234610248578160031936011261024857602090517f76d0567582f23e1e9d7a13eeba60f9aea9d69b8da87ca27a8bf3698b35c653db8152f35b503461021b576020908160031936011261053157610319610b19565b845460ff8160081c161590818092610524575b801561050d575b156104b35760ff1981166001178755816104a2575b5085549460ff8660081c161561044b5762010000600160b01b03601084901b1662010000600160b01b0319871681178855926001600160a01b0316801515908690826103ea575b50506103dc575061039e578480f35b7f7f26b83ff96e1f2b6a682f133852f6798a09c465da95921460cefb384740249893610100600160b01b0319161784555160018152a1388080808480f35b83516384d942fd60e01b8152fd5b86516301ffc9a760e01b8152637965db0b60e01b858201529250829060249082905afa908115610441578891610424575b5015853861038f565b61043b9150863d8811610206576101f88183610b34565b3861041b565b85513d8a823e3d90fd5b835162461bcd60e51b8152908101859052602b60248201527f496e697469616c697a61626c653a20636f6e7472616374206973206e6f74206960448201526a6e697469616c697a696e6760a81b6064820152608490fd5b61ffff191661010117865538610348565b835162461bcd60e51b8152808701869052602e60248201527f496e697469616c697a61626c653a20636f6e747261637420697320616c72656160448201526d191e481a5b9a5d1a585b1a5e995960921b6064820152608490fd5b50303b1580156103335750600160ff821614610333565b50600160ff82161061032c565b8380fd5b838234610248578160031936011261024857602090517f4f14c8366fa999817edc9f29824eb88a00cc31225e2156f399da4bc91049eb108152f35b83823461024857602036600319011261024857602090610596610591610b19565b610b85565b9051908152f35b50903461021b578160031936011261021b576105b7610b19565b83548351632474521560e21b81528084018690523360248201526001600160a01b0393916020908290604490829060101c88165afa908115610642578691610624575b5015610616575016825260036020526001602435918320015580f35b8351631886ea7d60e11b8152fd5b61063c915060203d8111610206576101f88183610b34565b386105fa565b85513d88823e3d90fd5b8382346102485760203660031901126102485760209181906001600160a01b03610674610b19565b16815260018452205415159051908152f35b838234610248578160031936011261024857602090517fe453bacb314e78dcd5192e6b1a2b1f0e7c76e92f6b7e429a6a90f04e39db3b768152f35b83823461024857816003193601126102485751908152602090f35b838234610248578160031936011261024857602090517f880a91047114272656e533301261260c75e4d11543ac7303d6fe4204579ec7278152f35b838234610248576020366003190112610248579081906001600160a01b0361073d610b19565b1681526003602052206001815491015482519182526020820152f35b5082346108f557816003193601126108f5576001600160401b0392803584811161021b573660238201121561021b57808201359485116108e25760059385851b958151926020916107ac838a0186610b34565b845281840160248099830101913683116108de578901905b8282106108bb57505085548351632474521560e21b8152600080516020610d058339815191528782015233818b01528935956001600160a01b0393509184908290604490829060101c87165afa90811561044157889161089e575b501561088e57848752600283528184882054161561087e57865b815181101561087a578284828b1b84010151168852600184528585892055600019811461086857600101610839565b634e487b7160e01b8852601187528988fd5b8780f35b835163722dd29d60e11b81528690fd5b835163599a6c3360e11b81528690fd5b6108b59150843d8611610206576101f88183610b34565b8a61081f565b81356001600160a01b03811681036108da5781529083019083016107c4565b8880fd5b8780fd5b634e487b7160e01b835260418252602483fd5b80fd5b838234610248578160031936011261024857602090517f39f61ca2a1a28fee144218173ec637b649a353e4026b2738c673800e5bf1437b8152f35b50903461021b578160031936011261021b5761094d610b19565b83548351632474521560e21b81528084018690523360248201526001600160a01b0393916020908290604490829060101c88165afa9081156106425786916109a9575b5015610616575016825260036020526024359082205580f35b6109c1915060203d8111610206576101f88183610b34565b38610990565b8382346102485760203660031901126102485760209181906001600160a01b036109ef610b19565b1681526001845220549051908152f35b83823461024857602036600319011261024857602090610596610a20610b19565b610c52565b50903461021b57602036600319011261021b5735825260026020908152918190205490516001600160a01b039091168152f35b8382346102485781600319360112610248579054905160109190911c6001600160a01b03168152602090f35b9290503461053157602036600319011261053157803563ffffffff60e01b8116809103610b155784546301ffc9a760e01b8552918401526020908390602490829060101c6001600160a01b03165afa918215610b0b5760209392610aec575b50519015158152f35b610b04919250833d8111610206576101f88183610b34565b9038610ae3565b81513d85823e3d90fd5b8480fd5b600435906001600160a01b0382168203610b2f57565b600080fd5b601f909101601f19168101906001600160401b03821190821017610b5757604052565b634e487b7160e01b600052604160045260246000fd5b90816020910312610b2f57518015158103610b2f5790565b6001600160a01b039081166000818152600160209081526040808320549094908015610c3a578352600282528483205416928315610c295781906024865180968193631735856760e31b835260048301525afa938415610c1e57508193610bed575b50505090565b9091809350813d8311610c17575b610c058183610b34565b810103126108f5575051388080610be7565b503d610bfb565b51913d9150823e3d90fd5b845163722dd29d60e11b8152600490fd5b85516305d03ee160e41b815260048101869052602490fd5b610c5b81610b85565b6001600160a01b03909116600081815260036020526040808220549092908410610ccb57600183832001548411610c925750505090565b7fed60eeaa29614450fe01dbec42f6f541d8478c104730248779e4a1ebed74846260206001958551908152a18152600360205220015490565b90919260207f05b3dc42664a17497903032cf7e71aa1aaf58d9ec9c2a8ef11a278ded4a5b387918551908152a18152600360205220549056fe3b5d4cc60d3ec3516ee8ae083bd60934f6eb2a6c54b1229985c41bfb092b2603a2646970667358221220859fbdc92aa256d54966f74060865c4f489fd3b7e11f004840bd79795914b1fd64736f6c63430008110033",
  "devdoc": {
    "details": "See ISuOracleAggregator interface for full details.",
    "kind": "dev",
    "methods": {
      "getFiatPrice1e18(address)": {
        "params": {
          "asset": "- address of erc20 token contract"
        },
        "returns": {
          "_0": "usdPrice1e18 such that asset.balanceOf() * getFiatPrice1e18(asset) / 1e18 == $$ * 1e18*"
        }
      },
      "getSafeFiatPrice1e18(address)": {
        "params": {
          "asset": "- address of asset*"
        }
      },
      "hasPriceForAsset(address)": {
        "returns": {
          "_0": "true if oracle is set to this asset, false otherwise*"
        }
      },
      "setLowerBound(address,uint256)": {
        "params": {
          "asset": "- address of asset",
          "newLowerBound": "- new value of lower bound*"
        }
      },
      "setOracleImplementation(uint256,address)": {
        "params": {
          "oracleId": "- number 0,1, etc to assign the oracle",
          "oracleImplementation": "- an address with ISuOracle implementation contract*"
        }
      },
      "setUpperBound(address,uint256)": {
        "params": {
          "asset": "- address of asset",
          "newUpperBound": "- new value of upper bound*"
        }
      },
      "supportsInterface(bytes4)": {
        "details": "Returns true if this contract implements the interface defined by `interfaceId`. See the corresponding https://eips.ethereum.org/EIPS/eip-165#how-interfaces-are-identified[EIP section] to learn more about how these ids are created. This function call must use less than 30 000 gas."
      }
    },
    "title": "SuChainlinkOracle",
    "version": 1
  },
  "userdoc": {
    "kind": "user",
    "methods": {
      "getFiatPrice1e18(address)": {
        "notice": "WARNING! Read this description very carefully!     function getFiatPrice1e18(address asset) returns (uint256) that:         basicAmountOfAsset * getFiatPrice1e18(asset) / 1e18 === $$ * 1e18     in other words, it doesn't matter what's the erc20.decimals is,     you just multiply token balance in basic units on value from oracle and get dollar amount multiplied on 1e18. different assets have different deviation threshold (errors)     for wBTC it's <= 0.5%, read more https://data.chain.link/ethereum/mainnet/crypto-usd/btc-usd     for other asset is can be larger based on particular oracle implementation. examples:     market price of btc = $30k,     for 0.1 wBTC the unit256 amount is 0.1 * 1e18     0.1 * 1e18 * (price1e18 / 1e18) == $3000 == uint256(3000*1e18)     => price1e18 = 30000 * 1e18;     market price of usdt = $0.97,     for 1 usdt uint256 = 1 * 1e6     so 1*1e6 * price1e18 / 1e18 == $0.97 == uint256(0.97*1e18)     => 1*1e6 * (price1e18 / 1e18) / (0.97*1e18)   = 1     =>  price1e18 = 0.97 * (1e18/1e6) * 1e18    assume market price of wBTC = $31,503.77, oracle error = $158     case #1: small amount of wBTC         we have 0.0,000,001 wBTC that is worth v = $0.00315  $0.00001 = 0.00315*1e18 = 315*1e13  1*1e13         actual balance on the asset b = wBTC.balanceOf() =  0.0000001*1e18 = 1e11         oracle should return or = oracle.getFiatPrice1e18(wBTC) <=>         <=> b*or = v => v/b = 315*1e13 / 1e11 = 315*1e2  1e2         error = or.error * b = 1e2 * 1e11 = 1e13 => 1e13/1e18 usd = 1e-5 = 0.00001 usd     case #2: large amount of wBTC         v = 2,000,000 wBTC = $31,503.77 * 2m  158*2m = $63,007,540,000  $316,000,000 = 63,007*1e24  316*1e24         for calc convenience we increase error on 0.05 and have v = 63,000*24  300*1e24 = (630  3)*1e26         b = 2*1e6 * 1e18 = 2*1e24         or = v/b = (630  3)*1e26 / 2*1e24 = 315*1e2  1.5*1e2         error = or.error * b = 1.5*100 * 2*1e24 = 3*1e26 = 3*1e8*1e18 = $300,000,000 ~ $316,000,000     assume the market price of USDT = $0.97  $0.00485,     case #3: little amount of USDT         v = USDT amount 0.005 = 0.005*(0.97  0.00485) = 0.00485*1e18  0.00002425*1e18 = 485*1e13  3*1e13         we rounded error up on (3000-2425)/2425 ~= +24% for calculation convenience.         b = USDT.balanceOf() = 0.005*1e6 = 5*1e3         b*or = v => or = v/b = (485*1e13  3*1e13) / 5*1e3 = 970*1e9  6*1e9         error = 6*1e9 * 5*1e3 / 1e18 = 30*1e12/1e18 = 3*1e-5 = $0,00005     case #4: lot of USDT         v = we have 100,000,000,000 USDT = $97B = 97*1e9*1e18  0.5*1e9*1e18         b = USDT.balanceOf() = 1e11*1e6 = 1e17         or = v/b = (97*1e9*1e18  0.5*1e9*1e18) / 1e17 = 970*1e9  5*1e9         error = 5*1e9 * 1e17 = 5*1e26 = 0.5 * 1e8*1e18"
      },
      "getSafeFiatPrice1e18(address)": {
        "notice": "Like getFiatPrice1e18 from ISuOracle, but also checks bounds and emit event if there is an error. We should call it in non-view method where we need safePrice from Oracle."
      },
      "setLowerBound(address,uint256)": {
        "notice": "Change lower bound of asset"
      },
      "setOracleIdForAssets(address[],uint256)": {
        "notice": "specify what oracleId should be used for each assets. Checks that oracleId has an implementation*"
      },
      "setOracleImplementation(uint256,address)": {
        "notice": "assign address of oracle implementation to the oracleId"
      },
      "setUpperBound(address,uint256)": {
        "notice": "Change upper bound of asset"
      }
    },
    "notice": "Oracle that aggregate all oracles, like router",
    "version": 1
  },
  "storageLayout": {
    "storage": [
      {
        "astId": 672,
        "contract": "contracts/periphery/contracts/oracle/SuOracleAggregator.sol:SuOracleAggregator",
        "label": "_initialized",
        "offset": 0,
        "slot": "0",
        "type": "t_uint8"
      },
      {
        "astId": 675,
        "contract": "contracts/periphery/contracts/oracle/SuOracleAggregator.sol:SuOracleAggregator",
        "label": "_initializing",
        "offset": 1,
        "slot": "0",
        "type": "t_bool"
      },
      {
        "astId": 37201,
        "contract": "contracts/periphery/contracts/oracle/SuOracleAggregator.sol:SuOracleAggregator",
        "label": "ACCESS_CONTROL_SINGLETON",
        "offset": 2,
        "slot": "0",
        "type": "t_contract(ISuAccessControl)41342"
      },
      {
        "astId": 43021,
        "contract": "contracts/periphery/contracts/oracle/SuOracleAggregator.sol:SuOracleAggregator",
        "label": "assetToOracle",
        "offset": 0,
        "slot": "1",
        "type": "t_mapping(t_address,t_uint256)"
      },
      {
        "astId": 43026,
        "contract": "contracts/periphery/contracts/oracle/SuOracleAggregator.sol:SuOracleAggregator",
        "label": "oracleImplementations",
        "offset": 0,
        "slot": "2",
        "type": "t_mapping(t_uint256,t_contract(ISuOracle)41553)"
      },
      {
        "astId": 43031,
        "contract": "contracts/periphery/contracts/oracle/SuOracleAggregator.sol:SuOracleAggregator",
        "label": "limitations",
        "offset": 0,
        "slot": "3",
        "type": "t_mapping(t_address,t_struct(AssetLimitation)41563_storage)"
      }
    ],
    "types": {
      "t_address": {
        "encoding": "inplace",
        "label": "address",
        "numberOfBytes": "20"
      },
      "t_bool": {
        "encoding": "inplace",
        "label": "bool",
        "numberOfBytes": "1"
      },
      "t_contract(ISuAccessControl)41342": {
        "encoding": "inplace",
        "label": "contract ISuAccessControl",
        "numberOfBytes": "20"
      },
      "t_contract(ISuOracle)41553": {
        "encoding": "inplace",
        "label": "contract ISuOracle",
        "numberOfBytes": "20"
      },
      "t_mapping(t_address,t_struct(AssetLimitation)41563_storage)": {
        "encoding": "mapping",
        "key": "t_address",
        "label": "mapping(address => struct ISuOracleAggregator.AssetLimitation)",
        "numberOfBytes": "32",
        "value": "t_struct(AssetLimitation)41563_storage"
      },
      "t_mapping(t_address,t_uint256)": {
        "encoding": "mapping",
        "key": "t_address",
        "label": "mapping(address => uint256)",
        "numberOfBytes": "32",
        "value": "t_uint256"
      },
      "t_mapping(t_uint256,t_contract(ISuOracle)41553)": {
        "encoding": "mapping",
        "key": "t_uint256",
        "label": "mapping(uint256 => contract ISuOracle)",
        "numberOfBytes": "32",
        "value": "t_contract(ISuOracle)41553"
      },
      "t_struct(AssetLimitation)41563_storage": {
        "encoding": "inplace",
        "label": "struct ISuOracleAggregator.AssetLimitation",
        "members": [
          {
            "astId": 41560,
            "contract": "contracts/periphery/contracts/oracle/SuOracleAggregator.sol:SuOracleAggregator",
            "label": "lowerBound",
            "offset": 0,
            "slot": "0",
            "type": "t_uint256"
          },
          {
            "astId": 41562,
            "contract": "contracts/periphery/contracts/oracle/SuOracleAggregator.sol:SuOracleAggregator",
            "label": "upperBound",
            "offset": 0,
            "slot": "1",
            "type": "t_uint256"
          }
        ],
        "numberOfBytes": "64"
      },
      "t_uint256": {
        "encoding": "inplace",
        "label": "uint256",
        "numberOfBytes": "32"
      },
      "t_uint8": {
        "encoding": "inplace",
        "label": "uint8",
        "numberOfBytes": "1"
      }
    }
  }
}