{
  "address": "0xaD9b568f8B980c0CdB855b16D36843745c4B617A",
  "abi": [
    {
      "inputs": [
        {
          "internalType": "address",
          "name": "accessControl",
          "type": "address"
        },
        {
          "internalType": "address",
          "name": "safeEngine_",
          "type": "address"
        }
      ],
      "stateMutability": "nonpayable",
      "type": "constructor"
    },
    {
      "inputs": [],
      "name": "BadAccessControlSingleton",
      "type": "error"
    },
    {
      "inputs": [],
      "name": "OnlyAdminError",
      "type": "error"
    },
    {
      "inputs": [],
      "name": "OnlyAlerterError",
      "type": "error"
    },
    {
      "inputs": [],
      "name": "OnlyCDPAccessError",
      "type": "error"
    },
    {
      "inputs": [],
      "name": "OnlyDAOError",
      "type": "error"
    },
    {
      "inputs": [],
      "name": "OnlyDisablerAccessError",
      "type": "error"
    },
    {
      "inputs": [],
      "name": "OnlyLiquidationAccessError",
      "type": "error"
    },
    {
      "inputs": [],
      "name": "OnlyMintAccessError",
      "type": "error"
    },
    {
      "inputs": [],
      "name": "OnlyRewardAccessError",
      "type": "error"
    },
    {
      "inputs": [],
      "name": "OnlyRoleError",
      "type": "error"
    },
    {
      "anonymous": false,
      "inputs": [],
      "name": "DisableContract",
      "type": "event"
    },
    {
      "inputs": [],
      "name": "ACCESS_CONTROL_SINGLETON",
      "outputs": [
        {
          "internalType": "contract ISuAccessControl",
          "name": "",
          "type": "address"
        }
      ],
      "stateMutability": "view",
      "type": "function"
    },
    {
      "inputs": [],
      "name": "ADMIN_ROLE",
      "outputs": [
        {
          "internalType": "bytes32",
          "name": "",
          "type": "bytes32"
        }
      ],
      "stateMutability": "view",
      "type": "function"
    },
    {
      "inputs": [],
      "name": "ALERTER_ROLE",
      "outputs": [
        {
          "internalType": "bytes32",
          "name": "",
          "type": "bytes32"
        }
      ],
      "stateMutability": "view",
      "type": "function"
    },
    {
      "inputs": [],
      "name": "CDP_ACCESS_ROLE",
      "outputs": [
        {
          "internalType": "bytes32",
          "name": "",
          "type": "bytes32"
        }
      ],
      "stateMutability": "view",
      "type": "function"
    },
    {
      "inputs": [],
      "name": "DAO_ROLE",
      "outputs": [
        {
          "internalType": "bytes32",
          "name": "",
          "type": "bytes32"
        }
      ],
      "stateMutability": "view",
      "type": "function"
    },
    {
      "inputs": [],
      "name": "DISABLER_ROLE",
      "outputs": [
        {
          "internalType": "bytes32",
          "name": "",
          "type": "bytes32"
        }
      ],
      "stateMutability": "view",
      "type": "function"
    },
    {
      "inputs": [],
      "name": "LIQUIDATION_ACCESS_ROLE",
      "outputs": [
        {
          "internalType": "bytes32",
          "name": "",
          "type": "bytes32"
        }
      ],
      "stateMutability": "view",
      "type": "function"
    },
    {
      "inputs": [],
      "name": "MINT_ACCESS_ROLE",
      "outputs": [
        {
          "internalType": "bytes32",
          "name": "",
          "type": "bytes32"
        }
      ],
      "stateMutability": "view",
      "type": "function"
    },
    {
      "inputs": [],
      "name": "REWARD_ACCESS_ROLE",
      "outputs": [
        {
          "internalType": "bytes32",
          "name": "",
          "type": "bytes32"
        }
      ],
      "stateMutability": "view",
      "type": "function"
    },
    {
      "inputs": [],
      "name": "SYSTEM_ROLE",
      "outputs": [
        {
          "internalType": "bytes32",
          "name": "",
          "type": "bytes32"
        }
      ],
      "stateMutability": "view",
      "type": "function"
    },
    {
      "inputs": [],
      "name": "base",
      "outputs": [
        {
          "internalType": "uint256",
          "name": "",
          "type": "uint256"
        }
      ],
      "stateMutability": "view",
      "type": "function"
    },
    {
      "inputs": [
        {
          "internalType": "bytes32",
          "name": "",
          "type": "bytes32"
        }
      ],
      "name": "collateralTypes",
      "outputs": [
        {
          "internalType": "uint256",
          "name": "stabilityFee",
          "type": "uint256"
        },
        {
          "internalType": "uint256",
          "name": "latestUpdateTime",
          "type": "uint256"
        }
      ],
      "stateMutability": "view",
      "type": "function"
    },
    {
      "inputs": [],
      "name": "contractEnabled",
      "outputs": [
        {
          "internalType": "uint256",
          "name": "",
          "type": "uint256"
        }
      ],
      "stateMutability": "view",
      "type": "function"
    },
    {
      "inputs": [],
      "name": "disableContract",
      "outputs": [],
      "stateMutability": "nonpayable",
      "type": "function"
    },
    {
      "inputs": [
        {
          "internalType": "bytes32",
          "name": "collateralType",
          "type": "bytes32"
        }
      ],
      "name": "initializeCollateralType",
      "outputs": [],
      "stateMutability": "nonpayable",
      "type": "function"
    },
    {
      "inputs": [
        {
          "internalType": "bytes32",
          "name": "what",
          "type": "bytes32"
        },
        {
          "internalType": "address",
          "name": "data",
          "type": "address"
        }
      ],
      "name": "modifyParameters",
      "outputs": [],
      "stateMutability": "nonpayable",
      "type": "function"
    },
    {
      "inputs": [
        {
          "internalType": "bytes32",
          "name": "collateralType",
          "type": "bytes32"
        },
        {
          "internalType": "bytes32",
          "name": "what",
          "type": "bytes32"
        },
        {
          "internalType": "uint256",
          "name": "data",
          "type": "uint256"
        }
      ],
      "name": "modifyParameters",
      "outputs": [],
      "stateMutability": "nonpayable",
      "type": "function"
    },
    {
      "inputs": [
        {
          "internalType": "bytes32",
          "name": "what",
          "type": "bytes32"
        },
        {
          "internalType": "uint256",
          "name": "data",
          "type": "uint256"
        }
      ],
      "name": "modifyParameters",
      "outputs": [],
      "stateMutability": "nonpayable",
      "type": "function"
    },
    {
      "inputs": [],
      "name": "primaryTaxReceiver",
      "outputs": [
        {
          "internalType": "address",
          "name": "",
          "type": "address"
        }
      ],
      "stateMutability": "view",
      "type": "function"
    },
    {
      "inputs": [],
      "name": "safeEngine",
      "outputs": [
        {
          "internalType": "contract ISafeEngine",
          "name": "",
          "type": "address"
        }
      ],
      "stateMutability": "view",
      "type": "function"
    },
    {
      "inputs": [
        {
          "internalType": "bytes4",
          "name": "interfaceId",
          "type": "bytes4"
        }
      ],
      "name": "supportsInterface",
      "outputs": [
        {
          "internalType": "bool",
          "name": "",
          "type": "bool"
        }
      ],
      "stateMutability": "view",
      "type": "function"
    },
    {
      "inputs": [
        {
          "internalType": "bytes32",
          "name": "collateralType",
          "type": "bytes32"
        }
      ],
      "name": "taxSingle",
      "outputs": [
        {
          "internalType": "uint256",
          "name": "rate",
          "type": "uint256"
        }
      ],
      "stateMutability": "nonpayable",
      "type": "function"
    }
  ],
  "numDeployments": 2,
  "solcInputHash": "c51927dd277f1318ab9de6db4c2443ac",
  "bytecode": "0x6080604090808252346200012a578181620010b380380380916200002482856200012f565b8339810103126200012a57620000486020620000408362000169565b920162000169565b600080546001600160a01b039384166001600160a01b03199182168117835585516301ffc9a760e01b8152637965db0b60e01b60048201529194939290602090839060249082905afa9182156200011e578192620000d2575b505015620000c1571690600254161760025551610f3490816200017f8239f35b83516384d942fd60e01b8152600490fd5b9091506020813d821162000115575b81620000f0602093836200012f565b810103126200011157519081151582036200010e57503880620000a1565b80fd5b5080fd5b3d9150620000e1565b508551903d90823e3d90fd5b600080fd5b601f909101601f19168101906001600160401b038211908210176200015357604052565b634e487b7160e01b600052604160045260246000fd5b51906001600160a01b03821682036200012a5756fe60806040526004361015610013575b600080fd5b60003560e01c806301ffc9a7146101cb57806303ee9f22146101c257806341b3a0d9146101b9578063438280dd146101b05780635001f3b5146101a7578063542f76a61461019e5780635e412858146101955780636614f0101461018c57806367aea313146101835780636c50dbba1461017a57806371d0fb411461017157806375071d2a1461016857806375b238fc1461015f578063894ba833146101565780638e5313e01461014d578063bd5f5be614610144578063d07900bb1461013b578063d2351cee14610132578063d4b9311d14610129578063dc97e84e14610120578063e9c26518146101175763fe4f58901461010f57600080fd5b61000e61099f565b5061000e610963565b5061000e610927565b5061000e610891565b5061000e610867565b5061000e610831565b5061000e6107e5565b5061000e6107a9565b5061000e6106f7565b5061000e6106da565b5061000e61069e565b5061000e610662565b5061000e6104c7565b5061000e61049d565b5061000e610402565b5061000e61035e565b5061000e610334565b5061000e610315565b5061000e6102d9565b5061000e6102ba565b5061000e610290565b503461000e57602036600319011261000e5760043563ffffffff60e01b811680910361000e576000546040516301ffc9a760e01b815260048101929092526102469190602090829060249082906001600160a01b03165afa908115610278575b60009161024a575b5060405190151581529081906020820190565b0390f35b61026b915060203d8111610271575b6102638183610a5b565b810190610a7e565b38610233565b503d610259565b610280610ab0565b61022b565b600091031261000e57565b503461000e57600036600319011261000e576000546040516001600160a01b039091168152602090f35b503461000e57600036600319011261000e576020600554604051908152f35b503461000e57600036600319011261000e5760206040517f39f61ca2a1a28fee144218173ec637b649a353e4026b2738c673800e5bf1437b8152f35b503461000e57600036600319011261000e576020600454604051908152f35b503461000e57600036600319011261000e576003546040516001600160a01b039091168152602090f35b503461000e57602036600319011261000e57600054604051632474521560e21b81529060209082906001600160a01b0316818061039e3360048301610a96565b03915afa9081156103f5575b6000916103d7575b50156103c5576103c3600435610ae9565b005b604051631886ea7d60e11b8152600490fd5b6103ef915060203d8111610271576102638183610a5b565b386103b2565b6103fd610ab0565b6103aa565b503461000e57604036600319011261000e576024356001600160a01b03808216820361000e576000541660206040518092632474521560e21b8252818061044c3360048301610a96565b03915afa908115610490575b600091610472575b50156103c5576103c390600435610c6a565b61048a915060203d8111610271576102638183610a5b565b38610460565b610498610ab0565b610458565b503461000e57600036600319011261000e576002546040516001600160a01b039091168152602090f35b503461000e57602036600319011261000e576004356104f460016104ea83610821565b0154421015610ca7565b6002546001600160a01b031660405163d07900bb60e01b8152600481018390529160a083602481855afa928315610655575b600093610620575b5061056d8361056861054c60045461054586610821565b5490610e10565b610562600161055a87610821565b015442610d3d565b90610d54565b610e76565b600354909290610587906001600160a01b03169484610e32565b93813b1561000e57604051630e9e11d360e01b8152600481018490526001600160a01b03919091166024820152604481019490945261024693906000908290606490829084905af18015610613575b6105fa575b5060016105e84292610821565b01556040519081529081906020820190565b8061060761060d92610a32565b80610285565b386105db565b61061b610ab0565b6105d6565b61064291935060a03d811161064e575b61063a8183610a5b565b810190610cff565b5050509050913861052e565b503d610630565b61065d610ab0565b610526565b503461000e57600036600319011261000e5760206040517f880a91047114272656e533301261260c75e4d11543ac7303d6fe4204579ec7278152f35b503461000e57600036600319011261000e5760206040517f5719df9ef2c4678b547f89e4f5ae410dbf400fc51cf3ded434c55f6adea2c43f8152f35b503461000e57600036600319011261000e57602060405160008152f35b503461000e576000806003193601126107a6578054604051632474521560e21b8152600080516020610edf833981519152600482015233602482015290602090829060449082906001600160a01b03165afa908115610799575b829161077b575b501561076957610766610abd565b80f35b60405163bb0684b760e01b8152600490fd5b610793915060203d8111610271576102638183610a5b565b38610758565b6107a1610ab0565b610751565b80fd5b503461000e57600036600319011261000e5760206040517fe453bacb314e78dcd5192e6b1a2b1f0e7c76e92f6b7e429a6a90f04e39db3b768152f35b503461000e57600036600319011261000e5760206040517f4f14c8366fa999817edc9f29824eb88a00cc31225e2156f399da4bc91049eb108152f35b6000526001602052604060002090565b503461000e57602036600319011261000e5760043560005260016020526040806000206001815491015482519182526020820152f35b503461000e57600036600319011261000e576020604051600080516020610edf8339815191528152f35b503461000e57606036600319011261000e57600054604051632474521560e21b81529060209082906001600160a01b031681806108d13360048301610a96565b03915afa90811561091a575b6000916108fc575b50156103c5576103c3604435602435600435610b69565b610914915060203d8111610271576102638183610a5b565b386108e5565b610922610ab0565b6108dd565b503461000e57600036600319011261000e5760206040517f9a9aef7c1247d5fc769b0185c052913e39673da29a880317dfd20ebf86f26a498152f35b503461000e57600036600319011261000e5760206040517f3b5d4cc60d3ec3516ee8ae083bd60934f6eb2a6c54b1229985c41bfb092b26038152f35b503461000e57604036600319011261000e57600054604051632474521560e21b81529060209082906001600160a01b031681806109df3360048301610a96565b03915afa908115610a25575b600091610a07575b50156103c5576103c3602435600435610c58565b610a1f915060203d8111610271576102638183610a5b565b386109f3565b610a2d610ab0565b6109eb565b6001600160401b038111610a4557604052565b634e487b7160e01b600052604160045260246000fd5b601f909101601f19168101906001600160401b03821190821017610a4557604052565b9081602091031261000e5751801515810361000e5790565b600081526001600160a01b03909116602082015260400190565b506040513d6000823e3d90fd5b60006005557f2d4b4ecff7bd7503135271925520a2f6c0d98c9473ffc1a1e72c92502f51b25e600080a1565b600052600160205260406000208054610b1357676765c793fa10079d601b1b815542600190910155565b60405162461bcd60e51b815260206004820152602860248201527f546178436f6c6c6563746f722f636f6c6c61746572616c547970652d616c726560448201526718591e4b5a5b9a5d60c21b6064820152608490fd5b908160005260016020526001604060002001544203610c01576b73746162696c69747946656560a01b03610ba357610ba090610821565b55565b60405162461bcd60e51b815260206004820152603060248201527f546178436f6c6c6563746f722f6d6f64696679506172616d65746572732d756e60448201526f7265636f676e697a65642d706172616d60801b6064820152608490fd5b60405162461bcd60e51b815260206004820152602960248201527f546178436f6c6c6563746f722f6c617465737455706461746554696d652d6e6f6044820152681d0b5d5c19185d195960ba1b6064820152608490fd5b636261736560e01b03610ba357600455565b71383934b6b0b93caa30bc2932b1b2b4bb32b960711b03610ba357600380546001600160a01b0319166001600160a01b0392909216919091179055565b15610cae57565b60405162461bcd60e51b8152602060048201526024808201527f546178436f6c6c6563746f722f696e76616c69642d626c6f636b2d74696d6573604482015263074616d760e41b6064820152608490fd5b908160a091031261000e578051916020820151916040810151916080606083015192015190565b50634e487b7160e01b600052601160045260246000fd5b91908203918211610d4a57565b610d52610d26565b565b9091908015610df557600183811615610de35781935b811c805b610d7757505050565b828002928084040361000e57676765c793fa10079d601a1b9280840190811061000e57676765c793fa10079d601b1b9081900493828416610dbd575b5050811c80610d6e565b8487929397029185830414158515151661000e57810190811061000e5704933880610db3565b676765c793fa10079d601b1b93610d6a565b509015610e0157600090565b676765c793fa10079d601b1b90565b9190820191828111610e25575b821061000e57565b610e2d610d26565b610e1d565b919060008082850392129182159285821216858213841617610e69575b9312159081610e61575b501561000e57565b905038610e59565b610e71610d26565b610e4f565b9080820291808304821481151715610ed1575b8115918215610eab575b50501561000e57676765c793fa10079d601b1b900490565b9091610ebb578204143880610e93565b634e487b7160e01b600052601260045260246000fd5b610ed9610d26565b610e8956feb0fdd1623e42dbffda4acd8bd643e1cb69f00f0e83abeaa8150ee42cf0fd105ea26469706673582212202ca087941fee8cc9389e8ced26d86c467cb1144a30cae72869354ec8caa3f76064736f6c63430008110033",
  "devdoc": {
    "kind": "dev",
    "methods": {
      "supportsInterface(bytes4)": {
        "details": "Returns true if this contract implements the interface defined by `interfaceId`. See the corresponding https://eips.ethereum.org/EIPS/eip-165#how-interfaces-are-identified[EIP section] to learn more about how these ids are created. This function call must use less than 30 000 gas."
      },
      "taxSingle(bytes32)": {
        "params": {
          "collateralType": "Collateral type to tax"
        }
      }
    },
    "version": 1
  },
  "userdoc": {
    "kind": "user",
    "methods": {
      "taxSingle(bytes32)": {
        "notice": "Collect tax from a single collateral type"
      }
    },
    "version": 1
  },
  "storageLayout": {
    "storage": [
      {
        "astId": 10177,
        "contract": "contracts/makerdao/core/TaxCollector.sol:TaxCollector",
        "label": "ACCESS_CONTROL_SINGLETON",
        "offset": 0,
        "slot": "0",
        "type": "t_contract(ISuAccessControl)10394"
      },
      {
        "astId": 5542,
        "contract": "contracts/makerdao/core/TaxCollector.sol:TaxCollector",
        "label": "collateralTypes",
        "offset": 0,
        "slot": "1",
        "type": "t_mapping(t_bytes32,t_struct(CollateralType)9559_storage)"
      },
      {
        "astId": 5545,
        "contract": "contracts/makerdao/core/TaxCollector.sol:TaxCollector",
        "label": "safeEngine",
        "offset": 0,
        "slot": "2",
        "type": "t_contract(ISafeEngine)9549"
      },
      {
        "astId": 5547,
        "contract": "contracts/makerdao/core/TaxCollector.sol:TaxCollector",
        "label": "primaryTaxReceiver",
        "offset": 0,
        "slot": "3",
        "type": "t_address"
      },
      {
        "astId": 5549,
        "contract": "contracts/makerdao/core/TaxCollector.sol:TaxCollector",
        "label": "base",
        "offset": 0,
        "slot": "4",
        "type": "t_uint256"
      },
      {
        "astId": 5568,
        "contract": "contracts/makerdao/core/TaxCollector.sol:TaxCollector",
        "label": "contractEnabled",
        "offset": 0,
        "slot": "5",
        "type": "t_uint256"
      }
    ],
    "types": {
      "t_address": {
        "encoding": "inplace",
        "label": "address",
        "numberOfBytes": "20"
      },
      "t_bytes32": {
        "encoding": "inplace",
        "label": "bytes32",
        "numberOfBytes": "32"
      },
      "t_contract(ISafeEngine)9549": {
        "encoding": "inplace",
        "label": "contract ISafeEngine",
        "numberOfBytes": "20"
      },
      "t_contract(ISuAccessControl)10394": {
        "encoding": "inplace",
        "label": "contract ISuAccessControl",
        "numberOfBytes": "20"
      },
      "t_mapping(t_bytes32,t_struct(CollateralType)9559_storage)": {
        "encoding": "mapping",
        "key": "t_bytes32",
        "label": "mapping(bytes32 => struct ITaxCollector.CollateralType)",
        "numberOfBytes": "32",
        "value": "t_struct(CollateralType)9559_storage"
      },
      "t_struct(CollateralType)9559_storage": {
        "encoding": "inplace",
        "label": "struct ITaxCollector.CollateralType",
        "members": [
          {
            "astId": 9556,
            "contract": "contracts/makerdao/core/TaxCollector.sol:TaxCollector",
            "label": "stabilityFee",
            "offset": 0,
            "slot": "0",
            "type": "t_uint256"
          },
          {
            "astId": 9558,
            "contract": "contracts/makerdao/core/TaxCollector.sol:TaxCollector",
            "label": "latestUpdateTime",
            "offset": 0,
            "slot": "1",
            "type": "t_uint256"
          }
        ],
        "numberOfBytes": "64"
      },
      "t_uint256": {
        "encoding": "inplace",
        "label": "uint256",
        "numberOfBytes": "32"
      }
    }
  }
}