{
  "address": "0x51f99291f3Ef97C42BC1c0b79DBc7c24d69DD8F2",
  "abi": [
    {
      "inputs": [
        {
          "internalType": "address",
          "name": "accessControl",
          "type": "address"
        },
        {
          "internalType": "address",
          "name": "safeEngine_",
          "type": "address"
        }
      ],
      "stateMutability": "nonpayable",
      "type": "constructor"
    },
    {
      "inputs": [],
      "name": "BadAccessControlSingleton",
      "type": "error"
    },
    {
      "inputs": [],
      "name": "OnlyAdminError",
      "type": "error"
    },
    {
      "inputs": [],
      "name": "OnlyAlerterError",
      "type": "error"
    },
    {
      "inputs": [],
      "name": "OnlyCDPAccessError",
      "type": "error"
    },
    {
      "inputs": [],
      "name": "OnlyDAOError",
      "type": "error"
    },
    {
      "inputs": [],
      "name": "OnlyDisablerAccessError",
      "type": "error"
    },
    {
      "inputs": [],
      "name": "OnlyLiquidationAccessError",
      "type": "error"
    },
    {
      "inputs": [],
      "name": "OnlyMintAccessError",
      "type": "error"
    },
    {
      "inputs": [],
      "name": "OnlyRewardAccessError",
      "type": "error"
    },
    {
      "inputs": [],
      "name": "OnlyRoleError",
      "type": "error"
    },
    {
      "anonymous": false,
      "inputs": [],
      "name": "DisableContract",
      "type": "event"
    },
    {
      "inputs": [],
      "name": "ACCESS_CONTROL_SINGLETON",
      "outputs": [
        {
          "internalType": "contract ISuAccessControl",
          "name": "",
          "type": "address"
        }
      ],
      "stateMutability": "view",
      "type": "function"
    },
    {
      "inputs": [],
      "name": "ADMIN_ROLE",
      "outputs": [
        {
          "internalType": "bytes32",
          "name": "",
          "type": "bytes32"
        }
      ],
      "stateMutability": "view",
      "type": "function"
    },
    {
      "inputs": [],
      "name": "ALERTER_ROLE",
      "outputs": [
        {
          "internalType": "bytes32",
          "name": "",
          "type": "bytes32"
        }
      ],
      "stateMutability": "view",
      "type": "function"
    },
    {
      "inputs": [],
      "name": "CDP_ACCESS_ROLE",
      "outputs": [
        {
          "internalType": "bytes32",
          "name": "",
          "type": "bytes32"
        }
      ],
      "stateMutability": "view",
      "type": "function"
    },
    {
      "inputs": [],
      "name": "DAO_ROLE",
      "outputs": [
        {
          "internalType": "bytes32",
          "name": "",
          "type": "bytes32"
        }
      ],
      "stateMutability": "view",
      "type": "function"
    },
    {
      "inputs": [],
      "name": "DISABLER_ROLE",
      "outputs": [
        {
          "internalType": "bytes32",
          "name": "",
          "type": "bytes32"
        }
      ],
      "stateMutability": "view",
      "type": "function"
    },
    {
      "inputs": [],
      "name": "LIQUIDATION_ACCESS_ROLE",
      "outputs": [
        {
          "internalType": "bytes32",
          "name": "",
          "type": "bytes32"
        }
      ],
      "stateMutability": "view",
      "type": "function"
    },
    {
      "inputs": [],
      "name": "MINT_ACCESS_ROLE",
      "outputs": [
        {
          "internalType": "bytes32",
          "name": "",
          "type": "bytes32"
        }
      ],
      "stateMutability": "view",
      "type": "function"
    },
    {
      "inputs": [],
      "name": "REWARD_ACCESS_ROLE",
      "outputs": [
        {
          "internalType": "bytes32",
          "name": "",
          "type": "bytes32"
        }
      ],
      "stateMutability": "view",
      "type": "function"
    },
    {
      "inputs": [],
      "name": "VOTING_ESCROW_ROLE",
      "outputs": [
        {
          "internalType": "bytes32",
          "name": "",
          "type": "bytes32"
        }
      ],
      "stateMutability": "view",
      "type": "function"
    },
    {
      "inputs": [],
      "name": "base",
      "outputs": [
        {
          "internalType": "uint256",
          "name": "",
          "type": "uint256"
        }
      ],
      "stateMutability": "view",
      "type": "function"
    },
    {
      "inputs": [
        {
          "internalType": "bytes32",
          "name": "",
          "type": "bytes32"
        }
      ],
      "name": "collateralTypes",
      "outputs": [
        {
          "internalType": "uint256",
          "name": "stabilityFee",
          "type": "uint256"
        },
        {
          "internalType": "uint256",
          "name": "latestUpdateTime",
          "type": "uint256"
        }
      ],
      "stateMutability": "view",
      "type": "function"
    },
    {
      "inputs": [],
      "name": "contractEnabled",
      "outputs": [
        {
          "internalType": "uint256",
          "name": "",
          "type": "uint256"
        }
      ],
      "stateMutability": "view",
      "type": "function"
    },
    {
      "inputs": [],
      "name": "disableContract",
      "outputs": [],
      "stateMutability": "nonpayable",
      "type": "function"
    },
    {
      "inputs": [
        {
          "internalType": "bytes32",
          "name": "collateralType",
          "type": "bytes32"
        }
      ],
      "name": "initializeCollateralType",
      "outputs": [],
      "stateMutability": "nonpayable",
      "type": "function"
    },
    {
      "inputs": [
        {
          "internalType": "bytes32",
          "name": "what",
          "type": "bytes32"
        },
        {
          "internalType": "address",
          "name": "data",
          "type": "address"
        }
      ],
      "name": "modifyParameters",
      "outputs": [],
      "stateMutability": "nonpayable",
      "type": "function"
    },
    {
      "inputs": [
        {
          "internalType": "bytes32",
          "name": "collateralType",
          "type": "bytes32"
        },
        {
          "internalType": "bytes32",
          "name": "what",
          "type": "bytes32"
        },
        {
          "internalType": "uint256",
          "name": "data",
          "type": "uint256"
        }
      ],
      "name": "modifyParameters",
      "outputs": [],
      "stateMutability": "nonpayable",
      "type": "function"
    },
    {
      "inputs": [
        {
          "internalType": "bytes32",
          "name": "what",
          "type": "bytes32"
        },
        {
          "internalType": "uint256",
          "name": "data",
          "type": "uint256"
        }
      ],
      "name": "modifyParameters",
      "outputs": [],
      "stateMutability": "nonpayable",
      "type": "function"
    },
    {
      "inputs": [],
      "name": "primaryTaxReceiver",
      "outputs": [
        {
          "internalType": "address",
          "name": "",
          "type": "address"
        }
      ],
      "stateMutability": "view",
      "type": "function"
    },
    {
      "inputs": [],
      "name": "safeEngine",
      "outputs": [
        {
          "internalType": "contract ISafeEngine",
          "name": "",
          "type": "address"
        }
      ],
      "stateMutability": "view",
      "type": "function"
    },
    {
      "inputs": [
        {
          "internalType": "bytes4",
          "name": "interfaceId",
          "type": "bytes4"
        }
      ],
      "name": "supportsInterface",
      "outputs": [
        {
          "internalType": "bool",
          "name": "",
          "type": "bool"
        }
      ],
      "stateMutability": "view",
      "type": "function"
    },
    {
      "inputs": [
        {
          "internalType": "bytes32",
          "name": "collateralType",
          "type": "bytes32"
        }
      ],
      "name": "taxSingle",
      "outputs": [
        {
          "internalType": "uint256",
          "name": "rate",
          "type": "uint256"
        }
      ],
      "stateMutability": "nonpayable",
      "type": "function"
    }
  ],
  "numDeployments": 3,
  "solcInputHash": "bf39d1579cb15455a9583613f66e6945",
  "bytecode": "0x6080604090808252346200012a5781816200114580380380916200002482856200012f565b8339810103126200012a57620000486020620000408362000169565b920162000169565b600080546001600160a01b039384166001600160a01b03199182168117835585516301ffc9a760e01b8152637965db0b60e01b60048201529194939290602090839060249082905afa9182156200011e578192620000d2575b505015620000c1571690600254161760025551610fc690816200017f8239f35b83516384d942fd60e01b8152600490fd5b9091506020813d821162000115575b81620000f0602093836200012f565b810103126200011157519081151582036200010e57503880620000a1565b80fd5b5080fd5b3d9150620000e1565b508551903d90823e3d90fd5b600080fd5b601f909101601f19168101906001600160401b038211908210176200015357604052565b634e487b7160e01b600052604160045260246000fd5b51906001600160a01b03821682036200012a5756fe60806040526004361015610013575b600080fd5b60003560e01c806301ffc9a7146101cb57806303ee9f22146101c257806341b3a0d9146101b9578063438280dd146101b05780635001f3b5146101a7578063542f76a61461019e5780635e412858146101955780636614f0101461018c57806367aea313146101835780636c50dbba1461017a57806371d0fb411461017157806375b238fc14610168578063894ba8331461015f5780638e5313e014610156578063bd5f5be61461014d578063d07900bb14610144578063d0e8fa821461013b578063d2351cee14610132578063d4b9311d14610129578063dc97e84e14610120578063e9c26518146101175763fe4f58901461010f57600080fd5b61000e6109e0565b5061000e6109b6565b5061000e61097a565b5061000e6108dd565b5061000e6108b3565b5061000e610877565b5061000e610841565b5061000e6107f5565b5061000e6107b9565b5061000e6106fe565b5061000e6106e1565b5061000e6106a5565b5061000e610501565b5061000e6104d7565b5061000e610421565b5061000e61036a565b5061000e610340565b5061000e610321565b5061000e6102e5565b5061000e6102c6565b5061000e61029c565b503461000e57602036600319011261000e5760043563ffffffff60e01b811680910361000e576000546040516301ffc9a760e01b815260048101929092526102469190602090829060249082906001600160a01b03165afa908115610278575b60009161024a575b5060405190151581529081906020820190565b0390f35b61026b915060203d8111610271575b6102638183610aa3565b810190610ac6565b38610233565b503d610259565b610280610b05565b61022b565b600091031261000e57565b6001600160a01b031690565b503461000e57600036600319011261000e576000546040516001600160a01b039091168152602090f35b503461000e57600036600319011261000e576020600554604051908152f35b503461000e57600036600319011261000e5760206040517f39f61ca2a1a28fee144218173ec637b649a353e4026b2738c673800e5bf1437b8152f35b503461000e57600036600319011261000e576020600454604051908152f35b503461000e57600036600319011261000e576003546040516001600160a01b039091168152602090f35b503461000e57602036600319011261000e5760008054604051632474521560e21b81526004810192909252336024830152602090829060449082906001600160a01b03165afa908115610403575b6000916103e5575b50156103d3576103d1600435610b3e565b005b604051631886ea7d60e11b8152600490fd5b6103fd915060203d8111610271576102638183610aa3565b386103c0565b61040b610b05565b6103b8565b6001600160a01b0381160361000e57565b503461000e57604036600319011261000e5760243561043f81610410565b600054610454906001600160a01b0316610290565b60206040518092632474521560e21b825281806104743360048301610ade565b03915afa9081156104ca575b6000916104ac575b501561049a576103d190600435610cbf565b60405163599a6c3360e11b8152600490fd5b6104c4915060203d8111610271576102638183610aa3565b38610488565b6104d2610b05565b610480565b503461000e57600036600319011261000e576002546040516001600160a01b039091168152602090f35b503461000e57602036600319011261000e5760043561052e600161052483610831565b0154421015610cfc565b61054161053c600254610290565b610290565b60405163d07900bb60e01b81526004810183905261010092908381602481865afa938415610698575b600094610661575b50506105b2836105ad61059160045461058a86610831565b5490610e82565b6105a7600161059f87610831565b015442610daf565b90610dc6565b610ee8565b916105c86105c1600354610290565b9484610ea4565b93813b1561000e57604051630e9e11d360e01b8152600481018490526001600160a01b03919091166024820152604481019490945261024693906000908290606490829084905af18015610654575b61063b575b5060016106294292610831565b01556040519081529081906020820190565b8061064861064e92610a7a565b80610285565b3861061c565b61065c610b05565b610617565b610681929450803d10610691575b6106798183610aa3565b810190610d54565b5050505050509050913880610572565b503d61066f565b6106a0610b05565b61056a565b503461000e57600036600319011261000e5760206040517f880a91047114272656e533301261260c75e4d11543ac7303d6fe4204579ec7278152f35b503461000e57600036600319011261000e57602060405160008152f35b503461000e576000806003193601126107b6578054610725906001600160a01b0316610290565b604051632474521560e21b8152600080516020610f71833981519152600482015233602482015290602090829060449082905afa9081156107a9575b829161078b575b501561077957610776610b12565b80f35b60405163bb0684b760e01b8152600490fd5b6107a3915060203d8111610271576102638183610aa3565b38610768565b6107b1610b05565b610761565b80fd5b503461000e57600036600319011261000e5760206040517fe453bacb314e78dcd5192e6b1a2b1f0e7c76e92f6b7e429a6a90f04e39db3b768152f35b503461000e57600036600319011261000e5760206040517f4f14c8366fa999817edc9f29824eb88a00cc31225e2156f399da4bc91049eb108152f35b6000526001602052604060002090565b503461000e57602036600319011261000e5760043560005260016020526040806000206001815491015482519182526020820152f35b503461000e57600036600319011261000e5760206040517f76d0567582f23e1e9d7a13eeba60f9aea9d69b8da87ca27a8bf3698b35c653db8152f35b503461000e57600036600319011261000e576020604051600080516020610f718339815191528152f35b503461000e57606036600319011261000e57600054610904906001600160a01b0316610290565b60206040518092632474521560e21b825281806109243360048301610ade565b03915afa90811561096d575b60009161094f575b501561049a576103d1604435602435600435610bbe565b610967915060203d8111610271576102638183610aa3565b38610938565b610975610b05565b610930565b503461000e57600036600319011261000e5760206040517f9a9aef7c1247d5fc769b0185c052913e39673da29a880317dfd20ebf86f26a498152f35b503461000e57600036600319011261000e576020604051600080516020610f518339815191528152f35b503461000e57604036600319011261000e57600054610a07906001600160a01b0316610290565b60206040518092632474521560e21b82528180610a273360048301610ade565b03915afa908115610a6d575b600091610a4f575b501561049a576103d1602435600435610cad565b610a67915060203d8111610271576102638183610aa3565b38610a3b565b610a75610b05565b610a33565b6001600160401b038111610a8d57604052565b634e487b7160e01b600052604160045260246000fd5b601f909101601f19168101906001600160401b03821190821017610a8d57604052565b9081602091031261000e5751801515810361000e5790565b600080516020610f5183398151915281526001600160a01b03909116602082015260400190565b506040513d6000823e3d90fd5b60006005557f2d4b4ecff7bd7503135271925520a2f6c0d98c9473ffc1a1e72c92502f51b25e600080a1565b600052600160205260406000208054610b6857676765c793fa10079d601b1b815542600190910155565b60405162461bcd60e51b815260206004820152602860248201527f546178436f6c6c6563746f722f636f6c6c61746572616c547970652d616c726560448201526718591e4b5a5b9a5d60c21b6064820152608490fd5b908160005260016020526001604060002001544203610c56576b73746162696c69747946656560a01b03610bf857610bf590610831565b55565b60405162461bcd60e51b815260206004820152603060248201527f546178436f6c6c6563746f722f6d6f64696679506172616d65746572732d756e60448201526f7265636f676e697a65642d706172616d60801b6064820152608490fd5b60405162461bcd60e51b815260206004820152602960248201527f546178436f6c6c6563746f722f6c617465737455706461746554696d652d6e6f6044820152681d0b5d5c19185d195960ba1b6064820152608490fd5b636261736560e01b03610bf857600455565b71383934b6b0b93caa30bc2932b1b2b4bb32b960711b03610bf857600380546001600160a01b0319166001600160a01b0392909216919091179055565b15610d0357565b60405162461bcd60e51b8152602060048201526024808201527f546178436f6c6c6563746f722f696e76616c69642d626c6f636b2d74696d6573604482015263074616d760e41b6064820152608490fd5b91908261010091031261000e5781519160208101519160408201519160608101519160808201519160a08101519160e060c0830151610d9281610410565b92015190565b50634e487b7160e01b600052601160045260246000fd5b91908203918211610dbc57565b610dc4610d98565b565b9091908015610e6757600183811615610e555781935b811c805b610de957505050565b828002928084040361000e57676765c793fa10079d601a1b9280840190811061000e57676765c793fa10079d601b1b9081900493828416610e2f575b5050811c80610de0565b8487929397029185830414158515151661000e57810190811061000e5704933880610e25565b676765c793fa10079d601b1b93610ddc565b509015610e7357600090565b676765c793fa10079d601b1b90565b9190820191828111610e97575b821061000e57565b610e9f610d98565b610e8f565b919060008082850392129182159285821216858213841617610edb575b9312159081610ed3575b501561000e57565b905038610ecb565b610ee3610d98565b610ec1565b9080820291808304821481151715610f43575b8115918215610f1d575b50501561000e57676765c793fa10079d601b1b900490565b9091610f2d578204143880610f05565b634e487b7160e01b600052601260045260246000fd5b610f4b610d98565b610efb56fe3b5d4cc60d3ec3516ee8ae083bd60934f6eb2a6c54b1229985c41bfb092b2603b0fdd1623e42dbffda4acd8bd643e1cb69f00f0e83abeaa8150ee42cf0fd105ea2646970667358221220b2df50418d6a0f814acaf658f8ef9f4293b8ae7df99be1c4d348db06125a8f6364736f6c63430008110033",
  "devdoc": {
    "kind": "dev",
    "methods": {
      "supportsInterface(bytes4)": {
        "details": "Returns true if this contract implements the interface defined by `interfaceId`. See the corresponding https://eips.ethereum.org/EIPS/eip-165#how-interfaces-are-identified[EIP section] to learn more about how these ids are created. This function call must use less than 30 000 gas."
      },
      "taxSingle(bytes32)": {
        "params": {
          "collateralType": "Collateral type to tax"
        }
      }
    },
    "version": 1
  },
  "userdoc": {
    "kind": "user",
    "methods": {
      "taxSingle(bytes32)": {
        "notice": "Collect tax from a single collateral type"
      }
    },
    "version": 1
  },
  "storageLayout": {
    "storage": [
      {
        "astId": 37448,
        "contract": "contracts/makerdao/core/TaxCollector.sol:TaxCollector",
        "label": "ACCESS_CONTROL_SINGLETON",
        "offset": 0,
        "slot": "0",
        "type": "t_contract(ISuAccessControl)41342"
      },
      {
        "astId": 30006,
        "contract": "contracts/makerdao/core/TaxCollector.sol:TaxCollector",
        "label": "collateralTypes",
        "offset": 0,
        "slot": "1",
        "type": "t_mapping(t_bytes32,t_struct(CollateralType)35213_storage)"
      },
      {
        "astId": 30009,
        "contract": "contracts/makerdao/core/TaxCollector.sol:TaxCollector",
        "label": "safeEngine",
        "offset": 0,
        "slot": "2",
        "type": "t_contract(ISafeEngine)35203"
      },
      {
        "astId": 30011,
        "contract": "contracts/makerdao/core/TaxCollector.sol:TaxCollector",
        "label": "primaryTaxReceiver",
        "offset": 0,
        "slot": "3",
        "type": "t_address"
      },
      {
        "astId": 30013,
        "contract": "contracts/makerdao/core/TaxCollector.sol:TaxCollector",
        "label": "base",
        "offset": 0,
        "slot": "4",
        "type": "t_uint256"
      },
      {
        "astId": 30032,
        "contract": "contracts/makerdao/core/TaxCollector.sol:TaxCollector",
        "label": "contractEnabled",
        "offset": 0,
        "slot": "5",
        "type": "t_uint256"
      }
    ],
    "types": {
      "t_address": {
        "encoding": "inplace",
        "label": "address",
        "numberOfBytes": "20"
      },
      "t_bytes32": {
        "encoding": "inplace",
        "label": "bytes32",
        "numberOfBytes": "32"
      },
      "t_contract(ISafeEngine)35203": {
        "encoding": "inplace",
        "label": "contract ISafeEngine",
        "numberOfBytes": "20"
      },
      "t_contract(ISuAccessControl)41342": {
        "encoding": "inplace",
        "label": "contract ISuAccessControl",
        "numberOfBytes": "20"
      },
      "t_mapping(t_bytes32,t_struct(CollateralType)35213_storage)": {
        "encoding": "mapping",
        "key": "t_bytes32",
        "label": "mapping(bytes32 => struct ITaxCollector.CollateralType)",
        "numberOfBytes": "32",
        "value": "t_struct(CollateralType)35213_storage"
      },
      "t_struct(CollateralType)35213_storage": {
        "encoding": "inplace",
        "label": "struct ITaxCollector.CollateralType",
        "members": [
          {
            "astId": 35210,
            "contract": "contracts/makerdao/core/TaxCollector.sol:TaxCollector",
            "label": "stabilityFee",
            "offset": 0,
            "slot": "0",
            "type": "t_uint256"
          },
          {
            "astId": 35212,
            "contract": "contracts/makerdao/core/TaxCollector.sol:TaxCollector",
            "label": "latestUpdateTime",
            "offset": 0,
            "slot": "1",
            "type": "t_uint256"
          }
        ],
        "numberOfBytes": "64"
      },
      "t_uint256": {
        "encoding": "inplace",
        "label": "uint256",
        "numberOfBytes": "32"
      }
    }
  }
}