{
  "address": "0x4ec5788FDfBc81bEC416e05bE927E4DDAC91d2f0",
  "abi": [
    {
      "inputs": [],
      "name": "AmountMustBeMoreThatMinimum",
      "type": "error"
    },
    {
      "inputs": [],
      "name": "BadAccessControlSingleton",
      "type": "error"
    },
    {
      "inputs": [
        {
          "internalType": "uint256",
          "name": "available",
          "type": "uint256"
        },
        {
          "internalType": "uint256",
          "name": "requested",
          "type": "uint256"
        }
      ],
      "name": "InsufficientStake",
      "type": "error"
    },
    {
      "inputs": [],
      "name": "NotStakerFound",
      "type": "error"
    },
    {
      "inputs": [],
      "name": "OnlyAdminError",
      "type": "error"
    },
    {
      "inputs": [],
      "name": "OnlyAlerterError",
      "type": "error"
    },
    {
      "inputs": [],
      "name": "OnlyDAOError",
      "type": "error"
    },
    {
      "inputs": [],
      "name": "OnlyDisablerAccessError",
      "type": "error"
    },
    {
      "inputs": [],
      "name": "OnlyLiquidationAccessError",
      "type": "error"
    },
    {
      "inputs": [],
      "name": "OnlyMintAccessError",
      "type": "error"
    },
    {
      "inputs": [],
      "name": "OnlyRewardAccessError",
      "type": "error"
    },
    {
      "inputs": [],
      "name": "OnlyRoleError",
      "type": "error"
    },
    {
      "inputs": [],
      "name": "OnlyVaultAccessError",
      "type": "error"
    },
    {
      "inputs": [],
      "name": "OnlyVotingEscrowError",
      "type": "error"
    },
    {
      "anonymous": false,
      "inputs": [
        {
          "indexed": false,
          "internalType": "uint8",
          "name": "version",
          "type": "uint8"
        }
      ],
      "name": "Initialized",
      "type": "event"
    },
    {
      "inputs": [],
      "name": "ACCESS_CONTROL_SINGLETON",
      "outputs": [
        {
          "internalType": "contract ISuAccessControl",
          "name": "",
          "type": "address"
        }
      ],
      "stateMutability": "view",
      "type": "function"
    },
    {
      "inputs": [],
      "name": "ADMIN_ROLE",
      "outputs": [
        {
          "internalType": "bytes32",
          "name": "",
          "type": "bytes32"
        }
      ],
      "stateMutability": "view",
      "type": "function"
    },
    {
      "inputs": [],
      "name": "ALERTER_ROLE",
      "outputs": [
        {
          "internalType": "bytes32",
          "name": "",
          "type": "bytes32"
        }
      ],
      "stateMutability": "view",
      "type": "function"
    },
    {
      "inputs": [],
      "name": "CDP_ACCESS_ROLE",
      "outputs": [
        {
          "internalType": "bytes32",
          "name": "",
          "type": "bytes32"
        }
      ],
      "stateMutability": "view",
      "type": "function"
    },
    {
      "inputs": [],
      "name": "DAO_ROLE",
      "outputs": [
        {
          "internalType": "bytes32",
          "name": "",
          "type": "bytes32"
        }
      ],
      "stateMutability": "view",
      "type": "function"
    },
    {
      "inputs": [],
      "name": "DISABLER_ROLE",
      "outputs": [
        {
          "internalType": "bytes32",
          "name": "",
          "type": "bytes32"
        }
      ],
      "stateMutability": "view",
      "type": "function"
    },
    {
      "inputs": [],
      "name": "LIQUIDATION_ACCESS_ROLE",
      "outputs": [
        {
          "internalType": "bytes32",
          "name": "",
          "type": "bytes32"
        }
      ],
      "stateMutability": "view",
      "type": "function"
    },
    {
      "inputs": [],
      "name": "MINT_ACCESS_ROLE",
      "outputs": [
        {
          "internalType": "bytes32",
          "name": "",
          "type": "bytes32"
        }
      ],
      "stateMutability": "view",
      "type": "function"
    },
    {
      "inputs": [],
      "name": "REWARD_ACCESS_ROLE",
      "outputs": [
        {
          "internalType": "bytes32",
          "name": "",
          "type": "bytes32"
        }
      ],
      "stateMutability": "view",
      "type": "function"
    },
    {
      "inputs": [],
      "name": "VOTING_ESCROW_ROLE",
      "outputs": [
        {
          "internalType": "bytes32",
          "name": "",
          "type": "bytes32"
        }
      ],
      "stateMutability": "view",
      "type": "function"
    },
    {
      "inputs": [
        {
          "internalType": "uint256",
          "name": "_minStakingAmount",
          "type": "uint256"
        }
      ],
      "name": "changeMinStakingAmount",
      "outputs": [],
      "stateMutability": "nonpayable",
      "type": "function"
    },
    {
      "inputs": [
        {
          "internalType": "uint256",
          "name": "newTopN",
          "type": "uint256"
        }
      ],
      "name": "changeTopN",
      "outputs": [],
      "stateMutability": "nonpayable",
      "type": "function"
    },
    {
      "inputs": [
        {
          "internalType": "address",
          "name": "_veToken",
          "type": "address"
        }
      ],
      "name": "changeVeToken",
      "outputs": [],
      "stateMutability": "nonpayable",
      "type": "function"
    },
    {
      "inputs": [],
      "name": "cleanExpiredTopStakers",
      "outputs": [],
      "stateMutability": "nonpayable",
      "type": "function"
    },
    {
      "inputs": [],
      "name": "getStakersLength",
      "outputs": [
        {
          "internalType": "uint256",
          "name": "",
          "type": "uint256"
        }
      ],
      "stateMutability": "view",
      "type": "function"
    },
    {
      "inputs": [],
      "name": "getTopStakers",
      "outputs": [
        {
          "internalType": "address[]",
          "name": "",
          "type": "address[]"
        }
      ],
      "stateMutability": "view",
      "type": "function"
    },
    {
      "inputs": [
        {
          "internalType": "address",
          "name": "_authControl",
          "type": "address"
        },
        {
          "internalType": "address",
          "name": "_veToken",
          "type": "address"
        }
      ],
      "name": "initialize",
      "outputs": [],
      "stateMutability": "nonpayable",
      "type": "function"
    },
    {
      "inputs": [
        {
          "internalType": "address",
          "name": "user",
          "type": "address"
        }
      ],
      "name": "isStaker",
      "outputs": [
        {
          "internalType": "bool",
          "name": "",
          "type": "bool"
        }
      ],
      "stateMutability": "view",
      "type": "function"
    },
    {
      "inputs": [
        {
          "internalType": "address",
          "name": "staker",
          "type": "address"
        }
      ],
      "name": "isTopStaker",
      "outputs": [
        {
          "internalType": "bool",
          "name": "",
          "type": "bool"
        }
      ],
      "stateMutability": "view",
      "type": "function"
    },
    {
      "inputs": [],
      "name": "minStakingAmount",
      "outputs": [
        {
          "internalType": "uint256",
          "name": "",
          "type": "uint256"
        }
      ],
      "stateMutability": "view",
      "type": "function"
    },
    {
      "inputs": [],
      "name": "subscribe",
      "outputs": [],
      "stateMutability": "nonpayable",
      "type": "function"
    },
    {
      "inputs": [
        {
          "internalType": "bytes4",
          "name": "interfaceId",
          "type": "bytes4"
        }
      ],
      "name": "supportsInterface",
      "outputs": [
        {
          "internalType": "bool",
          "name": "",
          "type": "bool"
        }
      ],
      "stateMutability": "view",
      "type": "function"
    },
    {
      "inputs": [],
      "name": "topN",
      "outputs": [
        {
          "internalType": "uint256",
          "name": "",
          "type": "uint256"
        }
      ],
      "stateMutability": "view",
      "type": "function"
    },
    {
      "inputs": [],
      "name": "unsubscribe",
      "outputs": [],
      "stateMutability": "nonpayable",
      "type": "function"
    },
    {
      "inputs": [
        {
          "internalType": "address",
          "name": "user",
          "type": "address"
        }
      ],
      "name": "unsubscribeOnBehalf",
      "outputs": [],
      "stateMutability": "nonpayable",
      "type": "function"
    },
    {
      "inputs": [],
      "name": "veToken",
      "outputs": [
        {
          "internalType": "contract VeTokenLike",
          "name": "",
          "type": "address"
        }
      ],
      "stateMutability": "view",
      "type": "function"
    }
  ],
  "numDeployments": 2,
  "solcInputHash": "fcdc1f7af3a8e7d7cf45fb429d7540e3",
  "bytecode": "0x6080806040523461001657611430908161001c8239f35b600080fdfe60806040908082526004918236101561001757600080fd5b600092833560e01c92836301ffc9a714610f5e5750826303287e6814610f2f57826303ee9f2214610f035782631639c10c14610e8357826325c065b114610e645782633841c5bf14610dc55782633b92eb2314610d9c5782634375995d14610d05578263438280dd14610cca578263485cc95514610a675782636f1e8533146109b657826370bb9a251461087457826371d0fb411461083957826375b238fc1461081e5782638e5313e0146107e35782638f449a051461046c5782639fabeb001461044d578263ba93c73c1461038b578263bd5f5be614610350578263d0e8fa8214610327578263d16538621461023857508163d2351cee146101fd578163dc97e84e146101c2578163e9c2651814610187578163ee9fd31c14610164575063fcae44841461014557600080fd5b3461016157806003193601126101615761015e336112a4565b80f35b80fd5b9050346101835781600319360112610183576020906005549051908152f35b5080fd5b905034610183578160031936011261018357602090517f3b5d4cc60d3ec3516ee8ae083bd60934f6eb2a6c54b1229985c41bfb092b26038152f35b905034610183578160031936011261018357602090517f9a9aef7c1247d5fc769b0185c052913e39673da29a880317dfd20ebf86f26a498152f35b905034610183578160031936011261018357602090517fb0fdd1623e42dbffda4acd8bd643e1cb69f00f0e83abeaa8150ee42cf0fd105e8152f35b909150346103235782600319360112610323576002546001600160a01b0390811690845b8183169283151580610318575b1561031457908260075416918651809363cbf9fe5f60e01b8252868883015281602460809687935afa90811561030a576102c9948a926102dd575b50508742910151109488526001602052836003888a20015416946102ce575b50611119565b61025c565b6102d7906112a4565b386102c3565b6102fc9250803d10610303575b6102f48183611042565b8101906112e7565b38806102a4565b503d6102ea565b88513d8b823e3d90fd5b8680f35b506005548210610269565b8280fd5b838234610183578160031936011261018357602090516000805160206113db8339815191528152f35b838234610183578160031936011261018357602090517f4f14c8366fa999817edc9f29824eb88a00cc31225e2156f399da4bc91049eb108152f35b90915034610323576020366003190112610323576103a7610ff6565b83548351632474521560e21b81526000805160206113db83398151915284820152336024820152919391906020908290604490829060101c6001600160a01b03165afa908115610443578591610415575b5015610408578361015e846112a4565b51631f4ead2d60e01b8152fd5b610436915060203d811161043c575b61042e8183611042565b810190611065565b386103f8565b503d610424565b82513d87823e3d90fd5b9091503461032357826003193601126103235760209250549051908152f35b91503461032357826003193601126103235760075481516370a0823160e01b8152338482015260209290916001600160a01b03919084908490602490829086165afa9283156107d95786936107a6575b5060065483111561079757816104d1336110ff565b5416610789575b6104e33315156110c1565b845461056e576003906104f53361107d565b6104fe3361109f565b80519461050a86611011565b338652850193845284019386855260608101948786528361052a336110ff565b9251169460018060a01b0319958684541617835551600183015583600283019151168582541617905501925116908254161790555b6105698154611119565b905580f35b6002959394929195908682541695865b888116151580610774575b156105a257600361059a8a926110ff565b01541661057e565b9091929496979395978482169081156000146106445750505060039183836105cc828254166110ff565b019560018060a01b031996338882541617905581855416928051946105f086611011565b3386528501988952840192835260608401978a89528261060f336110ff565b95511688865416178555516001850155830191511685825416179055019251169082541617905561063f3361109f565b61055f565b81036106d25750509082600381936106bf958754169380519161066683611011565b338352820198895281018a81526060820194855283610684336110ff565b9251169860018060a01b0319998a845416178355516001830155838883019151168982541617905501915116858254161790558254166110ff565b0190339082541617905561063f3361107d565b9160039082949786886106e861076599966110ff565b01541690836106f6836110ff565b0180546001600160a01b031990811633179091558a51909a909361071985611011565b338552840191825283019182526060830195865284610737336110ff565b9351168a845416178355516001830155838883019151168982541617905501915116858254161790556110ff565b0190339082541617905561055f565b50846001610781836110ff565b015411610589565b6107923361113e565b6104d8565b51632891f68760e21b81528490fd5b9092508381813d83116107d2575b6107be8183611042565b810103126107ce575191386104bc565b8580fd5b503d6107b4565b81513d88823e3d90fd5b838234610183578160031936011261018357602090517fe453bacb314e78dcd5192e6b1a2b1f0e7c76e92f6b7e429a6a90f04e39db3b768152f35b83823461018357816003193601126101835751908152602090f35b838234610183578160031936011261018357602090517f880a91047114272656e533301261260c75e4d11543ac7303d6fe4204579ec7278152f35b909150346103235782600319360112610323576005928354825481116109645761089d816113c3565b906108aa85519283611042565b8082526108b6816113c3565b9360209182840195601f19013687376002546001600160a01b039886918a165b8383106109185750505050508451948186019282875251809352850193925b8281106109025785850386f35b83518716855293810193928101926001016108f5565b8697959651831015610951578a600361093e838361094795168b8d89891b0101526110ff565b01541692611119565b91969594966108d6565b634e487b7160e01b865260328552602486fd5b835162461bcd60e51b8152602081850152602660248201527f526571756573746564206d6f726520656c656d656e7473207468616e20617661604482015265696c61626c6560d01b6064820152608490fd5b915034610323576020366003190112610323576109d1610ff6565b9160018060a01b03906080826007541691602485518094819363cbf9fe5f60e01b8352878a16908301525afa908115610a5d5790839160209691610a3f575b5001514211159283610a27575b5050519015158152f35b610a33919293506110ff565b54161515903880610a1d565b610a57915060803d8111610303576102f48183611042565b38610a10565b83513d87823e3d90fd5b90915034610323578160031936011261032357610a82610ff6565b916001600160a01b0391602435838116908190036107ce5785549160ff8360081c161592838094610cbd575b8015610ca6575b15610c4c5760ff198116600117885583610c3b575b5086549460ff8660081c1615610be45762010000600160b01b03601088901b1662010000600160b01b031987168117895596168015159081610b80575b50610b72575060018060a01b03196007541617600755601560055584600655610b2e578380f35b610100600160b01b0319909116909117825551600181527f7f26b83ff96e1f2b6a682f133852f6798a09c465da95921460cefb384740249890602090a13880808380f35b83516384d942fd60e01b8152fd5b85516301ffc9a760e01b8152637965db0b60e01b848201529150602090829060249082905afa908115610bda578891610bbc575b501538610b07565b610bd4915060203d811161043c5761042e8183611042565b38610bb4565b85513d8a823e3d90fd5b845162461bcd60e51b8152602081840152602b60248201527f496e697469616c697a61626c653a20636f6e7472616374206973206e6f74206960448201526a6e697469616c697a696e6760a81b6064820152608490fd5b61ffff191661010117875538610aca565b845162461bcd60e51b8152602081840152602e60248201527f496e697469616c697a61626c653a20636f6e747261637420697320616c72656160448201526d191e481a5b9a5d1a585b1a5e995960921b6064820152608490fd5b50303b158015610ab55750600160ff821614610ab5565b50600160ff821610610aae565b838234610183578160031936011261018357602090517f39f61ca2a1a28fee144218173ec637b649a353e4026b2738c673800e5bf1437b8152f35b9150346103235760203660031901126103235782548151632474521560e21b8152838101859052336024820152906020908290604490829060101c6001600160a01b03165afa908115610d92578491610d74575b5015610d6757503560065580f35b51631886ea7d60e11b8152fd5b610d8c915060203d811161043c5761042e8183611042565b38610d59565b82513d86823e3d90fd5b83823461018357816003193601126101835760075490516001600160a01b039091168152602090f35b9091503461032357602036600319011261032357610de1610ff6565b9060018060a01b03926044602085875460101c16835192838092632474521560e21b82528a888301523360248301525afa908115610e5a578691610e3c575b5015610d675750501660018060a01b0319600754161760075580f35b610e54915060203d811161043c5761042e8183611042565b38610e20565b82513d88823e3d90fd5b8382346101835781600319360112610183576020906006549051908152f35b9150346103235760203660031901126103235782548151632474521560e21b8152838101859052336024820152906020908290604490829060101c6001600160a01b03165afa908115610d92578491610ee5575b5015610d6757503560055580f35b610efd915060203d811161043c5761042e8183611042565b38610ed7565b8382346101835781600319360112610183579054905160109190911c6001600160a01b03168152602090f35b83823461018357602036600319011261018357602090610f55610f50610ff6565b611341565b90519015158152f35b925034610ff2576020366003190112610ff257803563ffffffff60e01b8116809103610fee5784546301ffc9a760e01b8552918401526020908390602490829060101c6001600160a01b03165afa918215610fe45760209392610fc5575b50519015158152f35b610fdd919250833d811161043c5761042e8183611042565b9038610fbc565b81513d85823e3d90fd5b8480fd5b8380fd5b600435906001600160a01b038216820361100c57565b600080fd5b608081019081106001600160401b0382111761102c57604052565b634e487b7160e01b600052604160045260246000fd5b601f909101601f19168101906001600160401b0382119082101761102c57604052565b9081602091031261100c5751801515810361100c5790565b600280546001600160a01b0319166001600160a01b0392909216919091179055565b600380546001600160a01b0319166001600160a01b0392909216919091179055565b156110c857565b60405162461bcd60e51b815260206004820152600f60248201526e496e76616c6964206164647265737360881b6044820152606490fd5b6001600160a01b0316600090815260016020526040902090565b60001981146111285760010190565b634e487b7160e01b600052601160045260246000fd5b6001600160a01b03908116906111558215156110c1565b6004541561126f576003600092838093828252600192836020526040918284209080845161118281611011565b83548216815287840154602082015260028401548216868201818152948a0154831660609092018281529190801561125557885260208990528688208a0180546001600160a01b03191690911790555b511691821561123d5751918552602086905283852060020180546001600160a01b031916919092161790555b8252826020528120918183558201558260028201550155600454908115611229575060001901600455565b634e487b7160e01b81526011600452602490fd5b5187546001600160a01b0319169116178655506111fe565b50600280546001600160a01b0319169190911790556111d2565b60405162461bcd60e51b815260206004820152600d60248201526c4c69737420697320656d70747960981b6044820152606490fd5b6001600160a01b036112b5826110ff565b5416156112c7576112c59061113e565b565b6040516306fceae360e01b8152600490fd5b519081600f0b820361100c57565b9081608091031261100c5760606040519161130183611011565b61130a816112d9565b8352611318602082016112d9565b60208401526040818101519084015201516001600160a01b038116810361100c57606082015290565b6001600160a01b0380611353836110ff565b5416156113bc576000918180600254165b16801515806113b1575b156113a857828216811461139f57600052600160205281611399816003604060002001541694611119565b93611364565b50505050600190565b50505050600090565b50600554841061136e565b5050600090565b6001600160401b03811161102c5760051b6020019056fe76d0567582f23e1e9d7a13eeba60f9aea9d69b8da87ca27a8bf3698b35c653dba26469706673582212205e8fb2fac63cba11fe45660c7ff3ccc60f45ce6736eda8984c6a51c0208b1c7d64736f6c63430008110033",
  "devdoc": {
    "kind": "dev",
    "methods": {
      "supportsInterface(bytes4)": {
        "details": "Returns true if this contract implements the interface defined by `interfaceId`. See the corresponding https://eips.ethereum.org/EIPS/eip-165#how-interfaces-are-identified[EIP section] to learn more about how these ids are created. This function call must use less than 30 000 gas."
      }
    },
    "version": 1
  },
  "userdoc": {
    "kind": "user",
    "methods": {
      "changeTopN(uint256)": {
        "notice": "Admin function to change number of top stakers*"
      },
      "cleanExpiredTopStakers()": {
        "notice": "Sometimes topStakers can be expired (lock date is over), this function remove such topStakers*"
      },
      "getStakersLength()": {
        "notice": "Returns the amount of subscribed users (stakers list length)*"
      },
      "getTopStakers()": {
        "notice": "Returns the list of users that are topStakers*"
      },
      "isStaker(address)": {
        "notice": "Returns if user is staker with not expired stake*"
      },
      "isTopStaker(address)": {
        "notice": "Returns if user is top staker or not*"
      },
      "subscribe()": {
        "notice": "User function to add yourself in stakers list to be able to be topStaker for liquidation*"
      },
      "unsubscribe()": {
        "notice": "User function to remove yourself from stakers list*"
      },
      "unsubscribeOnBehalf(address)": {
        "notice": "Function to remove user from stakers list, can be called only with onlyVotingEscrow role (for veToken)*"
      }
    },
    "version": 1
  },
  "storageLayout": {
    "storage": [
      {
        "astId": 79,
        "contract": "contracts/staking/contracts/TopStakers.sol:TopStakers",
        "label": "_initialized",
        "offset": 0,
        "slot": "0",
        "type": "t_uint8"
      },
      {
        "astId": 82,
        "contract": "contracts/staking/contracts/TopStakers.sol:TopStakers",
        "label": "_initializing",
        "offset": 1,
        "slot": "0",
        "type": "t_bool"
      },
      {
        "astId": 2507,
        "contract": "contracts/staking/contracts/TopStakers.sol:TopStakers",
        "label": "ACCESS_CONTROL_SINGLETON",
        "offset": 2,
        "slot": "0",
        "type": "t_contract(ISuAccessControl)2759"
      },
      {
        "astId": 2802,
        "contract": "contracts/staking/contracts/TopStakers.sol:TopStakers",
        "label": "stakers",
        "offset": 0,
        "slot": "1",
        "type": "t_struct(List)1939_storage"
      },
      {
        "astId": 2804,
        "contract": "contracts/staking/contracts/TopStakers.sol:TopStakers",
        "label": "topN",
        "offset": 0,
        "slot": "5",
        "type": "t_uint256"
      },
      {
        "astId": 2806,
        "contract": "contracts/staking/contracts/TopStakers.sol:TopStakers",
        "label": "minStakingAmount",
        "offset": 0,
        "slot": "6",
        "type": "t_uint256"
      },
      {
        "astId": 2809,
        "contract": "contracts/staking/contracts/TopStakers.sol:TopStakers",
        "label": "veToken",
        "offset": 0,
        "slot": "7",
        "type": "t_contract(VeTokenLike)2791"
      }
    ],
    "types": {
      "t_address": {
        "encoding": "inplace",
        "label": "address",
        "numberOfBytes": "20"
      },
      "t_bool": {
        "encoding": "inplace",
        "label": "bool",
        "numberOfBytes": "1"
      },
      "t_contract(ISuAccessControl)2759": {
        "encoding": "inplace",
        "label": "contract ISuAccessControl",
        "numberOfBytes": "20"
      },
      "t_contract(VeTokenLike)2791": {
        "encoding": "inplace",
        "label": "contract VeTokenLike",
        "numberOfBytes": "20"
      },
      "t_mapping(t_address,t_struct(Node)1927_storage)": {
        "encoding": "mapping",
        "key": "t_address",
        "label": "mapping(address => struct SortedLinkedList.Node)",
        "numberOfBytes": "32",
        "value": "t_struct(Node)1927_storage"
      },
      "t_struct(List)1939_storage": {
        "encoding": "inplace",
        "label": "struct SortedLinkedList.List",
        "members": [
          {
            "astId": 1932,
            "contract": "contracts/staking/contracts/TopStakers.sol:TopStakers",
            "label": "nodes",
            "offset": 0,
            "slot": "0",
            "type": "t_mapping(t_address,t_struct(Node)1927_storage)"
          },
          {
            "astId": 1934,
            "contract": "contracts/staking/contracts/TopStakers.sol:TopStakers",
            "label": "head",
            "offset": 0,
            "slot": "1",
            "type": "t_address"
          },
          {
            "astId": 1936,
            "contract": "contracts/staking/contracts/TopStakers.sol:TopStakers",
            "label": "tail",
            "offset": 0,
            "slot": "2",
            "type": "t_address"
          },
          {
            "astId": 1938,
            "contract": "contracts/staking/contracts/TopStakers.sol:TopStakers",
            "label": "size",
            "offset": 0,
            "slot": "3",
            "type": "t_uint256"
          }
        ],
        "numberOfBytes": "128"
      },
      "t_struct(Node)1927_storage": {
        "encoding": "inplace",
        "label": "struct SortedLinkedList.Node",
        "members": [
          {
            "astId": 1920,
            "contract": "contracts/staking/contracts/TopStakers.sol:TopStakers",
            "label": "key",
            "offset": 0,
            "slot": "0",
            "type": "t_address"
          },
          {
            "astId": 1922,
            "contract": "contracts/staking/contracts/TopStakers.sol:TopStakers",
            "label": "value",
            "offset": 0,
            "slot": "1",
            "type": "t_uint256"
          },
          {
            "astId": 1924,
            "contract": "contracts/staking/contracts/TopStakers.sol:TopStakers",
            "label": "prev",
            "offset": 0,
            "slot": "2",
            "type": "t_address"
          },
          {
            "astId": 1926,
            "contract": "contracts/staking/contracts/TopStakers.sol:TopStakers",
            "label": "next",
            "offset": 0,
            "slot": "3",
            "type": "t_address"
          }
        ],
        "numberOfBytes": "128"
      },
      "t_uint256": {
        "encoding": "inplace",
        "label": "uint256",
        "numberOfBytes": "32"
      },
      "t_uint8": {
        "encoding": "inplace",
        "label": "uint8",
        "numberOfBytes": "1"
      }
    }
  }
}