{
  "address": "0x8106DE5bF39B00e1247dBF33D28419210004257B",
  "abi": [
    {
      "inputs": [
        {
          "internalType": "address",
          "name": "_owner",
          "type": "address"
        },
        {
          "internalType": "address",
          "name": "_penaltyRecipient",
          "type": "address"
        },
        {
          "internalType": "address",
          "name": "_token",
          "type": "address"
        },
        {
          "internalType": "string",
          "name": "_name",
          "type": "string"
        },
        {
          "internalType": "string",
          "name": "_symbol",
          "type": "string"
        }
      ],
      "stateMutability": "nonpayable",
      "type": "constructor"
    },
    {
      "anonymous": false,
      "inputs": [
        {
          "indexed": false,
          "internalType": "uint256",
          "name": "amount",
          "type": "uint256"
        },
        {
          "indexed": true,
          "internalType": "address",
          "name": "recipient",
          "type": "address"
        }
      ],
      "name": "CollectPenalty",
      "type": "event"
    },
    {
      "anonymous": false,
      "inputs": [
        {
          "indexed": true,
          "internalType": "address",
          "name": "provider",
          "type": "address"
        },
        {
          "indexed": false,
          "internalType": "uint256",
          "name": "value",
          "type": "uint256"
        },
        {
          "indexed": false,
          "internalType": "uint256",
          "name": "locktime",
          "type": "uint256"
        },
        {
          "indexed": true,
          "internalType": "enum VotingEscrow.LockAction",
          "name": "action",
          "type": "uint8"
        },
        {
          "indexed": false,
          "internalType": "uint256",
          "name": "ts",
          "type": "uint256"
        }
      ],
      "name": "Deposit",
      "type": "event"
    },
    {
      "anonymous": false,
      "inputs": [
        {
          "indexed": true,
          "internalType": "address",
          "name": "owner",
          "type": "address"
        }
      ],
      "name": "TransferOwnership",
      "type": "event"
    },
    {
      "anonymous": false,
      "inputs": [],
      "name": "Unlock",
      "type": "event"
    },
    {
      "anonymous": false,
      "inputs": [
        {
          "indexed": true,
          "internalType": "address",
          "name": "blocklist",
          "type": "address"
        }
      ],
      "name": "UpdateBlocklist",
      "type": "event"
    },
    {
      "anonymous": false,
      "inputs": [
        {
          "indexed": true,
          "internalType": "address",
          "name": "recipient",
          "type": "address"
        }
      ],
      "name": "UpdatePenaltyRecipient",
      "type": "event"
    },
    {
      "anonymous": false,
      "inputs": [
        {
          "indexed": true,
          "internalType": "address",
          "name": "provider",
          "type": "address"
        },
        {
          "indexed": false,
          "internalType": "uint256",
          "name": "value",
          "type": "uint256"
        },
        {
          "indexed": true,
          "internalType": "enum VotingEscrow.LockAction",
          "name": "action",
          "type": "uint8"
        },
        {
          "indexed": false,
          "internalType": "uint256",
          "name": "ts",
          "type": "uint256"
        }
      ],
      "name": "Withdraw",
      "type": "event"
    },
    {
      "inputs": [],
      "name": "MAXTIME",
      "outputs": [
        {
          "internalType": "uint256",
          "name": "",
          "type": "uint256"
        }
      ],
      "stateMutability": "view",
      "type": "function"
    },
    {
      "inputs": [],
      "name": "MULTIPLIER",
      "outputs": [
        {
          "internalType": "uint256",
          "name": "",
          "type": "uint256"
        }
      ],
      "stateMutability": "view",
      "type": "function"
    },
    {
      "inputs": [],
      "name": "WEEK",
      "outputs": [
        {
          "internalType": "uint256",
          "name": "",
          "type": "uint256"
        }
      ],
      "stateMutability": "view",
      "type": "function"
    },
    {
      "inputs": [
        {
          "internalType": "address",
          "name": "_owner",
          "type": "address"
        }
      ],
      "name": "balanceOf",
      "outputs": [
        {
          "internalType": "uint256",
          "name": "",
          "type": "uint256"
        }
      ],
      "stateMutability": "view",
      "type": "function"
    },
    {
      "inputs": [
        {
          "internalType": "address",
          "name": "_owner",
          "type": "address"
        },
        {
          "internalType": "uint256",
          "name": "_blockNumber",
          "type": "uint256"
        }
      ],
      "name": "balanceOfAt",
      "outputs": [
        {
          "internalType": "uint256",
          "name": "",
          "type": "uint256"
        }
      ],
      "stateMutability": "view",
      "type": "function"
    },
    {
      "inputs": [],
      "name": "blocklist",
      "outputs": [
        {
          "internalType": "address",
          "name": "",
          "type": "address"
        }
      ],
      "stateMutability": "view",
      "type": "function"
    },
    {
      "inputs": [],
      "name": "checkpoint",
      "outputs": [],
      "stateMutability": "nonpayable",
      "type": "function"
    },
    {
      "inputs": [],
      "name": "collectPenalty",
      "outputs": [],
      "stateMutability": "nonpayable",
      "type": "function"
    },
    {
      "inputs": [
        {
          "internalType": "uint256",
          "name": "_value",
          "type": "uint256"
        },
        {
          "internalType": "uint256",
          "name": "_unlockTime",
          "type": "uint256"
        }
      ],
      "name": "createLock",
      "outputs": [],
      "stateMutability": "nonpayable",
      "type": "function"
    },
    {
      "inputs": [],
      "name": "decimals",
      "outputs": [
        {
          "internalType": "uint256",
          "name": "",
          "type": "uint256"
        }
      ],
      "stateMutability": "view",
      "type": "function"
    },
    {
      "inputs": [
        {
          "internalType": "address",
          "name": "_addr",
          "type": "address"
        }
      ],
      "name": "delegate",
      "outputs": [],
      "stateMutability": "nonpayable",
      "type": "function"
    },
    {
      "inputs": [
        {
          "internalType": "address",
          "name": "_addr",
          "type": "address"
        }
      ],
      "name": "forceUndelegate",
      "outputs": [],
      "stateMutability": "nonpayable",
      "type": "function"
    },
    {
      "inputs": [
        {
          "internalType": "address",
          "name": "_addr",
          "type": "address"
        }
      ],
      "name": "getLastUserPoint",
      "outputs": [
        {
          "internalType": "int128",
          "name": "bias",
          "type": "int128"
        },
        {
          "internalType": "int128",
          "name": "slope",
          "type": "int128"
        },
        {
          "internalType": "uint256",
          "name": "ts",
          "type": "uint256"
        }
      ],
      "stateMutability": "view",
      "type": "function"
    },
    {
      "inputs": [
        {
          "internalType": "uint256",
          "name": "end",
          "type": "uint256"
        }
      ],
      "name": "getPenaltyRate",
      "outputs": [
        {
          "internalType": "uint256",
          "name": "",
          "type": "uint256"
        }
      ],
      "stateMutability": "view",
      "type": "function"
    },
    {
      "inputs": [],
      "name": "globalEpoch",
      "outputs": [
        {
          "internalType": "uint256",
          "name": "",
          "type": "uint256"
        }
      ],
      "stateMutability": "view",
      "type": "function"
    },
    {
      "inputs": [
        {
          "internalType": "uint256",
          "name": "_value",
          "type": "uint256"
        }
      ],
      "name": "increaseAmount",
      "outputs": [],
      "stateMutability": "nonpayable",
      "type": "function"
    },
    {
      "inputs": [
        {
          "internalType": "uint256",
          "name": "_unlockTime",
          "type": "uint256"
        }
      ],
      "name": "increaseUnlockTime",
      "outputs": [],
      "stateMutability": "nonpayable",
      "type": "function"
    },
    {
      "inputs": [
        {
          "internalType": "address",
          "name": "_addr",
          "type": "address"
        }
      ],
      "name": "lockEnd",
      "outputs": [
        {
          "internalType": "uint256",
          "name": "",
          "type": "uint256"
        }
      ],
      "stateMutability": "view",
      "type": "function"
    },
    {
      "inputs": [
        {
          "internalType": "address",
          "name": "",
          "type": "address"
        }
      ],
      "name": "locked",
      "outputs": [
        {
          "internalType": "int128",
          "name": "amount",
          "type": "int128"
        },
        {
          "internalType": "int128",
          "name": "delegated",
          "type": "int128"
        },
        {
          "internalType": "uint96",
          "name": "end",
          "type": "uint96"
        },
        {
          "internalType": "address",
          "name": "delegatee",
          "type": "address"
        }
      ],
      "stateMutability": "view",
      "type": "function"
    },
    {
      "inputs": [],
      "name": "maxPenalty",
      "outputs": [
        {
          "internalType": "uint256",
          "name": "",
          "type": "uint256"
        }
      ],
      "stateMutability": "view",
      "type": "function"
    },
    {
      "inputs": [],
      "name": "name",
      "outputs": [
        {
          "internalType": "string",
          "name": "",
          "type": "string"
        }
      ],
      "stateMutability": "view",
      "type": "function"
    },
    {
      "inputs": [],
      "name": "owner",
      "outputs": [
        {
          "internalType": "address",
          "name": "",
          "type": "address"
        }
      ],
      "stateMutability": "view",
      "type": "function"
    },
    {
      "inputs": [],
      "name": "penaltyAccumulated",
      "outputs": [
        {
          "internalType": "uint256",
          "name": "",
          "type": "uint256"
        }
      ],
      "stateMutability": "view",
      "type": "function"
    },
    {
      "inputs": [],
      "name": "penaltyRecipient",
      "outputs": [
        {
          "internalType": "address",
          "name": "",
          "type": "address"
        }
      ],
      "stateMutability": "view",
      "type": "function"
    },
    {
      "inputs": [
        {
          "internalType": "uint256",
          "name": "",
          "type": "uint256"
        }
      ],
      "name": "pointHistory",
      "outputs": [
        {
          "internalType": "int128",
          "name": "bias",
          "type": "int128"
        },
        {
          "internalType": "int128",
          "name": "slope",
          "type": "int128"
        },
        {
          "internalType": "uint256",
          "name": "ts",
          "type": "uint256"
        },
        {
          "internalType": "uint256",
          "name": "blk",
          "type": "uint256"
        }
      ],
      "stateMutability": "view",
      "type": "function"
    },
    {
      "inputs": [],
      "name": "quitLock",
      "outputs": [],
      "stateMutability": "nonpayable",
      "type": "function"
    },
    {
      "inputs": [
        {
          "internalType": "uint256",
          "name": "",
          "type": "uint256"
        }
      ],
      "name": "slopeChanges",
      "outputs": [
        {
          "internalType": "int128",
          "name": "",
          "type": "int128"
        }
      ],
      "stateMutability": "view",
      "type": "function"
    },
    {
      "inputs": [],
      "name": "supply",
      "outputs": [
        {
          "internalType": "uint256",
          "name": "",
          "type": "uint256"
        }
      ],
      "stateMutability": "view",
      "type": "function"
    },
    {
      "inputs": [],
      "name": "symbol",
      "outputs": [
        {
          "internalType": "string",
          "name": "",
          "type": "string"
        }
      ],
      "stateMutability": "view",
      "type": "function"
    },
    {
      "inputs": [],
      "name": "token",
      "outputs": [
        {
          "internalType": "contract IERC20",
          "name": "",
          "type": "address"
        }
      ],
      "stateMutability": "view",
      "type": "function"
    },
    {
      "inputs": [],
      "name": "totalSupply",
      "outputs": [
        {
          "internalType": "uint256",
          "name": "",
          "type": "uint256"
        }
      ],
      "stateMutability": "view",
      "type": "function"
    },
    {
      "inputs": [
        {
          "internalType": "uint256",
          "name": "_blockNumber",
          "type": "uint256"
        }
      ],
      "name": "totalSupplyAt",
      "outputs": [
        {
          "internalType": "uint256",
          "name": "",
          "type": "uint256"
        }
      ],
      "stateMutability": "view",
      "type": "function"
    },
    {
      "inputs": [
        {
          "internalType": "address",
          "name": "_addr",
          "type": "address"
        }
      ],
      "name": "transferOwnership",
      "outputs": [],
      "stateMutability": "nonpayable",
      "type": "function"
    },
    {
      "inputs": [],
      "name": "unlock",
      "outputs": [],
      "stateMutability": "nonpayable",
      "type": "function"
    },
    {
      "inputs": [
        {
          "internalType": "address",
          "name": "_addr",
          "type": "address"
        }
      ],
      "name": "updateBlocklist",
      "outputs": [],
      "stateMutability": "nonpayable",
      "type": "function"
    },
    {
      "inputs": [
        {
          "internalType": "address",
          "name": "_addr",
          "type": "address"
        }
      ],
      "name": "updatePenaltyRecipient",
      "outputs": [],
      "stateMutability": "nonpayable",
      "type": "function"
    },
    {
      "inputs": [
        {
          "internalType": "address",
          "name": "",
          "type": "address"
        }
      ],
      "name": "userPointEpoch",
      "outputs": [
        {
          "internalType": "uint256",
          "name": "",
          "type": "uint256"
        }
      ],
      "stateMutability": "view",
      "type": "function"
    },
    {
      "inputs": [
        {
          "internalType": "address",
          "name": "",
          "type": "address"
        },
        {
          "internalType": "uint256",
          "name": "",
          "type": "uint256"
        }
      ],
      "name": "userPointHistory",
      "outputs": [
        {
          "internalType": "int128",
          "name": "bias",
          "type": "int128"
        },
        {
          "internalType": "int128",
          "name": "slope",
          "type": "int128"
        },
        {
          "internalType": "uint256",
          "name": "ts",
          "type": "uint256"
        },
        {
          "internalType": "uint256",
          "name": "blk",
          "type": "uint256"
        }
      ],
      "stateMutability": "view",
      "type": "function"
    },
    {
      "inputs": [],
      "name": "withdraw",
      "outputs": [],
      "stateMutability": "nonpayable",
      "type": "function"
    }
  ],
  "transactionHash": "0x2189a337ca78da6a7b11a5c198bf57b63d4710e1fd25e2249f122ebccb05585f",
  "args": [
    "0xB1A2C47AA400bDbfb46822A39843C0d91127864f",
    "0xB1A2C47AA400bDbfb46822A39843C0d91127864f",
    "0x8BE91C4f2add90179A0aa610aF7f03590E970565",
    "Voting Escrow SuDAO",
    "VeSuDAO"
  ],
  "numDeployments": 1,
  "solcInputHash": "3e34b7cdfcb2b752c6d40a74851c15ba",
  "bytecode": "0x60a060409080825234620004ef5762003b5c8038038091620000228285620004f4565b833981019060a081830312620004ef576200003d816200052e565b916020906200004e8284016200052e565b916200005c8685016200052e565b606085015190946001600160401b0391828111620004ef57846200008291830162000543565b936080820151838111620004ef576200009c920162000543565b60016000818155670de0b6b3a76400006003556001600160a01b0397881660808181528b519397949390810186811182821017620004db57908792918d528381528383820152428d820152606043910152826008554260095543600a558b519687809263313ce56760e01b82526004998a915afa908115620004d15783916200048e575b5060ff60129116806729a2241af62c000e55116200044c57835185811162000439576729a2241af62c000c908154958987811c971680156200042e575b848810146200041b578190601f97888111620003c8575b5084908883116001146200036457869262000358575b5050600019600383901b1c191690891b1790555b825194851162000345576729a2241af62c000d958654908882811c921680156200033a575b83831014620003275750908185879695949311620002ce575b5080938511600114620002675750926200025b575b5050600019600383901b1c191690831b1790555b8260018060a01b031994168482541617905516906002541617600255516135a19081620005bb82396080518181816101e2015281816108e201528181610fa5015281816112ba0152818161138b01526117fd0152f35b015190503880620001f1565b868252808220889650939291601f198616915b828210620002b457505084116200029a575b505050811b01905562000205565b015160001960f88460031b161c191690553880806200028c565b84840151865589979095019493840193908101906200027a565b9091929394508683528183208580880160051c8201928489106200031d575b9188978b9297969594930160051c01915b8281106200030e575050620001dc565b8481558897508a9101620002fe565b92508192620002ed565b634e487b7160e01b845260229052602483fd5b91607f1691620001c3565b634e487b7160e01b825260418652602482fd5b0151905038806200018a565b8487528587208c94509190601f198416885b88828210620003b1575050841162000397575b505050811b0190556200019e565b015160001960f88460031b161c1916905538808062000389565b8385015186558f9790950194938401930162000376565b9091508386528486208880850160051c82019287861062000411575b918d91869594930160051c01915b8281106200040257505062000174565b8881558594508d9101620003f2565b92508192620003e4565b634e487b7160e01b855260228952602485fd5b96607f16966200015d565b634e487b7160e01b835260418752602483fd5b856064918c519162461bcd60e51b8352820152601460248201527f45786365656473206d617820646563696d616c730000000000000000000000006044820152fd5b90508181813d8311620004c9575b620004a88183620004f4565b81010312620004c5575160ff81168103620004c55760ff62000120565b8280fd5b503d6200049c565b8c513d85823e3d90fd5b634e487b7160e01b84526041600452602484fd5b600080fd5b601f909101601f19168101906001600160401b038211908210176200051857604052565b634e487b7160e01b600052604160045260246000fd5b51906001600160a01b0382168203620004ef57565b919080601f84011215620004ef578251906001600160401b0382116200051857604051916020916200057f601f8301601f1916840185620004f4565b818452828287010111620004ef5760005b818110620005a657508260009394955001015290565b85810183015184820184015282016200059056fe608080604052600436101561001357600080fd5b60003560e01c908163012caae114611b0657508063047fc9aa14611ae8578063059f8b1614611ac557806306fdde0314611a1c57806315456eba1461161a57806318160ddd146115db578063237922791461158f578063313ce5671461156a57806334d901a4146114f7578063391cc9f6146113b857806339f22f6b1461133c5780633ccfd60b146111725780634684532e146111065780634ee2cd7e146110df5780635200e79e146110c15780635719098b146110a35780635c19a95c1461101557806370a0823114610ff257806375c54eda14610df05780637c616fe614610c2257806381fc83bb14610be15780638ad4c44714610b945780638da5cb5b14610b6b57806392e9352614610b3257806395d89b4114610a40578063981b24d014610a1a578063a69df4b5146109c8578063b52c05fe14610706578063c2c4c5c114610450578063c4698ee514610414578063cbf9fe5f146103a9578063d64e539614610380578063e489071114610314578063ee00ef3a146102f5578063f2fde38b14610288578063f4359ce51461026a578063f52a36f714610234578063f6ab9d81146102165763fc0c546a146101cc57600080fd5b34610211576000366003190112610211576040517f00000000000000000000000000000000000000000000000000000000000000006001600160a01b03168152602090f35b600080fd5b34610211576000366003190112610211576020600454604051908152f35b34610211576020366003190112610211576004356000526729a2241af62c000a6020526020604060002054600f0b604051908152f35b3461021157600036600319011261021157602060405162093a808152f35b34610211576020366003190112610211576102a1611bc7565b600154906001600160a01b03906102bb3383851614611c16565b166001600160a01b03199190911681176001557fcfaaa26691e16e66e73290fc725eee1a6b4e0e693a1640484937aac25ffb55a4600080a2005b346102115760003660031901126102115760206040516303c267008152f35b346102115760203660031901126102115761032d611bc7565b6001546001600160a01b0391906103479083163314611c16565b168060018060a01b031960025416176002557ff5fad27d0b1a5f45f08a652a1e4502d75974a852e28d3502d4a978b7cfd900ba600080a2005b34610211576000366003190112610211576005546040516001600160a01b039091168152602090f35b34610211576020366003190112610211576001600160a01b036103ca611bc7565b166000526729a2241af62c000b60205260806040600020600181549101546040519180600f0b8352831d600f0b602083015260018060601b038116604083015260601c6060820152f35b34610211576020366003190112610211576060610437610432611bc7565b611cab565b9060405192600f0b8352600f0b60208301526040820152f35b3461021157600036600319011261021157610469611c4f565b50610472611c4f565b5061047b611c4f565b5060075460405161048b81611b2a565b6000815260209060008282015242604082015243606082015290826106df575b604082019081519060608401918251906040516104c781611b2a565b600081526000848201526060604082019183835201928352600090865142116106a2575b6104f9839796959493612f7f565b936000975b60ff891061054b575b50505050505050505081600755670de0b6b3a76400008210156105355760036105339202600801611d67565b005b634e487b7160e01b600052603260045260246000fd5b62093a80869798999b95960180971161065357600096804281111561067b57505060008a816105b1429a8b935b6105a461059b61058d8a8401998a5198611d13565b96600f97880b90880b611d20565b8251870b611de2565b850b90528551840b611e07565b820b918285528d51900b12610673575b12610669575b50859386895285519a6105f9670de0b6b3a76400009c8d6105f26105ec88518d611d13565b89611daf565b0490611d37565b895260019182810180911161065357809c428a1460001461063157505050505050505050509050439052828080808080808080610507565b811015610535578b60036106489202600801611d67565b0197969594936104fe565b634e487b7160e01b600052601160045260246000fd5b600090528a6105c7565b818c526105c1565b9097506000526729a2241af62c000a8252600087816105b18d6040832054600f0b90610578565b90506106af855143611d13565b670de0b6b3a76400009080820291820403610653576106d9906106d3885142611d13565b90611dc2565b906104eb565b9050670de0b6b3a76400008210156105355761070060038302600801611c74565b906104ab565b3461021157604036600319011261021157600435610722612564565b60055460405163fbac395160e01b8152336004820152602092918390829060249082906001600160a01b03165afa80156109bc576107699160009161098f575b5015612449565b610774602435612f7f565b90336000526729a2241af62c000b928381526040600020916040519261079984611b2a565b8054936001600f9286840b83528583019660801d840b8752015493604082019560018060601b03988987168852606084019660601c87526107db861515612488565b8351850b61095c576107f28a8951168a10156124cb565b42891115610920576303c26700420196874211610653578a60008051602061352c833981519152996108a06108da9860019560009f8f610870916109169f918f9261083f90821115612510565b61084b83600654611d37565b6006558d6108608151880b94880b8095611e07565b870b90521686528951840b611e07565b820b885233808752600052885260408f2089518154608089901b8990039182169119161781559651900b86611d44565b511690828060601b0319905160601b161791015587604051916108c283611b2a565b81835282015287604082015287606082015233611e2c565b6109068130337f00000000000000000000000000000000000000000000000000000000000000006125ba565b604051918291339542918461254e565b0390a36001600055005b60405162461bcd60e51b815260048101849052601460248201527313db9b1e48199d5d1d5c99481b1bd8dac8195b9960621b6044820152606490fd5b60405162461bcd60e51b815260048101849052600b60248201526a4c6f636b2065786973747360a81b6044820152606490fd5b6109af9150843d86116109b5575b6109a78183611b5b565b810190612431565b84610762565b503d61099d565b6040513d6000823e3d90fd5b34610211576000366003190112610211576109ee60018060a01b03600154163314611c16565b60006003557f70e3fffea7bbb557facdee48ed7f7af5179030adef9ad0c876df039a718f359e600080a1005b34610211576020366003190112610211576020610a386004356133ec565b604051908152f35b34610211576000366003190112610211576040516000906729a2241af62c000d805490600182811c91818416938415610b28575b6020948585108114610b1257848752908115610af05750600114610ab3575b610aaf85610aa381890382611b5b565b60405191829182611b7e565b0390f35b6000908152838120939550925b828410610add5750505081610aaf93610aa3928201019385610a93565b8054858501870152928501928101610ac0565b60ff191686860152505050151560051b8201019150610aa381610aaf85610a93565b634e487b7160e01b600052602260045260246000fd5b92607f1692610a74565b346102115760203660031901126102115760206303c26700610b62610b5942600435611d13565b60035490611daf565b04604051908152f35b34610211576000366003190112610211576001546040516001600160a01b039091168152602090f35b3461021157602036600319011261021157600435670de0b6b3a7640000811015610211576003028060080154610aaf600a60098401549301546040519383859460801d90600f0b85611bf4565b34610211576020366003190112610211576001600160a01b03610c02611bc7565b166000526729a2241af62c00096020526020604060002054604051908152f35b346102115760208060031936011261021157610c3c612564565b60055460405163fbac395160e01b8152336004820152908290829060249082906001600160a01b03165afa80156109bc57610c7f91600091610dd3575015612449565b336000526729a2241af62c000b90818152604060002060405192610ca284611b2a565b600182549283600f0b86528486019360801d600f0b84520154936040810160018060601b03908187168152606083019660601c8752610ce2600435612f7f565b94610cf360008551600f0b136127f1565b610d01838351164210612827565b610d0f8383511687116124cb565b6303c26700420180421161065357600398600094610d316001938a1115612510565b8085511697818a1686523387528a5260408620938751848060801b031986541690858060801b031617855551600f0b94610d6b8686611d44565b511690828060601b0319905160601b161791015513610db3575b5050604051916000835282015242604082015260008051602061352c83398151915260603392a36001600055005b610dcc91610dc082612f26565b90604082015233611e2c565b8380610d85565b610dea9150833d85116109b5576109a78183611b5b565b83610762565b3461021157600036600319011261021157610e09612564565b336000526729a2241af62c000b806020526040600020604051610e2b81611b2a565b815490600f9282840b9283835260801d840b602083015260010154926040820193600160601b60019003938482168652606084019160601c8252600012610e71906127f1565b838551164210610e8090612827565b51610e95906001600160a01b0316331461290c565b81516006546001600160801b039182169691929190610eb5908890611d13565b600655610ec184612f26565b926000845260208401928351810b8651820b610edc91611de2565b810b8452606085019260008452336000526020526040600020918551600160801b600190031984541691161782558351900b610f189082611d44565b604084018051925160601b6001600160601b03191692871692909217600191909101556000908190529052610f4d9133611e2c565b4291511690610f5b91611d13565b600354610f6791611daf565b6303c267009004610f789082611daf565b670de0b6b3a764000090048060045490610f9191611d37565b600455610f9e9082611d13565b610fc990337f0000000000000000000000000000000000000000000000000000000000000000612949565b6040519081524260208201523360008051602061354c8339815191526040600593a36001600055005b34610211576020366003190112610211576020610a38611010611bc7565b612f99565b34610211576020366003190112610211576024611030611bc7565b611038612564565b60055460405163fbac395160e01b81523360048201529260209184919082906001600160a01b03165afa9182156109bc576110849261107f9160009161108b575015612449565b612987565b6001600055005b6109af915060203d81116109b5576109a78183611b5b565b34610211576000366003190112610211576020600754604051908152f35b34610211576000366003190112610211576020600354604051908152f35b34610211576040366003190112610211576020610a386110fd611bc7565b60243590613077565b346102115760203660031901126102115761111f611bc7565b6001546001600160a01b0391906111399083163314611c16565b168060018060a01b031960055416176005557fb089f68ad820a83477076ed7bca5d94c6a56c0c85e82b7ed8df87507a1d6198b600080a2005b346102115760003660031901126102115761118b612564565b336000526729a2241af62c000b602090808252600060408120604051906111b182611b2a565b80546001600f9282840b9283865260801d840b88860152015490604084016111f160018060601b039687938486168452606088019560601c8652136127f1565b511642106113045751600495936112b393909290916000919061121e906001600160a01b0316331461290c565b60018060801b03600181855116986112388a600654611d13565b60065561124486612f26565b96858852604088018681526112988b8a01966112678851820b8b51830b90611de2565b810b885260608b0194898652338a528d5260408920968b51878060801b031989541691161787558751900b86611d44565b511690828060601b0319905160601b16179101555233611e2c565b6112de82337f0000000000000000000000000000000000000000000000000000000000000000612949565b604051918252429082015260008051602061354c83398151915260403392a36001600055005b60405162461bcd60e51b815260048101879052601060248201526f131bd8dac81b9bdd08195e1c1a5c995960821b6044820152606490fd5b346102115760003660031901126102115760045460006004557fabef55bd3931568707a1758ae67679779c66d9deaa23e8bbad8974e421035d60602060018060a01b0360025416926113af81857f0000000000000000000000000000000000000000000000000000000000000000612949565b604051908152a2005b3461021157602080600319360112610211576113d2611bc7565b6005549091906001600160a01b0390811633036114c157821690816000526729a2241af62c000b928382526040600020926040519261141084611b2a565b600185549586600f0b9687875260801d600f0b83870152015490604085019160018060601b0390818116845260601c90606087019382855285831415806114b7575b61145857005b610533996114b2968a9661146a611c4f565b5052836000528452600160406000206040519561148687611b2a565b815480600f0b885260801d600f0b9087015201549182169182604086015260601c606085015252612d8f565b612e60565b5060008913611452565b60405162461bcd60e51b815260048101839052600e60248201526d13db9b1e48109b1bd8dadb1a5cdd60921b6044820152606490fd5b3461021157604036600319011261021157611510611bc7565b6001600160a01b031660009081526729a2241af62c000860205260409020602435633b9aca008110156102115761154691611bdd565b508054610aaf600260018401549301546040519383859460801d90600f0b85611bf4565b346102115760003660031901126102115760206729a2241af62c000e54604051908152f35b34610211576020366003190112610211576001600160a01b036115b0611bc7565b166000526729a2241af62c000b602052602060018060601b0360016040600020015416604051908152f35b3461021157600036600319011261021157600754670de0b6b3a764000081101561053557610a38611613600360209302600801611c74565b429061330a565b3461021157602036600319011261021157611633612564565b60055460405163fbac395160e01b81523360048201526001600160a01b03916020908290602490829086165afa80156109bc5761167891600091611a03575015612449565b336000526729a2241af62c000b602052604060002060405161169981611b2a565b600182549283600f0b8352602083019360801d600f0b8452015460018060601b038116604083015260601c606082015280926116d86004351515612488565b6116e860008351600f0b136127f1565b6040820151611701906001600160601b03164210612827565b61170f600435600654611d37565b600655606082015160408301516001600160601b03169391169160019190611735611c4f565b50338403611863575050506117f39060029361175081612f26565b918251600f0b611766600435600f0b8092611e07565b600f0b845261177d60208501918251600f0b611e07565b600f90810b82523360009081526729a2241af62c000b60205260409020855181546001600160801b0319166001600160801b0390911617815591516117c3910b82611d44565b6040840151606085810151901b6001600160601b0319166001600160601b03919091161760019190910155611e2c565b61182160043530337f00000000000000000000000000000000000000000000000000000000000000006125ba565b600882101561184d5760008051602061352c83398151915260405180610916339442906004358461254e565b634e487b7160e01b600052602160045260246000fd5b6117f3939295508061188160019251600f0b600435600f0b90611e07565b600f0b8152336000526729a2241af62c000b6020526118c06040600020938251848060801b031986541690858060801b031617855551600f0b84611d44565b818060601b036040820151169060608380821b031991015160601b16179101558060005260406000206119536040516118f881611b2a565b600183549384600f0b83528460801d600f0b6020840152015460018060601b038116604083015260601c606082015261193760008294600f0b13612862565b61194e4260018060601b03604084015116116128a6565b612f26565b9160068160008051602061352c8339815191526119fb60208701611980600435600f0b8251600f0b611e07565b600f90810b825260008581526729a2241af62c000b60205260409020895181546001600160801b0319166001600160801b0390911617815591516119c5910b82611d44565b60018060601b03604089015116906001808060601b031960608b015160601b1683179101556040519182914290600435846128eb565b0390a3611e2c565b610dea915060203d6020116109b5576109a78183611b5b565b34610211576000366003190112610211576040516000906729a2241af62c000c805490600182811c91818416938415611abb575b6020948585108114610b1257848752908115610af05750600114611a7e57610aaf85610aa381890382611b5b565b6000908152838120939550925b828410611aa85750505081610aaf93610aa3928201019385610a93565b8054858501870152928501928101611a8b565b92607f1692611a50565b34610211576000366003190112610211576020604051670de0b6b3a76400008152f35b34610211576000366003190112610211576020600654604051908152f35b34610211576000366003190112610211576002546001600160a01b03168152602090f35b608081019081106001600160401b03821117611b4557604052565b634e487b7160e01b600052604160045260246000fd5b601f909101601f19168101906001600160401b03821190821017611b4557604052565b6020808252825181830181905290939260005b828110611bb357505060409293506000838284010152601f8019910116010190565b818101860151848201604001528501611b91565b600435906001600160a01b038216820361021157565b90633b9aca00811015610535576003020190600090565b909493926060926080830196600f0b8352600f0b602083015260408201520152565b15611c1d57565b60405162461bcd60e51b815260206004820152600a60248201526927b7363c9037bbb732b960b11b6044820152606490fd5b60405190611c5c82611b2a565b60006060838281528260208201528260408201520152565b90604051611c8181611b2a565b606060028294805480600f0b855260801d600f0b6020850152600181015460408501520154910152565b6001600160a01b031660009081526729a2241af62c000960205260408120548015611d0c57611cec906040611cf2936729a2241af62c000860205220611bdd565b50611c74565b908151600f0b9060406020840151600f0b93015191929190565b5080918190565b9190820391821161065357565b90600f0b90600f0b029081600f0b91820361065357565b9190820180921161065357565b80546001600160801b031660809290921b6001600160801b031916919091179055565b815181546001600160801b0319166001600160801b039091161781556020820151909160029160609190611d9e90600f0b85611d44565b604081015160018501550151910155565b8181029291811591840414171561065357565b8115611dcc570490565b634e487b7160e01b600052601260045260246000fd5b600f91820b910b039060016001607f1b0319821260016001607f1b0383131761065357565b600f91820b910b019060016001607f1b0319821260016001607f1b0383131761065357565b9190611e36611c4f565b92611e3f611c4f565b9160009384926007549060018060a01b03169081612251575b604051611e6481611b2a565b60008152600060208201524260408201524360608201528161222c575b6040810151606082015160405190611e9882611b2a565b600082526000602083015260408201908382526060830152600092604085015142116121da575b929190611ecb84612f7f565b926000945b60ff8610612090575b5050505050508160075582612013575b670de0b6b3a7640000821015610535576003611f089202600801611d67565b611f15575b505050505050565b60408092019560018060601b0395428789511611611f9e575b50500193838551169042821115611f0d5751841610611f4f575b8080611f0d565b6020611f60920151600f0b90611de2565b91511660009081526729a2241af62c000a6020526040902080546001600160801b0319166001600160801b0390921691909117905538808080611f48565b6020611faf920151600f0b90611e07565b8583830151168688511614611ffc575b8651861660009081526729a2241af62c000a60205283902080546001600160801b0319166001600160801b03929092169190911790553880611f2e565b61200e906020860151600f0b90611de2565b611fbf565b600087602083016120428c602061203781855196015195600f96870b90870b611e07565b910151840b90611de2565b820b8152826120678d61205d8d8851870b9051870b90611e07565b9051850b90611de2565b830b928386528251900b12612087575b501215611ee95760008152611ee9565b82905238612077565b62093a808596989394950180961161065357869560009080428111156121aa57505060209660006120f881936120eb6120e26120d4429d8e975b0198895197611d13565b95600f96870b90870b611d20565b8d51860b611de2565b840b8c528551840b611e07565b820b918285528a51900b126121a2575b12612198575b50849185604088015260608501519761213f670de0b6b3a7640000998a6105f261213989518c611d13565b87611daf565b606089015260019182810180911161065357809942891460001461217757505050505050505050436060820152388080808080611ed9565b8110156105355788600361218e9202600801611d67565b0194939291611ed0565b600090523861210e565b818952612108565b6120f882996120eb6120e26120d4602060408960009a988b99526729a2241af62c000a83522054600f0b946120ca565b926121e9606086015143611d13565b90670de0b6b3a764000091808302928304036122185750612212906106d3604087015142611d13565b92611ebf565b634e487b7160e01b81526011600452602490fd5b50670de0b6b3a76400008110156105355761224c60038202600801611c74565b611e81565b604084810180516001600160601b03908116421080612421575b6123ef575b8286019942828c511611806123df575b6123a4575b8581526729a2241af62c000980602052848220549060018201809211612390578783526020528085832055848b01904282526122d960608d01914383528985526729a2241af62c0008602052878520611bdd565b92909261237c578c5183546001600160801b0319166001600160801b0390911617835560208d0151859488949093909260029261231990600f0b85611d44565b516001840155519101558285511681526729a2241af62c000a6020522054600f0b9a5116918261234d575b50505050611e58565b9091929397505116811460001461236c57505085935b38808080612344565b60005260002054600f0b93612363565b634e487b7160e01b84526004849052602484fd5b634e487b7160e01b83526011600452602483fd5b6123d56303c267006020890151600f0b05600f0b8060208d01526123cc8d8542915116611d13565b600f0b90611d20565b600f0b8a52612285565b50806020880151600f0b13612280565b61241760208c6303c26700828b0151600f0b05600f0b91829101526123cc4284865116611d13565b600f0b8b52612270565b50896020880151600f0b1361226b565b90816020910312610211575180151581036102115790565b1561245057565b60405162461bcd60e51b815260206004820152601060248201526f109b1bd8dad9590818dbdb9d1c9858dd60821b6044820152606490fd5b1561248f57565b60405162461bcd60e51b815260206004820152601460248201527313db9b1e481b9bdb881e995c9bc8185b5bdd5b9d60621b6044820152606490fd5b156124d257565b60405162461bcd60e51b815260206004820152601660248201527513db9b1e481a5b98dc99585cd9481b1bd8dac8195b9960521b6044820152606490fd5b1561251757565b60405162461bcd60e51b815260206004820152600f60248201526e45786365656473206d617874696d6560881b6044820152606490fd5b6040919493926060820195825260208201520152565b600260005414612575576002600055565b60405162461bcd60e51b815260206004820152601f60248201527f5265656e7472616e637947756172643a207265656e7472616e742063616c6c006044820152606490fd5b6040516323b872dd60e01b60208201526001600160a01b03928316602482015292909116604483015260648083019390935291815260a08101918183106001600160401b03841117611b455761261292604052612614565b565b604080516001600160401b0394936001600160a01b03909316929091820185811183821017611b45576040526020928383527f5361666545524332303a206c6f772d6c6576656c2063616c6c206661696c6564848401526000808386829551910182855af1903d1561274f573d96871161273b576126b3949596604051906126a588601f19601f8401160183611b5b565b81528093873d92013e61275c565b805190828215928315612723575b505050156126cc5750565b6084906040519062461bcd60e51b82526004820152602a60248201527f5361666545524332303a204552433230206f7065726174696f6e20646964206e6044820152691bdd081cdd58d8d9595960b21b6064820152fd5b6127339350820181019101612431565b3882816126c1565b634e487b7160e01b83526041600452602483fd5b91506126b3939495506060915b919290156127be5750815115612770575090565b3b156127795790565b60405162461bcd60e51b815260206004820152601d60248201527f416464726573733a2063616c6c20746f206e6f6e2d636f6e74726163740000006044820152606490fd5b8251909150156127d15750805190602001fd5b60405162461bcd60e51b81529081906127ed9060048301611b7e565b0390fd5b156127f857565b60405162461bcd60e51b81526020600482015260076024820152664e6f206c6f636b60c81b6044820152606490fd5b1561282e57565b60405162461bcd60e51b815260206004820152600c60248201526b131bd8dac8195e1c1a5c995960a21b6044820152606490fd5b1561286957565b60405162461bcd60e51b815260206004820152601560248201527444656c65676174656520686173206e6f206c6f636b60581b6044820152606490fd5b156128ad57565b60405162461bcd60e51b815260206004820152601660248201527511195b1959d85d1959481b1bd8dac8195e1c1a5c995960521b6044820152606490fd5b9081526001600160601b039091166020820152604081019190915260600190565b1561291357565b60405162461bcd60e51b815260206004820152600e60248201526d131bd8dac819195b1959d85d195960921b6044820152606490fd5b60405163a9059cbb60e01b60208201526001600160a01b0390921660248301526044808301939093529181526126129161298282611b2a565b612614565b6001600160a01b03818116338114612c6257336000526729a2241af62c000b602052604060002092604051936129bc85611b2a565b6001815491600f9280840b885260801d830b6020880152015460018060601b038116604087015260601c606086015284906024602086600554166040519283809263fbac395160e01b82528960048301525afa80156109bc57612a2791600091612c43575015612449565b612a3660008751830b136127f1565b6040860151612a4f906001600160601b03164210612827565b838560608801511614612c0a578551810b9460608701511695846000526729a2241af62c000b602052604060002094600160405196612a8d88611b2a565b805480860b895260801d850b602089015201546001600160601b0381166040880152606090811c81880152820152338703612b59575b506000612ad4918551900b13612862565b612aeb4260018060601b03604086015116116128a6565b604083810151908201516001600160601b03918216911611612b1557836114b29161261296612d8f565b60405162461bcd60e51b815260206004820152601c60248201527b4f6e6c792064656c656761746520746f206c6f6e676572206c6f636b60201b6044820152606490fd5b909150336000526729a2241af62c000b60205260016040600020918051828060801b031984541690838060801b0316178355612b9b6020820151850b84611d44565b818060601b036040820151169060608380821b031991015160601b161791015584600052612ad4600060408120600160405191612bd783611b2a565b805480870b845260801d860b602084015201546001600160601b0381166040830152606090811c90820152929150612ac3565b60405162461bcd60e51b8152602060048201526011602482015270105b1c9958591e4819195b1959d85d1959607a1b6044820152606490fd5b612c5c915060203d6020116109b5576109a78183611b5b565b38610762565b50919050336000526729a2241af62c000b91826020526040928360002091845191612c8c83611b2a565b600184549485600f0b9586865260801d600f0b6020860152015490868401612ccc600060018060601b03978886168452606088019560601c8652136127f1565b338484511614612d5557906126129697612d479493928651600f0b978895855116938460005260205282600020946001845196612d0888611b2a565b805480600f0b895260801d600f0b6020890152015493860193828116855260601c606087015233905280825116925116809210612d4d575b5050612d8f565b33612e60565b523880612d40565b875162461bcd60e51b8152602060048201526013602482015272105b1c9958591e481d5b99195b1959d85d1959606a1b6044820152606490fd5b91906000612d9c82612f26565b92604060076020860192612db4818551600f0b611de2565b600f0b845260008051602061354c83398151915260018060a01b038916938492815190600f0b8152426020820152a382526729a2241af62c000b60205260408220845181546001600160801b0319166001600160801b0382161782559151612e1f90600f0b82611d44565b6040850151606086810151901b6001600160601b0319166001600160601b03919091161760019190910155600f0b13612e5757505050565b61261292611e2c565b91906000612e6d82612f26565b926020840190612e81818351600f0b611e07565b600f0b825260016040860191818060601b039060068285511660008051602061352c833981519152858060a01b038c16938492612ec86040519283924291600f0b846128eb565b0390a385526729a2241af62c000b6020526040852092612f03885195848060801b031986541687868060801b031617865551600f0b85611d44565b5116818060601b0319606088015160601b1617910155600f0b13612e5757505050565b612f2e611c4f565b50805160408083015160608401516020909401519151936001600160a01b0316926001600160601b039091169190612f6585611b2a565b600f0b8452600f0b60208401526040830152606082015290565b62093a808091048181029181830414901517156106535790565b6001600160a01b031660009081526729a2241af62c00096020526040812054801561302e57611cec612fda916729a2241af62c000860205260408420611bdd565b908061300c83516130036020860151612ff7604088015142611d13565b600f0b90600f0b611d20565b90600f0b611de2565b600f0b80845212613026575b50516001600160801b031690565b815238613018565b5090565b1561303957565b60405162461bcd60e51b815260206004820152601660248201527527b7363c903830b9ba10313637b1b590373ab6b132b960511b6044820152606490fd5b9061308443821115613032565b60009160018060a01b0316908183526020926729a2241af62c000984526040928382205482905b60808210613219575b5050811561320f576130db91611cec916000526729a2241af62c0008865284600020611bdd565b92600754916130ea838261328a565b93670de0b6b3a7640000808610156105355761310b60038702600801611c74565b948610156131dd57600186018096116106535785101561053557612ff76131879461300393613141600360009902600801611c74565b90613166856131596060850151606087015190611d13565b9301518685015190611d13565b905b8584015193836131a8575b505050508751948801519288015190611d13565b600f81900b9283905291126131a2576001600160801b031690565b50600090565b6131ce926131c36131d496959360606131c994015190611d13565b90611daf565b611dc2565b90611d37565b38808080613173565b5060009450612ff784613003936131fb606061318798015143611d13565b906132098584015142611d13565b90613168565b5050505050600090565b9092818110156132845761322d8282611d37565b9060019182810180911161065357821c90846000526729a2241af62c0008895286600261325d848b600020611bdd565b5001541161326f5750935b01906130ab565b94925060001981019081116106535791613268565b926130b4565b6000919082915b608083106132a0575b50505090565b90919281811015613304576132b58282611d37565b9060019182810180911161065357821c90670de0b6b3a76400008210156105355760038202600a015485106132ef5750935b019190613291565b949250600019810190811161065357916132e7565b9261329a565b90604080830161331a8151612f7f565b926000935b60ff8510613350575b505050505060008151600f0b12613347575b516001600160801b031690565b6000815261333a565b62093a8081018091116106535760009080838111156133ce57505081945b8651602088019061339e825191613396600f9361338c8a518d611d13565b850b90850b611d20565b90830b611de2565b810b89528488146133c6576133b86001948351830b611e07565b900b9052858452019361331f565b505050613328565b918591969281526729a2241af62c000a6020522054600f0b9061336e565b6133f843821115613032565b60075490613406828261328a565b670de0b6b3a764000092838210156105355761342760038302600801611c74565b926060840194855182811161351f576000938510156134d0575060018401809411610653578310156105355761348f9461346960036134899502600801611c74565b8151606082019384518203613492575b50505050505b6040830151611d37565b9061330a565b90565b6134c69550916131c360406134ae6134bc946106d39796611d13565b92015160408a015190611d13565b9251905190611d13565b3880808080613479565b9050613489935061348f95914382036134ec575b50505061347f565b61351793506135016106d39261350f92611d13565b6131c3604088015142611d13565b915143611d13565b3880806134e4565b5050505050505060009056febe9cf0e939c614fad640a623a53ba0a807c8cb503c4c4c8dacabe27b86ff2dd5c6c74a68f89b63353b582f75a2009daefef14ef389fbf7e30edb6141f414f028a26469706673582212203d225699abbce55bdab3cb43f36e326166402fc44afb5bf505c4de5c8df11a8c64736f6c63430008110033",
  "devdoc": {
    "details": "Builds on Curve Finance's original VotingEscrow implementation (see https://github.com/curvefi/curve-dao-contracts/blob/master/contracts/VotingEscrow.vy) and mStable's Solidity translation thereof (see https://github.com/mstable/mStable-contracts/blob/master/contracts/governance/IncentivisedVotingLockup.sol) Usage of this contract is not safe with all tokens, specifically: - Contract does not support tokens with maxSupply>2^128-10^[decimals] - Contract does not support fee-on-transfer tokens - Contract may be unsafe for tokens with decimals<6",
    "kind": "dev",
    "methods": {
      "balanceOf(address)": {
        "params": {
          "_owner": "The address of the lock owner for which to return voting power"
        },
        "returns": {
          "_0": "Voting power of the lock"
        }
      },
      "balanceOfAt(address,uint256)": {
        "params": {
          "_blockNumber": "The block at which to calculate the lock's voting power",
          "_owner": "The address of the lock owner for which to return voting power"
        },
        "returns": {
          "_0": "uint256 Voting power of the lock"
        }
      },
      "constructor": {
        "params": {
          "_name": "The name of the voting token",
          "_owner": "Is assumed to be a timelock contract",
          "_penaltyRecipient": "The recipient of penalty paid by lock quitters",
          "_symbol": "The symbol of the voting token",
          "_token": "The token locked in order to obtain voting power"
        }
      },
      "createLock(uint256,uint256)": {
        "details": "`_value` is (unsafely) downcasted from `uint256` to `int128` and `_unlockTime` is (unsafely) downcasted from `uint256` to `uint96` assuming that the values never reach the respective max values",
        "params": {
          "_unlockTime": "Expiration time of the lock",
          "_value": "Amount of token to lock"
        }
      },
      "delegate(address)": {
        "params": {
          "_addr": "The address of the lock owner to which to delegate"
        }
      },
      "forceUndelegate(address)": {
        "details": "Only callable by the blocklist contract",
        "params": {
          "_addr": "user to which voting power is delegated"
        }
      },
      "getLastUserPoint(address)": {
        "params": {
          "_addr": "The address of the lock owner"
        },
        "returns": {
          "bias": "The last recorded virtual balance",
          "slope": "The last recorded linear decay",
          "ts": "The last recorded timestamp"
        }
      },
      "getPenaltyRate(uint256)": {
        "details": "The penalty rate decreases linearly at the same rate as a lock's voting power in order to compensate for votes unlocked without committing to the lock expiration",
        "params": {
          "end": "The lock's expiration"
        },
        "returns": {
          "_0": "The penalty rate applicable to the lock"
        }
      },
      "increaseAmount(uint256)": {
        "details": "Does not update the lock's expiration Does record a new checkpoint for the lock `_value` is (unsafely) downcasted from `uint256` to `int128` assuming that the max value is never reached in practice",
        "params": {
          "_value": "Amount of tokens to add to the lock"
        }
      },
      "increaseUnlockTime(uint256)": {
        "details": "Does not update the amount of tokens locked Does record a new checkpoint for the lock `_unlockTime` is (unsafely) downcasted from `uint256` to `uint96` assuming that the max value is never reached in practice",
        "params": {
          "_unlockTime": "New lock expiration time"
        }
      },
      "lockEnd(address)": {
        "params": {
          "_addr": "The address of the lock owner"
        },
        "returns": {
          "_0": "Expiration of the lock"
        }
      },
      "quitLock()": {
        "details": "Quitters lock expiration remains in place because it might be delegated to"
      },
      "totalSupply()": {
        "returns": {
          "_0": "Current totalSupply"
        }
      },
      "totalSupplyAt(uint256)": {
        "params": {
          "_blockNumber": "The block number at which to calculate total supply"
        },
        "returns": {
          "_0": "totalSupply of voting power at the given block number"
        }
      },
      "transferOwnership(address)": {
        "details": "Owner is assumed to be a timelock contract",
        "params": {
          "_addr": "The new owner"
        }
      },
      "unlock()": {
        "details": "This is an irreversible action and is assumed to be used in a migration to a new VotingEscrow contract only"
      }
    },
    "title": "Delegated Voting Escrow",
    "version": 1
  },
  "userdoc": {
    "kind": "user",
    "methods": {
      "balanceOf(address)": {
        "notice": "Get a lock's current voting power"
      },
      "balanceOfAt(address,uint256)": {
        "notice": "Get a lock's voting power at a given block number"
      },
      "checkpoint()": {
        "notice": "Records a new global checkpoint"
      },
      "collectPenalty()": {
        "notice": "Collect accumulated penalty from lock quitters Everyone can collect but penalty is sent to `penaltyRecipient`"
      },
      "constructor": {
        "notice": "Initializes state"
      },
      "createLock(uint256,uint256)": {
        "notice": "Creates a new lock"
      },
      "delegate(address)": {
        "notice": "Delegate lock and voting power to another lock The receiving lock needs to have a longer lock duration The delegated lock will inherit the receiving lock's expiration"
      },
      "forceUndelegate(address)": {
        "notice": "Remove delegation for blocked contract"
      },
      "getLastUserPoint(address)": {
        "notice": "Returns a lock's last available user point"
      },
      "getPenaltyRate(uint256)": {
        "notice": "Returns the penalty rate for a given lock expiration"
      },
      "increaseAmount(uint256)": {
        "notice": "Locks more tokens in an existing lock"
      },
      "increaseUnlockTime(uint256)": {
        "notice": "Extends the expiration of an existing lock"
      },
      "lockEnd(address)": {
        "notice": "Returns a lock's expiration"
      },
      "quitLock()": {
        "notice": "Quit an existing lock by withdrawing all tokens less a penalty Use `withdraw` for expired locks"
      },
      "totalSupply()": {
        "notice": "Calculate current total supply of voting power"
      },
      "totalSupplyAt(uint256)": {
        "notice": "Calculate total supply of voting power at a given block number"
      },
      "transferOwnership(address)": {
        "notice": "Transfers ownership to a new owner"
      },
      "unlock()": {
        "notice": "Removes quitlock penalty by setting it to zero"
      },
      "updateBlocklist(address)": {
        "notice": "Updates the blocklist contract"
      },
      "updatePenaltyRecipient(address)": {
        "notice": "Updates the recipient of the accumulated penalty paid by quitters"
      },
      "withdraw()": {
        "notice": "Withdraws the tokens of an expired lock Delegated locks need to be undelegated first"
      }
    },
    "notice": "An ERC20 token that allocates users a virtual balance depending on the amount of tokens locked and their remaining lock duration. The virtual balance decreases linearly with the remaining lock duration. This is the locking mechanism known from veCRV with additional features: - Delegation of lock and voting power - Quit an existing lock and pay a penalty - Optimistic approval of SmartWallets through Blocklist - Reduced pointHistory array size and, as a result, lifetime of the contract - Removed public deposit_for and Aragon compatibility (no use case)",
    "version": 1
  },
  "storageLayout": {
    "storage": [
      {
        "astId": 10,
        "contract": "contracts/staking/contracts/VotingEscrow.sol:VotingEscrow",
        "label": "_status",
        "offset": 0,
        "slot": "0",
        "type": "t_uint256"
      },
      {
        "astId": 990,
        "contract": "contracts/staking/contracts/VotingEscrow.sol:VotingEscrow",
        "label": "owner",
        "offset": 0,
        "slot": "1",
        "type": "t_address"
      },
      {
        "astId": 992,
        "contract": "contracts/staking/contracts/VotingEscrow.sol:VotingEscrow",
        "label": "penaltyRecipient",
        "offset": 0,
        "slot": "2",
        "type": "t_address"
      },
      {
        "astId": 995,
        "contract": "contracts/staking/contracts/VotingEscrow.sol:VotingEscrow",
        "label": "maxPenalty",
        "offset": 0,
        "slot": "3",
        "type": "t_uint256"
      },
      {
        "astId": 997,
        "contract": "contracts/staking/contracts/VotingEscrow.sol:VotingEscrow",
        "label": "penaltyAccumulated",
        "offset": 0,
        "slot": "4",
        "type": "t_uint256"
      },
      {
        "astId": 999,
        "contract": "contracts/staking/contracts/VotingEscrow.sol:VotingEscrow",
        "label": "blocklist",
        "offset": 0,
        "slot": "5",
        "type": "t_address"
      },
      {
        "astId": 1001,
        "contract": "contracts/staking/contracts/VotingEscrow.sol:VotingEscrow",
        "label": "supply",
        "offset": 0,
        "slot": "6",
        "type": "t_uint256"
      },
      {
        "astId": 1003,
        "contract": "contracts/staking/contracts/VotingEscrow.sol:VotingEscrow",
        "label": "globalEpoch",
        "offset": 0,
        "slot": "7",
        "type": "t_uint256"
      },
      {
        "astId": 1008,
        "contract": "contracts/staking/contracts/VotingEscrow.sol:VotingEscrow",
        "label": "pointHistory",
        "offset": 0,
        "slot": "8",
        "type": "t_array(t_struct(Point)1043_storage)1000000000000000000_storage"
      },
      {
        "astId": 1015,
        "contract": "contracts/staking/contracts/VotingEscrow.sol:VotingEscrow",
        "label": "userPointHistory",
        "offset": 0,
        "slot": "3000000000000000008",
        "type": "t_mapping(t_address,t_array(t_struct(Point)1043_storage)1000000000_storage)"
      },
      {
        "astId": 1019,
        "contract": "contracts/staking/contracts/VotingEscrow.sol:VotingEscrow",
        "label": "userPointEpoch",
        "offset": 0,
        "slot": "3000000000000000009",
        "type": "t_mapping(t_address,t_uint256)"
      },
      {
        "astId": 1023,
        "contract": "contracts/staking/contracts/VotingEscrow.sol:VotingEscrow",
        "label": "slopeChanges",
        "offset": 0,
        "slot": "3000000000000000010",
        "type": "t_mapping(t_uint256,t_int128)"
      },
      {
        "astId": 1028,
        "contract": "contracts/staking/contracts/VotingEscrow.sol:VotingEscrow",
        "label": "locked",
        "offset": 0,
        "slot": "3000000000000000011",
        "type": "t_mapping(t_address,t_struct(LockedBalance)1052_storage)"
      },
      {
        "astId": 1030,
        "contract": "contracts/staking/contracts/VotingEscrow.sol:VotingEscrow",
        "label": "name",
        "offset": 0,
        "slot": "3000000000000000012",
        "type": "t_string_storage"
      },
      {
        "astId": 1032,
        "contract": "contracts/staking/contracts/VotingEscrow.sol:VotingEscrow",
        "label": "symbol",
        "offset": 0,
        "slot": "3000000000000000013",
        "type": "t_string_storage"
      },
      {
        "astId": 1034,
        "contract": "contracts/staking/contracts/VotingEscrow.sol:VotingEscrow",
        "label": "decimals",
        "offset": 0,
        "slot": "3000000000000000014",
        "type": "t_uint256"
      }
    ],
    "types": {
      "t_address": {
        "encoding": "inplace",
        "label": "address",
        "numberOfBytes": "20"
      },
      "t_array(t_struct(Point)1043_storage)1000000000000000000_storage": {
        "base": "t_struct(Point)1043_storage",
        "encoding": "inplace",
        "label": "struct VotingEscrow.Point[1000000000000000000]",
        "numberOfBytes": "96000000000000000000"
      },
      "t_array(t_struct(Point)1043_storage)1000000000_storage": {
        "base": "t_struct(Point)1043_storage",
        "encoding": "inplace",
        "label": "struct VotingEscrow.Point[1000000000]",
        "numberOfBytes": "96000000000"
      },
      "t_int128": {
        "encoding": "inplace",
        "label": "int128",
        "numberOfBytes": "16"
      },
      "t_mapping(t_address,t_array(t_struct(Point)1043_storage)1000000000_storage)": {
        "encoding": "mapping",
        "key": "t_address",
        "label": "mapping(address => struct VotingEscrow.Point[1000000000])",
        "numberOfBytes": "32",
        "value": "t_array(t_struct(Point)1043_storage)1000000000_storage"
      },
      "t_mapping(t_address,t_struct(LockedBalance)1052_storage)": {
        "encoding": "mapping",
        "key": "t_address",
        "label": "mapping(address => struct VotingEscrow.LockedBalance)",
        "numberOfBytes": "32",
        "value": "t_struct(LockedBalance)1052_storage"
      },
      "t_mapping(t_address,t_uint256)": {
        "encoding": "mapping",
        "key": "t_address",
        "label": "mapping(address => uint256)",
        "numberOfBytes": "32",
        "value": "t_uint256"
      },
      "t_mapping(t_uint256,t_int128)": {
        "encoding": "mapping",
        "key": "t_uint256",
        "label": "mapping(uint256 => int128)",
        "numberOfBytes": "32",
        "value": "t_int128"
      },
      "t_string_storage": {
        "encoding": "bytes",
        "label": "string",
        "numberOfBytes": "32"
      },
      "t_struct(LockedBalance)1052_storage": {
        "encoding": "inplace",
        "label": "struct VotingEscrow.LockedBalance",
        "members": [
          {
            "astId": 1045,
            "contract": "contracts/staking/contracts/VotingEscrow.sol:VotingEscrow",
            "label": "amount",
            "offset": 0,
            "slot": "0",
            "type": "t_int128"
          },
          {
            "astId": 1047,
            "contract": "contracts/staking/contracts/VotingEscrow.sol:VotingEscrow",
            "label": "delegated",
            "offset": 16,
            "slot": "0",
            "type": "t_int128"
          },
          {
            "astId": 1049,
            "contract": "contracts/staking/contracts/VotingEscrow.sol:VotingEscrow",
            "label": "end",
            "offset": 0,
            "slot": "1",
            "type": "t_uint96"
          },
          {
            "astId": 1051,
            "contract": "contracts/staking/contracts/VotingEscrow.sol:VotingEscrow",
            "label": "delegatee",
            "offset": 12,
            "slot": "1",
            "type": "t_address"
          }
        ],
        "numberOfBytes": "64"
      },
      "t_struct(Point)1043_storage": {
        "encoding": "inplace",
        "label": "struct VotingEscrow.Point",
        "members": [
          {
            "astId": 1036,
            "contract": "contracts/staking/contracts/VotingEscrow.sol:VotingEscrow",
            "label": "bias",
            "offset": 0,
            "slot": "0",
            "type": "t_int128"
          },
          {
            "astId": 1038,
            "contract": "contracts/staking/contracts/VotingEscrow.sol:VotingEscrow",
            "label": "slope",
            "offset": 16,
            "slot": "0",
            "type": "t_int128"
          },
          {
            "astId": 1040,
            "contract": "contracts/staking/contracts/VotingEscrow.sol:VotingEscrow",
            "label": "ts",
            "offset": 0,
            "slot": "1",
            "type": "t_uint256"
          },
          {
            "astId": 1042,
            "contract": "contracts/staking/contracts/VotingEscrow.sol:VotingEscrow",
            "label": "blk",
            "offset": 0,
            "slot": "2",
            "type": "t_uint256"
          }
        ],
        "numberOfBytes": "96"
      },
      "t_uint256": {
        "encoding": "inplace",
        "label": "uint256",
        "numberOfBytes": "32"
      },
      "t_uint96": {
        "encoding": "inplace",
        "label": "uint96",
        "numberOfBytes": "12"
      }
    }
  }
}