{
  "address": "0x4274163619a3E4EA3C310a93C4B2f827F07FC5a4",
  "abi": [
    {
      "inputs": [],
      "name": "BadAccessControlSingleton",
      "type": "error"
    },
    {
      "inputs": [
        {
          "internalType": "address",
          "name": "sender",
          "type": "address"
        }
      ],
      "name": "BadSender",
      "type": "error"
    },
    {
      "inputs": [
        {
          "internalType": "address",
          "name": "lpToken",
          "type": "address"
        }
      ],
      "name": "LPTokenNotRegistered",
      "type": "error"
    },
    {
      "inputs": [
        {
          "internalType": "address",
          "name": "lpToken",
          "type": "address"
        }
      ],
      "name": "LPTokenNotSupported",
      "type": "error"
    },
    {
      "inputs": [
        {
          "internalType": "address",
          "name": "sender",
          "type": "address"
        }
      ],
      "name": "NotAPool",
      "type": "error"
    },
    {
      "inputs": [],
      "name": "OnlyAdminError",
      "type": "error"
    },
    {
      "inputs": [],
      "name": "OnlyAlerterError",
      "type": "error"
    },
    {
      "inputs": [],
      "name": "OnlyDAOError",
      "type": "error"
    },
    {
      "inputs": [],
      "name": "OnlyLiquidationAccessError",
      "type": "error"
    },
    {
      "inputs": [],
      "name": "OnlyMintAccessError",
      "type": "error"
    },
    {
      "inputs": [],
      "name": "OnlyRewardAccessError",
      "type": "error"
    },
    {
      "inputs": [],
      "name": "OnlyRoleError",
      "type": "error"
    },
    {
      "inputs": [],
      "name": "OnlyVaultAccessError",
      "type": "error"
    },
    {
      "inputs": [],
      "name": "SwapBy1InchError",
      "type": "error"
    },
    {
      "inputs": [],
      "name": "SwapByParaSwapError",
      "type": "error"
    },
    {
      "inputs": [],
      "name": "SwapNotProfitable",
      "type": "error"
    },
    {
      "anonymous": false,
      "inputs": [
        {
          "indexed": false,
          "internalType": "uint8",
          "name": "version",
          "type": "uint8"
        }
      ],
      "name": "Initialized",
      "type": "event"
    },
    {
      "inputs": [],
      "name": "ACCESS_CONTROL_SINGLETON",
      "outputs": [
        {
          "internalType": "contract ISuAccessControl",
          "name": "",
          "type": "address"
        }
      ],
      "stateMutability": "view",
      "type": "function"
    },
    {
      "inputs": [],
      "name": "ADMIN_ROLE",
      "outputs": [
        {
          "internalType": "bytes32",
          "name": "",
          "type": "bytes32"
        }
      ],
      "stateMutability": "view",
      "type": "function"
    },
    {
      "inputs": [],
      "name": "ALERTER_ROLE",
      "outputs": [
        {
          "internalType": "bytes32",
          "name": "",
          "type": "bytes32"
        }
      ],
      "stateMutability": "view",
      "type": "function"
    },
    {
      "inputs": [],
      "name": "DAO_ROLE",
      "outputs": [
        {
          "internalType": "bytes32",
          "name": "",
          "type": "bytes32"
        }
      ],
      "stateMutability": "view",
      "type": "function"
    },
    {
      "inputs": [],
      "name": "LIQUIDATION_ACCESS_ROLE",
      "outputs": [
        {
          "internalType": "bytes32",
          "name": "",
          "type": "bytes32"
        }
      ],
      "stateMutability": "view",
      "type": "function"
    },
    {
      "inputs": [],
      "name": "MINT_ACCESS_ROLE",
      "outputs": [
        {
          "internalType": "bytes32",
          "name": "",
          "type": "bytes32"
        }
      ],
      "stateMutability": "view",
      "type": "function"
    },
    {
      "inputs": [],
      "name": "REWARD_ACCESS_ROLE",
      "outputs": [
        {
          "internalType": "bytes32",
          "name": "",
          "type": "bytes32"
        }
      ],
      "stateMutability": "view",
      "type": "function"
    },
    {
      "inputs": [],
      "name": "VAULT_ACCESS_ROLE",
      "outputs": [
        {
          "internalType": "bytes32",
          "name": "",
          "type": "bytes32"
        }
      ],
      "stateMutability": "view",
      "type": "function"
    },
    {
      "inputs": [
        {
          "internalType": "bytes",
          "name": "data",
          "type": "bytes"
        },
        {
          "internalType": "uint256",
          "name": "newAmount",
          "type": "uint256"
        }
      ],
      "name": "changeCalldataAmount",
      "outputs": [
        {
          "internalType": "bytes",
          "name": "",
          "type": "bytes"
        }
      ],
      "stateMutability": "pure",
      "type": "function"
    },
    {
      "inputs": [
        {
          "internalType": "address",
          "name": "clipperExchange",
          "type": "address"
        },
        {
          "internalType": "address",
          "name": "srcToken",
          "type": "address"
        },
        {
          "internalType": "address",
          "name": "dstToken",
          "type": "address"
        },
        {
          "internalType": "uint256",
          "name": "inputAmount",
          "type": "uint256"
        },
        {
          "internalType": "uint256",
          "name": "outputAmount",
          "type": "uint256"
        },
        {
          "internalType": "uint256",
          "name": "goodUntil",
          "type": "uint256"
        },
        {
          "internalType": "bytes32",
          "name": "r",
          "type": "bytes32"
        },
        {
          "internalType": "bytes32",
          "name": "vs",
          "type": "bytes32"
        }
      ],
      "name": "clipperSwap",
      "outputs": [],
      "stateMutability": "pure",
      "type": "function"
    },
    {
      "inputs": [
        {
          "internalType": "address",
          "name": "_authControl",
          "type": "address"
        },
        {
          "internalType": "address",
          "name": "_exchange",
          "type": "address"
        }
      ],
      "name": "initialize",
      "outputs": [],
      "stateMutability": "nonpayable",
      "type": "function"
    },
    {
      "inputs": [
        {
          "internalType": "address",
          "name": "",
          "type": "address"
        }
      ],
      "name": "lpToAdapter",
      "outputs": [
        {
          "internalType": "contract ILPAdapter",
          "name": "",
          "type": "address"
        }
      ],
      "stateMutability": "view",
      "type": "function"
    },
    {
      "inputs": [
        {
          "internalType": "address",
          "name": "_lp",
          "type": "address"
        },
        {
          "internalType": "address",
          "name": "_lpAdapter",
          "type": "address"
        }
      ],
      "name": "registerLP",
      "outputs": [],
      "stateMutability": "nonpayable",
      "type": "function"
    },
    {
      "inputs": [
        {
          "internalType": "address",
          "name": "asset",
          "type": "address"
        },
        {
          "internalType": "uint256",
          "name": "amount",
          "type": "uint256"
        },
        {
          "internalType": "address",
          "name": "sender",
          "type": "address"
        },
        {
          "internalType": "bytes",
          "name": "data",
          "type": "bytes"
        }
      ],
      "name": "stableunitFillOrderCallback",
      "outputs": [
        {
          "internalType": "bool",
          "name": "",
          "type": "bool"
        }
      ],
      "stateMutability": "nonpayable",
      "type": "function"
    },
    {
      "inputs": [
        {
          "internalType": "bytes4",
          "name": "interfaceId",
          "type": "bytes4"
        }
      ],
      "name": "supportsInterface",
      "outputs": [
        {
          "internalType": "bool",
          "name": "",
          "type": "bool"
        }
      ],
      "stateMutability": "view",
      "type": "function"
    },
    {
      "inputs": [
        {
          "internalType": "address",
          "name": "",
          "type": "address"
        },
        {
          "components": [
            {
              "internalType": "address",
              "name": "srcToken",
              "type": "address"
            },
            {
              "internalType": "address",
              "name": "dstToken",
              "type": "address"
            },
            {
              "internalType": "address",
              "name": "srcReceiver",
              "type": "address"
            },
            {
              "internalType": "address",
              "name": "dstReceiver",
              "type": "address"
            },
            {
              "internalType": "uint256",
              "name": "amount",
              "type": "uint256"
            },
            {
              "internalType": "uint256",
              "name": "minReturnAmount",
              "type": "uint256"
            },
            {
              "internalType": "uint256",
              "name": "flags",
              "type": "uint256"
            }
          ],
          "internalType": "struct SwapDescription",
          "name": "",
          "type": "tuple"
        },
        {
          "internalType": "bytes",
          "name": "",
          "type": "bytes"
        },
        {
          "internalType": "bytes",
          "name": "",
          "type": "bytes"
        }
      ],
      "name": "swap",
      "outputs": [],
      "stateMutability": "pure",
      "type": "function"
    },
    {
      "inputs": [
        {
          "internalType": "uint256",
          "name": "orderId",
          "type": "uint256"
        },
        {
          "internalType": "address",
          "name": "token2sell",
          "type": "address"
        },
        {
          "internalType": "uint256",
          "name": "token2sellAmount",
          "type": "uint256"
        },
        {
          "components": [
            {
              "internalType": "address",
              "name": "contractAddress",
              "type": "address"
            },
            {
              "internalType": "bytes",
              "name": "data",
              "type": "bytes"
            },
            {
              "internalType": "address",
              "name": "token",
              "type": "address"
            }
          ],
          "internalType": "struct InchData[]",
          "name": "inchData",
          "type": "tuple[]"
        }
      ],
      "name": "swapLPWithFlashLoan",
      "outputs": [],
      "stateMutability": "nonpayable",
      "type": "function"
    },
    {
      "inputs": [
        {
          "internalType": "uint256",
          "name": "orderId",
          "type": "uint256"
        },
        {
          "internalType": "address",
          "name": "token2sell",
          "type": "address"
        },
        {
          "internalType": "uint256",
          "name": "token2sellAmount",
          "type": "uint256"
        },
        {
          "components": [
            {
              "internalType": "address",
              "name": "contractAddress",
              "type": "address"
            },
            {
              "internalType": "bytes",
              "name": "data",
              "type": "bytes"
            },
            {
              "internalType": "address",
              "name": "token",
              "type": "address"
            }
          ],
          "internalType": "struct InchData",
          "name": "inchData",
          "type": "tuple"
        }
      ],
      "name": "swapWithFlashLoan",
      "outputs": [],
      "stateMutability": "nonpayable",
      "type": "function"
    },
    {
      "inputs": [
        {
          "internalType": "uint256",
          "name": "",
          "type": "uint256"
        },
        {
          "internalType": "uint256",
          "name": "",
          "type": "uint256"
        },
        {
          "internalType": "uint256[]",
          "name": "",
          "type": "uint256[]"
        }
      ],
      "name": "uniswapV3Swap",
      "outputs": [],
      "stateMutability": "pure",
      "type": "function"
    },
    {
      "inputs": [
        {
          "internalType": "address",
          "name": "",
          "type": "address"
        },
        {
          "internalType": "uint256",
          "name": "",
          "type": "uint256"
        },
        {
          "internalType": "uint256",
          "name": "",
          "type": "uint256"
        },
        {
          "internalType": "uint256[]",
          "name": "",
          "type": "uint256[]"
        }
      ],
      "name": "unoswap",
      "outputs": [],
      "stateMutability": "pure",
      "type": "function"
    }
  ],
  "numDeployments": 1,
  "solcInputHash": "6bdb767f00e3f0fe0de7c63e7a48801d",
  "bytecode": "0x6080806040523461001657611cf6908161001c8239f35b600080fdfe608080604052600436101561001357600080fd5b60003560e01c90816301ffc9a71461114e5750806303ee9f22146111215780630502b1c5146110e857806312aa3caf1461108557806314c376dc1461104a5780631e61130614610ff3578063438280dd14610fb8578063485cc95514610d775780634dec53e014610d3c5780636a2f53c21461061d57806371d0fb41146105e257806374cc2bdd1461054457806375b238fc1461052857806384bd6d29146104fc5780638e5313e0146104c1578063943a0f131461033e578063dc97e84e14610303578063e37c74a11461016d578063e449022e1461013b5763e9c26518146100fb57600080fd5b346101365760003660031901126101365760206040517f3b5d4cc60d3ec3516ee8ae083bd60934f6eb2a6c54b1229985c41bfb092b26038152f35b600080fd5b34610136576060366003190112610136576044356001600160401b0381116101365761016b90369060040161122f565b005b34610136576080366003190112610136576004356101896111ef565b90604435906001600160401b0390606435828111610136576101af9036906004016113b4565b9060405194604086018681108582111761020d576040526001865260005b6020908181101561022357604051606092838201938285108986111761020d57602094604052600083528183015260006040830152828a010152016101cd565b634e487b7160e01b600052604160045260246000fd5b836102c3846102988b8b8a610237836114ff565b52610241826114ff565b506001546040516001600160a01b039791881693600092916102a691610266826112d4565b84825260209a8b99858b85015216604083015285606083015233608083015260a0820152604051968791898301611536565b03601f19810187528661130a565b604051637176836f60e11b8152968795869485936004850161160a565b03925af180156102f7576102d357005b813d83116102f0575b6102e6818361130a565b8101031261013657005b503d6102dc565b6040513d6000823e3d90fd5b346101365760003660031901126101365760206040517f9a9aef7c1247d5fc769b0185c052913e39673da29a880317dfd20ebf86f26a498152f35b34610136576040366003190112610136576103576111d9565b61035f6111ef565b9060018060a01b03908160005460101c16926040518094632474521560e21b82526000600483015233602483015281604460209788935afa9081156102f757600091610494575b50156104825782169181166000526002835260406000208260018060a01b0319825416179055604051908382019263095ea7b360e01b84526024830152600019604483015260448252608082019282841060018060401b0385111761020d576000809493819460405251925af161041b6114cf565b81610452575b501561042957005b6064906040519062461bcd60e51b825260048201526002602482015261534160f01b6044820152fd5b8051801592508390831561046a575b50505082610421565b61047a935082018101910161149c565b828281610461565b604051631886ea7d60e11b8152600490fd5b6104b49150853d87116104ba575b6104ac818361130a565b81019061149c565b856103a6565b503d6104a2565b346101365760003660031901126101365760206040517fe453bacb314e78dcd5192e6b1a2b1f0e7c76e92f6b7e429a6a90f04e39db3b768152f35b3461013657610100366003190112610136576105166111d9565b5061051f6111ef565b5061016b611205565b3461013657600036600319011261013657602060405160008152f35b34610136576080366003190112610136576004356105606111ef565b604435906064356001600160401b038111610136576102c39261058a61029892369060040161141c565b6001546040516001600160a01b03979188169392600092916102a6916105af826112d4565b6001825260209a8b99858b85015216604083015285606083015233608083015260a0820152604051968791898301611536565b346101365760003660031901126101365760206040517f880a91047114272656e533301261260c75e4d11543ac7303d6fe4204579ec7278152f35b34610136576080366003190112610136576106366111d9565b61063e611205565b906064356001600160401b0381116101365761065e90369060040161125f565b81019290602081850312610136578035906001600160401b038211610136570160c081850312610136576040519360c085016001600160401b0381118682101761020d5760405281358015158103610136578552602082013560208601526106c86040830161121b565b6040860152606082013560608601526106e36080830161121b565b608086015260a08201356001600160401b03811161013657610705920161141c565b60a08401526001546001600160a01b03163303610d24576001600160a01b0316308103610d0c57506040516370a0823160e01b8152306004820152906020826024816001600160a01b0385165afa9182156102f757600092610cd8575b50825115610c8a576040838101516001600160a01b039081166000908152600260205291909120541615610c6357604083810180516001600160a01b039081166000908152600260209081528482205493519451635136211760e01b8152948316600486015292849260249284929091165af19081156102f757600091610c44575b5015610c1d57604080840180516001600160a01b03908116600090815260026020528381205492516060880151945163f3fef3a360e01b8152979594919388939081169284928692849261083e92909116600484016114b4565b03925af19384156102f757600094610b22575b5060a0820151519184519460005b8661ffff82161015610a47576001600160a01b0361088161ffff831684611522565b51511690602061089561ffff831685611522565b5101516001600160a01b03861683036108b9575b506108b49150611626565b61085f565b86890361096e5761091b9060018060a01b036108dd61ffff851660a0890151611522565b515116600060206108f661ffff871660a08b0151611522565b51015160405180958192630f30898360e11b83526040600484015260448301906112af565b8560248301520381305afa9182156102f7576108b49561094394600094610949575b50611766565b886108a9565b6109679194503d806000833e61095f818361130a565b81019061164f565b928d61093d565b94919790959660005b8861ffff82161015610a36576001600160a01b0361099961ffff8a1687611522565b51511660018060a01b0360406109b761ffff851660a08b0151611522565b51015116146109ce576109c990611626565b610977565b95610a0a91989792999396600060206108f661ffff60018060a01b036109fb8c60a0848916910151611522565b515116941660a08b0151611522565b8560248301520381305afa9182156102f7576108b495610a31946000946109495750611766565b610943565b5096959097506108b4919450610943565b505092915092505b6040516370a0823160e01b8152306004820152906020826024816001600160a01b0388165afa80156102f757600090610aee575b610a8d92506116ad565b9160243591828410610adc57610abe610aa984610ad1966116ad565b6001549094906001600160a01b0316846116ba565b608001516001600160a01b0316906116ba565b602060405160018152f35b60405163510a529560e01b8152600490fd5b506020823d602011610b1a575b81610b086020938361130a565b8101031261013657610a8d9151610a83565b3d9150610afb565b9093503d806000833e610b35818361130a565b6020828281010312610136578151906001600160401b03821161013657808301601f838501011215610136578183015190610b6f8261132d565b93610b7d604051958661130a565b828552602085019382820160208560061b8385010101116101365793602085830101945b60208560061b82850101018610610bbf575050505050509284610851565b604086858501031261013657604080519081018082116001600160401b039091111761020d576040818101905286516001600160a01b03811681036101365760209382859260409452828a0151838201528152019601959150610ba1565b60408381015190516325eadd2560e01b81526001600160a01b039091166004820152602490fd5b610c5d915060203d6020116104ba576104ac818361130a565b846107e4565b6040838101519051637d250b0b60e11b81526001600160a01b039091166004820152602490fd5b6040830151606084015160a085015192949392610cd3926001600160a01b039081169291610cb7906114ff565b515116906020610cca60a08801516114ff565b51015192611766565b610a4f565b9091506020813d602011610d04575b81610cf46020938361130a565b8101031261013657519083610762565b3d9150610ce7565b60249060405190637d85130d60e11b82526004820152fd5b60405163e372835960e01b8152336004820152602490fd5b346101365760203660031901126101365760206001600160a01b0380610d606111d9565b166000526002825260406000205416604051908152f35b3461013657604036600319011261013657610d906111d9565b610d986111ef565b9060005460ff8160081c161590818092610fab575b8015610f94575b15610f385760ff19811660011760005581610f26575b506000549160ff8360081c1615610ecd5762010000600160b01b03601082901b1662010000600160b01b0319841681176000556040516301ffc9a760e01b8152637965db0b60e01b600482015290946001600160a01b03929091906020908290602490829087165afa9081156102f757600091610eaf575b5015610e9d571660018060a01b03196001541617600155610e5f57005b610100600160b01b03191617600055604051600181527f7f26b83ff96e1f2b6a682f133852f6798a09c465da95921460cefb384740249890602090a1005b6040516384d942fd60e01b8152600490fd5b610ec7915060203d81116104ba576104ac818361130a565b86610e42565b60405162461bcd60e51b815260206004820152602b60248201527f496e697469616c697a61626c653a20636f6e7472616374206973206e6f74206960448201526a6e697469616c697a696e6760a81b6064820152608490fd5b61ffff19166101011760005583610dca565b60405162461bcd60e51b815260206004820152602e60248201527f496e697469616c697a61626c653a20636f6e747261637420697320616c72656160448201526d191e481a5b9a5d1a585b1a5e995960921b6064820152608490fd5b50303b158015610db45750600160ff821614610db4565b50600160ff821610610dad565b346101365760003660031901126101365760206040517f39f61ca2a1a28fee144218173ec637b649a353e4026b2738c673800e5bf1437b8152f35b34610136576040366003190112610136576004356001600160401b0381116101365761103261102961104692369060040161125f565b602435916118c4565b6040519182916020835260208301906112af565b0390f35b346101365760003660031901126101365760206040517fe965846df3dd5b1dfa65f58e31477079e90140e0908b6dd31b5aead5a57cf3658152f35b34610136576101403660031901126101365761109f6111d9565b5060e0366023190112610136576001600160401b0361010435818111610136576110cd90369060040161125f565b5050610124359081116101365761016b90369060040161125f565b34610136576080366003190112610136576111016111d9565b506064356001600160401b0381116101365761016b90369060040161122f565b346101365760003660031901126101365760005460405160109190911c6001600160a01b03168152602090f35b346101365760203660031901126101365760043563ffffffff60e01b8116809103610136576000546301ffc9a760e01b835260048301919091526020908290602490829060101c6001600160a01b03165afa80156102f7576020916000916111bc575b506040519015158152f35b6111d39150823d81116104ba576104ac818361130a565b826111b1565b600435906001600160a01b038216820361013657565b602435906001600160a01b038216820361013657565b604435906001600160a01b038216820361013657565b35906001600160a01b038216820361013657565b9181601f84011215610136578235916001600160401b038311610136576020808501948460051b01011161013657565b9181601f84011215610136578235916001600160401b038311610136576020838186019501011161013657565b60005b83811061129f5750506000910152565b818101518382015260200161128f565b906020916112c88151809281855285808601910161128c565b601f01601f1916010190565b60c081019081106001600160401b0382111761020d57604052565b60e081019081106001600160401b0382111761020d57604052565b601f909101601f19168101906001600160401b0382119082101761020d57604052565b6001600160401b03811161020d5760051b60200190565b6001600160401b03811161020d57601f01601f191660200190565b92919261136b82611344565b91611379604051938461130a565b829481845281830111610136578281602093846000960137010152565b9080601f83011215610136578160206113b19335910161135f565b90565b91909160608184031261013657604051906001600160401b03606083018181118482101761020d5760405282946113ea8361121b565b84526020830135918211610136578261140c6040949261141794869401611396565b60208601520161121b565b910152565b9080601f83011215610136578135906114348261132d565b92611442604051948561130a565b828452602092838086019160051b8301019280841161013657848301915b8483106114705750505050505090565b82356001600160401b038111610136578691611491848480948901016113b4565b815201920191611460565b90816020910312610136575180151581036101365790565b6001600160a01b039091168152602081019190915260400190565b3d156114fa573d906114e082611344565b916114ee604051938461130a565b82523d6000602084013e565b606090565b80511561150c5760200190565b634e487b7160e01b600052603260045260246000fd5b805182101561150c5760209160051b010190565b602080825260e0820190835115158184015280840151926040938482015260018060a01b039360a08582880151169660609788850152878101516080850152866080820151168285015201519560c08084015286518095526101009184838501938760051b8601019801966000945b8786106115b85750505050505050505090565b909192939495969798878060019260ff198582030189528c51908682511681528787816115f0868601518d888701528d8601906112af565b940151169101529b019601960194979695939291906115a5565b6113b193926060928252602082015281604082015201906112af565b61ffff8091169081146116395760010190565b634e487b7160e01b600052601160045260246000fd5b602081830312610136578051906001600160401b038211610136570181601f8201121561013657805161168181611344565b9261168f604051948561130a565b81845260208284010111610136576113b1916020808501910161128c565b9190820391821161163957565b60009291836116e56116f38295604051928391602083019663a9059cbb60e01b8852602484016114b4565b03601f19810183528261130a565b51925af16116ff6114cf565b81611737575b501561170d57565b60405162461bcd60e51b815260206004820152600260248201526114d560f21b6044820152606490fd5b805180159250821561174c575b505038611705565b61175f925060208091830101910161149c565b3880611744565b929060405161178b816116e5602082019463095ea7b360e01b865287602484016114b4565b600094859283809351925af161179f6114cf565b81611803575b50156117d957829182602083519301915af16117bf6114cf565b50156117c757565b604051635aa0560760e11b8152600490fd5b60405162461bcd60e51b8152602060048201526002602482015261534160f01b6044820152606490fd5b8051801592508215611818575b5050386117a5565b61182b925060208091830101910161149c565b3880611810565b81601f82011215610136578035916118498361132d565b92611857604051948561130a565b808452602092838086019260051b820101928311610136578301905b828210611881575050505090565b81358152908301908301611873565b90815180825260208080930193019160005b8281106118b0575050505090565b8351855293810193928101926001016118a2565b90600481811193846101365783356001600160e01b03191694637224811760e11b808714611c4d5750630502b1c560e01b868114611bc957506312aa3caf60e01b86146119f0576384bd6d2960e01b958614611929575050506113b19250369161135f565b93929091936101365761010090830183900360031901126101365761194f83830161121b565b61195b6024840161121b565b906119686044850161121b565b9060405196602088015260018060a01b03928380921660248901521660448701521660648501526084840152600160a484015260a481013560c484015260c481013560e484015260e461010491013581840152825261014082019082821060018060401b038311176119db575060405290565b604190634e487b7160e01b6000525260246000fd5b90929193945061013657830191838303916101406003198401126101365760e0611a1b83870161121b565b9360231901126101365760405190611a32826112ef565b611a3e6024870161121b565b8252611a4c6044870161121b565b9560208301968752611a606064820161121b565b60408401908152611a736084830161121b565b6060850190815260a4830135608086015260c483013560a086015260e483013560c086019081526001600160401b039491610104850135868111610136578a89611abf92880101611396565b94610124810135968711610136576113b19a6116e599611bb698611ae4930101611396565b96519a519351905191516040519b90946001600160a01b0393841693928316929081169116611b128d6112ef565b8c526020808d019182526040808e0193845260608e0194855260808e01958652600160a08f0190815260c08f0197885290516312aa3caf60e01b928101929092526001600160a01b039b8c1660248301529c518b16604482015290518a166064820152905189166084820152905190971660a48801525160c4870152965160e4860152955161010485015261014061012485015292948593906101648501906112af565b83810360231901610144850152906112af565b939192949550610136578401906080858303600319011261013657611bef84860161121b565b946064810135926001600160401b038411610136576113b1956116e594611c17930101611832565b90604051958694602086015260018060a01b031660248501526044840152600160648401526080608484015260a4830190611890565b94939195505060009083019260606003198286030112611cbc576044810135916001600160401b038311611cb95750926116e592611c91926113b196950101611832565b6040519485936020850152602484015260016044840152606060648401526084830190611890565b80fd5b5080fdfea2646970667358221220c26ee0eaa7a1c46114982430675f3552f36a0cb845981faa9ae4e0c97953365564736f6c63430008110033",
  "devdoc": {
    "details": "See IArbitrageHelper interface for full details.",
    "kind": "dev",
    "methods": {
      "changeCalldataAmount(bytes,uint256)": {
        "params": {
          "data": "- calldata to edit",
          "newAmount": "- new amount that should replace amount in {data}"
        },
        "returns": {
          "_0": "edited calldata with new amount inside*"
        }
      },
      "stableunitFillOrderCallback(address,uint256,address,bytes)": {
        "details": "behaviour like in uniswapV3FlashCallback: https://docs.uniswap.org/contracts/v3/guides/flash-integrations/flash-callback and AAVE flash-loan callback: https://github.com/aave/aave-v3-core/blob/master/contracts/flashloan/interfaces/IFlashLoanSimpleReceiver.sol*"
      },
      "supportsInterface(bytes4)": {
        "details": "Returns true if this contract implements the interface defined by `interfaceId`. See the corresponding https://eips.ethereum.org/EIPS/eip-165#how-interfaces-are-identified[EIP section] to learn more about how these ids are created. This function call must use less than 30 000 gas."
      },
      "swapLPWithFlashLoan(uint256,address,uint256,(address,bytes,address)[])": {
        "details": "Contract receive LP-token from exchange module, unwrap it and swap with 1inch all underline tokens to token that exchange module need.",
        "params": {
          "inchData": "- 1inch callData and contract array to swap every underline token of LP*",
          "orderId": "- Id of order in Exchange module to fill",
          "token2sell": "- Token in order to get as flash-loan",
          "token2sellAmount": "- Amount of token in order to get as flash-loan"
        }
      },
      "swapWithFlashLoan(uint256,address,uint256,(address,bytes,address))": {
        "details": "Contract receive loan from exchange module, sell it on 1inch and get profit = received amount - fee",
        "params": {
          "inchData": "- 1inch callData and contract to swap loan*",
          "orderId": "- Id of order in Exchange module to fill",
          "token2sell": "- Token in order to get as flash-loan",
          "token2sellAmount": "- Amount of token in order to get as flash-loan"
        }
      }
    },
    "title": "ArbitrageHelper",
    "version": 1
  },
  "userdoc": {
    "kind": "user",
    "methods": {
      "changeCalldataAmount(bytes,uint256)": {
        "notice": "Helper function to change amount parameter on callback that depends on return by 1inch API calldata for swap We set minAmount to 1 to be sure, that swap will be created. Route path don't depend on that - this path was calculated previously in backend part and is stored in {data}."
      },
      "stableunitFillOrderCallback(address,uint256,address,bytes)": {
        "notice": "This is callback function from Exchange contract. fillOrderAsFlashLoan call (msg.sender).executeOperation(...) after transferring loan to sender"
      },
      "swapLPWithFlashLoan(uint256,address,uint256,(address,bytes,address)[])": {
        "notice": "The same as swapWithFlashLoan, but loan is LP-token that we need to unwrap"
      },
      "swapWithFlashLoan(uint256,address,uint256,(address,bytes,address))": {
        "notice": "Reference implementation of Arbitrage bot contract, that use Exchange module to get profit"
      },
      "uniswapV3Swap(uint256,uint256,uint256[])": {
        "notice": "We need this functions to check their selector and functionSelector in calldata for changeCalldataAmount() function*"
      }
    },
    "notice": "Helper contract to arbitrage using Exchange module",
    "version": 1
  },
  "storageLayout": {
    "storage": [
      {
        "astId": 671,
        "contract": "contracts/exchange/contracts/ArbitrageHelper.sol:ArbitrageHelper",
        "label": "_initialized",
        "offset": 0,
        "slot": "0",
        "type": "t_uint8"
      },
      {
        "astId": 674,
        "contract": "contracts/exchange/contracts/ArbitrageHelper.sol:ArbitrageHelper",
        "label": "_initializing",
        "offset": 1,
        "slot": "0",
        "type": "t_bool"
      },
      {
        "astId": 28586,
        "contract": "contracts/exchange/contracts/ArbitrageHelper.sol:ArbitrageHelper",
        "label": "ACCESS_CONTROL_SINGLETON",
        "offset": 2,
        "slot": "0",
        "type": "t_contract(ISuAccessControl)32175"
      },
      {
        "astId": 17999,
        "contract": "contracts/exchange/contracts/ArbitrageHelper.sol:ArbitrageHelper",
        "label": "EXCHANGE",
        "offset": 0,
        "slot": "1",
        "type": "t_contract(IExchange)19916"
      },
      {
        "astId": 18004,
        "contract": "contracts/exchange/contracts/ArbitrageHelper.sol:ArbitrageHelper",
        "label": "lpToAdapter",
        "offset": 0,
        "slot": "2",
        "type": "t_mapping(t_address,t_contract(ILPAdapter)32236)"
      },
      {
        "astId": 18513,
        "contract": "contracts/exchange/contracts/ArbitrageHelper.sol:ArbitrageHelper",
        "label": "__gap",
        "offset": 0,
        "slot": "3",
        "type": "t_array(t_uint256)45_storage"
      }
    ],
    "types": {
      "t_address": {
        "encoding": "inplace",
        "label": "address",
        "numberOfBytes": "20"
      },
      "t_array(t_uint256)45_storage": {
        "base": "t_uint256",
        "encoding": "inplace",
        "label": "uint256[45]",
        "numberOfBytes": "1440"
      },
      "t_bool": {
        "encoding": "inplace",
        "label": "bool",
        "numberOfBytes": "1"
      },
      "t_contract(IExchange)19916": {
        "encoding": "inplace",
        "label": "contract IExchange",
        "numberOfBytes": "20"
      },
      "t_contract(ILPAdapter)32236": {
        "encoding": "inplace",
        "label": "contract ILPAdapter",
        "numberOfBytes": "20"
      },
      "t_contract(ISuAccessControl)32175": {
        "encoding": "inplace",
        "label": "contract ISuAccessControl",
        "numberOfBytes": "20"
      },
      "t_mapping(t_address,t_contract(ILPAdapter)32236)": {
        "encoding": "mapping",
        "key": "t_address",
        "label": "mapping(address => contract ILPAdapter)",
        "numberOfBytes": "32",
        "value": "t_contract(ILPAdapter)32236"
      },
      "t_uint256": {
        "encoding": "inplace",
        "label": "uint256",
        "numberOfBytes": "32"
      },
      "t_uint8": {
        "encoding": "inplace",
        "label": "uint8",
        "numberOfBytes": "1"
      }
    }
  }
}