{
  "address": "0x2EFB509D7639a0F1B3048cf8e4A60E4440735D5b",
  "abi": [
    {
      "inputs": [
        {
          "internalType": "address",
          "name": "asset",
          "type": "address"
        }
      ],
      "name": "AlreadyRegistered",
      "type": "error"
    },
    {
      "inputs": [],
      "name": "BadAccessControlSingleton",
      "type": "error"
    },
    {
      "inputs": [
        {
          "internalType": "address",
          "name": "asset",
          "type": "address"
        }
      ],
      "name": "IsNotLP",
      "type": "error"
    },
    {
      "inputs": [],
      "name": "LPOracleNotReady",
      "type": "error"
    },
    {
      "inputs": [],
      "name": "OnlyAdminError",
      "type": "error"
    },
    {
      "inputs": [],
      "name": "OnlyAlerterError",
      "type": "error"
    },
    {
      "inputs": [],
      "name": "OnlyDAOError",
      "type": "error"
    },
    {
      "inputs": [],
      "name": "OnlyLiquidationAccessError",
      "type": "error"
    },
    {
      "inputs": [],
      "name": "OnlyMintAccessError",
      "type": "error"
    },
    {
      "inputs": [],
      "name": "OnlyRewardAccessError",
      "type": "error"
    },
    {
      "inputs": [],
      "name": "OnlyRoleError",
      "type": "error"
    },
    {
      "inputs": [],
      "name": "OnlyVaultAccessError",
      "type": "error"
    },
    {
      "anonymous": false,
      "inputs": [
        {
          "indexed": false,
          "internalType": "uint8",
          "name": "version",
          "type": "uint8"
        }
      ],
      "name": "Initialized",
      "type": "event"
    },
    {
      "inputs": [],
      "name": "ACCESS_CONTROL_SINGLETON",
      "outputs": [
        {
          "internalType": "contract ISuAccessControl",
          "name": "",
          "type": "address"
        }
      ],
      "stateMutability": "view",
      "type": "function"
    },
    {
      "inputs": [],
      "name": "ADMIN_ROLE",
      "outputs": [
        {
          "internalType": "bytes32",
          "name": "",
          "type": "bytes32"
        }
      ],
      "stateMutability": "view",
      "type": "function"
    },
    {
      "inputs": [],
      "name": "ALERTER_ROLE",
      "outputs": [
        {
          "internalType": "bytes32",
          "name": "",
          "type": "bytes32"
        }
      ],
      "stateMutability": "view",
      "type": "function"
    },
    {
      "inputs": [],
      "name": "DAO_ROLE",
      "outputs": [
        {
          "internalType": "bytes32",
          "name": "",
          "type": "bytes32"
        }
      ],
      "stateMutability": "view",
      "type": "function"
    },
    {
      "inputs": [],
      "name": "LIQUIDATION_ACCESS_ROLE",
      "outputs": [
        {
          "internalType": "bytes32",
          "name": "",
          "type": "bytes32"
        }
      ],
      "stateMutability": "view",
      "type": "function"
    },
    {
      "inputs": [],
      "name": "MINT_ACCESS_ROLE",
      "outputs": [
        {
          "internalType": "bytes32",
          "name": "",
          "type": "bytes32"
        }
      ],
      "stateMutability": "view",
      "type": "function"
    },
    {
      "inputs": [],
      "name": "ORACLE",
      "outputs": [
        {
          "internalType": "contract ISuOracle",
          "name": "",
          "type": "address"
        }
      ],
      "stateMutability": "view",
      "type": "function"
    },
    {
      "inputs": [],
      "name": "REWARD_ACCESS_ROLE",
      "outputs": [
        {
          "internalType": "bytes32",
          "name": "",
          "type": "bytes32"
        }
      ],
      "stateMutability": "view",
      "type": "function"
    },
    {
      "inputs": [],
      "name": "VAULT_ACCESS_ROLE",
      "outputs": [
        {
          "internalType": "bytes32",
          "name": "",
          "type": "bytes32"
        }
      ],
      "stateMutability": "view",
      "type": "function"
    },
    {
      "inputs": [
        {
          "internalType": "address",
          "name": "asset",
          "type": "address"
        }
      ],
      "name": "getFiatPrice1e18",
      "outputs": [
        {
          "internalType": "uint256",
          "name": "",
          "type": "uint256"
        }
      ],
      "stateMutability": "view",
      "type": "function"
    },
    {
      "inputs": [
        {
          "internalType": "address",
          "name": "asset",
          "type": "address"
        }
      ],
      "name": "getFiatPrice1e18Unsafe",
      "outputs": [
        {
          "internalType": "uint256",
          "name": "",
          "type": "uint256"
        }
      ],
      "stateMutability": "view",
      "type": "function"
    },
    {
      "inputs": [
        {
          "internalType": "address",
          "name": "_authControl",
          "type": "address"
        },
        {
          "internalType": "address",
          "name": "_oracle",
          "type": "address"
        }
      ],
      "name": "initialize",
      "outputs": [],
      "stateMutability": "nonpayable",
      "type": "function"
    },
    {
      "inputs": [
        {
          "internalType": "address",
          "name": "asset",
          "type": "address"
        }
      ],
      "name": "isAdapterLP",
      "outputs": [
        {
          "internalType": "bool",
          "name": "",
          "type": "bool"
        }
      ],
      "stateMutability": "view",
      "type": "function"
    },
    {
      "inputs": [
        {
          "internalType": "address",
          "name": "",
          "type": "address"
        }
      ],
      "name": "lps",
      "outputs": [
        {
          "internalType": "address",
          "name": "pool",
          "type": "address"
        },
        {
          "internalType": "enum CurvePoolType",
          "name": "poolType",
          "type": "uint8"
        }
      ],
      "stateMutability": "view",
      "type": "function"
    },
    {
      "inputs": [
        {
          "internalType": "address",
          "name": "lp",
          "type": "address"
        },
        {
          "internalType": "address",
          "name": "lpPool",
          "type": "address"
        },
        {
          "internalType": "uint256",
          "name": "nTokens",
          "type": "uint256"
        },
        {
          "internalType": "enum CurvePoolType",
          "name": "poolType",
          "type": "uint8"
        }
      ],
      "name": "registerLP",
      "outputs": [],
      "stateMutability": "nonpayable",
      "type": "function"
    },
    {
      "inputs": [
        {
          "internalType": "bytes4",
          "name": "interfaceId",
          "type": "bytes4"
        }
      ],
      "name": "supportsInterface",
      "outputs": [
        {
          "internalType": "bool",
          "name": "",
          "type": "bool"
        }
      ],
      "stateMutability": "view",
      "type": "function"
    },
    {
      "inputs": [
        {
          "internalType": "address",
          "name": "asset",
          "type": "address"
        },
        {
          "internalType": "uint256",
          "name": "amount",
          "type": "uint256"
        }
      ],
      "name": "withdraw",
      "outputs": [
        {
          "components": [
            {
              "internalType": "address",
              "name": "token",
              "type": "address"
            },
            {
              "internalType": "uint256",
              "name": "amount",
              "type": "uint256"
            }
          ],
          "internalType": "struct WithdrawResult[]",
          "name": "results",
          "type": "tuple[]"
        }
      ],
      "stateMutability": "nonpayable",
      "type": "function"
    }
  ],
  "numDeployments": 1,
  "solcInputHash": "6bdb767f00e3f0fe0de7c63e7a48801d",
  "bytecode": "0x6080806040523461001657611833908161001c8239f35b600080fdfe608080604052600436101561001357600080fd5b600090813560e01c90816301ffc9a7146112e35750806303ee9f22146112b857806314c376dc1461127d57806338013f0214611254578063438280dd1461121957806346faa4d514610f77578063485cc95514610d365780635136211714610d0857806371d0fb4114610ccd57806375b238fc14610cb15780638e5313e014610c76578063b9ac2b3814610c4a578063c02d9db11461096c578063d12e733214610906578063dc97e84e146108cb578063e9c26518146108905763f3fef3a3146100dc57600080fd5b3461088d57604036600319011261088d576100f5611379565b6100fe8161147f565b1561086b5760405160208101906323b872dd60e01b825233602482015230604482015260243560648201526064815260a0810181811060018060401b038211176108575760405251839182919082855af16101576117be565b81610828575b50156107fd576001600160a01b038116825260016020526040808320905190610185826113a5565b80546001600160a01b038116835260a01c60ff1660038110156107e957906001916020840152016040518082602082945493848152019087526020872092875b8181106107c75750506101da92500382611404565b8060408301525190836101ec8361143f565b936101fa6040519586611404565b8385526102068461143f565b825b601f198201811061079d57505082516001600160a01b038281169116908114159081610714575b50610691575b50506102408261143f565b9161024e6040519384611404565b808352601f1961025d8261143f565b01366020850137845b8161ffff8216101561031957602490602060018060a01b0361029061ffff8416604088015161149f565b5116604051938480926370a0823160e01b82523060048301525afa801561030e5787906102d6575b6102d192506102cb61ffff83168761149f565b52611456565b610266565b506020823d602011610306575b816102f060209383611404565b81010312610302576102d191516102b8565b8680fd5b3d91506102e3565b6040513d89823e3d90fd5b5093929190600285146105f0575b60038514610530575b835b8561ffff821610156104d35760408201516001600160a01b039061035b9061ffff84169061149f565b51166040516370a0823160e01b8152306004820152602081602481855afa90811561030e57879161049c575b5061039661ffff84168661149f565b51810390811161048857869182916040516103b0816113d6565b8281528160208201526103c761ffff87168a61149f565b526103d661ffff86168961149f565b5082604051610409816103fb602082019563a9059cbb60e01b875233602484016117a3565b03601f198101835282611404565b51925af16104156117be565b81610459575b501561042f5761042a90611456565b610332565b60405162461bcd60e51b815260206004820152600260248201526114d560f21b6044820152606490fd5b805180159250821561046e575b50503861041b565b6104819250602080918301019101611427565b3880610466565b634e487b7160e01b87526011600452602487fd5b90506020813d6020116104cb575b816104b760209383611404565b810103126104c6575138610387565b600080fd5b3d91506104aa565b50505090604051918291602083016020845282518091526020604085019301915b818110610502575050500390f35b825180516001600160a01b0316855260209081015181860152869550604090940193909201916001016104f4565b60405161053c816113a5565b6060368237848152602081018590526040810185905281516001600160a01b0316803b156105ec5790859060405192839163ecb586a560e01b835260243560048401526024830184905b600382106105d05750505081836084925af180156105c5579085916105ad575b5050610330565b6105b6906113f1565b6105c15783386105a6565b8380fd5b6040513d87823e3d90fd5b825181528a955086945060209283019260019092019101610586565b8580fd5b6040516105fc816113d6565b60403682378481526020810185905281516001600160a01b0316803b156105ec579085906040519283916316cd8e2760e21b835260243560048401526024830184905b600282106106755750505081836064925af180156105c557610662575b50610327565b61066e909491946113f1565b923861065c565b825181528a95508694506020928301926001909201910161063f565b825160405163095ea7b360e01b81529260209284929091839182906106c690602435906001600160a01b0316600484016117a3565b03926001600160a01b03165af180156105c5576106e5575b8490610235565b6107069060203d60201161070d575b6106fe8183611404565b810190611427565b50386106de565b503d6106f4565b604051636eb1769f60e11b8152306004820152602481019190915290506020816044816001600160a01b0386165afa90811561079257839161075c575b50602435113861022f565b90506020813d60201161078a575b8161077760209383611404565b81010312610786575138610751565b8280fd5b3d915061076a565b6040513d85823e3d90fd5b6020919293506040516107af816113d6565b88815288838201528282890101520190869291610208565b84546001600160a01b03168352600194850194869450602090930192016101c5565b634e487b7160e01b85526021600452602485fd5b60405162461bcd60e51b815260206004820152600360248201526229aa2360e91b6044820152606490fd5b805180159250821561083d575b50503861015d565b6108509250602080918301019101611427565b3880610835565b634e487b7160e01b85526041600452602485fd5b604051631e489be560e01b81526001600160a01b039091166004820152602490fd5b80fd5b503461088d578060031936011261088d5760206040517f3b5d4cc60d3ec3516ee8ae083bd60934f6eb2a6c54b1229985c41bfb092b26038152f35b503461088d578060031936011261088d5760206040517f9a9aef7c1247d5fc769b0185c052913e39673da29a880317dfd20ebf86f26a498152f35b503461088d57602036600319011261088d576001600160a01b0380610929611379565b16825260016020526040808320549051918116825260a01c60ff16600381101561095857604092506020820152f35b634e487b7160e01b83526021600452602483fd5b503461088d576020908160031936011261088d57610988611379565b906109928261147f565b15610c29576001600160a01b03918216808252600180855260408084209051906109bb826113a5565b60ff8154878116845260a01c166003811015610c15579280918894858599989795015201946040519586858254918281520191875285872090875b818110610bfe5750505086610a0c910387611404565b60408701968688528596519186988160025416925b848b10610ab5576040516318160ddd60e01b815288908b908b83826004818e5afa918215610aa8578192610a75575b508115610a61575060405191048152f35b634e487b7160e01b81526012600452602490fd5b9091508381813d8311610aa1575b610a8d8183611404565b81010312610a9d57519084610a50565b5080fd5b503d610a83565b50604051903d90823e3d90fd5b91809496989991939597508251168b8b602460405180948193634903b0d160e01b835260048301525afa908115610bf3578a91610bc2575b5084610afa8c865161149f565b51604051631735856760e31b815291166004820152908c826024818a5afa918215610bb7578b92610b84575b50818102918183041490151715610b70578101809111610b5c57986000198114610b5c578601989796949290918a969492610a21565b634e487b7160e01b89526011600452602489fd5b634e487b7160e01b8a52601160045260248afd5b9091508c81813d8311610bb0575b610b9c8183611404565b81010312610bac57519038610b26565b8a80fd5b503d610b92565b6040513d8d823e3d90fd5b90508b81813d8311610bec575b610bd98183611404565b81010312610be8575138610aed565b8980fd5b503d610bcf565b6040513d8c823e3d90fd5b8254851684528b97909301929185019185016109f6565b634e487b7160e01b86526021600452602486fd5b604051631e489be560e01b81526001600160a01b0383166004820152602490fd5b503461088d57602036600319011261088d576020610c6e610c69611379565b6114c9565b604051908152f35b503461088d578060031936011261088d5760206040517fe453bacb314e78dcd5192e6b1a2b1f0e7c76e92f6b7e429a6a90f04e39db3b768152f35b503461088d578060031936011261088d57602090604051908152f35b503461088d578060031936011261088d5760206040517f880a91047114272656e533301261260c75e4d11543ac7303d6fe4204579ec7278152f35b503461088d57602036600319011261088d576020610d2c610d27611379565b61147f565b6040519015158152f35b503461088d57604036600319011261088d57610d50611379565b610d5861138f565b90825460ff8160081c161590818092610f6a575b8015610f53575b15610ef75760ff198116600117855581610ee6575b5083549160ff8360081c1615610e8d5762010000600160b01b03601082901b1662010000600160b01b03198416811786556040516301ffc9a760e01b8152637965db0b60e01b600482015290946001600160a01b03929091906020908290602490829087165afa90811561030e578791610e6f575b5015610e5d571660018060a01b03196002541617600255610e1c578280f35b610100600160b01b031916178155604051600181527f7f26b83ff96e1f2b6a682f133852f6798a09c465da95921460cefb384740249890602090a138808280f35b6040516384d942fd60e01b8152600490fd5b610e87915060203d811161070d576106fe8183611404565b38610dfd565b60405162461bcd60e51b815260206004820152602b60248201527f496e697469616c697a61626c653a20636f6e7472616374206973206e6f74206960448201526a6e697469616c697a696e6760a81b6064820152608490fd5b61ffff191661010117845538610d88565b60405162461bcd60e51b815260206004820152602e60248201527f496e697469616c697a61626c653a20636f6e747261637420697320616c72656160448201526d191e481a5b9a5d1a585b1a5e995960921b6064820152608490fd5b50303b158015610d735750600160ff821614610d73565b50600160ff821610610d6c565b503461088d57608036600319011261088d57610f91611379565b610f9961138f565b9060443591606435916003831015611215578454604051632474521560e21b8152600481018790523360248201526001600160a01b039260209290919083908290604490829060101c88165afa90811561120a5788916111ed575b50156111db578216808752600180835260408820805460ff60a01b199686169687166001600160a81b03199091161760a09790971b60ff60a01b1696909617909555939492936001600160a01b03199361104d8161143f565b61105a6040519182611404565b8181526110668261143f565b8482019190601f1901368337838a5288855260408a20905191908901906001600160401b0383116111c757600160401b83116111c75781548383558084106111a0575b50908a52848a20898b5b84811061118c57509250505088905b6110ca578880f35b61ffff811682811015611187576040519063c661065760e01b8252600482015284816024818b5afa908115610bf3578a91611151575b50838a528885528860408b2001805483101561113d5791611135918782888e8e99989781522001911689825416179055611456565b9091926110c2565b634e487b7160e01b8b52603260045260248bfd5b90508481813d8311611180575b6111688183611404565b81010312610be857518581168103610be85738611100565b503d61115e565b508880f35b878985511694019381840155018a906110b3565b8a84888e8681522092830192015b8281106111bc5750506110a9565b8d8155018b906111ae565b634e487b7160e01b8b52604160045260248bfd5b604051631886ea7d60e11b8152600490fd5b6112049150833d851161070d576106fe8183611404565b38610ff4565b6040513d8a823e3d90fd5b8480fd5b503461088d578060031936011261088d5760206040517f39f61ca2a1a28fee144218173ec637b649a353e4026b2738c673800e5bf1437b8152f35b503461088d578060031936011261088d576002546040516001600160a01b039091168152602090f35b503461088d578060031936011261088d5760206040517fe965846df3dd5b1dfa65f58e31477079e90140e0908b6dd31b5aead5a57cf3658152f35b503461088d578060031936011261088d575460405160109190911c6001600160a01b03168152602090f35b905034610a9d576020366003190112610a9d5760043563ffffffff60e01b81168091036107865782546301ffc9a760e01b835260048301919091526020908290602490829060101c6001600160a01b03165afa90811561136e5760209291611351575b506040519015158152f35b6113689150823d811161070d576106fe8183611404565b38611346565b6040513d84823e3d90fd5b600435906001600160a01b03821682036104c657565b602435906001600160a01b03821682036104c657565b606081019081106001600160401b038211176113c057604052565b634e487b7160e01b600052604160045260246000fd5b604081019081106001600160401b038211176113c057604052565b6001600160401b0381116113c057604052565b601f909101601f19168101906001600160401b038211908210176113c057604052565b908160209103126104c6575180151581036104c65790565b6001600160401b0381116113c05760051b60200190565b61ffff8091169081146114695760010190565b634e487b7160e01b600052601160045260246000fd5b6001600160a01b0390811660009081526001602052604090205416151590565b80518210156114b35760209160051b010190565b634e487b7160e01b600052603260045260246000fd5b6000916114d58261147f565b15610c295760018060a01b039283831680825260016020918183526040958685208751611501816113a5565b60ff82548b8116835260a01c169186820192600381101561178f578a918791855201918b8251938a8586938c845492838152019383528b8d80852094925b8484106117685750505050505090611558910384611404565b01528051600381101561175457841461169a57516003811015610c155760021461158d578651636844a2db60e11b8152600490fd5b6115999096959661147f565b15611683578352808252838320908451916115b3836113a5565b60ff8154898116855260a01c166003811015610c1557908291858501520185518092858354928381520192875285872091875b81811061166e5750505050918161160560049798999386950382611404565b8782015251168551948580926354f0f7d560e01b82525afa93841561166357508193611632575b50505090565b9091809350813d831161165c575b61164a8183611404565b8101031261088d57505138808061162c565b503d611640565b51913d9150823e3d90fd5b83548c168552938701939282019282016115e6565b602490855190631e489be560e01b82526004820152fd5b506116a79096959661147f565b15611683578352808252838320908451916116c1836113a5565b60ff8154898116855260a01c166003811015610c1557908291858501520185518092858354928381520192875285872091875b81811061173f5750505050918161171360049798999386950382611404565b878201525116855194858092630176f71760e71b82525afa938415611663575081936116325750505090565b83548c168552938701939282019282016116f4565b634e487b7160e01b87526021600452602487fd5b909295919480989950859497505416815201940191019085928f928f9695938d8d9161153f565b634e487b7160e01b89526021600452602489fd5b6001600160a01b039091168152602081019190915260400190565b3d156117f8573d906001600160401b0382116113c057604051916117ec601f8201601f191660200184611404565b82523d6000602084013e565b60609056fea2646970667358221220f9cc6c93a0927ae10f34ee0cc49f0dede50fb2bea8d97bdf9428c0c216b0e0e764736f6c63430008110033",
  "devdoc": {
    "details": "See ILPAdapter interface for full details.",
    "kind": "dev",
    "methods": {
      "getFiatPrice1e18(address)": {
        "params": {
          "asset": "- address of erc20 token contract"
        },
        "returns": {
          "_0": "usdPrice1e18 such that asset.balanceOf() * getFiatPrice1e18(asset) / 1e18 == $$ * 1e18*"
        }
      },
      "isAdapterLP(address)": {
        "params": {
          "asset": "- address of LP token to check*"
        }
      },
      "registerLP(address,address,uint256,uint8)": {
        "params": {
          "lp": "address of LP token",
          "lpPool": "address of pool of {lp} LP-token",
          "nTokens": "amount of underlyingTokens*"
        }
      },
      "supportsInterface(bytes4)": {
        "details": "Returns true if this contract implements the interface defined by `interfaceId`. See the corresponding https://eips.ethereum.org/EIPS/eip-165#how-interfaces-are-identified[EIP section] to learn more about how these ids are created. This function call must use less than 30 000 gas."
      },
      "withdraw(address,uint256)": {
        "params": {
          "amount": "- amount of asset to withdraw/unwrap*",
          "asset": "- address of LP token to withdraw/unwrap"
        }
      }
    },
    "title": "CurveAdapter",
    "version": 1
  },
  "userdoc": {
    "kind": "user",
    "methods": {
      "getFiatPrice1e18(address)": {
        "notice": "WARNING! Read this description very carefully!     function getFiatPrice1e18(address asset) returns (uint256) that:         basicAmountOfAsset * getFiatPrice1e18(asset) / 1e18 === $$ * 1e18     in other words, it doesn't matter what's the erc20.decimals is,     you just multiply token balance in basic units on value from oracle and get dollar amount multiplied on 1e18. different assets have different deviation threshold (errors)     for wBTC it's <= 0.5%, read more https://data.chain.link/ethereum/mainnet/crypto-usd/btc-usd     for other asset is can be larger based on particular oracle implementation. examples:     market price of btc = $30k,     for 0.1 wBTC the unit256 amount is 0.1 * 1e18     0.1 * 1e18 * (price1e18 / 1e18) == $3000 == uint256(3000*1e18)     => price1e18 = 30000 * 1e18;     market price of usdt = $0.97,     for 1 usdt uint256 = 1 * 1e6     so 1*1e6 * price1e18 / 1e18 == $0.97 == uint256(0.97*1e18)     => 1*1e6 * (price1e18 / 1e18) / (0.97*1e18)   = 1     =>  price1e18 = 0.97 * (1e18/1e6) * 1e18    assume market price of wBTC = $31,503.77, oracle error = $158     case #1: small amount of wBTC         we have 0.0,000,001 wBTC that is worth v = $0.00315  $0.00001 = 0.00315*1e18 = 315*1e13  1*1e13         actual balance on the asset b = wBTC.balanceOf() =  0.0000001*1e18 = 1e11         oracle should return or = oracle.getFiatPrice1e18(wBTC) <=>         <=> b*or = v => v/b = 315*1e13 / 1e11 = 315*1e2  1e2         error = or.error * b = 1e2 * 1e11 = 1e13 => 1e13/1e18 usd = 1e-5 = 0.00001 usd     case #2: large amount of wBTC         v = 2,000,000 wBTC = $31,503.77 * 2m  158*2m = $63,007,540,000  $316,000,000 = 63,007*1e24  316*1e24         for calc convenience we increase error on 0.05 and have v = 63,000*24  300*1e24 = (630  3)*1e26         b = 2*1e6 * 1e18 = 2*1e24         or = v/b = (630  3)*1e26 / 2*1e24 = 315*1e2  1.5*1e2         error = or.error * b = 1.5*100 * 2*1e24 = 3*1e26 = 3*1e8*1e18 = $300,000,000 ~ $316,000,000     assume the market price of USDT = $0.97  $0.00485,     case #3: little amount of USDT         v = USDT amount 0.005 = 0.005*(0.97  0.00485) = 0.00485*1e18  0.00002425*1e18 = 485*1e13  3*1e13         we rounded error up on (3000-2425)/2425 ~= +24% for calculation convenience.         b = USDT.balanceOf() = 0.005*1e6 = 5*1e3         b*or = v => or = v/b = (485*1e13  3*1e13) / 5*1e3 = 970*1e9  6*1e9         error = 6*1e9 * 5*1e3 / 1e18 = 30*1e12/1e18 = 3*1e-5 = $0,00005     case #4: lot of USDT         v = we have 100,000,000,000 USDT = $97B = 97*1e9*1e18  0.5*1e9*1e18         b = USDT.balanceOf() = 1e11*1e6 = 1e17         or = v/b = (97*1e9*1e18  0.5*1e9*1e18) / 1e17 = 970*1e9  5*1e9         error = 5*1e9 * 1e17 = 5*1e26 = 0.5 * 1e8*1e18"
      },
      "getFiatPrice1e18Unsafe(address)": {
        "notice": "Is depreceted, only for tests usage"
      },
      "isAdapterLP(address)": {
        "notice": "Returns if asset ig Balancer LP token, registered in our adapter"
      },
      "registerLP(address,address,uint256,uint8)": {
        "notice": "Register the given LP token address and set the LP pool"
      },
      "withdraw(address,uint256)": {
        "notice": "Unwrap LP token with depth = 2 (if underlying token is LP => it's also unwrapping)"
      }
    },
    "notice": "Adapter for Curve LP token.",
    "version": 1
  },
  "storageLayout": {
    "storage": [
      {
        "astId": 671,
        "contract": "contracts/periphery/contracts/adapters/CurveAdapter.sol:CurveAdapter",
        "label": "_initialized",
        "offset": 0,
        "slot": "0",
        "type": "t_uint8"
      },
      {
        "astId": 674,
        "contract": "contracts/periphery/contracts/adapters/CurveAdapter.sol:CurveAdapter",
        "label": "_initializing",
        "offset": 1,
        "slot": "0",
        "type": "t_bool"
      },
      {
        "astId": 28586,
        "contract": "contracts/periphery/contracts/adapters/CurveAdapter.sol:CurveAdapter",
        "label": "ACCESS_CONTROL_SINGLETON",
        "offset": 2,
        "slot": "0",
        "type": "t_contract(ISuAccessControl)32175"
      },
      {
        "astId": 29919,
        "contract": "contracts/periphery/contracts/adapters/CurveAdapter.sol:CurveAdapter",
        "label": "lps",
        "offset": 0,
        "slot": "1",
        "type": "t_mapping(t_address,t_struct(CurveLPInfo)29909_storage)"
      },
      {
        "astId": 29922,
        "contract": "contracts/periphery/contracts/adapters/CurveAdapter.sol:CurveAdapter",
        "label": "ORACLE",
        "offset": 0,
        "slot": "2",
        "type": "t_contract(ISuOracle)32359"
      },
      {
        "astId": 30472,
        "contract": "contracts/periphery/contracts/adapters/CurveAdapter.sol:CurveAdapter",
        "label": "__gap",
        "offset": 0,
        "slot": "3",
        "type": "t_array(t_uint256)45_storage"
      }
    ],
    "types": {
      "t_address": {
        "encoding": "inplace",
        "label": "address",
        "numberOfBytes": "20"
      },
      "t_array(t_address)dyn_storage": {
        "base": "t_address",
        "encoding": "dynamic_array",
        "label": "address[]",
        "numberOfBytes": "32"
      },
      "t_array(t_uint256)45_storage": {
        "base": "t_uint256",
        "encoding": "inplace",
        "label": "uint256[45]",
        "numberOfBytes": "1440"
      },
      "t_bool": {
        "encoding": "inplace",
        "label": "bool",
        "numberOfBytes": "1"
      },
      "t_contract(ISuAccessControl)32175": {
        "encoding": "inplace",
        "label": "contract ISuAccessControl",
        "numberOfBytes": "20"
      },
      "t_contract(ISuOracle)32359": {
        "encoding": "inplace",
        "label": "contract ISuOracle",
        "numberOfBytes": "20"
      },
      "t_enum(CurvePoolType)29900": {
        "encoding": "inplace",
        "label": "enum CurvePoolType",
        "numberOfBytes": "1"
      },
      "t_mapping(t_address,t_struct(CurveLPInfo)29909_storage)": {
        "encoding": "mapping",
        "key": "t_address",
        "label": "mapping(address => struct CurveLPInfo)",
        "numberOfBytes": "32",
        "value": "t_struct(CurveLPInfo)29909_storage"
      },
      "t_struct(CurveLPInfo)29909_storage": {
        "encoding": "inplace",
        "label": "struct CurveLPInfo",
        "members": [
          {
            "astId": 29902,
            "contract": "contracts/periphery/contracts/adapters/CurveAdapter.sol:CurveAdapter",
            "label": "pool",
            "offset": 0,
            "slot": "0",
            "type": "t_address"
          },
          {
            "astId": 29905,
            "contract": "contracts/periphery/contracts/adapters/CurveAdapter.sol:CurveAdapter",
            "label": "poolType",
            "offset": 20,
            "slot": "0",
            "type": "t_enum(CurvePoolType)29900"
          },
          {
            "astId": 29908,
            "contract": "contracts/periphery/contracts/adapters/CurveAdapter.sol:CurveAdapter",
            "label": "underlyingTokens",
            "offset": 0,
            "slot": "1",
            "type": "t_array(t_address)dyn_storage"
          }
        ],
        "numberOfBytes": "64"
      },
      "t_uint256": {
        "encoding": "inplace",
        "label": "uint256",
        "numberOfBytes": "32"
      },
      "t_uint8": {
        "encoding": "inplace",
        "label": "uint8",
        "numberOfBytes": "1"
      }
    }
  }
}