{
  "address": "0x2a958EFb0dCd381c036675D564c08eB1909C38AC",
  "abi": [
    {
      "inputs": [],
      "name": "BadAccessControlSingleton",
      "type": "error"
    },
    {
      "inputs": [],
      "name": "CallbackError",
      "type": "error"
    },
    {
      "inputs": [
        {
          "internalType": "address",
          "name": "orderToken2buy",
          "type": "address"
        },
        {
          "internalType": "address",
          "name": "inToken",
          "type": "address"
        }
      ],
      "name": "IncorrectToken",
      "type": "error"
    },
    {
      "inputs": [
        {
          "internalType": "address",
          "name": "staker",
          "type": "address"
        }
      ],
      "name": "IsNotTopStaker",
      "type": "error"
    },
    {
      "inputs": [],
      "name": "NotEnoughReturnValue",
      "type": "error"
    },
    {
      "inputs": [],
      "name": "OnlyAdminError",
      "type": "error"
    },
    {
      "inputs": [],
      "name": "OnlyAlerterError",
      "type": "error"
    },
    {
      "inputs": [],
      "name": "OnlyDAOError",
      "type": "error"
    },
    {
      "inputs": [],
      "name": "OnlyLiquidationAccessError",
      "type": "error"
    },
    {
      "inputs": [],
      "name": "OnlyMintAccessError",
      "type": "error"
    },
    {
      "inputs": [],
      "name": "OnlyRewardAccessError",
      "type": "error"
    },
    {
      "inputs": [],
      "name": "OnlyRoleError",
      "type": "error"
    },
    {
      "inputs": [],
      "name": "OnlyVaultAccessError",
      "type": "error"
    },
    {
      "inputs": [
        {
          "internalType": "uint256",
          "name": "orderId",
          "type": "uint256"
        }
      ],
      "name": "OrderExist",
      "type": "error"
    },
    {
      "inputs": [
        {
          "internalType": "uint256",
          "name": "orderId",
          "type": "uint256"
        }
      ],
      "name": "OrderNotExist",
      "type": "error"
    },
    {
      "inputs": [
        {
          "internalType": "uint256",
          "name": "orderId",
          "type": "uint256"
        },
        {
          "internalType": "address",
          "name": "staker",
          "type": "address"
        }
      ],
      "name": "OrderNotForThisStaker",
      "type": "error"
    },
    {
      "inputs": [],
      "name": "SmallAmountLeft",
      "type": "error"
    },
    {
      "inputs": [],
      "name": "UserIsNotBeneficiary",
      "type": "error"
    },
    {
      "anonymous": false,
      "inputs": [
        {
          "indexed": false,
          "internalType": "uint8",
          "name": "version",
          "type": "uint8"
        }
      ],
      "name": "Initialized",
      "type": "event"
    },
    {
      "anonymous": false,
      "inputs": [
        {
          "indexed": false,
          "internalType": "address",
          "name": "LPToken",
          "type": "address"
        },
        {
          "indexed": false,
          "internalType": "uint256[]",
          "name": "orderIds",
          "type": "uint256[]"
        }
      ],
      "name": "LpOrdersAdded",
      "type": "event"
    },
    {
      "anonymous": false,
      "inputs": [
        {
          "indexed": false,
          "internalType": "uint256",
          "name": "orderId",
          "type": "uint256"
        }
      ],
      "name": "OrderAdded",
      "type": "event"
    },
    {
      "anonymous": false,
      "inputs": [
        {
          "indexed": false,
          "internalType": "uint256",
          "name": "orderId",
          "type": "uint256"
        }
      ],
      "name": "OrderCanceled",
      "type": "event"
    },
    {
      "anonymous": false,
      "inputs": [
        {
          "indexed": false,
          "internalType": "uint256",
          "name": "orderId",
          "type": "uint256"
        }
      ],
      "name": "OrderFilled",
      "type": "event"
    },
    {
      "anonymous": false,
      "inputs": [
        {
          "indexed": false,
          "internalType": "uint256",
          "name": "orderId",
          "type": "uint256"
        }
      ],
      "name": "OrderFilledPartially",
      "type": "event"
    },
    {
      "inputs": [],
      "name": "ACCESS_CONTROL_SINGLETON",
      "outputs": [
        {
          "internalType": "contract ISuAccessControl",
          "name": "",
          "type": "address"
        }
      ],
      "stateMutability": "view",
      "type": "function"
    },
    {
      "inputs": [],
      "name": "ADMIN_ROLE",
      "outputs": [
        {
          "internalType": "bytes32",
          "name": "",
          "type": "bytes32"
        }
      ],
      "stateMutability": "view",
      "type": "function"
    },
    {
      "inputs": [],
      "name": "ALERTER_ROLE",
      "outputs": [
        {
          "internalType": "bytes32",
          "name": "",
          "type": "bytes32"
        }
      ],
      "stateMutability": "view",
      "type": "function"
    },
    {
      "inputs": [],
      "name": "DAO_ROLE",
      "outputs": [
        {
          "internalType": "bytes32",
          "name": "",
          "type": "bytes32"
        }
      ],
      "stateMutability": "view",
      "type": "function"
    },
    {
      "inputs": [],
      "name": "DUST_THRESHOLD",
      "outputs": [
        {
          "internalType": "uint256",
          "name": "",
          "type": "uint256"
        }
      ],
      "stateMutability": "view",
      "type": "function"
    },
    {
      "inputs": [],
      "name": "LIQUIDATION_ACCESS_ROLE",
      "outputs": [
        {
          "internalType": "bytes32",
          "name": "",
          "type": "bytes32"
        }
      ],
      "stateMutability": "view",
      "type": "function"
    },
    {
      "inputs": [],
      "name": "MINT_ACCESS_ROLE",
      "outputs": [
        {
          "internalType": "bytes32",
          "name": "",
          "type": "bytes32"
        }
      ],
      "stateMutability": "view",
      "type": "function"
    },
    {
      "inputs": [],
      "name": "ORACLE",
      "outputs": [
        {
          "internalType": "contract ISuOracle",
          "name": "",
          "type": "address"
        }
      ],
      "stateMutability": "view",
      "type": "function"
    },
    {
      "inputs": [],
      "name": "REWARD_ACCESS_ROLE",
      "outputs": [
        {
          "internalType": "bytes32",
          "name": "",
          "type": "bytes32"
        }
      ],
      "stateMutability": "view",
      "type": "function"
    },
    {
      "inputs": [],
      "name": "TOP_STAKERS",
      "outputs": [
        {
          "internalType": "contract ITopStakers",
          "name": "",
          "type": "address"
        }
      ],
      "stateMutability": "view",
      "type": "function"
    },
    {
      "inputs": [],
      "name": "VAULT_ACCESS_ROLE",
      "outputs": [
        {
          "internalType": "bytes32",
          "name": "",
          "type": "bytes32"
        }
      ],
      "stateMutability": "view",
      "type": "function"
    },
    {
      "inputs": [
        {
          "internalType": "address",
          "name": "token2sell",
          "type": "address"
        },
        {
          "internalType": "uint256",
          "name": "amount2sell",
          "type": "uint256"
        },
        {
          "internalType": "address",
          "name": "token2buy",
          "type": "address"
        },
        {
          "internalType": "address",
          "name": "beneficiary",
          "type": "address"
        },
        {
          "internalType": "enum DiscountType",
          "name": "discountType",
          "type": "uint8"
        }
      ],
      "name": "addOrder",
      "outputs": [
        {
          "internalType": "uint256",
          "name": "orderId",
          "type": "uint256"
        }
      ],
      "stateMutability": "nonpayable",
      "type": "function"
    },
    {
      "inputs": [
        {
          "internalType": "uint256",
          "name": "orderId",
          "type": "uint256"
        }
      ],
      "name": "cancelOrder",
      "outputs": [],
      "stateMutability": "nonpayable",
      "type": "function"
    },
    {
      "inputs": [
        {
          "internalType": "uint256",
          "name": "orderId",
          "type": "uint256"
        },
        {
          "internalType": "uint256",
          "name": "inAmount",
          "type": "uint256"
        },
        {
          "internalType": "bytes",
          "name": "data",
          "type": "bytes"
        }
      ],
      "name": "fillOrderAsFlashLoan",
      "outputs": [
        {
          "internalType": "uint256",
          "name": "outAmount",
          "type": "uint256"
        }
      ],
      "stateMutability": "nonpayable",
      "type": "function"
    },
    {
      "inputs": [],
      "name": "getAllOrders",
      "outputs": [
        {
          "components": [
            {
              "components": [
                {
                  "internalType": "address",
                  "name": "token2sell",
                  "type": "address"
                },
                {
                  "internalType": "uint256",
                  "name": "amountLeft",
                  "type": "uint256"
                },
                {
                  "internalType": "address",
                  "name": "token2buy",
                  "type": "address"
                },
                {
                  "internalType": "uint256",
                  "name": "token2buyAmount",
                  "type": "uint256"
                },
                {
                  "internalType": "address",
                  "name": "beneficiary",
                  "type": "address"
                },
                {
                  "internalType": "uint256",
                  "name": "creationTimestamp",
                  "type": "uint256"
                },
                {
                  "internalType": "enum DiscountType",
                  "name": "discountType",
                  "type": "uint8"
                },
                {
                  "internalType": "address",
                  "name": "caller",
                  "type": "address"
                }
              ],
              "internalType": "struct Order",
              "name": "order",
              "type": "tuple"
            },
            {
              "internalType": "uint256",
              "name": "orderId",
              "type": "uint256"
            }
          ],
          "internalType": "struct OrderWithId[]",
          "name": "",
          "type": "tuple[]"
        }
      ],
      "stateMutability": "view",
      "type": "function"
    },
    {
      "inputs": [
        {
          "internalType": "uint256",
          "name": "orderId",
          "type": "uint256"
        },
        {
          "internalType": "uint256",
          "name": "inAmount",
          "type": "uint256"
        }
      ],
      "name": "getExpectedOrderOutcome",
      "outputs": [
        {
          "internalType": "uint256",
          "name": "outAmount",
          "type": "uint256"
        }
      ],
      "stateMutability": "view",
      "type": "function"
    },
    {
      "inputs": [
        {
          "internalType": "uint256",
          "name": "orderId",
          "type": "uint256"
        }
      ],
      "name": "getOrder",
      "outputs": [
        {
          "components": [
            {
              "internalType": "address",
              "name": "token2sell",
              "type": "address"
            },
            {
              "internalType": "uint256",
              "name": "amountLeft",
              "type": "uint256"
            },
            {
              "internalType": "address",
              "name": "token2buy",
              "type": "address"
            },
            {
              "internalType": "uint256",
              "name": "token2buyAmount",
              "type": "uint256"
            },
            {
              "internalType": "address",
              "name": "beneficiary",
              "type": "address"
            },
            {
              "internalType": "uint256",
              "name": "creationTimestamp",
              "type": "uint256"
            },
            {
              "internalType": "enum DiscountType",
              "name": "discountType",
              "type": "uint8"
            },
            {
              "internalType": "address",
              "name": "caller",
              "type": "address"
            }
          ],
          "internalType": "struct Order",
          "name": "",
          "type": "tuple"
        }
      ],
      "stateMutability": "view",
      "type": "function"
    },
    {
      "inputs": [],
      "name": "getOrdersCount",
      "outputs": [
        {
          "internalType": "uint256",
          "name": "",
          "type": "uint256"
        }
      ],
      "stateMutability": "view",
      "type": "function"
    },
    {
      "inputs": [
        {
          "internalType": "address",
          "name": "_authControl",
          "type": "address"
        },
        {
          "internalType": "address",
          "name": "_oracleAddress",
          "type": "address"
        },
        {
          "internalType": "address",
          "name": "_topStakersAddress",
          "type": "address"
        }
      ],
      "name": "initialize",
      "outputs": [],
      "stateMutability": "nonpayable",
      "type": "function"
    },
    {
      "inputs": [
        {
          "internalType": "uint256",
          "name": "",
          "type": "uint256"
        }
      ],
      "name": "orders",
      "outputs": [
        {
          "internalType": "address",
          "name": "token2sell",
          "type": "address"
        },
        {
          "internalType": "uint256",
          "name": "amountLeft",
          "type": "uint256"
        },
        {
          "internalType": "address",
          "name": "token2buy",
          "type": "address"
        },
        {
          "internalType": "uint256",
          "name": "token2buyAmount",
          "type": "uint256"
        },
        {
          "internalType": "address",
          "name": "beneficiary",
          "type": "address"
        },
        {
          "internalType": "uint256",
          "name": "creationTimestamp",
          "type": "uint256"
        },
        {
          "internalType": "enum DiscountType",
          "name": "discountType",
          "type": "uint8"
        },
        {
          "internalType": "address",
          "name": "caller",
          "type": "address"
        }
      ],
      "stateMutability": "view",
      "type": "function"
    },
    {
      "inputs": [
        {
          "internalType": "enum DiscountType",
          "name": "",
          "type": "uint8"
        },
        {
          "internalType": "uint256",
          "name": "",
          "type": "uint256"
        }
      ],
      "name": "priceCurve",
      "outputs": [
        {
          "internalType": "uint256",
          "name": "",
          "type": "uint256"
        }
      ],
      "stateMutability": "view",
      "type": "function"
    },
    {
      "inputs": [
        {
          "internalType": "enum DiscountType",
          "name": "discountType",
          "type": "uint8"
        },
        {
          "internalType": "uint256[2]",
          "name": "newPriceCurve",
          "type": "uint256[2]"
        }
      ],
      "name": "setPriceCurve",
      "outputs": [],
      "stateMutability": "nonpayable",
      "type": "function"
    },
    {
      "inputs": [
        {
          "internalType": "bytes4",
          "name": "interfaceId",
          "type": "bytes4"
        }
      ],
      "name": "supportsInterface",
      "outputs": [
        {
          "internalType": "bool",
          "name": "",
          "type": "bool"
        }
      ],
      "stateMutability": "pure",
      "type": "function"
    }
  ],
  "numDeployments": 1,
  "solcInputHash": "6bdb767f00e3f0fe0de7c63e7a48801d",
  "bytecode": "0x60808060405234610016576119d1908161001c8239f35b600080fdfe608080604052600436101561001357600080fd5b60003560e01c90816301ffc9a7146113125750806303eaa21a1461123957806303ee9f221461120c57806314c376dc146111d157806338013f02146111a8578063438280dd1461116d578063514fcac71461108257806371d0fb411461104757806375b238fc1461102b5780637bea0d1c14610e9e5780638e5313e014610e63578063a85c38ef14610dd4578063b5b3b05114610db6578063ba07fc5914610d8d578063c0c53b8b14610a48578063c3f2b67d14610776578063d09ef24114610732578063d7c8ae89146106f2578063dc97e84e146106b7578063dd7dc9a914610699578063e2ed06de14610250578063e9c26518146102275763f6243a041461011c57600080fd5b346101f95760403660031901126101f95760043560005260206001815261014660406000206115c6565b61015460a082015142611662565b815160c08301516001600160a01b039291831690600381101561021157859261017c9261183c565b916040816006541694015116602460405180958193631735856760e31b835260048301525afa918215610205576000926101cf575b50906101c26101c7926024356114a2565b61181c565b604051908152f35b91508282813d83116101fe575b6101e68183611464565b810103126101f9579051906101c26101b1565b600080fd5b503d6101dc565b6040513d6000823e3d90fd5b634e487b7160e01b600052602160045260246000fd5b346101f95760003660031901126101f957602060405160008051602061197c8339815191528152f35b346101f95760603660031901126101f9576044356024356001600160401b0382116101f957366023830112156101f957816004013561028e81611487565b9261029c6040519485611464565b81845236602483830101116101f9578160009260246020930183870137840101528091600435600052600160205260406000209260058401548015610680576102e59042611662565b906001850154809411610679575b61031060018060a01b038654169260ff600688015416908461183c565b6006546002870154604051631735856760e31b81526001600160a01b0391821660048201529160209183916024918391165afa908115610205578390600092610643575b5061036661037d926101c285846114a2565b96600389016103768982546114cd565b9055611662565b8060018801558015159182610621575b505061060f5761039e913390611759565b60028301546040516370a0823160e01b8082523060048301529290916001600160a01b031690602083602481855afa928315610205576000936105db575b5060405191633517a9e160e11b83526004830152846024830152336044830152608060648301528181519182608483015260005b8381106105c357505060a4818360008360209684010152601f801991011681010301816000335af190811561020557600091610594575b50156105825760028401546040519283523060048401526001600160a01b031691602081602481865afa90811561020557849060009261054c575b5061048d91926114cd565b1161053a576020926104ae83600193848060a01b0360048501541690611759565b015461050a57600435600052600182526104cb6040600020611638565b6104d660043561166f565b507fcdf98e0235c72ad7ae8de32249da25cc98298c8f11710c55a3d58e9e7ac69f94826040516004358152a1604051908152f35b7fc238a2d1c485b17bfd980b5e6d0483704cd4720118eb06215758d49f85ea8963826040516004358152a16101c7565b60405163395c945760e11b8152600490fd5b9150506020813d60201161057a575b8161056860209383611464565b810103126101f957518361048d610482565b3d915061055b565b60405163c286d75960e01b8152600490fd5b6105b6915060203d6020116105bc575b6105ae8183611464565b8101906114b5565b85610447565b503d6105a4565b602082820181015160a4878401015285935001610410565b9092506020813d602011610607575b816105f760209383611464565b810103126101f9575191866103dc565b3d91506105ea565b60405163117be23960e31b8152600490fd5b670de0b6b3a7640000925090610636916114a2565b046005541015868061038d565b9150506020813d602011610671575b8161065f60209383611464565b810103126101f9575182610366610354565b3d9150610652565b50826102f3565b60246040516373a98b6360e11b81526004356004820152fd5b346101f95760003660031901126101f9576020600554604051908152f35b346101f95760003660031901126101f95760206040517f9a9aef7c1247d5fc769b0185c052913e39673da29a880317dfd20ebf86f26a498152f35b346101f95760403660031901126101f95760043560038110156101f95761071b602435916113e3565b9060028110156101f9576020910154604051908152f35b346101f95760203660031901126101f95761074b611912565b50600435600052600160205261010061076760406000206115c6565b6107746040518092611355565bf35b346101f95760a03660031901126101f95761078f6113b7565b60249081359061079d6113cd565b926064359360018060a01b03928386168096036101f9576084359360038510156101f957604051966000806020998a8101906323b872dd60e01b825233898201523060448201528a6064820152606481526107f781611449565b519082875af1610805611596565b81610a18575b50156109ee57604051888101904382523360601b604082015260018060601b0319808660601b1660548301528960688301528660601b166088820152607c815261085481611449565b5190209687600052600189526005604060002001546109c7575b87600052600189526005604060002001546109af5790829160069493604051946108978661142d565b1684528984019081528260408501961686526060840192600084526080850192835260a08501934285526108cf60c087019a8b6114da565b60e08601973389528b60005260018d528260406000209751169360018060a01b03199485895416178855516001880155826002880191511684825416179055516003860155600485019251169082541617905551600582015501925191600383101561099b575082549051610100600160a81b0360089190911b1660ff929092166001600160a81b03199091161717905561096981611517565b507f12a866cc569301d2ff9fcbbae3decc9e0cf3fa94ddef08dd0de3e9a693fb8d1982604051838152a1604051908152f35b634e487b7160e01b60009081526021600452fd5b604051634b92340560e01b8152600481018990528690fd5b96600181018091116109d9579661086e565b85634e487b7160e01b60005260116004526000fd5b60405162461bcd60e51b8152600481018990526003818701526229aa2360e91b6044820152606490fd5b8051801592508a908315610a30575b5050508961080b565b610a4093508201810191016114b5565b898981610a27565b346101f95760603660031901126101f957610a616113b7565b6001600160a01b03602435818116908190036101f957610a7f6113cd565b906000549360ff8560081c161592838094610d80575b8015610d69575b15610d0d57600195848760ff19831617600055610cfb575b506000549160ff8360081c1615610ca25762010000600160b01b0319909216601083901b62010000600160b01b0316176000556040516301ffc9a760e01b8152637965db0b60e01b60048201526020959286908290602490829087165afa90811561020557600091610c85575b5015610c7357604051610b33816113fc565b610384815260008682015260008052600486526040600020908760005b60028110610c5d5750505050604051610b68816113fc565b6202bf20815260008682015286600052600486526040600020908760005b60028110610c465750505050604051610b9e816113fc565b620697808152600086820152600290816000526004875260406000208860005b848110610c2f57505050505068056bc75e2d6310000060055560018060a01b03199283600654161760065516906007541617600755610bf957005b7f7f26b83ff96e1f2b6a682f133852f6798a09c465da95921460cefb38474024989161ff001960005416600055604051908152a1005b8962ffffff85511694019381840155018990610bbe565b8862ffffff84511693019281850155018890610b86565b8861ffff84511693019281850155018890610b50565b6040516384d942fd60e01b8152600490fd5b610c9c9150863d88116105bc576105ae8183611464565b87610b21565b60405162461bcd60e51b815260206004820152602b60248201527f496e697469616c697a61626c653a20636f6e7472616374206973206e6f74206960448201526a6e697469616c697a696e6760a81b6064820152608490fd5b61ffff19166101011760005586610ab4565b60405162461bcd60e51b815260206004820152602e60248201527f496e697469616c697a61626c653a20636f6e747261637420697320616c72656160448201526d191e481a5b9a5d1a585b1a5e995960921b6064820152608490fd5b50303b158015610a9c5750600160ff871614610a9c565b50600160ff871610610a95565b346101f95760003660031901126101f9576007546040516001600160a01b039091168152602090f35b346101f95760003660031901126101f9576020600254604051908152f35b346101f95760203660031901126101f9576004356000526001602052610100604060002060018060a01b03808254169160018101549082600282015416600382015484600484015416916006600585015494015494604051978852602088015260408701526060860152608085015260a0840152610e5860c0840160ff8316611348565b60081c1660e0820152f35b346101f95760003660031901126101f95760206040517fe453bacb314e78dcd5192e6b1a2b1f0e7c76e92f6b7e429a6a90f04e39db3b768152f35b346101f95760003660031901126101f957604051806002548082528260208093016002600052836000209260005b8582821061101557505050610ee392500383611464565b8151610eee81611950565b92610efc6040519485611464565b818452601f19610f0b83611950565b018360005b828110610feb5750505060005b828110610f7a57604080518581528651818701819052878701928201908760005b828110610f4b5784840385f35b90919282610120600192828951610f63838251611355565b015161010082015201960191019492919094610f3e565b610f848183611967565b518060005260018552604060002090610fa860405192610fa3846113fc565b6115c6565b825285820152610fb88287611967565b52610fc38186611967565b506000198114610fd557600101610f1d565b634e487b7160e01b600052601160045260246000fd5b604051610ff7816113fc565b610fff611912565b8152600083820152828289010152018490610f10565b8554845260019586019588955093019201610ecc565b346101f95760003660031901126101f957602060405160008152f35b346101f95760003660031901126101f95760206040517f880a91047114272656e533301261260c75e4d11543ac7303d6fe4204579ec7278152f35b346101f95760203660031901126101f9576004358060005260016020526110ac60406000206115c6565b60a0810151156111545760808101516001600160a01b039290831633141580611144575b6111325781516020928301517fc41f4ceb2938876c35e61b705e9d2f18a02c4a26ce5e049a6308a943d46851b39461110a92339116611759565b806000526001825261111f6040600020611638565b6111288161166f565b50604051908152a1005b60405163da383fb560e01b8152600490fd5b508260e0830151163314156110d0565b6040516373a98b6360e11b815260048101839052602490fd5b346101f95760003660031901126101f95760206040517f39f61ca2a1a28fee144218173ec637b649a353e4026b2738c673800e5bf1437b8152f35b346101f95760003660031901126101f9576006546040516001600160a01b039091168152602090f35b346101f95760003660031901126101f95760206040517fe965846df3dd5b1dfa65f58e31477079e90140e0908b6dd31b5aead5a57cf3658152f35b346101f95760003660031901126101f95760005460405160109190911c6001600160a01b03168152602090f35b346101f95760603660031901126101f95760043560038110156101f957366064116101f957600054604051632474521560e21b815260008051602061197c83398151915260048201523360248201526020929183908290604490829060101c6001600160a01b03165afa908115610205576000916112f5575b50156112e3576112c1906113e3565b90602460005b600281106112d157005b813584820155908201906001016112c7565b60405163599a6c3360e11b8152600490fd5b61130c9150833d85116105bc576105ae8183611464565b836112b2565b346101f95760203660031901126101f9576004359063ffffffff60e01b82168092036101f957602091634dacd6bb60e11b148152f35b9060038210156102115752565b60e0908160018060a01b0391828151168552602081015160208601528260408201511660408601526060810151606086015282608082015116608086015260a081015160a08601526113af60c082015160c0870190611348565b015116910152565b600435906001600160a01b03821682036101f957565b604435906001600160a01b03821682036101f957565b6003811015610211576000526004602052604060002090565b604081019081106001600160401b0382111761141757604052565b634e487b7160e01b600052604160045260246000fd5b61010081019081106001600160401b0382111761141757604052565b60a081019081106001600160401b0382111761141757604052565b601f909101601f19168101906001600160401b0382119082101761141757604052565b6001600160401b03811161141757601f01601f191660200190565b81810292918115918404141715610fd557565b908160209103126101f9575180151581036101f95790565b91908201809211610fd557565b60038210156102115752565b60025481101561150157600260005260206000200190600090565b634e487b7160e01b600052603260045260246000fd5b60008181526003602052604081205461159157600254600160401b81101561157d579082611569611550846001604096016002556114e6565b819391549060031b600019811b9283911b169119161790565b905560025492815260036020522055600190565b634e487b7160e01b82526041600452602482fd5b905090565b3d156115c1573d906115a782611487565b916115b56040519384611464565b82523d6000602084013e565b606090565b906040516115d38161142d565b60e08193600660018060a01b03918281541685526001810154602086015282600282015416604086015260038101546060860152826004820154166080860152600581015460a0860152015461162f60ff821660c086016114da565b60081c16910152565b60066000918281558260018201558260028201558260038201558260048201558260058201550155565b91908203918211610fd557565b60008181526003602052604081205490919080156117545760001990808201818111611740576002549083820191821161172c578082036116f8575b50505060025480156116e4578101906116c3826114e6565b909182549160031b1b19169055600255815260036020526040812055600190565b634e487b7160e01b84526031600452602484fd5b611716611707611550936114e6565b90549060031b1c9283926114e6565b90558452600360205260408420553880806116ab565b634e487b7160e01b86526011600452602486fd5b634e487b7160e01b85526011600452602485fd5b505090565b60405163a9059cbb60e01b602082019081526001600160a01b0390931660248201526044808201949094529283526080830192916001600160401b03841183851017611417576000809493819460405251925af16117b5611596565b816117ed575b50156117c357565b60405162461bcd60e51b815260206004820152600260248201526114d560f21b6044820152606490fd5b8051801592508215611802575b5050386117bb565b61181592506020809183010191016114b5565b38806117fa565b8115611826570490565b634e487b7160e01b600052601260045260246000fd5b91600161185261184b836113e3565b54926113e3565b0154600654604051631735856760e31b81526001600160a01b0395861660048201529491939160209186916024918391165afa938415610205576000946118dc575b508181116118bf57926118b16118b7926101c26118bc96846114a2565b90611662565b611662565b90565b5050508060031b9080820460081490151715610fd557600a900490565b90936020823d821161190a575b816118f660209383611464565b810103126119075750519238611894565b80fd5b3d91506118e9565b6040519061191f8261142d565b8160e06000918281528260208201528260408201528260608201528260808201528260a08201528260c08201520152565b6001600160401b0381116114175760051b60200190565b80518210156115015760209160051b01019056fe3b5d4cc60d3ec3516ee8ae083bd60934f6eb2a6c54b1229985c41bfb092b2603a26469706673582212200b6c47cb239312bc7c97ca99d1dc77550171fc1abb0ee721b593f03755bea09b64736f6c63430008110033",
  "devdoc": {
    "details": "See IExchange interface for full details.",
    "kind": "dev",
    "methods": {
      "addOrder(address,uint256,address,address,uint8)": {
        "details": "This swap is async, because depends on how arbitrage bots will fill this order. Emits OrderAdded() event. Before addOrder user needs to approve token2sell for exchange contract",
        "params": {
          "amount2sell": "- Amount of {token2sell} to sell",
          "beneficiary": "- Address that will receive {token2buy} after filling order.",
          "discountType": "- Speed of decreasing swap price. { 0 - aggressive, 1 - middle, 2 - conservative }*",
          "token2buy": "- Address of token to buy",
          "token2sell": "- Address of token to sell"
        }
      },
      "cancelOrder(uint256)": {
        "params": {
          "orderId": "- Id of order to cancel.*"
        }
      },
      "fillOrderAsFlashLoan(uint256,uint256,bytes)": {
        "details": "Caller contract receive orders {token2sell} and after that his stableunitFillOrderCallback() is called. At the end of thi callback contract should send some amount of another token back to Exchange contract.",
        "params": {
          "data": "- encoded data to pass to callback function*",
          "inAmount": "- Amount of {token2sell} to receive",
          "orderId": "- Id of order to fill."
        }
      },
      "getExpectedOrderOutcome(uint256,uint256)": {
        "returns": {
          "outAmount": "The amount of outcome that caller will receive if he will fill {orderId} with {inAmount} of {token2sell}*"
        }
      },
      "getOrder(uint256)": {
        "returns": {
          "_0": "Order with id = {orderId}*"
        }
      },
      "getOrdersCount()": {
        "returns": {
          "_0": "The amount of not full-filled orders*"
        }
      },
      "setPriceCurve(uint8,uint256[2])": {
        "params": {
          "discountType": "- discount type to change",
          "newPriceCurve": "- parameters of formula*"
        }
      },
      "supportsInterface(bytes4)": {
        "details": "Returns true if this contract implements the interface defined by `interfaceId`. See the corresponding https://eips.ethereum.org/EIPS/eip-165#how-interfaces-are-identified[EIP section] to learn more about how these ids are created. This function call must use less than 30 000 gas."
      }
    },
    "title": "Exchange",
    "version": 1
  },
  "userdoc": {
    "kind": "user",
    "methods": {
      "DUST_THRESHOLD()": {
        "notice": "Amount of minimum amountLeft in order. It's measured in fiat. For example DUST_THRESHOLD = 100 * 1e18 => it's 100 USD*"
      },
      "addOrder(address,uint256,address,address,uint8)": {
        "notice": "Add order to swap {token2sell} to {token2buy}."
      },
      "cancelOrder(uint256)": {
        "notice": "Only user who place order or who is beneficiary can cancelOrder();"
      },
      "fillOrderAsFlashLoan(uint256,uint256,bytes)": {
        "notice": "Fill order with flash-loan like logic"
      },
      "getAllOrders()": {
        "notice": "This method will be deleted after we'll add GraphQL to watch orders*"
      },
      "priceCurve(uint8,uint256)": {
        "notice": "priceCurve is like price_t = price_0 * (1 - t/priceCurve[0]) - priceCurve[1] from timePassed = 0 to t priceCurve decrease linear, but after t (when discount is 20%), it's constant*"
      },
      "setPriceCurve(uint8,uint256[2])": {
        "notice": "Function to update price curve - how fast {token2sell} price will decrease/increase"
      }
    },
    "notice": "Main contract of Exchange module. Here we can add order or fill it to get profit.",
    "version": 1
  },
  "storageLayout": {
    "storage": [
      {
        "astId": 671,
        "contract": "contracts/exchange/contracts/Exchange.sol:Exchange",
        "label": "_initialized",
        "offset": 0,
        "slot": "0",
        "type": "t_uint8"
      },
      {
        "astId": 674,
        "contract": "contracts/exchange/contracts/Exchange.sol:Exchange",
        "label": "_initializing",
        "offset": 1,
        "slot": "0",
        "type": "t_bool"
      },
      {
        "astId": 28586,
        "contract": "contracts/exchange/contracts/Exchange.sol:Exchange",
        "label": "ACCESS_CONTROL_SINGLETON",
        "offset": 2,
        "slot": "0",
        "type": "t_contract(ISuAccessControl)32175"
      },
      {
        "astId": 18818,
        "contract": "contracts/exchange/contracts/Exchange.sol:Exchange",
        "label": "orders",
        "offset": 0,
        "slot": "1",
        "type": "t_mapping(t_uint256,t_struct(Order)19775_storage)"
      },
      {
        "astId": 18821,
        "contract": "contracts/exchange/contracts/Exchange.sol:Exchange",
        "label": "orderIdSet",
        "offset": 0,
        "slot": "2",
        "type": "t_struct(UintSet)5084_storage"
      },
      {
        "astId": 18829,
        "contract": "contracts/exchange/contracts/Exchange.sol:Exchange",
        "label": "priceCurve",
        "offset": 0,
        "slot": "4",
        "type": "t_mapping(t_enum(DiscountType)19757,t_array(t_uint256)2_storage)"
      },
      {
        "astId": 18832,
        "contract": "contracts/exchange/contracts/Exchange.sol:Exchange",
        "label": "DUST_THRESHOLD",
        "offset": 0,
        "slot": "5",
        "type": "t_uint256"
      },
      {
        "astId": 18835,
        "contract": "contracts/exchange/contracts/Exchange.sol:Exchange",
        "label": "ORACLE",
        "offset": 0,
        "slot": "6",
        "type": "t_contract(ISuOracle)32359"
      },
      {
        "astId": 18838,
        "contract": "contracts/exchange/contracts/Exchange.sol:Exchange",
        "label": "TOP_STAKERS",
        "offset": 0,
        "slot": "7",
        "type": "t_contract(ITopStakers)19966"
      },
      {
        "astId": 19515,
        "contract": "contracts/exchange/contracts/Exchange.sol:Exchange",
        "label": "__gap",
        "offset": 0,
        "slot": "8",
        "type": "t_array(t_uint256)45_storage"
      }
    ],
    "types": {
      "t_address": {
        "encoding": "inplace",
        "label": "address",
        "numberOfBytes": "20"
      },
      "t_array(t_bytes32)dyn_storage": {
        "base": "t_bytes32",
        "encoding": "dynamic_array",
        "label": "bytes32[]",
        "numberOfBytes": "32"
      },
      "t_array(t_uint256)2_storage": {
        "base": "t_uint256",
        "encoding": "inplace",
        "label": "uint256[2]",
        "numberOfBytes": "64"
      },
      "t_array(t_uint256)45_storage": {
        "base": "t_uint256",
        "encoding": "inplace",
        "label": "uint256[45]",
        "numberOfBytes": "1440"
      },
      "t_bool": {
        "encoding": "inplace",
        "label": "bool",
        "numberOfBytes": "1"
      },
      "t_bytes32": {
        "encoding": "inplace",
        "label": "bytes32",
        "numberOfBytes": "32"
      },
      "t_contract(ISuAccessControl)32175": {
        "encoding": "inplace",
        "label": "contract ISuAccessControl",
        "numberOfBytes": "20"
      },
      "t_contract(ISuOracle)32359": {
        "encoding": "inplace",
        "label": "contract ISuOracle",
        "numberOfBytes": "20"
      },
      "t_contract(ITopStakers)19966": {
        "encoding": "inplace",
        "label": "contract ITopStakers",
        "numberOfBytes": "20"
      },
      "t_enum(DiscountType)19757": {
        "encoding": "inplace",
        "label": "enum DiscountType",
        "numberOfBytes": "1"
      },
      "t_mapping(t_bytes32,t_uint256)": {
        "encoding": "mapping",
        "key": "t_bytes32",
        "label": "mapping(bytes32 => uint256)",
        "numberOfBytes": "32",
        "value": "t_uint256"
      },
      "t_mapping(t_enum(DiscountType)19757,t_array(t_uint256)2_storage)": {
        "encoding": "mapping",
        "key": "t_enum(DiscountType)19757",
        "label": "mapping(enum DiscountType => uint256[2])",
        "numberOfBytes": "32",
        "value": "t_array(t_uint256)2_storage"
      },
      "t_mapping(t_uint256,t_struct(Order)19775_storage)": {
        "encoding": "mapping",
        "key": "t_uint256",
        "label": "mapping(uint256 => struct Order)",
        "numberOfBytes": "32",
        "value": "t_struct(Order)19775_storage"
      },
      "t_struct(Order)19775_storage": {
        "encoding": "inplace",
        "label": "struct Order",
        "members": [
          {
            "astId": 19759,
            "contract": "contracts/exchange/contracts/Exchange.sol:Exchange",
            "label": "token2sell",
            "offset": 0,
            "slot": "0",
            "type": "t_address"
          },
          {
            "astId": 19761,
            "contract": "contracts/exchange/contracts/Exchange.sol:Exchange",
            "label": "amountLeft",
            "offset": 0,
            "slot": "1",
            "type": "t_uint256"
          },
          {
            "astId": 19763,
            "contract": "contracts/exchange/contracts/Exchange.sol:Exchange",
            "label": "token2buy",
            "offset": 0,
            "slot": "2",
            "type": "t_address"
          },
          {
            "astId": 19765,
            "contract": "contracts/exchange/contracts/Exchange.sol:Exchange",
            "label": "token2buyAmount",
            "offset": 0,
            "slot": "3",
            "type": "t_uint256"
          },
          {
            "astId": 19767,
            "contract": "contracts/exchange/contracts/Exchange.sol:Exchange",
            "label": "beneficiary",
            "offset": 0,
            "slot": "4",
            "type": "t_address"
          },
          {
            "astId": 19769,
            "contract": "contracts/exchange/contracts/Exchange.sol:Exchange",
            "label": "creationTimestamp",
            "offset": 0,
            "slot": "5",
            "type": "t_uint256"
          },
          {
            "astId": 19772,
            "contract": "contracts/exchange/contracts/Exchange.sol:Exchange",
            "label": "discountType",
            "offset": 0,
            "slot": "6",
            "type": "t_enum(DiscountType)19757"
          },
          {
            "astId": 19774,
            "contract": "contracts/exchange/contracts/Exchange.sol:Exchange",
            "label": "caller",
            "offset": 1,
            "slot": "6",
            "type": "t_address"
          }
        ],
        "numberOfBytes": "224"
      },
      "t_struct(Set)4612_storage": {
        "encoding": "inplace",
        "label": "struct EnumerableSetUpgradeable.Set",
        "members": [
          {
            "astId": 4607,
            "contract": "contracts/exchange/contracts/Exchange.sol:Exchange",
            "label": "_values",
            "offset": 0,
            "slot": "0",
            "type": "t_array(t_bytes32)dyn_storage"
          },
          {
            "astId": 4611,
            "contract": "contracts/exchange/contracts/Exchange.sol:Exchange",
            "label": "_indexes",
            "offset": 0,
            "slot": "1",
            "type": "t_mapping(t_bytes32,t_uint256)"
          }
        ],
        "numberOfBytes": "64"
      },
      "t_struct(UintSet)5084_storage": {
        "encoding": "inplace",
        "label": "struct EnumerableSetUpgradeable.UintSet",
        "members": [
          {
            "astId": 5083,
            "contract": "contracts/exchange/contracts/Exchange.sol:Exchange",
            "label": "_inner",
            "offset": 0,
            "slot": "0",
            "type": "t_struct(Set)4612_storage"
          }
        ],
        "numberOfBytes": "64"
      },
      "t_uint256": {
        "encoding": "inplace",
        "label": "uint256",
        "numberOfBytes": "32"
      },
      "t_uint8": {
        "encoding": "inplace",
        "label": "uint8",
        "numberOfBytes": "1"
      }
    }
  }
}