{
  "address": "0xa9EC404abC0e3417D2D05a18e7076ee0A10B9758",
  "abi": [
    {
      "inputs": [
        {
          "internalType": "address",
          "name": "asset",
          "type": "address"
        }
      ],
      "name": "AlreadyRegistered",
      "type": "error"
    },
    {
      "inputs": [],
      "name": "BadAccessControlSingleton",
      "type": "error"
    },
    {
      "inputs": [
        {
          "internalType": "address",
          "name": "asset",
          "type": "address"
        }
      ],
      "name": "IsNotLP",
      "type": "error"
    },
    {
      "inputs": [],
      "name": "LPOracleNotReady",
      "type": "error"
    },
    {
      "inputs": [
        {
          "internalType": "int256",
          "name": "exchangeRate",
          "type": "int256"
        }
      ],
      "name": "MarketExchangeRateBelowOne",
      "type": "error"
    },
    {
      "inputs": [],
      "name": "MarketExpired",
      "type": "error"
    },
    {
      "inputs": [],
      "name": "MarketProportionMustNotEqualOne",
      "type": "error"
    },
    {
      "inputs": [
        {
          "internalType": "int256",
          "name": "rateScalar",
          "type": "int256"
        }
      ],
      "name": "MarketRateScalarBelowZero",
      "type": "error"
    },
    {
      "inputs": [
        {
          "internalType": "int256",
          "name": "totalPt",
          "type": "int256"
        },
        {
          "internalType": "int256",
          "name": "totalAsset",
          "type": "int256"
        }
      ],
      "name": "MarketZeroTotalPtOrTotalAsset",
      "type": "error"
    },
    {
      "inputs": [],
      "name": "OnlyAdminError",
      "type": "error"
    },
    {
      "inputs": [],
      "name": "OnlyAlerterError",
      "type": "error"
    },
    {
      "inputs": [],
      "name": "OnlyDAOError",
      "type": "error"
    },
    {
      "inputs": [],
      "name": "OnlyLiquidationAccessError",
      "type": "error"
    },
    {
      "inputs": [],
      "name": "OnlyMintAccessError",
      "type": "error"
    },
    {
      "inputs": [],
      "name": "OnlyRewardAccessError",
      "type": "error"
    },
    {
      "inputs": [],
      "name": "OnlyRoleError",
      "type": "error"
    },
    {
      "inputs": [],
      "name": "OnlyVaultAccessError",
      "type": "error"
    },
    {
      "anonymous": false,
      "inputs": [
        {
          "indexed": false,
          "internalType": "uint8",
          "name": "version",
          "type": "uint8"
        }
      ],
      "name": "Initialized",
      "type": "event"
    },
    {
      "inputs": [],
      "name": "ACCESS_CONTROL_SINGLETON",
      "outputs": [
        {
          "internalType": "contract ISuAccessControl",
          "name": "",
          "type": "address"
        }
      ],
      "stateMutability": "view",
      "type": "function"
    },
    {
      "inputs": [],
      "name": "ADMIN_ROLE",
      "outputs": [
        {
          "internalType": "bytes32",
          "name": "",
          "type": "bytes32"
        }
      ],
      "stateMutability": "view",
      "type": "function"
    },
    {
      "inputs": [],
      "name": "ALERTER_ROLE",
      "outputs": [
        {
          "internalType": "bytes32",
          "name": "",
          "type": "bytes32"
        }
      ],
      "stateMutability": "view",
      "type": "function"
    },
    {
      "inputs": [],
      "name": "DAO_ROLE",
      "outputs": [
        {
          "internalType": "bytes32",
          "name": "",
          "type": "bytes32"
        }
      ],
      "stateMutability": "view",
      "type": "function"
    },
    {
      "inputs": [],
      "name": "LIQUIDATION_ACCESS_ROLE",
      "outputs": [
        {
          "internalType": "bytes32",
          "name": "",
          "type": "bytes32"
        }
      ],
      "stateMutability": "view",
      "type": "function"
    },
    {
      "inputs": [],
      "name": "MINT_ACCESS_ROLE",
      "outputs": [
        {
          "internalType": "bytes32",
          "name": "",
          "type": "bytes32"
        }
      ],
      "stateMutability": "view",
      "type": "function"
    },
    {
      "inputs": [],
      "name": "ORACLE",
      "outputs": [
        {
          "internalType": "contract ISuOracleAggregator",
          "name": "",
          "type": "address"
        }
      ],
      "stateMutability": "view",
      "type": "function"
    },
    {
      "inputs": [],
      "name": "REWARD_ACCESS_ROLE",
      "outputs": [
        {
          "internalType": "bytes32",
          "name": "",
          "type": "bytes32"
        }
      ],
      "stateMutability": "view",
      "type": "function"
    },
    {
      "inputs": [],
      "name": "VAULT_ACCESS_ROLE",
      "outputs": [
        {
          "internalType": "bytes32",
          "name": "",
          "type": "bytes32"
        }
      ],
      "stateMutability": "view",
      "type": "function"
    },
    {
      "inputs": [
        {
          "internalType": "address",
          "name": "asset",
          "type": "address"
        }
      ],
      "name": "getFiatPrice1e18",
      "outputs": [
        {
          "internalType": "uint256",
          "name": "",
          "type": "uint256"
        }
      ],
      "stateMutability": "view",
      "type": "function"
    },
    {
      "inputs": [
        {
          "internalType": "address",
          "name": "asset",
          "type": "address"
        }
      ],
      "name": "getFiatPrice1e18Unsafe",
      "outputs": [
        {
          "internalType": "uint256",
          "name": "",
          "type": "uint256"
        }
      ],
      "stateMutability": "view",
      "type": "function"
    },
    {
      "inputs": [
        {
          "internalType": "address",
          "name": "_authControl",
          "type": "address"
        },
        {
          "internalType": "address",
          "name": "_oracle",
          "type": "address"
        }
      ],
      "name": "initialize",
      "outputs": [],
      "stateMutability": "nonpayable",
      "type": "function"
    },
    {
      "inputs": [
        {
          "internalType": "address",
          "name": "asset",
          "type": "address"
        }
      ],
      "name": "isAdapterLP",
      "outputs": [
        {
          "internalType": "bool",
          "name": "",
          "type": "bool"
        }
      ],
      "stateMutability": "view",
      "type": "function"
    },
    {
      "inputs": [
        {
          "internalType": "address",
          "name": "",
          "type": "address"
        }
      ],
      "name": "lps",
      "outputs": [
        {
          "internalType": "contract IPMarket",
          "name": "market",
          "type": "address"
        },
        {
          "internalType": "contract IStandardizedYield",
          "name": "SY",
          "type": "address"
        },
        {
          "internalType": "contract IPPrincipalToken",
          "name": "PT",
          "type": "address"
        },
        {
          "internalType": "contract IPYieldToken",
          "name": "YT",
          "type": "address"
        },
        {
          "internalType": "address",
          "name": "mainUnderlyingToken",
          "type": "address"
        }
      ],
      "stateMutability": "view",
      "type": "function"
    },
    {
      "inputs": [
        {
          "internalType": "address",
          "name": "lp",
          "type": "address"
        },
        {
          "internalType": "contract IPMarket",
          "name": "market",
          "type": "address"
        },
        {
          "internalType": "address",
          "name": "mainUnderlyingToken",
          "type": "address"
        }
      ],
      "name": "registerLP",
      "outputs": [],
      "stateMutability": "nonpayable",
      "type": "function"
    },
    {
      "inputs": [
        {
          "internalType": "bytes4",
          "name": "interfaceId",
          "type": "bytes4"
        }
      ],
      "name": "supportsInterface",
      "outputs": [
        {
          "internalType": "bool",
          "name": "",
          "type": "bool"
        }
      ],
      "stateMutability": "view",
      "type": "function"
    },
    {
      "inputs": [
        {
          "internalType": "uint256",
          "name": "",
          "type": "uint256"
        }
      ],
      "name": "underlyingTokens",
      "outputs": [
        {
          "internalType": "address",
          "name": "",
          "type": "address"
        }
      ],
      "stateMutability": "view",
      "type": "function"
    },
    {
      "inputs": [
        {
          "internalType": "address",
          "name": "asset",
          "type": "address"
        },
        {
          "internalType": "uint256",
          "name": "amount",
          "type": "uint256"
        }
      ],
      "name": "withdraw",
      "outputs": [
        {
          "components": [
            {
              "internalType": "address",
              "name": "token",
              "type": "address"
            },
            {
              "internalType": "uint256",
              "name": "amount",
              "type": "uint256"
            }
          ],
          "internalType": "struct WithdrawResult[]",
          "name": "results",
          "type": "tuple[]"
        }
      ],
      "stateMutability": "nonpayable",
      "type": "function"
    }
  ],
  "numDeployments": 1,
  "solcInputHash": "6bdb767f00e3f0fe0de7c63e7a48801d",
  "bytecode": "0x6080806040523461001657612b4f908161001c8239f35b600080fdfe608080604052600436101561001357600080fd5b60003560e01c90816301ffc9a714611dd85750806303ee9f2214611dab57806314c376dc14611d7057806338013f0214611d47578063438280dd14611d0c578063485cc95514611ac55780635136211714611a9857806371d0fb4114611a5d57806375b238fc14611a415780638e5313e014611a06578063a3bf224b146119ab578063b9ac2b3814611131578063c02d9db114610de2578063c7c7ab6d14610b03578063d12e733214610a91578063dc97e84e14610a56578063e9c2651814610a1b5763f3fef3a3146100e557600080fd5b34610392576040366003190112610392576100fe611e63565b61010781611f69565b156109f95760008060405160208101906323b872dd60e01b825261014481610136602435303360248501612ab8565b03601f198101835282611eaf565b519082855af1610152612ada565b816109ca575b501561099f5760018060a01b0316600052600160205260406000206040519061018082611e79565b80546001600160a01b03908116835260018201548116602080850191909152600283015482166040808601919091526003840154909216606085015290516004830180548083526000918252838220929493859290830191905b81811061097d5750506101ef92500383611eaf565b60808301829052600501546001600160a01b031660a083015251604051919061021783611e94565b6001835260005b60208110610958575060025460009384926001600160a01b039092169190835b61ffff811683811015610422576080870151908151111561040c57602060018060a01b0391621fffe08460051b160101511660405163a780f13360e01b8152816004820152602081602481895afa90811561039f576000916103dd575b506102cd575b5061ffff80808316146102b7571660010161023e565b634e487b7160e01b600052601160045260246000fd5b60208781015160405163cbe52ae360e01b8152919082906001600160a01b031681806102ff6024358860048401612a87565b03915afa90811561039f576000916103ab575b50604051631735856760e31b815260048101839052906020826024818a5afa90811561039f57600091610364575b61034a9250611f56565b868111610358575b506102a1565b90975094503880610352565b90506020823d602011610397575b8161037f60209383611eaf565b810103126103925761034a915190610340565b600080fd5b3d9150610372565b6040513d6000823e3d90fd5b90506020813d6020116103d5575b816103c660209383611eaf565b81010312610392575138610312565b3d91506103b9565b6103ff915060203d602011610405575b6103f78183611eaf565b810190611ed2565b3861029b565b503d6103ed565b634e487b7160e01b600052603260045260246000fd5b8651604051630b2339af60e21b815284918a91906001600160a01b0316606082600481845afa801561039f57600092600090600092610922575b5060405163a9059cbb60e01b8152906020828061047f6024358860048401612a87565b03816000885af190811561039f57600492602092610905575b50604051630bc4ed8360e21b815292839182906001600160a01b03165afa90811561039f576000916108e6575b501561076e5760408051633dae446f60e21b8152926001600160a01b0385811693169190849081600081610500602435888a60048501612ab8565b03925af190811561039f576000938492610738575b50602460209293604051958693849263bcb7ea5d60e01b845260048401525af190811561039f57600091610702575b61054e9250611f89565b905b60405163769f8e5d60e01b815230600482015260248101929092526001600160a01b0383811660448401819052600060648501819052600160848601529092602092859260a4928492165af191821561039f576000926106cb575b5091600092918392604051906105c082611e94565b81528160208201526105d186612a7a565b526105db85612a7a565b508260405161060081610136602082019563a9059cbb60e01b87523360248401612a87565b51925af161060c612ada565b8161069c575b50156106725760405180916020820160208352815180915260206040840192019060005b818110610644575050500390f35b825180516001600160a01b031685526020908101518186015286955060409094019390920191600101610636565b60405162461bcd60e51b815260206004820152600260248201526114d560f21b6044820152606490fd5b80518015925082156106b1575b505082610612565b6106c49250602080918301019101611ed2565b82806106a9565b9150916020823d6020116106fa575b816106e760209383611eaf565b81010312610392579051909160006105ab565b3d91506106da565b90506020823d602011610730575b8161071d60209383611eaf565b810103126103925761054e915190610544565b3d9150610710565b6020925061075f60249160403d604011610767575b6107578183611eaf565b810190612aa2565b509250610515565b503d61074d565b5060408051633dae446f60e21b815290818061079a602435866001600160a01b03891660048501612ab8565b03816000865af191821561039f576000916000936108c3575b5060405160008152926001600160401b0360208501908111908511176108ad576020840160408190526329910b1160e01b90526001600160a01b03851660248501526044840152606060648401528251608484018190529060005b8281106108985750600084830160a4018190526040926020860192601f909101601f191686018690036084019183915af190811561039f576108589260009261085e575b50611f89565b90610550565b61088991925060403d604011610891575b60208161087f8293838601611eaf565b8301019101612aa2565b509086610852565b503d61086f565b80602091860160a4838201519101520161080e565b634e487b7160e01b600052604160045260246000fd5b9092506108df915060403d604011610767576107578183611eaf565b91866107b3565b6108ff915060203d602011610405576103f78183611eaf565b866104c5565b61091b90833d8511610405576103f78183611eaf565b5088610498565b91505061094791925060603d8111610951575b61093f8183611eaf565b810190611eea565b909291928661045c565b503d610935565b60209060405161096781611e94565b600081526000838201528282870101520161021e565b84546001600160a01b03168352600194850194879450602090930192016101da565b60405162461bcd60e51b815260206004820152600360248201526229aa2360e91b6044820152606490fd5b80518015925082156109df575b505038610158565b6109f29250602080918301019101611ed2565b38806109d7565b604051631e489be560e01b81526001600160a01b039091166004820152602490fd5b346103925760003660031901126103925760206040517f3b5d4cc60d3ec3516ee8ae083bd60934f6eb2a6c54b1229985c41bfb092b26038152f35b346103925760003660031901126103925760206040517f9a9aef7c1247d5fc769b0185c052913e39673da29a880317dfd20ebf86f26a498152f35b346103925760203660031901126103925760a06001600160a01b0380610ab5611e63565b16600052600160205260406000209080825416918160018201541691806002830154169060058160038501541693015416926040519485526020850152604084015260608301526080820152f35b3461039257606036600319011261039257610b1c611e63565b6024356001600160a01b0381811692918390036103925760443591818316809303610392578160005460101c16906040518092632474521560e21b82526000600483015233602483015281604460209586935afa90811561039f57600091610dc5575b5015610db3578216806000526004600193848452606060406000209760018060a01b031998818a82541617905560405193848092630b2339af60e21b82525afa91821561039f5781600493600090600093600091610d8d575b50866000528888528289604060002001946002604060002001928d836003604060002001921690825416179055168b825416179055168882541617905560008186604083200154166040519384809263071bc3c960e01b82525afa91821561039f57600092610cf2575b508260005284845260046040600020019082519260018060401b0384116108ad57600160401b84116108ad5785908354858555808610610cc5575b50019160005284600020908660005b858110610cb15750505050505060005252600560406000200191825416179055600080f35b878386511695019481850155018790610c8c565b8460005288868460002092830192015b828110610ce3575050610c7d565b600081558994508a9101610cd5565b9091503d806000833e610d058183611eaf565b8101908481830312610392578051906001600160401b03821161039257019080601f83011215610392578151610d3a81611f2b565b92610d486040519485611eaf565b818452868085019260051b8201019283116103925786809101915b838310610d7557505050509087610c42565b8190610d8084611f42565b8152019101908690610d63565b915050610da991925060603d81116109515761093f8183611eaf565b929190928b610bd8565b604051631886ea7d60e11b8152600490fd5b610ddc9150833d8511610405576103f78183611eaf565b86610b7f565b3461039257602080600319360112610392576001600160a01b0380610e05611e63565b1690816000526001835260406000209160405191610e2283611e79565b80845416835280600185015416938584019485528160028201541660408501908152826003830154169160608601928352836004820191604051808b85549182815201946000528b6000209060005b8d8282106111175750505050610e8c81600594950382611eaf565b608089015201541660a086015282600254169560048885835116604051928380926376d5de8560e01b82525afa90811561039f57899186916000916110dc575b50604051631735856760e31b81529116600482015297889060249082905afa96871561039f576000976110ad575b5083905116936040519188836024816370a0823160e01b998a82528660048301525afa92831561039f5789918691600095611077575b5090602492915116604051928380928a82528660048301525afa801561039f5789938692600092611041575b5060249291610f6a91611f89565b945116956040519687938492835260048301525afa90811561039f57869360009261100e575b5094610fa1610fa692600497611f89565b611f56565b925116604051938480926318160ddd60e01b82525afa90811561039f57600091610fdd575b610fd59250611f96565b604051908152f35b90508282813d8311611007575b610ff48183611eaf565b8101031261039257610fd5915190610fcb565b503d610fea565b8481959293503d831161103a575b6110268183611eaf565b810103126103925791518592610fa1610f90565b503d61101c565b925093905081813d8311611070575b61105a8183611eaf565b8101031261039257518892859190610f6a610f5c565b503d611050565b92839195508092503d83116110a6575b6110918183611eaf565b81010312610392575191889085906024610f30565b503d611087565b9096508781813d83116110d5575b6110c58183611eaf565b8101031261039257519583610efa565b503d6110bb565b928092508391503d8311611110575b6110f58183611eaf565b810103126103925784602461110a8b93611f42565b90610ecc565b503d6110eb565b835490961687529490950194889460019283019201610e71565b346103925760203660031901126103925761114a611e63565b61115381611f69565b156109f95760018060a01b0316600052600160205260406000206040519061117a82611e79565b60018060a01b03815416825260018060a01b03600182015416602083015260018060a01b03600282015416604083015260018060a01b036003820154169060609182840152600481016040518082602082945493848152019060005260206000209260005b8181106119895750506111f492500382611eaf565b6080840152600501546001600160a01b0390811660a08401528251604051630b2339af60e21b8152929116908083600481855afa801561039f57600493600090600092611966575b50604051633ba0b9a960e01b81529460209186919082906001600160a01b03165afa93841561039f57600094611932575b50604051636951ac2760e11b8152906001600160a01b0316602082600481845afa91821561039f576000926118fe575b5060405163516399df60e01b815290602082600481845afa91821561039f576000926118dd575b508161185f575b501561184957915b60405163794052f360e01b815260006004820152906101208083602481855afa92831561039f576000936117a4575b505060405192608084016001600160401b038111858210176108ad576040526000845260006020850152600060408501526000818501524260a08401511115611792576113534260a0850151611fd5565b6080840151806301e133808102056301e1338014811517156102b7576001600160ff1b03821161039257811561177c576301e133808102600160ff1b146000198314166102b7576000826301e13380830205131561175d576301e133800281900585526020840151600081121561175557600019905b876000821315611733576113e690670de0b6b3a764000092611f56565b046001600160ff1b038111610392576113fe91612029565b8060208701528451908115801561172b575b61170d5750508351906101008501519060208701519261143282895194611fe2565b93670de0b6b3a764000085126116f4579061145961145361145e9383611fb9565b9161200c565b6120a4565b670de0b6b3a764000081146116e25780670de0b6b3a7640000039360008212670de0b6b3a76400008612811690670de0b6b3a76400008713901516176102b7576114ca6114df946114596114c56114c06301e13380996114596114d09861200c565b612399565b61200c565b90611fa0565b604088015260c0860151611f56565b046001600160ff1b038111610392576114f7906120ae565b9084015260a082015142106115dc5750611459604061152061152a946020855191015190611fb9565b925b01519161200c565b60008112610392576115449261153f91611f56565b611f96565b60025460a09290920151604051631735856760e31b81526001600160a01b0391821660048201529260209184916024918391165afa91821561039f576000926115a6575b6020670de0b6b3a764000061159d8486611f56565b04604051908152f35b91506020823d6020116115d4575b816115c160209383611eaf565b810103126103925790519061159d611588565b3d91506115b4565b6115e5906127d7565b6001600160ff1b038111610392576115fc9061208b565b60026116248261161f6101008601516116194260a0890151611fd5565b90611fe2565b611fb9565b05611650670de0b6b3a764000061164a8651611644604089015187611fa0565b90612029565b056120ae565b6116808261145961167a670de0b6b3a764000061167160208b015187612029565b05885190611fa0565b9361200c565b9485670de0b6b3a7640000019586126001166102b7576116d6611459946114596114c56116ce6040976114ca60206116c161152a9e6114596116dc9c61200c565b980151916114598961200c565b948951611fb9565b90611fb9565b92611522565b60405163a9c8b14d60e01b8152600490fd5b60405163329e322960e21b815260048101869052602490fd5b604492506040519163b1c4aefb60e01b835260048301526024820152fd5b508015611410565b50600160ff1b81146102b7576113e688670de0b6b3a764000092600003611f56565b6001906113c9565b6024916301e1338060405192630e520c3b60e11b845202056004820152fd5b634e487b7160e01b600052601260045260246000fd5b60405163b2094b5960e01b8152600490fd5b908092935081813d8311611842575b6117bd8183611eaf565b81010312610392576040519182016001600160401b038111838210176108ad57604052805182526020810151602083015260408101516040830152611803848201611f42565b848301526080810151608083015260a081015160a083015260c081015160c083015260e081015160e08301526101008091015190820152908680611302565b503d6117b3565b8084111561185a5750825b916112d3565b611854565b6040516360e0a9e160e01b81529150602090829060049082905afa90811561039f5760009161189b575b506001600160801b03164314866112cb565b90506020813d6020116118d5575b816118b660209383611eaf565b8101031261039257516001600160801b03811681036103925786611889565b3d91506118a9565b6118f791925060203d602011610405576103f78183611eaf565b90876112c4565b9091506020813d60201161192a575b8161191a60209383611eaf565b810103126103925751908661129d565b3d915061190d565b9093506020813d60201161195e575b8161194e60209383611eaf565b810103126103925751928561126d565b3d9150611941565b602092506119819150833d85116109515761093f8183611eaf565b92905061123c565b84546001600160a01b03168352600194850194869450602090930192016111df565b34610392576020366003190112610392576004356003548110156103925760036000527fc2575a0e9e593c00f959f8c92f12db2869c3395a3b0502d05e2516446f71f85b01546040516001600160a01b039091168152602090f35b346103925760003660031901126103925760206040517fe453bacb314e78dcd5192e6b1a2b1f0e7c76e92f6b7e429a6a90f04e39db3b768152f35b3461039257600036600319011261039257602060405160008152f35b346103925760003660031901126103925760206040517f880a91047114272656e533301261260c75e4d11543ac7303d6fe4204579ec7278152f35b34610392576020366003190112610392576020611abb611ab6611e63565b611f69565b6040519015158152f35b3461039257604036600319011261039257611ade611e63565b6001600160a01b0360243581811690819003610392576000549060ff8260081c161591828093611cff575b8015611ce8575b15611c8c5760ff19811660011760005582611c7a575b506000549260ff8460081c1615611c215762010000600160b01b03601086901b1662010000600160b01b0319851681176000556040516301ffc9a760e01b8152637965db0b60e01b60048201529095909160209183916024918391165afa90811561039f57600091611c03575b5015611bf157600280546001600160a01b031916919091179055611bb357005b610100600160b01b03191617600055604051600181527f7f26b83ff96e1f2b6a682f133852f6798a09c465da95921460cefb384740249890602090a1005b6040516384d942fd60e01b8152600490fd5b611c1b915060203d8111610405576103f78183611eaf565b85611b93565b60405162461bcd60e51b815260206004820152602b60248201527f496e697469616c697a61626c653a20636f6e7472616374206973206e6f74206960448201526a6e697469616c697a696e6760a81b6064820152608490fd5b61ffff19166101011760005584611b26565b60405162461bcd60e51b815260206004820152602e60248201527f496e697469616c697a61626c653a20636f6e747261637420697320616c72656160448201526d191e481a5b9a5d1a585b1a5e995960921b6064820152608490fd5b50303b158015611b105750600160ff821614611b10565b50600160ff821610611b09565b346103925760003660031901126103925760206040517f39f61ca2a1a28fee144218173ec637b649a353e4026b2738c673800e5bf1437b8152f35b34610392576000366003190112610392576002546040516001600160a01b039091168152602090f35b346103925760003660031901126103925760206040517fe965846df3dd5b1dfa65f58e31477079e90140e0908b6dd31b5aead5a57cf3658152f35b346103925760003660031901126103925760005460405160109190911c6001600160a01b03168152602090f35b346103925760203660031901126103925760043563ffffffff60e01b8116809103610392576000546301ffc9a760e01b835260048301919091526020908290602490829060101c6001600160a01b03165afa801561039f57602091600091611e46575b506040519015158152f35b611e5d9150823d8111610405576103f78183611eaf565b82611e3b565b600435906001600160a01b038216820361039257565b60c081019081106001600160401b038211176108ad57604052565b604081019081106001600160401b038211176108ad57604052565b601f909101601f19168101906001600160401b038211908210176108ad57604052565b90816020910312610392575180151581036103925790565b908160609103126103925780516001600160a01b03929083811681036103925792602083015181811681036103925760409093015190811681036103925790565b6001600160401b0381116108ad5760051b60200190565b51906001600160a01b038216820361039257565b818102929181159184041417156102b757565b6001600160a01b0316600090815260016020526040902060040154151590565b919082018092116102b757565b811561177c570490565b818103929160001380158285131691841216176102b757565b919091600083820193841291129080158216911516176102b757565b919082039182116102b757565b6301e1338091611ff191611f56565b046001600160ff1b03811161039257612009906120ae565b90565b90670de0b6b3a7640000918281029281840514901517156102b757565b818102929160008212600160ff1b8214166102b75781840514901517156102b757565b1561205357565b60405162461bcd60e51b815260206004820152601060248201526f125b9d985b1a5908195e1c1bdb995b9d60821b6044820152606490fd5b801561177c576a0c097ce7bc90715b34b9f160241b0590565b811561177c570590565b680238fd42c5cf03ffff1981121580612386575b6120cb9061204c565b60008112612371576064906806f05b59d3b200000081126123245772195e54c5dd42177f53a27172fa9ec63026282760241b9068056bc75e2d631000009083906806f05b59d3b1ffffff19015b02819068ad78ebc5ac62000000811215612301575b806856bc75e2d631000000849212156122dd575b682b5e3af16b188000008112156122bb575b6815af1d78b58c400000811215612299575b680ad78ebc5ac6200000811215612278575b81811215612257575b6802b5e3af16b1880000811215612236575b68015af1d78b58c40000811215612215575b60028282800205056003838383020505600484848302050560058585830205056006868683020505600787878302050590600888888402050592600989898602050594600a8a8a8802050596600b8b8b8a02050598600c8c8c8c0205059a0101010101010101010101010205020590565b6806f5f1775788937937829168015af1d78b58c3ffff1901930205916121a4565b6808f00f760a4b2db55d82916802b5e3af16b187ffff190193020591612192565b680ebc5fb41746121110829168056bc75e2d630fffff190193020591612180565b68280e60114edb805d038291680ad78ebc5ac61fffff190193020591612177565b690127fa27722cc06cc5e282916815af1d78b58c3fffff190193020591612165565b693f1fce3da636ea5cf8508291682b5e3af16b187fffff190193020591612153565b6b02df0ab5a80a22c61ab5a70082916856bc75e2d630ffffff190193020591612141565b6e01855144814a7ff805980ff0084000915068ad78ebc5ac61ffffff190161212d565b6803782dace9d9000000811261235e576803782dace9d8ffffff190168056bc75e2d63100000826b1425982cf597cd205cef738092612118565b68056bc75e2d6310000082600192612118565b61237d906000036120ae565b6120099061208b565b5068070c1cc73b00c800008113156120c2565b600081131561246b5780670c7d713b49da0000128061245a575b1561245157670de0b6b3a7640000906a0c097ce7bc90715b34b9f160241b906123f5908302828101906ec097ce7bc90715b34b9f0fffffffff190183026120a4565b9080828002059181838202058284820205838582020591848684020593858786020595808888020597880205600f900596600d900595600b900594600990059360079005926005900591600390050101010101010160011b0590565b612009906124a0565b50670f43fc2c04ee000081126123b3565b60405162461bcd60e51b815260206004820152600d60248201526c6f7574206f6620626f756e647360981b6044820152606490fd5b670de0b6b3a764000081126127c0576064906000775803bcc5cb9634ba4cfb2213f784019318ed4dcb6017880f60361b821215612797575b6f8bcc0026baae9e45e470190267a230cf60191b821215612776575b8282910283819302916e01855144814a7ff805980ff0084000908184121561274e575b5050506b02df0ab5a80a22c61ab5a7008082121561272e575b50693f1fce3da636ea5cf8508082121561270e575b50690127fa27722cc06cc5e2808212156126ee575b5068280e60114edb805d03808212156126ce575b50680ebc5fb41746121110808212156126b7575b506808f00f760a4b2db55d80821215612697575b506806f5f177578893793780821215612677575b506806248f33704b28660380821215612658575b506805c548670b9510e7ac80821215612639575b506125f868056bc75e2d6310000091828082019168056bc75e2d630fffff1901026120a4565b9080828002059181838202058284820205916003600560076009600b888a89020598808b8b02059a8b0205059805960594059205010101010160011b010590565b68056bc75e2d631000006756bc75e2d6310000920205910190386125d2565b68056bc75e2d6310000067ad78ebc5ac620000920205910190386125be565b68056bc75e2d6310000068015af1d78b58c40000920205910190386125aa565b68056bc75e2d631000006802b5e3af16b188000092020591019038612596565b68056bc75e2d631000008092020591019038612582565b68056bc75e2d63100000680ad78ebc5ac62000009202059101903861256e565b68056bc75e2d631000006815af1d78b58c4000009202059101903861255a565b68056bc75e2d63100000682b5e3af16b1880000092020591019038612545565b68056bc75e2d631000006856bc75e2d63100000092020591019038612530565b69021e19e0c9bab24000009192945068ad78ebc5ac6200000093500205910190388080612517565b906b1425982cf597cd205cef73806803782dace9d9000000910591016124f4565b5072195e54c5dd42177f53a27172fa9ec63026282760241b90056806f05b59d3b20000006124d8565b6127cc6127d19161208b565b6124a0565b60000390565b604080516370c264df60e11b815260049290916001600160a01b0390911690602080848681865afa938415612a6f57600094612a40575b50428411612827575050505050670de0b6b3a764000090565b81516001600160401b0391906060810183811182821017612a2b5784526002815293818501908436833761012c958661285f82612a7a565b52855192839163883bdbfd60e01b83526024830190868c8501525180915260448301919060005b87828210612a0e575050505091818060009403915afa928315612a035760009361295e575b50505090815160011015612949578101516001600160d81b0392919083169083906128d590612a7a565b51169003928284116129345790826128f36128fc9594934290611fd5565b93160416611fe2565b906000821261039257811561291f57506a0c097ce7bc90715b34b9f160241b0490565b601290634e487b7160e01b6000525260246000fd5b601185634e487b7160e01b6000525260246000fd5b603285634e487b7160e01b6000525260246000fd5b3d8085843e61296d8184611eaf565b82019183818403126129ff5780519182116129ff57019281601f850112156129fc5783519061299b82611f2b565b946129a887519687611eaf565b828652848087019360051b8201019384116129f8578401915b8383106129d55750505050503880806128ab565b82516001600160d81b03811681036129f45781529184019184016129c1565b8280fd5b5080fd5b80fd5b8480fd5b84513d6000823e3d90fd5b835163ffffffff1685528795509384019390920191600101612886565b604188634e487b7160e01b6000525260246000fd5b90938482813d8311612a68575b612a578183611eaf565b810103126129fc575051923861280e565b503d612a4d565b82513d6000823e3d90fd5b80511561040c5760200190565b6001600160a01b039091168152602081019190915260400190565b9190826040910312610392576020825192015190565b6001600160a01b03918216815291166020820152604081019190915260600190565b3d15612b14573d906001600160401b0382116108ad5760405191612b08601f8201601f191660200184611eaf565b82523d6000602084013e565b60609056fea26469706673582212204fa44d975f427bee099c3acd8de6c8b41cf8b535209069927ff08d9818e2d82564736f6c63430008110033",
  "devdoc": {
    "details": "See ILPAdapter interface for full details.",
    "kind": "dev",
    "methods": {
      "getFiatPrice1e18(address)": {
        "params": {
          "asset": "- address of erc20 token contract"
        },
        "returns": {
          "_0": "usdPrice1e18 such that asset.balanceOf() * getFiatPrice1e18(asset) / 1e18 == $$ * 1e18*"
        }
      },
      "isAdapterLP(address)": {
        "params": {
          "asset": "- address of LP token to check*"
        }
      },
      "registerLP(address,address,address)": {
        "params": {
          "lp": "address of LP token",
          "market": "market for LP token*"
        }
      },
      "supportsInterface(bytes4)": {
        "details": "Returns true if this contract implements the interface defined by `interfaceId`. See the corresponding https://eips.ethereum.org/EIPS/eip-165#how-interfaces-are-identified[EIP section] to learn more about how these ids are created. This function call must use less than 30 000 gas."
      },
      "withdraw(address,uint256)": {
        "params": {
          "amount": "- amount of asset to withdraw/unwrap*",
          "asset": "- address of LP token to withdraw/unwrap"
        }
      }
    },
    "title": "PendleAdapter",
    "version": 1
  },
  "userdoc": {
    "kind": "user",
    "methods": {
      "getFiatPrice1e18(address)": {
        "notice": "WARNING! Read this description very carefully!     function getFiatPrice1e18(address asset) returns (uint256) that:         basicAmountOfAsset * getFiatPrice1e18(asset) / 1e18 === $$ * 1e18     in other words, it doesn't matter what's the erc20.decimals is,     you just multiply token balance in basic units on value from oracle and get dollar amount multiplied on 1e18. different assets have different deviation threshold (errors)     for wBTC it's <= 0.5%, read more https://data.chain.link/ethereum/mainnet/crypto-usd/btc-usd     for other asset is can be larger based on particular oracle implementation. examples:     market price of btc = $30k,     for 0.1 wBTC the unit256 amount is 0.1 * 1e18     0.1 * 1e18 * (price1e18 / 1e18) == $3000 == uint256(3000*1e18)     => price1e18 = 30000 * 1e18;     market price of usdt = $0.97,     for 1 usdt uint256 = 1 * 1e6     so 1*1e6 * price1e18 / 1e18 == $0.97 == uint256(0.97*1e18)     => 1*1e6 * (price1e18 / 1e18) / (0.97*1e18)   = 1     =>  price1e18 = 0.97 * (1e18/1e6) * 1e18    assume market price of wBTC = $31,503.77, oracle error = $158     case #1: small amount of wBTC         we have 0.0,000,001 wBTC that is worth v = $0.00315  $0.00001 = 0.00315*1e18 = 315*1e13  1*1e13         actual balance on the asset b = wBTC.balanceOf() =  0.0000001*1e18 = 1e11         oracle should return or = oracle.getFiatPrice1e18(wBTC) <=>         <=> b*or = v => v/b = 315*1e13 / 1e11 = 315*1e2  1e2         error = or.error * b = 1e2 * 1e11 = 1e13 => 1e13/1e18 usd = 1e-5 = 0.00001 usd     case #2: large amount of wBTC         v = 2,000,000 wBTC = $31,503.77 * 2m  158*2m = $63,007,540,000  $316,000,000 = 63,007*1e24  316*1e24         for calc convenience we increase error on 0.05 and have v = 63,000*24  300*1e24 = (630  3)*1e26         b = 2*1e6 * 1e18 = 2*1e24         or = v/b = (630  3)*1e26 / 2*1e24 = 315*1e2  1.5*1e2         error = or.error * b = 1.5*100 * 2*1e24 = 3*1e26 = 3*1e8*1e18 = $300,000,000 ~ $316,000,000     assume the market price of USDT = $0.97  $0.00485,     case #3: little amount of USDT         v = USDT amount 0.005 = 0.005*(0.97  0.00485) = 0.00485*1e18  0.00002425*1e18 = 485*1e13  3*1e13         we rounded error up on (3000-2425)/2425 ~= +24% for calculation convenience.         b = USDT.balanceOf() = 0.005*1e6 = 5*1e3         b*or = v => or = v/b = (485*1e13  3*1e13) / 5*1e3 = 970*1e9  6*1e9         error = 6*1e9 * 5*1e3 / 1e18 = 30*1e12/1e18 = 3*1e-5 = $0,00005     case #4: lot of USDT         v = we have 100,000,000,000 USDT = $97B = 97*1e9*1e18  0.5*1e9*1e18         b = USDT.balanceOf() = 1e11*1e6 = 1e17         or = v/b = (97*1e9*1e18  0.5*1e9*1e18) / 1e17 = 970*1e9  5*1e9         error = 5*1e9 * 1e17 = 5*1e26 = 0.5 * 1e8*1e18"
      },
      "getFiatPrice1e18Unsafe(address)": {
        "notice": "Is depreceted, only for tests usage"
      },
      "isAdapterLP(address)": {
        "notice": "Returns if asset ig Balancer LP token, registered in our adapter"
      },
      "registerLP(address,address,address)": {
        "notice": "Register the given LP token address and set the LP info"
      },
      "withdraw(address,uint256)": {
        "notice": "Unwrap LP token with depth = 2 (if underlying token is LP => it's also unwrapping)"
      }
    },
    "notice": "Adapter for Pendle LP token.",
    "version": 1
  },
  "storageLayout": {
    "storage": [
      {
        "astId": 671,
        "contract": "contracts/periphery/contracts/adapters/PendleAdapter.sol:PendleAdapter",
        "label": "_initialized",
        "offset": 0,
        "slot": "0",
        "type": "t_uint8"
      },
      {
        "astId": 674,
        "contract": "contracts/periphery/contracts/adapters/PendleAdapter.sol:PendleAdapter",
        "label": "_initializing",
        "offset": 1,
        "slot": "0",
        "type": "t_bool"
      },
      {
        "astId": 28586,
        "contract": "contracts/periphery/contracts/adapters/PendleAdapter.sol:PendleAdapter",
        "label": "ACCESS_CONTROL_SINGLETON",
        "offset": 2,
        "slot": "0",
        "type": "t_contract(ISuAccessControl)32175"
      },
      {
        "astId": 30515,
        "contract": "contracts/periphery/contracts/adapters/PendleAdapter.sol:PendleAdapter",
        "label": "lps",
        "offset": 0,
        "slot": "1",
        "type": "t_mapping(t_address,t_struct(PendleLPInfo)30499_storage)"
      },
      {
        "astId": 30518,
        "contract": "contracts/periphery/contracts/adapters/PendleAdapter.sol:PendleAdapter",
        "label": "ORACLE",
        "offset": 0,
        "slot": "2",
        "type": "t_contract(ISuOracleAggregator)32414"
      },
      {
        "astId": 30521,
        "contract": "contracts/periphery/contracts/adapters/PendleAdapter.sol:PendleAdapter",
        "label": "underlyingTokens",
        "offset": 0,
        "slot": "3",
        "type": "t_array(t_address)dyn_storage"
      },
      {
        "astId": 30871,
        "contract": "contracts/periphery/contracts/adapters/PendleAdapter.sol:PendleAdapter",
        "label": "__gap",
        "offset": 0,
        "slot": "4",
        "type": "t_array(t_uint256)45_storage"
      }
    ],
    "types": {
      "t_address": {
        "encoding": "inplace",
        "label": "address",
        "numberOfBytes": "20"
      },
      "t_array(t_address)dyn_storage": {
        "base": "t_address",
        "encoding": "dynamic_array",
        "label": "address[]",
        "numberOfBytes": "32"
      },
      "t_array(t_uint256)45_storage": {
        "base": "t_uint256",
        "encoding": "inplace",
        "label": "uint256[45]",
        "numberOfBytes": "1440"
      },
      "t_bool": {
        "encoding": "inplace",
        "label": "bool",
        "numberOfBytes": "1"
      },
      "t_contract(IPMarket)12640": {
        "encoding": "inplace",
        "label": "contract IPMarket",
        "numberOfBytes": "20"
      },
      "t_contract(IPPrincipalToken)12690": {
        "encoding": "inplace",
        "label": "contract IPPrincipalToken",
        "numberOfBytes": "20"
      },
      "t_contract(IPYieldToken)12847": {
        "encoding": "inplace",
        "label": "contract IPYieldToken",
        "numberOfBytes": "20"
      },
      "t_contract(IStandardizedYield)13043": {
        "encoding": "inplace",
        "label": "contract IStandardizedYield",
        "numberOfBytes": "20"
      },
      "t_contract(ISuAccessControl)32175": {
        "encoding": "inplace",
        "label": "contract ISuAccessControl",
        "numberOfBytes": "20"
      },
      "t_contract(ISuOracleAggregator)32414": {
        "encoding": "inplace",
        "label": "contract ISuOracleAggregator",
        "numberOfBytes": "20"
      },
      "t_mapping(t_address,t_struct(PendleLPInfo)30499_storage)": {
        "encoding": "mapping",
        "key": "t_address",
        "label": "mapping(address => struct PendleLPInfo)",
        "numberOfBytes": "32",
        "value": "t_struct(PendleLPInfo)30499_storage"
      },
      "t_struct(PendleLPInfo)30499_storage": {
        "encoding": "inplace",
        "label": "struct PendleLPInfo",
        "members": [
          {
            "astId": 30484,
            "contract": "contracts/periphery/contracts/adapters/PendleAdapter.sol:PendleAdapter",
            "label": "market",
            "offset": 0,
            "slot": "0",
            "type": "t_contract(IPMarket)12640"
          },
          {
            "astId": 30487,
            "contract": "contracts/periphery/contracts/adapters/PendleAdapter.sol:PendleAdapter",
            "label": "SY",
            "offset": 0,
            "slot": "1",
            "type": "t_contract(IStandardizedYield)13043"
          },
          {
            "astId": 30490,
            "contract": "contracts/periphery/contracts/adapters/PendleAdapter.sol:PendleAdapter",
            "label": "PT",
            "offset": 0,
            "slot": "2",
            "type": "t_contract(IPPrincipalToken)12690"
          },
          {
            "astId": 30493,
            "contract": "contracts/periphery/contracts/adapters/PendleAdapter.sol:PendleAdapter",
            "label": "YT",
            "offset": 0,
            "slot": "3",
            "type": "t_contract(IPYieldToken)12847"
          },
          {
            "astId": 30496,
            "contract": "contracts/periphery/contracts/adapters/PendleAdapter.sol:PendleAdapter",
            "label": "underlyingTokens",
            "offset": 0,
            "slot": "4",
            "type": "t_array(t_address)dyn_storage"
          },
          {
            "astId": 30498,
            "contract": "contracts/periphery/contracts/adapters/PendleAdapter.sol:PendleAdapter",
            "label": "mainUnderlyingToken",
            "offset": 0,
            "slot": "5",
            "type": "t_address"
          }
        ],
        "numberOfBytes": "192"
      },
      "t_uint256": {
        "encoding": "inplace",
        "label": "uint256",
        "numberOfBytes": "32"
      },
      "t_uint8": {
        "encoding": "inplace",
        "label": "uint8",
        "numberOfBytes": "1"
      }
    }
  }
}