{
  "address": "0x708071C080E5ceb3cc0fb8fb4fD1034766eAef24",
  "abi": [
    {
      "anonymous": false,
      "inputs": [
        {
          "indexed": false,
          "internalType": "uint8",
          "name": "version",
          "type": "uint8"
        }
      ],
      "name": "Initialized",
      "type": "event"
    },
    {
      "anonymous": false,
      "inputs": [
        {
          "indexed": true,
          "internalType": "bytes32",
          "name": "role",
          "type": "bytes32"
        },
        {
          "indexed": true,
          "internalType": "bytes32",
          "name": "previousAdminRole",
          "type": "bytes32"
        },
        {
          "indexed": true,
          "internalType": "bytes32",
          "name": "newAdminRole",
          "type": "bytes32"
        }
      ],
      "name": "RoleAdminChanged",
      "type": "event"
    },
    {
      "anonymous": false,
      "inputs": [
        {
          "indexed": true,
          "internalType": "bytes32",
          "name": "role",
          "type": "bytes32"
        },
        {
          "indexed": true,
          "internalType": "address",
          "name": "account",
          "type": "address"
        },
        {
          "indexed": true,
          "internalType": "address",
          "name": "sender",
          "type": "address"
        }
      ],
      "name": "RoleGranted",
      "type": "event"
    },
    {
      "anonymous": false,
      "inputs": [
        {
          "indexed": true,
          "internalType": "bytes32",
          "name": "role",
          "type": "bytes32"
        },
        {
          "indexed": true,
          "internalType": "address",
          "name": "account",
          "type": "address"
        },
        {
          "indexed": true,
          "internalType": "address",
          "name": "sender",
          "type": "address"
        }
      ],
      "name": "RoleRevoked",
      "type": "event"
    },
    {
      "inputs": [],
      "name": "ADMIN_ROLE",
      "outputs": [
        {
          "internalType": "bytes32",
          "name": "",
          "type": "bytes32"
        }
      ],
      "stateMutability": "view",
      "type": "function"
    },
    {
      "inputs": [],
      "name": "ALERTER_ROLE",
      "outputs": [
        {
          "internalType": "bytes32",
          "name": "",
          "type": "bytes32"
        }
      ],
      "stateMutability": "view",
      "type": "function"
    },
    {
      "inputs": [],
      "name": "DAO_ROLE",
      "outputs": [
        {
          "internalType": "bytes32",
          "name": "",
          "type": "bytes32"
        }
      ],
      "stateMutability": "view",
      "type": "function"
    },
    {
      "inputs": [],
      "name": "DEFAULT_ADMIN_ROLE",
      "outputs": [
        {
          "internalType": "bytes32",
          "name": "",
          "type": "bytes32"
        }
      ],
      "stateMutability": "view",
      "type": "function"
    },
    {
      "inputs": [],
      "name": "LIQUIDATION_ACCESS_ROLE",
      "outputs": [
        {
          "internalType": "bytes32",
          "name": "",
          "type": "bytes32"
        }
      ],
      "stateMutability": "view",
      "type": "function"
    },
    {
      "inputs": [],
      "name": "MINT_ACCESS_ROLE",
      "outputs": [
        {
          "internalType": "bytes32",
          "name": "",
          "type": "bytes32"
        }
      ],
      "stateMutability": "view",
      "type": "function"
    },
    {
      "inputs": [],
      "name": "REWARD_ACCESS_ROLE",
      "outputs": [
        {
          "internalType": "bytes32",
          "name": "",
          "type": "bytes32"
        }
      ],
      "stateMutability": "view",
      "type": "function"
    },
    {
      "inputs": [],
      "name": "VAULT_ACCESS_ROLE",
      "outputs": [
        {
          "internalType": "bytes32",
          "name": "",
          "type": "bytes32"
        }
      ],
      "stateMutability": "view",
      "type": "function"
    },
    {
      "inputs": [
        {
          "internalType": "bytes32",
          "name": "role",
          "type": "bytes32"
        }
      ],
      "name": "getRoleAdmin",
      "outputs": [
        {
          "internalType": "bytes32",
          "name": "",
          "type": "bytes32"
        }
      ],
      "stateMutability": "view",
      "type": "function"
    },
    {
      "inputs": [
        {
          "internalType": "bytes32",
          "name": "role",
          "type": "bytes32"
        },
        {
          "internalType": "address",
          "name": "account",
          "type": "address"
        }
      ],
      "name": "grantRole",
      "outputs": [],
      "stateMutability": "nonpayable",
      "type": "function"
    },
    {
      "inputs": [
        {
          "internalType": "bytes32",
          "name": "role",
          "type": "bytes32"
        },
        {
          "internalType": "address",
          "name": "account",
          "type": "address"
        }
      ],
      "name": "hasRole",
      "outputs": [
        {
          "internalType": "bool",
          "name": "",
          "type": "bool"
        }
      ],
      "stateMutability": "view",
      "type": "function"
    },
    {
      "inputs": [
        {
          "internalType": "address",
          "name": "dao",
          "type": "address"
        }
      ],
      "name": "initialize",
      "outputs": [],
      "stateMutability": "nonpayable",
      "type": "function"
    },
    {
      "inputs": [
        {
          "internalType": "bytes32",
          "name": "role",
          "type": "bytes32"
        },
        {
          "internalType": "address",
          "name": "account",
          "type": "address"
        }
      ],
      "name": "renounceRole",
      "outputs": [],
      "stateMutability": "nonpayable",
      "type": "function"
    },
    {
      "inputs": [
        {
          "internalType": "bytes32",
          "name": "role",
          "type": "bytes32"
        },
        {
          "internalType": "address",
          "name": "account",
          "type": "address"
        }
      ],
      "name": "revokeRole",
      "outputs": [],
      "stateMutability": "nonpayable",
      "type": "function"
    },
    {
      "inputs": [
        {
          "internalType": "bytes32",
          "name": "role",
          "type": "bytes32"
        },
        {
          "internalType": "bytes32",
          "name": "adminRole",
          "type": "bytes32"
        }
      ],
      "name": "setRoleAdmin",
      "outputs": [],
      "stateMutability": "nonpayable",
      "type": "function"
    },
    {
      "inputs": [
        {
          "internalType": "bytes4",
          "name": "interfaceId",
          "type": "bytes4"
        }
      ],
      "name": "supportsInterface",
      "outputs": [
        {
          "internalType": "bool",
          "name": "",
          "type": "bool"
        }
      ],
      "stateMutability": "view",
      "type": "function"
    }
  ],
  "numDeployments": 1,
  "solcInputHash": "6bdb767f00e3f0fe0de7c63e7a48801d",
  "bytecode": "0x6080806040523461001657610ec4908161001c8239f35b600080fdfe608060408181526004918236101561001657600080fd5b600092833560e01c91826301ffc9a71461092d5750816314c376dc146109045781631e4e0091146106ca578163248a9ca31461069f5781632f2ff15d1461060457816336568abe14610572578163438280dd1461054957816371d0fb411461052057816375b238fc146104a45781638e5313e0146104f757816391d14854146104b0578163a217fddf146104a4578163c4d66de81461016c578163d547741f1461012957508063dc97e84e146101015763e9c26518146100d6575b600080fd5b346100fd57816003193601126100fd5760209051600080516020610daf8339815191528152f35b5080fd5b50346100fd57816003193601126100fd5760209051600080516020610e0f8339815191528152f35b919050346101685780600319360112610168576101659135610160600161014e610980565b938387526065602052862001546109b3565b610bd5565b80f35b8280fd5b90503461016857602090816003193601126104a05780356001600160a01b0381169081900361049c5784549060ff90818360081c161592838094610490575b801561047a575b156104205760019460ff19918587848316178b5561040f575b5083895460081c16156103b857509087929183805260658752878420338552875282888520541615610384575b600080516020610daf8339815191529283855260658852888520838652885288852054161561034e575b5050808252606585528582208401805490829055600080516020610dcf8339815191529190819081848680a48280528683208501805490829055819084848180a4600080516020610e2f83398151915280845287842086018054908390558291848680a4600080516020610e6f83398151915280845287842086018054908390558291848680a4600080516020610e0f83398151915280845287842086018054908390558291848680a4600080516020610e4f833981519152808452878420860180549083905590838580a4600080516020610def8339815191528083528683208501805490849055918380a4610317578380f35b7f7f26b83ff96e1f2b6a682f133852f6798a09c465da95921460cefb38474024989261ff0019855416855551908152a13880808380f35b8284526065875287842082855287528588852091825416179055339082600080516020610d6f8339815191528580a43880610222565b8380526065875287842033855287528784208682825416179055333385600080516020610d6f8339815191528180a46101f8565b875162461bcd60e51b8152908101879052602b60248201527f496e697469616c697a61626c653a20636f6e7472616374206973206e6f74206960448201526a6e697469616c697a696e6760a81b6064820152608490fd5b61ffff1916610101178955386101cb565b865162461bcd60e51b8152808601879052602e60248201527f496e697469616c697a61626c653a20636f6e747261637420697320616c72656160448201526d191e481a5b9a5d1a585b1a5e995960921b6064820152608490fd5b50303b1580156101b257506001838216146101b2565b506001838216106101ab565b8480fd5b8380fd5b505050506100d1610996565b9050346101685781600319360112610168578160209360ff926104d1610980565b90358252606586528282206001600160a01b039091168252855220549151911615158152f35b5050346100fd57816003193601126100fd5760209051600080516020610e2f8339815191528152f35b5050346100fd57816003193601126100fd5760209051600080516020610def8339815191528152f35b5050346100fd57816003193601126100fd5760209051600080516020610e4f8339815191528152f35b839150346100fd57826003193601126100fd5761058d610980565b90336001600160a01b038316036105a957906101659135610bd5565b608490602085519162461bcd60e51b8352820152602f60248201527f416363657373436f6e74726f6c3a2063616e206f6e6c792072656e6f756e636560448201526e103937b632b9903337b91039b2b63360891b6064820152fd5b9050346101685781600319360112610168573590610620610980565b908284526065602052610638600182862001546109b3565b828452606560209081528185206001600160a01b039093168086529290528084205460ff1615610666578380f35b82845260656020528084208285526020528320600160ff198254161790553391600080516020610d6f8339815191528480a43880808380f35b9050346101685760203660031901126101685781602093600192358152606585522001549051908152f35b9190503461016857806003193601126101685781356024803593600080516020610daf8339815191529182875260209260658452858820338952845260ff86892054161561073e575050508185526065905290832060010180549083905590600080516020610dcf8339815191528480a480f35b87869161074a33610c72565b83519161075683610b81565b604283528783019360603686378351156108f257603085538351906001918210156108e05790607860218601536041915b81831161087757505050610849578361081a60488961083b9660449a999661080b6107e29776020b1b1b2b9b9a1b7b73a3937b61d1030b1b1b7bab73a1604d1b9b5198858a9687019d8e528251928391603789019101610b5e565b8401917001034b99036b4b9b9b4b733903937b6329607d1b603784015251809386840190610b5e565b01036028810185520183610bb2565b5196879562461bcd60e51b8752860152519283809286015285850190610b5e565b601f01601f19168101030190fd5b60648688878188519362461bcd60e51b8552840152820152600080516020610d8f8339815191526044820152fd5b909192600f811660108110156108ce576f181899199a1a9b1b9c1cb0b131b232b360811b901a6108a78588610c4b565b53891c9280156108bc57600019019190610787565b634e487b7160e01b825260118a528882fd5b634e487b7160e01b835260328b528983fd5b634e487b7160e01b8152603289528790fd5b634e487b7160e01b8152603288528690fd5b5050346100fd57816003193601126100fd5760209051600080516020610e6f8339815191528152f35b849134610168576020366003190112610168573563ffffffff60e01b81168091036101685760209250637965db0b60e01b811490811561096f575b5015158152f35b6301ffc9a760e01b14905083610968565b602435906001600160a01b03821682036100d157565b50346100d15760003660031901126100d157602060405160008152f35b6000818152602060658152604092838320338452825260ff8484205416156109db5750505050565b6109e433610c72565b908451906109f182610b81565b60428252838201946060368737825115610b4a5760308653825190600191821015610b4a5790607860218501536041915b818311610adc57505050610aac5784610a88604861083b936044979851988991610a798984019876020b1b1b2b9b9a1b7b73a3937b61d1030b1b1b7bab73a1604d1b8a526107e2815180928d603789019101610b5e565b01036028810189520187610bb2565b5194859362461bcd60e51b8552600485015251809281602486015285850190610b5e565b60648386519062461bcd60e51b82528060048301526024820152600080516020610d8f8339815191526044820152fd5b909192600f81166010811015610b36576f181899199a1a9b1b9c1cb0b131b232b360811b901a610b0c8587610c4b565b5360041c928015610b2257600019019190610a22565b634e487b7160e01b82526011600452602482fd5b634e487b7160e01b83526032600452602483fd5b634e487b7160e01b81526032600452602490fd5b60005b838110610b715750506000910152565b8181015183820152602001610b61565b608081019081106001600160401b03821117610b9c57604052565b634e487b7160e01b600052604160045260246000fd5b601f909101601f19168101906001600160401b03821190821017610b9c57604052565b906000918083526065602052604083209160018060a01b03169182845260205260ff604084205416610c0657505050565b8083526065602052604083208284526020526040832060ff1981541690557ff6391f5c32d9c69d2a47ea670b442974b53935d1edc7fd64eb21e047a839171b339380a4565b908151811015610c5c570160200190565b634e487b7160e01b600052603260045260246000fd5b60405190606082016001600160401b03811183821017610b9c57604052602a8252602082016040368237825115610c5c57603090538151600190811015610c5c57607860218401536029905b808211610d00575050610cce5790565b606460405162461bcd60e51b81526020600482015260206024820152600080516020610d8f8339815191526044820152fd5b9091600f81166010811015610d59576f181899199a1a9b1b9c1cb0b131b232b360811b901a610d2f8486610c4b565b5360041c918015610d44576000190190610cbe565b60246000634e487b7160e01b81526011600452fd5b60246000634e487b7160e01b81526032600452fdfe2f8788117e7eff1d82e926ec794901d17c78024a50270940304540a733656f0d537472696e67733a20686578206c656e67746820696e73756666696369656e743b5d4cc60d3ec3516ee8ae083bd60934f6eb2a6c54b1229985c41bfb092b2603bd79b86ffe0ab8e8776151514217cd7cacd52c909f66475c3af44e129f0b00ff880a91047114272656e533301261260c75e4d11543ac7303d6fe4204579ec7279a9aef7c1247d5fc769b0185c052913e39673da29a880317dfd20ebf86f26a49e453bacb314e78dcd5192e6b1a2b1f0e7c76e92f6b7e429a6a90f04e39db3b7639f61ca2a1a28fee144218173ec637b649a353e4026b2738c673800e5bf1437be965846df3dd5b1dfa65f58e31477079e90140e0908b6dd31b5aead5a57cf365a2646970667358221220c458ff5069bb51b93aa2a41ca68df5158dcd828d432eb56b786fa059816c0ed464736f6c63430008110033",
  "devdoc": {
    "details": "Access control for contracts. SuVaultParameters can be inherited from it. see hierarchy in SuAccessRoles.sol",
    "kind": "dev",
    "methods": {
      "getRoleAdmin(bytes32)": {
        "details": "Returns the admin role that controls `role`. See {grantRole} and {revokeRole}. To change a role's admin, use {_setRoleAdmin}."
      },
      "grantRole(bytes32,address)": {
        "details": "Grants `role` to `account`. If `account` had not been already granted `role`, emits a {RoleGranted} event. Requirements: - the caller must have ``role``'s admin role. May emit a {RoleGranted} event."
      },
      "hasRole(bytes32,address)": {
        "details": "Returns `true` if `account` has been granted `role`."
      },
      "initialize(address)": {
        "details": "Initialize the contract with initial owner to be deployer"
      },
      "renounceRole(bytes32,address)": {
        "details": "Revokes `role` from the calling account. Roles are often managed via {grantRole} and {revokeRole}: this function's purpose is to provide a mechanism for accounts to lose their privileges if they are compromised (such as when a trusted device is misplaced). If the calling account had been revoked `role`, emits a {RoleRevoked} event. Requirements: - the caller must be `account`. May emit a {RoleRevoked} event."
      },
      "revokeRole(bytes32,address)": {
        "details": "Revokes `role` from `account`. If `account` had been granted `role`, emits a {RoleRevoked} event. Requirements: - the caller must have ``role``'s admin role. May emit a {RoleRevoked} event."
      },
      "supportsInterface(bytes4)": {
        "details": "See {IERC165-supportsInterface}."
      }
    },
    "title": "SuAccessControl",
    "version": 1
  },
  "userdoc": {
    "kind": "user",
    "methods": {},
    "version": 1
  },
  "storageLayout": {
    "storage": [
      {
        "astId": 671,
        "contract": "contracts/periphery/contracts/access-control/SuAccessControlSingleton.sol:SuAccessControlSingleton",
        "label": "_initialized",
        "offset": 0,
        "slot": "0",
        "type": "t_uint8"
      },
      {
        "astId": 674,
        "contract": "contracts/periphery/contracts/access-control/SuAccessControlSingleton.sol:SuAccessControlSingleton",
        "label": "_initializing",
        "offset": 1,
        "slot": "0",
        "type": "t_bool"
      },
      {
        "astId": 1803,
        "contract": "contracts/periphery/contracts/access-control/SuAccessControlSingleton.sol:SuAccessControlSingleton",
        "label": "__gap",
        "offset": 0,
        "slot": "1",
        "type": "t_array(t_uint256)50_storage"
      },
      {
        "astId": 2076,
        "contract": "contracts/periphery/contracts/access-control/SuAccessControlSingleton.sol:SuAccessControlSingleton",
        "label": "__gap",
        "offset": 0,
        "slot": "51",
        "type": "t_array(t_uint256)50_storage"
      },
      {
        "astId": 295,
        "contract": "contracts/periphery/contracts/access-control/SuAccessControlSingleton.sol:SuAccessControlSingleton",
        "label": "_roles",
        "offset": 0,
        "slot": "101",
        "type": "t_mapping(t_bytes32,t_struct(RoleData)290_storage)"
      },
      {
        "astId": 590,
        "contract": "contracts/periphery/contracts/access-control/SuAccessControlSingleton.sol:SuAccessControlSingleton",
        "label": "__gap",
        "offset": 0,
        "slot": "102",
        "type": "t_array(t_uint256)49_storage"
      }
    ],
    "types": {
      "t_address": {
        "encoding": "inplace",
        "label": "address",
        "numberOfBytes": "20"
      },
      "t_array(t_uint256)49_storage": {
        "base": "t_uint256",
        "encoding": "inplace",
        "label": "uint256[49]",
        "numberOfBytes": "1568"
      },
      "t_array(t_uint256)50_storage": {
        "base": "t_uint256",
        "encoding": "inplace",
        "label": "uint256[50]",
        "numberOfBytes": "1600"
      },
      "t_bool": {
        "encoding": "inplace",
        "label": "bool",
        "numberOfBytes": "1"
      },
      "t_bytes32": {
        "encoding": "inplace",
        "label": "bytes32",
        "numberOfBytes": "32"
      },
      "t_mapping(t_address,t_bool)": {
        "encoding": "mapping",
        "key": "t_address",
        "label": "mapping(address => bool)",
        "numberOfBytes": "32",
        "value": "t_bool"
      },
      "t_mapping(t_bytes32,t_struct(RoleData)290_storage)": {
        "encoding": "mapping",
        "key": "t_bytes32",
        "label": "mapping(bytes32 => struct AccessControlUpgradeable.RoleData)",
        "numberOfBytes": "32",
        "value": "t_struct(RoleData)290_storage"
      },
      "t_struct(RoleData)290_storage": {
        "encoding": "inplace",
        "label": "struct AccessControlUpgradeable.RoleData",
        "members": [
          {
            "astId": 287,
            "contract": "contracts/periphery/contracts/access-control/SuAccessControlSingleton.sol:SuAccessControlSingleton",
            "label": "members",
            "offset": 0,
            "slot": "0",
            "type": "t_mapping(t_address,t_bool)"
          },
          {
            "astId": 289,
            "contract": "contracts/periphery/contracts/access-control/SuAccessControlSingleton.sol:SuAccessControlSingleton",
            "label": "adminRole",
            "offset": 0,
            "slot": "1",
            "type": "t_bytes32"
          }
        ],
        "numberOfBytes": "64"
      },
      "t_uint256": {
        "encoding": "inplace",
        "label": "uint256",
        "numberOfBytes": "32"
      },
      "t_uint8": {
        "encoding": "inplace",
        "label": "uint8",
        "numberOfBytes": "1"
      }
    }
  }
}