{
  "address": "0x8D8Ba548bDae0063c481A1ee9C82e5C81C020888",
  "abi": [
    {
      "inputs": [],
      "name": "AlreadyDisabled",
      "type": "error"
    },
    {
      "inputs": [],
      "name": "AlreadyEnabled",
      "type": "error"
    },
    {
      "inputs": [],
      "name": "AlreadyExist",
      "type": "error"
    },
    {
      "inputs": [],
      "name": "ArgumentsLengthMismatch",
      "type": "error"
    },
    {
      "inputs": [],
      "name": "BadAccessControlSingleton",
      "type": "error"
    },
    {
      "inputs": [],
      "name": "NotExist",
      "type": "error"
    },
    {
      "inputs": [],
      "name": "OnlyAdminError",
      "type": "error"
    },
    {
      "inputs": [],
      "name": "OnlyAlerterError",
      "type": "error"
    },
    {
      "inputs": [],
      "name": "OnlyDAOError",
      "type": "error"
    },
    {
      "inputs": [],
      "name": "OnlyLiquidationAccessError",
      "type": "error"
    },
    {
      "inputs": [],
      "name": "OnlyMintAccessError",
      "type": "error"
    },
    {
      "inputs": [],
      "name": "OnlyRewardAccessError",
      "type": "error"
    },
    {
      "inputs": [],
      "name": "OnlyRoleError",
      "type": "error"
    },
    {
      "inputs": [],
      "name": "OnlyVaultAccessError",
      "type": "error"
    },
    {
      "inputs": [],
      "name": "ZeroAddress",
      "type": "error"
    },
    {
      "anonymous": false,
      "inputs": [
        {
          "indexed": true,
          "internalType": "address",
          "name": "asset",
          "type": "address"
        },
        {
          "indexed": true,
          "internalType": "address",
          "name": "owner",
          "type": "address"
        }
      ],
      "name": "Added",
      "type": "event"
    },
    {
      "anonymous": false,
      "inputs": [
        {
          "indexed": true,
          "internalType": "address",
          "name": "asset",
          "type": "address"
        }
      ],
      "name": "CollateralAdded",
      "type": "event"
    },
    {
      "anonymous": false,
      "inputs": [
        {
          "indexed": true,
          "internalType": "address",
          "name": "asset",
          "type": "address"
        }
      ],
      "name": "CollateralDisabled",
      "type": "event"
    },
    {
      "anonymous": false,
      "inputs": [
        {
          "indexed": true,
          "internalType": "address",
          "name": "asset",
          "type": "address"
        }
      ],
      "name": "CollateralEnabled",
      "type": "event"
    },
    {
      "anonymous": false,
      "inputs": [
        {
          "indexed": false,
          "internalType": "uint8",
          "name": "version",
          "type": "uint8"
        }
      ],
      "name": "Initialized",
      "type": "event"
    },
    {
      "anonymous": false,
      "inputs": [
        {
          "indexed": true,
          "internalType": "address",
          "name": "asset",
          "type": "address"
        },
        {
          "indexed": true,
          "internalType": "address",
          "name": "owner",
          "type": "address"
        }
      ],
      "name": "Removed",
      "type": "event"
    },
    {
      "inputs": [],
      "name": "ACCESS_CONTROL_SINGLETON",
      "outputs": [
        {
          "internalType": "contract ISuAccessControl",
          "name": "",
          "type": "address"
        }
      ],
      "stateMutability": "view",
      "type": "function"
    },
    {
      "inputs": [],
      "name": "ADMIN_ROLE",
      "outputs": [
        {
          "internalType": "bytes32",
          "name": "",
          "type": "bytes32"
        }
      ],
      "stateMutability": "view",
      "type": "function"
    },
    {
      "inputs": [],
      "name": "ALERTER_ROLE",
      "outputs": [
        {
          "internalType": "bytes32",
          "name": "",
          "type": "bytes32"
        }
      ],
      "stateMutability": "view",
      "type": "function"
    },
    {
      "inputs": [],
      "name": "DAO_ROLE",
      "outputs": [
        {
          "internalType": "bytes32",
          "name": "",
          "type": "bytes32"
        }
      ],
      "stateMutability": "view",
      "type": "function"
    },
    {
      "inputs": [],
      "name": "LIQUIDATION_ACCESS_ROLE",
      "outputs": [
        {
          "internalType": "bytes32",
          "name": "",
          "type": "bytes32"
        }
      ],
      "stateMutability": "view",
      "type": "function"
    },
    {
      "inputs": [],
      "name": "MINT_ACCESS_ROLE",
      "outputs": [
        {
          "internalType": "bytes32",
          "name": "",
          "type": "bytes32"
        }
      ],
      "stateMutability": "view",
      "type": "function"
    },
    {
      "inputs": [],
      "name": "REWARD_ACCESS_ROLE",
      "outputs": [
        {
          "internalType": "bytes32",
          "name": "",
          "type": "bytes32"
        }
      ],
      "stateMutability": "view",
      "type": "function"
    },
    {
      "inputs": [],
      "name": "VAULT_ACCESS_ROLE",
      "outputs": [
        {
          "internalType": "bytes32",
          "name": "",
          "type": "bytes32"
        }
      ],
      "stateMutability": "view",
      "type": "function"
    },
    {
      "inputs": [
        {
          "internalType": "address",
          "name": "asset",
          "type": "address"
        }
      ],
      "name": "addCollateral",
      "outputs": [],
      "stateMutability": "nonpayable",
      "type": "function"
    },
    {
      "inputs": [
        {
          "internalType": "address",
          "name": "asset",
          "type": "address"
        },
        {
          "internalType": "address",
          "name": "owner",
          "type": "address"
        }
      ],
      "name": "checkpoint",
      "outputs": [],
      "stateMutability": "nonpayable",
      "type": "function"
    },
    {
      "inputs": [
        {
          "internalType": "address",
          "name": "",
          "type": "address"
        }
      ],
      "name": "collateralInfo",
      "outputs": [
        {
          "internalType": "uint256",
          "name": "index",
          "type": "uint256"
        },
        {
          "internalType": "bool",
          "name": "isDisabled",
          "type": "bool"
        }
      ],
      "stateMutability": "view",
      "type": "function"
    },
    {
      "inputs": [
        {
          "internalType": "uint256",
          "name": "",
          "type": "uint256"
        }
      ],
      "name": "collaterals",
      "outputs": [
        {
          "internalType": "address",
          "name": "",
          "type": "address"
        }
      ],
      "stateMutability": "view",
      "type": "function"
    },
    {
      "inputs": [
        {
          "internalType": "address",
          "name": "asset",
          "type": "address"
        }
      ],
      "name": "disableCollateral",
      "outputs": [],
      "stateMutability": "nonpayable",
      "type": "function"
    },
    {
      "inputs": [
        {
          "internalType": "address",
          "name": "asset",
          "type": "address"
        }
      ],
      "name": "enableCollateral",
      "outputs": [],
      "stateMutability": "nonpayable",
      "type": "function"
    },
    {
      "inputs": [],
      "name": "getAllCdps",
      "outputs": [
        {
          "components": [
            {
              "internalType": "address",
              "name": "asset",
              "type": "address"
            },
            {
              "internalType": "address",
              "name": "owner",
              "type": "address"
            }
          ],
          "internalType": "struct ISuCdpRegistry.CDP[]",
          "name": "r",
          "type": "tuple[]"
        }
      ],
      "stateMutability": "view",
      "type": "function"
    },
    {
      "inputs": [
        {
          "internalType": "address",
          "name": "asset",
          "type": "address"
        }
      ],
      "name": "getCdpsByCollateral",
      "outputs": [
        {
          "components": [
            {
              "internalType": "address",
              "name": "asset",
              "type": "address"
            },
            {
              "internalType": "address",
              "name": "owner",
              "type": "address"
            }
          ],
          "internalType": "struct ISuCdpRegistry.CDP[]",
          "name": "cdps",
          "type": "tuple[]"
        }
      ],
      "stateMutability": "view",
      "type": "function"
    },
    {
      "inputs": [
        {
          "internalType": "address",
          "name": "owner",
          "type": "address"
        }
      ],
      "name": "getCdpsByOwner",
      "outputs": [
        {
          "components": [
            {
              "internalType": "address",
              "name": "asset",
              "type": "address"
            },
            {
              "internalType": "address",
              "name": "owner",
              "type": "address"
            }
          ],
          "internalType": "struct ISuCdpRegistry.CDP[]",
          "name": "r",
          "type": "tuple[]"
        }
      ],
      "stateMutability": "view",
      "type": "function"
    },
    {
      "inputs": [],
      "name": "getCdpsCount",
      "outputs": [
        {
          "internalType": "uint256",
          "name": "totalCdpCount",
          "type": "uint256"
        }
      ],
      "stateMutability": "view",
      "type": "function"
    },
    {
      "inputs": [
        {
          "internalType": "address",
          "name": "asset",
          "type": "address"
        }
      ],
      "name": "getCdpsCountForCollateral",
      "outputs": [
        {
          "internalType": "uint256",
          "name": "",
          "type": "uint256"
        }
      ],
      "stateMutability": "view",
      "type": "function"
    },
    {
      "inputs": [
        {
          "internalType": "address",
          "name": "_authControl",
          "type": "address"
        },
        {
          "internalType": "address",
          "name": "_vault",
          "type": "address"
        }
      ],
      "name": "initialize",
      "outputs": [],
      "stateMutability": "nonpayable",
      "type": "function"
    },
    {
      "inputs": [
        {
          "internalType": "address",
          "name": "asset",
          "type": "address"
        },
        {
          "internalType": "address",
          "name": "owner",
          "type": "address"
        }
      ],
      "name": "isAlive",
      "outputs": [
        {
          "internalType": "bool",
          "name": "",
          "type": "bool"
        }
      ],
      "stateMutability": "view",
      "type": "function"
    },
    {
      "inputs": [
        {
          "internalType": "address",
          "name": "asset",
          "type": "address"
        }
      ],
      "name": "isCollateral",
      "outputs": [
        {
          "internalType": "bool",
          "name": "",
          "type": "bool"
        }
      ],
      "stateMutability": "view",
      "type": "function"
    },
    {
      "inputs": [
        {
          "internalType": "address",
          "name": "asset",
          "type": "address"
        },
        {
          "internalType": "address",
          "name": "owner",
          "type": "address"
        }
      ],
      "name": "isListed",
      "outputs": [
        {
          "internalType": "bool",
          "name": "",
          "type": "bool"
        }
      ],
      "stateMutability": "view",
      "type": "function"
    },
    {
      "inputs": [
        {
          "internalType": "bytes4",
          "name": "interfaceId",
          "type": "bytes4"
        }
      ],
      "name": "supportsInterface",
      "outputs": [
        {
          "internalType": "bool",
          "name": "",
          "type": "bool"
        }
      ],
      "stateMutability": "view",
      "type": "function"
    },
    {
      "inputs": [],
      "name": "vault",
      "outputs": [
        {
          "internalType": "contract ISuVault",
          "name": "",
          "type": "address"
        }
      ],
      "stateMutability": "view",
      "type": "function"
    }
  ],
  "numDeployments": 1,
  "solcInputHash": "6bdb767f00e3f0fe0de7c63e7a48801d",
  "bytecode": "0x6080806040523461001657611560908161001c8239f35b600080fdfe608060408181526004918236101561001657600080fd5b600092833560e01c91826301ffc9a71461105f5750816303ee9f22146110335781630ee21e541461100d57816311be0de514610efd57816314c376dc14610ec257816324c1173b14610e785781633e18638f14610da2578163438280dd14610d67578163485cc95514610b0c5781635a5fdfe5146109c957816371d0fb411461098e5781637217c39c1461094757816375b238fc1461092c57816375c038b7146107fd5781638e5313e0146107c2578163b0113e6b1461078a578163bb55b7fc1461053c578163bce092c414610518578163dc97e84e146104dd578163e5011ac6146103bc578163e9c2651814610393578163f0d2d5a8146101c657508063f45a432014610199578063f8aa43f7146101635763fbfa77cf1461013857600080fd5b3461015f578160031936011261015f5760055490516001600160a01b039091168152602090f35b5080fd5b503461015f578060031936011261015f576020906101906101826110f4565b61018a61110f565b90611219565b90519015158152f35b503461015f578060031936011261015f576020906101906101b86110f4565b6101c061110f565b906112a0565b83833461015f5760208060031936011261038f576101e26110f4565b83548351632474521560e21b81526000805160206114eb833981519152878201523360248201529192916001600160a01b039183908290604490829060101c86165afa908115610385578691610358575b50156103485782169283156103395761024b8361147b565b8015610322575b6103135760019060025490805191610269836111c5565b8252828483019488865287895252862090518155019051151560ff80198354169116179055600254600160401b81101561030057906102b18260016102d99401600255611125565b9080546001600160a01b0360039390931b83811b80199092169390941690931b909216179055565b7f7db05e63d635a68c62fd7fd8f3107ae8ab584a383e102d1bd8a40f4c977e465f8280a280f35b634e487b7160e01b845260418552602484fd5b516333e9449d60e21b81528590fd5b508385526001825260ff6001828720015416610252565b5163d92e233d60e01b81528590fd5b835163599a6c3360e11b81528690fd5b6103789150833d851161037e575b61037081836111f6565b810190611463565b87610233565b503d610366565b85513d88823e3d90fd5b8280fd5b50503461015f578160031936011261015f57602090516000805160206114eb8339815191528152f35b8284346104da576020918260031936011261015f576103d96110f4565b906002546103e681611347565b9084855b61ffff838183161015610481579061042d9161040582611125565b916104208a60018060a01b03809454600396871b1c166112a0565b610432575b5050506113a8565b6103ea565b816104789361044086611125565b9054911b1c1691895192610453846111c5565b83528a168c830152610464866113a8565b95169061047182896113d1565b52866113d1565b50898080610425565b61ffff8084169089878961049485611347565b925b848116868110156104c957906104be826104b36104c494876113d1565b5161047182896113d1565b506113a8565b610496565b8251806104d6878261116e565b0390f35b80fd5b50503461015f578160031936011261015f57602090517f9a9aef7c1247d5fc769b0185c052913e39673da29a880317dfd20ebf86f26a498152f35b50503461015f578160031936011261015f576020906105356113f4565b9051908152f35b90503461038f578160031936011261038f576105566110f4565b9061055f61110f565b6001600160a01b03938385169391929184158015610780575b610772576105908461058a81846112a0565b92611219565b808061076a575b156106235750508386526003602081815282882054848252838920978616808a5297825283892055858852528520805491600160401b8310156106105750816102b19160016105e99594018155611156565b7f938c63ac3d228b23f6bee7618fefc6790522e338ac202c958a2ea9eb9706c5d18380a380f35b634e487b7160e01b875260419052602486fd5b9395919381610761575b5061063b575b505050505080f35b83865260209282845281818820961695868852845280872054908588528385528088208789528552878181205585885260039485815281892054926000199384810190811161074e57908a848a88858c97968603610701575b5050925050525287209283549081156106ee575001926106b48484611156565b81939154921b1b19169055557f40e634d0e26d9ec2e860e4dd9b7b2cfbb569b6058362a1a54d3a94718bc495878380a33880808080610633565b634e487b7160e01b895260319052602488fd5b610731936102b19261071c88938689528b8b52838920611156565b9054908b1b1c16958694815289895220611156565b898c52878352848c20908c528252838b2055388a848a8884610694565b634e487b7160e01b8b526011875260248bfd5b9050153861062d565b508115610597565b505163d92e233d60e01b8152fd5b5085841615610578565b50503461015f57602036600319011261015f5760209181906001600160a01b036107b26110f4565b1681526003845220549051908152f35b50503461015f578160031936011261015f57602090517fe453bacb314e78dcd5192e6b1a2b1f0e7c76e92f6b7e429a6a90f04e39db3b768152f35b9190503461038f576020806003193601126109285761081a6110f4565b84548351632474521560e21b81526000805160206114eb833981519152818701523360248201529194916001600160a01b039184908290604490829060101c86165afa90811561091e578791610901575b50156108f2578416938486526001835260ff60018588200154166108e4576108929061147b565b156108d65750906001809284865252832001600160ff198254161790557f192895f9a14975ce177e9612fd4f4459e31169d79cb650596bcce0622bd70a928280a280f35b825163ad5679e160e01b8152fd5b508251625ecddb60e01b8152fd5b50825163599a6c3360e11b8152fd5b6109189150843d861161037e5761037081836111f6565b3861086b565b85513d89823e3d90fd5b8380fd5b50503461015f578160031936011261015f5751908152602090f35b50503461015f57602036600319011261015f579081906001600160a01b0361096d6110f4565b16815260016020522060ff6001825492015416825191825215156020820152f35b50503461015f578160031936011261015f57602090517f880a91047114272656e533301261260c75e4d11543ac7303d6fe4204579ec7278152f35b50503461015f578160031936011261015f57906109e46113f4565b916109ef8293611347565b9180936002545b8061ffff871610610a0e578351806104d6878261116e565b94939192610a1b85611125565b949060018060a01b03809154600397881b1c1682526020918683528381209484519586858254918281520191845285842084915b808310610af35750505086610a659103876111f6565b81905b8651821015610ad757899a91610ac8610ace92868c610a8a610aa79e9f611125565b9054911b1c1687610a9b858d6113d1565b5116908a519d8e6111c5565b8d52888d0152610ab6816113e5565b9b610ac1828d6113d1565b528a6113d1565b506113e5565b90999897610a68565b9698935050935050610aea9194506113a8565b949190916109f6565b8154871684529287019260019283019290910190610a4f565b90503461038f578160031936011261038f57610b266110f4565b91610b2f61110f565b9184549060ff8260081c161591828093610d5a575b8015610d43575b15610ce95760ff198116600117875582610cd8575b506001600160a01b039384168015610cc95760018060a01b0319600554161760055585549360ff8560081c1615610c725762010000600160b01b03601087901b1662010000600160b01b031986168117885584516301ffc9a760e01b8152637965db0b60e01b848201529096909160209183916024918391165afa908115610c68578791610c4a575b5015610c3c5750610bf8578380f35b610100600160b01b0319909116909117825551600181527f7f26b83ff96e1f2b6a682f133852f6798a09c465da95921460cefb384740249890602090a13880808380f35b82516384d942fd60e01b8152fd5b610c62915060203d811161037e5761037081836111f6565b38610be9565b84513d89823e3d90fd5b835162461bcd60e51b8152602081840152602b60248201527f496e697469616c697a61626c653a20636f6e7472616374206973206e6f74206960448201526a6e697469616c697a696e6760a81b6064820152608490fd5b50825163d92e233d60e01b8152fd5b61ffff191661010117865538610b60565b835162461bcd60e51b8152602081840152602e60248201527f496e697469616c697a61626c653a20636f6e747261637420697320616c72656160448201526d191e481a5b9a5d1a585b1a5e995960921b6064820152608490fd5b50303b158015610b4b5750600160ff821614610b4b565b50600160ff821610610b44565b50503461015f578160031936011261015f57602090517f39f61ca2a1a28fee144218173ec637b649a353e4026b2738c673800e5bf1437b8152f35b8284346104da5760208060031936011261015f576001600160a01b039182610dc86110f4565b1680825260038352848220928551808583829754938481520190865283862092865b85828210610e6057505050610e01925003856111f6565b610e0b8451611347565b925b845161ffff821690811015610e5357906104be8288610e2f610e4e958a6113d1565b51168a5190610e3d826111c5565b8782528682015261047182896113d1565b610e0d565b8751806104d6878261116e565b85548b1684526001958601958a955093019201610dea565b90503461038f57602036600319011261038f573560025481101561038f57600290925260008051602061150b8339815191529091015490516001600160a01b039091168152602090f35b50503461015f578160031936011261015f57602090517fe965846df3dd5b1dfa65f58e31477079e90140e0908b6dd31b5aead5a57cf3658152f35b9190503461038f5760208060031936011261092857610f1a6110f4565b84548351632474521560e21b81526000805160206114eb833981519152818701523360248201529194916001600160a01b039184908290604490829060101c86165afa90811561091e578791610ff0575b50156108f2578416938486526001835260ff600185882001541615610fc757505090600180928486525283200160ff1981541690557f689fa3f4fd14b3753d33c934f2648d75824d79933d875ed4ae8feb3e8622aea08280a280f35b610fd1849161147b565b15610fe35751637952fbad60e11b8152fd5b5163ad5679e160e01b8152fd5b6110079150843d861161037e5761037081836111f6565b38610f6b565b50503461015f57602036600319011261015f5760209061019061102e6110f4565b61147b565b50503461015f578160031936011261015f579054905160109190911c6001600160a01b03168152602090f35b9291503461092857602036600319011261092857803563ffffffff60e01b81168091036110f05784546301ffc9a760e01b8552918401526020908390602490829060101c6001600160a01b03165afa9182156110e657602093926110c7575b50519015158152f35b6110df919250833d811161037e5761037081836111f6565b90386110be565b81513d85823e3d90fd5b8480fd5b600435906001600160a01b038216820361110a57565b600080fd5b602435906001600160a01b038216820361110a57565b60025481101561114057600260005260206000200190600090565b634e487b7160e01b600052603260045260246000fd5b80548210156111405760005260206000200190600090565b60208082019080835283518092528060408094019401926000905b83821061119857505050505090565b845180516001600160a01b0390811688529084015116868401529485019493820193600190910190611189565b604081019081106001600160401b038211176111e057604052565b634e487b7160e01b600052604160045260246000fd5b601f909101601f19168101906001600160401b038211908210176111e057604052565b60055460405163f084843d60e01b81526001600160a01b039283166004820152928216602484015260209183916044918391165afa90811561129457600091611263575b50151590565b906020823d821161128c575b8161127c602093836111f6565b810103126104da5750513861125d565b3d915061126f565b6040513d6000823e3d90fd5b6001600160a01b0390811660008181526003602052604081205491939291156113295760046020528160408220931692838252602052604081205415938415946112ec575b5050505090565b9080929394505260036020526040812080541561131557815260209020541614388080806112e5565b634e487b7160e01b82526032600452602482fd5b9250505090565b6001600160401b0381116111e05760051b60200190565b9061135182611330565b604090611360825191826111f6565b8381528093611371601f1991611330565b0191600090815b848110611386575050505050565b6020908251611394816111c5565b848152828581830152828701015201611378565b61ffff8091169081146113bb5760010190565b634e487b7160e01b600052601160045260246000fd5b80518210156111405760209160051b010190565b60001981146113bb5760010190565b6000906000806002545b8061ffff84161061140e57505050565b90919361141a85611125565b9054600391821b1c6001600160a01b031684526020526040832054810190811061144f5761144890946113a8565b91906113fe565b634e487b7160e01b83526011600452602483fd5b9081602091031261110a5751801515810361110a5790565b600254156114e4576001600160a01b039081166000818152600160208190526040909120015460ff16159190826114b157505090565b90915060406000205415918215926114c857505090565b600260005260008051602061150b833981519152541614905090565b5060009056fe3b5d4cc60d3ec3516ee8ae083bd60934f6eb2a6c54b1229985c41bfb092b2603405787fa12a823e0f2b7631cc41b3ba8828b3321ca811111fa75cd3aa3bb5acea264697066735822122092ddf06dde0710c2083acf9d505484214142fdb4f66142853d1055371636f33f64736f6c63430008110033",
  "devdoc": {
    "details": "See ISuCdpRegistry interface for full details.",
    "kind": "dev",
    "methods": {
      "addCollateral(address)": {
        "details": "After deployment collaterals should be added in our protocol*"
      },
      "supportsInterface(bytes4)": {
        "details": "Returns true if this contract implements the interface defined by `interfaceId`. See the corresponding https://eips.ethereum.org/EIPS/eip-165#how-interfaces-are-identified[EIP section] to learn more about how these ids are created. This function call must use less than 30 000 gas."
      }
    },
    "title": "SuCdpRegistry",
    "version": 1
  },
  "userdoc": {
    "events": {
      "Added(address,address)": {
        "notice": "event emitted when a new CDP is created"
      },
      "Removed(address,address)": {
        "notice": "event emitted when a CDP is closed"
      }
    },
    "kind": "user",
    "methods": {
      "addCollateral(address)": {
        "notice": "Add asset as collateral for our protocol"
      },
      "checkpoint(address,address)": {
        "notice": "method to add or remove owner from cdpList[asset]"
      },
      "disableCollateral(address)": {
        "notice": "Disable collateral in our protocol. Not removed, because it can add problems with users with removed collateral*"
      },
      "enableCollateral(address)": {
        "notice": "Enable recently added collateral in our protocol. Not removed, because it can add problems with users with removed collateral*"
      },
      "getAllCdps()": {
        "notice": "read-only function to get the list of all cdps"
      },
      "getCdpsByCollateral(address)": {
        "notice": "read-only function to get the list of cdps for a given collateral"
      },
      "getCdpsByOwner(address)": {
        "notice": "read-only function to get the list of all cdps by borrower"
      },
      "getCdpsCount()": {
        "notice": "total number of cdps"
      },
      "getCdpsCountForCollateral(address)": {
        "notice": "number of cdps for a given collateral"
      },
      "isAlive(address,address)": {
        "notice": "alive means there are debts in the vault for this collateral of this borrower"
      },
      "isCollateral(address)": {
        "notice": "Check whether asset is collateral*"
      },
      "isListed(address,address)": {
        "notice": "listed means there are created cdps in this contract for this collateral of this borrower"
      }
    },
    "notice": "Here we store protocol collaterals and use it in GraphQL",
    "version": 1
  },
  "storageLayout": {
    "storage": [
      {
        "astId": 671,
        "contract": "contracts/lending/SuCdpRegistry.sol:SuCdpRegistry",
        "label": "_initialized",
        "offset": 0,
        "slot": "0",
        "type": "t_uint8"
      },
      {
        "astId": 674,
        "contract": "contracts/lending/SuCdpRegistry.sol:SuCdpRegistry",
        "label": "_initializing",
        "offset": 1,
        "slot": "0",
        "type": "t_bool"
      },
      {
        "astId": 28586,
        "contract": "contracts/lending/SuCdpRegistry.sol:SuCdpRegistry",
        "label": "ACCESS_CONTROL_SINGLETON",
        "offset": 2,
        "slot": "0",
        "type": "t_contract(ISuAccessControl)32175"
      },
      {
        "astId": 24584,
        "contract": "contracts/lending/SuCdpRegistry.sol:SuCdpRegistry",
        "label": "collateralInfo",
        "offset": 0,
        "slot": "1",
        "type": "t_mapping(t_address,t_struct(CollateralRegistryInfo)23248_storage)"
      },
      {
        "astId": 24587,
        "contract": "contracts/lending/SuCdpRegistry.sol:SuCdpRegistry",
        "label": "collaterals",
        "offset": 0,
        "slot": "2",
        "type": "t_array(t_address)dyn_storage"
      },
      {
        "astId": 24049,
        "contract": "contracts/lending/SuCdpRegistry.sol:SuCdpRegistry",
        "label": "cdpList",
        "offset": 0,
        "slot": "3",
        "type": "t_mapping(t_address,t_array(t_address)dyn_storage)"
      },
      {
        "astId": 24055,
        "contract": "contracts/lending/SuCdpRegistry.sol:SuCdpRegistry",
        "label": "cdpIndex",
        "offset": 0,
        "slot": "4",
        "type": "t_mapping(t_address,t_mapping(t_address,t_uint256))"
      },
      {
        "astId": 24058,
        "contract": "contracts/lending/SuCdpRegistry.sol:SuCdpRegistry",
        "label": "vault",
        "offset": 0,
        "slot": "5",
        "type": "t_contract(ISuVault)23976"
      }
    ],
    "types": {
      "t_address": {
        "encoding": "inplace",
        "label": "address",
        "numberOfBytes": "20"
      },
      "t_array(t_address)dyn_storage": {
        "base": "t_address",
        "encoding": "dynamic_array",
        "label": "address[]",
        "numberOfBytes": "32"
      },
      "t_bool": {
        "encoding": "inplace",
        "label": "bool",
        "numberOfBytes": "1"
      },
      "t_contract(ISuAccessControl)32175": {
        "encoding": "inplace",
        "label": "contract ISuAccessControl",
        "numberOfBytes": "20"
      },
      "t_contract(ISuVault)23976": {
        "encoding": "inplace",
        "label": "contract ISuVault",
        "numberOfBytes": "20"
      },
      "t_mapping(t_address,t_array(t_address)dyn_storage)": {
        "encoding": "mapping",
        "key": "t_address",
        "label": "mapping(address => address[])",
        "numberOfBytes": "32",
        "value": "t_array(t_address)dyn_storage"
      },
      "t_mapping(t_address,t_mapping(t_address,t_uint256))": {
        "encoding": "mapping",
        "key": "t_address",
        "label": "mapping(address => mapping(address => uint256))",
        "numberOfBytes": "32",
        "value": "t_mapping(t_address,t_uint256)"
      },
      "t_mapping(t_address,t_struct(CollateralRegistryInfo)23248_storage)": {
        "encoding": "mapping",
        "key": "t_address",
        "label": "mapping(address => struct CollateralRegistryInfo)",
        "numberOfBytes": "32",
        "value": "t_struct(CollateralRegistryInfo)23248_storage"
      },
      "t_mapping(t_address,t_uint256)": {
        "encoding": "mapping",
        "key": "t_address",
        "label": "mapping(address => uint256)",
        "numberOfBytes": "32",
        "value": "t_uint256"
      },
      "t_struct(CollateralRegistryInfo)23248_storage": {
        "encoding": "inplace",
        "label": "struct CollateralRegistryInfo",
        "members": [
          {
            "astId": 23245,
            "contract": "contracts/lending/SuCdpRegistry.sol:SuCdpRegistry",
            "label": "index",
            "offset": 0,
            "slot": "0",
            "type": "t_uint256"
          },
          {
            "astId": 23247,
            "contract": "contracts/lending/SuCdpRegistry.sol:SuCdpRegistry",
            "label": "isDisabled",
            "offset": 0,
            "slot": "1",
            "type": "t_bool"
          }
        ],
        "numberOfBytes": "64"
      },
      "t_uint256": {
        "encoding": "inplace",
        "label": "uint256",
        "numberOfBytes": "32"
      },
      "t_uint8": {
        "encoding": "inplace",
        "label": "uint8",
        "numberOfBytes": "1"
      }
    }
  }
}