{
  "address": "0x0715A50e4AF3612F8f7a2d8b20096acB1Bf558cD",
  "abi": [
    {
      "inputs": [],
      "name": "AlreadyPaused",
      "type": "error"
    },
    {
      "inputs": [],
      "name": "BadAccessControlSingleton",
      "type": "error"
    },
    {
      "inputs": [],
      "name": "BadInitialCollateralRatioValue",
      "type": "error"
    },
    {
      "inputs": [],
      "name": "BadLiquidationRatioValue",
      "type": "error"
    },
    {
      "inputs": [],
      "name": "InvalidArgs",
      "type": "error"
    },
    {
      "inputs": [],
      "name": "LiquidationIsTriggered",
      "type": "error"
    },
    {
      "inputs": [],
      "name": "NotPaused",
      "type": "error"
    },
    {
      "inputs": [],
      "name": "OnlyAdminError",
      "type": "error"
    },
    {
      "inputs": [],
      "name": "OnlyAlerterError",
      "type": "error"
    },
    {
      "inputs": [],
      "name": "OnlyDAOError",
      "type": "error"
    },
    {
      "inputs": [],
      "name": "OnlyLiquidationAccessError",
      "type": "error"
    },
    {
      "inputs": [],
      "name": "OnlyMintAccessError",
      "type": "error"
    },
    {
      "inputs": [],
      "name": "OnlyRewardAccessError",
      "type": "error"
    },
    {
      "inputs": [],
      "name": "OnlyRoleError",
      "type": "error"
    },
    {
      "inputs": [],
      "name": "OnlyVaultAccessError",
      "type": "error"
    },
    {
      "inputs": [],
      "name": "PositionIsSafe",
      "type": "error"
    },
    {
      "inputs": [],
      "name": "Restricted",
      "type": "error"
    },
    {
      "inputs": [],
      "name": "SmallCollateral",
      "type": "error"
    },
    {
      "inputs": [],
      "name": "UnderCollateralized",
      "type": "error"
    },
    {
      "inputs": [],
      "name": "UnsupportedDecimals",
      "type": "error"
    },
    {
      "inputs": [],
      "name": "UselessTransaction",
      "type": "error"
    },
    {
      "anonymous": false,
      "inputs": [
        {
          "indexed": true,
          "internalType": "address",
          "name": "asset",
          "type": "address"
        },
        {
          "indexed": true,
          "internalType": "address",
          "name": "owner",
          "type": "address"
        },
        {
          "indexed": false,
          "internalType": "uint256",
          "name": "main",
          "type": "uint256"
        },
        {
          "indexed": false,
          "internalType": "uint256",
          "name": "stablecoin",
          "type": "uint256"
        }
      ],
      "name": "Exit",
      "type": "event"
    },
    {
      "anonymous": false,
      "inputs": [
        {
          "indexed": false,
          "internalType": "uint8",
          "name": "version",
          "type": "uint8"
        }
      ],
      "name": "Initialized",
      "type": "event"
    },
    {
      "anonymous": false,
      "inputs": [
        {
          "indexed": true,
          "internalType": "address",
          "name": "asset",
          "type": "address"
        },
        {
          "indexed": true,
          "internalType": "address",
          "name": "owner",
          "type": "address"
        },
        {
          "indexed": false,
          "internalType": "uint256",
          "name": "main",
          "type": "uint256"
        },
        {
          "indexed": false,
          "internalType": "uint256",
          "name": "stablecoin",
          "type": "uint256"
        }
      ],
      "name": "Join",
      "type": "event"
    },
    {
      "anonymous": false,
      "inputs": [
        {
          "indexed": false,
          "internalType": "address",
          "name": "asset",
          "type": "address"
        },
        {
          "indexed": false,
          "internalType": "uint256",
          "name": "debtAmount",
          "type": "uint256"
        }
      ],
      "name": "LiquidationTriggered",
      "type": "event"
    },
    {
      "inputs": [],
      "name": "ACCESS_CONTROL_SINGLETON",
      "outputs": [
        {
          "internalType": "contract ISuAccessControl",
          "name": "",
          "type": "address"
        }
      ],
      "stateMutability": "view",
      "type": "function"
    },
    {
      "inputs": [],
      "name": "ADMIN_ROLE",
      "outputs": [
        {
          "internalType": "bytes32",
          "name": "",
          "type": "bytes32"
        }
      ],
      "stateMutability": "view",
      "type": "function"
    },
    {
      "inputs": [],
      "name": "ALERTER_ROLE",
      "outputs": [
        {
          "internalType": "bytes32",
          "name": "",
          "type": "bytes32"
        }
      ],
      "stateMutability": "view",
      "type": "function"
    },
    {
      "inputs": [],
      "name": "DAO_ROLE",
      "outputs": [
        {
          "internalType": "bytes32",
          "name": "",
          "type": "bytes32"
        }
      ],
      "stateMutability": "view",
      "type": "function"
    },
    {
      "inputs": [],
      "name": "LIQUIDATION_ACCESS_ROLE",
      "outputs": [
        {
          "internalType": "bytes32",
          "name": "",
          "type": "bytes32"
        }
      ],
      "stateMutability": "view",
      "type": "function"
    },
    {
      "inputs": [],
      "name": "MINT_ACCESS_ROLE",
      "outputs": [
        {
          "internalType": "bytes32",
          "name": "",
          "type": "bytes32"
        }
      ],
      "stateMutability": "view",
      "type": "function"
    },
    {
      "inputs": [],
      "name": "REWARD_ACCESS_ROLE",
      "outputs": [
        {
          "internalType": "bytes32",
          "name": "",
          "type": "bytes32"
        }
      ],
      "stateMutability": "view",
      "type": "function"
    },
    {
      "inputs": [],
      "name": "VAULT_ACCESS_ROLE",
      "outputs": [
        {
          "internalType": "bytes32",
          "name": "",
          "type": "bytes32"
        }
      ],
      "stateMutability": "view",
      "type": "function"
    },
    {
      "inputs": [],
      "name": "cdpRegistry",
      "outputs": [
        {
          "internalType": "contract ISuCdpRegistry",
          "name": "",
          "type": "address"
        }
      ],
      "stateMutability": "view",
      "type": "function"
    },
    {
      "inputs": [
        {
          "internalType": "address",
          "name": "asset",
          "type": "address"
        },
        {
          "internalType": "uint256",
          "name": "assetAmountEDecimal",
          "type": "uint256"
        },
        {
          "internalType": "uint256",
          "name": "stablecoinAmountE18",
          "type": "uint256"
        }
      ],
      "name": "exit",
      "outputs": [],
      "stateMutability": "nonpayable",
      "type": "function"
    },
    {
      "inputs": [],
      "name": "foundation",
      "outputs": [
        {
          "internalType": "address",
          "name": "",
          "type": "address"
        }
      ],
      "stateMutability": "view",
      "type": "function"
    },
    {
      "inputs": [
        {
          "internalType": "address",
          "name": "asset",
          "type": "address"
        },
        {
          "internalType": "address",
          "name": "owner",
          "type": "address"
        }
      ],
      "name": "getAvailableToBorrowE18",
      "outputs": [
        {
          "internalType": "uint256",
          "name": "",
          "type": "uint256"
        }
      ],
      "stateMutability": "view",
      "type": "function"
    },
    {
      "inputs": [
        {
          "internalType": "address",
          "name": "asset",
          "type": "address"
        },
        {
          "internalType": "address",
          "name": "owner",
          "type": "address"
        }
      ],
      "name": "getAvailableToWithdrawE18",
      "outputs": [
        {
          "internalType": "uint256",
          "name": "",
          "type": "uint256"
        }
      ],
      "stateMutability": "view",
      "type": "function"
    },
    {
      "inputs": [
        {
          "internalType": "address",
          "name": "asset",
          "type": "address"
        },
        {
          "internalType": "address",
          "name": "owner",
          "type": "address"
        }
      ],
      "name": "getCollateralUsdValueE18",
      "outputs": [
        {
          "internalType": "uint256",
          "name": "",
          "type": "uint256"
        }
      ],
      "stateMutability": "view",
      "type": "function"
    },
    {
      "inputs": [
        {
          "internalType": "address",
          "name": "asset",
          "type": "address"
        },
        {
          "internalType": "address",
          "name": "owner",
          "type": "address"
        }
      ],
      "name": "getLTVE18",
      "outputs": [
        {
          "internalType": "uint256",
          "name": "",
          "type": "uint256"
        }
      ],
      "stateMutability": "view",
      "type": "function"
    },
    {
      "inputs": [
        {
          "internalType": "address",
          "name": "asset",
          "type": "address"
        },
        {
          "internalType": "address",
          "name": "owner",
          "type": "address"
        }
      ],
      "name": "getLiquidationBlock",
      "outputs": [
        {
          "internalType": "uint256",
          "name": "",
          "type": "uint256"
        }
      ],
      "stateMutability": "view",
      "type": "function"
    },
    {
      "inputs": [
        {
          "internalType": "address",
          "name": "asset",
          "type": "address"
        },
        {
          "internalType": "address",
          "name": "owner",
          "type": "address"
        }
      ],
      "name": "getPositionInfo",
      "outputs": [
        {
          "internalType": "uint256",
          "name": "collateralEDecimal",
          "type": "uint256"
        },
        {
          "internalType": "uint256",
          "name": "debtWithFeesE18",
          "type": "uint256"
        }
      ],
      "stateMutability": "view",
      "type": "function"
    },
    {
      "inputs": [
        {
          "internalType": "address",
          "name": "",
          "type": "address"
        }
      ],
      "name": "initialCollateralRatioE18",
      "outputs": [
        {
          "internalType": "uint256",
          "name": "",
          "type": "uint256"
        }
      ],
      "stateMutability": "view",
      "type": "function"
    },
    {
      "inputs": [
        {
          "internalType": "address",
          "name": "_vault",
          "type": "address"
        },
        {
          "internalType": "address",
          "name": "_suOracle",
          "type": "address"
        },
        {
          "internalType": "address",
          "name": "_cdpRegistry",
          "type": "address"
        },
        {
          "internalType": "address",
          "name": "_suLiquidationMiddleware",
          "type": "address"
        },
        {
          "internalType": "address",
          "name": "_stablePro",
          "type": "address"
        },
        {
          "internalType": "address",
          "name": "_foundation",
          "type": "address"
        },
        {
          "internalType": "address",
          "name": "_suPausable",
          "type": "address"
        }
      ],
      "name": "initialize",
      "outputs": [],
      "stateMutability": "nonpayable",
      "type": "function"
    },
    {
      "inputs": [
        {
          "internalType": "address",
          "name": "asset",
          "type": "address"
        },
        {
          "internalType": "address",
          "name": "owner",
          "type": "address"
        }
      ],
      "name": "isLiquidatablePosition",
      "outputs": [
        {
          "internalType": "bool",
          "name": "",
          "type": "bool"
        }
      ],
      "stateMutability": "view",
      "type": "function"
    },
    {
      "inputs": [
        {
          "internalType": "address",
          "name": "asset",
          "type": "address"
        },
        {
          "internalType": "uint256",
          "name": "assetAmountEDecimal",
          "type": "uint256"
        },
        {
          "internalType": "uint256",
          "name": "stablecoinAmountE18",
          "type": "uint256"
        },
        {
          "internalType": "uint256",
          "name": "lockupPeriodSeconds",
          "type": "uint256"
        }
      ],
      "name": "join",
      "outputs": [],
      "stateMutability": "nonpayable",
      "type": "function"
    },
    {
      "inputs": [
        {
          "internalType": "address",
          "name": "asset",
          "type": "address"
        },
        {
          "internalType": "address",
          "name": "owner",
          "type": "address"
        },
        {
          "internalType": "uint256",
          "name": "additionalCollateralAmount",
          "type": "uint256"
        },
        {
          "internalType": "uint256",
          "name": "additionalStablecoinAmount",
          "type": "uint256"
        }
      ],
      "name": "liquidationPriceByAmount",
      "outputs": [
        {
          "internalType": "uint256",
          "name": "",
          "type": "uint256"
        }
      ],
      "stateMutability": "view",
      "type": "function"
    },
    {
      "inputs": [
        {
          "internalType": "address",
          "name": "asset",
          "type": "address"
        },
        {
          "internalType": "address",
          "name": "owner",
          "type": "address"
        }
      ],
      "name": "liquidationPriceE18",
      "outputs": [
        {
          "internalType": "uint256",
          "name": "",
          "type": "uint256"
        }
      ],
      "stateMutability": "view",
      "type": "function"
    },
    {
      "inputs": [
        {
          "internalType": "address",
          "name": "",
          "type": "address"
        }
      ],
      "name": "liquidationRatioE18",
      "outputs": [
        {
          "internalType": "uint256",
          "name": "",
          "type": "uint256"
        }
      ],
      "stateMutability": "view",
      "type": "function"
    },
    {
      "inputs": [],
      "name": "minCollateralInUsdE18",
      "outputs": [
        {
          "internalType": "uint256",
          "name": "",
          "type": "uint256"
        }
      ],
      "stateMutability": "view",
      "type": "function"
    },
    {
      "inputs": [
        {
          "internalType": "address",
          "name": "asset",
          "type": "address"
        },
        {
          "internalType": "uint256",
          "name": "stabilityFeeValueE18",
          "type": "uint256"
        },
        {
          "internalType": "uint256",
          "name": "initialCollateralRatioValueE18",
          "type": "uint256"
        },
        {
          "internalType": "uint256",
          "name": "liquidationRatioValueE18",
          "type": "uint256"
        },
        {
          "internalType": "uint256",
          "name": "stablecoinLimitE18",
          "type": "uint256"
        },
        {
          "internalType": "uint256",
          "name": "minCollateralInUsdValueE18",
          "type": "uint256"
        }
      ],
      "name": "setCollateral",
      "outputs": [],
      "stateMutability": "nonpayable",
      "type": "function"
    },
    {
      "inputs": [
        {
          "internalType": "address",
          "name": "asset",
          "type": "address"
        },
        {
          "internalType": "uint256",
          "name": "newValueE18",
          "type": "uint256"
        }
      ],
      "name": "setInitialCollateralRatioE18",
      "outputs": [],
      "stateMutability": "nonpayable",
      "type": "function"
    },
    {
      "inputs": [
        {
          "internalType": "address",
          "name": "asset",
          "type": "address"
        },
        {
          "internalType": "uint256",
          "name": "newValueE18",
          "type": "uint256"
        }
      ],
      "name": "setLiquidationRatioE18",
      "outputs": [],
      "stateMutability": "nonpayable",
      "type": "function"
    },
    {
      "inputs": [
        {
          "internalType": "uint256",
          "name": "newValueE18",
          "type": "uint256"
        }
      ],
      "name": "setMinCollateralInUsdE18",
      "outputs": [],
      "stateMutability": "nonpayable",
      "type": "function"
    },
    {
      "inputs": [
        {
          "internalType": "bytes4",
          "name": "interfaceId",
          "type": "bytes4"
        }
      ],
      "name": "supportsInterface",
      "outputs": [
        {
          "internalType": "bool",
          "name": "",
          "type": "bool"
        }
      ],
      "stateMutability": "view",
      "type": "function"
    },
    {
      "inputs": [
        {
          "internalType": "address",
          "name": "asset",
          "type": "address"
        },
        {
          "internalType": "address",
          "name": "owner",
          "type": "address"
        }
      ],
      "name": "triggerLiquidation",
      "outputs": [],
      "stateMutability": "nonpayable",
      "type": "function"
    },
    {
      "inputs": [
        {
          "internalType": "address",
          "name": "asset",
          "type": "address"
        },
        {
          "internalType": "address",
          "name": "owner",
          "type": "address"
        }
      ],
      "name": "utilizationRatioE18",
      "outputs": [
        {
          "internalType": "uint256",
          "name": "",
          "type": "uint256"
        }
      ],
      "stateMutability": "view",
      "type": "function"
    },
    {
      "inputs": [],
      "name": "vault",
      "outputs": [
        {
          "internalType": "contract ISuVault",
          "name": "",
          "type": "address"
        }
      ],
      "stateMutability": "view",
      "type": "function"
    },
    {
      "inputs": [],
      "name": "vaultParameters",
      "outputs": [
        {
          "internalType": "contract SuVaultParameters",
          "name": "",
          "type": "address"
        }
      ],
      "stateMutability": "view",
      "type": "function"
    },
    {
      "stateMutability": "payable",
      "type": "receive"
    }
  ],
  "numDeployments": 1,
  "solcInputHash": "6bdb767f00e3f0fe0de7c63e7a48801d",
  "bytecode": "0x6080806040523461001657612c31908161001c8239f35b600080fdfe608080604052600436101561002d575b50361561001b57600080fd5b60405163ccc0891360e01b8152600490fd5b600090813560e01c90816301ffc9a714611baf5750806303ee9f2214611b86578063112e1400146118c7578063134a02dd1461189057806314c376dc146118555780631c656c3914611828578063358764761461142b578063392c0ce7146113fe5780634030815e146113d157806341fbb050146113a857806343070b7a14611373578063438280dd146113385780634c9a55501461129457806356d8be56146112675780636338e4d71461123a5780636f16cbf71461117857806371d0fb411461113d57806375b238fc1461112157806376b5070c146110ec5780638e5313e0146110b15780639077beac14610ff5578063ab2a2a8214610fcc578063aca345ee14610fa3578063ada9e5ad14610d39578063af368fbd14610c1d578063bb497dcc14610bff578063bbdc9531146107c7578063cf13340414610728578063d4796d12146102ad578063dc97e84e14610272578063e6bc046114610239578063e9c2651814610210578063f3f481df146101d75763fbfa77cf0361000f57346101d457806003193601126101d4576041546040516001600160a01b039091168152602090f35b80fd5b50346101d45760203660031901126101d4576020906040906001600160a01b036101ff611c38565b168152603483522054604051908152f35b50346101d457806003193601126101d4576020604051600080516020612bdc8339815191528152f35b50346101d45760203660031901126101d4576020906040906001600160a01b03610261611c38565b168152603583522054604051908152f35b50346101d457806003193601126101d45760206040517f9a9aef7c1247d5fc769b0185c052913e39673da29a880317dfd20ebf86f26a498152f35b50346101d45760403660031901126101d4576102c7611c38565b6102cf611c4e565b603854604051631ce4b4a760e01b81526020916001600160a01b039190821690838180610300888a60048401611d10565b0381855afa9081156106de5787916106fb575b506106e957816039541683604051809263134a02dd60e01b8252818061033d8a8c60048401611d10565b03915afa9081156106de5787916106b1575b501561069f578086913b156106875781604051809263c640752d60e01b825281838161037f8b8d60048401611d10565b03925af180156105795761068b575b508160385416803b1561068757816040518092636a3cb68960e11b82528183816103bc8b8d60048401611d10565b03925af1801561057957610673575b506038546040516334e3b77960e01b8152939083168185806103f1898b60048401611d10565b0381845afa948515610668578395610635575b50604051636aee125d60e11b815295828780610424848c60048401611d10565b0381855afa96871561062a5784976105f7575b5060405163f084843d60e01b8152838180610456858d60048401611d10565b0381865afa9384156105ec5785946105b4575b5050813b156105b05783918883889361049a60405197889687958694636f70e66f60e01b8652309160048701611dd3565b03925af1801561057957610598575b5050600582028281046005148315171561058457906104da6104d26103e888959404809461223f565b923387612ae0565b6104e98282603a541687612ae0565b603a5416803b1561057557838391610519938360405180968195829463fb31318760e01b84528c60048501611e06565b03925af1801561057957610561575b50507f518c4e18971712e9ead4b0494dcf1bfc39d789cf7622ddfc960c7d62661512da9161055b60405192839283612ac5565b0390a180f35b61056a90611cc4565b610575578238610528565b8280fd5b6040513d84823e3d90fd5b634e487b7160e01b86526011600452602486fd5b6105a190611cc4565b6105ac5784386104a9565b8480fd5b8380fd5b819550809294503d83116105e5575b6105cd8183611ced565b810103126105e057879251913880610469565b600080fd5b503d6105c3565b6040513d87823e3d90fd5b83809298508195503d8311610623575b6106118183611ced565b810103126105e0578792519538610437565b503d610607565b6040513d86823e3d90fd5b82809296508194503d8311610661575b61064f8183611ced565b810103126105e0578691519338610404565b503d610645565b6040513d85823e3d90fd5b61067c90611cc4565b6105ac5784386103cb565b5080fd5b61069490611cc4565b6105ac57843861038e565b604051632066819b60e21b8152600490fd5b6106d19150843d86116106d7575b6106c98183611ced565b810190611d2a565b3861034f565b503d6106bf565b6040513d89823e3d90fd5b60405163fa5af4cd60e01b8152600490fd5b90508381813d8311610721575b6107128183611ced565b810103126105e0575138610313565b503d610708565b50346101d45760203660031901126101d457603354604051632474521560e21b8152600080516020612bdc833981519152600482015233602482015290602090829060449082906001600160a01b03165afa9081156105795782916107a9575b50156107975760043560365580f35b60405163599a6c3360e11b8152600490fd5b6107c1915060203d81116106d7576106c98183611ced565b38610788565b50346101d45760603660031901126101d4576107e1611c38565b604435906024356107f0611d7d565b60018060a01b03908160405416604051635b14f18360e01b8152808486169283600483015281602460209485935afa908115610aa6578891610be2575b50610bd0578590846041541696604051631ce4b4a760e01b8152828180610858338c60048401611d10565b03818c5afa908115610b21578a91610ba3575b506106e957889760405163f084843d60e01b928382528482806108938d339060048401611d10565b0381865afa918215610b98578b92610b66575b508110610b5e575b5060405163034c188b60e41b8152908382806108cf88338e60048501611d5b565b0381845afa918215610b21578a92610b2c575b50803b15610b055789856109149289838d60405196879586948593636f70e66f60e01b85523390339060048701611dd3565b03925af1908115610b21578a91610b09575b50506109323389611f2d565b8660415416803b15610b055760405163628a468360e01b8152918a918391829084908290610965908b3360048501611e06565b03925af1908115610ae6578991610af1575b5050856041541690604051908152828180610996338c60048401611d10565b0381855afa908115610ae6578991610ab5575b50610a40575b506040519384528301527fa702ae6024e8b4c2b0eb162b1453dacb93cf6922f5a2d7236faed898c21148f860403393a360425416803b15610a3c57604051632ed56dff60e21b81529183918391829084908290610a1190339060048401611d10565b03925af1801561057957610a28575b506001805580f35b610a3190611cc4565b6101d4578038610a20565b5050fd5b803b15610ab15760405163c640752d60e01b81529088908290818381610a6a338e60048401611d10565b03925af1908115610aa6578891610a8e575b5050610a883387611e6d565b386109af565b610a9790611cc4565b610aa2578638610a7c565b8680fd5b6040513d8a823e3d90fd5b8780fd5b809950838092503d8311610adf575b610ace8183611ced565b810103126105e057889751386109a9565b503d610ac4565b6040513d8b823e3d90fd5b610afa90611cc4565b610ab1578738610977565b8980fd5b610b1290611cc4565b610b1d578838610926565b8880fd5b6040513d8c823e3d90fd5b995090508289813d8111610b57575b610b458183611ced565b810103126105e05789985190386108e2565b503d610b3b565b9350386108ae565b9a509050838a813d8111610b91575b610b7f8183611ced565b810103126105e0578a995190386108a6565b503d610b75565b6040513d8d823e3d90fd5b90508281813d8311610bc9575b610bba8183611ced565b810103126105e057513861086b565b503d610bb0565b604051631785c68160e01b8152600490fd5b610bf99150823d84116106d7576106c98183611ced565b3861082d565b50346101d457806003193601126101d4576020603654604051908152f35b50346101d45760403660031901126101d457610c37611c38565b90610c40611c4e565b603d546040516334e3b77960e01b81526001600160a01b0390911693909291602091828580610c73858560048401611d10565b0381895afa94851561062a578495610d06575b5060405163f084843d60e01b8152958392879283918291610cab919060048401611d10565b03915afa918215610cfa5791610cca575b604080945051928352820152f35b80915083813d8311610cf3575b610ce18183611ced565b810103126105e0576040925190610cbc565b503d610cd7565b604051903d90823e3d90fd5b919094508282813d8311610d32575b610d1f8183611ced565b810103126105e057905193610cab610c86565b503d610d15565b50346101d45760c03660031901126101d457610d53611c38565b6044359060643560018060a01b039283603354169060405194632474521560e21b9485875286600080516020612bdc8339815191529485600483015233602483015281604460209a8b935afa908115610ae6578991610f86575b501561079757878260375416803b1561068757816040518092639fea3e0760e01b8252818381610de66084356024358b60048501611e06565b03925af1801561057957610f72575b50506044878360335416604051928380928b82528960048301523360248301525afa908115610ae6578991610f55575b50156107975782158015610f44575b610f32578116918288526034875260408820556044868260335416604051928380928a82528860048301523360248301525afa908115610aa6578891610f15575b50156107975783158015610f01575b610eef578593604492885260358552604088205560335416936040519485938492835260048301523360248301525afa918215610668578392610ed2575b5050156107975760a43560365580f35b610ee89250803d106106d7576106c98183611ced565b3880610ec2565b604051630906beff60e11b8152600490fd5b508187526034865260408720548410610e84565b610f2c9150873d89116106d7576106c98183611ced565b38610e75565b604051636ae75f5b60e01b8152600490fd5b50670de0b6b3a76400008311610e34565b610f6c9150883d8a116106d7576106c98183611ced565b38610e25565b610f7b90611cc4565b610ab1578738610df5565b610f9d9150883d8a116106d7576106c98183611ced565b38610dad565b50346101d457806003193601126101d4576037546040516001600160a01b039091168152602090f35b50346101d457806003193601126101d4576042546040516001600160a01b039091168152602090f35b50346101d45760403660031901126101d45761100f611c38565b6024359060018060a01b039060446020836033541660405192838092632474521560e21b8252600080516020612bdc83398151915260048301523360248301525afa9081156105ec578591611093575b50156107975782158015611082575b610f32571682526034602052604082205580f35b50670de0b6b3a7640000831161106e565b6110ab915060203d81116106d7576106c98183611ced565b3861105f565b50346101d457806003193601126101d45760206040517fe453bacb314e78dcd5192e6b1a2b1f0e7c76e92f6b7e429a6a90f04e39db3b768152f35b50346101d45760403660031901126101d457602061111961110b611c38565b611113611c4e565b9061237a565b604051908152f35b50346101d457806003193601126101d457602090604051908152f35b50346101d457806003193601126101d45760206040517f880a91047114272656e533301261260c75e4d11543ac7303d6fe4204579ec7278152f35b50346101d45760403660031901126101d457611192611c38565b6024359060018060a01b039060446020836033541660405192838092632474521560e21b8252600080516020612bdc83398151915260048301523360248301525afa9081156105ec57859161121c575b50156107975782158015611205575b610eef571682526035602052604082205580f35b5081811684526034602052604084205483106111f1565b611234915060203d81116106d7576106c98183611ced565b386111e2565b50346101d45760403660031901126101d4576020611119611259611c38565b611261611c4e565b90612614565b50346101d45760403660031901126101d4576020611119611286611c38565b61128e611c4e565b9061224c565b50346101d45760403660031901126101d4576112ea9060206112b4611c38565b6112bc611c4e565b603d54604051631ce4b4a760e01b81529586936001600160a01b039092169284928392919060048401611d10565b03915afa908115610cfa5790611306575b602090604051908152f35b506020813d8211611330575b8161131f60209383611ced565b810103126105e057602090516112fb565b3d9150611312565b50346101d457806003193601126101d45760206040517f39f61ca2a1a28fee144218173ec637b649a353e4026b2738c673800e5bf1437b8152f35b50346101d45760803660031901126101d4576020611119611392611c38565b61139a611c4e565b90606435916044359161284c565b50346101d457806003193601126101d457603c546040516001600160a01b039091168152602090f35b50346101d45760403660031901126101d45760206111196113f0611c38565b6113f8611c4e565b9061209f565b50346101d45760403660031901126101d457602061111961141d611c38565b611425611c4e565b90612190565b50346101d45760e03660031901126101d457611445611c38565b61144d611c4e565b6044356001600160a01b03811681036105e057606435926001600160a01b03841684036105e057608435926001600160a01b03841684036105e05760a435906001600160a01b03821682036105e05760c435916001600160a01b03831683036105e05787549560ff8760081c16159687809861181b575b8015611804575b156117a85760ff1981166001178a5587611797575b506001600160a01b038616158015611786575b6116fc5788549761150960ff8a60081c16611c64565b61151860ff8a60081c16611c64565b6001805561152b60ff8a60081c16611c64565b6040516301f74f9160e11b81526020816004816001600160a01b038b165afa908115610b98578b9161173f575b506024906020906001600160a01b031661157860088d901c60ff16611c64565b603380546001600160a01b031916821790556040516301ffc9a760e01b8152637965db0b60e01b600482015292839182905afa908115610b98578b91611720575b501561170e57603780546001600160a01b0319166001600160a01b038816179055674563918244f400006036556115f660088a901c60ff16611c64565b603980546001600160a01b031990811630179091556038805482166001600160a01b0389811691909117909155603a8054831693821693909317909255603b8054821693831693909317909255603c80549092169281169290921790551680156116fc57603e80546001600160a01b03199081163017909155603d805482166001600160a01b03958616908117909155603f805483169390931790925560408054821693851693909317909255604180548316909117905560428054909116929091169190911790556116c7575080f35b61ff00191681557f7f26b83ff96e1f2b6a682f133852f6798a09c465da95921460cefb3847402498602060405160018152a180f35b6040516350dd03f760e11b8152600490fd5b6040516384d942fd60e01b8152600490fd5b611739915060203d6020116106d7576106c98183611ced565b386115b9565b90506020813d60201161177e575b8161175a60209383611ced565b8101031261177a57516001600160a01b038116810361177a576020611558565b8a80fd5b3d915061174d565b506001600160a01b038316156114f3565b61ffff1916610101178955386114e0565b60405162461bcd60e51b815260206004820152602e60248201527f496e697469616c697a61626c653a20636f6e747261637420697320616c72656160448201526d191e481a5b9a5d1a585b1a5e995960921b6064820152608490fd5b50303b1580156114cb5750600160ff8216146114cb565b50600160ff8216106114c4565b50346101d45760403660031901126101d4576020611119611847611c38565b61184f611c4e565b90612a22565b50346101d457806003193601126101d45760206040517fe965846df3dd5b1dfa65f58e31477079e90140e0908b6dd31b5aead5a57cf3658152f35b50346101d45760403660031901126101d45760206118bd6118af611c38565b6118b7611c4e565b90611f67565b6040519015158152f35b50346101d45760803660031901126101d4576118e1611c38565b60443591906024356118f1611d7d565b60018060a01b0390816040541660405195635b14f18360e01b8752868486169283600483015281602460209a8b935afa9081156106de578791611b69575b50610bd05780158080611b61575b611b4f5760405163313ce56760e01b81528881600481875afa908115610aa65760129160ff918a91611b22575b501611611b105715611a3c5785968460415416803b15610ab157604051638340f54960e01b815290889082908183816119a88b338f60048501611d5b565b03925af1908115610aa6578891611a28575b50505b6119c73387611f2d565b6040519384528301527f6423b6056e64b3b29cb2d342362b47c26fa8d6877da27ea152354060df19b9bc60403393a360425416803b15610a3c57604051632ed56dff60e21b81529183918391829084908290610a1190339060048401611d10565b611a3190611cc4565b610aa25786386119ba565b82611ab5575b85968460415416803b15610ab15787809160846040518094819363fbf3773960e01b835289600484015233602484015288604484015260643560648401525af1908115610aa6578891611aa1575b5050611a9c3387611e6d565b6119bd565b611aaa90611cc4565b610aa2578638611a90565b836041541696873b15610aa257604051638340f54960e01b81529787908990818381611ae68a338e60048501611d5b565b03925af180156106de57611afc575b9650611a42565b959096611b0890611cc4565b948690611af5565b604051636a78e98160e11b8152600490fd5b611b4291508b3d8d11611b48575b611b3a8183611ced565b810190611d42565b3861196a565b503d611b30565b60405163fa95696160e01b8152600490fd5b50831561193d565b611b809150883d8a116106d7576106c98183611ced565b3861192f565b50346101d457806003193601126101d4576033546040516001600160a01b039091168152602090f35b9050346106875760203660031901126106875760043563ffffffff60e01b8116809103610575576033546301ffc9a760e01b83526004830191909152602090829060249082906001600160a01b03165afa9081156105795760209291611c1b575b506040519015158152f35b611c329150823d81116106d7576106c98183611ced565b38611c10565b600435906001600160a01b03821682036105e057565b602435906001600160a01b03821682036105e057565b15611c6b57565b60405162461bcd60e51b815260206004820152602b60248201527f496e697469616c697a61626c653a20636f6e7472616374206973206e6f74206960448201526a6e697469616c697a696e6760a81b6064820152608490fd5b6001600160401b038111611cd757604052565b634e487b7160e01b600052604160045260246000fd5b601f909101601f19168101906001600160401b03821190821017611cd757604052565b6001600160a01b0391821681529116602082015260400190565b908160209103126105e0575180151581036105e05790565b908160209103126105e0575160ff811681036105e05790565b6001600160a01b03918216815291166020820152604081019190915260600190565b600260015414611d8e576002600155565b60405162461bcd60e51b815260206004820152601f60248201527f5265656e7472616e637947756172643a207265656e7472616e742063616c6c006044820152606490fd5b6001600160a01b039182168152918116602083015290911660408201526060810191909152608081019190915260a00190565b604091949392606082019560018060a01b0316825260208201520152565b81810292918115918404141715611e3757565b634e487b7160e01b600052601160045260246000fd5b8115611e57570490565b634e487b7160e01b600052601260045260246000fd5b90611ecc6020611e7d838561209f565b9260018060a01b0394670de0b6b3a7640000611ea9600096888416885260348652604088205490611e24565b0495604154169060405180958194829363a6ea8b8760e01b845260048401611d10565b03915afa918215610cfa578092611ef9575b505011611ee757565b6040516330b58a9160e01b8152600490fd5b9091506020823d8211611f25575b81611f1460209383611ced565b810103126101d45750513880611ede565b3d9150611f07565b90611f379161209f565b8015159081611f5a575b50611f4857565b604051633fc1a63760e11b8152600490fd5b9050603654101538611f41565b90611f72818361209f565b91821561209757603d5460405163a6ea8b8760e01b81526020946001600160a01b039490928691839187169082908190611fb0908960048401611d10565b03915afa9081156120545760009161206a575b50801561206057670de0b6b3a764000080820291820403611e37578491611fe991611e4d565b603e5460405163e6bc046160e01b81529385166004850152909383916024918391165afa92831561205457600093612023575b5050101590565b8181949293943d831161204d575b61203b8183611ced565b810103126101d457505190388061201c565b503d612031565b6040513d6000823e3d90fd5b5050505050600090565b908582813d8311612090575b6120808183611ced565b810103126101d457505138611fc3565b503d612076565b505050600090565b6120d09060018060a01b0380603d54169360405180956334e3b77960e01b8252818060209788958860048401611d10565b03915afa93841561205457600094612161575b50603f54604051631735856760e31b81529282166004840152839183916024918391165afa91821561205457600092612130575b5050670de0b6b3a76400009161212c91611e24565b0490565b81819392933d831161215a575b6121478183611ced565b810103126101d45750518161212c612117565b503d61213d565b90938382813d8311612189575b6121788183611ced565b810103126101d457505192826120e3565b503d61216e565b61219a828261209f565b90811561209757603d5460405163f084843d60e01b81529360209285926001600160a01b031691839182916121d29160048401611d10565b03915afa9182156120545760009261220c575b50670de0b6b3a764000091828102928184041490151715611e375761220991611e4d565b90565b90916020823d8211612237575b8161222660209383611ced565b810103126101d457505190386121e5565b3d9150612219565b91908203918211611e3757565b90612257818361209f565b603e5460405163f3f481df60e01b81526001600160a01b038581166004830152946020949390928590839060249082908a165afa91821561205457600092612332575b5091670de0b6b3a76400006122b58695936122d89795611e24565b0495603d54169060405180968194829363a6ea8b8760e01b845260048401611d10565b03915afa90811561205457600091612306575b508091508211156122ff576122099161223f565b5050600090565b82813d831161232b575b61231a8183611ced565b810103126101d457505180386122eb565b503d612310565b90918582813d8311612362575b6123498183611ced565b810103126101d457505190670de0b6b3a764000061229a565b503d61233f565b60ff16604d8111611e3757600a0a90565b603d54604080516334e3b77960e01b8152936001600160a01b0393919290916004916020919086168288806123b28886898401611d10565b0381845afa978815612580576000986125d4575b5086603f541691865195631735856760e31b875284876024818c861697888b8301525afa9687156125c95760009761259a575b50861561258b57875163f084843d60e01b8152928592849283918291612421918b8401611d10565b03915afa90811561258057600091612553575b50855163313ce56760e01b815283818681865afa9081156125485761246c92916124669160009161252b575b50612369565b90611e24565b95670de0b6b3a764000096878102978189041490151715612516579060248392603e5416948751958693849263f3f481df60e01b84528301525afa93841561250c57506000936124d7575b5050916124cb6124d1926122099594611e24565b90611e4d565b9061223f565b8181949293943d8311612505575b6124ef8183611ced565b810103126101d4575051906124cb6122096124b7565b503d6124e5565b513d6000823e3d90fd5b601184634e487b7160e01b6000525260246000fd5b6125429150863d8811611b4857611b3a8183611ced565b38612460565b87513d6000823e3d90fd5b908382813d8311612579575b6125698183611ced565b810103126101d457505138612434565b503d61255f565b86513d6000823e3d90fd5b50505050505050505050600090565b90968582813d83116125c2575b6125b18183611ced565b810103126101d457505195386123f9565b503d6125a7565b88513d6000823e3d90fd5b90978382813d83116125fc575b6125eb8183611ced565b810103126101d457505196386123c6565b503d6125e1565b60ff166012039060ff8211611e3757565b603d546040805163a6ea8b8760e01b81526001600160a01b03949193600493602093919087169084848061264b86858b8401611d10565b0381855afa93841561254857600094612810575b50831561280257670de0b6b3a76400009384810290810485036127ed576024868a603e54169a8a519283809263e6bc046160e01b825287169d8e8d8301525afa9081156127e2576000916127b3575b506126b891611e4d565b84810294818604149015171561279e579184916126e99388518095819482936334e3b77960e01b84528b8401611d10565b03915afa90811561279357908391600091612763575b5061270a9192611e4d565b9484519384809263313ce56760e01b82525afa92831561250c575061220993926124cb9261274192600092612746575b5050612603565b612369565b61275c9250803d10611b4857611b3a8183611ced565b388061273a565b9182813d831161278c575b6127788183611ced565b810103126101d4575051829061270a6126ff565b503d61276e565b85513d6000823e3d90fd5b601186634e487b7160e01b6000525260246000fd5b908782813d83116127db575b6127c98183611ced565b810103126101d45750516126b86126ae565b503d6127bf565b89513d6000823e3d90fd5b601187634e487b7160e01b6000525260246000fd5b505050505050505060001990565b90938582813d8311612838575b6128278183611ced565b810103126101d4575051923861265f565b503d61281d565b91908201809211611e3757565b603d546040805163a6ea8b8760e01b815293959094600494602094936001600160a01b039081169390918681806128868d8a8d8401611d10565b0381885afa9081156127e2576000916129f3575b50906128a59161283f565b9788156129e457670de0b6b3a764000093848a02998a0485036129cf5782603e541699878a51809563e6bc046160e01b825289169c8d8c830152815a91602492fa9384156129c457908893929160009561298c575b506129239461290891611e4d565b968a518095819482936334e3b77960e01b84528d8401611d10565b03915afa9081156125485760009161295d575b50906129419161283f565b9181810291818304149015171561251657829161270a91611e4d565b908582813d8311612985575b6129738183611ced565b810103126101d4575051612941612936565b503d612969565b91938281969294963d83116129bd575b6129a68183611ced565b810103126101d457505192879290916129086128fa565b503d61299c565b8a513d6000823e3d90fd5b601188634e487b7160e01b6000525260246000fd5b50505050505050505060001990565b908782813d8311612a1b575b612a098183611ced565b810103126101d45750516128a561289a565b503d6129ff565b603d5460405163a6ea8b8760e01b8152929060209084906001600160a01b03168180612a52868860048401611d10565b03915afa92831561205457600093612a92575b50821561209757612a759161209f565b670de0b6b3a764000080830292830403611e375761220991611e4d565b90926020823d8211612abd575b81612aac60209383611ced565b810103126101d45750519138612a65565b3d9150612a9f565b6001600160a01b039091168152602081019190915260400190565b6040519182612b026020958683019363a9059cbb60e01b855260248401612ac5565b0392612b16601f1994858101835282611ced565b600092839283809351925af1913d15612bd2573d6001600160401b038111612bbe57612b4c8560405193601f8401160183611ced565b81528091843d92013e5b81612b8e575b5015612b655750565b6064906040519062461bcd60e51b82526004820152600260248201526114d560f21b6044820152fd5b80518015925083908315612ba6575b50505038612b5c565b612bb69350820181019101611d2a565b388281612b9d565b634e487b7160e01b83526041600452602483fd5b50506060612b5656fe3b5d4cc60d3ec3516ee8ae083bd60934f6eb2a6c54b1229985c41bfb092b2603a26469706673582212208631c1aae047a726652591b1b6073516dc3dd9cc2428d8335cc94ced99f39afc64736f6c63430008110033",
  "devdoc": {
    "details": "See ISuManager interface and all SuManager** contracts for full details.",
    "kind": "dev",
    "methods": {
      "getLiquidationBlock(address,address)": {
        "params": {
          "asset": "The address of the main collateral token of a position",
          "owner": "The owner of the collateral"
        },
        "returns": {
          "_0": "liquidationBlock The block number when the liquidation was triggered*"
        }
      },
      "getPositionInfo(address,address)": {
        "params": {
          "asset": "The address of the main collateral token of a position",
          "owner": "The owner of the collateral"
        },
        "returns": {
          "collateralEDecimal": "The amount of collateral",
          "debtWithFeesE18": "The amount of borrowed stablecoins with accumulated fee*"
        }
      },
      "join(address,uint256,uint256,uint256)": {
        "details": "Before calling this function user has to approve the Vault to take his collateral*"
      },
      "liquidationPriceE18(address,address)": {
        "details": "can be used inside of _isLiquidatablePosition*"
      },
      "setInitialCollateralRatioE18(address,uint256)": {
        "details": "Sets the initial collateral ratio",
        "params": {
          "asset": "The address of the main collateral token",
          "newValueE18": "The collateralization ratio (1e18 = 100%)*"
        }
      },
      "setLiquidationRatioE18(address,uint256)": {
        "details": "Sets the liquidation ratio",
        "params": {
          "asset": "The address of the main collateral token",
          "newValueE18": "The liquidation ratio (1e18 = 100%).*"
        }
      },
      "setMinCollateralInUsdE18(uint256)": {
        "details": "Sets a minimum value of collateral in USD which allowed to be left after partial closure",
        "params": {
          "newValueE18": "The minimum value of collateral in USD"
        }
      },
      "supportsInterface(bytes4)": {
        "details": "Returns true if this contract implements the interface defined by `interfaceId`. See the corresponding https://eips.ethereum.org/EIPS/eip-165#how-interfaces-are-identified[EIP section] to learn more about how these ids are created. This function call must use less than 30 000 gas."
      },
      "triggerLiquidation(address,address)": {
        "details": "Emits LiquidationTriggered event. Sets the current block as liquidationBlock for the position. Can be triggered only once for the position. Add order for liquidated collateral to sell it by stablecoin from whitelist",
        "params": {
          "asset": "The address of the main collateral token of a position",
          "owner": "The owner of a position*"
        }
      }
    },
    "title": "SuManager",
    "version": 1
  },
  "userdoc": {
    "events": {
      "Exit(address,address,uint256,uint256)": {
        "notice": "Event triggered when user withdraws collateral*"
      },
      "Join(address,address,uint256,uint256)": {
        "notice": "Even triggered when user deposit collateral*"
      },
      "LiquidationTriggered(address,uint256)": {
        "notice": "Event triggered when triggerLiquidation() is called*"
      }
    },
    "kind": "user",
    "methods": {
      "exit(address,uint256,uint256)": {
        "notice": "User can pay back the stablecoin and take his collateral instead of passing both assetAmount and stablecoinAmount better user just to pass one of them also pass preferred rate and maybe acceptable diff percent that's the purpose of passing both to protect user from rate fluctuations*"
      },
      "getAvailableToBorrowE18(address,address)": {
        "notice": "Returns Available to Borrow we have invariant: (collateralAmountEDecimal * collateralPriceE18 / 1e18) * initialCollateralRatioE18 <= debtE18 Has similar logic like in _ensurePositionCollateralization*"
      },
      "getAvailableToWithdrawE18(address,address)": {
        "notice": "Returns Available to Withdraw Has similar invariant like in getAvailableToBorrowE18*"
      },
      "getCollateralUsdValueE18(address,address)": {
        "notice": "USD value of collateral of owner*"
      },
      "getLTVE18(address,address)": {
        "notice": "Returns Loan-To-Value in e18*"
      },
      "getLiquidationBlock(address,address)": {
        "notice": "Returns information about a liquidating position"
      },
      "getPositionInfo(address,address)": {
        "notice": "Returns information about a liquidating position"
      },
      "initialCollateralRatioE18(address)": {
        "notice": "When ratio (debt / usdValue) goes below it user can't withdraw or borrow. Should be >= liquidationRatioE18. 1e18 = 100% ratio. Should be less than 1e18. Is used to calculate available to withdraw and borrow. For example, user can borrow <= usdValue * initialCollateralRatio*"
      },
      "isLiquidatablePosition(address,address)": {
        "notice": "View function to check if position is liquidatable*"
      },
      "join(address,uint256,uint256,uint256)": {
        "notice": "This function is called by user to deposit collateral and receive stablecoin"
      },
      "liquidationPriceE18(address,address)": {
        "notice": "Calculate liquidation price"
      },
      "liquidationRatioE18(address)": {
        "notice": "Ratio when cdp can be liquidated. 1e18 = 100% ratio. Should be less than 1e18. Is used in isLiquidatablePosition(). It's true when debt / usdValue >= liquidationRatio*"
      },
      "minCollateralInUsdE18()": {
        "notice": "The minimum value of collateral in USD which allowed to be left after partial closure*"
      },
      "setInitialCollateralRatioE18(address,uint256)": {
        "notice": "Only manager is able to call this function"
      },
      "setLiquidationRatioE18(address,uint256)": {
        "notice": "Only manager is able to call this function"
      },
      "setMinCollateralInUsdE18(uint256)": {
        "notice": "Only manager is able to call this function"
      },
      "triggerLiquidation(address,address)": {
        "notice": "Marks a position as to be liquidated"
      },
      "utilizationRatioE18(address,address)": {
        "notice": "View function to show utilization ratio the same function can be used inside of _isLiquidatablePosition*"
      }
    },
    "notice": "Main contract to give ability to user to join position or exit from it.",
    "version": 1
  },
  "storageLayout": {
    "storage": [
      {
        "astId": 671,
        "contract": "contracts/lending/SuManager.sol:SuManager",
        "label": "_initialized",
        "offset": 0,
        "slot": "0",
        "type": "t_uint8"
      },
      {
        "astId": 674,
        "contract": "contracts/lending/SuManager.sol:SuManager",
        "label": "_initializing",
        "offset": 1,
        "slot": "0",
        "type": "t_bool"
      },
      {
        "astId": 847,
        "contract": "contracts/lending/SuManager.sol:SuManager",
        "label": "_status",
        "offset": 0,
        "slot": "1",
        "type": "t_uint256"
      },
      {
        "astId": 916,
        "contract": "contracts/lending/SuManager.sol:SuManager",
        "label": "__gap",
        "offset": 0,
        "slot": "2",
        "type": "t_array(t_uint256)49_storage"
      },
      {
        "astId": 28586,
        "contract": "contracts/lending/SuManager.sol:SuManager",
        "label": "ACCESS_CONTROL_SINGLETON",
        "offset": 0,
        "slot": "51",
        "type": "t_contract(ISuAccessControl)32175"
      },
      {
        "astId": 25882,
        "contract": "contracts/lending/SuManager.sol:SuManager",
        "label": "initialCollateralRatioE18",
        "offset": 0,
        "slot": "52",
        "type": "t_mapping(t_address,t_uint256)"
      },
      {
        "astId": 25886,
        "contract": "contracts/lending/SuManager.sol:SuManager",
        "label": "liquidationRatioE18",
        "offset": 0,
        "slot": "53",
        "type": "t_mapping(t_address,t_uint256)"
      },
      {
        "astId": 25888,
        "contract": "contracts/lending/SuManager.sol:SuManager",
        "label": "minCollateralInUsdE18",
        "offset": 0,
        "slot": "54",
        "type": "t_uint256"
      },
      {
        "astId": 25891,
        "contract": "contracts/lending/SuManager.sol:SuManager",
        "label": "vaultParameters",
        "offset": 0,
        "slot": "55",
        "type": "t_contract(SuVaultParameters)27029"
      },
      {
        "astId": 25688,
        "contract": "contracts/lending/SuManager.sol:SuManager",
        "label": "_vault",
        "offset": 0,
        "slot": "56",
        "type": "t_contract(ISuVault)23976"
      },
      {
        "astId": 25691,
        "contract": "contracts/lending/SuManager.sol:SuManager",
        "label": "_manager",
        "offset": 0,
        "slot": "57",
        "type": "t_contract(ISuManager)23427"
      },
      {
        "astId": 25694,
        "contract": "contracts/lending/SuManager.sol:SuManager",
        "label": "_liquidationMiddleware",
        "offset": 0,
        "slot": "58",
        "type": "t_contract(ISuLiquidationMiddleware)23360"
      },
      {
        "astId": 25696,
        "contract": "contracts/lending/SuManager.sol:SuManager",
        "label": "_stablePro",
        "offset": 0,
        "slot": "59",
        "type": "t_address"
      },
      {
        "astId": 25698,
        "contract": "contracts/lending/SuManager.sol:SuManager",
        "label": "foundation",
        "offset": 0,
        "slot": "60",
        "type": "t_address"
      },
      {
        "astId": 25187,
        "contract": "contracts/lending/SuManager.sol:SuManager",
        "label": "_VAULT",
        "offset": 0,
        "slot": "61",
        "type": "t_contract(ISuVault)23976"
      },
      {
        "astId": 25190,
        "contract": "contracts/lending/SuManager.sol:SuManager",
        "label": "_MANAGER",
        "offset": 0,
        "slot": "62",
        "type": "t_contract(ISuManager)23427"
      },
      {
        "astId": 25193,
        "contract": "contracts/lending/SuManager.sol:SuManager",
        "label": "_ORACLE",
        "offset": 0,
        "slot": "63",
        "type": "t_contract(ISuOracle)32359"
      },
      {
        "astId": 17936,
        "contract": "contracts/lending/SuManager.sol:SuManager",
        "label": "suPausable",
        "offset": 0,
        "slot": "64",
        "type": "t_contract(ISuPausable)23716"
      },
      {
        "astId": 24784,
        "contract": "contracts/lending/SuManager.sol:SuManager",
        "label": "vault",
        "offset": 0,
        "slot": "65",
        "type": "t_contract(ISuVault)23976"
      },
      {
        "astId": 24787,
        "contract": "contracts/lending/SuManager.sol:SuManager",
        "label": "cdpRegistry",
        "offset": 0,
        "slot": "66",
        "type": "t_contract(ISuCdpRegistry)23241"
      }
    ],
    "types": {
      "t_address": {
        "encoding": "inplace",
        "label": "address",
        "numberOfBytes": "20"
      },
      "t_array(t_uint256)49_storage": {
        "base": "t_uint256",
        "encoding": "inplace",
        "label": "uint256[49]",
        "numberOfBytes": "1568"
      },
      "t_bool": {
        "encoding": "inplace",
        "label": "bool",
        "numberOfBytes": "1"
      },
      "t_contract(ISuAccessControl)32175": {
        "encoding": "inplace",
        "label": "contract ISuAccessControl",
        "numberOfBytes": "20"
      },
      "t_contract(ISuCdpRegistry)23241": {
        "encoding": "inplace",
        "label": "contract ISuCdpRegistry",
        "numberOfBytes": "20"
      },
      "t_contract(ISuLiquidationMiddleware)23360": {
        "encoding": "inplace",
        "label": "contract ISuLiquidationMiddleware",
        "numberOfBytes": "20"
      },
      "t_contract(ISuManager)23427": {
        "encoding": "inplace",
        "label": "contract ISuManager",
        "numberOfBytes": "20"
      },
      "t_contract(ISuOracle)32359": {
        "encoding": "inplace",
        "label": "contract ISuOracle",
        "numberOfBytes": "20"
      },
      "t_contract(ISuPausable)23716": {
        "encoding": "inplace",
        "label": "contract ISuPausable",
        "numberOfBytes": "20"
      },
      "t_contract(ISuVault)23976": {
        "encoding": "inplace",
        "label": "contract ISuVault",
        "numberOfBytes": "20"
      },
      "t_contract(SuVaultParameters)27029": {
        "encoding": "inplace",
        "label": "contract SuVaultParameters",
        "numberOfBytes": "20"
      },
      "t_mapping(t_address,t_uint256)": {
        "encoding": "mapping",
        "key": "t_address",
        "label": "mapping(address => uint256)",
        "numberOfBytes": "32",
        "value": "t_uint256"
      },
      "t_uint256": {
        "encoding": "inplace",
        "label": "uint256",
        "numberOfBytes": "32"
      },
      "t_uint8": {
        "encoding": "inplace",
        "label": "uint8",
        "numberOfBytes": "1"
      }
    }
  }
}