{
  "address": "0x258DeE3D795cDbc80242D2D43205cE15D6d60b29",
  "abi": [
    {
      "inputs": [],
      "name": "AlreadyPaused",
      "type": "error"
    },
    {
      "inputs": [],
      "name": "BadAccessControlSingleton",
      "type": "error"
    },
    {
      "inputs": [],
      "name": "NotPaused",
      "type": "error"
    },
    {
      "inputs": [],
      "name": "OnlyAdminError",
      "type": "error"
    },
    {
      "inputs": [],
      "name": "OnlyAlerterError",
      "type": "error"
    },
    {
      "inputs": [],
      "name": "OnlyDAOError",
      "type": "error"
    },
    {
      "inputs": [],
      "name": "OnlyLiquidationAccessError",
      "type": "error"
    },
    {
      "inputs": [],
      "name": "OnlyMintAccessError",
      "type": "error"
    },
    {
      "inputs": [],
      "name": "OnlyRewardAccessError",
      "type": "error"
    },
    {
      "inputs": [],
      "name": "OnlyRoleError",
      "type": "error"
    },
    {
      "inputs": [],
      "name": "OnlyVaultAccessError",
      "type": "error"
    },
    {
      "anonymous": false,
      "inputs": [
        {
          "indexed": false,
          "internalType": "uint8",
          "name": "version",
          "type": "uint8"
        }
      ],
      "name": "Initialized",
      "type": "event"
    },
    {
      "anonymous": false,
      "inputs": [
        {
          "indexed": false,
          "internalType": "address",
          "name": "account",
          "type": "address"
        },
        {
          "indexed": false,
          "internalType": "address",
          "name": "collateral",
          "type": "address"
        }
      ],
      "name": "PausedCollateral",
      "type": "event"
    },
    {
      "anonymous": false,
      "inputs": [
        {
          "indexed": false,
          "internalType": "address",
          "name": "account",
          "type": "address"
        },
        {
          "indexed": false,
          "internalType": "address",
          "name": "_contract",
          "type": "address"
        }
      ],
      "name": "PausedContract",
      "type": "event"
    },
    {
      "anonymous": false,
      "inputs": [
        {
          "indexed": false,
          "internalType": "address",
          "name": "account",
          "type": "address"
        },
        {
          "indexed": false,
          "internalType": "address",
          "name": "collateral",
          "type": "address"
        }
      ],
      "name": "UnpausedCollateral",
      "type": "event"
    },
    {
      "anonymous": false,
      "inputs": [
        {
          "indexed": false,
          "internalType": "address",
          "name": "account",
          "type": "address"
        },
        {
          "indexed": false,
          "internalType": "address",
          "name": "_contract",
          "type": "address"
        }
      ],
      "name": "UnpausedContract",
      "type": "event"
    },
    {
      "inputs": [],
      "name": "ACCESS_CONTROL_SINGLETON",
      "outputs": [
        {
          "internalType": "contract ISuAccessControl",
          "name": "",
          "type": "address"
        }
      ],
      "stateMutability": "view",
      "type": "function"
    },
    {
      "inputs": [],
      "name": "ADMIN_ROLE",
      "outputs": [
        {
          "internalType": "bytes32",
          "name": "",
          "type": "bytes32"
        }
      ],
      "stateMutability": "view",
      "type": "function"
    },
    {
      "inputs": [],
      "name": "ALERTER_ROLE",
      "outputs": [
        {
          "internalType": "bytes32",
          "name": "",
          "type": "bytes32"
        }
      ],
      "stateMutability": "view",
      "type": "function"
    },
    {
      "inputs": [],
      "name": "DAO_ROLE",
      "outputs": [
        {
          "internalType": "bytes32",
          "name": "",
          "type": "bytes32"
        }
      ],
      "stateMutability": "view",
      "type": "function"
    },
    {
      "inputs": [],
      "name": "LIQUIDATION_ACCESS_ROLE",
      "outputs": [
        {
          "internalType": "bytes32",
          "name": "",
          "type": "bytes32"
        }
      ],
      "stateMutability": "view",
      "type": "function"
    },
    {
      "inputs": [],
      "name": "MINT_ACCESS_ROLE",
      "outputs": [
        {
          "internalType": "bytes32",
          "name": "",
          "type": "bytes32"
        }
      ],
      "stateMutability": "view",
      "type": "function"
    },
    {
      "inputs": [],
      "name": "REWARD_ACCESS_ROLE",
      "outputs": [
        {
          "internalType": "bytes32",
          "name": "",
          "type": "bytes32"
        }
      ],
      "stateMutability": "view",
      "type": "function"
    },
    {
      "inputs": [],
      "name": "VAULT_ACCESS_ROLE",
      "outputs": [
        {
          "internalType": "bytes32",
          "name": "",
          "type": "bytes32"
        }
      ],
      "stateMutability": "view",
      "type": "function"
    },
    {
      "inputs": [
        {
          "internalType": "address[]",
          "name": "collaterals",
          "type": "address[]"
        }
      ],
      "name": "batchPauseCollateral",
      "outputs": [],
      "stateMutability": "nonpayable",
      "type": "function"
    },
    {
      "inputs": [
        {
          "internalType": "address[]",
          "name": "collaterals",
          "type": "address[]"
        }
      ],
      "name": "batchUnpauseCollateral",
      "outputs": [],
      "stateMutability": "nonpayable",
      "type": "function"
    },
    {
      "inputs": [
        {
          "internalType": "address",
          "name": "_authControl",
          "type": "address"
        }
      ],
      "name": "initialize",
      "outputs": [],
      "stateMutability": "nonpayable",
      "type": "function"
    },
    {
      "inputs": [
        {
          "internalType": "address",
          "name": "collateral",
          "type": "address"
        }
      ],
      "name": "isPaused",
      "outputs": [
        {
          "internalType": "bool",
          "name": "",
          "type": "bool"
        }
      ],
      "stateMutability": "view",
      "type": "function"
    },
    {
      "inputs": [],
      "name": "pauseAll",
      "outputs": [],
      "stateMutability": "nonpayable",
      "type": "function"
    },
    {
      "inputs": [
        {
          "internalType": "address",
          "name": "collateral",
          "type": "address"
        }
      ],
      "name": "pauseCollateral",
      "outputs": [],
      "stateMutability": "nonpayable",
      "type": "function"
    },
    {
      "inputs": [
        {
          "internalType": "address",
          "name": "_contract",
          "type": "address"
        }
      ],
      "name": "pauseContract",
      "outputs": [],
      "stateMutability": "nonpayable",
      "type": "function"
    },
    {
      "inputs": [
        {
          "internalType": "bytes4",
          "name": "interfaceId",
          "type": "bytes4"
        }
      ],
      "name": "supportsInterface",
      "outputs": [
        {
          "internalType": "bool",
          "name": "",
          "type": "bool"
        }
      ],
      "stateMutability": "view",
      "type": "function"
    },
    {
      "inputs": [],
      "name": "unpauseAll",
      "outputs": [],
      "stateMutability": "nonpayable",
      "type": "function"
    },
    {
      "inputs": [
        {
          "internalType": "address",
          "name": "collateral",
          "type": "address"
        }
      ],
      "name": "unpauseCollateral",
      "outputs": [],
      "stateMutability": "nonpayable",
      "type": "function"
    },
    {
      "inputs": [
        {
          "internalType": "address",
          "name": "_contract",
          "type": "address"
        }
      ],
      "name": "unpauseContract",
      "outputs": [],
      "stateMutability": "nonpayable",
      "type": "function"
    }
  ],
  "numDeployments": 1,
  "solcInputHash": "6bdb767f00e3f0fe0de7c63e7a48801d",
  "bytecode": "0x6080806040523461001657610f91908161001c8239f35b600080fdfe608080604052600436101561001357600080fd5b60003560e01c90816301ffc9a714610d555750806303ee9f2214610d2857806314c376dc14610ced5780633d12bf6814610c10578063438280dd14610bd5578063595c6a6714610b3f5780635b14f18314610ac957806371d0fb4114610aa057806375b238fc14610a8457806381338402146109085780638a2ddd03146108755780638e5313e01461083a578063936b10b5146106ad5780639903764d146105ce578063adb99c8a146104cb578063c4d66de81461029f578063d97b9bd51461016b578063dc97e84e146101305763e9c26518146100f057600080fd5b3461012b57600036600319011261012b5760206040517f3b5d4cc60d3ec3516ee8ae083bd60934f6eb2a6c54b1229985c41bfb092b26038152f35b600080fd5b3461012b57600036600319011261012b5760206040517f9a9aef7c1247d5fc769b0185c052913e39673da29a880317dfd20ebf86f26a498152f35b3461012b5760208060031936011261012b576001600160a01b03600435818116929183820361012b578260449160005460101c1660405192838092632474521560e21b8252600080516020610efc83398151915260048301523360248301525afa90811561029357600091610266575b501561025457826000526034825260ff604060002054161561024257603461023d927f89a3d3fda348502e6f73d7a13fc1c360e76ffdd48255c834c2e6a7742fe0f68b9460005252604060002060ff1981541690556040519182913383610e7e565b0390a1005b604051636cd6020160e01b8152600490fd5b604051632d924c4d60e01b8152600490fd5b6102869150833d851161028c575b61027e8183610e2d565b810190610e66565b846101db565b503d610274565b6040513d6000823e3d90fd5b3461012b5760208060031936011261012b57600435906001600160a01b03821680830361012b5760005460ff8160081c1615908180926104be575b80156104a7575b1561044b5760ff198181166001176000559082610439575b506000549460ff8660081c16156103e05762010000600160b01b0360109190911b1662010000600160b01b0319861681176000556040516301ffc9a760e01b8152637965db0b60e01b600482015290938590829060249082905afa908115610293576000916103c3575b50156103b1576035541660355561037657005b7f7f26b83ff96e1f2b6a682f133852f6798a09c465da95921460cefb384740249892610100600160b01b0319161760005560405160018152a1005b6040516384d942fd60e01b8152600490fd5b6103da9150853d871161028c5761027e8183610e2d565b86610363565b60405162461bcd60e51b815260048101869052602b60248201527f496e697469616c697a61626c653a20636f6e7472616374206973206e6f74206960448201526a6e697469616c697a696e6760a81b6064820152608490fd5b61ffff191661010117600055856102f9565b60405162461bcd60e51b815260048101859052602e60248201527f496e697469616c697a61626c653a20636f6e747261637420697320616c72656160448201526d191e481a5b9a5d1a585b1a5e995960921b6064820152608490fd5b50303b1580156102e15750600160ff8216146102e1565b50600160ff8216106102da565b3461012b5760208060031936011261012b576001600160a01b03600435818116929183820361012b578260449160005460101c1660405192838092632474521560e21b8252600080516020610efc83398151915260048301523360248301525afa908115610293576000916105b1575b501561025457826000526034825260ff6040600020541661059f57603461023d927f399539b980d306fdb9c06e54d4d9641bc47e79fdbbbe60801ea630eefee955f094600052526040600020600160ff198254161790556040519182913383610e7e565b604051631785c68160e01b8152600490fd5b6105c89150833d851161028c5761027e8183610e2d565b8461053b565b3461012b5760208060031936011261012b576001600160a01b03600435818116929183820361012b578260449160005460101c1660405192838092632474521560e21b8252600080516020610efc83398151915260048301523360248301525afa90811561029357600091610690575b501561025457826000526033825260ff6040600020541661059f57603361023d92600080516020610f3c83398151915294600052526040600020600160ff198254161790556040519182913383610e7e565b6106a79150833d851161028c5761027e8183610e2d565b8461063e565b3461012b576106bb36610de0565b600054604051632474521560e21b8152600080516020610efc8339815191526004820152336024820152906020908290604490829060101c6001600160a01b03165afa9081156102935760009161081b575b50156102545760005b61ffff81168281101561081957610731610736918486610ec1565b610ee7565b600054604051632474521560e21b8152600080516020610efc8339815191526004820152336024820152919291906020908290604490829060101c6001600160a01b03165afa908115610293576000916107fa575b50156102545760018060a01b038216806000526033908160205260ff6040600020541661059f576107f593600080516020610f3c833981519152926107ed926000526020526040600020600160ff198254161790556040519182913383610e7e565b0390a1610e98565b610716565b610813915060203d60201161028c5761027e8183610e2d565b8561078b565b005b610834915060203d60201161028c5761027e8183610e2d565b8361070d565b3461012b57600036600319011261012b5760206040517fe453bacb314e78dcd5192e6b1a2b1f0e7c76e92f6b7e429a6a90f04e39db3b768152f35b3461012b57600036600319011261012b57600054604051632474521560e21b8152600080516020610efc8339815191526004820152336024820152906020908290604490829060101c6001600160a01b03165afa908115610293576000916108ea575b5015610254576035805460ff19169055005b610902915060203d811161028c5761027e8183610e2d565b816108d8565b3461012b5761091636610de0565b600054604051632474521560e21b8152600080516020610efc8339815191526004820152336024820152906020908290604490829060101c6001600160a01b03165afa90811561029357600091610a65575b50156102545760005b61ffff8116828110156108195761073161098c918486610ec1565b600054604051632474521560e21b8152600080516020610efc8339815191526004820152336024820152919291906020908290604490829060101c6001600160a01b03165afa90811561029357600091610a46575b50156102545760018060a01b038216806000526033908160205260ff604060002054161561024257610a4193600080516020610f1c833981519152926107ed92600052602052604060002060ff1981541690556040519182913383610e7e565b610971565b610a5f915060203d60201161028c5761027e8183610e2d565b856109e1565b610a7e915060203d60201161028c5761027e8183610e2d565b83610968565b3461012b57600036600319011261012b57602060405160008152f35b3461012b57600036600319011261012b576020604051600080516020610efc8339815191528152f35b3461012b57602036600319011261012b576004356001600160a01b0381169081900361012b57600052603360205260ff604060002054168015610b27575b8015610b1b575b6020906040519015158152f35b5060355460ff16610b0e565b5033600052603460205260ff60406000205416610b07565b3461012b57600036600319011261012b57600054604051632474521560e21b8152600080516020610efc8339815191526004820152336024820152906020908290604490829060101c6001600160a01b03165afa90811561029357600091610bb7575b5015610254576035805460ff19166001179055005b610bcf915060203d811161028c5761027e8183610e2d565b81610ba2565b3461012b57600036600319011261012b5760206040517f39f61ca2a1a28fee144218173ec637b649a353e4026b2738c673800e5bf1437b8152f35b3461012b5760208060031936011261012b576001600160a01b03600435818116929183820361012b578260449160005460101c1660405192838092632474521560e21b8252600080516020610efc83398151915260048301523360248301525afa90811561029357600091610cd0575b501561025457826000526033825260ff604060002054161561024257603361023d92600080516020610f1c8339815191529460005252604060002060ff1981541690556040519182913383610e7e565b610ce79150833d851161028c5761027e8183610e2d565b84610c80565b3461012b57600036600319011261012b5760206040517fe965846df3dd5b1dfa65f58e31477079e90140e0908b6dd31b5aead5a57cf3658152f35b3461012b57600036600319011261012b5760005460405160109190911c6001600160a01b03168152602090f35b3461012b57602036600319011261012b5760043563ffffffff60e01b811680910361012b576000546301ffc9a760e01b835260048301919091526020908290602490829060101c6001600160a01b03165afa801561029357602091600091610dc3575b506040519015158152f35b610dda9150823d811161028c5761027e8183610e2d565b82610db8565b90602060031983011261012b576001600160401b03916004359083821161012b578060238301121561012b57816004013593841161012b5760248460051b8301011161012b576024019190565b601f909101601f19168101906001600160401b03821190821017610e5057604052565b634e487b7160e01b600052604160045260246000fd5b9081602091031261012b5751801515810361012b5790565b6001600160a01b0391821681529116602082015260400190565b61ffff809116908114610eab5760010190565b634e487b7160e01b600052601160045260246000fd5b9190811015610ed15760051b0190565b634e487b7160e01b600052603260045260246000fd5b356001600160a01b038116810361012b579056fe880a91047114272656e533301261260c75e4d11543ac7303d6fe4204579ec7270ff868317c539b6cf544d58b9bf4a804d4eb9b470973a8af72b955706cb5ba9d222bff8732285e05b0b7145168b258094e6bf8f0f7b136a9224345a3f4cdaee0a2646970667358221220315c4cf128d75287b7ea7272f9083f4b3972d76ab5db486c37bcabb125096b5b64736f6c63430008110033",
  "devdoc": {
    "details": "Contract module which allows to implement an emergency stop mechanism that can be triggered only by an owner. See the associated interface for full details.",
    "kind": "dev",
    "methods": {
      "batchPauseCollateral(address[])": {
        "details": "Triggers stopped state for all \"collaterals\".*"
      },
      "batchUnpauseCollateral(address[])": {
        "details": "Returns all \"collaterals\" to normal state.*"
      },
      "initialize(address)": {
        "details": "_isCollateralPaused and _isContractPaused are empty that means that all collaterals and contracts are not paused."
      },
      "isPaused(address)": {
        "details": "Returns true if the contract for the \"collateral\" is paused, and false otherwise.*"
      },
      "pauseAll()": {
        "details": "Triggers stopped state for the protocol.*"
      },
      "pauseCollateral(address)": {
        "details": "Triggers stopped state for the \"collateral\".*"
      },
      "pauseContract(address)": {
        "details": "Triggers stopped state for the \"_contract\".*"
      },
      "supportsInterface(bytes4)": {
        "details": "Returns true if this contract implements the interface defined by `interfaceId`. See the corresponding https://eips.ethereum.org/EIPS/eip-165#how-interfaces-are-identified[EIP section] to learn more about how these ids are created. This function call must use less than 30 000 gas."
      },
      "unpauseAll()": {
        "details": "Returns protocol to normal state. All previous stopped collaterals and contracts are in the same state.*"
      },
      "unpauseCollateral(address)": {
        "details": "Returns \"collateral\" to normal state.*"
      },
      "unpauseContract(address)": {
        "details": "Returns \"_contract\" to normal state.*"
      }
    },
    "stateVariables": {
      "__gap": {
        "details": "This empty reserved space is put in place to allow future versions to add new variables without shifting down storage in the inheritance chain. See https://docs.openzeppelin.com/contracts/4.x/upgradeable#storage_gaps"
      }
    },
    "version": 1
  },
  "userdoc": {
    "kind": "user",
    "methods": {},
    "version": 1
  },
  "storageLayout": {
    "storage": [
      {
        "astId": 671,
        "contract": "contracts/emergency/SuPausable.sol:SuPausable",
        "label": "_initialized",
        "offset": 0,
        "slot": "0",
        "type": "t_uint8"
      },
      {
        "astId": 674,
        "contract": "contracts/emergency/SuPausable.sol:SuPausable",
        "label": "_initializing",
        "offset": 1,
        "slot": "0",
        "type": "t_bool"
      },
      {
        "astId": 28586,
        "contract": "contracts/emergency/SuPausable.sol:SuPausable",
        "label": "ACCESS_CONTROL_SINGLETON",
        "offset": 2,
        "slot": "0",
        "type": "t_contract(ISuAccessControl)32175"
      },
      {
        "astId": 1803,
        "contract": "contracts/emergency/SuPausable.sol:SuPausable",
        "label": "__gap",
        "offset": 0,
        "slot": "1",
        "type": "t_array(t_uint256)50_storage"
      },
      {
        "astId": 17691,
        "contract": "contracts/emergency/SuPausable.sol:SuPausable",
        "label": "_isCollateralPaused",
        "offset": 0,
        "slot": "51",
        "type": "t_mapping(t_address,t_bool)"
      },
      {
        "astId": 17695,
        "contract": "contracts/emergency/SuPausable.sol:SuPausable",
        "label": "_isContractPaused",
        "offset": 0,
        "slot": "52",
        "type": "t_mapping(t_address,t_bool)"
      },
      {
        "astId": 17697,
        "contract": "contracts/emergency/SuPausable.sol:SuPausable",
        "label": "_isAllPaused",
        "offset": 0,
        "slot": "53",
        "type": "t_bool"
      },
      {
        "astId": 17924,
        "contract": "contracts/emergency/SuPausable.sol:SuPausable",
        "label": "__gap",
        "offset": 0,
        "slot": "54",
        "type": "t_array(t_uint256)45_storage"
      }
    ],
    "types": {
      "t_address": {
        "encoding": "inplace",
        "label": "address",
        "numberOfBytes": "20"
      },
      "t_array(t_uint256)45_storage": {
        "base": "t_uint256",
        "encoding": "inplace",
        "label": "uint256[45]",
        "numberOfBytes": "1440"
      },
      "t_array(t_uint256)50_storage": {
        "base": "t_uint256",
        "encoding": "inplace",
        "label": "uint256[50]",
        "numberOfBytes": "1600"
      },
      "t_bool": {
        "encoding": "inplace",
        "label": "bool",
        "numberOfBytes": "1"
      },
      "t_contract(ISuAccessControl)32175": {
        "encoding": "inplace",
        "label": "contract ISuAccessControl",
        "numberOfBytes": "20"
      },
      "t_mapping(t_address,t_bool)": {
        "encoding": "mapping",
        "key": "t_address",
        "label": "mapping(address => bool)",
        "numberOfBytes": "32",
        "value": "t_bool"
      },
      "t_uint256": {
        "encoding": "inplace",
        "label": "uint256",
        "numberOfBytes": "32"
      },
      "t_uint8": {
        "encoding": "inplace",
        "label": "uint8",
        "numberOfBytes": "1"
      }
    }
  }
}