{
  "address": "0x1c229165Ba6B07eB19662b66345D90389e323E2B",
  "abi": [
    {
      "inputs": [],
      "name": "AlreadyPaused",
      "type": "error"
    },
    {
      "inputs": [],
      "name": "AssetDebtLimit",
      "type": "error"
    },
    {
      "inputs": [],
      "name": "BadAccessControlSingleton",
      "type": "error"
    },
    {
      "inputs": [],
      "name": "LiquidationIsTriggered",
      "type": "error"
    },
    {
      "inputs": [],
      "name": "NotPaused",
      "type": "error"
    },
    {
      "inputs": [],
      "name": "OnlyAdminError",
      "type": "error"
    },
    {
      "inputs": [],
      "name": "OnlyAlerterError",
      "type": "error"
    },
    {
      "inputs": [],
      "name": "OnlyDAOError",
      "type": "error"
    },
    {
      "inputs": [],
      "name": "OnlyLiquidationAccessError",
      "type": "error"
    },
    {
      "inputs": [],
      "name": "OnlyMintAccessError",
      "type": "error"
    },
    {
      "inputs": [],
      "name": "OnlyRewardAccessError",
      "type": "error"
    },
    {
      "inputs": [],
      "name": "OnlyRoleError",
      "type": "error"
    },
    {
      "inputs": [],
      "name": "OnlyVaultAccessError",
      "type": "error"
    },
    {
      "inputs": [],
      "name": "Restricted",
      "type": "error"
    },
    {
      "inputs": [],
      "name": "UselessTransaction",
      "type": "error"
    },
    {
      "inputs": [],
      "name": "WithdrawExceeded",
      "type": "error"
    },
    {
      "inputs": [],
      "name": "WrongDebt",
      "type": "error"
    },
    {
      "inputs": [],
      "name": "WrongTotalDebt",
      "type": "error"
    },
    {
      "inputs": [],
      "name": "ZeroAddress",
      "type": "error"
    },
    {
      "anonymous": false,
      "inputs": [
        {
          "indexed": false,
          "internalType": "uint8",
          "name": "version",
          "type": "uint8"
        }
      ],
      "name": "Initialized",
      "type": "event"
    },
    {
      "anonymous": false,
      "inputs": [
        {
          "indexed": true,
          "internalType": "address",
          "name": "asset",
          "type": "address"
        },
        {
          "indexed": true,
          "internalType": "address",
          "name": "owner",
          "type": "address"
        }
      ],
      "name": "LiquidationTriggered",
      "type": "event"
    },
    {
      "anonymous": false,
      "inputs": [
        {
          "indexed": false,
          "internalType": "address",
          "name": "asset",
          "type": "address"
        },
        {
          "indexed": false,
          "internalType": "address",
          "name": "owner",
          "type": "address"
        },
        {
          "indexed": false,
          "internalType": "address",
          "name": "repayer",
          "type": "address"
        },
        {
          "indexed": false,
          "internalType": "uint256",
          "name": "assetAmountEDecimal",
          "type": "uint256"
        },
        {
          "indexed": false,
          "internalType": "uint256",
          "name": "repaymentE18",
          "type": "uint256"
        }
      ],
      "name": "PositionLiquidated",
      "type": "event"
    },
    {
      "anonymous": false,
      "inputs": [
        {
          "indexed": false,
          "internalType": "address",
          "name": "asset",
          "type": "address"
        },
        {
          "indexed": false,
          "internalType": "address",
          "name": "owner",
          "type": "address"
        },
        {
          "indexed": false,
          "internalType": "address",
          "name": "repayer",
          "type": "address"
        },
        {
          "indexed": false,
          "internalType": "uint256",
          "name": "assetAmountEDecimal",
          "type": "uint256"
        },
        {
          "indexed": false,
          "internalType": "uint256",
          "name": "repaymentE18",
          "type": "uint256"
        }
      ],
      "name": "PositionLiquidatedPartial",
      "type": "event"
    },
    {
      "anonymous": false,
      "inputs": [
        {
          "indexed": false,
          "internalType": "address",
          "name": "repayer",
          "type": "address"
        },
        {
          "indexed": false,
          "internalType": "uint256",
          "name": "repaymentE18",
          "type": "uint256"
        },
        {
          "indexed": false,
          "internalType": "uint256",
          "name": "excessAndFeeE18",
          "type": "uint256"
        }
      ],
      "name": "PositionRepaid",
      "type": "event"
    },
    {
      "inputs": [],
      "name": "ACCESS_CONTROL_SINGLETON",
      "outputs": [
        {
          "internalType": "contract ISuAccessControl",
          "name": "",
          "type": "address"
        }
      ],
      "stateMutability": "view",
      "type": "function"
    },
    {
      "inputs": [],
      "name": "ADMIN_ROLE",
      "outputs": [
        {
          "internalType": "bytes32",
          "name": "",
          "type": "bytes32"
        }
      ],
      "stateMutability": "view",
      "type": "function"
    },
    {
      "inputs": [],
      "name": "ALERTER_ROLE",
      "outputs": [
        {
          "internalType": "bytes32",
          "name": "",
          "type": "bytes32"
        }
      ],
      "stateMutability": "view",
      "type": "function"
    },
    {
      "inputs": [],
      "name": "DAO_ROLE",
      "outputs": [
        {
          "internalType": "bytes32",
          "name": "",
          "type": "bytes32"
        }
      ],
      "stateMutability": "view",
      "type": "function"
    },
    {
      "inputs": [],
      "name": "LIQUIDATION_ACCESS_ROLE",
      "outputs": [
        {
          "internalType": "bytes32",
          "name": "",
          "type": "bytes32"
        }
      ],
      "stateMutability": "view",
      "type": "function"
    },
    {
      "inputs": [],
      "name": "MINT_ACCESS_ROLE",
      "outputs": [
        {
          "internalType": "bytes32",
          "name": "",
          "type": "bytes32"
        }
      ],
      "stateMutability": "view",
      "type": "function"
    },
    {
      "inputs": [],
      "name": "REWARD_ACCESS_ROLE",
      "outputs": [
        {
          "internalType": "bytes32",
          "name": "",
          "type": "bytes32"
        }
      ],
      "stateMutability": "view",
      "type": "function"
    },
    {
      "inputs": [],
      "name": "STABLE_PRO",
      "outputs": [
        {
          "internalType": "contract StablePro",
          "name": "",
          "type": "address"
        }
      ],
      "stateMutability": "view",
      "type": "function"
    },
    {
      "inputs": [],
      "name": "VAULT_ACCESS_ROLE",
      "outputs": [
        {
          "internalType": "bytes32",
          "name": "",
          "type": "bytes32"
        }
      ],
      "stateMutability": "view",
      "type": "function"
    },
    {
      "inputs": [
        {
          "internalType": "address",
          "name": "asset",
          "type": "address"
        },
        {
          "internalType": "address",
          "name": "user",
          "type": "address"
        },
        {
          "internalType": "uint256",
          "name": "amountE18",
          "type": "uint256"
        },
        {
          "internalType": "uint256",
          "name": "lockupPeriodSeconds",
          "type": "uint256"
        }
      ],
      "name": "borrow",
      "outputs": [],
      "stateMutability": "nonpayable",
      "type": "function"
    },
    {
      "inputs": [
        {
          "internalType": "address",
          "name": "asset",
          "type": "address"
        },
        {
          "internalType": "address",
          "name": "user",
          "type": "address"
        },
        {
          "internalType": "uint256",
          "name": "amountE18",
          "type": "uint256"
        }
      ],
      "name": "calculateFeeE18",
      "outputs": [
        {
          "internalType": "uint256",
          "name": "",
          "type": "uint256"
        }
      ],
      "stateMutability": "view",
      "type": "function"
    },
    {
      "inputs": [
        {
          "internalType": "address",
          "name": "",
          "type": "address"
        },
        {
          "internalType": "address",
          "name": "",
          "type": "address"
        }
      ],
      "name": "collateralsEDecimal",
      "outputs": [
        {
          "internalType": "uint256",
          "name": "",
          "type": "uint256"
        }
      ],
      "stateMutability": "view",
      "type": "function"
    },
    {
      "inputs": [
        {
          "internalType": "address",
          "name": "",
          "type": "address"
        },
        {
          "internalType": "address",
          "name": "",
          "type": "address"
        }
      ],
      "name": "debtWithFeesE18",
      "outputs": [
        {
          "internalType": "uint256",
          "name": "",
          "type": "uint256"
        }
      ],
      "stateMutability": "view",
      "type": "function"
    },
    {
      "inputs": [
        {
          "internalType": "address",
          "name": "",
          "type": "address"
        },
        {
          "internalType": "address",
          "name": "",
          "type": "address"
        }
      ],
      "name": "debtsE18",
      "outputs": [
        {
          "internalType": "uint256",
          "name": "",
          "type": "uint256"
        }
      ],
      "stateMutability": "view",
      "type": "function"
    },
    {
      "inputs": [
        {
          "internalType": "address",
          "name": "asset",
          "type": "address"
        },
        {
          "internalType": "address",
          "name": "user",
          "type": "address"
        },
        {
          "internalType": "uint256",
          "name": "amountEDecimal",
          "type": "uint256"
        }
      ],
      "name": "deposit",
      "outputs": [],
      "stateMutability": "nonpayable",
      "type": "function"
    },
    {
      "inputs": [
        {
          "internalType": "address",
          "name": "asset",
          "type": "address"
        },
        {
          "internalType": "address",
          "name": "user",
          "type": "address"
        }
      ],
      "name": "destroy",
      "outputs": [],
      "stateMutability": "nonpayable",
      "type": "function"
    },
    {
      "inputs": [
        {
          "internalType": "address",
          "name": "asset",
          "type": "address"
        },
        {
          "internalType": "address",
          "name": "user",
          "type": "address"
        },
        {
          "internalType": "uint256",
          "name": "amountEDecimal",
          "type": "uint256"
        }
      ],
      "name": "emergencyWithdraw",
      "outputs": [],
      "stateMutability": "nonpayable",
      "type": "function"
    },
    {
      "inputs": [],
      "name": "foundation",
      "outputs": [
        {
          "internalType": "address",
          "name": "",
          "type": "address"
        }
      ],
      "stateMutability": "view",
      "type": "function"
    },
    {
      "inputs": [
        {
          "internalType": "address",
          "name": "asset",
          "type": "address"
        },
        {
          "internalType": "address",
          "name": "user",
          "type": "address"
        }
      ],
      "name": "getTotalDebtE18",
      "outputs": [
        {
          "internalType": "uint256",
          "name": "",
          "type": "uint256"
        }
      ],
      "stateMutability": "view",
      "type": "function"
    },
    {
      "inputs": [
        {
          "internalType": "address",
          "name": "_authControl",
          "type": "address"
        },
        {
          "internalType": "address",
          "name": "_stablePro",
          "type": "address"
        },
        {
          "internalType": "address",
          "name": "_foundation",
          "type": "address"
        },
        {
          "internalType": "address",
          "name": "_rewardChef",
          "type": "address"
        },
        {
          "internalType": "address",
          "name": "_suPausable",
          "type": "address"
        }
      ],
      "name": "initialize",
      "outputs": [],
      "stateMutability": "nonpayable",
      "type": "function"
    },
    {
      "inputs": [
        {
          "internalType": "address",
          "name": "",
          "type": "address"
        },
        {
          "internalType": "address",
          "name": "",
          "type": "address"
        }
      ],
      "name": "lastUpdate",
      "outputs": [
        {
          "internalType": "uint256",
          "name": "",
          "type": "uint256"
        }
      ],
      "stateMutability": "view",
      "type": "function"
    },
    {
      "inputs": [
        {
          "internalType": "address",
          "name": "asset",
          "type": "address"
        },
        {
          "internalType": "address",
          "name": "user",
          "type": "address"
        },
        {
          "internalType": "address",
          "name": "recipient",
          "type": "address"
        },
        {
          "internalType": "uint256",
          "name": "assetAmountEDecimal",
          "type": "uint256"
        },
        {
          "internalType": "uint256",
          "name": "stablecoinAmountE18",
          "type": "uint256"
        }
      ],
      "name": "liquidate",
      "outputs": [],
      "stateMutability": "nonpayable",
      "type": "function"
    },
    {
      "inputs": [
        {
          "internalType": "address",
          "name": "",
          "type": "address"
        },
        {
          "internalType": "address",
          "name": "",
          "type": "address"
        }
      ],
      "name": "liquidationBlock",
      "outputs": [
        {
          "internalType": "uint256",
          "name": "",
          "type": "uint256"
        }
      ],
      "stateMutability": "view",
      "type": "function"
    },
    {
      "inputs": [
        {
          "internalType": "address",
          "name": "repayer",
          "type": "address"
        },
        {
          "internalType": "uint256",
          "name": "stablecoinsToRepaymentE18",
          "type": "uint256"
        },
        {
          "internalType": "uint256",
          "name": "stablecoinsToFoundationE18",
          "type": "uint256"
        }
      ],
      "name": "payFeeAndBurn",
      "outputs": [],
      "stateMutability": "nonpayable",
      "type": "function"
    },
    {
      "inputs": [
        {
          "internalType": "address",
          "name": "",
          "type": "address"
        }
      ],
      "name": "protocolStabilityFeeE18",
      "outputs": [
        {
          "internalType": "uint256",
          "name": "",
          "type": "uint256"
        }
      ],
      "stateMutability": "view",
      "type": "function"
    },
    {
      "inputs": [],
      "name": "rewardChef",
      "outputs": [
        {
          "internalType": "contract RewardChefV2",
          "name": "",
          "type": "address"
        }
      ],
      "stateMutability": "view",
      "type": "function"
    },
    {
      "inputs": [
        {
          "internalType": "address",
          "name": "asset",
          "type": "address"
        },
        {
          "internalType": "uint256",
          "name": "stabilityFeeValueE18",
          "type": "uint256"
        },
        {
          "internalType": "uint256",
          "name": "stablecoinLimitE18",
          "type": "uint256"
        }
      ],
      "name": "setCollateral",
      "outputs": [],
      "stateMutability": "nonpayable",
      "type": "function"
    },
    {
      "inputs": [
        {
          "internalType": "address",
          "name": "newFoundation",
          "type": "address"
        }
      ],
      "name": "setFoundation",
      "outputs": [],
      "stateMutability": "nonpayable",
      "type": "function"
    },
    {
      "inputs": [
        {
          "internalType": "address",
          "name": "_rewardChef",
          "type": "address"
        }
      ],
      "name": "setRewardChef",
      "outputs": [],
      "stateMutability": "nonpayable",
      "type": "function"
    },
    {
      "inputs": [
        {
          "internalType": "address",
          "name": "asset",
          "type": "address"
        },
        {
          "internalType": "uint256",
          "name": "newValue",
          "type": "uint256"
        }
      ],
      "name": "setStabilityFeeE18",
      "outputs": [],
      "stateMutability": "nonpayable",
      "type": "function"
    },
    {
      "inputs": [
        {
          "internalType": "address",
          "name": "asset",
          "type": "address"
        },
        {
          "internalType": "uint256",
          "name": "limit",
          "type": "uint256"
        }
      ],
      "name": "setTokenDebtLimitE18",
      "outputs": [],
      "stateMutability": "nonpayable",
      "type": "function"
    },
    {
      "inputs": [
        {
          "internalType": "address",
          "name": "",
          "type": "address"
        },
        {
          "internalType": "address",
          "name": "",
          "type": "address"
        }
      ],
      "name": "stabilityFeeE18",
      "outputs": [
        {
          "internalType": "uint256",
          "name": "",
          "type": "uint256"
        }
      ],
      "stateMutability": "view",
      "type": "function"
    },
    {
      "inputs": [
        {
          "internalType": "bytes4",
          "name": "interfaceId",
          "type": "bytes4"
        }
      ],
      "name": "supportsInterface",
      "outputs": [
        {
          "internalType": "bool",
          "name": "",
          "type": "bool"
        }
      ],
      "stateMutability": "view",
      "type": "function"
    },
    {
      "inputs": [
        {
          "internalType": "address",
          "name": "",
          "type": "address"
        }
      ],
      "name": "tokenDebtLimitE18",
      "outputs": [
        {
          "internalType": "uint256",
          "name": "",
          "type": "uint256"
        }
      ],
      "stateMutability": "view",
      "type": "function"
    },
    {
      "inputs": [
        {
          "internalType": "address",
          "name": "",
          "type": "address"
        }
      ],
      "name": "tokenDebtsE18",
      "outputs": [
        {
          "internalType": "uint256",
          "name": "",
          "type": "uint256"
        }
      ],
      "stateMutability": "view",
      "type": "function"
    },
    {
      "inputs": [
        {
          "internalType": "address",
          "name": "",
          "type": "address"
        }
      ],
      "name": "tokenDebtsWithFeesE18",
      "outputs": [
        {
          "internalType": "uint256",
          "name": "",
          "type": "uint256"
        }
      ],
      "stateMutability": "view",
      "type": "function"
    },
    {
      "inputs": [
        {
          "internalType": "address",
          "name": "asset",
          "type": "address"
        },
        {
          "internalType": "address",
          "name": "positionOwner",
          "type": "address"
        }
      ],
      "name": "triggerLiquidation",
      "outputs": [],
      "stateMutability": "nonpayable",
      "type": "function"
    },
    {
      "inputs": [
        {
          "internalType": "address",
          "name": "asset",
          "type": "address"
        },
        {
          "internalType": "address",
          "name": "user",
          "type": "address"
        }
      ],
      "name": "update",
      "outputs": [],
      "stateMutability": "nonpayable",
      "type": "function"
    },
    {
      "inputs": [],
      "name": "vault",
      "outputs": [
        {
          "internalType": "address",
          "name": "",
          "type": "address"
        }
      ],
      "stateMutability": "view",
      "type": "function"
    },
    {
      "inputs": [
        {
          "internalType": "address",
          "name": "asset",
          "type": "address"
        },
        {
          "internalType": "address",
          "name": "user",
          "type": "address"
        },
        {
          "internalType": "address",
          "name": "recipient",
          "type": "address"
        },
        {
          "internalType": "uint256",
          "name": "amountEDecimal",
          "type": "uint256"
        }
      ],
      "name": "withdraw",
      "outputs": [],
      "stateMutability": "nonpayable",
      "type": "function"
    },
    {
      "stateMutability": "payable",
      "type": "receive"
    }
  ],
  "numDeployments": 1,
  "solcInputHash": "6bdb767f00e3f0fe0de7c63e7a48801d",
  "bytecode": "0x608080604052346100165761292a908161001c8239f35b600080fdfe608080604052600436101561002d575b50361561001b57600080fd5b60405163ccc0891360e01b8152600490fd5b600090813560e01c90816301ffc9a7146122de5750806303ee9f22146122b35780630b620b81146121425780630fc9d694146120f75780631459457a14611e9c57806314c376dc14611e735780631ce4b4a714611e285780632754891e14611def5780632a43734e14611d4b57806334c188b014611d3157806334e3b77914611ce657806341fbb05014611cbd578063438280dd14611c82578063477e9c6a14611bdf578063628a468314611ab257806362b40f9f146119745780636f70e66f1461123357806371d0fb41146111f857806374befebc146111bf57806375b238fc146111a3578063815753711461117a5780638340f5491461103857806388ad7a6114610fe95780638e5313e014610fae578063965f5cfd14610f755780639fea3e0714610e2a578063a6ea8b8714610df5578063c640752d14610c55578063c9bc438414610c2c578063d4796d1214610ad5578063d5dc24ba14610a86578063d6ff0b3114610a4d578063db3543f51461097b578063dc97e84e14610940578063e63ea408146107aa578063e9c2651814610781578063ec69678a146106d3578063f084843d14610684578063fbf37739146102195763fbfa77cf0361000f57346102165780600319360112610216576004546040516001600160a01b039091168152602090f35b80fd5b50346102165760803660031901126102165761023361236d565b61023b612388565b906044359060018060a01b0380855460101c1690604051632474521560e21b938482526000805160206128d5833981519152948560048401523360248401526020928381604481895afa908115610679578a9161065c575b50156105f95783821695868a52600e845260408a2095858a16968760005285526040600020546105e757856005541692604051928c635b14f18360e01b948581528b600482015288816024818a5afa9182156106505791610633575b5061059d57604487926040519485938492835260048301523360248301525afa908115610628578b9161060b575b50156105f957868a52600e845260408a208660005284526040600020546105e757839060246040518094819382528a60048301525afa9081156105dc5789916105af575b5061059d578661037091612797565b848852600a82526103a28161039d60408b20546008865260408c2088600052865260406000205490612477565b61249a565b858952600a835260408920556008825260408820846000528252604060002055838752600181526040872054600c825260408820846000528252604060002055838752600d81526040872083600052815242604060002055838752600981526040872083600052815261041a8560406000205461249a565b848852600982526040882084600052825260406000205583875260088152604087208360005281526104518560406000205461249a565b8488526008825260408820846000528252604060002055838752600b815261047d85604089205461249a565b848852600b82526040882055600a815261049b85604089205461249a565b848852600a8252604088205560026040882054915260408720541061058b5785948160065416803b15610587578587916104ec93836040518096819582946340c10f1960e01b845260048401612722565b03925af190811561057c578691610568575b5050600f5416803b15610564578492836084926040519687958694633deffa8b60e21b865260048601526024850152604484015260643560648401525af18015610559576105495750f35b61055290612413565b6102165780f35b6040513d84823e3d90fd5b8480fd5b61057190612413565b6105645784386104fe565b6040513d88823e3d90fd5b8680fd5b604051632cd29bf960e21b8152600490fd5b604051631785c68160e01b8152600490fd5b6105cf9150833d85116105d5575b6105c7818361243c565b81019061245f565b38610361565b503d6105bd565b6040513d8b823e3d90fd5b60405163fa5af4cd60e01b8152600490fd5b604051635692bcb560e11b8152600490fd5b6106229150853d87116105d5576105c7818361243c565b3861031d565b6040513d8d823e3d90fd5b61064a9150883d8a116105d5576105c7818361243c565b386102ef565b604051903d90823e3d90fd5b6106739150843d86116105d5576105c7818361243c565b38610293565b6040513d8c823e3d90fd5b50346102165760403660031901126102165761069e61236d565b60406106a8612388565b9260018060a01b03809316815260086020522091166000526020526020604060002054604051908152f35b5034610216576040366003190112610216576106ed61236d565b8154604051632474521560e21b81526000805160206128d583398151915260048201523360248201526001600160a01b0392916020908290604490829060101c87165afa908115610776578491610758575b50156105f9571681526001602052602435604082205580f35b610770915060203d81116105d5576105c7818361243c565b3861073f565b6040513d86823e3d90fd5b503461021657806003193601126102165760206040516000805160206128b58339815191528152f35b5034610216576107b9366123b4565b909160018060a01b0380855460101c166040518091632474521560e21b82526000805160206128d5833981519152600483015233602483015281604460209485935afa908115610918578791610923575b50156105f9578181816005541694602460405180948193635b14f18360e01b835216978860048301525afa9081156109185787916108fb575b5061059d578286526007815260408620938286169485600052825260406000205481116108e95786956108ae92858852600781526040882087600052815261089083604060002054612477565b9086895260078152604089209088600052526040600020558461273d565b600f541691823b156108e4576044849283604051958694859363cf4f68d560e01b8552600485015260248401525af16105495750f35b505050fd5b604051633b6bb76f60e01b8152600490fd5b6109129150823d84116105d5576105c7818361243c565b38610843565b6040513d89823e3d90fd5b61093a9150823d84116105d5576105c7818361243c565b3861080a565b503461021657806003193601126102165760206040517f9a9aef7c1247d5fc769b0185c052913e39673da29a880317dfd20ebf86f26a498152f35b50346102165760203660031901126102165761099561236d565b8154604051632474521560e21b81526000805160206128b583398151915260048201523360248201526001600160a01b0392916020908290604490829060101c87165afa908115610776578491610a2f575b5015610a1d57168015610a0b57600380546001600160a01b03191691909117905580f35b60405163d92e233d60e01b8152600490fd5b60405163599a6c3360e11b8152600490fd5b610a47915060203d81116105d5576105c7818361243c565b386109e7565b5034610216576020366003190112610216576020906040906001600160a01b03610a7561236d565b168152600283522054604051908152f35b503461021657604036600319011261021657610aa061236d565b6040610aaa612388565b9260018060a01b03809316815260096020522091166000526020526020604060002054604051908152f35b503461021657604036600319011261021657610aef61236d565b610af7612388565b8254604051632474521560e21b81526000805160206128d5833981519152600482015233602482015291926020926001600160a01b039284908290604490829060101c87165afa90811561057c578691610c0f575b50156105f957811690818552600e835280604086209416938460005283526040600020546105e757826024916005541660405192838092635b14f18360e01b82528660048301525afa908115610c04578591610be7575b5061059d5782817f5b79a897d30813a62a1f95ba180d3320d3701d96605708b81105e00719a069e48680a38352600e81526040832091600052524360406000205580f35b610bfe9150833d85116105d5576105c7818361243c565b38610ba3565b6040513d87823e3d90fd5b610c269150843d86116105d5576105c7818361243c565b38610b4c565b5034610216578060031936011261021657600f546040516001600160a01b039091168152602090f35b503461021657604036600319011261021657610c6f61236d565b610c77612388565b8254604051632474521560e21b81526000805160206128d583398151915260048201523360248201526001600160a01b03936020939290919084908290604490829060101c89165afa90811561057c578691610dd8575b50156105f95783811691828652600e84526040862094808216958660005285526040600020546105e757846024916005541660405192838092635b14f18360e01b82528860048301525afa908115610918578791610dbb575b5061059d57610d3591612797565b818552600a8352610d628161039d6040882054600887526040892088600052875260406000205490612477565b828652600a845260408620556008835260408520846000528352604060002055808452600182526040842054600c8352604085208460005283526040600020558352600d81526040832091600052524260406000205580f35b610dd29150853d87116105d5576105c7818361243c565b38610d27565b610def9150843d86116105d5576105c7818361243c565b38610cce565b5034610216576040366003190112610216576020610e22610e1461236d565b610e1c612388565b90612797565b604051908152f35b503461021657610e39366123e9565b8354604051632474521560e21b8082526000805160206128d583398151915260048301819052336024840152939560209491936001600160a01b039360109190911c8416908681604481855afa908115610679578a91610f58575b50156105f95785604491604051928380928982528760048301523360248301525afa9081156105dc578991610f3b575b50156105f9578285936044921696878a526001855260408a2055885460101c16936040519485938492835260048301523360248301525afa908115610c04578591610f1e575b50156105f957600291845252604082205580f35b610f359150823d84116105d5576105c7818361243c565b38610f0a565b610f529150863d88116105d5576105c7818361243c565b38610ec4565b610f6f9150873d89116105d5576105c7818361243c565b38610e94565b5034610216576020366003190112610216576020906040906001600160a01b03610f9d61236d565b168152600183522054604051908152f35b503461021657806003193601126102165760206040517fe453bacb314e78dcd5192e6b1a2b1f0e7c76e92f6b7e429a6a90f04e39db3b768152f35b50346102165760403660031901126102165761100361236d565b604061100d612388565b9260018060a01b038093168152600d6020522091166000526020526020604060002054604051908152f35b503461021657611047366123b4565b8354604051632474521560e21b81526000805160206128d5833981519152600482015233602482015291936001600160a01b0393602093909284908290604490829060101c89165afa90811561091857879161115d575b50156105f957831693848652600e83526040862093808316948560005284526040600020546105e757836024916005541660405192838092635b14f18360e01b82528a60048301525afa908115610918578791611140575b5061059d5761110b81611127933090886124c9565b848652600783526040862084600052835260406000205461249a565b9284526007815260408420916000525260406000205580f35b6111579150843d86116105d5576105c7818361243c565b386110f6565b6111749150843d86116105d5576105c7818361243c565b3861109e565b50346102165780600319360112610216576006546040516001600160a01b039091168152602090f35b5034610216578060031936011261021657602090604051908152f35b5034610216576020366003190112610216576020906040906001600160a01b036111e761236d565b168152600b83522054604051908152f35b503461021657806003193601126102165760206040517f880a91047114272656e533301261260c75e4d11543ac7303d6fe4204579ec7278152f35b50346102165760a03660031901126102165761124d61236d565b611255612388565b9061125e61239e565b8354604051632474521560e21b81526000805160206128d5833981519152600482015233602482015260109190911c6001600160a01b031690602081604481855afa90811561057c578691611955575b50156105f957600554604051635b14f18360e01b81526001600160a01b038581166004830152909160209183916024918391165afa90811561057c578691611936575b5061059d576064351590818061192c575b61191a5760843561166a575b50156114e5575b6001600160a01b038281168552600860209081526040808720928616600081815293909252909120546114ab578454604051632474521560e21b81526000805160206128d58339815191526004820152336024820152906020908290604490829060101c6001600160a01b03165afa90811561057c57869161148c575b50156105f957600554604051635b14f18360e01b81526001600160a01b038581166004830152909160209183916024918391165afa90811561057c57869161146d575b5061059d576001600160a01b038316808652600c602090815260408088206000858152908352818120899055838952600d83528189208582528352818120899055928852600e8252808820938352929052819020859055517faaa3e6a935674cc172e60bf40d5e74691d4b2192405f3843f12ac33dacadb73d9390928392611467926084359260643592919086612764565b0390a180f35b611486915060203d6020116105d5576105c7818361243c565b386113d5565b6114a5915060203d6020116105d5576105c7818361243c565b38611392565b506114677f1aa32b453741aadaad9ed1a4be10676ce1cf45e4843cc4aa25e5fd969fc2514f93604051938493608435926064359286612764565b8354604051632474521560e21b81526000805160206128d58339815191526004820152336024820152906020908290604490829060101c6001600160a01b03165afa908115610c0457859161164b575b50156105f957600554604051635b14f18360e01b81526001600160a01b038481166004830152909160209183916024918391165afa908115610c0457859161162c575b5061059d576001600160a01b038281168552600760209081526040808720928616600090815292909152902054606435116108e95760018060a01b038216845260076020526040842060018060a01b0384166000526020526115e1606435604060002054612477565b6001600160a01b0383811686526007602090815260408088208784166000908152925290209190915581161561131557611627606435826001600160a01b03851661273d565b611315565b611645915060203d6020116105d5576105c7818361243c565b38611578565b611664915060203d6020116105d5576105c7818361243c565b38611535565b602060449160405192838092632474521560e21b82526000805160206128d583398151915260048301523360248301525afa90811561057c5786916118fb575b50156105f9576001600160a01b03838116865260086020908152604080882092871660008181529390925290912054608435116118e9576001600160a01b0384168652600a6020526040862054608435116118d7576001600160a01b03841686526009602090815260408088206000848152925290205486919060843511156118d05760018060a01b038516825260096020526040822081600052602052611759604060002054608435612477565b905b60018060a01b038616835260086020526040832081600052602052611787608435604060002054612477565b60018060a01b03871684526008602052604084208260005260205260406000205560018060a01b0386168352600960205260408320816000526020526117dd6084356117d88460406000205461249a565b612477565b6001600160a01b0387168085526009602090815260408087206000958652825293849020929092558452600a905282205461181b9060843590612477565b60018060a01b0386168352600a6020526040832055600b6020526118496084356117d883604086205461249a565b6001600160a01b038681168452600b6020526040842091909155600f54169061187490608435612477565b90803b156118cc57604051636aed34f760e01b815291839183918290849082906118a3908d8d600485016124a7565b03925af18015610559576118b8575b5061130e565b6118c190612413565b6105645784386118b2565b8280fd5b819061175b565b604051634bf0a71560e11b8152600490fd5b6040516371fa0fd760e01b8152600490fd5b611914915060203d6020116105d5576105c7818361243c565b386116aa565b60405163fa95696160e01b8152600490fd5b5060843515611302565b61194f915060203d6020116105d5576105c7818361243c565b386112f1565b61196e915060203d6020116105d5576105c7818361243c565b386112ae565b50346102165760403660031901126102165761198e61236d565b611996612388565b8254604051632474521560e21b81526000805160206128d58339815191526004820152336024820152919260209290916001600160a01b03919084908290604490829060101c86165afa90811561057c578691611a95575b50156105f9578083816005541693602460405180948193635b14f18360e01b835216968760048301525afa90811561057c578691611a78575b5061059d57818552600c83526040852093169283600052825283604060002055808452600d825260408420836000528252836040600020558352600e81526040832091600052528060406000205580f35b611a8f9150843d86116105d5576105c7818361243c565b38611a27565b611aac9150843d86116105d5576105c7818361243c565b386119ee565b503461021657611ac1366123e9565b8354604051632474521560e21b81526000805160206128d583398151915260048201523360248201529192916001600160a01b03916020908290604490829060101c86165afa90811561057c578691611bc1575b50156105f95784927ffd2eefe030edeab1f0352cd450d7c7e0ffb83cbf33faf97cf068d11974a5e1f160606040518488168152856020820152836040820152a180611ba6575b5060065416803b156118cc57611b889383604051809681958294632770a7eb60e21b845260048401612722565b03925af1801561055957611b9a575080f35b611ba390612413565b80f35b611bbb908260065416868460035416916124c9565b38611b5b565b611bd9915060203d81116105d5576105c7818361243c565b38611b15565b503461021657604036600319011261021657611bf961236d565b8154604051632474521560e21b81526000805160206128d583398151915260048201523360248201526001600160a01b0392916020908290604490829060101c87165afa908115610776578491611c64575b50156105f9571681526002602052602435604082205580f35b611c7c915060203d81116105d5576105c7818361243c565b38611c4b565b503461021657806003193601126102165760206040517f39f61ca2a1a28fee144218173ec637b649a353e4026b2738c673800e5bf1437b8152f35b50346102165780600319360112610216576003546040516001600160a01b039091168152602090f35b5034610216576040366003190112610216576040602091611d0561236d565b611d0d612388565b6001600160a01b039182168352600785528383209116825283522054604051908152f35b5034610216576020610e22611d45366123b4565b916127e9565b503461021657602036600319011261021657611d6561236d565b8154604051632474521560e21b81526000805160206128d583398151915260048201523360248201526001600160a01b0392916020908290604490829060101c87165afa908115610776578491611dd1575b50156105f9571660018060a01b0319600f541617600f5580f35b611de9915060203d81116105d5576105c7818361243c565b38611db7565b5034610216576020366003190112610216576020906040906001600160a01b03611e1761236d565b168152600a83522054604051908152f35b5034610216576040366003190112610216576040602091611e4761236d565b611e4f612388565b6001600160a01b039182168352600e85528383209116825283522054604051908152f35b503461021657806003193601126102165760206040516000805160206128d58339815191528152f35b50346102165760a036600319011261021657611eb661236d565b611ebe612388565b611ec661239e565b6001600160a01b03919060643583811691908290036120f357608435938085168095036105875786549360ff8560081c1615948580966120e6575b80156120cf575b156120735760ff198116600117895585612062575b5087549560ff8760081c16611f3181612854565b30158015612058575b610a0b57611f4790612854565b62010000600160b01b03601089901b1662010000600160b01b0319881681178a556040516301ffc9a760e01b8152637965db0b60e01b600482015290986020908290602490829088165afa908115610679578a9161203a575b5015612028578260018060a01b031994308660045416176004551684600354161760035583600554161760055516816006541617600655600f541617600f55611fe7578280f35b610100600160b01b031916178155604051600181527f7f26b83ff96e1f2b6a682f133852f6798a09c465da95921460cefb384740249890602090a138808280f35b6040516384d942fd60e01b8152600490fd5b612052915060203d81116105d5576105c7818361243c565b38611fa0565b5083851615611f3a565b61ffff191661010117885538611f1d565b60405162461bcd60e51b815260206004820152602e60248201527f496e697469616c697a61626c653a20636f6e747261637420697320616c72656160448201526d191e481a5b9a5d1a585b1a5e995960921b6064820152608490fd5b50303b158015611f085750600160ff821614611f08565b50600160ff821610611f01565b8580fd5b503461021657604036600319011261021657604060209161211661236d565b61211e612388565b6001600160a01b039182168352600c85528383209116825283522054604051908152f35b50346102165760803660031901126102165761215c61236d565b612164612388565b61216c61239e565b8354604051632474521560e21b81526000805160206128d58339815191526004820152336024820152606435936001600160a01b03926020929083908290604490829060101c88165afa90811561228b578891612296575b50156105f9578282816005541697602460405180948193635b14f18360e01b8352169a8b60048301525afa90811561228b57889161226e575b5061059d578587526007825282604088209116908188528252604087205485116108e9578587526007825260408720818852825261223f856040892054612477565b918688526007815260408820918852526040862055811661225e578380f35b6122679261273d565b3880808380f35b6122859150833d85116105d5576105c7818361243c565b386121fd565b6040513d8a823e3d90fd5b6122ad9150833d85116105d5576105c7818361243c565b386121c4565b50346102165780600319360112610216575460405160109190911c6001600160a01b03168152602090f35b9050346123695760203660031901126123695760043563ffffffff60e01b81168091036118cc5782546301ffc9a760e01b835260048301919091526020908290602490829060101c6001600160a01b03165afa908115610559576020929161234c575b506040519015158152f35b6123639150823d81116105d5576105c7818361243c565b38612341565b5080fd5b600435906001600160a01b038216820361238357565b600080fd5b602435906001600160a01b038216820361238357565b604435906001600160a01b038216820361238357565b6060906003190112612383576001600160a01b0390600435828116810361238357916024359081168103612383579060443590565b6060906003190112612383576004356001600160a01b038116810361238357906024359060443590565b6001600160401b03811161242657604052565b634e487b7160e01b600052604160045260246000fd5b601f909101601f19168101906001600160401b0382119082101761242657604052565b90816020910312612383575180151581036123835790565b9190820391821161248457565b634e487b7160e01b600052601160045260246000fd5b9190820180921161248457565b6001600160a01b03918216815291166020820152604081019190915260600190565b906124ff906124f1612504956040519586936323b872dd60e01b6020860152602485016124a7565b03601f19810184528361243c565b612506565b565b604080516001600160401b0394936001600160a01b03909316929091820185811183821017612426576040526020928383527f5361666545524332303a206c6f772d6c6576656c2063616c6c206661696c6564848401526000808386829551910182855af1903d15612641573d96871161262d576125a59495966040519061259788601f19601f840116018361243c565b81528093873d92013e61264e565b805190828215928315612615575b505050156125be5750565b6084906040519062461bcd60e51b82526004820152602a60248201527f5361666545524332303a204552433230206f7065726174696f6e20646964206e6044820152691bdd081cdd58d8d9595960b21b6064820152fd5b612625935082018101910161245f565b3882816125b3565b634e487b7160e01b83526041600452602483fd5b91506125a5939495506060915b919290156126b05750815115612662575090565b3b1561266b5790565b60405162461bcd60e51b815260206004820152601d60248201527f416464726573733a2063616c6c20746f206e6f6e2d636f6e74726163740000006044820152606490fd5b8251909150156126c35750805190602001fd5b6040519062461bcd60e51b82528160208060048301528251908160248401526000935b828510612709575050604492506000838284010152601f80199101168101030190fd5b84810182015186860160440152938101938593506126e6565b6001600160a01b039091168152602081019190915260400190565b6124ff61250493926124f160405194859263a9059cbb60e01b602085015260248401612722565b6001600160a01b039182168152918116602083015290911660408201526060810191909152608081019190915260a00190565b906127cd6127d39260018060a01b03808216600052600860205260406000209084166000526020526040600020549283916127e9565b9061249a565b90565b8181029291811591840414171561248457565b670de0b6b3a76400009261284a6301e1338093612844604061284f9560018060a01b0380911693600091858352600c60205283832091169081835260205282822054948252600d602052828220908252602052205442612477565b926127d6565b6127d6565b040490565b1561285b57565b60405162461bcd60e51b815260206004820152602b60248201527f496e697469616c697a61626c653a20636f6e7472616374206973206e6f74206960448201526a6e697469616c697a696e6760a81b6064820152608490fdfe3b5d4cc60d3ec3516ee8ae083bd60934f6eb2a6c54b1229985c41bfb092b2603e965846df3dd5b1dfa65f58e31477079e90140e0908b6dd31b5aead5a57cf365a2646970667358221220a752258507c30a6b10ce2e266e9b8d25ac1a9ee5a8d4d8cb149e2f1039eb332164736f6c63430008110033",
  "devdoc": {
    "details": "See ISuVault interface and SuVaultParameters contract for full details.",
    "kind": "dev",
    "methods": {
      "destroy(address,address)": {
        "details": "onlyVaultAccess, exit -> _repay -> destroy if debt == 0*"
      },
      "payFeeAndBurn(address,uint256,uint256)": {
        "params": {
          "repayer": "The person who repaies by debt and transfers stablecoins to the foundation",
          "stablecoinsToFoundationE18": "The amount of stablecoins which will be transfered to the foundation(e.g fees)*",
          "stablecoinsToRepaymentE18": "The amount of stablecoins which will be burned as a debt repayment"
        }
      },
      "supportsInterface(bytes4)": {
        "details": "Returns true if this contract implements the interface defined by `interfaceId`. See the corresponding https://eips.ethereum.org/EIPS/eip-165#how-interfaces-are-identified[EIP section] to learn more about how these ids are created. This function call must use less than 30 000 gas."
      },
      "triggerLiquidation(address,address)": {
        "details": "Sets the current block as liquidationBlock for the position. Can be triggered only once for the position.*",
        "params": {
          "asset": "The address of the main collateral token of a position",
          "positionOwner": "The owner of a position"
        }
      },
      "update(address,address)": {
        "details": "is called, when user borrows more*"
      }
    },
    "title": "SuVault",
    "version": 1
  },
  "userdoc": {
    "events": {
      "LiquidationTriggered(address,address)": {
        "notice": "Event triggered when user didnt withdraw collateral before price goes down*"
      },
      "PositionLiquidated(address,address,address,uint256,uint256)": {
        "notice": "Event triggered when user destroys cdp*"
      },
      "PositionLiquidatedPartial(address,address,address,uint256,uint256)": {
        "notice": "Event triggered when user liquidate some part of cdp (debt > 0)*"
      },
      "PositionRepaid(address,uint256,uint256)": {
        "notice": "Event triggered when user call repay() function*"
      }
    },
    "kind": "user",
    "methods": {
      "borrow(address,address,uint256,uint256)": {
        "notice": "borrow usdPRO using selected asset. user expected previously to deposit collateral and then being able to take stablecoin user can't create single position with multiple collaterals?*"
      },
      "calculateFeeE18(address,address,uint256)": {
        "notice": "fee is increased with time. Any call of vault.update would calc fee in debt and restart fee timer*"
      },
      "collateralsEDecimal(address,address)": {
        "notice": "how much collateral the users staked == collaterals[asset][user], i.e deposits EDecimal means that this value in asset denomination, i.e. x{human readable value} * 10^{erc20.decimals()}*"
      },
      "debtWithFeesE18(address,address)": {
        "notice": "stablecoin amount + fee accumulated before lastUpdate == debtWithFeesE18[asset][user]*"
      },
      "debtsE18(address,address)": {
        "notice": "stablecoin amount*"
      },
      "deposit(address,address,uint256)": {
        "notice": "collateral deposit*"
      },
      "destroy(address,address)": {
        "notice": "only destroy debt info"
      },
      "emergencyWithdraw(address,address,uint256)": {
        "notice": "withdraw in case of some protocol errors, users can always get back their tokens*"
      },
      "getTotalDebtE18(address,address)": {
        "notice": "total dept is calculated as current debt with added calculated fee, don't use it in practice*"
      },
      "initialize(address,address,address,address,address)": {
        "notice": "vault is initialize with parameters for auth (we are using OZ instead) and it accept address for wrapped eth, main stable coin, and probably governance token*"
      },
      "lastUpdate(address,address)": {
        "notice": "the last time, when every fee before lastUpdates are calculated in the debt. All data such as fees are from lastUpdate only*"
      },
      "liquidationBlock(address,address)": {
        "notice": "asset => user => block number*"
      },
      "payFeeAndBurn(address,uint256,uint256)": {
        "notice": "Burns a debt repayment and transfers fees to the foundation."
      },
      "protocolStabilityFeeE18(address)": {
        "notice": "Stability fee that is used in calculateFeeE18 to see how much user debt increased. It can be different for each collateral*"
      },
      "setCollateral(address,uint256,uint256)": {
        "notice": "manager is allowed to add new collaterals and modify existing ones*"
      },
      "setFoundation(address)": {
        "notice": "manager is allowed to change foundation that receive fees and etc*"
      },
      "setStabilityFeeE18(address,uint256)": {
        "notice": "set fee percentage (1e18 = 100%)*"
      },
      "setTokenDebtLimitE18(address,uint256)": {
        "notice": "debt limit can be changed for any collateral along with liquidation and stability fees*"
      },
      "stabilityFeeE18(address,address)": {
        "notice": "current interest that user pay for stabilityFee[asset][user]*"
      },
      "tokenDebtLimitE18(address)": {
        "notice": "Limit for each collateral-asset to manage risk profile*"
      },
      "tokenDebtsE18(address)": {
        "notice": "Stats, how much stablecoins were borrowed against particular asset == tokenDebtsE18[asset]*"
      },
      "tokenDebtsWithFeesE18(address)": {
        "notice": "tokenDebtsE18[asset] + accumulated fee in all CDPs in this asset*"
      },
      "triggerLiquidation(address,address)": {
        "notice": "Marks a position as to be liquidated"
      },
      "update(address,address)": {
        "notice": "Update all main state vars position is not allowed to be modified during liquidation, because when it's launched - liquidators want to be sure they can participate"
      },
      "withdraw(address,address,address,uint256)": {
        "notice": "collateral withdraw*"
      }
    },
    "notice": "Users don't have direct access to it, only through SuManager",
    "version": 1
  },
  "storageLayout": {
    "storage": [
      {
        "astId": 671,
        "contract": "contracts/lending/SuVault.sol:SuVault",
        "label": "_initialized",
        "offset": 0,
        "slot": "0",
        "type": "t_uint8"
      },
      {
        "astId": 674,
        "contract": "contracts/lending/SuVault.sol:SuVault",
        "label": "_initializing",
        "offset": 1,
        "slot": "0",
        "type": "t_bool"
      },
      {
        "astId": 28586,
        "contract": "contracts/lending/SuVault.sol:SuVault",
        "label": "ACCESS_CONTROL_SINGLETON",
        "offset": 2,
        "slot": "0",
        "type": "t_contract(ISuAccessControl)32175"
      },
      {
        "astId": 26903,
        "contract": "contracts/lending/SuVault.sol:SuVault",
        "label": "protocolStabilityFeeE18",
        "offset": 0,
        "slot": "1",
        "type": "t_mapping(t_address,t_uint256)"
      },
      {
        "astId": 26907,
        "contract": "contracts/lending/SuVault.sol:SuVault",
        "label": "tokenDebtLimitE18",
        "offset": 0,
        "slot": "2",
        "type": "t_mapping(t_address,t_uint256)"
      },
      {
        "astId": 26909,
        "contract": "contracts/lending/SuVault.sol:SuVault",
        "label": "foundation",
        "offset": 0,
        "slot": "3",
        "type": "t_address"
      },
      {
        "astId": 26911,
        "contract": "contracts/lending/SuVault.sol:SuVault",
        "label": "vault",
        "offset": 0,
        "slot": "4",
        "type": "t_address"
      },
      {
        "astId": 17936,
        "contract": "contracts/lending/SuVault.sol:SuVault",
        "label": "suPausable",
        "offset": 0,
        "slot": "5",
        "type": "t_contract(ISuPausable)23716"
      },
      {
        "astId": 26050,
        "contract": "contracts/lending/SuVault.sol:SuVault",
        "label": "STABLE_PRO",
        "offset": 0,
        "slot": "6",
        "type": "t_contract(StablePro)17401"
      },
      {
        "astId": 26056,
        "contract": "contracts/lending/SuVault.sol:SuVault",
        "label": "collateralsEDecimal",
        "offset": 0,
        "slot": "7",
        "type": "t_mapping(t_address,t_mapping(t_address,t_uint256))"
      },
      {
        "astId": 26062,
        "contract": "contracts/lending/SuVault.sol:SuVault",
        "label": "debtWithFeesE18",
        "offset": 0,
        "slot": "8",
        "type": "t_mapping(t_address,t_mapping(t_address,t_uint256))"
      },
      {
        "astId": 26068,
        "contract": "contracts/lending/SuVault.sol:SuVault",
        "label": "debtsE18",
        "offset": 0,
        "slot": "9",
        "type": "t_mapping(t_address,t_mapping(t_address,t_uint256))"
      },
      {
        "astId": 26072,
        "contract": "contracts/lending/SuVault.sol:SuVault",
        "label": "tokenDebtsWithFeesE18",
        "offset": 0,
        "slot": "10",
        "type": "t_mapping(t_address,t_uint256)"
      },
      {
        "astId": 26076,
        "contract": "contracts/lending/SuVault.sol:SuVault",
        "label": "tokenDebtsE18",
        "offset": 0,
        "slot": "11",
        "type": "t_mapping(t_address,t_uint256)"
      },
      {
        "astId": 26082,
        "contract": "contracts/lending/SuVault.sol:SuVault",
        "label": "stabilityFeeE18",
        "offset": 0,
        "slot": "12",
        "type": "t_mapping(t_address,t_mapping(t_address,t_uint256))"
      },
      {
        "astId": 26088,
        "contract": "contracts/lending/SuVault.sol:SuVault",
        "label": "lastUpdate",
        "offset": 0,
        "slot": "13",
        "type": "t_mapping(t_address,t_mapping(t_address,t_uint256))"
      },
      {
        "astId": 26094,
        "contract": "contracts/lending/SuVault.sol:SuVault",
        "label": "liquidationBlock",
        "offset": 0,
        "slot": "14",
        "type": "t_mapping(t_address,t_mapping(t_address,t_uint256))"
      },
      {
        "astId": 26117,
        "contract": "contracts/lending/SuVault.sol:SuVault",
        "label": "rewardChef",
        "offset": 0,
        "slot": "15",
        "type": "t_contract(RewardChefV2)38904"
      }
    ],
    "types": {
      "t_address": {
        "encoding": "inplace",
        "label": "address",
        "numberOfBytes": "20"
      },
      "t_bool": {
        "encoding": "inplace",
        "label": "bool",
        "numberOfBytes": "1"
      },
      "t_contract(ISuAccessControl)32175": {
        "encoding": "inplace",
        "label": "contract ISuAccessControl",
        "numberOfBytes": "20"
      },
      "t_contract(ISuPausable)23716": {
        "encoding": "inplace",
        "label": "contract ISuPausable",
        "numberOfBytes": "20"
      },
      "t_contract(RewardChefV2)38904": {
        "encoding": "inplace",
        "label": "contract RewardChefV2",
        "numberOfBytes": "20"
      },
      "t_contract(StablePro)17401": {
        "encoding": "inplace",
        "label": "contract StablePro",
        "numberOfBytes": "20"
      },
      "t_mapping(t_address,t_mapping(t_address,t_uint256))": {
        "encoding": "mapping",
        "key": "t_address",
        "label": "mapping(address => mapping(address => uint256))",
        "numberOfBytes": "32",
        "value": "t_mapping(t_address,t_uint256)"
      },
      "t_mapping(t_address,t_uint256)": {
        "encoding": "mapping",
        "key": "t_address",
        "label": "mapping(address => uint256)",
        "numberOfBytes": "32",
        "value": "t_uint256"
      },
      "t_uint256": {
        "encoding": "inplace",
        "label": "uint256",
        "numberOfBytes": "32"
      },
      "t_uint8": {
        "encoding": "inplace",
        "label": "uint8",
        "numberOfBytes": "1"
      }
    }
  }
}