{
  "_format": "hh-sol-artifact-1",
  "contractName": "SuOracleAggregator",
  "sourceName": "contracts/oracles/SuOracleAggregator.sol",
  "abi": [
    {
      "inputs": [
        {
          "internalType": "address",
          "name": "_authControl",
          "type": "address"
        }
      ],
      "stateMutability": "nonpayable",
      "type": "constructor"
    },
    {
      "inputs": [],
      "name": "ACCESS_CONTROL_SINGLETON",
      "outputs": [
        {
          "internalType": "contract ISuAccessControl",
          "name": "",
          "type": "address"
        }
      ],
      "stateMutability": "view",
      "type": "function"
    },
    {
      "inputs": [],
      "name": "LIQUIDATION_ACCESS_ROLE",
      "outputs": [
        {
          "internalType": "bytes32",
          "name": "",
          "type": "bytes32"
        }
      ],
      "stateMutability": "view",
      "type": "function"
    },
    {
      "inputs": [],
      "name": "MINTER_ROLE",
      "outputs": [
        {
          "internalType": "bytes32",
          "name": "",
          "type": "bytes32"
        }
      ],
      "stateMutability": "view",
      "type": "function"
    },
    {
      "inputs": [],
      "name": "VAULT_ACCESS_ROLE",
      "outputs": [
        {
          "internalType": "bytes32",
          "name": "",
          "type": "bytes32"
        }
      ],
      "stateMutability": "view",
      "type": "function"
    },
    {
      "inputs": [
        {
          "internalType": "address",
          "name": "",
          "type": "address"
        }
      ],
      "name": "assetToOracle",
      "outputs": [
        {
          "internalType": "uint256",
          "name": "",
          "type": "uint256"
        }
      ],
      "stateMutability": "view",
      "type": "function"
    },
    {
      "inputs": [
        {
          "internalType": "address",
          "name": "asset",
          "type": "address"
        }
      ],
      "name": "getUsdPrice1e18",
      "outputs": [
        {
          "internalType": "uint256",
          "name": "",
          "type": "uint256"
        }
      ],
      "stateMutability": "view",
      "type": "function"
    },
    {
      "inputs": [
        {
          "internalType": "uint256",
          "name": "",
          "type": "uint256"
        }
      ],
      "name": "oracleImplementations",
      "outputs": [
        {
          "internalType": "contract ISuOracle",
          "name": "",
          "type": "address"
        }
      ],
      "stateMutability": "view",
      "type": "function"
    },
    {
      "inputs": [
        {
          "internalType": "address[]",
          "name": "assets",
          "type": "address[]"
        },
        {
          "internalType": "uint256",
          "name": "oracleId",
          "type": "uint256"
        }
      ],
      "name": "setOracleIdForAssets",
      "outputs": [],
      "stateMutability": "nonpayable",
      "type": "function"
    },
    {
      "inputs": [
        {
          "internalType": "uint256",
          "name": "oracleId",
          "type": "uint256"
        },
        {
          "internalType": "contract ISuOracle",
          "name": "oracleImplementation",
          "type": "address"
        }
      ],
      "name": "setOracleImplementation",
      "outputs": [],
      "stateMutability": "nonpayable",
      "type": "function"
    }
  ],
  "bytecode": "0x60a060405234801561001057600080fd5b5060405161099938038061099983398101604081905261002f91610044565b60601b6001600160601b031916608052610072565b600060208284031215610055578081fd5b81516001600160a01b038116811461006b578182fd5b9392505050565b60805160601c6108fc61009d6000396000818160ad01528181610379015261053b01526108fc6000f3fe608060405234801561001057600080fd5b50600436106100a35760003560e01c8063356efd9811610076578063d53913931161005b578063d539139314610192578063dc97e84e146101b9578063ef54c378146101e057600080fd5b8063356efd981461016a5780636806ff2b1461017d57600080fd5b806303ee9f22146100a85780630827ba5b146100ec57806314c376dc146101155780632e00d2451461014a575b600080fd5b6100cf7f000000000000000000000000000000000000000000000000000000000000000081565b6040516001600160a01b0390911681526020015b60405180910390f35b6100cf6100fa366004610812565b6001602052600090815260409020546001600160a01b031681565b61013c7fe965846df3dd5b1dfa65f58e31477079e90140e0908b6dd31b5aead5a57cf36581565b6040519081526020016100e3565b61013c610158366004610702565b60006020819052908152604090205481565b61013c610178366004610702565b6101f3565b61019061018b366004610725565b61035d565b005b61013c7f9f2df0fed2c77648de5860a4cc508cd0818c85b8b8a1ab4ceeef8d981c8956a681565b61013c7f9a9aef7c1247d5fc769b0185c052913e39673da29a880317dfd20ebf86f26a4981565b6101906101ee366004610842565b61051f565b6001600160a01b0381166000908152602081905260408120548061025e5760405162461bcd60e51b815260206004820152601760248201527f4e6f206f7261636c6520666f722074686520617373657400000000000000000060448201526064015b60405180910390fd5b6000818152600160205260409020546001600160a01b0316806102c35760405162461bcd60e51b815260206004820152601860248201527f4e6f206f7261636c6520696d706c656d656e746174696f6e00000000000000006044820152606401610255565b6040517f356efd980000000000000000000000000000000000000000000000000000000081526001600160a01b03858116600483015282169063356efd989060240160206040518083038186803b15801561031d57600080fd5b505afa158015610331573d6000803e3d6000fd5b505050506040513d601f19601f82011682018060405250810190610355919061082a565b949350505050565b604051632474521560e21b8152600060048201523360248201527f00000000000000000000000000000000000000000000000000000000000000006001600160a01b0316906391d148549060440160206040518083038186803b1580156103c357600080fd5b505afa1580156103d7573d6000803e3d6000fd5b505050506040513d601f19601f820116820180604052508101906103fb91906107f2565b6104475760405162461bcd60e51b815260206004820152601d60248201527f5375417574683a206f6e6c794f776e657220415554485f4641494c45440000006044820152606401610255565b6000818152600160205260409020546001600160a01b03166104ab5760405162461bcd60e51b815260206004820152601960248201527f4f7261636c65496d706c656d656e746174696f6e203d3d2030000000000000006044820152606401610255565b60005b825181101561051a57816000808584815181106104db57634e487b7160e01b600052603260045260246000fd5b60200260200101516001600160a01b03166001600160a01b0316815260200190815260200160002081905550808061051290610871565b9150506104ae565b505050565b604051632474521560e21b8152600060048201523360248201527f00000000000000000000000000000000000000000000000000000000000000006001600160a01b0316906391d148549060440160206040518083038186803b15801561058557600080fd5b505afa158015610599573d6000803e3d6000fd5b505050506040513d601f19601f820116820180604052508101906105bd91906107f2565b6106095760405162461bcd60e51b815260206004820152601d60248201527f5375417574683a206f6e6c794f776e657220415554485f4641494c45440000006044820152606401610255565b816106565760405162461bcd60e51b815260206004820152600d60248201527f4f7261636c654964203d3d2030000000000000000000000000000000000000006044820152606401610255565b6001600160a01b0381166106ac5760405162461bcd60e51b815260206004820152601960248201527f4f7261636c65496d706c656d656e746174696f6e203d3d2030000000000000006044820152606401610255565b60009182526001602052604090912080547fffffffffffffffffffffffff0000000000000000000000000000000000000000166001600160a01b03909216919091179055565b80356106fd816108ae565b919050565b600060208284031215610713578081fd5b813561071e816108ae565b9392505050565b60008060408385031215610737578081fd5b823567ffffffffffffffff8082111561074e578283fd5b818501915085601f830112610761578283fd5b813560208282111561077557610775610898565b8160051b604051601f19603f8301168101818110868211171561079a5761079a610898565b604052838152828101945085830182870184018b10156107b8578788fd5b8796505b848710156107e1576107cd816106f2565b8652600196909601959483019483016107bc565b509997909101359750505050505050565b600060208284031215610803578081fd5b8151801515811461071e578182fd5b600060208284031215610823578081fd5b5035919050565b60006020828403121561083b578081fd5b5051919050565b60008060408385031215610854578182fd5b823591506020830135610866816108ae565b809150509250929050565b600060001982141561089157634e487b7160e01b81526011600452602481fd5b5060010190565b634e487b7160e01b600052604160045260246000fd5b6001600160a01b03811681146108c357600080fd5b5056fea26469706673582212207a15e2732130ab5affd6b7776ac0f7e3a2553da7a6305947659b78d07c63850764736f6c63430008040033",
  "linkReferences": {},
  "deployedLinkReferences": {}
}