{
  "address": "0x2279B7A0a67DB372996a5FaB50D91eAA73d2eBe6",
  "abi": [
    {
      "anonymous": false,
      "inputs": [
        {
          "indexed": true,
          "internalType": "address",
          "name": "user",
          "type": "address"
        },
        {
          "indexed": true,
          "internalType": "address",
          "name": "asset",
          "type": "address"
        },
        {
          "indexed": false,
          "internalType": "uint256",
          "name": "amount",
          "type": "uint256"
        }
      ],
      "name": "Harvest",
      "type": "event"
    },
    {
      "anonymous": false,
      "inputs": [
        {
          "indexed": true,
          "internalType": "address",
          "name": "asset",
          "type": "address"
        },
        {
          "indexed": false,
          "internalType": "uint256",
          "name": "allocPoint",
          "type": "uint256"
        }
      ],
      "name": "LogPoolAddition",
      "type": "event"
    },
    {
      "anonymous": false,
      "inputs": [
        {
          "indexed": true,
          "internalType": "address",
          "name": "asset",
          "type": "address"
        },
        {
          "indexed": false,
          "internalType": "uint256",
          "name": "allocPoint",
          "type": "uint256"
        }
      ],
      "name": "LogSetPool",
      "type": "event"
    },
    {
      "anonymous": false,
      "inputs": [
        {
          "indexed": true,
          "internalType": "address",
          "name": "asset",
          "type": "address"
        },
        {
          "indexed": false,
          "internalType": "uint64",
          "name": "lastRewardBlock",
          "type": "uint64"
        },
        {
          "indexed": false,
          "internalType": "uint256",
          "name": "lpSupply",
          "type": "uint256"
        },
        {
          "indexed": false,
          "internalType": "uint256",
          "name": "accSushiPerShare",
          "type": "uint256"
        }
      ],
      "name": "LogUpdatePool",
      "type": "event"
    },
    {
      "anonymous": false,
      "inputs": [
        {
          "indexed": true,
          "internalType": "address",
          "name": "user",
          "type": "address"
        },
        {
          "indexed": true,
          "internalType": "address",
          "name": "asset",
          "type": "address"
        },
        {
          "indexed": true,
          "internalType": "address",
          "name": "to",
          "type": "address"
        },
        {
          "indexed": false,
          "internalType": "uint256",
          "name": "amount",
          "type": "uint256"
        },
        {
          "indexed": false,
          "internalType": "uint256",
          "name": "lockupPeriodSeconds",
          "type": "uint256"
        }
      ],
      "name": "ResetAmount",
      "type": "event"
    },
    {
      "anonymous": false,
      "inputs": [
        {
          "indexed": true,
          "internalType": "address",
          "name": "user",
          "type": "address"
        },
        {
          "indexed": true,
          "internalType": "address",
          "name": "asset",
          "type": "address"
        },
        {
          "indexed": false,
          "internalType": "uint256",
          "name": "amount",
          "type": "uint256"
        }
      ],
      "name": "VirtualDeposit",
      "type": "event"
    },
    {
      "anonymous": false,
      "inputs": [
        {
          "indexed": true,
          "internalType": "address",
          "name": "user",
          "type": "address"
        },
        {
          "indexed": true,
          "internalType": "address",
          "name": "asset",
          "type": "address"
        },
        {
          "indexed": false,
          "internalType": "uint256",
          "name": "amount",
          "type": "uint256"
        }
      ],
      "name": "VirtualWithdraw",
      "type": "event"
    },
    {
      "inputs": [],
      "name": "ACCESS_CONTROL_SINGLETON",
      "outputs": [
        {
          "internalType": "contract ISuAccessControl",
          "name": "",
          "type": "address"
        }
      ],
      "stateMutability": "view",
      "type": "function"
    },
    {
      "inputs": [],
      "name": "LIQUIDATION_ACCESS_ROLE",
      "outputs": [
        {
          "internalType": "bytes32",
          "name": "",
          "type": "bytes32"
        }
      ],
      "stateMutability": "view",
      "type": "function"
    },
    {
      "inputs": [],
      "name": "MINTER_ROLE",
      "outputs": [
        {
          "internalType": "bytes32",
          "name": "",
          "type": "bytes32"
        }
      ],
      "stateMutability": "view",
      "type": "function"
    },
    {
      "inputs": [],
      "name": "ORACLE",
      "outputs": [
        {
          "internalType": "contract ISuOracle",
          "name": "",
          "type": "address"
        }
      ],
      "stateMutability": "view",
      "type": "function"
    },
    {
      "inputs": [],
      "name": "REWARD_TOKEN",
      "outputs": [
        {
          "internalType": "contract IERC20Upgradeable",
          "name": "",
          "type": "address"
        }
      ],
      "stateMutability": "view",
      "type": "function"
    },
    {
      "inputs": [],
      "name": "VAULT_ACCESS_ROLE",
      "outputs": [
        {
          "internalType": "bytes32",
          "name": "",
          "type": "bytes32"
        }
      ],
      "stateMutability": "view",
      "type": "function"
    },
    {
      "inputs": [
        {
          "internalType": "uint256",
          "name": "allocPoint",
          "type": "uint256"
        },
        {
          "internalType": "address",
          "name": "_asset",
          "type": "address"
        }
      ],
      "name": "add",
      "outputs": [],
      "stateMutability": "nonpayable",
      "type": "function"
    },
    {
      "inputs": [
        {
          "internalType": "address",
          "name": "asset",
          "type": "address"
        },
        {
          "internalType": "address",
          "name": "to",
          "type": "address"
        },
        {
          "internalType": "uint256",
          "name": "amountEDecimal",
          "type": "uint256"
        }
      ],
      "name": "decreaseAmount",
      "outputs": [],
      "stateMutability": "nonpayable",
      "type": "function"
    },
    {
      "inputs": [
        {
          "internalType": "address",
          "name": "asset",
          "type": "address"
        },
        {
          "internalType": "address",
          "name": "to",
          "type": "address"
        },
        {
          "internalType": "uint256",
          "name": "amountEDecimal",
          "type": "uint256"
        }
      ],
      "name": "decreaseAmountRewardPenalty",
      "outputs": [
        {
          "internalType": "uint256",
          "name": "",
          "type": "uint256"
        }
      ],
      "stateMutability": "view",
      "type": "function"
    },
    {
      "inputs": [
        {
          "internalType": "address",
          "name": "asset",
          "type": "address"
        }
      ],
      "name": "getPoolApr",
      "outputs": [
        {
          "internalType": "uint256",
          "name": "",
          "type": "uint256"
        }
      ],
      "stateMutability": "view",
      "type": "function"
    },
    {
      "inputs": [],
      "name": "getPossibleLockupPeriodsSeconds",
      "outputs": [
        {
          "components": [
            {
              "internalType": "uint256",
              "name": "lockupPeriodSeconds",
              "type": "uint256"
            },
            {
              "internalType": "uint256",
              "name": "multiplicator1e18",
              "type": "uint256"
            }
          ],
          "internalType": "struct RewardChefV2.ILockupPeriod[]",
          "name": "",
          "type": "tuple[]"
        }
      ],
      "stateMutability": "view",
      "type": "function"
    },
    {
      "inputs": [
        {
          "internalType": "address",
          "name": "asset",
          "type": "address"
        },
        {
          "internalType": "address",
          "name": "to",
          "type": "address"
        },
        {
          "internalType": "uint256",
          "name": "newLockupPeriodSeconds",
          "type": "uint256"
        }
      ],
      "name": "harvest",
      "outputs": [],
      "stateMutability": "nonpayable",
      "type": "function"
    },
    {
      "inputs": [
        {
          "internalType": "address",
          "name": "asset",
          "type": "address"
        },
        {
          "internalType": "address",
          "name": "to",
          "type": "address"
        },
        {
          "internalType": "uint256",
          "name": "amountEDecimal",
          "type": "uint256"
        },
        {
          "internalType": "uint256",
          "name": "lockupPeriodSeconds",
          "type": "uint256"
        }
      ],
      "name": "increaseAmount",
      "outputs": [],
      "stateMutability": "nonpayable",
      "type": "function"
    },
    {
      "inputs": [
        {
          "internalType": "address",
          "name": "_authControl",
          "type": "address"
        },
        {
          "internalType": "contract IERC20Upgradeable",
          "name": "_rewardToken",
          "type": "address"
        },
        {
          "internalType": "contract ISuOracle",
          "name": "_oracle",
          "type": "address"
        }
      ],
      "name": "initialize",
      "outputs": [],
      "stateMutability": "nonpayable",
      "type": "function"
    },
    {
      "inputs": [
        {
          "internalType": "address",
          "name": "_asset",
          "type": "address"
        },
        {
          "internalType": "address",
          "name": "_user",
          "type": "address"
        }
      ],
      "name": "pendingSushi",
      "outputs": [
        {
          "internalType": "uint256",
          "name": "pending",
          "type": "uint256"
        }
      ],
      "stateMutability": "view",
      "type": "function"
    },
    {
      "inputs": [
        {
          "internalType": "address",
          "name": "",
          "type": "address"
        }
      ],
      "name": "poolInfo",
      "outputs": [
        {
          "internalType": "uint128",
          "name": "accSushiPerShare",
          "type": "uint128"
        },
        {
          "internalType": "uint64",
          "name": "lastRewardBlock",
          "type": "uint64"
        },
        {
          "internalType": "uint64",
          "name": "allocPoint",
          "type": "uint64"
        },
        {
          "internalType": "uint256",
          "name": "lpSupply",
          "type": "uint256"
        }
      ],
      "stateMutability": "view",
      "type": "function"
    },
    {
      "inputs": [
        {
          "internalType": "uint256",
          "name": "amount",
          "type": "uint256"
        },
        {
          "internalType": "uint64",
          "name": "endBlock",
          "type": "uint64"
        }
      ],
      "name": "refillReward",
      "outputs": [],
      "stateMutability": "nonpayable",
      "type": "function"
    },
    {
      "inputs": [
        {
          "internalType": "address",
          "name": "asset",
          "type": "address"
        },
        {
          "internalType": "address",
          "name": "to",
          "type": "address"
        }
      ],
      "name": "resetAmount",
      "outputs": [],
      "stateMutability": "nonpayable",
      "type": "function"
    },
    {
      "inputs": [],
      "name": "rewardEndBlock",
      "outputs": [
        {
          "internalType": "uint256",
          "name": "",
          "type": "uint256"
        }
      ],
      "stateMutability": "view",
      "type": "function"
    },
    {
      "inputs": [],
      "name": "rewardPerBlock",
      "outputs": [
        {
          "internalType": "uint256",
          "name": "",
          "type": "uint256"
        }
      ],
      "stateMutability": "view",
      "type": "function"
    },
    {
      "inputs": [
        {
          "internalType": "uint256",
          "name": "startBlock",
          "type": "uint256"
        },
        {
          "internalType": "uint256",
          "name": "endBlock",
          "type": "uint256"
        }
      ],
      "name": "rewardsBetweenBlocks",
      "outputs": [
        {
          "internalType": "uint256",
          "name": "",
          "type": "uint256"
        }
      ],
      "stateMutability": "view",
      "type": "function"
    },
    {
      "inputs": [
        {
          "internalType": "address",
          "name": "_asset",
          "type": "address"
        },
        {
          "internalType": "uint256",
          "name": "_allocPoint",
          "type": "uint256"
        }
      ],
      "name": "set",
      "outputs": [],
      "stateMutability": "nonpayable",
      "type": "function"
    },
    {
      "inputs": [
        {
          "internalType": "uint256",
          "name": "lockupPeriodSeconds",
          "type": "uint256"
        },
        {
          "internalType": "uint256",
          "name": "multiplicator1e18",
          "type": "uint256"
        }
      ],
      "name": "setPossibleLockupPeriodsSeconds",
      "outputs": [],
      "stateMutability": "nonpayable",
      "type": "function"
    },
    {
      "inputs": [],
      "name": "totalAllocPoint",
      "outputs": [
        {
          "internalType": "uint256",
          "name": "",
          "type": "uint256"
        }
      ],
      "stateMutability": "view",
      "type": "function"
    },
    {
      "inputs": [],
      "name": "updateAllPools",
      "outputs": [],
      "stateMutability": "nonpayable",
      "type": "function"
    },
    {
      "inputs": [
        {
          "internalType": "address",
          "name": "asset",
          "type": "address"
        }
      ],
      "name": "updatePool",
      "outputs": [
        {
          "components": [
            {
              "internalType": "uint128",
              "name": "accSushiPerShare",
              "type": "uint128"
            },
            {
              "internalType": "uint64",
              "name": "lastRewardBlock",
              "type": "uint64"
            },
            {
              "internalType": "uint64",
              "name": "allocPoint",
              "type": "uint64"
            },
            {
              "internalType": "uint256",
              "name": "lpSupply",
              "type": "uint256"
            }
          ],
          "internalType": "struct IRewardChefV2.PoolInfo",
          "name": "pool",
          "type": "tuple"
        }
      ],
      "stateMutability": "nonpayable",
      "type": "function"
    },
    {
      "inputs": [
        {
          "internalType": "address",
          "name": "",
          "type": "address"
        },
        {
          "internalType": "address",
          "name": "",
          "type": "address"
        }
      ],
      "name": "userInfo",
      "outputs": [
        {
          "internalType": "uint256",
          "name": "amount",
          "type": "uint256"
        },
        {
          "internalType": "int256",
          "name": "rewardDebt",
          "type": "int256"
        },
        {
          "internalType": "uint256",
          "name": "multiplicator1e18",
          "type": "uint256"
        },
        {
          "internalType": "uint256",
          "name": "lockupPeriodSeconds",
          "type": "uint256"
        },
        {
          "internalType": "uint256",
          "name": "lockupStartTimestamp",
          "type": "uint256"
        }
      ],
      "stateMutability": "view",
      "type": "function"
    }
  ],
  "numDeployments": 1,
  "solcInputHash": "1ee30c392eeeb5c03c3751ea96247c34",
  "bytecode": "0x608060405234801561001057600080fd5b50613096806100206000396000f3fe608060405234801561001057600080fd5b50600436106101b95760003560e01c806387d48316116100f9578063c0c53b8b11610097578063d539139311610071578063d5391393146104ad578063dc97e84e146104d4578063eeba3c3f146104fb578063f7bfea2c1461050e57600080fd5b8063c0c53b8b14610474578063c2ceb95f14610487578063cf4f68d51461049a57600080fd5b806399248ea7116100d357806399248ea7146103bf5780639a7b5f11146103d2578063a7533e0914610459578063b9ec7d741461046c57600080fd5b806387d483161461039057806387ee8c4c146103a35780638ae39cac146103b657600080fd5b80632fcd4bc011610166578063604ef2e511610140578063604ef2e514610301578063698274021461030a5780636aed34f71461031f5780637b46c54f1461033257600080fd5b80632fcd4bc0146102c857806338013f02146102db5780633825d828146102ee57600080fd5b806317caf6f11161019757806317caf6f1146102975780631d40e439146102a05780632b8bbbe8146102b357600080fd5b806303ee9f22146101be5780630f208beb146101f457806314c376dc14610262575b600080fd5b6000546101d7906201000090046001600160a01b031681565b6040516001600160a01b0390911681526020015b60405180910390f35b61023a610202366004612b48565b600460208181526000938452604080852090915291835291208054600182015460028301546003840154939094015491939092909185565b604080519586526020860194909452928401919091526060830152608082015260a0016101eb565b6102897fe965846df3dd5b1dfa65f58e31477079e90140e0908b6dd31b5aead5a57cf36581565b6040519081526020016101eb565b61028960055481565b6102896102ae366004612b48565b610521565b6102c66102c1366004612cb2565b6106c5565b005b6102c66102d6366004612cd6565b61092c565b6007546101d7906001600160a01b031681565b6102c66102fc366004612c4f565b610aa4565b61028960095481565b610312610cf5565b6040516101eb9190612d64565b6102c661032d366004612b80565b610e40565b610345610340366004612b2c565b611138565b6040805182516001600160801b0316815260208084015167ffffffffffffffff90811691830191909152838301511691810191909152606091820151918101919091526080016101eb565b61028961039e366004612b80565b611340565b6102c66103b1366004612cf7565b611406565b61028960085481565b6006546101d7906001600160a01b031681565b6104216103e0366004612b2c565b600160208190526000918252604090912080549101546001600160801b0382169167ffffffffffffffff600160801b8204811692600160c01b909204169084565b604080516001600160801b0395909516855267ffffffffffffffff9384166020860152919092169083015260608201526080016101eb565b610289610467366004612b2c565b6115f0565b6102c66119ae565b6102c6610482366004612c05565b611a0d565b6102c6610495366004612b80565b611b29565b6102c66104a8366004612b48565b611e50565b6102897f9f2df0fed2c77648de5860a4cc508cd0818c85b8b8a1ab4ceeef8d981c8956a681565b6102897f9a9aef7c1247d5fc769b0185c052913e39673da29a880317dfd20ebf86f26a4981565b610289610509366004612cd6565b611f9f565b6102c661051c366004612bc0565b611ff1565b6001600160a01b03808316600081815260016020818152604080842081516080808201845282546001600160801b03808216845267ffffffffffffffff600160801b83048116858901908152600160c01b9093048116858801529488015460608086018290528b8b526004808a52888c209d8f168c529c8952878b20885160a081018a5281548152818c0154818c0152600282015499810199909952600381015491890191909152909b015492860192909252825198885295909452935194969395919491909216929116431180156105f957508015155b8015610606575060055415155b1561067b576000610625856020015167ffffffffffffffff1643611f9f565b90506000600554866040015167ffffffffffffffff16836106469190612f76565b6106509190612e68565b90508261066264e8d4a5100083612f76565b61066c9190612e68565b6106769085612e50565b935050505b6106ba83602001516106ab64e8d4a5100085876000015161069c9190612f76565b6106a69190612e68565b61231d565b6106b59190612f95565b6123a0565b979650505050505050565b60008054604051632474521560e21b815260048101929092523360248301526201000090046001600160a01b0316906391d148549060440160206040518083038186803b15801561071557600080fd5b505afa158015610729573d6000803e3d6000fd5b505050506040513d601f19601f8201168201806040525081019061074d9190612c7a565b61079e5760405162461bcd60e51b815260206004820152601d60248201527f5375417574683a206f6e6c794f776e657220415554485f4641494c454400000060448201526064015b60405180910390fd5b6001600160a01b038116600090815260016020526040902054600160801b900467ffffffffffffffff16156108155760405162461bcd60e51b815260206004820152601260248201527f506f6f6c20616c726561647920657869737400000000000000000000000000006044820152606401610795565b6005544390610825908490612e50565b6005556108336002836123f2565b50604051806080016040528060006001600160801b0316815260200161085883612407565b67ffffffffffffffff16815260200161087085612407565b67ffffffffffffffff9081168252600060209283018190526001600160a01b03861680825260018085526040928390208651815488880151898701518816600160c01b026001600160c01b0391909816600160801b026001600160c01b03199092166001600160801b039093169290921717169490941784556060909501519290940191909155518581527f595f39ef10c3b539b41f83620205bd2e76334edf0cfda5ed207f10616e867dad91015b60405180910390a2505050565b60008054604051632474521560e21b815260048101929092523360248301526201000090046001600160a01b0316906391d148549060440160206040518083038186803b15801561097c57600080fd5b505afa158015610990573d6000803e3d6000fd5b505050506040513d601f19601f820116820180604052508101906109b49190612c7a565b610a005760405162461bcd60e51b815260206004820152601d60248201527f5375417574683a206f6e6c794f776e657220415554485f4641494c45440000006044820152606401610795565b81610a735760405162461bcd60e51b815260206004820152602160248201527f4c6f636b757020706572696f6420657175696c73207a65726f207365636f6e6460448201527f73000000000000000000000000000000000000000000000000000000000000006064820152608401610795565b6000828152600a6020526040902081905580610a9957610a94600b83612487565b505050565b610a94600b83612493565b60008054604051632474521560e21b815260048101929092523360248301526201000090046001600160a01b0316906391d148549060440160206040518083038186803b158015610af457600080fd5b505afa158015610b08573d6000803e3d6000fd5b505050506040513d601f19601f82011682018060405250810190610b2c9190612c7a565b610b785760405162461bcd60e51b815260206004820152601d60248201527f5375417574683a206f6e6c794f776e657220415554485f4641494c45440000006044820152606401610795565b6001600160a01b038216600090815260016020526040902054600160801b900467ffffffffffffffff16610bee5760405162461bcd60e51b815260206004820152601260248201527f506f6f6c20646f65736e277420657869737400000000000000000000000000006044820152606401610795565b610bf782611138565b506001600160a01b038216600090815260016020526040902054600554600160c01b90910467ffffffffffffffff16908290610c34908390612fd4565b610c3e9190612e50565b600555610c4a82612407565b6001600160a01b0384166000908152600160205260409020805467ffffffffffffffff92909216600160c01b026001600160c01b0390921691909117905581610c9e57610c9860028461249f565b50610cba565b67ffffffffffffffff8116610cba57610cb86002846123f2565b505b826001600160a01b03167f57096e403eca2ab85e7ad27527b2efe1598aaf6760715227633947f3652a0f6b8360405161091f91815260200190565b60606000610d03600b6124b4565b805190915060008167ffffffffffffffff811115610d3157634e487b7160e01b600052604160045260246000fd5b604051908082528060200260200182016040528015610d7657816020015b6040805180820190915260008082526020820152815260200190600190039081610d4f5790505b50905060005b82811015610e38576040518060400160405280858381518110610daf57634e487b7160e01b600052603260045260246000fd5b60200260200101518152602001600a6000878581518110610de057634e487b7160e01b600052603260045260246000fd5b6020026020010151815260200190815260200160002054815250828281518110610e1a57634e487b7160e01b600052603260045260246000fd5b60200260200101819052508080610e3090613017565b915050610d7c565b509392505050565b60008054604051632474521560e21b815260048101929092523360248301526201000090046001600160a01b0316906391d148549060440160206040518083038186803b158015610e9057600080fd5b505afa158015610ea4573d6000803e3d6000fd5b505050506040513d601f19601f82011682018060405250810190610ec89190612c7a565b610f145760405162461bcd60e51b815260206004820152601d60248201527f5375417574683a206f6e6c794f776e657220415554485f4641494c45440000006044820152606401610795565b6000610f1f84611138565b6001600160a01b038086166000908152600460209081526040808320938816835292905220600281015491925090610f995760405162461bcd60e51b815260206004820152601e60248201527f55736572206d756c7469706c696361746f7220657175696c73207a65726f00006044820152606401610795565b600081600301548260040154610faf9190612e50565b421015610fc457610fc1868686611340565b90505b6000670de0b6b3a7640000836002015486610fdf9190612f76565b610fe99190612e68565b9050610ff48261231d565b84516110149064e8d4a510009061069c906001600160801b031685612f76565b84600101546110239190612f95565b61102d9190612de6565b6001840155825461103f908290612fd4565b80845515801561105157506001830154155b1561106b5742600484015560006003840181905560028401555b80846060015161107b9190612fd4565b606085019081526001600160a01b038881166000818152600160208181526040928390208a518154838d0151868e01516001600160801b039093166001600160c01b031990921691909117600160801b67ffffffffffffffff92831602176001600160c01b0316600160c01b919092160217815595519590910194909455518481529092918916917f5c89d0cd1567084571f8083b115429597fe4af296968d67b6b7ebc9d12777e8791015b60405180910390a350505050505050565b604080516080810182526000808252602082018190529181018290526060810191909152506001600160a01b038116600090815260016020818152604092839020835160808101855281546001600160801b038116825267ffffffffffffffff600160801b82048116948301859052600160c01b909104169481019490945290910154606083015243111561133b57606081015180158015906111e957506000826040015167ffffffffffffffff16115b15611271576000611208836020015167ffffffffffffffff1643611f9f565b90506000600554846040015167ffffffffffffffff16836112299190612f76565b6112339190612e68565b90506112578361124864e8d4a5100084612f76565b6112529190612e68565b6124c1565b84516112639190612e25565b6001600160801b0316845250505b61127a43612407565b67ffffffffffffffff90811660208481019182526001600160a01b03861660008181526001808452604091829020885181549651848b01518916600160c01b026001600160c01b0391909916600160801b81026001600160c01b03199099166001600160801b0390931692831798909817169790971781556060808a0151919092015581519485529284018690528301939093527f46cf4926e42ba22492fd67b3ea0fba545c48ca18651eb6cd271e653d3308c567910160405180910390a2505b919050565b6001600160a01b0380841660009081526004602081815260408084209487168452938152838320845160a0810186528154815260018201549281019290925260028101549482018590526003810154606083015290910154608082015290916113ad5760009150506113ff565b6000670de0b6b3a76400008260400151856113c89190612f76565b6113d29190612e68565b905060006113e08787610521565b83519091506113ef8383612f76565b6113f99190612e68565b93505050505b9392505050565b60008054604051632474521560e21b815260048101929092523360248301526201000090046001600160a01b0316906391d148549060440160206040518083038186803b15801561145657600080fd5b505afa15801561146a573d6000803e3d6000fd5b505050506040513d601f19601f8201168201806040525081019061148e9190612c7a565b6114da5760405162461bcd60e51b815260206004820152601d60248201527f5375417574683a206f6e6c794f776e657220415554485f4641494c45440000006044820152606401610795565b438167ffffffffffffffff16116115595760405162461bcd60e51b815260206004820152602d60248201527f456e64426c6f636b2073686f756c642062652067726561746572207468616e2060448201527f63757272656e7420626c6f636b000000000000000000000000000000000000006064820152608401610795565b6115616119ae565b600654611579906001600160a01b0316333085612540565b600954600090156115b4576009544310156115b0574360095461159c9190612fd4565b6008546115a99190612f76565b90506115b4565b5060005b6115c84367ffffffffffffffff8416612fd4565b6115d28483612e50565b6115dc9190612e68565b6008555067ffffffffffffffff1660095550565b6001600160a01b03811660009081526001602081905260408220015461167e5760405162461bcd60e51b815260206004820152602760248201527f526577617264436865663a20506f6f6c20646f65736e27742068617665206c6960448201527f71756964697479000000000000000000000000000000000000000000000000006064820152608401610795565b6005546116f35760405162461bcd60e51b815260206004820152602760248201527f526577617264436865663a20546f74616c20616c6c6f636174696f6e20706f6960448201527f6e742069732030000000000000000000000000000000000000000000000000006064820152608401610795565b436009541161176a5760405162461bcd60e51b815260206004820152602760248201527f526577617264436865663a2056657374696e6720697320616c7265616479206660448201527f696e6973686564000000000000000000000000000000000000000000000000006064820152608401610795565b6005546001600160a01b0383166000908152600160205260408120546008549192916117a791600160c01b900467ffffffffffffffff1690612f76565b6117b19190612e68565b6007546006546040516306addfb360e31b81526001600160a01b03918216600482015292935060009291169063356efd989060240160206040518083038186803b1580156117fe57600080fd5b505afa158015611812573d6000803e3d6000fd5b505050506040513d601f19601f820116820180604052508101906118369190612c9a565b9050600081611846846004612f76565b61185190603c612f76565b61185c906018612f76565b6118689061016e612f76565b6118729190612f76565b90506000856001600160a01b031663313ce5676040518163ffffffff1660e01b815260040160206040518083038186803b1580156118af57600080fd5b505afa1580156118c3573d6000803e3d6000fd5b505050506040513d601f19601f820116820180604052508101906118e79190612d27565b6118f290600a612ecb565b6001600160a01b03878116600081815260016020819052604091829020015460075491516306addfb360e31b8152600481019390935292169063356efd989060240160206040518083038186803b15801561194c57600080fd5b505afa158015611960573d6000803e3d6000fd5b505050506040513d601f19601f820116820180604052508101906119849190612c9a565b61198e9190612f76565b6119989190612e68565b90506119a48183612e68565b9695505050505050565b60006119ba60026124b4565b805190915060005b81811015610a94576119fa8382815181106119ed57634e487b7160e01b600052603260045260246000fd5b6020026020010151611138565b5080611a0581613017565b9150506119c2565b600054610100900460ff16611a285760005460ff1615611a2c565b303b155b611a9e5760405162461bcd60e51b815260206004820152602e60248201527f496e697469616c697a61626c653a20636f6e747261637420697320616c72656160448201527f647920696e697469616c697a65640000000000000000000000000000000000006064820152608401610795565b600054610100900460ff16158015611ac0576000805461ffff19166101011790555b611ac9846125f1565b600680546001600160a01b038086167fffffffffffffffffffffffff00000000000000000000000000000000000000009283161790925560078054928516929091169190911790558015611b23576000805461ff00191690555b50505050565b6000611b3484611138565b6001600160a01b0385166000908152600460208181526040808420338552909152909120600381015491810154929350914291611b7091612e50565b1115611be45760405162461bcd60e51b815260206004820152602360248201527f43616e27742068617276657374206265666f7265206c6f636b7570206973206f60448201527f76657200000000000000000000000000000000000000000000000000000000006064820152608401610795565b6002810154611c355760405162461bcd60e51b815260206004820152601e60248201527f55736572206d756c7469706c696361746f7220657175696c73207a65726f00006044820152606401610795565b6000611c5d64e8d4a5100084600001516001600160801b0316846000015461069c9190612f76565b90506000611c748360010154836106b59190612f95565b6001840183905590508015611c9a57600654611c9a906001600160a01b031687836126ae565b4260048401556000858152600a602052604090205480611cfc5760405162461bcd60e51b815260206004820152601d60248201527f4e6577206d756c7469706c696361746f7220657175696c73207a65726f0000006044820152606401610795565b8084600201541015611d7d578354600285015460009190611d1d8483612f76565b611d279190612e68565b611d319190612fd4565b8554909150611d41908290612e50565b85558551611d639064e8d4a510009061069c906001600160801b031684612f76565b8560010154611d729190612de6565b600186015550611dff565b8084600201541115611dff5760008460020154828660000154611da09190612f76565b611daa9190612e68565b8554611db69190612fd4565b9050611dda64e8d4a5100087600001516001600160801b03168361069c9190612f76565b8560010154611de99190612f95565b60018601558454611dfb908290612fd4565b8555505b600284018190556040518281526001600160a01b0389169033907fa0306f61d3fafe13787b78e276cb6b644382854a66cb46daae14227d3ec267979060200160405180910390a35050505050505050565b6001600160a01b038216600090815260016020818152604080842060048352818520338652909252909220805460038201549284015491929091611e95908390612fd4565b60018581019182556001600160a01b038881166000818152602084815260408083208b5481546001600160801b039091167fffffffffffffffffffffffffffffffff000000000000000000000000000000008216811783558d546001600160c01b031990921617600160801b9182900467ffffffffffffffff908116909202178083558d546001600160c01b03909116600160c01b9182900490921602178155965496860196909655818955938801819055426004890155600388018190556002880155835186815292830185905290881692909133917f0b29f3a03cca6d26633adab7fad4d1d3383ee338e01e04ebcf40d0beff8838fe910160405180910390a4505050505050565b60008260095411611fb257506000611feb565b600954821015611fda57600854611fc98484612fd4565b611fd39190612f76565b9050611feb565b60085483600954611fc99190612fd4565b92915050565b60008054604051632474521560e21b815260048101929092523360248301526201000090046001600160a01b0316906391d148549060440160206040518083038186803b15801561204157600080fd5b505afa158015612055573d6000803e3d6000fd5b505050506040513d601f19601f820116820180604052508101906120799190612c7a565b6120c55760405162461bcd60e51b815260206004820152601d60248201527f5375417574683a206f6e6c794f776e657220415554485f4641494c45440000006044820152606401610795565b60006120d085611138565b6001600160a01b038087166000908152600460209081526040808320938916835292905220600381015491925090612128576000838152600a60205260409020546002820155600381018390554260048201556121a1565b828160030154146121a15760405162461bcd60e51b815260206004820152602560248201527f4578697374696e67206465706f7369742068617320646966666572656e74206c60448201527f6f636b75700000000000000000000000000000000000000000000000000000006064820152608401610795565b60028101546121f25760405162461bcd60e51b815260206004820152601e60248201527f55736572206d756c7469706c696361746f7220657175696c73207a65726f00006044820152606401610795565b6000670de0b6b3a764000082600201548661220d9190612f76565b6122179190612e68565b8254909150612227908290612e50565b825582516122499064e8d4a510009061069c906001600160801b031684612f76565b82600101546122589190612de6565b6001830155606083015161226d908290612e50565b606084019081526001600160a01b0388811660008181526001602081815260409283902089518154838c0151868d01516001600160801b039093166001600160c01b031990921691909117600160801b67ffffffffffffffff92831602176001600160c01b0316600160c01b919092160217815595519590910194909455518481529092918916917fbe0e56c891bb7033dc9f0c815fb5e1fd09ee48ffbc1c32b504a52911a54246709101611127565b60006001600160ff1b0382111561239c5760405162461bcd60e51b815260206004820152602860248201527f53616665436173743a2076616c756520646f65736e27742066697420696e206160448201527f6e20696e743235360000000000000000000000000000000000000000000000006064820152608401610795565b5090565b60008082121561239c5760405162461bcd60e51b815260206004820181905260248201527f53616665436173743a2076616c7565206d75737420626520706f7369746976656044820152606401610795565b60006113ff836001600160a01b0384166126f7565b600067ffffffffffffffff82111561239c5760405162461bcd60e51b815260206004820152602660248201527f53616665436173743a2076616c756520646f65736e27742066697420696e203660448201527f34206269747300000000000000000000000000000000000000000000000000006064820152608401610795565b60006113ff8383612746565b60006113ff83836126f7565b60006113ff836001600160a01b038416612746565b606060006113ff83612863565b60006001600160801b0382111561239c5760405162461bcd60e51b815260206004820152602760248201527f53616665436173743a2076616c756520646f65736e27742066697420696e203160448201527f32382062697473000000000000000000000000000000000000000000000000006064820152608401610795565b6040516001600160a01b0380851660248301528316604482015260648101829052611b239085907f23b872dd00000000000000000000000000000000000000000000000000000000906084015b60408051601f198184030181529190526020810180517bffffffffffffffffffffffffffffffffffffffffffffffffffffffff167fffffffff00000000000000000000000000000000000000000000000000000000909316929092179091526128bf565b600054610100900460ff1661266e5760405162461bcd60e51b815260206004820152602b60248201527f496e697469616c697a61626c653a20636f6e7472616374206973206e6f74206960448201527f6e697469616c697a696e670000000000000000000000000000000000000000006064820152608401610795565b600080546001600160a01b0390921662010000027fffffffffffffffffffff0000000000000000000000000000000000000000ffff909216919091179055565b6040516001600160a01b038316602482015260448101829052610a949084907fa9059cbb000000000000000000000000000000000000000000000000000000009060640161258d565b600081815260018301602052604081205461273e57508154600181810184556000848152602080822090930184905584548482528286019093526040902091909155611feb565b506000611feb565b6000818152600183016020526040812054801561285957600061276a600183612fd4565b855490915060009061277e90600190612fd4565b90508181146127ff5760008660000182815481106127ac57634e487b7160e01b600052603260045260246000fd5b90600052602060002001549050808760000184815481106127dd57634e487b7160e01b600052603260045260246000fd5b6000918252602080832090910192909255918252600188019052604090208390555b855486908061281e57634e487b7160e01b600052603160045260246000fd5b600190038181906000526020600020016000905590558560010160008681526020019081526020016000206000905560019350505050611feb565b6000915050611feb565b6060816000018054806020026020016040519081016040528092919081815260200182805480156128b357602002820191906000526020600020905b81548152602001906001019080831161289f575b50505050509050919050565b6000612914826040518060400160405280602081526020017f5361666545524332303a206c6f772d6c6576656c2063616c6c206661696c6564815250856001600160a01b03166129a49092919063ffffffff16565b805190915015610a9457808060200190518101906129329190612c7a565b610a945760405162461bcd60e51b815260206004820152602a60248201527f5361666545524332303a204552433230206f7065726174696f6e20646964206e60448201527f6f742073756363656564000000000000000000000000000000000000000000006064820152608401610795565b60606129b384846000856129bb565b949350505050565b606082471015612a335760405162461bcd60e51b815260206004820152602660248201527f416464726573733a20696e73756666696369656e742062616c616e636520666f60448201527f722063616c6c00000000000000000000000000000000000000000000000000006064820152608401610795565b6001600160a01b0385163b612a8a5760405162461bcd60e51b815260206004820152601d60248201527f416464726573733a2063616c6c20746f206e6f6e2d636f6e74726163740000006044820152606401610795565b600080866001600160a01b03168587604051612aa69190612d48565b60006040518083038185875af1925050503d8060008114612ae3576040519150601f19603f3d011682016040523d82523d6000602084013e612ae8565b606091505b50915091506106ba82828660608315612b025750816113ff565b825115612b125782518084602001fd5b8160405162461bcd60e51b81526004016107959190612db3565b600060208284031215612b3d578081fd5b81356113ff81613048565b60008060408385031215612b5a578081fd5b8235612b6581613048565b91506020830135612b7581613048565b809150509250929050565b600080600060608486031215612b94578081fd5b8335612b9f81613048565b92506020840135612baf81613048565b929592945050506040919091013590565b60008060008060808587031215612bd5578081fd5b8435612be081613048565b93506020850135612bf081613048565b93969395505050506040820135916060013590565b600080600060608486031215612c19578283fd5b8335612c2481613048565b92506020840135612c3481613048565b91506040840135612c4481613048565b809150509250925092565b60008060408385031215612c61578182fd5b8235612c6c81613048565b946020939093013593505050565b600060208284031215612c8b578081fd5b815180151581146113ff578182fd5b600060208284031215612cab578081fd5b5051919050565b60008060408385031215612cc4578182fd5b823591506020830135612b7581613048565b60008060408385031215612ce8578182fd5b50508035926020909101359150565b60008060408385031215612d09578182fd5b82359150602083013567ffffffffffffffff81168114612b75578182fd5b600060208284031215612d38578081fd5b815160ff811681146113ff578182fd5b60008251612d5a818460208701612feb565b9190910192915050565b602080825282518282018190526000919060409081850190868401855b82811015612da657815180518552860151868501529284019290850190600101612d81565b5091979650505050505050565b6020815260008251806020840152612dd2816040850160208701612feb565b601f01601f19169190910160400192915050565b6000808212826001600160ff1b0303841381151615612e0757612e07613032565b82600160ff1b038412811615612e1f57612e1f613032565b50500190565b60006001600160801b03808316818516808303821115612e4757612e47613032565b01949350505050565b60008219821115612e6357612e63613032565b500190565b600082612e8357634e487b7160e01b81526012600452602481fd5b500490565b600181815b80851115612ec3578160001904821115612ea957612ea9613032565b80851615612eb657918102915b93841c9390800290612e8d565b509250929050565b60006113ff60ff841683600082612ee457506001611feb565b81612ef157506000611feb565b8160018114612f075760028114612f1157612f2d565b6001915050611feb565b60ff841115612f2257612f22613032565b50506001821b611feb565b5060208310610133831016604e8410600b8410161715612f50575081810a611feb565b612f5a8383612e88565b8060001904821115612f6e57612f6e613032565b029392505050565b6000816000190483118215151615612f9057612f90613032565b500290565b600080831283600160ff1b01831281151615612fb357612fb3613032565b836001600160ff1b03018313811615612fce57612fce613032565b50500390565b600082821015612fe657612fe6613032565b500390565b60005b83811015613006578181015183820152602001612fee565b83811115611b235750506000910152565b600060001982141561302b5761302b613032565b5060010190565b634e487b7160e01b600052601160045260246000fd5b6001600160a01b038116811461305d57600080fd5b5056fea2646970667358221220745c4a8647ef3158f14dc2d889a61a2956f91f88cf9e63c7c479d21e903ac54664736f6c63430008040033",
  "devdoc": {
    "kind": "dev",
    "methods": {
      "add(uint256,address)": {
        "params": {
          "_asset": "Address of the ERC-20 token.",
          "allocPoint": "AP of the new pool."
        }
      },
      "harvest(address,address,uint256)": {
        "params": {
          "asset": "Asset address",
          "to": "Receiver of REWARD_TOKEN rewards."
        }
      },
      "initialize(address,address,address)": {
        "params": {
          "_rewardToken": "The REWARD_TOKEN token contract address."
        }
      },
      "pendingSushi(address,address)": {
        "params": {
          "_asset": "Address of the ERC-20 token.",
          "_user": "Address of user."
        },
        "returns": {
          "pending": "REWARD_TOKEN reward for a given user."
        }
      },
      "resetAmount(address,address)": {
        "params": {
          "asset": "Asset address",
          "to": "The address of the user whose information will be cleared"
        }
      },
      "rewardsBetweenBlocks(uint256,uint256)": {
        "details": "returns total amount of rewards allocated to the all pools on the rage (startBlock, endBlock]      i.e. excluding startBlock but including endBlock"
      },
      "set(address,uint256)": {
        "params": {
          "_allocPoint": "New AP of the pool.",
          "_asset": "Address of the ERC-20 token."
        }
      },
      "updatePool(address)": {
        "params": {
          "asset": "Asset address"
        },
        "returns": {
          "pool": "Returns the pool that was updated."
        }
      }
    },
    "stateVariables": {
      "totalAllocPoint": {
        "details": "Total allocation points. Must be the sum of all allocation points in all pools. The good practice, to always keep this variable is equal 1000."
      }
    },
    "version": 1
  },
  "userdoc": {
    "kind": "user",
    "methods": {
      "REWARD_TOKEN()": {
        "notice": "Address of REWARD_TOKEN contract."
      },
      "add(uint256,address)": {
        "notice": "Add a new reward pool. Can only be called by the owner. DO NOT add the same LP token more than once."
      },
      "decreaseAmount(address,address,uint256)": {
        "notice": "Analogues to MVC2 Withdraw method, that can be called only by trusted address that is trusted to honestly calc how many \"virtual\" tokens have to be allocated for each user."
      },
      "harvest(address,address,uint256)": {
        "notice": "Harvest proceeds for transaction sender to `to`."
      },
      "increaseAmount(address,address,uint256,uint256)": {
        "notice": "analogues to MCV2 Deposit method, but can be called only by trusted address"
      },
      "pendingSushi(address,address)": {
        "notice": "View function to see pending REWARD_TOKEN on frontend."
      },
      "poolInfo(address)": {
        "notice": "Info of each MCV2 pool. PoolInfo memory pool = poolInfo[_pid]"
      },
      "resetAmount(address,address)": {
        "notice": "Withdraw without caring about rewards. EMERGENCY ONLY."
      },
      "set(address,uint256)": {
        "notice": "Update the given pool's REWARD_TOKEN allocation point. Can only be called by the owner."
      },
      "updateAllPools()": {
        "notice": "Update reward variables for all pools. Be careful of gas spending!"
      },
      "updatePool(address)": {
        "notice": "Update reward variables of the given pool."
      },
      "userInfo(address,address)": {
        "notice": "Info of each user that stakes tokens. userInfo[_asset][_user]"
      }
    },
    "notice": "This contract is based on MVC2, but uses \"virtual\" balances instead of storing real ERC20 tokens and uses address of this assets instead of pid. Rewards that are distributed have to be deposited using refillReward(uint256 amount, uint64 endBlock)",
    "version": 1
  },
  "storageLayout": {
    "storage": [
      {
        "astId": 454,
        "contract": "contracts/reward/RewardChefV2.sol:RewardChefV2",
        "label": "_initialized",
        "offset": 0,
        "slot": "0",
        "type": "t_bool"
      },
      {
        "astId": 457,
        "contract": "contracts/reward/RewardChefV2.sol:RewardChefV2",
        "label": "_initializing",
        "offset": 1,
        "slot": "0",
        "type": "t_bool"
      },
      {
        "astId": 4355,
        "contract": "contracts/reward/RewardChefV2.sol:RewardChefV2",
        "label": "ACCESS_CONTROL_SINGLETON",
        "offset": 2,
        "slot": "0",
        "type": "t_contract(ISuAccessControl)7493"
      },
      {
        "astId": 13902,
        "contract": "contracts/reward/RewardChefV2.sol:RewardChefV2",
        "label": "poolInfo",
        "offset": 0,
        "slot": "1",
        "type": "t_mapping(t_address,t_struct(PoolInfo)7287_storage)"
      },
      {
        "astId": 13906,
        "contract": "contracts/reward/RewardChefV2.sol:RewardChefV2",
        "label": "assetSet",
        "offset": 0,
        "slot": "2",
        "type": "t_struct(AddressSet)2156_storage"
      },
      {
        "astId": 13914,
        "contract": "contracts/reward/RewardChefV2.sol:RewardChefV2",
        "label": "userInfo",
        "offset": 0,
        "slot": "4",
        "type": "t_mapping(t_address,t_mapping(t_address,t_struct(UserInfo)7298_storage))"
      },
      {
        "astId": 13918,
        "contract": "contracts/reward/RewardChefV2.sol:RewardChefV2",
        "label": "totalAllocPoint",
        "offset": 0,
        "slot": "5",
        "type": "t_uint256"
      },
      {
        "astId": 13926,
        "contract": "contracts/reward/RewardChefV2.sol:RewardChefV2",
        "label": "REWARD_TOKEN",
        "offset": 0,
        "slot": "6",
        "type": "t_contract(IERC20Upgradeable)658"
      },
      {
        "astId": 13929,
        "contract": "contracts/reward/RewardChefV2.sol:RewardChefV2",
        "label": "ORACLE",
        "offset": 0,
        "slot": "7",
        "type": "t_contract(ISuOracle)7885"
      },
      {
        "astId": 13931,
        "contract": "contracts/reward/RewardChefV2.sol:RewardChefV2",
        "label": "rewardPerBlock",
        "offset": 0,
        "slot": "8",
        "type": "t_uint256"
      },
      {
        "astId": 13934,
        "contract": "contracts/reward/RewardChefV2.sol:RewardChefV2",
        "label": "rewardEndBlock",
        "offset": 0,
        "slot": "9",
        "type": "t_uint256"
      },
      {
        "astId": 14063,
        "contract": "contracts/reward/RewardChefV2.sol:RewardChefV2",
        "label": "multiplicator1e18ForLockupPeriod",
        "offset": 0,
        "slot": "10",
        "type": "t_mapping(t_uint256,t_uint256)"
      },
      {
        "astId": 14066,
        "contract": "contracts/reward/RewardChefV2.sol:RewardChefV2",
        "label": "possibleLockupPeriodsSeconds",
        "offset": 0,
        "slot": "11",
        "type": "t_struct(UintSet)2313_storage"
      }
    ],
    "types": {
      "t_address": {
        "encoding": "inplace",
        "label": "address",
        "numberOfBytes": "20"
      },
      "t_array(t_bytes32)dyn_storage": {
        "base": "t_bytes32",
        "encoding": "dynamic_array",
        "label": "bytes32[]",
        "numberOfBytes": "32"
      },
      "t_bool": {
        "encoding": "inplace",
        "label": "bool",
        "numberOfBytes": "1"
      },
      "t_bytes32": {
        "encoding": "inplace",
        "label": "bytes32",
        "numberOfBytes": "32"
      },
      "t_contract(IERC20Upgradeable)658": {
        "encoding": "inplace",
        "label": "contract IERC20Upgradeable",
        "numberOfBytes": "20"
      },
      "t_contract(ISuAccessControl)7493": {
        "encoding": "inplace",
        "label": "contract ISuAccessControl",
        "numberOfBytes": "20"
      },
      "t_contract(ISuOracle)7885": {
        "encoding": "inplace",
        "label": "contract ISuOracle",
        "numberOfBytes": "20"
      },
      "t_int256": {
        "encoding": "inplace",
        "label": "int256",
        "numberOfBytes": "32"
      },
      "t_mapping(t_address,t_mapping(t_address,t_struct(UserInfo)7298_storage))": {
        "encoding": "mapping",
        "key": "t_address",
        "label": "mapping(address => mapping(address => struct IRewardChefV2.UserInfo))",
        "numberOfBytes": "32",
        "value": "t_mapping(t_address,t_struct(UserInfo)7298_storage)"
      },
      "t_mapping(t_address,t_struct(PoolInfo)7287_storage)": {
        "encoding": "mapping",
        "key": "t_address",
        "label": "mapping(address => struct IRewardChefV2.PoolInfo)",
        "numberOfBytes": "32",
        "value": "t_struct(PoolInfo)7287_storage"
      },
      "t_mapping(t_address,t_struct(UserInfo)7298_storage)": {
        "encoding": "mapping",
        "key": "t_address",
        "label": "mapping(address => struct IRewardChefV2.UserInfo)",
        "numberOfBytes": "32",
        "value": "t_struct(UserInfo)7298_storage"
      },
      "t_mapping(t_bytes32,t_uint256)": {
        "encoding": "mapping",
        "key": "t_bytes32",
        "label": "mapping(bytes32 => uint256)",
        "numberOfBytes": "32",
        "value": "t_uint256"
      },
      "t_mapping(t_uint256,t_uint256)": {
        "encoding": "mapping",
        "key": "t_uint256",
        "label": "mapping(uint256 => uint256)",
        "numberOfBytes": "32",
        "value": "t_uint256"
      },
      "t_struct(AddressSet)2156_storage": {
        "encoding": "inplace",
        "label": "struct EnumerableSetUpgradeable.AddressSet",
        "members": [
          {
            "astId": 2155,
            "contract": "contracts/reward/RewardChefV2.sol:RewardChefV2",
            "label": "_inner",
            "offset": 0,
            "slot": "0",
            "type": "t_struct(Set)1855_storage"
          }
        ],
        "numberOfBytes": "64"
      },
      "t_struct(PoolInfo)7287_storage": {
        "encoding": "inplace",
        "label": "struct IRewardChefV2.PoolInfo",
        "members": [
          {
            "astId": 7280,
            "contract": "contracts/reward/RewardChefV2.sol:RewardChefV2",
            "label": "accSushiPerShare",
            "offset": 0,
            "slot": "0",
            "type": "t_uint128"
          },
          {
            "astId": 7282,
            "contract": "contracts/reward/RewardChefV2.sol:RewardChefV2",
            "label": "lastRewardBlock",
            "offset": 16,
            "slot": "0",
            "type": "t_uint64"
          },
          {
            "astId": 7284,
            "contract": "contracts/reward/RewardChefV2.sol:RewardChefV2",
            "label": "allocPoint",
            "offset": 24,
            "slot": "0",
            "type": "t_uint64"
          },
          {
            "astId": 7286,
            "contract": "contracts/reward/RewardChefV2.sol:RewardChefV2",
            "label": "lpSupply",
            "offset": 0,
            "slot": "1",
            "type": "t_uint256"
          }
        ],
        "numberOfBytes": "64"
      },
      "t_struct(Set)1855_storage": {
        "encoding": "inplace",
        "label": "struct EnumerableSetUpgradeable.Set",
        "members": [
          {
            "astId": 1850,
            "contract": "contracts/reward/RewardChefV2.sol:RewardChefV2",
            "label": "_values",
            "offset": 0,
            "slot": "0",
            "type": "t_array(t_bytes32)dyn_storage"
          },
          {
            "astId": 1854,
            "contract": "contracts/reward/RewardChefV2.sol:RewardChefV2",
            "label": "_indexes",
            "offset": 0,
            "slot": "1",
            "type": "t_mapping(t_bytes32,t_uint256)"
          }
        ],
        "numberOfBytes": "64"
      },
      "t_struct(UintSet)2313_storage": {
        "encoding": "inplace",
        "label": "struct EnumerableSetUpgradeable.UintSet",
        "members": [
          {
            "astId": 2312,
            "contract": "contracts/reward/RewardChefV2.sol:RewardChefV2",
            "label": "_inner",
            "offset": 0,
            "slot": "0",
            "type": "t_struct(Set)1855_storage"
          }
        ],
        "numberOfBytes": "64"
      },
      "t_struct(UserInfo)7298_storage": {
        "encoding": "inplace",
        "label": "struct IRewardChefV2.UserInfo",
        "members": [
          {
            "astId": 7289,
            "contract": "contracts/reward/RewardChefV2.sol:RewardChefV2",
            "label": "amount",
            "offset": 0,
            "slot": "0",
            "type": "t_uint256"
          },
          {
            "astId": 7291,
            "contract": "contracts/reward/RewardChefV2.sol:RewardChefV2",
            "label": "rewardDebt",
            "offset": 0,
            "slot": "1",
            "type": "t_int256"
          },
          {
            "astId": 7293,
            "contract": "contracts/reward/RewardChefV2.sol:RewardChefV2",
            "label": "multiplicator1e18",
            "offset": 0,
            "slot": "2",
            "type": "t_uint256"
          },
          {
            "astId": 7295,
            "contract": "contracts/reward/RewardChefV2.sol:RewardChefV2",
            "label": "lockupPeriodSeconds",
            "offset": 0,
            "slot": "3",
            "type": "t_uint256"
          },
          {
            "astId": 7297,
            "contract": "contracts/reward/RewardChefV2.sol:RewardChefV2",
            "label": "lockupStartTimestamp",
            "offset": 0,
            "slot": "4",
            "type": "t_uint256"
          }
        ],
        "numberOfBytes": "160"
      },
      "t_uint128": {
        "encoding": "inplace",
        "label": "uint128",
        "numberOfBytes": "16"
      },
      "t_uint256": {
        "encoding": "inplace",
        "label": "uint256",
        "numberOfBytes": "32"
      },
      "t_uint64": {
        "encoding": "inplace",
        "label": "uint64",
        "numberOfBytes": "8"
      }
    }
  }
}