{
  "address": "0x70bDA08DBe07363968e9EE53d899dFE48560605B",
  "abi": [
    {
      "inputs": [
        {
          "internalType": "address",
          "name": "_authControl",
          "type": "address"
        },
        {
          "internalType": "address[]",
          "name": "assets",
          "type": "address[]"
        }
      ],
      "stateMutability": "nonpayable",
      "type": "constructor"
    },
    {
      "anonymous": false,
      "inputs": [
        {
          "indexed": true,
          "internalType": "address",
          "name": "asset",
          "type": "address"
        }
      ],
      "name": "CollateralAdded",
      "type": "event"
    },
    {
      "anonymous": false,
      "inputs": [
        {
          "indexed": true,
          "internalType": "address",
          "name": "asset",
          "type": "address"
        }
      ],
      "name": "CollateralRemoved",
      "type": "event"
    },
    {
      "inputs": [],
      "name": "ACCESS_CONTROL_SINGLETON",
      "outputs": [
        {
          "internalType": "contract ISuAccessControl",
          "name": "",
          "type": "address"
        }
      ],
      "stateMutability": "view",
      "type": "function"
    },
    {
      "inputs": [],
      "name": "MINTER_ROLE",
      "outputs": [
        {
          "internalType": "bytes32",
          "name": "",
          "type": "bytes32"
        }
      ],
      "stateMutability": "view",
      "type": "function"
    },
    {
      "inputs": [],
      "name": "VAULT_ACCESS_ROLE",
      "outputs": [
        {
          "internalType": "bytes32",
          "name": "",
          "type": "bytes32"
        }
      ],
      "stateMutability": "view",
      "type": "function"
    },
    {
      "inputs": [
        {
          "internalType": "address",
          "name": "asset",
          "type": "address"
        }
      ],
      "name": "addCollateral",
      "outputs": [],
      "stateMutability": "nonpayable",
      "type": "function"
    },
    {
      "inputs": [
        {
          "internalType": "address",
          "name": "",
          "type": "address"
        }
      ],
      "name": "collateralId",
      "outputs": [
        {
          "internalType": "uint256",
          "name": "",
          "type": "uint256"
        }
      ],
      "stateMutability": "view",
      "type": "function"
    },
    {
      "inputs": [
        {
          "internalType": "uint256",
          "name": "",
          "type": "uint256"
        }
      ],
      "name": "collateralList",
      "outputs": [
        {
          "internalType": "address",
          "name": "",
          "type": "address"
        }
      ],
      "stateMutability": "view",
      "type": "function"
    },
    {
      "inputs": [],
      "name": "collaterals",
      "outputs": [
        {
          "internalType": "address[]",
          "name": "",
          "type": "address[]"
        }
      ],
      "stateMutability": "view",
      "type": "function"
    },
    {
      "inputs": [],
      "name": "collateralsCount",
      "outputs": [
        {
          "internalType": "uint256",
          "name": "",
          "type": "uint256"
        }
      ],
      "stateMutability": "view",
      "type": "function"
    },
    {
      "inputs": [
        {
          "internalType": "address",
          "name": "asset",
          "type": "address"
        }
      ],
      "name": "isCollateral",
      "outputs": [
        {
          "internalType": "bool",
          "name": "",
          "type": "bool"
        }
      ],
      "stateMutability": "view",
      "type": "function"
    },
    {
      "inputs": [
        {
          "internalType": "address",
          "name": "asset",
          "type": "address"
        }
      ],
      "name": "removeCollateral",
      "outputs": [],
      "stateMutability": "nonpayable",
      "type": "function"
    }
  ],
  "transactionHash": "0xa7f8d78be22281476bf5bd60ed03f9a95a6313727bb17c403ce31eb09c8e8521",
  "args": [
    "0x8bCe54ff8aB45CB075b044AE117b8fD91F9351aB",
    []
  ],
  "numDeployments": 1,
  "solcInputHash": "d1c3e992972545e414ac7f62b849d9a1",
  "bytecode": "0x60a06040523480156200001157600080fd5b5060405162000d3838038062000d388339810160408190526200003491620002a9565b6001600160601b0319606083901b1660805260005b815181101562000204576200008c8282815181106200007857634e487b7160e01b600052603260045260246000fd5b60200260200101516200020d60201b60201c565b15620000de5760405162461bcd60e51b815260206004820152601c60248201527f556e69742050726f746f636f6c3a20414c52454144595f455849535400000000604482015260640160405180910390fd5b60018282815181106200010157634e487b7160e01b600052603260045260246000fd5b6020908102919091018101518254600181018455600093845291832090910180546001600160a01b0319166001600160a01b03909216919091179055825182919081908590849081106200016557634e487b7160e01b600052603260045260246000fd5b60200260200101516001600160a01b03166001600160a01b0316815260200190815260200160002081905550818181518110620001b257634e487b7160e01b600052603260045260246000fd5b60200260200101516001600160a01b03167f7db05e63d635a68c62fd7fd8f3107ae8ab584a383e102d1bd8a40f4c977e465f60405160405180910390a280620001fb8162000394565b91505062000049565b505050620003d2565b6001546000906200022057506000919050565b6001600160a01b038216600090815260208190526040902054151580620002865750816001600160a01b031660016000815481106200026f57634e487b7160e01b600052603260045260246000fd5b6000918252602090912001546001600160a01b0316145b92915050565b80516001600160a01b0381168114620002a457600080fd5b919050565b60008060408385031215620002bc578182fd5b620002c7836200028c565b602084810151919350906001600160401b0380821115620002e6578384fd5b818601915086601f830112620002fa578384fd5b8151818111156200030f576200030f620003bc565b8060051b604051601f19603f83011681018181108582111715620003375762000337620003bc565b604052828152858101935084860182860187018b101562000356578788fd5b8795505b8386101562000383576200036e816200028c565b8552600195909501949386019386016200035a565b508096505050505050509250929050565b6000600019821415620003b557634e487b7160e01b81526011600452602481fd5b5060010190565b634e487b7160e01b600052604160045260246000fd5b60805160601c61093a620003fe6000396000818160c8015281816103220152610622015261093a6000f3fe608060405234801561001057600080fd5b50600436106100be5760003560e01c80634113e5ca11610076578063c99d3a061161005b578063c99d3a06146101af578063d5391393146101c4578063f0d2d5a8146101eb57600080fd5b80634113e5ca1461017a5780634f7304551461018f57600080fd5b806314c376dc116100a757806314c376dc1461012a5780631bcff06c1461015f5780633024a9121461016757600080fd5b806303ee9f22146100c35780630ee21e5414610107575b600080fd5b6100ea7f000000000000000000000000000000000000000000000000000000000000000081565b6040516001600160a01b0390911681526020015b60405180910390f35b61011a61011536600461082e565b6101fe565b60405190151581526020016100fe565b6101517fe965846df3dd5b1dfa65f58e31477079e90140e0908b6dd31b5aead5a57cf36581565b6040519081526020016100fe565b600154610151565b6100ea61017536600461087c565b61027a565b6101826102a4565b6040516100fe9190610894565b61015161019d36600461082e565b60006020819052908152604090205481565b6101c26101bd36600461082e565b610306565b005b6101517f9f2df0fed2c77648de5860a4cc508cd0818c85b8b8a1ab4ceeef8d981c8956a681565b6101c26101f936600461082e565b610606565b60015460009061021057506000919050565b6001600160a01b0382166000908152602081905260409020541515806102745750816001600160a01b0316600160008154811061025d57634e487b7160e01b600052603260045260246000fd5b6000918252602090912001546001600160a01b0316145b92915050565b6001818154811061028a57600080fd5b6000918252602090912001546001600160a01b0316905081565b606060018054806020026020016040519081016040528092919081815260200182805480156102fc57602002820191906000526020600020905b81546001600160a01b031681526001909101906020018083116102de575b5050505050905090565b604051632474521560e21b8152600060048201523360248201527f00000000000000000000000000000000000000000000000000000000000000006001600160a01b0316906391d148549060440160206040518083038186803b15801561036c57600080fd5b505afa158015610380573d6000803e3d6000fd5b505050506040513d601f19601f820116820180604052508101906103a4919061085c565b6103f55760405162461bcd60e51b815260206004820152601d60248201527f5375417574683a206f6e6c794f776e657220415554485f4641494c454400000060448201526064015b60405180910390fd5b6001600160a01b03811661044b5760405162461bcd60e51b815260206004820152601b60248201527f556e69742050726f746f636f6c3a205a45524f5f41444452455353000000000060448201526064016103ec565b610454816101fe565b6104a05760405162461bcd60e51b815260206004820152601d60248201527f556e69742050726f746f636f6c3a20444f45535f4e4f545f455849535400000060448201526064016103ec565b6001600160a01b0381166000908152602081905260408120805490829055600180549192916104cf91906108e1565b905080821461057f576000600182815481106104fb57634e487b7160e01b600052603260045260246000fd5b600091825260209091200154600180546001600160a01b03909216925082918590811061053857634e487b7160e01b600052603260045260246000fd5b6000918252602080832091909101805473ffffffffffffffffffffffffffffffffffffffff19166001600160a01b0394851617905592909116815290819052604090208290555b600180548061059e57634e487b7160e01b600052603160045260246000fd5b6000828152602081208201600019908101805473ffffffffffffffffffffffffffffffffffffffff191690559091019091556040516001600160a01b038516917fd89d2ee68ab04dca0193f48a4aff55e20fa5ec0429a8a8c1c51b8dad6178a59391a2505050565b604051632474521560e21b8152600060048201523360248201527f00000000000000000000000000000000000000000000000000000000000000006001600160a01b0316906391d148549060440160206040518083038186803b15801561066c57600080fd5b505afa158015610680573d6000803e3d6000fd5b505050506040513d601f19601f820116820180604052508101906106a4919061085c565b6106f05760405162461bcd60e51b815260206004820152601d60248201527f5375417574683a206f6e6c794f776e657220415554485f4641494c454400000060448201526064016103ec565b6001600160a01b0381166107465760405162461bcd60e51b815260206004820152601b60248201527f556e69742050726f746f636f6c3a205a45524f5f41444452455353000000000060448201526064016103ec565b61074f816101fe565b1561079c5760405162461bcd60e51b815260206004820152601c60248201527f556e69742050726f746f636f6c3a20414c52454144595f45584953540000000060448201526064016103ec565b600180546001600160a01b03831660008181526020819052604080822084905583850185559381527fb10e2d527612073b26eecdfd717e6a320cf44b4afac2b0732d9fcbe2b7fa0cf6909201805473ffffffffffffffffffffffffffffffffffffffff19168217905591517f7db05e63d635a68c62fd7fd8f3107ae8ab584a383e102d1bd8a40f4c977e465f9190a250565b60006020828403121561083f578081fd5b81356001600160a01b0381168114610855578182fd5b9392505050565b60006020828403121561086d578081fd5b81518015158114610855578182fd5b60006020828403121561088d578081fd5b5035919050565b6020808252825182820181905260009190848201906040850190845b818110156108d55783516001600160a01b0316835292840192918401916001016108b0565b50909695505050505050565b6000828210156108ff57634e487b7160e01b81526011600452602481fd5b50039056fea2646970667358221220ba7104f1aa973522668080fe9a8e2c6af1ffbd557dfdcc511980a3aeb864e1e364736f6c63430008040033",
  "devdoc": {
    "kind": "dev",
    "methods": {},
    "version": 1
  },
  "userdoc": {
    "kind": "user",
    "methods": {},
    "version": 1
  },
  "storageLayout": {
    "storage": [
      {
        "astId": 4843,
        "contract": "contracts/lending/SuCollateralRegistry.sol:SuCollateralRegistry",
        "label": "collateralId",
        "offset": 0,
        "slot": "0",
        "type": "t_mapping(t_address,t_uint256)"
      },
      {
        "astId": 4846,
        "contract": "contracts/lending/SuCollateralRegistry.sol:SuCollateralRegistry",
        "label": "collateralList",
        "offset": 0,
        "slot": "1",
        "type": "t_array(t_address)dyn_storage"
      }
    ],
    "types": {
      "t_address": {
        "encoding": "inplace",
        "label": "address",
        "numberOfBytes": "20"
      },
      "t_array(t_address)dyn_storage": {
        "base": "t_address",
        "encoding": "dynamic_array",
        "label": "address[]",
        "numberOfBytes": "32"
      },
      "t_mapping(t_address,t_uint256)": {
        "encoding": "mapping",
        "key": "t_address",
        "label": "mapping(address => uint256)",
        "numberOfBytes": "32",
        "value": "t_uint256"
      },
      "t_uint256": {
        "encoding": "inplace",
        "label": "uint256",
        "numberOfBytes": "32"
      }
    }
  }
}