{
  "address": "0x68B1D87F95878fE05B998F19b66F4baba5De1aed",
  "abi": [
    {
      "inputs": [],
      "name": "IncorrectDiscount",
      "type": "error"
    },
    {
      "inputs": [],
      "name": "LessThanMinimum",
      "type": "error"
    },
    {
      "inputs": [],
      "name": "NotEnoughAmount",
      "type": "error"
    },
    {
      "inputs": [],
      "name": "NotEnoughDeferredAmount",
      "type": "error"
    },
    {
      "inputs": [],
      "name": "TooMuchAmount",
      "type": "error"
    },
    {
      "inputs": [],
      "name": "ZeroAddress",
      "type": "error"
    },
    {
      "inputs": [],
      "name": "ACCESS_CONTROL_SINGLETON",
      "outputs": [
        {
          "internalType": "contract ISuAccessControl",
          "name": "",
          "type": "address"
        }
      ],
      "stateMutability": "view",
      "type": "function"
    },
    {
      "inputs": [],
      "name": "LIQUIDATION_ACCESS_ROLE",
      "outputs": [
        {
          "internalType": "bytes32",
          "name": "",
          "type": "bytes32"
        }
      ],
      "stateMutability": "view",
      "type": "function"
    },
    {
      "inputs": [],
      "name": "MINTER_ROLE",
      "outputs": [
        {
          "internalType": "bytes32",
          "name": "",
          "type": "bytes32"
        }
      ],
      "stateMutability": "view",
      "type": "function"
    },
    {
      "inputs": [],
      "name": "VAULT_ACCESS_ROLE",
      "outputs": [
        {
          "internalType": "bytes32",
          "name": "",
          "type": "bytes32"
        }
      ],
      "stateMutability": "view",
      "type": "function"
    },
    {
      "inputs": [
        {
          "internalType": "address",
          "name": "asset",
          "type": "address"
        },
        {
          "internalType": "enum DiscountType",
          "name": "discountType",
          "type": "uint8"
        },
        {
          "internalType": "uint256",
          "name": "liquidationBlock",
          "type": "uint256"
        }
      ],
      "name": "calculateDiscountE18",
      "outputs": [
        {
          "internalType": "uint256",
          "name": "",
          "type": "uint256"
        }
      ],
      "stateMutability": "view",
      "type": "function"
    },
    {
      "inputs": [
        {
          "internalType": "address",
          "name": "asset",
          "type": "address"
        },
        {
          "internalType": "address",
          "name": "owner",
          "type": "address"
        }
      ],
      "name": "calculateLiquidationDiscount",
      "outputs": [
        {
          "internalType": "uint256",
          "name": "",
          "type": "uint256"
        }
      ],
      "stateMutability": "view",
      "type": "function"
    },
    {
      "inputs": [
        {
          "internalType": "address",
          "name": "asset",
          "type": "address"
        },
        {
          "internalType": "enum DiscountType",
          "name": "discountType",
          "type": "uint8"
        }
      ],
      "name": "getDiscountInfo",
      "outputs": [
        {
          "components": [
            {
              "internalType": "uint256",
              "name": "firstBlockE18",
              "type": "uint256"
            },
            {
              "internalType": "uint256",
              "name": "stepPerBlockE18",
              "type": "uint256"
            }
          ],
          "internalType": "struct DiscountInfo",
          "name": "discountInfo",
          "type": "tuple"
        }
      ],
      "stateMutability": "view",
      "type": "function"
    },
    {
      "inputs": [
        {
          "internalType": "address",
          "name": "_authControl",
          "type": "address"
        }
      ],
      "name": "init",
      "outputs": [],
      "stateMutability": "nonpayable",
      "type": "function"
    },
    {
      "inputs": [
        {
          "internalType": "address",
          "name": "_authControl",
          "type": "address"
        },
        {
          "internalType": "address",
          "name": "_suManager",
          "type": "address"
        },
        {
          "internalType": "address",
          "name": "_suOracle",
          "type": "address"
        },
        {
          "internalType": "address",
          "name": "_suReward",
          "type": "address"
        }
      ],
      "name": "initialize",
      "outputs": [],
      "stateMutability": "nonpayable",
      "type": "function"
    },
    {
      "inputs": [
        {
          "internalType": "address",
          "name": "asset",
          "type": "address"
        },
        {
          "internalType": "enum DiscountType",
          "name": "discountType",
          "type": "uint8"
        },
        {
          "components": [
            {
              "internalType": "uint256",
              "name": "firstBlockE18",
              "type": "uint256"
            },
            {
              "internalType": "uint256",
              "name": "stepPerBlockE18",
              "type": "uint256"
            }
          ],
          "internalType": "struct DiscountInfo",
          "name": "discountInfo",
          "type": "tuple"
        }
      ],
      "name": "setDiscountInfo",
      "outputs": [],
      "stateMutability": "nonpayable",
      "type": "function"
    },
    {
      "inputs": [
        {
          "internalType": "address",
          "name": "asset",
          "type": "address"
        },
        {
          "internalType": "address",
          "name": "owner",
          "type": "address"
        },
        {
          "internalType": "address",
          "name": "stablecoinToken",
          "type": "address"
        },
        {
          "internalType": "uint256",
          "name": "stablecoinAmountEDecimal",
          "type": "uint256"
        },
        {
          "internalType": "uint256",
          "name": "minAssetAmountEDecimal",
          "type": "uint256"
        }
      ],
      "name": "swapStablecoinToAsset",
      "outputs": [],
      "stateMutability": "nonpayable",
      "type": "function"
    },
    {
      "inputs": [
        {
          "internalType": "address",
          "name": "asset",
          "type": "address"
        },
        {
          "internalType": "address",
          "name": "owner",
          "type": "address"
        },
        {
          "internalType": "uint256",
          "name": "stablecoinAmountE18",
          "type": "uint256"
        },
        {
          "internalType": "uint256",
          "name": "minAssetAmountEDecimal",
          "type": "uint256"
        }
      ],
      "name": "swapUsdProToAsset",
      "outputs": [],
      "stateMutability": "nonpayable",
      "type": "function"
    },
    {
      "inputs": [
        {
          "internalType": "address",
          "name": "stablecoinToken",
          "type": "address"
        },
        {
          "internalType": "uint256",
          "name": "stablecoinAmountEDecimal",
          "type": "uint256"
        }
      ],
      "name": "swapUsdProToStablecoin",
      "outputs": [],
      "stateMutability": "nonpayable",
      "type": "function"
    }
  ],
  "numDeployments": 1,
  "solcInputHash": "1ee30c392eeeb5c03c3751ea96247c34",
  "bytecode": "0x608060405234801561001057600080fd5b50611e7b806100206000396000f3fe608060405234801561001057600080fd5b50600436106100df5760003560e01c806395bdf6bb1161008c578063d539139311610066578063d5391393146101f1578063dc97e84e14610218578063f4e2ebeb1461023f578063f8c8765e1461025257600080fd5b806395bdf6bb146101b8578063b08c4c8c146101cb578063c3009f36146101de57600080fd5b806319ab453c116100bd57806319ab453c146101645780633599f022146101775780634d2cf8b7146101a557600080fd5b806303ee9f22146100e457806314c376dc1461011a578063190e8c4c1461014f575b600080fd5b6000546100fd906201000090046001600160a01b031681565b6040516001600160a01b0390911681526020015b60405180910390f35b6101417fe965846df3dd5b1dfa65f58e31477079e90140e0908b6dd31b5aead5a57cf36581565b604051908152602001610111565b61016261015d366004611a76565b610265565b005b610162610172366004611983565b610345565b61018a610185366004611ab7565b61041c565b60408051825181526020928301519281019290925201610111565b6101416101b336600461199d565b6104bd565b6101626101c6366004611a22565b61055b565b6101626101d9366004611b68565b6107a2565b6101416101ec366004611b2d565b6108eb565b6101417f9f2df0fed2c77648de5860a4cc508cd0818c85b8b8a1ab4ceeef8d981c8956a681565b6101417f9a9aef7c1247d5fc769b0185c052913e39673da29a880317dfd20ebf86f26a4981565b61016261024d366004611ae0565b6109fa565b6101626102603660046119cf565b610b6d565b600080600061027687878787610ce4565b6002546040517f6bf12d5f0000000000000000000000000000000000000000000000000000000081526001600160a01b038c811660048301528b81166024830152336044830152606482018590526084820184905260a482018690529497509295509093509190911690636bf12d5f9060c401602060405180830381600087803b15801561030357600080fd5b505af1158015610317573d6000803e3d6000fd5b505050506040513d601f19601f8201168201806040525081019061033b9190611b91565b5050505050505050565b600054610100900460ff166103605760005460ff1615610364565b303b155b6103db5760405162461bcd60e51b815260206004820152602e60248201527f496e697469616c697a61626c653a20636f6e747261637420697320616c72656160448201527f647920696e697469616c697a656400000000000000000000000000000000000060648201526084015b60405180910390fd5b600054610100900460ff161580156103fd576000805461ffff19166101011790555b61040682610ebf565b8015610418576000805461ff00191690555b5050565b60408051808201909152600080825260208201526001600160a01b03831660009081526001602052604081209083600281111561046957634e487b7160e01b600052602160045260246000fd5b600281111561048857634e487b7160e01b600052602160045260246000fd5b815260200190815260200160002060405180604001604052908160008201548152602001600182015481525050905092915050565b6002546040516304c9a55560e41b81526001600160a01b03848116600483015283811660248301526000928392911690634c9a55509060440160206040518083038186803b15801561050e57600080fd5b505afa158015610522573d6000803e3d6000fd5b505050506040513d601f19601f820116820180604052508101906105469190611bb1565b9050610553848483610f7c565b949350505050565b6003546040516306addfb360e31b81526001600160a01b038581166004830152600092169063356efd989060240160206040518083038186803b1580156105a157600080fd5b505afa1580156105b5573d6000803e3d6000fd5b505050506040513d601f19601f820116820180604052508101906105d99190611bb1565b90506000670de0b6b3a76400006105f08584611cff565b6105fa9190611cdf565b9050600080600061060d8a8a8689610ce4565b919450925090506000856106218385611cc7565b61063390670de0b6b3a7640000611cff565b61063d9190611cdf565b905061064b89333084610fb6565b6002546040516304c9a55560e41b81526001600160a01b038d811660048301528c811660248301526000921690634c9a55509060440160206040518083038186803b15801561069957600080fd5b505afa1580156106ad573d6000803e3d6000fd5b505050506040513d601f19601f820116820180604052508101906106d19190611bb1565b90506106df8a828686611058565b6002546040517f6f70e66f0000000000000000000000000000000000000000000000000000000081526001600160a01b038e811660048301528d81166024830152336044830152606482018790526084820188905290911690636f70e66f9060a401602060405180830381600087803b15801561075b57600080fd5b505af115801561076f573d6000803e3d6000fd5b505050506040513d601f19601f820116820180604052508101906107939190611b91565b50505050505050505050505050565b6003546040516306addfb360e31b81526001600160a01b038481166004830152600092670de0b6b3a76400009285929091169063356efd989060240160206040518083038186803b1580156107f657600080fd5b505afa15801561080a573d6000803e3d6000fd5b505050506040513d601f19601f8201168201806040525081019061082e9190611bb1565b6108389190611cff565b6108429190611cdf565b905060008061085185846110b4565b6002546040517f8cd2e0c700000000000000000000000000000000000000000000000000000000815233600482015260248101849052604481018390529294509092506001600160a01b031690638cd2e0c790606401600060405180830381600087803b1580156108c157600080fd5b505af11580156108d5573d6000803e3d6000fd5b505050506108e4853386611293565b5050505050565b6001600160a01b038316600090815260016020526040812081908185600281111561092657634e487b7160e01b600052602160045260246000fd5b600281111561094557634e487b7160e01b600052602160045260246000fd5b81526020019081526020016000209050600083436109639190611d1e565b905080610975576000925050506109f3565b806001141561098757505490506109f3565b60008560028111156109a957634e487b7160e01b600052602160045260246000fd5b14156109d5576109cc8166b1a2bc2ec500008460010154856001015460026112e1565b925050506109f3565b6109cc81670de0b6b3a76400008460000154856001015460016112e1565b9392505050565b600080546040517f91d1485400000000000000000000000000000000000000000000000000000000815260048101929092523360248301526201000090046001600160a01b0316906391d148549060440160206040518083038186803b158015610a6357600080fd5b505afa158015610a77573d6000803e3d6000fd5b505050506040513d601f19601f82011682018060405250810190610a9b9190611b91565b610ae75760405162461bcd60e51b815260206004820152601d60248201527f5375417574683a206f6e6c794f776e657220415554485f4641494c454400000060448201526064016103d2565b610af1828261131f565b6001600160a01b03831660009081526001602052604081208291846002811115610b2b57634e487b7160e01b600052602160045260246000fd5b6002811115610b4a57634e487b7160e01b600052602160045260246000fd5b8152602080820192909252604001600020823581559082013560018201556108e4565b600054610100900460ff16610b885760005460ff1615610b8c565b303b155b610bfe5760405162461bcd60e51b815260206004820152602e60248201527f496e697469616c697a61626c653a20636f6e747261637420697320616c72656160448201527f647920696e697469616c697a656400000000000000000000000000000000000060648201526084016103d2565b600054610100900460ff16158015610c20576000805461ffff19166101011790555b610c2985610345565b6001600160a01b038416610c505760405163d92e233d60e01b815260040160405180910390fd5b6001600160a01b038316610c775760405163d92e233d60e01b815260040160405180910390fd5b600280546001600160a01b038087167fffffffffffffffffffffffff00000000000000000000000000000000000000009283161790925560038054868416908316179055600480549285169290911691909117905580156108e4576000805461ff00191690555050505050565b6002546040517fb33dc1900000000000000000000000000000000000000000000000000000000081526001600160a01b0386811660048301528581166024830152600092839283928392839283929091169063b33dc1909060440160606040518083038186803b158015610d5757600080fd5b505afa158015610d6b573d6000803e3d6000fd5b505050506040513d601f19601f82011682018060405250810190610d8f9190611bc9565b925092509250610db96040518060600160405280602c8152602001611de7602c91398484846113ac565b6000610dc68b8b86610f7c565b6003546040516306addfb360e31b81526001600160a01b038e811660048301529293506000929091169063356efd989060240160206040518083038186803b158015610e1157600080fd5b505afa158015610e25573d6000803e3d6000fd5b505050506040513d601f19601f82011682018060405250810190610e499190611bb1565b9050600080610e5a838d888761140e565b915091508a821015610e98576040517fe4e014cd00000000000000000000000000000000000000000000000000000000815260040160405180910390fd5b600080610ea5878461157e565b949c509a5092985050505050505050509450945094915050565b600054610100900460ff16610f3c5760405162461bcd60e51b815260206004820152602b60248201527f496e697469616c697a61626c653a20636f6e7472616374206973206e6f74206960448201527f6e697469616c697a696e6700000000000000000000000000000000000000000060648201526084016103d2565b600080546001600160a01b0390921662010000027fffffffffffffffffffff0000000000000000000000000000000000000000ffff909216919091179055565b60045460009081906001600160a01b03858116911614610f9d576000610fa0565b60015b9050610fad8582856108eb565b95945050505050565b6040516001600160a01b03808516602483015283166044820152606481018290526110529085907f23b872dd00000000000000000000000000000000000000000000000000000000906084015b60408051601f198184030181529190526020810180516001600160e01b03167fffffffff00000000000000000000000000000000000000000000000000000000909316929092179091526115a8565b50505050565b6001600160a01b038416600090815260056020526040812060018101805491928592611085908490611cc7565b92505081905550818160020160008282546110a09190611cc7565b909155505080546108e45792909255505050565b600080826110ee576040517fe008b5f900000000000000000000000000000000000000000000000000000000815260040160405180910390fd5b6001600160a01b0384166000908152600560205260409020805461113e576040517f895afd9500000000000000000000000000000000000000000000000000000000815260040160405180910390fd5b600061115086600284600001546108eb565b604080516060810182528454815260018501546020820152600285015491810191909152909150611181908661168d565b909450925083156111a657838260010160008282546111a09190611d1e565b90915550505b82156111c657828260020160008282546111c09190611d1e565b90915550505b60018201541580156111da57506002820154155b15611206576001600160a01b038616600090815260056020526040812081815560018101829055600201555b61121881670de0b6b3a7640000611cc7565b61122a85670de0b6b3a7640000611cff565b6112349190611cdf565b935061124881670de0b6b3a7640000611cc7565b61125a84670de0b6b3a7640000611cff565b6112649190611cdf565b925061128a604051806060016040528060368152602001611db1603691398286866113ac565b50509250929050565b6040516001600160a01b0383166024820152604481018290526112dc9084907fa9059cbb0000000000000000000000000000000000000000000000000000000090606401611003565b505050565b600080836112ef8489611d1e565b6112f99190611cff565b6113039086611cc7565b90508581116113125780611314565b855b979650505050505050565b60008083600281111561134257634e487b7160e01b600052602160045260246000fd5b1415611356575066b1a2bc2ec50000611361565b50670de0b6b3a76400005b813581111580611375575080826020013510155b156112dc576040517f8478aedc00000000000000000000000000000000000000000000000000000000815260040160405180910390fd5b611052848484846040516024016113c69493929190611c98565b60408051601f198184030181529190526020810180516001600160e01b03167f08ee5666000000000000000000000000000000000000000000000000000000001790526116fe565b60008080670de0b6b3a76400006114258689611cff565b61142f9190611cdf565b9050611455604051806060016040528060338152602001611e13603391398689846113ac565b611478604051806060016040528060398152602001611d7860399139878661171f565b600061148582888761177f565b6040805180820190915260208082527f43414c435f424f4e555320737461626c65636f696e2072656d61696e6465723a9082015291985091506114d1906114cc8385611d1e565b6117f6565b60408051808201909152601c81527f43414c435f424f4e555320737461626c65636f696e20626f6e75733a000000006020820152611513906114cc8984611d1e565b6115526040518060400160405280601e81526020017f43414c435f424f4e555320737461626c65636f696e207061796d656e743a0000815250886117f6565b60008861156783670de0b6b3a7640000611cff565b6115719190611cdf565b9997985050505050505050565b6000808383111561159d576115938484611d1e565b90508391506115a1565b8291505b9250929050565b60006115fd826040518060400160405280602081526020017f5361666545524332303a206c6f772d6c6576656c2063616c6c206661696c6564815250856001600160a01b03166118549092919063ffffffff16565b8051909150156112dc578080602001905181019061161b9190611b91565b6112dc5760405162461bcd60e51b815260206004820152602a60248201527f5361666545524332303a204552433230206f7065726174696f6e20646964206e60448201527f6f7420737563636565640000000000000000000000000000000000000000000060648201526084016103d2565b600080836020015183116116a3578291506115a1565b60208401516116b29084611d1e565b925083604001518311156116f2576040517f35e8282000000000000000000000000000000000000000000000000000000000815260040160405180910390fd5b50506020919091015191565b80516a636f6e736f6c652e6c6f67602083016000808483855afa5050505050565b6112dc83838360405160240161173793929190611c73565b60408051601f198184030181529190526020810180516001600160e01b03167f969cdd03000000000000000000000000000000000000000000000000000000001790526116fe565b600080670de0b6b3a76400006117958482611cc7565b61179f9086611cff565b6117a99190611cdf565b9050848111156117ea5750836117c783670de0b6b3a7640000611cc7565b6117d986670de0b6b3a7640000611cff565b6117e39190611cdf565b91506117ee565b8391505b935093915050565b610418828260405160240161180c929190611c51565b60408051601f198184030181529190526020810180516001600160e01b03167f9710a9d0000000000000000000000000000000000000000000000000000000001790526116fe565b60606105538484600085856001600160a01b0385163b6118b65760405162461bcd60e51b815260206004820152601d60248201527f416464726573733a2063616c6c20746f206e6f6e2d636f6e747261637400000060448201526064016103d2565b600080866001600160a01b031685876040516118d29190611c22565b60006040518083038185875af1925050503d806000811461190f576040519150601f19603f3d011682016040523d82523d6000602084013e611914565b606091505b50915091506113148282866060831561192e5750816109f3565b82511561193e5782518084602001fd5b8160405162461bcd60e51b81526004016103d29190611c3e565b80356001600160a01b038116811461196f57600080fd5b919050565b80356003811061196f57600080fd5b600060208284031215611994578081fd5b6109f382611958565b600080604083850312156119af578081fd5b6119b883611958565b91506119c660208401611958565b90509250929050565b600080600080608085870312156119e4578182fd5b6119ed85611958565b93506119fb60208601611958565b9250611a0960408601611958565b9150611a1760608601611958565b905092959194509250565b600080600080600060a08688031215611a39578081fd5b611a4286611958565b9450611a5060208701611958565b9350611a5e60408701611958565b94979396509394606081013594506080013592915050565b60008060008060808587031215611a8b578384fd5b611a9485611958565b9350611aa260208601611958565b93969395505050506040820135916060013590565b60008060408385031215611ac9578182fd5b611ad283611958565b91506119c660208401611974565b60008060008385036080811215611af5578384fd5b611afe85611958565b9350611b0c60208601611974565b92506040603f1982011215611b1f578182fd5b506040840190509250925092565b600080600060608486031215611b41578283fd5b611b4a84611958565b9250611b5860208501611974565b9150604084013590509250925092565b60008060408385031215611b7a578182fd5b611b8383611958565b946020939093013593505050565b600060208284031215611ba2578081fd5b815180151581146109f3578182fd5b600060208284031215611bc2578081fd5b5051919050565b600080600060608486031215611bdd578283fd5b8351925060208401519150604084015190509250925092565b60008151808452611c0e816020860160208601611d35565b601f01601f19169290920160200192915050565b60008251611c34818460208701611d35565b9190910192915050565b6020815260006109f36020830184611bf6565b604081526000611c646040830185611bf6565b90508260208301529392505050565b606081526000611c866060830186611bf6565b60208301949094525060400152919050565b608081526000611cab6080830187611bf6565b6020830195909552506040810192909252606090910152919050565b60008219821115611cda57611cda611d61565b500190565b600082611cfa57634e487b7160e01b81526012600452602481fd5b500490565b6000816000190483118215151615611d1957611d19611d61565b500290565b600082821015611d3057611d30611d61565b500390565b60005b83811015611d50578181015183820152602001611d38565b838111156110525750506000910152565b634e487b7160e01b600052601160045260246000fdfe43414c435f424f4e555320737461626c65636f696e2028737461626c65636f696e416d6f756e744531382c20646973636f756e74453138293a444953434f554e54532028646973636f756e744531382c207375546f52657061796d656e742c207375546f466f756e646174696f6e294c49515549444154494f4e20504152414d532028626c6f636b2c20636f6c6c617465726c2c2064656274293a43414c435f424f4e555320636f6c6c61746572616c28616d6f756e74202a207072696365203d20617373657456616c7565293aa2646970667358221220ad4ab6ec5df3e73395c76f4bd60d4ea98043d2877500d50c17579cc4e6ac16ca64736f6c63430008040033",
  "devdoc": {
    "kind": "dev",
    "methods": {
      "calculateDiscountE18(address,uint8,uint256)": {
        "details": "This is a linear function of the discount change.     Calculates the liquidation discount by passed blocks.",
        "params": {
          "asset": "The address of the main collateral token",
          "discountType": "Determines how aggressively the lending module offers a discount",
          "liquidationBlock": "The block number when the liquidation was triggered"
        },
        "returns": {
          "_0": "Amount of discount in percents, E18 format"
        }
      },
      "calculateLiquidationDiscount(address,address)": {
        "params": {
          "asset": "The address of the collateral token",
          "owner": "The owner of the collateral"
        }
      },
      "getDiscountInfo(address,uint8)": {
        "params": {
          "asset": "The address of the asset token",
          "discountType": "Type of discount determines how aggressively the lending module offers a discount"
        }
      },
      "setDiscountInfo(address,uint8,(uint256,uint256))": {
        "details": "Sets the liquidation discount",
        "params": {
          "asset": "The address of the asset token",
          "discountInfo": "Determines discount percentages depending on a block number",
          "discountType": "Determines how aggressively the lending module offers a discount"
        }
      },
      "swapStablecoinToAsset(address,address,address,uint256,uint256)": {
        "details": "This is a first step of two",
        "params": {
          "asset": "The address of the collateral token",
          "minAssetAmountEDecimal": "The minimum amount of collateral which the liquidator desires to obtain",
          "owner": "The owner of the collateral",
          "stablecoinAmountEDecimal": "The amount of stablecoins for the collateral buyout",
          "stablecoinToken": "The address of the stablecoin token"
        }
      },
      "swapUsdProToAsset(address,address,uint256,uint256)": {
        "params": {
          "asset": "The address of the collateral token",
          "minAssetAmountEDecimal": "The minimum amount of collateral which the liquidator desires to obtain",
          "owner": "The owner of the collateral",
          "stablecoinAmountE18": "The amount of stablecoins for the collateral buyout"
        }
      },
      "swapUsdProToStablecoin(address,uint256)": {
        "details": "This is a second step of two",
        "params": {
          "stablecoinAmountEDecimal": "The amount of stablecoins",
          "stablecoinToken": "The address of the stablecoin token"
        }
      }
    },
    "version": 1
  },
  "userdoc": {
    "kind": "user",
    "methods": {
      "calculateLiquidationDiscount(address,address)": {
        "notice": "Calculates a liquidation discount"
      },
      "getDiscountInfo(address,uint8)": {
        "notice": "Returns information about discount percentages depending on a block number"
      },
      "setDiscountInfo(address,uint8,(uint256,uint256))": {
        "notice": "Only owner is able to call this function"
      },
      "swapStablecoinToAsset(address,address,address,uint256,uint256)": {
        "notice": "Swaps stablecoins from the whitelist to the collateral"
      },
      "swapUsdProToAsset(address,address,uint256,uint256)": {
        "notice": "Swaps USDPro to the collateral"
      },
      "swapUsdProToStablecoin(address,uint256)": {
        "notice": "Swaps USDPro to stablecoins from the whitelist"
      }
    },
    "version": 1
  },
  "storageLayout": {
    "storage": [
      {
        "astId": 454,
        "contract": "contracts/liquidator/SuLiquidation.sol:SuLiquidation",
        "label": "_initialized",
        "offset": 0,
        "slot": "0",
        "type": "t_bool"
      },
      {
        "astId": 457,
        "contract": "contracts/liquidator/SuLiquidation.sol:SuLiquidation",
        "label": "_initializing",
        "offset": 1,
        "slot": "0",
        "type": "t_bool"
      },
      {
        "astId": 4355,
        "contract": "contracts/liquidator/SuLiquidation.sol:SuLiquidation",
        "label": "ACCESS_CONTROL_SINGLETON",
        "offset": 2,
        "slot": "0",
        "type": "t_contract(ISuAccessControl)7493"
      },
      {
        "astId": 12084,
        "contract": "contracts/liquidator/SuLiquidation.sol:SuLiquidation",
        "label": "_discountsInfo",
        "offset": 0,
        "slot": "1",
        "type": "t_mapping(t_address,t_mapping(t_enum(DiscountType)12308,t_struct(DiscountInfo)12313_storage))"
      },
      {
        "astId": 11264,
        "contract": "contracts/liquidator/SuLiquidation.sol:SuLiquidation",
        "label": "SU_MANAGER",
        "offset": 0,
        "slot": "2",
        "type": "t_contract(ISuManager)7813"
      },
      {
        "astId": 11267,
        "contract": "contracts/liquidator/SuLiquidation.sol:SuLiquidation",
        "label": "SU_ORACLE",
        "offset": 0,
        "slot": "3",
        "type": "t_contract(ISuOracle)7885"
      },
      {
        "astId": 11270,
        "contract": "contracts/liquidator/SuLiquidation.sol:SuLiquidation",
        "label": "SU_REWARD",
        "offset": 0,
        "slot": "4",
        "type": "t_contract(IRewardChefV2)7412"
      },
      {
        "astId": 11275,
        "contract": "contracts/liquidator/SuLiquidation.sol:SuLiquidation",
        "label": "_deferredStablecoinAmounts",
        "offset": 0,
        "slot": "5",
        "type": "t_mapping(t_address,t_struct(DeferredStablecoinAmount)12320_storage)"
      }
    ],
    "types": {
      "t_address": {
        "encoding": "inplace",
        "label": "address",
        "numberOfBytes": "20"
      },
      "t_bool": {
        "encoding": "inplace",
        "label": "bool",
        "numberOfBytes": "1"
      },
      "t_contract(IRewardChefV2)7412": {
        "encoding": "inplace",
        "label": "contract IRewardChefV2",
        "numberOfBytes": "20"
      },
      "t_contract(ISuAccessControl)7493": {
        "encoding": "inplace",
        "label": "contract ISuAccessControl",
        "numberOfBytes": "20"
      },
      "t_contract(ISuManager)7813": {
        "encoding": "inplace",
        "label": "contract ISuManager",
        "numberOfBytes": "20"
      },
      "t_contract(ISuOracle)7885": {
        "encoding": "inplace",
        "label": "contract ISuOracle",
        "numberOfBytes": "20"
      },
      "t_enum(DiscountType)12308": {
        "encoding": "inplace",
        "label": "enum DiscountType",
        "numberOfBytes": "1"
      },
      "t_mapping(t_address,t_mapping(t_enum(DiscountType)12308,t_struct(DiscountInfo)12313_storage))": {
        "encoding": "mapping",
        "key": "t_address",
        "label": "mapping(address => mapping(enum DiscountType => struct DiscountInfo))",
        "numberOfBytes": "32",
        "value": "t_mapping(t_enum(DiscountType)12308,t_struct(DiscountInfo)12313_storage)"
      },
      "t_mapping(t_address,t_struct(DeferredStablecoinAmount)12320_storage)": {
        "encoding": "mapping",
        "key": "t_address",
        "label": "mapping(address => struct DeferredStablecoinAmount)",
        "numberOfBytes": "32",
        "value": "t_struct(DeferredStablecoinAmount)12320_storage"
      },
      "t_mapping(t_enum(DiscountType)12308,t_struct(DiscountInfo)12313_storage)": {
        "encoding": "mapping",
        "key": "t_enum(DiscountType)12308",
        "label": "mapping(enum DiscountType => struct DiscountInfo)",
        "numberOfBytes": "32",
        "value": "t_struct(DiscountInfo)12313_storage"
      },
      "t_struct(DeferredStablecoinAmount)12320_storage": {
        "encoding": "inplace",
        "label": "struct DeferredStablecoinAmount",
        "members": [
          {
            "astId": 12315,
            "contract": "contracts/liquidator/SuLiquidation.sol:SuLiquidation",
            "label": "liquidationBlock",
            "offset": 0,
            "slot": "0",
            "type": "t_uint256"
          },
          {
            "astId": 12317,
            "contract": "contracts/liquidator/SuLiquidation.sol:SuLiquidation",
            "label": "toRepaymentE18",
            "offset": 0,
            "slot": "1",
            "type": "t_uint256"
          },
          {
            "astId": 12319,
            "contract": "contracts/liquidator/SuLiquidation.sol:SuLiquidation",
            "label": "toFoundationE18",
            "offset": 0,
            "slot": "2",
            "type": "t_uint256"
          }
        ],
        "numberOfBytes": "96"
      },
      "t_struct(DiscountInfo)12313_storage": {
        "encoding": "inplace",
        "label": "struct DiscountInfo",
        "members": [
          {
            "astId": 12310,
            "contract": "contracts/liquidator/SuLiquidation.sol:SuLiquidation",
            "label": "firstBlockE18",
            "offset": 0,
            "slot": "0",
            "type": "t_uint256"
          },
          {
            "astId": 12312,
            "contract": "contracts/liquidator/SuLiquidation.sol:SuLiquidation",
            "label": "stepPerBlockE18",
            "offset": 0,
            "slot": "1",
            "type": "t_uint256"
          }
        ],
        "numberOfBytes": "64"
      },
      "t_uint256": {
        "encoding": "inplace",
        "label": "uint256",
        "numberOfBytes": "32"
      }
    }
  }
}