{
  "address": "0xc6e7DF5E7b4f2A278906862b61205850344D4e7d",
  "abi": [
    {
      "inputs": [],
      "name": "IncorrectDiscount",
      "type": "error"
    },
    {
      "inputs": [],
      "name": "LessThanMinimum",
      "type": "error"
    },
    {
      "inputs": [],
      "name": "NotEnoughAmount",
      "type": "error"
    },
    {
      "inputs": [],
      "name": "NotEnoughDeferredAmount",
      "type": "error"
    },
    {
      "inputs": [],
      "name": "TooMuchAmount",
      "type": "error"
    },
    {
      "inputs": [],
      "name": "ZeroAddress",
      "type": "error"
    },
    {
      "inputs": [],
      "name": "ACCESS_CONTROL_SINGLETON",
      "outputs": [
        {
          "internalType": "contract ISuAccessControl",
          "name": "",
          "type": "address"
        }
      ],
      "stateMutability": "view",
      "type": "function"
    },
    {
      "inputs": [],
      "name": "LIQUIDATION_ACCESS_ROLE",
      "outputs": [
        {
          "internalType": "bytes32",
          "name": "",
          "type": "bytes32"
        }
      ],
      "stateMutability": "view",
      "type": "function"
    },
    {
      "inputs": [],
      "name": "MINTER_ROLE",
      "outputs": [
        {
          "internalType": "bytes32",
          "name": "",
          "type": "bytes32"
        }
      ],
      "stateMutability": "view",
      "type": "function"
    },
    {
      "inputs": [],
      "name": "VAULT_ACCESS_ROLE",
      "outputs": [
        {
          "internalType": "bytes32",
          "name": "",
          "type": "bytes32"
        }
      ],
      "stateMutability": "view",
      "type": "function"
    },
    {
      "inputs": [
        {
          "internalType": "address",
          "name": "asset",
          "type": "address"
        },
        {
          "internalType": "enum DiscountType",
          "name": "discountType",
          "type": "uint8"
        },
        {
          "internalType": "uint256",
          "name": "liquidationBlock",
          "type": "uint256"
        }
      ],
      "name": "calculateDiscountE18",
      "outputs": [
        {
          "internalType": "uint256",
          "name": "",
          "type": "uint256"
        }
      ],
      "stateMutability": "view",
      "type": "function"
    },
    {
      "inputs": [
        {
          "internalType": "address",
          "name": "asset",
          "type": "address"
        },
        {
          "internalType": "address",
          "name": "owner",
          "type": "address"
        }
      ],
      "name": "calculateLiquidationDiscount",
      "outputs": [
        {
          "internalType": "uint256",
          "name": "",
          "type": "uint256"
        }
      ],
      "stateMutability": "view",
      "type": "function"
    },
    {
      "inputs": [
        {
          "internalType": "address",
          "name": "asset",
          "type": "address"
        },
        {
          "internalType": "enum DiscountType",
          "name": "discountType",
          "type": "uint8"
        }
      ],
      "name": "getDiscountInfo",
      "outputs": [
        {
          "components": [
            {
              "internalType": "uint256",
              "name": "firstBlockE18",
              "type": "uint256"
            },
            {
              "internalType": "uint256",
              "name": "stepPerBlockE18",
              "type": "uint256"
            }
          ],
          "internalType": "struct DiscountInfo",
          "name": "discountInfo",
          "type": "tuple"
        }
      ],
      "stateMutability": "view",
      "type": "function"
    },
    {
      "inputs": [
        {
          "internalType": "address",
          "name": "_authControl",
          "type": "address"
        }
      ],
      "name": "init",
      "outputs": [],
      "stateMutability": "nonpayable",
      "type": "function"
    },
    {
      "inputs": [
        {
          "internalType": "address",
          "name": "_authControl",
          "type": "address"
        },
        {
          "internalType": "address",
          "name": "_suLendingLiquidation",
          "type": "address"
        },
        {
          "internalType": "address",
          "name": "_suOracle",
          "type": "address"
        },
        {
          "internalType": "address",
          "name": "_suReward",
          "type": "address"
        }
      ],
      "name": "initialize",
      "outputs": [],
      "stateMutability": "nonpayable",
      "type": "function"
    },
    {
      "inputs": [
        {
          "internalType": "address",
          "name": "asset",
          "type": "address"
        },
        {
          "internalType": "enum DiscountType",
          "name": "discountType",
          "type": "uint8"
        },
        {
          "components": [
            {
              "internalType": "uint256",
              "name": "firstBlockE18",
              "type": "uint256"
            },
            {
              "internalType": "uint256",
              "name": "stepPerBlockE18",
              "type": "uint256"
            }
          ],
          "internalType": "struct DiscountInfo",
          "name": "discountInfo",
          "type": "tuple"
        }
      ],
      "name": "setDiscountInfo",
      "outputs": [],
      "stateMutability": "nonpayable",
      "type": "function"
    },
    {
      "inputs": [
        {
          "internalType": "address",
          "name": "asset",
          "type": "address"
        },
        {
          "internalType": "address",
          "name": "owner",
          "type": "address"
        },
        {
          "internalType": "address",
          "name": "stablecoinToken",
          "type": "address"
        },
        {
          "internalType": "uint256",
          "name": "stablecoinAmountEDecimal",
          "type": "uint256"
        },
        {
          "internalType": "uint256",
          "name": "minAssetAmountEDecimal",
          "type": "uint256"
        }
      ],
      "name": "swapStablecoinToAsset",
      "outputs": [],
      "stateMutability": "nonpayable",
      "type": "function"
    },
    {
      "inputs": [
        {
          "internalType": "address",
          "name": "asset",
          "type": "address"
        },
        {
          "internalType": "address",
          "name": "owner",
          "type": "address"
        },
        {
          "internalType": "uint256",
          "name": "stablecoinAmountE18",
          "type": "uint256"
        },
        {
          "internalType": "uint256",
          "name": "minAssetAmountEDecimal",
          "type": "uint256"
        }
      ],
      "name": "swapUsdProToAsset",
      "outputs": [],
      "stateMutability": "nonpayable",
      "type": "function"
    },
    {
      "inputs": [
        {
          "internalType": "address",
          "name": "stablecoinToken",
          "type": "address"
        },
        {
          "internalType": "uint256",
          "name": "stablecoinAmountEDecimal",
          "type": "uint256"
        }
      ],
      "name": "swapUsdProToStablecoin",
      "outputs": [],
      "stateMutability": "nonpayable",
      "type": "function"
    }
  ],
  "numDeployments": 1,
  "solcInputHash": "a43877932f2d52b649b98010c4389c33",
  "bytecode": "0x608060405234801561001057600080fd5b50611d7d806100206000396000f3fe608060405234801561001057600080fd5b50600436106100df5760003560e01c806395bdf6bb1161008c578063d539139311610066578063d5391393146101f1578063dc97e84e14610218578063f4e2ebeb1461023f578063f8c8765e1461025257600080fd5b806395bdf6bb146101b8578063b08c4c8c146101cb578063c3009f36146101de57600080fd5b806319ab453c116100bd57806319ab453c146101645780633599f022146101775780634d2cf8b7146101a557600080fd5b806303ee9f22146100e457806314c376dc1461011a578063190e8c4c1461014f575b600080fd5b6000546100fd906201000090046001600160a01b031681565b6040516001600160a01b0390911681526020015b60405180910390f35b6101417fe965846df3dd5b1dfa65f58e31477079e90140e0908b6dd31b5aead5a57cf36581565b604051908152602001610111565b61016261015d366004611869565b610265565b005b6101626101723660046118ab565b610324565b61018a6101853660046118d5565b6103fb565b60408051825181526020928301519281019290925201610111565b6101416101b3366004611908565b610481565b6101626101c6366004611932565b610510565b6101626101d9366004611987565b610718565b6101416101ec3660046119b1565b610852565b6101417f9f2df0fed2c77648de5860a4cc508cd0818c85b8b8a1ab4ceeef8d981c8956a681565b6101417f9a9aef7c1247d5fc769b0185c052913e39673da29a880317dfd20ebf86f26a4981565b61016261024d3660046119ed565b610938565b610162610260366004611a3c565b610a80565b600080600061027687878787610bfd565b6002546040517f6bf12d5f0000000000000000000000000000000000000000000000000000000081526001600160a01b038c811660048301528b81166024830152336044830152606482018590526084820184905260a482018690529497509295509093509190911690636bf12d5f9060c401600060405180830381600087803b15801561030357600080fd5b505af1158015610317573d6000803e3d6000fd5b5050505050505050505050565b600054610100900460ff1661033f5760005460ff1615610343565b303b155b6103ba5760405162461bcd60e51b815260206004820152602e60248201527f496e697469616c697a61626c653a20636f6e747261637420697320616c72656160448201527f647920696e697469616c697a656400000000000000000000000000000000000060648201526084015b60405180910390fd5b600054610100900460ff161580156103dc576000805461ffff19166101011790555b6103e582610dba565b80156103f7576000805461ff00191690555b5050565b60408051808201909152600080825260208201526001600160a01b03831660009081526001602052604081209083600281111561043a5761043a611a90565b600281111561044b5761044b611a90565b81526020019081526020016000206040518060400160405290816000820154815260200160018201548152505090505b92915050565b6002546040516304c9a55560e41b81526001600160a01b03848116600483015283811660248301526000928392911690634c9a555090604401602060405180830381865afa1580156104d7573d6000803e3d6000fd5b505050506040513d601f19601f820116820180604052508101906104fb9190611aa6565b9050610508848483610e77565b949350505050565b6003546040516306addfb360e31b81526001600160a01b038581166004830152600092169063356efd9890602401602060405180830381865afa15801561055b573d6000803e3d6000fd5b505050506040513d601f19601f8201168201806040525081019061057f9190611aa6565b90506000670de0b6b3a76400006105968584611ad5565b6105a09190611aec565b905060008060006105b38a8a8689610bfd565b919450925090506000856105c78385611b0e565b6105d990670de0b6b3a7640000611ad5565b6105e39190611aec565b90506105f189333084610eb1565b6002546040516304c9a55560e41b81526001600160a01b038d811660048301528c811660248301526000921690634c9a555090604401602060405180830381865afa158015610644573d6000803e3d6000fd5b505050506040513d601f19601f820116820180604052508101906106689190611aa6565b90506106768a828686610f53565b6002546040517f6f70e66f0000000000000000000000000000000000000000000000000000000081526001600160a01b038e811660048301528d81166024830152336044830152606482018790526084820188905290911690636f70e66f9060a401600060405180830381600087803b1580156106f257600080fd5b505af1158015610706573d6000803e3d6000fd5b50505050505050505050505050505050565b6003546040516306addfb360e31b81526001600160a01b038481166004830152600092670de0b6b3a76400009285929091169063356efd9890602401602060405180830381865afa158015610771573d6000803e3d6000fd5b505050506040513d601f19601f820116820180604052508101906107959190611aa6565b61079f9190611ad5565b6107a99190611aec565b90506000806107b88584610fb2565b6002546040517f628a468300000000000000000000000000000000000000000000000000000000815233600482015260248101849052604481018390529294509092506001600160a01b03169063628a468390606401600060405180830381600087803b15801561082857600080fd5b505af115801561083c573d6000803e3d6000fd5b5050505061084b853386611197565b5050505050565b6001600160a01b038316600090815260016020526040812081908185600281111561087f5761087f611a90565b600281111561089057610890611a90565b81526020019081526020016000209050600083436108ae9190611b21565b9050806000036108c357600092505050610931565b806001036108d45750549050610931565b60008560028111156108e8576108e8611a90565b036109135761090a8166b1a2bc2ec500008460010154856001015460026111e5565b92505050610931565b61090a81670de0b6b3a76400008460000154856001015460016111e5565b9392505050565b600080546040517f91d1485400000000000000000000000000000000000000000000000000000000815260048101929092523360248301526201000090046001600160a01b0316906391d1485490604401602060405180830381865afa1580156109a6573d6000803e3d6000fd5b505050506040513d601f19601f820116820180604052508101906109ca9190611b34565b610a165760405162461bcd60e51b815260206004820152601d60248201527f5375417574683a206f6e6c794f776e657220415554485f4641494c454400000060448201526064016103b1565b610a208282611223565b6001600160a01b03831660009081526001602052604081208291846002811115610a4c57610a4c611a90565b6002811115610a5d57610a5d611a90565b81526020808201929092526040016000208235815590820135600182015561084b565b600054610100900460ff16610a9b5760005460ff1615610a9f565b303b155b610b115760405162461bcd60e51b815260206004820152602e60248201527f496e697469616c697a61626c653a20636f6e747261637420697320616c72656160448201527f647920696e697469616c697a656400000000000000000000000000000000000060648201526084016103b1565b600054610100900460ff16158015610b33576000805461ffff19166101011790555b610b3c85610324565b6001600160a01b0384161580610b5957506001600160a01b038316155b15610b90576040517fd92e233d00000000000000000000000000000000000000000000000000000000815260040160405180910390fd5b600280546001600160a01b038087167fffffffffffffffffffffffff000000000000000000000000000000000000000092831617909255600380548684169083161790556004805492851692909116919091179055801561084b576000805461ff00191690555050505050565b6002546040517faf368fbd0000000000000000000000000000000000000000000000000000000081526001600160a01b0386811660048301528581166024830152600092839283928392839283929091169063af368fbd90604401606060405180830381865afa158015610c75573d6000803e3d6000fd5b505050506040513d601f19601f82011682018060405250810190610c999190611b56565b925092509250610cc36040518060600160405280602c8152602001611ce9602c91398484846112a1565b6000610cd08b8b86610e77565b6003546040516306addfb360e31b81526001600160a01b038e811660048301529293506000929091169063356efd9890602401602060405180830381865afa158015610d20573d6000803e3d6000fd5b505050506040513d601f19601f82011682018060405250810190610d449190611aa6565b9050600080610d55838d8887611303565b915091508a821015610d93576040517fe4e014cd00000000000000000000000000000000000000000000000000000000815260040160405180910390fd5b600080610da08784611473565b949c509a5092985050505050505050509450945094915050565b600054610100900460ff16610e375760405162461bcd60e51b815260206004820152602b60248201527f496e697469616c697a61626c653a20636f6e7472616374206973206e6f74206960448201527f6e697469616c697a696e6700000000000000000000000000000000000000000060648201526084016103b1565b600080546001600160a01b0390921662010000027fffffffffffffffffffff0000000000000000000000000000000000000000ffff909216919091179055565b60045460009081906001600160a01b03858116911614610e98576000610e9b565b60015b9050610ea8858285610852565b95945050505050565b6040516001600160a01b0380851660248301528316604482015260648101829052610f4d9085907f23b872dd00000000000000000000000000000000000000000000000000000000906084015b60408051601f198184030181529190526020810180516001600160e01b03167fffffffff000000000000000000000000000000000000000000000000000000009093169290921790915261149d565b50505050565b6001600160a01b038416600090815260056020526040812060018101805491928592610f80908490611b0e565b9250508190555081816002016000828254610f9b9190611b0e565b9091555050805460000361084b5792909255505050565b60008082600003610fef576040517fe008b5f900000000000000000000000000000000000000000000000000000000815260040160405180910390fd5b6001600160a01b03841660009081526005602052604081208054909103611042576040517f895afd9500000000000000000000000000000000000000000000000000000000815260040160405180910390fd5b60006110548660028460000154610852565b6040805160608101825284548152600185015460208201526002850154918101919091529091506110859086611582565b909450925083156110aa57838260010160008282546110a49190611b21565b90915550505b82156110ca57828260020160008282546110c49190611b21565b90915550505b60018201541580156110de57506002820154155b1561110a576001600160a01b038616600090815260056020526040812081815560018101829055600201555b61111c81670de0b6b3a7640000611b0e565b61112e85670de0b6b3a7640000611ad5565b6111389190611aec565b935061114c81670de0b6b3a7640000611b0e565b61115e84670de0b6b3a7640000611ad5565b6111689190611aec565b925061118e604051806060016040528060368152602001611cb3603691398286866112a1565b50509250929050565b6040516001600160a01b0383166024820152604481018290526111e09084907fa9059cbb0000000000000000000000000000000000000000000000000000000090606401610efe565b505050565b600080836111f38489611b21565b6111fd9190611ad5565b6112079086611b0e565b90508581116112165780611218565b855b979650505050505050565b60008083600281111561123857611238611a90565b0361124b575066b1a2bc2ec50000611256565b50670de0b6b3a76400005b81358111158061126a575080826020013510155b156111e0576040517f8478aedc00000000000000000000000000000000000000000000000000000000815260040160405180910390fd5b610f4d848484846040516024016112bb9493929190611bd4565b60408051601f198184030181529190526020810180516001600160e01b03167fa7a87853000000000000000000000000000000000000000000000000000000001790526115f3565b60008080670de0b6b3a764000061131a8689611ad5565b6113249190611aec565b905061134a604051806060016040528060338152602001611d15603391398689846112a1565b61136d604051806060016040528060398152602001611c7a603991398786611614565b600061137a828887611674565b6040805180820190915260208082527f43414c435f424f4e555320737461626c65636f696e2072656d61696e6465723a9082015291985091506113c6906113c18385611b21565b6116eb565b60408051808201909152601c81527f43414c435f424f4e555320737461626c65636f696e20626f6e75733a000000006020820152611408906113c18984611b21565b6114476040518060400160405280601e81526020017f43414c435f424f4e555320737461626c65636f696e207061796d656e743a0000815250886116eb565b60008861145c83670de0b6b3a7640000611ad5565b6114669190611aec565b9997985050505050505050565b60008083831115611492576114888484611b21565b9050839150611496565b8291505b9250929050565b60006114f2826040518060400160405280602081526020017f5361666545524332303a206c6f772d6c6576656c2063616c6c206661696c6564815250856001600160a01b03166117499092919063ffffffff16565b8051909150156111e057808060200190518101906115109190611b34565b6111e05760405162461bcd60e51b815260206004820152602a60248201527f5361666545524332303a204552433230206f7065726174696f6e20646964206e60448201527f6f7420737563636565640000000000000000000000000000000000000000000060648201526084016103b1565b6000808360200151831161159857829150611496565b60208401516115a79084611b21565b925083604001518311156115e7576040517f35e8282000000000000000000000000000000000000000000000000000000000815260040160405180910390fd5b50506020919091015191565b80516a636f6e736f6c652e6c6f67602083016000808483855afa5050505050565b6111e083838360405160240161162c93929190611c03565b60408051601f198184030181529190526020810180516001600160e01b03167fca47c4eb000000000000000000000000000000000000000000000000000000001790526115f3565b600080670de0b6b3a764000061168a8482611b0e565b6116949086611ad5565b61169e9190611aec565b9050848111156116df5750836116bc83670de0b6b3a7640000611b0e565b6116ce86670de0b6b3a7640000611ad5565b6116d89190611aec565b91506116e3565b8391505b935093915050565b6103f78282604051602401611701929190611c28565b60408051601f198184030181529190526020810180516001600160e01b03167fb60e72cc000000000000000000000000000000000000000000000000000000001790526115f3565b60606105088484600085856001600160a01b0385163b6117ab5760405162461bcd60e51b815260206004820152601d60248201527f416464726573733a2063616c6c20746f206e6f6e2d636f6e747261637400000060448201526064016103b1565b600080866001600160a01b031685876040516117c79190611c4a565b60006040518083038185875af1925050503d8060008114611804576040519150601f19603f3d011682016040523d82523d6000602084013e611809565b606091505b509150915061121882828660608315611823575081610931565b8251156118335782518084602001fd5b8160405162461bcd60e51b81526004016103b19190611c66565b80356001600160a01b038116811461186457600080fd5b919050565b6000806000806080858703121561187f57600080fd5b6118888561184d565b93506118966020860161184d565b93969395505050506040820135916060013590565b6000602082840312156118bd57600080fd5b6109318261184d565b80356003811061186457600080fd5b600080604083850312156118e857600080fd5b6118f18361184d565b91506118ff602084016118c6565b90509250929050565b6000806040838503121561191b57600080fd5b6119248361184d565b91506118ff6020840161184d565b600080600080600060a0868803121561194a57600080fd5b6119538661184d565b94506119616020870161184d565b935061196f6040870161184d565b94979396509394606081013594506080013592915050565b6000806040838503121561199a57600080fd5b6119a38361184d565b946020939093013593505050565b6000806000606084860312156119c657600080fd5b6119cf8461184d565b92506119dd602085016118c6565b9150604084013590509250925092565b60008060008385036080811215611a0357600080fd5b611a0c8561184d565b9350611a1a602086016118c6565b92506040603f1982011215611a2e57600080fd5b506040840190509250925092565b60008060008060808587031215611a5257600080fd5b611a5b8561184d565b9350611a696020860161184d565b9250611a776040860161184d565b9150611a856060860161184d565b905092959194509250565b634e487b7160e01b600052602160045260246000fd5b600060208284031215611ab857600080fd5b5051919050565b634e487b7160e01b600052601160045260246000fd5b808202811582820484141761047b5761047b611abf565b600082611b0957634e487b7160e01b600052601260045260246000fd5b500490565b8082018082111561047b5761047b611abf565b8181038181111561047b5761047b611abf565b600060208284031215611b4657600080fd5b8151801515811461093157600080fd5b600080600060608486031215611b6b57600080fd5b8351925060208401519150604084015190509250925092565b60005b83811015611b9f578181015183820152602001611b87565b50506000910152565b60008151808452611bc0816020860160208601611b84565b601f01601f19169290920160200192915050565b608081526000611be76080830187611ba8565b6020830195909552506040810192909252606090910152919050565b606081526000611c166060830186611ba8565b60208301949094525060400152919050565b604081526000611c3b6040830185611ba8565b90508260208301529392505050565b60008251611c5c818460208701611b84565b9190910192915050565b6020815260006109316020830184611ba856fe43414c435f424f4e555320737461626c65636f696e2028737461626c65636f696e416d6f756e744531382c20646973636f756e74453138293a444953434f554e54532028646973636f756e744531382c207375546f52657061796d656e742c207375546f466f756e646174696f6e294c49515549444154494f4e20504152414d532028626c6f636b2c20636f6c6c617465726c2c2064656274293a43414c435f424f4e555320636f6c6c61746572616c28616d6f756e74202a207072696365203d20617373657456616c7565293aa264697066735822122008121ffe2c68aeacd2acf31d0eed07b9cf6b20b115806662690346ded5dd509464736f6c63430008110033",
  "devdoc": {
    "kind": "dev",
    "methods": {},
    "version": 1
  },
  "userdoc": {
    "kind": "user",
    "methods": {},
    "version": 1
  },
  "storageLayout": {
    "storage": [
      {
        "astId": 408,
        "contract": "contracts/liquidator/SuLiquidation.sol:SuLiquidation",
        "label": "_initialized",
        "offset": 0,
        "slot": "0",
        "type": "t_bool"
      },
      {
        "astId": 411,
        "contract": "contracts/liquidator/SuLiquidation.sol:SuLiquidation",
        "label": "_initializing",
        "offset": 1,
        "slot": "0",
        "type": "t_bool"
      },
      {
        "astId": 2707,
        "contract": "contracts/liquidator/SuLiquidation.sol:SuLiquidation",
        "label": "ACCESS_CONTROL_SINGLETON",
        "offset": 2,
        "slot": "0",
        "type": "t_contract(ISuAccessControl)4153"
      },
      {
        "astId": 8562,
        "contract": "contracts/liquidator/SuLiquidation.sol:SuLiquidation",
        "label": "_discountsInfo",
        "offset": 0,
        "slot": "1",
        "type": "t_mapping(t_address,t_mapping(t_enum(DiscountType)8779,t_struct(DiscountInfo)8784_storage))"
      },
      {
        "astId": 7759,
        "contract": "contracts/liquidator/SuLiquidation.sol:SuLiquidation",
        "label": "SU_LENDING_LIQUIDATION",
        "offset": 0,
        "slot": "2",
        "type": "t_contract(ISuLendingLiquidation)4430"
      },
      {
        "astId": 7762,
        "contract": "contracts/liquidator/SuLiquidation.sol:SuLiquidation",
        "label": "SU_ORACLE",
        "offset": 0,
        "slot": "3",
        "type": "t_contract(ISuOracle)4685"
      },
      {
        "astId": 7765,
        "contract": "contracts/liquidator/SuLiquidation.sol:SuLiquidation",
        "label": "SU_REWARD",
        "offset": 0,
        "slot": "4",
        "type": "t_contract(IRewardChefV2)4140"
      },
      {
        "astId": 7770,
        "contract": "contracts/liquidator/SuLiquidation.sol:SuLiquidation",
        "label": "_deferredStablecoinAmounts",
        "offset": 0,
        "slot": "5",
        "type": "t_mapping(t_address,t_struct(DeferredStablecoinAmount)8791_storage)"
      }
    ],
    "types": {
      "t_address": {
        "encoding": "inplace",
        "label": "address",
        "numberOfBytes": "20"
      },
      "t_bool": {
        "encoding": "inplace",
        "label": "bool",
        "numberOfBytes": "1"
      },
      "t_contract(IRewardChefV2)4140": {
        "encoding": "inplace",
        "label": "contract IRewardChefV2",
        "numberOfBytes": "20"
      },
      "t_contract(ISuAccessControl)4153": {
        "encoding": "inplace",
        "label": "contract ISuAccessControl",
        "numberOfBytes": "20"
      },
      "t_contract(ISuLendingLiquidation)4430": {
        "encoding": "inplace",
        "label": "contract ISuLendingLiquidation",
        "numberOfBytes": "20"
      },
      "t_contract(ISuOracle)4685": {
        "encoding": "inplace",
        "label": "contract ISuOracle",
        "numberOfBytes": "20"
      },
      "t_enum(DiscountType)8779": {
        "encoding": "inplace",
        "label": "enum DiscountType",
        "numberOfBytes": "1"
      },
      "t_mapping(t_address,t_mapping(t_enum(DiscountType)8779,t_struct(DiscountInfo)8784_storage))": {
        "encoding": "mapping",
        "key": "t_address",
        "label": "mapping(address => mapping(enum DiscountType => struct DiscountInfo))",
        "numberOfBytes": "32",
        "value": "t_mapping(t_enum(DiscountType)8779,t_struct(DiscountInfo)8784_storage)"
      },
      "t_mapping(t_address,t_struct(DeferredStablecoinAmount)8791_storage)": {
        "encoding": "mapping",
        "key": "t_address",
        "label": "mapping(address => struct DeferredStablecoinAmount)",
        "numberOfBytes": "32",
        "value": "t_struct(DeferredStablecoinAmount)8791_storage"
      },
      "t_mapping(t_enum(DiscountType)8779,t_struct(DiscountInfo)8784_storage)": {
        "encoding": "mapping",
        "key": "t_enum(DiscountType)8779",
        "label": "mapping(enum DiscountType => struct DiscountInfo)",
        "numberOfBytes": "32",
        "value": "t_struct(DiscountInfo)8784_storage"
      },
      "t_struct(DeferredStablecoinAmount)8791_storage": {
        "encoding": "inplace",
        "label": "struct DeferredStablecoinAmount",
        "members": [
          {
            "astId": 8786,
            "contract": "contracts/liquidator/SuLiquidation.sol:SuLiquidation",
            "label": "liquidationBlock",
            "offset": 0,
            "slot": "0",
            "type": "t_uint256"
          },
          {
            "astId": 8788,
            "contract": "contracts/liquidator/SuLiquidation.sol:SuLiquidation",
            "label": "toRepaymentE18",
            "offset": 0,
            "slot": "1",
            "type": "t_uint256"
          },
          {
            "astId": 8790,
            "contract": "contracts/liquidator/SuLiquidation.sol:SuLiquidation",
            "label": "toFoundationE18",
            "offset": 0,
            "slot": "2",
            "type": "t_uint256"
          }
        ],
        "numberOfBytes": "96"
      },
      "t_struct(DiscountInfo)8784_storage": {
        "encoding": "inplace",
        "label": "struct DiscountInfo",
        "members": [
          {
            "astId": 8781,
            "contract": "contracts/liquidator/SuLiquidation.sol:SuLiquidation",
            "label": "firstBlockE18",
            "offset": 0,
            "slot": "0",
            "type": "t_uint256"
          },
          {
            "astId": 8783,
            "contract": "contracts/liquidator/SuLiquidation.sol:SuLiquidation",
            "label": "stepPerBlockE18",
            "offset": 0,
            "slot": "1",
            "type": "t_uint256"
          }
        ],
        "numberOfBytes": "64"
      },
      "t_uint256": {
        "encoding": "inplace",
        "label": "uint256",
        "numberOfBytes": "32"
      }
    }
  }
}