{
  "address": "0x959922bE3CAee4b8Cd9a407cc3ac1C251C2007B1",
  "abi": [
    {
      "inputs": [],
      "name": "BadInitialCollateralRatioValue",
      "type": "error"
    },
    {
      "inputs": [],
      "name": "BadLiquidationRatioValue",
      "type": "error"
    },
    {
      "inputs": [],
      "name": "InvalidArgs",
      "type": "error"
    },
    {
      "inputs": [],
      "name": "LiquidationIsTriggered",
      "type": "error"
    },
    {
      "inputs": [],
      "name": "Restricted",
      "type": "error"
    },
    {
      "inputs": [],
      "name": "SmallCollateral",
      "type": "error"
    },
    {
      "inputs": [],
      "name": "UnderCollateralized",
      "type": "error"
    },
    {
      "inputs": [],
      "name": "UnsupportedDecimals",
      "type": "error"
    },
    {
      "inputs": [],
      "name": "UselessTransaction",
      "type": "error"
    },
    {
      "anonymous": false,
      "inputs": [
        {
          "indexed": true,
          "internalType": "address",
          "name": "asset",
          "type": "address"
        },
        {
          "indexed": true,
          "internalType": "address",
          "name": "owner",
          "type": "address"
        },
        {
          "indexed": false,
          "internalType": "uint256",
          "name": "main",
          "type": "uint256"
        },
        {
          "indexed": false,
          "internalType": "uint256",
          "name": "stablecoin",
          "type": "uint256"
        }
      ],
      "name": "Exit",
      "type": "event"
    },
    {
      "anonymous": false,
      "inputs": [
        {
          "indexed": true,
          "internalType": "address",
          "name": "asset",
          "type": "address"
        },
        {
          "indexed": true,
          "internalType": "address",
          "name": "owner",
          "type": "address"
        },
        {
          "indexed": false,
          "internalType": "uint256",
          "name": "main",
          "type": "uint256"
        },
        {
          "indexed": false,
          "internalType": "uint256",
          "name": "stablecoin",
          "type": "uint256"
        }
      ],
      "name": "Join",
      "type": "event"
    },
    {
      "inputs": [],
      "name": "ACCESS_CONTROL_SINGLETON",
      "outputs": [
        {
          "internalType": "contract ISuAccessControl",
          "name": "",
          "type": "address"
        }
      ],
      "stateMutability": "view",
      "type": "function"
    },
    {
      "inputs": [],
      "name": "LIQUIDATION_ACCESS_ROLE",
      "outputs": [
        {
          "internalType": "bytes32",
          "name": "",
          "type": "bytes32"
        }
      ],
      "stateMutability": "view",
      "type": "function"
    },
    {
      "inputs": [],
      "name": "MINTER_ROLE",
      "outputs": [
        {
          "internalType": "bytes32",
          "name": "",
          "type": "bytes32"
        }
      ],
      "stateMutability": "view",
      "type": "function"
    },
    {
      "inputs": [],
      "name": "VAULT_ACCESS_ROLE",
      "outputs": [
        {
          "internalType": "bytes32",
          "name": "",
          "type": "bytes32"
        }
      ],
      "stateMutability": "view",
      "type": "function"
    },
    {
      "inputs": [],
      "name": "cdpRegistry",
      "outputs": [
        {
          "internalType": "contract ISuCdpRegistry",
          "name": "",
          "type": "address"
        }
      ],
      "stateMutability": "view",
      "type": "function"
    },
    {
      "inputs": [
        {
          "internalType": "address",
          "name": "asset",
          "type": "address"
        },
        {
          "internalType": "uint256",
          "name": "assetAmountEDecimal",
          "type": "uint256"
        },
        {
          "internalType": "uint256",
          "name": "stablecoinAmountE18",
          "type": "uint256"
        }
      ],
      "name": "exit",
      "outputs": [],
      "stateMutability": "nonpayable",
      "type": "function"
    },
    {
      "inputs": [
        {
          "internalType": "address",
          "name": "asset",
          "type": "address"
        },
        {
          "internalType": "address",
          "name": "owner",
          "type": "address"
        }
      ],
      "name": "getAvailableToBorrowE18",
      "outputs": [
        {
          "internalType": "uint256",
          "name": "",
          "type": "uint256"
        }
      ],
      "stateMutability": "view",
      "type": "function"
    },
    {
      "inputs": [
        {
          "internalType": "address",
          "name": "asset",
          "type": "address"
        },
        {
          "internalType": "address",
          "name": "owner",
          "type": "address"
        }
      ],
      "name": "getAvailableToWithdrawE18",
      "outputs": [
        {
          "internalType": "uint256",
          "name": "",
          "type": "uint256"
        }
      ],
      "stateMutability": "view",
      "type": "function"
    },
    {
      "inputs": [
        {
          "internalType": "address",
          "name": "asset",
          "type": "address"
        },
        {
          "internalType": "address",
          "name": "owner",
          "type": "address"
        }
      ],
      "name": "getCollateralUsdValueE18",
      "outputs": [
        {
          "internalType": "uint256",
          "name": "",
          "type": "uint256"
        }
      ],
      "stateMutability": "view",
      "type": "function"
    },
    {
      "inputs": [
        {
          "internalType": "address",
          "name": "asset",
          "type": "address"
        },
        {
          "internalType": "address",
          "name": "owner",
          "type": "address"
        }
      ],
      "name": "getLTVE18",
      "outputs": [
        {
          "internalType": "uint256",
          "name": "",
          "type": "uint256"
        }
      ],
      "stateMutability": "view",
      "type": "function"
    },
    {
      "inputs": [
        {
          "internalType": "address",
          "name": "",
          "type": "address"
        }
      ],
      "name": "initialCollateralRatioE18",
      "outputs": [
        {
          "internalType": "uint256",
          "name": "",
          "type": "uint256"
        }
      ],
      "stateMutability": "view",
      "type": "function"
    },
    {
      "inputs": [
        {
          "internalType": "address",
          "name": "_vault",
          "type": "address"
        },
        {
          "internalType": "address",
          "name": "_suOracle",
          "type": "address"
        },
        {
          "internalType": "address",
          "name": "_cdpRegistry",
          "type": "address"
        }
      ],
      "name": "initialize",
      "outputs": [],
      "stateMutability": "nonpayable",
      "type": "function"
    },
    {
      "inputs": [
        {
          "internalType": "address",
          "name": "asset",
          "type": "address"
        },
        {
          "internalType": "uint256",
          "name": "assetAmountEDecimal",
          "type": "uint256"
        },
        {
          "internalType": "uint256",
          "name": "stablecoinAmountE18",
          "type": "uint256"
        },
        {
          "internalType": "uint256",
          "name": "lockupPeriodSeconds",
          "type": "uint256"
        }
      ],
      "name": "join",
      "outputs": [],
      "stateMutability": "nonpayable",
      "type": "function"
    },
    {
      "inputs": [
        {
          "internalType": "address",
          "name": "",
          "type": "address"
        }
      ],
      "name": "liquidationRatioE18",
      "outputs": [
        {
          "internalType": "uint256",
          "name": "",
          "type": "uint256"
        }
      ],
      "stateMutability": "view",
      "type": "function"
    },
    {
      "inputs": [],
      "name": "minCollateralInUsdE18",
      "outputs": [
        {
          "internalType": "uint256",
          "name": "",
          "type": "uint256"
        }
      ],
      "stateMutability": "view",
      "type": "function"
    },
    {
      "inputs": [
        {
          "internalType": "address",
          "name": "asset",
          "type": "address"
        },
        {
          "internalType": "uint256",
          "name": "stabilityFeeValueE18",
          "type": "uint256"
        },
        {
          "internalType": "uint256",
          "name": "initialCollateralRatioValueE18",
          "type": "uint256"
        },
        {
          "internalType": "uint256",
          "name": "liquidationRatioValueE18",
          "type": "uint256"
        },
        {
          "internalType": "uint256",
          "name": "stablecoinLimitE18",
          "type": "uint256"
        },
        {
          "internalType": "uint256",
          "name": "minCollateralInUsdValueE18",
          "type": "uint256"
        }
      ],
      "name": "setCollateral",
      "outputs": [],
      "stateMutability": "nonpayable",
      "type": "function"
    },
    {
      "inputs": [
        {
          "internalType": "address",
          "name": "asset",
          "type": "address"
        },
        {
          "internalType": "uint256",
          "name": "newValueE18",
          "type": "uint256"
        }
      ],
      "name": "setInitialCollateralRatioE18",
      "outputs": [],
      "stateMutability": "nonpayable",
      "type": "function"
    },
    {
      "inputs": [
        {
          "internalType": "address",
          "name": "asset",
          "type": "address"
        },
        {
          "internalType": "uint256",
          "name": "newValueE18",
          "type": "uint256"
        }
      ],
      "name": "setLiquidationRatioE18",
      "outputs": [],
      "stateMutability": "nonpayable",
      "type": "function"
    },
    {
      "inputs": [
        {
          "internalType": "uint256",
          "name": "newValueE18",
          "type": "uint256"
        }
      ],
      "name": "setMinCollateralInUsdE18",
      "outputs": [],
      "stateMutability": "nonpayable",
      "type": "function"
    },
    {
      "inputs": [],
      "name": "suOracle",
      "outputs": [
        {
          "internalType": "contract ISuOracle",
          "name": "",
          "type": "address"
        }
      ],
      "stateMutability": "view",
      "type": "function"
    },
    {
      "inputs": [],
      "name": "vault",
      "outputs": [
        {
          "internalType": "contract ISuVault",
          "name": "",
          "type": "address"
        }
      ],
      "stateMutability": "view",
      "type": "function"
    },
    {
      "inputs": [],
      "name": "vaultParameters",
      "outputs": [
        {
          "internalType": "contract SuVaultParameters",
          "name": "",
          "type": "address"
        }
      ],
      "stateMutability": "view",
      "type": "function"
    },
    {
      "stateMutability": "payable",
      "type": "receive"
    }
  ],
  "numDeployments": 1,
  "solcInputHash": "a43877932f2d52b649b98010c4389c33",
  "bytecode": "0x608060405234801561001057600080fd5b50612055806100206000396000f3fe6080604052600436106101795760003560e01c8063aca345ee116100cb578063cf1334041161007f578063e6bc046111610059578063e6bc046114610474578063f3f481df146104a1578063fbfa77cf146104ce57600080fd5b8063cf133404146103ec578063d53913931461040c578063dc97e84e1461044057600080fd5b8063bb497dcc116100b0578063bb497dcc14610396578063bbdc9531146103ac578063c0c53b8b146103cc57600080fd5b8063aca345ee14610356578063ada9e5ad1461037657600080fd5b806356d8be561161012d5780639077beac116101075780639077beac146102f6578063a20f9cb314610316578063ab2a2a821461033657600080fd5b806356d8be56146102965780636f16cbf7146102b657806376b5070c146102d657600080fd5b806314c376dc1161015e57806314c376dc14610214578063392c0ce7146102565780634030815e1461027657600080fd5b806303ee9f22146101b5578063112e1400146101f257600080fd5b366101b0576040517fccc0891300000000000000000000000000000000000000000000000000000000815260040160405180910390fd5b600080fd5b3480156101c157600080fd5b506033546101d5906001600160a01b031681565b6040516001600160a01b0390911681526020015b60405180910390f35b3480156101fe57600080fd5b5061021261020d366004611ca6565b6104ee565b005b34801561022057600080fd5b506102487fe965846df3dd5b1dfa65f58e31477079e90140e0908b6dd31b5aead5a57cf36581565b6040519081526020016101e9565b34801561026257600080fd5b50610248610271366004611ce1565b61087a565b34801561028257600080fd5b50610248610291366004611ce1565b61093c565b3480156102a257600080fd5b506102486102b1366004611ce1565b610a4d565b3480156102c257600080fd5b506102126102d1366004611d1a565b610b3a565b3480156102e257600080fd5b506102486102f1366004611ce1565b610c70565b34801561030257600080fd5b50610212610311366004611d1a565b610ebb565b34801561032257600080fd5b50603a546101d5906001600160a01b031681565b34801561034257600080fd5b506039546101d5906001600160a01b031681565b34801561036257600080fd5b506037546101d5906001600160a01b031681565b34801561038257600080fd5b50610212610391366004611d46565b610fe1565b3480156103a257600080fd5b5061024860365481565b3480156103b857600080fd5b506102126103c7366004611d92565b61114b565b3480156103d857600080fd5b506102126103e7366004611dc7565b61166a565b3480156103f857600080fd5b50610212610407366004611e12565b6117e4565b34801561041857600080fd5b506102487f9f2df0fed2c77648de5860a4cc508cd0818c85b8b8a1ab4ceeef8d981c8956a681565b34801561044c57600080fd5b506102487f9a9aef7c1247d5fc769b0185c052913e39673da29a880317dfd20ebf86f26a4981565b34801561048057600080fd5b5061024861048f366004611e2b565b60356020526000908152604090205481565b3480156104ad57600080fd5b506102486104bc366004611e2b565b60346020526000908152604090205481565b3480156104da57600080fd5b506038546101d5906001600160a01b031681565b6002600154036105455760405162461bcd60e51b815260206004820152601f60248201527f5265656e7472616e637947756172643a207265656e7472616e742063616c6c0060448201526064015b60405180910390fd5b6002600155833383158015610558575084155b1561058f576040517ffa95696100000000000000000000000000000000000000000000000000000000815260040160405180910390fd5b6012866001600160a01b031663313ce5676040518163ffffffff1660e01b8152600401602060405180830381865afa1580156105cf573d6000803e3d6000fd5b505050506040513d601f19601f820116820180604052508101906105f39190611e4f565b60ff16111561062e576040517fd4f1d30200000000000000000000000000000000000000000000000000000000815260040160405180910390fd5b836000036106ae576038546040516320e8c56560e01b81526001600160a01b0388811660048301523360248301526044820188905260648201869052909116906320e8c56590608401600060405180830381600087803b15801561069157600080fd5b505af11580156106a5573d6000803e3d6000fd5b505050506107b7565b8415610728576038546040516320e8c56560e01b81526001600160a01b0388811660048301523360248301526044820188905260648201869052909116906320e8c56590608401600060405180830381600087803b15801561070f57600080fd5b505af1158015610723573d6000803e3d6000fd5b505050505b6038546040517f5224372c0000000000000000000000000000000000000000000000000000000081526001600160a01b0388811660048301523360248301526044820187905290911690635224372c90606401600060405180830381600087803b15801561079557600080fd5b505af11580156107a9573d6000803e3d6000fd5b505050506107b786336118a8565b6107c186336119a2565b604080518681526020810186905233916001600160a01b038916917f6423b6056e64b3b29cb2d342362b47c26fa8d6877da27ea152354060df19b9bc910160405180910390a3603954604051632ed56dff60e21b81526001600160a01b03848116600483015283811660248301529091169063bb55b7fc90604401600060405180830381600087803b15801561085657600080fd5b505af115801561086a573d6000803e3d6000fd5b5050600180555050505050505050565b600080610887848461093c565b90508060000361089b576000915050610936565b603854604051636aee125d60e11b81526001600160a01b0386811660048301528581166024830152600092169063d5dc24ba90604401602060405180830381865afa1580156108ee573d6000803e3d6000fd5b505050506040513d601f19601f820116820180604052508101906109129190611e72565b90508161092782670de0b6b3a7640000611ea1565b6109319190611eb8565b925050505b92915050565b6038546040516334e3b77960e01b81526001600160a01b038481166004830152838116602483015260009283929116906334e3b77990604401602060405180830381865afa158015610992573d6000803e3d6000fd5b505050506040513d601f19601f820116820180604052508101906109b69190611e72565b603a546040516306addfb360e31b81526001600160a01b038781166004830152929350670de0b6b3a7640000928492169063356efd9890602401602060405180830381865afa158015610a0d573d6000803e3d6000fd5b505050506040513d601f19601f82011682018060405250810190610a319190611e72565b610a3b9190611ea1565b610a459190611eb8565b949350505050565b600080610a5a848461093c565b6001600160a01b03851660009081526034602052604081205491925090670de0b6b3a764000090610a8b9084611ea1565b610a959190611eb8565b60385460405163a6ea8b8760e01b81526001600160a01b03888116600483015287811660248301529293506000929091169063a6ea8b8790604401602060405180830381865afa158015610aed573d6000803e3d6000fd5b505050506040513d601f19601f82011682018060405250810190610b119190611e72565b9050808211610b265760009350505050610936565b610b308183611eda565b9695505050505050565b603354604051632474521560e21b8152600060048201523360248201526001600160a01b03909116906391d1485490604401602060405180830381865afa158015610b89573d6000803e3d6000fd5b505050506040513d601f19601f82011682018060405250810190610bad9190611eed565b610bf95760405162461bcd60e51b815260206004820152601d60248201527f5375417574683a206f6e6c794f776e657220415554485f4641494c4544000000604482015260640161053c565b801580610c1d57506001600160a01b03821660009081526034602052604090205481105b15610c54576040517f120d7dfe00000000000000000000000000000000000000000000000000000000815260040160405180910390fd5b6001600160a01b03909116600090815260356020526040902055565b6038546040516334e3b77960e01b81526001600160a01b038481166004830152838116602483015260009283929116906334e3b77990604401602060405180830381865afa158015610cc6573d6000803e3d6000fd5b505050506040513d601f19601f82011682018060405250810190610cea9190611e72565b603a546040516306addfb360e31b81526001600160a01b0387811660048301529293506000929091169063356efd9890602401602060405180830381865afa158015610d3a573d6000803e3d6000fd5b505050506040513d601f19601f82011682018060405250810190610d5e9190611e72565b905080600003610d7357600092505050610936565b603854604051636aee125d60e11b81526001600160a01b0387811660048301528681166024830152600092169063d5dc24ba90604401602060405180830381865afa158015610dc6573d6000803e3d6000fd5b505050506040513d601f19601f82011682018060405250810190610dea9190611e72565b6001600160a01b03871660009081526034602052604081205491925090610e119084611ea1565b876001600160a01b031663313ce5676040518163ffffffff1660e01b8152600401602060405180830381865afa158015610e4f573d6000803e3d6000fd5b505050506040513d601f19601f82011682018060405250810190610e739190611e4f565b610e7e90600a611ff3565b610e889084611ea1565b610e9a90670de0b6b3a7640000611ea1565b610ea49190611eb8565b9050610eb08185611eda565b979650505050505050565b603354604051632474521560e21b8152600060048201523360248201526001600160a01b03909116906391d1485490604401602060405180830381865afa158015610f0a573d6000803e3d6000fd5b505050506040513d601f19601f82011682018060405250810190610f2e9190611eed565b610f7a5760405162461bcd60e51b815260206004820152601d60248201527f5375417574683a206f6e6c794f776e657220415554485f4641494c4544000000604482015260640161053c565b801580610f8e5750670de0b6b3a764000081115b15610fc5576040517f6ae75f5b00000000000000000000000000000000000000000000000000000000815260040160405180910390fd5b6001600160a01b03909116600090815260346020526040902055565b603354604051632474521560e21b8152600060048201523360248201526001600160a01b03909116906391d1485490604401602060405180830381865afa158015611030573d6000803e3d6000fd5b505050506040513d601f19601f820116820180604052508101906110549190611eed565b6110a05760405162461bcd60e51b815260206004820152601d60248201527f5375417574683a206f6e6c794f776e657220415554485f4641494c4544000000604482015260640161053c565b6037546040517f9fea3e070000000000000000000000000000000000000000000000000000000081526001600160a01b038881166004830152602482018890526044820185905290911690639fea3e0790606401600060405180830381600087803b15801561110e57600080fd5b505af1158015611122573d6000803e3d6000fd5b505050506111308685610ebb565b61113a8684610b3a565b611143816117e4565b505050505050565b60026001540361119d5760405162461bcd60e51b815260206004820152601f60248201527f5265656e7472616e637947756172643a207265656e7472616e742063616c6c00604482015260640161053c565b60026001556038546040517f1ce4b4a70000000000000000000000000000000000000000000000000000000081526001600160a01b03808616600483015233602483018190528693909260009290911690631ce4b4a790604401602060405180830381865afa158015611214573d6000803e3d6000fd5b505050506040513d601f19601f820116820180604052508101906112389190611e72565b1115611270576040517ffa5af4cd00000000000000000000000000000000000000000000000000000000815260040160405180910390fd5b603854604051636aee125d60e11b81526001600160a01b038781166004830152336024830152600092169063d5dc24ba90604401602060405180830381865afa1580156112c1573d6000803e3d6000fd5b505050506040513d601f19601f820116820180604052508101906112e59190611e72565b9050808411156112f3578093505b6038546040517f34c188b00000000000000000000000000000000000000000000000000000000081526001600160a01b0388811660048301523360248301526044820187905260009216906334c188b090606401602060405180830381865afa158015611364573d6000803e3d6000fd5b505050506040513d601f19601f820116820180604052508101906113889190611e72565b6038546040517f6f70e66f0000000000000000000000000000000000000000000000000000000081526001600160a01b038a8116600483015233602483018190526044830152606482018a905260848201899052929350911690636f70e66f9060a401600060405180830381600087803b15801561140557600080fd5b505af1158015611419573d6000803e3d6000fd5b5050505061142787336119a2565b6038546040517f628a468300000000000000000000000000000000000000000000000000000000815233600482015260248101879052604481018390526001600160a01b039091169063628a468390606401600060405180830381600087803b15801561149357600080fd5b505af11580156114a7573d6000803e3d6000fd5b5050603854604051636aee125d60e11b81526001600160a01b038b8116600483015233602483015260009450909116915063d5dc24ba90604401602060405180830381865afa1580156114fe573d6000803e3d6000fd5b505050506040513d601f19601f820116820180604052508101906115229190611e72565b11156115b0576038546040517fc640752d0000000000000000000000000000000000000000000000000000000081526001600160a01b0389811660048301523360248301529091169063c640752d90604401600060405180830381600087803b15801561158e57600080fd5b505af11580156115a2573d6000803e3d6000fd5b505050506115b087336118a8565b604080518781526020810187905233916001600160a01b038a16917fa702ae6024e8b4c2b0eb162b1453dacb93cf6922f5a2d7236faed898c21148f8910160405180910390a35050603954604051632ed56dff60e21b81526001600160a01b03848116600483015283811660248301529091169063bb55b7fc90604401600060405180830381600087803b15801561164757600080fd5b505af115801561165b573d6000803e3d6000fd5b50506001805550505050505050565b600054610100900460ff166116855760005460ff1615611689565b303b155b6116fb5760405162461bcd60e51b815260206004820152602e60248201527f496e697469616c697a61626c653a20636f6e747261637420697320616c72656160448201527f647920696e697469616c697a6564000000000000000000000000000000000000606482015260840161053c565b600054610100900460ff1615801561171d576000805461ffff19166101011790555b6001600160a01b038216158061173a57506001600160a01b038316155b15611771576040517fa1ba07ee00000000000000000000000000000000000000000000000000000000815260040160405180910390fd5b6117796119fe565b61178284611a73565b603a80546001600160a01b0380861673ffffffffffffffffffffffffffffffffffffffff199283161790925560388054878416908316179055603980549285169290911691909117905580156117de576000805461ff00191690555b50505050565b603354604051632474521560e21b8152600060048201523360248201526001600160a01b03909116906391d1485490604401602060405180830381865afa158015611833573d6000803e3d6000fd5b505050506040513d601f19601f820116820180604052508101906118579190611eed565b6118a35760405162461bcd60e51b815260206004820152601d60248201527f5375417574683a206f6e6c794f776e657220415554485f4641494c4544000000604482015260640161053c565b603655565b60006118b4838361093c565b6001600160a01b03841660009081526034602052604081205491925090670de0b6b3a7640000906118e59084611ea1565b6118ef9190611eb8565b60385460405163a6ea8b8760e01b81526001600160a01b038781166004830152868116602483015292935083929091169063a6ea8b8790604401602060405180830381865afa158015611946573d6000803e3d6000fd5b505050506040513d601f19601f8201168201806040525081019061196a9190611e72565b11156117de576040517f30b58a9100000000000000000000000000000000000000000000000000000000815260040160405180910390fd5b60006119ae838361093c565b90506000811180156119c257506036548111155b156119f9576040517f7f834c6e00000000000000000000000000000000000000000000000000000000815260040160405180910390fd5b505050565b600054610100900460ff16611a695760405162461bcd60e51b815260206004820152602b60248201527f496e697469616c697a61626c653a20636f6e7472616374206973206e6f74206960448201526a6e697469616c697a696e6760a81b606482015260840161053c565b611a71611b83565b565b600054610100900460ff16611ade5760405162461bcd60e51b815260206004820152602b60248201527f496e697469616c697a61626c653a20636f6e7472616374206973206e6f74206960448201526a6e697469616c697a696e6760a81b606482015260840161053c565b611b48816001600160a01b03166303ee9f226040518163ffffffff1660e01b8152600401602060405180830381865afa158015611b1f573d6000803e3d6000fd5b505050506040513d601f19601f82011682018060405250810190611b439190612002565b611bf4565b6037805473ffffffffffffffffffffffffffffffffffffffff19166001600160a01b0392909216919091179055674563918244f40000603655565b600054610100900460ff16611bee5760405162461bcd60e51b815260206004820152602b60248201527f496e697469616c697a61626c653a20636f6e7472616374206973206e6f74206960448201526a6e697469616c697a696e6760a81b606482015260840161053c565b60018055565b600054610100900460ff16611c5f5760405162461bcd60e51b815260206004820152602b60248201527f496e697469616c697a61626c653a20636f6e7472616374206973206e6f74206960448201526a6e697469616c697a696e6760a81b606482015260840161053c565b6033805473ffffffffffffffffffffffffffffffffffffffff19166001600160a01b0392909216919091179055565b6001600160a01b0381168114611ca357600080fd5b50565b60008060008060808587031215611cbc57600080fd5b8435611cc781611c8e565b966020860135965060408601359560600135945092505050565b60008060408385031215611cf457600080fd5b8235611cff81611c8e565b91506020830135611d0f81611c8e565b809150509250929050565b60008060408385031215611d2d57600080fd5b8235611d3881611c8e565b946020939093013593505050565b60008060008060008060c08789031215611d5f57600080fd5b8635611d6a81611c8e565b9860208801359850604088013597606081013597506080810135965060a00135945092505050565b600080600060608486031215611da757600080fd5b8335611db281611c8e565b95602085013595506040909401359392505050565b600080600060608486031215611ddc57600080fd5b8335611de781611c8e565b92506020840135611df781611c8e565b91506040840135611e0781611c8e565b809150509250925092565b600060208284031215611e2457600080fd5b5035919050565b600060208284031215611e3d57600080fd5b8135611e4881611c8e565b9392505050565b600060208284031215611e6157600080fd5b815160ff81168114611e4857600080fd5b600060208284031215611e8457600080fd5b5051919050565b634e487b7160e01b600052601160045260246000fd5b808202811582820484141761093657610936611e8b565b600082611ed557634e487b7160e01b600052601260045260246000fd5b500490565b8181038181111561093657610936611e8b565b600060208284031215611eff57600080fd5b81518015158114611e4857600080fd5b600181815b80851115611f4a578160001904821115611f3057611f30611e8b565b80851615611f3d57918102915b93841c9390800290611f14565b509250929050565b600082611f6157506001610936565b81611f6e57506000610936565b8160018114611f845760028114611f8e57611faa565b6001915050610936565b60ff841115611f9f57611f9f611e8b565b50506001821b610936565b5060208310610133831016604e8410600b8410161715611fcd575081810a610936565b611fd78383611f0f565b8060001904821115611feb57611feb611e8b565b029392505050565b6000611e4860ff841683611f52565b60006020828403121561201457600080fd5b8151611e4881611c8e56fea26469706673582212204b9724cb45a64a69ea6124cb6a5cef0cdb665d1a90b7562203b87e2d4207f38f64736f6c63430008110033",
  "devdoc": {
    "kind": "dev",
    "methods": {
      "setInitialCollateralRatioE18(address,uint256)": {
        "details": "Sets the initial collateral ratio",
        "params": {
          "asset": "The address of the main collateral token",
          "newValueE18": "The collateralization ratio (1e18 = 100%)*"
        }
      },
      "setLiquidationRatioE18(address,uint256)": {
        "details": "Sets the liquidation ratio",
        "params": {
          "asset": "The address of the main collateral token",
          "newValueE18": "The liquidation ratio (1e18 = 100%)*"
        }
      },
      "setMinCollateralInUsdE18(uint256)": {
        "details": "Sets a minimum value of collateral in USD which allowed to be left after partial closure",
        "params": {
          "newValueE18": "The minimum value of collateral in USD"
        }
      }
    },
    "version": 1
  },
  "userdoc": {
    "kind": "user",
    "methods": {
      "setInitialCollateralRatioE18(address,uint256)": {
        "notice": "Only manager is able to call this function"
      },
      "setLiquidationRatioE18(address,uint256)": {
        "notice": "Only manager is able to call this function"
      },
      "setMinCollateralInUsdE18(uint256)": {
        "notice": "Only manager is able to call this function"
      }
    },
    "version": 1
  },
  "storageLayout": {
    "storage": [
      {
        "astId": 408,
        "contract": "contracts/lending/SuManager.sol:SuManager",
        "label": "_initialized",
        "offset": 0,
        "slot": "0",
        "type": "t_bool"
      },
      {
        "astId": 411,
        "contract": "contracts/lending/SuManager.sol:SuManager",
        "label": "_initializing",
        "offset": 1,
        "slot": "0",
        "type": "t_bool"
      },
      {
        "astId": 489,
        "contract": "contracts/lending/SuManager.sol:SuManager",
        "label": "_status",
        "offset": 0,
        "slot": "1",
        "type": "t_uint256"
      },
      {
        "astId": 533,
        "contract": "contracts/lending/SuManager.sol:SuManager",
        "label": "__gap",
        "offset": 0,
        "slot": "2",
        "type": "t_array(t_uint256)49_storage"
      },
      {
        "astId": 2707,
        "contract": "contracts/lending/SuManager.sol:SuManager",
        "label": "ACCESS_CONTROL_SINGLETON",
        "offset": 0,
        "slot": "51",
        "type": "t_contract(ISuAccessControl)4153"
      },
      {
        "astId": 6711,
        "contract": "contracts/lending/SuManager.sol:SuManager",
        "label": "initialCollateralRatioE18",
        "offset": 0,
        "slot": "52",
        "type": "t_mapping(t_address,t_uint256)"
      },
      {
        "astId": 6715,
        "contract": "contracts/lending/SuManager.sol:SuManager",
        "label": "liquidationRatioE18",
        "offset": 0,
        "slot": "53",
        "type": "t_mapping(t_address,t_uint256)"
      },
      {
        "astId": 6717,
        "contract": "contracts/lending/SuManager.sol:SuManager",
        "label": "minCollateralInUsdE18",
        "offset": 0,
        "slot": "54",
        "type": "t_uint256"
      },
      {
        "astId": 6720,
        "contract": "contracts/lending/SuManager.sol:SuManager",
        "label": "vaultParameters",
        "offset": 0,
        "slot": "55",
        "type": "t_contract(SuVaultParameters)7731"
      },
      {
        "astId": 6162,
        "contract": "contracts/lending/SuManager.sol:SuManager",
        "label": "vault",
        "offset": 0,
        "slot": "56",
        "type": "t_contract(ISuVault)4905"
      },
      {
        "astId": 6165,
        "contract": "contracts/lending/SuManager.sol:SuManager",
        "label": "cdpRegistry",
        "offset": 0,
        "slot": "57",
        "type": "t_contract(ISuCdpRegistry)4257"
      },
      {
        "astId": 6168,
        "contract": "contracts/lending/SuManager.sol:SuManager",
        "label": "suOracle",
        "offset": 0,
        "slot": "58",
        "type": "t_contract(ISuOracle)4685"
      }
    ],
    "types": {
      "t_address": {
        "encoding": "inplace",
        "label": "address",
        "numberOfBytes": "20"
      },
      "t_array(t_uint256)49_storage": {
        "base": "t_uint256",
        "encoding": "inplace",
        "label": "uint256[49]",
        "numberOfBytes": "1568"
      },
      "t_bool": {
        "encoding": "inplace",
        "label": "bool",
        "numberOfBytes": "1"
      },
      "t_contract(ISuAccessControl)4153": {
        "encoding": "inplace",
        "label": "contract ISuAccessControl",
        "numberOfBytes": "20"
      },
      "t_contract(ISuCdpRegistry)4257": {
        "encoding": "inplace",
        "label": "contract ISuCdpRegistry",
        "numberOfBytes": "20"
      },
      "t_contract(ISuOracle)4685": {
        "encoding": "inplace",
        "label": "contract ISuOracle",
        "numberOfBytes": "20"
      },
      "t_contract(ISuVault)4905": {
        "encoding": "inplace",
        "label": "contract ISuVault",
        "numberOfBytes": "20"
      },
      "t_contract(SuVaultParameters)7731": {
        "encoding": "inplace",
        "label": "contract SuVaultParameters",
        "numberOfBytes": "20"
      },
      "t_mapping(t_address,t_uint256)": {
        "encoding": "mapping",
        "key": "t_address",
        "label": "mapping(address => uint256)",
        "numberOfBytes": "32",
        "value": "t_uint256"
      },
      "t_uint256": {
        "encoding": "inplace",
        "label": "uint256",
        "numberOfBytes": "32"
      }
    }
  }
}