{
  "address": "0x0165878A594ca255338adfa4d48449f69242Eb8F",
  "abi": [
    {
      "inputs": [],
      "name": "ACCESS_CONTROL_SINGLETON",
      "outputs": [
        {
          "internalType": "contract ISuAccessControl",
          "name": "",
          "type": "address"
        }
      ],
      "stateMutability": "view",
      "type": "function"
    },
    {
      "inputs": [],
      "name": "LIQUIDATION_ACCESS_ROLE",
      "outputs": [
        {
          "internalType": "bytes32",
          "name": "",
          "type": "bytes32"
        }
      ],
      "stateMutability": "view",
      "type": "function"
    },
    {
      "inputs": [],
      "name": "MINTER_ROLE",
      "outputs": [
        {
          "internalType": "bytes32",
          "name": "",
          "type": "bytes32"
        }
      ],
      "stateMutability": "view",
      "type": "function"
    },
    {
      "inputs": [],
      "name": "VAULT_ACCESS_ROLE",
      "outputs": [
        {
          "internalType": "bytes32",
          "name": "",
          "type": "bytes32"
        }
      ],
      "stateMutability": "view",
      "type": "function"
    },
    {
      "inputs": [
        {
          "internalType": "address",
          "name": "",
          "type": "address"
        }
      ],
      "name": "assetToOracle",
      "outputs": [
        {
          "internalType": "uint256",
          "name": "",
          "type": "uint256"
        }
      ],
      "stateMutability": "view",
      "type": "function"
    },
    {
      "inputs": [
        {
          "internalType": "address",
          "name": "asset",
          "type": "address"
        }
      ],
      "name": "getUsdPrice1e18",
      "outputs": [
        {
          "internalType": "uint256",
          "name": "",
          "type": "uint256"
        }
      ],
      "stateMutability": "view",
      "type": "function"
    },
    {
      "inputs": [
        {
          "internalType": "address",
          "name": "_authControl",
          "type": "address"
        }
      ],
      "name": "initialize",
      "outputs": [],
      "stateMutability": "nonpayable",
      "type": "function"
    },
    {
      "inputs": [
        {
          "internalType": "uint256",
          "name": "",
          "type": "uint256"
        }
      ],
      "name": "oracleImplementations",
      "outputs": [
        {
          "internalType": "contract ISuOracle",
          "name": "",
          "type": "address"
        }
      ],
      "stateMutability": "view",
      "type": "function"
    },
    {
      "inputs": [
        {
          "internalType": "address[]",
          "name": "assets",
          "type": "address[]"
        },
        {
          "internalType": "uint256",
          "name": "oracleId",
          "type": "uint256"
        }
      ],
      "name": "setOracleIdForAssets",
      "outputs": [],
      "stateMutability": "nonpayable",
      "type": "function"
    },
    {
      "inputs": [
        {
          "internalType": "uint256",
          "name": "oracleId",
          "type": "uint256"
        },
        {
          "internalType": "contract ISuOracle",
          "name": "oracleImplementation",
          "type": "address"
        }
      ],
      "name": "setOracleImplementation",
      "outputs": [],
      "stateMutability": "nonpayable",
      "type": "function"
    }
  ],
  "numDeployments": 1,
  "solcInputHash": "ac45f3a894e8f00c75d3661e5001d65c",
  "bytecode": "0x608060405234801561001057600080fd5b50610a64806100206000396000f3fe608060405234801561001057600080fd5b50600436106100be5760003560e01c80636806ff2b11610076578063d53913931161005b578063d5391393146101b2578063dc97e84e146101d9578063ef54c3781461020057600080fd5b80636806ff2b1461018a578063c4d66de81461019f57600080fd5b806314c376dc116100a757806314c376dc146101225780632e00d24514610157578063356efd981461017757600080fd5b806303ee9f22146100c35780630827ba5b146100f9575b600080fd5b6000546100dc906201000090046001600160a01b031681565b6040516001600160a01b0390911681526020015b60405180910390f35b6100dc610107366004610840565b6002602052600090815260409020546001600160a01b031681565b6101497fe965846df3dd5b1dfa65f58e31477079e90140e0908b6dd31b5aead5a57cf36581565b6040519081526020016100f0565b610149610165366004610881565b60016020526000908152604090205481565b610149610185366004610881565b610213565b61019d6101983660046108bb565b610370565b005b61019d6101ad366004610881565b610500565b6101497f9f2df0fed2c77648de5860a4cc508cd0818c85b8b8a1ab4ceeef8d981c8956a681565b6101497f9a9aef7c1247d5fc769b0185c052913e39673da29a880317dfd20ebf86f26a4981565b61019d61020e366004610986565b6105d2565b6001600160a01b0381166000908152600160205260408120548082036102805760405162461bcd60e51b815260206004820152601760248201527f4e6f206f7261636c6520666f722074686520617373657400000000000000000060448201526064015b60405180910390fd5b6000818152600260205260409020546001600160a01b0316806102e55760405162461bcd60e51b815260206004820152601860248201527f4e6f206f7261636c6520696d706c656d656e746174696f6e00000000000000006044820152606401610277565b6040517f356efd980000000000000000000000000000000000000000000000000000000081526001600160a01b03858116600483015282169063356efd9890602401602060405180830381865afa158015610344573d6000803e3d6000fd5b505050506040513d601f19601f8201168201806040525081019061036891906109b6565b949350505050565b60008054604051632474521560e21b815260048101929092523360248301526201000090046001600160a01b0316906391d1485490604401602060405180830381865afa1580156103c5573d6000803e3d6000fd5b505050506040513d601f19601f820116820180604052508101906103e991906109cf565b6104355760405162461bcd60e51b815260206004820152601d60248201527f5375417574683a206f6e6c794f776e657220415554485f4641494c45440000006044820152606401610277565b6000818152600260205260409020546001600160a01b03166104995760405162461bcd60e51b815260206004820152601960248201527f4f7261636c65496d706c656d656e746174696f6e203d3d2030000000000000006044820152606401610277565b60005b82518110156104fb5781600160008584815181106104bc576104bc6109f1565b60200260200101516001600160a01b03166001600160a01b031681526020019081526020016000208190555080806104f390610a07565b91505061049c565b505050565b600054610100900460ff1661051b5760005460ff161561051f565b303b155b6105915760405162461bcd60e51b815260206004820152602e60248201527f496e697469616c697a61626c653a20636f6e747261637420697320616c72656160448201527f647920696e697469616c697a65640000000000000000000000000000000000006064820152608401610277565b600054610100900460ff161580156105b3576000805461ffff19166101011790555b6105bc82610783565b80156105ce576000805461ff00191690555b5050565b60008054604051632474521560e21b815260048101929092523360248301526201000090046001600160a01b0316906391d1485490604401602060405180830381865afa158015610627573d6000803e3d6000fd5b505050506040513d601f19601f8201168201806040525081019061064b91906109cf565b6106975760405162461bcd60e51b815260206004820152601d60248201527f5375417574683a206f6e6c794f776e657220415554485f4641494c45440000006044820152606401610277565b816000036106e75760405162461bcd60e51b815260206004820152600d60248201527f4f7261636c654964203d3d2030000000000000000000000000000000000000006044820152606401610277565b6001600160a01b03811661073d5760405162461bcd60e51b815260206004820152601960248201527f4f7261636c65496d706c656d656e746174696f6e203d3d2030000000000000006044820152606401610277565b60009182526002602052604090912080547fffffffffffffffffffffffff0000000000000000000000000000000000000000166001600160a01b03909216919091179055565b600054610100900460ff166108005760405162461bcd60e51b815260206004820152602b60248201527f496e697469616c697a61626c653a20636f6e7472616374206973206e6f74206960448201527f6e697469616c697a696e670000000000000000000000000000000000000000006064820152608401610277565b600080546001600160a01b0390921662010000027fffffffffffffffffffff0000000000000000000000000000000000000000ffff909216919091179055565b60006020828403121561085257600080fd5b5035919050565b6001600160a01b038116811461086e57600080fd5b50565b803561087c81610859565b919050565b60006020828403121561089357600080fd5b813561089e81610859565b9392505050565b634e487b7160e01b600052604160045260246000fd5b600080604083850312156108ce57600080fd5b823567ffffffffffffffff808211156108e657600080fd5b818501915085601f8301126108fa57600080fd5b813560208282111561090e5761090e6108a5565b8160051b604051601f19603f83011681018181108682111715610933576109336108a5565b60405292835281830193508481018201928984111561095157600080fd5b948201945b838610156109765761096786610871565b85529482019493820193610956565b9997909101359750505050505050565b6000806040838503121561099957600080fd5b8235915060208301356109ab81610859565b809150509250929050565b6000602082840312156109c857600080fd5b5051919050565b6000602082840312156109e157600080fd5b8151801515811461089e57600080fd5b634e487b7160e01b600052603260045260246000fd5b600060018201610a2757634e487b7160e01b600052601160045260246000fd5b506001019056fea26469706673582212205023320bc0fc12337f5713dfb63bd00ff7b3a3f5aef0246977c41a7662d234ff64736f6c63430008110033",
  "devdoc": {
    "kind": "dev",
    "methods": {
      "getUsdPrice1e18(address)": {
        "params": {
          "asset": "- address of erc20 token contract"
        },
        "returns": {
          "_0": "usdPrice1e18 such that asset.balanceOf() * getUsdPrice1e18(asset) / 1e18 == $$ * 1e18*"
        }
      },
      "setOracleImplementation(uint256,address)": {
        "params": {
          "oracleId": "- number 0,1, etc to assign the oracle",
          "oracleImplementation": "- an address with ISuOracle implementation contract*"
        }
      }
    },
    "version": 1
  },
  "userdoc": {
    "kind": "user",
    "methods": {
      "getUsdPrice1e18(address)": {
        "notice": "WARNING! Read this description very carefully!      function getUsdPrice1e18(address asset) returns (uint256) that:          basicAmountOfAsset * getUsdPrice1e18(asset) / 1e18 === $$ * 1e18      in other words, it doesn't matter what's the erc20.decimals is,      you just multiply token balance in basic units on value from oracle and get dollar amount multiplied on 1e18. different assets have different deviation threshold (errors)      for wBTC it's <= 0.5%, read more https://data.chain.link/ethereum/mainnet/crypto-usd/btc-usd      for other asset is can be larger based on particular oracle implementation. examples:       market price of btc = $30k,       for 0.1 wBTC the unit256 amount is 0.1 * 1e18       0.1 * 1e18 * (price1e18 / 1e18) == $3000 == uint256(3000*1e18)       => price1e18 = 30000 * 1e18;       market price of usdt = $0.97,       for 1 usdt uint256 = 1 * 1e6       so 1*1e6 * price1e18 / 1e18 == $0.97 == uint256(0.97*1e18)       => 1*1e6 * (price1e18 / 1e18) / (0.97*1e18)   = 1       =>  price1e18 = 0.97 * (1e18/1e6) * 1e18      assume market price of wBTC = $31,503.77, oracle error = $158       case #1: small amount of wBTC           we have 0.0,000,001 wBTC that is worth v = $0.00315  $0.00001 = 0.00315*1e18 = 315*1e13  1*1e13           actual balance on the asset b = wBTC.balanceOf() =  0.0000001*1e18 = 1e11           oracle should return or = oracle.getUsdPrice1e18(wBTC) <=>           <=> b*or = v => v/b = 315*1e13 / 1e11 = 315*1e2  1e2           error = or.error * b = 1e2 * 1e11 = 1e13 => 1e13/1e18 usd = 1e-5 = 0.00001 usd       case #2: large amount of wBTC           v = 2,000,000 wBTC = $31,503.77 * 2m  158*2m = $63,007,540,000  $316,000,000 = 63,007*1e24  316*1e24           for calc convenience we increase error on 0.05 and have v = 63,000*24  300*1e24 = (630  3)*1e26           b = 2*1e6 * 1e18 = 2*1e24           or = v/b = (630  3)*1e26 / 2*1e24 = 315*1e2  1.5*1e2           error = or.error * b = 1.5*100 * 2*1e24 = 3*1e26 = 3*1e8*1e18 = $300,000,000 ~ $316,000,000      assume the market price of USDT = $0.97  $0.00485,       case #3: little amount of USDT           v = USDT amount 0.005 = 0.005*(0.97  0.00485) = 0.00485*1e18  0.00002425*1e18 = 485*1e13  3*1e13           we rounded error up on (3000-2425)/2425 ~= +24% for calculation convenience.           b = USDT.balanceOf() = 0.005*1e6 = 5*1e3           b*or = v => or = v/b = (485*1e13  3*1e13) / 5*1e3 = 970*1e9  6*1e9           error = 6*1e9 * 5*1e3 / 1e18 = 30*1e12/1e18 = 3*1e-5 = $0,00005       case #4: lot of USDT           v = we have 100,000,000,000 USDT = $97B = 97*1e9*1e18  0.5*1e9*1e18           b = USDT.balanceOf() = 1e11*1e6 = 1e17           or = v/b = (97*1e9*1e18  0.5*1e9*1e18) / 1e17 = 970*1e9  5*1e9           error = 5*1e9 * 1e17 = 5*1e26 = 0.5 * 1e8*1e18"
      },
      "setOracleIdForAssets(address[],uint256)": {
        "notice": "specify what oracleId should be used for each assets. Checks that oracleId has an implementation*"
      },
      "setOracleImplementation(uint256,address)": {
        "notice": "assign address of oracle implementation to the oracleId"
      }
    },
    "version": 1
  },
  "storageLayout": {
    "storage": [
      {
        "astId": 454,
        "contract": "contracts/oracles/SuOracleAggregator.sol:SuOracleAggregator",
        "label": "_initialized",
        "offset": 0,
        "slot": "0",
        "type": "t_bool"
      },
      {
        "astId": 457,
        "contract": "contracts/oracles/SuOracleAggregator.sol:SuOracleAggregator",
        "label": "_initializing",
        "offset": 1,
        "slot": "0",
        "type": "t_bool"
      },
      {
        "astId": 2775,
        "contract": "contracts/oracles/SuOracleAggregator.sol:SuOracleAggregator",
        "label": "ACCESS_CONTROL_SINGLETON",
        "offset": 2,
        "slot": "0",
        "type": "t_contract(ISuAccessControl)4943"
      },
      {
        "astId": 10168,
        "contract": "contracts/oracles/SuOracleAggregator.sol:SuOracleAggregator",
        "label": "assetToOracle",
        "offset": 0,
        "slot": "1",
        "type": "t_mapping(t_address,t_uint256)"
      },
      {
        "astId": 10173,
        "contract": "contracts/oracles/SuOracleAggregator.sol:SuOracleAggregator",
        "label": "oracleImplementations",
        "offset": 0,
        "slot": "2",
        "type": "t_mapping(t_uint256,t_contract(ISuOracle)5504)"
      }
    ],
    "types": {
      "t_address": {
        "encoding": "inplace",
        "label": "address",
        "numberOfBytes": "20"
      },
      "t_bool": {
        "encoding": "inplace",
        "label": "bool",
        "numberOfBytes": "1"
      },
      "t_contract(ISuAccessControl)4943": {
        "encoding": "inplace",
        "label": "contract ISuAccessControl",
        "numberOfBytes": "20"
      },
      "t_contract(ISuOracle)5504": {
        "encoding": "inplace",
        "label": "contract ISuOracle",
        "numberOfBytes": "20"
      },
      "t_mapping(t_address,t_uint256)": {
        "encoding": "mapping",
        "key": "t_address",
        "label": "mapping(address => uint256)",
        "numberOfBytes": "32",
        "value": "t_uint256"
      },
      "t_mapping(t_uint256,t_contract(ISuOracle)5504)": {
        "encoding": "mapping",
        "key": "t_uint256",
        "label": "mapping(uint256 => contract ISuOracle)",
        "numberOfBytes": "32",
        "value": "t_contract(ISuOracle)5504"
      },
      "t_uint256": {
        "encoding": "inplace",
        "label": "uint256",
        "numberOfBytes": "32"
      }
    }
  }
}