{
  "address": "0x4C4a2f8c81640e47606d3fd77B353E87Ba015584",
  "abi": [
    {
      "inputs": [
        {
          "internalType": "address",
          "name": "_Factory",
          "type": "address"
        },
        {
          "internalType": "address",
          "name": "_WETH",
          "type": "address"
        },
        {
          "internalType": "address",
          "name": "_USDT",
          "type": "address"
        }
      ],
      "stateMutability": "nonpayable",
      "type": "constructor"
    },
    {
      "anonymous": false,
      "inputs": [
        {
          "indexed": true,
          "internalType": "address",
          "name": "previousOwner",
          "type": "address"
        },
        {
          "indexed": true,
          "internalType": "address",
          "name": "newOwner",
          "type": "address"
        }
      ],
      "name": "OwnershipTransferred",
      "type": "event"
    },
    {
      "inputs": [],
      "name": "Factory",
      "outputs": [
        {
          "internalType": "address",
          "name": "",
          "type": "address"
        }
      ],
      "stateMutability": "view",
      "type": "function"
    },
    {
      "inputs": [],
      "name": "USDT",
      "outputs": [
        {
          "internalType": "address",
          "name": "",
          "type": "address"
        }
      ],
      "stateMutability": "view",
      "type": "function"
    },
    {
      "inputs": [],
      "name": "USDTPool",
      "outputs": [
        {
          "internalType": "address",
          "name": "",
          "type": "address"
        }
      ],
      "stateMutability": "view",
      "type": "function"
    },
    {
      "inputs": [],
      "name": "WETH",
      "outputs": [
        {
          "internalType": "address",
          "name": "",
          "type": "address"
        }
      ],
      "stateMutability": "view",
      "type": "function"
    },
    {
      "inputs": [
        {
          "internalType": "address",
          "name": "",
          "type": "address"
        }
      ],
      "name": "assetToPool",
      "outputs": [
        {
          "internalType": "address",
          "name": "",
          "type": "address"
        }
      ],
      "stateMutability": "view",
      "type": "function"
    },
    {
      "inputs": [
        {
          "internalType": "address",
          "name": "_asset",
          "type": "address"
        },
        {
          "internalType": "uint24",
          "name": "_fee",
          "type": "uint24"
        }
      ],
      "name": "enableAssetPool",
      "outputs": [],
      "stateMutability": "nonpayable",
      "type": "function"
    },
    {
      "inputs": [
        {
          "internalType": "address[]",
          "name": "route",
          "type": "address[]"
        },
        {
          "internalType": "contract IUniswapV3Pool[]",
          "name": "pools",
          "type": "address[]"
        },
        {
          "internalType": "uint128",
          "name": "amountIn",
          "type": "uint128"
        }
      ],
      "name": "getExpectedReturnAmount",
      "outputs": [
        {
          "internalType": "uint256",
          "name": "returnAmount",
          "type": "uint256"
        },
        {
          "internalType": "uint256",
          "name": "returnDecimals",
          "type": "uint256"
        }
      ],
      "stateMutability": "view",
      "type": "function"
    },
    {
      "inputs": [
        {
          "internalType": "address",
          "name": "asset",
          "type": "address"
        }
      ],
      "name": "getUsdPrice1e18",
      "outputs": [
        {
          "internalType": "uint256",
          "name": "",
          "type": "uint256"
        }
      ],
      "stateMutability": "view",
      "type": "function"
    },
    {
      "inputs": [],
      "name": "observationSeconds",
      "outputs": [
        {
          "internalType": "uint32",
          "name": "",
          "type": "uint32"
        }
      ],
      "stateMutability": "view",
      "type": "function"
    },
    {
      "inputs": [],
      "name": "owner",
      "outputs": [
        {
          "internalType": "address",
          "name": "",
          "type": "address"
        }
      ],
      "stateMutability": "view",
      "type": "function"
    },
    {
      "inputs": [],
      "name": "renounceOwnership",
      "outputs": [],
      "stateMutability": "nonpayable",
      "type": "function"
    },
    {
      "inputs": [
        {
          "internalType": "uint32",
          "name": "_newObservationSeconds",
          "type": "uint32"
        }
      ],
      "name": "setObservationSeconds",
      "outputs": [],
      "stateMutability": "nonpayable",
      "type": "function"
    },
    {
      "inputs": [
        {
          "internalType": "address",
          "name": "newOwner",
          "type": "address"
        }
      ],
      "name": "transferOwnership",
      "outputs": [],
      "stateMutability": "nonpayable",
      "type": "function"
    }
  ],
  "transactionHash": "0xb9c0d1939e74f694cded2b908acff77e2d625b1730659ca9e3831ff875caeedb",
  "args": [
    "0x1F98431c8aD98523631AE4a59f267346ea31F984",
    "0xc02aaa39b223fe8d0a0e5c4f27ead9083c756cc2",
    "0xdAC17F958D2ee523a2206206994597C13D831ec7"
  ],
  "numDeployments": 1,
  "solcInputHash": "5c58522fbba4c4ae3f29f432589ef99e",
  "bytecode": "0x6101006040523480156200001257600080fd5b506040516200291c3803806200291c833981810160405260608110156200003857600080fd5b81019080805190602001909291908051906020019092919080519060200190929190505050336000806101000a81548173ffffffffffffffffffffffffffffffffffffffff021916908373ffffffffffffffffffffffffffffffffffffffff1602179055503373ffffffffffffffffffffffffffffffffffffffff16600073ffffffffffffffffffffffffffffffffffffffff167f8be0079c531659141344cd1fd0a4f28419497f9722a3daafe3b4186f6b6457e060405160405180910390a361012c600060146101000a81548163ffffffff021916908363ffffffff1602179055508273ffffffffffffffffffffffffffffffffffffffff1660808173ffffffffffffffffffffffffffffffffffffffff1660601b815250508173ffffffffffffffffffffffffffffffffffffffff1660a08173ffffffffffffffffffffffffffffffffffffffff1660601b815250508073ffffffffffffffffffffffffffffffffffffffff1660c08173ffffffffffffffffffffffffffffffffffffffff1660601b81525050620001f083620001df8484610bb86200022f60201b620015cc1760201c565b620002ce60201b620016681760201c565b73ffffffffffffffffffffffffffffffffffffffff1660e08173ffffffffffffffffffffffffffffffffffffffff1660601b815250505050506200047c565b620002396200042a565b8273ffffffffffffffffffffffffffffffffffffffff168473ffffffffffffffffffffffffffffffffffffffff1611156200027957828480945081955050505b60405180606001604052808573ffffffffffffffffffffffffffffffffffffffff1681526020018473ffffffffffffffffffffffffffffffffffffffff1681526020018362ffffff1681525090509392505050565b6000816020015173ffffffffffffffffffffffffffffffffffffffff16826000015173ffffffffffffffffffffffffffffffffffffffff16106200031157600080fd5b82826000015183602001518460400151604051602001808473ffffffffffffffffffffffffffffffffffffffff1681526020018373ffffffffffffffffffffffffffffffffffffffff1681526020018262ffffff1681526020019350505050604051602081830303815290604052805190602001207fe34f199b19b2b4f47f68442619d555527d244f78a3297ea89325f843f87b8b5460001b60405160200180807fff000000000000000000000000000000000000000000000000000000000000008152506001018473ffffffffffffffffffffffffffffffffffffffff1660601b815260140183815260200182815260200193505050506040516020818303038152906040528051906020012060001c905092915050565b6040518060600160405280600073ffffffffffffffffffffffffffffffffffffffff168152602001600073ffffffffffffffffffffffffffffffffffffffff168152602001600062ffffff1681525090565b60805160601c60a05160601c60c05160601c60e05160601c612431620004eb6000398061070e52806109ec52806111f452508061065a528061089152806111ac52508061055252806105f2528061082952806110a352806113025250806111d052806112de52506124316000f3fe608060405234801561001057600080fd5b50600436106100cf5760003560e01c8063c192041a1161008c578063cb46b28211610066578063cb46b2821461042b578063d3a6fc991461045f578063f2fde38b146104b2578063fa2c6d7c146104f6576100cf565b8063c192041a1461038f578063c54e44eb146103c3578063c83dd231146103f7576100cf565b8063044c8d71146100d4578063356efd9814610142578063715018a61461019a5780638da5cb5b146101a457806397884243146101d8578063ad5c46481461035b575b600080fd5b610116600480360360208110156100ea57600080fd5b81019080803573ffffffffffffffffffffffffffffffffffffffff16906020019092919050505061051a565b604051808273ffffffffffffffffffffffffffffffffffffffff16815260200191505060405180910390f35b6101846004803603602081101561015857600080fd5b81019080803573ffffffffffffffffffffffffffffffffffffffff16906020019092919050505061054d565b6040518082815260200191505060405180910390f35b6101a2610a7d565b005b6101ac610bfc565b604051808273ffffffffffffffffffffffffffffffffffffffff16815260200191505060405180910390f35b61033e600480360360608110156101ee57600080fd5b810190808035906020019064010000000081111561020b57600080fd5b82018360208201111561021d57600080fd5b8035906020019184602083028401116401000000008311171561023f57600080fd5b919080806020026020016040519081016040528093929190818152602001838360200280828437600081840152601f19601f8201169050808301925050505050505091929192908035906020019064010000000081111561029f57600080fd5b8201836020820111156102b157600080fd5b803590602001918460208302840111640100000000831117156102d357600080fd5b919080806020026020016040519081016040528093929190818152602001838360200280828437600081840152601f19601f82011690508083019250505050505050919291929080356fffffffffffffffffffffffffffffffff169060200190929190505050610c25565b604051808381526020018281526020019250505060405180910390f35b6103636110a1565b604051808273ffffffffffffffffffffffffffffffffffffffff16815260200191505060405180910390f35b6103c1600480360360208110156103a557600080fd5b81019080803563ffffffff1690602001909291905050506110c5565b005b6103cb6111aa565b604051808273ffffffffffffffffffffffffffffffffffffffff16815260200191505060405180910390f35b6103ff6111ce565b604051808273ffffffffffffffffffffffffffffffffffffffff16815260200191505060405180910390f35b6104336111f2565b604051808273ffffffffffffffffffffffffffffffffffffffff16815260200191505060405180910390f35b6104b06004803603604081101561047557600080fd5b81019080803573ffffffffffffffffffffffffffffffffffffffff169060200190929190803562ffffff169060200190929190505050611216565b005b6104f4600480360360208110156104c857600080fd5b81019080803573ffffffffffffffffffffffffffffffffffffffff1690602001909291905050506113b2565b005b6104fe6115b6565b604051808263ffffffff16815260200191505060405180910390f35b60016020528060005260406000206000915054906101000a900473ffffffffffffffffffffffffffffffffffffffff1681565b6000807f000000000000000000000000000000000000000000000000000000000000000073ffffffffffffffffffffffffffffffffffffffff168373ffffffffffffffffffffffffffffffffffffffff161415610793576000600267ffffffffffffffff811180156105be57600080fd5b506040519080825280602002602001820160405280156105ed5781602001602082028036833780820191505090505b5090507f00000000000000000000000000000000000000000000000000000000000000008160008151811061061e57fe5b602002602001019073ffffffffffffffffffffffffffffffffffffffff16908173ffffffffffffffffffffffffffffffffffffffff16815250507f00000000000000000000000000000000000000000000000000000000000000008160018151811061068657fe5b602002602001019073ffffffffffffffffffffffffffffffffffffffff16908173ffffffffffffffffffffffffffffffffffffffff16815250506000600167ffffffffffffffff811180156106da57600080fd5b506040519080825280602002602001820160405280156107095781602001602082028036833780820191505090505b5090507f00000000000000000000000000000000000000000000000000000000000000008160008151811061073a57fe5b602002602001019073ffffffffffffffffffffffffffffffffffffffff16908173ffffffffffffffffffffffffffffffffffffffff16815250506107878282670de0b6b3a7640000610c25565b50809350505050610a6d565b6000600367ffffffffffffffff811180156107ad57600080fd5b506040519080825280602002602001820160405280156107dc5781602001602082028036833780820191505090505b50905083816000815181106107ed57fe5b602002602001019073ffffffffffffffffffffffffffffffffffffffff16908173ffffffffffffffffffffffffffffffffffffffff16815250507f00000000000000000000000000000000000000000000000000000000000000008160018151811061085557fe5b602002602001019073ffffffffffffffffffffffffffffffffffffffff16908173ffffffffffffffffffffffffffffffffffffffff16815250507f0000000000000000000000000000000000000000000000000000000000000000816002815181106108bd57fe5b602002602001019073ffffffffffffffffffffffffffffffffffffffff16908173ffffffffffffffffffffffffffffffffffffffff16815250506000600267ffffffffffffffff8111801561091157600080fd5b506040519080825280602002602001820160405280156109405781602001602082028036833780820191505090505b509050600160008673ffffffffffffffffffffffffffffffffffffffff1673ffffffffffffffffffffffffffffffffffffffff16815260200190815260200160002060009054906101000a900473ffffffffffffffffffffffffffffffffffffffff16816000815181106109b057fe5b602002602001019073ffffffffffffffffffffffffffffffffffffffff16908173ffffffffffffffffffffffffffffffffffffffff16815250507f000000000000000000000000000000000000000000000000000000000000000081600181518110610a1857fe5b602002602001019073ffffffffffffffffffffffffffffffffffffffff16908173ffffffffffffffffffffffffffffffffffffffff1681525050610a658282670de0b6b3a7640000610c25565b508093505050505b64e8d4a510008102915050919050565b3373ffffffffffffffffffffffffffffffffffffffff1660008054906101000a900473ffffffffffffffffffffffffffffffffffffffff1673ffffffffffffffffffffffffffffffffffffffff1614610b3e576040517f08c379a00000000000000000000000000000000000000000000000000000000081526004018080602001828103825260208152602001807f4f776e61626c653a2063616c6c6572206973206e6f7420746865206f776e657281525060200191505060405180910390fd5b600073ffffffffffffffffffffffffffffffffffffffff1660008054906101000a900473ffffffffffffffffffffffffffffffffffffffff1673ffffffffffffffffffffffffffffffffffffffff167f8be0079c531659141344cd1fd0a4f28419497f9722a3daafe3b4186f6b6457e060405160405180910390a360008060006101000a81548173ffffffffffffffffffffffffffffffffffffffff021916908373ffffffffffffffffffffffffffffffffffffffff160217905550565b60008060009054906101000a900473ffffffffffffffffffffffffffffffffffffffff16905090565b6000806000845190506000849050600080600090505b83811015610ff9576000888281518110610c5157fe5b6020026020010151905060008a8381518110610c6957fe5b6020026020010151905060008b6001850181518110610c8457fe5b602002602001015190508173ffffffffffffffffffffffffffffffffffffffff168373ffffffffffffffffffffffffffffffffffffffff16630dfe16816040518163ffffffff1660e01b815260040160206040518083038186803b158015610ceb57600080fd5b505afa158015610cff573d6000803e3d6000fd5b505050506040513d6020811015610d1557600080fd5b810190808051906020019092919050505073ffffffffffffffffffffffffffffffffffffffff16148015610df457508073ffffffffffffffffffffffffffffffffffffffff168373ffffffffffffffffffffffffffffffffffffffff1663d21220a76040518163ffffffff1660e01b815260040160206040518083038186803b158015610da157600080fd5b505afa158015610db5573d6000803e3d6000fd5b505050506040513d6020811015610dcb57600080fd5b810190808051906020019092919050505073ffffffffffffffffffffffffffffffffffffffff16145b80610f6157508073ffffffffffffffffffffffffffffffffffffffff168373ffffffffffffffffffffffffffffffffffffffff16630dfe16816040518163ffffffff1660e01b815260040160206040518083038186803b158015610e5757600080fd5b505afa158015610e6b573d6000803e3d6000fd5b505050506040513d6020811015610e8157600080fd5b810190808051906020019092919050505073ffffffffffffffffffffffffffffffffffffffff16148015610f6057508173ffffffffffffffffffffffffffffffffffffffff168373ffffffffffffffffffffffffffffffffffffffff1663d21220a76040518163ffffffff1660e01b815260040160206040518083038186803b158015610f0d57600080fd5b505afa158015610f21573d6000803e3d6000fd5b505050506040513d6020811015610f3757600080fd5b810190808051906020019092919050505073ffffffffffffffffffffffffffffffffffffffff16145b5b610fb6576040517f08c379a000000000000000000000000000000000000000000000000000000000815260040180806020018281038252603b8152602001806123c1603b913960400191505060405180910390fd5b6000610fd484600060149054906101000a900463ffffffff166117c3565b509050610fe381888585611c30565b9550859650505050508080600101915050610c3b565b5080945087838151811061100957fe5b602002602001015173ffffffffffffffffffffffffffffffffffffffff1663313ce5676040518163ffffffff1660e01b815260040160206040518083038186803b15801561105657600080fd5b505afa15801561106a573d6000803e3d6000fd5b505050506040513d602081101561108057600080fd5b810190808051906020019092919050505060ff169350505050935093915050565b7f000000000000000000000000000000000000000000000000000000000000000081565b3373ffffffffffffffffffffffffffffffffffffffff1660008054906101000a900473ffffffffffffffffffffffffffffffffffffffff1673ffffffffffffffffffffffffffffffffffffffff1614611186576040517f08c379a00000000000000000000000000000000000000000000000000000000081526004018080602001828103825260208152602001807f4f776e61626c653a2063616c6c6572206973206e6f7420746865206f776e657281525060200191505060405180910390fd5b80600060146101000a81548163ffffffff021916908363ffffffff16021790555050565b7f000000000000000000000000000000000000000000000000000000000000000081565b7f000000000000000000000000000000000000000000000000000000000000000081565b7f000000000000000000000000000000000000000000000000000000000000000081565b3373ffffffffffffffffffffffffffffffffffffffff1660008054906101000a900473ffffffffffffffffffffffffffffffffffffffff1673ffffffffffffffffffffffffffffffffffffffff16146112d7576040517f08c379a00000000000000000000000000000000000000000000000000000000081526004018080602001828103825260208152602001807f4f776e61626c653a2063616c6c6572206973206e6f7420746865206f776e657281525060200191505060405180910390fd5b600061132d7f00000000000000000000000000000000000000000000000000000000000000006113287f000000000000000000000000000000000000000000000000000000000000000086866115cc565b611668565b905080600160008573ffffffffffffffffffffffffffffffffffffffff1673ffffffffffffffffffffffffffffffffffffffff16815260200190815260200160002060006101000a81548173ffffffffffffffffffffffffffffffffffffffff021916908373ffffffffffffffffffffffffffffffffffffffff160217905550505050565b3373ffffffffffffffffffffffffffffffffffffffff1660008054906101000a900473ffffffffffffffffffffffffffffffffffffffff1673ffffffffffffffffffffffffffffffffffffffff1614611473576040517f08c379a00000000000000000000000000000000000000000000000000000000081526004018080602001828103825260208152602001807f4f776e61626c653a2063616c6c6572206973206e6f7420746865206f776e657281525060200191505060405180910390fd5b600073ffffffffffffffffffffffffffffffffffffffff168173ffffffffffffffffffffffffffffffffffffffff1614156114f9576040517f08c379a000000000000000000000000000000000000000000000000000000000815260040180806020018281038252602681526020018061239b6026913960400191505060405180910390fd5b8073ffffffffffffffffffffffffffffffffffffffff1660008054906101000a900473ffffffffffffffffffffffffffffffffffffffff1673ffffffffffffffffffffffffffffffffffffffff167f8be0079c531659141344cd1fd0a4f28419497f9722a3daafe3b4186f6b6457e060405160405180910390a3806000806101000a81548173ffffffffffffffffffffffffffffffffffffffff021916908373ffffffffffffffffffffffffffffffffffffffff16021790555050565b600060149054906101000a900463ffffffff1681565b6115d4612348565b8273ffffffffffffffffffffffffffffffffffffffff168473ffffffffffffffffffffffffffffffffffffffff16111561161357828480945081955050505b60405180606001604052808573ffffffffffffffffffffffffffffffffffffffff1681526020018473ffffffffffffffffffffffffffffffffffffffff1681526020018362ffffff1681525090509392505050565b6000816020015173ffffffffffffffffffffffffffffffffffffffff16826000015173ffffffffffffffffffffffffffffffffffffffff16106116aa57600080fd5b82826000015183602001518460400151604051602001808473ffffffffffffffffffffffffffffffffffffffff1681526020018373ffffffffffffffffffffffffffffffffffffffff1681526020018262ffffff1681526020019350505050604051602081830303815290604052805190602001207fe34f199b19b2b4f47f68442619d555527d244f78a3297ea89325f843f87b8b5460001b60405160200180807fff000000000000000000000000000000000000000000000000000000000000008152506001018473ffffffffffffffffffffffffffffffffffffffff1660601b815260140183815260200182815260200193505050506040516020818303038152906040528051906020012060001c905092915050565b60008060008363ffffffff161415611843576040517f08c379a00000000000000000000000000000000000000000000000000000000081526004018080602001828103825260028152602001807f425000000000000000000000000000000000000000000000000000000000000081525060200191505060405180910390fd5b6000600267ffffffffffffffff8111801561185d57600080fd5b5060405190808252806020026020018201604052801561188c5781602001602082028036833780820191505090505b509050838160008151811061189d57fe5b602002602001019063ffffffff16908163ffffffff16815250506000816001815181106118c657fe5b602002602001019063ffffffff16908163ffffffff16815250506000808673ffffffffffffffffffffffffffffffffffffffff1663883bdbfd846040518263ffffffff1660e01b81526004018080602001828103825283818151815260200191508051906020019060200280838360005b83811015611952578082015181840152602081019050611937565b505050509050019250505060006040518083038186803b15801561197557600080fd5b505afa158015611989573d6000803e3d6000fd5b505050506040513d6000823e3d601f19601f8201168201806040525060408110156119b357600080fd5b81019080805160405193929190846401000000008211156119d357600080fd5b838201915060208201858111156119e957600080fd5b8251866020820283011164010000000082111715611a0657600080fd5b8083526020830192505050908051906020019060200280838360005b83811015611a3d578082015181840152602081019050611a22565b5050505090500160405260200180516040519392919084640100000000821115611a6657600080fd5b83820191506020820185811115611a7c57600080fd5b8251866020820283011164010000000082111715611a9957600080fd5b8083526020830192505050908051906020019060200280838360005b83811015611ad0578082015181840152602081019050611ab5565b5050505090500160405250505091509150600082600081518110611af057fe5b602002602001015183600181518110611b0557fe5b6020026020010151039050600082600081518110611b1f57fe5b602002602001015183600181518110611b3457fe5b60200260200101510390508763ffffffff168260060b81611b5157fe5b05965060008260060b128015611b7d575060008863ffffffff168360060b81611b7657fe5b0760060b14155b15611b8c578680600190039750505b600073ffffffffffffffffffffffffffffffffffffffff80168963ffffffff1602905060208273ffffffffffffffffffffffffffffffffffffffff1677ffffffffffffffffffffffffffffffffffffffffffffffff16901b77ffffffffffffffffffffffffffffffffffffffffffffffff168177ffffffffffffffffffffffffffffffffffffffffffffffff1681611c2057fe5b0496505050505050509250929050565b600080611c3c86611e33565b90506fffffffffffffffffffffffffffffffff80168173ffffffffffffffffffffffffffffffffffffffff1611611d4d5760008173ffffffffffffffffffffffffffffffffffffffff168273ffffffffffffffffffffffffffffffffffffffff160290508373ffffffffffffffffffffffffffffffffffffffff168573ffffffffffffffffffffffffffffffffffffffff1610611d0e57611d097801000000000000000000000000000000000000000000000000876fffffffffffffffffffffffffffffffff168361226e565b611d45565b611d4481876fffffffffffffffffffffffffffffffff16780100000000000000000000000000000000000000000000000061226e565b5b925050611e2a565b6000611d8f8273ffffffffffffffffffffffffffffffffffffffff168373ffffffffffffffffffffffffffffffffffffffff166801000000000000000061226e565b90508373ffffffffffffffffffffffffffffffffffffffff168573ffffffffffffffffffffffffffffffffffffffff1610611df757611df2700100000000000000000000000000000000876fffffffffffffffffffffffffffffffff168361226e565b611e26565b611e2581876fffffffffffffffffffffffffffffffff1670010000000000000000000000000000000061226e565b5b9250505b50949350505050565b60008060008360020b12611e4a578260020b611e52565b8260020b6000035b90507ffffffffffffffffffffffffffffffffffffffffffffffffffffffffffff2761860000360020b811115611ef0576040517f08c379a00000000000000000000000000000000000000000000000000000000081526004018080602001828103825260018152602001807f540000000000000000000000000000000000000000000000000000000000000081525060200191505060405180910390fd5b600080600183161415611f1457700100000000000000000000000000000000611f26565b6ffffcb933bd6fad37aa2d162d1a5940015b70ffffffffffffffffffffffffffffffffff16905060006002831614611f605760806ffff97272373d413259a46990580e213a8202901c90505b60006004831614611f855760806ffff2e50f5f656932ef12357cf3c7fdcc8202901c90505b60006008831614611faa5760806fffe5caca7e10e4e61c3624eaa0941cd08202901c90505b60006010831614611fcf5760806fffcb9843d60f6159c9db58835c9266448202901c90505b60006020831614611ff45760806fff973b41fa98c081472e6896dfb254c08202901c90505b600060408316146120195760806fff2ea16466c96a3843ec78b326b528618202901c90505b6000608083161461203e5760806ffe5dee046a99a2a811c461f1969c30538202901c90505b60006101008316146120645760806ffcbe86c7900a88aedcffc83b479aa3a48202901c90505b600061020083161461208a5760806ff987a7253ac413176f2b074cf7815e548202901c90505b60006104008316146120b05760806ff3392b0822b70005940c7a398e4b70f38202901c90505b60006108008316146120d65760806fe7159475a2c29b7443b29c7fa6e889d98202901c90505b60006110008316146120fc5760806fd097f3bdfd2022b8845ad8f792aa58258202901c90505b60006120008316146121225760806fa9f746462d870fdf8a65dc1f90e061e58202901c90505b60006140008316146121485760806f70d869a156d2a1b890bb3df62baf32f78202901c90505b600061800083161461216e5760806f31be135f97d08fd981231505542fcfa68202901c90505b6000620100008316146121955760806f09aa508b5b7a84e1c677de54f3e99bc98202901c90505b6000620200008316146121bb5760806e5d6af8dedb81196699c329225ee6048202901c90505b6000620400008316146121e05760806d2216e584f5fa1ea926041bedfe988202901c90505b6000620800008316146122035760806b048a170391f7dc42444e8fa28202901c90505b60008460020b131561223c57807fffffffffffffffffffffffffffffffffffffffffffffffffffffffffffffffff8161223857fe5b0490505b6000640100000000828161224c57fe5b061461225957600161225c565b60005b60ff16602082901c0192505050919050565b6000806000801985870985870292508281108382030391505060008114156122a9576000841161229d57600080fd5b83820492505050612341565b8084116122b557600080fd5b600084868809905082811182039150808303925060008586600003169050808604955080840493506001818260000304019050808302841793506000600287600302189050808702600203810290508087026002038102905080870260020381029050808702600203810290508087026002038102905080870260020381029050808502955050505050505b9392505050565b6040518060600160405280600073ffffffffffffffffffffffffffffffffffffffff168152602001600073ffffffffffffffffffffffffffffffffffffffff168152602001600062ffffff168152509056fe4f776e61626c653a206e6577206f776e657220697320746865207a65726f2061646472657373556e6956334f7261636c653a20676574457870656374656452657475726e416d6f756e743a2057726f6e6720706f6f6c73206f7220746f6b656e73a26469706673582212201c8af4086d9c87c14ef9b614976e26ef7c1514616b5ea1e78189e5cbbf5cefad64736f6c63430007060033",
  "devdoc": {
    "kind": "dev",
    "methods": {
      "getUsdPrice1e18(address)": {
        "params": {
          "asset": "- address of erc20 token contract"
        },
        "returns": {
          "_0": "usdPrice1e18 such that asset.balanceOf() * getUsdPrice1e18(asset) / 1e18 == $$ * 1e18*"
        }
      },
      "owner()": {
        "details": "Returns the address of the current owner."
      },
      "renounceOwnership()": {
        "details": "Leaves the contract without owner. It will not be possible to call `onlyOwner` functions anymore. Can only be called by the current owner. NOTE: Renouncing ownership will leave the contract without an owner, thereby removing any functionality that is only available to the owner."
      },
      "transferOwnership(address)": {
        "details": "Transfers ownership of the contract to a new account (`newOwner`). Can only be called by the current owner."
      }
    },
    "version": 1
  },
  "userdoc": {
    "kind": "user",
    "methods": {
      "getUsdPrice1e18(address)": {
        "notice": "WARNING! Read this description very carefully!      function getUsdPrice1e18(address asset) returns (uint256) that:          basicAmountOfAsset * getUsdPrice1e18(asset) / 1e18 === $$ * 1e18      in other words, it doesn't matter what's the erc20.decimals is,      you just multiply token balance in basic units on value from oracle and get dollar amount multiplied on 1e18. different assets have different deviation threshold (errors)      for wBTC it's <= 0.5%, read more https://data.chain.link/ethereum/mainnet/crypto-usd/btc-usd      for other asset is can be larger based on particular oracle implementation. examples:      assume market price of wBTC = $31,503.77, oracle error = $158       case #1: small amount of wBTC           we have 0.0,000,001 wBTC that is worth v = $0.00315  $0.00001 = 0.00315*1e18 = 315*1e13  1*1e13           actual balance on the asset b = wBTC.balanceOf() =  0.0000001*1e18 = 1e11           oracle should return or = oracle.getUsdPrice1e18(wBTC) <=>           <=> b*or = v => v/b = 315*1e13 / 1e11 = 315*1e2  1e2           error = or.error * b = 1e2 * 1e11 = 1e13 => 1e13/1e18 usd = 1e-5 = 0.00001 usd       case #2: large amount of wBTC           v = 2,000,000 wBTC = $31,503.77 * 2m  158*2m = $63,007,540,000  $316,000,000 = 63,007*1e24  316*1e24           for calc convenience we increase error on 0.05 and have v = 63,000*24  300*1e24 = (630  3)*1e26           b = 2*1e6 * 1e18 = 2*1e24           or = v/b = (630  3)*1e26 / 2*1e24 = 315*1e2  1.5*1e2           error = or.error * b = 1.5*100 * 2*1e24 = 3*1e26 = 3*1e8*1e18 = $300,000,000 ~ $316,000,000      assume the market price of USDT = $0.97  $0.00485,       case #3: little amount of USDT           v = USDT amount 0.005 = 0.005*(0.97  0.00485) = 0.00485*1e18  0.00002425*1e18 = 485*1e13  3*1e13           we rounded error up on (3000-2425)/2425 ~= +24% for calculation convenience.           b = USDT.balanceOf() = 0.005*1e6 = 5*1e3           b*or = v => or = v/b = (485*1e13  3*1e13) / 5*1e3 = 970*1e9  6*1e9           error = 6*1e9 * 5*1e3 / 1e18 = 30*1e12/1e18 = 3*1e-5 = $0,00005       case #4: lot of USDT           v = we have 100,000,000,000 USDT = $97B = 97*1e9*1e18  0.5*1e9*1e18           b = USDT.balanceOf() = 1e11*1e6 = 1e17           or = v/b = (97*1e9*1e18  0.5*1e9*1e18) / 1e17 = 970*1e9  5*1e9           error = 5*1e9 * 1e17 = 5*1e26 = 0.5 * 1e8*1e18"
      }
    },
    "version": 1
  },
  "storageLayout": {
    "storage": [
      {
        "astId": 1558,
        "contract": "contracts/oracles/SuUniV3Oracle.sol:SuUniV3Oracle",
        "label": "_owner",
        "offset": 0,
        "slot": "0",
        "type": "t_address"
      },
      {
        "astId": 701,
        "contract": "contracts/oracles/SuUniV3Oracle.sol:SuUniV3Oracle",
        "label": "observationSeconds",
        "offset": 20,
        "slot": "0",
        "type": "t_uint32"
      },
      {
        "astId": 467,
        "contract": "contracts/oracles/SuUniV3Oracle.sol:SuUniV3Oracle",
        "label": "assetToPool",
        "offset": 0,
        "slot": "1",
        "type": "t_mapping(t_address,t_address)"
      }
    ],
    "types": {
      "t_address": {
        "encoding": "inplace",
        "label": "address",
        "numberOfBytes": "20"
      },
      "t_mapping(t_address,t_address)": {
        "encoding": "mapping",
        "key": "t_address",
        "label": "mapping(address => address)",
        "numberOfBytes": "32",
        "value": "t_address"
      },
      "t_uint32": {
        "encoding": "inplace",
        "label": "uint32",
        "numberOfBytes": "4"
      }
    }
  }
}