{
  "_format": "hh-sol-artifact-1",
  "contractName": "MockExchange",
  "sourceName": "contracts/MockExchange.sol",
  "abi": [
    {
      "inputs": [],
      "stateMutability": "nonpayable",
      "type": "constructor"
    },
    {
      "anonymous": false,
      "inputs": [
        {
          "indexed": true,
          "internalType": "address",
          "name": "previousOwner",
          "type": "address"
        },
        {
          "indexed": true,
          "internalType": "address",
          "name": "newOwner",
          "type": "address"
        }
      ],
      "name": "OwnershipTransferred",
      "type": "event"
    },
    {
      "inputs": [
        {
          "internalType": "address",
          "name": "tokenFrom",
          "type": "address"
        },
        {
          "internalType": "address",
          "name": "tokenTo",
          "type": "address"
        },
        {
          "internalType": "uint256",
          "name": "amountFrom",
          "type": "uint256"
        }
      ],
      "name": "execute",
      "outputs": [
        {
          "internalType": "bool",
          "name": "",
          "type": "bool"
        }
      ],
      "stateMutability": "nonpayable",
      "type": "function"
    },
    {
      "inputs": [],
      "name": "owner",
      "outputs": [
        {
          "internalType": "address",
          "name": "",
          "type": "address"
        }
      ],
      "stateMutability": "view",
      "type": "function"
    },
    {
      "inputs": [
        {
          "internalType": "address",
          "name": "",
          "type": "address"
        },
        {
          "internalType": "address",
          "name": "",
          "type": "address"
        }
      ],
      "name": "rates",
      "outputs": [
        {
          "internalType": "uint256",
          "name": "",
          "type": "uint256"
        }
      ],
      "stateMutability": "view",
      "type": "function"
    },
    {
      "inputs": [],
      "name": "renounceOwnership",
      "outputs": [],
      "stateMutability": "nonpayable",
      "type": "function"
    },
    {
      "inputs": [
        {
          "internalType": "address",
          "name": "_tokenFrom",
          "type": "address"
        },
        {
          "internalType": "address",
          "name": "_tokenTo",
          "type": "address"
        },
        {
          "internalType": "uint256",
          "name": "_rate",
          "type": "uint256"
        }
      ],
      "name": "setRate",
      "outputs": [],
      "stateMutability": "nonpayable",
      "type": "function"
    },
    {
      "inputs": [
        {
          "internalType": "address",
          "name": "newOwner",
          "type": "address"
        }
      ],
      "name": "transferOwnership",
      "outputs": [],
      "stateMutability": "nonpayable",
      "type": "function"
    }
  ],
  "bytecode": "0x608060405234801561001057600080fd5b50600080546001600160a01b031916339081178255604051909182917f8be0079c531659141344cd1fd0a4f28419497f9722a3daafe3b4186f6b6457e0908290a3506106fc806100616000396000f3fe608060405234801561001057600080fd5b50600436106100725760003560e01c80638da5cb5b116100505780638da5cb5b146100d2578063eafaddfd146100ed578063f2fde38b1461011057600080fd5b80635911fb9a14610077578063715018a61461008c5780637b0cf44d14610094575b600080fd5b61008a610085366004610620565b610123565b005b61008a6101ae565b6100bf6100a23660046105ee565b600160209081526000928352604080842090915290825290205481565b6040519081526020015b60405180910390f35b6000546040516001600160a01b0390911681526020016100c9565b6101006100fb366004610620565b61025f565b60405190151581526020016100c9565b61008a61011e3660046105cd565b610473565b6000546001600160a01b031633146101825760405162461bcd60e51b815260206004820181905260248201527f4f776e61626c653a2063616c6c6572206973206e6f7420746865206f776e657260448201526064015b60405180910390fd5b6001600160a01b0392831660009081526001602090815260408083209490951682529290925291902055565b6000546001600160a01b031633146102085760405162461bcd60e51b815260206004820181905260248201527f4f776e61626c653a2063616c6c6572206973206e6f7420746865206f776e65726044820152606401610179565b600080546040516001600160a01b03909116907f8be0079c531659141344cd1fd0a4f28419497f9722a3daafe3b4186f6b6457e0908390a36000805473ffffffffffffffffffffffffffffffffffffffff19169055565b6040517f23b872dd000000000000000000000000000000000000000000000000000000008152336004820152306024820152604481018290526000906001600160a01b038516906323b872dd90606401602060405180830381600087803b1580156102c957600080fd5b505af11580156102dd573d6000803e3d6000fd5b505050506040513d601f19601f82011682018060405250810190610301919061065b565b506001600160a01b038085166000908152600160209081526040808320938716835292905290812054610334908461069b565b9050806103ce576001600160a01b03808516600090815260016020908152604080832093891683529290522054670de0b6b3a764000090610375908561069b565b61037f919061067b565b9050806103ce5760405162461bcd60e51b815260206004820152600b60248201527f4e6f2072617465207365740000000000000000000000000000000000000000006044820152606401610179565b6040517fa9059cbb000000000000000000000000000000000000000000000000000000008152336004820152602481018290526001600160a01b0385169063a9059cbb90604401602060405180830381600087803b15801561042f57600080fd5b505af1158015610443573d6000803e3d6000fd5b505050506040513d601f19601f82011682018060405250810190610467919061065b565b50600195945050505050565b6000546001600160a01b031633146104cd5760405162461bcd60e51b815260206004820181905260248201527f4f776e61626c653a2063616c6c6572206973206e6f7420746865206f776e65726044820152606401610179565b6001600160a01b0381166105495760405162461bcd60e51b815260206004820152602660248201527f4f776e61626c653a206e6577206f776e657220697320746865207a65726f206160448201527f64647265737300000000000000000000000000000000000000000000000000006064820152608401610179565b600080546040516001600160a01b03808516939216917f8be0079c531659141344cd1fd0a4f28419497f9722a3daafe3b4186f6b6457e091a36000805473ffffffffffffffffffffffffffffffffffffffff19166001600160a01b0392909216919091179055565b80356001600160a01b03811681146105c857600080fd5b919050565b6000602082840312156105de578081fd5b6105e7826105b1565b9392505050565b60008060408385031215610600578081fd5b610609836105b1565b9150610617602084016105b1565b90509250929050565b600080600060608486031215610634578081fd5b61063d846105b1565b925061064b602085016105b1565b9150604084013590509250925092565b60006020828403121561066c578081fd5b815180151581146105e7578182fd5b60008261069657634e487b7160e01b81526012600452602481fd5b500490565b60008160001904831182151516156106c157634e487b7160e01b81526011600452602481fd5b50029056fea2646970667358221220a4a361536f086589ec9bc3f1d5764b58b6c29787904f58dc0ecbce6c836cf52064736f6c63430008040033",
  "linkReferences": {},
  "deployedLinkReferences": {}
}