{
  "_format": "hh-sol-artifact-1",
  "contractName": "SuLiquidation",
  "sourceName": "contracts/liquidator/SuLiquidation.sol",
  "abi": [
    {
      "inputs": [
        {
          "internalType": "address",
          "name": "authControl_",
          "type": "address"
        },
        {
          "internalType": "address",
          "name": "suManager_",
          "type": "address"
        },
        {
          "internalType": "address",
          "name": "suOracle_",
          "type": "address"
        }
      ],
      "stateMutability": "nonpayable",
      "type": "constructor"
    },
    {
      "inputs": [],
      "name": "IncorrectDiscount",
      "type": "error"
    },
    {
      "inputs": [],
      "name": "LessThanMinimum",
      "type": "error"
    },
    {
      "inputs": [],
      "name": "NotEnoughAmount",
      "type": "error"
    },
    {
      "inputs": [],
      "name": "NotEnoughDeferredAmount",
      "type": "error"
    },
    {
      "inputs": [],
      "name": "TooMuchAmount",
      "type": "error"
    },
    {
      "inputs": [],
      "name": "ZeroAddress",
      "type": "error"
    },
    {
      "inputs": [],
      "name": "ACCESS_CONTROL_SINGLETON",
      "outputs": [
        {
          "internalType": "contract ISuAccessControl",
          "name": "",
          "type": "address"
        }
      ],
      "stateMutability": "view",
      "type": "function"
    },
    {
      "inputs": [],
      "name": "LIQUIDATION_ACCESS_ROLE",
      "outputs": [
        {
          "internalType": "bytes32",
          "name": "",
          "type": "bytes32"
        }
      ],
      "stateMutability": "view",
      "type": "function"
    },
    {
      "inputs": [],
      "name": "MINTER_ROLE",
      "outputs": [
        {
          "internalType": "bytes32",
          "name": "",
          "type": "bytes32"
        }
      ],
      "stateMutability": "view",
      "type": "function"
    },
    {
      "inputs": [],
      "name": "VAULT_ACCESS_ROLE",
      "outputs": [
        {
          "internalType": "bytes32",
          "name": "",
          "type": "bytes32"
        }
      ],
      "stateMutability": "view",
      "type": "function"
    },
    {
      "inputs": [
        {
          "internalType": "address",
          "name": "asset",
          "type": "address"
        },
        {
          "internalType": "address",
          "name": "owner",
          "type": "address"
        }
      ],
      "name": "calculateLiquidationDiscount",
      "outputs": [
        {
          "internalType": "uint256",
          "name": "",
          "type": "uint256"
        }
      ],
      "stateMutability": "view",
      "type": "function"
    },
    {
      "inputs": [
        {
          "internalType": "address",
          "name": "asset",
          "type": "address"
        },
        {
          "internalType": "enum DiscountType",
          "name": "discountType",
          "type": "uint8"
        },
        {
          "components": [
            {
              "internalType": "uint256",
              "name": "firstBlockE18",
              "type": "uint256"
            },
            {
              "internalType": "uint256",
              "name": "stepPerMinuteE18",
              "type": "uint256"
            }
          ],
          "internalType": "struct DiscountInfo",
          "name": "discountInfo",
          "type": "tuple"
        }
      ],
      "name": "setDiscountInfo",
      "outputs": [],
      "stateMutability": "nonpayable",
      "type": "function"
    },
    {
      "inputs": [
        {
          "internalType": "address",
          "name": "asset",
          "type": "address"
        },
        {
          "internalType": "address",
          "name": "owner",
          "type": "address"
        },
        {
          "internalType": "address",
          "name": "stablecoinToken",
          "type": "address"
        },
        {
          "internalType": "uint256",
          "name": "stablecoinAmountE18",
          "type": "uint256"
        },
        {
          "internalType": "uint256",
          "name": "minAssetAmountEDecimal",
          "type": "uint256"
        }
      ],
      "name": "swapStablecoinToAsset",
      "outputs": [],
      "stateMutability": "nonpayable",
      "type": "function"
    },
    {
      "inputs": [
        {
          "internalType": "address",
          "name": "asset",
          "type": "address"
        },
        {
          "internalType": "address",
          "name": "owner",
          "type": "address"
        },
        {
          "internalType": "uint256",
          "name": "stablecoinAmountE18",
          "type": "uint256"
        },
        {
          "internalType": "uint256",
          "name": "minAssetAmountEDecimal",
          "type": "uint256"
        }
      ],
      "name": "swapSuUsdToAsset",
      "outputs": [],
      "stateMutability": "nonpayable",
      "type": "function"
    },
    {
      "inputs": [
        {
          "internalType": "address",
          "name": "stablecoinToken",
          "type": "address"
        },
        {
          "internalType": "uint256",
          "name": "stablecoinAmountE18",
          "type": "uint256"
        }
      ],
      "name": "swapSuUsdToStablecoin",
      "outputs": [],
      "stateMutability": "nonpayable",
      "type": "function"
    }
  ],
  "bytecode": "0x6101006040523480156200001257600080fd5b5060405162001d5e38038062001d5e8339810160408190526200003591620000d9565b6001600160601b0319606084901b166080526001600160a01b0382166200006f5760405163d92e233d60e01b815260040160405180910390fd5b6001600160a01b038116620000975760405163d92e233d60e01b815260040160405180910390fd5b6001600160601b0319606092831b811660a052911b1660c05250600060e05262000122565b80516001600160a01b0381168114620000d457600080fd5b919050565b600080600060608486031215620000ee578283fd5b620000f984620000bc565b92506200010960208501620000bc565b91506200011960408501620000bc565b90509250925092565b60805160601c60a05160601c60c05160601c60e05160601c611bbf6200019f600039600061091401526000818161060601528181610ccc0152610d6b0152600081816101fc015281816103880152818161047d0152818161055b015281816106f90152610e8101526000818160ad01526107b70152611bbf6000f3fe608060405234801561001057600080fd5b50600436106100a35760003560e01c806395bdf6bb11610076578063d53913931161005b578063d53913931461016f578063dc97e84e14610196578063f4e2ebeb146101bd57600080fd5b806395bdf6bb146101495780639dd3e6901461015c57600080fd5b806303ee9f22146100a857806314c376dc146100ec5780634d2cf8b7146101215780637a30270314610134575b600080fd5b6100cf7f000000000000000000000000000000000000000000000000000000000000000081565b6040516001600160a01b0390911681526020015b60405180910390f35b6101137fe965846df3dd5b1dfa65f58e31477079e90140e0908b6dd31b5aead5a57cf36581565b6040519081526020016100e3565b61011361012f366004611793565b6101d0565b6101476101423660046118ac565b61028d565b005b6101476101573660046117c5565b6103fe565b61014761016a366004611819565b6105e4565b6101137f9f2df0fed2c77648de5860a4cc508cd0818c85b8b8a1ab4ceeef8d981c8956a681565b6101137f9a9aef7c1247d5fc769b0185c052913e39673da29a880317dfd20ebf86f26a4981565b6101476101cb36600461185a565b610782565b604051630b33dc1960e41b81526001600160a01b038381166004830152828116602483015260009182917f0000000000000000000000000000000000000000000000000000000000000000169063b33dc1909060440160606040518083038186803b15801561023e57600080fd5b505afa158015610252573d6000803e3d6000fd5b505050506040513d601f19601f82011682018060405250810190610276919061190d565b5050905061028584848361090f565b949350505050565b6001600160a01b0382166000908152600160205260408120546102b490849060029061096d565b90506000806102c38585610a61565b90925090506102da83670de0b6b3a7640000611a0b565b6102ec83670de0b6b3a7640000611a43565b6102f69190611a23565b915061030a83670de0b6b3a7640000611a0b565b61031c82670de0b6b3a7640000611a43565b6103269190611a23565b905061034c604051806060016040528060368152602001611af560369139848484610ba7565b6040517f8cd2e0c700000000000000000000000000000000000000000000000000000000815233600482015260248101839052604481018290527f00000000000000000000000000000000000000000000000000000000000000006001600160a01b031690638cd2e0c790606401600060405180830381600087803b1580156103d457600080fd5b505af11580156103e8573d6000803e3d6000fd5b505050506103f7853386610c0f565b5050505050565b600061040a8685610ca8565b9050600080600061041e8989868989610e4d565b9194509250905061043a8733306104358587611a0b565b610fa8565b6040517f2062ca540000000000000000000000000000000000000000000000000000000081526001600160a01b038a8116600483015289811660248301526000917f000000000000000000000000000000000000000000000000000000000000000090911690632062ca549060440160206040518083038186803b1580156104c157600080fd5b505afa1580156104d5573d6000803e3d6000fd5b505050506040513d601f19601f820116820180604052508101906104f991906118f5565b905061050788828585610ff9565b6040517f6f70e66f0000000000000000000000000000000000000000000000000000000081526001600160a01b038b811660048301528a8116602483015233604483015260648201859052608482018690527f00000000000000000000000000000000000000000000000000000000000000001690636f70e66f9060a401602060405180830381600087803b15801561059f57600080fd5b505af11580156105b3573d6000803e3d6000fd5b505050506040513d601f19601f820116820180604052508101906105d791906118d5565b5050505050505050505050565b6040516306addfb360e31b81526001600160a01b0385811660048301526000917f00000000000000000000000000000000000000000000000000000000000000009091169063356efd989060240160206040518083038186803b15801561064a57600080fd5b505afa15801561065e573d6000803e3d6000fd5b505050506040513d601f19601f8201168201806040525081019061068291906118f5565b905060008060006106968888868989610e4d565b6040517f6bf12d5f0000000000000000000000000000000000000000000000000000000081526001600160a01b038c811660048301528b81166024830152336044830152606482018490526084820183905260a4820185905293965091945092507f000000000000000000000000000000000000000000000000000000000000000090911690636bf12d5f9060c401602060405180830381600087803b15801561073f57600080fd5b505af1158015610753573d6000803e3d6000fd5b505050506040513d601f19601f8201168201806040525081019061077791906118d5565b505050505050505050565b6040517f91d14854000000000000000000000000000000000000000000000000000000008152600060048201523360248201527f00000000000000000000000000000000000000000000000000000000000000006001600160a01b0316906391d148549060440160206040518083038186803b15801561080157600080fd5b505afa158015610815573d6000803e3d6000fd5b505050506040513d601f19601f8201168201806040525081019061083991906118d5565b61088a5760405162461bcd60e51b815260206004820152601d60248201527f5375417574683a206f6e6c794f776e657220415554485f4641494c454400000060448201526064015b60405180910390fd5b61089381611056565b6001600160a01b038316600090815260208190526040812082918460028111156108cd57634e487b7160e01b600052602160045260246000fd5b60028111156108ec57634e487b7160e01b600052602160045260246000fd5b8152602080820192909252604001600020823581559082013560018201556103f7565b6000807f00000000000000000000000000000000000000000000000000000000000000006001600160a01b0316846001600160a01b031614610952576000610955565b60015b905061096285828561096d565b9150505b9392505050565b6001600160a01b03831660009081526020819052604081208190818560028111156109a857634e487b7160e01b600052602160045260246000fd5b60028111156109c757634e487b7160e01b600052602160045260246000fd5b81526020019081526020016000209050600083436109e59190611a62565b9050806109f757600092505050610966565b8060011415610a095750549050610966565b6000856002811115610a2b57634e487b7160e01b600052602160045260246000fd5b1415610a4c576001820154610a4390808360026110b4565b92505050610966565b610a43826000015483600101548360016110b4565b60008082610a9b576040517fe008b5f900000000000000000000000000000000000000000000000000000000815260040160405180910390fd5b6001600160a01b03841660009081526001602052604090208054610aeb576040517f895afd9500000000000000000000000000000000000000000000000000000000815260040160405180910390fd5b604080516060810182528254815260018301546020820152600283015491810191909152610b199085611110565b90935091508215610b3e5782816001016000828254610b389190611a62565b90915550505b8115610b5e5781816002016000828254610b589190611a62565b90915550505b6001810154158015610b7257506002810154155b15610b9f576001600160a01b03851660009081526001602081905260408220828155908101829055600201555b509250929050565b610c0984848484604051602401610bc194939291906119dc565b60408051601f198184030181529190526020810180516001600160e01b03167f08ee566600000000000000000000000000000000000000000000000000000000179052611185565b50505050565b6040516001600160a01b038316602482015260448101829052610ca39084907fa9059cbb00000000000000000000000000000000000000000000000000000000906064015b60408051601f198184030181529190526020810180516001600160e01b03167fffffffff00000000000000000000000000000000000000000000000000000000909316929092179091526111a6565b505050565b6040516306addfb360e31b81526001600160a01b03838116600483015260009182917f0000000000000000000000000000000000000000000000000000000000000000169063356efd989060240160206040518083038186803b158015610d0e57600080fd5b505afa158015610d22573d6000803e3d6000fd5b505050506040513d601f19601f82011682018060405250810190610d4691906118f5565b6040516306addfb360e31b81526001600160a01b0385811660048301529192506000917f0000000000000000000000000000000000000000000000000000000000000000169063356efd989060240160206040518083038186803b158015610dad57600080fd5b505afa158015610dc1573d6000803e3d6000fd5b505050506040513d601f19601f82011682018060405250810190610de591906118f5565b9050610e276040518060400160405280602081526020017f43414c435f5052494345202861737365742c20737461626c65636f696e293a20815250838361128b565b80610e3a83670de0b6b3a7640000611a43565b610e449190611a23565b95945050505050565b604051630b33dc1960e41b81526001600160a01b0386811660048301528581166024830152600091829182918291829182917f0000000000000000000000000000000000000000000000000000000000000000169063b33dc1909060440160606040518083038186803b158015610ec357600080fd5b505afa158015610ed7573d6000803e3d6000fd5b505050506040513d601f19601f82011682018060405250810190610efb919061190d565b925092509250610f256040518060600160405280602c8152602001611b2b602c9139848484610ba7565b6000610f328c8c8661090f565b9050600080610f438c8c87866112eb565b9150915089821015610f81576040517fe4e014cd00000000000000000000000000000000000000000000000000000000815260040160405180910390fd5b600080610f8e868461145b565b949b50995092975050505050505050955095509592505050565b6040516001600160a01b0380851660248301528316604482015260648101829052610c099085907f23b872dd0000000000000000000000000000000000000000000000000000000090608401610c54565b6001600160a01b03841660009081526001602081905260408220908101805491928592611027908490611a0b565b92505081905550818160020160008282546110429190611a0b565b909155505080546103f75792909255505050565b670de0b6b3a7640000813510158061107a5750670de0b6b3a7640000816020013510155b156110b1576040517f8478aedc00000000000000000000000000000000000000000000000000000000815260040160405180910390fd5b50565b6000806110c2868685611482565b90508084106110dc57670de0b6b3a7640000915050610285565b60056110e88486611a62565b6110f29087611a43565b6110fc9190611a23565b6111069087611a0b565b9695505050505050565b600080836020015183116111265782915061117e565b60208401516111359084611a62565b92508360400151831115611175576040517f35e8282000000000000000000000000000000000000000000000000000000000815260040160405180910390fd5b50506020820151815b9250929050565b80516a636f6e736f6c652e6c6f67602083016000808483855afa5050505050565b60006111fb826040518060400160405280602081526020017f5361666545524332303a206c6f772d6c6576656c2063616c6c206661696c6564815250856001600160a01b031661150e9092919063ffffffff16565b805190915015610ca3578080602001905181019061121991906118d5565b610ca35760405162461bcd60e51b815260206004820152602a60248201527f5361666545524332303a204552433230206f7065726174696f6e20646964206e60448201527f6f742073756363656564000000000000000000000000000000000000000000006064820152608401610881565b610ca38383836040516024016112a3939291906119b7565b60408051601f198184030181529190526020810180516001600160e01b03167f969cdd0300000000000000000000000000000000000000000000000000000000179052611185565b60008080670de0b6b3a76400006113028689611a43565b61130c9190611a23565b9050611332604051806060016040528060338152602001611b5760339139868984610ba7565b611355604051806060016040528060398152602001611abc60399139878661128b565b600061136282888761151d565b6040805180820190915260208082527f43414c435f424f4e555320737461626c65636f696e2072656d61696e6465723a9082015291985091506113ae906113a98385611a62565b611594565b60408051808201909152601c81527f43414c435f424f4e555320737461626c65636f696e20626f6e75733a0000000060208201526113f0906113a98984611a62565b61142f6040518060400160405280601e81526020017f43414c435f424f4e555320737461626c65636f696e207061796d656e743a000081525088611594565b60008861144483670de0b6b3a7640000611a43565b61144e9190611a23565b9997985050505050505050565b6000808383111561147a576114708484611a62565b905083915061117e565b919391925050565b6000670de0b6b3a764000084106114db5760405162461bcd60e51b815260206004820152601f60248201527f496e697469616c20646973636f756e74206d6f7265207468656e2031303025006044820152606401610881565b8260056114f086670de0b6b3a7640000611a62565b6114fa9190611a43565b6115049190611a23565b6102859083611a0b565b606061028584846000856115f6565b600080670de0b6b3a76400006115338482611a0b565b61153d9086611a43565b6115479190611a23565b90508481111561158857508361156583670de0b6b3a7640000611a0b565b61157786670de0b6b3a7640000611a43565b6115819190611a23565b915061158c565b8391505b935093915050565b6115f282826040516024016115aa929190611995565b60408051601f198184030181529190526020810180516001600160e01b03167f9710a9d000000000000000000000000000000000000000000000000000000000179052611185565b5050565b60608247101561166e5760405162461bcd60e51b815260206004820152602660248201527f416464726573733a20696e73756666696369656e742062616c616e636520666f60448201527f722063616c6c00000000000000000000000000000000000000000000000000006064820152608401610881565b6001600160a01b0385163b6116c55760405162461bcd60e51b815260206004820152601d60248201527f416464726573733a2063616c6c20746f206e6f6e2d636f6e74726163740000006044820152606401610881565b600080866001600160a01b031685876040516116e19190611966565b60006040518083038185875af1925050503d806000811461171e576040519150601f19603f3d011682016040523d82523d6000602084013e611723565b606091505b509150915061173382828661173e565b979650505050505050565b6060831561174d575081610966565b82511561175d5782518084602001fd5b8160405162461bcd60e51b81526004016108819190611982565b80356001600160a01b038116811461178e57600080fd5b919050565b600080604083850312156117a5578182fd5b6117ae83611777565b91506117bc60208401611777565b90509250929050565b600080600080600060a086880312156117dc578081fd5b6117e586611777565b94506117f360208701611777565b935061180160408701611777565b94979396509394606081013594506080013592915050565b6000806000806080858703121561182e578384fd5b61183785611777565b935061184560208601611777565b93969395505050506040820135916060013590565b6000806000838503608081121561186f578384fd5b61187885611777565b935060208501356003811061188b578384fd5b92506040603f198201121561189e578182fd5b506040840190509250925092565b600080604083850312156118be578182fd5b6118c783611777565b946020939093013593505050565b6000602082840312156118e6578081fd5b81518015158114610966578182fd5b600060208284031215611906578081fd5b5051919050565b600080600060608486031215611921578283fd5b8351925060208401519150604084015190509250925092565b60008151808452611952816020860160208601611a79565b601f01601f19169290920160200192915050565b60008251611978818460208701611a79565b9190910192915050565b602081526000610966602083018461193a565b6040815260006119a8604083018561193a565b90508260208301529392505050565b6060815260006119ca606083018661193a565b60208301949094525060400152919050565b6080815260006119ef608083018761193a565b6020830195909552506040810192909252606090910152919050565b60008219821115611a1e57611a1e611aa5565b500190565b600082611a3e57634e487b7160e01b81526012600452602481fd5b500490565b6000816000190483118215151615611a5d57611a5d611aa5565b500290565b600082821015611a7457611a74611aa5565b500390565b60005b83811015611a94578181015183820152602001611a7c565b83811115610c095750506000910152565b634e487b7160e01b600052601160045260246000fdfe43414c435f424f4e555320737461626c65636f696e2028737461626c65636f696e416d6f756e744531382c20646973636f756e74453138293a444953434f554e54532028646973636f756e744531382c207375546f52657061796d656e742c207375546f466f756e646174696f6e294c49515549444154494f4e20504152414d532028626c6f636b2c20636f6c6c617465726c2c2064656274293a43414c435f424f4e555320636f6c6c61746572616c28616d6f756e74202a207072696365203d20617373657456616c7565293aa2646970667358221220771f7a3617bb46e2a68f0e073465ee76d708f2472640d6cbfee3052f9dbb8c3264736f6c63430008040033",
  "linkReferences": {},
  "deployedLinkReferences": {}
}