{
  "_format": "hh-sol-artifact-1",
  "contractName": "SuChainlinkOracle",
  "sourceName": "contracts/oracles/SuChainlinkOracle.sol",
  "abi": [
    {
      "inputs": [
        {
          "internalType": "address",
          "name": "_authControl",
          "type": "address"
        }
      ],
      "stateMutability": "nonpayable",
      "type": "constructor"
    },
    {
      "inputs": [],
      "name": "ACCESS_CONTROL_SINGLETON",
      "outputs": [
        {
          "internalType": "contract ISuAccessControl",
          "name": "",
          "type": "address"
        }
      ],
      "stateMutability": "view",
      "type": "function"
    },
    {
      "inputs": [],
      "name": "LIQUIDATION_ACCESS_ROLE",
      "outputs": [
        {
          "internalType": "bytes32",
          "name": "",
          "type": "bytes32"
        }
      ],
      "stateMutability": "view",
      "type": "function"
    },
    {
      "inputs": [],
      "name": "MINTER_ROLE",
      "outputs": [
        {
          "internalType": "bytes32",
          "name": "",
          "type": "bytes32"
        }
      ],
      "stateMutability": "view",
      "type": "function"
    },
    {
      "inputs": [],
      "name": "VAULT_ACCESS_ROLE",
      "outputs": [
        {
          "internalType": "bytes32",
          "name": "",
          "type": "bytes32"
        }
      ],
      "stateMutability": "view",
      "type": "function"
    },
    {
      "inputs": [
        {
          "internalType": "address",
          "name": "",
          "type": "address"
        }
      ],
      "name": "assetToDecimals",
      "outputs": [
        {
          "internalType": "uint8",
          "name": "",
          "type": "uint8"
        }
      ],
      "stateMutability": "view",
      "type": "function"
    },
    {
      "inputs": [
        {
          "internalType": "address",
          "name": "",
          "type": "address"
        }
      ],
      "name": "assetToFeed",
      "outputs": [
        {
          "internalType": "address",
          "name": "",
          "type": "address"
        }
      ],
      "stateMutability": "view",
      "type": "function"
    },
    {
      "inputs": [
        {
          "internalType": "address",
          "name": "asset",
          "type": "address"
        }
      ],
      "name": "getUsdPrice1e18",
      "outputs": [
        {
          "internalType": "uint256",
          "name": "",
          "type": "uint256"
        }
      ],
      "stateMutability": "view",
      "type": "function"
    },
    {
      "inputs": [
        {
          "internalType": "address",
          "name": "_collateral",
          "type": "address"
        },
        {
          "internalType": "address",
          "name": "_feed",
          "type": "address"
        },
        {
          "internalType": "uint8",
          "name": "_decimals",
          "type": "uint8"
        }
      ],
      "name": "setAssetFeed",
      "outputs": [],
      "stateMutability": "nonpayable",
      "type": "function"
    }
  ],
  "bytecode": "0x60a060405234801561001057600080fd5b5060405161087b38038061087b83398101604081905261002f91610044565b60601b6001600160601b031916608052610072565b600060208284031215610055578081fd5b81516001600160a01b038116811461006b578182fd5b9392505050565b60805160601c6107e561009660003960008181609201526102e701526107e56000f3fe608060405234801561001057600080fd5b50600436106100885760003560e01c8063cadcd1781161005b578063cadcd1781461012e578063d539139314610163578063dc97e84e1461018a578063e6741de2146101b157600080fd5b806303ee9f221461008d57806314c376dc146100d1578063356efd9814610106578063762c212914610119575b600080fd5b6100b47f000000000000000000000000000000000000000000000000000000000000000081565b6040516001600160a01b0390911681526020015b60405180910390f35b6100f87fe965846df3dd5b1dfa65f58e31477079e90140e0908b6dd31b5aead5a57cf36581565b6040519081526020016100c8565b6100f86101143660046104df565b6101da565b61012c6101273660046104f9565b6102b2565b005b61015161013c3660046104df565b60016020526000908152604090205460ff1681565b60405160ff90911681526020016100c8565b6100f87f9f2df0fed2c77648de5860a4cc508cd0818c85b8b8a1ab4ceeef8d981c8956a681565b6100f87f9a9aef7c1247d5fc769b0185c052913e39673da29a880317dfd20ebf86f26a4981565b6100b46101bf3660046104df565b6000602081905290815260409020546001600160a01b031681565b6001600160a01b038082166000908152602081815260408083205460019092528083205481517ffeaf968c00000000000000000000000000000000000000000000000000000000815291519394929092169260ff909216918491849163feaf968c9160048082019260a092909190829003018186803b15801561025c57600080fd5b505afa158015610270573d6000803e3d6000fd5b505050506040513d601f19601f820116820180604052508101906102949190610564565b50505091505060006102a882846012610436565b9695505050505050565b6040517f91d14854000000000000000000000000000000000000000000000000000000008152600060048201523360248201527f00000000000000000000000000000000000000000000000000000000000000006001600160a01b0316906391d148549060440160206040518083038186803b15801561033157600080fd5b505afa158015610345573d6000803e3d6000fd5b505050506040513d601f19601f820116820180604052508101906103699190610544565b6103d3576040517f08c379a000000000000000000000000000000000000000000000000000000000815260206004820152601d60248201527f5375417574683a206f6e6c794f776e657220415554485f4641494c4544000000604482015260640160405180910390fd5b6001600160a01b0392831660009081526020818152604080832080547fffffffffffffffffffffffff000000000000000000000000000000000000000016959096169490941790945560019093529120805460ff191660ff909216919091179055565b60008160ff168360ff16101561046f576104508383610776565b61045e9060ff16600a610630565b61046890856106da565b90506104a2565b8160ff168360ff16111561049f576104878284610776565b6104959060ff16600a610630565b61046890856105b3565b50825b9392505050565b80356001600160a01b03811681146104c057600080fd5b919050565b805169ffffffffffffffffffff811681146104c057600080fd5b6000602082840312156104f0578081fd5b6104a2826104a9565b60008060006060848603121561050d578182fd5b610516846104a9565b9250610524602085016104a9565b9150604084013560ff81168114610539578182fd5b809150509250925092565b600060208284031215610555578081fd5b815180151581146104a2578182fd5b600080600080600060a0868803121561057b578081fd5b610584866104c5565b94506020860151935060408601519250606086015191506105a7608087016104c5565b90509295509295909350565b6000826105ce57634e487b7160e01b81526012600452602481fd5b600160ff1b8214600019841416156105e8576105e8610799565b500590565b600181815b8085111561062857816000190482111561060e5761060e610799565b8085161561061b57918102915b93841c93908002906105f2565b509250929050565b60006104a28383600082610646575060016106d4565b81610653575060006106d4565b816001811461066957600281146106735761068f565b60019150506106d4565b60ff84111561068457610684610799565b50506001821b6106d4565b5060208310610133831016604e8410600b84101617156106b2575081810a6106d4565b6106bc83836105ed565b80600019048211156106d0576106d0610799565b0290505b92915050565b60007f7fffffffffffffffffffffffffffffffffffffffffffffffffffffffffffffff8184138284138583048511828216161561071957610719610799565b600160ff1b8487128682058812818416161561073757610737610799565b85871292508782058712848416161561075257610752610799565b8785058712818416161561076857610768610799565b505050929093029392505050565b600060ff821660ff84168082101561079057610790610799565b90039392505050565b634e487b7160e01b600052601160045260246000fdfea26469706673582212203bf7a2d258bd9c80af0ee84b3fc94d83a425fcb677714773ef8472d676e0345b64736f6c63430008040033",
  "linkReferences": {},
  "deployedLinkReferences": {}
}