{
  "_format": "hh-sol-artifact-1",
  "contractName": "SuUniV3Oracle",
  "sourceName": "contracts/oracles/SuUniV3Oracle.sol",
  "abi": [
    {
      "inputs": [
        {
          "internalType": "address",
          "name": "_Factory",
          "type": "address"
        },
        {
          "internalType": "address",
          "name": "_WETH",
          "type": "address"
        },
        {
          "internalType": "address",
          "name": "_USDT",
          "type": "address"
        },
        {
          "internalType": "address",
          "name": "_authControl",
          "type": "address"
        }
      ],
      "stateMutability": "nonpayable",
      "type": "constructor"
    },
    {
      "inputs": [],
      "name": "ACCESS_CONTROL_SINGLETON",
      "outputs": [
        {
          "internalType": "contract ISuAccessControl",
          "name": "",
          "type": "address"
        }
      ],
      "stateMutability": "view",
      "type": "function"
    },
    {
      "inputs": [],
      "name": "Factory",
      "outputs": [
        {
          "internalType": "address",
          "name": "",
          "type": "address"
        }
      ],
      "stateMutability": "view",
      "type": "function"
    },
    {
      "inputs": [],
      "name": "LIQUIDATION_ACCESS_ROLE",
      "outputs": [
        {
          "internalType": "bytes32",
          "name": "",
          "type": "bytes32"
        }
      ],
      "stateMutability": "view",
      "type": "function"
    },
    {
      "inputs": [],
      "name": "MINTER_ROLE",
      "outputs": [
        {
          "internalType": "bytes32",
          "name": "",
          "type": "bytes32"
        }
      ],
      "stateMutability": "view",
      "type": "function"
    },
    {
      "inputs": [],
      "name": "USDT",
      "outputs": [
        {
          "internalType": "address",
          "name": "",
          "type": "address"
        }
      ],
      "stateMutability": "view",
      "type": "function"
    },
    {
      "inputs": [],
      "name": "USDTPool",
      "outputs": [
        {
          "internalType": "address",
          "name": "",
          "type": "address"
        }
      ],
      "stateMutability": "view",
      "type": "function"
    },
    {
      "inputs": [],
      "name": "VAULT_ACCESS_ROLE",
      "outputs": [
        {
          "internalType": "bytes32",
          "name": "",
          "type": "bytes32"
        }
      ],
      "stateMutability": "view",
      "type": "function"
    },
    {
      "inputs": [],
      "name": "WETH",
      "outputs": [
        {
          "internalType": "address",
          "name": "",
          "type": "address"
        }
      ],
      "stateMutability": "view",
      "type": "function"
    },
    {
      "inputs": [
        {
          "internalType": "address",
          "name": "",
          "type": "address"
        }
      ],
      "name": "assetToPool",
      "outputs": [
        {
          "internalType": "address",
          "name": "",
          "type": "address"
        }
      ],
      "stateMutability": "view",
      "type": "function"
    },
    {
      "inputs": [
        {
          "internalType": "address",
          "name": "_asset",
          "type": "address"
        },
        {
          "internalType": "uint24",
          "name": "_fee",
          "type": "uint24"
        }
      ],
      "name": "enableAssetPool",
      "outputs": [],
      "stateMutability": "nonpayable",
      "type": "function"
    },
    {
      "inputs": [
        {
          "internalType": "address[]",
          "name": "route",
          "type": "address[]"
        },
        {
          "internalType": "contract IUniswapV3Pool[]",
          "name": "pools",
          "type": "address[]"
        },
        {
          "internalType": "uint128",
          "name": "amountIn",
          "type": "uint128"
        }
      ],
      "name": "getExpectedReturnAmount",
      "outputs": [
        {
          "internalType": "uint256",
          "name": "returnAmount",
          "type": "uint256"
        },
        {
          "internalType": "uint256",
          "name": "returnDecimals",
          "type": "uint256"
        }
      ],
      "stateMutability": "view",
      "type": "function"
    },
    {
      "inputs": [
        {
          "internalType": "address",
          "name": "asset",
          "type": "address"
        }
      ],
      "name": "getUsdPrice1e18",
      "outputs": [
        {
          "internalType": "uint256",
          "name": "",
          "type": "uint256"
        }
      ],
      "stateMutability": "view",
      "type": "function"
    },
    {
      "inputs": [],
      "name": "observationSeconds",
      "outputs": [
        {
          "internalType": "uint32",
          "name": "",
          "type": "uint32"
        }
      ],
      "stateMutability": "view",
      "type": "function"
    },
    {
      "inputs": [
        {
          "internalType": "uint32",
          "name": "_newObservationSeconds",
          "type": "uint32"
        }
      ],
      "name": "setObservationSeconds",
      "outputs": [],
      "stateMutability": "nonpayable",
      "type": "function"
    }
  ],
  "bytecode": "0x6101206040523480156200001257600080fd5b50604051620026ba380380620026ba833981810160405260808110156200003857600080fd5b810190808051906020019092919080519060200190929190805190602001909291908051906020019092919050505080808073ffffffffffffffffffffffffffffffffffffffff1660808173ffffffffffffffffffffffffffffffffffffffff1660601b815250505061012c6000806101000a81548163ffffffff021916908363ffffffff160217905550508373ffffffffffffffffffffffffffffffffffffffff1660a08173ffffffffffffffffffffffffffffffffffffffff1660601b815250508273ffffffffffffffffffffffffffffffffffffffff1660c08173ffffffffffffffffffffffffffffffffffffffff1660601b815250508173ffffffffffffffffffffffffffffffffffffffff1660e08173ffffffffffffffffffffffffffffffffffffffff1660601b815250506200019984620001888585610bb8620001da60201b620013ce1760201c565b6200027960201b6200146a1760201c565b73ffffffffffffffffffffffffffffffffffffffff166101008173ffffffffffffffffffffffffffffffffffffffff1660601b815250505050505062000427565b620001e4620003d5565b8273ffffffffffffffffffffffffffffffffffffffff168473ffffffffffffffffffffffffffffffffffffffff1611156200022457828480945081955050505b60405180606001604052808573ffffffffffffffffffffffffffffffffffffffff1681526020018473ffffffffffffffffffffffffffffffffffffffff1681526020018362ffffff1681525090509392505050565b6000816020015173ffffffffffffffffffffffffffffffffffffffff16826000015173ffffffffffffffffffffffffffffffffffffffff1610620002bc57600080fd5b82826000015183602001518460400151604051602001808473ffffffffffffffffffffffffffffffffffffffff1681526020018373ffffffffffffffffffffffffffffffffffffffff1681526020018262ffffff1681526020019350505050604051602081830303815290604052805190602001207fe34f199b19b2b4f47f68442619d555527d244f78a3297ea89325f843f87b8b5460001b60405160200180807fff000000000000000000000000000000000000000000000000000000000000008152506001018473ffffffffffffffffffffffffffffffffffffffff1660601b815260140183815260200182815260200193505050506040516020818303038152906040528051906020012060001c905092915050565b6040518060600160405280600073ffffffffffffffffffffffffffffffffffffffff168152602001600073ffffffffffffffffffffffffffffffffffffffff168152602001600062ffffff1681525090565b60805160601c60a05160601c60c05160601c60e05160601c6101005160601c61220d620004ad6000398061077d5280610a5b52806111365250806106c9528061090052806110ee5250806105c1528061066152806108985280610f6852806112c2525080611112528061129e5250806105435280610f8c528061115a525061220d6000f3fe608060405234801561001057600080fd5b50600436106100ea5760003560e01c8063c54e44eb1161008c578063d3a6fc9911610066578063d3a6fc991461048e578063d5391393146104e1578063dc97e84e146104ff578063fa2c6d7c1461051d576100ea565b8063c54e44eb146103f2578063c83dd23114610426578063cb46b2821461045a576100ea565b8063356efd98116100c8578063356efd98146101af5780639788424314610207578063ad5c46481461038a578063c192041a146103be576100ea565b806303ee9f22146100ef578063044c8d711461012357806314c376dc14610191575b600080fd5b6100f7610541565b604051808273ffffffffffffffffffffffffffffffffffffffff16815260200191505060405180910390f35b6101656004803603602081101561013957600080fd5b81019080803573ffffffffffffffffffffffffffffffffffffffff169060200190929190505050610565565b604051808273ffffffffffffffffffffffffffffffffffffffff16815260200191505060405180910390f35b610199610598565b6040518082815260200191505060405180910390f35b6101f1600480360360208110156101c557600080fd5b81019080803573ffffffffffffffffffffffffffffffffffffffff1690602001909291905050506105bc565b6040518082815260200191505060405180910390f35b61036d6004803603606081101561021d57600080fd5b810190808035906020019064010000000081111561023a57600080fd5b82018360208201111561024c57600080fd5b8035906020019184602083028401116401000000008311171561026e57600080fd5b919080806020026020016040519081016040528093929190818152602001838360200280828437600081840152601f19601f820116905080830192505050505050509192919290803590602001906401000000008111156102ce57600080fd5b8201836020820111156102e057600080fd5b8035906020019184602083028401116401000000008311171561030257600080fd5b919080806020026020016040519081016040528093929190818152602001838360200280828437600081840152601f19601f82011690508083019250505050505050919291929080356fffffffffffffffffffffffffffffffff169060200190929190505050610aec565b604051808381526020018281526020019250505060405180910390f35b610392610f66565b604051808273ffffffffffffffffffffffffffffffffffffffff16815260200191505060405180910390f35b6103f0600480360360208110156103d457600080fd5b81019080803563ffffffff169060200190929190505050610f8a565b005b6103fa6110ec565b604051808273ffffffffffffffffffffffffffffffffffffffff16815260200191505060405180910390f35b61042e611110565b604051808273ffffffffffffffffffffffffffffffffffffffff16815260200191505060405180910390f35b610462611134565b604051808273ffffffffffffffffffffffffffffffffffffffff16815260200191505060405180910390f35b6104df600480360360408110156104a457600080fd5b81019080803573ffffffffffffffffffffffffffffffffffffffff169060200190929190803562ffffff169060200190929190505050611158565b005b6104e9611372565b6040518082815260200191505060405180910390f35b610507611396565b6040518082815260200191505060405180910390f35b6105256113ba565b604051808263ffffffff16815260200191505060405180910390f35b7f000000000000000000000000000000000000000000000000000000000000000081565b60016020528060005260406000206000915054906101000a900473ffffffffffffffffffffffffffffffffffffffff1681565b7fe965846df3dd5b1dfa65f58e31477079e90140e0908b6dd31b5aead5a57cf36581565b6000807f000000000000000000000000000000000000000000000000000000000000000073ffffffffffffffffffffffffffffffffffffffff168373ffffffffffffffffffffffffffffffffffffffff161415610802576000600267ffffffffffffffff8111801561062d57600080fd5b5060405190808252806020026020018201604052801561065c5781602001602082028036833780820191505090505b5090507f00000000000000000000000000000000000000000000000000000000000000008160008151811061068d57fe5b602002602001019073ffffffffffffffffffffffffffffffffffffffff16908173ffffffffffffffffffffffffffffffffffffffff16815250507f0000000000000000000000000000000000000000000000000000000000000000816001815181106106f557fe5b602002602001019073ffffffffffffffffffffffffffffffffffffffff16908173ffffffffffffffffffffffffffffffffffffffff16815250506000600167ffffffffffffffff8111801561074957600080fd5b506040519080825280602002602001820160405280156107785781602001602082028036833780820191505090505b5090507f0000000000000000000000000000000000000000000000000000000000000000816000815181106107a957fe5b602002602001019073ffffffffffffffffffffffffffffffffffffffff16908173ffffffffffffffffffffffffffffffffffffffff16815250506107f68282670de0b6b3a7640000610aec565b50809350505050610adc565b6000600367ffffffffffffffff8111801561081c57600080fd5b5060405190808252806020026020018201604052801561084b5781602001602082028036833780820191505090505b509050838160008151811061085c57fe5b602002602001019073ffffffffffffffffffffffffffffffffffffffff16908173ffffffffffffffffffffffffffffffffffffffff16815250507f0000000000000000000000000000000000000000000000000000000000000000816001815181106108c457fe5b602002602001019073ffffffffffffffffffffffffffffffffffffffff16908173ffffffffffffffffffffffffffffffffffffffff16815250507f00000000000000000000000000000000000000000000000000000000000000008160028151811061092c57fe5b602002602001019073ffffffffffffffffffffffffffffffffffffffff16908173ffffffffffffffffffffffffffffffffffffffff16815250506000600267ffffffffffffffff8111801561098057600080fd5b506040519080825280602002602001820160405280156109af5781602001602082028036833780820191505090505b509050600160008673ffffffffffffffffffffffffffffffffffffffff1673ffffffffffffffffffffffffffffffffffffffff16815260200190815260200160002060009054906101000a900473ffffffffffffffffffffffffffffffffffffffff1681600081518110610a1f57fe5b602002602001019073ffffffffffffffffffffffffffffffffffffffff16908173ffffffffffffffffffffffffffffffffffffffff16815250507f000000000000000000000000000000000000000000000000000000000000000081600181518110610a8757fe5b602002602001019073ffffffffffffffffffffffffffffffffffffffff16908173ffffffffffffffffffffffffffffffffffffffff1681525050610ad48282670de0b6b3a7640000610aec565b508093505050505b64e8d4a510008102915050919050565b6000806000845190506000849050600080600090505b83811015610ebe576000888281518110610b1857fe5b6020026020010151905060008a8381518110610b3057fe5b6020026020010151905060008b6001850181518110610b4b57fe5b602002602001015190508173ffffffffffffffffffffffffffffffffffffffff168373ffffffffffffffffffffffffffffffffffffffff16630dfe16816040518163ffffffff1660e01b815260040160206040518083038186803b158015610bb257600080fd5b505afa158015610bc6573d6000803e3d6000fd5b505050506040513d6020811015610bdc57600080fd5b810190808051906020019092919050505073ffffffffffffffffffffffffffffffffffffffff16148015610cbb57508073ffffffffffffffffffffffffffffffffffffffff168373ffffffffffffffffffffffffffffffffffffffff1663d21220a76040518163ffffffff1660e01b815260040160206040518083038186803b158015610c6857600080fd5b505afa158015610c7c573d6000803e3d6000fd5b505050506040513d6020811015610c9257600080fd5b810190808051906020019092919050505073ffffffffffffffffffffffffffffffffffffffff16145b80610e2857508073ffffffffffffffffffffffffffffffffffffffff168373ffffffffffffffffffffffffffffffffffffffff16630dfe16816040518163ffffffff1660e01b815260040160206040518083038186803b158015610d1e57600080fd5b505afa158015610d32573d6000803e3d6000fd5b505050506040513d6020811015610d4857600080fd5b810190808051906020019092919050505073ffffffffffffffffffffffffffffffffffffffff16148015610e2757508173ffffffffffffffffffffffffffffffffffffffff168373ffffffffffffffffffffffffffffffffffffffff1663d21220a76040518163ffffffff1660e01b815260040160206040518083038186803b158015610dd457600080fd5b505afa158015610de8573d6000803e3d6000fd5b505050506040513d6020811015610dfe57600080fd5b810190808051906020019092919050505073ffffffffffffffffffffffffffffffffffffffff16145b5b610e7d576040517f08c379a000000000000000000000000000000000000000000000000000000000815260040180806020018281038252603b81526020018061219d603b913960400191505060405180910390fd5b6000610e998460008054906101000a900463ffffffff166115c5565b509050610ea881888585611a32565b9550859650505050508080600101915050610b02565b50809450878381518110610ece57fe5b602002602001015173ffffffffffffffffffffffffffffffffffffffff1663313ce5676040518163ffffffff1660e01b815260040160206040518083038186803b158015610f1b57600080fd5b505afa158015610f2f573d6000803e3d6000fd5b505050506040513d6020811015610f4557600080fd5b810190808051906020019092919050505060ff169350505050935093915050565b7f000000000000000000000000000000000000000000000000000000000000000081565b7f000000000000000000000000000000000000000000000000000000000000000073ffffffffffffffffffffffffffffffffffffffff166391d148546000801b336040518363ffffffff1660e01b8152600401808381526020018273ffffffffffffffffffffffffffffffffffffffff1681526020019250505060206040518083038186803b15801561101c57600080fd5b505afa158015611030573d6000803e3d6000fd5b505050506040513d602081101561104657600080fd5b81019080805190602001909291905050506110c9576040517f08c379a000000000000000000000000000000000000000000000000000000000815260040180806020018281038252601d8152602001807f5375417574683a206f6e6c794f776e657220415554485f4641494c454400000081525060200191505060405180910390fd5b806000806101000a81548163ffffffff021916908363ffffffff16021790555050565b7f000000000000000000000000000000000000000000000000000000000000000081565b7f000000000000000000000000000000000000000000000000000000000000000081565b7f000000000000000000000000000000000000000000000000000000000000000081565b7f000000000000000000000000000000000000000000000000000000000000000073ffffffffffffffffffffffffffffffffffffffff166391d148546000801b336040518363ffffffff1660e01b8152600401808381526020018273ffffffffffffffffffffffffffffffffffffffff1681526020019250505060206040518083038186803b1580156111ea57600080fd5b505afa1580156111fe573d6000803e3d6000fd5b505050506040513d602081101561121457600080fd5b8101908080519060200190929190505050611297576040517f08c379a000000000000000000000000000000000000000000000000000000000815260040180806020018281038252601d8152602001807f5375417574683a206f6e6c794f776e657220415554485f4641494c454400000081525060200191505060405180910390fd5b60006112ed7f00000000000000000000000000000000000000000000000000000000000000006112e87f000000000000000000000000000000000000000000000000000000000000000086866113ce565b61146a565b905080600160008573ffffffffffffffffffffffffffffffffffffffff1673ffffffffffffffffffffffffffffffffffffffff16815260200190815260200160002060006101000a81548173ffffffffffffffffffffffffffffffffffffffff021916908373ffffffffffffffffffffffffffffffffffffffff160217905550505050565b7f9f2df0fed2c77648de5860a4cc508cd0818c85b8b8a1ab4ceeef8d981c8956a681565b7f9a9aef7c1247d5fc769b0185c052913e39673da29a880317dfd20ebf86f26a4981565b60008054906101000a900463ffffffff1681565b6113d661214a565b8273ffffffffffffffffffffffffffffffffffffffff168473ffffffffffffffffffffffffffffffffffffffff16111561141557828480945081955050505b60405180606001604052808573ffffffffffffffffffffffffffffffffffffffff1681526020018473ffffffffffffffffffffffffffffffffffffffff1681526020018362ffffff1681525090509392505050565b6000816020015173ffffffffffffffffffffffffffffffffffffffff16826000015173ffffffffffffffffffffffffffffffffffffffff16106114ac57600080fd5b82826000015183602001518460400151604051602001808473ffffffffffffffffffffffffffffffffffffffff1681526020018373ffffffffffffffffffffffffffffffffffffffff1681526020018262ffffff1681526020019350505050604051602081830303815290604052805190602001207fe34f199b19b2b4f47f68442619d555527d244f78a3297ea89325f843f87b8b5460001b60405160200180807fff000000000000000000000000000000000000000000000000000000000000008152506001018473ffffffffffffffffffffffffffffffffffffffff1660601b815260140183815260200182815260200193505050506040516020818303038152906040528051906020012060001c905092915050565b60008060008363ffffffff161415611645576040517f08c379a00000000000000000000000000000000000000000000000000000000081526004018080602001828103825260028152602001807f425000000000000000000000000000000000000000000000000000000000000081525060200191505060405180910390fd5b6000600267ffffffffffffffff8111801561165f57600080fd5b5060405190808252806020026020018201604052801561168e5781602001602082028036833780820191505090505b509050838160008151811061169f57fe5b602002602001019063ffffffff16908163ffffffff16815250506000816001815181106116c857fe5b602002602001019063ffffffff16908163ffffffff16815250506000808673ffffffffffffffffffffffffffffffffffffffff1663883bdbfd846040518263ffffffff1660e01b81526004018080602001828103825283818151815260200191508051906020019060200280838360005b83811015611754578082015181840152602081019050611739565b505050509050019250505060006040518083038186803b15801561177757600080fd5b505afa15801561178b573d6000803e3d6000fd5b505050506040513d6000823e3d601f19601f8201168201806040525060408110156117b557600080fd5b81019080805160405193929190846401000000008211156117d557600080fd5b838201915060208201858111156117eb57600080fd5b825186602082028301116401000000008211171561180857600080fd5b8083526020830192505050908051906020019060200280838360005b8381101561183f578082015181840152602081019050611824565b505050509050016040526020018051604051939291908464010000000082111561186857600080fd5b8382019150602082018581111561187e57600080fd5b825186602082028301116401000000008211171561189b57600080fd5b8083526020830192505050908051906020019060200280838360005b838110156118d25780820151818401526020810190506118b7565b50505050905001604052505050915091506000826000815181106118f257fe5b60200260200101518360018151811061190757fe5b602002602001015103905060008260008151811061192157fe5b60200260200101518360018151811061193657fe5b60200260200101510390508763ffffffff168260060b8161195357fe5b05965060008260060b12801561197f575060008863ffffffff168360060b8161197857fe5b0760060b14155b1561198e578680600190039750505b600073ffffffffffffffffffffffffffffffffffffffff80168963ffffffff1602905060208273ffffffffffffffffffffffffffffffffffffffff1677ffffffffffffffffffffffffffffffffffffffffffffffff16901b77ffffffffffffffffffffffffffffffffffffffffffffffff168177ffffffffffffffffffffffffffffffffffffffffffffffff1681611a2257fe5b0496505050505050509250929050565b600080611a3e86611c35565b90506fffffffffffffffffffffffffffffffff80168173ffffffffffffffffffffffffffffffffffffffff1611611b4f5760008173ffffffffffffffffffffffffffffffffffffffff168273ffffffffffffffffffffffffffffffffffffffff160290508373ffffffffffffffffffffffffffffffffffffffff168573ffffffffffffffffffffffffffffffffffffffff1610611b1057611b0b7801000000000000000000000000000000000000000000000000876fffffffffffffffffffffffffffffffff1683612070565b611b47565b611b4681876fffffffffffffffffffffffffffffffff167801000000000000000000000000000000000000000000000000612070565b5b925050611c2c565b6000611b918273ffffffffffffffffffffffffffffffffffffffff168373ffffffffffffffffffffffffffffffffffffffff1668010000000000000000612070565b90508373ffffffffffffffffffffffffffffffffffffffff168573ffffffffffffffffffffffffffffffffffffffff1610611bf957611bf4700100000000000000000000000000000000876fffffffffffffffffffffffffffffffff1683612070565b611c28565b611c2781876fffffffffffffffffffffffffffffffff16700100000000000000000000000000000000612070565b5b9250505b50949350505050565b60008060008360020b12611c4c578260020b611c54565b8260020b6000035b90507ffffffffffffffffffffffffffffffffffffffffffffffffffffffffffff2761860000360020b811115611cf2576040517f08c379a00000000000000000000000000000000000000000000000000000000081526004018080602001828103825260018152602001807f540000000000000000000000000000000000000000000000000000000000000081525060200191505060405180910390fd5b600080600183161415611d1657700100000000000000000000000000000000611d28565b6ffffcb933bd6fad37aa2d162d1a5940015b70ffffffffffffffffffffffffffffffffff16905060006002831614611d625760806ffff97272373d413259a46990580e213a8202901c90505b60006004831614611d875760806ffff2e50f5f656932ef12357cf3c7fdcc8202901c90505b60006008831614611dac5760806fffe5caca7e10e4e61c3624eaa0941cd08202901c90505b60006010831614611dd15760806fffcb9843d60f6159c9db58835c9266448202901c90505b60006020831614611df65760806fff973b41fa98c081472e6896dfb254c08202901c90505b60006040831614611e1b5760806fff2ea16466c96a3843ec78b326b528618202901c90505b60006080831614611e405760806ffe5dee046a99a2a811c461f1969c30538202901c90505b6000610100831614611e665760806ffcbe86c7900a88aedcffc83b479aa3a48202901c90505b6000610200831614611e8c5760806ff987a7253ac413176f2b074cf7815e548202901c90505b6000610400831614611eb25760806ff3392b0822b70005940c7a398e4b70f38202901c90505b6000610800831614611ed85760806fe7159475a2c29b7443b29c7fa6e889d98202901c90505b6000611000831614611efe5760806fd097f3bdfd2022b8845ad8f792aa58258202901c90505b6000612000831614611f245760806fa9f746462d870fdf8a65dc1f90e061e58202901c90505b6000614000831614611f4a5760806f70d869a156d2a1b890bb3df62baf32f78202901c90505b6000618000831614611f705760806f31be135f97d08fd981231505542fcfa68202901c90505b600062010000831614611f975760806f09aa508b5b7a84e1c677de54f3e99bc98202901c90505b600062020000831614611fbd5760806e5d6af8dedb81196699c329225ee6048202901c90505b600062040000831614611fe25760806d2216e584f5fa1ea926041bedfe988202901c90505b6000620800008316146120055760806b048a170391f7dc42444e8fa28202901c90505b60008460020b131561203e57807fffffffffffffffffffffffffffffffffffffffffffffffffffffffffffffffff8161203a57fe5b0490505b6000640100000000828161204e57fe5b061461205b57600161205e565b60005b60ff16602082901c0192505050919050565b6000806000801985870985870292508281108382030391505060008114156120ab576000841161209f57600080fd5b83820492505050612143565b8084116120b757600080fd5b600084868809905082811182039150808303925060008586600003169050808604955080840493506001818260000304019050808302841793506000600287600302189050808702600203810290508087026002038102905080870260020381029050808702600203810290508087026002038102905080870260020381029050808502955050505050505b9392505050565b6040518060600160405280600073ffffffffffffffffffffffffffffffffffffffff168152602001600073ffffffffffffffffffffffffffffffffffffffff168152602001600062ffffff168152509056fe556e6956334f7261636c653a20676574457870656374656452657475726e416d6f756e743a2057726f6e6720706f6f6c73206f7220746f6b656e73a2646970667358221220de5fb3d17b9d9be9345f5cfec3cf6b7b30ad44dadc927481800e1d8f84e239bd64736f6c63430007060033",
  "linkReferences": {},
  "deployedLinkReferences": {}
}