{
  "_format": "hh-sol-artifact-1",
  "contractName": "SuUSD",
  "sourceName": "contracts/SuUSD.sol",
  "abi": [
    {
      "inputs": [
        {
          "internalType": "address",
          "name": "_parameters",
          "type": "address"
        }
      ],
      "stateMutability": "nonpayable",
      "type": "constructor"
    },
    {
      "anonymous": false,
      "inputs": [
        {
          "indexed": true,
          "internalType": "address",
          "name": "owner",
          "type": "address"
        },
        {
          "indexed": true,
          "internalType": "address",
          "name": "spender",
          "type": "address"
        },
        {
          "indexed": false,
          "internalType": "uint256",
          "name": "value",
          "type": "uint256"
        }
      ],
      "name": "Approval",
      "type": "event"
    },
    {
      "anonymous": false,
      "inputs": [
        {
          "indexed": true,
          "internalType": "address",
          "name": "from",
          "type": "address"
        },
        {
          "indexed": true,
          "internalType": "address",
          "name": "to",
          "type": "address"
        },
        {
          "indexed": false,
          "internalType": "uint256",
          "name": "value",
          "type": "uint256"
        }
      ],
      "name": "Transfer",
      "type": "event"
    },
    {
      "inputs": [
        {
          "internalType": "address",
          "name": "",
          "type": "address"
        },
        {
          "internalType": "address",
          "name": "",
          "type": "address"
        }
      ],
      "name": "allowance",
      "outputs": [
        {
          "internalType": "uint256",
          "name": "",
          "type": "uint256"
        }
      ],
      "stateMutability": "view",
      "type": "function"
    },
    {
      "inputs": [
        {
          "internalType": "address",
          "name": "spender",
          "type": "address"
        },
        {
          "internalType": "uint256",
          "name": "amount",
          "type": "uint256"
        }
      ],
      "name": "approve",
      "outputs": [
        {
          "internalType": "bool",
          "name": "",
          "type": "bool"
        }
      ],
      "stateMutability": "nonpayable",
      "type": "function"
    },
    {
      "inputs": [
        {
          "internalType": "address",
          "name": "",
          "type": "address"
        }
      ],
      "name": "balanceOf",
      "outputs": [
        {
          "internalType": "uint256",
          "name": "",
          "type": "uint256"
        }
      ],
      "stateMutability": "view",
      "type": "function"
    },
    {
      "inputs": [
        {
          "internalType": "uint256",
          "name": "amount",
          "type": "uint256"
        }
      ],
      "name": "burn",
      "outputs": [],
      "stateMutability": "nonpayable",
      "type": "function"
    },
    {
      "inputs": [
        {
          "internalType": "address",
          "name": "from",
          "type": "address"
        },
        {
          "internalType": "uint256",
          "name": "amount",
          "type": "uint256"
        }
      ],
      "name": "burn",
      "outputs": [],
      "stateMutability": "nonpayable",
      "type": "function"
    },
    {
      "inputs": [],
      "name": "decimals",
      "outputs": [
        {
          "internalType": "uint8",
          "name": "",
          "type": "uint8"
        }
      ],
      "stateMutability": "view",
      "type": "function"
    },
    {
      "inputs": [
        {
          "internalType": "address",
          "name": "spender",
          "type": "address"
        },
        {
          "internalType": "uint256",
          "name": "subtractedValue",
          "type": "uint256"
        }
      ],
      "name": "decreaseAllowance",
      "outputs": [
        {
          "internalType": "bool",
          "name": "",
          "type": "bool"
        }
      ],
      "stateMutability": "nonpayable",
      "type": "function"
    },
    {
      "inputs": [
        {
          "internalType": "address",
          "name": "spender",
          "type": "address"
        },
        {
          "internalType": "uint256",
          "name": "addedValue",
          "type": "uint256"
        }
      ],
      "name": "increaseAllowance",
      "outputs": [
        {
          "internalType": "bool",
          "name": "",
          "type": "bool"
        }
      ],
      "stateMutability": "nonpayable",
      "type": "function"
    },
    {
      "inputs": [
        {
          "internalType": "address",
          "name": "to",
          "type": "address"
        },
        {
          "internalType": "uint256",
          "name": "amount",
          "type": "uint256"
        }
      ],
      "name": "mint",
      "outputs": [],
      "stateMutability": "nonpayable",
      "type": "function"
    },
    {
      "inputs": [],
      "name": "name",
      "outputs": [
        {
          "internalType": "string",
          "name": "",
          "type": "string"
        }
      ],
      "stateMutability": "view",
      "type": "function"
    },
    {
      "inputs": [],
      "name": "symbol",
      "outputs": [
        {
          "internalType": "string",
          "name": "",
          "type": "string"
        }
      ],
      "stateMutability": "view",
      "type": "function"
    },
    {
      "inputs": [],
      "name": "totalSupply",
      "outputs": [
        {
          "internalType": "uint256",
          "name": "",
          "type": "uint256"
        }
      ],
      "stateMutability": "view",
      "type": "function"
    },
    {
      "inputs": [
        {
          "internalType": "address",
          "name": "to",
          "type": "address"
        },
        {
          "internalType": "uint256",
          "name": "amount",
          "type": "uint256"
        }
      ],
      "name": "transfer",
      "outputs": [
        {
          "internalType": "bool",
          "name": "",
          "type": "bool"
        }
      ],
      "stateMutability": "nonpayable",
      "type": "function"
    },
    {
      "inputs": [
        {
          "internalType": "address",
          "name": "from",
          "type": "address"
        },
        {
          "internalType": "address",
          "name": "to",
          "type": "address"
        },
        {
          "internalType": "uint256",
          "name": "amount",
          "type": "uint256"
        }
      ],
      "name": "transferFrom",
      "outputs": [
        {
          "internalType": "bool",
          "name": "",
          "type": "bool"
        }
      ],
      "stateMutability": "nonpayable",
      "type": "function"
    },
    {
      "inputs": [],
      "name": "vaultParameters",
      "outputs": [
        {
          "internalType": "contract SuVaultParameters",
          "name": "",
          "type": "address"
        }
      ],
      "stateMutability": "view",
      "type": "function"
    },
    {
      "inputs": [],
      "name": "version",
      "outputs": [
        {
          "internalType": "string",
          "name": "",
          "type": "string"
        }
      ],
      "stateMutability": "view",
      "type": "function"
    }
  ],
  "bytecode": "0x608060405234801561001057600080fd5b50604051610ee6380380610ee683398101604081905261002f91610054565b600080546001600160a01b0319166001600160a01b0392909216919091179055610082565b600060208284031215610065578081fd5b81516001600160a01b038116811461007b578182fd5b9392505050565b610e55806100916000396000f3fe608060405234801561001057600080fd5b50600436106101005760003560e01c806354fd4d5011610097578063a457c2d711610066578063a457c2d7146102a4578063a9059cbb146102b7578063aca345ee146102ca578063dd62ed3e146102f557600080fd5b806354fd4d50146101f957806370a082311461023557806395d89b41146102555780639dc29fac1461029157600080fd5b8063313ce567116100d3578063313ce567146101a457806339509351146101be57806340c10f19146101d157806342966c68146101e657600080fd5b806306fdde0314610105578063095ea7b31461015757806318160ddd1461017a57806323b872dd14610191575b600080fd5b6101416040518060400160405280600f81526020017f5553445020537461626c65636f696e000000000000000000000000000000000081525081565b60405161014e9190610d72565b60405180910390f35b61016a610165366004610d0f565b610320565b604051901515815260200161014e565b61018360015481565b60405190815260200161014e565b61016a61019f366004610ccf565b610337565b6101ac601281565b60405160ff909116815260200161014e565b61016a6101cc366004610d0f565b6105bd565b6101e46101df366004610d0f565b6105f3565b005b6101e46101f4366004610d5a565b6107cb565b6101416040518060400160405280600181526020017f310000000000000000000000000000000000000000000000000000000000000081525081565b610183610243366004610c5f565b60026020526000908152604090205481565b6101416040518060400160405280600481526020017f555344500000000000000000000000000000000000000000000000000000000081525081565b6101e461029f366004610d0f565b6108de565b61016a6102b2366004610d0f565b6109dc565b61016a6102c5366004610d0f565b610a12565b6000546102dd906001600160a01b031681565b6040516001600160a01b03909116815260200161014e565b610183610303366004610c97565b600360209081526000928352604080842090915290825290205481565b600061032d338484610a26565b5060015b92915050565b60006001600160a01b0383166103945760405162461bcd60e51b815260206004820152601b60248201527f556e69742050726f746f636f6c3a205a45524f5f41444452455353000000000060448201526064015b60405180910390fd5b6001600160a01b0384166000908152600260205260409020548211156104225760405162461bcd60e51b815260206004820152602360248201527f556e69742050726f746f636f6c3a20494e53554646494349454e545f42414c4160448201527f4e43450000000000000000000000000000000000000000000000000000000000606482015260840161038b565b6001600160a01b0384163314610505576001600160a01b03841660009081526003602090815260408083203384529091529020548211156104cb5760405162461bcd60e51b815260206004820152602560248201527f556e69742050726f746f636f6c3a20494e53554646494349454e545f414c4c4f60448201527f57414e4345000000000000000000000000000000000000000000000000000000606482015260840161038b565b6001600160a01b0384166000908152600360209081526040808320338085529252909120546105059186916105009086610b7f565b610a26565b6001600160a01b0384166000908152600260205260409020546105289083610b7f565b6001600160a01b0380861660009081526002602052604080822093909355908516815220546105579083610ba9565b6001600160a01b0380851660008181526002602052604090819020939093559151908616907fddf252ad1be2c89b69c2b068fc378daa952ba7f163c4a11628f55a4df523b3ef906105ab9086815260200190565b60405180910390a35060019392505050565b3360008181526003602090815260408083206001600160a01b0387168452909152812054909161032d9185906105009086610ba9565b60008054906101000a90046001600160a01b03166001600160a01b031663fbfa77cf6040518163ffffffff1660e01b815260040160206040518083038186803b15801561063f57600080fd5b505afa158015610653573d6000803e3d6000fd5b505050506040513d601f19601f820116820180604052508101906106779190610c7b565b6001600160a01b0316336001600160a01b0316146106e35760405162461bcd60e51b8152602060048201526024808201527f556e69742050726f746f636f6c3a206f6e6c795661756c7420415554485f46416044820152631253115160e21b606482015260840161038b565b6001600160a01b0382166107395760405162461bcd60e51b815260206004820152601b60248201527f556e69742050726f746f636f6c3a205a45524f5f414444524553530000000000604482015260640161038b565b6001600160a01b03821660009081526002602052604090205461075c9082610ba9565b6001600160a01b0383166000908152600260205260409020556001546107829082610ba9565b6001556040518181526001600160a01b038316906000907fddf252ad1be2c89b69c2b068fc378daa952ba7f163c4a11628f55a4df523b3ef906020015b60405180910390a35050565b6000546040517ff3ae24150000000000000000000000000000000000000000000000000000000081523360048201526001600160a01b039091169063f3ae24159060240160206040518083038186803b15801561082757600080fd5b505afa15801561083b573d6000803e3d6000fd5b505050506040513d601f19601f8201168201806040525081019061085f9190610d3a565b6108d15760405162461bcd60e51b815260206004820152602660248201527f556e69742050726f746f636f6c3a206f6e6c794d616e6167657220415554485f60448201527f4641494c45440000000000000000000000000000000000000000000000000000606482015260840161038b565b6108db3382610bd5565b50565b60008054906101000a90046001600160a01b03166001600160a01b031663fbfa77cf6040518163ffffffff1660e01b815260040160206040518083038186803b15801561092a57600080fd5b505afa15801561093e573d6000803e3d6000fd5b505050506040513d601f19601f820116820180604052508101906109629190610c7b565b6001600160a01b0316336001600160a01b0316146109ce5760405162461bcd60e51b8152602060048201526024808201527f556e69742050726f746f636f6c3a206f6e6c795661756c7420415554485f46416044820152631253115160e21b606482015260840161038b565b6109d88282610bd5565b5050565b3360008181526003602090815260408083206001600160a01b0387168452909152812054909161032d9185906105009086610b7f565b6000610a1f338484610337565b9392505050565b6001600160a01b038316610aa25760405162461bcd60e51b815260206004820152602c60248201527f556e69742050726f746f636f6c3a20617070726f76652066726f6d207468652060448201527f7a65726f20616464726573730000000000000000000000000000000000000000606482015260840161038b565b6001600160a01b038216610b1e5760405162461bcd60e51b815260206004820152602a60248201527f556e69742050726f746f636f6c3a20617070726f766520746f20746865207a6560448201527f726f206164647265737300000000000000000000000000000000000000000000606482015260840161038b565b6001600160a01b0383811660008181526003602090815260408083209487168084529482529182902085905590518481527f8c5be1e5ebec7d5bd14f71427d1e84f3dd0314c0f7b2291e5b200ac8c7c3b925910160405180910390a3505050565b600082821115610b9f57634e487b7160e01b600052600160045260246000fd5b610a1f8284610ddd565b6000610bb58284610dc5565b90508281101561033157634e487b7160e01b600052600160045260246000fd5b6001600160a01b038216600090815260026020526040902054610bf89082610b7f565b6001600160a01b038316600090815260026020526040902055600154610c1e9082610b7f565b6001556040518181526000906001600160a01b038416907fddf252ad1be2c89b69c2b068fc378daa952ba7f163c4a11628f55a4df523b3ef906020016107bf565b600060208284031215610c70578081fd5b8135610a1f81610e0a565b600060208284031215610c8c578081fd5b8151610a1f81610e0a565b60008060408385031215610ca9578081fd5b8235610cb481610e0a565b91506020830135610cc481610e0a565b809150509250929050565b600080600060608486031215610ce3578081fd5b8335610cee81610e0a565b92506020840135610cfe81610e0a565b929592945050506040919091013590565b60008060408385031215610d21578182fd5b8235610d2c81610e0a565b946020939093013593505050565b600060208284031215610d4b578081fd5b81518015158114610a1f578182fd5b600060208284031215610d6b578081fd5b5035919050565b6000602080835283518082850152825b81811015610d9e57858101830151858201604001528201610d82565b81811115610daf5783604083870101525b50601f01601f1916929092016040019392505050565b60008219821115610dd857610dd8610df4565b500190565b600082821015610def57610def610df4565b500390565b634e487b7160e01b600052601160045260246000fd5b6001600160a01b03811681146108db57600080fdfea2646970667358221220f4265833ba645e7a407af9abdbe6ff1e51c67ba5547e73cf160213701ebe766f64736f6c63430008040033",
  "linkReferences": {},
  "deployedLinkReferences": {}
}