{
  "_format": "hh-sol-artifact-1",
  "contractName": "SuUSD",
  "sourceName": "contracts/SuUSD.sol",
  "abi": [
    {
      "inputs": [
        {
          "internalType": "address",
          "name": "_authControl",
          "type": "address"
        }
      ],
      "stateMutability": "nonpayable",
      "type": "constructor"
    },
    {
      "anonymous": false,
      "inputs": [
        {
          "indexed": true,
          "internalType": "address",
          "name": "owner",
          "type": "address"
        },
        {
          "indexed": true,
          "internalType": "address",
          "name": "spender",
          "type": "address"
        },
        {
          "indexed": false,
          "internalType": "uint256",
          "name": "value",
          "type": "uint256"
        }
      ],
      "name": "Approval",
      "type": "event"
    },
    {
      "anonymous": false,
      "inputs": [
        {
          "indexed": true,
          "internalType": "address",
          "name": "from",
          "type": "address"
        },
        {
          "indexed": true,
          "internalType": "address",
          "name": "to",
          "type": "address"
        },
        {
          "indexed": false,
          "internalType": "uint256",
          "name": "value",
          "type": "uint256"
        }
      ],
      "name": "Transfer",
      "type": "event"
    },
    {
      "inputs": [],
      "name": "ACCESS_CONTROL_SINGLETON",
      "outputs": [
        {
          "internalType": "contract ISuAccessControl",
          "name": "",
          "type": "address"
        }
      ],
      "stateMutability": "view",
      "type": "function"
    },
    {
      "inputs": [],
      "name": "LIQUIDATION_ACCESS_ROLE",
      "outputs": [
        {
          "internalType": "bytes32",
          "name": "",
          "type": "bytes32"
        }
      ],
      "stateMutability": "view",
      "type": "function"
    },
    {
      "inputs": [],
      "name": "MINTER_ROLE",
      "outputs": [
        {
          "internalType": "bytes32",
          "name": "",
          "type": "bytes32"
        }
      ],
      "stateMutability": "view",
      "type": "function"
    },
    {
      "inputs": [],
      "name": "VAULT_ACCESS_ROLE",
      "outputs": [
        {
          "internalType": "bytes32",
          "name": "",
          "type": "bytes32"
        }
      ],
      "stateMutability": "view",
      "type": "function"
    },
    {
      "inputs": [
        {
          "internalType": "address",
          "name": "owner",
          "type": "address"
        },
        {
          "internalType": "address",
          "name": "spender",
          "type": "address"
        }
      ],
      "name": "allowance",
      "outputs": [
        {
          "internalType": "uint256",
          "name": "",
          "type": "uint256"
        }
      ],
      "stateMutability": "view",
      "type": "function"
    },
    {
      "inputs": [
        {
          "internalType": "address",
          "name": "spender",
          "type": "address"
        },
        {
          "internalType": "uint256",
          "name": "amount",
          "type": "uint256"
        }
      ],
      "name": "approve",
      "outputs": [
        {
          "internalType": "bool",
          "name": "",
          "type": "bool"
        }
      ],
      "stateMutability": "nonpayable",
      "type": "function"
    },
    {
      "inputs": [
        {
          "internalType": "address",
          "name": "account",
          "type": "address"
        }
      ],
      "name": "balanceOf",
      "outputs": [
        {
          "internalType": "uint256",
          "name": "",
          "type": "uint256"
        }
      ],
      "stateMutability": "view",
      "type": "function"
    },
    {
      "inputs": [
        {
          "internalType": "uint256",
          "name": "amount",
          "type": "uint256"
        }
      ],
      "name": "burn",
      "outputs": [],
      "stateMutability": "nonpayable",
      "type": "function"
    },
    {
      "inputs": [
        {
          "internalType": "address",
          "name": "from",
          "type": "address"
        },
        {
          "internalType": "uint256",
          "name": "amount",
          "type": "uint256"
        }
      ],
      "name": "burn",
      "outputs": [],
      "stateMutability": "nonpayable",
      "type": "function"
    },
    {
      "inputs": [],
      "name": "decimals",
      "outputs": [
        {
          "internalType": "uint8",
          "name": "",
          "type": "uint8"
        }
      ],
      "stateMutability": "view",
      "type": "function"
    },
    {
      "inputs": [
        {
          "internalType": "address",
          "name": "spender",
          "type": "address"
        },
        {
          "internalType": "uint256",
          "name": "subtractedValue",
          "type": "uint256"
        }
      ],
      "name": "decreaseAllowance",
      "outputs": [
        {
          "internalType": "bool",
          "name": "",
          "type": "bool"
        }
      ],
      "stateMutability": "nonpayable",
      "type": "function"
    },
    {
      "inputs": [
        {
          "internalType": "address",
          "name": "spender",
          "type": "address"
        },
        {
          "internalType": "uint256",
          "name": "addedValue",
          "type": "uint256"
        }
      ],
      "name": "increaseAllowance",
      "outputs": [
        {
          "internalType": "bool",
          "name": "",
          "type": "bool"
        }
      ],
      "stateMutability": "nonpayable",
      "type": "function"
    },
    {
      "inputs": [
        {
          "internalType": "address",
          "name": "to",
          "type": "address"
        },
        {
          "internalType": "uint256",
          "name": "amount",
          "type": "uint256"
        }
      ],
      "name": "mint",
      "outputs": [],
      "stateMutability": "nonpayable",
      "type": "function"
    },
    {
      "inputs": [],
      "name": "name",
      "outputs": [
        {
          "internalType": "string",
          "name": "",
          "type": "string"
        }
      ],
      "stateMutability": "view",
      "type": "function"
    },
    {
      "inputs": [],
      "name": "symbol",
      "outputs": [
        {
          "internalType": "string",
          "name": "",
          "type": "string"
        }
      ],
      "stateMutability": "view",
      "type": "function"
    },
    {
      "inputs": [],
      "name": "totalSupply",
      "outputs": [
        {
          "internalType": "uint256",
          "name": "",
          "type": "uint256"
        }
      ],
      "stateMutability": "view",
      "type": "function"
    },
    {
      "inputs": [
        {
          "internalType": "address",
          "name": "to",
          "type": "address"
        },
        {
          "internalType": "uint256",
          "name": "amount",
          "type": "uint256"
        }
      ],
      "name": "transfer",
      "outputs": [
        {
          "internalType": "bool",
          "name": "",
          "type": "bool"
        }
      ],
      "stateMutability": "nonpayable",
      "type": "function"
    },
    {
      "inputs": [
        {
          "internalType": "address",
          "name": "from",
          "type": "address"
        },
        {
          "internalType": "address",
          "name": "to",
          "type": "address"
        },
        {
          "internalType": "uint256",
          "name": "amount",
          "type": "uint256"
        }
      ],
      "name": "transferFrom",
      "outputs": [
        {
          "internalType": "bool",
          "name": "",
          "type": "bool"
        }
      ],
      "stateMutability": "nonpayable",
      "type": "function"
    }
  ],
  "bytecode": "0x60a06040523480156200001157600080fd5b50604051620012ad380380620012ad83398101604081905262000034916200015e565b604080518082018252600e81526d14dd18589b19555b9a5d081554d160921b60208083019182528351808501909452600584526414dd5554d160da1b908401528151849391620000889160039190620000b8565b5080516200009e906004906020840190620000b8565b50505060601b6001600160601b03191660805250620001cb565b828054620000c6906200018e565b90600052602060002090601f016020900481019282620000ea576000855562000135565b82601f106200010557805160ff191683800117855562000135565b8280016001018555821562000135579182015b828111156200013557825182559160200191906001019062000118565b506200014392915062000147565b5090565b5b8082111562000143576000815560010162000148565b60006020828403121562000170578081fd5b81516001600160a01b038116811462000187578182fd5b9392505050565b600181811c90821680620001a357607f821691505b60208210811415620001c557634e487b7160e01b600052602260045260246000fd5b50919050565b60805160601c6110ae620001ff600039600081816101400152818161048a0152818161058701526106ac01526110ae6000f3fe608060405234801561001057600080fd5b50600436106101365760003560e01c806342966c68116100b2578063a457c2d711610081578063d539139311610066578063d5391393146102bb578063dc97e84e146102e2578063dd62ed3e1461030957600080fd5b8063a457c2d714610295578063a9059cbb146102a857600080fd5b806342966c681461023e57806370a082311461025157806395d89b411461027a5780639dc29fac1461028257600080fd5b806318160ddd11610109578063313ce567116100ee578063313ce56714610207578063395093511461021657806340c10f191461022957600080fd5b806318160ddd146101ec57806323b872dd146101f457600080fd5b806303ee9f221461013b57806306fdde031461017f578063095ea7b31461019457806314c376dc146101b7575b600080fd5b6101627f000000000000000000000000000000000000000000000000000000000000000081565b6040516001600160a01b0390911681526020015b60405180910390f35b610187610342565b6040516101769190610fa5565b6101a76101a2366004610f44565b6103d4565b6040519015158152602001610176565b6101de7fe965846df3dd5b1dfa65f58e31477079e90140e0908b6dd31b5aead5a57cf36581565b604051908152602001610176565b6002546101de565b6101a7610202366004610f09565b6103ec565b60405160128152602001610176565b6101a7610224366004610f44565b610410565b61023c610237366004610f44565b61044f565b005b61023c61024c366004610f8d565b61056b565b6101de61025f366004610eb6565b6001600160a01b031660009081526020819052604090205490565b610187610662565b61023c610290366004610f44565b610671565b6101a76102a3366004610f44565b610784565b6101a76102b6366004610f44565b61082e565b6101de7f9f2df0fed2c77648de5860a4cc508cd0818c85b8b8a1ab4ceeef8d981c8956a681565b6101de7f9a9aef7c1247d5fc769b0185c052913e39673da29a880317dfd20ebf86f26a4981565b6101de610317366004610ed7565b6001600160a01b03918216600090815260016020908152604080832093909416825291909152205490565b60606003805461035190611027565b80601f016020809104026020016040519081016040528092919081815260200182805461037d90611027565b80156103ca5780601f1061039f576101008083540402835291602001916103ca565b820191906000526020600020905b8154815290600101906020018083116103ad57829003601f168201915b5050505050905090565b6000336103e281858561083c565b5060019392505050565b6000336103fa858285610995565b610405858585610a27565b506001949350505050565b3360008181526001602090815260408083206001600160a01b03871684529091528120549091906103e2908290869061044a908790610ff8565b61083c565b604051632474521560e21b81527f9f2df0fed2c77648de5860a4cc508cd0818c85b8b8a1ab4ceeef8d981c8956a660048201523360248201527f00000000000000000000000000000000000000000000000000000000000000006001600160a01b0316906391d148549060440160206040518083038186803b1580156104d457600080fd5b505afa1580156104e8573d6000803e3d6000fd5b505050506040513d601f19601f8201168201806040525081019061050c9190610f6d565b61055d5760405162461bcd60e51b815260206004820152601e60248201527f5375417574683a206f6e6c794d696e74657220415554485f4641494c4544000060448201526064015b60405180910390fd5b6105678282610c3e565b5050565b604051632474521560e21b8152600060048201523360248201527f00000000000000000000000000000000000000000000000000000000000000006001600160a01b0316906391d148549060440160206040518083038186803b1580156105d157600080fd5b505afa1580156105e5573d6000803e3d6000fd5b505050506040513d601f19601f820116820180604052508101906106099190610f6d565b6106555760405162461bcd60e51b815260206004820152601d60248201527f5375417574683a206f6e6c794f776e657220415554485f4641494c45440000006044820152606401610554565b61065f3382610d1d565b50565b60606004805461035190611027565b604051632474521560e21b81527f9f2df0fed2c77648de5860a4cc508cd0818c85b8b8a1ab4ceeef8d981c8956a660048201523360248201527f00000000000000000000000000000000000000000000000000000000000000006001600160a01b0316906391d148549060440160206040518083038186803b1580156106f657600080fd5b505afa15801561070a573d6000803e3d6000fd5b505050506040513d601f19601f8201168201806040525081019061072e9190610f6d565b61077a5760405162461bcd60e51b815260206004820152601e60248201527f5375417574683a206f6e6c794d696e74657220415554485f4641494c454400006044820152606401610554565b6105678282610d1d565b3360008181526001602090815260408083206001600160a01b0387168452909152812054909190838110156108215760405162461bcd60e51b815260206004820152602560248201527f45524332303a2064656372656173656420616c6c6f77616e63652062656c6f7760448201527f207a65726f0000000000000000000000000000000000000000000000000000006064820152608401610554565b610405828686840361083c565b6000336103e2818585610a27565b6001600160a01b0383166108b75760405162461bcd60e51b8152602060048201526024808201527f45524332303a20617070726f76652066726f6d20746865207a65726f2061646460448201527f72657373000000000000000000000000000000000000000000000000000000006064820152608401610554565b6001600160a01b0382166109335760405162461bcd60e51b815260206004820152602260248201527f45524332303a20617070726f766520746f20746865207a65726f20616464726560448201527f73730000000000000000000000000000000000000000000000000000000000006064820152608401610554565b6001600160a01b0383811660008181526001602090815260408083209487168084529482529182902085905590518481527f8c5be1e5ebec7d5bd14f71427d1e84f3dd0314c0f7b2291e5b200ac8c7c3b92591015b60405180910390a3505050565b6001600160a01b038381166000908152600160209081526040808320938616835292905220546000198114610a215781811015610a145760405162461bcd60e51b815260206004820152601d60248201527f45524332303a20696e73756666696369656e7420616c6c6f77616e63650000006044820152606401610554565b610a21848484840361083c565b50505050565b6001600160a01b038316610aa35760405162461bcd60e51b815260206004820152602560248201527f45524332303a207472616e736665722066726f6d20746865207a65726f20616460448201527f64726573730000000000000000000000000000000000000000000000000000006064820152608401610554565b6001600160a01b038216610b1f5760405162461bcd60e51b815260206004820152602360248201527f45524332303a207472616e7366657220746f20746865207a65726f206164647260448201527f65737300000000000000000000000000000000000000000000000000000000006064820152608401610554565b6001600160a01b03831660009081526020819052604090205481811015610bae5760405162461bcd60e51b815260206004820152602660248201527f45524332303a207472616e7366657220616d6f756e742065786365656473206260448201527f616c616e636500000000000000000000000000000000000000000000000000006064820152608401610554565b6001600160a01b03808516600090815260208190526040808220858503905591851681529081208054849290610be5908490610ff8565b92505081905550826001600160a01b0316846001600160a01b03167fddf252ad1be2c89b69c2b068fc378daa952ba7f163c4a11628f55a4df523b3ef84604051610c3191815260200190565b60405180910390a3610a21565b6001600160a01b038216610c945760405162461bcd60e51b815260206004820152601f60248201527f45524332303a206d696e7420746f20746865207a65726f2061646472657373006044820152606401610554565b8060026000828254610ca69190610ff8565b90915550506001600160a01b03821660009081526020819052604081208054839290610cd3908490610ff8565b90915550506040518181526001600160a01b038316906000907fddf252ad1be2c89b69c2b068fc378daa952ba7f163c4a11628f55a4df523b3ef9060200160405180910390a35050565b6001600160a01b038216610d995760405162461bcd60e51b815260206004820152602160248201527f45524332303a206275726e2066726f6d20746865207a65726f2061646472657360448201527f73000000000000000000000000000000000000000000000000000000000000006064820152608401610554565b6001600160a01b03821660009081526020819052604090205481811015610e285760405162461bcd60e51b815260206004820152602260248201527f45524332303a206275726e20616d6f756e7420657863656564732062616c616e60448201527f63650000000000000000000000000000000000000000000000000000000000006064820152608401610554565b6001600160a01b0383166000908152602081905260408120838303905560028054849290610e57908490611010565b90915550506040518281526000906001600160a01b038516907fddf252ad1be2c89b69c2b068fc378daa952ba7f163c4a11628f55a4df523b3ef90602001610988565b80356001600160a01b0381168114610eb157600080fd5b919050565b600060208284031215610ec7578081fd5b610ed082610e9a565b9392505050565b60008060408385031215610ee9578081fd5b610ef283610e9a565b9150610f0060208401610e9a565b90509250929050565b600080600060608486031215610f1d578081fd5b610f2684610e9a565b9250610f3460208501610e9a565b9150604084013590509250925092565b60008060408385031215610f56578182fd5b610f5f83610e9a565b946020939093013593505050565b600060208284031215610f7e578081fd5b81518015158114610ed0578182fd5b600060208284031215610f9e578081fd5b5035919050565b6000602080835283518082850152825b81811015610fd157858101830151858201604001528201610fb5565b81811115610fe25783604083870101525b50601f01601f1916929092016040019392505050565b6000821982111561100b5761100b611062565b500190565b60008282101561102257611022611062565b500390565b600181811c9082168061103b57607f821691505b6020821081141561105c57634e487b7160e01b600052602260045260246000fd5b50919050565b634e487b7160e01b600052601160045260246000fdfea2646970667358221220d6238c70740f77da556ee3aa2a6de303485cbbbf44db29317965bf992a1335ff64736f6c63430008040033",
  "linkReferences": {},
  "deployedLinkReferences": {}
}